154169000154169               154169               170213OC     1400+00000+OC0000003507+0000003507+000000000+000000491+0000003998+0000000000+I40000003998+0000000000+Z
154169001154169031-000856     154169006001023852113P/FRAME PL BROWN 10X15 0000001000+00003507+00000+0001T   00003507+0000000900          1400 JF9510               1AZ
154170000154170               154170               170213OC     1400+00000+OC0000002630+0000002630+000000000+000000369+0000002999+0000000000+I40000002999+0000000000+Z
154170001154170466-000515     154170006001023477408BALLS TENNIS BAG-OF-3  0000001000+00002630+00000+0001T   00002630+0000000912          1400 JF9785               1AZ
154171000154171               154171               170213OC     1400+00000+OC0000010519+0000010519+000000000+000001476+0000011995+0000000000+I40000011995+0000000000+Z
154171001154171077-000116     154171006003000240777GIFT-WRAP 700mmx2m COL 0000001000+00001753+00000+0001T   00001753+0000000930          1400 JF9112               1AZ
154171002154171007-000602     154171006003000541270BOOK COVER 2M SOLID COL0000002000+00002630+00000+0001T   00002630+0000000930          1400 JF9130               1AZ
154171003154171077-000116     154171006003000240777GIFT-WRAP 700mmx2m COL 0000002000+00001753+00000+0001T   00001753+0000000930          1400 JF9112               1AZ
154172000154172               154172               170213OC     1400+00000+OC0000009646+0000009646+000000000+000001352+0000010990+0000000008+I20000000000+0000010990+Z
154172001154172079-000201     154172006003000161430P/CRAYONS THERAPY 10PCE0000001000+00002630+00000+0001T   00002630+0000000930          1400 JF9130               1AZ
154172002154172079-000335     154172006003000670550THERAPY P/CRAYONS 30   0000001000+00007016+00000+0001T   00007016+0000000930          1400 JF9130               1AZ
154173000154173               154173               170213OC     1400+00000+OC0000002630+0000002630+000000000+000000369+0000002990+0000000009+I20000000000+0000002990+Z
154173001154173304-001200     154173006003000427239FLOWER HYDRANGEA 66CM  0000001000+00002630+00000+0001T   00002630+0000000931          1400 JF9510               1AZ
154174000154174               154174               170213OC     1400+00000+OC0000014944+0000014944+000000000+000002093+0000017037+0000000000+I40000017037+0000000000+Z
154174001154174158-000004     154174006001023577894CUTLERY DRAINER TRAY   0000001000+00004385+00000+0001T   00004385+0000000940          1400 JF9300               1AZ
154174002154174018-019000     154174006003000557288MUG OCC. LOVE JUMBO    0000002000+00005262+00000+0001T   00005262+0000000940          1400 JF9515               1AZ
154174003154174112-116038     154174006003000534906TCS CARRIER BAG MIDI   0000001000+00000035+00000+0001T   00000035+0000000940          1400 JF9090               1AZ
154175000154175               154175               170213OC     1400+00000+OC0000015688+0000015688+000000000+000002219+0000017907+0000000000+I40000017907+0000000000+Z
154175001154175112-116038     154175006003000534906TCS CARRIER BAG MIDI   0000001000+00000035+00000+0001T   00000035+0000000947          1400 JF9090               1AZ
154175002154175077-000311     154175006001023608666GIFT-BAG 11X14CM GLOSS 0000002000+00000613+00000+0001T   00000613+0000000947          1400 JF9112               1AZ
154175003154175071-003030     154175006003000006007PENS NOVELTY 2PCE      0000001000+00001753+00000+0001T   00001753+0000000947          1400 JF9130               1AZ
154175004154175903-000183     154175006003000451043SWT LB HEART LOLLY     0000022000+00000393+00000+0001T   00000393+0000000947          1400 JF9150               1AZ
154175005154175018-000177     154175006001023797513MUG MINI LOVE ASSTD    0000002000+00000700+00000+0001T   00000700+0000000947          1400 JF9515               1AZ
154175006154175903-000844     154175005010478432567SWT CANDY DL LUV HEARTS0000002000+00001314+00000+0001T   00001314+0000000947          1400 JF9150               1AZ
154176000154176               154176               170213OC     1400+00000+OC0000001753+0000001753+000000000+000000246+0000001990+0000000009+I20000000000+0000001990+Z
154176001154176047-000507     154176006001023684479PLUG-ADAPTOR EURO TWIN 0000001000+00001753+00000+0001T   00001753+0000000955          1400 JF9880               1AZ
154177000154177               154177               170213OC     1400+00000+OC0000005733+0000005733+000000000+000000804+0000006530+0000000007+I20000000000+0000006530+Z
154177001154177079-006496     154177006003000160105GLITTER SHAKERS        0000001000+00001753+00000+0001T   00001753+0000000956          1400 JF9130               1AZ
154177002154177079-006500     154177006001023557186GLUE GLITTER 6/10 PCE  0000001000+00001753+00000+0001T   00001753+0000000956          1400 JF9130               1AZ
154177003154177566-000359     154177006003000582709STICKER BOOK LOVE SPARK0000001000+00002192+00000+0001T   00002192+0000000956          1400 JF9130               1AZ
154177004154177112-116038     154177006003000534906TCS CARRIER BAG MIDI   0000001000+00000035+00000+0001T   00000035+0000000956          1400 JF9090               1AZ
154178000154178               154178               170213OC     1400+00000+OC0000001314+0000001314+000000000+000000184+0000001490+0000000008+I20000000000+0000001490+Z
154178001154178046-000012     154178006904708013062BATTERIES AA  CARD-OF-40000001000+00001314+00000+0001T   00001314+0000000958          1400 JF9312               1AZ
154179000154179               154179               170213OC     1400+00000+OC0000002630+0000002630+000000000+000000369+0000002990+0000000009+I20000000000+0000002990+Z
154179001154179124-000001     154179000738380781690STORAGE TIN TISSUE     0000001000+00002630+00000+0001T   00003507+0008171002          1400 JF9300               1AZ
154180000154180               154180               170213OC     1400+00000+OC0000002192+0000002192+000000000+000000307+0000002490+0000000009+I20000000000+0000002490+Z
154180001154180080-000127     154180006003000424351VALENTINES DAY 36x24CM 0000001000+00002192+00000+0001T   00002192+0000001012          1400 JF9112               1DZ
154181000154181               154181               170213OC     1400+00000+OC0000002192+0000002192+000000000+000000307+0000002499+0000000000+I40000002499+0000000000+Z
154181001154181080-000127     154181006003000424351VALENTINES DAY 36x24CM 0000001000+00002192+00000+0001T   00002192+0000001013          1400 JF9112               1AZ
154182000154182               154182               170213OC     1400+00000+OC0000024249+0000024249+000000000+000003399+0000027648+0000000000+I40000027648+0000000000+Z
154182001154182301-085003     154182006003000420827ORN OCCASION LOVE KEY  0000001000+00005262+00000+0001T   00005262+0000001016          1400 JF9505               1AZ
154182002154182304-001204     154182006001023737984FLOWER OCC. TEDDY/ROSES0000003000+00001402+00000+0001T   00001490+0006471016          1400 JF9510               1AZ
154182003154182077-000245     154182006001023759214GIFT-RIBBON METALLICx2 0000002000+00001227+00000+0001T   00001227+0000001016          1400 JF9112               1AZ
154182004154182368-000113     154182006001023780874PLUSH BLINGED LOVE 30cm0000001000+00012279+00000+0001T   00012279+0000001016          1400 JF9745               1AZ
154182005154182112-116069     154182006009681820277TCS CARRIER BAG JUMBO  0000001000+00000048+00000+0001T   00000048+0000001016          1400 JF9090               1AZ
154183000154183               154183               170213OC     1400+00000+OC0000017590+0000017590+000000000+000002463+0000020053+0000000000+I40000020053+0000000000+Z
154183001154183019-000010     154183006003000673452VASE GLS W/STAND 28CM  0000002000+00008771+00000+0001T   00008771+0000001018          1400 JF9510               1AZ
154183002154183112-116069     154183006009681820277TCS CARRIER BAG JUMBO  0000001000+00000048+00000+0001T   00000048+0000001018          1400 JF9090               1AZ
154184000154184               154184               170213OC     1400+00000+OC0000005262+0000005262+000000000+000000737+0000005999+0000000000+I40000005999+0000000000+Z
154184001154184304-001116     154184006003000426164F/BUNCH ROSES 12-HEAD  0000001000+00005262+00000+0001T   00005262+0000001026          1400 JF9510               1BZ
154185000154185               154185               170213OC     1400+00000+OC0000004997+0000004997+000000000+000000700+0000005690+0000000007+I20000000000+0000005690+Z
154185001154185077-000299     154185006003000395576G/BAG 32x25cm LRG LOVE 0000001000+00001490+00000+0001T   00001490+0000001027          1400 JF9112               1BZ
154185002154185301-085004     154185006003000420469ORN LOVE PLAQUE 21X10CM0000001000+00003507+00000+0001T   00003946+0006471027          1400 JF9505               1BZ
154186000154186               154186               170213OC     1400+00000+OC0000001314+0000001314+000000000+000000184+0000001490+0000000008+I20000000000+0000001490+Z
154186001154186055-009054     154186006001023471994CUP-HOOKS BRS 30mm H&H 0000001000+00001314+00000+0001T   00001314+0000001049          1400 JF9810               1AZ
154187000154187               154187               170213OC     1400+00000+OC0000022879+0000022879+000000000+000003206+0000026085+0000000000+I40000026085+0000000000+Z
154187001154187080-000114     154187006003000246472CARD&ENV LOVE-MUSICAL  0000001000+00001314+00000+0001T   00001753+0008151052          1400 JF9112               1AZ
154187002154187077-000299-A   154187006003000670888GIFT-BAG PAPER JMB LOVE0000001000+00001753+00000+0001T   00001753+0000001052          1400 JF9112               1AZ
154187003154187304-001204     154187006001023737984FLOWER OCC. TEDDY/ROSES0000002000+00001402+00000+0001T   00001490+0006471052          1400 JF9510               1AZ
154187004154187368-000637     154187006001023874092PLUSH BEAR SLEEPING LOV0000001000+00011402+00000+0001T   00012279+0006471052          1400 JF9745               1AZ
154187005154187018-000127     154187006001023380289MUG OCC STRAIGHT LOVE  0000001000+00001578+00000+0001T   00001753+0006471052          1400 JF9515               1AZ
154187006154187018-000177     154187006001023797513MUG MINI LOVE ASSTD    0000002000+00000700+00000+0001T   00000700+0000001052          1400 JF9515               1AZ
154187007154187903-000194     154187006009826020616SWT CHOC RP LOLLY 25G  0000002000+00001314+00000+0001T   00001314+0000001052          1400 JF9150               1AZ
154188000154188               154188               170213OC     1400+00000+OC0000006138+0000006138+000000000+000000860+0000006990+0000000008+I20000000000+0000006990+Z
154188001154188077-000115-B   154188006003000181025GIFT-WRAP PPR 700MMX2M 0000001000-00002630+00000+0001T   00002630+0000001055          1400 JF91122IC            1AZ
154188002154188077-000115-B   154188006003000181025GIFT-WRAP PPR 700MMX2M 0000001000+00002630+00000+0001T   00002630+0000001055          1400 JF91122IC            1AZ
154188003154188039-080959     154188006003000048922CANDLE PILLAR BALL 8CM 0000002000+00003069+00000+0001T   00003069+0000001055          1400 JF9510               1AZ
154189000154189               154189               170213OC     1400+00000+OC0000003507+0000003507+000000000+000000491+0000003990+0000000008+I20000000000+0000003990+Z
154189001154189162-092941     154189006001492929415#TAG KIDS BEADED WR&ER 0000001000+00003507+00000+0001T   00003507+0000001056          1400 JF9160               1AZ
154190000154190               154190               170213OC     1400+00000+OC0000002630+0000002630+000000000+000000369+0000002990+0000000009+I20000000000+0000002990+Z
154190001154190077-000115-B   154190006003000181025GIFT-WRAP PPR 700MMX2M 0000001000+00002630+00000+0001T   00002630+0000001056          1400 JF9112               1AZ
154191000154191               154191               170213OC     1400+00000+OC0000003056+0000003056+000000000+000000429+0000003480+0000000005+I20000000000+0000003480+Z
154191001154191903-000194     154191006009826020616SWT CHOC RP LOLLY 25G  0000002000+00001314+00000+0001T   00001314+0000001059          1400 JF9150               1AZ
154191002154191903-000183     154191006003000451043SWT LB HEART LOLLY     0000001000+00000393+00000+0001T   00000393+0000001059          1400 JF9150               1AZ
154191003154191112-116038     154191006003000534906TCS CARRIER BAG MIDI   0000001000+00000035+00000+0001T   00000035+0000001059          1400 JF9090               1AZ
154192000154192               154192               170213OC     1400+00000+OC0000002278+0000002278+000000000+000000320+0000002590+0000000008+I20000000000+0000002590+Z
154192001154192903-000087     154192006001704000161SWT SPECKLED-EGGS 50G  0000002000+00001139+00000+0001T   00001139+0000001100          1400 JF9150               1AZ
154193000154193               154193               170213OC     1400+00000+OC0000010524+0000010524+000000000+000001474+0000011998+0000000000+I40000011998+0000000000+Z
154193001154193567-010163     154193006003000485208BOOK TOP ASSTD CHILDREN0000001000+00006139+00000+0001T   00006139+0000001101          1400 JF9757               1AZ
154193002154193018-030000     154193006003000421060MUG OCCASIONS LOVE 2PCE0000001000+00004385+00000+0001T   00004385+0000001101          1400 JF9515               1AZ
154194000154194               154194               170213OC     1400+00000+OC0000002632+0000002632+000000000+000000368+0000003000+0000000000+I20000000000+0000003000+Z
154194001154194075-000360     154194006003000267705PURSE 9x6cm B-FLY/ROSE 0000001000-00002630+00000+0001T   00002630+0000001109          1400 JF91602IC            1 Z
154194002154194075-000325     154194006003000285495WALLET CANVAS ASSTD    0000001000+00005262+00000+0001T   00005262+0000001109          1400 JF9160               1AZ
154195000154195               154195               170213OC     1400+00000+OC0000002192+0000002192+000000000+000000307+0000002499+0000000000+I40000002499+0000000000+Z
154195001154195080-000127     154195006003000424351VALENTINES DAY 36x24CM 0000001000+00002192+00000+0001T   00002192+0000001116          1400 JF9112               1AZ
154196000154196               154196               170213OC     1400+00000+OC0000068273+0000068273+000000000+000009566+0000077839+0000000000+I40000077839+0000000000+Z
154196001154196365-064013     154196006003000303144PL-SET TABLE W/11PC ACC0000001000+00021051+00000+0001T   00021051+0000001119          1400 JF9725               1AZ
154196002154196403-000509     154196006001023699664MONEY-BANK PL. PIGGY   0000001000+00002630+00000+0001T   00002630+0000001119          1400 JF9510               1AZ
154196003154196112-116069     154196006009681820277TCS CARRIER BAG JUMBO  0000001000+00000048+00000+0001T   00000048+0000001119          1400 JF9090               1AZ
154196004154196264-015494     154196000090159154945MAISTO DINKY MUSCLE CAR0000001000+00007893+00000+0001T   00007893+0000001119          1400 JF9710               1AZ
154196005154196264-000922     154196000090159250012MAISTO CAR PULL-BACK   0000002000+00006139+00000+0001T   00007016+0008191119          1400 JF9710               1AZ
154196006154196264-015494     154196000090159154945MAISTO DINKY MUSCLE CAR0000001000+00007893+00000+0001T   00007893+0000001119          1400 JF9710               1AZ
154196007154196264-000922     154196000090159250012MAISTO CAR PULL-BACK   0000001000+00006139+00000+0001T   00007016+0008191119          1400 JF9710               1AZ
154196008154196078-009100     154196006008741002349ALL-CLEAR GLUE 25ml CRD0000001000+00001314+00000+0001T   00001314+0000001119          1400 JF9810               1AZ
154196009154196496-069632     154196000078257596324REPAIR-KIT (GLUE/PATCH)0000001000+00001227+00000+0001T   00001227+0000001119          1400 JF9787               1AZ
154196010154196496-059631     154196006941057402611REPAIR-PATCHES   CARDED0000001000+00001314+00000+0001T   00001314+0000001119          1400 JF9787               1AZ
154196011154196496-069632     154196000078257596324REPAIR-KIT (GLUE/PATCH)0000001000+00001227+00000+0001T   00001227+0000001119          1400 JF9787               1AZ
154196012154196089-000027     154196006003000254071KEY CHAIN MOM/DAD ASSTD0000002000+00001753+00000+0001T   00001753+0000001119          1400 JF9205               1AZ
154196013154196048-000859     154196006003000423422TORCH 9 LED PL 3XAAA   0000001000+00001753+00000+0001T   00001753+0000001119          1400 JF9305               1AZ
154197000154197               154197               170213OC     1400+00000+OC0000005699+0000005699+000000000+000000799+0000006490+0000000008+I20000000000+0000006490+Z
154197001154197251-000003     154197006003000266159TAPE D/S 18x300mm V/PCK0000001000+00002630+00000+0001T   00002630+0000001120          1400 JF9810               1AZ
154197002154197020-000142     154197006003000223138KNIFE-SET 3PCE UTILITY 0000001000+00003069+00000+0001T   00003069+0000001120          1400 JF9300               1AZ
154198000154198               154198               170213OC     1400+00000+OC0000001753+0000001753+000000000+000000246+0000001990+0000000009+I20000000000+0000001990+Z
154198001154198051-002407     154198006003000452491SPRAYER TRIGGER 550ml  0000001000+00001753+00000+0001T   00001753+0000001120          1400 JF9820               1AZ
154199000154199               154199               170213OC     1400+00000+OC0000010556+0000010556+000000000+000001478+0000012030+0000000004+I20000000000+0000012030+Z
154199001154199079-000801     154199006003000539642ART+CRAFT COLOUR       0000001000+00003507+00000+0001T   00003507+0000001121          1400 JF9130               1AZ
154199002154199071-000306     154199006001023715371STENCILS ART FUN SET   0000001000+00003507+00000+0001T   00003507+0000001121          1400 JF9130               1AZ
154199003154199007-000325     154199006009698066514PAPER A4 160GSM 25SHTS 0000001000+00003507+00000+0001T   00003507+0000001121          1400 JF9130               1AZ
154199004154199112-116038     154199006003000534906TCS CARRIER BAG MIDI   0000001000+00000035+00000+0001T   00000035+0000001121          1400 JF9090               1AZ
154200000154200               154200               170213OC     1400+00000+OC0000010960+0000010960+000000000+000001535+0000012495+0000000000+I40000012495+0000000000+Z
154200001154200566-000950     154200006003000216048STICKERS 3 STYLES 100PC0000005000+00002192+00000+0001T   00002192+0000001135          1400 JF9130               1AZ
154201000154201               154201               170213OC     1400+00000+OC0000008451+0000008451+000000000+000001184+0000009630+0000000005+I20000000000+0000009630+Z
154201001154201304-001204     154201006001023737984FLOWER OCC. TEDDY/ROSES0000001000+00001402+00000+0001T   00001490+0006471210          1400 JF9510               1AZ
154201002154201018-000136     154201006001023659026MUG OCC LOVE W/PLUSH   0000002000+00003507+00000+0001T   00003507+0000001210          1400 JF9515               1AZ
154201003154201112-116038     154201006003000534906TCS CARRIER BAG MIDI   0000001000+00000035+00000+0001T   00000035+0000001210          1400 JF9090               1AZ
154202000154202               154202               170213OC     1400+00000+OC0000002538+0000002538+000000000+000000358+0000002890+0000000006+I20000000000+0000002890+Z
154202001154202077-000319     154202006001023609779GIFT-BAG 18X23CM BIRTHD0000001000+00001227+00000+0001T   00001227+0000001212          1400 JF9112               1AZ
154202002154202903-000094     154202006923431501622SWT GS CANDY NECKLACE  0000003000+00000437+00000+0001T   00000437+0000001212          1400 JF9150               1AZ
154203000154203               154203               170213OC     1400+00000+OC0000003507+0000003507+000000000+000000491+0000003990+0000000008+I20000000000+0000003990+Z
154203001154203018-000136     154203006001023659026MUG OCC LOVE W/PLUSH   0000001000+00003507+00000+0001T   00003507+0000001212          1400 JF9515               1AZ
154204000154204               154204               170213OC     1400+00000+OC0000007938+0000007938+000000000+000001112+0000009050+0000000000+I40000009050+0000000000+Z
154204001154204903-000194     154204006009826020616SWT CHOC RP LOLLY 25G  0000002000+00001314+00000+0001T   00001314+0000001214          1400 JF9150               1AZ
154204002154204366-000125     154204006003000006786DRESSUP WINGS/WAND/BAND0000001000+00005262+00000+0001T   00005262+0000001214          1400 JF9131               1AZ
154204003154204112-116069     154204006009681820277TCS CARRIER BAG JUMBO  0000001000+00000048+00000+0001T   00000048+0000001214          1400 JF9090               1AZ
154205000154205               154205               170213OC     1400+00000+OC0000002629+0000002629+000000000+000000369+0000002990+0000000008+I20000000000+0000002990+Z
154205001154205159-000653     154205006001023688859BATH-SPONGE MESH W/ROPE0000001000+00001753+00000+0001T   00001753+0000001214          1400 JF9200               1AZ
154205002154205903-000494     154205006001704009911SWT GUMMY TEENY TEDDIES0000001000+00000876+00000+0001T   00000876+0000001214          1400 JF9150               1AZ
154206000154206               154206               170213OC     1400+00000+OC0000009679+0000009679+000000000+000001357+0000011030+0000000006+I20000000000+0000011030+Z
154206001154206112-116038     154206006003000534906TCS CARRIER BAG MIDI   0000001000+00000035+00000+0001T   00000035+0000001223          1400 JF9090               1AZ
154206002154206027-000090     154206006001023588265WINDOW-CLEANER LONG-HND0000001000+00002630+00000+0001T   00002630+0000001223          1400 JF9212               1AZ
154206003154206159-003625     154206006001023902061TOILET-BRUSH W/STD 40cm0000001000+00005262+00000+0001T   00005262+0000001223          1400 JF9200               1AZ
154206004154206252-000011     154206006001023475190CURTN-GLIDER ACETYL x500000001000+00000876+00000+0001T   00000876+0000001223          1400 JF9810               1AZ
154206005154206252-000013     154206006001023488107CURTN-HOOK R6 ACETYLx500000001000+00000876+00000+0001T   00000876+0000001223          1400 JF9810               1AZ
154207000154207               154207               170213OC     1400+00000+OC0000001753+0000001753+000000000+000000246+0000001990+0000000009+I20000000000+0000001990+Z
154207001154207040-000923     154207006001023587831CANDLE-HOLDER GLS 13.5 0000001000+00001753+00000+0001T   00001753+0000001225          1400 JF9510               1AZ
154208000154208               154208               170213OC     1400+00000+OC0000000437+0000000437+000000000+000000062+0000000490+0000000009+I20000000000+0000000490+Z
154208001154208903-000885     154208008690997017147SWT L/BIRD CHOC BISCUIT0000001000+00000437+00000+0001T   00000437+0000001225          1400 JF9150               1AZ
154209000154209               154209               170213OC     1400+00000+OC0000001578+0000001578+000000000+000000221+0000001790+0000000009+I20000000000+0000001790+Z
154209001154209018-000127     154209006001023380289MUG OCC STRAIGHT LOVE  0000001000+00001578+00000+0001T   00001753+0006471226          1400 JF9515               1AZ
154210000154210               154210               170213OC     1400+00000+OC0000035076+0000035076+000000000+000004912+0000039980+0000000008+I20000000000+0000039980+Z
154210001154210103-000245     154210006003000571550BASKET WOVEN RECT      0000004000+00005262+00000+0001T   00005262+0000001228          1400 JF9300               1AZ
154210002154210103-000075     154210006003000676453WOVEN RECT BASKET      0000004000+00003507+00000+0001T   00003507+0000001228          1400 JF9300               1AZ
154211000154211               154211               170213OC     1400+00000+OC0000002366+0000002366+000000000+000000332+0000002698+0000000000+I40000002698+0000000000+Z
154211001154211089-000030     154211006003000575671K/CHAIN LOVE MTL ASSTD 0000001000+00001753+00000+0001T   00001753+0000001229          1400 JF9205               1AZ
154211002154211077-000311     154211006001023608666GIFT-BAG 11X14CM GLOSS 0000001000+00000613+00000+0001T   00000613+0000001229          1400 JF9112               1AZ
154212000154212               154212               170213OC     1400+00000+OC0000001753+0000001753+000000000+000000246+0000001990+0000000009+I20000000000+0000001990+Z
154212001154212077-000011     154212006003000542352PAPER RAFFIA ASSTD COL 0000001000+00001753+00000+0001T   00001753+0000001229          1400 JF9112               1AZ
154213000154213               154213               170213OC     1400+00000+OC0000015857+0000015857+000000000+000002223+0000018080+0000000000+I20000000000+0000018080+Z
154213001154213112-116038     154213006003000534906TCS CARRIER BAG MIDI   0000001000+00000035+00000+0001T   00000035+0000001237          1400 JF9090               1AZ
154213002154213079-013106     154213006003000081998ART+CRAFT PIPE-CLEANERS0000001000+00003069+00000+0001T   00003069+0000001237          1400 JF9130               1AZ
154213003154213071-030013     154213006003000283965PEN NVLTY NEON GEL 6PC 0000001000+00002630+00000+0001T   00002630+0000001237          1400 JF9130               1AZ
154213004154213079-000336     154213006003000670758SUPER FINE MARKER PENS 0000001000+00005262+00000+0001T   00005262+0000001237          1400 JF9130               1AZ
154213005154213079-013032     154213006003000389209SET LETTERS 2 ASSTD    0000001000+00001753+00000+0001T   00001753+0000001237          1400 JF9130               1AZ
154213006154213018-000177     154213006001023797513MUG MINI LOVE ASSTD    0000001000+00000700+00000+0001T   00000700+0000001237          1400 JF9515               1AZ
154213007154213071-005214     154213006003000152544CELLOTAPE SUPER REFILL 0000001000+00001490+00000+0001T   00001490+0000001237          1400 JF9130               1AZ
154213008154213079-009700-D   154213006003000545711PAPER SIRIO A4 RED COL.0000001000+00000306+00000+0001T   00000306+0000001237          1400 JF9130               1AZ
154213009154213079-009700-A   154213006003000547746PAPER SIRIO A4 BLACK   0000001000+00000306+00000+0001T   00000306+0000001237          1400 JF9130               1AZ
154213010154213079-009700-E   154213006003000545797PAPER SIRIO A4 GREY    0000001000+00000306+00000+0001T   00000306+0000001237          1400 JF9130               1AZ
154214000154214               154214               170213OC     1400+00000+OC0000010082+0000010082+000000000+000001412+0000011494+0000000000+I40000011494+0000000000+Z
154214001154214018-000130     154214006001023867537MUG OCC LOVE MINI+HEART0000001000+00003507+00000+0001T   00003507+0000001242          1400 JF9515               1AZ
154214002154214018-000177     154214006001023797513MUG MINI LOVE ASSTD    0000001000+00000700+00000+0001T   00000700+0000001242          1400 JF9515               1AZ
154214003154214368-000001     154214006003000097982Plush Bear 25cm        0000001000+00004385+00000+0001T   00004385+0000001242          1400 JF9745               1AZ
154214004154214077-000299     154214006003000395576G/BAG 32x25cm LRG LOVE 0000001000+00001490+00000+0001T   00001490+0000001242          1400 JF9112               1AZ
154215000154215               154215               170213OC     1400+00000+OC0000007015+0000007015+000000000+000000983+0000007990+0000000008+I20000000000+0000007990+Z
154215001154215018-019000     154215006003000557288MUG OCC. LOVE JUMBO    0000001000+00005262+00000+0001T   00005262+0000001245          1400 JF9515               1AZ
154215002154215077-000382     154215006003000247820GIFT-BAG MED 18X23CM   0000001000+00001753+00000+0001T   00001753+0000001245          1400 JF9112               1AZ
154216000154216               154216               170213OC     1400+00000+OC0000017134+0000017134+000000000+000002402+0000019536+0000000000+I40000019536+0000000000+Z
154216001154216031-001004     154216006003000334643P/FRAME CERTIFICATE 4PC0000001000+00015788+00000+0001T   00015788+0000001249          1400 JF9510               1AZ
154216002154216083-000049     154216004891035200024CIG-LIGHTER DISPOSABLE 0000003000+00000437+00000+0001T   00000437+0000001249          1400 JF9315               1AZ
154216003154216112-116038     154216006003000534906TCS CARRIER BAG MIDI   0000001000+00000035+00000+0001T   00000035+0000001249          1400 JF9090               1AZ
154217000154217               154217               170213OC     1400+00000+OC0000003153+0000003153+000000000+000000444+0000003590+0000000007+I20000000000+0000003590+Z
154217001154217079-009702-A   154217008427973059408PAPER SIRIO A2 BLACK   0000003000+00001051+00000+0001T   00001051+0000001250          1400 JF9130               1AZ
154218000154218               154218               170213OC     1400+00000+OC0000016311+0000016311+000000000+000002304+0000018610+0000000005+I20000000000+0000018610+Z
154218001154218112-116038     154218006003000534906TCS CARRIER BAG MIDI   0000001000+00000035+00000+0001T   00000035+0000001257          1400 JF9090               1AZ
154218002154218018-000130     154218006001023867537MUG OCC LOVE MINI+HEART0000001000+00003507+00000+0001T   00003507+0000001257          1400 JF9515               1AZ
154218003154218903-000183     154218006003000451043SWT LB HEART LOLLY     0000020000+00000393+00000+0001T   00000393+0000001257          1400 JF9150               1AZ
154218004154218304-001204     154218006001023737984FLOWER OCC. TEDDY/ROSES0000001000+00001402+00000+0001T   00001490+0006471257          1400 JF9510               1AZ
154218005154218018-000136     154218006001023659026MUG OCC LOVE W/PLUSH   0000001000+00003507+00000+0001T   00003507+0000001257          1400 JF9515               1AZ
154219000154219               154219               170213OC     1400+00000+OC0000002628+0000002628+000000000+000000368+0000002996+0000000000+I40000002996+0000000000+Z
154219001154219075-002006     154219006003000573172HAT MENS COTTON PEAK   0000001000+00001314+00000+0001T   00001753+0008121300          1400 JF9160               1AZ
154219002154219903-000194     154219006009826020616SWT CHOC RP LOLLY 25G  0000001000+00001314+00000+0001T   00001314+0000001300          1400 JF9150               1AZ
154220000154220               154220               170213OC     1400+00000+OC0000000876+0000000876+000000000+000000123+0000000990+0000000009+I20000000000+0000000990+Z
154220001154220903-000481     154220006001704007481SWT MOO MILK-SHAKES 60G0000001000+00000876+00000+0001T   00000876+0000001300          1400 JF9150               1AZ
154221000154221               154221               170213OC     1400+00000+OC0000001400+0000001400+000000000+000000196+0000001590+0000000006+I20000000000+0000001590+Z
154221001154221018-000177     154221006001023797513MUG MINI LOVE ASSTD    0000002000+00000700+00000+0001T   00000700+0000001301          1400 JF9515               1AZ
154222000154222               154222               170213OC     1400+00000+OC0000002192+0000002192+000000000+000000307+0000002490+0000000009+I20000000000+0000002490+Z
154222001154222158-008936     154222006001023653758PAPER-TOWEL-HOLDER FLWR0000001000+00002192+00000+0001T   00002192+0000001303          1400 JF9300               1AZ
154223000154223               154223               170213OC     1400+00000+OC0000000035+0000000035+000000000+000000005+0000000040+0000000000+I20000000000+0000000040+Z
154223001154223112-116038     154223006009681820246TCS CARRIER BAG MIDI   0000001000+00000035+00000+0001T   00000035+0000001312          1400 JF9090               1BZ
154224000154224               154224               170213OC     1400+00000+OC0000002628+0000002628+000000000+000000368+0000002990+0000000006+I20000000000+0000002990+Z
154224001154224903-000194     154224006009826020616SWT CHOC RP LOLLY 25G  0000002000+00001314+00000+0001T   00001314+0000001316          1400 JF9150               1AZ
154225000154225               154225               170213OC     1400+00000+OC0000008415+0000008415+000000000+000001180+0000009595+0000000000+I40000009595+0000000000+Z
154225001154225304-001204     154225006001023737984FLOWER OCC. TEDDY/ROSES0000001000+00001402+00000+0001T   00001490+0006471331          1400 JF9510               1AZ
154225002154225903-000194     154225006009826020616SWT CHOC RP LOLLY 25G  0000001000+00001314+00000+0001T   00001314+0000001331          1400 JF9150               1AZ
154225003154225903-000919     154225006009802868577SWEET NOVELTY LASER POP0000001000+00001753+00000+0001T   00001753+0000001331          1400 JF9150               1AZ
154225004154225006-000851     154225006009541800487PARTY LUCKY-PACKET BOY 0000001000+00003946+00000+0001T   00003946+0000001331          1400 JF9131               1AZ
154226000154226               154226               170213OC     1400+00000+OC0000002629+0000002629+000000000+000000369+0000002990+0000000008+I20000000000+0000002990+Z
154226001154226080-000133-A   154226006003000647019MINI VALENTINES CARD   0000001000+00000437+00000+0001T   00000437+0000001332          1400 JF9112               1AZ
154226002154226566-000359     154226006003000582709STICKER BOOK LOVE SPARK0000001000+00002192+00000+0001T   00002192+0000001332          1400 JF9130               1AZ
154227000154227               154227               170213OC     1400+00000+OC0000034877+0000034877+000000000+000004888+0000039765+0000000000+I40000039765+0000000000+Z
154227001154227112-116038     154227006009681820246TCS CARRIER BAG MIDI   0000001000+00000035+00000+0001T   00000035+0000001338          1400 JF9090               1AZ
154227002154227104-000052     154227006003000450787BASKET PL 23x8x13cm    0000006000+00002455+00000+0001T   00002455+0000001338          1400 JF9210               1AZ
154227003154227112-116038     154227006009681820246TCS CARRIER BAG MIDI   0000001000+00000035+00000+0001T   00000035+0000001338          1400 JF9090               1AZ
154227004154227263-000418     154227006003000599103VEHICLE FIRE ENGINE SET0000001000+00007893+00000+0001T   00007893+0000001338          1400 JF9710               1AZ
154227005154227046-000012     154227006904708013062BATTERIES AA  CARD-OF-40000001000+00001314+00000+0001T   00001314+0000001338          1400 JF9312               1AZ
154227006154227368-000265     154227006001023750914PLUSH BEAR 23CM ASSTD C0000001000+00006139+00000+0001T   00006139+0000001338          1400 JF9745               1AZ
154227007154227566-000535     154227006003000284719STICKER SPARKLE EMBOSS 0000001000+00001753+00000+0001T   00001753+0000001338          1400 JF9130               1AZ
154227008154227566-002000     154227000721129013206STICKERS CRYSTAL ASSTD 0000001000+00000700+00000+0001T   00000700+0000001338          1400 JF9130               1AZ
154227009154227046-000014     154227006001023725387BATTERIES SIZE:AAA 4PCE0000001000+00001139+00000+0001T   00001139+0000001338          1400 JF9312               1AZ
154227010154227903-000087     154227006001704000161SWT SPECKLED-EGGS 50G  0000001000+00001139+00000+0001T   00001139+0000001338          1400 JF9150               1AZ
154228000154228               154228               170213OC     1400+00000+OC0000019294+0000019294+000000000+000002702+0000021996+0000000000+I40000021996+0000000000+Z
154228001154228039-091784     154228006003000275311CANDLE LED CLR CHANGE  0000002000+00004385+00000+0001T   00004385+0000001348          1400 JF9510               1AZ
154228002154228018-019000     154228006003000557288MUG OCC. LOVE JUMBO    0000002000+00005262+00000+0001T   00005262+0000001348          1400 JF9515               1AZ
154229000154229               154229               170213OC     1400+00000+OC0000006869+0000006869+000000000+000000965+0000007834+0000000000+I40000007834+0000000000+Z
154229001154229040-000213     154229006001023617736CANDLE-HOLDER DAISY    0000003000+00001227+00000+0001T   00001227+0000001351          1400 JF9510               1AZ
154229002154229039-000024     154229006003000286300C/TAPERED 25CM M/WHITE 0000001000+00001051+00000+0001T   00001051+0000001351          1400 JF9510               1AZ
154229003154229039-000026     154229006001023551610C/TAPERED 25CM M/RED   0000002000+00001051+00000+0001T   00001051+0000001351          1400 JF9510               1AZ
154229004154229112-116038     154229006009681820246TCS CARRIER BAG MIDI   0000001000+00000035+00000+0001T   00000035+0000001351          1400 JF9090               1AZ
154230000154230               154230               170213OC     1400+00000+OC0000012135+0000012135+000000000+000001700+0000013830+0000000005+I20000000000+0000013830+Z
154230001154230301-085007     154230006003000673698ORN OCC. LOVE S/PLAQUE 0000001000+00007893+00000+0001T   00007893+0000001353          1400 JF9505               1AZ
154230002154230301-085004     154230006003000420469ORN LOVE PLAQUE 21X10CM0000001000+00003507+00000+0001T   00003946+0006471353          1400 JF9505               1AZ
154230003154230112-116038     154230006003000534906TCS CARRIER BAG MIDI   0000001000+00000035+00000+0001T   00000035+0000001353          1400 JF9090               1AZ
154230004154230018-000177     154230006001023797513MUG MINI LOVE ASSTD    0000001000+00000700+00000+0001T   00000700+0000001353          1400 JF9515               1AZ
154231000154231               154231               170213OC     1400+00000+OC0000001490+0000001490+000000000+000000209+0000001690+0000000009+I20000000000+0000001690+Z
154231001154231077-000299     154231006003000395576G/BAG 32x25cm LRG LOVE 0000001000+00001490+00000+0001T   00001490+0000001354          1400 JF9112               1AZ
154232000154232               154232               170213OC     1400+00000+OC0000001490+0000001490+000000000+000000209+0000001690+0000000009+I20000000000+0000001690+Z
154232001154232077-000299     154232006003000395576G/BAG 32x25cm LRG LOVE 0000001000+00001490+00000+0001T   00001490+0000001354          1400 JF9112               1AZ
154233000154233               154233               170213OC     1400+00000+OC0000011873+0000011873+000000000+000001664+0000013537+0000000000+I40000013537+0000000000+Z
154233001154233112-116038     154233006003000534906TCS CARRIER BAG MIDI   0000001000+00000035+00000+0001T   00000035+0000001357          1400 JF9090               1AZ
154233002154233059-011605     154233006001023384072LANTERN 24cm ASSTD-CLRS0000003000+00003946+00000+0001T   00005262+0008191357          1400 JF9305               1AZ
154234000154234               154234               170213OC     1400+00000+OC0000001314+0000001314+000000000+000000184+0000001490+0000000008+I20000000000+0000001490+Z
154234001154234077-000310     154234006001023608635GIFT-BAG 18X23CM GLOSS 0000001000+00001314+00000+0001T   00001314+0000001358          1400 JF9112               1AZ
154235000154235               154235               170213OC     1400+00000+OC0000001753+0000001753+000000000+000000246+0000001990+0000000009+I20000000000+0000001990+Z
154235001154235200-003024     154235006001023657299REFUSE BAGS 20PCE BLACK0000001000+00001753+00000+0001T   00001753+0000001403          1400 JF9214               1AZ
154236000154236               154236               170213OC     1400+00000+OC0000003103+0000003103+000000000+000000435+0000003538+0000000000+I40000003538+0000000000+Z
154236001154236077-000299     154236006003000395576G/BAG 32x25cm LRG LOVE 0000001000+00001490+00000+0001T   00001490+0000001406          1400 JF9112               1AZ
154236002154236018-000127     154236006001023380289MUG OCC STRAIGHT LOVE  0000001000+00001578+00000+0001T   00001753+0006471406          1400 JF9515               1AZ
154236003154236112-116038     154236006003000534906TCS CARRIER BAG MIDI   0000001000+00000035+00000+0001T   00000035+0000001406          1400 JF9090               1AZ
154237000154237               154237               170213OC     1400+00000+OC0000006523+0000006523+000000000+000000914+0000007430+0000000007+I20000000000+0000007430+Z
154237001154237112-116038     154237006003000534906TCS CARRIER BAG MIDI   0000001000+00000035+00000+0001T   00000035+0000001408          1400 JF9090               1AZ
154237002154237034-000712     154237006003000638550COOEY SIPPER CUPS 3PCE 0000001000+00002192+00000+0001T   00002192+0000001408          1400 JF9215               1AZ
154237003154237007-000160     154237006009685857286NOTE-BOOK A5 SHORTHAND 0000001000+00001227+00000+0001T   00001227+0000001408          1400 JF9130               1AZ
154237004154237079-000358     154237006003000591046ART+CRAFT FELT-TIP PENS0000001000+00003069+00000+0001T   00003069+0000001408          1400 JF9130               1AZ
154238000154238               154238               170213OC     1400+00000+OC0000002192+0000002192+000000000+000000307+0000002490+0000000009+I20000000000+0000002490+Z
154238001154238080-000127     154238006003000424351VALENTINES DAY 36x24CM 0000001000+00002192+00000+0001T   00002192+0000001409          1400 JF9112               1AZ
154239000154239               154239               170213OC     1400+00000+OC0000003069+0000003069+000000000+000000430+0000003490+0000000009+I20000000000+0000003490+Z
154239001154239079-000358     154239006003000591046ART+CRAFT FELT-TIP PENS0000001000+00003069+00000+0001T   00003069+0000001413          1400 JF9130               1AZ
154240000154240               154240               170213OC     1400+00000+OC0000006822+0000006822+000000000+000000960+0000007780+0000000002+I20000000000+0000007780+Z
154240001154240080-000133-A   154240006003000647019MINI VALENTINES CARD   0000006000+00000437+00000+0001T   00000437+0000001416          1400 JF9112               1AZ
154240002154240018-000177     154240006001023797513MUG MINI LOVE ASSTD    0000006000+00000700+00000+0001T   00000700+0000001416          1400 JF9515               1AZ
154241000154241               154241               170213OC     1400+00000+OC0000005081+0000005081+000000000+000000712+0000005790+0000000003+I20000000000+0000005790+Z
154241001154241018-000177     154241006001023797513MUG MINI LOVE ASSTD    0000001000+00000700+00000+0001T   00000700+0000001416          1400 JF9515               1AZ
154241002154241903-000194     154241006009826020616SWT CHOC RP LOLLY 25G  0000002000+00001314+00000+0001T   00001314+0000001416          1400 JF9150               1AZ
154241003154241077-000299-A   154241006003000670888GIFT-BAG PAPER JMB LOVE0000001000+00001753+00000+0001T   00001753+0000001416          1400 JF9112               1AZ
154242000154242               154242               170213OC     1400+00000+OC0000003507+0000003507+000000000+000000491+0000003990+0000000008+I20000000000+0000003990+Z
154242001154242031-086303-B   154242006003000322404P/FRM CHAMPAGNE 13X18CM0000001000+00003507+00000+0001T   00003507+0000001417          1400 JF9510               1AZ
154243000154243               154243               170213OC     1400+00000+OC0000001753+0000001753+000000000+000000246+0000001999+0000000000+I40000001999+0000000000+Z
154243001154243366-002809     154243006003000222643DRESS UP MOUSTACHE SET 0000001000+00001753+00000+0001T   00001753+0000001419          1400 JF9131               1AZ
154244000154244               154244               170213OC     1400+00000+OC0000002192+0000002192+000000000+000000307+0000002490+0000000009+I20000000000+0000002490+Z
154244001154244047-005126     154244006001023451255CABLETIES 100/150/200mm0000001000+00002192+00000+0001T   00002192+0000001420          1400 JF9880               1AZ
154245000154245               154245               170213OC     1400+00000+OC0000003330+0000003330+000000000+000000467+0000003797+0000000000+I40000003797+0000000000+Z
154245001154245077-000150-D   154245006003000054343GIFT-WRAP CELLPHANE CLR0000001000+00000876+00000+0001T   00000876+0000001422          1400 JF9112               1AZ
154245002154245077-000245     154245006001023759214GIFT-RIBBON METALLICx2 0000002000+00001227+00000+0001T   00001227+0000001422          1400 JF9112               1AZ
154246000154246               154246               170213OC     1400+00000+OC0000024669+0000024669+000000000+000003458+0000028120+0000000007+I20000000000+0000028120+Z
154246001154246018-050000     154246006003000412679MUG OCC LOVE TWIN BEAR 0000001000+00006139+00000+0001T   00006139+0000001424          1400 JF9515               1AZ
154246002154246301-085007     154246006003000673698ORN OCC. LOVE S/PLAQUE 0000001000+00007893+00000+0001T   00007893+0000001424          1400 JF9505               1AZ
154246003154246304-001204     154246006001023737984FLOWER OCC. TEDDY/ROSES0000002000+00001402+00000+0001T   00001490+0006471424          1400 JF9510               1AZ
154246004154246018-000177     154246006001023797513MUG MINI LOVE ASSTD    0000003000+00000700+00000+0001T   00000700+0000001424          1400 JF9515               1AZ
154246005154246080-000127     154246006003000424351VALENTINES DAY 36x24CM 0000001000+00002192+00000+0001T   00002192+0000001424          1400 JF9112               1AZ
154246006154246077-000316     154246006001023609731GIFT-BAG 25X32CM MATT  0000001000+00001753+00000+0001T   00001753+0000001424          1400 JF9112               1AZ
154246007154246112-116038     154246006003000534906TCS CARRIER BAG MIDI   0000001000+00000035+00000+0001T   00000035+0000001424          1400 JF9090               1AZ
154246008154246077-000316     154246006001023609731GIFT-BAG 25X32CM MATT  0000001000+00001753+00000+0001T   00001753+0000001424          1400 JF9112               1AZ
154247000154247               154247               170213OC     1400+00000+OC0000002366+0000002366+000000000+000000332+0000002698+0000000000+I40000002698+0000000000+Z
154247001154247077-000011-F   154247006001023808431TISSUE-WRAP BLUE/LILAC 0000001000+00000876+00000+0001T   00000876+0000001428          1400 JF9112               1AZ
154247002154247077-000299     154247006003000395576G/BAG 32x25cm LRG LOVE 0000001000+00001490+00000+0001T   00001490+0000001428          1400 JF9112               1AZ
154248000154248               154248               170213OC     1400+00000+OC0000014908+0000014908+000000000+000002088+0000016996+0000000000+I40000016996+0000000000+Z
154248001154248018-000136     154248006001023659026MUG OCC LOVE W/PLUSH   0000001000+00003507+00000+0001T   00003507+0000001429          1400 JF9515               1AZ
154248002154248077-000382     154248006003000247820GIFT-BAG MED 18X23CM   0000001000+00001753+00000+0001T   00001753+0000001429          1400 JF9112               1AZ
154248003154248030-004015     154248006003000467624PLAQUE WDN SIGN 30X20CM0000001000+00009648+00000+0001T   00009648+0000001429          1400 JF9505               1AZ
154249000154249               154249               170213OC     1400+00000+OC0000003330+0000003330+000000000+000000467+0000003790+0000000007+I20000000000+0000003790+Z
154249001154249103-000785     154249006003000676576BAMBOO OVAL BASKET DIA 0000001000+00002630+00000+0001T   00002630+0000001432          1400 JF9300               1AZ
154249002154249018-000177     154249006001023797513MUG MINI LOVE ASSTD    0000001000+00000700+00000+0001T   00000700+0000001432          1400 JF9515               1AZ
154250000154250               154250               170213OC     1400+00000+OC0000017535+0000017535+000000000+000002455+0000019990+0000000000+I20000000000+0000019990+Z
154250001154250002-001676     154250006001023110183SIMMER-PLATE WDN-HANDL 0000005000+00003507+00000+0001T   00003507+0000001436          1400 JF9300               1AZ
154251000154251               154251               170213OC     1400+00000+OC0000001490+0000001490+000000000+000000209+0000001690+0000000009+I20000000000+0000001690+Z
154251001154251077-000299     154251006003000395576G/BAG 32x25cm LRG LOVE 0000001000+00001490+00000+0001T   00001490+0000001436          1400 JF9112               1AZ
154252000154252               154252               170213OC     1400+00000+OC0000002450+0000002450+000000000+000000346+0000002790+0000000006+I20000000000+0000002790+Z
154252001154252368-006004     154252006003000671076PLUSH DOLPHIN          0000001000-00004385+00000+0001T   00004385+0000001530          1400 JF97451IC            1 Z
154252002154252085-007038     154252006001024039896P/KNIFE 8cm-BLD PL/GRIP0000002000+00002630+00000+0001T   00002630+0000001530          1400 JF9305               1AZ
154252003154252903-000155     154252006009803374435SWT LOLLY I LUV U HEART0000003000+00000525+00000+0001T   00000525+0000001530          1400 JF9150               1AZ
154253000154253               154253               170213OC     1400+00000+OC0000013010+0000013010+000000000+000001824+0000014834+0000000000+I40000014834+0000000000+Z
154253001154253079-000807     154253006003000670277ART+CRAFT WOODEN STICKS0000001000+00001490+00000+0001T   00001490+0000001532          1400 JF9130               1AZ
154253002154253565-000255     154253006003000585168NOVELTY GLOW SLIME     0000001000+00002455+00000+0001T   00002455+0000001532          1400 JF9745               1AZ
154253003154253565-000085     154253006003000643332NOVELTY BEEDZ 10g      0000001000+00002455+00000+0001T   00002455+0000001532          1400 JF9745               1AZ
154253004154253564-000025     154253006003000617104BUBBLE NOVELTY         0000001000+00001753+00000+0001T   00001753+0000001532          1400 JF9131               1AZ
154253005154253089-000184     154253006003000577323KEY CHAIN OWL POLY MINI0000001000+00003069+00000+0001T   00003069+0000001532          1400 JF9205               1AZ
154253006154253080-000119     154253006003000237432CARD & ENVELOPE-BABY   0000001000+00001753+00000+0001T   00001753+0000001532          1400 JF9112               1AZ
154253007154253112-116038     154253006003000534906TCS CARRIER BAG MIDI   0000001000+00000035+00000+0001T   00000035+0000001532          1400 JF9090               1AZ
154254000154254               154254               170213OC     1400+00000+OC0000001051+0000001051+000000000+000000148+0000001199+0000000000+I40000001199+0000000000+Z
154254001154254079-009702-F   154254008427973059392PAPER SIRIO A2 GREEN   0000001000+00001051+00000+0001T   00001051+0000001534          1400 JF9130               1AZ
154255000154255               154255               170213OC     1400+00000+OC0000000000+0000000000+000000000+000000000+0000000000+0000000000+ 00000000000+0000000000+Z
154256000154256               154256               170213OC     1400+00000+OC0000008417+0000008417+000000000+000001180+0000009590+0000000007+I20000000000+0000009590+Z
154256001154256033-000140     154256006003000676972HAIR BRUSH BRIGHT      0000001000+00002630+00000+0001T   00002630+0000001640          1400 JF9200               1AZ
154256002154256075-001003     154256006003000622689HAT LADIES VISOR STYLE 0000001000+00004385+00000+0001T   00004385+0000001640          1400 JF9160               1AZ
154256003154256362-019418     154256006003000395927HAIR CLIP SET 2PC      0000001000+00001402+00000+0001T   00001402+0000001640          1400 JF9160               1AZ
154257000154257               154257               170213OC     1400+00000+OC0000010259+0000010259+000000000+000001438+0000011690+0000000007+I20000000000+0000011690+Z
154257001154257565-000040     154257006008766115635NOVELTY ICON BEANIE    0000001000+00002630+00000+0001T   00002630+0000001641          1400 JF9745               1AZ
154257002154257368-000175     154257006003000270316PLUSH BEAR 4 ASSTD 18CM0000001000+00006139+00000+0001T   00006139+0000001641          1400 JF9745               1AZ
154257003154257077-000299     154257006003000395576G/BAG 32x25cm LRG LOVE 0000001000+00001490+00000+0001T   00001490+0000001641          1400 JF9112               1AZ
154258000154258               154258               170213OC     1400+00000+OC0000004728+0000004728+000000000+000000666+0000005390+0000000004+I20000000000+0000005390+Z
154258001154258903-000889     154258000000060019455SWT GUM BEECHIES S/MINT0000005000+00000788+00000+0001T   00000788+0000001642          1400 JF9150               1AZ
154258002154258903-000890     154258000000060019479SWT BEECHIES S/BERRY   0000001000+00000788+00000+0001T   00000788+0000001642          1400 JF9150               1AZ
154259000154259               154259               170213OC     1400+00000+OC0000001578+0000001578+000000000+000000221+0000001790+0000000009+I20000000000+0000001790+Z
154259001154259018-000127     154259006001023380289MUG OCC STRAIGHT LOVE  0000001000+00001578+00000+0001T   00001753+0006471643          1400 JF9515               1AZ
154260000154260               154260               170213OC     1400+00000+OC0000001400+0000001400+000000000+000000196+0000001590+0000000006+I20000000000+0000001590+Z
154260001154260018-000177     154260006001023797513MUG MINI LOVE ASSTD    0000002000+00000700+00000+0001T   00000700+0000001643          1400 JF9515               1AZ
154261000154261               154261               170213OC     1400+00000+OC0000000876+0000000876+000000000+000000123+0000000990+0000000009+I20000000000+0000000990+Z
154261001154261077-000011-D   154261006001023808554TISSUE-WRAP WHITE 10PCE0000001000+00000876+00000+0001T   00000876+0000001644          1400 JF9112               1AZ
154262000154262               154262               170213OC     1400+00000+OC0000002980+0000002980+000000000+000000418+0000003390+0000000008+I20000000000+0000003390+Z
154262001154262077-000299     154262006003000395576G/BAG 32x25cm LRG LOVE 0000002000+00001490+00000+0001T   00001490+0000001644          1400 JF9112               1AZ
154263000154263               154263               170213OC     1400+00000+OC0000005778+0000005778+000000000+000000811+0000006580+0000000009+I20000000000+0000006580+Z
154263001154263903-000844     154263005010478432567SWT CANDY DL LUV HEARTS0000002000+00001314+00000+0001T   00001314+0000001648          1400 JF9150               1AZ
154263002154263903-000216     154263006925925900966SWT MALLOW TWIST ERKO  0000001000+00000262+00000+0001T   00000262+0000001648          1400 JF9150               1AZ
154263003154263083-000049     154263004891035200024CIG-LIGHTER DISPOSABLE 0000001000+00000437+00000+0001T   00000437+0000001648          1400 JF9315               1AZ
154263004154263903-000920     154263000041396002155SWT CANDY STICK/TATT   0000001000+00000700+00000+0001T   00000700+0000001648          1400 JF9150               1AZ
154263005154263903-002850     154263000000087108262MENTOS ROLL FRUIT      0000001000+00001051+00000+0001T   00001051+0000001648          1400 JF9150               1AZ
154263006154263903-000518     154263006001704012782SWT STRAWS S/BERRY 100g0000001000-00001227+00000+0001T   00001227+0000001648          1400 JF91501IC            1 Z
154263007154263903-000518     154263006001704012782SWT STRAWS S/BERRY 100g0000001000+00001227+00000+0001T   00001227+0000001648          1400 JF91501IC            1AZ
154263008154263903-000120     154263006002099001665SWEET GS ZILLIONS 50g  0000001000+00000700+00000+0001T   00000700+0000001648          1400 JF9150               1AZ
154264000154264               154264               170213OC     1400+00000+OC0000009206+0000009206+000000000+000001289+0000010490+0000000005+I20000000000+0000010490+Z
154264001154264018-005009     154264006001023725608MUG W/PLUSH-BEAR LOVE  0000001000+00003507+00000+0001T   00003507+0000001648          1400 JF9515               1AZ
154264002154264080-000127     154264006003000424351VALENTINES DAY 36x24CM 0000001000+00002192+00000+0001T   00002192+0000001648          1400 JF9112               1AZ
154264003154264018-000136     154264006001023659026MUG OCC LOVE W/PLUSH   0000001000+00003507+00000+0001T   00003507+0000001648          1400 JF9515               1AZ
154265000154265               154265               170213OC     1400+00000+OC0000007715+0000007715+000000000+000001081+0000008790+0000000006+I20000000000+0000008790+Z
154265001154265368-000049     154265006003000536955PLUSH BEAR 15cm LOVE   0000001000+00004385+00000+0001T   00004385+0000001650          1400 JF9745               1AZ
154265002154265077-000270     154265006003000395453GIFT-BAG PPR JMB 33X45 0000001000+00002630+00000+0001T   00002630+0000001650          1400 JF9112               1AZ
154265003154265018-000177     154265006001023797513MUG MINI LOVE ASSTD    0000001000+00000700+00000+0001T   00000700+0000001650          1400 JF9515               1AZ
154266000154266               154266               170213OC     1400+00000+OC0000004294+0000004294+000000000+000000602+0000004890+0000000006+I20000000000+0000004890+Z
154266001154266301-085002     154266006003000420704ORN OCC. LOVE BELL ASST0000001000+00001753+00000+0001T   00002630+0008121651          1400 JF9505               1AZ
154266002154266903-004952     154266006002580020052SWT FREAKY FACES 100G  0000001000+00001314+00000+0001T   00001314+0000001651          1400 JF9150               1AZ
154266003154266903-004951     154266006002580020328SWT MALLOW MINI M/SHAKE0000001000+00001227+00000+0001T   00001227+0000001651          1400 JF9150               1AZ
154267000154267               154267               170213OC     1400+00000+OC0000001753+0000001753+000000000+000000246+0000001990+0000000009+I20000000000+0000001990+Z
154267001154267077-000289     154267006001023901996GIFT BOX 20x25x11cm    0000001000+00001753+00000+0001T   00001753+0000001652          1400 JF9112               1AZ
154268000154268               154268               170213OC     1400+00000+OC0000002628+0000002628+000000000+000000369+0000002990+0000000007+I20000000000+0000002990+Z
154268001154268077-000151     154268006008766114676GIFT-WRAP C/PHANE ASSTD0000003000+00000876+00000+0001T   00000876+0000001653          1400 JF9112               1AZ
154269000154269               154269               170213OC     1400+00000+OC0000002630+0000002630+000000000+000000369+0000002990+0000000009+I20000000000+0000002990+Z
154269001154269031-000868-B   154269006001023798565P/FRAME PL BLCK 13X18CM0000001000+00002630+00000+0001T   00002630+0000001656          1400 JF9510               1AZ
154270000154270               154270               170213OC     1400+00000+OC0000000613+0000000613+000000000+000000086+0000000690+0000000009+I20000000000+0000000690+Z
154270001154270007-000555     154270006001023848239MEMO-PAD MINI LOVE     0000001000+00000613+00000+0001T   00000613+0000001656          1400 JF9130               1AZ
154271000154271               154271               170213OC     1400+00000+OC0000002102+0000002102+000000000+000000296+0000002390+0000000008+I20000000000+0000002390+Z
154271001154271079-009702-C   154271008427973059309PAPER SIRIO A2 VIOLET  0000002000+00001051+00000+0001T   00001051+0000001658          1400 JF9130               1AZ
154272000154272               154272               170213OC     1400+00000+OC0000022800+0000022800+000000000+000003192+0000025990+0000000002+I20000000000+0000025990+Z
154272001154272075-000412     154272006001023855299SHOPPER-BASKET PL      0000004000+00005700+00000+0001T   00005700+0000001700          1400 JF9160               1AZ
154273000154273               154273               170213OC     1400+00000+OC0000001753+0000001753+000000000+000000246+0000001990+0000000009+I20000000000+0000001990+Z
154273001154273079-000275     154273006003000160488PAINT-BRUSHES 6PCE PRO 0000001000+00001753+00000+0001T   00001753+0000001701          1400 JF9130               1AZ
154274000154274               154274               170213OC     1400+00000+OC0000000700+0000000700+000000000+000000098+0000000790+0000000008+I20000000000+0000000790+Z
154274001154274018-000177     154274006001023797513MUG MINI LOVE ASSTD    0000001000+00000700+00000+0001T   00000700+0000001701          1400 JF9515               1AZ
154275000154275               154275               170213OC     1400+00000+OC0000005570+0000005570+000000000+000000781+0000006350+0000000001+I20000000000+0000006350+Z
154275001154275018-000177     154275006001023797513MUG MINI LOVE ASSTD    0000001000+00000700+00000+0001T   00000700+0000001702          1400 JF9515               1AZ
154275002154275019-000129     154275006003000456017T/PLATE W/SWING HANDLE 0000001000+00002630+00000+0001T   00002630+0000001702          1400 JF9510               1AZ
154275003154275080-000127     154275006003000424351VALENTINES DAY 36x24CM 0000001000+00002192+00000+0001T   00002192+0000001702          1400 JF9112               1AZ
154275004154275112-116069     154275006009681820277TCS CARRIER BAG JUMBO  0000001000+00000048+00000+0001T   00000048+0000001702          1400 JF9090               1AZ
154276000154276               154276               170213OC     1400+00000+OC0000001753+0000001753+000000000+000000246+0000001999+0000000000+I40000001999+0000000000+Z
154276001154276366-002809     154276006003000222643DRESS UP MOUSTACHE SET 0000001000+00001753+00000+0001T   00001753+0000001704          1400 JF9131               1AZ
154277000154277               154277               170213OC     1400+00000+OC0000002717+0000002717+000000000+000000381+0000003090+0000000008+I20000000000+0000003090+Z
154277001154277903-004960     154277008410525221842SWT GUMMY STR/BERRY 50G0000001000+00000964+00000+0001T   00000964+0000001707          1400 JF9150               1AZ
154277002154277089-000004     154277006003000137749KEY CHAIN MTL CHARMS   0000001000+00001753+00000+0001T   00001753+0000001707          1400 JF9205               1AZ
154278000154278               154278               170213OC     1400+00000+OC0000002978+0000002978+000000000+000000419+0000003390+0000000007+I20000000000+0000003390+Z
154278001154278903-000183     154278006003000451043SWT LB HEART LOLLY     0000002000+00000393+00000+0001T   00000393+0000001707          1400 JF9150               1AZ
154278002154278563-000318-L   154278006003000407088SERVIETTES 33cm RED    0000001000+00002192+00000+0001T   00002192+0000001707          1400 JF9214               1AZ
154279000154279               154279               170213OC     1400+00000+OC0000001836+0000001836+000000000+000000258+0000002090+0000000004+I20000000000+0000002090+Z
154279001154279079-009700-F   154279006003000545872PAPER SIRIO A4 TURQ COL0000002000+00000306+00000+0001T   00000306+0000001709          1400 JF9130               1AZ
154279002154279079-009700-G   154279006003000545957PAPER SIRIO A4 LIME COL0000002000+00000306+00000+0001T   00000306+0000001709          1400 JF9130               1AZ
154279003154279079-009700-I   154279006003000546114PAPER SIRIO A4 LILAC   0000002000+00000306+00000+0001T   00000306+0000001709          1400 JF9130               1AZ
154280000154280               154280               170213OC     1400+00000+OC0000010691+0000010691+000000000+000001499+0000012190+0000000000+I20000000000+0000012190+Z
154280001154280903-000151     154280006009803374411SWT SML RND R/BOW LOLLY0000002000+00000525+00000+0001T   00000525+0000001710          1400 JF9150               1AZ
154280002154280903-000844     154280005010478432567SWT CANDY DL LUV HEARTS0000002000+00001314+00000+0001T   00001314+0000001710          1400 JF9150               1AZ
154280003154280089-000018     154280006003000176724KEY CHAIN INSPIRATION  0000001000+00003507+00000+0001T   00003507+0000001710          1400 JF9205               1AZ
154280004154280903-000619     154280006003000672455SWT LOLLY STR/BRRY 140G0000001000+00001753+00000+0001T   00001753+0000001710          1400 JF9150               1AZ
154280005154280903-000624     154280006003000671793SWEET LOLLY BLU/BRRY   0000001000+00001753+00000+0001T   00001753+0000001710          1400 JF9150               1AZ
154281000154281               154281               170213OC     1400+00000+OC0000001753+0000001753+000000000+000000246+0000001990+0000000009+I20000000000+0000001990+Z
154281001154281031-000021     154281006003000112739PICTURE-FRAME SML ASSTD0000001000+00001753+00000+0001T   00001753+0000001710          1400 JF9510               1AZ
154282000154282               154282               170213OC     1400+00000+OC0000006868+0000006868+000000000+000000963+0000007830+0000000001+I20000000000+0000007830+Z
154282001154282089-000192-A   154282006001023901774KEY-CHAIN ACRYLIC      0000001000+00000876+00000+0001T   00000876+0000001712          1400 JF9205               1AZ
154282002154282903-000070     154282006001704001106SWT TOFFEE CREAMY 35g  0000002000+00000700+00000+0001T   00000700+0000001712          1400 JF9150               1AZ
154282003154282464-000122     154282006003000638987PLAYING CARDS POKER 2PK0000001000+00001753+00000+0001T   00001753+0000001712          1400 JF9785               1AZ
154282004154282903-000095     154282006001704011495SWT SPECKLED-EGGS 100G 0000001000+00002104+00000+0001T   00002104+0000001712          1400 JF9150               1AZ
154282005154282112-116038     154282006003000534906TCS CARRIER BAG MIDI   0000001000+00000035+00000+0001T   00000035+0000001712          1400 JF9090               1AZ
154282006154282018-000177     154282006001023797513MUG MINI LOVE ASSTD    0000001000+00000700+00000+0001T   00000700+0000001712          1400 JF9515               1AZ
154283000154283               154283               170213OC     1400+00000+OC0000002630+0000002630+000000000+000000369+0000002999+0000000000+I40000002999+0000000000+Z
154283001154283103-000785     154283006003000676576BAMBOO OVAL BASKET DIA 0000001000+00002630+00000+0001T   00002630+0000001713          1400 JF9300               1AZ
154284000154284               154284               170213OC     1400+00000+OC0000007363+0000007363+000000000+000001033+0000008396+0000000000+I40000008396+0000000000+Z
154284001154284006-000325     154284006001023886347G/STICKS 3x20cm+3 CONN.0000001000+00001490+00000+0001T   00001490+0000001716          1400 JF9131               1AZ
154284002154284006-000339     154284006003000090556GLOW WRISTBAND         0000001000+00001490+00000+0001T   00001490+0000001716          1400 JF9131               1AZ
154284003154284566-001118     154284006003000682171STICKERS CELL PHONE    0000001000+00001753+00000+0001T   00001753+0000001716          1400 JF9130               1AZ
154284004154284566-100009     154284006003000102914WED STIK EMBOSSED FOIL 0000001000+00002630+00000+0001T   00002630+0000001716          1400 JF9130               1AZ
154285000154285               154285               170213OC     1400+00000+OC0000005436+0000005436+000000000+000000762+0000006190+0000000008+I20000000000+0000006190+Z
154285001154285031-000845     154285006001023851819PICTURE-FRAME ASSTD    0000001000+00003946+00000+0001T   00003946+0000001717          1400 JF9510               1AZ
154285002154285077-000299     154285006003000395576G/BAG 32x25cm LRG LOVE 0000001000+00001490+00000+0001T   00001490+0000001717          1400 JF9112               1AZ
154286000154286               154286               170213OC     1400+00000+OC0000001139+0000001139+000000000+000000160+0000001290+0000000009+I20000000000+0000001290+Z
154286001154286903-000709     154286006002099007070SWT QUENCHERS FRUIT    0000001000+00001139+00000+0001T   00001139+0000001719          1400 JF9150               1AZ
154287000154287               154287               170213OC     1400+00000+OC0000002278+0000002278+000000000+000000320+0000002590+0000000008+I20000000000+0000002590+Z
154287001154287903-000087     154287006001704000161SWT SPECKLED-EGGS 50G  0000002000+00001139+00000+0001T   00001139+0000001720          1400 JF9150               1AZ
154288000154288               154288               170213OC     1400+00000+OC0000011344+0000011344+000000000+000001591+0000012935+0000000000+I40000012935+0000000000+Z
154288001154288039-000794     154288006946859289958CANDLE T/LITE 3PC LED  0000001000+00004385+00000+0001T   00004385+0000001724          1400 JF9510               1AZ
154288002154288304-000720     154288006001023843050F/BUNCH ROSE 6-HEAD AST0000001000+00002630+00000+0001T   00002630+0000001724          1400 JF9510               1AZ
154288003154288903-000912     154288006009802868461SWT GUM TAPE HOT WHEELS0000001000+00001753+00000+0001T   00001753+0000001724          1400 JF9150               1AZ
154288004154288077-000010-C   154288006001023123879CREPE-PAPER RED        0000001000+00000788+00000+0001T   00000788+0000001724          1400 JF9112               1AZ
154288005154288903-000918     154288006009802868522SWEET GUM TAPE H/KITTY 0000001000+00001753+00000+0001T   00001753+0000001724          1400 JF9150               1AZ
154288006154288112-116038     154288006003000534906TCS CARRIER BAG MIDI   0000001000+00000035+00000+0001T   00000035+0000001724          1400 JF9090               1AZ
154289000154289               154289               170213OC     1400+00000+OC0000005219+0000005219+000000000+000000733+0000005950+0000000002+I20000000000+0000005950+Z
154289001154289077-000010-C   154289006001023123879CREPE-PAPER RED        0000001000+00000788+00000+0001T   00000788+0000001725          1400 JF9112               1AZ
154289002154289362-002464     154289006003000167388HAIR EXT 30cm 6PCS COL 0000001000+00001753+00000+0001T   00001753+0000001725          1400 JF9160               1AZ
154289003154289103-000785     154289006003000676576BAMBOO OVAL BASKET DIA 0000001000+00002630+00000+0001T   00002630+0000001725          1400 JF9300               1AZ
154289004154289112-116069     154289006009681820277TCS CARRIER BAG JUMBO  0000001000+00000048+00000+0001T   00000048+0000001725          1400 JF9090               1AZ
154290000154290               154290               170213OC     1400+00000+OC0000003156+0000003156+000000000+000000442+0000003598+0000000000+I40000003598+0000000000+Z
154290001154290077-000315     154290006003000181186GIFT-BAG 20x28cm MATT  0000002000+00001578+00000+0001T   00001578+0000001726          1400 JF9112               1AZ
154291000154291               154291               170213OC     1400+00000+OC0000009682+0000009682+000000000+000001356+0000011038+0000000000+I40000011038+0000000000+Z
154291001154291001-000175     154291006001023788108B/MUG GLS LOVE 380ML   0000001000+00004385+00000+0001T   00004385+0000001728          1400 JF9515               1AZ
154291002154291007-000614     154291006001023768667DIARY W/LOCK+PEN LOVE  0000001000+00005262+00000+0001T   00005262+0000001728          1400 JF9130               1AZ
154291003154291112-116038     154291006009681820246TCS CARRIER BAG MIDI   0000001000+00000035+00000+0001T   00000035+0000001728          1400 JF9090               1AZ
154292000154292               154292               170213OC     1400+00000+OC0000004420+0000004420+000000000+000000619+0000005030+0000000009+I20000000000+0000005030+Z
154292001154292112-116038     154292006009681820246TCS CARRIER BAG MIDI   0000001000+00000035+00000+0001T   00000035+0000001729          1400 JF9090               1AZ
154292002154292368-000001     154292006003000097982Plush Bear 25cm        0000001000+00004385+00000+0001T   00004385+0000001729          1400 JF9745               1AZ
154293000154293               154293               170213OC     1400+00000+OC0000002192+0000002192+000000000+000000307+0000002490+0000000009+I20000000000+0000002490+Z
154293001154293080-000127     154293006003000424351VALENTINES DAY 36x24CM 0000001000+00002192+00000+0001T   00002192+0000001730          1400 JF9112               1AZ
154294000154294               154294               170213OC     1400+00000+OC0000005262+0000005262+000000000+000000737+0000005990+0000000009+I20000000000+0000005990+Z
154294001154294464-009104     154294006001023620279GAME POOL-TABLE 25x42cm0000001000+00005262+00000+0001T   00005262+0000001734          1400 JF9785               1AZ
154295000154295               154295               170213OC     1400+00000+OC0000012279-0000012279-000000000+000001720-0000014000-0000000001+I20000000000+0000014000-Z
154295001154295047-000010-H   154295006001023879929M/PLUG 10-WAY-SURGE    0000001000-00012279+00000+0001T   00012279+0000001742          1400 JF98802IC            1AZ
154296000154296               154296               170213OC     1400+00000+OC0000001139+0000001139+000000000+000000160+0000001290+0000000009+I20000000000+0000001290+Z
154296001154296039-000322     154296006001023524157B/CANDLES W/HOLDERS 24 0000001000+00001139+00000+0001T   00001139+0000001743          1400 JF9510               1AZ
M17021391                              CASH        OCSLAVE 1                       Z-REPORT No.   618TOTAL (Sales - Refunds)           9511.88       CASH TO BE BANKED                 4856.10       DEBIT CARDS                          0.00       CREDIT CARDS                      4655.78       Z-READING                         9511.88       AIRTIME DEBIT CARD SALES             0.00       AIRTIME CARD SALES                   0.00       OVERS/UNDERS                         0.00       AIRTIME CASH SALES                   0.00       GIFT CARDS                           0.00       GIFT CARD CASH SALES                 0.00       T O T A L  CASH PAYOUTS              0.00                                                                                                                                                                                                                                                                                                                                                      Z
M17021392                              CASH        OCABSENT                                                                                                                                                                                          ANNUAL LEAVE                                                                                                                                                                                    DAY OFF                                                                                                                                                                                         COMMENTS                                                                                                                                                                                                                                                                                                                                                                                       Z
Y17021300                                          OC00000000857911+000126
ZOC17021320113 SLAVE 1      SALES DATA                     NEXT INVOICE NO.  154297 0618
X OC Slave 1 First invoice 154169 170213 Last invoice 154296 170213 Next invoice 154297 Total number of records 000000436 clbackup completed 20:11:36
