166511000166511               166511               170213OC     1400+00000+OC0000005262+0000005262+000000000+000000737+0000005990+0000000009+I20000000000+0000005990+Z
166511001166511031-000870-B   166511006001023798657P/FRAME WOOD WHITE-PINE0000001000+00005262+00000+0001T   00005262+0000001023          1400 2IC510               2BZ
166512000166512               166512               170213OC     1400+00000+OC0000002628+0000002628+000000000+000000368+0000002990+0000000006+I20000000000+0000002990+Z
166512001166512306-001135-A   166512006003000359110FIRSTAID SUPPORT HAND  0000002000+00001314+00000+0001T   00001753+0008171024          1400 2IC200               2BZ
166513000166513               166513               170213OC     1400+00000+OC0000003506+0000003506+000000000+000000492+0000003990+0000000008+I20000000000+0000003990+Z
166513001166513089-000030     166513006003000575671K/CHAIN LOVE MTL ASSTD 0000001000+00001753+00000+0001T   00001753+0000001026          1400 2IC205               2AZ
166513002166513089-000004     166513006003000137749KEY CHAIN MTL CHARMS   0000001000+00001753+00000+0001T   00001753+0000001026          1400 2IC205               2AZ
166514000166514               166514               170213OC     1400+00000+OC0000001753+0000001753+000000000+000000246+0000001990+0000000009+I20000000000+0000001990+Z
166514001166514200-003024     166514006001023657299REFUSE BAGS 20PCE BLACK0000001000+00001753+00000+0001T   00001753+0000001026          1400 2IC214               2AZ
166515000166515               166515               170213OC     1400+00000+OC0000017011+0000017011+000000000+000002384+0000019395+0000000000+I40000019395+0000000000+Z
166515001166515903-003080     166515005907029004673SWT SNACK STIX CHOC 50g0000001000+00000876+00000+0001T   00000876+0000001032          1400 2IC150               2BZ
166515002166515903-000211     166515006002099001238SWT GS MALLOW ICE CREAM0000001000+00001753+00000+0001T   00001753+0000001032          1400 2IC150               2BZ
166515003166515266-008047     166515006001023792013COMBAT VEH&ACC IN B/PCK0000001000+00005262+00000+0001T   00005262+0000001032          1400 2IC710               2BZ
166515004166515262-000653     166515006008766060553DIE CAST SET AIRPORT   0000001000+00007893+00000+0001T   00007893+0000001032          1400 2IC710               2BZ
166515005166515251-000041     166515006001023515889SEAL-TAPE BUFF 48mmx50m0000001000+00001227+00000+0001T   00001227+0000001032          1400 2IC810               2BZ
166516000166516               166516               170213OC     1400+00000+OC0000000876+0000000876+000000000+000000123+0000000990+0000000009+I20000000000+0000000990+Z
166516001166516077-000151     166516006008766114676GIFT-WRAP C/PHANE ASSTD0000001000+00000876+00000+0001T   00000876+0000001034          1400 2IC112               2BZ
166517000166517               166517               170213OC     1400+00000+OC0000001753+0000001753+000000000+000000246+0000001999+0000000000+I40000001999+0000000000+Z
166517001166517903-000082     166517006001704014892SWT MINI WINE GUMS 100G0000001000+00001753+00000+0001T   00001753+0000001037          1400 2IC150               2BZ
166518000166518               166518               170213OC     1400+00000+OC0000017783+0000017783+000000000+000002496+0000020279+0000000000+I40000020279+0000000000+Z
166518001166518079-001002     166518006003000448715CANVAS A4 WOOD MOUNTED 0000002000+00002630+00000+0001T   00002630+0000001048          1400 2IC130               2BZ
166518002166518079-003010     166518006003000448845A/TUBE 75ML YELLOW     0000001000+00001753+00000+0001T   00001753+0000001048          1400 2IC130               2BZ
166518003166518001-000175     166518006001023788108B/MUG GLS LOVE 380ML   0000001000+00004385+00000+0001T   00004385+0000001048          1400 2IC515               2BZ
166518004166518903-000183     166518006003000451043SWT LB HEART LOLLY     0000002000+00000393+00000+0001T   00000393+0000001048          1400 2IC150               2BZ
166518005166518077-000302     166518008010410010195GIFT-BAG 18X23CM E/D   0000002000+00000876+00000+0001T   00000876+0000001048          1400 2IC112               2BZ
166518006166518903-000183     166518006003000451043SWT LB HEART LOLLY     0000001000+00000393+00000+0001T   00000393+0000001048          1400 2IC150               2BZ
166518007166518080-000139     166518006003000611690CARD & ENV MINI SET 6PC0000001000+00002192+00000+0001T   00002192+0000001048          1400 2IC112               2BZ
166518008166518903-000510     166518006001704012621SWEET MS ZBDZ S/BERRY  0000001000+00001227+00000+0001T   00001227+0000001048          1400 2IC150               2BZ
166518009166518112-116038     166518006009681820246TCS CARRIER BAG MIDI   0000001000+00000035+00000+0001T   00000035+0000001048          1400 2IC090               2BZ
166519000166519               166519               170213OC     1400+00000+OC0000025469+0000025469+000000000+000003567+0000029036+0000000000+I40000029036+0000000000+Z
166519001166519368-000630     166519006001023831163PLUSH WORM ASSTD 40CM  0000001000+00012279+00000+0001T   00012279+0000001054          1400 2IC745               2BZ
166519002166519051-600671     166519006001023552730GARDEN-FENCE PL-CTD 5PC0000003000+00004385+00000+0001T   00004385+0000001054          1400 2IC820               2BZ
166519003166519112-116038     166519006009681820246TCS CARRIER BAG MIDI   0000001000+00000035+00000+0001T   00000035+0000001054          1400 2IC090               2BZ
166520000166520               166520               170213OC     1400+00000+OC0000002630+0000002630+000000000+000000369+0000002990+0000000009+I20000000000+0000002990+Z
166520001166520039-081008     166520006008766081008CANDLES 9PCE SCENTED   0000001000+00002630+00000+0001T   00002630+0000001102          1400 2IC510               2BZ
166521000166521               166521               170213OC     1400+00000+OC0000007012+0000007012+000000000+000000984+0000007990+0000000006+I20000000000+0000007990+Z
166521001166521077-000150-D   166521006003000054343GIFT-WRAP CELLPHANE CLR0000001000+00000876+00000+0001T   00000876+0000001106          1400 2IC112               2BZ
166521002166521077-000151     166521006008766114676GIFT-WRAP C/PHANE ASSTD0000001000+00000876+00000+0001T   00000876+0000001106          1400 2IC112               2BZ
166521003166521019-000102     166521006003000280919VASE GLS BUD 18X6CM    0000001000+00004385+00000+0001T   00004385+0000001106          1400 2IC510               2BZ
166521004166521077-000251     166521006003000639106GIFT-DECOR RIBBON      0000001000+00002630+00000+0001T   00002630+0000001106          1400 2IC112               2BZ
166521005166521304-000720     166521006001023843050F/BUNCH ROSE 6-HEAD AST0000001000+00002630+00000+0001T   00002630+0000001106          1400 2IC510               2BZ
166521006166521019-000102     166521006003000280919VASE GLS BUD 18X6CM    0000001000-00004385+00000+0001T   00004385+0000001106          1400 2IC5101IC            2 Z
166522000166522               166522               170213OC     1400+00000+OC0000003507+0000003507+000000000+000000491+0000003990+0000000008+I20000000000+0000003990+Z
166522001166522084-000364     166522006001023624581MANICURE-SET 7PCE LTHR 0000001000+00003507+00000+0001T   00003507+0000001108          1400 2IC200               2BZ
166523000166523               166523               170213OC     1400+00000+OC0000003506+0000003506+000000000+000000492+0000003990+0000000008+I20000000000+0000003990+Z
166523001166523089-000504     166523006001023701886KEY-CHAIN SNAP-HOOK    0000002000+00001753+00000+0001T   00001753+0000001200          1400 2IC205               2BZ
166524000166524               166524               170213OC     1400+00000+OC0000001224+0000001224+000000000+000000172+0000001390+0000000006+I20000000000+0000001390+Z
166524001166524079-009700-A   166524006003000547746PAPER SIRIO A4 BLACK   0000001000+00000306+00000+0001T   00000306+0000001302          1400 2IC130               2BZ
166524002166524079-009700-G   166524006003000545957PAPER SIRIO A4 LIME COL0000001000+00000306+00000+0001T   00000306+0000001302          1400 2IC130               2BZ
166524003166524079-009700-J   166524006003000546190PAPER SIRIO A4 BLUE    0000001000+00000306+00000+0001T   00000306+0000001302          1400 2IC130               2BZ
166524004166524079-009700-D   166524006003000545711PAPER SIRIO A4 RED COL.0000001000+00000306+00000+0001T   00000306+0000001302          1400 2IC130               2BZ
166525000166525               166525               170213OC     1400+00000+OC0000001753+0000001753+000000000+000000246+0000001990+0000000009+I20000000000+0000001990+Z
166525001166525006-000800     166525006001023902801HAT CABARET 14x18cm    0000001000+00001753+00000+0001T   00001753+0000001312          1400 2IC131               2BZ
166526000166526               166526               170213OC     1400+00000+OC0000005262+0000005262+000000000+000000737+0000005990+0000000009+I20000000000+0000005990+Z
166526001166526071-002886     166526006925625423024CALCULATOR SCIENTIFIC  0000001000+00005262+00000+0001T   00005262+0000001345          1400 2IC130               2BZ
166527000166527               166527               170213OC     1400+00000+OC0000017574+0000017574+000000000+000002462+0000020030+0000000006+I20000000000+0000020030+Z
166527001166527039-809558     166527006003000344376CANDLE PILLAR 12CM 4AST0000001000+00006139+00000+0001T   00006139+0000001436          1400 2IC510               2BZ
166527002166527301-085007     166527006003000673698ORN OCC. LOVE S/PLAQUE 0000001000+00007893+00000+0001T   00007893+0000001436          1400 2IC505               2BZ
166527003166527018-000136     166527006001023659026MUG OCC LOVE W/PLUSH   0000001000+00003507+00000+0001T   00003507+0000001436          1400 2IC515               2BZ
166527004166527112-116038     166527006009681820246TCS CARRIER BAG MIDI   0000001000+00000035+00000+0001T   00000035+0000001436          1400 2IC090               2BZ
166527005166527368-000012     166527006003000610464PLUSH BEAR 30cm SITTING0000001000-00008771+00000+0001T   00008771+0000001436          1400 2IC7451IC            2 Z
166527006166527368-000012     166527006003000610464PLUSH BEAR 30cm SITTING0000001000+00008771+00000+0001T   00008771+0000001436          1400 2IC7451IC            2BZ
166528000166528               166528               170213OC     1400+00000+OC0000010643+0000010643+000000000+000001492+0000012135+0000000000+I40000012135+0000000000+Z
166528001166528112-116038     166528006009681820246TCS CARRIER BAG MIDI   0000001000+00000035+00000+0001T   00000035+0000001438          1400 2IC090               2BZ
166528002166528903-003080     166528005907029004673SWT SNACK STIX CHOC 50g0000001000+00000876+00000+0001T   00000876+0000001438          1400 2IC150               2BZ
166528003166528903-004963     166528008410525221873SWT GUMMY SOUR COLA 50g0000001000+00000964+00000+0001T   00000964+0000001438          1400 2IC150               2BZ
166528004166528079-000334     166528006003000670437THERAPY P/CRAYONS 18   0000001000+00005262+00000+0001T   00005262+0000001438          1400 2IC130               2BZ
166528005166528566-000007     166528006001023761187S/BOOK SUPER VALUE     0000001000+00001753+00000+0001T   00001753+0000001438          1400 2IC130               2BZ
166528006166528566-000028     166528006003000265541STICKER BK ASSTD 250PCE0000001000+00001753+00000+0001T   00001753+0000001438          1400 2IC130               2BZ
166529000166529               166529               170213OC     1400+00000+OC0000012715+0000012715+000000000+000001782+0000014490+0000000007+I20000000000+0000014490+Z
166529001166529566-000358     166529006003000582587STICKER ROOM DECOR WORD0000001000+00003946+00000+0001T   00003946+0000001447          1400 2IC130               2AZ
166529002166529566-000316     166529006003000521821STICKERS MIRRORS HOME  0000001000+00006139+00000+0001T   00006139+0000001447          1400 2IC130               2AZ
166529003166529566-000313     166529006003000523016STICKERS DECOR MIRRORS 0000001000+00002630+00000+0001T   00002630+0000001447          1400 2IC130               2AZ
166530000166530               166530               170213OC     1400+00000+OC0000001490+0000001490+000000000+000000209+0000001690+0000000009+I20000000000+0000001690+Z
166530001166530077-000299     166530006003000395576G/BAG 32x25cm LRG LOVE 0000001000+00001490+00000+0001T   00001490+0000001451          1400 2IC112               2BZ
166531000166531               166531               170213OC     1400+00000+OC0000013190+0000013190+000000000+000001847+0000015030+0000000007+I20000000000+0000015030+Z
166531001166531080-000127     166531006003000424351VALENTINES DAY 36x24CM 0000002000+00002192+00000+0001T   00002192+0000001453          1400 2IC112               2BZ
166531002166531019-000010     166531006003000673452VASE GLS W/STAND 28CM  0000001000+00008771+00000+0001T   00008771+0000001453          1400 2IC510               2BZ
166531003166531112-116038     166531006009681820246TCS CARRIER BAG MIDI   0000001000+00000035+00000+0001T   00000035+0000001453          1400 2IC090               2BZ
166532000166532               166532               170213OC     1400+00000+OC0000001490+0000001490+000000000+000000209+0000001690+0000000009+I20000000000+0000001690+Z
166532001166532077-000299     166532006003000395576G/BAG 32x25cm LRG LOVE 0000001000+00001490+00000+0001T   00001490+0000001456          1400 2IC112               2AZ
166533000166533               166533               170213OC     1400+00000+OC0000015288+0000015288+000000000+000002150+0000017438+0000000000+I40000017438+0000000000+Z
166533001166533903-000155     166533006009803374435SWT LOLLY I LUV U HEART0000014000+00000525+00000+0001T   00000525+0000001504          1400 2IC150               2BZ
166533002166533077-000115-B   166533006003000181025GIFT-WRAP PPR 700MMX2M 0000001000+00002630+00000+0001T   00002630+0000001504          1400 2IC112               2BZ
166533003166533304-000720     166533006001023843050F/BUNCH ROSE 6-HEAD AST0000002000+00002630+00000+0001T   00002630+0000001504          1400 2IC510               2BZ
166533004166533112-116069     166533006009681820277TCS CARRIER BAG JUMBO  0000001000+00000048+00000+0001T   00000048+0000001504          1400 2IC090               2BZ
166534000166534               166534               170213OC     1400+00000+OC0000000700+0000000700+000000000+000000098+0000000790+0000000008+I20000000000+0000000790+Z
166534001166534018-000177     166534006001023797513MUG MINI LOVE ASSTD    0000001000+00000700+00000+0001T   00000700+0000001505          1400 2IC515               2BZ
166535000166535               166535               170213OC     1400+00000+OC0000016713+0000016713+000000000+000002341+0000019050+0000000004+I20000000000+0000019050+Z
166535001166535265-000317     166535006003000128556BATTERY OPERATED ROBOT 0000001000+00016665+00000+0001T   00016665+0000001506          1400 2IC710               2BZ
166535002166535112-116069     166535006009681820277TCS CARRIER BAG JUMBO  0000001000+00000048+00000+0001T   00000048+0000001506          1400 2IC090               2BZ
166536000166536               166536               170213OC     1400+00000+OC0000014517+0000014517+000000000+000002034+0000016551+0000000000+I40000016551+0000000000+Z
166536001166536077-000316     166536006001023609731GIFT-BAG 25X32CM MATT  0000001000+00001753+00000+0001T   00001753+0000001510          1400 2IC112               2AZ
166536002166536368-000175     166536006003000270316PLUSH BEAR 4 ASSTD 18CM0000001000+00006139+00000+0001T   00006139+0000001510          1400 2IC745               2AZ
166536003166536018-030000     166536006003000421060MUG OCCASIONS LOVE 2PCE0000001000+00004385+00000+0001T   00004385+0000001510          1400 2IC515               2AZ
166536004166536080-000127     166536006003000424351VALENTINES DAY 36x24CM 0000001000+00002192+00000+0001T   00002192+0000001510          1400 2IC112               2AZ
166536005166536112-116069     166536006009681820277TCS CARRIER BAG JUMBO  0000001000+00000048+00000+0001T   00000048+0000001510          1400 2IC090               2AZ
166537000166537               166537               170213OC     1400+00000+OC0000007185+0000007185+000000000+000001009+0000008194+0000000000+I40000008194+0000000000+Z
166537001166537903-000155     166537006009803374435SWT LOLLY I LUV U HEART0000002000+00000525+00000+0001T   00000525+0000001511          1400 2IC150               2BZ
166537002166537077-000251     166537006003000639106GIFT-DECOR RIBBON      0000001000+00002630+00000+0001T   00002630+0000001511          1400 2IC112               2BZ
166537003166537077-000299     166537006003000395576G/BAG 32x25cm LRG LOVE 0000002000+00001490+00000+0001T   00001490+0000001511          1400 2IC112               2BZ
166537004166537903-000155     166537006009803374435SWT LOLLY I LUV U HEART0000001000+00000525+00000+0001T   00000525+0000001511          1400 2IC150               2BZ
166538000166538               166538               170213OC     1400+00000+OC0000000700+0000000700+000000000+000000098+0000000790+0000000008+I20000000000+0000000790+Z
166538001166538018-000177     166538006001023797513MUG MINI LOVE ASSTD    0000001000+00000700+00000+0001T   00000700+0000001514          1400 2IC515               2BZ
166539000166539               166539               170213OC     1400+00000+OC0000009680+0000009680+000000000+000001357+0000011037+0000000000+I40000011037+0000000000+Z
166539001166539002-000094     166539006001023489753PIZZA-CUTTER           0000001000+00002630+00000+0001T   00002630+0000001515          1400 2IC300               2BZ
166539002166539174-000011     166539006001023523778W/MACHINE-BAG 50x40cm  0000001000+00001753+00000+0001T   00001753+0000001515          1400 2IC205               2BZ
166539003166539133-000035     166539006001023768889CASSEROLE HOLDER CANVAS0000001000+00005262+00000+0001T   00005262+0000001515          1400 2IC212               2BZ
166539004166539112-116038     166539006009681820246TCS CARRIER BAG MIDI   0000001000+00000035+00000+0001T   00000035+0000001515          1400 2IC090               2BZ
166540000166540               166540               170213OC     1400+00000+OC0000007717+0000007717+000000000+000001081+0000008790+0000000008+I20000000000+0000008790+Z
166540001166540018-000127     166540006001023380289MUG OCC STRAIGHT LOVE  0000001000+00001578+00000+0001T   00001753+0006471516          1400 2IC515               2AZ
166540002166540368-000175     166540006003000270316PLUSH BEAR 4 ASSTD 18CM0000001000+00006139+00000+0001T   00006139+0000001516          1400 2IC745               2AZ
166541000166541               166541               170213OC     1400+00000+OC0000008110+0000008110+000000000+000001139+0000009249+0000000000+I40000009249+0000000000+Z
166541001166541079-009702-G   166541008427973060787PAPER SIRIO A2 FUSHIA  0000001000+00001051+00000+0001T   00001051+0000001518          1400 2IC130               2BZ
166541002166541566-000028     166541006003000265541STICKER BK ASSTD 250PCE0000001000+00001753+00000+0001T   00001753+0000001518          1400 2IC130               2BZ
166541003166541079-013102     166541006003000019601ART+CRAFT DIY PIPE-CLNR0000001000+00002192+00000+0001T   00002192+0000001518          1400 2IC130               2BZ
166541004166541079-013099     166541006003000081875ART+CRAFT EYES ASSTD   0000001000+00001753+00000+0001T   00001753+0000001518          1400 2IC130               2BZ
166541005166541039-000323     166541006001023524171BIRTHDAY-CANDLES 24PCE 0000001000+00000876+00000+0001T   00000876+0000001518          1400 2IC510               2BZ
166541006166541080-000133     166541006003000535613CARD&ENV MINI ASTD DSGN0000001000+00000437+00000+0001T   00000437+0000001518          1400 2IC112               2BZ
166541007166541112-116069     166541006009681820277TCS CARRIER BAG JUMBO  0000001000+00000048+00000+0001T   00000048+0000001518          1400 2IC090               2BZ
166542000166542               166542               170213OC     1400+00000+OC0000004385+0000004385+000000000+000000614+0000004990+0000000009+I20000000000+0000004990+Z
166542001166542004-078900     166542006003000061655MICROPHONE O/F SWT 21cm0000001000+00004385+00000+0001T   00004385+0000001523          1400 2IC310               2BZ
166543000166543               166543               170213OC     1400+00000+OC0000002630+0000002630+000000000+000000369+0000002990+0000000009+I20000000000+0000002990+Z
166543001166543082-011564     166543006001492115641#SUNGLASS POUCH AZTEC  0000001000+00002630+00000+0001T   00002630+0000001525          1400 2IC160               2BZ
166544000166544               166544               170213OC     1400+00000+OC0000009239+0000009239+000000000+000001295+0000010530+0000000004+I20000000000+0000010530+Z
166544001166544018-000177     166544006001023797513MUG MINI LOVE ASSTD    0000001000+00000700+00000+0001T   00000700+0000001526          1400 2IC515               2BZ
166544002166544080-000133-A   166544006003000647019MINI VALENTINES CARD   0000001000+00000437+00000+0001T   00000437+0000001526          1400 2IC112               2BZ
166544003166544018-000170     166544006001023775528MUG OCC. LOVE 2PC MINI 0000001000+00002192+00000+0001T   00002192+0000001526          1400 2IC515               2BZ
166544004166544368-006004     166544006003000671076PLUSH DOLPHIN          0000001000+00004385+00000+0001T   00004385+0000001526          1400 2IC745               2BZ
166544005166544077-000299     166544006003000395576G/BAG 32x25cm LRG LOVE 0000001000+00001490+00000+0001T   00001490+0000001526          1400 2IC112               2BZ
166544006166544112-116038     166544006009681820246TCS CARRIER BAG MIDI   0000001000+00000035+00000+0001T   00000035+0000001526          1400 2IC090               2BZ
166545000166545               166545               170213OC     1400+00000+OC0000004385+0000004385+000000000+000000614+0000004999+0000000000+I40000004999+0000000000+Z
166545001166545031-005840     166545006001023481412P/FRAME-CLIP 30X40CM   0000001000+00004385+00000+0001T   00004385+0000001527          1400 2IC510               2BZ
166546000166546               166546               170213OC     1400+00000+OC0000005166+0000005166+000000000+000000726+0000005890+0000000002+I20000000000+0000005890+Z
166546001166546903-000120     166546006002099001665SWEET GS ZILLIONS 50g  0000002000+00000700+00000+0001T   00000700+0000001528          1400 2IC150               2BZ
166546002166546903-000183     166546006003000451043SWT LB HEART LOLLY     0000002000+00000393+00000+0001T   00000393+0000001528          1400 2IC150               2BZ
166546003166546077-000299     166546006003000395576G/BAG 32x25cm LRG LOVE 0000002000+00001490+00000+0001T   00001490+0000001528          1400 2IC112               2BZ
166547000166547               166547               170213OC     1400+00000+OC0000004065+0000004065+000000000+000000571+0000004630+0000000006+I20000000000+0000004630+Z
166547001166547903-002851     166547000000087108538MENTOS ROLL STRAWBERRY 0000001000+00001051+00000+0001T   00001051+0000001529          1400 2IC150               2AZ
166547002166547028-000795     166547006001023812063SKEWERS 10cm 100PCE 3mm0000001000+00000964+00000+0001T   00000964+0000001529          1400 2IC305               2AZ
166547003166547028-000797     166547006001023812124SKEWERS 15cm 100PCE    0000001000+00000876+00000+0001T   00000876+0000001529          1400 2IC305               2AZ
166547004166547903-000087     166547006001704000161SWT SPECKLED-EGGS 50G  0000001000+00001139+00000+0001T   00001139+0000001529          1400 2IC150               2AZ
166547005166547112-116038     166547006009681820246TCS CARRIER BAG MIDI   0000001000+00000035+00000+0001T   00000035+0000001529          1400 2IC090               2AZ
166548000166548               166548               170213OC     1400+00000+OC0000002192+0000002192+000000000+000000307+0000002490+0000000009+I20000000000+0000002490+Z
166548001166548006-000789     166548006001023148612CROWN BOY              0000001000+00002192+00000+0001T   00002192+0000001530          1400 2IC131               2BZ
166549000166549               166549               170213OC     1400+00000+OC0000010523+0000010523+000000000+000001475+0000011990+0000000008+I20000000000+0000011990+Z
166549001166549082-000388     166549006001023774385SPECT-CASE SPRING-CLOSE0000001000+00002630+00000+0001T   00002630+0000001531          1400 2IC160               2BZ
166549002166549082-000127     166549006003000646630READING GLASS TWIN 3   0000001000+00007893+00000+0001T   00007893+0000001531          1400 2IC160               2BZ
166550000166550               166550               170213OC     1400+00000+OC0000000035+0000000035+000000000+000000005+0000000040+0000000000+I20000000000+0000000040+Z
166550001166550112-116038     166550006009681820246TCS CARRIER BAG MIDI   0000001000+00000035+00000+0001T   00000035+0000001531          1400 2IC090               2BZ
166551000166551               166551               170213OC     1400+00000+OC0000005260+0000005260+000000000+000000738+0000005990+0000000008+I20000000000+0000005990+Z
166551001166551162-096646     166551006001492966465#TAG HOT DEALS KIDS HR 0000002000+00002630+00000+0001T   00002630+0000001532          1400 2IC160               2BZ
166552000166552               166552               170213OC     1400+00000+OC0000003542+0000003542+000000000+000000496+0000004030+0000000008+I20000000000+0000004030+Z
166552001166552018-000136     166552006001023659026MUG OCC LOVE W/PLUSH   0000001000+00003507+00000+0001T   00003507+0000001541          1400 2IC515               2BZ
166552002166552112-116038     166552006009681820246TCS CARRIER BAG MIDI   0000001000+00000035+00000+0001T   00000035+0000001541          1400 2IC090               2BZ
166553000166553               166553               170213OC     1400+00000+OC0000016478+0000016478+000000000+000002312+0000018790+0000000000+I20000000000+0000018790+Z
166553001166553077-000245     166553006001023759214GIFT-RIBBON METALLICx2 0000002000+00001227+00000+0001T   00001227+0000001647          1400 2IC112               2BZ
166553002166553903-000619     166553006003000672455SWT LOLLY STR/BRRY 140G0000004000+00001753+00000+0001T   00001753+0000001647          1400 2IC150               2BZ
166553003166553903-000624     166553006003000671793SWEET LOLLY BLU/BRRY   0000004000+00001753+00000+0001T   00001753+0000001647          1400 2IC150               2BZ
166554000166554               166554               170213OC     1400+00000+OC0000004200+0000004200+000000000+000000588+0000004780+0000000008+I20000000000+0000004780+Z
166554001166554007-000537     166554000651728791017NOTE-PAD RND SMILE-FACE0000006000+00000700+00000+0001T   00000700+0000001647          1400 2IC130               2BZ
166555000166555               166555               170213OC     1400+00000+OC0000000035+0000000035+000000000+000000005+0000000040+0000000000+I20000000000+0000000040+Z
166555001166555112-116038     166555006009681820246TCS CARRIER BAG MIDI   0000001000+00000035+00000+0001T   00000035+0000001648          1400 2IC090               2BZ
166556000166556               166556               170213OC     1400+00000+OC0000003507+0000003507+000000000+000000491+0000003990+0000000008+I20000000000+0000003990+Z
166556001166556105-003027     166556006001023114129CONTAINERS PL MINI 4PC 0000001000+00003507+00000+0001T   00004385+0008161648          1400 2IC210               2CZ
166557000166557               166557               170213OC     1400+00000+OC0000001578+0000001578+000000000+000000221+0000001790+0000000009+I20000000000+0000001790+Z
166557001166557018-000127     166557006001023380289MUG OCC STRAIGHT LOVE  0000001000+00001578+00000+0001T   00001753+0006471649          1400 2IC515               2BZ
166558000166558               166558               170213OC     1400+00000+OC0000011432+0000011432+000000000+000001602+0000013034+0000000000+I10000002034+0000011000+Z
166558001166558077-000382     166558006003000247820GIFT-BAG MED 18X23CM   0000001000+00001753+00000+0001T   00001753+0000001651          1400 2IC112               2BZ
166558002166558080-000139     166558006003000611690CARD & ENV MINI SET 6PC0000001000+00002192+00000+0001T   00002192+0000001651          1400 2IC112               2BZ
166558003166558565-000015     166558006003000672035NOVELTY SLIME ANIMAL   0000001000+00002192+00000+0001T   00002192+0000001651          1400 2IC745               2BZ
166558004166558018-000136     166558006001023659026MUG OCC LOVE W/PLUSH   0000001000+00003507+00000+0001T   00003507+0000001651          1400 2IC515               2BZ
166558005166558089-000030     166558006003000575671K/CHAIN LOVE MTL ASSTD 0000001000+00001753+00000+0001T   00001753+0000001651          1400 2IC205               2BZ
166558006166558112-116038     166558006009681820246TCS CARRIER BAG MIDI   0000001000+00000035+00000+0001T   00000035+0000001651          1400 2IC090               2BZ
166559000166559               166559               170213OC     1400+00000+OC0000006576+0000006576+000000000+000000921+0000007497+0000000000+I40000007497+0000000000+Z
166559001166559018-000170     166559006001023775528MUG OCC. LOVE 2PC MINI 0000001000+00002192+00000+0001T   00002192+0000001653          1400 2IC515               2BZ
166559002166559565-000015     166559006003000672035NOVELTY SLIME ANIMAL   0000002000+00002192+00000+0001T   00002192+0000001653          1400 2IC745               2BZ
166560000166560               166560               170213OC     1400+00000+OC0000028370+0000028370+000000000+000003976+0000032346+0000000000+I40000032346+0000000000+Z
166560001166560039-000026     166560006001023551610C/TAPERED 25CM M/RED   0000002000+00001051+00000+0001T   00001051+0000001655          1400 2IC510               2BZ
166560002166560039-000024     166560006003000286300C/TAPERED 25CM M/WHITE 0000002000+00001051+00000+0001T   00001051+0000001655          1400 2IC510               2BZ
166560003166560018-000170     166560006001023775528MUG OCC. LOVE 2PC MINI 0000003000+00002192+00000+0001T   00002192+0000001655          1400 2IC515               2BZ
166560004166560266-008060     166560006003000301522P/SET LRG MILITARY TEAM0000001000+00017542+00000+0001T   00017542+0000001655          1400 2IC710               2BZ
166560005166560112-116069     166560006009681820277TCS CARRIER BAG JUMBO  0000001000+00000048+00000+0001T   00000048+0000001655          1400 2IC090               2BZ
166561000166561               166561               170213OC     1400+00000+OC0000008362+0000008362+000000000+000001173+0000009530+0000000005+I20000000000+0000009530+Z
166561001166561055-009260     166561006001023613073PICTURE-HOOK+PIN 9PCE  0000002000+00002630+00000+0001T   00002630+0000001703          1400 2IC810               2BZ
166561002166561055-009054     166561006001023471994CUP-HOOKS BRS 30mm H&H 0000001000+00001314+00000+0001T   00001314+0000001703          1400 2IC810               2BZ
166561003166561903-000211     166561006002099001238SWT GS MALLOW ICE CREAM0000001000+00001753+00000+0001T   00001753+0000001703          1400 2IC150               2BZ
166561004166561112-116038     166561006009681820246TCS CARRIER BAG MIDI   0000001000+00000035+00000+0001T   00000035+0000001703          1400 2IC090               2BZ
166562000166562               166562               170213OC     1400+00000+OC0000002629+0000002629+000000000+000000369+0000002990+0000000008+I20000000000+0000002990+Z
166562001166562080-000133-A   166562006003000647019MINI VALENTINES CARD   0000001000+00000437+00000+0001T   00000437+0000001710          1400 2IC112               2BZ
166562002166562031-000868-A   166562006001023798534P/FRAME PL BLCK 10X15CM0000001000+00002192+00000+0001T   00002192+0000001710          1400 2IC510               2BZ
166563000166563               166563               170213OC     1400+00000+OC0000002630+0000002630+000000000+000000369+0000002990+0000000009+I20000000000+0000002990+Z
166563001166563306-000039     166563006003000622566COTTON EARBUDS HOLDER  0000001000+00002630+00000+0001T   00002630+0000001711          1400 2IC200               2BZ
166564000166564               166564               170213OC     1400+00000+OC0000001927+0000001927+000000000+000000271+0000002190+0000000008+I20000000000+0000002190+Z
166564001166564903-005003     166564006002580020106SWT DINKY DUMMIES 5PK  0000001000+00001490+00000+0001T   00001490+0000001712          1400 2IC150               2BZ
166564002166564903-000094     166564006923431501622SWT GS CANDY NECKLACE  0000001000+00000437+00000+0001T   00000437+0000001712          1400 2IC150               2BZ
166565000166565               166565               170213OC     1400+00000+OC0000005260+0000005260+000000000+000000738+0000005990+0000000008+I20000000000+0000005990+Z
166565001166565104-000031     166565006003000614950BASKET PL 27x18x12cm   0000002000+00002630+00000+0001T   00002630+0000001728          1400 2IC210               2AZ
166566000166566               166566               170213OC     1400+00000+OC0000007927+0000007927+000000000+000001111+0000009030+0000000008+I20000000000+0000009030+Z
166566001166566368-000053     166566006003000633449PLUSH BEAR 15.5cm MUM  0000001000+00005262+00000+0001T   00005262+0000001732          1400 2IC745               2BZ
166566002166566085-007038     166566006001024039896P/KNIFE 8cm-BLD PL/GRIP0000001000+00002630+00000+0001T   00002630+0000001732          1400 2IC305               2BZ
166566003166566112-116038     166566006009681820246TCS CARRIER BAG MIDI   0000001000+00000035+00000+0001T   00000035+0000001732          1400 2IC090               2BZ
166567000166567               166567               170213OC     1400+00000+OC0000002630+0000002630+000000000+000000369+0000002990+0000000009+I20000000000+0000002990+Z
166567001166567077-000270     166567006003000395453GIFT-BAG PPR JMB 33X45 0000001000+00002630+00000+0001T   00002630+0000001734          1400 2IC112               2AZ
166568000166568               166568               170213OC     1400+00000+OC0000001225+0000001225+000000000+000000173+0000001390+0000000008+I20000000000+0000001390+Z
166568001166568077-000383     166568006003000247943GIFT-BAG 11X14CM S/COL 0000001000+00000788+00000+0001T   00000788+0000001736          1400 2IC112               2BZ
166568002166568080-000133-A   166568006003000647019MINI VALENTINES CARD   0000001000+00000437+00000+0001T   00000437+0000001736          1400 2IC112               2BZ
166569000166569               166569               170213OC     1400+00000+OC0000002192+0000002192+000000000+000000307+0000002490+0000000009+I20000000000+0000002490+Z
166569001166569566-000359     166569006003000582709STICKER BOOK LOVE SPARK0000001000+00002192+00000+0001T   00002192+0000001737          1400 2IC130               2BZ
166570000166570               166570               170213OC     1400+00000+OC0000004111+0000004111+000000000+000000582+0000004690+0000000003+I20000000000+0000004690+Z
166570001166570072-000228     166570006003000235940DOG-COL REFLCTV 25-40cm0000001000+00001753+00000+0001T   00001753+0000001738          1400 2IC870               2BZ
166570002166570903-000183     166570006003000451043SWT LB HEART LOLLY     0000006000+00000393+00000+0001T   00000393+0000001738          1400 2IC150               2BZ
166571000166571               166571               170213OC     1400+00000+OC0000002926+0000002926+000000000+000000411+0000003337+0000000000+I40000003337+0000000000+Z
166571001166571366-002681     166571006003000653744DRESS UP HAT FIRE CHIEF0000001000+00000876+00000+0001T   00000876+0000001740          1400 2IC131               2BZ
166571002166571077-000245     166571006001023759214GIFT-RIBBON METALLICx2 0000001000+00001227+00000+0001T   00001227+0000001740          1400 2IC112               2BZ
166571003166571077-000010-C   166571006001023123879CREPE-PAPER RED        0000001000+00000788+00000+0001T   00000788+0000001740          1400 2IC112               2BZ
166571004166571112-116038     166571006009681820246TCS CARRIER BAG MIDI   0000001000+00000035+00000+0001T   00000035+0000001740          1400 2IC090               2BZ
166572000166572               166572               170213OC     1400+00000+OC0000007013+0000007013+000000000+000000984+0000007990+0000000007+I20000000000+0000007990+Z
166572001166572104-000031     166572006003000614950BASKET PL 27x18x12cm   0000002000+00002630+00000+0001T   00002630+0000001743          1400 2IC210               2BZ
166572002166572077-000240     166572006003000326259G/RIBBON 4PC PEARLIZED 0000001000+00001753+00000+0001T   00001753+0000001743          1400 2IC112               2BZ
166573000166573               166573               170213OC     1400+00000+OC0000003507+0000003507+000000000+000000491+0000003990+0000000008+I20000000000+0000003990+Z
166573001166573018-000130     166573006001023867537MUG OCC LOVE MINI+HEART0000001000+00003507+00000+0001T   00003507+0000001743          1400 2IC515               2BZ
166574000166574               166574               170213OC     1400+00000+OC0000004822+0000004822+000000000+000000676+0000005498+0000000000+I40000005498+0000000000+Z
166574001166574079-013101     166574006001023863706CRAFT SET DIY PIPE-CLNR0000001000+00002630+00000+0001T   00002630+0000001745          1400 2IC130               2CZ
166574002166574079-013102     166574006003000019601ART+CRAFT DIY PIPE-CLNR0000001000+00002192+00000+0001T   00002192+0000001745          1400 2IC130               2CZ
166575000166575               166575               170213OC     1400+00000+OC0000008806+0000008806+000000000+000001233+0000010030+0000000009+I20000000000+0000010030+Z
166575001166575001-091415     166575006003000329113W/GLS OCC. LOVE 2PC 2800000001000+00008771+00000+0001T   00009648+0006471749          1400 2IC515               2BZ
166575002166575112-116038     166575006003000534906TCS CARRIER BAG MIDI   0000001000+00000035+00000+0001T   00000035+0000001749          1400 2IC090               2BZ
166576000166576               166576               170213OC     1400+00000+OC0000004734+0000004734+000000000+000000663+0000005390+0000000007+I20000000000+0000005390+Z
166576001166576077-000322     166576006001023677532GIFT-BAG 18X23CM E/D FL0000001000+00001227+00000+0001T   00001227+0000001749          1400 2IC112               2CZ
166576002166576018-000130     166576006001023867537MUG OCC LOVE MINI+HEART0000001000+00003507+00000+0001T   00003507+0000001749          1400 2IC515               2CZ
166577000166577               166577               170213OC     1400+00000+OC0000004734+0000004734+000000000+000000663+0000005390+0000000007+I20000000000+0000005390+Z
166577001166577077-000322     166577006001023677532GIFT-BAG 18X23CM E/D FL0000001000+00001227+00000+0001T   00001227+0000001750          1400 2IC112               2BZ
166577002166577018-000136     166577006001023659026MUG OCC LOVE W/PLUSH   0000001000+00003507+00000+0001T   00003507+0000001750          1400 2IC515               2BZ
166578000166578               166578               170213OC     1400+00000+OC0000003365+0000003365+000000000+000000472+0000003837+0000000000+I40000003837+0000000000+Z
166578001166578018-000127     166578006001023380289MUG OCC STRAIGHT LOVE  0000001000+00001578+00000+0001T   00001753+0006471759          1400 2IC515               2BZ
166578002166578903-000897     166578008692806325207SWT CHOC DBL MINI ROLL 0000002000+00000876+00000+0001T   00000876+0000001759          1400 2IC150               2BZ
166578003166578112-116038     166578006003000534906TCS CARRIER BAG MIDI   0000001000+00000035+00000+0001T   00000035+0000001759          1400 2IC090               2BZ
166579000166579               166579               170213OC     1400+00000+OC0000017532+0000017532+000000000+000002458+0000019990+0000000000+I40000019990+0000000000+Z
166579001166579018-000177     166579006001023797513MUG MINI LOVE ASSTD    0000002000+00000700+00000+0001T   00000700+0000001802          1400 2IC515               2AZ
166579002166579133-000080     166579006001023911322DISH-CLOTH CHECK 2PCE  0000001000+00002630+00000+0001T   00002630+0000001802          1400 2IC212               2AZ
166579003166579079-013032-D   166579006003000389643RIBBONS                0000001000+00002630+00000+0001T   00002630+0000001802          1400 2IC130               2AZ
166579004166579903-002851     166579000000087108538MENTOS ROLL STRAWBERRY 0000002000+00001051+00000+0001T   00001051+0000001802          1400 2IC150               2AZ
166579005166579133-000088     166579006003000396627DISH CLOTHS ASSORTED   0000001000+00004385+00000+0001T   00004385+0000001802          1400 2IC212               2AZ
166579006166579103-000460     166579006003000630240BAMBOO FLOWER BASKET   0000001000+00004385+00000+0001T   00004385+0000001802          1400 2IC300               2AZ
166580000166580               166580               170213OC     1400+00000+OC0000014469+0000014469+000000000+000002027+0000016496+0000000000+I40000016496+0000000000+Z
166580001166580002-003733     166580006001023849182STRAINER D/FRY 20CM    0000001000+00003069+00000+0001T   00003069+0000001803          1400 2IC300               2BZ
166580002166580104-000030     166580006001023803481BASKET PL 28x20x12cm   0000001000+00004385+00000+0001T   00004385+0000001803          1400 2IC210               2BZ
166580003166580108-003023     166580006003000665471TUMBLER W/STRAW 550ml  0000001000+00002630+00000+0001T   00002630+0000001803          1400 2IC210               2BZ
166580004166580133-000088     166580006003000396627DISH CLOTHS ASSORTED   0000001000+00004385+00000+0001T   00004385+0000001803          1400 2IC212               2BZ
166581000166581               166581               170213OC     1400+00000+OC0000025040+0000025040+000000000+000003507+0000028547+0000000000+I40000028547+0000000000+Z
166581001166581112-116069     166581006009681820277TCS CARRIER BAG JUMBO  0000001000+00000048+00000+0001T   00000048+0000001806          1400 2IC090               2BZ
166581002166581018-000136     166581006001023659026MUG OCC LOVE W/PLUSH   0000001000+00003507+00000+0001T   00003507+0000001806          1400 2IC515               2BZ
166581003166581368-000113     166581006001023780874PLUSH BLINGED LOVE 30cm0000001000+00012279+00000+0001T   00012279+0000001806          1400 2IC745               2BZ
166581004166581018-000170     166581006001023775528MUG OCC. LOVE 2PC MINI 0000001000+00002192+00000+0001T   00002192+0000001806          1400 2IC515               2BZ
166581005166581018-000130     166581006001023867537MUG OCC LOVE MINI+HEART0000001000+00003507+00000+0001T   00003507+0000001806          1400 2IC515               2BZ
166581006166581018-005009     166581006001023725608MUG W/PLUSH-BEAR LOVE  0000001000+00003507+00000+0001T   00003507+0000001806          1400 2IC515               2BZ
A17021300                                          08494892OCSLAVE 2                       2IC2IC
A17021301                                          08534347OCSLAVE 2                       2IC2IC
A17021302                                          10551105OCSLAVE 2                       2IC2IC
A17021303                                          16443446OCSLAVE 2                       2IC2IC
M17021391                              CASH        OCSLAVE 2                       Z-REPORT No.   598TOTAL (Sales - Refunds)           5675.54       CASH TO BE BANKED                 2976.60       DEBIT CARDS                          0.00       CREDIT CARDS                      2698.94       Z-READING                         5675.54       AIRTIME DEBIT CARD SALES             0.00       AIRTIME CARD SALES                   0.00       OVERS/UNDERS                         0.00       AIRTIME CASH SALES                   0.00       GIFT CARDS                           0.00       GIFT CARD CASH SALES                 0.00       T O T A L  CASH PAYOUTS              0.00                                                                                                                                                                                                                                                                                                                                                      Z
M17021392                              CASH        OCABSENT                                                                                                                                                                                          ANNUAL LEAVE                                                                                                                                                                                    DAY OFF                                                                                                                                                                                         COMMENTS                                                                                                                                                                                                                                                                                                                                                                                       Z
Y17021300                                          OC00000000511242+000071
ZOC17021320113 SLAVE 2      SALES DATA                     NEXT INVOICE NO.  166582 0598
X OC Slave 2 First invoice 166511 170213 Last invoice 166581 170213 Next invoice 166582 Total number of records 000000265 clbackup completed 20:11:38
