103439000103439               103439               170213OD     1400+00000+OD0000002980+0000002980+000000000+000000418+0000003398+0000000000+I40000003398+0000000000+Z
103439001103439150-001234-2   103439005019190010022PLATE-HANGER P/C SIZE-20000001000+00001490+00000+0001T   00001490+0000000929          1400 H18810               1CZ
103439002103439077-000399     103439006003000139514GIFT BAG 18X23CM E/DAY 0000001000+00001490+00000+0001T   00001490+0000000929          1400 H18112               1CZ
103440000103440               103440               170213OD     1400+00000+OD0000008770+0000008770+000000000+000001228+0000009998+0000000000+I40000009998+0000000000+Z
103440001103440266-008040     103440006001023787002FIGURINE 6PC & ACCESS. 0000001000+00004385+00000+0001T   00004385+0000000936          1400 H18710               1CZ
103440002103440266-001101     103440006003000600472BOYS FIG P/SET W/ACCESS0000001000+00004385+00000+0001T   00004385+0000000936          1400 H18710               1CZ
103441000103441               103441               170213OD     1400+00000+OD0000021786+0000021786+000000000+000003053+0000024830+0000000009+I20000000000+0000024830+Z
103441001103441564-000012     103441006001023130075BUBBLE BOTTLE MAGIC    0000001000+00000700+00000+0001T   00000700+0000000954          1400 H18131               1CZ
103441002103441562-001043     103441006003000478200NUMBERS&ALPHABET MAGNET0000001000+00006139+00000+0001T   00006139+0000000954          1400 H18755               1CZ
103441003103441466-072725     103441006001023622532YO-YO PL               0000001000+00002630+00000+0001T   00002630+0000000954          1400 H18785               1CZ
103441004103441112-116069     103441006009681820277TCS CARRIER BAG JUMBO  0000001000+00000048+00000+0001T   00000048+0000000954          1400 H18090               1CZ
103441005103441466-000583     103441006001023156617SKIPPING-ROPE 224cm    0000001000+00001753+00000+0001T   00001753+0000000954          1400 H18785               1CZ
103441006103441261-000121     103441006001023341600GUN-CAPS 8-SHOT CARD-9 0000005000+00000700+00000+0001T   00000700+0000000954          1400 H18710               1CZ
103441007103441562-006275     103441006001023836182EDU BOARD W/MARKER ASST0000001000+00007016+00000+0001T   00007016+0000000954          1400 H18755               1CZ
103442000103442               103442               170213OD     1400+00000+OD0000003682+0000003682+000000000+000000516+0000004190+0000000008+I20000000000+0000004190+Z
103442001103442566-000359     103442006003000582709STICKER BOOK LOVE SPARK0000001000+00002192+00000+0001T   00002192+0000000954          1400 H18130               1CZ
103442002103442077-000944     103442006003000419036G/WRAP 700mmX2m LOVE   0000001000+00001490+00000+0001T   00001490+0000000954          1400 H18112               1CZ
103443000103443               103443               170213OD     1400+00000+OD0000000613+0000000613+000000000+000000086+0000000690+0000000009+I20000000000+0000000690+Z
103443001103443304-001011     103443006001023806727FLWR ROSE RED W/BEAR   0000001000+00000613+00000+0001T   00000788+0006470955          1400 H18510               1CZ
103444000103444               103444               170213OD     1400+00000+OD0000001753+0000001753+000000000+000000246+0000001990+0000000009+I20000000000+0000001990+Z
103444001103444080-000112     103444006003000252749CARD&ENVLP BDAY-MUSICAL0000001000+00001753+00000+0001T   00001753+0000001003          1400 H18112               1CZ
103445000103445               103445               170213OD     1400+00000+OD0000001578+0000001578+000000000+000000221+0000001790+0000000009+I20000000000+0000001790+Z
103445001103445077-000303     103445006001023593757GIFT-BAG PAPER MED     0000001000+00001578+00000+0001T   00001578+0000001006          1400 H18112               1CZ
103446000103446               103446               170213OD     1400+00000+OD0000038664+0000038664+000000000+000005419+0000044083+0000000000+I40000044083+0000000000+Z
103446001103446562-000211     103446006001023851536PUSH-IN BOARD ALPHABET 0000001000+00005262+00000+0001T   00005262+0000001121          1400 H18755               1CZ
103446002103446562-000199     103446006001023732910PUSH-IN BOARD WDN ASSTD0000001000+00005262+00000+0001T   00005262+0000001121          1400 H18755               1CZ
103446003103446567-011020     103446009781845060794BOOK CHILDREN'S READER 0000001000+00002630+00000+0001T   00003507+0008131121          1400 H18757               1CZ
103446004103446112-116069     103446006009681820277TCS CARRIER BAG JUMBO  0000001000+00000048+00000+0001T   00000048+0000001121          1400 H18090               1CZ
103446005103446079-013105     103446006001023863997ART+CRAFT DIY HAND PUPP0000002000+00002630+00000+0001T   00002630+0000001121          1400 H18130               1CZ
103446006103446065-006041     103446006001023712974TAMBOURINE 15cm P/BAND 0000001000+00001753+00000+0001T   00001753+0000001121          1400 H18745               1CZ
103446007103446065-006042     103446006001023712998MARACAS 2PCE CHA-CHA   0000001000+00001753+00000+0001T   00001753+0000001121          1400 H18745               1CZ
103446008103446466-064838     103446006001023835031BALLS MASSAGE 8cm SET-30000001000+00001753+00000+0001T   00001753+0000001121          1400 H18785               1CZ
103446009103446369-000035     103446006001023795885EDU STACKING-SET ASSTD 0000001000+00003507+00000+0001T   00003507+0000001121          1400 H18745               1CZ
103446010103446562-000806     103446006001023829467EDU THREADING STRNG GME0000001000+00002630+00000+0001T   00002630+0000001121          1400 H18755               1CZ
103446011103446369-000821     103446006003000164431BABY SHAPE-SORTER RND  0000001000+00008771+00000+0001T   00008771+0000001121          1400 H18745               1CZ
103446012103446112-116038     103446006009681820246TCS CARRIER BAG MIDI   0000001000+00000035+00000+0001T   00000035+0000001121          1400 H18090               1CZ
103447000103447               103447               170213OD     1400+00000+OD0000023713+0000023713+000000000+000003322+0000027035+0000000000+I40000027035+0000000000+Z
103447001103447079-013032-H   103447006003000496501GLITTER PRINCESS ACC   0000001000+00002630+00000+0001T   00002630+0000001123          1400 H18130               1CZ
103447002103447039-000500     103447006001023816450C/VOTIVE 8PC RAINBOW   0000004000+00005262+00000+0001T   00005262+0000001123          1400 H18510               1CZ
103447003103447112-116038     103447006009681820246TCS CARRIER BAG MIDI   0000001000+00000035+00000+0001T   00000035+0000001123          1400 H18090               1CZ
103448000103448               103448               170213OD     1400+00000+OD0000001490+0000001490+000000000+000000209+0000001690+0000000009+I20000000000+0000001690+Z
103448001103448071-005214     103448006003000152544CELLOTAPE SUPER REFILL 0000001000+00001490+00000+0001T   00001490+0000001123          1400 H18130               1CZ
103449000103449               103449               170213OD     1400+00000+OD0000032222+0000032222+000000000+000004518+0000036740+0000000000+I40000036740+0000000000+Z
103449001103449077-000150-D   103449006003000054343GIFT-WRAP CELLPHANE CLR0000010000+00000876+00000+0001T   00000876+0000001127          1400 H18112               1CZ
103449002103449112-116069     103449006009681820277TCS CARRIER BAG JUMBO  0000001000+00000048+00000+0001T   00000048+0000001127          1400 H18090               1CZ
103449003103449368-000111     103449006001023780812PLUSH BEAR/DOG 29CM    0000001000+00012279+00000+0001T   00012279+0000001127          1400 H18745               1CZ
103449004103449071-005214     103449006003000152544CELLOTAPE SUPER REFILL 0000001000+00001490+00000+0001T   00001490+0000001127          1400 H18130               1CZ
103449005103449077-000235     103449006003000160211GIFT-RIBBON ROLL METALC0000001000+00002630+00000+0001T   00002630+0000001127          1400 H18112               1CZ
103449006103449368-000049     103449006003000536955PLUSH BEAR 15cm LOVE   0000001000+00004385+00000+0001T   00004385+0000001127          1400 H18745               1CZ
103449007103449077-000251     103449006003000639106GIFT-DECOR RIBBON      0000001000+00002630+00000+0001T   00002630+0000001127          1400 H18112               1CZ
103450000103450               103450               170213OD     1400+00000+OD0000004420+0000004420+000000000+000000619+0000005039+0000000000+I40000005039+0000000000+Z
103450001103450017-000220     103450006003000239160P/ALBUM ADHESIVE 10 PGE0000001000+00004385+00000+0001T   00004385+0000001129          1400 H18510               1CZ
103450002103450112-116038     103450006009681820246TCS CARRIER BAG MIDI   0000001000+00000035+00000+0001T   00000035+0000001129          1400 H18090               1CZ
103451000103451               103451               170213OD     1400+00000+OD0000000876+0000000876+000000000+000000123+0000000990+0000000009+I20000000000+0000000990+Z
103451001103451567-010500     103451009780174011026SMALL WHO WHAT WHERE BK0000001000+00000876+00000+0001T   00000876+0000001129          1400 H18757               1CZ
103452000103452               103452               170213OD     1400+00000+OD0000002630+0000002630+000000000+000000369+0000002990+0000000009+I20000000000+0000002990+Z
103452001103452206-000220     103452006003000631704EGG TIMER COLOUR-CHANGE0000001000+00002630+00000+0001T   00002630+0000001133          1400 H18321               1BZ
103453000103453               103453               170213OD     1400+00000+OD0000003856+0000003856+000000000+000000541+0000004397+0000000000+I40000004397+0000000000+Z
103453001103453077-000315     103453006003000181186GIFT-BAG 20x28cm MATT  0000001000+00001578+00000+0001T   00001578+0000001137          1400 H18112               1CZ
103453002103453903-000087     103453006001704000161SWT SPECKLED-EGGS 50G  0000002000+00001139+00000+0001T   00001139+0000001137          1400 H18150               1CZ
103454000103454               103454               170213OD     1400+00000+OD0000008362+0000008362+000000000+000001171+0000009533+0000000000+I40000009533+0000000000+Z
103454001103454004-071204     103454006003000624904USB IN-CAR CHARGER 2.1A0000001000+00003507+00000+0001T   00003507+0000001140          1400 H18310               1CZ
103454002103454054-009026     103454006001023627735PAINT-BRUSH ASSTD      0000001000+00003507+00000+0001T   00003507+0000001140          1400 H18810               1CZ
103454003103454903-000848     103454008692806080076SWT SNACK BISCUIT 70g  0000001000+00000613+00000+0001T   00000613+0000001140          1400 H18150               1CZ
103454004103454112-116038     103454006009681820246TCS CARRIER BAG MIDI   0000001000+00000035+00000+0001T   00000035+0000001140          1400 H18090               1CZ
103454005103454903-000120     103454006002099001665SWEET GS ZILLIONS 50g  0000001000+00000700+00000+0001T   00000700+0000001140          1400 H18150               1CZ
103455000103455               103455               170213OD     1400+00000+OD0000002630+0000002630+000000000+000000369+0000002990+0000000009+I20000000000+0000002990+Z
103455001103455306-001125-A   103455006003000359127FIRSTAID SUPPORT KNEE  0000001000+00002630+00000+0001T   00002630+0000001140          1400 H18200               1CZ
103456000103456               103456               170213OD     1400+00000+OD0000003154+0000003154+000000000+000000443+0000003590+0000000007+I20000000000+0000003590+Z
103456001103456077-000299-A   103456006003000670888GIFT-BAG PAPER JMB LOVE0000001000+00001753+00000+0001T   00001753+0000001142          1400 H18112               1CZ
103456002103456304-001011     103456006001023806727FLWR ROSE RED W/BEAR   0000001000+00000613+00000+0001T   00000788+0006471142          1400 H18510               1CZ
103456003103456903-000200     103456006009826020234SWT CHOC RP CHOCO 23G  0000001000+00000788+00000+0001T   00000788+0000001142          1400 H18150               1CZ
103457000103457               103457               170213OD     1400+00000+OD0000000876+0000000876+000000000+000000123+0000000990+0000000009+I20000000000+0000000990+Z
103457001103457071-003000     103457006003000543229PEN BALL PEN 3PCE MULTI0000001000+00000876+00000+0001T   00000876+0000001144          1400 H18130               1CZ
103458000103458               103458               170213OD     1400+00000+OD0000022935+0000022935+000000000+000003214+0000026149+0000000000+I40000026149+0000000000+Z
103458001103458006-000227     103458006003000328086PARTY BIRTHDAY BADGES  0000002000+00003069+00000+0001T   00003069+0000001508          1400 H18131               1CZ
103458002103458077-000299-A   103458006003000670888GIFT-BAG PAPER JMB LOVE0000001000+00001753+00000+0001T   00001753+0000001508          1400 H18112               1CZ
103458003103458304-001204     103458006001023737984FLOWER OCC. TEDDY/ROSES0000001000+00001402+00000+0001T   00001490+0006471508          1400 H18510               1CZ
103458004103458112-116069     103458006009681820277TCS CARRIER BAG JUMBO  0000001000+00000048+00000+0001T   00000048+0000001508          1400 H18090               1CZ
103458005103458368-000637     103458006001023874092PLUSH BEAR SLEEPING LOV0000001000+00011402+00000+0001T   00012279+0006471508          1400 H18745               1CZ
103458006103458039-000326     103458006001023775252B/CANDLES 25PC CAND+HOL0000001000+00002192+00000+0001T   00002192+0000001508          1400 H18510               1CZ
103459000103459               103459               170213OD     1400+00000+OD0000005262+0000005262+000000000+000000737+0000005990+0000000009+I20000000000+0000005990+Z
103459001103459018-019000     103459006003000557288MUG OCC. LOVE JUMBO    0000001000+00005262+00000+0001T   00005262+0000001509          1400 H18515               1CZ
103460000103460               103460               170213OD     1400+00000+OD0000024151+0000024151+000000000+000003383+0000027530+0000000004+I20000000000+0000027530+Z
103460001103460089-000225     103460006003000622290KEY CHAIN RELIGIOUS    0000001000+00002192+00000+0001T   00002192+0000001511          1400 H18205               1CZ
103460002103460030-000040     103460006003000396375PLAQUE WDN HANGING HRTS0000001000+00003069+00000+0001T   00003069+0000001511          1400 H18505               1CZ
103460003103460301-085001     103460006003000297610ORN WATERBALL LOVE ASST0000001000+00004823+00000+0001T   00004823+0000001511          1400 H18505               1CZ
103460004103460112-116038     103460006009681820246TCS CARRIER BAG MIDI   0000001000+00000035+00000+0001T   00000035+0000001511          1400 H18090               1CZ
103460005103460586-011941     103460006001492119410WATCH KIDS RAINBOW ASST0000001000+00008771+00000+0001T   00008771+0000001511          1400 H18160               1CZ
103460006103460301-086005     103460006001023856289ORN OCC MOM WDN LETTERS0000001000+00004385+00000+0001T   00004385+0000001511          1400 H18505               1CZ
103460007103460004-071216     103460006003000239900MOBILE PHONE CHARM ASST0000001000+00000876+00000+0001T   00000876+0000001511          1400 H18310               1CZ
103461000103461               103461               170213OD     1400+00000+OD0000003103+0000003103+000000000+000000435+0000003530+0000000008+I20000000000+0000003530+Z
103461001103461106-003130     103461006001023625755ICE CUBE TRAY 21-CUBE  0000001000+00002192+00000+0001T   00002192+0000001512          1400 H18210               1CZ
103461002103461002-011120     103461006003000099559EGG CUP SILICONE KIDDIE0000001000+00000876+00000+0001T   00001314+0008121512          1400 H18300               1CZ
103461003103461112-116038     103461006009681820246TCS CARRIER BAG MIDI   0000001000+00000035+00000+0001T   00000035+0000001512          1400 H18090               1CZ
103462000103462               103462               170213OD     1400+00000+OD0000004646+0000004646+000000000+000000652+0000005290+0000000008+I20000000000+0000005290+Z
103462001103462006-000094     103462006003000611089PARTY BANNER BBY SHOWER0000001000-00001490+00000+0001T   00001490+0000001521          1400 H181312IC            1 Z
103462002103462563-000317-K   103462006003000697885SERVIETTE 2PLY 33cm    0000001000+00001753+00000+0001T   00001753+0000001521          1400 H18214               1CZ
103462003103462466-000584     103462006001023628787SKIPPING-ROPE          0000001000+00002630+00000+0001T   00002630+0000001521          1400 H18785               1CZ
103462004103462006-000201-A   103462006003000601158PARTY GIRL PLATES/CUP  0000001000+00001753+00000+0001T   00001753+0000001521          1400 H18131               1CZ
103463000103463               103463               170213OD     1400+00000+OD0000001139+0000001139+000000000+000000160+0000001290+0000000009+I20000000000+0000001290+Z
103463001103463903-000087     103463006001704000161SWT SPECKLED-EGGS 50G  0000001000+00001139+00000+0001T   00001139+0000001522          1400 H18150               1CZ
103464000103464               103464               170213OD     1400+00000+OD0000052572+0000052572+000000000+000007367+0000059939+0000000000+I40000059939+0000000000+Z
103464001103464203-005008     103464006003000334551DRINKING GAME LUDO     0000001000+00015788+00000+0001T   00015788+0000001537          1400 H18300               1CZ
103464002103464112-116069     103464006009681820277TCS CARRIER BAG JUMBO  0000001000+00000048+00000+0001T   00000048+0000001537          1400 H18090               1CZ
103464003103464072-020299     103464006001023700957PET DOG TOY RING RUBBER0000002000+00004385+00000+0001T   00004385+0000001537          1400 H18870               1CZ
103464004103464079-000012     103464006001023655332P/CRAYONS 12-COL LONG  0000001000+00001753+00000+0001T   00001753+0000001537          1400 H18130               1CZ
103464005103464071-004202     103464006001023417176SCISSORS-SCHOOL PL/MTL 0000001000+00001139+00000+0001T   00001139+0000001537          1400 H18130               1CZ
103464006103464071-009851     103464006003000533398STATIONERY SET 8PCE    0000001000+00004121+00000+0001T   00004121+0000001537          1400 H18130               1CZ
103464007103464071-081101-A   103464006003000326549GLUE-STICK 25g BLISTER 0000001000+00000788+00000+0001T   00000788+0000001537          1400 H18130               1CZ
103464008103464203-005500     103464006001023914194B/POURER PL OPEN BAR   0000002000+00002192+00000+0001T   00002192+0000001537          1400 H18300               1CZ
103464009103464203-000470     103464006003000329793BOTTLE-STOPPER/OPENER  0000001000+00002630+00000+0001T   00002630+0000001537          1400 H18300               1CZ
103464010103464203-006005     103464006003000364671ICE BALL 18-PC IN PVC  0000002000+00003069+00000+0001T   00003069+0000001537          1400 H18300               1CZ
103464011103464072-020366     103464006003000452927PET PLACE MAT ASSTD COL0000002000+00002630+00000+0001T   00002630+0000001537          1400 H18870               1CZ
103464012103464204-000001     103464006003000575558M/HOLD BOTTLE OPENER   0000001000+00001753+00000+0001T   00001753+0000001537          1400 H18300               1CZ
103465000103465               103465               170213OD     1400+00000+OD0000005259+0000005259+000000000+000000738+0000005997+0000000000+I40000005997+0000000000+Z
103465001103465077-000299-A   103465006003000670888GIFT-BAG PAPER JMB LOVE0000003000+00001753+00000+0001T   00001753+0000001640          1400 H18112               1CZ
103466000103466               103466               170213OD     1400+00000+OD0000001753+0000001753+000000000+000000246+0000001990+0000000009+I20000000000+0000001990+Z
103466001103466466-000200     103466006001023621665HULA-HOOP     ASSTD    0000001000+00001753+00000+0001T   00001753+0000001641          1400 H18785               1CZ
103467000103467               103467               170213OD     1400+00000+OD0000003506+0000003506+000000000+000000492+0000003990+0000000008+I20000000000+0000003990+Z
103467001103467088-000108     103467006001023765536POTPOURRI-OIL 10ml ASST0000002000+00001753+00000+0001T   00001753+0000001644          1400 H18212               1CZ
103468000103468               103468               170213OD     1400+00000+OD0000007048+0000007048+000000000+000000989+0000008030+0000000007+I20000000000+0000008030+Z
103468001103468203-008282     103468006003000597703WINE GLS PL 2PC CHAMP. 0000001000+00001753+00000+0001T   00002630+0008171645          1400 H18300               1CZ
103468002103468366-000292     103468006001023828958HEADBAND COL-FEATHERS  0000001000+00002630+00000+0001T   00002630+0000001645          1400 H18131               1CZ
103468003103468079-013032-D   103468006003000389643RIBBONS                0000001000+00002630+00000+0001T   00002630+0000001645          1400 H18130               1CZ
103468004103468112-116038     103468006009681820246TCS CARRIER BAG MIDI   0000001000+00000035+00000+0001T   00000035+0000001645          1400 H18090               1CZ
103469000103469               103469               170213OD     1400+00000+OD0000008328+0000008328+000000000+000001166+0000009494+0000000000+I40000009494+0000000000+Z
103469001103469301-085004     103469006003000420469ORN LOVE PLAQUE 21X10CM0000001000+00003507+00000+0001T   00003946+0006471647          1400 H18505               1CZ
103469002103469031-000002-A   103469006003000247103P/FRAME LOVE 7.5X7.5CM 0000001000+00003507+00000+0001T   00003507+0000001647          1400 H18510               1CZ
103469003103469077-000310     103469006001023608635GIFT-BAG 18X23CM GLOSS 0000001000+00001314+00000+0001T   00001314+0000001647          1400 H18112               1CZ
103470000103470               103470               170213OD     1400+00000+OD0000000876+0000000876+000000000+000000123+0000000990+0000000009+I20000000000+0000000990+Z
103470001103470077-000314     103470006003000181148GIFT-BAG 11X14CM MATT  0000001000+00000876+00000+0001T   00000876+0000001647          1400 H18112               1CZ
103471000103471               103471               170213OD     1400+00000+OD0000023726+0000023726+000000000+000003324+0000027050+0000000000+I40000027050+0000000000+Z
103471001103471072-020242     103471006003000053728PET BED COTTON TEXTILE 0000002000+00008771+00000+0001T   00008771+0000001649          1400 H18870               1CZ
103471002103471072-000228     103471006003000235940DOG-COL REFLCTV 25-40cm0000002000+00001753+00000+0001T   00001753+0000001649          1400 H18870               1CZ
103471003103471306-000001     103471006003000450152NAIL BRUSH SET 7/9/14cm0000001000+00002630+00000+0001T   00002630+0000001649          1400 H18200               1CZ
103471004103471112-116069     103471006009681820277TCS CARRIER BAG JUMBO  0000001000+00000048+00000+0001T   00000048+0000001649          1400 H18090               1CZ
103472000103472               103472               170213OD     1400+00000+OD0000006927+0000006927+000000000+000000971+0000007890+0000000008+I20000000000+0000007890+Z
103472001103472077-000010-C   103472006001023123879CREPE-PAPER RED        0000001000+00000788+00000+0001T   00000788+0000001650          1400 H18112               1CZ
103472002103472039-000798     103472006001023617774CANDLES TEALITE BOX-50 0000001000+00006139+00000+0001T   00006139+0000001650          1400 H18510               1CZ
103473000103473               103473               170213OD     1400+00000+OD0000000964+0000000964+000000000+000000135+0000001090+0000000009+I20000000000+0000001090+Z
103473001103473903-000843     103473008693029031067SWT GUMMY JELAXY 80G   0000001000+00000964+00000+0001T   00000964+0000001652          1400 H18150               1CZ
103474000103474               103474               170213OD     1400+00000+OD0000003329+0000003329+000000000+000000467+0000003790+0000000006+I20000000000+0000003790+Z
103474001103474306-000023     103474006001023606976COTTON-WOOL-BALLS 50PCE0000001000+00000876+00000+0001T   00000876+0000001653          1400 H18200               1CZ
103474002103474072-020216     103474006001023775900PET CHEWS BARBI-ROLLS  0000001000+00001753+00000+0001T   00001753+0000001653          1400 H18870               1CZ
103474003103474018-000177     103474006001023797513MUG MINI LOVE ASSTD    0000001000+00000700+00000+0001T   00000700+0000001653          1400 H18515               1CZ
103475000103475               103475               170213OD     1400+00000+OD0000014907+0000014907+000000000+000002089+0000016996+0000000000+I40000016996+0000000000+Z
103475001103475586-011940     103475006001492119403WATCH KIDS CAR         0000001000+00006139+00000+0001T   00006139+0000001656          1400 H18160               1CZ
103475002103475567-010598     103475009781842058527BOOK DICTIONERY GG AFR 0000001000+00007016+00000+0001T   00007016+0000001656          1400 H18757               1CZ
103475003103475903-000520     103475006001704009898SWT GUMMY MINI SOUR 60g0000001000+00000876+00000+0001T   00000876+0000001656          1400 H18150               1CZ
103475004103475903-000503     103475006001704006118SWT VAMPIRE FANGS 60G  0000001000+00000876+00000+0001T   00000876+0000001656          1400 H18150               1CZ
103476000103476               103476               170213OD     1400+00000+OD0000011401+0000011401+000000000+000001597+0000012998+0000000000+I40000012998+0000000000+Z
103476001103476001-091415     103476006003000329113W/GLS OCC. LOVE 2PC 2800000001000+00008771+00000+0001T   00009648+0006471658          1400 H18515               1CZ
103476002103476077-000270     103476006003000395453GIFT-BAG PPR JMB 33X45 0000001000+00002630+00000+0001T   00002630+0000001658          1400 H18112               1CZ
103477000103477               103477               170213OD     1400+00000+OD0000021269+0000021269+000000000+000002979+0000024248+0000000000+I40000024248+0000000000+Z
103477001103477004-071267     103477006001023907875LCD CLEANING KIT+CLOTH 0000001000+00003507+00000+0001T   00003507+0000001704          1400 H18310               1CZ
103477002103477039-000108     103477006001023524034TEA-LITE CANDLES 8PCE  0000001000+00001490+00000+0001T   00001490+0000001704          1400 H18510               1CZ
103477003103477039-000796     103477006001023617750CANDLES TEALITE BOX-8  0000001000+00004385+00000+0001T   00004385+0000001704          1400 H18510               1CZ
103477004103477112-116069     103477006009681820277TCS CARRIER BAG JUMBO  0000001000+00000048+00000+0001T   00000048+0000001704          1400 H18090               1CZ
103477005103477301-000110     103477006003000456185ORN POLY ANGEL W/BALL  0000001000+00005262+00000+0001T   00005262+0000001704          1400 H18505               1CZ
103477006103477031-000001-A   103477006003000246908P/FRAME GLS LOVE 9X13cm0000001000+00004385+00000+0001T   00004385+0000001704          1400 H18510               1CZ
103477007103477080-000127     103477006003000424351VALENTINES DAY 36x24CM 0000001000+00002192+00000+0001T   00002192+0000001704          1400 H18112               1CZ
103478000103478               103478               170213OD     1400+00000+OD0000003977+0000003977+000000000+000000559+0000004530+0000000006+I20000000000+0000004530+Z
103478001103478080-000123     103478006003000237722CARD&ENVELOPE-SYMPATHY 0000001000+00001753+00000+0001T   00001753+0000001705          1400 H18112               1CZ
103478002103478077-000321     103478006001023677501GIFT-BAG 11X14CM E/D FL0000001000+00000613+00000+0001T   00000613+0000001705          1400 H18112               1CZ
103478003103478903-000119     103478006001704007337SWT COCONUT-WHEEL      0000002000+00000788+00000+0001T   00000788+0000001705          1400 H18150               1CZ
103478004103478112-116038     103478006009681820246TCS CARRIER BAG MIDI   0000001000+00000035+00000+0001T   00000035+0000001705          1400 H18090               1CZ
103479000103479               103479               170213OD     1400+00000+OD0000003507+0000003507+000000000+000000491+0000003990+0000000008+I20000000000+0000003990+Z
103479001103479018-005009     103479006001023725608MUG W/PLUSH-BEAR LOVE  0000001000+00003507+00000+0001T   00003507+0000001721          1400 H18515               1CZ
103480000103480               103480               170213OD     1400+00000+OD0000038594+0000038594+000000000+000005404+0000043998+0000000000+I40000043998+0000000000+Z
103480001103480072-020243     103480006003000519583PET MAT QUILTED 80x58cm0000002000+00019297+00000+0001T   00019297+0000001724          1400 H18870               1CZ
103481000103481               103481               170213OD     1400+00000+OD0000001314+0000001314+000000000+000000184+0000001498+0000000000+I40000001498+0000000000+Z
103481001103481362-000307     103481006003000519750HAIR HEADBAND PRINTED  0000001000+00001314+00000+0001T   00001314+0000001725          1400 H18160               1CZ
103482000103482               103482               170213OD     1400+00000+OD0000008009+0000008009+000000000+000001124+0000009133+0000000000+I40000009133+0000000000+Z
103482001103482206-000530     103482006003000620821BIRTHDAY CANDLES 6PC   0000001000+00001139+00000+0001T   00001753+0008181727          1400 H18321               1CZ
103482002103482006-000167-C   103482006003000516971BALLOONS PINK METALLIC 0000001000+00001314+00000+0001T   00001314+0000001727          1400 H18131               1CZ
103482003103482903-000843     103482008693029031067SWT GUMMY JELAXY 80G   0000001000+00000964+00000+0001T   00000964+0000001727          1400 H18150               1CZ
103482004103482080-000133-A   103482006003000647019MINI VALENTINES CARD   0000001000+00000437+00000+0001T   00000437+0000001727          1400 H18112               1CZ
103482005103482903-000613     103482006003000617173SWT LIPS DUMMY 10G     0000001000+00001490+00000+0001T   00001490+0000001727          1400 H18150               1CZ
103482006103482104-000074     103482006003000684076BASKET PL 20x20x13cm   0000001000+00002630+00000+0001T   00002630+0000001727          1400 H18210               1CZ
103482007103482112-116038     103482006009681820246TCS CARRIER BAG MIDI   0000001000+00000035+00000+0001T   00000035+0000001727          1400 H18090               1CZ
103483000103483               103483               170213OD     1400+00000+OD0000004385+0000004385+000000000+000000614+0000004990+0000000009+I20000000000+0000004990+Z
103483001103483162-097714     103483006001492977140#TAG KIDS 3PK STUD     0000001000+00004385+00000+0001T   00004385+0000001728          1400 H18160               1CZ
103484000103484               103484               170213OD     1400+00000+OD0000001490+0000001490+000000000+000000209+0000001690+0000000009+I20000000000+0000001690+Z
103484001103484077-000304     103484006001023483232GIFT-BAG 25X32CM E/DAY 0000001000+00001490+00000+0001T   00001490+0000001728          1400 H18112               1CZ
103485000103485               103485               170213OD     1400+00000+OD0000010084+0000010084+000000000+000001413+0000011497+0000000000+I40000011497+0000000000+Z
103485001103485071-001362     103485006003000589258HIGHLIGHTER 4 PACK     0000001000+00002630+00000+0001T   00002630+0000001730          1400 H18130               1CZ
103485002103485566-000068     103485006003000418046POP UP LOVE 2 ASSTD    0000001000+00002192+00000+0001T   00002192+0000001730          1400 H18130               1CZ
103485003103485007-000614     103485006001023768667DIARY W/LOCK+PEN LOVE  0000001000+00005262+00000+0001T   00005262+0000001730          1400 H18130               1CZ
103486000103486               103486               170213OD     1400+00000+OD0000002892+0000002892+000000000+000000405+0000003290+0000000007+I20000000000+0000003290+Z
103486001103486564-001029     103486006001023690821BUBBLE WEDDING DOVES   0000001000+00000700+00000+0001T   00000700+0000001732          1400 H18131               1CZ
103486002103486007-000217     103486006003000639656SELF STICK NOTE BOOK   0000001000+00002192+00000+0001T   00002192+0000001732          1400 H18130               1CZ
103487000103487               103487               170213OD     1400+00000+OD0000001576+0000001576+000000000+000000222+0000001790+0000000008+I20000000000+0000001790+Z
103487001103487077-000010-C   103487006001023123879CREPE-PAPER RED        0000002000+00000788+00000+0001T   00000788+0000001732          1400 H18112               1CZ
A17021300                                          10532801ODSLAVE 1                       H182IC
M17021391                              CASH        ODSLAVE 1                       Z-REPORT No.   657TOTAL (Sales - Refunds)           5276.30       CASH TO BE BANKED                 1384.10       DEBIT CARDS                          0.00       CREDIT CARDS                      3892.20       Z-READING                         5276.30       AIRTIME DEBIT CARD SALES             0.00       AIRTIME CARD SALES                   0.00       OVERS/UNDERS                         0.00       AIRTIME CASH SALES                   0.00       GIFT CARDS                           0.00       GIFT CARD CASH SALES                 0.00       T O T A L  CASH PAYOUTS              0.00                                                                                                                                                                                                                                                                                                                                                      Z
M17021392                              CASH        ODABSENT                                                                                                                                                                                          ANNUAL LEAVE                                                                                                                                                                                    DAY OFF                                                                                                                                                                                         COMMENTS                                                                                                                                                                                                                                                                                                                                                                                       Z
Y17021300                                          OD00000000464474+000049
ZOD17021320113 SLAVE 1      SALES DATA                     NEXT INVOICE NO.  103488 0657
X OD Slave 1 First invoice 103439 170213 Last invoice 103487 170213 Next invoice 103488 Total number of records 000000199 clbackup completed 20:11:51
