112499000112499               112499               170213OD     1400+00000+OD0000004385+0000004385+000000000+000000614+0000004990+0000000009+I20000000000+0000004990+Z
112499001112499024-000168-C   112499006003000675036T/PLATE MUFFIN PAN 12  0000001000+00004385+00000+0001T   00004385+0000000911          1400 JY1300               2AZ
112500000112500               112500               170213OD     1400+00000+OD0000008765+0000008765+000000000+000001230+0000009990+0000000005+I20000000000+0000009990+Z
112500001112500077-000116     112500006003000240777GIFT-WRAP 700mmx2m COL 0000005000+00001753+00000+0001T   00001753+0000000928          1400 JY1112               2AZ
112501000112501               112501               170213OD     1400+00000+OD0000004680+0000004680+000000000+000000657+0000005330+0000000007+I20000000000+0000005330+Z
112501001112501159-000043-H   112501006001023416629HOOKS ADHESIVE 3PCE SQR0000001000+00001139+00000+0001T   00001139+0000000929          1400 JY1200               2AZ
112501002112501150-004032-H   112501006003000645367BASIN-PLUG 2PCE BLACK  0000001000+00000876+00000+0001T   00000876+0000000929          1400 JY1810               2AZ
112501003112501251-000057     112501006003000451654LABELS SKID-PROTECTORS 0000001000+00002630+00000+0001T   00002630+0000000929          1400 JY1810               2AZ
112501004112501112-116038     112501006003000534906TCS CARRIER BAG MIDI   0000001000+00000035+00000+0001T   00000035+0000000929          1400 JY1090               2AZ
112502000112502               112502               170213OD     1400+00000+OD0000003506+0000003506+000000000+000000492+0000003990+0000000008+I20000000000+0000003990+Z
112502001112502365-008629     112502006001023494009PLAY C/PHONE B/O MUSIC 0000001000+00002630+00000+0001T   00002630+0000000930          1400 JY1725               2AZ
112502002112502903-003080     112502005907029004673SWT SNACK STIX CHOC 50g0000001000+00000876+00000+0001T   00000876+0000000930          1400 JY1150               2AZ
112503000112503               112503               170213OD     1400+00000+OD0000000876+0000000876+000000000+000000123+0000000990+0000000009+I20000000000+0000000990+Z
112503001112503033-001364     112503006001023802088HAIR-CLIPS 65mm 24PCE  0000001000+00000876+00000+0001T   00000876+0000000935          1400 JY1200               2AZ
112504000112504               112504               170213OD     1400+00000+OD0000006139+0000006139+000000000+000000860+0000006999+0000000000+I40000006999+0000000000+Z
112504001112504486-001016     112504006001023847416W/CLOCK QTZ PL RND 25CM0000001000+00008771+00000+0001T   00008771+0000000939          1400 JY1510               2AZ
112504002112504486-000010     112504006001023544254WALL-CLOCK ROUND 25cm  0000001000+00006139+00000+0001T   00006139+0000000939          1400 JY1510               2AZ
112504003112504486-001016     112504006001023847416W/CLOCK QTZ PL RND 25CM0000001000-00008771+00000+0001T   00008771+0000000939          1400 JY15101IC            2 Z
112505000112505               112505               170213OD     1400+00000+OD0000004384+0000004384+000000000+000000614+0000004990+0000000008+I20000000000+0000004990+Z
112505001112505079-013032-G   112505006003000496389FOAM BUTTERFLIES       0000001000+00002192+00000+0001T   00002192+0000000940          1400 JY1130               2AZ
112505002112505566-000352     112505006001023809261STICKERS LASER ASSTD   0000001000+00002192+00000+0001T   00002192+0000000940          1400 JY1130               2AZ
112506000112506               112506               170213OD     1400+00000+OD0000002630+0000002630+000000000+000000369+0000002990+0000000009+I20000000000+0000002990+Z
112506001112506031-005919     112506006003000580576P/FRAME PL PLAIN 13X18 0000001000+00002630+00000+0001T   00002630+0000000946          1400 JY1510               2AZ
112507000112507               112507               170213OD     1400+00000+OD0000016178+0000016178+000000000+000002269+0000018447+0000000000+I40000018447+0000000000+Z
112507001112507206-000610     112507006003000631674BOMB SHOTS PL 10PC     0000001000+00003507+00000+0001T   00003507+0000000957          1400 JY1321               2AZ
112507002112507112-116069     112507006009681820277TCS CARRIER BAG JUMBO  0000001000+00000048+00000+0001T   00000048+0000000957          1400 JY1090               2AZ
112507003112507251-000050     112507006001023627957PROTECT-PADS RUBBER 9PC0000002000+00001490+00000+0001T   00001490+0000000957          1400 JY1810               2AZ
112507004112507566-000344     112507006001023994806STICKER ALBUM+STICKERS 0000001000+00001753+00000+0001T   00001753+0000000957          1400 JY1130               2AZ
112507005112507159-000800     112507006001023167972BATHMAT ANTI-SLIP      0000003000+00002630+00000+0001T   00002630+0000000957          1400 JY1200               2AZ
112508000112508               112508               170213OD     1400+00000+OD0000001227+0000001227+000000000+000000172+0000001390+0000000009+I20000000000+0000001390+Z
112508001112508266-001302     112508006001023331892MARBLES 16MM 45PC      0000001000+00001227+00000+0001T   00001227+0000001004          1400 JY1710               2AZ
112509000112509               112509               170213OD     1400+00000+OD0000002192+0000002192+000000000+000000307+0000002490+0000000009+I20000000000+0000002490+Z
112509001112509073-000158     112509006003000683352COSMETIC BAG 18x10x3   0000001000+00002192+00000+0001T   00002192+0000001013          1400 JY1200               2AZ
112510000112510               112510               170213OD     1400+00000+OD0000004986+0000004986+000000000+000000702+0000005680+0000000008+I20000000000+0000005680+Z
112510001112510006-000173-B   112510006003000636358BALLOONS HELIUM 1PC WHT0000006000+00000218+00000+0001T   00000218+0000001029          1400 JY1131               2AZ
112510002112510006-001000     112510006003000093779HELIUM BALLOON FILL    0000006000+00000613+00000+0001T   00000613+0000001029          1400 JY1131               2AZ
112511000112511               112511               170213OD     1400+00000+OD0000002630+0000002630+000000000+000000369+0000002990+0000000009+I20000000000+0000002990+Z
112511001112511027-008813     112511006001023552334DUSTER RETRCTABLE 122cm0000001000+00002630+00000+0001T   00002630+0000001047          1400 JY1212               2AZ
112512000112512               112512               170213OD     1400+00000+OD0000008770+0000008770+000000000+000001228+0000009998+0000000000+I40000009998+0000000000+Z
112512001112512079-001001     112512006003000448593CANVAS A3 WOOD MOUNTED 0000002000+00004385+00000+0001T   00004385+0000001100          1400 JY1130               2AZ
112513000112513               112513               170213OD     1400+00000+OD0000019423+0000019423+000000000+000002725+0000022148+0000000000+I40000022148+0000000000+Z
112513001112513051-600630     112513006001023868374PLANTER W/TRAY PL RECT 0000003000+00003244+00000+0001T   00003244+0000001103          1400 JY1820               2AZ
112513002112513051-600655     112513006003000422067PLANTER W/TRAY 20x20x160000003000+00002630+00000+0001T   00002630+0000001103          1400 JY1820               2AZ
112513003112513051-600622     112513006001023868343PLANTER HANGING        0000001000+00001753+00000+0001T   00002630+0008191103          1400 JY1820               2AZ
112513004112513112-116069     112513006009681820277TCS CARRIER BAG JUMBO  0000001000+00000048+00000+0001T   00000048+0000001103          1400 JY1090               2AZ
112514000112514               112514               170213OD     1400+00000+OD0000003201+0000003201+000000000+000000449+0000003650+0000000000+I20000000000+0000003650+Z
112514001112514107-002117     112514006002580008890BASIN PL 32cm(VIRGIN)4L0000001000+00001753+00000+0001T   00001753+0000001106          1400 JY1210               2AZ
112514002112514903-000126     112514006002099003591SWT ZILLIONS MINT 50G  0000002000+00000700+00000+0001T   00000700+0000001106          1400 JY1150               2AZ
112514003112514112-116069     112514006009681820277TCS CARRIER BAG JUMBO  0000001000+00000048+00000+0001T   00000048+0000001106          1400 JY1090               2AZ
112515000112515               112515               170213OD     1400+00000+OD0000008064+0000008064+000000000+000001131+0000009190+0000000005+I20000000000+0000009190+Z
112515001112515024-000083     112515006001023770943SIEVE FLOUR 20cm MTL-RI0000001000+00001753+00000+0001T   00001753+0000001107          1400 JY1300               2AZ
112515002112515033-001401     112515006009654960481HAIR-CURLERS 8PCE MED  0000001000+00001227+00000+0001T   00001227+0000001107          1400 JY1200               2AZ
112515003112515033-001400     112515006009654960474HAIR-CURLERS 10PCE SML 0000002000+00001227+00000+0001T   00001227+0000001107          1400 JY1200               2AZ
112515004112515159-000111     112515006003000629961SHOWER CAP PVC LINED   0000001000+00002630+00000+0001T   00002630+0000001107          1400 JY1200               2AZ
112516000112516               112516               170213OD     1400+00000+OD0000005260+0000005260+000000000+000000737+0000005990+0000000007+I20000000000+0000005990+Z
112516001112516133-000010-A   112516006001023997647CLEANING CLOTH ROLL 30 0000001000+00003507+00000+0001T   00003507+0000001110          1400 JY1212               2AZ
112516002112516133-000013     112516006001023760081DUSTING-CLOTH GLASS    0000001000+00001753+00000+0001T   00001753+0000001110          1400 JY1212               2AZ
112517000112517               112517               170213OD     1400+00000+OD0000001227+0000001227+000000000+000000172+0000001390+0000000009+I20000000000+0000001390+Z
112517001112517007-000160     112517006009685857286NOTE-BOOK A5 SHORTHAND 0000001000+00001227+00000+0001T   00001227+0000001154          1400 JY1130               2AZ
112518000112518               112518               170213OD     1400+00000+OD0000004120+0000004120+000000000+000000578+0000004698+0000000000+I40000004698+0000000000+Z
112518001112518079-008998     112518006003000339686ART+CRAFT  CANVAS      0000001000+00002630+00000+0001T   00002630+0000001211          1400 JY1130               2AZ
112518002112518077-000384     112518006003000275243G/BAG HOT STMP 18x23CM 0000001000+00001490+00000+0001T   00001490+0000001211          1400 JY1112               2AZ
112519000112519               112519               170213OD     1400+00000+OD0000011168+0000011168+000000000+000001565+0000012733+0000000000+I40000012733+0000000000+Z
112519001112519159-000887     112519006001023730817HOOKS PL SUCTION 9PCE  0000001000+00002192+00000+0001T   00002192+0000001215          1400 JY1200               2AZ
112519002112519203-007000     112519006001023886040SHOT-GLASS DISPOSABLE  0000001000+00003507+00000+0001T   00003507+0000001215          1400 JY1300               2AZ
112519003112519078-000030     112519006003000151141YAMAYO SUPERGLUE 8g    0000001000+00001753+00000+0001T   00001753+0000001215          1400 JY1810               2AZ
112519004112519007-000160     112519006009685857286NOTE-BOOK A5 SHORTHAND 0000003000+00001227+00000+0001T   00001227+0000001215          1400 JY1130               2AZ
112519005112519112-116038     112519006003000534906TCS CARRIER BAG MIDI   0000001000+00000035+00000+0001T   00000035+0000001215          1400 JY1090               2AZ
112520000112520               112520               170213OD     1400+00000+OD0000004412+0000004412+000000000+000000621+0000005030+0000000003+I20000000000+0000005030+Z
112520001112520903-000200     112520006009826020234SWT CHOC RP CHOCO 23G  0000002000+00000788+00000+0001T   00000788+0000001216          1400 JY1150               2AZ
112520002112520903-000155     112520006009803374435SWT LOLLY I LUV U HEART0000003000+00000525+00000+0001T   00000525+0000001216          1400 JY1150               2AZ
112520003112520304-001011     112520006001023806727FLWR ROSE RED W/BEAR   0000002000+00000613+00000+0001T   00000788+0006471216          1400 JY1510               2AZ
112520004112520112-116038     112520006009681820246TCS CARRIER BAG MIDI   0000001000+00000035+00000+0001T   00000035+0000001216          1400 JY1090               2AZ
112521000112521               112521               170213OD     1400+00000+OD0000005699+0000005699+000000000+000000798+0000006490+0000000007+I20000000000+0000006490+Z
112521001112521018-005009     112521006001023725608MUG W/PLUSH-BEAR LOVE  0000001000+00003507+00000+0001T   00003507+0000001222          1400 JY1515               2AZ
112521002112521077-000463     112521006003000321698G/BAG GLITTER MED20x28 0000001000+00002192+00000+0001T   00002192+0000001222          1400 JY1112               2AZ
112522000112522               112522               170213OD     1400+00000+OD0000003067+0000003067+000000000+000000430+0000003490+0000000007+I20000000000+0000003490+Z
112522001112522080-000116     112522006003000253555CARD&ENVELOPE-HANDMADE 0000001000+00001753+00000+0001T   00001753+0000001225          1400 JY1112               2AZ
112522002112522077-000310     112522006001023608635GIFT-BAG 18X23CM GLOSS 0000001000+00001314+00000+0001T   00001314+0000001225          1400 JY1112               2AZ
112523000112523               112523               170213OD     1400+00000+OD0000002934+0000002934+000000000+000000413+0000003340+0000000007+I20000000000+0000003340+Z
112523001112523077-000290     112523006001023902023GIFT BOX 26x32x13cm    0000001000+00001753+00000+0001T   00001753+0000001228          1400 JY1112               2AZ
112523002112523903-000200     112523006009826020234SWT CHOC RP CHOCO 23G  0000001000+00000788+00000+0001T   00000788+0000001228          1400 JY1150               2AZ
112523003112523903-000183     112523006003000451043SWT LB HEART LOLLY     0000001000+00000393+00000+0001T   00000393+0000001228          1400 JY1150               2AZ
112524000112524               112524               170213OD     1400+00000+OD0000008359+0000008359+000000000+000001173+0000009530+0000000002+I20000000000+0000009530+Z
112524001112524903-000194     112524006009826020616SWT CHOC RP LOLLY 25G  0000001000+00001314+00000+0001T   00001314+0000001229          1400 JY1150               2AZ
112524002112524077-000312     112524006001023608697GIFT-BAG 10X35CM GLOSS 0000001000+00001314+00000+0001T   00001314+0000001229          1400 JY1112               2AZ
112524003112524077-000408     112524006003000145218G/BAG PP 15X21X7CM     0000001000+00000876+00000+0001T   00000876+0000001229          1400 JY1112               2AZ
112524004112524077-000005-D   112524006003000414567PAPER TISSUE 50x70cm   0000001000+00001753+00000+0001T   00001753+0000001229          1400 JY1112               2AZ
112524005112524077-000251     112524006003000639106GIFT-DECOR RIBBON      0000001000+00002630+00000+0001T   00002630+0000001229          1400 JY1112               2AZ
112524006112524080-000133-A   112524006003000647019MINI VALENTINES CARD   0000001000+00000437+00000+0001T   00000437+0000001229          1400 JY1112               2AZ
112524007112524112-116038     112524006003000534906TCS CARRIER BAG MIDI   0000001000+00000035+00000+0001T   00000035+0000001229          1400 JY1090               2AZ
112525000112525               112525               170213OD     1400+00000+OD0000003542+0000003542+000000000+000000496+0000004030+0000000008+I20000000000+0000004030+Z
112525001112525071-005060     112525006003000152186CELLOTAPE 2PACK INVSBLE0000001000+00003507+00000+0001T   00003507+0000001229          1400 JY1130               2AZ
112525002112525112-116038     112525006003000534906TCS CARRIER BAG MIDI   0000001000+00000035+00000+0001T   00000035+0000001229          1400 JY1090               2AZ
112526000112526               112526               170213OD     1400+00000+OD0000010524+0000010524+000000000+000001474+0000011990+0000000008+I20000000000+0000011990+Z
112526001112526464-008106     112526006003000611966GAME 3 IN 1 CHESS      0000001000+00008771+00000+0001T   00008771+0000001234          1400 JY1785               2AZ
112526002112526077-000299-A   112526006003000670888GIFT-BAG PAPER JMB LOVE0000001000+00001753+00000+0001T   00001753+0000001234          1400 JY1112               2AZ
112527000112527               112527               170213OD     1400+00000+OD0000002629+0000002629+000000000+000000369+0000002990+0000000008+I20000000000+0000002990+Z
112527001112527077-000316     112527006001023609731GIFT-BAG 25X32CM MATT  0000001000+00001753+00000+0001T   00001753+0000001239          1400 JY1112               2AZ
112527002112527077-000011-D   112527006001023808554TISSUE-WRAP WHITE 10PCE0000001000+00000876+00000+0001T   00000876+0000001239          1400 JY1112               2AZ
112528000112528               112528               170213OD     1400+00000+OD0000022580+0000022580+000000000+000003166+0000025746+0000000000+I40000025746+0000000000+Z
112528001112528079-013032     112528006003000389209SET LETTERS 2 ASSTD    0000001000+00001753+00000+0001T   00001753+0000001242          1400 JY1130               2AZ
112528002112528079-006494     112528006003000159864GLITTER GLUE 5PCE 11cm 0000001000+00001490+00000+0001T   00001490+0000001242          1400 JY1130               2AZ
112528003112528033-010720     112528006001023678645SAFETY-PINS 50PCE SMALL0000001000+00000876+00000+0001T   00000876+0000001242          1400 JY1200               2AZ
112528004112528033-005931     112528006001023678447PINS ON-WHEEL PEARLIZED0000001000+00000876+00000+0001T   00000876+0000001242          1400 JY1200               2AZ
112528005112528366-002809     112528006003000222643DRESS UP MOUSTACHE SET 0000001000+00001753+00000+0001T   00001753+0000001242          1400 JY1131               2AZ
112528006112528112-116069     112528006009681820277TCS CARRIER BAG JUMBO  0000001000+00000048+00000+0001T   00000048+0000001242          1400 JY1090               2AZ
112528007112528261-003899     112528006003000398836GUN CROSSBOW SET 11PCE 0000002000+00006139+00000+0001T   00006139+0000001242          1400 JY1710               2AZ
112528008112528366-002694     112528006003000088997DRESS UP HAT COWBOY PL 0000002000+00001753+00000+0001T   00001753+0000001242          1400 JY1131               2AZ
112529000112529               112529               170213OD     1400+00000+OD0000009291+0000009291+000000000+000001303+0000010590+0000000004+I20000000000+0000010590+Z
112529001112529031-000873-A   112529006003000675425P/FRAME WDN WHITE 10X150000001000+00002630+00000+0001T   00002630+0000001248          1400 JY1510               2AZ
112529002112529018-005009     112529006001023725608MUG W/PLUSH-BEAR LOVE  0000001000+00003507+00000+0001T   00003507+0000001248          1400 JY1515               2AZ
112529003112529903-000200     112529006009826020234SWT CHOC RP CHOCO 23G  0000002000+00000788+00000+0001T   00000788+0000001248          1400 JY1150               2AZ
112529004112529077-000303     112529006001023593757GIFT-BAG PAPER MED     0000001000+00001578+00000+0001T   00001578+0000001248          1400 JY1112               2AZ
112530000112530               112530               170213OD     1400+00000+OD0000001753+0000001753+000000000+000000246+0000001990+0000000009+I20000000000+0000001990+Z
112530001112530077-000299-A   112530006003000670888GIFT-BAG PAPER JMB LOVE0000001000+00001753+00000+0001T   00001753+0000001255          1400 JY1112               2AZ
112531000112531               112531               170213OD     1400+00000+OD0000004381+0000004381+000000000+000000615+0000004990+0000000006+I20000000000+0000004990+Z
112531001112531077-000011-C   112531006001023808523TISSUE 10xSHTS RED     0000001000+00000876+00000+0001T   00000876+0000001312          1400 JY1112               2AZ
112531002112531103-000784     112531006003000676538BAMBOO BASKET OVAL     0000001000+00001753+00000+0001T   00001753+0000001312          1400 JY1300               2AZ
112531003112531077-000151     112531006008766114676GIFT-WRAP C/PHANE ASSTD0000002000+00000876+00000+0001T   00000876+0000001312          1400 JY1112               2AZ
112532000112532               112532               170213OD     1400+00000+OD0000005870+0000005870+000000000+000000824+0000006694+0000000000+I40000006694+0000000000+Z
112532001112532018-000177     112532006001023797513MUG MINI LOVE ASSTD    0000001000+00000700+00000+0001T   00000700+0000001315          1400 JY1515               2AZ
112532002112532077-000382     112532006003000247820GIFT-BAG MED 18X23CM   0000002000+00001753+00000+0001T   00001753+0000001315          1400 JY1112               2AZ
112532003112532077-000011-C   112532006001023808523TISSUE 10xSHTS RED     0000001000+00000876+00000+0001T   00000876+0000001315          1400 JY1112               2AZ
112532004112532903-000200     112532006009826020234SWT CHOC RP CHOCO 23G  0000001000+00000788+00000+0001T   00000788+0000001315          1400 JY1150               2AZ
112533000112533               112533               170213OD     1400+00000+OD0000005816+0000005816+000000000+000000818+0000006634+0000000000+I40000006634+0000000000+Z
112533001112533903-000892     112533008693029700420SWT NOVELTY CHOCO CREAM0000004000+00000788+00000+0001T   00000788+0000001322          1400 JY1150               2AZ
112533002112533362-001103     112533006001023793515JWLRY GRL ASS 2PC ASSTD0000001000+00001753+00000+0001T   00001753+0000001322          1400 JY1160               2AZ
112533003112533362-001105     112533006003000635917JEWELLERY BRACELETS    0000001000+00000876+00000+0001T   00000876+0000001322          1400 JY1160               2AZ
112533004112533112-116038     112533006003000534906TCS CARRIER BAG MIDI   0000001000+00000035+00000+0001T   00000035+0000001322          1400 JY1090               2AZ
112534000112534               112534               170213OD     1400+00000+OD0000021048+0000021048+000000000+000002949+0000023990+0000000007+I20000000000+0000023990+Z
112534001112534031-086219-C   112534006001023808905P/FRAME WDN A4 30X40CM 0000003000+00007016+00000+0001T   00007016+0000001323          1400 JY1510               2AZ
112535000112535               112535               170213OD     1400+00000+OD0000004208+0000004208+000000000+000000590+0000004790+0000000008+I20000000000+0000004790+Z
112535001112535072-020276     112535006001023858474CAT LITTER-PAN PL      0000001000+00002630+00000+0001T   00002630+0000001326          1400 JY1870               2AZ
112535002112535077-000303     112535006001023593757GIFT-BAG PAPER MED     0000001000+00001578+00000+0001T   00001578+0000001326          1400 JY1112               2AZ
112536000112536               112536               170213OD     1400+00000+OD0000003507+0000003507+000000000+000000491+0000003990+0000000008+I20000000000+0000003990+Z
112536001112536079-000269     112536006003000159963PAINT-BRUSHES SPONGETIP0000001000+00003507+00000+0001T   00003507+0000001326          1400 JY1130               2AZ
112537000112537               112537               170213OD     1400+00000+OD0000005610+0000005610+000000000+000000786+0000006390+0000000006+I20000000000+0000006390+Z
112537001112537304-001011     112537006001023806727FLWR ROSE RED W/BEAR   0000001000+00000613+00000+0001T   00000788+0006471328          1400 JY15101IC            2AZ
112537002112537077-000299     112537006003000395576G/BAG 32x25cm LRG LOVE 0000001000+00001490+00000+0001T   00001490+0000001328          1400 JY1112               2AZ
112537003112537018-000136     112537006001023659026MUG OCC LOVE W/PLUSH   0000001000+00003507+00000+0001T   00003507+0000001328          1400 JY1515               2AZ
112538000112538               112538               170213OD     1400+00000+OD0000010039+0000010039+000000000+000001406+0000011440+0000000005+I20000000000+0000011440+Z
112538001112538467-004013     112538006003000123353BEACH SPADE W/WDN 67cm 0000001000+00003507+00000+0001T   00003507+0000001330          1400 JY1785               2AZ
112538002112538018-000127     112538006001023380289MUG OCC STRAIGHT LOVE  0000002000+00001578+00000+0001T   00001753+0006471330          1400 JY1515               2AZ
112538003112538112-116069     112538006009681820277TCS CARRIER BAG JUMBO  0000001000+00000048+00000+0001T   00000048+0000001330          1400 JY1090               2AZ
112538004112538018-000177     112538006001023797513MUG MINI LOVE ASSTD    0000001000+00000700+00000+0001T   00000700+0000001330          1400 JY1515               2AZ
112538005112538077-000310     112538006001023608635GIFT-BAG 18X23CM GLOSS 0000002000+00001314+00000+0001T   00001314+0000001330          1400 JY1112               2AZ
112539000112539               112539               170213OD     1400+00000+OD0000003542+0000003542+000000000+000000496+0000004038+0000000000+I40000004038+0000000000+Z
112539001112539365-005267     112539006001023584366P/SET KITCHEN BAKING PL0000001000+00003507+00000+0001T   00003507+0000001338          1400 JY1725               2AZ
112539002112539112-116038     112539006003000534906TCS CARRIER BAG MIDI   0000001000+00000035+00000+0001T   00000035+0000001338          1400 JY1090               2AZ
112540000112540               112540               170213OD     1400+00000+OD0000010555+0000010555+000000000+000001480+0000012035+0000000000+I40000012035+0000000000+Z
112540001112540071-000306     112540006001023715371STENCILS ART FUN SET   0000001000+00003507+00000+0001T   00003507+0000001345          1400 JY1130               2AZ
112540002112540566-000004     112540006003000062270STICKER BOOK ABC/BORDER0000001000+00002630+00000+0001T   00002630+0000001345          1400 JY1130               2AZ
112540003112540071-005678     112540006001023496294PUNCH 2 HOLE           0000001000+00002630+00000+0001T   00002630+0000001345          1400 JY1130               2AZ
112540004112540007-000184     112540006003000135424NOTEBOOK               0000001000+00001753+00000+0001T   00001753+0000001345          1400 JY1130               2AZ
112540005112540112-116038     112540006003000534906TCS CARRIER BAG MIDI   0000001000+00000035+00000+0001T   00000035+0000001345          1400 JY1090               2AZ
112541000112541               112541               170213OD     1400+00000+OD0000006574+0000006574+000000000+000000921+0000007490+0000000005+I20000000000+0000007490+Z
112541001112541080-000113     112541006003000237449CARD&ENVLPE - LOVE     0000001000+00001753+00000+0001T   00001753+0000001347          1400 JY1112               2AZ
112541002112541567-011429     112541009780799352603BK READER BEGIN LEES   0000001000+00003507+00000+0001T   00004823+0008141347          1400 JY1757               2AZ
112541003112541565-000892-A   112541006003000690725NOVELTY FUN BALL       0000001000+00001314+00000+0001T   00001753+0008141347          1400 JY1745               2AZ
112542000112542               112542               170213OD     1400+00000+OD0000005119+0000005119+000000000+000000718+0000005830+0000000007+I20000000000+0000005830+Z
112542001112542078-000026     112542006936198407090SUPERGLUE 3,0g GEL     0000002000+00001753+00000+0001T   00001753+0000001348          1400 JY1810               2AZ
112542002112542018-000127     112542006001023380289MUG OCC STRAIGHT LOVE  0000001000+00001578+00000+0001T   00001753+0006471348          1400 JY1515               2AZ
112542003112542112-116038     112542006003000534906TCS CARRIER BAG MIDI   0000001000+00000035+00000+0001T   00000035+0000001348          1400 JY1090               2AZ
112543000112543               112543               170213OD     1400+00000+OD0000018586+0000018586+000000000+000002606+0000021190+0000000002+I20000000000+0000021190+Z
112543001112543077-000381     112543006003000247707GIFT-BAG 25X32CM S/COL 0000001000+00001753+00000+0001T   00001753+0000001352          1400 JY1112               2AZ
112543002112543077-000357     112543006003000139354GIFT-BAG 18X23CM B/DAY 0000001000+00001753+00000+0001T   00001753+0000001352          1400 JY1112               2AZ
112543003112543024-000065     112543006001023770424SPATULA SILICONE 25CM  0000001000+00003946+00000+0001T   00003946+0000001352          1400 JY1300               2AZ
112543004112543027-000917     112543006001023367433DUSTPAN-SET MINI 21x16 0000001000+00001753+00000+0001T   00001753+0000001352          1400 JY1212               2AZ
112543005112543024-000092     112543006003000426805MEASURING-SET 6PC      0000001000+00003946+00000+0001T   00003946+0000001352          1400 JY1300               2AZ
112543006112543267-000310     112543006003000163090PUZZLE WOOD TRAY ASSTD 0000001000+00001753+00000+0001T   00001753+0000001352          1400 JY1755               2AZ
112543007112543024-000100     112543006003000173310CAKE TESTER            0000001000+00001490+00000+0001T   00001490+0000001352          1400 JY1300               2AZ
112543008112543006-000789     112543006001023148612CROWN BOY              0000001000+00002192+00000+0001T   00002192+0000001352          1400 JY1131               2AZ
112544000112544               112544               170213OD     1400+00000+OD0000007892+0000007892+000000000+000001106+0000008990+0000000008+I20000000000+0000008990+Z
112544001112544490-044669     112544000078257446698INTEX BOB BAG 3-D      0000001000+00005262+00000+0001T   00005262+0000001352          1400 JY1787               2AZ
112544002112544079-000123     112544006003000589746ART+CRAFT ENGRAVING ART0000001000+00002630+00000+0001T   00002630+0000001352          1400 JY1130               2AZ
112545000112545               112545               170213OD     1400+00000+OD0000026964+0000026964+000000000+000003777+0000030741+0000000000+I40000030741+0000000000+Z
112545001112545369-004006     112545006001023826664BABY PLAY-GYM          0000001000+00017542+00000+0001T   00017542+0000001359          1400 JY1745               2AZ
112545002112545903-000194     112545006009826020616SWT CHOC RP LOLLY 25G  0000002000+00001314+00000+0001T   00001314+0000001359          1400 JY1150               2AZ
112545003112545304-001204     112545006001023737984FLOWER OCC. TEDDY/ROSES0000002000+00001402+00000+0001T   00001490+0006471359          1400 JY1510               2AZ
112545004112545903-000194     112545006009826020616SWT CHOC RP LOLLY 25G  0000003000+00001314+00000+0001T   00001314+0000001359          1400 JY1150               2AZ
112545005112545112-116069     112545006009681820277TCS CARRIER BAG JUMBO  0000001000+00000048+00000+0001T   00000048+0000001359          1400 JY1090               2AZ
112546000112546               112546               170213OD     1400+00000+OD0000002225+0000002225+000000000+000000312+0000002537+0000000000+I40000002537+0000000000+Z
112546001112546903-000843     112546008693029031067SWT GUMMY JELAXY 80G   0000001000+00000964+00000+0001T   00000964+0000001402          1400 JY1150               2AZ
112546002112546007-000555     112546006001023848239MEMO-PAD MINI LOVE     0000001000+00000613+00000+0001T   00000613+0000001402          1400 JY1130               2AZ
112546003112546304-001011     112546006001023806727FLWR ROSE RED W/BEAR   0000001000+00000613+00000+0001T   00000788+0006471402          1400 JY1510               2AZ
112546004112546112-116038     112546006003000534906TCS CARRIER BAG MIDI   0000001000+00000035+00000+0001T   00000035+0000001402          1400 JY1090               2AZ
112547000112547               112547               170213OD     1400+00000+OD0000005258+0000005258+000000000+000000737+0000005990+0000000005+I20000000000+0000005990+Z
112547001112547566-000991     112547000721129013121STICKERS GLOW-IN-DARK  0000001000+00002192+00000+0001T   00002192+0000001403          1400 JY1130               2AZ
112547002112547566-000200     112547006003000384174STICKER PUFFY NEON     0000001000+00000876+00000+0001T   00000876+0000001403          1400 JY1130               2AZ
112547003112547566-000992     112547006001023600639STICKERS GLOW-IN-DARK  0000001000+00001314+00000+0001T   00001314+0000001403          1400 JY1130               2AZ
112547004112547089-000192-A   112547006001023901774KEY-CHAIN ACRYLIC      0000001000+00000876+00000+0001T   00000876+0000001403          1400 JY1205               2AZ
112548000112548               112548               170213OD     1400+00000+OD0000007750+0000007750+000000000+000001086+0000008830+0000000006+I20000000000+0000008830+Z
112548001112548079-014153     112548006003000253166ART+CRAFT DRAGON PK6   0000001000+00002630+00000+0001T   00002630+0000001406          1400 JY1130               2AZ
112548002112548079-013032-C   112548006003000389520POLY SHAPES            0000001000+00001578+00000+0001T   00001578+0000001406          1400 JY1130               2AZ
112548003112548079-014101     112548006001023908612ART+CRAFT SCOUBIDOUx50 0000001000+00003507+00000+0001T   00003507+0000001406          1400 JY1130               2AZ
112548004112548112-116038     112548006003000534906TCS CARRIER BAG MIDI   0000001000+00000035+00000+0001T   00000035+0000001406          1400 JY1090               2AZ
112549000112549               112549               170213OD     1400+00000+OD0000024241+0000024241+000000000+000003399+0000027640+0000000000+I40000027640+0000000000+Z
112549001112549903-000183     112549006003000451043SWT LB HEART LOLLY     0000001000+00000393+00000+0001T   00000393+0000001409          1400 JY1150               2AZ
112549002112549903-000200     112549006009826020234SWT CHOC RP CHOCO 23G  0000001000+00000788+00000+0001T   00000788+0000001409          1400 JY1150               2AZ
112549003112549301-085001     112549006003000297610ORN WATERBALL LOVE ASST0000001000+00004823+00000+0001T   00004823+0000001409          1400 JY1505               2AZ
112549004112549018-000177     112549006001023797513MUG MINI LOVE ASSTD    0000001000+00000700+00000+0001T   00000700+0000001409          1400 JY1515               2AZ
112549005112549082-011564     112549006001492115641#SUNGLASS POUCH AZTEC  0000002000+00002630+00000+0001T   00002630+0000001409          1400 JY1160               2AZ
112549006112549051-043090     112549006001023881823SHEARS PRUNING 200mm   0000001000+00005262+00000+0001T   00005262+0000001409          1400 JY1820               2AZ
112549007112549082-026205     112549006001023816528R/GLASSES STRINGS 2PCE 0000001000+00002630+00000+0001T   00002630+0000001409          1400 JY1160               2AZ
112549008112549072-020297     112549006001023700919PET CAT SCRATCH PAD    0000001000+00004385+00000+0001T   00004385+0000001409          1400 JY1870               2AZ
112550000112550               112550               170213OD     1400+00000+OD0000025918+0000025918+000000000+000003632+0000029550+0000000000+I40000029550+0000000000+Z
112550001112550002-000717     112550006001023775184CHOPPING-MATS FLEX 2PCE0000001000+00002630+00000+0001T   00002630+0000001413          1400 JY1300               2AZ
112550002112550368-000111     112550006001023780812PLUSH BEAR/DOG 29CM    0000001000+00012279+00000+0001T   00012279+0000001413          1400 JY1745               2AZ
112550003112550301-085008     112550006003000673933ORN OCC.LOVE TINSEL HRT0000001000+00003069+00000+0001T   00003069+0000001413          1400 JY1505               2AZ
112550004112550368-000108     112550006001023751461PLUSH ANIMAL BALL ASSTD0000001000+00005262+00000+0001T   00005262+0000001413          1400 JY1745               2AZ
112550005112550567-011916     112550009780799375510BK EDU WISKUNDE 8-9JAAR0000001000+00002630+00000+0001T   00002630+0000001413          1400 JY1757               2AZ
112550006112550112-116069     112550006009681820277TCS CARRIER BAG JUMBO  0000001000+00000048+00000+0001T   00000048+0000001413          1400 JY1090               2AZ
112551000112551               112551               170213OD     1400+00000+OD0000003594+0000003594+000000000+000000504+0000004090+0000000008+I20000000000+0000004090+Z
112551001112551089-000220     112551006003000677368KEY CHAIN+PEN+KNIFE    0000001000+00003069+00000+0001T   00003069+0000001414          1400 JY1205               2AZ
112551002112551903-000155     112551006009803374435SWT LOLLY I LUV U HEART0000001000+00000525+00000+0001T   00000525+0000001414          1400 JY1150               2AZ
112552000112552               112552               170213OD     1400+00000+OD0000005259+0000005259+000000000+000000738+0000005990+0000000007+I20000000000+0000005990+Z
112552001112552567-011125     112552009780710519870BOOK STICKER ASSTD     0000001000+00000876+00000+0001T   00001314+0008131415          1400 JY1757               2AZ
112552002112552567-011015     112552009781845392468BK CHILDREN'S READER   0000001000+00001753+00000+0001T   00002630+0008131415          1400 JY1757               2AZ
112552003112552567-010630     112552009781849568418BK ACTIVITY ASSTD      0000001000+00002630+00000+0001T   00003507+0008131415          1400 JY1757               2AZ
112553000112553               112553               170213OD     1400+00000+OD0000006136+0000006136+000000000+000000860+0000006990+0000000006+I20000000000+0000006990+Z
112553001112553089-000220     112553006003000677368KEY CHAIN+PEN+KNIFE    0000001000+00003069+00000+0001T   00003069+0000001417          1400 JY1205               2AZ
112553002112553077-000310     112553006001023608635GIFT-BAG 18X23CM GLOSS 0000001000+00001314+00000+0001T   00001314+0000001417          1400 JY1112               2AZ
112553003112553027-009031     112553000600965490726DUSTPAN 22x25x14cm     0000001000+00001753+00000+0001T   00001753+0000001417          1400 JY1212               2AZ
112554000112554               112554               170213OD     1400+00000+OD0000034022+0000034022+000000000+000004768+0000038790+0000000000+I40000038790+0000000000+Z
112554001112554077-000299-A   112554006003000670888GIFT-BAG PAPER JMB LOVE0000001000+00001753+00000+0001T   00001753+0000001423          1400 JY1112               2AZ
112554002112554368-000637     112554006001023874092PLUSH BEAR SLEEPING LOV0000001000+00011402+00000+0001T   00012279+0006471423          1400 JY1745               2AZ
112554003112554018-030000     112554006003000421060MUG OCCASIONS LOVE 2PCE0000001000+00004385+00000+0001T   00004385+0000001423          1400 JY1515               2AZ
112554004112554368-000053     112554006003000633449PLUSH BEAR 15.5cm MUM  0000001000+00005262+00000+0001T   00005262+0000001423          1400 JY1745               2AZ
112554005112554031-000844     112554006001023851789P/FRAME WDN WORDS 2ASS 0000001000+00003507+00000+0001T   00003507+0000001423          1400 JY1510               2AZ
112554006112554077-000383     112554006003000247943GIFT-BAG 11X14CM S/COL 0000001000+00000788+00000+0001T   00000788+0000001423          1400 JY1112               2AZ
112554007112554368-000175     112554006003000270316PLUSH BEAR 4 ASSTD 18CM0000001000+00006139+00000+0001T   00006139+0000001423          1400 JY1745               2AZ
112554008112554903-000183     112554006003000451043SWT LB HEART LOLLY     0000002000+00000393+00000+0001T   00000393+0000001423          1400 JY1150               2AZ
112555000112555               112555               170213OD     1400+00000+OD0000008940+0000008940+000000000+000001254+0000010190+0000000004+I20000000000+0000010190+Z
112555001112555082-007584     112555006003000653973SUNGLASS DESIGNER ASST 0000001000+00004385+00000+0001T   00004385+0000001431          1400 JY1160               2AZ
112555002112555304-001011     112555006001023806727FLWR ROSE RED W/BEAR   0000001000+00000613+00000+0001T   00000788+0006471431          1400 JY1510               2AZ
112555003112555082-007584     112555006003000653973SUNGLASS DESIGNER ASST 0000001000-00004385+00000+0001T   00004385+0000001431          1400 JY11601IC            2 Z
112555004112555903-000123     112555006925925909280SWEET GS MINI MALLOWS  0000001000+00000876+00000+0001T   00000876+0000001431          1400 JY1150               2AZ
112555005112555089-000210     112555006003000486441MTL KEYCHAIN + PEN     0000001000+00002192+00000+0001T   00002192+0000001431          1400 JY1205               2AZ
112555006112555080-000112     112555006003000252749CARD&ENVLP BDAY-MUSICAL0000001000+00001753+00000+0001T   00001753+0000001431          1400 JY1112               2AZ
112555007112555077-000289     112555006001023901996GIFT BOX 20x25x11cm    0000002000+00001753+00000+0001T   00001753+0000001431          1400 JY1112               2AZ
112556000112556               112556               170213OD     1400+00000+OD0000006310+0000006310+000000000+000000885+0000007190+0000000005+I20000000000+0000007190+Z
112556001112556903-000520     112556006001704009898SWT GUMMY MINI SOUR 60g0000001000+00000876+00000+0001T   00000876+0000001432          1400 JY1150               2AZ
112556002112556018-000136     112556006001023659026MUG OCC LOVE W/PLUSH   0000001000+00003507+00000+0001T   00003507+0000001432          1400 JY1515               2AZ
112556003112556080-000133-A   112556006003000647019MINI VALENTINES CARD   0000001000+00000437+00000+0001T   00000437+0000001432          1400 JY1112               2AZ
112556004112556077-000299     112556006003000395576G/BAG 32x25cm LRG LOVE 0000001000+00001490+00000+0001T   00001490+0000001432          1400 JY1112               2AZ
112557000112557               112557               170213OD     1400+00000+OD0000003626+0000003626+000000000+000000509+0000004135+0000000000+I40000004135+0000000000+Z
112557001112557077-000310     112557006001023608635GIFT-BAG 18X23CM GLOSS 0000001000+00001314+00000+0001T   00001314+0000001434          1400 JY1112               2AZ
112557002112557565-000044     112557006003000128280BARREL OF SLIME 100g   0000002000+00000613+00000+0001T   00000613+0000001434          1400 JY1745               2AZ
112557003112557903-002850     112557000000087108262MENTOS ROLL FRUIT      0000001000+00001051+00000+0001T   00001051+0000001434          1400 JY1150               2AZ
112557004112557112-116038     112557006003000534906TCS CARRIER BAG MIDI   0000001000+00000035+00000+0001T   00000035+0000001434          1400 JY1090               2AZ
112558000112558               112558               170213OD     1400+00000+OD0000003854+0000003854+000000000+000000542+0000004390+0000000006+I20000000000+0000004390+Z
112558001112558903-000155     112558006009803374435SWT LOLLY I LUV U HEART0000002000+00000525+00000+0001T   00000525+0000001438          1400 JY1150               2AZ
112558002112558304-001204     112558006001023737984FLOWER OCC. TEDDY/ROSES0000002000+00001402+00000+0001T   00001490+0006471438          1400 JY1510               2AZ
112559000112559               112559               170213OD     1400+00000+OD0000001051+0000001051+000000000+000000148+0000001190+0000000009+I20000000000+0000001190+Z
112559001112559079-009702-B   112559008427973059491PAPER SIRIO A2 WHITE   0000001000+00001051+00000+0001T   00001051+0000001441          1400 JY1130               2AZ
112560000112560               112560               170213OD     1400+00000+OD0000004822+0000004822+000000000+000000676+0000005490+0000000008+I20000000000+0000005490+Z
112560001112560077-000270     112560006003000395453GIFT-BAG PPR JMB 33X45 0000001000+00002630+00000+0001T   00002630+0000001444          1400 JY1112               2AZ
112560002112560080-000127     112560006003000424351VALENTINES DAY 36x24CM 0000001000+00002192+00000+0001T   00002192+0000001444          1400 JY1112               2AZ
112561000112561               112561               170213OD     1400+00000+OD0000003681+0000003681+000000000+000000517+0000004190+0000000008+I20000000000+0000004190+Z
112561001112561079-009702-B   112561008427973059491PAPER SIRIO A2 WHITE   0000001000+00001051+00000+0001T   00001051+0000001447          1400 JY1130               2AZ
112561002112561071-030012     112561006003000283842PEN NVLTY GLITTER 6PC  0000001000+00002630+00000+0001T   00002630+0000001447          1400 JY1130               2AZ
112562000112562               112562               170213OD     1400+00000+OD0000003853+0000003853+000000000+000000542+0000004395+0000000000+I40000004395+0000000000+Z
112562001112562077-000472     112562006003000330133G-BAG DESGNR LRG 25X32 0000001000+00001753+00000+0001T   00001753+0000001449          1400 JY1112               2AZ
112562002112562077-000310     112562006001023608635GIFT-BAG 18X23CM GLOSS 0000001000+00001314+00000+0001T   00001314+0000001449          1400 JY1112               2AZ
112562003112562903-000183     112562006003000451043SWT LB HEART LOLLY     0000002000+00000393+00000+0001T   00000393+0000001449          1400 JY11501IC            2AZ
112563000112563               112563               170213OD     1400+00000+OD0000003853+0000003853+000000000+000000540+0000004390+0000000003+I20000000000+0000004390+Z
112563001112563079-013032-I   112563006003000542550ART+CRAFT DIY EVA FOAM 0000001000+00001753+00000+0001T   00001753+0000001450          1400 JY1130               2AZ
112563002112563033-010721     112563006001023678669SAFETY-PINS 20PCE ASSTD0000003000+00000700+00000+0001T   00000700+0000001450          1400 JY12001IC            2AZ
112564000112564               112564               170213OD     1400+00000+OD0000004731+0000004731+000000000+000000665+0000005396+0000000000+I40000005396+0000000000+Z
112564001112564077-000289     112564006001023901996GIFT BOX 20x25x11cm    0000001000+00001753+00000+0001T   00001753+0000001456          1400 JY1112               2AZ
112564002112564077-000239     112564006003000160419GIFT-RIBBON ROLL PEARL 0000001000+00001753+00000+0001T   00001753+0000001456          1400 JY1112               2AZ
112564003112564080-000133-A   112564006003000647019MINI VALENTINES CARD   0000001000+00000437+00000+0001T   00000437+0000001456          1400 JY1112               2AZ
112564004112564077-000010-C   112564006001023123879CREPE-PAPER RED        0000001000+00000788+00000+0001T   00000788+0000001456          1400 JY1112               2AZ
112565000112565               112565               170213OD     1400+00000+OD0000002192+0000002192+000000000+000000307+0000002490+0000000009+I20000000000+0000002490+Z
112565001112565080-000127     112565006003000424351VALENTINES DAY 36x24CM 0000001000+00002192+00000+0001T   00002192+0000001457          1400 JY1112               2AZ
112566000112566               112566               170213OD     1400+00000+OD0000003542+0000003542+000000000+000000496+0000004030+0000000008+I20000000000+0000004030+Z
112566001112566018-000130     112566006001023867537MUG OCC LOVE MINI+HEART0000001000+00003507+00000+0001T   00003507+0000001510          1400 Y94515               2AZ
112566002112566112-116038     112566006009681820246TCS CARRIER BAG MIDI   0000001000+00000035+00000+0001T   00000035+0000001510          1400 Y94090               2AZ
112567000112567               112567               170213OD     1400+00000+OD0000017978+0000017978+000000000+000002518+0000020496+0000000000+I40000020496+0000000000+Z
112567001112567080-000127     112567006003000424351VALENTINES DAY 36x24CM 0000001000+00002192+00000+0001T   00002192+0000001512          1400 Y94112               2AZ
112567002112567031-086302-C   112567006001023910332P/FRAME COLL. PL 3-HOLE0000001000+00008771+00000+0001T   00008771+0000001512          1400 Y94510               2AZ
112567003112567077-000270     112567006003000395453GIFT-BAG PPR JMB 33X45 0000001000+00002630+00000+0001T   00002630+0000001512          1400 Y94112               2AZ
112567004112567018-030000     112567006003000421060MUG OCCASIONS LOVE 2PCE0000001000+00004385+00000+0001T   00004385+0000001512          1400 Y94515               2AZ
112568000112568               112568               170213OD     1400+00000+OD0000003243+0000003243+000000000+000000455+0000003698+0000000000+I40000003698+0000000000+Z
112568001112568565-000002     112568006003000308071NOVELTY GROWING ANIMALS0000001000+00001753+00000+0001T   00001753+0000001513          1400 Y94745               2AZ
112568002112568077-000299     112568006003000395576G/BAG 32x25cm LRG LOVE 0000001000+00001490+00000+0001T   00001490+0000001513          1400 Y94112               2AZ
112569000112569               112569               170213OD     1400+00000+OD0000003507+0000003507+000000000+000000491+0000003990+0000000008+I20000000000+0000003990+Z
112569001112569004-071206     112569006003000605156USB CABLE CHARGER      0000001000+00003507+00000+0001T   00003507+0000001514          1400 Y94310               2AZ
112570000112570               112570               170213OD     1400+00000+OD0000009143+0000009143+000000000+000001287+0000010430+0000000000+I40000010430+0000000000+Z
112570001112570567-075466     112570009780263921144BK NOVEL ROMANCE       0000001000+00002630+00000+0001T   00002630+0000001516          1400 Y94757               2AZ
112570002112570567-075466     112570009780263921106BK NOVEL ROMANCE       0000001000+00002630+00000+0001T   00002630+0000001516          1400 Y94757               2AZ
112570003112570080-000133-A   112570006003000647019MINI VALENTINES CARD   0000004000+00000437+00000+0001T   00000437+0000001516          1400 Y94112               2AZ
112570004112570903-000155     112570006009803374435SWT LOLLY I LUV U HEART0000004000+00000525+00000+0001T   00000525+0000001516          1400 Y94150               2AZ
112570005112570112-116038     112570006009681820246TCS CARRIER BAG MIDI   0000001000+00000035+00000+0001T   00000035+0000001516          1400 Y94090               2AZ
112571000112571               112571               170213OD     1400+00000+OD0000008274+0000008274+000000000+000001160+0000009430+0000000004+I20000000000+0000009430+Z
112571001112571015-002060     112571006001023893888BOWL S/STEEL DIPPING   0000002000+00001490+00000+0001T   00001490+0000001517          1400 Y94515               2AZ
112571002112571133-000079     112571006003000277193KITCHEN SWAB 30x30CM   0000002000+00000876+00000+0001T   00000876+0000001517          1400 Y94212               2AZ
112571003112571112-116038     112571006009681820246TCS CARRIER BAG MIDI   0000001000+00000035+00000+0001T   00000035+0000001517          1400 Y94090               2AZ
112571004112571105-003027     112571006001023114129CONTAINERS PL MINI 4PC 0000001000+00003507+00000+0001T   00004385+0008161517          1400 Y94210               2AZ
112572000112572               112572               170213OD     1400+00000+OD0000002630+0000002630+000000000+000000369+0000002990+0000000009+I20000000000+0000002990+Z
112572001112572492-055602     112572000078257556021SWIM-GOGGLES PLAY      0000001000+00002630+00000+0001T   00002630+0000001519          1400 Y94787               2AZ
112573000112573               112573               170213OD     1400+00000+OD0000009732+0000009732+000000000+000001364+0000011090+0000000006+I20000000000+0000011090+Z
112573001112573301-085000     112573006003000674299 ORN OCC. LOVE HEARTS  0000001000+00002192+00000+0001T   00002192+0000001520          1400 Y94505               2AZ
112573002112573080-000127     112573006003000424351VALENTINES DAY 36x24CM 0000001000+00002192+00000+0001T   00002192+0000001520          1400 Y94112               2AZ
112573003112573903-000155     112573006009803374435SWT LOLLY I LUV U HEART0000001000+00000525+00000+0001T   00000525+0000001520          1400 Y94150               2AZ
112573004112573301-085001     112573006003000297610ORN WATERBALL LOVE ASST0000001000+00004823+00000+0001T   00004823+0000001520          1400 Y94505               2AZ
112574000112574               112574               170213OD     1400+00000+OD0000006576+0000006576+000000000+000000921+0000007490+0000000007+I20000000000+0000007490+Z
112574001112574077-000310     112574006001023608635GIFT-BAG 18X23CM GLOSS 0000001000+00001314+00000+0001T   00001314+0000001521          1400 Y94112               2AZ
112574002112574018-019000     112574006003000557288MUG OCC. LOVE JUMBO    0000001000+00005262+00000+0001T   00005262+0000001521          1400 Y94515               2AZ
112575000112575               112575               170213OD     1400+00000+OD0000008804+0000008804+000000000+000001234+0000010038+0000000000+I40000010038+0000000000+Z
112575001112575039-081008     112575006008766081008CANDLES 9PCE SCENTED   0000001000+00002630+00000+0001T   00002630+0000001522          1400 Y94510               2AZ
112575002112575039-000798     112575006001023617774CANDLES TEALITE BOX-50 0000001000+00006139+00000+0001T   00006139+0000001522          1400 Y94510               2AZ
112575003112575112-116038     112575006009681820246TCS CARRIER BAG MIDI   0000001000+00000035+00000+0001T   00000035+0000001522          1400 Y94090               2AZ
112576000112576               112576               170213OD     1400+00000+OD0000006576+0000006576+000000000+000000921+0000007497+0000000000+I40000007497+0000000000+Z
112576001112576030-000030-B   112576006003000249381PLAQUE GLASS MOM       0000001000+00003069+00000+0001T   00003069+0000001524          1400 Y94505               2AZ
112576002112576018-005009     112576006001023725608MUG W/PLUSH-BEAR LOVE  0000001000+00003507+00000+0001T   00003507+0000001524          1400 Y94515               2AZ
112577000112577               112577               170213OD     1400+00000+OD0000006396+0000006396+000000000+000000899+0000007290+0000000005+I20000000000+0000007290+Z
112577001112577079-009702-D   112577008427973059354PAPER SIRIO A2 RED COL 0000002000+00001051+00000+0001T   00001051+0000001524          1400 Y94130               2AZ
112577002112577079-006496     112577006003000160105GLITTER SHAKERS        0000001000+00001753+00000+0001T   00001753+0000001524          1400 Y94130               2AZ
112577003112577028-000796     112577006001023812094SKEWERS 25cm 50PCE 4mm 0000001000+00001490+00000+0001T   00001490+0000001524          1400 Y94305               2AZ
112577004112577079-009702-B   112577008427973059491PAPER SIRIO A2 WHITE   0000001000+00001051+00000+0001T   00001051+0000001524          1400 Y94130               2AZ
112578000112578               112578               170213OD     1400+00000+OD0000033805+0000033805+000000000+000004736+0000038541+0000000000+I40000038541+0000000000+Z
112578001112578366-000451     112578006003000653508DRESS UP HEADBAND ASSTD0000001000+00002192+00000+0001T   00002192+0000001534          1400 Y94131               2AZ
112578002112578004-071212     112578006003000438129LAPTOP STAND ADJUSTABLE0000001000+00003507+00000+0001T   00003507+0000001534          1400 Y94310               2AZ
112578003112578077-000908     112578006003000410927G/WRAP 700mmx1m FLOWER 0000001000+00001753+00000+0001T   00001753+0000001534          1400 Y94112               2AZ
112578004112578112-116069     112578006009681820277TCS CARRIER BAG JUMBO  0000001000+00000048+00000+0001T   00000048+0000001534          1400 Y94090               2AZ
112578005112578079-130010     112578006003000496624ART+CRAFT FOAM DOLLS   0000001000+00004385+00000+0001T   00004385+0000001534          1400 Y94130               2AZ
112578006112578079-011526     112578006003000408375GLITTER & SAND ART     0000001000+00003507+00000+0001T   00003507+0000001534          1400 Y94130               2AZ
112578007112578071-000306     112578006001023715371STENCILS ART FUN SET   0000001000+00003507+00000+0001T   00003507+0000001534          1400 Y94130               2AZ
112578008112578082-098783     112578006001492987835SUNGLASS KIDS GIRLS    0000001000+00003946+00000+0001T   00003946+0000001534          1400 Y94160               2AZ
112578009112578566-000200     112578006003000384174STICKER PUFFY NEON     0000001000+00000876+00000+0001T   00000876+0000001534          1400 Y94130               2AZ
112578010112578079-105609     112578006003000612697ART+CRAFT ALPHABET KIT 0000001000+00005262+00000+0001T   00005262+0000001534          1400 Y94130               2AZ
112578011112578006-000227     112578006003000328086PARTY BIRTHDAY BADGES  0000001000+00003069+00000+0001T   00003069+0000001534          1400 Y94131               2AZ
112578012112578079-012201     112578006001023903594ART+CRAFT FINGER STAMP 0000001000+00001753+00000+0001T   00002630+0008151534          1400 Y94130               2AZ
112579000112579               112579               170213OD     1400+00000+OD0000019291+0000019291+000000000+000002704+0000021990+0000000005+I20000000000+0000021990+Z
112579001112579306-000973     112579006003000559473FIRSTAID PLASTER 30PC  0000001000+00001753+00000+0001T   00001753+0000001537          1400 Y94200               2AZ
112579002112579089-000099     112579006003000677566KEY CHAIN MTL SPORT AST0000002000+00000876+00000+0001T   00000876+0000001537          1400 Y94205               2AZ
112579003112579049-001820     112579006003000019311DOORMAT RUBBER MOULDED 0000002000+00007893+00000+0001T   00007893+0000001537          1400 Y94510               2AZ
112580000112580               112580               170213OD     1400+00000+OD0000007888+0000007888+000000000+000001106+0000008990+0000000004+I20000000000+0000008990+Z
112580001112580018-000130     112580006001023867537MUG OCC LOVE MINI+HEART0000001000+00003507+00000+0001T   00003507+0000001538          1400 Y94515               2AZ
112580002112580903-000155     112580006009803374435SWT LOLLY I LUV U HEART0000001000+00000525+00000+0001T   00000525+0000001538          1400 Y94150               2AZ
112580003112580077-000303     112580006001023593757GIFT-BAG PAPER MED     0000001000+00001578+00000+0001T   00001578+0000001538          1400 Y94112               2AZ
112580004112580565-000071     112580006003000643387NOVELTY WIND UP CHATTER0000002000+00001139+00000+0001T   00001139+0000001538          1400 Y94745               2AZ
112581000112581               112581               170213OD     1400+00000+OD0000003681+0000003681+000000000+000000517+0000004190+0000000008+I20000000000+0000004190+Z
112581001112581007-000119     112581006002324004126BOOK COVER PL          0000001000+00001051+00000+0001T   00001051+0000001545          1400 Y94130               2AZ
112581002112581200-000003     112581006003000532360DISPOSABLE BAG 100PC   0000001000+00002630+00000+0001T   00002630+0000001545          1400 Y94214               2AZ
112582000112582               112582               170213OD     1400+00000+OD0000013718+0000013718+000000000+000001927+0000015645+0000000000+I40000015645+0000000000+Z
112582001112582566-000366     112582006003000590667STICKER HALLOWEEN GLOW 0000001000+00002630+00000+0001T   00002630+0000001548          1400 Y94130               2AZ
112582002112582903-000155     112582006009803374435SWT LOLLY I LUV U HEART0000003000+00000525+00000+0001T   00000525+0000001548          1400 Y94150               2AZ
112582003112582006-006018     112582006001023735256PARTY-SPRAY HAIR ASSORT0000001000+00002630+00000+0001T   00002630+0000001548          1400 Y94131               2AZ
112582004112582566-000366     112582006003000590667STICKER HALLOWEEN GLOW 0000002000+00002630+00000+0001T   00002630+0000001548          1400 Y94130               2AZ
112582005112582112-116069     112582006009681820277TCS CARRIER BAG JUMBO  0000001000+00000048+00000+0001T   00000048+0000001548          1400 Y94090               2AZ
112582006112582903-000155     112582006009803374435SWT LOLLY I LUV U HEART0000003000+00000525+00000+0001T   00000525+0000001548          1400 Y94150               2AZ
112583000112583               112583               170213OD     1400+00000+OD0000022658+0000022658+000000000+000003179+0000025837+0000000000+I40000025837+0000000000+Z
112583001112583903-000709     112583006002099007070SWT QUENCHERS FRUIT    0000005000+00001139+00000+0001T   00001139+0000001550          1400 Y94150               2AZ
112583002112583018-000127     112583006001023380289MUG OCC STRAIGHT LOVE  0000003000+00001578+00000+0001T   00001753+0006471550          1400 Y94515               2AZ
112583003112583089-000220     112583006003000677368KEY CHAIN+PEN+KNIFE    0000001000+00003069+00000+0001T   00003069+0000001550          1400 Y94205               2AZ
112583004112583903-000155     112583006009803374435SWT LOLLY I LUV U HEART0000005000+00000525+00000+0001T   00000525+0000001550          1400 Y94150               2AZ
112583005112583903-000844     112583005010478432567SWT CANDY DL LUV HEARTS0000001000+00001314+00000+0001T   00001314+0000001550          1400 Y94150               2AZ
112583006112583001-000175     112583006001023788108B/MUG GLS LOVE 380ML   0000001000+00004385+00000+0001T   00004385+0000001550          1400 Y94515               2AZ
112583007112583077-000010-C   112583006001023123879CREPE-PAPER RED        0000001000+00000788+00000+0001T   00000788+0000001550          1400 Y94112               2AZ
112583008112583112-116069     112583006009681820277TCS CARRIER BAG JUMBO  0000001000+00000048+00000+0001T   00000048+0000001550          1400 Y94090               2AZ
112584000112584               112584               170213OD     1400+00000+OD0000019515+0000019515+000000000+000002734+0000022240+0000000009+I20000000000+0000022240+Z
112584001112584018-005009     112584006001023725608MUG W/PLUSH-BEAR LOVE  0000002000+00003507+00000+0001T   00003507+0000001552          1400 Y94515               2AZ
112584002112584368-000637     112584006001023874092PLUSH BEAR SLEEPING LOV0000001000+00011402+00000+0001T   00012279+0006471552          1400 Y94745               2AZ
112584003112584903-002890     112584008935001721352MENTOS GUM PURE F/MINT 0000001000+00001051+00000+0001T   00001051+0000001552          1400 Y94150               2AZ
112584004112584112-116069     112584006009681820277TCS CARRIER BAG JUMBO  0000001000+00000048+00000+0001T   00000048+0000001552          1400 Y94090               2AZ
112585000112585               112585               170213OD     1400+00000+OD0000005833+0000005833+000000000+000000818+0000006650+0000000001+I20000000000+0000006650+Z
112585001112585080-000124     112585006003000297733CARD & ENV VALENTINES  0000001000+00001578+00000+0001T   00001578+0000001554          1400 Y94112               2AZ
112585002112585903-000494     112585006001704009911SWT GUMMY TEENY TEDDIES0000001000+00000876+00000+0001T   00000876+0000001554          1400 Y94150               2AZ
112585003112585080-000127     112585006003000424351VALENTINES DAY 36x24CM 0000001000+00002192+00000+0001T   00002192+0000001554          1400 Y94112               2AZ
112585004112585903-000087     112585006001704000161SWT SPECKLED-EGGS 50G  0000001000+00001139+00000+0001T   00001139+0000001554          1400 Y94150               2AZ
112585005112585112-116069     112585006009681820277TCS CARRIER BAG JUMBO  0000001000+00000048+00000+0001T   00000048+0000001554          1400 Y94090               2AZ
112586000112586               112586               170213OD     1400+00000+OD0000008771+0000008771+000000000+000001228+0000009999+0000000000+I40000009999+0000000000+Z
112586001112586072-020242     112586006003000053728PET BED COTTON TEXTILE 0000001000+00008771+00000+0001T   00008771+0000001558          1400 Y94870               2AZ
112587000112587               112587               170213OD     1400+00000+OD0000001314+0000001314+000000000+000000184+0000001490+0000000008+I20000000000+0000001490+Z
112587001112587566-000300     112587006003000443642STCKRS ROOM DECOR KIDS 0000001000+00001314+00000+0001T   00001753+0008151601          1400 Y94130               2AZ
112588000112588               112588               170213OD     1400+00000+OD0000003506+0000003506+000000000+000000492+0000003998+0000000000+I40000003998+0000000000+Z
112588001112588080-000113     112588006003000237449CARD&ENVLPE - LOVE     0000001000+00001753+00000+0001T   00001753+0000001602          1400 Y94112               2AZ
112588002112588077-000382     112588006003000247820GIFT-BAG MED 18X23CM   0000001000+00001753+00000+0001T   00001753+0000001602          1400 Y94112               2AZ
112589000112589               112589               170213OD     1400+00000+OD0000010133+0000010133+000000000+000001420+0000011553+0000000000+I40000011553+0000000000+Z
112589001112589301-085007     112589006003000673698ORN OCC. LOVE S/PLAQUE 0000001000+00007893+00000+0001T   00007893+0000001610          1400 Y94505               2AZ
112589002112589080-000127     112589006003000424351VALENTINES DAY 36x24CM 0000001000+00002192+00000+0001T   00002192+0000001610          1400 Y94112               2AZ
112589003112589112-116069     112589006009681820277TCS CARRIER BAG JUMBO  0000001000+00000048+00000+0001T   00000048+0000001610          1400 Y94090               2AZ
112590000112590               112590               170213OD     1400+00000+OD0000005596+0000005596+000000000+000000787+0000006383+0000000000+I40000006383+0000000000+Z
112590001112590018-000127     112590006001023380289MUG OCC STRAIGHT LOVE  0000001000+00001578+00000+0001T   00001753+0006471614          1400 Y94515               2AZ
112590002112590903-000155     112590006009803374435SWT LOLLY I LUV U HEART0000002000+00000525+00000+0001T   00000525+0000001614          1400 Y94150               2AZ
112590003112590903-000014     112590006003000691029SWT MIKE N IKE ORIG 23G0000002000+00001051+00000+0001T   00001051+0000001614          1400 Y94150               2AZ
112590004112590006-001000     112590006003000093779HELIUM BALLOON FILL    0000001000+00000613+00000+0001T   00000613+0000001614          1400 Y94131               2AZ
112590005112590006-000172-A   112590006003000609765BALLOONS METALLIC PINK 0000001000+00000218+00000+0001T   00000218+0000001614          1400 Y94131               2AZ
112590006112590112-116038     112590006009681820246TCS CARRIER BAG MIDI   0000001000+00000035+00000+0001T   00000035+0000001614          1400 Y94090               2AZ
112591000112591               112591               170213OD     1400+00000+OD0000007801+0000007801+000000000+000001094+0000008895+0000000000+I40000008895+0000000000+Z
112591001112591089-000210     112591006003000486441MTL KEYCHAIN + PEN     0000001000+00002192+00000+0001T   00002192+0000001619          1400 Y94205               2AZ
112591002112591031-000002-A   112591006003000247103P/FRAME LOVE 7.5X7.5CM 0000001000+00003507+00000+0001T   00003507+0000001619          1400 Y94510               2AZ
112591003112591039-000026     112591006001023551610C/TAPERED 25CM M/RED   0000002000+00001051+00000+0001T   00001051+0000001619          1400 Y94510               2AZ
112592000112592               112592               170213OD     1400+00000+OD0000010167+0000010167+000000000+000001426+0000011593+0000000000+I40000011593+0000000000+Z
112592001112592304-001204     112592006001023737984FLOWER OCC. TEDDY/ROSES0000002000+00001402+00000+0001T   00001490+0006471629          1400 Y94510               2AZ
112592002112592566-000068     112592006003000418046POP UP LOVE 2 ASSTD    0000001000+00002192+00000+0001T   00002192+0000001629          1400 Y94130               2AZ
112592003112592200-000130     112592006001023645067DESSERT-SPOONS 10PCE   0000002000+00000613+00000+0001T   00000613+0000001629          1400 Y94214               2AZ
112592004112592566-000865     112592006001023788412STICKER ASSTD          0000001000+00001753+00000+0001T   00001753+0000001629          1400 Y94130               2AZ
112592005112592566-000068     112592006003000418046POP UP LOVE 2 ASSTD    0000001000+00002192+00000+0001T   00002192+0000001629          1400 Y94130               2AZ
112593000112593               112593               170213OD     1400+00000+OD0000005697+0000005697+000000000+000000798+0000006490+0000000005+I20000000000+0000006490+Z
112593001112593077-000384     112593006003000275243G/BAG HOT STMP 18x23CM 0000001000+00001490+00000+0001T   00001490+0000001706          1400 Y94112               2AZ
112593002112593018-000177     112593006001023797513MUG MINI LOVE ASSTD    0000001000+00000700+00000+0001T   00000700+0000001706          1400 Y94515               2AZ
112593003112593018-000136     112593006001023659026MUG OCC LOVE W/PLUSH   0000001000+00003507+00000+0001T   00003507+0000001706          1400 Y94515               2AZ
112594000112594               112594               170213OD     1400+00000+OD0000020828+0000020828+000000000+000002918+0000023746+0000000000+I40000023746+0000000000+Z
112594001112594001-091415     112594006003000329113W/GLS OCC. LOVE 2PC 2800000001000+00008771+00000+0001T   00009648+0006471712          1400 Y94515               2AZ
112594002112594018-000127     112594006001023380289MUG OCC STRAIGHT LOVE  0000001000+00001578+00000+0001T   00001753+0006471712          1400 Y94515               2AZ
112594003112594039-000026     112594006001023551610C/TAPERED 25CM M/RED   0000001000+00001051+00000+0001T   00001051+0000001712          1400 Y94510               2AZ
112594004112594030-000031-A   112594006003000457588PLAQUE W/WORDS ASSTD   0000001000+00004385+00000+0001T   00004823+0006471712          1400 Y94505               2AZ
112594005112594018-000177     112594006001023797513MUG MINI LOVE ASSTD    0000001000+00000700+00000+0001T   00000700+0000001712          1400 Y94515               2AZ
112594006112594301-085004     112594006003000420469ORN LOVE PLAQUE 21X10CM0000001000+00003507+00000+0001T   00003946+0006471712          1400 Y94505               2AZ
112594007112594112-116069     112594006009681820277TCS CARRIER BAG JUMBO  0000001000+00000048+00000+0001T   00000048+0000001712          1400 Y94090               2AZ
112594008112594077-000010-C   112594006001023123879CREPE-PAPER RED        0000001000+00000788+00000+0001T   00000788+0000001712          1400 Y94112               2AZ
112595000112595               112595               170213OD     1400+00000+OD0000017101+0000017101+000000000+000002395+0000019490+0000000006+I20000000000+0000019490+Z
112595001112595001-000175     112595006001023788108B/MUG GLS LOVE 380ML   0000001000+00004385+00000+0001T   00004385+0000001712          1400 Y94515               2AZ
112595002112595080-000127     112595006003000424351VALENTINES DAY 36x24CM 0000001000+00002192+00000+0001T   00002192+0000001712          1400 Y94112               2AZ
112595003112595077-000299-A   112595006003000670888GIFT-BAG PAPER JMB LOVE0000001000+00001753+00000+0001T   00001753+0000001712          1400 Y94112               2AZ
112595004112595001-091415     112595006003000329113W/GLS OCC. LOVE 2PC 2800000001000+00008771+00000+0001T   00009648+0006471712          1400 Y94515               2AZ
112596000112596               112596               170213OD     1400+00000+OD0000013157+0000013157+000000000+000001842+0000014999+0000000000+I40000014999+0000000000+Z
112596001112596567-075700     112596006003000339389BOOK NOVEL 3-PACK ASSTD0000001000+00013157+00000+0001T   00013157+0000001714          1400 Y94757               2AZ
112597000112597               112597               170213OD     1400+00000+OD0000007060+0000007060+000000000+000000991+0000008051+0000000000+I40000008051+0000000000+Z
112597001112597203-008282     112597006003000597703WINE GLS PL 2PC CHAMP. 0000004000+00001753+00000+0001T   00002630+0008171717          1400 Y94300               2AZ
112597002112597112-116069     112597006009681820277TCS CARRIER BAG JUMBO  0000001000+00000048+00000+0001T   00000048+0000001717          1400 Y94090               2AZ
112598000112598               112598               170213OD     1400+00000+OD0000004385+0000004385+000000000+000000614+0000004999+0000000000+I40000004999+0000000000+Z
112598001112598018-030000     112598006003000421060MUG OCCASIONS LOVE 2PCE0000001000+00004385+00000+0001T   00004385+0000001719          1400 Y94515               2AZ
112599000112599               112599               170213OD     1400+00000+OD0000000437+0000000437+000000000+000000062+0000000490+0000000009+I20000000000+0000000490+Z
112599001112599080-000133-A   112599006003000647019MINI VALENTINES CARD   0000001000+00000437+00000+0001T   00000437+0000001719          1400 Y94112               2AZ
112600000112600               112600               170213OD     1400+00000+OD0000003506+0000003506+000000000+000000492+0000003998+0000000000+I40000003998+0000000000+Z
112600001112600077-000239     112600006003000160419GIFT-RIBBON ROLL PEARL 0000001000+00001753+00000+0001T   00001753+0000001722          1400 Y94112               2AZ
112600002112600078-000470     112600006007347000018SHOE-CEMENT 70ml-TIN   0000001000+00001753+00000+0001T   00001753+0000001722          1400 Y94810               2AZ
112601000112601               112601               170213OD     1400+00000+OD0000003555+0000003555+000000000+000000498+0000004053+0000000000+I40000004053+0000000000+Z
112601001112601018-000136     112601006001023659026MUG OCC LOVE W/PLUSH   0000001000+00003507+00000+0001T   00003507+0000001725          1400 Y94515               2AZ
112601002112601112-116069     112601006009681820277TCS CARRIER BAG JUMBO  0000001000+00000048+00000+0001T   00000048+0000001725          1400 Y94090               2AZ
112602000112602               112602               170213OD     1400+00000+OD0000025433+0000025433+000000000+000003562+0000028995+0000000000+I40000028995+0000000000+Z
112602001112602039-082106     112602006001023847348C/VOTIVE 8PC VANILLA   0000001000+00005262+00000+0001T   00005262+0000001737          1400 Y94510               2AZ
112602002112602077-000011-C   112602006001023808523TISSUE 10xSHTS RED     0000001000+00000876+00000+0001T   00000876+0000001737          1400 Y94112               2AZ
112602003112602077-000299-A   112602006003000670888GIFT-BAG PAPER JMB LOVE0000001000+00001753+00000+0001T   00001753+0000001737          1400 Y94112               2AZ
112602004112602301-001125     112602000694202803950ORN FOUNTAIN TOWER     0000001000+00017542+00000+0001T   00017542+0000001737          1400 Y94505               2AZ
112603000112603               112603               170213OD     1400+00000+OD0000006576+0000006576+000000000+000000922+0000007490+0000000008+I20000000000+0000007490+Z
112603001112603368-000175     112603006003000270316PLUSH BEAR 4 ASSTD 18CM0000001000+00006139+00000+0001T   00006139+0000001737          1400 Y94745               2AZ
112603002112603080-000133-A   112603006003000647019MINI VALENTINES CARD   0000001000+00000437+00000+0001T   00000437+0000001737          1400 Y94112               2AZ
112604000112604               112604               170213OD     1400+00000+OD0000002192+0000002192+000000000+000000307+0000002499+0000000000+I40000002499+0000000000+Z
112604001112604080-000127     112604006003000424351VALENTINES DAY 36x24CM 0000001000+00002192+00000+0001T   00002192+0000001740          1400 Y94112               2AZ
112605000112605               112605               170213OD     1400+00000+OD0000001801+0000001801+000000000+000000253+0000002050+0000000004+I20000000000+0000002050+Z
112605001112605077-000289     112605006001023901996GIFT BOX 20x25x11cm    0000001000+00001753+00000+0001T   00001753+0000001744          1400 Y94112               2AZ
112605002112605112-116069     112605006009681820277TCS CARRIER BAG JUMBO  0000001000+00000048+00000+0001T   00000048+0000001744          1400 Y94090               2AZ
112606000112606               112606               170213OD     1400+00000+OD0000004292+0000004292+000000000+000000603+0000004890+0000000005+I20000000000+0000004890+Z
112606001112606077-000270     112606006003000395453GIFT-BAG PPR JMB 33X45 0000001000+00002630+00000+0001T   00002630+0000001748          1400 Y94112               2AZ
112606002112606006-001000     112606006003000093779HELIUM BALLOON FILL    0000002000+00000613+00000+0001T   00000613+0000001748          1400 Y94131               2AZ
112606003112606006-000173-B   112606006003000636358BALLOONS HELIUM 1PC WHT0000002000+00000218+00000+0001T   00000218+0000001748          1400 Y94131               2AZ
112607000112607               112607               170213OD     1400+00000+OD0000000048+0000000048+000000000+000000007+0000000050+0000000005+I20000000000+0000000050+Z
112607001112607112-116069     112607006009681820277TCS CARRIER BAG JUMBO  0000001000+00000048+00000+0001T   00000048+0000001748          1400 Y94090               2AZ
112608000112608               112608               170213OD     1400+00000+OD0000003725+0000003725+000000000+000000522+0000004240+0000000007+I20000000000+0000004240+Z
112608001112608263-000177     112608006001023826824RACER PULL BACK        0000001000+00003507+00000+0001T   00003507+0000001751          1400 Y94710               2AZ
112608002112608006-000173-D   112608006003000636631BALLOONS 1PC BLUE      0000001000+00000218+00000+0001T   00000218+0000001751          1400 Y94131               2AZ
112609000112609               112609               170213OD     1400+00000+OD0000000048+0000000048+000000000+000000007+0000000050+0000000005+I20000000000+0000000050+Z
112609001112609112-116038     112609006009681820246TCS CARRIER BAG MIDI   0000001000-00000035+00000+0001T   00000035+0000001805          1400 Y940902IC            2 Z
112609002112609112-116038     112609006009681820246TCS CARRIER BAG MIDI   0000001000+00000035+00000+0001T   00000035+0000001805          1400 Y940902IC            2AZ
112609003112609112-116069     112609006009681820277TCS CARRIER BAG JUMBO  0000001000+00000048+00000+0001T   00000048+0000001805          1400 Y94090               2AZ
A17021300                                          09082588ODSLAVE 2                       JY13IC
A17021301                                          10050682ODSLAVE 2                       JY13IC
A17021302                                          10395448ODSLAVE 2                       JY12IC
A17021303                                          15323285ODSLAVE 2                       Y942IC
B11253700                                          170213OD304-001011     13280224SLAVE 2     JY11IC0000002000+0000001000+0000000000000+
B11256200                                          170213OD903-000183     14484593SLAVE 2     JY11IC0000023000+0000002000+0000000000000+
B11256300                                          170213OD033-010721     14503386SLAVE 2     JY11IC0000023000+0000003000+0000000000000+
M17021391                              CASH        ODSLAVE 2                       Z-REPORT No.   612TOTAL (Sales - Refunds)          10024.07       CASH TO BE BANKED                 4531.10       DEBIT CARDS                          0.00       CREDIT CARDS                      5492.97       Z-READING                        10024.07       AIRTIME DEBIT CARD SALES             0.00       AIRTIME CARD SALES                   0.00       OVERS/UNDERS                         0.00       AIRTIME CASH SALES                   0.00       GIFT CARDS                           0.00       GIFT CARD CASH SALES                 0.00       T O T A L  CASH PAYOUTS              0.00                                                                                                                                                                                                                                                                                                                                                      Z
M17021392                              CASH        ODABSENT                                                                                                                                                                                          ANNUAL LEAVE                                                                                                                                                                                    DAY OFF                                                                                                                                                                                         COMMENTS                                                                                                                                                                                                                                                                                                                                                                                       Z
Y17021300                                          OD00000000892738+000111
ZOD17021320113 SLAVE 2      SALES DATA                     NEXT INVOICE NO.  112610 0612
X OD Slave 2 First invoice 112499 170213 Last invoice 112609 170213 Next invoice 112610 Total number of records 000000472 clbackup completed 20:11:52
