122652000122652               122652               170213OD     1400+00000+OD0000003507+0000003507+000000000+000000491+0000003990+0000000008+I20000000000+0000003990+Z
122652001122652567-011443     122652009781847506719BK PUZZLE WORDSEARCH   0000001000+00003507+00000+0001T   00003507+0000000910          1400 S15757               3BZ
122653000122653               122653               170213OD     1400+00000+OD0000003678+0000003678+000000000+000000516+0000004190+0000000004+I20000000000+0000004190+Z
122653001122653006-001000     122653006003000093779HELIUM BALLOON FILL    0000006000+00000613+00000+0001T   00000613+0000000913          1400 S15131               3BZ
122654000122654               122654               170213OD     1400+00000+OD0000000876+0000000876+000000000+000000123+0000000990+0000000009+I20000000000+0000000990+Z
122654001122654077-000150-D   122654006003000054343GIFT-WRAP CELLPHANE CLR0000001000+00000876+00000+0001T   00000876+0000000913          1400 S15112               3BZ
122655000122655               122655               170213OD     1400+00000+OD0000015785+0000015785+000000000+000002212+0000017997+0000000000+I40000017997+0000000000+Z
122655001122655200-003024     122655006001023657299REFUSE BAGS 20PCE BLACK0000001000+00001753+00000+0001T   00001753+0000000914          1400 S15214               3BZ
122655002122655079-001000     122655006003000448470CANVAS A2 WOOD MOUNTED 0000002000+00007016+00000+0001T   00007016+0000000914          1400 S15130               3BZ
122656000122656               122656               170213OD     1400+00000+OD0000015554+0000015554+000000000+000002179+0000017730+0000000003+I20000000000+0000017730+Z
122656001122656084-070000     122656006001023629982TWEEZER CHROME H/GLOW  0000001000+00001490+00000+0001T   00001490+0000000920          1400 S15200               3BZ
122656002122656027-783006     122656006003000060719SCOURERS SPONGE        0000001000+00000876+00000+0001T   00000876+0000000920          1400 S15212               3BZ
122656003122656567-075497     122656009780799381627BK NOVEL ROMANCE AFR   0000001000+00006139+00000+0001T   00006139+0000000920          1400 S15757               3BZ
122656004122656133-000010-B   122656006003000682850CLEANING CLOTH ROLL 25 0000002000+00003507+00000+0001T   00003507+0000000920          1400 S15212               3BZ
122656005122656112-116038     122656006009681820246TCS CARRIER BAG MIDI   0000001000+00000035+00000+0001T   00000035+0000000920          1400 S15090               3BZ
122657000122657               122657               170213OD     1400+00000+OD0000000613+0000000613+000000000+000000086+0000000690+0000000009+I20000000000+0000000690+Z
122657001122657304-001011     122657006001023806727FLWR ROSE RED W/BEAR   0000001000+00000613+00000+0001T   00000788+0006470924          1400 S15510               3BZ
122658000122658               122658               170213OD     1400+00000+OD0000017528+0000017528+000000000+000002458+0000019980+0000000006+I20000000000+0000019980+Z
122658001122658368-000152     122658006003000166886PLUSH BEAR 15cm        0000001000+00003946+00000+0001T   00005262+0008140928          1400 S15745               3BZ
122658002122658903-000843     122658008693029031067SWT GUMMY JELAXY 80G   0000001000+00000964+00000+0001T   00000964+0000000928          1400 S15150               3BZ
122658003122658089-000030     122658006003000575671K/CHAIN LOVE MTL ASSTD 0000002000+00001753+00000+0001T   00001753+0000000928          1400 S15205               3BZ
122658004122658077-000303     122658006001023593757GIFT-BAG PAPER MED     0000001000+00001578+00000+0001T   00001578+0000000928          1400 S15112               3BZ
122658005122658006-000111     122658006003000519385BALLOONS LARGE 12PCE   0000001000+00002630+00000+0001T   00002630+0000000928          1400 S15131               3BZ
122658006122658006-001000     122658006003000093779HELIUM BALLOON FILL    0000008000+00000613+00000+0001T   00000613+0000000928          1400 S15131               3BZ
122659000122659               122659               170213OD     1400+00000+OD0000027189+0000027189+000000000+000003808+0000030997+0000000000+I40000030997+0000000000+Z
122659001122659365-003115     122659006003000157525PLAY-SET IRON+BOARD+ACC0000001000+00016665+00000+0001T   00016665+0000001007          1400 S15725               3BZ
122659002122659262-000626     122659006003000510580CAR MDC JEEP W/TRAILER 0000001000+00005262+00000+0001T   00005262+0000001007          1400 S15710               3BZ
122659003122659051-600657     122659006003000422340PLANTER W/TRAY 20x20x160000001000+00005262+00000+0001T   00005262+0000001007          1400 S15820               3BZ
122660000122660               122660               170213OD     1400+00000+OD0000001664+0000001664+000000000+000000234+0000001890+0000000008+I20000000000+0000001890+Z
122660001122660077-000010-C   122660006001023123879CREPE-PAPER RED        0000001000+00000788+00000+0001T   00000788+0000001033          1400 S15112               3BZ
122660002122660077-000011-E   122660006001023808646TISSUE-WRAP PINK 10PCE 0000001000+00000876+00000+0001T   00000876+0000001033          1400 S15112               3BZ
122661000122661               122661               170213OD     1400+00000+OD0000001748+0000001748+000000000+000000248+0000001990+0000000006+I20000000000+0000001990+Z
122661001122661039-000021     122661006003000285907C/TAPERED 25CM M/SILVER0000001000-00001051+00000+0001T   00001051+0000001035          1400 S155103IC            3 Z
122661002122661039-000021     122661006003000285907C/TAPERED 25CM M/SILVER0000001000+00001051+00000+0001T   00001051+0000001035          1400 S155103IC            3BZ
122661003122661080-000133-A   122661006003000647019MINI VALENTINES CARD   0000004000+00000437+00000+0001T   00000437+0000001035          1400 S15112               3BZ
122662000122662               122662               170213OD     1400+00000+OD0000013183+0000013183+000000000+000001847+0000015030+0000000000+I20000000000+0000015030+Z
122662001122662018-005009     122662006001023725608MUG W/PLUSH-BEAR LOVE  0000002000+00003507+00000+0001T   00003507+0000001037          1400 S15515               3BZ
122662002122662080-000113     122662006003000237449CARD&ENVLPE - LOVE     0000002000+00001753+00000+0001T   00001753+0000001037          1400 S15112               3BZ
122662003122662077-000310     122662006001023608635GIFT-BAG 18X23CM GLOSS 0000002000+00001314+00000+0001T   00001314+0000001037          1400 S15112               3BZ
122662004122662112-116038     122662006009681820246TCS CARRIER BAG MIDI   0000001000+00000035+00000+0001T   00000035+0000001037          1400 S15090               3BZ
122663000122663               122663               170213OD     1400+00000+OD0000003506+0000003506+000000000+000000492+0000003990+0000000008+I20000000000+0000003990+Z
122663001122663251-000071     122663006003000451890PROTECTION-PADS BLK ADH0000001000+00001753+00000+0001T   00001753+0000001038          1400 S15810               3BZ
122663002122663007-000723     122663006003000226078MEMO BOOK W/PEN 100SHTS0000001000+00001753+00000+0001T   00001753+0000001038          1400 S15130               3BZ
122664000122664               122664               170213OD     1400+00000+OD0000008271+0000008271+000000000+000001160+0000009430+0000000001+I20000000000+0000009430+Z
122664001122664112-116038     122664006009681820246TCS CARRIER BAG MIDI   0000001000+00000035+00000+0001T   00000035+0000001040          1400 S15090               3BZ
122664002122664079-013032-H   122664006003000496501GLITTER PRINCESS ACC   0000001000+00002630+00000+0001T   00002630+0000001040          1400 S15130               3BZ
122664003122664079-000341     122664006920705495519FELT-TIP PENS 12PCE    0000001000+00001753+00000+0001T   00001753+0000001040          1400 S15130               3BZ
122664004122664566-000070     122664006003000283798STICKERS POP UP ASSTD  0000001000+00001753+00000+0001T   00001753+0000001040          1400 S15130               3BZ
122664005122664018-000177     122664006001023797513MUG MINI LOVE ASSTD    0000003000+00000700+00000+0001T   00000700+0000001040          1400 S15515               3BZ
122665000122665               122665               170213OD     1400+00000+OD0000011401+0000011401+000000000+000001597+0000012998+0000000000+I40000012998+0000000000+Z
122665001122665079-011524     122665006003000408139ART+CRFT FINGER PUPPETS0000001000+00004385+00000+0001T   00004385+0000001043          1400 S15130               3BZ
122665002122665079-000335     122665006003000670550THERAPY P/CRAYONS 30   0000001000+00007016+00000+0001T   00007016+0000001043          1400 S15130               3BZ
122666000122666               122666               170213OD     1400+00000+OD0000000876+0000000876+000000000+000000123+0000000990+0000000009+I20000000000+0000000990+Z
122666001122666567-010670     122666009780710522405BK COLOURING ASSTD     0000001000+00000876+00000+0001T   00001314+0008131129          1400 S15757               3BZ
122667000122667               122667               170213OD     1400+00000+OD0000007049+0000007049+000000000+000000988+0000008030+0000000007+I20000000000+0000008030+Z
122667001122667033-010720     122667006001023678645SAFETY-PINS 50PCE SMALL0000001000+00000876+00000+0001T   00000876+0000001130          1400 S15200               3BZ
122667002122667039-082852     122667006008766082852C/SET 4PC MINI PILLARS 0000001000+00005262+00000+0001T   00005262+0000001130          1400 S15510               3BZ
122667003122667252-000011     122667006001023475190CURTN-GLIDER ACETYL x500000001000+00000876+00000+0001T   00000876+0000001130          1400 S15810               3BZ
122667004122667112-116038     122667006009681820246TCS CARRIER BAG MIDI   0000001000+00000035+00000+0001T   00000035+0000001130          1400 S15090               3BZ
122668000122668               122668               170213OD     1400+00000+OD0000001226+0000001226+000000000+000000172+0000001390+0000000008+I20000000000+0000001390+Z
122668001122668150-004030-H   122668006001023435798BATH-PLUG RUBBER WHITE 0000002000+00000613+00000+0001T   00000613+0000001131          1400 S15810               3BZ
122669000122669               122669               170213OD     1400+00000+OD0000019671+0000019671+000000000+000002755+0000022426+0000000000+I40000022426+0000000000+Z
122669001122669301-085004     122669006003000420469ORN LOVE PLAQUE 21X10CM0000002000+00003507+00000+0001T   00003946+0006471514          1400 S15505               3BZ
122669002122669018-000177     122669006001023797513MUG MINI LOVE ASSTD    0000002000+00000700+00000+0001T   00000700+0000001514          1400 S15515               3BZ
122669003122669018-005009     122669006001023725608MUG W/PLUSH-BEAR LOVE  0000002000+00003507+00000+0001T   00003507+0000001514          1400 S15515               3BZ
122669004122669301-085004     122669006003000420469ORN LOVE PLAQUE 21X10CM0000002000-00003507+00000+0001T   00003946+0006471514          1400 S155051IC            3 Z
122669005122669006-000190     122669006003000685530BALLOONS LOVE 81x91cm  0000002000+00004385+00000+0001T   00004385+0000001514          1400 S15131               3BZ
122669006122669006-000100     122669006003000301775BALLOONS W/BOMB+CATAPUL0000004000+00001314+00000+0001T   00001314+0000001514          1400 S15131               3BZ
122669007122669112-116038     122669006009681820246TCS CARRIER BAG MIDI   0000001000+00000035+00000+0001T   00000035+0000001514          1400 S15090               3BZ
122669008122669006-000100     122669006003000301775BALLOONS W/BOMB+CATAPUL0000004000-00001314+00000+0001T   00001314+0000001514          1400 S151311IC            3 Z
122669009122669006-001000     122669006003000093779HELIUM BALLOON FILL    0000004000+00000613+00000+0001T   00000613+0000001514          1400 S15131               3BZ
122670000122670               122670               170213OD     1400+00000+OD0000016296+0000016296+000000000+000002285+0000018581+0000000000+I40000018581+0000000000+Z
122670001122670018-000177     122670006001023797513MUG MINI LOVE ASSTD    0000001000+00000700+00000+0001T   00000700+0000001518          1400 S15515               3BZ
122670002122670262-000014     122670006003000119349S/BOARD RAMP+PLATFORM  0000001000+00007016+00000+0001T   00008771+0008141518          1400 S15710               3BZ
122670003122670112-116038     122670006009681820246TCS CARRIER BAG MIDI   0000001000+00000035+00000+0001T   00000035+0000001518          1400 S15090               3BZ
122670004122670077-000383     122670006003000247943GIFT-BAG 11X14CM S/COL 0000001000+00000788+00000+0001T   00000788+0000001518          1400 S15112               3BZ
122670005122670018-000177     122670006001023797513MUG MINI LOVE ASSTD    0000001000+00000700+00000+0001T   00000700+0000001518          1400 S15515               3BZ
122670006122670903-000155     122670006009803374435SWT LOLLY I LUV U HEART0000001000+00000525+00000+0001T   00000525+0000001518          1400 S15150               3BZ
122670007122670903-000183     122670006003000451043SWT LB HEART LOLLY     0000001000+00000393+00000+0001T   00000393+0000001518          1400 S15150               3BZ
122670008122670106-000901     122670006003000538058WATER BOTTLE 600ml     0000001000+00006139+00000+0001T   00006139+0000001518          1400 S15210               3BZ
122671000122671               122671               170213OD     1400+00000+OD0000028630+0000028630+000000000+000004015+0000032645+0000000000+I40000032645+0000000000+Z
122671001122671565-000051     122671006001023906168SLING SHOT ALIEN       0000002000+00001753+00000+0001T   00001753+0000001521          1400 S15745               3BZ
122671002122671366-002101     122671006003000617715DRESS UP MASK LIGHT UP 0000002000+00002630+00000+0001T   00002630+0000001521          1400 S15131               3BZ
122671003122671078-000030     122671006003000151141YAMAYO SUPERGLUE 8g    0000001000+00001753+00000+0001T   00001753+0000001521          1400 S15810               3BZ
122671004122671565-000889     122671006003000626953NOVELTY SPACE BALLOONS 0000001000+00001753+00000+0001T   00001753+0000001521          1400 S15745               3BZ
122671005122671565-000070     122671006003000643691NOVELTY CREATURES 5cm  0000002000+00002016+00000+0001T   00002016+0000001521          1400 S15745               3BZ
122671006122671560-000229     122671006003000469468ANIMALS BIG EYES ASSTD 0000002000+00006139+00000+0001T   00006139+0000001521          1400 S15745               3BZ
122671007122671112-116069     122671006009681820277TCS CARRIER BAG JUMBO  0000001000+00000048+00000+0001T   00000048+0000001521          1400 S15090               3BZ
122672000122672               122672               170213OD     1400+00000+OD0000002616+0000002616+000000000+000000372+0000002988+0000000000+I40000002988+0000000000+Z
122672001122672006-000173-B   122672006003000636358BALLOONS HELIUM 1PC WHT0000012000+00000218+00000+0001T   00000218+0000001524          1400 S15131               3BZ
122673000122673               122673               170213OD     1400+00000+OD0000004559+0000004559+000000000+000000639+0000005198+0000000000+I40000005198+0000000000+Z
122673001122673903-000095     122673006001704011495SWT SPECKLED-EGGS 100G 0000001000+00002104+00000+0001T   00002104+0000001548          1400 S15150               3BZ
122673002122673077-000380     122673006003000247585GIFT-BAG 33X45CM S/COL 0000001000+00002455+00000+0001T   00002455+0000001548          1400 S15112               3BZ
122674000122674               122674               170213OD     1400+00000+OD0000022823+0000022823+000000000+000003202+0000026020+0000000005+I20000000000+0000026020+Z
122674001122674206-000180     122674006003000631223TEA INFUSER TEAMAN     0000001000+00004385+00000+0001T   00004385+0000001549          1400 S15321               3BZ
122674002122674077-000011-D   122674006001023808554TISSUE-WRAP WHITE 10PCE0000004000+00000876+00000+0001T   00000876+0000001549          1400 S15112               3BZ
122674003122674903-000619     122674006003000672455SWT LOLLY STR/BRRY 140G0000001000+00001753+00000+0001T   00001753+0000001549          1400 S15150               3BZ
122674004122674903-000624     122674006003000671793SWEET LOLLY BLU/BRRY   0000001000+00001753+00000+0001T   00001753+0000001549          1400 S15150               3BZ
122674005122674079-013032-D   122674006003000389643RIBBONS                0000001000+00002630+00000+0001T   00002630+0000001549          1400 S15130               3BZ
122674006122674112-116038     122674006009681820246TCS CARRIER BAG MIDI   0000001000+00000035+00000+0001T   00000035+0000001549          1400 S15090               3BZ
122674007122674077-000299-A   122674006003000670888GIFT-BAG PAPER JMB LOVE0000001000+00001753+00000+0001T   00001753+0000001549          1400 S15112               3BZ
122674008122674077-000270     122674006003000395453GIFT-BAG PPR JMB 33X45 0000001000+00002630+00000+0001T   00002630+0000001549          1400 S15112               3BZ
122674009122674077-000151     122674006008766114676GIFT-WRAP C/PHANE ASSTD0000005000+00000876+00000+0001T   00000876+0000001549          1400 S15112               3BZ
122675000122675               122675               170213OD     1400+00000+OD0000008674+0000008674+000000000+000001216+0000009890+0000000000+I20000000000+0000009890+Z
122675001122675077-000310     122675006001023608635GIFT-BAG 18X23CM GLOSS 0000001000+00001314+00000+0001T   00001314+0000001550          1400 S15112               3BZ
122675002122675018-000177     122675006001023797513MUG MINI LOVE ASSTD    0000002000+00000700+00000+0001T   00000700+0000001550          1400 S15515               3BZ
122675003122675018-000127     122675006001023380289MUG OCC STRAIGHT LOVE  0000001000+00001578+00000+0001T   00001753+0006471550          1400 S15515               3BZ
122675004122675903-000095     122675006001704011495SWT SPECKLED-EGGS 100G 0000001000+00002104+00000+0001T   00002104+0000001550          1400 S15150               3BZ
122675005122675903-000087     122675006001704000161SWT SPECKLED-EGGS 50G  0000002000+00001139+00000+0001T   00001139+0000001550          1400 S15150               3BZ
122676000122676               122676               170213OD     1400+00000+OD0000003156+0000003156+000000000+000000442+0000003590+0000000008+I20000000000+0000003590+Z
122676001122676077-000303     122676006001023593757GIFT-BAG PAPER MED     0000002000+00001578+00000+0001T   00001578+0000001552          1400 S15112               3BZ
122677000122677               122677               170213OD     1400+00000+OD0000001753+0000001753+000000000+000000246+0000001990+0000000009+I20000000000+0000001990+Z
122677001122677077-000324     122677006001023677594GIFT-BAG 33X45CM E/D FL0000001000+00001753+00000+0001T   00001753+0000001621          1400 S15112               3BZ
122678000122678               122678               170213OD     1400+00000+OD0000008752+0000008752+000000000+000001229+0000009981+0000000000+I40000009981+0000000000+Z
122678001122678112-116038     122678006009681820246TCS CARRIER BAG MIDI   0000001000+00000035+00000+0001T   00000035+0000001627          1400 S15090               3BZ
122678002122678903-000843     122678008693029031067SWT GUMMY JELAXY 80G   0000002000+00000964+00000+0001T   00000964+0000001627          1400 S15150               3BZ
122678003122678080-000133-A   122678006003000647019MINI VALENTINES CARD   0000002000+00000437+00000+0001T   00000437+0000001627          1400 S15112               3BZ
122678004122678018-000177     122678006001023797513MUG MINI LOVE ASSTD    0000001000+00000700+00000+0001T   00000700+0000001627          1400 S15515               3BZ
122678005122678077-000239     122678006003000160419GIFT-RIBBON ROLL PEARL 0000001000+00001753+00000+0001T   00001753+0000001627          1400 S15112               3BZ
122678006122678089-000220     122678006003000677368KEY CHAIN+PEN+KNIFE    0000001000+00003069+00000+0001T   00003069+0000001627          1400 S15205               3BZ
122678007122678903-000183     122678006003000451043SWT LB HEART LOLLY     0000001000+00000393+00000+0001T   00000393+0000001627          1400 S15150               3BZ
122679000122679               122679               170213OD     1400+00000+OD0000002358+0000002358+000000000+000000336+0000002690+0000000004+I20000000000+0000002690+Z
122679001122679903-000183     122679006003000451043SWT LB HEART LOLLY     0000006000+00000393+00000+0001T   00000393+0000001635          1400 S15150               3BZ
122680000122680               122680               170213OD     1400+00000+OD0000003945+0000003945+000000000+000000553+0000004498+0000000000+I40000004498+0000000000+Z
122680001122680079-000510     122680006001023509079CRAYONS WAX 12-COLOUR  0000001000+00002455+00000+0001T   00002455+0000001637          1400 S15130               3BZ
122680002122680567-014133     122680006003000560103BOOK COLOURING 48 PAGE 0000001000+00001490+00000+0001T   00001490+0000001637          1400 S15757               3BZ
122681000122681               122681               170213OD     1400+00000+OD0000011401+0000011401+000000000+000001597+0000012998+0000000000+I40000012998+0000000000+Z
122681001122681001-091415     122681006003000329113W/GLS OCC. LOVE 2PC 2800000001000+00008771+00000+0001T   00009648+0006471657          1400 S15515               3BZ
122681002122681077-000270     122681006003000395453GIFT-BAG PPR JMB 33X45 0000001000+00002630+00000+0001T   00002630+0000001657          1400 S15112               3BZ
122682000122682               122682               170213OD     1400+00000+OD0000002628+0000002628+000000000+000000368+0000002990+0000000006+I20000000000+0000002990+Z
122682001122682077-000310     122682006001023608635GIFT-BAG 18X23CM GLOSS 0000002000+00001314+00000+0001T   00001314+0000001658          1400 S15112               3BZ
122683000122683               122683               170213OD     1400+00000+OD0000002890+0000002890+000000000+000000406+0000003290+0000000006+I20000000000+0000003290+Z
122683001122683077-000383     122683006003000247943GIFT-BAG 11X14CM S/COL 0000002000+00000788+00000+0001T   00000788+0000001713          1400 S15112               3BZ
122683002122683077-000310     122683006001023608635GIFT-BAG 18X23CM GLOSS 0000001000+00001314+00000+0001T   00001314+0000001713          1400 S15112               3BZ
122684000122684               122684               170213OD     1400+00000+OD0000001753+0000001753+000000000+000000246+0000001990+0000000009+I20000000000+0000001990+Z
122684001122684077-000299-A   122684006003000670888GIFT-BAG PAPER JMB LOVE0000001000+00001753+00000+0001T   00001753+0000001714          1400 S15112               3BZ
122685000122685               122685               170213OD     1400+00000+OD0000002630+0000002630+000000000+000000369+0000002990+0000000009+I20000000000+0000002990+Z
122685001122685566-000308     122685006003000522521STICKER TAPE 3PCS      0000001000+00002630+00000+0001T   00002630+0000001714          1400 S15130               3BZ
122686000122686               122686               170213OD     1400+00000+OD0000004385+0000004385+000000000+000000614+0000004999+0000000000+I40000004999+0000000000+Z
122686001122686368-000001     122686006003000097982Plush Bear 25cm        0000001000+00004385+00000+0001T   00004385+0000001719          1400 S15745               3BZ
122687000122687               122687               170213OD     1400+00000+OD0000007268+0000007268+000000000+000001021+0000008280+0000000009+I20000000000+0000008280+Z
122687001122687077-000011-D   122687006001023808554TISSUE-WRAP WHITE 10PCE0000001000+00000876+00000+0001T   00000876+0000001726          1400 S15112               3BZ
122687002122687077-000011-C   122687006001023808523TISSUE 10xSHTS RED     0000001000+00000876+00000+0001T   00000876+0000001726          1400 S15112               3BZ
122687003122687077-000309-A   122687006003000671007GIFT-BAG HOLOGRAM JMB  0000001000+00002192+00000+0001T   00002192+0000001726          1400 S15112               3BZ
122687004122687006-000173-B   122687006003000636358BALLOONS HELIUM 1PC WHT0000004000+00000218+00000+0001T   00000218+0000001726          1400 S15131               3BZ
122687005122687006-001000     122687006003000093779HELIUM BALLOON FILL    0000004000+00000613+00000+0001T   00000613+0000001726          1400 S15131               3BZ
122688000122688               122688               170213OD     1400+00000+OD0000003243+0000003243+000000000+000000455+0000003690+0000000008+I20000000000+0000003690+Z
122688001122688079-000012     122688006001023655332P/CRAYONS 12-COL LONG  0000001000+00001753+00000+0001T   00001753+0000001728          1400 S15130               3BZ
122688002122688306-000985     122688006003000559831FIRSTAID PLASTER 10PC  0000001000+00001490+00000+0001T   00001490+0000001728          1400 S15200               3BZ
122689000122689               122689               170213OD     1400+00000+OD0000004420+0000004420+000000000+000000619+0000005030+0000000009+I20000000000+0000005030+Z
122689001122689001-000175     122689006001023788108B/MUG GLS LOVE 380ML   0000001000+00004385+00000+0001T   00004385+0000001756          1400 S15515               3BZ
122689002122689112-116038     122689006009681820246TCS CARRIER BAG MIDI   0000001000+00000035+00000+0001T   00000035+0000001756          1400 S15090               3BZ
122690000122690               122690               170213OD     1400+00000+OD0000005085+0000005085+000000000+000000712+0000005790+0000000007+I20000000000+0000005790+Z
122690001122690162-093205     122690006001492932057#TAG KIDS BEST NK      0000001000+00003507+00000+0001T   00003507+0000001756          1400 S15160               3BZ
122690002122690080-000124     122690006003000297733CARD & ENV VALENTINES  0000001000+00001578+00000+0001T   00001578+0000001756          1400 S15112               3BZ
122691000122691               122691               170213OD     1400+00000+OD0000006612+0000006612+000000000+000000926+0000007538+0000000000+I40000007538+0000000000+Z
122691001122691001-000175     122691006001023788108B/MUG GLS LOVE 380ML   0000001000+00004385+00000+0001T   00004385+0000001800          1400 S15515               3BZ
122691002122691080-000127     122691006003000424351VALENTINES DAY 36x24CM 0000001000+00002192+00000+0001T   00002192+0000001800          1400 S15112               3BZ
122691003122691112-116038     122691006009681820246TCS CARRIER BAG MIDI   0000001000+00000035+00000+0001T   00000035+0000001800          1400 S15090               3BZ
122692000122692               122692               170213OD     1400+00000+OD0000001753+0000001753+000000000+000000246+0000001990+0000000009+I20000000000+0000001990+Z
122692001122692077-000289     122692006001023901996GIFT BOX 20x25x11cm    0000001000+00001753+00000+0001T   00001753+0000001801          1400 S15112               3BZ
122693000122693               122693               170213OD     1400+00000+OD0000036838+0000036838+000000000+000005159+0000041997+0000000000+I40000041997+0000000000+Z
122693001122693031-001007     122693006003000406784P/FRAME WDN CLG 20X95CM0000001000+00012279+00000+0001T   00012279+0000001803          1400 S15510               3BZ
122693002122693001-091415     122693006003000329113W/GLS OCC. LOVE 2PC 2800000001000+00008771+00000+0001T   00009648+0006471803          1400 S15515               3BZ
122693003122693301-001123     122693000694202803967ORN FOUNTAIN MEDITATION0000001000+00015788+00000+0001T   00015788+0000001803          1400 S15505               3BZ
A17021300                                          10042700ODSLAVE 3                       S151IC
A17021301                                          10404833ODSLAVE 3                       S152IC
M17021391                              CASH        ODSLAVE 3                       Z-REPORT No.   626TOTAL (Sales - Refunds)           3963.71       CASH TO BE BANKED                 1705.30       DEBIT CARDS                          0.00       CREDIT CARDS                      2258.41       Z-READING                         3963.71       AIRTIME DEBIT CARD SALES             0.00       AIRTIME CARD SALES                   0.00       OVERS/UNDERS                         0.00       AIRTIME CASH SALES                   0.00       GIFT CARDS                           0.00       GIFT CARD CASH SALES                 0.00       T O T A L  CASH PAYOUTS              0.00                                                                                                                                                                                                                                                                                                                                                      Z
M17021392                              CASH        ODABSENT                                                                                                                                                                                          ANNUAL LEAVE                                                                                                                                                                                    DAY OFF                                                                                                                                                                                         COMMENTS                                                                                                                                                                                                                                                                                                                                                                                       Z
Y17021300                                          OD00000000361114+000042
ZOD17021320113 SLAVE 3      SALES DATA                     NEXT INVOICE NO.  122694 0626
X OD Slave 3 First invoice 122652 170213 Last invoice 122693 170213 Next invoice 122694 Total number of records 000000171 clbackup completed 20:11:54
