304047000304047               304047               170213OE     1400+00000+OE0000006574+0000006574+000000000+000000922+0000007496+0000000000+I40000007496+0000000000+Z
304047001304047079-013101     304047006001023863706CRAFT SET DIY PIPE-CLNR0000001000+00002630+00000+0001T   00002630+0000000914          1400 GM4130               3AZ
304047002304047362-000307     304047006003000519750HAIR HEADBAND PRINTED  0000001000+00001314+00000+0001T   00001314+0000000914          1400 GM4160               3AZ
304047003304047079-013032-D   304047006003000389643RIBBONS                0000001000+00002630+00000+0001T   00002630+0000000914          1400 GM4130               3AZ
304048000304048               304048               170213OE     1400+00000+OE0000007450+0000007450+000000000+000001044+0000008490+0000000004+I20000000000+0000008490+Z
304048001304048077-000011     304048006003000542352PAPER RAFFIA ASSTD COL 0000001000+00001753+00000+0001T   00001753+0000000920          1400 GM4112               3AZ
304048002304048006-000166-D   304048006003000516490BALLOONS LRG 6PC RED   0000002000+00001314+00000+0001T   00001314+0000000920          1400 GM4131               3AZ
304048003304048301-085008     304048006003000673933ORN OCC.LOVE TINSEL HRT0000001000+00003069+00000+0001T   00003069+0000000920          1400 GM4505               3AZ
304049000304049               304049               170213OE     1400+00000+OE0000007938+0000007938+000000000+000001114+0000009050+0000000002+I20000000000+0000009050+Z
304049001304049007-000049     304049006003000274994OFFICE E/LOPE A4 PK 5  0000003000+00002630+00000+0001T   00002630+0000000920          1400 GM4130               3AZ
304049002304049112-116069     304049006009681820277TCS CARRIER BAG JUMBO  0000001000+00000048+00000+0001T   00000048+0000000920          1400 GM4090               3AZ
304050000304050               304050               170213OE     1400+00000+OE0000001490+0000001490+000000000+000000209+0000001690+0000000009+I20000000000+0000001690+Z
304050001304050004-078992     304050004905524102529EARPHONES MINI         0000001000+00001490+00000+0001T   00001490+0000000928          1400 GM4310               3AZ
304051000304051               304051               170213OE     1400+00000+OE0000004766+0000004766+000000000+000000669+0000005430+0000000005+I20000000000+0000005430+Z
304051001304051077-000314     304051006003000181148GIFT-BAG 11X14CM MATT  0000002000+00000876+00000+0001T   00000876+0000000932          1400 GM4112               3AZ
304051002304051077-000245     304051006001023759214GIFT-RIBBON METALLICx2 0000001000+00001227+00000+0001T   00001227+0000000932          1400 GM4112               3AZ
304051003304051077-000150-D   304051006003000054343GIFT-WRAP CELLPHANE CLR0000002000+00000876+00000+0001T   00000876+0000000932          1400 GM4112               3AZ
304051004304051112-116038     304051006009681820246TCS CARRIER BAG MIDI   0000001000+00000035+00000+0001T   00000035+0000000932          1400 GM4090               3AZ
304052000304052               304052               170213OE     1400+00000+OE0000001926+0000001926+000000000+000000271+0000002190+0000000007+I20000000000+0000002190+Z
304052001304052903-000155     304052006009803374435SWT LOLLY I LUV U HEART0000002000+00000525+00000+0001T   00000525+0000000932          1400 GM4150               3AZ
304052002304052077-000150-D   304052006003000054343GIFT-WRAP CELLPHANE CLR0000001000+00000876+00000+0001T   00000876+0000000932          1400 GM4112               3AZ
304053000304053               304053               170213OE     1400+00000+OE0000003681+0000003681+000000000+000000517+0000004198+0000000000+I40000004198+0000000000+Z
304053001304053082-007581     304053006003000465767SUNGLASSES DESIGNER    0000001000+00002630+00000+0001T   00002630+0000000956          1400 GM4160               3AZ
304053002304053033-000124     304053006009654960597COMBS HANDLE + TAIL 2PC0000001000+00001051+00000+0001T   00001051+0000000956          1400 GM4200               3AZ
304054000304054               304054               170213OE     1400+00000+OE0000014067+0000014067+000000000+000001971+0000016038+0000000000+I40000016038+0000000000+Z
304054001304054004-071209     304054006003000604678MOBILE IN CAR HOLDER   0000001000+00007893+00000+0001T   00007893+0000000958          1400 GM4310               3AZ
304054002304054004-071272     304054006001023855343DVD-DISC WRITABLE DR-100000001000+00006139+00000+0001T   00006139+0000000958          1400 GM4310               3AZ
304054003304054112-116038     304054006009681820246TCS CARRIER BAG MIDI   0000001000+00000035+00000+0001T   00000035+0000000958          1400 GM4090               3AZ
304055000304055               304055               170213OE     1400+00000+OE0000007893+0000007893+000000000+000001106+0000008990+0000000009+I20000000000+0000008990+Z
304055001304055586-098612     304055006001492986128WATCH KIDS RUBBER ASSTD0000001000+00007893+00000+0001T   00007893+0000001001          1400 GM4160               3AZ
304056000304056               304056               170213OE     1400+00000+OE0000002630+0000002630+000000000+000000369+0000002990+0000000009+I20000000000+0000002990+Z
304056001304056079-001002     304056006003000448715CANVAS A4 WOOD MOUNTED 0000001000+00002630+00000+0001T   00002630+0000001012          1400 GM4130               3AZ
304057000304057               304057               170213OE     1400+00000+OE0000004383+0000004383+000000000+000000615+0000004998+0000000000+I40000004998+0000000000+Z
304057001304057105-001021     304057006003000667062CONTAINER MICRO/FREEZER0000001000+00001753+00000+0001T   00002630+0008161015          1400 GM4210               3AZ
304057002304057106-008100     304057006001023764126MEASURING-SHAKER 500ml 0000001000+00002630+00000+0001T   00002630+0000001015          1400 GM4210               3AZ
304058000304058               304058               170213OE     1400+00000+OE0000003243+0000003243+000000000+000000455+0000003690+0000000008+I20000000000+0000003690+Z
304058001304058077-000316     304058006001023609731GIFT-BAG 25X32CM MATT  0000001000+00001753+00000+0001T   00001753+0000001017          1400 GM4112               3AZ
304058002304058039-000108     304058006001023524034TEA-LITE CANDLES 8PCE  0000001000+00001490+00000+0001T   00001490+0000001017          1400 GM4510               3AZ
304059000304059               304059               170213OE     1400+00000+OE0000004384+0000004384+000000000+000000614+0000004998+0000000000+I40000004998+0000000000+Z
304059001304059080-000127     304059006003000424351VALENTINES DAY 36x24CM 0000002000+00002192+00000+0001T   00002192+0000001022          1400 GM4112               3AZ
304060000304060               304060               170213OE     1400+00000+OE0000001753+0000001753+000000000+000000246+0000001990+0000000009+I20000000000+0000001990+Z
304060001304060077-000316     304060006001023609731GIFT-BAG 25X32CM MATT  0000001000+00001753+00000+0001T   00001753+0000001023          1400 GM4112               3AZ
304061000304061               304061               170213OE     1400+00000+OE0000007887+0000007887+000000000+000001107+0000008994+0000000000+I40000008994+0000000000+Z
304061001304061077-000005-B   304061006003000326617PAPER TISSUE PATTERN   0000001000+00002630+00000+0001T   00002630+0000001024          1400 GM4112               3AZ
304061002304061077-000324     304061006001023677594GIFT-BAG 33X45CM E/D FL0000001000+00001753+00000+0001T   00001753+0000001024          1400 GM4112               3AZ
304061003304061903-003080     304061005907029004673SWT SNACK STIX CHOC 50g0000004000+00000876+00000+0001T   00000876+0000001024          1400 GM4150               3AZ
304062000304062               304062               170213OE     1400+00000+OE0000004820+0000004820+000000000+000000675+0000005495+0000000000+I40000005495+0000000000+Z
304062001304062080-000127     304062006003000424351VALENTINES DAY 36x24CM 0000001000+00002192+00000+0001T   00002192+0000001026          1400 GM4112               3AZ
304062002304062089-000097     304062006003000457007K/CHAIN SILVER 3.4cm   0000001000+00001314+00000+0001T   00001753+0008121026          1400 GM4205               3AZ
304062003304062903-000194     304062006009826020616SWT CHOC RP LOLLY 25G  0000001000+00001314+00000+0001T   00001314+0000001026          1400 GM4150               3AZ
304063000304063               304063               170213OE     1400+00000+OE0000005262+0000005262+000000000+000000737+0000005999+0000000000+I40000005999+0000000000+Z
304063001304063018-019000     304063006003000557288MUG OCC. LOVE JUMBO    0000001000+00005262+00000+0001T   00005262+0000001027          1400 GM4515               3AZ
304064000304064               304064               170213OE     1400+00000+OE0000015778+0000015778+000000000+000002213+0000017990+0000000001+I20000000000+0000017990+Z
304064001304064077-000011-D   304064006001023808554TISSUE-WRAP WHITE 10PCE0000001000+00000876+00000+0001T   00000876+0000001028          1400 GM4112               3AZ
304064002304064566-000070     304064006003000283798STICKERS POP UP ASSTD  0000005000+00001753+00000+0001T   00001753+0000001028          1400 GM4130               3AZ
304064003304064007-000534     304064006001023847836NOTE-BOOK H/C ASSTD    0000001000+00002630+00000+0001T   00002630+0000001028          1400 GM4130               3AZ
304064004304064007-000561     304064006003000589128NOVELTY NOTEBOOK       0000001000+00003507+00000+0001T   00003507+0000001028          1400 GM4130               3AZ
304065000304065               304065               170213OE     1400+00000+OE0000003243+0000003243+000000000+000000455+0000003690+0000000008+I20000000000+0000003690+Z
304065001304065075-000360     304065006003000267705PURSE 9x6cm B-FLY/ROSE 0000001000+00002630+00000+0001T   00002630+0000001032          1400 GM4160               3AZ
304065002304065083-000055     304065006003000003853LIGHTER ELCTRNC REFILBL0000001000+00000613+00000+0001T   00000613+0000001032          1400 GM4315               3AZ
304066000304066               304066               170213OE     1400+00000+OE0000020173+0000020173+000000000+000002825+0000022998+0000000000+I40000022998+0000000000+Z
304066001304066368-000012     304066006003000610464PLUSH BEAR 30cm SITTING0000001000+00008771+00000+0001T   00008771+0000001035          1400 GM4745               3AZ
304066002304066368-000181     304066006003000668052PLUSH BUNNY 27cm       0000001000+00011402+00000+0001T   00011402+0000001035          1400 GM4745               3AZ
304067000304067               304067               170213OE     1400+00000+OE0000011570+0000011570+000000000+000001623+0000013190+0000000003+I20000000000+0000013190+Z
304067001304067027-000194     304067006001246602472MOP COMPLETE           0000001000+00002279+00000+0001T   00002279+0000001037          1400 GM4212               3AZ
304067002304067027-001020     304067006001246602519BROOM FLOOR W/HANDLE   0000001000+00002279+00000+0001T   00002279+0000001037          1400 GM4212               3AZ
304067003304067027-783000     304067006001023874641SCOURERS RAINBOW 5PCE  0000001000+00001753+00000+0001T   00001753+0000001037          1400 GM4212               3AZ
304067004304067027-783006     304067006003000060719SCOURERS SPONGE        0000001000+00000876+00000+0001T   00000876+0000001037          1400 GM4212               3AZ
304067005304067107-004105     304067006002923010504BUCKET 9L OPEN         0000001000+00001314+00000+0001T   00001314+0000001037          1400 GM4210               3AZ
304067006304067027-009032     304067006001246775107DUSTPAN JUMBO          0000001000+00003069+00000+0001T   00003069+0000001037          1400 GM4212               3AZ
304068000304068               304068               170213OE     1400+00000+OE0000014066+0000014066+000000000+000001971+0000016037+0000000000+I40000016037+0000000000+Z
304068001304068159-000684     304068006001023776532BATH BODY-GLOVE 18cm   0000001000+00002630+00000+0001T   00002630+0000001054          1400 GM4200               3AZ
304068002304068079-001002     304068006003000448715CANVAS A4 WOOD MOUNTED 0000001000+00002630+00000+0001T   00002630+0000001054          1400 GM4130               3AZ
304068003304068001-091415     304068006003000329113W/GLS OCC. LOVE 2PC 2800000001000+00008771+00000+0001T   00009648+0006471054          1400 GM4515               3AZ
304068004304068112-116038     304068006009681820246TCS CARRIER BAG MIDI   0000001000+00000035+00000+0001T   00000035+0000001054          1400 GM4090               3AZ
304069000304069               304069               170213OE     1400+00000+OE0000040643+0000040643+000000000+000005698+0000046340+0000000001+I20000000000+0000046340+Z
304069001304069301-085001     304069006003000297610ORN WATERBALL LOVE ASST0000002000+00004823+00000+0001T   00004823+0000001058          1400 GM4505               3AZ
304069002304069560-000102     304069006001023746979ANIMALS FARM IN-TUBE   0000001000+00003507+00000+0001T   00003507+0000001058          1400 GM4745               3AZ
304069003304069560-000703     304069006003000332403INSECTS 9PC ASSTD      0000001000+00001753+00000+0001T   00001753+0000001058          1400 GM4745               3AZ
304069004304069903-000087     304069006001704000161SWT SPECKLED-EGGS 50G  0000002000+00001139+00000+0001T   00001139+0000001058          1400 GM4150               3AZ
304069005304069903-000494     304069006001704009911SWT GUMMY TEENY TEDDIES0000001000+00000876+00000+0001T   00000876+0000001058          1400 GM4150               3AZ
304069006304069007-000551     304069006001023848079NOTE-PAD SHOP-LIST ASST0000002000+00001753+00000+0001T   00001753+0000001058          1400 GM4130               3AZ
304069007304069007-000724     304069006003000225958NOTE MAGNETIC 60SHTS   0000001000+00001753+00000+0001T   00001753+0000001058          1400 GM4130               3AZ
304069008304069301-085001     304069006003000297610ORN WATERBALL LOVE ASST0000001000+00004823+00000+0001T   00004823+0000001058          1400 GM4505               3AZ
304069009304069112-116069     304069006009681820277TCS CARRIER BAG JUMBO  0000001000+00000048+00000+0001T   00000048+0000001058          1400 GM4090               3AZ
304069010304069079-009702-G   304069008427973060787PAPER SIRIO A2 FUSHIA  0000001000+00001051+00000+0001T   00001051+0000001058          1400 GM4130               3AZ
304069011304069035-000030     304069006002596030229UMBRELLA GOLF 16-RIB   0000001000+00011402+00000+0001T   00011402+0000001058          1400 GM4205               3AZ
304070000304070               304070               170213OE     1400+00000+OE0000027112+0000027112+000000000+000003808+0000030920+0000000000+I20000000000+0000030920+Z
304070001304070563-000317-A   304070006001023776167SERVIETTES 20PK PATTERN0000002000+00002630+00000+0001T   00002630+0000001104          1400 GM4214               3AZ
304070002304070567-075490     304070009780799375787BK NOVEL ROMANCE AFR   0000001000+00003507+00000+0001T   00003507+0000001104          1400 GM4757               3AZ
304070003304070903-000194     304070006009826020616SWT CHOC RP LOLLY 25G  0000001000+00001314+00000+0001T   00001314+0000001104          1400 GM4150               3AZ
304070004304070039-000026     304070006001023551610C/TAPERED 25CM M/RED   0000012000+00001051+00000+0001T   00001051+0000001104          1400 GM4510               3AZ
304070005304070112-116038     304070006009681820246TCS CARRIER BAG MIDI   0000001000+00000035+00000+0001T   00000035+0000001104          1400 GM4090               3AZ
304070006304070563-000318-L   304070006003000407088SERVIETTES 33cm RED    0000002000+00002192+00000+0001T   00002192+0000001104          1400 GM4214               3AZ
304071000304071               304071               170213OE     1400+00000+OE0000006475+0000006475+000000000+000000910+0000007380+0000000005+I20000000000+0000007380+Z
304071001304071903-000183     304071006003000451043SWT LB HEART LOLLY     0000001000+00000393+00000+0001T   00000393+0000001111          1400 GM4150               3AZ
304071002304071903-000200     304071006009826020234SWT CHOC RP CHOCO 23G  0000001000+00000788+00000+0001T   00000788+0000001111          1400 GM4150               3AZ
304071003304071566-000018     304071006001023995018S/BOOK H/MADE STICKER  0000001000+00000876+00000+0001T   00000876+0000001111          1400 GM4130               3AZ
304071004304071079-013032     304071006003000389209SET LETTERS 2 ASSTD    0000001000+00001753+00000+0001T   00001753+0000001111          1400 GM4130               3AZ
304071005304071079-013032-D   304071006003000389643RIBBONS                0000001000+00002630+00000+0001T   00002630+0000001111          1400 GM4130               3AZ
304071006304071112-116038     304071006009681820246TCS CARRIER BAG MIDI   0000001000+00000035+00000+0001T   00000035+0000001111          1400 GM4090               3AZ
304072000304072               304072               170213OE     1400+00000+OE0000010040+0000010040+000000000+000001408+0000011448+0000000000+I40000011448+0000000000+Z
304072001304072112-116069     304072006009681820277TCS CARRIER BAG JUMBO  0000001000+00000048+00000+0001T   00000048+0000001116          1400 GM4090               3AZ
304072002304072018-000205     304072006003000579976M/DAILY STRAIGHT SHAPE 0000001000+00001753+00000+0001T   00001753+0000001116          1400 GM4515               3AZ
304072003304072018-000108     304072006001023380265MUG NOVELTY ICON ASST  0000001000+00001753+00000+0001T   00001753+0000001116          1400 GM4515               3AZ
304072004304072018-005035     304072006003000150700MUG NOVELTY CER 3-HNDLE0000001000+00003507+00000+0001T   00003507+0000001116          1400 GM4515               3AZ
304072005304072903-000521     304072006001704009652SWT GUMMY SOFT GUMS    0000001000+00000876+00000+0001T   00000876+0000001116          1400 GM4150               3AZ
304072006304072903-000220     304072006001704007368SWT JELLY BEANS 60G    0000001000+00000876+00000+0001T   00000876+0000001116          1400 GM4150               3AZ
304072007304072903-000504     304072006001704012416SWT CHOC JELLY BEANS   0000001000+00001227+00000+0001T   00001227+0000001116          1400 GM4150               3AZ
304073000304073               304073               170213OE     1400+00000+OE0000001753+0000001753+000000000+000000246+0000001990+0000000009+I20000000000+0000001990+Z
304073001304073133-000381     304073006001023713674TABLE-CLOTH 132x178cm  0000001000+00001753+00000+0001T   00001753+0000001118          1400 GM4212               3AZ
304074000304074               304074               170213OE     1400+00000+OE0000001753+0000001753+000000000+000000246+0000001990+0000000009+I20000000000+0000001990+Z
304074001304074080-000113     304074006003000237449CARD&ENVLPE - LOVE     0000001000+00001753+00000+0001T   00001753+0000001150          1400 GM4112               3AZ
304075000304075               304075               170213OE     1400+00000+OE0000007450+0000007450+000000000+000001044+0000008490+0000000004+I20000000000+0000008490+Z
304075001304075566-000367     304075006003000645558STICKER WINDOW DECOR   0000001000+00002630+00000+0001T   00002630+0000001151          1400 GM4130               3AZ
304075002304075566-000068     304075006003000418046POP UP LOVE 2 ASSTD    0000001000+00002192+00000+0001T   00002192+0000001151          1400 GM4130               3AZ
304075003304075903-000194     304075006009826020616SWT CHOC RP LOLLY 25G  0000002000+00001314+00000+0001T   00001314+0000001151          1400 GM4150               3AZ
304076000304076               304076               170213OE     1400+00000+OE0000021047+0000021047+000000000+000002948+0000023990+0000000005+I20000000000+0000023990+Z
304076001304076466-000518     304076006003000027460BADMINTON SET          0000001000+00003507+00000+0001T   00003507+0000001159          1400 GM4785               3AZ
304076002304076264-000927     304076000090159393009MAISTO MOTORBIKE 1:18  0000001000+00008771+00000+0001T   00008771+0000001159          1400 GM4710               3AZ
304076003304076466-000103     304076000681070950312BALL 20cm ASSTD        0000001000+00001753+00000+0001T   00001753+0000001159          1400 GM4785               3AZ
304076004304076466-000075     304076006003000669288BALL RUGBY MESH 27.9cm 0000001000+00007016+00000+0001T   00007016+0000001159          1400 GM4785               3AZ
304077000304077               304077               170213OE     1400+00000+OE0000004385+0000004385+000000000+000000614+0000004999+0000000000+I40000004999+0000000000+Z
304077001304077031-080508     304077006001023802415P/FRAME PL 22X11CM LOVE0000001000+00004385+00000+0001T   00004385+0000001214          1400 GM4510               3AZ
304078000304078               304078               170213OE     1400+00000+OE0000029854+0000029854+000000000+000004187+0000034041+0000000000+I40000034041+0000000000+Z
304078001304078112-116069     304078006009681820277TCS CARRIER BAG JUMBO  0000001000+00000048+00000+0001T   00000048+0000001223          1400 GM4090               3AZ
304078002304078071-000404     304078006001023676696P/SHARPENER WORLD-GLOBE0000001000+00002192+00000+0001T   00002192+0000001223          1400 GM4130               3AZ
304078003304078071-081091     304078006001151010287STAED/GENKEM ALL-STICK 0000001000+00001227+00000+0001T   00001227+0000001223          1400 GM4130               3AZ
304078004304078079-013032-D   304078006003000389643RIBBONS                0000002000+00002630+00000+0001T   00002630+0000001223          1400 GM4130               3AZ
304078005304078079-006494     304078006003000159864GLITTER GLUE 5PCE 11cm 0000001000+00001490+00000+0001T   00001490+0000001223          1400 GM4130               3AZ
304078006304078079-006496     304078006003000160105GLITTER SHAKERS        0000001000+00001753+00000+0001T   00001753+0000001223          1400 GM4130               3AZ
304078007304078089-000141-H   304078006001023416568KEY-CHAINS 6PCE     H&H0000001000+00001490+00000+0001T   00001490+0000001223          1400 GM4205               3AZ
304078008304078071-081101-A   304078006003000326549GLUE-STICK 25g BLISTER 0000002000+00000788+00000+0001T   00000788+0000001223          1400 GM4130               3AZ
304078009304078566-000068     304078006003000418046POP UP LOVE 2 ASSTD    0000001000+00002192+00000+0001T   00002192+0000001223          1400 GM4130               3AZ
304078010304078089-000141-H   304078006001023416568KEY-CHAINS 6PCE     H&H0000001000+00001490+00000+0001T   00001490+0000001223          1400 GM4205               3AZ
304078011304078306-001002     304078006003000560233PLASTER FABRIC 10PC    0000001000+00001490+00000+0001T   00001490+0000001223          1400 GM4200               3AZ
304078012304078065-006042     304078006001023712998MARACAS 2PCE CHA-CHA   0000001000+00001753+00000+0001T   00001753+0000001223          1400 GM4745               3AZ
304078013304078030-005000     304078006003000455874P/WDN SIGN 23X23CM 4-AS0000001000+00007893+00000+0001T   00007893+0000001223          1400 GM4505               3AZ
304079000304079               304079               170213OE     1400+00000+OE0000001314+0000001314+000000000+000000184+0000001490+0000000008+I20000000000+0000001490+Z
304079001304079004-071280     304079006003000129959WRITABLE-CD SINGLE     0000001000+00001314+00000+0001T   00001314+0000001225          1400 GM4310               3AZ
304080000304080               304080               170213OE     1400+00000+OE0000011434+0000011434+000000000+000001602+0000013036+0000000000+I40000013036+0000000000+Z
304080001304080018-050000     304080006003000412679MUG OCC LOVE TWIN BEAR 0000001000+00006139+00000+0001T   00006139+0000001227          1400 GM4515               3AZ
304080002304080080-000113     304080006003000237449CARD&ENVLPE - LOVE     0000001000+00001753+00000+0001T   00001753+0000001227          1400 GM4112               3AZ
304080003304080007-000713     304080006003000227273NOTE-BK DIARY W/LOCK   0000001000+00003507+00000+0001T   00003507+0000001227          1400 GM4130               3AZ
304080004304080112-116038     304080006009681820246TCS CARRIER BAG MIDI   0000001000+00000035+00000+0001T   00000035+0000001227          1400 GM4090               3AZ
304081000304081               304081               170213OE     1400+00000+OE0000010731+0000010731+000000000+000001504+0000012230+0000000005+I20000000000+0000012230+Z
304081001304081077-000452     304081006003000284986G/BAG METALLIC MED EMB 0000002000+00001490+00000+0001T   00001490+0000001233          1400 GM4112               3AZ
304081002304081030-000030-B   304081006003000249381PLAQUE GLASS MOM       0000002000+00003069+00000+0001T   00003069+0000001233          1400 GM4505               3AZ
304081003304081080-000124     304081006003000297733CARD & ENV VALENTINES  0000001000+00001578+00000+0001T   00001578+0000001233          1400 GM4112               3AZ
304081004304081112-116038     304081006009681820246TCS CARRIER BAG MIDI   0000001000+00000035+00000+0001T   00000035+0000001233          1400 GM4090               3AZ
304082000304082               304082               170213OE     1400+00000+OE0000004820+0000004820+000000000+000000676+0000005490+0000000006+I20000000000+0000005490+Z
304082001304082080-000124     304082006003000297733CARD & ENV VALENTINES  0000001000+00001578+00000+0001T   00001578+0000001234          1400 GM4112               3AZ
304082002304082080-000127     304082006003000424351VALENTINES DAY 36x24CM 0000001000+00002192+00000+0001T   00002192+0000001234          1400 GM4112               3AZ
304082003304082903-000155     304082006009803374435SWT LOLLY I LUV U HEART0000002000+00000525+00000+0001T   00000525+0000001234          1400 GM4150               3AZ
304083000304083               304083               170213OE     1400+00000+OE0000036430+0000036430+000000000+000005105+0000041535+0000000000+I40000041535+0000000000+Z
304083001304083466-000200     304083006001023621665HULA-HOOP     ASSTD    0000001000+00001753+00000+0001T   00001753+0000001243          1400 GM4785               3AZ
304083002304083077-000314     304083006003000181148GIFT-BAG 11X14CM MATT  0000003000+00000876+00000+0001T   00000876+0000001243          1400 GM4112               3AZ
304083003304083077-000311     304083006001023608666GIFT-BAG 11X14CM GLOSS 0000003000+00000613+00000+0001T   00000613+0000001243          1400 GM4112               3AZ
304083004304083077-000314     304083006003000181148GIFT-BAG 11X14CM MATT  0000001000+00000876+00000+0001T   00000876+0000001243          1400 GM4112               3AZ
304083005304083077-000384     304083006003000275243G/BAG HOT STMP 18x23CM 0000002000+00001490+00000+0001T   00001490+0000001243          1400 GM4112               3AZ
304083006304083301-085003     304083006003000420827ORN OCCASION LOVE KEY  0000001000+00005262+00000+0001T   00005262+0000001243          1400 GM4505               3AZ
304083007304083077-000299     304083006003000395576G/BAG 32x25cm LRG LOVE 0000001000+00001490+00000+0001T   00001490+0000001243          1400 GM4112               3AZ
304083008304083080-000139     304083006003000611690CARD & ENV MINI SET 6PC0000001000+00002192+00000+0001T   00002192+0000001243          1400 GM4112               3AZ
304083009304083112-116069     304083006009681820277TCS CARRIER BAG JUMBO  0000001000+00000048+00000+0001T   00000048+0000001243          1400 GM4090               3AZ
304083010304083301-085004     304083006003000420469ORN LOVE PLAQUE 21X10CM0000002000+00003507+00000+0001T   00003946+0006471243          1400 GM4505               3AZ
304083011304083018-030000     304083006003000421060MUG OCCASIONS LOVE 2PCE0000002000+00004385+00000+0001T   00004385+0000001243          1400 GM4515               3AZ
304083012304083018-000127     304083006001023380289MUG OCC STRAIGHT LOVE  0000001000+00001578+00000+0001T   00001753+0006471243          1400 GM4515               3AZ
304084000304084               304084               170213OE     1400+00000+OE0000019163+0000019163+000000000+000002685+0000021848+0000000000+I40000021848+0000000000+Z
304084001304084031-000923     304084006001023669933P/FRAME BLK W/WORDS    0000001000+00003507+00000+0001T   00003507+0000001245          1400 GM4510               3AZ
304084002304084031-006541     304084006001023695062P/FRAME COLLAGE PL ASST0000001000+00005262+00000+0001T   00005262+0000001245          1400 GM4510               3AZ
304084003304084018-000127     304084006001023380289MUG OCC STRAIGHT LOVE  0000001000+00001578+00000+0001T   00001753+0006471245          1400 GM4515               3AZ
304084004304084079-000206     304084006003000639700PENCIL CRAYONS THERAPY 0000002000+00001753+00000+0001T   00001753+0000001245          1400 GM4130               3AZ
304084005304084018-019000     304084006003000557288MUG OCC. LOVE JUMBO    0000001000+00005262+00000+0001T   00005262+0000001245          1400 GM4515               3AZ
304084006304084112-116069     304084006009681820277TCS CARRIER BAG JUMBO  0000001000+00000048+00000+0001T   00000048+0000001245          1400 GM4090               3AZ
304085000304085               304085               170213OE     1400+00000+OE0000011880+0000011880+000000000+000001668+0000013548+0000000000+I10000003548+0000010000+Z
304085001304085077-000011-X   304085006001023809827TISSUE-WRAP SILVER 10PC0000001000+00001753+00000+0001T   00001753+0000001307          1400 GM4112               3AZ
304085002304085077-000316     304085006001023609731GIFT-BAG 25X32CM MATT  0000002000+00001753+00000+0001T   00001753+0000001307          1400 GM4112               3AZ
304085003304085080-000106     304085006003000237098CARD&ENVLPE BDAY GIRL  0000001000+00001753+00000+0001T   00001753+0000001307          1400 GM4112               3AZ
304085004304085077-000299-A   304085006003000670888GIFT-BAG PAPER JMB LOVE0000001000+00001753+00000+0001T   00001753+0000001307          1400 GM4112               3AZ
304085005304085077-000456     304085006003000285549G/BAG METALLIC JMB EMB 0000001000+00002630+00000+0001T   00002630+0000001307          1400 GM4112               3AZ
304085006304085112-116069     304085006009681820277TCS CARRIER BAG JUMBO  0000001000+00000048+00000+0001T   00000048+0000001307          1400 GM4090               3AZ
304085007304085080-000133     304085006003000535613CARD&ENV MINI ASTD DSGN0000001000+00000437+00000+0001T   00000437+0000001307          1400 GM4112               3AZ
304086000304086               304086               170213OE     1400+00000+OE0000024245+0000024245+000000000+000003398+0000027643+0000000000+I40000027643+0000000000+Z
304086001304086200-003024     304086006001023657299REFUSE BAGS 20PCE BLACK0000001000+00001753+00000+0001T   00001753+0000001309          1400 GM4214               3AZ
304086002304086088-000080     304086006003000622863DRAWER LINERS SCENTED  0000001000+00005262+00000+0001T   00005262+0000001309          1400 GM4212               3AZ
304086003304086054-009026     304086006001023627735PAINT-BRUSH ASSTD      0000001000+00003507+00000+0001T   00003507+0000001309          1400 GM4810               3AZ
304086004304086133-000017     304086006003000525171CLEANING-CLOTHS 5PCE   0000001000+00003507+00000+0001T   00003507+0000001309          1400 GM4212               3AZ
304086005304086007-000724     304086006003000225958NOTE MAGNETIC 60SHTS   0000001000+00001753+00000+0001T   00001753+0000001309          1400 GM4130               3AZ
304086006304086001-000175     304086006001023788108B/MUG GLS LOVE 380ML   0000001000+00004385+00000+0001T   00004385+0000001309          1400 GM4515               3AZ
304086007304086077-000299     304086006003000395576G/BAG 32x25cm LRG LOVE 0000001000+00001490+00000+0001T   00001490+0000001309          1400 GM4112               3AZ
304086008304086903-000200     304086006009826020234SWT CHOC RP CHOCO 23G  0000001000+00000788+00000+0001T   00000788+0000001309          1400 GM4150               3AZ
304086009304086903-003051     304086008024431008703SWT CHOCO PARTY 25G    0000001000+00000876+00000+0001T   00000876+0000001309          1400 GM4150               3AZ
304086010304086903-003050     304086008024431008239SWT CHOC CONE H/NUT 25G0000001000+00000876+00000+0001T   00000876+0000001309          1400 GM4150               3AZ
304086011304086112-116069     304086006009681820277TCS CARRIER BAG JUMBO  0000001000+00000048+00000+0001T   00000048+0000001309          1400 GM4090               3AZ
304087000304087               304087               170213OE     1400+00000+OE0000003023+0000003023+000000000+000000424+0000003447+0000000000+I40000003447+0000000000+Z
304087001304087007-000160     304087006009685857286NOTE-BOOK A5 SHORTHAND 0000001000+00001227+00000+0001T   00001227+0000001314          1400 GM4130               3AZ
304087002304087039-000108     304087006001023524034TEA-LITE CANDLES 8PCE  0000001000+00001490+00000+0001T   00001490+0000001314          1400 GM4510               3AZ
304087003304087079-009700-D   304087006003000545711PAPER SIRIO A4 RED COL.0000001000+00000306+00000+0001T   00000306+0000001314          1400 GM4130               3AZ
304088000304088               304088               170213OE     1400+00000+OE0000009206+0000009206+000000000+000001289+0000010490+0000000005+I20000000000+0000010490+Z
304088001304088089-000200     304088006003000485840KEY CHAIN POLY LOVE IS 0000001000+00003507+00000+0001T   00004385+0008121315          1400 GM4205               3AZ
304088002304088031-000923     304088006001023669933P/FRAME BLK W/WORDS    0000001000+00003507+00000+0001T   00003507+0000001315          1400 GM4510               3AZ
304088003304088080-000127     304088006003000424351VALENTINES DAY 36x24CM 0000001000+00002192+00000+0001T   00002192+0000001315          1400 GM4112               3AZ
304089000304089               304089               170213OE     1400+00000+OE0000008754+0000008754+000000000+000001230+0000009984+0000000000+I40000009984+0000000000+Z
304089001304089077-000239     304089006003000160419GIFT-RIBBON ROLL PEARL 0000001000+00001753+00000+0001T   00001753+0000001317          1400 GM4112               3AZ
304089002304089567-011504     304089000076645122087BK PUZZLE 96P SCHOOL   0000001000+00002630+00000+0001T   00002630+0000001317          1400 GM4757               3AZ
304089003304089567-011493     304089000076645122056BK COLOURING 96P SCHOOL0000001000+00002630+00000+0001T   00002630+0000001317          1400 GM4757               3AZ
304089004304089903-002850     304089000000087108262MENTOS ROLL FRUIT      0000001000+00001051+00000+0001T   00001051+0000001317          1400 GM4150               3AZ
304089005304089903-000670     304089006009803358008SWT SHERBET RED LIPS   0000001000+00000218+00000+0001T   00000218+0000001317          1400 GM4150               3AZ
304089006304089903-000094     304089006923431501622SWT GS CANDY NECKLACE  0000001000+00000437+00000+0001T   00000437+0000001317          1400 GM4150               3AZ
304089007304089112-116038     304089006009681820246TCS CARRIER BAG MIDI   0000001000+00000035+00000+0001T   00000035+0000001317          1400 GM4090               3AZ
304090000304090               304090               170213OE     1400+00000+OE0000006873+0000006873+000000000+000000964+0000007837+0000000000+I40000007837+0000000000+Z
304090001304090018-000127     304090006001023380289MUG OCC STRAIGHT LOVE  0000001000+00001578+00000+0001T   00001753+0006471319          1400 GM4515               3AZ
304090002304090006-000104     304090006001023990112BALLOONS 40PC AIR PUMP 0000001000+00002630+00000+0001T   00002630+0000001319          1400 GM4131               3AZ
304090003304090006-000111     304090006003000519385BALLOONS LARGE 12PCE   0000001000+00002630+00000+0001T   00002630+0000001319          1400 GM4131               3AZ
304090004304090112-116038     304090006009681820246TCS CARRIER BAG MIDI   0000001000+00000035+00000+0001T   00000035+0000001319          1400 GM4090               3AZ
304091000304091               304091               170213OE     1400+00000+OE0000011224+0000011224+000000000+000001573+0000012797+0000000000+I40000012797+0000000000+Z
304091001304091369-001138-D   304091006003000097623BABY BATH VINYL THEMED 0000001000+00002630+00000+0001T   00002630+0000001320          1400 GM4745               3AZ
304091002304091369-001137-B   304091006003000626373BABY BATH VINYL DUCK   0000001000+00001578+00000+0001T   00001578+0000001320          1400 GM4745               3AZ
304091003304091206-000130     304091006003000628421CONDIMENT GUN 3PC      0000001000+00007016+00000+0001T   00008771+0008171320          1400 GM4321               3AZ
304092000304092               304092               170213OE     1400+00000+OE0000011431+0000011431+000000000+000001604+0000013030+0000000005+I20000000000+0000013030+Z
304092001304092076-000030-H   304092006001023429544WASHING-LINE 30m    H&H0000001000+00002630+00000+0001T   00002630+0000001321          1400 GM4810               3AZ
304092002304092563-000317-A   304092006001023776167SERVIETTES 20PK PATTERN0000002000+00002630+00000+0001T   00002630+0000001321          1400 GM4214               3AZ
304092003304092047-000507     304092006001023684479PLUG-ADAPTOR EURO TWIN 0000002000+00001753+00000+0001T   00001753+0000001321          1400 GM4880               3AZ
304092004304092112-116038     304092006009681820246TCS CARRIER BAG MIDI   0000001000+00000035+00000+0001T   00000035+0000001321          1400 GM4090               3AZ
304093000304093               304093               170213OE     1400+00000+OE0000016712+0000016712+000000000+000002341+0000019053+0000000000+I40000019053+0000000000+Z
304093001304093018-030000     304093006003000421060MUG OCCASIONS LOVE 2PCE0000001000+00004385+00000+0001T   00004385+0000001327          1400 GM4515               3AZ
304093002304093368-000111     304093006001023780812PLUSH BEAR/DOG 29CM    0000001000+00012279+00000+0001T   00012279+0000001327          1400 GM4745               3AZ
304093003304093112-116069     304093006009681820277TCS CARRIER BAG JUMBO  0000001000+00000048+00000+0001T   00000048+0000001327          1400 GM4090               3AZ
304094000304094               304094               170213OE     1400+00000+OE0000003291+0000003291+000000000+000000462+0000003750+0000000003+I20000000000+0000003750+Z
304094001304094077-000299     304094006003000395576G/BAG 32x25cm LRG LOVE 0000001000+00001490+00000+0001T   00001490+0000001329          1400 GM4112               3AZ
304094002304094077-000351     304094006003000139033GIFT-BAG 18X23CM E/D P 0000001000+00001753+00000+0001T   00001753+0000001329          1400 GM4112               3AZ
304094003304094112-116069     304094006009681820277TCS CARRIER BAG JUMBO  0000001000+00000048+00000+0001T   00000048+0000001329          1400 GM4090               3AZ
304095000304095               304095               170213OE     1400+00000+OE0000006139+0000006139+000000000+000000860+0000006990+0000000009+I20000000000+0000006990+Z
304095001304095368-000265     304095006001023750914PLUSH BEAR 23CM ASSTD C0000001000+00006139+00000+0001T   00006139+0000001339          1400 GM4745               3AZ
304096000304096               304096               170213OE     1400+00000+OE0000003239+0000003239+000000000+000000455+0000003690+0000000004+I20000000000+0000003690+Z
304096001304096079-009700-D   304096006003000545711PAPER SIRIO A4 RED COL.0000001000+00000306+00000+0001T   00000306+0000001346          1400 GM4130               3AZ
304096002304096079-009700-B   304096006003000547661PAPER SIRIO A4 WHITE   0000001000+00000306+00000+0001T   00000306+0000001346          1400 GM4130               3AZ
304096003304096366-007601     304096006003000655472DRESS UP MASK THEATRICA0000001000+00000876+00000+0001T   00000876+0000001346          1400 GM4131               3AZ
304096004304096903-000126     304096006002099003591SWT ZILLIONS MINT 50G  0000001000+00000700+00000+0001T   00000700+0000001346          1400 GM4150               3AZ
304096005304096903-002852     304096000000087108040MENTOS ROLL SPEARMINT  0000001000+00001051+00000+0001T   00001051+0000001346          1400 GM4150               3AZ
304097000304097               304097               170213OE     1400+00000+OE0000007450+0000007450+000000000+000001045+0000008495+0000000000+I40000008495+0000000000+Z
304097001304097159-000038     304097006003000393954HOOKS HANGER S/S 2PCE  0000002000+00002630+00000+0001T   00002630+0000001350          1400 GM4200               3AZ
304097002304097903-000844     304097005010478432567SWT CANDY DL LUV HEARTS0000001000+00001314+00000+0001T   00001314+0000001350          1400 GM4150               3AZ
304097003304097903-000521     304097006001704009652SWT GUMMY SOFT GUMS    0000001000+00000876+00000+0001T   00000876+0000001350          1400 GM4150               3AZ
304098000304098               304098               170213OE     1400+00000+OE0000005434+0000005434+000000000+000000762+0000006190+0000000006+I20000000000+0000006190+Z
304098001304098077-000299-A   304098006003000670888GIFT-BAG PAPER JMB LOVE0000001000+00001753+00000+0001T   00001753+0000001355          1400 GM4112               3AZ
304098002304098077-000311     304098006001023608666GIFT-BAG 11X14CM GLOSS 0000001000+00000613+00000+0001T   00000613+0000001355          1400 GM4112               3AZ
304098003304098080-000139     304098006003000611690CARD & ENV MINI SET 6PC0000001000+00002192+00000+0001T   00002192+0000001355          1400 GM4112               3AZ
304098004304098077-000011-C   304098006001023808523TISSUE 10xSHTS RED     0000001000+00000876+00000+0001T   00000876+0000001355          1400 GM4112               3AZ
304099000304099               304099               170213OE     1400+00000+OE0000011440+0000011440+000000000+000001607+0000013047+0000000000+I40000013047+0000000000+Z
304099001304099039-000026     304099006001023551610C/TAPERED 25CM M/RED   0000002000+00001051+00000+0001T   00001051+0000001403          1400 GM4510               3AZ
304099002304099040-000923     304099006001023587831CANDLE-HOLDER GLS 13.5 0000002000+00001753+00000+0001T   00001753+0000001403          1400 GM4510               3AZ
304099003304099077-000452     304099006003000284986G/BAG METALLIC MED EMB 0000002000+00001490+00000+0001T   00001490+0000001403          1400 GM4112               3AZ
304099004304099077-000309     304099006001023608604GIFT-BAG 25X32CM GLOSS 0000001000+00001753+00000+0001T   00001753+0000001403          1400 GM4112               3AZ
304099005304099079-009702-D   304099008427973059354PAPER SIRIO A2 RED COL 0000001000+00001051+00000+0001T   00001051+0000001403          1400 GM4130               3AZ
304099006304099112-116069     304099006009681820277TCS CARRIER BAG JUMBO  0000001000+00000048+00000+0001T   00000048+0000001403          1400 GM4090               3AZ
304100000304100               304100               170213OE     1400+00000+OE0000001402+0000001402+000000000+000000197+0000001590+0000000009+I20000000000+0000001590+Z
304100001304100105-000750     304100006003000190270CONTAINERS 4xMINI 150ml0000001000+00001402+00000+0001T   00001402+0000001405          1400 GM4210               3AZ
304101000304101               304101               170213OE     1400+00000+OE0000000525+0000000525+000000000+000000074+0000000590+0000000009+I20000000000+0000000590+Z
304101001304101903-000155     304101006009803374435SWT LOLLY I LUV U HEART0000001000+00000525+00000+0001T   00000525+0000001406          1400 GM4150               3AZ
304102000304102               304102               170213OE     1400+00000+OE0000007453+0000007453+000000000+000001044+0000008497+0000000000+I40000008497+0000000000+Z
304102001304102301-000105     304102006003000456062ORN NECKLACE ANGEL ASTD0000001000+00005262+00000+0001T   00005262+0000001407          1400 GM4505               3AZ
304102002304102077-000321     304102006001023677501GIFT-BAG 11X14CM E/D FL0000001000+00000613+00000+0001T   00000613+0000001407          1400 GM4112               3AZ
304102003304102018-000127     304102006001023380289MUG OCC STRAIGHT LOVE  0000001000+00001578+00000+0001T   00001753+0006471407          1400 GM4515               3AZ
304103000304103               304103               170213OE     1400+00000+OE0000001753+0000001753+000000000+000000246+0000001990+0000000009+I20000000000+0000001990+Z
304103001304103133-000012     304103006001023561084CLEANING-CLOTH GREEN   0000001000+00001753+00000+0001T   00001753+0000001408          1400 GM4212               3AZ
304104000304104               304104               170213OE     1400+00000+OE0000002192+0000002192+000000000+000000307+0000002490+0000000009+I20000000000+0000002490+Z
304104001304104566-000359     304104006003000582709STICKER BOOK LOVE SPARK0000001000+00002192+00000+0001T   00002192+0000001409          1400 GM4130               3AZ
304105000304105               304105               170213OE     1400+00000+OE0000020213+0000020213+000000000+000002832+0000023045+0000000000+I40000023045+0000000000+Z
304105001304105018-000136     304105006001023659026MUG OCC LOVE W/PLUSH   0000001000+00003507+00000+0001T   00003507+0000001412          1400 GM4515               3AZ
304105002304105031-080508     304105006001023802415P/FRAME PL 22X11CM LOVE0000001000+00004385+00000+0001T   00004385+0000001412          1400 GM4510               3AZ
304105003304105030-000031-A   304105006003000457588PLAQUE W/WORDS ASSTD   0000001000+00004385+00000+0001T   00004823+0006471412          1400 GM4505               3AZ
304105004304105077-000270     304105006003000395453GIFT-BAG PPR JMB 33X45 0000001000+00002630+00000+0001T   00002630+0000001412          1400 GM4112               3AZ
304105005304105016-006425     304105006001023998170S/JAR GLS CLIP W/RIBBON0000001000+00002630+00000+0001T   00002630+0000001412          1400 GM4300               3AZ
304105006304105903-000194     304105006009826020616SWT CHOC RP LOLLY 25G  0000002000+00001314+00000+0001T   00001314+0000001412          1400 GM4150               3AZ
304105007304105112-116069     304105006009681820277TCS CARRIER BAG JUMBO  0000001000+00000048+00000+0001T   00000048+0000001412          1400 GM4090               3AZ
304106000304106               304106               170213OE     1400+00000+OE0000002192+0000002192+000000000+000000307+0000002490+0000000009+I20000000000+0000002490+Z
304106001304106566-000359     304106006003000582709STICKER BOOK LOVE SPARK0000001000+00002192+00000+0001T   00002192+0000001414          1400 GM4130               3AZ
304107000304107               304107               170213OE     1400+00000+OE0000008063+0000008063+000000000+000001131+0000009194+0000000000+I40000009194+0000000000+Z
304107001304107200-000104     304107006003000677412PICNIC CUPS PL 6PCE    0000001000+00002630+00000+0001T   00002630+0000001415          1400 GM4214               3AZ
304107002304107047-000507     304107006001023684479PLUG-ADAPTOR EURO TWIN 0000001000+00001753+00000+0001T   00001753+0000001415          1400 GM4880               3AZ
304107003304107077-000011-C   304107006001023808523TISSUE 10xSHTS RED     0000001000+00000876+00000+0001T   00000876+0000001415          1400 GM4112               3AZ
304107004304107077-000299     304107006003000395576G/BAG 32x25cm LRG LOVE 0000001000+00001490+00000+0001T   00001490+0000001415          1400 GM4112               3AZ
304107005304107903-000844     304107005010478432567SWT CANDY DL LUV HEARTS0000001000+00001314+00000+0001T   00001314+0000001415          1400 GM4150               3AZ
304108000304108               304108               170213OE     1400+00000+OE0000000788+0000000788+000000000+000000111+0000000890+0000000009+I20000000000+0000000890+Z
304108001304108033-005991     304108006001023678546NEEDLES H/HOLD-REPAIR  0000001000+00000788+00000+0001T   00000788+0000001416          1400 GM4200               3AZ
304109000304109               304109               170213OE     1400+00000+OE0000002364+0000002364+000000000+000000333+0000002690+0000000007+I20000000000+0000002690+Z
304109001304109903-000201     304109006009826020371SWT CHOC HEART 30g     0000003000+00000788+00000+0001T   00000788+0000001422          1400 GM4150               3AZ
304110000304110               304110               170213OE     1400+00000+OE0000007938+0000007938+000000000+000001113+0000009050+0000000001+I20000000000+0000009050+Z
304110001304110077-000316     304110006001023609731GIFT-BAG 25X32CM MATT  0000001000+00001753+00000+0001T   00001753+0000001429          1400 GM4112               3AZ
304110002304110206-000450     304110006003000619863DRINKING JAR GLOBE     0000001000+00002630+00000+0001T   00002630+0000001429          1400 GM4321               3AZ
304110003304110018-005009     304110006001023725608MUG W/PLUSH-BEAR LOVE  0000001000+00003507+00000+0001T   00003507+0000001429          1400 GM4515               3AZ
304110004304110112-116069     304110006009681820277TCS CARRIER BAG JUMBO  0000001000+00000048+00000+0001T   00000048+0000001429          1400 GM4090               3AZ
304111000304111               304111               170213OE     1400+00000+OE0000000437+0000000437+000000000+000000062+0000000490+0000000009+I20000000000+0000000490+Z
304111001304111080-000133     304111006003000535613CARD&ENV MINI ASTD DSGN0000001000+00000437+00000+0001T   00000437+0000001429          1400 GM4112               3AZ
304112000304112               304112               170213OE     1400+00000+OE0000002192+0000002192+000000000+000000307+0000002490+0000000009+I20000000000+0000002490+Z
304112001304112566-000068     304112006003000418046POP UP LOVE 2 ASSTD    0000001000+00002192+00000+0001T   00002192+0000001431          1400 GM4130               3AZ
304113000304113               304113               170213OE     1400+00000+OE0000001753+0000001753+000000000+000000246+0000001990+0000000009+I20000000000+0000001990+Z
304113001304113566-001118     304113006003000682171STICKERS CELL PHONE    0000001000+00001753+00000+0001T   00001753+0000001434          1400 GM4130               3AZ
304114000304114               304114               170213OE     1400+00000+OE0000003067+0000003067+000000000+000000430+0000003497+0000000000+I40000003497+0000000000+Z
304114001304114006-000120     304114006001023346889BALLOONS 10PC MIX COL  0000001000+00001753+00000+0001T   00001753+0000001435          1400 GM4131               3AZ
304114002304114006-000166-C   304114006003000516377BALLOONS LRG 6PC PINK  0000001000+00001314+00000+0001T   00001314+0000001435          1400 GM4131               3AZ
304115000304115               304115               170213OE     1400+00000+OE0000004996+0000004996+000000000+000000701+0000005690+0000000007+I20000000000+0000005690+Z
304115001304115077-000309     304115006001023608604GIFT-BAG 25X32CM GLOSS 0000001000+00001753+00000+0001T   00001753+0000001443          1400 GM4112               3AZ
304115002304115077-000455     304115006003000285389G/BAG METALLIC LRG SOL 0000002000+00001753+00000+0001T   00001753+0000001443          1400 GM4112               3AZ
304115003304115077-000299     304115006003000395576G/BAG 32x25cm LRG LOVE 0000001000+00001490+00000+0001T   00001490+0000001443          1400 GM4112               3AZ
304115004304115077-000455     304115006003000285389G/BAG METALLIC LRG SOL 0000001000-00001753+00000+0001T   00001753+0000001443          1400 GM41122IC            3 Z
304116000304116               304116               170213OE     1400+00000+OE0000005259+0000005259+000000000+000000737+0000005996+0000000000+I40000005996+0000000000+Z
304116001304116200-000060     304116006001023625762STRAWS 18cm FLEX 200PCE0000001000+00002455+00000+0001T   00002455+0000001444          1400 GM4214               3AZ
304116002304116071-000873     304116006001023758743RUB-BANDS CLR BAG-100  0000001000+00001490+00000+0001T   00001490+0000001444          1400 GM4130               3AZ
304116003304116006-000167-E   304116006003000517213BALLOONS GOLD METALLIC 0000001000+00001314+00000+0001T   00001314+0000001444          1400 GM4131               3AZ
304117000304117               304117               170213OE     1400+00000+OE0000011259+0000011259+000000000+000001578+0000012837+0000000000+I40000012837+0000000000+Z
304117001304117079-000201     304117006003000161430P/CRAYONS THERAPY 10PCE0000001000+00002630+00000+0001T   00002630+0000001446          1400 GM4130               3AZ
304117002304117079-000335     304117006003000670550THERAPY P/CRAYONS 30   0000001000+00007016+00000+0001T   00007016+0000001446          1400 GM4130               3AZ
304117003304117071-001005     304117006001023558169PENCIL-SHARPENER DOUBLE0000001000+00001578+00000+0001T   00001578+0000001446          1400 GM4130               3AZ
304117004304117112-116038     304117006009681820246TCS CARRIER BAG MIDI   0000001000+00000035+00000+0001T   00000035+0000001446          1400 GM4090               3AZ
304118000304118               304118               170213OE     1400+00000+OE0000019768+0000019768+000000000+000002774+0000022540+0000000002+I20000000000+0000022540+Z
304118001304118077-000011-D   304118006001023808554TISSUE-WRAP WHITE 10PCE0000001000+00000876+00000+0001T   00000876+0000001450          1400 GM4112               3AZ
304118002304118018-000129     304118006001023403353MUG OCC. LOVE V-SHAPE  0000003000+00002630+00000+0001T   00002630+0000001450          1400 GM4515               3AZ
304118003304118903-000200     304118006009826020234SWT CHOC RP CHOCO 23G  0000002000+00000788+00000+0001T   00000788+0000001450          1400 GM4150               3AZ
304118004304118903-000201     304118006009826020371SWT CHOC HEART 30g     0000003000+00000788+00000+0001T   00000788+0000001450          1400 GM4150               3AZ
304118005304118018-005009     304118006001023725608MUG W/PLUSH-BEAR LOVE  0000002000+00003507+00000+0001T   00003507+0000001450          1400 GM4515               3AZ
304118006304118112-116069     304118006009681820277TCS CARRIER BAG JUMBO  0000001000+00000048+00000+0001T   00000048+0000001450          1400 GM4090               3AZ
304119000304119               304119               170213OE     1400+00000+OE0000006574+0000006574+000000000+000000922+0000007490+0000000006+I20000000000+0000007490+Z
304119001304119077-000005-D   304119006003000414567PAPER TISSUE 50x70cm   0000001000+00001753+00000+0001T   00001753+0000001451          1400 GM4112               3AZ
304119002304119077-000302     304119008010410010195GIFT-BAG 18X23CM E/D   0000002000+00000876+00000+0001T   00000876+0000001451          1400 GM4112               3AZ
304119003304119077-000376     304119006003000444427GIFT-BAG 25X32CM 2PK   0000001000+00003069+00000+0001T   00003069+0000001451          1400 GM4112               3AZ
304120000304120               304120               170213OE     1400+00000+OE0000004821+0000004821+000000000+000000675+0000005496+0000000000+I40000005496+0000000000+Z
304120001304120077-000312     304120006001023608697GIFT-BAG 10X35CM GLOSS 0000001000+00001314+00000+0001T   00001314+0000001453          1400 GM4112               3AZ
304120002304120018-000130     304120006001023867537MUG OCC LOVE MINI+HEART0000001000+00003507+00000+0001T   00003507+0000001453          1400 GM4515               3AZ
304121000304121               304121               170213OE     1400+00000+OE0000002190+0000002190+000000000+000000307+0000002490+0000000007+I20000000000+0000002490+Z
304121001304121077-000151     304121006008766114676GIFT-WRAP C/PHANE ASSTD0000001000+00000876+00000+0001T   00000876+0000001453          1400 GM4112               3AZ
304121002304121077-000312     304121006001023608697GIFT-BAG 10X35CM GLOSS 0000001000+00001314+00000+0001T   00001314+0000001453          1400 GM4112               3AZ
304122000304122               304122               170213OE     1400+00000+OE0000012932+0000012932+000000000+000001812+0000014744+0000000000+I40000014744+0000000000+Z
304122001304122104-000036     304122006003000501038BASKET W/HANGER HOOK   0000001000+00002192+00000+0001T   00002192+0000001500          1400 GM4210               3AZ
304122002304122566-000359     304122006003000582709STICKER BOOK LOVE SPARK0000001000+00002192+00000+0001T   00002192+0000001500          1400 GM4130               3AZ
304122003304122007-000537     304122000651728791017NOTE-PAD RND SMILE-FACE0000002000+00000700+00000+0001T   00000700+0000001500          1400 GM4130               3AZ
304122004304122080-000124     304122006003000297733CARD & ENV VALENTINES  0000001000+00001578+00000+0001T   00001578+0000001500          1400 GM4112               3AZ
304122005304122089-000030     304122006003000575671K/CHAIN LOVE MTL ASSTD 0000001000-00001753+00000+0001T   00001753+0000001500          1400 GM42051IC            3 Z
304122006304122089-000030     304122006003000575671K/CHAIN LOVE MTL ASSTD 0000001000+00001753+00000+0001T   00001753+0000001500          1400 GM42051IC            3AZ
304122007304122018-000127     304122006001023380289MUG OCC STRAIGHT LOVE  0000001000+00001578+00000+0001T   00001753+0006471500          1400 GM4515               3AZ
304122008304122112-116069     304122006009681820277TCS CARRIER BAG JUMBO  0000001000+00000048+00000+0001T   00000048+0000001500          1400 GM4090               3AZ
304122009304122018-000170     304122006001023775528MUG OCC. LOVE 2PC MINI 0000001000+00002192+00000+0001T   00002192+0000001500          1400 GM4515               3AZ
304122010304122077-000314     304122006003000181148GIFT-BAG 11X14CM MATT  0000002000+00000876+00000+0001T   00000876+0000001500          1400 GM4112               3AZ
304123000304123               304123               170213OE     1400+00000+OE0000006577+0000006577+000000000+000000921+0000007490+0000000008+I20000000000+0000007490+Z
304123001304123006-000190     304123006003000685530BALLOONS LOVE 81x91cm  0000001000+00004385+00000+0001T   00004385+0000001510          1400 GM4131               3AZ
304123002304123080-000127     304123006003000424351VALENTINES DAY 36x24CM 0000001000+00002192+00000+0001T   00002192+0000001510          1400 GM4112               3AZ
304124000304124               304124               170213OE     1400+00000+OE0000017744+0000017744+000000000+000002486+0000020230+0000000000+I40000020230+0000000000+Z
304124001304124361-000128     304124006003000602339DOLL SML 22cm FAIRY    0000001000+00007893+00000+0001T   00007893+0000001512          1400 GM4725               3AZ
304124002304124265-001658     304124006003000123896BOAT PL B/O BUMP&GO    0000001000+00007016+00000+0001T   00007016+0000001512          1400 GM4710               3AZ
304124003304124564-000012     304124006001023130075BUBBLE BOTTLE MAGIC    0000004000+00000700+00000+0001T   00000700+0000001512          1400 GM4131               3AZ
304124004304124112-116038     304124006009681820246TCS CARRIER BAG MIDI   0000001000+00000035+00000+0001T   00000035+0000001512          1400 GM4090               3AZ
304125000304125               304125               170213OE     1400+00000+OE0000010524+0000010524+000000000+000001474+0000011998+0000000000+I40000011998+0000000000+Z
304125001304125077-000299-A   304125006003000670888GIFT-BAG PAPER JMB LOVE0000001000+00001753+00000+0001T   00001753+0000001514          1400 GM4112               3AZ
304125002304125368-000012     304125006003000610464PLUSH BEAR 30cm SITTING0000001000+00008771+00000+0001T   00008771+0000001514          1400 GM4745               3AZ
304126000304126               304126               170213OE     1400+00000+OE0000006138+0000006138+000000000+000000860+0000006998+0000000000+I40000006998+0000000000+Z
304126001304126002-220006     304126006001023670342FOOD COVER 43CM ASSTD  0000002000+00003069+00000+0001T   00003069+0000001516          1400 GM4300               3AZ
304127000304127               304127               170213OE     1400+00000+OE0000002715+0000002715+000000000+000000382+0000003097+0000000000+I40000003097+0000000000+Z
304127001304127077-000299     304127006003000395576G/BAG 32x25cm LRG LOVE 0000001000+00001490+00000+0001T   00001490+0000001518          1400 GM4112               3AZ
304127002304127077-000010-D   304127006001023123886CREPE-PAPER WHITE      0000001000+00000788+00000+0001T   00000788+0000001518          1400 GM4112               3AZ
304127003304127080-000133     304127006003000535613CARD&ENV MINI ASTD DSGN0000001000+00000437+00000+0001T   00000437+0000001518          1400 GM4112               3AZ
304128000304128               304128               170213OE     1400+00000+OE0000001402+0000001402+000000000+000000197+0000001590+0000000009+I20000000000+0000001590+Z
304128001304128304-001204     304128006001023737984FLOWER OCC. TEDDY/ROSES0000001000+00001402+00000+0001T   00001490+0006471518          1400 GM4510               3AZ
304129000304129               304129               170213OE     1400+00000+OE0000000876+0000000876+000000000+000000123+0000000990+0000000009+I20000000000+0000000990+Z
304129001304129077-000408     304129006003000145218G/BAG PP 15X21X7CM     0000001000+00000876+00000+0001T   00000876+0000001519          1400 GM4112               3AZ
304130000304130               304130               170213OE     1400+00000+OE0000003945+0000003945+000000000+000000553+0000004490+0000000008+I20000000000+0000004490+Z
304130001304130032-000340     304130006003000295883MIRROR SUCTION PL MAGN 0000001000+00003069+00000+0001T   00003069+0000001521          1400 GM4510               3AZ
304130002304130036-000011     304130006003000675890LINT REMOVER REFILL    0000001000+00000876+00000+0001T   00000876+0000001521          1400 GM4212               3AZ
304131000304131               304131               170213OE     1400+00000+OE0000010994+0000010994+000000000+000001540+0000012534+0000000000+I40000012534+0000000000+Z
304131001304131369-001026     304131006001023795977BABY-RATTLE CATERPILLAR0000001000+00003507+00000+0001T   00003507+0000001525          1400 GM4745               3AZ
304131002304131562-000520     304131006003000112777EDU BLOCKS WDN ALPHABET0000001000+00003507+00000+0001T   00003507+0000001525          1400 GM4755               3AZ
304131003304131080-000113     304131006003000237449CARD&ENVLPE - LOVE     0000001000+00001753+00000+0001T   00001753+0000001525          1400 GM4112               3AZ
304131004304131018-000170     304131006001023775528MUG OCC. LOVE 2PC MINI 0000001000+00002192+00000+0001T   00002192+0000001525          1400 GM4515               3AZ
304131005304131112-116038     304131006009681820246TCS CARRIER BAG MIDI   0000001000+00000035+00000+0001T   00000035+0000001525          1400 GM4090               3AZ
304132000304132               304132               170213OE     1400+00000+OE0000005957+0000005957+000000000+000000836+0000006790+0000000003+I20000000000+0000006790+Z
304132001304132903-000671     304132006009803358015SWT SHERBET BLUE LIPS  0000004000+00000218+00000+0001T   00000218+0000001525          1400 GM4150               3AZ
304132002304132564-000012     304132006001023130075BUBBLE BOTTLE MAGIC    0000001000+00000700+00000+0001T   00000700+0000001525          1400 GM4131               3AZ
304132003304132159-000216     304132006001023195371SHOWER-CURTAIN 183cm   0000001000+00004385+00000+0001T   00004385+0000001525          1400 GM4200               3AZ
304133000304133               304133               170213OE     1400+00000+OE0000000700+0000000700+000000000+000000098+0000000790+0000000008+I20000000000+0000000790+Z
304133001304133564-000012     304133006001023130075BUBBLE BOTTLE MAGIC    0000001000+00000700+00000+0001T   00000700+0000001525          1400 GM4131               3AZ
304134000304134               304134               170213OE     1400+00000+OE0000020038+0000020038+000000000+000002809+0000022847+0000000000+I40000022847+0000000000+Z
304134001304134079-011520     304134006003000160549ART+CRAFT SET SAND BOTL0000002000+00007016+00000+0001T   00007893+0008191532          1400 GM4130               3AZ
304134002304134077-000311     304134006001023608666GIFT-BAG 11X14CM GLOSS 0000004000+00000613+00000+0001T   00000613+0000001532          1400 GM4112               3AZ
304134003304134077-000381     304134006003000247707GIFT-BAG 25X32CM S/COL 0000002000+00001753+00000+0001T   00001753+0000001532          1400 GM4112               3AZ
304134004304134112-116069     304134006009681820277TCS CARRIER BAG JUMBO  0000001000+00000048+00000+0001T   00000048+0000001532          1400 GM4090               3AZ
304135000304135               304135               170213OE     1400+00000+OE0000013239+0000013239+000000000+000001856+0000015095+0000000000+I40000015095+0000000000+Z
304135001304135368-000614     304135006001023705808PLUSH LOVE 30cm        0000001000+00008771+00000+0001T   00008771+0000001533          1400 GM4745               3AZ
304135002304135077-000299     304135006003000395576G/BAG 32x25cm LRG LOVE 0000001000+00001490+00000+0001T   00001490+0000001533          1400 GM4112               3AZ
304135003304135903-000006     304135006923431571571SWEET GS SOUR BELT 50g 0000001000+00000876+00000+0001T   00000876+0000001533          1400 GM4150               3AZ
304135004304135903-002851     304135000000087108538MENTOS ROLL STRAWBERRY 0000002000+00001051+00000+0001T   00001051+0000001533          1400 GM4150               3AZ
304136000304136               304136               170213OE     1400+00000+OE0000003507+0000003507+000000000+000000491+0000003990+0000000008+I20000000000+0000003990+Z
304136001304136018-000130     304136006001023867537MUG OCC LOVE MINI+HEART0000001000+00003507+00000+0001T   00003507+0000001535          1400 GM4515               3AZ
304137000304137               304137               170213OE     1400+00000+OE0000025041+0000025041+000000000+000003508+0000028549+0000000000+I40000028549+0000000000+Z
304137001304137036-000350     304137006003000247776HANGER MTL (FOR SCARVES0000001000+00006139+00000+0001T   00006139+0000001551          1400 GM4212               3AZ
304137002304137077-000270     304137006003000395453GIFT-BAG PPR JMB 33X45 0000001000+00002630+00000+0001T   00002630+0000001551          1400 GM4112               3AZ
304137003304137174-000153     304137006003000060795STORAGE ORGANISER 3-DRW0000001000+00005262+00000+0001T   00005262+0000001551          1400 GM4205               3AZ
304137004304137174-000140     304137006003000367450STORAGE ORGANISER 30X300000001000+00005700+00000+0001T   00005700+0000001551          1400 GM4205               3AZ
304137005304137174-000141     304137006003000367573STORAGE ORGANISER 30X100000001000+00005262+00000+0001T   00005262+0000001551          1400 GM4205               3AZ
304137006304137112-116069     304137006009681820277TCS CARRIER BAG JUMBO  0000001000+00000048+00000+0001T   00000048+0000001551          1400 GM4090               3AZ
304138000304138               304138               170213OE     1400+00000+OE0000004733+0000004733+000000000+000000664+0000005390+0000000007+I20000000000+0000005390+Z
304138001304138077-000245     304138006001023759214GIFT-RIBBON METALLICx2 0000001000+00001227+00000+0001T   00001227+0000001551          1400 GM4112               3AZ
304138002304138006-000120     304138006001023346889BALLOONS 10PC MIX COL  0000002000+00001753+00000+0001T   00001753+0000001551          1400 GM4131               3AZ
304139000304139               304139               170213OE     1400+00000+OE0000006138+0000006138+000000000+000000860+0000006998+0000000000+I40000006998+0000000000+Z
304139001304139466-000077     304139006003000669448MINI MESH BEAN BALL    0000001000+00001753+00000+0001T   00001753+0000001552          1400 GM4785               3AZ
304139002304139065-006076     304139006003000466863WOODEN 2PC MARACAS 19cm0000001000+00004385+00000+0001T   00004385+0000001552          1400 GM4745               3AZ
304140000304140               304140               170213OE     1400+00000+OE0000001314+0000001314+000000000+000000184+0000001490+0000000008+I20000000000+0000001490+Z
304140001304140077-000312     304140006001023608697GIFT-BAG 10X35CM GLOSS 0000001000+00001314+00000+0001T   00001314+0000001554          1400 GM4112               3AZ
304141000304141               304141               170213OE     1400+00000+OE0000002716+0000002716+000000000+000000381+0000003090+0000000007+I20000000000+0000003090+Z
304141001304141304-001204     304141006001023737984FLOWER OCC. TEDDY/ROSES0000001000+00001402+00000+0001T   00001490+0006471556          1400 GM4510               3AZ
304141002304141903-000194     304141006009826020616SWT CHOC RP LOLLY 25G  0000001000+00001314+00000+0001T   00001314+0000001556          1400 GM4150               3AZ
304142000304142               304142               170213OE     1400+00000+OE0000002630+0000002630+000000000+000000369+0000002990+0000000009+I20000000000+0000002990+Z
304142001304142006-000111     304142006003000519385BALLOONS LARGE 12PCE   0000001000+00002630+00000+0001T   00002630+0000001557          1400 GM4131               3AZ
304143000304143               304143               170213OE     1400+00000+OE0000017538+0000017538+000000000+000002458+0000019996+0000000000+I40000019996+0000000000+Z
304143001304143565-000859     304143006001023691361SUNGLASSES GIANT       0000001000+00001753+00000+0001T   00001753+0000001600          1400 GM4745               3AZ
304143002304143007-000526     304143006001023637994STATIONERY GIRL FLOWER 0000001000+00007016+00000+0001T   00007016+0000001600          1400 GM4130               3AZ
304143003304143265-001658     304143006003000123896BOAT PL B/O BUMP&GO    0000001000+00007016+00000+0001T   00007016+0000001600          1400 GM4710               3AZ
304143004304143036-000063     304143006009654960436COATHANGERS VIRGIN 5PCE0000001000+00001753+00000+0001T   00001753+0000001600          1400 GM4212               3AZ
304144000304144               304144               170213OE     1400+00000+OE0000001753+0000001753+000000000+000000246+0000001990+0000000009+I20000000000+0000001990+Z
304144001304144206-000120     304144006003000628308PEELER CARROT SHARPENER0000001000+00001753+00000+0001T   00001753+0000001600          1400 GM4321               3AZ
304145000304145               304145               170213OE     1400+00000+OE0000018464+0000018464+000000000+000002587+0000021051+0000000000+I40000021051+0000000000+Z
304145001304145206-000150     304145006003000628667SLICER CUCUMBER        0000001000+00002192+00000+0001T   00002192+0000001608          1400 GM4321               3AZ
304145002304145366-002809     304145006003000222643DRESS UP MOUSTACHE SET 0000001000+00001753+00000+0001T   00001753+0000001608          1400 GM4131               3AZ
304145003304145368-000113     304145006001023780874PLUSH BLINGED LOVE 30cm0000001000+00012279+00000+0001T   00012279+0000001608          1400 GM4745               3AZ
304145004304145006-000789     304145006001023148612CROWN BOY              0000001000+00002192+00000+0001T   00002192+0000001608          1400 GM4131               3AZ
304145005304145112-116069     304145006009681820277TCS CARRIER BAG JUMBO  0000001000+00000048+00000+0001T   00000048+0000001608          1400 GM4090               3AZ
304146000304146               304146               170213OE     1400+00000+OE0000014945+0000014945+000000000+000002093+0000017038+0000000000+I40000017038+0000000000+Z
304146001304146301-000105     304146006003000456062ORN NECKLACE ANGEL ASTD0000001000+00005262+00000+0001T   00005262+0000001610          1400 GM4505               3AZ
304146002304146030-004015     304146006003000467624PLAQUE WDN SIGN 30X20CM0000001000+00009648+00000+0001T   00009648+0000001610          1400 GM4505               3AZ
304146003304146112-116038     304146006009681820246TCS CARRIER BAG MIDI   0000001000+00000035+00000+0001T   00000035+0000001610          1400 GM4090               3AZ
304147000304147               304147               170213OE     1400+00000+OE0000007485+0000007485+000000000+000001050+0000008535+0000000000+I40000008535+0000000000+Z
304147001304147361-003013     304147006003000166589DOLL 6.5CM FAIRY KITE  0000001000+00002192+00000+0001T   00002192+0000001612          1400 GM4725               3AZ
304147002304147266-000503     304147006001023791740TRANSFORMER WARRIOR 8cm0000002000+00001753+00000+0001T   00001753+0000001612          1400 GM4710               3AZ
304147003304147105-001010     304147006002580007329LUNCH-BOX 1L  ASSTD    0000002000+00000876+00000+0001T   00000876+0000001612          1400 GM4210               3AZ
304147004304147112-116038     304147006009681820246TCS CARRIER BAG MIDI   0000001000+00000035+00000+0001T   00000035+0000001612          1400 GM4090               3AZ
304148000304148               304148               170213OE     1400+00000+OE0000005259+0000005259+000000000+000000737+0000005996+0000000000+I40000005996+0000000000+Z
304148001304148566-001118     304148006003000682171STICKERS CELL PHONE    0000001000+00001753+00000+0001T   00001753+0000001615          1400 GM4130               3AZ
304148002304148566-000013     304148006001023888952S/BOOK CORNERS GLITTER 0000001000+00001314+00000+0001T   00001753+0008151615          1400 GM4130               3AZ
304148003304148566-000068     304148006003000418046POP UP LOVE 2 ASSTD    0000001000+00002192+00000+0001T   00002192+0000001615          1400 GM41301IC            3AZ
304149000304149               304149               170213OE     1400+00000+OE0000001490+0000001490+000000000+000000209+0000001690+0000000009+I20000000000+0000001690+Z
304149001304149077-000304     304149006001023483232GIFT-BAG 25X32CM E/DAY 0000001000+00001490+00000+0001T   00001490+0000001617          1400 GM4112               3AZ
304150000304150               304150               170213OE     1400+00000+OE0000006522+0000006522+000000000+000000914+0000007436+0000000000+I40000007436+0000000000+Z
304150001304150304-001204     304150006001023737984FLOWER OCC. TEDDY/ROSES0000001000+00001402+00000+0001T   00001490+0006471621          1400 GM4510               3AZ
304150002304150018-000127     304150006001023380289MUG OCC STRAIGHT LOVE  0000001000+00001578+00000+0001T   00001753+0006471621          1400 GM4515               3AZ
304150003304150031-005853     304150006003000442416P/FRAME WDN TWIN HEARTS0000001000+00003507+00000+0001T   00003507+0000001621          1400 GM4510               3AZ
304150004304150112-116038     304150006009681820246TCS CARRIER BAG MIDI   0000001000+00000035+00000+0001T   00000035+0000001621          1400 GM4090               3AZ
304151000304151               304151               170213OE     1400+00000+OE0000028985+0000028985+000000000+000004061+0000033046+0000000000+I40000033046+0000000000+Z
304151001304151368-000614     304151006001023705808PLUSH LOVE 30cm        0000001000+00008771+00000+0001T   00008771+0000001623          1400 GM4745               3AZ
304151002304151368-000111     304151006001023780812PLUSH BEAR/DOG 29CM    0000001000+00012279+00000+0001T   00012279+0000001623          1400 GM4745               3AZ
304151003304151077-000299-A   304151006003000670888GIFT-BAG PAPER JMB LOVE0000001000+00001753+00000+0001T   00001753+0000001623          1400 GM4112               3AZ
304151004304151903-000619     304151006003000672455SWT LOLLY STR/BRRY 140G0000002000+00001753+00000+0001T   00001753+0000001623          1400 GM4150               3AZ
304151005304151903-000844     304151005010478432567SWT CANDY DL LUV HEARTS0000002000+00001314+00000+0001T   00001314+0000001623          1400 GM4150               3AZ
304151006304151112-116069     304151006009681820277TCS CARRIER BAG JUMBO  0000001000+00000048+00000+0001T   00000048+0000001623          1400 GM4090               3AZ
304152000304152               304152               170213OE     1400+00000+OE0000002627+0000002627+000000000+000000370+0000002990+0000000007+I20000000000+0000002990+Z
304152001304152362-003004     304152006003000294961HAIR CLIPS             0000001000+00001753+00000+0001T   00001753+0000001634          1400 GM4160               3AZ
304152002304152080-000133     304152006003000535613CARD&ENV MINI ASTD DSGN0000002000+00000437+00000+0001T   00000437+0000001634          1400 GM4112               3AZ
304153000304153               304153               170213OE     1400+00000+OE0000004468+0000004468+000000000+000000627+0000005095+0000000000+I40000005095+0000000000+Z
304153001304153076-000017     304153006003000149049TWINE COTTON 50g-BALL  0000001000+00000876+00000+0001T   00000876+0000001643          1400 GM4810               3AZ
304153002304153002-021040     304153006001023812216PARTY-PICKS 100PCE     0000001000+00000525+00000+0001T   00000525+0000001643          1400 GM4300               3AZ
304153003304153006-000166-B   304153006003000516254BALLOONS LRG 6PC BLUE  0000001000+00001314+00000+0001T   00001314+0000001643          1400 GM4131               3AZ
304153004304153077-000309     304153006001023608604GIFT-BAG 25X32CM GLOSS 0000001000+00001753+00000+0001T   00001753+0000001643          1400 GM4112               3AZ
304154000304154               304154               170213OE     1400+00000+OE0000013674+0000013674+000000000+000001919+0000015590+0000000003+I20000000000+0000015590+Z
304154001304154368-000175     304154006003000270316PLUSH BEAR 4 ASSTD 18CM0000001000+00006139+00000+0001T   00006139+0000001648          1400 GM4745               3AZ
304154002304154089-000030     304154006003000575671K/CHAIN LOVE MTL ASSTD 0000001000+00001753+00000+0001T   00001753+0000001648          1400 GM4205               3AZ
304154003304154368-000100     304154006001023474742PLUSH MD BEAR 12cm     0000001000+00002630+00000+0001T   00002630+0000001648          1400 GM4745               3AZ
304154004304154903-000200     304154006009826020234SWT CHOC RP CHOCO 23G  0000001000+00000788+00000+0001T   00000788+0000001648          1400 GM4150               3AZ
304154005304154903-000201     304154006009826020371SWT CHOC HEART 30g     0000003000+00000788+00000+0001T   00000788+0000001648          1400 GM4150               3AZ
304155000304155               304155               170213OE     1400+00000+OE0000003273+0000003273+000000000+000000462+0000003730+0000000005+I20000000000+0000003730+Z
304155001304155051-002401     304155006001023523570TRIGGER-SPRAYER   300ml0000001000+00001490+00000+0001T   00001490+0000001654          1400 GM4820               3AZ
304155002304155903-000012     304155006002099007308SWT MALLOW S/BERRY     0000004000+00000437+00000+0001T   00000437+0000001654          1400 GM4150               3AZ
304155003304155112-116038     304155006009681820246TCS CARRIER BAG MIDI   0000001000+00000035+00000+0001T   00000035+0000001654          1400 GM4090               3AZ
304156000304156               304156               170213OE     1400+00000+OE0000015346+0000015346+000000000+000002149+0000017495+0000000000+I40000017495+0000000000+Z
304156001304156162-010794     304156006001492107943#TAG KIDS ALICE BAND   0000001000+00003507+00000+0001T   00003507+0000001655          1400 GM4160               3AZ
304156002304156072-000602     304156006003000452446DOG-COLLAR 1.6x35cm SML0000001000+00004385+00000+0001T   00004385+0000001655          1400 GM4870               3AZ
304156003304156072-000600     304156006003000148431PET DOG HARNESS NYLON  0000001000+00005262+00000+0001T   00005262+0000001655          1400 GM4870               3AZ
304156004304156565-000887     304156006003000412334NOVELTY SILICONE TOY   0000001000+00002192+00000+0001T   00002192+0000001655          1400 GM4745               3AZ
304157000304157               304157               170213OE     1400+00000+OE0000017186+0000017186+000000000+000002409+0000019595+0000000000+I40000019595+0000000000+Z
304157001304157362-001045     304157006001023843449MAKE-UP TEEN GIFT SET  0000002000+00005262+00000+0001T   00005262+0000001657          1400 GM4160               3AZ
304157002304157077-000270     304157006003000395453GIFT-BAG PPR JMB 33X45 0000001000+00002630+00000+0001T   00002630+0000001657          1400 GM4112               3AZ
304157003304157106-001118     304157006009654960320WATER BOTTLE PL 500ml  0000002000+00002016+00000+0001T   00002016+0000001657          1400 GM4210               3AZ
304158000304158               304158               170213OE     1400+00000+OE0000002192+0000002192+000000000+000000307+0000002499+0000000000+I40000002499+0000000000+Z
304158001304158080-000127     304158006003000424351VALENTINES DAY 36x24CM 0000001000+00002192+00000+0001T   00002192+0000001701          1400 GM4112               3AZ
304159000304159               304159               170213OE     1400+00000+OE0000002630+0000002630+000000000+000000369+0000002990+0000000009+I20000000000+0000002990+Z
304159001304159072-020300     304159006008638000434DOG-TOY TUG-A-BALL SML 0000001000+00002630+00000+0001T   00002630+0000001703          1400 GM4870               3AZ
304160000304160               304160               170213OE     1400+00000+OE0000003507+0000003507+000000000+000000491+0000003990+0000000008+I20000000000+0000003990+Z
304160001304160031-005853     304160006003000442416P/FRAME WDN TWIN HEARTS0000001000+00003507+00000+0001T   00003507+0000001703          1400 GM4510               3AZ
304161000304161               304161               170213OE     1400+00000+OE0000003682+0000003682+000000000+000000516+0000004198+0000000000+I40000004198+0000000000+Z
304161001304161006-000210-H   304161006003000430055PINK/BLUE CUPS 230g 6PC0000001000+00001490+00000+0001T   00001490+0000001709          1400 GM4131               3AZ
304161002304161006-000090     304161006001023538505BANNER HAPPY-BIRTHDAY  0000001000+00002192+00000+0001T   00002192+0000001709          1400 GM4131               3AZ
304162000304162               304162               170213OE     1400+00000+OE0000011402+0000011402+000000000+000001597+0000012999+0000000000+I40000012999+0000000000+Z
304162001304162368-000637     304162006001023874092PLUSH BEAR SLEEPING LOV0000001000+00011402+00000+0001T   00012279+0006471711          1400 GM4745               3AZ
304163000304163               304163               170213OE     1400+00000+OE0000001314+0000001314+000000000+000000184+0000001490+0000000008+I20000000000+0000001490+Z
304163001304163006-000166-B   304163006003000516254BALLOONS LRG 6PC BLUE  0000001000+00001314+00000+0001T   00001314+0000001714          1400 GM4131               3AZ
304164000304164               304164               170213OE     1400+00000+OE0000001753+0000001753+000000000+000000246+0000001990+0000000009+I20000000000+0000001990+Z
304164001304164566-000066     304164006003000283675STICKERS GLITTER 25PCS 0000001000+00001753+00000+0001T   00001753+0000001715          1400 GM4130               3AZ
304165000304165               304165               170213OE     1400+00000+OE0000019288+0000019288+000000000+000002704+0000021992+0000000000+I40000021992+0000000000+Z
304165001304165158-000050     304165006003000630097CUP HANGER CHROME HOOKS0000002000+00004385+00000+0001T   00004385+0000001721          1400 GM4300               3AZ
304165002304165108-005005     304165006003000667451TRAY PL 29x21cm RECT   0000006000+00001753+00000+0001T   00001753+0000001721          1400 GM4210               3AZ
304166000304166               304166               170213OE     1400+00000+OE0000010260+0000010260+000000000+000001437+0000011697+0000000000+I40000011697+0000000000+Z
304166001304166082-007586     304166006003000654291SUNGLASS DESIGNER ASST 0000001000+00004385+00000+0001T   00004385+0000001722          1400 GM4160               3AZ
304166002304166301-000105     304166006003000456062ORN NECKLACE ANGEL ASTD0000001000+00005262+00000+0001T   00005262+0000001722          1400 GM4505               3AZ
304166003304166077-000321     304166006001023677501GIFT-BAG 11X14CM E/D FL0000001000+00000613+00000+0001T   00000613+0000001722          1400 GM4112               3AZ
304167000304167               304167               170213OE     1400+00000+OE0000006173+0000006173+000000000+000000865+0000007030+0000000008+I20000000000+0000007030+Z
304167001304167105-001032     304167000700371696634CONTAINER FOODSAVER 1.20000001000+00001753+00000+0001T   00001753+0000001723          1400 GM4210               3AZ
304167002304167104-000030     304167006001023803481BASKET PL 28x20x12cm   0000001000+00004385+00000+0001T   00004385+0000001723          1400 GM4210               3AZ
304167003304167112-116038     304167006009681820246TCS CARRIER BAG MIDI   0000001000+00000035+00000+0001T   00000035+0000001723          1400 GM4090               3AZ
304168000304168               304168               170213OE     1400+00000+OE0000013157+0000013157+000000000+000001842+0000014990+0000000009+I20000000000+0000014990+Z
304168001304168031-000009     304168006003000306381P/FRAME COLLAGE HEARTS 0000001000+00013157+00000+0001T   00013157+0000001728          1400 GM4510               3AZ
304169000304169               304169               170213OE     1400+00000+OE0000008940+0000008940+000000000+000001253+0000010193+0000000000+I40000010193+0000000000+Z
304169001304169077-000303     304169006001023593757GIFT-BAG PAPER MED     0000001000+00001578+00000+0001T   00001578+0000001743          1400 GM4112               3AZ
304169002304169080-000113     304169006003000237449CARD&ENVLPE - LOVE     0000001000+00001753+00000+0001T   00001753+0000001743          1400 GM4112               3AZ
304169003304169018-005009     304169006001023725608MUG W/PLUSH-BEAR LOVE  0000001000+00003507+00000+0001T   00003507+0000001743          1400 GM4515               3AZ
304169004304169018-000177     304169006001023797513MUG MINI LOVE ASSTD    0000001000+00000700+00000+0001T   00000700+0000001743          1400 GM4515               3AZ
304169005304169304-001204     304169006001023737984FLOWER OCC. TEDDY/ROSES0000001000+00001402+00000+0001T   00001490+0006471743          1400 GM4510               3AZ
304170000304170               304170               170213OE     1400+00000+OE0000003944+0000003944+000000000+000000553+0000004490+0000000007+I20000000000+0000004490+Z
304170001304170075-000360     304170006003000267705PURSE 9x6cm B-FLY/ROSE 0000001000+00002630+00000+0001T   00002630+0000001745          1400 GM4160               3AZ
304170002304170075-000348     304170006003000099474PURSE SILICONE W/CLIP  0000001000+00001314+00000+0001T   00001753+0008121745          1400 GM4160               3AZ
304171000304171               304171               170213OE     1400+00000+OE0000002015+0000002015+000000000+000000283+0000002298+0000000000+I40000002298+0000000000+Z
304171001304171077-000302     304171008010410010195GIFT-BAG 18X23CM E/D   0000001000+00000876+00000+0001T   00000876+0000001746          1400 GM4112               3AZ
304171002304171903-000087     304171006001704000161SWT SPECKLED-EGGS 50G  0000001000+00001139+00000+0001T   00001139+0000001746          1400 GM4150               3AZ
304172000304172               304172               170213OE     1400+00000+OE0000004385+0000004385+000000000+000000614+0000004999+0000000000+I40000004999+0000000000+Z
304172001304172047-009010     304172006001023120267DOOR-WINDOW-ALARM B/O  0000001000+00004385+00000+0001T   00004385+0000001748          1400 GM4880               3AZ
304173000304173               304173               170213OE     1400+00000+OE0000001489+0000001489+000000000+000000209+0000001698+0000000000+I40000001698+0000000000+Z
304173001304173033-005921-B   304173006001023678348SEWING-THREAD 200m BLK 0000001000+00000876+00000+0001T   00000876+0000001749          1400 GM4200               3AZ
304173002304173033-005994     304173006001023789570SEWING-NEEDLES 16PCE   0000001000+00000613+00000+0001T   00000613+0000001749          1400 GM4200               3AZ
304174000304174               304174               170213OE     1400+00000+OE0000001753+0000001753+000000000+000000246+0000001999+0000000000+I40000001999+0000000000+Z
304174001304174565-000050     304174006001023906199SLIME BOMB DISPLAY BOX 0000001000+00001753+00000+0001T   00001753+0000001750          1400 GM4745               3AZ
304175000304175               304175               170213OE     1400+00000+OE0000001753+0000001753+000000000+000000246+0000001999+0000000000+I40000001999+0000000000+Z
304175001304175046-000002     304175006001023585202BATTERIES SIZE:C   2PCE0000001000+00001753+00000+0001T   00001753+0000001751          1400 GM4312               3AZ
304176000304176               304176               170213OE     1400+00000+OE0000001181+0000001181+000000000+000000167+0000001340+0000000008+I20000000000+0000001340+Z
304176001304176903-000183     304176006003000451043SWT LB HEART LOLLY     0000001000+00000393+00000+0001T   00000393+0000001752          1400 GM4150               3AZ
304176002304176903-000201     304176006009826020371SWT CHOC HEART 30g     0000001000+00000788+00000+0001T   00000788+0000001752          1400 GM4150               3AZ
304177000304177               304177               170213OE     1400+00000+OE0000012279+0000012279+000000000+000001720+0000013999+0000000000+I40000013999+0000000000+Z
304177001304177368-000111     304177006001023780812PLUSH BEAR/DOG 29CM    0000001000+00012279+00000+0001T   00012279+0000001756          1400 GM4745               3AZ
304178000304178               304178               170213OE     1400+00000+OE0000001613+0000001613+000000000+000000226+0000001830+0000000009+I20000000000+0000001830+Z
304178001304178018-000127     304178006001023380289MUG OCC STRAIGHT LOVE  0000001000+00001578+00000+0001T   00001753+0006471800          1400 GM4515               3AZ
304178002304178112-116038     304178006009681820246TCS CARRIER BAG MIDI   0000001000+00000035+00000+0001T   00000035+0000001800          1400 GM4090               3AZ
304179000304179               304179               170213OE     1400+00000+OE0000001753+0000001753+000000000+000000246+0000001990+0000000009+I20000000000+0000001990+Z
304179001304179200-003024     304179006001023657299REFUSE BAGS 20PCE BLACK0000001000+00001753+00000+0001T   00001753+0000001800          1400 GM4214               3AZ
304180000304180               304180               170213OE     1400+00000+OE0000011402+0000011402+000000000+000001597+0000012990+0000000009+I20000000000+0000012990+Z
304180001304180035-000030     304180006002596030229UMBRELLA GOLF 16-RIB   0000001000+00011402+00000+0001T   00011402+0000001802          1400 GM4205               3AZ
304181000304181               304181               170213OE     1400+00000+OE0000004383+0000004383+000000000+000000614+0000004990+0000000007+I20000000000+0000004990+Z
304181001304181077-000302     304181008010410010195GIFT-BAG 18X23CM E/D   0000001000+00000876+00000+0001T   00000876+0000001803          1400 GM4112               3AZ
304181002304181030-004070     304181006003000674381P/WDN SIGN 12X20CM ASS 0000001000+00003507+00000+0001T   00003507+0000001803          1400 GM4505               3AZ
304182000304182               304182               170213OE     1400+00000+OE0000001752+0000001752+000000000+000000246+0000001990+0000000008+I20000000000+0000001990+Z
304182001304182077-000151     304182006008766114676GIFT-WRAP C/PHANE ASSTD0000002000+00000876+00000+0001T   00000876+0000001804          1400 GM4112               3AZ
304183000304183               304183               170213OE     1400+00000+OE0000012828+0000012828+000000000+000001803+0000014631+0000000000+I40000014631+0000000000+Z
304183001304183079-000201     304183006003000161430P/CRAYONS THERAPY 10PCE0000002000+00002630+00000+0001T   00002630+0000001807          1400 GM4130               3AZ
304183002304183903-002851     304183000000087108538MENTOS ROLL STRAWBERRY 0000005000+00001051+00000+0001T   00001051+0000001807          1400 GM4150               3AZ
304183003304183112-116038     304183006009681820246TCS CARRIER BAG MIDI   0000001000+00000035+00000+0001T   00000035+0000001807          1400 GM4090               3AZ
304183004304183903-000087     304183006001704000161SWT SPECKLED-EGGS 50G  0000002000+00001139+00000+0001T   00001139+0000001807          1400 GM4150               3AZ
304184000304184               304184               170213OE     1400+00000+OE0000033805+0000033805+000000000+000004739+0000038544+0000000000+I40000038544+0000000000+Z
304184001304184036-005010     304184006002580008739COATHANGER KIDDIES PL  0000002000+00002630+00000+0001T   00002630+0000001811          1400 GM4212               3AZ
304184002304184306-001714     304184006003000061341FACIAL MAKE-UP WIPES 480000002000+00002630+00000+0001T   00002630+0000001811          1400 GM4200               3AZ
304184003304184301-085001     304184006003000297610ORN WATERBALL LOVE ASST0000001000+00004823+00000+0001T   00004823+0000001811          1400 GM4505               3AZ
304184004304184304-000720     304184006001023843050F/BUNCH ROSE 6-HEAD AST0000002000+00002630+00000+0001T   00002630+0000001811          1400 GM4510               3AZ
304184005304184018-019000     304184006003000557288MUG OCC. LOVE JUMBO    0000001000+00005262+00000+0001T   00005262+0000001811          1400 GM4515               3AZ
304184006304184001-000175     304184006001023788108B/MUG GLS LOVE 380ML   0000001000+00004385+00000+0001T   00004385+0000001811          1400 GM4515               3AZ
304184007304184567-013439     304184009781775785750EK KAN LEES ASSTD      0000001000+00003507+00000+0001T   00003507+0000001811          1400 GM4757               3AZ
304184008304184112-116069     304184006009681820277TCS CARRIER BAG JUMBO  0000001000+00000048+00000+0001T   00000048+0000001811          1400 GM4090               3AZ
A17021300                                          09374001OESLAVE 3                       GM41IC
A17021301                                          09423788OESLAVE 3                       GM41IC
A17021302                                          16595379OESLAVE 3                       GM41IC
B30414800                                          170213OE566-000068     16145890SLAVE 3     GM41IC0000002000+0000001000+0000000000000+
M17021391                              CASH        OESLAVE 3                       Z-REPORT No.   520TOTAL (Sales - Refunds)          13066.59       CASH TO BE BANKED                 4659.70       DEBIT CARDS                          0.00       CREDIT CARDS                      8406.89       Z-READING                        13066.59       AIRTIME DEBIT CARD SALES             0.00       AIRTIME CARD SALES                   0.00       OVERS/UNDERS                         0.00       AIRTIME CASH SALES                   0.00       GIFT CARDS                           0.00       GIFT CARD CASH SALES                 0.00       T O T A L  CASH PAYOUTS              0.00                                                                                                                                                                                                                                                                                                                                                      Z
M17021392                              CASH        OEABSENT                                                                                                                                                                                          ANNUAL LEAVE                                                                                                                                                                                    DAY OFF                                                                                                                                                                                         COMMENTS                                                                                                                                                                                                                                                                                                                                                                                       Z
Y17021300                                          OE00000001149935+000138
ZOE17021321133 SLAVE 3      SALES DATA                     NEXT INVOICE NO.  304185 0520
X OE Slave 3 First invoice 304047 170213 Last invoice 304184 170213 Next invoice 304185 Total number of records 000000567 clbackup completed 21:13:01
