110601000110601               110601               170213OF     1400+00000+OF0000014078+0000014078+000000000+000001973+0000016051+0000000000+I40000016051+0000000000+Z
110601001110601007-010505     110601006003000670406BLACKBOARD VINYL       0000002000+00004385+00000+0001T   00004385+0000000914          1400 GE1130               1AZ
110601002110601251-000003     110601006003000266159TAPE D/S 18x300mm V/PCK0000002000+00002630+00000+0001T   00002630+0000000914          1400 GE1810               1AZ
110601003110601112-116069     110601006009681820277TCS CARRIER BAG JUMBO  0000001000+00000048+00000+0001T   00000048+0000000914          1400 GE1090               1AZ
110602000110602               110602               170213OF     1400+00000+OF0000001753+0000001753+000000000+000000246+0000001990+0000000009+I20000000000+0000001990+Z
110602001110602084-006995     110602006003000092802NAIL CLIPPER 8cm TOE   0000001000+00001753+00000+0001T   00001753+0000000954          1400 GE1200               1AZ
110603000110603               110603               170213OF     1400+00000+OF0000005262+0000005262+000000000+000000737+0000005990+0000000009+I20000000000+0000005990+Z
110603001110603368-000183     110603006003000668175PLUSH BEAR 15cm        0000001000+00005262+00000+0001T   00005262+0000000959          1400 GE1745               1AZ
110604000110604               110604               170213OF     1400+00000+OF0000006959+0000006959+000000000+000000976+0000007935+0000000000+I40000007935+0000000000+Z
110604001110604018-000130     110604006001023867537MUG OCC LOVE MINI+HEART0000001000+00003507+00000+0001T   00003507+0000001016          1400 GE1515               1AZ
110604002110604089-001021     110604006003000112319KEY CHAIN MINI BIBLE   0000001000+00001490+00000+0001T   00001490+0000001016          1400 GE1205               1AZ
110604003110604903-000087     110604006001704000161SWT SPECKLED-EGGS 50G  0000001000+00001139+00000+0001T   00001139+0000001016          1400 GE1150               1AZ
110604004110604903-000200     110604006009826020234SWT CHOC RP CHOCO 23G  0000001000+00000788+00000+0001T   00000788+0000001016          1400 GE1150               1AZ
110604005110604112-116038     110604006009681820246TCS CARRIER BAG MIDI   0000001000+00000035+00000+0001T   00000035+0000001016          1400 GE1090               1AZ
110605000110605               110605               170213OF     1400+00000+OF0000012274+0000012274+000000000+000001721+0000013990+0000000005+I20000000000+0000013990+Z
110605001110605040-000923     110605006001023587831CANDLE-HOLDER GLS 13.5 0000003000+00001753+00000+0001T   00001753+0000001019          1400 GE1510               1AZ
110605002110605077-000011-C   110605006001023808523TISSUE 10xSHTS RED     0000001000+00000876+00000+0001T   00000876+0000001019          1400 GE1112               1AZ
110605003110605566-000316     110605006003000521821STICKERS MIRRORS HOME  0000001000+00006139+00000+0001T   00006139+0000001019          1400 GE1130               1AZ
110606000110606               110606               170213OF     1400+00000+OF0000020388+0000020388+000000000+000002857+0000023245+0000000000+I40000023245+0000000000+Z
110606001110606112-116069     110606006009681820277TCS CARRIER BAG JUMBO  0000001000+00000048+00000+0001T   00000048+0000001021          1400 GE1090               1AZ
110606002110606566-000352     110606006001023809261STICKERS LASER ASSTD   0000001000+00002192+00000+0001T   00002192+0000001021          1400 GE1130               1AZ
110606003110606079-000269     110606006003000159963PAINT-BRUSHES SPONGETIP0000001000+00003507+00000+0001T   00003507+0000001021          1400 GE1130               1AZ
110606004110606071-081103     110606006003000197002GLUE STICKS LIQUID 3PCE0000001000+00001753+00000+0001T   00001753+0000001021          1400 GE1130               1AZ
110606005110606079-006494     110606006003000159864GLITTER GLUE 5PCE 11cm 0000001000+00001490+00000+0001T   00001490+0000001021          1400 GE1130               1AZ
110606006110606079-014152     110606006003000253074ART+CRAFT PK50 ASSTD   0000001000+00003069+00000+0001T   00003069+0000001021          1400 GE1130               1AZ
110606007110606079-013032-G   110606006003000496389FOAM BUTTERFLIES       0000001000+00002192+00000+0001T   00002192+0000001021          1400 GE1130               1AZ
110606008110606079-013101     110606006001023863706CRAFT SET DIY PIPE-CLNR0000001000+00002630+00000+0001T   00002630+0000001021          1400 GE1130               1AZ
110606009110606079-000286     110606006001023797032FINGER-PAINT 4PCE      0000001000+00003507+00000+0001T   00003507+0000001021          1400 GE1130               1AZ
110607000110607               110607               170213OF     1400+00000+OF0000003507+0000003507+000000000+000000491+0000003990+0000000008+I20000000000+0000003990+Z
110607001110607031-000002-A   110607006003000247103P/FRAME LOVE 7.5X7.5CM 0000001000+00003507+00000+0001T   00003507+0000001023          1400 GE1510               1AZ
110608000110608               110608               170213OF     1400+00000+OF0000042603+0000042603+000000000+000005975+0000048570+0000000008+I20000000000+0000048570+Z
110608001110608565-000001     110608006003000307951NOVELTY INSECT BALL    0000001000+00002630+00000+0001T   00002630+0000001032          1400 GE1745               1AZ
110608002110608071-081103     110608006003000197002GLUE STICKS LIQUID 3PCE0000001000+00001753+00000+0001T   00001753+0000001032          1400 GE1130               1AZ
110608003110608366-006103     110608006001023786944DRESS UP FACE PAINT SET0000001000+00002630+00000+0001T   00002630+0000001032          1400 GE1131               1AZ
110608004110608903-000012     110608006002099007308SWT MALLOW S/BERRY     0000001000+00000437+00000+0001T   00000437+0000001032          1400 GE1150               1AZ
110608005110608077-000240     110608006003000326259G/RIBBON 4PC PEARLIZED 0000001000+00001753+00000+0001T   00001753+0000001032          1400 GE1112               1AZ
110608006110608565-000887     110608006003000412334NOVELTY SILICONE TOY   0000001000+00002192+00000+0001T   00002192+0000001032          1400 GE1745               1AZ
110608007110608903-000911     110608006009802868454SWT ST GUM TAPE BARBIE 0000001000+00001753+00000+0001T   00001753+0000001032          1400 GE1150               1AZ
110608008110608903-000099     110608006923431501646SWT CANDY GS WTCH B/LET0000002000+00000262+00000+0001T   00000262+0000001032          1400 GE1150               1AZ
110608009110608162-092944     110608006001492929446SS 3PK KIDS H/BANDS    0000001000+00003507+00000+0001T   00003507+0000001032          1400 GE1160               1AZ
110608010110608174-000305     110608006003000105502TRAVEL NECK-PILLOW     0000001000+00007016+00000+0001T   00007016+0000001032          1400 GE1205               1AZ
110608011110608565-004101     110608006003000548033BALL BOUNCING EGG      0000002000+00001490+00000+0001T   00001490+0000001032          1400 GE1745               1AZ
110608012110608566-000066     110608006003000283675STICKERS GLITTER 25PCS 0000001000+00001753+00000+0001T   00001753+0000001032          1400 GE1130               1AZ
110608013110608903-002850     110608000000087108262MENTOS ROLL FRUIT      0000002000+00001051+00000+0001T   00001051+0000001032          1400 GE1150               1AZ
110608014110608903-000151     110608006009803374411SWT SML RND R/BOW LOLLY0000002000+00000525+00000+0001T   00000525+0000001032          1400 GE1150               1AZ
110608015110608089-000010     110608006003000106523KEY CHAIN REFLECTOR 2PC0000001000+00003507+00000+0001T   00003507+0000001032          1400 GE1205               1AZ
110608016110608361-000126     110608006003000602094DOLL SML 10cm SET      0000001000+00007016+00000+0001T   00007016+0000001032          1400 GE1725               1AZ
110609000110609               110609               170213OF     1400+00000+OF0000001402+0000001402+000000000+000000197+0000001590+0000000009+I20000000000+0000001590+Z
110609001110609046-000011     110609004897006172994BATTERIES SIZE:AA  2PCE0000001000+00001402+00000+0001T   00001402+0000001033          1400 GE1312               1AZ
110610000110610               110610               170213OF     1400+00000+OF0000008189+0000008189+000000000+000001148+0000009337+0000000000+I40000009337+0000000000+Z
110610001110610036-000501     110610006003000417407HOOK HANGER CHROME     0000001000+00004385+00000+0001T   00004385+0000001045          1400 GE1212               1AZ
110610002110610159-000038     110610006003000393954HOOKS HANGER S/S 2PCE  0000001000+00002630+00000+0001T   00002630+0000001045          1400 GE1200               1AZ
110610003110610039-000322     110610006001023524157B/CANDLES W/HOLDERS 24 0000001000+00001139+00000+0001T   00001139+0000001045          1400 GE1510               1AZ
110610004110610112-116038     110610006009681820246TCS CARRIER BAG MIDI   0000001000+00000035+00000+0001T   00000035+0000001045          1400 GE1090               1AZ
110611000110611               110611               170213OF     1400+00000+OF0000012012+0000012012+000000000+000001686+0000013698+0000000000+I40000013698+0000000000+Z
110611001110611301-085001     110611006003000297610ORN WATERBALL LOVE ASST0000001000+00004823+00000+0001T   00004823+0000001050          1400 GE1505               1AZ
110611002110611018-000170     110611006001023775528MUG OCC. LOVE 2PC MINI 0000001000+00002192+00000+0001T   00002192+0000001050          1400 GE1515               1AZ
110611003110611903-000183     110611006003000451043SWT LB HEART LOLLY     0000003000+00000393+00000+0001T   00000393+0000001050          1400 GE1150               1AZ
110611004110611077-000303     110611006001023593757GIFT-BAG PAPER MED     0000001000+00001578+00000+0001T   00001578+0000001050          1400 GE1112               1AZ
110611005110611080-000127     110611006003000424351VALENTINES DAY 36x24CM 0000001000+00002192+00000+0001T   00002192+0000001050          1400 GE1112               1AZ
110611006110611112-116069     110611006009681820277TCS CARRIER BAG JUMBO  0000001000+00000048+00000+0001T   00000048+0000001050          1400 GE1090               1AZ
110612000110612               110612               170213OF     1400+00000+OF0000004382+0000004382+000000000+000000615+0000004990+0000000007+I20000000000+0000004990+Z
110612001110612077-000011-R   110612006001023808462P/TISSUE DARK 10-SHEETS0000001000+00000876+00000+0001T   00000876+0000001050          1400 GE1112               1AZ
110612002110612077-000382     110612006003000247820GIFT-BAG MED 18X23CM   0000002000+00001753+00000+0001T   00001753+0000001050          1400 GE1112               1AZ
110613000110613               110613               170213OF     1400+00000+OF0000017609+0000017609+000000000+000002470+0000020079+0000000000+I40000020079+0000000000+Z
110613001110613112-116038     110613006009681820246TCS CARRIER BAG MIDI   0000001000+00000035+00000+0001T   00000035+0000001057          1400 GE1090               1AZ
110613002110613567-075497     110613009780799369519BK NOVEL ROMANCE AFR   0000001000+00006139+00000+0001T   00006139+0000001057          1400 GE1757               1AZ
110613003110613301-085004     110613006003000420469ORN LOVE PLAQUE 21X10CM0000001000+00003507+00000+0001T   00003946+0006471057          1400 GE1505               1AZ
110613004110613077-000303     110613006001023593757GIFT-BAG PAPER MED     0000001000+00001578+00000+0001T   00001578+0000001057          1400 GE1112               1AZ
110613005110613903-000012     110613006002099007308SWT MALLOW S/BERRY     0000003000+00000437+00000+0001T   00000437+0000001057          1400 GE1150               1AZ
110613006110613567-075490     110613009780799373752BK NOVEL ROMANCE AFR   0000001000+00003507+00000+0001T   00003507+0000001057          1400 GE1757               1AZ
110613007110613903-000087     110613006001704000161SWT SPECKLED-EGGS 50G  0000001000+00001139+00000+0001T   00001139+0000001057          1400 GE1150               1AZ
110613008110613903-000183     110613006003000451043SWT LB HEART LOLLY     0000001000+00000393+00000+0001T   00000393+0000001057          1400 GE1150               1AZ
110614000110614               110614               170213OF     1400+00000+OF0000014516+0000014516+000000000+000002034+0000016550+0000000000+I40000016550+0000000000+Z
110614001110614016-006521     110614006003000461349S/JAR GLS EASY-GRIP    0000002000+00002192+00000+0001T   00002192+0000001110          1400 GE1300               1AZ
110614002110614112-116069     110614006009681820277TCS CARRIER BAG JUMBO  0000001000+00000048+00000+0001T   00000048+0000001110          1400 GE1090               1AZ
110614003110614016-006521-A   110614006003000602230STORAGE-JAR CHECK 10cm 0000001000+00001753+00000+0001T   00001753+0000001110          1400 GE1300               1AZ
110614004110614016-006521     110614006003000461349S/JAR GLS EASY-GRIP    0000001000+00002192+00000+0001T   00002192+0000001110          1400 GE1300               1AZ
110614005110614567-075497     110614009780799381634BK NOVEL ROMANCE AFR   0000001000+00006139+00000+0001T   00006139+0000001110          1400 GE1757               1AZ
110615000110615               110615               170213OF     1400+00000+OF0000007014+0000007014+000000000+000000982+0000007990+0000000006+I20000000000+0000007990+Z
110615001110615267-000233     110615006001023688576PUZZLE 48pc EDUCATIONAL0000002000+00003507+00000+0001T   00003507+0000001129          1400 GE1755               1AZ
110616000110616               110616               170213OF     1400+00000+OF0000004383+0000004383+000000000+000000615+0000004990+0000000008+I20000000000+0000004990+Z
110616001110616566-000345     110616006001023994837STICKER ALBUM+STICKERS 0000001000+00002630+00000+0001T   00002630+0000001134          1400 GE1130               1AZ
110616002110616036-000063     110616006009654960436COATHANGERS VIRGIN 5PCE0000001000+00001753+00000+0001T   00001753+0000001134          1400 GE1212               1AZ
110617000110617               110617               170213OF     1400+00000+OF0000001753+0000001753+000000000+000000246+0000001990+0000000009+I20000000000+0000001990+Z
110617001110617080-000104     110617006003000236978CARD&ENVLP MALE AFR    0000001000+00001753+00000+0001T   00001753+0000001139          1400 GE1112               1AZ
110618000110618               110618               170213OF     1400+00000+OF0000001753+0000001753+000000000+000000246+0000001990+0000000009+I20000000000+0000001990+Z
110618001110618039-000318     110618006003000406159B/DAY CANDLES SMALL NO 0000001000+00001753+00000+0001T   00001753+0000001142          1400 GE1510               1AZ
110619000110619               110619               170213OF     1400+00000+OF0000023536+0000023536+000000000+000003297+0000026833+0000000000+I40000026833+0000000000+Z
110619001110619039-082106     110619006001023847348C/VOTIVE 8PC VANILLA   0000001000+00005262+00000+0001T   00005262+0000001154          1400 GE1510               1AZ
110619002110619079-014152     110619006003000253074ART+CRAFT PK50 ASSTD   0000004000+00003069+00000+0001T   00003069+0000001154          1400 GE1130               1AZ
110619003110619080-000124     110619006003000297733CARD & ENV VALENTINES  0000001000+00001578+00000+0001T   00001578+0000001154          1400 GE1112               1AZ
110619004110619006-000190     110619006003000685530BALLOONS LOVE 81x91cm  0000001000+00004385+00000+0001T   00004385+0000001154          1400 GE1131               1AZ
110619005110619112-116038     110619006009681820246TCS CARRIER BAG MIDI   0000001000+00000035+00000+0001T   00000035+0000001154          1400 GE1090               1AZ
110620000110620               110620               170213OF     1400+00000+OF0000008878+0000008878+000000000+000001244+0000010122+0000000000+I40000010122+0000000000+Z
110620001110620565-000070     110620006003000643691NOVELTY CREATURES 5cm  0000001000+00002016+00000+0001T   00002016+0000001157          1400 GE1745               1AZ
110620002110620112-116038     110620006009681820246TCS CARRIER BAG MIDI   0000001000+00000035+00000+0001T   00000035+0000001157          1400 GE1090               1AZ
110620003110620903-000111     110620006001704006378SWT LIQUORICE-TWISTS   0000001000+00001227+00000+0001T   00001227+0000001157          1400 GE1150               1AZ
110620004110620903-000120     110620006002099001665SWEET GS ZILLIONS 50g  0000008000+00000700+00000+0001T   00000700+0000001157          1400 GE1150               1AZ
110621000110621               110621               170213OF     1400+00000+OF0000001314+0000001314+000000000+000000184+0000001490+0000000008+I20000000000+0000001490+Z
110621001110621903-000844     110621005010478432567SWT CANDY DL LUV HEARTS0000001000+00001314+00000+0001T   00001314+0000001202          1400 GE1150               1AZ
110622000110622               110622               170213OF     1400+00000+OF0000014907+0000014907+000000000+000002089+0000016990+0000000006+I20000000000+0000016990+Z
110622001110622104-000183     110622006003000593729CUTLERY DRAINER 3DIV PL0000001000+00005262+00000+0001T   00005262+0000001218          1400 GE1210               1AZ
110622002110622159-000038     110622006003000393954HOOKS HANGER S/S 2PCE  0000002000+00002630+00000+0001T   00002630+0000001218          1400 GE1200               1AZ
110622003110622024-000003     110622006001023462206S/BURNER COVERS ASSTD  0000001000+00004385+00000+0001T   00004385+0000001218          1400 GE1300               1AZ
110623000110623               110623               170213OF     1400+00000+OF0000029450+0000029450+000000000+000004129+0000033579+0000000000+I40000033579+0000000000+Z
110623001110623104-000183     110623006003000593729CUTLERY DRAINER 3DIV PL0000001000+00005262+00000+0001T   00005262+0000001220          1400 GE1210               1AZ
110623002110623150-001234-1   110623005019190010015PLATE-HANGER P/C SIZE-10000005000+00001314+00000+0001T   00001314+0000001220          1400 GE1810               1AZ
110623003110623150-001234-2   110623005019190010022PLATE-HANGER P/C SIZE-20000005000+00001490+00000+0001T   00001490+0000001220          1400 GE1810               1AZ
110623004110623903-000087     110623006001704000161SWT SPECKLED-EGGS 50G  0000002000+00001139+00000+0001T   00001139+0000001220          1400 GE1150               1AZ
110623005110623159-000038     110623006003000393954HOOKS HANGER S/S 2PCE  0000003000+00002630+00000+0001T   00002630+0000001220          1400 GE1200               1AZ
110624000110624               110624               170213OF     1400+00000+OF0000005693+0000005693+000000000+000000801+0000006494+0000000000+I40000006494+0000000000+Z
110624001110624046-002032-PK2 110624004897006175063BATTERIES CR-2032  2PCE0000001000+00001753+00000+0001T   00001753+0000001239          1400 GE1312               1AZ
110624002110624046-002025-PK2 110624004897006174868BATTERIES CR-2025  2PCE0000001000+00001753+00000+0001T   00001753+0000001239          1400 GE1312               1AZ
110624003110624077-000011-C   110624006001023808523TISSUE 10xSHTS RED     0000001000+00000876+00000+0001T   00000876+0000001239          1400 GE1112               1AZ
110624004110624080-000133-A   110624006003000647019MINI VALENTINES CARD   0000003000+00000437+00000+0001T   00000437+0000001239          1400 GE1112               1AZ
110625000110625               110625               170213OF     1400+00000+OF0000000000+0000000000+000000000+000000000+0000000000+0000000000+I20000000000+0000000000+Z
110625001110625586-010754     110625006001492107547WATCH LDS HOT DEAL ASST0000001000-00011402+00000+0001T   00011402+0000001241          1400 GE11602IC            1 Z
110625002110625586-012459     110625006001492124599WATCH LDS QUILTED BLK  0000001000+00011402+00000+0001T   00011402+0000001241          1400 GE1160               1 Z
110626000110626               110626               170213OF     1400+00000+OF0000000035+0000000035+000000000+000000005+0000000040+0000000000+I20000000000+0000000040+Z
110626001110626112-116038     110626006009681820246TCS CARRIER BAG MIDI   0000001000+00000035+00000+0001T   00000035+0000001241          1400 GE1090               1AZ
110627000110627               110627               170213OF     1400+00000+OF0000002629+0000002629+000000000+000000369+0000002998+0000000000+I40000002998+0000000000+Z
110627001110627080-000133-A   110627006003000647019MINI VALENTINES CARD   0000001000+00000437+00000+0001T   00000437+0000001243          1400 GE1112               1AZ
110627002110627104-000033     110627006003000615070BASKET PL 30x20x11cm   0000001000+00002192+00000+0001T   00002192+0000001243          1400 GE1210               1AZ
110628000110628               110628               170213OF     1400+00000+OF0000001400+0000001400+000000000+000000196+0000001590+0000000006+I20000000000+0000001590+Z
110628001110628564-000012     110628006001023130075BUBBLE BOTTLE MAGIC    0000002000+00000700+00000+0001T   00000700+0000001243          1400 GE1131               1DZ
110629000110629               110629               170213OF     1400+00000+OF0000003994+0000003994+000000000+000000560+0000004554+0000000000+I40000004554+0000000000+Z
110629001110629112-116069     110629006009681820277TCS CARRIER BAG JUMBO  0000001000+00000048+00000+0001T   00000048+0000001250          1400 GE1090               1AZ
110629002110629103-000473     110629006003000631087BAMBOO FLOWER BASKET   0000001000+00003946+00000+0001T   00003946+0000001250          1400 GE1300               1AZ
110630000110630               110630               170213OF     1400+00000+OF0000001753+0000001753+000000000+000000246+0000001999+0000000000+I40000001999+0000000000+Z
110630001110630077-000316     110630006001023609731GIFT-BAG 25X32CM MATT  0000001000+00001753+00000+0001T   00001753+0000001252          1400 GE1112               1AZ
110631000110631               110631               170213OF     1400+00000+OF0000015553+0000015553+000000000+000002179+0000017730+0000000002+I20000000000+0000017730+Z
110631001110631075-000346     110631006003000102853PURSE SILICONE WITH ZIP0000002000+00003507+00000+0001T   00003507+0000001255          1400 GE1160               1AZ
110631002110631018-000170     110631006001023775528MUG OCC. LOVE 2PC MINI 0000001000+00002192+00000+0001T   00002192+0000001255          1400 GE1515               1AZ
110631003110631903-000090     110631006009826020821SWT GS CHOCO COINS 60g 0000002000+00002104+00000+0001T   00002104+0000001255          1400 GE1150               1AZ
110631004110631903-000095     110631006001704011495SWT SPECKLED-EGGS 100G 0000001000+00002104+00000+0001T   00002104+0000001255          1400 GE1150               1AZ
110631005110631112-116038     110631006009681820246TCS CARRIER BAG MIDI   0000001000+00000035+00000+0001T   00000035+0000001255          1400 GE1090               1AZ
110632000110632               110632               170213OF     1400+00000+OF0000000700+0000000700+000000000+000000098+0000000790+0000000008+I20000000000+0000000790+Z
110632001110632018-000177     110632006001023797513MUG MINI LOVE ASSTD    0000001000+00000700+00000+0001T   00000700+0000001303          1400 GE1515               1AZ
110633000110633               110633               170213OF     1400+00000+OF0000001752+0000001752+000000000+000000246+0000001990+0000000008+I20000000000+0000001990+Z
110633001110633077-000302     110633008010410010195GIFT-BAG 18X23CM E/D   0000002000+00000876+00000+0001T   00000876+0000001310          1400 GE1112               1DZ
110634000110634               110634               170213OF     1400+00000+OF0000006139+0000006139+000000000+000000860+0000006999+0000000000+I40000006999+0000000000+Z
110634001110634261-003903     110634006001023827746GUN SET ARMY ASSTD     0000001000+00006139+00000+0001T   00006139+0000001313          1400 GE1710               1AZ
110635000110635               110635               170213OF     1400+00000+OF0000004998+0000004998+000000000+000000700+0000005690+0000000008+I20000000000+0000005690+Z
110635001110635301-000015     110635006001023479907ORN SENTIMENT STONE    0000001000+00004385+00000+0001T   00004385+0000001321          1400 GE1505               1AZ
110635002110635077-000311     110635006001023608666GIFT-BAG 11X14CM GLOSS 0000001000+00000613+00000+0001T   00000613+0000001321          1400 GE1112               1AZ
110636000110636               110636               170213OF     1400+00000+OF0000003506+0000003506+000000000+000000492+0000003998+0000000000+I40000003998+0000000000+Z
110636001110636077-000011-C   110636006001023808523TISSUE 10xSHTS RED     0000001000+00000876+00000+0001T   00000876+0000001322          1400 GE1112               1AZ
110636002110636077-000270     110636006003000395453GIFT-BAG PPR JMB 33X45 0000001000+00002630+00000+0001T   00002630+0000001322          1400 GE1112               1AZ
110637000110637               110637               170213OF     1400+00000+OF0000036656+0000036656+000000000+000005135+0000041791+0000000000+I40000041791+0000000000+Z
110637001110637368-000265     110637006001023750914PLUSH BEAR 23CM ASSTD C0000001000+00006139+00000+0001T   00006139+0000001331          1400 GE1745               1AZ
110637002110637079-000623     110637006001023836274CHALK MARBLE 5PCE      0000001000+00001753+00000+0001T   00001753+0000001331          1400 GE1130               1AZ
110637003110637019-000049     110637006001023673732V/GLASS FOOTED 17X25CM 0000001000+00017542+00000+0001T   00017542+0000001331          1400 GE1510               1AZ
110637004110637080-000124     110637006003000297733CARD & ENV VALENTINES  0000001000+00001578+00000+0001T   00001578+0000001331          1400 GE1112               1AZ
110637005110637077-000303     110637006001023593757GIFT-BAG PAPER MED     0000001000+00001578+00000+0001T   00001578+0000001331          1400 GE1112               1AZ
110637006110637903-000087     110637006001704000161SWT SPECKLED-EGGS 50G  0000001000+00001139+00000+0001T   00001139+0000001331          1400 GE1150               1AZ
110637007110637903-000200     110637006009826020234SWT CHOC RP CHOCO 23G  0000001000+00000788+00000+0001T   00000788+0000001331          1400 GE1150               1AZ
110637008110637566-000316     110637006003000521821STICKERS MIRRORS HOME  0000001000+00006139+00000+0001T   00006139+0000001331          1400 GE1130               1AZ
110638000110638               110638               170213OF     1400+00000+OF0000030634+0000030634+000000000+000004298+0000034932+0000000000+I40000034932+0000000000+Z
110638001110638304-001114     110638006001023738219FLWR BUNCH ROSES/LILY  0000001000+00007893+00000+0001T   00007893+0000001341          1400 GE1510               1AZ
110638002110638304-001126     110638006001023845047FLWR BUNCH GERBERA 31cm0000002000+00002630+00000+0001T   00002630+0000001341          1400 GE1510               1AZ
110638003110638077-000240     110638006003000326259G/RIBBON 4PC PEARLIZED 0000001000+00001753+00000+0001T   00001753+0000001341          1400 GE1112               1AZ
110638004110638304-001114     110638006001023738219FLWR BUNCH ROSES/LILY  0000001000-00007893+00000+0001T   00007893+0000001341          1400 GE15101IC            1 Z
110638005110638304-001126     110638006001023845047FLWR BUNCH GERBERA 31cm0000002000+00002630+00000+0001T   00002630+0000001341          1400 GE1510               1AZ
110638006110638077-000239     110638006003000160419GIFT-RIBBON ROLL PEARL 0000001000+00001753+00000+0001T   00001753+0000001341          1400 GE1112               1AZ
110638007110638006-000166-H   110638006003000608096BALLOONS HELIUM 6PC WHT0000001000+00001314+00000+0001T   00001314+0000001341          1400 GE1131               1AZ
110638008110638006-000167-C   110638006003000516971BALLOONS PINK METALLIC 0000001000+00001314+00000+0001T   00001314+0000001341          1400 GE1131               1AZ
110638009110638077-000235     110638006003000160211GIFT-RIBBON ROLL METALC0000001000+00002630+00000+0001T   00002630+0000001341          1400 GE1112               1AZ
110638010110638006-000166-D   110638006003000516490BALLOONS LRG 6PC RED   0000001000+00001314+00000+0001T   00001314+0000001341          1400 GE1131               1AZ
110638011110638006-000166-C   110638006003000516377BALLOONS LRG 6PC PINK  0000001000+00001314+00000+0001T   00001314+0000001341          1400 GE1131               1AZ
110638012110638077-000011-C   110638006001023808523TISSUE 10xSHTS RED     0000001000+00000876+00000+0001T   00000876+0000001341          1400 GE1112               1AZ
110638013110638077-000011-D   110638006001023808554TISSUE-WRAP WHITE 10PCE0000001000+00000876+00000+0001T   00000876+0000001341          1400 GE1112               1AZ
110638014110638077-000011-C   110638006001023808523TISSUE 10xSHTS RED     0000001000+00000876+00000+0001T   00000876+0000001341          1400 GE1112               1AZ
110638015110638077-000010-D   110638006001023123886CREPE-PAPER WHITE      0000001000+00000788+00000+0001T   00000788+0000001341          1400 GE1112               1AZ
110638016110638366-006103     110638006001023786944DRESS UP FACE PAINT SET0000001000+00002630+00000+0001T   00002630+0000001341          1400 GE1131               1AZ
110638017110638006-000223     110638006001023891327PARTY EYE-MASK 6PCE    0000003000+00000876+00000+0001T   00000876+0000001341          1400 GE1131               1AZ
110638018110638112-116069     110638006009681820277TCS CARRIER BAG JUMBO  0000001000+00000048+00000+0001T   00000048+0000001341          1400 GE1090               1AZ
110639000110639               110639               170213OF     1400+00000+OF0000002717+0000002717+000000000+000000381+0000003098+0000000000+I40000003098+0000000000+Z
110639001110639903-000087     110639006001704000161SWT SPECKLED-EGGS 50G  0000001000+00001139+00000+0001T   00001139+0000001342          1400 GE1150               1AZ
110639002110639077-000303     110639006001023593757GIFT-BAG PAPER MED     0000001000+00001578+00000+0001T   00001578+0000001342          1400 GE1112               1AZ
110640000110640               110640               170213OF     1400+00000+OF0000000788+0000000788+000000000+000000111+0000000899+0000000000+I40000000899+0000000000+Z
110640001110640903-000138     110640006002099004314SWT GS WINE GUMS 60G   0000001000+00000788+00000+0001T   00000788+0000001343          1400 GE1150               1AZ
110641000110641               110641               170213OF     1400+00000+OF0000003067+0000003067+000000000+000000430+0000003497+0000000000+I40000003497+0000000000+Z
110641001110641077-000467     110641006003000329991GIFT-BAG STAMP 18X23CM 0000001000+00001753+00000+0001T   00001753+0000001345          1400 GE1112               1AZ
110641002110641077-000310     110641006001023608635GIFT-BAG 18X23CM GLOSS 0000001000+00001314+00000+0001T   00001314+0000001345          1400 GE1112               1AZ
110642000110642               110642               170213OF     1400+00000+OF0000006605+0000006605+000000000+000000925+0000007530+0000000000+I20000000000+0000007530+Z
110642001110642006-000166-H   110642006003000608096BALLOONS HELIUM 6PC WHT0000002000+00001314+00000+0001T   00001314+0000001347          1400 GE1131               1AZ
110642002110642006-000166-C   110642006003000516377BALLOONS LRG 6PC PINK  0000001000+00001314+00000+0001T   00001314+0000001347          1400 GE1131               1AZ
110642003110642006-000167-C   110642006003000516971BALLOONS PINK METALLIC 0000001000+00001314+00000+0001T   00001314+0000001347          1400 GE1131               1AZ
110642004110642112-116038     110642006009681820246TCS CARRIER BAG MIDI   0000001000+00000035+00000+0001T   00000035+0000001347          1400 GE1090               1AZ
110642005110642903-000194     110642006009826020616SWT CHOC RP LOLLY 25G  0000001000+00001314+00000+0001T   00001314+0000001347          1400 GE1150               1AZ
110643000110643               110643               170213OF     1400+00000+OF0000001578+0000001578+000000000+000000221+0000001790+0000000009+I20000000000+0000001790+Z
110643001110643077-000471     110643006003000330096G-BAG DESGN MED 18X23CM0000001000-00001753+00000+0001T   00001753+0000001355          1400 GE11121IC            1 Z
110643002110643077-000471     110643006003000330096G-BAG DESGN MED 18X23CM0000001000+00001753+00000+0001T   00001753+0000001355          1400 GE11121IC            1AZ
110643003110643077-000303     110643006001023593757GIFT-BAG PAPER MED     0000001000+00001578+00000+0001T   00001578+0000001355          1400 GE1112               1AZ
110644000110644               110644               170213OF     1400+00000+OF0000001401+0000001401+000000000+000000197+0000001590+0000000008+I20000000000+0000001590+Z
110644001110644903-000843     110644008693029031067SWT GUMMY JELAXY 80G   0000001000+00000964+00000+0001T   00000964+0000001358          1400 GE1150               1AZ
110644002110644080-000133-A   110644006003000647019MINI VALENTINES CARD   0000001000+00000437+00000+0001T   00000437+0000001358          1400 GE1112               1AZ
110645000110645               110645               170213OF     1400+00000+OF0000005259+0000005259+000000000+000000738+0000005990+0000000007+I20000000000+0000005990+Z
110645001110645306-000529     110645006003000571338TOOTHBRUSH HOLDER 20cm 0000002000+00001753+00000+0001T   00001753+0000001358          1400 GE1200               1AZ
110645002110645071-003040     110645006003000543342PEN CLUTCH+LEAD 5pce   0000001000+00001753+00000+0001T   00001753+0000001358          1400 GE1130               1AZ
110646000110646               110646               170213OF     1400+00000+OF0000002630+0000002630+000000000+000000369+0000002990+0000000009+I20000000000+0000002990+Z
110646001110646200-003021     110646006003000276370REFUSE BAGS 30xSCENTED 0000001000+00002630+00000+0001T   00002630+0000001407          1400 GE1214               1AZ
110647000110647               110647               170213OF     1400+00000+OF0000002662+0000002662+000000000+000000374+0000003036+0000000000+I40000003036+0000000000+Z
110647001110647083-000049     110647004891035200024CIG-LIGHTER DISPOSABLE 0000001000+00000437+00000+0001T   00000437+0000001415          1400 GE1315               1AZ
110647002110647039-000323     110647006001023524171BIRTHDAY-CANDLES 24PCE 0000001000+00000876+00000+0001T   00000876+0000001415          1400 GE1510               1AZ
110647003110647077-000312     110647006001023608697GIFT-BAG 10X35CM GLOSS 0000001000+00001314+00000+0001T   00001314+0000001415          1400 GE1112               1AZ
110647004110647112-116038     110647006009681820246TCS CARRIER BAG MIDI   0000001000+00000035+00000+0001T   00000035+0000001415          1400 GE1090               1AZ
110648000110648               110648               170213OF     1400+00000+OF0000005260+0000005260+000000000+000000737+0000005997+0000000000+I40000005997+0000000000+Z
110648001110648077-000455     110648006003000285389G/BAG METALLIC LRG SOL 0000001000+00001753+00000+0001T   00001753+0000001419          1400 GE1112               1AZ
110648002110648018-000136     110648006001023659026MUG OCC LOVE W/PLUSH   0000001000+00003507+00000+0001T   00003507+0000001419          1400 GE1515               1AZ
110649000110649               110649               170213OF     1400+00000+OF0000016271+0000016271+000000000+000002280+0000018551+0000000000+I40000018551+0000000000+Z
110649001110649112-116069     110649006009681820277TCS CARRIER BAG JUMBO  0000001000+00000048+00000+0001T   00000048+0000001523          1400 1IC090               1AZ
110649002110649024-000057     110649006003000054022ROLLING-PIN WDN 35cm   0000001000+00003069+00000+0001T   00003069+0000001523          1400 1IC300               1AZ
110649003110649024-000173     110649006003000504541SILICONE BAKING MAT    0000001000+00006139+00000+0001T   00006139+0000001523          1400 1IC300               1AZ
110649004110649039-000326     110649006001023775252B/CANDLES 25PC CAND+HOL0000001000+00002192+00000+0001T   00002192+0000001523          1400 1IC510               1AZ
110649005110649024-000113     110649006001023422194C/PAN N/STICK 20X4.5CM 0000001000+00004823+00000+0001T   00004823+0000001523          1400 1IC300               1AZ
110650000110650               110650               170213OF     1400+00000+OF0000000437+0000000437+000000000+000000062+0000000490+0000000009+I20000000000+0000000490+Z
110650001110650083-000049     110650004891035200024CIG-LIGHTER DISPOSABLE 0000001000+00000437+00000+0001T   00000437+0000001526          1400 1IC315               1AZ
110651000110651               110651               170213OF     1400+00000+OF0000001840+0000001840+000000000+000000258+0000002098+0000000000+I40000002098+0000000000+Z
110651001110651903-000494     110651006001704009911SWT GUMMY TEENY TEDDIES0000001000+00000876+00000+0001T   00000876+0000001549          1400 GE1150               1AZ
110651002110651903-000843     110651008693029031067SWT GUMMY JELAXY 80G   0000001000+00000964+00000+0001T   00000964+0000001549          1400 GE1150               1AZ
110652000110652               110652               170213OF     1400+00000+OF0000009910+0000009910+000000000+000001388+0000011298+0000000000+I40000011298+0000000000+Z
110652001110652903-000087     110652006001704000161SWT SPECKLED-EGGS 50G  0000001000+00001139+00000+0001T   00001139+0000001551          1400 GE1150               1AZ
110652002110652001-091415     110652006003000329113W/GLS OCC. LOVE 2PC 2800000001000+00008771+00000+0001T   00009648+0006471551          1400 GE1515               1AZ
110653000110653               110653               170213OF     1400+00000+OF0000009254+0000009254+000000000+000001296+0000010550+0000000000+I40000010550+0000000000+Z
110653001110653080-000127     110653006003000424351VALENTINES DAY 36x24CM 0000001000+00002192+00000+0001T   00002192+0000001553          1400 GE1112               1AZ
110653002110653018-000136     110653006001023659026MUG OCC LOVE W/PLUSH   0000002000+00003507+00000+0001T   00003507+0000001553          1400 GE1515               1AZ
110653003110653112-116069     110653006009681820277TCS CARRIER BAG JUMBO  0000001000+00000048+00000+0001T   00000048+0000001553          1400 GE1090               1AZ
110654000110654               110654               170213OF     1400+00000+OF0000013414+0000013414+000000000+000001880+0000015294+0000000000+I40000015294+0000000000+Z
110654001110654077-000303     110654006001023593757GIFT-BAG PAPER MED     0000001000+00001578+00000+0001T   00001578+0000001624          1400 1IC112               1AZ
110654002110654077-000270     110654006003000395453GIFT-BAG PPR JMB 33X45 0000001000+00002630+00000+0001T   00002630+0000001624          1400 1IC112               1AZ
110654003110654079-000336     110654006003000670758SUPER FINE MARKER PENS 0000001000+00005262+00000+0001T   00005262+0000001624          1400 1IC130               1AZ
110654004110654567-011422     110654006003000641222BK COLOURING THERAPY   0000001000+00003507+00000+0001T   00003507+0000001624          1400 1IC757               1AZ
110654005110654080-000133     110654006003000535613CARD&ENV MINI ASTD DSGN0000001000+00000437+00000+0001T   00000437+0000001624          1400 1IC112               1AZ
110655000110655               110655               170213OF     1400+00000+OF0000026313+0000026313+000000000+000003684+0000029997+0000000000+I40000029997+0000000000+Z
110655001110655466-000005     110655006003000508174PLAY-TENT POP-UP GIRL  0000001000+00021928+00000+0001T   00021928+0000001630          1400 1IC785               1AZ
110655002110655362-002430     110655006001023707314HAIR ACCESS SHINY PURSE0000001000+00004385+00000+0001T   00004385+0000001630          1400 1IC160               1AZ
110656000110656               110656               170213OF     1400+00000+OF0000012760+0000012760+000000000+000001788+0000014548+0000000000+I40000014548+0000000000+Z
110656001110656366-000302     110656006001023903013DRESSUP DEVIL/MOUSE    0000001000+00002192+00000+0001T   00002192+0000001632          1400 1IC131               1AZ
110656002110656566-000028     110656006003000265541STICKER BK ASSTD 250PCE0000001000+00001753+00000+0001T   00001753+0000001632          1400 1IC130               1AZ
110656003110656362-002467     110656006003000167623HAIR EXT LONG 61cm     0000002000+00003507+00000+0001T   00003507+0000001632          1400 1IC160               1AZ
110656004110656006-000120     110656006001023346889BALLOONS 10PC MIX COL  0000001000+00001753+00000+0001T   00001753+0000001632          1400 1IC131               1AZ
110656005110656112-116069     110656006009681820277TCS CARRIER BAG JUMBO  0000001000+00000048+00000+0001T   00000048+0000001632          1400 1IC090               1AZ
110657000110657               110657               170213OF     1400+00000+OF0000012325+0000012325+000000000+000001727+0000014050+0000000002+I20000000000+0000014050+Z
110657001110657031-086302-C   110657006001023910332P/FRAME COLL. PL 3-HOLE0000001000+00008771+00000+0001T   00008771+0000001633          1400 1IC510               1AZ
110657002110657077-000011-C   110657006001023808523TISSUE 10xSHTS RED     0000001000+00000876+00000+0001T   00000876+0000001633          1400 1IC112               1AZ
110657003110657077-000005-B   110657006003000326617PAPER TISSUE PATTERN   0000001000+00002630+00000+0001T   00002630+0000001633          1400 1IC112               1AZ
110657004110657112-116069     110657006009681820277TCS CARRIER BAG JUMBO  0000001000+00000048+00000+0001T   00000048+0000001633          1400 1IC090               1AZ
110658000110658               110658               170213OF     1400+00000+OF0000027843+0000027843+000000000+000003900+0000031743+0000000000+I40000031743+0000000000+Z
110658001110658105-007555     110658006003000485796STORAGE BOX CLEAR NICHE0000002000+00009648+00000+0001T   00009648+0000001638          1400 1IC210               1AZ
110658002110658566-001118     110658006003000682171STICKERS CELL PHONE    0000001000+00001753+00000+0001T   00001753+0000001638          1400 1IC130               1AZ
110658003110658565-000602     110658006003000643790NOVELTY NINJA'S 3PACK  0000001000+00002630+00000+0001T   00002630+0000001638          1400 1IC745               1AZ
110658004110658566-001212     110658000721129014166STICKERS MICRO ASSTD   0000001000+00000657+00000+0001T   00000657+0000001638          1400 1IC130               1AZ
110658005110658079-011526     110658006003000408375GLITTER & SAND ART     0000001000+00003507+00000+0001T   00003507+0000001638          1400 1IC130               1AZ
110659000110659               110659               170213OF     1400+00000+OF0000004207+0000004207+000000000+000000590+0000004797+0000000000+I40000004797+0000000000+Z
110659001110659077-000381     110659006003000247707GIFT-BAG 25X32CM S/COL 0000001000+00001753+00000+0001T   00001753+0000001640          1400 1IC112               1AZ
110659002110659077-000303     110659006001023593757GIFT-BAG PAPER MED     0000001000+00001578+00000+0001T   00001578+0000001640          1400 1IC112               1AZ
110659003110659077-000011-D   110659006001023808554TISSUE-WRAP WHITE 10PCE0000001000+00000876+00000+0001T   00000876+0000001640          1400 1IC112               1AZ
110660000110660               110660               170213OF     1400+00000+OF0000000876+0000000876+000000000+000000123+0000000990+0000000009+I20000000000+0000000990+Z
110660001110660077-000314     110660006003000181148GIFT-BAG 11X14CM MATT  0000001000+00000876+00000+0001T   00000876+0000001642          1400 1IC112               1AZ
110661000110661               110661               170213OF     1400+00000+OF0000003069+0000003069+000000000+000000430+0000003490+0000000009+I20000000000+0000003490+Z
110661001110661030-000030-A   110661006003000249305PLAQUE GLASS LOVE      0000001000+00003069+00000+0001T   00003069+0000001643          1400 1IC505               1AZ
110662000110662               110662               170213OF     1400+00000+OF0000002628+0000002628+000000000+000000368+0000002990+0000000006+I20000000000+0000002990+Z
110662001110662078-009100     110662006008741002349ALL-CLEAR GLUE 25ml CRD0000002000+00001314+00000+0001T   00001314+0000001644          1400 1IC810               1AZ
110663000110663               110663               170213OF     1400+00000+OF0000001490+0000001490+000000000+000000209+0000001690+0000000009+I20000000000+0000001690+Z
110663001110663046-000010     110663004897006172987BATTERIES AAA ALKLN 2PC0000001000+00001490+00000+0001T   00001490+0000001645          1400 1IC312               1AZ
110664000110664               110664               170213OF     1400+00000+OF0000004294+0000004294+000000000+000000603+0000004890+0000000007+I20000000000+0000004890+Z
110664001110664077-000318     110664006001023609755GIFT-BAG 18X23CM E/D AN0000001000+00001227+00000+0001T   00001227+0000001647          1400 1IC112               1AZ
110664002110664018-000129     110664006001023403353MUG OCC. LOVE V-SHAPE  0000001000+00002630+00000+0001T   00002630+0000001647          1400 1IC515               1AZ
110664003110664080-000133-A   110664006003000647019MINI VALENTINES CARD   0000001000+00000437+00000+0001T   00000437+0000001647          1400 1IC112               1AZ
110665000110665               110665               170213OF     1400+00000+OF0000009338+0000009338+000000000+000001310+0000010640+0000000008+I20000000000+0000010640+Z
110665001110665018-000127     110665006001023380289MUG OCC STRAIGHT LOVE  0000001000+00001578+00000+0001T   00001753+0006471652          1400 1IC515               1AZ
110665002110665031-005853     110665006003000442416P/FRAME WDN TWIN HEARTS0000001000+00003507+00000+0001T   00003507+0000001652          1400 1IC510               1AZ
110665003110665077-000011-C   110665006001023808523TISSUE 10xSHTS RED     0000001000+00000876+00000+0001T   00000876+0000001652          1400 1IC112               1AZ
110665004110665080-000133     110665006003000535613CARD&ENV MINI ASTD DSGN0000001000+00000437+00000+0001T   00000437+0000001652          1400 1IC112               1AZ
110665005110665112-116069     110665006009681820277TCS CARRIER BAG JUMBO  0000001000+00000048+00000+0001T   00000048+0000001652          1400 1IC090               1AZ
110665006110665903-000087     110665006001704000161SWT SPECKLED-EGGS 50G  0000001000+00001139+00000+0001T   00001139+0000001652          1400 1IC150               1AZ
110665007110665077-000381     110665006003000247707GIFT-BAG 25X32CM S/COL 0000001000+00001753+00000+0001T   00001753+0000001652          1400 1IC112               1AZ
110666000110666               110666               170213OF     1400+00000+OF0000001752+0000001752+000000000+000000246+0000001998+0000000000+I40000001998+0000000000+Z
110666001110666077-000314     110666006003000181148GIFT-BAG 11X14CM MATT  0000002000+00000876+00000+0001T   00000876+0000001655          1400 1IC112               1AZ
110667000110667               110667               170213OF     1400+00000+OF0000006139+0000006139+000000000+000000860+0000006999+0000000000+I40000006999+0000000000+Z
110667001110667007-000323     110667006009697791042PAPER A4 80GSM 100'S   0000001000+00006139+00000+0001T   00006139+0000001656          1400 1IC130               1AZ
110668000110668               110668               170213OF     1400+00000+OF0000008771+0000008771+000000000+000001228+0000009999+0000000000+I40000009999+0000000000+Z
110668001110668019-000047-A   110668006001023749048VASE GLASS 30CM CLEAR  0000001000+00008771+00000+0001T   00008771+0000001700          1400 KU3510               1AZ
110669000110669               110669               170213OF     1400+00000+OF0000008641+0000008641+000000000+000001211+0000009852+0000000000+I40000009852+0000000000+Z
110669001110669079-006495     110669006003000159987GLITTER SHAKERS 6PK    0000001000+00002630+00000+0001T   00002630+0000001702          1400 KU3130               1AZ
110669002110669079-013102     110669006003000019601ART+CRAFT DIY PIPE-CLNR0000001000+00002192+00000+0001T   00002192+0000001702          1400 KU3130               1AZ
110669003110669108-009015-B   110669006005387000050SALAD-BOWL LRGE ASSTD  0000001000+00003771+00000+0001T   00003771+0000001702          1400 KU3210               1AZ
110669004110669112-116069     110669006003000535064TCS CARRIER BAG JUMBO  0000001000+00000048+00000+0001T   00000048+0000001702          1400 KU3090               1AZ
110670000110670               110670               170213OF     1400+00000+OF0000003331+0000003331+000000000+000000467+0000003790+0000000008+I20000000000+0000003790+Z
110670001110670301-085002     110670006003000420704ORN OCC. LOVE BELL ASST0000001000+00001753+00000+0001T   00002630+0008121703          1400 KU3505               1AZ
110670002110670077-000303     110670006001023593757GIFT-BAG PAPER MED     0000001000+00001578+00000+0001T   00001578+0000001703          1400 KU3112               1AZ
110671000110671               110671               170213OF     1400+00000+OF0000003069+0000003069+000000000+000000430+0000003490+0000000009+I20000000000+0000003490+Z
110671001110671030-000030-A   110671006003000249305PLAQUE GLASS LOVE      0000001000+00003069+00000+0001T   00003069+0000001703          1400 KU3505               1AZ
110672000110672               110672               170213OF     1400+00000+OF0000007015+0000007015+000000000+000000983+0000007998+0000000000+I40000007998+0000000000+Z
110672001110672039-000796     110672006001023617750CANDLES TEALITE BOX-8  0000001000+00004385+00000+0001T   00004385+0000001707          1400 KU3510               1AZ
110672002110672039-000100     11067200600300060614625CM WHITE CANDLE 6PC  0000001000+00002630+00000+0001T   00002630+0000001707          1400 KU3510               1AZ
110673000110673               110673               170213OF     1400+00000+OF0000013626+0000013626+000000000+000001908+0000015534+0000000000+I40000015534+0000000000+Z
110673001110673566-000359     110673006003000582709STICKER BOOK LOVE SPARK0000001000+00002192+00000+0001T   00002192+0000001710          1400 KU3130               1AZ
110673002110673030-000031-A   110673006003000457588PLAQUE W/WORDS ASSTD   0000001000+00004385+00000+0001T   00004823+0006471710          1400 KU3505               1AZ
110673003110673200-000012     110673006003000399536BAG 50PCE 165x146mm    0000001000+00003507+00000+0001T   00003507+0000001710          1400 KU3214               1AZ
110673004110673018-005009     110673006001023725608MUG W/PLUSH-BEAR LOVE  0000001000+00003507+00000+0001T   00003507+0000001710          1400 KU3515               1AZ
110673005110673112-116038     110673006009681820246TCS CARRIER BAG MIDI   0000001000+00000035+00000+0001T   00000035+0000001710          1400 KU3090               1AZ
110674000110674               110674               170213OF     1400+00000+OF0000002278+0000002278+000000000+000000320+0000002590+0000000008+I20000000000+0000002590+Z
110674001110674903-000709     110674006002099007070SWT QUENCHERS FRUIT    0000002000+00001139+00000+0001T   00001139+0000001723          1400 1IC150               1AZ
110675000110675               110675               170213OF     1400+00000+OF0000001753+0000001753+000000000+000000246+0000001990+0000000009+I20000000000+0000001990+Z
110675001110675077-000240     110675006003000326259G/RIBBON 4PC PEARLIZED 0000001000+00001753+00000+0001T   00001753+0000001723          1400 1IC112               1AZ
110676000110676               110676               170213OF     1400+00000+OF0000009694+0000009694+000000000+000001358+0000011050+0000000002+I20000000000+0000011050+Z
110676001110676567-075470     110676009780007795352BK NOVEL CATEGORY B    0000001000+00006139+00000+0001T   00006139+0000001724          1400 1IC757               1AZ
110676002110676567-075490     110676009780799376456BK NOVEL ROMANCE AFR   0000001000+00003507+00000+0001T   00003507+0000001724          1400 1IC757               1AZ
110676003110676112-116069     110676006009681820277TCS CARRIER BAG JUMBO  0000001000+00000048+00000+0001T   00000048+0000001724          1400 1IC090               1AZ
110677000110677               110677               170213OF     1400+00000+OF0000002630+0000002630+000000000+000000369+0000002990+0000000009+I20000000000+0000002990+Z
110677001110677466-000514     110677006001023196620BALLS TENNIS COLR BAG-30000001000+00002630+00000+0001T   00002630+0000001727          1400 1IC785               1AZ
110678000110678               110678               170213OF     1400+00000+OF0000005256+0000005256+000000000+000000736+0000005992+0000000000+I40000005992+0000000000+Z
110678001110678077-000470     110678006003000330171G-BAG DESGN SML 11X14CM0000004000+00001314+00000+0001T   00001314+0000001735          1400 1IC112               1AZ
110679000110679               110679               170213OF     1400+00000+OF0000004385+0000004385+000000000+000000614+0000004990+0000000009+I20000000000+0000004990+Z
110679001110679006-000190     110679006003000685530BALLOONS LOVE 81x91cm  0000001000+00004385+00000+0001T   00004385+0000001743          1400 1IC131               1AZ
110680000110680               110680               170213OF     1400+00000+OF0000006884+0000006884+000000000+000000965+0000007849+0000000000+I40000007849+0000000000+Z
110680001110680566-000028     110680006003000265541STICKER BK ASSTD 250PCE0000001000+00001753+00000+0001T   00001753+0000001751          1400 1IC130               1AZ
110680002110680018-000177     110680006001023797513MUG MINI LOVE ASSTD    0000001000+00000700+00000+0001T   00000700+0000001751          1400 1IC515               1AZ
110680003110680077-000011-C   110680006001023808523TISSUE 10xSHTS RED     0000001000+00000876+00000+0001T   00000876+0000001751          1400 1IC112               1AZ
110680004110680031-000002-A   110680006003000247103P/FRAME LOVE 7.5X7.5CM 0000001000+00003507+00000+0001T   00003507+0000001751          1400 1IC510               1AZ
110680005110680112-116069     110680006009681820277TCS CARRIER BAG JUMBO  0000001000+00000048+00000+0001T   00000048+0000001751          1400 1IC090               1AZ
110681000110681               110681               170213OF     1400+00000+OF0000019420+0000019420+000000000+000002722+0000022140+0000000002+I20000000000+0000022140+Z
110681001110681362-019375     110681006001023730664HAIR BAND SET 24PCE    0000001000+00000876+00000+0001T   00000876+0000001756          1400 1IC160               1AZ
110681002110681566-000028     110681006003000265541STICKER BK ASSTD 250PCE0000002000+00001753+00000+0001T   00001753+0000001756          1400 1IC130               1AZ
110681003110681567-011312     110681006003000593842BOOK READER PLAKKERPRET0000001000+00003507+00000+0001T   00004385+0008141756          1400 1IC757               1AZ
110681004110681567-011449     110681009780857260284BOOK STICKER TRAVEL    0000001000+00003507+00000+0001T   00003507+0000001756          1400 1IC757               1AZ
110681005110681567-011448     110681009781847506863BK STICKER ANIMALS     0000001000+00003507+00000+0001T   00003507+0000001756          1400 1IC757               1AZ
110681006110681567-011380     110681009781408190135BK STICKER ENCHANTED   0000001000+00002630+00000+0001T   00003507+0008141756          1400 1IC757               1AZ
110681007110681903-000087     110681006001704000161SWT SPECKLED-EGGS 50G  0000001000+00001139+00000+0001T   00001139+0000001756          1400 1IC150               1AZ
110681008110681112-116069     110681006009681820277TCS CARRIER BAG JUMBO  0000001000+00000048+00000+0001T   00000048+0000001756          1400 1IC090               1AZ
110681009110681018-000177     110681006001023797513MUG MINI LOVE ASSTD    0000001000+00000700+00000+0001T   00000700+0000001756          1400 1IC515               1AZ
110682000110682               110682               170213OF     1400+00000+OF0000002892+0000002892+000000000+000000405+0000003290+0000000007+I20000000000+0000003290+Z
110682001110682903-004950     110682006002580020304SWT APRICOT SURPRISE   0000001000+00001314+00000+0001T   00001314+0000001756          1400 1IC150               1AZ
110682002110682108-001030     110682006006862000923TUMBLERS PASTEL SET-6  0000001000+00001578+00000+0001T   00001578+0000001756          1400 1IC210               1AZ
A17021300                                          09072669OFSLAVE 1                       GE11IC
A17021301                                          09372008OFSLAVE 1                       GE11IC
A17021302                                          09394337OFSLAVE 1                       GE11IC
A17021303                                          16533210OFSLAVE 1                       1IC1IC
M17021391                              CASH        OFSLAVE 1                       Z-REPORT No.   638TOTAL (Sales - Refunds)           7626.38       CASH TO BE BANKED                 2598.20       DEBIT CARDS                          0.00       CREDIT CARDS                      5028.18       Z-READING                         7626.38       AIRTIME DEBIT CARD SALES             0.00       AIRTIME CARD SALES                   0.00       OVERS/UNDERS                         0.00       AIRTIME CASH SALES                   0.00       GIFT CARDS                           0.00       GIFT CARD CASH SALES                 0.00       T O T A L  CASH PAYOUTS              0.00                                                                                                                                                                                                                                                                                                                                                      Z
M17021392                              CASH        OFABSENT                                                                                                                                                                                          ANNUAL LEAVE                                                                                                                                                                                    DAY OFF                                                                                                                                                                                         COMMENTS                                                                                                                                                                                                                                                                                                                                                                                       Z
Y17021300                                          OF00000000690184+000082
ZOF17021408503 SLAVE 1      SALES DATA                     NEXT INVOICE NO.  110683 0638
