124991000124991               124991               170213OF     1400+00000+OF0000001753+0000001753+000000000+000000246+0000001990+0000000009+I20000000000+0000001990+Z
124991001124991200-003024     124991006001023657299REFUSE BAGS 20PCE BLACK0000001000+00001753+00000+0001T   00001753+0000000907          1400 DJ4214               2AZ
124992000124992               124992               170213OF     1400+00000+OF0000001576+0000001576+000000000+000000221+0000001790+0000000007+I20000000000+0000001790+Z
124992001124992071-003003     124992006003000144525PEN BALL PEN 3PCE BLACK0000001000+00000876+00000+0001T   00000876+0000000913          1400 DJ4130               2AZ
124992002124992007-000128     124992006009635830475BOOK H/COVER A5 96-PAGE0000001000+00000700+00000+0001T   00000700+0000000913          1400 DJ4130               2AZ
124993000124993               124993               170213OF     1400+00000+OF0000008364+0000008364+000000000+000001173+0000009530+0000000007+I20000000000+0000009530+Z
124993001124993301-007015     124993006003000394166ORN MINI BLACKBOARD 8PC0000001000+00003069+00000+0001T   00003069+0000000932          1400 DJ4505               2AZ
124993002124993018-000129     124993006001023403353MUG OCC. LOVE V-SHAPE  0000002000+00002630+00000+0001T   00002630+0000000932          1400 DJ4515               2AZ
124993003124993112-116038     124993006009681820246TCS CARRIER BAG MIDI   0000001000+00000035+00000+0001T   00000035+0000000932          1400 DJ4090               2AZ
124994000124994               124994               170213OF     1400+00000+OF0000017493+0000017493+000000000+000002454+0000019940+0000000007+I20000000000+0000019940+Z
124994001124994112-116069     124994006009681820277TCS CARRIER BAG JUMBO  0000001000+00000048+00000+0001T   00000048+0000000942          1400 DJ4090               2AZ
124994002124994206-000190     124994006003000631346PEELER FINGER 2PC      0000004000+00002630+00000+0001T   00003069+0008170942          1400 DJ4321               2AZ
124994003124994903-000138     124994006002099004314SWT GS WINE GUMS 60G   0000001000+00000788+00000+0001T   00000788+0000000942          1400 DJ4150               2AZ
124994004124994267-000311     124994006003000610730PUZZLE WOOD TRAY ASSTD 0000001000+00003507+00000+0001T   00003507+0000000942          1400 DJ4755               2AZ
124994005124994002-000717     124994006001023775184CHOPPING-MATS FLEX 2PCE0000001000+00002630+00000+0001T   00002630+0000000942          1400 DJ4300               2AZ
124995000124995               124995               170213OF     1400+00000+OF0000006661+0000006661+000000000+000000935+0000007596+0000000000+I40000007596+0000000000+Z
124995001124995039-000114     124995006001023524058CANDLE T/LITE RED 3.5CM0000001000+00001753+00000+0001T   00001753+0000001019          1400 DJ4510               2AZ
124995002124995039-000100     12499500600300060614625CM WHITE CANDLE 6PC  0000001000+00002630+00000+0001T   00002630+0000001019          1400 DJ4510               2AZ
124995003124995903-000087     124995006001704000161SWT SPECKLED-EGGS 50G  0000002000+00001139+00000+0001T   00001139+0000001019          1400 DJ4150               2AZ
124996000124996               124996               170213OF     1400+00000+OF0000017143+0000017143+000000000+000002404+0000019540+0000000007+I20000000000+0000019540+Z
124996001124996079-000269     124996006003000159963PAINT-BRUSHES SPONGETIP0000001000+00003507+00000+0001T   00003507+0000001032          1400 DJ4130               2AZ
124996002124996079-000271     124996006003000160082PAINT-BRUSHES LRGE ART 0000001000+00003069+00000+0001T   00003069+0000001032          1400 DJ4130               2AZ
124996003124996079-003005     124996006003000448241A/TUBE 75ML BLUE       0000001000+00001753+00000+0001T   00001753+0000001032          1400 DJ4130               2AZ
124996004124996079-000280     124996006003000160723PAINT READYMIX 6PCE    0000001000+00002630+00000+0001T   00002630+0000001032          1400 DJ4130               2AZ
124996005124996079-001002     124996006003000448715CANVAS A4 WOOD MOUNTED 0000002000+00002630+00000+0001T   00002630+0000001032          1400 DJ4130               2AZ
124996006124996903-000481     124996006001704007481SWT MOO MILK-SHAKES 60G0000001000+00000876+00000+0001T   00000876+0000001032          1400 DJ4150               2AZ
124996007124996112-116069     124996006009681820277TCS CARRIER BAG JUMBO  0000001000+00000048+00000+0001T   00000048+0000001032          1400 DJ4090               2AZ
124997000124997               124997               170213OF     1400+00000+OF0000001490+0000001490+000000000+000000209+0000001699+0000000000+I40000001699+0000000000+Z
124997001124997565-000049     124997006003000548156NOVELTY SLIME "BOOGERS"0000001000+00001490+00000+0001T   00001490+0000001110          1400 DJ4745               2AZ
124998000124998               124998               170213OF     1400+00000+OF0000014292+0000014292+000000000+000002026+0000016318+0000000000+I40000016318+0000000000+Z
124998001124998903-000155     124998006009803374435SWT LOLLY I LUV U HEART0000013000+00000525+00000+0001T   00000525+0000001211          1400 DJ4150               2AZ
124998002124998903-000183     124998006003000451043SWT LB HEART LOLLY     0000019000+00000393+00000+0001T   00000393+0000001211          1400 DJ4150               2AZ
124999000124999               124999               170213OF     1400+00000+OF0000003946+0000003946+000000000+000000553+0000004490+0000000009+I20000000000+0000004490+Z
124999001124999024-000092     124999006003000426805MEASURING-SET 6PC      0000001000+00003946+00000+0001T   00003946+0000001239          1400 DJ4300               2AZ
125000000125000               125000               170213OF     1400+00000+OF0000074107+0000074107+000000000+000010397+0000084504+0000000000+I40000084504+0000000000+Z
125000001125000112-116069     125000006009681820277TCS CARRIER BAG JUMBO  0000001000+00000048+00000+0001T   00000048+0000001251          1400 DJ4090               2AZ
125000002125000077-000407     125000006003000145096G/BAG PP 19X26X8CM     0000007000+00001314+00000+0001T   00001314+0000001251          1400 DJ4112               2AZ
125000003125000077-000382     125000006003000247820GIFT-BAG MED 18X23CM   0000037000+00001753+00000+0001T   00001753+0000001251          1400 DJ4112               2AZ
125001000125001               125001               170213OF     1400+00000+OF0000007049+0000007049+000000000+000000987+0000008036+0000000000+I40000008036+0000000000+Z
125001001125001018-005009     125001006001023725608MUG W/PLUSH-BEAR LOVE  0000002000+00003507+00000+0001T   00003507+0000001252          1400 DJ4515               2AZ
125001002125001112-116038     125001006009681820246TCS CARRIER BAG MIDI   0000001000+00000035+00000+0001T   00000035+0000001252          1400 DJ4090               2AZ
125002000125002               125002               170213OF     1400+00000+OF0000006136+0000006136+000000000+000000861+0000006997+0000000000+I40000006997+0000000000+Z
125002001125002262-000651     125002006001023754561DIE CAST SET 5PC RACER 0000001000+00002630+00000+0001T   00002630+0000001309          1400 DJ4710               2AZ
125002002125002564-000025     125002006003000617104BUBBLE NOVELTY         0000001000+00001753+00000+0001T   00001753+0000001309          1400 DJ4131               2AZ
125002003125002565-000002     125002006003000308071NOVELTY GROWING ANIMALS0000001000+00001753+00000+0001T   00001753+0000001309          1400 DJ4745               2AZ
125003000125003               125003               170213OF     1400+00000+OF0000003945+0000003945+000000000+000000553+0000004498+0000000000+I40000004498+0000000000+Z
125003001125003077-000316     125003006001023609731GIFT-BAG 25X32CM MATT  0000001000+00001753+00000+0001T   00001753+0000001311          1400 DJ4112               2AZ
125003002125003077-000309-A   125003006003000671007GIFT-BAG HOLOGRAM JMB  0000001000+00002192+00000+0001T   00002192+0000001311          1400 DJ4112               2AZ
125004000125004               125004               170213OF     1400+00000+OF0000008767+0000008767+000000000+000001229+0000009996+0000000000+I40000009996+0000000000+Z
125004001125004077-000011-C   125004006001023808523TISSUE 10xSHTS RED     0000001000+00000876+00000+0001T   00000876+0000001330          1400 1IC112               2AZ
125004002125004077-000011-D   125004006001023808554TISSUE-WRAP WHITE 10PCE0000002000+00000876+00000+0001T   00000876+0000001330          1400 1IC112               2AZ
125004003125004039-000798     125004006001023617774CANDLES TEALITE BOX-50 0000001000+00006139+00000+0001T   00006139+0000001330          1400 1IC510               2AZ
125005000125005               125005               170213OF     1400+00000+OF0000002627+0000002627+000000000+000000369+0000002497+0000000000+E00000000000+0000000000+Z
125005001125005077-000312     125005006001023608697GIFT-BAG 10X35CM GLOSS 0000001000+00001314+00000+0001T   00001314+000000              1400 DJ4112               2AZ
125005002125005039-000323     125005006001023524171BIRTHDAY-CANDLES 24PCE 0000001000+00000876+00000+0001T   00000876+000000              1400 DJ4510               2AZ
125005003125005083-000049     125005004891035200024CIG-LIGHTER DISPOSABLE 0000001000+00000437+00000+0001T   00000437+000000              1400 DJ4315               2 Z
125006000125006               125006               170213OF     1400+00000+OF0000010471+0000010471+000000000+000001467+0000011938+0000000000+I40000011938+0000000000+Z
125006001125006030-004015     125006006003000467624PLAQUE WDN SIGN 30X20CM0000001000+00009648+00000+0001T   00009648+0000001419          1400 DJ4505               2AZ
125006002125006077-000010-C   125006006001023123879CREPE-PAPER RED        0000001000+00000788+00000+0001T   00000788+0000001419          1400 DJ4112               2AZ
125006003125006112-116038     125006006009681820246TCS CARRIER BAG MIDI   0000001000+00000035+00000+0001T   00000035+0000001419          1400 DJ4090               2AZ
125007000125007               125007               170213OF     1400+00000+OF0000009583+0000009583+000000000+000001345+0000010928+0000000000+I40000010928+0000000000+Z
125007001125007304-001011     125007006001023806727FLWR ROSE RED W/BEAR   0000002000+00000613+00000+0001T   00000788+0006471429          1400 DJ4510               2AZ
125007002125007304-001204     125007006001023737984FLOWER OCC. TEDDY/ROSES0000002000+00001402+00000+0001T   00001490+0006471429          1400 DJ4510               2AZ
125007003125007903-000194     125007006009826020616SWT CHOC RP LOLLY 25G  0000002000+00001314+00000+0001T   00001314+0000001429          1400 DJ4150               2AZ
125007004125007903-000200     125007006009826020234SWT CHOC RP CHOCO 23G  0000002000+00000788+00000+0001T   00000788+0000001429          1400 DJ4150               2AZ
125007005125007112-116038     125007006009681820246TCS CARRIER BAG MIDI   0000001000+00000035+00000+0001T   00000035+0000001429          1400 DJ4090               2AZ
125007006125007903-000194     125007006009826020616SWT CHOC RP LOLLY 25G  0000001000+00001314+00000+0001T   00001314+0000001429          1400 DJ4150               2AZ
125008000125008               125008               170213OF     1400+00000+OF0000017396+0000017396+000000000+000002443+0000019839+0000000000+I40000019839+0000000000+Z
125008001125008112-116069     125008006009681820277TCS CARRIER BAG JUMBO  0000001000+00000048+00000+0001T   00000048+0000001431          1400 DJ4090               2AZ
125008002125008903-000123     125008006925925909280SWEET GS MINI MALLOWS  0000002000+00000876+00000+0001T   00000876+0000001431          1400 DJ4150               2AZ
125008003125008903-000503     125008006001704006118SWT VAMPIRE FANGS 60G  0000002000+00000876+00000+0001T   00000876+0000001431          1400 DJ4150               2AZ
125008004125008903-002851     125008000000087108538MENTOS ROLL STRAWBERRY 0000004000+00001051+00000+0001T   00001051+0000001431          1400 DJ4150               2AZ
125008005125008903-004962     125008008410525221880SWT FINI BLCK/RED 50g  0000002000+00000964+00000+0001T   00000964+0000001431          1400 DJ4150               2AZ
125008006125008077-000011-C   125008006001023808523TISSUE 10xSHTS RED     0000001000+00000876+00000+0001T   00000876+0000001431          1400 DJ4112               2AZ
125008007125008903-000897     125008008692806325207SWT CHOC DBL MINI ROLL 0000001000+00000876+00000+0001T   00000876+0000001431          1400 DJ4150               2AZ
125008008125008016-006516     125008006003000351503S/JAR GLS CHECK 150ML  0000004000+00001490+00000+0001T   00001490+0000001431          1400 DJ4300               2AZ
125009000125009               125009               170213OF     1400+00000+OF0000010556+0000010556+000000000+000001479+0000012030+0000000005+I20000000000+0000012030+Z
125009001125009903-000844     125009005010478432567SWT CANDY DL LUV HEARTS0000001000+00001314+00000+0001T   00001314+0000001432          1400 DJ4150               2AZ
125009002125009079-013102     125009006003000019601ART+CRAFT DIY PIPE-CLNR0000001000+00002192+00000+0001T   00002192+0000001432          1400 DJ4130               2AZ
125009003125009077-000011-C   125009006001023808523TISSUE 10xSHTS RED     0000001000+00000876+00000+0001T   00000876+0000001432          1400 DJ4112               2AZ
125009004125009007-000323     125009006009697791042PAPER A4 80GSM 100'S   0000001000+00006139+00000+0001T   00006139+0000001432          1400 DJ4130               2AZ
125009005125009112-116038     125009006009681820246TCS CARRIER BAG MIDI   0000001000+00000035+00000+0001T   00000035+0000001432          1400 DJ4090               2AZ
125010000125010               125010               170213OF     1400+00000+OF0000000876+0000000876+000000000+000000123+0000000990+0000000009+I20000000000+0000000990+Z
125010001125010077-000314     125010006003000181148GIFT-BAG 11X14CM MATT  0000001000+00000876+00000+0001T   00000876+0000001433          1400 DJ4112               2AZ
125011000125011               125011               170213OF     1400+00000+OF0000005638+0000005638+000000000+000000792+0000006430+0000000000+I20000000000+0000006430+Z
125011001125011018-000170     125011006001023775528MUG OCC. LOVE 2PC MINI 0000001000+00002192+00000+0001T   00002192+0000001434          1400 DJ4515               2AZ
125011002125011018-000177     125011006001023797513MUG MINI LOVE ASSTD    0000002000+00000700+00000+0001T   00000700+0000001434          1400 DJ4515               2AZ
125011003125011080-000133     125011006003000535613CARD&ENV MINI ASTD DSGN0000003000+00000437+00000+0001T   00000437+0000001434          1400 DJ4112               2AZ
125011004125011018-000177     125011006001023797513MUG MINI LOVE ASSTD    0000001000+00000700+00000+0001T   00000700+0000001434          1400 DJ4515               2AZ
125011005125011112-116038     125011006009681820246TCS CARRIER BAG MIDI   0000001000+00000035+00000+0001T   00000035+0000001434          1400 DJ4090               2AZ
125012000125012               125012               170213OF     1400+00000+OF0000009410+0000009410+000000000+000001321+0000010731+0000000000+I40000010731+0000000000+Z
125012001125012112-116038     125012006009681820246TCS CARRIER BAG MIDI   0000001000+00000035+00000+0001T   00000035+0000001440          1400 DJ40902IC            2AZ
125012002125012903-000520     125012006001704009898SWT GUMMY MINI SOUR 60g0000001000+00000876+00000+0001T   00000876+0000001440          1400 DJ4150               2AZ
125012003125012903-000521     125012006001704009652SWT GUMMY SOFT GUMS    0000001000+00000876+00000+0001T   00000876+0000001440          1400 DJ4150               2AZ
125012004125012903-000087     125012006001704000161SWT SPECKLED-EGGS 50G  0000001000+00001139+00000+0001T   00001139+0000001440          1400 DJ4150               2AZ
125012005125012903-000843     125012008693029031067SWT GUMMY JELAXY 80G   0000001000+00000964+00000+0001T   00000964+0000001440          1400 DJ4150               2AZ
125012006125012903-000070     125012006001704001106SWT TOFFEE CREAMY 35g  0000001000+00000700+00000+0001T   00000700+0000001440          1400 DJ4150               2AZ
125012007125012080-000133     125012006003000535613CARD&ENV MINI ASTD DSGN0000001000+00000437+00000+0001T   00000437+0000001440          1400 DJ4112               2AZ
125012008125012031-000005     125012006001023479327P/FRAME GLS MOTHER     0000001000+00002630+00000+0001T   00003507+0008171440          1400 DJ4510               2AZ
125012009125012903-000082     125012006001704014892SWT MINI WINE GUMS 100G0000001000+00001753+00000+0001T   00001753+0000001440          1400 DJ4150               2AZ
125013000125013               125013               170213OF     1400+00000+OF0000001578+0000001578+000000000+000000221+0000001790+0000000009+I20000000000+0000001790+Z
125013001125013080-000124     125013006003000297733CARD & ENV VALENTINES  0000001000+00001578+00000+0001T   00001578+0000001440          1400 DJ4112               2AZ
125014000125014               125014               170213OF     1400+00000+OF0000003945+0000003945+000000000+000000553+0000004490+0000000008+I20000000000+0000004490+Z
125014001125014080-000127     125014006003000424351VALENTINES DAY 36x24CM 0000001000+00002192+00000+0001T   00002192+0000001450          1400 DJ4112               2AZ
125014002125014004-072001     125014006003000452378CABLE-TIDY REUSE COL-C 0000001000+00001753+00000+0001T   00001753+0000001450          1400 DJ4310               2AZ
125015000125015               125015               170213OF     1400+00000+OF0000001578+0000001578+000000000+000000221+0000001790+0000000009+I20000000000+0000001790+Z
125015001125015080-000124     125015006003000297733CARD & ENV VALENTINES  0000001000+00001578+00000+0001T   00001578+0000001456          1400 DJ4112               2AZ
125016000125016               125016               170213OF     1400+00000+OF0000002665+0000002665+000000000+000000374+0000003039+0000000000+I40000003039+0000000000+Z
125016001125016007-000288     125016006009635830123BOOK H/COVER A4 288PAGE0000001000+00002630+00000+0001T   00002630+0000001459          1400 DJ4130               2AZ
125016002125016112-116038     125016006009681820246TCS CARRIER BAG MIDI   0000001000+00000035+00000+0001T   00000035+0000001459          1400 DJ4090               2AZ
125017000125017               125017               170213OF     1400+00000+OF0000011392+0000011392+000000000+000001596+0000012988+0000000000+I40000012988+0000000000+Z
125017001125017077-000245     125017006001023759214GIFT-RIBBON METALLICx2 0000002000+00001227+00000+0001T   00001227+0000001505          1400 DJ4112               2AZ
125017002125017006-000167-F   125017006003000517411BALLOONS SILV METALLIC 0000001000+00001314+00000+0001T   00001314+0000001505          1400 DJ4131               2AZ
125017003125017006-000166-H   125017006003000608096BALLOONS HELIUM 6PC WHT0000001000+00001314+00000+0001T   00001314+0000001505          1400 DJ4131               2AZ
125017004125017006-000167-C   125017006003000516971BALLOONS PINK METALLIC 0000002000+00001314+00000+0001T   00001314+0000001505          1400 DJ4131               2AZ
125017005125017006-005909     125017006003000081301PARTY FAVOUR STAR WAND 0000001000+00002192+00000+0001T   00002192+0000001505          1400 DJ4131               2AZ
125017006125017565-004101     125017006003000548033BALL BOUNCING EGG      0000001000+00001490+00000+0001T   00001490+0000001505          1400 DJ4745               2AZ
125018000125018               125018               170213OF     1400+00000+OF0000004732+0000004732+000000000+000000664+0000005390+0000000006+I20000000000+0000005390+Z
125018001125018033-005931     125018006001023678447PINS ON-WHEEL PEARLIZED0000002000+00000876+00000+0001T   00000876+0000001506          1400 DJ4200               2AZ
125018002125018306-000024-A   125018006003000577309COTTON-WOOL-PADS 80PC  0000001000+00001753+00000+0001T   00001753+0000001506          1400 DJ4200               2AZ
125018003125018002-021060     125018006001023359438TOOTHPICKS 50PC WRAP   0000001000+00001227+00000+0001T   00001227+0000001506          1400 DJ4300               2AZ
125019000125019               125019               170213OF     1400+00000+OF0000002192+0000002192+000000000+000000307+0000002490+0000000009+I20000000000+0000002490+Z
125019001125019080-000127     125019006003000424351VALENTINES DAY 36x24CM 0000001000+00002192+00000+0001T   00002192+0000001508          1400 DJ4112               2AZ
125020000125020               125020               170213OF     1400+00000+OF0000009866+0000009866+000000000+000001383+0000011249+0000000000+I40000011249+0000000000+Z
125020001125020112-116069     125020006009681820277TCS CARRIER BAG JUMBO  0000001000+00000048+00000+0001T   00000048+0000001510          1400 DJ4090               2AZ
125020002125020368-000049     125020006003000536955PLUSH BEAR 15cm LOVE   0000001000+00004385+00000+0001T   00004385+0000001510          1400 DJ4745               2AZ
125020003125020903-004960     125020008410525221842SWT GUMMY STR/BERRY 50G0000001000+00000964+00000+0001T   00000964+0000001510          1400 DJ4150               2AZ
125020004125020903-000843     125020008693029031067SWT GUMMY JELAXY 80G   0000001000+00000964+00000+0001T   00000964+0000001510          1400 DJ4150               2AZ
125020005125020077-000314     125020006003000181148GIFT-BAG 11X14CM MATT  0000001000+00000876+00000+0001T   00000876+0000001510          1400 DJ4112               2AZ
125020006125020077-000011-D   125020006001023808554TISSUE-WRAP WHITE 10PCE0000001000+00000876+00000+0001T   00000876+0000001510          1400 DJ4112               2AZ
125020007125020077-000358     125020006003000329977GIFT-BAG KIDS 25X32CM  0000001000+00001753+00000+0001T   00001753+0000001510          1400 DJ4112               2AZ
125021000125021               125021               170213OF     1400+00000+OF0000004385+0000004385+000000000+000000614+0000004990+0000000009+I20000000000+0000004990+Z
125021001125021368-000049     125021006003000536955PLUSH BEAR 15cm LOVE   0000001000+00004385+00000+0001T   00004385+0000001512          1400 DJ4745               2AZ
125022000125022               125022               170213OF     1400+00000+OF0000001839+0000001839+000000000+000000258+0000002090+0000000007+I20000000000+0000002090+Z
125022001125022018-000177     125022006001023797513MUG MINI LOVE ASSTD    0000001000+00000700+00000+0001T   00000700+0000001514          1400 DJ4515               2AZ
125022002125022565-000071     125022006003000643387NOVELTY WIND UP CHATTER0000001000+00001139+00000+0001T   00001139+0000001514          1400 DJ4745               2AZ
125023000125023               125023               170213OF     1400+00000+OF0000013456+0000013456+000000000+000001889+0000015345+0000000000+I40000015345+0000000000+Z
125023001125023903-000012     125023006002099007308SWT MALLOW S/BERRY     0000003000+00000437+00000+0001T   00000437+0000001522          1400 DJ4150               2AZ
125023002125023903-000216     125023006925925900966SWT MALLOW TWIST ERKO  0000003000+00000262+00000+0001T   00000262+0000001522          1400 DJ4150               2AZ
125023003125023903-000095     125023006001704011495SWT SPECKLED-EGGS 100G 0000001000+00002104+00000+0001T   00002104+0000001522          1400 DJ4150               2AZ
125023004125023112-116069     125023006009681820277TCS CARRIER BAG JUMBO  0000001000+00000048+00000+0001T   00000048+0000001522          1400 DJ4090               2AZ
125023005125023466-000072     125023006003000668922BALL FOOTBALL PVC 22cm 0000002000+00004385+00000+0001T   00004385+0000001522          1400 DJ4785               2AZ
125023006125023080-000133-A   125023006003000647019MINI VALENTINES CARD   0000001000+00000437+00000+0001T   00000437+0000001522          1400 DJ4112               2AZ
125024000125024               125024               170213OF     1400+00000+OF0000008331+0000008331+000000000+000001167+0000009490+0000000008+I20000000000+0000009490+Z
125024001125024040-000008     125024006001023900906C/HLDR MTL B/CAGE 17CM 0000001000+00006578+00000+0001T   00006578+0000001532          1400 DJ4510               2AZ
125024002125024077-000373     125024006003000395217G/BAG MED 18X23CM DESGN0000001000+00001753+00000+0001T   00001753+0000001532          1400 DJ4112               2AZ
125025000125025               125025               170213OF     1400+00000+OF0000003944+0000003944+000000000+000000553+0000004497+0000000000+I40000004497+0000000000+Z
125025001125025018-000130     125025006001023867537MUG OCC LOVE MINI+HEART0000001000+00003507+00000+0001T   00003507+0000001536          1400 DJ4515               2AZ
125025002125025080-000133-A   125025006003000647019MINI VALENTINES CARD   0000001000+00000437+00000+0001T   00000437+0000001536          1400 DJ4112               2AZ
125026000125026               125026               170213OF     1400+00000+OF0000010525-0000010525-000000000+000001474-0000012000-0000000001+I20000000000+0000012000-Z
125026001125026047-009011     125026006001023193407DOOR-BELL WIRELESS B/O 0000001000-00010525+00000+0001T   00010525+0000001537          1400 DJ48801IC            2 Z
125027000125027               125027               170213OF     1400+00000+OF0000031174+0000031174+000000000+000004369+0000035540+0000000003+I20000000000+0000035540+Z
125027001125027112-116069     125027006009681820277TCS CARRIER BAG JUMBO  0000001000+00000048+00000+0001T   00000048+0000001542          1400 DJ4090               2AZ
125027002125027018-005009     125027006001023725608MUG W/PLUSH-BEAR LOVE  0000001000+00003507+00000+0001T   00003507+0000001542          1400 DJ4515               2AZ
125027003125027018-000170     125027006001023775528MUG OCC. LOVE 2PC MINI 0000001000+00002192+00000+0001T   00002192+0000001542          1400 DJ4515               2AZ
125027004125027079-013032-B   125027006003000389445MIXED SHAPES           0000002000+00001753+00000+0001T   00001753+0000001542          1400 DJ4130               2AZ
125027005125027301-007010     125027006003000431472ORN MINI BLACKBOARD 2PC0000003000+00002630+00000+0001T   00002630+0000001542          1400 DJ4505               2AZ
125027006125027304-001116     125027006003000426164F/BUNCH ROSES 12-HEAD  0000001000+00005262+00000+0001T   00005262+0000001542          1400 DJ4510               2AZ
125027007125027566-000359     125027006003000582709STICKER BOOK LOVE SPARK0000002000+00002192+00000+0001T   00002192+0000001542          1400 DJ4130               2AZ
125027008125027019-000083     125027006001023797209V/GLASS CUT 3-ASST 20CM0000001000+00004385+00000+0001T   00006139+0008171542          1400 DJ4510               2AZ
125028000125028               125028               170213OF     1400+00000+OF0000004822+0000004822+000000000+000000676+0000005498+0000000000+I40000005498+0000000000+Z
125028001125028080-000127     125028006003000424351VALENTINES DAY 36x24CM 0000001000+00002192+00000+0001T   00002192+0000001552          1400 DJ4112               2AZ
125028002125028077-000270     125028006003000395453GIFT-BAG PPR JMB 33X45 0000001000+00002630+00000+0001T   00002630+0000001552          1400 DJ4112               2AZ
125029000125029               125029               170213OF     1400+00000+OF0000002192+0000002192+000000000+000000307+0000002490+0000000009+I20000000000+0000002490+Z
125029001125029563-000318-L   125029006003000407088SERVIETTES 33cm RED    0000001000+00002192+00000+0001T   00002192+0000001553          1400 DJ4214               2AZ
125030000125030               125030               170213OF     1400+00000+OF0000006232+0000006232+000000000+000000875+0000007107+0000000000+I40000007107+0000000000+Z
125030001125030036-000063     125030006009654960436COATHANGERS VIRGIN 5PCE0000002000+00001753+00000+0001T   00001753+0000001555          1400 DJ4212               2AZ
125030002125030027-001018     125030006003000622702BROOM COVER MICROFIBRE 0000001000+00002630+00000+0001T   00002630+0000001555          1400 DJ4212               2AZ
125030003125030112-116069     125030006009681820277TCS CARRIER BAG JUMBO  0000002000+00000048+00000+0001T   00000048+0000001555          1400 DJ4090               2AZ
125031000125031               125031               170213OF     1400+00000+OF0000014909+0000014909+000000000+000002089+0000016998+0000000000+I40000016998+0000000000+Z
125031001125031368-000113     125031006001023780874PLUSH BLINGED LOVE 30cm0000001000+00012279+00000+0001T   00012279+0000001557          1400 DJ4745               2AZ
125031002125031077-000270     125031006003000395453GIFT-BAG PPR JMB 33X45 0000001000+00002630+00000+0001T   00002630+0000001557          1400 DJ4112               2AZ
125032000125032               125032               170213OF     1400+00000+OF0000014078+0000014078+000000000+000001973+0000016051+0000000000+I40000016051+0000000000+Z
125032001125032162-096646     125032006001492966465#TAG HOT DEALS KIDS HR 0000001000+00002630+00000+0001T   00002630+0000001602          1400 DJ4160               2AZ
125032002125032362-101415     125032006003000308262DIY BRACELET           0000001000+00002630+00000+0001T   00002630+0000001602          1400 DJ4160               2AZ
125032003125032028-000030     125032006001023810908COOLER-BAG 6PACK       0000001000+00004385+00000+0001T   00004385+0000001602          1400 DJ4305               2AZ
125032004125032562-000202     125032006003000157730EDU PUSH-IN WDN PUZZLE 0000001000+00004385+00000+0001T   00004385+0000001602          1400 DJ4755               2AZ
125032005125032112-116069     125032006009681820277TCS CARRIER BAG JUMBO  0000001000+00000048+00000+0001T   00000048+0000001602          1400 DJ4090               2AZ
125033000125033               125033               170213OF     1400+00000+OF0000000876+0000000876+000000000+000000123+0000000990+0000000009+I20000000000+0000000990+Z
125033001125033078-000025     125033008887013700064SUPERGLUE 3g 1PCE CARD 0000001000+00000876+00000+0001T   00000876+0000001604          1400 DJ4810               2AZ
125034000125034               125034               170213OF     1400+00000+OF0000008331+0000008331+000000000+000001167+0000009498+0000000000+I40000009498+0000000000+Z
125034001125034368-000049     125034006003000536955PLUSH BEAR 15cm LOVE   0000001000+00004385+00000+0001T   00004385+0000001605          1400 DJ4745               2AZ
125034002125034031-000857     125034006001023852144P/FRAME PL BROWN 13X18 0000001000+00003946+00000+0001T   00003946+0000001605          1400 DJ4510               2AZ
125035000125035               125035               170213OF     1400+00000+OF0000004817+0000004817+000000000+000000676+0000005493+0000000000+I40000005493+0000000000+Z
125035001125035080-000133-A   125035006003000647019MINI VALENTINES CARD   0000001000+00000437+00000+0001T   00000437+0000001607          1400 DJ4112               2AZ
125035002125035903-000123     125035006925925909280SWEET GS MINI MALLOWS  0000002000+00000876+00000+0001T   00000876+0000001607          1400 DJ4150               2AZ
125035003125035903-000844     125035005010478432567SWT CANDY DL LUV HEARTS0000001000+00001314+00000+0001T   00001314+0000001607          1400 DJ4150               2AZ
125035004125035903-000194     125035006009826020616SWT CHOC RP LOLLY 25G  0000001000+00001314+00000+0001T   00001314+0000001607          1400 DJ4150               2AZ
125036000125036               125036               170213OF     1400+00000+OF0000002852+0000002852+000000000+000000401+0000003250+0000000003+I20000000000+0000003250+Z
125036001125036304-001204     125036006001023737984FLOWER OCC. TEDDY/ROSES0000002000+00001402+00000+0001T   00001490+0006471608          1400 DJ4510               2AZ
125036002125036112-116069     125036006009681820277TCS CARRIER BAG JUMBO  0000001000+00000048+00000+0001T   00000048+0000001608          1400 DJ4090               2AZ
125037000125037               125037               170213OF     1400+00000+OF0000004295+0000004295+000000000+000000602+0000004897+0000000000+I40000004897+0000000000+Z
125037001125037077-000245     125037006001023759214GIFT-RIBBON METALLICx2 0000001000+00001227+00000+0001T   00001227+0000001610          1400 DJ4112               2AZ
125037002125037071-001346     125037006001023912985HIGHLIGHTERS 4PCE CARD 0000001000+00002192+00000+0001T   00002192+0000001610          1400 DJ4130               2AZ
125037003125037071-001012     125037006001023474445MARKERS BLACK ROUND    0000001000+00000876+00000+0001T   00000876+0000001610          1400 DJ4130               2AZ
125038000125038               125038               170213OF     1400+00000+OF0000017101+0000017101+000000000+000002396+0000019497+0000000000+I40000019497+0000000000+Z
125038001125038368-000113     125038006001023780874PLUSH BLINGED LOVE 30cm0000001000+00012279+00000+0001T   00012279+0000001614          1400 DJ4745               2AZ
125038002125038077-000270     125038006003000395453GIFT-BAG PPR JMB 33X45 0000001000+00002630+00000+0001T   00002630+0000001614          1400 DJ4112               2AZ
125038003125038080-000127     125038006003000424351VALENTINES DAY 36x24CM 0000001000+00002192+00000+0001T   00002192+0000001614          1400 DJ4112               2AZ
125039000125039               125039               170213OF     1400+00000+OF0000012534+0000012534+000000000+000001757+0000014291+0000000000+I40000014291+0000000000+Z
125039001125039368-000049     125039006003000536955PLUSH BEAR 15cm LOVE   0000001000+00004385+00000+0001T   00004385+0000001616          1400 DJ4745               2AZ
125039002125039080-000133-A   125039006003000647019MINI VALENTINES CARD   0000002000+00000437+00000+0001T   00000437+0000001616          1400 DJ4112               2AZ
125039003125039089-060027     125039006003000245871KEY-CHAIN HEART 6X6cm  0000001000+00003069+00000+0001T   00003069+0000001616          1400 DJ4205               2AZ
125039004125039903-000844     125039005010478432567SWT CANDY DL LUV HEARTS0000002000+00001314+00000+0001T   00001314+0000001616          1400 DJ4150               2AZ
125039005125039077-000303     125039006001023593757GIFT-BAG PAPER MED     0000001000+00001578+00000+0001T   00001578+0000001616          1400 DJ4112               2AZ
125040000125040               125040               170213OF     1400+00000+OF0000017141+0000017141+000000000+000002401+0000019542+0000000000+I40000019542+0000000000+Z
125040001125040903-000194     125040006009826020616SWT CHOC RP LOLLY 25G  0000002000+00001314+00000+0001T   00001314+0000001623          1400 DJ4150               2AZ
125040002125040264-015151     125040000090159151517MAISTO RACE LAUNCHER   0000001000+00007016+00000+0001T   00008771+0008131623          1400 DJ4710               2AZ
125040003125040007-000561     125040006003000589128NOVELTY NOTEBOOK       0000001000+00003507+00000+0001T   00003507+0000001623          1400 DJ4130               2AZ
125040004125040903-000194     125040006009826020616SWT CHOC RP LOLLY 25G  0000003000+00001314+00000+0001T   00001314+0000001623          1400 DJ4150               2AZ
125040005125040112-116069     125040006009681820277TCS CARRIER BAG JUMBO  0000001000+00000048+00000+0001T   00000048+0000001623          1400 DJ4090               2AZ
125041000125041               125041               170213OF     1400+00000+OF0000004207+0000004207+000000000+000000590+0000004797+0000000000+I40000004797+0000000000+Z
125041001125041206-000370     125041006003000631315STRAW P/DRINKING GLASS 0000001000+00001753+00000+0001T   00001753+0000001639          1400 DJ4321               2AZ
125041002125041903-000519     125041006001704012805SWT MS LIQ-O-GHETTI    0000002000+00001227+00000+0001T   00001227+0000001639          1400 DJ4150               2AZ
125042000125042               125042               170213OF     1400+00000+OF0000003506+0000003506+000000000+000000492+0000003990+0000000008+I20000000000+0000003990+Z
125042001125042080-000103     125042006003000236961CARD&ENVLOPE BDAY-MALE 0000001000+00001753+00000+0001T   00001753+0000001640          1400 DJ4112               2AZ
125042002125042080-000106     125042006003000237098CARD&ENVLPE BDAY GIRL  0000001000+00001753+00000+0001T   00001753+0000001640          1400 DJ4112               2AZ
125043000125043               125043               170213OF     1400+00000+OF0000007058+0000007058+000000000+000000990+0000008048+0000000000+I40000008048+0000000000+Z
125043001125043077-000289     125043006001023901996GIFT BOX 20x25x11cm    0000001000+00001753+00000+0001T   00001753+0000001642          1400 DJ4112               2AZ
125043002125043077-000312     125043006001023608697GIFT-BAG 10X35CM GLOSS 0000002000+00001314+00000+0001T   00001314+0000001642          1400 DJ4112               2AZ
125043003125043077-000314     125043006003000181148GIFT-BAG 11X14CM MATT  0000001000+00000876+00000+0001T   00000876+0000001642          1400 DJ4112               2AZ
125043004125043077-000309     125043006001023608604GIFT-BAG 25X32CM GLOSS 0000001000+00001753+00000+0001T   00001753+0000001642          1400 DJ4112               2AZ
125043005125043112-116069     125043006009681820277TCS CARRIER BAG JUMBO  0000001000+00000048+00000+0001T   00000048+0000001642          1400 DJ4090               2AZ
125044000125044               125044               170213OF     1400+00000+OF0000012711+0000012711+000000000+000001782+0000014493+0000000000+I40000014493+0000000000+Z
125044001125044566-000028     125044006003000265541STICKER BK ASSTD 250PCE0000004000+00001753+00000+0001T   00001753+0000001644          1400 DJ4130               2AZ
125044002125044566-000359     125044006003000582709STICKER BOOK LOVE SPARK0000001000+00002192+00000+0001T   00002192+0000001644          1400 DJ4130               2AZ
125044003125044267-000044     125044000047754666069PUZZLE LICENSED TRAY   0000001000+00003507+00000+0001T   00004385+0008141644          1400 DJ4755               2AZ
125045000125045               125045               170213OF     1400+00000+OF0000001137+0000001137+000000000+000000160+0000001290+0000000007+I20000000000+0000001290+Z
125045001125045080-000133-A   125045006003000647019MINI VALENTINES CARD   0000001000+00000437+00000+0001T   00000437+0000001652          1400 DJ4112               2AZ
125045002125045018-000177     125045006001023797513MUG MINI LOVE ASSTD    0000001000+00000700+00000+0001T   00000700+0000001652          1400 DJ4515               2AZ
125046000125046               125046               170213OF     1400+00000+OF0000035994+0000035994+000000000+000005045+0000041039+0000000000+I40000041039+0000000000+Z
125046001125046112-116069     125046006009681820277TCS CARRIER BAG JUMBO  0000001000+00000048+00000+0001T   00000048+0000001706          1400 DJ4090               2AZ
125046002125046077-000011-D   125046006001023808554TISSUE-WRAP WHITE 10PCE0000001000+00000876+00000+0001T   00000876+0000001706          1400 DJ4112               2AZ
125046003125046903-000844     125046005010478432567SWT CANDY DL LUV HEARTS0000001000+00001314+00000+0001T   00001314+0000001706          1400 DJ4150               2AZ
125046004125046903-000090     125046006009826020821SWT GS CHOCO COINS 60g 0000001000+00002104+00000+0001T   00002104+0000001706          1400 DJ4150               2AZ
125046005125046903-004960     125046008410525221842SWT GUMMY STR/BERRY 50G0000001000+00000964+00000+0001T   00000964+0000001706          1400 DJ4150               2AZ
125046006125046301-085003     125046006003000420827ORN OCCASION LOVE KEY  0000001000+00005262+00000+0001T   00005262+0000001706          1400 DJ4505               2AZ
125046007125046071-001010     125046006001023893314MARKERS-METALIC 3PCE   0000001000+00003507+00000+0001T   00003507+0000001706          1400 DJ4130               2AZ
125046008125046077-000381     125046006003000247707GIFT-BAG 25X32CM S/COL 0000001000+00001753+00000+0001T   00001753+0000001706          1400 DJ4112               2AZ
125046009125046031-006544     125046006003000279401P/FRAME WDN DISTRESSED 0000001000+00007893+00000+0001T   00007893+0000001706          1400 DJ4510               2AZ
125046010125046903-004960     125046008410525221842SWT GUMMY STR/BERRY 50G0000001000+00000964+00000+0001T   00000964+0000001706          1400 DJ4150               2AZ
125046011125046903-000138     125046006002099004314SWT GS WINE GUMS 60G   0000001000+00000788+00000+0001T   00000788+0000001706          1400 DJ4150               2AZ
125046012125046080-000127     125046006003000424351VALENTINES DAY 36x24CM 0000001000+00002192+00000+0001T   00002192+0000001706          1400 DJ4112               2AZ
125046013125046030-000040     125046006003000396375PLAQUE WDN HANGING HRTS0000001000+00003069+00000+0001T   00003069+0000001706          1400 DJ4505               2AZ
125046014125046304-001126     125046006001023845047FLWR BUNCH GERBERA 31cm0000002000+00002630+00000+0001T   00002630+0000001706          1400 DJ4510               2AZ
125047000125047               125047               170213OF     1400+00000+OF0000010563+0000010563+000000000+000001484+0000012040+0000000007+I20000000000+0000012040+Z
125047001125047562-006275     125047006001023836182EDU BOARD W/MARKER ASST0000002000+00007016+00000+0001T   00007016+0000001709          1400 DJ4755               2AZ
125047002125047903-000094     125047006923431501622SWT GS CANDY NECKLACE  0000002000+00000437+00000+0001T   00000437+0000001709          1400 DJ4150               2AZ
125047003125047903-000012     125047006002099007308SWT MALLOW S/BERRY     0000002000+00000437+00000+0001T   00000437+0000001709          1400 DJ4150               2AZ
125047004125047562-006275     125047006001023836182EDU BOARD W/MARKER ASST0000002000-00007016+00000+0001T   00007016+0000001709          1400 DJ47551IC            2 Z
125047005125047562-000520     125047006003000112777EDU BLOCKS WDN ALPHABET0000001000+00003507+00000+0001T   00003507+0000001709          1400 DJ4755               2AZ
125047006125047007-010495     125047006003000533510BOARD DRY WIPE & PEN   0000002000+00002630+00000+0001T   00002630+0000001709          1400 DJ4130               2AZ
125047007125047112-116069     125047006009681820277TCS CARRIER BAG JUMBO  0000001000+00000048+00000+0001T   00000048+0000001709          1400 DJ4090               2AZ
125048000125048               125048               170213OF     1400+00000+OF0000016696+0000016696+000000000+000002339+0000019035+0000000000+I40000019035+0000000000+Z
125048001125048564-001028     125048006001023708663BUBBLE CELEBRATION 6ml 0000001000+00003069+00000+0001T   00003069+0000001714          1400 DJ4131               2AZ
125048002125048301-006000     125048006003000378890ORN POLY OWL MSG JAR   0000002000+00003507+00000+0001T   00003507+0000001714          1400 DJ4505               2AZ
125048003125048112-116069     125048006009681820277TCS CARRIER BAG JUMBO  0000001000+00000048+00000+0001T   00000048+0000001714          1400 DJ4090               2AZ
125048004125048007-000555     125048006001023848239MEMO-PAD MINI LOVE     0000005000+00000613+00000+0001T   00000613+0000001714          1400 DJ4130               2AZ
125048005125048018-000177     125048006001023797513MUG MINI LOVE ASSTD    0000005000+00000700+00000+0001T   00000700+0000001714          1400 DJ4515               2AZ
125049000125049               125049               170213OF     1400+00000+OF0000003507+0000003507+000000000+000000491+0000003990+0000000008+I20000000000+0000003990+Z
125049001125049031-005853     125049006003000442416P/FRAME WDN TWIN HEARTS0000001000+00003507+00000+0001T   00003507+0000001714          1400 DJ4510               2AZ
125050000125050               125050               170213OF     1400+00000+OF0000001753+0000001753+000000000+000000246+0000001990+0000000009+I20000000000+0000001990+Z
125050001125050077-000309     125050006001023608604GIFT-BAG 25X32CM GLOSS 0000001000+00001753+00000+0001T   00001753+0000001715          1400 DJ4112               2AZ
125051000125051               125051               170213OF     1400+00000+OF0000005085+0000005085+000000000+000000712+0000005790+0000000007+I20000000000+0000005790+Z
125051001125051089-000018     125051006003000176724KEY CHAIN INSPIRATION  0000001000+00003507+00000+0001T   00003507+0000001717          1400 DJ4205               2AZ
125051002125051077-000348     125051006001023483287GIFT-BOWS 4,5cm 8PCE   0000001000+00001578+00000+0001T   00001578+0000001717          1400 DJ4112               2AZ
125052000125052               125052               170213OF     1400+00000+OF0000041705+0000041705+000000000+000005842+0000047547+0000000000+I40000047547+0000000000+Z
125052001125052077-000289     125052006001023901996GIFT BOX 20x25x11cm    0000002000+00001753+00000+0001T   00001753+0000001728          1400 DJ4112               2AZ
125052002125052368-000265     125052006001023750914PLUSH BEAR 23CM ASSTD C0000002000+00006139+00000+0001T   00006139+0000001728          1400 DJ4745               2AZ
125052003125052030-000030-A   125052006003000249305PLAQUE GLASS LOVE      0000001000+00003069+00000+0001T   00003069+0000001728          1400 DJ4505               2AZ
125052004125052112-116069     125052006009681820277TCS CARRIER BAG JUMBO  0000001000+00000048+00000+0001T   00000048+0000001728          1400 DJ4090               2AZ
125052005125052018-019000     125052006003000557288MUG OCC. LOVE JUMBO    0000001000+00005262+00000+0001T   00005262+0000001728          1400 DJ4515               2AZ
125052006125052158-008935     125052006003000621880TOILET ROLL HOLDER 66cm0000002000+00008771+00000+0001T   00008771+0000001728          1400 DJ4300               2AZ
125053000125053               125053               170213OF     1400+00000+OF0000000876+0000000876+000000000+000000123+0000000990+0000000009+I20000000000+0000000990+Z
125053001125053071-003003     125053006003000144525PEN BALL PEN 3PCE BLACK0000001000+00000876+00000+0001T   00000876+0000001734          1400 DJ4130               2AZ
125054000125054               125054               170213OF     1400+00000+OF0000020214+0000020214+000000000+000002834+0000023048+0000000000+I40000023048+0000000000+Z
125054001125054464-000110     125054006001023868824PLAYING-CARDS JUMBO    0000001000+00002630+00000+0001T   00002630+0000001740          1400 DJ4785               2AZ
125054002125054466-000040     125054006003000574742BALL WATER BOUNCING    0000001000+00004385+00000+0001T   00004385+0000001740          1400 DJ4785               2AZ
125054003125054007-000217     125054006003000639656SELF STICK NOTE BOOK   0000001000+00002192+00000+0001T   00002192+0000001740          1400 DJ4130               2AZ
125054004125054019-000131     125054006003000456253PLANT. T/PLATE 10X12.5 0000001000+00002630+00000+0001T   00002630+0000001740          1400 DJ4510               2AZ
125054005125054089-000029     125054006003000092321K/CHAIN MOM POLY       0000001000+00002630+00000+0001T   00003507+0008121740          1400 DJ4205               2AZ
125054006125054089-000027     125054006003000254071KEY CHAIN MOM/DAD ASSTD0000001000+00001753+00000+0001T   00001753+0000001740          1400 DJ4205               2AZ
125054007125054566-000358     125054006003000582587STICKER ROOM DECOR WORD0000001000+00003946+00000+0001T   00003946+0000001740          1400 DJ4130               2AZ
125054008125054112-116069     125054006009681820277TCS CARRIER BAG JUMBO  0000001000+00000048+00000+0001T   00000048+0000001740          1400 DJ4090               2AZ
A17021300                                          09345144OFSLAVE 2                       DJ41IC
B12501200                                          170213OF112-116038     14384406SLAVE 2     DJ42IC0000002000+0000001000+0000000000000+
M17021391                              CASH        OFSLAVE 2                       Z-REPORT No.   641TOTAL (Sales - Refunds)           6866.77       CASH TO BE BANKED                 1696.00       DEBIT CARDS                          0.00       CREDIT CARDS                      5170.77       Z-READING                         6866.77       AIRTIME DEBIT CARD SALES             0.00       AIRTIME CARD SALES                   0.00       OVERS/UNDERS                         0.00       AIRTIME CASH SALES                   0.00       GIFT CARDS                           0.00       GIFT CARD CASH SALES                 0.00       T O T A L  CASH PAYOUTS              0.00                                                                                                                                                                                                                                                                                                                                                      Z
M17021392                              CASH        OFABSENT                                                                                                                                                                                          ANNUAL LEAVE                                                                                                                                                                                    DAY OFF                                                                                                                                                                                         COMMENTS                                                                                                                                                                                                                                                                                                                                                                                       Z
Y17021300                                          OF00000000626953+000062
ZOF17021409123 SLAVE 2      SALES DATA                     NEXT INVOICE NO.  125055 0641
X OF Slave 2 First invoice 124991 170213 Last invoice 125054 170213 Next invoice 125055 Total number of records 000000290 clbackup completed 09:12:30
