140510000140510               140510               170213OF     1400+00000+OF0000001139+0000001139+000000000+000000160+0000001299+           I90000000000+0000000000+Z
140510001140510468-000603     140510006003000336548EASTER BUNNY  60G      0000001000+00001139+00000+0001T063570240000                    1400 2IC1102ICV             Z
M17021491                              CASH        OFSLAVE 4                       Z-REPORT No.   445TOTAL (Sales - Refunds)              0.00       CASH TO BE BANKED                    0.00       DEBIT CARDS                          0.00       CREDIT CARDS                         0.00       Z-READING                            0.00       AIRTIME DEBIT CARD SALES             0.00       AIRTIME CARD SALES                   0.00       OVERS/UNDERS                         0.00       AIRTIME CASH SALES                   0.00       GIFT CARDS                           0.00       GIFT CARD CASH SALES                 0.00       T O T A L  CASH PAYOUTS              0.00                                                                                                                                                                                                                                                                                                                                                      Z
M17021492                              CASH        OFABSENT                                                                                                                                                                                          ANNUAL LEAVE                                                                                                                                                                                    DAY OFF                                                                                                                                                                                         COMMENTS                                                                                                                                                                                                                                                                                                                                                                                       Z
Y17021400                                          OF00000000000000+000000
ZOF17021409163 SLAVE 4      SALES DATA                     NEXT INVOICE NO.  140511 0445
L58648800357024-001-013       OF1702131512252ICTHANDAZA N.                                                                                                                                                                                                                                                                                                                                                                                                                                                                                                                                                                                                                                                                                                                                                                                                                                                                                                                                                                                          Z
L58648800357024-002-013       OF1702131512192ICTHANDAZA N.                                                                                                                                                                                                                                                                                                                                                                                                                                                                                                                                                                                                                                                                                                                                                                                                                                                                                                                                                                                          Z
L58648800357024-003-013       OF1702131512092ICTHANDAZA N.                                                                                                                                                                                                                                                                                                                                                                                                                                                                                                                                                                                                                                                                                                                                                                                                                                                                                                                                                                                          Z
L58648800357024-004-013       OF1702131512062ICTHANDAZA N.                                                                                                                                                                                                                                                                                                                                                                                                                                                                                                                                                                                                                                                                                                                                                                                                                                                                                                                                                                                          Z
L58648800357024-005-013       OF1702131512172ICTHANDAZA N.                                                                                                                                                                                                                                                                                                                                                                                                                                                                                                                                                                                                                                                                                                                                                                                                                                                                                                                                                                                          Z
L58648800357024-006-013       OF1702131511552ICTHANDAZA N.                                                                                                                                                                                                                                                                                                                                                                                                                                                                                                                                                                                                                                                                                                                                                                                                                                                                                                                                                                                          Z
L58648800357024-007-013       OF1702131512212ICTHANDAZA N.                                                                                                                                                                                                                                                                                                                                                                                                                                                                                                                                                                                                                                                                                                                                                                                                                                                                                                                                                                                          Z
L58648800357024-008-013       OF1702131512042ICTHANDAZA N.                                                                                                                                                                                                                                                                                                                                                                                                                                                                                                                                                                                                                                                                                                                                                                                                                                                                                                                                                                                          Z
L58648800357024-009-013       OF1702131512122ICTHANDAZA N.                                                                                                                                                                                                                                                                                                                                                                                                                                                                                                                                                                                                                                                                                                                                                                                                                                                                                                                                                                                          Z
L58648800357024-010-013       OF1702131512012ICTHANDAZA N.                                                                                                                                                                                                                                                                                                                                                                                                                                                                                                                                                                                                                                                                                                                                                                                                                                                                                                                                                                                          Z
L58648800357024-011-013       OF1702131512152ICTHANDAZA N.                                                                                                                                                                                                                                                                                                                                                                                                                                                                                                                                                                                                                                                                                                                                                                                                                                                                                                                                                                                          Z
L58648800357024-012-013       OF1702131511522ICTHANDAZA N.                                                                                                                                                                                                                                                                                                                                                                                                                                                                                                                                                                                                                                                                                                                                                                                                                                                                                                                                                                                          Z
L58648800357024-013-013       OF1702131511472ICTHANDAZA N.                                                                                                                                                                                                                                                                                                                                                                                                                                                                                                                                                                                                                                                                                                                                                                                                                                                                                                                                                                                          Z
V58648800000024-013-013       OF1702131511472ICTHAN               0000000000000001702130000001ICSLAVE 4     170213154016357024Y              13
X OF Slave 4 First invoice 140510 170213 Last invoice 140510 170213 Next invoice 140511 Total number of records 000000020 clbackup completed 09:16:30
