138234000138234               138234               170213OG     1400+00000+OG0000000876+0000000876+000000000+000000123+0000000990+0000000009+I20000000000+0000000990+Z
138234001138234076-000017     138234006003000149049TWINE COTTON 50g-BALL  0000001000+00000876+00000+0001T   00000876+0000000940          1400 HW8810               1AZ
138235000138235               138235               170213OG     1400+00000+OG0000008770+0000008770+000000000+000001228+0000009998+0000000000+I40000009998+0000000000+Z
138235001138235368-000049     138235006003000536955PLUSH BEAR 15cm LOVE   0000002000+00004385+00000+0001T   00004385+0000000942          1400 HW8745               1AZ
138236000138236               138236               170213OG     1400+00000+OG0000001975+0000001975+000000000+000000278+0000002250+0000000003+I20000000000+0000002250+Z
138236001138236077-000299     138236006003000395576G/BAG 32x25cm LRG LOVE 0000001000+00001490+00000+0001T   00001490+0000001312          1400 HW8112               1AZ
138236002138236080-000133-A   138236006003000647019MINI VALENTINES CARD   0000001000+00000437+00000+0001T   00000437+0000001312          1400 HW8112               1AZ
138236003138236112-116069     138236006009681820277TCS CARRIER BAG JUMBO  0000001000+00000048+00000+0001T   00000048+0000001312          1400 HW8090               1AZ
138237000138237               138237               170213OG     1400+00000+OG0000028103+0000028103+000000000+000003942+0000032045+0000000000+I10000027995+0000004050+Z
138237001138237112-116069     138237006009681820277TCS CARRIER BAG JUMBO  0000001000+00000048+00000+0001T   00000048+0000001321          1400 HW8090               1AZ
138237002138237368-000637     138237006001023874092PLUSH BEAR SLEEPING LOV0000001000+00011402+00000+0001T   00012279+0006471321          1400 HW8745               1AZ
138237003138237368-000040     138237006003000671786PLUSH ICONS 7.5cm      0000005000+00002630+00000+0001T   00002630+0000001321          1400 HW8745               1AZ
138237004138237080-000127     138237006003000424351VALENTINES DAY 36x24CM 0000001000+00002192+00000+0001T   00002192+0000001321          1400 HW8112               1AZ
138237005138237080-000133-A   138237006003000647019MINI VALENTINES CARD   0000003000+00000437+00000+0001T   00000437+0000001321          1400 HW8112               1AZ
138238000138238               138238               170213OG     1400+00000+OG0000002630+0000002630+000000000+000000369+0000002990+0000000009+I20000000000+0000002990+Z
138238001138238077-000115-B   138238006003000181025GIFT-WRAP PPR 700MMX2M 0000001000+00002630+00000+0001T   00002630+0000001322          1400 HW8112               1AZ
138239000138239               138239               170213OG     1400+00000+OG0000001490+0000001490+000000000+000000209+0000001690+0000000009+I20000000000+0000001690+Z
138239001138239077-000304     138239006001023483232GIFT-BAG 25X32CM E/DAY 0000001000+00001490+00000+0001T   00001490+0000001331          1400 HW8112               1AZ
138240000138240               138240               170213OG     1400+00000+OG0000000876+0000000876+000000000+000000123+0000000990+0000000009+I20000000000+0000000990+Z
138240001138240077-000011-F   138240006001023808431TISSUE-WRAP BLUE/LILAC 0000001000+00000876+00000+0001T   00000876+0000001332          1400 HW8112               1AZ
138241000138241               138241               170213OG     1400+00000+OG0000001792+0000001792+000000000+000000254+0000002040+0000000006+I20000000000+0000002040+Z
138241001138241304-001011     138241006001023806727FLWR ROSE RED W/BEAR   0000001000+00000613+00000+0001T   00000788+0006471347          1400 HW8510               1AZ
138241002138241903-000183     138241006003000451043SWT LB HEART LOLLY     0000003000+00000393+00000+0001T   00000393+0000001347          1400 HW8150               1AZ
138242000138242               138242               170213OG     1400+00000+OG0000002630+0000002630+000000000+000000369+0000002990+0000000009+I20000000000+0000002990+Z
138242001138242403-000502-A   138242006003000467099M/BANK TIN 8x12.5cm    0000001000+00002630+00000+0001T   00002630+0000001351          1400 HW8510               1AZ
138243000138243               138243               170213OG     1400+00000+OG0000004908+0000004908+000000000+000000688+0000005596+0000000000+I40000005596+0000000000+Z
138243001138243018-000127     138243006001023380289MUG OCC STRAIGHT LOVE  0000002000+00001578+00000+0001T   00001753+0006471402          1400 HW8515               1AZ
138243002138243077-000150-D   138243006003000054343GIFT-WRAP CELLPHANE CLR0000002000+00000876+00000+0001T   00000876+0000001402          1400 HW8112               1AZ
138244000138244               138244               170213OG     1400+00000+OG0000001753+0000001753+000000000+000000246+0000001990+0000000009+I20000000000+0000001990+Z
138244001138244071-000305     138244006001023715340RULER/STENCILS         0000001000+00001753+00000+0001T   00001753+0000001408          1400 HW8130               1AZ
138245000138245               138245               170213OG     1400+00000+OG0000008627+0000008627+000000000+000001210+0000009837+0000000000+I40000009837+0000000000+Z
138245001138245203-006000     138245006001023994493ICE-BALL IN-BAG    16PC0000001000+00003332+00000+0001T   00003332+0000001413          1400 HW8300               1AZ
138245002138245466-000584     138245006001023628787SKIPPING-ROPE          0000002000+00002630+00000+0001T   00002630+0000001413          1400 HW8785               1AZ
138245003138245112-116038     138245006009681820246TCS CARRIER BAG MIDI   0000001000+00000035+00000+0001T   00000035+0000001413          1400 HW8090               1AZ
138246000138246               138246               170213OG     1400+00000+OG0000007015+0000007015+000000000+000000983+0000007990+0000000008+I20000000000+0000007990+Z
138246001138246079-001001     138246006003000448593CANVAS A3 WOOD MOUNTED 0000001000+00004385+00000+0001T   00004385+0000001418          1400 HW8130               1AZ
138246002138246566-000006     138246006001023671189STICKER-BOOK DRESS-UP  0000001000+00002630+00000+0001T   00002630+0000001418          1400 HW8130               1AZ
138247000138247               138247               170213OG     1400+00000+OG0000007188+0000007188+000000000+000001007+0000008190+0000000005+I20000000000+0000008190+Z
138247001138247018-000127     138247006001023380289MUG OCC STRAIGHT LOVE  0000003000+00001578+00000+0001T   00001753+0006471419          1400 HW8515               1AZ
138247002138247903-000518     138247006001704012782SWT STRAWS S/BERRY 100g0000002000+00001227+00000+0001T   00001227+0000001419          1400 HW8150               1AZ
138248000138248               138248               170213OG     1400+00000+OG0000003980+0000003980+000000000+000000558+0000004530+0000000008+I20000000000+0000004530+Z
138248001138248089-060027     138248006003000245871KEY-CHAIN HEART 6X6cm  0000001000+00003069+00000+0001T   00003069+0000001425          1400 HW8205               1AZ
138248002138248077-000302     138248008010410010195GIFT-BAG 18X23CM E/D   0000001000+00000876+00000+0001T   00000876+0000001425          1400 HW8112               1AZ
138248003138248112-116038     138248006009681820246TCS CARRIER BAG MIDI   0000001000+00000035+00000+0001T   00000035+0000001425          1400 HW8090               1AZ
138249000138249               138249               170213OG     1400+00000+OG0000012652+0000012652+000000000+000001775+0000014427+0000000000+I40000014427+0000000000+Z
138249001138249112-116038     138249006009681820246TCS CARRIER BAG MIDI   0000001000+00000035+00000+0001T   00000035+0000001429          1400 HW8090               1AZ
138249002138249079-006500     138249006001023557186GLUE GLITTER 6/10 PCE  0000001000+00001753+00000+0001T   00001753+0000001429          1400 HW8130               1AZ
138249003138249304-001011     138249006001023806727FLWR ROSE RED W/BEAR   0000002000+00000613+00000+0001T   00000788+0006471429          1400 HW8510               1AZ
138249004138249039-000504     138249006001023816290CANDLE VTV 4PC METALLIC0000001000+00002630+00000+0001T   00002630+0000001429          1400 HW8510               1AZ
138249005138249077-000311     138249006001023608666GIFT-BAG 11X14CM GLOSS 0000002000+00000613+00000+0001T   00000613+0000001429          1400 HW8112               1AZ
138249006138249056-005748     138249006003000491797CAR AIR-FRESH HATS ASST0000001000+00002630+00000+0001T   00002630+0000001429          1400 HW8860               1AZ
138249007138249077-000311     138249006001023608666GIFT-BAG 11X14CM GLOSS 0000002000+00000613+00000+0001T   00000613+0000001429          1400 HW8112               1AZ
138249008138249077-000310     138249006001023608635GIFT-BAG 18X23CM GLOSS 0000001000+00001314+00000+0001T   00001314+0000001429          1400 HW8112               1AZ
138249009138249079-009700-G   138249006003000545957PAPER SIRIO A4 LIME COL0000001000+00000306+00000+0001T   00000306+0000001429          1400 HW8130               1AZ
138249010138249079-009700-F   138249006003000545872PAPER SIRIO A4 TURQ COL0000001000+00000306+00000+0001T   00000306+0000001429          1400 HW8130               1AZ
138250000138250               138250               170213OG     1400+00000+OG0000005171+0000005171+000000000+000000725+0000005896+0000000000+I40000005896+0000000000+Z
138250001138250077-000245     138250006001023759214GIFT-RIBBON METALLICx2 0000001000+00001227+00000+0001T   00001227+0000001441          1400 HW8112               1AZ
138250002138250006-000166-D   138250006003000516490BALLOONS LRG 6PC RED   0000001000+00001314+00000+0001T   00001314+0000001441          1400 HW8131               1AZ
138250003138250006-000158     138250006003000653911BALLOONS 8PC HEART SHAP0000001000+00002630+00000+0001T   00002630+0000001441          1400 HW8131               1AZ
138251000138251               138251               170213OG     1400+00000+OG0000004385+0000004385+000000000+000000614+0000004990+0000000009+I20000000000+0000004990+Z
138251001138251079-000261     138251006003000159727PAINT WATER COLOUR CAKE0000001000+00004385+00000+0001T   00004385+0000001444          1400 HW8130               1AZ
138252000138252               138252               170213OG     1400+00000+OG0000009382+0000009382+000000000+000001315+0000010697+0000000000+I40000010697+0000000000+Z
138252001138252304-001011     138252006001023806727FLWR ROSE RED W/BEAR   0000001000+00000613+00000+0001T   00000788+0006471448          1400 HW8510               1AZ
138252002138252368-000265     138252006001023750914PLUSH BEAR 23CM ASSTD C0000001000+00006139+00000+0001T   00006139+0000001448          1400 HW8745               1AZ
138252003138252077-000270     138252006003000395453GIFT-BAG PPR JMB 33X45 0000001000+00002630+00000+0001T   00002630+0000001448          1400 HW8112               1AZ
138253000138253               138253               170213OG     1400+00000+OG0000002980+0000002980+000000000+000000418+0000003398+0000000000+I40000003398+0000000000+Z
138253001138253018-000127     138253006001023380289MUG OCC STRAIGHT LOVE  0000001000+00001578+00000+0001T   00001753+0006471449          1400 HW8515               1AZ
138253002138253304-001204     138253006001023737984FLOWER OCC. TEDDY/ROSES0000001000+00001402+00000+0001T   00001490+0006471449          1400 HW8510               1AZ
138254000138254               138254               170213OG     1400+00000+OG0000003507+0000003507+000000000+000000491+0000003990+0000000008+I20000000000+0000003990+Z
138254001138254031-000002-A   138254006003000247103P/FRAME LOVE 7.5X7.5CM 0000001000+00003507+00000+0001T   00003507+0000001453          1400 HW8510               1AZ
138255000138255               138255               170213OG     1400+00000+OG0000003069+0000003069+000000000+000000430+0000003490+0000000009+I20000000000+0000003490+Z
138255001138255024-000212     138255006001023858030COOKIE-CUTTERS PL SMALL0000001000+00003069+00000+0001T   00003069+0000001455          1400 HW8300               1AZ
138256000138256               138256               170213OG     1400+00000+OG0000004384+0000004384+000000000+000000614+0000004998+0000000000+I40000004998+0000000000+Z
138256001138256033-000782     138256006001023905482COSMETIC SPONGES 12PC  0000001000+00002192+00000+0001T   00002192+0000001458          1400 HW8200               1AZ
138256002138256033-000780     138256006001023752611COSMETIC-BRUSH-SET 7PCE0000001000+00002192+00000+0001T   00002192+0000001458          1400 HW8200               1AZ
138257000138257               138257               170213OG     1400+00000+OG0000002630+0000002630+000000000+000000369+0000002990+0000000009+I20000000000+0000002990+Z
138257001138257077-000270     138257006003000395453GIFT-BAG PPR JMB 33X45 0000001000+00002630+00000+0001T   00002630+0000001458          1400 HW8112               1AZ
138258000138258               138258               170213OG     1400+00000+OG0000001753+0000001753+000000000+000000246+0000001990+0000000009+I20000000000+0000001990+Z
138258001138258080-000100     138258006003000236114CARD & ENVELOPE BDAY   0000001000+00001753+00000+0001T   00001753+0000001501          1400 HW8112               1AZ
138259000138259               138259               170213OG     1400+00000+OG0000017494+0000017494+000000000+000002453+0000019940+0000000007+I20000000000+0000019940+Z
138259001138259112-116069     138259006009681820277TCS CARRIER BAG JUMBO  0000001000+00000048+00000+0001T   00000048+0000001505          1400 HW8090               1AZ
138259002138259903-000610     138259006003000610518SWEET JUMBO BUBBLE GUM 0000005000+00001753+00000+0001T   00001753+0000001505          1400 HW8150               1AZ
138259003138259306-000510     138259006001024000469T/BRUSH ADULT CROSS    0000001000+00001227+00000+0001T   00001227+0000001505          1400 HW8200               1AZ
138259004138259018-019000     138259006003000557288MUG OCC. LOVE JUMBO    0000001000+00005262+00000+0001T   00005262+0000001505          1400 HW8515               1AZ
138259005138259080-000127     138259006003000424351VALENTINES DAY 36x24CM 0000001000+00002192+00000+0001T   00002192+0000001505          1400 HW8112               1AZ
138260000138260               138260               170213OG     1400+00000+OG0000000048+0000000048+000000000+000000007+0000000050+0000000005+I20000000000+0000000050+Z
138260001138260112-116069     138260006009681820277TCS CARRIER BAG JUMBO  0000001000+00000048+00000+0001T   00000048+0000001506          1400 HW8090               1AZ
138261000138261               138261               170213OG     1400+00000+OG0000017533+0000017533+000000000+000002458+0000019991+0000000000+I40000019991+0000000000+Z
138261001138261206-000610     138261006003000631674BOMB SHOTS PL 10PC     0000001000+00003507+00000+0001T   00003507+0000001511          1400 HW8321               1AZ
138261002138261077-000011-D   138261006001023808554TISSUE-WRAP WHITE 10PCE0000001000+00000876+00000+0001T   00000876+0000001511          1400 HW8112               1AZ
138261003138261080-000113     138261006003000237449CARD&ENVLPE - LOVE     0000001000+00001753+00000+0001T   00001753+0000001511          1400 HW8112               1AZ
138261004138261077-000270     138261006003000395453GIFT-BAG PPR JMB 33X45 0000001000+00002630+00000+0001T   00002630+0000001511          1400 HW8112               1AZ
138261005138261031-000923     138261006001023669933P/FRAME BLK W/WORDS    0000001000+00003507+00000+0001T   00003507+0000001511          1400 HW8510               1AZ
138261006138261105-001038     138261006003000615315CONTAINER W/VENT 1450ml0000002000+00002630+00000+0001T   00003507+0008161511          1400 HW8210               1AZ
138262000138262               138262               170213OG     1400+00000+OG0000012322+0000012322+000000000+000001728+0000014050+0000000000+I40000014050+0000000000+Z
138262001138262112-116069     138262006009681820277TCS CARRIER BAG JUMBO  0000001000+00000048+00000+0001T   00000048+0000001514          1400 HW8090               1AZ
138262002138262567-011902     138262006003000676040BK FOOD GOLDEN CLOUD   0000001000+00002630+00000+0001T   00002630+0000001514          1400 HW8757               1AZ
138262003138262567-010825     138262009780799360301BOOK ASSTD CAT 7       0000001000+00002630+00000+0001T   00003507+0008131514          1400 HW8757               1AZ
138262004138262567-010825     138262009780799360288BOOK ASSTD CAT 7       0000001000+00002630+00000+0001T   00003507+0008131514          1400 HW8757               1AZ
138262005138262080-000127     138262006003000424351VALENTINES DAY 36x24CM 0000002000+00002192+00000+0001T   00002192+0000001514          1400 HW8112               1AZ
138263000138263               138263               170213OG     1400+00000+OG0000008771+0000008771+000000000+000001228+0000009999+0000000000+I40000009999+0000000000+Z
138263001138263368-000614     138263006001023705808PLUSH LOVE 30cm        0000001000+00008771+00000+0001T   00008771+0000001520          1400 HW8745               1AZ
138264000138264               138264               170213OG     1400+00000+OG0000024075+0000024075+000000000+000003373+0000027448+0000000000+I40000027448+0000000000+Z
138264001138264112-116069     138264006009681820277TCS CARRIER BAG JUMBO  0000001000+00000048+00000+0001T   00000048+0000001523          1400 HW8090               1AZ
138264002138264104-000135     138264006001023846419WASTEBIN SWING-LID 28cm0000001000+00004385+00000+0001T   00004385+0000001523          1400 HW8210               1AZ
138264003138264104-000183     138264006003000593729CUTLERY DRAINER 3DIV PL0000001000+00005262+00000+0001T   00005262+0000001523          1400 HW8210               1AZ
138264004138264105-003025     138264006001023594662CONTAINER RECT 28x19cm 0000001000+00002630+00000+0001T   00002630+0000001523          1400 HW8210               1AZ
138264005138264018-000136     138264006001023659026MUG OCC LOVE W/PLUSH   0000001000+00003507+00000+0001T   00003507+0000001523          1400 HW8515               1AZ
138264006138264903-000499     138264006001704012492SWT CHOC MALLOWS 50g   0000001000+00001227+00000+0001T   00001227+0000001523          1400 HW8150               1AZ
138264007138264079-000335     138264006003000670550THERAPY P/CRAYONS 30   0000001000+00007016+00000+0001T   00007016+0000001523          1400 HW8130               1AZ
138265000138265               138265               170213OG     1400+00000+OG0000011401+0000011401+000000000+000001597+0000012990+0000000008+I20000000000+0000012990+Z
138265001138265368-000614     138265006001023705808PLUSH LOVE 30cm        0000001000+00008771+00000+0001T   00008771+0000001524          1400 HW8745               1AZ
138265002138265077-000270     138265006003000395453GIFT-BAG PPR JMB 33X45 0000001000+00002630+00000+0001T   00002630+0000001524          1400 HW8112               1AZ
138266000138266               138266               170213OG     1400+00000+OG0000003069+0000003069+000000000+000000430+0000003490+0000000009+I20000000000+0000003490+Z
138266001138266104-000055     138266006001023889416BASKET PL 32x22x8cm    0000001000-00003507+00000+0001T   00003507+0000001550          1400 HW82101IC            1AZ
138266002138266104-000055     138266006001023889416BASKET PL 32x22x8cm    0000001000+00003507+00000+0001T   00003507+0000001550          1400 HW82101IC            1AZ
138266003138266174-008026     138266006009654960429TRAVEL BOTTLES 2-PACK  0000001000+00003069+00000+0001T   00003069+0000001550          1400 HW8205               1AZ
138267000138267               138267               170213OG     1400+00000+OG0000000613+0000000613+000000000+000000086+0000000690+0000000009+I20000000000+0000000690+Z
138267001138267304-001011     138267006001023806727FLWR ROSE RED W/BEAR   0000001000+00000613+00000+0001T   00000788+0006471551          1400 HW8510               1AZ
138268000138268               138268               170213OG     1400+00000+OG0000001578+0000001578+000000000+000000221+0000001799+0000000000+I40000001799+0000000000+Z
138268001138268077-000303     138268006001023593757GIFT-BAG PAPER MED     0000001000+00001578+00000+0001T   00001578+0000001552          1400 HW8112               1AZ
138269000138269               138269               170213OG     1400+00000+OG0000007713+0000007713+000000000+000001081+0000008790+0000000004+I20000000000+0000008790+Z
138269001138269018-000177     138269006001023797513MUG MINI LOVE ASSTD    0000001000+00000700+00000+0001T   00000700+0000001555          1400 HW8515               1AZ
138269002138269301-085004     138269006003000420469ORN LOVE PLAQUE 21X10CM0000001000+00003507+00000+0001T   00003946+0006471555          1400 HW8505               1AZ
138269003138269077-000467     138269006003000329991GIFT-BAG STAMP 18X23CM 0000001000+00001753+00000+0001T   00001753+0000001555          1400 HW8112               1AZ
138269004138269077-000011-X   138269006001023809827TISSUE-WRAP SILVER 10PC0000001000+00001753+00000+0001T   00001753+0000001555          1400 HW8112               1AZ
138270000138270               138270               170213OG     1400+00000+OG0000003365+0000003365+000000000+000000472+0000003837+0000000000+I40000003837+0000000000+Z
138270001138270204-000007     138270006003000427062M/HOLDER MAGN POLY LOVE0000001000+00002630+00000+0001T   00003507+0008131557          1400 HW8300               1AZ
138270002138270112-116038     138270006009681820246TCS CARRIER BAG MIDI   0000001000+00000035+00000+0001T   00000035+0000001557          1400 HW8090               1AZ
138270003138270018-000177     138270006001023797513MUG MINI LOVE ASSTD    0000001000+00000700+00000+0001T   00000700+0000001557          1400 HW8515               1AZ
138271000138271               138271               170213OG     1400+00000+OG0000000613+0000000613+000000000+000000086+0000000690+0000000009+I20000000000+0000000690+Z
138271001138271304-001011     138271006001023806727FLWR ROSE RED W/BEAR   0000001000+00000613+00000+0001T   00000788+0006471600          1400 HW8510               1AZ
138272000138272               138272               170213OG     1400+00000+OG0000006139+0000006139+000000000+000000860+0000006990+0000000009+I20000000000+0000006990+Z
138272001138272018-050000     138272006003000412679MUG OCC LOVE TWIN BEAR 0000001000+00006139+00000+0001T   00006139+0000001602          1400 HW8515               1AZ
138273000138273               138273               170213OG     1400+00000+OG0000013417+0000013417+000000000+000001879+0000015290+0000000006+I20000000000+0000015290+Z
138273001138273469-000301     138273006003000128167B/BLOCKS 22PC SMALL    0000001000+00008771+00000+0001T   00008771+0000001607          1400 HW8755               1AZ
138273002138273562-000200     138273006001023732941PUSH-IN TRANSPORT      0000001000+00003507+00000+0001T   00003507+0000001607          1400 HW8755               1AZ
138273003138273007-000711     138273006003000227518NOTE-BK A5 WIRE 80SHTS 0000001000-00004385+00000+0001T   00004385+0000001607          1400 HW81302IC            1AZ
138273004138273007-000711     138273006003000227518NOTE-BK A5 WIRE 80SHTS 0000001000+00004385+00000+0001T   00004385+0000001607          1400 HW81302IC            1AZ
138273005138273903-000087     138273006001704000161SWT SPECKLED-EGGS 50G  0000001000+00001139+00000+0001T   00001139+0000001607          1400 HW8150               1AZ
138274000138274               138274               170213OG     1400+00000+OG0000005085+0000005085+000000000+000000712+0000005797+0000000000+I40000005797+0000000000+Z
138274001138274077-000303     138274006001023593757GIFT-BAG PAPER MED     0000001000+00001578+00000+0001T   00001578+0000001608          1400 HW8112               1AZ
138274002138274089-000018     138274006003000176724KEY CHAIN INSPIRATION  0000001000+00003507+00000+0001T   00003507+0000001608          1400 HW8205               1AZ
138275000138275               138275               170213OG     1400+00000+OG0000004384+0000004384+000000000+000000614+0000004990+0000000008+I20000000000+0000004990+Z
138275001138275072-020303     138275006008632000492DOG-TOY DENTAL-BONE    0000002000+00002192+00000+0001T   00002192+0000001618          1400 HW8870               1AZ
138276000138276               138276               170213OG     1400+00000+OG0000010119+0000010119+000000000+000001418+0000011537+0000000000+I40000011537+0000000000+Z
138276001138276112-116038     138276006009681820246TCS CARRIER BAG MIDI   0000001000+00000035+00000+0001T   00000035+0000001620          1400 HW8090               1AZ
138276002138276046-000014-A   138276004897006177708BATTERIES SIZE:AAA 8PCE0000001000+00001753+00000+0001T   00001753+0000001620          1400 HW8312               1AZ
138276003138276047-005127     138276006003000093861CABLETIES 100/150/200mm0000001000+00002192+00000+0001T   00002192+0000001620          1400 HW8880               1AZ
138276004138276586-011940     138276006001492119403WATCH KIDS CAR         0000001000+00006139+00000+0001T   00006139+0000001620          1400 HW8160               1AZ
138277000138277               138277               170213OG     1400+00000+OG0000007015+0000007015+000000000+000000983+0000007990+0000000008+I20000000000+0000007990+Z
138277001138277368-000049     138277006003000536955PLUSH BEAR 15cm LOVE   0000001000+00004385+00000+0001T   00004385+0000001621          1400 HW8745               1AZ
138277002138277006-000111     138277006003000519385BALLOONS LARGE 12PCE   0000001000+00002630+00000+0001T   00002630+0000001621          1400 HW8131               1AZ
138278000138278               138278               170213OG     1400+00000+OG0000003156+0000003156+000000000+000000442+0000003598+0000000000+I40000003598+0000000000+Z
138278001138278018-000127     138278006001023380289MUG OCC STRAIGHT LOVE  0000002000+00001578+00000+0001T   00001753+0006471624          1400 HW8515               1AZ
138279000138279               138279               170213OG     1400+00000+OG0000008793+0000008793+000000000+000001236+0000010029+0000000000+I40000010029+0000000000+Z
138279001138279006-000124     138279006003000625888BALLOONS 10PC MIX COL  0000001000+00001753+00000+0001T   00001753+0000001626          1400 HW8131               1AZ
138279002138279006-000120     138279006001023346889BALLOONS 10PC MIX COL  0000001000+00001753+00000+0001T   00001753+0000001626          1400 HW8131               1AZ
138279003138279903-003080     138279005907029004673SWT SNACK STIX CHOC 50g0000001000+00000876+00000+0001T   00000876+0000001626          1400 HW8150               1AZ
138279004138279080-000133     138279006003000535613CARD&ENV MINI ASTD DSGN0000003000+00000437+00000+0001T   00000437+0000001626          1400 HW8112               1AZ
138279005138279112-116038     138279006009681820246TCS CARRIER BAG MIDI   0000001000+00000035+00000+0001T   00000035+0000001626          1400 HW8090               1AZ
138279006138279006-001000     138279006003000093779HELIUM BALLOON FILL    0000005000+00000613+00000+0001T   00000613+0000001626          1400 HW8131               1AZ
138280000138280               138280               170213OG     1400+00000+OG0000000876+0000000876+000000000+000000123+0000000990+0000000009+I20000000000+0000000990+Z
138280001138280071-005213     138280006001023690371CELLOTAPE 12mmx33m     0000001000+00000876+00000+0001T   00000876+0000001627          1400 HW8130               1AZ
138281000138281               138281               170213OG     1400+00000+OG0000003153+0000003153+000000000+000000444+0000003590+0000000007+I20000000000+0000003590+Z
138281001138281903-002850     138281000000087108262MENTOS ROLL FRUIT      0000002000+00001051+00000+0001T   00001051+0000001627          1400 HW8150               1AZ
138281002138281903-002851     138281000000087108538MENTOS ROLL STRAWBERRY 0000001000+00001051+00000+0001T   00001051+0000001627          1400 HW8150               1AZ
138282000138282               138282               170213OG     1400+00000+OG0000001753+0000001753+000000000+000000246+0000001990+0000000009+I20000000000+0000001990+Z
138282001138282077-000011     138282006003000542352PAPER RAFFIA ASSTD COL 0000001000+00001753+00000+0001T   00001753+0000001629          1400 HW8112               1AZ
138283000138283               138283               170213OG     1400+00000+OG0000008628+0000008628+000000000+000001209+0000009837+0000000000+I40000009837+0000000000+Z
138283001138283301-085007     138283006003000673698ORN OCC. LOVE S/PLAQUE 0000001000+00007893+00000+0001T   00007893+0000001633          1400 HW8505               1AZ
138283002138283018-000177     138283006001023797513MUG MINI LOVE ASSTD    0000001000+00000700+00000+0001T   00000700+0000001633          1400 HW8515               1AZ
138283003138283112-116038     138283006009681820246TCS CARRIER BAG MIDI   0000001000+00000035+00000+0001T   00000035+0000001633          1400 HW8090               1AZ
138284000138284               138284               170213OG     1400+00000+OG0000017588+0000017588+000000000+000002463+0000020051+0000000000+I40000020051+0000000000+Z
138284001138284112-116069     138284006009681820277TCS CARRIER BAG JUMBO  0000001000+00000048+00000+0001T   00000048+0000001637          1400 HW8090               1AZ
138284002138284369-000813     138284006001023450340P/ALONG ANIMAL PHONE   0000001000+00005262+00000+0001T   00005262+0000001637          1400 HW8745               1AZ
138284003138284369-000035     138284006001023795885EDU STACKING-SET ASSTD 0000001000+00003507+00000+0001T   00003507+0000001637          1400 HW8745               1AZ
138284004138284006-000165     138284006001023758392BALLOONS LRG BAG-OF-1000000001000+00008771+00000+0001T   00008771+0000001637          1400 HW8131               1AZ
138285000138285               138285               170213OG     1400+00000+OG0000001753+0000001753+000000000+000000246+0000001990+0000000009+I20000000000+0000001990+Z
138285001138285077-000289     138285006001023901996GIFT BOX 20x25x11cm    0000001000+00001753+00000+0001T   00001753+0000001644          1400 HW8112               1AZ
138286000138286               138286               170213OG     1400+00000+OG0000008501+0000008501+000000000+000001193+0000009694+0000000000+I40000009694+0000000000+Z
138286001138286903-002853     138286000000087108019MENTOS ROLL MINT       0000001000+00001051+00000+0001T   00001051+0000001646          1400 HW8150               1AZ
138286002138286903-000482     138286006001704001397SWT SOFT-MINTS 60G     0000001000+00000876+00000+0001T   00000876+0000001646          1400 HW8150               1AZ
138286003138286077-000151     138286006008766114676GIFT-WRAP C/PHANE ASSTD0000002000+00000876+00000+0001T   00000876+0000001646          1400 HW8112               1AZ
138286004138286077-000115-B   138286006003000181025GIFT-WRAP PPR 700MMX2M 0000001000+00002630+00000+0001T   00002630+0000001646          1400 HW8112               1AZ
138286005138286077-000926     138286006003000414178G/WRAP 700mmx2m LOVE   0000001000+00002192+00000+0001T   00002192+0000001646          1400 HW8112               1AZ
138287000138287               138287               170213OG     1400+00000+OG0000010831+0000010831+000000000+000001518+0000012349+0000000000+I40000012349+0000000000+Z
138287001138287112-116069     138287006009681820277TCS CARRIER BAG JUMBO  0000001000+00000048+00000+0001T   00000048+0000001648          1400 HW8090               1AZ
138287002138287366-000256     138287006001023918406DRESS UP TIARA&EARRINGS0000001000+00003069+00000+0001T   00003069+0000001648          1400 HW8131               1AZ
138287003138287077-000011-D   138287006001023808554TISSUE-WRAP WHITE 10PCE0000001000+00000876+00000+0001T   00000876+0000001648          1400 HW8112               1AZ
138287004138287018-019000     138287006003000557288MUG OCC. LOVE JUMBO    0000001000+00005262+00000+0001T   00005262+0000001648          1400 HW8515               1AZ
138287005138287077-000302     138287008010410010195GIFT-BAG 18X23CM E/D   0000001000+00000876+00000+0001T   00000876+0000001648          1400 HW8112               1AZ
138287006138287018-000177     138287006001023797513MUG MINI LOVE ASSTD    0000001000+00000700+00000+0001T   00000700+0000001648          1400 HW8515               1AZ
138288000138288               138288               170213OG     1400+00000+OG0000007187+0000007187+000000000+000001008+0000008195+0000000000+I40000008195+0000000000+Z
138288001138288079-009702-D   138288008427973059354PAPER SIRIO A2 RED COL 0000001000+00001051+00000+0001T   00001051+0000001658          1400 HW8130               1AZ
138288002138288080-000113     138288006003000237449CARD&ENVLPE - LOVE     0000001000+00001753+00000+0001T   00001753+0000001658          1400 HW8112               1AZ
138288003138288162-092944     138288006001492929446SS 3PK KIDS H/BANDS    0000001000+00003507+00000+0001T   00003507+0000001658          1400 HW8160               1AZ
138288004138288903-000297     138288006001704002950SWT MS WILD BERRY 50G  0000001000+00000876+00000+0001T   00000876+0000001658          1400 HW8150               1AZ
138289000138289               138289               170213OG     1400+00000+OG0000011663+0000011663+000000000+000001634+0000013297+0000000000+I40000013297+0000000000+Z
138289001138289301-085007     138289006003000673698ORN OCC. LOVE S/PLAQUE 0000001000+00007893+00000+0001T   00007893+0000001702          1400 HW8505               1AZ
138289002138289018-000170     138289006001023775528MUG OCC. LOVE 2PC MINI 0000001000+00002192+00000+0001T   00002192+0000001702          1400 HW8515               1AZ
138289003138289077-000303     138289006001023593757GIFT-BAG PAPER MED     0000001000+00001578+00000+0001T   00001578+0000001702          1400 HW8112               1AZ
138290000138290               138290               170213OG     1400+00000+OG0000000525+0000000525+000000000+000000074+0000000590+0000000009+I20000000000+0000000590+Z
138290001138290903-000151     138290006009803374411SWT SML RND R/BOW LOLLY0000001000+00000525+00000+0001T   00000525+0000001704          1400 HW8150               1AZ
138291000138291               138291               170213OG     1400+00000+OG0000006137+0000006137+000000000+000000860+0000006990+0000000007+I20000000000+0000006990+Z
138291001138291105-001063     138291006003000629367CONTAINER CLIP LOCK    0000001000+00002630+00000+0001T   00003507+0008161706          1400 HW8210               1AZ
138291002138291105-001068     138291006003000629046CONTAINER CLIP LOCK    0000001000+00003507+00000+0001T   00003507+0000001706          1400 HW8210               1AZ
138292000138292               138292               170213OG     1400+00000+OG0000000876+0000000876+000000000+000000123+0000000990+0000000009+I20000000000+0000000990+Z
138292001138292903-000503     138292006001704006118SWT VAMPIRE FANGS 60G  0000001000+00000876+00000+0001T   00000876+0000001707          1400 HW8150               1AZ
138293000138293               138293               170213OG     1400+00000+OG0000002630+0000002630+000000000+000000369+0000002999+0000000000+I40000002999+0000000000+Z
138293001138293366-006103     138293006001023786944DRESS UP FACE PAINT SET0000001000+00002630+00000+0001T   00002630+0000001710          1400 HW8131               1AZ
138294000138294               138294               170213OG     1400+00000+OG0000006172+0000006172+000000000+000000865+0000007030+0000000007+I20000000000+0000007030+Z
138294001138294112-116038     138294006009681820246TCS CARRIER BAG MIDI   0000001000+00000035+00000+0001T   00000035+0000001711          1400 HW8090               1AZ
138294002138294903-003075     138294003800065783125SWT CHOC FAFL WAFER 52g0000001000+00000876+00000+0001T   00000876+0000001711          1400 HW8150               1AZ
138294003138294903-003080     138294005907029004673SWT SNACK STIX CHOC 50g0000001000+00000876+00000+0001T   00000876+0000001711          1400 HW8150               1AZ
138294004138294031-080508     138294006001023802415P/FRAME PL 22X11CM LOVE0000001000+00004385+00000+0001T   00004385+0000001711          1400 HW8510               1AZ
138295000138295               138295               170213OG     1400+00000+OG0000012276+0000012276+000000000+000001720+0000013990+0000000006+I20000000000+0000013990+Z
138295001138295368-000001     138295006003000097982Plush Bear 25cm        0000002000+00004385+00000+0001T   00004385+0000001712          1400 HW8745               1AZ
138295002138295077-000373     138295006003000395217G/BAG MED 18X23CM DESGN0000002000+00001753+00000+0001T   00001753+0000001712          1400 HW8112               1AZ
138296000138296               138296               170213OG     1400+00000+OG0000008990+0000008990+000000000+000001260+0000010250+0000000000+I40000010250+0000000000+Z
138296001138296112-116069     138296006009681820277TCS CARRIER BAG JUMBO  0000001000+00000048+00000+0001T   00000048+0000001715          1400 HW8090               1AZ
138296002138296033-005921-B   138296006001023678348SEWING-THREAD 200m BLK 0000001000+00000876+00000+0001T   00000876+0000001715          1400 HW8200               1AZ
138296003138296567-011349     138296009780709713647BK STICKER FUN & COLOUR0000001000+00003507+00000+0001T   00003507+0000001715          1400 HW8757               1AZ
138296004138296024-000216     138296006001023766557KIDDIES B/WARE ACC 3PC 0000001000+00003069+00000+0001T   00003069+0000001715          1400 HW8300               1AZ
138296005138296079-000512     138296006001023635853CRAYONS WAX 12-COLOUR  0000001000+00001490+00000+0001T   00001490+0000001715          1400 HW8130               1AZ
138297000138297               138297               170213OG     1400+00000+OG0000007015+0000007015+000000000+000000983+0000007998+0000000000+I40000007998+0000000000+Z
138297001138297077-000011-R   138297006001023808462P/TISSUE DARK 10-SHEETS0000001000+00000876+00000+0001T   00000876+0000001719          1400 HW8112               1AZ
138297002138297007-000890-17  138297006003000645671CALENDAR 2017 ASSTD    0000001000+00006139+00000+0001T   00006139+0000001719          1400 HW8130               1AZ
138298000138298               138298               170213OG     1400+00000+OG0000004293+0000004293+000000000+000000603+0000004890+0000000006+I20000000000+0000004890+Z
138298001138298304-001011     138298006001023806727FLWR ROSE RED W/BEAR   0000002000+00000613+00000+0001T   00000788+0006471720          1400 HW8510               1AZ
138298002138298266-000938     138298006001023186676SWORD+SCABBARD         0000001000+00002630+00000+0001T   00002630+0000001720          1400 HW8710               1AZ
138298003138298080-000133-A   138298006003000647019MINI VALENTINES CARD   0000001000+00000437+00000+0001T   00000437+0000001720          1400 HW8112               1AZ
138299000138299               138299               170213OG     1400+00000+OG0000003507+0000003507+000000000+000000491+0000003990+0000000008+I20000000000+0000003990+Z
138299001138299018-000136     138299006001023659026MUG OCC LOVE W/PLUSH   0000001000+00003507+00000+0001T   00003507+0000001724          1400 HW8515               1AZ
138300000138300               138300               170213OG     1400+00000+OG0000004420+0000004420+000000000+000000619+0000005030+0000000009+I20000000000+0000005030+Z
138300001138300016-006500     138300006003000298105S/JAR GLS HERMETICO    0000001000+00004385+00000+0001T   00004385+0000001726          1400 HW8300               1AZ
138300002138300112-116038     138300006009681820246TCS CARRIER BAG MIDI   0000001000+00000035+00000+0001T   00000035+0000001726          1400 HW8090               1AZ
138301000138301               138301               170213OG     1400+00000+OG0000022852+0000022852+000000000+000003201+0000026053+0000000000+I40000026053+0000000000+Z
138301001138301368-000637     138301006001023874092PLUSH BEAR SLEEPING LOV0000002000+00011402+00000+0001T   00012279+0006471727          1400 HW8745               1AZ
138301002138301112-116069     138301006009681820277TCS CARRIER BAG JUMBO  0000001000+00000048+00000+0001T   00000048+0000001727          1400 HW8090               1AZ
138302000138302               138302               170213OG     1400+00000+OG0000008819+0000008819+000000000+000001235+0000010050+0000000004+I20000000000+0000010050+Z
138302001138302031-000871-C   138302006003000463169P/FRAME COLLAGE 3-HOLE 0000001000+00008771+00000+0001T   00008771+0000001729          1400 HW8510               1AZ
138302002138302112-116069     138302006009681820277TCS CARRIER BAG JUMBO  0000001000+00000048+00000+0001T   00000048+0000001729          1400 HW8090               1AZ
138303000138303               138303               170213OG     1400+00000+OG0000001085+0000001085+000000000+000000153+0000001238+0000000000+I40000001238+0000000000+Z
138303001138303304-001011     138303006001023806727FLWR ROSE RED W/BEAR   0000001000+00000613+00000+0001T   00000788+0006471731          1400 HW8510               1AZ
138303002138303080-000133-A   138303006003000647019MINI VALENTINES CARD   0000001000+00000437+00000+0001T   00000437+0000001731          1400 HW8112               1AZ
138303003138303112-116038     138303006009681820246TCS CARRIER BAG MIDI   0000001000+00000035+00000+0001T   00000035+0000001731          1400 HW8090               1AZ
138304000138304               138304               170213OG     1400+00000+OG0000007015+0000007015+000000000+000000983+0000007990+0000000008+I20000000000+0000007990+Z
138304001138304018-019000     138304006003000557288MUG OCC. LOVE JUMBO    0000001000+00005262+00000+0001T   00005262+0000001732          1400 HW8515               1AZ
138304002138304077-000308     138304006001023595812GIFT-BAG 33X45CM E/DAY 0000001000+00001753+00000+0001T   00001753+0000001732          1400 HW8112               1AZ
138305000138305               138305               170213OG     1400+00000+OG0000012319+0000012319+000000000+000001728+0000014047+0000000000+I40000014047+0000000000+Z
138305001138305112-116069     138305006009681820277TCS CARRIER BAG JUMBO  0000001000+00000048+00000+0001T   00000048+0000001735          1400 HW8090               1AZ
138305002138305566-000068     138305006003000418046POP UP LOVE 2 ASSTD    0000001000+00002192+00000+0001T   00002192+0000001735          1400 HW8130               1AZ
138305003138305077-000303     138305006001023593757GIFT-BAG PAPER MED     0000001000+00001578+00000+0001T   00001578+0000001735          1400 HW8112               1AZ
138305004138305077-000358     138305006003000329977GIFT-BAG KIDS 25X32CM  0000002000+00001753+00000+0001T   00001753+0000001735          1400 HW8112               1AZ
138305005138305080-000124     138305006003000297733CARD & ENV VALENTINES  0000001000+00001578+00000+0001T   00001578+0000001735          1400 HW8112               1AZ
138305006138305903-000698     138305006002099007032SWT CANDY ECLAIRS 90g  0000003000+00001139+00000+0001T   00001139+0000001735          1400 HW8150               1AZ
138306000138306               138306               170213OG     1400+00000+OG0000006625+0000006625+000000000+000000928+0000007550+0000000003+I20000000000+0000007550+Z
138306001138306031-080508     138306006001023802415P/FRAME PL 22X11CM LOVE0000001000+00004385+00000+0001T   00004385+0000001736          1400 HW8510               1AZ
138306002138306080-000127     138306006003000424351VALENTINES DAY 36x24CM 0000001000+00002192+00000+0001T   00002192+0000001736          1400 HW8112               1AZ
138306003138306112-116069     138306006009681820277TCS CARRIER BAG JUMBO  0000001000+00000048+00000+0001T   00000048+0000001736          1400 HW8090               1AZ
138307000138307               138307               170213OG     1400+00000+OG0000006884+0000006884+000000000+000000965+0000007849+0000000000+I40000007849+0000000000+Z
138307001138307018-000136     138307006001023659026MUG OCC LOVE W/PLUSH   0000001000+00003507+00000+0001T   00003507+0000001738          1400 HW8515               1AZ
138307002138307077-000310     138307006001023608635GIFT-BAG 18X23CM GLOSS 0000001000+00001314+00000+0001T   00001314+0000001738          1400 HW8112               1AZ
138307003138307903-000503     138307006001704006118SWT VAMPIRE FANGS 60G  0000001000+00000876+00000+0001T   00000876+0000001738          1400 HW8150               1AZ
138307004138307903-000087     138307006001704000161SWT SPECKLED-EGGS 50G  0000001000+00001139+00000+0001T   00001139+0000001738          1400 HW8150               1AZ
138307005138307112-116069     138307006009681820277TCS CARRIER BAG JUMBO  0000001000+00000048+00000+0001T   00000048+0000001738          1400 HW8090               1AZ
138308000138308               138308               170213OG     1400+00000+OG0000000876+0000000876+000000000+000000123+0000000990+0000000009+I20000000000+0000000990+Z
138308001138308076-000017     138308006001811010022TWINE COTTON 50g-BALL  0000001000+00000876+00000+0001T   00000876+0000001739          1400 HW8810               1AZ
A17021300                                          09054484OGSLAVE 1                       HW81IC
A17021301                                          11261509OGSLAVE 1                       HW81IC
M17021301                              IT          OGATT IT                                          LAST SLIP NUMBER                                IS 138308                                       THNX OG
M17021391                              CASH        OGSLAVE 1                       Z-REPORT No.   597TOTAL (Sales - Refunds)           5634.64       CASH TO BE BANKED                 2186.80       DEBIT CARDS                          0.00       CREDIT CARDS                      3447.84       Z-READING                         5634.64       AIRTIME DEBIT CARD SALES             0.00       AIRTIME CARD SALES                   0.00       OVERS/UNDERS                         0.00       AIRTIME CASH SALES                   0.00       GIFT CARDS                           0.00       GIFT CARD CASH SALES                 0.00       T O T A L  CASH PAYOUTS              0.00                                                                                                                                                                                                                                                                                                                                                      Z
M17021392                              CASH        OGABSENT                                                                                                                                                                                          ANNUAL LEAVE                                                                                                                                                                                    DAY OFF                                                                                                                                                                                         COMMENTS                                                                                                                                                                                                                                                                                                                                                                                       Z
Y17021300                                          OG00000000502370+000075
ZOG17021320133 SLAVE 1      SALES DATA                     NEXT INVOICE NO.  138309 0597
X OG Slave 1 First invoice 138234 170213 Last invoice 138308 170213 Next invoice 138309 Total number of records 000000276 clbackup completed 20:13:27
