146448000146448               146448               170213OG     1400+00000+OG0000000700+0000000700+000000000+000000098+0000000790+0000000008+I20000000000+0000000790+Z
146448001146448266-001505     146448006001023641816TOP,TWINE & MARBLES    0000001000+00000700+00000+0001T   00000700+0000000901          1400 LM5710               2AZ
146449000146449               146449               170213OG     1400+00000+OG0000004433+0000004433+000000000+000000621+0000005050+0000000004+I20000000000+0000005050+Z
146449001146449031-080508     146449006001023802415P/FRAME PL 22X11CM LOVE0000001000+00004385+00000+0001T   00004385+0000000904          1400 LM5510               2AZ
146449002146449112-116069     146449006009681820277TCS CARRIER BAG JUMBO  0000001000+00000048+00000+0001T   00000048+0000000904          1400 LM5090               2AZ
146450000146450               146450               170213OG     1400+00000+OG0000003944+0000003944+000000000+000000553+0000004490+0000000007+I20000000000+0000004490+Z
146450001146450077-000011-D   146450006001023808554TISSUE-WRAP WHITE 10PCE0000001000+00000876+00000+0001T   00000876+0000000918          1400 LM5112               2AZ
146450002146450077-000299     146450006003000395576G/BAG 32x25cm LRG LOVE 0000001000+00001490+00000+0001T   00001490+0000000918          1400 LM5112               2AZ
146450003146450018-000127     146450006001023380289MUG OCC STRAIGHT LOVE  0000001000+00001578+00000+0001T   00001753+0006470918          1400 LM5515               2AZ
146451000146451               146451               170213OG     1400+00000+OG0000003942+0000003942+000000000+000000552+0000004490+0000000004+I20000000000+0000004490+Z
146451001146451903-004950     146451006002580020304SWT APRICOT SURPRISE   0000003000+00001314+00000+0001T   00001314+0000000925          1400 LM5150               2AZ
146452000146452               146452               170213OG     1400+00000+OG0000008377+0000008377+000000000+000001174+0000009551+0000000000+I40000009551+0000000000+Z
146452001146452903-005007     146452006002580020311SWT MALLOW BEAR M/SHAKE0000001000+00001314+00000+0001T   00001314+0000001012          1400 LM5150               2AZ
146452002146452077-000467     146452006003000329991GIFT-BAG STAMP 18X23CM 0000001000+00001753+00000+0001T   00001753+0000001012          1400 LM5112               2AZ
146452003146452567-010161     146452009780000008516BOOK TOP ASSTD MILLS   0000001000+00005262+00000+0001T   00005262+0000001012          1400 LM5757               2AZ
146452004146452112-116069     146452006009681820277TCS CARRIER BAG JUMBO  0000001000+00000048+00000+0001T   00000048+0000001012          1400 LM5090               2AZ
146453000146453               146453               170213OG     1400+00000+OG0000009458+0000009458+000000000+000001331+0000010780+0000000009+I20000000000+0000010780+Z
146453001146453077-000303     146453006001023593757GIFT-BAG PAPER MED     0000002000+00001578+00000+0001T   00001578+0000001022          1400 LM5112               2AZ
146453002146453018-000127     146453006001023380289MUG OCC STRAIGHT LOVE  0000002000+00001578+00000+0001T   00001753+0006471022          1400 LM5515               2AZ
146453003146453077-000010-C   146453006001023123879CREPE-PAPER RED        0000001000+00000788+00000+0001T   00000788+0000001022          1400 LM5112               2AZ
146453004146453903-000183     146453006003000451043SWT LB HEART LOLLY     0000006000+00000393+00000+0001T   00000393+0000001022          1400 LM5150               2AZ
146454000146454               146454               170213OG     1400+00000+OG0000017542+0000017542+000000000+000002456+0000019990+0000000008+I20000000000+0000019990+Z
146454001146454365-064009     146454006003000242634PLAY-SET CARRY BOX&PET 0000001000+00017542+00000+0001T   00017542+0000001031          1400 LM5725               2AZ
146455000146455               146455               170213OG     1400+00000+OG0000003505+0000003505+000000000+000000491+0000003996+0000000000+I40000003996+0000000000+Z
146455001146455304-001011     146455006001023806727FLWR ROSE RED W/BEAR   0000001000+00000613+00000+0001T   00000788+0006471037          1400 LM5510               2AZ
146455002146455080-000114     146455006003000246472CARD&ENV LOVE-MUSICAL  0000001000+00001314+00000+0001T   00001753+0008151037          1400 LM5112               2AZ
146455003146455077-000303     146455006001023593757GIFT-BAG PAPER MED     0000001000+00001578+00000+0001T   00001578+0000001037          1400 LM5112               2AZ
146456000146456               146456               170213OG     1400+00000+OG0000007187+0000007187+000000000+000001007+0000008190+0000000004+I20000000000+0000008190+Z
146456001146456083-000305     146456006440024423302CIG-LIGHTER-GAS   300ml0000001000+00003507+00000+0001T   00003507+0000001048          1400 LM5315               2AZ
146456002146456903-000510     146456006001704012621SWEET MS ZBDZ S/BERRY  0000002000+00001227+00000+0001T   00001227+0000001048          1400 LM5150               2AZ
146456003146456083-000055     146456006003000003853LIGHTER ELCTRNC REFILBL0000002000+00000613+00000+0001T   00000613+0000001048          1400 LM5315               2AZ
146457000146457               146457               170213OG     1400+00000+OG0000008771+0000008771+000000000+000001228+0000009990+0000000009+I20000000000+0000009990+Z
146457001146457065-003636     146457006003000231997MICROPHONE SINGER      0000001000+00008771+00000+0001T   00008771+0000001100          1400 LM5745               2AZ
146458000146458               146458               170213OG     1400+00000+OG0000006139+0000006139+000000000+000000860+0000006999+0000000000+I40000006999+0000000000+Z
146458001146458264-000922     146458000090159250012MAISTO CAR PULL-BACK   0000001000+00006139+00000+0001T   00007016+0008191101          1400 LM5710               2AZ
146459000146459               146459               170213OG     1400+00000+OG0000001139+0000001139+000000000+000000160+0000001290+0000000009+I20000000000+0000001290+Z
146459001146459903-000087     146459006001704000161SWT SPECKLED-EGGS 50G  0000001000+00001139+00000+0001T   00001139+0000001101          1400 LM5150               2AZ
146460000146460               146460               170213OG     1400+00000+OG0000004380+0000004380+000000000+000000616+0000004990+0000000006+I20000000000+0000004990+Z
146460001146460077-000299     146460006003000395576G/BAG 32x25cm LRG LOVE 0000001000+00001490+00000+0001T   00001490+0000001105          1400 LM5112               2AZ
146460002146460903-000095     146460006001704011495SWT SPECKLED-EGGS 100G 0000001000+00002104+00000+0001T   00002104+0000001105          1400 LM5150               2AZ
146460003146460903-000183     146460006003000451043SWT LB HEART LOLLY     0000002000+00000393+00000+0001T   00000393+0000001105          1400 LM5150               2AZ
146461000146461               146461               170213OG     1400+00000+OG0000001051+0000001051+000000000+000000148+0000001190+0000000009+I20000000000+0000001190+Z
146461001146461903-002890     146461008935001721352MENTOS GUM PURE F/MINT 0000001000+00001051+00000+0001T   00001051+0000001109          1400 LM5150               2AZ
146462000146462               146462               170213OG     1400+00000+OG0000000356-0000000356-000000000+000000048-0000000410-0000000006+I20000000000+0000000410-Z
146462001146462065-003636     146462006003000231997MICROPHONE SINGER      0000001000-00008771+00000+0001T   00008771+0000001115          1400 LM57451IC            2 Z
146462002146462903-000151     146462006009803374411SWT SML RND R/BOW LOLLY0000001000+00000525+00000+0001T   00000525+0000001115          1400 LM5150               2 Z
146462003146462564-000015     146462006003000140862BUBBLE TEST TUBE       0000001000+00001753+00000+0001T   00001753+0000001115          1400 LM5131               2 Z
146462004146462079-000344     146462006001023904010FELT-TIP PENS 12PCE    0000001000+00002630+00000+0001T   00002630+0000001115          1400 LM5130               2 Z
146462005146462567-011486     146462006003000663576BK COLOURING 96P CRAYOL0000001000+00003507+00000+0001T   00003507+0000001115          1400 LM5757               2 Z
146463000146463               146463               170213OG     1400+00000+OG0000001753+0000001753+000000000+000000246+0000001990+0000000009+I20000000000+0000001990+Z
146463001146463077-000289     146463006001023901996GIFT BOX 20x25x11cm    0000001000+00001753+00000+0001T   00001753+0000001118          1400 LM5112               2AZ
146464000146464               146464               170213OG     1400+00000+OG0000002980+0000002980+000000000+000000418+0000003398+0000000000+I40000003398+0000000000+Z
146464001146464366-000302     146464006001023903013DRESSUP DEVIL/MOUSE    0000001000+00002192+00000+0001T   00002192+0000001120          1400 LM5131               2AZ
146464002146464903-000200     146464006009826020234SWT CHOC RP CHOCO 23G  0000001000+00000788+00000+0001T   00000788+0000001120          1400 LM5150               2AZ
146465000146465               146465               170213OG     1400+00000+OG0000005655+0000005655+000000000+000000795+0000006450+0000000000+I20000000000+0000006450+Z
146465001146465077-000245     146465006001023759214GIFT-RIBBON METALLICx2 0000001000+00001227+00000+0001T   00001227+0000001123          1400 LM5112               2AZ
146465002146465080-000113     146465006003000237449CARD&ENVLPE - LOVE     0000001000+00001753+00000+0001T   00001753+0000001123          1400 LM5112               2AZ
146465003146465903-000200     146465006009826020234SWT CHOC RP CHOCO 23G  0000002000+00000788+00000+0001T   00000788+0000001123          1400 LM5150               2AZ
146465004146465079-009702-D   146465008427973059354PAPER SIRIO A2 RED COL 0000001000+00001051+00000+0001T   00001051+0000001123          1400 LM5130               2AZ
146465005146465112-116069     146465006009681820277TCS CARRIER BAG JUMBO  0000001000+00000048+00000+0001T   00000048+0000001123          1400 LM5090               2AZ
146466000146466               146466               170213OG     1400+00000+OG0000013323+0000013323+000000000+000001869+0000015190+0000000002+I20000000000+0000015190+Z
146466001146466903-000081     146466006001704014076SWT F/PASTILLES 100G   0000002000+00001753+00000+0001T   00001753+0000001124          1400 LM5150               2AZ
146466002146466077-000010-C   146466006001023123879CREPE-PAPER RED        0000001000+00000788+00000+0001T   00000788+0000001124          1400 LM5112               2AZ
146466003146466018-000127     146466006001023380289MUG OCC STRAIGHT LOVE  0000001000+00001578+00000+0001T   00001753+0006471124          1400 LM5515               2AZ
146466004146466362-019375     146466006001023730664HAIR BAND SET 24PCE    0000001000+00000876+00000+0001T   00000876+0000001124          1400 LM5160               2AZ
146466005146466002-220006     146466006001023670342FOOD COVER 43CM ASSTD  0000001000+00003069+00000+0001T   00003069+0000001124          1400 LM5300               2AZ
146466006146466088-000052     146466006001023760401T/FRESHENER CISTERN BLK0000001000+00000876+00000+0001T   00000876+0000001124          1400 LM5212               2AZ
146466007146466037-000006     146466006003000171996ASHTRAY PL TUB GIANT   0000001000+00002630+00000+0001T   00003069+0008191124          1400 LM5515               2AZ
146467000146467               146467               170213OG     1400+00000+OG0000002455+0000002455+000000000+000000344+0000002799+0000000000+I40000002799+0000000000+Z
146467001146467077-000380     146467006003000247585GIFT-BAG 33X45CM S/COL 0000001000+00002455+00000+0001T   00002455+0000001135          1400 LM5112               2AZ
146468000146468               146468               170213OG     1400+00000+OG0000005436+0000005436+000000000+000000762+0000006190+0000000008+I20000000000+0000006190+Z
146468001146468031-000878-B   146468006001023799012P/FRAME 13x18cm PL-SLID0000001000+00001490+00000+0001T   00001490+0000001141          1400 LM5510               2AZ
146468002146468017-000251     146468006003000242689P/ALBUM 36-PHOTO PLAIN 0000001000+00003946+00000+0001T   00003946+0000001141          1400 LM5510               2AZ
146469000146469               146469               170213OG     1400+00000+OG0000011447+0000011447+000000000+000001604+0000013051+0000000000+I40000013051+0000000000+Z
146469001146469112-116069     146469006009681820277TCS CARRIER BAG JUMBO  0000001000+00000048+00000+0001T   00000048+0000001144          1400 LM5090               2AZ
146469002146469007-000291     146469006003000590131REMINDER NOTES REFILL  0000001000+00003507+00000+0001T   00003507+0000001144          1400 LM5130               2AZ
146469003146469080-000113     146469006003000237449CARD&ENVLPE - LOVE     0000001000+00001753+00000+0001T   00001753+0000001144          1400 LM5112               2AZ
146469004146469030-004025     146469006003000416912WALL DEC KEY-RACK      0000001000+00006139+00000+0001T   00006139+0000001144          1400 LM5505               2AZ
146470000146470               146470               170213OG     1400+00000+OG0000007666+0000007666+000000000+000001079+0000008740+0000000005+I20000000000+0000008740+Z
146470001146470903-000200     146470006009826020234SWT CHOC RP CHOCO 23G  0000008000+00000788+00000+0001T   00000788+0000001147          1400 LM5150               2AZ
146470002146470903-000194     146470006009826020616SWT CHOC RP LOLLY 25G  0000001000+00001314+00000+0001T   00001314+0000001147          1400 LM5150               2AZ
146470003146470112-116069     146470006009681820277TCS CARRIER BAG JUMBO  0000001000+00000048+00000+0001T   00000048+0000001147          1400 LM5090               2AZ
146471000146471               146471               170213OG     1400+00000+OG0000002629+0000002629+000000000+000000369+0000002998+0000000000+I40000002998+0000000000+Z
146471001146471077-000011-D   146471006001023808554TISSUE-WRAP WHITE 10PCE0000001000+00000876+00000+0001T   00000876+0000001156          1400 LM5112               2AZ
146471002146471077-000289     146471006001023901996GIFT BOX 20x25x11cm    0000001000+00001753+00000+0001T   00001753+0000001156          1400 LM5112               2AZ
146472000146472               146472               170213OG     1400+00000+OG0000004381+0000004381+000000000+000000614+0000004990+0000000005+I20000000000+0000004990+Z
146472001146472903-000211     146472006002099001238SWT GS MALLOW ICE CREAM0000001000+00001753+00000+0001T   00001753+0000001207          1400 LM5150               2AZ
146472002146472903-004950     146472006002580020304SWT APRICOT SURPRISE   0000002000+00001314+00000+0001T   00001314+0000001207          1400 LM5150               2AZ
146473000146473               146473               170213OG     1400+00000+OG0000003330+0000003330+000000000+000000467+0000003797+0000000000+I40000003797+0000000000+Z
146473001146473368-000040     146473006003000671786PLUSH ICONS 7.5cm      0000001000+00002630+00000+0001T   00002630+0000001210          1400 LM5745               2AZ
146473002146473018-000177     146473006001023797513MUG MINI LOVE ASSTD    0000001000+00000700+00000+0001T   00000700+0000001210          1400 LM5515               2AZ
146474000146474               146474               170213OG     1400+00000+OG0000000876+0000000876+000000000+000000123+0000000990+0000000009+I20000000000+0000000990+Z
146474001146474077-000151     146474006008766114676GIFT-WRAP C/PHANE ASSTD0000001000+00000876+00000+0001T   00000876+0000001210          1400 LM5112               2AZ
146475000146475               146475               170213OG     1400+00000+OG0000004383+0000004383+000000000+000000615+0000004998+0000000000+I40000004998+0000000000+Z
146475001146475077-000308     146475006001023595812GIFT-BAG 33X45CM E/DAY 0000001000+00001753+00000+0001T   00001753+0000001225          1400 LM5112               2AZ
146475002146475080-000134     146475006003000590988CARD & ENV GIANT BOY   0000001000+00002630+00000+0001T   00002630+0000001225          1400 LM5112               2AZ
146476000146476               146476               170213OG     1400+00000+OG0000005260+0000005260+000000000+000000737+0000005997+0000000000+I40000005997+0000000000+Z
146476001146476080-000113     146476006003000237449CARD&ENVLPE - LOVE     0000001000+00001753+00000+0001T   00001753+0000001227          1400 LM5112               2AZ
146476002146476004-071205     146476006003000073368USB 2.0 COMPUTER 4 HUB 0000001000+00003507+00000+0001T   00003507+0000001227          1400 LM5310               2AZ
146477000146477               146477               170213OG     1400+00000+OG0000003067+0000003067+000000000+000000430+0000003490+0000000007+I20000000000+0000003490+Z
146477001146477264-000921     146477000090159150442MAISTO CAR 3" FRESH    0000001000+00001753+00000+0001T   00001753+0000001233          1400 LM5710               2AZ
146477002146477263-000340     146477006003000652143VEHICLE JEEP 7.5cm     0000001000+00001314+00000+0001T   00001314+0000001233          1400 LM5710               2AZ
146478000146478               146478               170213OG     1400+00000+OG0000005307+0000005307+000000000+000000745+0000006052+0000000000+I40000006052+0000000000+Z
146478001146478077-000011-X   146478006001023809827TISSUE-WRAP SILVER 10PC0000001000+00001753+00000+0001T   00001753+0000001235          1400 LM5112               2AZ
146478002146478080-000113     146478006003000237449CARD&ENVLPE - LOVE     0000001000+00001753+00000+0001T   00001753+0000001235          1400 LM5112               2AZ
146478003146478077-000299-A   146478006003000670888GIFT-BAG PAPER JMB LOVE0000001000+00001753+00000+0001T   00001753+0000001235          1400 LM5112               2AZ
146478004146478112-116069     146478006009681820277TCS CARRIER BAG JUMBO  0000001000+00000048+00000+0001T   00000048+0000001235          1400 LM5090               2AZ
146479000146479               146479               170213OG     1400+00000+OG0000001314+0000001314+000000000+000000184+0000001490+0000000008+I20000000000+0000001490+Z
146479001146479077-000310     146479006001023608635GIFT-BAG 18X23CM GLOSS 0000001000+00001314+00000+0001T   00001314+0000001235          1400 LM5112               2AZ
146480000146480               146480               170213OG     1400+00000+OG0000001226+0000001226+000000000+000000172+0000001390+0000000008+I20000000000+0000001390+Z
146480001146480304-001011     146480006001023806727FLWR ROSE RED W/BEAR   0000002000+00000613+00000+0001T   00000788+0006471236          1400 LM5510               2AZ
146481000146481               146481               170213OG     1400+00000+OG0000002015+0000002015+000000000+000000283+0000002290+0000000008+I20000000000+0000002290+Z
146481001146481071-081101-A   146481006003000326549GLUE-STICK 25g BLISTER 0000001000+00000788+00000+0001T   00000788+0000001236          1400 LM5130               2AZ
146481002146481077-000245     146481006001023759214GIFT-RIBBON METALLICx2 0000001000+00001227+00000+0001T   00001227+0000001236          1400 LM5112               2AZ
146482000146482               146482               170213OG     1400+00000+OG0000005259+0000005259+000000000+000000738+0000005990+0000000007+I20000000000+0000005990+Z
146482001146482050-000363-Z   146482006001023475282PADLOCK IRON 32mm CARD 0000001000+00002192+00000+0001T   00002192+0000001244          1400 LM5855               2AZ
146482002146482565-000040     146482006008766115635NOVELTY ICON BEANIE    0000001000+00002630+00000+0001T   00002630+0000001244          1400 LM5745               2AZ
146482003146482080-000133-A   146482006003000647019MINI VALENTINES CARD   0000001000+00000437+00000+0001T   00000437+0000001244          1400 LM5112               2AZ
146483000146483               146483               170213OG     1400+00000+OG0000001578-0000001578-000000000+000000221-0000001800-0000000001+I20000000000+0000001800-Z
146483001146483018-000127     146483006001023380289MUG OCC STRAIGHT LOVE  0000001000-00001578+00000+0001T   00001753+0006471303          1400 LM55152IC            2 Z
146484000146484               146484               170213OG     1400+00000+OG0000001314+0000001314+000000000+000000184+0000001490+0000000008+I20000000000+0000001490+Z
146484001146484077-000312     146484006001023608697GIFT-BAG 10X35CM GLOSS 0000001000+00001314+00000+0001T   00001314+0000001305          1400 LM5112               2AZ
146485000146485               146485               170213OG     1400+00000+OG0000007485+0000007485+000000000+000001051+0000008536+0000000000+I40000008536+0000000000+Z
146485001146485006-000172-G   146485006003000610167BALLOONS METALLIC SILV 0000003000+00000218+00000+0001T   00000218+0000001421          1400 LM5131               2AZ
146485002146485006-000166-F   146485006003000516735BALLOONS LRG 6PC PURPLE0000001000+00001314+00000+0001T   00001314+0000001421          1400 LM5131               2AZ
146485003146485006-001000     146485006003000093779HELIUM BALLOON FILL    0000009000+00000613+00000+0001T   00000613+0000001421          1400 LM5131               2AZ
146486000146486               146486               170213OG     1400+00000+OG0000002192+0000002192+000000000+000000307+0000002490+0000000009+I20000000000+0000002490+Z
146486001146486039-000326     146486006001023775252B/CANDLES 25PC CAND+HOL0000001000+00002192+00000+0001T   00002192+0000001422          1400 LM5510               2AZ
146487000146487               146487               170213OG     1400+00000+OG0000007015+0000007015+000000000+000000983+0000007990+0000000008+I20000000000+0000007990+Z
146487001146487077-000270     146487006003000395453GIFT-BAG PPR JMB 33X45 0000001000+00002630+00000+0001T   00002630+0000001423          1400 LM5112               2AZ
146487002146487368-000049     146487006003000536955PLUSH BEAR 15cm LOVE   0000001000+00004385+00000+0001T   00004385+0000001423          1400 LM5745               2AZ
146488000146488               146488               170213OG     1400+00000+OG0000003507+0000003507+000000000+000000491+0000003990+0000000008+I20000000000+0000003990+Z
146488001146488031-000002-A   146488006003000247103P/FRAME LOVE 7.5X7.5CM 0000001000+00003507+00000+0001T   00003507+0000001430          1400 LM5510               2AZ
146489000146489               146489               170213OG     1400+00000+OG0000000437+0000000437+000000000+000000062+0000000490+0000000009+I20000000000+0000000490+Z
146489001146489083-000049     146489004891035200024CIG-LIGHTER DISPOSABLE 0000001000+00000437+00000+0001T   00000437+0000001431          1400 LM5315               2AZ
146490000146490               146490               170213OG     1400+00000+OG0000002104+0000002104+000000000+000000294+0000002390+0000000008+I20000000000+0000002390+Z
146490001146490006-000166-F   146490006003000516735BALLOONS LRG 6PC PURPLE0000001000-00001314+00000+0001T   00001314+0000001433          1400 LM51311IC            2 Z
146490002146490006-000166-F   146490006003000516735BALLOONS LRG 6PC PURPLE0000001000+00001314+00000+0001T   00001314+0000001433          1400 LM51311IC            2AZ
146490003146490006-000172-H   146490006003000610211BALLOONS METALLIC RED  0000002000-00000218+00000+0001T   00000218+0000001433          1400 LM51311IC            2 Z
146490004146490006-000166-F   146490006003000516735BALLOONS LRG 6PC PURPLE0000001000+00001314+00000+0001T   00001314+0000001433          1400 LM5131               2AZ
146490005146490006-001000     146490006003000093779HELIUM BALLOON FILL    0000002000+00000613+00000+0001T   00000613+0000001433          1400 LM5131               2AZ
146491000146491               146491               170213OG     1400+00000+OG0000012327+0000012327+000000000+000001727+0000014054+0000000000+I40000014054+0000000000+Z
146491001146491112-116069     146491006009681820277TCS CARRIER BAG JUMBO  0000001000+00000048+00000+0001T   00000048+0000001435          1400 LM5090               2AZ
146491002146491368-000111     146491006001023780812PLUSH BEAR/DOG 29CM    0000001000+00012279+00000+0001T   00012279+0000001435          1400 LM5745               2AZ
146492000146492               146492               170213OG     1400+00000+OG0000011401+0000011401+000000000+000001597+0000012998+0000000000+I40000012998+0000000000+Z
146492001146492007-000323     146492006009697791042PAPER A4 80GSM 100'S   0000001000+00006139+00000+0001T   00006139+0000001436          1400 LM5130               2AZ
146492002146492007-000322     146492006009685858634PAPER A4 80GSM 100'S   0000001000+00005262+00000+0001T   00005262+0000001436          1400 LM5130               2AZ
146493000146493               146493               170213OG     1400+00000+OG0000004385+0000004385+000000000+000000614+0000004990+0000000009+I20000000000+0000004990+Z
146493001146493368-000049     146493006003000536955PLUSH BEAR 15cm LOVE   0000001000+00004385+00000+0001T   00004385+0000001437          1400 LM5745               2AZ
146494000146494               146494               170213OG     1400+00000+OG0000004385+0000004385+000000000+000000614+0000004999+0000000000+I40000004999+0000000000+Z
146494001146494019-000070     146494006003000297474VASE GLS CLEAR BOTTLE  0000001000+00004385+00000+0001T   00004385+0000001441          1400 LM5510               2AZ
146495000146495               146495               170213OG     1400+00000+OG0000008755+0000008755+000000000+000001245+0000010000+0000000000+I20000000000+0000010000+Z
146495001146495112-116038     146495006009681820246TCS CARRIER BAG MIDI   0000001000+00000035+00000+0001T   00000035+0000001448          1400 LM5090               2AZ
146495002146495006-000170-K   146495006003000609284BALLOONS 1PC PURPLE    0000040000+00000218+00000+0001T   00000218+0000001448          1400 LM5131               2AZ
146496000146496               146496               170213OG     1400+00000+OG0000000876+0000000876+000000000+000000123+0000000990+0000000009+I20000000000+0000000990+Z
146496001146496071-001238     146496000060107212485ERASERS  3PCE    CARDED0000001000+00000876+00000+0001T   00000876+0000001448          1400 LM5130               2AZ
146497000146497               146497               170213OG     1400+00000+OG0000007016+0000007016+000000000+000000983+0000007990+0000000009+I20000000000+0000007990+Z
146497001146497368-000021     146497006003000672141PLUSH DINOSAUR 27cm    0000001000+00007016+00000+0001T   00007016+0000001449          1400 LM5745               2AZ
146498000146498               146498               170213OG     1400+00000+OG0000000437+0000000437+000000000+000000062+0000000490+0000000009+I20000000000+0000000490+Z
146498001146498071-000212     146498006009608641190CHALK WHITE 12PCE      0000001000+00000437+00000+0001T   00000437+0000001550          1400 LM5130               2AZ
146499000146499               146499               170213OG     1400+00000+OG0000019296+0000019296+000000000+000002702+0000021998+0000000000+I40000021998+0000000000+Z
146499001146499028-000026     146499006001023810847COOLER-BAG+POCKET NYLON0000002000+00009648+00000+0001T   00009648+0000001552          1400 LM5305               2AZ
146500000146500               146500               170213OG     1400+00000+OG0000011619+0000011619+000000000+000001629+0000013248+0000000000+I40000013248+0000000000+Z
146500001146500566-000367     146500006003000645558STICKER WINDOW DECOR   0000001000+00002630+00000+0001T   00002630+0000001556          1400 LM5130               2AZ
146500002146500077-000311     146500006001023608666GIFT-BAG 11X14CM GLOSS 0000001000+00000613+00000+0001T   00000613+0000001556          1400 LM5112               2AZ
146500003146500080-000113     146500006003000237449CARD&ENVLPE - LOVE     0000001000+00001753+00000+0001T   00001753+0000001556          1400 LM5112               2AZ
146500004146500566-000068     146500006003000418046POP UP LOVE 2 ASSTD    0000001000+00002192+00000+0001T   00002192+0000001556          1400 LM5130               2AZ
146500005146500903-000843     146500008693029031067SWT GUMMY JELAXY 80G   0000001000+00000964+00000+0001T   00000964+0000001556          1400 LM5150               2AZ
146500006146500018-000170     146500006001023775528MUG OCC. LOVE 2PC MINI 0000001000+00002192+00000+0001T   00002192+0000001556          1400 LM5515               2AZ
146500007146500112-116069     146500006009681820277TCS CARRIER BAG JUMBO  0000001000+00000048+00000+0001T   00000048+0000001556          1400 LM5090               2AZ
146500008146500903-000510     146500006001704012621SWEET MS ZBDZ S/BERRY  0000001000+00001227+00000+0001T   00001227+0000001556          1400 LM5150               2AZ
146501000146501               146501               170213OG     1400+00000+OG0000004433+0000004433+000000000+000000621+0000005050+0000000004+I20000000000+0000005050+Z
146501001146501368-000001     146501006003000097982Plush Bear 25cm        0000001000+00004385+00000+0001T   00004385+0000001607          1400 LM5745               2AZ
146501002146501112-116069     146501006009681820277TCS CARRIER BAG JUMBO  0000001000+00000048+00000+0001T   00000048+0000001607          1400 LM5090               2AZ
146502000146502               146502               170213OG     1400+00000+OG0000003109-0000003109-000000000+000000454-0000003570-0000000007+I20000000000+0000003570-Z
146502001146502006-000170-K   146502006003000609284BALLOONS 1PC PURPLE    0000040000-00000218+00000+0001T   00000218+0000001610          1400 LM51312IC            2 Z
146502002146502006-000190     146502006003000685530BALLOONS LOVE 81x91cm  0000001000+00004385+00000+0001T   00004385+0000001610          1400 LM5131               2 Z
146502003146502006-001000     146502006003000093779HELIUM BALLOON FILL    0000002000+00000613+00000+0001T   00000613+0000001610          1400 LM5131               2 Z
146503000146503               146503               170213OG     1400+00000+OG0000001753+0000001753+000000000+000000246+0000001990+0000000009+I20000000000+0000001990+Z
146503001146503078-000030     146503006003000151141YAMAYO SUPERGLUE 8g    0000001000+00001753+00000+0001T   00001753+0000001612          1400 LM5810               2AZ
146504000146504               146504               170213OG     1400+00000+OG0000018810+0000018810+000000000+000002636+0000021446+0000000000+I40000021446+0000000000+Z
146504001146504112-116069     146504006009681820277TCS CARRIER BAG JUMBO  0000001000+00000048+00000+0001T   00000048+0000001617          1400 LM5090               2AZ
146504002146504903-000848     146504008692806080076SWT SNACK BISCUIT 70g  0000001000+00000613+00000+0001T   00000613+0000001617          1400 LM5150               2AZ
146504003146504903-000849     146504008692806080083SWT SNACK BISCUIT 70g  0000001000+00000613+00000+0001T   00000613+0000001617          1400 LM5150               2AZ
146504004146504079-003009     146504006003000448722A/TUBE 75ML NATURAL    0000001000+00001753+00000+0001T   00001753+0000001617          1400 LM5130               2AZ
146504005146504567-011343     146504006003000630592BK COLOURING THERAPY   0000001000+00003507+00000+0001T   00003507+0000001617          1400 LM5757               2AZ
146504006146504079-000590     146504006003000543236SKETCH PAD & PAINT SET 0000001000+00007016+00000+0001T   00007016+0000001617          1400 LM5130               2AZ
146504007146504079-003000     146504006003000448838A/TUBE 75ML WHITE      0000001000+00001753+00000+0001T   00001753+0000001617          1400 LM5130               2AZ
146504008146504037-000002     146504006001023994745ASHTRAY SPIN METAL 9cm 0000001000+00003507+00000+0001T   00003507+0000001617          1400 LM5515               2AZ
146505000146505               146505               170213OG     1400+00000+OG0000013837+0000013837+000000000+000001943+0000015780+0000000000+I20000000000+0000015780+Z
146505001146505903-000183     146505006003000451043SWT LB HEART LOLLY     0000003000+00000393+00000+0001T   00000393+0000001620          1400 LM5150               2AZ
146505002146505080-000133-A   146505006003000647019MINI VALENTINES CARD   0000001000+00000437+00000+0001T   00000437+0000001620          1400 LM5112               2AZ
146505003146505903-000095     146505006001704011495SWT SPECKLED-EGGS 100G 0000001000+00002104+00000+0001T   00002104+0000001620          1400 LM5150               2AZ
146505004146505089-000097     146505006003000457007K/CHAIN SILVER 3.4cm   0000001000+00001314+00000+0001T   00001753+0008121620          1400 LM5205               2AZ
146505005146505089-000095     146505006003000457281K/CHAIN SILV 4.3cm     0000002000+00003069+00000+0001T   00003946+0008121620          1400 LM5205               2AZ
146505006146505567-075466     146505009780263918649BK NOVEL ROMANCE       0000001000+00002630+00000+0001T   00002630+0000001620          1400 LM5757               2AZ
146505007146505112-116038     146505006009681820246TCS CARRIER BAG MIDI   0000001000+00000035+00000+0001T   00000035+0000001620          1400 LM5090               2AZ
146506000146506               146506               170213OG     1400+00000+OG0000005295+0000005295+000000000+000000742+0000006037+0000000000+I40000006037+0000000000+Z
146506001146506362-002464     146506006003000167388HAIR EXT 30cm 6PCS COL 0000001000+00001753+00000+0001T   00001753+0000001629          1400 LM5160               2AZ
146506002146506362-002467     146506006003000167623HAIR EXT LONG 61cm     0000001000+00003507+00000+0001T   00003507+0000001629          1400 LM5160               2AZ
146506003146506112-116038     146506006009681820246TCS CARRIER BAG MIDI   0000001000+00000035+00000+0001T   00000035+0000001629          1400 LM5090               2AZ
146507000146507               146507               170213OG     1400+00000+OG0000008817+0000008817+000000000+000001235+0000010052+0000000000+I40000010052+0000000000+Z
146507001146507566-000321     146507006003000423019STICKER R/DEC BALLERINA0000001000+00005262+00000+0001T   00005262+0000001648          1400 LM5130               2AZ
146507002146507018-000136     146507006001023659026MUG OCC LOVE W/PLUSH   0000001000+00003507+00000+0001T   00003507+0000001648          1400 LM5515               2AZ
146507003146507112-116069     146507006009681820277TCS CARRIER BAG JUMBO  0000001000+00000048+00000+0001T   00000048+0000001648          1400 LM5090               2AZ
146508000146508               146508               170213OG     1400+00000+OG0000000613+0000000613+000000000+000000086+0000000690+0000000009+I20000000000+0000000690+Z
146508001146508903-000849     146508008692806080083SWT SNACK BISCUIT 70g  0000001000+00000613+00000+0001T   00000613+0000001649          1400 LM5150               2AZ
146509000146509               146509               170213OG     1400+00000+OG0000001578+0000001578+000000000+000000221+0000001790+0000000009+I20000000000+0000001790+Z
146509001146509018-000127     146509006001023380289MUG OCC STRAIGHT LOVE  0000001000+00001578+00000+0001T   00001753+0006471714          1400 LM5515               2AZ
146510000146510               146510               170213OG     1400+00000+OG0000003507+0000003507+000000000+000000491+0000003998+0000000000+I40000003998+0000000000+Z
146510001146510018-000136     146510006001023659026MUG OCC LOVE W/PLUSH   0000001000+00003507+00000+0001T   00003507+0000001731          1400 LM5515               2AZ
146511000146511               146511               170213OG     1400+00000+OG0000012148+0000012148+000000000+000001702+0000013850+0000000000+I40000013850+0000000000+Z
146511001146511368-000049     146511006003000536955PLUSH BEAR 15cm LOVE   0000001000+00004385+00000+0001T   00004385+0000001738          1400 LM5745               2AZ
146511002146511018-000130     146511006001023867537MUG OCC LOVE MINI+HEART0000001000+00003507+00000+0001T   00003507+0000001738          1400 LM5515               2AZ
146511003146511077-000303     146511006001023593757GIFT-BAG PAPER MED     0000001000+00001578+00000+0001T   00001578+0000001738          1400 LM5112               2AZ
146511004146511567-075466     146511009780263920598BK NOVEL ROMANCE       0000001000+00002630+00000+0001T   00002630+0000001738          1400 LM5757               2AZ
146511005146511112-116069     146511006009681820277TCS CARRIER BAG JUMBO  0000001000+00000048+00000+0001T   00000048+0000001738          1400 LM5090               2AZ
146512000146512               146512               170213OG     1400+00000+OG0000007397+0000007397+000000000+000001037+0000008434+0000000000+I40000008434+0000000000+Z
146512001146512204-000007     146512006003000427062M/HOLDER MAGN POLY LOVE0000001000+00002630+00000+0001T   00003507+0008131745          1400 LM5300               2AZ
146512002146512018-000170     146512006001023775528MUG OCC. LOVE 2PC MINI 0000001000+00002192+00000+0001T   00002192+0000001745          1400 LM5515               2AZ
146512003146512112-116038     146512006009681820246TCS CARRIER BAG MIDI   0000001000+00000035+00000+0001T   00000035+0000001745          1400 LM5090               2AZ
146512004146512077-000317     146512006001023609748GIFT-BAG 11X14CM E/D AN0000001000+00000613+00000+0001T   00000613+0000001745          1400 LM5112               2AZ
146512005146512077-000470     146512006003000330171G-BAG DESGN SML 11X14CM0000001000+00001314+00000+0001T   00001314+0000001745          1400 LM5112               2AZ
146512006146512077-000317     146512006001023609748GIFT-BAG 11X14CM E/D AN0000001000+00000613+00000+0001T   00000613+0000001745          1400 LM5112               2AZ
146513000146513               146513               170213OG     1400+00000+OG0000001139+0000001139+000000000+000000160+0000001290+0000000009+I20000000000+0000001290+Z
146513001146513002-000801     146513006003000555994PEELER PL/MTL Y-SHAPE  0000001000+00001139+00000+0001T   00001139+0000001748          1400 LM5300               2AZ
146514000146514               146514               170213OG     1400+00000+OG0000000613+0000000613+000000000+000000086+0000000690+0000000009+I20000000000+0000000690+Z
146514001146514565-000044     146514006003000128280BARREL OF SLIME 100g   0000001000+00000613+00000+0001T   00000613+0000001749          1400 LM5745               2AZ
146515000146515               146515               170213OG     1400+00000+OG0000003069+0000003069+000000000+000000430+0000003499+0000000000+I40000003499+0000000000+Z
146515001146515072-020314     146515006003000605453PET TOY PUP VINYL CHICK0000001000+00003069+00000+0001T   00003069+0000001752          1400 LM5870               2AZ
146516000146516               146516               170213OG     1400+00000+OG0000007363+0000007363+000000000+000001033+0000008390+0000000006+I20000000000+0000008390+Z
146516001146516106-001105     146516006001023711564WATER-BOTTLE 500ml     0000001000+00001753+00000+0001T   00001753+0000001753          1400 LM5210               2AZ
146516002146516002-000878     146516006001023770967STRAINER TEA WIRE 7cm  0000002000+00001490+00000+0001T   00001490+0000001753          1400 LM5300               2AZ
146516003146516016-002000     146516006003000674404S/BOTTLE GLS W/PL CAP  0000001000+00002630+00000+0001T   00002630+0000001753          1400 LM5300               2AZ
146517000146517               146517               170213OG     1400+00000+OG0000001753+0000001753+000000000+000000246+0000001990+0000000009+I20000000000+0000001990+Z
146517001146517301-085006     146517006001023502940ORN LOVE MSG TUBE W/HRT0000001000+00001753+00000+0001T   00001753+0000001753          1400 LM5505               2AZ
146518000146518               146518               170213OG     1400+00000+OG0000002805+0000002805+000000000+000000393+0000003190+0000000008+I20000000000+0000003190+Z
146518001146518018-000170     146518006001023775528MUG OCC. LOVE 2PC MINI 0000001000+00002192+00000+0001T   00002192+0000001754          1400 LM5515               2AZ
146518002146518077-000321     146518006001023677501GIFT-BAG 11X14CM E/D FL0000001000+00000613+00000+0001T   00000613+0000001754          1400 LM5112               2AZ
146519000146519               146519               170213OG     1400+00000+OG0000006610+0000006610+000000000+000000926+0000007530+0000000006+I20000000000+0000007530+Z
146519001146519077-000470     146519006003000330171G-BAG DESGN SML 11X14CM0000001000+00001314+00000+0001T   00001314+0000001758          1400 LM5112               2AZ
146519002146519039-000319-1   146519006003000442386B/CANDLES LRG NUMBER-1 0000001000+00000876+00000+0001T   00000876+0000001758          1400 LM5510               2AZ
146519003146519301-000163     146519006001023716262ORN SENTIMENT P/FRAME  0000001000+00004385+00000+0001T   00004385+0000001758          1400 LM5505               2AZ
146519004146519112-116038     146519006009681820246TCS CARRIER BAG MIDI   0000001000+00000035+00000+0001T   00000035+0000001758          1400 LM5090               2AZ
146520000146520               146520               170213OG     1400+00000+OG0000017958+0000017958+000000000+000002520+0000020470+0000000008+I20000000000+0000020470+Z
146520001146520112-116069     146520006009681820277TCS CARRIER BAG JUMBO  0000001000+00000048+00000+0001T   00000048+0000001804          1400 LM5090               2AZ
146520002146520304-001011     146520006001023806727FLWR ROSE RED W/BEAR   0000010000+00000613+00000+0001T   00000788+0006471804          1400 LM55101IC            2AZ
146520003146520077-000010-C   146520006001023123879CREPE-PAPER RED        0000001000+00000788+00000+0001T   00000788+0000001804          1400 LM5112               2AZ
146520004146520077-000011-D   146520006001023808554TISSUE-WRAP WHITE 10PCE0000002000+00000876+00000+0001T   00000876+0000001804          1400 LM5112               2AZ
146520005146520077-000010-C   146520006001023123879CREPE-PAPER RED        0000002000+00000788+00000+0001T   00000788+0000001804          1400 LM5112               2AZ
146520006146520071-005213     146520006001023690371CELLOTAPE 12mmx33m     0000001000+00000876+00000+0001T   00000876+0000001804          1400 LM5130               2AZ
146520007146520006-000166-H   146520006003000608096BALLOONS HELIUM 6PC WHT0000003000+00001314+00000+0001T   00001314+0000001804          1400 LM5131               2AZ
146520008146520006-000170-K   146520006003000609284BALLOONS 1PC PURPLE    0000001000+00000218+00000+0001T   00000218+0000001804          1400 LM5131               2AZ
146520009146520006-000166-C   146520006003000516377BALLOONS LRG 6PC PINK  0000002000+00001314+00000+0001T   00001314+0000001804          1400 LM5131               2AZ
146521000146521               146521               170213OG     1400+00000+OG0000000876+0000000876+000000000+000000123+0000000990+0000000009+I20000000000+0000000990+Z
146521001146521076-000017     146521006003000149049TWINE COTTON 50g-BALL  0000001000+00000876+00000+0001T   00000876+0000001805          1400 LM5810               2AZ
A17021300                                          11325407OGSLAVE 2                       LM51IC
A17021301                                          12450135OGSLAVE 2                       LM52IC
A17021302                                          14071508OGSLAVE 2                       LM52IC
B14652000                                          170213OG304-001011     18010234SLAVE 2     LM51IC0000110000+0000010000+0000000000000+
B14652001                                          170213OG077-000011-D   18011443SLAVE 2     LM51IC0000110000+0000002000+0000000000000+
B14652002                                          170213OG077-000010-C   18011943SLAVE 2     LM51IC0000110000+0000002000+0000000000000+
B14652003                                          170213OG006-000166-H   18012736SLAVE 2     LM51IC0000110000+0000002000+0000000000000+
B14652004                                          170213OG006-000166-H   18012903SLAVE 2     LM51IC0000110000+0000003000+0000000000000+
B14652005                                          170213OG006-000166-C   18031390SLAVE 2     LM51IC0000110000+0000002000+0000000000000+
M17021301                              IT          OGATT;IT                                          LAST SLIP ON SLAV E2                            WAS 146521                                      THNX OG
M17021391                              CASH        OGSLAVE 2                       Z-REPORT No.   602TOTAL (Sales - Refunds)           4445.75       CASH TO BE BANKED                 2377.90       DEBIT CARDS                          0.00       CREDIT CARDS                      2067.85       Z-READING                         4445.75       AIRTIME DEBIT CARD SALES             0.00       AIRTIME CARD SALES                   0.00       OVERS/UNDERS                         0.00       AIRTIME CASH SALES                   0.00       GIFT CARDS                           0.00       GIFT CARD CASH SALES                 0.00       T O T A L  CASH PAYOUTS              0.00                                                                                                                                                                                                                                                                                                                                                      Z
M17021392                              CASH        OGABSENT                                                                                                                                                                                          ANNUAL LEAVE                                                                                                                                                                                    DAY OFF                                                                                                                                                                                         COMMENTS                                                                                                                                                                                                                                                                                                                                                                                       Z
Y17021300                                          OG00000000411031+000073
ZOG17021320133 SLAVE 2      SALES DATA                     NEXT INVOICE NO.  146522 0602
X OG Slave 2 First invoice 146448 170213 Last invoice 146521 170213 Next invoice 146522 Total number of records 000000270 clbackup completed 20:13:29
