123588000123588               123588               170213OH     1400+00000+OH0000003506+0000003506+000000000+000000492+0000003998+0000000000+I40000003998+0000000000+Z
123588001123588006-000107     123588006003000587872BALLOONS ITS BOY/GIRL  0000001000+00001753+00000+0001T   00001753+0000000902          1400 DU3131               2AZ
123588002123588080-000119     123588006003000237432CARD & ENVELOPE-BABY   0000001000+00001753+00000+0001T   00001753+0000000902          1400 DU3112               2AZ
123589000123589               123589               170213OH     1400+00000+OH0000004385+0000004385+000000000+000000614+0000004999+0000000000+I40000004999+0000000000+Z
123589001123589036-000501     123589006003000417407HOOK HANGER CHROME     0000001000+00004385+00000+0001T   00004385+0000000916          1400 DU3212               2AZ
123590000123590               123590               170213OH     1400+00000+OH0000013200+0000013200+000000000+000001851+0000015050+0000000001+I20000000000+0000015050+Z
123590001123590567-075699     123590006003000641277BK NOVEL CATEGORY A    0000002000+00002630+00000+0001T   00003069+0008190919          1400 DU3757               2AZ
123590002123590567-075466     123590009780263907346BK NOVEL ROMANCE       0000001000+00002630+00000+0001T   00002630+0000000919          1400 DU3757               2AZ
123590003123590567-010161     123590009780000008516BOOK TOP ASSTD MILLS   0000001000+00005262+00000+0001T   00005262+0000000919          1400 DU3757               2AZ
123590004123590112-116069     123590006009681820277TCS CARRIER BAG JUMBO  0000001000+00000048+00000+0001T   00000048+0000000919          1400 DU3090               2AZ
123591000123591               123591               170213OH     1400+00000+OH0000007801+0000007801+000000000+000001094+0000008890+0000000005+I20000000000+0000008890+Z
123591001123591033-000008     123591006003000226818PILL REMINDER 28-COMPAR0000001000+00002630+00000+0001T   00002630+0000000923          1400 DU3200               2AZ
123591002123591306-000969     123591006003000559350FIRSTAID PLASTER 10PC  0000001000+00001490+00000+0001T   00001490+0000000923          1400 DU3200               2AZ
123591003123591306-000989     123591006003000559954FIRSTAID PLASTER 30PC  0000001000+00001753+00000+0001T   00001753+0000000923          1400 DU3200               2AZ
123591004123591174-008028     123591006009654960825TRAVEL JARS 4-PACK     0000001000+00001928+00000+0001T   00001928+0000000923          1400 DU3205               2AZ
123592000123592               123592               170213OH     1400+00000+OH0000002764+0000002764+000000000+000000388+0000003152+0000000000+I40000003152+0000000000+Z
123592001123592077-000311     123592006001023608666GIFT-BAG 11X14CM GLOSS 0000002000+00000613+00000+0001T   00000613+0000000926          1400 DU3112               2AZ
123592002123592077-000299     123592006003000395576G/BAG 32x25cm LRG LOVE 0000001000+00001490+00000+0001T   00001490+0000000926          1400 DU3112               2AZ
123592003123592112-116069     123592006009681820277TCS CARRIER BAG JUMBO  0000001000+00000048+00000+0001T   00000048+0000000926          1400 DU3090               2AZ
123593000123593               123593               170213OH     1400+00000+OH0000005259+0000005259+000000000+000000738+0000005990+0000000007+I20000000000+0000005990+Z
123593001123593030-000031-A   123593006003000457588PLAQUE W/WORDS ASSTD   0000001000+00004385+00000+0001T   00004823+0006470931          1400 DU3505               2AZ
123593002123593903-000012     123593006002099007308SWT MALLOW S/BERRY     0000002000+00000437+00000+0001T   00000437+0000000931          1400 DU3150               2AZ
123594000123594               123594               170213OH     1400+00000+OH0000002630+0000002630+000000000+000000369+0000002990+0000000009+I20000000000+0000002990+Z
123594001123594006-006018-B   123594006003000008278PARTY-SPRAY HAIR NEON  0000001000+00002630+00000+0001T   00002630+0000000943          1400 DU3131               2AZ
123595000123595               123595               170213OH     1400+00000+OH0000016966+0000016966+000000000+000002378+0000019344+0000000000+I40000019344+0000000000+Z
123595001123595088-000103     123595006008766127102INCENSE 20PCE ASSTD    0000001000+00000700+00000+0001T   00000700+0000000946          1400 DU3212               2AZ
123595002123595903-002890     123595008935001721352MENTOS GUM PURE F/MINT 0000001000+00001051+00000+0001T   00001051+0000000946          1400 DU3150               2AZ
123595003123595079-000510     123595006001023509079CRAYONS WAX 12-COLOUR  0000001000+00002455+00000+0001T   00002455+0000000946          1400 DU3130               2AZ
123595004123595566-000036     123595006003000384051STICKERS MOTIVATION    0000001000+00001753+00000+0001T   00001753+0000000946          1400 DU3130               2AZ
123595005123595567-014132     123595006003000560028BOOK COLOURING 24 PAGE 0000001000+00000876+00000+0001T   00000876+0000000946          1400 DU3757               2AZ
123595006123595084-009417     123595006001023783493SCISSORS 21+14cm 2PCE  0000001000+00003069+00000+0001T   00003069+0000000946          1400 DU3200               2AZ
123595007123595567-011354     123595006003000638161BK STICKER PRINCESS    0000001000+00003507+00000+0001T   00003507+0000000946          1400 DU3757               2AZ
123595008123595567-011437     123595009781847508683BK COLOURING GIRLS     0000001000+00003507+00000+0001T   00003507+0000000946          1400 DU3757               2AZ
123595009123595112-116069     123595006009681820277TCS CARRIER BAG JUMBO  0000001000+00000048+00000+0001T   00000048+0000000946          1400 DU3090               2AZ
123596000123596               123596               170213OH     1400+00000+OH0000000000+0000000000+000000000+000000000+0000000000+0000000000+I20000000000+0000000000+Z
123596001123596018-030000     123596006003000421060MUG OCCASIONS LOVE 2PCE0000001000+00004385+00000+0001T   00004385+0000001002          1400 DU3515               2 Z
123596002123596366-001101     123596006003000006991DRESS UP BOYS ASSTD    0000001000+00006139+00000+0001T   00006139+0000001002          1400 DU3131               2 Z
123596003123596077-000303     123596006001023593757GIFT-BAG PAPER MED     0000001000+00001578+00000+0001T   00001578+0000001002          1400 DU3112               2 Z
123596004123596007-000325     123596006009698066514PAPER A4 160GSM 25SHTS 0000001000+00003507+00000+0001T   00003507+0000001002          1400 DU3130               2 Z
123596005123596112-116069     123596006009681820277TCS CARRIER BAG JUMBO  0000001000+00000048+00000+0001T   00000048+0000001002          1400 DU3090               2 Z
123596006123596366-001101     123596006003000006991DRESS UP BOYS ASSTD    0000001000-00006139+00000+0001T   00006139+0000001002          1400 DU31312IC            2 Z
123596007123596007-000325     123596006009698066514PAPER A4 160GSM 25SHTS 0000001000-00003507+00000+0001T   00003507+0000001002          1400 DU31302IC            2 Z
123596008123596077-000303     123596006001023593757GIFT-BAG PAPER MED     0000001000-00001578+00000+0001T   00001578+0000001002          1400 DU31122IC            2 Z
123596009123596018-030000     123596006003000421060MUG OCCASIONS LOVE 2PCE0000001000-00004385+00000+0001T   00004385+0000001002          1400 DU35152IC            2 Z
123596010123596112-116069     123596006009681820277TCS CARRIER BAG JUMBO  0000001000-00000048+00000+0001T   00000048+0000001002          1400 DU30902IC            2 Z
123597000123597               123597               170213OH     1400+00000+OH0000016273+0000016273+000000000+000002280+0000018553+0000000000+I40000018553+0000000000+Z
123597001123597002-250030     123597006003000268641K/SCALE DIGITAL 5kg    0000001000+00015788+00000+0001T   00015788+0000001011          1400 DU3300               2AZ
123597002123597112-116069     123597006009681820277TCS CARRIER BAG JUMBO  0000001000+00000048+00000+0001T   00000048+0000001011          1400 DU3090               2AZ
123597003123597080-000133     123597006003000535613CARD&ENV MINI ASTD DSGN0000001000+00000437+00000+0001T   00000437+0000001011          1400 DU3112               2AZ
123598000123598               123598               170213OH     1400+00000+OH0000005307+0000005307+000000000+000000745+0000006052+0000000000+I40000006052+0000000000+Z
123598001123598031-005815     123598009320760100019P/FRAME-CLIP 10x15cm   0000001000+00001227+00000+0001T   00001227+0000001018          1400 DU3510               2AZ
123598002123598105-000750     123598006003000190270CONTAINERS 4xMINI 150ml0000001000+00001402+00000+0001T   00001402+0000001018          1400 DU3210               2AZ
123598003123598031-005821     123598006001023667786P/FRAME-GLS CLIP 21X30 0000001000+00002630+00000+0001T   00002630+0000001018          1400 DU3510               2AZ
123598004123598112-116069     123598006009681820277TCS CARRIER BAG JUMBO  0000001000+00000048+00000+0001T   00000048+0000001018          1400 DU3090               2AZ
123599000123599               123599               170213OH     1400+00000+OH0000003506+0000003506+000000000+000000492+0000003990+0000000008+I20000000000+0000003990+Z
123599001123599004-071308     123599006001023640833HOLDER DISC ASSTC-C PK50000002000+00001753+00000+0001T   00002630+0008191019          1400 DU3310               2AZ
123600000123600               123600               170213OH     1400+00000+OH0000003505+0000003505+000000000+000000492+0000003997+0000000000+I40000003997+0000000000+Z
123600001123600077-000327     123600006001023677686GIFT-BAG 25X32CM E/D BA0000001000+00001490+00000+0001T   00001490+0000001022          1400 DU3112               2AZ
123600002123600007-000206     123600006009635830215X/PAD 80-SHEETS PUNCHED0000001000+00001227+00000+0001T   00001227+0000001022          1400 DU3130               2AZ
123600003123600071-081101-A   123600006003000326549GLUE-STICK 25g BLISTER 0000001000+00000788+00000+0001T   00000788+0000001022          1400 DU3130               2AZ
123601000123601               123601               170213OH     1400+00000+OH0000002278+0000002278+000000000+000000320+0000002590+0000000008+I20000000000+0000002590+Z
123601001123601007-010192     123601006009635830536BOOK H/COVER A5 192PAGE0000002000+00001139+00000+0001T   00001139+0000001023          1400 DU3130               2AZ
123602000123602               123602               170213OH     1400+00000+OH0000003506+0000003506+000000000+000000492+0000003998+0000000000+I40000003998+0000000000+Z
123602001123602004-071308     123602006001023640833HOLDER DISC ASSTC-C PK50000002000+00001753+00000+0001T   00002630+0008191026          1400 DU3310               2AZ
123603000123603               123603               170213OH     1400+00000+OH0000001751+0000001751+000000000+000000246+0000001990+0000000007+I20000000000+0000001990+Z
123603001123603903-002850     123603000000087108262MENTOS ROLL FRUIT      0000001000+00001051+00000+0001T   00001051+0000001033          1400 DU3150               2AZ
123603002123603033-010721     123603006001023678669SAFETY-PINS 20PCE ASSTD0000001000+00000700+00000+0001T   00000700+0000001033          1400 DU3200               2AZ
123604000123604               123604               170213OH     1400+00000+OH0000012274+0000012274+000000000+000001719+0000013990+0000000003+I20000000000+0000013990+Z
123604001123604077-000452     123604006003000284986G/BAG METALLIC MED EMB 0000001000+00001490+00000+0001T   00001490+0000001041          1400 DU3112               2AZ
123604002123604018-000170     123604006001023775528MUG OCC. LOVE 2PC MINI 0000001000+00002192+00000+0001T   00002192+0000001041          1400 DU3515               2AZ
123604003123604018-005009     123604006001023725608MUG W/PLUSH-BEAR LOVE  0000002000+00003507+00000+0001T   00003507+0000001041          1400 DU3515               2AZ
123604004123604077-000315     123604006003000181186GIFT-BAG 20x28cm MATT  0000001000+00001578+00000+0001T   00001578+0000001041          1400 DU3112               2AZ
123605000123605               123605               170213OH     1400+00000+OH0000003507+0000003507+000000000+000000491+0000003990+0000000008+I20000000000+0000003990+Z
123605001123605007-000324     12360500600968585864125 SHEETS BRIGHTS MARLI0000001000+00003507+00000+0001T   00003507+0000001042          1400 DU3130               2AZ
123606000123606               123606               170213OH     1400+00000+OH0000007893+0000007893+000000000+000001106+0000008990+0000000009+I20000000000+0000008990+Z
123606001123606082-000125     123606006003000646395READING GLASS TWIN 2   0000001000+00007893+00000+0001T   00007893+0000001055          1400 DU3160               2AZ
123607000123607               123607               170213OH     1400+00000+OH0000001490+0000001490+000000000+000000209+0000001690+0000000009+I20000000000+0000001690+Z
123607001123607031-000878-B   123607006001023799012P/FRAME 13x18cm PL-SLID0000001000+00001490+00000+0001T   00001490+0000001105          1400 DU3510               2AZ
123608000123608               123608               170213OH     1400+00000+OH0000012271+0000012271+000000000+000001722+0000013993+0000000000+I40000013993+0000000000+Z
123608001123608007-000029     123608006003000577736PRICE FLASH 17x11cm    0000007000+00001753+00000+0001T   00001753+0000001126          1400 DU3130               2AZ
123609000123609               123609               170213OH     1400+00000+OH0000030333+0000030333+000000000+000004249+0000034582+0000000000+I40000034582+0000000000+Z
123609001123609018-019000     123609006003000557288MUG OCC. LOVE JUMBO    0000001000+00005262+00000+0001T   00005262+0000001146          1400 DU3515               2AZ
123609002123609001-091415     123609006003000329113W/GLS OCC. LOVE 2PC 2800000001000+00008771+00000+0001T   00009648+0006471146          1400 DU3515               2AZ
123609003123609903-000844     123609005010478432567SWT CANDY DL LUV HEARTS0000005000+00001314+00000+0001T   00001314+0000001146          1400 DU3150               2AZ
123609004123609080-000127     123609006003000424351VALENTINES DAY 36x24CM 0000001000+00002192+00000+0001T   00002192+0000001146          1400 DU3112               2AZ
123609005123609567-011445     123609009781847509772BK COLOURING DINOSAUR  0000001000+00003507+00000+0001T   00003507+0000001146          1400 DU3757               2AZ
123609006123609077-000299-A   123609006003000670888GIFT-BAG PAPER JMB LOVE0000001000+00001753+00000+0001T   00001753+0000001146          1400 DU3112               2AZ
123609007123609565-000071     123609006003000643387NOVELTY WIND UP CHATTER0000002000+00001139+00000+0001T   00001139+0000001146          1400 DU3745               2AZ
123610000123610               123610               170213OH     1400+00000+OH0000001752+0000001752+000000000+000000246+0000001990+0000000008+I20000000000+0000001990+Z
123610001123610077-000314     123610006003000181148GIFT-BAG 11X14CM MATT  0000002000+00000876+00000+0001T   00000876+0000001203          1400 DU3112               2AZ
123611000123611               123611               170213OH     1400+00000+OH0000001836+0000001836+000000000+000000258+0000002090+0000000004+I20000000000+0000002090+Z
123611001123611079-009700-D   123611006003000545711PAPER SIRIO A4 RED COL.0000006000+00000306+00000+0001T   00000306+0000001220          1400 DU3130               2AZ
123612000123612               123612               170213OH     1400+00000+OH0000021096+0000021096+000000000+000002956+0000024052+0000000000+I40000024052+0000000000+Z
123612001123612019-000110     123612006003000329069PLANTER CERAMIC 3PC    0000003000+00007016+00000+0001T   00007016+0000001223          1400 DU3510               2AZ
123612002123612112-116069     123612006009681820277TCS CARRIER BAG JUMBO  0000001000+00000048+00000+0001T   00000048+0000001223          1400 DU3090               2AZ
123613000123613               123613               170213OH     1400+00000+OH0000003069+0000003069+000000000+000000430+0000003490+0000000009+I20000000000+0000003490+Z
123613001123613301-085008     123613006003000673933ORN OCC.LOVE TINSEL HRT0000001000+00003069+00000+0001T   00003069+0000001234          1400 DU3505               2AZ
123614000123614               123614               170213OH     1400+00000+OH0000014248+0000014248+000000000+000001998+0000016246+0000000000+I40000016246+0000000000+Z
123614001123614079-013098     123614006003000197040ART+CRAFT SET DIY      0000002000+00003069+00000+0001T   00003069+0000001258          1400 DU3130               2AZ
123614002123614903-000111     123614006001704006378SWT LIQUORICE-TWISTS   0000001000+00001227+00000+0001T   00001227+0000001258          1400 DU3150               2AZ
123614003123614565-000071     123614006003000643387NOVELTY WIND UP CHATTER0000001000+00001139+00000+0001T   00001139+0000001258          1400 DU3745               2AZ
123614004123614200-000200     123614006008766091144BAKING ALUM FOIL 2PCE  0000001000+00002192+00000+0001T   00002192+0000001258          1400 DU3214               2AZ
123614005123614112-116069     123614006009681820277TCS CARRIER BAG JUMBO  0000001000+00000048+00000+0001T   00000048+0000001258          1400 DU3090               2AZ
123614006123614903-000520     123614006001704009898SWT GUMMY MINI SOUR 60g0000004000+00000876+00000+0001T   00000876+0000001258          1400 DU3150               2AZ
123615000123615               123615               170213OH     1400+00000+OH0000008770+0000008770+000000000+000001228+0000009998+0000000000+I40000009998+0000000000+Z
123615001123615018-030000     123615006003000421060MUG OCCASIONS LOVE 2PCE0000002000+00004385+00000+0001T   00004385+0000001259          1400 DU3515               2AZ
123616000123616               123616               170213OH     1400+00000+OH0000003417+0000003417+000000000+000000480+0000003890+0000000007+I20000000000+0000003890+Z
123616001123616022-002106     123616006003000142712MUG EN 6cm ASSTD COLORS0000003000+00001139+00000+0001T   00001139+0000001301          1400 DU3305               2AZ
123617000123617               123617               170213OH     1400+00000+OH0000015567+0000015567+000000000+000002182+0000017749+0000000000+I40000017749+0000000000+Z
123617001123617030-004025     123617006003000416912WALL DEC KEY-RACK      0000001000+00006139+00000+0001T   00006139+0000001303          1400 DU3505               2AZ
123617002123617206-000630     123617006003000631919SPECTACLE CLEANING BRUS0000001000+00001227+00000+0001T   00001227+0000001303          1400 DU3321               2AZ
123617003123617024-000093-B   123617006003000430819MEASURING-SPOONS ASSTD 0000001000+00002630+00000+0001T   00002630+0000001303          1400 DU3300               2AZ
123617004123617079-000269     123617006003000159963PAINT-BRUSHES SPONGETIP0000001000+00003507+00000+0001T   00003507+0000001303          1400 DU3130               2AZ
123617005123617112-116069     123617006009681820277TCS CARRIER BAG JUMBO  0000001000+00000048+00000+0001T   00000048+0000001303          1400 DU3090               2AZ
123617006123617565-000070     123617006003000643691NOVELTY CREATURES 5cm  0000001000+00002016+00000+0001T   00002016+0000001303          1400 DU3745               2AZ
123618000123618               123618               170213OH     1400+00000+OH0000002630+0000002630+000000000+000000369+0000002990+0000000009+I20000000000+0000002990+Z
123618001123618562-000010     123618006001023762528KID'S PLAY DOUGH       0000001000+00002630+00000+0001T   00002630+0000001304          1400 DU3755               2AZ
123619000123619               123619               170213OH     1400+00000+OH0000015831+0000015831+000000000+000002218+0000018049+0000000000+I40000018049+0000000000+Z
123619001123619002-000880     123619006001023769497CAN-OPENER WHITE       0000001000+00007016+00000+0001T   00007016+0000001313          1400 DU3300               2AZ
123619002123619028-085275     123619006003000092611BBQ LIGHTER FLEXIBLE   0000001000+00003507+00000+0001T   00003507+0000001313          1400 DU3305               2AZ
123619003123619084-000889     123619006003000293674NAIL FILE EMERY 18CM   0000001000+00001753+00000+0001T   00001753+0000001313          1400 DU3200               2AZ
123619004123619104-000095     123619006003000614714BASKET PL 23x15x12cm   0000001000+00003507+00000+0001T   00003507+0000001313          1400 DU3210               2AZ
123619005123619112-116069     123619006009681820277TCS CARRIER BAG JUMBO  0000001000+00000048+00000+0001T   00000048+0000001313          1400 DU3090               2AZ
123620000123620               123620               170213OH     1400+00000+OH0000003506+0000003506+000000000+000000492+0000003998+0000000000+I40000003998+0000000000+Z
123620001123620077-000239     123620006003000160419GIFT-RIBBON ROLL PEARL 0000001000+00001753+00000+0001T   00001753+0000001315          1400 DU3112               2AZ
123620002123620080-000116     123620006003000253555CARD&ENVELOPE-HANDMADE 0000001000+00001753+00000+0001T   00001753+0000001315          1400 DU3112               2AZ
123621000123621               123621               170213OH     1400+00000+OH0000002630+0000002630+000000000+000000369+0000002990+0000000009+I20000000000+0000002990+Z
123621001123621159-000020     123621006001023905543HAIR DRYING MICROFIBRE 0000001000+00002630+00000+0001T   00002630+0000001316          1400 DU3200               2AZ
123622000123622               123622               170213OH     1400+00000+OH0000000035+0000000035+000000000+000000005+0000000040+0000000000+I20000000000+0000000040+Z
123622001123622112-116038     123622006009681820246TCS CARRIER BAG MIDI   0000001000+00000035+00000+0001T   00000035+0000001318          1400 DU3090               2AZ
123623000123623               123623               170213OH     1400+00000+OH0000006139+0000006139+000000000+000000860+0000006999+0000000000+I40000006999+0000000000+Z
123623001123623567-075470     123623009780007795352BK NOVEL CATEGORY B    0000001000+00006139+00000+0001T   00006139+0000001320          1400 DU3757               2AZ
123624000123624               123624               170213OH     1400+00000+OH0000005295+0000005295+000000000+000000743+0000006038+0000000000+I40000006038+0000000000+Z
123624001123624079-000260     123624006001023886385PAINT TUBS WT BASE 4COL0000001000+00002630+00000+0001T   00002630+0000001323          1400 DU3130               2AZ
123624002123624079-013101     123624006001023863706CRAFT SET DIY PIPE-CLNR0000001000+00002630+00000+0001T   00002630+0000001323          1400 DU3130               2AZ
123624003123624112-116038     123624006009681820246TCS CARRIER BAG MIDI   0000001000+00000035+00000+0001T   00000035+0000001323          1400 DU3090               2AZ
123625000123625               123625               170213OH     1400+00000+OH0000002804+0000002804+000000000+000000394+0000003190+0000000008+I20000000000+0000003190+Z
123625001123625071-003012     123625006001023802996PEN CLICK 10PK BLUE    0000001000+00001753+00000+0001T   00001753+0000001324          1400 DU3130               2AZ
123625002123625079-009702-A   123625008427973059408PAPER SIRIO A2 BLACK   0000001000+00001051+00000+0001T   00001051+0000001324          1400 DU3130               2AZ
123626000123626               123626               170213OH     1400+00000+OH0000014030+0000014030+000000000+000001966+0000015990+0000000006+I20000000000+0000015990+Z
123626001123626050-000887-Z   123626006001023821966PADLOCK COMB 10-DIGIT  0000001000+00004385+00000+0001T   00004385+0000001327          1400 DU3855               2AZ
123626002123626050-000880-Z   123626006003000528110PADLOCK COMBO BRS 4 WHL0000001000+00004385+00000+0001T   00004385+0000001327          1400 DU3855               2AZ
123626003123626050-000889-TS  123626006003000687664PADLOCK COMBO RESETTABL0000002000+00002630+00000+0001T   00002630+0000001327          1400 DU3855               2AZ
123627000123627               123627               170213OH     1400+00000+OH0000013157+0000013157+000000000+000001842+0000014999+0000000000+I40000014999+0000000000+Z
123627001123627031-000009     123627006003000306381P/FRAME COLLAGE HEARTS 0000001000+00013157+00000+0001T   00013157+0000001330          1400 DU3510               2AZ
123628000123628               123628               170213OH     1400+00000+OH0000001753+0000001753+000000000+000000246+0000001990+0000000009+I20000000000+0000001990+Z
123628001123628077-000299-A   123628006003000670888GIFT-BAG PAPER JMB LOVE0000001000+00001753+00000+0001T   00001753+0000001330          1400 DU3112               2AZ
123629000123629               123629               170213OH     1400+00000+OH0000001753+0000001753+000000000+000000246+0000001990+0000000009+I20000000000+0000001990+Z
123629001123629080-000115     123629006003000237333CARD&ENVELOPE - BLANKS 0000001000+00001753+00000+0001T   00001753+0000001349          1400 DU3112               2AZ
123630000123630               123630               170213OH     1400+00000+OH0000003243+0000003243+000000000+000000455+0000003698+0000000000+I40000003698+0000000000+Z
123630001123630493-059010     123630000078257590100BEACH-BALL COLOR-PANELS0000001000+00001490+00000+0001T   00001490+0000001358          1400 DU3787               2AZ
123630002123630077-000299-A   123630006003000670888GIFT-BAG PAPER JMB LOVE0000001000+00001753+00000+0001T   00001753+0000001358          1400 DU3112               2AZ
123631000123631               123631               170213OH     1400+00000+OH0000003506+0000003506+000000000+000000492+0000003990+0000000008+I20000000000+0000003990+Z
123631001123631007-000192     123631006009635830062BOOK H/COVER A4 192PAGE0000002000+00001753+00000+0001T   00001753+0000001429          1400 DU3130               2AZ
123632000123632               123632               170213OH     1400+00000+OH0000002630+0000002630+000000000+000000369+0000002999+0000000000+I40000002999+0000000000+Z
123632001123632369-000225     123632006001023857132BABY EDU BATHTIME 5PC  0000001000+00002630+00000+0001T   00002630+0000001430          1400 DU3745               2AZ
123633000123633               123633               170213OH     1400+00000+OH0000001752+0000001752+000000000+000000246+0000001990+0000000008+I20000000000+0000001990+Z
123633001123633039-000319-6   123633006003000442980B/CANDLES LRG NUMBER-6 0000001000+00000876+00000+0001T   00000876+0000001510          1400 K15510               2AZ
123633002123633039-000319-0   123633006003000441273B/CANDLES LRG NUMBER-0 0000001000+00000876+00000+0001T   00000876+0000001510          1400 K15510               2AZ
123634000123634               123634               170213OH     1400+00000+OH0000012979+0000012979+000000000+000001818+0000014790+0000000007+I20000000000+0000014790+Z
123634001123634368-000111     123634006001023780812PLUSH BEAR/DOG 29CM    0000001000+00012279+00000+0001T   00012279+0000001511          1400 K15745               2AZ
123634002123634018-000177     123634006001023797513MUG MINI LOVE ASSTD    0000001000+00000700+00000+0001T   00000700+0000001511          1400 K15515               2AZ
123635000123635               123635               170213OH     1400+00000+OH0000016397+0000016397+000000000+000002297+0000018694+0000000000+I40000018694+0000000000+Z
123635001123635077-000299     123635006003000395576G/BAG 32x25cm LRG LOVE 0000001000+00001490+00000+0001T   00001490+0000001528          1400 DU3112               2AZ
123635002123635001-091415     123635006003000329113W/GLS OCC. LOVE 2PC 2800000001000+00008771+00000+0001T   00009648+0006471528          1400 DU3515               2AZ
123635003123635080-000127     123635006003000424351VALENTINES DAY 36x24CM 0000001000+00002192+00000+0001T   00002192+0000001528          1400 DU3112               2AZ
123635004123635903-000844     123635005010478432567SWT CANDY DL LUV HEARTS0000001000+00001314+00000+0001T   00001314+0000001528          1400 DU3150               2AZ
123635005123635903-000591     123635006003000563616SWEET ANIMAL 24cm      0000001000+00002630+00000+0001T   00002630+0000001528          1400 DU3150               2AZ
123636000123636               123636               170213OH     1400+00000+OH0000003506+0000003506+000000000+000000492+0000003990+0000000008+I20000000000+0000003990+Z
123636001123636903-000081     123636006001704014076SWT F/PASTILLES 100G   0000002000+00001753+00000+0001T   00001753+0000001528          1400 DU3150               2AZ
123637000123637               123637               170213OH     1400+00000+OH0000003590+0000003590+000000000+000000503+0000004093+0000000000+I40000004093+0000000000+Z
123637001123637018-000177     123637006001023797513MUG MINI LOVE ASSTD    0000002000+00000700+00000+0001T   00000700+0000001538          1400 DU3515               2AZ
123637002123637077-000407     123637006003000145096G/BAG PP 19X26X8CM     0000001000+00001314+00000+0001T   00001314+0000001538          1400 DU3112               2AZ
123637003123637077-000408     123637006003000145218G/BAG PP 15X21X7CM     0000001000+00000876+00000+0001T   00000876+0000001538          1400 DU3112               2AZ
123638000123638               123638               170213OH     1400+00000+OH0000002630+0000002630+000000000+000000369+0000002990+0000000009+I20000000000+0000002990+Z
123638001123638079-013032-D   123638006003000389643RIBBONS                0000001000+00002630+00000+0001T   00002630+0000001539          1400 DU3130               2AZ
123639000123639               123639               170213OH     1400+00000+OH0000009251+0000009251+000000000+000001297+0000010540+0000000008+I20000000000+0000010540+Z
123639001123639024-091100     123639006001023914224BAKING-CUPS PAPER 100PC0000001000+00001753+00000+0001T   00001753+0000001546          1400 DU3300               2AZ
123639002123639077-000314     123639006003000181148GIFT-BAG 11X14CM MATT  0000001000+00000876+00000+0001T   00000876+0000001546          1400 DU3112               2AZ
123639003123639566-000451     123639006001023788443STICKERS GLITTER ASSTD 0000001000+00001314+00000+0001T   00001753+0008151546          1400 DU3130               2AZ
123639004123639007-000324     12363900600968585864125 SHEETS BRIGHTS MARLI0000001000+00003507+00000+0001T   00003507+0000001546          1400 DU3130               2AZ
123639005123639006-000093     123639006003000539932PARTY BANNER FLAGS ASST0000001000+00001753+00000+0001T   00001753+0000001546          1400 DU3131               2AZ
123639006123639112-116069     123639006009681820277TCS CARRIER BAG JUMBO  0000001000+00000048+00000+0001T   00000048+0000001546          1400 DU3090               2AZ
123640000123640               123640               170213OH     1400+00000+OH0000000437+0000000437+000000000+000000062+0000000490+0000000009+I20000000000+0000000490+Z
123640001123640083-000049     123640004891035200024CIG-LIGHTER DISPOSABLE 0000001000+00000437+00000+0001T   00000437+0000001547          1400 DU3315               2AZ
123641000123641               123641               170213OH     1400+00000+OH0000005695+0000005695+000000000+000000800+0000006495+0000000000+I40000006495+0000000000+Z
123641001123641077-000314     123641006003000181148GIFT-BAG 11X14CM MATT  0000002000+00000876+00000+0001T   00000876+0000001558          1400 K15112               2AZ
123641002123641566-000865     123641006001023788412STICKER ASSTD          0000001000+00001753+00000+0001T   00001753+0000001558          1400 K15130               2AZ
123641003123641079-009700-I   123641006003000546114PAPER SIRIO A4 LILAC   0000001000+00000306+00000+0001T   00000306+0000001558          1400 K15130               2AZ
123641004123641079-009700-D   123641006003000545711PAPER SIRIO A4 RED COL.0000001000+00000306+00000+0001T   00000306+0000001558          1400 K151302IC            2AZ
123641005123641079-009700-I   123641006003000546114PAPER SIRIO A4 LILAC   0000003000+00000306+00000+0001T   00000306+0000001558          1400 K15130               2AZ
123641006123641079-009700-D   123641006003000545711PAPER SIRIO A4 RED COL.0000002000+00000306+00000+0001T   00000306+0000001558          1400 K15130               2AZ
123641007123641112-116069     123641006009681820277TCS CARRIER BAG JUMBO  0000001000+00000048+00000+0001T   00000048+0000001558          1400 K15090               2AZ
123642000123642               123642               170213OH     1400+00000+OH0000003507+0000003507+000000000+000000491+0000003990+0000000008+I20000000000+0000003990+Z
123642001123642077-000932     123642006003000409808G/WRAP 700mmx5m PATTERN0000001000+00003507+00000+0001T   00003507+0000001604          1400 DU3112               2AZ
123643000123643               123643               170213OH     1400+00000+OH0000001753+0000001753+000000000+000000246+0000001990+0000000009+I20000000000+0000001990+Z
123643001123643080-000113     123643006003000237449CARD&ENVLPE - LOVE     0000001000+00001753+00000+0001T   00001753+0000001605          1400 DU3112               2AZ
123644000123644               123644               170213OH     1400+00000+OH0000009644+0000009644+000000000+000001351+0000010990+0000000005+I20000000000+0000010990+Z
123644001123644072-020312     123644006003000605330PET TOY PUP STARTER PCK0000001000+00002630+00000+0001T   00002630+0000001616          1400 DU3870               2AZ
123644002123644004-071206     123644006003000605156USB CABLE CHARGER      0000001000+00003507+00000+0001T   00003507+0000001616          1400 DU3310               2AZ
123644003123644162-092944     123644006001492929446SS 3PK KIDS H/BANDS    0000001000+00003507+00000+0001T   00003507+0000001616          1400 DU3160               2AZ
123645000123645               123645               170213OH     1400+00000+OH0000000700+0000000700+000000000+000000098+0000000790+0000000008+I20000000000+0000000790+Z
123645001123645018-000177     123645006001023797513MUG MINI LOVE ASSTD    0000001000+00000700+00000+0001T   00000700+0000001640          1400 K15515               2AZ
123646000123646               123646               170213OH     1400+00000+OH0000004907+0000004907+000000000+000000687+0000005590+0000000004+I20000000000+0000005590+Z
123646001123646018-000177     123646006001023797513MUG MINI LOVE ASSTD    0000002000+00000700+00000+0001T   00000700+0000001641          1400 K15515               2AZ
123646002123646028-000031     123646006003000270897COOLER-BAG THERMAL 6PK 0000001000+00003507+00000+0001T   00003507+0000001641          1400 K15305               2AZ
123647000123647               123647               170213OH     1400+00000+OH0000001753+0000001753+000000000+000000246+0000001990+0000000009+I20000000000+0000001990+Z
123647001123647080-000113     123647006003000237449CARD&ENVLPE - LOVE     0000001000+00001753+00000+0001T   00001753+0000001708          1400 K15112               2AZ
123648000123648               123648               170213OH     1400+00000+OH0000024579+0000024579+000000000+000003443+0000028022+0000000000+I40000028022+0000000000+Z
123648001123648366-006110     123648006003000636075DRESS UP HAIR CHALK 6  0000001000+00004385+00000+0001T   00004385+0000001710          1400 K15131               2AZ
123648002123648564-000012     123648006001023130075BUBBLE BOTTLE MAGIC    0000003000+00000700+00000+0001T   00000700+0000001710          1400 K15131               2AZ
123648003123648566-000024     123648006001023995131S/BOOK H/MADE STICKER  0000002000+00000876+00000+0001T   00001314+0008151710          1400 K15130               2AZ
123648004123648566-000200     123648006003000384174STICKER PUFFY NEON     0000002000+00000876+00000+0001T   00000876+0000001710          1400 K15130               2AZ
123648005123648566-002000     123648000721129013206STICKERS CRYSTAL ASSTD 0000002000+00000700+00000+0001T   00000700+0000001710          1400 K15130               2AZ
123648006123648079-013097     123648006003000081639ART+CRAFT FELT ANIMALS 0000001000+00003507+00000+0001T   00003507+0000001710          1400 K15130               2AZ
123648007123648112-116038     123648006009681820246TCS CARRIER BAG MIDI   0000001000+00000035+00000+0001T   00000035+0000001710          1400 K15090               2AZ
123648008123648030-004015     123648006003000467624PLAQUE WDN SIGN 30X20CM0000001000+00009648+00000+0001T   00009648+0000001710          1400 K15505               2AZ
123649000123649               123649               170213OH     1400+00000+OH0000002630+0000002630+000000000+000000369+0000002999+0000000000+I40000002999+0000000000+Z
123649001123649565-000081     123649006003000643493NOVELTY MUSICAL TUBE   0000001000+00002630+00000+0001T   00002630+0000001728          1400 DU3745               2AZ
123650000123650               123650               170213OH     1400+00000+OH0000016661+0000016661+000000000+000002335+0000018996+0000000000+I40000018996+0000000000+Z
123650001123650368-000111     123650006001023780812PLUSH BEAR/DOG 29CM    0000001000+00012279+00000+0001T   00012279+0000001732          1400 DU3745               2AZ
123650002123650077-000270     123650006003000395453GIFT-BAG PPR JMB 33X45 0000001000+00002630+00000+0001T   00002630+0000001732          1400 DU3112               2AZ
123650003123650903-000220     123650006001704007368SWT JELLY BEANS 60G    0000002000+00000876+00000+0001T   00000876+0000001732          1400 DU3150               2AZ
123651000123651               123651               170213OH     1400+00000+OH0000010395+0000010395+000000000+000001456+0000011850+0000000001+I20000000000+0000011850+Z
123651001123651018-019000     123651006003000557288MUG OCC. LOVE JUMBO    0000001000+00005262+00000+0001T   00005262+0000001733          1400 DU3515               2AZ
123651002123651030-000031-A   123651006003000457588PLAQUE W/WORDS ASSTD   0000001000+00004385+00000+0001T   00004823+0006471733          1400 DU3505               2AZ
123651003123651018-000177     123651006001023797513MUG MINI LOVE ASSTD    0000001000+00000700+00000+0001T   00000700+0000001733          1400 DU3515               2AZ
123651004123651112-116069     123651006009681820277TCS CARRIER BAG JUMBO  0000001000+00000048+00000+0001T   00000048+0000001733          1400 DU3090               2AZ
123652000123652               123652               170213OH     1400+00000+OH0000006139+0000006139+000000000+000000860+0000006990+0000000009+I20000000000+0000006990+Z
123652001123652368-000104     123652006001023751348PLUSH BEAR RUFFLED-LOOK0000001000+00006139+00000+0001T   00006139+0000001736          1400 DU3745               2AZ
123653000123653               123653               170213OH     1400+00000+OH0000002192+0000002192+000000000+000000307+0000002490+0000000009+I20000000000+0000002490+Z
123653001123653080-000127     123653006003000424351VALENTINES DAY 36x24CM 0000001000+00002192+00000+0001T   00002192+0000001742          1400 DU3112               2AZ
123654000123654               123654               170213OH     1400+00000+OH0000002453+0000002453+000000000+000000344+0000002790+0000000007+I20000000000+0000002790+Z
123654001123654261-000912     123654006001023707437GUN PL SET OF 2+6 DARTS0000001000-00004385+00000+0001T   00004385+0000001745          1400 DU37102IC            2 Z
123654002123654261-000912     123654006001023707437GUN PL SET OF 2+6 DARTS0000001000+00004385+00000+0001T   00004385+0000001745          1400 DU37102IC            2AZ
123654003123654261-000121     123654006001023341600GUN-CAPS 8-SHOT CARD-9 0000001000+00000700+00000+0001T   00000700+0000001745          1400 DU3710               2AZ
123654004123654261-002267     123654006001023665126GUN 8-SHOT SUPER-CAP   0000001000+00001753+00000+0001T   00001753+0000001745          1400 DU3710               2AZ
123655000123655               123655               170213OH     1400+00000+OH0000012911+0000012911+000000000+000001809+0000014720+0000000000+I40000014720+0000000000+Z
123655001123655018-000177     123655006001023797513MUG MINI LOVE ASSTD    0000008000+00000700+00000+0001T   00000700+0000001747          1400 DU3515               2AZ
123655002123655566-001501     123655006003000658398STICKER PAPER EMOTION  0000001000+00001753+00000+0001T   00001753+0000001747          1400 DU3130               2AZ
123655003123655566-001234     123655006003000217793STICKERS LASER ASSTD   0000001000+00001578+00000+0001T   00001578+0000001747          1400 DU3130               2AZ
123655004123655566-001228     123655006003000284153STICKERS CRYSTAL ASSTD 0000001000+00001753+00000+0001T   00001753+0000001747          1400 DU3130               2AZ
123655005123655566-000068     123655006003000418046POP UP LOVE 2 ASSTD    0000001000+00002192+00000+0001T   00002192+0000001747          1400 DU3130               2AZ
123655006123655112-116038     123655006009681820246TCS CARRIER BAG MIDI   0000001000+00000035+00000+0001T   00000035+0000001747          1400 DU3090               2AZ
123656000123656               123656               170213OH     1400+00000+OH0000013009+0000013009+000000000+000001823+0000014832+0000000000+I40000014832+0000000000+Z
123656001123656077-000245     123656006001023759214GIFT-RIBBON METALLICx2 0000002000+00001227+00000+0001T   00001227+0000001749          1400 DU3112               2AZ
123656002123656028-000797     123656006001023812124SKEWERS 15cm 100PCE    0000001000+00000876+00000+0001T   00000876+0000001749          1400 DU3305               2AZ
123656003123656006-000167-E   123656006003000517213BALLOONS GOLD METALLIC 0000001000+00001314+00000+0001T   00001314+0000001749          1400 DU3131               2AZ
123656004123656200-000010     123656006925406841061BAG ZIPPERSEAL 35PC    0000001000+00002192+00000+0001T   00002192+0000001749          1400 DU3214               2AZ
123656005123656306-000021-C   123656006003000567294EARBUDS 300PCE IN TUB  0000001000+00001753+00000+0001T   00001753+0000001749          1400 DU3200               2AZ
123656006123656031-000870-A   123656006001023798626P/FRAME WOOD WHITE-PINE0000001000+00004385+00000+0001T   00004385+0000001749          1400 DU3510               2AZ
123656007123656112-116038     123656006009681820246TCS CARRIER BAG MIDI   0000001000+00000035+00000+0001T   00000035+0000001749          1400 DU3090               2AZ
123657000123657               123657               170213OH     1400+00000+OH0000011781+0000011781+000000000+000001650+0000013430+0000000001+I20000000000+0000013430+Z
123657001123657301-000120     123657006003000456420ORN ANGEL BELL 10CM    0000001000+00005262+00000+0001T   00005262+0000001750          1400 DU3505               2AZ
123657002123657018-000177     123657006001023797513MUG MINI LOVE ASSTD    0000003000+00000700+00000+0001T   00000700+0000001750          1400 DU3515               2AZ
123657003123657018-000170     123657006001023775528MUG OCC. LOVE 2PC MINI 0000001000+00002192+00000+0001T   00002192+0000001750          1400 DU3515               2AZ
123657004123657112-116038     123657006009681820246TCS CARRIER BAG MIDI   0000001000+00000035+00000+0001T   00000035+0000001750          1400 DU3090               2AZ
123657005123657077-000926     123657006003000414178G/WRAP 700mmx2m LOVE   0000001000+00002192+00000+0001T   00002192+0000001750          1400 DU3112               2AZ
123658000123658               123658               170213OH     1400+00000+OH0000004385+0000004385+000000000+000000614+0000004990+0000000009+I20000000000+0000004990+Z
123658001123658016-006497     123658006003000120055S/JAR-SET 4PCE MINI    0000001000+00004385+00000+0001T   00004385+0000001751          1400 DU3300               2AZ
123659000123659               123659               170213OH     1400+00000+OH0000008936+0000008936+000000000+000001257+0000010193+0000000000+I40000010193+0000000000+Z
123659001123659039-000026     123659006001023551610C/TAPERED 25CM M/RED   0000006000+00001051+00000+0001T   00001051+0000001753          1400 DU3510               2AZ
123659002123659039-000100     12365900600300060614625CM WHITE CANDLE 6PC  0000001000+00002630+00000+0001T   00002630+0000001753          1400 DU3510               2AZ
123660000123660               123660               170213OH     1400+00000+OH0000026280+0000026280+000000000+000003690+0000029970+0000000000+I20000000000+0000029970+Z
123660001123660077-000150-D   123660006003000054343GIFT-WRAP CELLPHANE CLR0000030000+00000876+00000+0001T   00000876+0000001754          1400 DU3112               2AZ
123661000123661               123661               170213OH     1400+00000+OH0000002630+0000002630+000000000+000000369+0000002990+0000000009+I20000000000+0000002990+Z
123661001123661463-000366     123661006001023789136SWIM W/NOODLE 150cm    0000001000+00002630+00000+0001T   00002630+0000001754          1400 DU3785               2AZ
123662000123662               123662               170213OH     1400+00000+OH0000001314+0000001314+000000000+000000184+0000001490+0000000008+I20000000000+0000001490+Z
123662001123662006-000167-C   123662006003000516971BALLOONS PINK METALLIC 0000001000+00001314+00000+0001T   00001314+0000001755          1400 DU3131               2AZ
123663000123663               123663               170213OH     1400+00000+OH0000001139+0000001139+000000000+000000160+0000001290+0000000009+I20000000000+0000001290+Z
123663001123663565-000071     123663006003000643387NOVELTY WIND UP CHATTER0000001000+00001139+00000+0001T   00001139+0000001759          1400 DU3745               2AZ
123664000123664               123664               170213OH     1400+00000+OH0000002192+0000002192+000000000+000000307+0000002490+0000000009+I20000000000+0000002490+Z
123664001123664565-000080     123664006003000643424NOVELTY BENDY          0000001000+00002192+00000+0001T   00002192+0000001759          1400 DU3745               2AZ
123665000123665               123665               170213OH     1400+00000+OH0000006172+0000006172+000000000+000000865+0000007030+0000000007+I20000000000+0000007030+Z
123665001123665018-000136     123665006001023659026MUG OCC LOVE W/PLUSH   0000001000+00003507+00000+0001T   00003507+0000001802          1400 DU3515               2AZ
123665002123665018-000129     123665006001023403353MUG OCC. LOVE V-SHAPE  0000001000+00002630+00000+0001T   00002630+0000001802          1400 DU3515               2AZ
123665003123665112-116038     123665006009681820246TCS CARRIER BAG MIDI   0000001000+00000035+00000+0001T   00000035+0000001802          1400 DU3090               2AZ
123666000123666               123666               170213OH     1400+00000+OH0000003945+0000003945+000000000+000000553+0000004498+0000000000+I40000004498+0000000000+Z
123666001123666158-008936     123666006001023653758PAPER-TOWEL-HOLDER FLWR0000001000+00002192+00000+0001T   00002192+0000001804          1400 DU3300               2AZ
123666002123666051-002407     123666006003000452491SPRAYER TRIGGER 550ml  0000001000+00001753+00000+0001T   00001753+0000001804          1400 DU3820               2AZ
123667000123667               123667               170213OH     1400+00000+OH0000006136+0000006136+000000000+000000861+0000006990+0000000007+I20000000000+0000006990+Z
123667001123667079-006500     123667006001023557186GLUE GLITTER 6/10 PCE  0000002000+00001753+00000+0001T   00001753+0000001806          1400 DU3130               2AZ
123667002123667007-000327     123667006009699513406PAPER A4 80GSM WHT 100 0000001000+00002630+00000+0001T   00002630+0000001806          1400 DU3130               2AZ
A17021300                                          09104747OHSLAVE 2                       DU33IC
A17021301                                          16063291OHSLAVE 2                       DU33IC
B12364100                                          170213OH079-009700-D   15574028SLAVE 2     K152IC0000002000+0000001000+0000000000000+
M17021391                              CASH        OHSLAVE 2                       Z-REPORT No.   588TOTAL (Sales - Refunds)           6307.35       CASH TO BE BANKED                 2697.00       DEBIT CARDS                          0.00       CREDIT CARDS                      3610.35       Z-READING                         6307.35       AIRTIME DEBIT CARD SALES             0.00       AIRTIME CARD SALES                   0.00       OVERS/UNDERS                         0.00       AIRTIME CASH SALES                   0.00       GIFT CARDS                           0.00       GIFT CARD CASH SALES                 0.00       T O T A L  CASH PAYOUTS              0.00                                                                                                                                                                                                                                                                                                                                                      Z
M17021392                              CASH        OHABSENT                                                                                                                                                                                          ANNUAL LEAVE                                                                                                                                                                                    DAY OFF                                                                                                                                                                                         COMMENTS                                                                                                                                                                                                                                                                                                                                                                                       Z
Y17021300                                          OH00000000573524+000080
ZOH17021320133 SLAVE 2      SALES DATA                     NEXT INVOICE NO.  123668 0588
F094752304-001204         1702080826460000243ICSLAVE 2
X OH Slave 2 First invoice 123588 170213 Last invoice 123667 170213 Next invoice 123668 Total number of records 000000291 clbackup completed 20:13:28
