132673000132673               132673               170213OH     1400+00000+OH0000025905+0000025905+000000000+000003634+0000029530+0000000009+I20000000000+0000029530+Z
132673001132673079-013101     132673006001023863706CRAFT SET DIY PIPE-CLNR0000001000+00002630+00000+0001T   00002630+0000000945          1400 J92130               3DZ
132673002132673566-000352     132673006001023809261STICKERS LASER ASSTD   0000001000+00002192+00000+0001T   00002192+0000000945          1400 J92130               3DZ
132673003132673112-116069     132673006009681820277TCS CARRIER BAG JUMBO  0000001000+00000048+00000+0001T   00000048+0000000945          1400 J92090               3DZ
132673004132673566-000352     132673006001023809261STICKERS LASER ASSTD   0000001000+00002192+00000+0001T   00002192+0000000945          1400 J92130               3DZ
132673005132673079-013102     132673006003000019601ART+CRAFT DIY PIPE-CLNR0000001000+00002192+00000+0001T   00002192+0000000945          1400 J92130               3DZ
132673006132673079-013101     132673006001023863706CRAFT SET DIY PIPE-CLNR0000001000+00002630+00000+0001T   00002630+0000000945          1400 J92130               3DZ
132673007132673079-013102     132673006003000019601ART+CRAFT DIY PIPE-CLNR0000001000+00002192+00000+0001T   00002192+0000000945          1400 J92130               3DZ
132673008132673079-013099     132673006003000081875ART+CRAFT EYES ASSTD   0000002000+00001753+00000+0001T   00001753+0000000945          1400 J92130               3DZ
132673009132673079-006496     132673006003000160105GLITTER SHAKERS        0000001000+00001753+00000+0001T   00001753+0000000945          1400 J92130               3DZ
132673010132673077-000239     132673006003000160419GIFT-RIBBON ROLL PEARL 0000001000+00001753+00000+0001T   00001753+0000000945          1400 J92112               3DZ
132673011132673079-000807     132673006003000670277ART+CRAFT WOODEN STICKS0000001000+00001490+00000+0001T   00001490+0000000945          1400 J92130               3DZ
132673012132673077-000245     132673006001023759214GIFT-RIBBON METALLICx2 0000001000+00001227+00000+0001T   00001227+0000000945          1400 J92112               3DZ
132673013132673903-000183     132673006003000451043SWT LB HEART LOLLY     0000002000+00000393+00000+0001T   00000393+0000000945          1400 J92150               3DZ
132673014132673903-005002     132673006002580020021SWT MALLOW SNAKE 120g  0000001000+00001314+00000+0001T   00001314+0000000945          1400 J92150               3DZ
132674000132674               132674               170213OH     1400+00000+OH0000010569+0000010569+000000000+000001480+0000012049+0000000000+I40000012049+0000000000+Z
132674001132674267-000311     132674006003000610730PUZZLE WOOD TRAY ASSTD 0000003000+00003507+00000+0001T   00003507+0000000947          1400 J92755               3DZ
132674002132674112-116069     132674006009681820277TCS CARRIER BAG JUMBO  0000001000+00000048+00000+0001T   00000048+0000000947          1400 J92090               3DZ
132675000132675               132675               170213OH     1400+00000+OH0000001753+0000001753+000000000+000000246+0000001990+0000000009+I20000000000+0000001990+Z
132675001132675080-000111     132675006003000252695CARD&ENVELPE - MUSICAL 0000001000+00001753+00000+0001T   00001753+0000001006          1400 J92112               3DZ
132676000132676               132676               170213OH     1400+00000+OH0000015657+0000015657+000000000+000002193+0000017850+0000000000+I20000000000+0000017850+Z
132676001132676112-116069     132676006009681820277TCS CARRIER BAG JUMBO  0000001000+00000048+00000+0001T   00000048+0000001009          1400 J92090               3DZ
132676002132676018-030000     132676006003000421060MUG OCCASIONS LOVE 2PCE0000001000+00004385+00000+0001T   00004385+0000001009          1400 J92515               3DZ
132676003132676077-000303     132676006001023593757GIFT-BAG PAPER MED     0000001000+00001578+00000+0001T   00001578+0000001009          1400 J92112               3DZ
132676004132676366-001101     132676006003000006991DRESS UP BOYS ASSTD    0000001000+00006139+00000+0001T   00006139+0000001009          1400 J92131               3DZ
132676005132676007-000325     132676006009698066514PAPER A4 160GSM 25SHTS 0000001000+00003507+00000+0001T   00003507+0000001009          1400 J92130               3DZ
132677000132677               132677               170213OH     1400+00000+OH0000002940+0000002940+000000000+000000412+0000003352+0000000000+I40000003352+0000000000+Z
132677001132677018-000177     132677006001023797513MUG MINI LOVE ASSTD    0000001000+00000700+00000+0001T   00000700+0000001055          1400 J92515               3DZ
132677002132677080-000127     132677006003000424351VALENTINES DAY 36x24CM 0000001000+00002192+00000+0001T   00002192+0000001055          1400 J92112               3DZ
132677003132677112-116069     132677006009681820277TCS CARRIER BAG JUMBO  0000001000+00000048+00000+0001T   00000048+0000001055          1400 J92090               3DZ
132678000132678               132678               170213OH     1400+00000+OH0000001226+0000001226+000000000+000000172+0000001390+0000000008+I20000000000+0000001390+Z
132678001132678077-000321     132678006001023677501GIFT-BAG 11X14CM E/D FL0000001000+00000613+00000+0001T   00000613+0000001057          1400 J92112               3DZ
132678002132678077-000317     132678006001023609748GIFT-BAG 11X14CM E/D AN0000001000+00000613+00000+0001T   00000613+0000001057          1400 J92112               3DZ
132679000132679               132679               170213OH     1400+00000+OH0000006134+0000006134+000000000+000000859+0000006993+0000000000+I40000006993+0000000000+Z
132679001132679903-000844     132679005010478432567SWT CANDY DL LUV HEARTS0000003000+00001314+00000+0001T   00001314+0000001059          1400 J92150               3DZ
132679002132679077-000309-A   132679006003000671007GIFT-BAG HOLOGRAM JMB  0000001000+00002192+00000+0001T   00002192+0000001059          1400 J92112               3DZ
132680000132680               132680               170213OH     1400+00000+OH0000011782+0000011782+000000000+000001658+0000013440+0000000000+I40000013440+0000000000+Z
132680001132680112-116069     132680006009681820277TCS CARRIER BAG JUMBO  0000001000+00000048+00000+0001T   00000048+0000001107          1400 J92090               3DZ
132680002132680306-000998     132680006003000519927FIRSTAID PLASTER 20PC  0000001000+00002630+00000+0001T   00002630+0000001107          1400 J92200               3DZ
132680003132680079-013102     132680006003000019601ART+CRAFT DIY PIPE-CLNR0000001000+00002192+00000+0001T   00002192+0000001107          1400 J92130               3DZ
132680004132680565-000882     132680006001023801050SUNGLASSES KID COOL-SHD0000001000+00000437+00000+0001T   00000437+0000001107          1400 J92745               3DZ
132680005132680903-000216     132680006925925900966SWT MALLOW TWIST ERKO  0000001000+00000262+00000+0001T   00000262+0000001107          1400 J92150               3DZ
132680006132680903-000094     132680006923431501622SWT GS CANDY NECKLACE  0000001000+00000437+00000+0001T   00000437+0000001107          1400 J92150               3DZ
132680007132680903-000216     132680006925925900966SWT MALLOW TWIST ERKO  0000002000+00000262+00000+0001T   00000262+0000001107          1400 J92150               3DZ
132680008132680903-000094     132680006923431501622SWT GS CANDY NECKLACE  0000004000+00000437+00000+0001T   00000437+0000001107          1400 J92150               3DZ
132680009132680079-009702-C   132680008427973059309PAPER SIRIO A2 VIOLET  0000001000+00001051+00000+0001T   00001051+0000001107          1400 J92130               3DZ
132680010132680251-000030     132680006001023515803MASKING-TAPE 18mmx40m  0000001000+00001139+00000+0001T   00001139+0000001107          1400 J92810               3DZ
132680011132680078-009100     132680006008741002349ALL-CLEAR GLUE 25ml CRD0000001000+00001314+00000+0001T   00001314+0000001107          1400 J92810               3DZ
132681000132681               132681               170213OH     1400+00000+OH0000001490+0000001490+000000000+000000209+0000001690+0000000009+I20000000000+0000001690+Z
132681001132681079-006494     132681006003000159864GLITTER GLUE 5PCE 11cm 0000001000+00001490+00000+0001T   00001490+0000001108          1400 J92130               3DZ
132682000132682               132682               170213OH     1400+00000+OH0000003542+0000003542+000000000+000000496+0000004038+0000000000+I40000004038+0000000000+Z
132682001132682007-000096     132682006001023855114ENVELOPES WHT    BOX-400000001000+00003507+00000+0001T   00003507+0000001113          1400 J92130               3DZ
132682002132682112-116038     132682006009681820246TCS CARRIER BAG MIDI   0000001000+00000035+00000+0001T   00000035+0000001113          1400 J92090               3DZ
132683000132683               132683               170213OH     1400+00000+OH0000001139+0000001139+000000000+000000160+0000001290+0000000009+I20000000000+0000001290+Z
132683001132683565-000071     132683006003000643387NOVELTY WIND UP CHATTER0000001000+00001139+00000+0001T   00001139+0000001114          1400 J92745               3DZ
132684000132684               132684               170213OH     1400+00000+OH0000017443+0000017443+000000000+000002447+0000019890+0000000000+I20000000000+0000019890+Z
132684001132684006-000800     132684006001023902801HAT CABARET 14x18cm    0000008000+00001753+00000+0001T   00001753+0000001127          1400 J92131               3DZ
132684002132684006-000090     132684006001023538505BANNER HAPPY-BIRTHDAY  0000001000+00002192+00000+0001T   00002192+0000001127          1400 J92131               3DZ
132684003132684071-081091     132684006001151010287STAED/GENKEM ALL-STICK 0000001000+00001227+00000+0001T   00001227+0000001127          1400 J92130               3DZ
132685000132685               132685               170213OH     1400+00000+OH0000001139+0000001139+000000000+000000160+0000001290+0000000009+I20000000000+0000001290+Z
132685001132685565-000071     132685006003000643387NOVELTY WIND UP CHATTER0000001000+00001139+00000+0001T   00001139+0000001134          1400 J92745               3DZ
132686000132686               132686               170213OH     1400+00000+OH0000002015+0000002015+000000000+000000283+0000002290+0000000008+I20000000000+0000002290+Z
132686001132686071-003011     132686006001023762825PEN STICKBALL X10 ASSTD0000001000+00001753+00000+0001T   00001753+0000001137          1400 J92130               3DZ
132686002132686007-000405     132686006009635830369EXERCISE-BOOK A5 72PAGE0000001000+00000262+00000+0001T   00000262+0000001137          1400 J92130               3DZ
132687000132687               132687               170213OH     1400+00000+OH0000003506+0000003506+000000000+000000492+0000003990+0000000008+I20000000000+0000003990+Z
132687001132687080-000115     132687006003000237333CARD&ENVELOPE - BLANKS 0000001000+00001753+00000+0001T   00001753+0000001138          1400 J92112               3DZ
132687002132687077-000904     132687006003000410682G/WRAP 700mmx1m PATTERN0000001000+00001753+00000+0001T   00001753+0000001138          1400 J92112               3DZ
132688000132688               132688               170213OH     1400+00000+OH0000003506+0000003506+000000000+000000492+0000003990+0000000008+I20000000000+0000003990+Z
132688001132688492-055609     132688000078257556090EAR-PLUGS+NOSE-CLIP SET0000001000+00001753+00000+0001T   00001753+0000001139          1400 J92787               3DZ
132688002132688078-000030     132688006003000151141YAMAYO SUPERGLUE 8g    0000001000+00001753+00000+0001T   00001753+0000001139          1400 J92810               3DZ
132689000132689               132689               170213OH     1400+00000+OH0000014000+0000014000+000000000+000001960+0000015960+0000000000+I20000000000+0000015960+Z
132689001132689018-000177     132689006001023797513MUG MINI LOVE ASSTD    0000020000+00000700+00000+0001T   00000700+0000001142          1400 J92515               3DZ
132690000132690               132690               170213OH     1400+00000+OH0000015823+0000015823+000000000+000002216+0000018039+0000000000+I40000018039+0000000000+Z
132690001132690031-080508     132690006001023802415P/FRAME PL 22X11CM LOVE0000001000+00004385+00000+0001T   00004385+0000001144          1400 J92510               3DZ
132690002132690080-000127     132690006003000424351VALENTINES DAY 36x24CM 0000001000+00002192+00000+0001T   00002192+0000001144          1400 J92112               3DZ
132690003132690112-116069     132690006009681820277TCS CARRIER BAG JUMBO  0000001000+00000048+00000+0001T   00000048+0000001144          1400 J92090               3DZ
132690004132690903-000844     132690005010478432567SWT CANDY DL LUV HEARTS0000007000+00001314+00000+0001T   00001314+0000001144          1400 J92150               3DZ
132691000132691               132691               170213OH     1400+00000+OH0000004380+0000004380+000000000+000000614+0000004990+0000000004+I20000000000+0000004990+Z
132691001132691903-000844     132691005010478432567SWT CANDY DL LUV HEARTS0000001000+00001314+00000+0001T   00001314+0000001145          1400 J92150               3DZ
132691002132691903-000861     132691005010478430822SWT LOVE HEARTS SML    0000001000+00000876+00000+0001T   00000876+0000001145          1400 J92150               3DZ
132691003132691903-000844     132691005010478432567SWT CANDY DL LUV HEARTS0000001000+00001314+00000+0001T   00001314+0000001145          1400 J92150               3DZ
132691004132691903-000861     132691005010478430822SWT LOVE HEARTS SML    0000001000+00000876+00000+0001T   00000876+0000001145          1400 J92150               3DZ
132692000132692               132692               170213OH     1400+00000+OH0000004821+0000004821+000000000+000000675+0000005490+0000000006+I20000000000+0000005490+Z
132692001132692262-000652     132692006003000615643DIE CAST SET 8PC RACER 0000001000+00003507+00000+0001T   00003507+0000001145          1400 J92710               3DZ
132692002132692077-000310     132692006001023608635GIFT-BAG 18X23CM GLOSS 0000001000+00001314+00000+0001T   00001314+0000001145          1400 J92112               3DZ
132693000132693               132693               170213OH     1400+00000+OH0000005085+0000005085+000000000+000000712+0000005790+0000000007+I20000000000+0000005790+Z
132693001132693018-005009     132693006001023725608MUG W/PLUSH-BEAR LOVE  0000001000+00003507+00000+0001T   00003507+0000001147          1400 J92515               3DZ
132693002132693077-000303     132693006001023593757GIFT-BAG PAPER MED     0000001000+00001578+00000+0001T   00001578+0000001147          1400 J92112               3DZ
132694000132694               132694               170213OH     1400+00000+OH0000001753+0000001753+000000000+000000246+0000001990+0000000009+I20000000000+0000001990+Z
132694001132694080-000113     132694006003000237449CARD&ENVLPE - LOVE     0000001000+00001753+00000+0001T   00001753+0000001150          1400 J92112               3DZ
132695000132695               132695               170213OH     1400+00000+OH0000001314+0000001314+000000000+000000184+0000001490+0000000008+I20000000000+0000001490+Z
132695001132695077-000310     132695006001023608635GIFT-BAG 18X23CM GLOSS 0000001000+00001314+00000+0001T   00001314+0000001156          1400 J92112               3DZ
132696000132696               132696               170213OH     1400+00000+OH0000002630+0000002630+000000000+000000369+0000002990+0000000009+I20000000000+0000002990+Z
132696001132696027-056185     132696006003000638093DISH BRUSH DUCK DESIGN 0000001000+00002630+00000+0001T   00002630+0000001157          1400 J92212               3DZ
132697000132697               132697               170213OH     1400+00000+OH0000001139+0000001139+000000000+000000160+0000001290+0000000009+I20000000000+0000001290+Z
132697001132697046-000014     132697006001023725387BATTERIES SIZE:AAA 4PCE0000001000+00001139+00000+0001T   00001139+0000001157          1400 J92312               3DZ
132698000132698               132698               170213OH     1400+00000+OH0000011559+0000011559+000000000+000001622+0000013180+0000000001+I20000000000+0000013180+Z
132698001132698903-000844     132698005010478432567SWT CANDY DL LUV HEARTS0000006000+00001314+00000+0001T   00001314+0000001203          1400 J92150               3DZ
132698002132698903-000155     132698006009803374435SWT LOLLY I LUV U HEART0000007000+00000525+00000+0001T   00000525+0000001203          1400 J92150               3DZ
132699000132699               132699               170213OH     1400+00000+OH0000001399+0000001399+000000000+000000198+0000001597+0000000000+I40000001597+0000000000+Z
132699001132699903-000155     132699006009803374435SWT LOLLY I LUV U HEART0000001000+00000525+00000+0001T   00000525+0000001206          1400 J92150               3DZ
132699002132699083-000049     132699004891035200024CIG-LIGHTER DISPOSABLE 0000002000+00000437+00000+0001T   00000437+0000001206          1400 J92315               3DZ
132700000132700               132700               170213OH     1400+00000+OH0000007622+0000007622+000000000+000001069+0000008691+0000000000+I40000008691+0000000000+Z
132700001132700903-000844     132700005010478432567SWT CANDY DL LUV HEARTS0000002000+00001314+00000+0001T   00001314+0000001209          1400 J92150               3DZ
132700002132700566-000308     132700006003000522521STICKER TAPE 3PCS      0000001000+00002630+00000+0001T   00002630+0000001209          1400 J92130               3DZ
132700003132700903-000155     132700006009803374435SWT LOLLY I LUV U HEART0000002000+00000525+00000+0001T   00000525+0000001209          1400 J92150               3DZ
132700004132700566-000451     132700006001023788443STICKERS GLITTER ASSTD 0000001000+00001314+00000+0001T   00001753+0008151209          1400 J92130               3DZ
132701000132701               132701               170213OH     1400+00000+OH0000004857+0000004857+000000000+000000681+0000005530+0000000008+I20000000000+0000005530+Z
132701001132701079-013102     132701006003000019601ART+CRAFT DIY PIPE-CLNR0000001000+00002192+00000+0001T   00002192+0000001211          1400 J92130               3DZ
132701002132701079-013032-E   132701006003000389766ART+CRAFT COL/PAPER    0000001000+00002630+00000+0001T   00002630+0000001211          1400 J92130               3DZ
132701003132701112-116038     132701006009681820246TCS CARRIER BAG MIDI   0000001000+00000035+00000+0001T   00000035+0000001211          1400 J92090               3DZ
132702000132702               132702               170213OH     1400+00000+OH0000001139+0000001139+000000000+000000160+0000001290+0000000009+I20000000000+0000001290+Z
132702001132702206-000530     132702006003000620821BIRTHDAY CANDLES 6PC   0000001000+00001139+00000+0001T   00001753+0008181212          1400 J92321               3DZ
132703000132703               132703               170213OH     1400+00000+OH0000003766+0000003766+000000000+000000528+0000004290+0000000004+I20000000000+0000004290+Z
132703001132703080-000113     132703006003000237449CARD&ENVLPE - LOVE     0000001000+00001753+00000+0001T   00001753+0000001213          1400 J92112               3DZ
132703002132703077-000311     132703006001023608666GIFT-BAG 11X14CM GLOSS 0000001000+00000613+00000+0001T   00000613+0000001213          1400 J92112               3DZ
132703003132703018-000177     132703006001023797513MUG MINI LOVE ASSTD    0000002000+00000700+00000+0001T   00000700+0000001213          1400 J92515               3DZ
132704000132704               132704               170213OH     1400+00000+OH0000000000+0000000000+000000000+000000000+0000000000+0000000000+I20000000000+0000000000+Z
132704001132704079-000273     132704006003000160327PAINT BRUSHES THICK    0000001000-00002630+00000+0001T   00002630+0000001219          1400 J921303IC            3 Z
132704002132704079-000273     132704006003000160327PAINT BRUSHES THICK    0000001000+00002630+00000+0001T   00002630+0000001219          1400 J921303IC            3 Z
132705000132705               132705               170213OH     1400+00000+OH0000000657+0000000657+000000000+000000092+0000000740+0000000009+I20000000000+0000000740+Z
132705001132705566-001212     132705000721129014166STICKERS MICRO ASSTD   0000001000+00000657+00000+0001T   00000657+0000001220          1400 J92130               3DZ
132706000132706               132706               170213OH     1400+00000+OH0000028345+0000028345+000000000+000003976+0000032320+0000000001+I20000000000+0000032320+Z
132706001132706112-116038     132706006009681820246TCS CARRIER BAG MIDI   0000001000+00000035+00000+0001T   00000035+0000001224          1400 J92090               3DZ
132706002132706032-000309     132706006001023477804MIRROR STANDING PL SML 0000019000+00001490+00000+0001T   00001490+0000001224          1400 J92510               3DZ
132707000132707               132707               170213OH     1400+00000+OH0000019953+0000019953+000000000+000002797+0000022750+0000000000+I40000022750+0000000000+Z
132707001132707077-000011-D   132707006001023808554TISSUE-WRAP WHITE 10PCE0000001000+00000876+00000+0001T   00000876+0000001227          1400 J92112               3DZ
132707002132707112-116069     132707006009681820277TCS CARRIER BAG JUMBO  0000001000+00000048+00000+0001T   00000048+0000001227          1400 J92090               3DZ
132707003132707077-000299     132707006003000395576G/BAG 32x25cm LRG LOVE 0000001000+00001490+00000+0001T   00001490+0000001227          1400 J92112               3DZ
132707004132707368-000111     132707006001023780812PLUSH BEAR/DOG 29CM    0000001000+00012279+00000+0001T   00012279+0000001227          1400 J92745               3DZ
132707005132707077-000270     132707006003000395453GIFT-BAG PPR JMB 33X45 0000002000+00002630+00000+0001T   00002630+0000001227          1400 J92112               3DZ
132708000132708               132708               170213OH     1400+00000+OH0000002364+0000002364+000000000+000000333+0000002690+0000000007+I20000000000+0000002690+Z
132708001132708077-000010-C   132708006001023123879CREPE-PAPER RED        0000003000+00000788+00000+0001T   00000788+0000001228          1400 J92112               3DZ
132709000132709               132709               170213OH     1400+00000+OH0000005120+0000005120+000000000+000000717+0000005837+0000000000+I40000005837+0000000000+Z
132709001132709018-000177     132709006001023797513MUG MINI LOVE ASSTD    0000001000+00000700+00000+0001T   00000700+0000001230          1400 J92515               3DZ
132709002132709031-080508     132709006001023802415P/FRAME PL 22X11CM LOVE0000001000+00004385+00000+0001T   00004385+0000001230          1400 J92510               3DZ
132709003132709112-116038     132709006009681820246TCS CARRIER BAG MIDI   0000001000+00000035+00000+0001T   00000035+0000001230          1400 J92090               3DZ
132710000132710               132710               170213OH     1400+00000+OH0000009327+0000009327+000000000+000001308+0000010635+0000000000+I40000010635+0000000000+Z
132710001132710112-116038     132710006009681820246TCS CARRIER BAG MIDI   0000001000+00000035+00000+0001T   00000035+0000001232          1400 J92090               3DZ
132710002132710018-005009     132710006001023725608MUG W/PLUSH-BEAR LOVE  0000001000+00003507+00000+0001T   00003507+0000001232          1400 J92515               3DZ
132710003132710019-071601     132710006001023771995RIVER-STONES 1kg WHITE 0000002000+00002630+00000+0001T   00002630+0000001232          1400 J92510               3DZ
132710004132710903-000155     132710006009803374435SWT LOLLY I LUV U HEART0000001000+00000525+00000+0001T   00000525+0000001232          1400 J92150               3DZ
132711000132711               132711               170213OH     1400+00000+OH0000002539+0000002539+000000000+000000358+0000002890+0000000007+I20000000000+0000002890+Z
132711001132711006-000804     132711006003000574445STREAMERS 6-ROLLS 2.5cm0000001000+00001753+00000+0001T   00001753+0000001235          1400 J92131               3DZ
132711002132711903-000183     132711006003000451043SWT LB HEART LOLLY     0000002000+00000393+00000+0001T   00000393+0000001235          1400 J92150               3DZ
132712000132712               132712               170213OH     1400+00000+OH0000007014+0000007014+000000000+000000983+0000007990+0000000007+I20000000000+0000007990+Z
132712001132712077-000408     132712006003000145218G/BAG PP 15X21X7CM     0000001000+00000876+00000+0001T   00000876+0000001238          1400 J92112               3DZ
132712002132712039-000318     132712006003000406159B/DAY CANDLES SMALL NO 0000001000+00001753+00000+0001T   00001753+0000001238          1400 J92510               3DZ
132712003132712586-098613     132712006001492986135WATCH KIDS DIGITAL     0000001000+00004385+00000+0001T   00004385+0000001238          1400 J92160               3DZ
132713000132713               132713               170213OH     1400+00000+OH0000001314+0000001314+000000000+000000184+0000001490+0000000008+I20000000000+0000001490+Z
132713001132713077-000310     132713006001023608635GIFT-BAG 18X23CM GLOSS 0000001000+00001314+00000+0001T   00001314+0000001241          1400 J92112               3DZ
132714000132714               132714               170213OH     1400+00000+OH0000009240+0000009240+000000000+000001295+0000010535+0000000000+I40000010535+0000000000+Z
132714001132714566-000352     132714006001023809261STICKERS LASER ASSTD   0000001000+00002192+00000+0001T   00002192+0000001242          1400 J92130               3DZ
132714002132714079-006498     132714006001023836151GLITTER SET 10PCE      0000001000+00003507+00000+0001T   00003507+0000001242          1400 J92130               3DZ
132714003132714079-011549     132714006003000682058PAINT A WOOD CRAFT     0000002000+00001753+00000+0001T   00001753+0000001242          1400 J92130               3DZ
132714004132714112-116038     132714006009681820246TCS CARRIER BAG MIDI   0000001000+00000035+00000+0001T   00000035+0000001242          1400 J92090               3DZ
132715000132715               132715               170213OH     1400+00000+OH0000006138+0000006138+000000000+000000860+0000006990+0000000008+I20000000000+0000006990+Z
132715001132715077-000011-F   132715006001023808431TISSUE-WRAP BLUE/LILAC 0000001000+00000876+00000+0001T   00000876+0000001243          1400 J92112               3DZ
132715002132715103-000474     132715006003000630363BAMBOO FLOWER BASKET   0000001000+00005262+00000+0001T   00005262+0000001243          1400 J92300               3DZ
132716000132716               132716               170213OH     1400+00000+OH0000004155+0000004155+000000000+000000583+0000004738+0000000000+I40000004738+0000000000+Z
132716001132716206-000620     132716006003000631797BACK SCRATCHER EXTEND  0000001000+00002630+00000+0001T   00002630+0000001246          1400 J92321               3DZ
132716002132716077-000452     132716006003000284986G/BAG METALLIC MED EMB 0000001000+00001490+00000+0001T   00001490+0000001246          1400 J92112               3DZ
132716003132716112-116038     132716006009681820246TCS CARRIER BAG MIDI   0000001000+00000035+00000+0001T   00000035+0000001246          1400 J92090               3DZ
132716004132716112-116069     132716006009681820277TCS CARRIER BAG JUMBO  0000001000-00000048+00000+0001T   00000048+0000001246          1400 J920902IC            3DZ
132716005132716112-116069     132716006009681820277TCS CARRIER BAG JUMBO  0000001000+00000048+00000+0001T   00000048+0000001246          1400 J920902IC            3DZ
132717000132717               132717               170213OH     1400+00000+OH0000001753+0000001753+000000000+000000246+0000001990+0000000009+I20000000000+0000001990+Z
132717001132717306-000981     132717006003000559718FIRSTAID PLASTER 1PC   0000001000+00001753+00000+0001T   00001753+0000001247          1400 J92200               3DZ
132718000132718               132718               170213OH     1400+00000+OH0000003506+0000003506+000000000+000000492+0000003990+0000000008+I20000000000+0000003990+Z
132718001132718051-002402     132718006001023518347TRIGGER-SPRAYER  500ml 0000002000+00001753+00000+0001T   00001753+0000001248          1400 J92820               3DZ
132719000132719               132719               170213OH     1400+00000+OH0000002192+0000002192+000000000+000000307+0000002490+0000000009+I20000000000+0000002490+Z
132719001132719072-020255     132719006003000451487PET DOG CHEW BONE PK-2 0000001000-00004385+00000+0001T   00004385+0000001254          1400 J928703IC            3 Z
132719002132719072-020303     132719006008632000492DOG-TOY DENTAL-BONE    0000001000+00002192+00000+0001T   00002192+0000001254          1400 J92870               3DZ
132719003132719072-020262     132719006003000305254PET DOG-CHEW TYRE LARGE0000001000+00004385+00000+0001T   00004385+0000001254          1400 J92870               3DZ
132720000132720               132720               170213OH     1400+00000+OH0000006610+0000006610+000000000+000000927+0000007530+0000000007+I20000000000+0000007530+Z
132720001132720037-050016     132720006001023674128ASHTRAY 9CM RND CLUB   0000002000+00001753+00000+0001T   00001753+0000001255          1400 J92515               3DZ
132720002132720089-060027     132720006003000245871KEY-CHAIN HEART 6X6cm  0000001000+00003069+00000+0001T   00003069+0000001255          1400 J92205               3DZ
132720003132720112-116038     132720006009681820246TCS CARRIER BAG MIDI   0000001000+00000035+00000+0001T   00000035+0000001255          1400 J92090               3DZ
132721000132721               132721               170213OH     1400+00000+OH0000012314+0000012314+000000000+000001725+0000014030+0000000009+I20000000000+0000014030+Z
132721001132721368-000111     132721006001023780812PLUSH BEAR/DOG 29CM    0000001000+00012279+00000+0001T   00012279+0000001305          1400 K15745               3AZ
132721002132721112-116038     132721006009681820246TCS CARRIER BAG MIDI   0000001000+00000035+00000+0001T   00000035+0000001305          1400 K15090               3AZ
132722000132722               132722               170213OH     1400+00000+OH0000003507+0000003507+000000000+000000491+0000003990+0000000008+I20000000000+0000003990+Z
132722001132722159-000643     132722006001023767028BACK-BRUSH ASSTD       0000001000+00003507+00000+0001T   00003507+0000001315          1400 K15200               3AZ
132723000132723               132723               170213OH     1400+00000+OH0000001139+0000001139+000000000+000000160+0000001290+0000000009+I20000000000+0000001290+Z
132723001132723903-000087     132723006001704000161SWT SPECKLED-EGGS 50G  0000001000+00001139+00000+0001T   00001139+0000001323          1400 K15150               3AZ
132724000132724               132724               170213OH     1400+00000+OH0000021968+0000021968+000000000+000003080+0000025040+0000000008+I20000000000+0000025040+Z
132724001132724361-009988     132724006001023866011PONY 24cm W/SIDE-SADDLE0000001000+00006139+00000+0001T   00006139+0000001324          1400 K15725               3AZ
132724002132724079-003002     132724006003000447886A/TUBE 75ML RED        0000001000+00001753+00000+0001T   00001753+0000001324          1400 K15130               3AZ
132724003132724079-006496     132724006003000160105GLITTER SHAKERS        0000001000+00001753+00000+0001T   00001753+0000001324          1400 K15130               3AZ
132724004132724079-006500     132724006001023557186GLUE GLITTER 6/10 PCE  0000001000+00001753+00000+0001T   00001753+0000001324          1400 K15130               3AZ
132724005132724079-001002     132724006003000448715CANVAS A4 WOOD MOUNTED 0000002000+00002630+00000+0001T   00002630+0000001324          1400 K15130               3AZ
132724006132724079-001007     132724006003000682454PAINT CANVAS ROUND/OVAL0000001000+00005262+00000+0001T   00005262+0000001324          1400 K15130               3AZ
132724007132724112-116069     132724006009681820277TCS CARRIER BAG JUMBO  0000001000+00000048+00000+0001T   00000048+0000001324          1400 K15090               3AZ
132725000132725               132725               170213OH     1400+00000+OH0000004385+0000004385+000000000+000000614+0000004990+0000000009+I20000000000+0000004990+Z
132725001132725029-000009     132725006001023809575BUCKET GALV  2L        0000001000+00004385+00000+0001T   00004385+0000001334          1400 J92510               3DZ
132726000132726               132726               170213OH     1400+00000+OH0000003507+0000003507+000000000+000000491+0000003990+0000000008+I20000000000+0000003990+Z
132726001132726018-000136     132726006001023659026MUG OCC LOVE W/PLUSH   0000001000+00003507+00000+0001T   00003507+0000001335          1400 J92515               3DZ
132727000132727               132727               170213OH     1400+00000+OH0000002630+0000002630+000000000+000000369+0000002990+0000000009+I20000000000+0000002990+Z
132727001132727050-000261-Z   132727006001023535351PADLOCK BRS 20mm CARDED0000001000+00002630+00000+0001T   00002630+0000001336          1400 J92855               3DZ
132728000132728               132728               170213OH     1400+00000+OH0000015831+0000015831+000000000+000002218+0000018049+0000000000+I40000018049+0000000000+Z
132728001132728466-000614     132728006003000502486BALL SOC 10.1CM 3PCE   0000001000+00007016+00000+0001T   00007016+0000001343          1400 J92785               3DZ
132728002132728366-007601     132728006003000655472DRESS UP MASK THEATRICA0000001000+00000876+00000+0001T   00000876+0000001343          1400 J92131               3DZ
132728003132728112-116069     132728006009681820277TCS CARRIER BAG JUMBO  0000001000+00000048+00000+0001T   00000048+0000001343          1400 J92090               3DZ
132728004132728019-000104     132728006003000658176VASE GLASSBUD 16CM     0000001000+00003507+00000+0001T   00003507+0000001343          1400 J92510               3DZ
132728005132728565-000080     132728006003000643424NOVELTY BENDY          0000002000+00002192+00000+0001T   00002192+0000001343          1400 J92745               3DZ
132729000132729               132729               170213OH     1400+00000+OH0000004383+0000004383+000000000+000000615+0000004990+0000000008+I20000000000+0000004990+Z
132729001132729108-003023     132729006003000665471TUMBLER W/STRAW 550ml  0000001000+00002630+00000+0001T   00002630+0000001344          1400 J92210               3DZ
132729002132729077-000289     132729006001023901996GIFT BOX 20x25x11cm    0000001000+00001753+00000+0001T   00001753+0000001344          1400 J92112               3DZ
132730000132730               132730               170213OH     1400+00000+OH0000002454+0000002454+000000000+000000344+0000002790+0000000008+I20000000000+0000002790+Z
132730001132730077-000011-D   132730006001023808554TISSUE-WRAP WHITE 10PCE0000001000+00000876+00000+0001T   00000876+0000001347          1400 J92112               3DZ
132730002132730077-000303     132730006001023593757GIFT-BAG PAPER MED     0000001000+00001578+00000+0001T   00001578+0000001347          1400 J92112               3DZ
132731000132731               132731               170213OH     1400+00000+OH0000024986+0000024986+000000000+000003502+0000028488+0000000000+I40000028488+0000000000+Z
132731001132731077-000299-A   132731006003000670888GIFT-BAG PAPER JMB LOVE0000001000+00001753+00000+0001T   00001753+0000001350          1400 J92112               3DZ
132731002132731306-000021-C   132731006003000567294EARBUDS 300PCE IN TUB  0000001000+00001753+00000+0001T   00001753+0000001350          1400 J92200               3DZ
132731003132731031-080508     132731006001023802415P/FRAME PL 22X11CM LOVE0000001000+00004385+00000+0001T   00004385+0000001350          1400 J92510               3DZ
132731004132731301-085004     132731006003000420469ORN LOVE PLAQUE 21X10CM0000001000+00003507+00000+0001T   00003946+0006471350          1400 J92505               3DZ
132731005132731017-000199     13273100600300037852460-PHOTO WEDDING ALBUM 0000001000+00001753+00000+0001T   00002630+0008171350          1400 J92510               3DZ
132731006132731108-003023     132731006003000665471TUMBLER W/STRAW 550ml  0000001000+00002630+00000+0001T   00002630+0000001350          1400 J92210               3DZ
132731007132731080-000127     132731006003000424351VALENTINES DAY 36x24CM 0000001000+00002192+00000+0001T   00002192+0000001350          1400 J92112               3DZ
132731008132731203-008282     132731006003000597703WINE GLS PL 2PC CHAMP. 0000001000+00001753+00000+0001T   00002630+0008171350          1400 J92300               3DZ
132731009132731565-000043     132731006003000109562NOVELTY BALL FUNNY FACE0000001000+00001753+00000+0001T   00001753+0000001350          1400 J92745               3DZ
132731010132731087-000102     132731006003000137466HAIR TRIMMER SET       0000001000+00003507+00000+0001T   00003507+0000001350          1400 J92200               3DZ
132732000132732               132732               170213OH     1400+00000+OH0000001753+0000001753+000000000+000000246+0000001990+0000000009+I20000000000+0000001990+Z
132732001132732077-000299-A   132732006003000670888GIFT-BAG PAPER JMB LOVE0000001000+00001753+00000+0001T   00001753+0000001350          1400 J92112               3DZ
132733000132733               132733               170213OH     1400+00000+OH0000002190+0000002190+000000000+000000308+0000002498+0000000000+I40000002498+0000000000+Z
132733001132733077-000316     132733006001023609731GIFT-BAG 25X32CM MATT  0000001000+00001753+00000+0001T   00001753+0000001353          1400 J92112               3DZ
132733002132733083-000049     132733004891035200024CIG-LIGHTER DISPOSABLE 0000001000+00000437+00000+0001T   00000437+0000001353          1400 J92315               3DZ
132734000132734               132734               170213OH     1400+00000+OH0000010204+0000010204+000000000+000001431+0000011635+0000000000+I40000011635+0000000000+Z
132734001132734112-116038     132734006009681820246TCS CARRIER BAG MIDI   0000001000+00000035+00000+0001T   00000035+0000001358          1400 J92090               3DZ
132734002132734105-001005     132734006001023858214CONTAINERS MINI 6PCE   0000001000+00001402+00000+0001T   00001402+0000001358          1400 J92210               3DZ
132734003132734079-012210     132734006001023831958SPONGE PATTERN ROLLERS 0000001000+00001753+00000+0001T   00001753+0000001358          1400 J92130               3DZ
132734004132734079-000336     132734006003000670758SUPER FINE MARKER PENS 0000001000+00005262+00000+0001T   00005262+0000001358          1400 J92130               3DZ
132734005132734077-000011-E   132734006001023808646TISSUE-WRAP PINK 10PCE 0000001000+00000876+00000+0001T   00000876+0000001358          1400 J92112               3DZ
132734006132734077-000011-C   132734006001023808523TISSUE 10xSHTS RED     0000001000+00000876+00000+0001T   00000876+0000001358          1400 J92112               3DZ
132735000132735               132735               170213OH     1400+00000+OH0000003542+0000003542+000000000+000000496+0000004030+0000000008+I20000000000+0000004030+Z
132735001132735305-075005     132735006003000621934DREAM CATCHER EVA ASSTD0000001000+00003507+00000+0001T   00003507+0000001358          1400 J92505               3DZ
132735002132735112-116038     132735006009681820246TCS CARRIER BAG MIDI   0000001000+00000035+00000+0001T   00000035+0000001358          1400 J92090               3DZ
132736000132736               132736               170213OH     1400+00000+OH0000006960+0000006960+000000000+000000975+0000007935+0000000000+I40000007935+0000000000+Z
132736001132736031-000002-A   132736006003000247103P/FRAME LOVE 7.5X7.5CM 0000001000+00003507+00000+0001T   00003507+0000001402          1400 J92510               3DZ
132736002132736077-000310     132736006001023608635GIFT-BAG 18X23CM GLOSS 0000001000+00001314+00000+0001T   00001314+0000001402          1400 J92112               3DZ
132736003132736903-000095     132736006001704011495SWT SPECKLED-EGGS 100G 0000001000+00002104+00000+0001T   00002104+0000001402          1400 J92150               3DZ
132736004132736112-116038     132736006009681820246TCS CARRIER BAG MIDI   0000001000+00000035+00000+0001T   00000035+0000001402          1400 J92090               3DZ
132737000132737               132737               170213OH     1400+00000+OH0000010522+0000010522+000000000+000001475+0000011997+0000000000+I40000011997+0000000000+Z
132737001132737106-000901     132737006003000538058WATER BOTTLE 600ml     0000001000+00006139+00000+0001T   00006139+0000001404          1400 J92210               3DZ
132737002132737036-000615     132737006003000218769WASH-PEGS PL PCK-24    0000001000+00001753+00000+0001T   00001753+0000001404          1400 J92212               3DZ
132737003132737004-078991     132737006001023996855EARPHONES+EAR-CLIP 1.0m0000001000+00002630+00000+0001T   00002630+0000001404          1400 J92310               3DZ
132738000132738               132738               170213OH     1400+00000+OH0000003069+0000003069+000000000+000000430+0000003490+0000000009+I20000000000+0000003490+Z
132738001132738106-000899     132738006003000653287WTR BOTTLE 2L W/HANDLE 0000001000+00003069+00000+0001T   00003507+0008191405          1400 J92210               3DZ
132739000132739               132739               170213OH     1400+00000+OH0000005310+0000005310+000000000+000000744+0000006050+0000000004+I20000000000+0000006050+Z
132739001132739158-000167     132739006003000569588WASTEPAPER-BASKET 26cm 0000001000+00005262+00000+0001T   00005262+0000001408          1400 J92300               3DZ
132739002132739112-116069     132739006009681820277TCS CARRIER BAG JUMBO  0000001000+00000048+00000+0001T   00000048+0000001408          1400 J92090               3DZ
132740000132740               132740               170213OH     1400+00000+OH0000001050+0000001050+000000000+000000148+0000001190+0000000008+I20000000000+0000001190+Z
132740001132740903-000155     132740006009803374435SWT LOLLY I LUV U HEART0000002000+00000525+00000+0001T   00000525+0000001409          1400 J92150               3DZ
132741000132741               132741               170213OH     1400+00000+OH0000002630+0000002630+000000000+000000369+0000002990+0000000009+I20000000000+0000002990+Z
132741001132741072-020312     132741006003000605330PET TOY PUP STARTER PCK0000001000+00002630+00000+0001T   00002630+0000001415          1400 J92870               3DZ
132742000132742               132742               170213OH     1400+00000+OH0000010557+0000010557+000000000+000001479+0000012036+0000000000+I40000012036+0000000000+Z
132742001132742030-000031-A   132742006003000457588PLAQUE W/WORDS ASSTD   0000001000+00004385+00000+0001T   00004823+0006471417          1400 J92505               3DZ
132742002132742203-006502     132742006003000257454DRINK STIRRERS ASSTD   0000001000+00002630+00000+0001T   00002630+0000001417          1400 J92300               3DZ
132742003132742203-007000     132742006001023886040SHOT-GLASS DISPOSABLE  0000001000+00003507+00000+0001T   00003507+0000001417          1400 J92300               3DZ
132742004132742112-116038     132742006009681820246TCS CARRIER BAG MIDI   0000001000+00000035+00000+0001T   00000035+0000001417          1400 J92090               3DZ
132743000132743               132743               170213OH     1400+00000+OH0000016445+0000016445+000000000+000002304+0000018749+0000000000+I40000018749+0000000000+Z
132743001132743031-000924     132743006001023669964P/FRAME COLLAGE PL     0000001000+00008771+00000+0001T   00008771+0000001425          1400 J92510               3DZ
132743002132743077-000299     132743006003000395576G/BAG 32x25cm LRG LOVE 0000001000+00001490+00000+0001T   00001490+0000001425          1400 J92112               3DZ
132743003132743112-116069     132743006009681820277TCS CARRIER BAG JUMBO  0000001000+00000048+00000+0001T   00000048+0000001425          1400 J92090               3DZ
132743004132743565-000043     132743006003000109562NOVELTY BALL FUNNY FACE0000001000+00001753+00000+0001T   00001753+0000001425          1400 J92745               3DZ
132743005132743039-091783     132743006003000275434 CANDLE VOTIVE 4PC 50G 0000001000+00003507+00000+0001T   00003507+0000001425          1400 J92510               3DZ
132743006132743903-000221     132743006001704007382SWT EENY-MEENY-MOS 60G 0000001000+00000876+00000+0001T   00000876+0000001425          1400 J92150               3DZ
132744000132744               132744               170213OH     1400+00000+OH0000005262+0000005262+000000000+000000737+0000005990+0000000009+I20000000000+0000005990+Z
132744001132744107-004510     132744006002580008968STEP-STOOL PL          0000001000+00005262+00000+0001T   00005262+0000001427          1400 J92210               3DZ
132745000132745               132745               170213OH     1400+00000+OH0000061249+0000061249+000000000+000008582+0000069831+0000000000+I40000069831+0000000000+Z
132745001132745031-001007     132745006003000406784P/FRAME WDN CLG 20X95CM0000002000+00012279+00000+0001T   00012279+0000001431          1400 J92510               3DZ
132745002132745112-116069     132745006009681820277TCS CARRIER BAG JUMBO  0000001000+00000048+00000+0001T   00000048+0000001431          1400 J92090               3DZ
132745003132745019-000500-A   132745006003000245161VASE CER INSPIRATIONS  0000002000+00003507+00000+0001T   00003507+0000001431          1400 J92510               3DZ
132745004132745039-809558     132745006003000344376CANDLE PILLAR 12CM 4AST0000001000+00006139+00000+0001T   00006139+0000001431          1400 J92510               3DZ
132745005132745033-001400     132745006009654960474HAIR-CURLERS 10PCE SML 0000001000+00001227+00000+0001T   00001227+0000001431          1400 J92200               3DZ
132745006132745077-000349-B   132745006001023908315G/RIBBON 3ROLLS 12BOWS 0000001000+00002630+00000+0001T   00002630+0000001431          1400 J92112               3DZ
132745007132745088-000103     132745006008766127102INCENSE 20PCE ASSTD    0000002000+00000700+00000+0001T   00000700+0000001431          1400 J92212               3DZ
132745008132745306-007302     132745006001023730954BACK-SCRATCH+MASSAGE-WH0000001000+00001753+00000+0001T   00001753+0000001431          1400 J92200               3DZ
132745009132745033-001390     132745006003000667642HAIR PINS 4PC BUTTERFLY0000001000+00001753+00000+0001T   00001753+0000001431          1400 J92200               3DZ
132745010132745077-000011-C   132745006001023808523TISSUE 10xSHTS RED     0000001000+00000876+00000+0001T   00000876+0000001431          1400 J92112               3DZ
132745011132745159-000643     132745006001023767028BACK-BRUSH ASSTD       0000001000+00003507+00000+0001T   00003507+0000001431          1400 J92200               3DZ
132745012132745033-001401     132745006009654960481HAIR-CURLERS 8PCE MED  0000001000+00001227+00000+0001T   00001227+0000001431          1400 J92200               3DZ
132745013132745077-000381     132745006003000247707GIFT-BAG 25X32CM S/COL 0000001000+00001753+00000+0001T   00001753+0000001431          1400 J92112               3DZ
132745014132745033-001400     132745006009654960474HAIR-CURLERS 10PCE SML 0000001000+00001227+00000+0001T   00001227+0000001431          1400 J92200               3DZ
132745015132745033-000119     132745006003000285563COMBS PL STYLING 3PC   0000001000+00001753+00000+0001T   00001753+0000001431          1400 J92200               3DZ
132745016132745077-000924     132745006003000414055G/WRAP 700mmx2m WEDDING0000002000+00002192+00000+0001T   00002192+0000001431          1400 J92112               3DZ
132746000132746               132746               170213OH     1400+00000+OH0000007050+0000007050+000000000+000000988+0000008030+0000000008+I20000000000+0000008030+Z
132746001132746004-071207     132746006003000648917USB CABLE CHARGER FLAT 0000001000+00002630+00000+0001T   00002630+0000001432          1400 J92310               3DZ
132746002132746031-000868-D   132746006003000580330P/FRAME PL BLCK CERT.  0000001000+00004385+00000+0001T   00004385+0000001432          1400 J92510               3DZ
132746003132746112-116038     132746006009681820246TCS CARRIER BAG MIDI   0000001000+00000035+00000+0001T   00000035+0000001432          1400 J92090               3DZ
132747000132747               132747               170213OH     1400+00000+OH0000024166+0000024166+000000000+000003385+0000027550+0000000001+I20000000000+0000027550+Z
132747001132747112-116069     132747006009681820277TCS CARRIER BAG JUMBO  0000001000+00000048+00000+0001T   00000048+0000001434          1400 J92090               3DZ
132747002132747080-000127     132747006003000424351VALENTINES DAY 36x24CM 0000001000+00002192+00000+0001T   00002192+0000001434          1400 J92112               3DZ
132747003132747077-000299-A   132747006003000670888GIFT-BAG PAPER JMB LOVE0000001000+00001753+00000+0001T   00001753+0000001434          1400 J92112               3DZ
132747004132747368-000637     132747006001023874092PLUSH BEAR SLEEPING LOV0000001000+00011402+00000+0001T   00012279+0006471434          1400 J92745               3DZ
132747005132747031-086302-C   132747006001023910332P/FRAME COLL. PL 3-HOLE0000001000+00008771+00000+0001T   00008771+0000001434          1400 J92510               3DZ
132748000132748               132748               170213OH     1400+00000+OH0000007016+0000007016+000000000+000000983+0000007999+0000000000+I40000007999+0000000000+Z
132748001132748031-007006     132748006003000466108P/FRM WDN G/STRESSED   0000001000+00007016+00000+0001T   00007016+0000001436          1400 J92510               3DZ
132749000132749               132749               170213OH     1400+00000+OH0000002629+0000002629+000000000+000000369+0000002990+0000000008+I20000000000+0000002990+Z
132749001132749018-000170     132749006001023775528MUG OCC. LOVE 2PC MINI 0000001000+00002192+00000+0001T   00002192+0000001437          1400 J92515               3DZ
132749002132749903-000012     132749006002099007308SWT MALLOW S/BERRY     0000001000+00000437+00000+0001T   00000437+0000001437          1400 J92150               3DZ
132750000132750               132750               170213OH     1400+00000+OH0000001840+0000001840+000000000+000000258+0000002090+0000000008+I20000000000+0000002090+Z
132750001132750200-000092     132750006003000576739PICNIC PAPER PLATES 23c0000001000+00001227+00000+0001T   00001227+0000001442          1400 J92214               3DZ
132750002132750027-078282     132750006001023767837SCOURER 25g SPIRAL-BALL0000001000+00000613+00000+0001T   00000613+0000001442          1400 J92212               3DZ
132751000132751               132751               170213OH     1400+00000+OH0000025424+0000025424+000000000+000003564+0000028988+0000000000+I40000028988+0000000000+Z
132751001132751486-002316     132751006003000335602WALL-CLOCK QTZ RND 30CM0000001000+00008771+00000+0001T   00008771+0000001446          1400 J92510               3DZ
132751002132751089-000504     132751006001023701886KEY-CHAIN SNAP-HOOK    0000004000+00001753+00000+0001T   00001753+0000001446          1400 J92205               3DZ
132751003132751071-010481     132751006001023417220MAGNIFYING-GLASS 90mm-D0000002000+00001753+00000+0001T   00001753+0000001446          1400 J92130               3DZ
132751004132751007-000160     132751006009685857286NOTE-BOOK A5 SHORTHAND 0000003000+00001227+00000+0001T   00001227+0000001446          1400 J92130               3DZ
132751005132751007-000206     132751006009635830215X/PAD 80-SHEETS PUNCHED0000002000+00001227+00000+0001T   00001227+0000001446          1400 J92130               3DZ
132752000132752               132752               170213OH     1400+00000+OH0000003977+0000003977+000000000+000000558+0000004530+0000000005+I20000000000+0000004530+Z
132752001132752018-000177     132752006001023797513MUG MINI LOVE ASSTD    0000001000+00000700+00000+0001T   00000700+0000001450          1400 J92515               3DZ
132752002132752077-000452     132752006003000284986G/BAG METALLIC MED EMB 0000001000+00001490+00000+0001T   00001490+0000001450          1400 J92112               3DZ
132752003132752077-000011-C   132752006001023808523TISSUE 10xSHTS RED     0000001000+00000876+00000+0001T   00000876+0000001450          1400 J92112               3DZ
132752004132752077-000011-D   132752006001023808554TISSUE-WRAP WHITE 10PCE0000001000+00000876+00000+0001T   00000876+0000001450          1400 J92112               3DZ
132752005132752112-116038     132752006009681820246TCS CARRIER BAG MIDI   0000001000+00000035+00000+0001T   00000035+0000001450          1400 J92090               3DZ
132753000132753               132753               170213OH     1400+00000+OH0000003507+0000003507+000000000+000000491+0000003990+0000000008+I20000000000+0000003990+Z
132753001132753018-005009     132753006001023725608MUG W/PLUSH-BEAR LOVE  0000001000+00003507+00000+0001T   00003507+0000001451          1400 J92515               3DZ
132754000132754               132754               170213OH     1400+00000+OH0000000700+0000000700+000000000+000000098+0000000790+0000000008+I20000000000+0000000790+Z
132754001132754018-000177     132754006001023797513MUG MINI LOVE ASSTD    0000001000+00000700+00000+0001T   00000700+0000001452          1400 J92515               3DZ
132755000132755               132755               170213OH     1400+00000+OH0000002804+0000002804+000000000+000000393+0000003197+0000000000+I10000001997+0000001200+Z
132755001132755077-000299     132755006003000395576G/BAG 32x25cm LRG LOVE 0000001000+00001490+00000+0001T   00001490+0000001454          1400 J92112               3DZ
132755002132755903-000844     132755005010478432567SWT CANDY DL LUV HEARTS0000001000+00001314+00000+0001T   00001314+0000001454          1400 J92150               3DZ
132756000132756               132756               170213OH     1400+00000+OH0000017849+0000017849+000000000+000002501+0000020350+0000000000+I20000000000+0000020350+Z
132756001132756034-091340     132756006001023754370BABY-BIB PRINT MUM/DAD 0000001000+00003069+00000+0001T   00003069+0000001455          1400 J92215               3DZ
132756002132756562-006275     132756006001023836182EDU BOARD W/MARKER ASST0000001000+00007016+00000+0001T   00007016+0000001455          1400 J92755               3DZ
132756003132756464-000200     132756006001023490988GAME PICK-UP STIX      0000001000+00001578+00000+0001T   00001578+0000001455          1400 J92785               3DZ
132756004132756264-000925-351 132756006003000642205BURAGO 1:64 FERRARI    0000001000+00004385+00000+0001T   00006139+0008131455          1400 J92710               3DZ
132756005132756077-000906     132756006003000410804G/WRAP 700mmx1m BIRTHDA0000001000+00001753+00000+0001T   00001753+0000001455          1400 J92112               3DZ
132756006132756112-116069     132756006009681820277TCS CARRIER BAG JUMBO  0000001000+00000048+00000+0001T   00000048+0000001455          1400 J92090               3DZ
132757000132757               132757               170213OH     1400+00000+OH0000004718+0000004718+000000000+000000662+0000005380+0000000000+I20000000000+0000005380+Z
132757001132757079-009700-D   132757006003000545711PAPER SIRIO A4 RED COL.0000005000+00000306+00000+0001T   00000306+0000001501          1400 J92130               3DZ
132757002132757206-000135     132757006003000680450T/BAG HLDR SILICONE    0000001000+00001753+00000+0001T   00001753+0000001501          1400 J92321               3DZ
132757003132757567-010542     132757009781743461792PIXIE HELLO KITTY ASSTD0000001000+00000700+00000+0001T   00000876+0008131501          1400 J92757               3DZ
132757004132757567-010542     132757009781743461730PIXIE HELLO KITTY ASSTD0000001000+00000700+00000+0001T   00000876+0008131501          1400 J92757               3DZ
132757005132757112-116038     132757006009681820246TCS CARRIER BAG MIDI   0000001000+00000035+00000+0001T   00000035+0000001501          1400 J92090               3DZ
132758000132758               132758               170213OH     1400+00000+OH0000001753+0000001753+000000000+000000246+0000001990+0000000009+I20000000000+0000001990+Z
132758001132758080-000122     132758006003000237678CARD & ENVLPE -GET WELL0000001000+00001753+00000+0001T   00001753+0000001505          1400 J92112               3DZ
132759000132759               132759               170213OH     1400+00000+OH0000028989+0000028989+000000000+000004061+0000033050+0000000000+I40000033050+0000000000+Z
132759001132759565-000002     132759006003000308071NOVELTY GROWING ANIMALS0000001000+00001753+00000+0001T   00001753+0000001507          1400 J92745               3DZ
132759002132759046-000005     132759004897006174844BATTERY 9VOLT ALKALINE 0000001000+00003507+00000+0001T   00003507+0000001507          1400 J92312               3DZ
132759003132759046-000011-A   132759006003000438891BATTERIES SIZE:AA  4PCE0000001000+00002630+00000+0001T   00002630+0000001507          1400 J92312               3DZ
132759004132759112-116069     132759006009681820277TCS CARRIER BAG JUMBO  0000001000+00000048+00000+0001T   00000048+0000001507          1400 J92090               3DZ
132759005132759265-000316     132759006001023877536CAR RADIO-CONTROL      0000001000+00021051+00000+0001T   00021928+0008191507          1400 J92710               3DZ
132760000132760               132760               170213OH     1400+00000+OH0000025917+0000025917+000000000+000003631+0000029540+0000000008+I20000000000+0000029540+Z
132760001132760030-004015     132760006003000467624PLAQUE WDN SIGN 30X20CM0000001000+00009648+00000+0001T   00009648+0000001508          1400 J92505               3DZ
132760002132760072-020262     132760006003000305254PET DOG-CHEW TYRE LARGE0000001000+00004385+00000+0001T   00004385+0000001508          1400 J92870               3DZ
132760003132760072-020298     132760006003000561629DOG-TOY TUG-ROPE ASSTD 0000001000+00003069+00000+0001T   00003069+0000001508          1400 J92870               3DZ
132760004132760112-116069     132760006009681820277TCS CARRIER BAG JUMBO  0000001000+00000048+00000+0001T   00000048+0000001508          1400 J92090               3DZ
132760005132760072-020309     132760006001023700995DOG-TOY DUMBELL F/BALL 0000001000+00002630+00000+0001T   00002630+0000001508          1400 J92870               3DZ
132760006132760072-020310     132760006001023701015PET TOY MINI TENNIS BAL0000001000+00003507+00000+0001T   00003507+0000001508          1400 J92870               3DZ
132760007132760206-000220     132760006003000631704EGG TIMER COLOUR-CHANGE0000001000+00002630+00000+0001T   00002630+0000001508          1400 J92321               3DZ
132761000132761               132761               170213OH     1400+00000+OH0000021048+0000021048+000000000+000002948+0000023996+0000000000+I40000023996+0000000000+Z
132761001132761567-010161     132761009780000008516BOOK TOP ASSTD MILLS   0000004000+00005262+00000+0001T   00005262+0000001511          1400 J92757               3DZ
132762000132762               132762               170213OH     1400+00000+OH0000027661+0000027661+000000000+000003880+0000031541+0000000000+I40000031541+0000000000+Z
132762001132762112-116069     132762006009681820277TCS CARRIER BAG JUMBO  0000001000+00000048+00000+0001T   00000048+0000001513          1400 J92090               3DZ
132762002132762903-000121     132762006002099001689SWT GS ZILLIONS SOURS  0000001000+00000700+00000+0001T   00000700+0000001513          1400 J92150               3DZ
132762003132762106-001119     132762006003000449972WATER BOTTLE ALUM 750ml0000003000+00003946+00000+0001T   00005262+0008171513          1400 J92210               3DZ
132762004132762079-013032-J   132762006003000542710A&C DIY COLOUR P/FLOWER0000001000+00001753+00000+0001T   00001753+0000001513          1400 J92130               3DZ
132762005132762560-000107     132762006003000547906DOMESTIC 3PC MINI PETS 0000006000+00001753+00000+0001T   00001753+0000001513          1400 J92745               3DZ
132762006132762079-013032-I   132762006003000542550ART+CRAFT DIY EVA FOAM 0000001000+00001753+00000+0001T   00001753+0000001513          1400 J92130               3DZ
132762007132762903-002851     132762000000087108538MENTOS ROLL STRAWBERRY 0000001000+00001051+00000+0001T   00001051+0000001513          1400 J92150               3DZ
132763000132763               132763               170213OH     1400+00000+OH0000013177+0000013177+000000000+000001847+0000015024+0000000000+I40000015024+0000000000+Z
132763001132763112-116038     132763006009681820246TCS CARRIER BAG MIDI   0000001000+00000035+00000+0001T   00000035+0000001515          1400 J92090               3DZ
132763002132763306-000024-A   132763006003000577309COTTON-WOOL-PADS 80PC  0000001000+00001753+00000+0001T   00001753+0000001515          1400 J92200               3DZ
132763003132763565-000256     132763006003000609826NOVELTY GLOW SLIME     0000003000+00000700+00000+0001T   00000700+0000001515          1400 J92745               3DZ
132763004132763564-000012     132763006001023130075BUBBLE BOTTLE MAGIC    0000001000+00000700+00000+0001T   00000700+0000001515          1400 J92131               3DZ
132763005132763306-000021     132763006001023169433EARBUDS 100PCE IN BAG  0000001000+00000613+00000+0001T   00000613+0000001515          1400 J92200               3DZ
132763006132763071-005213     132763006001023690371CELLOTAPE 12mmx33m     0000001000+00000876+00000+0001T   00000876+0000001515          1400 J92130               3DZ
132763007132763071-003011     132763006001023762825PEN STICKBALL X10 ASSTD0000001000+00001753+00000+0001T   00001753+0000001515          1400 J92130               3DZ
132763008132763565-000044     132763006003000128280BARREL OF SLIME 100g   0000001000+00000613+00000+0001T   00000613+0000001515          1400 J92745               3DZ
132763009132763007-000561     132763006003000589128NOVELTY NOTEBOOK       0000001000+00003507+00000+0001T   00003507+0000001515          1400 J92130               3DZ
132763010132763903-000510     132763006001704012621SWEET MS ZBDZ S/BERRY  0000001000+00001227+00000+0001T   00001227+0000001515          1400 J92150               3DZ
132764000132764               132764               170213OH     1400+00000+OH0000008767+0000008767+000000000+000001228+0000009990+0000000005+I20000000000+0000009990+Z
132764001132764018-000136     132764006001023659026MUG OCC LOVE W/PLUSH   0000001000+00003507+00000+0001T   00003507+0000001515          1400 J92515               3DZ
132764002132764903-000090     132764006009826020821SWT GS CHOCO COINS 60g 0000001000+00002104+00000+0001T   00002104+0000001515          1400 J92150               3DZ
132764003132764077-000303     132764006001023593757GIFT-BAG PAPER MED     0000002000+00001578+00000+0001T   00001578+0000001515          1400 J92112               3DZ
132765000132765               132765               170213OH     1400+00000+OH0000018983+0000018983+000000000+000002662+0000021640+0000000005+I20000000000+0000021640+Z
132765001132765077-000303     132765006001023593757GIFT-BAG PAPER MED     0000002000+00001578+00000+0001T   00001578+0000001517          1400 J92112               3DZ
132765002132765362-003004     132765006003000294961HAIR CLIPS             0000003000+00001753+00000+0001T   00001753+0000001517          1400 J92160               3DZ
132765003132765362-003008     132765006003000295524HAIR ACCESS SET PVC BOX0000001000+00002192+00000+0001T   00002630+0008191517          1400 J92160               3DZ
132765004132765362-001103     132765006001023793515JWLRY GRL ASS 2PC ASSTD0000002000+00001753+00000+0001T   00001753+0000001517          1400 J92160               3DZ
132765005132765362-003008     132765006003000295524HAIR ACCESS SET PVC BOX0000001000+00002192+00000+0001T   00002630+0008191517          1400 J92160               3DZ
132765006132765104-000031     132765006003000614950BASKET PL 27x18x12cm   0000001000+00002630+00000+0001T   00002630+0000001517          1400 J92210               3DZ
132765007132765112-116069     132765006009681820277TCS CARRIER BAG JUMBO  0000001000+00000048+00000+0001T   00000048+0000001517          1400 J92090               3DZ
132766000132766               132766               170213OH     1400+00000+OH0000025381+0000025381+000000000+000003601+0000028982+0000000000+I40000028982+0000000000+Z
132766001132766080-000133     132766006003000535613CARD&ENV MINI ASTD DSGN0000058000+00000437+00000+0001T   00000437+0000001522          1400 J92112               3DZ
132766002132766112-116038     132766006009681820246TCS CARRIER BAG MIDI   0000001000+00000035+00000+0001T   00000035+0000001522          1400 J92090               3DZ
132767000132767               132767               170213OH     1400+00000+OH0000007925+0000007925+000000000+000001112+0000009037+0000000000+I40000009037+0000000000+Z
132767001132767018-000129     132767006001023403353MUG OCC. LOVE V-SHAPE  0000003000+00002630+00000+0001T   00002630+0000001524          1400 J92515               3DZ
132767002132767112-116038     132767006009681820246TCS CARRIER BAG MIDI   0000001000+00000035+00000+0001T   00000035+0000001524          1400 J92090               3DZ
132768000132768               132768               170213OH     1400+00000+OH0000014059+0000014059+000000000+000001971+0000016030+0000000000+I40000016030+0000000000+Z
132768001132768077-000321     132768006001023677501GIFT-BAG 11X14CM E/D FL0000002000+00000613+00000+0001T   00000613+0000001526          1400 J92112               3DZ
132768002132768903-000155     132768006009803374435SWT LOLLY I LUV U HEART0000002000+00000525+00000+0001T   00000525+0000001526          1400 J92150               3DZ
132768003132768030-000031-A   132768006003000457588PLAQUE W/WORDS ASSTD   0000001000+00004385+00000+0001T   00004823+0006471526          1400 J92505               3DZ
132768004132768077-000452     132768006003000284986G/BAG METALLIC MED EMB 0000002000+00001490+00000+0001T   00001490+0000001526          1400 J92112               3DZ
132768005132768903-000844     132768005010478432567SWT CANDY DL LUV HEARTS0000001000+00001314+00000+0001T   00001314+0000001526          1400 J92150               3DZ
132768006132768089-060027     132768006003000245871KEY-CHAIN HEART 6X6cm  0000001000+00003069+00000+0001T   00003069+0000001526          1400 J92205               3DZ
132768007132768112-116038     132768006009681820246TCS CARRIER BAG MIDI   0000001000+00000035+00000+0001T   00000035+0000001526          1400 J92090               3DZ
132769000132769               132769               170213OH     1400+00000+OH0000005260+0000005260+000000000+000000737+0000005990+0000000007+I20000000000+0000005990+Z
132769001132769018-000136     132769006001023659026MUG OCC LOVE W/PLUSH   0000001000+00003507+00000+0001T   00003507+0000001527          1400 J92515               3DZ
132769002132769080-000113     132769006003000237449CARD&ENVLPE - LOVE     0000001000+00001753+00000+0001T   00001753+0000001527          1400 J92112               3DZ
132770000132770               132770               170213OH     1400+00000+OH0000001578+0000001578+000000000+000000221+0000001790+0000000009+I20000000000+0000001790+Z
132770001132770077-000303     132770006001023593757GIFT-BAG PAPER MED     0000001000+00001578+00000+0001T   00001578+0000001527          1400 J92112               3DZ
132771000132771               132771               170213OH     1400+00000+OH0000001753+0000001753+000000000+000000246+0000001990+0000000009+I20000000000+0000001990+Z
132771001132771078-000030     132771006003000151141YAMAYO SUPERGLUE 8g    0000001000+00001753+00000+0001T   00001753+0000001535          1400 J92810               3DZ
132772000132772               132772               170213OH     1400+00000+OH0000005643+0000005643+000000000+000000791+0000006430+0000000004+I20000000000+0000006430+Z
132772001132772006-000166-C   132772006003000516377BALLOONS LRG 6PC PINK  0000001000+00001314+00000+0001T   00001314+0000001536          1400 J92131               3DZ
132772002132772006-000166-H   132772006003000608096BALLOONS HELIUM 6PC WHT0000001000+00001314+00000+0001T   00001314+0000001536          1400 J92131               3DZ
132772003132772006-000120     132772006001023346889BALLOONS 10PC MIX COL  0000001000+00001753+00000+0001T   00001753+0000001536          1400 J92131               3DZ
132772004132772077-000245     132772006001023759214GIFT-RIBBON METALLICx2 0000001000+00001227+00000+0001T   00001227+0000001536          1400 J92112               3DZ
132772005132772112-116038     132772006009681820246TCS CARRIER BAG MIDI   0000001000+00000035+00000+0001T   00000035+0000001536          1400 J92090               3DZ
132773000132773               132773               170213OH     1400+00000+OH0000000877-0000000877-000000000+000000123-0000001000-0000000000+I20000000000+0000001000-Z
132773001132773078-000030     132773006003000151141YAMAYO SUPERGLUE 8g    0000001000-00001753+00000+0001T   00001753+0000001536          1400 J928103IC            3 Z
132773002132773078-000025     132773008887013700064SUPERGLUE 3g 1PCE CARD 0000001000+00000876+00000+0001T   00000876+0000001536          1400 J92810               3 Z
132774000132774               132774               170213OH     1400+00000+OH0000006182+0000006182+000000000+000000868+0000007050+0000000000+I40000007050+0000000000+Z
132774001132774077-000309     132774006001023608604GIFT-BAG 25X32CM GLOSS 0000001000+00001753+00000+0001T   00001753+0000001540          1400 J92112               3DZ
132774002132774079-013101     132774006001023863706CRAFT SET DIY PIPE-CLNR0000001000+00002630+00000+0001T   00002630+0000001540          1400 J92130               3DZ
132774003132774903-000898     132774006922516801503SWT POPPING CANDY      0000001000+00001139+00000+0001T   00001139+0000001540          1400 J92150               3DZ
132774004132774112-116069     132774006009681820277TCS CARRIER BAG JUMBO  0000001000+00000048+00000+0001T   00000048+0000001540          1400 J92090               3DZ
132774005132774079-009700-L   132774006003000546350PAPER SIRIO A4 YELLOW  0000001000+00000306+00000+0001T   00000306+0000001540          1400 J92130               3DZ
132774006132774079-009700-J   132774006003000546190PAPER SIRIO A4 BLUE    0000001000+00000306+00000+0001T   00000306+0000001540          1400 J92130               3DZ
132775000132775               132775               170213OH     1400+00000+OH0000014467+0000014467+000000000+000002028+0000016495+0000000000+I40000016495+0000000000+Z
132775001132775006-000800     132775006001023902801HAT CABARET 14x18cm    0000001000+00001753+00000+0001T   00001753+0000001544          1400 J92131               3DZ
132775002132775082-098798     132775006001492987989SUNGLASS KIDS BOYS     0000001000+00003946+00000+0001T   00003946+0000001544          1400 J92160               3DZ
132775003132775366-002695     132775006003000222766DRESS UP HAT ROUND GLIT0000001000+00002192+00000+0001T   00002192+0000001544          1400 J92131               3DZ
132775004132775079-013032-H   132775006003000496501GLITTER PRINCESS ACC   0000001000+00002630+00000+0001T   00002630+0000001544          1400 J92130               3DZ
132775005132775082-012383     132775006001492123837#SUNGLASS KIDS OVAL    0000001000+00003946+00000+0001T   00003946+0000001544          1400 J92160               3DZ
132776000132776               132776               170213OH     1400+00000+OH0000004385+0000004385+000000000+000000614+0000004999+0000000000+I40000004999+0000000000+Z
132776001132776007-000711     132776006003000227518NOTE-BK A5 WIRE 80SHTS 0000001000+00004385+00000+0001T   00004385+0000001546          1400 J92130               3DZ
132777000132777               132777               170213OH     1400+00000+OH0000002630+0000002630+000000000+000000369+0000002990+0000000009+I20000000000+0000002990+Z
132777001132777084-009410     132777006001023477651SCISSORS 21cm PL-HANDLE0000001000+00002630+00000+0001T   00002630+0000001546          1400 J92200               3DZ
132778000132778               132778               170213OH     1400+00000+OH0000002192+0000002192+000000000+000000307+0000002490+0000000009+I20000000000+0000002490+Z
132778001132778080-000127     132778006003000424351VALENTINES DAY 36x24CM 0000001000+00002192+00000+0001T   00002192+0000001547          1400 J92112               3DZ
132779000132779               132779               170213OH     1400+00000+OH0000010525+0000010525+000000000+000001474+0000011990+0000000009+I20000000000+0000011990+Z
132779001132779369-061024     132779006008766061024SOFT BALLS W/BELL 4PC  0000001000+00010525+00000+0001T   00010525+0000001551          1400 J92745               3DZ
132780000132780               132780               170213OH     1400+00000+OH0000001753+0000001753+000000000+000000246+0000001990+0000000009+I20000000000+0000001990+Z
132780001132780077-000115     132780006001023834225WRAP METALLIC 700mmx1m 0000001000+00001753+00000+0001T   00001753+0000001554          1400 J92112               3DZ
132781000132781               132781               170213OH     1400+00000+OH0000002192+0000002192+000000000+000000307+0000002490+0000000009+I20000000000+0000002490+Z
132781001132781251-000002     132781006003000093991TAPE D-SIDED 24x1000mm 0000001000+00002192+00000+0001T   00002192+0000001555          1400 J92810               3DZ
132782000132782               132782               170213OH     1400+00000+OH0000010257+0000010257+000000000+000001438+0000011695+0000000000+I40000011695+0000000000+Z
132782001132782018-019000     132782006003000557288MUG OCC. LOVE JUMBO    0000001000+00005262+00000+0001T   00005262+0000001559          1400 J92515               3DZ
132782002132782079-013032-D   132782006003000389643RIBBONS                0000001000+00002630+00000+0001T   00002630+0000001559          1400 J92130               3DZ
132782003132782079-009700-E   132782006003000545797PAPER SIRIO A4 GREY    0000001000+00000306+00000+0001T   00000306+0000001559          1400 J92130               3DZ
132782004132782079-009700-D   132782006003000545711PAPER SIRIO A4 RED COL.0000001000+00000306+00000+0001T   00000306+0000001559          1400 J92130               3DZ
132782005132782566-000865     132782006001023788412STICKER ASSTD          0000001000+00001753+00000+0001T   00001753+0000001559          1400 J92130               3DZ
132783000132783               132783               170213OH     1400+00000+OH0000015628+0000015628+000000000+000002191+0000017819+0000000000+I40000017819+0000000000+Z
132783001132783903-000844     132783005010478432567SWT CANDY DL LUV HEARTS0000005000+00001314+00000+0001T   00001314+0000001602          1400 J92150               3DZ
132783002132783112-116038     132783006009681820246TCS CARRIER BAG MIDI   0000001000+00000035+00000+0001T   00000035+0000001602          1400 J92090               3DZ
132783003132783077-000311     132783006001023608666GIFT-BAG 11X14CM GLOSS 0000002000+00000613+00000+0001T   00000613+0000001602          1400 J92112               3DZ
132783004132783006-000166-C   132783006003000516377BALLOONS LRG 6PC PINK  0000001000+00001314+00000+0001T   00001314+0000001602          1400 J92131               3DZ
132783005132783903-000844     132783005010478432567SWT CANDY DL LUV HEARTS0000001000+00001314+00000+0001T   00001314+0000001602          1400 J92150               3DZ
132783006132783077-000314     132783006003000181148GIFT-BAG 11X14CM MATT  0000001000+00000876+00000+0001T   00000876+0000001602          1400 J92112               3DZ
132783007132783903-000183     132783006003000451043SWT LB HEART LOLLY     0000002000+00000393+00000+0001T   00000393+0000001602          1400 J92150               3DZ
132783008132783071-005060     132783006003000152186CELLOTAPE 2PACK INVSBLE0000001000+00003507+00000+0001T   00003507+0000001602          1400 J92130               3DZ
132784000132784               132784               170213OH     1400+00000+OH0000017564+0000017564+000000000+000002464+0000020028+0000000000+I40000020028+0000000000+Z
132784001132784112-116038     132784006009681820246TCS CARRIER BAG MIDI   0000001000+00000035+00000+0001T   00000035+0000001604          1400 J92090               3DZ
132784002132784903-000619     132784006003000672455SWT LOLLY STR/BRRY 140G0000001000+00001753+00000+0001T   00001753+0000001604          1400 J92150               3DZ
132784003132784048-000870     132784006003000525287LANTERN B/LIGHT MINI   0000002000+00003507+00000+0001T   00003507+0000001604          1400 J92305               3DZ
132784004132784077-000302     132784008010410010195GIFT-BAG 18X23CM E/D   0000002000+00000876+00000+0001T   00000876+0000001604          1400 J92112               3DZ
132784005132784903-000094     132784006923431501622SWT GS CANDY NECKLACE  0000001000+00000437+00000+0001T   00000437+0000001604          1400 J92150               3DZ
132784006132784903-000618     132784006003000672370SWT LOLLY RAINBOW GIANT0000001000+00001753+00000+0001T   00001753+0000001604          1400 J92150               3DZ
132784007132784903-000094     132784006923431501622SWT GS CANDY NECKLACE  0000001000+00000437+00000+0001T   00000437+0000001604          1400 J92150               3DZ
132784008132784142-000812     132784006003000165421GLOVES LATEX 10PCE-5PRS0000001000+00002630+00000+0001T   00002630+0000001604          1400 J92810               3DZ
132784009132784204-000001     132784006003000575558M/HOLD BOTTLE OPENER   0000001000+00001753+00000+0001T   00001753+0000001604          1400 J92300               3DZ
132785000132785               132785               170213OH     1400+00000+OH0000021075+0000021075+000000000+000002957+0000024032+0000000000+I40000024032+0000000000+Z
132785001132785079-000273     132785006003000160327PAINT BRUSHES THICK    0000003000+00002630+00000+0001T   00002630+0000001613          1400 J92130               3DZ
132785002132785112-116038     132785006009681820246TCS CARRIER BAG MIDI   0000001000+00000035+00000+0001T   00000035+0000001613          1400 J92090               3DZ
132785003132785079-000273     132785006003000160327PAINT BRUSHES THICK    0000005000+00002630+00000+0001T   00002630+0000001613          1400 J92130               3DZ
132786000132786               132786               170213OH     1400+00000+OH0000002366+0000002366+000000000+000000332+0000002698+0000000000+I40000002698+0000000000+Z
132786001132786007-000206     132786006009635830215X/PAD 80-SHEETS PUNCHED0000001000+00001227+00000+0001T   00001227+0000001615          1400 J92130               3DZ
132786002132786007-000302     132786006009635830000BOOK H/COVER A4 96-PAGE0000001000+00001139+00000+0001T   00001139+0000001615          1400 J92130               3DZ
132787000132787               132787               170213OH     1400+00000+OH0000012922+0000012922+000000000+000001811+0000014733+0000000000+I40000014733+0000000000+Z
132787001132787077-000011-C   132787006001023808523TISSUE 10xSHTS RED     0000001000+00000876+00000+0001T   00000876+0000001621          1400 J92112               3DZ
132787002132787006-000190     132787006003000685530BALLOONS LOVE 81x91cm  0000001000+00004385+00000+0001T   00004385+0000001621          1400 J92131               3DZ
132787003132787077-000452     132787006003000284986G/BAG METALLIC MED EMB 0000002000+00001490+00000+0001T   00001490+0000001621          1400 J92112               3DZ
132787004132787018-000136     132787006001023659026MUG OCC LOVE W/PLUSH   0000001000+00003507+00000+0001T   00003507+0000001621          1400 J92515               3DZ
132787005132787112-116038     132787006009681820246TCS CARRIER BAG MIDI   0000001000+00000035+00000+0001T   00000035+0000001621          1400 J92090               3DZ
132787006132787903-000087     132787006001704000161SWT SPECKLED-EGGS 50G  0000001000+00001139+00000+0001T   00001139+0000001621          1400 J92150               3DZ
132788000132788               132788               170213OH     1400+00000+OH0000028102+0000028102+000000000+000003941+0000032043+0000000000+I40000032043+0000000000+Z
132788001132788368-000111     132788006001023780812PLUSH BEAR/DOG 29CM    0000001000+00012279+00000+0001T   00012279+0000001626          1400 J92745               3DZ
132788002132788112-116069     132788006009681820277TCS CARRIER BAG JUMBO  0000001000+00000048+00000+0001T   00000048+0000001626          1400 J92090               3DZ
132788003132788006-000093     132788006003000539932PARTY BANNER FLAGS ASST0000003000+00001753+00000+0001T   00001753+0000001626          1400 J92131               3DZ
132788004132788007-000324     13278800600968585864125 SHEETS BRIGHTS MARLI0000001000+00003507+00000+0001T   00003507+0000001626          1400 J92130               3DZ
132788005132788077-000011-D   132788006001023808554TISSUE-WRAP WHITE 10PCE0000001000+00000876+00000+0001T   00000876+0000001626          1400 J92112               3DZ
132788006132788077-000299-A   132788006003000670888GIFT-BAG PAPER JMB LOVE0000001000+00001753+00000+0001T   00001753+0000001626          1400 J92112               3DZ
132788007132788089-060027     132788006003000245871KEY-CHAIN HEART 6X6cm  0000001000+00003069+00000+0001T   00003069+0000001626          1400 J92205               3DZ
132788008132788903-000155     132788006009803374435SWT LOLLY I LUV U HEART0000001000+00000525+00000+0001T   00000525+0000001626          1400 J92150               3DZ
132788009132788903-000183     132788006003000451043SWT LB HEART LOLLY     0000002000+00000393+00000+0001T   00000393+0000001626          1400 J92150               3DZ
132789000132789               132789               170213OH     1400+00000+OH0000012836+0000012836+000000000+000001799+0000014635+0000000000+I40000014635+0000000000+Z
132789001132789903-000155     132789006009803374435SWT LOLLY I LUV U HEART0000002000+00000525+00000+0001T   00000525+0000001628          1400 J92150               3DZ
132789002132789007-000614     132789006001023768667DIARY W/LOCK+PEN LOVE  0000002000+00005262+00000+0001T   00005262+0000001628          1400 J92130               3DZ
132789003132789903-000111     132789006001704006378SWT LIQUORICE-TWISTS   0000001000+00001227+00000+0001T   00001227+0000001628          1400 J92150               3DZ
132789004132789112-116038     132789006009681820246TCS CARRIER BAG MIDI   0000001000+00000035+00000+0001T   00000035+0000001628          1400 J92090               3DZ
132790000132790               132790               170213OH     1400+00000+OH0000011169+0000011169+000000000+000001565+0000012734+0000000000+I40000012734+0000000000+Z
132790001132790112-116038     132790006009681820246TCS CARRIER BAG MIDI   0000001000+00000035+00000+0001T   00000035+0000001632          1400 J92090               3DZ
132790002132790560-000102     132790006001023746979ANIMALS FARM IN-TUBE   0000001000+00003507+00000+0001T   00003507+0000001632          1400 J92745               3DZ
132790003132790560-000104     132790006001023747037ANIMALS WILD IN-TUBE   0000001000+00003507+00000+0001T   00003507+0000001632          1400 J92745               3DZ
132790004132790079-006494     132790006003000159864GLITTER GLUE 5PCE 11cm 0000001000+00001490+00000+0001T   00001490+0000001632          1400 J92130               3DZ
132790005132790079-013101     132790006001023863706CRAFT SET DIY PIPE-CLNR0000001000+00002630+00000+0001T   00002630+0000001632          1400 J92130               3DZ
132791000132791               132791               170213OH     1400+00000+OH0000000437+0000000437+000000000+000000062+0000000490+0000000009+I20000000000+0000000490+Z
132791001132791083-000049     132791004891035200024CIG-LIGHTER DISPOSABLE 0000001000+00000437+00000+0001T   00000437+0000001633          1400 J92315               3DZ
132792000132792               132792               170213OH     1400+00000+OH0000010524-0000010524-000000000+000001474-0000011998-0000000000+I40000011998-0000000000+Z
132792001132792007-000614     132792006001023768667DIARY W/LOCK+PEN LOVE  0000002000-00005262+00000+0001T   00005262+0000001636          1400 J921302IC            3 Z
132793000132793               132793               170213OH     1400+00000+OH0000006168+0000006168+000000000+000000866+0000007030+0000000004+I20000000000+0000007030+Z
132793001132793006-000220-B   132793006001023890870PARTY TABLE-CLOTH BOY  0000001000+00002630+00000+0001T   00002630+0000001638          1400 J92131               3DZ
132793002132793006-000167-C   132793006003000516971BALLOONS PINK METALLIC 0000001000+00001314+00000+0001T   00001314+0000001638          1400 J92131               3DZ
132793003132793006-000118     132793006001023730725BALLOONS 6PC TWISTER   0000001000+00001753+00000+0001T   00001753+0000001638          1400 J92131               3DZ
132793004132793903-000671     132793006009803358015SWT SHERBET BLUE LIPS  0000002000+00000218+00000+0001T   00000218+0000001638          1400 J92150               3DZ
132793005132793112-116038     132793006009681820246TCS CARRIER BAG MIDI   0000001000+00000035+00000+0001T   00000035+0000001638          1400 J92090               3DZ
132794000132794               132794               170213OH     1400+00000+OH0000016649+0000016649+000000000+000002333+0000018982+0000000000+I40000018982+0000000000+Z
132794001132794077-000303     132794006001023593757GIFT-BAG PAPER MED     0000001000+00001578+00000+0001T   00001578+0000001640          1400 J92112               3DZ
132794002132794001-091415     132794006003000329113W/GLS OCC. LOVE 2PC 2800000001000+00008771+00000+0001T   00009648+0006471640          1400 J92515               3DZ
132794003132794018-000177     132794006001023797513MUG MINI LOVE ASSTD    0000006000+00000700+00000+0001T   00000700+0000001640          1400 J92515               3DZ
132794004132794903-000155     132794006009803374435SWT LOLLY I LUV U HEART0000004000+00000525+00000+0001T   00000525+0000001640          1400 J92150               3DZ
132795000132795               132795               170213OH     1400+00000+OH0000004384+0000004384+000000000+000000614+0000004990+0000000008+I20000000000+0000004990+Z
132795001132795077-000309-A   132795006003000671007GIFT-BAG HOLOGRAM JMB  0000002000+00002192+00000+0001T   00002192+0000001641          1400 J92112               3DZ
132796000132796               132796               170213OH     1400+00000+OH0000002192+0000002192+000000000+000000307+0000002490+0000000009+I20000000000+0000002490+Z
132796001132796080-000127     132796006003000424351VALENTINES DAY 36x24CM 0000001000+00002192+00000+0001T   00002192+0000001641          1400 J92112               3DZ
132797000132797               132797               170213OH     1400+00000+OH0000001753+0000001753+000000000+000000246+0000001990+0000000009+I20000000000+0000001990+Z
132797001132797204-083002     132797006008766083002M/HOLD BUTTERFLIES 4PCE0000001000+00001753+00000+0001T   00001753+0000001642          1400 J92300               3DZ
132798000132798               132798               170213OH     1400+00000+OH0000003535+0000003535+000000000+000000495+0000004030+0000000000+I20000000000+0000004030+Z
132798001132798018-000177     132798006001023797513MUG MINI LOVE ASSTD    0000001000+00000700+00000+0001T   00000700+0000001643          1400 J92515               3DZ
132798002132798112-116038     132798006009681820246TCS CARRIER BAG MIDI   0000001000+00000035+00000+0001T   00000035+0000001643          1400 J92090               3DZ
132798003132798018-000177     132798006001023797513MUG MINI LOVE ASSTD    0000004000+00000700+00000+0001T   00000700+0000001643          1400 J92515               3DZ
132799000132799               132799               170213OH     1400+00000+OH0000001752+0000001752+000000000+000000246+0000001990+0000000008+I20000000000+0000001990+Z
132799001132799077-000011-D   132799006001023808554TISSUE-WRAP WHITE 10PCE0000002000+00000876+00000+0001T   00000876+0000001649          1400 K15112               3DZ
132800000132800               132800               170213OH     1400+00000+OH0000010027+0000010027+000000000+000001406+0000011433+0000000000+I40000011433+0000000000+Z
132800001132800080-000113     132800006003000237449CARD&ENVLPE - LOVE     0000001000+00001753+00000+0001T   00001753+0000001652          1400 J92112               3DZ
132800002132800079-013101     132800006001023863706CRAFT SET DIY PIPE-CLNR0000001000+00002630+00000+0001T   00002630+0000001652          1400 J92130               3DZ
132800003132800079-006494     132800006003000159864GLITTER GLUE 5PCE 11cm 0000001000+00001490+00000+0001T   00001490+0000001652          1400 J92130               3DZ
132800004132800071-005667     132800006003000153060STAPLER SET MTL W/STPLS0000001000+00003507+00000+0001T   00003507+0000001652          1400 J92130               3DZ
132800005132800112-116038     132800006009681820246TCS CARRIER BAG MIDI   0000001000+00000035+00000+0001T   00000035+0000001652          1400 J92090               3DZ
132800006132800079-009700-A   132800006003000547746PAPER SIRIO A4 BLACK   0000001000+00000306+00000+0001T   00000306+0000001652          1400 J92130               3DZ
132800007132800079-009700-D   132800006003000545711PAPER SIRIO A4 RED COL.0000001000+00000306+00000+0001T   00000306+0000001652          1400 J92130               3DZ
132801000132801               132801               170213OH     1400+00000+OH0000004295+0000004295+000000000+000000602+0000004890+0000000007+I20000000000+0000004890+Z
132801001132801903-002901     132801005996071650655QUICK MILK 5 S/BERRY   0000001000+00001578+00000+0001T   00001578+0000001656          1400 J92150               3DZ
132801002132801903-002900     132801005996071650648QUICK MILK 5 CHOCO 5PC 0000001000+00001578+00000+0001T   00001578+0000001656          1400 J92150               3DZ
132801003132801903-000087     132801006001704000161SWT SPECKLED-EGGS 50G  0000001000+00001139+00000+0001T   00001139+0000001656          1400 J92150               3DZ
132802000132802               132802               170213OH     1400+00000+OH0000012323+0000012323+000000000+000001727+0000014050+0000000000+I20000000000+0000014050+Z
132802001132802018-000136     132802006001023659026MUG OCC LOVE W/PLUSH   0000001000+00003507+00000+0001T   00003507+0000001705          1400 J92515               3DZ
132802002132802030-000031-A   132802006003000457588PLAQUE W/WORDS ASSTD   0000001000+00004385+00000+0001T   00004823+0006471705          1400 J92505               3DZ
132802003132802077-000270     132802006003000395453GIFT-BAG PPR JMB 33X45 0000001000+00002630+00000+0001T   00002630+0000001705          1400 J92112               3DZ
132802004132802080-000113     132802006003000237449CARD&ENVLPE - LOVE     0000001000+00001753+00000+0001T   00001753+0000001705          1400 J92112               3DZ
132802005132802112-116069     132802006009681820277TCS CARRIER BAG JUMBO  0000001000+00000048+00000+0001T   00000048+0000001705          1400 J92090               3DZ
132803000132803               132803               170213OH     1400+00000+OH0000002628+0000002628+000000000+000000368+0000002996+0000000000+I40000002996+0000000000+Z
132803001132803077-000310     132803006001023608635GIFT-BAG 18X23CM GLOSS 0000002000+00001314+00000+0001T   00001314+0000001710          1400 J92112               3DZ
132804000132804               132804               170213OH     1400+00000+OH0000007223+0000007223+000000000+000001013+0000008236+0000000000+I40000008236+0000000000+Z
132804001132804368-000152     132804006003000166886PLUSH BEAR 15cm        0000001000+00003946+00000+0001T   00005262+0008141712          1400 J92745               3DZ
132804002132804903-000216     132804006925925900966SWT MALLOW TWIST ERKO  0000001000+00000262+00000+0001T   00000262+0000001712          1400 J92150               3DZ
132804003132804903-003051     132804008024431008703SWT CHOCO PARTY 25G    0000001000+00000876+00000+0001T   00000876+0000001712          1400 J92150               3DZ
132804004132804903-000090     132804006009826020821SWT GS CHOCO COINS 60g 0000001000+00002104+00000+0001T   00002104+0000001712          1400 J92150               3DZ
132804005132804112-116038     132804006009681820246TCS CARRIER BAG MIDI   0000001000+00000035+00000+0001T   00000035+0000001712          1400 J92090               3DZ
132805000132805               132805               170213OH     1400+00000+OH0000002103+0000002103+000000000+000000295+0000002390+0000000008+I20000000000+0000002390+Z
132805001132805251-000041     132805006001023515889SEAL-TAPE BUFF 48mmx50m0000001000+00001227+00000+0001T   00001227+0000001714          1400 J92810               3DZ
132805002132805077-000302     132805008010410010195GIFT-BAG 18X23CM E/D   0000001000+00000876+00000+0001T   00000876+0000001714          1400 J92112               3DZ
132806000132806               132806               170213OH     1400+00000+OH0000002765+0000002765+000000000+000000388+0000003150+0000000003+I20000000000+0000003150+Z
132806001132806903-000155     132806006009803374435SWT LOLLY I LUV U HEART0000001000+00000525+00000+0001T   00000525+0000001718          1400 J92150               3DZ
132806002132806080-000127     132806006003000424351VALENTINES DAY 36x24CM 0000001000+00002192+00000+0001T   00002192+0000001718          1400 J92112               3DZ
132806003132806112-116069     132806006009681820277TCS CARRIER BAG JUMBO  0000001000+00000048+00000+0001T   00000048+0000001718          1400 J92090               3DZ
132807000132807               132807               170213OH     1400+00000+OH0000003507+0000003507+000000000+000000491+0000003990+0000000008+I20000000000+0000003990+Z
132807001132807031-000923     132807006001023669933P/FRAME BLK W/WORDS    0000001000+00003507+00000+0001T   00003507+0000001722          1400 J92510               3DZ
132808000132808               132808               170213OH     1400+00000+OH0000014585+0000014585+000000000+000002047+0000016630+0000000002+I20000000000+0000016630+Z
132808001132808566-000312     132808006003000522774STICKER TAPE TATTOOS   0000001000+00000876+00000+0001T   00001314+0008151725          1400 J92130               3DZ
132808002132808071-003850     132808006001023893253PENCIL 5PCE RAINBOW WDN0000001000+00002630+00000+0001T   00002630+0000001725          1400 J92130               3DZ
132808003132808031-000868-B   132808006001023798565P/FRAME PL BLCK 13X18CM0000001000+00002630+00000+0001T   00002630+0000001725          1400 J92510               3DZ
132808004132808494-059258     132808000078257592586INTEX TUBE 76cm        0000001000+00005262+00000+0001T   00005262+0000001725          1400 J92787               3DZ
132808005132808112-116038     132808006009681820246TCS CARRIER BAG MIDI   0000001000+00000035+00000+0001T   00000035+0000001725          1400 J92090               3DZ
132808006132808903-000119     132808006001704007337SWT COCONUT-WHEEL      0000004000+00000788+00000+0001T   00000788+0000001725          1400 J92150               3DZ
132809000132809               132809               170213OH     1400+00000+OH0000011434+0000011434+000000000+000001602+0000013030+0000000006+I20000000000+0000013030+Z
132809001132809133-000008     132809006003000366453KITCHEN SWAB 3PCE CHECK0000002000+00003946+00000+0001T   00003946+0000001726          1400 J92212               3DZ
132809002132809071-008236     132809006003000406753PENCIL-BAG 21x9x6.5cm  0000001000+00003507+00000+0001T   00003507+0000001726          1400 J92130               3DZ
132809003132809112-116038     132809006009681820246TCS CARRIER BAG MIDI   0000001000+00000035+00000+0001T   00000035+0000001726          1400 J92090               3DZ
132810000132810               132810               170213OH     1400+00000+OH0000002192+0000002192+000000000+000000307+0000002490+0000000009+I20000000000+0000002490+Z
132810001132810072-000234     132810006003000691487DOG-COLLAR REFLECTIVE  0000001000+00002192+00000+0001T   00002192+0000001736          1400 J92870               3DZ
132811000132811               132811               170213OH     1400+00000+OH0000008766+0000008766+000000000+000001230+0000009996+0000000000+I40000009996+0000000000+Z
132811001132811019-000130     132811006003000456130PLANTER T/PLATE W/HNDL 0000002000+00001753+00000+0001T   00001753+0000001741          1400 J92510               3DZ
132811002132811077-000512     132811006003000590223GIFT-BAG DESIGNER LRG  0000001000+00002630+00000+0001T   00002630+0000001741          1400 J92112               3DZ
132811003132811563-000317-G   132811006001023776341SERVIETTES BRIGHT ASSTD0000001000+00002630+00000+0001T   00002630+0000001741          1400 J92214               3DZ
132812000132812               132812               170213OH     1400+00000+OH0000005260+0000005260+000000000+000000737+0000005997+0000000000+I40000005997+0000000000+Z
132812001132812077-000299-A   132812006003000670888GIFT-BAG PAPER JMB LOVE0000001000+00001753+00000+0001T   00001753+0000001743          1400 K15112               3AZ
132812002132812004-071204     132812006003000624904USB IN-CAR CHARGER 2.1A0000001000+00003507+00000+0001T   00003507+0000001743          1400 K15310               3AZ
132813000132813               132813               170213OH     1400+00000+OH0000006174+0000006174+000000000+000000865+0000007039+0000000000+I40000007039+0000000000+Z
132813001132813368-000265     132813006001023750914PLUSH BEAR 23CM ASSTD C0000001000+00006139+00000+0001T   00006139+0000001744          1400 K15745               3DZ
132813002132813112-116038     132813006009681820246TCS CARRIER BAG MIDI   0000001000+00000035+00000+0001T   00000035+0000001744          1400 K15090               3DZ
132814000132814               132814               170213OH     1400+00000+OH0000007662+0000007662+000000000+000001073+0000008735+0000000000+I40000008735+0000000000+Z
132814001132814200-000100     132814006001023764003CUPS 25PCE DISPOSABLE  0000001000+00001928+00000+0001T   00001928+0000001746          1400 K15214               3DZ
132814002132814006-000097     132814006003000376612PARTY WIND SPINNER     0000001000+00003507+00000+0001T   00003507+0000001746          1400 K15131               3DZ
132814003132814566-000950     132814006003000216048STICKERS 3 STYLES 100PC0000001000+00002192+00000+0001T   00002192+0000001746          1400 K15130               3DZ
132814004132814112-116038     132814006009681820246TCS CARRIER BAG MIDI   0000001000+00000035+00000+0001T   00000035+0000001746          1400 K15090               3DZ
132815000132815               132815               170213OH     1400+00000+OH0000004420+0000004420+000000000+000000619+0000005039+0000000000+I40000005039+0000000000+Z
132815001132815018-030000     132815006003000421060MUG OCCASIONS LOVE 2PCE0000001000+00004385+00000+0001T   00004385+0000001747          1400 K15515               3DZ
132815002132815112-116038     132815006009681820246TCS CARRIER BAG MIDI   0000001000+00000035+00000+0001T   00000035+0000001747          1400 K15090               3DZ
132816000132816               132816               170213OH     1400+00000+OH0000021097+0000021097+000000000+000002955+0000024050+0000000002+I20000000000+0000024050+Z
132816001132816368-000614     132816006001023705808PLUSH LOVE 30cm        0000001000+00008771+00000+0001T   00008771+0000001748          1400 K15745               3DZ
132816002132816368-000265     132816006001023750914PLUSH BEAR 23CM ASSTD C0000002000+00006139+00000+0001T   00006139+0000001748          1400 K15745               3DZ
132816003132816112-116069     132816006009681820277TCS CARRIER BAG JUMBO  0000001000+00000048+00000+0001T   00000048+0000001748          1400 K15090               3DZ
132817000132817               132817               170213OH     1400+00000+OH0000006610+0000006610+000000000+000000927+0000007537+0000000000+I40000007537+0000000000+Z
132817001132817903-000123     132817006925925909280SWEET GS MINI MALLOWS  0000001000+00000876+00000+0001T   00000876+0000001750          1400 K15150               3DZ
