329644000329644               329644               170213OJ     1400+00000+OJ0000001490+0000001490+000000000+000000209+0000001690+0000000009+I20000000000+0000001690+Z
329644001329644565-004101     329644006003000548033BALL BOUNCING EGG      0000001000+00001490+00000+0001T   00001490+0000000911          1400 R32745               2AZ
329645000329645               329645               170213OJ     1400+00000+OJ0000030612+0000030612+000000000+000004288+0000034900+0000000000+I20000000000+0000034900+Z
329645001329645200-003021     329645006003000276370REFUSE BAGS 30xSCENTED 0000001000+00002630+00000+0001T   00002630+0000000957          1400 R32214               2AZ
329645002329645158-000167     329645006003000569588WASTEPAPER-BASKET 26cm 0000001000+00005262+00000+0001T   00005262+0000000957          1400 R32300               2AZ
329645003329645036-000515     329645006001023817402HOOK-HANGER PL-CTD 10HK0000001000+00003507+00000+0001T   00003507+0000000957          1400 R32212               2AZ
329645004329645036-000500     329645006003000663903BASKET WIRE 39x27x13cm 0000001000+00005262+00000+0001T   00005262+0000000957          1400 R32212               2AZ
329645005329645174-000170     329645006003000575978STORAGE BASKET NON-WOVE0000003000+00004385+00000+0001T   00004385+0000000957          1400 R32205               2AZ
329645006329645903-000126     329645006002099003591SWT ZILLIONS MINT 50G  0000001000+00000700+00000+0001T   00000700+0000000957          1400 R32150               2AZ
329645007329645112-116069     329645006009681820277TCS CARRIER BAG JUMBO  0000002000+00000048+00000+0001T   00000048+0000000957          1400 R32090               2AZ
329646000329646               329646               170213OJ     1400+00000+OJ0000006401+0000006401+000000000+000000897+0000007290+0000000008+I20000000000+0000007290+Z
329646001329646562-006274     329646006001023744432EDU SKETCH-BOARD       0000001000+00005262+00000+0001T   00005262+0000000959          1400 R32755               2AZ
329646002329646903-000087     329646006001704000161SWT SPECKLED-EGGS 50G  0000001000+00001139+00000+0001T   00001139+0000000959          1400 R32150               2AZ
329647000329647               329647               170213OJ     1400+00000+OJ0000012936+0000012936+000000000+000001813+0000014740+0000000009+I20000000000+0000014740+Z
329647001329647065-000053     329647006001023756879MUSICAL HAMMER         0000001000+00003507+00000+0001T   00003507+0000001006          1400 R32745               2AZ
329647002329647266-008040     329647006001023787002FIGURINE 6PC & ACCESS. 0000001000+00004385+00000+0001T   00004385+0000001006          1400 R32710               2AZ
329647003329647567-010395     329647006002242053466GENERIC AFRIKAANS READE0000001000+00002192+00000+0001T   00002192+0000001006          1400 R32757               2AZ
329647004329647039-000026     329647006001023551610C/TAPERED 25CM M/RED   0000001000+00001051+00000+0001T   00001051+0000001006          1400 R32510               2AZ
329647005329647040-000923     329647006001023587831CANDLE-HOLDER GLS 13.5 0000001000+00001753+00000+0001T   00001753+0000001006          1400 R32510               2AZ
329647006329647112-116069     329647006009681820277TCS CARRIER BAG JUMBO  0000001000+00000048+00000+0001T   00000048+0000001006          1400 R320902IC            2AZ
329648000329648               329648               170213OJ     1400+00000+OJ0000006400+0000006400+000000000+000000897+0000007297+0000000000+I40000007297+0000000000+Z
329648001329648030-000030-A   329648006003000249305PLAQUE GLASS LOVE      0000001000+00003069+00000+0001T   00003069+0000001008          1400 R32505               2AZ
329648002329648089-000027     329648006003000254071KEY CHAIN MOM/DAD ASSTD0000001000+00001753+00000+0001T   00001753+0000001008          1400 R32205               2AZ
329648003329648077-000303     329648006001023593757GIFT-BAG PAPER MED     0000001000+00001578+00000+0001T   00001578+0000001008          1400 R32112               2AZ
329649000329649               329649               170213OJ     1400+00000+OJ0000005082+0000005082+000000000+000000712+0000005790+0000000004+I20000000000+0000005790+Z
329649001329649464-000200     329649006001023490988GAME PICK-UP STIX      0000001000+00001578+00000+0001T   00001578+0000001109          1400 R32785               2AZ
329649002329649464-000031     329649006003000647439GAME TIC TAC TOE       0000001000+00000876+00000+0001T   00000876+0000001109          1400 R32785               2AZ
329649003329649464-000238     329649006001023644039GAME SNAKES+LADDERS    0000001000+00001314+00000+0001T   00001314+0000001109          1400 R32785               2AZ
329649004329649464-000253     329649006001023341402GAME LUDO       POLYBAG0000001000+00001314+00000+0001T   00001314+0000001109          1400 R32785               2AZ
329650000329650               329650               170213OJ     1400+00000+OJ0000012324+0000012324+000000000+000001726+0000014050+0000000000+I20000000000+0000014050+Z
329650001329650105-007800     329650006002923018913STORAGE BOX CLEAR 5.5L 0000002000+00003507+00000+0001T   00003507+0000001113          1400 R32210               2AZ
329650002329650024-000165-E   329650006003000674558N/STICK BAKING TRAY    0000001000+00005262+00000+0001T   00005262+0000001113          1400 R32300               2AZ
329650003329650112-116069     329650006009681820277TCS CARRIER BAG JUMBO  0000001000+00000048+00000+0001T   00000048+0000001113          1400 R32090               2AZ
329651000329651               329651               170213OJ     1400+00000+OJ0000004385+0000004385+000000000+000000614+0000004990+0000000009+I20000000000+0000004990+Z
329651001329651027-000030     329651006003000621750MOP COTTON HEAD 160g   0000001000+00004385+00000+0001T   00004385+0000001203          1400 R32212               2AZ
329652000329652               329652               170213OJ     1400+00000+OJ0000007014+0000007014+000000000+000000982+0000007990+0000000006+I20000000000+0000007990+Z
329652001329652089-000018     329652006003000176724KEY CHAIN INSPIRATION  0000002000+00003507+00000+0001T   00003507+0000001221          1400 R32205               2AZ
329653000329653               329653               170213OJ     1400+00000+OJ0000003507+0000003507+000000000+000000491+0000003998+0000000000+I40000003998+0000000000+Z
329653001329653018-005009     329653006001023725608MUG W/PLUSH-BEAR LOVE  0000001000+00003507+00000+0001T   00003507+0000001225          1400 R32515               2AZ
329654000329654               329654               170213OJ     1400+00000+OJ0000004385+0000004385+000000000+000000614+0000004990+0000000009+I20000000000+0000004990+Z
329654001329654108-000500     329654006003000667161TUMBLER DOUBLE WALL    0000001000+00004385+00000+0001T   00004385+0000001225          1400 R32210               2AZ
329655000329655               329655               170213OJ     1400+00000+OJ0000002630+0000002630+000000000+000000369+0000002990+0000000009+I20000000000+0000002990+Z
329655001329655251-000054     329655006001023627971FURNITURE SLIDERS 4PCE 0000001000+00002630+00000+0001T   00002630+0000001231          1400 R32810               2AZ
329656000329656               329656               170213OJ     1400+00000+OJ0000002629+0000002629+000000000+000000369+0000002998+0000000000+I40000002998+0000000000+Z
329656001329656079-000206     329656006003000639700PENCIL CRAYONS THERAPY 0000001000+00001753+00000+0001T   00001753+0000001234          1400 R32130               2AZ
329656002329656007-000045     329656006009608640438DISPLAY-POCKETS A4 10PC0000001000+00000876+00000+0001T   00000876+0000001234          1400 R32130               2AZ
329657000329657               329657               170213OJ     1400+00000+OJ0000007890+0000007890+000000000+000001107+0000008997+0000000000+I40000008997+0000000000+Z
329657001329657106-001099     329657006003000653447WATER BOTTLE 650ml     0000003000+00002630+00000+0001T   00002630+0000001259          1400 R32210               2AZ
329658000329658               329658               170213OJ     1400+00000+OJ0000013155+0000013155+000000000+000001843+0000014990+0000000008+I20000000000+0000014990+Z
329658001329658301-085007     329658006003000673698ORN OCC. LOVE S/PLAQUE 0000001000+00007893+00000+0001T   00007893+0000001300          1400 R32505               2AZ
329658002329658368-000171     329658006003000233250PLUSH BEAR 14cm        0000001000+00005262+00000+0001T   00005262+0000001300          1400 R32745               2AZ
329659000329659               329659               170213OJ     1400+00000+OJ0000000437+0000000437+000000000+000000062+0000000490+0000000009+I20000000000+0000000490+Z
329659001329659080-000133-A   329659006003000647019MINI VALENTINES CARD   0000001000+00000437+00000+0001T   00000437+0000001301          1400 R32112               2AZ
329660000329660               329660               170213OJ     1400+00000+OJ0000001314+0000001314+000000000+000000184+0000001490+0000000008+I20000000000+0000001490+Z
329660001329660077-000407     329660006003000145096G/BAG PP 19X26X8CM     0000001000+00001314+00000+0001T   00001314+0000001301          1400 R32112               2AZ
329661000329661               329661               170213OJ     1400+00000+OJ0000001490+0000001490+000000000+000000209+0000001690+0000000009+I20000000000+0000001690+Z
329661001329661077-000299     329661006003000395576G/BAG 32x25cm LRG LOVE 0000001000+00001490+00000+0001T   00001490+0000001302          1400 R32112               2AZ
329662000329662               329662               170213OJ     1400+00000+OJ0000005569+0000005569+000000000+000000782+0000006350+0000000001+I20000000000+0000006350+Z
329662001329662079-000280     329662006003000160723PAINT READYMIX 6PCE    0000001000+00002630+00000+0001T   00002630+0000001326          1400 R32130               2AZ
329662002329662079-006500     329662006001023557186GLUE GLITTER 6/10 PCE  0000001000+00001753+00000+0001T   00001753+0000001326          1400 R32130               2AZ
329662003329662304-001011     329662006001023806727FLWR ROSE RED W/BEAR   0000001000+00000613+00000+0001T   00000788+0006471326          1400 R32510               2AZ
329662004329662903-000155     329662006009803374435SWT LOLLY I LUV U HEART0000001000+00000525+00000+0001T   00000525+0000001326          1400 R32150               2AZ
329662005329662112-116069     329662006009681820277TCS CARRIER BAG JUMBO  0000001000+00000048+00000+0001T   00000048+0000001326          1400 R32090               2AZ
329663000329663               329663               170213OJ     1400+00000+OJ0000005697+0000005697+000000000+000000800+0000006490+0000000007+I20000000000+0000006490+Z
329663001329663079-000344     329663006001023904010FELT-TIP PENS 12PCE    0000001000+00002630+00000+0001T   00002630+0000001351          1400 R32130               2AZ
329663002329663071-001362     329663006003000589258HIGHLIGHTER 4 PACK     0000001000+00002630+00000+0001T   00002630+0000001351          1400 R32130               2AZ
329663003329663071-000325     329663006009635844090RULER PLASTIC 30cm     0000001000+00000437+00000+0001T   00000437+0000001351          1400 R32130               2AZ
329664000329664               329664               170213OJ     1400+00000+OJ0000001227+0000001227+000000000+000000172+0000001390+0000000009+I20000000000+0000001390+Z
329664001329664040-000212     329664006003000112418C/HOLDER RND T-LITE 6CM0000001000+00001227+00000+0001T   00001227+0000001355          1400 R32510               2AZ
329665000329665               329665               170213OJ     1400+00000+OJ0000003506+0000003506+000000000+000000492+0000003998+0000000000+I40000003998+0000000000+Z
329665001329665078-000025     329665008887013700064SUPERGLUE 3g 1PCE CARD 0000001000+00000876+00000+0001T   00000876+0000001357          1400 R32810               2AZ
329665002329665027-009025     329665006003962000747DUSTPAN-SET PL         0000001000+00002630+00000+0001T   00002630+0000001357          1400 R32212               2AZ
329666000329666               329666               170213OJ     1400+00000+OJ0000009954+0000009954+000000000+000001396+0000011350+0000000000+I40000011350+0000000000+Z
329666001329666162-010774     329666006001492107745#TAG LDS BANGLE STACK  0000001000+00004385+00000+0001T   00004385+0000001400          1400 R32160               2AZ
329666002329666162-097717     329666006001492977171#TAG NEW SILVER E/PIERC0000001000+00001139+00000+0001T   00001139+0000001400          1400 R32160               2AZ
329666003329666162-097715     329666006001492977157#TAG NEW COLOUR E/PIERC0000001000+00001139+00000+0001T   00001139+0000001400          1400 R32160               2AZ
329666004329666162-096646     329666006001492966465#TAG HOT DEALS KIDS HR 0000001000+00002630+00000+0001T   00002630+0000001400          1400 R32160               2AZ
329666005329666077-000311     329666006001023608666GIFT-BAG 11X14CM GLOSS 0000001000+00000613+00000+0001T   00000613+0000001400          1400 R32112               2AZ
329666006329666112-116069     329666006009681820277TCS CARRIER BAG JUMBO  0000001000+00000048+00000+0001T   00000048+0000001400          1400 R32090               2AZ
329667000329667               329667               170213OJ     1400+00000+OJ0000008771+0000008771+000000000+000001228+0000009990+0000000009+I20000000000+0000009990+Z
329667001329667001-091415     329667006003000329113W/GLS OCC. LOVE 2PC 2800000001000+00008771+00000+0001T   00009648+0006471438          1400 R32515               2AZ
329668000329668               329668               170213OJ     1400+00000+OJ0000000048+0000000048+000000000+000000007+0000000050+0000000005+I20000000000+0000000050+Z
329668001329668112-116069     329668006009681820277TCS CARRIER BAG JUMBO  0000001000+00000048+00000+0001T   00000048+0000001439          1400 R32090               2AZ
329669000329669               329669               170213OJ     1400+00000+OJ0000001139+0000001139+000000000+000000160+0000001290+0000000009+I20000000000+0000001290+Z
329669001329669466-000517     329669006001023752017BALL TENNIS RED CRICKET0000001000+00001139+00000+0001T   00001139+0000001439          1400 R32785               2AZ
329670000329670               329670               170213OJ     1400+00000+OJ0000005257+0000005257+000000000+000000738+0000005990+0000000005+I20000000000+0000005990+Z
329670001329670306-000023     329670006001023606976COTTON-WOOL-BALLS 50PCE0000003000+00000876+00000+0001T   00000876+0000001441          1400 R32200               2AZ
329670002329670903-000295     329670006001704002899SWT MS FRUITY RASCALS  0000001000+00000876+00000+0001T   00000876+0000001441          1400 R32150               2AZ
329670003329670071-008229     329670006003000216017PENCIL-BAG ASTD COL A5 0000001000+00001753+00000+0001T   00001753+0000001441          1400 R32130               2AZ
329671000329671               329671               170213OJ     1400+00000+OJ0000003507+0000003507+000000000+000000491+0000003998+0000000000+I40000003998+0000000000+Z
329671001329671018-005009     329671006001023725608MUG W/PLUSH-BEAR LOVE  0000001000+00003507+00000+0001T   00003507+0000001457          1400 R32515               2AZ
329672000329672               329672               170213OJ     1400+00000+OJ0000011750+0000011750+000000000+000001646+0000013390+0000000006+I20000000000+0000013390+Z
329672001329672368-000171     329672006003000233250PLUSH BEAR 14cm        0000002000+00005262+00000+0001T   00005262+0000001503          1400 R32745               2AZ
329672002329672077-000311     329672006001023608666GIFT-BAG 11X14CM GLOSS 0000002000+00000613+00000+0001T   00000613+0000001503          1400 R32112               2AZ
329673000329673               329673               170213OJ     1400+00000+OJ0000007013+0000007013+000000000+000000983+0000007990+0000000006+I20000000000+0000007990+Z
329673001329673368-000049     329673006003000536955PLUSH BEAR 15cm LOVE   0000001000+00004385+00000+0001T   00004385+0000001530          1400 R32745               2AZ
329673002329673077-000314     329673006003000181148GIFT-BAG 11X14CM MATT  0000003000+00000876+00000+0001T   00000876+0000001530          1400 R32112               2AZ
329674000329674               329674               170213OJ     1400+00000+OJ0000004433+0000004433+000000000+000000621+0000005050+0000000004+I20000000000+0000005050+Z
329674001329674001-000175     329674006001023788108B/MUG GLS LOVE 380ML   0000001000+00004385+00000+0001T   00004385+0000001533          1400 R32515               2AZ
329674002329674112-116069     329674006009681820277TCS CARRIER BAG JUMBO  0000001000+00000048+00000+0001T   00000048+0000001533          1400 R32090               2AZ
329675000329675               329675               170213OJ     1400+00000+OJ0000003854+0000003854+000000000+000000542+0000004396+0000000000+I40000004396+0000000000+Z
329675001329675080-000133-A   329675006003000647019MINI VALENTINES CARD   0000001000+00000437+00000+0001T   00000437+0000001542          1400 R32112               2AZ
329675002329675903-000897     329675008692806325207SWT CHOC DBL MINI ROLL 0000001000+00000876+00000+0001T   00000876+0000001542          1400 R32150               2AZ
329675003329675105-001032     329675000700371696634CONTAINER FOODSAVER 1.20000001000+00001753+00000+0001T   00001753+0000001542          1400 R32210               2AZ
329675004329675903-000119     329675006001704007337SWT COCONUT-WHEEL      0000001000+00000788+00000+0001T   00000788+0000001542          1400 R32150               2AZ
329676000329676               329676               170213OJ     1400+00000+OJ0000023670+0000023670+000000000+000003316+0000026986+0000000000+I40000026986+0000000000+Z
329676001329676018-000127     329676006001023380289MUG OCC STRAIGHT LOVE  0000001000+00001578+00000+0001T   00001753+0006471628          1400 R32515               2AZ
329676002329676903-000897     329676008692806325207SWT CHOC DBL MINI ROLL 0000001000+00000876+00000+0001T   00000876+0000001628          1400 R32150               2AZ
329676003329676018-000129     329676006001023403353MUG OCC. LOVE V-SHAPE  0000001000+00002630+00000+0001T   00002630+0000001628          1400 R32515               2AZ
329676004329676903-004960     329676008410525221842SWT GUMMY STR/BERRY 50G0000002000+00000964+00000+0001T   00000964+0000001628          1400 R32150               2AZ
329676005329676903-000843     329676008693029031067SWT GUMMY JELAXY 80G   0000002000+00000964+00000+0001T   00000964+0000001628          1400 R32150               2AZ
329676006329676077-000509     329676006003000082582GIFT-BAG SML 6PCE ORG P0000003000+00002192+00000+0001T   00002192+0000001628          1400 R32112               2AZ
329676007329676080-000139     329676006003000611690CARD & ENV MINI SET 6PC0000003000+00002192+00000+0001T   00002192+0000001628          1400 R32112               2AZ
329676008329676077-000303     329676006001023593757GIFT-BAG PAPER MED     0000001000+00001578+00000+0001T   00001578+0000001628          1400 R32112               2AZ
329677000329677               329677               170213OJ     1400+00000+OJ0000002630+0000002630+000000000+000000369+0000002999+0000000000+I40000002999+0000000000+Z
329677001329677072-020358     329677006001023748119DOG-BOWL BONE-SHAPED   0000001000+00002630+00000+0001T   00002630+0000001629          1400 R32870               2AZ
329678000329678               329678               170213OJ     1400+00000+OJ0000003069+0000003069+000000000+000000430+0000003490+0000000009+I20000000000+0000003490+Z
329678001329678024-000212     329678006001023858030COOKIE-CUTTERS PL SMALL0000001000+00003069+00000+0001T   00003069+0000001644          1400 R32300               2AZ
329679000329679               329679               170213OJ     1400+00000+OJ0000000048+0000000048+000000000+000000007+0000000050+0000000005+I20000000000+0000000050+Z
329679001329679112-116069     329679006009681820277TCS CARRIER BAG JUMBO  0000001000+00000048+00000+0001T   00000048+0000001645          1400 R32090               2AZ
329680000329680               329680               170213OJ     1400+00000+OJ0000007453+0000007453+000000000+000001044+0000008497+0000000000+I40000008497+0000000000+Z
329680001329680039-809558     329680006003000344376CANDLE PILLAR 12CM 4AST0000001000+00006139+00000+0001T   00006139+0000001646          1400 R32510               2AZ
329680002329680077-000310     329680006001023608635GIFT-BAG 18X23CM GLOSS 0000001000+00001314+00000+0001T   00001314+0000001646          1400 R32112               2AZ
329681000329681               329681               170213OJ     1400+00000+OJ0000003682+0000003682+000000000+000000516+0000004190+0000000008+I20000000000+0000004190+Z
329681001329681018-000127     329681006001023380289MUG OCC STRAIGHT LOVE  0000001000+00001578+00000+0001T   00001753+0006471647          1400 R32515               2AZ
329681002329681903-000095     329681006001704011495SWT SPECKLED-EGGS 100G 0000001000+00002104+00000+0001T   00002104+0000001647          1400 R32150               2AZ
329682000329682               329682               170213OJ     1400+00000+OJ0000001578+0000001578+000000000+000000221+0000001790+0000000009+I20000000000+0000001790+Z
329682001329682077-000303     329682006001023593757GIFT-BAG PAPER MED     0000001000+00001578+00000+0001T   00001578+0000001700          1400 R32112               2AZ
329683000329683               329683               170213OJ     1400+00000+OJ0000007753+0000007753+000000000+000001092+0000008845+0000000000+I40000008845+0000000000+Z
329683001329683903-000897     329683008692806325207SWT CHOC DBL MINI ROLL 0000002000+00000876+00000+0001T   00000876+0000001702          1400 R32150               2AZ
329683002329683018-000170     329683006001023775528MUG OCC. LOVE 2PC MINI 0000001000+00002192+00000+0001T   00002192+0000001702          1400 R32515               2AZ
329683003329683903-000698     329683006002099007032SWT CANDY ECLAIRS 90g  0000001000+00001139+00000+0001T   00001139+0000001702          1400 R32150               2AZ
329683004329683112-116069     329683006009681820277TCS CARRIER BAG JUMBO  0000001000+00000048+00000+0001T   00000048+0000001702          1400 R32090               2AZ
329683005329683080-000133-A   329683006003000647019MINI VALENTINES CARD   0000003000+00000437+00000+0001T   00000437+0000001702          1400 R32112               2AZ
329683006329683080-000133     329683006003000535613CARD&ENV MINI ASTD DSGN0000003000+00000437+00000+0001T   00000437+0000001702          1400 R32112               2AZ
329684000329684               329684               170213OJ     1400+00000+OJ0000000613+0000000613+000000000+000000086+0000000690+0000000009+I20000000000+0000000690+Z
329684001329684565-000044     329684006003000128280BARREL OF SLIME 100g   0000001000+00000613+00000+0001T   00000613+0000001703          1400 R32745               2AZ
329685000329685               329685               170213OJ     1400+00000+OJ0000037752+0000037752+000000000+000005287+0000043030+0000000009+I20000000000+0000043030+Z
329685001329685369-000035     329685006001023795885EDU STACKING-SET ASSTD 0000001000+00003507+00000+0001T   00003507+0000001706          1400 R32745               2AZ
329685002329685369-001026     329685006001023795977BABY-RATTLE CATERPILLAR0000001000+00003507+00000+0001T   00003507+0000001706          1400 R32745               2AZ
329685003329685369-000216     329685006003000610686BABY TOY EDU PLAY/LEARN0000001000+00001753+00000+0001T   00001753+0000001706          1400 R32745               2AZ
329685004329685562-000520     329685006003000112777EDU BLOCKS WDN ALPHABET0000001000+00003507+00000+0001T   00003507+0000001706          1400 R32755               2AZ
329685005329685562-000199     329685006001023732910PUSH-IN BOARD WDN ASSTD0000002000+00005262+00000+0001T   00005262+0000001706          1400 R32755               2AZ
329685006329685562-000212     329685006001023851567PUSH-IN BOARD NUMBERS  0000001000+00004385+00000+0001T   00004385+0000001706          1400 R32755               2AZ
329685007329685562-000200     329685006001023732941PUSH-IN TRANSPORT      0000001000+00003507+00000+0001T   00003507+0000001706          1400 R32755               2AZ
329685008329685072-020278     329685006003000024100PET CAT LITTER PAN PL  0000002000+00003507+00000+0001T   00003507+0000001706          1400 R32870               2AZ
329685009329685112-116069     329685006009681820277TCS CARRIER BAG JUMBO  0000001000+00000048+00000+0001T   00000048+0000001706          1400 R32090               2AZ
329686000329686               329686               170213OJ     1400+00000+OJ0000006576+0000006576+000000000+000000921+0000007497+0000000000+I40000007497+0000000000+Z
329686001329686200-000093     329686006003000582020PICNIC BOWLS PL 15PC   0000001000+00003069+00000+0001T   00003069+0000001709          1400 R32214               2AZ
329686002329686200-000111     329686006003000676668PICNIC CUPS DOME 300ml 0000001000+00003507+00000+0001T   00003507+0000001709          1400 R32214               2AZ
329687000329687               329687               170213OJ     1400+00000+OJ0000002063+0000002063+000000000+000000290+0000002350+0000000003+I20000000000+0000002350+Z
329687001329687077-000303     329687006001023593757GIFT-BAG PAPER MED     0000001000+00001578+00000+0001T   00001578+0000001711          1400 R32112               2AZ
329687002329687080-000133-A   329687006003000647019MINI VALENTINES CARD   0000001000+00000437+00000+0001T   00000437+0000001711          1400 R32112               2AZ
329687003329687112-116069     329687006009681820277TCS CARRIER BAG JUMBO  0000001000+00000048+00000+0001T   00000048+0000001711          1400 R32090               2AZ
329688000329688               329688               170213OJ     1400+00000+OJ0000010307+0000010307+000000000+000001444+0000011751+0000000000+I40000011751+0000000000+Z
329688001329688018-005009     329688006001023725608MUG W/PLUSH-BEAR LOVE  0000001000+00003507+00000+0001T   00003507+0000001713          1400 R32515               2AZ
329688002329688077-000299     329688006003000395576G/BAG 32x25cm LRG LOVE 0000001000+00001490+00000+0001T   00001490+0000001713          1400 R32112               2AZ
329688003329688007-000614     329688006001023768667DIARY W/LOCK+PEN LOVE  0000001000+00005262+00000+0001T   00005262+0000001713          1400 R32130               2AZ
329688004329688112-116069     329688006009681820277TCS CARRIER BAG JUMBO  0000001000+00000048+00000+0001T   00000048+0000001713          1400 R32090               2AZ
329689000329689               329689               170213OJ     1400+00000+OJ0000002240+0000002240+000000000+000000314+0000002550+0000000004+I20000000000+0000002550+Z
329689001329689018-000170     329689006001023775528MUG OCC. LOVE 2PC MINI 0000001000+00002192+00000+0001T   00002192+0000001714          1400 R32515               2AZ
329689002329689112-116069     329689006009681820277TCS CARRIER BAG JUMBO  0000001000+00000048+00000+0001T   00000048+0000001714          1400 R32090               2AZ
329690000329690               329690               170213OJ     1400+00000+OJ0000006138+0000006138+000000000+000000860+0000006990+0000000008+I20000000000+0000006990+Z
329690001329690031-000848     329690006001023851901P/FRAME COLLAGE 2ASSTD 0000001000+00004385+00000+0001T   00004385+0000001715          1400 R32510               2AZ
329690002329690077-000309     329690006001023608604GIFT-BAG 25X32CM GLOSS 0000001000+00001753+00000+0001T   00001753+0000001715          1400 R32112               2AZ
329691000329691               329691               170213OJ     1400+00000+OJ0000005310+0000005310+000000000+000000744+0000006050+0000000004+I20000000000+0000006050+Z
329691001329691007-000322     329691006009685858634PAPER A4 80GSM 100'S   0000001000+00005262+00000+0001T   00005262+0000001716          1400 R32130               2AZ
329691002329691112-116069     329691006009681820277TCS CARRIER BAG JUMBO  0000001000+00000048+00000+0001T   00000048+0000001716          1400 R32090               2AZ
329692000329692               329692               170213OJ     1400+00000+OJ0000002630+0000002630+000000000+000000369+0000002990+0000000009+I20000000000+0000002990+Z
329692001329692077-000251     329692006003000639106GIFT-DECOR RIBBON      0000001000+00002630+00000+0001T   00002630+0000001719          1400 R32112               2AZ
329693000329693               329693               170213OJ     1400+00000+OJ0000000048+0000000048+000000000+000000007+0000000050+0000000005+I20000000000+0000000050+Z
329693001329693112-116069     329693006009681820277TCS CARRIER BAG JUMBO  0000001000+00000048+00000+0001T   00000048+0000001720          1400 R32090               2AZ
329694000329694               329694               170213OJ     1400+00000+OJ0000005262+0000005262+000000000+000000737+0000005990+0000000009+I20000000000+0000005990+Z
329694001329694056-065301     329694006001023625861CAR SUN-SHIELD 114x66cm0000001000+00005262+00000+0001T   00005262+0000001720          1400 R32860               2AZ
329695000329695               329695               170213OJ     1400+00000+OJ0000013374+0000013374+000000000+000001874+0000015240+0000000008+I20000000000+0000015240+Z
329695001329695018-005009     329695006001023725608MUG W/PLUSH-BEAR LOVE  0000002000+00003507+00000+0001T   00003507+0000001722          1400 R32515               2AZ
329695002329695903-000095     329695006001704011495SWT SPECKLED-EGGS 100G 0000003000+00002104+00000+0001T   00002104+0000001722          1400 R32150               2AZ
329695003329695112-116069     329695006009681820277TCS CARRIER BAG JUMBO  0000001000+00000048+00000+0001T   00000048+0000001722          1400 R32090               2AZ
329696000329696               329696               170213OJ     1400+00000+OJ0000014381+0000014381+000000000+000002015+0000016396+0000000000+I40000016396+0000000000+Z
329696001329696018-030000     329696006003000421060MUG OCCASIONS LOVE 2PCE0000001000+00004385+00000+0001T   00004385+0000001724          1400 R32515               2AZ
329696002329696903-000510     329696006001704012621SWEET MS ZBDZ S/BERRY  0000001000+00001227+00000+0001T   00001227+0000001724          1400 R32150               2AZ
329696003329696077-000472     329696006003000330133G-BAG DESGNR LRG 25X32 0000001000+00001753+00000+0001T   00001753+0000001724          1400 R32112               2AZ
329696004329696041-093000     329696006003000320882B/GIFT SET 4PC B/RANGE 0000001000+00007016+00000+0001T   00007016+0000001724          1400 R32200               2AZ
329697000329697               329697               170213OJ     1400+00000+OJ0000010832+0000010832+000000000+000001518+0000012350+0000000000+I40000012350+0000000000+Z
329697001329697077-000348     329697006001023483287GIFT-BOWS 4,5cm 8PCE   0000001000+00001578+00000+0001T   00001578+0000001726          1400 R32112               2AZ
329697002329697079-013032-B   329697006003000389445MIXED SHAPES           0000001000+00001753+00000+0001T   00001753+0000001726          1400 R32130               2AZ
329697003329697368-000049     329697006003000536955PLUSH BEAR 15cm LOVE   0000001000+00004385+00000+0001T   00004385+0000001726          1400 R32745               2AZ
329697004329697077-000314     329697006003000181148GIFT-BAG 11X14CM MATT  0000001000+00000876+00000+0001T   00000876+0000001726          1400 R32112               2AZ
329697005329697080-000127     329697006003000424351VALENTINES DAY 36x24CM 0000001000+00002192+00000+0001T   00002192+0000001726          1400 R32112               2AZ
329697006329697112-116069     329697006009681820277TCS CARRIER BAG JUMBO  0000001000+00000048+00000+0001T   00000048+0000001726          1400 R32090               2AZ
329698000329698               329698               170213OJ     1400+00000+OJ0000019335+0000019335+000000000+000002709+0000022044+0000000000+I40000022044+0000000000+Z
329698001329698362-003000     329698006003000295258GIRL HEART NOTEBOOK    0000001000+00001753+00000+0001T   00002630+0008191729          1400 R32160               2AZ
329698002329698567-013439     329698009781775785798EK KAN LEES ASSTD      0000001000+00003507+00000+0001T   00003507+0000001729          1400 R32757               2AZ
329698003329698567-013439     329698009781775785590EK KAN LEES ASSTD      0000001000+00003507+00000+0001T   00003507+0000001729          1400 R32757               2AZ
329698004329698007-000561     329698006003000589128NOVELTY NOTEBOOK       0000002000+00003507+00000+0001T   00003507+0000001729          1400 R32130               2AZ
329698005329698112-116069     329698006009681820277TCS CARRIER BAG JUMBO  0000001000+00000048+00000+0001T   00000048+0000001729          1400 R32090               2AZ
329698006329698077-000290     329698006001023902023GIFT BOX 26x32x13cm    0000002000+00001753+00000+0001T   00001753+0000001729          1400 R32112               2AZ
329699000329699               329699               170213OJ     1400+00000+OJ0000001401+0000001401+000000000+000000197+0000001590+0000000008+I20000000000+0000001590+Z
329699001329699903-000011     329699006002099007315SWT MALLOW CHOC 15G    0000001000+00000437+00000+0001T   00000437+0000001730          1400 R32150               2AZ
329699002329699903-000843     329699008693029031067SWT GUMMY JELAXY 80G   0000001000+00000964+00000+0001T   00000964+0000001730          1400 R32150               2AZ
329700000329700               329700               170213OJ     1400+00000+OJ0000002103+0000002103+000000000+000000295+0000002390+0000000008+I20000000000+0000002390+Z
329700001329700083-000055     329700006003000003853LIGHTER ELCTRNC REFILBL0000001000+00000613+00000+0001T   00000613+0000001731          1400 R32315               2AZ
329700002329700077-000299     329700006003000395576G/BAG 32x25cm LRG LOVE 0000001000+00001490+00000+0001T   00001490+0000001731          1400 R32112               2AZ
329701000329701               329701               170213OJ     1400+00000+OJ0000002453+0000002453+000000000+000000344+0000002790+0000000007+I20000000000+0000002790+Z
329701001329701079-013032-I   329701006003000542550ART+CRAFT DIY EVA FOAM 0000001000+00001753+00000+0001T   00001753+0000001732          1400 R32130               2AZ
329701002329701464-000121     329701006003000640492PLAYING CARDS MINI     0000001000+00000700+00000+0001T   00000700+0000001732          1400 R32785               2AZ
329702000329702               329702               170213OJ     1400+00000+OJ0000006838+0000006838+000000000+000000958+0000007790+0000000006+I20000000000+0000007790+Z
329702001329702903-000919     329702006009802868577SWEET NOVELTY LASER POP0000001000+00001753+00000+0001T   00001753+0000001733          1400 R32150               2AZ
329702002329702464-000121     329702006003000640492PLAYING CARDS MINI     0000001000+00000700+00000+0001T   00000700+0000001733          1400 R32785               2AZ
329702003329702007-000711     329702006003000227518NOTE-BK A5 WIRE 80SHTS 0000001000+00004385+00000+0001T   00004385+0000001733          1400 R32130               2AZ
329703000329703               329703               170213OJ     1400+00000+OJ0000014032+0000014032+000000000+000001966+0000015990+0000000008+I20000000000+0000015990+Z
329703001329703261-003903     329703006001023827746GUN SET ARMY ASSTD     0000001000+00006139+00000+0001T   00006139+0000001736          1400 R32710               2AZ
329703002329703264-000928     329703000090159393603MAISTO MOTORBIKE HARLEY0000001000-00013157+00000+0001T   00013157+0000001736          1400 R327101IC            2 Z
329703003329703264-000928     329703000090159393603MAISTO MOTORBIKE HARLEY0000001000+00013157+00000+0001T   00013157+0000001736          1400 R327101IC            2AZ
329703004329703264-025205     329703006003000642120MAISTO DINKY 4x4 REBELS0000001000+00007893+00000+0001T   00007893+0000001736          1400 R32710               2AZ
329704000329704               329704               170213OJ     1400+00000+OJ0000010872+0000010872+000000000+000001524+0000012396+0000000000+I40000012396+0000000000+Z
329704001329704072-000602     329704006003000452446DOG-COLLAR 1.6x35cm SML0000002000+00004385+00000+0001T   00004385+0000001738          1400 R32870               2AZ
329704002329704903-002850     329704000000087108262MENTOS ROLL FRUIT      0000002000+00001051+00000+0001T   00001051+0000001738          1400 R32150               2AZ
329705000329705               329705               170213OJ     1400+00000+OJ0000010520+0000010520+000000000+000001474+0000011994+0000000000+I40000011994+0000000000+Z
329705001329705077-000322     329705006001023677532GIFT-BAG 18X23CM E/D FL0000001000+00001227+00000+0001T   00001227+0000001741          1400 R32112               2AZ
329705002329705077-000357     329705006003000139354GIFT-BAG 18X23CM B/DAY 0000001000+00001753+00000+0001T   00001753+0000001741          1400 R32112               2AZ
329705003329705018-000127     329705006001023380289MUG OCC STRAIGHT LOVE  0000002000+00001578+00000+0001T   00001753+0006471741          1400 R32515               2AZ
329705004329705041-007001     329705006009621683153H/GLO L/SOAP 300ml     0000001000+00002192+00000+0001T   00002192+0000001741          1400 R32200               2AZ
329705005329705041-007001-A   329705006003000636860H/GLOW LIQUID CHERY    0000001000+00002192+00000+0001T   00002192+0000001741          1400 R32200               2AZ
329706000329706               329706               170213OJ     1400+00000+OJ0000002192+0000002192+000000000+000000307+0000002490+0000000009+I20000000000+0000002490+Z
329706001329706080-000127     329706006003000424351VALENTINES DAY 36x24CM 0000001000+00002192+00000+0001T   00002192+0000001741          1400 R32112               2AZ
329707000329707               329707               170213OJ     1400+00000+OJ0000006222+0000006222+000000000+000000873+0000007095+0000000000+I40000007095+0000000000+Z
329707001329707006-001000     329707006003000093779HELIUM BALLOON FILL    0000003000+00000613+00000+0001T   00000613+0000001744          1400 R32131               2AZ
329707002329707006-000111     329707006003000519385BALLOONS LARGE 12PCE   0000001000+00002630+00000+0001T   00002630+0000001744          1400 R32131               2AZ
329707003329707079-006496     329707006003000160105GLITTER SHAKERS        0000001000+00001753+00000+0001T   00001753+0000001744          1400 R32130               2AZ
329708000329708               329708               170213OJ     1400+00000+OJ0000001051+0000001051+000000000+000000148+0000001190+0000000009+I20000000000+0000001190+Z
329708001329708079-009702-B   329708008427973059491PAPER SIRIO A2 WHITE   0000001000+00001051+00000+0001T   00001051+0000001751          1400 R32130               2AZ
329709000329709               329709               170213OJ     1400+00000+OJ0000008241+0000008241+000000000+000001154+0000009390+0000000005+I20000000000+0000009390+Z
329709001329709903-000194     329709006009826020616SWT CHOC RP LOLLY 25G  0000001000+00001314+00000+0001T   00001314+0000001814          1400 R32150               2AZ
329709002329709368-000049     329709006003000536955PLUSH BEAR 15cm LOVE   0000001000+00004385+00000+0001T   00004385+0000001814          1400 R32745               2AZ
329709003329709077-000303     329709006001023593757GIFT-BAG PAPER MED     0000001000+00001578+00000+0001T   00001578+0000001814          1400 R32112               2AZ
329709004329709903-000843     329709008693029031067SWT GUMMY JELAXY 80G   0000001000+00000964+00000+0001T   00000964+0000001814          1400 R32150               2AZ
B32964700                                          170213OJ112-116069     10054998SLAVE 2     R322IC0000002000+0000001000+0000000000000+
M17021391                              CASH        OJSLAVE 2                       Z-REPORT No.   631TOTAL (Sales - Refunds)           5110.12       CASH TO BE BANKED                 3151.30       DEBIT CARDS                          0.00       CREDIT CARDS                      1958.82       Z-READING                         5110.12       AIRTIME DEBIT CARD SALES             0.00       AIRTIME CARD SALES                   0.00       OVERS/UNDERS                         0.00       AIRTIME CASH SALES                   0.00       GIFT CARDS                           0.00       GIFT CARD CASH SALES                 0.00       T O T A L  CASH PAYOUTS              0.00                                                                                                                                                                                                                                                                                                                                                      Z
M17021392                              CASH        OJABSENT                                                                                                                                                                                          ANNUAL LEAVE                                                                                                                                                                                    DAY OFF                                                                                                                                                                                         COMMENTS                                                                                                                                                                                                                                                                                                                                                                                       Z
Y17021300                                          OJ00000000461632+000066
ZOJ17021320133 SLAVE 2      SALES DATA                     NEXT INVOICE NO.  329710 0631
X OJ Slave 2 First invoice 329644 170213 Last invoice 329709 170213 Next invoice 329710 Total number of records 000000242 clbackup completed 20:13:25
