330363000330363               330363               170213OJ     1400+00000+OJ0000000788+0000000788+000000000+000000111+0000000890+0000000009+I20000000000+0000000890+Z
330363001330363903-000119     330363006001704007337SWT COCONUT-WHEEL      0000001000+00000788+00000+0001T   00000788+0000000907          1400 BA6150               3AZ
330364000330364               330364               170213OJ     1400+00000+OJ0000007014+0000007014+000000000+000000982+0000007990+0000000006+I20000000000+0000007990+Z
330364001330364018-000136     330364006001023659026MUG OCC LOVE W/PLUSH   0000002000+00003507+00000+0001T   00003507+0000000910          1400 BA6515               3AZ
330365000330365               330365               170213OJ     1400+00000+OJ0000006656+0000006656+000000000+000000937+0000007590+0000000003+I20000000000+0000007590+Z
330365001330365304-001011     330365006001023806727FLWR ROSE RED W/BEAR   0000001000+00000613+00000+0001T   00000788+0006470914          1400 BA6510               3AZ
330365002330365077-000010-C   330365006001023123879CREPE-PAPER RED        0000001000+00000788+00000+0001T   00000788+0000000914          1400 BA6112               3AZ
330365003330365079-009702-B   330365008427973059491PAPER SIRIO A2 WHITE   0000004000+00001051+00000+0001T   00001051+0000000914          1400 BA6130               3AZ
330365004330365079-009702-D   330365008427973059354PAPER SIRIO A2 RED COL 0000001000+00001051+00000+0001T   00001051+0000000914          1400 BA6130               3AZ
330366000330366               330366               170213OJ     1400+00000+OJ0000004909+0000004909+000000000+000000688+0000005590+0000000007+I20000000000+0000005590+Z
330366001330366304-001204     330366006001023737984FLOWER OCC. TEDDY/ROSES0000001000+00001402+00000+0001T   00001490+0006470916          1400 BA6510               3AZ
330366002330366301-085004     330366006003000420469ORN LOVE PLAQUE 21X10CM0000001000+00003507+00000+0001T   00003946+0006470916          1400 BA6505               3AZ
330367000330367               330367               170213OJ     1400+00000+OJ0000000613+0000000613+000000000+000000086+0000000690+0000000009+I20000000000+0000000690+Z
330367001330367304-001011     330367006001023806727FLWR ROSE RED W/BEAR   0000001000+00000613+00000+0001T   00000788+0006470919          1400 BA6510               3AZ
330368000330368               330368               170213OJ     1400+00000+OJ0000002980+0000002980+000000000+000000418+0000003390+0000000008+I20000000000+0000003390+Z
330368001330368140-001004     330368006001023880932FLY-RIBBONS 4PCE PL    0000002000+00001490+00000+0001T   00001490+0000000932          1400 BA6830               3AZ
330369000330369               330369               170213OJ     1400+00000+OJ0000009645+0000009645+000000000+000001351+0000010996+0000000000+I40000010996+0000000000+Z
330369001330369496-059631     330369006941057402611REPAIR-PATCHES   CARDED0000001000+00001314+00000+0001T   00001314+0000000943          1400 BA6787               3AZ
330369002330369024-000002     330369006001023741899S/BURNER-COVER SILV/BLK0000001000+00003946+00000+0001T   00004385+0008190943          1400 BA6300               3AZ
330369003330369105-008005     330369006002580009484STORAGE CONTAINER 7.5L 0000001000+00004385+00000+0001T   00004385+0000000943          1400 BA6210               3AZ
330370000330370               330370               170213OJ     1400+00000+OJ0000021439+0000021439+000000000+000003004+0000024440+0000000003+I20000000000+0000024440+Z
330370001330370018-005009     330370006001023725608MUG W/PLUSH-BEAR LOVE  0000002000+00003507+00000+0001T   00003507+0000000946          1400 BA6515               3AZ
330370002330370001-000175     330370006001023788108B/MUG GLS LOVE 380ML   0000001000+00004385+00000+0001T   00004385+0000000946          1400 BA6515               3AZ
330370003330370083-000055     330370006003000003853LIGHTER ELCTRNC REFILBL0000002000+00000613+00000+0001T   00000613+0000000946          1400 BA6315               3AZ
330370004330370206-000620     330370006003000631797BACK SCRATCHER EXTEND  0000001000+00002630+00000+0001T   00002630+0000000946          1400 BA6321               3AZ
330370005330370566-000068     330370006003000418046POP UP LOVE 2 ASSTD    0000002000+00002192+00000+0001T   00002192+0000000946          1400 BA6130               3AZ
330370006330370083-000295     330370006001023898562LIGHTER-GAS BUTANE 18ml0000002000+00000876+00000+0001T   00000876+0000000946          1400 BA6315               3AZ
330370007330370112-116069     330370006009681820277TCS CARRIER BAG JUMBO  0000001000+00000048+00000+0001T   00000048+0000000946          1400 BA6090               3AZ
330371000330371               330371               170213OJ     1400+00000+OJ0000008769+0000008769+000000000+000001228+0000009990+0000000007+I20000000000+0000009990+Z
330371001330371567-010161     330371009780000008516BOOK TOP ASSTD MILLS   0000001000+00005262+00000+0001T   00005262+0000000955          1400 BA6757               3AZ
330371002330371466-000518     330371006003000027460BADMINTON SET          0000001000+00003507+00000+0001T   00003507+0000000955          1400 BA6785               3AZ
330372000330372               330372               170213OJ     1400+00000+OJ0000001753+0000001753+000000000+000000246+0000001990+0000000009+I20000000000+0000001990+Z
330372001330372466-008889     330372006001023835376WHISTLE SPORTS+STRING  0000001000+00001753+00000+0001T   00001753+0000001023          1400 BA6785               3AZ
330373000330373               330373               170213OJ     1400+00000+OJ0000002630+0000002630+000000000+000000369+0000002999+0000000000+I40000002999+0000000000+Z
330373001330373304-000720     330373006001023843050F/BUNCH ROSE 6-HEAD AST0000001000+00002630+00000+0001T   00002630+0000001026          1400 BA6510               3AZ
330374000330374               330374               170213OJ     1400+00000+OJ0000022361+0000022361+000000000+000003132+0000025490+0000000003+I20000000000+0000025490+Z
330374001330374039-082106     330374006001023847348C/VOTIVE 8PC VANILLA   0000001000+00005262+00000+0001T   00005262+0000001029          1400 BA6510               3AZ
330374002330374019-000102     330374006003000280919VASE GLS BUD 18X6CM    0000002000+00004385+00000+0001T   00004385+0000001029          1400 BA6510               3AZ
330374003330374563-000318-H   330374006003000404483SERVIETTES 33cm LILAC  0000001000+00002192+00000+0001T   00002192+0000001029          1400 BA6214               3AZ
330374004330374563-000318-C   330374006003000403882SERVIETTES 33cm LIME   0000001000+00002192+00000+0001T   00002192+0000001029          1400 BA6214               3AZ
330374005330374563-000318-F   330374006003000404247SERVIETTES 33cm ORANGE 0000001000+00001753+00000+0001T   00001753+0000001029          1400 BA6214               3AZ
330374006330374563-000318-J   330374006003000404728SERVIETTES 33cm YELLOW 0000001000+00002192+00000+0001T   00002192+0000001029          1400 BA6214               3AZ
330375000330375               330375               170213OJ     1400+00000+OJ0000006839+0000006839+000000000+000000958+0000007790+0000000007+I20000000000+0000007790+Z
330375001330375206-000630     330375006003000631919SPECTACLE CLEANING BRUS0000002000+00001227+00000+0001T   00001227+0000001030          1400 BA6321               3AZ
330375002330375206-000180     330375006003000631223TEA INFUSER TEAMAN     0000001000+00004385+00000+0001T   00004385+0000001030          1400 BA6321               3AZ
330376000330376               330376               170213OJ     1400+00000+OJ0000008376+0000008376+000000000+000001174+0000009550+0000000000+I20000000000+0000009550+Z
330376001330376030-001111     330376006003000336951PLAQUE-WALL R/PIN 32cm 0000001000+00003507+00000+0001T   00004385+0008121036          1400 BA6505               3AZ
330376002330376078-000030     330376006003000151141YAMAYO SUPERGLUE 8g    0000001000+00001753+00000+0001T   00001753+0000001036          1400 BA6810               3AZ
330376003330376009-001456     330376006001023713568MELAMINE WHITE SIDE PLT0000001000+00001490+00000+0001T   00001490+0000001036          1400 BA6210               3AZ
330376004330376078-013424     330376006008741000338CONTACT-ADHESIVE 50ml  0000001000+00001578+00000+0001T   00001578+0000001036          1400 BA6810               3AZ
330376005330376112-116069     330376006009681820277TCS CARRIER BAG JUMBO  0000001000+00000048+00000+0001T   00000048+0000001036          1400 BA6090               3AZ
330377000330377               330377               170213OJ     1400+00000+OJ0000020473+0000020473+000000000+000002870+0000023340+0000000003+I20000000000+0000023340+Z
330377001330377077-000299     330377006003000395576G/BAG 32x25cm LRG LOVE 0000001000+00001490+00000+0001T   00001490+0000001046          1400 BA6112               3AZ
330377002330377001-091415     330377006003000329113W/GLS OCC. LOVE 2PC 2800000001000+00008771+00000+0001T   00009648+0006471046          1400 BA6515               3AZ
330377003330377077-000321     330377006001023677501GIFT-BAG 11X14CM E/D FL0000002000+00000613+00000+0001T   00000613+0000001046          1400 BA6112               3AZ
330377004330377362-003000     330377006003000295258GIRL HEART NOTEBOOK    0000002000+00001753+00000+0001T   00002630+0008191046          1400 BA6160               3AZ
330377005330377159-080352     330377006916920733314HOOKS 3PCE             0000001000+00001490+00000+0001T   00001490+0000001046          1400 BA6200               3AZ
330377006330377112-116069     330377006009681820277TCS CARRIER BAG JUMBO  0000001000+00000048+00000+0001T   00000048+0000001046          1400 BA6090               3AZ
330377007330377903-000861     330377005010478430822SWT LOVE HEARTS SML    0000003000+00000876+00000+0001T   00000876+0000001046          1400 BA6150               3AZ
330377008330377903-000844     330377005010478432567SWT CANDY DL LUV HEARTS0000001000+00001314+00000+0001T   00001314+0000001046          1400 BA6150               3AZ
330378000330378               330378               170213OJ     1400+00000+OJ0000005262+0000005262+000000000+000000737+0000005990+0000000009+I20000000000+0000005990+Z
330378001330378058-000064     330378006001023168504KNIFE TRIMMING FOLDABLE0000001000+00005262+00000+0001T   00005262+0000001049          1400 BA6840               3AZ
330379000330379               330379               170213OJ     1400+00000+OJ0000007061+0000007061+000000000+000000990+0000008050+0000000001+I20000000000+0000008050+Z
330379001330379071-005213     330379006001023690371CELLOTAPE 12mmx33m     0000001000+00000876+00000+0001T   00000876+0000001051          1400 BA6130               3AZ
330379002330379365-005267     330379006001023584366P/SET KITCHEN BAKING PL0000001000+00003507+00000+0001T   00003507+0000001051          1400 BA6725               3AZ
330379003330379566-000345     330379006001023994837STICKER ALBUM+STICKERS 0000001000+00002630+00000+0001T   00002630+0000001051          1400 BA6130               3AZ
330379004330379112-116069     330379006009681820277TCS CARRIER BAG JUMBO  0000001000+00000048+00000+0001T   00000048+0000001051          1400 BA6090               3AZ
330380000330380               330380               170213OJ     1400+00000+OJ0000009691+0000009691+000000000+000001359+0000011050+0000000000+I40000011050+0000000000+Z
330380001330380112-116069     330380006009681820277TCS CARRIER BAG JUMBO  0000001000+00000048+00000+0001T   00000048+0000001054          1400 BA6090               3AZ
330380002330380071-001102     330380006003000274598MARKER PERM MED 2PCE   0000001000+00001753+00000+0001T   00001753+0000001054          1400 BA6130               3AZ
330380003330380072-020316     330380006003000603589PET TOY PUP TUG CHEWS  0000001000+00002630+00000+0001T   00002630+0000001054          1400 BA6870               3AZ
330380004330380072-020359     330380006003000399758PET DOG/CAT BOWL SMALL 0000001000+00001753+00000+0001T   00001753+0000001054          1400 BA6870               3AZ
330380005330380072-020266     330380006003000400591PET PUPPY TRAINING PAD 0000001000+00003507+00000+0001T   00003507+0000001054          1400 BA6870               3AZ
330381000330381               330381               170213OJ     1400+00000+OJ0000012363+0000012363+000000000+000001732+0000014090+0000000005+I20000000000+0000014090+Z
330381001330381077-000299     330381006003000395576G/BAG 32x25cm LRG LOVE 0000001000+00001490+00000+0001T   00001490+0000001054          1400 BA6112               3AZ
330381002330381368-000099     330381006001023680259PLUSH DOG 23cm ASSTD   0000001000+00008771+00000+0001T   00008771+0000001054          1400 BA6745               3AZ
330381003330381018-000177     330381006001023797513MUG MINI LOVE ASSTD    0000001000+00000700+00000+0001T   00000700+0000001054          1400 BA6515               3AZ
330381004330381304-001204     330381006001023737984FLOWER OCC. TEDDY/ROSES0000001000+00001402+00000+0001T   00001490+0006471054          1400 BA6510               3AZ
330382000330382               330382               170213OJ     1400+00000+OJ0000002630+0000002630+000000000+000000369+0000002990+0000000009+I20000000000+0000002990+Z
330382001330382140-000030     330382006003000373123TRAP MOUSE PL PACK-2   0000001000+00002630+00000+0001T   00002630+0000001056          1400 BA6830               3AZ
330383000330383               330383               170213OJ     1400+00000+OJ0000007844+0000007844+000000000+000001103+0000008940+0000000007+I20000000000+0000008940+Z
330383001330383112-116069     330383006009681820277TCS CARRIER BAG JUMBO  0000001000+00000048+00000+0001T   00000048+0000001058          1400 BA6090               3AZ
330383002330383077-000317     330383006001023609748GIFT-BAG 11X14CM E/D AN0000001000+00000613+00000+0001T   00000613+0000001058          1400 BA6112               3AZ
330383003330383362-003000     330383006003000295258GIRL HEART NOTEBOOK    0000001000+00001753+00000+0001T   00002630+0008191058          1400 BA6160               3AZ
330383004330383566-000996     330383000721129013176TATTOOS TEMP BE ME ASST0000001000+00000876+00000+0001T   00000876+0000001058          1400 BA6130               3AZ
330383005330383077-000305     330383006003000395422GIFT-BAG WINE 10X35CM  0000001000+00001490+00000+0001T   00001490+0000001058          1400 BA6112               3AZ
330383006330383565-000002     330383006003000308071NOVELTY GROWING ANIMALS0000001000+00001753+00000+0001T   00001753+0000001058          1400 BA6745               3AZ
330383007330383007-000402     330383006009635830864EXERCISE-BOOK A4 72PGE 0000001000+00000525+00000+0001T   00000525+0000001058          1400 BA6130               3AZ
330383008330383903-000183     330383006003000451043SWT LB HEART LOLLY     0000002000+00000393+00000+0001T   00000393+0000001058          1400 BA6150               3AZ
330384000330384               330384               170213OJ     1400+00000+OJ0000009206+0000009206+000000000+000001290+0000010490+0000000006+I20000000000+0000010490+Z
330384001330384071-008229     330384006003000216017PENCIL-BAG ASTD COL A5 0000001000+00001753+00000+0001T   00001753+0000001059          1400 BA6130               3AZ
330384002330384369-000035     330384006001023795885EDU STACKING-SET ASSTD 0000001000+00003507+00000+0001T   00003507+0000001059          1400 BA6745               3AZ
330384003330384073-000521     330384006003000571697COSMETIC-BAG+ZIP RECT  0000001000+00003946+00000+0001T   00005262+0008121059          1400 BA6200               3AZ
330385000330385               330385               170213OJ     1400+00000+OJ0000000613+0000000613+000000000+000000086+0000000690+0000000009+I20000000000+0000000690+Z
330385001330385083-000055     330385006003000003853LIGHTER ELCTRNC REFILBL0000001000+00000613+00000+0001T   00000613+0000001113          1400 BA6315               3AZ
330386000330386               330386               170213OJ     1400+00000+OJ0000003507+0000003507+000000000+000000491+0000003990+0000000008+I20000000000+0000003990+Z
330386001330386104-000055     330386006001023889416BASKET PL 32x22x8cm    0000001000+00003507+00000+0001T   00003507+0000001119          1400 BA6210               3AZ
330387000330387               330387               170213OJ     1400+00000+OJ0000006488+0000006488+000000000+000000909+0000007397+0000000000+I40000007397+0000000000+Z
330387001330387083-000055     330387006003000003853LIGHTER ELCTRNC REFILBL0000002000+00000613+00000+0001T   00000613+0000001124          1400 BA6315               3AZ
330387002330387065-003642     330387006003000396405GUITAR ROCKER 2 TONE   0000001000+00005262+00000+0001T   00005262+0000001124          1400 BA6745               3AZ
330388000330388               330388               170213OJ     1400+00000+OJ0000003155+0000003155+000000000+000000443+0000003590+0000000008+I20000000000+0000003590+Z
330388001330388007-000402     330388006009635830864EXERCISE-BOOK A4 72PGE 0000001000+00000525+00000+0001T   00000525+0000001124          1400 BA6130               3AZ
330388002330388362-019285     330388006001023869456HAIR BAND SET ASS. CARD0000001000+00002630+00000+0001T   00002630+0000001124          1400 BA6160               3AZ
330389000330389               330389               170213OJ     1400+00000+OJ0000000000+0000000000+000000000+000000000+0000000000+0000000000+I20000000000+0000000000+Z
330389001330389071-008229     330389006003000216017PENCIL-BAG ASTD COL A5 0000001000-00001753+00000+0001T   00001753+0000001128          1400 BA61301IC            3 Z
330389002330389007-000043     330389006009635831496DISPLAY-BOOK PL A4 20PG0000001000+00001753+00000+0001T   00001753+0000001128          1400 BA6130               3 Z
330390000330390               330390               170213OJ     1400+00000+OJ0000000613+0000000613+000000000+000000086+0000000690+0000000009+I20000000000+0000000690+Z
330390001330390150-004030-H   330390006001023435798BATH-PLUG RUBBER WHITE 0000001000+00000613+00000+0001T   00000613+0000001129          1400 BA6810               3AZ
330391000330391               330391               170213OJ     1400+00000+OJ0000004432+0000004432+000000000+000000621+0000005050+0000000003+I20000000000+0000005050+Z
330391001330391002-000685     330391006001023693785K/TOOL P/MASHER H/HOUSE0000001000+00002192+00000+0001T   00002192+0000001132          1400 BA6300               3AZ
330391002330391002-000684     330391006001023693778K/TOOL TURNER H/HOUSE  0000001000+00002192+00000+0001T   00002192+0000001132          1400 BA6300               3AZ
330391003330391112-116069     330391006009681820277TCS CARRIER BAG JUMBO  0000001000+00000048+00000+0001T   00000048+0000001132          1400 BA6090               3AZ
330392000330392               330392               170213OJ     1400+00000+OJ0000004382+0000004382+000000000+000000615+0000004990+0000000007+I20000000000+0000004990+Z
330392001330392204-000001     330392006003000575558M/HOLD BOTTLE OPENER   0000001000+00001753+00000+0001T   00001753+0000001144          1400 BA6300               3AZ
330392002330392007-000723     330392006003000226078MEMO BOOK W/PEN 100SHTS0000001000+00001753+00000+0001T   00001753+0000001144          1400 BA6130               3AZ
330392003330392031-000878-A   330392006001023798985P/FRAME 10x15cm PL-SLID0000001000+00000876+00000+0001T   00000876+0000001144          1400 BA6510               3AZ
330393000330393               330393               170213OJ     1400+00000+OJ0000000048+0000000048+000000000+000000007+0000000050+0000000005+I20000000000+0000000050+Z
330393001330393112-116069     330393006009681820277TCS CARRIER BAG JUMBO  0000001000+00000048+00000+0001T   00000048+0000001145          1400 BA6090               3AZ
330394000330394               330394               170213OJ     1400+00000+OJ0000004385+0000004385+000000000+000000614+0000004990+0000000009+I20000000000+0000004990+Z
330394001330394486-001012     330394006001023820907CLOCK ALARM SQR 10X12CM0000001000+00004385+00000+0001T   00004385+0000001146          1400 BA6510               3AZ
330395000330395               330395               170213OJ     1400+00000+OJ0000008771+0000008771+000000000+000001228+0000009990+0000000009+I20000000000+0000009990+Z
330395001330395031-086302-C   330395006001023910332P/FRAME COLL. PL 3-HOLE0000001000+00008771+00000+0001T   00008771+0000001148          1400 BA6510               3AZ
330396000330396               330396               170213OJ     1400+00000+OJ0000001662+0000001662+000000000+000000234+0000001890+0000000006+I20000000000+0000001890+Z
330396001330396903-000155     330396006009803374435SWT LOLLY I LUV U HEART0000001000+00000525+00000+0001T   00000525+0000001151          1400 BA6150               3AZ
330396002330396903-000885     330396008690997017147SWT L/BIRD CHOC BISCUIT0000001000+00000437+00000+0001T   00000437+0000001151          1400 BA6150               3AZ
330396003330396018-000177     330396006001023797513MUG MINI LOVE ASSTD    0000001000+00000700+00000+0001T   00000700+0000001151          1400 BA6515               3AZ
330397000330397               330397               170213OJ     1400+00000+OJ0000001753+0000001753+000000000+000000246+0000001990+0000000009+I20000000000+0000001990+Z
330397001330397072-000232     330397006003000236060DOG-COL REFLCTV 35-51cm0000001000+00001753+00000+0001T   00001753+0000001155          1400 BA6870               3AZ
330398000330398               330398               170213OJ     1400+00000+OJ0000015393+0000015393+000000000+000002158+0000017550+0000000001+I20000000000+0000017550+Z
330398001330398369-000235     330398006001023857194LEARNING-LINKS 12PCE   0000002000+00002630+00000+0001T   00002630+0000001157          1400 BA6745               3AZ
330398002330398072-020315     330398006003000623891PET TOY PUPPY RING 3in10000001000+00003069+00000+0001T   00003069+0000001157          1400 BA6870               3AZ
330398003330398562-088355-A   330398006001023873262EVA MAT NUMBERS 10PC   0000001000+00007016+00000+0001T   00007016+0000001157          1400 BA6755               3AZ
330398004330398112-116069     330398006009681820277TCS CARRIER BAG JUMBO  0000001000+00000048+00000+0001T   00000048+0000001157          1400 BA6090               3AZ
330399000330399               330399               170213OJ     1400+00000+OJ0000007892+0000007892+000000000+000001106+0000008998+0000000000+I40000008998+0000000000+Z
330399001330399019-071603     330399006001023772039RIVER-STONES 1kg PEACH 0000001000+00002630+00000+0001T   00002630+0000001159          1400 BA6510               3AZ
330399002330399003-008010     330399006001023711373ORN FIG. FARMER ASST   0000001000+00005262+00000+0001T   00005262+0000001159          1400 BA6505               3AZ
330400000330400               330400               170213OJ     1400+00000+OJ0000002630+0000002630+000000000+000000369+0000002990+0000000009+I20000000000+0000002990+Z
330400001330400306-001618     330400006003000571574INNER SOLES 2-PAIR KIDS0000001000+00002630+00000+0001T   00002630+0000001209          1400 BA6200               3AZ
330401000330401               330401               170213OJ     1400+00000+OJ0000001753+0000001753+000000000+000000246+0000001990+0000000009+I20000000000+0000001990+Z
330401001330401104-000010     330401006001023507822BASKET 30x23cm RECT.   0000001000+00001753+00000+0001T   00001753+0000001210          1400 BA6210               3AZ
330402000330402               330402               170213OJ     1400+00000+OJ0000003069+0000003069+000000000+000000430+0000003490+0000000009+I20000000000+0000003490+Z
330402001330402567-014135     330402006003000560264BOOK COLOURING 240P    0000001000+00003069+00000+0001T   00003507+0008191212          1400 BA6757               3AZ
330403000330403               330403               170213OJ     1400+00000+OJ0000008111+0000008111+000000000+000001137+0000009248+0000000000+I40000009248+0000000000+Z
330403001330403112-116069     330403006009681820277TCS CARRIER BAG JUMBO  0000001000+00000048+00000+0001T   00000048+0000001221          1400 BA6090               3AZ
330403002330403903-000519     330403006001704012805SWT MS LIQ-O-GHETTI    0000001000+00001227+00000+0001T   00001227+0000001221          1400 BA6150               3AZ
330403003330403903-000843     330403008693029031067SWT GUMMY JELAXY 80G   0000001000+00000964+00000+0001T   00000964+0000001221          1400 BA6150               3AZ
330403004330403566-000068     330403006003000418046POP UP LOVE 2 ASSTD    0000001000+00002192+00000+0001T   00002192+0000001221          1400 BA6130               3AZ
330403005330403903-000924     330403006942797400615SWT HOT WHEELS SPRAY   0000001000+00001578+00000+0001T   00001578+0000001221          1400 BA6150               3AZ
330403006330403903-000925     330403006009706300296SWT NOVELTY SURPRISE   0000001000+00001402+00000+0001T   00001402+0000001221          1400 BA6150               3AZ
330403007330403018-000177     330403006001023797513MUG MINI LOVE ASSTD    0000001000+00000700+00000+0001T   00000700+0000001221          1400 BA6515               3AZ
330404000330404               330404               170213OJ     1400+00000+OJ0000011444+0000011444+000000000+000001603+0000013040+0000000007+I20000000000+0000013040+Z
330404001330404018-000136     330404006001023659026MUG OCC LOVE W/PLUSH   0000002000+00003507+00000+0001T   00003507+0000001227          1400 BA6515               3AZ
330404002330404077-000303     330404006001023593757GIFT-BAG PAPER MED     0000002000+00001578+00000+0001T   00001578+0000001227          1400 BA6112               3AZ
330404003330404304-001011     330404006001023806727FLWR ROSE RED W/BEAR   0000002000+00000613+00000+0001T   00000788+0006471227          1400 BA6510               3AZ
330404004330404112-116069     330404006009681820277TCS CARRIER BAG JUMBO  0000001000+00000048+00000+0001T   00000048+0000001227          1400 BA6090               3AZ
330405000330405               330405               170213OJ     1400+00000+OJ0000003507+0000003507+000000000+000000491+0000003990+0000000008+I20000000000+0000003990+Z
330405001330405071-000682     330405006003000196920ACCESSORIES DESKTOP ASS0000001000+00003507+00000+0001T   00003507+0000001237          1400 BA6130               3AZ
330406000330406               330406               170213OJ     1400+00000+OJ0000035123+0000035123+000000000+000004921+0000040044+0000000000+I40000040044+0000000000+Z
330406001330406079-000336     330406006003000670758SUPER FINE MARKER PENS 0000002000+00005262+00000+0001T   00005262+0000001248          1400 BA6130               3AZ
330406002330406112-116069     330406006009681820277TCS CARRIER BAG JUMBO  0000001000+00000048+00000+0001T   00000048+0000001248          1400 BA6090               3AZ
330406003330406200-003026     330406006003000276448REFUSE BAGS 10PCE GREEN0000002000+00001753+00000+0001T   00001753+0000001248          1400 BA6214               3AZ
330406004330406567-011422     330406006003000641222BK COLOURING THERAPY   0000002000+00003507+00000+0001T   00003507+0000001248          1400 BA6757               3AZ
330406005330406567-011423     330406006003000641345BK COLOURING THERAPY A50000002000+00006139+00000+0001T   00006139+0000001248          1400 BA6757               3AZ
330406006330406306-000021-C   330406006003000567294EARBUDS 300PCE IN TUB  0000001000+00001753+00000+0001T   00001753+0000001248          1400 BA6200               3AZ
330407000330407               330407               170213OJ     1400+00000+OJ0000006926+0000006926+000000000+000000971+0000007890+0000000007+I20000000000+0000007890+Z
330407001330407077-000289     330407006001023901996GIFT BOX 20x25x11cm    0000001000+00001753+00000+0001T   00001753+0000001248          1400 BA6112               3AZ
330407002330407077-000010-C   330407006001023123879CREPE-PAPER RED        0000001000+00000788+00000+0001T   00000788+0000001248          1400 BA6112               3AZ
330407003330407006-000190     330407006003000685530BALLOONS LOVE 81x91cm  0000001000+00004385+00000+0001T   00004385+0000001248          1400 BA6131               3AZ
330408000330408               330408               170213OJ     1400+00000+OJ0000000048+0000000048+000000000+000000007+0000000050+0000000005+I20000000000+0000000050+Z
330408001330408112-116069     330408006009681820277TCS CARRIER BAG JUMBO  0000001000+00000048+00000+0001T   00000048+0000001249          1400 BA6090               3AZ
330409000330409               330409               170213OJ     1400+00000+OJ0000005699+0000005699+000000000+000000798+0000006490+0000000007+I20000000000+0000006490+Z
330409001330409018-005009     330409006001023725608MUG W/PLUSH-BEAR LOVE  0000001000+00003507+00000+0001T   00003507+0000001252          1400 BA6515               3AZ
330409002330409080-000127     330409006003000424351VALENTINES DAY 36x24CM 0000001000+00002192+00000+0001T   00002192+0000001252          1400 BA6112               3AZ
330410000330410               330410               170213OJ     1400+00000+OJ0000001753+0000001753+000000000+000000246+0000001990+0000000009+I20000000000+0000001990+Z
330410001330410089-000030     330410006003000575671K/CHAIN LOVE MTL ASSTD 0000001000+00001753+00000+0001T   00001753+0000001253          1400 BA6205               3AZ
330411000330411               330411               170213OJ     1400+00000+OJ0000012279+0000012279+000000000+000001720+0000013990+0000000009+I20000000000+0000013990+Z
330411001330411497-058329     330411000078257583294BOAT EXPLORER 100      0000001000+00012279+00000+0001T   00012279+0000001255          1400 BA6787               3AZ
330412000330412               330412               170213OJ     1400+00000+OJ0000004200+0000004200+000000000+000000588+0000004780+0000000008+I20000000000+0000004780+Z
330412001330412903-000070     330412006001704001106SWT TOFFEE CREAMY 35g  0000006000+00000700+00000+0001T   00000700+0000001305          1400 BA6150               3AZ
330413000330413               330413               170213OJ     1400+00000+OJ0000029467+0000029467+000000000+000004127+0000033590+0000000004+I20000000000+0000033590+Z
330413001330413466-000005     330413006003000508174PLAY-TENT POP-UP GIRL  0000001000+00021928+00000+0001T   00021928+0000001309          1400 BA6785               3AZ
330413002330413046-002330-PK2 330413004897006178347BATTERY LITHIUM CR-23300000001000+00002630+00000+0001T   00002630+0000001309          1400 BA6312               3AZ
330413003330413046-002032-PK2 330413004897006175063BATTERIES CR-2032  2PCE0000001000+00001753+00000+0001T   00001753+0000001309          1400 BA6312               3AZ
330413004330413006-000214-A   330413006003000311057P/GIRL JNR INVITE 6PCE 0000002000+00001578+00000+0001T   00001578+0000001309          1400 BA6131               3AZ
330414000330414               330414               170213OJ     1400+00000+OJ0000005294+0000005294+000000000+000000743+0000006037+0000000000+I40000006037+0000000000+Z
330414001330414080-000117     330414006003000236350CARD & ENVELOPE THANK U0000003000+00001753+00000+0001T   00001753+0000001317          1400 BA6112               3AZ
330414002330414112-116038     330414006009681820246TCS CARRIER BAG MIDI   0000001000+00000035+00000+0001T   00000035+0000001317          1400 BA6090               3AZ
330415000330415               330415               170213OJ     1400+00000+OJ0000008326+0000008326+000000000+000001168+0000009490+0000000004+I20000000000+0000009490+Z
330415001330415039-000319-3   330415006003000442621B/CANDLES LRG NUMBER-3 0000001000+00000876+00000+0001T   00000876+0000001318          1400 BA6510               3AZ
330415002330415006-000214-B   330415006003000311170P/BOY JNR INVITE 6PCE  0000005000+00001490+00000+0001T   00001490+0000001318          1400 BA6131               3AZ
330416000330416               330416               170213OJ     1400+00000+OJ0000008771+0000008771+000000000+000001228+0000009990+0000000009+I20000000000+0000009990+Z
330416001330416072-020242     330416006003000053728PET BED COTTON TEXTILE 0000001000+00008771+00000+0001T   00008771+0000001321          1400 BA6870               3AZ
330417000330417               330417               170213OJ     1400+00000+OJ0000011225+0000011225+000000000+000001572+0000012797+0000000000+I40000012797+0000000000+Z
330417001330417077-000011-D   330417006001023808554TISSUE-WRAP WHITE 10PCE0000001000+00000876+00000+0001T   00000876+0000001328          1400 BA6112               3AZ
330417002330417077-000315     330417006003000181186GIFT-BAG 20x28cm MATT  0000001000+00001578+00000+0001T   00001578+0000001328          1400 BA6112               3AZ
330417003330417001-091415     330417006003000329113W/GLS OCC. LOVE 2PC 2800000001000+00008771+00000+0001T   00009648+0006471328          1400 BA6515               3AZ
330418000330418               330418               170213OJ     1400+00000+OJ0000010469+0000010469+000000000+000001467+0000011930+0000000006+I20000000000+0000011930+Z
330418001330418056-005752     330418006003000491674CAR AIR-FRESH FISH ASST0000001000+00001753+00000+0001T   00001753+0000001332          1400 BA6860               3AZ
330418002330418003-009110     330418006003000675395ORN SIGN INSPIRATIONAL 0000001000+00003069+00000+0001T   00003069+0000001332          1400 BA6505               3AZ
330418003330418029-000009     330418006001023809575BUCKET GALV  2L        0000001000+00004385+00000+0001T   00004385+0000001332          1400 BA6510               3AZ
330418004330418112-116038     330418006009681820246TCS CARRIER BAG MIDI   0000001000+00000035+00000+0001T   00000035+0000001332          1400 BA6090               3AZ
330418005330418903-000517     330418006001704012768SWT STRAWS FIZZY CHERRY0000001000+00001227+00000+0001T   00001227+0000001332          1400 BA6150               3AZ
330419000330419               330419               170213OJ     1400+00000+OJ0000003943+0000003943+000000000+000000553+0000004490+0000000006+I20000000000+0000004490+Z
330419001330419903-000297     330419006001704002950SWT MS WILD BERRY 50G  0000001000+00000876+00000+0001T   00000876+0000001333          1400 BA6150               3AZ
330419002330419903-000844     330419005010478432567SWT CANDY DL LUV HEARTS0000001000+00001314+00000+0001T   00001314+0000001333          1400 BA6150               3AZ
330419003330419306-000002     330419006003000365852NAIL BRUSHES 3PC ASTD  0000001000+00001753+00000+0001T   00001753+0000001333          1400 BA6200               3AZ
330420000330420               330420               170213OJ     1400+00000+OJ0000004155+0000004155+000000000+000000583+0000004730+0000000008+I20000000000+0000004730+Z
330420001330420077-000299     330420006003000395576G/BAG 32x25cm LRG LOVE 0000001000+00001490+00000+0001T   00001490+0000001337          1400 BA6112               3AZ
330420002330420018-000129     330420006001023403353MUG OCC. LOVE V-SHAPE  0000001000+00002630+00000+0001T   00002630+0000001337          1400 BA6515               3AZ
330420003330420112-116038     330420006009681820246TCS CARRIER BAG MIDI   0000001000+00000035+00000+0001T   00000035+0000001337          1400 BA6090               3AZ
330421000330421               330421               170213OJ     1400+00000+OJ0000017583+0000017583+000000000+000002462+0000020040+0000000005+I20000000000+0000020040+Z
330421001330421112-116069     330421006009681820277TCS CARRIER BAG JUMBO  0000001000+00000048+00000+0001T   00000048+0000001339          1400 BA6090               3AZ
330421002330421018-000136     330421006001023659026MUG OCC LOVE W/PLUSH   0000002000+00003507+00000+0001T   00003507+0000001339          1400 BA6515               3AZ
330421003330421018-000130     330421006001023867537MUG OCC LOVE MINI+HEART0000002000+00003507+00000+0001T   00003507+0000001339          1400 BA6515               3AZ
330421004330421018-005009     330421006001023725608MUG W/PLUSH-BEAR LOVE  0000001000+00003507+00000+0001T   00003507+0000001339          1400 BA6515               3AZ
330422000330422               330422               170213OJ     1400+00000+OJ0000010029+0000010029+000000000+000001406+0000011430+0000000005+I20000000000+0000011430+Z
330422001330422368-000049     330422006003000536955PLUSH BEAR 15cm LOVE   0000001000+00004385+00000+0001T   00004385+0000001344          1400 BA6745               3AZ
330422002330422301-085004     330422006003000420469ORN LOVE PLAQUE 21X10CM0000001000+00003507+00000+0001T   00003946+0006471344          1400 BA6505               3AZ
330422003330422903-002851     330422000000087108538MENTOS ROLL STRAWBERRY 0000002000+00001051+00000+0001T   00001051+0000001344          1400 BA6150               3AZ
330422004330422112-116038     330422006009681820246TCS CARRIER BAG MIDI   0000001000+00000035+00000+0001T   00000035+0000001344          1400 BA6090               3AZ
330423000330423               330423               170213OJ     1400+00000+OJ0000000525+0000000525+000000000+000000074+0000000590+0000000009+I20000000000+0000000590+Z
330423001330423903-000155     330423006009803374435SWT LOLLY I LUV U HEART0000001000+00000525+00000+0001T   00000525+0000001344          1400 BA6150               3AZ
330424000330424               330424               170213OJ     1400+00000+OJ0000002540+0000002540+000000000+000000356+0000002890+0000000006+I20000000000+0000002890+Z
330424001330424903-004960     330424008410525221842SWT GUMMY STR/BERRY 50G0000001000+00000964+00000+0001T   00000964+0000001417          1400 BA6150               3AZ
330424002330424077-000302     330424008010410010195GIFT-BAG 18X23CM E/D   0000001000+00000876+00000+0001T   00000876+0000001417          1400 BA6112               3AZ
330424003330424018-000177     330424006001023797513MUG MINI LOVE ASSTD    0000001000+00000700+00000+0001T   00000700+0000001417          1400 BA6515               3AZ
330425000330425               330425               170213OJ     1400+00000+OJ0000002454+0000002454+000000000+000000344+0000002790+0000000008+I20000000000+0000002790+Z
330425001330425079-000010     330425006001023173409P/CRAYONS 12-COL SHORT 0000002000+00001227+00000+0001T   00001227+0000001420          1400 BA6130               3AZ
330426000330426               330426               170213OJ     1400+00000+OJ0000000613+0000000613+000000000+000000086+0000000690+0000000009+I20000000000+0000000690+Z
330426001330426304-001011     330426006001023806727FLWR ROSE RED W/BEAR   0000001000+00000613+00000+0001T   00000788+0006471421          1400 BA6510               3AZ
330427000330427               330427               170213OJ     1400+00000+OJ0000001311+0000001311+000000000+000000186+0000001490+0000000007+I20000000000+0000001490+Z
330427001330427071-000212     330427006003000445318CHALK WHITE 12PCE      0000003000+00000437+00000+0001T   00000437+0000001422          1400 BA6130               3AZ
330428000330428               330428               170213OJ     1400+00000+OJ0000004385+0000004385+000000000+000000614+0000004990+0000000009+I20000000000+0000004990+Z
330428001330428467-000007     330428006003000330676BEACH-SET WATER-CAN+ACC0000001000+00004385+00000+0001T   00004385+0000001428          1400 BA6785               3AZ
330429000330429               330429               170213OJ     1400+00000+OJ0000001839+0000001839+000000000+000000258+0000002090+0000000007+I20000000000+0000002090+Z
330429001330429903-000849     330429008692806080083SWT SNACK BISCUIT 70g  0000003000+00000613+00000+0001T   00000613+0000001431          1400 BA6150               3AZ
330430000330430               330430               170213OJ     1400+00000+OJ0000003506+0000003506+000000000+000000492+0000003990+0000000008+I20000000000+0000003990+Z
330430001330430566-002004     330430006001023672421STICKERS CRYSTAL SHAPES0000002000+00001753+00000+0001T   00001753+0000001432          1400 BA6130               3AZ
330431000330431               330431               170213OJ     1400+00000+OJ0000001311+0000001311+000000000+000000186+0000001490+0000000007+I20000000000+0000001490+Z
330431001330431080-000133-A   330431006003000647019MINI VALENTINES CARD   0000003000+00000437+00000+0001T   00000437+0000001433          1400 BA6112               3AZ
330432000330432               330432               170213OJ     1400+00000+OJ0000004385+0000004385+000000000+000000614+0000004990+0000000009+I20000000000+0000004990+Z
330432001330432082-000100     330432006003000360246READING GLS STRENGHT:1 0000001000+00004385+00000+0001T   00004385+0000001436          1400 BA6160               3AZ
330433000330433               330433               170213OJ     1400+00000+OJ0000009416+0000009416+000000000+000001320+0000010730+0000000006+I20000000000+0000010730+Z
330433001330433079-013052     330433000795229385143CHALK S/WALK 15PCS ASST0000001000+00004385+00000+0001T   00004385+0000001437          1400 BA6130               3AZ
330433002330433079-006494     330433006003000159864GLITTER GLUE 5PCE 11cm 0000001000+00001490+00000+0001T   00001490+0000001437          1400 BA6130               3AZ
330433003330433903-000912     330433006009802868461SWT GUM TAPE HOT WHEELS0000001000+00001753+00000+0001T   00001753+0000001437          1400 BA6150               3AZ
330433004330433903-000911     330433006009802868454SWT ST GUM TAPE BARBIE 0000001000+00001753+00000+0001T   00001753+0000001437          1400 BA6150               3AZ
330433005330433112-116038     330433006009681820246TCS CARRIER BAG MIDI   0000001000+00000035+00000+0001T   00000035+0000001437          1400 BA6090               3AZ
330434000330434               330434               170213OJ     1400+00000+OJ0000008803+0000008803+000000000+000001234+0000010030+0000000007+I20000000000+0000010030+Z
330434001330434562-000810     330434006003000158867EDU PEG BOARD ART SETS 0000001000+00004385+00000+0001T   00004385+0000001438          1400 BA6755               3AZ
330434002330434567-011498     330434000814625014348BK COLOURING 96P JUNGLE0000001000+00001753+00000+0001T   00002630+0008141438          1400 BA6757               3AZ
330434003330434567-011499     330434000814625012863BK COLOURING 96P BUSY  0000001000+00002630+00000+0001T   00002630+0000001438          1400 BA6757               3AZ
330434004330434112-116038     330434006009681820246TCS CARRIER BAG MIDI   0000001000+00000035+00000+0001T   00000035+0000001438          1400 BA6090               3AZ
330435000330435               330435               170213OJ     1400+00000+OJ0000004382+0000004382+000000000+000000614+0000004990+0000000006+I20000000000+0000004990+Z
330435001330435018-000127     330435006001023380289MUG OCC STRAIGHT LOVE  0000002000+00001578+00000+0001T   00001753+0006471449          1400 BA6515               3AZ
330435002330435304-001011     330435006001023806727FLWR ROSE RED W/BEAR   0000002000+00000613+00000+0001T   00000788+0006471449          1400 BA6510               3AZ
330436000330436               330436               170213OJ     1400+00000+OJ0000003067+0000003067+000000000+000000431+0000003498+0000000000+I40000003498+0000000000+Z
330436001330436080-000133     330436006003000535613CARD&ENV MINI ASTD DSGN0000001000+00000437+00000+0001T   00000437+0000001452          1400 BA6112               3AZ
330436002330436566-000006     330436006001023671189STICKER-BOOK DRESS-UP  0000001000+00002630+00000+0001T   00002630+0000001452          1400 BA6130               3AZ
330437000330437               330437               170213OJ     1400+00000+OJ0000007013+0000007013+000000000+000000984+0000007997+0000000000+I40000007997+0000000000+Z
330437001330437077-000240     330437006003000326259G/RIBBON 4PC PEARLIZED 0000001000+00001753+00000+0001T   00001753+0000001455          1400 BA6112               3AZ
330437002330437079-006495     330437006003000159987GLITTER SHAKERS 6PK    0000002000+00002630+00000+0001T   00002630+0000001455          1400 BA6130               3AZ
330438000330438               330438               170213OJ     1400+00000+OJ0000001051+0000001051+000000000+000000148+0000001190+0000000009+I20000000000+0000001190+Z
330438001330438903-002890     330438008935001721352MENTOS GUM PURE F/MINT 0000001000+00001051+00000+0001T   00001051+0000001455          1400 BA6150               3AZ
330439000330439               330439               170213OJ     1400+00000+OJ0000007016+0000007016+000000000+000000983+0000007990+0000000009+I20000000000+0000007990+Z
330439001330439079-001000     330439006003000448470CANVAS A2 WOOD MOUNTED 0000001000+00007016+00000+0001T   00007016+0000001455          1400 BA6130               3AZ
330440000330440               330440               170213OJ     1400+00000+OJ0000001490+0000001490+000000000+000000209+0000001690+0000000009+I20000000000+0000001690+Z
330440001330440077-000299     330440006003000395576G/BAG 32x25cm LRG LOVE 0000001000+00001490+00000+0001T   00001490+0000001511          1400 BA6112               3AZ
330441000330441               330441               170213OJ     1400+00000+OJ0000004383+0000004383+000000000+000000615+0000004990+0000000008+I20000000000+0000004990+Z
330441001330441077-000382     330441006003000247820GIFT-BAG MED 18X23CM   0000001000+00001753+00000+0001T   00001753+0000001512          1400 BA6112               3AZ
330441002330441108-003023     330441006003000665471TUMBLER W/STRAW 550ml  0000001000+00002630+00000+0001T   00002630+0000001512          1400 BA6210               3AZ
330442000330442               330442               170213OJ     1400+00000+OJ0000001490+0000001490+000000000+000000209+0000001690+0000000009+I20000000000+0000001690+Z
330442001330442077-000299     330442006003000395576G/BAG 32x25cm LRG LOVE 0000001000+00001490+00000+0001T   00001490+0000001513          1400 BA6112               3AZ
330443000330443               330443               170213OJ     1400+00000+OJ0000006187+0000006187+000000000+000000867+0000007050+0000000004+I20000000000+0000007050+Z
330443001330443018-050000     330443006003000412679MUG OCC LOVE TWIN BEAR 0000001000+00006139+00000+0001T   00006139+0000001515          1400 BA6515               3AZ
330443002330443112-116069     330443006009681820277TCS CARRIER BAG JUMBO  0000001000+00000048+00000+0001T   00000048+0000001515          1400 BA6090               3AZ
330444000330444               330444               170213OJ     1400+00000+OJ0000017542+0000017542+000000000+000002456+0000019990+0000000008+I20000000000+0000019990+Z
330444001330444002-010403     330444006001023203854JAFFLE-IRON ALUM. H/HOU0000001000+00017542+00000+0001T   00017542+0000001522          1400 BA6300               3AZ
330445000330445               330445               170213OJ     1400+00000+OJ0000016221+0000016221+000000000+000002273+0000018490+0000000004+I20000000000+0000018490+Z
330445001330445089-000027     330445006003000254071KEY CHAIN MOM/DAD ASSTD0000001000+00001753+00000+0001T   00001753+0000001546          1400 BA6205               3AZ
330445002330445077-000011-D   330445006001023808554TISSUE-WRAP WHITE 10PCE0000001000+00000876+00000+0001T   00000876+0000001546          1400 BA6112               3AZ
330445003330445007-000900     330445006003000541515NOTE BOOK SET + PEN    0000001000+00004385+00000+0001T   00004385+0000001546          1400 BA6130               3AZ
330445004330445018-019000     330445006003000557288MUG OCC. LOVE JUMBO    0000001000+00005262+00000+0001T   00005262+0000001546          1400 BA6515               3AZ
330445005330445080-000127     330445006003000424351VALENTINES DAY 36x24CM 0000001000+00002192+00000+0001T   00002192+0000001546          1400 BA6112               3AZ
330445006330445077-000299-A   330445006003000670888GIFT-BAG PAPER JMB LOVE0000001000+00001753+00000+0001T   00001753+0000001546          1400 BA6112               3AZ
330446000330446               330446               170213OJ     1400+00000+OJ0000001753+0000001753+000000000+000000246+0000001990+0000000009+I20000000000+0000001990+Z
330446001330446200-003024     330446006001023657299REFUSE BAGS 20PCE BLACK0000001000+00001753+00000+0001T   00001753+0000001547          1400 BA6214               3AZ
330447000330447               330447               170213OJ     1400+00000+OJ0000002192+0000002192+000000000+000000307+0000002490+0000000009+I20000000000+0000002490+Z
330447001330447080-000127     330447006003000424351VALENTINES DAY 36x24CM 0000001000+00002192+00000+0001T   00002192+0000001548          1400 BA6112               3AZ
330448000330448               330448               170213OJ     1400+00000+OJ0000009645+0000009645+000000000+000001352+0000010990+0000000007+I20000000000+0000010990+Z
330448001330448566-001500     330448006003000658275STICKER PUFFY EMOTION  0000001000+00001753+00000+0001T   00001753+0000001551          1400 BA6130               3AZ
330448002330448079-002909     330448006003000639410ART+CRAFT MAGIC MARKERS0000001000+00002630+00000+0001T   00002630+0000001551          1400 BA6130               3AZ
330448003330448466-000071     330448006003000670871BALL FOOTBALL NO.4     0000001000+00005262+00000+0001T   00005262+0000001551          1400 BA6785               3AZ
330449000330449               330449               170213OJ     1400+00000+OJ0000021443+0000021443+000000000+000003004+0000024447+0000000000+I40000024447+0000000000+Z
330449001330449077-000304     330449006001023483232GIFT-BAG 25X32CM E/DAY 0000001000+00001490+00000+0001T   00001490+0000001554          1400 BA6112               3AZ
330449002330449085-007008     330449006001023870988P/TOOL 23in1 HAMMER-BIT0000001000+00008771+00000+0001T   00008771+0000001554          1400 BA6305               3AZ
330449003330449362-001052     330449006001023915078NAIL TEEN ART SET 5PCE 0000001000+00002630+00000+0001T   00002630+0000001554          1400 BA6160               3AZ
330449004330449079-006494     330449006003000159864GLITTER GLUE 5PCE 11cm 0000001000+00001490+00000+0001T   00001490+0000001554          1400 BA6130               3AZ
330449005330449079-000801     330449006003000539642ART+CRAFT COLOUR       0000001000+00003507+00000+0001T   00003507+0000001554          1400 BA6130               3AZ
330449006330449567-011344     330449006003000630714BK COLOURING THERAPY 640000001000+00003507+00000+0001T   00003507+0000001554          1400 BA6757               3AZ
330449007330449112-116069     330449006009681820277TCS CARRIER BAG JUMBO  0000001000+00000048+00000+0001T   00000048+0000001554          1400 BA6090               3AZ
330450000330450               330450               170213OJ     1400+00000+OJ0000003945+0000003945+000000000+000000553+0000004490+0000000008+I20000000000+0000004490+Z
330450001330450024-091102     330450006003453000010BAKING-CUP PAPER 50PC  0000001000+00002192+00000+0001T   00002192+0000001555          1400 BA6300               3AZ
330450002330450031-005820     330450006001023667816P/FRAME-CLIP 15X20CM   0000001000+00001753+00000+0001T   00001753+0000001555          1400 BA6510               3AZ
330451000330451               330451               170213OJ     1400+00000+OJ0000003243+0000003243+000000000+000000455+0000003690+0000000008+I20000000000+0000003690+Z
330451001330451079-009702-D   330451008427973059354PAPER SIRIO A2 RED COL 0000001000+00001051+00000+0001T   00001051+0000001557          1400 BA6130               3AZ
330451002330451077-000509     330451006003000082582GIFT-BAG SML 6PCE ORG P0000001000+00002192+00000+0001T   00002192+0000001557          1400 BA6112               3AZ
330452000330452               330452               170213OJ     1400+00000+OJ0000003507+0000003507+000000000+000000491+0000003990+0000000008+I20000000000+0000003990+Z
330452001330452018-000136     330452006001023659026MUG OCC LOVE W/PLUSH   0000001000+00003507+00000+0001T   00003507+0000001558          1400 BA6515               3AZ
330453000330453               330453               170213OJ     1400+00000+OJ0000014602+0000014602+000000000+000002048+0000016650+0000000000+I20000000000+0000016650+Z
330453001330453112-116069     330453006009681820277TCS CARRIER BAG JUMBO  0000001000+00000048+00000+0001T   00000048+0000001559          1400 BA6090               3AZ
330453002330453036-000151     330453006001023810588COATHANGERS    PACK-10 0000001000+00002893+00000+0001T   00002893+0000001559          1400 BA6212               3AZ
330453003330453306-000529     330453006003000571338TOOTHBRUSH HOLDER 20cm 0000002000+00001753+00000+0001T   00001753+0000001559          1400 BA6200               3AZ
330453004330453140-006004     330453006001023628077FLY-SWATTER RUBBER     0000001000+00001139+00000+0001T   00001139+0000001559          1400 BA6830               3AZ
330453005330453174-000305     330453006003000105502TRAVEL NECK-PILLOW     0000001000+00007016+00000+0001T   00007016+0000001559          1400 BA6205               3AZ
330454000330454               330454               170213OJ     1400+00000+OJ0000011008+0000011008+000000000+000001543+0000012550+0000000001+I20000000000+0000012550+Z
330454001330454080-000127     330454006003000424351VALENTINES DAY 36x24CM 0000001000+00002192+00000+0001T   00002192+0000001601          1400 BA6112               3AZ
330454002330454304-000720     330454006001023843050F/BUNCH ROSE 6-HEAD AST0000001000+00002630+00000+0001T   00002630+0000001601          1400 BA6510               3AZ
330454003330454368-000049     330454006003000536955PLUSH BEAR 15cm LOVE   0000001000+00004385+00000+0001T   00004385+0000001601          1400 BA6745               3AZ
330454004330454077-000290     330454006001023902023GIFT BOX 26x32x13cm    0000001000+00001753+00000+0001T   00001753+0000001601          1400 BA6112               3AZ
330454005330454112-116069     330454006009681820277TCS CARRIER BAG JUMBO  0000001000+00000048+00000+0001T   00000048+0000001601          1400 BA6090               3AZ
330455000330455               330455               170213OJ     1400+00000+OJ0000001753+0000001753+000000000+000000246+0000001990+0000000009+I20000000000+0000001990+Z
330455001330455903-000610     330455006003000610518SWEET JUMBO BUBBLE GUM 0000001000+00001753+00000+0001T   00001753+0000001601          1400 BA6150               3AZ
330456000330456               330456               170213OJ     1400+00000+OJ0000001753+0000001753+000000000+000000246+0000001990+0000000009+I20000000000+0000001990+Z
330456001330456037-000004     330456006001023763679ASHTRAY PL TUB 8X11CM  0000001000+00001753+00000+0001T   00002192+0008191602          1400 BA6515               3AZ
330457000330457               330457               170213OJ     1400+00000+OJ0000009694+0000009694+000000000+000001358+0000011050+0000000002+I20000000000+0000011050+Z
330457001330457018-050000     330457006003000412679MUG OCC LOVE TWIN BEAR 0000001000+00006139+00000+0001T   00006139+0000001604          1400 BA6515               3AZ
330457002330457018-000136     330457006001023659026MUG OCC LOVE W/PLUSH   0000001000+00003507+00000+0001T   00003507+0000001604          1400 BA6515               3AZ
330457003330457112-116069     330457006009681820277TCS CARRIER BAG JUMBO  0000001000+00000048+00000+0001T   00000048+0000001604          1400 BA6090               3AZ
330458000330458               330458               170213OJ     1400+00000+OJ0000002630+0000002630+000000000+000000369+0000002990+0000000009+I20000000000+0000002990+Z
330458001330458251-000057     330458006003000451654LABELS SKID-PROTECTORS 0000001000+00002630+00000+0001T   00002630+0000001612          1400 BA6810               3AZ
330459000330459               330459               170213OJ     1400+00000+OJ0000007062+0000007062+000000000+000000989+0000008051+0000000000+I40000008051+0000000000+Z
330459001330459031-000923     330459006001023669933P/FRAME BLK W/WORDS    0000002000+00003507+00000+0001T   00003507+0000001615          1400 BA6510               3AZ
330459002330459112-116069     330459006009681820277TCS CARRIER BAG JUMBO  0000001000+00000048+00000+0001T   00000048+0000001615          1400 BA6090               3AZ
330460000330460               330460               170213OJ     1400+00000+OJ0000007062+0000007062+000000000+000000989+0000008050+0000000001+I20000000000+0000008050+Z
330460001330460567-010565     330460006003000572472BOOK AFRIKAANS CAT 2   0000001000+00003507+00000+0001T   00003507+0000001616          1400 BA6757               3AZ
330460002330460018-000136     330460006001023659026MUG OCC LOVE W/PLUSH   0000001000+00003507+00000+0001T   00003507+0000001616          1400 BA6515               3AZ
330460003330460112-116069     330460006009681820277TCS CARRIER BAG JUMBO  0000001000+00000048+00000+0001T   00000048+0000001616          1400 BA6090               3AZ
330461000330461               330461               170213OJ     1400+00000+OJ0000014074+0000014074+000000000+000001973+0000016040+0000000007+I20000000000+0000016040+Z
330461001330461112-116069     330461006009681820277TCS CARRIER BAG JUMBO  0000001000+00000048+00000+0001T   00000048+0000001618          1400 BA6090               3AZ
330461002330461018-000136     330461006001023659026MUG OCC LOVE W/PLUSH   0000001000+00003507+00000+0001T   00003507+0000001618          1400 BA6515               3AZ
330461003330461903-000087     330461006001704000161SWT SPECKLED-EGGS 50G  0000002000+00001139+00000+0001T   00001139+0000001618          1400 BA6150               3AZ
330461004330461903-000155     330461006009803374435SWT LOLLY I LUV U HEART0000001000+00000525+00000+0001T   00000525+0000001618          1400 BA6150               3AZ
330461005330461007-000552     330461006001023848086NOTE-CASE 200 MEMO SHTS0000001000+00003069+00000+0001T   00003069+0000001618          1400 BA6130               3AZ
330461006330461030-000030-A   330461006003000249305PLAQUE GLASS LOVE      0000001000+00003069+00000+0001T   00003069+0000001618          1400 BA6505               3AZ
330461007330461077-000303     330461006001023593757GIFT-BAG PAPER MED     0000001000+00001578+00000+0001T   00001578+0000001618          1400 BA6112               3AZ
330462000330462               330462               170213OJ     1400+00000+OJ0000003507+0000003507+000000000+000000491+0000003990+0000000008+I20000000000+0000003990+Z
330462001330462562-000011     330462006003000600984PLAY DOUGH NEON TUBE   0000001000+00003507+00000+0001T   00003507+0000001619          1400 BA6755               3AZ
330463000330463               330463               170213OJ     1400+00000+OJ0000015786+0000015786+000000000+000002211+0000017997+0000000000+I40000017997+0000000000+Z
330463001330463368-000113     330463006001023780874PLUSH BLINGED LOVE 30cm0000001000+00012279+00000+0001T   00012279+0000001626          1400 BA6745               3AZ
330463002330463071-003043     330463006003000143948PEN CALIGRAPHY SET 8PCE0000001000+00003507+00000+0001T   00003507+0000001626          1400 BA6130               3AZ
330464000330464               330464               170213OJ     1400+00000+OJ0000017230+0000017230+000000000+000002415+0000019645+0000000000+I40000019645+0000000000+Z
330464001330464368-000171     330464006003000233250PLUSH BEAR 14cm        0000002000+00005262+00000+0001T   00005262+0000001627          1400 BA6745               3AZ
330464002330464077-000302     330464008010410010195GIFT-BAG 18X23CM E/D   0000002000+00000876+00000+0001T   00000876+0000001627          1400 BA6112               3AZ
330464003330464007-000723     330464006003000226078MEMO BOOK W/PEN 100SHTS0000002000+00001753+00000+0001T   00001753+0000001627          1400 BA6130               3AZ
330464004330464018-000177     330464006001023797513MUG MINI LOVE ASSTD    0000002000+00000700+00000+0001T   00000700+0000001627          1400 BA6515               3AZ
330464005330464112-116069     330464006009681820277TCS CARRIER BAG JUMBO  0000001000+00000048+00000+0001T   00000048+0000001627          1400 BA6090               3AZ
330465000330465               330465               170213OJ     1400+00000+OJ0000018462+0000018462+000000000+000002587+0000021049+0000000000+I40000021049+0000000000+Z
330465001330465366-000256     330465006001023918406DRESS UP TIARA&EARRINGS0000006000+00003069+00000+0001T   00003069+0000001629          1400 BA6131               3AZ
330465002330465112-116069     330465006009681820277TCS CARRIER BAG JUMBO  0000001000+00000048+00000+0001T   00000048+0000001629          1400 BA6090               3AZ
330466000330466               330466               170213OJ     1400+00000+OJ0000003507+0000003507+000000000+000000491+0000003990+0000000008+I20000000000+0000003990+Z
330466001330466306-000004     330466006003000622177THOOTH DENTAL SOFT TIP 0000001000+00003507+00000+0001T   00004385+0008171634          1400 BA6200               3AZ
330467000330467               330467               170213OJ     1400+00000+OJ0000002629+0000002629+000000000+000000369+0000002998+0000000000+I40000002998+0000000000+Z
330467001330467080-000122     330467006003000237678CARD & ENVLPE -GET WELL0000001000+00001753+00000+0001T   00001753+0000001636          1400 BA6112               3AZ
330467002330467080-000129     330467006003000448012CRD & ENV DIY KITS ASST0000001000+00000876+00000+0001T   00001490+0008151636          1400 BA6112               3AZ
330468000330468               330468               170213OJ     1400+00000+OJ0000000000+0000000000+000000000+000000000+0000000000+0000000000+I20000000000+0000000000+Z
330468001330468082-007583     330468006003000465842SUNGLASSES POLARIZE    0000001000-00007893+00000+0001T   00007893+0000001646          1400 BA61602IC            3AZ
330468002330468082-007583     330468006003000465842SUNGLASSES POLARIZE    0000001000+00007893+00000+0001T   00007893+0000001646          1400 BA61602IC            3 Z
330469000330469               330469               170213OJ     1400+00000+OJ0000007629+0000007629+000000000+000001069+0000008690+0000000008+I20000000000+0000008690+Z
330469001330469174-000305     330469006003000105502TRAVEL NECK-PILLOW     0000001000+00007016+00000+0001T   00007016+0000001646          1400 BA6205               3AZ
330469002330469304-001011     330469006001023806727FLWR ROSE RED W/BEAR   0000001000+00000613+00000+0001T   00000788+0006471646          1400 BA6510               3AZ
330470000330470               330470               170213OJ     1400+00000+OJ0000001753+0000001753+000000000+000000246+0000001990+0000000009+I20000000000+0000001990+Z
330470001330470024-000038     330470006001023477026MEASURING-JUG 1L (4CUP)0000001000+00001753+00000+0001T   00001753+0000001647          1400 BA6300               3AZ
330471000330471               330471               170213OJ     1400+00000+OJ0000000441+0000000441+000000000+000000063+0000000500+0000000004+I20000000000+0000000500+Z
330471001330471112-116069     330471006009681820277TCS CARRIER BAG JUMBO  0000001000+00000048+00000+0001T   00000048+0000001649          1400 BA6090               3AZ
330471002330471903-000183     330471006003000451043SWT LB HEART LOLLY     0000001000+00000393+00000+0001T   00000393+0000001649          1400 BA6150               3AZ
330472000330472               330472               170213OJ     1400+00000+OJ0000003854+0000003854+000000000+000000540+0000004390+0000000004+I20000000000+0000004390+Z
330472001330472903-000844     330472005010478432567SWT CANDY DL LUV HEARTS0000002000+00001314+00000+0001T   00001314+0000001651          1400 BA6150               3AZ
330472002330472007-000555     330472006001023848239MEMO-PAD MINI LOVE     0000002000+00000613+00000+0001T   00000613+0000001651          1400 BA6130               3AZ
330473000330473               330473               170213OJ     1400+00000+OJ0000014034+0000014034+000000000+000001965+0000015990+0000000009+I20000000000+0000015990+Z
330473001330473469-003003     330473006001023804808B/BLOCKS 150PC BOX     0000001000+00014034+00000+0001T   00014034+0000001652          1400 BA6755               3AZ
330474000330474               330474               170213OJ     1400+00000+OJ0000004385+0000004385+000000000+000000614+0000004990+0000000009+I20000000000+0000004990+Z
330474001330474105-007505     330474006003000487301STORAGE BOX CLEAR 2L   0000001000+00004385+00000+0001T   00004385+0000001652          1400 BA6210               3AZ
330475000330475               330475               170213OJ     1400+00000+OJ0000002015+0000002015+000000000+000000283+0000002290+0000000008+I20000000000+0000002290+Z
330475001330475018-000127     330475006001023380289MUG OCC STRAIGHT LOVE  0000001000+00001578+00000+0001T   00001753+0006471653          1400 BA6515               3AZ
330475002330475083-000049     330475004891035200024CIG-LIGHTER DISPOSABLE 0000001000+00000437+00000+0001T   00000437+0000001653          1400 BA6315               3AZ
330476000330476               330476               170213OJ     1400+00000+OJ0000010476+0000010476+000000000+000001472+0000011948+0000000000+I40000011948+0000000000+Z
330476001330476079-009702-G   330476008427973060787PAPER SIRIO A2 FUSHIA  0000001000+00001051+00000+0001T   00001051+0000001656          1400 BA6130               3AZ
330476002330476079-009702-B   330476008427973059491PAPER SIRIO A2 WHITE   0000001000+00001051+00000+0001T   00001051+0000001656          1400 BA6130               3AZ
330476003330476079-009702-C   330476008427973059309PAPER SIRIO A2 VIOLET  0000001000+00001051+00000+0001T   00001051+0000001656          1400 BA6130               3AZ
330476004330476079-009702-E   330476008427973059439PAPER SIRIO A2 BLUE    0000001000+00001051+00000+0001T   00001051+0000001656          1400 BA6130               3AZ
330476005330476006-000111     330476006003000519385BALLOONS LARGE 12PCE   0000001000+00002630+00000+0001T   00002630+0000001656          1400 BA6131               3AZ
330476006330476366-002802     330476006003000520077DRESS UP EYEBROW SET   0000001000+00002192+00000+0001T   00002192+0000001656          1400 BA6131               3AZ
330476007330476027-009030     330476006002814400100DUSTPAN PL             0000001000+00001402+00000+0001T   00001402+0000001656          1400 BA6212               3AZ
330476008330476112-116069     330476006009681820277TCS CARRIER BAG JUMBO  0000001000+00000048+00000+0001T   00000048+0000001656          1400 BA6090               3AZ
330477000330477               330477               170213OJ     1400+00000+OJ0000005262+0000005262+000000000+000000737+0000005990+0000000009+I20000000000+0000005990+Z
330477001330477018-019000     330477006003000557288MUG OCC. LOVE JUMBO    0000001000+00005262+00000+0001T   00005262+0000001657          1400 BA6515               3AZ
330478000330478               330478               170213OJ     1400+00000+OJ0000000048+0000000048+000000000+000000007+0000000050+0000000005+I20000000000+0000000050+Z
330478001330478112-116069     330478006009681820277TCS CARRIER BAG JUMBO  0000001000+00000048+00000+0001T   00000048+0000001657          1400 BA6090               3AZ
330479000330479               330479               170213OJ     1400+00000+OJ0000003507+0000003507+000000000+000000491+0000003998+0000000000+I40000003998+0000000000+Z
330479001330479028-000031     330479006003000270897COOLER-BAG THERMAL 6PK 0000001000+00003507+00000+0001T   00003507+0000001659          1400 BA6305               3AZ
330480000330480               330480               170213OJ     1400+00000+OJ0000004822+0000004822+000000000+000000676+0000005490+0000000008+I20000000000+0000005490+Z
330480001330480006-000190     330480006003000685530BALLOONS LOVE 81x91cm  0000001000+00004385+00000+0001T   00004385+0000001659          1400 BA6131               3AZ
330480002330480080-000133-A   330480006003000647019MINI VALENTINES CARD   0000001000+00000437+00000+0001T   00000437+0000001659          1400 BA6112               3AZ
330481000330481               330481               170213OJ     1400+00000+OJ0000007677+0000007677+000000000+000001076+0000008753+0000000000+I40000008753+0000000000+Z
330481001330481077-000299     330481006003000395576G/BAG 32x25cm LRG LOVE 0000001000+00001490+00000+0001T   00001490+0000001701          1400 BA6112               3AZ
330481002330481018-050000     330481006003000412679MUG OCC LOVE TWIN BEAR 0000001000+00006139+00000+0001T   00006139+0000001701          1400 BA6515               3AZ
330481003330481112-116069     330481006009681820277TCS CARRIER BAG JUMBO  0000001000+00000048+00000+0001T   00000048+0000001701          1400 BA6090               3AZ
330482000330482               330482               170213OJ     1400+00000+OJ0000005786+0000005786+000000000+000000812+0000006590+0000000008+I20000000000+0000006590+Z
330482001330482036-000151     330482006001023810588COATHANGERS    PACK-10 0000002000+00002893+00000+0001T   00002893+0000001701          1400 BA6212               3AZ
330483000330483               330483               170213OJ     1400+00000+OJ0000000437+0000000437+000000000+000000062+0000000490+0000000009+I20000000000+0000000490+Z
330483001330483080-000133-A   330483006003000647019MINI VALENTINES CARD   0000001000+00000437+00000+0001T   00000437+0000001702          1400 BA6112               3AZ
330484000330484               330484               170213OJ     1400+00000+OJ0000004204+0000004204+000000000+000000590+0000004790+0000000004+I20000000000+0000004790+Z
330484001330484304-001011     330484006001023806727FLWR ROSE RED W/BEAR   0000004000+00000613+00000+0001T   00000788+0006471703          1400 BA6510               3AZ
330484002330484903-000897     330484008692806325207SWT CHOC DBL MINI ROLL 0000002000+00000876+00000+0001T   00000876+0000001703          1400 BA6150               3AZ
330485000330485               330485               170213OJ     1400+00000+OJ0000002804+0000002804+000000000+000000394+0000003190+0000000008+I20000000000+0000003190+Z
330485001330485304-001204     330485006001023737984FLOWER OCC. TEDDY/ROSES0000002000+00001402+00000+0001T   00001490+0006471703          1400 BA6510               3AZ
330486000330486               330486               170213OJ     1400+00000+OJ0000001051+0000001051+000000000+000000148+0000001199+0000000000+I40000001199+0000000000+Z
330486001330486079-009702-B   330486008427973059491PAPER SIRIO A2 WHITE   0000001000+00001051+00000+0001T   00001051+0000001705          1400 BA6130               3AZ
330487000330487               330487               170213OJ     1400+00000+OJ0000003592+0000003592+000000000+000000504+0000004090+0000000006+I20000000000+0000004090+Z
330487001330487031-000878-B   330487006001023799012P/FRAME 13x18cm PL-SLID0000001000+00001490+00000+0001T   00001490+0000001706          1400 BA6510               3AZ
330487002330487077-000010-F   330487006003453000461CREPE-PAPER BLUE       0000001000+00000788+00000+0001T   00000788+0000001706          1400 BA6112               3AZ
330487003330487077-000407     330487006003000145096G/BAG PP 19X26X8CM     0000001000+00001314+00000+0001T   00001314+0000001706          1400 BA6112               3AZ
330488000330488               330488               170213OJ     1400+00000+OJ0000000048+0000000048+000000000+000000007+0000000050+0000000005+I20000000000+0000000050+Z
330488001330488112-116069     330488006009681820277TCS CARRIER BAG JUMBO  0000001000+00000048+00000+0001T   00000048+0000001707          1400 BA6090               3AZ
330489000330489               330489               170213OJ     1400+00000+OJ0000006091+0000006091+000000000+000000855+0000006940+0000000006+I20000000000+0000006940+Z
330489001330489304-001011     330489006001023806727FLWR ROSE RED W/BEAR   0000003000+00000613+00000+0001T   00000788+0006471708          1400 BA6510               3AZ
330489002330489304-001204     330489006001023737984FLOWER OCC. TEDDY/ROSES0000002000+00001402+00000+0001T   00001490+0006471708          1400 BA6510               3AZ
330489003330489018-000177     330489006001023797513MUG MINI LOVE ASSTD    0000002000+00000700+00000+0001T   00000700+0000001708          1400 BA6515               3AZ
330489004330489112-116069     330489006009681820277TCS CARRIER BAG JUMBO  0000001000+00000048+00000+0001T   00000048+0000001708          1400 BA6090               3AZ
330490000330490               330490               170213OJ     1400+00000+OJ0000003507+0000003507+000000000+000000491+0000003990+0000000008+I20000000000+0000003990+Z
330490001330490004-071206     330490006003000605156USB CABLE CHARGER      0000001000+00003507+00000+0001T   00003507+0000001709          1400 BA6310               3AZ
330491000330491               330491               170213OJ     1400+00000+OJ0000002630+0000002630+000000000+000000369+0000002990+0000000009+I20000000000+0000002990+Z
330491001330491108-003023     330491006003000665471TUMBLER W/STRAW 550ml  0000001000+00002630+00000+0001T   00002630+0000001709          1400 BA6210               3AZ
330492000330492               330492               170213OJ     1400+00000+OJ0000004869+0000004869+000000000+000000683+0000005552+0000000000+I40000005552+0000000000+Z
330492001330492018-000127     330492006001023380289MUG OCC STRAIGHT LOVE  0000001000+00001578+00000+0001T   00001753+0006471712          1400 BA6515               3AZ
330492002330492080-000113     330492006003000237449CARD&ENVLPE - LOVE     0000001000+00001753+00000+0001T   00001753+0000001712          1400 BA6112               3AZ
330492003330492077-000299     330492006003000395576G/BAG 32x25cm LRG LOVE 0000001000+00001490+00000+0001T   00001490+0000001712          1400 BA6112               3AZ
330492004330492112-116069     330492006009681820277TCS CARRIER BAG JUMBO  0000001000+00000048+00000+0001T   00000048+0000001712          1400 BA6090               3AZ
330493000330493               330493               170213OJ     1400+00000+OJ0000008329+0000008329+000000000+000001167+0000009490+0000000006+I20000000000+0000009490+Z
330493001330493007-000614     330493006001023768667DIARY W/LOCK+PEN LOVE  0000001000+00005262+00000+0001T   00005262+0000001713          1400 BA6130               3AZ
330493002330493077-000310     330493006001023608635GIFT-BAG 18X23CM GLOSS 0000001000+00001314+00000+0001T   00001314+0000001713          1400 BA6112               3AZ
330493003330493080-000100     330493006003000236114CARD & ENVELOPE BDAY   0000001000+00001753+00000+0001T   00001753+0000001713          1400 BA6112               3AZ
330494000330494               330494               170213OJ     1400+00000+OJ0000001139+0000001139+000000000+000000160+0000001290+0000000009+I20000000000+0000001290+Z
330494001330494162-097715     330494006001492977157#TAG NEW COLOUR E/PIERC0000001000+00001139+00000+0001T   00001139+0000001718          1400 BA6160               3AZ
330495000330495               330495               170213OJ     1400+00000+OJ0000001490+0000001490+000000000+000000209+0000001690+0000000009+I20000000000+0000001690+Z
330495001330495077-000299     330495006003000395576G/BAG 32x25cm LRG LOVE 0000001000+00001490+00000+0001T   00001490+0000001718          1400 BA6112               3AZ
330496000330496               330496               170213OJ     1400+00000+OJ0000009469+0000009469+000000000+000001327+0000010796+0000000000+I40000010796+0000000000+Z
330496001330496903-000517     330496006001704012768SWT STRAWS FIZZY CHERRY0000002000+00001227+00000+0001T   00001227+0000001729          1400 BA6150               3AZ
330496002330496567-011910     330496006003000677122BK MILLS&BOON 3-PACK   0000001000+00005262+00000+0001T   00005262+0000001729          1400 BA6757               3AZ
330496003330496077-000309     330496006001023608604GIFT-BAG 25X32CM GLOSS 0000001000+00001753+00000+0001T   00001753+0000001729          1400 BA6112               3AZ
330497000330497               330497               170213OJ     1400+00000+OJ0000008729+0000008729+000000000+000001223+0000009952+0000000000+I40000009952+0000000000+Z
330497001330497007-000614     330497006001023768667DIARY W/LOCK+PEN LOVE  0000001000+00005262+00000+0001T   00005262+0000001731          1400 BA6130               3AZ
330497002330497007-000206     330497006009635830215X/PAD 80-SHEETS PUNCHED0000001000+00001227+00000+0001T   00001227+0000001731          1400 BA6130               3AZ
330497003330497567-004963     330497009780636049031TYB G03 MATHS          0000001000+00002192+00000+0001T   00002192+0000001731          1400 BA6757               3AZ
330497004330497112-116069     330497006009681820277TCS CARRIER BAG JUMBO  0000001000+00000048+00000+0001T   00000048+0000001731          1400 BA6090               3AZ
330498000330498               330498               170213OJ     1400+00000+OJ0000001753+0000001753+000000000+000000246+0000001990+0000000009+I20000000000+0000001990+Z
330498001330498306-000981     330498006003000559718FIRSTAID PLASTER 1PC   0000001000+00001753+00000+0001T   00001753+0000001741          1400 BA6200               3AZ
330499000330499               330499               170213OJ     1400+00000+OJ0000002103+0000002103+000000000+000000295+0000002390+0000000008+I20000000000+0000002390+Z
330499001330499031-000878-A   330499006001023798985P/FRAME 10x15cm PL-SLID0000001000+00000876+00000+0001T   00000876+0000001741          1400 BA6510               3AZ
330499002330499077-000319     330499006001023609779GIFT-BAG 18X23CM BIRTHD0000001000+00001227+00000+0001T   00001227+0000001741          1400 BA6112               3AZ
330500000330500               330500               170213OJ     1400+00000+OJ0000007937+0000007937+000000000+000001113+0000009050+0000000000+I40000009050+0000000000+Z
330500001330500112-116069     330500006009681820277TCS CARRIER BAG JUMBO  0000001000+00000048+00000+0001T   00000048+0000001744          1400 BA6090               3AZ
330500002330500903-000897     330500008692806325207SWT CHOC DBL MINI ROLL 0000001000+00000876+00000+0001T   00000876+0000001744          1400 BA6150               3AZ
330500003330500079-006498     330500006001023836151GLITTER SET 10PCE      0000001000+00003507+00000+0001T   00003507+0000001744          1400 BA6130               3AZ
330500004330500566-001118     330500006003000682171STICKERS CELL PHONE    0000001000+00001753+00000+0001T   00001753+0000001744          1400 BA6130               3AZ
330500005330500007-000094     330500006003000659289ENVELOPES WHT 5PK C4   0000001000+00001753+00000+0001T   00001753+0000001744          1400 BA6130               3AZ
330501000330501               330501               170213OJ     1400+00000+OJ0000004430+0000004430+000000000+000000622+0000005050+0000000002+I20000000000+0000005050+Z
330501001330501566-000018     330501006001023995018S/BOOK H/MADE STICKER  0000001000+00000876+00000+0001T   00000876+0000001745          1400 BA6130               3AZ
330501002330501566-101026     330501000678634806925M/M 9xROLL STICKER BOX 0000002000+00001753+00000+0001T   00002192+0008151745          1400 BA6130               3AZ
330501003330501112-116069     330501006009681820277TCS CARRIER BAG JUMBO  0000001000+00000048+00000+0001T   00000048+0000001745          1400 BA6090               3AZ
330502000330502               330502               170213OJ     1400+00000+OJ0000006800+0000006800+000000000+000000953+0000007750+0000000003+I20000000000+0000007750+Z
330502001330502077-000299     330502006003000395576G/BAG 32x25cm LRG LOVE 0000001000+00001490+00000+0001T   00001490+0000001746          1400 BA6112               3AZ
330502002330502041-000300     330502006003000421862EVERYDAY BATH SET 3pc  0000001000+00005262+00000+0001T   00005262+0000001746          1400 BA6200               3AZ
330502003330502112-116069     330502006009681820277TCS CARRIER BAG JUMBO  0000001000+00000048+00000+0001T   00000048+0000001746          1400 BA6090               3AZ
330503000330503               330503               170213OJ     1400+00000+OJ0000002190+0000002190+000000000+000000307+0000002497+0000000000+I40000002497+0000000000+Z
330503001330503018-000177     330503006001023797513MUG MINI LOVE ASSTD    0000001000+00000700+00000+0001T   00000700+0000001748          1400 BA6515               3AZ
330503002330503077-000299     330503006003000395576G/BAG 32x25cm LRG LOVE 0000001000+00001490+00000+0001T   00001490+0000001748          1400 BA6112               3AZ
330504000330504               330504               170213OJ     1400+00000+OJ0000012279+0000012279+000000000+000001720+0000013999+0000000000+I40000013999+0000000000+Z
330504001330504368-000111     330504006001023780812PLUSH BEAR/DOG 29CM    0000001000+00012279+00000+0001T   00012279+0000001749          1400 BA6745               3AZ
330505000330505               330505               170213OJ     1400+00000+OJ0000011620+0000011620+000000000+000001629+0000013240+0000000009+I20000000000+0000013240+Z
330505001330505903-000499     330505006001704012492SWT CHOC MALLOWS 50g   0000001000+00001227+00000+0001T   00001227+0000001751          1400 BA6150               3AZ
330505002330505903-000897     330505008692806325207SWT CHOC DBL MINI ROLL 0000001000+00000876+00000+0001T   00000876+0000001751          1400 BA6150               3AZ
330505003330505903-000926     330505006914204004556SWT NOVELTY ST N/LACE  0000001000+00001753+00000+0001T   00001753+0000001751          1400 BA6150               3AZ
330505004330505903-000924     330505006942797400615SWT HOT WHEELS SPRAY   0000001000+00001578+00000+0001T   00001578+0000001751          1400 BA6150               3AZ
330505005330505903-003080     330505005907029004673SWT SNACK STIX CHOC 50g0000001000+00000876+00000+0001T   00000876+0000001751          1400 BA6150               3AZ
330505006330505018-019000     330505006003000557288MUG OCC. LOVE JUMBO    0000001000+00005262+00000+0001T   00005262+0000001751          1400 BA6515               3AZ
330505007330505112-116069     330505006009681820277TCS CARRIER BAG JUMBO  0000001000+00000048+00000+0001T   00000048+0000001751          1400 BA6090               3AZ
330506000330506               330506               170213OJ     1400+00000+OJ0000002630+0000002630+000000000+000000369+0000002990+0000000009+I20000000000+0000002990+Z
330506001330506006-000104     330506006001023990112BALLOONS 40PC AIR PUMP 0000001000+00002630+00000+0001T   00002630+0000001752          1400 BA6131               3AZ
330507000330507               330507               170213OJ     1400+00000+OJ0000002626+0000002626+000000000+000000369+0000002995+0000000000+I40000002995+0000000000+Z
330507001330507080-000133-A   330507006003000647019MINI VALENTINES CARD   0000001000+00000437+00000+0001T   00000437+0000001802          1400 BA6112               3AZ
330507002330507018-000177     330507006001023797513MUG MINI LOVE ASSTD    0000001000+00000700+00000+0001T   00000700+0000001802          1400 BA6515               3AZ
330507003330507903-000494     330507006001704009911SWT GUMMY TEENY TEDDIES0000001000+00000876+00000+0001T   00000876+0000001802          1400 BA6150               3AZ
330507004330507077-000321     330507006001023677501GIFT-BAG 11X14CM E/D FL0000001000+00000613+00000+0001T   00000613+0000001802          1400 BA6112               3AZ
330508000330508               330508               170213OJ     1400+00000+OJ0000004207+0000004207+000000000+000000589+0000004796+0000000000+I40000004796+0000000000+Z
330508001330508031-005853     330508006003000442416P/FRAME WDN TWIN HEARTS0000001000+00003507+00000+0001T   00003507+0000001804          1400 BA6510               3AZ
330508002330508018-000177     330508006001023797513MUG MINI LOVE ASSTD    0000001000+00000700+00000+0001T   00000700+0000001804          1400 BA6515               3AZ
330509000330509               330509               170213OJ     1400+00000+OJ0000005747+0000005747+000000000+000000806+0000006553+0000000000+I40000006553+0000000000+Z
330509001330509089-000220     330509006003000677368KEY CHAIN+PEN+KNIFE    0000001000+00003069+00000+0001T   00003069+0000001806          1400 BA6205               3AZ
330509002330509019-000404     330509006001023845955PLANTER STONE 17X14X13M0000001000+00002630+00000+0001T   00003069+0008171806          1400 BA6510               3AZ
330509003330509112-116069     330509006009681820277TCS CARRIER BAG JUMBO  0000001000+00000048+00000+0001T   00000048+0000001806          1400 BA6090               3AZ
330510000330510               330510               170213OJ     1400+00000+OJ0000006136+0000006136+000000000+000000861+0000006990+0000000007+I20000000000+0000006990+Z
330510001330510079-006500     330510006001023557186GLUE GLITTER 6/10 PCE  0000002000+00001753+00000+0001T   00001753+0000001806          1400 BA6130               3AZ
330510002330510006-000323-D   330510006003000126248CONFETTI H/BIRTHDAY 3PK0000001000+00002630+00000+0001T   00002630+0000001806          1400 BA6131               3AZ
A17021300                                          10092767OJSLAVE 3                       BA62IC
M17021391                              CASH        OJSLAVE 3                       Z-REPORT No.   630TOTAL (Sales - Refunds)          10665.76       CASH TO BE BANKED                 7592.40       DEBIT CARDS                          0.00       CREDIT CARDS                      3073.36       Z-READING                        10665.76       AIRTIME DEBIT CARD SALES             0.00       AIRTIME CARD SALES                   0.00       OVERS/UNDERS                         0.00       AIRTIME CASH SALES                   0.00       GIFT CARDS                           0.00       GIFT CARD CASH SALES                 0.00       T O T A L  CASH PAYOUTS              0.00                                                                                                                                                                                                                                                                                                                                                      Z
M17021392                              CASH        OJABSENT                                                                                                                                                                                          ANNUAL LEAVE                                                                                                                                                                                    DAY OFF                                                                                                                                                                                         COMMENTS                                                                                                                                                                                                                                                                                                                                                                                       Z
Y17021300                                          OJ00000000945799+000148
ZOJ17021320133 SLAVE 3      SALES DATA                     NEXT INVOICE NO.  330511 0630
X OJ Slave 3 First invoice 330363 170213 Last invoice 330510 170213 Next invoice 330511 Total number of records 000000510 clbackup completed 20:13:27
