417889000417889               417889               170213OK     1400+00000+OK0000003278+0000003278+000000000+000000460+0000003730+0000000008+I20000000000+0000003730+Z
417889001417889306-001002     417889006003000560233PLASTER FABRIC 10PC    0000001000+00001490+00000+0001T   00001490+0000001028          1400 JR3200               1AZ
417889002417889103-000036     417889006001023585899BASKET RECT.16x12x6cm  0000001000+00001753+00000+0001T   00002367+0008161028          1400 JR3300               1AZ
417889003417889112-116038     417889006009681820246TCS CARRIER BAG MIDI   0000001000+00000035+00000+0001T   00000035+0000001028          1400 JR3090               1AZ
417890000417890               417890               170213OK     1400+00000+OK0000034674+0000034674+000000000+000004863+0000039537+0000000000+I40000039537+0000000000+Z
417890001417890112-116069     417890006009681820277TCS CARRIER BAG JUMBO  0000001000+00000048+00000+0001T   00000048+0000001031          1400 JR3090               1AZ
417890002417890903-000897     417890008692806325207SWT CHOC DBL MINI ROLL 0000002000+00000876+00000+0001T   00000876+0000001031          1400 JR3150               1AZ
417890003417890903-004952     417890006002580020052SWT FREAKY FACES 100G  0000001000+00001314+00000+0001T   00001314+0000001031          1400 JR3150               1AZ
417890004417890565-000002     417890006003000308071NOVELTY GROWING ANIMALS0000002000+00001753+00000+0001T   00001753+0000001031          1400 JR3745               1AZ
417890005417890567-010569     417890006002242057136BOOK READER AFR DISNEY 0000001000+00002630+00000+0001T   00002630+0000001031          1400 JR3757               1AZ
417890006417890567-010570     417890006002242057129BOOK READER AFR DISNEY 0000001000+00002630+00000+0001T   00002630+0000001031          1400 JR3757               1AZ
417890007417890567-010569     417890006002242057136BOOK READER AFR DISNEY 0000001000+00002630+00000+0001T   00002630+0000001031          1400 JR3757               1AZ
417890008417890567-010392     417890006002242053435GENERIC AFRIKAANS READE0000001000+00002192+00000+0001T   00002192+0000001031          1400 JR3757               1AZ
417890009417890567-010393     417890006002242053442GENERIC AFRIKAANS READE0000001000+00002192+00000+0001T   00002192+0000001031          1400 JR3757               1AZ
417890010417890567-010394     417890006002242053459GENERIC AFRIKAANS READE0000001000+00002192+00000+0001T   00002192+0000001031          1400 JR3757               1AZ
417890011417890567-010395     417890006002242053466GENERIC AFRIKAANS READE0000001000+00002192+00000+0001T   00002192+0000001031          1400 JR3757               1AZ
417890012417890004-000014     417890006003000257737CAMERA TRIPOD W/LEGS   0000001000+00002630+00000+0001T   00002630+0000001031          1400 JR3310               1AZ
417890013417890027-000917     417890006001023367433DUSTPAN-SET MINI 21x16 0000001000+00001753+00000+0001T   00001753+0000001031          1400 JR3212               1AZ
417890014417890565-000014     417890006003000671915NOVELTY AIR BALLOON    0000001000+00002630+00000+0001T   00002630+0000001031          1400 JR3745               1AZ
417890015417890564-000035     417890006003000301836BUBBLE NOVELTY SWORD   0000001000+00001753+00000+0001T   00001753+0000001031          1400 JR3131               1AZ
417890016417890088-000008     417890006003000623181AIR FRESHENER GEL ASSTD0000001000+00002630+00000+0001T   00002630+0000001031          1400 JR3212               1AZ
417891000417891               417891               170213OK     1400+00000+OK0000004857+0000004857+000000000+000000681+0000005530+0000000008+I20000000000+0000005530+Z
417891001417891031-080508     417891006001023802415P/FRAME PL 22X11CM LOVE0000001000+00004385+00000+0001T   00004385+0000001037          1400 JR3510               1AZ
417891002417891112-116038     417891006009681820246TCS CARRIER BAG MIDI   0000001000+00000035+00000+0001T   00000035+0000001037          1400 JR3090               1AZ
417891003417891080-000133-A   417891006003000647019MINI VALENTINES CARD   0000001000+00000437+00000+0001T   00000437+0000001037          1400 JR3112               1AZ
417892000417892               417892               170213OK     1400+00000+OK0000004733+0000004733+000000000+000000664+0000005390+0000000007+I20000000000+0000005390+Z
417892001417892200-003024     417892006001023657299REFUSE BAGS 20PCE BLACK0000001000+00001753+00000+0001T   00001753+0000001038          1400 JR3214               1AZ
417892002417892306-000540     417892006003000165780T/BRUSH+GUM PROTECTION 0000001000+00001490+00000+0001T   00001490+0000001038          1400 JR3200               1AZ
417892003417892032-000309     417892006001023477804MIRROR STANDING PL SML 0000001000+00001490+00000+0001T   00001490+0000001038          1400 JR3510               1AZ
417893000417893               417893               170213OK     1400+00000+OK0000006139+0000006139+000000000+000000860+0000006990+0000000009+I20000000000+0000006990+Z
417893001417893035-000002     417893006002596010542UMBRELLA LADIES PRINTED0000001000+00006139+00000+0001T   00006139+0000001043          1400 JR32051IC            1AZ
417894000417894               417894               170213OK     1400+00000+OK0000011252+0000011252+000000000+000001578+0000012830+0000000000+I40000012830+0000000000+Z
417894001417894036-000063     417894006009654960436COATHANGERS VIRGIN 5PCE0000001000+00001753+00000+0001T   00001753+0000001107          1400 JR3212               1AZ
417894002417894304-001140     417894006003000679010FLOWER MINI MOSS 40G   0000001000+00001753+00000+0001T   00001753+0000001107          1400 JR3510               1AZ
417894003417894306-001022     417894006001023899750FIRSTAID FEVER PATCH   0000001000+00001314+00000+0001T   00001753+0008171107          1400 JR3200               1AZ
417894004417894079-013059     417894000767014344789LICENSED GIRLS COLOURIN0000001000+00001753+00000+0001T   00002630+0008151107          1400 JR3130               1AZ
417894005417894007-000537     417894000651728791017NOTE-PAD RND SMILE-FACE0000001000+00000700+00000+0001T   00000700+0000001107          1400 JR3130               1AZ
417894006417894071-000306     417894006001023715371STENCILS ART FUN SET   0000001000+00003507+00000+0001T   00003507+0000001107          1400 JR3130               1AZ
417894007417894112-116038     417894006009681820246TCS CARRIER BAG MIDI   0000001000+00000035+00000+0001T   00000035+0000001107          1400 JR3090               1AZ
417894008417894080-000133     417894006003000535613CARD&ENV MINI ASTD DSGN0000001000+00000437+00000+0001T   00000437+0000001107          1400 JR3112               1AZ
417895000417895               417895               170213OK     1400+00000+OK0000005259+0000005259+000000000+000000738+0000005990+0000000007+I20000000000+0000005990+Z
417895001417895304-001512     417895006003000036202FLOWER S/FLOWER 65CM   0000003000+00001753+00000+0001T   00001753+0000001136          1400 JR3510               1AZ
417896000417896               417896               170213OK     1400+00000+OK0000010071+0000010071+000000000+000001417+0000011488+0000000000+I40000011488+0000000000+Z
417896001417896903-000221     417896006001704007382SWT EENY-MEENY-MOS 60G 0000001000+00000876+00000+0001T   00000876+0000001141          1400 JR3150               1AZ
417896002417896251-000040     417896006001023515865SEALTAPE CLEAR 48mmx50m0000002000+00001227+00000+0001T   00001227+0000001141          1400 JR3810               1AZ
417896003417896903-000087     417896006001704000161SWT SPECKLED-EGGS 50G  0000001000+00001139+00000+0001T   00001139+0000001141          1400 JR3150               1AZ
417896004417896080-000133-A   417896006003000647019MINI VALENTINES CARD   0000006000+00000437+00000+0001T   00000437+0000001141          1400 JR3112               1AZ
417896005417896565-004101     417896006003000548033BALL BOUNCING EGG      0000002000+00001490+00000+0001T   00001490+0000001141          1400 JR3745               1AZ
417897000417897               417897               170213OK     1400+00000+OK0000026382+0000026382+000000000+000003694+0000030076+0000000000+I10000030006+0000000070+Z
417897001417897015-000200     417897006003000334223CAKE-STAND GLS 23x9cm  0000001000+00004385+00000+0001T   00004385+0000001251          1400 JR3515               1AZ
417897002417897032-000940     417897006001023862631MIRROR WALL W/ROPE 28CM0000001000+00021928+00000+0001T   00021928+0000001251          1400 JR3510               1AZ
417897003417897112-116053     417897006006438002399TCS CARRIER BAG 38L    0000001000+00000069+00000+0001T   00000069+0000001251          1400 JR3090               1AZ
417898000417898               417898               170213OK     1400+00000+OK0000010962+0000010962+000000000+000001535+0000012497+0000000000+I40000012497+0000000000+Z
417898001417898563-000318-L   417898006003000407088SERVIETTES 33cm RED    0000001000+00002192+00000+0001T   00002192+0000001256          1400 JR3214               1AZ
417898002417898104-000030     417898006001023803481BASKET PL 28x20x12cm   0000002000+00004385+00000+0001T   00004385+0000001256          1400 JR3210               1AZ
417899000417899               417899               170213OK     1400+00000+OK0000000786+0000000786+000000000+000000112+0000000890+0000000008+I20000000000+0000000890+Z
417899001417899903-000183     417899006003000451043SWT LB HEART LOLLY     0000002000+00000393+00000+0001T   00000393+0000001256          1400 JR3150               1AZ
417900000417900               417900               170213OK     1400+00000+OK0000000700+0000000700+000000000+000000098+0000000790+0000000008+I20000000000+0000000790+Z
417900001417900018-000177     417900006001023797513MUG MINI LOVE ASSTD    0000001000+00000700+00000+0001T   00000700+0000001418          1400 JR3515               1AZ
417901000417901               417901               170213OK     1400+00000+OK0000000876+0000000876+000000000+000000123+0000000990+0000000009+I20000000000+0000000990+Z
417901001417901082-026204     417901006001023816443R/GLASSES STRINGS 2PCE 0000001000+00000876+00000+0001T   00000876+0000001419          1400 JR3160               1AZ
417902000417902               417902               170213OK     1400+00000+OK0000000786+0000000786+000000000+000000112+0000000890+0000000008+I20000000000+0000000890+Z
417902001417902903-000183     417902006003000451043SWT LB HEART LOLLY     0000002000+00000393+00000+0001T   00000393+0000001423          1400 JR3150               1AZ
417903000417903               417903               170213OK     1400+00000+OK0000001613+0000001613+000000000+000000226+0000001830+0000000009+I20000000000+0000001830+Z
417903001417903077-000303     417903006001023593757GIFT-BAG PAPER MED     0000001000+00001578+00000+0001T   00001578+0000001423          1400 JR3112               1AZ
417903002417903112-116038     417903006009681820246TCS CARRIER BAG MIDI   0000001000+00000035+00000+0001T   00000035+0000001423          1400 JR3090               1AZ
417904000417904               417904               170213OK     1400+00000+OK0000011881+0000011881+000000000+000001665+0000013546+0000000000+I40000013546+0000000000+Z
417904001417904903-000183     417904006003000451043SWT LB HEART LOLLY     0000001000+00000393+00000+0001T   00000393+0000001426          1400 JR3150               1AZ
417904002417904304-001011     417904006001023806727FLWR ROSE RED W/BEAR   0000001000+00000613+00000+0001T   00000788+0006471426          1400 JR3510               1AZ
417904003417904001-091415     417904006003000329113W/GLS OCC. LOVE 2PC 2800000001000+00008771+00000+0001T   00009648+0006471426          1400 JR3515               1AZ
417904004417904903-000095     417904006001704011495SWT SPECKLED-EGGS 100G 0000001000+00002104+00000+0001T   00002104+0000001426          1400 JR3150               1AZ
417905000417905               417905               170213OK     1400+00000+OK0000010572+0000010572+000000000+000001481+0000012053+0000000000+I40000012053+0000000000+Z
417905001417905031-000864-C   417905006001023798411P/FRAME MAHOGANY 20X25 0000002000+00005262+00000+0001T   00005262+0000001428          1400 JR3510               1AZ
417905002417905112-116069     417905006009681820277TCS CARRIER BAG JUMBO  0000001000+00000048+00000+0001T   00000048+0000001428          1400 JR3090               1AZ
417906000417906               417906               170213OK     1400+00000+OK0000032451+0000032451+000000000+000004544+0000036995+0000000000+I40000036995+0000000000+Z
417906001417906467-000022     417906006001023787361BEACH WHEEL-BARROW+ACC 0000001000+00013157+00000+0001T   00013157+0000001433          1400 JR3785               1AZ
417906002417906133-000111     417906006001023842732OVEN-MITTEN 19x30cm    0000001000+00002630+00000+0001T   00002630+0000001433          1400 JR3212               1AZ
417906003417906220-000010     417906006003000567706CUTLERY BUDGET B/SPOONS0000001000+00003507+00000+0001T   00004385+0008131433          1400 JR3300               1AZ
417906004417906467-000022     417906006001023787361BEACH WHEEL-BARROW+ACC 0000001000+00013157+00000+0001T   00013157+0000001433          1400 JR3785               1AZ
417907000417907               417907               170213OK     1400+00000+OK0000002366+0000002366+000000000+000000332+0000002690+0000000008+I20000000000+0000002690+Z
417907001417907077-000304     417907006001023483232GIFT-BAG 25X32CM E/DAY 0000001000+00001490+00000+0001T   00001490+0000001434          1400 JR3112               1AZ
417907002417907077-000302     417907008010410010195GIFT-BAG 18X23CM E/D   0000001000+00000876+00000+0001T   00000876+0000001434          1400 JR3112               1AZ
417908000417908               417908               170213OK     1400+00000+OK0000010570+0000010570+000000000+000001482+0000012052+0000000000+I40000012052+0000000000+Z
417908001417908466-000584     417908006001023628787SKIPPING-ROPE          0000001000+00002630+00000+0001T   00002630+0000001438          1400 JR3785               1AZ
417908002417908567-075497     417908009780799381665BK NOVEL ROMANCE AFR   0000001000+00006139+00000+0001T   00006139+0000001438          1400 JR3757               1AZ
417908003417908077-000299-A   417908006003000670888GIFT-BAG PAPER JMB LOVE0000001000+00001753+00000+0001T   00001753+0000001438          1400 JR3112               1AZ
417908004417908112-116069     417908006009681820277TCS CARRIER BAG JUMBO  0000001000+00000048+00000+0001T   00000048+0000001438          1400 JR3090               1AZ
417909000417909               417909               170213OK     1400+00000+OK0000005610+0000005610+000000000+000000786+0000006390+0000000006+I20000000000+0000006390+Z
417909001417909304-001011     417909006001023806727FLWR ROSE RED W/BEAR   0000001000+00000613+00000+0001T   00000788+0006471452          1400 JR3510               1AZ
417909002417909077-000299     417909006003000395576G/BAG 32x25cm LRG LOVE 0000001000+00001490+00000+0001T   00001490+0000001452          1400 JR3112               1AZ
417909003417909018-000136     417909006001023659026MUG OCC LOVE W/PLUSH   0000001000+00003507+00000+0001T   00003507+0000001452          1400 JR3515               1AZ
417910000417910               417910               170213OK     1400+00000+OK0000007889+0000007889+000000000+000001106+0000008995+0000000000+I40000008995+0000000000+Z
417910001417910006-000108     417910006003000587995BALLOONS 6PC RED/WHT   0000001000+00001753+00000+0001T   00001753+0000001454          1400 JR3131               1AZ
417910002417910301-085000     417910006003000674299 ORN OCC. LOVE HEARTS  0000001000+00002192+00000+0001T   00002192+0000001454          1400 JR3505               1AZ
417910003417910077-000011-D   417910006001023808554TISSUE-WRAP WHITE 10PCE0000001000+00000876+00000+0001T   00000876+0000001454          1400 JR3112               1AZ
417910004417910077-000011-C   417910006001023808523TISSUE 10xSHTS RED     0000001000+00000876+00000+0001T   00000876+0000001454          1400 JR3112               1AZ
417910005417910301-085000     417910006003000674299 ORN OCC. LOVE HEARTS  0000001000+00002192+00000+0001T   00002192+0000001454          1400 JR3505               1AZ
417911000417911               417911               170213OK     1400+00000+OK0000012276+0000012276+000000000+000001721+0000013997+0000000000+I40000013997+0000000000+Z
417911001417911566-000345     417911006001023994837STICKER ALBUM+STICKERS 0000002000+00002630+00000+0001T   00002630+0000001457          1400 JR3130               1AZ
417911002417911486-002315     417911006001023740526WALL-CLOCK ROUND 20CM  0000001000+00007016+00000+0001T   00007016+0000001457          1400 JR3510               1AZ
417912000417912               417912               170213OK     1400+00000+OK0000000437+0000000437+000000000+000000062+0000000490+0000000009+I20000000000+0000000490+Z
417912001417912903-000011     417912006002099007315SWT MALLOW CHOC 15G    0000001000+00000437+00000+0001T   00000437+0000001508          1400 JR3150               1AZ
417913000417913               417913               170213OK     1400+00000+OK0000001753+0000001753+000000000+000000246+0000001990+0000000009+I20000000000+0000001990+Z
417913001417913080-000113     417913006003000237449CARD&ENVLPE - LOVE     0000001000+00001753+00000+0001T   00001753+0000001535          1400 JR3112               1AZ
417914000417914               417914               170213OK     1400+00000+OK0000004386-0000004386-000000000+000000614-0000005000-0000000000+I20000000000+0000005000-Z
417914001417914019-000040     417914006001023673640VASE GLS 30CM CYLINDER 0000001000-00008771+00000+0001T   00008771+0000001539          1400 JR35103IC            1 Z
417914002417914019-000070     417914006003000297474VASE GLS CLEAR BOTTLE  0000001000+00004385+00000+0001T   00004385+0000001539          1400 JR3510               1 Z
417915000417915               417915               170213OK     1400+00000+OK0000002627+0000002627+000000000+000000369+0000002990+0000000006+I20000000000+0000002990+Z
417915001417915903-000087     417915006001704000161SWT SPECKLED-EGGS 50G  0000001000+00001139+00000+0001T   00001139+0000001542          1400 JR3150               1AZ
417915002417915903-000120     417915006002099001665SWEET GS ZILLIONS 50g  0000001000+00000700+00000+0001T   00000700+0000001542          1400 JR3150               1AZ
417915003417915903-000137     417915006002099004130SWEET GS JELLY BEAN 60G0000001000+00000788+00000+0001T   00000788+0000001542          1400 JR3150               1AZ
417916000417916               417916               170213OK     1400+00000+OK0000000393+0000000393+000000000+000000056+0000000440+0000000009+I20000000000+0000000440+Z
417916001417916903-000183     417916006003000451043SWT LB HEART LOLLY     0000001000+00000393+00000+0001T   00000393+0000001542          1400 JR3150               1AZ
417917000417917               417917               170213OK     1400+00000+OK0000000613+0000000613+000000000+000000086+0000000690+0000000009+I20000000000+0000000690+Z
417917001417917077-000311     417917006001023608666GIFT-BAG 11X14CM GLOSS 0000001000+00000613+00000+0001T   00000613+0000001604          1400 JR3112               1AZ
417918000417918               417918               170213OK     1400+00000+OK0000001578+0000001578+000000000+000000221+0000001790+0000000009+I20000000000+0000001790+Z
417918001417918077-000303     417918006001023593757GIFT-BAG PAPER MED     0000001000+00001578+00000+0001T   00001578+0000001612          1400 JR3112               1AZ
417919000417919               417919               170213OK     1400+00000+OK0000001662+0000001662+000000000+000000235+0000001897+0000000000+I40000001897+0000000000+Z
417919001417919077-000151     417919006008766114676GIFT-WRAP C/PHANE ASSTD0000001000+00000876+00000+0001T   00000876+0000001621          1400 JR3112               1AZ
417919002417919903-000183     417919006003000451043SWT LB HEART LOLLY     0000002000+00000393+00000+0001T   00000393+0000001621          1400 JR3150               1AZ
417920000417920               417920               170213OK     1400+00000+OK0000002454+0000002454+000000000+000000344+0000002790+0000000008+I20000000000+0000002790+Z
417920001417920077-000303     417920006001023593757GIFT-BAG PAPER MED     0000001000+00001578+00000+0001T   00001578+0000001631          1400 JR3112               1AZ
417920002417920077-000314     417920006003000181148GIFT-BAG 11X14CM MATT  0000001000+00000876+00000+0001T   00000876+0000001631          1400 JR3112               1AZ
417921000417921               417921               170213OK     1400+00000+OK0000002630+0000002630+000000000+000000369+0000002990+0000000009+I20000000000+0000002990+Z
417921001417921046-000011-A   417921006003000438891BATTERIES SIZE:AA  4PCE0000001000+00002630+00000+0001T   00002630+0000001655          1400 JR3312               1AZ
417922000417922               417922               170213OK     1400+00000+OK0000001753+0000001753+000000000+000000246+0000001999+0000000000+I40000001999+0000000000+Z
417922001417922105-001160     417922006003000666409CONTAINER SET LITE 6PC 0000001000+00001753+00000+0001T   00001753+0000001710          1400 JR3210               1AZ
417923000417923               417923               170213OK     1400+00000+OK0000000437+0000000437+000000000+000000062+0000000490+0000000009+I20000000000+0000000490+Z
417923001417923080-000133-A   417923006003000647019MINI VALENTINES CARD   0000001000+00000437+00000+0001T   00000437+0000001713          1400 JR3112               1AZ
417924000417924               417924               170213OK     1400+00000+OK0000000437+0000000437+000000000+000000062+0000000490+0000000009+I20000000000+0000000490+Z
417924001417924080-000133-A   417924006003000647019MINI VALENTINES CARD   0000001000+00000437+00000+0001T   00000437+0000001716          1400 JR3112               1AZ
417925000417925               417925               170213OK     1400+00000+OK0000000876+0000000876+000000000+000000123+0000000990+0000000009+I20000000000+0000000990+Z
417925001417925033-005921-B   417925006001023678348SEWING-THREAD 200m BLK 0000001000+00000876+00000+0001T   00000876+0000001719          1400 JR3200               1AZ
417926000417926               417926               170213OK     1400+00000+OK0000010994+0000010994+000000000+000001541+0000012530+0000000005+I20000000000+0000012530+Z
417926001417926077-000467     417926006003000329991GIFT-BAG STAMP 18X23CM 0000001000+00001753+00000+0001T   00001753+0000001722          1400 JR3112               1AZ
417926002417926903-000194     417926006009826020616SWT CHOC RP LOLLY 25G  0000001000+00001314+00000+0001T   00001314+0000001722          1400 JR3150               1AZ
417926003417926301-085001     417926006003000297610ORN WATERBALL LOVE ASST0000001000+00004823+00000+0001T   00004823+0000001722          1400 JR3505               1AZ
417926004417926089-060027     417926006003000245871KEY-CHAIN HEART 6X6cm  0000001000+00003069+00000+0001T   00003069+0000001722          1400 JR3205               1AZ
417926005417926112-116038     417926006009681820246TCS CARRIER BAG MIDI   0000001000+00000035+00000+0001T   00000035+0000001722          1400 JR3090               1AZ
417927000417927               417927               170213OK     1400+00000+OK0000001093+0000001093+000000000+000000154+0000001247+0000000000+I40000001247+0000000000+Z
417927001417927018-000177     417927006001023797513MUG MINI LOVE ASSTD    0000001000+00000700+00000+0001T   00000700+0000001724          1400 JR3515               1AZ
417927002417927903-000183     417927006003000451043SWT LB HEART LOLLY     0000001000+00000393+00000+0001T   00000393+0000001724          1400 JR3150               1AZ
417928000417928               417928               170213OK     1400+00000+OK0000001578+0000001578+000000000+000000221+0000001790+0000000009+I20000000000+0000001790+Z
417928001417928018-000127     417928006001023380289MUG OCC STRAIGHT LOVE  0000001000+00001578+00000+0001T   00001753+0006471725          1400 JR3515               1AZ
417929000417929               417929               170213OK     1400+00000+OK0000001753+0000001753+000000000+000000246+0000001990+0000000009+I20000000000+0000001990+Z
417929001417929077-000309     417929006001023608604GIFT-BAG 25X32CM GLOSS 0000001000+00001753+00000+0001T   00001753+0000001728          1400 JR3112               1AZ
417930000417930               417930               170213OK     1400+00000+OK0000000876+0000000876+000000000+000000123+0000000990+0000000009+I20000000000+0000000990+Z
417930001417930105-007011     417930006009654960269HONEY JAR 350ml        0000001000+00000876+00000+0001T   00000876+0000001732          1400 JR3210               1AZ
417931000417931               417931               170213OK     1400+00000+OK0000002630+0000002630+000000000+000000369+0000002990+0000000009+I20000000000+0000002990+Z
417931001417931077-000005-B   417931006003000326617PAPER TISSUE PATTERN   0000001000+00002630+00000+0001T   00002630+0000001733          1400 JR3112               1AZ
417932000417932               417932               170213OK     1400+00000+OK0000003507+0000003507+000000000+000000491+0000003990+0000000008+I20000000000+0000003990+Z
417932001417932007-000108     417932006009698062097BK COVER ADJUSTABLE A4 0000001000+00003507+00000+0001T   00003507+0000001735          1400 JR3130               1AZ
417933000417933               417933               170213OK     1400+00000+OK0000002630+0000002630+000000000+000000369+0000002990+0000000009+I20000000000+0000002990+Z
417933001417933077-000235     417933006003000160211GIFT-RIBBON ROLL METALC0000001000+00002630+00000+0001T   00002630+0000001744          1400 JR3112               1AZ
417934000417934               417934               170213OK     1400+00000+OK0000010205+0000010205+000000000+000001429+0000011634+0000000000+I40000011634+0000000000+Z
417934001417934077-000303     417934006001023593757GIFT-BAG PAPER MED     0000002000+00001578+00000+0001T   00001578+0000001747          1400 JR3112               1AZ
417934002417934018-000136     417934006001023659026MUG OCC LOVE W/PLUSH   0000002000+00003507+00000+0001T   00003507+0000001747          1400 JR3515               1AZ
417934003417934112-116038     417934006009681820246TCS CARRIER BAG MIDI   0000001000+00000035+00000+0001T   00000035+0000001747          1400 JR3090               1AZ
417935000417935               417935               170213OK     1400+00000+OK0000007747+0000007747+000000000+000001085+0000008830+0000000002+I20000000000+0000008830+Z
417935001417935903-000843     417935008693029031067SWT GUMMY JELAXY 80G   0000008000+00000964+00000+0001T   00000964+0000001749          1400 JR3150               1AZ
417935002417935112-116038     417935006009681820246TCS CARRIER BAG MIDI   0000001000+00000035+00000+0001T   00000035+0000001749          1400 JR3090               1AZ
417936000417936               417936               170213OK     1400+00000+OK0000003542+0000003542+000000000+000000496+0000004030+0000000008+I20000000000+0000004030+Z
417936001417936018-005009     417936006001023725608MUG W/PLUSH-BEAR LOVE  0000001000+00003507+00000+0001T   00003507+0000001753          1400 JR3515               1AZ
417936002417936112-116038     417936006009681820246TCS CARRIER BAG MIDI   0000001000+00000035+00000+0001T   00000035+0000001753          1400 JR3090               1AZ
417937000417937               417937               170213OK     1400+00000+OK0000017886+0000017886+000000000+000002506+0000020392+0000000000+I40000020392+0000000000+Z
417937001417937072-020285     417937006003000451364PET CAT TOY BALLS PK-4 0000001000+00002630+00000+0001T   00002630+0000001755          1400 JR3870               1AZ
417937002417937077-000011-C   417937006001023808523TISSUE 10xSHTS RED     0000001000+00000876+00000+0001T   00000876+0000001755          1400 JR3112               1AZ
417937003417937261-003342     417937006001023484895GUN RIFLE ACTION-TEAM  0000001000+00004385+00000+0001T   00004385+0000001755          1400 JR3710               1AZ
417937004417937566-000068     417937006003000418046POP UP LOVE 2 ASSTD    0000001000+00002192+00000+0001T   00002192+0000001755          1400 JR3130               1AZ
417937005417937566-000359     417937006003000582709STICKER BOOK LOVE SPARK0000002000+00002192+00000+0001T   00002192+0000001755          1400 JR3130               1AZ
417937006417937080-000127     417937006003000424351VALENTINES DAY 36x24CM 0000001000+00002192+00000+0001T   00002192+0000001755          1400 JR3112               1AZ
417937007417937903-000518     417937006001704012782SWT STRAWS S/BERRY 100g0000001000+00001227+00000+0001T   00001227+0000001755          1400 JR3150               1AZ
A17021300                                          09190918OKSLAVE 1                       JR31IC
A17021301                                          10053113OKSLAVE 1                       JR31IC
A17021302                                          12523523OKSLAVE 1                       JR31IC
B41789300                                          170213OK035-000002     10425754SLAVE 1     JR31IC0000002000+0000001000+0000000000000+
M17021391                              CASH        OKSLAVE 1                       Z-REPORT No.   622TOTAL (Sales - Refunds)           3346.05       CASH TO BE BANKED                  934.40       DEBIT CARDS                          0.00       CREDIT CARDS                      2411.65       Z-READING                         3346.05       AIRTIME DEBIT CARD SALES             0.00       AIRTIME CARD SALES                   0.00       OVERS/UNDERS                         0.00       AIRTIME CASH SALES                   0.00       GIFT CARDS                           0.00       GIFT CARD CASH SALES                 0.00       T O T A L  CASH PAYOUTS              0.00                                                                                                                                                                                                                                                                                                                                                      Z
M17021392                              CASH        OKABSENT                                                                                                                                                                                          ANNUAL LEAVE                                                                                                                                                                                    DAY OFF                                                                                                                                                                                         COMMENTS                                                                                                                                                                                                                                                                                                                                                                                       Z
Y17021300                                          OK00000000302459+000049
ZOK17021320133 SLAVE 1      SALES DATA                     NEXT INVOICE NO.  417938 0622
X OK Slave 1 First invoice 417889 170213 Last invoice 417937 170213 Next invoice 417938 Total number of records 000000180 clbackup completed 20:13:30
