102481000102481               102481               170213OL     1400+00000+OL0000000437+0000000437+000000000+000000062+0000000490+0000000009+I20000000000+0000000490+Z
102481001102481083-000049     102481004891035200024CIG-LIGHTER DISPOSABLE 0000001000+00000437+00000+0001T   00000437+0000000917          1400 RD6315               1AZ
102482000102482               102482               170213OL     1400+00000+OL0000019817+0000019817+000000000+000002776+0000022590+0000000003+I20000000000+0000022590+Z
102482001102482077-000308     102482006001023595812GIFT-BAG 33X45CM E/DAY 0000001000+00001753+00000+0001T   00001753+0000000919          1400 RD6112               1AZ
102482002102482365-003053     102482006001023542250PLAY DOCTOR MEDICAL-CNT0000001000+00004385+00000+0001T   00004385+0000000919          1400 RD6725               1AZ
102482003102482365-003048     102482006001023589354PLAY BEAUTY COSMETIC   0000001000+00004385+00000+0001T   00004385+0000000919          1400 RD6725               1AZ
102482004102482903-002901     102482005996071650655QUICK MILK 5 S/BERRY   0000002000+00001578+00000+0001T   00001578+0000000919          1400 RD6150               1AZ
102482005102482261-004007     102482006001023707512GUNS DOUBLE WILD-WEST  0000001000+00004385+00000+0001T   00004385+0000000919          1400 RD6710               1AZ
102482006102482903-000059     102482006002099001269SWT GS NOVELTY ALIEN VA0000001000+00001753+00000+0001T   00001753+0000000919          1400 RD6150               1AZ
102483000102483               102483               170213OL     1400+00000+OL0000005259+0000005259+000000000+000000738+0000005990+0000000007+I20000000000+0000005990+Z
102483001102483200-003026     102483006003000276448REFUSE BAGS 10PCE GREEN0000003000+00001753+00000+0001T   00001753+0000000921          1400 RD6214               1AZ
102484000102484               102484               170213OL     1400+00000+OL0000007893+0000007893+000000000+000001106+0000008990+0000000009+I20000000000+0000008990+Z
102484001102484365-000008     102484006003000166183P/SET DOCTOR SET W/CASE0000001000+00007893+00000+0001T   00007893+0000000924          1400 RD6725               1AZ
102485000102485               102485               170213OL     1400+00000+OL0000004385+0000004385+000000000+000000614+0000004999+0000000000+I40000004999+0000000000+Z
102485001102485082-096632     102485006001492966328SUNGLASS MEN PLASTIC   0000001000+00004385+00000+0001T   00004385+0000001007          1400 RD6160               1AZ
102486000102486               102486               170213OL     1400+00000+OL0000000876+0000000876+000000000+000000123+0000000990+0000000009+I20000000000+0000000990+Z
102486001102486071-003003     102486006003000144525PEN BALL PEN 3PCE BLACK0000001000+00000876+00000+0001T   00000876+0000001015          1400 RD6130               1AZ
102487000102487               102487               170213OL     1400+00000+OL0000001753+0000001753+000000000+000000246+0000001990+0000000009+I20000000000+0000001990+Z
102487001102487027-783000     102487006001023874641SCOURERS RAINBOW 5PCE  0000001000+00001753+00000+0001T   00001753+0000001101          1400 RD6212               1AZ
102488000102488               102488               170213OL     1400+00000+OL0000014469+0000014469+000000000+000002028+0000016497+0000000000+I40000016497+0000000000+Z
102488001102488077-000309     102488006001023608604GIFT-BAG 25X32CM GLOSS 0000001000+00001753+00000+0001T   00001753+0000001120          1400 RD6112               1AZ
102488002102488030-004060     102488006003000658855PLAQUE WOODEN SIGN     0000001000+00012279+00000+0001T   00012279+0000001120          1400 RD6505               1AZ
102488003102488080-000133-A   102488006003000647019MINI VALENTINES CARD   0000001000+00000437+00000+0001T   00000437+0000001120          1400 RD6112               1AZ
102489000102489               102489               170213OL     1400+00000+OL0000009077+0000009077+000000000+000001274+0000010350+0000000001+I20000000000+0000010350+Z
102489001102489007-000602     102489006003000541270BOOK COVER 2M SOLID COL0000003000+00002630+00000+0001T   00002630+0000001124          1400 RD6130               1AZ
102489002102489046-000014     102489006001023725387BATTERIES SIZE:AAA 4PCE0000001000+00001139+00000+0001T   00001139+0000001124          1400 RD6312               1AZ
102489003102489112-116069     102489006009681820277TCS CARRIER BAG JUMBO  0000001000+00000048+00000+0001T   00000048+0000001124          1400 RD6090               1AZ
102490000102490               102490               170213OL     1400+00000+OL0000030434+0000030434+000000000+000004266+0000034700+0000000000+I40000034700+0000000000+Z
102490001102490007-000890-17  102490006003000645671CALENDAR 2017 ASSTD    0000001000+00006139+00000+0001T   00006139+0000001131          1400 RD6130               1AZ
102490002102490112-116069     102490006009681820277TCS CARRIER BAG JUMBO  0000001000+00000048+00000+0001T   00000048+0000001131          1400 RD6090               1AZ
102490003102490159-000103     102490006001023890214SHOWER CADDY PL-COATED 0000001000+00003946+00000+0001T   00003946+0000001131          1400 RD6200               1AZ
102490004102490252-000004     102490006001023473332CURTN-HOOK BRS R7 50PCE0000001000+00001490+00000+0001T   00001490+0000001131          1400 RD6810               1AZ
102490005102490252-000011     102490006001023475190CURTN-GLIDER ACETYL x500000001000+00000876+00000+0001T   00000876+0000001131          1400 RD6810               1AZ
102490006102490252-000004     102490006001023473332CURTN-HOOK BRS R7 50PCE0000001000+00001490+00000+0001T   00001490+0000001131          1400 RD6810               1AZ
102490007102490252-000011     102490006001023475190CURTN-GLIDER ACETYL x500000001000+00000876+00000+0001T   00000876+0000001131          1400 RD6810               1AZ
102490008102490252-000004     102490006001023473332CURTN-HOOK BRS R7 50PCE0000001000+00001490+00000+0001T   00001490+0000001131          1400 RD6810               1AZ
102490009102490252-000011     102490006001023475190CURTN-GLIDER ACETYL x500000001000+00000876+00000+0001T   00000876+0000001131          1400 RD6810               1AZ
102490010102490200-003024     102490006001023657299REFUSE BAGS 20PCE BLACK0000001000+00001753+00000+0001T   00001753+0000001131          1400 RD6214               1AZ
102490011102490112-116069     102490006009681820277TCS CARRIER BAG JUMBO  0000001000+00000048+00000+0001T   00000048+0000001131          1400 RD6090               1AZ
102490012102490040-000103     102490000694202201862C/HOLDER-SET 5PC W/TRAY0000001000+00011402+00000+0001T   00013157+0008191131          1400 RD6510               1AZ
102491000102491               102491               170213OL     1400+00000+OL0000003244+0000003244+000000000+000000455+0000003690+0000000009+I20000000000+0000003690+Z
102491001102491051-600630     102491006001023868374PLANTER W/TRAY PL RECT 0000001000+00003244+00000+0001T   00003244+0000001310          1400 RD6820               1AZ
102492000102492               102492               170213OL     1400+00000+OL0000012583+0000012583+000000000+000001764+0000014347+0000000000+I40000014347+0000000000+Z
102492001102492077-000115     102492006001023834225WRAP METALLIC 700mmx1m 0000001000+00001753+00000+0001T   00001753+0000001324          1400 RD6112               1AZ
102492002102492112-116069     102492006009681820277TCS CARRIER BAG JUMBO  0000001000+00000048+00000+0001T   00000048+0000001324          1400 RD6090               1AZ
102492003102492018-030000     102492006003000421060MUG OCCASIONS LOVE 2PCE0000001000+00004385+00000+0001T   00004385+0000001324          1400 RD6515               1AZ
102492004102492304-001011     102492006001023806727FLWR ROSE RED W/BEAR   0000002000+00000613+00000+0001T   00000788+0006471324          1400 RD6510               1AZ
102492005102492903-000521     102492006001704009652SWT GUMMY SOFT GUMS    0000001000+00000876+00000+0001T   00000876+0000001324          1400 RD6150               1AZ
102492006102492077-000303     102492006001023593757GIFT-BAG PAPER MED     0000001000+00001578+00000+0001T   00001578+0000001324          1400 RD6112               1AZ
102492007102492080-000139     102492006003000611690CARD & ENV MINI SET 6PC0000001000+00002192+00000+0001T   00002192+0000001324          1400 RD6112               1AZ
102492008102492903-000155     102492006009803374435SWT LOLLY I LUV U HEART0000001000+00000525+00000+0001T   00000525+0000001324          1400 RD6150               1AZ
102493000102493               102493               170213OL     1400+00000+OL0000019329+0000019329+000000000+000002714+0000022043+0000000000+I40000022043+0000000000+Z
102493001102493112-116069     102493006009681820277TCS CARRIER BAG JUMBO  0000001000+00000048+00000+0001T   00000048+0000001327          1400 RD6090               1AZ
102493002102493031-000921     102493006001023667755P/FRAME COLLAGE 4-HOLE 0000001000+00003069+00000+0001T   00003069+0000001327          1400 RD6510               1AZ
102493003102493206-000630     102493006003000631919SPECTACLE CLEANING BRUS0000001000+00001227+00000+0001T   00001227+0000001327          1400 RD6321               1AZ
102493004102493080-000133-A   102493006003000647019MINI VALENTINES CARD   0000001000+00000437+00000+0001T   00000437+0000001327          1400 RD6112               1AZ
102493005102493903-000200     102493006009826020234SWT CHOC RP CHOCO 23G  0000004000+00000788+00000+0001T   00000788+0000001327          1400 RD6150               1AZ
102493006102493565-000040     102493006008766115635NOVELTY ICON BEANIE    0000004000+00002630+00000+0001T   00002630+0000001327          1400 RD6745               1AZ
102493007102493077-000011-C   102493006001023808523TISSUE 10xSHTS RED     0000001000+00000876+00000+0001T   00000876+0000001327          1400 RD6112               1AZ
102494000102494               102494               170213OL     1400+00000+OL0000000437+0000000437+000000000+000000062+0000000490+0000000009+I20000000000+0000000490+Z
102494001102494083-000049     102494004891035200024CIG-LIGHTER DISPOSABLE 0000001000+00000437+00000+0001T   00000437+0000001327          1400 RD6315               1AZ
102495000102495               102495               170213OL     1400+00000+OL0000003506+0000003506+000000000+000000492+0000003998+0000000000+I40000003998+0000000000+Z
102495001102495080-000111     102495006003000252695CARD&ENVELPE - MUSICAL 0000001000+00001753+00000+0001T   00001753+0000001332          1400 RD6112               1AZ
102495002102495080-000106     102495006003000237098CARD&ENVLPE BDAY GIRL  0000001000+00001753+00000+0001T   00001753+0000001332          1400 RD6112               1AZ
102496000102496               102496               170213OL     1400+00000+OL0000003506+0000003506+000000000+000000492+0000003998+0000000000+I40000003998+0000000000+Z
102496001102496903-000211     102496006002099001238SWT GS MALLOW ICE CREAM0000001000+00001753+00000+0001T   00001753+0000001342          1400 RD6150               1AZ
102496002102496071-010481     102496006001023417220MAGNIFYING-GLASS 90mm-D0000001000+00001753+00000+0001T   00001753+0000001342          1400 RD6130               1AZ
102497000102497               102497               170213OL     1400+00000+OL0000003506+0000003506+000000000+000000492+0000003998+0000000000+I40000003998+0000000000+Z
102497001102497016-006514     102497006003000295432S/JAR EMBOSSED 500ML   0000002000+00001753+00000+0001T   00001753+0000001417          1400 RD6300               1AZ
102498000102498               102498               170213OL     1400+00000+OL0000011836+0000011836+000000000+000001659+0000013495+0000000000+I40000013495+0000000000+Z
102498001102498080-000127     102498006003000424351VALENTINES DAY 36x24CM 0000001000+00002192+00000+0001T   00002192+0000001420          1400 RD6112               1AZ
102498002102498077-000151     102498006008766114676GIFT-WRAP C/PHANE ASSTD0000001000+00000876+00000+0001T   00000876+0000001420          1400 RD6112               1AZ
102498003102498077-000011-C   102498006001023808523TISSUE 10xSHTS RED     0000001000+00000876+00000+0001T   00000876+0000001420          1400 RD6112               1AZ
102498004102498206-000620     102498006003000631797BACK SCRATCHER EXTEND  0000001000+00002630+00000+0001T   00002630+0000001420          1400 RD6321               1AZ
102498005102498103-000474     102498006003000630363BAMBOO FLOWER BASKET   0000001000+00005262+00000+0001T   00005262+0000001420          1400 RD6300               1AZ
102499000102499               102499               170213OL     1400+00000+OL0000021486+0000021486+000000000+000003010+0000024496+0000000000+I40000024496+0000000000+Z
102499001102499077-000299-A   102499006003000670888GIFT-BAG PAPER JMB LOVE0000001000+00001753+00000+0001T   00001753+0000001427          1400 RD6112               1AZ
102499002102499080-000127     102499006003000424351VALENTINES DAY 36x24CM 0000001000+00002192+00000+0001T   00002192+0000001427          1400 RD6112               1AZ
102499003102499368-000637     102499006001023874092PLUSH BEAR SLEEPING LOV0000001000+00011402+00000+0001T   00012279+0006471427          1400 RD6745               1AZ
102499004102499018-005007     102499006003000515516MUG OCC. LOVE W/HEARTS 0000001000+00006139+00000+0001T   00006139+0000001427          1400 RD6515               1AZ
102500000102500               102500               170213OL     1400+00000+OL0000031779+0000031779+000000000+000004457+0000036236+0000000000+I40000036236+0000000000+Z
102500001102500112-116069     102500006009681820277TCS CARRIER BAG JUMBO  0000001000+00000048+00000+0001T   00000048+0000001440          1400 RD6090               1AZ
102500002102500030-004080     102500006003000657780PLAQUE WOODEN SIGN     0000001000+00010525+00000+0001T   00010525+0000001440          1400 RD6505               1AZ
102500003102500072-000162     102500006003000094462PET DOG SHIRT GIRL MED 0000001000+00006139+00000+0001T   00006139+0000001440          1400 RD6870               1AZ
102500004102500079-000269     102500006003000159963PAINT-BRUSHES SPONGETIP0000001000+00003507+00000+0001T   00003507+0000001440          1400 RD6130               1AZ
102500005102500903-000183     102500006003000451043SWT LB HEART LOLLY     0000006000+00000393+00000+0001T   00000393+0000001440          1400 RD6150               1AZ
102500006102500903-000194     102500006009826020616SWT CHOC RP LOLLY 25G  0000003000+00001314+00000+0001T   00001314+0000001440          1400 RD6150               1AZ
102500007102500058-000062     102500006001023622976HOBBY-KNIFE+BLADE 15cm 0000001000+00003507+00000+0001T   00003507+0000001440          1400 RD6840               1AZ
102500008102500079-003001     102500006003000448951A/TUBE 75ML BLACK      0000001000+00001753+00000+0001T   00001753+0000001440          1400 RD6130               1AZ
102501000102501               102501               170213OL     1400+00000+OL0000001490+0000001490+000000000+000000209+0000001690+0000000009+I20000000000+0000001690+Z
102501001102501016-006516     102501006003000351503S/JAR GLS CHECK 150ML  0000001000+00001490+00000+0001T   00001490+0000001441          1400 RD6300               1AZ
102502000102502               102502               170213OL     1400+00000+OL0000008067+0000008067+000000000+000001130+0000009190+0000000007+I20000000000+0000009190+Z
102502001102502031-000001-A   102502006003000246908P/FRAME GLS LOVE 9X13cm0000001000+00004385+00000+0001T   00004385+0000001450          1400 RD6510               1AZ
102502002102502077-000303     102502006001023593757GIFT-BAG PAPER MED     0000001000+00001578+00000+0001T   00001578+0000001450          1400 RD6112               1AZ
102502003102502903-000095     102502006001704011495SWT SPECKLED-EGGS 100G 0000001000+00002104+00000+0001T   00002104+0000001450          1400 RD6150               1AZ
102503000102503               102503               170213OL     1400+00000+OL0000007842+0000007842+000000000+000001100+0000008942+0000000000+I40000008942+0000000000+Z
102503001102503077-000303     102503006001023593757GIFT-BAG PAPER MED     0000001000+00001578+00000+0001T   00001578+0000001452          1400 RD6112               1AZ
102503002102503018-000136     102503006001023659026MUG OCC LOVE W/PLUSH   0000001000+00003507+00000+0001T   00003507+0000001452          1400 RD6515               1AZ
102503003102503903-000087     102503006001704000161SWT SPECKLED-EGGS 50G  0000001000+00001139+00000+0001T   00001139+0000001452          1400 RD6150               1AZ
102503004102503903-000183     102503006003000451043SWT LB HEART LOLLY     0000001000+00000393+00000+0001T   00000393+0000001452          1400 RD6150               1AZ
102503005102503903-000155     102503006009803374435SWT LOLLY I LUV U HEART0000001000+00000525+00000+0001T   00000525+0000001452          1400 RD6150               1AZ
102503006102503903-000159     102503006003000417629SWT LB SMALL DUMMIE    0000002000+00000350+00000+0001T   00000350+0000001452          1400 RD6150               1AZ
102504000102504               102504               170213OL     1400+00000+OL0000010167+0000010167+000000000+000001425+0000011592+0000000000+I40000011592+0000000000+Z
102504001102504077-000310     102504006001023608635GIFT-BAG 18X23CM GLOSS 0000001000+00001314+00000+0001T   00001314+0000001455          1400 RD6112               1AZ
102504002102504903-000194     102504006009826020616SWT CHOC RP LOLLY 25G  0000001000+00001314+00000+0001T   00001314+0000001455          1400 RD6150               1AZ
102504003102504018-000127     102504006001023380289MUG OCC STRAIGHT LOVE  0000001000+00001578+00000+0001T   00001753+0006471455          1400 RD6515               1AZ
102504004102504903-000087     102504006001704000161SWT SPECKLED-EGGS 50G  0000001000+00001139+00000+0001T   00001139+0000001455          1400 RD6150               1AZ
102504005102504080-000133     102504006003000535613CARD&ENV MINI ASTD DSGN0000001000+00000437+00000+0001T   00000437+0000001455          1400 RD6112               1AZ
102504006102504206-000160     102504006003000628780CORN KERNELER          0000001000+00004385+00000+0001T   00004385+0000001455          1400 RD6321               1AZ
102505000102505               102505               170213OL     1400+00000+OL0000014032+0000014032+000000000+000001966+0000015990+0000000008+I20000000000+0000015990+Z
102505001102505562-000070     102505006003000600748EDU PLAY DOUGH 50g 8pc 0000002000+00007016+00000+0001T   00007016+0000001501          1400 RD6755               1AZ
102506000102506               102506               170213OL     1400+00000+OL0000029936+0000029936+000000000+000004198+0000034134+0000000000+I40000034134+0000000000+Z
102506001102506112-116069     102506006009681820277TCS CARRIER BAG JUMBO  0000001000+00000048+00000+0001T   00000048+0000001521          1400 RD6090               1AZ
102506002102506077-000455     102506006003000285389G/BAG METALLIC LRG SOL 0000002000+00001753+00000+0001T   00001753+0000001521          1400 RD6112               1AZ
102506003102506150-012228-H   102506006001023416773DOOR-STOPPERS SET-OF-2 0000001000+00001753+00000+0001T   00001753+0000001521          1400 RD6810               1AZ
102506004102506033-000106     102506006001023678027ELASTIC  6mmx3m  CARDED0000002000+00000876+00000+0001T   00000876+0000001521          1400 RD6200               1AZ
102506005102506566-000304     1025060060030004440453-D POP-UP ROUND       0000001000+00002455+00000+0001T   00002455+0000001521          1400 RD6130               1AZ
102506006102506566-000070     102506006003000283798STICKERS POP UP ASSTD  0000001000+00001753+00000+0001T   00001753+0000001521          1400 RD6130               1AZ
102506007102506566-000951     102506006003000217670STICKERS 3 STYLES ASSTD0000001000+00002192+00000+0001T   00002192+0000001521          1400 RD6130               1AZ
102506008102506566-002000     102506000721129013206STICKERS CRYSTAL ASSTD 0000001000+00000700+00000+0001T   00000700+0000001521          1400 RD6130               1AZ
102506009102506566-000001-D   102506006003000141678STICKER ALBUM+STICKERS 0000001000+00002630+00000+0001T   00003157+0008151521          1400 RD6130               1AZ
102506010102506079-000275     102506006003000160488PAINT-BRUSHES 6PCE PRO 0000001000+00001753+00000+0001T   00001753+0000001521          1400 RD6130               1AZ
102506011102506079-000590     102506006003000543236SKETCH PAD & PAINT SET 0000001000+00007016+00000+0001T   00007016+0000001521          1400 RD6130               1AZ
102506012102506566-000200     102506006003000384174STICKER PUFFY NEON     0000002000+00000876+00000+0001T   00000876+0000001521          1400 RD6130               1AZ
102506013102506018-000177     102506006001023797513MUG MINI LOVE ASSTD    0000002000+00000700+00000+0001T   00000700+0000001521          1400 RD6515               1AZ
102506014102506304-001011     102506006001023806727FLWR ROSE RED W/BEAR   0000002000+00000613+00000+0001T   00000788+0006471521          1400 RD6510               1AZ
102507000102507               102507               170213OL     1400+00000+OL0000002585+0000002585+000000000+000000363+0000002940+0000000008+I20000000000+0000002940+Z
102507001102507903-000183     102507006003000451043SWT LB HEART LOLLY     0000001000+00000393+00000+0001T   00000393+0000001522          1400 RD6150               1AZ
102507002102507080-000127     102507006003000424351VALENTINES DAY 36x24CM 0000001000+00002192+00000+0001T   00002192+0000001522          1400 RD6112               1AZ
102508000102508               102508               170213OL     1400+00000+OL0000017140+0000017140+000000000+000002406+0000019546+0000000000+I40000019546+0000000000+Z
102508001102508112-116069     102508006009681820277TCS CARRIER BAG JUMBO  0000001000+00000048+00000+0001T   00000048+0000001624          1400 RD6090               1AZ
102508002102508018-050000     102508006003000412679MUG OCC LOVE TWIN BEAR 0000001000+00006139+00000+0001T   00006139+0000001624          1400 RD6515               1AZ
102508003102508903-000211     102508006002099001238SWT GS MALLOW ICE CREAM0000001000+00001753+00000+0001T   00001753+0000001624          1400 RD6150               1AZ
102508004102508903-000183     102508006003000451043SWT LB HEART LOLLY     0000002000+00000393+00000+0001T   00000393+0000001624          1400 RD6150               1AZ
102508005102508903-000843     102508008693029031067SWT GUMMY JELAXY 80G   0000001000+00000964+00000+0001T   00000964+0000001624          1400 RD6150               1AZ
102508006102508368-000100     102508006001023474742PLUSH MD BEAR 12cm     0000002000+00002630+00000+0001T   00002630+0000001624          1400 RD6745               1AZ
102508007102508080-000133-A   102508006003000647019MINI VALENTINES CARD   0000001000+00000437+00000+0001T   00000437+0000001624          1400 RD6112               1AZ
102508008102508080-000113     102508006003000237449CARD&ENVLPE - LOVE     0000001000+00001753+00000+0001T   00001753+0000001624          1400 RD6112               1AZ
102509000102509               102509               170213OL     1400+00000+OL0000005698+0000005698+000000000+000000799+0000006497+0000000000+I40000006497+0000000000+Z
102509001102509077-000918     102509006003000413690G/WRAP 700mmx2m PATTERN0000001000+00002192+00000+0001T   00002192+0000001625          1400 RD6112               1AZ
102509002102509080-000104     102509006003000236978CARD&ENVLP MALE AFR    0000001000+00001753+00000+0001T   00001753+0000001625          1400 RD6112               1AZ
102509003102509080-000118     102509006003000237562CARD&ENVLPE-CONGRATS   0000001000+00001753+00000+0001T   00001753+0000001625          1400 RD6112               1AZ
102510000102510               102510               170213OL     1400+00000+OL0000005699+0000005699+000000000+000000798+0000006497+0000000000+I40000006497+0000000000+Z
102510001102510018-030000     102510006003000421060MUG OCCASIONS LOVE 2PCE0000001000+00004385+00000+0001T   00004385+0000001626          1400 RD6515               1AZ
102510002102510903-000844     102510005010478432567SWT CANDY DL LUV HEARTS0000001000+00001314+00000+0001T   00001314+0000001626          1400 RD6150               1AZ
102511000102511               102511               170213OL     1400+00000+OL0000004382+0000004382+000000000+000000615+0000004990+0000000007+I20000000000+0000004990+Z
102511001102511200-003024     102511006001023657299REFUSE BAGS 20PCE BLACK0000002000+00001753+00000+0001T   00001753+0000001628          1400 RD6214               1AZ
102511002102511903-000494     102511006001704009911SWT GUMMY TEENY TEDDIES0000001000+00000876+00000+0001T   00000876+0000001628          1400 RD6150               1AZ
102512000102512               102512               170213OL     1400+00000+OL0000003065+0000003065+000000000+000000430+0000003490+0000000005+I20000000000+0000003490+Z
102512001102512903-000194     102512006009826020616SWT CHOC RP LOLLY 25G  0000002000+00001314+00000+0001T   00001314+0000001630          1400 RD6150               1AZ
102512002102512080-000133-A   102512006003000647019MINI VALENTINES CARD   0000001000+00000437+00000+0001T   00000437+0000001630          1400 RD6112               1AZ
102513000102513               102513               170213OL     1400+00000+OL0000004120+0000004120+000000000+000000577+0000004690+0000000007+I20000000000+0000004690+Z
102513001102513903-000843     102513008693029031067SWT GUMMY JELAXY 80G   0000002000+00000964+00000+0001T   00000964+0000001631          1400 RD6150               1AZ
102513002102513566-000359     102513006003000582709STICKER BOOK LOVE SPARK0000001000+00002192+00000+0001T   00002192+0000001631          1400 RD6130               1AZ
102514000102514               102514               170213OL     1400+00000+OL0000000613+0000000613+000000000+000000086+0000000690+0000000009+I20000000000+0000000690+Z
102514001102514304-001011     102514006001023806727FLWR ROSE RED W/BEAR   0000001000+00000613+00000+0001T   00000788+0006471656          1400 RD6510               1AZ
102515000102515               102515               170213OL     1400+00000+OL0000038631+0000038631+000000000+000005414+0000044045+0000000000+I40000044045+0000000000+Z
102515001102515112-116069     102515006009681820277TCS CARRIER BAG JUMBO  0000001000+00000048+00000+0001T   00000048+0000001701          1400 RD6090               1AZ
102515002102515039-000799     102515006001023692382CANDLES TEALITE 100PCE 0000001000+00008771+00000+0001T   00008771+0000001701          1400 RD6510               1AZ
102515003102515039-000100     10251500600300060614625CM WHITE CANDLE 6PC  0000001000+00002630+00000+0001T   00002630+0000001701          1400 RD6510               1AZ
102515004102515077-000456     102515006003000285549G/BAG METALLIC JMB EMB 0000001000+00002630+00000+0001T   00002630+0000001701          1400 RD6112               1AZ
102515005102515040-000922     102515006001023587817CANDLE-HOLDER GLS 18cm 0000006000+00001753+00000+0001T   00001753+0000001701          1400 RD6510               1AZ
102515006102515031-001000     102515006003000253210P/FRAME CERTIFICATE    0000001000+00014034+00000+0001T   00014034+0000001701          1400 RD6510               1AZ
102516000102516               102516               170213OL     1400+00000+OL0000001753+0000001753+000000000+000000246+0000001990+0000000009+I20000000000+0000001990+Z
102516001102516103-000036     102516006001023585899BASKET RECT.16x12x6cm  0000001000+00001753+00000+0001T   00002367+0008161702          1400 RD6300               1AZ
102517000102517               102517               170213OL     1400+00000+OL0000002891+0000002891+000000000+000000406+0000003297+0000000000+I40000003297+0000000000+Z
102517001102517077-000011-D   102517006001023808554TISSUE-WRAP WHITE 10PCE0000001000+00000876+00000+0001T   00000876+0000001713          1400 RD6112               1AZ
102517002102517077-000303     102517006001023593757GIFT-BAG PAPER MED     0000001000+00001578+00000+0001T   00001578+0000001713          1400 RD6112               1AZ
102517003102517080-000133-A   102517006003000647019MINI VALENTINES CARD   0000001000+00000437+00000+0001T   00000437+0000001713          1400 RD6112               1AZ
102518000102518               102518               170213OL     1400+00000+OL0000005260+0000005260+000000000+000000737+0000005990+0000000007+I20000000000+0000005990+Z
102518001102518031-005923     102518006003000040322P/FRAME CERT PL 21x29.70000001000+00003507+00000+0001T   00003507+0000001714          1400 RD6510               1AZ
102518002102518077-000116     102518006003000240777GIFT-WRAP 700mmx2m COL 0000001000+00001753+00000+0001T   00001753+0000001714          1400 RD6112               1AZ
102519000102519               102519               170213OL     1400+00000+OL0000001748+0000001748+000000000+000000248+0000001996+0000000000+I40000001996+0000000000+Z
102519001102519080-000133-A   102519006003000647019MINI VALENTINES CARD   0000001000+00000437+00000+0001T   00000437+0000001754          1400 RD6112               1AZ
102519002102519080-000133     102519006003000535613CARD&ENV MINI ASTD DSGN0000002000+00000437+00000+0001T   00000437+0000001754          1400 RD6112               1AZ
102519003102519080-000133-A   102519006003000647019MINI VALENTINES CARD   0000001000+00000437+00000+0001T   00000437+0000001754          1400 RD6112               1AZ
A17021300                                          13291567OLSLAVE 1                       RD62IC
M17021391                              CASH        OLSLAVE 1                       Z-REPORT No.   625TOTAL (Sales - Refunds)           4225.73       CASH TO BE BANKED                 1072.20       DEBIT CARDS                          0.00       CREDIT CARDS                      3153.53       Z-READING                         4225.73       AIRTIME DEBIT CARD SALES             0.00       AIRTIME CARD SALES                   0.00       OVERS/UNDERS                         0.00       AIRTIME CASH SALES                   0.00       GIFT CARDS                           0.00       GIFT CARD CASH SALES                 0.00       T O T A L  CASH PAYOUTS              0.00                                                                                                                                                                                                                                                                                                                                                      Z
M17021392                              CASH        OLABSENT                                                                                                                                                                                          ANNUAL LEAVE                                                                                                                                                                                    DAY OFF                                                                                                                                                                                         COMMENTS                                                                                                                                                                                                                                                                                                                                                                                       Z
Y17021300                                          OL00000000370731+000039
ZOL17021320133 SLAVE 1      SALES DATA                     NEXT INVOICE NO.  102520 0625
X OL Slave 1 First invoice 102481 170213 Last invoice 102519 170213 Next invoice 102520 Total number of records 000000181 clbackup completed 20:13:38
