201076000201076               201076               170213OL     1400+00000+OL0000003507+0000003507+000000000+000000491+0000003990+0000000008+I20000000000+0000003990+Z
201076001201076018-000130     201076006001023867537MUG OCC LOVE MINI+HEART0000001000+00003507+00000+0001T   00003507+0000001027          1400 2IC515               2AZ
201077000201077               201077               170213OL     1400+00000+OL0000003506+0000003506+000000000+000000492+0000003990+0000000008+I20000000000+0000003990+Z
201077001201077200-003024     201077006001023657299REFUSE BAGS 20PCE BLACK0000002000+00001753+00000+0001T   00001753+0000001030          1400 2IC214               2AZ
201078000201078               201078               170213OL     1400+00000+OL0000007925+0000007925+000000000+000001112+0000009037+0000000000+I40000009037+0000000000+Z
201078001201078018-000129     201078006001023403353MUG OCC. LOVE V-SHAPE  0000001000+00002630+00000+0001T   00002630+0000001035          1400 2IC515               2AZ
201078002201078304-000720     201078006001023843050F/BUNCH ROSE 6-HEAD AST0000002000+00002630+00000+0001T   00002630+0000001035          1400 2IC510               2AZ
201078003201078112-116038     201078006009681820246TCS CARRIER BAG MIDI   0000001000+00000035+00000+0001T   00000035+0000001035          1400 2IC090               2AZ
201079000201079               201079               170213OL     1400+00000+OL0000003364+0000003364+000000000+000000473+0000003830+0000000007+I20000000000+0000003830+Z
201079001201079112-116038     201079006009681820246TCS CARRIER BAG MIDI   0000001000+00000035+00000+0001T   00000035+0000001146          1400 2IC090               2AZ
201079002201079903-000200     201079006009826020234SWT CHOC RP CHOCO 23G  0000002000+00000788+00000+0001T   00000788+0000001146          1400 2IC150               2AZ
201079003201079080-000113     201079006003000237449CARD&ENVLPE - LOVE     0000001000+00001753+00000+0001T   00001753+0000001146          1400 2IC112               2AZ
201080000201080               201080               170213OL     1400+00000+OL0000003507+0000003507+000000000+000000491+0000003998+0000000000+I40000003998+0000000000+Z
201080001201080016-006508     201080006003000181537S/JAR GLASS 10X12CM    0000001000+00003507+00000+0001T   00003507+0000001200          1400 2IC300               2AZ
201081000201081               201081               170213OL     1400+00000+OL0000007016+0000007016+000000000+000000983+0000007990+0000000009+I20000000000+0000007990+Z
201081001201081562-006275     201081006001023836182EDU BOARD W/MARKER ASST0000001000+00007016+00000+0001T   00007016+0000001207          1400 2IC755               2AZ
201082000201082               201082               170213OL     1400+00000+OL0000005262+0000005262+000000000+000000737+0000005999+0000000000+I40000005999+0000000000+Z
201082001201082031-000903-B   201082006003000457236P/FRAME PL CREAMY 13X180000001000+00005262+00000+0001T   00005262+0000001216          1400 2IC510               2AZ
201083000201083               201083               170213OL     1400+00000+OL0000003069+0000003069+000000000+000000430+0000003490+0000000009+I20000000000+0000003490+Z
201083001201083301-085008     201083006003000673933ORN OCC.LOVE TINSEL HRT0000001000+00003069+00000+0001T   00003069+0000001236          1400 2IC505               2AZ
201084000201084               201084               170213OL     1400+00000+OL0000001314+0000001314+000000000+000000184+0000001490+0000000008+I20000000000+0000001490+Z
201084001201084077-000310     201084006001023608635GIFT-BAG 18X23CM GLOSS 0000001000+00001314+00000+0001T   00001314+0000001237          1400 2IC112               2AZ
201085000201085               201085               170213OL     1400+00000+OL0000025342+0000025342+000000000+000003551+0000028890+0000000003+I20000000000+0000028890+Z
201085001201085077-000299-A   201085006003000670888GIFT-BAG PAPER JMB LOVE0000001000+00001753+00000+0001T   00001753+0000001250          1400 2IC112               2AZ
201085002201085368-000113     201085006001023780874PLUSH BLINGED LOVE 30cm0000001000+00012279+00000+0001T   00012279+0000001250          1400 2IC745               2AZ
201085003201085018-050000     201085006003000412679MUG OCC LOVE TWIN BEAR 0000001000+00006139+00000+0001T   00006139+0000001250          1400 2IC515               2AZ
201085004201085080-000127     201085006003000424351VALENTINES DAY 36x24CM 0000001000+00002192+00000+0001T   00002192+0000001250          1400 2IC112               2AZ
201085005201085083-000055     201085006003000003853LIGHTER ELCTRNC REFILBL0000002000+00000613+00000+0001T   00000613+0000001250          1400 2IC315               2AZ
201085006201085080-000106     201085006003000237098CARD&ENVLPE BDAY GIRL  0000001000+00001753+00000+0001T   00001753+0000001250          1400 2IC112               2AZ
201086000201086               201086               170213OL     1400+00000+OL0000025112+0000025112+000000000+000003518+0000028630+0000000000+I40000028630+0000000000+Z
201086001201086112-116038     201086006009681820246TCS CARRIER BAG MIDI   0000001000+00000035+00000+0001T   00000035+0000001303          1400 2IC090               2AZ
201086002201086001-091415     201086006003000329113W/GLS OCC. LOVE 2PC 2800000001000+00008771+00000+0001T   00009648+0006471303          1400 2IC515               2AZ
201086003201086039-000799     201086006001023692382CANDLES TEALITE 100PCE 0000001000+00008771+00000+0001T   00008771+0000001303          1400 2IC510               2AZ
201086004201086304-001011     201086006001023806727FLWR ROSE RED W/BEAR   0000001000+00000613+00000+0001T   00000788+0006471303          1400 2IC510               2AZ
201086005201086039-001023     201086006003000466337CANDLE TEA-LITE METALIC0000001000+00001753+00000+0001T   00001753+0000001303          1400 2IC510               2AZ
201086006201086903-000200     201086006009826020234SWT CHOC RP CHOCO 23G  0000001000+00000788+00000+0001T   00000788+0000001303          1400 2IC150               2AZ
201086007201086006-000167-F   201086006003000517411BALLOONS SILV METALLIC 0000001000+00001314+00000+0001T   00001314+0000001303          1400 2IC131               2AZ
201086008201086006-000166-D   201086006003000516490BALLOONS LRG 6PC RED   0000001000+00001314+00000+0001T   00001314+0000001303          1400 2IC131               2AZ
201086009201086006-000108     201086006003000587995BALLOONS 6PC RED/WHT   0000001000+00001753+00000+0001T   00001753+0000001303          1400 2IC131               2AZ
201087000201087               201087               170213OL     1400+00000+OL0000001578+0000001578+000000000+000000221+0000001790+0000000009+I20000000000+0000001790+Z
201087001201087018-000127     201087006001023380289MUG OCC STRAIGHT LOVE  0000001000+00001578+00000+0001T   00001753+0006471345          1400 2IC515               2AZ
201088000201088               201088               170213OL     1400+00000+OL0000003507+0000003507+000000000+000000491+0000003990+0000000008+I20000000000+0000003990+Z
201088001201088083-000305     201088006440024423302CIG-LIGHTER-GAS   300ml0000001000+00003507+00000+0001T   00003507+0000001350          1400 2IC315               2AZ
201089000201089               201089               170213OL     1400+00000+OL0000004383+0000004383+000000000+000000615+0000004990+0000000008+I20000000000+0000004990+Z
201089001201089105-001247     201089006003000623310CONTAINER RECT 3PCE    0000001000+00002630+00000+0001T   00002630+0000001411          1400 2IC210               2AZ
201089002201089105-001039-B   201089006003000632596CONTAINER W/VENT 12x16 0000001000+00001753+00000+0001T   00002630+0008161411          1400 2IC210               2AZ
201090000201090               201090               170213OL     1400+00000+OL0000001753+0000001753+000000000+000000246+0000001990+0000000009+I20000000000+0000001990+Z
201090001201090077-000309     201090006001023608604GIFT-BAG 25X32CM GLOSS 0000001000+00001753+00000+0001T   00001753+0000001412          1400 2IC112               2AZ
201091000201091               201091               170213OL     1400+00000+OL0000006138+0000006138+000000000+000000860+0000006990+0000000008+I20000000000+0000006990+Z
201091001201091264-000915     201091000090159151074MAISTO FRESH PAINT     0000001000+00004385+00000+0001T   00004385+0000001534          1400 2IC710               2AZ
201091002201091903-000211     201091006002099001238SWT GS MALLOW ICE CREAM0000001000+00001753+00000+0001T   00001753+0000001534          1400 2IC150               2AZ
201092000201092               201092               170213OL     1400+00000+OL0000001663+0000001663+000000000+000000234+0000001890+0000000007+I20000000000+0000001890+Z
201092001201092304-001011     201092006001023806727FLWR ROSE RED W/BEAR   0000001000+00000613+00000+0001T   00000788+0006471537          1400 2IC510               2AZ
201092002201092903-000155     201092006009803374435SWT LOLLY I LUV U HEART0000002000+00000525+00000+0001T   00000525+0000001537          1400 2IC150               2AZ
201093000201093               201093               170213OL     1400+00000+OL0000009856+0000009856+000000000+000001381+0000011237+0000000000+I40000011237+0000000000+Z
201093001201093586-011943     201093006001492119434WATCH KIDS BEZEL STRAP 0000001000+00008771+00000+0001T   00008771+0000001543          1400 2IC160               2AZ
201093002201093903-000155     201093006009803374435SWT LOLLY I LUV U HEART0000002000+00000525+00000+0001T   00000525+0000001543          1400 2IC150               2AZ
201093003201093112-116038     201093006009681820246TCS CARRIER BAG MIDI   0000001000+00000035+00000+0001T   00000035+0000001543          1400 2IC090               2AZ
201094000201094               201094               170213OL     1400+00000+OL0000030252+0000030252+000000000+000004238+0000034490+0000000000+I40000034490+0000000000+Z
201094001201094077-000270     201094006003000395453GIFT-BAG PPR JMB 33X45 0000001000+00002630+00000+0001T   00002630+0000001546          1400 2IC112               2AZ
201094002201094368-000181     201094006003000668052PLUSH BUNNY 27cm       0000001000+00011402+00000+0001T   00011402+0000001546          1400 2IC745               2AZ
201094003201094368-000049     201094006003000536955PLUSH BEAR 15cm LOVE   0000001000+00004385+00000+0001T   00004385+0000001546          1400 2IC745               2AZ
201094004201094903-000194     201094006009826020616SWT CHOC RP LOLLY 25G  0000002000+00001314+00000+0001T   00001314+0000001546          1400 2IC150               2AZ
201094005201094077-000005-B   201094006003000326617PAPER TISSUE PATTERN   0000001000+00002630+00000+0001T   00002630+0000001546          1400 2IC112               2AZ
201094006201094566-000359     201094006003000582709STICKER BOOK LOVE SPARK0000001000+00002192+00000+0001T   00002192+0000001546          1400 2IC130               2AZ
201094007201094007-000711     201094006003000227518NOTE-BK A5 WIRE 80SHTS 0000001000+00004385+00000+0001T   00004385+0000001546          1400 2IC130               2AZ
201095000201095               201095               170213OL     1400+00000+OL0000011448+0000011448+000000000+000001604+0000013052+0000000000+I40000013052+0000000000+Z
201095001201095366-002195     201095006001023990549DRESS UP WINGS FEATHER 0000001000+00005262+00000+0001T   00005262+0000001549          1400 2IC131               2AZ
201095002201095006-000223     201095006001023891327PARTY EYE-MASK 6PCE    0000001000+00000876+00000+0001T   00000876+0000001549          1400 2IC131               2AZ
201095003201095366-002195     201095006001023990549DRESS UP WINGS FEATHER 0000001000+00005262+00000+0001T   00005262+0000001549          1400 2IC131               2AZ
201095004201095112-116069     201095006009681820277TCS CARRIER BAG JUMBO  0000001000+00000048+00000+0001T   00000048+0000001549          1400 2IC090               2AZ
201096000201096               201096               170213OL     1400+00000+OL0000006048+0000006048+000000000+000000848+0000006896+0000000000+I40000006896+0000000000+Z
201096001201096071-001010     201096006001023893314MARKERS-METALIC 3PCE   0000001000+00003507+00000+0001T   00003507+0000001606          1400 2IC130               2AZ
201096002201096079-006494     201096006003000159864GLITTER GLUE 5PCE 11cm 0000001000+00001490+00000+0001T   00001490+0000001606          1400 2IC130               2AZ
201096003201096079-009702-G   201096008427973060787PAPER SIRIO A2 FUSHIA  0000001000+00001051+00000+0001T   00001051+0000001606          1400 2IC130               2AZ
201097000201097               201097               170213OL     1400+00000+OL0000019328+0000019328+000000000+000002708+0000022036+0000000000+I40000022036+0000000000+Z
201097001201097112-116038     201097006009681820246TCS CARRIER BAG MIDI   0000001000+00000035+00000+0001T   00000035+0000001617          1400 2IC090               2AZ
201097002201097301-085007     201097006003000673698ORN OCC. LOVE S/PLAQUE 0000001000+00007893+00000+0001T   00007893+0000001617          1400 2IC505               2AZ
201097003201097089-060027     201097006003000245871KEY-CHAIN HEART 6X6cm  0000002000+00003069+00000+0001T   00003069+0000001617          1400 2IC205               2AZ
201097004201097301-085003     201097006003000420827ORN OCCASION LOVE KEY  0000001000+00005262+00000+0001T   00005262+0000001617          1400 2IC505               2AZ
201098000201098               201098               170213OL     1400+00000+OL0000001050+0000001050+000000000+000000148+0000001198+0000000000+I40000001198+0000000000+Z
201098001201098002-021040     201098006001023812216PARTY-PICKS 100PCE     0000001000+00000525+00000+0001T   00000525+0000001619          1400 2IC300               2AZ
201098002201098903-000155     201098006009803374435SWT LOLLY I LUV U HEART0000001000+00000525+00000+0001T   00000525+0000001619          1400 2IC150               2AZ
201099000201099               201099               170213OL     1400+00000+OL0000007892+0000007892+000000000+000001106+0000008990+0000000008+I20000000000+0000008990+Z
201099001201099301-000300     201099006003000456840ORN INSPIRATIONAL CROSS0000001000+00006139+00000+0001T   00006139+0000001619          1400 2IC505               2AZ
201099002201099080-000113     201099006003000237449CARD&ENVLPE - LOVE     0000001000+00001753+00000+0001T   00001753+0000001619          1400 2IC112               2AZ
201100000201100               201100               170213OL     1400+00000+OL0000011838+0000011838+000000000+000001658+0000013496+0000000000+I40000013496+0000000000+Z
201100001201100077-000303     201100006001023593757GIFT-BAG PAPER MED     0000001000+00001578+00000+0001T   00001578+0000001622          1400 2IC112               2AZ
201100002201100368-000049     201100006003000536955PLUSH BEAR 15cm LOVE   0000001000+00004385+00000+0001T   00004385+0000001622          1400 2IC745               2AZ
201100003201100304-001011     201100006001023806727FLWR ROSE RED W/BEAR   0000001000+00000613+00000+0001T   00000788+0006471622          1400 2IC510               2AZ
201100004201100567-011325     201100009781472364609BOOK FOOD 150 PASTA    0000001000+00005262+00000+0001T   00005262+0000001622          1400 2IC757               2AZ
201101000201101               201101               170213OL     1400+00000+OL0000002453+0000002453+000000000+000000344+0000002790+0000000007+I20000000000+0000002790+Z
201101001201101018-000177     201101006001023797513MUG MINI LOVE ASSTD    0000001000+00000700+00000+0001T   00000700+0000001622          1400 2IC515               2AZ
201101002201101080-000113     201101006003000237449CARD&ENVLPE - LOVE     0000001000+00001753+00000+0001T   00001753+0000001622          1400 2IC112               2AZ
201102000201102               201102               170213OL     1400+00000+OL0000001753+0000001753+000000000+000000246+0000001999+0000000000+I40000001999+0000000000+Z
201102001201102200-000107     201102006003000638499PICNIC CUPS PAPER 250ml0000001000+00001753+00000+0001T   00001753+0000001623          1400 2IC214               2AZ
201103000201103               201103               170213OL     1400+00000+OL0000005170+0000005170+000000000+000000726+0000005896+0000000000+I40000005896+0000000000+Z
201103001201103079-009702-D   201103008427973059354PAPER SIRIO A2 RED COL 0000001000+00001051+00000+0001T   00001051+0000001625          1400 2IC130               2AZ
201103002201103366-006104     201103006003000616930DRESS UP FACE PAINT    0000001000+00001753+00000+0001T   00001753+0000001625          1400 2IC131               2AZ
201103003201103903-000848     201103008692806080076SWT SNACK BISCUIT 70g  0000001000+00000613+00000+0001T   00000613+0000001625          1400 2IC150               2AZ
201103004201103903-000617     201103006003000644261SWT HS CANDY CANE 19cm 0000001000+00001753+00000+0001T   00001753+0000001625          1400 2IC150               2AZ
201104000201104               201104               170213OL     1400+00000+OL0000021747+0000021747+000000000+000003049+0000024796+0000000000+I40000024796+0000000000+Z
201104001201104112-116069     201104006009681820277TCS CARRIER BAG JUMBO  0000001000+00000048+00000+0001T   00000048+0000001628          1400 2IC090               2AZ
201104002201104001-091415     201104006003000329113W/GLS OCC. LOVE 2PC 2800000001000+00008771+00000+0001T   00009648+0006471628          1400 2IC515               2AZ
201104003201104563-000317-G   201104006001023776341SERVIETTES BRIGHT ASSTD0000001000+00002630+00000+0001T   00002630+0000001628          1400 2IC214               2AZ
201104004201104567-013439     201104009781775785774EK KAN LEES ASSTD      0000001000+00003507+00000+0001T   00003507+0000001628          1400 2IC757               2AZ
201104005201104903-000087     201104006001704000161SWT SPECKLED-EGGS 50G  0000001000+00001139+00000+0001T   00001139+0000001628          1400 2IC150               2AZ
201104006201104077-000011-C   201104006001023808523TISSUE 10xSHTS RED     0000001000+00000876+00000+0001T   00000876+0000001628          1400 2IC112               2AZ
201104007201104039-081008     201104006008766081008CANDLES 9PCE SCENTED   0000001000+00002630+00000+0001T   00002630+0000001628          1400 2IC510               2AZ
201104008201104077-000239     201104006003000160419GIFT-RIBBON ROLL PEARL 0000001000+00001753+00000+0001T   00001753+0000001628          1400 2IC112               2AZ
201104009201104903-000183     201104006003000451043SWT LB HEART LOLLY     0000001000+00000393+00000+0001T   00000393+0000001628          1400 2IC150               2AZ
201105000201105               201105               170213OL     1400+00000+OL0000000437+0000000437+000000000+000000062+0000000490+0000000009+I20000000000+0000000490+Z
201105001201105080-000133-A   201105006003000647019MINI VALENTINES CARD   0000001000+00000437+00000+0001T   00000437+0000001629          1400 2IC112               2AZ
201106000201106               201106               170213OL     1400+00000+OL0000001753+0000001753+000000000+000000246+0000001990+0000000009+I20000000000+0000001990+Z
201106001201106078-000030     201106006003000151141YAMAYO SUPERGLUE 8g    0000001000+00001753+00000+0001T   00001753+0000001646          1400 2IC810               2AZ
201107000201107               201107               170213OL     1400+00000+OL0000002630+0000002630+000000000+000000369+0000002990+0000000009+I20000000000+0000002990+Z
201107001201107564-000011     201107006001023865892BUBBLE REFILL 350ml    0000001000+00002630+00000+0001T   00002630+0000001647          1400 2IC131               2AZ
201108000201108               201108               170213OL     1400+00000+OL0000009338+0000009338+000000000+000001310+0000010648+0000000000+I40000010648+0000000000+Z
201108001201108112-116069     201108006009681820277TCS CARRIER BAG JUMBO  0000001000+00000048+00000+0001T   00000048+0000001651          1400 2IC090               2AZ
201108002201108024-091103-C   201108006003000596546CAKE BOX 2PC HLDS-6-C/C0000001000+00001314+00000+0001T   00001753+0008121651          1400 2IC300               2AZ
201108003201108024-091103-B   201108006003000422548CAKE BOX 6PC CUPCAKES  0000001000+00002630+00000+0001T   00002630+0000001651          1400 2IC300               2AZ
201108004201108200-000104     201108006003000677412PICNIC CUPS PL 6PCE    0000001000+00002630+00000+0001T   00002630+0000001651          1400 2IC214               2AZ
201108005201108077-000150-D   201108006003000054343GIFT-WRAP CELLPHANE CLR0000001000+00000876+00000+0001T   00000876+0000001651          1400 2IC112               2AZ
201108006201108077-000151     201108006008766114676GIFT-WRAP C/PHANE ASSTD0000001000+00000876+00000+0001T   00000876+0000001651          1400 2IC112               2AZ
201108007201108903-000843     201108008693029031067SWT GUMMY JELAXY 80G   0000001000+00000964+00000+0001T   00000964+0000001651          1400 2IC150               2AZ
201109000201109               201109               170213OL     1400+00000+OL0000003069+0000003069+000000000+000000430+0000003490+0000000009+I20000000000+0000003490+Z
201109001201109106-000899     201109006003000653287WTR BOTTLE 2L W/HANDLE 0000001000+00003069+00000+0001T   00003507+0008191652          1400 2IC210               2AZ
201110000201110               201110               170213OL     1400+00000+OL0000001752+0000001752+000000000+000000246+0000001990+0000000008+I20000000000+0000001990+Z
201110001201110077-000011-C   201110006001023808523TISSUE 10xSHTS RED     0000001000+00000876+00000+0001T   00000876+0000001653          1400 2IC112               2AZ
201110002201110077-000150-D   201110006003000054343GIFT-WRAP CELLPHANE CLR0000001000+00000876+00000+0001T   00000876+0000001653          1400 2IC112               2AZ
201111000201111               201111               170213OL     1400+00000+OL0000002793+0000002793+000000000+000000393+0000003186+0000000000+I40000003186+0000000000+Z
201111001201111077-000314     201111006003000181148GIFT-BAG 11X14CM MATT  0000002000+00000876+00000+0001T   00000876+0000001656          1400 2IC112               2AZ
201111002201111304-001011     201111006001023806727FLWR ROSE RED W/BEAR   0000001000+00000613+00000+0001T   00000788+0006471656          1400 2IC510               2AZ
201111003201111903-000183     201111006003000451043SWT LB HEART LOLLY     0000001000+00000393+00000+0001T   00000393+0000001656          1400 2IC150               2AZ
201111004201111112-116038     201111006009681820246TCS CARRIER BAG MIDI   0000001000+00000035+00000+0001T   00000035+0000001656          1400 2IC090               2AZ
201112000201112               201112               170213OL     1400+00000+OL0000003156+0000003156+000000000+000000442+0000003598+0000000000+I40000003598+0000000000+Z
201112001201112077-000303     201112006001023593757GIFT-BAG PAPER MED     0000002000+00001578+00000+0001T   00001578+0000001701          1400 2IC112               2AZ
201113000201113               201113               170213OL     1400+00000+OL0000010258+0000010258+000000000+000001438+0000011690+0000000006+I20000000000+0000011690+Z
201113001201113012-000001     201113006003000331048MICRO PLATE-COVER 26X6 0000001000+00001753+00000+0001T   00002192+0008191708          1400 2IC300               2AZ
201113002201113306-000540     201113006003000165780T/BRUSH+GUM PROTECTION 0000001000+00001490+00000+0001T   00001490+0000001708          1400 2IC200               2AZ
201113003201113078-000025     201113008887013700064SUPERGLUE 3g 1PCE CARD 0000001000+00000876+00000+0001T   00000876+0000001708          1400 2IC810               2AZ
201113004201113073-000527     201113006003000594122TOILETRY BAG MENS      0000001000+00006139+00000+0001T   00006139+0000001708          1400 2IC200               2AZ
201114000201114               201114               170213OL     1400+00000+OL0000001578+0000001578+000000000+000000221+0000001790+0000000009+I20000000000+0000001790+Z
201114001201114077-000303     201114006001023593757GIFT-BAG PAPER MED     0000001000+00001578+00000+0001T   00001578+0000001709          1400 2IC112               2AZ
201115000201115               201115               170213OL     1400+00000+OL0000005963+0000005963+000000000+000000835+0000006790+0000000008+I20000000000+0000006790+Z
201115001201115073-000141     201115006003000571819COSMETIC BAG PVC ASSTD 0000001000+00004385+00000+0001T   00004385+0000001711          1400 2IC200               2AZ
201115002201115080-000124     201115006003000297733CARD & ENV VALENTINES  0000001000+00001578+00000+0001T   00001578+0000001711          1400 2IC112               2AZ
201116000201116               201116               170213OL     1400+00000+OL0000002454+0000002454+000000000+000000344+0000002790+0000000008+I20000000000+0000002790+Z
201116001201116077-000245     201116006001023759214GIFT-RIBBON METALLICx2 0000002000+00001227+00000+0001T   00001227+0000001713          1400 2IC112               2AZ
201117000201117               201117               170213OL     1400+00000+OL0000005031+0000005031+000000000+000000706+0000005730+0000000007+I20000000000+0000005730+Z
201117001201117077-000512     201117006003000590223GIFT-BAG DESIGNER LRG  0000001000+00002630+00000+0001T   00002630+0000001719          1400 2IC112               2AZ
201117002201117007-000555     201117006001023848239MEMO-PAD MINI LOVE     0000001000+00000613+00000+0001T   00000613+0000001719          1400 2IC130               2AZ
201117003201117566-001118     201117006003000682171STICKERS CELL PHONE    0000001000+00001753+00000+0001T   00001753+0000001719          1400 2IC130               2AZ
201117004201117112-116038     201117006009681820246TCS CARRIER BAG MIDI   0000001000+00000035+00000+0001T   00000035+0000001719          1400 2IC090               2AZ
201118000201118               201118               170213OL     1400+00000+OL0000009469+0000009469+000000000+000001327+0000010790+0000000006+I20000000000+0000010790+Z
201118001201118018-050000     201118006003000412679MUG OCC LOVE TWIN BEAR 0000001000+00006139+00000+0001T   00006139+0000001720          1400 2IC515               2AZ
201118002201118018-000177     201118006001023797513MUG MINI LOVE ASSTD    0000001000+00000700+00000+0001T   00000700+0000001720          1400 2IC515               2AZ
201118003201118077-000270     201118006003000395453GIFT-BAG PPR JMB 33X45 0000001000+00002630+00000+0001T   00002630+0000001720          1400 2IC112               2AZ
201119000201119               201119               170213OL     1400+00000+OL0000000437+0000000437+000000000+000000062+0000000490+0000000009+I20000000000+0000000490+Z
201119001201119080-000133     201119006003000535613CARD&ENV MINI ASTD DSGN0000001000+00000437+00000+0001T   00000437+0000001721          1400 2IC112               2AZ
201120000201120               201120               170213OL     1400+00000+OL0000009384+0000009384+000000000+000001314+0000010690+0000000008+I20000000000+0000010690+Z
201120001201120304-001011     201120006001023806727FLWR ROSE RED W/BEAR   0000001000+00000613+00000+0001T   00000788+0006471724          1400 2IC510               2AZ
201120002201120368-000614     201120006001023705808PLUSH LOVE 30cm        0000001000+00008771+00000+0001T   00008771+0000001724          1400 2IC745               2AZ
201121000201121               201121               170213OL     1400+00000+OL0000002190+0000002190+000000000+000000308+0000002498+0000000000+I40000002498+0000000000+Z
201121001201121077-000457     201121006003000285662G/BAG METALLIC JMB SOL 0000001000+00001753+00000+0001T   00001753+0000001730          1400 2IC112               2AZ
201121002201121080-000133-A   201121006003000647019MINI VALENTINES CARD   0000001000+00000437+00000+0001T   00000437+0000001730          1400 2IC112               2AZ
201122000201122               201122               170213OL     1400+00000+OL0000007016+0000007016+000000000+000000983+0000007990+0000000009+I20000000000+0000007990+Z
201122001201122041-093000     201122006003000320882B/GIFT SET 4PC B/RANGE 0000001000+00007016+00000+0001T   00007016+0000001731          1400 2IC200               2AZ
201123000201123               201123               170213OL     1400+00000+OL0000002630+0000002630+000000000+000000369+0000002990+0000000009+I20000000000+0000002990+Z
201123001201123079-000514     201123009556341898321CRAYONS WAX 24-COLOUR  0000001000+00002630+00000+0001T   00002630+0000001731          1400 2IC130               2AZ
201124000201124               201124               170213OL     1400+00000+OL0000004643+0000004643+000000000+000000653+0000005290+0000000006+I20000000000+0000005290+Z
201124001201124080-000133-A   201124006003000647019MINI VALENTINES CARD   0000002000+00000437+00000+0001T   00000437+0000001733          1400 2IC112               2AZ
201124002201124206-000530     201124006003000620821BIRTHDAY CANDLES 6PC   0000001000+00001139+00000+0001T   00001753+0008181733          1400 2IC321               2AZ
201124003201124206-000220     201124006003000631704EGG TIMER COLOUR-CHANGE0000001000+00002630+00000+0001T   00002630+0000001733          1400 2IC321               2AZ
201125000201125               201125               170213OL     1400+00000+OL0000017541+0000017541+000000000+000002457+0000019990+0000000008+I20000000000+0000019990+Z
201125001201125018-050000     201125006003000412679MUG OCC LOVE TWIN BEAR 0000001000+00006139+00000+0001T   00006139+0000001734          1400 2IC515               2AZ
201125002201125368-000637     201125006001023874092PLUSH BEAR SLEEPING LOV0000001000+00011402+00000+0001T   00012279+0006471734          1400 2IC745               2AZ
201126000201126               201126               170213OL     1400+00000+OL0000010260+0000010260+000000000+000001437+0000011697+0000000000+I40000011697+0000000000+Z
201126001201126267-000182     201126006003000390274PUZZLE 24pc ASSTD      0000002000+00004385+00000+0001T   00004385+0000001736          1400 2IC755               2AZ
201126002201126077-000327     201126006001023677686GIFT-BAG 25X32CM E/D BA0000001000+00001490+00000+0001T   00001490+0000001736          1400 2IC112               2AZ
201127000201127               201127               170213OL     1400+00000+OL0000013842+0000013842+000000000+000001944+0000015786+0000000000+I40000015786+0000000000+Z
201127001201127018-000127     201127006001023380289MUG OCC STRAIGHT LOVE  0000005000+00001578+00000+0001T   00001753+0006471742          1400 2IC515               2AZ
201127002201127018-000177     201127006001023797513MUG MINI LOVE ASSTD    0000001000+00000700+00000+0001T   00000700+0000001742          1400 2IC515               2AZ
201127003201127077-000005-B   201127006003000326617PAPER TISSUE PATTERN   0000001000+00002630+00000+0001T   00002630+0000001742          1400 2IC112               2AZ
201127004201127080-000133-A   201127006003000647019MINI VALENTINES CARD   0000002000+00000437+00000+0001T   00000437+0000001742          1400 2IC112               2AZ
201127005201127080-000133     201127006003000535613CARD&ENV MINI ASTD DSGN0000001000+00000437+00000+0001T   00000437+0000001742          1400 2IC112               2AZ
201127006201127080-000133-A   201127006003000647019MINI VALENTINES CARD   0000001000+00000437+00000+0001T   00000437+0000001742          1400 2IC112               2AZ
201127007201127080-000133     201127006003000535613CARD&ENV MINI ASTD DSGN0000002000+00000437+00000+0001T   00000437+0000001742          1400 2IC112               2AZ
201128000201128               201128               170213OL     1400+00000+OL0000004206+0000004206+000000000+000000589+0000004795+0000000000+I40000004795+0000000000+Z
201128001201128080-000124     201128006003000297733CARD & ENV VALENTINES  0000001000+00001578+00000+0001T   00001578+0000001744          1400 2IC112               2AZ
201128002201128903-000194     201128006009826020616SWT CHOC RP LOLLY 25G  0000002000+00001314+00000+0001T   00001314+0000001744          1400 2IC150               2AZ
201129000201129               201129               170213OL     1400+00000+OL0000007448+0000007448+000000000+000001043+0000008491+0000000000+I40000008491+0000000000+Z
201129001201129200-000010-A   201129006003000625079BAG ZIPPERSEAL 35PC    0000002000+00001314+00000+0001T   00001753+0008171745          1400 2IC214               2AZ
201129002201129024-091102     201129006003453000010BAKING-CUP PAPER 50PC  0000001000+00002192+00000+0001T   00002192+0000001745          1400 2IC300               2AZ
201129003201129903-000844     201129005010478432567SWT CANDY DL LUV HEARTS0000002000+00001314+00000+0001T   00001314+0000001745          1400 2IC150               2AZ
201130000201130               201130               170213OL     1400+00000+OL0000006046+0000006046+000000000+000000847+0000006893+0000000000+I40000006893+0000000000+Z
201130001201130903-000709     201130006002099007070SWT QUENCHERS FRUIT    0000001000+00001139+00000+0001T   00001139+0000001747          1400 2IC150               2AZ
201130002201130162-097718     201130006001492977188#TAG CHARM BRACELET    0000001000+00003507+00000+0001T   00003507+0000001747          1400 2IC160               2AZ
201130003201130903-000071     201130006001704001120SWT TOFFEE LIQURICE 35g0000001000+00000700+00000+0001T   00000700+0000001747          1400 2IC150               2AZ
201130004201130903-000121     201130006002099001689SWT GS ZILLIONS SOURS  0000001000+00000700+00000+0001T   00000700+0000001747          1400 2IC150               2AZ
201131000201131               201131               170213OL     1400+00000+OL0000001314+0000001314+000000000+000000184+0000001490+0000000008+I20000000000+0000001490+Z
201131001201131903-000194     201131006009826020616SWT CHOC RP LOLLY 25G  0000001000+00001314+00000+0001T   00001314+0000001747          1400 2IC150               2AZ
201132000201132               201132               170213OL     1400+00000+OL0000006174+0000006174+000000000+000000865+0000007039+0000000000+I40000007039+0000000000+Z
201132001201132018-050000     201132006003000412679MUG OCC LOVE TWIN BEAR 0000001000+00006139+00000+0001T   00006139+0000001750          1400 2IC515               2AZ
201132002201132112-116038     201132006009681820246TCS CARRIER BAG MIDI   0000001000+00000035+00000+0001T   00000035+0000001750          1400 2IC090               2AZ
201133000201133               201133               170213OL     1400+00000+OL0000001314+0000001314+000000000+000000184+0000001498+0000000000+I40000001498+0000000000+Z
201133001201133250-000300-H   201133006003000584154CYCLE REPAIR-KIT 10PCE 0000001000+00001314+00000+0001T   00001753+0008191751          1400 2IC860               2AZ
201134000201134               201134               170213OL     1400+00000+OL0000041959+0000041959+000000000+000005881+0000047840+0000000000+I40000047840+0000000000+Z
201134001201134112-116069     201134006009681820277TCS CARRIER BAG JUMBO  0000001000+00000048+00000+0001T   00000048+0000001755          1400 2IC090               2AZ
201134002201134084-000369     201134006003000594467NAIL MANICURE SET 6PCE 0000001000+00006139+00000+0001T   00006139+0000001755          1400 2IC200               2AZ
201134003201134084-000895     201134006003000576968NAIL FILES 4PC INCL    0000001000+00002630+00000+0001T   00002630+0000001755          1400 2IC200               2AZ
201134004201134020-000141     201134006001023629524STEAK-KNIVES P.P.CARD-60000001000+00004385+00000+0001T   00004385+0000001755          1400 2IC300               2AZ
201134005201134206-000390     201134006003000631438STRAW PL BUILD A STRAW 0000002000+00002630+00000+0001T   00002630+0000001755          1400 2IC321               2AZ
201134006201134077-000270     201134006003000395453GIFT-BAG PPR JMB 33X45 0000001000+00002630+00000+0001T   00002630+0000001755          1400 2IC112               2AZ
201134007201134206-000110     201134006003000628186CHOPSTICKS PLASTIC KIDS0000001000+00002630+00000+0001T   00002630+0000001755          1400 2IC321               2AZ
201134008201134033-000780     201134006001023752611COSMETIC-BRUSH-SET 7PCE0000001000+00002192+00000+0001T   00002192+0000001755          1400 2IC200               2AZ
201134009201134085-007024     201134006001023870926P/KNIFE 15-FUNCTION RED0000001000+00005262+00000+0001T   00005262+0000001755          1400 2IC305               2AZ
201134010201134089-060027     201134006003000245871KEY-CHAIN HEART 6X6cm  0000001000+00003069+00000+0001T   00003069+0000001755          1400 2IC205               2AZ
201134011201134083-000054     201134006001023729071LIGHTER REFILLABLE LED 0000002000+00001578+00000+0001T   00001578+0000001755          1400 2IC315               2AZ
201134012201134903-000499     201134006001704012492SWT CHOC MALLOWS 50g   0000002000+00001227+00000+0001T   00001227+0000001755          1400 2IC150               2AZ
201134013201134903-000095     201134006001704011495SWT SPECKLED-EGGS 100G 0000001000+00002104+00000+0001T   00002104+0000001755          1400 2IC150               2AZ
201135000201135               201135               170213OL     1400+00000+OL0000005875+0000005875+000000000+000000823+0000006690+0000000008+I20000000000+0000006690+Z
201135001201135073-000152     201135006003000683390COSMETIC BAG 18X9X5    0000001000+00001490+00000+0001T   00001490+0000001758          1400 2IC200               2AZ
201135002201135031-080508     201135006001023802415P/FRAME PL 22X11CM LOVE0000001000+00004385+00000+0001T   00004385+0000001758          1400 2IC510               2AZ
201136000201136               201136               170213OL     1400+00000+OL0000018550+0000018550+000000000+000002599+0000021149+0000000000+I40000021149+0000000000+Z
201136001201136112-116069     201136006009681820277TCS CARRIER BAG JUMBO  0000001000+00000048+00000+0001T   00000048+0000001800          1400 2IC090               2AZ
201136002201136039-809558     201136006003000344376CANDLE PILLAR 12CM 4AST0000001000+00006139+00000+0001T   00006139+0000001800          1400 2IC510               2AZ
201136003201136368-000171     201136006003000233250PLUSH BEAR 14cm        0000002000+00005262+00000+0001T   00005262+0000001800          1400 2IC745               2AZ
201136004201136304-001011     201136006001023806727FLWR ROSE RED W/BEAR   0000003000+00000613+00000+0001T   00000788+0006471800          1400 2IC510               2AZ
201137000201137               201137               170213OL     1400+00000+OL0000011402+0000011402+000000000+000001597+0000012999+0000000000+I40000012999+0000000000+Z
201137001201137368-000637     201137006001023874092PLUSH BEAR SLEEPING LOV0000001000+00011402+00000+0001T   00012279+0006471801          1400 2IC745               2AZ
201138000201138               201138               170213OL     1400+00000+OL0000001226+0000001226+000000000+000000172+0000001390+0000000008+I20000000000+0000001390+Z
201138001201138304-001011     201138006001023806727FLWR ROSE RED W/BEAR   0000002000+00000613+00000+0001T   00000788+0006471802          1400 2IC510               2AZ
M17021391                              CASH        OLSLAVE 2                       Z-REPORT No.   625TOTAL (Sales - Refunds)           5355.07       CASH TO BE BANKED                 1946.30       DEBIT CARDS                          0.00       CREDIT CARDS                      3408.77       Z-READING                         5355.07       AIRTIME DEBIT CARD SALES             0.00       AIRTIME CARD SALES                   0.00       OVERS/UNDERS                         0.00       AIRTIME CASH SALES                   0.00       GIFT CARDS                           0.00       GIFT CARD CASH SALES                 0.00       T O T A L  CASH PAYOUTS              0.00                                                                                                                                                                                                                                                                                                                                                      Z
M17021392                              CASH        OLABSENT                                                                                                                                                                                          ANNUAL LEAVE                                                                                                                                                                                    DAY OFF                                                                                                                                                                                         COMMENTS                                                                                                                                                                                                                                                                                                                                                                                       Z
Y17021300                                          OL00000000469919+000063
ZOL17021320133 SLAVE 2      SALES DATA                     NEXT INVOICE NO.  201139 0625
X OL Slave 2 First invoice 201076 170213 Last invoice 201138 170213 Next invoice 201139 Total number of records 000000237 clbackup completed 20:13:43
