105694000105694               105694               170213OM     1400+00000+OM0000003945+0000003945+000000000+000000553+0000004490+0000000008+I20000000000+0000004490+Z
105694001105694077-000240     105694006003000326259G/RIBBON 4PC PEARLIZED 0000001000+00001753+00000+0001T   00001753+0000000921          1400 KU4112               1AZ
105694002105694566-000068     105694006003000418046POP UP LOVE 2 ASSTD    0000001000+00002192+00000+0001T   00002192+0000000921          1400 KU4130               1AZ
105695000105695               105695               170213OM     1400+00000+OM0000008819+0000008819+000000000+000001235+0000010054+0000000000+I40000010054+0000000000+Z
105695001105695112-116069     105695006009681820277TCS CARRIER BAG JUMBO  0000001000+00000048+00000+0001T   00000048+0000000927          1400 KU4090               1AZ
105695002105695159-090923     105695006001023629388TOILET SOFT-SEAT SMALL 0000001000+00008771+00000+0001T   00008771+0000000927          1400 KU4200               1AZ
105696000105696               105696               170213OM     1400+00000+OM0000020423+0000020423+000000000+000002866+0000023289+0000000000+I40000023289+0000000000+Z
105696001105696206-000590     105696006003000633708BAG CLIPS LIPS 2PC     0000001000+00001753+00000+0001T   00001753+0000000931          1400 KU4321               1AZ
105696002105696206-000160     105696006003000628780CORN KERNELER          0000001000+00004385+00000+0001T   00004385+0000000931          1400 KU4321               1AZ
105696003105696002-001069     105696006003000365159KITCHEN STORAGE SALAD  0000001000+00003069+00000+0001T   00003069+0000000931          1400 KU4300               1AZ
105696004105696206-000220     105696006003000631704EGG TIMER COLOUR-CHANGE0000001000+00002630+00000+0001T   00002630+0000000931          1400 KU4321               1AZ
105696005105696018-000170     105696006001023775528MUG OCC. LOVE 2PC MINI 0000001000+00002192+00000+0001T   00002192+0000000931          1400 KU45152IC            1AZ
105696006105696089-060027     105696006003000245871KEY-CHAIN HEART 6X6cm  0000001000+00003069+00000+0001T   00003069+0000000931          1400 KU4205               1AZ
105696007105696002-000805     105696006001023575982PEELER PL Y-SHAPE 3-ASS0000001000+00001753+00000+0001T   00001753+0000000931          1400 KU4300               1AZ
105696008105696903-000183     105696006003000451043SWT LB HEART LOLLY     0000004000+00000393+00000+0001T   00000393+0000000931          1400 KU4150               1AZ
105697000105697               105697               170213OM     1400+00000+OM0000004385+0000004385+000000000+000000614+0000004999+0000000000+I40000004999+0000000000+Z
105697001105697403-000508     105697006001023691309M-BANK PIGGY W/HAMMER  0000001000+00004385+00000+0001T   00004385+0000000932          1400 KU4510               1AZ
105698000105698               105698               170213OM     1400+00000+OM0000002326+0000002326+000000000+000000327+0000002650+0000000003+I20000000000+0000002650+Z
105698001105698140-006004     105698006001023628077FLY-SWATTER RUBBER     0000002000+00001139+00000+0001T   00001139+0000000933          1400 KU4830               1AZ
105698002105698112-116069     105698006009681820277TCS CARRIER BAG JUMBO  0000001000+00000048+00000+0001T   00000048+0000000933          1400 KU4090               1AZ
105699000105699               105699               170213OM     1400+00000+OM0000016273+0000016273+000000000+000002279+0000018552+0000000000+I40000018552+0000000000+Z
105699001105699112-116069     105699006009681820277TCS CARRIER BAG JUMBO  0000001000+00000048+00000+0001T   00000048+0000000948          1400 KU4090               1AZ
105699002105699263-000145     105699006001023708298MOTORBIKE PL           0000001000+00005262+00000+0001T   00005262+0000000948          1400 KU4710               1AZ
105699003105699200-000025-A   105699006925406841054BAG ZIPPERSEAL 15PC    0000001000+00002192+00000+0001T   00002192+0000000948          1400 KU4214               1AZ
105699004105699001-091415     105699006003000329113W/GLS OCC. LOVE 2PC 2800000001000+00008771+00000+0001T   00009648+0006470948          1400 KU4515               1AZ
105700000105700               105700               170213OM     1400+00000+OM0000001314+0000001314+000000000+000000184+0000001498+0000000000+I40000001498+0000000000+Z
105700001105700055-009054     105700006001023471994CUP-HOOKS BRS 30mm H&H 0000001000+00001314+00000+0001T   00001314+0000000959          1400 KU4810               1AZ
105701000105701               105701               170213OM     1400+00000+OM0000022233+0000022233+000000000+000003115+0000025348+0000000000+I40000025348+0000000000+Z
105701001105701006-000190     105701006003000685530BALLOONS LOVE 81x91cm  0000001000+00004385+00000+0001T   00004385+0000001003          1400 KU4131               1AZ
105701002105701301-085008     105701006003000673933ORN OCC.LOVE TINSEL HRT0000001000+00003069+00000+0001T   00003069+0000001003          1400 KU4505               1AZ
105701003105701368-000113     105701006001023780874PLUSH BLINGED LOVE 30cm0000001000+00012279+00000+0001T   00012279+0000001003          1400 KU4745               1AZ
105701004105701006-001000     105701006003000093779HELIUM BALLOON FILL    0000004000+00000613+00000+0001T   00000613+0000001003          1400 KU4131               1AZ
105701005105701112-116069     105701006009681820277TCS CARRIER BAG JUMBO  0000001000+00000048+00000+0001T   00000048+0000001003          1400 KU4090               1AZ
105702000105702               105702               170213OM     1400+00000+OM0000002398+0000002398+000000000+000000341+0000002730+0000000009+I20000000000+0000002730+Z
105702001105702006-000172-H   105702006003000610211BALLOONS METALLIC RED  0000005000+00000218+00000+0001T   00000218+0000001005          1400 KU4131               1AZ
105702002105702006-000170-A   105702006003000608065BALLOONS 1PC PINK      0000003000+00000218+00000+0001T   00000218+0000001005          1400 KU4131               1AZ
105702003105702006-000172-J   105702006003000610280BALLOONS METALLIC BLACK0000003000+00000218+00000+0001T   00000218+0000001005          1400 KU4131               1AZ
105703000105703               105703               170213OM     1400+00000+OM0000002630+0000002630+000000000+000000369+0000002990+0000000009+I20000000000+0000002990+Z
105703001105703002-000016     105703006001023760173CAPPUCCINO-FROTHER B/O 0000001000+00002630+00000+0001T   00002630+0000001011          1400 KU4300               1AZ
105704000105704               105704               170213OM     1400+00000+OM0000003507+0000003507+000000000+000000491+0000003990+0000000008+I20000000000+0000003990+Z
105704001105704018-005009     105704006001023725608MUG W/PLUSH-BEAR LOVE  0000001000+00003507+00000+0001T   00003507+0000001013          1400 KU4515               1AZ
105705000105705               105705               170213OM     1400+00000+OM0000003506+0000003506+000000000+000000492+0000003998+0000000000+I40000003998+0000000000+Z
105705001105705466-000109     105705006003000612345BALL RAINBOW DESIGN    0000001000+00001753+00000+0001T   00001753+0000001017          1400 KU4785               1AZ
105705002105705566-000028     105705006003000265541STICKER BK ASSTD 250PCE0000001000+00001753+00000+0001T   00001753+0000001017          1400 KU4130               1AZ
105706000105706               105706               170213OM     1400+00000+OM0000002799-0000000000+000000000+000000000+0000002800-0000000001+I20000000000+0000002800-Z
105706001105706001-999909     105706000000000999909STAFF-REFRESHMENTS     0000001000-00002799+00000+0001X   00000000+0000001019          0000 KU49091IC            1 Z
105707000105707               105707               170213OM     1400+00000+OM0000000657+0000000657+000000000+000000092+0000000740+0000000009+I20000000000+0000000740+Z
105707001105707108-001040     105707006005387000166TUMBLER 280ml CLEAR    0000001000+00000657+00000+0001T   00000657+0000001028          1400 KU4210               1AZ
105708000105708               105708               170213OM     1400+00000+OM0000002892+0000002892+000000000+000000405+0000003290+0000000007+I20000000000+0000003290+Z
105708001105708903-000194     105708006009826020616SWT CHOC RP LOLLY 25G  0000001000+00001314+00000+0001T   00001314+0000001036          1400 KU4150               1AZ
105708002105708018-000127     105708006001023380289MUG OCC STRAIGHT LOVE  0000001000+00001578+00000+0001T   00001753+0006471036          1400 KU4515               1AZ
105709000105709               105709               170213OM     1400+00000+OM0000001490+0000001490+000000000+000000209+0000001699+0000000000+I40000001699+0000000000+Z
105709001105709077-000299     105709006003000395576G/BAG 32x25cm LRG LOVE 0000001000+00001490+00000+0001T   00001490+0000001038          1400 KU4112               1AZ
105710000105710               105710               170213OM     1400+00000+OM0000002190+0000002190+000000000+000000307+0000002497+0000000000+I40000002497+0000000000+Z
105710001105710159-000637     105710006001023735058BATH PUMICE STONE      0000001000+00000700+00000+0001T   00000700+0000001041          1400 KU4200               1AZ
105710002105710106-001100-B   105710006001023651693FRIDGE BOTTLE ASSORTED 0000001000+00001490+00000+0001T   00001490+0000001041          1400 KU4210               1AZ
105711000105711               105711               170213OM     1400+00000+OM0000000525+0000000525+000000000+000000074+0000000590+0000000009+I20000000000+0000000590+Z
105711001105711007-000145     105711006009635833087BK EXERCISE 72PG A4    0000001000+00000525+00000+0001T   00000525+0000001042          1400 KU4130               1AZ
105712000105712               105712               170213OM     1400+00000+OM0000001576+0000001576+000000000+000000221+0000001790+0000000007+I20000000000+0000001790+Z
105712001105712089-000192-A   105712006001023901774KEY-CHAIN ACRYLIC      0000001000+00000876+00000+0001T   00000876+0000001042          1400 KU4205               1AZ
105712002105712007-000166     105712006009685857316SPIRAL NOTES A6 100PG  0000001000+00000700+00000+0001T   00000700+0000001042          1400 KU4130               1AZ
105713000105713               105713               170213OM     1400+00000+OM0000001753+0000001753+000000000+000000246+0000001990+0000000009+I20000000000+0000001990+Z
105713001105713560-000107     105713006003000547906DOMESTIC 3PC MINI PETS 0000001000+00001753+00000+0001T   00001753+0000001045          1400 KU4745               1AZ
105714000105714               105714               170213OM     1400+00000+OM0000010568+0000010568+000000000+000001483+0000012051+0000000000+I40000012051+0000000000+Z
105714001105714112-116069     105714006009681820277TCS CARRIER BAG JUMBO  0000001000+00000048+00000+0001T   00000048+0000001055          1400 KU4090               1AZ
105714002105714031-005821     105714006001023667786P/FRAME-GLS CLIP 21X30 0000004000+00002630+00000+0001T   00002630+0000001055          1400 KU4510               1AZ
105715000105715               105715               170213OM     1400+00000+OM0000001753+0000001753+000000000+000000246+0000001990+0000000009+I20000000000+0000001990+Z
105715001105715071-002999-A   105715006003000611577PEN STICKBALL 10PCE ASS0000001000+00001753+00000+0001T   00001753+0000001102          1400 KU4130               1AZ
105716000105716               105716               170213OM     1400+00000+OM0000041050+0000041050+000000000+000005751+0000046801+0000000000+I40000046801+0000000000+Z
105716001105716016-006511     105716006003000673995S/JAR GLS CHALK W/LID  0000002000+00007016+00000+0001T   00007016+0000001107          1400 KU4300               1AZ
105716002105716016-006524     105716006003000579358S/JAR GLS 750ml ASSTD  0000003000+00005262+00000+0001T   00005262+0000001107          1400 KU4300               1AZ
105716003105716016-006501     105716006001023429285S/JAR GLS HERMETICO    0000001000+00005262+00000+0001T   00005262+0000001107          1400 KU4300               1AZ
105716004105716024-091103     105716006003453014307BAKING-CUP MUFFIN 50PCE0000002000+00002192+00000+0001T   00002192+0000001107          1400 KU4300               1AZ
105716005105716112-116069     105716006009681820277TCS CARRIER BAG JUMBO  0000002000+00000048+00000+0001T   00000048+0000001107          1400 KU4090               1AZ
105716006105716565-000990     105716006001023673510NOVELTY STICKY SLAPPER 0000001000+00001490+00000+0001T   00001490+0000001107          1400 KU4745               1AZ
105717000105717               105717               170213OM     1400+00000+OM0000001753+0000001753+000000000+000000246+0000001990+0000000009+I20000000000+0000001990+Z
105717001105717077-000291     105717006003000541874GIFT-BOX LOVE 12PCE    0000001000+00001753+00000+0001T   00001753+0000001110          1400 KU4112               1AZ
105718000105718               105718               170213OM     1400+00000+OM0000002630+0000002630+000000000+000000369+0000002999+0000000000+I40000002999+0000000000+Z
105718001105718056-065302     105718006001023759566CAR SUN-SHIELD ALM-FOIL0000001000+00002630+00000+0001T   00002630+0000001113          1400 KU4860               1AZ
105719000105719               105719               170213OM     1400+00000+OM0000000876+0000000876+000000000+000000123+0000000990+0000000009+I20000000000+0000000990+Z
105719001105719105-001010     105719006002580007329LUNCH-BOX 1L  ASSTD    0000001000+00000876+00000+0001T   00000876+0000001116          1400 KU4210               1AZ
105720000105720               105720               170213OM     1400+00000+OM0000013988+0000013988+000000000+000001961+0000015949+0000000000+I40000015949+0000000000+Z
105720001105720112-116069     105720006009681820277TCS CARRIER BAG JUMBO  0000001000+00000048+00000+0001T   00000048+0000001125          1400 KU4090               1AZ
105720002105720301-085003     105720006003000420827ORN OCCASION LOVE KEY  0000001000+00005262+00000+0001T   00005262+0000001125          1400 KU4505               1AZ
105720003105720563-000318-L   105720006003000407088SERVIETTES 33cm RED    0000001000+00002192+00000+0001T   00002192+0000001125          1400 KU4214               1AZ
105720004105720301-085000     105720006003000674299 ORN OCC. LOVE HEARTS  0000001000+00002192+00000+0001T   00002192+0000001125          1400 KU4505               1AZ
105720005105720080-000127     105720006003000424351VALENTINES DAY 36x24CM 0000001000+00002192+00000+0001T   00002192+0000001125          1400 KU4112               1AZ
105720006105720039-000026     105720006001023551610C/TAPERED 25CM M/RED   0000002000+00001051+00000+0001T   00001051+0000001125          1400 KU4510               1AZ
105721000105721               105721               170213OM     1400+00000+OM0000004418+0000004418+000000000+000000620+0000005030+0000000008+I20000000000+0000005030+Z
105721001105721079-013032-H   105721006003000496501GLITTER PRINCESS ACC   0000001000+00002630+00000+0001T   00002630+0000001129          1400 KU4130               1AZ
105721002105721079-013032-I   105721006003000542550ART+CRAFT DIY EVA FOAM 0000001000+00001753+00000+0001T   00001753+0000001129          1400 KU4130               1AZ
105721003105721112-116038     105721006009681820246TCS CARRIER BAG MIDI   0000001000+00000035+00000+0001T   00000035+0000001129          1400 KU4090               1AZ
105722000105722               105722               170213OM     1400+00000+OM0000001753+0000001753+000000000+000000246+0000001990+0000000009+I20000000000+0000001990+Z
105722001105722071-002999-A   105722006003000611577PEN STICKBALL 10PCE ASS0000001000+00001753+00000+0001T   00001753+0000001132          1400 KU4130               1AZ
105723000105723               105723               170213OM     1400+00000+OM0000002940+0000002940+000000000+000000412+0000003350+0000000002+I20000000000+0000003350+Z
105723001105723080-000127     105723006003000424351VALENTINES DAY 36x24CM 0000001000+00002192+00000+0001T   00002192+0000001134          1400 KU4112               1AZ
105723002105723903-000159     105723006003000417629SWT LB SMALL DUMMIE    0000002000+00000350+00000+0001T   00000350+0000001134          1400 KU4150               1AZ
105723003105723112-116069     105723006009681820277TCS CARRIER BAG JUMBO  0000001000+00000048+00000+0001T   00000048+0000001134          1400 KU4090               1AZ
105724000105724               105724               170213OM     1400+00000+OM0000004294+0000004294+000000000+000000603+0000004897+0000000000+I40000004897+0000000000+Z
105724001105724566-000359     105724006003000582709STICKER BOOK LOVE SPARK0000001000+00002192+00000+0001T   00002192+0000001136          1400 KU4130               1AZ
105724002105724079-009702-D   105724008427973059354PAPER SIRIO A2 RED COL 0000001000+00001051+00000+0001T   00001051+0000001136          1400 KU4130               1AZ
105724003105724079-009702-B   105724008427973059491PAPER SIRIO A2 WHITE   0000001000+00001051+00000+0001T   00001051+0000001136          1400 KU4130               1AZ
105725000105725               105725               170213OM     1400+00000+OM0000004385+0000004385+000000000+000000614+0000004990+0000000009+I20000000000+0000004990+Z
105725001105725027-009027     105725006003000235803BROOM FLAT 1.2m HANDLE 0000001000+00004385+00000+0001T   00004385+0000001139          1400 KU4212               1AZ
105726000105726               105726               170213OM     1400+00000+OM0000020379+0000020379+000000000+000002860+0000023239+0000000000+I40000023239+0000000000+Z
105726001105726112-116069     105726006009681820277TCS CARRIER BAG JUMBO  0000001000+00000048+00000+0001T   00000048+0000001144          1400 KU4090               1AZ
105726002105726306-007302     105726006001023730954BACK-SCRATCH+MASSAGE-WH0000001000+00001753+00000+0001T   00001753+0000001144          1400 KU4200               1AZ
105726003105726903-000510     105726006001704012621SWEET MS ZBDZ S/BERRY  0000002000+00001227+00000+0001T   00001227+0000001144          1400 KU4150               1AZ
105726004105726903-000481     105726006001704007481SWT MOO MILK-SHAKES 60G0000002000+00000876+00000+0001T   00000876+0000001144          1400 KU4150               1AZ
105726005105726903-000521     105726006001704009652SWT GUMMY SOFT GUMS    0000001000+00000876+00000+0001T   00000876+0000001144          1400 KU4150               1AZ
105726006105726903-000494     105726006001704009911SWT GUMMY TEENY TEDDIES0000001000+00000876+00000+0001T   00000876+0000001144          1400 KU4150               1AZ
105726007105726077-000315     105726006003000181186GIFT-BAG 20x28cm MATT  0000001000+00001578+00000+0001T   00001578+0000001144          1400 KU4112               1AZ
105726008105726301-085002     105726006003000420704ORN OCC. LOVE BELL ASST0000001000+00001753+00000+0001T   00002630+0008121144          1400 KU4505               1AZ
105726009105726903-000111     105726006001704006378SWT LIQUORICE-TWISTS   0000001000+00001227+00000+0001T   00001227+0000001144          1400 KU4150               1AZ
105726010105726903-000200     105726006009826020234SWT CHOC RP CHOCO 23G  0000001000+00000788+00000+0001T   00000788+0000001144          1400 KU4150               1AZ
105726011105726007-000711     105726006003000227518NOTE-BK A5 WIRE 80SHTS 0000001000+00004385+00000+0001T   00004385+0000001144          1400 KU4130               1AZ
105726012105726018-000127     105726006001023380289MUG OCC STRAIGHT LOVE  0000001000+00001578+00000+0001T   00001753+0006471144          1400 KU4515               1AZ
105726013105726083-000049     105726004891035200024CIG-LIGHTER DISPOSABLE 0000003000+00000437+00000+0001T   00000437+0000001144          1400 KU4315               1AZ
105727000105727               105727               170213OM     1400+00000+OM0000030561+0000030561+000000000+000004284+0000034845+0000000000+I40000034845+0000000000+Z
105727001105727112-116069     105727006009681820277TCS CARRIER BAG JUMBO  0000001000+00000048+00000+0001T   00000048+0000001149          1400 KU4090               1AZ
105727002105727077-000290     105727006001023902023GIFT BOX 26x32x13cm    0000001000+00001753+00000+0001T   00001753+0000001149          1400 KU4112               1AZ
105727003105727080-000133     105727006003000535613CARD&ENV MINI ASTD DSGN0000001000+00000437+00000+0001T   00000437+0000001149          1400 KU4112               1AZ
105727004105727301-085001     105727006003000297610ORN WATERBALL LOVE ASST0000001000+00004823+00000+0001T   00004823+0000001149          1400 KU4505               1AZ
105727005105727077-000348     105727006001023483287GIFT-BOWS 4,5cm 8PCE   0000001000+00001578+00000+0001T   00001578+0000001149          1400 KU4112               1AZ
105727006105727301-085004     105727006003000420469ORN LOVE PLAQUE 21X10CM0000001000+00003507+00000+0001T   00003946+0006471149          1400 KU4505               1AZ
105727007105727068-000050     105727000023063100142PEPPER SPRAY 25 BURSTS 0000001000+00012279+00000+0001T   00012279+0000001149          1400 KU4305               1AZ
105727008105727089-000004     105727006003000137749KEY CHAIN MTL CHARMS   0000001000+00001753+00000+0001T   00001753+0000001149          1400 KU4205               1AZ
105727009105727089-000145     105727006003000576616K/CHAIN LIGHT W/COMPASS0000001000+00002630+00000+0001T   00003069+0008121149          1400 KU4205               1AZ
105727010105727566-000007     105727006001023761187S/BOOK SUPER VALUE     0000001000+00001753+00000+0001T   00001753+0000001149          1400 KU4130               1AZ
105728000105728               105728               170213OM     1400+00000+OM0000001753+0000001753+000000000+000000246+0000001990+0000000009+I20000000000+0000001990+Z
105728001105728077-000309     105728006001023608604GIFT-BAG 25X32CM GLOSS 0000001000+00001753+00000+0001T   00001753+0000001150          1400 KU4112               1AZ
105729000105729               105729               170213OM     1400+00000+OM0000002192+0000002192+000000000+000000307+0000002490+0000000009+I20000000000+0000002490+Z
105729001105729080-000127     105729006003000424351VALENTINES DAY 36x24CM 0000001000+00002192+00000+0001T   00002192+0000001159          1400 KU4112               1AZ
105730000105730               105730               170213OM     1400+00000+OM0000004418+0000004418+000000000+000000620+0000005030+0000000008+I20000000000+0000005030+Z
105730001105730027-000090     105730006001023588265WINDOW-CLEANER LONG-HND0000001000+00002630+00000+0001T   00002630+0000001202          1400 KU4212               1AZ
105730002105730362-101402     105730006001023915894H/BAND SET 12PACK ASSTD0000001000+00001753+00000+0001T   00001753+0000001202          1400 KU4160               1AZ
105730003105730112-116038     105730006009681820246TCS CARRIER BAG MIDI   0000001000+00000035+00000+0001T   00000035+0000001202          1400 KU4090               1AZ
105731000105731               105731               170213OM     1400+00000+OM0000004208+0000004208+000000000+000000590+0000004790+0000000008+I20000000000+0000004790+Z
105731001105731903-000095     105731006001704011495SWT SPECKLED-EGGS 100G 0000002000+00002104+00000+0001T   00002104+0000001203          1400 KU4150               1AZ
105732000105732               105732               170213OM     1400+00000+OM0000005295+0000005295+000000000+000000742+0000006037+0000000000+I40000006037+0000000000+Z
105732001105732562-000020     105732006003000600861EDU PLAY DOUGH 60g 4PC 0000001000+00003507+00000+0001T   00003507+0000001207          1400 KU4755               1AZ
105732002105732565-000888     105732006003000607846NOVELTY MESH BALL      0000001000+00001753+00000+0001T   00001753+0000001207          1400 KU4745               1AZ
105732003105732112-116038     105732006009681820246TCS CARRIER BAG MIDI   0000001000+00000035+00000+0001T   00000035+0000001207          1400 KU4090               1AZ
105733000105733               105733               170213OM     1400+00000+OM0000000876+0000000876+000000000+000000123+0000000990+0000000009+I20000000000+0000000990+Z
105733001105733028-000797     105733006001023812124SKEWERS 15cm 100PCE    0000001000+00000876+00000+0001T   00000876+0000001209          1400 KU4305               1AZ
105734000105734               105734               170213OM     1400+00000+OM0000012452+0000012452+000000000+000001745+0000014190+0000000007+I20000000000+0000014190+Z
105734001105734077-000299     105734006003000395576G/BAG 32x25cm LRG LOVE 0000001000+00001490+00000+0001T   00001490+0000001209          1400 KU4112               1AZ
105734002105734301-085001     105734006003000297610ORN WATERBALL LOVE ASST0000001000+00004823+00000+0001T   00004823+0000001209          1400 KU4505               1AZ
105734003105734018-050000     105734006003000412679MUG OCC LOVE TWIN BEAR 0000001000+00006139+00000+0001T   00006139+0000001209          1400 KU4515               1AZ
105735000105735               105735               170213OM     1400+00000+OM0000006175+0000006175+000000000+000000868+0000007043+0000000000+I40000007043+0000000000+Z
105735001105735089-060027     105735006003000245871KEY-CHAIN HEART 6X6cm  0000001000+00003069+00000+0001T   00003069+0000001212          1400 KU4205               1AZ
105735002105735007-000555     105735006001023848239MEMO-PAD MINI LOVE     0000001000+00000613+00000+0001T   00000613+0000001212          1400 KU4130               1AZ
105735003105735903-000183     105735006003000451043SWT LB HEART LOLLY     0000003000+00000393+00000+0001T   00000393+0000001212          1400 KU4150               1AZ
105735004105735077-000407     105735006003000145096G/BAG PP 19X26X8CM     0000001000+00001314+00000+0001T   00001314+0000001212          1400 KU4112               1AZ
105736000105736               105736               170213OM     1400+00000+OM0000012449+0000012449+000000000+000001744+0000014193+0000000000+I40000014193+0000000000+Z
105736001105736018-000136     105736006001023659026MUG OCC LOVE W/PLUSH   0000001000+00003507+00000+0001T   00003507+0000001217          1400 KU4515               1AZ
105736002105736080-000127     105736006003000424351VALENTINES DAY 36x24CM 0000001000+00002192+00000+0001T   00002192+0000001217          1400 KU4112               1AZ
105736003105736077-000299     105736006003000395576G/BAG 32x25cm LRG LOVE 0000001000+00001490+00000+0001T   00001490+0000001217          1400 KU4112               1AZ
105736004105736089-000200     105736006003000485840KEY CHAIN POLY LOVE IS 0000001000+00003507+00000+0001T   00004385+0008121217          1400 KU4205               1AZ
105736005105736006-000124     105736006003000625888BALLOONS 10PC MIX COL  0000001000+00001753+00000+0001T   00001753+0000001217          1400 KU4131               1AZ
105737000105737               105737               170213OM     1400+00000+OM0000007498+0000007498+000000000+000001051+0000008549+0000000000+I40000008549+0000000000+Z
105737001105737112-116069     105737006009681820277TCS CARRIER BAG JUMBO  0000001000+00000048+00000+0001T   00000048+0000001219          1400 KU4090               1AZ
105737002105737080-000127     105737006003000424351VALENTINES DAY 36x24CM 0000001000+00002192+00000+0001T   00002192+0000001219          1400 KU4112               1AZ
105737003105737080-000134     105737006003000590988CARD & ENV GIANT BOY   0000001000+00002630+00000+0001T   00002630+0000001219          1400 KU4112               1AZ
105737004105737108-003025     105737006001023857828SIPPER TUMBLERS 3PC    0000002000+00001314+00000+0001T   00001314+0000001219          1400 KU4210               1AZ
105738000105738               105738               170213OM     1400+00000+OM0000010744+0000010744+000000000+000001505+0000012249+0000000000+I40000012249+0000000000+Z
105738001105738112-116069     105738006009681820277TCS CARRIER BAG JUMBO  0000001000+00000048+00000+0001T   00000048+0000001221          1400 KU4090               1AZ
105738002105738080-000127     105738006003000424351VALENTINES DAY 36x24CM 0000001000+00002192+00000+0001T   00002192+0000001221          1400 KU4112               1AZ
105738003105738077-000299     105738006003000395576G/BAG 32x25cm LRG LOVE 0000001000+00001490+00000+0001T   00001490+0000001221          1400 KU4112               1AZ
105738004105738089-000200     105738006003000485840KEY CHAIN POLY LOVE IS 0000001000+00003507+00000+0001T   00004385+0008121221          1400 KU4205               1AZ
105738005105738018-005009     105738006001023725608MUG W/PLUSH-BEAR LOVE  0000001000+00003507+00000+0001T   00003507+0000001221          1400 KU4515               1AZ
105739000105739               105739               170213OM     1400+00000+OM0000007189+0000007189+000000000+000001008+0000008197+0000000000+I40000008197+0000000000+Z
105739001105739106-000899     105739006003000653287WTR BOTTLE 2L W/HANDLE 0000001000+00003069+00000+0001T   00003507+0008191222          1400 KU4210               1AZ
105739002105739306-000985     105739006003000559831FIRSTAID PLASTER 10PC  0000001000+00001490+00000+0001T   00001490+0000001222          1400 KU4200               1AZ
105739003105739306-000965     105739006003000559237FIRSTAID PLASTER 30PC  0000001000+00002630+00000+0001T   00002630+0000001222          1400 KU4200               1AZ
105740000105740               105740               170213OM     1400+00000+OM0000005260+0000005260+000000000+000000737+0000005997+0000000000+I40000005997+0000000000+Z
105740001105740033-000651     105740006003000365579HAIR BRUSH 23cm ASSTD  0000001000+00003507+00000+0001T   00003507+0000001224          1400 KU4200               1AZ
105740002105740077-000906     105740006003000410804G/WRAP 700mmx1m BIRTHDA0000001000+00001753+00000+0001T   00001753+0000001224          1400 KU4112               1AZ
105741000105741               105741               170213OM     1400+00000+OM0000009195+0000009195+000000000+000001290+0000010480+0000000005+I20000000000+0000010480+Z
105741001105741112-116038     105741006009681820246TCS CARRIER BAG MIDI   0000001000+00000035+00000+0001T   00000035+0000001225          1400 KU4090               1AZ
105741002105741903-000183     105741006003000451043SWT LB HEART LOLLY     0000001000+00000393+00000+0001T   00000393+0000001225          1400 KU4150               1AZ
105741003105741085-007038     105741006001024039896P/KNIFE 8cm-BLD PL/GRIP0000001000+00002630+00000+0001T   00002630+0000001225          1400 KU4305               1AZ
105741004105741301-085004     105741006003000420469ORN LOVE PLAQUE 21X10CM0000001000+00003507+00000+0001T   00003946+0006471225          1400 KU4505               1AZ
105741005105741567-075699     105741006003000641277BK NOVEL CATEGORY A    0000001000+00002630+00000+0001T   00003069+0008191225          1400 KU4757               1AZ
105742000105742               105742               170213OM     1400+00000+OM0000004382+0000004382+000000000+000000615+0000004990+0000000007+I20000000000+0000004990+Z
105742001105742079-013032     105742006003000389209SET LETTERS 2 ASSTD    0000001000+00001753+00000+0001T   00001753+0000001226          1400 KU4130               1AZ
105742002105742077-000240     105742006003000326259G/RIBBON 4PC PEARLIZED 0000001000+00001753+00000+0001T   00001753+0000001226          1400 KU4112               1AZ
105742003105742077-000011-D   105742006001023808554TISSUE-WRAP WHITE 10PCE0000001000+00000876+00000+0001T   00000876+0000001226          1400 KU4112               1AZ
105743000105743               105743               170213OM     1400+00000+OM0000001753+0000001753+000000000+000000246+0000001990+0000000009+I20000000000+0000001990+Z
105743001105743466-000109     105743006003000612345BALL RAINBOW DESIGN    0000001000+00001753+00000+0001T   00001753+0000001228          1400 KU4785               1AZ
105744000105744               105744               170213OM     1400+00000+OM0000006311+0000006311+000000000+000000885+0000007196+0000000000+I40000007196+0000000000+Z
105744001105744080-000133-A   105744006003000647019MINI VALENTINES CARD   0000001000+00000437+00000+0001T   00000437+0000001229          1400 KU4112               1AZ
105744002105744567-004962     105744009780636049093TYB G03 ENGLISH        0000001000+00002192+00000+0001T   00002192+0000001229          1400 KU4757               1AZ
105744003105744567-004976     105744009780636049024TYB G02 MATHS          0000001000+00002192+00000+0001T   00002192+0000001229          1400 KU4757               1AZ
105744004105744077-000299     105744006003000395576G/BAG 32x25cm LRG LOVE 0000001000+00001490+00000+0001T   00001490+0000001229          1400 KU4112               1AZ
105745000105745               105745               170213OM     1400+00000+OM0000000700+0000000700+000000000+000000098+0000000798+0000000000+I40000000798+0000000000+Z
105745001105745564-000012     105745006001023130075BUBBLE BOTTLE MAGIC    0000001000+00000700+00000+0001T   00000700+0000001232          1400 KU4131               1AZ
105746000105746               105746               170213OM     1400+00000+OM0000005262+0000005262+000000000+000000737+0000005999+0000000000+I40000005999+0000000000+Z
105746001105746079-003020     105746006003000662944PAINT ACRYLIC SET TUBE 0000001000+00005262+00000+0001T   00005262+0000001234          1400 KU4130               1AZ
105747000105747               105747               170213OM     1400+00000+OM0000002630+0000002630+000000000+000000369+0000002990+0000000009+I20000000000+0000002990+Z
105747001105747027-009025     105747006003962000747DUSTPAN-SET PL         0000001000+00002630+00000+0001T   00002630+0000001235          1400 KU4212               1AZ
105748000105748               105748               170213OM     1400+00000+OM0000021790+0000021790+000000000+000003056+0000024846+0000000000+I40000024846+0000000000+Z
105748001105748112-116069     105748006009681820277TCS CARRIER BAG JUMBO  0000001000+00000048+00000+0001T   00000048+0000001247          1400 KU4090               1AZ
105748002105748206-000600     105748006003000631551TOILET PAPER SUDUKO    0000001000+00002630+00000+0001T   00002630+0000001247          1400 KU4321               1AZ
105748003105748206-000270     105748006003000632305ICE TRAY SILICONE      0000001000+00006139+00000+0001T   00006139+0000001247          1400 KU4321               1AZ
105748004105748206-000630     105748006003000631919SPECTACLE CLEANING BRUS0000001000+00001227+00000+0001T   00001227+0000001247          1400 KU4321               1AZ
105748005105748206-000620     105748006003000631797BACK SCRATCHER EXTEND  0000001000+00002630+00000+0001T   00002630+0000001247          1400 KU4321               1AZ
105748006105748089-000004     105748006003000137749KEY CHAIN MTL CHARMS   0000001000+00001753+00000+0001T   00001753+0000001247          1400 KU4205               1AZ
105748007105748080-000118     105748006003000237562CARD&ENVLPE-CONGRATS   0000001000+00001753+00000+0001T   00001753+0000001247          1400 KU4112               1AZ
105748008105748002-001700     105748006003000333707ONION-KEEPER PL        0000001000+00002192+00000+0001T   00002192+0000001247          1400 KU4300               1AZ
105748009105748903-000892     105748008693029700420SWT NOVELTY CHOCO CREAM0000001000+00000788+00000+0001T   00000788+0000001247          1400 KU4150               1AZ
105748010105748903-000599     105748006003000608119SWEET BALLOONPUMP 18cm 0000001000+00002630+00000+0001T   00002630+0000001247          1400 KU4150               1AZ
105749000105749               105749               170213OM     1400+00000+OM0000001753+0000001753+000000000+000000246+0000001990+0000000009+I20000000000+0000001990+Z
105749001105749077-000382     105749006003000247820GIFT-BAG MED 18X23CM   0000001000+00001753+00000+0001T   00001753+0000001248          1400 KU4112               1AZ
105750000105750               105750               170213OM     1400+00000+OM0000006139+0000006139+000000000+000000860+0000006999+0000000000+I40000006999+0000000000+Z
105750001105750264-000922     105750000090159250012MAISTO CAR PULL-BACK   0000001000+00006139+00000+0001T   00007016+0008191250          1400 KU47102IC            1AZ
105751000105751               105751               170213OM     1400+00000+OM0000000876+0000000876+000000000+000000123+0000000990+0000000009+I20000000000+0000000990+Z
105751001105751027-783006     105751006003000060719SCOURERS SPONGE        0000001000+00000876+00000+0001T   00000876+0000001251          1400 KU4212               1AZ
105752000105752               105752               170213OM     1400+00000+OM0000001490+0000001490+000000000+000000209+0000001699+0000000000+I40000001699+0000000000+Z
105752001105752077-000299     105752006003000395576G/BAG 32x25cm LRG LOVE 0000001000+00001490+00000+0001T   00001490+0000001252          1400 KU4112               1AZ
105753000105753               105753               170213OM     1400+00000+OM0000014783+0000014783+000000000+000002070+0000016850+0000000003+I20000000000+0000016850+Z
105753001105753018-000127     105753006001023380289MUG OCC STRAIGHT LOVE  0000001000+00001578+00000+0001T   00001753+0006471253          1400 KU4515               1AZ
105753002105753486-001001     105753006003000530854W/CLOCK QTZ 30cm ROUND 0000001000+00013157+00000+0001T   00013157+0000001253          1400 KU4510               1AZ
105753003105753112-116069     105753006009681820277TCS CARRIER BAG JUMBO  0000001000+00000048+00000+0001T   00000048+0000001253          1400 KU4090               1AZ
105754000105754               105754               170213OM     1400+00000+OM0000003104+0000003104+000000000+000000435+0000003530+0000000009+I20000000000+0000003530+Z
105754001105754106-000899     105754006003000653287WTR BOTTLE 2L W/HANDLE 0000001000+00003069+00000+0001T   00003507+0008191254          1400 KU4210               1AZ
105754002105754112-116038     105754006009681820246TCS CARRIER BAG MIDI   0000001000+00000035+00000+0001T   00000035+0000001254          1400 KU4090               1AZ
105755000105755               105755               170213OM     1400+00000+OM0000005295+0000005295+000000000+000000743+0000006038+0000000000+I40000006038+0000000000+Z
105755001105755369-001013     105755006003000500451BABY BATH VINYL DUCK   0000001000+00002630+00000+0001T   00002630+0000001256          1400 KU4745               1AZ
105755002105755565-000893     105755006003000643516NOVELTY FLASHING BALL  0000001000+00002630+00000+0001T   00002630+0000001256          1400 KU4745               1AZ
105755003105755112-116038     105755006009681820246TCS CARRIER BAG MIDI   0000001000+00000035+00000+0001T   00000035+0000001256          1400 KU4090               1AZ
105756000105756               105756               170213OM     1400+00000+OM0000003932+0000003932+000000000+000000556+0000004480+0000000008+I20000000000+0000004480+Z
105756001105756039-000319-0   105756006003000441273B/CANDLES LRG NUMBER-0 0000001000+00000876+00000+0001T   00000876+0000001258          1400 KU4510               1AZ
105756002105756039-000319-1   105756006003000442386B/CANDLES LRG NUMBER-1 0000001000+00000876+00000+0001T   00000876+0000001258          1400 KU4510               1AZ
105756003105756006-000170-F   105756006003000608669BALLOONS 1PC WHITE     0000005000+00000218+00000+0001T   00000218+0000001258          1400 KU4131               1AZ
105756004105756006-000172-H   105756006003000610211BALLOONS METALLIC RED  0000001000+00000218+00000+0001T   00000218+0000001258          1400 KU4131               1AZ
105756005105756006-000171-H   105756006003000609574BALLOONS 1PC RED PRINT 0000004000+00000218+00000+0001T   00000218+0000001258          1400 KU4131               1AZ
105757000105757               105757               170213OM     1400+00000+OM0000020521+0000020521+000000000+000002875+0000023396+0000000000+I40000023396+0000000000+Z
105757001105757112-116038     105757006009681820246TCS CARRIER BAG MIDI   0000001000+00000035+00000+0001T   00000035+0000001303          1400 KU4090               1AZ
105757002105757079-000514     105757009556341898321CRAYONS WAX 24-COLOUR  0000002000+00002630+00000+0001T   00002630+0000001303          1400 KU4130               1AZ
105757003105757564-000012     105757006001023130075BUBBLE BOTTLE MAGIC    0000020000+00000700+00000+0001T   00000700+0000001303          1400 KU4131               1AZ
105757004105757083-000055     105757006003000003853LIGHTER ELCTRNC REFILBL0000002000+00000613+00000+0001T   00000613+0000001303          1400 KU4315               1AZ
105758000105758               105758               170213OM     1400+00000+OM0000000876+0000000876+000000000+000000123+0000000990+0000000009+I20000000000+0000000990+Z
105758001105758077-000314     105758006003000181148GIFT-BAG 11X14CM MATT  0000001000+00000876+00000+0001T   00000876+0000001303          1400 KU4112               1AZ
105759000105759               105759               170213OM     1400+00000+OM0000002892+0000002892+000000000+000000406+0000003290+0000000008+I20000000000+0000003290+Z
105759001105759048-000859     105759006003000423422TORCH 9 LED PL 3XAAA   0000001000+00001753+00000+0001T   00001753+0000001308          1400 KU4305               1AZ
105759002105759046-000014     105759006001023725387BATTERIES SIZE:AAA 4PCE0000001000+00001139+00000+0001T   00001139+0000001308          1400 KU4312               1AZ
105760000105760               105760               170213OM     1400+00000+OM0000001927+0000001927+000000000+000000270+0000002190+0000000007+I20000000000+0000002190+Z
105760001105760564-000012     105760006001023130075BUBBLE BOTTLE MAGIC    0000001000+00000700+00000+0001T   00000700+0000001311          1400 KU4131               1AZ
105760002105760903-000504     105760006001704012416SWT CHOC JELLY BEANS   0000001000+00001227+00000+0001T   00001227+0000001311          1400 KU4150               1AZ
105761000105761               105761               170213OM     1400+00000+OM0000017230+0000017230+000000000+000002416+0000019646+0000000000+I40000019646+0000000000+Z
105761001105761112-116069     105761006009681820277TCS CARRIER BAG JUMBO  0000001000+00000048+00000+0001T   00000048+0000001315          1400 KU4090               1AZ
105761002105761467-000018     105761006001023746818BEACH-SET 3PCE         0000001000+00003507+00000+0001T   00003507+0000001315          1400 KU4785               1AZ
105761003105761306-000012     105761006003000366330T/BRUSH SET 4PC ORAL   0000001000+00002630+00000+0001T   00002630+0000001315          1400 KU4200               1AZ
105761004105761306-000016     105761006001023887955T/BRUSH KIDDIES W/CAP  0000001000+00000876+00000+0001T   00000876+0000001315          1400 KU4200               1AZ
105761005105761084-006995     105761006003000092802NAIL CLIPPER 8cm TOE   0000001000+00001753+00000+0001T   00001753+0000001315          1400 KU4200               1AZ
105761006105761467-004012     105761006001023705358BEACH SPADE 46cm       0000001000+00002630+00000+0001T   00002630+0000001315          1400 KU4785               1AZ
105761007105761467-000001     105761006002923008280BEACH BUCKET PL 17x16cm0000002000+00001578+00000+0001T   00001578+0000001315          1400 KU4785               1AZ
105761008105761467-000038     105761006003000654864BEACH-SET PL TRUCK 5PC 0000001000+00002630+00000+0001T   00002630+0000001315          1400 KU4785               1AZ
105762000105762               105762               170213OM     1400+00000+OM0000004820+0000004820+000000000+000000676+0000005496+0000000000+I40000005496+0000000000+Z
105762001105762039-000114     105762006001023524058CANDLE T/LITE RED 3.5CM0000002000+00001753+00000+0001T   00001753+0000001316          1400 KU4510               1AZ
105762002105762077-000310     105762006001023608635GIFT-BAG 18X23CM GLOSS 0000001000+00001314+00000+0001T   00001314+0000001316          1400 KU4112               1AZ
105763000105763               105763               170213OM     1400+00000+OM0000011620+0000011620+000000000+000001628+0000013240+0000000008+I20000000000+0000013240+Z
105763001105763077-000299     105763006003000395576G/BAG 32x25cm LRG LOVE 0000002000+00001490+00000+0001T   00001490+0000001319          1400 KU41121IC            1AZ
105763002105763018-000136     105763006001023659026MUG OCC LOVE W/PLUSH   0000002000+00003507+00000+0001T   00003507+0000001319          1400 KU4515               1AZ
105763003105763077-000303     105763006001023593757GIFT-BAG PAPER MED     0000001000+00001578+00000+0001T   00001578+0000001319          1400 KU4112               1AZ
105763004105763112-116069     105763006009681820277TCS CARRIER BAG JUMBO  0000001000+00000048+00000+0001T   00000048+0000001319          1400 KU4090               1AZ
105764000105764               105764               170213OM     1400+00000+OM0000003243+0000003243+000000000+000000455+0000003690+0000000008+I20000000000+0000003690+Z
105764001105764903-000095     105764006001704011495SWT SPECKLED-EGGS 100G 0000001000+00002104+00000+0001T   00002104+0000001320          1400 KU4150               1AZ
105764002105764162-097715     105764006001492977157#TAG NEW COLOUR E/PIERC0000001000+00001139+00000+0001T   00001139+0000001320          1400 KU4160               1AZ
105765000105765               105765               170213OM     1400+00000+OM0000001314+0000001314+000000000+000000184+0000001490+0000000008+I20000000000+0000001490+Z
105765001105765077-000407     105765006003000145096G/BAG PP 19X26X8CM     0000001000+00001314+00000+0001T   00001314+0000001321          1400 KU4112               1AZ
105766000105766               105766               170213OM     1400+00000+OM0000001753+0000001753+000000000+000000246+0000001990+0000000009+I20000000000+0000001990+Z
105766001105766903-000612     105766006003000617449SWT TRUMPET 20cm       0000001000+00001753+00000+0001T   00001753+0000001322          1400 KU4150               1AZ
105767000105767               105767               170213OM     1400+00000+OM0000004383+0000004383+000000000+000000615+0000004990+0000000008+I20000000000+0000004990+Z
105767001105767903-000590     105767006003000563494SWT TOY REVOLVER 22cm  0000001000+00002630+00000+0001T   00002630+0000001323          1400 KU4150               1AZ
105767002105767903-000612     105767006003000617449SWT TRUMPET 20cm       0000001000+00001753+00000+0001T   00001753+0000001323          1400 KU4150               1AZ
105768000105768               105768               170213OM     1400+00000+OM0000000876+0000000876+000000000+000000123+0000000990+0000000009+I20000000000+0000000990+Z
105768001105768903-000481     105768006001704007481SWT MOO MILK-SHAKES 60G0000001000+00000876+00000+0001T   00000876+0000001323          1400 KU4150               1AZ
105769000105769               105769               170213OM     1400+00000+OM0000009605+0000009605+000000000+000001346+0000010950+0000000001+I20000000000+0000010950+Z
105769001105769903-000519     105769006001704012805SWT MS LIQ-O-GHETTI    0000001000+00001227+00000+0001T   00001227+0000001325          1400 KU4150               1AZ
105769002105769301-085004     105769006003000420469ORN LOVE PLAQUE 21X10CM0000001000+00003507+00000+0001T   00003946+0006471325          1400 KU4505               1AZ
105769003105769103-000250     105769006003000571673BASKET WOVEN 29x23x6cm 0000001000+00004823+00000+0001T   00004823+0000001325          1400 KU4300               1AZ
105769004105769112-116069     105769006009681820277TCS CARRIER BAG JUMBO  0000001000+00000048+00000+0001T   00000048+0000001325          1400 KU4090               1AZ
105770000105770               105770               170213OM     1400+00000+OM0000003152+0000003152+000000000+000000444+0000003590+0000000006+I20000000000+0000003590+Z
105770001105770566-000858     105770006001023760975STCKRS G/OUTLINE ASSTD 0000004000+00000788+00000+0001T   00000788+0000001348          1400 KU4130               1AZ
105771000105771               105771               170213OM     1400+00000+OM0000005959+0000005959+000000000+000000836+0000006795+0000000000+I40000006795+0000000000+Z
105771001105771080-000100     105771006003000236114CARD & ENVELOPE BDAY   0000002000+00001753+00000+0001T   00001753+0000001354          1400 KU4112               1AZ
105771002105771566-000062     105771006001023689641S/BOOK STICKER GLITTER 0000001000+00000700+00000+0001T   00000876+0008151354          1400 KU4130               1AZ
105771003105771566-000036     105771006003000384051STICKERS MOTIVATION    0000001000+00001753+00000+0001T   00001753+0000001354          1400 KU4130               1AZ
105772000105772               105772               170213OM     1400+00000+OM0000002629+0000002629+000000000+000000369+0000002990+0000000008+I20000000000+0000002990+Z
105772001105772306-000024-A   105772006003000577309COTTON-WOOL-PADS 80PC  0000001000+00001753+00000+0001T   00001753+0000001355          1400 KU4200               1AZ
105772002105772031-000878-A   105772006001023798985P/FRAME 10x15cm PL-SLID0000001000+00000876+00000+0001T   00000876+0000001355          1400 KU4510               1AZ
105773000105773               105773               170213OM     1400+00000+OM0000013204+0000013204+000000000+000001849+0000015050+0000000003+I20000000000+0000015050+Z
105773001105773112-116069     105773006009681820277TCS CARRIER BAG JUMBO  0000001000+00000048+00000+0001T   00000048+0000001404          1400 KU4090               1AZ
105773002105773006-000190     105773006003000685530BALLOONS LOVE 81x91cm  0000001000+00004385+00000+0001T   00004385+0000001404          1400 KU4131               1AZ
105773003105773031-086302-C   105773006001023910332P/FRAME COLL. PL 3-HOLE0000001000+00008771+00000+0001T   00008771+0000001404          1400 KU4510               1AZ
105774000105774               105774               170213OM     1400+00000+OM0000006534+0000006534+000000000+000000917+0000007450+0000000001+I20000000000+0000007450+Z
105774001105774006-000800     105774006001023902801HAT CABARET 14x18cm    0000002000+00001753+00000+0001T   00001753+0000001405          1400 KU4131               1AZ
105774002105774566-000865     105774006001023788412STICKER ASSTD          0000001000+00001753+00000+0001T   00001753+0000001405          1400 KU4130               1AZ
105774003105774566-000010     105774006001023761217S/ALBUM+STICKERS ASSTD 0000001000+00001227+00000+0001T   00001227+0000001405          1400 KU4130               1AZ
105774004105774112-116069     105774006009681820277TCS CARRIER BAG JUMBO  0000001000+00000048+00000+0001T   00000048+0000001405          1400 KU4090               1AZ
105775000105775               105775               170213OM     1400+00000+OM0000006659+0000006659+000000000+000000934+0000007593+0000000000+I40000007593+0000000000+Z
105775001105775565-000002     105775006003000308071NOVELTY GROWING ANIMALS0000002000+00001753+00000+0001T   00001753+0000001407          1400 KU4745               1AZ
105775002105775261-000121     105775006001023341600GUN-CAPS 8-SHOT CARD-9 0000002000+00000700+00000+0001T   00000700+0000001407          1400 KU4710               1AZ
105775003105775261-002267     105775006001023665126GUN 8-SHOT SUPER-CAP   0000001000+00001753+00000+0001T   00001753+0000001407          1400 KU4710               1AZ
105776000105776               105776               170213OM     1400+00000+OM0000024560+0000024560+000000000+000003439+0000027999+0000000000+I40000027999+0000000000+Z
105776001105776064-000008     105776006003000310555RIDE ON J-BOARD 22x83cm0000001000+00024560+00000+0001T   00024560+0000001409          1400 KU4745               1AZ
105777000105777               105777               170213OM     1400+00000+OM0000004907+0000004907+000000000+000000687+0000005590+0000000004+I20000000000+0000005590+Z
105777001105777564-000012     105777006001023130075BUBBLE BOTTLE MAGIC    0000002000+00000700+00000+0001T   00000700+0000001411          1400 KU4131               1AZ
105777002105777018-005009     105777006001023725608MUG W/PLUSH-BEAR LOVE  0000001000+00003507+00000+0001T   00003507+0000001411          1400 KU4515               1AZ
105778000105778               105778               170213OM     1400+00000+OM0000007892+0000007892+000000000+000001105+0000008990+0000000007+I20000000000+0000008990+Z
105778001105778082-000110     105778006003000360482READING GLS STRENGHT:2 0000001000+00004385+00000+0001T   00004385+0000001412          1400 KU4160               1AZ
105778002105778082-000385     105778006001023694164SPECTACLE-CASE ASSTD   0000001000+00003507+00000+0001T   00003507+0000001412          1400 KU4160               1AZ
105779000105779               105779               170213OM     1400+00000+OM0000001139+0000001139+000000000+000000160+0000001299+0000000000+I40000001299+0000000000+Z
105779001105779903-000699     105779006002099007018SWT CANDY FRUIT CHEWS  0000001000+00001139+00000+0001T   00001139+0000001414          1400 KU4150               1AZ
105780000105780               105780               170213OM     1400+00000+OM0000005733+0000005733+000000000+000000804+0000006537+0000000000+I40000006537+0000000000+Z
105780001105780112-116038     105780006009681820246TCS CARRIER BAG MIDI   0000001000+00000035+00000+0001T   00000035+0000001417          1400 KU4090               1AZ
105780002105780036-000013     105780006001246500860LINT REMOVER REFILLS   0000001000+00003946+00000+0001T   00003946+0000001417          1400 KU4212               1AZ
105780004105780077-000011-L   105780006001023808585P/TISSUE BRIGHT 10SHEET0000001000+00000876+00000+0001T   00000876+0000001417          1400 KU4112               1AZ
105780005105780077-000011-D   105780006001023808554TISSUE-WRAP WHITE 10PCE0000001000+00000876+00000+0001T   00000876+0000001417          1400 KU4112               1AZ
105781000105781               105781               170213OM     1400+00000+OM0000011569+0000011569+000000000+000001623+0000013192+0000000000+I40000013192+0000000000+Z
105781001105781368-000049     105781006003000536955PLUSH BEAR 15cm LOVE   0000001000+00004385+00000+0001T   00004385+0000001419          1400 KU4745               1AZ
105781002105781077-000310     105781006001023608635GIFT-BAG 18X23CM GLOSS 0000001000+00001314+00000+0001T   00001314+0000001419          1400 KU4112               1AZ
105781003105781079-000512     105781006001023635853CRAYONS WAX 12-COLOUR  0000001000+00001490+00000+0001T   00001490+0000001419          1400 KU4130               1AZ
105781004105781080-000133-A   105781006003000647019MINI VALENTINES CARD   0000001000+00000437+00000+0001T   00000437+0000001419          1400 KU4112               1AZ
105781005105781567-010570     105781006002242057129BOOK READER AFR DISNEY 0000001000+00002630+00000+0001T   00002630+0000001419          1400 KU4757               1AZ
105781006105781567-014132     105781006003000560028BOOK COLOURING 24 PAGE 0000001000+00000876+00000+0001T   00000876+0000001419          1400 KU4757               1AZ
105781007105781080-000133     105781006003000535613CARD&ENV MINI ASTD DSGN0000001000+00000437+00000+0001T   00000437+0000001419          1400 KU4112               1AZ
105782000105782               105782               170213OM     1400+00000+OM0000021099+0000021099+000000000+000002955+0000024050+0000000004+I20000000000+0000024050+Z
105782001105782265-000216     105782006001023681423CAR B/O RACING-SET 36PC0000001000+00021051+00000+0001T   00021051+0000001433          1400 KU4710               1AZ
105782002105782112-116069     105782006009681820277TCS CARRIER BAG JUMBO  0000001000+00000048+00000+0001T   00000048+0000001433          1400 KU4090               1AZ
105783000105783               105783               170213OM     1400+00000+OM0000014766+0000014766+000000000+000002069+0000016830+0000000005+I20000000000+0000016830+Z
105783001105783903-000090     105783006009826020821SWT GS CHOCO COINS 60g 0000002000+00002104+00000+0001T   00002104+0000001434          1400 KU4150               1AZ
105783002105783261-008552     105783006001023832580CAP-GUN           ASSTD0000001000+00007016+00000+0001T   00007016+0000001434          1400 KU4710               1AZ
105783003105783261-000001     105783006003000656080GUN HAND POTATO SHOOTER0000001000+00003507+00000+0001T   00003507+0000001434          1400 KU4710               1AZ
105783004105783112-116038     105783006009681820246TCS CARRIER BAG MIDI   0000001000+00000035+00000+0001T   00000035+0000001434          1400 KU4090               1AZ
105784000105784               105784               170213OM     1400+00000+OM0000018457+0000018457+000000000+000002588+0000021045+0000000000+I40000021045+0000000000+Z
105784001105784112-116069     105784006009681820277TCS CARRIER BAG JUMBO  0000001000+00000048+00000+0001T   00000048+0000001436          1400 KU4090               1AZ
105784002105784051-006100     105784006003000267170GARDEN KID TOOLSET 3PCE0000001000+00002630+00000+0001T   00002630+0000001436          1400 KU4820               1AZ
105784003105784565-000888     105784006003000607846NOVELTY MESH BALL      0000001000+00001753+00000+0001T   00001753+0000001436          1400 KU4745               1AZ
105784004105784305-074102     105784006003000239788WIND-TWISTER ASST 70CM 0000002000+00001753+00000+0001T   00001753+0000001436          1400 KU4505               1AZ
105784005105784903-000082     105784006001704014892SWT MINI WINE GUMS 100G0000001000+00001753+00000+0001T   00001753+0000001436          1400 KU4150               1AZ
105784006105784079-011526     105784006003000408375GLITTER & SAND ART     0000001000+00003507+00000+0001T   00003507+0000001436          1400 KU4130               1AZ
105784007105784566-000314     105784006003000523177STCKERS ROOM DEC MIRROR0000001000+00001753+00000+0001T   00002630+0008151436          1400 KU4130               1AZ
105784008105784567-011343     105784006003000630592BK COLOURING THERAPY   0000001000+00003507+00000+0001T   00003507+0000001436          1400 KU4757               1AZ
105785000105785               105785               170213OM     1400+00000+OM0000002192+0000002192+000000000+000000307+0000002490+0000000009+I20000000000+0000002490+Z
105785001105785566-000359     105785006003000582709STICKER BOOK LOVE SPARK0000001000+00002192+00000+0001T   00002192+0000001437          1400 KU4130               1AZ
105786000105786               105786               170213OM     1400+00000+OM0000010561+0000010561+000000000+000001484+0000012045+0000000000+I40000012045+0000000000+Z
105786001105786112-116069     105786006009681820277TCS CARRIER BAG JUMBO  0000001000+00000048+00000+0001T   00000048+0000001440          1400 KU4090               1AZ
105786002105786077-000270     105786006003000395453GIFT-BAG PPR JMB 33X45 0000001000+00002630+00000+0001T   00002630+0000001440          1400 KU4112               1AZ
105786003105786018-050000     105786006003000412679MUG OCC LOVE TWIN BEAR 0000001000+00006139+00000+0001T   00006139+0000001440          1400 KU4515               1AZ
105786004105786006-000173-B   105786006003000636358BALLOONS HELIUM 1PC WHT0000004000+00000218+00000+0001T   00000218+0000001440          1400 KU4131               1AZ
105786005105786006-000173-A   105786006003000636235BALLOONS HELIUM 1PC BLK0000004000+00000218+00000+0001T   00000218+0000001440          1400 KU4131               1AZ
105787000105787               105787               170213OM     1400+00000+OM0000003507+0000003507+000000000+000000491+0000003990+0000000008+I20000000000+0000003990+Z
105787001105787263-000613     105787006003000241538CAR FLIP & SHOOT + 3CAR0000001000+00003507+00000+0001T   00003507+0000001440          1400 KU4710               1AZ
105788000105788               105788               170213OM     1400+00000+OM0000001490+0000001490+000000000+000000209+0000001690+0000000009+I20000000000+0000001690+Z
105788001105788077-000299     105788006003000395576G/BAG 32x25cm LRG LOVE 0000001000+00001490+00000+0001T   00001490+0000001440          1400 KU4112               1AZ
105789000105789               105789               170213OM     1400+00000+OM0000015816+0000015816+000000000+000002218+0000018034+0000000000+I40000018034+0000000000+Z
105789001105789112-116038     105789006009681820246TCS CARRIER BAG MIDI   0000001000+00000035+00000+0001T   00000035+0000001442          1400 KU4090               1AZ
105789002105789080-000133     105789006003000535613CARD&ENV MINI ASTD DSGN0000001000+00000437+00000+0001T   00000437+0000001442          1400 KU4112               1AZ
105789003105789080-000133-A   105789006003000647019MINI VALENTINES CARD   0000001000+00000437+00000+0001T   00000437+0000001442          1400 KU4112               1AZ
105789004105789369-001138-C   105789006003000587520BABY BATH VINYL G/MAN  0000001000+00002630+00000+0001T   00002630+0000001442          1400 KU4745               1AZ
105789005105789565-000893     105789006003000643516NOVELTY FLASHING BALL  0000001000+00002630+00000+0001T   00002630+0000001442          1400 KU4745               1AZ
105789006105789018-019000     105789006003000557288MUG OCC. LOVE JUMBO    0000001000+00005262+00000+0001T   00005262+0000001442          1400 KU4515               1AZ
105789007105789469-006610     105789006003000474479B/BLOCKS COGO CARRIAGE 0000001000+00004385+00000+0001T   00004385+0000001442          1400 KU4755               1AZ
105790000105790               105790               170213OM     1400+00000+OM0000015821+0000015821+000000000+000002216+0000018037+0000000000+I40000018037+0000000000+Z
105790001105790112-116038     105790006009681820246TCS CARRIER BAG MIDI   0000001000+00000035+00000+0001T   00000035+0000001444          1400 KU4090               1AZ
105790002105790018-019000     105790006003000557288MUG OCC. LOVE JUMBO    0000001000+00005262+00000+0001T   00005262+0000001444          1400 KU4515               1AZ
105790003105790018-017000     105790006003000541850MUG OCC. MOM JUMBO ASST0000002000+00005262+00000+0001T   00005262+0000001444          1400 KU4515               1AZ
105791000105791               105791               170213OM     1400+00000+OM0000001753+0000001753+000000000+000000246+0000001990+0000000009+I20000000000+0000001990+Z
105791001105791903-000919     105791006009802868577SWEET NOVELTY LASER POP0000001000+00001753+00000+0001T   00001753+0000001445          1400 KU4150               1AZ
105792000105792               105792               170213OM     1400+00000+OM0000017403+0000017403+000000000+000002441+0000019844+0000000000+I40000019844+0000000000+Z
105792001105792112-116069     105792006009681820277TCS CARRIER BAG JUMBO  0000001000+00000048+00000+0001T   00000048+0000001448          1400 KU4090               1AZ
105792002105792006-000120     105792006001023346889BALLOONS 10PC MIX COL  0000002000+00001753+00000+0001T   00001753+0000001448          1400 KU4131               1AZ
105792003105792039-000322     105792006001023524157B/CANDLES W/HOLDERS 24 0000001000+00001139+00000+0001T   00001139+0000001448          1400 KU4510               1AZ
105792004105792362-002445     105792006001023793270GIRL POUCH BLING W/CLIP0000001000+00003069+00000+0001T   00003069+0000001448          1400 KU4160               1AZ
105792005105792262-000020     105792006003000644780DIE CAST SINGLE CAR    0000001000+00003507+00000+0001T   00003507+0000001448          1400 KU4710               1AZ
105792006105792037-000002     105792006001023994745ASHTRAY SPIN METAL 9cm 0000001000+00003507+00000+0001T   00003507+0000001448          1400 KU4515               1AZ
105792007105792083-000049     105792004891035200024CIG-LIGHTER DISPOSABLE 0000002000+00000437+00000+0001T   00000437+0000001448          1400 KU4315               1AZ
105792008105792037-000001     105792006001023490445ASHTRAY 14cm ASSTD     0000001000+00001753+00000+0001T   00001753+0000001448          1400 KU4515               1AZ
105793000105793               105793               170213OM     1400+00000+OM0000006311+0000006311+000000000+000000885+0000007190+0000000006+I20000000000+0000007190+Z
105793001105793077-000299     105793006003000395576G/BAG 32x25cm LRG LOVE 0000001000+00001490+00000+0001T   00001490+0000001449          1400 KU4112               1AZ
105793002105793018-000127     105793006001023380289MUG OCC STRAIGHT LOVE  0000001000+00001578+00000+0001T   00001753+0006471449          1400 KU4515               1AZ
105793003105793080-000113     105793006003000237449CARD&ENVLPE - LOVE     0000001000+00001753+00000+0001T   00001753+0000001449          1400 KU4112               1AZ
105793004105793077-000299     105793006003000395576G/BAG 32x25cm LRG LOVE 0000001000+00001490+00000+0001T   00001490+0000001449          1400 KU4112               1AZ
105794000105794               105794               170213OM     1400+00000+OM0000027235+0000027235+000000000+000003816+0000031051+0000000000+I40000031051+0000000000+Z
105794001105794077-000299-A   105794006003000670888GIFT-BAG PAPER JMB LOVE0000001000+00001753+00000+0001T   00001753+0000001454          1400 KU4112               1AZ
105794002105794566-000367     105794006003000645558STICKER WINDOW DECOR   0000001000+00002630+00000+0001T   00002630+0000001454          1400 KU4130               1AZ
105794003105794368-000637     105794006001023874092PLUSH BEAR SLEEPING LOV0000002000+00011402+00000+0001T   00012279+0006471454          1400 KU4745               1AZ
105794004105794112-116069     105794006009681820277TCS CARRIER BAG JUMBO  0000001000+00000048+00000+0001T   00000048+0000001454          1400 KU4090               1AZ
105795000105795               105795               170213OM     1400+00000+OM0000001578+0000001578+000000000+000000221+0000001790+0000000009+I20000000000+0000001790+Z
105795001105795077-000323     105795006001023677563G/BAG 25X32CM E/DAY FLO0000001000+00001578+00000+0001T   00001578+0000001454          1400 KU4112               1AZ
105796000105796               105796               170213OM     1400+00000+OM0000006174+0000006174+000000000+000000865+0000007039+0000000000+I40000007039+0000000000+Z
105796001105796368-000175     105796006003000270316PLUSH BEAR 4 ASSTD 18CM0000001000+00006139+00000+0001T   00006139+0000001458          1400 KU4745               1AZ
105796002105796112-116038     105796006009681820246TCS CARRIER BAG MIDI   0000001000+00000035+00000+0001T   00000035+0000001458          1400 KU4090               1AZ
105797000105797               105797               170213OM     1400+00000+OM0000012278+0000012278+000000000+000001720+0000013990+0000000008+I20000000000+0000013990+Z
105797001105797264-000922     105797000090159250012MAISTO CAR PULL-BACK   0000002000+00006139+00000+0001T   00007016+0008191507          1400 KU4710               1AZ
105798000105798               105798               170213OM     1400+00000+OM0000000876+0000000876+000000000+000000123+0000000990+0000000009+I20000000000+0000000990+Z
105798001105798903-000483     105798006001704001410SWT LIQUOR SML SORT 60G0000001000+00000876+00000+0001T   00000876+0000001509          1400 KU4150               1AZ
105799000105799               105799               170213OM     1400+00000+OM0000003539+0000003539+000000000+000000497+0000004036+0000000000+I40000004036+0000000000+Z
105799001105799077-000407     105799006003000145096G/BAG PP 19X26X8CM     0000001000+00001314+00000+0001T   00001314+0000001511          1400 KU4112               1AZ
105799002105799080-000133-A   105799006003000647019MINI VALENTINES CARD   0000001000+00000437+00000+0001T   00000437+0000001511          1400 KU4112               1AZ
105799003105799301-085002     105799006003000420704ORN OCC. LOVE BELL ASST0000001000+00001753+00000+0001T   00002630+0008121511          1400 KU4505               1AZ
105799004105799112-116038     105799006003000534906TCS CARRIER BAG MIDI   0000001000+00000035+00000+0001T   00000035+0000001511          1400 KU4090               1AZ
105800000105800               105800               170213OM     1400+00000+OM0000008771+0000008771+000000000+000001228+0000009990+0000000009+I20000000000+0000009990+Z
105800001105800039-000799     105800006001023692382CANDLES TEALITE 100PCE 0000001000+00008771+00000+0001T   00008771+0000001511          1400 KU4510               1AZ
105801000105801               105801               170213OM     1400+00000+OM0000002630+0000002630+000000000+000000369+0000002990+0000000009+I20000000000+0000002990+Z
105801001105801251-000003     105801006003000266159TAPE D/S 18x300mm V/PCK0000001000+00002630+00000+0001T   00002630+0000001513          1400 KU4810               1AZ
105802000105802               105802               170213OM     1400+00000+OM0000003946+0000003946+000000000+000000553+0000004490+0000000009+I20000000000+0000004490+Z
105802001105802036-000013     105802006001246500860LINT REMOVER REFILLS   0000001000+00003946+00000+0001T   00003946+0000001513          1400 KU4212               1AZ
105803000105803               105803               170213OM     1400+00000+OM0000003187+0000003187+000000000+000000449+0000003630+0000000006+I20000000000+0000003630+Z
105803001105803112-116038     105803006003000534906TCS CARRIER BAG MIDI   0000001000+00000035+00000+0001T   00000035+0000001524          1400 KU4090               1AZ
105803002105803903-000200     105803006009826020234SWT CHOC RP CHOCO 23G  0000004000+00000788+00000+0001T   00000788+0000001524          1400 KU4150               1AZ
105804000105804               105804               170213OM     1400+00000+OM0000006572+0000006572+000000000+000000921+0000007493+0000000000+I40000007493+0000000000+Z
105804001105804566-000200     105804006003000384174STICKER PUFFY NEON     0000002000+00000876+00000+0001T   00000876+0000001525          1400 KU4130               1AZ
105804002105804566-000451     105804006001023788443STICKERS GLITTER ASSTD 0000002000+00001314+00000+0001T   00001753+0008151525          1400 KU4130               1AZ
105804003105804566-000352     105804006001023809261STICKERS LASER ASSTD   0000001000+00002192+00000+0001T   00002192+0000001525          1400 KU4130               1AZ
105805000105805               105805               170213OM     1400+00000+OM0000002192+0000002192+000000000+000000307+0000002490+0000000009+I20000000000+0000002490+Z
105805001105805077-000509     105805006003000082582GIFT-BAG SML 6PCE ORG P0000001000+00002192+00000+0001T   00002192+0000001526          1400 KU4112               1AZ
105806000105806               105806               170213OM     1400+00000+OM0000003553+0000003553+000000000+000000499+0000004050+0000000002+I20000000000+0000004050+Z
105806001105806112-116069     105806006009681820277TCS CARRIER BAG JUMBO  0000001000+00000048+00000+0001T   00000048+0000001528          1400 KU4090               1AZ
105806002105806903-000200     105806006009826020234SWT CHOC RP CHOCO 23G  0000001000+00000788+00000+0001T   00000788+0000001528          1400 KU4150               1AZ
105806003105806903-000155     105806006009803374435SWT LOLLY I LUV U HEART0000001000+00000525+00000+0001T   00000525+0000001528          1400 KU4150               1AZ
105806004105806080-000127     105806006003000424351VALENTINES DAY 36x24CM 0000001000+00002192+00000+0001T   00002192+0000001528          1400 KU4112               1AZ
105807000105807               105807               170213OM     1400+00000+OM0000005610+0000005610+000000000+000000787+0000006390+0000000007+I20000000000+0000006390+Z
105807001105807077-000245     105807006001023759214GIFT-RIBBON METALLICx2 0000001000+00001227+00000+0001T   00001227+0000001529          1400 KU4112               1AZ
105807002105807077-000239     105807006003000160419GIFT-RIBBON ROLL PEARL 0000001000+00001753+00000+0001T   00001753+0000001529          1400 KU4112               1AZ
105807003105807077-000349-B   105807006001023908315G/RIBBON 3ROLLS 12BOWS 0000001000+00002630+00000+0001T   00002630+0000001529          1400 KU4112               1AZ
105808000105808               105808               170213OM     1400+00000+OM0000003507+0000003507+000000000+000000491+0000003990+0000000008+I20000000000+0000003990+Z
105808001105808079-014004     105808006003000080045ART+CRAFT JEWELRY ASSTD0000001000+00003507+00000+0001T   00003507+0000001530          1400 KU4130               1AZ
105809000105809               105809               170213OM     1400+00000+OM0000006184+0000006184+000000000+000000868+0000007050+0000000002+I20000000000+0000007050+Z
105809001105809112-116069     105809006009681820277TCS CARRIER BAG JUMBO  0000001000+00000048+00000+0001T   00000048+0000001531          1400 KU4090               1AZ
105809002105809036-000063     105809006009654960436COATHANGERS VIRGIN 5PCE0000001000+00001753+00000+0001T   00001753+0000001531          1400 KU4212               1AZ
105809003105809036-005010     105809006002580008739COATHANGER KIDDIES PL  0000001000+00002630+00000+0001T   00002630+0000001531          1400 KU4212               1AZ
105809004105809002-000015     105809006003000555604CAPPUCCINO STENCILS 12P0000001000+00001753+00000+0001T   00001753+0000001531          1400 KU4300               1AZ
105810000105810               105810               170213OM     1400+00000+OM0000003191+0000003191+000000000+000000447+0000003630+0000000008+I20000000000+0000003630+Z
105810001105810018-000127     105810006001023380289MUG OCC STRAIGHT LOVE  0000002000+00001578+00000+0001T   00001753+0006471536          1400 KU4515               1AZ
105810002105810112-116038     105810006003000534906TCS CARRIER BAG MIDI   0000001000+00000035+00000+0001T   00000035+0000001536          1400 KU4090               1AZ
105811000105811               105811               170213OM     1400+00000+OM0000005308+0000005308+000000000+000000745+0000006050+0000000003+I20000000000+0000006050+Z
105811001105811112-116069     105811006009681820277TCS CARRIER BAG JUMBO  0000001000+00000048+00000+0001T   00000048+0000001539          1400 KU4090               1AZ
105811002105811027-009025     105811006003962000747DUSTPAN-SET PL         0000001000+00002630+00000+0001T   00002630+0000001539          1400 KU4212               1AZ
105811003105811466-000584     105811006001023628787SKIPPING-ROPE          0000001000+00002630+00000+0001T   00002630+0000001539          1400 KU4785               1AZ
105812000105812               105812               170213OM     1400+00000+OM0000005523+0000005523+000000000+000000774+0000006290+0000000007+I20000000000+0000006290+Z
105812001105812018-000127     105812006001023380289MUG OCC STRAIGHT LOVE  0000001000+00001578+00000+0001T   00001753+0006471540          1400 KU4515               1AZ
105812002105812077-000299-A   105812006003000670888GIFT-BAG PAPER JMB LOVE0000001000+00001753+00000+0001T   00001753+0000001540          1400 KU4112               1AZ
105812003105812080-000127     105812006003000424351VALENTINES DAY 36x24CM 0000001000+00002192+00000+0001T   00002192+0000001540          1400 KU4112               1AZ
105813000105813               105813               170213OM     1400+00000+OM0000003676+0000003676+000000000+000000517+0000004193+0000000000+I40000004193+0000000000+Z
105813001105813071-005214     105813006003000152544CELLOTAPE SUPER REFILL 0000001000+00001490+00000+0001T   00001490+0000001543          1400 KU4130               1AZ
105813002105813006-000166-B   105813006003000516254BALLOONS LRG 6PC BLUE  0000001000+00001314+00000+0001T   00001314+0000001543          1400 KU4131               1AZ
105813003105813006-000172-H   105813006003000610211BALLOONS METALLIC RED  0000004000+00000218+00000+0001T   00000218+0000001543          1400 KU4131               1AZ
105814000105814               105814               170213OM     1400+00000+OM0000001753+0000001753+000000000+000000246+0000001990+0000000009+I20000000000+0000001990+Z
105814001105814077-000299-A   105814006003000670888GIFT-BAG PAPER JMB LOVE0000001000+00001753+00000+0001T   00001753+0000001543          1400 KU4112               1AZ
105815000105815               105815               170213OM     1400+00000+OM0000002665+0000002665+000000000+000000374+0000003030+0000000009+I20000000000+0000003030+Z
105815001105815079-000282     105815006001023493309PAINT TUBS POSTER 12COL0000001000+00002630+00000+0001T   00002630+0000001545          1400 KU4130               1AZ
105815002105815112-116038     105815006003000534906TCS CARRIER BAG MIDI   0000001000+00000035+00000+0001T   00000035+0000001545          1400 KU4090               1AZ
105816000105816               105816               170213OM     1400+00000+OM0000003541+0000003541+000000000+000000497+0000004030+0000000008+I20000000000+0000004030+Z
105816001105816037-000004     105816006001023763679ASHTRAY PL TUB 8X11CM  0000001000+00001753+00000+0001T   00002192+0008191547          1400 KU4515               1AZ
105816002105816012-000001     105816006003000331048MICRO PLATE-COVER 26X6 0000001000+00001753+00000+0001T   00002192+0008191547          1400 KU4300               1AZ
105816003105816112-116038     105816006003000534906TCS CARRIER BAG MIDI   0000001000+00000035+00000+0001T   00000035+0000001547          1400 KU4090               1AZ
105817000105817               105817               170213OM     1400+00000+OM0000001227+0000001227+000000000+000000172+0000001390+0000000009+I20000000000+0000001390+Z
105817001105817071-081091     105817006001151010287STAED/GENKEM ALL-STICK 0000001000+00001227+00000+0001T   00001227+0000001548          1400 KU4130               1AZ
105818000105818               105818               170213OM     1400+00000+OM0000001753+0000001753+000000000+000000246+0000001990+0000000009+I20000000000+0000001990+Z
105818001105818077-000299-A   105818006003000670888GIFT-BAG PAPER JMB LOVE0000001000+00001753+00000+0001T   00001753+0000001551          1400 KU4112               1AZ
105819000105819               105819               170213OM     1400+00000+OM0000002103+0000002103+000000000+000000295+0000002390+0000000008+I20000000000+0000002390+Z
105819001105819033-005919     105819006003000154883SEWING THREAD 24cm ASST0000001000+00001490+00000+0001T   00001490+0000001556          1400 KU4200               1AZ
105819002105819033-005994     105819006001023789570SEWING-NEEDLES 16PCE   0000001000+00000613+00000+0001T   00000613+0000001556          1400 KU4200               1AZ
105820000105820               105820               170213OM     1400+00000+OM0000006399+0000006399+000000000+000000898+0000007297+0000000000+I40000007297+0000000000+Z
105820002105820105-001247     105820006003000623310CONTAINER RECT 3PCE    0000001000+00002630+00000+0001T   00002630+0000001601          1400 KU4210               1AZ
105820003105820027-008813     105820006001023552334DUSTER RETRCTABLE 122cm0000001000+00002630+00000+0001T   00002630+0000001601          1400 KU4212               1AZ
105820004105820903-000087     105820006001704000161SWT SPECKLED-EGGS 50G  0000001000+00001139+00000+0001T   00001139+0000001601          1400 KU4150               1AZ
105821000105821               105821               170213OM     1400+00000+OM0000002278+0000002278+000000000+000000319+0000002590+0000000007+I20000000000+0000002590+Z
105821001105821077-000303     105821006001023593757GIFT-BAG PAPER MED     0000001000+00001578+00000+0001T   00001578+0000001601          1400 KU4112               1AZ
105821002105821018-000177     105821006001023797513MUG MINI LOVE ASSTD    0000001000+00000700+00000+0001T   00000700+0000001601          1400 KU4515               1AZ
105822000105822               105822               170213OM     1400+00000+OM0000002663+0000002663+000000000+000000373+0000003030+0000000006+I20000000000+0000003030+Z
105822001105822366-000275     105822006003000276752WEDDING DRESS-UP BADGE 0000002000+00001314+00000+0001T   00001753+0008181602          1400 KU4131               1AZ
105822002105822112-116038     105822006003000534906TCS CARRIER BAG MIDI   0000001000+00000035+00000+0001T   00000035+0000001602          1400 KU4090               1AZ
105823000105823               105823               170213OM     1400+00000+OM0000006174+0000006174+000000000+000000865+0000007039+0000000000+I40000007039+0000000000+Z
105823001105823018-055100     105823006003000524136TEAPOT PL W/STRAINER   0000001000+00006139+00000+0001T   00006139+0000001604          1400 KU4515               1AZ
105823002105823112-116038     105823006003000534906TCS CARRIER BAG MIDI   0000001000+00000035+00000+0001T   00000035+0000001604          1400 KU4090               1AZ
105824000105824               105824               170213OM     1400+00000+OM0000003330+0000003330+000000000+000000467+0000003790+0000000007+I20000000000+0000003790+Z
105824001105824564-000012     105824006001023130075BUBBLE BOTTLE MAGIC    0000001000+00000700+00000+0001T   00000700+0000001604          1400 KU4131               1AZ
105824002105824104-000031     105824006003000614950BASKET PL 27x18x12cm   0000001000+00002630+00000+0001T   00002630+0000001604          1400 KU4210               1AZ
105825000105825               105825               170213OM     1400+00000+OM0000002192+0000002192+000000000+000000307+0000002490+0000000009+I20000000000+0000002490+Z
105825001105825200-000200     105825006001024034051BAKING ALUM FOIL 2PCE  0000001000+00002192+00000+0001T   00002192+0000001605          1400 KU4214               1AZ
105826000105826               105826               170213OM     1400+00000+OM0000001753+0000001753+000000000+000000246+0000001990+0000000009+I20000000000+0000001990+Z
105826001105826220-005003     105826006003000566150ELOFF TEASPOONS 4PC    0000001000+00001753+00000+0001T   00001753+0000001606          1400 KU4300               1AZ
105827000105827               105827               170213OM     1400+00000+OM0000001578+0000001578+000000000+000000221+0000001790+0000000009+I20000000000+0000001790+Z
105827001105827018-000127     105827006001023380289MUG OCC STRAIGHT LOVE  0000001000+00001578+00000+0001T   00001753+0006471610          1400 KU4515               1AZ
105828000105828               105828               170213OM     1400+00000+OM0000017587+0000017587+000000000+000002463+0000020050+0000000000+I40000020050+0000000000+Z
105828001105828112-116069     105828006009681820277TCS CARRIER BAG JUMBO  0000001000+00000048+00000+0001T   00000048+0000001628          1400 KU4090               1AZ
105828002105828368-000049     105828006003000536955PLUSH BEAR 15cm LOVE   0000003000+00004385+00000+0001T   00004385+0000001628          1400 KU4745               1AZ
105828003105828566-000359     105828006003000582709STICKER BOOK LOVE SPARK0000002000+00002192+00000+0001T   00002192+0000001628          1400 KU4130               1AZ
105829000105829               105829               170213OM     1400+00000+OM0000017391+0000017391+000000000+000002437+0000019828+0000000000+I40000019828+0000000000+Z
105829001105829112-116038     105829006003000534906TCS CARRIER BAG MIDI   0000001000+00000035+00000+0001T   00000035+0000001630          1400 KU4090               1AZ
105829002105829560-000108     105829006003000548262ANIMALS DINOSAUR+ACC   0000001000+00005262+00000+0001T   00005262+0000001630          1400 KU4745               1AZ
105829003105829089-000100     105829006003000565665K/CHAIN PET LOVERS     0000001000+00002630+00000+0001T   00002630+0000001630          1400 KU4205               1AZ
105829004105829263-000415     105829006003000600571V/TOOLS PLASTIC ASSEMBL0000001000+00003507+00000+0001T   00003507+0000001630          1400 KU4710               1AZ
105829005105829076-000017     105829006001811010022TWINE COTTON 50g-BALL  0000001000+00000876+00000+0001T   00000876+0000001630          1400 KU4810               1AZ
105829006105829046-000014     105829006001023725387BATTERIES SIZE:AAA 4PCE0000001000+00001139+00000+0001T   00001139+0000001630          1400 KU4312               1AZ
105829007105829046-000012     105829006904708013062BATTERIES AA  CARD-OF-40000003000+00001314+00000+0001T   00001314+0000001630          1400 KU4312               1AZ
105830000105830               105830               170213OM     1400+00000+OM0000028068-0000028068-000000000+000003930-0000032000-0000000002+I20000000000+0000032000-Z
105830001105830031-001000     105830006003000253210P/FRAME CERTIFICATE    0000002000-00014034+00000+0001T   00014034+0000001634          1400 KU45102IC            1 Z
105831000105831               105831               170213OM     1400+00000+OM0000003555+0000003555+000000000+000000498+0000004050+0000000003+I20000000000+0000004050+Z
105831001105831079-011526     105831006003000408375GLITTER & SAND ART     0000001000+00003507+00000+0001T   00003507+0000001635          1400 KU4130               1AZ
105831002105831112-116069     105831006009681820277TCS CARRIER BAG JUMBO  0000001000+00000048+00000+0001T   00000048+0000001635          1400 KU4090               1AZ
105832000105832               105832               170213OM     1400+00000+OM0000001753+0000001753+000000000+000000246+0000001990+0000000009+I20000000000+0000001990+Z
105832001105832077-000290     105832006001023902023GIFT BOX 26x32x13cm    0000001000+00001753+00000+0001T   00001753+0000001635          1400 KU4112               1AZ
105833000105833               105833               170213OM     1400+00000+OM0000003331+0000003331+000000000+000000467+0000003798+0000000000+I40000003798+0000000000+Z
105833001105833080-000100     105833006003000236114CARD & ENVELOPE BDAY   0000001000+00001753+00000+0001T   00001753+0000001641          1400 KU4112               1AZ
105833002105833077-000315     105833006003000181186GIFT-BAG 20x28cm MATT  0000001000+00001578+00000+0001T   00001578+0000001641          1400 KU4112               1AZ
105834000105834               105834               170213OM     1400+00000+OM0000004768+0000004768+000000000+000000669+0000005437+0000000000+I40000005437+0000000000+Z
105834001105834112-116038     105834006003000534906TCS CARRIER BAG MIDI   0000001000+00000035+00000+0001T   00000035+0000001643          1400 KU4090               1AZ
105834002105834301-085002     105834006003000420704ORN OCC. LOVE BELL ASST0000001000+00001753+00000+0001T   00002630+0008121643          1400 KU4505               1AZ
105834003105834200-003024     105834006001023657299REFUSE BAGS 20PCE BLACK0000001000+00001753+00000+0001T   00001753+0000001643          1400 KU4214               1AZ
105834004105834077-000322     105834006001023677532GIFT-BAG 18X23CM E/D FL0000001000+00001227+00000+0001T   00001227+0000001643          1400 KU4112               1AZ
105835000105835               105835               170213OM     1400+00000+OM0000016960+0000016960+000000000+000002380+0000019340+0000000000+I40000019340+0000000000+Z
105835001105835112-116069     105835006009681820277TCS CARRIER BAG JUMBO  0000001000+00000048+00000+0001T   00000048+0000001654          1400 KU4090               1AZ
105835002105835077-000452     105835006003000284986G/BAG METALLIC MED EMB 0000001000+00001490+00000+0001T   00001490+0000001654          1400 KU4112               1AZ
105835003105835565-000255     105835006003000585168NOVELTY GLOW SLIME     0000001000+00002455+00000+0001T   00002455+0000001654          1400 KU4745               1AZ
105835004105835565-000735     105835006003000615674NOVELTY PUTTY BOUNCING 0000002000+00000700+00000+0001T   00000700+0000001654          1400 KU4745               1AZ
105835005105835565-000017     105835006003000672516NOVELTY TONGUE SLING   0000001000+00001753+00000+0001T   00001753+0000001654          1400 KU4745               1AZ
105835006105835565-000888     105835006003000607846NOVELTY MESH BALL      0000001000+00001753+00000+0001T   00001753+0000001654          1400 KU4745               1AZ
105835007105835200-000308     105835006003000577477FOOD TIES SILICONE 3PCE0000001000+00002192+00000+0001T   00002192+0000001654          1400 KU4214               1AZ
105835008105835036-000610     105835006001023627230WASHING-PEGS PL PACK-240000001000+00001753+00000+0001T   00001753+0000001654          1400 KU4212               1AZ
105835009105835077-000311     105835006001023608666GIFT-BAG 11X14CM GLOSS 0000001000+00000613+00000+0001T   00000613+0000001654          1400 KU4112               1AZ
105835010105835080-000133     105835006003000535613CARD&ENV MINI ASTD DSGN0000002000+00000437+00000+0001T   00000437+0000001654          1400 KU4112               1AZ
105835011105835071-001346     105835006001023912985HIGHLIGHTERS 4PCE CARD 0000001000+00002192+00000+0001T   00002192+0000001654          1400 KU4130               1AZ
105835012105835007-000203     105835006009685850409FILE DISPLAY FLDR ASSTD0000001000+00000437+00000+0001T   00000437+0000001654          1400 KU4130               1AZ
105836000105836               105836               170213OM     1400+00000+OM0000016870+0000016870+000000000+000002366+0000019230+0000000006+I20000000000+0000019230+Z
105836001105836112-116069     105836006009681820277TCS CARRIER BAG JUMBO  0000001000+00000048+00000+0001T   00000048+0000001657          1400 KU4090               1AZ
105836002105836080-000127     105836006003000424351VALENTINES DAY 36x24CM 0000001000+00002192+00000+0001T   00002192+0000001657          1400 KU4112               1AZ
105836003105836903-000126     105836006002099003591SWT ZILLIONS MINT 50G  0000001000+00000700+00000+0001T   00000700+0000001657          1400 KU4150               1AZ
105836004105836903-004961     105836008410525221866SWT GUMMY FINI WILD 50g0000001000+00000964+00000+0001T   00000964+0000001657          1400 KU4150               1AZ
105836005105836903-004952     105836006002580020052SWT FREAKY FACES 100G  0000001000+00001314+00000+0001T   00001314+0000001657          1400 KU4150               1AZ
105836006105836077-000270     105836006003000395453GIFT-BAG PPR JMB 33X45 0000001000+00002630+00000+0001T   00002630+0000001657          1400 KU4112               1AZ
105836007105836903-000006     105836006923431571571SWEET GS SOUR BELT 50g 0000001000+00000876+00000+0001T   00000876+0000001657          1400 KU4150               1AZ
105836008105836903-000844     105836005010478432567SWT CANDY DL LUV HEARTS0000001000+00001314+00000+0001T   00001314+0000001657          1400 KU4150               1AZ
105836009105836903-000624     105836006003000671793SWEET LOLLY BLU/BRRY   0000001000+00001753+00000+0001T   00001753+0000001657          1400 KU4150               1AZ
105836010105836089-000098     105836006003000677443KEY CHAIN OPENER ASSTD 0000001000+00001314+00000+0001T   00001314+0000001657          1400 KU4205               1AZ
105836011105836903-000810     105836006009680772249SWT FROOTEEZ SOUR 50g  0000001000+00000876+00000+0001T   00000876+0000001657          1400 KU4150               1AZ
105836012105836903-000295     105836006001704002899SWT MS FRUITY RASCALS  0000001000+00000876+00000+0001T   00000876+0000001657          1400 KU4150               1AZ
105836013105836903-000070     105836006001704001106SWT TOFFEE CREAMY 35g  0000001000+00000700+00000+0001T   00000700+0000001657          1400 KU4150               1AZ
105836014105836903-000155     105836006009803374435SWT LOLLY I LUV U HEART0000001000+00000525+00000+0001T   00000525+0000001657          1400 KU4150               1AZ
105836015105836903-000200     105836006009826020234SWT CHOC RP CHOCO 23G  0000001000+00000788+00000+0001T   00000788+0000001657          1400 KU4150               1AZ
105837000105837               105837               170213OM     1400+00000+OM0000002630+0000002630+000000000+000000369+0000002999+0000000000+I40000002999+0000000000+Z
105837001105837077-000349-B   105837006001023908315G/RIBBON 3ROLLS 12BOWS 0000001000+00002630+00000+0001T   00002630+0000001659          1400 KU4112               1AZ
105838000105838               105838               170213OM     1400+00000+OM0000002630+0000002630+000000000+000000369+0000002990+0000000009+I20000000000+0000002990+Z
105838001105838306-000008     105838006001023991553TOOTH BRUSH ADULT W/CAP0000001000+00002630+00000+0001T   00002630+0000001659          1400 KU4200               1AZ
105839000105839               105839               170213OM     1400+00000+OM0000004385+0000004385+000000000+000000614+0000004990+0000000009+I20000000000+0000004990+Z
105839002105839104-000030     105839006001023803481BASKET PL 28x20x12cm   0000001000+00004385+00000+0001T   00004385+0000001701          1400 KU4210               1AZ
105840000105840               105840               170213OM     1400+00000+OM0000004996+0000004996+000000000+000000701+0000005690+0000000007+I20000000000+0000005690+Z
105840001105840079-013101     105840006001023863706CRAFT SET DIY PIPE-CLNR0000001000+00002630+00000+0001T   00002630+0000001719          1400 KU4130               1AZ
105840002105840077-000245     105840006001023759214GIFT-RIBBON METALLICx2 0000001000+00001227+00000+0001T   00001227+0000001719          1400 KU4112               1AZ
105840003105840162-097715     105840006001492977157#TAG NEW COLOUR E/PIERC0000001000+00001139+00000+0001T   00001139+0000001719          1400 KU4160               1AZ
105841000105841               105841               170213OM     1400+00000+OM0000005822+0000005822+000000000+000000816+0000006630+0000000008+I20000000000+0000006630+Z
105841001105841369-001032     105841006001023796158BABY RATTLE SET 6PCE   0000001000+00004385+00000+0001T   00004385+0000001721          1400 KU4745               1AZ
105841002105841105-001005     105841006001023858214CONTAINERS MINI 6PCE   0000001000+00001402+00000+0001T   00001402+0000001721          1400 KU4210               1AZ
105841003105841112-116038     105841006003000534906TCS CARRIER BAG MIDI   0000001000+00000035+00000+0001T   00000035+0000001721          1400 KU4090               1AZ
105842000105842               105842               170213OM     1400+00000+OM0000008102+0000008102+000000000+000001140+0000009240+0000000002+I20000000000+0000009240+Z
105842001105842077-000011-D   105842006001023808554TISSUE-WRAP WHITE 10PCE0000001000+00000876+00000+0001T   00000876+0000001724          1400 KU4112               1AZ
105842002105842077-000010-U   105842006001023168863CREPE-PAPER CERISE-PINK0000001000+00000788+00000+0001T   00000788+0000001724          1400 KU4112               1AZ
105842003105842077-000382     105842006003000247820GIFT-BAG MED 18X23CM   0000003000+00001753+00000+0001T   00001753+0000001724          1400 KU4112               1AZ
105842004105842903-000183     105842006003000451043SWT LB HEART LOLLY     0000003000+00000393+00000+0001T   00000393+0000001724          1400 KU4150               1AZ
105843000105843               105843               170213OM     1400+00000+OM0000014080+0000014080+000000000+000001973+0000016053+0000000000+I40000016053+0000000000+Z
105843001105843112-116069     105843006009681820277TCS CARRIER BAG JUMBO  0000001000+00000048+00000+0001T   00000048+0000001731          1400 KU4090               1AZ
105843002105843077-000299-A   105843006003000670888GIFT-BAG PAPER JMB LOVE0000001000+00001753+00000+0001T   00001753+0000001731          1400 KU4112               1AZ
105843003105843368-000113     105843006001023780874PLUSH BLINGED LOVE 30cm0000001000+00012279+00000+0001T   00012279+0000001731          1400 KU4745               1AZ
105844000105844               105844               170213OM     1400+00000+OM0000010645+0000010645+000000000+000001495+0000012140+0000000000+I40000012140+0000000000+Z
105844001105844903-000709     105844006002099007070SWT QUENCHERS FRUIT    0000001000+00001139+00000+0001T   00001139+0000001733          1400 KU4150               1AZ
105844002105844903-000671     105844006009803358015SWT SHERBET BLUE LIPS  0000003000+00000218+00000+0001T   00000218+0000001733          1400 KU4150               1AZ
105844003105844903-000670     105844006009803358008SWT SHERBET RED LIPS   0000002000+00000218+00000+0001T   00000218+0000001733          1400 KU4150               1AZ
105844004105844903-000862     105844005010478533912SWT DOUBLE DIP 19G     0000002000+00001139+00000+0001T   00001139+0000001733          1400 KU4150               1AZ
105844005105844103-000460     105844006003000630240BAMBOO FLOWER BASKET   0000001000+00004385+00000+0001T   00004385+0000001733          1400 KU4300               1AZ
105844006105844903-000211     105844006002099001238SWT GS MALLOW ICE CREAM0000001000+00001753+00000+0001T   00001753+0000001733          1400 KU4150               1AZ
105845000105845               105845               170213OM     1400+00000+OM0000007016+0000007016+000000000+000000983+0000007999+0000000000+I40000007999+0000000000+Z
105845001105845065-003639     105845006001023787620GUITAR ROCKER          0000001000+00007016+00000+0001T   00007016+0000001735          1400 KU4745               1AZ
105846000105846               105846               170213OM     1400+00000+OM0000001753+0000001753+000000000+000000246+0000001990+0000000009+I20000000000+0000001990+Z
105846001105846077-000900     105846006003000410446G/WRAP 700mmx1m ANIMAL 0000001000+00001753+00000+0001T   00001753+0000001735          1400 KU4112               1AZ
105847000105847               105847               170213OM     1400+00000+OM0000028943+0000028943+000000000+000004053+0000032996+0000000000+I40000032996+0000000000+Z
105847001105847251-000003     105847006003000266159TAPE D/S 18x300mm V/PCK0000001000+00002630+00000+0001T   00002630+0000001737          1400 KU4810               1AZ
105847002105847040-001011-A   105847006003000698370LANTERN PLASTIC W/LIGHT0000003000+00008771+00000+0001T   00008771+0000001737          1400 KU4510               1AZ
105848000105848               105848               170213OM     1400+00000+OM0000001314+0000001314+000000000+000000184+0000001490+0000000008+I20000000000+0000001490+Z
105848001105848046-000012     105848006904708013062BATTERIES AA  CARD-OF-40000001000+00001314+00000+0001T   00001314+0000001738          1400 KU4312               1AZ
105849000105849               105849               170213OM     1400+00000+OM0000005994+0000005994+000000000+000000841+0000006835+0000000000+I40000006835+0000000000+Z
105849001105849080-000133-A   105849006003000647019MINI VALENTINES CARD   0000001000+00000437+00000+0001T   00000437+0000001740          1400 KU4112               1AZ
105849002105849080-000133     105849006003000535613CARD&ENV MINI ASTD DSGN0000001000+00000437+00000+0001T   00000437+0000001740          1400 KU4112               1AZ
105849003105849018-000136     105849006001023659026MUG OCC LOVE W/PLUSH   0000001000+00003507+00000+0001T   00003507+0000001740          1400 KU4515               1AZ
105849004105849077-000303     105849006001023593757GIFT-BAG PAPER MED     0000001000+00001578+00000+0001T   00001578+0000001740          1400 KU4112               1AZ
105849005105849112-116038     105849006009681820246TCS CARRIER BAG MIDI   0000001000+00000035+00000+0001T   00000035+0000001740          1400 KU4090               1AZ
105850000105850               105850               170213OM     1400+00000+OM0000017539+0000017539+000000000+000002456+0000019995+0000000000+I40000019995+0000000000+Z
105850001105850077-000932     105850006003000409808G/WRAP 700mmx5m PATTERN0000001000+00003507+00000+0001T   00003507+0000001745          1400 KU4112               1AZ
105850002105850039-000500     105850006001023816450C/VOTIVE 8PC RAINBOW   0000001000+00005262+00000+0001T   00005262+0000001745          1400 KU4510               1AZ
105850003105850039-080944     105850006001023758897C/PILLAR RND WHT 12X7CM0000002000+00004385+00000+0001T   00004385+0000001745          1400 KU4510               1AZ
105851000105851               105851               170213OM     1400+00000+OM0000012304+0000012304+000000000+000001727+0000014031+0000000000+I40000014031+0000000000+Z
105851001105851112-116038     105851006003000534906TCS CARRIER BAG MIDI   0000001000+00000035+00000+0001T   00000035+0000001748          1400 KU4090               1AZ
105851002105851251-000001     105851006001023487681TAPE DBL-SIDE 18x1000mm0000001000+00001314+00000+0001T   00001314+0000001748          1400 KU4810               1AZ
105851003105851251-000030     105851006001023515803MASKING-TAPE 18mmx40m  0000001000+00001139+00000+0001T   00001139+0000001748          1400 KU4810               1AZ
