305828000305828               305828               170213OM     1400+00000+OM0000001753+0000001753+000000000+000000246+0000001990+0000000009+I20000000000+0000001990+Z
305828001305828080-000120     305828006003000236473CARD & ENVELOPE WEDDING0000001000+00001753+00000+0001T   00001753+0000001005          1400 MK7112               3AZ
305829000305829               305829               170213OM     1400+00000+OM0000015831+0000015831+000000000+000002218+0000018040+0000000009+I20000000000+0000018040+Z
305829001305829105-006949     305829006003000665839CONTAINER STORER 5L    0000003000+00003069+00000+0001T   00003069+0000001315          1400 MK7210               3AZ
305829002305829112-116069     305829006009681820277TCS CARRIER BAG JUMBO  0000001000+00000048+00000+0001T   00000048+0000001315          1400 MK7090               3AZ
305829003305829105-001250     305829006003000572991CONTAINER FROSTED 2000m0000001000+00003507+00000+0001T   00003507+0000001315          1400 MK7210               3AZ
305829004305829105-001185     305829006003000666645CONTAINER SET LITE 2PC 0000001000+00003069+00000+0001T   00003069+0000001315          1400 MK7210               3AZ
305830000305830               305830               170213OM     1400+00000+OM0000002762+0000002762+000000000+000000388+0000003150+0000000000+I20000000000+0000003150+Z
305830001305830079-009700-D   305830006003000545711PAPER SIRIO A4 RED COL.0000002000+00000306+00000+0001T   00000306+0000001328          1400 MK7130               3AZ
305830002305830079-009700-A   305830006003000547746PAPER SIRIO A4 BLACK   0000002000+00000306+00000+0001T   00000306+0000001328          1400 MK7130               3AZ
305830003305830077-000299     305830006003000395576G/BAG 32x25cm LRG LOVE 0000001000+00001490+00000+0001T   00001490+0000001328          1400 MK7112               3AZ
305830004305830112-116069     305830006009681820277TCS CARRIER BAG JUMBO  0000001000+00000048+00000+0001T   00000048+0000001328          1400 MK7090               3AZ
305831000305831               305831               170213OM     1400+00000+OM0000009207+0000009207+000000000+000001290+0000010497+0000000000+I40000010497+0000000000+Z
305831001305831077-000382     305831006003000247820GIFT-BAG MED 18X23CM   0000001000+00001753+00000+0001T   00001753+0000001331          1400 MK7112               3AZ
305831002305831030-000031-A   305831006003000457588PLAQUE W/WORDS ASSTD   0000001000+00004385+00000+0001T   00004823+0006471331          1400 MK7505               3AZ
305831003305831031-000921     305831006001023667755P/FRAME COLLAGE 4-HOLE 0000001000+00003069+00000+0001T   00003069+0000001331          1400 MK7510               3AZ
305832000305832               305832               170213OM     1400+00000+OM0000004821+0000004821+000000000+000000676+0000005497+0000000000+I40000005497+0000000000+Z
305832001305832024-000042     305832006002580009255M/CUP MINI 30ML H/HOUSE0000001000+00002192+00000+0001T   00002192+0000001335          1400 MK7300               3AZ
305832002305832084-070005     305832006001023627902NAIL FILES 6PCE H/GLOW 0000001000+00000876+00000+0001T   00000876+0000001335          1400 MK7200               3AZ
305832003305832133-000062     305832006001023822086FACE-CLOTH PLAIN ASSTD 0000001000+00001753+00000+0001T   00001753+0000001335          1400 MK7212               3AZ
305833000305833               305833               170213OM     1400+00000+OM0000014073+0000014073+000000000+000001974+0000016047+0000000000+I40000016047+0000000000+Z
305833001305833006-006013     305833006001023735195PARTY-SPRAY STRING     0000001000+00002630+00000+0001T   00002630+0000001342          1400 MK7131               3AZ
305833002305833369-001138-D   305833006003000097623BABY BATH VINYL THEMED 0000001000+00002630+00000+0001T   00002630+0000001342          1400 MK7745               3AZ
305833003305833366-002809     305833006003000222643DRESS UP MOUSTACHE SET 0000001000+00001753+00000+0001T   00001753+0000001342          1400 MK7131               3AZ
305833004305833366-002802     305833006003000520077DRESS UP EYEBROW SET   0000001000+00002192+00000+0001T   00002192+0000001342          1400 MK7131               3AZ
305833005305833006-000324     305833006001023818393PARTY POPPER`S PCK-OF-60000001000+00001753+00000+0001T   00001753+0000001342          1400 MK7131               3AZ
305833006305833036-000410     305833006003000614790WASHING PEGS PL WITH   0000001000+00001314+00000+0001T   00001753+0008161342          1400 MK7212               3AZ
305833007305833466-008889     305833006001023835376WHISTLE SPORTS+STRING  0000001000+00001753+00000+0001T   00001753+0000001342          1400 MK7785               3AZ
305833008305833112-116069     305833006009681820277TCS CARRIER BAG JUMBO  0000001000+00000048+00000+0001T   00000048+0000001342          1400 MK7090               3AZ
305834000305834               305834               170213OM     1400+00000+OM0000008771+0000008771+000000000+000001228+0000009999+0000000000+I40000009999+0000000000+Z
305834001305834368-000099     305834006001023680259PLUSH DOG 23cm ASSTD   0000001000+00008771+00000+0001T   00008771+0000001345          1400 MK7745               3AZ
305835000305835               305835               170213OM     1400+00000+OM0000004433+0000004433+000000000+000000621+0000005054+0000000000+I40000005054+0000000000+Z
305835001305835108-000500     305835006003000667161TUMBLER DOUBLE WALL    0000001000+00004385+00000+0001T   00004385+0000001349          1400 MK7210               3AZ
305835002305835112-116069     305835006009681820277TCS CARRIER BAG JUMBO  0000001000+00000048+00000+0001T   00000048+0000001349          1400 MK7090               3AZ
305836000305836               305836               170213OM     1400+00000+OM0000001927+0000001927+000000000+000000270+0000002190+0000000007+I20000000000+0000002190+Z
305836001305836046-000012     305836006904708013062BATTERIES AA  CARD-OF-40000001000+00001314+00000+0001T   00001314+0000001408          1400 MK7312               3AZ
305836002305836047-000001-BB  305836006001023723536INS-TAPE BLACK 18mmx10m0000001000+00000613+00000+0001T   00000613+0000001408          1400 MK7880               3AZ
305837000305837               305837               170213OM     1400+00000+OM0000001269+0000001269+000000000+000000179+0000001440+0000000008+I20000000000+0000001440+Z
305837001305837077-000151     305837006008766114676GIFT-WRAP C/PHANE ASSTD0000001000+00000876+00000+0001T   00000876+0000001416          1400 MK7112               3AZ
305837002305837903-000183     305837006003000451043SWT LB HEART LOLLY     0000001000+00000393+00000+0001T   00000393+0000001416          1400 MK7150               3AZ
305838000305838               305838               170213OM     1400+00000+OM0000002629+0000002629+000000000+000000369+0000002998+0000000000+I40000002998+0000000000+Z
305838001305838362-002464     305838006003000167388HAIR EXT 30cm 6PCS COL 0000001000+00001753+00000+0001T   00001753+0000001417          1400 MK7160               3AZ
305838002305838077-000314     305838006003000181148GIFT-BAG 11X14CM MATT  0000001000+00000876+00000+0001T   00000876+0000001417          1400 MK7112               3AZ
305839000305839               305839               170213OM     1400+00000+OM0000000876+0000000876+000000000+000000123+0000000990+0000000009+I20000000000+0000000990+Z
305839001305839077-000314     305839006003000181148GIFT-BAG 11X14CM MATT  0000001000+00000876+00000+0001T   00000876+0000001424          1400 MK7112               3AZ
305840000305840               305840               170213OM     1400+00000+OM0000022366+0000022366+000000000+000003132+0000025498+0000000000+I40000025498+0000000000+Z
305840001305840486-002315     305840006001023740526WALL-CLOCK ROUND 20CM  0000001000+00007016+00000+0001T   00007016+0000001443          1400 MK7510               3AZ
305840002305840072-020247     305840006001246272705PET BED PL MEDIUM      0000001000+00015350+00000+0001T   00015350+0000001443          1400 MK7870               3AZ
305841000305841               305841               170213OM     1400+00000+OM0000004385+0000004385+000000000+000000614+0000004990+0000000009+I20000000000+0000004990+Z
305841001305841301-086007     305841006003000426706ORN OCC DAD WDN LETTERS0000001000+00004385+00000+0001T   00004385+0000001445          1400 MK7505               3AZ
305842000305842               305842               170213OM     1400+00000+OM0000001314+0000001314+000000000+000000184+0000001490+0000000008+I20000000000+0000001490+Z
305842001305842078-009100     305842006008741002349ALL-CLEAR GLUE 25ml CRD0000001000+00001314+00000+0001T   00001314+0000001446          1400 MK7810               3AZ
305843000305843               305843               170213OM     1400+00000+OM0000001314+0000001314+000000000+000000184+0000001490+0000000008+I20000000000+0000001490+Z
305843001305843077-000407     305843006003000145096G/BAG PP 19X26X8CM     0000001000+00001314+00000+0001T   00001314+0000001529          1400 MK7112               3AZ
305844000305844               305844               170213OM     1400+00000+OM0000003067+0000003067+000000000+000000430+0000003497+0000000000+I40000003497+0000000000+Z
305844001305844077-000310     305844006001023608635GIFT-BAG 18X23CM GLOSS 0000001000+00001314+00000+0001T   00001314+0000001532          1400 MK7112               3AZ
305844002305844306-000021-C   305844006003000567294EARBUDS 300PCE IN TUB  0000001000+00001753+00000+0001T   00001753+0000001532          1400 MK7200               3AZ
305845000305845               305845               170213OM     1400+00000+OM0000012404+0000012404+000000000+000001737+0000014141+0000000000+I40000014141+0000000000+Z
305845001305845018-005009     305845006001023725608MUG W/PLUSH-BEAR LOVE  0000001000+00003507+00000+0001T   00003507+0000001534          1400 MK7515               3AZ
305845002305845031-000847     305845006001023851871P/FRAME TWIN 10X15CM   0000001000+00003507+00000+0001T   00003507+0000001534          1400 MK7510               3AZ
305845003305845047-000503-H   305845006001023663849EUROMATE BOTTOM-ENTRY H0000003000+00001314+00000+0001T   00001314+0000001534          1400 MK7880               3AZ
305845004305845007-000104     305845006009685854865BK COVER BRWN KRFT ROLL0000004000+00000350+00000+0001T   00000350+0000001534          1400 MK7130               3AZ
305845005305845112-116069     305845006009681820277TCS CARRIER BAG JUMBO  0000001000+00000048+00000+0001T   00000048+0000001534          1400 MK7090               3AZ
305846000305846               305846               170213OM     1400+00000+OM0000002630+0000002630+000000000+000000369+0000002990+0000000009+I20000000000+0000002990+Z
305846001305846263-001003     305846006001023789846CARS RACING SET-OF-2   0000001000+00002630+00000+0001T   00002630+0000001610          1400 MK7710               3AZ
305847000305847               305847               170213OM     1400+00000+OM0000022669+0000022669+000000000+000003176+0000025845+0000000000+I40000025845+0000000000+Z
305847001305847001-091415     305847006003000329113W/GLS OCC. LOVE 2PC 2800000001000+00008771+00000+0001T   00009648+0006471615          1400 MK7515               3AZ
305847002305847560-000256     305847006001023831101GROWING FISH ASSTD     0000002000+00002630+00000+0001T   00002630+0000001615          1400 MK7745               3AZ
305847003305847112-116069     305847006009681820277TCS CARRIER BAG JUMBO  0000001000+00000048+00000+0001T   00000048+0000001615          1400 MK7090               3AZ
305847004305847033-010721     305847006001023678669SAFETY-PINS 20PCE ASSTD0000001000+00000700+00000+0001T   00000700+0000001615          1400 MK7200               3AZ
305847005305847077-000314     305847006003000181148GIFT-BAG 11X14CM MATT  0000001000+00000876+00000+0001T   00000876+0000001615          1400 MK7112               3AZ
305847006305847079-000286     305847006001023797032FINGER-PAINT 4PCE      0000002000+00003507+00000+0001T   00003507+0000001615          1400 MK7130               3AZ
305848000305848               305848               170213OM     1400+00000+OM0000006138+0000006138+000000000+000000860+0000006998+0000000000+I40000006998+0000000000+Z
305848001305848077-000151     305848006008766114676GIFT-WRAP C/PHANE ASSTD0000001000+00000876+00000+0001T   00000876+0000001618          1400 MK7112               3AZ
305848002305848103-000474     305848006003000630363BAMBOO FLOWER BASKET   0000001000+00005262+00000+0001T   00005262+0000001618          1400 MK7300               3AZ
305849000305849               305849               170213OM     1400+00000+OM0000003507+0000003507+000000000+000000491+0000003990+0000000008+I20000000000+0000003990+Z
305849001305849301-085004     305849006003000420469ORN LOVE PLAQUE 21X10CM0000001000+00003507+00000+0001T   00003946+0006471619          1400 MK7505               3AZ
305850000305850               305850               170213OM     1400+00000+OM0000001578+0000001578+000000000+000000221+0000001790+0000000009+I20000000000+0000001790+Z
305850001305850077-000303     305850006001023593757GIFT-BAG PAPER MED     0000001000+00001578+00000+0001T   00001578+0000001619          1400 MK7112               3AZ
305851000305851               305851               170213OM     1400+00000+OM0000008376+0000008376+000000000+000001175+0000009550+0000000001+I20000000000+0000009550+Z
305851001305851206-000620     305851006003000631797BACK SCRATCHER EXTEND  0000001000+00002630+00000+0001T   00002630+0000001621          1400 MK7321               3AZ
305851002305851368-000053     305851006003000633449PLUSH BEAR 15.5cm MUM  0000001000+00005262+00000+0001T   00005262+0000001621          1400 MK7745               3AZ
305851003305851006-000172-A   305851006003000609765BALLOONS METALLIC PINK 0000002000+00000218+00000+0001T   00000218+0000001621          1400 MK7131               3AZ
305851004305851112-116069     305851006009681820277TCS CARRIER BAG JUMBO  0000001000+00000048+00000+0001T   00000048+0000001621          1400 MK7090               3AZ
305852000305852               305852               170213OM     1400+00000+OM0000011171+0000011171+000000000+000001571+0000012742+0000000000+I40000012742+0000000000+Z
305852001305852077-000289     305852006001023901996GIFT BOX 20x25x11cm    0000001000+00001753+00000+0001T   00001753+0000001623          1400 MK7112               3AZ
305852002305852077-000315     305852006003000181186GIFT-BAG 20x28cm MATT  0000001000+00001578+00000+0001T   00001578+0000001623          1400 MK7112               3AZ
305852003305852206-000590     305852006003000633708BAG CLIPS LIPS 2PC     0000001000+00001753+00000+0001T   00001753+0000001623          1400 MK7321               3AZ
305852004305852903-000183     305852006003000451043SWT LB HEART LOLLY     0000002000+00000393+00000+0001T   00000393+0000001623          1400 MK7150               3AZ
305852005305852903-000155     305852006009803374435SWT LOLLY I LUV U HEART0000003000+00000525+00000+0001T   00000525+0000001623          1400 MK7150               3AZ
305852006305852903-000200     305852006009826020234SWT CHOC RP CHOCO 23G  0000003000+00000788+00000+0001T   00000788+0000001623          1400 MK7150               3AZ
305852007305852566-000451     305852006001023788443STICKERS GLITTER ASSTD 0000001000+00001314+00000+0001T   00001753+0008151623          1400 MK7130               3AZ
305852008305852112-116069     305852006009681820277TCS CARRIER BAG JUMBO  0000001000+00000048+00000+0001T   00000048+0000001623          1400 MK7090               3AZ
305853000305853               305853               170213OM     1400+00000+OM0000014074+0000014074+000000000+000001973+0000016047+0000000000+I40000016047+0000000000+Z
305853001305853077-000299-A   305853006003000670888GIFT-BAG PAPER JMB LOVE0000001000+00001753+00000+0001T   00001753+0000001625          1400 MK7112               3AZ
305853002305853028-085274     305853006001023641571BBQ LIGHTER         H&L0000001000+00002192+00000+0001T   00002192+0000001625          1400 MK7305               3AZ
305853003305853046-000012     305853006904708013062BATTERIES AA  CARD-OF-40000001000+00001314+00000+0001T   00001314+0000001625          1400 MK7312               3AZ
305853004305853048-000751     305853006001023849779CAMPING-LANTERN B/O    0000001000+00003507+00000+0001T   00003507+0000001625          1400 MK7305               3AZ
305853005305853206-000450     305853006003000619863DRINKING JAR GLOBE     0000002000+00002630+00000+0001T   00002630+0000001625          1400 MK7321               3AZ
305853006305853112-116069     305853006009681820277TCS CARRIER BAG JUMBO  0000001000+00000048+00000+0001T   00000048+0000001625          1400 MK7090               3AZ
305854000305854               305854               170213OM     1400+00000+OM0000003944+0000003944+000000000+000000553+0000004497+0000000000+I40000004497+0000000000+Z
305854001305854018-005009     305854006001023725608MUG W/PLUSH-BEAR LOVE  0000001000+00003507+00000+0001T   00003507+0000001626          1400 MK7515               3AZ
305854002305854080-000133-A   305854006003000647019MINI VALENTINES CARD   0000001000+00000437+00000+0001T   00000437+0000001626          1400 MK7112               3AZ
305855000305855               305855               170213OM     1400+00000+OM0000000876+0000000876+000000000+000000123+0000000990+0000000009+I20000000000+0000000990+Z
305855001305855078-000025     305855008887013700064SUPERGLUE 3g 1PCE CARD 0000001000+00000876+00000+0001T   00000876+0000001627          1400 MK7810               3AZ
305856000305856               305856               170213OM     1400+00000+OM0000003507+0000003507+000000000+000000491+0000003990+0000000008+I20000000000+0000003990+Z
305856001305856018-005009     305856006001023725608MUG W/PLUSH-BEAR LOVE  0000001000+00003507+00000+0001T   00003507+0000001631          1400 MK7515               3AZ
305857000305857               305857               170213OM     1400+00000+OM0000003554+0000003554+000000000+000000499+0000004050+0000000003+I20000000000+0000004050+Z
305857001305857077-000299-A   305857006003000670888GIFT-BAG PAPER JMB LOVE0000002000+00001753+00000+0001T   00001753+0000001632          1400 MK7112               3AZ
305857002305857112-116069     305857006009681820277TCS CARRIER BAG JUMBO  0000001000+00000048+00000+0001T   00000048+0000001632          1400 MK7090               3AZ
305858000305858               305858               170213OM     1400+00000+OM0000007892+0000007892+000000000+000001106+0000008998+0000000000+I40000008998+0000000000+Z
305858001305858018-050000     305858006003000412679MUG OCC LOVE TWIN BEAR 0000001000+00006139+00000+0001T   00006139+0000001634          1400 MK7515               3AZ
305858002305858077-000309     305858006001023608604GIFT-BAG 25X32CM GLOSS 0000001000+00001753+00000+0001T   00001753+0000001634          1400 MK7112               3AZ
305859000305859               305859               170213OM     1400+00000+OM0000018897+0000018897+000000000+000002646+0000021540+0000000003+I20000000000+0000021540+Z
305859001305859200-000010-A   305859006003000625079BAG ZIPPERSEAL 35PC    0000001000+00001314+00000+0001T   00001753+0008171635          1400 MK7214               3AZ
305859002305859200-000011     305859006003000613489DISPOSABLE BAG ZIPER   0000001000+00003507+00000+0001T   00003507+0000001635          1400 MK7214               3AZ
305859003305859200-000012     305859006003000399536BAG 50PCE 165x146mm    0000003000+00003507+00000+0001T   00003507+0000001635          1400 MK7214               3AZ
305859004305859200-000011     305859006003000613489DISPOSABLE BAG ZIPER   0000001000+00003507+00000+0001T   00003507+0000001635          1400 MK7214               3AZ
305859005305859112-116069     305859006009681820277TCS CARRIER BAG JUMBO  0000001000+00000048+00000+0001T   00000048+0000001635          1400 MK7090               3AZ
305860000305860               305860               170213OM     1400+00000+OM0000008198+0000008198+000000000+000001151+0000009349+0000000000+I40000009349+0000000000+Z
305860001305860007-010192     305860006009635830536BOOK H/COVER A5 192PAGE0000001000+00001139+00000+0001T   00001139+0000001651          1400 MK7130               3AZ
305860002305860007-000557     305860006003000379484DIARY GIRL W/LOCK 50PG 0000001000+00002630+00000+0001T   00002630+0000001651          1400 MK7130               3AZ
305860003305860079-011526     305860006003000408375GLITTER & SAND ART     0000001000+00003507+00000+0001T   00003507+0000001651          1400 MK7130               3AZ
305860004305860112-116069     305860006009681820277TCS CARRIER BAG JUMBO  0000001000+00000048+00000+0001T   00000048+0000001651          1400 MK7090               3AZ
305860005305860080-000133-A   305860006003000647019MINI VALENTINES CARD   0000002000+00000437+00000+0001T   00000437+0000001651          1400 MK7112               3AZ
305861000305861               305861               170213OM     1400+00000+OM0000003541+0000003541+000000000+000000497+0000004030+0000000008+I20000000000+0000004030+Z
305861001305861133-000062     305861006001023822086FACE-CLOTH PLAIN ASSTD 0000001000+00001753+00000+0001T   00001753+0000001705          1400 MK7212               3AZ
305861002305861106-001105     305861006001023711564WATER-BOTTLE 500ml     0000001000+00001753+00000+0001T   00001753+0000001705          1400 MK7210               3AZ
305861003305861112-116038     305861006009681820246TCS CARRIER BAG MIDI   0000001000+00000035+00000+0001T   00000035+0000001705          1400 MK7090               3AZ
305862000305862               305862               170213OM     1400+00000+OM0000023722+0000023722+000000000+000003325+0000027047+0000000000+I40000027047+0000000000+Z
305862001305862567-011424     305862006003000641468BK COLOURING THERAPY A40000001000+00006139+00000+0001T   00006139+0000001708          1400 MK7757               3AZ
305862002305862206-000210     305862006003000631582TOOTHPICK HOLDER FLOWER0000001000+00003069+00000+0001T   00003069+0000001708          1400 MK7321               3AZ
305862003305862206-000160     305862006003000628780CORN KERNELER          0000001000+00004385+00000+0001T   00004385+0000001708          1400 MK7321               3AZ
305862004305862206-000310     305862006003000632787BOTTLE-STOPPER SILICONE0000001000+00002630+00000+0001T   00002630+0000001708          1400 MK7321               3AZ
305862005305862046-002013-PK6 305862004897006174851BATTERY BUTTON AG13 6PC0000002000+00001753+00000+0001T   00001753+0000001708          1400 MK7312               3AZ
305862006305862080-000127     305862006003000424351VALENTINES DAY 36x24CM 0000001000+00002192+00000+0001T   00002192+0000001708          1400 MK7112               3AZ
305862007305862077-000299-A   305862006003000670888GIFT-BAG PAPER JMB LOVE0000001000+00001753+00000+0001T   00001753+0000001708          1400 MK7112               3AZ
305862008305862112-116069     305862006009681820277TCS CARRIER BAG JUMBO  0000001000+00000048+00000+0001T   00000048+0000001708          1400 MK7090               3AZ
305863000305863               305863               170213OM     1400+00000+OM0000008819+0000008819+000000000+000001235+0000010050+0000000004+I20000000000+0000010050+Z
305863001305863001-091415     305863006003000329113W/GLS OCC. LOVE 2PC 2800000001000+00008771+00000+0001T   00009648+0006471709          1400 MK7515               3AZ
305863002305863112-116069     305863006009681820277TCS CARRIER BAG JUMBO  0000001000+00000048+00000+0001T   00000048+0000001709          1400 MK7090               3AZ
305864000305864               305864               170213OM     1400+00000+OM0000003152+0000003152+000000000+000000444+0000003596+0000000000+I40000003596+0000000000+Z
305864001305864903-000200     305864006009826020234SWT CHOC RP CHOCO 23G  0000004000+00000788+00000+0001T   00000788+0000001711          1400 MK7150               3AZ
305865000305865               305865               170213OM     1400+00000+OM0000004077+0000004077+000000000+000000573+0000004650+0000000000+I40000004650+0000000000+Z
305865001305865084-070000     305865006001023629982TWEEZER CHROME H/GLOW  0000001000+00001490+00000+0001T   00001490+0000001713          1400 MK7200               3AZ
305865002305865903-000200     305865006009826020234SWT CHOC RP CHOCO 23G  0000001000+00000788+00000+0001T   00000788+0000001713          1400 MK7150               3AZ
305865003305865077-000310     305865006001023608635GIFT-BAG 18X23CM GLOSS 0000001000+00001314+00000+0001T   00001314+0000001713          1400 MK7112               3AZ
305865004305865112-116069     305865006009681820277TCS CARRIER BAG JUMBO  0000001000+00000048+00000+0001T   00000048+0000001713          1400 MK7090               3AZ
305865005305865080-000133-A   305865006003000647019MINI VALENTINES CARD   0000001000+00000437+00000+0001T   00000437+0000001713          1400 MK7112               3AZ
305866000305866               305866               170213OM     1400+00000+OM0000011450+0000011450+000000000+000001604+0000013054+0000000000+I40000013054+0000000000+Z
305866001305866030-004050     305866006003000658732PLAQUE WOODEN SIGN     0000001000+00011402+00000+0001T   00011402+0000001715          1400 MK7505               3AZ
305866002305866112-116069     305866006009681820277TCS CARRIER BAG JUMBO  0000001000+00000048+00000+0001T   00000048+0000001715          1400 MK7090               3AZ
305867000305867               305867               170213OM     1400+00000+OM0000001139+0000001139+000000000+000000160+0000001290+0000000009+I20000000000+0000001290+Z
305867001305867903-000087     305867006001704000161SWT SPECKLED-EGGS 50G  0000001000+00001139+00000+0001T   00001139+0000001717          1400 MK7150               3AZ
305868000305868               305868               170213OM     1400+00000+OM0000017542+0000017542+000000000+000002456+0000019990+0000000008+I20000000000+0000019990+Z
305868001305868019-000080     305868006001023775740VASE GLS FLORIST BALL  0000002000+00008771+00000+0001T   00008771+0000001718          1400 MK7510               3AZ
305869000305869               305869               170213OM     1400+00000+OM0000004996+0000004996+000000000+000000701+0000005690+0000000007+I20000000000+0000005690+Z
305869001305869002-000015     305869006003000555604CAPPUCCINO STENCILS 12P0000002000+00001753+00000+0001T   00001753+0000001720          1400 MK7300               3AZ
305869002305869034-078833     305869006001023857491SIGN BABY-ON-BOARD     0000001000+00001490+00000+0001T   00001490+0000001720          1400 MK7215               3AZ
305870000305870               305870               170213OM     1400+00000+OM0000023018+0000023018+000000000+000003228+0000026246+0000000000+I40000026246+0000000000+Z
305870001305870103-000460     305870006003000630240BAMBOO FLOWER BASKET   0000001000+00004385+00000+0001T   00004385+0000001722          1400 MK7300               3AZ
305870002305870200-000061     305870006003000506996STRAWS DRINKING CURLY  0000001000+00001490+00000+0001T   00001490+0000001722          1400 MK7214               3AZ
305870003305870038-001805     305870006003000466405DOILIES PAPER 60PC 3ASS0000001000+00003069+00000+0001T   00003069+0000001722          1400 MK7300               3AZ
305870004305870077-000005-B   305870006003000326617PAPER TISSUE PATTERN   0000001000+00002630+00000+0001T   00002630+0000001722          1400 MK7112               3AZ
305870005305870112-116069     305870006009681820277TCS CARRIER BAG JUMBO  0000001000+00000048+00000+0001T   00000048+0000001722          1400 MK7090               3AZ
305870006305870077-000251     305870006003000639106GIFT-DECOR RIBBON      0000001000+00002630+00000+0001T   00002630+0000001722          1400 MK7112               3AZ
305870007305870200-000042     305870006001023868886BAG-SEALERS 10PCE      0000001000+00002630+00000+0001T   00002630+0000001722          1400 MK7214               3AZ
305870008305870006-000111     305870006003000519385BALLOONS LARGE 12PCE   0000001000+00002630+00000+0001T   00002630+0000001722          1400 MK7131               3AZ
305870009305870078-000030     305870006003000151141YAMAYO SUPERGLUE 8g    0000001000+00001753+00000+0001T   00001753+0000001722          1400 MK7810               3AZ
305870010305870206-000120     305870006003000628308PEELER CARROT SHARPENER0000001000+00001753+00000+0001T   00001753+0000001722          1400 MK7321               3AZ
305871000305871               305871               170213OM     1400+00000+OM0000007062+0000007062+000000000+000000989+0000008050+0000000001+I20000000000+0000008050+Z
305871001305871018-000136     305871006001023659026MUG OCC LOVE W/PLUSH   0000001000+00003507+00000+0001T   00003507+0000001723          1400 MK7515               3AZ
305871002305871018-000130     305871006001023867537MUG OCC LOVE MINI+HEART0000001000+00003507+00000+0001T   00003507+0000001723          1400 MK7515               3AZ
305871003305871112-116069     305871006009681820277TCS CARRIER BAG JUMBO  0000001000+00000048+00000+0001T   00000048+0000001723          1400 MK7090               3AZ
305872000305872               305872               170213OM     1400+00000+OM0000003979+0000003979+000000000+000000558+0000004537+0000000000+I40000004537+0000000000+Z
305872001305872080-000133-A   305872006003000647019MINI VALENTINES CARD   0000001000+00000437+00000+0001T   00000437+0000001725          1400 MK7112               3AZ
305872002305872018-000136     305872006001023659026MUG OCC LOVE W/PLUSH   0000001000+00003507+00000+0001T   00003507+0000001725          1400 MK7515               3AZ
305872003305872112-116038     305872006009681820246TCS CARRIER BAG MIDI   0000001000+00000035+00000+0001T   00000035+0000001725          1400 MK7090               3AZ
305873000305873               305873               170213OM     1400+00000+OM0000001490+0000001490+000000000+000000209+0000001690+0000000009+I20000000000+0000001690+Z
305873001305873079-000512     305873006001023635853CRAYONS WAX 12-COLOUR  0000001000+00001490+00000+0001T   00001490+0000001725          1400 MK7130               3AZ
305874000305874               305874               170213OM     1400+00000+OM0000003554+0000003554+000000000+000000499+0000004050+0000000003+I20000000000+0000004050+Z
305874001305874077-000382     305874006003000247820GIFT-BAG MED 18X23CM   0000002000+00001753+00000+0001T   00001753+0000001726          1400 MK7112               3AZ
305874002305874112-116069     305874006009681820277TCS CARRIER BAG JUMBO  0000001000+00000048+00000+0001T   00000048+0000001726          1400 MK7090               3AZ
305875000305875               305875               170213OM     1400+00000+OM0000007892+0000007892+000000000+000001106+0000008990+0000000008+I20000000000+0000008990+Z
305875001305875368-000152     305875006003000166886PLUSH BEAR 15cm        0000002000+00003946+00000+0001T   00005262+0008141727          1400 MK7745               3AZ
305876000305876               305876               170213OM     1400+00000+OM0000018578+0000018578+000000000+000002611+0000021189+0000000000+I40000021189+0000000000+Z
305876001305876077-000908     305876006003000410927G/WRAP 700mmx1m FLOWER 0000001000+00001753+00000+0001T   00001753+0000001731          1400 MK7112               3AZ
305876002305876112-116069     305876006009681820277TCS CARRIER BAG JUMBO  0000001000+00000048+00000+0001T   00000048+0000001731          1400 MK7090               3AZ
305876003305876077-000010-R   305876006001023123916CREPE-PAPER CANARY-YELL0000001000+00000788+00000+0001T   00000788+0000001731          1400 MK7112               3AZ
305876004305876077-000383     305876006003000247943GIFT-BAG 11X14CM S/COL 0000001000+00000788+00000+0001T   00000788+0000001731          1400 MK7112               3AZ
305876005305876080-000133     305876006003000535613CARD&ENV MINI ASTD DSGN0000002000+00000437+00000+0001T   00000437+0000001731          1400 MK7112               3AZ
305876006305876079-013037     305876000795229376950ARTS & CRAFTS SETS ASST0000001000+00001314+00000+0001T   00001753+0008151731          1400 MK7130               3AZ
305876007305876562-000051     305876006003000308798EDU EXCAVATION KIT ASST0000001000+00003507+00000+0001T   00003507+0000001731          1400 MK7755               3AZ
305876008305876079-000300     305876006001023902245PAINTSET LEARN TO PAINT0000002000+00002630+00000+0001T   00002630+0000001731          1400 MK7130               3AZ
305876009305876080-000133     305876006003000535613CARD&ENV MINI ASTD DSGN0000001000+00000437+00000+0001T   00000437+0000001731          1400 MK7112               3AZ
305876010305876903-000183     305876006003000451043SWT LB HEART LOLLY     0000003000+00000393+00000+0001T   00000393+0000001731          1400 MK7150               3AZ
305876011305876301-000016     305876006001023817556ORN SENTIMENT HEART ASS0000001000+00002630+00000+0001T   00002630+0000001731          1400 MK7505               3AZ
305877000305877               305877               170213OM     1400+00000+OM0000008817+0000008817+000000000+000001236+0000010053+0000000000+I40000010053+0000000000+Z
305877001305877077-000270     305877006003000395453GIFT-BAG PPR JMB 33X45 0000001000+00002630+00000+0001T   00002630+0000001733          1400 MK7112               3AZ
305877002305877018-050000     305877006003000412679MUG OCC LOVE TWIN BEAR 0000001000+00006139+00000+0001T   00006139+0000001733          1400 MK7515               3AZ
305877003305877112-116069     305877006009681820277TCS CARRIER BAG JUMBO  0000001000+00000048+00000+0001T   00000048+0000001733          1400 MK7090               3AZ
305878000305878               305878               170213OM     1400+00000+OM0000003904+0000003904+000000000+000000547+0000004450+0000000001+I20000000000+0000004450+Z
305878001305878200-000100     305878006001023764003CUPS 25PCE DISPOSABLE  0000002000+00001928+00000+0001T   00001928+0000001734          1400 MK7214               3AZ
305878002305878112-116069     305878006009681820277TCS CARRIER BAG JUMBO  0000001000+00000048+00000+0001T   00000048+0000001734          1400 MK7090               3AZ
305879000305879               305879               170213OM     1400+00000+OM0000001753+0000001753+000000000+000000246+0000001999+0000000000+I40000001999+0000000000+Z
305879001305879077-000382     305879006003000247820GIFT-BAG MED 18X23CM   0000001000+00001753+00000+0001T   00001753+0000001735          1400 MK7112               3AZ
305880000305880               305880               170213OM     1400+00000+OM0000002803+0000002803+000000000+000000394+0000003190+0000000007+I20000000000+0000003190+Z
305880001305880903-002890     305880008935001721352MENTOS GUM PURE F/MINT 0000001000+00001051+00000+0001T   00001051+0000001752          1400 MK7150               3AZ
305880002305880077-000314     305880006003000181148GIFT-BAG 11X14CM MATT  0000002000+00000876+00000+0001T   00000876+0000001752          1400 MK7112               3AZ
305881000305881               305881               170213OM     1400+00000+OM0000000393+0000000393+000000000+000000056+0000000440+0000000009+I20000000000+0000000440+Z
305881001305881903-000183     305881006003000451043SWT LB HEART LOLLY     0000001000+00000393+00000+0001T   00000393+0000001753          1400 MK7150               3AZ
305882000305882               305882               170213OM     1400+00000+OM0000026527+0000026527+000000000+000003719+0000030246+0000000000+I40000030246+0000000000+Z
305882001305882084-006995     305882006003000092802NAIL CLIPPER 8cm TOE   0000001000+00001753+00000+0001T   00001753+0000001757          1400 MK7200               3AZ
305882002305882077-000452     305882006003000284986G/BAG METALLIC MED EMB 0000001000+00001490+00000+0001T   00001490+0000001757          1400 MK7112               3AZ
305882003305882077-000005-B   305882006003000326617PAPER TISSUE PATTERN   0000001000+00002630+00000+0001T   00002630+0000001757          1400 MK7112               3AZ
305882004305882080-000115     305882006003000237333CARD&ENVELOPE - BLANKS 0000001000+00001753+00000+0001T   00001753+0000001757          1400 MK7112               3AZ
305882005305882080-000113     305882006003000237449CARD&ENVLPE - LOVE     0000001000+00001753+00000+0001T   00001753+0000001757          1400 MK7112               3AZ
305882006305882368-000104     305882006001023751348PLUSH BEAR RUFFLED-LOOK0000001000+00006139+00000+0001T   00006139+0000001757          1400 MK7745               3AZ
305882007305882031-000845     305882006001023851819PICTURE-FRAME ASSTD    0000001000+00003946+00000+0001T   00003946+0000001757          1400 MK7510               3AZ
305882008305882106-000890     305882000876416080628WATER BOTTLE PL 700ml  0000001000+00005262+00000+0001T   00005262+0000001757          1400 MK7210               3AZ
305882009305882112-116069     305882006009681820277TCS CARRIER BAG JUMBO  0000001000+00000048+00000+0001T   00000048+0000001757          1400 MK7090               3AZ
305882010305882016-006509     305882006003000567355S/JAR GLS MINI LABEL   0000001000+00001753+00000+0001T   00002192+0008191757          1400 MK7300               3AZ
305883000305883               305883               170213OM     1400+00000+OM0000003770+0000003770+000000000+000000528+0000004290+0000000008+I20000000000+0000004290+Z
305883001305883080-000124     305883006003000297733CARD & ENV VALENTINES  0000001000+00001578+00000+0001T   00001578+0000001757          1400 MK7112               3AZ
305883002305883077-000309-A   305883006003000671007GIFT-BAG HOLOGRAM JMB  0000001000+00002192+00000+0001T   00002192+0000001757          1400 MK7112               3AZ
305884000305884               305884               170213OM     1400+00000+OM0000005262+0000005262+000000000+000000737+0000005990+0000000009+I20000000000+0000005990+Z
305884001305884464-009011     305884006003000647675FISHING WITH TWO RODS  0000001000+00005262+00000+0001T   00005262+0000001758          1400 MK7785               3AZ
305885000305885               305885               170213OM     1400+00000+OM0000001753+0000001753+000000000+000000246+0000001990+0000000009+I20000000000+0000001990+Z
305885001305885306-000021-C   305885006003000567294EARBUDS 300PCE IN TUB  0000001000+00001753+00000+0001T   00001753+0000001758          1400 MK7200               3AZ
305886000305886               305886               170213OM     1400+00000+OM0000000048+0000000048+000000000+000000007+0000000050+0000000005+I20000000000+0000000050+Z
305886001305886112-116069     305886006009681820277TCS CARRIER BAG JUMBO  0000001000+00000048+00000+0001T   00000048+0000001759          1400 MK7090               3AZ
A17021300                                          09150687OMSLAVE 3                       KU41IC
C30584400                                          170213OM077-000382     15305915SLAVE 3     MK71IC0000000000+0000000000+0010000001000+
C30586700                                          170213OM903-000095     17164489SLAVE 3     MK71IC0000000000+0000000000+0010000001000+
M17021391                              CASH        OMSLAVE 3                       Z-REPORT No.   625TOTAL (Sales - Refunds)           4892.11       CASH TO BE BANKED                 1688.90       DEBIT CARDS                          0.00       CREDIT CARDS                      3203.21       Z-READING                         4892.11       AIRTIME DEBIT CARD SALES             0.00       AIRTIME CARD SALES                   0.00       OVERS/UNDERS                         0.00       AIRTIME CASH SALES                   0.00       GIFT CARDS                           0.00       GIFT CARD CASH SALES                 0.00       T O T A L  CASH PAYOUTS              0.00                                                                                                                                                                                                                                                                                                                                                      Z
M17021392                              CASH        OMABSENT                                                                                                                                                                                          ANNUAL LEAVE                                                                                                                                                                                    DAY OFF                                                                                                                                                                                         COMMENTS                                                                                                                                                                                                                                                                                                                                                                                       Z
Y17021300                                          OM00000000429254+000059
ZOM17021320133 SLAVE 3      SALES DATA                     NEXT INVOICE NO.  305887 0625
X OM Slave 3 First invoice 305828 170213 Last invoice 305886 170213 Next invoice 305887 Total number of records 000000238 clbackup completed 20:13:52
