205498000205498               205498               170213ON     1400+00000+ON0000001753+0000001753+000000000+000000246+0000001999+0000000000+I40000001999+0000000000+Z
205498001205498047-000507     205498006001023684479PLUG-ADAPTOR EURO TWIN 0000001000+00001753+00000+0001T   00001753+0000001004          1400 R67880               2AZ
205499000205499               205499               170213ON     1400+00000+ON0000001578+0000001578+000000000+000000221+0000001790+0000000009+I20000000000+0000001790+Z
205499001205499077-000303     205499006001023593757GIFT-BAG PAPER MED     0000001000+00001578+00000+0001T   00001578+0000001005          1400 R67112               2AZ
205500000205500               205500               170213ON     1400+00000+ON0000000000+0000000000+000000000+000000000+0000000000+0000000000+ 00000000000+0000000000+Z
205501000205501               205501               170213ON     1400+00000+ON0000012748+0000012748+000000000+000001786+0000014530+0000000004+I20000000000+0000014530+Z
205501001205501088-000113     205501006001023858399DEHUMIDIFIER SCENTED   0000001000+00002630+00000+0001T   00002630+0000001010          1400 R67212               2AZ
205501002205501204-000030     205501006003000683536MEMO HOLDER SAYINGS    0000001000+00003507+00000+0001T   00003507+0000001010          1400 R67300               2AZ
205501003205501031-000864-A   205501006001023798350P/FRAME MAHOGANY 10X15 0000001000+00003069+00000+0001T   00003069+0000001010          1400 R67510               2AZ
205501004205501204-000030     205501006003000683536MEMO HOLDER SAYINGS    0000001000+00003507+00000+0001T   00003507+0000001010          1400 R67300               2AZ
205501005205501112-116038     205501006009681820246TCS CARRIER BAG MIDI   0000001000+00000035+00000+0001T   00000035+0000001010          1400 R67090               2AZ
205502000205502               205502               170213ON     1400+00000+ON0000000000+0000000000+000000000+000000000+0000000000+0000000000+ 00000000000+0000000000+Z
205503000205503               205503               170213ON     1400+00000+ON0000003507+0000003507+000000000+000000491+0000003990+0000000008+I20000000000+0000003990+Z
205503001205503036-000015     205503006003000430420LINT REMOVER+BRUSH 24cm0000001000+00003507+00000+0001T   00003507+0000001104          1400 R67212               2AZ
205504000205504               205504               170213ON     1400+00000+ON0000005262+0000005262+000000000+000000737+0000005990+0000000009+I20000000000+0000005990+Z
205504001205504107-004510     205504006002580008968STEP-STOOL PL          0000001000+00005262+00000+0001T   00005262+0000001126          1400 R67210               2AZ
205505000205505               205505               170213ON     1400+00000+ON0000003555+0000003555+000000000+000000498+0000004053+0000000000+I40000004053+0000000000+Z
205505001205505159-000102     205505006001023552891SHOWER-CADDY 48cm      0000001000+00003507+00000+0001T   00003507+0000001128          1400 R67200               2AZ
205505002205505112-116069     205505006009681820277TCS CARRIER BAG JUMBO  0000001000+00000048+00000+0001T   00000048+0000001128          1400 R67090               2AZ
205506000205506               205506               170213ON     1400+00000+ON0000029864+0000029864+000000000+000004183+0000034047+0000000000+I40000034047+0000000000+Z
205506001205506305-074058     205506006001023816658W/CHIMES D/WOODEN 65cm 0000001000+00006139+00000+0001T   00006139+0000001136          1400 R67505               2AZ
205506002205506037-000002     205506006001023994745ASHTRAY SPIN METAL 9cm 0000002000+00003507+00000+0001T   00003507+0000001136          1400 R67515               2AZ
205506003205506082-000122-D   205506006003000405596R/GLASS STRENGTH:2.5   0000001000+00005262+00000+0001T   00005262+0000001136          1400 R67160               2AZ
205506004205506566-000316     205506006003000521821STICKERS MIRRORS HOME  0000001000+00006139+00000+0001T   00006139+0000001136          1400 R67130               2AZ
205506005205506112-116069     205506006009681820277TCS CARRIER BAG JUMBO  0000001000+00000048+00000+0001T   00000048+0000001136          1400 R67090               2AZ
205506006205506082-000122-D   205506006003000405596R/GLASS STRENGTH:2.5   0000001000+00005262+00000+0001T   00005262+0000001136          1400 R67160               2AZ
205507000205507               205507               170213ON     1400+00000+ON0000000876+0000000876+000000000+000000123+0000000990+0000000009+I20000000000+0000000990+Z
205507001205507033-000128     205507006009654960214HAIR COMB PLASTIC 2PC  0000001000+00000876+00000+0001T   00000876+0000001138          1400 R67200               2AZ
205508000205508               205508               170213ON     1400+00000+ON0000002629+0000002629+000000000+000000369+0000002998+0000000000+I40000002998+0000000000+Z
205508001205508104-000130     205508006001023846440WASTEPAPER-BASKET  25cm0000001000+00002192+00000+0001T   00002192+0000001157          1400 R67210               2AZ
205508002205508080-000133-A   205508006003000647019MINI VALENTINES CARD   0000001000+00000437+00000+0001T   00000437+0000001157          1400 R67112               2AZ
205509000205509               205509               170213ON     1400+00000+ON0000004383+0000004383+000000000+000000615+0000004990+0000000008+I20000000000+0000004990+Z
205509001205509046-002032-PK2 205509004897006175063BATTERIES CR-2032  2PCE0000001000+00001753+00000+0001T   00001753+0000001158          1400 R67312               2AZ
205509002205509304-001486     205509006003000035335FLWR BUNCH ROSE        0000001000+00002630+00000+0001T   00002630+0000001158          1400 R67510               2AZ
205510000205510               205510               170213ON     1400+00000+ON0000003716+0000003716+000000000+000000521+0000004230+0000000007+I20000000000+0000004230+Z
205510001205510251-000041     205510006001023515889SEAL-TAPE BUFF 48mmx50m0000003000+00001227+00000+0001T   00001227+0000001200          1400 R67810               2AZ
205510002205510112-116038     205510006009681820246TCS CARRIER BAG MIDI   0000001000+00000035+00000+0001T   00000035+0000001200          1400 R67090               2AZ
205511000205511               205511               170213ON     1400+00000+ON0000002980+0000002980+000000000+000000418+0000003398+0000000000+I40000003398+0000000000+Z
205511001205511366-004050     205511006003000308330DRESS UP TEEN BADGES   0000002000+00001490+00000+0001T   00001490+0000001218          1400 R67131               2AZ
205512000205512               205512               170213ON     1400+00000+ON0000005036+0000005036+000000000+000000707+0000005740+0000000003+I20000000000+0000005740+Z
205512001205512006-000120     205512006001023346889BALLOONS 10PC MIX COL  0000001000+00001753+00000+0001T   00001753+0000001224          1400 R67131               2AZ
205512002205512006-000172-J   205512006003000610280BALLOONS METALLIC BLACK0000001000+00000218+00000+0001T   00000218+0000001224          1400 R67131               2AZ
205512003205512006-001000     205512006003000093779HELIUM BALLOON FILL    0000005000+00000613+00000+0001T   00000613+0000001224          1400 R67131               2AZ
205513000205513               205513               170213ON     1400+00000+ON0000002240+0000002240+000000000+000000314+0000002550+0000000004+I20000000000+0000002550+Z
205513001205513080-000127     205513006003000424351VALENTINES DAY 36x24CM 0000001000+00002192+00000+0001T   00002192+0000001228          1400 R67112               2AZ
205513002205513112-116069     205513006009681820277TCS CARRIER BAG JUMBO  0000001000+00000048+00000+0001T   00000048+0000001228          1400 R67090               2AZ
205514000205514               205514               170213ON     1400+00000+ON0000005645+0000005645+000000000+000000792+0000006430+0000000007+I20000000000+0000006430+Z
205514001205514112-116038     205514006009681820246TCS CARRIER BAG MIDI   0000001000+00000035+00000+0001T   00000035+0000001234          1400 R67090               2AZ
205514002205514903-000095     205514006001704011495SWT SPECKLED-EGGS 100G 0000001000+00002104+00000+0001T   00002104+0000001234          1400 R67150               2AZ
205514003205514903-000211     205514006002099001238SWT GS MALLOW ICE CREAM0000002000+00001753+00000+0001T   00001753+0000001234          1400 R67150               2AZ
205515000205515               205515               170213ON     1400+00000+ON0000002051+0000002051+000000000+000000288+0000002330+0000000009+I20000000000+0000002330+Z
205515001205515251-000060     205515006001023628039PROTECT-PADS ADH 13PCE 0000001000+00002016+00000+0001T   00002016+0000001244          1400 R67810               2AZ
205515002205515112-116038     205515006009681820246TCS CARRIER BAG MIDI   0000001000+00000035+00000+0001T   00000035+0000001244          1400 R67090               2AZ
205516000205516               205516               170213ON     1400+00000+ON0000010872+0000010872+000000000+000001524+0000012396+0000000000+I40000012396+0000000000+Z
205516001205516077-000011-D   205516006001023808554TISSUE-WRAP WHITE 10PCE0000001000+00000876+00000+0001T   00000876+0000001248          1400 R67112               2AZ
205516002205516077-000299     205516006003000395576G/BAG 32x25cm LRG LOVE 0000002000+00001490+00000+0001T   00001490+0000001248          1400 R67112               2AZ
205516003205516560-000245     205516006001023622716RUBBER ANIMALS 10PC ASS0000001000+00007016+00000+0001T   00007016+0000001248          1400 R67745               2AZ
205517000205517               205517               170213ON     1400+00000+ON0000000788+0000000788+000000000+000000111+0000000890+0000000009+I20000000000+0000000890+Z
205517001205517903-000891     205517006009702258997SWT GUM BEECHIES MUSK  0000001000+00000788+00000+0001T   00000788+0000001249          1400 R67150               2AZ
205518000205518               205518               170213ON     1400+00000+ON0000016271+0000016271+000000000+000002280+0000018551+0000000000+I40000018551+0000000000+Z
205518001205518028-000026     205518006001023810847COOLER-BAG+POCKET NYLON0000001000+00009648+00000+0001T   00009648+0000001251          1400 R67305               2AZ
205518002205518112-116069     205518006009681820277TCS CARRIER BAG JUMBO  0000001000+00000048+00000+0001T   00000048+0000001251          1400 R67090               2AZ
205518003205518105-001075     205518006001023844873LUNCH BOX 17x11x7cm    0000001000+00003069+00000+0001T   00003069+0000001251          1400 R67210               2AZ
205518004205518077-000309     205518006001023608604GIFT-BAG 25X32CM GLOSS 0000002000+00001753+00000+0001T   00001753+0000001251          1400 R67112               2AZ
205519000205519               205519               170213ON     1400+00000+ON0000001314+0000001314+000000000+000000184+0000001498+0000000000+I40000001498+0000000000+Z
205519001205519046-000012     205519006904708013062BATTERIES AA  CARD-OF-40000001000+00001314+00000+0001T   00001314+0000001252          1400 R67312               2AZ
205520000205520               205520               170213ON     1400+00000+ON0000027538+0000027538+000000000+000003858+0000031396+0000000000+I40000031396+0000000000+Z
205520001205520368-000111     205520006001023780812PLUSH BEAR/DOG 29CM    0000002000+00012279+00000+0001T   00012279+0000001255          1400 R67745               2AZ
205520002205520077-000299     205520006003000395576G/BAG 32x25cm LRG LOVE 0000002000+00001490+00000+0001T   00001490+0000001255          1400 R67112               2AZ
205521000205521               205521               170213ON     1400+00000+ON0000013374+0000013374+000000000+000001874+0000015240+0000000008+I20000000000+0000015240+Z
205521001205521306-000985     205521006003000559831FIRSTAID PLASTER 10PC  0000001000+00001490+00000+0001T   00001490+0000001258          1400 R67200               2AZ
205521002205521159-000117     205521006003000450398SHOWER CAP PVC ASSTD   0000001000+00002630+00000+0001T   00002630+0000001258          1400 R67200               2AZ
205521003205521133-000017     205521006003000525171CLEANING-CLOTHS 5PCE   0000001000+00003507+00000+0001T   00003507+0000001258          1400 R67212               2AZ
205521004205521046-000012-A   205521006003000208296BATTERIES H/POWER SZ:AA0000001000+00002192+00000+0001T   00002192+0000001258          1400 R67312               2AZ
205521005205521159-000102     205521006001023552891SHOWER-CADDY 48cm      0000001000+00003507+00000+0001T   00003507+0000001258          1400 R67200               2AZ
205521006205521112-116069     205521006009681820277TCS CARRIER BAG JUMBO  0000001000+00000048+00000+0001T   00000048+0000001258          1400 R67090               2AZ
205522000205522               205522               170213ON     1400+00000+ON0000010286+0000010286+000000000+000001443+0000011720+0000000009+I20000000000+0000011720+Z
205522001205522112-116038     205522006009681820246TCS CARRIER BAG MIDI   0000001000+00000035+00000+0001T   00000035+0000001300          1400 R67090               2AZ
205522002205522903-000012     205522006002099007308SWT MALLOW S/BERRY     0000001000+00000437+00000+0001T   00000437+0000001300          1400 R67150               2AZ
205522003205522903-000011     205522006002099007315SWT MALLOW CHOC 15G    0000001000+00000437+00000+0001T   00000437+0000001300          1400 R67150               2AZ
205522004205522206-000630     205522006003000631919SPECTACLE CLEANING BRUS0000001000+00001227+00000+0001T   00001227+0000001300          1400 R67321               2AZ
205522005205522082-000392     205522006003000621811SPECTACLE REPAIR KIT   0000001000+00002192+00000+0001T   00002192+0000001300          1400 R67160               2AZ
205522006205522077-000310     205522006001023608635GIFT-BAG 18X23CM GLOSS 0000002000+00001314+00000+0001T   00001314+0000001300          1400 R67112               2AZ
205522007205522077-000011-C   205522006001023808523TISSUE 10xSHTS RED     0000001000+00000876+00000+0001T   00000876+0000001300          1400 R67112               2AZ
205522008205522903-000517     205522006001704012768SWT STRAWS FIZZY CHERRY0000002000+00001227+00000+0001T   00001227+0000001300          1400 R67150               2AZ
205523000205523               205523               170213ON     1400+00000+ON0000006139+0000006139+000000000+000000860+0000006999+0000000000+I40000006999+0000000000+Z
205523001205523368-000265     205523006001023750914PLUSH BEAR 23CM ASSTD C0000001000+00006139+00000+0001T   00006139+0000001302          1400 R67745               2AZ
205524000205524               205524               170213ON     1400+00000+ON0000015821+0000015821+000000000+000002216+0000018037+0000000000+I40000018037+0000000000+Z
205524001205524567-010161     205524009780000008516BOOK TOP ASSTD MILLS   0000003000+00005262+00000+0001T   00005262+0000001304          1400 R67757               2AZ
205524002205524112-116038     205524006009681820246TCS CARRIER BAG MIDI   0000001000+00000035+00000+0001T   00000035+0000001304          1400 R67090               2AZ
205525000205525               205525               170213ON     1400+00000+ON0000000735+0000000735+000000000+000000103+0000000830+0000000008+I20000000000+0000000830+Z
205525001205525007-000406     205525006009635830659NATURE-STUDY-BOOK 72PG 0000001000+00000700+00000+0001T   00000700+0000001308          1400 R67130               2AZ
205525002205525112-116038     205525006009681820246TCS CARRIER BAG MIDI   0000001000+00000035+00000+0001T   00000035+0000001308          1400 R67090               2AZ
205526000205526               205526               170213ON     1400+00000+ON0000007049+0000007049+000000000+000000987+0000008036+0000000000+I40000008036+0000000000+Z
205526001205526018-005009     205526006001023725608MUG W/PLUSH-BEAR LOVE  0000002000+00003507+00000+0001T   00003507+0000001310          1400 R67515               2AZ
205526002205526112-116038     205526006009681820246TCS CARRIER BAG MIDI   0000001000+00000035+00000+0001T   00000035+0000001310          1400 R67090               2AZ
205527000205527               205527               170213ON     1400+00000+ON0000011398+0000011398+000000000+000001597+0000012990+0000000005+I20000000000+0000012990+Z
205527001205527365-003048     205527006001023589354PLAY BEAUTY COSMETIC   0000001000+00004385+00000+0001T   00004385+0000001313          1400 R67725               2AZ
205527002205527464-009010     205527006001023800756FISHING-GAME MAG +ROD  0000001000+00003507+00000+0001T   00003507+0000001313          1400 R67785               2AZ
205527003205527565-001212     205527006001023658173NOVELTY MAGIC-SPRING   0000002000+00001753+00000+0001T   00001753+0000001313          1400 R67745               2AZ
205528000205528               205528               170213ON     1400+00000+ON0000009242+0000009242+000000000+000001295+0000010530+0000000007+I20000000000+0000010530+Z
205528001205528301-085007     205528006003000673698ORN OCC. LOVE S/PLAQUE 0000001000+00007893+00000+0001T   00007893+0000001314          1400 R67505               2AZ
205528002205528077-000312     205528006001023608697GIFT-BAG 10X35CM GLOSS 0000001000+00001314+00000+0001T   00001314+0000001314          1400 R67112               2AZ
205528003205528112-116038     205528006009681820246TCS CARRIER BAG MIDI   0000001000+00000035+00000+0001T   00000035+0000001314          1400 R67090               2AZ
205529000205529               205529               170213ON     1400+00000+ON0000007573+0000007573+000000000+000001061+0000008634+0000000000+I40000008634+0000000000+Z
205529001205529089-060027     205529006003000245871KEY-CHAIN HEART 6X6cm  0000002000+00003069+00000+0001T   00003069+0000001316          1400 R67205               2AZ
205529002205529018-000177     205529006001023797513MUG MINI LOVE ASSTD    0000002000+00000700+00000+0001T   00000700+0000001316          1400 R67515               2AZ
205529003205529112-116038     205529006009681820246TCS CARRIER BAG MIDI   0000001000+00000035+00000+0001T   00000035+0000001316          1400 R67090               2AZ
205530000205530               205530               170213ON     1400+00000+ON0000002630+0000002630+000000000+000000369+0000002990+0000000009+I20000000000+0000002990+Z
205530001205530079-000254     205530006002923016407ART APRON ASSTD        0000001000+00002630+00000+0001T   00002630+0000001317          1400 R67130               2AZ
205531000205531               205531               170213ON     1400+00000+ON0000002630+0000002630+000000000+000000369+0000002999+0000000000+I40000002999+0000000000+Z
205531001205531103-000215     205531006003000568635BASKET WICKER/IRON     0000001000+00002630+00000+0001T   00002630+0000001318          1400 R67300               2AZ
205532000205532               205532               170213ON     1400+00000+ON0000005262+0000005262+000000000+000000737+0000005990+0000000009+I20000000000+0000005990+Z
205532001205532567-010161     205532009780000008516BOOK TOP ASSTD MILLS   0000001000+00005262+00000+0001T   00005262+0000001318          1400 R67757               2AZ
205533000205533               205533               170213ON     1400+00000+ON0000000613+0000000613+000000000+000000086+0000000690+0000000009+I20000000000+0000000690+Z
205533001205533077-000311     205533006001023608666GIFT-BAG 11X14CM GLOSS 0000001000+00000613+00000+0001T   00000613+0000001319          1400 R67112               2AZ
205534000205534               205534               170213ON     1400+00000+ON0000003069+0000003069+000000000+000000430+0000003499+0000000000+I40000003499+0000000000+Z
205534001205534106-000899     205534006003000653287WTR BOTTLE 2L W/HANDLE 0000001000+00003069+00000+0001T   00003507+0008191321          1400 R67210               2AZ
205535000205535               205535               170213ON     1400+00000+ON0000046536+0000046536+000000000+000006527+0000053063+0000000000+I40000053063+0000000000+Z
205535001205535077-000303     205535006001023593757GIFT-BAG PAPER MED     0000001000+00001578+00000+0001T   00001578+0000001328          1400 R67112               2AZ
205535002205535267-006048     205535000047754184303PUZZLE LICENSED STAR   0000001000+00002630+00000+0001T   00003507+0008141328          1400 R67755               2AZ
205535003205535306-000020     205535006001023743145POCKET-TISSUES 10PCE   0000001000+00000306+00000+0001T   00000306+0000001328          1400 R67200               2AZ
205535004205535903-000844     205535005010478432567SWT CANDY DL LUV HEARTS0000001000+00001314+00000+0001T   00001314+0000001328          1400 R67150               2AZ
205535005205535903-002853     205535000000087108019MENTOS ROLL MINT       0000001000+00001051+00000+0001T   00001051+0000001328          1400 R67150               2AZ
205535006205535077-000303     205535006001023593757GIFT-BAG PAPER MED     0000001000+00001578+00000+0001T   00001578+0000001328          1400 R67112               2AZ
205535007205535903-000844     205535005010478432567SWT CANDY DL LUV HEARTS0000001000+00001314+00000+0001T   00001314+0000001328          1400 R67150               2AZ
205535008205535903-002853     205535000000087108019MENTOS ROLL MINT       0000001000+00001051+00000+0001T   00001051+0000001328          1400 R67150               2AZ
205535009205535306-000020     205535006001023743145POCKET-TISSUES 10PCE   0000001000+00000306+00000+0001T   00000306+0000001328          1400 R67200               2AZ
205535010205535267-000300     205535006003000162970PUZZLE BLOCKS ASSTD    0000001000+00002630+00000+0001T   00002630+0000001328          1400 R67755               2AZ
205535011205535079-000206     205535006003000639700PENCIL CRAYONS THERAPY 0000003000+00001753+00000+0001T   00001753+0000001328          1400 R67130               2AZ
205535012205535567-011343     205535006003000630592BK COLOURING THERAPY   0000003000+00003507+00000+0001T   00003507+0000001328          1400 R67757               2AZ
205535013205535112-116069     205535006009681820277TCS CARRIER BAG JUMBO  0000001000+00000048+00000+0001T   00000048+0000001328          1400 R67090               2AZ
205535014205535077-000299     205535006003000395576G/BAG 32x25cm LRG LOVE 0000003000+00001490+00000+0001T   00001490+0000001328          1400 R67112               2AZ
205535015205535903-000844     205535005010478432567SWT CANDY DL LUV HEARTS0000003000+00001314+00000+0001T   00001314+0000001328          1400 R67150               2AZ
205535016205535903-002853     205535000000087108019MENTOS ROLL MINT       0000003000+00001051+00000+0001T   00001051+0000001328          1400 R67150               2AZ
205535017205535903-000483     205535006001704001410SWT LIQUOR SML SORT 60G0000003000+00000876+00000+0001T   00000876+0000001328          1400 R67150               2AZ
205535018205535077-000321     205535006001023677501GIFT-BAG 11X14CM E/D FL0000003000+00000613+00000+0001T   00000613+0000001328          1400 R67112               2AZ
205535019205535306-000020     205535006001023743145POCKET-TISSUES 10PCE   0000003000+00000306+00000+0001T   00000306+0000001328          1400 R67200               2AZ
205536000205536               205536               170213ON     1400+00000+ON0000001753+0000001753+000000000+000000246+0000001990+0000000009+I20000000000+0000001990+Z
205536001205536077-000301     205536008010410010188BAG LRG 25X32CM B/DAY  0000001000+00001753+00000+0001T   00001753+0000001329          1400 R67112               2AZ
205537000205537               205537               170213ON     1400+00000+ON0000002102+0000002102+000000000+000000296+0000002390+0000000008+I20000000000+0000002390+Z
205537001205537079-009702-C   205537008427973059309PAPER SIRIO A2 VIOLET  0000002000+00001051+00000+0001T   00001051+0000001330          1400 R67130               2AZ
205538000205538               205538               170213ON     1400+00000+ON0000000700+0000000700+000000000+000000098+0000000790+0000000008+I20000000000+0000000790+Z
205538001205538018-000177     205538006001023797513MUG MINI LOVE ASSTD    0000001000+00000700+00000+0001T   00000700+0000001330          1400 R67515               2AZ
205539000205539               205539               170213ON     1400+00000+ON0000000613+0000000613+000000000+000000086+0000000690+0000000009+I20000000000+0000000690+Z
205539001205539033-008209     205539006001023678607MEASURING-TAPE 150cm   0000001000+00000613+00000+0001T   00000613+0000001436          1400 R67200               2AZ
205540000205540               205540               170213ON     1400+00000+ON0000008802+0000008802+000000000+000001234+0000010036+0000000000+I40000010036+0000000000+Z
205540001205540018-019000     205540006003000557288MUG OCC. LOVE JUMBO    0000001000+00005262+00000+0001T   00005262+0000001454          1400 R67515               2AZ
205540002205540903-000521     205540006001704009652SWT GUMMY SOFT GUMS    0000001000+00000876+00000+0001T   00000876+0000001454          1400 R67150               2AZ
205540003205540903-000897     205540008692806325207SWT CHOC DBL MINI ROLL 0000001000+00000876+00000+0001T   00000876+0000001454          1400 R67150               2AZ
205540004205540077-000115     205540006001023834225WRAP METALLIC 700mmx1m 0000001000+00001753+00000+0001T   00001753+0000001454          1400 R67112               2AZ
205540005205540112-116038     205540006009681820246TCS CARRIER BAG MIDI   0000001000+00000035+00000+0001T   00000035+0000001454          1400 R67090               2AZ
205541000205541               205541               170213ON     1400+00000+ON0000001227+0000001227+000000000+000000172+0000001390+0000000009+I20000000000+0000001390+Z
205541001205541903-000519     205541006001704012805SWT MS LIQ-O-GHETTI    0000001000+00001227+00000+0001T   00001227+0000001454          1400 R67150               2AZ
205542000205542               205542               170213ON     1400+00000+ON0000001928+0000001928+000000000+000000270+0000002190+0000000008+I20000000000+0000002190+Z
205542001205542106-001115     205542006009654960313WATER-BOTTLE PL 750ml  0000001000+00001928+00000+0001T   00001928+0000001502          1400 R67210               2AZ
205543000205543               205543               170213ON     1400+00000+ON0000001788+0000001788+000000000+000000251+0000002030+0000000009+I20000000000+0000002030+Z
205543001205543366-002799     205543006003000648238DRESSUP S/ADH FACE HAIR0000001000+00001753+00000+0001T   00001753+0000001504          1400 R67131               2AZ
205543002205543112-116038     205543006009681820246TCS CARRIER BAG MIDI   0000001000+00000035+00000+0001T   00000035+0000001504          1400 R67090               2AZ
205544000205544               205544               170213ON     1400+00000+ON0000000613+0000000613+000000000+000000086+0000000690+0000000009+I20000000000+0000000690+Z
205544001205544033-008209     205544006001023678607MEASURING-TAPE 150cm   0000001000+00000613+00000+0001T   00000613+0000001505          1400 R67200               2AZ
205545000205545               205545               170213ON     1400+00000+ON0000005262+0000005262+000000000+000000737+0000005999+0000000000+I40000005999+0000000000+Z
205545001205545018-019000     205545006003000557288MUG OCC. LOVE JUMBO    0000001000+00005262+00000+0001T   00005262+0000001509          1400 R67515               2AZ
205546000205546               205546               170213ON     1400+00000+ON0000002630+0000002630+000000000+000000369+0000002990+0000000009+I20000000000+0000002990+Z
205546001205546019-071600     205546006001023771971RIVER-STONES 1kg MIXED 0000001000+00002630+00000+0001T   00002630+0000001510          1400 R67510               2AZ
205547000205547               205547               170213ON     1400+00000+ON0000006785+0000006785+000000000+000000952+0000007730+0000000007+I20000000000+0000007730+Z
205547001205547077-000299     205547006003000395576G/BAG 32x25cm LRG LOVE 0000001000+00001490+00000+0001T   00001490+0000001511          1400 R67112               2AZ
205547002205547018-000025     205547006003000095056MUG S/WARE V-SHAPE CER.0000001000+00002630+00000+0001T   00002630+0000001511          1400 R67515               2AZ
205547003205547031-000868-B   205547006001023798565P/FRAME PL BLCK 13X18CM0000001000+00002630+00000+0001T   00002630+0000001511          1400 R67510               2AZ
205547004205547112-116038     205547006009681820246TCS CARRIER BAG MIDI   0000001000+00000035+00000+0001T   00000035+0000001511          1400 R67090               2AZ
205548000205548               205548               170213ON     1400+00000+ON0000012278+0000012278+000000000+000001719+0000013997+0000000000+I40000013997+0000000000+Z
205548001205548019-000080     205548006001023775740VASE GLS FLORIST BALL  0000001000+00008771+00000+0001T   00008771+0000001514          1400 R67510               2AZ
205548002205548079-000195     205548006003000161485P/CRAYONS RETRCTBLEx10 0000001000+00003507+00000+0001T   00003507+0000001514          1400 R67130               2AZ
205549000205549               205549               170213ON     1400+00000+ON0000024074+0000024074+000000000+000003372+0000027446+0000000000+I40000027446+0000000000+Z
205549001205549077-000303     205549006001023593757GIFT-BAG PAPER MED     0000001000+00001578+00000+0001T   00001578+0000001517          1400 R67112               2AZ
205549002205549018-000130     205549006001023867537MUG OCC LOVE MINI+HEART0000001000+00003507+00000+0001T   00003507+0000001517          1400 R67515               2AZ
205549003205549077-000303     205549006001023593757GIFT-BAG PAPER MED     0000001000+00001578+00000+0001T   00001578+0000001517          1400 R67112               2AZ
205549004205549018-050000     205549006003000412679MUG OCC LOVE TWIN BEAR 0000001000+00006139+00000+0001T   00006139+0000001517          1400 R67515               2AZ
205549005205549018-005007     205549006003000515516MUG OCC. LOVE W/HEARTS 0000001000+00006139+00000+0001T   00006139+0000001517          1400 R67515               2AZ
205549006205549077-000303     205549006001023593757GIFT-BAG PAPER MED     0000001000+00001578+00000+0001T   00001578+0000001517          1400 R67112               2AZ
205549007205549018-000130     205549006001023867537MUG OCC LOVE MINI+HEART0000001000+00003507+00000+0001T   00003507+0000001517          1400 R67515               2AZ
205549008205549112-116069     205549006009681820277TCS CARRIER BAG JUMBO  0000001000+00000048+00000+0001T   00000048+0000001517          1400 R67090               2AZ
205550000205550               205550               170213ON     1400+00000+ON0000017588+0000017588+000000000+000002463+0000020051+0000000000+I40000020051+0000000000+Z
205550001205550174-000173     205550006001023905307STORAGE-BOX COLLAPSIBLE0000004000+00004385+00000+0001T   00004385+0000001518          1400 R67205               2AZ
205550002205550112-116069     205550006009681820277TCS CARRIER BAG JUMBO  0000001000+00000048+00000+0001T   00000048+0000001518          1400 R67090               2AZ
205551000205551               205551               170213ON     1400+00000+ON0000014867+0000014867+000000000+000002083+0000016950+0000000000+I20000000000+0000016950+Z
205551001205551365-003047     205551006001023859891PLAY SET 20PCE TEA SET 0000001000+00008771+00000+0001T   00010525+0008191520          1400 R67725               2AZ
205551002205551365-002999     205551006001023583734KITCHEN-SET W/ACCESS.  0000001000+00003507+00000+0001T   00003507+0000001520          1400 R67725               2AZ
205551003205551077-000381     205551006003000247707GIFT-BAG 25X32CM S/COL 0000001000+00001753+00000+0001T   00001753+0000001520          1400 R67112               2AZ
205551004205551077-000010-D   205551006001023123886CREPE-PAPER WHITE      0000001000+00000788+00000+0001T   00000788+0000001520          1400 R67112               2AZ
205551005205551112-116069     205551006009681820277TCS CARRIER BAG JUMBO  0000001000+00000048+00000+0001T   00000048+0000001520          1400 R67090               2AZ
205552000205552               205552               170213ON     1400+00000+ON0000008361+0000008361+000000000+000001173+0000009534+0000000000+I40000009534+0000000000+Z
205552001205552046-002450-PK2 205552004897006178446BATTERY LITHIUM CR-24500000001000+00002630+00000+0001T   00002630+0000001522          1400 R67312               2AZ
205552002205552077-000011-F   205552006001023808431TISSUE-WRAP BLUE/LILAC 0000001000+00000876+00000+0001T   00000876+0000001522          1400 R67112               2AZ
205552003205552077-000011-C   205552006001023808523TISSUE 10xSHTS RED     0000001000+00000876+00000+0001T   00000876+0000001522          1400 R67112               2AZ
205552004205552082-000392     205552006003000621811SPECTACLE REPAIR KIT   0000001000+00002192+00000+0001T   00002192+0000001522          1400 R67160               2AZ
205552005205552077-000151     205552006008766114676GIFT-WRAP C/PHANE ASSTD0000002000+00000876+00000+0001T   00000876+0000001522          1400 R67112               2AZ
205552006205552112-116038     205552006009681820246TCS CARRIER BAG MIDI   0000001000+00000035+00000+0001T   00000035+0000001522          1400 R67090               2AZ
205553000205553               205553               170213ON     1400+00000+ON0000003891+0000003891+000000000+000000546+0000004430+0000000007+I20000000000+0000004430+Z
205553001205553039-081008     205553006008766081008CANDLES 9PCE SCENTED   0000001000+00002630+00000+0001T   00002630+0000001523          1400 R67510               2AZ
205553002205553077-000311     205553006001023608666GIFT-BAG 11X14CM GLOSS 0000002000+00000613+00000+0001T   00000613+0000001523          1400 R67112               2AZ
205553003205553112-116038     205553006009681820246TCS CARRIER BAG MIDI   0000001000+00000035+00000+0001T   00000035+0000001523          1400 R67090               2AZ
205554000205554               205554               170213ON     1400+00000+ON0000003977+0000003977+000000000+000000557+0000004530+0000000004+I20000000000+0000004530+Z
205554001205554108-001217     205554006003000010967CUPS SET-OF-4 P/SLEEVE 0000003000+00001314+00000+0001T   00001753+0008171523          1400 R67210               2AZ
205554002205554112-116038     205554006009681820246TCS CARRIER BAG MIDI   0000001000+00000035+00000+0001T   00000035+0000001523          1400 R67090               2AZ
205555000205555               205555               170213ON     1400+00000+ON0000002192+0000002192+000000000+000000307+0000002499+0000000000+I40000002499+0000000000+Z
205555001205555080-000127     205555006003000424351VALENTINES DAY 36x24CM 0000001000+00002192+00000+0001T   00002192+0000001526          1400 R67112               2AZ
205556000205556               205556               170213ON     1400+00000+ON0000007661+0000007661+000000000+000001077+0000008738+0000000000+I40000008738+0000000000+Z
205556001205556006-000172-B   205556006003000609819BALLOONS METALLIC L/GRN0000005000+00000218+00000+0001T   00000218+0000001531          1400 R67131               2AZ
205556002205556006-000120     205556006001023346889BALLOONS 10PC MIX COL  0000002000+00001753+00000+0001T   00001753+0000001531          1400 R67131               2AZ
205556003205556006-001000     205556006003000093779HELIUM BALLOON FILL    0000005000+00000613+00000+0001T   00000613+0000001531          1400 R67131               2AZ
205557000205557               205557               170213ON     1400+00000+ON0000000876+0000000876+000000000+000000123+0000000990+0000000009+I20000000000+0000000990+Z
205557001205557903-000897     205557008692806325207SWT CHOC DBL MINI ROLL 0000001000+00000876+00000+0001T   00000876+0000001532          1400 R67150               2AZ
205558000205558               205558               170213ON     1400+00000+ON0000002366+0000002366+000000000+000000332+0000002690+0000000008+I20000000000+0000002690+Z
205558001205558077-000311     205558006001023608666GIFT-BAG 11X14CM GLOSS 0000001000+00000613+00000+0001T   00000613+0000001533          1400 R67112               2AZ
205558002205558077-000299-A   205558006003000670888GIFT-BAG PAPER JMB LOVE0000001000+00001753+00000+0001T   00001753+0000001533          1400 R67112               2AZ
205559000205559               205559               170213ON     1400+00000+ON0000003067+0000003067+000000000+000000431+0000003498+0000000000+I40000003498+0000000000+Z
205559001205559039-000332     205559006001023900470CANDLES 8PCE+NUMBERS   0000001000+00002630+00000+0001T   00002630+0000001534          1400 R67510               2AZ
205559002205559080-000133-A   205559006003000647019MINI VALENTINES CARD   0000001000+00000437+00000+0001T   00000437+0000001534          1400 R67112               2AZ
205560000205560               205560               170213ON     1400+00000+ON0000001753+0000001753+000000000+000000246+0000001990+0000000009+I20000000000+0000001990+Z
205560001205560106-001105     205560006001023711564WATER-BOTTLE 500ml     0000001000+00001753+00000+0001T   00001753+0000001535          1400 R67210               2AZ
205561000205561               205561               170213ON     1400+00000+ON0000007893+0000007893+000000000+000001106+0000008990+0000000009+I20000000000+0000008990+Z
205561001205561004-071209     205561006003000604678MOBILE IN CAR HOLDER   0000001000+00007893+00000+0001T   00007893+0000001613          1400 R67310               2AZ
205562000205562               205562               170213ON     1400+00000+ON0000005308+0000005308+000000000+000000745+0000006053+0000000000+I40000006053+0000000000+Z
205562001205562077-000115-B   205562006003000181025GIFT-WRAP PPR 700MMX2M 0000002000+00002630+00000+0001T   00002630+0000001614          1400 R67112               2AZ
205562002205562112-116069     205562006009681820277TCS CARRIER BAG JUMBO  0000001000+00000048+00000+0001T   00000048+0000001614          1400 R67090               2AZ
205563000205563               205563               170213ON     1400+00000+ON0000004904+0000004904+000000000+000000688+0000005590+0000000002+I20000000000+0000005590+Z
205563001205563006-001000     205563006003000093779HELIUM BALLOON FILL    0000008000+00000613+00000+0001T   00000613+0000001623          1400 R67131               2AZ
205564000205564               205564               170213ON     1400+00000+ON0000002630+0000002630+000000000+000000369+0000002990+0000000009+I20000000000+0000002990+Z
205564001205564020-000010     205564006003000405718KNIFE SHARPENER SUCTION0000001000+00002630+00000+0001T   00002630+0000001653          1400 R67300               2AZ
205565000205565               205565               170213ON     1400+00000+ON0000009906+0000009906+000000000+000001389+0000011295+0000000000+I40000011295+0000000000+Z
205565001205565200-000031-A   205565006003000598717DISPOSABLE ROLL FOIL   0000001000+00002630+00000+0001T   00002630+0000001656          1400 R67214               2AZ
205565002205565567-011911     205565009780799375442BK EDU VOORSPRONG AFR  0000001000+00002630+00000+0001T   00002630+0000001656          1400 R67757               2AZ
205565003205565007-000324     20556500600968585864125 SHEETS BRIGHTS MARLI0000001000+00003507+00000+0001T   00003507+0000001656          1400 R67130               2AZ
205565004205565162-097716     205565006001492977164#TAG NEW GOLD E/PIERCE 0000001000+00001139+00000+0001T   00001139+0000001656          1400 R67160               2AZ
205566000205566               205566               170213ON     1400+00000+ON0000003330+0000003330+000000000+000000467+0000003790+0000000007+I20000000000+0000003790+Z
205566001205566304-000720     205566006001023843050F/BUNCH ROSE 6-HEAD AST0000001000+00002630+00000+0001T   00002630+0000001702          1400 R67510               2AZ
205566002205566033-010721     205566006001023678669SAFETY-PINS 20PCE ASSTD0000001000+00000700+00000+0001T   00000700+0000001702          1400 R67200               2AZ
205567000205567               205567               170213ON     1400+00000+ON0000012310+0000012310+000000000+000001724+0000014034+0000000000+I40000014034+0000000000+Z
205567001205567368-000151     205567006003000166725PLUSH BEAR 14cm        0000001000+00004385+00000+0001T   00004385+0000001704          1400 R67745               2AZ
205567002205567077-000470     205567006003000330171G-BAG DESGN SML 11X14CM0000001000+00001314+00000+0001T   00001314+0000001704          1400 R67112               2AZ
205567003205567301-086006     205567006003000498918ORN OCCASION LOVE 4ASTD0000001000+00005262+00000+0001T   00005262+0000001704          1400 R67505               2AZ
205567004205567077-000470     205567006003000330171G-BAG DESGN SML 11X14CM0000001000+00001314+00000+0001T   00001314+0000001704          1400 R67112               2AZ
205567005205567112-116038     205567006009681820246TCS CARRIER BAG MIDI   0000001000+00000035+00000+0001T   00000035+0000001704          1400 R67090               2AZ
205568000205568               205568               170213ON     1400+00000+ON0000004557+0000004557+000000000+000000639+0000005196+0000000000+I40000005196+0000000000+Z
205568001205568080-000133-A   205568006003000647019MINI VALENTINES CARD   0000001000+00000437+00000+0001T   00000437+0000001711          1400 R67112               2AZ
205568002205568018-000136     205568006001023659026MUG OCC LOVE W/PLUSH   0000001000+00003507+00000+0001T   00003507+0000001711          1400 R67515               2AZ
205568003205568077-000311     205568006001023608666GIFT-BAG 11X14CM GLOSS 0000001000+00000613+00000+0001T   00000613+0000001711          1400 R67112               2AZ
205569000205569               205569               170213ON     1400+00000+ON0000003542+0000003542+000000000+000000496+0000004030+0000000008+I20000000000+0000004030+Z
205569001205569018-000136     205569006001023659026MUG OCC LOVE W/PLUSH   0000001000+00003507+00000+0001T   00003507+0000001719          1400 R67515               2AZ
205569002205569112-116038     205569006009681820246TCS CARRIER BAG MIDI   0000001000+00000035+00000+0001T   00000035+0000001719          1400 R67090               2AZ
205570000205570               205570               170213ON     1400+00000+ON0000001753+0000001753+000000000+000000246+0000001990+0000000009+I20000000000+0000001990+Z
205570001205570071-001231     205570006003000144990ERASER RETRACT 2PK     0000001000+00001753+00000+0001T   00001753+0000001720          1400 R67130               2AZ
205571000205571               205571               170213ON     1400+00000+ON0000001490+0000001490+000000000+000000209+0000001699+0000000000+I40000001699+0000000000+Z
205571001205571077-000305     205571006003000395422GIFT-BAG WINE 10X35CM  0000001000+00001490+00000+0001T   00001490+0000001722          1400 R67112               2AZ
205572000205572               205572               170213ON     1400+00000+ON0000003506+0000003506+000000000+000000492+0000003998+0000000000+I40000003998+0000000000+Z
205572001205572104-000031     205572006003000614950BASKET PL 27x18x12cm   0000001000+00002630+00000+0001T   00002630+0000001725          1400 R67210               2AZ
205572002205572366-002681     205572006003000653744DRESS UP HAT FIRE CHIEF0000001000+00000876+00000+0001T   00000876+0000001725          1400 R67131               2AZ
205573000205573               205573               170213ON     1400+00000+ON0000001578+0000001578+000000000+000000221+0000001790+0000000009+I20000000000+0000001790+Z
205573001205573077-000315     205573006003000181186GIFT-BAG 20x28cm MATT  0000001000+00001578+00000+0001T   00001578+0000001726          1400 R67112               2AZ
205574000205574               205574               170213ON     1400+00000+ON0000006620+0000006620+000000000+000000929+0000007549+0000000000+I40000007549+0000000000+Z
205574001205574006-000812     205574006001023902832HAT CONE WITH TINSEL   0000001000+00000876+00000+0001T   00000876+0000001731          1400 R67131               2AZ
205574002205574077-000011-D   205574006001023808554TISSUE-WRAP WHITE 10PCE0000001000+00000876+00000+0001T   00000876+0000001731          1400 R67112               2AZ
205574003205574077-000310     205574006001023608635GIFT-BAG 18X23CM GLOSS 0000001000+00001314+00000+0001T   00001314+0000001731          1400 R67112               2AZ
205574004205574077-000301     205574008010410010188BAG LRG 25X32CM B/DAY  0000001000+00001753+00000+0001T   00001753+0000001731          1400 R67112               2AZ
205574005205574077-000316     205574006001023609731GIFT-BAG 25X32CM MATT  0000001000+00001753+00000+0001T   00001753+0000001731          1400 R67112               2AZ
205574006205574112-116069     205574006009681820277TCS CARRIER BAG JUMBO  0000001000+00000048+00000+0001T   00000048+0000001731          1400 R67090               2AZ
205575000205575               205575               170213ON     1400+00000+ON0000008153+0000008153+000000000+000001143+0000009296+0000000000+I40000009296+0000000000+Z
205575001205575162-081665     205575006001492816654SS 18PK HAIR ELASTICS  0000001000+00001753+00000+0001T   00001753+0000001733          1400 R67160               2AZ
205575002205575056-005748     205575006003000491797CAR AIR-FRESH HATS ASST0000001000+00002630+00000+0001T   00002630+0000001733          1400 R67860               2AZ
205575003205575077-000303     205575006001023593757GIFT-BAG PAPER MED     0000001000+00001578+00000+0001T   00001578+0000001733          1400 R67112               2AZ
205575004205575080-000127     205575006003000424351VALENTINES DAY 36x24CM 0000001000+00002192+00000+0001T   00002192+0000001733          1400 R67112               2AZ
205576000205576               205576               170213ON     1400+00000+ON0000009607+0000009607+000000000+000001346+0000010953+0000000000+I40000010953+0000000000+Z
205576001205576077-000383     205576006003000247943GIFT-BAG 11X14CM S/COL 0000001000+00000788+00000+0001T   00000788+0000001735          1400 R67112               2AZ
205576002205576466-001100     205576006003000470297C/SET FOAM 60cm +1 BALL0000001000+00008771+00000+0001T   00008771+0000001735          1400 R67785               2AZ
205576003205576112-116069     205576006009681820277TCS CARRIER BAG JUMBO  0000001000+00000048+00000+0001T   00000048+0000001735          1400 R67090               2AZ
205577000205577               205577               170213ON     1400+00000+ON0000019646+0000019646+000000000+000002755+0000022401+0000000000+I40000022401+0000000000+Z
205577002205577133-061111     205577006001023775092TOWEL MAGIC ALL-PURPOSE0000002000+00002630+00000+0001T   00002630+0000001742          1400 R67212               2AZ
205577003205577112-116069     205577006009681820277TCS CARRIER BAG JUMBO  0000001000+00000048+00000+0001T   00000048+0000001742          1400 R67090               2AZ
205577004205577105-001079     205577000700371655921CONTAINER 2.2L CLIP LOC0000001000+00002455+00000+0001T   00002455+0000001742          1400 R67210               2AZ
205577005205577024-000018     205577006001023610232CAKE-DEC S/S NOZZLE    0000001000+00003946+00000+0001T   00003946+0000001742          1400 R67300               2AZ
205577006205577024-091101     205577006003000419999B/CUP PAPER CUPS FLOWER0000001000+00003507+00000+0001T   00003507+0000001742          1400 R67300               2AZ
205577007205577009-001309     205577006001023854667MELAMINE FLOWER BOWL   0000001000+00001753+00000+0001T   00001753+0000001742          1400 R67210               2AZ
205577008205577903-000220     205577006001704007368SWT JELLY BEANS 60G    0000001000+00000876+00000+0001T   00000876+0000001742          1400 R67150               2AZ
205577009205577077-000290     205577006001023902023GIFT BOX 26x32x13cm    0000001000+00001753+00000+0001T   00001753+0000001742          1400 R67112               2AZ
205577010205577112-116069     205577006009681820277TCS CARRIER BAG JUMBO  0000001000+00000048+00000+0001T   00000048+0000001742          1400 R67090               2AZ
205578000205578               205578               170213ON     1400+00000+ON0000004344+0000004344+000000000+000000609+0000004953+0000000000+I40000004953+0000000000+Z
205578001205578080-000127     205578006003000424351VALENTINES DAY 36x24CM 0000001000+00002192+00000+0001T   00002192+0000001744          1400 R67112               2AZ
205578002205578903-000095     205578006001704011495SWT SPECKLED-EGGS 100G 0000001000+00002104+00000+0001T   00002104+0000001744          1400 R67150               2AZ
205578003205578112-116069     205578006009681820277TCS CARRIER BAG JUMBO  0000001000+00000048+00000+0001T   00000048+0000001744          1400 R67090               2AZ
205579000205579               205579               170213ON     1400+00000+ON0000021439+0000021439+000000000+000003004+0000024443+0000000000+I40000024443+0000000000+Z
205579001205579079-013099     205579006003000081875ART+CRAFT EYES ASSTD   0000002000+00001753+00000+0001T   00001753+0000001747          1400 R67130               2AZ
205579002205579079-000358     205579006003000591046ART+CRAFT FELT-TIP PENS0000001000+00003069+00000+0001T   00003069+0000001747          1400 R67130               2AZ
205579003205579077-000010-U   205579006001023168863CREPE-PAPER CERISE-PINK0000001000+00000788+00000+0001T   00000788+0000001747          1400 R67112               2AZ
205579004205579567-075490     205579009780799377576BK NOVEL ROMANCE AFR   0000001000+00003507+00000+0001T   00003507+0000001747          1400 R67757               2AZ
205579005205579567-075490     205579009780799377569BK NOVEL ROMANCE AFR   0000002000+00003507+00000+0001T   00003507+0000001747          1400 R67757               2AZ
205579006205579567-075490     205579009780799376920BK NOVEL ROMANCE AFR   0000001000+00003507+00000+0001T   00003507+0000001747          1400 R67757               2AZ
205579007205579112-116069     205579006009681820277TCS CARRIER BAG JUMBO  0000001000+00000048+00000+0001T   00000048+0000001747          1400 R67090               2AZ
205580000205580               205580               170213ON     1400+00000+ON0000003507+0000003507+000000000+000000491+0000003990+0000000008+I20000000000+0000003990+Z
205580001205580106-001110     205580006001023857880SPORTS-BOTTLES SET-OF-20000001000+00003507+00000+0001T   00003507+0000001748          1400 R67210               2AZ
205581000205581               205581               170213ON     1400+00000+ON0000007366+0000007366+000000000+000001032+0000008390+0000000008+I20000000000+0000008390+Z
205581001205581077-000322     205581006001023677532GIFT-BAG 18X23CM E/D FL0000001000+00001227+00000+0001T   00001227+0000001749          1400 R67112               2AZ
205581002205581368-000175     205581006003000270316PLUSH BEAR 4 ASSTD 18CM0000001000+00006139+00000+0001T   00006139+0000001749          1400 R67745               2AZ
205582000205582               205582               170213ON     1400+00000+ON0000000437+0000000437+000000000+000000062+0000000490+0000000009+I20000000000+0000000490+Z
205582001205582080-000133-A   205582006003000647019MINI VALENTINES CARD   0000001000+00000437+00000+0001T   00000437+0000001750          1400 R67112               2AZ
205583000205583               205583               170213ON     1400+00000+ON0000005259+0000005259+000000000+000000738+0000005997+0000000000+I40000005997+0000000000+Z
205583001205583077-000299-A   205583006003000670888GIFT-BAG PAPER JMB LOVE0000001000+00001753+00000+0001T   00001753+0000001751          1400 R67112               2AZ
205583002205583016-006720     205583006003000674800S/JAR GLS RHEA 660ML   0000001000+00002630+00000+0001T   00002630+0000001751          1400 R67300               2AZ
205583003205583089-000192-A   205583006001023901774KEY-CHAIN ACRYLIC      0000001000+00000876+00000+0001T   00000876+0000001751          1400 R67205               2AZ
205584000205584               205584               170213ON     1400+00000+ON0000005730+0000005730+000000000+000000805+0000006530+0000000005+I20000000000+0000006530+Z
205584001205584104-000031     205584006003000614950BASKET PL 27x18x12cm   0000001000+00002630+00000+0001T   00002630+0000001752          1400 R67210               2AZ
205584002205584080-000133-A   205584006003000647019MINI VALENTINES CARD   0000001000+00000437+00000+0001T   00000437+0000001752          1400 R67112               2AZ
205584003205584077-000011-C   205584006001023808523TISSUE 10xSHTS RED     0000001000+00000876+00000+0001T   00000876+0000001752          1400 R67112               2AZ
205584004205584077-000011-D   205584006001023808554TISSUE-WRAP WHITE 10PCE0000001000+00000876+00000+0001T   00000876+0000001752          1400 R67112               2AZ
205584005205584567-014132     205584006003000560028BOOK COLOURING 24 PAGE 0000001000+00000876+00000+0001T   00000876+0000001752          1400 R67757               2AZ
205584006205584112-116038     205584006009681820246TCS CARRIER BAG MIDI   0000001000+00000035+00000+0001T   00000035+0000001752          1400 R67090               2AZ
205585000205585               205585               170213ON     1400+00000+ON0000000436+0000000436+000000000+000000062+0000000490+0000000008+I20000000000+0000000490+Z
205585001205585006-000173-C   205585006003000636518BALLOONS 1PC PINK      0000001000+00000218+00000+0001T   00000218+0000001753          1400 R67131               2AZ
205585002205585006-000173-B   205585006003000636358BALLOONS HELIUM 1PC WHT0000001000+00000218+00000+0001T   00000218+0000001753          1400 R67131               2AZ
205586000205586               205586               170213ON     1400+00000+ON0000019373+0000019373+000000000+000002719+0000022092+0000000000+I40000022092+0000000000+Z
205586001205586466-000074     205586006003000669202BALL RUGBY MESH 21.5cm 0000001000+00004385+00000+0001T   00004385+0000001758          1400 R67785               2AZ
205586002205586072-020320     205586006003000603343PET DOG TOY TUG-ROPE   0000001000+00002630+00000+0001T   00002630+0000001758          1400 R67870               2AZ
205586003205586071-001012     205586006001023474445MARKERS BLACK ROUND    0000001000+00000876+00000+0001T   00000876+0000001758          1400 R67130               2AZ
205586004205586083-000055     205586006003000003853LIGHTER ELCTRNC REFILBL0000001000+00000613+00000+0001T   00000613+0000001758          1400 R67315               2AZ
205586005205586083-000049     205586004891035200024CIG-LIGHTER DISPOSABLE 0000001000+00000437+00000+0001T   00000437+0000001758          1400 R67315               2AZ
205586006205586077-000299     205586006003000395576G/BAG 32x25cm LRG LOVE 0000002000+00001490+00000+0001T   00001490+0000001758          1400 R67112               2AZ
205586007205586112-116069     205586006009681820277TCS CARRIER BAG JUMBO  0000001000+00000048+00000+0001T   00000048+0000001758          1400 R67090               2AZ
205586008205586369-001138-B   205586006003000564972BABY BATH ROYAL DUCKS  0000001000+00002630+00000+0001T   00002630+0000001758          1400 R67745               2AZ
205586009205586903-000926     205586006914204004556SWT NOVELTY ST N/LACE  0000001000+00001753+00000+0001T   00001753+0000001758          1400 R67150               2AZ
205586010205586903-000183     205586006003000451043SWT LB HEART LOLLY     0000001000+00000393+00000+0001T   00000393+0000001758          1400 R67150               2AZ
205586011205586903-000221     205586006001704007382SWT EENY-MEENY-MOS 60G 0000001000+00000876+00000+0001T   00000876+0000001758          1400 R67150               2AZ
205586012205586903-000483     205586006001704001410SWT LIQUOR SML SORT 60G0000001000+00000876+00000+0001T   00000876+0000001758          1400 R67150               2AZ
205586013205586903-000482     205586006001704001397SWT SOFT-MINTS 60G     0000001000+00000876+00000+0001T   00000876+0000001758          1400 R67150               2AZ
205587000205587               205587               170213ON     1400+00000+ON0000001753+0000001753+000000000+000000246+0000001990+0000000009+I20000000000+0000001990+Z
205587001205587077-000308     205587006001023595812GIFT-BAG 33X45CM E/DAY 0000001000+00001753+00000+0001T   00001753+0000001758          1400 R67112               2AZ
205588000205588               205588               170213ON     1400+00000+ON0000006136+0000006136+000000000+000000861+0000006990+0000000007+I20000000000+0000006990+Z
205588001205588466-064834     205588006008766064834BALL W/SPIKES 20cm     0000001000+00001753+00000+0001T   00001753+0000001802          1400 R67785               2AZ
205588002205588077-000011-X   205588006001023809827TISSUE-WRAP SILVER 10PC0000001000+00001753+00000+0001T   00001753+0000001802          1400 R67112               2AZ
205588003205588072-020300     205588006008632000430DOG-TOY TUG-A-BALL SML 0000001000+00002630+00000+0001T   00002630+0000001802          1400 R67870               2AZ
205589000205589               205589               170213ON     1400+00000+ON0000004555+0000004555+000000000+000000641+0000005196+0000000000+I40000005196+0000000000+Z
205589001205589266-003012     205589006001023786128BOYS P/SET ARCHERY 4pc 0000001000+00002630+00000+0001T   00002630+0000001804          1400 R67710               2AZ
205589002205589903-002850     205589000000087108262MENTOS ROLL FRUIT      0000001000+00001051+00000+0001T   00001051+0000001804          1400 R67150               2AZ
205589003205589903-000094     205589006923431501622SWT GS CANDY NECKLACE  0000001000+00000437+00000+0001T   00000437+0000001804          1400 R67150               2AZ
205589004205589083-000049     205589004891035200024CIG-LIGHTER DISPOSABLE 0000001000+00000437+00000+0001T   00000437+0000001804          1400 R67315               2AZ
205590000205590               205590               170213ON     1400+00000+ON0000008938+0000008938+000000000+000001254+0000010192+0000000000+I40000010192+0000000000+Z
205590001205590007-000581     205590006001023710154NOTE-BOOK SET ASSTD    0000001000+00002630+00000+0001T   00002630+0000001806          1400 R67130               2AZ
205590002205590077-000010-C   205590006001023123879CREPE-PAPER RED        0000001000+00000788+00000+0001T   00000788+0000001806          1400 R67112               2AZ
205590003205590019-000130     205590006003000456130PLANTER T/PLATE W/HNDL 0000001000+00001753+00000+0001T   00001753+0000001806          1400 R67510               2AZ
205590004205590362-000311     205590006003000089895HAIR/WRIST BAND SET 6PC0000001000+00000700+00000+0001T   00000876+0008181806          1400 R67160               2AZ
205590005205590077-000310     205590006001023608635GIFT-BAG 18X23CM GLOSS 0000001000+00001314+00000+0001T   00001314+0000001806          1400 R67112               2AZ
205590006205590362-101402     205590006001023915894H/BAND SET 12PACK ASSTD0000001000+00001753+00000+0001T   00001753+0000001806          1400 R67160               2AZ
205591000205591               205591               170213ON     1400+00000+ON0000012751+0000012751+000000000+000001787+0000014538+0000000000+I40000014538+0000000000+Z
205591001205591903-000012     205591006002099007308SWT MALLOW S/BERRY     0000001000+00000437+00000+0001T   00000437+0000001808          1400 R67150               2AZ
205591002205591368-000111     205591006001023780812PLUSH BEAR/DOG 29CM    0000001000+00012279+00000+0001T   00012279+0000001808          1400 R67745               2AZ
205591003205591112-116038     205591006009681820246TCS CARRIER BAG MIDI   0000001000+00000035+00000+0001T   00000035+0000001808          1400 R67090               2AZ
205592000205592               205592               170213ON     1400+00000+ON0000006613+0000006613+000000000+000000926+0000007530+0000000009+I20000000000+0000007530+Z
205592001205592567-010160     205592006003000484966BOOK TOP ASSTD CHILDREN0000001000+00006578+00000+0001T   00006578+0000001808          1400 R67757               2AZ
205592002205592112-116038     205592006009681820246TCS CARRIER BAG MIDI   0000001000+00000035+00000+0001T   00000035+0000001808          1400 R67090               2AZ
205593000205593               205593               170213ON     1400+00000+ON0000005262+0000005262+000000000+000000737+0000005990+0000000009+I20000000000+0000005990+Z
205593001205593071-009832     205593006003000152674STATIONERY SET 4PCE    0000001000+00005262+00000+0001T   00005262+0000001809          1400 R67130               2AZ
205594000205594               205594               170213ON     1400+00000+ON0000037578+0000037578+000000000+000005264+0000042842+0000000000+I10000012842+0000030000+Z
205594001205594112-116069     205594006009681820277TCS CARRIER BAG JUMBO  0000001000+00000048+00000+0001T   00000048+0000001813          1400 R67090               2AZ
205594002205594464-003003     205594006003000328598GAME THINK:CHILDRENS   0000001000+00012279+00000+0001T   00012279+0000001813          1400 R67785               2AZ
205594003205594566-000065     205594006003000217915STICKERS GLITTER ASSTD 0000001000+00001753+00000+0001T   00001753+0000001813          1400 R67130               2AZ
205594004205594007-000547     205594006001023847966N/BOOK/DIARY+PEN ASSTD 0000001000+00004385+00000+0001T   00004385+0000001813          1400 R67130               2AZ
205594005205594079-000801     205594006003000539642ART+CRAFT COLOUR       0000001000+00003507+00000+0001T   00003507+0000001813          1400 R67130               2AZ
205594006205594077-000303     205594006001023593757GIFT-BAG PAPER MED     0000003000+00001578+00000+0001T   00001578+0000001813          1400 R67112               2AZ
205594007205594206-000630     205594006003000631919SPECTACLE CLEANING BRUS0000001000+00001227+00000+0001T   00001227+0000001813          1400 R67321               2AZ
205594008205594566-000065     205594006003000217915STICKERS GLITTER ASSTD 0000001000+00001753+00000+0001T   00001753+0000001813          1400 R67130               2AZ
205594009205594007-000547     205594006001023847966N/BOOK/DIARY+PEN ASSTD 0000001000+00004385+00000+0001T   00004385+0000001813          1400 R67130               2AZ
205594010205594079-000801     205594006003000539642ART+CRAFT COLOUR       0000001000+00003507+00000+0001T   00003507+0000001813          1400 R67130               2AZ
205595000205595               205595               170213ON     1400+00000+ON0000007926+0000007926+000000000+000001111+0000009037+0000000000+I40000009037+0000000000+Z
205595001205595903-000619     205595006003000672455SWT LOLLY STR/BRRY 140G0000002000+00001753+00000+0001T   00001753+0000001814          1400 R67150               2AZ
205595002205595162-093212     205595006001492932125#TAG ER 6PK SET-BALL   0000001000+00004385+00000+0001T   00004385+0000001814          1400 R67160               2AZ
205595003205595112-116038     205595006009681820246TCS CARRIER BAG MIDI   0000001000+00000035+00000+0001T   00000035+0000001814          1400 R67090               2AZ
205596000205596               205596               170213ON     1400+00000+ON0000008067+0000008067+000000000+000001131+0000009190+0000000008+I20000000000+0000009190+Z
205596001205596903-002850     205596000000087108262MENTOS ROLL FRUIT      0000001000+00001051+00000+0001T   00001051+0000001815          1400 R67150               2AZ
205596002205596007-000526     205596006001023637994STATIONERY GIRL FLOWER 0000001000+00007016+00000+0001T   00007016+0000001815          1400 R67130               2AZ
205597000205597               205597               170213ON     1400+00000+ON0000001753+0000001753+000000000+000000246+0000001999+0000000000+I40000001999+0000000000+Z
205597001205597077-000381     205597006003000247707GIFT-BAG 25X32CM S/COL 0000001000+00001753+00000+0001T   00001753+0000001816          1400 R67112               2AZ
205598000205598               205598               170213ON     1400+00000+ON0000002630+0000002630+000000000+000000369+0000002990+0000000009+I20000000000+0000002990+Z
205598001205598077-000270     205598006003000395453GIFT-BAG PPR JMB 33X45 0000001000+00002630+00000+0001T   00002630+0000001817          1400 R67112               2AZ
205599000205599               205599               170213ON     1400+00000+ON0000002365+0000002365+000000000+000000332+0000002697+0000000000+I40000002697+0000000000+Z
205599001205599079-009702-D   205599008427973059354PAPER SIRIO A2 RED COL 0000001000+00001051+00000+0001T   00001051+0000001819          1400 R67130               2AZ
205599002205599006-000167-C   205599006003000516971BALLOONS PINK METALLIC 0000001000+00001314+00000+0001T   00001314+0000001819          1400 R67131               2AZ
205600000205600               205600               170213ON     1400+00000+ON0000004418+0000004418+000000000+000000620+0000005038+0000000000+I40000005038+0000000000+Z
205600001205600018-000129     205600006001023403353MUG OCC. LOVE V-SHAPE  0000001000+00002630+00000+0001T   00002630+0000001821          1400 R67515               2AZ
205600002205600903-000612     205600006003000617449SWT TRUMPET 20cm       0000001000+00001753+00000+0001T   00001753+0000001821          1400 R67150               2AZ
205600003205600112-116038     205600006009681820246TCS CARRIER BAG MIDI   0000001000+00000035+00000+0001T   00000035+0000001821          1400 R67090               2AZ
205601000205601               205601               170213ON     1400+00000+ON0000012716+0000012716+000000000+000001781+0000014497+0000000000+I40000014497+0000000000+Z
205601001205601077-000299-A   205601006003000670888GIFT-BAG PAPER JMB LOVE0000001000+00001753+00000+0001T   00001753+0000001823          1400 R67112               2AZ
205601002205601001-091415     205601006003000329113W/GLS OCC. LOVE 2PC 2800000001000+00008771+00000+0001T   00009648+0006471823          1400 R67515               2AZ
205601003205601080-000127     205601006003000424351VALENTINES DAY 36x24CM 0000001000+00002192+00000+0001T   00002192+0000001823          1400 R67112               2AZ
205602000205602               205602               170213ON     1400+00000+ON0000013769+0000013769+000000000+000001929+0000015698+0000000000+I40000015698+0000000000+Z
205602001205602368-000113     205602006001023780874PLUSH BLINGED LOVE 30cm0000001000+00012279+00000+0001T   00012279+0000001826          1400 R67745               2AZ
205602002205602077-000299     205602006003000395576G/BAG 32x25cm LRG LOVE 0000001000+00001490+00000+0001T   00001490+0000001826          1400 R67112               2AZ
205603000205603               205603               170213ON     1400+00000+ON0000004383+0000004383+000000000+000000615+0000004990+0000000008+I20000000000+0000004990+Z
205603001205603903-000619     205603006003000672455SWT LOLLY STR/BRRY 140G0000001000+00001753+00000+0001T   00001753+0000001826          1400 R67150               2AZ
205603002205603104-000031     205603006003000614950BASKET PL 27x18x12cm   0000001000+00002630+00000+0001T   00002630+0000001826          1400 R67210               2AZ
205604000205604               205604               170213ON     1400+00000+ON0000005260+0000005260+000000000+000000737+0000005990+0000000007+I20000000000+0000005990+Z
205604001205604080-000116     205604006003000253555CARD&ENVELOPE-HANDMADE 0000001000+00001753+00000+0001T   00001753+0000001828          1400 R67112               2AZ
205604002205604104-000095     205604006003000614714BASKET PL 23x15x12cm   0000001000+00003507+00000+0001T   00003507+0000001828          1400 R67210               2AZ
205605000205605               205605               170213ON     1400+00000+ON0000002630+0000002630+000000000+000000369+0000002990+0000000009+I20000000000+0000002990+Z
205605001205605077-000235     205605006003000160211GIFT-RIBBON ROLL METALC0000001000+00002630+00000+0001T   00002630+0000001829          1400 R67112               2AZ
205606000205606               205606               170213ON     1400+00000+ON0000007891+0000007891+000000000+000001106+0000008990+0000000007+I20000000000+0000008990+Z
205606001205606562-000743     205606006001023712318EDU BLOCKS SHAPE PL    0000001000+00004385+00000+0001T   00004385+0000001831          1400 R67755               2AZ
205606002205606562-088335     205606006003000425372EVA PUZZLE MAT MINI    0000001000+00001753+00000+0001T   00001753+0000001831          1400 R67755               2AZ
205606003205606466-000103     205606000681070950312BALL 20cm ASSTD        0000001000+00001753+00000+0001T   00001753+0000001831          1400 R67785               2AZ
205607000205607               205607               170213ON     1400+00000+ON0000002630+0000002630+000000000+000000369+0000002990+0000000009+I20000000000+0000002990+Z
205607001205607903-000922     205607006914204008158SWT ST NOVELTY CAR     0000001000+00002630+00000+0001T   00002630+0000001832          1400 R67150               2AZ
205608000205608               205608               170213ON     1400+00000+ON0000002103+0000002103+000000000+000000295+0000002398+0000000000+I40000002398+0000000000+Z
205608001205608903-000897     205608008692806325207SWT CHOC DBL MINI ROLL 0000001000+00000876+00000+0001T   00000876+0000001833          1400 R67150               2AZ
205608002205608077-000322     205608006001023677532GIFT-BAG 18X23CM E/D FL0000001000+00001227+00000+0001T   00001227+0000001833          1400 R67112               2AZ
205609000205609               205609               170213ON     1400+00000+ON0000001751+0000001751+000000000+000000246+0000001997+0000000000+I40000001997+0000000000+Z
205609001205609077-000470     205609006003000330171G-BAG DESGN SML 11X14CM0000001000+00001314+00000+0001T   00001314+0000001836          1400 R67112               2AZ
205609002205609080-000133-A   205609006003000647019MINI VALENTINES CARD   0000001000+00000437+00000+0001T   00000437+0000001836          1400 R67112               2AZ
205610000205610               205610               170213ON     1400+00000+ON0000006610+0000006610+000000000+000000927+0000007537+0000000000+I40000007537+0000000000+Z
205610001205610079-006497     205610006003000160228GLITTER SET 6PCE+GLUE  0000001000+00002630+00000+0001T   00002630+0000001837          1400 R67130               2AZ
205610002205610566-000068     205610006003000418046POP UP LOVE 2 ASSTD    0000001000+00002192+00000+0001T   00002192+0000001837          1400 R67130               2AZ
205610003205610301-085006     205610006001023502940ORN LOVE MSG TUBE W/HRT0000001000+00001753+00000+0001T   00001753+0000001837          1400 R67505               2AZ
205610004205610112-116038     205610006009681820246TCS CARRIER BAG MIDI   0000001000+00000035+00000+0001T   00000035+0000001837          1400 R67090               2AZ
205611000205611               205611               170213ON     1400+00000+ON0000003541+0000003541+000000000+000000497+0000004030+0000000008+I20000000000+0000004030+Z
205611001205611112-116038     205611006009681820246TCS CARRIER BAG MIDI   0000001000+00000035+00000+0001T   00000035+0000001838          1400 R67090               2AZ
205611002205611071-000212     205611006009608641190CHALK WHITE 12PCE      0000001000+00000437+00000+0001T   00000437+0000001838          1400 R67130               2AZ
205611003205611301-007015     205611006003000394166ORN MINI BLACKBOARD 8PC0000001000+00003069+00000+0001T   00003069+0000001838          1400 R67505               2AZ
205612000205612               205612               170213ON     1400+00000+ON0000002978+0000002978+000000000+000000419+0000003390+0000000007+I20000000000+0000003390+Z
205612001205612903-002850     205612000000087108262MENTOS ROLL FRUIT      0000002000+00001051+00000+0001T   00001051+0000001839          1400 R67150               2AZ
205612002205612903-000897     205612008692806325207SWT CHOC DBL MINI ROLL 0000001000+00000876+00000+0001T   00000876+0000001839          1400 R67150               2AZ
205613000205613               205613               170213ON     1400+00000+ON0000001490+0000001490+000000000+000000209+0000001690+0000000009+I20000000000+0000001690+Z
205613001205613077-000299     205613006003000395576G/BAG 32x25cm LRG LOVE 0000001000+00001490+00000+0001T   00001490+0000001842          1400 R67112               2AZ
205614000205614               205614               170213ON     1400+00000+ON0000001314+0000001314+000000000+000000184+0000001490+0000000008+I20000000000+0000001490+Z
205614001205614006-000167-C   205614006003000516971BALLOONS PINK METALLIC 0000001000+00001314+00000+0001T   00001314+0000001847          1400 R67131               2AZ
205615000205615               205615               170213ON     1400+00000+ON0000004385+0000004385+000000000+000000614+0000004999+0000000000+I40000004999+0000000000+Z
205615001205615103-000460     205615006003000630240BAMBOO FLOWER BASKET   0000001000+00004385+00000+0001T   00004385+0000001854          1400 R67300               2AZ
205616000205616               205616               170213ON     1400+00000+ON0000017541+0000017541+000000000+000002457+0000019998+0000000000+I40000019998+0000000000+Z
205616001205616368-000113     205616006001023780874PLUSH BLINGED LOVE 30cm0000001000+00012279+00000+0001T   00012279+0000001856          1400 R67745               2AZ
205616002205616103-000474     205616006003000630363BAMBOO FLOWER BASKET   0000001000+00005262+00000+0001T   00005262+0000001856          1400 R67300               2AZ
205617000205617               205617               170213ON     1400+00000+ON0000011704+0000011704+000000000+000001642+0000013346+0000000000+I40000013346+0000000000+Z
205617001205617079-009702-B   205617008427973059491PAPER SIRIO A2 WHITE   0000001000+00001051+00000+0001T   00001051+0000001903          1400 R67130               2AZ
205617002205617077-000239     205617006003000160419GIFT-RIBBON ROLL PEARL 0000001000+00001753+00000+0001T   00001753+0000001903          1400 R67112               2AZ
205617003205617112-116069     205617006009681820277TCS CARRIER BAG JUMBO  0000001000+00000048+00000+0001T   00000048+0000001903          1400 R67090               2AZ
205617004205617566-000065     205617006003000217915STICKERS GLITTER ASSTD 0000001000+00001753+00000+0001T   00001753+0000001903          1400 R67130               2AZ
205617005205617077-000348     205617006001023483287GIFT-BOWS 4,5cm 8PCE   0000001000+00001578+00000+0001T   00001578+0000001903          1400 R67112               2AZ
205617006205617079-006494     205617006003000159864GLITTER GLUE 5PCE 11cm 0000001000+00001490+00000+0001T   00001490+0000001903          1400 R67130               2AZ
205617007205617566-000068     205617006003000418046POP UP LOVE 2 ASSTD    0000001000+00002192+00000+0001T   00002192+0000001903          1400 R67130               2AZ
205617008205617079-009700-B   205617006003000547661PAPER SIRIO A4 WHITE   0000001000+00000306+00000+0001T   00000306+0000001903          1400 R67130               2AZ
205617009205617079-009700-D   205617006003000545711PAPER SIRIO A4 RED COL.0000001000+00000306+00000+0001T   00000306+0000001903          1400 R67130               2AZ
205617010205617071-081104-A   205617006003000326662GLUE-STICK 8g CRD-OF-3 0000001000+00001227+00000+0001T   00001227+0000001903          1400 R67130               2AZ
205618000205618               205618               170213ON     1400+00000+ON0000020607+0000020607+000000000+000002887+0000023494+0000000000+I40000023494+0000000000+Z
205618002205618006-000190     205618006003000685530BALLOONS LOVE 81x91cm  0000001000+00004385+00000+0001T   00004385+0000001908          1400 R67131               2AZ
205618003205618018-000130     205618006001023867537MUG OCC LOVE MINI+HEART0000001000+00003507+00000+0001T   00003507+0000001908          1400 R67515               2AZ
205618004205618301-085001     205618006003000297610ORN WATERBALL LOVE ASST0000001000+00004823+00000+0001T   00004823+0000001908          1400 R67505               2AZ
205618005205618368-000175     205618006003000270316PLUSH BEAR 4 ASSTD 18CM0000001000+00006139+00000+0001T   00006139+0000001908          1400 R67745               2AZ
205618006205618077-000381     205618006003000247707GIFT-BAG 25X32CM S/COL 0000001000+00001753+00000+0001T   00001753+0000001908          1400 R67112               2AZ
A17021300                                          08374573ONSLAVE 2                       HC12IC
A17021301                                          09025508ONSLAVE 2                       HC12IC
A17021302                                          10000534ONSLAVE 2                       HC12IC
A17021303                                          14381564ONSLAVE 2                       R672IC
A17021304                                          18573694ONSLAVE 2                       R672IC
C20557400                                          170213ON006-000171-H   17292214SLAVE 2     R671IC0000000000+0000000000+0010000001000+
C20557401                                          170213ON006-000173-B   17292763SLAVE 2     R671IC0000000000+0000000000+0020000001000+
C20557700                                          170213ON466-000109     17401173SLAVE 2     R671IC0000000000+0000000000+0010000001000+
C20561800                                          170213ON304-001114     19060887SLAVE 2     R672IC0000000000+0000000000+0010000001000+
M17021391                              CASH        ONSLAVE 2                       Z-REPORT No.   639TOTAL (Sales - Refunds)           9490.43       CASH TO BE BANKED                 3201.80       DEBIT CARDS                          0.00       CREDIT CARDS                      6288.63       Z-READING                         9490.43       AIRTIME DEBIT CARD SALES             0.00       AIRTIME CARD SALES                   0.00       OVERS/UNDERS                         0.00       AIRTIME CASH SALES                   0.00       GIFT CARDS                           0.00       GIFT CARD CASH SALES                 0.00       T O T A L  CASH PAYOUTS              0.00                                                                                                                                                                                                                                                                                                                                                      Z
M17021392                              CASH        ONABSENT                                                                                                                                                                                          ANNUAL LEAVE                                                                                                                                                                                    DAY OFF                                                                                                                                                                                         COMMENTS                                                                                                                                                                                                                                                                                                                                                                                       Z
Y17021300                                          ON00000000832789+000119
ZON17021320133 SLAVE 2      SALES DATA                     NEXT INVOICE NO.  205619 0639
X ON Slave 2 First invoice 205498 170213 Last invoice 205618 170213 Next invoice 205619 Total number of records 000000467 clbackup completed 20:13:49
