201116000201116               201116               170213OP     1400+00000+OP0000012714+0000012714+000000000+000001782+0000014490+0000000006+I20000000000+0000014490+Z
201116001201116079-000280     201116006003000160723PAINT READYMIX 6PCE    0000001000+00002630+00000+0001T   00002630+0000001102          1400 YB4130               2DZ
201116002201116075-000355     201116006003000571895PURSE 14X8cm 2-ZIP&HNDL0000001000+00003069+00000+0001T   00003069+0000001102          1400 YB4160               2DZ
201116003201116567-011444     201116009781842392836BK PUZZLE JUNIOR TRAVEL0000001000+00004385+00000+0001T   00004385+0000001102          1400 YB4757               2DZ
201116004201116497-068672     201116000078257686728AIR-PILLOW 43x28cm     0000001000+00002630+00000+0001T   00002630+0000001102          1400 YB4787               2DZ
201117000201117               201117               170213OP     1400+00000+OP0000005960+0000005960+000000000+000000836+0000006790+0000000006+I20000000000+0000006790+Z
201117001201117018-000177     201117006001023797513MUG MINI LOVE ASSTD    0000001000+00000700+00000+0001T   00000700+0000001107          1400 YB4515               2AZ
201117002201117019-071600     201117006001023771971RIVER-STONES 1kg MIXED 0000002000+00002630+00000+0001T   00002630+0000001107          1400 YB4510               2AZ
201118000201118               201118               170213OP     1400+00000+OP0000028547+0000028547+000000000+000003999+0000032540+0000000006+I20000000000+0000032540+Z
201118001201118112-116069     201118006009681820277TCS CARRIER BAG JUMBO  0000001000+00000048+00000+0001T   00000048+0000001116          1400 YB4090               2BZ
201118002201118261-003906     201118006003000472376RIFLE 57cm +ACCESS 8PCE0000001000+00008771+00000+0001T   00008771+0000001116          1400 YB4710               2BZ
201118003201118007-000711     201118006003000227518NOTE-BK A5 WIRE 80SHTS 0000001000+00004385+00000+0001T   00004385+0000001116          1400 YB4130               2BZ
201118004201118071-030012     201118006003000283842PEN NVLTY GLITTER 6PC  0000001000+00002630+00000+0001T   00002630+0000001116          1400 YB4130               2BZ
201118005201118030-000031-A   201118006003000457588PLAQUE W/WORDS ASSTD   0000001000+00004385+00000+0001T   00004823+0006471116          1400 YB4505               2BZ
201118006201118071-000305     201118006001023715340RULER/STENCILS         0000001000+00001753+00000+0001T   00001753+0000001116          1400 YB4130               2BZ
201118007201118567-011362     201118009780709722878BK EDU MY FIRST COUNT  0000001000+00003507+00000+0001T   00003507+0000001116          1400 YB4757               2BZ
201118008201118080-000127     201118006003000424351VALENTINES DAY 36x24CM 0000001000+00002192+00000+0001T   00002192+0000001116          1400 YB4112               2BZ
201118009201118903-000861     201118005010478430822SWT LOVE HEARTS SML    0000001000+00000876+00000+0001T   00000876+0000001116          1400 YB4150               2BZ
201119000201119               201119               170213OP     1400+00000+OP0000007049+0000007049+000000000+000000987+0000008030+0000000006+I20000000000+0000008030+Z
201119001201119112-116038     201119006009681820246TCS CARRIER BAG MIDI   0000001000+00000035+00000+0001T   00000035+0000001122          1400 YB4090               2AZ
201119002201119018-000136     201119006001023659026MUG OCC LOVE W/PLUSH   0000002000+00003507+00000+0001T   00003507+0000001122          1400 YB4515               2AZ
201120000201120               201120               170213OP     1400+00000+OP0000002192+0000002192+000000000+000000307+0000002490+0000000009+I20000000000+0000002490+Z
201120001201120047-005126     201120006001023451255CABLETIES 100/150/200mm0000001000+00002192+00000+0001T   00002192+0000001134          1400 YB4880               2AZ
201121000201121               201121               170213OP     1400+00000+OP0000007012+0000007012+000000000+000000984+0000007990+0000000006+I20000000000+0000007990+Z
201121001201121038-092232     201121006001023625830TABLE-MAT N/SLIP 32x55 0000004000+00001753+00000+0001T   00001753+0000001135          1400 YB4300               2AZ
201122000201122               201122               170213OP     1400+00000+OP0000279885+0000279885+000000000+000039200+0000319080+0000000005+I20000000000+0000319080+Z
201122001201122027-078343     201122006008766078343SCRUB-BRUSH IRON-SHAPE 0000015000+00001139+00000+0001T   00001578+0008191140          1400 YB4212               2AZ
201122002201122034-000329     201122006001023564290BOTTLE-BRUSHES WHT 2PCE0000200000+00001314+00000+0001T   00001314+0000001140          1400 YB4215               2AZ
201123000201123               201123               170213OP     1400+00000+OP0000002663+0000002663+000000000+000000374+0000003030+0000000007+I20000000000+0000003030+Z
201123001201123077-000150-D   201123006003000054343GIFT-WRAP CELLPHANE CLR0000002000+00000876+00000+0001T   00000876+0000001142          1400 YB4112               2BZ
201123002201123077-000011-C   201123006001023808523TISSUE 10xSHTS RED     0000001000+00000876+00000+0001T   00000876+0000001142          1400 YB4112               2BZ
201123003201123112-116038     201123006009681820246TCS CARRIER BAG MIDI   0000001000+00000035+00000+0001T   00000035+0000001142          1400 YB4090               2BZ
201124000201124               201124               170213OP     1400+00000+OP0000004208+0000004208+000000000+000000590+0000004790+0000000008+I20000000000+0000004790+Z
201124001201124903-000095     201124006001704011495SWT SPECKLED-EGGS 100G 0000002000+00002104+00000+0001T   00002104+0000001143          1400 YB4150               2AZ
201125000201125               201125               170213OP     1400+00000+OP0000003506+0000003506+000000000+000000492+0000003998+0000000000+I40000003998+0000000000+Z
201125001201125264-000921     201125000090159150442MAISTO CAR 3" FRESH    0000002000+00001753+00000+0001T   00001753+0000001207          1400 YB4710               2AZ
201126000201126               201126               170213OP     1400+00000+OP0000001753+0000001753+000000000+000000246+0000001990+0000000009+I20000000000+0000001990+Z
201126001201126080-000115     201126006003000237333CARD&ENVELOPE - BLANKS 0000001000+00001753+00000+0001T   00001753+0000001213          1400 YB4112               2BZ
201127000201127               201127               170213OP     1400+00000+OP0000019551+0000019551+000000000+000002739+0000022290+0000000000+I20000000000+0000022290+Z
201127001201127077-000309     201127006001023608604GIFT-BAG 25X32CM GLOSS 0000001000+00001753+00000+0001T   00001753+0000001221          1400 YB4112               2AZ
201127002201127018-000170     201127006001023775528MUG OCC. LOVE 2PC MINI 0000001000+00002192+00000+0001T   00002192+0000001221          1400 YB4515               2AZ
201127003201127368-000151     201127006003000166725PLUSH BEAR 14cm        0000001000+00004385+00000+0001T   00004385+0000001221          1400 YB4745               2AZ
201127004201127466-000051     201127006001023800510WATER BOMB 4,5cm SET 6 0000001000+00003507+00000+0001T   00003507+0000001221          1400 YB4785               2AZ
201127005201127261-000004     201127006003000599578GUN SPACE PING PONG    0000001000+00003507+00000+0001T   00003507+0000001221          1400 YB4710               2AZ
201127006201127263-000175     201127006001023787682CAR PL FRIC RACER ASSTD0000001000+00001490+00000+0001T   00001490+0000001221          1400 YB4710               2AZ
201127007201127903-000924     201127006942797400615SWT HOT WHEELS SPRAY   0000001000+00001578+00000+0001T   00001578+0000001221          1400 YB4150               2AZ
201127008201127903-000087     201127006001704000161SWT SPECKLED-EGGS 50G  0000001000+00001139+00000+0001T   00001139+0000001221          1400 YB4150               2AZ
201128000201128               201128               170213OP     1400+00000+OP0000030737+0000030737+000000000+000004307+0000035044+0000000000+I40000035044+0000000000+Z
201128001201128112-116069     201128006009681820277TCS CARRIER BAG JUMBO  0000001000+00000048+00000+0001T   00000048+0000001223          1400 YB4090               2AZ
201128002201128366-000900     201128006003000006960DRESS UP WINGS BUG     0000002000+00006139+00000+0001T   00006139+0000001223          1400 YB4131               2AZ
201128003201128366-006104     201128006003000616930DRESS UP FACE PAINT    0000001000+00001753+00000+0001T   00001753+0000001223          1400 YB4131               2AZ
201128004201128366-007601     201128006003000655472DRESS UP MASK THEATRICA0000001000+00000876+00000+0001T   00000876+0000001223          1400 YB4131               2AZ
201128005201128903-000494     201128006001704009911SWT GUMMY TEENY TEDDIES0000001000+00000876+00000+0001T   00000876+0000001223          1400 YB4150               2AZ
201128006201128079-000336     201128006003000670758SUPER FINE MARKER PENS 0000001000+00005262+00000+0001T   00005262+0000001223          1400 YB4130               2AZ
201128007201128006-006019     201128006001023908193PARTY-SPRAY GLITTER    0000001000+00002630+00000+0001T   00002630+0000001223          1400 YB4131               2AZ
201128008201128305-075005     201128006003000621934DREAM CATCHER EVA ASSTD0000002000+00003507+00000+0001T   00003507+0000001223          1400 YB4505               2AZ
201129000201129               201129               170213OP     1400+00000+OP0000002192+0000002192+000000000+000000307+0000002490+0000000009+I20000000000+0000002490+Z
201129001201129047-005126     201129006001023451255CABLETIES 100/150/200mm0000001000+00002192+00000+0001T   00002192+0000001223          1400 YB4880               2AZ
201130000201130               201130               170213OP     1400+00000+OP0000011436+0000011436+000000000+000001602+0000013030+0000000008+I20000000000+0000013030+Z
201130001201130368-000614     201130006001023705808PLUSH LOVE 30cm        0000001000+00008771+00000+0001T   00008771+0000001224          1400 YB4745               2BZ
201130002201130077-000251     201130006003000639106GIFT-DECOR RIBBON      0000001000+00002630+00000+0001T   00002630+0000001224          1400 YB4112               2BZ
201130003201130112-116038     201130006009681820246TCS CARRIER BAG MIDI   0000001000+00000035+00000+0001T   00000035+0000001224          1400 YB4090               2BZ
201131000201131               201131               170213OP     1400+00000+OP0000011257+0000011257+000000000+000001578+0000012830+0000000005+I20000000000+0000012830+Z
201131001201131077-000948     201131006003000542154G/WARP SHRINK BAG      0000001000+00000700+00000+0001T   00000876+0008151228          1400 YB4112               2BZ
201131002201131024-000213     201131006001023458681COOKIE-CUTTER DONUT    0000001000+00006139+00000+0001T   00006139+0000001228          1400 YB4300               2BZ
201131003201131024-000214     201131006001023587855COOKIE-CUTTERS PL 6PC  0000001000+00001753+00000+0001T   00001753+0000001228          1400 YB4300               2BZ
201131004201131006-000111     201131006003000519385BALLOONS LARGE 12PCE   0000001000+00002630+00000+0001T   00002630+0000001228          1400 YB4131               2BZ
201131005201131112-116038     201131006009681820246TCS CARRIER BAG MIDI   0000001000+00000035+00000+0001T   00000035+0000001228          1400 YB4090               2BZ
201132000201132               201132               170213OP     1400+00000+OP0000000657+0000000657+000000000+000000092+0000000740+0000000009+I20000000000+0000000740+Z
201132001201132150-000772     201132006005387000227UTILITY-BOX SMALL      0000001000+00000657+00000+0001T   00000657+0000001229          1400 YB4810               2AZ
201133000201133               201133               170213OP     1400+00000+OP0000001753+0000001753+000000000+000000246+0000001990+0000000009+I20000000000+0000001990+Z
201133001201133903-000926     201133006914204004556SWT NOVELTY ST N/LACE  0000001000+00001753+00000+0001T   00001753+0000001229          1400 YB4150               2BZ
201134000201134               201134               170213OP     1400+00000+OP0000003331+0000003331+000000000+000000467+0000003790+0000000008+I20000000000+0000003790+Z
201134001201134080-000127     201134006003000424351VALENTINES DAY 36x24CM 0000001000+00002192+00000+0001T   00002192+0000001230          1400 YB4112               2AZ
201134002201134903-000087     201134006001704000161SWT SPECKLED-EGGS 50G  0000001000+00001139+00000+0001T   00001139+0000001230          1400 YB4150               2AZ
201135000201135               201135               170213OP     1400+00000+OP0000002629+0000002629+000000000+000000369+0000002998+0000000000+I40000002998+0000000000+Z
201135001201135080-000133-A   201135006003000647019MINI VALENTINES CARD   0000001000+00000437+00000+0001T   00000437+0000001236          1400 YB4112               2AZ
201135002201135566-000359     201135006003000582709STICKER BOOK LOVE SPARK0000001000+00002192+00000+0001T   00002192+0000001236          1400 YB4130               2AZ
201136000201136               201136               170213OP     1400+00000+OP0000008802+0000008802+000000000+000001234+0000010036+0000000000+I40000010036+0000000000+Z
201136001201136200-003026     201136006003000276448REFUSE BAGS 10PCE GREEN0000002000+00001753+00000+0001T   00001753+0000001242          1400 YB4214               2BZ
201136002201136133-000001     201136006003000329342CLEANING CLOTHS 3-PK   0000001000+00003069+00000+0001T   00003069+0000001242          1400 YB4212               2BZ
201136003201136566-000050     201136006003000163731STICKERS REWARD        0000001000+00002192+00000+0001T   00002192+0000001242          1400 YB4130               2BZ
201136004201136112-116038     201136006009681820246TCS CARRIER BAG MIDI   0000001000+00000035+00000+0001T   00000035+0000001242          1400 YB4090               2BZ
201137000201137               201137               170213OP     1400+00000+OP0000005524+0000005524+000000000+000000774+0000006298+0000000000+I40000006298+0000000000+Z
201137001201137046-000014     201137006001023725387BATTERIES SIZE:AAA 4PCE0000001000+00001139+00000+0001T   00001139+0000001244          1400 YB4312               2BZ
201137002201137004-071270     201137006001023802156CD-DISCS WRITABLE 10PCE0000001000+00004385+00000+0001T   00004385+0000001244          1400 YB4310               2BZ
201138000201138               201138               170213OP     1400+00000+OP0000002629+0000002629+000000000+000000369+0000002998+0000000000+I40000002998+0000000000+Z
201138001201138077-000011-C   201138006001023808523TISSUE 10xSHTS RED     0000001000+00000876+00000+0001T   00000876+0000001245          1400 YB4112               2BZ
201138002201138077-000290     201138006001023902023GIFT BOX 26x32x13cm    0000001000+00001753+00000+0001T   00001753+0000001245          1400 YB4112               2BZ
201139000201139               201139               170213OP     1400+00000+OP0000003504+0000003504+000000000+000000491+0000003990+0000000005+I20000000000+0000003990+Z
201139001201139077-000011-C   201139006001023808523TISSUE 10xSHTS RED     0000001000+00000876+00000+0001T   00000876+0000001245          1400 YB4112               2AZ
201139002201139077-000310     201139006001023608635GIFT-BAG 18X23CM GLOSS 0000002000+00001314+00000+0001T   00001314+0000001245          1400 YB4112               2AZ
201140000201140               201140               170213OP     1400+00000+OP0000000876+0000000876+000000000+000000123+0000000990+0000000009+I20000000000+0000000990+Z
201140001201140077-000011-C   201140006001023808523TISSUE 10xSHTS RED     0000001000+00000876+00000+0001T   00000876+0000001246          1400 YB4112               2AZ
201141000201141               201141               170213OP     1400+00000+OP0000003069+0000003069+000000000+000000430+0000003490+0000000009+I20000000000+0000003490+Z
201141001201141016-002709     201141006001023655257S/BOTTLE GLS W/LID 31CM0000001000+00003069+00000+0001T   00003069+0000001249          1400 YB4300               2BZ
201142000201142               201142               170213OP     1400+00000+OP0000018462+0000018462+000000000+000002586+0000021048+0000000000+I40000021048+0000000000+Z
201142001201142562-000011     201142006003000600984PLAY DOUGH NEON TUBE   0000001000+00003507+00000+0001T   00003507+0000001252          1400 YB4755               2AZ
201142002201142562-000019     201142006001023800305EDU PLAY DOUGH BOXED   0000001000+00007893+00000+0001T   00008771+0008191252          1400 YB4755               2AZ
201142003201142567-075490     201142009780799376272BK NOVEL ROMANCE AFR   0000002000+00003507+00000+0001T   00003507+0000001252          1400 YB4757               2AZ
201142004201142112-116069     201142006009681820277TCS CARRIER BAG JUMBO  0000001000+00000048+00000+0001T   00000048+0000001252          1400 YB4090               2AZ
201143000201143               201143               170213OP     1400+00000+OP0000006873+0000006873+000000000+000000963+0000007830+0000000006+I20000000000+0000007830+Z
201143001201143903-000215     201143006002099001214SWT GS MALLOW TWIST PAC0000001000+00001753+00000+0001T   00001753+0000001253          1400 YB4150               2BZ
201143002201143077-000303     201143006001023593757GIFT-BAG PAPER MED     0000001000+00001578+00000+0001T   00001578+0000001253          1400 YB4112               2BZ
201143003201143018-005009     201143006001023725608MUG W/PLUSH-BEAR LOVE  0000001000+00003507+00000+0001T   00003507+0000001253          1400 YB4515               2BZ
201143004201143112-116038     201143006009681820246TCS CARRIER BAG MIDI   0000001000+00000035+00000+0001T   00000035+0000001253          1400 YB4090               2BZ
201144000201144               201144               170213OP     1400+00000+OP0000006697+0000006697+000000000+000000939+0000007630+0000000006+I20000000000+0000007630+Z
201144001201144077-000303     201144006001023593757GIFT-BAG PAPER MED     0000002000+00001578+00000+0001T   00001578+0000001255          1400 YB4112               2AZ
201144002201144903-000211     201144006002099001238SWT GS MALLOW ICE CREAM0000002000+00001753+00000+0001T   00001753+0000001255          1400 YB4150               2AZ
201144003201144112-116038     201144006009681820246TCS CARRIER BAG MIDI   0000001000+00000035+00000+0001T   00000035+0000001255          1400 YB4090               2AZ
201145000201145               201145               170213OP     1400+00000+OP0000005262+0000005262+000000000+000000737+0000005990+0000000009+I20000000000+0000005990+Z
201145001201145368-000171     201145006003000233250PLUSH BEAR 14cm        0000001000+00005262+00000+0001T   00005262+0000001259          1400 YB4745               2AZ
201146000201146               201146               170213OP     1400+00000+OP0000014032+0000014032+000000000+000001966+0000015998+0000000000+I40000015998+0000000000+Z
201146001201146077-000316     201146006001023609731GIFT-BAG 25X32CM MATT  0000001000+00001753+00000+0001T   00001753+0000001305          1400 YB4112               2AZ
201146002201146368-000113     201146006001023780874PLUSH BLINGED LOVE 30cm0000001000+00012279+00000+0001T   00012279+0000001305          1400 YB4745               2AZ
201147000201147               201147               170213OP     1400+00000+OP0000007014+0000007014+000000000+000000982+0000007996+0000000000+I40000007996+0000000000+Z
201147001201147305-075005     201147006003000621934DREAM CATCHER EVA ASSTD0000002000+00003507+00000+0001T   00003507+0000001306          1400 YB4505               2AZ
201148000201148               201148               170213OP     1400+00000+OP0000004385+0000004385+000000000+000000614+0000004990+0000000009+I20000000000+0000004990+Z
201148001201148368-000151     201148006003000166725PLUSH BEAR 14cm        0000001000+00004385+00000+0001T   00004385+0000001310          1400 YB4745               2AZ
201149000201149               201149               170213OP     1400+00000+OP0000007014+0000007014+000000000+000000982+0000007996+0000000000+I40000007996+0000000000+Z
201149001201149301-085004     201149006003000420469ORN LOVE PLAQUE 21X10CM0000001000+00003507+00000+0001T   00003946+0006471314          1400 YB4505               2AZ
201149002201149018-005009     201149006001023725608MUG W/PLUSH-BEAR LOVE  0000001000+00003507+00000+0001T   00003507+0000001314          1400 YB4515               2AZ
201150000201150               201150               170213OP     1400+00000+OP0000002892+0000002892+000000000+000000405+0000003297+0000000000+I40000003297+0000000000+Z
201150001201150030-000010     201150006003000084395P/DOOR HANGER 2-ASSTD  0000001000+00001314+00000+0001T   00001490+0008181323          1400 YB4505               2AZ
201150002201150077-000303     201150006001023593757GIFT-BAG PAPER MED     0000001000+00001578+00000+0001T   00001578+0000001323          1400 YB4112               2AZ
201151000201151               201151               170213OP     1400+00000+OP0000001490+0000001490+000000000+000000209+0000001690+0000000009+I20000000000+0000001690+Z
201151001201151077-000452     201151006003000284986G/BAG METALLIC MED EMB 0000001000+00001490+00000+0001T   00001490+0000001324          1400 YB4112               2BZ
201152000201152               201152               170213OP     1400+00000+OP0000003507+0000003507+000000000+000000491+0000003990+0000000008+I20000000000+0000003990+Z
201152001201152562-000200     201152006001023732941PUSH-IN TRANSPORT      0000001000+00003507+00000+0001T   00003507+0000001338          1400 YB4755               2AZ
201153000201153               201153               170213OP     1400+00000+OP0000007927+0000007927+000000000+000001111+0000009030+0000000008+I20000000000+0000009030+Z
201153001201153007-000890-17  201153006003000645671CALENDAR 2017 ASSTD    0000001000+00006139+00000+0001T   00006139+0000001447          1400 1IC130               2AZ
201153002201153077-000358     201153006003000329977GIFT-BAG KIDS 25X32CM  0000001000+00001753+00000+0001T   00001753+0000001447          1400 1IC112               2AZ
201153003201153112-116038     201153006009681820246TCS CARRIER BAG MIDI   0000001000+00000035+00000+0001T   00000035+0000001447          1400 1IC090               2AZ
201154000201154               201154               170213OP     1400+00000+OP0000006972+0000006972+000000000+000000978+0000007950+0000000000+I20000000000+0000007950+Z
201154001201154077-000010-R   201154006001023123916CREPE-PAPER CANARY-YELL0000001000+00000788+00000+0001T   00000788+0000001448          1400 1IC112               2AZ
201154002201154077-000011-D   201154006001023808554TISSUE-WRAP WHITE 10PCE0000001000+00000876+00000+0001T   00000876+0000001448          1400 1IC112               2AZ
201154003201154077-000465     201154006003000681570GIFT-BAG MTLC GLIT LRG 0000001000+00003507+00000+0001T   00003507+0000001448          1400 1IC112               2AZ
201154004201154077-000308     201154006001023595812GIFT-BAG 33X45CM E/DAY 0000001000+00001753+00000+0001T   00001753+0000001448          1400 1IC112               2AZ
201154005201154112-116069     201154006009681820277TCS CARRIER BAG JUMBO  0000001000+00000048+00000+0001T   00000048+0000001448          1400 1IC090               2AZ
201155000201155               201155               170213OP     1400+00000+OP0000002717+0000002717+000000000+000000381+0000003098+0000000000+I40000003098+0000000000+Z
201155001201155903-000087     201155006001704000161SWT SPECKLED-EGGS 50G  0000001000+00001139+00000+0001T   00001139+0000001451          1400 1IC150               2AZ
201155002201155018-000127     201155006001023380289MUG OCC STRAIGHT LOVE  0000001000+00001578+00000+0001T   00001753+0006471451          1400 1IC515               2AZ
201156000201156               201156               170213OP     1400+00000+OP0000002804+0000002804+000000000+000000394+0000003198+0000000000+I40000003198+0000000000+Z
201156001201156304-001204     201156006001023737984FLOWER OCC. TEDDY/ROSES0000002000+00001402+00000+0001T   00001490+0006471520          1400 YB4510               2AZ
201157000201157               201157               170213OP     1400+00000+OP0000010901+0000010901+000000000+000001528+0000012429+0000000000+I40000012429+0000000000+Z
201157001201157018-000127     201157006001023380289MUG OCC STRAIGHT LOVE  0000002000+00001578+00000+0001T   00001753+0006471523          1400 YB4515               2BZ
201157002201157018-000177     201157006001023797513MUG MINI LOVE ASSTD    0000001000+00000700+00000+0001T   00000700+0000001523          1400 YB4515               2BZ
201157003201157903-000120     201157006002099001665SWEET GS ZILLIONS 50g  0000002000+00000700+00000+0001T   00000700+0000001523          1400 YB4150               2BZ
201157004201157903-000095     201157006001704011495SWT SPECKLED-EGGS 100G 0000001000+00002104+00000+0001T   00002104+0000001523          1400 YB4150               2BZ
201157005201157077-000011-D   201157006001023808554TISSUE-WRAP WHITE 10PCE0000001000+00000876+00000+0001T   00000876+0000001523          1400 YB4112               2BZ
201157006201157079-013032-D   201157006003000389643RIBBONS                0000001000+00002630+00000+0001T   00002630+0000001523          1400 YB4130               2BZ
201157007201157112-116038     201157006009681820246TCS CARRIER BAG MIDI   0000001000+00000035+00000+0001T   00000035+0000001523          1400 YB4090               2BZ
201158000201158               201158               170213OP     1400+00000+OP0000004641+0000004641+000000000+000000653+0000005290+0000000004+I20000000000+0000005290+Z
201158001201158018-000177     201158006001023797513MUG MINI LOVE ASSTD    0000001000+00000700+00000+0001T   00000700+0000001524          1400 YB4515               2AZ
201158002201158108-009000     201158006003000638673JELLY MOULD WITH LID PL0000001000+00002630+00000+0001T   00003507+0008171524          1400 YB4210               2AZ
201158003201158080-000133-A   201158006003000647019MINI VALENTINES CARD   0000003000+00000437+00000+0001T   00000437+0000001524          1400 YB4112               2AZ
201159000201159               201159               170213OP     1400+00000+OP0000020288+0000020288+000000000+000002844+0000023132+0000000000+I40000023132+0000000000+Z
201159001201159368-000175     201159006003000270316PLUSH BEAR 4 ASSTD 18CM0000001000+00006139+00000+0001T   00006139+0000001526          1400 YB4745               2AZ
201159002201159466-000517     201159006001023752017BALL TENNIS RED CRICKET0000002000+00001139+00000+0001T   00001139+0000001526          1400 YB4785               2AZ
201159003201159077-000314     201159006003000181148GIFT-BAG 11X14CM MATT  0000002000+00000876+00000+0001T   00000876+0000001526          1400 YB4112               2AZ
201159004201159077-000382     201159006003000247820GIFT-BAG MED 18X23CM   0000001000+00001753+00000+0001T   00001753+0000001526          1400 YB4112               2AZ
201159005201159560-000229     201159006003000469468ANIMALS BIG EYES ASSTD 0000001000+00006139+00000+0001T   00006139+0000001526          1400 YB4745               2AZ
201159006201159018-000170     201159006001023775528MUG OCC. LOVE 2PC MINI 0000001000+00002192+00000+0001T   00002192+0000001526          1400 YB4515               2AZ
201159007201159112-116038     201159006009681820246TCS CARRIER BAG MIDI   0000001000+00000035+00000+0001T   00000035+0000001526          1400 YB4090               2AZ
201160000201160               201160               170213OP     1400+00000+OP0000010731+0000010731+000000000+000001503+0000012230+0000000004+I20000000000+0000012230+Z
201160001201160368-000171     201160006003000233250PLUSH BEAR 14cm        0000001000+00005262+00000+0001T   00005262+0000001537          1400 YB4745               2AZ
201160002201160903-000915     201160000662572302670SWT STICK/TATT HELLO   0000001000+00000700+00000+0001T   00000700+0000001537          1400 YB4150               2AZ
201160003201160903-000499     201160006001704012492SWT CHOC MALLOWS 50g   0000001000+00001227+00000+0001T   00001227+0000001537          1400 YB4150               2AZ
201160004201160567-011353     201160009780709721734BK ACTIVITY FAIRIES    0000001000+00003507+00000+0001T   00003507+0000001537          1400 YB4757               2AZ
201160005201160112-116038     201160006009681820246TCS CARRIER BAG MIDI   0000001000+00000035+00000+0001T   00000035+0000001537          1400 YB4090               2AZ
201161000201161               201161               170213OP     1400+00000+OP0000007802+0000007802+000000000+000001093+0000008895+0000000000+I40000008895+0000000000+Z
201161001201161301-085004     201161006003000420469ORN LOVE PLAQUE 21X10CM0000001000+00003507+00000+0001T   00003946+0006471539          1400 YB4505               2AZ
201161002201161031-000923     201161006001023669933P/FRAME BLK W/WORDS    0000001000+00003507+00000+0001T   00003507+0000001539          1400 YB4510               2AZ
201161003201161903-000201     201161006009826020371SWT CHOC HEART 30g     0000001000+00000788+00000+0001T   00000788+0000001539          1400 YB4150               2AZ
201162000201162               201162               170213OP     1400+00000+OP0000004385+0000004385+000000000+000000614+0000004990+0000000009+I20000000000+0000004990+Z
201162001201162082-000115     201162006003000360604READING GLS STRNGHT:2.50000001000+00004385+00000+0001T   00004385+0000001550          1400 YB4160               2AZ
201163000201163               201163               170213OP     1400+00000+OP0000007714+0000007714+000000000+000001082+0000008796+0000000000+I40000008796+0000000000+Z
201163001201163079-000802     201163006001023528902ART+CRAFT STICKS 100PCE0000001000+00002455+00000+0001T   00002455+0000001553          1400 YB4130               2AZ
201163002201163089-000145     201163006003000576616K/CHAIN LIGHT W/COMPASS0000001000+00002630+00000+0001T   00003069+0008121553          1400 YB4205               2AZ
201163003201163566-000028     201163006003000265541STICKER BK ASSTD 250PCE0000001000+00001753+00000+0001T   00001753+0000001553          1400 YB4130               2AZ
201163004201163566-000027     201163006003000215843STICKERS FOIL ASSTD    0000001000+00000876+00000+0001T   00000876+0000001553          1400 YB4130               2AZ
201164000201164               201164               170213OP     1400+00000+OP0000004819+0000004819+000000000+000000676+0000005495+0000000000+I40000005495+0000000000+Z
201164001201164089-000027     201164006003000254071KEY CHAIN MOM/DAD ASSTD0000001000+00001753+00000+0001T   00001753+0000001613          1400 YB4205               2AZ
201164002201164077-000314     201164006003000181148GIFT-BAG 11X14CM MATT  0000001000+00000876+00000+0001T   00000876+0000001613          1400 YB4112               2AZ
201164003201164077-000310     201164006001023608635GIFT-BAG 18X23CM GLOSS 0000001000+00001314+00000+0001T   00001314+0000001613          1400 YB4112               2AZ
201164004201164077-000011-D   201164006001023808554TISSUE-WRAP WHITE 10PCE0000001000+00000876+00000+0001T   00000876+0000001613          1400 YB4112               2AZ
201165000201165               201165               170213OP     1400+00000+OP0000008961+0000008961+000000000+000001263+0000010224+0000000000+I40000010224+0000000000+Z
201165001201165903-002850     201165000000087108262MENTOS ROLL FRUIT      0000001000+00001051+00000+0001T   00001051+0000001615          1400 YB4150               2BZ
201165002201165903-000151     201165006009803374411SWT SML RND R/BOW LOLLY0000015000+00000525+00000+0001T   00000525+0000001615          1400 YB4150               2BZ
201165003201165112-116038     201165006009681820246TCS CARRIER BAG MIDI   0000001000+00000035+00000+0001T   00000035+0000001615          1400 YB4090               2BZ
201166000201166               201166               170213OP     1400+00000+OP0000013187+0000013187+000000000+000001847+0000015034+0000000000+I40000015034+0000000000+Z
201166001201166007-000711     201166006003000227518NOTE-BK A5 WIRE 80SHTS 0000001000+00004385+00000+0001T   00004385+0000001621          1400 YB4130               2BZ
201166002201166018-000136     201166006001023659026MUG OCC LOVE W/PLUSH   0000002000+00003507+00000+0001T   00003507+0000001621          1400 YB4515               2BZ
201166003201166903-000911     201166006009802868454SWT ST GUM TAPE BARBIE 0000001000+00001753+00000+0001T   00001753+0000001621          1400 YB4150               2BZ
201166004201166112-116038     201166006009681820246TCS CARRIER BAG MIDI   0000001000+00000035+00000+0001T   00000035+0000001621          1400 YB4090               2BZ
201167000201167               201167               170213OP     1400+00000+OP0000005262+0000005262+000000000+000000737+0000005990+0000000009+I20000000000+0000005990+Z
201167001201167262-000626     201167006003000510580CAR MDC JEEP W/TRAILER 0000001000+00005262+00000+0001T   00005262+0000001622          1400 YB4710               2AZ
201168000201168               201168               170213OP     1400+00000+OP0000001753+0000001753+000000000+000000246+0000001990+0000000009+I20000000000+0000001990+Z
201168001201168080-000100     201168006003000236114CARD & ENVELOPE BDAY   0000001000+00001753+00000+0001T   00001753+0000001622          1400 YB4112               2AZ
201169000201169               201169               170213OP     1400+00000+OP0000006874+0000006874+000000000+000000963+0000007830+0000000007+I20000000000+0000007830+Z
201169001201169077-000011-C   201169006001023808523TISSUE 10xSHTS RED     0000001000+00000876+00000+0001T   00000876+0000001628          1400 YB4112               2AZ
201169002201169077-000303     201169006001023593757GIFT-BAG PAPER MED     0000001000+00001578+00000+0001T   00001578+0000001628          1400 YB4112               2AZ
201169003201169001-000175     201169006001023788108B/MUG GLS LOVE 380ML   0000001000+00004385+00000+0001T   00004385+0000001628          1400 YB4515               2AZ
201169004201169112-116038     201169006009681820246TCS CARRIER BAG MIDI   0000001000+00000035+00000+0001T   00000035+0000001628          1400 YB4090               2AZ
201170000201170               201170               170213OP     1400+00000+OP0000020831+0000020831+000000000+000002918+0000023749+0000000000+I40000023749+0000000000+Z
201170001201170112-116069     201170006009681820277TCS CARRIER BAG JUMBO  0000001000+00000048+00000+0001T   00000048+0000001634          1400 YB4090               2AZ
201170002201170039-000799     201170006001023692382CANDLES TEALITE 100PCE 0000002000+00008771+00000+0001T   00008771+0000001634          1400 YB4510               2AZ
201170003201170033-005991     201170006001023678546NEEDLES H/HOLD-REPAIR  0000001000+00000788+00000+0001T   00000788+0000001634          1400 YB4200               2AZ
201170004201170033-010721     201170006001023678669SAFETY-PINS 20PCE ASSTD0000001000+00000700+00000+0001T   00000700+0000001634          1400 YB4200               2AZ
201170005201170133-000012     201170006001023561084CLEANING-CLOTH GREEN   0000001000+00001753+00000+0001T   00001753+0000001634          1400 YB4212               2AZ
201171000201171               201171               170213OP     1400+00000+OP0000001753+0000001753+000000000+000000246+0000001990+0000000009+I20000000000+0000001990+Z
201171001201171079-013032-A   201171006003000389322SEA WORLD STICKERS     0000001000+00001753+00000+0001T   00001753+0000001634          1400 YB4130               2BZ
201172000201172               201172               170213OP     1400+00000+OP0000002628+0000002628+000000000+000000369+0000002997+0000000000+I40000002997+0000000000+Z
201172001201172077-000151     201172006008766114676GIFT-WRAP C/PHANE ASSTD0000003000+00000876+00000+0001T   00000876+0000001636          1400 YB4112               2BZ
201173000201173               201173               170213OP     1400+00000+OP0000004767+0000004767+000000000+000000669+0000005436+0000000000+I40000005436+0000000000+Z
201173001201173089-000192-A   201173006001023901774KEY-CHAIN ACRYLIC      0000002000+00000876+00000+0001T   00000876+0000001639          1400 YB4205               2BZ
201173002201173077-000299     201173006003000395576G/BAG 32x25cm LRG LOVE 0000002000+00001490+00000+0001T   00001490+0000001639          1400 YB4112               2BZ
201173003201173112-116038     201173006009681820246TCS CARRIER BAG MIDI   0000001000+00000035+00000+0001T   00000035+0000001639          1400 YB4090               2BZ
201174000201174               201174               170213OP     1400+00000+OP0000007050+0000007050+000000000+000000988+0000008038+0000000000+I40000008038+0000000000+Z
201174001201174018-019000     201174006003000557288MUG OCC. LOVE JUMBO    0000001000+00005262+00000+0001T   00005262+0000001642          1400 YB4515               2BZ
201174002201174077-000908     201174006003000410927G/WRAP 700mmx1m FLOWER 0000001000+00001753+00000+0001T   00001753+0000001642          1400 YB4112               2BZ
201174003201174112-116038     201174006009681820246TCS CARRIER BAG MIDI   0000001000+00000035+00000+0001T   00000035+0000001642          1400 YB4090               2BZ
201175000201175               201175               170213OP     1400+00000+OP0000060597+0000060597+000000000+000008486+0000069080+0000000003+I20000000000+0000069080+Z
201175001201175112-116069     201175006009681820277TCS CARRIER BAG JUMBO  0000001000+00000048+00000+0001T   00000048+0000001651          1400 YB4090               2CZ
201175002201175018-050000     201175006003000412679MUG OCC LOVE TWIN BEAR 0000003000+00006139+00000+0001T   00006139+0000001651          1400 YB4515               2CZ
201175003201175018-000136     201175006001023659026MUG OCC LOVE W/PLUSH   0000012000+00003507+00000+0001T   00003507+0000001651          1400 YB4515               2CZ
201175004201175112-116069     201175006009681820277TCS CARRIER BAG JUMBO  0000001000+00000048+00000+0001T   00000048+0000001651          1400 YB4090               2CZ
201176000201176               201176               170213OP     1400+00000+OP0000009643+0000009643+000000000+000001352+0000010995+0000000000+I40000010995+0000000000+Z
201176001201176077-000509     201176006003000082582GIFT-BAG SML 6PCE ORG P0000002000+00002192+00000+0001T   00002192+0000001656          1400 YB4112               2BZ
201176002201176077-000011-L   201176006001023808585P/TISSUE BRIGHT 10SHEET0000001000+00000876+00000+0001T   00000876+0000001656          1400 YB4112               2BZ
201176003201176077-000309     201176006001023608604GIFT-BAG 25X32CM GLOSS 0000001000+00001753+00000+0001T   00001753+0000001656          1400 YB4112               2BZ
201176004201176031-086219-B   201176006001023808875P/FRAME 10x15cm CURVED 0000001000+00002630+00000+0001T   00002630+0000001656          1400 YB4510               2BZ
201177000201177               201177               170213OP     1400+00000+OP0000004385+0000004385+000000000+000000614+0000004999+0000000000+I40000004999+0000000000+Z
201177001201177082-000100     201177006003000360246READING GLS STRENGHT:1 0000001000+00004385+00000+0001T   00004385+0000001657          1400 YB4160               2AZ
201178000201178               201178               170213OP     1400+00000+OP0000039313+0000039313+000000000+000005510+0000044823+0000000000+I40000044823+0000000000+Z
201178001201178112-116069     201178006009681820277TCS CARRIER BAG JUMBO  0000001000+00000048+00000+0001T   00000048+0000001700          1400 YB4090               2AZ
201178002201178564-000012     201178006001023130075BUBBLE BOTTLE MAGIC    0000008000+00000700+00000+0001T   00000700+0000001700          1400 YB4131               2AZ
201178003201178077-000386     201178006003000275489G/BAG POP UP 18x23CM   0000001000+00001578+00000+0001T   00001578+0000001700          1400 YB4112               2AZ
201178004201178079-001000     201178006003000448470CANVAS A2 WOOD MOUNTED 0000001000+00007016+00000+0001T   00007016+0000001700          1400 YB4130               2AZ
201178005201178566-000359     201178006003000582709STICKER BOOK LOVE SPARK0000004000+00002192+00000+0001T   00002192+0000001700          1400 YB4130               2AZ
201178006201178080-000133-A   201178006003000647019MINI VALENTINES CARD   0000001000+00000437+00000+0001T   00000437+0000001700          1400 YB4112               2AZ
201178007201178080-000133     201178006003000535613CARD&ENV MINI ASTD DSGN0000001000+00000437+00000+0001T   00000437+0000001700          1400 YB4112               2AZ
201178008201178018-000177     201178006001023797513MUG MINI LOVE ASSTD    0000001000+00000700+00000+0001T   00000700+0000001700          1400 YB4515               2AZ
201178009201178903-000619     201178006003000672455SWT LOLLY STR/BRRY 140G0000001000+00001753+00000+0001T   00001753+0000001700          1400 YB4150               2AZ
201178010201178079-000335     201178006003000670550THERAPY P/CRAYONS 30   0000001000+00007016+00000+0001T   00007016+0000001700          1400 YB4130               2AZ
201178011201178071-001102     201178006003000274598MARKER PERM MED 2PCE   0000001000+00001753+00000+0001T   00001753+0000001700          1400 YB4130               2AZ
201178012201178077-000011-C   201178006001023808523TISSUE 10xSHTS RED     0000001000+00000876+00000+0001T   00000876+0000001700          1400 YB4112               2AZ
201178013201178071-081091     201178006001151010287STAED/GENKEM ALL-STICK 0000001000+00001227+00000+0001T   00001227+0000001700          1400 YB4130               2AZ
201178014201178903-000090     201178006009826020821SWT GS CHOCO COINS 60g 0000001000+00002104+00000+0001T   00002104+0000001700          1400 YB4150               2AZ
201179000201179               201179               170213OP     1400+00000+OP0000007049+0000007049+000000000+000000987+0000008036+0000000000+I40000008036+0000000000+Z
201179001201179018-005009     201179006001023725608MUG W/PLUSH-BEAR LOVE  0000002000+00003507+00000+0001T   00003507+0000001702          1400 YB4515               2BZ
201179002201179112-116038     201179006009681820246TCS CARRIER BAG MIDI   0000001000+00000035+00000+0001T   00000035+0000001702          1400 YB4090               2BZ
201180000201180               201180               170213OP     1400+00000+OP0000000700+0000000700+000000000+000000098+0000000790+0000000008+I20000000000+0000000790+Z
201180001201180903-000126     201180006002099003591SWT ZILLIONS MINT 50G  0000001000+00000700+00000+0001T   00000700+0000001702          1400 YB4150               2CZ
201181000201181               201181               170213OP     1400+00000+OP0000015522+0000015522+000000000+000002175+0000017697+0000000000+I40000017697+0000000000+Z
201181001201181077-000299     201181006003000395576G/BAG 32x25cm LRG LOVE 0000001000+00001490+00000+0001T   00001490+0000001708          1400 YB4112               2DZ
201181002201181018-005007     201181006003000515516MUG OCC. LOVE W/HEARTS 0000001000+00006139+00000+0001T   00006139+0000001708          1400 YB4515               2DZ
201181003201181301-085007     201181006003000673698ORN OCC. LOVE S/PLAQUE 0000001000+00007893+00000+0001T   00007893+0000001708          1400 YB4505               2DZ
201182000201182               201182               170213OP     1400+00000+OP0000001490+0000001490+000000000+000000209+0000001690+0000000009+I20000000000+0000001690+Z
201182001201182039-000108     201182006001023524034TEA-LITE CANDLES 8PCE  0000001000+00001490+00000+0001T   00001490+0000001708          1400 YB4510               2AZ
201183000201183               201183               170213OP     1400+00000+OP0000002706+0000002706+000000000+000000380+0000003080+0000000006+I20000000000+0000003080+Z
201183001201183007-000104     201183006009685854865BK COVER BRWN KRFT ROLL0000001000+00000350+00000+0001T   00000350+0000001710          1400 YB4130               2AZ
201183002201183071-004202     201183006001023417176SCISSORS-SCHOOL PL/MTL 0000001000+00001139+00000+0001T   00001139+0000001710          1400 YB4130               2AZ
201183003201183071-005213     201183006001023690371CELLOTAPE 12mmx33m     0000001000+00000876+00000+0001T   00000876+0000001710          1400 YB4130               2AZ
201183004201183007-000123     201183006003000533879BOOK COVER 450mmx1.5m  0000001000+00000306+00000+0001T   00000306+0000001710          1400 YB4130               2AZ
201183005201183112-116038     201183006009681820246TCS CARRIER BAG MIDI   0000001000+00000035+00000+0001T   00000035+0000001710          1400 YB4090               2AZ
201184000201184               201184               170213OP     1400+00000+OP0000009241+0000009241+000000000+000001296+0000010537+0000000000+I40000010537+0000000000+Z
201184001201184077-000316     201184006001023609731GIFT-BAG 25X32CM MATT  0000001000+00001753+00000+0001T   00001753+0000001712          1400 YB4112               2BZ
201184002201184203-000006     201184006001023752789COASTER-SET 4PCE       0000001000+00007016+00000+0001T   00008771+0008191712          1400 YB4300               2BZ
201184003201184112-116038     201184006009681820246TCS CARRIER BAG MIDI   0000001000+00000035+00000+0001T   00000035+0000001712          1400 YB4090               2BZ
201184004201184080-000133-A   201184006003000647019MINI VALENTINES CARD   0000001000+00000437+00000+0001T   00000437+0000001712          1400 YB4112               2BZ
201185000201185               201185               170213OP     1400+00000+OP0000013888+0000013888+000000000+000001946+0000015830+0000000004+I20000000000+0000015830+Z
201185001201185077-000316     201185006001023609731GIFT-BAG 25X32CM MATT  0000001000+00001753+00000+0001T   00001753+0000001713          1400 YB4112               2BZ
201185002201185018-005009     201185006001023725608MUG W/PLUSH-BEAR LOVE  0000001000+00003507+00000+0001T   00003507+0000001713          1400 YB4515               2BZ
201185003201185301-085007     201185006003000673698ORN OCC. LOVE S/PLAQUE 0000001000+00007893+00000+0001T   00007893+0000001713          1400 YB4505               2BZ
201185004201185903-000126     201185006002099003591SWT ZILLIONS MINT 50G  0000001000+00000700+00000+0001T   00000700+0000001713          1400 YB4150               2BZ
201185005201185112-116038     201185006009681820246TCS CARRIER BAG MIDI   0000001000+00000035+00000+0001T   00000035+0000001713          1400 YB4090               2BZ
201186000201186               201186               170213OP     1400+00000+OP0000009152+0000009152+000000000+000001283+0000010435+0000000000+I40000010435+0000000000+Z
201186001201186112-116038     201186006009681820246TCS CARRIER BAG MIDI   0000001000+00000035+00000+0001T   00000035+0000001715          1400 YB4090               2AZ
201186002201186200-003024     201186006001023657299REFUSE BAGS 20PCE BLACK0000001000+00001753+00000+0001T   00001753+0000001715          1400 YB4214               2AZ
201186003201186133-000030     201186006001023755414KITCHEN-SWAB 30cm ASSTD0000001000+00001227+00000+0001T   00001227+0000001715          1400 YB4212               2AZ
201186004201186133-000010-A   201186006001023997647CLEANING CLOTH ROLL 30 0000001000+00003507+00000+0001T   00003507+0000001715          1400 YB4212               2AZ
201186005201186133-061111     201186006001023775092TOWEL MAGIC ALL-PURPOSE0000001000+00002630+00000+0001T   00002630+0000001715          1400 YB4212               2AZ
201187000201187               201187               170213OP     1400+00000+OP0000004329+0000004329+000000000+000000607+0000004930+0000000006+I20000000000+0000004930+Z
201187001201187304-001204     201187006001023737984FLOWER OCC. TEDDY/ROSES0000001000+00001402+00000+0001T   00001490+0006471716          1400 YB4510               2BZ
201187002201187080-000127     201187006003000424351VALENTINES DAY 36x24CM 0000001000+00002192+00000+0001T   00002192+0000001716          1400 YB4112               2BZ
201187003201187018-000177     201187006001023797513MUG MINI LOVE ASSTD    0000001000+00000700+00000+0001T   00000700+0000001716          1400 YB4515               2BZ
201187004201187112-116038     201187006009681820246TCS CARRIER BAG MIDI   0000001000+00000035+00000+0001T   00000035+0000001716          1400 YB4090               2BZ
201188000201188               201188               170213OP     1400+00000+OP0000007049+0000007049+000000000+000000988+0000008037+0000000000+I40000008037+0000000000+Z
201188001201188077-000150-D   201188006003000054343GIFT-WRAP CELLPHANE CLR0000001000+00000876+00000+0001T   00000876+0000001720          1400 YB4112               2AZ
201188002201188018-019000     201188006003000557288MUG OCC. LOVE JUMBO    0000001000+00005262+00000+0001T   00005262+0000001720          1400 YB4515               2AZ
201188003201188077-000011-C   201188006001023808523TISSUE 10xSHTS RED     0000001000+00000876+00000+0001T   00000876+0000001720          1400 YB4112               2AZ
201188004201188112-116038     201188006009681820246TCS CARRIER BAG MIDI   0000001000+00000035+00000+0001T   00000035+0000001720          1400 YB4090               2AZ
201189000201189               201189               170213OP     1400+00000+OP0000008502+0000008502+000000000+000001192+0000009694+0000000000+I40000009694+0000000000+Z
201189001201189903-000519     201189006001704012805SWT MS LIQ-O-GHETTI    0000002000+00001227+00000+0001T   00001227+0000001722          1400 YB4150               2BZ
201189002201189077-000383     201189006003000247943GIFT-BAG 11X14CM S/COL 0000001000+00000788+00000+0001T   00000788+0000001722          1400 YB4112               2BZ
201189003201189077-000382     201189006003000247820GIFT-BAG MED 18X23CM   0000001000+00001753+00000+0001T   00001753+0000001722          1400 YB4112               2BZ
201189004201189018-005009     201189006001023725608MUG W/PLUSH-BEAR LOVE  0000001000+00003507+00000+0001T   00003507+0000001722          1400 YB4515               2BZ
201190000201190               201190               170213OP     1400+00000+OP0000004943+0000004943+000000000+000000694+0000005637+0000000000+I40000005637+0000000000+Z
201190001201190088-000084     201190006001023798060P/POURRI 120G ASSTD    0000001000+00001753+00000+0001T   00001753+0000001723          1400 YB4212               2DZ
201190002201190046-000011     201190004897006172994BATTERIES SIZE:AA  2PCE0000001000+00001402+00000+0001T   00001402+0000001723          1400 YB4312               2DZ
201190003201190039-001023     201190006003000466337CANDLE TEA-LITE METALIC0000001000+00001753+00000+0001T   00001753+0000001723          1400 YB4510               2DZ
201190004201190112-116038     201190006009681820246TCS CARRIER BAG MIDI   0000001000+00000035+00000+0001T   00000035+0000001723          1400 YB4090               2DZ
201191000201191               201191               170213OP     1400+00000+OP0000000999+0000000999+000000000+000000140+0000001130+0000000009+I20000000000+0000001130+Z
201191001201191007-000204     201191006009635835272EXAM-PAD 60SHT PUNCHED 0000001000+00000964+00000+0001T   00000964+0000001724          1400 YB4130               2AZ
201191002201191112-116038     201191006009681820246TCS CARRIER BAG MIDI   0000001000+00000035+00000+0001T   00000035+0000001724          1400 YB4090               2AZ
201192000201192               201192               170213OP     1400+00000+OP0000016665+0000016665+000000000+000002334+0000018999+0000000000+I40000018999+0000000000+Z
201192001201192028-000040     201192006003000453016PICNIC BAG W/ALU HNDLES0000001000+00016665+00000+0001T   00016665+0000001726          1400 YB4305               2AZ
201193000201193               201193               170213OP     1400+00000+OP0000025431+0000025431+000000000+000003562+0000028993+0000000000+I40000028993+0000000000+Z
201193001201193077-000270     201193006003000395453GIFT-BAG PPR JMB 33X45 0000001000+00002630+00000+0001T   00002630+0000001728          1400 YB4112               2BZ
201193002201193030-004015     201193006003000467624PLAQUE WDN SIGN 30X20CM0000001000+00009648+00000+0001T   00009648+0000001728          1400 YB4505               2BZ
201193003201193031-000002     201193006001023851338FRAME FRIENDS 7.5x7.5cm0000001000+00003507+00000+0001T   00003507+0000001728          1400 YB4510               2BZ
201193004201193031-080509     201193006001023802446P/FRAME COLLAGE 10X15CM0000001000+00006139+00000+0001T   00006139+0000001728          1400 YB4510               2BZ
201193005201193031-000923     201193006001023669933P/FRAME BLK W/WORDS    0000001000+00003507+00000+0001T   00003507+0000001728          1400 YB4510               2BZ
201194000201194               201194               170213OP     1400+00000+OP0000003068+0000003068+000000000+000000430+0000003498+0000000000+I40000003498+0000000000+Z
201194001201194077-000303     201194006001023593757GIFT-BAG PAPER MED     0000001000+00001578+00000+0001T   00001578+0000001732          1400 YB4112               2AZ
201194002201194039-000108     201194006001023524034TEA-LITE CANDLES 8PCE  0000001000+00001490+00000+0001T   00001490+0000001732          1400 YB4510               2AZ
201195000201195               201195               170213OP     1400+00000+OP0000002921+0000002921+000000000+000000413+0000003330+0000000004+I20000000000+0000003330+Z
201195001201195071-000012     201195006001177101006CHALK COLOUR 12PCE     0000006000+00000481+00000+0001T   00000481+0000001733          1400 YB4130               2AZ
201195002201195112-116038     201195006009681820246TCS CARRIER BAG MIDI   0000001000+00000035+00000+0001T   00000035+0000001733          1400 YB4090               2AZ
201196000201196               201196               170213OP     1400+00000+OP0000005120+0000005120+000000000+000000717+0000005830+0000000007+I20000000000+0000005830+Z
201196001201196077-000303     201196006001023593757GIFT-BAG PAPER MED     0000001000+00001578+00000+0001T   00001578+0000001734          1400 YB4112               2BZ
201196002201196018-000136     201196006001023659026MUG OCC LOVE W/PLUSH   0000001000+00003507+00000+0001T   00003507+0000001734          1400 YB4515               2BZ
201196003201196112-116038     201196006009681820246TCS CARRIER BAG MIDI   0000001000+00000035+00000+0001T   00000035+0000001734          1400 YB4090               2BZ
201197000201197               201197               170213OP     1400+00000+OP0000011433+0000011433+000000000+000001601+0000013030+0000000004+I20000000000+0000013030+Z
201197001201197112-116038     201197006009681820246TCS CARRIER BAG MIDI   0000001000+00000035+00000+0001T   00000035+0000001735          1400 YB4090               2AZ
201197002201197077-000310     201197006001023608635GIFT-BAG 18X23CM GLOSS 0000002000+00001314+00000+0001T   00001314+0000001735          1400 YB4112               2AZ
201197003201197018-030000     201197006003000421060MUG OCCASIONS LOVE 2PCE0000002000+00004385+00000+0001T   00004385+0000001735          1400 YB4515               2AZ
201198000201198               201198               170213OP     1400+00000+OP0000002717+0000002717+000000000+000000381+0000003090+0000000008+I20000000000+0000003090+Z
201198001201198077-000303     201198006001023593757GIFT-BAG PAPER MED     0000001000+00001578+00000+0001T   00001578+0000001736          1400 YB4112               2CZ
201198002201198903-000087     201198006001704000161SWT SPECKLED-EGGS 50G  0000001000+00001139+00000+0001T   00001139+0000001736          1400 YB4150               2CZ
201199000201199               201199               170213OP     1400+00000+OP0000003507+0000003507+000000000+000000491+0000003990+0000000008+I20000000000+0000003990+Z
201199001201199362-002467     201199006003000167623HAIR EXT LONG 61cm     0000001000+00003507+00000+0001T   00003507+0000001736          1400 YB4160               2BZ
201200000201200               201200               170213OP     1400+00000+OP0000008886+0000008886+000000000+000001248+0000010134+0000000000+I40000010134+0000000000+Z
201200001201200040-000922     201200006001023587817CANDLE-HOLDER GLS 18cm 0000002000+00001753+00000+0001T   00001753+0000001738          1400 YB4510               2BZ
201200002201200039-000026     201200006001023551610C/TAPERED 25CM M/RED   0000002000+00001051+00000+0001T   00001051+0000001738          1400 YB4510               2BZ
201200003201200039-001023     201200006003000466337CANDLE TEA-LITE METALIC0000001000+00001753+00000+0001T   00001753+0000001738          1400 YB4510               2BZ
201200004201200039-000108     201200006001023524034TEA-LITE CANDLES 8PCE  0000001000+00001490+00000+0001T   00001490+0000001738          1400 YB4510               2BZ
201200005201200112-116038     201200006009681820246TCS CARRIER BAG MIDI   0000001000+00000035+00000+0001T   00000035+0000001738          1400 YB4090               2BZ
201201000201201               201201               170213OP     1400+00000+OP0000001753+0000001753+000000000+000000246+0000001990+0000000009+I20000000000+0000001990+Z
201201001201201084-000889     201201006003000293674NAIL FILE EMERY 18CM   0000001000+00001753+00000+0001T   00001753+0000001739          1400 YB4200               2CZ
201202000201202               201202               170213OP     1400+00000+OP0000005297+0000005297+000000000+000000742+0000006039+0000000000+I40000006039+0000000000+Z
201202001201202018-019000     201202006003000557288MUG OCC. LOVE JUMBO    0000001000+00005262+00000+0001T   00005262+0000001740          1400 YB4515               2BZ
201202002201202112-116038     201202006009681820246TCS CARRIER BAG MIDI   0000001000+00000035+00000+0001T   00000035+0000001740          1400 YB4090               2BZ
201203000201203               201203               170213OP     1400+00000+OP0000015820+0000015820+000000000+000002217+0000018030+0000000007+I20000000000+0000018030+Z
201203001201203077-000382     201203006003000247820GIFT-BAG MED 18X23CM   0000001000+00001753+00000+0001T   00001753+0000001741          1400 YB4112               2AZ
201203002201203368-000003     201203006003000098231PLUSH PONY 23cm        0000002000+00007016+00000+0001T   00007016+0000001741          1400 YB4745               2AZ
201203003201203112-116038     201203006009681820246TCS CARRIER BAG MIDI   0000001000+00000035+00000+0001T   00000035+0000001741          1400 YB4090               2AZ
201204000201204               201204               170213OP     1400+00000+OP0000048933+0000048933+000000000+000006857+0000055790+0000000000+I40000055790+0000000000+Z
201204001201204077-000299     201204006003000395576G/BAG 32x25cm LRG LOVE 0000001000+00001490+00000+0001T   00001490+0000001744          1400 YB4112               2AZ
201204002201204001-091415     201204006003000329113W/GLS OCC. LOVE 2PC 2800000001000+00008771+00000+0001T   00009648+0006471744          1400 YB4515               2AZ
201204003201204030-004015     201204006003000467624PLAQUE WDN SIGN 30X20CM0000001000+00009648+00000+0001T   00009648+0000001744          1400 YB4505               2AZ
201204004201204030-005000     201204006003000455874P/WDN SIGN 23X23CM 4-AS0000001000+00007893+00000+0001T   00007893+0000001744          1400 YB4505               2AZ
201204005201204080-000133     201204006003000535613CARD&ENV MINI ASTD DSGN0000001000+00000437+00000+0001T   00000437+0000001744          1400 YB4112               2AZ
201204006201204080-000133-A   201204006003000647019MINI VALENTINES CARD   0000001000+00000437+00000+0001T   00000437+0000001744          1400 YB4112               2AZ
201204007201204304-001204     201204006001023737984FLOWER OCC. TEDDY/ROSES0000001000+00001402+00000+0001T   00001490+0006471744          1400 YB4510               2AZ
201204008201204077-000270     201204006003000395453GIFT-BAG PPR JMB 33X45 0000001000+00002630+00000+0001T   00002630+0000001744          1400 YB4112               2AZ
201204009201204301-085001     201204006003000297610ORN WATERBALL LOVE ASST0000001000+00004823+00000+0001T   00004823+0000001744          1400 YB4505               2AZ
201204010201204368-000637     201204006001023874092PLUSH BEAR SLEEPING LOV0000001000+00011402+00000+0001T   00012279+0006471744          1400 YB4745               2AZ
201205000201205               201205               170213OP     1400+00000+OP0000020221+0000020221+000000000+000002832+0000023053+0000000000+I40000023053+0000000000+Z
201205001201205368-000637     201205006001023874092PLUSH BEAR SLEEPING LOV0000001000+00011402+00000+0001T   00012279+0006471746          1400 YB4745               2BZ
201205002201205368-000012     201205006003000610464PLUSH BEAR 30cm SITTING0000001000+00008771+00000+0001T   00008771+0000001746          1400 YB4745               2BZ
201205003201205112-116069     201205006009681820277TCS CARRIER BAG JUMBO  0000001000+00000048+00000+0001T   00000048+0000001746          1400 YB4090               2BZ
201206000201206               201206               170213OP     1400+00000+OP0000003507+0000003507+000000000+000000491+0000003990+0000000008+I20000000000+0000003990+Z
201206001201206018-000136     201206006001023659026MUG OCC LOVE W/PLUSH   0000001000+00003507+00000+0001T   00003507+0000001746          1400 YB4515               2AZ
201207000201207               201207               170213OP     1400+00000+OP0000007013+0000007013+000000000+000000984+0000007990+0000000007+I20000000000+0000007990+Z
201207001201207565-000890     201207006003000322107NOVELTY HIBOUNCE BALL  0000002000+00002630+00000+0001T   00002630+0000001747          1400 YB4745               2BZ
201207002201207565-001212     201207006001023658173NOVELTY MAGIC-SPRING   0000001000+00001753+00000+0001T   00001753+0000001747          1400 YB4745               2BZ
201208000201208               201208               170213OP     1400+00000+OP0000003067+0000003067+000000000+000000430+0000003497+0000000000+I40000003497+0000000000+Z
201208001201208077-000310     201208006001023608635GIFT-BAG 18X23CM GLOSS 0000001000+00001314+00000+0001T   00001314+0000001748          1400 YB4112               2BZ
201208002201208077-000309     201208006001023608604GIFT-BAG 25X32CM GLOSS 0000001000+00001753+00000+0001T   00001753+0000001748          1400 YB4112               2BZ
201209000201209               201209               170213OP     1400+00000+OP0000004823+0000004823+000000000+000000676+0000005499+0000000000+I40000005499+0000000000+Z
201209001201209301-085001     201209006003000297610ORN WATERBALL LOVE ASST0000001000+00004823+00000+0001T   00004823+0000001749          1400 YB4505               2BZ
201210000201210               201210               170213OP     1400+00000+OP0000004204+0000004204+000000000+000000590+0000004790+0000000004+I20000000000+0000004790+Z
201210001201210077-000310     201210006001023608635GIFT-BAG 18X23CM GLOSS 0000001000+00001314+00000+0001T   00001314+0000001750          1400 YB4112               2BZ
201210002201210077-000383     201210006003000247943GIFT-BAG 11X14CM S/COL 0000002000+00000788+00000+0001T   00000788+0000001750          1400 YB4112               2BZ
201210003201210006-000167-C   201210006003000516971BALLOONS PINK METALLIC 0000001000+00001314+00000+0001T   00001314+0000001750          1400 YB4131               2BZ
201211000201211               201211               170213OP     1400+00000+OP0000000613+0000000613+000000000+000000086+0000000690+0000000009+I20000000000+0000000690+Z
201211001201211027-078282     201211006001023767837SCOURER 25g SPIRAL-BALL0000001000+00000613+00000+0001T   00000613+0000001750          1400 YB4212               2AZ
201212000201212               201212               170213OP     1400+00000+OP0000003069+0000003069+000000000+000000430+0000003490+0000000009+I20000000000+0000003490+Z
201212001201212464-000107     201212000073854318089PLAY-CARDS 2nd (SINGLE)0000001000+00003069+00000+0001T   00003069+0000001751          1400 YB4785               2AZ
201213000201213               201213               170213OP     1400+00000+OP0000001753+0000001753+000000000+000000246+0000001990+0000000009+I20000000000+0000001990+Z
201213001201213024-000214     201213006001023587855COOKIE-CUTTERS PL 6PC  0000001000+00001753+00000+0001T   00001753+0000001751          1400 YB4300               2BZ
201214000201214               201214               170213OP     1400+00000+OP0000040129+0000040129+000000000+000005619+0000045748+0000000000+I40000045748+0000000000+Z
201214001201214018-000136     201214006001023659026MUG OCC LOVE W/PLUSH   0000001000+00003507+00000+0001T   00003507+0000001756          1400 YB4515               2AZ
201214002201214263-000310     201214006003000013869JEEP PL FRICTION W/TRAI0000002000+00017542+00000+0001T   00017542+0000001756          1400 YB4710               2AZ
201214003201214077-000299     201214006003000395576G/BAG 32x25cm LRG LOVE 0000001000+00001490+00000+0001T   00001490+0000001756          1400 YB4112               2AZ
201214004201214112-116069     201214006009681820277TCS CARRIER BAG JUMBO  0000001000+00000048+00000+0001T   00000048+0000001756          1400 YB4090               2AZ
201215000201215               201215               170213OP     1400+00000+OP0000004385+0000004385+000000000+000000614+0000004990+0000000009+I20000000000+0000004990+Z
201215001201215040-000220     201215006001023845313C/HOLDER HEART 17X18CM 0000001000+00004385+00000+0001T   00004385+0000001756          1400 YB4510               2BZ
201216000201216               201216               170213OP     1400+00000+OP0000005257+0000005257+000000000+000000738+0000005990+0000000005+I20000000000+0000005990+Z
201216001201216077-000150-D   201216006003000054343GIFT-WRAP CELLPHANE CLR0000001000+00000876+00000+0001T   00000876+0000001757          1400 YB4112               2BZ
201216002201216077-000151     201216006008766114676GIFT-WRAP C/PHANE ASSTD0000002000+00000876+00000+0001T   00000876+0000001757          1400 YB4112               2BZ
201216003201216077-000011-E   201216006001023808646TISSUE-WRAP PINK 10PCE 0000001000+00000876+00000+0001T   00000876+0000001757          1400 YB4112               2BZ
201216004201216019-000130     201216006003000456130PLANTER T/PLATE W/HNDL 0000001000+00001753+00000+0001T   00001753+0000001757          1400 YB4510               2BZ
201217000201217               201217               170213OP     1400+00000+OP0000001578+0000001578+000000000+000000221+0000001790+0000000009+I20000000000+0000001790+Z
201217001201217018-000127     201217006001023380289MUG OCC STRAIGHT LOVE  0000001000+00001578+00000+0001T   00001753+0006471758          1400 YB4515               2CZ
201218000201218               201218               170213OP     1400+00000+OP0000005031+0000005031+000000000+000000706+0000005730+0000000007+I20000000000+0000005730+Z
201218001201218028-000014     201218006001334001316ICE-BRICK SOLID MEDIUM 0000002000+00001753+00000+0001T   00001753+0000001800          1400 YB4305               2BZ
201218002201218200-000061     201218006003000506996STRAWS DRINKING CURLY  0000001000+00001490+00000+0001T   00001490+0000001800          1400 YB4214               2BZ
201218003201218112-116038     201218006009681820246TCS CARRIER BAG MIDI   0000001000+00000035+00000+0001T   00000035+0000001800          1400 YB4090               2BZ
201219000201219               201219               170213OP     1400+00000+OP0000011432+0000011432+000000000+000001603+0000013030+0000000005+I20000000000+0000013030+Z
201219001201219028-000030     201219006001023810908COOLER-BAG 6PACK       0000001000+00004385+00000+0001T   00004385+0000001801          1400 YB4305               2BZ
201219002201219028-000014     201219006001334001316ICE-BRICK SOLID MEDIUM 0000002000+00001753+00000+0001T   00001753+0000001801          1400 YB4305               2BZ
201219003201219028-000016     201219006001334007004ICE-BRICK CLEAR    400g0000002000+00001753+00000+0001T   00001753+0000001801          1400 YB4305               2BZ
201219004201219112-116038     201219006009681820246TCS CARRIER BAG MIDI   0000001000+00000035+00000+0001T   00000035+0000001801          1400 YB4090               2BZ
201220000201220               201220               170213OP     1400+00000+OP0000032496+0000032496+000000000+000004552+0000037048+0000000000+I40000037048+0000000000+Z
201220001201220368-000637     201220006001023874092PLUSH BEAR SLEEPING LOV0000002000+00011402+00000+0001T   00012279+0006471802          1400 YB4745               2AZ
201220002201220031-000923     201220006001023669933P/FRAME BLK W/WORDS    0000001000+00003507+00000+0001T   00003507+0000001802          1400 YB4510               2AZ
201220003201220080-000127     201220006003000424351VALENTINES DAY 36x24CM 0000001000+00002192+00000+0001T   00002192+0000001802          1400 YB4112               2AZ
201220004201220077-000299-A   201220006003000670888GIFT-BAG PAPER JMB LOVE0000001000+00001753+00000+0001T   00001753+0000001802          1400 YB4112               2AZ
201220005201220077-000309-A   201220006003000671007GIFT-BAG HOLOGRAM JMB  0000001000+00002192+00000+0001T   00002192+0000001802          1400 YB4112               2AZ
201220006201220112-116069     201220006009681820277TCS CARRIER BAG JUMBO  0000001000+00000048+00000+0001T   00000048+0000001802          1400 YB4090               2AZ
201221000201221               201221               170213OP     1400+00000+OP0000000000+0000000000+000000000+000000000+0000000000+0000000000+I20000000000+0000000000+Z
201221001201221903-000215     201221006002099001214SWT GS MALLOW TWIST PAC0000001000+00001753+00000+0001T   00001753+0000001825          1400 YB4150               2 Z
201221002201221903-000211     201221006002099001238SWT GS MALLOW ICE CREAM0000001000+00001753+00000+0001T   00001753+0000001825          1400 YB4150               2 Z
201221003201221071-001231     201221006003000144990ERASER RETRACT 2PK     0000001000+00001753+00000+0001T   00001753+0000001825          1400 YB4130               2 Z
201221004201221006-000113     201221006003000671816BALLOONS WATER FILLER  0000001000+00003507+00000+0001T   00003507+0000001825          1400 YB4131               2 Z
201221005201221565-000256     201221006003000609826NOVELTY GLOW SLIME     0000001000+00000700+00000+0001T   00000700+0000001825          1400 YB4745               2 Z
201221006201221006-000214-A   201221006003000311057P/GIRL JNR INVITE 6PCE 0000003000+00001578+00000+0001T   00001578+0000001825          1400 YB4131               2 Z
201221007201221006-000214-C   201221006003000488360P/GIRLZ INVITE 6PCE    0000001000+00001402+00000+0001T   00001402+0000001825          1400 YB4131               2 Z
201221008201221112-116069     201221006009681820277TCS CARRIER BAG JUMBO  0000001000+00000048+00000+0001T   00000048+0000001825          1400 YB4090               2 Z
201221009201221565-000888     201221006003000607846NOVELTY MESH BALL      0000001000+00001753+00000+0001T   00001753+0000001825          1400 YB4745               2 Z
201221010201221071-001231     201221006003000144990ERASER RETRACT 2PK     0000001000-00001753+00000+0001T   00001753+0000001825          1400 YB41301IC            2AZ
201221011201221903-000211     201221006002099001238SWT GS MALLOW ICE CREAM0000001000-00001753+00000+0001T   00001753+0000001825          1400 YB41501IC            2 Z
201221012201221006-000214-A   201221006003000311057P/GIRL JNR INVITE 6PCE 0000003000-00001578+00000+0001T   00001578+0000001825          1400 YB41311IC            2 Z
201221013201221006-000214-C   201221006003000488360P/GIRLZ INVITE 6PCE    0000001000-00001402+00000+0001T   00001402+0000001825          1400 YB41311IC            2 Z
201221014201221903-000215     201221006002099001214SWT GS MALLOW TWIST PAC0000001000-00001753+00000+0001T   00001753+0000001825          1400 YB41501IC            2 Z
201221015201221006-000113     201221006003000671816BALLOONS WATER FILLER  0000001000-00003507+00000+0001T   00003507+0000001825          1400 YB41311IC            2 Z
201221016201221565-000888     201221006003000607846NOVELTY MESH BALL      0000001000-00001753+00000+0001T   00001753+0000001825          1400 YB47451IC            2 Z
201221017201221112-116069     201221006009681820277TCS CARRIER BAG JUMBO  0000001000-00000048+00000+0001T   00000048+0000001825          1400 YB40901IC            2 Z
201221018201221565-000256     201221006003000609826NOVELTY GLOW SLIME     0000001000-00000700+00000+0001T   00000700+0000001825          1400 YB47451IC            2 Z
M17021391                              CASH        OPSLAVE 2                       Z-REPORT No.   638TOTAL (Sales - Refunds)          13739.66       CASH TO BE BANKED                 7565.50       DEBIT CARDS                          0.00       CREDIT CARDS                      6174.16       Z-READING                        13739.66       AIRTIME DEBIT CARD SALES             0.00       AIRTIME CARD SALES                   0.00       OVERS/UNDERS                         0.00       AIRTIME CASH SALES                   0.00       GIFT CARDS                           0.00       GIFT CARD CASH SALES                 0.00       T O T A L  CASH PAYOUTS              0.00                                                                                                                                                                                                                                                                                                                                                      Z
M17021392                              CASH        OPABSENT                                                                                                                                                                                          ANNUAL LEAVE                                                                                                                                                                                    DAY OFF                                                                                                                                                                                         COMMENTS                                                                                                                                                                                                                                                                                                                                                                                       Z
Y17021300                                          OP00000001222871+000106
ZOP17021320133 SLAVE 2      SALES DATA                     NEXT INVOICE NO.  201222 0638
X OP Slave 2 First invoice 201116 170213 Last invoice 201221 170213 Next invoice 201222 Total number of records 000000436 clbackup completed 20:13:53
