302452000302452               302452               170213OP     1400+00000+OP0000014644+0000014644+000000000+000002052+0000016696+0000000000+I40000016696+0000000000+Z
302452001302452077-000290     302452006001023902023GIFT BOX 26x32x13cm    0000001000+00001753+00000+0001T   00001753+0000000913          1400 KM9112               3BZ
302452002302452018-005007     302452006003000515516MUG OCC. LOVE W/HEARTS 0000001000+00006139+00000+0001T   00006139+0000000913          1400 KM9515               3BZ
302452003302452077-000452     302452006003000284986G/BAG METALLIC MED EMB 0000001000+00001490+00000+0001T   00001490+0000000913          1400 KM9112               3BZ
302452004302452368-000171     302452006003000233250PLUSH BEAR 14cm        0000001000+00005262+00000+0001T   00005262+0000000913          1400 KM9745               3BZ
302453000302453               302453               170213OP     1400+00000+OP0000017590+0000017590+000000000+000002463+0000020053+0000000000+I40000020053+0000000000+Z
302453001302453368-000012     302453006003000610464PLUSH BEAR 30cm SITTING0000001000+00008771+00000+0001T   00008771+0000000922          1400 KM9745               3AZ
302453002302453001-091415     302453006003000329113W/GLS OCC. LOVE 2PC 2800000001000+00008771+00000+0001T   00009648+0006470922          1400 KM9515               3AZ
302453003302453112-116069     302453006009681820277TCS CARRIER BAG JUMBO  0000001000+00000048+00000+0001T   00000048+0000000922          1400 KM9090               3AZ
302454000302454               302454               170213OP     1400+00000+OP0000019770+0000019770+000000000+000002774+0000022540+0000000004+I20000000000+0000022540+Z
302454001302454112-116069     302454006009681820277TCS CARRIER BAG JUMBO  0000001000+00000048+00000+0001T   00000048+0000000927          1400 KM9090               3BZ
302454002302454007-000050     302454006001023528285DISPLAY-ENVELOPE A4    0000002000+00001753+00000+0001T   00001753+0000000927          1400 KM9130               3BZ
302454003302454007-000203     302454006009685850409FILE DISPLAY FLDR ASSTD0000001000+00000437+00000+0001T   00000437+0000000927          1400 KM9130               3BZ
302454004302454071-003040     302454006003000543342PEN CLUTCH+LEAD 5pce   0000001000+00001753+00000+0001T   00001753+0000000927          1400 KM9130               3BZ
302454005302454071-001231     302454006003000144990ERASER RETRACT 2PK     0000001000+00001753+00000+0001T   00001753+0000000927          1400 KM9130               3BZ
302454006302454071-008222     302454006003000418459P/BAG CANVAS ASSTD COL 0000001000+00003069+00000+0001T   00003069+0000000927          1400 KM9130               3BZ
302454007302454071-000325     302454006009635844090RULER PLASTIC 30cm     0000002000+00000437+00000+0001T   00000437+0000000927          1400 KM9130               3BZ
302454008302454301-085001     302454006003000297610ORN WATERBALL LOVE ASST0000001000+00004823+00000+0001T   00004823+0000000927          1400 KM9505               3BZ
302454009302454018-005009     302454006001023725608MUG W/PLUSH-BEAR LOVE  0000001000+00003507+00000+0001T   00003507+0000000927          1400 KM9515               3BZ
302455000302455               302455               170213OP     1400+00000+OP0000003904+0000003904+000000000+000000548+0000004450+0000000002+I20000000000+0000004450+Z
302455001302455007-000167     302455006009685857347SPIRAL NOTES A7 72PG   0000001000+00000350+00000+0001T   00000350+0000000930          1400 KM9130               3BZ
302455002302455016-006515     302455006003000295555S/JAR GLS EMBOSS. 250ML0000002000+00001753+00000+0001T   00001753+0000000930          1400 KM9300               3BZ
302455003302455112-116069     302455006009681820277TCS CARRIER BAG JUMBO  0000001000+00000048+00000+0001T   00000048+0000000930          1400 KM9090               3BZ
302456000302456               302456               170213OP     1400+00000+OP0000001753+0000001753+000000000+000000246+0000001990+0000000009+I20000000000+0000001990+Z
302456001302456032-000313     302456006003000192076MIRROR POCKET PL ROUND 0000001000+00001753+00000+0001T   00001753+0000000932          1400 KM9510               3BZ
302457000302457               302457               170213OP     1400+00000+OP0000016266+0000016266+000000000+000002280+0000018540+0000000006+I20000000000+0000018540+Z
302457001302457112-116069     302457006009681820277TCS CARRIER BAG JUMBO  0000001000+00000048+00000+0001T   00000048+0000000946          1400 KM9090               3BZ
302457002302457080-000127     302457006003000424351VALENTINES DAY 36x24CM 0000002000+00002192+00000+0001T   00002192+0000000946          1400 KM9112               3BZ
302457003302457018-000136     302457006001023659026MUG OCC LOVE W/PLUSH   0000001000+00003507+00000+0001T   00003507+0000000946          1400 KM9515               3BZ
302457004302457301-085001     302457006003000297610ORN WATERBALL LOVE ASST0000001000+00004823+00000+0001T   00004823+0000000946          1400 KM9505               3BZ
302457005302457304-001011     302457006001023806727FLWR ROSE RED W/BEAR   0000002000+00000613+00000+0001T   00000788+0006470946          1400 KM9510               3BZ
302457006302457077-000383     302457006003000247943GIFT-BAG 11X14CM S/COL 0000001000+00000788+00000+0001T   00000788+0000000946          1400 KM9112               3BZ
302457007302457077-000452     302457006003000284986G/BAG METALLIC MED EMB 0000001000+00001490+00000+0001T   00001490+0000000946          1400 KM9112               3BZ
302458000302458               302458               170213OP     1400+00000+OP0000003945+0000003945+000000000+000000553+0000004498+0000000000+I40000004498+0000000000+Z
302458001302458002-000684     302458006001023693778K/TOOL TURNER H/HOUSE  0000001000+00002192+00000+0001T   00002192+0000000955          1400 KM9300               3BZ
302458002302458007-000192     302458006009635830062BOOK H/COVER A4 192PAGE0000001000+00001753+00000+0001T   00001753+0000000955          1400 KM9130               3BZ
302459000302459               302459               170213OP     1400+00000+OP0000003945+0000003945+000000000+000000553+0000004490+0000000008+I20000000000+0000004490+Z
302459001302459038-001804     302459006001023766618DOILIES 27cm RND PKT-100000001000+00001753+00000+0001T   00001753+0000000957          1400 KM9300               3BZ
302459002302459028-085274     302459006001023641571BBQ LIGHTER         H&L0000001000+00002192+00000+0001T   00002192+0000000957          1400 KM9305               3BZ
302460000302460               302460               170213OP     1400+00000+OP0000008942+0000008942+000000000+000001254+0000010190+0000000006+I20000000000+0000010190+Z
302460001302460027-056186     302460006003000638215DISH BRUSH DUCK DESIGN 0000001000+00002630+00000+0001T   00002630+0000001002          1400 KM9212               3BZ
302460002302460133-000008     302460006003000366453KITCHEN SWAB 3PCE CHECK0000001000+00003946+00000+0001T   00003946+0000001002          1400 KM9212               3BZ
302460003302460027-078282     302460006001023767837SCOURER 25g SPIRAL-BALL0000001000+00000613+00000+0001T   00000613+0000001002          1400 KM9212               3BZ
302460004302460200-003024     302460006001023657299REFUSE BAGS 20PCE BLACK0000001000+00001753+00000+0001T   00001753+0000001002          1400 KM9214               3BZ
302461000302461               302461               170213OP     1400+00000+OP0000001927+0000001927+000000000+000000271+0000002198+0000000000+I40000002198+0000000000+Z
302461001302461077-000452     302461006003000284986G/BAG METALLIC MED EMB 0000001000+00001490+00000+0001T   00001490+0000001006          1400 KM9112               3DZ
302461002302461080-000133-A   302461006003000647019MINI VALENTINES CARD   0000001000+00000437+00000+0001T   00000437+0000001006          1400 KM9112               3DZ
302462000302462               302462               170213OP     1400+00000+OP0000001578+0000001578+000000000+000000221+0000001790+0000000009+I20000000000+0000001790+Z
302462001302462077-000303     302462006001023593757GIFT-BAG PAPER MED     0000001000+00001578+00000+0001T   00001578+0000001009          1400 KM9112               3BZ
302463000302463               302463               170213OP     1400+00000+OP0000002629+0000002629+000000000+000000369+0000002990+0000000008+I20000000000+0000002990+Z
302463001302463566-000056     302463006003000661381STICKER DRESS UP GIRL  0000001000+00001753+00000+0001T   00001753+0000001011          1400 KM9130               3BZ
302463002302463566-001108     302463000721129017341NAIL-JEWELLERY ASSTD   0000001000+00000876+00000+0001T   00000876+0000001011          1400 KM9130               3BZ
302464000302464               302464               170213OP     1400+00000+OP0000009072+0000009072+000000000+000001273+0000010345+0000000000+I40000010345+0000000000+Z
302464001302464077-000309     302464006001023608604GIFT-BAG 25X32CM GLOSS 0000001000+00001753+00000+0001T   00001753+0000001019          1400 KM9112               3BZ
302464002302464027-077605     302464006001023997678STEELWOOL PADS 12PC 72g0000001000+00001753+00000+0001T   00001753+0000001019          1400 KM9212               3BZ
302464003302464018-000127     302464006001023380289MUG OCC STRAIGHT LOVE  0000001000+00001578+00000+0001T   00001753+0006471019          1400 KM9515               3BZ
302464004302464112-116069     302464006009681820277TCS CARRIER BAG JUMBO  0000001000+00000048+00000+0001T   00000048+0000001019          1400 KM9090               3BZ
302464005302464564-000012     302464006001023130075BUBBLE BOTTLE MAGIC    0000002000+00000700+00000+0001T   00000700+0000001019          1400 KM9131               3BZ
302464006302464903-000087     302464006001704000161SWT SPECKLED-EGGS 50G  0000001000+00001139+00000+0001T   00001139+0000001019          1400 KM9150               3BZ
302464007302464903-000297     302464006001704002950SWT MS WILD BERRY 50G  0000001000+00000876+00000+0001T   00000876+0000001019          1400 KM9150               3BZ
302464008302464903-000077     302464006939873501687SWT GS MAGIC ROCK FRUIT0000001000+00000525+00000+0001T   00000525+0000001019          1400 KM9150               3BZ
302465000302465               302465               170213OP     1400+00000+OP0000007015+0000007015+000000000+000000983+0000007990+0000000008+I20000000000+0000007990+Z
302465001302465007-000033     302465006003000535231CARD HOLDER W/LANYARD  0000001000+00000876+00000+0001T   00000876+0000001023          1400 KM9130               3BZ
302465002302465007-000890-17  302465006003000645671CALENDAR 2017 ASSTD    0000001000+00006139+00000+0001T   00006139+0000001023          1400 KM9130               3BZ
302466000302466               302466               170213OP     1400+00000+OP0000024248+0000024248+000000000+000003397+0000027645+0000000000+I40000027645+0000000000+Z
302466001302466051-600682     302466006003000267040BIRD FEEDER 11x30cm RND0000001000+00005262+00000+0001T   00005262+0000001025          1400 KM9820               3BZ
302466002302466112-116069     302466006009681820277TCS CARRIER BAG JUMBO  0000001000+00000048+00000+0001T   00000048+0000001025          1400 KM9090               3BZ
302466003302466004-071204     302466006003000624904USB IN-CAR CHARGER 2.1A0000001000+00003507+00000+0001T   00003507+0000001025          1400 KM9310               3BZ
302466004302466004-071206     302466006003000605156USB CABLE CHARGER      0000001000+00003507+00000+0001T   00003507+0000001025          1400 KM9310               3BZ
302466005302466007-000588     302466006001023810090NOTES SHOPPING-LIST+RIB0000001000+00002630+00000+0001T   00002630+0000001025          1400 KM9130               3BZ
302466006302466007-000610     302466006009685851017DIARY HOMEWORK UNDATED 0000001000+00001402+00000+0001T   00001402+0000001025          1400 KM9130               3BZ
302466007302466007-000227     302466006003000646999NOTEBOOK 21x14x1.3cm   0000001000+00004385+00000+0001T   00004385+0000001025          1400 KM9130               3BZ
302466008302466028-001999     302466006001023759535G/CHAIR-COVER 60x60x1100000001000+00003507+00000+0001T   00003507+0000001025          1400 KM9305               3BZ
302467000302467               302467               170213OP     1400+00000+OP0000000876+0000000876+000000000+000000123+0000000990+0000000009+I20000000000+0000000990+Z
302467001302467078-000025     302467008887013700064SUPERGLUE 3g 1PCE CARD 0000001000+00000876+00000+0001T   00000876+0000001027          1400 KM9810               3BZ
302468000302468               302468               170213OP     1400+00000+OP0000033370+0000033370+000000000+000004676+0000038040+0000000006+I20000000000+0000038040+Z
302468001302468112-116069     302468006009681820277TCS CARRIER BAG JUMBO  0000001000+00000048+00000+0001T   00000048+0000001046          1400 KM9090               3BZ
302468002302468002-010403     302468006001023203854JAFFLE-IRON ALUM. H/HOU0000001000+00017542+00000+0001T   00017542+0000001046          1400 KM9300               3BZ
302468003302468079-014004     302468006003000080045ART+CRAFT JEWELRY ASSTD0000001000+00003507+00000+0001T   00003507+0000001046          1400 KM9130               3BZ
302468004302468071-030012     302468006003000283842PEN NVLTY GLITTER 6PC  0000002000+00002630+00000+0001T   00002630+0000001046          1400 KM9130               3BZ
302468005302468362-019381     302468006001023869579HAIR BAND SET 100PCE   0000001000+00002630+00000+0001T   00002630+0000001046          1400 KM9160               3BZ
302468006302468002-012267     302468006001023110886SERVING-TONGS SCISSORS 0000001000+00002630+00000+0001T   00002630+0000001046          1400 KM9300               3BZ
302468007302468251-000070     302468006003000451777PROTECTION-PADS BLK ADH0000001000+00001753+00000+0001T   00001753+0000001046          1400 KM9810               3BZ
302469000302469               302469               170213OP     1400+00000+OP0000001227+0000001227+000000000+000000172+0000001390+0000000009+I20000000000+0000001390+Z
302469001302469079-000010     302469006001023173409P/CRAYONS 12-COL SHORT 0000001000+00001227+00000+0001T   00001227+0000001047          1400 KM9130               3BZ
302470000302470               302470               170213OP     1400+00000+OP0000006486+0000006486+000000000+000000910+0000007390+0000000006+I20000000000+0000007390+Z
302470001302470206-000630     302470006003000631919SPECTACLE CLEANING BRUS0000001000+00001227+00000+0001T   00001227+0000001059          1400 KM9321               3BZ
302470002302470206-000620     302470006003000631797BACK SCRATCHER EXTEND  0000001000+00002630+00000+0001T   00002630+0000001059          1400 KM9321               3BZ
302470003302470071-081112     302470006936198404945CORRECTION TAPE 10mx5mm0000001000+00001753+00000+0001T   00001753+0000001059          1400 KM9130               3BZ
302470004302470077-000314     302470006003000181148GIFT-BAG 11X14CM MATT  0000001000+00000876+00000+0001T   00000876+0000001059          1400 KM9112               3BZ
302471000302471               302471               170213OP     1400+00000+OP0000003507+0000003507+000000000+000000491+0000003990+0000000008+I20000000000+0000003990+Z
302471001302471077-000932     302471006003000409808G/WRAP 700mmx5m PATTERN0000001000+00003507+00000+0001T   00003507+0000001101          1400 KM9112               3BZ
302472000302472               302472               170213OP     1400+00000+OP0000019343+0000019343+000000000+000002710+0000022053+0000000000+I40000022053+0000000000+Z
302472001302472305-074068     302472006001023869128WIND-CHIMES BAMBOO 30CM0000001000+00007016+00000+0001T   00007016+0000001105          1400 KM9505               3BZ
302472002302472305-074100     302472006003000239542W/CHIMES MTL TUBES 80cm0000001000+00012279+00000+0001T   00012279+0000001105          1400 KM9505               3BZ
302472003302472112-116069     302472006009681820277TCS CARRIER BAG JUMBO  0000001000+00000048+00000+0001T   00000048+0000001105          1400 KM9090               3BZ
302473000302473               302473               170213OP     1400+00000+OP0000008801+0000008801+000000000+000001234+0000010030+0000000005+I20000000000+0000010030+Z
302473001302473565-000043     302473006003000109562NOVELTY BALL FUNNY FACE0000003000+00001753+00000+0001T   00001753+0000001106          1400 KM9745               3BZ
302473002302473162-010768     302473006001492107684#TAG LDS SQ HOOPS 2PK  0000001000+00003507+00000+0001T   00003507+0000001106          1400 KM9160               3BZ
302473003302473112-116038     302473006009681820246TCS CARRIER BAG MIDI   0000001000+00000035+00000+0001T   00000035+0000001106          1400 KM9090               3BZ
302474000302474               302474               170213OP     1400+00000+OP0000002804+0000002804+000000000+000000394+0000003198+0000000000+I40000003198+0000000000+Z
302474001302474304-001204     302474006001023737984FLOWER OCC. TEDDY/ROSES0000002000+00001402+00000+0001T   00001490+0006471126          1400 KM9510               3BZ
302475000302475               302475               170213OP     1400+00000+OP0000003507+0000003507+000000000+000000491+0000003990+0000000008+I20000000000+0000003990+Z
302475001302475567-075490     302475009780799372182BK NOVEL ROMANCE AFR   0000001000+00003507+00000+0001T   00003507+0000001126          1400 KM9757               3BZ
302476000302476               302476               170213OP     1400+00000+OP0000011342+0000011342+000000000+000001590+0000012932+0000000000+I40000012932+0000000000+Z
302476001302476112-116038     302476006009681820246TCS CARRIER BAG MIDI   0000001000+00000035+00000+0001T   00000035+0000001129          1400 KM9090               3BZ
302476002302476024-091103     302476006003453014307BAKING-CUP MUFFIN 50PCE0000001000+00002192+00000+0001T   00002192+0000001129          1400 KM9300               3BZ
302476003302476150-003733     302476006003000561735SINK STRAINER S/S 1PCE 0000001000+00001490+00000+0001T   00001490+0000001129          1400 KM9810               3BZ
302476004302476266-001310     302476006003000616848BOYS PLAYSET MARBLES   0000001000+00001578+00000+0001T   00001578+0000001129          1400 KM9710               3BZ
302476005302476024-000214     302476006001023587855COOKIE-CUTTERS PL 6PC  0000001000+00001753+00000+0001T   00001753+0000001129          1400 KM9300               3BZ
302476006302476007-000208     302476006001023582096NOTE-PAD S/STICK 100'S 0000001000+00001490+00000+0001T   00001490+0000001129          1400 KM9130               3BZ
302476007302476903-000090     302476006009826020821SWT GS CHOCO COINS 60g 0000001000+00002104+00000+0001T   00002104+0000001129          1400 KM9150               3BZ
302476008302476903-000120     302476006002099001665SWEET GS ZILLIONS 50g  0000001000+00000700+00000+0001T   00000700+0000001129          1400 KM9150               3BZ
302477000302477               302477               170213OP     1400+00000+OP0000008816+0000008816+000000000+000001236+0000010052+0000000000+I40000010052+0000000000+Z
302477001302477112-116069     302477006009681820277TCS CARRIER BAG JUMBO  0000001000+00000048+00000+0001T   00000048+0000001147          1400 KM9090               3BZ
302477002302477200-003024     302477006001023657299REFUSE BAGS 20PCE BLACK0000001000+00001753+00000+0001T   00001753+0000001147          1400 KM9214               3BZ
302477003302477566-000203     302477006003000443925STCKRS VELVET PUFFY ASS0000001000+00002630+00000+0001T   00002630+0000001147          1400 KM9130               3BZ
302477004302477365-003053     302477006001023542250PLAY DOCTOR MEDICAL-CNT0000001000+00004385+00000+0001T   00004385+0000001147          1400 KM9725               3BZ
302478000302478               302478               170213OP     1400+00000+OP0000002366+0000002366+000000000+000000332+0000002690+0000000008+I20000000000+0000002690+Z
302478001302478077-000314     302478006003000181148GIFT-BAG 11X14CM MATT  0000001000+00000876+00000+0001T   00000876+0000001147          1400 KM9112               3BZ
302478002302478077-000452     302478006003000284986G/BAG METALLIC MED EMB 0000001000+00001490+00000+0001T   00001490+0000001147          1400 KM9112               3BZ
302479000302479               302479               170213OP     1400+00000+OP0000002454+0000002454+000000000+000000344+0000002798+0000000000+I40000002798+0000000000+Z
302479001302479018-000127     302479006001023380289MUG OCC STRAIGHT LOVE  0000001000+00001578+00000+0001T   00001753+0006471152          1400 KM9515               3BZ
302479002302479077-000011-C   302479006001023808523TISSUE 10xSHTS RED     0000001000+00000876+00000+0001T   00000876+0000001152          1400 KM9112               3BZ
302480000302480               302480               170213OP     1400+00000+OP0000008771+0000008771+000000000+000001228+0000009990+0000000009+I20000000000+0000009990+Z
302480001302480072-020242     302480006003000053728PET BED COTTON TEXTILE 0000001000+00008771+00000+0001T   00008771+0000001152          1400 KM9870               3BZ
302481000302481               302481               170213OP     1400+00000+OP0000011445+0000011445+000000000+000001605+0000013050+0000000000+I40000013050+0000000000+Z
302481001302481203-005500     302481006001023914194B/POURER PL OPEN BAR   0000001000+00002192+00000+0001T   00002192+0000001159          1400 KM9300               3BZ
302481002302481002-220002     302481006001023677877F/COVER SQ 31cm WHT    0000001000+00002630+00000+0001T   00002630+0000001159          1400 KM9300               3BZ
302481003302481002-220004     302481006001023467614F/COVER HEXAGONAL 70cm 0000001000+00003069+00000+0001T   00003069+0000001159          1400 KM9300               3BZ
302481004302481200-003024     302481006001023657299REFUSE BAGS 20PCE BLACK0000002000+00001753+00000+0001T   00001753+0000001159          1400 KM9214               3BZ
302481005302481112-116069     302481006009681820277TCS CARRIER BAG JUMBO  0000001000+00000048+00000+0001T   00000048+0000001159          1400 KM9090               3BZ
302482000302482               302482               170213OP     1400+00000+OP0000011450+0000011450+000000000+000001604+0000013054+0000000000+I40000013054+0000000000+Z
302482001302482368-000637     302482006001023874092PLUSH BEAR SLEEPING LOV0000001000+00011402+00000+0001T   00012279+0006471321          1400 KM9745               3BZ
302482002302482112-116069     302482006009681820277TCS CARRIER BAG JUMBO  0000001000+00000048+00000+0001T   00000048+0000001321          1400 KM9090               3BZ
302483000302483               302483               170213OP     1400+00000+OP0000003331+0000003331+000000000+000000467+0000003798+0000000000+I40000003798+0000000000+Z
302483001302483077-000011-Y   302483006001023809858TISSUE-WRAP GOLD 10PCE 0000001000+00001753+00000+0001T   00001753+0000001325          1400 KM9112               3BZ
302483002302483077-000303     302483006001023593757GIFT-BAG PAPER MED     0000001000+00001578+00000+0001T   00001578+0000001325          1400 KM9112               3BZ
302484000302484               302484               170213OP     1400+00000+OP0000003506+0000003506+000000000+000000492+0000003990+0000000008+I20000000000+0000003990+Z
302484001302484012-000001     302484006003000331048MICRO PLATE-COVER 26X6 0000002000+00001753+00000+0001T   00002192+0008191326          1400 KM9300               3AZ
302485000302485               302485               170213OP     1400+00000+OP0000008819+0000008819+000000000+000001235+0000010050+0000000004+I20000000000+0000010050+Z
302485001302485368-000012     302485006003000610464PLUSH BEAR 30cm SITTING0000001000+00008771+00000+0001T   00008771+0000001329          1400 KM9745               3BZ
302485002302485112-116069     302485006009681820277TCS CARRIER BAG JUMBO  0000001000+00000048+00000+0001T   00000048+0000001329          1400 KM9090               3BZ
302486000302486               302486               170213OP     1400+00000+OP0000035084+0000035084+000000000+000004912+0000039990+0000000006+I20000000000+0000039990+Z
302486001302486031-001003     302486006003000280995P/FRAME CLG WDN 44X54CM0000002000+00017542+00000+0001T   00017542+0000001329          1400 KM9510               3BZ
302487000302487               302487               170213OP     1400+00000+OP0000045407+0000045407+000000000+000006369+0000051776+0000000000+I40000051776+0000000000+Z
302487001302487206-000110     302487006003000628186CHOPSTICKS PLASTIC KIDS0000001000+00002630+00000+0001T   00002630+0000001334          1400 KM9321               3BZ
302487002302487206-000100     302487006003000628063TONGS ICE COLD FINGERS 0000001000+00002192+00000+0001T   00002192+0000001334          1400 KM9321               3BZ
302487003302487206-000230     302487006003000631827MUFFIN TOP BAKING CUPS 0000001000+00001753+00000+0001T   00002630+0008171334          1400 KM9321               3BZ
302487004302487206-000180     302487006003000631223TEA INFUSER TEAMAN     0000001000+00004385+00000+0001T   00004385+0000001334          1400 KM9321               3BZ
302487005302487206-000630     302487006003000631919SPECTACLE CLEANING BRUS0000003000+00001227+00000+0001T   00001227+0000001334          1400 KM9321               3BZ
302487006302487206-000450     302487006003000619863DRINKING JAR GLOBE     0000001000+00002630+00000+0001T   00002630+0000001334          1400 KM9321               3BZ
302487007302487206-000620     302487006003000631797BACK SCRATCHER EXTEND  0000002000+00002630+00000+0001T   00002630+0000001334          1400 KM9321               3BZ
302487008302487206-000350     302487006003000633265EGG MOULD SUNRISE      0000002000+00002630+00000+0001T   00002630+0000001334          1400 KM9321               3BZ
302487009302487206-000530     302487006003000620821BIRTHDAY CANDLES 6PC   0000001000+00001139+00000+0001T   00001753+0008181334          1400 KM9321               3BZ
302487010302487206-000230     302487006003000631827MUFFIN TOP BAKING CUPS 0000001000+00001753+00000+0001T   00002630+0008171334          1400 KM9321               3BZ
302487011302487206-000630     302487006003000631919SPECTACLE CLEANING BRUS0000001000+00001227+00000+0001T   00001227+0000001334          1400 KM9321               3BZ
302487012302487206-000110     302487006003000628186CHOPSTICKS PLASTIC KIDS0000001000+00002630+00000+0001T   00002630+0000001334          1400 KM9321               3BZ
302487013302487077-000299     302487006003000395576G/BAG 32x25cm LRG LOVE 0000001000+00001490+00000+0001T   00001490+0000001334          1400 KM9112               3BZ
302487014302487564-000015     302487006003000140862BUBBLE TEST TUBE       0000001000+00001753+00000+0001T   00001753+0000001334          1400 KM9131               3BZ
302487015302487565-000256     302487006003000609826NOVELTY GLOW SLIME     0000001000+00000700+00000+0001T   00000700+0000001334          1400 KM9745               3BZ
302487016302487206-000120     302487006003000628308PEELER CARROT SHARPENER0000001000+00001753+00000+0001T   00001753+0000001334          1400 KM9321               3BZ
302487017302487206-000220     302487006003000631704EGG TIMER COLOUR-CHANGE0000001000+00002630+00000+0001T   00002630+0000001334          1400 KM9321               3BZ
302487018302487903-000015     302487006003000690947SWT MIKE N IKE B/BLAST 0000001000+00001051+00000+0001T   00001051+0000001334          1400 KM9150               3BZ
302487019302487016-006601     302487006001023446121S/JAR GLS MINI W/CLIP  0000001000+00001490+00000+0001T   00001490+0000001334          1400 KM9300               3BZ
302488000302488               302488               170213OP     1400+00000+OP0000000700+0000000700+000000000+000000098+0000000790+0000000008+I20000000000+0000000790+Z
302488001302488584-002037     302488007619943787102ASSORTED MUSIC CD 1-CD 0000001000+00000700+00000+0001T   00000876+0008141335          1400 KM9310               3BZ
302489000302489               302489               170213OP     1400+00000+OP0000005260+0000005260+000000000+000000738+0000005998+0000000000+I40000005998+0000000000+Z
302489001302489071-003009     302489006001024011373PEN CLICK BALL+SFT GRIP0000001000+00002630+00000+0001T   00002630+0000001338          1400 KM9130               3DZ
302489002302489071-001124     302489006001023802873MARKERS WHITEBOARD 3PCE0000001000+00002630+00000+0001T   00002630+0000001338          1400 KM9130               3DZ
302490000302490               302490               170213OP     1400+00000+OP0000012761+0000012761+000000000+000001788+0000014540+0000000009+I20000000000+0000014540+Z
302490001302490038-092233     302490006003000328925TABLE-MAT N/SLIP ASST  0000001000+00003069+00000+0001T   00003507+0008191346          1400 KM9300               3BZ
302490002302490200-003019     302490006003000510856REFUSE BAGS 10PC D/STRN0000002000+00001314+00000+0001T   00001753+0008171346          1400 KM9214               3BZ
302490003302490031-086301-C   302490006001023910240P/FRAME PL BRONZE 20X250000001000+00007016+00000+0001T   00007016+0000001346          1400 KM9510               3BZ
302490004302490112-116069     302490006009681820277TCS CARRIER BAG JUMBO  0000001000+00000048+00000+0001T   00000048+0000001346          1400 KM9090               3BZ
302491000302491               302491               170213OP     1400+00000+OP0000016528+0000016528+000000000+000002318+0000018840+0000000006+I20000000000+0000018840+Z
302491001302491077-000299-A   302491006003000670888GIFT-BAG PAPER JMB LOVE0000002000+00001753+00000+0001T   00001753+0000001348          1400 KM9112               3BZ
302491002302491112-116069     302491006009681820277TCS CARRIER BAG JUMBO  0000001000+00000048+00000+0001T   00000048+0000001348          1400 KM9090               3BZ
302491003302491077-000303     302491006001023593757GIFT-BAG PAPER MED     0000001000+00001578+00000+0001T   00001578+0000001348          1400 KM9112               3BZ
302491004302491006-000120     302491006001023346889BALLOONS 10PC MIX COL  0000001000+00001753+00000+0001T   00001753+0000001348          1400 KM9131               3BZ
302491005302491024-000060     302491006001023443090ROLLING-PIN WHITE      0000001000+00004385+00000+0001T   00005262+0008121348          1400 KM9300               3BZ
302491006302491306-000021-C   302491006003000567294EARBUDS 300PCE IN TUB  0000001000+00001753+00000+0001T   00001753+0000001348          1400 KM9200               3BZ
302491007302491039-000319-1   302491006003000442386B/CANDLES LRG NUMBER-1 0000002000+00000876+00000+0001T   00000876+0000001348          1400 KM9510               3BZ
302491008302491077-000005-D   302491006003000414567PAPER TISSUE 50x70cm   0000001000+00001753+00000+0001T   00001753+0000001348          1400 KM9112               3BZ
302492000302492               302492               170213OP     1400+00000+OP0000001578+0000001578+000000000+000000221+0000001790+0000000009+I20000000000+0000001790+Z
302492001302492080-000124     302492006003000297733CARD & ENV VALENTINES  0000001000+00001578+00000+0001T   00001578+0000001348          1400 KM9112               3BZ
302493000302493               302493               170213OP     1400+00000+OP0000013679+0000013679+000000000+000001916+0000015590+0000000005+I20000000000+0000015590+Z
302493001302493497-058329     302493000078257583294BOAT EXPLORER 100      0000001000+00012279+00000+0001T   00012279+0000001352          1400 KM9787               3AZ
302493002302493903-000120     302493006002099001665SWEET GS ZILLIONS 50g  0000002000+00000700+00000+0001T   00000700+0000001352          1400 KM9150               3AZ
302494000302494               302494               170213OP     1400+00000+OP0000002630+0000002630+000000000+000000369+0000002990+0000000009+I20000000000+0000002990+Z
302494001302494004-071190     302494006003000528691USB CABLE EXT M/F 1.5m 0000001000+00002630+00000+0001T   00002630+0000001400          1400 KM9310               3BZ
302495000302495               302495               170213OP     1400+00000+OP0000004591+0000004591+000000000+000000645+0000005236+0000000000+I40000005236+0000000000+Z
302495001302495022-002106     302495006003000142712MUG EN 6cm ASSTD COLORS0000004000+00001139+00000+0001T   00001139+0000001410          1400 KM9305               3BZ
302495002302495112-116038     302495006009681820246TCS CARRIER BAG MIDI   0000001000+00000035+00000+0001T   00000035+0000001410          1400 KM9090               3BZ
302496000302496               302496               170213OP     1400+00000+OP0000014233+0000014233+000000000+000001996+0000016220+0000000009+I20000000000+0000016220+Z
302496001302496080-000133-A   302496006003000647019MINI VALENTINES CARD   0000002000+00000437+00000+0001T   00000437+0000001413          1400 KM9112               3BZ
302496002302496080-000118     302496006003000237562CARD&ENVLPE-CONGRATS   0000001000+00001753+00000+0001T   00001753+0000001413          1400 KM9112               3BZ
302496003302496031-000002-A   302496006003000247103P/FRAME LOVE 7.5X7.5CM 0000001000+00003507+00000+0001T   00003507+0000001413          1400 KM9510               3BZ
302496004302496077-000303     302496006001023593757GIFT-BAG PAPER MED     0000002000+00001578+00000+0001T   00001578+0000001413          1400 KM9112               3BZ
302496005302496077-000005-B   302496006003000326617PAPER TISSUE PATTERN   0000001000+00002630+00000+0001T   00002630+0000001413          1400 KM9112               3BZ
302496006302496112-116038     302496006009681820246TCS CARRIER BAG MIDI   0000001000+00000035+00000+0001T   00000035+0000001413          1400 KM9090               3BZ
302496007302496018-000127     302496006001023380289MUG OCC STRAIGHT LOVE  0000001000+00001578+00000+0001T   00001753+0006471413          1400 KM9515               3BZ
302496008302496018-000177     302496006001023797513MUG MINI LOVE ASSTD    0000001000+00000700+00000+0001T   00000700+0000001413          1400 KM9515               3BZ
302497000302497               302497               170213OP     1400+00000+OP0000005697+0000005697+000000000+000000799+0000006496+0000000000+I40000006496+0000000000+Z
302497001302497301-085002     302497006003000420704ORN OCC. LOVE BELL ASST0000001000+00001753+00000+0001T   00002630+0008121415          1400 KM9505               3DZ
302497002302497080-000133-A   302497006003000647019MINI VALENTINES CARD   0000001000+00000437+00000+0001T   00000437+0000001415          1400 KM9112               3DZ
302497003302497030-001125     302497006003000225644PLAQUE-WALL PICTURE AST0000001000+00003507+00000+0001T   00003507+0000001415          1400 KM9505               3DZ
302498000302498               302498               170213OP     1400+00000+OP0000019337+0000019337+000000000+000002711+0000022040+0000000008+I20000000000+0000022040+Z
302498001302498031-000845     302498006001023851819PICTURE-FRAME ASSTD    0000001000+00003946+00000+0001T   00003946+0000001416          1400 KM9510               3AZ
302498002302498112-116069     302498006009681820277TCS CARRIER BAG JUMBO  0000001000+00000048+00000+0001T   00000048+0000001416          1400 KM9090               3AZ
302498003302498031-000874-A   302498006001023798800P/FRAME WDN P/BOX 10X150000001000+00003946+00000+0001T   00003946+0000001416          1400 KM9510               3AZ
302498004302498019-071600     302498006001023771971RIVER-STONES 1kg MIXED 0000001000+00002630+00000+0001T   00002630+0000001416          1400 KM9510               3AZ
302498005302498079-000359     302498006003000639823FELT-TIP PENS THERAPY  0000002000+00002630+00000+0001T   00002630+0000001416          1400 KM9130               3AZ
302498006302498077-000932     302498006003000409808G/WRAP 700mmx5m PATTERN0000001000+00003507+00000+0001T   00003507+0000001416          1400 KM9112               3AZ
302499000302499               302499               170213OP     1400+00000+OP0000000876+0000000876+000000000+000000123+0000000990+0000000009+I20000000000+0000000990+Z
302499001302499903-000481     302499006001704007481SWT MOO MILK-SHAKES 60G0000001000+00000876+00000+0001T   00000876+0000001418          1400 KM9150               3AZ
302500000302500               302500               170213OP     1400+00000+OP0000014732+0000014732+000000000+000002064+0000016796+0000000000+I40000016796+0000000000+Z
302500001302500001-091415     302500006003000329113W/GLS OCC. LOVE 2PC 2800000001000+00008771+00000+0001T   00009648+0006471422          1400 KM9515               3AZ
302500002302500080-000100     302500006003000236114CARD & ENVELOPE BDAY   0000001000+00001753+00000+0001T   00001753+0000001422          1400 KM9112               3AZ
302500003302500071-030012     302500006003000283842PEN NVLTY GLITTER 6PC  0000001000+00002630+00000+0001T   00002630+0000001422          1400 KM9130               3AZ
302500004302500080-000124     302500006003000297733CARD & ENV VALENTINES  0000001000+00001578+00000+0001T   00001578+0000001422          1400 KM9112               3AZ
302501000302501               302501               170213OP     1400+00000+OP0000014940+0000014940+000000000+000002095+0000017035+0000000000+I40000017035+0000000000+Z
302501001302501082-096630     302501006001492966304SUNGLASS LDS METAL FRAM0000001000+00006139+00000+0001T   00006139+0000001424          1400 KM9160               3AZ
302501002302501088-000108     302501006001023765536POTPOURRI-OIL 10ml ASST0000001000+00001753+00000+0001T   00001753+0000001424          1400 KM9212               3AZ
302501003302501079-000201     302501006003000161430P/CRAYONS THERAPY 10PCE0000002000+00002630+00000+0001T   00002630+0000001424          1400 KM9130               3AZ
302501004302501077-000373     302501006003000395217G/BAG MED 18X23CM DESGN0000001000+00001753+00000+0001T   00001753+0000001424          1400 KM9112               3AZ
302501005302501112-116038     302501006009681820246TCS CARRIER BAG MIDI   0000001000+00000035+00000+0001T   00000035+0000001424          1400 KM9090               3AZ
302502000302502               302502               170213OP     1400+00000+OP0000003506+0000003506+000000000+000000492+0000003998+0000000000+I40000003998+0000000000+Z
302502001302502077-000381     302502006003000247707GIFT-BAG 25X32CM S/COL 0000001000+00001753+00000+0001T   00001753+0000001425          1400 KM9112               3DZ
302502002302502077-000011-Y   302502006001023809858TISSUE-WRAP GOLD 10PCE 0000001000+00001753+00000+0001T   00001753+0000001425          1400 KM9112               3DZ
302503000302503               302503               170213OP     1400+00000+OP0000004120+0000004120+000000000+000000578+0000004690+0000000008+I20000000000+0000004690+Z
302503001302503019-071601     302503006001023771995RIVER-STONES 1kg WHITE 0000001000+00002630+00000+0001T   00002630+0000001428          1400 KM9510               3BZ
302503002302503019-071605     302503006003000675418PEBBLES R/STONES 500G  0000001000+00001490+00000+0001T   00001490+0000001428          1400 KM9510               3BZ
302504000302504               302504               170213OP     1400+00000+OP0000001839+0000001839+000000000+000000258+0000002090+0000000007+I20000000000+0000002090+Z
302504001302504200-000130     302504006001023645067DESSERT-SPOONS 10PCE   0000003000+00000613+00000+0001T   00000613+0000001428          1400 KM9214               3BZ
302505000302505               302505               170213OP     1400+00000+OP0000014557+0000014557+000000000+000002041+0000016590+0000000008+I20000000000+0000016590+Z
302505001302505112-116069     302505006009681820277TCS CARRIER BAG JUMBO  0000001000+00000048+00000+0001T   00000048+0000001430          1400 KM9090               3BZ
302505002302505566-002000     302505000721129013206STICKERS CRYSTAL ASSTD 0000001000+00000700+00000+0001T   00000700+0000001430          1400 KM9130               3BZ
302505003302505206-000630     302505006003000631919SPECTACLE CLEANING BRUS0000001000+00001227+00000+0001T   00001227+0000001430          1400 KM9321               3BZ
302505004302505566-002000     302505000721129013206STICKERS CRYSTAL ASSTD 0000001000+00000700+00000+0001T   00000700+0000001430          1400 KM9130               3BZ
302505005302505566-000951     302505006003000217670STICKERS 3 STYLES ASSTD0000001000+00002192+00000+0001T   00002192+0000001430          1400 KM9130               3BZ
302505006302505206-000100     302505006003000628063TONGS ICE COLD FINGERS 0000001000+00002192+00000+0001T   00002192+0000001430          1400 KM9321               3BZ
302505007302505566-001228     302505006003000284153STICKERS CRYSTAL ASSTD 0000001000+00001753+00000+0001T   00001753+0000001430          1400 KM9130               3BZ
302505008302505566-000950     302505006003000216048STICKERS 3 STYLES 100PC0000001000+00002192+00000+0001T   00002192+0000001430          1400 KM9130               3BZ
302505009302505566-000362     302505006003000583065STICKER LETTER & NUMBER0000001000+00001753+00000+0001T   00001753+0000001430          1400 KM9130               3BZ
302505010302505903-000494     302505006001704009911SWT GUMMY TEENY TEDDIES0000002000+00000876+00000+0001T   00000876+0000001430          1400 KM9150               3BZ
302505011302505112-116069     302505006009681820277TCS CARRIER BAG JUMBO  0000001000+00000048+00000+0001T   00000048+0000001430          1400 KM9090               3BZ
302506000302506               302506               170213OP     1400+00000+OP0000003507+0000003507+000000000+000000491+0000003990+0000000008+I20000000000+0000003990+Z
302506001302506105-001000     302506006003000520275CONTAINER:CEREAL TO GO 0000001000+00003507+00000+0001T   00004823+0008161430          1400 KM9210               3BZ
302507000302507               302507               170213OP     1400+00000+OP0000029253+0000029253+000000000+000004096+0000033349+0000000000+I40000033349+0000000000+Z
302507001302507560-000113     302507006001023664464GOLD-FISH 4PC          0000001000+00003507+00000+0001T   00003507+0000001434          1400 KM9745               3AZ
302507002302507466-000004     302507006003000469819PLAY-TENT POP-UP BOY   0000001000+00021928+00000+0001T   00021928+0000001434          1400 KM9785               3AZ
302507003302507080-000127     302507006003000424351VALENTINES DAY 36x24CM 0000001000+00002192+00000+0001T   00002192+0000001434          1400 KM9112               3AZ
302507004302507369-001137-B   302507006003000626373BABY BATH VINYL DUCK   0000001000+00001578+00000+0001T   00001578+0000001434          1400 KM9745               3AZ
302507005302507112-116069     302507006009681820277TCS CARRIER BAG JUMBO  0000001000+00000048+00000+0001T   00000048+0000001434          1400 KM9090               3AZ
302508000302508               302508               170213OP     1400+00000+OP0000004032+0000004032+000000000+000000565+0000004590+0000000007+I20000000000+0000004590+Z
302508001302508266-001302     302508006001023331892MARBLES 16MM 45PC      0000001000+00001227+00000+0001T   00001227+0000001441          1400 KM9710               3AZ
302508002302508266-001304     302508006001023560711MARBLES MILKY BAG OF 450000001000+00001227+00000+0001T   00001227+0000001441          1400 KM9710               3AZ
302508003302508266-001303     302508006001023560698MARBLES 25MM 10PC GOONS0000001000+00001578+00000+0001T   00001578+0000001441          1400 KM9710               3AZ
302509000302509               302509               170213OP     1400+00000+OP0000003507+0000003507+000000000+000000491+0000003998+0000000000+I40000003998+0000000000+Z
302509001302509018-005009     302509006001023725608MUG W/PLUSH-BEAR LOVE  0000001000+00003507+00000+0001T   00003507+0000001442          1400 KM9515               3AZ
302510000302510               302510               170213OP     1400+00000+OP0000001139+0000001139+000000000+000000160+0000001290+0000000009+I20000000000+0000001290+Z
302510001302510039-000322     302510006001023524157B/CANDLES W/HOLDERS 24 0000001000+00001139+00000+0001T   00001139+0000001443          1400 KM9510               3BZ
302511000302511               302511               170213OP     1400+00000+OP0000004385+0000004385+000000000+000000614+0000004990+0000000009+I20000000000+0000004990+Z
302511001302511031-080508     302511006001023802415P/FRAME PL 22X11CM LOVE0000001000+00004385+00000+0001T   00004385+0000001444          1400 KM9510               3AZ
302512000302512               302512               170213OP     1400+00000+OP0000035120+0000035120+000000000+000004923+0000040043+0000000000+I40000040043+0000000000+Z
302512001302512077-000381     302512006003000247707GIFT-BAG 25X32CM S/COL 0000004000+00001753+00000+0001T   00001753+0000001447          1400 KM9112               3BZ
302512002302512112-116069     302512006009681820277TCS CARRIER BAG JUMBO  0000001000+00000048+00000+0001T   00000048+0000001447          1400 KM9090               3BZ
302512003302512077-000011-E   302512006001023808646TISSUE-WRAP PINK 10PCE 0000001000+00000876+00000+0001T   00000876+0000001447          1400 KM9112               3BZ
302512004302512077-000011-C   302512006001023808523TISSUE 10xSHTS RED     0000001000+00000876+00000+0001T   00000876+0000001447          1400 KM9112               3BZ
302512005302512365-004002     302512006001023657992KITCHEN-SET ACCESSORIES0000001000+00004385+00000+0001T   00004385+0000001447          1400 KM9725               3BZ
302512006302512077-000270     302512006003000395453GIFT-BAG PPR JMB 33X45 0000001000+00002630+00000+0001T   00002630+0000001447          1400 KM9112               3BZ
302512007302512368-000151     302512006003000166725PLUSH BEAR 14cm        0000001000+00004385+00000+0001T   00004385+0000001447          1400 KM9745               3BZ
302512008302512368-000171     302512006003000233250PLUSH BEAR 14cm        0000001000+00005262+00000+0001T   00005262+0000001447          1400 KM9745               3BZ
302512009302512301-085001     302512006003000297610ORN WATERBALL LOVE ASST0000002000+00004823+00000+0001T   00004823+0000001447          1400 KM9505               3BZ
302513000302513               302513               170213OP     1400+00000+OP0000014645+0000014645+000000000+000002052+0000016697+0000000000+I40000016697+0000000000+Z
302513001302513077-000452     302513006003000284986G/BAG METALLIC MED EMB 0000001000+00001490+00000+0001T   00001490+0000001450          1400 KM9112               3BZ
302513002302513077-000457     302513006003000285662G/BAG METALLIC JMB SOL 0000001000+00001753+00000+0001T   00001753+0000001450          1400 KM9112               3BZ
302513003302513368-000637     302513006001023874092PLUSH BEAR SLEEPING LOV0000001000+00011402+00000+0001T   00012279+0006471450          1400 KM9745               3BZ
302513004302513006-000171-H   302513006003000609574BALLOONS 1PC RED PRINT 0000001000-00000218+00000+0001T   00000218+0000001450          1400 KM91311IC            3 Z
302513005302513006-000171-H   302513006003000609574BALLOONS 1PC RED PRINT 0000001000+00000218+00000+0001T   00000218+0000001450          1400 KM91311IC            3BZ
302514000302514               302514               170213OP     1400+00000+OP0000010784+0000010784+000000000+000001511+0000012295+0000000000+I40000012295+0000000000+Z
302514001302514079-006495     302514006003000159987GLITTER SHAKERS 6PK    0000001000+00002630+00000+0001T   00002630+0000001455          1400 KM9130               3AZ
302514002302514079-000358     302514006003000591046ART+CRAFT FELT-TIP PENS0000001000+00003069+00000+0001T   00003069+0000001455          1400 KM9130               3AZ
302514003302514079-105603     302514006003000230907ART+CRAFT STAMP ROUND  0000001000+00001578+00000+0001T   00001578+0000001455          1400 KM9130               3AZ
302514004302514079-105610     302514006003000249473ART+CRAFT SPONGE INK PA0000001000+00003507+00000+0001T   00003507+0000001455          1400 KM9130               3AZ
302515000302515               302515               170213OP     1400+00000+OP0000014865+0000014865+000000000+000002083+0000016948+0000000000+I40000016948+0000000000+Z
302515001302515077-000303     302515006001023593757GIFT-BAG PAPER MED     0000002000+00001578+00000+0001T   00001578+0000001458          1400 KM9112               3AZ
302515002302515112-116069     302515006009681820277TCS CARRIER BAG JUMBO  0000001000+00000048+00000+0001T   00000048+0000001458          1400 KM9090               3AZ
302515003302515082-000340     302515006003000649037LENS CLOTH MOIST 30PC  0000001000+00002630+00000+0001T   00002630+0000001458          1400 KM9160               3AZ
302515004302515018-000136     302515006001023659026MUG OCC LOVE W/PLUSH   0000001000+00003507+00000+0001T   00003507+0000001458          1400 KM9515               3AZ
302515005302515018-030000     302515006003000421060MUG OCCASIONS LOVE 2PCE0000001000+00004385+00000+0001T   00004385+0000001458          1400 KM9515               3AZ
302515006302515903-000087     302515006001704000161SWT SPECKLED-EGGS 50G  0000001000+00001139+00000+0001T   00001139+0000001458          1400 KM9150               3AZ
302516000302516               302516               170213OP     1400+00000+OP0000009468+0000009468+000000000+000001328+0000010790+0000000006+I20000000000+0000010790+Z
302516001302516567-075466     302516006003000643189BK NOVEL ROMANCE       0000001000+00002630+00000+0001T   00002630+0000001501          1400 KM9757               3CZ
302516002302516567-075466     302516009780263909036BK NOVEL ROMANCE       0000001000+00002630+00000+0001T   00002630+0000001501          1400 KM9757               3CZ
302516003302516567-075466     302516006003000643189BK NOVEL ROMANCE       0000001000+00002630+00000+0001T   00002630+0000001501          1400 KM9757               3CZ
302516004302516077-000303     302516006001023593757GIFT-BAG PAPER MED     0000001000+00001578+00000+0001T   00001578+0000001501          1400 KM9112               3CZ
302517000302517               302517               170213OP     1400+00000+OP0000000035+0000000035+000000000+000000005+0000000040+0000000000+I20000000000+0000000040+Z
302517001302517112-116038     302517006009681820246TCS CARRIER BAG MIDI   0000001000+00000035+00000+0001T   00000035+0000001502          1400 KM9090               3BZ
302518000302518               302518               170213OP     1400+00000+OP0000012146+0000012146+000000000+000001702+0000013840+0000000008+I20000000000+0000013840+Z
302518001302518368-000101     302518006003000449859PLUSH CAT 17cm KITTY   0000001000+00005262+00000+0001T   00005262+0000001503          1400 KM9745               3AZ
302518002302518077-000270     302518006003000395453GIFT-BAG PPR JMB 33X45 0000001000+00002630+00000+0001T   00002630+0000001503          1400 KM9112               3AZ
302518003302518077-000303     302518006001023593757GIFT-BAG PAPER MED     0000001000+00001578+00000+0001T   00001578+0000001503          1400 KM9112               3AZ
302518004302518077-000470     302518006003000330171G-BAG DESGN SML 11X14CM0000002000+00001314+00000+0001T   00001314+0000001503          1400 KM9112               3AZ
302518005302518112-116069     302518006009681820277TCS CARRIER BAG JUMBO  0000001000+00000048+00000+0001T   00000048+0000001503          1400 KM9090               3AZ
302519000302519               302519               170213OP     1400+00000+OP0000002192+0000002192+000000000+000000307+0000002490+0000000009+I20000000000+0000002490+Z
302519001302519039-000326     302519006001023775252B/CANDLES 25PC CAND+HOL0000001000+00002192+00000+0001T   00002192+0000001504          1400 KM9510               3AZ
302520000302520               302520               170213OP     1400+00000+OP0000003283+0000003283+000000000+000000462+0000003740+0000000005+I20000000000+0000003740+Z
302520001302520077-000302     302520008010410010195GIFT-BAG 18X23CM E/D   0000001000+00000876+00000+0001T   00000876+0000001509          1400 KM9112               3BZ
302520002302520080-000100     302520006003000236114CARD & ENVELOPE BDAY   0000001000+00001753+00000+0001T   00001753+0000001509          1400 KM9112               3BZ
302520003302520006-000173-B   302520006003000636358BALLOONS HELIUM 1PC WHT0000001000+00000218+00000+0001T   00000218+0000001509          1400 KM9131               3BZ
302520004302520006-000172-G   302520006003000610167BALLOONS METALLIC SILV 0000002000+00000218+00000+0001T   00000218+0000001509          1400 KM9131               3BZ
302521000302521               302521               170213OP     1400+00000+OP0000001314+0000001314+000000000+000000184+0000001490+0000000008+I20000000000+0000001490+Z
302521001302521464-000238     302521006001023644039GAME SNAKES+LADDERS    0000001000+00001314+00000+0001T   00001314+0000001510          1400 KM9785               3BZ
302522000302522               302522               170213OP     1400+00000+OP0000011007+0000011007+000000000+000001542+0000012549+0000000000+I40000012549+0000000000+Z
302522001302522566-000359     302522006003000582709STICKER BOOK LOVE SPARK0000001000+00002192+00000+0001T   00002192+0000001513          1400 KM9130               3BZ
302522002302522007-000542     302522006001023847874NOTE-BOOK H/C SKETCHPAD0000002000+00003507+00000+0001T   00003507+0000001513          1400 KM9130               3BZ
302522003302522036-000063     302522006009654960436COATHANGERS VIRGIN 5PCE0000001000+00001753+00000+0001T   00001753+0000001513          1400 KM9212               3BZ
302522004302522112-116069     302522006009681820277TCS CARRIER BAG JUMBO  0000001000+00000048+00000+0001T   00000048+0000001513          1400 KM9090               3BZ
302523000302523               302523               170213OP     1400+00000+OP0000004381+0000004381+000000000+000000614+0000004995+0000000000+I40000004995+0000000000+Z
302523001302523903-004950     302523006002580020304SWT APRICOT SURPRISE   0000002000+00001314+00000+0001T   00001314+0000001514          1400 KM9150               3BZ
302523002302523566-000009     302523006003000180943STICKER-BOOK HOLOGRAM  0000001000+00001753+00000+0001T   00001753+0000001514          1400 KM9130               3BZ
302524000302524               302524               170213OP     1400+00000+OP0000000700+0000000700+000000000+000000098+0000000790+0000000008+I20000000000+0000000790+Z
302524001302524306-000023-A   302524006003000110148COTTON WOOL BALLS 50PCE0000001000+00000700+00000+0001T   00001314+0008171515          1400 KM9200               3BZ
302525000302525               302525               170213OP     1400+00000+OP0000001314+0000001314+000000000+000000184+0000001490+0000000008+I20000000000+0000001490+Z
302525001302525251-000001     302525006001023487681TAPE DBL-SIDE 18x1000mm0000001000+00001314+00000+0001T   00001314+0000001518          1400 KM9810               3BZ
302526000302526               302526               170213OP     1400+00000+OP0000000788+0000000788+000000000+000000111+0000000890+0000000009+I20000000000+0000000890+Z
302526001302526077-000383     302526006003000247943GIFT-BAG 11X14CM S/COL 0000001000+00000788+00000+0001T   00000788+0000001523          1400 KM9112               3AZ
302527000302527               302527               170213OP     1400+00000+OP0000012798+0000012798+000000000+000001793+0000014590+0000000001+I20000000000+0000014590+Z
302527001302527028-000797     302527006001023812124SKEWERS 15cm 100PCE    0000001000+00000876+00000+0001T   00000876+0000001524          1400 KM9305               3AZ
302527002302527007-000208     302527006001023582096NOTE-PAD S/STICK 100'S 0000001000+00001490+00000+0001T   00001490+0000001524          1400 KM9130               3AZ
302527003302527566-000068     302527006003000418046POP UP LOVE 2 ASSTD    0000002000+00002192+00000+0001T   00002192+0000001524          1400 KM9130               3AZ
302527004302527071-081091     302527006001151010287STAED/GENKEM ALL-STICK 0000001000+00001227+00000+0001T   00001227+0000001524          1400 KM9130               3AZ
302527005302527038-001800     302527006003000623303DOILIE PAPER HRT 24PC  0000001000+00003507+00000+0001T   00003507+0000001524          1400 KM9300               3AZ
302527006302527903-005002     302527006002580020021SWT MALLOW SNAKE 120g  0000001000+00001314+00000+0001T   00001314+0000001524          1400 KM9150               3AZ
302528000302528               302528               170213OP     1400+00000+OP0000005747+0000005747+000000000+000000805+0000006550+0000000002+I20000000000+0000006550+Z
302528001302528080-000127     302528006003000424351VALENTINES DAY 36x24CM 0000001000+00002192+00000+0001T   00002192+0000001531          1400 KM9112               3BZ
302528002302528112-116069     302528006009681820277TCS CARRIER BAG JUMBO  0000001000+00000048+00000+0001T   00000048+0000001531          1400 KM9090               3BZ
302528003302528018-000136     302528006001023659026MUG OCC LOVE W/PLUSH   0000001000+00003507+00000+0001T   00003507+0000001531          1400 KM9515               3BZ
302529000302529               302529               170213OP     1400+00000+OP0000012536+0000012536+000000000+000001759+0000014290+0000000005+I20000000000+0000014290+Z
302529001302529006-000172-H   302529006003000610211BALLOONS METALLIC RED  0000007000+00000218+00000+0001T   00000218+0000001534          1400 KM9131               3BZ
302529002302529006-000190     302529006003000685530BALLOONS LOVE 81x91cm  0000001000+00004385+00000+0001T   00004385+0000001534          1400 KM9131               3BZ
302529003302529031-080508     302529006001023802415P/FRAME PL 22X11CM LOVE0000001000+00004385+00000+0001T   00004385+0000001534          1400 KM9510               3BZ
302529004302529080-000127     302529006003000424351VALENTINES DAY 36x24CM 0000001000+00002192+00000+0001T   00002192+0000001534          1400 KM9112               3BZ
302529005302529112-116069     302529006009681820277TCS CARRIER BAG JUMBO  0000001000+00000048+00000+0001T   00000048+0000001534          1400 KM9090               3BZ
302530000302530               302530               170213OP     1400+00000+OP0000009028+0000009028+000000000+000001266+0000010294+0000000000+I40000010294+0000000000+Z
302530001302530105-001310     302530006003000572731CONTAINER COLOUR SQUARE0000001000+00003507+00000+0001T   00003507+0000001536          1400 KM9210               3BZ
302530002302530200-003024     302530006001023657299REFUSE BAGS 20PCE BLACK0000001000+00001753+00000+0001T   00001753+0000001536          1400 KM9214               3BZ
302530003302530027-078343     302530006008766078343SCRUB-BRUSH IRON-SHAPE 0000001000+00001139+00000+0001T   00001578+0008191536          1400 KM9212               3BZ
302530004302530027-783002     302530006001023874658SCOURERS FOAM PACK OF 30000001000+00001490+00000+0001T   00001490+0000001536          1400 KM9212               3BZ
302530005302530027-000081     302530006001023760371SCOURING PADS 10PCE    0000001000+00001139+00000+0001T   00001139+0000001536          1400 KM9212               3BZ
302531000302531               302531               170213OP     1400+00000+OP0000004420+0000004420+000000000+000000619+0000005039+0000000000+I40000005039+0000000000+Z
302531001302531018-030000     302531006003000421060MUG OCCASIONS LOVE 2PCE0000001000+00004385+00000+0001T   00004385+0000001600          1400 KM9515               3BZ
302531002302531112-116038     302531006009681820246TCS CARRIER BAG MIDI   0000001000+00000035+00000+0001T   00000035+0000001600          1400 KM9090               3BZ
302532000302532               302532               170213OP     1400+00000+OP0000002807+0000002807+000000000+000000394+0000003200+0000000001+I20000000000+0000003200+Z
302532001302532018-000177     302532006001023797513MUG MINI LOVE ASSTD    0000001000+00000700+00000+0001T   00000700+0000001601          1400 KM9515               3BZ
302532002302532206-000135     302532006003000680450T/BAG HLDR SILICONE    0000001000+00001753+00000+0001T   00001753+0000001601          1400 KM9321               3BZ
302532003302532079-009700-D   302532006003000545711PAPER SIRIO A4 RED COL.0000001000+00000306+00000+0001T   00000306+0000001601          1400 KM9130               3BZ
302532004302532112-116069     302532006009681820277TCS CARRIER BAG JUMBO  0000001000+00000048+00000+0001T   00000048+0000001601          1400 KM9090               3BZ
302533000302533               302533               170213OP     1400+00000+OP0000001578+0000001578+000000000+000000221+0000001799+0000000000+I40000001799+0000000000+Z
302533001302533080-000124     302533006003000297733CARD & ENV VALENTINES  0000001000+00001578+00000+0001T   00001578+0000001605          1400 KM9112               3BZ
302534000302534               302534               170213OP     1400+00000+OP0000007016+0000007016+000000000+000000983+0000007999+0000000000+I40000007999+0000000000+Z
302534001302534560-000245     302534006001023622716RUBBER ANIMALS 10PC ASS0000001000+00007016+00000+0001T   00007016+0000001612          1400 KM9745               3DZ
302535000302535               302535               170213OP     1400+00000+OP0000009254+0000009254+000000000+000001298+0000010550+0000000002+I20000000000+0000010550+Z
302535001302535018-000129     302535006001023403353MUG OCC. LOVE V-SHAPE  0000001000+00002630+00000+0001T   00002630+0000001614          1400 KM9515               3BZ
302535002302535301-085001     302535006003000297610ORN WATERBALL LOVE ASST0000001000+00004823+00000+0001T   00004823+0000001614          1400 KM9505               3BZ
302535003302535903-000615     302535006003000617456SWT JET PLANE J/B 5G   0000001000+00001753+00000+0001T   00001753+0000001614          1400 KM9150               3BZ
302535004302535112-116069     302535006009681820277TCS CARRIER BAG JUMBO  0000001000+00000048+00000+0001T   00000048+0000001614          1400 KM9090               3BZ
302536000302536               302536               170213OP     1400+00000+OP0000002630+0000002630+000000000+000000369+0000002990+0000000009+I20000000000+0000002990+Z
302536001302536079-006495     302536006003000159987GLITTER SHAKERS 6PK    0000001000+00002630+00000+0001T   00002630+0000001617          1400 KM9130               3BZ
302537000302537               302537               170213OP     1400+00000+OP0000013637+0000013637+000000000+000001912+0000015549+0000000000+I40000015549+0000000000+Z
302537001302537077-000011-C   302537006001023808523TISSUE 10xSHTS RED     0000001000+00000876+00000+0001T   00000876+0000001622          1400 KM9112               3AZ
302537002302537077-000299     302537006003000395576G/BAG 32x25cm LRG LOVE 0000001000+00001490+00000+0001T   00001490+0000001622          1400 KM9112               3AZ
302537003302537018-000129     302537006001023403353MUG OCC. LOVE V-SHAPE  0000001000+00002630+00000+0001T   00002630+0000001622          1400 KM9515               3AZ
302537004302537018-000177     302537006001023797513MUG MINI LOVE ASSTD    0000001000+00000700+00000+0001T   00000700+0000001622          1400 KM9515               3AZ
302537005302537301-085007     302537006003000673698ORN OCC. LOVE S/PLAQUE 0000001000+00007893+00000+0001T   00007893+0000001622          1400 KM9505               3AZ
302537006302537112-116069     302537006009681820277TCS CARRIER BAG JUMBO  0000001000+00000048+00000+0001T   00000048+0000001622          1400 KM9090               3AZ
302538000302538               302538               170213OP     1400+00000+OP0000005031+0000005031+000000000+000000706+0000005730+0000000007+I20000000000+0000005730+Z
302538001302538564-000025     302538006003000617104BUBBLE NOVELTY         0000001000+00001753+00000+0001T   00001753+0000001623          1400 KM9131               3BZ
302538002302538019-071605     302538006003000675418PEBBLES R/STONES 500G  0000001000+00001490+00000+0001T   00001490+0000001623          1400 KM9510               3BZ
302538003302538039-001023     302538006003000466337CANDLE TEA-LITE METALIC0000001000+00001753+00000+0001T   00001753+0000001623          1400 KM9510               3BZ
302538004302538112-116038     302538006009681820246TCS CARRIER BAG MIDI   0000001000+00000035+00000+0001T   00000035+0000001623          1400 KM9090               3BZ
302539000302539               302539               170213OP     1400+00000+OP0000002102+0000002102+000000000+000000295+0000002390+0000000007+I20000000000+0000002390+Z
302539001302539077-000311     302539006001023608666GIFT-BAG 11X14CM GLOSS 0000002000+00000613+00000+0001T   00000613+0000001625          1400 KM9112               3CZ
302539002302539077-000011-D   302539006001023808554TISSUE-WRAP WHITE 10PCE0000001000+00000876+00000+0001T   00000876+0000001625          1400 KM9112               3CZ
302540000302540               302540               170213OP     1400+00000+OP0000008538+0000008538+000000000+000001197+0000009735+0000000000+I40000009735+0000000000+Z
302540001302540903-000211     302540006002099001238SWT GS MALLOW ICE CREAM0000001000+00001753+00000+0001T   00001753+0000001628          1400 KM9150               3AZ
302540002302540566-000028     302540006003000265541STICKER BK ASSTD 250PCE0000001000+00001753+00000+0001T   00001753+0000001628          1400 KM9130               3AZ
302540003302540362-101406     302540006003000229741BEAD PLASTIC DIY SET   0000001000+00003507+00000+0001T   00003507+0000001628          1400 KM9160               3AZ
302540004302540112-116038     302540006009681820246TCS CARRIER BAG MIDI   0000001000+00000035+00000+0001T   00000035+0000001628          1400 KM9090               3AZ
302540005302540077-000304     302540006001023483232GIFT-BAG 25X32CM E/DAY 0000001000+00001490+00000+0001T   00001490+0000001628          1400 KM9112               3AZ
302541000302541               302541               170213OP     1400+00000+OP0000014911+0000014911+000000000+000002088+0000016999+0000000000+I40000016999+0000000000+Z
302541001302541266-003000     302541006003000551422PLAYSET LRG MILITARY   0000001000+00014911+00000+0001T   00014911+0000001630          1400 KM9710               3BZ
302542000302542               302542               170213OP     1400+00000+OP0000007453+0000007453+000000000+000001044+0000008497+0000000000+I40000008497+0000000000+Z
302542001302542159-000643     302542006001023767028BACK-BRUSH ASSTD       0000001000+00003507+00000+0001T   00003507+0000001633          1400 KM9200               3BZ
302542002302542036-000013     302542006001246500860LINT REMOVER REFILLS   0000001000+00003946+00000+0001T   00003946+0000001633          1400 KM9212               3BZ
302543000302543               302543               170213OP     1400+00000+OP0000010959+0000010959+000000000+000001535+0000012494+0000000000+I40000012494+0000000000+Z
302543001302543077-000299-A   302543006003000670888GIFT-BAG PAPER JMB LOVE0000001000+00001753+00000+0001T   00001753+0000001650          1400 KM9112               3BZ
302543002302543031-000002-A   302543006003000247103P/FRAME LOVE 7.5X7.5CM 0000001000+00003507+00000+0001T   00003507+0000001650          1400 KM9510               3BZ
302543003302543301-085004     302543006003000420469ORN LOVE PLAQUE 21X10CM0000001000+00003507+00000+0001T   00003946+0006471650          1400 KM9505               3BZ
302543004302543080-000127     302543006003000424351VALENTINES DAY 36x24CM 0000001000+00002192+00000+0001T   00002192+0000001650          1400 KM9112               3BZ
302544000302544               302544               170213OP     1400+00000+OP0000002192+0000002192+000000000+000000307+0000002499+0000000000+I40000002499+0000000000+Z
302544001302544080-000127     302544006003000424351VALENTINES DAY 36x24CM 0000001000+00002192+00000+0001T   00002192+0000001652          1400 KM9112               3BZ
302545000302545               302545               170213OP     1400+00000+OP0000015834+0000015834+000000000+000002218+0000018052+0000000000+I40000018052+0000000000+Z
302545001302545263-000302     302545006003000403738JEEP PL W/ROOF TOP RAFT0000001000+00012279+00000+0001T   00012279+0000001654          1400 KM9710               3BZ
302545002302545466-000106     302545006003000128112BALL PL 20CM BASKETBALL0000001000+00003507+00000+0001T   00003507+0000001654          1400 KM9785               3BZ
302545003302545112-116069     302545006009681820277TCS CARRIER BAG JUMBO  0000001000+00000048+00000+0001T   00000048+0000001654          1400 KM9090               3BZ
302546000302546               302546               170213OP     1400+00000+OP0000000001+0000000001+000000000+000000002+0000000000+0000000003+I20000000000+0000000000+Z
302546001302546495-059703     302546000078257597031LOUNGER AIR-MAT ECONO  0000003000-00003507+00000+0001T   00003507+0000001659          1400 KM97871IC            3 Z
302546002302546039-809558     302546006003000344376CANDLE PILLAR 12CM 4AST0000001000+00006139+00000+0001T   00006139+0000001659          1400 KM9510               3BZ
302546003302546018-000025     302546006003000095056MUG S/WARE V-SHAPE CER.0000001000+00002630+00000+0001T   00002630+0000001659          1400 KM9515               3BZ
302546004302546077-000316     302546006001023609731GIFT-BAG 25X32CM MATT  0000001000+00001753+00000+0001T   00001753+0000001659          1400 KM9112               3BZ
302546005302546306-000021     302546006001023169433EARBUDS 100PCE IN BAG  0000001000-00000613+00000+0001T   00000613+0000001659          1400 KM92001IC            3 Z
302546006302546306-000021     302546006001023169433EARBUDS 100PCE IN BAG  0000001000+00000613+00000+0001T   00000613+0000001659          1400 KM92001IC            3BZ
302547000302547               302547               170213OP     1400+00000+OP0000006712+0000006712+000000000+000000941+0000007653+0000000000+I40000007653+0000000000+Z
302547001302547304-001204     302547006001023737984FLOWER OCC. TEDDY/ROSES0000001000+00001402+00000+0001T   00001490+0006471701          1400 KM9510               3BZ
302547002302547304-001116     302547006003000426164F/BUNCH ROSES 12-HEAD  0000001000+00005262+00000+0001T   00005262+0000001701          1400 KM9510               3BZ
302547003302547112-116069     302547006009681820277TCS CARRIER BAG JUMBO  0000001000+00000048+00000+0001T   00000048+0000001701          1400 KM9090               3BZ
302548000302548               302548               170213OP     1400+00000+OP0000001490+0000001490+000000000+000000209+0000001690+0000000009+I20000000000+0000001690+Z
302548001302548077-000299     302548006003000395576G/BAG 32x25cm LRG LOVE 0000001000+00001490+00000+0001T   00001490+0000001705          1400 KM9112               3BZ
302549000302549               302549               170213OP     1400+00000+OP0000004381+0000004381+000000000+000000614+0000004990+0000000005+I20000000000+0000004990+Z
302549001302549077-000310     302549006001023608635GIFT-BAG 18X23CM GLOSS 0000002000+00001314+00000+0001T   00001314+0000001804          1400 KM9112               3BZ
302549002302549077-000299-A   302549006003000670888GIFT-BAG PAPER JMB LOVE0000001000+00001753+00000+0001T   00001753+0000001804          1400 KM9112               3BZ
302550000302550               302550               170213OP     1400+00000+OP0000004295+0000004295+000000000+000000602+0000004897+0000000000+I40000004897+0000000000+Z
302550001302550206-000630     302550006003000631919SPECTACLE CLEANING BRUS0000001000+00001227+00000+0001T   00001227+0000001805          1400 KM9321               3BZ
302550002302550077-000011-C   302550006001023808523TISSUE 10xSHTS RED     0000001000+00000876+00000+0001T   00000876+0000001805          1400 KM9112               3BZ
302550003302550080-000127     302550006003000424351VALENTINES DAY 36x24CM 0000001000+00002192+00000+0001T   00002192+0000001805          1400 KM9112               3BZ
302551000302551               302551               170213OP     1400+00000+OP0000016224+0000016224+000000000+000002273+0000018497+0000000000+I40000018497+0000000000+Z
302551001302551080-000127     302551006003000424351VALENTINES DAY 36x24CM 0000001000+00002192+00000+0001T   00002192+0000001808          1400 KM9112               3DZ
302551002302551368-000637     302551006001023874092PLUSH BEAR SLEEPING LOV0000001000+00011402+00000+0001T   00012279+0006471808          1400 KM9745               3DZ
302551003302551077-000270     302551006003000395453GIFT-BAG PPR JMB 33X45 0000001000+00002630+00000+0001T   00002630+0000001808          1400 KM9112               3DZ
A17021300                                          15320447OPSLAVE 3                       KM91IC
M17021391                              CASH        OPSLAVE 3                       Z-REPORT No.   649TOTAL (Sales - Refunds)           9926.35       CASH TO BE BANKED                 4420.50       DEBIT CARDS                          0.00       CREDIT CARDS                      5505.82       Z-READING                         9926.32       AIRTIME DEBIT CARD SALES             0.00       AIRTIME CARD SALES                   0.00       OVERS/UNDERS                         0.00       AIRTIME CASH SALES                   0.00       GIFT CARDS                           0.00       GIFT CARD CASH SALES                 0.00       T O T A L  CASH PAYOUTS              0.00                                                                                                                                                                                                                                                                                                                                                      Z
M17021392                              CASH        OPABSENT                                                                                                                                                                                          ANNUAL LEAVE                                                                                                                                                                                    DAY OFF                                                                                                                                                                                         COMMENTS                                                                                                                                                                                                                                                                                                                                                                                       Z
Y17021300                                          OP00000000882295+000100
ZOP17021320133 SLAVE 3      SALES DATA                     NEXT INVOICE NO.  302552 0649
X OP Slave 3 First invoice 302452 170213 Last invoice 302551 170213 Next invoice 302552 Total number of records 000000437 clbackup completed 20:13:55
