105539000105539               105539               170213OR     1400+00000+OR0000002192+0000002192+000000000+000000307+0000002490+0000000009+I20000000000+0000002490+Z
105539001105539002-000740     105539006001023763945GRATER 4-WAY WHITE     0000001000+00002192+00000+0001T   00002192+0000000937          1400 JU3300               1AZ
105540000105540               105540               170213OR     1400+00000+OR0000005259+0000005259+000000000+000000738+0000005990+0000000007+I20000000000+0000005990+Z
105540001105540200-003024     105540006001023657299REFUSE BAGS 20PCE BLACK0000003000+00001753+00000+0001T   00001753+0000000940          1400 JU3214               1AZ
105541000105541               105541               170213OR     1400+00000+OR0000008274+0000008274+000000000+000001160+0000009434+0000000000+I40000009434+0000000000+Z
105541001105541566-000309     105541006003000523283STICKER CHALK-BOARD    0000001000+00001753+00000+0001T   00001753+0000000943          1400 JU3130               1AZ
105541002105541016-006501     105541006001023429285S/JAR GLS HERMETICO    0000001000+00005262+00000+0001T   00005262+0000000943          1400 JU3300               1AZ
105541003105541079-009700-B   105541006003000547661PAPER SIRIO A4 WHITE   0000001000+00000306+00000+0001T   00000306+0000000943          1400 JU3130               1AZ
105541004105541079-009700-D   105541006003000545711PAPER SIRIO A4 RED COL.0000002000+00000306+00000+0001T   00000306+0000000943          1400 JU3130               1AZ
105541005105541079-009700-J   105541006003000546190PAPER SIRIO A4 BLUE    0000001000+00000306+00000+0001T   00000306+0000000943          1400 JU3130               1AZ
105541006105541112-116038     105541006009681820246TCS CARRIER BAG MIDI   0000001000+00000035+00000+0001T   00000035+0000000943          1400 JU3090               1AZ
105542000105542               105542               170213OR     1400+00000+OR0000005262+0000005262+000000000+000000737+0000005990+0000000009+I20000000000+0000005990+Z
105542001105542106-000890     105542000876416080628WATER BOTTLE PL 700ml  0000001000+00005262+00000+0001T   00005262+0000000947          1400 JU3210               1AZ
105543000105543               105543               170213OR     1400+00000+OR0000001753+0000001753+000000000+000000246+0000001990+0000000009+I20000000000+0000001990+Z
105543001105543051-600653     105543006003000267774PLANT SEED TRAY 60CUP  0000001000+00001753+00000+0001T   00001753+0000000949          1400 JU3820               1AZ
105544000105544               105544               170213OR     1400+00000+OR0000006707+0000006707+000000000+000000942+0000007649+0000000000+I40000007649+0000000000+Z
105544001105544077-000010-Z   105544006001023157874CREPE-PAPER BLK/ORG/PUR0000001000+00000788+00000+0001T   00000788+0000000955          1400 JU3112               1AZ
105544002105544077-000010-F   105544006003453000461CREPE-PAPER BLUE       0000001000+00000788+00000+0001T   00000788+0000000955          1400 JU3112               1AZ
105544003105544077-000010-Z   105544006001023157874CREPE-PAPER BLK/ORG/PUR0000001000+00000788+00000+0001T   00000788+0000000955          1400 JU3112               1AZ
105544004105544077-000010-R   105544006001023123916CREPE-PAPER CANARY-YELL0000001000+00000788+00000+0001T   00000788+0000000955          1400 JU3112               1AZ
105544005105544007-000325     105544006009698066514PAPER A4 160GSM 25SHTS 0000001000+00003507+00000+0001T   00003507+0000000955          1400 JU3130               1AZ
105544006105544112-116069     105544006003000535064TCS CARRIER BAG JUMBO  0000001000+00000048+00000+0001T   00000048+0000000955          1400 JU3090               1AZ
105545000105545               105545               170213OR     1400+00000+OR0000001928+0000001928+000000000+000000270+0000002190+0000000008+I20000000000+0000002190+Z
105545001105545174-008032     105545006009654960603TRAVEL BOTTLES 50ml    0000001000+00001928+00000+0001T   00001928+0000000956          1400 JU3205               1AZ
105546000105546               105546               170213OR     1400+00000+OR0000004996+0000004996+000000000+000000701+0000005690+0000000007+I20000000000+0000005690+Z
105546001105546077-000324     105546006001023677594GIFT-BAG 33X45CM E/D FL0000002000+00001753+00000+0001T   00001753+0000000958          1400 JU3112               1AZ
105546002105546077-000452     105546006003000284986G/BAG METALLIC MED EMB 0000001000+00001490+00000+0001T   00001490+0000000958          1400 JU3112               1AZ
105547000105547               105547               170213OR     1400+00000+OR0000005294+0000005294+000000000+000000743+0000006030+0000000007+I20000000000+0000006030+Z
105547001105547016-006515     105547006003000295555S/JAR GLS EMBOSS. 250ML0000003000+00001753+00000+0001T   00001753+0000000959          1400 JU3300               1AZ
105547002105547112-116038     105547006003000534906TCS CARRIER BAG MIDI   0000001000+00000035+00000+0001T   00000035+0000000959          1400 JU3090               1AZ
105548000105548               105548               170213OR     1400+00000+OR0000004821+0000004821+000000000+000000676+0000005490+0000000007+I20000000000+0000005490+Z
105548001105548077-000303     105548006001023593757GIFT-BAG PAPER MED     0000001000+00001578+00000+0001T   00001578+0000001007          1400 JU3112               1AZ
105548002105548077-000270     105548006003000395453GIFT-BAG PPR JMB 33X45 0000001000+00002630+00000+0001T   00002630+0000001007          1400 JU3112               1AZ
105548003105548304-001011     105548006001023806727FLWR ROSE RED W/BEAR   0000001000+00000613+00000+0001T   00000788+0006471007          1400 JU3510               1AZ
105549000105549               105549               170213OR     1400+00000+OR0000027786+0000027786+000000000+000003894+0000031680+0000000000+I40000031680+0000000000+Z
105549001105549112-116069     105549006009681820277TCS CARRIER BAG JUMBO  0000001000+00000048+00000+0001T   00000048+0000001010          1400 JU3090               1AZ
105549002105549024-000168-E   105549006003000675272T/PLATE ROUND CAKE PAN 0000002000+00003507+00000+0001T   00003507+0000001010          1400 JU3300               1AZ
105549003105549071-081104-A   105549006003000326662GLUE-STICK 8g CRD-OF-3 0000001000+00001227+00000+0001T   00001227+0000001010          1400 JU3130               1AZ
105549004105549007-000326     105549006009699513833PAPER A4 80GSM 10'S BLK0000001000+00001402+00000+0001T   00001402+0000001010          1400 JU3130               1AZ
105549005105549566-000317     105549006003000524204STICKER TAPE 2PCS      0000001000+00003507+00000+0001T   00003507+0000001010          1400 JU3130               1AZ
105549006105549024-091103     105549006003453014307BAKING-CUP MUFFIN 50PCE0000001000+00002192+00000+0001T   00002192+0000001010          1400 JU3300               1AZ
105549007105549033-000013     105549006001023567215PILL-REMINDER PL       0000002000+00001227+00000+0001T   00001227+0000001010          1400 JU3200               1AZ
105549008105549566-002000     105549000721129013206STICKERS CRYSTAL ASSTD 0000001000+00000700+00000+0001T   00000700+0000001010          1400 JU3130               1AZ
105549009105549566-000667     105549006003000658039STICKER FOIL EMBOSSED  0000001000+00002192+00000+0001T   00002192+0000001010          1400 JU3130               1AZ
105549010105549566-002000     105549000721129013206STICKERS CRYSTAL ASSTD 0000001000+00000700+00000+0001T   00000700+0000001010          1400 JU3130               1AZ
105549011105549566-001118     105549006003000682171STICKERS CELL PHONE    0000001000+00001753+00000+0001T   00001753+0000001010          1400 JU3130               1AZ
105549012105549566-000992     105549006001023600639STICKERS GLOW-IN-DARK  0000001000+00001314+00000+0001T   00001314+0000001010          1400 JU3130               1AZ
105549013105549566-000535     105549006003000284719STICKER SPARKLE EMBOSS 0000001000+00001753+00000+0001T   00001753+0000001010          1400 JU3130               1AZ
105549014105549079-009700-J   105549006003000546190PAPER SIRIO A4 BLUE    0000002000+00000306+00000+0001T   00000306+0000001010          1400 JU3130               1AZ
105549015105549079-009700-C   105549006003000545636PAPER SIRIO A4 VIOLET  0000001000+00000306+00000+0001T   00000306+0000001010          1400 JU3130               1AZ
105549016105549079-009700-E   105549006003000545797PAPER SIRIO A4 GREY    0000001000+00000306+00000+0001T   00000306+0000001010          1400 JU3130               1AZ
105549017105549079-009700-K   105549006003000546275PAPER SIRIO A4 VANILLA 0000001000+00000306+00000+0001T   00000306+0000001010          1400 JU3130               1AZ
105550000105550               105550               170213OR     1400+00000+OR0000008416+0000008416+000000000+000001179+0000009595+0000000000+I40000009595+0000000000+Z
105550001105550261-008552     105550006001023832580CAP-GUN           ASSTD0000001000+00007016+00000+0001T   00007016+0000001011          1400 JU3710               1AZ
105550002105550261-000121     105550006001023341600GUN-CAPS 8-SHOT CARD-9 0000002000+00000700+00000+0001T   00000700+0000001011          1400 JU3710               1AZ
105551000105551               105551               170213OR     1400+00000+OR0000009674+0000009674+000000000+000001356+0000011030+0000000000+I40000011030+0000000000+Z
105551001105551133-000017     105551006003000525171CLEANING-CLOTHS 5PCE   0000001000+00003507+00000+0001T   00003507+0000001013          1400 JU3212               1AZ
105551002105551002-021022     105551006003000530403C/TAIL STICKS 12PC 20CM0000003000+00001314+00000+0001T   00001753+0008121013          1400 JU3300               1AZ
105551003105551089-000004     105551006003000137749KEY CHAIN MTL CHARMS   0000001000+00001753+00000+0001T   00001753+0000001013          1400 JU3205               1AZ
105551004105551080-000133-A   105551006003000647019MINI VALENTINES CARD   0000001000+00000437+00000+0001T   00000437+0000001013          1400 JU3112               1AZ
105551005105551112-116038     105551006003000534906TCS CARRIER BAG MIDI   0000001000+00000035+00000+0001T   00000035+0000001013          1400 JU3090               1AZ
105552000105552               105552               170213OR     1400+00000+OR0000003507+0000003507+000000000+000000491+0000003990+0000000008+I20000000000+0000003990+Z
105552001105552263-000415     105552006003000600571V/TOOLS PLASTIC ASSEMBL0000001000+00003507+00000+0001T   00003507+0000001014          1400 JU3710               1AZ
105553000105553               105553               170213OR     1400+00000+OR0000015212+0000015212+000000000+000002132+0000017344+0000000000+I40000017344+0000000000+Z
105553001105553077-000301     105553008010410010188BAG LRG 25X32CM B/DAY  0000001000+00001753+00000+0001T   00001753+0000001017          1400 JU3112               1AZ
105553002105553903-000211     105553006002099001238SWT GS MALLOW ICE CREAM0000001000+00001753+00000+0001T   00001753+0000001017          1400 JU3150               1AZ
105553003105553162-093212     105553006001492932125#TAG ER 6PK SET-BALL   0000001000+00004385+00000+0001T   00004385+0000001017          1400 JU3160               1AZ
105553004105553567-014133     105553006003000560103BOOK COLOURING 48 PAGE 0000001000+00001490+00000+0001T   00001490+0000001017          1400 JU3757               1AZ
105553005105553567-014132     105553006003000560028BOOK COLOURING 24 PAGE 0000001000+00000876+00000+0001T   00000876+0000001017          1400 JU3757               1AZ
105553006105553007-000406     105553006009635830659NATURE-STUDY-BOOK 72PG 0000002000+00000700+00000+0001T   00000700+0000001017          1400 JU3130               1AZ
105553007105553018-000136     105553006001023659026MUG OCC LOVE W/PLUSH   0000001000+00003507+00000+0001T   00003507+0000001017          1400 JU3515               1AZ
105553008105553112-116069     105553006003000535064TCS CARRIER BAG JUMBO  0000001000+00000048+00000+0001T   00000048+0000001017          1400 JU3090               1AZ
105554000105554               105554               170213OR     1400+00000+OR0000000788+0000000788+000000000+000000111+0000000890+0000000009+I20000000000+0000000890+Z
105554001105554903-000889     105554006009702259192SWT GUM BEECHIES S/MINT0000001000+00000788+00000+0001T   00000788+0000001018          1400 JU3150               1AZ
105555000105555               105555               170213OR     1400+00000+OR0000006486+0000006486+000000000+000000910+0000007390+0000000006+I20000000000+0000007390+Z
105555001105555206-000630     105555006003000631919SPECTACLE CLEANING BRUS0000001000+00001227+00000+0001T   00001227+0000001018          1400 JU3321               1AZ
105555002105555206-000135     105555006003000680450T/BAG HLDR SILICONE    0000001000+00001753+00000+0001T   00001753+0000001018          1400 JU3321               1AZ
105555003105555566-020150     105555006001023889126STICKERS FOAM 3D ASSTD 0000001000+00001753+00000+0001T   00001753+0000001018          1400 JU3130               1AZ
105555004105555566-000065     105555006003000217915STICKERS GLITTER ASSTD 0000001000+00001753+00000+0001T   00001753+0000001018          1400 JU3130               1AZ
105556000105556               105556               170213OR     1400+00000+OR0000022846+0000022846+000000000+000003202+0000026040+0000000008+I20000000000+0000026040+Z
105556001105556047-002042-H   105556006003000625291P/ADPT 1x16A 2x5A 2xUSB0000001000+00011841+00000+0001T   00011841+0000001023          1400 JU3880               1AZ
105556002105556033-000127     105556006003000676859HAIR COMB BRIGHT 21cm  0000001000+00002630+00000+0001T   00002630+0000001023          1400 JU3200               1AZ
105556003105556251-000054     105556006001023627971FURNITURE SLIDERS 4PCE 0000002000+00002630+00000+0001T   00002630+0000001023          1400 JU3810               1AZ
105556004105556251-000070     105556006003000451777PROTECTION-PADS BLK ADH0000001000+00001753+00000+0001T   00001753+0000001023          1400 JU3810               1AZ
105556005105556112-116069     105556006009681820277TCS CARRIER BAG JUMBO  0000001000+00000048+00000+0001T   00000048+0000001023          1400 JU3090               1AZ
105556006105556077-000312     105556006001023608697GIFT-BAG 10X35CM GLOSS 0000001000+00001314+00000+0001T   00001314+0000001023          1400 JU3112               1AZ
105557000105557               105557               170213OR     1400+00000+OR0000001801+0000001801+000000000+000000253+0000002050+0000000004+I20000000000+0000002050+Z
105557001105557466-000109     105557006003000612345BALL RAINBOW DESIGN    0000001000+00001753+00000+0001T   00001753+0000001024          1400 JU3785               1AZ
105557002105557112-116069     105557006003000535064TCS CARRIER BAG JUMBO  0000001000+00000048+00000+0001T   00000048+0000001024          1400 JU3090               1AZ
105558000105558               105558               170213OR     1400+00000+OR0000004997+0000004997+000000000+000000700+0000005690+0000000007+I20000000000+0000005690+Z
105558001105558039-000108     105558006001023524034TEA-LITE CANDLES 8PCE  0000001000+00001490+00000+0001T   00001490+0000001027          1400 JU3510               1AZ
105558002105558038-000215     105558006003000621613PLACE-MAT RECT 30x40cm 0000001000+00003507+00000+0001T   00003507+0000001027          1400 JU3300               1AZ
105559000105559               105559               170213OR     1400+00000+OR0000005469+0000005469+000000000+000000767+0000006230+0000000006+I20000000000+0000006230+Z
105559001105559903-000519     105559006001704012805SWT MS LIQ-O-GHETTI    0000002000+00001227+00000+0001T   00001227+0000001028          1400 JU3150               1AZ
105559002105559903-000510     105559006001704012621SWEET MS ZBDZ S/BERRY  0000001000+00001227+00000+0001T   00001227+0000001028          1400 JU3150               1AZ
105559003105559903-000082     105559006001704014892SWT MINI WINE GUMS 100G0000001000+00001753+00000+0001T   00001753+0000001028          1400 JU3150               1AZ
105559004105559112-116038     105559006003000534906TCS CARRIER BAG MIDI   0000001000+00000035+00000+0001T   00000035+0000001028          1400 JU3090               1AZ
105560000105560               105560               170213OR     1400+00000+OR0000013628+0000013628+000000000+000001909+0000015537+0000000000+I40000015537+0000000000+Z
105560001105560030-000040     105560006003000396375PLAQUE WDN HANGING HRTS0000001000+00003069+00000+0001T   00003069+0000001031          1400 JU3505               1AZ
105560002105560039-000114     105560006001023524058CANDLE T/LITE RED 3.5CM0000001000+00001753+00000+0001T   00001753+0000001031          1400 JU3510               1AZ
105560003105560001-091415     105560006003000329113W/GLS OCC. LOVE 2PC 2800000001000+00008771+00000+0001T   00009648+0006471031          1400 JU3515               1AZ
105560004105560112-116038     105560006003000534906TCS CARRIER BAG MIDI   0000001000+00000035+00000+0001T   00000035+0000001031          1400 JU3090               1AZ
105561000105561               105561               170213OR     1400+00000+OR0000000876+0000000876+000000000+000000123+0000000990+0000000009+I20000000000+0000000990+Z
105561001105561089-000192-A   105561006001023901774KEY-CHAIN ACRYLIC      0000001000+00000876+00000+0001T   00000876+0000001032          1400 JU3205               1AZ
105562000105562               105562               170213OR     1400+00000+OR0000005747+0000005747+000000000+000000805+0000006550+0000000002+I20000000000+0000006550+Z
105562001105562031-005853     105562006003000442416P/FRAME WDN TWIN HEARTS0000001000+00003507+00000+0001T   00003507+0000001033          1400 JU3510               1AZ
105562002105562080-000127     105562006003000424351VALENTINES DAY 36x24CM 0000001000+00002192+00000+0001T   00002192+0000001033          1400 JU3112               1AZ
105562003105562112-116069     105562006003000535064TCS CARRIER BAG JUMBO  0000001000+00000048+00000+0001T   00000048+0000001033          1400 JU3090               1AZ
105563000105563               105563               170213OR     1400+00000+OR0000024560+0000024560+000000000+000003439+0000027990+0000000009+I20000000000+0000027990+Z
105563001105563022-010600     105563006001023733115ROASTER 26cm OVL 1st-GR0000001000+00024560+00000+0001T   00024560+0000001035          1400 JU3305               1AZ
105564000105564               105564               170213OR     1400+00000+OR0000001788+0000001788+000000000+000000251+0000002039+0000000000+I40000002039+0000000000+Z
105564001105564079-000275     105564006003000160488PAINT-BRUSHES 6PCE PRO 0000001000+00001753+00000+0001T   00001753+0000001036          1400 JU3130               1AZ
105564002105564112-116038     105564006003000534906TCS CARRIER BAG MIDI   0000001000+00000035+00000+0001T   00000035+0000001036          1400 JU3090               1AZ
105565000105565               105565               170213OR     1400+00000+OR0000004385+0000004385+000000000+000000614+0000004990+0000000009+I20000000000+0000004990+Z
105565001105565018-030000     105565006003000421060MUG OCCASIONS LOVE 2PCE0000001000+00004385+00000+0001T   00004385+0000001037          1400 JU3515               1AZ
105566000105566               105566               170213OR     1400+00000+OR0000000000+0000000000+000000000+000000000+0000000000+0000000000+I20000000000+0000000000+Z
105566001105566174-000314     105566006003000053575TRAVEL SEWING KIT      0000001000-00003507+00000+0001T   00003507+0000001054          1400 JU32052IC            1AZ
105566002105566030-004030     105566006003000406418WALL MOUNTED LETTER    0000001000-00008771+00000+0001T   00012279+0008121054          1400 JU35052IC            1AZ
105566003105566112-116069     105566006003000535064TCS CARRIER BAG JUMBO  0000001000-00000048+00000+0001T   00000048+0000001054          1400 JU30902IC            1AZ
105566004105566174-000314     105566006003000053575TRAVEL SEWING KIT      0000001000+00003507+00000+0001T   00003507+0000001054          1400 JU3205               1 Z
105566005105566030-004030     105566006003000406418WALL MOUNTED LETTER    0000001000+00008771+00000+0001T   00012279+0008121054          1400 JU3505               1 Z
105566006105566112-116069     105566006009681820277TCS CARRIER BAG JUMBO  0000001000+00000048+00000+0001T   00000048+0000001054          1400 JU3090               1 Z
105567000105567               105567               170213OR     1400+00000+OR0000000437+0000000437+000000000+000000062+0000000490+0000000009+I20000000000+0000000490+Z
105567001105567080-000133-A   105567006003000647019MINI VALENTINES CARD   0000001000+00000437+00000+0001T   00000437+0000001100          1400 JU3112               1AZ
105568000105568               105568               170213OR     1400+00000+OR0000012326+0000012326+000000000+000001726+0000014052+0000000000+I40000014052+0000000000+Z
105568001105568030-004030     105568006003000406418WALL MOUNTED LETTER    0000001000+00008771+00000+0001T   00012279+0008121102          1400 JU3505               1AZ
105568002105568112-116069     105568006009681820277TCS CARRIER BAG JUMBO  0000001000+00000048+00000+0001T   00000048+0000001102          1400 JU3090               1AZ
105568003105568174-000314     105568006003000053575TRAVEL SEWING KIT      0000001000+00003507+00000+0001T   00003507+0000001102          1400 JU3205               1AZ
105569000105569               105569               170213OR     1400+00000+OR0000024120+0000024120+000000000+000003379+0000027490+0000000009+I20000000000+0000027490+Z
105569001105569112-116069     105569006009681820277TCS CARRIER BAG JUMBO  0000001000+00000048+00000+0001T   00000048+0000001125          1400 JU3090               1AZ
105569002105569104-000052     105569006003000450787BASKET PL 23x8x13cm    0000003000+00002455+00000+0001T   00002455+0000001125          1400 JU3210               1AZ
105569003105569104-000025     105569006001023780287BASKET PL 28x17x11cm   0000003000+00003507+00000+0001T   00003507+0000001125          1400 JU3210               1AZ
105569004105569028-000488     105569006001023458926TABLE-CLAMPS 4PCE   H&L0000001000+00004385+00000+0001T   00004385+0000001125          1400 JU3305               1AZ
105569005105569112-116069     105569006009681820277TCS CARRIER BAG JUMBO  0000001000+00000048+00000+0001T   00000048+0000001125          1400 JU3090               1AZ
105569006105569089-000504     105569006001023701886KEY-CHAIN SNAP-HOOK    0000001000+00001753+00000+0001T   00001753+0000001125          1400 JU3205               1AZ
105570000105570               105570               170213OR     1400+00000+OR0000002453+0000002453+000000000+000000344+0000002790+0000000007+I20000000000+0000002790+Z
105570001105570903-000126     105570006002099003591SWT ZILLIONS MINT 50G  0000001000+00000700+00000+0001T   00000700+0000001126          1400 JU3150               1AZ
105570002105570089-000504     105570006001023701886KEY-CHAIN SNAP-HOOK    0000001000+00001753+00000+0001T   00001753+0000001126          1400 JU3205               1AZ
105571000105571               105571               170213OR     1400+00000+OR0000028498+0000028498+000000000+000003994+0000032492+0000000000+I40000032492+0000000000+Z
105571001105571112-116069     105571006009681820277TCS CARRIER BAG JUMBO  0000001000+00000048+00000+0001T   00000048+0000001129          1400 JU3090               1AZ
105571002105571267-001998     105571008711147355350PUZZLE 300pc FAIRY-TALE0000001000+00005262+00000+0001T   00005262+0000001129          1400 JU3755               1AZ
105571003105571267-000250     105571006001023892386PUZZLE 500pc LANDSCAPE 0000001000+00005262+00000+0001T   00005262+0000001129          1400 JU3755               1AZ
105571004105571050-000365-Z   105571006001023475305PADLOCK IRON 50mm CARD 0000001000+00004385+00000+0001T   00004385+0000001129          1400 JU3855               1AZ
105571005105571071-003853     105571006001023715579PENCIL BASIC HB 12PCE  0000003000+00001753+00000+0001T   00001753+0000001129          1400 JU3130               1AZ
105571006105571079-009700-D   105571006003000545711PAPER SIRIO A4 RED COL.0000003000+00000306+00000+0001T   00000306+0000001129          1400 JU3130               1AZ
105571007105571251-000002     105571006003000093991TAPE D-SIDED 24x1000mm 0000002000+00002192+00000+0001T   00002192+0000001129          1400 JU3810               1AZ
105571008105571903-000519     105571006001704012805SWT MS LIQ-O-GHETTI    0000001000+00001227+00000+0001T   00001227+0000001129          1400 JU3150               1AZ
105571009105571903-000082     105571006001704014892SWT MINI WINE GUMS 100G0000001000+00001753+00000+0001T   00001753+0000001129          1400 JU3150               1AZ
105572000105572               105572               170213OR     1400+00000+OR0000002665+0000002665+000000000+000000374+0000003030+0000000009+I20000000000+0000003030+Z
105572001105572304-000720     105572006001023843050F/BUNCH ROSE 6-HEAD AST0000001000+00002630+00000+0001T   00002630+0000001130          1400 JU3510               1AZ
105572002105572112-116038     105572006003000534906TCS CARRIER BAG MIDI   0000001000+00000035+00000+0001T   00000035+0000001130          1400 JU3090               1AZ
105573000105573               105573               170213OR     1400+00000+OR0000002714+0000002714+000000000+000000382+0000003096+0000000000+I40000003096+0000000000+Z
105573001105573006-000172-H   105573006003000610211BALLOONS METALLIC RED  0000001000+00000218+00000+0001T   00000218+0000001133          1400 JU3131               1AZ
105573002105573006-001000     105573006003000093779HELIUM BALLOON FILL    0000001000+00000613+00000+0001T   00000613+0000001133          1400 JU3131               1AZ
105573003105573071-005214     105573006003000152544CELLOTAPE SUPER REFILL 0000001000+00001490+00000+0001T   00001490+0000001133          1400 JU3130               1AZ
105573004105573903-000183     105573006003000451043SWT LB HEART LOLLY     0000001000+00000393+00000+0001T   00000393+0000001133          1400 JU3150               1AZ
105574000105574               105574               170213OR     1400+00000+OR0000014957+0000014957+000000000+000002095+0000017050+0000000002+I20000000000+0000017050+Z
105574001105574031-000923     105574006001023669933P/FRAME BLK W/WORDS    0000001000+00003507+00000+0001T   00003507+0000001134          1400 JU3510               1AZ
105574002105574030-004050     105574006003000658732PLAQUE WOODEN SIGN     0000001000+00011402+00000+0001T   00011402+0000001134          1400 JU3505               1AZ
105574003105574112-116069     105574006009681820277TCS CARRIER BAG JUMBO  0000001000+00000048+00000+0001T   00000048+0000001134          1400 JU3090               1AZ
105575000105575               105575               170213OR     1400+00000+OR0000002501+0000002501+000000000+000000351+0000002850+0000000002+I20000000000+0000002850+Z
105575001105575362-004000     105575000613153000225DISNEY T/BELL TRINKETS 0000001000+00000700+00000+0001T   00000876+0008181136          1400 JU3160               1AZ
105575002105575306-007302     105575006001023730954BACK-SCRATCH+MASSAGE-WH0000001000+00001753+00000+0001T   00001753+0000001136          1400 JU3200               1AZ
105575003105575112-116069     105575006003000535064TCS CARRIER BAG JUMBO  0000001000+00000048+00000+0001T   00000048+0000001136          1400 JU3090               1AZ
105576000105576               105576               170213OR     1400+00000+OR0000003466+0000003466+000000000+000000486+0000003950+0000000002+I20000000000+0000003950+Z
105576001105576080-000127     105576006003000424351VALENTINES DAY 36x24CM 0000001000+00002192+00000+0001T   00002192+0000001138          1400 JU3112               1AZ
105576002105576112-116069     105576006003000535064TCS CARRIER BAG JUMBO  0000001000+00000048+00000+0001T   00000048+0000001138          1400 JU3090               1AZ
105576003105576304-001011     105576006001023806727FLWR ROSE RED W/BEAR   0000002000+00000613+00000+0001T   00000788+0006471138          1400 JU3510               1AZ
105577000105577               105577               170213OR     1400+00000+OR0000000876+0000000876+000000000+000000123+0000000990+0000000009+I20000000000+0000000990+Z
105577001105577033-010720     105577006001023678645SAFETY-PINS 50PCE SMALL0000001000+00000876+00000+0001T   00000876+0000001139          1400 JU3200               1AZ
105578000105578               105578               170213OR     1400+00000+OR0000003366+0000003366+000000000+000000472+0000003830+0000000008+I20000000000+0000003830+Z
105578001105578018-000170     105578006001023775528MUG OCC. LOVE 2PC MINI 0000001000+00002192+00000+0001T   00002192+0000001146          1400 JU3515               1AZ
105578002105578206-000530     105578006003000620821BIRTHDAY CANDLES 6PC   0000001000+00001139+00000+0001T   00001753+0008181146          1400 JU3321               1AZ
105578003105578112-116038     105578006003000534906TCS CARRIER BAG MIDI   0000001000+00000035+00000+0001T   00000035+0000001146          1400 JU3090               1AZ
105579000105579               105579               170213OR     1400+00000+OR0000001362+0000001362+000000000+000000191+0000001553+0000000000+I40000001553+0000000000+Z
105579001105579007-000044     105579006009635831489DISPLAY-BOOK A4 10-PAGE0000001000+00001314+00000+0001T   00001314+0000001148          1400 JU3130               1AZ
105579002105579112-116069     105579006003000535064TCS CARRIER BAG JUMBO  0000001000+00000048+00000+0001T   00000048+0000001148          1400 JU3090               1AZ
105580000105580               105580               170213OR     1400+00000+OR0000017578+0000017578+000000000+000002467+0000020045+0000000000+I40000020045+0000000000+Z
105580001105580108-005005     105580006003000667451TRAY PL 29x21cm RECT   0000010000+00001753+00000+0001T   00001753+0000001150          1400 JU3210               1AZ
105580002105580112-116069     105580006003000535064TCS CARRIER BAG JUMBO  0000001000+00000048+00000+0001T   00000048+0000001150          1400 JU3090               1AZ
105581000105581               105581               170213OR     1400+00000+OR0000006138+0000006138+000000000+000000860+0000006990+0000000008+I20000000000+0000006990+Z
105581001105581031-000874-B   105581006001023798831P/FRAME WDN P/BOX 13X180000001000+00004385+00000+0001T   00004385+0000001153          1400 JU3510               1AZ
105581002105581077-000351     105581006003000139033GIFT-BAG 18X23CM E/D P 0000001000+00001753+00000+0001T   00001753+0000001153          1400 JU3112               1AZ
105582000105582               105582               170213OR     1400+00000+OR0000003507+0000003507+000000000+000000491+0000003990+0000000008+I20000000000+0000003990+Z
105582001105582108-005010     105582006001023915016TRAY 45cmx31cm RECT    0000001000+00003507+00000+0001T   00003507+0000001154          1400 JU3210               1AZ
105583000105583               105583               170213OR     1400+00000+OR0000008667+0000008667+000000000+000001216+0000009883+0000000000+I40000009883+0000000000+Z
105583001105583006-000173-C   105583006003000636518BALLOONS 1PC PINK      0000003000+00000218+00000+0001T   00000218+0000001159          1400 JU3131               1AZ
105583002105583006-001000     105583006003000093779HELIUM BALLOON FILL    0000003000+00000613+00000+0001T   00000613+0000001159          1400 JU3131               1AZ
105583003105583368-000175     105583006003000270316PLUSH BEAR 4 ASSTD 18CM0000001000+00006139+00000+0001T   00006139+0000001159          1400 JU3745               1AZ
105583004105583112-116038     105583006003000534906TCS CARRIER BAG MIDI   0000001000+00000035+00000+0001T   00000035+0000001159          1400 JU3090               1AZ
105584000105584               105584               170213OR     1400+00000+OR0000000437+0000000437+000000000+000000062+0000000490+0000000009+I20000000000+0000000490+Z
105584001105584080-000133-A   105584006003000647019MINI VALENTINES CARD   0000001000+00000437+00000+0001T   00000437+0000001200          1400 JU3112               1AZ
105585000105585               105585               170213OR     1400+00000+OR0000012749+0000012749+000000000+000001787+0000014536+0000000000+I40000014536+0000000000+Z
105585001105585368-000265     105585006001023750914PLUSH BEAR 23CM ASSTD C0000001000+00006139+00000+0001T   00006139+0000001201          1400 JU3745               1AZ
105585002105585077-000351     105585006003000139033GIFT-BAG 18X23CM E/D P 0000001000+00001753+00000+0001T   00001753+0000001201          1400 JU3112               1AZ
105585003105585080-000133-A   105585006003000647019MINI VALENTINES CARD   0000001000+00000437+00000+0001T   00000437+0000001201          1400 JU3112               1AZ
105585004105585007-000892-17  105585006003000645756DIARY 2017 H/COVER     0000001000+00004385+00000+0001T   00004385+0000001201          1400 JU3130               1AZ
105585005105585112-116038     105585006003000534906TCS CARRIER BAG MIDI   0000001000+00000035+00000+0001T   00000035+0000001201          1400 JU3090               1AZ
105586000105586               105586               170213OR     1400+00000+OR0000011782+0000011782+000000000+000001653+0000013430+0000000005+I20000000000+0000013430+Z
105586001105586016-006425     105586006001023998170S/JAR GLS CLIP W/RIBBON0000003000+00002630+00000+0001T   00002630+0000001305          1400 JU3300               1AZ
105586002105586304-000720     105586006001023843050F/BUNCH ROSE 6-HEAD AST0000001000+00002630+00000+0001T   00002630+0000001305          1400 JU3510               1AZ
105586003105586077-000245     105586006001023759214GIFT-RIBBON METALLICx2 0000001000+00001227+00000+0001T   00001227+0000001305          1400 JU3112               1AZ
105586004105586112-116038     105586006009681820246TCS CARRIER BAG MIDI   0000001000+00000035+00000+0001T   00000035+0000001305          1400 JU3090               1AZ
105587000105587               105587               170213OR     1400+00000+OR0000010817+0000010817+000000000+000001517+0000012334+0000000000+I40000012334+0000000000+Z
105587001105587105-007410     105587006003000629671CONTAINER MINI 300ml   0000002000+00002630+00000+0001T   00003507+0008171306          1400 JU3210               1AZ
105587002105587077-000303     105587006001023593757GIFT-BAG PAPER MED     0000001000+00001578+00000+0001T   00001578+0000001306          1400 JU3112               1AZ
105587003105587031-086102     105587006001023900722P/FRAME PL WORD-TOP 4AS0000001000+00003507+00000+0001T   00003507+0000001306          1400 JU3510               1AZ
105587004105587080-000133-A   105587006003000647019MINI VALENTINES CARD   0000001000+00000437+00000+0001T   00000437+0000001306          1400 JU3112               1AZ
105587005105587112-116038     105587006003000534906TCS CARRIER BAG MIDI   0000001000+00000035+00000+0001T   00000035+0000001306          1400 JU3090               1AZ
105588000105588               105588               170213OR     1400+00000+OR0000005205+0000005205+000000000+000000729+0000005930+0000000004+I20000000000+0000005930+Z
105588001105588903-000120     105588006002099001665SWEET GS ZILLIONS 50g  0000002000+00000700+00000+0001T   00000700+0000001307          1400 JU3150               1AZ
105588002105588206-000100     105588006003000628063TONGS ICE COLD FINGERS 0000001000+00002192+00000+0001T   00002192+0000001307          1400 JU3321               1AZ
105588003105588077-000303     105588006001023593757GIFT-BAG PAPER MED     0000001000+00001578+00000+0001T   00001578+0000001307          1400 JU3112               1AZ
105588004105588112-116038     105588006003000534906TCS CARRIER BAG MIDI   0000001000+00000035+00000+0001T   00000035+0000001307          1400 JU3090               1AZ
105589000105589               105589               170213OR     1400+00000+OR0000003104+0000003104+000000000+000000435+0000003530+0000000009+I20000000000+0000003530+Z
105589001105589072-020315     105589006003000623891PET TOY PUPPY RING 3in10000001000+00003069+00000+0001T   00003069+0000001308          1400 JU3870               1AZ
105589002105589112-116038     105589006003000534906TCS CARRIER BAG MIDI   0000001000+00000035+00000+0001T   00000035+0000001308          1400 JU3090               1AZ
105590000105590               105590               170213OR     1400+00000+OR0000001788+0000001788+000000000+000000251+0000002030+0000000009+I20000000000+0000002030+Z
105590001105590079-000275     105590006003000160488PAINT-BRUSHES 6PCE PRO 0000001000+00001753+00000+0001T   00001753+0000001308          1400 JU3130               1AZ
105590002105590112-116038     105590006003000534906TCS CARRIER BAG MIDI   0000001000+00000035+00000+0001T   00000035+0000001308          1400 JU3090               1AZ
105591000105591               105591               170213OR     1400+00000+OR0000000700+0000000700+000000000+000000098+0000000790+0000000008+I20000000000+0000000790+Z
105591001105591018-000177     105591006001023797513MUG MINI LOVE ASSTD    0000001000+00000700+00000+0001T   00000700+0000001309          1400 JU3515               1AZ
105592000105592               105592               170213OR     1400+00000+OR0000015834+0000015834+000000000+000002218+0000018052+0000000000+I40000018052+0000000000+Z
105592001105592466-000589     105592006003000027538THROWING RINGSx5 SET   0000001000+00005262+00000+0001T   00005262+0000001311          1400 JU3785               1AZ
105592002105592080-000111     105592006003000252695CARD&ENVELPE - MUSICAL 0000001000+00001753+00000+0001T   00001753+0000001311          1400 JU3112               1AZ
105592003105592268-000065     105592006003000658664KITE NYLON FOLDABLE    0000001000+00008771+00000+0001T   00008771+0000001311          1400 JU3785               1AZ
105592004105592112-116069     105592006003000535064TCS CARRIER BAG JUMBO  0000001000+00000048+00000+0001T   00000048+0000001311          1400 JU3090               1AZ
105593000105593               105593               170213OR     1400+00000+OR0000001490+0000001490+000000000+000000209+0000001690+0000000009+I20000000000+0000001690+Z
105593001105593077-000304     105593006001023483232GIFT-BAG 25X32CM E/DAY 0000001000+00001490+00000+0001T   00001490+0000001311          1400 JU3112               1AZ
105594000105594               105594               170213OR     1400+00000+OR0000006187+0000006187+000000000+000000867+0000007050+0000000004+I20000000000+0000007050+Z
105594001105594018-005007     105594006003000515516MUG OCC. LOVE W/HEARTS 0000001000+00006139+00000+0001T   00006139+0000001320          1400 JU3515               1AZ
105594002105594112-116069     105594006003000535064TCS CARRIER BAG JUMBO  0000001000+00000048+00000+0001T   00000048+0000001320          1400 JU3090               1AZ
105595000105595               105595               170213OR     1400+00000+OR0000003555+0000003555+000000000+000000498+0000004050+0000000003+I20000000000+0000004050+Z
105595001105595031-005923     105595006003000040322P/FRAME CERT PL 21x29.70000001000+00003507+00000+0001T   00003507+0000001325          1400 JU3510               1AZ
105595002105595112-116069     105595006003000535064TCS CARRIER BAG JUMBO  0000001000+00000048+00000+0001T   00000048+0000001325          1400 JU3090               1AZ
105596000105596               105596               170213OR     1400+00000+OR0000007049+0000007049+000000000+000000987+0000008036+0000000000+I40000008036+0000000000+Z
105596001105596140-001001     105596006001023599926ROACH-TRAPS 5PCE    BOX0000002000+00003507+00000+0001T   00003507+0000001327          1400 JU3830               1AZ
105596002105596112-116038     105596006003000534906TCS CARRIER BAG MIDI   0000001000+00000035+00000+0001T   00000035+0000001327          1400 JU3090               1AZ
105597000105597               105597               170213OR     1400+00000+OR0000010384+0000010384+000000000+000001454+0000011838+0000000000+I40000011838+0000000000+Z
105597001105597077-000303     105597006001023593757GIFT-BAG PAPER MED     0000001000+00001578+00000+0001T   00001578+0000001331          1400 JU3112               1AZ
105597002105597001-091415     105597006003000329113W/GLS OCC. LOVE 2PC 2800000001000+00008771+00000+0001T   00009648+0006471331          1400 JU3515               1AZ
105597003105597112-116038     105597006003000534906TCS CARRIER BAG MIDI   0000001000+00000035+00000+0001T   00000035+0000001331          1400 JU3090               1AZ
105598000105598               105598               170213OR     1400+00000+OR0000001578+0000001578+000000000+000000221+0000001799+0000000000+I40000001799+0000000000+Z
105598001105598083-000054     105598006001023729071LIGHTER REFILLABLE LED 0000001000+00001578+00000+0001T   00001578+0000001334          1400 JU3315               1AZ
105599000105599               105599               170213OR     1400+00000+OR0000002100+0000002100+000000000+000000294+0000002390+0000000004+I20000000000+0000002390+Z
105599001105599018-000177     105599006001023797513MUG MINI LOVE ASSTD    0000003000+00000700+00000+0001T   00000700+0000001339          1400 JU3515               1AZ
105600000105600               105600               170213OR     1400+00000+OR0000012926+0000012926+000000000+000001811+0000014737+0000000000+I40000014737+0000000000+Z
105600001105600077-000399     105600006003000139514GIFT BAG 18X23CM E/DAY 0000001000+00001490+00000+0001T   00001490+0000001343          1400 JU3112               1AZ
105600002105600301-000013     105600006001023781604ORN SENTIMENT STONE 4-A0000001000+00006139+00000+0001T   00006139+0000001343          1400 JU3505               1AZ
105600003105600301-000120     105600006003000456420ORN ANGEL BELL 10CM    0000001000+00005262+00000+0001T   00005262+0000001343          1400 JU3505               1AZ
105600004105600112-116038     105600006003000534906TCS CARRIER BAG MIDI   0000001000+00000035+00000+0001T   00000035+0000001343          1400 JU3090               1AZ
105601000105601               105601               170213OR     1400+00000+OR0000000876+0000000876+000000000+000000123+0000000990+0000000009+I20000000000+0000000990+Z
105601001105601077-000011-F   105601006001023808431TISSUE-WRAP BLUE/LILAC 0000001000+00000876+00000+0001T   00000876+0000001344          1400 JU3112               1AZ
105602000105602               105602               170213OR     1400+00000+OR0000001227+0000001227+000000000+000000172+0000001390+0000000009+I20000000000+0000001390+Z
105602001105602007-000160     105602006009685857286NOTE-BOOK A5 SHORTHAND 0000001000+00001227+00000+0001T   00001227+0000001351          1400 JU3130               1AZ
105603000105603               105603               170213OR     1400+00000+OR0000003507+0000003507+000000000+000000491+0000003990+0000000008+I20000000000+0000003990+Z
105603001105603301-085004     105603006003000420469ORN LOVE PLAQUE 21X10CM0000001000+00003507+00000+0001T   00003946+0006471352          1400 JU3505               1AZ
105604000105604               105604               170213OR     1400+00000+OR0000004420+0000004420+000000000+000000619+0000005030+0000000009+I20000000000+0000005030+Z
105604001105604368-000049     105604006003000536955PLUSH BEAR 15cm LOVE   0000001000+00004385+00000+0001T   00004385+0000001353          1400 JU3745               1AZ
105604002105604112-116038     105604006003000534906TCS CARRIER BAG MIDI   0000001000+00000035+00000+0001T   00000035+0000001353          1400 JU3090               1AZ
105605000105605               105605               170213OR     1400+00000+OR0000001578+0000001578+000000000+000000221+0000001790+0000000009+I20000000000+0000001790+Z
105605001105605080-000124     105605006003000297733CARD & ENV VALENTINES  0000001000+00001578+00000+0001T   00001578+0000001357          1400 JU3112               1AZ
105606000105606               105606               170213OR     1400+00000+OR0000003542+0000003542+000000000+000000496+0000004030+0000000008+I20000000000+0000004030+Z
105606001105606140-001001     105606006001023599926ROACH-TRAPS 5PCE    BOX0000001000+00003507+00000+0001T   00003507+0000001357          1400 JU3830               1AZ
105606002105606112-116038     105606006003000534906TCS CARRIER BAG MIDI   0000001000+00000035+00000+0001T   00000035+0000001357          1400 JU3090               1AZ
105607000105607               105607               170213OR     1400+00000+OR0000005923+0000005923+000000000+000000830+0000006750+0000000003+I20000000000+0000006750+Z
105607001105607001-000175     105607006001023788108B/MUG GLS LOVE 380ML   0000001000+00004385+00000+0001T   00004385+0000001359          1400 JU3515               1AZ
105607002105607077-000299     105607006003000395576G/BAG 32x25cm LRG LOVE 0000001000+00001490+00000+0001T   00001490+0000001359          1400 JU3112               1AZ
105607003105607112-116069     105607006003000535064TCS CARRIER BAG JUMBO  0000001000+00000048+00000+0001T   00000048+0000001359          1400 JU3090               1AZ
105608000105608               105608               170213OR     1400+00000+OR0000003291+0000003291+000000000+000000462+0000003750+0000000003+I20000000000+0000003750+Z
105608001105608077-000342     105608006003000273942G/BAG PAPER LRG 25X32CM0000001000+00001490+00000+0001T   00001490+0000001400          1400 JU3112               1AZ
105608002105608306-000024-A   105608006003000577309COTTON-WOOL-PADS 80PC  0000001000+00001753+00000+0001T   00001753+0000001400          1400 JU3200               1AZ
105608003105608112-116069     105608006003000535064TCS CARRIER BAG JUMBO  0000001000+00000048+00000+0001T   00000048+0000001400          1400 JU3090               1AZ
105609000105609               105609               170213OR     1400+00000+OR0000001227+0000001227+000000000+000000172+0000001390+0000000009+I20000000000+0000001390+Z
105609001105609077-000245     105609006001023759214GIFT-RIBBON METALLICx2 0000001000+00001227+00000+0001T   00001227+0000001400          1400 JU3112               1AZ
105610000105610               105610               170213OR     1400+00000+OR0000002665+0000002665+000000000+000000374+0000003039+0000000000+I40000003039+0000000000+Z
105610001105610304-000720     105610006001023843050F/BUNCH ROSE 6-HEAD AST0000001000+00002630+00000+0001T   00002630+0000001412          1400 JU3510               1AZ
105610002105610112-116038     105610006003000534906TCS CARRIER BAG MIDI   0000001000+00000035+00000+0001T   00000035+0000001412          1400 JU3090               1AZ
105611000105611               105611               170213OR     1400+00000+OR0000005734+0000005734+000000000+000000803+0000006537+0000000000+I40000006537+0000000000+Z
105611001105611077-000312     105611006001023608697GIFT-BAG 10X35CM GLOSS 0000001000+00001314+00000+0001T   00001314+0000001414          1400 JU3112               1AZ
105611002105611301-086007     105611006003000426706ORN OCC DAD WDN LETTERS0000001000+00004385+00000+0001T   00004385+0000001414          1400 JU3505               1AZ
105611003105611112-116038     105611006003000534906TCS CARRIER BAG MIDI   0000001000+00000035+00000+0001T   00000035+0000001414          1400 JU3090               1AZ
105612000105612               105612               170213OR     1400+00000+OR0000004997+0000004997+000000000+000000700+0000005690+0000000007+I20000000000+0000005690+Z
105612001105612077-000452     105612006003000284986G/BAG METALLIC MED EMB 0000001000+00001490+00000+0001T   00001490+0000001415          1400 JU3112               1AZ
105612002105612018-005009     105612006001023725608MUG W/PLUSH-BEAR LOVE  0000001000+00003507+00000+0001T   00003507+0000001415          1400 JU3515               1AZ
105613000105613               105613               170213OR     1400+00000+OR0000002539+0000002539+000000000+000000356+0000002890+0000000005+I20000000000+0000002890+Z
105613001105613903-000120     105613006002099001665SWEET GS ZILLIONS 50g  0000001000+00000700+00000+0001T   00000700+0000001416          1400 JU3150               1AZ
105613002105613903-000126     105613006002099003591SWT ZILLIONS MINT 50G  0000001000+00000700+00000+0001T   00000700+0000001416          1400 JU3150               1AZ
105613003105613903-000087     105613006001704000161SWT SPECKLED-EGGS 50G  0000001000+00001139+00000+0001T   00001139+0000001416          1400 JU3150               1AZ
105614000105614               105614               170213OR     1400+00000+OR0000004993+0000004993+000000000+000000700+0000005690+0000000003+I20000000000+0000005690+Z
105614001105614903-000099     105614006923431501646SWT CANDY GS WTCH B/LET0000003000+00000262+00000+0001T   00000262+0000001417          1400 JU3150               1AZ
105614002105614903-000070     105614006001704001106SWT TOFFEE CREAMY 35g  0000001000+00000700+00000+0001T   00000700+0000001417          1400 JU3150               1AZ
105614003105614560-000102     105614006001023746979ANIMALS FARM IN-TUBE   0000001000+00003507+00000+0001T   00003507+0000001417          1400 JU3745               1AZ
105615000105615               105615               170213OR     1400+00000+OR0000003542+0000003542+000000000+000000496+0000004030+0000000008+I20000000000+0000004030+Z
105615001105615018-000136     105615006001023659026MUG OCC LOVE W/PLUSH   0000001000+00003507+00000+0001T   00003507+0000001420          1400 JU3515               1AZ
105615002105615112-116038     105615006003000534906TCS CARRIER BAG MIDI   0000001000+00000035+00000+0001T   00000035+0000001420          1400 JU3090               1AZ
105616000105616               105616               170213OR     1400+00000+OR0000000876+0000000876+000000000+000000123+0000000990+0000000009+I20000000000+0000000990+Z
105616001105616007-000127     105616006009685853431BOOK H/COVER MEMO 144PG0000001000+00000876+00000+0001T   00000876+0000001421          1400 JU3130               1AZ
105617000105617               105617               170213OR     1400+00000+OR0000003156+0000003156+000000000+000000442+0000003590+0000000008+I20000000000+0000003590+Z
105617001105617077-000303     105617006001023593757GIFT-BAG PAPER MED     0000002000+00001578+00000+0001T   00001578+0000001421          1400 JU3112               1AZ
105618000105618               105618               170213OR     1400+00000+OR0000002630+0000002630+000000000+000000369+0000002990+0000000009+I20000000000+0000002990+Z
105618001105618077-000270     105618006003000395453GIFT-BAG PPR JMB 33X45 0000001000+00002630+00000+0001T   00002630+0000001426          1400 JU3112               1AZ
105619000105619               105619               170213OR     1400+00000+OR0000012327+0000012327+000000000+000001727+0000014050+0000000004+I20000000000+0000014050+Z
105619001105619368-000113     105619006001023780874PLUSH BLINGED LOVE 30cm0000001000+00012279+00000+0001T   00012279+0000001428          1400 JU3745               1AZ
105619002105619112-116069     105619006003000535064TCS CARRIER BAG JUMBO  0000001000+00000048+00000+0001T   00000048+0000001428          1400 JU3090               1AZ
105620000105620               105620               170213OR     1400+00000+OR0000004385+0000004385+000000000+000000614+0000004999+0000000000+I40000004999+0000000000+Z
105620001105620082-000120     105620006003000360727READING GLS STRENGTH:3 0000001000+00004385+00000+0001T   00004385+0000001430          1400 JU3160               1AZ
105621000105621               105621               170213OR     1400+00000+OR0000002630+0000002630+000000000+000000369+0000002990+0000000009+I20000000000+0000002990+Z
105621001105621077-000270     105621006003000395453GIFT-BAG PPR JMB 33X45 0000001000+00002630+00000+0001T   00002630+0000001431          1400 JU3112               1AZ
105622000105622               105622               170213OR     1400+00000+OR0000000876+0000000876+000000000+000000123+0000000990+0000000009+I20000000000+0000000990+Z
105622001105622077-000314     105622006003000181148GIFT-BAG 11X14CM MATT  0000001000+00000876+00000+0001T   00000876+0000001432          1400 JU31122IC            1AZ
105623000105623               105623               170213OR     1400+00000+OR0000004420+0000004420+000000000+000000619+0000005030+0000000009+I20000000000+0000005030+Z
105623001105623464-008011     105623006003000137091GAME COMPENDIUM 5-IN-1 0000001000+00004385+00000+0001T   00004385+0000001433          1400 JU3785               1AZ
105623002105623112-116038     105623006003000534906TCS CARRIER BAG MIDI   0000001000+00000035+00000+0001T   00000035+0000001433          1400 JU3090               1AZ
105624000105624               105624               170213OR     1400+00000+OR0000001578+0000001578+000000000+000000221+0000001790+0000000009+I20000000000+0000001790+Z
105624001105624077-000303     105624006001023593757GIFT-BAG PAPER MED     0000001000+00001578+00000+0001T   00001578+0000001433          1400 JU3112               1AZ
105625000105625               105625               170213OR     1400+00000+OR0000003506+0000003506+000000000+000000492+0000003990+0000000008+I20000000000+0000003990+Z
105625001105625200-003024     105625006001023657299REFUSE BAGS 20PCE BLACK0000002000+00001753+00000+0001T   00001753+0000001434          1400 JU3214               1AZ
105626000105626               105626               170213OR     1400+00000+OR0000003507+0000003507+000000000+000000491+0000003990+0000000008+I20000000000+0000003990+Z
105626001105626140-001001     105626006001023599926ROACH-TRAPS 5PCE    BOX0000001000+00003507+00000+0001T   00003507+0000001436          1400 JU3830               1AZ
105627000105627               105627               170213OR     1400+00000+OR0000006840+0000006840+000000000+000000958+0000007798+0000000000+I40000007798+0000000000+Z
105627001105627369-000042     105627006001023993854BABY BEAR RATTLE ASSTD 0000001000+00004385+00000+0001T   00004385+0000001438          1400 JU3745               1AZ
105627002105627077-000380     105627006003000247585GIFT-BAG 33X45CM S/COL 0000001000+00002455+00000+0001T   00002455+0000001438          1400 JU3112               1AZ
105628000105628               105628               170213OR     1400+00000+OR0000001753+0000001753+000000000+000000246+0000001990+0000000009+I20000000000+0000001990+Z
105628001105628027-000917     105628006001023367433DUSTPAN-SET MINI 21x16 0000001000+00001753+00000+0001T   00001753+0000001438          1400 JU3212               1AZ
105629000105629               105629               170213OR     1400+00000+OR0000004385+0000004385+000000000+000000614+0000004990+0000000009+I20000000000+0000004990+Z
105629001105629019-000070     105629006003000297474VASE GLS CLEAR BOTTLE  0000001000+00004385+00000+0001T   00004385+0000001438          1400 JU3510               1AZ
105630000105630               105630               170213OR     1400+00000+OR0000005699+0000005699+000000000+000000799+0000006498+0000000000+I40000006498+0000000000+Z
105630001105630031-000874-A   105630006001023798800P/FRAME WDN P/BOX 10X150000001000+00003946+00000+0001T   00003946+0000001444          1400 JU3510               1AZ
105630002105630077-000316     105630006001023609731GIFT-BAG 25X32CM MATT  0000001000+00001753+00000+0001T   00001753+0000001444          1400 JU3112               1AZ
105631000105631               105631               170213OR     1400+00000+OR0000001753+0000001753+000000000+000000246+0000001990+0000000009+I20000000000+0000001990+Z
105631001105631077-000299-A   105631006003000670888GIFT-BAG PAPER JMB LOVE0000001000+00001753+00000+0001T   00001753+0000001444          1400 JU3112               1AZ
105632000105632               105632               170213OR     1400+00000+OR0000008769+0000008769+000000000+000001229+0000009998+0000000000+I40000009998+0000000000+Z
105632001105632016-006511     105632006003000673995S/JAR GLS CHALK W/LID  0000001000+00007016+00000+0001T   00007016+0000001446          1400 JU3300               1AZ
105632002105632077-000316     105632006001023609731GIFT-BAG 25X32CM MATT  0000001000+00001753+00000+0001T   00001753+0000001446          1400 JU3112               1AZ
105633000105633               105633               170213OR     1400+00000+OR0000006137+0000006137+000000000+000000860+0000006990+0000000007+I20000000000+0000006990+Z
105633001105633107-003120     105633006003000676958BASIN W/HANDLES FLEXI  0000001000+00002630+00000+0001T   00002630+0000001454          1400 JU3210               1AZ
105633002105633174-008023     105633006001023730695PONCHO 132x203cm TWIN-P0000001000+00003507+00000+0001T   00003507+0000001454          1400 JU3205               1AZ
105634000105634               105634               170213OR     1400+00000+OR0000027667+0000027667+000000000+000003876+0000031543+0000000000+I40000031543+0000000000+Z
105634001105634362-002467     105634006003000167623HAIR EXT LONG 61cm     0000001000+00003507+00000+0001T   00003507+0000001458          1400 JU3160               1AZ
105634002105634261-003344     105634006001023186294GUN RIFLE PL CAP       0000001000+00004385+00000+0001T   00004385+0000001458          1400 JU3710               1AZ
105634003105634112-116069     105634006009681820277TCS CARRIER BAG JUMBO  0000001000+00000048+00000+0001T   00000048+0000001458          1400 JU3090               1AZ
105634004105634562-058911     105634006001023705778EDU MAGNETIC UPPER CASE0000001000+00003507+00000+0001T   00003507+0000001458          1400 JU3755               1AZ
105634005105634562-058912     105634006001023705921NUMBERS+MAGNETIC-BOARD 0000001000+00001753+00000+0001T   00001753+0000001458          1400 JU3755               1AZ
105634006105634206-000100     105634006003000628063TONGS ICE COLD FINGERS 0000002000+00002192+00000+0001T   00002192+0000001458          1400 JU3321               1AZ
105634007105634079-130010     105634006003000496624ART+CRAFT FOAM DOLLS   0000001000+00004385+00000+0001T   00004385+0000001458          1400 JU3130               1AZ
105634008105634077-000005-D   105634006003000414567PAPER TISSUE 50x70cm   0000001000+00001753+00000+0001T   00001753+0000001458          1400 JU3112               1AZ
105634009105634077-000009     105634006003000152377PAPER CREPE ALUM COL   0000001000+00003069+00000+0001T   00003069+0000001458          1400 JU3112               1AZ
105634010105634083-000295     105634006001023898562LIGHTER-GAS BUTANE 18ml0000001000+00000876+00000+0001T   00000876+0000001458          1400 JU3315               1AZ
105635000105635               105635               170213OR     1400+00000+OR0000014142+0000014142+000000000+000001985+0000016127+0000000000+I40000016127+0000000000+Z
105635001105635252-000011     105635006001023475190CURTN-GLIDER ACETYL x500000002000+00000876+00000+0001T   00000876+0000001501          1400 JU3810               1AZ
105635002105635252-000013     105635006001023488107CURTN-HOOK R6 ACETYLx500000001000+00000876+00000+0001T   00000876+0000001501          1400 JU3810               1AZ
105635003105635252-000011     105635006001023475190CURTN-GLIDER ACETYL x500000001000+00000876+00000+0001T   00000876+0000001501          1400 JU3810               1AZ
105635004105635252-000013     105635006001023488107CURTN-HOOK R6 ACETYLx500000005000+00000876+00000+0001T   00000876+0000001501          1400 JU3810               1AZ
105635005105635150-003733     105635006003000561735SINK STRAINER S/S 1PCE 0000003000+00001490+00000+0001T   00001490+0000001501          1400 JU3810               1AZ
105635006105635007-000551     105635006001023848079NOTE-PAD SHOP-LIST ASST0000001000+00001753+00000+0001T   00001753+0000001501          1400 JU3130               1AZ
105635007105635112-116038     105635006009681820246TCS CARRIER BAG MIDI   0000001000+00000035+00000+0001T   00000035+0000001501          1400 JU3090               1AZ
105636000105636               105636               170213OR     1400+00000+OR0000007102+0000007102+000000000+000000995+0000008097+0000000000+I40000008097+0000000000+Z
105636001105636018-030000     105636006003000421060MUG OCCASIONS LOVE 2PCE0000001000+00004385+00000+0001T   00004385+0000001502          1400 JU3515               1AZ
105636002105636903-000087     105636006001704000161SWT SPECKLED-EGGS 50G  0000001000+00001139+00000+0001T   00001139+0000001502          1400 JU3150               1AZ
105636003105636077-000303     105636006001023593757GIFT-BAG PAPER MED     0000001000+00001578+00000+0001T   00001578+0000001502          1400 JU3112               1AZ
105637000105637               105637               170213OR     1400+00000+OR0000007014+0000007014+000000000+000000982+0000007996+0000000000+I40000007996+0000000000+Z
105637001105637071-001010     105637006001023893314MARKERS-METALIC 3PCE   0000002000+00003507+00000+0001T   00003507+0000001513          1400 JU3130               1AZ
105638000105638               105638               170213OR     1400+00000+OR0000015785+0000015785+000000000+000002212+0000017997+0000000000+I40000017997+0000000000+Z
105638001105638466-000560     105638006003000515448BALL RUGBY SZ-5 RUBBER 0000001000+00012279+00000+0001T   00012279+0000001553          1400 JU3785               1AZ
105638002105638072-020296     105638006005398061040PET CATNIP MARLTONS    0000001000+00002016+00000+0001T   00002016+0000001553          1400 JU3870               1AZ
105638003105638051-002401     105638006001023523570TRIGGER-SPRAYER   300ml0000001000+00001490+00000+0001T   00001490+0000001553          1400 JU3820               1AZ
105639000105639               105639               170213OR     1400+00000+OR0000012279+0000012279+000000000+000001720+0000013990+0000000009+I20000000000+0000013990+Z
105639001105639368-000113     105639006001023780874PLUSH BLINGED LOVE 30cm0000001000+00012279+00000+0001T   00012279+0000001554          1400 JU3745               1AZ
105640000105640               105640               170213OR     1400+00000+OR0000002366+0000002366+000000000+000000332+0000002690+0000000008+I20000000000+0000002690+Z
105640001105640033-000013     105640006001023567215PILL-REMINDER PL       0000001000+00001227+00000+0001T   00001227+0000001554          1400 JU3200               1AZ
105640002105640903-000087     105640006001704000161SWT SPECKLED-EGGS 50G  0000001000+00001139+00000+0001T   00001139+0000001554          1400 JU3150               1AZ
105641000105641               105641               170213OR     1400+00000+OR0000006174+0000006174+000000000+000000865+0000007030+0000000009+I20000000000+0000007030+Z
105641001105641368-000104     105641006001023751348PLUSH BEAR RUFFLED-LOOK0000001000+00006139+00000+0001T   00006139+0000001555          1400 JU3745               1AZ
105641002105641112-116038     105641006003000534906TCS CARRIER BAG MIDI   0000001000+00000035+00000+0001T   00000035+0000001555          1400 JU3090               1AZ
105642000105642               105642               170213OR     1400+00000+OR0000004380+0000004380+000000000+000000616+0000004990+0000000006+I20000000000+0000004990+Z
105642001105642007-000160     105642006009685857286NOTE-BOOK A5 SHORTHAND 0000001000+00001227+00000+0001T   00001227+0000001556          1400 JU3130               1AZ
105642002105642079-009702-A   105642008427973059408PAPER SIRIO A2 BLACK   0000003000+00001051+00000+0001T   00001051+0000001556          1400 JU3130               1AZ
105643000105643               105643               170213OR     1400+00000+OR0000001578+0000001578+000000000+000000221+0000001790+0000000009+I20000000000+0000001790+Z
105643001105643077-000303     105643006001023593757GIFT-BAG PAPER MED     0000001000+00001578+00000+0001T   00001578+0000001556          1400 JU3112               1AZ
105644000105644               105644               170213OR     1400+00000+OR0000006487+0000006487+000000000+000000910+0000007397+0000000000+I40000007397+0000000000+Z
105644001105644046-000400     105644006001023804983BATT ALKALINE 1.5Vx30PC0000001000+00003244+00000+0001T   00003244+0000001557          1400 JU3312               1AZ
105644002105644046-002013-PK6 105644004897006174851BATTERY BUTTON AG13 6PC0000001000+00001753+00000+0001T   00001753+0000001557          1400 JU3312               1AZ
105644003105644077-000452     105644006003000284986G/BAG METALLIC MED EMB 0000001000+00001490+00000+0001T   00001490+0000001557          1400 JU3112               1AZ
105645000105645               105645               170213OR     1400+00000+OR0000002630+0000002630+000000000+000000369+0000002990+0000000009+I20000000000+0000002990+Z
105645001105645039-000332     105645006001023900470CANDLES 8PCE+NUMBERS   0000001000+00002630+00000+0001T   00002630+0000001558          1400 JU3510               1AZ
105646000105646               105646               170213OR     1400+00000+OR0000003542+0000003542+000000000+000000496+0000004030+0000000008+I20000000000+0000004030+Z
105646001105646018-005009     105646006001023725608MUG W/PLUSH-BEAR LOVE  0000001000+00003507+00000+0001T   00003507+0000001559          1400 JU3515               1AZ
105646002105646112-116038     105646006003000534906TCS CARRIER BAG MIDI   0000001000+00000035+00000+0001T   00000035+0000001559          1400 JU3090               1AZ
105647000105647               105647               170213OR     1400+00000+OR0000003241+0000003241+000000000+000000456+0000003690+0000000007+I20000000000+0000003690+Z
105647001105647903-000087     105647006001704000161SWT SPECKLED-EGGS 50G  0000001000+00001139+00000+0001T   00001139+0000001600          1400 JU3150               1AZ
105647002105647079-009702-D   105647008427973059354PAPER SIRIO A2 RED COL 0000002000+00001051+00000+0001T   00001051+0000001600          1400 JU3130               1AZ
105648000105648               105648               170213OR     1400+00000+OR0000000876+0000000876+000000000+000000123+0000000990+0000000009+I20000000000+0000000990+Z
105648001105648077-000302     105648008010410010195GIFT-BAG 18X23CM E/D   0000001000+00000876+00000+0001T   00000876+0000001602          1400 JU3112               1AZ
105649000105649               105649               170213OR     1400+00000+OR0000006171+0000006171+000000000+000000865+0000007036+0000000000+I40000007036+0000000000+Z
105649001105649089-000192-A   105649006001023901774KEY-CHAIN ACRYLIC      0000001000+00000876+00000+0001T   00000876+0000001623          1400 JU3205               1AZ
105649002105649206-000120     105649006003000628308PEELER CARROT SHARPENER0000001000+00001753+00000+0001T   00001753+0000001623          1400 JU3321               1AZ
105649003105649105-001000     105649006003000520275CONTAINER:CEREAL TO GO 0000001000+00003507+00000+0001T   00004823+0008161623          1400 JU3210               1AZ
105649004105649112-116038     105649006003000534906TCS CARRIER BAG MIDI   0000001000+00000035+00000+0001T   00000035+0000001623          1400 JU3090               1AZ
105650000105650               105650               170213OR     1400+00000+OR0000000788+0000000788+000000000+000000111+0000000890+0000000009+I20000000000+0000000890+Z
105650001105650071-081101-A   105650006003000326549GLUE-STICK 25g BLISTER 0000001000+00000788+00000+0001T   00000788+0000001623          1400 JU3130               1AZ
105651000105651               105651               170213OR     1400+00000+OR0000007014+0000007014+000000000+000000982+0000007990+0000000006+I20000000000+0000007990+Z
105651001105651007-000291     105651006003000590131REMINDER NOTES REFILL  0000002000+00003507+00000+0001T   00003507+0000001624          1400 JU3130               1AZ
105652000105652               105652               170213OR     1400+00000+OR0000002629+0000002629+000000000+000000369+0000002990+0000000008+I20000000000+0000002990+Z
105652001105652077-000011-D   105652006001023808554TISSUE-WRAP WHITE 10PCE0000001000+00000876+00000+0001T   00000876+0000001624          1400 JU3112               1AZ
105652002105652077-000316     105652006001023609731GIFT-BAG 25X32CM MATT  0000001000+00001753+00000+0001T   00001753+0000001624          1400 JU3112               1AZ
105653000105653               105653               170213OR     1400+00000+OR0000013991+0000013991+000000000+000001960+0000015950+0000000001+I20000000000+0000015950+Z
105653001105653903-000519     105653006001704012805SWT MS LIQ-O-GHETTI    0000001000+00001227+00000+0001T   00001227+0000001625          1400 JU3150               1AZ
105653002105653080-000127     105653006003000424351VALENTINES DAY 36x24CM 0000001000+00002192+00000+0001T   00002192+0000001625          1400 JU3112               1AZ
105653003105653077-000457     105653006003000285662G/BAG METALLIC JMB SOL 0000001000+00001753+00000+0001T   00001753+0000001625          1400 JU3112               1AZ
105653004105653001-091415     105653006003000329113W/GLS OCC. LOVE 2PC 2800000001000+00008771+00000+0001T   00009648+0006471625          1400 JU3515               1AZ
105653005105653112-116069     105653006003000535064TCS CARRIER BAG JUMBO  0000001000+00000048+00000+0001T   00000048+0000001625          1400 JU3090               1AZ
105654000105654               105654               170213OR     1400+00000+OR0000005259+0000005259+000000000+000000737+0000005990+0000000006+I20000000000+0000005990+Z
105654001105654159-000643     105654006001023767028BACK-BRUSH ASSTD       0000001000+00003507+00000+0001T   00003507+0000001630          1400 JU3200               1AZ
105654002105654903-000861     105654005010478430822SWT LOVE HEARTS SML    0000002000+00000876+00000+0001T   00000876+0000001630          1400 JU3150               1AZ
105655000105655               105655               170213OR     1400+00000+OR0000007892+0000007892+000000000+000001106+0000008998+0000000000+I40000008998+0000000000+Z
105655001105655031-080509     105655006001023802446P/FRAME COLLAGE 10X15CM0000001000+00006139+00000+0001T   00006139+0000001632          1400 JU3510               1AZ
105655002105655077-000472     105655006003000330133G-BAG DESGNR LRG 25X32 0000001000+00001753+00000+0001T   00001753+0000001632          1400 JU3112               1AZ
105656000105656               105656               170213OR     1400+00000+OR0000004382+0000004382+000000000+000000615+0000004990+0000000007+I20000000000+0000004990+Z
105656001105656304-001204     105656006001023737984FLOWER OCC. TEDDY/ROSES0000002000+00001402+00000+0001T   00001490+0006471632          1400 JU3510               1AZ
105656002105656018-000127     105656006001023380289MUG OCC STRAIGHT LOVE  0000001000+00001578+00000+0001T   00001753+0006471632          1400 JU3515               1AZ
105657000105657               105657               170213OR     1400+00000+OR0000002630+0000002630+000000000+000000369+0000002999+0000000000+I40000002999+0000000000+Z
105657001105657105-001101     105657006003000667659CONTAINER SET LITE 2PC 0000001000+00002630+00000+0001T   00002630+0000001634          1400 JU3210               1AZ
105658000105658               105658               170213OR     1400+00000+OR0000001578+0000001578+000000000+000000221+0000001790+0000000009+I20000000000+0000001790+Z
105658001105658077-000303     105658006001023593757GIFT-BAG PAPER MED     0000001000+00001578+00000+0001T   00001578+0000001634          1400 JU3112               1AZ
105659000105659               105659               170213OR     1400+00000+OR0000003331+0000003331+000000000+000000467+0000003798+0000000000+I40000003798+0000000000+Z
105659001105659077-000303     105659006001023593757GIFT-BAG PAPER MED     0000001000+00001578+00000+0001T   00001578+0000001636          1400 JU3112               1AZ
105659002105659077-000299-A   105659006003000670888GIFT-BAG PAPER JMB LOVE0000001000+00001753+00000+0001T   00001753+0000001636          1400 JU3112               1AZ
105660000105660               105660               170213OR     1400+00000+OR0000001752+0000001752+000000000+000000246+0000001990+0000000008+I20000000000+0000001990+Z
105660001105660083-000295     105660006001023898562LIGHTER-GAS BUTANE 18ml0000001000+00000876+00000+0001T   00000876+0000001636          1400 JU3315               1AZ
105660002105660903-000897     105660008692806325207SWT CHOC DBL MINI ROLL 0000001000+00000876+00000+0001T   00000876+0000001636          1400 JU3150               1AZ
105661000105661               105661               170213OR     1400+00000+OR0000009765+0000009765+000000000+000001370+0000011135+0000000000+I40000011135+0000000000+Z
105661001105661077-000011-X   105661006001023809827TISSUE-WRAP SILVER 10PC0000001000+00001753+00000+0001T   00001753+0000001638          1400 JU3112               1AZ
105661002105661563-000317-C   105661006001023776204SERVIETTES 20PK  FLOWER0000001000+00002630+00000+0001T   00002630+0000001638          1400 JU3214               1AZ
105661003105661077-000452     105661006003000284986G/BAG METALLIC MED EMB 0000001000+00001490+00000+0001T   00001490+0000001638          1400 JU3112               1AZ
105661004105661903-000095     105661006001704011495SWT SPECKLED-EGGS 100G 0000001000+00002104+00000+0001T   00002104+0000001638          1400 JU3150               1AZ
105661005105661016-006518     105661006003000351749S/JAR GLS CHECK 350ML  0000001000+00001753+00000+0001T   00001753+0000001638          1400 JU3300               1AZ
105661006105661112-116038     105661006003000534906TCS CARRIER BAG MIDI   0000001000+00000035+00000+0001T   00000035+0000001638          1400 JU3090               1AZ
105662000105662               105662               170213OR     1400+00000+OR0000004823+0000004823+000000000+000000676+0000005499+0000000000+I40000005499+0000000000+Z
105662001105662301-085001     105662006003000297610ORN WATERBALL LOVE ASST0000001000+00004823+00000+0001T   00004823+0000001641          1400 JU3505               1AZ
105663000105663               105663               170213OR     1400+00000+OR0000006048+0000006048+000000000+000000849+0000006890+0000000007+I20000000000+0000006890+Z
105663001105663106-001099     105663006003000653447WATER BOTTLE 650ml     0000002000+00002630+00000+0001T   00002630+0000001641          1400 JU3210               1AZ
105663002105663077-000010-D   105663006001023123886CREPE-PAPER WHITE      0000001000+00000788+00000+0001T   00000788+0000001641          1400 JU3112               1AZ
105664000105664               105664               170213OR     1400+00000+OR0000005476+0000005476+000000000+000000769+0000006245+0000000000+I40000006245+0000000000+Z
105664001105664077-000315     105664006003000181186GIFT-BAG 20x28cm MATT  0000001000+00001578+00000+0001T   00001578+0000001643          1400 JU3112               1AZ
105664002105664036-000606     105664006003000322213WASHING PEGS PACK 20   0000001000+00000876+00000+0001T   00001314+0008191643          1400 JU3212               1AZ
105664003105664903-000671     105664006009803358015SWT SHERBET BLUE LIPS  0000001000+00000218+00000+0001T   00000218+0000001643          1400 JU3150               1AZ
105664004105664903-002853     105664000000087108019MENTOS ROLL MINT       0000001000+00001051+00000+0001T   00001051+0000001643          1400 JU3150               1AZ
105664005105664089-000019     105664006003000092291K/CHAIN MINI BOOT 13cm 0000001000+00001753+00000+0001T   00001753+0000001643          1400 JU3205               1AZ
105665000105665               105665               170213OR     1400+00000+OR0000004385+0000004385+000000000+000000614+0000004990+0000000009+I20000000000+0000004990+Z
105665001105665030-000031-A   105665006003000457588PLAQUE W/WORDS ASSTD   0000001000+00004385+00000+0001T   00004823+0006471700          1400 JU3505               1AZ
105666000105666               105666               170213OR     1400+00000+OR0000004065+0000004065+000000000+000000570+0000004635+0000000000+I40000004635+0000000000+Z
105666001105666006-000111     105666006003000519385BALLOONS LARGE 12PCE   0000001000+00002630+00000+0001T   00002630+0000001702          1400 JU3131               1AZ
105666002105666564-000012     105666006001023130075BUBBLE BOTTLE MAGIC    0000002000+00000700+00000+0001T   00000700+0000001702          1400 JU3131               1AZ
105666003105666112-116038     105666006003000534906TCS CARRIER BAG MIDI   0000001000+00000035+00000+0001T   00000035+0000001702          1400 JU3090               1AZ
105667000105667               105667               170213OR     1400+00000+OR0000012327+0000012327+000000000+000001727+0000014054+0000000000+I40000014054+0000000000+Z
105667001105667368-000111     105667006001023780812PLUSH BEAR/DOG 29CM    0000001000+00012279+00000+0001T   00012279+0000001703          1400 JU3745               1AZ
105667002105667112-116069     105667006003000535064TCS CARRIER BAG JUMBO  0000001000+00000048+00000+0001T   00000048+0000001703          1400 JU3090               1AZ
105668000105668               105668               170213OR     1400+00000+OR0000008806+0000008806+000000000+000001233+0000010039+0000000000+I40000010039+0000000000+Z
105668001105668001-091415     105668006003000329113W/GLS OCC. LOVE 2PC 2800000001000+00008771+00000+0001T   00009648+0006471705          1400 JU3515               1AZ
105668002105668112-116038     105668006003000534906TCS CARRIER BAG MIDI   0000001000+00000035+00000+0001T   00000035+0000001705          1400 JU3090               1AZ
105669000105669               105669               170213OR     1400+00000+OR0000008806+0000008806+000000000+000001233+0000010039+0000000000+I40000010039+0000000000+Z
105669001105669368-000099     105669006001023680259PLUSH DOG 23cm ASSTD   0000001000+00008771+00000+0001T   00008771+0000001706          1400 JU3745               1AZ
105669002105669112-116038     105669006003000534906TCS CARRIER BAG MIDI   0000001000+00000035+00000+0001T   00000035+0000001706          1400 JU3090               1AZ
105670000105670               105670               170213OR     1400+00000+OR0000002311+0000002311+000000000+000000324+0000002630+0000000005+I20000000000+0000002630+Z
105670001105670903-000897     105670008692806325207SWT CHOC DBL MINI ROLL 0000001000+00000876+00000+0001T   00000876+0000001708          1400 JU3150               1AZ
105670002105670564-000012     105670006001023130075BUBBLE BOTTLE MAGIC    0000001000+00000700+00000+0001T   00000700+0000001708          1400 JU3131               1AZ
105670003105670903-000121     105670006002099001689SWT GS ZILLIONS SOURS  0000001000+00000700+00000+0001T   00000700+0000001708          1400 JU3150               1AZ
105670004105670112-116038     105670006003000534906TCS CARRIER BAG MIDI   0000001000+00000035+00000+0001T   00000035+0000001708          1400 JU3090               1AZ
105671000105671               105671               170213OR     1400+00000+OR0000009693+0000009693+000000000+000001359+0000011052+0000000000+I40000011052+0000000000+Z
105671001105671466-009006     105671006003000639335BALL FOR BEACH BAT 52mm0000002000+00002630+00000+0001T   00002630+0000001709          1400 JU3785               1AZ
105671002105671031-000873-C   105671006003000673513P/FRAME WDN WHITE 20X250000001000+00004385+00000+0001T   00004385+0000001709          1400 JU3510               1AZ
105671003105671112-116069     105671006003000535064TCS CARRIER BAG JUMBO  0000001000+00000048+00000+0001T   00000048+0000001709          1400 JU3090               1AZ
105672000105672               105672               170213OR     1400+00000+OR0000014517+0000014517+000000000+000002034+0000016551+0000000000+I40000016551+0000000000+Z
105672001105672006-000120     105672006001023346889BALLOONS 10PC MIX COL  0000001000+00001753+00000+0001T   00001753+0000001711          1400 JU3131               1AZ
105672002105672368-000637     105672006001023874092PLUSH BEAR SLEEPING LOV0000001000+00011402+00000+0001T   00012279+0006471711          1400 JU3745               1AZ
105672003105672006-000166-H   105672006003000608096BALLOONS HELIUM 6PC WHT0000001000+00001314+00000+0001T   00001314+0000001711          1400 JU3131               1AZ
105672004105672112-116069     105672006003000535064TCS CARRIER BAG JUMBO  0000001000+00000048+00000+0001T   00000048+0000001711          1400 JU3090               1AZ
105673000105673               105673               170213OR     1400+00000+OR0000008771+0000008771+000000000+000001228+0000009990+0000000009+I20000000000+0000009990+Z
105673001105673368-000614     105673006001023705808PLUSH LOVE 30cm        0000001000+00008771+00000+0001T   00008771+0000001712          1400 JU3745               1AZ
105674000105674               105674               170213OR     1400+00000+OR0000000035+0000000035+000000000+000000005+0000000040+0000000000+I20000000000+0000000040+Z
105674001105674112-116038     105674006003000534906TCS CARRIER BAG MIDI   0000001000+00000035+00000+0001T   00000035+0000001713          1400 JU3090               1AZ
105675000105675               105675               170213OR     1400+00000+OR0000011575+0000011575+000000000+000001621+0000013196+0000000000+I40000013196+0000000000+Z
105675001105675586-094958     105675006001492949581WATCH KIDS SQ STRAP    0000001000+00004385+00000+0001T   00007016+0008161715          1400 JU3160               1AZ
105675002105675077-000311     105675006001023608666GIFT-BAG 11X14CM GLOSS 0000001000+00000613+00000+0001T   00000613+0000001715          1400 JU3112               1AZ
105675003105675162-097710     105675006001492977102#TAG NECKLACE 2PK      0000001000+00004385+00000+0001T   00004385+0000001715          1400 JU3160               1AZ
105675004105675565-000080     105675006003000643424NOVELTY BENDY          0000001000+00002192+00000+0001T   00002192+0000001715          1400 JU3745               1AZ
105676000105676               105676               170213OR     1400+00000+OR0000003885+0000003885+000000000+000000548+0000004430+0000000003+I20000000000+0000004430+Z
105676001105676903-000885     105676008690997017147SWT L/BIRD CHOC BISCUIT0000003000+00000437+00000+0001T   00000437+0000001716          1400 JU3150               1AZ
105676002105676903-000099     105676006923431501646SWT CANDY GS WTCH B/LET0000003000+00000262+00000+0001T   00000262+0000001716          1400 JU3150               1AZ
105676003105676007-000723     105676006003000226078MEMO BOOK W/PEN 100SHTS0000001000+00001753+00000+0001T   00001753+0000001716          1400 JU3130               1AZ
105676004105676112-116038     105676006003000534906TCS CARRIER BAG MIDI   0000001000+00000035+00000+0001T   00000035+0000001716          1400 JU3090               1AZ
105677000105677               105677               170213OR     1400+00000+OR0000007016+0000007016+000000000+000000983+0000007990+0000000009+I20000000000+0000007990+Z
105677001105677306-001660     105677006003000620579NAIL DRYING MACHINE    0000001000+00007016+00000+0001T   00007016+0000001717          1400 JU3200               1AZ
105678000105678               105678               170213OR     1400+00000+OR0000003812+0000003812+000000000+000000535+0000004340+0000000007+I20000000000+0000004340+Z
105678001105678077-000011-D   105678006001023808554TISSUE-WRAP WHITE 10PCE0000001000+00000876+00000+0001T   00000876+0000001718          1400 JU3112               1AZ
105678002105678077-000270     105678006003000395453GIFT-BAG PPR JMB 33X45 0000001000+00002630+00000+0001T   00002630+0000001718          1400 JU3112               1AZ
105678003105678007-000123     105678006003000533879BOOK COVER 450mmx1.5m  0000001000+00000306+00000+0001T   00000306+0000001718          1400 JU3130               1AZ
105679000105679               105679               170213OR     1400+00000+OR0000005262+0000005262+000000000+000000737+0000005990+0000000009+I20000000000+0000005990+Z
105679001105679018-019000     105679006003000557288MUG OCC. LOVE JUMBO    0000001000+00005262+00000+0001T   00005262+0000001719          1400 JU3515               1AZ
105680000105680               105680               170213OR     1400+00000+OR0000015835+0000015835+000000000+000002218+0000018053+0000000000+I40000018053+0000000000+Z
105680001105680368-000005     105680006003000616862PLUSH MONSTER 24cm     0000001000+00010525+00000+0001T   00010525+0000001721          1400 JU3745               1AZ
105680002105680368-000108     105680006001023751461PLUSH ANIMAL BALL ASSTD0000001000+00005262+00000+0001T   00005262+0000001721          1400 JU3745               1AZ
105680003105680112-116069     105680006003000535064TCS CARRIER BAG JUMBO  0000001000+00000048+00000+0001T   00000048+0000001721          1400 JU3090               1AZ
105681000105681               105681               170213OR     1400+00000+OR0000012748+0000012748+000000000+000001787+0000014535+0000000000+I40000014535+0000000000+Z
105681001105681033-000013     105681006001023567215PILL-REMINDER PL       0000002000+00001227+00000+0001T   00001227+0000001722          1400 JU3200               1AZ
105681002105681071-030013     105681006003000283965PEN NVLTY NEON GEL 6PC 0000001000+00002630+00000+0001T   00002630+0000001722          1400 JU3130               1AZ
105681003105681084-000369     105681006003000594467NAIL MANICURE SET 6PCE 0000001000+00006139+00000+0001T   00006139+0000001722          1400 JU3200               1AZ
105681004105681071-000307     105681006003000535118RULER FLEXI 30cm       0000001000+00001490+00000+0001T   00001490+0000001722          1400 JU3130               1AZ
105681005105681112-116038     105681006003000534906TCS CARRIER BAG MIDI   0000001000+00000035+00000+0001T   00000035+0000001722          1400 JU3090               1AZ
105682000105682               105682               170213OR     1400+00000+OR0000008819+0000008819+000000000+000001235+0000010054+0000000000+I40000010054+0000000000+Z
105682001105682019-000047-A   105682006001023749048VASE GLASS 30CM CLEAR  0000001000+00008771+00000+0001T   00008771+0000001724          1400 JU3510               1AZ
105682002105682112-116069     105682006003000535064TCS CARRIER BAG JUMBO  0000001000+00000048+00000+0001T   00000048+0000001724          1400 JU3090               1AZ
105683000105683               105683               170213OR     1400+00000+OR0000018369+0000018369+000000000+000002575+0000020944+0000000000+I40000020944+0000000000+Z
105683001105683261-003342     105683006001023484895GUN RIFLE ACTION-TEAM  0000001000+00004385+00000+0001T   00004385+0000001727          1400 JU3710               1AZ
105683002105683018-000136     105683006001023659026MUG OCC LOVE W/PLUSH   0000001000+00003507+00000+0001T   00003507+0000001727          1400 JU3515               1AZ
105683003105683365-008629     105683006001023494009PLAY C/PHONE B/O MUSIC 0000001000+00002630+00000+0001T   00002630+0000001727          1400 JU3725               1AZ
105683004105683077-000303     105683006001023593757GIFT-BAG PAPER MED     0000001000+00001578+00000+0001T   00001578+0000001727          1400 JU3112               1AZ
105683005105683564-000012     105683006001023130075BUBBLE BOTTLE MAGIC    0000001000+00000700+00000+0001T   00000700+0000001727          1400 JU3131               1AZ
105683006105683112-116069     105683006003000535064TCS CARRIER BAG JUMBO  0000001000+00000048+00000+0001T   00000048+0000001727          1400 JU3090               1AZ
105683007105683080-000133-A   105683006003000647019MINI VALENTINES CARD   0000001000+00000437+00000+0001T   00000437+0000001727          1400 JU3112               1AZ
105683008105683903-000503     105683006001704006118SWT VAMPIRE FANGS 60G  0000001000+00000876+00000+0001T   00000876+0000001727          1400 JU3150               1AZ
105683009105683903-000095     105683006001704011495SWT SPECKLED-EGGS 100G 0000002000+00002104+00000+0001T   00002104+0000001727          1400 JU3150               1AZ
105684000105684               105684               170213OR     1400+00000+OR0000002103+0000002103+000000000+000000295+0000002390+0000000008+I20000000000+0000002390+Z
105684001105684304-001502     105684006003000035533FLWR SATIN R/BUD 55CM  0000001000+00000613+00000+0001T   00000613+0000001728          1400 JU3510               1AZ
105684002105684039-000108     105684006001023524034TEA-LITE CANDLES 8PCE  0000001000+00001490+00000+0001T   00001490+0000001728          1400 JU3510               1AZ
105685000105685               105685               170213OR     1400+00000+OR0000002630+0000002630+000000000+000000369+0000002990+0000000009+I20000000000+0000002990+Z
105685001105685006-006013     105685006001023735195PARTY-SPRAY STRING     0000001000+00002630+00000+0001T   00002630+0000001729          1400 JU3131               1AZ
105686000105686               105686               170213OR     1400+00000+OR0000004385+0000004385+000000000+000000614+0000004990+0000000009+I20000000000+0000004990+Z
105686001105686018-030000     105686006003000421060MUG OCCASIONS LOVE 2PCE0000001000+00004385+00000+0001T   00004385+0000001729          1400 JU3515               1AZ
105687000105687               105687               170213OR     1400+00000+OR0000002192+0000002192+000000000+000000307+0000002490+0000000009+I20000000000+0000002490+Z
105687001105687565-000080     105687006003000643424NOVELTY BENDY          0000001000+00002192+00000+0001T   00002192+0000001730          1400 JU3745               1AZ
105688000105688               105688               170213OR     1400+00000+OR0000001314+0000001314+000000000+000000184+0000001490+0000000008+I20000000000+0000001490+Z
105688001105688077-000310     105688006001023608635GIFT-BAG 18X23CM GLOSS 0000001000+00001314+00000+0001T   00001314+0000001730          1400 JU3112               1AZ
105689000105689               105689               170213OR     1400+00000+OR0000000874+0000000874+000000000+000000124+0000000990+0000000008+I20000000000+0000000990+Z
105689001105689903-000885     105689008690997017147SWT L/BIRD CHOC BISCUIT0000002000+00000437+00000+0001T   00000437+0000001731          1400 JU3150               1AZ
105690000105690               105690               170213OR     1400+00000+OR0000002665+0000002665+000000000+000000374+0000003030+0000000009+I20000000000+0000003030+Z
105690001105690019-000131     105690006003000456253PLANT. T/PLATE 10X12.5 0000001000+00002630+00000+0001T   00002630+0000001732          1400 JU3510               1AZ
105690002105690112-116038     105690006003000534906TCS CARRIER BAG MIDI   0000001000+00000035+00000+0001T   00000035+0000001732          1400 JU3090               1AZ
105691000105691               105691               170213OR     1400+00000+OR0000008503+0000008503+000000000+000001193+0000009696+0000000000+I40000009696+0000000000+Z
105691001105691304-001502     105691006003000035533FLWR SATIN R/BUD 55CM  0000001000+00000613+00000+0001T   00000613+0000001733          1400 JU3510               1AZ
105691002105691304-000720     105691006001023843050F/BUNCH ROSE 6-HEAD AST0000003000+00002630+00000+0001T   00002630+0000001733          1400 JU3510               1AZ
105692000105692               105692               170213OR     1400+00000+OR0000003331+0000003331+000000000+000000467+0000003798+0000000000+I40000003798+0000000000+Z
105692001105692006-000214-A   105692006003000311057P/GIRL JNR INVITE 6PCE 0000001000+00001578+00000+0001T   00001578+0000001734          1400 JU3131               1AZ
105692002105692080-000111     105692006003000252695CARD&ENVELPE - MUSICAL 0000001000+00001753+00000+0001T   00001753+0000001734          1400 JU3112               1AZ
105693000105693               105693               170213OR     1400+00000+OR0000004417+0000004417+000000000+000000620+0000005037+0000000000+I40000005037+0000000000+Z
105693001105693077-000314     105693006003000181148GIFT-BAG 11X14CM MATT  0000001000+00000876+00000+0001T   00000876+0000001735          1400 JU3112               1AZ
105693002105693006-000124     105693006003000625888BALLOONS 10PC MIX COL  0000001000+00001753+00000+0001T   00001753+0000001735          1400 JU3131               1AZ
105693003105693016-006509     105693006003000567355S/JAR GLS MINI LABEL   0000001000+00001753+00000+0001T   00002192+0008191735          1400 JU3300               1AZ
105693004105693112-116038     105693006003000534906TCS CARRIER BAG MIDI   0000001000+00000035+00000+0001T   00000035+0000001735          1400 JU3090               1AZ
105694000105694               105694               170213OR     1400+00000+OR0000002630+0000002630+000000000+000000369+0000002990+0000000009+I20000000000+0000002990+Z
105694001105694007-000546     105694006001023847935NOTEBOOK 4PCE ASSTD DES0000001000+00002630+00000+0001T   00002630+0000001736          1400 JU3130               1AZ
105695000105695               105695               170213OR     1400+00000+OR0000005173+0000005173+000000000+000000725+0000005890+0000000008+I20000000000+0000005890+Z
105695001105695077-000318     105695006001023609755GIFT-BAG 18X23CM E/D AN0000001000+00001227+00000+0001T   00001227+0000001736          1400 JU3112               1AZ
105695002105695031-000902-B   105695006001023726285P/FRAME WDN OAK 10X15CM0000001000+00003946+00000+0001T   00003946+0000001736          1400 JU3510               1AZ
105696000105696               105696               170213OR     1400+00000+OR0000006535+0000006535+000000000+000000916+0000007451+0000000000+I40000007451+0000000000+Z
105696001105696200-000205     105696006008766127027BAKEPANS 36PCE (PIE)   0000001000+00003507+00000+0001T   00003507+0000001738          1400 JU3214               1AZ
105696002105696039-000108     105696006001023524034TEA-LITE CANDLES 8PCE  0000002000+00001490+00000+0001T   00001490+0000001738          1400 JU3510               1AZ
105696003105696112-116069     105696006003000535064TCS CARRIER BAG JUMBO  0000001000+00000048+00000+0001T   00000048+0000001738          1400 JU3090               1AZ
105697000105697               105697               170213OR     1400+00000+OR0000001490+0000001490+000000000+000000209+0000001690+0000000009+I20000000000+0000001690+Z
105697001105697039-000108     105697006001023524034TEA-LITE CANDLES 8PCE  0000001000+00001490+00000+0001T   00001490+0000001739          1400 JU3510               1AZ
B10562200                                          170213OR077-000314     14323535SLAVE 1     JU32IC0000010000+0000001000+0000000000000+
M17021301                              IT          ORLAST SALES NUMBER ON SLAVE 1-105697             THANKS
M17021391                              CASH        ORSLAVE 1                       Z-REPORT No.   589TOTAL (Sales - Refunds)          11178.91       CASH TO BE BANKED                 5082.60       DEBIT CARDS                          0.00       CREDIT CARDS                      6096.31       Z-READING                        11178.91       AIRTIME DEBIT CARD SALES             0.00       AIRTIME CARD SALES                   0.00       OVERS/UNDERS                         0.00       AIRTIME CASH SALES                   0.00       GIFT CARDS                           0.00       GIFT CARD CASH SALES                 0.00       T O T A L  CASH PAYOUTS              0.00                                                                                                                                                                                                                                                                                                                                                      Z
M17021392                              CASH        ORABSENT                                                                                                                                                                                          ANNUAL LEAVE                                                                                                                                                                                    DAY OFF                                                                                                                                                                                         COMMENTS                                                                                                                                                                                                                                                                                                                                                                                       Z
Y17021300                                          OR00000000993453+000159
ZOR17021320153 SLAVE 1      SALES DATA                     NEXT INVOICE NO.  105698 0589
X OR Slave 1 First invoice 105539 170213 Last invoice 105697 170213 Next invoice 105698 Total number of records 000000567 clbackup completed 20:15:37
