203531000203531               203531               170213OR     1400+00000+OR0000015835+0000015835+000000000+000002218+0000018053+0000000000+I40000018053+0000000000+Z
203531001203531368-000020     203531006003000672028PLUSH DINOSAUR 37cm    0000001000+00008771+00000+0001T   00008771+0000000950          1400 KL6745               2AZ
203531002203531368-000021     203531006003000672141PLUSH DINOSAUR 27cm    0000001000+00007016+00000+0001T   00007016+0000000950          1400 KL6745               2AZ
203531003203531112-116069     203531006003000535064TCS CARRIER BAG JUMBO  0000001000+00000048+00000+0001T   00000048+0000000950          1400 KL6090               2AZ
203532000203532               203532               170213OR     1400+00000+OR0000002630+0000002630+000000000+000000369+0000002990+0000000009+I20000000000+0000002990+Z
203532001203532031-005918     203532006003000580453P/FRAME PL PLAIN 10X15 0000001000+00002630+00000+0001T   00002630+0000001003          1400 KL6510               2AZ
203533000203533               203533               170213OR     1400+00000+OR0000009681+0000009681+000000000+000001356+0000011030+0000000007+I20000000000+0000011030+Z
203533001203533112-116038     203533006009681820246TCS CARRIER BAG MIDI   0000001000+00000035+00000+0001T   00000035+0000001043          1400 KL6090               2AZ
203533002203533071-005060     203533006003000152186CELLOTAPE 2PACK INVSBLE0000001000+00003507+00000+0001T   00003507+0000001043          1400 KL6130               2AZ
203533003203533018-050000     203533006003000412679MUG OCC LOVE TWIN BEAR 0000001000+00006139+00000+0001T   00006139+0000001043          1400 KL6515               2AZ
203534000203534               203534               170213OR     1400+00000+OR0000000876+0000000876+000000000+000000123+0000000990+0000000009+I20000000000+0000000990+Z
203534001203534033-005930     203534006001023678423PINS STRAIGHT 20g  CARD0000001000+00000876+00000+0001T   00000876+0000001044          1400 KL6200               2AZ
203535000203535               203535               170213OR     1400+00000+OR0000000437+0000000437+000000000+000000062+0000000490+0000000009+I20000000000+0000000490+Z
203535001203535080-000133-A   203535006003000647019MINI VALENTINES CARD   0000001000+00000437+00000+0001T   00000437+0000001045          1400 KL6112               2AZ
203536000203536               203536               170213OR     1400+00000+OR0000006435+0000006435+000000000+000000902+0000007330+0000000007+I20000000000+0000007330+Z
203536001203536024-000034     203536006001023495235MEASURING-JUG 1-CUP    0000001000+00001578+00000+0001T   00001578+0000001047          1400 KL6300               2AZ
203536002203536002-000685     203536006001023693785K/TOOL P/MASHER H/HOUSE0000001000+00002192+00000+0001T   00002192+0000001047          1400 KL6300               2AZ
203536003203536019-071603     203536006001023772039RIVER-STONES 1kg PEACH 0000001000+00002630+00000+0001T   00002630+0000001047          1400 KL6510               2AZ
203536004203536112-116038     203536006009681820246TCS CARRIER BAG MIDI   0000001000+00000035+00000+0001T   00000035+0000001047          1400 KL6090               2AZ
203537000203537               203537               170213OR     1400+00000+OR0000005471+0000005471+000000000+000000767+0000006230+0000000008+I20000000000+0000006230+Z
203537001203537079-009702-D   203537008427973059354PAPER SIRIO A2 RED COL 0000001000+00001051+00000+0001T   00001051+0000001049          1400 KL6130               2AZ
203537002203537001-000175     203537006001023788108B/MUG GLS LOVE 380ML   0000001000+00004385+00000+0001T   00004385+0000001049          1400 KL6515               2AZ
203537003203537112-116038     203537006009681820246TCS CARRIER BAG MIDI   0000001000+00000035+00000+0001T   00000035+0000001049          1400 KL6090               2AZ
203538000203538               203538               170213OR     1400+00000+OR0000002628+0000002628+000000000+000000368+0000002990+0000000006+I20000000000+0000002990+Z
203538001203538006-000167-C   203538006003000516971BALLOONS PINK METALLIC 0000001000+00001314+00000+0001T   00001314+0000001108          1400 KL6131               2AZ
203538002203538006-000166-H   203538006003000608096BALLOONS HELIUM 6PC WHT0000001000+00001314+00000+0001T   00001314+0000001108          1400 KL6131               2AZ
203539000203539               203539               170213OR     1400+00000+OR0000003507+0000003507+000000000+000000491+0000003990+0000000008+I20000000000+0000003990+Z
203539001203539031-000868-C   203539006001023798596P/FRAME PL BLCK 20X25CM0000001000+00003507+00000+0001T   00003507+0000001112          1400 KL6510               2AZ
203540000203540               203540               170213OR     1400+00000+OR0000005262+0000005262+000000000+000000737+0000005999+0000000000+I40000005999+0000000000+Z
203540001203540031-086103     203540006001023900746P/FRAME GLS FILM 2HOLE 0000001000+00005262+00000+0001T   00005262+0000001115          1400 KL6510               2AZ
203541000203541               203541               170213OR     1400+00000+OR0000003507+0000003507+000000000+000000491+0000003998+0000000000+I40000003998+0000000000+Z
203541001203541082-098791     203541006001492987910SUNGLASS KIDS BOYS     0000001000+00003507+00000+0001T   00003507+0000001116          1400 KL6160               2AZ
203542000203542               203542               170213OR     1400+00000+OR0000009243+0000009243+000000000+000001295+0000010530+0000000008+I20000000000+0000010530+Z
203542001203542024-000165-C   203542006003000674312N/STICK B/WARE LOAF PAN0000001000+00005262+00000+0001T   00005262+0000001202          1400 KL6300               2AZ
203542002203542024-000058     203542006001023887498ROLLING-PIN            0000001000+00003946+00000+0001T   00003946+0000001202          1400 KL6300               2AZ
203542003203542112-116038     203542006003000534906TCS CARRIER BAG MIDI   0000001000+00000035+00000+0001T   00000035+0000001202          1400 KL6090               2AZ
203543000203543               203543               170213OR     1400+00000+OR0000007890+0000007890+000000000+000001106+0000008996+0000000000+I40000008996+0000000000+Z
203543001203543077-000407     203543006003000145096G/BAG PP 19X26X8CM     0000001000+00001314+00000+0001T   00001314+0000001208          1400 KL6112               2AZ
203543002203543368-000265     203543006001023750914PLUSH BEAR 23CM ASSTD C0000001000+00006139+00000+0001T   00006139+0000001208          1400 KL6745               2AZ
203543003203543080-000133-A   203543006003000647019MINI VALENTINES CARD   0000001000+00000437+00000+0001T   00000437+0000001208          1400 KL6112               2AZ
203544000203544               203544               170213OR     1400+00000+OR0000012751+0000012751+000000000+000001786+0000014537+0000000000+I40000014537+0000000000+Z
203544001203544112-116038     203544006009681820246TCS CARRIER BAG MIDI   0000001000+00000035+00000+0001T   00000035+0000001210          1400 KL6090               2AZ
203544002203544003-009210     203544006003000461851ORN W/STONE 16X14X16CM 0000001000+00005262+00000+0001T   00005262+0000001210          1400 KL6505               2AZ
203544003203544018-019000     203544006003000557288MUG OCC. LOVE JUMBO    0000001000+00005262+00000+0001T   00005262+0000001210          1400 KL6515               2AZ
203544004203544565-000080     203544006003000643424NOVELTY BENDY          0000001000+00002192+00000+0001T   00002192+0000001210          1400 KL6745               2AZ
203545000203545               203545               170213OR     1400+00000+OR0000002630+0000002630+000000000+000000369+0000002990+0000000009+I20000000000+0000002990+Z
203545001203545466-000514     203545006001023196620BALLS TENNIS COLR BAG-30000001000+00002630+00000+0001T   00002630+0000001216          1400 KL6785               2AZ
203546000203546               203546               170213OR     1400+00000+OR0000005698+0000005698+000000000+000000799+0000006497+0000000000+I40000006497+0000000000+Z
203546001203546051-002400     203546006001023616180TRIGGER-SPRAYER 900ml  0000001000+00002192+00000+0001T   00002192+0000001218          1400 KL6820               2AZ
203546002203546089-000019     203546006003000092291K/CHAIN MINI BOOT 13cm 0000002000+00001753+00000+0001T   00001753+0000001218          1400 KL6205               2AZ
203547000203547               203547               170213OR     1400+00000+OR0000011749+0000011749+000000000+000001647+0000013396+0000000000+I40000013396+0000000000+Z
203547001203547494-059258     203547000078257592586INTEX TUBE 76cm        0000001000+00005262+00000+0001T   00005262+0000001219          1400 KL6787               2AZ
203547002203547048-000859     203547006003000423422TORCH 9 LED PL 3XAAA   0000001000+00001753+00000+0001T   00001753+0000001219          1400 KL6305               2AZ
203547003203547046-000015     203547006001023680839BATTERIES SIZE:D   2PCE0000002000+00002367+00000+0001T   00002367+0000001219          1400 KL6312               2AZ
203548000203548               203548               170213OR     1400+00000+OR0000005699+0000005699+000000000+000000799+0000006498+0000000000+I40000006498+0000000000+Z
203548001203548082-098789     203548006001492987897#SUNGLASS GIRLS OVAL   0000001000+00003946+00000+0001T   00003946+0000001223          1400 KL6160               2AZ
203548002203548200-003024     203548006001023657299REFUSE BAGS 20PCE BLACK0000001000+00001753+00000+0001T   00001753+0000001223          1400 KL6214               2AZ
203549000203549               203549               170213OR     1400+00000+OR0000002630+0000002630+000000000+000000369+0000002990+0000000009+I20000000000+0000002990+Z
203549001203549466-000584     203549006001023628787SKIPPING-ROPE          0000001000+00002630+00000+0001T   00002630+0000001227          1400 KL6785               2AZ
203550000203550               203550               170213OR     1400+00000+OR0000007046+0000007046+000000000+000000988+0000008034+0000000000+I40000008034+0000000000+Z
203550001203550361-000114     203550006001023744074DOLL SML 15cm BENDABLE 0000001000+00001753+00000+0001T   00001753+0000001231          1400 KL6725               2AZ
203550002203550362-004000     203550000613153000225DISNEY T/BELL TRINKETS 0000001000+00000700+00000+0001T   00000876+0008181231          1400 KL6160               2AZ
203550003203550033-000125     203550006009654960658COMBS GENTS MINI 2PC   0000001000+00001051+00000+0001T   00001051+0000001231          1400 KL6200               2AZ
203550004203550079-011526     203550006003000408375GLITTER & SAND ART     0000001000+00003507+00000+0001T   00003507+0000001231          1400 KL6130               2AZ
203550005203550112-116038     203550006009681820246TCS CARRIER BAG MIDI   0000001000+00000035+00000+0001T   00000035+0000001231          1400 KL6090               2AZ
203551000203551               203551               170213OR     1400+00000+OR0000001490+0000001490+000000000+000000209+0000001690+0000000009+I20000000000+0000001690+Z
203551001203551071-005214     203551006003000152544CELLOTAPE SUPER REFILL 0000001000+00001490+00000+0001T   00001490+0000001232          1400 KL6130               2AZ
203552000203552               203552               170213OR     1400+00000+OR0000008803+0000008803+000000000+000001234+0000010037+0000000000+I40000010037+0000000000+Z
203552001203552024-000002     203552006001023741899S/BURNER-COVER SILV/BLK0000001000+00003946+00000+0001T   00004385+0008191234          1400 KL6300               2AZ
203552002203552024-000007     203552006003000061846SPATULA LONG 32CM      0000001000+00002630+00000+0001T   00002630+0000001234          1400 KL6300               2AZ
203552003203552024-091102     203552006003453000010BAKING-CUP PAPER 50PC  0000001000+00002192+00000+0001T   00002192+0000001234          1400 KL6300               2AZ
203552004203552112-116038     203552006009681820246TCS CARRIER BAG MIDI   0000001000+00000035+00000+0001T   00000035+0000001234          1400 KL6090               2AZ
203553000203553               203553               170213OR     1400+00000+OR0000001753+0000001753+000000000+000000246+0000001999+0000000000+I40000001999+0000000000+Z
203553001203553077-000290     203553006001023902023GIFT BOX 26x32x13cm    0000001000+00001753+00000+0001T   00001753+0000001236          1400 KL6112               2AZ
203554000203554               203554               170213OR     1400+00000+OR0000004120+0000004120+000000000+000000578+0000004698+0000000000+I40000004698+0000000000+Z
203554001203554077-000299     203554006003000395576G/BAG 32x25cm LRG LOVE 0000001000+00001490+00000+0001T   00001490+0000001239          1400 KL6112               2AZ
203554002203554077-000005-B   203554006003000326617PAPER TISSUE PATTERN   0000001000+00002630+00000+0001T   00002630+0000001239          1400 KL6112               2AZ
203555000203555               203555               170213OR     1400+00000+OR0000011431+0000011431+000000000+000001602+0000013033+0000000000+I40000013033+0000000000+Z
203555001203555112-116038     203555006009681820246TCS CARRIER BAG MIDI   0000001000+00000035+00000+0001T   00000035+0000001241          1400 KL6090               2AZ
203555002203555563-000317-J   203555006001023776419SERVIETTE 2PLY 33cm    0000001000+00001753+00000+0001T   00001753+0000001241          1400 KL6214               2AZ
203555003203555031-080508     203555006001023802415P/FRAME PL 22X11CM LOVE0000001000+00004385+00000+0001T   00004385+0000001241          1400 KL6510               2AZ
203555004203555006-000220-B   203555006001023890870PARTY TABLE-CLOTH BOY  0000001000+00002630+00000+0001T   00002630+0000001241          1400 KL6131               2AZ
203555005203555903-005000     203555006002580020007SWT CT MALLOW FISH 120g0000002000+00001314+00000+0001T   00001314+0000001241          1400 KL6150               2AZ
203556000203556               203556               170213OR     1400+00000+OR0000002102+0000002102+000000000+000000296+0000002390+0000000008+I20000000000+0000002390+Z
203556001203556903-000014     203556006003000691029SWT MIKE N IKE ORIG 23G0000001000+00001051+00000+0001T   00001051+0000001241          1400 KL6150               2AZ
203556002203556903-000015     203556006003000690947SWT MIKE N IKE B/BLAST 0000001000+00001051+00000+0001T   00001051+0000001241          1400 KL6150               2AZ
203557000203557               203557               170213OR     1400+00000+OR0000000654+0000000654+000000000+000000093+0000000740+0000000007+I20000000000+0000000740+Z
203557001203557006-000172-A   203557006003000609765BALLOONS METALLIC PINK 0000003000+00000218+00000+0001T   00000218+0000001242          1400 KL6131               2AZ
203558000203558               203558               170213OR     1400+00000+OR0000005642+0000005642+000000000+000000790+0000006430+0000000002+I20000000000+0000006430+Z
203558001203558361-000664     203558006003000157402DOLL BIG EYE BEAUTY    0000001000+00003507+00000+0001T   00004385+0008191243          1400 KL6725               2AZ
203558002203558903-000070     203558006001704001106SWT TOFFEE CREAMY 35g  0000003000+00000700+00000+0001T   00000700+0000001243          1400 KL6150               2AZ
203558003203558112-116038     203558006009681820246TCS CARRIER BAG MIDI   0000001000+00000035+00000+0001T   00000035+0000001243          1400 KL6090               2AZ
203559000203559               203559               170213OR     1400+00000+OR0000003028+0000003028+000000000+000000425+0000003450+0000000003+I20000000000+0000003450+Z
203559001203559077-000327     203559006001023677686GIFT-BAG 25X32CM E/D BA0000002000+00001490+00000+0001T   00001490+0000001245          1400 KL6112               2AZ
203559002203559112-116069     203559006009681820277TCS CARRIER BAG JUMBO  0000001000+00000048+00000+0001T   00000048+0000001245          1400 KL6090               2AZ
203560000203560               203560               170213OR     1400+00000+OR0000001753+0000001753+000000000+000000246+0000001990+0000000009+I20000000000+0000001990+Z
203560001203560080-000120     203560006003000236473CARD & ENVELOPE WEDDING0000001000+00001753+00000+0001T   00001753+0000001245          1400 KL6112               2AZ
203561000203561               203561               170213OR     1400+00000+OR0000002630+0000002630+000000000+000000369+0000002990+0000000009+I20000000000+0000002990+Z
203561001203561077-000270     203561006003000395453GIFT-BAG PPR JMB 33X45 0000001000+00002630+00000+0001T   00002630+0000001246          1400 KL6112               2AZ
203562000203562               203562               170213OR     1400+00000+OR0000001402+0000001402+000000000+000000197+0000001590+0000000009+I20000000000+0000001590+Z
203562001203562105-001005     203562006001023858214CONTAINERS MINI 6PCE   0000001000+00001402+00000+0001T   00001402+0000001246          1400 KL6210               2AZ
203563000203563               203563               170213OR     1400+00000+OR0000002628+0000002628+000000000+000000368+0000002990+0000000006+I20000000000+0000002990+Z
203563001203563077-000310     203563006001023608635GIFT-BAG 18X23CM GLOSS 0000002000+00001314+00000+0001T   00001314+0000001246          1400 KL6112               2AZ
203564000203564               203564               170213OR     1400+00000+OR0000015344+0000015344+000000000+000002149+0000017493+0000000000+I40000017493+0000000000+Z
203564001203564007-000597     203564006009699511129MARLIN SLF ADHESIVE 2M 0000007000+00002192+00000+0001T   00002192+0000001248          1400 KL6130               2AZ
203565000203565               203565               170213OR     1400+00000+OR0000007453+0000007453+000000000+000001044+0000008497+0000000000+I40000008497+0000000000+Z
203565001203565368-000175     203565006003000270316PLUSH BEAR 4 ASSTD 18CM0000001000+00006139+00000+0001T   00006139+0000001250          1400 KL6745               2AZ
203565002203565903-000194     203565006009826020616SWT CHOC RP LOLLY 25G  0000001000+00001314+00000+0001T   00001314+0000001250          1400 KL6150               2AZ
203566000203566               203566               170213OR     1400+00000+OR0000002804+0000002804+000000000+000000394+0000003190+0000000008+I20000000000+0000003190+Z
203566001203566027-009030     203566006002814400100DUSTPAN PL             0000002000+00001402+00000+0001T   00001402+0000001253          1400 KL6212               2AZ
203567000203567               203567               170213OR     1400+00000+OR0000006137+0000006137+000000000+000000860+0000006997+0000000000+I40000006997+0000000000+Z
203567001203567079-000359     203567006003000639823FELT-TIP PENS THERAPY  0000001000+00002630+00000+0001T   00002630+0000001254          1400 KL6130               2AZ
203567002203567567-011344     203567006003000630714BK COLOURING THERAPY 640000001000+00003507+00000+0001T   00003507+0000001254          1400 KL6757               2AZ
203568000203568               203568               170213OR     1400+00000+OR0000005262+0000005262+000000000+000000737+0000005990+0000000009+I20000000000+0000005990+Z
203568001203568056-065300     203568006001023625854CAR SUNSHIELD ALUM FOIL0000001000+00005262+00000+0001L   00005262+0000001255          1400 KL6860               2AZ
203569000203569               203569               170213OR     1400+00000+OR0000007013+0000007013+000000000+000000984+0000007997+0000000000+I40000007997+0000000000+Z
203569001203569903-000911     203569006009802868454SWT ST GUM TAPE BARBIE 0000001000+00001753+00000+0001T   00001753+0000001258          1400 KL6150               2AZ
203569002203569174-000175     203569006001023730985LAUNDRY-BAG FOLD-AWAY  0000002000+00002630+00000+0001T   00002630+0000001258          1400 KL6205               2AZ
203570000203570               203570               170213OR     1400+00000+OR0000008540+0000008540+000000000+000001197+0000009737+0000000000+I40000009737+0000000000+Z
203570001203570112-116038     203570006009681820246TCS CARRIER BAG MIDI   0000001000+00000035+00000+0001T   00000035+0000001300          1400 KL6090               2AZ
203570002203570368-000265     203570006001023750914PLUSH BEAR 23CM ASSTD C0000001000+00006139+00000+0001T   00006139+0000001300          1400 KL6745               2AZ
203570003203570077-000384     203570006003000275243G/BAG HOT STMP 18x23CM 0000001000+00001490+00000+0001T   00001490+0000001300          1400 KL6112               2AZ
203570004203570077-000011-E   203570006001023808646TISSUE-WRAP PINK 10PCE 0000001000+00000876+00000+0001T   00000876+0000001300          1400 KL6112               2AZ
203571000203571               203571               170213OR     1400+00000+OR0000005260+0000005260+000000000+000000737+0000005997+0000000000+I40000005997+0000000000+Z
203571001203571080-000115     203571006003000237333CARD&ENVELOPE - BLANKS 0000001000+00001753+00000+0001T   00001753+0000001302          1400 KL6112               2AZ
203571002203571031-086102     203571006001023900722P/FRAME PL WORD-TOP 4AS0000001000+00003507+00000+0001T   00003507+0000001302          1400 KL6510               2AZ
203572000203572               203572               170213OR     1400+00000+OR0000002630+0000002630+000000000+000000369+0000002990+0000000009+I20000000000+0000002990+Z
203572001203572162-092928     203572006001492929286#TAG BLK&GOLD BANGLE   0000001000+00002630+00000+0001T   00005262+0008161315          1400 KL6160               2AZ
203573000203573               203573               170213OR     1400+00000+OR0000001490+0000001490+000000000+000000209+0000001690+0000000009+I20000000000+0000001690+Z
203573001203573039-000324     203573006001023775221B/CANDLES+HOLDERS 24PCE0000001000+00001490+00000+0001T   00001490+0000001316          1400 KL6510               2AZ
203574000203574               203574               170213OR     1400+00000+OR0000002628+0000002628+000000000+000000369+0000002997+0000000000+I40000002997+0000000000+Z
203574001203574077-000314     203574006003000181148GIFT-BAG 11X14CM MATT  0000003000+00000876+00000+0001T   00000876+0000001317          1400 KL6112               2AZ
203575000203575               203575               170213OR     1400+00000+OR0000031624+0000031624+000000000+000004429+0000036053+0000000000+I40000036053+0000000000+Z
203575001203575112-116069     203575006009681820277TCS CARRIER BAG JUMBO  0000001000+00000048+00000+0001T   00000048+0000001319          1400 KL6090               2AZ
203575002203575031-001004     203575006003000334643P/FRAME CERTIFICATE 4PC0000002000+00015788+00000+0001T   00015788+0000001319          1400 KL6510               2AZ
203576000203576               203576               170213OR     1400+00000+OR0000011961+0000011961+000000000+000001675+0000013630+0000000006+I20000000000+0000013630+Z
203576001203576368-000049     203576006003000536955PLUSH BEAR 15cm LOVE   0000002000+00004385+00000+0001T   00004385+0000001320          1400 KL6745               2AZ
203576002203576077-000303     203576006001023593757GIFT-BAG PAPER MED     0000002000+00001578+00000+0001T   00001578+0000001320          1400 KL6112               2AZ
203576003203576112-116038     203576006009681820246TCS CARRIER BAG MIDI   0000001000+00000035+00000+0001T   00000035+0000001320          1400 KL6090               2AZ
203577000203577               203577               170213OR     1400+00000+OR0000014080+0000014080+000000000+000001973+0000016050+0000000003+I20000000000+0000016050+Z
203577001203577368-000113     203577006001023780874PLUSH BLINGED LOVE 30cm0000001000+00012279+00000+0001T   00012279+0000001352          1400 KL6745               2AZ
203577002203577077-000290     203577006001023902023GIFT BOX 26x32x13cm    0000001000+00001753+00000+0001T   00001753+0000001352          1400 KL6112               2AZ
203577003203577112-116069     203577006009681820277TCS CARRIER BAG JUMBO  0000001000+00000048+00000+0001T   00000048+0000001352          1400 KL6090               2AZ
203578000203578               203578               170213OR     1400+00000+OR0000002240+0000002240+000000000+000000314+0000002550+0000000004+I20000000000+0000002550+Z
203578001203578112-116069     203578006009681820277TCS CARRIER BAG JUMBO  0000001000+00000048+00000+0001T   00000048+0000001503          1400 KL6090               2AZ
203578002203578080-000127     203578006003000424351VALENTINES DAY 36x24CM 0000001000+00002192+00000+0001T   00002192+0000001503          1400 KL6112               2AZ
203579000203579               203579               170213OR     1400+00000+OR0000005963+0000005963+000000000+000000835+0000006798+0000000000+I40000006798+0000000000+Z
203579001203579078-013424     203579006008741000338CONTACT-ADHESIVE 50ml  0000001000+00001578+00000+0001T   00001578+0000001505          1400 KL6810               2AZ
203579002203579079-001001     203579006003000448593CANVAS A3 WOOD MOUNTED 0000001000+00004385+00000+0001T   00004385+0000001505          1400 KL6130               2AZ
203580000203580               203580               170213OR     1400+00000+OR0000004733+0000004733+000000000+000000664+0000005390+0000000007+I20000000000+0000005390+Z
203580001203580006-000119     203580006001023730756BALLOONS 12PC MIX COLS 0000001000+00001753+00000+0001T   00001753+0000001506          1400 KL6131               2AZ
203580002203580077-000452     203580006003000284986G/BAG METALLIC MED EMB 0000002000+00001490+00000+0001T   00001490+0000001506          1400 KL6112               2AZ
203581000203581               203581               170213OR     1400+00000+OR0000001490+0000001490+000000000+000000209+0000001690+0000000009+I20000000000+0000001690+Z
203581001203581150-003733     203581006003000561735SINK STRAINER S/S 1PCE 0000001000+00001490+00000+0001T   00001490+0000001507          1400 KL6810               2AZ
203582000203582               203582               170213OR     1400+00000+OR0000001490+0000001490+000000000+000000209+0000001690+0000000009+I20000000000+0000001690+Z
203582001203582150-003733     203582006003000561735SINK STRAINER S/S 1PCE 0000001000+00001490+00000+0001T   00001490+0000001508          1400 KL6810               2AZ
203583000203583               203583               170213OR     1400+00000+OR0000009679+0000009679+000000000+000001356+0000011035+0000000000+I40000011035+0000000000+Z
203583001203583562-000052     203583006003000112333EDU EXCAVATION DIAMOND 0000001000+00003507+00000+0001T   00003507+0000001511          1400 KL6755               2AZ
203583002203583562-000051     203583006003000308798EDU EXCAVATION KIT ASST0000001000+00003507+00000+0001T   00003507+0000001511          1400 KL6755               2AZ
203583003203583566-000203     203583006003000443925STCKRS VELVET PUFFY ASS0000001000+00002630+00000+0001T   00002630+0000001511          1400 KL6130               2AZ
203583004203583112-116038     203583006009681820246TCS CARRIER BAG MIDI   0000001000+00000035+00000+0001T   00000035+0000001511          1400 KL6090               2AZ
203584000203584               203584               170213OR     1400+00000+OR0000006925+0000006925+000000000+000000971+0000007896+0000000000+I40000007896+0000000000+Z
203584001203584033-000782     203584006001023905482COSMETIC SPONGES 12PC  0000001000+00002192+00000+0001T   00002192+0000001512          1400 KL6200               2AZ
203584002203584077-000303     203584006001023593757GIFT-BAG PAPER MED     0000001000+00001578+00000+0001T   00001578+0000001512          1400 KL6112               2AZ
203584003203584085-007001     203584006001023909329P/TOOL MINI 7in1       0000001000+00002630+00000+0001T   00002630+0000001512          1400 KL6305               2AZ
203584004203584903-000077     203584006939873501687SWT GS MAGIC ROCK FRUIT0000001000+00000525+00000+0001T   00000525+0000001512          1400 KL6150               2AZ
203585000203585               203585               170213OR     1400+00000+OR0000002452+0000002452+000000000+000000344+0000002790+0000000006+I20000000000+0000002790+Z
203585001203585006-001000     203585006003000093779HELIUM BALLOON FILL    0000004000+00000613+00000+0001T   00000613+0000001514          1400 KL6131               2AZ
203586000203586               203586               170213OR     1400+00000+OR0000001314+0000001314+000000000+000000184+0000001490+0000000008+I20000000000+0000001490+Z
203586001203586077-000310     203586006001023608635GIFT-BAG 18X23CM GLOSS 0000001000+00001314+00000+0001T   00001314+0000001519          1400 KL6112               2AZ
203587000203587               203587               170213OR     1400+00000+OR0000002927+0000002927+000000000+000000411+0000003330+0000000008+I20000000000+0000003330+Z
203587001203587022-002106     203587006003000142712MUG EN 6cm ASSTD COLORS0000001000+00001139+00000+0001T   00001139+0000001523          1400 KL6305               2AZ
203587002203587564-000015     203587006003000140862BUBBLE TEST TUBE       0000001000+00001753+00000+0001T   00001753+0000001523          1400 KL6131               2AZ
203587003203587112-116038     203587006009681820246TCS CARRIER BAG MIDI   0000001000+00000035+00000+0001T   00000035+0000001523          1400 KL6090               2AZ
203588000203588               203588               170213OR     1400+00000+OR0000005294+0000005294+000000000+000000743+0000006037+0000000000+I40000006037+0000000000+Z
203588001203588079-013099     203588006003000081875ART+CRAFT EYES ASSTD   0000001000+00001753+00000+0001T   00001753+0000001525          1400 KL6130               2AZ
203588002203588006-000804     203588006003000574445STREAMERS 6-ROLLS 2.5cm0000001000+00001753+00000+0001T   00001753+0000001525          1400 KL6131               2AZ
203588003203588362-002464     203588006003000167388HAIR EXT 30cm 6PCS COL 0000001000+00001753+00000+0001T   00001753+0000001525          1400 KL6160               2AZ
203588004203588112-116038     203588006009681820246TCS CARRIER BAG MIDI   0000001000+00000035+00000+0001T   00000035+0000001525          1400 KL6090               2AZ
203589000203589               203589               170213OR     1400+00000+OR0000003453+0000003453+000000000+000000484+0000003930+0000000007+I20000000000+0000003930+Z
203589001203589112-116038     203589006009681820246TCS CARRIER BAG MIDI   0000001000+00000035+00000+0001T   00000035+0000001526          1400 KL6090               2AZ
203589002203589018-000170     203589006001023775528MUG OCC. LOVE 2PC MINI 0000001000+00002192+00000+0001T   00002192+0000001526          1400 KL6515               2AZ
203589003203589304-001011     203589006001023806727FLWR ROSE RED W/BEAR   0000002000+00000613+00000+0001T   00000788+0006471526          1400 KL6510               2AZ
203590000203590               203590               170213OR     1400+00000+OR0000005961+0000005961+000000000+000000836+0000006790+0000000007+I20000000000+0000006790+Z
203590001203590046-000012-A   203590006003000208296BATTERIES H/POWER SZ:AA0000001000+00002192+00000+0001T   00002192+0000001527          1400 KL6312               2AZ
203590002203590369-000235     203590006001023857194LEARNING-LINKS 12PCE   0000001000+00002630+00000+0001T   00002630+0000001527          1400 KL6745               2AZ
203590003203590903-000709     203590006002099007070SWT QUENCHERS FRUIT    0000001000+00001139+00000+0001T   00001139+0000001527          1400 KL6150               2AZ
203591000203591               203591               170213OR     1400+00000+OR0000003592+0000003592+000000000+000000503+0000004095+0000000000+I40000004095+0000000000+Z
203591001203591018-000127     203591006001023380289MUG OCC STRAIGHT LOVE  0000001000+00001578+00000+0001T   00001753+0006471528          1400 KL6515               2AZ
203591002203591077-000310     203591006001023608635GIFT-BAG 18X23CM GLOSS 0000001000+00001314+00000+0001T   00001314+0000001528          1400 KL6112               2AZ
203591003203591903-000121     203591006002099001689SWT GS ZILLIONS SOURS  0000001000+00000700+00000+0001T   00000700+0000001528          1400 KL6150               2AZ
203592000203592               203592               170213OR     1400+00000+OR0000014909+0000014909+000000000+000002089+0000016998+0000000000+I40000016998+0000000000+Z
203592001203592304-000720     203592006001023843050F/BUNCH ROSE 6-HEAD AST0000001000+00002630+00000+0001T   00002630+0000001530          1400 KL6510               2AZ
203592002203592368-000113     203592006001023780874PLUSH BLINGED LOVE 30cm0000001000+00012279+00000+0001T   00012279+0000001530          1400 KL6745               2AZ
203593000203593               203593               170213OR     1400+00000+OR0000009600+0000009600+000000000+000001347+0000010947+0000000000+I40000010947+0000000000+Z
203593001203593112-116069     203593006009681820277TCS CARRIER BAG JUMBO  0000001000+00000048+00000+0001T   00000048+0000001532          1400 KL6090               2AZ
203593002203593089-000192-A   203593006001023901774KEY-CHAIN ACRYLIC      0000004000+00000876+00000+0001T   00000876+0000001532          1400 KL6205               2AZ
203593003203593077-000299     203593006003000395576G/BAG 32x25cm LRG LOVE 0000003000+00001490+00000+0001T   00001490+0000001532          1400 KL6112               2AZ
203593004203593077-000303     203593006001023593757GIFT-BAG PAPER MED     0000001000+00001578+00000+0001T   00001578+0000001532          1400 KL6112               2AZ
203594000203594               203594               170213OR     1400+00000+OR0000005436+0000005436+000000000+000000762+0000006198+0000000000+I40000006198+0000000000+Z
203594001203594567-014133     203594006003000560103BOOK COLOURING 48 PAGE 0000001000+00001490+00000+0001T   00001490+0000001533          1400 KL6757               2AZ
203594002203594365-000027     203594006001023786852P/SET TEA-SET PL 9PCS  0000001000+00003946+00000+0001T   00003946+0000001533          1400 KL6725               2AZ
203595000203595               203595               170213OR     1400+00000+OR0000013378+0000013378+000000000+000001875+0000015253+0000000000+I40000015253+0000000000+Z
203595001203595079-009702-D   203595008427973059354PAPER SIRIO A2 RED COL 0000001000+00001051+00000+0001T   00001051+0000001535          1400 KL6130               2AZ
203595002203595368-000113     203595006001023780874PLUSH BLINGED LOVE 30cm0000001000+00012279+00000+0001T   00012279+0000001535          1400 KL6745               2AZ
203595003203595112-116069     203595006009681820277TCS CARRIER BAG JUMBO  0000001000+00000048+00000+0001T   00000048+0000001535          1400 KL6090               2AZ
203596000203596               203596               170213OR     1400+00000+OR0000001575+0000001575+000000000+000000222+0000001790+0000000007+I20000000000+0000001790+Z
203596001203596903-000077     203596006939873501687SWT GS MAGIC ROCK FRUIT0000003000+00000525+00000+0001T   00000525+0000001536          1400 KL6150               2AZ
203597000203597               203597               170213OR     1400+00000+OR0000007925+0000007925+000000000+000001112+0000009030+0000000007+I20000000000+0000009030+Z
203597001203597018-000025     203597006003000095056MUG S/WARE V-SHAPE CER.0000003000+00002630+00000+0001T   00002630+0000001538          1400 KL6515               2AZ
203597002203597112-116038     203597006009681820246TCS CARRIER BAG MIDI   0000001000+00000035+00000+0001T   00000035+0000001538          1400 KL6090               2AZ
203598000203598               203598               170213OR     1400+00000+OR0000005910+0000005910+000000000+000000828+0000006730+0000000008+I20000000000+0000006730+Z
203598001203598266-008040     203598006001023787002FIGURINE 6PC & ACCESS. 0000001000+00004385+00000+0001T   00004385+0000001539          1400 KL6710               2AZ
203598002203598565-004101     203598006003000548033BALL BOUNCING EGG      0000001000+00001490+00000+0001T   00001490+0000001539          1400 KL6745               2AZ
203598003203598112-116038     203598006009681820246TCS CARRIER BAG MIDI   0000001000+00000035+00000+0001T   00000035+0000001539          1400 KL6090               2AZ
203599000203599               203599               170213OR     1400+00000+OR0000001839+0000001839+000000000+000000258+0000002090+0000000007+I20000000000+0000002090+Z
203599001203599006-001000     203599006003000093779HELIUM BALLOON FILL    0000002000+00000613+00000+0001T   00000613+0000001541          1400 KL6131               2AZ
203599002203599304-001011     203599006001023806727FLWR ROSE RED W/BEAR   0000001000+00000613+00000+0001T   00000788+0006471541          1400 KL6510               2AZ
203600000203600               203600               170213OR     1400+00000+OR0000011009+0000011009+000000000+000001543+0000012550+0000000002+I20000000000+0000012550+Z
203600001203600077-000270     203600006003000395453GIFT-BAG PPR JMB 33X45 0000001000+00002630+00000+0001T   00002630+0000001544          1400 KL6112               2AZ
203600002203600018-019000     203600006003000557288MUG OCC. LOVE JUMBO    0000001000+00005262+00000+0001T   00005262+0000001544          1400 KL6515               2AZ
203600003203600089-060027     203600006003000245871KEY-CHAIN HEART 6X6cm  0000001000+00003069+00000+0001T   00003069+0000001544          1400 KL6205               2AZ
203600004203600112-116069     203600006009681820277TCS CARRIER BAG JUMBO  0000001000+00000048+00000+0001T   00000048+0000001544          1400 KL6090               2AZ
203601000203601               203601               170213OR     1400+00000+OR0000008802+0000008802+000000000+000001234+0000010030+0000000006+I20000000000+0000010030+Z
203601001203601079-013032-A   203601006003000389322SEA WORLD STICKERS     0000001000+00001753+00000+0001T   00001753+0000001545          1400 KL6130               2AZ
203601002203601018-019000     203601006003000557288MUG OCC. LOVE JUMBO    0000001000+00005262+00000+0001T   00005262+0000001545          1400 KL6515               2AZ
203601003203601112-116038     203601006009681820246TCS CARRIER BAG MIDI   0000001000+00000035+00000+0001T   00000035+0000001545          1400 KL6090               2AZ
203601004203601903-000521     203601006001704009652SWT GUMMY SOFT GUMS    0000002000+00000876+00000+0001T   00000876+0000001545          1400 KL6150               2AZ
203602000203602               203602               170213OR     1400+00000+OR0000018723+0000018723+000000000+000002623+0000021346+0000000000+I40000021346+0000000000+Z
203602001203602104-000095     203602006003000614714BASKET PL 23x15x12cm   0000002000+00003507+00000+0001T   00003507+0000001548          1400 KL6210               2AZ
203602002203602077-000151     203602006008766114676GIFT-WRAP C/PHANE ASSTD0000001000+00000876+00000+0001T   00000876+0000001548          1400 KL6112               2AZ
203602003203602565-000255     203602006003000585168NOVELTY GLOW SLIME     0000001000+00002455+00000+0001T   00002455+0000001548          1400 KL6745               2AZ
203602004203602362-002467     203602006003000167623HAIR EXT LONG 61cm     0000001000+00003507+00000+0001T   00003507+0000001548          1400 KL6160               2AZ
203602005203602019-000126     203602006003000329571PLANTER GALV W/HANDLE  0000001000+00004823+00000+0001T   00004823+0000001548          1400 KL6510               2AZ
203602006203602112-116069     203602006003000535064TCS CARRIER BAG JUMBO  0000001000+00000048+00000+0001T   00000048+0000001548          1400 KL6090               2AZ
203603000203603               203603               170213OR     1400+00000+OR0000006961+0000006961+000000000+000000976+0000007930+0000000007+I20000000000+0000007930+Z
203603001203603112-116038     203603006009681820246TCS CARRIER BAG MIDI   0000001000+00000035+00000+0001T   00000035+0000001549          1400 KL6090               2AZ
203603002203603903-000619     203603006003000672455SWT LOLLY STR/BRRY 140G0000001000+00001753+00000+0001T   00001753+0000001549          1400 KL6150               2AZ
203603003203603903-000892     203603008693029700420SWT NOVELTY CHOCO CREAM0000001000+00000788+00000+0001T   00000788+0000001549          1400 KL6150               2AZ
203603004203603368-000001     203603006003000097982Plush Bear 25cm        0000001000+00004385+00000+0001T   00004385+0000001549          1400 KL6745               2AZ
203604000203604               203604               170213OR     1400+00000+OR0000008805+0000008805+000000000+000001233+0000010038+0000000000+I40000010038+0000000000+Z
203604001203604112-116038     203604006009681820246TCS CARRIER BAG MIDI   0000001000+00000035+00000+0001T   00000035+0000001557          1400 KL6090               2AZ
203604002203604301-086005     203604006001023856289ORN OCC MOM WDN LETTERS0000001000+00004385+00000+0001T   00004385+0000001557          1400 KL6505               2AZ
203604003203604031-080508     203604006001023802415P/FRAME PL 22X11CM LOVE0000001000+00004385+00000+0001T   00004385+0000001557          1400 KL6510               2AZ
203605000203605               203605               170213OR     1400+00000+OR0000004166+0000004166+000000000+000000585+0000004750+0000000001+I20000000000+0000004750+Z
203605001203605077-000011-F   203605006001023808431TISSUE-WRAP BLUE/LILAC 0000002000+00000876+00000+0001T   00000876+0000001558          1400 KL6112               2AZ
203605002203605077-000304     203605006001023483232GIFT-BAG 25X32CM E/DAY 0000001000+00001490+00000+0001T   00001490+0000001558          1400 KL6112               2AZ
203605003203605903-000861     203605005010478430822SWT LOVE HEARTS SML    0000001000+00000876+00000+0001T   00000876+0000001558          1400 KL6150               2AZ
203605004203605112-116069     203605006009681820277TCS CARRIER BAG JUMBO  0000001000+00000048+00000+0001T   00000048+0000001558          1400 KL6090               2AZ
203606000203606               203606               170213OR     1400+00000+OR0000001753+0000001753+000000000+000000246+0000001990+0000000009+I20000000000+0000001990+Z
203606001203606466-008889     203606006001023835376WHISTLE SPORTS+STRING  0000001000+00001753+00000+0001T   00001753+0000001559          1400 KL6785               2AZ
203607000203607               203607               170213OR     1400+00000+OR0000003542+0000003542+000000000+000000496+0000004030+0000000008+I20000000000+0000004030+Z
203607001203607018-000136     203607006001023659026MUG OCC LOVE W/PLUSH   0000001000+00003507+00000+0001T   00003507+0000001600          1400 KL6515               2AZ
203607002203607112-116038     203607006009681820246TCS CARRIER BAG MIDI   0000001000+00000035+00000+0001T   00000035+0000001600          1400 KL6090               2AZ
203608000203608               203608               170213OR     1400+00000+OR0000010129+0000010129+000000000+000001420+0000011549+0000000000+I40000011549+0000000000+Z
203608001203608112-116069     203608006009681820277TCS CARRIER BAG JUMBO  0000001000+00000048+00000+0001T   00000048+0000001604          1400 KL6090               2AZ
203608002203608077-000011-D   203608006001023808554TISSUE-WRAP WHITE 10PCE0000001000+00000876+00000+0001T   00000876+0000001604          1400 KL6112               2AZ
203608003203608903-002900     203608005996071650648QUICK MILK 5 CHOCO 5PC 0000001000+00001578+00000+0001T   00001578+0000001604          1400 KL6150               2AZ
203608004203608301-085004     203608006003000420469ORN LOVE PLAQUE 21X10CM0000001000+00003507+00000+0001T   00003946+0006471604          1400 KL6505               2AZ
203608005203608077-000299     203608006003000395576G/BAG 32x25cm LRG LOVE 0000001000+00001490+00000+0001T   00001490+0000001604          1400 KL6112               2AZ
203608006203608018-000129     203608006001023403353MUG OCC. LOVE V-SHAPE  0000001000+00002630+00000+0001T   00002630+0000001604          1400 KL6515               2AZ
203609000203609               203609               170213OR     1400+00000+OR0000003198+0000003198+000000000+000000449+0000003640+0000000007+I20000000000+0000003640+Z
203609001203609903-000670     203609006009803358008SWT SHERBET RED LIPS   0000001000+00000218+00000+0001T   00000218+0000001605          1400 KL6150               2AZ
203609002203609903-000510     203609006001704012621SWEET MS ZBDZ S/BERRY  0000001000+00001227+00000+0001T   00001227+0000001605          1400 KL6150               2AZ
203609003203609565-000017     203609006003000672516NOVELTY TONGUE SLING   0000001000+00001753+00000+0001T   00001753+0000001605          1400 KL6745               2AZ
203610000203610               203610               170213OR     1400+00000+OR0000002299-0000000000+000000000+000000000+0000002300-0000000001+I20000000000+0000002300-Z
203610001203610001-999909     203610000000000999909STAFF-REFRESHMENTS     0000001000-00002299+00000+0001X   00000000+0000001606          0000 KL69093IC            2 Z
203611000203611               203611               170213OR     1400+00000+OR0000016711+0000016711+000000000+000002340+0000019051+0000000000+I40000019051+0000000000+Z
203611001203611112-116069     203611006009681820277TCS CARRIER BAG JUMBO  0000001000+00000048+00000+0001T   00000048+0000001609          1400 KL6090               2AZ
203611002203611001-091415     203611006003000329113W/GLS OCC. LOVE 2PC 2800000001000+00008771+00000+0001T   00009648+0006471609          1400 KL6515               2AZ
203611003203611301-085004     203611006003000420469ORN LOVE PLAQUE 21X10CM0000001000+00003507+00000+0001T   00003946+0006471609          1400 KL6505               2AZ
203611004203611031-080508     203611006001023802415P/FRAME PL 22X11CM LOVE0000001000+00004385+00000+0001T   00004385+0000001609          1400 KL6510               2AZ
203612000203612               203612               170213OR     1400+00000+OR0000005120+0000005120+000000000+000000717+0000005830+0000000007+I20000000000+0000005830+Z
203612001203612112-116038     203612006009681820246TCS CARRIER BAG MIDI   0000001000+00000035+00000+0001T   00000035+0000001610          1400 KL6090               2AZ
203612002203612018-000136     203612006001023659026MUG OCC LOVE W/PLUSH   0000001000+00003507+00000+0001T   00003507+0000001610          1400 KL6515               2AZ
203612003203612077-000303     203612006001023593757GIFT-BAG PAPER MED     0000001000+00001578+00000+0001T   00001578+0000001610          1400 KL6112               2AZ
203613000203613               203613               170213OR     1400+00000+OR0000005733+0000005733+000000000+000000804+0000006537+0000000000+I40000006537+0000000000+Z
203613001203613019-071594     203613006003000505579PEBBLES GLS 250g RED   0000001000+00002630+00000+0001T   00002630+0000001612          1400 KL6510               2AZ
203613002203613077-000452     203613006003000284986G/BAG METALLIC MED EMB 0000001000+00001490+00000+0001T   00001490+0000001612          1400 KL6112               2AZ
203613003203613016-006515-A   203613006003000461707S/JAR GLS W/HANDLE 500 0000001000+00001578+00000+0001T   00001753+0008191612          1400 KL6300               2AZ
203613004203613112-116038     203613006009681820246TCS CARRIER BAG MIDI   0000001000+00000035+00000+0001T   00000035+0000001612          1400 KL6090               2AZ
203614000203614               203614               170213OR     1400+00000+OR0000013463+0000013463+000000000+000001887+0000015350+0000000000+I40000015350+0000000000+Z
203614001203614112-116069     203614006009681820277TCS CARRIER BAG JUMBO  0000001000+00000048+00000+0001T   00000048+0000001614          1400 KL6090               2AZ
203614002203614301-085007     203614006003000673698ORN OCC. LOVE S/PLAQUE 0000001000+00007893+00000+0001T   00007893+0000001614          1400 KL6505               2AZ
203614003203614206-000620     203614006003000631797BACK SCRATCHER EXTEND  0000001000+00002630+00000+0001T   00002630+0000001614          1400 KL6321               2AZ
203614004203614077-000310     203614006001023608635GIFT-BAG 18X23CM GLOSS 0000001000+00001314+00000+0001T   00001314+0000001614          1400 KL6112               2AZ
203614005203614077-000323     203614006001023677563G/BAG 25X32CM E/DAY FLO0000001000+00001578+00000+0001T   00001578+0000001614          1400 KL6112               2AZ
203615000203615               203615               170213OR     1400+00000+OR0000006174+0000006174+000000000+000000865+0000007039+0000000000+I40000007039+0000000000+Z
203615001203615112-116038     203615006009681820246TCS CARRIER BAG MIDI   0000001000+00000035+00000+0001T   00000035+0000001615          1400 KL6090               2AZ
203615002203615368-000175     203615006003000270316PLUSH BEAR 4 ASSTD 18CM0000001000+00006139+00000+0001T   00006139+0000001615          1400 KL6745               2AZ
203616000203616               203616               170213OR     1400+00000+OR0000005045+0000005045+000000000+000000707+0000005752+0000000000+I40000005752+0000000000+Z
203616001203616018-000136     203616006001023659026MUG OCC LOVE W/PLUSH   0000001000+00003507+00000+0001T   00003507+0000001616          1400 KL6515               2AZ
203616002203616077-000299     203616006003000395576G/BAG 32x25cm LRG LOVE 0000001000+00001490+00000+0001T   00001490+0000001616          1400 KL6112               2AZ
203616003203616112-116069     203616006009681820277TCS CARRIER BAG JUMBO  0000001000+00000048+00000+0001T   00000048+0000001616          1400 KL6090               2AZ
203617000203617               203617               170213OR     1400+00000+OR0000004380+0000004380+000000000+000000615+0000004990+0000000005+I20000000000+0000004990+Z
203617001203617077-000011-D   203617006001023808554TISSUE-WRAP WHITE 10PCE0000003000+00000876+00000+0001T   00000876+0000001617          1400 KL6112               2AZ
203617002203617077-000011-R   203617006001023808462P/TISSUE DARK 10-SHEETS0000002000+00000876+00000+0001T   00000876+0000001617          1400 KL6112               2AZ
203618000203618               203618               170213OR     1400+00000+OR0000004420+0000004420+000000000+000000619+0000005030+0000000009+I20000000000+0000005030+Z
203618001203618368-000001     203618006003000097982Plush Bear 25cm        0000001000+00004385+00000+0001T   00004385+0000001618          1400 KL6745               2AZ
203618002203618112-116038     203618006009681820246TCS CARRIER BAG MIDI   0000001000+00000035+00000+0001T   00000035+0000001618          1400 KL6090               2AZ
203619000203619               203619               170213OR     1400+00000+OR0000013708+0000013708+000000000+000001922+0000015630+0000000000+I40000015630+0000000000+Z
203619001203619112-116038     203619006009681820246TCS CARRIER BAG MIDI   0000001000+00000035+00000+0001T   00000035+0000001620          1400 KL6090               2AZ
203619002203619261-000121     203619006001023341600GUN-CAPS 8-SHOT CARD-9 0000001000+00000700+00000+0001T   00000700+0000001620          1400 KL6710               2AZ
203619003203619261-002267     203619006001023665126GUN 8-SHOT SUPER-CAP   0000001000+00001753+00000+0001T   00001753+0000001620          1400 KL6710               2AZ
203619004203619903-000519     203619006001704012805SWT MS LIQ-O-GHETTI    0000003000+00001227+00000+0001T   00001227+0000001620          1400 KL6150               2AZ
203619005203619903-000095     203619006001704011495SWT SPECKLED-EGGS 100G 0000003000+00002104+00000+0001T   00002104+0000001620          1400 KL6150               2AZ
203619006203619077-000245     203619006001023759214GIFT-RIBBON METALLICx2 0000001000+00001227+00000+0001T   00001227+0000001620          1400 KL6112               2AZ
203620000203620               203620               170213OR     1400+00000+OR0000018152+0000018152+000000000+000002544+0000020696+0000000000+I40000020696+0000000000+Z
203620001203620077-000304     203620006001023483232GIFT-BAG 25X32CM E/DAY 0000001000+00001490+00000+0001T   00001490+0000001621          1400 KL6112               2AZ
203620002203620080-000113     203620006003000237449CARD&ENVLPE - LOVE     0000001000+00001753+00000+0001T   00001753+0000001621          1400 KL6112               2AZ
203620003203620301-085007     203620006003000673698ORN OCC. LOVE S/PLAQUE 0000001000+00007893+00000+0001T   00007893+0000001621          1400 KL6505               2AZ
203620004203620174-000305     203620006003000105502TRAVEL NECK-PILLOW     0000001000+00007016+00000+0001T   00007016+0000001621          1400 KL6205               2AZ
203621000203621               203621               170213OR     1400+00000+OR0000002453+0000002453+000000000+000000344+0000002790+0000000007+I20000000000+0000002790+Z
203621001203621007-000406     203621006009635830659NATURE-STUDY-BOOK 72PG 0000001000+00000700+00000+0001T   00000700+0000001621          1400 KL6130               2AZ
203621002203621080-000117     203621006003000236350CARD & ENVELOPE THANK U0000001000+00001753+00000+0001T   00001753+0000001621          1400 KL6112               2AZ
203622000203622               203622               170213OR     1400+00000+OR0000015565+0000015565+000000000+000002181+0000017740+0000000006+I20000000000+0000017740+Z
203622001203622112-116069     203622006009681820277TCS CARRIER BAG JUMBO  0000001000+00000048+00000+0001T   00000048+0000001623          1400 KL6090               2AZ
203622002203622016-006497     203622006003000120055S/JAR-SET 4PCE MINI    0000002000+00004385+00000+0001T   00004385+0000001623          1400 KL6300               2AZ
203622003203622024-000212     203622006001023858030COOKIE-CUTTERS PL SMALL0000001000+00003069+00000+0001T   00003069+0000001623          1400 KL6300               2AZ
203622004203622077-000311     203622006001023608666GIFT-BAG 11X14CM GLOSS 0000006000+00000613+00000+0001T   00000613+0000001623          1400 KL6112               2AZ
203623000203623               203623               170213OR     1400+00000+OR0000017582+0000017582+000000000+000002463+0000020045+0000000000+I40000020045+0000000000+Z
203623001203623112-116069     203623006009681820277TCS CARRIER BAG JUMBO  0000001000+00000048+00000+0001T   00000048+0000001625          1400 KL6090               2AZ
203623002203623903-000897     203623008692806325207SWT CHOC DBL MINI ROLL 0000001000+00000876+00000+0001T   00000876+0000001625          1400 KL6150               2AZ
203623003203623018-005009     203623006001023725608MUG W/PLUSH-BEAR LOVE  0000004000+00003507+00000+0001T   00003507+0000001625          1400 KL6515               2AZ
203623004203623018-000129     203623006001023403353MUG OCC. LOVE V-SHAPE  0000001000+00002630+00000+0001T   00002630+0000001625          1400 KL6515               2AZ
203624000203624               203624               170213OR     1400+00000+OR0000002227+0000002227+000000000+000000312+0000002539+0000000000+I40000002539+0000000000+Z
203624001203624112-116038     203624006009681820246TCS CARRIER BAG MIDI   0000001000+00000035+00000+0001T   00000035+0000001628          1400 KL6090               2AZ
203624002203624018-000170     203624006001023775528MUG OCC. LOVE 2PC MINI 0000001000+00002192+00000+0001T   00002192+0000001628          1400 KL6515               2AZ
203624003203624304-001115     203624006001023738240FLOWER-BUNCH CARNATIONS0000001000-00005262+00000+0001T   00005262+0000001628          1400 KL65102IC            2 Z
203624004203624304-001115     203624006001023738240FLOWER-BUNCH CARNATIONS0000001000+00005262+00000+0001T   00005262+0000001628          1400 KL65102IC            2AZ
203625000203625               203625               170213OR     1400+00000+OR0000009690+0000009690+000000000+000001358+0000011048+0000000000+I40000011048+0000000000+Z
203625001203625112-116069     203625006009681820277TCS CARRIER BAG JUMBO  0000001000+00000048+00000+0001T   00000048+0000001629          1400 KL6090               2AZ
203625002203625565-000071     203625006003000643387NOVELTY WIND UP CHATTER0000001000+00001139+00000+0001T   00001139+0000001629          1400 KL6745               2AZ
203625003203625565-000015     203625006003000672035NOVELTY SLIME ANIMAL   0000001000+00002192+00000+0001T   00002192+0000001629          1400 KL6745               2AZ
203625004203625903-000070     203625006001704001106SWT TOFFEE CREAMY 35g  0000001000+00000700+00000+0001T   00000700+0000001629          1400 KL6150               2AZ
203625005203625903-000111     203625006001704006378SWT LIQUORICE-TWISTS   0000001000+00001227+00000+0001T   00001227+0000001629          1400 KL6150               2AZ
203625006203625080-000127     203625006003000424351VALENTINES DAY 36x24CM 0000002000+00002192+00000+0001T   00002192+0000001629          1400 KL6112               2AZ
203626000203626               203626               170213OR     1400+00000+OR0000002451+0000002451+000000000+000000344+0000002790+0000000005+I20000000000+0000002790+Z
203626001203626079-009700-D   203626006003000545711PAPER SIRIO A4 RED COL.0000002000+00000306+00000+0001T   00000306+0000001631          1400 KL6130               2AZ
203626002203626006-001000     203626006003000093779HELIUM BALLOON FILL    0000003000+00000613+00000+0001T   00000613+0000001631          1400 KL6131               2AZ
203627000203627               203627               170213OR     1400+00000+OR0000000437+0000000437+000000000+000000062+0000000490+0000000009+I20000000000+0000000490+Z
203627001203627080-000133     203627006003000535613CARD&ENV MINI ASTD DSGN0000001000+00000437+00000+0001T   00000437+0000001635          1400 KL6112               2AZ
203628000203628               203628               170213OR     1400+00000+OR0000009019+0000009019+000000000+000001265+0000010284+0000000000+I40000010284+0000000000+Z
203628001203628903-000123     203628006925925909280SWEET GS MINI MALLOWS  0000001000+00000876+00000+0001T   00000876+0000001636          1400 KL6150               2AZ
203628002203628016-006517     203628006003000351626S/JAR GLS CHECK 650ML  0000002000+00002192+00000+0001T   00002192+0000001636          1400 KL6300               2AZ
203628003203628016-006515     203628006003000295555S/JAR GLS EMBOSS. 250ML0000001000+00001753+00000+0001T   00001753+0000001636          1400 KL6300               2AZ
203628004203628903-000670     203628006009803358008SWT SHERBET RED LIPS   0000001000+00000218+00000+0001T   00000218+0000001636          1400 KL6150               2AZ
203628005203628112-116038     203628006009681820246TCS CARRIER BAG MIDI   0000001000+00000035+00000+0001T   00000035+0000001636          1400 KL6090               2AZ
203628006203628903-000911     203628006009802868454SWT ST GUM TAPE BARBIE 0000001000+00001753+00000+0001T   00001753+0000001636          1400 KL6150               2AZ
203629000203629               203629               170213OR     1400+00000+OR0000004242+0000004242+000000000+000000595+0000004830+0000000007+I20000000000+0000004830+Z
203629001203629031-005820     203629006001023667816P/FRAME-CLIP 15X20CM   0000001000+00001753+00000+0001T   00001753+0000001636          1400 KL6510               2AZ
203629002203629031-005815     203629009320760100019P/FRAME-CLIP 10x15cm   0000002000+00001227+00000+0001T   00001227+0000001636          1400 KL6510               2AZ
203629003203629112-116038     203629006003000534906TCS CARRIER BAG MIDI   0000001000+00000035+00000+0001T   00000035+0000001636          1400 KL6090               2AZ
203630000203630               203630               170213OR     1400+00000+OR0000003102+0000003102+000000000+000000435+0000003537+0000000000+I40000003537+0000000000+Z
203630001203630080-000115     203630006003000237333CARD&ENVELOPE - BLANKS 0000001000+00001753+00000+0001T   00001753+0000001638          1400 KL6112               2AZ
203630002203630080-000114     203630006003000246472CARD&ENV LOVE-MUSICAL  0000001000+00001314+00000+0001T   00001753+0008151638          1400 KL6112               2AZ
203630003203630112-116038     203630006009681820246TCS CARRIER BAG MIDI   0000001000+00000035+00000+0001T   00000035+0000001638          1400 KL6090               2AZ
203631000203631               203631               170213OR     1400+00000+OR0000003507+0000003507+000000000+000000491+0000003990+0000000008+I20000000000+0000003990+Z
203631001203631018-000136     203631006001023659026MUG OCC LOVE W/PLUSH   0000001000+00003507+00000+0001T   00003507+0000001638          1400 KL6515               2AZ
203632000203632               203632               170213OR     1400+00000+OR0000008275+0000008275+000000000+000001159+0000009434+0000000000+I40000009434+0000000000+Z
203632001203632018-005009     203632006001023725608MUG W/PLUSH-BEAR LOVE  0000002000+00003507+00000+0001T   00003507+0000001643          1400 KL6515               2AZ
203632002203632304-001011     203632006001023806727FLWR ROSE RED W/BEAR   0000002000+00000613+00000+0001T   00000788+0006471643          1400 KL6510               2AZ
203632003203632112-116038     203632006009681820246TCS CARRIER BAG MIDI   0000001000+00000035+00000+0001T   00000035+0000001643          1400 KL6090               2AZ
203633000203633               203633               170213OR     1400+00000+OR0000004941+0000004941+000000000+000000694+0000005635+0000000000+I40000005635+0000000000+Z
203633001203633566-000309     203633006003000523283STICKER CHALK-BOARD    0000001000+00001753+00000+0001T   00001753+0000001645          1400 KL6130               2AZ
203633002203633079-009702-G   203633008427973060787PAPER SIRIO A2 FUSHIA  0000001000+00001051+00000+0001T   00001051+0000001645          1400 KL6130               2AZ
203633003203633007-000208     203633006001023582096NOTE-PAD S/STICK 100'S 0000001000+00001490+00000+0001T   00001490+0000001645          1400 KL6130               2AZ
203633004203633079-009700-J   203633006003000546190PAPER SIRIO A4 BLUE    0000001000+00000306+00000+0001T   00000306+0000001645          1400 KL6130               2AZ
203633005203633079-009700-E   203633006003000545797PAPER SIRIO A4 GREY    0000001000+00000306+00000+0001T   00000306+0000001645          1400 KL6130               2AZ
203633006203633112-116038     203633006009681820246TCS CARRIER BAG MIDI   0000001000+00000035+00000+0001T   00000035+0000001645          1400 KL6090               2AZ
203634000203634               203634               170213OR     1400+00000+OR0000004856+0000004856+000000000+000000680+0000005530+0000000006+I20000000000+0000005530+Z
203634001203634077-000310     203634006001023608635GIFT-BAG 18X23CM GLOSS 0000001000+00001314+00000+0001T   00001314+0000001646          1400 KL6112               2AZ
203634002203634018-005009     203634006001023725608MUG W/PLUSH-BEAR LOVE  0000001000+00003507+00000+0001T   00003507+0000001646          1400 KL6515               2AZ
203634003203634112-116038     203634006009681820246TCS CARRIER BAG MIDI   0000001000+00000035+00000+0001T   00000035+0000001646          1400 KL6090               2AZ
203635000203635               203635               170213OR     1400+00000+OR0000028940+0000028940+000000000+000004053+0000032993+0000000000+I40000032993+0000000000+Z
203635001203635018-019000     203635006003000557288MUG OCC. LOVE JUMBO    0000001000+00005262+00000+0001T   00005262+0000001651          1400 KL6515               2AZ
203635002203635301-001127     203635006946859290169ORN FOUNTAIN CAS/W.FALL0000001000+00006139+00000+0001T   00006139+0000001651          1400 KL6505               2AZ
203635003203635030-000030-A   203635006003000249305PLAQUE GLASS LOVE      0000001000+00003069+00000+0001T   00003069+0000001651          1400 KL6505               2AZ
203635004203635031-000923     203635006001023669933P/FRAME BLK W/WORDS    0000001000+00003507+00000+0001T   00003507+0000001651          1400 KL6510               2AZ
203635005203635001-091415     203635006003000329113W/GLS OCC. LOVE 2PC 2800000001000+00008771+00000+0001T   00009648+0006471651          1400 KL6515               2AZ
203635006203635080-000127     203635006003000424351VALENTINES DAY 36x24CM 0000001000+00002192+00000+0001T   00002192+0000001651          1400 KL6112               2AZ
203636000203636               203636               170213OR     1400+00000+OR0000000048+0000000048+000000000+000000007+0000000050+0000000005+I20000000000+0000000050+Z
203636001203636112-116069     203636006009681820277TCS CARRIER BAG JUMBO  0000001000+00000048+00000+0001T   00000048+0000001652          1400 KL6090               2AZ
203637000203637               203637               170213OR     1400+00000+OR0000008816+0000008816+000000000+000001236+0000010052+0000000000+I40000010052+0000000000+Z
203637001203637112-116069     203637006009681820277TCS CARRIER BAG JUMBO  0000001000+00000048+00000+0001T   00000048+0000001653          1400 KL6090               2AZ
203637002203637105-001075     203637006001023844873LUNCH BOX 17x11x7cm    0000002000+00003069+00000+0001T   00003069+0000001653          1400 KL6210               2AZ
203637003203637206-000600     203637006003000631551TOILET PAPER SUDUKO    0000001000+00002630+00000+0001T   00002630+0000001653          1400 KL6321               2AZ
203638000203638               203638               170213OR     1400+00000+OR0000002015+0000002015+000000000+000000283+0000002290+0000000008+I20000000000+0000002290+Z
203638001203638077-000303     203638006001023593757GIFT-BAG PAPER MED     0000001000+00001578+00000+0001T   00001578+0000001654          1400 KL6112               2AZ
203638002203638080-000133     203638006003000535613CARD&ENV MINI ASTD DSGN0000001000+00000437+00000+0001T   00000437+0000001654          1400 KL6112               2AZ
203639000203639               203639               170213OR     1400+00000+OR0000003542+0000003542+000000000+000000496+0000004030+0000000008+I20000000000+0000004030+Z
203639001203639018-000136     203639006001023659026MUG OCC LOVE W/PLUSH   0000001000+00003507+00000+0001T   00003507+0000001655          1400 KL6515               2AZ
203639002203639112-116038     203639006009681820246TCS CARRIER BAG MIDI   0000001000+00000035+00000+0001T   00000035+0000001655          1400 KL6090               2AZ
203640000203640               203640               170213OR     1400+00000+OR0000006136+0000006136+000000000+000000860+0000006990+0000000006+I20000000000+0000006990+Z
203640001203640077-000465     203640006003000681570GIFT-BAG MTLC GLIT LRG 0000001000+00003507+00000+0001T   00003507+0000001655          1400 KL6112               2AZ
203640002203640077-000011-F   203640006001023808431TISSUE-WRAP BLUE/LILAC 0000001000+00000876+00000+0001T   00000876+0000001655          1400 KL6112               2AZ
203640003203640077-000382     203640006003000247820GIFT-BAG MED 18X23CM   0000001000+00001753+00000+0001T   00001753+0000001655          1400 KL6112               2AZ
203641000203641               203641               170213OR     1400+00000+OR0000023550+0000023550+000000000+000003299+0000026849+0000000000+I40000026849+0000000000+Z
203641001203641007-000104     203641006009685854865BK COVER BRWN KRFT ROLL0000002000+00000350+00000+0001T   00000350+0000001657          1400 KL6130               2AZ
203641002203641077-000299-A   203641006003000670888GIFT-BAG PAPER JMB LOVE0000001000+00001753+00000+0001T   00001753+0000001657          1400 KL6112               2AZ
203641003203641030-001140     203641006003000441938WALL CANVAS 26X20CM    0000001000+00010525+00000+0001T   00010525+0000001657          1400 KL6505               2AZ
203641004203641077-000239     203641006003000160419GIFT-RIBBON ROLL PEARL 0000001000+00001753+00000+0001T   00001753+0000001657          1400 KL6112               2AZ
203641005203641031-006542     203641006003000222698P/FRAME WDN.THICK 20X250000001000+00008771+00000+0001T   00008771+0000001657          1400 KL6510               2AZ
203641006203641112-116069     203641006009681820277TCS CARRIER BAG JUMBO  0000001000+00000048+00000+0001T   00000048+0000001657          1400 KL6090               2AZ
203642000203642               203642               170213OR     1400+00000+OR0000010608+0000010608+000000000+000001486+0000012094+0000000000+I40000012094+0000000000+Z
203642001203642903-000126     203642006002099003591SWT ZILLIONS MINT 50G  0000001000+00000700+00000+0001T   00000700+0000001659          1400 KL6150               2AZ
203642002203642903-000862     203642005010478533912SWT DOUBLE DIP 19G     0000001000+00001139+00000+0001T   00001139+0000001659          1400 KL6150               2AZ
203642003203642039-000796     203642006001023617750CANDLES TEALITE BOX-8  0000001000+00004385+00000+0001T   00004385+0000001659          1400 KL6510               2AZ
203642004203642106-003130     203642006001023625755ICE CUBE TRAY 21-CUBE  0000002000+00002192+00000+0001T   00002192+0000001659          1400 KL6210               2AZ
203643000203643               203643               170213OR     1400+00000+OR0000003507+0000003507+000000000+000000491+0000003998+0000000000+I40000003998+0000000000+Z
203643001203643007-000291     203643006003000590131REMINDER NOTES REFILL  0000001000+00003507+00000+0001T   00003507+0000001700          1400 KL6130               2AZ
203644000203644               203644               170213OR     1400+00000+OR0000001752+0000001752+000000000+000000246+0000001998+0000000000+I40000001998+0000000000+Z
203644001203644105-001010     203644006002580007329LUNCH-BOX 1L  ASSTD    0000002000+00000876+00000+0001T   00000876+0000001701          1400 KL6210               2AZ
203645000203645               203645               170213OR     1400+00000+OR0000002630+0000002630+000000000+000000369+0000002990+0000000009+I20000000000+0000002990+Z
203645001203645016-006425     203645006001023998170S/JAR GLS CLIP W/RIBBON0000001000+00002630+00000+0001T   00002630+0000001701          1400 KL6300               2AZ
203646000203646               203646               170213OR     1400+00000+OR0000001788+0000001788+000000000+000000251+0000002030+0000000009+I20000000000+0000002030+Z
203646001203646018-000210     203646006003000580095MUG DAILY TEXTS 4-ASST 0000001000+00001753+00000+0001T   00001753+0000001702          1400 KL6515               2AZ
203646002203646112-116038     203646006009681820246TCS CARRIER BAG MIDI   0000001000+00000035+00000+0001T   00000035+0000001702          1400 KL6090               2AZ
203647000203647               203647               170213OR     1400+00000+OR0000005085+0000005085+000000000+000000712+0000005790+0000000007+I20000000000+0000005790+Z
203647001203647077-000303     203647006001023593757GIFT-BAG PAPER MED     0000001000+00001578+00000+0001T   00001578+0000001703          1400 KL6112               2AZ
203647002203647105-003027     203647006001023114129CONTAINERS PL MINI 4PC 0000001000+00003507+00000+0001T   00004385+0008161703          1400 KL6210               2AZ
203648000203648               203648               170213OR     1400+00000+OR0000001314+0000001314+000000000+000000184+0000001490+0000000008+I20000000000+0000001490+Z
203648001203648077-000310     203648006001023608635GIFT-BAG 18X23CM GLOSS 0000001000+00001314+00000+0001T   00001314+0000001704          1400 KL6112               2AZ
203649000203649               203649               170213OR     1400+00000+OR0000011402+0000011402+000000000+000001599+0000013001+0000000000+I40000013001+0000000000+Z
203649001203649903-000183     203649006003000451043SWT LB HEART LOLLY     0000001000+00000393+00000+0001T   00000393+0000001706          1400 KL6150               2AZ
203649002203649077-000316     203649006001023609731GIFT-BAG 25X32CM MATT  0000001000+00001753+00000+0001T   00001753+0000001706          1400 KL6112               2AZ
203649003203649001-091415     203649006003000329113W/GLS OCC. LOVE 2PC 2800000001000+00008771+00000+0001T   00009648+0006471706          1400 KL6515               2AZ
203649004203649080-000133-A   203649006003000647019MINI VALENTINES CARD   0000001000+00000437+00000+0001T   00000437+0000001706          1400 KL6112               2AZ
203649005203649112-116069     203649006009681820277TCS CARRIER BAG JUMBO  0000001000+00000048+00000+0001T   00000048+0000001706          1400 KL6090               2AZ
203650000203650               203650               170213OR     1400+00000+OR0000016208+0000016208+000000000+000002274+0000018482+0000000000+I40000018482+0000000000+Z
203650001203650006-000172-G   203650006003000610167BALLOONS METALLIC SILV 0000002000+00000218+00000+0001T   00000218+0000001711          1400 KL6131               2AZ
203650002203650006-000170-F   203650006003000608669BALLOONS 1PC WHITE     0000002000+00000218+00000+0001T   00000218+0000001711          1400 KL6131               2AZ
203650003203650006-000172-A   203650006003000609765BALLOONS METALLIC PINK 0000002000+00000218+00000+0001T   00000218+0000001711          1400 KL6131               2AZ
203650004203650006-000190     203650006003000685530BALLOONS LOVE 81x91cm  0000002000+00004385+00000+0001T   00004385+0000001711          1400 KL6131               2AZ
203650005203650006-001000     203650006003000093779HELIUM BALLOON FILL    0000010000+00000613+00000+0001T   00000613+0000001711          1400 KL6131               2AZ
203651000203651               203651               170213OR     1400+00000+OR0000008364+0000008364+000000000+000001172+0000009536+0000000000+I40000009536+0000000000+Z
203651001203651018-019000     203651006003000557288MUG OCC. LOVE JUMBO    0000001000+00005262+00000+0001T   00005262+0000001712          1400 KL6515               2AZ
203651002203651047-000012     203651006002521079279PLUG 1x16A+2x5A-2PIN   0000001000+00001753+00000+0001T   00001753+0000001712          1400 KL6880               2AZ
203651003203651077-000310     203651006001023608635GIFT-BAG 18X23CM GLOSS 0000001000+00001314+00000+0001T   00001314+0000001712          1400 KL6112               2AZ
203651004203651112-116038     203651006009681820246TCS CARRIER BAG MIDI   0000001000+00000035+00000+0001T   00000035+0000001712          1400 KL6090               2AZ
203652000203652               203652               170213OR     1400+00000+OR0000001578+0000001578+000000000+000000221+0000001790+0000000009+I20000000000+0000001790+Z
203652001203652077-000303     203652006001023593757GIFT-BAG PAPER MED     0000001000+00001578+00000+0001T   00001578+0000001716          1400 KL6112               2BZ
203653000203653               203653               170213OR     1400+00000+OR0000008202+0000008202+000000000+000001149+0000009350+0000000001+I20000000000+0000009350+Z
203653001203653046-000012     203653006904708013062BATTERIES AA  CARD-OF-40000001000+00001314+00000+0001T   00001314+0000001717          1400 KL6312               2BZ
203653002203653077-000323     203653006001023677563G/BAG 25X32CM E/DAY FLO0000001000+00001578+00000+0001T   00001578+0000001717          1400 KL6112               2BZ
203653003203653031-000858     203653006001023852175P/FRAME BROWN 20X25CM  0000001000+00005262+00000+0001T   00005262+0000001717          1400 KL6510               2BZ
203653004203653112-116069     203653006003000535064TCS CARRIER BAG JUMBO  0000001000+00000048+00000+0001T   00000048+0000001717          1400 KL6090               2BZ
203654000203654               203654               170213OR     1400+00000+OR0000001753+0000001753+000000000+000000246+0000001990+0000000009+I20000000000+0000001990+Z
203654001203654078-000030     203654006003000151141YAMAYO SUPERGLUE 8g    0000001000+00001753+00000+0001T   00001753+0000001718          1400 KL6810               2BZ
203655000203655               203655               170213OR     1400+00000+OR0000035551+0000035551+000000000+000004985+0000040536+0000000000+I40000040536+0000000000+Z
203655001203655006-000339     203655006003000090556GLOW WRISTBAND         0000010000+00001490+00000+0001T   00001490+0000001721          1400 KL6131               2BZ
203655002203655200-000111     203655006003000676668PICNIC CUPS DOME 300ml 0000001000+00003507+00000+0001T   00003507+0000001721          1400 KL6214               2BZ
203655003203655563-000317-G   203655006001023776341SERVIETTES BRIGHT ASSTD0000001000+00002630+00000+0001T   00002630+0000001721          1400 KL6214               2BZ
203655004203655080-000500     203655006001023846211CARD&ENV 6PK GLITTER   0000001000+00001753+00000+0001T   00001753+0000001721          1400 KL6112               2BZ
203655005203655006-000230     203655006003000573998STRAW PARTY MOUSTACHE  0000002000+00002630+00000+0001T   00002630+0000001721          1400 KL6131               2BZ
203655006203655200-000095     203655006001023802231PICNIC PLATES 10PC     0000001000+00003069+00000+0001T   00003069+0000001721          1400 KL6214               2BZ
203655007203655112-116069     203655006003000535064TCS CARRIER BAG JUMBO  0000001000+00000048+00000+0001T   00000048+0000001721          1400 KL6090               2BZ
203655008203655089-000501     203655006003000622900KEY CHAIN LIGHT LASER  0000002000+00002192+00000+0001T   00002192+0000001721          1400 KL6205               2BZ
203656000203656               203656               170213OR     1400+00000+OR0000003945+0000003945+000000000+000000553+0000004490+0000000008+I20000000000+0000004490+Z
203656001203656077-000457     203656006003000285662G/BAG METALLIC JMB SOL 0000001000+00001753+00000+0001T   00001753+0000001721          1400 KL6112               2BZ
203656002203656080-000127     203656006003000424351VALENTINES DAY 36x24CM 0000001000+00002192+00000+0001T   00002192+0000001721          1400 KL6112               2BZ
203657000203657               203657               170213OR     1400+00000+OR0000010085+0000010085+000000000+000001413+0000011490+0000000008+I20000000000+0000011490+Z
203657001203657366-000255     203657006001023918413DRESS UP TIARA CROWN   0000001000+00003069+00000+0001T   00003069+0000001722          1400 KL6131               2BZ
203657002203657262-000700     203657006003000013319DIE CAST 7PC FARM PLAY 0000001000+00007016+00000+0001T   00007016+0000001722          1400 KL6710               2BZ
203658000203658               203658               170213OR     1400+00000+OR0000001578+0000001578+000000000+000000221+0000001790+0000000009+I20000000000+0000001790+Z
203658001203658077-000315     203658006003000181186GIFT-BAG 20x28cm MATT  0000001000+00001578+00000+0001T   00001578+0000001722          1400 KL6112               2AZ
203659000203659               203659               170213OR     1400+00000+OR0000020173+0000020173+000000000+000002825+0000022998+0000000000+I40000022998+0000000000+Z
203659001203659004-079100     203659006003000604913USB POWER BANK 2400MAH 0000001000+00011402+00000+0001T   00012279+0008191723          1400 KL6310               2AZ
203659002203659004-071262     203659006003000234981COMPUTER MOUSE RUGBY 6 0000001000+00008771+00000+0001T   00008771+0000001723          1400 KL6310               2AZ
203660000203660               203660               170213OR     1400+00000+OR0000000876+0000000876+000000000+000000123+0000000990+0000000009+I20000000000+0000000990+Z
203660001203660077-000011-F   203660006001023808431TISSUE-WRAP BLUE/LILAC 0000001000+00000876+00000+0001T   00000876+0000001739          1400 KL6112               2AZ
203661000203661               203661               170213OR     1400+00000+OR0000006139+0000006139+000000000+000000860+0000006990+0000000009+I20000000000+0000006990+Z
203661001203661368-000265     203661006001023750914PLUSH BEAR 23CM ASSTD C0000001000+00006139+00000+0001T   00006139+0000001739          1400 KL6745               2AZ
203662000203662               203662               170213OR     1400+00000+OR0000017542+0000017542+000000000+000002456+0000019990+0000000008+I20000000000+0000019990+Z
203662001203662368-000161     203662006003000167760PLUSH BEAR BABY ASSTD  0000001000+00017542+00000+0001T   00017542+0000001740          1400 KL6745               2AZ
203663000203663               203663               170213OR     1400+00000+OR0000001578+0000001578+000000000+000000221+0000001790+0000000009+I20000000000+0000001790+Z
203663001203663077-000303     203663006001023593757GIFT-BAG PAPER MED     0000001000+00001578+00000+0001T   00001578+0000001741          1400 KL6112               2AZ
203664000203664               203664               170213OR     1400+00000+OR0000002630+0000002630+000000000+000000369+0000002999+0000000000+I40000002999+0000000000+Z
203664001203664562-000504     203664006001023619327EDU CUBE RUBIX         0000001000+00002630+00000+0001T   00002630+0000001744          1400 KL6755               2AZ
203665000203665               203665               170213OR     1400+00000+OR0000011447+0000011447+000000000+000001603+0000013050+0000000000+I40000013050+0000000000+Z
203665001203665079-013052     203665000795229385143CHALK S/WALK 15PCS ASST0000001000+00004385+00000+0001T   00004385+0000001746          1400 KL6130               2AZ
203665002203665079-000286     203665006001023797032FINGER-PAINT 4PCE      0000001000+00003507+00000+0001T   00003507+0000001746          1400 KL6130               2AZ
203665003203665079-104303     203665006003000186259SKETCH PAD A3   48 PAGE0000001000+00003507+00000+0001T   00003507+0000001746          1400 KL6130               2AZ
203665004203665112-116069     203665006003000535064TCS CARRIER BAG JUMBO  0000001000+00000048+00000+0001T   00000048+0000001746          1400 KL6090               2AZ
203666000203666               203666               170213OR     1400+00000+OR0000011082+0000011082+000000000+000001553+0000012630+0000000005+I20000000000+0000012630+Z
203666001203666112-116038     203666006009681820246TCS CARRIER BAG MIDI   0000001000+00000035+00000+0001T   00000035+0000001747          1400 KL6090               2AZ
203666002203666903-000082     203666006001704014892SWT MINI WINE GUMS 100G0000001000+00001753+00000+0001T   00001753+0000001747          1400 KL6150               2AZ
203666003203666903-000517     203666006001704012768SWT STRAWS FIZZY CHERRY0000001000+00001227+00000+0001T   00001227+0000001747          1400 KL6150               2AZ
203666004203666903-000095     203666006001704011495SWT SPECKLED-EGGS 100G 0000001000+00002104+00000+0001T   00002104+0000001747          1400 KL6150               2AZ
203666005203666018-030000     203666006003000421060MUG OCCASIONS LOVE 2PCE0000001000+00004385+00000+0001T   00004385+0000001747          1400 KL6515               2AZ
203666006203666077-000303     203666006001023593757GIFT-BAG PAPER MED     0000001000+00001578+00000+0001T   00001578+0000001747          1400 KL6112               2AZ
203667000203667               203667               170213OR     1400+00000+OR0000006840-0000006840-000000000+000000958-0000007800-0000000002+I20000000000+0000007800-Z
203667001203667031-000858     203667006001023852175P/FRAME BROWN 20X25CM  0000001000-00005262+00000+0001T   00005262+0000001748          1400 KL65102IC            2 Z
203667002203667077-000323     203667006001023677563G/BAG 25X32CM E/DAY FLO0000001000-00001578+00000+0001T   00001578+0000001748          1400 KL61122IC            2 Z
203668000203668               203668               170213OR     1400+00000+OR0000001578+0000001578+000000000+000000221+0000001790+0000000009+I20000000000+0000001790+Z
203668001203668077-000303     203668006001023593757GIFT-BAG PAPER MED     0000001000+00001578+00000+0001T   00001578+0000001750          1400 KL6112               2AZ
203669000203669               203669               170213OR     1400+00000+OR0000011224+0000011224+000000000+000001572+0000012796+0000000000+I40000012796+0000000000+Z
203669001203669077-000315     203669006003000181186GIFT-BAG 20x28cm MATT  0000001000+00001578+00000+0001T   00001578+0000001753          1400 KL6112               2AZ
203669002203669018-005009     203669006001023725608MUG W/PLUSH-BEAR LOVE  0000001000+00003507+00000+0001T   00003507+0000001753          1400 KL6515               2AZ
203669003203669368-000067     203669006003000667864PLUSH REINDEER 20cm    0000001000+00006139+00000+0001T   00006139+0000001753          1400 KL6745               2AZ
203670000203670               203670               170213OR     1400+00000+OR0000005262+0000005262+000000000+000000737+0000005990+0000000009+I20000000000+0000005990+Z
203670001203670103-000474     203670006003000630363BAMBOO FLOWER BASKET   0000001000+00005262+00000+0001T   00005262+0000001753          1400 KL6300               2AZ
203671000203671               203671               170213OR     1400+00000+OR0000003542+0000003542+000000000+000000496+0000004038+0000000000+I40000004038+0000000000+Z
203671001203671018-000136     203671006001023659026MUG OCC LOVE W/PLUSH   0000001000+00003507+00000+0001T   00003507+0000001755          1400 KL6515               2AZ
203671002203671112-116038     203671006009681820246TCS CARRIER BAG MIDI   0000001000+00000035+00000+0001T   00000035+0000001755          1400 KL6090               2AZ
203672000203672               203672               170213OR     1400+00000+OR0000008819+0000008819+000000000+000001235+0000010050+0000000004+I20000000000+0000010050+Z
203672001203672112-116069     203672006009681820277TCS CARRIER BAG JUMBO  0000001000+00000048+00000+0001T   00000048+0000001755          1400 KL6090               2AZ
203672002203672031-000924     203672006001023669964P/FRAME COLLAGE PL     0000001000+00008771+00000+0001T   00008771+0000001755          1400 KL6510               2AZ
203673000203673               203673               170213OR     1400+00000+OR0000009998+0000009998+000000000+000001400+0000011390+0000000008+I20000000000+0000011390+Z
203673001203673903-000111     203673006001704006378SWT LIQUORICE-TWISTS   0000001000+00001227+00000+0001T   00001227+0000001756          1400 KL6150               2AZ
203673002203673031-000924     203673006001023669964P/FRAME COLLAGE PL     0000001000+00008771+00000+0001T   00008771+0000001756          1400 KL6510               2AZ
203674000203674               203674               170213OR     1400+00000+OR0000000874+0000000874+000000000+000000124+0000000990+0000000008+I20000000000+0000000990+Z
203674001203674080-000133-A   203674006003000647019MINI VALENTINES CARD   0000002000+00000437+00000+0001T   00000437+0000001757          1400 KL6112               2AZ
203675000203675               203675               170213OR     1400+00000+OR0000000876+0000000876+000000000+000000123+0000000990+0000000009+I20000000000+0000000990+Z
203675001203675089-000192-A   203675006001023901774KEY-CHAIN ACRYLIC      0000001000+00000876+00000+0001T   00000876+0000001757          1400 KL6205               2AZ
203676000203676               203676               170213OR     1400+00000+OR0000001314+0000001314+000000000+000000184+0000001498+0000000000+I40000001498+0000000000+Z
203676001203676077-000407     203676006003000145096G/BAG PP 19X26X8CM     0000001000+00001314+00000+0001T   00001314+0000001759          1400 KL6112               2AZ
203677000203677               203677               170213OR     1400+00000+OR0000003331+0000003331+000000000+000000467+0000003790+0000000008+I20000000000+0000003790+Z
203677001203677024-000036     203677006001023477002MEASURING-JUG 500ml    0000001000+00001578+00000+0001T   00001578+0000001759          1400 KL6300               2AZ
203677002203677903-000211     203677006002099001238SWT GS MALLOW ICE CREAM0000001000+00001753+00000+0001T   00001753+0000001759          1400 KL6150               2AZ
203678000203678               203678               170213OR     1400+00000+OR0000011793+0000011793+000000000+000001654+0000013447+0000000000+I40000013447+0000000000+Z
203678001203678031-005853     203678006003000442416P/FRAME WDN TWIN HEARTS0000001000+00003507+00000+0001T   00003507+0000001802          1400 KL6510               2AZ
203678002203678566-000009     203678006003000180943STICKER-BOOK HOLOGRAM  0000001000+00001753+00000+0001T   00001753+0000001802          1400 KL6130               2AZ
203678003203678903-000123     203678006925925909280SWEET GS MINI MALLOWS  0000001000+00000876+00000+0001T   00000876+0000001802          1400 KL6150               2AZ
203678004203678566-000007     203678006001023761187S/BOOK SUPER VALUE     0000002000+00001753+00000+0001T   00001753+0000001802          1400 KL6130               2AZ
203678005203678007-000206     203678006009635830215X/PAD 80-SHEETS PUNCHED0000001000+00001227+00000+0001T   00001227+0000001802          1400 KL6130               2AZ
203678006203678903-000220     203678006001704007368SWT JELLY BEANS 60G    0000001000+00000876+00000+0001T   00000876+0000001802          1400 KL6150               2AZ
203678007203678112-116069     203678006009681820277TCS CARRIER BAG JUMBO  0000001000+00000048+00000+0001T   00000048+0000001802          1400 KL6090               2AZ
203679000203679               203679               170213OR     1400+00000+OR0000015478+0000015478+000000000+000002169+0000017647+0000000000+I40000017647+0000000000+Z
203679001203679079-000341     203679006920705495519FELT-TIP PENS 12PCE    0000001000+00001753+00000+0001T   00001753+0000001804          1400 KL6130               2AZ
203679002203679112-116069     203679006009681820277TCS CARRIER BAG JUMBO  0000001000+00000048+00000+0001T   00000048+0000001804          1400 KL6090               2AZ
203679003203679903-000087     203679006001704000161SWT SPECKLED-EGGS 50G  0000001000+00001139+00000+0001T   00001139+0000001804          1400 KL6150               2AZ
203679004203679158-008936     203679006001023653758PAPER-TOWEL-HOLDER FLWR0000001000+00002192+00000+0001T   00002192+0000001804          1400 KL6300               2AZ
203679005203679077-000303     203679006001023593757GIFT-BAG PAPER MED     0000001000+00001578+00000+0001T   00001578+0000001804          1400 KL6112               2AZ
203679006203679084-000309     203679006001023905277MANICURE-SET 8PCE G/BOX0000001000+00004385+00000+0001T   00004385+0000001804          1400 KL6200               2AZ
203679007203679903-000494     203679006001704009911SWT GUMMY TEENY TEDDIES0000001000+00000876+00000+0001T   00000876+0000001804          1400 KL6150               2AZ
203679008203679562-000520     203679006003000112777EDU BLOCKS WDN ALPHABET0000001000+00003507+00000+0001T   00003507+0000001804          1400 KL6755               2AZ
203680000203680               203680               170213OR     1400+00000+OR0000008288+0000008288+000000000+000001162+0000009450+0000000000+I40000009450+0000000000+Z
203680001203680079-014152     203680006003000253074ART+CRAFT PK50 ASSTD   0000001000+00003069+00000+0001T   00003069+0000001806          1400 KL6130               2AZ
203680002203680200-003024     203680006001023657299REFUSE BAGS 20PCE BLACK0000001000+00001753+00000+0001T   00001753+0000001806          1400 KL6214               2AZ
203680003203680080-000127     203680006003000424351VALENTINES DAY 36x24CM 0000001000+00002192+00000+0001T   00002192+0000001806          1400 KL6112               2AZ
203680004203680112-116069     203680006009681820277TCS CARRIER BAG JUMBO  0000001000+00000048+00000+0001T   00000048+0000001806          1400 KL6090               2AZ
203680005203680304-001011     203680006001023806727FLWR ROSE RED W/BEAR   0000002000+00000613+00000+0001T   00000788+0006471806          1400 KL6510               2AZ
A17021300                                          09492242ORSLAVE 2                       KL63IC
A17021301                                          10030202ORSLAVE 2                       KL63IC
A17021302                                          10141946ORSLAVE 2                       KL63IC
M17021301                              IT          ORLAST SALES NUMNER ON SLAVE 2-203680             THANKS
M17021391                              CASH        ORSLAVE 2                       Z-REPORT No.   592TOTAL (Sales - Refunds)          11544.82       CASH TO BE BANKED                 3924.10       DEBIT CARDS                          0.00       CREDIT CARDS                      7597.72       Z-READING                        11521.82       AIRTIME DEBIT CARD SALES             0.00       AIRTIME CARD SALES                   0.00       OVERS/UNDERS                         0.00       AIRTIME CASH SALES                   0.00       GIFT CARDS                           0.00       GIFT CARD CASH SALES                 0.00       STAFF-REFRESHMENTS                  22.99       ROUNDING                             0.01       T O T A L  CASH PAYOUTS             23.00                                                                                                                                                                                                                                                      Z
M17021392                              CASH        ORABSENT                                                                                                                                                                                          ANNUAL LEAVE                                                                                                                                                                                    DAY OFF                                                                                                                                                                                         COMMENTS                                                                                                                                                                                                                                                                                                                                                                                       Z
Y17021300                                          OR00000001025196+000148
ZOR17021320153 SLAVE 2      SALES DATA                     NEXT INVOICE NO.  203681 0592
X OR Slave 2 First invoice 203531 170213 Last invoice 203680 170213 Next invoice 203681 Total number of records 000000551 clbackup completed 20:15:39
