109124000109124               109124               170213OS     1400+00000+OS0000008099+0000008099+000000000+000001136+0000009235+0000000000+I40000009235+0000000000+Z
109124001109124174-008028     109124006009654960825TRAVEL JARS 4-PACK     0000001000+00001928+00000+0001T   00001928+0000000943          1400 PF2205               1AZ
109124002109124006-000120     109124006001023346889BALLOONS 10PC MIX COL  0000001000+00001753+00000+0001T   00001753+0000000943          1400 PF2131               1AZ
109124003109124084-078824     109124006003000385676NAIL FILES EMERY 24PC  0000001000+00001753+00000+0001T   00001753+0000000943          1400 PF2200               1AZ
109124004109124563-000317-G   109124006001023776341SERVIETTES BRIGHT ASSTD0000001000+00002630+00000+0001T   00002630+0000000943          1400 PF2214               1AZ
109124005109124112-116038     109124006009681820246TCS CARRIER BAG MIDI   0000001000+00000035+00000+0001T   00000035+0000000943          1400 PF2090               1AZ
109125000109125               109125               170213OS     1400+00000+OS0000015461+0000015461+000000000+000002169+0000017630+0000000000+I20000000000+0000017630+Z
109125001109125007-000209     109125006001023582102NOTE STICKY FILE MARKER0000001000+00001314+00000+0001T   00001314+0000001100          1400 PF2130               1AZ
109125002109125262-000626     109125006003000510580CAR MDC JEEP W/TRAILER 0000001000+00005262+00000+0001T   00005262+0000001100          1400 PF2710               1AZ
109125003109125262-000415     109125006003000013265DIE CAST TRANSPORTERS  0000001000+00002630+00000+0001T   00002630+0000001100          1400 PF2710               1AZ
109125004109125903-000849     109125008692806080083SWT SNACK BISCUIT 70g  0000001000+00000613+00000+0001T   00000613+0000001100          1400 PF2150               1AZ
109125005109125903-000087     109125006001704000161SWT SPECKLED-EGGS 50G  0000001000+00001139+00000+0001T   00001139+0000001100          1400 PF2150               1AZ
109125006109125079-000123     109125006003000589746ART+CRAFT ENGRAVING ART0000001000+00002630+00000+0001T   00002630+0000001100          1400 PF2130               1AZ
109125007109125903-000012     109125006002099007308SWT MALLOW S/BERRY     0000002000+00000437+00000+0001T   00000437+0000001100          1400 PF2150               1AZ
109125008109125903-000843     109125008693029031067SWT GUMMY JELAXY 80G   0000001000+00000964+00000+0001T   00000964+0000001100          1400 PF2150               1AZ
109125009109125112-116038     109125006009681820246TCS CARRIER BAG MIDI   0000001000+00000035+00000+0001T   00000035+0000001100          1400 PF2090               1AZ
109126000109126               109126               170213OS     1400+00000+OS0000007926+0000007926+000000000+000001110+0000009036+0000000000+I40000009036+0000000000+Z
109126001109126566-000317     109126006003000524204STICKER TAPE 2PCS      0000001000+00003507+00000+0001T   00003507+0000001106          1400 PF2130               1AZ
109126002109126566-000068     109126006003000418046POP UP LOVE 2 ASSTD    0000002000+00002192+00000+0001T   00002192+0000001106          1400 PF2130               1AZ
109126003109126112-116038     109126006009681820246TCS CARRIER BAG MIDI   0000001000+00000035+00000+0001T   00000035+0000001106          1400 PF2090               1AZ
109127000109127               109127               170213OS     1400+00000+OS0000002892+0000002892+000000000+000000406+0000003290+0000000008+I20000000000+0000003290+Z
109127001109127007-000723     109127006003000226078MEMO BOOK W/PEN 100SHTS0000001000+00001753+00000+0001T   00001753+0000001113          1400 PF2130               1AZ
109127002109127903-000087     109127006001704000161SWT SPECKLED-EGGS 50G  0000001000+00001139+00000+0001T   00001139+0000001113          1400 PF2150               1AZ
109128000109128               109128               170213OS     1400+00000+OS0000003331+0000003331+000000000+000000467+0000003798+0000000000+I40000003798+0000000000+Z
109128001109128566-000031     109128006003000283910STICKER BK TEACHER STIC0000001000+00002192+00000+0001T   00002192+0000001115          1400 PF2130               1AZ
109128002109128903-000087     109128006001704000161SWT SPECKLED-EGGS 50G  0000001000+00001139+00000+0001T   00001139+0000001115          1400 PF2150               1AZ
109129000109129               109129               170213OS     1400+00000+OS0000007890+0000007890+000000000+000001107+0000008997+0000000000+I40000008997+0000000000+Z
109129001109129361-000296     109129006001023750402DOLL 27cm GLITZY/ANGEL 0000003000+00002630+00000+0001T   00002630+0000001120          1400 PF2725               1AZ
109130000109130               109130               170213OS     1400+00000+OS0000008451+0000008451+000000000+000001185+0000009630+0000000006+I20000000000+0000009630+Z
109130001109130018-000127     109130006001023380289MUG OCC STRAIGHT LOVE  0000001000+00001578+00000+0001T   00001753+0006471122          1400 PF2515               1AZ
109130002109130089-000220     109130006003000677368KEY CHAIN+PEN+KNIFE    0000001000+00003069+00000+0001T   00003069+0000001122          1400 PF2205               1AZ
109130003109130903-000087     109130006001704000161SWT SPECKLED-EGGS 50G  0000001000+00001139+00000+0001T   00001139+0000001122          1400 PF2150               1AZ
109130004109130030-000037     109130006003000430482PLAQUE GLS MOM W/FLOWER0000001000+00002630+00000+0001T   00002630+0000001122          1400 PF2505               1AZ
109130005109130112-116038     109130006009681820246TCS CARRIER BAG MIDI   0000001000+00000035+00000+0001T   00000035+0000001122          1400 PF2090               1AZ
109131000109131               109131               170213OS     1400+00000+OS0000000613+0000000613+000000000+000000086+0000000690+0000000009+I20000000000+0000000690+Z
109131001109131007-000555     109131006001023848239MEMO-PAD MINI LOVE     0000001000+00000613+00000+0001T   00000613+0000001214          1400 PF2130               1AZ
109132000109132               109132               170213OS     1400+00000+OS0000003975+0000003975+000000000+000000560+0000004530+0000000005+I20000000000+0000004530+Z
109132001109132903-000200     109132006009826020234SWT CHOC RP CHOCO 23G  0000005000+00000788+00000+0001T   00000788+0000001217          1400 PF2150               1AZ
109132002109132112-116038     109132006009681820246TCS CARRIER BAG MIDI   0000001000+00000035+00000+0001T   00000035+0000001217          1400 PF2090               1AZ
109133000109133               109133               170213OS     1400+00000+OS0000006138+0000006138+000000000+000000860+0000006998+0000000000+I40000006998+0000000000+Z
109133001109133031-000848     109133006001023851901P/FRAME COLLAGE 2ASSTD 0000001000+00004385+00000+0001T   00004385+0000001220          1400 PF2510               1AZ
109133002109133077-000309     109133006001023608604GIFT-BAG 25X32CM GLOSS 0000001000+00001753+00000+0001T   00001753+0000001220          1400 PF2112               1AZ
109134000109134               109134               170213OS     1400+00000+OS0000006622+0000006622+000000000+000000929+0000007551+0000000000+I40000007551+0000000000+Z
109134001109134077-000316     109134006001023609731GIFT-BAG 25X32CM MATT  0000001000+00001753+00000+0001T   00001753+0000001251          1400 PF2112               1AZ
109134002109134566-000362     109134006003000583065STICKER LETTER & NUMBER0000001000+00001753+00000+0001T   00001753+0000001251          1400 PF2130               1AZ
109134003109134080-000127     109134006003000424351VALENTINES DAY 36x24CM 0000001000+00002192+00000+0001T   00002192+0000001251          1400 PF2112               1AZ
109134004109134566-000200     109134006003000384174STICKER PUFFY NEON     0000001000+00000876+00000+0001T   00000876+0000001251          1400 PF2130               1AZ
109134005109134112-116069     109134006009681820277TCS CARRIER BAG JUMBO  0000001000+00000048+00000+0001T   00000048+0000001251          1400 PF2090               1AZ
109135000109135               109135               170213OS     1400+00000+OS0000001839+0000001839+000000000+000000258+0000002097+0000000000+I40000002097+0000000000+Z
109135001109135007-000555     109135006001023848239MEMO-PAD MINI LOVE     0000003000+00000613+00000+0001T   00000613+0000001319          1400 PF2130               1AZ
109136000109136               109136               170213OS     1400+00000+OS0000002628+0000002628+000000000+000000368+0000002990+0000000006+I20000000000+0000002990+Z
109136001109136077-000407     109136006003000145096G/BAG PP 19X26X8CM     0000001000+00001314+00000+0001T   00001314+0000001320          1400 PF2112               1AZ
109136002109136903-000844     109136005010478432567SWT CANDY DL LUV HEARTS0000001000+00001314+00000+0001T   00001314+0000001320          1400 PF2150               1AZ
109137000109137               109137               170213OS     1400+00000+OS0000001226+0000001226+000000000+000000172+0000001398+0000000000+I40000001398+0000000000+Z
109137001109137077-000321     109137006001023677501GIFT-BAG 11X14CM E/D FL0000002000+00000613+00000+0001T   00000613+0000001322          1400 PF2112               1AZ
109138000109138               109138               170213OS     1400+00000+OS0000003331+0000003331+000000000+000000467+0000003790+0000000008+I20000000000+0000003790+Z
109138001109138077-000316     109138006001023609731GIFT-BAG 25X32CM MATT  0000001000+00001753+00000+0001T   00001753+0000001329          1400 PF2112               1AZ
109138002109138018-000127     109138006001023380289MUG OCC STRAIGHT LOVE  0000001000+00001578+00000+0001T   00001753+0006471329          1400 PF2515               1AZ
109139000109139               109139               170213OS     1400+00000+OS0000017184+0000017184+000000000+000002409+0000019593+0000000000+I40000019593+0000000000+Z
109139001109139903-000194     109139006009826020616SWT CHOC RP LOLLY 25G  0000001000+00001314+00000+0001T   00001314+0000001344          1400 PF2150               1AZ
109139002109139077-000299-A   109139006003000670888GIFT-BAG PAPER JMB LOVE0000001000+00001753+00000+0001T   00001753+0000001344          1400 PF2112               1AZ
109139003109139080-000133-A   109139006003000647019MINI VALENTINES CARD   0000001000+00000437+00000+0001T   00000437+0000001344          1400 PF2112               1AZ
109139004109139040-000103     109139000694202201862C/HOLDER-SET 5PC W/TRAY0000001000+00011402+00000+0001T   00013157+0008191344          1400 PF2510               1AZ
109139005109139903-000087     109139006001704000161SWT SPECKLED-EGGS 50G  0000002000+00001139+00000+0001T   00001139+0000001344          1400 PF2150               1AZ
109140000109140               109140               170213OS     1400+00000+OS0000001227+0000001227+000000000+000000172+0000001390+0000000009+I20000000000+0000001390+Z
109140001109140077-000322     109140006001023677532GIFT-BAG 18X23CM E/D FL0000001000+00001227+00000+0001T   00001227+0000001345          1400 PF2112               1AZ
109141000109141               109141               170213OS     1400+00000+OS0000007485+0000007485+000000000+000001049+0000008534+0000000000+I40000008534+0000000000+Z
109141001109141089-000030     109141006003000575671K/CHAIN LOVE MTL ASSTD 0000001000+00001753+00000+0001T   00001753+0000001346          1400 PF2205               1AZ
109141002109141030-000030-A   109141006003000249305PLAQUE GLASS LOVE      0000001000+00003069+00000+0001T   00003069+0000001346          1400 PF2505               1AZ
109141003109141566-000451     109141006001023788443STICKERS GLITTER ASSTD 0000001000+00001314+00000+0001T   00001753+0008151346          1400 PF2130               1AZ
109141004109141077-000310     109141006001023608635GIFT-BAG 18X23CM GLOSS 0000001000+00001314+00000+0001T   00001314+0000001346          1400 PF2112               1AZ
109141005109141112-116038     109141006009681820246TCS CARRIER BAG MIDI   0000001000+00000035+00000+0001T   00000035+0000001346          1400 PF2090               1AZ
109142000109142               109142               170213OS     1400+00000+OS0000004032+0000004032+000000000+000000565+0000004590+0000000007+I20000000000+0000004590+Z
109142001109142080-000127     109142006003000424351VALENTINES DAY 36x24CM 0000001000+00002192+00000+0001T   00002192+0000001347          1400 PF2112               1AZ
109142002109142903-000521     109142006001704009652SWT GUMMY SOFT GUMS    0000001000+00000876+00000+0001T   00000876+0000001347          1400 PF2150               1AZ
109142003109142903-000843     109142008693029031067SWT GUMMY JELAXY 80G   0000001000+00000964+00000+0001T   00000964+0000001347          1400 PF2150               1AZ
109143000109143               109143               170213OS     1400+00000+OS0000002192+0000002192+000000000+000000307+0000002490+0000000009+I20000000000+0000002490+Z
109143001109143080-000127     109143006003000424351VALENTINES DAY 36x24CM 0000001000+00002192+00000+0001T   00002192+0000001347          1400 PF2112               1AZ
109144000109144               109144               170213OS     1400+00000+OS0000002278+0000002278+000000000+000000319+0000002590+0000000007+I20000000000+0000002590+Z
109144001109144077-000315     109144006003000181186GIFT-BAG 20x28cm MATT  0000001000+00001578+00000+0001T   00001578+0000001428          1400 PF2112               1AZ
109144002109144566-002000     109144000721129013206STICKERS CRYSTAL ASSTD 0000001000+00000700+00000+0001T   00000700+0000001428          1400 PF2130               1AZ
109145000109145               109145               170213OS     1400+00000+OS0000007629+0000007629+000000000+000001069+0000008690+0000000008+I20000000000+0000008690+Z
109145001109145018-050000     109145006003000412679MUG OCC LOVE TWIN BEAR 0000001000+00006139+00000+0001T   00006139+0000001535          1400 PF2515               1AZ
109145002109145077-000299     109145006003000395576G/BAG 32x25cm LRG LOVE 0000001000+00001490+00000+0001T   00001490+0000001535          1400 PF2112               1AZ
109146000109146               109146               170213OS     1400+00000+OS0000002192+0000002192+000000000+000000307+0000002490+0000000009+I20000000000+0000002490+Z
109146001109146080-000127     109146006003000424351VALENTINES DAY 36x24CM 0000001000+00002192+00000+0001T   00002192+0000001535          1400 PF2112               1AZ
109147000109147               109147               170213OS     1400+00000+OS0000006618+0000006618+000000000+000000931+0000007540+0000000009+I20000000000+0000007540+Z
109147001109147304-001204     109147006001023737984FLOWER OCC. TEDDY/ROSES0000003000+00001402+00000+0001T   00001490+0006471537          1400 PF2510               1AZ
109147002109147903-000200     109147006009826020234SWT CHOC RP CHOCO 23G  0000003000+00000788+00000+0001T   00000788+0000001537          1400 PF2150               1AZ
109147003109147112-116069     109147006009681820277TCS CARRIER BAG JUMBO  0000001000+00000048+00000+0001T   00000048+0000001537          1400 PF2090               1AZ
109148000109148               109148               170213OS     1400+00000+OS0000001227+0000001227+000000000+000000172+0000001390+0000000009+I20000000000+0000001390+Z
109148001109148077-000322     109148006001023677532GIFT-BAG 18X23CM E/D FL0000001000+00001227+00000+0001T   00001227+0000001601          1400 PF2112               1AZ
109149000109149               109149               170213OS     1400+00000+OS0000013637+0000013637+000000000+000001912+0000015540+0000000009+I20000000000+0000015540+Z
109149001109149903-004951     109149006002580020328SWT MALLOW MINI M/SHAKE0000001000+00001227+00000+0001T   00001227+0000001604          1400 PF2150               1AZ
109149002109149368-000265     109149006001023750914PLUSH BEAR 23CM ASSTD C0000001000+00006139+00000+0001T   00006139+0000001604          1400 PF2745               1AZ
109149003109149903-000200     109149006009826020234SWT CHOC RP CHOCO 23G  0000001000+00000788+00000+0001T   00000788+0000001604          1400 PF2150               1AZ
109149004109149903-000297     109149006001704002950SWT MS WILD BERRY 50G  0000001000+00000876+00000+0001T   00000876+0000001604          1400 PF2150               1AZ
109149005109149089-060027     109149006003000245871KEY-CHAIN HEART 6X6cm  0000001000+00003069+00000+0001T   00003069+0000001604          1400 PF2205               1AZ
109149006109149077-000299     109149006003000395576G/BAG 32x25cm LRG LOVE 0000001000+00001490+00000+0001T   00001490+0000001604          1400 PF2112               1AZ
109149007109149112-116069     109149006009681820277TCS CARRIER BAG JUMBO  0000001000+00000048+00000+0001T   00000048+0000001604          1400 PF2090               1AZ
109150000109150               109150               170213OS     1400+00000+OS0000002192+0000002192+000000000+000000307+0000002490+0000000009+I20000000000+0000002490+Z
109150001109150200-000025-A   109150006925406841054BAG ZIPPERSEAL 15PC    0000001000+00002192+00000+0001T   00002192+0000001606          1400 PF2214               1AZ
109151000109151               109151               170213OS     1400+00000+OS0000000876+0000000876+000000000+000000123+0000000990+0000000009+I20000000000+0000000990+Z
109151001109151047-000505     109151006009636901976PLUG-ADAPTOR 2-PIN     0000001000+00000876+00000+0001T   00000876+0000001621          1400 PF2880               1AZ
109152000109152               109152               170213OS     1400+00000+OS0000014776+0000014776+000000000+000002070+0000016846+0000000000+I40000016846+0000000000+Z
109152001109152080-000111     109152006003000252695CARD&ENVELPE - MUSICAL 0000001000+00001753+00000+0001T   00001753+0000001623          1400 PF2112               1AZ
109152002109152361-000125     109152006003000602018DOLL SML 23cm FASHION  0000001000+00005262+00000+0001T   00005262+0000001623          1400 PF2725               1AZ
109152003109152018-000136     109152006001023659026MUG OCC LOVE W/PLUSH   0000001000+00003507+00000+0001T   00003507+0000001623          1400 PF2515               1AZ
109152004109152903-000194     109152006009826020616SWT CHOC RP LOLLY 25G  0000002000+00001314+00000+0001T   00001314+0000001623          1400 PF2150               1AZ
109152005109152018-000127     109152006001023380289MUG OCC STRAIGHT LOVE  0000001000+00001578+00000+0001T   00001753+0006471623          1400 PF2515               1AZ
109152006109152112-116069     109152006009681820277TCS CARRIER BAG JUMBO  0000001000+00000048+00000+0001T   00000048+0000001623          1400 PF2090               1AZ
109153000109153               109153               170213OS     1400+00000+OS0000009029+0000009029+000000000+000001265+0000010294+0000000000+I40000010294+0000000000+Z
109153001109153018-050000     109153006003000412679MUG OCC LOVE TWIN BEAR 0000001000+00006139+00000+0001T   00006139+0000001639          1400 PF2515               1AZ
109153002109153018-000177     109153006001023797513MUG MINI LOVE ASSTD    0000002000+00000700+00000+0001T   00000700+0000001639          1400 PF2515               1AZ
109153003109153077-000299     109153006003000395576G/BAG 32x25cm LRG LOVE 0000001000+00001490+00000+0001T   00001490+0000001639          1400 PF2112               1AZ
109154000109154               109154               170213OS     1400+00000+OS0000006167+0000006167+000000000+000000866+0000007033+0000000000+I40000007033+0000000000+Z
109154001109154903-000087     109154006001704000161SWT SPECKLED-EGGS 50G  0000001000+00001139+00000+0001T   00001139+0000001653          1400 PF2150               1AZ
109154002109154903-000521     109154006001704009652SWT GUMMY SOFT GUMS    0000001000+00000876+00000+0001T   00000876+0000001653          1400 PF2150               1AZ
109154003109154903-000087     109154006001704000161SWT SPECKLED-EGGS 50G  0000001000+00001139+00000+0001T   00001139+0000001653          1400 PF2150               1AZ
109154004109154903-000481     109154006001704007481SWT MOO MILK-SHAKES 60G0000001000+00000876+00000+0001T   00000876+0000001653          1400 PF2150               1AZ
109154005109154903-000200     109154006009826020234SWT CHOC RP CHOCO 23G  0000001000+00000788+00000+0001T   00000788+0000001653          1400 PF2150               1AZ
109154006109154903-000194     109154006009826020616SWT CHOC RP LOLLY 25G  0000001000+00001314+00000+0001T   00001314+0000001653          1400 PF2150               1AZ
109154007109154112-116038     109154006009681820246TCS CARRIER BAG MIDI   0000001000+00000035+00000+0001T   00000035+0000001653          1400 PF2090               1AZ
109155000109155               109155               170213OS     1400+00000+OS0000010557+0000010557+000000000+000001480+0000012037+0000000000+I40000012037+0000000000+Z
109155001109155082-007581     109155006003000465767SUNGLASSES DESIGNER    0000001000+00002630+00000+0001T   00002630+0000001654          1400 PF2160               1AZ
109155002109155366-002195     109155006001023990549DRESS UP WINGS FEATHER 0000001000+00005262+00000+0001T   00005262+0000001654          1400 PF2131               1AZ
109155003109155077-000251     109155006003000639106GIFT-DECOR RIBBON      0000001000+00002630+00000+0001T   00002630+0000001654          1400 PF2112               1AZ
109155004109155112-116038     109155006009681820246TCS CARRIER BAG MIDI   0000001000+00000035+00000+0001T   00000035+0000001654          1400 PF2090               1AZ
109156000109156               109156               170213OS     1400+00000+OS0000011450+0000011450+000000000+000001604+0000013054+0000000000+I40000013054+0000000000+Z
109156001109156368-000637     109156006001023874092PLUSH BEAR SLEEPING LOV0000001000+00011402+00000+0001T   00012279+0006471706          1400 PF2745               1AZ
109156002109156112-116069     109156006009681820277TCS CARRIER BAG JUMBO  0000001000+00000048+00000+0001T   00000048+0000001706          1400 PF2090               1AZ
109157000109157               109157               170213OS     1400+00000+OS0000000876+0000000876+000000000+000000123+0000000990+0000000009+I20000000000+0000000990+Z
109157001109157077-000314     109157006003000181148GIFT-BAG 11X14CM MATT  0000001000+00000876+00000+0001T   00000876+0000001708          1400 PF2112               1AZ
109158000109158               109158               170213OS     1400+00000+OS0000002839+0000002839+000000000+000000399+0000003238+0000000000+I40000003238+0000000000+Z
109158001109158007-000610     109158006009685851017DIARY HOMEWORK UNDATED 0000002000+00001402+00000+0001T   00001402+0000001711          1400 PF2130               1AZ
109158002109158112-116038     109158006009681820246TCS CARRIER BAG MIDI   0000001000+00000035+00000+0001T   00000035+0000001711          1400 PF2090               1AZ
109159000109159               109159               170213OS     1400+00000+OS0000021049+0000021049+000000000+000002947+0000023990+0000000006+I20000000000+0000023990+Z
109159001109159077-000934     109159006003000409921G/WRAP 700mmx5m BIRTHDA0000001000+00003507+00000+0001T   00003507+0000001715          1400 PF2112               1AZ
109159002109159040-001000     109159006003000552580C/HANDLE SET 5 CUPS    0000001000+00017542+00000+0001T   00017542+0000001715          1400 PF2510               1AZ
109160000109160               109160               170213OS     1400+00000+OS0000003548+0000003548+000000000+000000499+0000004040+0000000007+I20000000000+0000004040+Z
109160001109160071-000013     109160006003000535354BOARD DUSTER           0000001000+00002630+00000+0001T   00002630+0000001720          1400 PF2130               1AZ
109160002109160071-000012     109160006001177101006CHALK COLOUR 12PCE     0000001000+00000481+00000+0001T   00000481+0000001720          1400 PF2130               1AZ
109160003109160071-000212     109160006009608641190CHALK WHITE 12PCE      0000001000+00000437+00000+0001T   00000437+0000001720          1400 PF2130               1AZ
109161000109161               109161               170213OS     1400+00000+OS0000002980+0000002980+000000000+000000418+0000003390+0000000008+I20000000000+0000003390+Z
109161001109161019-071611     109161006003000513642PEBBLES W/GEM 10g CLEAR0000002000+00001490+00000+0001T   00001490+0000001736          1400 PF2510               1AZ
109162000109162               109162               170213OS     1400+00000+OS0000006570+0000006570+000000000+000000920+0000007490+0000000000+I20000000000+0000007490+Z
109162001109162903-000844     109162005010478432567SWT CANDY DL LUV HEARTS0000005000+00001314+00000+0001T   00001314+0000001739          1400 PF2150               1AZ
109163000109163               109163               170213OS     1400+00000+OS0000017542+0000017542+000000000+000002456+0000019998+0000000000+I40000019998+0000000000+Z
109163001109163002-010403     109163006001023203854JAFFLE-IRON ALUM. H/HOU0000001000+00017542+00000+0001T   00017542+0000001740          1400 PF2300               1AZ
109164000109164               109164               170213OS     1400+00000+OS0000005290+0000005290+000000000+000000745+0000006030+0000000005+I20000000000+0000006030+Z
109164001109164039-000021     109164006003000285907C/TAPERED 25CM M/SILVER0000005000+00001051+00000+0001T   00001051+0000001741          1400 PF2510               1AZ
109164002109164112-116038     109164006009681820246TCS CARRIER BAG MIDI   0000001000+00000035+00000+0001T   00000035+0000001741          1400 PF2090               1AZ
109165000109165               109165               170213OS     1400+00000+OS0000004822+0000004822+000000000+000000676+0000005490+0000000008+I20000000000+0000005490+Z
109165001109165200-003024     109165006001023657299REFUSE BAGS 20PCE BLACK0000001000+00001753+00000+0001T   00001753+0000001748          1400 PF2214               1AZ
109165002109165038-092233     109165006003000328925TABLE-MAT N/SLIP ASST  0000001000+00003069+00000+0001T   00003507+0008191748          1400 PF2300               1AZ
109166000109166               109166               170213OS     1400+00000+OS0000006139+0000006139+000000000+000000860+0000006990+0000000009+I20000000000+0000006990+Z
109166001109166084-000369     109166006003000594467NAIL MANICURE SET 6PCE 0000001000+00006139+00000+0001T   00006139+0000001751          1400 PF2200               1AZ
109167000109167               109167               170213OS     1400+00000+OS0000012845+0000012845+000000000+000001800+0000014645+0000000000+I40000014645+0000000000+Z
109167001109167018-000130     109167006001023867537MUG OCC LOVE MINI+HEART0000002000+00003507+00000+0001T   00003507+0000001800          1400 PF2515               1AZ
109167002109167304-001204     109167006001023737984FLOWER OCC. TEDDY/ROSES0000001000+00001402+00000+0001T   00001490+0006471800          1400 PF2510               1AZ
109167003109167077-000407     109167006003000145096G/BAG PP 19X26X8CM     0000002000+00001314+00000+0001T   00001314+0000001800          1400 PF2112               1AZ
109167004109167018-000108     109167006001023380265MUG NOVELTY ICON ASST  0000001000+00001753+00000+0001T   00001753+0000001800          1400 PF2515               1AZ
109167005109167112-116069     109167006009681820277TCS CARRIER BAG JUMBO  0000001000+00000048+00000+0001T   00000048+0000001800          1400 PF2090               1AZ
109168000109168               109168               170213OS     1400+00000+OS0000008417+0000008417+000000000+000001179+0000009596+0000000000+I40000009596+0000000000+Z
109168001109168368-000175     109168006003000270316PLUSH BEAR 4 ASSTD 18CM0000001000+00006139+00000+0001T   00006139+0000001802          1400 PF2745               1AZ
109168002109168077-000303     109168006001023593757GIFT-BAG PAPER MED     0000001000+00001578+00000+0001T   00001578+0000001802          1400 PF2112               1AZ
109168003109168903-000126     109168006002099003591SWT ZILLIONS MINT 50G  0000001000+00000700+00000+0001T   00000700+0000001802          1400 PF2150               1AZ
109169000109169               109169               170213OS     1400+00000+OS0000017566+0000017566+000000000+000002464+0000020030+0000000000+I40000020030+0000000000+Z
109169001109169083-000049     109169004891035200024CIG-LIGHTER DISPOSABLE 0000001000+00000437+00000+0001T   00000437+0000001804          1400 PF2315               1AZ
109169002109169079-013099     109169006003000081875ART+CRAFT EYES ASSTD   0000002000+00001753+00000+0001T   00001753+0000001804          1400 PF2130               1AZ
109169003109169903-000844     109169005010478432567SWT CANDY DL LUV HEARTS0000001000+00001314+00000+0001T   00001314+0000001804          1400 PF2150               1AZ
109169004109169560-000020     109169006003000653270ANIMALS ASSTD SET      0000001000+00006139+00000+0001T   00006139+0000001804          1400 PF2745               1AZ
109169005109169077-000011-E   109169006001023808646TISSUE-WRAP PINK 10PCE 0000001000+00000876+00000+0001T   00000876+0000001804          1400 PF2112               1AZ
109169006109169089-000030     109169006003000575671K/CHAIN LOVE MTL ASSTD 0000001000+00001753+00000+0001T   00001753+0000001804          1400 PF2205               1AZ
109169007109169077-000472     109169006003000330133G-BAG DESGNR LRG 25X32 0000001000+00001753+00000+0001T   00001753+0000001804          1400 PF2112               1AZ
109169008109169112-116038     109169006009681820246TCS CARRIER BAG MIDI   0000001000+00000035+00000+0001T   00000035+0000001804          1400 PF2090               1AZ
109169009109169077-000900     109169006003000410446G/WRAP 700mmx1m ANIMAL 0000001000+00001753+00000+0001T   00001753+0000001804          1400 PF2112               1AZ
M17021301                              IT          OSATT IT DEPT                                     LAST CASH SLIP ON SLAVE 1                       SLIP NO 109169                                  THANKS OS
M17021391                              CASH        OSSLAVE 1                       Z-REPORT No.   603TOTAL (Sales - Refunds)           3551.58       CASH TO BE BANKED                 1511.50       DEBIT CARDS                          0.00       CREDIT CARDS                      2040.08       Z-READING                         3551.58       AIRTIME DEBIT CARD SALES             0.00       AIRTIME CARD SALES                   0.00       OVERS/UNDERS                         0.00       AIRTIME CASH SALES                   0.00       GIFT CARDS                           0.00       GIFT CARD CASH SALES                 0.00       T O T A L  CASH PAYOUTS              0.00                                                                                                                                                                                                                                                                                                                                                      Z
M17021392                              CASH        OSABSENT                                                                                                                                                                                          ANNUAL LEAVE                                                                                                                                                                                    DAY OFF                                                                                                                                                                                         COMMENTS                                                                                                                                                                                                                                                                                                                                                                                       Z
Y17021300                                          OS00000000311653+000046
ZOS17021320153 SLAVE 1      SALES DATA                     NEXT INVOICE NO.  109170 0603
X OS Slave 1 First invoice 109124 170213 Last invoice 109169 170213 Next invoice 109170 Total number of records 000000182 clbackup completed 20:15:45
