203478000203478               203478               170213OS     1400+00000+OS0000017542+0000017542+000000000+000002456+0000019998+0000000000+I40000019998+0000000000+Z
203478001203478072-020242     203478006003000053728PET BED COTTON TEXTILE 0000002000+00008771+00000+0001T   00008771+0000000934          1400 KX9870               2DZ
203479000203479               203479               170213OS     1400+00000+OS0000014033+0000014033+000000000+000001965+0000015998+0000000000+I40000015998+0000000000+Z
203479001203479027-000230     203479006001023606198MOP COMPLETE WONDERMOP 0000001000+00008771+00000+0001T   00008771+0000000940          1400 KX9212               2DZ
203479002203479104-000500     203479006003000621392BASKET PL CLEANING CADY0000001000+00005262+00000+0001T   00005262+0000000940          1400 KX9210               2DZ
203480000203480               203480               170213OS     1400+00000+OS0000001753+0000001753+000000000+000000246+0000001990+0000000009+I20000000000+0000001990+Z
203480001203480078-000030     203480006003000151141YAMAYO SUPERGLUE 8g    0000001000+00001753+00000+0001T   00001753+0000000958          1400 KX9810               2DZ
203481000203481               203481               170213OS     1400+00000+OS0000002717+0000002717+000000000+000000381+0000003090+0000000008+I20000000000+0000003090+Z
203481001203481077-000245     203481006001023759214GIFT-RIBBON METALLICx2 0000001000+00001227+00000+0001T   00001227+0000001010          1400 KX9112               2DZ
203481002203481028-000796     203481006001023812094SKEWERS 25cm 50PCE 4mm 0000001000+00001490+00000+0001T   00001490+0000001010          1400 KX9305               2DZ
203482000203482               203482               170213OS     1400+00000+OS0000004383+0000004383+000000000+000000615+0000004990+0000000008+I20000000000+0000004990+Z
203482001203482007-000551     203482006001023848079NOTE-PAD SHOP-LIST ASST0000001000+00001753+00000+0001T   00001753+0000001010          1400 KX9130               2DZ
203482002203482007-000534     203482006001023847836NOTE-BOOK H/C ASSTD    0000001000+00002630+00000+0001T   00002630+0000001010          1400 KX9130               2DZ
203483000203483               203483               170213OS     1400+00000+OS0000005609+0000005609+000000000+000000786+0000006390+0000000005+I20000000000+0000006390+Z
203483001203483903-000194     203483006009826020616SWT CHOC RP LOLLY 25G  0000001000+00001314+00000+0001T   00001314+0000001030          1400 KX9150               2DZ
203483002203483903-000200     203483006009826020234SWT CHOC RP CHOCO 23G  0000001000+00000788+00000+0001T   00000788+0000001030          1400 KX9150               2DZ
203483003203483018-000136     203483006001023659026MUG OCC LOVE W/PLUSH   0000001000+00003507+00000+0001T   00003507+0000001030          1400 KX9515               2DZ
203484000203484               203484               170213OS     1400+00000+OS0000005295+0000005295+000000000+000000742+0000006037+0000000000+I40000006037+0000000000+Z
203484001203484567-011344     203484006003000630714BK COLOURING THERAPY 640000001000+00003507+00000+0001T   00003507+0000001054          1400 KX9757               2DZ
203484002203484071-005211     203484006003000152346CELLOTAPE MOUNTING TAPE0000001000+00001753+00000+0001T   00001753+0000001054          1400 KX9130               2DZ
203484003203484112-116038     203484006009681820246TCS CARRIER BAG MIDI   0000001000+00000035+00000+0001T   00000035+0000001054          1400 KX9090               2DZ
203485000203485               203485               170213OS     1400+00000+OS0000003506+0000003506+000000000+000000492+0000003990+0000000008+I20000000000+0000003990+Z
203485001203485491-059642     203485000078257596423INTEX ARMBAND 6-12YRS  0000002000+00001753+00000+0001T   00001753+0000001135          1400 SN6787               2AZ
203486000203486               203486               170213OS     1400+00000+OS0000021093+0000021093+000000000+000002956+0000024049+0000000000+I40000024049+0000000000+Z
203486001203486112-116069     203486006009681820277TCS CARRIER BAG JUMBO  0000001000+00000048+00000+0001T   00000048+0000001156          1400 SN6090               2AZ
203486002203486031-000857     203486006001023852144P/FRAME PL BROWN 13X18 0000001000+00003946+00000+0001T   00003946+0000001156          1400 SN6510               2AZ
203486003203486301-000015     203486006001023479907ORN SENTIMENT STONE    0000001000+00004385+00000+0001T   00004385+0000001156          1400 SN6505               2AZ
203486004203486080-000133-A   203486006003000647019MINI VALENTINES CARD   0000001000+00000437+00000+0001T   00000437+0000001156          1400 SN6112               2AZ
203486005203486105-007510     203486006003000487424STORAGE BOX CLEAR 3.75L0000001000+00006139+00000+0001T   00006139+0000001156          1400 SN6210               2AZ
203486006203486016-006509     203486006003000567355S/JAR GLS MINI LABEL   0000001000+00001753+00000+0001T   00002192+0008191156          1400 SN6300               2AZ
203486007203486368-000049     203486006003000536955PLUSH BEAR 15cm LOVE   0000001000+00004385+00000+0001T   00004385+0000001156          1400 SN6745               2AZ
203487000203487               203487               170213OS     1400+00000+OS0000003506+0000003506+000000000+000000492+0000003990+0000000008+I20000000000+0000003990+Z
203487001203487565-000888     203487006003000607846NOVELTY MESH BALL      0000002000+00001753+00000+0001T   00001753+0000001158          1400 SN6745               2AZ
203488000203488               203488               170213OS     1400+00000+OS0000006961+0000006961+000000000+000000976+0000007930+0000000007+I20000000000+0000007930+Z
203488001203488112-116038     203488006009681820246TCS CARRIER BAG MIDI   0000001000+00000035+00000+0001T   00000035+0000001208          1400 SN6090               2AZ
203488002203488079-013032     203488006003000389209SET LETTERS 2 ASSTD    0000001000+00001753+00000+0001T   00001753+0000001208          1400 SN6130               2AZ
203488003203488071-081101-A   203488006003000326549GLUE-STICK 25g BLISTER 0000001000+00000788+00000+0001T   00000788+0000001208          1400 SN6130               2AZ
203488004203488566-000051     203488006003000085422SCRAPBOOK PRNT CVR ASTD0000001000+00004385+00000+0001T   00004385+0000001208          1400 SN6130               2AZ
203489000203489               203489               170213OS     1400+00000+OS0000004763+0000004763+000000000+000000671+0000005430+0000000004+I20000000000+0000005430+Z
203489001203489112-116038     203489006009681820246TCS CARRIER BAG MIDI   0000001000+00000035+00000+0001T   00000035+0000001211          1400 SN6090               2AZ
203489002203489903-000200     203489006009826020234SWT CHOC RP CHOCO 23G  0000006000+00000788+00000+0001T   00000788+0000001211          1400 SN6150               2AZ
203490000203490               203490               170213OS     1400+00000+OS0000002630+0000002630+000000000+000000369+0000002999+0000000000+I40000002999+0000000000+Z
203490001203490079-001002     203490006003000448715CANVAS A4 WOOD MOUNTED 0000001000+00002630+00000+0001T   00002630+0000001245          1400 SN6130               2AZ
203491000203491               203491               170213OS     1400+00000+OS0000015629+0000015629+000000000+000002192+0000017820+0000000001+I20000000000+0000017820+Z
203491001203491112-116038     203491006009681820246TCS CARRIER BAG MIDI   0000001000+00000035+00000+0001T   00000035+0000001248          1400 SN6090               2AZ
203491002203491077-000314     203491006003000181148GIFT-BAG 11X14CM MATT  0000001000+00000876+00000+0001T   00000876+0000001248          1400 SN6112               2AZ
203491003203491077-000311     203491006001023608666GIFT-BAG 11X14CM GLOSS 0000004000+00000613+00000+0001T   00000613+0000001248          1400 SN6112               2AZ
203491004203491903-000200     203491006009826020234SWT CHOC RP CHOCO 23G  0000003000+00000788+00000+0001T   00000788+0000001248          1400 SN6150               2AZ
203491005203491018-000177     203491006001023797513MUG MINI LOVE ASSTD    0000002000+00000700+00000+0001T   00000700+0000001248          1400 SN6515               2AZ
203491006203491903-000194     203491006009826020616SWT CHOC RP LOLLY 25G  0000002000+00001314+00000+0001T   00001314+0000001248          1400 SN6150               2AZ
203491007203491903-000519     203491006001704012805SWT MS LIQ-O-GHETTI    0000001000+00001227+00000+0001T   00001227+0000001248          1400 SN6150               2AZ
203491008203491089-000220     203491006003000677368KEY CHAIN+PEN+KNIFE    0000001000+00003069+00000+0001T   00003069+0000001248          1400 SN6205               2AZ
203491009203491903-000917     203491004897024123077SWT NOVELTY WATCH CANDY0000001000+00001578+00000+0001T   00001578+0000001248          1400 SN6150               2AZ
203492000203492               203492               170213OS     1400+00000+OS0000006139+0000006139+000000000+000000860+0000006999+0000000000+I40000006999+0000000000+Z
203492001203492035-000001     203492006002596010566UMBRELLA LADIES W/MINI 0000001000+00006139+00000+0001T   00006139+0000001256          1400 SN6205               2AZ
203493000203493               203493               170213OS     1400+00000+OS0000005875+0000005875+000000000+000000823+0000006690+0000000008+I20000000000+0000006690+Z
203493001203493030-000031-A   203493006003000457588PLAQUE W/WORDS ASSTD   0000001000+00004385+00000+0001T   00004823+0006471258          1400 SN6505               2AZ
203493002203493077-000299     203493006003000395576G/BAG 32x25cm LRG LOVE 0000001000+00001490+00000+0001T   00001490+0000001258          1400 SN6112               2AZ
203494000203494               203494               170213OS     1400+00000+OS0000001181+0000001181+000000000+000000167+0000001340+0000000008+I20000000000+0000001340+Z
203494001203494903-000200     203494006009826020234SWT CHOC RP CHOCO 23G  0000001000+00000788+00000+0001T   00000788+0000001300          1400 SN6150               2AZ
203494002203494903-000183     203494006003000451043SWT LB HEART LOLLY     0000001000+00000393+00000+0001T   00000393+0000001300          1400 SN6150               2AZ
203495000203495               203495               170213OS     1400+00000+OS0000005515+0000005515+000000000+000000777+0000006290+0000000002+I20000000000+0000006290+Z
203495001203495903-000077     203495006939873501687SWT GS MAGIC ROCK FRUIT0000004000+00000525+00000+0001T   00000525+0000001305          1400 SN6150               2AZ
203495002203495903-002853     203495000000087108019MENTOS ROLL MINT       0000001000+00001051+00000+0001T   00001051+0000001305          1400 SN6150               2AZ
203495003203495903-000200     203495006009826020234SWT CHOC RP CHOCO 23G  0000003000+00000788+00000+0001T   00000788+0000001305          1400 SN6150               2AZ
203496000203496               203496               170213OS     1400+00000+OS0000013155+0000013155+000000000+000001843+0000014990+0000000008+I20000000000+0000014990+Z
203496001203496368-000637     203496006001023874092PLUSH BEAR SLEEPING LOV0000001000+00011402+00000+0001T   00012279+0006471306          1400 SN6745               2AZ
203496002203496077-000299-A   203496006003000670888GIFT-BAG PAPER JMB LOVE0000001000+00001753+00000+0001T   00001753+0000001306          1400 SN6112               2AZ
203497000203497               203497               170213OS     1400+00000+OS0000011221+0000011221+000000000+000001573+0000012790+0000000004+I20000000000+0000012790+Z
203497001203497028-000795     203497006001023812063SKEWERS 10cm 100PCE 3mm0000001000+00000964+00000+0001T   00000964+0000001310          1400 SN6305               2AZ
203497002203497028-000797     203497006001023812124SKEWERS 15cm 100PCE    0000001000+00000876+00000+0001T   00000876+0000001310          1400 SN6305               2AZ
203497003203497006-000208-H   203497006003000412945PINK/BLUE PLATES 23cm  0000001000+00001753+00000+0001T   00001753+0000001310          1400 SN6131               2AZ
203497004203497009-001510     203497006001023737878MELAMINE CHIP&DIP 30cm 0000002000+00003069+00000+0001T   00003069+0000001310          1400 SN6210               2AZ
203497005203497028-000796     203497006001023812094SKEWERS 25cm 50PCE 4mm 0000001000+00001490+00000+0001T   00001490+0000001310          1400 SN6305               2AZ
203498000203498               203498               170213OS     1400+00000+OS0000004908+0000004908+000000000+000000688+0000005590+0000000006+I20000000000+0000005590+Z
203498001203498050-000361-Z   203498006001023535382PADLOCK IRON 20mm CARD 0000001000+00001928+00000+0001T   00001928+0000001312          1400 SN6855               2AZ
203498002203498903-000095     203498006001704011495SWT SPECKLED-EGGS 100G 0000001000+00002104+00000+0001T   00002104+0000001312          1400 SN6150               2AZ
203498003203498903-000482     203498006001704001397SWT SOFT-MINTS 60G     0000001000+00000876+00000+0001T   00000876+0000001312          1400 SN6150               2AZ
203499000203499               203499               170213OS     1400+00000+OS0000000874+0000000874+000000000+000000124+0000000990+0000000008+I20000000000+0000000990+Z
203499001203499080-000133-A   203499006003000647019MINI VALENTINES CARD   0000001000+00000437+00000+0001T   00000437+0000001313          1400 SN6112               2AZ
203499002203499080-000133     203499006003000535613CARD&ENV MINI ASTD DSGN0000001000+00000437+00000+0001T   00000437+0000001313          1400 SN6112               2AZ
203500000203500               203500               170213OS     1400+00000+OS0000007892+0000007892+000000000+000001106+0000008998+0000000000+I40000008998+0000000000+Z
203500001203500079-013032-D   203500006003000389643RIBBONS                0000001000+00002630+00000+0001T   00002630+0000001400          1400 SN6130               2AZ
203500002203500079-001007     203500006003000682454PAINT CANVAS ROUND/OVAL0000001000+00005262+00000+0001T   00005262+0000001400          1400 SN6130               2AZ
203501000203501               203501               170213OS     1400+00000+OS0000005285+0000005285+000000000+000000743+0000006020+0000000008+I20000000000+0000006020+Z
203501001203501112-116038     203501006009681820246TCS CARRIER BAG MIDI   0000001000+00000035+00000+0001T   00000035+0000001402          1400 SN6090               2AZ
203501002203501077-000321     203501006001023677501GIFT-BAG 11X14CM E/D FL0000003000+00000613+00000+0001T   00000613+0000001402          1400 SN6112               2AZ
203501003203501018-000177     203501006001023797513MUG MINI LOVE ASSTD    0000003000+00000700+00000+0001T   00000700+0000001402          1400 SN6515               2AZ
203501004203501080-000133-A   203501006003000647019MINI VALENTINES CARD   0000003000+00000437+00000+0001T   00000437+0000001402          1400 SN6112               2AZ
203502000203502               203502               170213OS     1400+00000+OS0000003506+0000003506+000000000+000000492+0000003998+0000000000+I40000003998+0000000000+Z
203502001203502034-000713     203502006001023899507COOEY TUMBLER NON-SPILL0000002000+00001753+00000+0001T   00002630+0008151404          1400 SN6215               2AZ
203503000203503               203503               170213OS     1400+00000+OS0000011048+0000011048+000000000+000001548+0000012590+0000000006+I20000000000+0000012590+Z
203503001203503046-000012-A   203503006003000208296BATTERIES H/POWER SZ:AA0000002000+00002192+00000+0001T   00002192+0000001429          1400 SN6312               2AZ
203503002203503027-000194     203503006001246602472MOP COMPLETE           0000001000+00002279+00000+0001T   00002279+0000001429          1400 SN6212               2AZ
203503003203503027-000030     203503006003000621750MOP COTTON HEAD 160g   0000001000+00004385+00000+0001T   00004385+0000001429          1400 SN6212               2AZ
203504000203504               203504               170213OS     1400+00000+OS0000006045+0000006045+000000000+000000849+0000006890+0000000004+I20000000000+0000006890+Z
203504001203504365-008629     203504006001023494009PLAY C/PHONE B/O MUSIC 0000001000+00002630+00000+0001T   00002630+0000001432          1400 SN6725               2AZ
203504002203504033-008209     203504006001023678607MEASURING-TAPE 150cm   0000002000+00000613+00000+0001T   00000613+0000001432          1400 SN6200               2AZ
203504003203504903-000671     203504006009803358015SWT SHERBET BLUE LIPS  0000002000+00000218+00000+0001T   00000218+0000001432          1400 SN6150               2AZ
203504004203504565-000017     203504006003000672516NOVELTY TONGUE SLING   0000001000+00001753+00000+0001T   00001753+0000001432          1400 SN6745               2AZ
203505000203505               203505               170213OS     1400+00000+OS0000001578+0000001578+000000000+000000221+0000001790+0000000009+I20000000000+0000001790+Z
203505001203505077-000315     203505006003000181186GIFT-BAG 20x28cm MATT  0000001000+00001578+00000+0001T   00001578+0000001435          1400 SN6112               2AZ
203506000203506               203506               170213OS     1400+00000+OS0000002192+0000002192+000000000+000000307+0000002490+0000000009+I20000000000+0000002490+Z
203506001203506080-000127     203506006003000424351VALENTINES DAY 36x24CM 0000001000+00002192+00000+0001T   00002192+0000001436          1400 SN6112               2AZ
203507000203507               203507               170213OS     1400+00000+OS0000001753+0000001753+000000000+000000246+0000001990+0000000009+I20000000000+0000001990+Z
203507001203507080-000101     203507006003000236732CARD&ENVLPE FEMALE     0000001000+00001753+00000+0001T   00001753+0000001441          1400 SN6112               2AZ
203508000203508               203508               170213OS     1400+00000+OS0000006752+0000006752+000000000+000000946+0000007690+0000000008+I20000000000+0000007690+Z
203508001203508018-019000     203508006003000557288MUG OCC. LOVE JUMBO    0000001000+00005262+00000+0001T   00005262+0000001443          1400 SN6515               2AZ
203508002203508077-000299     203508006003000395576G/BAG 32x25cm LRG LOVE 0000001000+00001490+00000+0001T   00001490+0000001443          1400 SN6112               2AZ
203509000203509               203509               170213OS     1400+00000+OS0000004821+0000004821+000000000+000000675+0000005490+0000000006+I20000000000+0000005490+Z
203509001203509203-007000     203509006001023886040SHOT-GLASS DISPOSABLE  0000001000+00003507+00000+0001T   00003507+0000001445          1400 SN6300               2AZ
203509002203509206-000520     203509006003000620708NOVELTY BIRTHDAY CANDLE0000001000+00001314+00000+0001T   00001753+0008181445          1400 SN6321               2AZ
203510000203510               203510               170213OS     1400+00000+OS0000006612+0000006612+000000000+000000926+0000007530+0000000008+I20000000000+0000007530+Z
203510001203510301-006010     203510006001023861245ORN BEAR POLY W/JERSEY 0000001000+00002192+00000+0001T   00002192+0000001447          1400 SN6505               2AZ
203510002203510003-000141     203510006001023806758ORN FROG ON MUSHROOM   0000001000+00004385+00000+0001T   00004385+0000001447          1400 SN6505               2AZ
203510003203510112-116038     203510006009681820246TCS CARRIER BAG MIDI   0000001000+00000035+00000+0001T   00000035+0000001447          1400 SN6090               2AZ
203511000203511               203511               170213OS     1400+00000+OS0000019727+0000019727+000000000+000002765+0000022492+0000000000+I40000022492+0000000000+Z
203511001203511562-000216     203511006003000113880EDU PUSH-IN WDN BOARD  0000001000+00001753+00000+0001T   00001753+0000001450          1400 SN6755               2AZ
203511002203511369-000821     203511006003000164431BABY SHAPE-SORTER RND  0000001000+00008771+00000+0001T   00008771+0000001450          1400 SN6745               2AZ
203511003203511077-000470     203511006003000330171G-BAG DESGN SML 11X14CM0000001000+00001314+00000+0001T   00001314+0000001450          1400 SN6112               2AZ
203511004203511089-000100     203511006003000565665K/CHAIN PET LOVERS     0000001000+00002630+00000+0001T   00002630+0000001450          1400 SN6205               2AZ
203511005203511566-000028     203511006003000265541STICKER BK ASSTD 250PCE0000002000+00001753+00000+0001T   00001753+0000001450          1400 SN6130               2AZ
203511006203511566-000036     203511006003000384051STICKERS MOTIVATION    0000001000+00001753+00000+0001T   00001753+0000001450          1400 SN6130               2AZ
203512000203512               203512               170213OS     1400+00000+OS0000003944+0000003944+000000000+000000553+0000004490+0000000007+I20000000000+0000004490+Z
203512001203512018-005009     203512006001023725608MUG W/PLUSH-BEAR LOVE  0000001000+00003507+00000+0001T   00003507+0000001503          1400 SN6515               2AZ
203512002203512080-000133-A   203512006003000647019MINI VALENTINES CARD   0000001000+00000437+00000+0001T   00000437+0000001503          1400 SN6112               2AZ
203513000203513               203513               170213OS     1400+00000+OS0000003365+0000003365+000000000+000000472+0000003830+0000000007+I20000000000+0000003830+Z
203513001203513050-000261-Z   203513006001023535351PADLOCK BRS 20mm CARDED0000001000+00002630+00000+0001T   00002630+0000001517          1400 SN6855               2AZ
203513002203513018-000177     203513006001023797513MUG MINI LOVE ASSTD    0000001000+00000700+00000+0001T   00000700+0000001517          1400 SN6515               2AZ
203513003203513112-116038     203513006009681820246TCS CARRIER BAG MIDI   0000001000+00000035+00000+0001T   00000035+0000001517          1400 SN6090               2AZ
203514000203514               203514               170213OS     1400+00000+OS0000010604+0000010604+000000000+000001487+0000012091+0000000000+I40000012091+0000000000+Z
203514001203514071-081101-A   203514006003000326549GLUE-STICK 25g BLISTER 0000001000+00000788+00000+0001T   00000788+0000001520          1400 SN6130               2AZ
203514002203514566-000308     203514006003000522521STICKER TAPE 3PCS      0000001000+00002630+00000+0001T   00002630+0000001520          1400 SN6130               2AZ
203514003203514016-006509     203514006003000567355S/JAR GLS MINI LABEL   0000001000+00001753+00000+0001T   00002192+0008191520          1400 SN6300               2AZ
203514004203514566-000451     203514006001023788443STICKERS GLITTER ASSTD 0000001000+00001314+00000+0001T   00001753+0008151520          1400 SN6130               2AZ
203514005203514007-000542     203514006001023847874NOTE-BOOK H/C SKETCHPAD0000001000+00003507+00000+0001T   00003507+0000001520          1400 SN6130               2AZ
203514006203514079-009700-D   203514006003000545711PAPER SIRIO A4 RED COL.0000002000+00000306+00000+0001T   00000306+0000001520          1400 SN6130               2AZ
203515000203515               203515               170213OS     1400+00000+OS0000000876+0000000876+000000000+000000123+0000000990+0000000009+I20000000000+0000000990+Z
203515001203515038-047245     203515006001023637444PLACE-MAT DESIGNS ASSTD0000001000+00000876+00000+0001T   00000876+0000001521          1400 SN6300               2AZ
203516000203516               203516               170213OS     1400+00000+OS0000008769+0000008769+000000000+000001228+0000009997+0000000000+I40000009997+0000000000+Z
203516001203516079-000336     203516006003000670758SUPER FINE MARKER PENS 0000001000+00005262+00000+0001T   00005262+0000001529          1400 SN6130               2AZ
203516002203516007-000324     20351600600968585864125 SHEETS BRIGHTS MARLI0000001000+00003507+00000+0001T   00003507+0000001529          1400 SN6130               2AZ
203517000203517               203517               170213OS     1400+00000+OS0000002630+0000002630+000000000+000000369+0000002990+0000000009+I20000000000+0000002990+Z
203517001203517563-000317-C   203517006001023776204SERVIETTES 20PK  FLOWER0000001000+00002630+00000+0001T   00002630+0000001532          1400 SN6214               2AZ
203518000203518               203518               170213OS     1400+00000+OS0000005260+0000005260+000000000+000000737+0000005990+0000000007+I20000000000+0000005990+Z
203518001203518071-008236     203518006003000406753PENCIL-BAG 21x9x6.5cm  0000001000+00003507+00000+0001T   00003507+0000001533          1400 SN6130               2AZ
203518002203518903-000215     203518006002099001214SWT GS MALLOW TWIST PAC0000001000+00001753+00000+0001T   00001753+0000001533          1400 SN6150               2AZ
203519000203519               203519               170213OS     1400+00000+OS0000000700+0000000700+000000000+000000098+0000000790+0000000008+I20000000000+0000000790+Z
203519001203519018-000177     203519006001023797513MUG MINI LOVE ASSTD    0000001000+00000700+00000+0001T   00000700+0000001534          1400 SN6515               2AZ
203520000203520               203520               170213OS     1400+00000+OS0000006138-0000006138-000000000+000000860-0000007000-0000000002+I20000000000+0000007000-Z
203520001203520031-000848     203520006001023851901P/FRAME COLLAGE 2ASSTD 0000001000-00004385+00000+0001T   00004385+0000001535          1400 SN65101IC            2 Z
203520002203520077-000309     203520006001023608604GIFT-BAG 25X32CM GLOSS 0000001000-00001753+00000+0001T   00001753+0000001535          1400 SN61121IC            2 Z
203521000203521               203521               170213OS     1400+00000+OS0000004385+0000004385+000000000+000000614+0000004990+0000000009+I20000000000+0000004990+Z
203521001203521368-000049     203521006003000536955PLUSH BEAR 15cm LOVE   0000001000+00004385+00000+0001T   00004385+0000001539          1400 SN6745               2AZ
203522000203522               203522               170213OS     1400+00000+OS0000006134+0000006134+000000000+000000860+0000006990+0000000004+I20000000000+0000006990+Z
203522001203522077-000312     203522006001023608697GIFT-BAG 10X35CM GLOSS 0000002000+00001314+00000+0001T   00001314+0000001541          1400 SN6112               2AZ
203522002203522077-000316     203522006001023609731GIFT-BAG 25X32CM MATT  0000002000+00001753+00000+0001T   00001753+0000001541          1400 SN6112               2AZ
203523000203523               203523               170213OS     1400+00000+OS0000030570+0000030570+000000000+000004281+0000034851+0000000000+I40000034851+0000000000+Z
203523001203523112-116069     203523006009681820277TCS CARRIER BAG JUMBO  0000001000+00000048+00000+0001T   00000048+0000001545          1400 SN6090               2AZ
203523002203523077-000380     203523006003000247585GIFT-BAG 33X45CM S/COL 0000001000+00002455+00000+0001T   00002455+0000001545          1400 SN6112               2AZ
203523003203523077-000330     203523006001023745408GIFT-BAG 18X23CM WEDGE 0000001000+00001753+00000+0001T   00001753+0000001545          1400 SN6112               2AZ
203523004203523022-010611     203523006001023733191ROASTER 26cm RND 1st-GR0000001000+00026314+00000+0001T   00026314+0000001545          1400 SN6305               2AZ
203524000203524               203524               170213OS     1400+00000+OS0000014909+0000014909+000000000+000002089+0000016998+0000000000+I40000016998+0000000000+Z
203524001203524467-000019     203524006001023746832BEACH-SET 16PCE BUCKET 0000001000+00007893+00000+0001T   00007893+0000001548          1400 SN6785               2AZ
203524002203524267-000410     203524005011874004624PUZZLE 4-IN-1 MINI ASST0000001000+00007016+00000+0001T   00007016+0000001548          1400 SN6755               2AZ
203525000203525               203525               170213OS     1400+00000+OS0000014671+0000014671+000000000+000002058+0000016729+0000000000+I40000016729+0000000000+Z
203525001203525112-116038     203525006009681820246TCS CARRIER BAG MIDI   0000001000+00000035+00000+0001T   00000035+0000001604          1400 SN6090               2AZ
203525002203525566-001234     203525006003000217793STICKERS LASER ASSTD   0000003000+00001578+00000+0001T   00001578+0000001604          1400 SN6130               2AZ
203525003203525252-000011     203525006001023475190CURTN-GLIDER ACETYL x500000001000+00000876+00000+0001T   00000876+0000001604          1400 SN6810               2AZ
203525004203525252-000013     203525006001023488107CURTN-HOOK R6 ACETYLx500000003000+00000876+00000+0001T   00000876+0000001604          1400 SN6810               2AZ
203525005203525159-000043-H   203525006001023416629HOOKS ADHESIVE 3PCE SQR0000001000+00001139+00000+0001T   00001139+0000001604          1400 SN6200               2AZ
203525006203525252-000011     203525006001023475190CURTN-GLIDER ACETYL x500000001000+00000876+00000+0001T   00000876+0000001604          1400 SN6810               2AZ
203525007203525566-000028     203525006003000265541STICKER BK ASSTD 250PCE0000001000+00001753+00000+0001T   00001753+0000001604          1400 SN6130               2AZ
203525008203525200-000208     203525006003000293728BAKING ALUM FOIL 5PCE  0000001000+00002630+00000+0001T   00002630+0000001604          1400 SN6214               2AZ
203526000203526               203526               170213OS     1400+00000+OS0000002630+0000002630+000000000+000000369+0000002999+0000000000+I40000002999+0000000000+Z
203526001203526050-000889     203526006001023821102PADLOCK COMB RESETABLE 0000001000+00002630+00000+0001T   00002630+0000001606          1400 SN6855               2AZ
203527000203527               203527               170213OS     1400+00000+OS0000004383+0000004383+000000000+000000615+0000004998+0000000000+I40000004998+0000000000+Z
203527001203527018-000135     203527006003000284474MUG OCC. DAD TUBBY     0000001000+00002630+00000+0001T   00002630+0000001617          1400 SN6515               2AZ
203527002203527020-000015     203527006003000353118KITCHEN SCISSOR 3-ASSTD0000001000+00001753+00000+0001T   00001753+0000001617          1400 SN6300               2AZ
203528000203528               203528               170213OS     1400+00000+OS0000001751+0000001751+000000000+000000246+0000001990+0000000007+I20000000000+0000001990+Z
203528001203528030-000010     203528006003000084395P/DOOR HANGER 2-ASSTD  0000001000+00001314+00000+0001T   00001490+0008181618          1400 SN6505               2AZ
203528002203528080-000133-A   203528006003000647019MINI VALENTINES CARD   0000001000+00000437+00000+0001T   00000437+0000001618          1400 SN6112               2AZ
203529000203529               203529               170213OS     1400+00000+OS0000006139+0000006139+000000000+000000860+0000006999+0000000000+I40000006999+0000000000+Z
203529001203529018-005007     203529006003000515516MUG OCC. LOVE W/HEARTS 0000001000+00006139+00000+0001T   00006139+0000001620          1400 SN6515               2AZ
203530000203530               203530               170213OS     1400+00000+OS0000003066+0000003066+000000000+000000431+0000003490+0000000007+I20000000000+0000003490+Z
203530001203530028-085274     203530006001023641571BBQ LIGHTER         H&L0000001000+00002192+00000+0001T   00002192+0000001621          1400 SN6305               2AZ
203530002203530083-000049     203530004891035200024CIG-LIGHTER DISPOSABLE 0000002000+00000437+00000+0001T   00000437+0000001621          1400 SN6315               2AZ
203531000203531               203531               170213OS     1400+00000+OS0000002630+0000002630+000000000+000000369+0000002990+0000000009+I20000000000+0000002990+Z
203531001203531106-001103     203531006003000638598WATER BOTTLE 735ml     0000001000+00002630+00000+0001T   00002630+0000001627          1400 SN6210               2AZ
203532000203532               203532               170213OS     1400+00000+OS0000005297+0000005297+000000000+000000742+0000006039+0000000000+I40000006039+0000000000+Z
203532001203532018-019000     203532006003000557288MUG OCC. LOVE JUMBO    0000001000+00005262+00000+0001T   00005262+0000001631          1400 SN6515               2AZ
203532002203532112-116038     203532006009681820246TCS CARRIER BAG MIDI   0000001000+00000035+00000+0001T   00000035+0000001631          1400 SN6090               2AZ
203533000203533               203533               170213OS     1400+00000+OS0000010773+0000010773+000000000+000001510+0000012280+0000000003+I20000000000+0000012280+Z
203533001203533261-002267     203533006001023665126GUN 8-SHOT SUPER-CAP   0000003000+00001753+00000+0001T   00001753+0000001632          1400 SN6710               2AZ
203533002203533903-000865     203533006928542903532SWT FRESH BREATH BLUE  0000001000+00001314+00000+0001T   00001753+0008191632          1400 SN6150               2AZ
203533003203533261-000121     203533006001023341600GUN-CAPS 8-SHOT CARD-9 0000006000+00000700+00000+0001T   00000700+0000001632          1400 SN6710               2AZ
203534000203534               203534               170213OS     1400+00000+OS0000006138+0000006138+000000000+000000860+0000006998+0000000000+I40000006998+0000000000+Z
203534001203534018-019000     203534006003000557288MUG OCC. LOVE JUMBO    0000001000+00005262+00000+0001T   00005262+0000001634          1400 SN6515               2AZ
203534002203534077-000150-D   203534006003000054343GIFT-WRAP CELLPHANE CLR0000001000+00000876+00000+0001T   00000876+0000001634          1400 SN6112               2AZ
203535000203535               203535               170213OS     1400+00000+OS0000001751+0000001751+000000000+000000246+0000001990+0000000007+I20000000000+0000001990+Z
203535001203535080-000133     203535006003000535613CARD&ENV MINI ASTD DSGN0000001000+00000437+00000+0001T   00000437+0000001635          1400 SN6112               2AZ
203535002203535077-000310     203535006001023608635GIFT-BAG 18X23CM GLOSS 0000001000+00001314+00000+0001T   00001314+0000001635          1400 SN6112               2AZ
203536000203536               203536               170213OS     1400+00000+OS0000003506+0000003506+000000000+000000492+0000003998+0000000000+I40000003998+0000000000+Z
203536001203536077-000235     203536006003000160211GIFT-RIBBON ROLL METALC0000001000+00002630+00000+0001T   00002630+0000001639          1400 SN6112               2AZ
203536002203536077-000314     203536006003000181148GIFT-BAG 11X14CM MATT  0000001000+00000876+00000+0001T   00000876+0000001639          1400 SN6112               2AZ
203537000203537               203537               170213OS     1400+00000+OS0000002630+0000002630+000000000+000000369+0000002990+0000000009+I20000000000+0000002990+Z
203537001203537018-000129     203537006001023403353MUG OCC. LOVE V-SHAPE  0000001000+00002630+00000+0001T   00002630+0000001640          1400 SN6515               2AZ
203538000203538               203538               170213OS     1400+00000+OS0000001314+0000001314+000000000+000000184+0000001490+0000000008+I20000000000+0000001490+Z
203538001203538566-000451     203538006001023788443STICKERS GLITTER ASSTD 0000001000+00001314+00000+0001T   00001753+0008151641          1400 SN6130               2AZ
203539000203539               203539               170213OS     1400+00000+OS0000001578+0000001578+000000000+000000221+0000001799+0000000000+I40000001799+0000000000+Z
203539001203539018-000127     203539006001023380289MUG OCC STRAIGHT LOVE  0000001000+00001578+00000+0001T   00001753+0006471643          1400 SN6515               2AZ
203540000203540               203540               170213OS     1400+00000+OS0000008328+0000008328+000000000+000001166+0000009494+0000000000+I40000009494+0000000000+Z
203540001203540159-000643     203540006001023767028BACK-BRUSH ASSTD       0000001000+00003507+00000+0001T   00003507+0000001645          1400 SN6200               2AZ
203540002203540018-005035     203540006003000150700MUG NOVELTY CER 3-HNDLE0000001000+00003507+00000+0001T   00003507+0000001645          1400 SN6515               2AZ
203540003203540077-000310     203540006001023608635GIFT-BAG 18X23CM GLOSS 0000001000+00001314+00000+0001T   00001314+0000001645          1400 SN6112               2AZ
203541000203541               203541               170213OS     1400+00000+OS0000005699+0000005699+000000000+000000798+0000006497+0000000000+I40000006497+0000000000+Z
203541001203541566-000359     203541006003000582709STICKER BOOK LOVE SPARK0000001000+00002192+00000+0001T   00002192+0000001647          1400 SN6130               2AZ
203541002203541018-000136     203541006001023659026MUG OCC LOVE W/PLUSH   0000001000+00003507+00000+0001T   00003507+0000001647          1400 SN6515               2AZ
203542000203542               203542               170213OS     1400+00000+OS0000002847+0000002847+000000000+000000400+0000003240+0000000007+I20000000000+0000003240+Z
203542001203542036-000605     203542006001023158611WASHING-PEGS WDN PCK-240000001000+00001490+00000+0001T   00001490+0000001651          1400 SN6212               2AZ
203542002203542079-009702-B   203542008427973059491PAPER SIRIO A2 WHITE   0000001000-00001051+00000+0001T   00001051+0000001651          1400 SN61301IC            2 Z
203542003203542079-009700-B   203542006003000547661PAPER SIRIO A4 WHITE   0000001000+00000306+00000+0001T   00000306+0000001651          1400 SN6130               2AZ
203542004203542079-009702-D   203542008427973059354PAPER SIRIO A2 RED COL 0000002000+00001051+00000+0001T   00001051+0000001651          1400 SN6130               2AZ
203543000203543               203543               170213OS     1400+00000+OS0000000306+0000000306+000000000+000000043+0000000340+0000000009+I20000000000+0000000340+Z
203543001203543079-009700-B   203543006003000547661PAPER SIRIO A4 WHITE   0000001000+00000306+00000+0001T   00000306+0000001653          1400 SN6130               2AZ
203544000203544               203544               170213OS     1400+00000+OS0000007013+0000007013+000000000+000000983+0000007996+0000000000+I40000007996+0000000000+Z
203544001203544089-000030     203544006003000575671K/CHAIN LOVE MTL ASSTD 0000001000+00001753+00000+0001T   00001753+0000001655          1400 SN6205               2AZ
203544002203544204-000003     203544006003000593583MEMO HOLDERS POLY 4ASST0000001000+00003507+00000+0001T   00003507+0000001655          1400 SN6300               2AZ
203544003203544080-000123     203544006003000237722CARD&ENVELOPE-SYMPATHY 0000001000+00001753+00000+0001T   00001753+0000001655          1400 SN6112               2AZ
203545000203545               203545               170213OS     1400+00000+OS0000003507+0000003507+000000000+000000491+0000003990+0000000008+I20000000000+0000003990+Z
203545001203545004-071203     203545006003000183555COMPUTOR LIGHT LED USB 0000001000+00003507+00000+0001T   00003507+0000001658          1400 SN6310               2AZ
203546000203546               203546               170213OS     1400+00000+OS0000009646+0000009646+000000000+000001351+0000010990+0000000007+I20000000000+0000010990+Z
203546001203546560-000116     203546006003000592111ANIMALS FUNNY ANIMALS  0000001000+00003507+00000+0001T   00003507+0000001722          1400 SN6745               2AZ
203546002203546368-000265     203546006001023750914PLUSH BEAR 23CM ASSTD C0000001000+00006139+00000+0001T   00006139+0000001722          1400 SN6745               2AZ
203547000203547               203547               170213OS     1400+00000+OS0000001314+0000001314+000000000+000000184+0000001490+0000000008+I20000000000+0000001490+Z
203547001203547046-000012     203547006904708013062BATTERIES AA  CARD-OF-40000001000+00001314+00000+0001T   00001314+0000001723          1400 SN6312               2AZ
203548000203548               203548               170213OS     1400+00000+OS0000014678+0000014678+000000000+000002056+0000016734+0000000000+I40000016734+0000000000+Z
203548001203548112-116038     203548006009681820246TCS CARRIER BAG MIDI   0000001000+00000035+00000+0001T   00000035+0000001726          1400 SN6090               2AZ
203548002203548039-080945     203548006001023772053C/PILLAR ROUND WHITE   0000001000+00006139+00000+0001T   00006139+0000001726          1400 SN6510               2AZ
203548003203548039-080942     203548006001023669872C/PILLAR RND WHT 10X7CM0000002000+00003507+00000+0001T   00003507+0000001726          1400 SN6510               2AZ
203548004203548039-000108     203548006001023524034TEA-LITE CANDLES 8PCE  0000001000+00001490+00000+0001T   00001490+0000001726          1400 SN6510               2AZ
203549000203549               203549               170213OS     1400+00000+OS0000006577+0000006577+000000000+000000921+0000007490+0000000008+I20000000000+0000007490+Z
203549001203549018-000170     203549006001023775528MUG OCC. LOVE 2PC MINI 0000001000+00002192+00000+0001T   00002192+0000001726          1400 SN6515               2AZ
203549002203549368-000001     203549006003000097982Plush Bear 25cm        0000001000+00004385+00000+0001T   00004385+0000001726          1400 SN6745               2AZ
203550000203550               203550               170213OS     1400+00000+OS0000002227+0000002227+000000000+000000312+0000002539+0000000000+I40000002539+0000000000+Z
203550001203550018-000170     203550006001023775528MUG OCC. LOVE 2PC MINI 0000001000+00002192+00000+0001T   00002192+0000001728          1400 SN6515               2AZ
203550002203550112-116038     203550006009681820246TCS CARRIER BAG MIDI   0000001000+00000035+00000+0001T   00000035+0000001728          1400 SN6090               2AZ
203551000203551               203551               170213OS     1400+00000+OS0000009954+0000009954+000000000+000001396+0000011350+0000000000+I40000011350+0000000000+Z
203551001203551112-116069     203551006009681820277TCS CARRIER BAG JUMBO  0000001000+00000048+00000+0001T   00000048+0000001730          1400 SN6090               2AZ
203551002203551006-000800     203551006001023902801HAT CABARET 14x18cm    0000002000+00001753+00000+0001T   00001753+0000001730          1400 SN6131               2AZ
203551003203551036-000151     203551006001023810588COATHANGERS    PACK-10 0000001000+00002893+00000+0001T   00002893+0000001730          1400 SN6212               2AZ
203551004203551565-000876     203551006003000305759NOVELTY FUNKY SUNGLASS 0000001000+00003507+00000+0001T   00003507+0000001730          1400 SN6745               2AZ
203552000203552               203552               170213OS     1400+00000+OS0000000876+0000000876+000000000+000000123+0000000990+0000000009+I20000000000+0000000990+Z
203552001203552077-000151     203552006008766114676GIFT-WRAP C/PHANE ASSTD0000001000+00000876+00000+0001T   00000876+0000001731          1400 SN6112               2AZ
203553000203553               203553               170213OS     1400+00000+OS0000001227+0000001227+000000000+000000172+0000001390+0000000009+I20000000000+0000001390+Z
203553001203553077-000245     203553006001023759214GIFT-RIBBON METALLICx2 0000001000+00001227+00000+0001T   00001227+0000001739          1400 SN6112               2AZ
203554000203554               203554               170213OS     1400+00000+OS0000021831+0000021831+000000000+000003061+0000024892+0000000000+I40000024892+0000000000+Z
203554001203554903-000200     203554006009826020234SWT CHOC RP CHOCO 23G  0000001000+00000788+00000+0001T   00000788+0000001742          1400 SN6150               2AZ
203554002203554368-000040     203554006003000671786PLUSH ICONS 7.5cm      0000001000+00002630+00000+0001T   00002630+0000001742          1400 SN6745               2AZ
203554003203554903-002850     203554000000087108262MENTOS ROLL FRUIT      0000001000+00001051+00000+0001T   00001051+0000001742          1400 SN6150               2AZ
203554004203554903-000087     203554006001704000161SWT SPECKLED-EGGS 50G  0000001000+00001139+00000+0001T   00001139+0000001742          1400 SN6150               2AZ
203554005203554368-000113     203554006001023780874PLUSH BLINGED LOVE 30cm0000001000+00012279+00000+0001T   00012279+0000001742          1400 SN6745               2AZ
203554006203554077-000270     203554006003000395453GIFT-BAG PPR JMB 33X45 0000001000+00002630+00000+0001T   00002630+0000001742          1400 SN6112               2AZ
203554007203554903-000194     203554006009826020616SWT CHOC RP LOLLY 25G  0000001000+00001314+00000+0001T   00001314+0000001742          1400 SN6150               2AZ
203555000203555               203555               170213OS     1400+00000+OS0000023529+0000023529+000000000+000003301+0000026830+0000000000+I40000026830+0000000000+Z
203555001203555077-000299     203555006003000395576G/BAG 32x25cm LRG LOVE 0000001000+00001490+00000+0001T   00001490+0000001746          1400 SN6112               2AZ
203555002203555039-000026     203555006001023551610C/TAPERED 25CM M/RED   0000002000+00001051+00000+0001T   00001051+0000001746          1400 SN6510               2AZ
203555003203555040-000923     203555006001023587831CANDLE-HOLDER GLS 13.5 0000002000+00001753+00000+0001T   00001753+0000001746          1400 SN6510               2AZ
203555004203555903-000200     203555006009826020234SWT CHOC RP CHOCO 23G  0000003000+00000788+00000+0001T   00000788+0000001746          1400 SN6150               2AZ
203555005203555041-093000     203555006003000320882B/GIFT SET 4PC B/RANGE 0000002000+00007016+00000+0001T   00007016+0000001746          1400 SN6200               2AZ
203555006203555112-116038     203555006009681820246TCS CARRIER BAG MIDI   0000001000+00000035+00000+0001T   00000035+0000001746          1400 SN6090               2AZ
M17021302                              IT          OSATT IT DEPT                                     LAST CASH SLIP ON SLAVE 2                       SLIP NO 203555                                  THANKS OS
M17021391                              CASH        OSSLAVE 2                       Z-REPORT No.   605TOTAL (Sales - Refunds)           5803.76       CASH TO BE BANKED                 2379.80       DEBIT CARDS                          0.00       CREDIT CARDS                      3423.96       Z-READING                         5803.76       AIRTIME DEBIT CARD SALES             0.00       AIRTIME CARD SALES                   0.00       OVERS/UNDERS                         0.00       AIRTIME CASH SALES                   0.00       GIFT CARDS                           0.00       GIFT CARD CASH SALES                 0.00       T O T A L  CASH PAYOUTS              0.00                                                                                                                                                                                                                                                                                                                                                      Z
M17021392                              CASH        OSABSENT                                                                                                                                                                                          ANNUAL LEAVE                                                                                                                                                                                    DAY OFF                                                                                                                                                                                         COMMENTS                                                                                                                                                                                                                                                                                                                                                                                       Z
Y17021300                                          OS00000000516512+000077
ZOS17021320153 SLAVE 2      SALES DATA                     NEXT INVOICE NO.  203556 0605
X OS Slave 2 First invoice 203478 170213 Last invoice 203555 170213 Next invoice 203556 Total number of records 000000276 clbackup completed 20:15:47
