108855000108855               108855               170213OT     1400+00000+OT0000000437+0000000437+000000000+000000062+0000000490+0000000009+I20000000000+0000000490+Z
108855001108855080-000133-A   108855006003000647019MINI VALENTINES CARD   0000001000+00000437+00000+0001T   00000437+0000000942          1400 DF4112               1AZ
108856000108856               108856               170213OT     1400+00000+OT0000012313+0000012313+000000000+000001725+0000014038+0000000000+I40000014038+0000000000+Z
108856001108856567-011517     108856009781472330178BK FOOD PAR 1 MIX-100  0000001000+00006139+00000+0001T   00006139+0000000946          1400 DF4757               1AZ
108856002108856567-011516     108856009781472330147BK FOOD PAR 1 DOUGH-1000000001000+00006139+00000+0001T   00006139+0000000946          1400 DF4757               1AZ
108856003108856112-116038     108856006003000534906TCS CARRIER BAG MIDI   0000001000+00000035+00000+0001T   00000035+0000000946          1400 DF4090               1AZ
108857000108857               108857               170213OT     1400+00000+OT0000011837+0000011837+000000000+000001658+0000013495+0000000000+I40000013495+0000000000+Z
108857001108857301-085001     108857006003000297610ORN WATERBALL LOVE ASST0000001000+00004823+00000+0001T   00004823+0000000947          1400 DF4505               1AZ
108857002108857567-011434     108857009780600625308BOOK HAMLYN CAKES&BAKES0000001000+00003507+00000+0001T   00003507+0000000947          1400 DF4757               1AZ
108857003108857567-011431     108857009780600619307BOOK HAMLYN 200 DESSERT0000001000+00003507+00000+0001T   00003507+0000000947          1400 DF4757               1AZ
108858000108858               108858               170213OT     1400+00000+OT0000003507+0000003507+000000000+000000491+0000003990+0000000008+I20000000000+0000003990+Z
108858001108858562-000020     108858006003000600861EDU PLAY DOUGH 60g 4PC 0000001000+00003507+00000+0001T   00003507+0000000949          1400 DF4755               1AZ
108859000108859               108859               170213OT     1400+00000+OT0000003507+0000003507+000000000+000000491+0000003990+0000000008+I20000000000+0000003990+Z
108859001108859065-000239     108859006001023400956DRUM "BUM BUM BAND"19cm0000001000+00003507+00000+0001T   00003507+0000001014          1400 DF4745               1AZ
108860000108860               108860               170213OT     1400+00000+OT0000000876+0000000876+000000000+000000123+0000000990+0000000009+I20000000000+0000000990+Z
108860001108860087-000500     108860006003000022779RAZORS 3PC SHAPING     0000001000+00000876+00000+0001T   00001314+0008121015          1400 DF4200               1AZ
108861000108861               108861               170213OT     1400+00000+OT0000001402+0000001402+000000000+000000197+0000001590+0000000009+I20000000000+0000001590+Z
108861001108861304-001204     108861006001023737984FLOWER OCC. TEDDY/ROSES0000001000+00001402+00000+0001T   00001490+0006471016          1400 DF4510               1AZ
108862000108862               108862               170213OT     1400+00000+OT0000019292+0000019292+000000000+000002704+0000021996+0000000000+I40000021996+0000000000+Z
108862001108862200-000003     108862006003000532360DISPOSABLE BAG 100PC   0000003000+00002630+00000+0001T   00002630+0000001020          1400 DF4214               1AZ
108862002108862159-090920     108862006001023629364TOILET SOFT-SEAT LARGE 0000001000+00011402+00000+0001T   00011402+0000001020          1400 DF4200               1AZ
108863000108863               108863               170213OT     1400+00000+OT0000004415+0000004415+000000000+000000620+0000005030+0000000005+I20000000000+0000005030+Z
108863001108863903-003080     108863005907029004673SWT SNACK STIX CHOC 50g0000001000+00000876+00000+0001T   00000876+0000001021          1400 DF4150               1AZ
108863002108863112-116038     108863006003000534906TCS CARRIER BAG MIDI   0000001000+00000035+00000+0001T   00000035+0000001021          1400 DF4090               1AZ
108863003108863047-000505     108863006009636901976PLUG-ADAPTOR 2-PIN     0000004000+00000876+00000+0001T   00000876+0000001021          1400 DF4880               1AZ
108864000108864               108864               170213OT     1400+00000+OT0000000876+0000000876+000000000+000000123+0000000990+0000000009+I20000000000+0000000990+Z
108864001108864078-000025     108864008887013700064SUPERGLUE 3g 1PCE CARD 0000001000+00000876+00000+0001T   00000876+0000001021          1400 DF4810               1AZ
108865000108865               108865               170213OT     1400+00000+OT0000001753+0000001753+000000000+000000246+0000001990+0000000009+I20000000000+0000001990+Z
108865001108865046-002013-PK6 108865004897006174851BATTERY BUTTON AG13 6PC0000001000+00001753+00000+0001T   00001753+0000001021          1400 DF4312               1AZ
108866000108866               108866               170213OT     1400+00000+OT0000024115+0000024115+000000000+000003377+0000027490+0000000002+I20000000000+0000027490+Z
108866001108866031-000874-B   108866006001023798831P/FRAME WDN P/BOX 13X180000002000+00004385+00000+0001T   00004385+0000001028          1400 DF4510               1AZ
108866002108866031-000874-C   108866006001023798862P/FRAME WDN P/BOX 20X250000002000+00005700+00000+0001T   00005700+0000001028          1400 DF4510               1AZ
108866003108866080-000127     108866006003000424351VALENTINES DAY 36x24CM 0000001000+00002192+00000+0001T   00002192+0000001028          1400 DF4112               1AZ
108866004108866077-000299-A   108866006003000670888GIFT-BAG PAPER JMB LOVE0000001000+00001753+00000+0001T   00001753+0000001028          1400 DF4112               1AZ
108867000108867               108867               170213OT     1400+00000+OT0000005295+0000005295+000000000+000000743+0000006030+0000000008+I20000000000+0000006030+Z
108867001108867079-000201     108867006003000161430P/CRAYONS THERAPY 10PCE0000002000+00002630+00000+0001T   00002630+0000001119          1400 DF4130               1AZ
108867002108867112-116038     108867006003000534906TCS CARRIER BAG MIDI   0000001000+00000035+00000+0001T   00000035+0000001119          1400 DF4090               1AZ
108868000108868               108868               170213OT     1400+00000+OT0000016165+0000016165+000000000+000002265+0000018430+0000000000+I20000000000+0000018430+Z
108868001108868567-075490     108868009780799368642BK NOVEL ROMANCE AFR   0000001000+00003507+00000+0001T   00003507+0000001119          1400 DF4757               1AZ
108868002108868567-075490     108868009780799372304BK NOVEL ROMANCE AFR   0000001000+00003507+00000+0001T   00003507+0000001119          1400 DF4757               1AZ
108868003108868567-075490     108868009780799367652BK NOVEL ROMANCE AFR   0000001000+00003507+00000+0001T   00003507+0000001119          1400 DF4757               1AZ
108868004108868567-075490     108868009780799376272BK NOVEL ROMANCE AFR   0000001000+00003507+00000+0001T   00003507+0000001119          1400 DF4757               1AZ
108868005108868903-002851     108868000000087108538MENTOS ROLL STRAWBERRY 0000002000+00001051+00000+0001T   00001051+0000001119          1400 DF4150               1AZ
108868006108868112-116038     108868006003000534906TCS CARRIER BAG MIDI   0000001000+00000035+00000+0001T   00000035+0000001119          1400 DF4090               1AZ
108869000108869               108869               170213OT     1400+00000+OT0000007927+0000007927+000000000+000001110+0000009030+0000000007+I20000000000+0000009030+Z
108869001108869263-001000     108869006003000600212VEHICLE PICK UP SET    0000001000+00004385+00000+0001T   00004385+0000001139          1400 DF4710               1AZ
108869002108869262-000616     108869006001023708991CARS MDC 8PCE CITY     0000001000+00003507+00000+0001T   00003507+0000001139          1400 DF4710               1AZ
108869003108869112-116038     108869006003000534906TCS CARRIER BAG MIDI   0000001000+00000035+00000+0001T   00000035+0000001139          1400 DF4090               1AZ
108870000108870               108870               170213OT     1400+00000+OT0000012278+0000012278+000000000+000001720+0000013990+0000000008+I20000000000+0000013990+Z
108870001108870301-000013     108870006001023781604ORN SENTIMENT STONE 4-A0000001000+00006139+00000+0001T   00006139+0000001140          1400 DF4505               1AZ
108870002108870039-080960     108870006003000333998CANDLE PILLAR BALL 10CM0000001000+00006139+00000+0001T   00006139+0000001140          1400 DF4510               1AZ
108871000108871               108871               170213OT     1400+00000+OT0000000876+0000000876+000000000+000000123+0000000990+0000000009+I20000000000+0000000990+Z
108871001108871089-000192-A   108871006001023901774KEY-CHAIN ACRYLIC      0000001000+00000876+00000+0001T   00000876+0000001144          1400 DF4205               1AZ
108872000108872               108872               170213OT     1400+00000+OT0000006139+0000006139+000000000+000000860+0000006990+0000000009+I20000000000+0000006990+Z
108872001108872019-000084     108872006001023797247VASE GLASS GEOMETRIC   0000001000+00006139+00000+0001T   00006139+0000001154          1400 DF4510               1AZ
108873000108873               108873               170213OT     1400+00000+OT0000003945+0000003945+000000000+000000553+0000004490+0000000008+I20000000000+0000004490+Z
108873001108873028-085274     108873006001023641571BBQ LIGHTER         H&L0000001000+00002192+00000+0001T   00002192+0000001214          1400 DF4305               1AZ
108873002108873078-000026     108873006936198407090SUPERGLUE 3,0g GEL     0000001000+00001753+00000+0001T   00001753+0000001214          1400 DF4810               1AZ
108874000108874               108874               170213OT     1400+00000+OT0000002892+0000002892+000000000+000000406+0000003290+0000000008+I20000000000+0000003290+Z
108874001108874150-012228-H   108874006001023416773DOOR-STOPPERS SET-OF-2 0000001000+00001753+00000+0001T   00001753+0000001214          1400 DF4810               1AZ
108874002108874159-000043-H   108874006001023416629HOOKS ADHESIVE 3PCE SQR0000001000+00001139+00000+0001T   00001139+0000001214          1400 DF4200               1AZ
108875000108875               108875               170213OT     1400+00000+OT0000001753+0000001753+000000000+000000246+0000001990+0000000009+I20000000000+0000001990+Z
108875001108875079-006500     108875006001023557186GLUE GLITTER 6/10 PCE  0000001000+00001753+00000+0001T   00001753+0000001310          1400 DF4130               1AZ
108876000108876               108876               170213OT     1400+00000+OT0000006601+0000006601+000000000+000000925+0000007526+0000000000+I40000007526+0000000000+Z
108876001108876039-001023     108876006003000466337CANDLE TEA-LITE METALIC0000001000+00001753+00000+0001T   00001753+0000001337          1400 DF4510               1AZ
108876002108876018-000177     108876006001023797513MUG MINI LOVE ASSTD    0000006000+00000700+00000+0001T   00000700+0000001337          1400 DF4515               1AZ
108876003108876903-000848     108876008692806080076SWT SNACK BISCUIT 70g  0000001000+00000613+00000+0001T   00000613+0000001337          1400 DF4150               1AZ
108876004108876112-116038     108876006003000534906TCS CARRIER BAG MIDI   0000001000+00000035+00000+0001T   00000035+0000001337          1400 DF4090               1AZ
108877000108877               108877               170213OT     1400+00000+OT0000003507+0000003507+000000000+000000491+0000003990+0000000008+I20000000000+0000003990+Z
108877001108877301-085004     108877006003000420469ORN LOVE PLAQUE 21X10CM0000001000+00003507+00000+0001T   00003946+0006471338          1400 DF4505               1AZ
108878000108878               108878               170213OT     1400+00000+OT0000006136+0000006136+000000000+000000861+0000006990+0000000007+I20000000000+0000006990+Z
108878001108878103-000060     108878006001023795489BAMBOO BASKET RECT     0000002000+00002630+00000+0001T   00002630+0000001338          1400 DF4300               1AZ
108878002108878077-000151     108878006008766114676GIFT-WRAP C/PHANE ASSTD0000001000+00000876+00000+0001T   00000876+0000001338          1400 DF4112               1AZ
108879000108879               108879               170213OT     1400+00000+OT0000001575+0000001575+000000000+000000222+0000001790+0000000007+I20000000000+0000001790+Z
108879001108879903-000151     108879006009803374411SWT SML RND R/BOW LOLLY0000001000+00000525+00000+0001T   00000525+0000001341          1400 DF4150               1AZ
108879002108879903-000155     108879006009803374435SWT LOLLY I LUV U HEART0000002000+00000525+00000+0001T   00000525+0000001341          1400 DF4150               1AZ
108880000108880               108880               170213OT     1400+00000+OT0000065163+0000065163+000000000+000009128+0000074290+0000000001+I20000000000+0000074290+Z
108880001108880007-010504     108880006002923014960BLACKBOARD EASEL       0000001000+00007893+00000+0001T   00007893+0000001546          1400 DF4130               1AZ
108880003108880497-068758     108880006941057467580AIRBED DOWNY-D 137x191 0000001000+00030700+00000+0001T   00030700+0000001546          1400 DF4787               1AZ
108880005108880567-010995     108880006003000317073BK CHILDREN'S READER   0000001000+00000876+00000+0001T   00001314+0008131546          1400 DF4757               1AZ
108880006108880567-010439     108880009781770221451VICTOR MATFIELD:MY REIS0000001000+00001753+00000+0001T   00002367+0008131546          1400 DF4757               1AZ
108880007108880567-010880     108880006003000071258BOOK NON-FICTION ASSTD 0000001000+00001314+00000+0001T   00001753+0008131546          1400 DF4757               1AZ
108880008108880567-010620     108880009781472305831BK ACTIVITY ASSTD      0000001000+00001753+00000+0001T   00002630+0008131546          1400 DF4757               1AZ
108880009108880567-011120     108880009781405346481BOOK STICKER ASSTD     0000001000+00000613+00000+0001T   00000876+0008131546          1400 DF4757               1AZ
108880010108880200-000080     108880005024418420439ICE-CUBE-MAKER 336PCE  0000001000+00001753+00000+0001T   00001753+0000001546          1400 DF4214               1AZ
108880011108880047-000512-H   108880006001023657473EXT-CORD 3m DBL-J   H&H0000001000+00006578+00000+0001T   00006578+0000001546          1400 DF4880               1AZ
108880012108880071-000012     108880006001177101006CHALK COLOUR 12PCE     0000001000+00000481+00000+0001T   00000481+0000001546          1400 DF4130               1AZ
108880013108880112-116069     108880006003000535064TCS CARRIER BAG JUMBO  0000001000+00000048+00000+0001T   00000048+0000001546          1400 DF4090               1AZ
108880014108880497-068614     108880000078257686148H/PUMP HIGH-O/PUT 36cm 0000001000+00006139+00000+0001T   00006139+0000001546          1400 DF4787               1AZ
108880015108880174-000178     108880006003000576135STORAGE BASKET NON-WOVE0000001000+00005262+00000+0001T   00005262+0000001546          1400 DF4205               1AZ
108881000108881               108881               170213OT     1400+00000+OT0000004385+0000004385+000000000+000000614+0000004999+0000000000+I40000004999+0000000000+Z
108881001108881031-000001-A   108881006003000246908P/FRAME GLS LOVE 9X13cm0000001000+00004385+00000+0001T   00004385+0000001548          1400 DF4510               1AZ
108882000108882               108882               170213OT     1400+00000+OT0000001753+0000001753+000000000+000000246+0000001990+0000000009+I20000000000+0000001990+Z
108882001108882079-013099     108882006003000081875ART+CRAFT EYES ASSTD   0000001000+00001753+00000+0001T   00001753+0000001550          1400 DF4130               1AZ
108883000108883               108883               170213OT     1400+00000+OT0000010084+0000010084+000000000+000001413+0000011490+0000000007+I20000000000+0000011490+Z
108883001108883206-000420     108883006003000619504MUG NOVELTY GOLF       0000001000+00008771+00000+0001T   00008771+0000001551          1400 DF4321               1AZ
108883002108883080-000133-A   108883006003000647019MINI VALENTINES CARD   0000001000+00000437+00000+0001T   00000437+0000001551          1400 DF4112               1AZ
108883003108883077-000302     108883008010410010195GIFT-BAG 18X23CM E/D   0000001000+00000876+00000+0001T   00000876+0000001551          1400 DF4112               1AZ
108884000108884               108884               170213OT     1400+00000+OT0000002012+0000002012+000000000+000000284+0000002290+0000000006+I20000000000+0000002290+Z
108884001108884080-000133     108884006003000535613CARD&ENV MINI ASTD DSGN0000001000+00000437+00000+0001T   00000437+0000001552          1400 DF4112               1AZ
108884002108884903-000155     108884006009803374435SWT LOLLY I LUV U HEART0000003000+00000525+00000+0001T   00000525+0000001552          1400 DF4150               1AZ
108885000108885               108885               170213OT     1400+00000+OT0000026797+0000026797+000000000+000003753+0000030550+0000000000+I20000000000+0000030550+Z
108885001108885001-091415     108885006003000329113W/GLS OCC. LOVE 2PC 2800000001000+00008771+00000+0001T   00009648+0006471555          1400 DF4515               1AZ
108885002108885112-116069     108885006003000535064TCS CARRIER BAG JUMBO  0000001000+00000048+00000+0001T   00000048+0000001555          1400 DF4090               1AZ
108885003108885001-000175     108885006001023788108B/MUG GLS LOVE 380ML   0000001000+00004385+00000+0001T   00004385+0000001555          1400 DF4515               1AZ
108885004108885018-030000     108885006003000421060MUG OCCASIONS LOVE 2PCE0000002000+00004385+00000+0001T   00004385+0000001555          1400 DF4515               1AZ
108885005108885301-085001     108885006003000297610ORN WATERBALL LOVE ASST0000001000+00004823+00000+0001T   00004823+0000001555          1400 DF4505               1AZ
108886000108886               108886               170213OT     1400+00000+OT0000000525+0000000525+000000000+000000074+0000000590+0000000009+I20000000000+0000000590+Z
108886001108886002-021040     108886006001023812216PARTY-PICKS 100PCE     0000001000+00000525+00000+0001T   00000525+0000001557          1400 DF4300               1AZ
108887000108887               108887               170213OT     1400+00000+OT0000002678+0000002678+000000000+000000376+0000003050+0000000004+I20000000000+0000003050+Z
108887001108887077-000270     108887006003000395453GIFT-BAG PPR JMB 33X45 0000001000+00002630+00000+0001T   00002630+0000001608          1400 DF4112               1AZ
108887002108887112-116069     108887006003000535064TCS CARRIER BAG JUMBO  0000001000+00000048+00000+0001T   00000048+0000001608          1400 DF4090               1AZ
108888000108888               108888               170213OT     1400+00000+OT0000015026+0000015026+000000000+000002106+0000017132+0000000000+I40000017132+0000000000+Z
108888001108888567-011346     108888009781505002768BK COLOURING AND ACTVIT0000001000+00001753+00000+0001T   00001753+0000001610          1400 DF4757               1AZ
108888002108888018-000177     108888006001023797513MUG MINI LOVE ASSTD    0000001000+00000700+00000+0001T   00000700+0000001610          1400 DF4515               1AZ
108888003108888567-011407     108888009781615686629BK PUZZLE SUDOKU VOL   0000001000+00001753+00000+0001T   00001753+0000001610          1400 DF4757               1AZ
108888004108888080-000124     108888006003000297733CARD & ENV VALENTINES  0000001000+00001578+00000+0001T   00001578+0000001610          1400 DF4112               1AZ
108888005108888018-019000     108888006003000557288MUG OCC. LOVE JUMBO    0000001000+00005262+00000+0001T   00005262+0000001610          1400 DF4515               1AZ
108888006108888112-116038     108888006003000534906TCS CARRIER BAG MIDI   0000001000+00000035+00000+0001T   00000035+0000001610          1400 DF4090               1AZ
108888007108888566-000036     108888006003000384051STICKERS MOTIVATION    0000001000+00001753+00000+0001T   00001753+0000001610          1400 DF4130               1AZ
108888008108888566-000359     108888006003000582709STICKER BOOK LOVE SPARK0000001000+00002192+00000+0001T   00002192+0000001610          1400 DF4130               1AZ
108889000108889               108889               170213OT     1400+00000+OT0000006139+0000006139+000000000+000000860+0000006999+0000000000+I40000006999+0000000000+Z
108889001108889018-050000     108889006003000412679MUG OCC LOVE TWIN BEAR 0000001000+00006139+00000+0001T   00006139+0000001615          1400 DF4515               1AZ
108890000108890               108890               170213OT     1400+00000+OT0000010170+0000010170+000000000+000001424+0000011590+0000000004+I20000000000+0000011590+Z
108890001108890261-000947     108890006001023832610GUN FRICTION           0000001000+00003507+00000+0001T   00003507+0000001616          1400 DF4710               1AZ
108890002108890266-001307     108890006003000610570BOYS MARBLES 16mm 50PC 0000001000+00001578+00000+0001T   00001578+0000001616          1400 DF4710               1AZ
108890003108890564-000012     108890006001023130075BUBBLE BOTTLE MAGIC    0000001000+00000700+00000+0001T   00000700+0000001616          1400 DF4131               1AZ
108890004108890079-001001     108890006003000448593CANVAS A3 WOOD MOUNTED 0000001000+00004385+00000+0001T   00004385+0000001616          1400 DF4130               1AZ
108891000108891               108891               170213OT     1400+00000+OT0000001753+0000001753+000000000+000000246+0000001990+0000000009+I20000000000+0000001990+Z
108891001108891071-010481     108891006001023417220MAGNIFYING-GLASS 90mm-D0000001000+00001753+00000+0001T   00001753+0000001620          1400 DF4130               1AZ
108892000108892               108892               170213OT     1400+00000+OT0000001578+0000001578+000000000+000000221+0000001790+0000000009+I20000000000+0000001790+Z
108892001108892077-000303     108892006001023593757GIFT-BAG PAPER MED     0000001000+00001578+00000+0001T   00001578+0000001622          1400 DF4112               1AZ
108893000108893               108893               170213OT     1400+00000+OT0000005297+0000005297+000000000+000000742+0000006030+0000000009+I20000000000+0000006030+Z
108893001108893031-006541     108893006001023695062P/FRAME COLLAGE PL ASST0000001000+00005262+00000+0001T   00005262+0000001623          1400 DF4510               1AZ
108893002108893112-116038     108893006003000534906TCS CARRIER BAG MIDI   0000001000+00000035+00000+0001T   00000035+0000001623          1400 DF4090               1AZ
108894000108894               108894               170213OT     1400+00000+OT0000001752+0000001752+000000000+000000246+0000001990+0000000008+I20000000000+0000001990+Z
108894001108894077-000151     108894006008766114676GIFT-WRAP C/PHANE ASSTD0000002000+00000876+00000+0001T   00000876+0000001623          1400 DF4112               1AZ
108895000108895               108895               170213OT     1400+00000+OT0000003542+0000003542+000000000+000000496+0000004030+0000000008+I20000000000+0000004030+Z
108895001108895018-000136     108895006001023659026MUG OCC LOVE W/PLUSH   0000001000+00003507+00000+0001T   00003507+0000001627          1400 DF4515               1AZ
108895002108895112-116038     108895006003000534906TCS CARRIER BAG MIDI   0000001000+00000035+00000+0001T   00000035+0000001627          1400 DF4090               1AZ
108896000108896               108896               170213OT     1400+00000+OT0000003506+0000003506+000000000+000000492+0000003990+0000000008+I20000000000+0000003990+Z
108896001108896079-003007     108896006003000448487A/TUBE 75ML BROWN      0000001000+00001753+00000+0001T   00001753+0000001632          1400 DF4130               1AZ
108896002108896079-000275     108896006003000160488PAINT-BRUSHES 6PCE PRO 0000001000+00001753+00000+0001T   00001753+0000001632          1400 DF4130               1AZ
108897000108897               108897               170213OT     1400+00000+OT0000002628+0000002628+000000000+000000369+0000002990+0000000007+I20000000000+0000002990+Z
108897001108897077-000151     108897006008766114676GIFT-WRAP C/PHANE ASSTD0000003000+00000876+00000+0001T   00000876+0000001635          1400 DF4112               1AZ
108898000108898               108898               170213OT     1400+00000+OT0000014938+0000014938+000000000+000002093+0000017030+0000000001+I20000000000+0000017030+Z
108898001108898018-005009     108898006001023725608MUG W/PLUSH-BEAR LOVE  0000002000+00003507+00000+0001T   00003507+0000001637          1400 DF4515               1AZ
108898002108898301-085004     108898006003000420469ORN LOVE PLAQUE 21X10CM0000001000+00003507+00000+0001T   00003946+0006471637          1400 DF4505               1AZ
108898003108898112-116038     108898006003000534906TCS CARRIER BAG MIDI   0000001000+00000035+00000+0001T   00000035+0000001637          1400 DF4090               1AZ
108898004108898903-000087     108898006001704000161SWT SPECKLED-EGGS 50G  0000002000+00001139+00000+0001T   00001139+0000001637          1400 DF4150               1AZ
108898005108898903-000095     108898006001704011495SWT SPECKLED-EGGS 100G 0000001000+00002104+00000+0001T   00002104+0000001637          1400 DF4150               1AZ
108899000108899               108899               170213OT     1400+00000+OT0000005876+0000005876+000000000+000000823+0000006690+0000000009+I20000000000+0000006690+Z
108899001108899050-000264-Z   108899006001023777072PADLOCK BRS 38mm CARDED0000001000+00005876+00000+0001T   00005876+0000001640          1400 DF4855               1AZ
108900000108900               108900               170213OT     1400+00000+OT0000003507+0000003507+000000000+000000491+0000003990+0000000008+I20000000000+0000003990+Z
108900001108900018-000136     108900006001023659026MUG OCC LOVE W/PLUSH   0000001000+00003507+00000+0001T   00003507+0000001642          1400 DF4515               1AZ
108901000108901               108901               170213OT     1400+00000+OT0000001578+0000001578+000000000+000000221+0000001790+0000000009+I20000000000+0000001790+Z
108901001108901077-000348     108901006001023483287GIFT-BOWS 4,5cm 8PCE   0000001000+00001578+00000+0001T   00001578+0000001645          1400 DF4112               1AZ
108902000108902               108902               170213OT     1400+00000+OT0000011781+0000011781+000000000+000001653+0000013430+0000000004+I20000000000+0000013430+Z
108902001108902567-075466     108902009780263250879BK NOVEL ROMANCE       0000001000+00002630+00000+0001T   00002630+0000001647          1400 DF4757               1AZ
108902002108902567-075466     108902009780263921144BK NOVEL ROMANCE       0000001000+00002630+00000+0001T   00002630+0000001647          1400 DF4757               1AZ
108902003108902566-000858     108902006001023760975STCKRS G/OUTLINE ASSTD 0000001000+00000788+00000+0001T   00000788+0000001647          1400 DF4130               1AZ
108902004108902112-116038     108902006003000534906TCS CARRIER BAG MIDI   0000001000+00000035+00000+0001T   00000035+0000001647          1400 DF4090               1AZ
108902005108902566-000359     108902006003000582709STICKER BOOK LOVE SPARK0000001000+00002192+00000+0001T   00002192+0000001647          1400 DF4130               1AZ
108902006108902077-000297     108902006001023869814GIFT BOX OCCASIONS SQRE0000002000+00001753+00000+0001T   00001753+0000001647          1400 DF4112               1AZ
108903000108903               108903               170213OT     1400+00000+OT0000004420+0000004420+000000000+000000619+0000005030+0000000009+I20000000000+0000005030+Z
108903001108903018-030000     108903006003000421060MUG OCCASIONS LOVE 2PCE0000001000+00004385+00000+0001T   00004385+0000001650          1400 DF4515               1AZ
108903002108903112-116038     108903006003000534906TCS CARRIER BAG MIDI   0000001000+00000035+00000+0001T   00000035+0000001650          1400 DF4090               1AZ
108904000108904               108904               170213OT     1400+00000+OT0000007893+0000007893+000000000+000001106+0000008990+0000000009+I20000000000+0000008990+Z
108904001108904035-000023     108904006001023898944UMBRELLA WITH PL COVER 0000001000+00007893+00000+0001T   00007893+0000001651          1400 DF4205               1AZ
108905000108905               108905               170213OT     1400+00000+OT0000002980+0000002980+000000000+000000418+0000003398+0000000000+I40000003398+0000000000+Z
108905001108905046-000004     108905006001023606525BATTERY 9VOLT H/POWER  0000002000+00001490+00000+0001T   00001490+0000001656          1400 DF4312               1DZ
108906000108906               108906               170213OT     1400+00000+OT0000009593+0000009593+000000000+000001344+0000010937+0000000000+I40000010937+0000000000+Z
108906001108906030-000031-A   108906006003000457588PLAQUE W/WORDS ASSTD   0000002000+00004385+00000+0001T   00004823+0006471658          1400 DF4505               1AZ
108906002108906077-000010-C   108906006001023123879CREPE-PAPER RED        0000001000+00000788+00000+0001T   00000788+0000001658          1400 DF4112               1AZ
108906003108906112-116038     108906006003000534906TCS CARRIER BAG MIDI   0000001000+00000035+00000+0001T   00000035+0000001658          1400 DF4090               1AZ
108907000108907               108907               170213OT     1400+00000+OT0000001402+0000001402+000000000+000000197+0000001590+0000000009+I20000000000+0000001590+Z
108907001108907304-001204     108907006001023737984FLOWER OCC. TEDDY/ROSES0000001000+00001402+00000+0001T   00001490+0006471659          1400 DF4510               1AZ
108908000108908               108908               170213OT     1400+00000+OT0000003507+0000003507+000000000+000000491+0000003990+0000000008+I20000000000+0000003990+Z
108908001108908077-000465     108908006003000681570GIFT-BAG MTLC GLIT LRG 0000001000+00003507+00000+0001T   00003507+0000001659          1400 DF4112               1AZ
108909000108909               108909               170213OT     1400+00000+OT0000003331+0000003331+000000000+000000467+0000003790+0000000008+I20000000000+0000003790+Z
108909001108909903-000057     108909006005929000173SWT GS NOVELTY GIANT AL0000001000+00002104+00000+0001T   00002104+0000001700          1400 DF4150               1AZ
108909002108909903-000517     108909006001704012768SWT STRAWS FIZZY CHERRY0000001000+00001227+00000+0001T   00001227+0000001700          1400 DF4150               1AZ
108910000108910               108910               170213OT     1400+00000+OT0000007487+0000007487+000000000+000001050+0000008537+0000000000+I40000008537+0000000000+Z
108910001108910036-005010     108910006002580008739COATHANGER KIDDIES PL  0000001000+00002630+00000+0001T   00002630+0000001702          1400 DF4212               1AZ
108910002108910024-091103     108910006003453014307BAKING-CUP MUFFIN 50PCE0000001000+00002192+00000+0001T   00002192+0000001702          1400 DF4300               1AZ
108910003108910024-091102-B   108910006003000111725BAKING-CUP MUFFIN 40PCE0000001000+00002630+00000+0001T   00002630+0000001702          1400 DF4300               1AZ
108910004108910112-116038     108910006003000534906TCS CARRIER BAG MIDI   0000001000+00000035+00000+0001T   00000035+0000001702          1400 DF4090               1AZ
108911000108911               108911               170213OT     1400+00000+OT0000003507+0000003507+000000000+000000491+0000003990+0000000008+I20000000000+0000003990+Z
108911001108911018-000136     108911006001023659026MUG OCC LOVE W/PLUSH   0000001000+00003507+00000+0001T   00003507+0000001702          1400 DF4515               1AZ
108912000108912               108912               170213OT     1400+00000+OT0000012314+0000012314+000000000+000001725+0000014039+0000000000+I40000014039+0000000000+Z
108912001108912368-000111     108912006001023780812PLUSH BEAR/DOG 29CM    0000001000+00012279+00000+0001T   00012279+0000001703          1400 DF4745               1AZ
108912002108912112-116038     108912006003000534906TCS CARRIER BAG MIDI   0000001000+00000035+00000+0001T   00000035+0000001703          1400 DF4090               1AZ
108913000108913               108913               170213OT     1400+00000+OT0000006312+0000006312+000000000+000000885+0000007190+0000000007+I20000000000+0000007190+Z
108913001108913001-000175     108913006001023788108B/MUG GLS LOVE 380ML   0000001000+00004385+00000+0001T   00004385+0000001704          1400 DF4515               1AZ
108913002108913080-000133-A   108913006003000647019MINI VALENTINES CARD   0000001000+00000437+00000+0001T   00000437+0000001704          1400 DF4112               1AZ
108913003108913077-000452     108913006003000284986G/BAG METALLIC MED EMB 0000001000+00001490+00000+0001T   00001490+0000001704          1400 DF4112               1AZ
108914000108914               108914               170213OT     1400+00000+OT0000005295+0000005295+000000000+000000742+0000006030+0000000007+I20000000000+0000006030+Z
108914001108914018-000136     108914006001023659026MUG OCC LOVE W/PLUSH   0000001000+00003507+00000+0001T   00003507+0000001705          1400 DF4515               1AZ
108914002108914079-006500     108914006001023557186GLUE GLITTER 6/10 PCE  0000001000+00001753+00000+0001T   00001753+0000001705          1400 DF4130               1AZ
108914003108914112-116038     108914006003000534906TCS CARRIER BAG MIDI   0000001000+00000035+00000+0001T   00000035+0000001705          1400 DF4090               1AZ
108915000108915               108915               170213OT     1400+00000+OT0000001753+0000001753+000000000+000000246+0000001990+0000000009+I20000000000+0000001990+Z
108915001108915466-008889     108915006001023835376WHISTLE SPORTS+STRING  0000001000+00001753+00000+0001T   00001753+0000001705          1400 DF4785               1AZ
108916000108916               108916               170213OT     1400+00000+OT0000007890+0000007890+000000000+000001107+0000008990+0000000007+I20000000000+0000008990+Z
108916001108916006-006013     108916006001023735195PARTY-SPRAY STRING     0000003000+00002630+00000+0001T   00002630+0000001706          1400 DF4131               1AZ
108917000108917               108917               170213OT     1400+00000+OT0000001788+0000001788+000000000+000000251+0000002030+0000000009+I20000000000+0000002030+Z
108917001108917047-000508     108917006009636901983PLG EURODAPTOR 3x5A-2PN0000001000+00001753+00000+0001T   00001753+0000001707          1400 DF4880               1AZ
108917002108917112-116038     108917006003000534906TCS CARRIER BAG MIDI   0000001000+00000035+00000+0001T   00000035+0000001707          1400 DF4090               1AZ
108918000108918               108918               170213OT     1400+00000+OT0000004032+0000004032+000000000+000000566+0000004590+0000000008+I20000000000+0000004590+Z
108918001108918304-001204     108918006001023737984FLOWER OCC. TEDDY/ROSES0000001000+00001402+00000+0001T   00001490+0006471708          1400 DF4510               1AZ
108918002108918077-000270     108918006003000395453GIFT-BAG PPR JMB 33X45 0000001000+00002630+00000+0001T   00002630+0000001708          1400 DF4112               1AZ
108919000108919               108919               170213OT     1400+00000+OT0000000048+0000000048+000000000+000000007+0000000050+0000000005+I20000000000+0000000050+Z
108919001108919112-116069     108919006003000535064TCS CARRIER BAG JUMBO  0000001000+00000048+00000+0001T   00000048+0000001708          1400 DF4090               1AZ
108920000108920               108920               170213OT     1400+00000+OT0000002015+0000002015+000000000+000000283+0000002290+0000000008+I20000000000+0000002290+Z
108920001108920903-000698     108920006002099007032SWT CANDY ECLAIRS 90g  0000001000+00001139+00000+0001T   00001139+0000001712          1400 DF4150               1AZ
108920002108920903-003050     108920008024431008239SWT CHOC CONE H/NUT 25G0000001000+00000876+00000+0001T   00000876+0000001712          1400 DF4150               1AZ
108921000108921               108921               170213OT     1400+00000+OT0000010524+0000010524+000000000+000001474+0000011998+0000000000+I40000011998+0000000000+Z
108921001108921031-000924     108921006001023669964P/FRAME COLLAGE PL     0000001000+00008771+00000+0001T   00008771+0000001717          1400 DF4510               1AZ
108921002108921077-000299-A   108921006003000670888GIFT-BAG PAPER JMB LOVE0000001000+00001753+00000+0001T   00001753+0000001717          1400 DF4112               1AZ
108922000108922               108922               170213OT     1400+00000+OT0000004235+0000004235+000000000+000000593+0000004820+0000000008+I20000000000+0000004820+Z
108922001108922018-000177     108922006001023797513MUG MINI LOVE ASSTD    0000006000+00000700+00000+0001T   00000700+0000001718          1400 DF4515               1AZ
108922002108922112-116038     108922006003000534906TCS CARRIER BAG MIDI   0000001000+00000035+00000+0001T   00000035+0000001718          1400 DF4090               1AZ
108923000108923               108923               170213OT     1400+00000+OT0000016533+0000016533+000000000+000002316+0000018849+0000000000+I40000018849+0000000000+Z
108923001108923001-091415     108923006003000329113W/GLS OCC. LOVE 2PC 2800000001000+00008771+00000+0001T   00009648+0006471721          1400 DF4515               1AZ
108923002108923077-000315     108923006003000181186GIFT-BAG 20x28cm MATT  0000001000+00001578+00000+0001T   00001578+0000001721          1400 DF4112               1AZ
108923003108923018-000136     108923006001023659026MUG OCC LOVE W/PLUSH   0000001000+00003507+00000+0001T   00003507+0000001721          1400 DF4515               1AZ
108923004108923077-000351     108923006003000139033GIFT-BAG 18X23CM E/D P 0000001000+00001753+00000+0001T   00001753+0000001721          1400 DF4112               1AZ
108923005108923903-003080     108923005907029004673SWT SNACK STIX CHOC 50g0000001000+00000876+00000+0001T   00000876+0000001721          1400 DF4150               1AZ
108923006108923112-116069     108923006003000535064TCS CARRIER BAG JUMBO  0000001000+00000048+00000+0001T   00000048+0000001721          1400 DF4090               1AZ
108924000108924               108924               170213OT     1400+00000+OT0000013248+0000013248+000000000+000001857+0000015100+0000000005+I20000000000+0000015100+Z
108924001108924019-000133     108924006003000602353PLANTER TINPLATE W/HNDL0000001000+00004385+00000+0001T   00004385+0000001723          1400 DF4510               1AZ
108924002108924112-116069     108924006003000535064TCS CARRIER BAG JUMBO  0000001000+00000048+00000+0001T   00000048+0000001723          1400 DF4090               1AZ
108924003108924007-000196     108924006002324002375FILE LEVER ARCH A4     0000002000+00002630+00000+0001T   00002630+0000001723          1400 DF4130               1AZ
108924004108924112-116069     108924006003000535064TCS CARRIER BAG JUMBO  0000001000+00000048+00000+0001T   00000048+0000001723          1400 DF4090               1AZ
108924005108924077-000932     108924006003000409808G/WRAP 700mmx5m PATTERN0000001000+00003507+00000+0001T   00003507+0000001723          1400 DF4112               1AZ
108925000108925               108925               170213OT     1400+00000+OT0000002227+0000002227+000000000+000000312+0000002530+0000000009+I20000000000+0000002530+Z
108925001108925018-000170     108925006001023775528MUG OCC. LOVE 2PC MINI 0000001000+00002192+00000+0001T   00002192+0000001725          1400 DF4515               1AZ
108925002108925112-116038     108925006003000534906TCS CARRIER BAG MIDI   0000001000+00000035+00000+0001T   00000035+0000001725          1400 DF4090               1AZ
108926000108926               108926               170213OT     1400+00000+OT0000008365+0000008365+000000000+000001172+0000009530+0000000007+I20000000000+0000009530+Z
108926001108926301-085000     108926006003000674299 ORN OCC. LOVE HEARTS  0000001000+00002192+00000+0001T   00002192+0000001740          1400 DF4505               1AZ
108926002108926039-000114     108926006001023524058CANDLE T/LITE RED 3.5CM0000001000+00001753+00000+0001T   00001753+0000001740          1400 DF4510               1AZ
108926003108926001-000175     108926006001023788108B/MUG GLS LOVE 380ML   0000001000+00004385+00000+0001T   00004385+0000001740          1400 DF4515               1AZ
108926004108926112-116038     108926006003000534906TCS CARRIER BAG MIDI   0000001000+00000035+00000+0001T   00000035+0000001740          1400 DF4090               1AZ
108927000108927               108927               170213OT     1400+00000+OT0000012143+0000012143+000000000+000001703+0000013846+0000000000+I40000013846+0000000000+Z
108927001108927112-116069     108927006003000535064TCS CARRIER BAG JUMBO  0000001000+00000048+00000+0001T   00000048+0000001742          1400 DF4090               1AZ
108927002108927080-000127     108927006003000424351VALENTINES DAY 36x24CM 0000001000+00002192+00000+0001T   00002192+0000001742          1400 DF4112               1AZ
108927003108927071-003009     108927006001024011373PEN CLICK BALL+SFT GRIP0000001000+00002630+00000+0001T   00002630+0000001742          1400 DF4130               1AZ
108927004108927071-081110     108927006936198405454CORRECTION FLUID PEN   0000001000+00001490+00000+0001T   00001490+0000001742          1400 DF4130               1AZ
108927005108927301-085004     108927006003000420469ORN LOVE PLAQUE 21X10CM0000001000+00003507+00000+0001T   00003946+0006471742          1400 DF4505               1AZ
108927006108927071-000325     108927006009635844090RULER PLASTIC 30cm     0000001000+00000437+00000+0001T   00000437+0000001742          1400 DF4130               1AZ
108927007108927903-000155     108927006009803374435SWT LOLLY I LUV U HEART0000001000+00000525+00000+0001T   00000525+0000001742          1400 DF4150               1AZ
108927008108927006-000166-D   108927006003000516490BALLOONS LRG 6PC RED   0000001000+00001314+00000+0001T   00001314+0000001742          1400 DF4131               1AZ
108928000108928               108928               170213OT     1400+00000+OT0000014911+0000014911+000000000+000002088+0000016990+0000000009+I20000000000+0000016990+Z
108928001108928002-000600     108928006001023587329KITCHEN-TOOL-SET STAND 0000001000+00014911+00000+0001T   00014911+0000001742          1400 DF4300               1AZ
108929000108929               108929               170213OT     1400+00000+OT0000000048+0000000048+000000000+000000007+0000000050+0000000005+I20000000000+0000000050+Z
108929001108929112-116069     108929006003000535064TCS CARRIER BAG JUMBO  0000001000+00000048+00000+0001T   00000048+0000001743          1400 DF4090               1AZ
108930000108930               108930               170213OT     1400+00000+OT0000003067+0000003067+000000000+000000430+0000003490+0000000007+I20000000000+0000003490+Z
108930001108930903-005000     108930006002580020007SWT CT MALLOW FISH 120g0000001000+00001314+00000+0001T   00001314+0000001743          1400 DF4150               1AZ
108930002108930077-000351     108930006003000139033GIFT-BAG 18X23CM E/D P 0000001000+00001753+00000+0001T   00001753+0000001743          1400 DF4112               1AZ
108931000108931               108931               170213OT     1400+00000+OT0000005297+0000005297+000000000+000000742+0000006039+0000000000+I40000006039+0000000000+Z
108931001108931018-019000     108931006003000557288MUG OCC. LOVE JUMBO    0000001000+00005262+00000+0001T   00005262+0000001747          1400 DF4515               1AZ
108931002108931112-116038     108931006003000534906TCS CARRIER BAG MIDI   0000001000+00000035+00000+0001T   00000035+0000001747          1400 DF4090               1AZ
108932000108932               108932               170213OT     1400+00000+OT0000015522+0000015522+000000000+000002175+0000017690+0000000007+I20000000000+0000017690+Z
108932001108932077-000270     108932006003000395453GIFT-BAG PPR JMB 33X45 0000001000+00002630+00000+0001T   00002630+0000001749          1400 DF4112               1AZ
108932002108932304-001011     108932006001023806727FLWR ROSE RED W/BEAR   0000001000+00000613+00000+0001T   00000788+0006471749          1400 DF4510               1AZ
108932003108932368-000113     108932006001023780874PLUSH BLINGED LOVE 30cm0000001000+00012279+00000+0001T   00012279+0000001749          1400 DF4745               1AZ
108933000108933               108933               170213OT     1400+00000+OT0000001227+0000001227+000000000+000000172+0000001390+0000000009+I20000000000+0000001390+Z
108933001108933077-000245     108933006001023759214GIFT-RIBBON METALLICx2 0000001000+00001227+00000+0001T   00001227+0000001752          1400 DF4112               1AZ
108934000108934               108934               170213OT     1400+00000+OT0000014032+0000014032+000000000+000001966+0000015990+0000000008+I20000000000+0000015990+Z
108934001108934368-000111     108934006001023780812PLUSH BEAR/DOG 29CM    0000001000+00012279+00000+0001T   00012279+0000001753          1400 DF4745               1AZ
108934002108934077-000309     108934006001023608604GIFT-BAG 25X32CM GLOSS 0000001000+00001753+00000+0001T   00001753+0000001753          1400 DF4112               1AZ
C10888000                                          170213OT027-009032     15262190SLAVE 1     DF42IC0000000000+0000000000+0020000001000+
C10888001                                          170213OT174-000178     15312727SLAVE 1     DF42IC0000000000+0000000000+0040000001000+
M17021301                              IT          OTLAST TILL SLIP NO 108934                                                                        OT
M17021391                              CASH        OTSLAVE 1                       Z-REPORT No.   600TOTAL (Sales - Refunds)           6480.78       CASH TO BE BANKED                 4742.60       DEBIT CARDS                          0.00       CREDIT CARDS                      1738.28       Z-READING                         6480.78       AIRTIME DEBIT CARD SALES             0.00       AIRTIME CARD SALES                   0.00       OVERS/UNDERS                         0.10       AIRTIME CASH SALES                   0.00       GIFT CARDS                           0.00       GIFT CARD CASH SALES                 0.00       T O T A L  CASH PAYOUTS              0.00                                                                                                                                                                                                                                                                                                                                                      Z
M17021392                              CASH        OTABSENT                                                                                                                                                                                          ANNUAL LEAVE                                                                                                                                                                                    DAY OFF                                                                                                                                                                                         COMMENTS                                                                                                                                                                                                                                                                                                                                                                                       Z
Y17021300                                          OT00000000568833+000080
ZOT17021321143 SLAVE 1      SALES DATA                     NEXT INVOICE NO.  108935 0600
X OT Slave 1 First invoice 108855 170213 Last invoice 108934 170213 Next invoice 108935 Total number of records 000000277 clbackup completed 21:14:07
