207537000207537               207537               170213OT     1400+00000+OT0000013592+0000013592+000000000+000001904+0000015490+0000000006+I20000000000+0000015490+Z
207537001207537018-000127     207537006001023380289MUG OCC STRAIGHT LOVE  0000001000+00001578+00000+0001T   00001753+0006470908          1400 SH5515               2AZ
207537002207537304-001011     207537006001023806727FLWR ROSE RED W/BEAR   0000001000+00000613+00000+0001T   00000788+0006470908          1400 SH5510               2AZ
207537003207537001-091415     207537006003000329113W/GLS OCC. LOVE 2PC 2800000001000+00008771+00000+0001T   00009648+0006470908          1400 SH5515               2AZ
207537004207537077-000270     207537006003000395453GIFT-BAG PPR JMB 33X45 0000001000+00002630+00000+0001T   00002630+0000000908          1400 SH5112               2AZ
207538000207538               207538               170213OT     1400+00000+OT0000007893+0000007893+000000000+000001106+0000008999+0000000000+I40000008999+0000000000+Z
207538001207538301-085007     207538006003000673698ORN OCC. LOVE S/PLAQUE 0000001000+00007893+00000+0001T   00007893+0000000910          1400 SH5505               2AZ
207539000207539               207539               170213OT     1400+00000+OT0000012627+0000012627+000000000+000001769+0000014396+0000000000+I40000014396+0000000000+Z
207539001207539031-000924     207539006001023669964P/FRAME COLLAGE PL     0000001000+00008771+00000+0001T   00008771+0000000912          1400 SH5510               2AZ
207539002207539903-000155     207539006009803374435SWT LOLLY I LUV U HEART0000001000+00000525+00000+0001T   00000525+0000000912          1400 SH5150               2AZ
207539003207539018-000127     207539006001023380289MUG OCC STRAIGHT LOVE  0000001000+00001578+00000+0001T   00001753+0006470912          1400 SH5515               2AZ
207539004207539077-000299-A   207539006003000670888GIFT-BAG PAPER JMB LOVE0000001000+00001753+00000+0001T   00001753+0000000912          1400 SH5112               2AZ
207540000207540               207540               170213OT     1400+00000+OT0000008771+0000008771+000000000+000001228+0000009990+0000000009+I20000000000+0000009990+Z
207540001207540107-004505     207540006003000677177STEP STOOL FOLDABLE    0000001000+00008771+00000+0001T   00008771+0000000955          1400 SH5210               2AZ
207541000207541               207541               170213OT     1400+00000+OT0000001753+0000001753+000000000+000000246+0000001990+0000000009+I20000000000+0000001990+Z
207541001207541151-000620     207541006001023653345WIRE-BRUSH-SET SML 3PCE0000001000+00001753+00000+0001T   00001753+0000000956          1400 SH5810               2AZ
207542000207542               207542               170213OT     1400+00000+OT0000030589+0000030589+000000000+000004290+0000034879+0000000000+I40000034879+0000000000+Z
207542001207542304-001502     207542006003000035533FLWR SATIN R/BUD 55CM  0000003000+00000613+00000+0001T   00000613+0000001013          1400 SH5510               2AZ
207542002207542024-000083     207542006001023770943SIEVE FLOUR 20cm MTL-RI0000001000+00001753+00000+0001T   00001753+0000001013          1400 SH5300               2AZ
207542003207542002-003733     207542006001023849182STRAINER D/FRY 20CM    0000001000+00003069+00000+0001T   00003069+0000001013          1400 SH5300               2AZ
207542004207542159-003625     207542006001023902061TOILET-BRUSH W/STD 40cm0000001000+00005262+00000+0001T   00005262+0000001013          1400 SH5200               2AZ
207542005207542027-056191     207542006916920933134DISH-BRUSH+HOOK RECT   0000001000+00001753+00000+0001T   00001753+0000001013          1400 SH5212               2AZ
207542006207542018-000170     207542006001023775528MUG OCC. LOVE 2PC MINI 0000001000+00002192+00000+0001T   00002192+0000001013          1400 SH5515               2AZ
207542007207542027-078282     207542006001023767837SCOURER 25g SPIRAL-BALL0000001000+00000613+00000+0001T   00000613+0000001013          1400 SH5212               2AZ
207542008207542080-000133-A   207542006003000647019MINI VALENTINES CARD   0000002000+00000437+00000+0001T   00000437+0000001013          1400 SH5112               2AZ
207542009207542077-000303     207542006001023593757GIFT-BAG PAPER MED     0000001000+00001578+00000+0001T   00001578+0000001013          1400 SH5112               2AZ
207542010207542563-000318-L   207542006003000407088SERVIETTES 33cm RED    0000001000+00002192+00000+0001T   00002192+0000001013          1400 SH5214               2AZ
207542011207542306-000021-C   207542006003000567294EARBUDS 300PCE IN TUB  0000001000+00001753+00000+0001T   00001753+0000001013          1400 SH5200               2AZ
207542012207542022-002109     207542006001023501745MUG 6cm DEC            0000002000+00001227+00000+0001T   00001227+0000001013          1400 SH5305               2AZ
207542013207542001-000167     207542006001023679659TUMBLER 340ml WILLY    0000004000+00000876+00000+0001T   00000876+0000001013          1400 SH5515               2AZ
207542014207542016-009616     2075420060030004416932PC GLS SHAKERS 3-ASSTD0000001000+00001753+00000+0001T   00001753+0000001013          1400 SH5300               2AZ
207543000207543               207543               170213OT     1400+00000+OT0000005262+0000005262+000000000+000000737+0000005990+0000000009+I20000000000+0000005990+Z
207543001207543065-003642     207543006003000396405GUITAR ROCKER 2 TONE   0000001000+00005262+00000+0001T   00005262+0000001015          1400 SH5745               2AZ
207544000207544               207544               170213OT     1400+00000+OT0000001752+0000001752+000000000+000000246+0000001990+0000000008+I20000000000+0000001990+Z
207544001207544033-000106     207544006001023678027ELASTIC  6mmx3m  CARDED0000002000+00000876+00000+0001T   00000876+0000001041          1400 SH5200               2AZ
207545000207545               207545               170213OT     1400+00000+OT0000004734+0000004734+000000000+000000663+0000005390+0000000007+I20000000000+0000005390+Z
207545001207545018-000127     207545006001023380289MUG OCC STRAIGHT LOVE  0000003000+00001578+00000+0001T   00001753+0006471044          1400 SH5515               2AZ
207546000207546               207546               170213OT     1400+00000+OT0000005260+0000005260+000000000+000000738+0000005990+0000000008+I20000000000+0000005990+Z
207546001207546463-000366     207546006001023789136SWIM W/NOODLE 150cm    0000002000+00002630+00000+0001T   00002630+0000001048          1400 SH5785               2AZ
207547000207547               207547               170213OT     1400+00000+OT0000003766+0000003766+000000000+000000528+0000004290+0000000004+I20000000000+0000004290+Z
207547001207547006-000166-D   207547006003000516490BALLOONS LRG 6PC RED   0000001000+00001314+00000+0001T   00001314+0000001112          1400 SH5131               2AZ
207547002207547006-001000     207547006003000093779HELIUM BALLOON FILL    0000004000+00000613+00000+0001T   00000613+0000001112          1400 SH5131               2AZ
207548000207548               207548               170213OT     1400+00000+OT0000002980+0000002980+000000000+000000418+0000003390+0000000008+I20000000000+0000003390+Z
207548001207548077-000245     207548006001023759214GIFT-RIBBON METALLICx2 0000001000+00001227+00000+0001T   00001227+0000001115          1400 SH5112               2AZ
207548002207548076-000710-H   207548006001023426482SKI-ROPE 7mmx10m       0000001000+00001753+00000+0001T   00001753+0000001115          1400 SH5810               2AZ
207549000207549               207549               170213OT     1400+00000+OT0000009238+0000009238+000000000+000001296+0000010534+0000000000+I40000010534+0000000000+Z
207549001207549306-000006     207549006001023776440DENTAL FLOSS PICKS 50PC0000001000+00001753+00000+0001T   00001753+0000001117          1400 SH5200               2AZ
207549002207549306-001130-A   207549006003000359271FIRSTAID SUPPORT ANKLE 0000001000+00001753+00000+0001T   00001753+0000001117          1400 SH5200               2AZ
207549003207549306-001135-A   207549006003000359110FIRSTAID SUPPORT HAND  0000001000+00001314+00000+0001T   00001753+0008171117          1400 SH5200               2AZ
207549004207549306-000993     207549006003000560110FIRSTAID PLASTER 75PC  0000001000+00002630+00000+0001T   00002630+0000001117          1400 SH5200               2AZ
207549005207549306-001003     207549006003000560356BANDAGE ELASTIC 1PC    0000001000+00001753+00000+0001T   00001753+0000001117          1400 SH5200               2AZ
207549006207549112-116038     207549006003000534906TCS CARRIER BAG MIDI   0000001000+00000035+00000+0001T   00000035+0000001117          1400 SH5090               2AZ
207550000207550               207550               170213OT     1400+00000+OT0000012274+0000012274+000000000+000001721+0000013995+0000000000+I40000013995+0000000000+Z
207550001207550037-000004     207550006001023763679ASHTRAY PL TUB 8X11CM  0000003000+00001753+00000+0001T   00002192+0008191119          1400 SH5515               2AZ
207550002207550079-013109     207550006003000078912ART+CFT N/POINT 33X22CM0000001000+00004385+00000+0001T   00004385+0000001119          1400 SH5130               2AZ
207550003207550034-078810     207550006001023856838DIAPER DISPOSE-BAGSx1000000001000+00002630+00000+0001T   00002630+0000001119          1400 SH5215               2AZ
207551000207551               207551               170213OT     1400+00000+OT0000010556+0000010556+000000000+000001478+0000012030+0000000004+I20000000000+0000012030+Z
207551001207551019-000500-A   207551006003000245161VASE CER INSPIRATIONS  0000001000+00003507+00000+0001T   00003507+0000001129          1400 SH5510               2AZ
207551002207551019-000104     207551006003000658176VASE GLASSBUD 16CM     0000002000+00003507+00000+0001T   00003507+0000001129          1400 SH5510               2AZ
207551003207551112-116038     207551006003000534906TCS CARRIER BAG MIDI   0000001000+00000035+00000+0001T   00000035+0000001129          1400 SH5090               2AZ
207552000207552               207552               170213OT     1400+00000+OT0000009644+0000009644+000000000+000001352+0000010996+0000000000+I40000010996+0000000000+Z
207552001207552077-000011-C   207552006001023808523TISSUE 10xSHTS RED     0000001000+00000876+00000+0001T   00000876+0000001131          1400 SH5112               2AZ
207552002207552079-013099     207552006003000081875ART+CRAFT EYES ASSTD   0000001000+00001753+00000+0001T   00001753+0000001131          1400 SH5130               2AZ
207552003207552071-009832     207552006003000152674STATIONERY SET 4PCE    0000001000+00005262+00000+0001T   00005262+0000001131          1400 SH5130               2AZ
207552004207552071-010481     207552006001023417220MAGNIFYING-GLASS 90mm-D0000001000+00001753+00000+0001T   00001753+0000001131          1400 SH5130               2AZ
207553000207553               207553               170213OT     1400+00000+OT0000003507+0000003507+000000000+000000491+0000003990+0000000008+I20000000000+0000003990+Z
207553001207553018-005009     207553006001023725608MUG W/PLUSH-BEAR LOVE  0000001000+00003507+00000+0001T   00003507+0000001134          1400 SH5515               2AZ
207554000207554               207554               170213OT     1400+00000+OT0000007541+0000007541+000000000+000001057+0000008590+0000000008+I20000000000+0000008590+Z
207554001207554046-000011     207554004897006172994BATTERIES SIZE:AA  2PCE0000001000+00001402+00000+0001T   00001402+0000001136          1400 SH5312               2AZ
207554002207554038-047243     207554006003000532353PLACE-MAT WITH COASTERS0000001000+00006139+00000+0001T   00006139+0000001136          1400 SH5300               2AZ
207555000207555               207555               170213OT     1400+00000+OT0000005699+0000005699+000000000+000000798+0000006497+0000000000+I40000006497+0000000000+Z
207555001207555001-000175     207555006001023788108B/MUG GLS LOVE 380ML   0000001000+00004385+00000+0001T   00004385+0000001138          1400 SH5515               2AZ
207555002207555077-000310     207555006001023608635GIFT-BAG 18X23CM GLOSS 0000001000+00001314+00000+0001T   00001314+0000001138          1400 SH5112               2AZ
207556000207556               207556               170213OT     1400+00000+OT0000001753+0000001753+000000000+000000246+0000001990+0000000009+I20000000000+0000001990+Z
207556001207556078-000470     207556006007347000018SHOE-CEMENT 70ml-TIN   0000001000+00001753+00000+0001T   00001753+0000001209          1400 SH58103IC            2AZ
207557000207557               207557               170213OT     1400+00000+OT0000003542+0000003542+000000000+000000496+0000004030+0000000008+I20000000000+0000004030+Z
207557001207557079-000600     207557006003000160990ART-SHEETS FOAM ASSTD-C0000001000+00003507+00000+0001T   00003507+0000001211          1400 SH5130               2AZ
207557002207557112-116038     207557006003000534906TCS CARRIER BAG MIDI   0000001000+00000035+00000+0001T   00000035+0000001211          1400 SH5090               2AZ
207558000207558               207558               170213OT     1400+00000+OT0000019159+0000019159+000000000+000002686+0000021845+0000000000+I40000021845+0000000000+Z
207558001207558034-079078     207558006001023996565COOEY BABY MANICURE-SET0000001000+00003507+00000+0001T   00003507+0000001214          1400 SH5215               2AZ
207558002207558077-000010-D   207558006001023123886CREPE-PAPER WHITE      0000001000+00000788+00000+0001T   00000788+0000001214          1400 SH5112               2AZ
207558003207558077-000010-C   207558006001023123879CREPE-PAPER RED        0000001000+00000788+00000+0001T   00000788+0000001214          1400 SH5112               2AZ
207558004207558034-079075     207558006001023834737COOEY BATH-THERMOMETER 0000001000+00000876+00000+0001T   00001490+0008151214          1400 SH5215               2AZ
207558005207558034-079090     207558006001023855503COOEY BRUSH+COMB-SET   0000001000+00004385+00000+0001T   00004385+0000001214          1400 SH5215               2AZ
207558006207558103-000068     207558006003000630486BAMBOO BASKET RECTANGLE0000001000+00006139+00000+0001T   00006139+0000001214          1400 SH5300               2AZ
207558007207558077-000150-D   207558006003000054343GIFT-WRAP CELLPHANE CLR0000003000+00000876+00000+0001T   00000876+0000001214          1400 SH5112               2AZ
207558008207558112-116069     207558006003000535064TCS CARRIER BAG JUMBO  0000001000+00000048+00000+0001T   00000048+0000001214          1400 SH5090               2AZ
207559000207559               207559               170213OT     1400+00000+OT0000005467+0000005467+000000000+000000768+0000006230+0000000005+I20000000000+0000006230+Z
207559001207559071-003003     207559006003000144525PEN BALL PEN 3PCE BLACK0000001000+00000876+00000+0001T   00000876+0000001215          1400 SH5130               2AZ
207559002207559251-000030     207559006001023515803MASKING-TAPE 18mmx40m  0000004000+00001139+00000+0001T   00001139+0000001215          1400 SH5810               2AZ
207559003207559112-116038     207559006003000534906TCS CARRIER BAG MIDI   0000001000+00000035+00000+0001T   00000035+0000001215          1400 SH5090               2AZ
207560000207560               207560               170213OT     1400+00000+OT0000001490+0000001490+000000000+000000209+0000001690+0000000009+I20000000000+0000001690+Z
207560001207560028-000796     207560006001023812094SKEWERS 25cm 50PCE 4mm 0000001000+00001490+00000+0001T   00001490+0000001227          1400 SH5305               2AZ
207561000207561               207561               170213OT     1400+00000+OT0000000874+0000000874+000000000+000000124+0000000990+0000000008+I20000000000+0000000990+Z
207561001207561080-000133-A   207561006003000647019MINI VALENTINES CARD   0000002000+00000437+00000+0001T   00000437+0000001229          1400 SH5112               2AZ
207562000207562               207562               170213OT     1400+00000+OT0000002192+0000002192+000000000+000000307+0000002490+0000000009+I20000000000+0000002490+Z
207562001207562024-000042     207562006002580009255M/CUP MINI 30ML H/HOUSE0000001000+00002192+00000+0001T   00002192+0000001233          1400 SH5300               2AZ
207563000207563               207563               170213OT     1400+00000+OT0000004385+0000004385+000000000+000000614+0000004990+0000000009+I20000000000+0000004990+Z
207563001207563369-001032     207563006001023796158BABY RATTLE SET 6PCE   0000001000+00004385+00000+0001T   00004385+0000001234          1400 SH5745               2AZ
207564000207564               207564               170213OT     1400+00000+OT0000005259+0000005259+000000000+000000738+0000005990+0000000007+I20000000000+0000005990+Z
207564001207564007-000050     207564006001023528285DISPLAY-ENVELOPE A4    0000003000+00001753+00000+0001T   00001753+0000001234          1400 SH5130               2AZ
207565000207565               207565               170213OT     1400+00000+OT0000001753+0000001753+000000000+000000246+0000001990+0000000009+I20000000000+0000001990+Z
207565001207565077-000239     207565006003000160419GIFT-RIBBON ROLL PEARL 0000001000+00001753+00000+0001T   00001753+0000001247          1400 SH5112               2AZ
207566000207566               207566               170213OT     1400+00000+OT0000003507+0000003507+000000000+000000491+0000003990+0000000008+I20000000000+0000003990+Z
207566001207566018-005009     207566006001023725608MUG W/PLUSH-BEAR LOVE  0000001000+00003507+00000+0001T   00003507+0000001306          1400 SH5515               2AZ
207567000207567               207567               170213OT     1400+00000+OT0000003945+0000003945+000000000+000000553+0000004490+0000000008+I20000000000+0000004490+Z
207567001207567006-000118     207567006001023730725BALLOONS 6PC TWISTER   0000001000+00001753+00000+0001T   00001753+0000001343          1400 SH5131               2AZ
207567002207567006-000090     207567006001023538505BANNER HAPPY-BIRTHDAY  0000001000+00002192+00000+0001T   00002192+0000001343          1400 SH5131               2AZ
207568000207568               207568               170213OT     1400+00000+OT0000004385+0000004385+000000000+000000614+0000004990+0000000009+I20000000000+0000004990+Z
207568001207568072-020255     207568006003000451487PET DOG CHEW BONE PK-2 0000001000+00004385+00000+0001T   00004385+0000001354          1400 SH5870               2AZ
207569000207569               207569               170213OT     1400+00000+OT0000008538+0000008538+000000000+000001196+0000009730+0000000004+I20000000000+0000009730+Z
207569001207569018-005009     207569006001023725608MUG W/PLUSH-BEAR LOVE  0000002000+00003507+00000+0001T   00003507+0000001359          1400 SH5515               2AZ
207569002207569077-000314     207569006003000181148GIFT-BAG 11X14CM MATT  0000001000+00000876+00000+0001T   00000876+0000001359          1400 SH5112               2AZ
207569003207569077-000311     207569006001023608666GIFT-BAG 11X14CM GLOSS 0000001000+00000613+00000+0001T   00000613+0000001359          1400 SH5112               2AZ
207569004207569112-116038     207569006003000534906TCS CARRIER BAG MIDI   0000001000+00000035+00000+0001T   00000035+0000001359          1400 SH5090               2AZ
207570000207570               207570               170213OT     1400+00000+OT0000002630+0000002630+000000000+000000369+0000002990+0000000009+I20000000000+0000002990+Z
207570001207570306-001619     207570006003000571451INNER SOLES 2-PAIR     0000001000+00002630+00000+0001T   00002630+0000001400          1400 SH5200               2AZ
207571000207571               207571               170213OT     1400+00000+OT0000004558+0000004558+000000000+000000639+0000005190+0000000007+I20000000000+0000005190+Z
207571001207571030-000030-A   207571006003000249305PLAQUE GLASS LOVE      0000001000+00003069+00000+0001T   00003069+0000001402          1400 SH5505               2AZ
207571002207571304-001011     207571006001023806727FLWR ROSE RED W/BEAR   0000001000+00000613+00000+0001T   00000788+0006471402          1400 SH5510               2AZ
207571003207571077-000314     207571006003000181148GIFT-BAG 11X14CM MATT  0000001000+00000876+00000+0001T   00000876+0000001402          1400 SH5112               2AZ
207572000207572               207572               170213OT     1400+00000+OT0000006961+0000006961+000000000+000000976+0000007930+0000000007+I20000000000+0000007930+Z
207572001207572030-000031-A   207572006003000457588PLAQUE W/WORDS ASSTD   0000001000+00004385+00000+0001T   00004823+0006471409          1400 SH5505               2AZ
207572002207572077-000010-U   207572006001023168863CREPE-PAPER CERISE-PINK0000001000+00000788+00000+0001T   00000788+0000001409          1400 SH5112               2AZ
207572003207572077-000472     207572006003000330133G-BAG DESGNR LRG 25X32 0000001000+00001753+00000+0001T   00001753+0000001409          1400 SH5112               2AZ
207572004207572112-116038     207572006003000534906TCS CARRIER BAG MIDI   0000001000+00000035+00000+0001T   00000035+0000001409          1400 SH5090               2AZ
207573000207573               207573               170213OT     1400+00000+OT0000004385+0000004385+000000000+000000614+0000004990+0000000009+I20000000000+0000004990+Z
207573001207573001-000175     207573006001023788108B/MUG GLS LOVE 380ML   0000001000+00004385+00000+0001T   00004385+0000001412          1400 SH5515               2AZ
207574000207574               207574               170213OT     1400+00000+OT0000007049+0000007049+000000000+000000987+0000008036+0000000000+I40000008036+0000000000+Z
207574001207574018-005009     207574006001023725608MUG W/PLUSH-BEAR LOVE  0000002000+00003507+00000+0001T   00003507+0000001419          1400 SH5515               2AZ
207574002207574112-116038     207574006003000534906TCS CARRIER BAG MIDI   0000001000+00000035+00000+0001T   00000035+0000001419          1400 SH5090               2AZ
207575000207575               207575               170213OT     1400+00000+OT0000006138+0000006138+000000000+000000860+0000006998+0000000000+I40000006998+0000000000+Z
207575001207575024-000019     207575006001023822277HILLHOUSE ICING-SET    0000001000+00005262+00000+0001T   00005262+0000001421          1400 SH5300               2AZ
207575002207575001-000168     207575008992787110268TUMBLER 340ml ZOMBI    0000001000+00000876+00000+0001T   00000876+0000001421          1400 SH5515               2AZ
207576000207576               207576               170213OT     1400+00000+OT0000001578+0000001578+000000000+000000221+0000001790+0000000009+I20000000000+0000001790+Z
207576001207576077-000303     207576006001023593757GIFT-BAG PAPER MED     0000001000+00001578+00000+0001T   00001578+0000001424          1400 SH5112               2AZ
207577000207577               207577               170213OT     1400+00000+OT0000007925+0000007925+000000000+000001112+0000009030+0000000007+I20000000000+0000009030+Z
207577001207577076-001001     207577006003000266715CORD STRETCH 2-CL 120cm0000002000+00002630+00000+0001T   00002630+0000001431          1400 SH5810               2AZ
207577002207577076-000750     207577006003000423347CORD STRETCH 2-CLAW    0000001000+00002630+00000+0001T   00002630+0000001431          1400 SH5810               2AZ
207577003207577112-116038     207577006003000534906TCS CARRIER BAG MIDI   0000001000+00000035+00000+0001T   00000035+0000001431          1400 SH5090               2AZ
207578000207578               207578               170213OT     1400+00000+OT0000004647+0000004647+000000000+000000651+0000005290+0000000008+I20000000000+0000005290+Z
207578001207578030-000030-A   207578006003000249305PLAQUE GLASS LOVE      0000001000+00003069+00000+0001T   00003069+0000001432          1400 SH5505               2AZ
207578002207578077-000303     207578006001023593757GIFT-BAG PAPER MED     0000001000+00001578+00000+0001T   00001578+0000001432          1400 SH5112               2AZ
207579000207579               207579               170213OT     1400+00000+OT0000001490+0000001490+000000000+000000209+0000001690+0000000009+I20000000000+0000001690+Z
207579001207579089-000141-H   207579006001023416568KEY-CHAINS 6PCE     H&H0000001000+00001490+00000+0001T   00001490+0000001433          1400 SH5205               2AZ
207580000207580               207580               170213OT     1400+00000+OT0000001924+0000001924+000000000+000000272+0000002190+0000000006+I20000000000+0000002190+Z
207580001207580903-000155     207580006009803374435SWT LOLLY I LUV U HEART0000002000+00000525+00000+0001T   00000525+0000001434          1400 SH5150               2AZ
207580002207580903-000012     207580006002099007308SWT MALLOW S/BERRY     0000002000+00000437+00000+0001T   00000437+0000001434          1400 SH5150               2AZ
207581000207581               207581               170213OT     1400+00000+OT0000000437+0000000437+000000000+000000062+0000000490+0000000009+I20000000000+0000000490+Z
207581001207581080-000133-A   207581006003000647019MINI VALENTINES CARD   0000001000+00000437+00000+0001T   00000437+0000001435          1400 SH5112               2AZ
207582000207582               207582               170213OT     1400+00000+OT0000001314+0000001314+000000000+000000184+0000001490+0000000008+I20000000000+0000001490+Z
207582001207582006-000166-D   207582006003000516490BALLOONS LRG 6PC RED   0000001000+00001314+00000+0001T   00001314+0000001437          1400 SH5131               2AZ
207583000207583               207583               170213OT     1400+00000+OT0000010555+0000010555+000000000+000001481+0000012036+0000000000+I40000012036+0000000000+Z
207583001207583006-006018     207583006001023735256PARTY-SPRAY HAIR ASSORT0000004000+00002630+00000+0001T   00002630+0000001453          1400 SH5131               2AZ
207583002207583112-116038     207583006003000534906TCS CARRIER BAG MIDI   0000001000+00000035+00000+0001T   00000035+0000001453          1400 SH5090               2AZ
207584000207584               207584               170213OT     1400+00000+OT0000006520+0000006520+000000000+000000913+0000007433+0000000000+I40000007433+0000000000+Z
207584001207584903-000120     207584006002099001665SWEET GS ZILLIONS 50g  0000001000+00000700+00000+0001T   00000700+0000001455          1400 SH5150               2AZ
207584002207584903-000126     207584006002099003591SWT ZILLIONS MINT 50G  0000001000+00000700+00000+0001T   00000700+0000001455          1400 SH5150               2AZ
207584003207584077-000303     207584006001023593757GIFT-BAG PAPER MED     0000001000+00001578+00000+0001T   00001578+0000001455          1400 SH5112               2AZ
207584004207584018-005009     207584006001023725608MUG W/PLUSH-BEAR LOVE  0000001000+00003507+00000+0001T   00003507+0000001455          1400 SH5515               2AZ
207584005207584112-116038     207584006003000534906TCS CARRIER BAG MIDI   0000001000+00000035+00000+0001T   00000035+0000001455          1400 SH5090               2AZ
207585000207585               207585               170213OT     1400+00000+OT0000003156+0000003156+000000000+000000442+0000003590+0000000008+I20000000000+0000003590+Z
207585001207585018-000127     207585006001023380289MUG OCC STRAIGHT LOVE  0000002000+00001578+00000+0001T   00001753+0006471459          1400 SH5515               2AZ
207586000207586               207586               170213OT     1400+00000+OT0000001926+0000001926+000000000+000000270+0000002190+0000000006+I20000000000+0000002190+Z
207586001207586304-001011     207586006001023806727FLWR ROSE RED W/BEAR   0000002000+00000613+00000+0001T   00000788+0006471459          1400 SH5510               2AZ
207586002207586018-000177     207586006001023797513MUG MINI LOVE ASSTD    0000001000+00000700+00000+0001T   00000700+0000001459          1400 SH5515               2AZ
207587000207587               207587               170213OT     1400+00000+OT0000007064+0000007064+000000000+000000990+0000008050+0000000004+I20000000000+0000008050+Z
207587001207587366-000105     207587006001023866103DRESSUP WINGS AND SKIRT0000001000+00007016+00000+0001T   00007016+0000001501          1400 SH5131               2AZ
207587002207587112-116069     207587006003000535064TCS CARRIER BAG JUMBO  0000001000+00000048+00000+0001T   00000048+0000001501          1400 SH5090               2AZ
207588000207588               207588               170213OT     1400+00000+OT0000002630+0000002630+000000000+000000369+0000002990+0000000009+I20000000000+0000002990+Z
207588001207588006-000111     207588006003000519385BALLOONS LARGE 12PCE   0000001000+00002630+00000+0001T   00002630+0000001502          1400 SH5131               2AZ
207589000207589               207589               170213OT     1400+00000+OT0000011399+0000011399+000000000+000001597+0000012996+0000000000+I40000012996+0000000000+Z
207589001207589030-000031-A   207589006003000457588PLAQUE W/WORDS ASSTD   0000001000+00004385+00000+0001T   00004823+0006471508          1400 SH5505               2AZ
207589002207589077-000011-C   207589006001023808523TISSUE 10xSHTS RED     0000001000+00000876+00000+0001T   00000876+0000001508          1400 SH5112               2AZ
207589003207589018-030000     207589006003000421060MUG OCCASIONS LOVE 2PCE0000001000+00004385+00000+0001T   00004385+0000001508          1400 SH5515               2AZ
207589004207589077-000299-A   207589006003000670888GIFT-BAG PAPER JMB LOVE0000001000+00001753+00000+0001T   00001753+0000001508          1400 SH5112               2AZ
207590000207590               207590               170213OT     1400+00000+OT0000009555+0000009555+000000000+000001339+0000010890+0000000004+I20000000000+0000010890+Z
207590001207590301-085004     207590006003000420469ORN LOVE PLAQUE 21X10CM0000001000+00003507+00000+0001T   00003946+0006471514          1400 SH5505               2AZ
207590002207590077-000303     207590006001023593757GIFT-BAG PAPER MED     0000002000+00001578+00000+0001T   00001578+0000001514          1400 SH5112               2AZ
207590003207590007-000723     207590006003000226078MEMO BOOK W/PEN 100SHTS0000001000+00001753+00000+0001T   00001753+0000001514          1400 SH5130               2AZ
207590004207590903-000087     207590006001704000161SWT SPECKLED-EGGS 50G  0000001000+00001139+00000+0001T   00001139+0000001514          1400 SH5150               2AZ
207591000207591               207591               170213OT     1400+00000+OT0000003542+0000003542+000000000+000000496+0000004030+0000000008+I20000000000+0000004030+Z
207591001207591018-000136     207591006001023659026MUG OCC LOVE W/PLUSH   0000001000+00003507+00000+0001T   00003507+0000001525          1400 SH5515               2AZ
207591002207591112-116038     207591006003000534906TCS CARRIER BAG MIDI   0000001000+00000035+00000+0001T   00000035+0000001525          1400 SH5090               2AZ
207592000207592               207592               170213OT     1400+00000+OT0000011437+0000011437+000000000+000001602+0000013039+0000000000+I40000013039+0000000000+Z
207592001207592368-000637     207592006001023874092PLUSH BEAR SLEEPING LOV0000001000+00011402+00000+0001T   00012279+0006471528          1400 SH5745               2AZ
207592002207592112-116038     207592006003000534906TCS CARRIER BAG MIDI   0000001000+00000035+00000+0001T   00000035+0000001528          1400 SH5090               2AZ
207593000207593               207593               170213OT     1400+00000+OT0000001578+0000001578+000000000+000000221+0000001790+0000000009+I20000000000+0000001790+Z
207593001207593018-000127     207593006001023380289MUG OCC STRAIGHT LOVE  0000001000+00001578+00000+0001T   00001753+0006471528          1400 SH5515               2AZ
207594000207594               207594               170213OT     1400+00000+OT0000008593+0000008593+000000000+000001204+0000009797+0000000000+I40000009797+0000000000+Z
207594001207594368-000265     207594006001023750914PLUSH BEAR 23CM ASSTD C0000001000+00006139+00000+0001T   00006139+0000001531          1400 SH5745               2AZ
207594002207594077-000302     207594008010410010195GIFT-BAG 18X23CM E/D   0000001000+00000876+00000+0001T   00000876+0000001531          1400 SH5112               2AZ
207594003207594077-000315     207594006003000181186GIFT-BAG 20x28cm MATT  0000001000+00001578+00000+0001T   00001578+0000001531          1400 SH5112               2AZ
207595000207595               207595               170213OT     1400+00000+OT0000008592+0000008592+000000000+000001203+0000009790+0000000005+I20000000000+0000009790+Z
207595001207595077-000303     207595006001023593757GIFT-BAG PAPER MED     0000001000+00001578+00000+0001T   00001578+0000001532          1400 SH5112               2AZ
207595002207595301-085004     207595006003000420469ORN LOVE PLAQUE 21X10CM0000001000+00003507+00000+0001T   00003946+0006471532          1400 SH5505               2AZ
207595003207595018-000136     207595006001023659026MUG OCC LOVE W/PLUSH   0000001000+00003507+00000+0001T   00003507+0000001532          1400 SH5515               2AZ
207596000207596               207596               170213OT     1400+00000+OT0000001662+0000001662+000000000+000000234+0000001890+0000000006+I20000000000+0000001890+Z
207596001207596006-000172-A   207596006003000609765BALLOONS METALLIC PINK 0000002000+00000218+00000+0001T   00000218+0000001533          1400 SH5131               2AZ
207596002207596006-001000     207596006003000093779HELIUM BALLOON FILL    0000002000+00000613+00000+0001T   00000613+0000001533          1400 SH5131               2AZ
207597000207597               207597               170213OT     1400+00000+OT0000001839+0000001839+000000000+000000258+0000002090+0000000007+I20000000000+0000002090+Z
207597001207597077-000321     207597006001023677501GIFT-BAG 11X14CM E/D FL0000003000+00000613+00000+0001T   00000613+0000001536          1400 SH5112               2AZ
207598000207598               207598               170213OT     1400+00000+OT0000001578+0000001578+000000000+000000221+0000001790+0000000009+I20000000000+0000001790+Z
207598001207598071-001028     207598008887013700385MARKER WHT-RND YM-500  0000001000+00001578+00000+0001T   00001578+0000001537          1400 SH5130               2AZ
207599000207599               207599               170213OT     1400+00000+OT0000002192+0000002192+000000000+000000307+0000002490+0000000009+I20000000000+0000002490+Z
207599001207599080-000127     207599006003000424351VALENTINES DAY 36x24CM 0000001000+00002192+00000+0001T   00002192+0000001537          1400 SH5112               2AZ
207600000207600               207600               170213OT     1400+00000+OT0000001314+0000001314+000000000+000000184+0000001490+0000000008+I20000000000+0000001490+Z
207600001207600903-000844     207600005010478432567SWT CANDY DL LUV HEARTS0000001000+00001314+00000+0001T   00001314+0000001541          1400 SH5150               2AZ
207601000207601               207601               170213OT     1400+00000+OT0000007487+0000007487+000000000+000001050+0000008530+0000000007+I20000000000+0000008530+Z
207601001207601206-000150     207601006003000628667SLICER CUCUMBER        0000001000+00002192+00000+0001T   00002192+0000001555          1400 SH5321               2AZ
207601002207601206-000190     207601006003000631346PEELER FINGER 2PC      0000001000+00002630+00000+0001T   00003069+0008171555          1400 SH5321               2AZ
207601003207601206-000220     207601006003000631704EGG TIMER COLOUR-CHANGE0000001000+00002630+00000+0001T   00002630+0000001555          1400 SH5321               2AZ
207601004207601112-116038     207601006003000534906TCS CARRIER BAG MIDI   0000001000+00000035+00000+0001T   00000035+0000001555          1400 SH5090               2AZ
207602000207602               207602               170213OT     1400+00000+OT0000011450+0000011450+000000000+000001604+0000013050+0000000004+I20000000000+0000013050+Z
207602001207602368-000637     207602006001023874092PLUSH BEAR SLEEPING LOV0000001000+00011402+00000+0001T   00012279+0006471627          1400 JG5745               2AZ
207602002207602112-116069     207602006009681820277TCS CARRIER BAG JUMBO  0000001000+00000048+00000+0001T   00000048+0000001627          1400 JG5090               2AZ
207603000207603               207603               170213OT     1400+00000+OT0000018768+0000018768+000000000+000002628+0000021390+0000000006+I20000000000+0000021390+Z
207603001207603072-020244     207603000694202207840PET BED COTTON 90x70cm 0000001000+00017542+00000+0001T   00017542+0000001705          1400 JG5870               2AZ
207603002207603304-001011     207603006001023806727FLWR ROSE RED W/BEAR   0000002000+00000613+00000+0001T   00000788+0006471705          1400 JG5510               2AZ
207604000207604               207604               170213OT     1400+00000+OT0000014954+0000014954+000000000+000002095+0000017040+0000000009+I20000000000+0000017040+Z
207604001207604304-001011     207604006001023806727FLWR ROSE RED W/BEAR   0000001000+00000613+00000+0001T   00000788+0006471706          1400 JG5510               2AZ
207604002207604077-000303     207604006001023593757GIFT-BAG PAPER MED     0000001000+00001578+00000+0001T   00001578+0000001706          1400 JG5112               2AZ
207604003207604077-000381     207604006003000247707GIFT-BAG 25X32CM S/COL 0000001000+00001753+00000+0001T   00001753+0000001706          1400 JG5112               2AZ
207604004207604031-080508     207604006001023802415P/FRAME PL 22X11CM LOVE0000001000+00004385+00000+0001T   00004385+0000001706          1400 JG5510               2AZ
207604005207604368-000049     207604006003000536955PLUSH BEAR 15cm LOVE   0000001000+00004385+00000+0001T   00004385+0000001706          1400 JG5745               2AZ
207604006207604018-000170     207604006001023775528MUG OCC. LOVE 2PC MINI 0000001000+00002192+00000+0001T   00002192+0000001706          1400 JG5515               2AZ
207604007207604112-116069     207604006009681820277TCS CARRIER BAG JUMBO  0000001000+00000048+00000+0001T   00000048+0000001706          1400 JG5090               2AZ
207605000207605               207605               170213OT     1400+00000+OT0000001753+0000001753+000000000+000000246+0000001990+0000000009+I20000000000+0000001990+Z
207605001207605046-002016-PK2 207605004897006175056BATTERIES CR-2016  2PCE0000001000+00001753+00000+0001T   00001753+0000001708          1400 JG5312               2AZ
207606000207606               207606               170213OT     1400+00000+OT0000003506+0000003506+000000000+000000492+0000003998+0000000000+I40000003998+0000000000+Z
207606001207606565-000002     207606006003000308071NOVELTY GROWING ANIMALS0000001000+00001753+00000+0001T   00001753+0000001735          1400 JG5745               2AZ
207606002207606565-000050     207606006001023906199SLIME BOMB DISPLAY BOX 0000001000+00001753+00000+0001T   00001753+0000001735          1400 JG5745               2AZ
207607000207607               207607               170213OT     1400+00000+OT0000030304+0000030304+000000000+000004244+0000034548+0000000000+I40000034548+0000000000+Z
207607001207607046-000012-A   207607006003000208296BATTERIES H/POWER SZ:AA0000001000+00002192+00000+0001T   00002192+0000001741          1400 JG5312               2AZ
207607002207607301-001125     207607000694202803950ORN FOUNTAIN TOWER     0000001000+00017542+00000+0001T   00017542+0000001741          1400 JG5505               2AZ
207607003207607039-001023     207607006003000466337CANDLE TEA-LITE METALIC0000001000+00001753+00000+0001T   00001753+0000001741          1400 JG5510               2AZ
207607004207607030-000031-A   207607006003000457588PLAQUE W/WORDS ASSTD   0000001000+00004385+00000+0001T   00004823+0006471741          1400 JG5505               2AZ
207607005207607301-085000     207607006003000674299 ORN OCC. LOVE HEARTS  0000002000+00002192+00000+0001T   00002192+0000001741          1400 JG5505               2AZ
207607006207607112-116069     207607006009681820277TCS CARRIER BAG JUMBO  0000001000+00000048+00000+0001T   00000048+0000001741          1400 JG5090               2AZ
207608000207608               207608               170213OT     1400+00000+OT0000021300+0000021300+000000000+000002988+0000024280+0000000008+I20000000000+0000024280+Z
207608001207608301-085004     207608006003000420469ORN LOVE PLAQUE 21X10CM0000001000+00003507+00000+0001T   00003946+0006471743          1400 JG5505               2AZ
207608002207608018-019000     207608006003000557288MUG OCC. LOVE JUMBO    0000001000+00005262+00000+0001T   00005262+0000001743          1400 JG5515               2AZ
207608003207608018-000170     207608006001023775528MUG OCC. LOVE 2PC MINI 0000002000+00002192+00000+0001T   00002192+0000001743          1400 JG5515               2AZ
207608004207608077-000314     207608006003000181148GIFT-BAG 11X14CM MATT  0000001000+00000876+00000+0001T   00000876+0000001743          1400 JG5112               2AZ
207608005207608077-000310     207608006001023608635GIFT-BAG 18X23CM GLOSS 0000001000+00001314+00000+0001T   00001314+0000001743          1400 JG5112               2AZ
207608006207608077-000470     207608006003000330171G-BAG DESGN SML 11X14CM0000001000+00001314+00000+0001T   00001314+0000001743          1400 JG5112               2AZ
207608007207608077-000303     207608006001023593757GIFT-BAG PAPER MED     0000001000+00001578+00000+0001T   00001578+0000001743          1400 JG5112               2AZ
207608008207608077-000010-D   207608006001023123886CREPE-PAPER WHITE      0000001000+00000788+00000+0001T   00000788+0000001743          1400 JG5112               2AZ
207608009207608903-000155     207608006009803374435SWT LOLLY I LUV U HEART0000002000+00000525+00000+0001T   00000525+0000001743          1400 JG5150               2AZ
207608010207608903-000183     207608006003000451043SWT LB HEART LOLLY     0000003000+00000393+00000+0001T   00000393+0000001743          1400 JG5150               2AZ
207608011207608112-116069     207608006009681820277TCS CARRIER BAG JUMBO  0000001000+00000048+00000+0001T   00000048+0000001743          1400 JG5090               2AZ
207609000207609               207609               170213OT     1400+00000+OT0000008378+0000008378+000000000+000001174+0000009550+0000000002+I20000000000+0000009550+Z
207609001207609080-000127     207609006003000424351VALENTINES DAY 36x24CM 0000001000+00002192+00000+0001T   00002192+0000001745          1400 JG5112               2AZ
207609002207609046-000014-A   207609004897006177708BATTERIES SIZE:AAA 8PCE0000001000+00001753+00000+0001T   00001753+0000001745          1400 JG5312               2AZ
207609003207609031-080508     207609006001023802415P/FRAME PL 22X11CM LOVE0000001000+00004385+00000+0001T   00004385+0000001745          1400 JG5510               2AZ
207609004207609112-116069     207609006009681820277TCS CARRIER BAG JUMBO  0000001000+00000048+00000+0001T   00000048+0000001745          1400 JG5090               2AZ
B20755600                                          170213OT078-000470     12093779SLAVE 2     SH53IC0000002000+0000001000+0000000000000+
M17021301                              IT          OTATT:IT                                          LAST TILL SLIP ON SLAVE 2                       IS 207609                                       THANKS OT
M17021391                              CASH        OTSLAVE 2                       Z-REPORT No.   603TOTAL (Sales - Refunds)           5557.02       CASH TO BE BANKED                 3246.80       DEBIT CARDS                          0.00       CREDIT CARDS                      2310.22       Z-READING                         5557.02       AIRTIME DEBIT CARD SALES             0.00       AIRTIME CARD SALES                   0.00       OVERS/UNDERS                         0.00       AIRTIME CASH SALES                   0.00       GIFT CARDS                           0.00       GIFT CARD CASH SALES                 0.00       T O T A L  CASH PAYOUTS              0.00                                                                                                                                                                                                                                                                                                                                                      Z
M17021392                              CASH        OTABSENT                                                                                                                                                                                          ANNUAL LEAVE                                                                                                                                                                                    DAY OFF                                                                                                                                                                                         COMMENTS                                                                                                                                                                                                                                                                                                                                                                                       Z
Y17021300                                          OT00000000487755+000073
ZOT17021321143 SLAVE 2      SALES DATA                     NEXT INVOICE NO.  207610 0603
X OT Slave 2 First invoice 207537 170213 Last invoice 207609 170213 Next invoice 207610 Total number of records 000000262 clbackup completed 21:14:27
