104445000104445               104445               170213OU     1400+00000+OU0000011436+0000011436+000000000+000001602+0000013038+0000000000+I40000013038+0000000000+Z
104445001104445082-000105     104445006003000360369READING GLS STRNGHT:1.50000001000+00004385+00000+0001T   00004385+0000000944          1400 SJ1160               1AZ
104445002104445016-007000     104445006003000233625EGG BASKET HEN SHAPE   0000001000+00007016+00000+0001T   00007016+0000000944          1400 SJ1300               1AZ
104445003104445112-116038     104445006009681820246TCS CARRIER BAG MIDI   0000001000+00000035+00000+0001T   00000035+0000000944          1400 SJ1090               1AZ
104446000104446               104446               170213OU     1400+00000+OU0000006434+0000006434+000000000+000000901+0000007330+0000000005+I20000000000+0000007330+Z
104446001104446031-000002-A   104446006003000247103P/FRAME LOVE 7.5X7.5CM 0000001000+00003507+00000+0001T   00003507+0000001009          1400 SJ1510               1AZ
104446002104446077-000407     104446006003000145096G/BAG PP 19X26X8CM     0000001000+00001314+00000+0001T   00001314+0000001009          1400 SJ1112               1AZ
104446003104446018-000127     104446006001023380289MUG OCC STRAIGHT LOVE  0000001000+00001578+00000+0001T   00001753+0006471009          1400 SJ1515               1AZ
104446004104446112-116038     104446006009681820246TCS CARRIER BAG MIDI   0000001000+00000035+00000+0001T   00000035+0000001009          1400 SJ1090               1AZ
104447000104447               104447               170213OU     1400+00000+OU0000001753+0000001753+000000000+000000246+0000001999+0000000000+I40000001999+0000000000+Z
104447001104447200-003024     104447006001023657299REFUSE BAGS 20PCE BLACK0000001000+00001753+00000+0001T   00001753+0000001010          1400 SJ1214               1AZ
104448000104448               104448               170213OU     1400+00000+OU0000001753+0000001753+000000000+000000246+0000001990+0000000009+I20000000000+0000001990+Z
104448001104448366-002809     104448006003000222643DRESS UP MOUSTACHE SET 0000001000+00001753+00000+0001T   00001753+0000001015          1400 SJ1131               1AZ
104449000104449               104449               170213OU     1400+00000+OU0000019244+0000019244+000000000+000002698+0000021940+0000000002+I20000000000+0000021940+Z
104449001104449267-000200     104449006001023892379PUZZLE 24pc CARTOON    0000001000+00002192+00000+0001T   00002192+0000001019          1400 SJ1755               1AZ
104449002104449200-000200     104449006008766091144BAKING ALUM FOIL 2PCE  0000002000+00002192+00000+0001T   00002192+0000001019          1400 SJ1214               1AZ
104449003104449261-000121     104449006001023341600GUN-CAPS 8-SHOT CARD-9 0000002000+00000700+00000+0001T   00000700+0000001019          1400 SJ1710               1AZ
104449004104449027-783000     104449006001023874641SCOURERS RAINBOW 5PCE  0000001000+00001753+00000+0001T   00001753+0000001019          1400 SJ1212               1AZ
104449005104449142-000812     104449006003000165421GLOVES LATEX 10PCE-5PRS0000002000+00002630+00000+0001T   00002630+0000001019          1400 SJ1810               1AZ
104449006104449027-078343     104449006008766078343SCRUB-BRUSH IRON-SHAPE 0000001000+00001139+00000+0001T   00001578+0008191019          1400 SJ1212               1AZ
104449007104449024-091103     104449006003453014307BAKING-CUP MUFFIN 50PCE0000001000+00002192+00000+0001T   00002192+0000001019          1400 SJ1300               1AZ
104449008104449027-078281     104449006001023767806SCOURERS BRS 8g  PACK-30000001000+00000876+00000+0001T   00000876+0000001019          1400 SJ1212               1AZ
104449009104449112-116069     104449006009681820277TCS CARRIER BAG JUMBO  0000001000+00000048+00000+0001T   00000048+0000001019          1400 SJ1090               1AZ
104450000104450               104450               170213OU     1400+00000+OU0000002630+0000002630+000000000+000000369+0000002990+0000000009+I20000000000+0000002990+Z
104450001104450016-006425     104450006001023998170S/JAR GLS CLIP W/RIBBON0000001000+00002630+00000+0001T   00002630+0000001020          1400 SJ1300               1AZ
104451000104451               104451               170213OU     1400+00000+OU0000003507+0000003507+000000000+000000491+0000003998+0000000000+I40000003998+0000000000+Z
104451001104451079-014004     104451006003000080045ART+CRAFT JEWELRY ASSTD0000001000+00003507+00000+0001T   00003507+0000001025          1400 SJ1130               1AZ
104452000104452               104452               170213OU     1400+00000+OU0000001578+0000001578+000000000+000000221+0000001790+0000000009+I20000000000+0000001790+Z
104452001104452077-000303     104452006001023593757GIFT-BAG PAPER MED     0000001000+00001578+00000+0001T   00001578+0000001026          1400 SJ1112               1AZ
104453000104453               104453               170213OU     1400+00000+OU0000011386+0000011386+000000000+000001597+0000012983+0000000000+I40000012983+0000000000+Z
104453001104453078-000030     104453006003000151141YAMAYO SUPERGLUE 8g    0000001000+00001753+00000+0001T   00001753+0000001032          1400 SJ1810               1AZ
104453002104453058-000062     104453006001023622976HOBBY-KNIFE+BLADE 15cm 0000001000+00003507+00000+0001T   00003507+0000001032          1400 SJ1840               1AZ
104453003104453033-005903-B   104453006001023678164B/LACES FLAT 120cm ASST0000002000+00001490+00000+0001T   00001490+0000001032          1400 SJ1200               1AZ
104453004104453071-000012     104453006001177101006CHALK COLOUR 12PCE     0000001000+00000481+00000+0001T   00000481+0000001032          1400 SJ1130               1AZ
104453005104453077-000512     104453006003000590223GIFT-BAG DESIGNER LRG  0000001000+00002630+00000+0001T   00002630+0000001032          1400 SJ1112               1AZ
104453006104453112-116038     104453006009681820246TCS CARRIER BAG MIDI   0000001000+00000035+00000+0001T   00000035+0000001032          1400 SJ1090               1AZ
104454000104454               104454               170213OU     1400+00000+OU0000016883+0000016883+000000000+000002367+0000019250+0000000000+I10000009250+0000010000+Z
104454001104454018-000129     104454006001023403353MUG OCC. LOVE V-SHAPE  0000001000+00002630+00000+0001T   00002630+0000001037          1400 SJ1515               1AZ
104454002104454301-085001     104454006003000297610ORN WATERBALL LOVE ASST0000001000+00004823+00000+0001T   00004823+0000001037          1400 SJ1505               1AZ
104454003104454080-000113     104454006003000237449CARD&ENVLPE - LOVE     0000001000+00001753+00000+0001T   00001753+0000001037          1400 SJ1112               1AZ
104454004104454077-000299     104454006003000395576G/BAG 32x25cm LRG LOVE 0000001000+00001490+00000+0001T   00001490+0000001037          1400 SJ1112               1AZ
104454005104454017-000221     104454006003000238019P/ALBUM ADHESIVE 20PG  0000001000+00006139+00000+0001T   00006139+0000001037          1400 SJ1510               1AZ
104454006104454112-116069     104454006009681820277TCS CARRIER BAG JUMBO  0000001000+00000048+00000+0001T   00000048+0000001037          1400 SJ1090               1AZ
104455000104455               104455               170213OU     1400+00000+OU0000005046+0000005046+000000000+000000707+0000005750+0000000003+I20000000000+0000005750+Z
104455001104455083-000055     104455006003000003853LIGHTER ELCTRNC REFILBL0000001000+00000613+00000+0001T   00000613+0000001038          1400 SJ1315               1AZ
104455002104455159-003605     104455006001023156242TOILET-BRUSH+STAND COLR0000001000+00004385+00000+0001T   00004385+0000001038          1400 SJ1200               1AZ
104455003104455112-116069     104455006009681820277TCS CARRIER BAG JUMBO  0000001000+00000048+00000+0001T   00000048+0000001038          1400 SJ1090               1AZ
104456000104456               104456               170213OU     1400+00000+OU0000012850+0000012850+000000000+000001801+0000014651+0000000000+I40000014651+0000000000+Z
104456001104456039-000026     104456006001023551610C/TAPERED 25CM M/RED   0000001000+00001051+00000+0001T   00001051+0000001040          1400 SJ1510               1AZ
104456002104456040-000213     104456006001023617736CANDLE-HOLDER DAISY    0000001000+00001227+00000+0001T   00001227+0000001040          1400 SJ1510               1AZ
104456003104456077-000316     104456006001023609731GIFT-BAG 25X32CM MATT  0000001000+00001753+00000+0001T   00001753+0000001040          1400 SJ1112               1AZ
104456004104456001-091415     104456006003000329113W/GLS OCC. LOVE 2PC 2800000001000+00008771+00000+0001T   00009648+0006471040          1400 SJ1515               1AZ
104456005104456112-116069     104456006009681820277TCS CARRIER BAG JUMBO  0000001000+00000048+00000+0001T   00000048+0000001040          1400 SJ1090               1AZ
104457000104457               104457               170213OU     1400+00000+OU0000002630+0000002630+000000000+000000369+0000002990+0000000009+I20000000000+0000002990+Z
104457001104457142-000812     104457006003000165421GLOVES LATEX 10PCE-5PRS0000001000+00002630+00000+0001T   00002630+0000001051          1400 SJ1810               1AZ
104458000104458               104458               170213OU     1400+00000+OU0000001753+0000001753+000000000+000000246+0000001990+0000000009+I20000000000+0000001990+Z
104458001104458038-092232     104458006001023625830TABLE-MAT N/SLIP 32x55 0000001000+00001753+00000+0001T   00001753+0000001053          1400 SJ1300               1AZ
104459000104459               104459               170213OU     1400+00000+OU0000012649+0000012649+000000000+000001776+0000014425+0000000000+I40000014425+0000000000+Z
104459001104459903-004962     104459008410525221880SWT FINI BLCK/RED 50g  0000009000+00000964+00000+0001T   00000964+0000001057          1400 SJ1150               1AZ
104459002104459112-116038     104459006003000534906TCS CARRIER BAG MIDI   0000001000+00000035+00000+0001T   00000035+0000001057          1400 SJ1090               1AZ
104459003104459903-000211     104459006002099001238SWT GS MALLOW ICE CREAM0000001000+00001753+00000+0001T   00001753+0000001057          1400 SJ1150               1AZ
104459004104459903-000012     104459006002099007308SWT MALLOW S/BERRY     0000005000+00000437+00000+0001T   00000437+0000001057          1400 SJ1150               1AZ
104460000104460               104460               170213OU     1400+00000+OU0000001753+0000001753+000000000+000000246+0000001999+0000000000+I40000001999+0000000000+Z
104460001104460077-000381     104460006003000247707GIFT-BAG 25X32CM S/COL 0000001000+00001753+00000+0001T   00001753+0000001059          1400 SJ1112               1AZ
104461000104461               104461               170213OU     1400+00000+OU0000005297+0000005297+000000000+000000742+0000006030+0000000009+I20000000000+0000006030+Z
104461001104461567-010161     104461009780000008516BOOK TOP ASSTD MILLS   0000001000+00005262+00000+0001T   00005262+0000001112          1400 SJ1757               1AZ
104461002104461112-116038     104461006003000534906TCS CARRIER BAG MIDI   0000001000+00000035+00000+0001T   00000035+0000001112          1400 SJ1090               1AZ
104462000104462               104462               170213OU     1400+00000+OU0000015390+0000015390+000000000+000002157+0000017540+0000000007+I20000000000+0000017540+Z
104462001104462105-001021     104462006003000667062CONTAINER MICRO/FREEZER0000001000+00001753+00000+0001T   00002630+0008161115          1400 SJ1210               1AZ
104462002104462027-009025     104462006003962000747DUSTPAN-SET PL         0000001000+00002630+00000+0001T   00002630+0000001115          1400 SJ1212               1AZ
104462003104462051-002402     104462006001023518347TRIGGER-SPRAYER  500ml 0000001000+00001753+00000+0001T   00001753+0000001115          1400 SJ1820               1AZ
104462004104462051-002400     104462006001023616180TRIGGER-SPRAYER 900ml  0000001000+00002192+00000+0001T   00002192+0000001115          1400 SJ1820               1AZ
104462005104462200-000111     104462006003000676668PICNIC CUPS DOME 300ml 0000002000+00003507+00000+0001T   00003507+0000001115          1400 SJ1214               1AZ
104462006104462112-116069     104462006009681820277TCS CARRIER BAG JUMBO  0000001000+00000048+00000+0001T   00000048+0000001115          1400 SJ1090               1AZ
104463000104463               104463               170213OU     1400+00000+OU0000008767+0000008767+000000000+000001228+0000009990+0000000005+I20000000000+0000009990+Z
104463001104463079-006500     104463006001023557186GLUE GLITTER 6/10 PCE  0000001000+00001753+00000+0001T   00001753+0000001205          1400 SJ1130               1AZ
104463002104463006-000097     104463006003000376612PARTY WIND SPINNER     0000002000+00003507+00000+0001T   00003507+0000001205          1400 SJ1131               1AZ
104464000104464               104464               170213OU     1400+00000+OU0000014065+0000014065+000000000+000001971+0000016036+0000000000+I40000016036+0000000000+Z
104464001104464368-000152     104464006003000166886PLUSH BEAR 15cm        0000001000+00003946+00000+0001T   00005262+0008141207          1400 SJ1745               1AZ
104464002104464077-000011-R   104464006001023808462P/TISSUE DARK 10-SHEETS0000001000+00000876+00000+0001T   00000876+0000001207          1400 SJ1112               1AZ
104464003104464001-000175     104464006001023788108B/MUG GLS LOVE 380ML   0000001000+00004385+00000+0001T   00004385+0000001207          1400 SJ1515               1AZ
104464004104464301-085001     104464006003000297610ORN WATERBALL LOVE ASST0000001000+00004823+00000+0001T   00004823+0000001207          1400 SJ1505               1AZ
104464005104464112-116038     104464006009681820246TCS CARRIER BAG MIDI   0000001000+00000035+00000+0001T   00000035+0000001207          1400 SJ1090               1AZ
104465000104465               104465               170213OU     1400+00000+OU0000001753+0000001753+000000000+000000246+0000001990+0000000009+I20000000000+0000001990+Z
104465001104465466-000200     104465006001023621665HULA-HOOP     ASSTD    0000001000+00001753+00000+0001T   00001753+0000001209          1400 SJ1785               1AZ
104466000104466               104466               170213OU     1400+00000+OU0000002190+0000002190+000000000+000000308+0000002498+0000000000+I40000002498+0000000000+Z
104466001104466077-000005-D   104466006003000414567PAPER TISSUE 50x70cm   0000001000+00001753+00000+0001T   00001753+0000001213          1400 SJ1112               1AZ
104466002104466080-000133-A   104466006003000647019MINI VALENTINES CARD   0000001000+00000437+00000+0001T   00000437+0000001213          1400 SJ1112               1AZ
104467000104467               104467               170213OU     1400+00000+OU0000008768+0000008768+000000000+000001228+0000009990+0000000006+I20000000000+0000009990+Z
104467001104467024-091103     104467006003453014307BAKING-CUP MUFFIN 50PCE0000004000+00002192+00000+0001T   00002192+0000001213          1400 SJ1300               1AZ
104468000104468               104468               170213OU     1400+00000+OU0000012053+0000012053+000000000+000001692+0000013745+0000000000+I40000013745+0000000000+Z
104468001104468903-000077     104468006939873501687SWT GS MAGIC ROCK FRUIT0000005000+00000525+00000+0001T   00000525+0000001220          1400 SJ1150               1AZ
104468002104468206-000150     104468006003000628667SLICER CUCUMBER        0000001000+00002192+00000+0001T   00002192+0000001220          1400 SJ1321               1AZ
104468003104468077-000303     104468006001023593757GIFT-BAG PAPER MED     0000001000+00001578+00000+0001T   00001578+0000001220          1400 SJ1112               1AZ
104468004104468077-000299     104468006003000395576G/BAG 32x25cm LRG LOVE 0000002000+00001490+00000+0001T   00001490+0000001220          1400 SJ1112               1AZ
104468005104468077-000270     104468006003000395453GIFT-BAG PPR JMB 33X45 0000001000+00002630+00000+0001T   00002630+0000001220          1400 SJ1112               1AZ
104468006104468112-116069     104468006009681820277TCS CARRIER BAG JUMBO  0000001000+00000048+00000+0001T   00000048+0000001220          1400 SJ1090               1AZ
104469000104469               104469               170213OU     1400+00000+OU0000002192+0000002192+000000000+000000307+0000002499+0000000000+I40000002499+0000000000+Z
104469001104469080-000127     104469006003000424351VALENTINES DAY 36x24CM 0000001000+00002192+00000+0001T   00002192+0000001221          1400 SJ1112               1AZ
104470000104470               104470               170213OU     1400+00000+OU0000001753+0000001753+000000000+000000246+0000001990+0000000009+I20000000000+0000001990+Z
104470001104470080-000115     104470006003000237333CARD&ENVELOPE - BLANKS 0000001000+00001753+00000+0001T   00001753+0000001226          1400 SJ1112               1AZ
104471000104471               104471               170213OU     1400+00000+OU0000019337+0000019337+000000000+000002710+0000022047+0000000000+I40000022047+0000000000+Z
104471001104471369-000200     104471006001023856982BABY EDU CUP STACKING  0000001000+00002630+00000+0001T   00002630+0000001227          1400 SJ1745               1AZ
104471002104471079-000514     104471009556341898321CRAYONS WAX 24-COLOUR  0000001000+00002630+00000+0001T   00002630+0000001227          1400 SJ1130               1AZ
104471003104471566-000006     104471006001023671189STICKER-BOOK DRESS-UP  0000001000+00002630+00000+0001T   00002630+0000001227          1400 SJ1130               1AZ
104471004104471079-006498     104471006001023836151GLITTER SET 10PCE      0000001000+00003507+00000+0001T   00003507+0000001227          1400 SJ1130               1AZ
104471005104471567-011437     104471009781847508683BK COLOURING GIRLS     0000001000+00003507+00000+0001T   00003507+0000001227          1400 SJ1757               1AZ
104471006104471079-000261     104471006003000159727PAINT WATER COLOUR CAKE0000001000+00004385+00000+0001T   00004385+0000001227          1400 SJ1130               1AZ
104471007104471112-116069     104471006009681820277TCS CARRIER BAG JUMBO  0000001000+00000048+00000+0001T   00000048+0000001227          1400 SJ1090               1AZ
104472000104472               104472               170213OU     1400+00000+OU0000004385+0000004385+000000000+000000614+0000004990+0000000009+I20000000000+0000004990+Z
104472001104472031-000874-B   104472006001023798831P/FRAME WDN P/BOX 13X180000001000+00004385+00000+0001T   00004385+0000001228          1400 SJ1510               1AZ
104473000104473               104473               170213OU     1400+00000+OU0000006959+0000006959+000000000+000000976+0000007930+0000000005+I20000000000+0000007930+Z
104473001104473024-091103-A   104473006003000419876B/CUP PAPER SET 48PC   0000002000+00001753+00000+0001T   00001753+0000001236          1400 SJ1300               1AZ
104473002104473018-000170     104473006001023775528MUG OCC. LOVE 2PC MINI 0000001000+00002192+00000+0001T   00002192+0000001236          1400 SJ1515               1AZ
104473003104473150-004030-H   104473006001023435798BATH-PLUG RUBBER WHITE 0000001000+00000613+00000+0001T   00000613+0000001236          1400 SJ1810               1AZ
104473004104473150-004028-H   104473006003000649976BATH-PLUG RUBBER BLACK 0000001000+00000613+00000+0001T   00000613+0000001236          1400 SJ1810               1AZ
104473005104473112-116038     104473006009681820246TCS CARRIER BAG MIDI   0000001000+00000035+00000+0001T   00000035+0000001236          1400 SJ1090               1AZ
104474000104474               104474               170213OU     1400+00000+OU0000057694+0000057694+000000000+000008089+0000065780+0000000003+I20000000000+0000065780+Z
104474001104474112-116069     104474006009681820277TCS CARRIER BAG JUMBO  0000001000+00000048+00000+0001T   00000048+0000001240          1400 SJ1090               1AZ
104474002104474105-000750     104474006003000190270CONTAINERS 4xMINI 150ml0000002000+00001402+00000+0001T   00001402+0000001240          1400 SJ1210               1AZ
104474003104474105-001005     104474006001023858214CONTAINERS MINI 6PCE   0000001000+00001402+00000+0001T   00001402+0000001240          1400 SJ1210               1AZ
104474004104474200-000012     104474006003000399536BAG 50PCE 165x146mm    0000001000+00003507+00000+0001T   00003507+0000001240          1400 SJ1214               1AZ
104474005104474200-000011     104474006003000613489DISPOSABLE BAG ZIPER   0000001000+00003507+00000+0001T   00003507+0000001240          1400 SJ1214               1AZ
104474006104474034-091340     104474006001023754370BABY-BIB PRINT MUM/DAD 0000001000+00003069+00000+0001T   00003069+0000001240          1400 SJ1215               1AZ
104474007104474362-019381     104474006001023869579HAIR BAND SET 100PCE   0000001000+00002630+00000+0001T   00002630+0000001240          1400 SJ1160               1AZ
104474008104474079-006500     104474006001023557186GLUE GLITTER 6/10 PCE  0000001000+00001753+00000+0001T   00001753+0000001240          1400 SJ1130               1AZ
104474009104474079-014153     104474006003000253166ART+CRAFT DRAGON PK6   0000001000+00002630+00000+0001T   00002630+0000001240          1400 SJ1130               1AZ
104474010104474362-019282     104474006003000258079H/ACCESS 16PC BEAD HNDL0000001000+00003507+00000+0001T   00003507+0000001240          1400 SJ1160               1AZ
104474011104474024-000072     104474006001023849502EGG-WHISK SET-OF-3     0000001000+00003507+00000+0001T   00003507+0000001240          1400 SJ1300               1AZ
104474012104474567-011477     104474009781472380357BK BK COLOURING FAIRIES0000001000+00002630+00000+0001T   00002630+0000001240          1400 SJ1757               1AZ
104474013104474567-011521     104474009781775954743BK EDU AFR SLIMKOPPE   0000001000+00002630+00000+0001T   00002630+0000001240          1400 SJ1757               1AZ
104474014104474567-011476     104474009781472385826BK STICKER TINKER BELL 0000001000+00003507+00000+0001T   00003507+0000001240          1400 SJ1757               1AZ
104474015104474112-116069     104474006009681820277TCS CARRIER BAG JUMBO  0000001000+00000048+00000+0001T   00000048+0000001240          1400 SJ1090               1AZ
104474016104474566-000004-A   104474006001023614629STICKER BOOK VELVET    0000001000+00001139+00000+0001T   00001578+0008151240          1400 SJ1130               1AZ
104474017104474566-000991     104474000721129013121STICKERS GLOW-IN-DARK  0000001000+00002192+00000+0001T   00002192+0000001240          1400 SJ1130               1AZ
104474018104474566-000535     104474006003000284719STICKER SPARKLE EMBOSS 0000001000+00001753+00000+0001T   00001753+0000001240          1400 SJ1130               1AZ
104474019104474566-000006     104474006001023671189STICKER-BOOK DRESS-UP  0000001000+00002630+00000+0001T   00002630+0000001240          1400 SJ1130               1AZ
104474020104474566-000065     104474006003000217915STICKERS GLITTER ASSTD 0000001000+00001753+00000+0001T   00001753+0000001240          1400 SJ1130               1AZ
104474021104474036-000151     104474006001023810588COATHANGERS    PACK-10 0000002000+00002893+00000+0001T   00002893+0000001240          1400 SJ1212               1AZ
104474022104474566-000321     104474006003000423019STICKER R/DEC BALLERINA0000001000+00005262+00000+0001T   00005262+0000001240          1400 SJ1130               1AZ
104475000104475               104475               170213OU     1400+00000+OU0000001139+0000001139+000000000+000000160+0000001290+0000000009+I20000000000+0000001290+Z
104475001104475046-000014     104475006001023725387BATTERIES SIZE:AAA 4PCE0000001000+00001139+00000+0001T   00001139+0000001243          1400 SJ1312               1AZ
104476000104476               104476               170213OU     1400+00000+OU0000012587+0000012587+000000000+000001764+0000014351+0000000000+I40000014351+0000000000+Z
104476001104476072-020308     104476006001023700971DOG-TOY FOOTBALL 11,5cm0000001000+00001753+00000+0001T   00001753+0000001251          1400 SJ1870               1AZ
104476002104476566-000068     104476006003000418046POP UP LOVE 2 ASSTD    0000001000+00002192+00000+0001T   00002192+0000001251          1400 SJ1130               1AZ
104476003104476566-001234     104476006003000217793STICKERS LASER ASSTD   0000001000+00001578+00000+0001T   00001578+0000001251          1400 SJ1130               1AZ
104476004104476079-000298     104476006003000647156PAINT SET FINGER PAINT 0000001000+00007016+00000+0001T   00007893+0008191251          1400 SJ1130               1AZ
104476005104476112-116069     104476006009681820277TCS CARRIER BAG JUMBO  0000001000+00000048+00000+0001T   00000048+0000001251          1400 SJ1090               1AZ
104477000104477               104477               170213OU     1400+00000+OU0000002628+0000002628+000000000+000000368+0000002990+0000000006+I20000000000+0000002990+Z
104477001104477006-000166-D   104477006003000516490BALLOONS LRG 6PC RED   0000001000+00001314+00000+0001T   00001314+0000001251          1400 SJ1131               1AZ
104477002104477006-000166-G   104477006003000607976BALLOONS HELIUM 6PC BLK0000001000+00001314+00000+0001T   00001314+0000001251          1400 SJ1131               1AZ
104478000104478               104478               170213OU     1400+00000+OU0000015994+0000015994+000000000+000002240+0000018230+0000000004+I20000000000+0000018230+Z
104478001104478204-000008     104478006003000567652MEMO HLDR MOM POLY     0000001000+00004385+00000+0001T   00004385+0000001253          1400 SJ1300               1AZ
104478002104478301-085003     104478006003000420827ORN OCCASION LOVE KEY  0000001000+00005262+00000+0001T   00005262+0000001253          1400 SJ1505               1AZ
104478003104478077-000303     104478006001023593757GIFT-BAG PAPER MED     0000002000+00001578+00000+0001T   00001578+0000001253          1400 SJ1112               1AZ
104478004104478080-000124     104478006003000297733CARD & ENV VALENTINES  0000002000+00001578+00000+0001T   00001578+0000001253          1400 SJ1112               1AZ
104478005104478112-116038     104478006003000534906TCS CARRIER BAG MIDI   0000001000+00000035+00000+0001T   00000035+0000001253          1400 SJ1090               1AZ
104479000104479               104479               170213OU     1400+00000+OU0000015959+0000015959+000000000+000002236+0000018195+0000000000+I40000018195+0000000000+Z
104479001104479369-001018     104479006001023712141BATH EVA STICKERS 30PC 0000001000+00004385+00000+0001T   00004385+0000001257          1400 SJ1745               1AZ
104479002104479369-000215     104479006001023857071BABY EDU BATHTIME BOATS0000001000+00002630+00000+0001T   00002630+0000001257          1400 SJ1745               1AZ
104479003104479034-078836     104479006003000622122COOEY FEEDING BOWLS 3PC0000001000+00003069+00000+0001T   00003069+0000001257          1400 SJ1215               1AZ
104479004104479031-000849     104479006001023851932P/FRM COLLAGE 3-HOLE   0000001000+00004385+00000+0001T   00004385+0000001257          1400 SJ1510               1AZ
104479005104479077-000299     104479006003000395576G/BAG 32x25cm LRG LOVE 0000001000+00001490+00000+0001T   00001490+0000001257          1400 SJ1112               1AZ
104480000104480               104480               170213OU     1400+00000+OU0000001355+0000001355+000000000+000000191+0000001540+0000000006+I20000000000+0000001540+Z
104480001104480083-000049     104480004891035200024CIG-LIGHTER DISPOSABLE 0000001000+00000437+00000+0001T   00000437+0000001258          1400 SJ1315               1AZ
104480002104480079-009700-D   104480006003000545711PAPER SIRIO A4 RED COL.0000003000+00000306+00000+0001T   00000306+0000001258          1400 SJ1130               1AZ
104481000104481               104481               170213OU     1400+00000+OU0000006536+0000006536+000000000+000000916+0000007452+0000000000+I40000007452+0000000000+Z
104481001104481105-001020     104481006001023898159LUNCH BOX 13.5x6.5cm   0000001000+00002192+00000+0001T   00002192+0000001302          1400 SJ1210               1AZ
104481002104481903-000095     104481006001704011495SWT SPECKLED-EGGS 100G 0000001000+00002104+00000+0001T   00002104+0000001302          1400 SJ1150               1AZ
104481003104481080-000127     104481006003000424351VALENTINES DAY 36x24CM 0000001000+00002192+00000+0001T   00002192+0000001302          1400 SJ1112               1AZ
104481004104481112-116069     104481006009681820277TCS CARRIER BAG JUMBO  0000001000+00000048+00000+0001T   00000048+0000001302          1400 SJ1090               1AZ
104482000104482               104482               170213OU     1400+00000+OU0000003331+0000003331+000000000+000000467+0000003798+0000000000+I40000003798+0000000000+Z
104482001104482077-000303     104482006001023593757GIFT-BAG PAPER MED     0000001000+00001578+00000+0001T   00001578+0000001406          1400 SJ1112               1AZ
104482002104482089-000030     104482006003000575671K/CHAIN LOVE MTL ASSTD 0000001000+00001753+00000+0001T   00001753+0000001406          1400 SJ1205               1AZ
104483000104483               104483               170213OU     1400+00000+OU0000002103+0000002103+000000000+000000295+0000002398+0000000000+I40000002398+0000000000+Z
104483001104483200-000065     104483006001023323675DRINKING-STRAWS 38PCE  0000001000+00000613+00000+0001T   00000613+0000001410          1400 SJ1214               1AZ
104483002104483079-000807     104483006003000670277ART+CRAFT WOODEN STICKS0000001000+00001490+00000+0001T   00001490+0000001410          1400 SJ1130               1AZ
104484000104484               104484               170213OU     1400+00000+OU0000038934+0000038934+000000000+000005456+0000044390+0000000000+I40000044390+0000000000+Z
104484001104484112-116069     104484006009681820277TCS CARRIER BAG JUMBO  0000001000+00000048+00000+0001T   00000048+0000001417          1400 SJ1090               1AZ
104484002104484565-000990     104484006001023673510NOVELTY STICKY SLAPPER 0000001000-00001490+00000+0001T   00001490+0000001417          1400 SJ17451IC            1 Z
104484003104484565-000990     104484006001023673510NOVELTY STICKY SLAPPER 0000001000+00001490+00000+0001T   00001490+0000001417          1400 SJ17451IC            1AZ
104484004104484266-001025     104484006003000108756BOYS TOYS SWORD 75cm   0000001000+00005262+00000+0001T   00005262+0000001417          1400 SJ1710               1AZ
104484005104484464-009104     104484006001023620279GAME POOL-TABLE 25x42cm0000001000+00005262+00000+0001T   00005262+0000001417          1400 SJ1785               1AZ
104484006104484903-000211     104484006002099001238SWT GS MALLOW ICE CREAM0000004000+00001753+00000+0001T   00001753+0000001417          1400 SJ1150               1AZ
104484007104484112-116069     104484006009681820277TCS CARRIER BAG JUMBO  0000001000+00000048+00000+0001T   00000048+0000001417          1400 SJ1090               1AZ
104484008104484077-000303     104484006001023593757GIFT-BAG PAPER MED     0000004000+00001578+00000+0001T   00001578+0000001417          1400 SJ1112               1AZ
104484009104484077-000010-C   104484006001023123879CREPE-PAPER RED        0000001000+00000788+00000+0001T   00000788+0000001417          1400 SJ1112               1AZ
104484010104484018-000127     104484006001023380289MUG OCC STRAIGHT LOVE  0000004000+00001578+00000+0001T   00001753+0006471417          1400 SJ1515               1AZ
104484011104484560-000700     104484006001023865830GROWING ANIMALS ASSTD  0000005000+00001578+00000+0001T   00001578+0000001417          1400 SJ1745               1AZ
104485000104485               104485               170213OU     1400+00000+OU0000008819+0000008819+000000000+000001235+0000010050+0000000004+I20000000000+0000010050+Z
104485001104485019-000040     104485006001023673640VASE GLS 30CM CYLINDER 0000001000+00008771+00000+0001T   00008771+0000001419          1400 SJ1510               1AZ
104485002104485112-116069     104485006009681820277TCS CARRIER BAG JUMBO  0000001000+00000048+00000+0001T   00000048+0000001419          1400 SJ1090               1AZ
104486000104486               104486               170213OU     1400+00000+OU0000000306+0000000306+000000000+000000043+0000000340+0000000009+I20000000000+0000000340+Z
104486001104486079-009700-D   104486006003000545711PAPER SIRIO A4 RED COL.0000001000+00000306+00000+0001T   00000306+0000001421          1400 SJ1130               1AZ
104487000104487               104487               170213OU     1400+00000+OU0000014645+0000014645+000000000+000002052+0000016690+0000000007+I20000000000+0000016690+Z
104487001104487368-000111     104487006001023780812PLUSH BEAR/DOG 29CM    0000001000+00012279+00000+0001T   00012279+0000001422          1400 SJ1745               1AZ
104487002104487047-000505     104487006009636901976PLUG-ADAPTOR 2-PIN     0000001000+00000876+00000+0001T   00000876+0000001422          1400 SJ1880               1AZ
104487003104487077-000299     104487006003000395576G/BAG 32x25cm LRG LOVE 0000001000+00001490+00000+0001T   00001490+0000001422          1400 SJ1112               1AZ
104488000104488               104488               170213OU     1400+00000+OU0000015785+0000015785+000000000+000002212+0000017990+0000000007+I20000000000+0000017990+Z
104488001104488368-000111     104488006001023780812PLUSH BEAR/DOG 29CM    0000001000+00012279+00000+0001T   00012279+0000001423          1400 SJ1745               1AZ
104488002104488077-000299-A   104488006003000670888GIFT-BAG PAPER JMB LOVE0000002000+00001753+00000+0001T   00001753+0000001423          1400 SJ1112               1AZ
104489000104489               104489               170213OU     1400+00000+OU0000000048+0000000048+000000000+000000007+0000000050+0000000005+I20000000000+0000000050+Z
104489001104489112-116069     104489006009681820277TCS CARRIER BAG JUMBO  0000001000+00000048+00000+0001T   00000048+0000001424          1400 SJ1090               1AZ
104490000104490               104490               170213OU     1400+00000+OU0000019340+0000019340+000000000+000002710+0000022050+0000000000+I40000022050+0000000000+Z
104490001104490072-020295     104490006003000451609PET CAT TOY MOUSE W/ZIP0000002000+00002630+00000+0001T   00002630+0000001426          1400 SJ1870               1AZ
104490002104490024-000118     104490006001023422316N/STICK C/PAN HEART    0000001000+00004385+00000+0001T   00004385+0000001426          1400 SJ1300               1AZ
104490003104490104-000183     104490006003000593729CUTLERY DRAINER 3DIV PL0000001000+00005262+00000+0001T   00005262+0000001426          1400 SJ1210               1AZ
104490004104490124-002005     104490006001023907158TRAY TIN 33cm DIAMETER 0000001000+00004385+00000+0001T   00004385+0000001426          1400 SJ1300               1AZ
104490005104490112-116069     104490006009681820277TCS CARRIER BAG JUMBO  0000001000+00000048+00000+0001T   00000048+0000001426          1400 SJ1090               1AZ
104491000104491               104491               170213OU     1400+00000+OU0000010525+0000010525+000000000+000001474+0000011999+0000000000+I40000011999+0000000000+Z
104491001104491263-000180     104491006001023790712TRUCK PL TRANSPORTER   0000001000+00010525+00000+0001T   00010525+0000001430          1400 SJ1710               1AZ
104492000104492               104492               170213OU     1400+00000+OU0000009817+0000009817+000000000+000001377+0000011194+0000000000+I40000011194+0000000000+Z
104492001104492903-000619     104492006003000672455SWT LOLLY STR/BRRY 140G0000001000+00001753+00000+0001T   00001753+0000001434          1400 SJ1150               1AZ
104492002104492903-000087     104492006001704000161SWT SPECKLED-EGGS 50G  0000001000+00001139+00000+0001T   00001139+0000001434          1400 SJ1150               1AZ
104492003104492566-000068     104492006003000418046POP UP LOVE 2 ASSTD    0000001000+00002192+00000+0001T   00002192+0000001434          1400 SJ1130               1AZ
104492004104492563-000317-H   104492006001023776358SERVIETTE DOTS+STRIPES 0000001000+00002630+00000+0001T   00002630+0000001434          1400 SJ1214               1AZ
104492005104492903-000499     104492006001704012492SWT CHOC MALLOWS 50g   0000001000+00001227+00000+0001T   00001227+0000001434          1400 SJ1150               1AZ
104492006104492903-000494     104492006001704009911SWT GUMMY TEENY TEDDIES0000001000+00000876+00000+0001T   00000876+0000001434          1400 SJ1150               1AZ
104493000104493               104493               170213OU     1400+00000+OU0000001753+0000001753+000000000+000000246+0000001990+0000000009+I20000000000+0000001990+Z
104493001104493566-000036     104493006003000384051STICKERS MOTIVATION    0000001000+00001753+00000+0001T   00001753+0000001435          1400 SJ1130               1AZ
104494000104494               104494               170213OU     1400+00000+OU0000002630+0000002630+000000000+000000369+0000002990+0000000009+I20000000000+0000002990+Z
104494001104494019-000131     104494006003000456253PLANT. T/PLATE 10X12.5 0000001000+00002630+00000+0001T   00002630+0000001444          1400 SJ1510               1AZ
104495000104495               104495               170213OU     1400+00000+OU0000011350+0000011350+000000000+000001593+0000012943+0000000000+I40000012943+0000000000+Z
104495001104495903-000216     104495006925925900966SWT MALLOW TWIST ERKO  0000001000+00000262+00000+0001T   00000262+0000001448          1400 SJ1150               1AZ
104495002104495162-092944     104495006001492929446SS 3PK KIDS H/BANDS    0000001000+00003507+00000+0001T   00003507+0000001448          1400 SJ1160               1AZ
104495003104495903-000012     104495006002099007308SWT MALLOW S/BERRY     0000001000+00000437+00000+0001T   00000437+0000001448          1400 SJ1150               1AZ
104495004104495903-000810     104495006009680772249SWT FROOTEEZ SOUR 50g  0000001000+00000876+00000+0001T   00000876+0000001448          1400 SJ1150               1AZ
104495005104495903-003051     104495008024431008703SWT CHOCO PARTY 25G    0000001000+00000876+00000+0001T   00000876+0000001448          1400 SJ1150               1AZ
104495006104495366-006103     104495006001023786944DRESS UP FACE PAINT SET0000001000+00002630+00000+0001T   00002630+0000001448          1400 SJ1131               1AZ
104495007104495077-000299     104495006003000395576G/BAG 32x25cm LRG LOVE 0000001000+00001490+00000+0001T   00001490+0000001448          1400 SJ1112               1AZ
104495008104495079-009700-D   104495006003000545711PAPER SIRIO A4 RED COL.0000004000+00000306+00000+0001T   00000306+0000001448          1400 SJ1130               1AZ
104495009104495112-116069     104495006009681820277TCS CARRIER BAG JUMBO  0000001000+00000048+00000+0001T   00000048+0000001448          1400 SJ1090               1AZ
104496000104496               104496               170213OU     1400+00000+OU0000063161+0000063161+000000000+000008861+0000072022+0000000000+I40000072022+0000000000+Z
104496001104496077-000299-A   104496006003000670888GIFT-BAG PAPER JMB LOVE0000002000+00001753+00000+0001T   00001753+0000001452          1400 SJ1112               1AZ
104496002104496077-000005-B   104496006003000326617PAPER TISSUE PATTERN   0000002000+00002630+00000+0001T   00002630+0000001452          1400 SJ1112               1AZ
104496003104496077-000011-C   104496006001023808523TISSUE 10xSHTS RED     0000002000+00000876+00000+0001T   00000876+0000001452          1400 SJ1112               1AZ
104496004104496301-085007     104496006003000673698ORN OCC. LOVE S/PLAQUE 0000001000+00007893+00000+0001T   00007893+0000001452          1400 SJ1505               1AZ
104496005104496080-000133-A   104496006003000647019MINI VALENTINES CARD   0000006000+00000437+00000+0001T   00000437+0000001452          1400 SJ1112               1AZ
104496006104496112-116069     104496006009681820277TCS CARRIER BAG JUMBO  0000001000+00000048+00000+0001T   00000048+0000001452          1400 SJ1090               1AZ
104496007104496903-000095     104496006001704011495SWT SPECKLED-EGGS 100G 0000020000+00002104+00000+0001T   00002104+0000001452          1400 SJ1150               1AZ
104497000104497               104497               170213OU     1400+00000+OU0000004504+0000004504+000000000+000000632+0000005130+0000000006+I20000000000+0000005130+Z
104497001104497028-000797     104497006001023812124SKEWERS 15cm 100PCE    0000001000+00000876+00000+0001T   00000876+0000001453          1400 SJ1305               1AZ
104497002104497493-059010     104497000078257590100BEACH-BALL COLOR-PANELS0000001000+00001490+00000+0001T   00001490+0000001453          1400 SJ1787               1AZ
104497003104497006-000102     104497006001023806819BALLOONS W/BOMBS 50PCE 0000001000+00001490+00000+0001T   00001490+0000001453          1400 SJ1131               1AZ
104497004104497200-000065     104497006001023323675DRINKING-STRAWS 38PCE  0000001000+00000613+00000+0001T   00000613+0000001453          1400 SJ1214               1AZ
104497005104497112-116038     104497006003000534906TCS CARRIER BAG MIDI   0000001000+00000035+00000+0001T   00000035+0000001453          1400 SJ1090               1AZ
104498000104498               104498               170213OU     1400+00000+OU0000004385+0000004385+000000000+000000614+0000004990+0000000009+I20000000000+0000004990+Z
104498001104498368-000001     104498006003000097982Plush Bear 25cm        0000001000+00004385+00000+0001T   00004385+0000001455          1400 SJ1745               1AZ
104499000104499               104499               170213OU     1400+00000+OU0000004385+0000004385+000000000+000000614+0000004990+0000000009+I20000000000+0000004990+Z
104499001104499368-000001     104499006003000097982Plush Bear 25cm        0000001000+00004385+00000+0001T   00004385+0000001455          1400 SJ1745               1AZ
104500000104500               104500               170213OU     1400+00000+OU0000007713+0000007713+000000000+000001081+0000008794+0000000000+I40000008794+0000000000+Z
104500001104500306-000524     104500006003000571215TOOTHBRUSH ADULT       0000001000+00001314+00000+0001T   00001314+0000001458          1400 SJ1200               1AZ
104500002104500133-000029     104500006001023911346FACE-CLOTH 30x30cm 32g 0000002000+00001490+00000+0001T   00001490+0000001458          1400 SJ1212               1AZ
104500003104500306-000510     104500006001024000469T/BRUSH ADULT CROSS    0000001000+00001227+00000+0001T   00001227+0000001458          1400 SJ1200               1AZ
104500004104500077-000920     104500006003000413812G/WRAP 700mmx2m BIRTHDA0000001000+00002192+00000+0001T   00002192+0000001458          1400 SJ1112               1AZ
104501000104501               104501               170213OU     1400+00000+OU0000001753+0000001753+000000000+000000246+0000001990+0000000009+I20000000000+0000001990+Z
104501001104501077-000011     104501006003000542352PAPER RAFFIA ASSTD COL 0000001000+00001753+00000+0001T   00001753+0000001458          1400 SJ1112               1AZ
104502000104502               104502               170213OU     1400+00000+OU0000023153+0000023153+000000000+000003243+0000026396+0000000000+I40000026396+0000000000+Z
104502001104502368-000001     104502006003000097982Plush Bear 25cm        0000001000+00004385+00000+0001T   00004385+0000001504          1400 SJ1745               1AZ
104502002104502018-019000     104502006003000557288MUG OCC. LOVE JUMBO    0000001000+00005262+00000+0001T   00005262+0000001504          1400 SJ1515               1AZ
104502003104502368-000637     104502006001023874092PLUSH BEAR SLEEPING LOV0000001000+00011402+00000+0001T   00012279+0006471504          1400 SJ1745               1AZ
104502004104502903-000095     104502006001704011495SWT SPECKLED-EGGS 100G 0000001000+00002104+00000+0001T   00002104+0000001504          1400 SJ1150               1AZ
104503000104503               104503               170213OU     1400+00000+OU0000001314+0000001314+000000000+000000184+0000001490+0000000008+I20000000000+0000001490+Z
104503001104503006-000166-H   104503006003000608096BALLOONS HELIUM 6PC WHT0000001000+00001314+00000+0001T   00001314+0000001504          1400 SJ1131               1AZ
104504000104504               104504               170213OU     1400+00000+OU0000002367+0000002367+000000000+000000332+0000002690+0000000009+I20000000000+0000002690+Z
104504001104504046-000010-A   104504006003000438778BATTERIES SIZE:AAA 4PCE0000001000+00002367+00000+0001T   00002367+0000001508          1400 SJ1312               1AZ
104505000104505               104505               170213OU     1400+00000+OU0000001314+0000001314+000000000+000000184+0000001490+0000000008+I20000000000+0000001490+Z
104505001104505107-004105     104505006002923010504BUCKET 9L OPEN         0000001000+00001314+00000+0001T   00001314+0000001508          1400 SJ1210               1AZ
104506000104506               104506               170213OU     1400+00000+OU0000000048+0000000048+000000000+000000007+0000000050+0000000005+I20000000000+0000000050+Z
104506001104506112-116069     104506006009681820277TCS CARRIER BAG JUMBO  0000001000+00000048+00000+0001T   00000048+0000001510          1400 SJ1090               1AZ
104507000104507               104507               170213OU     1400+00000+OU0000005347+0000005347+000000000+000000750+0000006090+0000000007+I20000000000+0000006090+Z
104507001104507007-000302     104507006009635830000BOOK H/COVER A4 96-PAGE0000002000+00001139+00000+0001T   00001139+0000001510          1400 SJ1130               1AZ
104507002104507038-001805     104507006003000466405DOILIES PAPER 60PC 3ASS0000001000+00003069+00000+0001T   00003069+0000001510          1400 SJ1300               1AZ
104508000104508               104508               170213OU     1400+00000+OU0000001753+0000001753+000000000+000000246+0000001990+0000000009+I20000000000+0000001990+Z
104508001104508089-000030     104508006003000575671K/CHAIN LOVE MTL ASSTD 0000001000+00001753+00000+0001T   00001753+0000001511          1400 SJ1205               1AZ
104509000104509               104509               170213OU     1400+00000+OU0000003507+0000003507+000000000+000000491+0000003990+0000000008+I20000000000+0000003990+Z
104509001104509083-000077     104509006003000092581LIGHTER LONG-REACH 18cm0000001000+00003507+00000+0001T   00003507+0000001511          1400 SJ1315               1AZ
104510000104510               104510               170213OU     1400+00000+OU0000001490+0000001490+000000000+000000209+0000001699+0000000000+I40000001699+0000000000+Z
104510001104510079-006494     104510006003000159864GLITTER GLUE 5PCE 11cm 0000001000+00001490+00000+0001T   00001490+0000001514          1400 SJ1130               1AZ
104511000104511               104511               170213OU     1400+00000+OU0000000874+0000000874+000000000+000000124+0000000990+0000000008+I20000000000+0000000990+Z
104511001104511903-000012     104511006002099007308SWT MALLOW S/BERRY     0000002000+00000437+00000+0001T   00000437+0000001514          1400 SJ1150               1AZ
104512000104512               104512               170213OU     1400+00000+OU0000003331+0000003331+000000000+000000467+0000003790+0000000008+I20000000000+0000003790+Z
104512001104512077-000011-C   104512006001023808523TISSUE 10xSHTS RED     0000001000+00000876+00000+0001T   00000876+0000001515          1400 SJ1112               1AZ
104512002104512077-000380     104512006003000247585GIFT-BAG 33X45CM S/COL 0000001000+00002455+00000+0001T   00002455+0000001515          1400 SJ1112               1AZ
104513000104513               104513               170213OU     1400+00000+OU0000001753+0000001753+000000000+000000246+0000001990+0000000009+I20000000000+0000001990+Z
104513001104513027-783000     104513006001023874641SCOURERS RAINBOW 5PCE  0000001000+00001753+00000+0001T   00001753+0000001517          1400 SJ1212               1AZ
104514000104514               104514               170213OU     1400+00000+OU0000002014+0000002014+000000000+000000283+0000002297+0000000000+I40000002297+0000000000+Z
104514001104514077-000299     104514006003000395576G/BAG 32x25cm LRG LOVE 0000001000+00001490+00000+0001T   00001490+0000001520          1400 SJ1112               1AZ
104514002104514903-000099     104514006923431501646SWT CANDY GS WTCH B/LET0000002000+00000262+00000+0001T   00000262+0000001520          1400 SJ1150               1AZ
104515000104515               104515               170213OU     1400+00000+OU0000011884+0000011884+000000000+000001665+0000013540+0000000009+I20000000000+0000013540+Z
104515001104515903-000077     104515006939873501687SWT GS MAGIC ROCK FRUIT0000001000+00000525+00000+0001T   00000525+0000001522          1400 SJ1150               1AZ
104515002104515018-000177     104515006001023797513MUG MINI LOVE ASSTD    0000001000+00000700+00000+0001T   00000700+0000001522          1400 SJ1515               1AZ
104515003104515368-000614     104515006001023705808PLUSH LOVE 30cm        0000001000+00008771+00000+0001T   00008771+0000001522          1400 SJ1745               1AZ
104515004104515077-000299     104515006003000395576G/BAG 32x25cm LRG LOVE 0000001000+00001490+00000+0001T   00001490+0000001522          1400 SJ1112               1AZ
104515005104515903-000159     104515006003000417629SWT LB SMALL DUMMIE    0000001000+00000350+00000+0001T   00000350+0000001522          1400 SJ1150               1AZ
104515006104515112-116069     104515006009681820277TCS CARRIER BAG JUMBO  0000001000+00000048+00000+0001T   00000048+0000001522          1400 SJ1090               1AZ
104516000104516               104516               170213OU     1400+00000+OU0000014957+0000014957+000000000+000002095+0000017052+0000000000+I40000017052+0000000000+Z
104516001104516368-000020     104516006003000672028PLUSH DINOSAUR 37cm    0000001000+00008771+00000+0001T   00008771+0000001523          1400 SJ1745               1AZ
104516002104516362-002464     104516006003000167388HAIR EXT 30cm 6PCS COL 0000001000+00001753+00000+0001T   00001753+0000001523          1400 SJ1160               1AZ
104516003104516368-006004     104516006003000671076PLUSH DOLPHIN          0000001000+00004385+00000+0001T   00004385+0000001523          1400 SJ1745               1AZ
104516004104516112-116069     104516006009681820277TCS CARRIER BAG JUMBO  0000001000+00000048+00000+0001T   00000048+0000001523          1400 SJ1090               1AZ
104517000104517               104517               170213OU     1400+00000+OU0000008771+0000008771+000000000+000001228+0000009999+0000000000+I40000009999+0000000000+Z
104517001104517006-000165     104517006001023758392BALLOONS LRG BAG-OF-1000000001000+00008771+00000+0001T   00008771+0000001525          1400 SJ1131               1AZ
104518000104518               104518               170213OU     1400+00000+OU0000021915+0000021915+000000000+000003074+0000024980+0000000009+I20000000000+0000024980+Z
104518001104518903-000619     104518006003000672455SWT LOLLY STR/BRRY 140G0000006000+00001753+00000+0001T   00001753+0000001528          1400 SJ1150               1AZ
104518002104518903-000518     104518006001704012782SWT STRAWS S/BERRY 100g0000001000+00001227+00000+0001T   00001227+0000001528          1400 SJ1150               1AZ
104518003104518903-000087     104518006001704000161SWT SPECKLED-EGGS 50G  0000001000+00001139+00000+0001T   00001139+0000001528          1400 SJ1150               1AZ
104518004104518006-000190     104518006003000685530BALLOONS LOVE 81x91cm  0000001000+00004385+00000+0001T   00004385+0000001528          1400 SJ1131               1AZ
104518005104518566-000068     104518006003000418046POP UP LOVE 2 ASSTD    0000001000+00002192+00000+0001T   00002192+0000001528          1400 SJ1130               1AZ
104518006104518306-000021-A   104518006001023891358EARBUDS COTTON 100PCE  0000001000+00000876+00000+0001T   00000876+0000001528          1400 SJ1200               1AZ
104518007104518079-009700-D   104518006003000545711PAPER SIRIO A4 RED COL.0000005000+00000306+00000+0001T   00000306+0000001528          1400 SJ1130               1AZ
104518008104518112-116069     104518006009681820277TCS CARRIER BAG JUMBO  0000001000+00000048+00000+0001T   00000048+0000001528          1400 SJ1090               1AZ
104519000104519               104519               170213OU     1400+00000+OU0000002190+0000002190+000000000+000000307+0000002490+0000000007+I20000000000+0000002490+Z
104519001104519903-000520     104519006001704009898SWT GUMMY MINI SOUR 60g0000001000+00000876+00000+0001T   00000876+0000001529          1400 SJ1150               1AZ
104519002104519077-000310     104519006001023608635GIFT-BAG 18X23CM GLOSS 0000001000+00001314+00000+0001T   00001314+0000001529          1400 SJ1112               1AZ
104520000104520               104520               170213OU     1400+00000+OU0000052315+0000052315+000000000+000007329+0000059644+0000000000+I40000059644+0000000000+Z
104520001104520903-004963     104520008410525221873SWT GUMMY SOUR COLA 50g0000001000+00000964+00000+0001T   00000964+0000001533          1400 SJ1150               1AZ
104520002104520039-001022     104520006001023617835CANDLE BALL WHITE BOX-20000001000+00002630+00000+0001T   00002630+0000001533          1400 SJ1510               1AZ
104520003104520039-080942     104520006001023669872C/PILLAR RND WHT 10X7CM0000001000+00003507+00000+0001T   00003507+0000001533          1400 SJ1510               1AZ
104520004104520040-001009     104520006003000581009C/HLDR-SET 3PC HOLDERS 0000001000+00008771+00000+0001T   00013157+0008171533          1400 SJ1510               1AZ
104520005104520036-000013     104520006001246500860LINT REMOVER REFILLS   0000001000+00003946+00000+0001T   00003946+0000001533          1400 SJ1212               1AZ
104520006104520024-001248     104520006001023759146N/STICK CAKE-MOLD ROUND0000001000+00012279+00000+0001T   00012279+0000001533          1400 SJ1300               1AZ
104520007104520039-809558     104520006003000344376CANDLE PILLAR 12CM 4AST0000001000+00006139+00000+0001T   00006139+0000001533          1400 SJ1510               1AZ
104520008104520019-000080     104520006001023775740VASE GLS FLORIST BALL  0000001000+00008771+00000+0001T   00008771+0000001533          1400 SJ1510               1AZ
104520009104520019-071601     104520006001023771995RIVER-STONES 1kg WHITE 0000002000+00002630+00000+0001T   00002630+0000001533          1400 SJ1510               1AZ
104520010104520112-116069     104520006009681820277TCS CARRIER BAG JUMBO  0000001000+00000048+00000+0001T   00000048+0000001533          1400 SJ1090               1AZ
104521000104521               104521               170213OU     1400+00000+OU0000005875+0000005875+000000000+000000823+0000006690+0000000008+I20000000000+0000006690+Z
104521001104521077-000299     104521006003000395576G/BAG 32x25cm LRG LOVE 0000001000+00001490+00000+0001T   00001490+0000001534          1400 SJ1112               1AZ
104521002104521031-080508     104521006001023802415P/FRAME PL 22X11CM LOVE0000001000+00004385+00000+0001T   00004385+0000001534          1400 SJ1510               1AZ
104522000104522               104522               170213OU     1400+00000+OU0000014943+0000014943+000000000+000002093+0000017036+0000000000+I40000017036+0000000000+Z
104522001104522004-071204     104522006003000624904USB IN-CAR CHARGER 2.1A0000001000+00003507+00000+0001T   00003507+0000001535          1400 SJ1310               1AZ
104522002104522004-071215     104522006003000459360MOBILE SELFI STICK 80cm0000001000+00007016+00000+0001T   00007016+0000001535          1400 SJ1310               1AZ
104522003104522206-000180     104522006003000631223TEA INFUSER TEAMAN     0000001000+00004385+00000+0001T   00004385+0000001535          1400 SJ1321               1AZ
104522004104522112-116038     104522006003000534906TCS CARRIER BAG MIDI   0000001000+00000035+00000+0001T   00000035+0000001535          1400 SJ1090               1AZ
104523000104523               104523               170213OU     1400+00000+OU0000013275+0000013275+000000000+000001860+0000015135+0000000000+I40000015135+0000000000+Z
104523001104523206-000180     104523006003000631223TEA INFUSER TEAMAN     0000002000+00004385+00000+0001T   00004385+0000001537          1400 SJ1321               1AZ
104523002104523903-000087     104523006001704000161SWT SPECKLED-EGGS 50G  0000002000+00001139+00000+0001T   00001139+0000001537          1400 SJ1150               1AZ
104523003104523206-000150     104523006003000628667SLICER CUCUMBER        0000001000+00002192+00000+0001T   00002192+0000001537          1400 SJ1321               1AZ
104523004104523112-116038     104523006003000534906TCS CARRIER BAG MIDI   0000001000+00000035+00000+0001T   00000035+0000001537          1400 SJ1090               1AZ
104524000104524               104524               170213OU     1400+00000+OU0000006885+0000006885+000000000+000000966+0000007851+0000000000+I40000007851+0000000000+Z
104524001104524162-097717     104524006001492977171#TAG NEW SILVER E/PIERC0000001000+00001139+00000+0001T   00001139+0000001539          1400 SJ1160               1AZ
104524002104524903-000918     104524006009802868522SWEET GUM TAPE H/KITTY 0000001000+00001753+00000+0001T   00001753+0000001539          1400 SJ1150               1AZ
104524003104524466-008889     104524006001023835376WHISTLE SPORTS+STRING  0000001000+00001753+00000+0001T   00001753+0000001539          1400 SJ1785               1AZ
104524004104524080-000127     104524006003000424351VALENTINES DAY 36x24CM 0000001000+00002192+00000+0001T   00002192+0000001539          1400 SJ1112               1AZ
104524005104524112-116069     104524006009681820277TCS CARRIER BAG JUMBO  0000001000+00000048+00000+0001T   00000048+0000001539          1400 SJ1090               1AZ
104525000104525               104525               170213OU     1400+00000+OU0000002453+0000002453+000000000+000000344+0000002797+0000000000+I40000002797+0000000000+Z
104525001104525077-000381     104525006003000247707GIFT-BAG 25X32CM S/COL 0000001000+00001753+00000+0001T   00001753+0000001540          1400 SJ1112               1AZ
104525002104525903-000120     104525006002099001665SWEET GS ZILLIONS 50g  0000001000+00000700+00000+0001T   00000700+0000001540          1400 SJ1150               1AZ
104526000104526               104526               170213OU     1400+00000+OU0000001753+0000001753+000000000+000000246+0000001999+0000000000+I40000001999+0000000000+Z
104526001104526077-000316     104526006001023609731GIFT-BAG 25X32CM MATT  0000001000+00001753+00000+0001T   00001753+0000001542          1400 SJ1112               1AZ
104527000104527               104527               170213OU     1400+00000+OU0000010519+0000010519+000000000+000001474+0000011993+0000000000+I40000011993+0000000000+Z
104527001104527200-000067     104527006003000330683STRAWS DRINKING 100PC  0000001000+00002192+00000+0001T   00002192+0000001546          1400 SJ1214               1AZ
104527002104527079-104303     104527006003000186259SKETCH PAD A3   48 PAGE0000001000+00003507+00000+0001T   00003507+0000001546          1400 SJ1130               1AZ
104527003104527028-000797     104527006001023812124SKEWERS 15cm 100PCE    0000001000+00000876+00000+0001T   00000876+0000001546          1400 SJ1305               1AZ
104527004104527071-005214     104527006003000152544CELLOTAPE SUPER REFILL 0000001000+00001490+00000+0001T   00001490+0000001546          1400 SJ1130               1AZ
104527005104527002-021060     104527006001023359438TOOTHPICKS 50PC WRAP   0000001000+00001227+00000+0001T   00001227+0000001546          1400 SJ1300               1AZ
104527006104527002-021042     104527006001023621801TOOTHPICKS 250PCE      0000001000+00001227+00000+0001T   00001227+0000001546          1400 SJ1300               1AZ
104528000104528               104528               170213OU     1400+00000+OU0000011572+0000011572+000000000+000001622+0000013194+0000000000+I40000013194+0000000000+Z
104528001104528018-000170     104528006001023775528MUG OCC. LOVE 2PC MINI 0000001000+00002192+00000+0001T   00002192+0000001547          1400 SJ1515               1AZ
104528002104528105-001005     104528006001023858214CONTAINERS MINI 6PCE   0000001000+00001402+00000+0001T   00001402+0000001547          1400 SJ1210               1AZ
104528003104528903-000898     104528006922516801503SWT POPPING CANDY      0000001000+00001139+00000+0001T   00001139+0000001547          1400 SJ1150               1AZ
104528004104528903-000862     104528005010478533912SWT DOUBLE DIP 19G     0000001000+00001139+00000+0001T   00001139+0000001547          1400 SJ1150               1AZ
104528005104528075-000412     104528006001023855299SHOPPER-BASKET PL      0000001000+00005700+00000+0001T   00005700+0000001547          1400 SJ1160               1AZ
104529000104529               104529               170213OU     1400+00000+OU0000001490+0000001490+000000000+000000209+0000001690+0000000009+I20000000000+0000001690+Z
104529001104529079-006494     104529006003000159864GLITTER GLUE 5PCE 11cm 0000001000+00001490+00000+0001T   00001490+0000001547          1400 SJ1130               1AZ
104530000104530               104530               170213OU     1400+00000+OU0000033310+0000033310+000000000+000004671+0000037981+0000000000+I40000037981+0000000000+Z
104530001104530903-000610     104530006003000610518SWEET JUMBO BUBBLE GUM 0000003000+00001753+00000+0001T   00001753+0000001559          1400 SJ1150               1AZ
104530002104530028-000797     104530006001023812124SKEWERS 15cm 100PCE    0000001000+00000876+00000+0001T   00000876+0000001559          1400 SJ1305               1AZ
104530003104530206-000450     104530006003000619863DRINKING JAR GLOBE     0000003000+00002630+00000+0001T   00002630+0000001559          1400 SJ1321               1AZ
104530004104530022-002106     104530006003000142712MUG EN 6cm ASSTD COLORS0000005000+00001139+00000+0001T   00001139+0000001559          1400 SJ1305               1AZ
104530005104530022-001328     104530006003000667505PLATE ENAMEL 24CM WHITE0000003000+00001314+00000+0001T   00001314+0000001559          1400 SJ1305               1AZ
104530006104530030-004015     104530006003000467624PLAQUE WDN SIGN 30X20CM0000001000+00009648+00000+0001T   00009648+0000001559          1400 SJ1505               1AZ
104531000104531               104531               170213OU     1400+00000+OU0000012275+0000012275+000000000+000001720+0000013995+0000000000+I40000013995+0000000000+Z
104531001104531362-000299     104531006003000654758HAIR CLIPS METAL WORDS 0000001000+00001753+00000+0001T   00001753+0000001601          1400 SJ1160               1AZ
104531002104531073-000519     104531006001023871763COSMETIC-BG CYLINDRICAL0000001000+00003507+00000+0001T   00003507+0000001601          1400 SJ1200               1AZ
104531003104531077-000324     104531006001023677594GIFT-BAG 33X45CM E/D FL0000001000+00001753+00000+0001T   00001753+0000001601          1400 SJ1112               1AZ
104531004104531031-006541     104531006001023695062P/FRAME COLLAGE PL ASST0000001000+00005262+00000+0001T   00005262+0000001601          1400 SJ1510               1AZ
104532000104532               104532               170213OU     1400+00000+OU0000002366+0000002366+000000000+000000332+0000002690+0000000008+I20000000000+0000002690+Z
104532001104532047-000001-BB  104532006001023723536INS-TAPE BLACK 18mmx10m0000001000+00000613+00000+0001T   00000613+0000001601          1400 SJ1880               1AZ
104532002104532077-000354     104532006003000139224GIFT-BAG 25X32CM H/MADE0000001000+00001753+00000+0001T   00001753+0000001601          1400 SJ1112               1AZ
104533000104533               104533               170213OU     1400+00000+OU0000017540+0000017540+000000000+000002457+0000019990+0000000007+I20000000000+0000019990+Z
104533001104533560-000245     104533006001023622716RUBBER ANIMALS 10PC ASS0000001000+00007016+00000+0001T   00007016+0000001602          1400 SJ1745               1AZ
104533002104533464-009011     104533006003000647675FISHING WITH TWO RODS  0000001000+00005262+00000+0001T   00005262+0000001602          1400 SJ1785               1AZ
104533003104533466-002096     104533006001023800398CATCHBALL VELCRO W/BALL0000001000+00005262+00000+0001T   00005262+0000001602          1400 SJ1785               1AZ
104534000104534               104534               170213OU     1400+00000+OU0000001753+0000001753+000000000+000000246+0000001990+0000000009+I20000000000+0000001990+Z
104534001104534077-000308     104534006001023595812GIFT-BAG 33X45CM E/DAY 0000001000+00001753+00000+0001T   00001753+0000001603          1400 SJ1112               1AZ
104535000104535               104535               170213OU     1400+00000+OU0000002630+0000002630+000000000+000000369+0000002990+0000000009+I20000000000+0000002990+Z
104535001104535018-000129     104535006001023403353MUG OCC. LOVE V-SHAPE  0000001000+00002630+00000+0001T   00002630+0000001604          1400 SJ1515               1AZ
104536000104536               104536               170213OU     1400+00000+OU0000000035+0000000035+000000000+000000005+0000000040+0000000000+I20000000000+0000000040+Z
104536001104536112-116038     104536006009681820246TCS CARRIER BAG MIDI   0000001000+00000035+00000+0001T   00000035+0000001604          1400 SJ1090               1AZ
104537000104537               104537               170213OU     1400+00000+OU0000001753+0000001753+000000000+000000246+0000001990+0000000009+I20000000000+0000001990+Z
104537001104537077-000299-A   104537006003000670888GIFT-BAG PAPER JMB LOVE0000001000+00001753+00000+0001T   00001753+0000001609          1400 SJ1112               1AZ
104538000104538               104538               170213OU     1400+00000+OU0000003542+0000003542+000000000+000000496+0000004038+0000000000+I40000004038+0000000000+Z
104538001104538018-000136     104538006001023659026MUG OCC LOVE W/PLUSH   0000001000+00003507+00000+0001T   00003507+0000001611          1400 SJ1515               1AZ
104538002104538112-116038     104538006009681820246TCS CARRIER BAG MIDI   0000001000+00000035+00000+0001T   00000035+0000001611          1400 SJ1090               1AZ
104539000104539               104539               170213OU     1400+00000+OU0000003507+0000003507+000000000+000000491+0000003990+0000000008+I20000000000+0000003990+Z
104539001104539113-000001     104539006003000088690TRAVEL MUG 400ml S/S   0000001000+00003507+00000+0001T   00003507+0000001612          1400 SJ1305               1AZ
104540000104540               104540               170213OU     1400+00000+OU0000003068+0000003068+000000000+000000430+0000003490+0000000008+I20000000000+0000003490+Z
104540001104540566-000068     104540006003000418046POP UP LOVE 2 ASSTD    0000001000+00002192+00000+0001T   00002192+0000001613          1400 SJ1130               1AZ
104540002104540077-000151     104540006008766114676GIFT-WRAP C/PHANE ASSTD0000001000+00000876+00000+0001T   00000876+0000001613          1400 SJ1112               1AZ
104541000104541               104541               170213OU     1400+00000+OU0000005261+0000005261+000000000+000000737+0000005990+0000000008+I20000000000+0000005990+Z
104541001104541368-000001     104541006003000097982Plush Bear 25cm        0000001000+00004385+00000+0001T   00004385+0000001618          1400 SJ1745               1AZ
104541002104541903-000809     104541006009680772232SWT CANDY FROOTEEZ 50g 0000001000+00000876+00000+0001T   00000876+0000001618          1400 SJ1150               1AZ
104542000104542               104542               170213OU     1400+00000+OU0000007451+0000007451+000000000+000001045+0000008496+0000000000+I40000008496+0000000000+Z
104542001104542077-000926     104542006003000414178G/WRAP 700mmx2m LOVE   0000001000+00002192+00000+0001T   00002192+0000001621          1400 SJ1112               1AZ
104542002104542077-000467     104542006003000329991GIFT-BAG STAMP 18X23CM 0000003000+00001753+00000+0001T   00001753+0000001621          1400 SJ1112               1AZ
104543000104543               104543               170213OU     1400+00000+OU0000001753+0000001753+000000000+000000246+0000001990+0000000009+I20000000000+0000001990+Z
104543001104543263-000010     104543006003000551293VEHICLE ANIMAL WORLD 3p0000001000+00001753+00000+0001T   00001753+0000001622          1400 SJ1710               1AZ
104544000104544               104544               170213OU     1400+00000+OU0000004385+0000004385+000000000+000000614+0000004990+0000000009+I20000000000+0000004990+Z
104544001104544162-087900     104544006001492879000SS GLAMOUR NK & ER SET 0000001000+00004385+00000+0001T   00004385+0000001622          1400 SJ1160               1AZ
104545000104545               104545               170213OU     1400+00000+OU0000004385+0000004385+000000000+000000614+0000004999+0000000000+I40000004999+0000000000+Z
104545001104545368-000049     104545006003000536955PLUSH BEAR 15cm LOVE   0000001000+00004385+00000+0001T   00004385+0000001625          1400 SJ1745               1AZ
104546000104546               104546               170213OU     1400+00000+OU0000000000+0000000000+000000000+000000000+0000000000+0000000000+I20000000000+0000000000+Z
104546001104546162-087900     104546006001492879000SS GLAMOUR NK & ER SET 0000001000-00004385+00000+0001T   00004385+0000001627          1400 SJ11602IC            1 Z
104546002104546368-000001     104546006003000097982Plush Bear 25cm        0000001000+00004385+00000+0001T   00004385+0000001627          1400 SJ1745               1 Z
104547000104547               104547               170213OU     1400+00000+OU0000001753+0000001753+000000000+000000246+0000001990+0000000009+I20000000000+0000001990+Z
104547001104547108-005005     104547006003000667451TRAY PL 29x21cm RECT   0000001000+00001753+00000+0001T   00001753+0000001631          1400 SJ1210               1AZ
104548000104548               104548               170213OU     1400+00000+OU0000001753+0000001753+000000000+000000246+0000001999+0000000000+I40000001999+0000000000+Z
104548001104548077-000471     104548006003000330096G-BAG DESGN MED 18X23CM0000001000+00001753+00000+0001T   00001753+0000001636          1400 SJ1112               1AZ
104549000104549               104549               170213OU     1400+00000+OU0000000876+0000000876+000000000+000000123+0000000990+0000000009+I20000000000+0000000990+Z
104549001104549077-000011-C   104549006001023808523TISSUE 10xSHTS RED     0000001000+00000876+00000+0001T   00000876+0000001637          1400 SJ1112               1AZ
104550000104550               104550               170213OU     1400+00000+OU0000009080+0000009080+000000000+000001272+0000010352+0000000000+I40000010352+0000000000+Z
104550001104550903-000216     104550006925925900966SWT MALLOW TWIST ERKO  0000001000+00000262+00000+0001T   00000262+0000001638          1400 SJ1150               1AZ
104550002104550368-000001     104550006003000097982Plush Bear 25cm        0000002000+00004385+00000+0001T   00004385+0000001638          1400 SJ1745               1AZ
104550003104550112-116069     104550006009681820277TCS CARRIER BAG JUMBO  0000001000+00000048+00000+0001T   00000048+0000001638          1400 SJ1090               1AZ
104551000104551               104551               170213OU     1400+00000+OU0000002192+0000002192+000000000+000000307+0000002490+0000000009+I20000000000+0000002490+Z
104551001104551080-000127     104551006003000424351VALENTINES DAY 36x24CM 0000001000+00002192+00000+0001T   00002192+0000001639          1400 SJ1112               1AZ
104552000104552               104552               170213OU     1400+00000+OU0000003418+0000003418+000000000+000000479+0000003897+0000000000+I40000003897+0000000000+Z
104552001104552007-000206     104552006009635830215X/PAD 80-SHEETS PUNCHED0000002000+00001227+00000+0001T   00001227+0000001641          1400 SJ1130               1AZ
104552002104552007-000204     104552006009635835272EXAM-PAD 60SHT PUNCHED 0000001000+00000964+00000+0001T   00000964+0000001641          1400 SJ1130               1AZ
104553000104553               104553               170213OU     1400+00000+OU0000004384+0000004384+000000000+000000614+0000004990+0000000008+I20000000000+0000004990+Z
104553001104553566-000068     104553006003000418046POP UP LOVE 2 ASSTD    0000002000+00002192+00000+0001T   00002192+0000001641          1400 SJ1130               1AZ
104554000104554               104554               170213OU     1400+00000+OU0000006696+0000006696+000000000+000000939+0000007635+0000000000+I40000007635+0000000000+Z
104554001104554080-000124     104554006003000297733CARD & ENV VALENTINES  0000001000+00001578+00000+0001T   00001578+0000001643          1400 SJ1112               1AZ
104554002104554301-085002     104554006003000420704ORN OCC. LOVE BELL ASST0000001000+00001753+00000+0001T   00002630+0008121643          1400 SJ1505               1AZ
104554003104554018-000127     104554006001023380289MUG OCC STRAIGHT LOVE  0000001000+00001578+00000+0001T   00001753+0006471643          1400 SJ1515               1AZ
104554004104554903-000295     104554006001704002899SWT MS FRUITY RASCALS  0000002000+00000876+00000+0001T   00000876+0000001643          1400 SJ1150               1AZ
104554005104554112-116038     104554006003000534906TCS CARRIER BAG MIDI   0000001000+00000035+00000+0001T   00000035+0000001643          1400 SJ1090               1AZ
104555000104555               104555               170213OU     1400+00000+OU0000002454+0000002454+000000000+000000344+0000002798+0000000000+I40000002798+0000000000+Z
104555001104555077-000315     104555006003000181186GIFT-BAG 20x28cm MATT  0000001000+00001578+00000+0001T   00001578+0000001649          1400 SJ1112               1AZ
104555002104555077-000151     104555006008766114676GIFT-WRAP C/PHANE ASSTD0000001000+00000876+00000+0001T   00000876+0000001649          1400 SJ1112               1AZ
104556000104556               104556               170213OU     1400+00000+OU0000005118+0000005118+000000000+000000718+0000005830+0000000006+I20000000000+0000005830+Z
104556001104556077-000251     104556006003000639106GIFT-DECOR RIBBON      0000001000+00002630+00000+0001T   00002630+0000001650          1400 SJ1112               1AZ
104556002104556033-010721     104556006001023678669SAFETY-PINS 20PCE ASSTD0000001000+00000700+00000+0001T   00000700+0000001650          1400 SJ1200               1AZ
104556003104556903-000908     104556006009802868331SWT YOYO HOT WHEELS    0000001000+00001753+00000+0001T   00001753+0000001650          1400 SJ1150               1AZ
104556004104556112-116038     104556006003000534906TCS CARRIER BAG MIDI   0000001000+00000035+00000+0001T   00000035+0000001650          1400 SJ1090               1AZ
104557000104557               104557               170213OU     1400+00000+OU0000001753+0000001753+000000000+000000246+0000001990+0000000009+I20000000000+0000001990+Z
104557001104557077-000011     104557006003000542352PAPER RAFFIA ASSTD COL 0000001000+00001753+00000+0001T   00001753+0000001651          1400 SJ1112               1AZ
104558000104558               104558               170213OU     1400+00000+OU0000009604+0000009604+000000000+000001347+0000010951+0000000000+I40000010951+0000000000+Z
104558001104558080-000127     104558006003000424351VALENTINES DAY 36x24CM 0000001000+00002192+00000+0001T   00002192+0000001652          1400 SJ1112               1AZ
104558002104558903-002851     104558000000087108538MENTOS ROLL STRAWBERRY 0000001000+00001051+00000+0001T   00001051+0000001652          1400 SJ1150               1AZ
104558003104558903-002850     104558000000087108262MENTOS ROLL FRUIT      0000001000+00001051+00000+0001T   00001051+0000001652          1400 SJ1150               1AZ
104558004104558018-019000     104558006003000557288MUG OCC. LOVE JUMBO    0000001000+00005262+00000+0001T   00005262+0000001652          1400 SJ1515               1AZ
104558005104558112-116069     104558006009681820277TCS CARRIER BAG JUMBO  0000001000+00000048+00000+0001T   00000048+0000001652          1400 SJ1090               1AZ
104559000104559               104559               170213OU     1400+00000+OU0000008026+0000008026+000000000+000001126+0000009150+0000000002+I20000000000+0000009150+Z
104559001104559080-000133     104559006003000535613CARD&ENV MINI ASTD DSGN0000001000+00000437+00000+0001T   00000437+0000001653          1400 SJ1112               1AZ
104559002104559018-005007     104559006003000515516MUG OCC. LOVE W/HEARTS 0000001000+00006139+00000+0001T   00006139+0000001653          1400 SJ1515               1AZ
104559003104559304-001204     104559006001023737984FLOWER OCC. TEDDY/ROSES0000001000+00001402+00000+0001T   00001490+0006471653          1400 SJ1510               1AZ
104559004104559112-116069     104559006009681820277TCS CARRIER BAG JUMBO  0000001000+00000048+00000+0001T   00000048+0000001653          1400 SJ1090               1AZ
104560000104560               104560               170213OU     1400+00000+OU0000020163+0000020163+000000000+000002826+0000022980+0000000009+I20000000000+0000022980+Z
104560001104560903-000503     104560006001704006118SWT VAMPIRE FANGS 60G  0000002000+00000876+00000+0001T   00000876+0000001657          1400 SJ1150               1AZ
104560002104560075-000412     104560006001023855299SHOPPER-BASKET PL      0000002000+00005700+00000+0001T   00005700+0000001657          1400 SJ1160               1AZ
104560003104560903-000215     104560006002099001214SWT GS MALLOW TWIST PAC0000003000+00001753+00000+0001T   00001753+0000001657          1400 SJ1150               1AZ
104560004104560133-098002     104560006003000461011TABLE MAT 33x48cm      0000002000+00000876+00000+0001T   00001227+0008121657          1400 SJ1212               1AZ
104561000104561               104561               170213OU     1400+00000+OU0000008727+0000008727+000000000+000001224+0000009950+0000000001+I20000000000+0000009950+Z
104561001104561077-000150-D   104561006003000054343GIFT-WRAP CELLPHANE CLR0000001000+00000876+00000+0001T   00000876+0000001659          1400 SJ1112               1AZ
104561002104561903-000095     104561006001704011495SWT SPECKLED-EGGS 100G 0000001000+00002104+00000+0001T   00002104+0000001659          1400 SJ1150               1AZ
104561003104561903-000619     104561006003000672455SWT LOLLY STR/BRRY 140G0000001000+00001753+00000+0001T   00001753+0000001659          1400 SJ1150               1AZ
104561004104561103-000473     104561006003000631087BAMBOO FLOWER BASKET   0000001000+00003946+00000+0001T   00003946+0000001659          1400 SJ1300               1AZ
104561005104561112-116069     104561006009681820277TCS CARRIER BAG JUMBO  0000001000+00000048+00000+0001T   00000048+0000001659          1400 SJ1090               1AZ
104562000104562               104562               170213OU     1400+00000+OU0000014076+0000014076+000000000+000001971+0000016040+0000000007+I20000000000+0000016040+Z
104562001104562018-005009     104562006001023725608MUG W/PLUSH-BEAR LOVE  0000003000+00003507+00000+0001T   00003507+0000001700          1400 SJ1515               1AZ
104562002104562112-116069     104562006009681820277TCS CARRIER BAG JUMBO  0000001000+00000048+00000+0001T   00000048+0000001700          1400 SJ1090               1AZ
104562003104562077-000932     104562006003000409808G/WRAP 700mmx5m PATTERN0000001000+00003507+00000+0001T   00003507+0000001700          1400 SJ1112               1AZ
104563000104563               104563               170213OU     1400+00000+OU0000001753+0000001753+000000000+000000246+0000001990+0000000009+I20000000000+0000001990+Z
104563001104563133-000010     104563006001023905215CLEANING CLOTHS 6PCE   0000001000+00001753+00000+0001T   00001753+0000001701          1400 SJ1212               1AZ
104564000104564               104564               170213OU     1400+00000+OU0000013153+0000013153+000000000+000001842+0000014990+0000000005+I20000000000+0000014990+Z
104564001104564075-000412     104564006001023855299SHOPPER-BASKET PL      0000002000+00005700+00000+0001T   00005700+0000001701          1400 SJ1160               1AZ
104564002104564006-000124     104564006003000625888BALLOONS 10PC MIX COL  0000001000+00001753+00000+0001T   00001753+0000001701          1400 SJ1131               1AZ
104565000104565               104565               170213OU     1400+00000+OU0000005206+0000005206+000000000+000000730+0000005936+0000000000+I40000005936+0000000000+Z
104565001104565077-000470     104565006003000330171G-BAG DESGN SML 11X14CM0000001000+00001314+00000+0001T   00001314+0000001703          1400 SJ1112               1AZ
104565002104565903-000095     104565006001704011495SWT SPECKLED-EGGS 100G 0000001000+00002104+00000+0001T   00002104+0000001703          1400 SJ1150               1AZ
104565003104565089-000019     104565006003000092291K/CHAIN MINI BOOT 13cm 0000001000+00001753+00000+0001T   00001753+0000001703          1400 SJ1205               1AZ
104565004104565112-116038     104565006009681820246TCS CARRIER BAG MIDI   0000001000+00000035+00000+0001T   00000035+0000001703          1400 SJ1090               1AZ
104566000104566               104566               170213OU     1400+00000+OU0000018154+0000018154+000000000+000002543+0000020697+0000000000+I40000020697+0000000000+Z
104566001104566368-000001     104566006003000097982Plush Bear 25cm        0000001000+00004385+00000+0001T   00004385+0000001705          1400 SJ1745               1AZ
104566002104566368-000111     104566006001023780812PLUSH BEAR/DOG 29CM    0000001000+00012279+00000+0001T   00012279+0000001705          1400 SJ1745               1AZ
104566003104566077-000299     104566006003000395576G/BAG 32x25cm LRG LOVE 0000001000+00001490+00000+0001T   00001490+0000001705          1400 SJ1112               1AZ
104567000104567               104567               170213OU     1400+00000+OU0000014071+0000014071+000000000+000001975+0000016046+0000000000+I40000016046+0000000000+Z
104567001104567077-000316     104567006001023609731GIFT-BAG 25X32CM MATT  0000001000+00001753+00000+0001T   00001753+0000001708          1400 SJ1112               1AZ
104567002104567077-000240     104567006003000326259G/RIBBON 4PC PEARLIZED 0000001000+00001753+00000+0001T   00001753+0000001708          1400 SJ1112               1AZ
104567003104567077-000011-X   104567006001023809827TISSUE-WRAP SILVER 10PC0000001000+00001753+00000+0001T   00001753+0000001708          1400 SJ1112               1AZ
104567004104567018-000025     104567006003000095056MUG S/WARE V-SHAPE CER.0000002000+00002630+00000+0001T   00002630+0000001708          1400 SJ1515               1AZ
104567005104567112-116069     104567006009681820277TCS CARRIER BAG JUMBO  0000001000+00000048+00000+0001T   00000048+0000001708          1400 SJ1090               1AZ
104567006104567903-000520     104567006001704009898SWT GUMMY MINI SOUR 60g0000004000+00000876+00000+0001T   00000876+0000001708          1400 SJ1150               1AZ
104568000104568               104568               170213OU     1400+00000+OU0000002192+0000002192+000000000+000000307+0000002490+0000000009+I20000000000+0000002490+Z
104568001104568080-000127     104568006003000424351VALENTINES DAY 36x24CM 0000001000+00002192+00000+0001T   00002192+0000001710          1400 SJ1112               1AZ
104569000104569               104569               170213OU     1400+00000+OU0000002630+0000002630+000000000+000000369+0000002990+0000000009+I20000000000+0000002990+Z
104569001104569077-000270     104569006003000395453GIFT-BAG PPR JMB 33X45 0000001000+00002630+00000+0001T   00002630+0000001711          1400 SJ1112               1AZ
104570000104570               104570               170213OU     1400+00000+OU0000002892+0000002892+000000000+000000405+0000003290+0000000007+I20000000000+0000003290+Z
104570001104570080-000124     104570006003000297733CARD & ENV VALENTINES  0000001000+00001578+00000+0001T   00001578+0000001712          1400 SJ1112               1AZ
104570002104570903-004952     104570006002580020052SWT FREAKY FACES 100G  0000001000+00001314+00000+0001T   00001314+0000001712          1400 SJ1150               1AZ
104571000104571               104571               170213OU     1400+00000+OU0000007060+0000007060+000000000+000000991+0000008051+0000000000+I40000008051+0000000000+Z
104571001104571304-001204     104571006001023737984FLOWER OCC. TEDDY/ROSES0000002000+00001402+00000+0001T   00001490+0006471714          1400 SJ1510               1AZ
104571002104571903-000095     104571006001704011495SWT SPECKLED-EGGS 100G 0000002000+00002104+00000+0001T   00002104+0000001714          1400 SJ1150               1AZ
104571003104571112-116069     104571006009681820277TCS CARRIER BAG JUMBO  0000001000+00000048+00000+0001T   00000048+0000001714          1400 SJ1090               1AZ
104572000104572               104572               170213OU     1400+00000+OU0000008272+0000008272+000000000+000001161+0000009433+0000000000+I40000009433+0000000000+Z
104572001104572301-085002     104572006003000420704ORN OCC. LOVE BELL ASST0000001000+00001753+00000+0001T   00002630+0008121718          1400 SJ1505               1AZ
104572002104572018-000177     104572006001023797513MUG MINI LOVE ASSTD    0000001000+00000700+00000+0001T   00000700+0000001718          1400 SJ1515               1AZ
104572003104572089-000030     104572006003000575671K/CHAIN LOVE MTL ASSTD 0000001000+00001753+00000+0001T   00001753+0000001718          1400 SJ1205               1AZ
104572004104572089-000099     104572006003000677566KEY CHAIN MTL SPORT AST0000001000+00000876+00000+0001T   00000876+0000001718          1400 SJ1205               1AZ
104572005104572304-001204     104572006001023737984FLOWER OCC. TEDDY/ROSES0000001000+00001402+00000+0001T   00001490+0006471718          1400 SJ1510               1AZ
104572006104572565-000889     104572006003000626953NOVELTY SPACE BALLOONS 0000001000+00001753+00000+0001T   00001753+0000001718          1400 SJ1745               1AZ
104572007104572112-116038     104572006009681820246TCS CARRIER BAG MIDI   0000001000+00000035+00000+0001T   00000035+0000001718          1400 SJ1090               1AZ
104573000104573               104573               170213OU     1400+00000+OU0000007928+0000007928+000000000+000001111+0000009039+0000000000+I40000009039+0000000000+Z
104573001104573369-001023     104573006001023712288BATH ANIMALS SQUEAKY 6P0000001000+00007893+00000+0001T   00007893+0000001725          1400 SJ1745               1AZ
104573002104573112-116038     104573006009681820246TCS CARRIER BAG MIDI   0000001000+00000035+00000+0001T   00000035+0000001725          1400 SJ1090               1AZ
104574000104574               104574               170213OU     1400+00000+OU0000008771+0000008771+000000000+000001228+0000009990+0000000009+I20000000000+0000009990+Z
104574001104574368-000099     104574006001023680259PLUSH DOG 23cm ASSTD   0000001000+00008771+00000+0001T   00008771+0000001725          1400 SJ1745               1AZ
104575000104575               104575               170213OU     1400+00000+OU0000005699+0000005699+000000000+000000798+0000006490+0000000007+I20000000000+0000006490+Z
104575001104575486-001012     104575006001023820907CLOCK ALARM SQR 10X12CM0000001000+00004385+00000+0001T   00004385+0000001726          1400 SJ1510               1AZ
104575002104575046-000012     104575006904708013062BATTERIES AA  CARD-OF-40000001000+00001314+00000+0001T   00001314+0000001726          1400 SJ1312               1AZ
104576000104576               104576               170213OU     1400+00000+OU0000003507+0000003507+000000000+000000491+0000003990+0000000008+I20000000000+0000003990+Z
104576001104576018-000136     104576006001023659026MUG OCC LOVE W/PLUSH   0000001000+00003507+00000+0001T   00003507+0000001730          1400 SJ1515               1AZ
104577000104577               104577               170213OU     1400+00000+OU0000000876+0000000876+000000000+000000123+0000000990+0000000009+I20000000000+0000000990+Z
104577001104577077-000150-D   104577006003000054343GIFT-WRAP CELLPHANE CLR0000001000+00000876+00000+0001T   00000876+0000001730          1400 SJ1112               1AZ
104578000104578               104578               170213OU     1400+00000+OU0000002192+0000002192+000000000+000000307+0000002490+0000000009+I20000000000+0000002490+Z
104578001104578080-000127     104578006003000424351VALENTINES DAY 36x24CM 0000001000+00002192+00000+0001T   00002192+0000001733          1400 SJ1112               1AZ
104579000104579               104579               170213OU     1400+00000+OU0000025036+0000025036+000000000+000003510+0000028540+0000000006+I20000000000+0000028540+Z
104579001104579105-002013     104579006002580008494CONTAINER SET 18PCE    0000001000+00007016+00000+0001T   00007016+0000001735          1400 SJ1210               1AZ
104579002104579562-000808     104579006003000651573EDU PEG BOARD SML      0000001000+00002630+00000+0001T   00002630+0000001735          1400 SJ1755               1AZ
104579003104579366-006103     104579006001023786944DRESS UP FACE PAINT SET0000001000+00002630+00000+0001T   00002630+0000001735          1400 SJ1131               1AZ
104579004104579903-000095     104579006001704011495SWT SPECKLED-EGGS 100G 0000001000+00002104+00000+0001T   00002104+0000001735          1400 SJ1150               1AZ
104579005104579366-004050     104579006003000308330DRESS UP TEEN BADGES   0000001000+00001490+00000+0001T   00001490+0000001735          1400 SJ1131               1AZ
104579006104579105-000750     104579006003000190270CONTAINERS 4xMINI 150ml0000001000+00001402+00000+0001T   00001402+0000001735          1400 SJ1210               1AZ
104579007104579103-000474     104579006003000630363BAMBOO FLOWER BASKET   0000001000+00005262+00000+0001T   00005262+0000001735          1400 SJ1300               1AZ
104579008104579903-000519     104579006001704012805SWT MS LIQ-O-GHETTI    0000002000+00001227+00000+0001T   00001227+0000001735          1400 SJ1150               1AZ
104579009104579112-116069     104579006009681820277TCS CARRIER BAG JUMBO  0000001000+00000048+00000+0001T   00000048+0000001735          1400 SJ1090               1AZ
104580000104580               104580               170213OU     1400+00000+OU0000015788+0000015788+000000000+000002211+0000017999+0000000000+I40000017999+0000000000+Z
104580001104580028-000025     104580006003000422395COOLER BAG 39x20x27cm  0000001000+00015788+00000+0001T   00015788+0000001737          1400 SJ1305               1AZ
104581000104581               104581               170213OU     1400+00000+OU0000014957+0000014957+000000000+000002095+0000017052+0000000000+I40000017052+0000000000+Z
104581001104581007-000653     104581006001023784469NOTE-BOOK SET+PEN+BAG  0000001000+00004385+00000+0001T   00004385+0000001739          1400 SJ1130               1AZ
104581002104581079-000198     104581006003000542475ART+CRAFT SET 66PCE    0000001000+00008771+00000+0001T   00008771+0000001739          1400 SJ1130               1AZ
104581003104581077-000301     104581008010410010188BAG LRG 25X32CM B/DAY  0000001000+00001753+00000+0001T   00001753+0000001739          1400 SJ1112               1AZ
104581004104581112-116069     104581006009681820277TCS CARRIER BAG JUMBO  0000001000+00000048+00000+0001T   00000048+0000001739          1400 SJ1090               1AZ
104582000104582               104582               170213OU     1400+00000+OU0000002192+0000002192+000000000+000000307+0000002490+0000000009+I20000000000+0000002490+Z
104582001104582079-013102     104582006003000019601ART+CRAFT DIY PIPE-CLNR0000001000+00002192+00000+0001T   00002192+0000001740          1400 SJ1130               1AZ
104583000104583               104583               170213OU     1400+00000+OU0000006662+0000006662+000000000+000000934+0000007590+0000000006+I20000000000+0000007590+Z
104583001104583200-000205     104583006008766127027BAKEPANS 36PCE (PIE)   0000001000+00003507+00000+0001T   00003507+0000001741          1400 SJ1214               1AZ
104583002104583105-000750     104583006003000190270CONTAINERS 4xMINI 150ml0000001000+00001402+00000+0001T   00001402+0000001741          1400 SJ1210               1AZ
104583003104583563-000317-J   104583006001023776419SERVIETTE 2PLY 33cm    0000001000+00001753+00000+0001T   00001753+0000001741          1400 SJ1214               1AZ
104584000104584               104584               170213OU     1400+00000+OU0000009383+0000009383+000000000+000001315+0000010698+0000000000+I40000010698+0000000000+Z
104584001104584301-085007     104584006003000673698ORN OCC. LOVE S/PLAQUE 0000001000+00007893+00000+0001T   00007893+0000001742          1400 SJ1505               1AZ
104584002104584077-000299     104584006003000395576G/BAG 32x25cm LRG LOVE 0000001000+00001490+00000+0001T   00001490+0000001742          1400 SJ1112               1AZ
104585000104585               104585               170213OU     1400+00000+OU0000013887+0000013887+000000000+000001946+0000015833+0000000000+I40000015833+0000000000+Z
104585001104585040-000213     104585006001023617736CANDLE-HOLDER DAISY    0000002000+00001227+00000+0001T   00001227+0000001745          1400 SJ1510               1AZ
104585002104585077-000316     104585006001023609731GIFT-BAG 25X32CM MATT  0000001000+00001753+00000+0001T   00001753+0000001745          1400 SJ1112               1AZ
104585003104585089-000030     104585006003000575671K/CHAIN LOVE MTL ASSTD 0000001000+00001753+00000+0001T   00001753+0000001745          1400 SJ1205               1AZ
104585004104585031-086303-B   104585006003000322404P/FRM CHAMPAGNE 13X18CM0000001000+00003507+00000+0001T   00003507+0000001745          1400 SJ1510               1AZ
104585005104585031-000860-B   104585006001023798206P/FRAME PL ANTIQUE-BLK 0000001000+00004385+00000+0001T   00004385+0000001745          1400 SJ1510               1AZ
104585006104585112-116038     104585006009681820246TCS CARRIER BAG MIDI   0000001000+00000035+00000+0001T   00000035+0000001745          1400 SJ1090               1AZ
104586000104586               104586               170213OU     1400+00000+OU0000000525+0000000525+000000000+000000074+0000000590+0000000009+I20000000000+0000000590+Z
104586001104586002-021040     104586006001023812216PARTY-PICKS 100PCE     0000001000+00000525+00000+0001T   00000525+0000001746          1400 SJ1300               1AZ
104587000104587               104587               170213OU     1400+00000+OU0000000876+0000000876+000000000+000000123+0000000990+0000000009+I20000000000+0000000990+Z
104587001104587077-000150-D   104587006003000054343GIFT-WRAP CELLPHANE CLR0000001000+00000876+00000+0001T   00000876+0000001747          1400 SJ1112               1AZ
104588000104588               104588               170213OU     1400+00000+OU0000006138+0000006138+000000000+000000860+0000006990+0000000008+I20000000000+0000006990+Z
104588001104588079-013102     104588006003000019601ART+CRAFT DIY PIPE-CLNR0000001000+00002192+00000+0001T   00002192+0000001748          1400 SJ1130               1AZ
104588002104588566-000358     104588006003000582587STICKER ROOM DECOR WORD0000001000+00003946+00000+0001T   00003946+0000001748          1400 SJ1130               1AZ
104589000104589               104589               170213OU     1400+00000+OU0000008771+0000008771+000000000+000001228+0000009990+0000000009+I20000000000+0000009990+Z
104589001104589001-091415     104589006003000329113W/GLS OCC. LOVE 2PC 2800000001000+00008771+00000+0001T   00009648+0006471748          1400 SJ1515               1AZ
104590000104590               104590               170213OU     1400+00000+OU0000001402+0000001402+000000000+000000197+0000001590+0000000009+I20000000000+0000001590+Z
104590001104590304-001204     104590006001023737984FLOWER OCC. TEDDY/ROSES0000001000+00001402+00000+0001T   00001490+0006471749          1400 SJ1510               1AZ
104591000104591               104591               170213OU     1400+00000+OU0000003069+0000003069+000000000+000000430+0000003499+0000000000+I40000003499+0000000000+Z
104591001104591105-001075     104591006001023844873LUNCH BOX 17x11x7cm    0000001000+00003069+00000+0001T   00003069+0000001752          1400 SJ1210               1AZ
C10447600                                          170213OU263-000176     12470216SLAVE 1     SJ12IC0000000000+0000000000+0010000001000+
M17021301                              IT          OUATT;IT                                          THE LAST TILL SLIP ON SLAVE 1                   104591                                          FROM OU                                         THANX
M17021391                              CASH        OUSLAVE 1                       Z-REPORT No.   636TOTAL (Sales - Refunds)          13704.80       CASH TO BE BANKED                 5832.10       DEBIT CARDS                          0.00       CREDIT CARDS                      7872.70       Z-READING                        13704.80       AIRTIME DEBIT CARD SALES             0.00       AIRTIME CARD SALES                   0.00       OVERS/UNDERS                         0.00       AIRTIME CASH SALES                   0.00       GIFT CARDS                           0.00       GIFT CARD CASH SALES                 0.00       T O T A L  CASH PAYOUTS              0.00                                                                                                                                                                                                                                                                                                                                                      Z
M17021392                              CASH        OUABSENT                                                                                                                                                                                          ANNUAL LEAVE                                                                                                                                                                                    DAY OFF                                                                                                                                                                                         COMMENTS                                                                                                                                                                                                                                                                                                                                                                                       Z
Y17021300                                          OU00000001208439+000147
ZOU17021321133 SLAVE 1      SALES DATA                     NEXT INVOICE NO.  104592 0636
X OU Slave 1 First invoice 104445 170213 Last invoice 104591 170213 Next invoice 104592 Total number of records 000000580 clbackup completed 21:13:38
