101710000101710               101710               170213OV     1400+00000+OV0000005085+0000005085+000000000+000000712+0000005797+0000000000+I40000005797+0000000000+Z
101710001101710082-000100     101710006003000360246READING GLS STRENGHT:1 0000001000+00004385+00000+0001T   00004385+0000000920          1400 EA6160               1AZ
101710002101710903-000070     101710006001704001106SWT TOFFEE CREAMY 35g  0000001000+00000700+00000+0001T   00000700+0000000920          1400 EA6150               1AZ
101711000101711               101711               170213OV     1400+00000+OV0000004385+0000004385+000000000+000000614+0000004990+0000000009+I20000000000+0000004990+Z
101711001101711105-008005     101711006002580009484STORAGE CONTAINER 7.5L 0000001000+00004385+00000+0001T   00004385+0000000936          1400 EA6210               1AZ
101712000101712               101712               170213OV     1400+00000+OV0000012269+0000012269+000000000+000001721+0000013990+0000000000+I40000013990+0000000000+Z
101712001101712077-000327     101712006001023677686GIFT-BAG 25X32CM E/D BA0000005000+00001490+00000+0001T   00001490+0000000940          1400 EA6112               1AZ
101712002101712034-078800     101712006001023856555COOEY WET-WIPES 60PCE  0000001000+00001753+00000+0001T   00001753+0000000940          1400 EA6215               1AZ
101712003101712563-000317-B   101712006001023776174SERVIETTES PLN WHT PK400000001000+00001314+00000+0001T   00001314+0000000940          1400 EA6214               1AZ
101712004101712077-000011-D   101712006001023808554TISSUE-WRAP WHITE 10PCE0000002000+00000876+00000+0001T   00000876+0000000940          1400 EA6112               1AZ
101713000101713               101713               170213OV     1400+00000+OV0000007926+0000007926+000000000+000001111+0000009030+0000000007+I20000000000+0000009030+Z
101713001101713112-116038     101713006009681820246TCS CARRIER BAG MIDI   0000001000+00000035+00000+0001T   00000035+0000000943          1400 EA6090               1AZ
101713002101713562-000212     101713006001023851567PUSH-IN BOARD NUMBERS  0000001000+00004385+00000+0001T   00004385+0000000943          1400 EA6755               1AZ
101713003101713080-000116     101713006003000253555CARD&ENVELOPE-HANDMADE 0000001000+00001753+00000+0001T   00001753+0000000943          1400 EA6112               1AZ
101713004101713080-000113     101713006003000237449CARD&ENVLPE - LOVE     0000001000+00001753+00000+0001T   00001753+0000000943          1400 EA6112               1AZ
101714000101714               101714               170213OV     1400+00000+OV0000001753+0000001753+000000000+000000246+0000001999+0000000000+I40000001999+0000000000+Z
101714001101714903-000615     101714006003000617456SWT JET PLANE J/B 5G   0000001000+00001753+00000+0001T   00001753+0000000945          1400 EA6150               1CZ
101715000101715               101715               170213OV     1400+00000+OV0000011169+0000011169+000000000+000001565+0000012734+0000000000+I40000012734+0000000000+Z
101715001101715112-116038     101715006009681820246TCS CARRIER BAG MIDI   0000001000+00000035+00000+0001T   00000035+0000000953          1400 EA6090               1AZ
101715002101715002-021021     101715006003000430369TOOTHPICK 3D FRUIT H/H 0000001000+00001490+00000+0001T   00001490+0000000953          1400 EA6300               1AZ
101715003101715071-005060     101715006003000152186CELLOTAPE 2PACK INVSBLE0000001000+00003507+00000+0001T   00003507+0000000953          1400 EA6130               1AZ
101715004101715034-000713     101715006001023899507COOEY TUMBLER NON-SPILL0000001000+00001753+00000+0001T   00002630+0008150953          1400 EA6215               1AZ
101715005101715077-000914     101715006003000413454G/WRAP 700mmx2m ANIMAL 0000002000+00002192+00000+0001T   00002192+0000000953          1400 EA6112               1AZ
101716000101716               101716               170213OV     1400+00000+OV0000007050+0000007050+000000000+000000988+0000008030+0000000008+I20000000000+0000008030+Z
101716001101716301-085001     101716006003000297610ORN WATERBALL LOVE ASST0000001000+00004823+00000+0001T   00004823+0000001000          1400 EA6505               1AZ
101716002101716080-000127     101716006003000424351VALENTINES DAY 36x24CM 0000001000+00002192+00000+0001T   00002192+0000001000          1400 EA6112               1AZ
101716003101716112-116038     101716006009681820246TCS CARRIER BAG MIDI   0000001000+00000035+00000+0001T   00000035+0000001000          1400 EA6090               1AZ
101717000101717               101717               170213OV     1400+00000+OV0000023190+0000023190+000000000+000003253+0000026443+0000000000+I40000026443+0000000000+Z
101717001101717565-000081     101717006003000643493NOVELTY MUSICAL TUBE   0000002000+00002630+00000+0001T   00002630+0000001013          1400 EA6745               1CZ
101717002101717112-116069     101717006009681820277TCS CARRIER BAG JUMBO  0000001000+00000048+00000+0001T   00000048+0000001013          1400 EA6090               1CZ
101717003101717065-006073     101717006003000466504WOODEN RECORDER ASSTD  0000001000+00006139+00000+0001T   00006139+0000001013          1400 EA6745               1CZ
101717004101717565-000071     101717006003000643387NOVELTY WIND UP CHATTER0000002000+00001139+00000+0001T   00001139+0000001013          1400 EA6745               1CZ
101717005101717565-000070     101717006003000643691NOVELTY CREATURES 5cm  0000002000+00002016+00000+0001T   00002016+0000001013          1400 EA6745               1CZ
101717006101717903-000159     101717006003000417629SWT LB SMALL DUMMIE    0000002000+00000350+00000+0001T   00000350+0000001013          1400 EA6150               1CZ
101717007101717019-071595     101717006001023756428PEBBLES 250g SKY-BLUE  0000001000+00001753+00000+0001T   00001753+0000001013          1400 EA6510               1CZ
101717008101717019-071610     101717006001023904560PEBBLES WATER GEMS 10g 0000002000+00001490+00000+0001T   00001490+0000001013          1400 EA6510               1CZ
101718000101718               101718               170213OV     1400+00000+OV0000003507+0000003507+000000000+000000491+0000003990+0000000008+I20000000000+0000003990+Z
101718001101718071-003023     101718006001023836120BALLPENS 10PCE MINI GEL0000001000+00003507+00000+0001T   00003507+0000001015          1400 EA6130               1CZ
101719000101719               101719               170213OV     1400+00000+OV0000005260+0000005260+000000000+000000737+0000005997+0000000000+I40000005997+0000000000+Z
101719001101719012-000001     101719006003000331048MICRO PLATE-COVER 26X6 0000001000+00001753+00000+0001T   00002192+0008191017          1400 EA6300               1AZ
101719002101719012-000002     101719006003000331079MICRO PLATE-COVER 26X9 0000001000+00003507+00000+0001T   00003507+0000001017          1400 EA6300               1AZ
101720000101720               101720               170213OV     1400+00000+OV0000000876+0000000876+000000000+000000123+0000000999+0000000000+I40000000999+0000000000+Z
101720001101720077-000011-C   101720006001023808523TISSUE 10xSHTS RED     0000001000+00000876+00000+0001T   00000876+0000001018          1400 EA6112               1CZ
101721000101721               101721               170213OV     1400+00000+OV0000004383+0000004383+000000000+000000615+0000004990+0000000008+I20000000000+0000004990+Z
101721001101721080-000110     101721006003000237326CARD&ENVLPE BDAY-FUNNY 0000001000+00001753+00000+0001T   00001753+0000001054          1400 EA6112               1AZ
101721002101721077-000115-B   101721006003000181025GIFT-WRAP PPR 700MMX2M 0000001000+00002630+00000+0001T   00002630+0000001054          1400 EA6112               1AZ
101722000101722               101722               170213OV     1400+00000+OV0000098341+0000098341+000000000+000013782+0000112123+0000000000+I40000112123+0000000000+Z
101722001101722112-116053     101722006006438002399TCS CARRIER BAG 38L    0000001000+00000069+00000+0001T   00000069+0000001105          1400 EA6090               1AZ
101722002101722565-000045     101722006003000295890NOVELTY HEADS 8PCE     0000002000+00002630+00000+0001T   00002630+0000001105          1400 EA6745               1AZ
101722003101722071-000305     101722006001023715340RULER/STENCILS         0000002000+00001753+00000+0001T   00001753+0000001105          1400 EA6130               1AZ
101722004101722071-000006     101722006001023732613PENCIL REFILLABLE 6PK  0000003000+00001753+00000+0001T   00001753+0000001105          1400 EA6130               1AZ
101722005101722566-000997     101722006001023554086STICKERS TATTOOS BOOK  0000001000+00003507+00000+0001T   00003507+0000001105          1400 EA6130               1AZ
101722006101722006-005909     101722006003000081301PARTY FAVOUR STAR WAND 0000001000+00002192+00000+0001T   00002192+0000001105          1400 EA6131               1AZ
101722007101722006-005902     101722006001023823175PARTY FAVOUR ASSTD 6PCE0000002000+00001753+00000+0001T   00001753+0000001105          1400 EA6131               1AZ
101722008101722493-059010     101722000078257590100BEACH-BALL COLOR-PANELS0000004000+00001490+00000+0001T   00001490+0000001105          1400 EA6787               1AZ
101722009101722466-000051     101722006001023800510WATER BOMB 4,5cm SET 6 0000002000+00003507+00000+0001T   00003507+0000001105          1400 EA6785               1AZ
101722010101722039-000318     101722006003000406159B/DAY CANDLES SMALL NO 0000001000+00001753+00000+0001T   00001753+0000001105          1400 EA6510               1AZ
101722011101722200-000062     101722006003000519514STRAWS DRINKING PL 4PC 0000001000+00001490+00000+0001T   00001490+0000001105          1400 EA6214               1AZ
101722012101722463-000366     101722006001023789136SWIM W/NOODLE 150cm    0000005000+00002630+00000+0001T   00002630+0000001105          1400 EA6785               1AZ
101722013101722029-000012     101722006001577033754BUCKET GALV 10L        0000001000+00013157+00000+0001T   00013157+0000001105          1400 EA6510               1AZ
101722014101722029-000009     101722006001023809575BUCKET GALV  2L        0000005000+00004385+00000+0001T   00004385+0000001105          1400 EA6510               1AZ
101722015101722019-000122     101722006001023809582PLANTER GALV 22cm ROUND0000002000+00005262+00000+0001T   00005262+0000001105          1400 EA6510               1AZ
101722016101722112-116053     101722006006438002399TCS CARRIER BAG 38L    0000001000+00000069+00000+0001T   00000069+0000001105          1400 EA6090               1AZ
101723000101723               101723               170213OV     1400+00000+OV0000003854+0000003854+000000000+000000542+0000004396+0000000000+I40000004396+0000000000+Z
101723001101723007-000302     101723006009635830000BOOK H/COVER A4 96-PAGE0000003000+00001139+00000+0001T   00001139+0000001107          1400 EA6130               1CZ
101723002101723007-000193     101723006009635831731BK JOTTER A4 72-PG F/M 0000001000+00000437+00000+0001T   00000437+0000001107          1400 EA6130               1CZ
101724000101724               101724               170213OV     1400+00000+OV0000003946+0000003946+000000000+000000553+0000004490+0000000009+I20000000000+0000004490+Z
101724001101724082-098800     101724006001492988009SUNGLASS KIDS BOYS FLAS0000001000+00003946+00000+0001T   00003946+0000001109          1400 EA6160               1AZ
101725000101725               101725               170213OV     1400+00000+OV0000001753+0000001753+000000000+000000246+0000001990+0000000009+I20000000000+0000001990+Z
101725001101725077-000902     101725006003000410569G/WRAP 700mmx1m BBY/KID0000001000+00001753+00000+0001T   00001753+0000001117          1400 EA6112               1CZ
101726000101726               101726               170213OV     1400+00000+OV0000001753+0000001753+000000000+000000246+0000001990+0000000009+I20000000000+0000001990+Z
101726001101726080-000107     101726006003000237081CARD&ENVELPE BDAY BOY  0000001000+00001753+00000+0001T   00001753+0000001121          1400 EA6112               1CZ
101727000101727               101727               170213OV     1400+00000+OV0000014817+0000014817+000000000+000002077+0000016890+0000000004+I20000000000+0000016890+Z
101727001101727106-001100-B   101727006001023651693FRIDGE BOTTLE ASSORTED 0000002000+00001490+00000+0001T   00001490+0000001130          1400 EA6210               1CZ
101727002101727368-000175     101727006003000270316PLUSH BEAR 4 ASSTD 18CM0000001000+00006139+00000+0001T   00006139+0000001130          1400 EA6745               1CZ
101727003101727072-020308     101727006001023700971DOG-TOY FOOTBALL 11,5cm0000001000+00001753+00000+0001T   00001753+0000001130          1400 EA6870               1CZ
101727004101727251-000073     101727006003000452132PROTECTION-PADS BLK ADH0000001000+00001753+00000+0001T   00001753+0000001130          1400 EA6810               1CZ
101727005101727072-020261     101727006003000305131PET DOG-CHEW TYRE SMALL0000001000+00002192+00000+0001T   00002192+0000001130          1400 EA6870               1CZ
101728000101728               101728               170213OV     1400+00000+OV0000038635+0000038635+000000000+000005411+0000044046+0000000000+I40000044046+0000000000+Z
101728001101728112-116069     101728006009681820277TCS CARRIER BAG JUMBO  0000001000+00000048+00000+0001T   00000048+0000001134          1400 EA6090               1AZ
101728002101728560-000776     101728006001023472939ANIMALS FARM/WILD 6PCE 0000002000+00013157+00000+0001T   00013157+0000001134          1400 EA6745               1AZ
101728003101728560-000113     101728006001023664464GOLD-FISH 4PC          0000002000+00003507+00000+0001T   00003507+0000001134          1400 EA6745               1AZ
101728004101728560-000107     101728006003000547906DOMESTIC 3PC MINI PETS 0000003000+00001753+00000+0001T   00001753+0000001134          1400 EA6745               1AZ
101729000101729               101729               170213OV     1400+00000+OV0000038709+0000038709+000000000+000005426+0000044135+0000000000+I40000044135+0000000000+Z
101729001101729007-010504     101729006002923014960BLACKBOARD EASEL       0000001000+00007893+00000+0001T   00007893+0000001140          1400 EA6130               1CZ
101729002101729112-116069     101729006009681820277TCS CARRIER BAG JUMBO  0000001000+00000048+00000+0001T   00000048+0000001140          1400 EA6090               1CZ
101729003101729263-000623     101729006001023905697VEHICLE HELICOPTER 30cm0000001000+00005262+00000+0001T   00005262+0000001140          1400 EA6710               1CZ
101729004101729566-000007     101729006001023761187S/BOOK SUPER VALUE     0000001000+00001753+00000+0001T   00001753+0000001140          1400 EA6130               1CZ
101729005101729566-000036     101729006003000384051STICKERS MOTIVATION    0000001000+00001753+00000+0001T   00001753+0000001140          1400 EA6130               1CZ
101729006101729079-000282     101729006001023493309PAINT TUBS POSTER 12COL0000001000+00002630+00000+0001T   00002630+0000001140          1400 EA6130               1CZ
101729007101729566-000028     101729006003000265541STICKER BK ASSTD 250PCE0000001000+00001753+00000+0001T   00001753+0000001140          1400 EA6130               1CZ
101729008101729006-000166-C   101729006003000516377BALLOONS LRG 6PC PINK  0000001000+00001314+00000+0001T   00001314+0000001140          1400 EA6131               1CZ
101729009101729362-002447     101729006001023793188GIRL NECKLACE+HAIRCLIP 0000001000+00003507+00000+0001T   00003507+0000001140          1400 EA6160               1CZ
101729010101729079-014102     101729006003000101115SCISSORS SHAPES ASSTD  0000001000+00001753+00000+0001T   00001753+0000001140          1400 EA6130               1CZ
101729011101729007-000166     101729006009685857316SPIRAL NOTES A6 100PG  0000001000+00000700+00000+0001T   00000700+0000001140          1400 EA6130               1CZ
101729012101729365-000001     101729006003000395262PLAY SET DOCTORS SET   0000001000+00001753+00000+0001T   00001753+0000001140          1400 EA6725               1CZ
101729013101729403-000509     101729006001023699664MONEY-BANK PL. PIGGY   0000001000+00002630+00000+0001T   00002630+0000001140          1400 EA6510               1CZ
101729014101729077-000934     101729006003000409921G/WRAP 700mmx5m BIRTHDA0000001000+00003507+00000+0001T   00003507+0000001140          1400 EA6112               1CZ
101729015101729903-000912     101729006009802868461SWT GUM TAPE HOT WHEELS0000001000+00001753+00000+0001T   00001753+0000001140          1400 EA6150               1CZ
101729016101729903-000120     101729006002099001665SWEET GS ZILLIONS 50g  0000001000+00000700+00000+0001T   00000700+0000001140          1400 EA6150               1CZ
101730000101730               101730               170213OV     1400+00000+OV0000019729+0000019729+000000000+000002764+0000022490+0000000003+I20000000000+0000022490+Z
101730001101730030-083577     101730006003000632152THERMOMETER MAGNETIC   0000001000+00001753+00000+0001T   00001753+0000001157          1400 EA6505               1AZ
101730002101730002-000015     101730006003000555604CAPPUCCINO STENCILS 12P0000001000+00001753+00000+0001T   00001753+0000001157          1400 EA6300               1AZ
101730003101730002-001676     101730006001023110183SIMMER-PLATE WDN-HANDL 0000001000+00003507+00000+0001T   00003507+0000001157          1400 EA6300               1AZ
101730004101730133-000036     101730006003000133376CLOTHS M/PURPOSE PACK-20000001000+00001753+00000+0001T   00001753+0000001157          1400 EA6212               1AZ
101730005101730563-000318-L   101730006003000407088SERVIETTES 33cm RED    0000001000+00002192+00000+0001T   00002192+0000001157          1400 EA6214               1AZ
101730006101730072-020242     101730006003000053728PET BED COTTON TEXTILE 0000001000+00008771+00000+0001T   00008771+0000001157          1400 EA6870               1AZ
101731000101731               101731               170213OV     1400+00000+OV0000005259+0000005259+000000000+000000738+0000005990+0000000007+I20000000000+0000005990+Z
101731001101731264-000921     101731000090159150442MAISTO CAR 3" FRESH    0000003000+00001753+00000+0001T   00001753+0000001158          1400 EA6710               1CZ
101732000101732               101732               170213OV     1400+00000+OV0000002630+0000002630+000000000+000000369+0000002990+0000000009+I20000000000+0000002990+Z
101732001101732077-000456     101732006003000285549G/BAG METALLIC JMB EMB 0000001000+00002630+00000+0001T   00002630+0000001159          1400 EA6112               1CZ
101733000101733               101733               170213OV     1400+00000+OV0000002628+0000002628+000000000+000000368+0000002990+0000000006+I20000000000+0000002990+Z
101733001101733903-000844     101733005010478432567SWT CANDY DL LUV HEARTS0000002000+00001314+00000+0001T   00001314+0000001159          1400 EA6150               1CZ
101734000101734               101734               170213OV     1400+00000+OV0000000004-0000000004-000000000+000000001-0000000010-0000000005+I20000000000+0000000010-Z
101734001101734016-006545     101734006003000579877S/JAR GLS COUNTER 2SIDE0000001000-00010525+00000+0001T   00008771+0000001205          1400 EA63002IC            1 Z
101734002101734105-001250     101734006003000572991CONTAINER FROSTED 2000m0000003000+00003507+00000+0001T   00003507+0000001205          1400 EA6210               1 Z
101735000101735               101735               170213OV     1400+00000+OV0000031864+0000031864+000000000+000004469+0000036330+0000000003+I20000000000+0000036330+Z
101735001101735112-116069     101735006009681820277TCS CARRIER BAG JUMBO  0000001000+00000048+00000+0001T   00000048+0000001213          1400 EA6090               1CZ
101735002101735079-009000     101735006003000249619CANVAS P/SET 20X20CM   0000001000+00003507+00000+0001T   00003507+0000001213          1400 EA6130               1CZ
101735003101735565-000084     101735006003000643431NOVELTY CATAPULT B/FLY 0000001000+00001753+00000+0001T   00001753+0000001213          1400 EA6745               1CZ
101735004101735080-000116     101735006003000253555CARD&ENVELOPE-HANDMADE 0000002000+00001753+00000+0001T   00001753+0000001213          1400 EA6112               1CZ
101735005101735080-000103     101735006003000236961CARD&ENVLOPE BDAY-MALE 0000001000+00001753+00000+0001T   00001753+0000001213          1400 EA6112               1CZ
101735006101735566-000070     101735006003000283798STICKERS POP UP ASSTD  0000001000+00001753+00000+0001T   00001753+0000001213          1400 EA6130               1CZ
101735007101735007-000551     101735006001023848079NOTE-PAD SHOP-LIST ASST0000001000+00001753+00000+0001T   00001753+0000001213          1400 EA6130               1CZ
101735008101735080-000100     101735006003000236114CARD & ENVELOPE BDAY   0000001000+00001753+00000+0001T   00001753+0000001213          1400 EA6112               1CZ
101735009101735159-000649     101735006001023803931BATH-SPONGE RND        0000001000+00001928+00000+0001T   00001928+0000001213          1400 EA6200               1CZ
101735010101735206-000100     101735006003000628063TONGS ICE COLD FINGERS 0000001000+00002192+00000+0001T   00002192+0000001213          1400 EA6321               1CZ
101735011101735206-000630     101735006003000631919SPECTACLE CLEANING BRUS0000001000+00001227+00000+0001T   00001227+0000001213          1400 EA6321               1CZ
101735012101735206-000310     101735006003000632787BOTTLE-STOPPER SILICONE0000001000+00002630+00000+0001T   00002630+0000001213          1400 EA6321               1CZ
101735013101735206-000620     101735006003000631797BACK SCRATCHER EXTEND  0000001000+00002630+00000+0001T   00002630+0000001213          1400 EA6321               1CZ
101735014101735033-000106     101735006001023678027ELASTIC  6mmx3m  CARDED0000001000+00000876+00000+0001T   00000876+0000001213          1400 EA6200               1CZ
101735015101735046-000012     101735006904708013062BATTERIES AA  CARD-OF-40000001000+00001314+00000+0001T   00001314+0000001213          1400 EA6312               1CZ
101735016101735046-000014     101735006001023725387BATTERIES SIZE:AAA 4PCE0000001000+00001139+00000+0001T   00001139+0000001213          1400 EA6312               1CZ
101735017101735077-000011-C   101735006001023808523TISSUE 10xSHTS RED     0000001000+00000876+00000+0001T   00000876+0000001213          1400 EA6112               1CZ
101735018101735083-000055     101735006003000003853LIGHTER ELCTRNC REFILBL0000002000+00000613+00000+0001T   00000613+0000001213          1400 EA6315               1CZ
101736000101736               101736               170213OV     1400+00000+OV0000005819+0000005819+000000000+000000815+0000006630+0000000004+I20000000000+0000006630+Z
101736001101736077-000310     101736006001023608635GIFT-BAG 18X23CM GLOSS 0000002000+00001314+00000+0001T   00001314+0000001219          1400 EA6112               1CZ
101736002101736018-000127     101736006001023380289MUG OCC STRAIGHT LOVE  0000002000+00001578+00000+0001T   00001753+0006471219          1400 EA6515               1CZ
101736003101736112-116038     101736006009681820246TCS CARRIER BAG MIDI   0000001000+00000035+00000+0001T   00000035+0000001219          1400 EA6090               1CZ
101737000101737               101737               170213OV     1400+00000+OV0000001753+0000001753+000000000+000000246+0000001990+0000000009+I20000000000+0000001990+Z
101737001101737077-000011-Y   101737006001023809858TISSUE-WRAP GOLD 10PCE 0000001000+00001753+00000+0001T   00001753+0000001232          1400 EA6112               1CZ
101738000101738               101738               170213OV     1400+00000+OV0000007892+0000007892+000000000+000001105+0000008990+0000000007+I20000000000+0000008990+Z
101738001101738082-007586     101738006003000654291SUNGLASS DESIGNER ASST 0000001000+00004385+00000+0001T   00004385+0000001233          1400 EA6160               1CZ
101738002101738050-000263-Z   101738006001023777041PADLOCK BRS 32mm CARDED0000001000+00003507+00000+0001T   00003507+0000001233          1400 EA6855               1CZ
101739000101739               101739               170213OV     1400+00000+OV0000010918+0000010918+000000000+000001531+0000012449+0000000000+I40000012449+0000000000+Z
101739001101739112-116069     101739006009681820277TCS CARRIER BAG JUMBO  0000001000+00000048+00000+0001T   00000048+0000001234          1400 EA6090               1AZ
101739002101739133-000010-A   101739006001023997647CLEANING CLOTH ROLL 30 0000001000+00003507+00000+0001T   00003507+0000001234          1400 EA6212               1AZ
101739003101739027-056191     101739006916920933134DISH-BRUSH+HOOK RECT   0000001000+00001753+00000+0001T   00001753+0000001234          1400 EA6212               1AZ
101739004101739027-008813     101739006001023552334DUSTER RETRCTABLE 122cm0000001000+00002630+00000+0001T   00002630+0000001234          1400 EA6212               1AZ
101739005101739159-000114     101739006001023507945SHOWER CAP PVC ASSTD   0000002000+00001490+00000+0001T   00001490+0000001234          1400 EA6200               1AZ
101740000101740               101740               170213OV     1400+00000+OV0000032445+0000032445+000000000+000004545+0000036990+0000000000+I40000036990+0000000000+Z
101740001101740072-020242     101740006003000053728PET BED COTTON TEXTILE 0000001000+00008771+00000+0001T   00008771+0000001241          1400 EA6870               1CZ
101740002101740072-020352     101740006003000561667DOG/CAT BOWL PL 19cm   0000002000+00003069+00000+0001T   00003069+0000001241          1400 EA6870               1CZ
101740003101740072-020366     101740006003000452927PET PLACE MAT ASSTD COL0000001000+00002630+00000+0001T   00002630+0000001241          1400 EA6870               1CZ
101740004101740072-020312     101740006003000605330PET TOY PUP STARTER PCK0000001000+00002630+00000+0001T   00002630+0000001241          1400 EA6870               1CZ
101740005101740072-000603     101740006003000452569DOG-COLLAR 1.9x45cm MED0000001000+00005262+00000+0001T   00005262+0000001241          1400 EA6870               1CZ
101740006101740560-000302     101740006001023834874DINOSAUR ASSTD DESIGNS 0000002000+00003507+00000+0001T   00003507+0000001241          1400 EA6745               1CZ
101741000101741               101741               170213OV     1400+00000+OV0000004380+0000004380+000000000+000000615+0000004995+0000000000+I40000004995+0000000000+Z
101741001101741077-000151     101741006008766114676GIFT-WRAP C/PHANE ASSTD0000005000+00000876+00000+0001T   00000876+0000001243          1400 EA6112               1AZ
101742000101742               101742               170213OV     1400+00000+OV0000028946+0000028946+000000000+000004053+0000032999+0000000000+I40000032999+0000000000+Z
101742001101742490-048474     101742000078257484744BABY GYM SOFT SIDE     0000001000+00028946+00000+0001T   00028946+0000001244          1400 EA6787               1CZ
101743000101743               101743               170213OV     1400+00000+OV0000000524+0000000524+000000000+000000074+0000000590+0000000008+I20000000000+0000000590+Z
101743001101743903-000216     101743006925925900966SWT MALLOW TWIST ERKO  0000002000+00000262+00000+0001T   00000262+0000001245          1400 EA6150               1CZ
101744000101744               101744               170213OV     1400+00000+OV0000003507+0000003507+000000000+000000491+0000003998+0000000000+I40000003998+0000000000+Z
101744001101744031-000902-A   101744006001023726254P/FRAME WDN OAK 6X9CM  0000001000+00003507+00000+0001T   00003507+0000001246          1400 EA6510               1CZ
101745000101745               101745               170213OV     1400+00000+OV0000004822+0000004822+000000000+000000676+0000005498+0000000000+I40000005498+0000000000+Z
101745001101745077-000299-A   101745006003000670888GIFT-BAG PAPER JMB LOVE0000001000+00001753+00000+0001T   00001753+0000001248          1400 EA6112               1AZ
101745002101745024-000212     101745006001023858030COOKIE-CUTTERS PL SMALL0000001000+00003069+00000+0001T   00003069+0000001248          1400 EA6300               1AZ
101746000101746               101746               170213OV     1400+00000+OV0000013182+0000013182+000000000+000001847+0000015020+0000000009+I20000000000+0000015020+Z
101746001101746112-116038     101746006009681820246TCS CARRIER BAG MIDI   0000001000+00000035+00000+0001T   00000035+0000001251          1400 EA6090               1AZ
101746002101746079-130010     101746006003000496624ART+CRAFT FOAM DOLLS   0000001000+00004385+00000+0001T   00004385+0000001251          1400 EA6130               1AZ
101746003101746079-013099     101746006003000081875ART+CRAFT EYES ASSTD   0000002000+00001753+00000+0001T   00001753+0000001251          1400 EA6130               1AZ
101746004101746006-000167-F   101746006003000517411BALLOONS SILV METALLIC 0000004000+00001314+00000+0001T   00001314+0000001251          1400 EA6131               1AZ
101747000101747               101747               170213OV     1400+00000+OV0000002630+0000002630+000000000+000000369+0000002990+0000000009+I20000000000+0000002990+Z
101747001101747077-000270     101747006003000395453GIFT-BAG PPR JMB 33X45 0000001000+00002630+00000+0001T   00002630+0000001302          1400 EA6112               1CZ
101748000101748               101748               170213OV     1400+00000+OV0000011747+0000011747+000000000+000001648+0000013390+0000000005+I20000000000+0000013390+Z
101748001101748077-000299-A   101748006003000670888GIFT-BAG PAPER JMB LOVE0000001000+00001753+00000+0001T   00001753+0000001303          1400 EA6112               1CZ
101748002101748466-000515     101748006001023477408BALLS TENNIS BAG-OF-3  0000003000+00002630+00000+0001T   00002630+0000001303          1400 EA6785               1CZ
101748003101748903-000095     101748006001704011495SWT SPECKLED-EGGS 100G 0000001000+00002104+00000+0001T   00002104+0000001303          1400 EA6150               1CZ
101749000101749               101749               170213OV     1400+00000+OV0000021924+0000021924+000000000+000003071+0000024995+0000000000+I40000024995+0000000000+Z
101749001101749082-000110     101749006003000360482READING GLS STRENGHT:2 0000002000+00004385+00000+0001T   00004385+0000001311          1400 EA6160               1AZ
101749002101749082-007587     101749006003000654338SUNGLASS DESIGNER ASST 0000001000+00004385+00000+0001T   00004385+0000001311          1400 EA6160               1AZ
101749003101749003-009203     101749006003000405848ORN STONE WELCOME 24CM 0000001000+00006139+00000+0001T   00006139+0000001311          1400 EA6505               1AZ
101749004101749206-000620     101749006003000631797BACK SCRATCHER EXTEND  0000001000+00002630+00000+0001T   00002630+0000001311          1400 EA6321               1AZ
101750000101750               101750               170213OV     1400+00000+OV0000019857+0000019857+000000000+000002785+0000022642+0000000000+I40000022642+0000000000+Z
101750001101750112-116069     101750006009681820277TCS CARRIER BAG JUMBO  0000001000+00000048+00000+0001T   00000048+0000001313          1400 EA6090               1AZ
101750002101750077-000302     101750008010410010195GIFT-BAG 18X23CM E/D   0000001000+00000876+00000+0001T   00000876+0000001313          1400 EA6112               1AZ
101750003101750078-009100     101750006008741002349ALL-CLEAR GLUE 25ml CRD0000001000+00001314+00000+0001T   00001314+0000001313          1400 EA6810               1AZ
101750004101750079-013101     101750006001023863706CRAFT SET DIY PIPE-CLNR0000001000+00002630+00000+0001T   00002630+0000001313          1400 EA6130               1AZ
101750005101750251-000003     101750006003000266159TAPE D/S 18x300mm V/PCK0000001000+00002630+00000+0001T   00002630+0000001313          1400 EA6810               1AZ
101750006101750071-005211     101750006003000152346CELLOTAPE MOUNTING TAPE0000001000+00001753+00000+0001T   00001753+0000001313          1400 EA6130               1AZ
101750007101750079-006494     101750006003000159864GLITTER GLUE 5PCE 11cm 0000001000+00001490+00000+0001T   00001490+0000001313          1400 EA6130               1AZ
101750008101750004-071206     101750006003000605156USB CABLE CHARGER      0000001000+00003507+00000+0001T   00003507+0000001313          1400 EA6310               1AZ
101750009101750007-000324     10175000600968585864125 SHEETS BRIGHTS MARLI0000001000+00003507+00000+0001T   00003507+0000001313          1400 EA6130               1AZ
101750010101750079-009702-F   101750008427973059392PAPER SIRIO A2 GREEN   0000002000+00001051+00000+0001T   00001051+0000001313          1400 EA6130               1AZ
101751000101751               101751               170213OV     1400+00000+OV0000005259+0000005259+000000000+000000738+0000005990+0000000007+I20000000000+0000005990+Z
101751001101751036-000063     101751006009654960436COATHANGERS VIRGIN 5PCE0000003000+00001753+00000+0001T   00001753+0000001314          1400 EA6212               1AZ
101752000101752               101752               170213OV     1400+00000+OV0000003104+0000003104+000000000+000000435+0000003530+0000000009+I20000000000+0000003530+Z
101752001101752174-008026     101752006009654960429TRAVEL BOTTLES 2-PACK  0000001000+00003069+00000+0001T   00003069+0000001317          1400 EA6205               1CZ
101752002101752112-116038     101752006009681820246TCS CARRIER BAG MIDI   0000001000+00000035+00000+0001T   00000035+0000001317          1400 EA6090               1CZ
101753000101753               101753               170213OV     1400+00000+OV0000000613+0000000613+000000000+000000086+0000000690+0000000009+I20000000000+0000000690+Z
101753001101753083-000055     101753006003000003853LIGHTER ELCTRNC REFILBL0000001000+00000613+00000+0001T   00000613+0000001318          1400 EA6315               1CZ
101754000101754               101754               170213OV     1400+00000+OV0000001314+0000001314+000000000+000000184+0000001490+0000000008+I20000000000+0000001490+Z
101754001101754077-000312     101754006001023608697GIFT-BAG 10X35CM GLOSS 0000001000+00001314+00000+0001T   00001314+0000001321          1400 EA6112               1CZ
101755000101755               101755               170213OV     1400+00000+OV0000000874+0000000874+000000000+000000124+0000000990+0000000008+I20000000000+0000000990+Z
101755001101755080-000133     101755006003000535613CARD&ENV MINI ASTD DSGN0000002000+00000437+00000+0001T   00000437+0000001325          1400 EA6112               1AZ
101756000101756               101756               170213OV     1400+00000+OV0000001578+0000001578+000000000+000000221+0000001799+0000000000+I40000001799+0000000000+Z
101756001101756566-001234     101756006003000217793STICKERS LASER ASSTD   0000001000+00001578+00000+0001T   00001578+0000001331          1400 EA6130               1AZ
101757000101757               101757               170213OV     1400+00000+OV0000010029+0000010029+000000000+000001407+0000011436+0000000000+I40000011436+0000000000+Z
101757001101757079-000590     101757006003000543236SKETCH PAD & PAINT SET 0000001000+00007016+00000+0001T   00007016+0000001333          1400 EA6130               1AZ
101757002101757903-000673     101757006009803358237SWT SHERBET GRAPE 4PK  0000001000+00000876+00000+0001T   00000876+0000001333          1400 EA6150               1AZ
101757003101757079-009702-D   101757008427973059354PAPER SIRIO A2 RED COL 0000002000+00001051+00000+0001T   00001051+0000001333          1400 EA6130               1AZ
101757004101757112-116038     101757006003000534906TCS CARRIER BAG MIDI   0000001000+00000035+00000+0001T   00000035+0000001333          1400 EA6090               1AZ
101758000101758               101758               170213OV     1400+00000+OV0000010782+0000010782+000000000+000001513+0000012295+0000000000+I40000012295+0000000000+Z
101758001101758466-072725     101758006001023622532YO-YO PL               0000004000+00002630+00000+0001T   00002630+0000001334          1400 EA6785               1AZ
101758002101758903-000099     101758006923431501646SWT CANDY GS WTCH B/LET0000001000+00000262+00000+0001T   00000262+0000001334          1400 EA6150               1AZ
101759000101759               101759               170213OV     1400+00000+OV0000034972+0000034972+000000000+000004908+0000039880+0000000000+I40000039880+0000000000+Z
101759001101759112-116069     101759006009681820277TCS CARRIER BAG JUMBO  0000001000+00000048+00000+0001T   00000048+0000001337          1400 EA6090               1AZ
101759002101759077-000299-A   101759006003000670888GIFT-BAG PAPER JMB LOVE0000001000+00001753+00000+0001T   00001753+0000001337          1400 EA6112               1AZ
101759003101759368-000637     101759006001023874092PLUSH BEAR SLEEPING LOV0000001000+00011402+00000+0001T   00012279+0006471337          1400 EA6745               1AZ
101759004101759903-002901     101759005996071650655QUICK MILK 5 S/BERRY   0000001000+00001578+00000+0001T   00001578+0000001337          1400 EA6150               1AZ
101759005101759903-000071     101759006001704001120SWT TOFFEE LIQURICE 35g0000001000+00000700+00000+0001T   00000700+0000001337          1400 EA6150               1AZ
101759006101759903-000077     101759006939873501687SWT GS MAGIC ROCK FRUIT0000002000+00000525+00000+0001T   00000525+0000001337          1400 EA6150               1AZ
101759007101759080-000133-A   101759006003000647019MINI VALENTINES CARD   0000003000+00000437+00000+0001T   00000437+0000001337          1400 EA6112               1AZ
101759008101759903-000618     101759006003000672370SWT LOLLY RAINBOW GIANT0000003000+00001753+00000+0001T   00001753+0000001337          1400 EA6150               1AZ
101759009101759903-000619     101759006003000672455SWT LOLLY STR/BRRY 140G0000003000+00001753+00000+0001T   00001753+0000001337          1400 EA6150               1AZ
101759010101759903-000517     101759006001704012768SWT STRAWS FIZZY CHERRY0000001000+00001227+00000+0001T   00001227+0000001337          1400 EA6150               1AZ
101759011101759903-000671     101759006009803358015SWT SHERBET BLUE LIPS  0000003000+00000218+00000+0001T   00000218+0000001337          1400 EA6150               1AZ
101759012101759903-000077     101759006939873501687SWT GS MAGIC ROCK FRUIT0000001000+00000525+00000+0001T   00000525+0000001337          1400 EA6150               1AZ
101759013101759903-000071     101759006001704001120SWT TOFFEE LIQURICE 35g0000001000+00000700+00000+0001T   00000700+0000001337          1400 EA6150               1AZ
101759014101759077-000289     101759006001023901996GIFT BOX 20x25x11cm    0000002000+00001753+00000+0001T   00001753+0000001337          1400 EA6112               1AZ
101760000101760               101760               170213OV     1400+00000+OV0000033373+0000033373+000000000+000004676+0000038049+0000000000+I40000038049+0000000000+Z
101760001101760112-116069     101760006009681820277TCS CARRIER BAG JUMBO  0000001000+00000048+00000+0001T   00000048+0000001341          1400 EA6090               1CZ
101760002101760368-000053     101760006003000633449PLUSH BEAR 15.5cm MUM  0000001000+00005262+00000+0001T   00005262+0000001341          1400 EA6745               1CZ
101760003101760368-000152     101760006003000166886PLUSH BEAR 15cm        0000002000+00003946+00000+0001T   00005262+0008141341          1400 EA6745               1CZ
101760004101760200-003024     101760006001023657299REFUSE BAGS 20PCE BLACK0000001000+00001753+00000+0001T   00001753+0000001341          1400 EA6214               1CZ
101760005101760035-000001     101760006002596010566UMBRELLA LADIES W/MINI 0000001000+00006139+00000+0001T   00006139+0000001341          1400 EA6205               1CZ
101760006101760368-000111     101760006001023780812PLUSH BEAR/DOG 29CM    0000001000+00012279+00000+0001T   00012279+0000001341          1400 EA6745               1CZ
101761000101761               101761               170213OV     1400+00000+OV0000007892+0000007892+000000000+000001106+0000008990+0000000008+I20000000000+0000008990+Z
101761001101761366-000900     101761006003000006960DRESS UP WINGS BUG     0000001000+00006139+00000+0001T   00006139+0000001346          1400 EA6131               1CZ
101761002101761006-000800     101761006001023902801HAT CABARET 14x18cm    0000001000+00001753+00000+0001T   00001753+0000001346          1400 EA6131               1CZ
101762000101762               101762               170213OV     1400+00000+OV0000001578+0000001578+000000000+000000221+0000001790+0000000009+I20000000000+0000001790+Z
101762001101762077-000315     101762006003000181186GIFT-BAG 20x28cm MATT  0000001000+00001578+00000+0001T   00001578+0000001346          1400 EA6112               1CZ
101763000101763               101763               170213OV     1400+00000+OV0000002627+0000002627+000000000+000000370+0000002997+0000000000+I40000002997+0000000000+Z
101763001101763903-000094     101763006923431501622SWT GS CANDY NECKLACE  0000002000+00000437+00000+0001T   00000437+0000001351          1400 EA6150               1CZ
101763002101763019-071596     101763006001023733078PEBBLES GLS 250g ASSTD.0000001000+00001753+00000+0001T   00001753+0000001351          1400 EA6510               1CZ
101764000101764               101764               170213OV     1400+00000+OV0000032055+0000032055+000000000+000004491+0000036546+0000000000+I40000036546+0000000000+Z
101764001101764112-116069     101764006009681820277TCS CARRIER BAG JUMBO  0000001000+00000048+00000+0001T   00000048+0000001353          1400 EA6090               1CZ
101764002101764031-006228     101764006003000142293P/FRAME+PLAQUE 10X15CM 0000001000+00003507+00000+0001T   00003507+0000001353          1400 EA6510               1CZ
101764003101764031-080509     101764006001023802446P/FRAME COLLAGE 10X15CM0000001000+00006139+00000+0001T   00006139+0000001353          1400 EA6510               1CZ
101764004101764077-000309     101764006001023608604GIFT-BAG 25X32CM GLOSS 0000002000+00001753+00000+0001T   00001753+0000001353          1400 EA6112               1CZ
101764005101764034-091330     101764006003000664061COOEY BABY SHAMPOO CAP 0000001000+00003069+00000+0001T   00003069+0000001353          1400 EA6215               1CZ
101764006101764368-000021     101764006003000672141PLUSH DINOSAUR 27cm    0000001000+00007016+00000+0001T   00007016+0000001353          1400 EA6745               1CZ
101764007101764368-000001     101764006003000097982Plush Bear 25cm        0000002000+00004385+00000+0001T   00004385+0000001353          1400 EA6745               1CZ
101765000101765               101765               170213OV     1400+00000+OV0000008800+0000008800+000000000+000001235+0000010035+0000000000+I40000010035+0000000000+Z
101765001101765078-000020     101765008887013700071YAMAYO CONTACT-CEMENT  0000004000+00001753+00000+0001T   00001753+0000001359          1400 EA6810               1CZ
101765002101765146-000402     101765006003000303557CLIP-ON CONNECTOR 13mm 0000001000+00001753+00000+0001T   00001753+0000001359          1400 EA6820               1CZ
101765003101765112-116038     101765006009681820246TCS CARRIER BAG MIDI   0000001000+00000035+00000+0001T   00000035+0000001359          1400 EA6090               1CZ
101766000101766               101766               170213OV     1400+00000+OV0000001752+0000001752+000000000+000000246+0000001990+0000000008+I20000000000+0000001990+Z
101766001101766077-000011-C   101766006001023808523TISSUE 10xSHTS RED     0000002000+00000876+00000+0001T   00000876+0000001401          1400 EA6112               1CZ
101767000101767               101767               170213OV     1400+00000+OV0000000876+0000000876+000000000+000000123+0000000990+0000000009+I20000000000+0000000990+Z
101767001101767080-000129     101767006003000448012CRD & ENV DIY KITS ASST0000001000+00000876+00000+0001T   00001490+0008151427          1400 EA6112               1CZ
101768000101768               101768               170213OV     1400+00000+OV0000007015+0000007015+000000000+000000983+0000007998+0000000000+I40000007998+0000000000+Z
101768001101768301-086007     101768006003000426706ORN OCC DAD WDN LETTERS0000001000+00004385+00000+0001T   00004385+0000001435          1400 EA6505               1AZ
101768002101768077-000005-B   101768006003000326617PAPER TISSUE PATTERN   0000001000+00002630+00000+0001T   00002630+0000001435          1400 EA6112               1AZ
101769000101769               101769               170213OV     1400+00000+OV0000021250+0000021250+000000000+000002981+0000024230+0000000001+I20000000000+0000024230+Z
101769001101769077-000349-B   101769006001023908315G/RIBBON 3ROLLS 12BOWS 0000001000+00002630+00000+0001T   00002630+0000001453          1400 EA6112               1AZ
101769002101769039-000100     10176900600300060614625CM WHITE CANDLE 6PC  0000002000+00002630+00000+0001T   00002630+0000001453          1400 EA6510               1AZ
101769003101769077-000115     101769006001023834225WRAP METALLIC 700mmx1m 0000001000+00001753+00000+0001T   00001753+0000001453          1400 EA6112               1AZ
101769004101769039-000624     101769006003000054923C/SET 4PC PILLARS 5X8CM0000001000+00007016+00000+0001T   00007016+0000001453          1400 EA6510               1AZ
101769005101769903-000898     101769006922516801503SWT POPPING CANDY      0000004000+00001139+00000+0001T   00001139+0000001453          1400 EA6150               1AZ
101769006101769112-116038     101769006003000534906TCS CARRIER BAG MIDI   0000001000+00000035+00000+0001T   00000035+0000001453          1400 EA6090               1AZ
101770000101770               101770               170213OV     1400+00000+OV0000005262+0000005262+000000000+000000737+0000005999+0000000000+I40000005999+0000000000+Z
101770001101770366-001100     101770006003000031443DRESS UP HAT PIRATE    0000001000+00005262+00000+0001T   00005262+0000001456          1400 EA6131               1AZ
101771000101771               101771               170213OV     1400+00000+OV0000002192+0000002192+000000000+000000307+0000002490+0000000009+I20000000000+0000002490+Z
101771001101771080-000127     101771006003000424351VALENTINES DAY 36x24CM 0000001000+00002192+00000+0001T   00002192+0000001456          1400 EA6112               1AZ
101772000101772               101772               170213OV     1400+00000+OV0000004383+0000004383+000000000+000000615+0000004990+0000000008+I20000000000+0000004990+Z
101772001101772077-000116     101772006003000240777GIFT-WRAP 700mmx2m COL 0000001000+00001753+00000+0001T   00001753+0000001459          1400 EA6112               1AZ
101772002101772077-000235     101772006003000160211GIFT-RIBBON ROLL METALC0000001000+00002630+00000+0001T   00002630+0000001459          1400 EA6112               1AZ
101773000101773               101773               170213OV     1400+00000+OV0000011437+0000011437+000000000+000001602+0000013039+0000000000+I40000013039+0000000000+Z
101773001101773368-000637     101773006001023874092PLUSH BEAR SLEEPING LOV0000001000+00011402+00000+0001T   00012279+0006471501          1400 EA6745               1AZ
101773002101773112-116038     101773006003000534906TCS CARRIER BAG MIDI   0000001000+00000035+00000+0001T   00000035+0000001501          1400 EA6090               1AZ
101774000101774               101774               170213OV     1400+00000+OV0000003331+0000003331+000000000+000000467+0000003798+0000000000+I40000003798+0000000000+Z
101774001101774006-000789     101774006001023148612CROWN BOY              0000001000+00002192+00000+0001T   00002192+0000001506          1400 EA6131               1CZ
101774002101774006-000214-D   101774006003000310029P/BOYZ INVITE 6PCE     0000001000+00001139+00000+0001T   00001490+0008181506          1400 EA6131               1CZ
101775000101775               101775               170213OV     1400+00000+OV0000007128+0000007128+000000000+000001001+0000008120+0000000009+I20000000000+0000008120+Z
101775001101775077-000385     101775006003000275366G/BAG GLITTER 18x23CM  0000001000+00001314+00000+0001T   00001314+0000001507          1400 EA6112               1CZ
101775002101775077-000351     101775006003000139033GIFT-BAG 18X23CM E/D P 0000001000+00001753+00000+0001T   00001753+0000001507          1400 EA6112               1CZ
101775003101775112-116038     101775006009681820246TCS CARRIER BAG MIDI   0000001000+00000035+00000+0001T   00000035+0000001507          1400 EA6090               1CZ
101775004101775903-000220     101775006001704007368SWT JELLY BEANS 60G    0000002000+00000876+00000+0001T   00000876+0000001507          1400 EA6150               1CZ
101775005101775903-000120     101775006002099001665SWEET GS ZILLIONS 50g  0000002000+00000700+00000+0001T   00000700+0000001507          1400 EA6150               1CZ
101775006101775080-000133     101775006003000535613CARD&ENV MINI ASTD DSGN0000002000+00000437+00000+0001T   00000437+0000001507          1400 EA6112               1CZ
101776000101776               101776               170213OV     1400+00000+OV0000065475+0000065475+000000000+000009173+0000074648+0000000000+I40000074648+0000000000+Z
101776001101776112-116053     101776006006438002399TCS CARRIER BAG 38L    0000002000+00000069+00000+0001T   00000069+0000001512          1400 EA6090               1CZ
101776002101776368-000630     101776006001023831163PLUSH WORM ASSTD 40CM  0000001000+00012279+00000+0001T   00012279+0000001512          1400 EA6745               1CZ
101776003101776368-000629     101776006003000208593PLUSH SNAKE ASSTD 170cm0000004000+00011402+00000+0001T   00011402+0000001512          1400 EA6745               1CZ
101776004101776079-000512     101776006001023635853CRAYONS WAX 12-COLOUR  0000005000+00001490+00000+0001T   00001490+0000001512          1400 EA6130               1CZ
101777000101777               101777               170213OV     1400+00000+OV0000008201+0000008201+000000000+000001150+0000009351+0000000000+I40000009351+0000000000+Z
101777001101777077-000309-A   101777006003000671007GIFT-BAG HOLOGRAM JMB  0000001000+00002192+00000+0001T   00002192+0000001516          1400 EA6112               1AZ
101777002101777077-000380     101777006003000247585GIFT-BAG 33X45CM S/COL 0000001000+00002455+00000+0001T   00002455+0000001516          1400 EA6112               1AZ
101777003101777077-000005-B   101777006003000326617PAPER TISSUE PATTERN   0000001000+00002630+00000+0001T   00002630+0000001516          1400 EA6112               1AZ
101777004101777077-000011-D   101777006001023808554TISSUE-WRAP WHITE 10PCE0000001000+00000876+00000+0001T   00000876+0000001516          1400 EA6112               1AZ
101777005101777112-116069     101777006009681820277TCS CARRIER BAG JUMBO  0000001000+00000048+00000+0001T   00000048+0000001516          1400 EA6090               1AZ
101778000101778               101778               170213OV     1400+00000+OV0000005424+0000005424+000000000+000000762+0000006186+0000000000+I40000006186+0000000000+Z
101778001101778006-000805     101778000013994092418STREAMERS 10-ROLLS     0000001000+00001490+00000+0001T   00001490+0000001518          1400 EA6131               1AZ
101778002101778024-091102-A   101778006003000328314BAKING-CUP CUPCAKE 75PC0000001000+00001753+00000+0001T   00001753+0000001518          1400 EA6300               1AZ
101778003101778903-000183     101778006003000451043SWT LB HEART LOLLY     0000001000+00000393+00000+0001T   00000393+0000001518          1400 EA6150               1AZ
101778004101778112-116038     101778006009681820246TCS CARRIER BAG MIDI   0000001000+00000035+00000+0001T   00000035+0000001518          1400 EA6090               1AZ
101778005101778024-091100     101778006001023914224BAKING-CUPS PAPER 100PC0000001000+00001753+00000+0001T   00001753+0000001518          1400 EA6300               1AZ
101779000101779               101779               170213OV     1400+00000+OV0000018548+0000018548+000000000+000002598+0000021146+0000000000+I40000021146+0000000000+Z
101779001101779112-116069     101779006009681820277TCS CARRIER BAG JUMBO  0000001000+00000048+00000+0001T   00000048+0000001522          1400 EA6090               1CZ
101779002101779077-000270     101779006003000395453GIFT-BAG PPR JMB 33X45 0000001000+00002630+00000+0001T   00002630+0000001522          1400 EA6112               1CZ
101779003101779080-000127     101779006003000424351VALENTINES DAY 36x24CM 0000001000+00002192+00000+0001T   00002192+0000001522          1400 EA6112               1CZ
101779004101779001-091415     101779006003000329113W/GLS OCC. LOVE 2PC 2800000001000+00008771+00000+0001T   00009648+0006471522          1400 EA6515               1CZ
101779005101779204-000105     101779006001023722119MEMO-HOLDER WORDS 101PC0000001000+00003507+00000+0001T   00003507+0000001522          1400 EA6300               1CZ
101779006101779566-002000     101779000721129013206STICKERS CRYSTAL ASSTD 0000002000+00000700+00000+0001T   00000700+0000001522          1400 EA6130               1CZ
101780000101780               101780               170213OV     1400+00000+OV0000000613+0000000613+000000000+000000086+0000000690+0000000009+I20000000000+0000000690+Z
101780001101780565-000044     101780006003000128280BARREL OF SLIME 100g   0000001000+00000613+00000+0001T   00000613+0000001522          1400 EA6745               1AZ
101781000101781               101781               170213OV     1400+00000+OV0000003103+0000003103+000000000+000000435+0000003530+0000000008+I20000000000+0000003530+Z
101781001101781018-000127     101781006001023380289MUG OCC STRAIGHT LOVE  0000001000+00001578+00000+0001T   00001753+0006471523          1400 EA6515               1CZ
101781002101781077-000452     101781006003000284986G/BAG METALLIC MED EMB 0000001000+00001490+00000+0001T   00001490+0000001523          1400 EA6112               1CZ
101781003101781112-116038     101781006009681820246TCS CARRIER BAG MIDI   0000001000+00000035+00000+0001T   00000035+0000001523          1400 EA6090               1CZ
101782000101782               101782               170213OV     1400+00000+OV0000018888+0000018888+000000000+000002646+0000021534+0000000000+I40000021534+0000000000+Z
101782001101782200-003024     101782006001023657299REFUSE BAGS 20PCE BLACK0000001000+00001753+00000+0001T   00001753+0000001526          1400 EA6214               1AZ
101782002101782133-000010-B   101782006003000682850CLEANING CLOTH ROLL 25 0000001000+00003507+00000+0001T   00003507+0000001526          1400 EA6212               1AZ
101782003101782112-116038     101782006009681820246TCS CARRIER BAG MIDI   0000001000+00000035+00000+0001T   00000035+0000001526          1400 EA6090               1AZ
101782004101782200-000020     101782006925406841030BAG ZIPPERSEAL 25PC    0000001000+00002192+00000+0001T   00002192+0000001526          1400 EA6214               1AZ
101782005101782079-000334     101782006003000670437THERAPY P/CRAYONS 18   0000001000+00005262+00000+0001T   00005262+0000001526          1400 EA6130               1AZ
101782006101782567-011423     101782006003000641345BK COLOURING THERAPY A50000001000+00006139+00000+0001T   00006139+0000001526          1400 EA6757               1AZ
101783000101783               101783               170213OV     1400+00000+OV0000038268+0000038268+000000000+000005363+0000043631+0000000000+I40000043631+0000000000+Z
101783001101783112-116069     101783006009681820277TCS CARRIER BAG JUMBO  0000001000+00000048+00000+0001T   00000048+0000001529          1400 EA6090               1AZ
101783002101783200-000042     101783006001023868886BAG-SEALERS 10PCE      0000001000+00002630+00000+0001T   00002630+0000001529          1400 EA6214               1AZ
101783003101783903-000598     101783006003000607990SWEET CRAYON 15cm J/B  0000002000+00001314+00000+0001T   00001314+0000001529          1400 EA6150               1AZ
101783004101783565-000887     101783006003000412334NOVELTY SILICONE TOY   0000001000+00002192+00000+0001T   00002192+0000001529          1400 EA6745               1AZ
101783005101783903-000077     101783006939873501687SWT GS MAGIC ROCK FRUIT0000001000+00000525+00000+0001T   00000525+0000001529          1400 EA6150               1AZ
101783006101783903-000090     101783006009826020821SWT GS CHOCO COINS 60g 0000004000+00002104+00000+0001T   00002104+0000001529          1400 EA6150               1AZ
101783007101783262-000016     101783006003000645107DIE CAST MOTORBIKE     0000001000+00003507+00000+0001T   00003507+0000001529          1400 EA6710               1AZ
101783008101783560-000302     101783006001023834874DINOSAUR ASSTD DESIGNS 0000001000+00003507+00000+0001T   00003507+0000001529          1400 EA6745               1AZ
101783009101783903-000598     101783006003000607990SWEET CRAYON 15cm J/B  0000001000+00001314+00000+0001T   00001314+0000001529          1400 EA6150               1AZ
101783010101783362-001045     101783006001023843449MAKE-UP TEEN GIFT SET  0000001000+00005262+00000+0001T   00005262+0000001529          1400 EA6160               1AZ
101783011101783903-000077     101783006939873501687SWT GS MAGIC ROCK FRUIT0000002000+00000525+00000+0001T   00000525+0000001529          1400 EA6150               1AZ
101783012101783361-003013     101783006003000166589DOLL 6.5CM FAIRY KITE  0000001000+00002192+00000+0001T   00002192+0000001529          1400 EA6725               1AZ
101783013101783162-092945     101783006001492929453#TAG KIDS 6PK PURPLE   0000001000+00003507+00000+0001T   00003507+0000001529          1400 EA6160               1AZ
101783014101783565-004101     101783006003000548033BALL BOUNCING EGG      0000001000+00001490+00000+0001T   00001490+0000001529          1400 EA6745               1AZ
101784000101784               101784               170213OV     1400+00000+OV0000010042+0000010042+000000000+000001407+0000011440+0000000009+I20000000000+0000011440+Z
101784001101784077-000299     101784006003000395576G/BAG 32x25cm LRG LOVE 0000002000+00001490+00000+0001T   00001490+0000001530          1400 EA6112               1CZ
101784002101784018-005009     101784006001023725608MUG W/PLUSH-BEAR LOVE  0000002000+00003507+00000+0001T   00003507+0000001530          1400 EA6515               1CZ
101784003101784112-116069     101784006009681820277TCS CARRIER BAG JUMBO  0000001000+00000048+00000+0001T   00000048+0000001530          1400 EA6090               1CZ
101785000101785               101785               170213OV     1400+00000+OV0000017141+0000017141+000000000+000002404+0000019545+0000000000+I40000019545+0000000000+Z
101785001101785112-116069     101785006009681820277TCS CARRIER BAG JUMBO  0000001000+00000048+00000+0001T   00000048+0000001539          1400 EA6090               1AZ
101785002101785174-000025     101785006008766071603SUIT-BAG PL ZIPPERED   0000002000+00002630+00000+0001T   00002630+0000001539          1400 EA6205               1AZ
101785003101785077-000299     101785006003000395576G/BAG 32x25cm LRG LOVE 0000001000+00001490+00000+0001T   00001490+0000001539          1400 EA6112               1AZ
101785004101785077-000303     101785006001023593757GIFT-BAG PAPER MED     0000001000+00001578+00000+0001T   00001578+0000001539          1400 EA6112               1AZ
101785005101785903-000517     101785006001704012768SWT STRAWS FIZZY CHERRY0000001000+00001227+00000+0001T   00001227+0000001539          1400 EA6150               1AZ
101785006101785903-000518     101785006001704012782SWT STRAWS S/BERRY 100g0000001000+00001227+00000+0001T   00001227+0000001539          1400 EA6150               1AZ
101785007101785563-000318-L   101785006003000407088SERVIETTES 33cm RED    0000001000+00002192+00000+0001T   00002192+0000001539          1400 EA6214               1AZ
101785008101785037-000004     101785006001023763679ASHTRAY PL TUB 8X11CM  0000001000+00001753+00000+0001T   00002192+0008191539          1400 EA6515               1AZ
101785009101785037-050016     101785006001023674128ASHTRAY 9CM RND CLUB   0000001000+00001753+00000+0001T   00001753+0000001539          1400 EA6515               1AZ
101785010101785083-000055     101785006003000003853LIGHTER ELCTRNC REFILBL0000001000+00000613+00000+0001T   00000613+0000001539          1400 EA6315               1AZ
101786000101786               101786               170213OV     1400+00000+OV0000003156+0000003156+000000000+000000442+0000003590+0000000008+I20000000000+0000003590+Z
101786001101786016-006515-A   101786006003000461707S/JAR GLS W/HANDLE 500 0000002000+00001578+00000+0001T   00001753+0008191541          1400 EA6300               1CZ
101787000101787               101787               170213OV     1400+00000+OV0000002192+0000002192+000000000+000000307+0000002499+0000000000+I40000002499+0000000000+Z
101787001101787080-000127     101787006003000424351VALENTINES DAY 36x24CM 0000001000+00002192+00000+0001T   00002192+0000001542          1400 EA6112               1AZ
101788000101788               101788               170213OV     1400+00000+OV0000007662+0000007662+000000000+000001074+0000008736+0000000000+I40000008736+0000000000+Z
101788001101788112-116038     101788006009681820246TCS CARRIER BAG MIDI   0000001000+00000035+00000+0001T   00000035+0000001546          1400 EA6090               1AZ
101788002101788024-000097     101788006001023770035MEASURING-SET 11PCE WHT0000001000+00002192+00000+0001T   00002192+0000001546          1400 EA6300               1AZ
101788003101788002-001069     101788006003000365159KITCHEN STORAGE SALAD  0000001000+00003069+00000+0001T   00003069+0000001546          1400 EA6300               1AZ
101788004101788002-000801     101788006003000555994PEELER PL/MTL Y-SHAPE  0000001000+00001139+00000+0001T   00001139+0000001546          1400 EA6300               1AZ
101788005101788002-000970     101788006001023770578FUNNELS 3PCE WHITE     0000001000+00001227+00000+0001T   00001227+0000001546          1400 EA6300               1AZ
101789000101789               101789               170213OV     1400+00000+OV0000001613+0000001613+000000000+000000226+0000001830+0000000009+I20000000000+0000001830+Z
101789001101789112-116038     101789006009681820246TCS CARRIER BAG MIDI   0000001000+00000035+00000+0001T   00000035+0000001548          1400 EA6090               1CZ
101789002101789024-000034     101789006001023495235MEASURING-JUG 1-CUP    0000001000+00001578+00000+0001T   00001578+0000001548          1400 EA6300               1CZ
101790000101790               101790               170213OV     1400+00000+OV0000002192+0000002192+000000000+000000307+0000002490+0000000009+I20000000000+0000002490+Z
101790001101790077-000914     101790006003000413454G/WRAP 700mmx2m ANIMAL 0000001000+00002192+00000+0001T   00002192+0000001550          1400 EA6112               1AZ
101791000101791               101791               170213OV     1400+00000+OV0000003190+0000003190+000000000+000000448+0000003638+0000000000+I40000003638+0000000000+Z
101791001101791304-001204     101791006001023737984FLOWER OCC. TEDDY/ROSES0000001000+00001402+00000+0001T   00001490+0006471603          1400 EA6510               1AZ
101791002101791039-001023     101791006003000466337CANDLE TEA-LITE METALIC0000001000+00001753+00000+0001T   00001753+0000001603          1400 EA6510               1AZ
101791003101791112-116038     101791006009681820246TCS CARRIER BAG MIDI   0000001000+00000035+00000+0001T   00000035+0000001603          1400 EA6090               1AZ
101792000101792               101792               170213OV     1400+00000+OV0000012061+0000012061+000000000+000001690+0000013751+0000000000+I40000013751+0000000000+Z
101792001101792112-116069     101792006009681820277TCS CARRIER BAG JUMBO  0000001000+00000048+00000+0001T   00000048+0000001609          1400 EA6090               1AZ
101792002101792039-000799     101792006001023692382CANDLES TEALITE 100PCE 0000001000+00008771+00000+0001T   00008771+0000001609          1400 EA6510               1AZ
101792003101792079-009700-I   101792006003000546114PAPER SIRIO A4 LILAC   0000002000+00000306+00000+0001T   00000306+0000001609          1400 EA6130               1AZ
101792004101792566-000308     101792006003000522521STICKER TAPE 3PCS      0000001000+00002630+00000+0001T   00002630+0000001609          1400 EA6130               1AZ
101793000101793               101793               170213OV     1400+00000+OV0000007016+0000007016+000000000+000000983+0000007990+0000000009+I20000000000+0000007990+Z
101793001101793366-002006     101793006001023902696DRESS UP WIGS PARTY ASS0000001000+00007016+00000+0001T   00007016+0000001610          1400 EA6131               1AZ
101794000101794               101794               170213OV     1400+00000+OV0000008771+0000008771+000000000+000001228+0000009990+0000000009+I20000000000+0000009990+Z
101794001101794031-000866-C   101794006001023798503P/FRAME WDN SEASIDE    0000001000+00008771+00000+0001T   00008771+0000001610          1400 EA6510               1CZ
101795000101795               101795               170213OV     1400+00000+OV0000001621+0000001621+000000000+000000227+0000001840+0000000008+I20000000000+0000001840+Z
101795001101795903-000843     101795008693029031067SWT GUMMY JELAXY 80G   0000001000+00000964+00000+0001T   00000964+0000001612          1400 EA6150               1CZ
101795002101795566-001212     101795000721129014166STICKERS MICRO ASSTD   0000001000+00000657+00000+0001T   00000657+0000001612          1400 EA6130               1CZ
101796000101796               101796               170213OV     1400+00000+OV0000001753+0000001753+000000000+000000246+0000001990+0000000009+I20000000000+0000001990+Z
101796001101796080-000109     101796006003000237203CARD&ENVLPE BDAY-BRIGHT0000001000+00001753+00000+0001T   00001753+0000001612          1400 EA6112               1CZ
101797000101797               101797               170213OV     1400+00000+OV0000004383+0000004383+000000000+000000615+0000004990+0000000008+I20000000000+0000004990+Z
101797001101797079-006522     101797006001023149442ART+CRAFT GLUE ASSORTED0000001000+00001753+00000+0001T   00001753+0000001613          1400 EA6130               1CZ
101797002101797006-000803     101797006003000653676STREAMERS SET 3ROLLS   0000001000+00002630+00000+0001T   00002630+0000001613          1400 EA6131               1CZ
101798000101798               101798               170213OV     1400+00000+OV0000009894+0000009894+000000000+000001388+0000011280+0000000002+I20000000000+0000011280+Z
101798001101798112-116038     101798006009681820246TCS CARRIER BAG MIDI   0000001000+00000035+00000+0001T   00000035+0000001615          1400 EA6090               1AZ
101798002101798105-001005     101798006001023858214CONTAINERS MINI 6PCE   0000001000+00001402+00000+0001T   00001402+0000001615          1400 EA6210               1AZ
101798003101798105-000750     101798006003000190270CONTAINERS 4xMINI 150ml0000001000+00001402+00000+0001T   00001402+0000001615          1400 EA6210               1AZ
101798004101798150-000772     101798006005387000227UTILITY-BOX SMALL      0000001000+00000657+00000+0001T   00000657+0000001615          1400 EA6810               1AZ
101798005101798058-001200     101798006001023183798KNIFE 9mm SNAPOFF-BLADE0000001000+00000876+00000+0001T   00000876+0000001615          1400 EA6840               1AZ
101798006101798027-000917     101798006001023367433DUSTPAN-SET MINI 21x16 0000001000+00001753+00000+0001T   00001753+0000001615          1400 EA6212               1AZ
101798007101798084-009417     101798006001023783493SCISSORS 21+14cm 2PCE  0000001000+00003069+00000+0001T   00003069+0000001615          1400 EA6200               1AZ
101798008101798007-000166     101798006009685857316SPIRAL NOTES A6 100PG  0000001000+00000700+00000+0001T   00000700+0000001615          1400 EA6130               1AZ
101799000101799               101799               170213OV     1400+00000+OV0000009681+0000009681+000000000+000001356+0000011037+0000000000+I40000011037+0000000000+Z
101799001101799018-005009     101799006001023725608MUG W/PLUSH-BEAR LOVE  0000001000+00003507+00000+0001T   00003507+0000001620          1400 EA6515               1AZ
101799002101799018-050000     101799006003000412679MUG OCC LOVE TWIN BEAR 0000001000+00006139+00000+0001T   00006139+0000001620          1400 EA6515               1AZ
101799003101799112-116038     101799006009681820246TCS CARRIER BAG MIDI   0000001000+00000035+00000+0001T   00000035+0000001620          1400 EA6090               1AZ
101800000101800               101800               170213OV     1400+00000+OV0000001578+0000001578+000000000+000000221+0000001790+0000000009+I20000000000+0000001790+Z
101800001101800077-000303     101800006001023593757GIFT-BAG PAPER MED     0000001000+00001578+00000+0001T   00001578+0000001620          1400 EA6112               1CZ
101801000101801               101801               170213OV     1400+00000+OV0000002749+0000002749+000000000+000000386+0000003130+0000000005+I20000000000+0000003130+Z
101801001101801112-116038     101801006009681820246TCS CARRIER BAG MIDI   0000001000+00000035+00000+0001T   00000035+0000001621          1400 EA6090               1CZ
101801002101801071-000873     101801006001023758743RUB-BANDS CLR BAG-100  0000001000+00001490+00000+0001T   00001490+0000001621          1400 EA6130               1CZ
101801003101801079-009700-L   101801006003000546350PAPER SIRIO A4 YELLOW  0000002000+00000306+00000+0001T   00000306+0000001621          1400 EA6130               1CZ
101801004101801079-009700-C   101801006003000545636PAPER SIRIO A4 VIOLET  0000002000+00000306+00000+0001T   00000306+0000001621          1400 EA6130               1CZ
101802000101802               101802               170213OV     1400+00000+OV0000002630+0000002630+000000000+000000369+0000002999+0000000000+I40000002999+0000000000+Z
101802001101802006-006019     101802006001023908193PARTY-SPRAY GLITTER    0000001000+00002630+00000+0001T   00002630+0000001623          1400 EA6131               1AZ
101803000101803               101803               170213OV     1400+00000+OV0000007178+0000007178+000000000+000001006+0000008184+0000000000+I40000008184+0000000000+Z
101803001101803007-000555     101803006001023848239MEMO-PAD MINI LOVE     0000005000+00000613+00000+0001T   00000613+0000001630          1400 EA6130               1CZ
101803002101803007-000537     101803000651728791017NOTE-PAD RND SMILE-FACE0000005000+00000700+00000+0001T   00000700+0000001630          1400 EA6130               1CZ
101803003101803565-000044     101803006003000128280BARREL OF SLIME 100g   0000001000+00000613+00000+0001T   00000613+0000001630          1400 EA6745               1CZ
101804000101804               101804               170213OV     1400+00000+OV0000001578+0000001578+000000000+000000221+0000001790+0000000009+I20000000000+0000001790+Z
101804001101804077-000303     101804006001023593757GIFT-BAG PAPER MED     0000001000+00001578+00000+0001T   00001578+0000001632          1400 EA6112               1AZ
101805000101805               101805               170213OV     1400+00000+OV0000001840+0000001840+000000000+000000258+0000002090+0000000008+I20000000000+0000002090+Z
101805001101805903-000519     101805006001704012805SWT MS LIQ-O-GHETTI    0000001000+00001227+00000+0001T   00001227+0000001635          1400 EA6150               1AZ
101805002101805083-000055     101805006003000003853LIGHTER ELCTRNC REFILBL0000001000+00000613+00000+0001T   00000613+0000001635          1400 EA6315               1AZ
101806000101806               101806               170213OV     1400+00000+OV0000003331+0000003331+000000000+000000467+0000003790+0000000008+I20000000000+0000003790+Z
101806001101806077-000315     101806006003000181186GIFT-BAG 20x28cm MATT  0000001000+00001578+00000+0001T   00001578+0000001636          1400 EA6112               1AZ
101806002101806077-000115     101806006001023834225WRAP METALLIC 700mmx1m 0000001000+00001753+00000+0001T   00001753+0000001636          1400 EA6112               1AZ
101807000101807               101807               170213OV     1400+00000+OV0000007365+0000007365+000000000+000001032+0000008397+0000000000+I40000008397+0000000000+Z
101807001101807079-000510     101807006001023509079CRAYONS WAX 12-COLOUR  0000003000+00002455+00000+0001T   00002455+0000001638          1400 EA6130               1AZ
101808000101808               101808               170213OV     1400+00000+OV0000007049+0000007049+000000000+000000988+0000008030+0000000007+I20000000000+0000008030+Z
101808001101808006-005909     101808006003000081301PARTY FAVOUR STAR WAND 0000001000+00002192+00000+0001T   00002192+0000001640          1400 EA6131               1AZ
101808002101808071-000404     101808006001023676696P/SHARPENER WORLD-GLOBE0000001000+00002192+00000+0001T   00002192+0000001640          1400 EA6130               1AZ
101808003101808565-000041     101808006008766115642NOVELTY BALL ICON 5.5cm0000001000+00002630+00000+0001T   00002630+0000001640          1400 EA6745               1AZ
101808004101808112-116038     101808006003000534906TCS CARRIER BAG MIDI   0000001000+00000035+00000+0001T   00000035+0000001640          1400 EA6090               1AZ
101809000101809               101809               170213OV     1400+00000+OV0000007925+0000007925+000000000+000001112+0000009037+0000000000+I40000009037+0000000000+Z
101809001101809304-000720     101809006001023843050F/BUNCH ROSE 6-HEAD AST0000003000+00002630+00000+0001T   00002630+0000001642          1400 EA6510               1AZ
101809002101809112-116038     101809006003000534906TCS CARRIER BAG MIDI   0000001000+00000035+00000+0001T   00000035+0000001642          1400 EA6090               1AZ
101810000101810               101810               170213OV     1400+00000+OV0000009644+0000009644+000000000+000001351+0000010995+0000000000+I40000010995+0000000000+Z
101810001101810103-000090     101810006001023795786WOVEN HEART SHAPED     0000002000+00003507+00000+0001T   00003507+0000001648          1400 EA6300               1AZ
101810002101810006-006018-B   101810006003000008278PARTY-SPRAY HAIR NEON  0000001000+00002630+00000+0001T   00002630+0000001648          1400 EA6131               1AZ
101811000101811               101811               170213OV     1400+00000+OV0000017683+0000017683+000000000+000002476+0000020159+0000000000+I40000020159+0000000000+Z
101811001101811564-000012     101811006001023130075BUBBLE BOTTLE MAGIC    0000019000+00000700+00000+0001T   00000700+0000001654          1400 EA6131               1AZ
101811002101811200-000092     101811006003000576739PICNIC PAPER PLATES 23c0000001000+00001227+00000+0001T   00001227+0000001654          1400 EA6214               1AZ
101811003101811079-013102     101811006003000019601ART+CRAFT DIY PIPE-CLNR0000001000+00002192+00000+0001T   00002192+0000001654          1400 EA6130               1AZ
101811004101811039-000336     101811006001023169129B'DAY-CANDLES MAGIC 10P0000001000+00000964+00000+0001T   00000964+0000001654          1400 EA6510               1AZ
101812000101812               101812               170213OV     1400+00000+OV0000003857+0000003857+000000000+000000541+0000004390+0000000008+I20000000000+0000004390+Z
101812001101812903-000519     101812006001704012805SWT MS LIQ-O-GHETTI    0000001000+00001227+00000+0001T   00001227+0000001655          1400 EA6150               1AZ
101812002101812077-000270     101812006003000395453GIFT-BAG PPR JMB 33X45 0000001000+00002630+00000+0001T   00002630+0000001655          1400 EA6112               1AZ
101813000101813               101813               170213OV     1400+00000+OV0000017542-0000017542-000000000+000002456-0000019998-0000000000+I40000019998-0000000000+Z
101813001101813203-000120     101813006003000566976BAR ACC. SET 5PC       0000001000-00017542+00000+0001T   00017542+0000001708          1400 EA63001IC            1 Z
101814000101814               101814               170213OV     1400+00000+OV0000006346+0000006346+000000000+000000890+0000007236+0000000000+I40000007236+0000000000+Z
101814001101814077-000011-D   101814006001023808554TISSUE-WRAP WHITE 10PCE0000001000+00000876+00000+0001T   00000876+0000001710          1400 EA6112               1AZ
101814002101814565-000888     101814006003000607846NOVELTY MESH BALL      0000001000+00001753+00000+0001T   00001753+0000001710          1400 EA6745               1AZ
101814003101814565-004010     101814006003000597246JUMPING-BEANS 5PCE     0000001000+00002192+00000+0001T   00002192+0000001710          1400 EA6745               1AZ
101814004101814565-004101     101814006003000548033BALL BOUNCING EGG      0000001000+00001490+00000+0001T   00001490+0000001710          1400 EA6745               1AZ
101814005101814112-116038     101814006009681820246TCS CARRIER BAG MIDI   0000001000+00000035+00000+0001T   00000035+0000001710          1400 EA6090               1AZ
101815000101815               101815               170213OV     1400+00000+OV0000002628+0000002628+000000000+000000368+0000002990+0000000006+I20000000000+0000002990+Z
101815001101815077-000310     101815006001023608635GIFT-BAG 18X23CM GLOSS 0000002000+00001314+00000+0001T   00001314+0000001710          1400 EA6112               1AZ
101816000101816               101816               170213OV     1400+00000+OV0000001490+0000001490+000000000+000000209+0000001690+0000000009+I20000000000+0000001690+Z
101816001101816077-000452     101816006003000284986G/BAG METALLIC MED EMB 0000001000+00001490+00000+0001T   00001490+0000001711          1400 EA6112               1AZ
101817000101817               101817               170213OV     1400+00000+OV0000008765+0000008765+000000000+000001230+0000009995+0000000000+I40000009995+0000000000+Z
101817001101817362-002464     101817006003000167388HAIR EXT 30cm 6PCS COL 0000003000+00001753+00000+0001T   00001753+0000001715          1400 EA6160               1AZ
101817002101817565-000859     101817006001023691361SUNGLASSES GIANT       0000002000+00001753+00000+0001T   00001753+0000001715          1400 EA6745               1AZ
101818000101818               101818               170213OV     1400+00000+OV0000001800+0000001800+000000000+000000253+0000002053+0000000000+I40000002053+0000000000+Z
101818001101818038-047246     101818006001023873750PLACEMAT 44x28cm KIDS  0000002000+00000876+00000+0001T   00000876+0000001717          1400 EA6300               1AZ
101818002101818112-116069     101818006003000535064TCS CARRIER BAG JUMBO  0000001000+00000048+00000+0001T   00000048+0000001717          1400 EA6090               1AZ
101819000101819               101819               170213OV     1400+00000+OV0000003331+0000003331+000000000+000000467+0000003798+0000000000+I40000003798+0000000000+Z
101819001101819903-000482     101819006001704001397SWT SOFT-MINTS 60G     0000001000+00000876+00000+0001T   00000876+0000001719          1400 EA6150               1AZ
101819002101819103-000788     101819006001023896292WOVEN ROUND BASKET     0000001000+00002455+00000+0001T   00002455+0000001719          1400 EA6300               1AZ
101820000101820               101820               170213OV     1400+00000+OV0000004383+0000004383+000000000+000000615+0000004998+0000000000+I40000004998+0000000000+Z
101820001101820006-000803     101820006003000653676STREAMERS SET 3ROLLS   0000001000+00002630+00000+0001T   00002630+0000001720          1400 EA6131               1AZ
101820002101820079-006522     101820006001023149442ART+CRAFT GLUE ASSORTED0000001000+00001753+00000+0001T   00001753+0000001720          1400 EA6130               1AZ
101821000101821               101821               170213OV     1400+00000+OV0000001227+0000001227+000000000+000000172+0000001399+0000000000+I40000001399+0000000000+Z
101821001101821077-000245     101821006001023759214GIFT-RIBBON METALLICx2 0000001000+00001227+00000+0001T   00001227+0000001721          1400 EA6112               1AZ
101822000101822               101822               170213OV     1400+00000+OV0000008990+0000008990+000000000+000001260+0000010250+0000000000+I40000010250+0000000000+Z
101822001101822112-116069     101822006003000535064TCS CARRIER BAG JUMBO  0000001000+00000048+00000+0001T   00000048+0000001724          1400 EA6090               1AZ
101822002101822077-000305     101822006003000395422GIFT-BAG WINE 10X35CM  0000001000+00001490+00000+0001T   00001490+0000001724          1400 EA6112               1AZ
101822003101822200-003024     101822006001023657299REFUSE BAGS 20PCE BLACK0000001000+00001753+00000+0001T   00001753+0000001724          1400 EA6214               1AZ
101822004101822200-000020     101822006925406841030BAG ZIPPERSEAL 25PC    0000001000+00002192+00000+0001T   00002192+0000001724          1400 EA6214               1AZ
101822005101822039-080942     101822006001023669872C/PILLAR RND WHT 10X7CM0000001000+00003507+00000+0001T   00003507+0000001724          1400 EA6510               1AZ
101823000101823               101823               170213OV     1400+00000+OV0000002665+0000002665+000000000+000000374+0000003039+0000000000+I40000003039+0000000000+Z
101823001101823031-000873-A   101823006003000675425P/FRAME WDN WHITE 10X150000001000+00002630+00000+0001T   00002630+0000001729          1400 EA6510               1AZ
101823002101823112-116038     101823006003000534906TCS CARRIER BAG MIDI   0000001000+00000035+00000+0001T   00000035+0000001729          1400 EA6090               1AZ
101824000101824               101824               170213OV     1400+00000+OV0000008819+0000008819+000000000+000001235+0000010054+0000000000+I40000010054+0000000000+Z
101824001101824203-000107     101824006001023820358ICE-BUCKET T/PLATE DECO0000001000+00008771+00000+0001T   00008771+0000001731          1400 EA6300               1AZ
101824002101824112-116069     101824006003000535064TCS CARRIER BAG JUMBO  0000001000+00000048+00000+0001T   00000048+0000001731          1400 EA6090               1AZ
101825000101825               101825               170213OV     1400+00000+OV0000003243+0000003243+000000000+000000455+0000003698+0000000000+I40000003698+0000000000+Z
101825001101825080-000116     101825006003000253555CARD&ENVELOPE-HANDMADE 0000001000+00001753+00000+0001T   00001753+0000001733          1400 EA6112               1AZ
101825002101825077-000327     101825006001023677686GIFT-BAG 25X32CM E/D BA0000001000+00001490+00000+0001T   00001490+0000001733          1400 EA6112               1AZ
101826000101826               101826               170213OV     1400+00000+OV0000002455+0000002455+000000000+000000344+0000002799+0000000000+I40000002799+0000000000+Z
101826001101826077-000380     101826006003000247585GIFT-BAG 33X45CM S/COL 0000001000+00002455+00000+0001T   00002455+0000001734          1400 EA6112               1AZ
101827000101827               101827               170213OV     1400+00000+OV0000025912+0000025912+000000000+000003633+0000029545+0000000000+I40000029545+0000000000+Z
101827001101827007-000551     101827006001023848079NOTE-PAD SHOP-LIST ASST0000001000+00001753+00000+0001T   00001753+0000001736          1400 EA6130               1AZ
101827002101827080-000133-A   101827006003000647019MINI VALENTINES CARD   0000003000+00000437+00000+0001T   00000437+0000001736          1400 EA6112               1AZ
101827003101827031-000873-A   101827006003000675425P/FRAME WDN WHITE 10X150000002000+00002630+00000+0001T   00002630+0000001736          1400 EA6510               1AZ
101827004101827031-000873-C   101827006003000673513P/FRAME WDN WHITE 20X250000004000+00004385+00000+0001T   00004385+0000001736          1400 EA6510               1AZ
101827005101827112-116069     101827006003000535064TCS CARRIER BAG JUMBO  0000001000+00000048+00000+0001T   00000048+0000001736          1400 EA6090               1AZ
101828000101828               101828               170213OV     1400+00000+OV0000001607+0000001607+000000000+000000229+0000001830+0000000006+I20000000000+0000001830+Z
101828001101828903-000183     101828006003000451043SWT LB HEART LOLLY     0000004000+00000393+00000+0001T   00000393+0000001736          1400 EA6150               1AZ
101828002101828112-116038     101828006003000534906TCS CARRIER BAG MIDI   0000001000+00000035+00000+0001T   00000035+0000001736          1400 EA6090               1AZ
101829000101829               101829               170213OV     1400+00000+OV0000003542+0000003542+000000000+000000496+0000004030+0000000008+I20000000000+0000004030+Z
101829001101829018-005009     101829006001023725608MUG W/PLUSH-BEAR LOVE  0000001000+00003507+00000+0001T   00003507+0000001738          1400 EA6515               1AZ
101829002101829112-116038     101829006009681820246TCS CARRIER BAG MIDI   0000001000+00000035+00000+0001T   00000035+0000001738          1400 EA6090               1AZ
101830000101830               101830               170213OV     1400+00000+OV0000001753+0000001753+000000000+000000246+0000001990+0000000009+I20000000000+0000001990+Z
101830001101830077-000301     101830008010410010188BAG LRG 25X32CM B/DAY  0000001000+00001753+00000+0001T   00001753+0000001739          1400 EA6112               1AZ
101831000101831               101831               170213OV     1400+00000+OV0000001578+0000001578+000000000+000000221+0000001790+0000000009+I20000000000+0000001790+Z
101831001101831077-000303     101831006001023593757GIFT-BAG PAPER MED     0000001000+00001578+00000+0001T   00001578+0000001747          1400 EA6112               1AZ
101832000101832               101832               170213OV     1400+00000+OV0000016705+0000016705+000000000+000002341+0000019046+0000000000+I40000019046+0000000000+Z
101832001101832031-005853     101832006003000442416P/FRAME WDN TWIN HEARTS0000001000+00003507+00000+0001T   00003507+0000001755          1400 EA6510               1AZ
101832002101832263-000010     101832006003000551293VEHICLE ANIMAL WORLD 3p0000001000+00001753+00000+0001T   00001753+0000001755          1400 EA6710               1AZ
101832003101832077-000932     101832006003000409808G/WRAP 700mmx5m PATTERN0000001000+00003507+00000+0001T   00003507+0000001755          1400 EA6112               1AZ
101832004101832105-001075     101832006001023844873LUNCH BOX 17x11x7cm    0000001000+00003069+00000+0001T   00003069+0000001755          1400 EA6210               1AZ
101832005101832039-080962     101832006001023736055C/SET 3PC(GLS-CUP+2CAN)0000001000+00001753+00000+0001T   00001753+0000001755          1400 EA6510               1AZ
101832006101832071-005213     101832006001023690371CELLOTAPE 12mmx33m     0000001000+00000876+00000+0001T   00000876+0000001755          1400 EA6130               1AZ
101832007101832018-000170     101832006001023775528MUG OCC. LOVE 2PC MINI 0000001000+00002192+00000+0001T   00002192+0000001755          1400 EA6515               1AZ
101832008101832112-116069     101832006003000535064TCS CARRIER BAG JUMBO  0000001000+00000048+00000+0001T   00000048+0000001755          1400 EA6090               1AZ
101833000101833               101833               170213OV     1400+00000+OV0000001754-0000001754-000000000+000000245-0000001999-0000000000+I40000001999-0000000000+Z
101833001101833077-000932     101833006003000409808G/WRAP 700mmx5m PATTERN0000001000-00003507+00000+0001T   00003507+0000001759          1400 EA61121IC            1 Z
101833002101833077-000116     101833006003000240777GIFT-WRAP 700mmx2m COL 0000001000+00001753+00000+0001T   00001753+0000001759          1400 EA6112               1 Z
101834000101834               101834               170213OV     1400+00000+OV0000004733+0000004733+000000000+000000664+0000005390+0000000007+I20000000000+0000005390+Z
101834001101834077-000251     101834006003000639106GIFT-DECOR RIBBON      0000001000+00002630+00000+0001T   00002630+0000001803          1400 EA6112               1AZ
101834002101834903-000220     101834006001704007368SWT JELLY BEANS 60G    0000001000+00000876+00000+0001T   00000876+0000001803          1400 EA6150               1AZ
101834003101834903-000517     101834006001704012768SWT STRAWS FIZZY CHERRY0000001000+00001227+00000+0001T   00001227+0000001803          1400 EA6150               1AZ
C10171200                                          170213OV077-000005-B   09393537SLAVE 1     EA61IC0000000000+0000000000+0050000001000+
C10181300                                          170213OV304-001116     17062666SLAVE 1     EA61IC0000000000+0000000000+0010000001000+
M17021391                              CASH        OVSLAVE 1                       Z-REPORT No.   604TOTAL (Sales - Refunds)          13319.02       CASH TO BE BANKED                 3494.20       DEBIT CARDS                          0.00       CREDIT CARDS                      9824.82       Z-READING                        13319.02       AIRTIME DEBIT CARD SALES             0.00       AIRTIME CARD SALES                   0.00       OVERS/UNDERS                         0.00       AIRTIME CASH SALES                   0.00       GIFT CARDS                           0.00       GIFT CARD CASH SALES                 0.00       T O T A L  CASH PAYOUTS              0.00                                                                                                                                                                                                                                                                                                                                                      Z
M17021392                              CASH        OVABSENT                                                                                                                                                                                          ANNUAL LEAVE                                                                                                                                                                                    DAY OFF                                                                                                                                                                                         COMMENTS                                                                                                                                                                                                                                                                                                                                                                                       Z
Y17021300                                          OV00000001200134+000124
ZOV17021320163 SLAVE 1      SALES DATA                     NEXT INVOICE NO.  101835 0604
X OV Slave 1 First invoice 101710 170213 Last invoice 101834 170213 Next invoice 101835 Total number of records 000000531 clbackup completed 20:16:15
