208262000208262               208262               170213OV     1400+00000+OV0000004822+0000004822+000000000+000000676+0000005490+0000000008+I20000000000+0000005490+Z
208262001208262105-007022     208262006003000684892CONTAINER ROUND CLR 2L 0000001000+00002630+00000+0001T   00002630+0000000958          1400 2IC210               2CZ
208262002208262200-000025-A   208262006925406841054BAG ZIPPERSEAL 15PC    0000001000+00002192+00000+0001T   00002192+0000000958          1400 2IC214               2CZ
208263000208263               208263               170213OV     1400+00000+OV0000014589+0000014589+000000000+000002045+0000016634+0000000000+I40000016634+0000000000+Z
208263001208263466-000520     208263006003000023585BASEBALL BAT & BALL    0000001000+00006139+00000+0001T   00006139+0000001020          1400 2IC785               2CZ
208263002208263560-000302     208263006001023834874DINOSAUR ASSTD DESIGNS 0000001000+00003507+00000+0001T   00003507+0000001020          1400 2IC745               2CZ
208263003208263105-001005     208263006001023858214CONTAINERS MINI 6PCE   0000001000+00001402+00000+0001T   00001402+0000001020          1400 2IC210               2CZ
208263004208263903-000215     208263006002099001214SWT GS MALLOW TWIST PAC0000002000+00001753+00000+0001T   00001753+0000001020          1400 2IC150               2CZ
208263005208263112-116038     208263006003000534906TCS CARRIER BAG MIDI   0000001000+00000035+00000+0001T   00000035+0000001020          1400 2IC090               2CZ
208264000208264               208264               170213OV     1400+00000+OV0000010692+0000010692+000000000+000001500+0000012192+0000000000+I40000012192+0000000000+Z
208264001208264266-000634     208264006003000119554GLIDER BALLOON HELICO  0000001000+00001753+00000+0001T   00001753+0000001048          1400 2IC710               2CZ
208264002208264079-009702-C   208264008427973059309PAPER SIRIO A2 VIOLET  0000001000+00001051+00000+0001T   00001051+0000001048          1400 2IC130               2CZ
208264003208264034-091339     208264006003000568253BABY BIB 33x39cm 4ASSTD0000001000+00003507+00000+0001T   00003507+0000001048          1400 2IC215               2CZ
208264004208264039-000319-1   208264006003000442386B/CANDLES LRG NUMBER-1 0000001000+00000876+00000+0001T   00000876+0000001048          1400 2IC510               2CZ
208264005208264566-000066     208264006003000283675STICKERS GLITTER 25PCS 0000001000+00001753+00000+0001T   00001753+0000001048          1400 2IC130               2CZ
208264006208264038-047246     208264006001023873750PLACEMAT 44x28cm KIDS  0000002000+00000876+00000+0001T   00000876+0000001048          1400 2IC300               2CZ
208265000208265               208265               170213OV     1400+00000+OV0000012278+0000012278+000000000+000001720+0000013998+0000000000+I40000013998+0000000000+Z
208265001208265079-013052     208265000795229385143CHALK S/WALK 15PCS ASST0000001000+00004385+00000+0001T   00004385+0000001053          1400 2IC130               2CZ
208265002208265007-010504     208265006002923014960BLACKBOARD EASEL       0000001000+00007893+00000+0001T   00007893+0000001053          1400 2IC130               2CZ
208266000208266               208266               170213OV     1400+00000+OV0000015076+0000015076+000000000+000002115+0000017191+0000000000+I40000017191+0000000000+Z
208266001208266080-000500     208266006001023846211CARD&ENV 6PK GLITTER   0000003000+00001753+00000+0001T   00001753+0000001103          1400 2IC112               2CZ
208266002208266080-008102     208266006003000080724CARD&ENV MINI 6PK FOIL 0000001000+00001753+00000+0001T   00001753+0000001103          1400 2IC112               2CZ
208266003208266072-020257     208266006001023598110DOG-CHEW SHOE 13cm     0000001000+00002192+00000+0001T   00002192+0000001103          1400 2IC870               2CZ
208266004208266002-000015     208266006003000555604CAPPUCCINO STENCILS 12P0000001000+00001753+00000+0001T   00001753+0000001103          1400 2IC300               2CZ
208266005208266033-005991     208266006001023678546NEEDLES H/HOLD-REPAIR  0000001000+00000788+00000+0001T   00000788+0000001103          1400 2IC200               2CZ
208266006208266077-000301     208266008010410010188BAG LRG 25X32CM B/DAY  0000001000+00001753+00000+0001T   00001753+0000001103          1400 2IC112               2CZ
208266007208266077-000323     208266006001023677563G/BAG 25X32CM E/DAY FLO0000001000+00001578+00000+0001T   00001578+0000001103          1400 2IC112               2CZ
208267000208267               208267               170213OV     1400+00000+OV0000002366+0000002366+000000000+000000332+0000002690+0000000008+I20000000000+0000002690+Z
208267001208267071-005211     208267006003000152346CELLOTAPE MOUNTING TAPE0000001000+00001753+00000+0001T   00001753+0000001106          1400 2IC130               2CZ
208267002208267304-001205     208267006001023738011FLWR P/STER FERN SPRAY 0000001000+00000613+00000+0001T   00000613+0000001106          1400 2IC510               2CZ
208268000208268               208268               170213OV     1400+00000+OV0000004385+0000004385+000000000+000000614+0000004990+0000000009+I20000000000+0000004990+Z
208268001208268206-000160     208268006003000628780CORN KERNELER          0000001000+00004385+00000+0001T   00004385+0000001116          1400 2IC321               2CZ
208269000208269               208269               170213OV     1400+00000+OV0000024735+0000024735+000000000+000003478+0000028213+0000000000+I40000028213+0000000000+Z
208269001208269565-000014     208269006003000671915NOVELTY AIR BALLOON    0000005000+00002630+00000+0001T   00002630+0000001156          1400 2IC745               2CZ
208269002208269903-000077     208269006939873501687SWT GS MAGIC ROCK FRUIT0000022000+00000525+00000+0001T   00000525+0000001156          1400 2IC150               2CZ
208269003208269112-116038     208269006003000534906TCS CARRIER BAG MIDI   0000001000+00000035+00000+0001T   00000035+0000001156          1400 2IC090               2CZ
208270000208270               208270               170213OV     1400+00000+OV0000000876+0000000876+000000000+000000123+0000000990+0000000009+I20000000000+0000000990+Z
208270001208270077-000011-C   208270006001023808523TISSUE 10xSHTS RED     0000001000+00000876+00000+0001T   00000876+0000001201          1400 2IC112               2CZ
208271000208271               208271               170213OV     1400+00000+OV0000023460+0000023460+000000000+000003288+0000026740+0000000008+I20000000000+0000026740+Z
208271001208271112-116069     208271006003000535064TCS CARRIER BAG JUMBO  0000001000+00000048+00000+0001T   00000048+0000001213          1400 2IC090               2CZ
208271002208271368-000637     208271006001023874092PLUSH BEAR SLEEPING LOV0000001000+00011402+00000+0001T   00012279+0006471213          1400 2IC745               2CZ
208271003208271077-000299     208271006003000395576G/BAG 32x25cm LRG LOVE 0000001000+00001490+00000+0001T   00001490+0000001213          1400 2IC112               2CZ
208271004208271039-000624     208271006003000054923C/SET 4PC PILLARS 5X8CM0000001000+00007016+00000+0001T   00007016+0000001213          1400 2IC510               2CZ
208271005208271040-000209     208271006003000673872C/HOLDER GLS CLEAR 6.5 0000004000+00000876+00000+0001T   00000876+0000001213          1400 2IC510               2CZ
208272000208272               208272               170213OV     1400+00000+OV0000023367+0000023367+000000000+000003272+0000026639+0000000000+I40000026639+0000000000+Z
208272001208272366-002695     208272006003000222766DRESS UP HAT ROUND GLIT0000002000+00002192+00000+0001T   00002192+0000001217          1400 2IC131               2CZ
208272002208272304-001168     208272006003000407781FLWR FLOATING LOTUS ASS0000002000+00003507+00000+0001T   00003507+0000001217          1400 2IC510               2CZ
208272003208272560-000113     208272006001023664464GOLD-FISH 4PC          0000002000+00003507+00000+0001T   00003507+0000001217          1400 2IC745               2CZ
208272004208272464-009010     208272006001023800756FISHING-GAME MAG +ROD  0000001000+00003507+00000+0001T   00003507+0000001217          1400 2IC785               2CZ
208272005208272112-116069     208272006003000535064TCS CARRIER BAG JUMBO  0000001000+00000048+00000+0001T   00000048+0000001217          1400 2IC090               2CZ
208272006208272564-000012     208272006001023130075BUBBLE BOTTLE MAGIC    0000002000+00000700+00000+0001T   00000700+0000001217          1400 2IC131               2CZ
208273000208273               208273               170213OV     1400+00000+OV0000002630+0000002630+000000000+000000369+0000002999+0000000000+I40000002999+0000000000+Z
208273001208273019-071600     208273006001023771971RIVER-STONES 1kg MIXED 0000001000+00002630+00000+0001T   00002630+0000001219          1400 2IC510               2CZ
208274000208274               208274               170213OV     1400+00000+OV0000002279+0000002279+000000000+000000320+0000002590+0000000009+I20000000000+0000002590+Z
208274001208274027-000194     208274006001246602472MOP COMPLETE           0000001000+00002279+00000+0001T   00002279+0000001219          1400 2IC212               2CZ
208275000208275               208275               170213OV     1400+00000+OV0000000874+0000000874+000000000+000000124+0000000990+0000000008+I20000000000+0000000990+Z
208275001208275080-000133-A   208275006003000647019MINI VALENTINES CARD   0000002000+00000437+00000+0001T   00000437+0000001221          1400 2IC112               2AZ
208276000208276               208276               170213OV     1400+00000+OV0000012058+0000012058+000000000+000001690+0000013740+0000000008+I20000000000+0000013740+Z
208276001208276112-116069     208276006003000535064TCS CARRIER BAG JUMBO  0000001000+00000048+00000+0001T   00000048+0000001316          1400 2IC090               2CZ
208276002208276564-000012     208276006001023130075BUBBLE BOTTLE MAGIC    0000001000+00000700+00000+0001T   00000700+0000001316          1400 2IC131               2CZ
208276003208276560-000700     208276006001023865830GROWING ANIMALS ASSTD  0000001000+00001578+00000+0001T   00001578+0000001316          1400 2IC745               2CZ
208276004208276079-000512     208276006001023635853CRAYONS WAX 12-COLOUR  0000001000+00001490+00000+0001T   00001490+0000001316          1400 2IC130               2CZ
208276005208276079-000271     208276006003000160082PAINT-BRUSHES LRGE ART 0000001000+00003069+00000+0001T   00003069+0000001316          1400 2IC130               2CZ
208276006208276079-000261     208276006003000159727PAINT WATER COLOUR CAKE0000001000+00004385+00000+0001T   00004385+0000001316          1400 2IC130               2CZ
208276007208276903-000138     208276006002099004314SWT GS WINE GUMS 60G   0000001000+00000788+00000+0001T   00000788+0000001316          1400 2IC150               2CZ
208277000208277               208277               170213OV     1400+00000+OV0000006436+0000006436+000000000+000000902+0000007338+0000000000+I40000007338+0000000000+Z
208277001208277903-000898     208277006922516801503SWT POPPING CANDY      0000001000+00001139+00000+0001T   00001139+0000001337          1400 IY8150               2AZ
208277002208277007-000322     208277006009685858634PAPER A4 80GSM 100'S   0000001000+00005262+00000+0001T   00005262+0000001337          1400 IY8130               2AZ
208277003208277112-116038     208277006003000534906TCS CARRIER BAG MIDI   0000001000+00000035+00000+0001T   00000035+0000001337          1400 IY8090               2AZ
208278000208278               208278               170213OV     1400+00000+OV0000039090+0000039090+000000000+000005477+0000044567+0000000000+I40000044567+0000000000+Z
208278001208278112-116053     208278006006438002399TCS CARRIER BAG 38L    0000001000+00000069+00000+0001T   00000069+0000001339          1400 IY8090               2AZ
208278002208278361-090308     208278006003000234936PONY W/DOLL SML 7cm    0000002000+00006139+00000+0001T   00006139+0000001339          1400 IY8725               2AZ
208278003208278263-000503     208278006001023828323TRUCK+TRAILER+SML-TRUCK0000001000+00005262+00000+0001T   00005262+0000001339          1400 IY8710               2AZ
208278004208278267-006030     208278000047754588347PUZZLE 24pc HOTWHEEL   0000001000+00001314+00000+0001T   00001753+0008141339          1400 IY8755               2AZ
208278005208278267-000245     208278006003000644278PUZZLE JIGSAW 24PC     0000001000+00004385+00000+0001T   00004385+0000001339          1400 IY8755               2AZ
208278006208278466-006156     208278006003000537204GOLF-SET PUTTER W/BALL 0000001000+00003507+00000+0001T   00003507+0000001339          1400 IY8785               2AZ
208278007208278361-090307     208278000026676675601PONY 11CM W/DOLL SML   0000002000+00002630+00000+0001T   00002630+0000001339          1400 IY8725               2AZ
208278008208278262-000651     208278006001023754561DIE CAST SET 5PC RACER 0000001000+00002630+00000+0001T   00002630+0000001339          1400 IY8710               2AZ
208278009208278267-000182     208278006003000390274PUZZLE 24pc ASSTD      0000001000+00004385+00000+0001T   00004385+0000001339          1400 IY8755               2AZ
208279000208279               208279               170213OV     1400+00000+OV0000030842+0000030842+000000000+000004321+0000035163+0000000000+I40000035163+0000000000+Z
208279001208279112-116053     208279006006438002399TCS CARRIER BAG 38L    0000001000+00000069+00000+0001T   00000069+0000001342          1400 IY8090               2AZ
208279002208279071-000306     208279006001023715371STENCILS ART FUN SET   0000001000+00003507+00000+0001T   00003507+0000001342          1400 IY8130               2AZ
208279003208279079-014004     208279006003000080045ART+CRAFT JEWELRY ASSTD0000001000+00003507+00000+0001T   00003507+0000001342          1400 IY8130               2AZ
208279004208279560-000109     208279006003000547784DINO'S PAINT GLOWING   0000001000+00004385+00000+0001T   00004385+0000001342          1400 IY8745               2AZ
208279005208279365-000001     208279006003000395262PLAY SET DOCTORS SET   0000001000+00001753+00000+0001T   00001753+0000001342          1400 IY8725               2AZ
208279006208279365-003050     208279006003000654987PLAY-SET FASHION 5PC   0000001000+00002630+00000+0001T   00002630+0000001342          1400 IY8725               2AZ
208279007208279079-011526     208279006003000408375GLITTER & SAND ART     0000003000+00003507+00000+0001T   00003507+0000001342          1400 IY8130               2AZ
208279008208279565-004101     208279006003000548033BALL BOUNCING EGG      0000003000+00001490+00000+0001T   00001490+0000001342          1400 IY8745               2AZ
208280000208280               208280               170213OV     1400+00000+OV0000004384+0000004384+000000000+000000614+0000004990+0000000008+I20000000000+0000004990+Z
208280001208280563-000318-L   208280006003000407088SERVIETTES 33cm RED    0000002000+00002192+00000+0001T   00002192+0000001342          1400 IY8214               2AZ
208281000208281               208281               170213OV     1400+00000+OV0000002979+0000002979+000000000+000000418+0000003397+0000000000+I40000003397+0000000000+Z
208281001208281077-000150-D   208281006003000054343GIFT-WRAP CELLPHANE CLR0000002000+00000876+00000+0001T   00000876+0000001345          1400 IY8112               2AZ
208281002208281077-000245     208281006001023759214GIFT-RIBBON METALLICx2 0000001000+00001227+00000+0001T   00001227+0000001345          1400 IY8112               2AZ
208282000208282               208282               170213OV     1400+00000+OV0000005294+0000005294+000000000+000000743+0000006037+0000000000+I40000006037+0000000000+Z
208282001208282037-050016     208282006001023674128ASHTRAY 9CM RND CLUB   0000001000+00001753+00000+0001T   00001753+0000001346          1400 IY8515               2AZ
208282002208282040-000922     208282006001023587817CANDLE-HOLDER GLS 18cm 0000002000+00001753+00000+0001T   00001753+0000001346          1400 IY8510               2AZ
208282003208282112-116038     208282006003000534906TCS CARRIER BAG MIDI   0000001000+00000035+00000+0001T   00000035+0000001346          1400 IY8090               2AZ
208283000208283               208283               170213OV     1400+00000+OV0000000876+0000000876+000000000+000000123+0000000990+0000000009+I20000000000+0000000990+Z
208283001208283080-000129     208283006003000448012CRD & ENV DIY KITS ASST0000001000+00000876+00000+0001T   00001490+0008151348          1400 IY8112               2AZ
208284000208284               208284               170213OV     1400+00000+OV0000011396+0000011396+000000000+000001598+0000012994+0000000000+I40000012994+0000000000+Z
208284001208284077-000115-B   208284006003000181025GIFT-WRAP PPR 700MMX2M 0000001000+00002630+00000+0001T   00002630+0000001351          1400 IY8112               2AZ
208284002208284077-000115     208284006001023834225WRAP METALLIC 700mmx1m 0000001000+00001753+00000+0001T   00001753+0000001351          1400 IY8112               2AZ
208284003208284071-005060     208284006003000152186CELLOTAPE 2PACK INVSBLE0000001000+00003507+00000+0001T   00003507+0000001351          1400 IY8130               2AZ
208284004208284077-000381     208284006003000247707GIFT-BAG 25X32CM S/COL 0000001000+00001753+00000+0001T   00001753+0000001351          1400 IY8112               2AZ
208284005208284077-000011-X   208284006001023809827TISSUE-WRAP SILVER 10PC0000001000+00001753+00000+0001T   00001753+0000001351          1400 IY8112               2AZ
208285000208285               208285               170213OV     1400+00000+OV0000012565+0000012565+000000000+000001762+0000014320+0000000007+I20000000000+0000014320+Z
208285001208285566-000031     208285006003000283910STICKER BK TEACHER STIC0000001000+00002192+00000+0001T   00002192+0000001354          1400 IY8130               2AZ
208285002208285002-000684     208285006001023693778K/TOOL TURNER H/HOUSE  0000001000+00002192+00000+0001T   00002192+0000001354          1400 IY8300               2AZ
208285003208285002-000800     208285006001023770660PEELER MTL/PL WHITE    0000001000+00001139+00000+0001T   00001139+0000001354          1400 IY8300               2AZ
208285004208285007-000166     208285006009685857316SPIRAL NOTES A6 100PG  0000001000+00000700+00000+0001T   00000700+0000001354          1400 IY8130               2AZ
208285005208285039-000319-3   208285006003000442621B/CANDLES LRG NUMBER-3 0000001000+00000876+00000+0001T   00000876+0000001354          1400 IY8510               2AZ
208285006208285007-000167     208285006009685857347SPIRAL NOTES A7 72PG   0000003000+00000350+00000+0001T   00000350+0000001354          1400 IY8130               2AZ
208285007208285567-011348     208285009780709717607BK STICKER ANIMAL WORLD0000001000+00003507+00000+0001T   00003507+0000001354          1400 IY8757               2AZ
208285008208285112-116038     208285006003000534906TCS CARRIER BAG MIDI   0000001000+00000035+00000+0001T   00000035+0000001354          1400 IY8090               2AZ
208285009208285080-000133     208285006003000535613CARD&ENV MINI ASTD DSGN0000002000+00000437+00000+0001T   00000437+0000001354          1400 IY8112               2AZ
208286000208286               208286               170213OV     1400+00000+OV0000005262+0000005262+000000000+000000737+0000005990+0000000009+I20000000000+0000005990+Z
208286001208286071-001363     208286006003000196968HIGHLIGHTER 8PACK      0000001000+00005262+00000+0001T   00005262+0000001358          1400 IY8130               2AZ
208287000208287               208287               170213OV     1400+00000+OV0000014687+0000014687+000000000+000002060+0000016747+0000000000+I40000016747+0000000000+Z
208287001208287112-116069     208287006003000535064TCS CARRIER BAG JUMBO  0000001000+00000048+00000+0001T   00000048+0000001409          1400 2IC090               2CZ
208287002208287368-000265     208287006001023750914PLUSH BEAR 23CM ASSTD C0000001000+00006139+00000+0001T   00006139+0000001409          1400 2IC745               2CZ
208287003208287903-000095     208287006001704011495SWT SPECKLED-EGGS 100G 0000001000+00002104+00000+0001T   00002104+0000001409          1400 2IC150               2CZ
208287004208287903-000137     208287006002099004130SWEET GS JELLY BEAN 60G0000002000+00000788+00000+0001T   00000788+0000001409          1400 2IC150               2CZ
208287005208287077-000011-C   208287006001023808523TISSUE 10xSHTS RED     0000001000+00000876+00000+0001T   00000876+0000001409          1400 2IC112               2CZ
208287006208287077-000011-D   208287006001023808554TISSUE-WRAP WHITE 10PCE0000001000+00000876+00000+0001T   00000876+0000001409          1400 2IC112               2CZ
208287007208287077-000303     208287006001023593757GIFT-BAG PAPER MED     0000001000+00001578+00000+0001T   00001578+0000001409          1400 2IC112               2CZ
208287008208287077-000299     208287006003000395576G/BAG 32x25cm LRG LOVE 0000001000+00001490+00000+0001T   00001490+0000001409          1400 2IC112               2CZ
208288000208288               208288               170213OV     1400+00000+OV0000019684+0000019684+000000000+000002760+0000022440+0000000004+I20000000000+0000022440+Z
208288001208288112-116069     208288006003000535064TCS CARRIER BAG JUMBO  0000001000+00000048+00000+0001T   00000048+0000001411          1400 2IC090               2CZ
208288002208288368-000171     208288006003000233250PLUSH BEAR 14cm        0000001000+00005262+00000+0001T   00005262+0000001411          1400 2IC745               2CZ
208288003208288027-783002     208288006001023874658SCOURERS FOAM PACK OF 30000001000+00001490+00000+0001T   00001490+0000001411          1400 2IC212               2CZ
208288004208288565-000044     208288006003000128280BARREL OF SLIME 100g   0000001000+00000613+00000+0001T   00000613+0000001411          1400 2IC745               2CZ
208288005208288089-000028     208288006003000622252K/CHAIN MTL RELIGIOUS  0000001000+00001753+00000+0001T   00001753+0000001411          1400 2IC205               2CZ
208288006208288032-000340     208288006003000295883MIRROR SUCTION PL MAGN 0000001000+00003069+00000+0001T   00003069+0000001411          1400 2IC510               2CZ
208288007208288565-000044     208288006003000128280BARREL OF SLIME 100g   0000001000+00000613+00000+0001T   00000613+0000001411          1400 2IC745               2CZ
208288008208288077-000302     208288008010410010195GIFT-BAG 18X23CM E/D   0000001000+00000876+00000+0001T   00000876+0000001411          1400 2IC112               2CZ
208288009208288077-000399     208288006003000139514GIFT BAG 18X23CM E/DAY 0000002000+00001490+00000+0001T   00001490+0000001411          1400 2IC112               2CZ
208288010208288077-000322     208288006001023677532GIFT-BAG 18X23CM E/D FL0000001000+00001227+00000+0001T   00001227+0000001411          1400 2IC112               2CZ
208288011208288306-007302     208288006001023730954BACK-SCRATCH+MASSAGE-WH0000001000+00001753+00000+0001T   00001753+0000001411          1400 2IC200               2CZ
208289000208289               208289               170213OV     1400+00000+OV0000002192+0000002192+000000000+000000307+0000002490+0000000009+I20000000000+0000002490+Z
208289001208289033-005907     208289006003000433506SHOE LACES 4-PAIR SET  0000001000+00002192+00000+0001T   00002192+0000001412          1400 2IC200               2CZ
208290000208290               208290               170213OV     1400+00000+OV0000003066+0000003066+000000000+000000430+0000003490+0000000006+I20000000000+0000003490+Z
208290001208290263-000175     208290006001023787682CAR PL FRIC RACER ASSTD0000001000+00001490+00000+0001T   00001490+0000001414          1400 2IC710               2CZ
208290002208290903-000920     208290000041396002155SWT CANDY STICK/TATT   0000001000+00000700+00000+0001T   00000700+0000001414          1400 2IC150               2CZ
208290003208290077-000314     208290006003000181148GIFT-BAG 11X14CM MATT  0000001000+00000876+00000+0001T   00000876+0000001414          1400 2IC112               2CZ
208291000208291               208291               170213OV     1400+00000+OV0000002630+0000002630+000000000+000000369+0000002990+0000000009+I20000000000+0000002990+Z
208291001208291108-003023     208291006003000665471TUMBLER W/STRAW 550ml  0000001000+00002630+00000+0001T   00002630+0000001416          1400 2IC210               2CZ
208292000208292               208292               170213OV     1400+00000+OV0000011617+0000011617+000000000+000001628+0000013245+0000000000+I40000013245+0000000000+Z
208292001208292077-000315     208292006003000181186GIFT-BAG 20x28cm MATT  0000001000+00001578+00000+0001T   00001578+0000001424          1400 2IC112               2CZ
208292002208292112-116069     208292006003000535064TCS CARRIER BAG JUMBO  0000001000+00000048+00000+0001T   00000048+0000001424          1400 2IC090               2CZ
208292003208292031-000923     208292006001023669933P/FRAME BLK W/WORDS    0000001000+00003507+00000+0001T   00003507+0000001424          1400 2IC510               2CZ
208292004208292018-000127     208292006001023380289MUG OCC STRAIGHT LOVE  0000001000+00001578+00000+0001T   00001753+0006471424          1400 2IC515               2CZ
208292005208292565-001212     208292006001023658173NOVELTY MAGIC-SPRING   0000002000+00001753+00000+0001T   00001753+0000001424          1400 2IC745               2CZ
208292006208292565-000735     208292006003000615674NOVELTY PUTTY BOUNCING 0000002000+00000700+00000+0001T   00000700+0000001424          1400 2IC745               2CZ
208293000208293               208293               170213OV     1400+00000+OV0000010960+0000010960+000000000+000001535+0000012495+0000000000+I40000012495+0000000000+Z
208293001208293566-000031     208293006003000283910STICKER BK TEACHER STIC0000005000+00002192+00000+0001T   00002192+0000001425          1400 2IC130               2CZ
208294000208294               208294               170213OV     1400+00000+OV0000007016+0000007016+000000000+000000983+0000007990+0000000009+I20000000000+0000007990+Z
208294001208294079-001000     208294006003000448470CANVAS A2 WOOD MOUNTED 0000001000+00007016+00000+0001T   00007016+0000001429          1400 2IC130               2CZ
208295000208295               208295               170213OV     1400+00000+OV0000011137+0000011137+000000000+000001560+0000012697+0000000000+I40000012697+0000000000+Z
208295001208295077-000299     208295006003000395576G/BAG 32x25cm LRG LOVE 0000001000+00001490+00000+0001T   00001490+0000001431          1400 2IC112               2CZ
208295002208295368-000053     208295006003000633449PLUSH BEAR 15.5cm MUM  0000001000+00005262+00000+0001T   00005262+0000001431          1400 2IC745               2CZ
208295003208295301-086005     208295006001023856289ORN OCC MOM WDN LETTERS0000001000+00004385+00000+0001T   00004385+0000001431          1400 2IC505               2CZ
208296000208296               208296               170213OV     1400+00000+OV0000000965+0000000965+000000000+000000135+0000001100+0000000000+I20000000000+0000001100+Z
208296001208296251-000041     208296006001023515889SEAL-TAPE BUFF 48mmx50m0000001000-00001227+00000+0001T   00001227+0000001435          1400 2IC8101IC            2 Z
208296002208296140-002197     208296006009801166001VIBRANT INSECT-CHALK 2P0000001000+00002192+00000+0001T   00002192+0000001435          1400 2IC830               2CZ
208297000208297               208297               170213OV     1400+00000+OV0000009152+0000009152+000000000+000001283+0000010435+0000000000+I40000010435+0000000000+Z
208297001208297071-081104-A   208297006003000326662GLUE-STICK 8g CRD-OF-3 0000001000+00001227+00000+0001T   00001227+0000001437          1400 2IC130               2CZ
208297002208297079-013099     208297006003000081875ART+CRAFT EYES ASSTD   0000001000+00001753+00000+0001T   00001753+0000001437          1400 2IC130               2CZ
208297003208297566-000070     208297006003000283798STICKERS POP UP ASSTD  0000001000+00001753+00000+0001T   00001753+0000001437          1400 2IC130               2CZ
208297004208297566-000667     208297006003000658039STICKER FOIL EMBOSSED  0000001000+00002192+00000+0001T   00002192+0000001437          1400 2IC130               2CZ
208297005208297079-013102     208297006003000019601ART+CRAFT DIY PIPE-CLNR0000001000+00002192+00000+0001T   00002192+0000001437          1400 2IC130               2CZ
208297006208297112-116038     208297006003000534906TCS CARRIER BAG MIDI   0000001000+00000035+00000+0001T   00000035+0000001437          1400 2IC090               2CZ
208298000208298               208298               170213OV     1400+00000+OV0000000876+0000000876+000000000+000000123+0000000990+0000000009+I20000000000+0000000990+Z
208298001208298077-000314     208298006003000181148GIFT-BAG 11X14CM MATT  0000001000+00000876+00000+0001T   00000876+0000001445          1400 2IC112               2CZ
208299000208299               208299               170213OV     1400+00000+OV0000016271+0000016271+000000000+000002280+0000018551+0000000000+I40000018551+0000000000+Z
208299001208299140-001007     208299006001023617163FLY-STICK STAND 260x36 0000003000+00003069+00000+0001T   00003069+0000001452          1400 2IC830               2CZ
208299002208299065-003639     208299006001023787620GUITAR ROCKER          0000001000+00007016+00000+0001T   00007016+0000001452          1400 2IC745               2CZ
208299003208299112-116069     208299006003000535064TCS CARRIER BAG JUMBO  0000001000+00000048+00000+0001T   00000048+0000001452          1400 2IC090               2CZ
208300000208300               208300               170213OV     1400+00000+OV0000001753+0000001753+000000000+000000246+0000001990+0000000009+I20000000000+0000001990+Z
208300001208300077-000299-A   208300006003000670888GIFT-BAG PAPER JMB LOVE0000001000+00001753+00000+0001T   00001753+0000001509          1400 2IC112               2AZ
208301000208301               208301               170213OV     1400+00000+OV0000001314+0000001314+000000000+000000184+0000001498+0000000000+I40000001498+0000000000+Z
208301001208301006-000166-H   208301006003000608096BALLOONS HELIUM 6PC WHT0000001000+00001314+00000+0001T   00001314+0000001511          1400 2IC131               2AZ
208302000208302               208302               170213OV     1400+00000+OV0000007893+0000007893+000000000+000001106+0000008999+0000000000+I40000008999+0000000000+Z
208302001208302082-007583     208302006003000465842SUNGLASSES POLARIZE    0000001000+00007893+00000+0001T   00007893+0000001512          1400 2IC160               2AZ
208303000208303               208303               170213OV     1400+00000+OV0000006446+0000006446+000000000+000000904+0000007350+0000000000+I20000000000+0000007350+Z
208303001208303077-000348     208303006001023483287GIFT-BOWS 4,5cm 8PCE   0000001000+00001578+00000+0001T   00001578+0000001518          1400 2IC112               2AZ
208303002208303077-000456     208303006003000285549G/BAG METALLIC JMB EMB 0000001000+00002630+00000+0001T   00002630+0000001518          1400 2IC112               2AZ
208303003208303077-000011-D   208303006001023808554TISSUE-WRAP WHITE 10PCE0000001000+00000876+00000+0001T   00000876+0000001518          1400 2IC112               2AZ
208303004208303006-000166-H   208303006003000608096BALLOONS HELIUM 6PC WHT0000001000+00001314+00000+0001T   00001314+0000001518          1400 2IC131               2AZ
208303005208303112-116069     208303006003000535064TCS CARRIER BAG JUMBO  0000001000+00000048+00000+0001T   00000048+0000001518          1400 2IC090               2AZ
208304000208304               208304               170213OV     1400+00000+OV0000006082+0000006082+000000000+000000853+0000006930+0000000005+I20000000000+0000006930+Z
208304001208304903-000518     208304006001704012782SWT STRAWS S/BERRY 100g0000001000+00001227+00000+0001T   00001227+0000001526          1400 2IC150               2CZ
208304002208304566-000065     208304006003000217915STICKERS GLITTER ASSTD 0000001000+00001753+00000+0001T   00001753+0000001526          1400 2IC130               2CZ
208304003208304566-002004     208304006001023672421STICKERS CRYSTAL SHAPES0000001000+00001753+00000+0001T   00001753+0000001526          1400 2IC130               2CZ
208304004208304566-000460     208304000721129024011STICKERS RUB-ON TRANSFR0000001000+00001314+00000+0001T   00001753+0008151526          1400 2IC130               2CZ
208304005208304112-116038     208304006003000534906TCS CARRIER BAG MIDI   0000001000+00000035+00000+0001T   00000035+0000001526          1400 2IC090               2CZ
208305000208305               208305               170213OV     1400+00000+OV0000037650+0000037650+000000000+000005279+0000042929+0000000000+I40000042929+0000000000+Z
208305001208305112-116069     208305006003000535064TCS CARRIER BAG JUMBO  0000001000+00000048+00000+0001T   00000048+0000001530          1400 2IC090               2CZ
208305002208305566-000006     208305006001023671189STICKER-BOOK DRESS-UP  0000001000+00002630+00000+0001T   00002630+0000001530          1400 2IC130               2CZ
208305003208305566-000028     208305006003000265541STICKER BK ASSTD 250PCE0000001000+00001753+00000+0001T   00001753+0000001530          1400 2IC130               2CZ
208305004208305007-000537     208305000651728791017NOTE-PAD RND SMILE-FACE0000001000+00000700+00000+0001T   00000700+0000001530          1400 2IC130               2CZ
208305005208305071-003850     208305006001023893253PENCIL 5PCE RAINBOW WDN0000001000+00002630+00000+0001T   00002630+0000001530          1400 2IC130               2CZ
208305006208305266-001499     208305006001023624925TOP & STRING 2 PACK    0000001000+00000700+00000+0001T   00000700+0000001530          1400 2IC710               2CZ
208305007208305466-064838     208305006001023835031BALLS MASSAGE 8cm SET-30000001000+00001753+00000+0001T   00001753+0000001530          1400 2IC785               2CZ
208305008208305362-003004     208305006003000294961HAIR CLIPS             0000001000+00001753+00000+0001T   00001753+0000001530          1400 2IC160               2CZ
208305009208305071-000305     208305006001023715340RULER/STENCILS         0000001000+00001753+00000+0001T   00001753+0000001530          1400 2IC130               2CZ
208305010208305079-000344     208305006001023904010FELT-TIP PENS 12PCE    0000001000+00002630+00000+0001T   00002630+0000001530          1400 2IC130               2CZ
208305011208305162-097721     208305006001492977218#TAG PASTEL WRISTWEAR  0000001000+00004385+00000+0001T   00004385+0000001530          1400 2IC160               2CZ
208305012208305007-000537     208305000651728791017NOTE-PAD RND SMILE-FACE0000001000+00000700+00000+0001T   00000700+0000001530          1400 2IC130               2CZ
208305013208305007-000555     208305006001023848239MEMO-PAD MINI LOVE     0000001000+00000613+00000+0001T   00000613+0000001530          1400 2IC130               2CZ
208305014208305565-000045     208305006003000295890NOVELTY HEADS 8PCE     0000001000+00002630+00000+0001T   00002630+0000001530          1400 2IC745               2CZ
208305015208305466-000620     208305006003000537617BALL SPORT SET 5.5CM   0000001000+00003946+00000+0001T   00003946+0000001530          1400 2IC785               2CZ
208305016208305079-006496     208305006003000160105GLITTER SHAKERS        0000001000+00001753+00000+0001T   00001753+0000001530          1400 2IC130               2CZ
208305017208305466-000051     208305006001023800510WATER BOMB 4,5cm SET 6 0000001000+00003507+00000+0001T   00003507+0000001530          1400 2IC785               2CZ
208305018208305079-006496     208305006003000160105GLITTER SHAKERS        0000001000+00001753+00000+0001T   00001753+0000001530          1400 2IC130               2CZ
208305019208305007-000537     208305000651728791017NOTE-PAD RND SMILE-FACE0000002000+00000700+00000+0001T   00000700+0000001530          1400 2IC130               2CZ
208305020208305007-000555     208305006001023848239MEMO-PAD MINI LOVE     0000001000+00000613+00000+0001T   00000613+0000001530          1400 2IC130               2CZ
208306000208306               208306               170213OV     1400+00000+OV0000011132+0000011132+000000000+000001561+0000012690+0000000003+I20000000000+0000012690+Z
208306001208306103-000474     208306006003000630363BAMBOO FLOWER BASKET   0000001000+00005262+00000+0001T   00005262+0000001531          1400 2IC300               2CZ
208306002208306903-005002     208306006002580020021SWT MALLOW SNAKE 120g  0000001000+00001314+00000+0001T   00001314+0000001531          1400 2IC150               2CZ
208306003208306903-000849     208306008692806080083SWT SNACK BISCUIT 70g  0000001000+00000613+00000+0001T   00000613+0000001531          1400 2IC150               2CZ
208306004208306077-000011-C   208306006001023808523TISSUE 10xSHTS RED     0000001000+00000876+00000+0001T   00000876+0000001531          1400 2IC112               2CZ
208306005208306903-000094     208306006923431501622SWT GS CANDY NECKLACE  0000001000+00000437+00000+0001T   00000437+0000001531          1400 2IC150               2CZ
208306006208306077-000349-B   208306006001023908315G/RIBBON 3ROLLS 12BOWS 0000001000+00002630+00000+0001T   00002630+0000001531          1400 2IC112               2CZ
208307000208307               208307               170213OV     1400+00000+OV0000001401+0000001401+000000000+000000197+0000001590+0000000008+I20000000000+0000001590+Z
208307001208307002-021040     208307006001023812216PARTY-PICKS 100PCE     0000001000+00000525+00000+0001T   00000525+0000001532          1400 2IC300               2CZ
208307002208307078-000025     208307008887013700064SUPERGLUE 3g 1PCE CARD 0000001000+00000876+00000+0001T   00000876+0000001532          1400 2IC810               2CZ
208308000208308               208308               170213OV     1400+00000+OV0000008768+0000008768+000000000+000001229+0000009997+0000000000+I40000009997+0000000000+Z
208308001208308306-000021-A   208308006001023891358EARBUDS COTTON 100PCE  0000001000+00000876+00000+0001T   00000876+0000001536          1400 2IC200               2CZ
208308002208308004-078991     208308006001023996855EARPHONES+EAR-CLIP 1.0m0000001000+00002630+00000+0001T   00002630+0000001536          1400 2IC310               2CZ
208308003208308266-001025     208308006003000108756BOYS TOYS SWORD 75cm   0000001000+00005262+00000+0001T   00005262+0000001536          1400 2IC710               2CZ
208309000208309               208309               170213OV     1400+00000+OV0000011785+0000011785+000000000+000001651+0000013436+0000000000+I40000013436+0000000000+Z
208309001208309077-000322     208309006001023677532GIFT-BAG 18X23CM E/D FL0000001000+00001227+00000+0001T   00001227+0000001620          1400 2IC112               2CZ
208309002208309077-000302     208309008010410010195GIFT-BAG 18X23CM E/D   0000001000+00000876+00000+0001T   00000876+0000001620          1400 2IC112               2CZ
208309003208309050-000887-Z   208309006001023821966PADLOCK COMB 10-DIGIT  0000001000+00004385+00000+0001T   00004385+0000001620          1400 2IC855               2CZ
208309004208309304-001116     208309006003000426164F/BUNCH ROSES 12-HEAD  0000001000+00005262+00000+0001T   00005262+0000001620          1400 2IC510               2CZ
208309005208309112-116038     208309006003000534906TCS CARRIER BAG MIDI   0000001000+00000035+00000+0001T   00000035+0000001620          1400 2IC090               2CZ
208310000208310               208310               170213OV     1400+00000+OV0000000876+0000000876+000000000+000000123+0000000990+0000000009+I20000000000+0000000990+Z
208310001208310071-003004     208310006003000662821PEN BALL POINT 3PC BLUE0000001000+00000876+00000+0001T   00000876+0000001620          1400 2IC130               2CZ
208311000208311               208311               170213OV     1400+00000+OV0000008727+0000008727+000000000+000001223+0000009950+0000000000+I40000009950+0000000000+Z
208311001208311077-000327     208311006001023677686GIFT-BAG 25X32CM E/D BA0000002000+00001490+00000+0001T   00001490+0000001629          1400 2IC112               2CZ
208311002208311567-011448     208311009781847506863BK STICKER ANIMALS     0000001000+00003507+00000+0001T   00003507+0000001629          1400 2IC757               2CZ
208311003208311361-009103     208311006001023706607DOLL BOTTLES 10cm 2PCE 0000001000+00002192+00000+0001T   00002192+0000001629          1400 2IC725               2CZ
208311004208311112-116069     208311006003000535064TCS CARRIER BAG JUMBO  0000001000+00000048+00000+0001T   00000048+0000001629          1400 2IC090               2CZ
208312000208312               208312               170213OV     1400+00000+OV0000002192+0000002192+000000000+000000307+0000002490+0000000009+I20000000000+0000002490+Z
208312001208312565-004010     208312006003000597246JUMPING-BEANS 5PCE     0000001000+00002192+00000+0001T   00002192+0000001652          1400 2IC745               2CZ
208313000208313               208313               170213OV     1400+00000+OV0000016527+0000016527+000000000+000002319+0000018846+0000000000+I40000018846+0000000000+Z
208313001208313466-000612     208313006003000296712BALL-PUMP PL W/VALVE   0000001000+00002630+00000+0001T   00002630+0000001709          1400 2IC785               2CZ
208313002208313565-004010     208313006003000597246JUMPING-BEANS 5PCE     0000001000+00002192+00000+0001T   00002192+0000001709          1400 2IC745               2CZ
208313003208313466-000584     208313006001023628787SKIPPING-ROPE          0000002000+00002630+00000+0001T   00002630+0000001709          1400 2IC785               2CZ
208313004208313560-000201     208313006001023400147RUBBER SNAKE 86cm      0000001000+00002630+00000+0001T   00002630+0000001709          1400 2IC745               2CZ
208313005208313903-000077     208313006939873501687SWT GS MAGIC ROCK FRUIT0000003000+00000525+00000+0001T   00000525+0000001709          1400 2IC150               2CZ
208313006208313112-116069     208313006003000535064TCS CARRIER BAG JUMBO  0000001000+00000048+00000+0001T   00000048+0000001709          1400 2IC090               2CZ
208313007208313080-000127     208313006003000424351VALENTINES DAY 36x24CM 0000001000+00002192+00000+0001T   00002192+0000001709          1400 2IC112               2CZ
208314000208314               208314               170213OV     1400+00000+OV0000003506+0000003506+000000000+000000492+0000003990+0000000008+I20000000000+0000003990+Z
208314001208314362-002464     208314006003000167388HAIR EXT 30cm 6PCS COL 0000002000+00001753+00000+0001T   00001753+0000001710          1400 2IC160               2CZ
208315000208315               208315               170213OV     1400+00000+OV0000008681+0000008681+000000000+000001217+0000009890+0000000008+I20000000000+0000009890+Z
208315001208315304-001114     208315006001023738219FLWR BUNCH ROSES/LILY  0000001000+00007893+00000+0001T   00007893+0000001710          1400 2IC510               2CZ
208315002208315077-000010-D   208315006001023123886CREPE-PAPER WHITE      0000001000+00000788+00000+0001T   00000788+0000001710          1400 2IC112               2CZ
208316000208316               208316               170213OV     1400+00000+OV0000001314+0000001314+000000000+000000184+0000001490+0000000008+I20000000000+0000001490+Z
208316001208316077-000310     208316006001023608635GIFT-BAG 18X23CM GLOSS 0000001000+00001314+00000+0001T   00001314+0000001711          1400 2IC112               2CZ
208317000208317               208317               170213OV     1400+00000+OV0000022321+0000022321+000000000+000003128+0000025449+0000000000+I40000025449+0000000000+Z
208317001208317112-116069     208317006003000535064TCS CARRIER BAG JUMBO  0000001000+00000048+00000+0001T   00000048+0000001721          1400 2IC090               2CZ
208317002208317018-000127     208317006001023380289MUG OCC STRAIGHT LOVE  0000001000+00001578+00000+0001T   00001753+0006471721          1400 2IC515               2CZ
208317003208317301-085001     208317006003000297610ORN WATERBALL LOVE ASST0000001000+00004823+00000+0001T   00004823+0000001721          1400 2IC505               2CZ
208317004208317018-000127     208317006001023380289MUG OCC STRAIGHT LOVE  0000002000+00001578+00000+0001T   00001753+0006471721          1400 2IC515               2CZ
208317005208317301-085007     208317006003000673698ORN OCC. LOVE S/PLAQUE 0000001000+00007893+00000+0001T   00007893+0000001721          1400 2IC505               2CZ
208317006208317301-085001     208317006003000297610ORN WATERBALL LOVE ASST0000001000+00004823+00000+0001T   00004823+0000001721          1400 2IC505               2CZ
208318000208318               208318               170213OV     1400+00000+OV0000007892+0000007892+000000000+000001106+0000008998+0000000000+I40000008998+0000000000+Z
208318001208318106-001105     208318006001023711564WATER-BOTTLE 500ml     0000001000+00001753+00000+0001T   00001753+0000001724          1400 2IC210               2CZ
208318002208318019-000051     208318006003000457304VASE GLS ASSORTED      0000001000+00006139+00000+0001T   00006139+0000001724          1400 2IC510               2CZ
208319000208319               208319               170213OV     1400+00000+OV0000000048+0000000048+000000000+000000007+0000000050+0000000005+I20000000000+0000000050+Z
208319001208319112-116069     208319006003000535064TCS CARRIER BAG JUMBO  0000001000+00000048+00000+0001T   00000048+0000001808          1400 2IC090               2CZ
A17021300                                          09350766OVSLAVE 2                       2IC1IC
A17021301                                          17154169OVSLAVE 2                       2IC1IC
C20828300                                          170213OV077-000115     13484136SLAVE 2     IY83IC0000000000+0000000000+0010000001000+
C20831100                                          170213OV046-000012     16281427SLAVE 2     2IC3IC0000000000+0000000000+0010000001000+
M17021391                              CASH        OVSLAVE 2                       Z-REPORT No.   601TOTAL (Sales - Refunds)           6270.84       CASH TO BE BANKED                 1754.50       DEBIT CARDS                          0.00       CREDIT CARDS                      4516.34       Z-READING                         6270.84       AIRTIME DEBIT CARD SALES             0.00       AIRTIME CARD SALES                   0.00       OVERS/UNDERS                         0.00       AIRTIME CASH SALES                   0.00       GIFT CARDS                           0.00       GIFT CARD CASH SALES                 0.00       T O T A L  CASH PAYOUTS              0.00                                                                                                                                                                                                                                                                                                                                                      Z
M17021392                              CASH        OVABSENT                                                                                                                                                                                          ANNUAL LEAVE                                                                                                                                                                                    DAY OFF                                                                                                                                                                                         COMMENTS                                                                                                                                                                                                                                                                                                                                                                                       Z
Y17021300                                          OV00000000551399+000058
ZOV17021320163 SLAVE 2      SALES DATA                     NEXT INVOICE NO.  208320 0601
X OV Slave 2 First invoice 208262 170213 Last invoice 208319 170213 Next invoice 208320 Total number of records 000000280 clbackup completed 20:16:17
