105109000105109               105109               170213OX     1400+00000+OX0000007892+0000007892+000000000+000001106+0000008998+0000000000+I40000008998+0000000000+Z
105109001105109366-000900     105109006003000006960DRESS UP WINGS BUG     0000001000+00006139+00000+0001T   00006139+0000000952          1400 WS1131               1AZ
105109002105109200-003024     105109006001023657299REFUSE BAGS 20PCE BLACK0000001000+00001753+00000+0001T   00001753+0000000952          1400 WS1214               1AZ
105110000105110               105110               170213OX     1400+00000+OX0000011046+0000011046+000000000+000001547+0000012590+0000000003+I20000000000+0000012590+Z
105110001105110077-000011-D   105110006001023808554TISSUE-WRAP WHITE 10PCE0000001000+00000876+00000+0001T   00000876+0000000954          1400 WS1112               1AZ
105110002105110077-000303     105110006001023593757GIFT-BAG PAPER MED     0000002000+00001578+00000+0001T   00001578+0000000954          1400 WS1112               1AZ
105110003105110018-000136     105110006001023659026MUG OCC LOVE W/PLUSH   0000002000+00003507+00000+0001T   00003507+0000000954          1400 WS1515               1AZ
105111000105111               105111               170213OX     1400+00000+OX0000003507+0000003507+000000000+000000491+0000003998+0000000000+I40000003998+0000000000+Z
105111001105111082-012779     105111006001492127798SUNGLASS KIDS WAYFARER 0000001000+00003507+00000+0001T   00003507+0000000955          1400 WS1160               1AZ
105112000105112               105112               170213OX     1400+00000+OX0000002100+0000002100+000000000+000000294+0000002390+0000000004+I20000000000+0000002390+Z
105112001105112033-010721     105112006001023678669SAFETY-PINS 20PCE ASSTD0000003000+00000700+00000+0001T   00000700+0000000957          1400 WS1200               1AZ
105113000105113               105113               170213OX     1400+00000+OX0000002192+0000002192+000000000+000000307+0000002499+0000000000+I40000002499+0000000000+Z
105113001105113566-000950     105113006003000216048STICKERS 3 STYLES 100PC0000001000+00002192+00000+0001T   00002192+0000001015          1400 WS1130               1AZ
105114000105114               105114               170213OX     1400+00000+OX0000010383+0000010383+000000000+000001454+0000011837+0000000000+I40000011837+0000000000+Z
105114001105114089-000017     105114006003000331147KEYCHAIN MOM POLY BOX  0000001000+00004385+00000+0001T   00004385+0000001017          1400 WS1205               1AZ
105114002105114030-000031-A   105114006003000457588PLAQUE W/WORDS ASSTD   0000001000+00004385+00000+0001T   00004823+0006471017          1400 WS1505               1AZ
105114003105114080-000124     105114006003000297733CARD & ENV VALENTINES  0000001000+00001578+00000+0001T   00001578+0000001017          1400 WS1112               1AZ
105114004105114112-116038     105114006009681820246TCS CARRIER BAG MIDI   0000001000+00000035+00000+0001T   00000035+0000001017          1400 WS1090               1AZ
105115000105115               105115               170213OX     1400+00000+OX0000003506+0000003506+000000000+000000491+0000003990+0000000007+I20000000000+0000003990+Z
105115001105115566-000451     105115006001023788443STICKERS GLITTER ASSTD 0000001000+00001314+00000+0001T   00001753+0008151050          1400 WS1130               1AZ
105115002105115566-000068     105115006003000418046POP UP LOVE 2 ASSTD    0000001000+00002192+00000+0001T   00002192+0000001050          1400 WS1130               1AZ
105116000105116               105116               170213OX     1400+00000+OX0000010559+0000010559+000000000+000001479+0000012030+0000000008+I20000000000+0000012030+Z
105116001105116046-002032-PK2 105116004897006175063BATTERIES CR-2032  2PCE0000001000+00001753+00000+0001T   00001753+0000001102          1400 WS1312               1AZ
105116002105116002-250010     105116006001023621931KITCHEN-SCALE 2kg      0000001000+00008771+00000+0001T   00008771+0000001102          1400 WS1300               1AZ
105116003105116112-116038     105116006009681820246TCS CARRIER BAG MIDI   0000001000+00000035+00000+0001T   00000035+0000001102          1400 WS1090               1AZ
105117000105117               105117               170213OX     1400+00000+OX0000004335+0000004335+000000000+000000610+0000004940+0000000005+I20000000000+0000004940+Z
105117001105117077-000303     105117006001023593757GIFT-BAG PAPER MED     0000001000+00001578+00000+0001T   00001578+0000001107          1400 WS1112               1AZ
105117002105117903-000183     105117006003000451043SWT LB HEART LOLLY     0000001000+00000393+00000+0001T   00000393+0000001107          1400 WS1150               1AZ
105117003105117018-000127     105117006001023380289MUG OCC STRAIGHT LOVE  0000001000+00001578+00000+0001T   00001753+0006471107          1400 WS1515               1AZ
105117004105117903-000183     105117006003000451043SWT LB HEART LOLLY     0000002000+00000393+00000+0001T   00000393+0000001107          1400 WS1150               1AZ
105118000105118               105118               170213OX     1400+00000+OX0000000035+0000000035+000000000+000000005+0000000040+0000000000+I20000000000+0000000040+Z
105118001105118112-116038     105118006009681820246TCS CARRIER BAG MIDI   0000001000+00000035+00000+0001T   00000035+0000001108          1400 WS1090               1AZ
105119000105119               105119               170213OX     1400+00000+OX0000010433+0000010433+000000000+000001462+0000011895+0000000000+I40000011895+0000000000+Z
105119001105119105-001066     105119006003000630912CONTAINER CLIP LOCK    0000002000+00001490+00000+0001T   00001490+0000001117          1400 WS1210               1AZ
105119002105119105-001027     105119006003000364916LUNCH BOX W/CLIPS 2-DIV0000002000+00002192+00000+0001T   00002192+0000001117          1400 WS1210               1AZ
105119003105119106-005120     105119006001023897336ICE-LOLLY-MAKER 6PCE   0000001000+00003069+00000+0001T   00003069+0000001117          1400 WS1210               1AZ
105120000105120               105120               170213OX     1400+00000+OX0000007014+0000007014+000000000+000000982+0000007990+0000000006+I20000000000+0000007990+Z
105120001105120565-001965     105120006003000028207NOVELTY BINOCULARS PL  0000001000+00003507+00000+0001T   00003507+0000001224          1400 WS1745               1AZ
105120002105120261-003961     105120006003000550371GUN HAND COMBAT        0000001000+00003507+00000+0001T   00003507+0000001224          1400 WS1710               1AZ
105121000105121               105121               170213OX     1400+00000+OX0000001753+0000001753+000000000+000000246+0000001990+0000000009+I20000000000+0000001990+Z
105121001105121565-000055     105121006003000028252NOVELTY B/O FINGR-BEAMS0000001000+00001753+00000+0001T   00001753+0000001234          1400 WS1745               1AZ
105122000105122               105122               170213OX     1400+00000+OX0000004822+0000004822+000000000+000000676+0000005490+0000000008+I20000000000+0000005490+Z
105122001105122105-001020     105122006001023898159LUNCH BOX 13.5x6.5cm   0000001000+00002192+00000+0001T   00002192+0000001239          1400 WS1210               1AZ
105122002105122162-094832     105122006001492948324#TAG KIDS WRISTWEAR    0000001000+00002630+00000+0001T   00002630+0000001239          1400 WS1160               1AZ
105123000105123               105123               170213OX     1400+00000+OX0000006138+0000006138+000000000+000000860+0000006998+0000000000+I40000006998+0000000000+Z
105123001105123903-000520     105123006001704009898SWT GUMMY MINI SOUR 60g0000001000+00000876+00000+0001T   00000876+0000001240          1400 WS1150               1AZ
105123002105123018-019000     105123006003000557288MUG OCC. LOVE JUMBO    0000001000+00005262+00000+0001T   00005262+0000001240          1400 WS1515               1AZ
105124000105124               105124               170213OX     1400+00000+OX0000008714+0000008714+000000000+000001222+0000009930+0000000006+I20000000000+0000009930+Z
105124001105124084-009410     105124006001023477651SCISSORS 21cm PL-HANDLE0000001000+00002630+00000+0001T   00002630+0000001241          1400 WS1200               1AZ
105124002105124039-000108     105124006001023524034TEA-LITE CANDLES 8PCE  0000001000+00001490+00000+0001T   00001490+0000001241          1400 WS1510               1AZ
105124003105124019-071605     105124006003000675418PEBBLES R/STONES 500G  0000001000+00001490+00000+0001T   00001490+0000001241          1400 WS1510               1AZ
105124004105124040-000051     105124006001023799494C/HOLDER GLASS LANTERN 0000001000+00003069+00000+0001T   00003069+0000001241          1400 WS1510               1AZ
105124005105124112-116038     105124006009681820246TCS CARRIER BAG MIDI   0000001000+00000035+00000+0001T   00000035+0000001241          1400 WS1090               1AZ
105125000105125               105125               170213OX     1400+00000+OX0000006625+0000006625+000000000+000000928+0000007553+0000000000+I40000007553+0000000000+Z
105125001105125080-000127     105125006003000424351VALENTINES DAY 36x24CM 0000001000+00002192+00000+0001T   00002192+0000001243          1400 WS1112               1AZ
105125002105125368-000001     105125006003000097982Plush Bear 25cm        0000001000+00004385+00000+0001T   00004385+0000001243          1400 WS1745               1AZ
105125003105125112-116069     105125006009681820277TCS CARRIER BAG JUMBO  0000001000+00000048+00000+0001T   00000048+0000001243          1400 WS1090               1AZ
105126000105126               105126               170213OX     1400+00000+OX0000002804+0000002804+000000000+000000394+0000003190+0000000008+I20000000000+0000003190+Z
105126001105126304-001204     105126006001023737984FLOWER OCC. TEDDY/ROSES0000002000+00001402+00000+0001T   00001490+0006471244          1400 WS1510               1AZ
105127000105127               105127               170213OX     1400+00000+OX0000015345+0000015345+000000000+000002150+0000017490+0000000005+I20000000000+0000017490+Z
105127001105127566-000359     105127006003000582709STICKER BOOK LOVE SPARK0000001000+00002192+00000+0001T   00002192+0000001245          1400 WS1130               1AZ
105127002105127301-085001     105127006003000297610ORN WATERBALL LOVE ASST0000002000+00004823+00000+0001T   00004823+0000001245          1400 WS1505               1AZ
105127003105127301-085004     105127006003000420469ORN LOVE PLAQUE 21X10CM0000001000+00003507+00000+0001T   00003946+0006471245          1400 WS1505               1AZ
105128000105128               105128               170213OX     1400+00000+OX0000001227+0000001227+000000000+000000172+0000001390+0000000009+I20000000000+0000001390+Z
105128001105128251-000040     105128006001023515865SEALTAPE CLEAR 48mmx50m0000001000+00001227+00000+0001T   00001227+0000001247          1400 WS1810               1AZ
105129000105129               105129               170213OX     1400+00000+OX0000003417+0000003417+000000000+000000480+0000003890+0000000007+I20000000000+0000003890+Z
105129001105129903-000709     105129006002099007070SWT QUENCHERS FRUIT    0000002000+00001139+00000+0001T   00001139+0000001248          1400 WS1150               1AZ
105129002105129903-000710     105129006002099007056SWT REFRESHERS MINT    0000001000+00001139+00000+0001T   00001139+0000001248          1400 WS1150               1AZ
105130000105130               105130               170213OX     1400+00000+OX0000004383+0000004383+000000000+000000615+0000004990+0000000008+I20000000000+0000004990+Z
105130001105130077-000270     105130006003000395453GIFT-BAG PPR JMB 33X45 0000001000+00002630+00000+0001T   00002630+0000001250          1400 WS1112               1AZ
105130002105130077-000299-A   105130006003000670888GIFT-BAG PAPER JMB LOVE0000001000+00001753+00000+0001T   00001753+0000001250          1400 WS1112               1AZ
105131000105131               105131               170213OX     1400+00000+OX0000002630+0000002630+000000000+000000369+0000002990+0000000009+I20000000000+0000002990+Z
105131001105131361-000296     105131006001023750402DOLL 27cm GLITZY/ANGEL 0000001000+00002630+00000+0001T   00002630+0000001250          1400 WS1725               1AZ
105132000105132               105132               170213OX     1400+00000+OX0000009673+0000009673+000000000+000001359+0000011030+0000000002+I20000000000+0000011030+Z
105132001105132562-000010     105132006001023762528KID'S PLAY DOUGH       0000001000+00002630+00000+0001T   00002630+0000001253          1400 WS1755               1AZ
105132002105132150-001234-1   105132005019190010015PLATE-HANGER P/C SIZE-10000001000+00001314+00000+0001T   00001314+0000001253          1400 WS1810               1AZ
105132003105132150-001234-2   105132005019190010022PLATE-HANGER P/C SIZE-20000001000+00001490+00000+0001T   00001490+0000001253          1400 WS1810               1AZ
105132004105132903-000014     105132000070970459931SWT MIKE N IKE ORIG 23G0000004000+00001051+00000+0001T   00001051+0000001253          1400 WS1150               1AZ
105132005105132112-116038     105132006009681820246TCS CARRIER BAG MIDI   0000001000+00000035+00000+0001T   00000035+0000001253          1400 WS1090               1AZ
105133000105133               105133               170213OX     1400+00000+OX0000004821+0000004821+000000000+000000675+0000005490+0000000006+I20000000000+0000005490+Z
105133001105133018-000136     105133006001023659026MUG OCC LOVE W/PLUSH   0000001000+00003507+00000+0001T   00003507+0000001300          1400 WS1515               1AZ
105133002105133077-000310     105133006001023608635GIFT-BAG 18X23CM GLOSS 0000001000+00001314+00000+0001T   00001314+0000001300          1400 WS1112               1AZ
105134000105134               105134               170213OX     1400+00000+OX0000004822+0000004822+000000000+000000676+0000005490+0000000008+I20000000000+0000005490+Z
105134001105134566-000308     105134006003000522521STICKER TAPE 3PCS      0000001000+00002630+00000+0001T   00002630+0000001301          1400 WS1130               1AZ
105134002105134566-000991     105134000721129013121STICKERS GLOW-IN-DARK  0000001000+00002192+00000+0001T   00002192+0000001301          1400 WS1130               1AZ
105135000105135               105135               170213OX     1400+00000+OX0000002629+0000002629+000000000+000000369+0000002990+0000000008+I20000000000+0000002990+Z
105135001105135077-000011-D   105135006001023808554TISSUE-WRAP WHITE 10PCE0000001000+00000876+00000+0001T   00000876+0000001305          1400 WS1112               1AZ
105135002105135077-000324     105135006001023677594GIFT-BAG 33X45CM E/D FL0000001000+00001753+00000+0001T   00001753+0000001305          1400 WS1112               1AZ
105136000105136               105136               170213OX     1400+00000+OX0000001753+0000001753+000000000+000000246+0000001990+0000000009+I20000000000+0000001990+Z
105136001105136251-000071     105136006003000451890PROTECTION-PADS BLK ADH0000001000+00001753+00000+0001T   00001753+0000001312          1400 WS1810               1AZ
105137000105137               105137               170213OX     1400+00000+OX0000000613+0000000613+000000000+000000086+0000000690+0000000009+I20000000000+0000000690+Z
105137001105137150-004030-H   105137006001023435798BATH-PLUG RUBBER WHITE 0000001000+00000613+00000+0001T   00000613+0000001315          1400 WS1810               1AZ
105138000105138               105138               170213OX     1400+00000+OX0000003067+0000003067+000000000+000000430+0000003490+0000000007+I20000000000+0000003490+Z
105138001105138077-000310     105138006001023608635GIFT-BAG 18X23CM GLOSS 0000001000+00001314+00000+0001T   00001314+0000001318          1400 WS1112               1AZ
105138002105138077-000373     105138006003000395217G/BAG MED 18X23CM DESGN0000001000+00001753+00000+0001T   00001753+0000001318          1400 WS1112               1AZ
105139000105139               105139               170213OX     1400+00000+OX0000011975+0000011975+000000000+000001677+0000013652+0000000000+I40000013652+0000000000+Z
105139001105139077-000303     105139006001023593757GIFT-BAG PAPER MED     0000001000+00001578+00000+0001T   00001578+0000001319          1400 WS1112               1AZ
105139002105139001-091415     105139006003000329113W/GLS OCC. LOVE 2PC 2800000001000+00008771+00000+0001T   00009648+0006471319          1400 WS1515               1AZ
105139003105139112-116069     105139006009681820277TCS CARRIER BAG JUMBO  0000001000+00000048+00000+0001T   00000048+0000001319          1400 WS1090               1AZ
105139004105139080-000124     105139006003000297733CARD & ENV VALENTINES  0000001000+00001578+00000+0001T   00001578+0000001319          1400 WS1112               1AZ
105140000105140               105140               170213OX     1400+00000+OX0000001753+0000001753+000000000+000000246+0000001990+0000000009+I20000000000+0000001990+Z
105140001105140078-000026     105140006936198407090SUPERGLUE 3,0g GEL     0000001000+00001753+00000+0001T   00001753+0000001320          1400 WS1810               1AZ
105141000105141               105141               170213OX     1400+00000+OX0000007927+0000007927+000000000+000001110+0000009037+0000000000+I40000009037+0000000000+Z
105141001105141031-000025     105141006003000427185P/FRAME PL MOMMY       0000001000+00003507+00000+0001T   00003507+0000001324          1400 WS1510               1AZ
105141002105141031-000001-A   105141006003000246908P/FRAME GLS LOVE 9X13cm0000001000+00004385+00000+0001T   00004385+0000001324          1400 WS1510               1AZ
105141003105141112-116038     105141006009681820246TCS CARRIER BAG MIDI   0000001000+00000035+00000+0001T   00000035+0000001324          1400 WS1090               1AZ
105142000105142               105142               170213OX     1400+00000+OX0000002630+0000002630+000000000+000000369+0000002990+0000000009+I20000000000+0000002990+Z
105142001105142206-000620     105142006003000631797BACK SCRATCHER EXTEND  0000001000+00002630+00000+0001T   00002630+0000001326          1400 WS1321               1AZ
105143000105143               105143               170213OX     1400+00000+OX0000001490+0000001490+000000000+000000209+0000001699+0000000000+I40000001699+0000000000+Z
105143001105143464-000106     105143006001023171153PLAYING-CARDS (SINGLE) 0000001000+00001490+00000+0001T   00001490+0000001327          1400 WS1785               1AZ
105144000105144               105144               170213OX     1400+00000+OX0000024161+0000024161+000000000+000003385+0000027540+0000000006+I20000000000+0000027540+Z
105144001105144079-003001     105144006003000448951A/TUBE 75ML BLACK      0000001000+00001753+00000+0001T   00001753+0000001338          1400 AT1130               1AZ
105144002105144174-000307     105144006003000639533TRAVEL TAG NAME/LUGGAGE0000001000+00002192+00000+0001T   00002192+0000001338          1400 AT1205               1AZ
105144003105144078-000025     105144008887013700064SUPERGLUE 3g 1PCE CARD 0000001000+00000876+00000+0001T   00000876+0000001338          1400 AT1810               1AZ
105144004105144087-002000     105144006001023592620HAIR TRIMMER SET 4pc   0000001000+00003507+00000+0001T   00003507+0000001338          1400 AT1200               1AZ
105144005105144030-000031-A   105144006003000457588PLAQUE W/WORDS ASSTD   0000001000+00004385+00000+0001T   00004823+0006471338          1400 AT1505               1AZ
105144006105144079-000273     105144006003000160327PAINT BRUSHES THICK    0000001000+00002630+00000+0001T   00002630+0000001338          1400 AT1130               1AZ
105144007105144031-005840     105144006001023481412P/FRAME-CLIP 30X40CM   0000001000+00004385+00000+0001T   00004385+0000001338          1400 AT1510               1AZ
105144008105144112-116069     105144006009681820277TCS CARRIER BAG JUMBO  0000001000+00000048+00000+0001T   00000048+0000001338          1400 AT1090               1AZ
105144009105144466-000072     105144006003000668922BALL FOOTBALL PVC 22cm 0000001000+00004385+00000+0001T   00004385+0000001338          1400 AT1785               1AZ
105145000105145               105145               170213OX     1400+00000+OX0000000876+0000000876+000000000+000000123+0000000990+0000000009+I20000000000+0000000990+Z
105145001105145077-000151     105145006008766114676GIFT-WRAP C/PHANE ASSTD0000001000+00000876+00000+0001T   00000876+0000001339          1400 AT1112               1AZ
105146000105146               105146               170213OX     1400+00000+OX0000003156+0000003156+000000000+000000442+0000003598+0000000000+I40000003598+0000000000+Z
105146001105146077-000303     105146006001023593757GIFT-BAG PAPER MED     0000002000+00001578+00000+0001T   00001578+0000001340          1400 AT1112               1AZ
105147000105147               105147               170213OX     1400+00000+OX0000014469+0000014469+000000000+000002027+0000016496+0000000000+I40000016496+0000000000+Z
105147001105147464-000114     105147006003000027057DICE 16MM CARD-OF-6    0000001000+00001753+00000+0001T   00001753+0000001345          1400 AT1785               1AZ
105147002105147361-000505     105147006003000662876DOLL MED 29cm DOCTOR   0000001000+00011402+00000+0001T   00011402+0000001345          1400 AT1725               1AZ
105147003105147464-000238     105147006001023644039GAME SNAKES+LADDERS    0000001000+00001314+00000+0001T   00001314+0000001345          1400 AT1785               1AZ
105148000105148               105148               170213OX     1400+00000+OX0000001139+0000001139+000000000+000000160+0000001290+0000000009+I20000000000+0000001290+Z
105148001105148903-000709     105148006002099007070SWT QUENCHERS FRUIT    0000001000+00001139+00000+0001T   00001139+0000001354          1400 AT1150               1AZ
105149000105149               105149               170213OX     1400+00000+OX0000004383+0000004383+000000000+000000615+0000004998+0000000000+I40000004998+0000000000+Z
105149001105149056-065303     105149006001023821041SUN-SHIELD 2PCE ANIMAL 0000001000+00002630+00000+0001T   00002630+0000001356          1400 AT1860               1AZ
105149002105149077-000354     105149006003000139224GIFT-BAG 25X32CM H/MADE0000001000+00001753+00000+0001T   00001753+0000001356          1400 AT1112               1AZ
105150000105150               105150               170213OX     1400+00000+OX0000003069+0000003069+000000000+000000430+0000003490+0000000009+I20000000000+0000003490+Z
105150001105150301-085008     105150006003000673933ORN OCC.LOVE TINSEL HRT0000001000+00003069+00000+0001T   00003069+0000001407          1400 AT1505               1AZ
105151000105151               105151               170213OX     1400+00000+OX0000000437+0000000437+000000000+000000062+0000000490+0000000009+I20000000000+0000000490+Z
105151001105151083-000049     105151004891035200024CIG-LIGHTER DISPOSABLE 0000001000+00000437+00000+0001T   00000437+0000001422          1400 AT1315               1AZ
105152000105152               105152               170213OX     1400+00000+OX0000004722+0000004722+000000000+000000669+0000005391+0000000000+I40000005391+0000000000+Z
105152001105152903-000183     105152006003000451043SWT LB HEART LOLLY     0000008000+00000393+00000+0001T   00000393+0000001432          1400 AT1150               1AZ
105152002105152080-000124     105152006003000297733CARD & ENV VALENTINES  0000001000+00001578+00000+0001T   00001578+0000001432          1400 AT1112               1AZ
105153000105153               105153               170213OX     1400+00000+OX0000005478+0000005478+000000000+000000768+0000006240+0000000006+I20000000000+0000006240+Z
105153001105153077-000303     105153006001023593757GIFT-BAG PAPER MED     0000001000+00001578+00000+0001T   00001578+0000001433          1400 AT1112               1AZ
105153002105153018-000136     105153006001023659026MUG OCC LOVE W/PLUSH   0000001000+00003507+00000+0001T   00003507+0000001433          1400 AT1515               1AZ
105153003105153903-000183     105153006003000451043SWT LB HEART LOLLY     0000001000+00000393+00000+0001T   00000393+0000001433          1400 AT1150               1AZ
105154000105154               105154               170213OX     1400+00000+OX0000037753+0000037753+000000000+000005291+0000043044+0000000000+I40000043044+0000000000+Z
105154001105154206-000450     105154006003000619863DRINKING JAR GLOBE     0000001000+00002630+00000+0001T   00002630+0000001436          1400 AT1321               1AZ
105154002105154159-090923     105154006001023629388TOILET SOFT-SEAT SMALL 0000001000+00008771+00000+0001T   00008771+0000001436          1400 AT1200               1AZ
105154003105154079-013032-I   105154006003000542550ART+CRAFT DIY EVA FOAM 0000001000+00001753+00000+0001T   00001753+0000001436          1400 AT1130               1AZ
105154004105154206-000620     105154006003000631797BACK SCRATCHER EXTEND  0000001000+00002630+00000+0001T   00002630+0000001436          1400 AT1321               1AZ
105154005105154079-000600     105154006003000160990ART-SHEETS FOAM ASSTD-C0000001000+00003507+00000+0001T   00003507+0000001436          1400 AT1130               1AZ
105154006105154206-000390     105154006003000631438STRAW PL BUILD A STRAW 0000002000+00002630+00000+0001T   00002630+0000001436          1400 AT1321               1AZ
105154007105154079-011524     105154006003000408139ART+CRFT FINGER PUPPETS0000001000+00004385+00000+0001T   00004385+0000001436          1400 AT1130               1AZ
105154008105154006-000124     105154006003000625888BALLOONS 10PC MIX COL  0000001000+00001753+00000+0001T   00001753+0000001436          1400 AT1131               1AZ
105154009105154079-011520     105154006003000160549ART+CRAFT SET SAND BOTL0000001000+00007016+00000+0001T   00007893+0008191436          1400 AT1130               1AZ
105154010105154112-116069     105154006009681820277TCS CARRIER BAG JUMBO  0000001000+00000048+00000+0001T   00000048+0000001436          1400 AT1090               1AZ
105155000105155               105155               170213OX     1400+00000+OX0000001578+0000001578+000000000+000000221+0000001790+0000000009+I20000000000+0000001790+Z
105155001105155077-000303     105155006001023593757GIFT-BAG PAPER MED     0000001000+00001578+00000+0001T   00001578+0000001444          1400 WS1112               1AZ
105156000105156               105156               170213OX     1400+00000+OX0000003590+0000003590+000000000+000000506+0000004090+0000000006+I20000000000+0000004090+Z
105156001105156304-001204     105156006001023737984FLOWER OCC. TEDDY/ROSES0000002000+00001402+00000+0001T   00001490+0006471446          1400 WS1510               1AZ
105156002105156903-000183     105156006003000451043SWT LB HEART LOLLY     0000002000+00000393+00000+0001T   00000393+0000001446          1400 WS1150               1AZ
105157000105157               105157               170213OX     1400+00000+OX0000016272+0000016272+000000000+000002280+0000018552+0000000000+I40000018552+0000000000+Z
105157001105157077-000270     105157006003000395453GIFT-BAG PPR JMB 33X45 0000001000+00002630+00000+0001T   00002630+0000001451          1400 WS1112               1AZ
105157002105157080-000127     105157006003000424351VALENTINES DAY 36x24CM 0000001000+00002192+00000+0001T   00002192+0000001451          1400 WS1112               1AZ
105157003105157368-000637     105157006001023874092PLUSH BEAR SLEEPING LOV0000001000+00011402+00000+0001T   00012279+0006471451          1400 WS1745               1AZ
105157004105157112-116069     105157006009681820277TCS CARRIER BAG JUMBO  0000001000+00000048+00000+0001T   00000048+0000001451          1400 WS1090               1AZ
105158000105158               105158               170213OX     1400+00000+OX0000005699+0000005699+000000000+000000798+0000006497+0000000000+I40000006497+0000000000+Z
105158001105158018-005009     105158006001023725608MUG W/PLUSH-BEAR LOVE  0000001000+00003507+00000+0001T   00003507+0000001452          1400 WS1515               1AZ
105158002105158018-000170     105158006001023775528MUG OCC. LOVE 2PC MINI 0000001000+00002192+00000+0001T   00002192+0000001452          1400 WS1515               1AZ
105159000105159               105159               170213OX     1400+00000+OX0000001753+0000001753+000000000+000000246+0000001999+0000000000+I40000001999+0000000000+Z
105159001105159077-000290     105159006001023902023GIFT BOX 26x32x13cm    0000001000+00001753+00000+0001T   00001753+0000001453          1400 WS1112               1AZ
105160000105160               105160               170213OX     1400+00000+OX0000002630+0000002630+000000000+000000369+0000002990+0000000009+I20000000000+0000002990+Z
105160001105160083-000058     105160006003000400331LIGHTER JET CIGAR REFIL0000001000+00002630+00000+0001T   00002630+0000001500          1400 WS1315               1AZ
105161000105161               105161               170213OX     1400+00000+OX0000004385+0000004385+000000000+000000614+0000004999+0000000000+I40000004999+0000000000+Z
105161001105161082-000100     105161006003000360246READING GLS STRENGHT:1 0000001000+00004385+00000+0001T   00004385+0000001501          1400 WS1160               1AZ
105162000105162               105162               170213OX     1400+00000+OX0000002714+0000002714+000000000+000000382+0000003090+0000000006+I20000000000+0000003090+Z
105162001105162077-000321     105162006001023677501GIFT-BAG 11X14CM E/D FL0000001000+00000613+00000+0001T   00000613+0000001506          1400 WS1112               1AZ
105162002105162080-000133-A   105162006003000647019MINI VALENTINES CARD   0000002000+00000437+00000+0001T   00000437+0000001506          1400 WS1112               1AZ
105162003105162077-000322     105162006001023677532GIFT-BAG 18X23CM E/D FL0000001000+00001227+00000+0001T   00001227+0000001506          1400 WS1112               1AZ
105163000105163               105163               170213OX     1400+00000+OX0000017977+0000017977+000000000+000002519+0000020496+0000000000+I40000020496+0000000000+Z
105163001105163903-000908     105163006009802868331SWT YOYO HOT WHEELS    0000001000+00001753+00000+0001T   00001753+0000001512          1400 WS1150               1AZ
105163002105163077-000381     105163006003000247707GIFT-BAG 25X32CM S/COL 0000001000+00001753+00000+0001T   00001753+0000001512          1400 WS1112               1AZ
105163003105163261-003348     105163006003000398478GUN AIR BLASTER 27CM   0000001000+00012279+00000+0001T   00012279+0000001512          1400 WS1710               1AZ
105163004105163077-000309-A   105163006003000671007GIFT-BAG HOLOGRAM JMB  0000001000+00002192+00000+0001T   00002192+0000001512          1400 WS1112               1AZ
105164000105164               105164               170213OX     1400+00000+OX0000011748+0000011748+000000000+000001647+0000013390+0000000005+I20000000000+0000013390+Z
105164001105164077-000150-D   105164006003000054343GIFT-WRAP CELLPHANE CLR0000002000+00000876+00000+0001T   00000876+0000001513          1400 WS1112               1AZ
105164002105164077-000005-B   105164006003000326617PAPER TISSUE PATTERN   0000001000+00002630+00000+0001T   00002630+0000001513          1400 WS1112               1AZ
105164003105164077-000245     105164006001023759214GIFT-RIBBON METALLICx2 0000001000+00001227+00000+0001T   00001227+0000001513          1400 WS1112               1AZ
105164004105164103-000068     105164006003000630486BAMBOO BASKET RECTANGLE0000001000+00006139+00000+0001T   00006139+0000001513          1400 WS1300               1AZ
105165000105165               105165               170213OX     1400+00000+OX0000001578+0000001578+000000000+000000221+0000001790+0000000009+I20000000000+0000001790+Z
105165001105165077-000303     105165006001023593757GIFT-BAG PAPER MED     0000001000+00001578+00000+0001T   00001578+0000001518          1400 WS1112               1AZ
105166000105166               105166               170213OX     1400+00000+OX0000010520+0000010520+000000000+000001476+0000011990+0000000006+I20000000000+0000011990+Z
105166001105166006-006019     105166006001023908193PARTY-SPRAY GLITTER    0000004000+00002630+00000+0001T   00002630+0000001519          1400 WS1131               1AZ
105167000105167               105167               170213OX     1400+00000+OX0000013769+0000013769+000000000+000001929+0000015690+0000000008+I20000000000+0000015690+Z
105167001105167077-000299     105167006003000395576G/BAG 32x25cm LRG LOVE 0000001000+00001490+00000+0001T   00001490+0000001520          1400 WS1112               1AZ
105167002105167368-000111     105167006001023780812PLUSH BEAR/DOG 29CM    0000001000+00012279+00000+0001T   00012279+0000001520          1400 WS1745               1AZ
105168000105168               105168               170213OX     1400+00000+OX0000014595+0000014595+000000000+000002049+0000016640+0000000004+I20000000000+0000016640+Z
105168001105168304-001204     105168006001023737984FLOWER OCC. TEDDY/ROSES0000003000+00001402+00000+0001T   00001490+0006471525          1400 WS15101IC            1AZ
105168002105168903-000892     105168008693029700420SWT NOVELTY CHOCO CREAM0000001000+00000788+00000+0001T   00000788+0000001525          1400 WS1150               1AZ
105168003105168903-000216     105168006925925900966SWT MALLOW TWIST ERKO  0000001000+00000262+00000+0001T   00000262+0000001525          1400 WS1150               1AZ
105168004105168903-003051     105168008024431008703SWT CHOCO PARTY 25G    0000001000+00000876+00000+0001T   00000876+0000001525          1400 WS1150               1AZ
105168005105168018-000127     105168006001023380289MUG OCC STRAIGHT LOVE  0000001000+00001578+00000+0001T   00001753+0006471525          1400 WS1515               1AZ
105168006105168903-000151     105168006009803374411SWT SML RND R/BOW LOLLY0000001000+00000525+00000+0001T   00000525+0000001525          1400 WS1150               1AZ
105168007105168903-000077     105168006939873501687SWT GS MAGIC ROCK FRUIT0000001000+00000525+00000+0001T   00000525+0000001525          1400 WS1150               1AZ
105168008105168903-000155     105168006009803374435SWT LOLLY I LUV U HEART0000001000+00000525+00000+0001T   00000525+0000001525          1400 WS1150               1AZ
105168009105168018-019000     105168006003000557288MUG OCC. LOVE JUMBO    0000001000+00005262+00000+0001T   00005262+0000001525          1400 WS1515               1AZ
105168010105168112-116069     105168006009681820277TCS CARRIER BAG JUMBO  0000001000+00000048+00000+0001T   00000048+0000001525          1400 WS1090               1AZ
105169000105169               105169               170213OX     1400+00000+OX0000012850+0000012850+000000000+000001800+0000014650+0000000000+I20000000000+0000014650+Z
105169001105169077-000303     105169006001023593757GIFT-BAG PAPER MED     0000002000+00001578+00000+0001T   00001578+0000001527          1400 WS1112               1AZ
105169002105169018-000136     105169006001023659026MUG OCC LOVE W/PLUSH   0000001000+00003507+00000+0001T   00003507+0000001527          1400 WS1515               1AZ
105169003105169018-050000     105169006003000412679MUG OCC LOVE TWIN BEAR 0000001000+00006139+00000+0001T   00006139+0000001527          1400 WS1515               1AZ
105169004105169112-116069     105169006009681820277TCS CARRIER BAG JUMBO  0000001000+00000048+00000+0001T   00000048+0000001527          1400 WS1090               1AZ
105170000105170               105170               170213OX     1400+00000+OX0000004385+0000004385+000000000+000000614+0000004990+0000000009+I20000000000+0000004990+Z
105170001105170031-000848     105170006001023851901P/FRAME COLLAGE 2ASSTD 0000001000+00004385+00000+0001T   00004385+0000001533          1400 WS1510               1AZ
105171000105171               105171               170213OX     1400+00000+OX0000002665+0000002665+000000000+000000374+0000003030+0000000009+I20000000000+0000003030+Z
105171001105171159-000038     105171006003000393954HOOKS HANGER S/S 2PCE  0000001000+00002630+00000+0001T   00002630+0000001535          1400 WS1200               1AZ
105171002105171112-116038     105171006009681820246TCS CARRIER BAG MIDI   0000001000+00000035+00000+0001T   00000035+0000001535          1400 WS1090               1AZ
105172000105172               105172               170213OX     1400+00000+OX0000004384+0000004384+000000000+000000614+0000004998+0000000000+I40000004998+0000000000+Z
105172001105172566-000031     105172006003000283910STICKER BK TEACHER STIC0000002000+00002192+00000+0001T   00002192+0000001539          1400 WS1130               1AZ
105173000105173               105173               170213OX     1400+00000+OX0000003069+0000003069+000000000+000000430+0000003490+0000000009+I20000000000+0000003490+Z
105173001105173103-000072     105173006001023618238BASKET RECT 25x16x6cm  0000001000+00003069+00000+0001T   00003069+0000001540          1400 WS1300               1AZ
105174000105174               105174               170213OX     1400+00000+OX0000002892+0000002892+000000000+000000405+0000003297+0000000000+I40000003297+0000000000+Z
105174001105174077-000303     105174006001023593757GIFT-BAG PAPER MED     0000001000+00001578+00000+0001T   00001578+0000001545          1400 WS1112               1AZ
105174002105174077-000310     105174006001023608635GIFT-BAG 18X23CM GLOSS 0000001000+00001314+00000+0001T   00001314+0000001545          1400 WS1112               1AZ
105175000105175               105175               170213OX     1400+00000+OX0000003535+0000003535+000000000+000000497+0000004030+0000000002+I20000000000+0000004030+Z
105175001105175018-000177     105175006001023797513MUG MINI LOVE ASSTD    0000002000+00000700+00000+0001T   00000700+0000001546          1400 WS1515               1AZ
105175002105175077-000311     105175006001023608666GIFT-BAG 11X14CM GLOSS 0000002000+00000613+00000+0001T   00000613+0000001546          1400 WS1112               1AZ
105175003105175080-000133-A   105175006003000647019MINI VALENTINES CARD   0000002000+00000437+00000+0001T   00000437+0000001546          1400 WS1112               1AZ
105175004105175112-116038     105175006009681820246TCS CARRIER BAG MIDI   0000001000+00000035+00000+0001T   00000035+0000001546          1400 WS1090               1AZ
105176000105176               105176               170213OX     1400+00000+OX0000017623+0000017623+000000000+000002470+0000020093+0000000000+I40000020093+0000000000+Z
105176001105176304-001204     105176006001023737984FLOWER OCC. TEDDY/ROSES0000001000+00001402+00000+0001T   00001490+0006471605          1400 WS1510               1AZ
105176002105176301-085004     105176006003000420469ORN LOVE PLAQUE 21X10CM0000001000+00003507+00000+0001T   00003946+0006471605          1400 WS1505               1AZ
105176003105176080-000133-A   105176006003000647019MINI VALENTINES CARD   0000001000+00000437+00000+0001T   00000437+0000001605          1400 WS1112               1AZ
105176004105176001-091415     105176006003000329113W/GLS OCC. LOVE 2PC 2800000001000+00008771+00000+0001T   00009648+0006471605          1400 WS1515               1AZ
105176005105176565-000888     105176006003000607846NOVELTY MESH BALL      0000002000+00001753+00000+0001T   00001753+0000001605          1400 WS1745               1AZ
105177000105177               105177               170213OX     1400+00000+OX0000019164+0000019164+000000000+000002686+0000021850+0000000000+I40000021850+0000000000+Z
105177001105177080-000124     105177006003000297733CARD & ENV VALENTINES  0000001000+00001578+00000+0001T   00001578+0000001607          1400 WS1112               1AZ
105177002105177565-000888     105177006003000607846NOVELTY MESH BALL      0000002000+00001753+00000+0001T   00001753+0000001607          1400 WS1745               1AZ
105177003105177368-000111     105177006001023780812PLUSH BEAR/DOG 29CM    0000001000+00012279+00000+0001T   00012279+0000001607          1400 WS1745               1AZ
105177004105177200-003026     105177006003000276448REFUSE BAGS 10PCE GREEN0000001000+00001753+00000+0001T   00001753+0000001607          1400 WS1214               1AZ
105177005105177112-116069     105177006009681820277TCS CARRIER BAG JUMBO  0000001000+00000048+00000+0001T   00000048+0000001607          1400 WS1090               1AZ
105178000105178               105178               170213OX     1400+00000+OX0000015918+0000015918+000000000+000002230+0000018140+0000000008+I20000000000+0000018140+Z
105178001105178903-000070     105178006001704001106SWT TOFFEE CREAMY 35g  0000002000+00000700+00000+0001T   00000700+0000001608          1400 WS1150               1AZ
105178002105178080-000133-A   105178006003000647019MINI VALENTINES CARD   0000001000+00000437+00000+0001T   00000437+0000001608          1400 WS1112               1AZ
105178003105178368-000614     105178006001023705808PLUSH LOVE 30cm        0000001000+00008771+00000+0001T   00008771+0000001608          1400 WS1745               1AZ
105178004105178112-116069     105178006009681820277TCS CARRIER BAG JUMBO  0000001000+00000048+00000+0001T   00000048+0000001608          1400 WS1090               1AZ
105178005105178368-000053     105178006003000633449PLUSH BEAR 15.5cm MUM  0000001000+00005262+00000+0001T   00005262+0000001608          1400 WS1745               1AZ
105179000105179               105179               170213OX     1400+00000+OX0000003330+0000003330+000000000+000000467+0000003797+0000000000+I40000003797+0000000000+Z
105179001105179077-000348     105179006001023483287GIFT-BOWS 4,5cm 8PCE   0000001000+00001578+00000+0001T   00001578+0000001610          1400 WS1112               1AZ
105179002105179077-000150-D   105179006003000054343GIFT-WRAP CELLPHANE CLR0000002000+00000876+00000+0001T   00000876+0000001610          1400 WS1112               1AZ
105180000105180               105180               170213OX     1400+00000+OX0000008819+0000008819+000000000+000001235+0000010054+0000000000+I40000010054+0000000000+Z
105180001105180368-000012     105180006003000610464PLUSH BEAR 30cm SITTING0000001000+00008771+00000+0001T   00008771+0000001612          1400 WS1745               1AZ
105180002105180112-116069     105180006009681820277TCS CARRIER BAG JUMBO  0000001000+00000048+00000+0001T   00000048+0000001612          1400 WS1090               1AZ
105181000105181               105181               170213OX     1400+00000+OX0000004733+0000004733+000000000+000000664+0000005397+0000000000+I40000005397+0000000000+Z
105181001105181077-000245     105181006001023759214GIFT-RIBBON METALLICx2 0000001000+00001227+00000+0001T   00001227+0000001613          1400 WS1112               1AZ
105181002105181077-000240     105181006003000326259G/RIBBON 4PC PEARLIZED 0000002000+00001753+00000+0001T   00001753+0000001613          1400 WS1112               1AZ
105182000105182               105182               170213OX     1400+00000+OX0000023706+0000023706+000000000+000003323+0000027029+0000000000+I40000027029+0000000000+Z
105182001105182567-010569     105182006002242057136BOOK READER AFR DISNEY 0000001000+00002630+00000+0001T   00002630+0000001617          1400 WS1757               1AZ
105182002105182567-010570     105182006002242057129BOOK READER AFR DISNEY 0000002000+00002630+00000+0001T   00002630+0000001617          1400 WS1757               1AZ
105182003105182567-010569     105182006002242057136BOOK READER AFR DISNEY 0000001000+00002630+00000+0001T   00002630+0000001617          1400 WS1757               1AZ
105182004105182567-010570     105182006002242057129BOOK READER AFR DISNEY 0000001000+00002630+00000+0001T   00002630+0000001617          1400 WS1757               1AZ
105182005105182567-010565     105182006003000572472BOOK AFRIKAANS CAT 2   0000003000+00003507+00000+0001T   00003507+0000001617          1400 WS1757               1AZ
105182006105182112-116038     105182006009681820246TCS CARRIER BAG MIDI   0000001000+00000035+00000+0001T   00000035+0000001617          1400 WS1090               1AZ
105183000105183               105183               170213OX     1400+00000+OX0000007938+0000007938+000000000+000001114+0000009050+0000000002+I20000000000+0000009050+Z
105183001105183018-000129     105183006001023403353MUG OCC. LOVE V-SHAPE  0000003000+00002630+00000+0001T   00002630+0000001618          1400 WS1515               1AZ
105183002105183112-116069     105183006009681820277TCS CARRIER BAG JUMBO  0000001000+00000048+00000+0001T   00000048+0000001618          1400 WS1090               1AZ
105184000105184               105184               170213OX     1400+00000+OX0000002630+0000002630+000000000+000000369+0000002990+0000000009+I20000000000+0000002990+Z
105184001105184050-000364-Z   105184006001023777133PADLOCK IRON 38mm CARD 0000001000+00002630+00000+0001T   00002630+0000001619          1400 WS1855               1AZ
105185000105185               105185               170213OX     1400+00000+OX0000001490+0000001490+000000000+000000209+0000001690+0000000009+I20000000000+0000001690+Z
105185001105185077-000299     105185006003000395576G/BAG 32x25cm LRG LOVE 0000001000+00001490+00000+0001T   00001490+0000001622          1400 WS1112               1AZ
105186000105186               105186               170213OX     1400+00000+OX0000003069+0000003069+000000000+000000430+0000003490+0000000009+I20000000000+0000003490+Z
105186001105186567-014135     105186006003000560264BOOK COLOURING 240P    0000001000+00003069+00000+0001T   00003507+0008191625          1400 WS1757               1AZ
105187000105187               105187               170213OX     1400+00000+OX0000001753+0000001753+000000000+000000246+0000001990+0000000009+I20000000000+0000001990+Z
105187001105187566-000007     105187006001023761187S/BOOK SUPER VALUE     0000001000+00001753+00000+0001T   00001753+0000001626          1400 WS1130               1AZ
105188000105188               105188               170213OX     1400+00000+OX0000003507+0000003507+000000000+000000491+0000003990+0000000008+I20000000000+0000003990+Z
105188001105188565-000876     105188006003000305759NOVELTY FUNKY SUNGLASS 0000001000+00003507+00000+0001T   00003507+0000001627          1400 WS1745               1AZ
105189000105189               105189               170213OX     1400+00000+OX0000002139+0000002139+000000000+000000300+0000002430+0000000009+I20000000000+0000002430+Z
105189001105189903-000095     105189006001704011495SWT SPECKLED-EGGS 100G 0000001000+00002104+00000+0001T   00002104+0000001633          1400 WS1150               1AZ
105189002105189112-116038     105189006009681820246TCS CARRIER BAG MIDI   0000001000+00000035+00000+0001T   00000035+0000001633          1400 WS1090               1AZ
105190000105190               105190               170213OX     1400+00000+OX0000011883+0000011883+000000000+000001667+0000013550+0000000000+I40000013550+0000000000+Z
105190001105190040-000172     105190006001023794536C/HOLDER GLS FRIENDSHIP0000001000+00003069+00000+0001T   00003069+0000001635          1400 WS1510               1AZ
105190002105190200-003024     105190006001023657299REFUSE BAGS 20PCE BLACK0000002000+00001753+00000+0001T   00001753+0000001635          1400 WS1214               1AZ
105190003105190006-000220-B   105190006001023890870PARTY TABLE-CLOTH BOY  0000002000+00002630+00000+0001T   00002630+0000001635          1400 WS1131               1AZ
105190004105190112-116069     105190006009681820277TCS CARRIER BAG JUMBO  0000001000+00000048+00000+0001T   00000048+0000001635          1400 WS1090               1AZ
105191000105191               105191               170213OX     1400+00000+OX0000012144+0000012144+000000000+000001704+0000013848+0000000000+I40000013848+0000000000+Z
105191001105191079-009702-A   105191008427973059408PAPER SIRIO A2 BLACK   0000001000+00001051+00000+0001T   00001051+0000001637          1400 WS1130               1AZ
105191002105191077-000303     105191006001023593757GIFT-BAG PAPER MED     0000002000+00001578+00000+0001T   00001578+0000001637          1400 WS1112               1AZ
105191003105191077-000011     105191006003000542352PAPER RAFFIA ASSTD COL 0000001000+00001753+00000+0001T   00001753+0000001637          1400 WS1112               1AZ
105191004105191077-000005-B   105191006003000326617PAPER TISSUE PATTERN   0000001000+00002630+00000+0001T   00002630+0000001637          1400 WS1112               1AZ
105191005105191016-006514     105191006003000295432S/JAR EMBOSSED 500ML   0000002000+00001753+00000+0001T   00001753+0000001637          1400 WS1300               1AZ
105191006105191112-116069     105191006009681820277TCS CARRIER BAG JUMBO  0000001000+00000048+00000+0001T   00000048+0000001637          1400 WS1090               1AZ
105192000105192               105192               170213OX     1400+00000+OX0000003506-0000003506-000000000+000000492-0000004000-0000000002+I20000000000+0000004000-Z
105192001105192030-083577     105192006003000632152THERMOMETER MAGNETIC   0000002000-00001753+00000+0001T   00001753+0000001640          1400 WS15052IC            1 Z
105193000105193               105193               170213OX     1400+00000+OX0000000000+0000000000+000000000+000000000+0000000000+0000000000+ 00000000000+0000000000+Z
105193001105193366-000900     105193006003000006960DRESS UP WINGS BUG     0000001000+00006139+00000+0001T   00006139+000000              1400 WS1131               1 Z
105193002105193306-000019     105193006001023734846TOOTHBRUSH W/DESIGN    0000001000+00000525+00000+0001T   00000525+000000              1400 WS1200               1 Z
105194000105194               105194               170213OX     1400+00000+OX0000014854+0000014854+000000000+000002082+0000016936+0000000000+I40000016936+0000000000+Z
105194001105194306-000019     105194006001023734846TOOTHBRUSH W/DESIGN    0000001000+00000525+00000+0001T   00000525+0000001643          1400 WS1200               1AZ
105194002105194903-000087     105194006001704000161SWT SPECKLED-EGGS 50G  0000001000+00001139+00000+0001T   00001139+0000001643          1400 WS1150               1AZ
105194003105194366-000900     105194006003000006960DRESS UP WINGS BUG     0000001000+00006139+00000+0001T   00006139+0000001643          1400 WS1131               1AZ
105194004105194112-116038     105194006009681820246TCS CARRIER BAG MIDI   0000001000+00000035+00000+0001T   00000035+0000001643          1400 WS1090               1AZ
105194005105194368-000021     105194006003000672141PLUSH DINOSAUR 27cm    0000001000+00007016+00000+0001T   00007016+0000001643          1400 WS1745               1AZ
105195000105195               105195               170213OX     1400+00000+OX0000032575+0000032575+000000000+000004566+0000037141+0000000000+I40000037141+0000000000+Z
105195001105195200-000067     105195006003000330683STRAWS DRINKING 100PC  0000001000+00002192+00000+0001T   00002192+0000001646          1400 WS1214               1AZ
105195002105195077-000311     105195006001023608666GIFT-BAG 11X14CM GLOSS 0000002000+00000613+00000+0001T   00000613+0000001646          1400 WS1112               1AZ
105195003105195018-000170     105195006001023775528MUG OCC. LOVE 2PC MINI 0000002000+00002192+00000+0001T   00002192+0000001646          1400 WS1515               1AZ
105195004105195077-000011-F   105195006001023808431TISSUE-WRAP BLUE/LILAC 0000001000+00000876+00000+0001T   00000876+0000001646          1400 WS1112               1AZ
105195005105195077-000010-U   105195006001023168863CREPE-PAPER CERISE-PINK0000001000+00000788+00000+0001T   00000788+0000001646          1400 WS1112               1AZ
105195006105195566-001234     105195006003000217793STICKERS LASER ASSTD   0000001000+00001578+00000+0001T   00001578+0000001646          1400 WS1130               1AZ
105195007105195007-000029     105195006003000577736PRICE FLASH 17x11cm    0000002000+00001753+00000+0001T   00001753+0000001646          1400 WS1130               1AZ
105195008105195080-000127     105195006003000424351VALENTINES DAY 36x24CM 0000001000+00002192+00000+0001T   00002192+0000001646          1400 WS1112               1AZ
105195009105195077-000299-A   105195006003000670888GIFT-BAG PAPER JMB LOVE0000001000+00001753+00000+0001T   00001753+0000001646          1400 WS1112               1AZ
105195010105195368-000113     105195006001023780874PLUSH BLINGED LOVE 30cm0000001000+00012279+00000+0001T   00012279+0000001646          1400 WS1745               1AZ
105195011105195112-116069     105195006009681820277TCS CARRIER BAG JUMBO  0000001000+00000048+00000+0001T   00000048+0000001646          1400 WS1090               1AZ
105195012105195903-000615     105195006003000617456SWT JET PLANE J/B 5G   0000001000+00001753+00000+0001T   00001753+0000001646          1400 WS1150               1AZ
105196000105196               105196               170213OX     1400+00000+OX0000002225+0000002225+000000000+000000312+0000002530+0000000007+I20000000000+0000002530+Z
105196001105196006-000166-G   105196006003000607976BALLOONS HELIUM 6PC BLK0000001000+00001314+00000+0001T   00001314+0000001647          1400 WS1131               1AZ
105196002105196077-000011-D   105196006001023808554TISSUE-WRAP WHITE 10PCE0000001000+00000876+00000+0001T   00000876+0000001647          1400 WS1112               1AZ
105196003105196112-116038     105196006009681820246TCS CARRIER BAG MIDI   0000001000+00000035+00000+0001T   00000035+0000001647          1400 WS1090               1AZ
105197000105197               105197               170213OX     1400+00000+OX0000026706+0000026706+000000000+000003742+0000030440+0000000008+I20000000000+0000030440+Z
105197001105197133-046632     105197006008766046632TABLE-CLOTH 132cm SQ   0000001000+00002630+00000+0001T   00002630+0000001648          1400 WS1212               1AZ
105197002105197903-000517     105197006001704012768SWT STRAWS FIZZY CHERRY0000001000+00001227+00000+0001T   00001227+0000001648          1400 WS1150               1AZ
105197003105197903-000520     105197006001704009898SWT GUMMY MINI SOUR 60g0000002000+00000876+00000+0001T   00000876+0000001648          1400 WS1150               1AZ
105197004105197019-000079     105197006001023775726VASE 30cm CRACK-DESIGN 0000001000+00012279+00000+0001T   00012279+0000001648          1400 WS1510               1AZ
105197005105197050-000880-TS  105197006003000688098PADLOCK COMBO BRS 4 WHL0000002000+00004385+00000+0001T   00004385+0000001648          1400 WS1855               1AZ
105197006105197112-116069     105197006009681820277TCS CARRIER BAG JUMBO  0000001000+00000048+00000+0001T   00000048+0000001648          1400 WS1090               1AZ
105198000105198               105198               170213OX     1400+00000+OX0000007049+0000007049+000000000+000000987+0000008030+0000000006+I20000000000+0000008030+Z
105198001105198018-005009     105198006001023725608MUG W/PLUSH-BEAR LOVE  0000002000+00003507+00000+0001T   00003507+0000001648          1400 WS1515               1AZ
105198002105198112-116038     105198006009681820246TCS CARRIER BAG MIDI   0000001000+00000035+00000+0001T   00000035+0000001648          1400 WS1090               1AZ
105199000105199               105199               170213OX     1400+00000+OX0000002630+0000002630+000000000+000000369+0000002990+0000000009+I20000000000+0000002990+Z
105199001105199075-000360     105199006003000267705PURSE 9x6cm B-FLY/ROSE 0000001000+00002630+00000+0001T   00002630+0000001650          1400 WS1160               1AZ
105200000105200               105200               170213OX     1400+00000+OX0000004996+0000004996+000000000+000000701+0000005690+0000000007+I20000000000+0000005690+Z
105200001105200027-078282     105200006001023767837SCOURER 25g SPIRAL-BALL0000001000+00000613+00000+0001T   00000613+0000001652          1400 WS1212               1AZ
105200002105200038-092232     105200006001023625830TABLE-MAT N/SLIP 32x55 0000001000+00001753+00000+0001T   00001753+0000001652          1400 WS1300               1AZ
105200003105200007-000602     105200006003000541270BOOK COVER 2M SOLID COL0000001000+00002630+00000+0001T   00002630+0000001652          1400 WS1130               1AZ
105201000105201               105201               170213OX     1400+00000+OX0000004370+0000004370+000000000+000000620+0000004990+0000000000+I40000004990+0000000000+Z
105201001105201903-000094     105201006923431501622SWT GS CANDY NECKLACE  0000010000+00000437+00000+0001T   00000437+0000001653          1400 WS1150               1AZ
105202000105202               105202               170213OX     1400+00000+OX0000035218+0000035218+000000000+000004935+0000040153+0000000000+I40000040153+0000000000+Z
105202001105202001-091415     105202006003000329113W/GLS OCC. LOVE 2PC 2800000001000+00008771+00000+0001T   00009648+0006471657          1400 WS1515               1AZ
105202002105202002-021064     105202006001023822246TOOTHPICKS IN-HOLDER   0000001000+00001490+00000+0001T   00001490+0000001657          1400 WS1300               1AZ
105202003105202071-081091     105202006001151010287STAED/GENKEM ALL-STICK 0000001000+00001227+00000+0001T   00001227+0000001657          1400 WS1130               1AZ
105202004105202028-000795     105202006001023812063SKEWERS 10cm 100PCE 3mm0000001000+00000964+00000+0001T   00000964+0000001657          1400 WS1305               1AZ
105202005105202028-000797     105202006001023812124SKEWERS 15cm 100PCE    0000001000+00000876+00000+0001T   00000876+0000001657          1400 WS1305               1AZ
105202006105202028-000799     105202006001023812186SKEWERS BAMBOO 100PCE  0000001000+00001578+00000+0001T   00001578+0000001657          1400 WS1305               1AZ
105202007105202077-000270     105202006003000395453GIFT-BAG PPR JMB 33X45 0000001000+00002630+00000+0001T   00002630+0000001657          1400 WS1112               1AZ
105202008105202077-000011-Y   105202006001023809858TISSUE-WRAP GOLD 10PCE 0000001000+00001753+00000+0001T   00001753+0000001657          1400 WS1112               1AZ
105202009105202009-001506     105202006001023696090MELAMINE TRAY 39x29cm  0000002000+00004385+00000+0001T   00004385+0000001657          1400 WS1210               1AZ
105202010105202016-006498-A   105202006001023774736S/JAR GLS/MTL POLKA-DOT0000001000+00002630+00000+0001T   00002630+0000001657          1400 WS1300               1AZ
105202011105202006-000190     105202006003000685530BALLOONS LOVE 81x91cm  0000001000+00004385+00000+0001T   00004385+0000001657          1400 WS1131               1AZ
105202012105202112-116069     105202006009681820277TCS CARRIER BAG JUMBO  0000001000+00000048+00000+0001T   00000048+0000001657          1400 WS1090               1AZ
105202013105202112-116069     105202006009681820277TCS CARRIER BAG JUMBO  0000002000+00000048+00000+0001T   00000048+0000001657          1400 WS1090               1AZ
105203000105203               105203               170213OX     1400+00000+OX0000001490+0000001490+000000000+000000209+0000001690+0000000009+I20000000000+0000001690+Z
105203001105203077-000299     105203006003000395576G/BAG 32x25cm LRG LOVE 0000001000+00001490+00000+0001T   00001490+0000001701          1400 WS1112               1AZ
105204000105204               105204               170213OX     1400+00000+OX0000001490+0000001490+000000000+000000209+0000001690+0000000009+I20000000000+0000001690+Z
105204001105204565-004101     105204006003000548033BALL BOUNCING EGG      0000001000+00001490+00000+0001T   00001490+0000001703          1400 WS1745               1AZ
105205000105205               105205               170213OX     1400+00000+OX0000011400+0000011400+000000000+000001597+0000012990+0000000007+I20000000000+0000012990+Z
105205001105205039-000799     105205006001023692382CANDLES TEALITE 100PCE 0000001000+00008771+00000+0001T   00008771+0000001704          1400 WS1510               1AZ
105205002105205203-008282     105205006003000597703WINE GLS PL 2PC CHAMP. 0000001000+00001753+00000+0001T   00002630+0008171704          1400 WS1300               1AZ
105205003105205903-000861     105205005010478430822SWT LOVE HEARTS SML    0000001000+00000876+00000+0001T   00000876+0000001704          1400 WS1150               1AZ
105206000105206               105206               170213OX     1400+00000+OX0000004734+0000004734+000000000+000000663+0000005390+0000000007+I20000000000+0000005390+Z
105206001105206018-000136     105206006001023659026MUG OCC LOVE W/PLUSH   0000001000+00003507+00000+0001T   00003507+0000001706          1400 WS1515               1AZ
105206002105206077-000322     105206006001023677532GIFT-BAG 18X23CM E/D FL0000001000+00001227+00000+0001T   00001227+0000001706          1400 WS1112               1AZ
105207000105207               105207               170213OX     1400+00000+OX0000013769+0000013769+000000000+000001929+0000015690+0000000008+I20000000000+0000015690+Z
105207001105207077-000299     105207006003000395576G/BAG 32x25cm LRG LOVE 0000001000+00001490+00000+0001T   00001490+0000001708          1400 WS1112               1AZ
105207002105207368-000111     105207006001023780812PLUSH BEAR/DOG 29CM    0000001000+00012279+00000+0001T   00012279+0000001708          1400 WS1745               1AZ
105208000105208               105208               170213OX     1400+00000+OX0000014076+0000014076+000000000+000001971+0000016047+0000000000+I40000016047+0000000000+Z
105208001105208016-006550     105208006001023870483S/JAR GLS FROSTED 950ml0000003000+00003507+00000+0001T   00004385+0008121711          1400 WS1300               1AZ
105208002105208106-005105     105208006003000667154WATER BOTTLE 1,6L      0000001000+00003507+00000+0001T   00003507+0000001711          1400 WS1210               1AZ
105208003105208112-116069     105208006009681820277TCS CARRIER BAG JUMBO  0000001000+00000048+00000+0001T   00000048+0000001711          1400 WS1090               1AZ
105209000105209               105209               170213OX     1400+00000+OX0000002630+0000002630+000000000+000000369+0000002990+0000000009+I20000000000+0000002990+Z
105209001105209077-000270     105209006003000395453GIFT-BAG PPR JMB 33X45 0000001000+00002630+00000+0001T   00002630+0000001711          1400 WS1112               1AZ
105210000105210               105210               170213OX     1400+00000+OX0000001753+0000001753+000000000+000000246+0000001990+0000000009+I20000000000+0000001990+Z
105210001105210077-000324     105210006001023677594GIFT-BAG 33X45CM E/D FL0000001000+00001753+00000+0001T   00001753+0000001713          1400 WS1112               1AZ
105211000105211               105211               170213OX     1400+00000+OX0000001753+0000001753+000000000+000000246+0000001990+0000000009+I20000000000+0000001990+Z
105211001105211077-000011     105211006003000542352PAPER RAFFIA ASSTD COL 0000001000+00001753+00000+0001T   00001753+0000001713          1400 WS1112               1AZ
105212000105212               105212               170213OX     1400+00000+OX0000007364+0000007364+000000000+000001033+0000008390+0000000007+I20000000000+0000008390+Z
105212001105212301-000827     105212006001023872692ORN FAIRY MINI IN-BAG  0000001000+00003946+00000+0001T   00003946+0000001715          1400 WS1505               1AZ
105212002105212903-000138     105212006002099004314SWT GS WINE GUMS 60G   0000001000+00000788+00000+0001T   00000788+0000001715          1400 WS1150               1AZ
105212003105212079-000201     105212006003000161430P/CRAYONS THERAPY 10PCE0000001000+00002630+00000+0001T   00002630+0000001715          1400 WS1130               1AZ
105213000105213               105213               170213OX     1400+00000+OX0000001349+0000001349+000000000+000000189+0000001530+0000000008+I20000000000+0000001530+Z
105213001105213077-000312     105213006001023608697GIFT-BAG 10X35CM GLOSS 0000001000+00001314+00000+0001T   00001314+0000001718          1400 WS11122IC            1AZ
105213002105213112-116038     105213006009681820246TCS CARRIER BAG MIDI   0000001000+00000035+00000+0001T   00000035+0000001718          1400 WS1090               1AZ
105214000105214               105214               170213OX     1400+00000+OX0000002630+0000002630+000000000+000000369+0000002990+0000000009+I20000000000+0000002990+Z
105214001105214368-000040     105214006003000671786PLUSH ICONS 7.5cm      0000001000+00002630+00000+0001T   00002630+0000001719          1400 WS1745               1AZ
105215000105215               105215               170213OX     1400+00000+OX0000001565+0000001565+000000000+000000220+0000001780+0000000005+I20000000000+0000001780+Z
105215001105215079-009700-B   105215006003000547661PAPER SIRIO A4 WHITE   0000003000+00000306+00000+0001T   00000306+0000001721          1400 WS1130               1AZ
105215002105215079-009700-A   105215006003000547746PAPER SIRIO A4 BLACK   0000002000+00000306+00000+0001T   00000306+0000001721          1400 WS1130               1AZ
105215003105215112-116038     105215006009681820246TCS CARRIER BAG MIDI   0000001000+00000035+00000+0001T   00000035+0000001721          1400 WS1090               1AZ
105216000105216               105216               170213OX     1400+00000+OX0000006139+0000006139+000000000+000000860+0000006990+0000000009+I20000000000+0000006990+Z
105216001105216007-000890-17  105216006003000645671CALENDAR 2017 ASSTD    0000001000+00006139+00000+0001T   00006139+0000001722          1400 WS1130               1AZ
105217000105217               105217               170213OX     1400+00000+OX0000002630+0000002630+000000000+000000369+0000002990+0000000009+I20000000000+0000002990+Z
105217001105217077-000270     105217006003000395453GIFT-BAG PPR JMB 33X45 0000001000+00002630+00000+0001T   00002630+0000001723          1400 WS1112               1AZ
A17021300                                          09480361OXSLAVE 1                       WS12IC
A17021301                                          16304341OXSLAVE 1                       WS12IC
A17021302                                          16503453OXSLAVE 1                       WS11IC
B10516800                                          170213OX304-001204     15245207SLAVE 1     WS11IC0000869000+0000003000+0000000000000+
B10521300                                          170213OX077-000312     17183418SLAVE 1     WS12IC0000002000+0000001000+0000000000000+
M17021391                              CASH        OXSLAVE 1                       Z-REPORT No.   640TOTAL (Sales - Refunds)           8751.16       CASH TO BE BANKED                 4317.50       DEBIT CARDS                          0.00       CREDIT CARDS                      4434.16       Z-READING                         8751.16       AIRTIME DEBIT CARD SALES             0.00       AIRTIME CARD SALES                   0.00       OVERS/UNDERS                         0.50       AIRTIME CASH SALES                   0.00       GIFT CARDS                           0.00       GIFT CARD CASH SALES                 0.00       T O T A L  CASH PAYOUTS              0.00                                                                                                                                                                                                                                                                                                                                                      Z
M17021392                              CASH        OXABSENT                                                                                                                                                                                          ANNUAL LEAVE                                                                                                                                                                                    DAY OFF                                                                                                                                                                                         COMMENTS                                                                                                                                                                                                                                                                                                                                                                                       Z
Y17021300                                          OX00000000771485+000107
ZOX17021320163 SLAVE 1      SALES DATA                     NEXT INVOICE NO.  105218 0641
F094725491-059640         1702081107350000131ICSLAVE 1
X OX Slave 1 First invoice 105109 170213 Last invoice 105217 170213 Next invoice 105218 Total number of records 000000401 clbackup completed 20:16:12
