209144000209144               209144               170213OX     1400+00000+OX0000009671+0000009671+000000000+000001358+0000011029+0000000000+I40000011029+0000000000+Z
209144001209144007-000127     209144006009685853431BOOK H/COVER MEMO 144PG0000001000+00000876+00000+0001T   00000876+0000000934          1400 AS8130               2AZ
209144002209144071-001019     209144006001023474513MARKER BLACK NAME-PEN  0000010000+00000876+00000+0001T   00000876+0000000934          1400 AS8130               2AZ
209144003209144112-116038     209144006009681820246TCS CARRIER BAG MIDI   0000001000+00000035+00000+0001T   00000035+0000000934          1400 AS8090               2AZ
209145000209145               209145               170213OX     1400+00000+OX0000003095+0000003095+000000000+000000435+0000003530+0000000000+I40000003530+0000000000+Z
209145001209145079-009700-B   209145006003000547661PAPER SIRIO A4 WHITE   0000010000+00000306+00000+0001T   00000306+0000000940          1400 AS8130               2AZ
209145002209145112-116038     209145006009681820246TCS CARRIER BAG MIDI   0000001000+00000035+00000+0001T   00000035+0000000940          1400 AS8090               2AZ
209146000209146               209146               170213OX     1400+00000+OX0000010085+0000010085+000000000+000001413+0000011490+0000000008+I20000000000+0000011490+Z
209146001209146007-000898     209146006001023871947BOOK JOURNAL           0000001000+00006139+00000+0001T   00006139+0000000947          1400 AS8130               2AZ
209146002209146036-000014     209146006001246500822LINT REMOVER 40x SHEET 0000001000+00003946+00000+0001T   00003946+0000000947          1400 AS8212               2AZ
209147000209147               209147               170213OX     1400+00000+OX0000006138+0000006138+000000000+000000860+0000006990+0000000008+I20000000000+0000006990+Z
209147001209147079-013106     209147006003000081998ART+CRAFT PIPE-CLEANERS0000002000+00003069+00000+0001T   00003069+0000000952          1400 AS81302IC            2AZ
209148000209148               209148               170213OX     1400+00000+OX0000008449+0000008449+000000000+000001183+0000009630+0000000002+I20000000000+0000009630+Z
209148001209148018-000136     209148006001023659026MUG OCC LOVE W/PLUSH   0000001000+00003507+00000+0001T   00003507+0000001017          1400 AT1515               2AZ
209148002209148018-000130     209148006001023867537MUG OCC LOVE MINI+HEART0000001000+00003507+00000+0001T   00003507+0000001017          1400 AT1515               2AZ
209148003209148018-000177     209148006001023797513MUG MINI LOVE ASSTD    0000002000+00000700+00000+0001T   00000700+0000001017          1400 AT1515               2AZ
209148004209148112-116038     209148006009681820246TCS CARRIER BAG MIDI   0000001000+00000035+00000+0001T   00000035+0000001017          1400 AT1090               2AZ
209149000209149               209149               170213OX     1400+00000+OX0000000525+0000000525+000000000+000000074+0000000590+0000000009+I20000000000+0000000590+Z
209149001209149903-000151     209149006009803374411SWT SML RND R/BOW LOLLY0000001000+00000525+00000+0001T   00000525+0000001017          1400 AT1150               2AZ
209150000209150               209150               170213OX     1400+00000+OX0000002192+0000002192+000000000+000000307+0000002490+0000000009+I20000000000+0000002490+Z
209150001209150206-000245     209150006003000680818BOTTLE CLEANER PLASTIC 0000001000+00002192+00000+0001T   00002192+0000001040          1400 AS8321               2AZ
209151000209151               209151               170213OX     1400+00000+OX0000002100-0000002100-000000000+000000294-0000002400-0000000006+I20000000000+0000002400-Z
209151001209151033-010721     209151006001023678669SAFETY-PINS 20PCE ASSTD0000003000-00000700+00000+0001T   00000700+0000001044          1400 AS82002IC            2 Z
209152000209152               209152               170213OX     1400+00000+OX0000001314+0000001314+000000000+000000184+0000001498+0000000000+I40000001498+0000000000+Z
209152001209152077-000312     209152006001023608697GIFT-BAG 10X35CM GLOSS 0000001000+00001314+00000+0001T   00001314+0000001048          1400 AS8112               2AZ
209153000209153               209153               170213OX     1400+00000+OX0000003769+0000003769+000000000+000000529+0000004298+0000000000+I40000004298+0000000000+Z
209153001209153071-030013     209153006003000283965PEN NVLTY NEON GEL 6PC 0000001000+00002630+00000+0001T   00002630+0000001050          1400 AS8130               2AZ
209153002209153903-000087     209153006001704000161SWT SPECKLED-EGGS 50G  0000001000+00001139+00000+0001T   00001139+0000001050          1400 AS8150               2AZ
209154000209154               209154               170213OX     1400+00000+OX0000012279+0000012279+000000000+000001720+0000013999+0000000000+I40000013999+0000000000+Z
209154001209154133-092004     209154006003000008865TABLE CLOTH 130X160CM  0000001000+00012279+00000+0001T   00012279+0000001052          1400 AS8212               2AZ
209155000209155               209155               170213OX     1400+00000+OX0000006752+0000006752+000000000+000000946+0000007690+0000000008+I20000000000+0000007690+Z
209155001209155301-000013     209155006001023781604ORN SENTIMENT STONE 4-A0000001000+00006139+00000+0001T   00006139+0000001108          1400 AS8505               2AZ
209155002209155077-000311     209155006001023608666GIFT-BAG 11X14CM GLOSS 0000001000+00000613+00000+0001T   00000613+0000001108          1400 AS8112               2AZ
209156000209156               209156               170213OX     1400+00000+OX0000010572+0000010572+000000000+000001481+0000012050+0000000003+I20000000000+0000012050+Z
209156001209156019-000285     209156006001023889829VASE CERAMIC 25CM ASSTD0000001000+00005262+00000+0001T   00005262+0000001112          1400 AS8510               2AZ
209156002209156019-000306     209156006003000328031VASE CERAMIC FLOWER EMB0000001000+00005262+00000+0001T   00005262+0000001112          1400 AS8510               2AZ
209156003209156112-116069     209156006009681820277TCS CARRIER BAG JUMBO  0000001000+00000048+00000+0001T   00000048+0000001112          1400 AS8090               2AZ
209157000209157               209157               170213OX     1400+00000+OX0000007016+0000007016+000000000+000000983+0000007990+0000000009+I20000000000+0000007990+Z
209157001209157019-000300     209157006001023845139VASE CER. ASST         0000001000+00007016+00000+0001T   00007016+0000001114          1400 AS8510               2AZ
209158000209158               209158               170213OX     1400+00000+OX0000031216+0000031216+000000000+000004376+0000035592+0000000000+I40000035592+0000000000+Z
209158001209158051-002406     209158006003000139415SPRAY PL TRIGGER 700ml 0000002000+00001753+00000+0001T   00001753+0000001119          1400 AS8820               2AZ
209158002209158079-003013     209158006003000633838PAINT ACRYLIC TUBE BRNZ0000001000+00002630+00000+0001T   00002630+0000001119          1400 AS8130               2AZ
209158003209158071-001010     209158006001023893314MARKERS-METALIC 3PCE   0000001000+00003507+00000+0001T   00003507+0000001119          1400 AS8130               2AZ
209158004209158076-000750     209158006003000423347CORD STRETCH 2-CLAW    0000001000+00002630+00000+0001T   00002630+0000001119          1400 AS8810               2AZ
209158005209158033-001389     209158006003000622344HAIR PINS BLACK 3PC 12c0000001000+00002192+00000+0001T   00002192+0000001119          1400 AS8200               2AZ
209158006209158036-000521     209158006003000338184HOOK-HANGER 8-HOOK     0000001000+00001753+00000+0001T   00001753+0000001119          1400 AS8212               2AZ
209158007209158075-001003     209158006003000622689HAT LADIES VISOR STYLE 0000001000+00004385+00000+0001T   00004385+0000001119          1400 AS8160               2AZ
209158008209158027-009027     209158006003000235803BROOM FLAT 1.2m HANDLE 0000001000+00004385+00000+0001T   00004385+0000001119          1400 AS8212               2AZ
209158009209158200-003024     209158006001023657299REFUSE BAGS 20PCE BLACK0000001000+00001753+00000+0001T   00001753+0000001119          1400 AS8214               2AZ
209158010209158112-116069     209158006009681820277TCS CARRIER BAG JUMBO  0000001000+00000048+00000+0001T   00000048+0000001119          1400 AS8090               2AZ
209158011209158071-000012     209158006001177101006CHALK COLOUR 12PCE     0000001000+00000481+00000+0001T   00000481+0000001119          1400 AS8130               2AZ
209158012209158036-000013     209158006001246500860LINT REMOVER REFILLS   0000001000+00003946+00000+0001T   00003946+0000001119          1400 AS8212               2AZ
209159000209159               209159               170213OX     1400+00000+OX0000003504+0000003504+000000000+000000492+0000003990+0000000006+I20000000000+0000003990+Z
209159001209159903-000155     209159006009803374435SWT LOLLY I LUV U HEART0000002000+00000525+00000+0001T   00000525+0000001125          1400 AS8150               2AZ
209159002209159903-000519     209159006001704012805SWT MS LIQ-O-GHETTI    0000002000+00001227+00000+0001T   00001227+0000001125          1400 AS8150               2AZ
209160000209160               209160               170213OX     1400+00000+OX0000012848+0000012848+000000000+000001801+0000014649+0000000000+I40000014649+0000000000+Z
209160001209160493-059010     209160000078257590100BEACH-BALL COLOR-PANELS0000003000+00001490+00000+0001T   00001490+0000001139          1400 AS8787               2AZ
209160002209160200-000070     209160006003000677290STRAWS 33cm FLEX 70PCE 0000001000+00001753+00000+0001T   00001753+0000001139          1400 AS8214               2AZ
209160003209160024-000118     209160006001023422316N/STICK C/PAN HEART    0000001000+00004385+00000+0001T   00004385+0000001139          1400 AS8300               2AZ
209160004209160112-116069     209160006009681820277TCS CARRIER BAG JUMBO  0000001000+00000048+00000+0001T   00000048+0000001139          1400 AS8090               2AZ
209160005209160077-000918     209160006003000413690G/WRAP 700mmx2m PATTERN0000001000+00002192+00000+0001T   00002192+0000001139          1400 AS8112               2AZ
209161000209161               209161               170213OX     1400+00000+OX0000007016+0000007016+000000000+000000983+0000007990+0000000009+I20000000000+0000007990+Z
209161001209161562-000070     209161006003000600748EDU PLAY DOUGH 50g 8pc 0000001000+00007016+00000+0001T   00007016+0000001140          1400 AS8755               2AZ
209162000209162               209162               170213OX     1400+00000+OX0000008768+0000008768+000000000+000001229+0000009990+0000000007+I20000000000+0000009990+Z
209162001209162080-000111     209162006003000252695CARD&ENVELPE - MUSICAL 0000001000+00001753+00000+0001T   00001753+0000001154          1400 AS8112               2AZ
209162002209162089-000027     209162006003000254071KEY CHAIN MOM/DAD ASSTD0000001000+00001753+00000+0001T   00001753+0000001154          1400 AS8205               2AZ
209162003209162085-000056     209162006001023602220P/KNIFE 8in1 SWISS     0000001000+00005262+00000+0001T   00005262+0000001154          1400 AS8305               2AZ
209163000209163               209163               170213OX     1400+00000+OX0000000876+0000000876+000000000+000000123+0000000990+0000000009+I20000000000+0000000990+Z
209163001209163084-070005     209163006001023627902NAIL FILES 6PCE H/GLOW 0000001000+00000876+00000+0001T   00000876+0000001156          1400 AS8200               2AZ
209164000209164               209164               170213OX     1400+00000+OX0000001753+0000001753+000000000+000000246+0000001990+0000000009+I20000000000+0000001990+Z
209164001209164464-000114     209164006003000027057DICE 16MM CARD-OF-6    0000001000+00001753+00000+0001T   00001753+0000001204          1400 AS8785               2AZ
209165000209165               209165               170213OX     1400+00000+OX0000005746+0000005746+000000000+000000806+0000006550+0000000002+I20000000000+0000006550+Z
209165001209165077-000011-D   209165006001023808554TISSUE-WRAP WHITE 10PCE0000001000+00000876+00000+0001T   00000876+0000001215          1400 AS8112               2AZ
209165002209165080-000133-A   209165006003000647019MINI VALENTINES CARD   0000001000+00000437+00000+0001T   00000437+0000001215          1400 AS8112               2AZ
209165003209165001-000175     209165006001023788108B/MUG GLS LOVE 380ML   0000001000+00004385+00000+0001T   00004385+0000001215          1400 AS8515               2AZ
209165004209165112-116069     209165006009681820277TCS CARRIER BAG JUMBO  0000001000+00000048+00000+0001T   00000048+0000001215          1400 AS8090               2AZ
209166000209166               209166               170213OX     1400+00000+OX0000003506+0000003506+000000000+000000492+0000003990+0000000008+I20000000000+0000003990+Z
209166001209166306-007302     209166006001023730954BACK-SCRATCH+MASSAGE-WH0000002000+00001753+00000+0001T   00001753+0000001218          1400 AS8200               2AZ
209167000209167               209167               170213OX     1400+00000+OX0000019778+0000019778+000000000+000002772+0000022550+0000000000+I40000022550+0000000000+Z
209167001209167077-000270     209167006003000395453GIFT-BAG PPR JMB 33X45 0000001000+00002630+00000+0001T   00002630+0000001221          1400 AS8112               2AZ
209167002209167301-085007     209167006003000673698ORN OCC. LOVE S/PLAQUE 0000001000+00007893+00000+0001T   00007893+0000001221          1400 AS8505               2AZ
209167003209167030-000031-A   209167006003000457588PLAQUE W/WORDS ASSTD   0000001000+00004385+00000+0001T   00004823+0006471221          1400 AS8505               2AZ
209167004209167080-000127     209167006003000424351VALENTINES DAY 36x24CM 0000001000+00002192+00000+0001T   00002192+0000001221          1400 AS8112               2AZ
209167005209167083-000058     209167006003000400331LIGHTER JET CIGAR REFIL0000001000+00002630+00000+0001T   00002630+0000001221          1400 AS8315               2AZ
209167006209167112-116069     209167006009681820277TCS CARRIER BAG JUMBO  0000001000+00000048+00000+0001T   00000048+0000001221          1400 AS8090               2AZ
209168000209168               209168               170213OX     1400+00000+OX0000006489+0000006489+000000000+000000909+0000007398+0000000000+I40000007398+0000000000+Z
209168001209168033-000013     209168006001023567215PILL-REMINDER PL       0000001000+00001227+00000+0001T   00001227+0000001224          1400 AS8200               2AZ
209168002209168174-000004     209168006003000583317SHOE BAG 9-POCKETS     0000001000+00005262+00000+0001T   00005262+0000001224          1400 AS8205               2AZ
209169000209169               209169               170213OX     1400+00000+OX0000003975+0000003975+000000000+000000560+0000004535+0000000000+I40000004535+0000000000+Z
209169001209169080-000133-A   209169006003000647019MINI VALENTINES CARD   0000004000+00000437+00000+0001T   00000437+0000001227          1400 AS8112               2AZ
209169002209169566-000359     209169006003000582709STICKER BOOK LOVE SPARK0000001000+00002192+00000+0001T   00002192+0000001227          1400 AS8130               2AZ
209169003209169112-116038     209169006009681820246TCS CARRIER BAG MIDI   0000001000+00000035+00000+0001T   00000035+0000001227          1400 AS8090               2AZ
209170000209170               209170               170213OX     1400+00000+OX0000003809+0000003809+000000000+000000537+0000004340+0000000006+I20000000000+0000004340+Z
209170001209170103-000215     209170006003000568635BASKET WICKER/IRON     0000001000+00002630+00000+0001T   00002630+0000001228          1400 AS8300               2AZ
209170002209170903-000183     209170006003000451043SWT LB HEART LOLLY     0000003000+00000393+00000+0001T   00000393+0000001228          1400 AS8150               2AZ
209171000209171               209171               170213OX     1400+00000+OX0000006137+0000006137+000000000+000000860+0000006990+0000000007+I20000000000+0000006990+Z
209171001209171563-000317-G   209171006001023776341SERVIETTES BRIGHT ASSTD0000001000+00002630+00000+0001T   00002630+0000001324          1400 AT1214               2AZ
209171002209171038-001800     209171006003000623303DOILIE PAPER HRT 24PC  0000001000+00003507+00000+0001T   00003507+0000001324          1400 AT1300               2AZ
209172000209172               209172               170213OX     1400+00000+OX0000004029+0000004029+000000000+000000566+0000004590+0000000005+I20000000000+0000004590+Z
209172001209172039-081560     209172006003000462988C/SET 2PC STAR-CANDLE  0000001000+00001051+00000+0001T   00001402+0008171330          1400 AT1510               2AZ
209172002209172040-000213     209172006001023617736CANDLE-HOLDER DAISY    0000001000+00001227+00000+0001T   00001227+0000001330          1400 AT1510               2AZ
209172003209172039-000026     209172006001023551610C/TAPERED 25CM M/RED   0000001000+00001051+00000+0001T   00001051+0000001330          1400 AT1510               2AZ
209172004209172088-000103     209172006008766127102INCENSE 20PCE ASSTD    0000001000+00000700+00000+0001T   00000700+0000001330          1400 AT1212               2AZ
209173000209173               209173               170213OX     1400+00000+OX0000006139-0000006139-000000000+000000860-0000007000-0000000001+I20000000000+0000007000-Z
209173001209173051-600638     209173006003000421909PLANTER W/TRAY 50x21x140000001000-00006139+00000+0001T   00006139+0000001335          1400 AS88202IC            2 Z
209174000209174               209174               170213OX     1400+00000+OX0000002630+0000002630+000000000+000000369+0000002999+0000000000+I40000002999+0000000000+Z
209174001209174006-000203-A   209174006003453010965SNACK BOX 6PCE ASSTD   0000001000+00002630+00000+0001T   00002630+0000001344          1400 AS8131               2AZ
209175000209175               209175               170213OX     1400+00000+OX0000000048+0000000048+000000000+000000007+0000000050+0000000005+I20000000000+0000000050+Z
209175001209175112-116069     209175006009681820277TCS CARRIER BAG JUMBO  0000001000+00000048+00000+0001T   00000048+0000001345          1400 AS8090               2AZ
209176000209176               209176               170213OX     1400+00000+OX0000039895+0000039895+000000000+000005591+0000045480+0000000006+I20000000000+0000045480+Z
209176001209176089-060028     209176006003000431199KEY CHAIN HEART/LIPS   0000001000+00001753+00000+0001T   00001753+0000001354          1400 AS8205               2AZ
209176002209176037-000002     209176006001023994745ASHTRAY SPIN METAL 9cm 0000001000+00003507+00000+0001T   00003507+0000001354          1400 AS8515               2AZ
209176003209176301-007015     209176006003000394166ORN MINI BLACKBOARD 8PC0000001000+00003069+00000+0001T   00003069+0000001354          1400 AS8505               2AZ
209176004209176566-000356     209176006003000582341STICKER ROOM WHITEBOARD0000001000+00003507+00000+0001T   00004385+0008151354          1400 AS8130               2AZ
209176005209176077-000358     209176006003000329977GIFT-BAG KIDS 25X32CM  0000001000+00001753+00000+0001T   00001753+0000001354          1400 AS8112               2AZ
209176006209176024-091103-B   209176006003000422548CAKE BOX 6PC CUPCAKES  0000001000+00002630+00000+0001T   00002630+0000001354          1400 AS8300               2AZ
209176007209176566-000313     209176006003000523016STICKERS DECOR MIRRORS 0000001000+00002630+00000+0001T   00002630+0000001354          1400 AS8130               2AZ
209176008209176084-009407     209176006001023861726SCISSORS 13cm MTL PL-H 0000001000+00001753+00000+0001T   00001753+0000001354          1400 AS8200               2AZ
209176009209176079-000271     209176006003000160082PAINT-BRUSHES LRGE ART 0000001000+00003069+00000+0001T   00003069+0000001354          1400 AS8130               2AZ
209176010209176024-000173     209176006003000504541SILICONE BAKING MAT    0000001000+00006139+00000+0001T   00006139+0000001354          1400 AS8300               2AZ
209176011209176301-085001     209176006003000297610ORN WATERBALL LOVE ASST0000001000+00004823+00000+0001T   00004823+0000001354          1400 AS8505               2AZ
209176012209176018-019000     209176006003000557288MUG OCC. LOVE JUMBO    0000001000+00005262+00000+0001T   00005262+0000001354          1400 AS8515               2AZ
209177000209177               209177               170213OX     1400+00000+OX0000001490+0000001490+000000000+000000209+0000001690+0000000009+I20000000000+0000001690+Z
209177001209177039-000108     209177006001023524034TEA-LITE CANDLES 8PCE  0000001000+00001490+00000+0001T   00001490+0000001355          1400 AS8510               2AZ
209178000209178               209178               170213OX     1400+00000+OX0000005259+0000005259+000000000+000000738+0000005997+0000000000+I40000005997+0000000000+Z
209178001209178007-000184     209178006003000135424NOTEBOOK               0000003000+00001753+00000+0001T   00001753+0000001402          1400 AS8130               2AZ
209179000209179               209179               170213OX     1400+00000+OX0000011223+0000011223+000000000+000001573+0000012796+0000000000+I40000012796+0000000000+Z
209179001209179027-000852     209179006003000431007MOP TWIST HANDLE 1.3M  0000001000+00008771+00000+0001T   00008771+0000001410          1400 AS8212               2AZ
209179002209179903-000155     209179006009803374435SWT LOLLY I LUV U HEART0000001000+00000525+00000+0001T   00000525+0000001410          1400 AS8150               2AZ
209179003209179080-000133-A   209179006003000647019MINI VALENTINES CARD   0000001000+00000437+00000+0001T   00000437+0000001410          1400 AS8112               2AZ
209179004209179077-000299     209179006003000395576G/BAG 32x25cm LRG LOVE 0000001000+00001490+00000+0001T   00001490+0000001410          1400 AS8112               2AZ
209180000209180               209180               170213OX     1400+00000+OX0000002980+0000002980+000000000+000000418+0000003390+0000000008+I20000000000+0000003390+Z
209180001209180565-004101     209180006003000548033BALL BOUNCING EGG      0000002000+00001490+00000+0001T   00001490+0000001413          1400 AS8745               2AZ
209181000209181               209181               170213OX     1400+00000+OX0000008331+0000008331+000000000+000001167+0000009490+0000000008+I20000000000+0000009490+Z
209181001209181162-097723     209181006001492977232#TAG OWL PENDANT NK    0000001000+00006139+00000+0001T   00006139+0000001414          1400 AS8160               2AZ
209181002209181566-000359     209181006003000582709STICKER BOOK LOVE SPARK0000001000+00002192+00000+0001T   00002192+0000001414          1400 AS8130               2AZ
209182000209182               209182               170213OX     1400+00000+OX0000004382+0000004382+000000000+000000615+0000004990+0000000007+I20000000000+0000004990+Z
209182001209182079-013099     209182006003000081875ART+CRAFT EYES ASSTD   0000001000+00001753+00000+0001T   00001753+0000001417          1400 AS8130               2AZ
209182002209182079-000807     209182006003000670277ART+CRAFT WOODEN STICKS0000001000+00001490+00000+0001T   00001490+0000001417          1400 AS8130               2AZ
209182003209182903-000087     209182006001704000161SWT SPECKLED-EGGS 50G  0000001000+00001139+00000+0001T   00001139+0000001417          1400 AS8150               2AZ
209183000209183               209183               170213OX     1400+00000+OX0000012318+0000012318+000000000+000001729+0000014047+0000000000+I40000014047+0000000000+Z
209183001209183071-005678     209183006001023496294PUNCH 2 HOLE           0000001000+00002630+00000+0001T   00002630+0000001423          1400 AS8130               2AZ
209183002209183071-002896     209183006003000144129CALCULATOR MINI 8 DIGIT0000001000+00002630+00000+0001T   00002630+0000001423          1400 AS8130               2AZ
209183003209183071-005669     209183006003000153268STAPLER MINI W/STAPLES 0000001000+00002630+00000+0001T   00002630+0000001423          1400 AS8130               2AZ
209183004209183007-000045     209183006009608640438DISPLAY-POCKETS A4 10PC0000004000+00000876+00000+0001T   00000876+0000001423          1400 AS8130               2AZ
209183005209183903-000520     209183006001704009898SWT GUMMY MINI SOUR 60g0000001000+00000876+00000+0001T   00000876+0000001423          1400 AS8150               2AZ
209183006209183112-116069     209183006009681820277TCS CARRIER BAG JUMBO  0000001000+00000048+00000+0001T   00000048+0000001423          1400 AS8090               2AZ
209184000209184               209184               170213OX     1400+00000+OX0000013199+0000013199+000000000+000001849+0000015040+0000000008+I20000000000+0000015040+Z
209184001209184031-005853     209184006003000442416P/FRAME WDN TWIN HEARTS0000002000+00003507+00000+0001T   00003507+0000001426          1400 AS8510               2AZ
209184002209184018-000136     209184006001023659026MUG OCC LOVE W/PLUSH   0000001000+00003507+00000+0001T   00003507+0000001426          1400 AS8515               2AZ
209184003209184565-000040     209184006008766115635NOVELTY ICON BEANIE    0000001000+00002630+00000+0001T   00002630+0000001426          1400 AS8745               2AZ
209184004209184112-116069     209184006009681820277TCS CARRIER BAG JUMBO  0000001000+00000048+00000+0001T   00000048+0000001426          1400 AS8090               2AZ
209185000209185               209185               170213OX     1400+00000+OX0000004385+0000004385+000000000+000000614+0000004990+0000000009+I20000000000+0000004990+Z
209185001209185031-080508     209185006001023802415P/FRAME PL 22X11CM LOVE0000001000+00004385+00000+0001T   00004385+0000001427          1400 AS8510               2AZ
209186000209186               209186               170213OX     1400+00000+OX0000002630+0000002630+000000000+000000369+0000002990+0000000009+I20000000000+0000002990+Z
209186001209186051-005578     209186006001023534118GARDEN-WEEDER 275mm    0000001000+00002630+00000+0001T   00002630+0000001428          1400 AS8820               2AZ
209187000209187               209187               170213OX     1400+00000+OX0000007016+0000007016+000000000+000000983+0000007990+0000000009+I20000000000+0000007990+Z
209187001209187105-001069     209187006003000629084CONTAINER CLIP LOCK    0000001000+00007016+00000+0001T   00007016+0000001428          1400 AS8210               2AZ
209188000209188               209188               170213OX     1400+00000+OX0000007884+0000007884+000000000+000001104+0000008980+0000000008+I20000000000+0000008980+Z
209188001209188006-000166-D   209188006003000516490BALLOONS LRG 6PC RED   0000006000+00001314+00000+0001T   00001314+0000001433          1400 AS81312IC            2AZ
209189000209189               209189               170213OX     1400+00000+OX0000007714+0000007714+000000000+000001081+0000008795+0000000000+I40000008795+0000000000+Z
209189001209189566-000321     209189006003000423019STICKER R/DEC BALLERINA0000001000+00005262+00000+0001T   00005262+0000001438          1400 AS8130               2AZ
209189002209189105-007555     209189006003000485796STORAGE BOX CLEAR NICHE0000004000+00009648+00000+0001T   00009648+0000001438          1400 AS82102IC            2AZ
209189003209189903-000709     209189006002099007070SWT QUENCHERS FRUIT    0000001000+00001139+00000+0001T   00001139+0000001438          1400 AS8150               2AZ
209189004209189018-000177     209189006001023797513MUG MINI LOVE ASSTD    0000001000+00000700+00000+0001T   00000700+0000001438          1400 AS8515               2AZ
209189005209189105-007555     209189006003000485796STORAGE BOX CLEAR NICHE0000004000-00009648+00000+0001T   00009648+0000001438          1400 AS82102IC            2 Z
209189006209189903-000849     209189008692806080083SWT SNACK BISCUIT 70g  0000001000+00000613+00000+0001T   00000613+0000001438          1400 AS8150               2AZ
209190000209190               209190               170213OX     1400+00000+OX0000022560+0000022560+000000000+000003173+0000025733+0000000000+I40000025733+0000000000+Z
209190001209190082-000122-E   209190006003000405473R/GLASS STRENGTH:3     0000001000+00005262+00000+0001T   00005262+0000001445          1400 AS8160               2AZ
209190002209190566-000200     209190006003000384174STICKER PUFFY NEON     0000002000+00000876+00000+0001T   00000876+0000001445          1400 AS8130               2AZ
209190003209190004-071216     209190006003000239900MOBILE PHONE CHARM ASST0000002000+00000876+00000+0001T   00000876+0000001445          1400 AS8310               2AZ
209190004209190903-000155     209190006009803374435SWT LOLLY I LUV U HEART0000006000+00000525+00000+0001T   00000525+0000001445          1400 AS8150               2AZ
209190005209190903-000183     209190006003000451043SWT LB HEART LOLLY     0000006000+00000393+00000+0001T   00000393+0000001445          1400 AS8150               2AZ
209190006209190007-000546     209190006001023847935NOTEBOOK 4PCE ASSTD DES0000001000+00002630+00000+0001T   00002630+0000001445          1400 AS8130               2AZ
209190007209190112-116069     209190006009681820277TCS CARRIER BAG JUMBO  0000001000+00000048+00000+0001T   00000048+0000001445          1400 AS8090               2AZ
209190008209190304-001204     209190006001023737984FLOWER OCC. TEDDY/ROSES0000004000+00001402+00000+0001T   00001490+0006471445          1400 AS8510               2AZ
209191000209191               209191               170213OX     1400+00000+OX0000000613+0000000613+000000000+000000086+0000000690+0000000009+I20000000000+0000000690+Z
209191001209191033-005994     209191006001023789570SEWING-NEEDLES 16PCE   0000001000+00000613+00000+0001T   00000613+0000001447          1400 AS8200               2AZ
209192000209192               209192               170213OX     1400+00000+OX0000017759+0000017759+000000000+000002490+0000020240+0000000009+I20000000000+0000020240+Z
209192001209192368-000111     209192006001023780812PLUSH BEAR/DOG 29CM    0000001000+00012279+00000+0001T   00012279+0000001448          1400 AS8745               2AZ
209192002209192304-001011     209192006001023806727FLWR ROSE RED W/BEAR   0000002000+00000613+00000+0001T   00000788+0006471448          1400 AS8510               2AZ
209192003209192304-001204     209192006001023737984FLOWER OCC. TEDDY/ROSES0000003000+00001402+00000+0001T   00001490+0006471448          1400 AS8510               2AZ
209192004209192112-116069     209192006009681820277TCS CARRIER BAG JUMBO  0000001000+00000048+00000+0001T   00000048+0000001448          1400 AS8090               2AZ
209193000209193               209193               170213OX     1400+00000+OX0000094712+0000094712+000000000+000013267+0000107979+0000000000+I40000107979+0000000000+Z
209193001209193080-000127     209193006003000424351VALENTINES DAY 36x24CM 0000002000+00002192+00000+0001T   00002192+0000001458          1400 AS8112               2AZ
209193002209193369-000242     209193006003000596935BABY TOY MUSICAL B/O   0000001000+00013157+00000+0001T   00013157+0000001458          1400 AS8745               2AZ
209193003209193065-003636     209193006003000231997MICROPHONE SINGER      0000001000+00008771+00000+0001T   00008771+0000001458          1400 AS8745               2AZ
209193004209193365-000078     209193006003000649259DOLL HOUSE W/ACCESORIES0000001000+00009648+00000+0001T   00009648+0000001458          1400 AS8725               2AZ
209193005209193088-000082     209193006001023798008P/POURRI SACHETS 5x10ml0000001000+00002630+00000+0001T   00002630+0000001458          1400 AS8212               2AZ
209193006209193077-000330     209193006001023745408GIFT-BAG 18X23CM WEDGE 0000001000+00001753+00000+0001T   00001753+0000001458          1400 AS8112               2AZ
209193007209193903-000095     209193006001704011495SWT SPECKLED-EGGS 100G 0000001000+00002104+00000+0001T   00002104+0000001458          1400 AS8150               2AZ
209193008209193071-001102     209193006003000274598MARKER PERM MED 2PCE   0000001000+00001753+00000+0001T   00001753+0000001458          1400 AS8130               2AZ
209193009209193362-001103     209193006001023793515JWLRY GRL ASS 2PC ASSTD0000001000+00001753+00000+0001T   00001753+0000001458          1400 AS8160               2AZ
209193010209193071-003201     209193006003000274673STATION SET PEN/PENCIL 0000001000+00005262+00000+0001T   00005262+0000001458          1400 AS8130               2AZ
209193011209193007-000160     209193006009685857286NOTE-BOOK A5 SHORTHAND 0000002000+00001227+00000+0001T   00001227+0000001458          1400 AS8130               2AZ
209193012209193030-000031-A   209193006003000457588PLAQUE W/WORDS ASSTD   0000001000+00004385+00000+0001T   00004823+0006471458          1400 AS8505               2AZ
209193013209193031-000844     209193006001023851789P/FRAME WDN WORDS 2ASS 0000001000+00003507+00000+0001T   00003507+0000001458          1400 AS8510               2AZ
209193014209193031-000002-A   209193006003000247103P/FRAME LOVE 7.5X7.5CM 0000001000+00003507+00000+0001T   00003507+0000001458          1400 AS8510               2AZ
209193015209193200-000092     209193006003000576739PICNIC PAPER PLATES 23c0000003000+00001227+00000+0001T   00001227+0000001458          1400 AS8214               2AZ
209193016209193200-000205     209193006008766127027BAKEPANS 36PCE (PIE)   0000001000+00003507+00000+0001T   00003507+0000001458          1400 AS8214               2AZ
209193017209193018-000136     209193006001023659026MUG OCC LOVE W/PLUSH   0000001000+00003507+00000+0001T   00003507+0000001458          1400 AS8515               2AZ
209193018209193077-000005-B   209193006003000326617PAPER TISSUE PATTERN   0000001000+00002630+00000+0001T   00002630+0000001458          1400 AS8112               2AZ
209193019209193077-000011-E   209193006001023808646TISSUE-WRAP PINK 10PCE 0000001000+00000876+00000+0001T   00000876+0000001458          1400 AS8112               2AZ
209193020209193566-000323     209193006003000535958STICKER ROOM DEC TOWER 0000003000+00004385+00000+0001T   00004385+0000001458          1400 AS8130               2AZ
209193021209193046-000012-A   209193006003000208296BATTERIES H/POWER SZ:AA0000001000+00002192+00000+0001T   00002192+0000001458          1400 AS8312               2AZ
209193022209193112-116069     209193006009681820277TCS CARRIER BAG JUMBO  0000002000+00000048+00000+0001T   00000048+0000001458          1400 AS8090               2AZ
209194000209194               209194               170213OX     1400+00000+OX0000008815+0000008815+000000000+000001236+0000010051+0000000000+I40000010051+0000000000+Z
209194001209194046-000002     209194006001023585202BATTERIES SIZE:C   2PCE0000002000+00001753+00000+0001T   00001753+0000001501          1400 AS8312               2AZ
209194002209194266-000207     209194006001023708823GLIDER JET LAUNCHER    0000001000+00004385+00000+0001T   00004385+0000001501          1400 AS8710               2AZ
209194003209194903-000503     209194006001704006118SWT VAMPIRE FANGS 60G  0000001000+00000876+00000+0001T   00000876+0000001501          1400 AS8150               2AZ
209194004209194112-116069     209194006009681820277TCS CARRIER BAG JUMBO  0000001000+00000048+00000+0001T   00000048+0000001501          1400 AS8090               2AZ
209195000209195               209195               170213OX     1400+00000+OX0000008771+0000008771+000000000+000001228+0000009990+0000000009+I20000000000+0000009990+Z
209195001209195027-000230     209195006001023606198MOP COMPLETE WONDERMOP 0000001000+00008771+00000+0001T   00008771+0000001502          1400 AS8212               2AZ
209196000209196               209196               170213OX     1400+00000+OX0000008288+0000008288+000000000+000001163+0000009451+0000000000+I40000009451+0000000000+Z
209196001209196030-000031-A   209196006003000457588PLAQUE W/WORDS ASSTD   0000001000+00004385+00000+0001T   00004823+0006471511          1400 AS8505               2AZ
209196002209196903-000614     209196006003000617333SWT PLIERS TWISTER 17cm0000001000+00001753+00000+0001T   00001753+0000001511          1400 AS8150               2AZ
209196003209196079-009702-B   209196008427973059491PAPER SIRIO A2 WHITE   0000001000+00001051+00000+0001T   00001051+0000001511          1400 AS8130               2AZ
209196004209196079-009702-D   209196008427973059354PAPER SIRIO A2 RED COL 0000001000+00001051+00000+0001T   00001051+0000001511          1400 AS8130               2AZ
209196005209196112-116069     209196006009681820277TCS CARRIER BAG JUMBO  0000001000+00000048+00000+0001T   00000048+0000001511          1400 AS8090               2AZ
209197000209197               209197               170213OX     1400+00000+OX0000001753+0000001753+000000000+000000246+0000001990+0000000009+I20000000000+0000001990+Z
209197001209197078-000470     209197006007347000018SHOE-CEMENT 70ml-TIN   0000001000+00001753+00000+0001T   00001753+0000001511          1400 AS8810               2AZ
209198000209198               209198               170213OX     1400+00000+OX0000003156+0000003156+000000000+000000442+0000003598+0000000000+I40000003598+0000000000+Z
209198001209198077-000315     209198006003000181186GIFT-BAG 20x28cm MATT  0000002000+00001578+00000+0001T   00001578+0000001512          1400 AS8112               2AZ
209199000209199               209199               170213OX     1400+00000+OX0000010133+0000010133+000000000+000001420+0000011550+0000000003+I20000000000+0000011550+Z
209199001209199082-000126     209199006003000646517READING GLASS TWIN 2.5 0000001000+00007893+00000+0001T   00007893+0000001514          1400 AS8160               2AZ
209199002209199080-000127     209199006003000424351VALENTINES DAY 36x24CM 0000001000+00002192+00000+0001T   00002192+0000001514          1400 AS8112               2AZ
209199003209199112-116069     209199006009681820277TCS CARRIER BAG JUMBO  0000001000+00000048+00000+0001T   00000048+0000001514          1400 AS8090               2AZ
209200000209200               209200               170213OX     1400+00000+OX0000003507+0000003507+000000000+000000491+0000003998+0000000000+I40000003998+0000000000+Z
209200001209200007-000713     209200006003000227273NOTE-BK DIARY W/LOCK   0000001000+00003507+00000+0001T   00003507+0000001519          1400 AS8130               2AZ
209201000209201               209201               170213OX     1400+00000+OX0000005875+0000005875+000000000+000000823+0000006698+0000000000+I40000006698+0000000000+Z
209201001209201077-000299     209201006003000395576G/BAG 32x25cm LRG LOVE 0000001000+00001490+00000+0001T   00001490+0000001520          1400 AS8112               2AZ
209201002209201006-000190     209201006003000685530BALLOONS LOVE 81x91cm  0000001000+00004385+00000+0001T   00004385+0000001520          1400 AS8131               2AZ
209202000209202               209202               170213OX     1400+00000+OX0000011568+0000011568+000000000+000001620+0000013180+0000000008+I20000000000+0000013180+Z
209202001209202200-000100     209202006001023764003CUPS 25PCE DISPOSABLE  0000006000+00001928+00000+0001T   00001928+0000001535          1400 AS8214               2AZ
209203000209203               209203               170213OX     1400+00000+OX0000010572+0000010572+000000000+000001481+0000012053+0000000000+I40000012053+0000000000+Z
209203001209203368-000614     209203006001023705808PLUSH LOVE 30cm        0000001000+00008771+00000+0001T   00008771+0000001545          1400 AS8745               2AZ
209203002209203077-000115     209203006001023834225WRAP METALLIC 700mmx1m 0000001000+00001753+00000+0001T   00001753+0000001545          1400 AS8112               2AZ
209203003209203112-116069     209203006009681820277TCS CARRIER BAG JUMBO  0000001000+00000048+00000+0001T   00000048+0000001545          1400 AS8090               2AZ
209204000209204               209204               170213OX     1400+00000+OX0000005262+0000005262+000000000+000000737+0000005990+0000000009+I20000000000+0000005990+Z
209204001209204301-085003     209204006003000420827ORN OCCASION LOVE KEY  0000001000+00005262+00000+0001T   00005262+0000001548          1400 AS8505               2AZ
209205000209205               209205               170213OX     1400+00000+OX0000003067+0000003067+000000000+000000430+0000003490+0000000007+I20000000000+0000003490+Z
209205001209205077-000011     209205006003000542352PAPER RAFFIA ASSTD COL 0000001000+00001753+00000+0001T   00001753+0000001602          1400 AS8112               2AZ
209205002209205006-000166-D   209205006003000516490BALLOONS LRG 6PC RED   0000001000+00001314+00000+0001T   00001314+0000001602          1400 AS8131               2AZ
209206000209206               209206               170213OX     1400+00000+OX0000004381+0000004381+000000000+000000615+0000004990+0000000006+I20000000000+0000004990+Z
209206001209206301-085004     209206006003000420469ORN LOVE PLAQUE 21X10CM0000001000+00003507+00000+0001T   00003946+0006471604          1400 AS8505               2AZ
209206002209206080-000133-A   209206006003000647019MINI VALENTINES CARD   0000002000+00000437+00000+0001T   00000437+0000001604          1400 AS8112               2AZ
209207000209207               209207               170213OX     1400+00000+OX0000000788+0000000788+000000000+000000111+0000000899+0000000000+I40000000899+0000000000+Z
209207001209207071-081101-A   209207006003000326549GLUE-STICK 25g BLISTER 0000001000+00000788+00000+0001T   00000788+0000001610          1400 AS8130               2AZ
209208000209208               209208               170213OX     1400+00000+OX0000010040+0000010040+000000000+000001408+0000011448+0000000000+I40000011448+0000000000+Z
209208001209208368-000111     209208006001023780812PLUSH BEAR/DOG 29CM    0000001000+00012279+00000+0001T   00012279+0000001615          1400 AS8745               2AZ
209208002209208031-000002-A   209208006003000247103P/FRAME LOVE 7.5X7.5CM 0000001000+00003507+00000+0001T   00003507+0000001615          1400 AS8510               2AZ
209208003209208903-000155     209208006009803374435SWT LOLLY I LUV U HEART0000004000+00000525+00000+0001T   00000525+0000001615          1400 AS8150               2AZ
209208004209208112-116069     209208006009681820277TCS CARRIER BAG JUMBO  0000001000+00000048+00000+0001T   00000048+0000001615          1400 AS8090               2AZ
209208005209208368-000111     209208006001023780812PLUSH BEAR/DOG 29CM    0000001000-00012279+00000+0001T   00012279+0000001615          1400 AS87452IC            2 Z
209208006209208368-000049     209208006003000536955PLUSH BEAR 15cm LOVE   0000001000+00004385+00000+0001T   00004385+0000001615          1400 AS8745               2AZ
209209000209209               209209               170213OX     1400+00000+OX0000002628+0000002628+000000000+000000368+0000002990+0000000006+I20000000000+0000002990+Z
209209001209209006-000166-H   209209006003000608096BALLOONS HELIUM 6PC WHT0000001000+00001314+00000+0001T   00001314+0000001621          1400 AS8131               2AZ
209209002209209006-000166-D   209209006003000516490BALLOONS LRG 6PC RED   0000001000+00001314+00000+0001T   00001314+0000001621          1400 AS8131               2AZ
209210000209210               209210               170213OX     1400+00000+OX0000022132+0000022132+000000000+000003105+0000025237+0000000000+I40000025237+0000000000+Z
209210001209210006-000852     209210006009645927349PARTY LUCKY-PCKT UNISEX0000001000+00003946+00000+0001T   00003946+0000001628          1400 AS8131               2AZ
209210002209210006-000851     209210006009645926625PARTY LUCKY-PACKET BOY 0000001000+00003946+00000+0001T   00003946+0000001628          1400 AS8131               2AZ
209210003209210006-000850     209210006009645922856PARTY LUCKY-PACKET GIRL0000002000+00003946+00000+0001T   00003946+0000001628          1400 AS8131               2AZ
209210004209210903-000077     209210006939873501687SWT GS MAGIC ROCK FRUIT0000008000+00000525+00000+0001T   00000525+0000001628          1400 AS8150               2AZ
209210005209210564-000012     209210006001023130075BUBBLE BOTTLE MAGIC    0000003000+00000700+00000+0001T   00000700+0000001628          1400 AS8131               2AZ
209210006209210112-116069     209210006009681820277TCS CARRIER BAG JUMBO  0000001000+00000048+00000+0001T   00000048+0000001628          1400 AS8090               2AZ
209211000209211               209211               170213OX     1400+00000+OX0000001753+0000001753+000000000+000000246+0000001990+0000000009+I20000000000+0000001990+Z
209211001209211304-001512     209211006003000036202FLOWER S/FLOWER 65CM   0000001000+00001753+00000+0001T   00001753+0000001634          1400 AS8510               2AZ
209212000209212               209212               170213OX     1400+00000+OX0000002630+0000002630+000000000+000000369+0000002990+0000000009+I20000000000+0000002990+Z
209212001209212079-013101     209212006001023863706CRAFT SET DIY PIPE-CLNR0000001000+00002630+00000+0001T   00002630+0000001635          1400 AS8130               2AZ
209213000209213               209213               170213OX     1400+00000+OX0000001490+0000001490+000000000+000000209+0000001690+0000000009+I20000000000+0000001690+Z
209213001209213077-000299     209213006003000395576G/BAG 32x25cm LRG LOVE 0000001000+00001490+00000+0001T   00001490+0000001636          1400 AS8112               2AZ
209214000209214               209214               170213OX     1400+00000+OX0000003507+0000003507+000000000+000000491+0000003990+0000000008+I20000000000+0000003990+Z
209214001209214018-005009     209214006001023725608MUG W/PLUSH-BEAR LOVE  0000001000+00003507+00000+0001T   00003507+0000001638          1400 AS8515               2AZ
209215000209215               209215               170213OX     1400+00000+OX0000004243+0000004243+000000000+000000595+0000004830+0000000008+I20000000000+0000004830+Z
209215001209215077-000005-B   209215006003000326617PAPER TISSUE PATTERN   0000001000+00002630+00000+0001T   00002630+0000001639          1400 AS8112               2AZ
209215002209215077-000303     209215006001023593757GIFT-BAG PAPER MED     0000001000+00001578+00000+0001T   00001578+0000001639          1400 AS8112               2AZ
209215003209215112-116038     209215006009681820246TCS CARRIER BAG MIDI   0000001000+00000035+00000+0001T   00000035+0000001639          1400 AS8090               2AZ
209216000209216               209216               170213OX     1400+00000+OX0000007015+0000007015+000000000+000000983+0000007998+0000000000+I40000007998+0000000000+Z
209216001209216016-006425     209216006001023998170S/JAR GLS CLIP W/RIBBON0000001000+00002630+00000+0001T   00002630+0000001643          1400 AS8300               2AZ
209216002209216002-000709     209216006003000674176C/BOARD SLATE ROUND 25C0000001000+00004385+00000+0001T   00004385+0000001643          1400 AS8300               2AZ
209217000209217               209217               170213OX     1400+00000+OX0000001488+0000001488+000000000+000000209+0000001690+0000000007+I20000000000+0000001690+Z
209217001209217903-000121     209217006002099001689SWT GS ZILLIONS SOURS  0000001000+00000700+00000+0001T   00000700+0000001643          1400 AS8150               2AZ
209217002209217033-005991     209217006001023678546NEEDLES H/HOLD-REPAIR  0000001000+00000788+00000+0001T   00000788+0000001643          1400 AS8200               2AZ
209218000209218               209218               170213OX     1400+00000+OX0000004385+0000004385+000000000+000000614+0000004990+0000000009+I20000000000+0000004990+Z
209218001209218001-000175     209218006001023788108B/MUG GLS LOVE 380ML   0000001000+00004385+00000+0001T   00004385+0000001644          1400 AS8515               2AZ
209219000209219               209219               170213OX     1400+00000+OX0000000035+0000000035+000000000+000000005+0000000040+0000000000+I20000000000+0000000040+Z
209219001209219112-116038     209219006009681820246TCS CARRIER BAG MIDI   0000001000+00000035+00000+0001T   00000035+0000001644          1400 AS8090               2AZ
209220000209220               209220               170213OX     1400+00000+OX0000007921+0000007921+000000000+000001112+0000009033+0000000000+I40000009033+0000000000+Z
209220001209220562-000504     209220006001023619327EDU CUBE RUBIX         0000001000+00002630+00000+0001T   00002630+0000001649          1400 AS8755               2AZ
209220002209220464-008106     209220006003000611966GAME 3 IN 1 CHESS      0000001000-00008771+00000+0001T   00008771+0000001649          1400 AS87852IC            2AZ
209220003209220464-008106     209220006003000611966GAME 3 IN 1 CHESS      0000001000+00008771+00000+0001T   00008771+0000001649          1400 AS87852IC            2AZ
209220004209220562-000504     209220006001023619327EDU CUBE RUBIX         0000001000-00002630+00000+0001T   00002630+0000001649          1400 AS87552IC            2 Z
209220005209220018-000170     209220006001023775528MUG OCC. LOVE 2PC MINI 0000001000+00002192+00000+0001T   00002192+0000001649          1400 AS8515               2AZ
209220006209220263-000559     209220006003000671908VEHICLE TAPE 5m 4.8cm  0000001000+00003069+00000+0001T   00003069+0000001649          1400 AS8710               2AZ
209220007209220903-000844     209220005010478432567SWT CANDY DL LUV HEARTS0000001000+00001314+00000+0001T   00001314+0000001649          1400 AS8150               2AZ
209220008209220903-000094     209220006923431501622SWT GS CANDY NECKLACE  0000003000+00000437+00000+0001T   00000437+0000001649          1400 AS8150               2AZ
209220009209220112-116038     209220006009681820246TCS CARRIER BAG MIDI   0000001000+00000035+00000+0001T   00000035+0000001649          1400 AS8090               2AZ
209221000209221               209221               170213OX     1400+00000+OX0000001753+0000001753+000000000+000000246+0000001990+0000000009+I20000000000+0000001990+Z
209221001209221077-000239     209221006003000160419GIFT-RIBBON ROLL PEARL 0000001000+00001753+00000+0001T   00001753+0000001650          1400 AS8112               2AZ
209222000209222               209222               170213OX     1400+00000+OX0000012314+0000012314+000000000+000001725+0000014039+0000000000+I40000014039+0000000000+Z
209222001209222368-000113     209222006001023780874PLUSH BLINGED LOVE 30cm0000001000+00012279+00000+0001T   00012279+0000001651          1400 AS8745               2AZ
209222002209222112-116038     209222006009681820246TCS CARRIER BAG MIDI   0000001000+00000035+00000+0001T   00000035+0000001651          1400 AS8090               2AZ
209223000209223               209223               170213OX     1400+00000+OX0000001402+0000001402+000000000+000000197+0000001599+0000000000+I40000001599+0000000000+Z
209223001209223304-001204     209223006001023737984FLOWER OCC. TEDDY/ROSES0000001000+00001402+00000+0001T   00001490+0006471653          1400 AS8510               2AZ
209224000209224               209224               170213OX     1400+00000+OX0000008804+0000008804+000000000+000001233+0000010037+0000000000+I40000010037+0000000000+Z
209224001209224031-005853     209224006003000442416P/FRAME WDN TWIN HEARTS0000001000+00003507+00000+0001T   00003507+0000001655          1400 AS8510               2AZ
209224002209224018-019000     209224006003000557288MUG OCC. LOVE JUMBO    0000001000+00005262+00000+0001T   00005262+0000001655          1400 AS8515               2AZ
209224003209224112-116038     209224006009681820246TCS CARRIER BAG MIDI   0000001000+00000035+00000+0001T   00000035+0000001655          1400 AS8090               2AZ
209225000209225               209225               170213OX     1400+00000+OX0000017540+0000017540+000000000+000002457+0000019990+0000000007+I20000000000+0000019990+Z
209225001209225065-003642     209225006003000396405GUITAR ROCKER 2 TONE   0000002000+00005262+00000+0001T   00005262+0000001657          1400 AS8745               2AZ
209225002209225065-003639     209225006001023787620GUITAR ROCKER          0000001000+00007016+00000+0001T   00007016+0000001657          1400 AS8745               2AZ
209226000209226               209226               170213OX     1400+00000+OX0000003069+0000003069+000000000+000000430+0000003499+0000000000+I40000003499+0000000000+Z
209226001209226024-000069     209226006001023849571EGG-WHISK S/S 30cm     0000001000+00003069+00000+0001T   00003069+0000001658          1400 AS8300               2AZ
209227000209227               209227               170213OX     1400+00000+OX0000003945+0000003945+000000000+000000553+0000004498+0000000000+I40000004498+0000000000+Z
209227001209227366-002695     209227006003000222766DRESS UP HAT ROUND GLIT0000001000+00002192+00000+0001T   00002192+0000001703          1400 AS8131               2AZ
209227002209227366-002799     209227006003000648238DRESSUP S/ADH FACE HAIR0000001000+00001753+00000+0001T   00001753+0000001703          1400 AS8131               2AZ
209228000209228               209228               170213OX     1400+00000+OX0000003507+0000003507+000000000+000000491+0000003998+0000000000+I40000003998+0000000000+Z
209228001209228104-000095     209228006003000614714BASKET PL 23x15x12cm   0000001000+00003507+00000+0001T   00003507+0000001705          1400 AS8210               2AZ
209229000209229               209229               170213OX     1400+00000+OX0000003507+0000003507+000000000+000000491+0000003990+0000000008+I20000000000+0000003990+Z
209229001209229018-000130     209229006001023867537MUG OCC LOVE MINI+HEART0000001000+00003507+00000+0001T   00003507+0000001705          1400 AS8515               2AZ
209230000209230               209230               170213OX     1400+00000+OX0000001753+0000001753+000000000+000000246+0000001990+0000000009+I20000000000+0000001990+Z
209230001209230566-000036     209230006003000384051STICKERS MOTIVATION    0000001000+00001753+00000+0001T   00001753+0000001707          1400 AS8130               2AZ
209231000209231               209231               170213OX     1400+00000+OX0000002629+0000002629+000000000+000000369+0000002998+0000000000+I40000002998+0000000000+Z
209231001209231077-000011-D   209231006001023808554TISSUE-WRAP WHITE 10PCE0000001000+00000876+00000+0001T   00000876+0000001709          1400 AS8112               2AZ
209231002209231077-000299-A   209231006003000670888GIFT-BAG PAPER JMB LOVE0000001000+00001753+00000+0001T   00001753+0000001709          1400 AS8112               2AZ
209232000209232               209232               170213OX     1400+00000+OX0000002453+0000002453+000000000+000000344+0000002790+0000000007+I20000000000+0000002790+Z
209232001209232261-000121     209232006001023341600GUN-CAPS 8-SHOT CARD-9 0000001000+00000700+00000+0001T   00000700+0000001726          1400 AS8710               2AZ
209232002209232261-002267     209232006001023665126GUN 8-SHOT SUPER-CAP   0000001000+00001753+00000+0001T   00001753+0000001726          1400 AS8710               2AZ
209233000209233               209233               170213OX     1400+00000+OX0000005259+0000005259+000000000+000000738+0000005997+0000000000+I40000005997+0000000000+Z
209233001209233071-000006     209233006001023732613PENCIL REFILLABLE 6PK  0000003000+00001753+00000+0001T   00001753+0000001728          1400 AS8130               2AZ
209234000209234               209234               170213OX     1400+00000+OX0000002630-0000002630-000000000+000000369-0000003000-0000000001+I20000000000+0000003000-Z
209234001209234368-000040     209234006003000671786PLUSH ICONS 7.5cm      0000001000-00002630+00000+0001T   00002630+0000001731          1400 AS87452IC            2 Z
209235000209235               209235               170213OX     1400+00000+OX0000006138+0000006138+000000000+000000860+0000006998+0000000000+I40000006998+0000000000+Z
209235001209235024-000214     209235006001023587855COOKIE-CUTTERS PL 6PC  0000001000+00001753+00000+0001T   00001753+0000001738          1400 AS8300               2AZ
209235002209235006-000190     209235006003000685530BALLOONS LOVE 81x91cm  0000001000+00004385+00000+0001T   00004385+0000001738          1400 AS8131               2AZ
209236000209236               209236               170213OX     1400+00000+OX0000003945+0000003945+000000000+000000553+0000004498+0000000000+I40000004498+0000000000+Z
209236001209236051-002406     209236006003000139415SPRAY PL TRIGGER 700ml 0000001000+00001753+00000+0001T   00001753+0000001742          1400 AS8820               2AZ
209236002209236051-002400     209236006001023616180TRIGGER-SPRAYER 900ml  0000001000+00002192+00000+0001T   00002192+0000001742          1400 AS8820               2AZ
209237000209237               209237               170213OX     1400+00000+OX0000003506+0000003506+000000000+000000492+0000003990+0000000008+I20000000000+0000003990+Z
209237001209237077-000150-D   209237006003000054343GIFT-WRAP CELLPHANE CLR0000001000+00000876+00000+0001T   00000876+0000001742          1400 AS8112               2AZ
209237002209237077-000005-B   209237006003000326617PAPER TISSUE PATTERN   0000001000+00002630+00000+0001T   00002630+0000001742          1400 AS8112               2AZ
209238000209238               209238               170213OX     1400+00000+OX0000005520+0000005520+000000000+000000773+0000006293+0000000000+I40000006293+0000000000+Z
209238001209238903-000843     209238008693029031067SWT GUMMY JELAXY 80G   0000002000+00000964+00000+0001T   00000964+0000001743          1400 AS8150               2AZ
209238002209238018-000177     209238006001023797513MUG MINI LOVE ASSTD    0000002000+00000700+00000+0001T   00000700+0000001743          1400 AS8515               2AZ
209238003209238566-000359     209238006003000582709STICKER BOOK LOVE SPARK0000001000+00002192+00000+0001T   00002192+0000001743          1400 AS8130               2AZ
209239000209239               209239               170213OX     1400+00000+OX0000004383+0000004383+000000000+000000615+0000004998+0000000000+I40000004998+0000000000+Z
209239001209239024-091100     209239006001023914224BAKING-CUPS PAPER 100PC0000001000+00001753+00000+0001T   00001753+0000001745          1400 AS8300               2AZ
209239002209239024-091103-B   209239006003000422548CAKE BOX 6PC CUPCAKES  0000001000+00002630+00000+0001T   00002630+0000001745          1400 AS8300               2AZ
209240000209240               209240               170213OX     1400+00000+OX0000003152+0000003152+000000000+000000444+0000003596+0000000000+I40000003596+0000000000+Z
209240001209240080-000133-A   209240006003000647019MINI VALENTINES CARD   0000002000+00000437+00000+0001T   00000437+0000001746          1400 AS8112               2AZ
209240002209240077-000010-U   209240006001023168863CREPE-PAPER CERISE-PINK0000001000+00000788+00000+0001T   00000788+0000001746          1400 AS8112               2AZ
209240003209240077-000299     209240006003000395576G/BAG 32x25cm LRG LOVE 0000001000+00001490+00000+0001T   00001490+0000001746          1400 AS8112               2AZ
209241000209241               209241               170213OX     1400+00000+OX0000001839+0000001839+000000000+000000259+0000002090+0000000008+I20000000000+0000002090+Z
209241001209241304-001204     209241006001023737984FLOWER OCC. TEDDY/ROSES0000001000+00001402+00000+0001T   00001490+0006471746          1400 AS8510               2AZ
209241002209241080-000133-A   209241006003000647019MINI VALENTINES CARD   0000001000+00000437+00000+0001T   00000437+0000001746          1400 AS8112               2AZ
209242000209242               209242               170213OX     1400+00000+OX0000006356+0000006356+000000000+000000893+0000007249+0000000000+I40000007249+0000000000+Z
209242001209242079-009702-D   209242008427973059354PAPER SIRIO A2 RED COL 0000001000+00001051+00000+0001T   00001051+0000001749          1400 AS8130               2AZ
209242002209242903-000087     209242006001704000161SWT SPECKLED-EGGS 50G  0000001000+00001139+00000+0001T   00001139+0000001749          1400 AS8150               2AZ
209242003209242071-081101-A   209242006003000326549GLUE-STICK 25g BLISTER 0000001000+00000788+00000+0001T   00000788+0000001749          1400 AS8130               2AZ
209242004209242071-030012     209242006003000283842PEN NVLTY GLITTER 6PC  0000001000+00002630+00000+0001T   00002630+0000001749          1400 AS8130               2AZ
209242005209242112-116069     209242006009681820277TCS CARRIER BAG JUMBO  0000001000+00000048+00000+0001T   00000048+0000001749          1400 AS8090               2AZ
209242006209242018-000177     209242006001023797513MUG MINI LOVE ASSTD    0000001000+00000700+00000+0001T   00000700+0000001749          1400 AS8515               2AZ
209243000209243               209243               170213OX     1400+00000+OX0000005699+0000005699+000000000+000000799+0000006490+0000000008+I20000000000+0000006490+Z
209243001209243030-000039     209243006003000465873PLAQUE ORN SENTIMENT   0000001000+00003946+00000+0001T   00005262+0008121749          1400 AS8505               2AZ
209243002209243564-000025     209243006003000617104BUBBLE NOVELTY         0000001000+00001753+00000+0001T   00001753+0000001749          1400 AS8131               2AZ
209244000209244               209244               170213OX     1400+00000+OX0000021963+0000021963+000000000+000003075+0000025038+0000000000+I40000025038+0000000000+Z
209244001209244264-000925-212 209244006003000595501BURAGO F12 BERLINETTA  0000001000+00021928+00000+0001T   00026314+0008131752          1400 AS8710               2AZ
209244002209244112-116038     209244006009681820246TCS CARRIER BAG MIDI   0000001000+00000035+00000+0001T   00000035+0000001752          1400 AS8090               2AZ
209245000209245               209245               170213OX     1400+00000+OX0000001971+0000001971+000000000+000000277+0000002240+0000000008+I20000000000+0000002240+Z
209245001209245080-000124     209245006003000297733CARD & ENV VALENTINES  0000001000+00001578+00000+0001T   00001578+0000001753          1400 AS8112               2AZ
209245002209245903-000183     209245006003000451043SWT LB HEART LOLLY     0000001000+00000393+00000+0001T   00000393+0000001753          1400 AS8150               2AZ
209246000209246               209246               170213OX     1400+00000+OX0000004120+0000004120+000000000+000000578+0000004698+0000000000+I40000004698+0000000000+Z
209246001209246079-006494     209246006003000159864GLITTER GLUE 5PCE 11cm 0000001000+00001490+00000+0001T   00001490+0000001754          1400 AS8130               2AZ
209246002209246266-003012     209246006001023786128BOYS P/SET ARCHERY 4pc 0000001000+00002630+00000+0001T   00002630+0000001754          1400 AS8710               2AZ
209247000209247               209247               170213OX     1400+00000+OX0000002630+0000002630+000000000+000000369+0000002990+0000000009+I20000000000+0000002990+Z
209247001209247077-000270     209247006003000395453GIFT-BAG PPR JMB 33X45 0000001000+00002630+00000+0001T   00002630+0000001754          1400 AS8112               2AZ
209248000209248               209248               170213OX     1400+00000+OX0000003682+0000003682+000000000+000000516+0000004190+0000000008+I20000000000+0000004190+Z
209248001209248077-000311     209248006001023608666GIFT-BAG 11X14CM GLOSS 0000001000+00000613+00000+0001T   00000613+0000001756          1400 AS8112               2AZ
209248002209248040-000200     209248006003000381586C/HLDER CERC INSP. ASST0000001000+00003069+00000+0001T   00003069+0000001756          1400 AS8510               2AZ
209249000209249               209249               170213OX     1400+00000+OX0000002805+0000002805+000000000+000000393+0000003190+0000000008+I20000000000+0000003190+Z
209249001209249077-000311     209249006001023608666GIFT-BAG 11X14CM GLOSS 0000001000+00000613+00000+0001T   00000613+0000001759          1400 AS8112               2AZ
209249002209249089-000225     209249006003000622290KEY CHAIN RELIGIOUS    0000001000+00002192+00000+0001T   00002192+0000001759          1400 AS8205               2AZ
A17021300                                          10021114OXSLAVE 2                       AS82IC
A17021301                                          10123159OXSLAVE 2                       AS81IC
A17021302                                          11313570OXSLAVE 2                       AS82IC
B20914700                                          170213OX079-013106     09515380SLAVE 2     AS82IC0000003000+0000002000+0000000000000+
B20918800                                          170213OX006-000166-D   14333168SLAVE 2     AS82IC0000007000+0000006000+0000000000000+
B20918900                                          170213OX105-007555     14355162SLAVE 2     AS82IC0000043000+0000004000+0000000000000+
M17021391                              CASH        OXSLAVE 2                       Z-REPORT No.   639TOTAL (Sales - Refunds)           8641.71       CASH TO BE BANKED                 3562.50       DEBIT CARDS                          0.00       CREDIT CARDS                      5079.21       Z-READING                         8641.71       AIRTIME DEBIT CARD SALES             0.00       AIRTIME CARD SALES                   0.00       OVERS/UNDERS                         0.00       AIRTIME CASH SALES                   0.00       GIFT CARDS                           0.00       GIFT CARD CASH SALES                 0.00       T O T A L  CASH PAYOUTS              0.00                                                                                                                                                                                                                                                                                                                                                      Z
M17021392                              CASH        OXABSENT                                                                                                                                                                                          ANNUAL LEAVE                                                                                                                                                                                    DAY OFF                                                                                                                                                                                         COMMENTS                                                                                                                                                                                                                                                                                                                                                                                       Z
Y17021300                                          OX00000000831454+000103
ZOX17021320163 SLAVE 2      SALES DATA                     NEXT INVOICE NO.  209250 0639
F094725491-059640         1702081115430000131ICSLAVE 2
X OX Slave 2 First invoice 209144 170213 Last invoice 209249 170213 Next invoice 209250 Total number of records 000000393 clbackup completed 20:16:15
