301461000301461               301461               170213OX     1400+00000+OX0000040069+0000040069+000000000+000005615+0000045684+           I00000000000+0000000000+Z
301461001301461469-000400     301461006003000213924BUILD CONNECTOR BEADS  0000001000+00007016+00000+0001T                                1400 1IC7551ICD             Z
301461002301461301-085006     301461006001023502940ORN LOVE MSG TUBE W/HRT0000001000+00001753+00000+0001T                                1400 1IC5051ICD             Z
301461003301461159-000654     301461006003000294770BATH-SPONGE MESH PK3   0000001000+00002630+00000+0001T                                1400 1IC2001ICD             Z
301461004301461200-000022     301461006003000399291BAG SLIDE LOCK 15PC    0000001000+00002630+00000+0001T                                1400 1IC2141ICD             Z
301461005301461200-000023     301461006003000399413BAG SLIDE LOCK 10PC    0000001000+00002630+00000+0001T                                1400 1IC2141ICD             Z
301461006301461200-000010     301461006925406841061BAG ZIPPERSEAL 35PC    0000001000+00002192+00000+0001T                                1400 1IC2141ICD             Z
301461007301461200-000012     301461006003000399536BAG 50PCE 165x146mm    0000001000+00003507+00000+0001T                                1400 1IC2141ICD             Z
301461008301461903-003051     301461008024431008703SWT CHOCO PARTY 25G    0000001000+00000876+00000+0001T                                1400 1IC1501ICD             Z
301461009301461903-003080     301461005907029004673SWT SNACK STIX CHOC 50g0000001000+00000876+00000+0001T                                1400 1IC1501ICD             Z
301461010301461104-000135     301461006001023846419WASTEBIN SWING-LID 28cm0000001000+00004385+00000+0001T                                1400 1IC2101ICD             Z
301461011301461174-000307     301461006003000639533TRAVEL TAG NAME/LUGGAGE0000001000+00002192+00000+0001T                                1400 1IC2051ICD             Z
301461012301461082-000115     301461006003000360604READING GLS STRNGHT:2.50000001000+00004385+00000+0001T                                1400 1IC1601ICD             Z
301461013301461200-000100     301461006001023764003CUPS 25PCE DISPOSABLE  0000001000+00001928+00000+0001T                                1400 1IC2141ICD             Z
301461014301461105-001028     301461006003000365036LUNCH BOX W/CLIPS      0000001000+00003069+00000+0001T                                1400 1IC2101ICD             Z
M17021391                              CASH        OXSLAVE 3                       Z-REPORT No.   540TOTAL (Sales - Refunds)              0.00       CASH TO BE BANKED                    0.00       DEBIT CARDS                          0.00       CREDIT CARDS                         0.00       Z-READING                            0.00       AIRTIME DEBIT CARD SALES             0.00       AIRTIME CARD SALES                   0.00       OVERS/UNDERS                         0.00       AIRTIME CASH SALES                   0.00       GIFT CARDS                           0.00       GIFT CARD CASH SALES                 0.00       T O T A L  CASH PAYOUTS              0.00                                                                                                                                                                                                                                                                                                                                                      Z
M17021392                              CASH        OXABSENT                                                                                                                                                                                          ANNUAL LEAVE                                                                                                                                                                                    DAY OFF                                                                                                                                                                                         COMMENTS                                                                                                                                                                                                                                                                                                                                                                                       Z
Y17021300                                          OX00000000000000+000000
ZOX17021320163 SLAVE 3      SALES DATA                     NEXT INVOICE NO.  301462 0540
F094725491-059640         1702081121270000131ICSLAVE 3
X OX Slave 3 First invoice 301461 170213 Last invoice 301461 170213 Next invoice 301462 Total number of records 000000020 clbackup completed 20:16:18
