102377000102377               102377               170213OZ     1400+00000+OZ0000004385+0000004385+000000000+000000614+0000004990+0000000009+I20000000000+0000004990+Z
102377001102377082-007582     102377006003000465804SUNGLASSES EMPORIUM    0000001000+00004385+00000+0001T   00004385+0000000929          1400 UK9160               1AZ
102378000102378               102378               170213OZ     1400+00000+OZ0000008886+0000008886+000000000+000001245+0000010130+0000000001+I20000000000+0000010130+Z
102378001102378903-000194     102378006009826020616SWT CHOC RP LOLLY 25G  0000003000+00001314+00000+0001T   00001314+0000001000          1400 UK9150               1AZ
102378002102378903-000155     102378006009803374435SWT LOLLY I LUV U HEART0000001000+00000525+00000+0001T   00000525+0000001000          1400 UK9150               1AZ
102378003102378018-000170     102378006001023775528MUG OCC. LOVE 2PC MINI 0000002000+00002192+00000+0001T   00002192+0000001000          1400 UK9515               1AZ
102378004102378112-116038     102378006009681820246TCS CARRIER BAG MIDI   0000001000+00000035+00000+0001T   00000035+0000001000          1400 UK9090               1AZ
102379000102379               102379               170213OZ     1400+00000+OZ0000013155+0000013155+000000000+000001842+0000014990+0000000007+I20000000000+0000014990+Z
102379001102379051-600671     102379006001023552730GARDEN-FENCE PL-CTD 5PC0000003000+00004385+00000+0001T   00004385+0000001121          1400 UK9820               1AZ
102380000102380               102380               170213OZ     1400+00000+OZ0000004385+0000004385+000000000+000000614+0000004990+0000000009+I20000000000+0000004990+Z
102380001102380030-000031-A   102380006003000457588PLAQUE W/WORDS ASSTD   0000001000+00004385+00000+0001T   00004823+0006471125          1400 UK9505               1AZ
102381000102381               102381               170213OZ     1400+00000+OZ0000003069+0000003069+000000000+000000430+0000003490+0000000009+I20000000000+0000003490+Z
102381001102381106-000899     102381006003000653287WTR BOTTLE 2L W/HANDLE 0000001000+00003069+00000+0001T   00003507+0008191126          1400 UK9210               1AZ
102382000102382               102382               170213OZ     1400+00000+OZ0000002630+0000002630+000000000+000000369+0000002999+0000000000+I40000002999+0000000000+Z
102382001102382004-071192     102382006003000528813USB CABLE 1.0m         0000001000+00002630+00000+0001T   00002630+0000001133          1400 UK9310               1AZ
102383000102383               102383               170213OZ     1400+00000+OZ0000010347+0000010347+000000000+000001450+0000011797+0000000000+I40000011797+0000000000+Z
102383001102383033-000013     102383006001023567215PILL-REMINDER PL       0000002000+00001227+00000+0001T   00001227+0000001152          1400 UK9200               1AZ
102383002102383073-000530     102383006003000629640COSMETIC BAG PVC       0000001000+00007893+00000+0001T   00007893+0000001152          1400 UK9200               1AZ
102384000102384               102384               170213OZ     1400+00000+OZ0000005700+0000005700+000000000+000000798+0000006490+0000000008+I20000000000+0000006490+Z
102384001102384046-002023-C   102384006001023698254BATTERIES ALKALN CARD-50000001000+00005700+00000+0001T   00005700+0000001231          1400 UK9312               1AZ
102385000102385               102385               170213OZ     1400+00000+OZ0000002630+0000002630+000000000+000000369+0000002990+0000000009+I20000000000+0000002990+Z
102385001102385466-000514     102385006001023196620BALLS TENNIS COLR BAG-30000001000+00002630+00000+0001T   00002630+0000001302          1400 UK9785               1AZ
102386000102386               102386               170213OZ     1400+00000+OZ0000002630+0000002630+000000000+000000369+0000002999+0000000000+I40000002999+0000000000+Z
102386001102386077-000475     102386006003000640775GIFT-BAG DESIGNER MED  0000001000+00002630+00000+0001T   00002630+0000001306          1400 UK9112               1AZ
102387000102387               102387               170213OZ     1400+00000+OZ0000002757+0000002757+000000000+000000389+0000003140+0000000006+I20000000000+0000003140+Z
102387001102387077-000315     102387006003000181186GIFT-BAG 20x28cm MATT  0000001000+00001578+00000+0001T   00001578+0000001317          1400 UK9112               1AZ
102387002102387903-000183     102387006003000451043SWT LB HEART LOLLY     0000003000+00000393+00000+0001T   00000393+0000001317          1400 UK9150               1AZ
102388000102388               102388               170213OZ     1400+00000+OZ0000002630+0000002630+000000000+000000369+0000002990+0000000009+I20000000000+0000002990+Z
102388001102388306-000011     102388006003000108527TOOTH DENTURE BRUSH    0000001000+00002630+00000+0001T   00002630+0000001319          1400 UK9200               1AZ
102389000102389               102389               170213OZ     1400+00000+OZ0000006622+0000006622+000000000+000000929+0000007550+0000000001+I20000000000+0000007550+Z
102389001102389006-000166-D   102389006003000516490BALLOONS LRG 6PC RED   0000001000+00001314+00000+0001T   00001314+0000001321          1400 UK9131               1AZ
102389002102389566-000367     102389006003000645558STICKER WINDOW DECOR   0000002000+00002630+00000+0001T   00002630+0000001321          1400 UK9130               1AZ
102389003102389112-116069     102389006009681820277TCS CARRIER BAG JUMBO  0000001000+00000048+00000+0001T   00000048+0000001321          1400 UK9090               1AZ
102390000102390               102390               170213OZ     1400+00000+OZ0000007014+0000007014+000000000+000000982+0000007996+0000000000+I40000007996+0000000000+Z
102390001102390104-000027     102390006003000571284BASKET RECTANGULAR     0000002000+00003507+00000+0001T   00003507+0000001335          1400 UK9210               1AZ
102391000102391               102391               170213OZ     1400+00000+OZ0000000700+0000000700+000000000+000000098+0000000790+0000000008+I20000000000+0000000790+Z
102391001102391903-000071     102391006001704001120SWT TOFFEE LIQURICE 35g0000001000+00000700+00000+0001T   00000700+0000001407          1400 UK9150               1AZ
102392000102392               102392               170213OZ     1400+00000+OZ0000001753+0000001753+000000000+000000246+0000001990+0000000009+I20000000000+0000001990+Z
102392001102392107-002117     102392006002580008890BASIN PL 32cm(VIRGIN)4L0000001000+00001753+00000+0001T   00001753+0000001514          1400 UK9210               1AZ
102393000102393               102393               170213OZ     1400+00000+OZ0000000048+0000000048+000000000+000000007+0000000050+0000000005+I20000000000+0000000050+Z
102393001102393112-116069     102393006009681820277TCS CARRIER BAG JUMBO  0000001000+00000048+00000+0001T   00000048+0000001514          1400 UK9090               1AZ
102394000102394               102394               170213OZ     1400+00000+OZ0000002192+0000002192+000000000+000000307+0000002490+0000000009+I20000000000+0000002490+Z
102394001102394080-000127     102394006003000424351VALENTINES DAY 36x24CM 0000001000+00002192+00000+0001T   00002192+0000001515          1400 UK9112               1AZ
102395000102395               102395               170213OZ     1400+00000+OZ0000005262+0000005262+000000000+000000737+0000005999+0000000000+I40000005999+0000000000+Z
102395001102395004-071202     102395006003000459025USB MULTIPLE CHARGER   0000001000+00005262+00000+0001T   00005262+0000001517          1400 UK9310               1AZ
102396000102396               102396               170213OZ     1400+00000+OZ0000003068+0000003068+000000000+000000430+0000003498+0000000000+I40000003498+0000000000+Z
102396001102396366-002695     102396006003000222766DRESS UP HAT ROUND GLIT0000001000+00002192+00000+0001T   00002192+0000001520          1400 UK9131               1AZ
102396002102396366-007601     102396006003000655472DRESS UP MASK THEATRICA0000001000+00000876+00000+0001T   00000876+0000001520          1400 UK9131               1AZ
102397000102397               102397               170213OZ     1400+00000+OZ0000008713+0000008713+000000000+000001222+0000009930+0000000005+I20000000000+0000009930+Z
102397001102397903-000200     102397006009826020234SWT CHOC RP CHOCO 23G  0000001000+00000788+00000+0001T   00000788+0000001528          1400 UK9150               1AZ
102397002102397200-000011     102397006003000613489DISPOSABLE BAG ZIPER   0000001000+00003507+00000+0001T   00003507+0000001528          1400 UK9214               1AZ
102397003102397079-000601     102397006003000640379ART+CRAFT SHEETS METAL 0000001000+00002630+00000+0001T   00002630+0000001528          1400 UK9130               1AZ
102397004102397206-000120     102397006003000628308PEELER CARROT SHARPENER0000001000+00001753+00000+0001T   00001753+0000001528          1400 UK9321               1AZ
102397005102397112-116038     102397006009681820246TCS CARRIER BAG MIDI   0000001000+00000035+00000+0001T   00000035+0000001528          1400 UK9090               1AZ
102398000102398               102398               170213OZ     1400+00000+OZ0000005085+0000005085+000000000+000000712+0000005790+0000000007+I20000000000+0000005790+Z
102398001102398903-000126     102398006002099003591SWT ZILLIONS MINT 50G  0000001000+00000700+00000+0001T   00000700+0000001536          1400 UK9150               1AZ
102398002102398566-000323     102398006003000535958STICKER ROOM DEC TOWER 0000001000+00004385+00000+0001T   00004385+0000001536          1400 UK9130               1AZ
102399000102399               102399               170213OZ     1400+00000+OZ0000053876+0000053876+000000000+000007555+0000061431+0000000000+I40000061431+0000000000+Z
102399001102399106-001099     102399006003000653447WATER BOTTLE 650ml     0000001000+00002630+00000+0001T   00002630+0000001547          1400 UK9210               1AZ
102399002102399089-000005     102399006003000094806KEY CHAIN CARDS MTL    0000001000+00003069+00000+0001T   00003069+0000001547          1400 UK9205               1AZ
102399003102399089-000027     102399006003000254071KEY CHAIN MOM/DAD ASSTD0000001000+00001753+00000+0001T   00001753+0000001547          1400 UK9205               1AZ
102399004102399112-116069     102399006009681820277TCS CARRIER BAG JUMBO  0000001000+00000048+00000+0001T   00000048+0000001547          1400 UK9090               1AZ
102399005102399006-006018     102399006001023735256PARTY-SPRAY HAIR ASSORT0000001000+00002630+00000+0001T   00002630+0000001547          1400 UK9131               1AZ
102399006102399206-000590     102399006003000633708BAG CLIPS LIPS 2PC     0000005000+00001753+00000+0001T   00001753+0000001547          1400 UK9321               1AZ
102399007102399031-006544     102399006003000279401P/FRAME WDN DISTRESSED 0000001000+00007893+00000+0001T   00007893+0000001547          1400 UK9510               1AZ
102399008102399301-085004     102399006003000420469ORN LOVE PLAQUE 21X10CM0000001000+00003507+00000+0001T   00003946+0006471547          1400 UK9505               1AZ
102399009102399206-000630     102399006003000631919SPECTACLE CLEANING BRUS0000001000+00001227+00000+0001T   00001227+0000001547          1400 UK9321               1AZ
102399010102399089-060027     102399006003000245871KEY-CHAIN HEART 6X6cm  0000001000+00003069+00000+0001T   00003069+0000001547          1400 UK9205               1AZ
102399011102399158-000005     102399006001023594839CELLPHONE STAND 10.5cm 0000001000+00001753+00000+0001T   00002630+0008171547          1400 UK9300               1AZ
102399012102399038-001800     102399006003000623303DOILIE PAPER HRT 24PC  0000001000+00003507+00000+0001T   00003507+0000001547          1400 UK9300               1AZ
102399013102399007-000718     102399006003000226672NOTE MAGNETIC WKLY PLNR0000001000+00002630+00000+0001T   00002630+0000001547          1400 UK9130               1AZ
102399014102399016-006425     102399006001023998170S/JAR GLS CLIP W/RIBBON0000001000+00002630+00000+0001T   00002630+0000001547          1400 UK9300               1AZ
102399015102399903-000619     102399006003000672455SWT LOLLY STR/BRRY 140G0000005000+00001753+00000+0001T   00001753+0000001547          1400 UK9150               1AZ
102400000102400               102400               170213OZ     1400+00000+OZ0000008329+0000008329+000000000+000001167+0000009490+0000000006+I20000000000+0000009490+Z
102400001102400031-000921     102400006001023667755P/FRAME COLLAGE 4-HOLE 0000001000+00003069+00000+0001T   00003069+0000001551          1400 UK9510               1AZ
102400002102400080-000113     102400006003000237449CARD&ENVLPE - LOVE     0000001000+00001753+00000+0001T   00001753+0000001551          1400 UK9112               1AZ
102400003102400031-000864-B   102400006001023798381P/FRAME MAHOGANY 13X18 0000001000+00003507+00000+0001T   00003507+0000001551          1400 UK9510               1AZ
102401000102401               102401               170213OZ     1400+00000+OZ0000008771+0000008771+000000000+000001228+0000009990+0000000009+I20000000000+0000009990+Z
102401001102401001-091415     102401006003000329113W/GLS OCC. LOVE 2PC 2800000001000+00008771+00000+0001T   00009648+0006471557          1400 UK9515               1AZ
102402000102402               102402               170213OZ     1400+00000+OZ0000013591+0000013591+000000000+000001905+0000015496+0000000000+I40000015496+0000000000+Z
102402001102402089-000220     102402006003000677368KEY CHAIN+PEN+KNIFE    0000001000+00003069+00000+0001T   00003069+0000001601          1400 UK9205               1AZ
102402002102402031-006541     102402006001023695062P/FRAME COLLAGE PL ASST0000001000+00005262+00000+0001T   00005262+0000001601          1400 UK9510               1AZ
102402003102402080-000136     102402006003000589036CARD & ENV GIANT MALE  0000001000+00002630+00000+0001T   00002630+0000001601          1400 UK9112               1AZ
102402004102402080-000137     102402006003000589159CARD & ENV GIANT FEMALE0000001000+00002630+00000+0001T   00002630+0000001601          1400 UK9112               1AZ
102403000102403               102403               170213OZ     1400+00000+OZ0000000876+0000000876+000000000+000000123+0000000990+0000000009+I20000000000+0000000990+Z
102403001102403077-000151     102403006008766114676GIFT-WRAP C/PHANE ASSTD0000001000+00000876+00000+0001T   00000876+0000001612          1400 UK9112               1AZ
102404000102404               102404               170213OZ     1400+00000+OZ0000002630+0000002630+000000000+000000369+0000002990+0000000009+I20000000000+0000002990+Z
102404001102404159-000111     102404006003000330379SHOWER CAP PVC LINED   0000001000+00002630+00000+0001T   00002630+0000001613          1400 UK9200               1AZ
102405000102405               102405               170213OZ     1400+00000+OZ0000011402+0000011402+000000000+000001597+0000012999+0000000000+I40000012999+0000000000+Z
102405001102405031-006545     102405006003000329564P/FRME PL 35x28CM WEDD.0000001000+00011402+00000+0001T   00011402+0000001616          1400 UK9510               1AZ
102406000102406               102406               170213OZ     1400+00000+OZ0000024045+0000024045+000000000+000003371+0000027416+0000000000+I10000025326+0000002090+Z
102406001102406112-116038     102406006009681820246TCS CARRIER BAG MIDI   0000001000+00000035+00000+0001T   00000035+0000001621          1400 UK9090               1AZ
102406002102406565-000735     102406006003000615674NOVELTY PUTTY BOUNCING 0000002000+00000700+00000+0001T   00000700+0000001621          1400 UK9745               1AZ
102406003102406077-000311     102406006001023608666GIFT-BAG 11X14CM GLOSS 0000002000+00000613+00000+0001T   00000613+0000001621          1400 UK9112               1AZ
102406004102406903-003051     102406008024431008703SWT CHOCO PARTY 25G    0000003000+00000876+00000+0001T   00000876+0000001621          1400 UK9150               1AZ
102406005102406903-000923     102406008714786126428SWT TURTLE DUO SPRAY   0000003000+00001314+00000+0001T   00001753+0008191621          1400 UK9150               1AZ
102406006102406903-000912     102406006009802868461SWT GUM TAPE HOT WHEELS0000003000+00001753+00000+0001T   00001753+0000001621          1400 UK9150               1AZ
102406007102406018-000130     102406006001023867537MUG OCC LOVE MINI+HEART0000001000+00003507+00000+0001T   00003507+0000001621          1400 UK9515               1AZ
102406008102406162-089199     102406006001492891996SS KIDS BEADED N/WEAR  0000001000+00002630+00000+0001T   00002630+0000001621          1400 UK9160               1AZ
102406009102406077-000311     102406006001023608666GIFT-BAG 11X14CM GLOSS 0000002000+00000613+00000+0001T   00000613+0000001621          1400 UK9112               1AZ
102406010102406565-000080     102406006003000643424NOVELTY BENDY          0000001000+00002192+00000+0001T   00002192+0000001621          1400 UK9745               1AZ
102407000102407               102407               170213OZ     1400+00000+OZ0000008708+0000008708+000000000+000001223+0000009930+0000000001+I20000000000+0000009930+Z
102407001102407080-000133-A   102407006003000647019MINI VALENTINES CARD   0000001000+00000437+00000+0001T   00000437+0000001623          1400 UK9112               1AZ
102407002102407018-000177     102407006001023797513MUG MINI LOVE ASSTD    0000001000+00000700+00000+0001T   00000700+0000001623          1400 UK9515               1AZ
102407003102407080-000124     102407006003000297733CARD & ENV VALENTINES  0000001000+00001578+00000+0001T   00001578+0000001623          1400 UK9112               1AZ
102407004102407304-001011     102407006001023806727FLWR ROSE RED W/BEAR   0000001000+00000613+00000+0001T   00000788+0006471623          1400 UK9510               1AZ
102407005102407304-001204     102407006001023737984FLOWER OCC. TEDDY/ROSES0000002000+00001402+00000+0001T   00001490+0006471623          1400 UK9510               1AZ
102407006102407071-003051     102407006003000217304PEN ASST               0000001000+00000788+00000+0001T   00001139+0008151623          1400 UK9130               1AZ
102407007102407903-000619     102407006003000672455SWT LOLLY STR/BRRY 140G0000001000+00001753+00000+0001T   00001753+0000001623          1400 UK9150               1AZ
102407008102407112-116038     102407006009681820246TCS CARRIER BAG MIDI   0000001000+00000035+00000+0001T   00000035+0000001623          1400 UK9090               1AZ
102408000102408               102408               170213OZ     1400+00000+OZ0000001314+0000001314+000000000+000000184+0000001498+0000000000+I40000001498+0000000000+Z
102408001102408006-000166-D   102408006003000516490BALLOONS LRG 6PC RED   0000001000+00001314+00000+0001T   00001314+0000001630          1400 UK9131               1AZ
102409000102409               102409               170213OZ     1400+00000+OZ0000001314+0000001314+000000000+000000184+0000001490+0000000008+I20000000000+0000001490+Z
102409001102409046-000012     102409006904708013062BATTERIES AA  CARD-OF-40000001000+00001314+00000+0001T   00001314+0000001631          1400 UK9312               1AZ
102410000102410               102410               170213OZ     1400+00000+OZ0000000000+0000000000+000000000+000000000+0000000000+0000000000+I20000000000+0000000000+Z
102410001102410001-091415     102410006003000329113W/GLS OCC. LOVE 2PC 2800000001000-00008771+00000+0001T   00009648+0006471635          1400 UK95152IC            1 Z
102410002102410001-091415     102410006003000329113W/GLS OCC. LOVE 2PC 2800000001000+00008771+00000+0001T   00009648+0006471635          1400 UK95152IC            1 Z
102411000102411               102411               170213OZ     1400+00000+OZ0000001753+0000001753+000000000+000000246+0000001990+0000000009+I20000000000+0000001990+Z
102411001102411018-050000     102411006003000412679MUG OCC LOVE TWIN BEAR 0000001000-00006139+00000+0001T   00006139+0000001637          1400 UK95152IC            1 Z
102411002102411080-000113     102411006003000237449CARD&ENVLPE - LOVE     0000001000+00001753+00000+0001T   00001753+0000001637          1400 UK9112               1AZ
102411003102411018-050000     102411006003000412679MUG OCC LOVE TWIN BEAR 0000001000+00006139+00000+0001T   00006139+0000001637          1400 UK9515               1AZ
102412000102412               102412               170213OZ     1400+00000+OZ0000008982+0000008982+000000000+000001259+0000010240+0000000001+I20000000000+0000010240+Z
102412001102412024-000036     102412006001023477002MEASURING-JUG 500ml    0000001000+00001578+00000+0001T   00001578+0000001709          1400 UK9300               1AZ
102412002102412079-013032-B   102412006003000389445MIXED SHAPES           0000001000+00001753+00000+0001T   00001753+0000001709          1400 UK9130               1AZ
102412003102412080-000124     102412006003000297733CARD & ENV VALENTINES  0000001000+00001578+00000+0001T   00001578+0000001709          1400 UK9112               1AZ
102412004102412566-000013     102412006001023888952S/BOOK CORNERS GLITTER 0000001000+00001314+00000+0001T   00001753+0008151709          1400 UK9130               1AZ
102412005102412079-009700-B   102412006003000547661PAPER SIRIO A4 WHITE   0000001000+00000306+00000+0001T   00000306+0000001709          1400 UK9130               1AZ
102412006102412566-000013     102412006001023888952S/BOOK CORNERS GLITTER 0000001000-00001314+00000+0001T   00001753+0008151709          1400 UK91302IC            1 Z
102412007102412566-000013     102412006001023888952S/BOOK CORNERS GLITTER 0000001000+00001314+00000+0001T   00001753+0008151709          1400 UK91302IC            1AZ
102412008102412007-000166     102412006009685857316SPIRAL NOTES A6 100PG  0000001000+00000700+00000+0001T   00000700+0000001709          1400 UK9130               1AZ
102412009102412007-000043     102412006009635831496DISPLAY-BOOK PL A4 20PG0000001000+00001753+00000+0001T   00001753+0000001709          1400 UK9130               1AZ
102413000102413               102413               170213OZ     1400+00000+OZ0000005260+0000005260+000000000+000000737+0000005997+0000000000+I40000005997+0000000000+Z
102413001102413031-000002-A   102413006003000247103P/FRAME LOVE 7.5X7.5CM 0000001000+00003507+00000+0001T   00003507+0000001712          1400 UK9510               1AZ
102413002102413077-000316     102413006001023609731GIFT-BAG 25X32CM MATT  0000001000+00001753+00000+0001T   00001753+0000001712          1400 UK9112               1AZ
102414000102414               102414               170213OZ     1400+00000+OZ0000001753+0000001753+000000000+000000246+0000001990+0000000009+I20000000000+0000001990+Z
102414001102414089-000030     102414006003000575671K/CHAIN LOVE MTL ASSTD 0000001000+00001753+00000+0001T   00001753+0000001712          1400 UK9205               1AZ
102415000102415               102415               170213OZ     1400+00000+OZ0000001400+0000001400+000000000+000000196+0000001590+0000000006+I20000000000+0000001590+Z
102415001102415018-000177     102415006001023797513MUG MINI LOVE ASSTD    0000002000+00000700+00000+0001T   00000700+0000001712          1400 UK9515               1AZ
102416000102416               102416               170213OZ     1400+00000+OZ0000003542+0000003542+000000000+000000496+0000004030+0000000008+I20000000000+0000004030+Z
102416001102416018-000136     102416006001023659026MUG OCC LOVE W/PLUSH   0000001000+00003507+00000+0001T   00003507+0000001715          1400 UK9515               1AZ
102416002102416112-116038     102416006009681820246TCS CARRIER BAG MIDI   0000001000+00000035+00000+0001T   00000035+0000001715          1400 UK9090               1AZ
102417000102417               102417               170213OZ     1400+00000+OZ0000028975+0000028975+000000000+000004059+0000033030+0000000004+I20000000000+0000033030+Z
102417001102417301-085004     102417006003000420469ORN LOVE PLAQUE 21X10CM0000001000+00003507+00000+0001T   00003946+0006471718          1400 UK9505               1AZ
102417002102417080-000113     102417006003000237449CARD&ENVLPE - LOVE     0000001000+00001753+00000+0001T   00001753+0000001718          1400 UK9112               1AZ
102417003102417031-000009     102417006003000306381P/FRAME COLLAGE HEARTS 0000001000+00013157+00000+0001T   00013157+0000001718          1400 UK9510               1AZ
102417004102417077-000456     102417006003000285549G/BAG METALLIC JMB EMB 0000001000+00002630+00000+0001T   00002630+0000001718          1400 UK9112               1AZ
102417005102417301-085007     102417006003000673698ORN OCC. LOVE S/PLAQUE 0000001000+00007893+00000+0001T   00007893+0000001718          1400 UK9505               1AZ
102417006102417112-116038     102417006009681820246TCS CARRIER BAG MIDI   0000001000+00000035+00000+0001T   00000035+0000001718          1400 UK9090               1AZ
102418000102418               102418               170213OZ     1400+00000+OZ0000009695+0000009695+000000000+000001358+0000011053+0000000000+I40000011053+0000000000+Z
102418001102418018-019000     102418006003000557288MUG OCC. LOVE JUMBO    0000001000+00005262+00000+0001T   00005262+0000001724          1400 UK9515               1AZ
102418002102418072-020356     102418006001023701077DOG/CAT-BOWL+SELF-FEED 0000001000+00004385+00000+0001T   00004385+0000001724          1400 UK9870               1AZ
102418003102418112-116069     102418006009681820277TCS CARRIER BAG JUMBO  0000001000+00000048+00000+0001T   00000048+0000001724          1400 UK9090               1AZ
102419000102419               102419               170213OZ     1400+00000+OZ0000002454+0000002454+000000000+000000344+0000002790+0000000008+I20000000000+0000002790+Z
102419001102419903-000843     102419008693029031067SWT GUMMY JELAXY 80G   0000001000+00000964+00000+0001T   00000964+0000001726          1400 UK9150               1AZ
102419002102419565-000990     102419006001023673510NOVELTY STICKY SLAPPER 0000001000+00001490+00000+0001T   00001490+0000001726          1400 UK9745               1AZ
102420000102420               102420               170213OZ     1400+00000+OZ0000015737+0000015737+000000000+000002208+0000017940+0000000005+I20000000000+0000017940+Z
102420001102420039-000114     102420006001023524058CANDLE T/LITE RED 3.5CM0000001000+00001753+00000+0001T   00001753+0000001734          1400 UK9510               1AZ
102420002102420006-000166-H   102420006003000608096BALLOONS HELIUM 6PC WHT0000001000+00001314+00000+0001T   00001314+0000001734          1400 UK9131               1AZ
102420003102420039-000114     102420006001023524058CANDLE T/LITE RED 3.5CM0000001000+00001753+00000+0001T   00001753+0000001734          1400 UK9510               1AZ
102420004102420206-000590     102420006003000633708BAG CLIPS LIPS 2PC     0000002000+00001753+00000+0001T   00001753+0000001734          1400 UK9321               1AZ
102420005102420301-085008     102420006003000673933ORN OCC.LOVE TINSEL HRT0000001000+00003069+00000+0001T   00003069+0000001734          1400 UK9505               1AZ
102420006102420563-000318-L   102420006003000407088SERVIETTES 33cm RED    0000001000+00002192+00000+0001T   00002192+0000001734          1400 UK9214               1AZ
102420007102420039-000026     102420006001023551610C/TAPERED 25CM M/RED   0000002000+00001051+00000+0001T   00001051+0000001734          1400 UK9510               1AZ
102420008102420112-116069     102420006009681820277TCS CARRIER BAG JUMBO  0000001000+00000048+00000+0001T   00000048+0000001734          1400 UK9090               1AZ
102421000102421               102421               170213OZ     1400+00000+OZ0000035157+0000035157+000000000+000004928+0000040085+0000000000+I40000040085+0000000000+Z
102421001102421077-000301     102421008010410010188BAG LRG 25X32CM B/DAY  0000001000+00001753+00000+0001T   00001753+0000001738          1400 UK9112               1AZ
102421002102421002-250030     102421006003000268641K/SCALE DIGITAL 5kg    0000001000+00015788+00000+0001T   00015788+0000001738          1400 UK9300               1AZ
102421003102421080-000133     102421006003000535613CARD&ENV MINI ASTD DSGN0000001000+00000437+00000+0001T   00000437+0000001738          1400 UK9112               1AZ
102421004102421200-000062     102421006003000519514STRAWS DRINKING PL 4PC 0000001000+00001490+00000+0001T   00001490+0000001738          1400 UK9214               1AZ
102421005102421200-000063     102421006003000577590CUTLERY SODA SPOON PL  0000001000+00001314+00000+0001T   00001753+0008171738          1400 UK9214               1AZ
102421006102421200-000062     102421006003000519514STRAWS DRINKING PL 4PC 0000001000+00001490+00000+0001T   00001490+0000001738          1400 UK9214               1AZ
102421007102421200-000063     102421006003000577590CUTLERY SODA SPOON PL  0000001000+00001314+00000+0001T   00001753+0008171738          1400 UK9214               1AZ
102421008102421046-000014-A   102421004897006177708BATTERIES SIZE:AAA 8PCE0000001000+00001753+00000+0001T   00001753+0000001738          1400 UK9312               1AZ
102421009102421048-000859     102421006003000423422TORCH 9 LED PL 3XAAA   0000001000+00001753+00000+0001T   00001753+0000001738          1400 UK9305               1AZ
102421010102421080-000133-A   102421006003000647019MINI VALENTINES CARD   0000001000+00000437+00000+0001T   00000437+0000001738          1400 UK9112               1AZ
102421011102421048-000859     102421006003000423422TORCH 9 LED PL 3XAAA   0000001000+00001753+00000+0001T   00001753+0000001738          1400 UK9305               1AZ
102421012102421048-000755     102421006003000041282LANTERN PIVOT B/O 12LED0000001000+00004385+00000+0001T   00004385+0000001738          1400 UK9305               1AZ
102421013102421077-000305     102421006003000395422GIFT-BAG WINE 10X35CM  0000001000+00001490+00000+0001T   00001490+0000001738          1400 UK9112               1AZ
102422000102422               102422               170213OZ     1400+00000+OZ0000023708+0000023708+000000000+000003323+0000027031+0000000000+I40000027031+0000000000+Z
102422001102422077-000457     102422006003000285662G/BAG METALLIC JMB SOL 0000001000+00001753+00000+0001T   00001753+0000001744          1400 UK9112               1AZ
102422002102422469-003002     102422006001023878595BUILDING METAL VEHICLES0000001000+00008771+00000+0001T   00008771+0000001744          1400 UK9755               1AZ
102422003102422006-000802     102422006003000653553STREAMERS 5-ROLLS 2.5cm0000001000+00001753+00000+0001T   00001753+0000001744          1400 UK9131               1AZ
102422004102422039-000324     102422006001023775221B/CANDLES+HOLDERS 24PCE0000001000+00001490+00000+0001T   00001490+0000001744          1400 UK9510               1AZ
102422005102422006-000812     102422006001023902832HAT CONE WITH TINSEL   0000001000+00000876+00000+0001T   00000876+0000001744          1400 UK9131               1AZ
102422006102422079-006500     102422006001023557186GLUE GLITTER 6/10 PCE  0000001000+00001753+00000+0001T   00001753+0000001744          1400 UK9130               1AZ
102422007102422903-000087     102422006001704000161SWT SPECKLED-EGGS 50G  0000001000+00001139+00000+0001T   00001139+0000001744          1400 UK9150               1AZ
102422008102422077-000467     102422006003000329991GIFT-BAG STAMP 18X23CM 0000001000+00001753+00000+0001T   00001753+0000001744          1400 UK9112               1AZ
102422009102422007-000711     102422006003000227518NOTE-BK A5 WIRE 80SHTS 0000001000+00004385+00000+0001T   00004385+0000001744          1400 UK9130               1AZ
102422010102422112-116038     102422006009681820246TCS CARRIER BAG MIDI   0000001000+00000035+00000+0001T   00000035+0000001744          1400 UK9090               1AZ
102423000102423               102423               170213OZ     1400+00000+OZ0000005747+0000005747+000000000+000000805+0000006552+0000000000+I40000006552+0000000000+Z
102423001102423301-085004     102423006003000420469ORN LOVE PLAQUE 21X10CM0000001000+00003507+00000+0001T   00003946+0006471749          1400 UK9505               1AZ
102423002102423080-000127     102423006003000424351VALENTINES DAY 36x24CM 0000001000+00002192+00000+0001T   00002192+0000001749          1400 UK9112               1AZ
102423003102423112-116069     102423006009681820277TCS CARRIER BAG JUMBO  0000001000+00000048+00000+0001T   00000048+0000001749          1400 UK9090               1AZ
102424000102424               102424               170213OZ     1400+00000+OZ0000007137+0000007137+000000000+000001000+0000008130+0000000007+I20000000000+0000008130+Z
102424001102424903-000518     102424006001704012782SWT STRAWS S/BERRY 100g0000001000+00001227+00000+0001T   00001227+0000001750          1400 UK9150               1AZ
102424002102424018-019000     102424006003000557288MUG OCC. LOVE JUMBO    0000001000+00005262+00000+0001T   00005262+0000001750          1400 UK9515               1AZ
102424003102424077-000321     102424006001023677501GIFT-BAG 11X14CM E/D FL0000001000+00000613+00000+0001T   00000613+0000001750          1400 UK9112               1AZ
102424004102424112-116038     102424006009681820246TCS CARRIER BAG MIDI   0000001000+00000035+00000+0001T   00000035+0000001750          1400 UK9090               1AZ
102425000102425               102425               170213OZ     1400+00000+OZ0000013675+0000013675+000000000+000001916+0000015591+0000000000+I40000015591+0000000000+Z
102425001102425077-000463     102425006003000321698G/BAG GLITTER MED20x28 0000001000+00002192+00000+0001T   00002192+0000001801          1400 UK9112               1AZ
102425002102425077-000322     102425006001023677532GIFT-BAG 18X23CM E/D FL0000002000+00001227+00000+0001T   00001227+0000001801          1400 UK9112               1AZ
102425003102425903-003075     102425003800065783125SWT CHOC FAFL WAFER 52g0000001000+00000876+00000+0001T   00000876+0000001801          1400 UK9150               1AZ
102425004102425018-000130     102425006001023867537MUG OCC LOVE MINI+HEART0000002000+00003507+00000+0001T   00003507+0000001801          1400 UK9515               1AZ
102425005102425903-000087     102425006001704000161SWT SPECKLED-EGGS 50G  0000001000+00001139+00000+0001T   00001139+0000001801          1400 UK9150               1AZ
102426000102426               102426               170213OZ     1400+00000+OZ0000006138+0000006138+000000000+000000860+0000006998+0000000000+I40000006998+0000000000+Z
102426001102426030-000031-A   102426006003000457588PLAQUE W/WORDS ASSTD   0000001000+00004385+00000+0001T   00004823+0006471803          1400 UK9505               1AZ
102426002102426016-006509     102426006003000567355S/JAR GLS MINI LABEL   0000001000+00001753+00000+0001T   00002192+0008191803          1400 UK9300               1AZ
102427000102427               102427               170213OZ     1400+00000+OZ0000001578+0000001578+000000000+000000221+0000001790+0000000009+I20000000000+0000001790+Z
102427001102427077-000315     102427006003000181186GIFT-BAG 20x28cm MATT  0000001000+00001578+00000+0001T   00001578+0000001803          1400 UK9112               1AZ
A17021300                                          09071174OZSLAVE 1                       UK93IC
A17021301                                          12484022OZSLAVE 1                       UK93IC
M17021391                              CASH        OZSLAVE 1                       Z-REPORT No.   617TOTAL (Sales - Refunds)           4686.25       CASH TO BE BANKED                 2032.80       DEBIT CARDS                          0.00       CREDIT CARDS                      2653.45       Z-READING                         4686.25       AIRTIME DEBIT CARD SALES             0.00       AIRTIME CARD SALES                   0.00       OVERS/UNDERS                         0.00       AIRTIME CASH SALES                   0.00       GIFT CARDS                           0.00       GIFT CARD CASH SALES                 0.00       T O T A L  CASH PAYOUTS              0.00                                                                                                                                                                                                                                                                                                                                                      Z
M17021392                              CASH        OZABSENT                                                                                                                                                                                          ANNUAL LEAVE                                                                                                                                                                                    DAY OFF                                                                                                                                                                                         COMMENTS                                                                                                                                                                                                                                                                                                                                                                                       Z
Y17021300                                          OZ00000000427432+000051
ZOZ17021320163 SLAVE 1      SALES DATA                     NEXT INVOICE NO.  102428 0617
X OZ Slave 1 First invoice 102377 170213 Last invoice 102427 170213 Next invoice 102428 Total number of records 000000215 clbackup completed 20:16:36
