205084000205084               205084               170213OZ     1400+00000+OZ0000003945+0000003945+000000000+000000553+0000004498+0000000000+I40000004498+0000000000+Z
205084001205084077-000299-A   205084006003000670888GIFT-BAG PAPER JMB LOVE0000001000+00001753+00000+0001T   00001753+0000000943          1400 SW8112               2AZ
205084002205084046-000012-A   205084006003000208296BATTERIES H/POWER SZ:AA0000001000+00002192+00000+0001T   00002192+0000000943          1400 SW8312               2AZ
205085000205085               205085               170213OZ     1400+00000+OZ0000000525+0000000525+000000000+000000074+0000000590+0000000009+I20000000000+0000000590+Z
205085001205085903-000155     205085006009803374435SWT LOLLY I LUV U HEART0000001000+00000525+00000+0001T   00000525+0000000944          1400 SW8150               2AZ
205086000205086               205086               170213OZ     1400+00000+OZ0000019337+0000019337+000000000+000002709+0000022046+0000000000+I40000022046+0000000000+Z
205086001205086567-011427     205086009780799352511BK READER BEGIN LEES   0000001000+00003507+00000+0001T   00004823+0008140948          1400 SW8757               2AZ
205086002205086567-010555     205086009780799363142TIPPIE READERS ASSORTED0000001000+00003069+00000+0001T   00003069+0000000948          1400 SW8757               2AZ
205086003205086567-010555     205086009780799363203TIPPIE READERS ASSORTED0000001000+00003069+00000+0001T   00003069+0000000948          1400 SW8757               2AZ
205086004205086567-011428     205086009780799352542BK READER BEGIN LEES   0000001000+00003507+00000+0001T   00004823+0008140948          1400 SW8757               2AZ
205086005205086567-010569     205086006002242057136BOOK READER AFR DISNEY 0000001000+00002630+00000+0001T   00002630+0000000948          1400 SW8757               2AZ
205086006205086567-011427     205086009780799352528BK READER BEGIN LEES   0000001000+00003507+00000+0001T   00004823+0008140948          1400 SW8757               2AZ
205086007205086112-116069     205086006009681820277TCS CARRIER BAG JUMBO  0000001000+00000048+00000+0001T   00000048+0000000948          1400 SW8090               2AZ
205087000205087               205087               170213OZ     1400+00000+OZ0000006839+0000006839+000000000+000000958+0000007797+0000000000+I40000007797+0000000000+Z
205087001205087366-002695     205087006003000222766DRESS UP HAT ROUND GLIT0000001000+00002192+00000+0001T   00002192+0000001022          1400 SW8131               2AZ
205087002205087079-013032-C   205087006003000389520POLY SHAPES            0000001000+00001578+00000+0001T   00001578+0000001022          1400 SW8130               2AZ
205087003205087079-014152     205087006003000253074ART+CRAFT PK50 ASSTD   0000001000+00003069+00000+0001T   00003069+0000001022          1400 SW8130               2AZ
205088000205088               205088               170213OZ     1400+00000+OZ0000002192+0000002192+000000000+000000307+0000002490+0000000009+I20000000000+0000002490+Z
205088001205088566-000359     205088006003000582709STICKER BOOK LOVE SPARK0000001000+00002192+00000+0001T   00002192+0000001036          1400 SW8130               2AZ
205089000205089               205089               170213OZ     1400+00000+OZ0000001753+0000001753+000000000+000000246+0000001990+0000000009+I20000000000+0000001990+Z
205089001205089366-002809     205089006003000222643DRESS UP MOUSTACHE SET 0000001000+00001753+00000+0001T   00001753+0000001138          1400 SW8131               2AZ
205090000205090               205090               170213OZ     1400+00000+OZ0000001227+0000001227+000000000+000000172+0000001390+0000000009+I20000000000+0000001390+Z
205090001205090077-000322     205090006001023677532GIFT-BAG 18X23CM E/D FL0000001000+00001227+00000+0001T   00001227+0000001154          1400 SW8112               2AZ
205091000205091               205091               170213OZ     1400+00000+OZ0000011007+0000011007+000000000+000001543+0000012550+0000000000+I20000000000+0000012550+Z
205091001205091082-098786     205091006001492987866SUNGLASS KIDS CAT EYE  0000001000+00003946+00000+0001T   00003946+0000001156          1400 SW8160               2AZ
205091002205091464-009010     205091006001023800756FISHING-GAME MAG +ROD  0000001000+00003507+00000+0001T   00003507+0000001156          1400 SW8785               2AZ
205091003205091566-000007     205091006001023761187S/BOOK SUPER VALUE     0000002000+00001753+00000+0001T   00001753+0000001156          1400 SW8130               2AZ
205091004205091112-116069     205091006009681820277TCS CARRIER BAG JUMBO  0000001000+00000048+00000+0001T   00000048+0000001156          1400 SW8090               2AZ
205092000205092               205092               170213OZ     1400+00000+OZ0000003506+0000003506+000000000+000000492+0000003990+0000000008+I20000000000+0000003990+Z
205092001205092089-000184     205092006003000577323KEY CHAIN OWL POLY MINI0000001000+00003069+00000+0001T   00003069+0000001156          1400 SW8205               2AZ
205092002205092080-000133     205092006003000535613CARD&ENV MINI ASTD DSGN0000001000+00000437+00000+0001T   00000437+0000001156          1400 SW8112               2AZ
205093000205093               205093               170213OZ     1400+00000+OZ0000002630+0000002630+000000000+000000369+0000002990+0000000009+I20000000000+0000002990+Z
205093001205093006-000111     205093006003000519385BALLOONS LARGE 12PCE   0000001000+00002630+00000+0001T   00002630+0000001158          1400 SW8131               2AZ
205094000205094               205094               170213OZ     1400+00000+OZ0000004110+0000004110+000000000+000000577+0000004680+0000000007+I20000000000+0000004680+Z
205094001205094566-000359     205094006003000582709STICKER BOOK LOVE SPARK0000001000+00002192+00000+0001T   00002192+0000001213          1400 SW8130               2AZ
205094002205094016-006516     205094006003000351503S/JAR GLS CHECK 150ML  0000001000+00001490+00000+0001T   00001490+0000001213          1400 SW8300               2AZ
205094003205094112-116038     205094006009681820246TCS CARRIER BAG MIDI   0000001000+00000035+00000+0001T   00000035+0000001213          1400 SW8090               2AZ
205094004205094903-000183     205094006003000451043SWT LB HEART LOLLY     0000001000+00000393+00000+0001T   00000393+0000001213          1400 SW8150               2AZ
205095000205095               205095               170213OZ     1400+00000+OZ0000001752+0000001752+000000000+000000246+0000001990+0000000008+I20000000000+0000001990+Z
205095001205095077-000314     205095006003000181148GIFT-BAG 11X14CM MATT  0000002000+00000876+00000+0001T   00000876+0000001220          1400 SW8112               2AZ
205096000205096               205096               170213OZ     1400+00000+OZ0000017532+0000017532+000000000+000002459+0000019990+0000000001+I20000000000+0000019990+Z
205096001205096301-085000     205096006003000674299 ORN OCC. LOVE HEARTS  0000002000+00002192+00000+0001T   00002192+0000001242          1400 SW8505               2AZ
205096002205096301-085008     205096006003000673933ORN OCC.LOVE TINSEL HRT0000002000+00003069+00000+0001T   00003069+0000001242          1400 SW8505               2AZ
205096003205096077-000456     205096006003000285549G/BAG METALLIC JMB EMB 0000001000+00002630+00000+0001T   00002630+0000001242          1400 SW8112               2AZ
205096004205096077-000251     205096006003000639106GIFT-DECOR RIBBON      0000001000+00002630+00000+0001T   00002630+0000001242          1400 SW8112               2AZ
205096005205096077-000151     205096006008766114676GIFT-WRAP C/PHANE ASSTD0000001000+00000876+00000+0001T   00000876+0000001242          1400 SW8112               2AZ
205096006205096080-000133-A   205096006003000647019MINI VALENTINES CARD   0000002000+00000437+00000+0001T   00000437+0000001242          1400 SW8112               2AZ
205097000205097               205097               170213OZ     1400+00000+OZ0000007014+0000007014+000000000+000000982+0000007996+0000000000+I40000007996+0000000000+Z
205097001205097028-000031     205097006003000270897COOLER-BAG THERMAL 6PK 0000002000+00003507+00000+0001T   00003507+0000001253          1400 SW8305               2AZ
205098000205098               205098               170213OZ     1400+00000+OZ0000021093+0000021093+000000000+000002955+0000024048+0000000000+I40000024048+0000000000+Z
205098001205098362-000307     205098006003000519750HAIR HEADBAND PRINTED  0000001000+00001314+00000+0001T   00001314+0000001320          1400 SW8160               2AZ
205098002205098263-000130     205098006003000305742MOTORBIKE B/BACK 11CM  0000001000+00002630+00000+0001T   00002630+0000001320          1400 SW8710               2AZ
205098003205098072-020311     205098006003000494132PET DOG TOY VINYL BALL 0000001000+00003069+00000+0001T   00003069+0000001320          1400 SW8870               2AZ
205098004205098112-116069     205098006009681820277TCS CARRIER BAG JUMBO  0000001000+00000048+00000+0001T   00000048+0000001320          1400 SW8090               2AZ
205098005205098369-000042     205098006001023993854BABY BEAR RATTLE ASSTD 0000001000+00004385+00000+0001T   00004385+0000001320          1400 SW8745               2AZ
205098006205098072-020262     205098006003000305254PET DOG-CHEW TYRE LARGE0000001000+00004385+00000+0001T   00004385+0000001320          1400 SW8870               2AZ
205098007205098361-003002     205098006003000302734DOLL 11cm W/DRESSES    0000001000+00005262+00000+0001T   00005262+0000001320          1400 SW8725               2AZ
205099000205099               205099               170213OZ     1400+00000+OZ0000005085+0000005085+000000000+000000712+0000005797+0000000000+I40000005797+0000000000+Z
205099001205099018-000136     205099006001023659026MUG OCC LOVE W/PLUSH   0000001000+00003507+00000+0001T   00003507+0000001328          1400 SW8515               2AZ
205099002205099080-000124     205099006003000297733CARD & ENV VALENTINES  0000001000+00001578+00000+0001T   00001578+0000001328          1400 SW8112               2AZ
205100000205100               205100               170213OZ     1400+00000+OZ0000018416+0000018416+000000000+000002580+0000020996+0000000000+I40000020996+0000000000+Z
205100001205100368-000049     205100006003000536955PLUSH BEAR 15cm LOVE   0000001000+00004385+00000+0001T   00004385+0000001333          1400 SW8745               2AZ
205100002205100077-000011-C   205100006001023808523TISSUE 10xSHTS RED     0000001000+00000876+00000+0001T   00000876+0000001333          1400 SW8112               2AZ
205100003205100077-000299-A   205100006003000670888GIFT-BAG PAPER JMB LOVE0000001000+00001753+00000+0001T   00001753+0000001333          1400 SW8112               2AZ
205100004205100368-000637     205100006001023874092PLUSH BEAR SLEEPING LOV0000001000+00011402+00000+0001T   00012279+0006471333          1400 SW8745               2AZ
205101000205101               205101               170213OZ     1400+00000+OZ0000005260+0000005260+000000000+000000738+0000005990+0000000008+I20000000000+0000005990+Z
205101001205101007-000049     205101006003000274994OFFICE E/LOPE A4 PK 5  0000002000+00002630+00000+0001T   00002630+0000001336          1400 SW8130               2AZ
205102000205102               205102               170213OZ     1400+00000+OZ0000007452+0000007452+000000000+000001045+0000008490+0000000007+I20000000000+0000008490+Z
205102001205102040-000923     205102006001023587831CANDLE-HOLDER GLS 13.5 0000001000+00001753+00000+0001T   00001753+0000001337          1400 SW8510               2AZ
205102002205102304-000720     205102006001023843050F/BUNCH ROSE 6-HEAD AST0000001000+00002630+00000+0001T   00002630+0000001337          1400 SW8510               2AZ
205102003205102200-000168     205102006003000577026PICNIC PLATTERS 8-PACK 0000001000+00003069+00000+0001T   00003069+0000001337          1400 SW8214               2AZ
205103000205103               205103               170213OZ     1400+00000+OZ0000028894+0000028894+000000000+000004051+0000032945+0000000000+I40000032945+0000000000+Z
205103001205103112-116069     205103006009681820277TCS CARRIER BAG JUMBO  0000001000+00000048+00000+0001T   00000048+0000001346          1400 SW8090               2AZ
205103002205103903-000138     205103006002099004314SWT GS WINE GUMS 60G   0000001000+00000788+00000+0001T   00000788+0000001346          1400 SW8150               2AZ
205103003205103203-005005     205103006003000088577GAME-TOWER W/4 GLASSES 0000001000+00013157+00000+0001T   00013157+0000001346          1400 SW8300               2AZ
205103004205103251-000070     205103006003000451777PROTECTION-PADS BLK ADH0000004000+00001753+00000+0001T   00001753+0000001346          1400 SW8810               2AZ
205103005205103159-000040     205103006001023767691HOOK-HANGER 4PC S/S    0000001000+00002630+00000+0001T   00002630+0000001346          1400 SW8200               2AZ
205103006205103088-000011     205103006001023752826AIR-FRESHNER GEL ASSTD 0000001000+00001753+00000+0001T   00001753+0000001346          1400 SW8212               2AZ
205103007205103072-000228     205103006003000235940DOG-COL REFLCTV 25-40cm0000002000+00001753+00000+0001T   00001753+0000001346          1400 SW8870               2AZ
205104000205104               205104               170213OZ     1400+00000+OZ0000000876+0000000876+000000000+000000123+0000000990+0000000009+I20000000000+0000000990+Z
205104001205104077-000011-E   205104006001023808646TISSUE-WRAP PINK 10PCE 0000001000+00000876+00000+0001T   00000876+0000001347          1400 SW8112               2AZ
205105000205105               205105               170213OZ     1400+00000+OZ0000024366+0000024366+000000000+000003418+0000027784+0000000000+I40000027784+0000000000+Z
205105001205105012-000001     205105006003000331048MICRO PLATE-COVER 26X6 0000001000+00001753+00000+0001T   00002192+0008191354          1400 SW8300               2AZ
205105002205105200-003024     205105006001023657299REFUSE BAGS 20PCE BLACK0000002000+00001753+00000+0001T   00001753+0000001354          1400 SW8214               2AZ
205105003205105036-000605     205105006001023158611WASHING-PEGS WDN PCK-240000002000+00001490+00000+0001T   00001490+0000001354          1400 SW8212               2AZ
205105004205105306-000027     205105006009654960900COTTON WOOL PADS 2-PACK0000001000+00003507+00000+0001T   00003507+0000001354          1400 SW8200               2AZ
205105005205105033-000119     205105006003000285563COMBS PL STYLING 3PC   0000001000+00001753+00000+0001T   00001753+0000001354          1400 SW8200               2AZ
205105006205105306-000989     205105006003000559954FIRSTAID PLASTER 30PC  0000001000+00001753+00000+0001T   00001753+0000001354          1400 SW8200               2AZ
205105007205105306-000973     205105006003000559473FIRSTAID PLASTER 30PC  0000001000+00001753+00000+0001T   00001753+0000001354          1400 SW8200               2AZ
205105008205105033-001402     205105006009654960498HAIR-CURLERS 6PCE LRG  0000001000+00001227+00000+0001T   00001227+0000001354          1400 SW8200               2AZ
205105009205105220-009001     205105006001023167804ROSE TEASPOON 6PCE     0000001000+00002630+00000+0001T   00002630+0000001354          1400 SW8300               2AZ
205105010205105082-026204     205105006001023816443R/GLASSES STRINGS 2PCE 0000004000+00000876+00000+0001T   00000876+0000001354          1400 SW8160               2AZ
205106000205106               205106               170213OZ     1400+00000+OZ0000002192+0000002192+000000000+000000307+0000002490+0000000009+I20000000000+0000002490+Z
205106001205106047-005127     205106006003000093861CABLETIES 100/150/200mm0000001000+00002192+00000+0001T   00002192+0000001355          1400 SW8880               2AZ
205107000205107               205107               170213OZ     1400+00000+OZ0000009765+0000009765+000000000+000001370+0000011130+0000000005+I20000000000+0000011130+Z
205107001205107031-000848     205107006001023851901P/FRAME COLLAGE 2ASSTD 0000001000+00004385+00000+0001T   00004385+0000001400          1400 SW8510               2AZ
205107002205107112-116038     205107006009681820246TCS CARRIER BAG MIDI   0000001000+00000035+00000+0001T   00000035+0000001400          1400 SW8090               2AZ
205107003205107105-001005     205107006001023858214CONTAINERS MINI 6PCE   0000001000+00001402+00000+0001T   00001402+0000001400          1400 SW8210               2AZ
205107004205107071-030012     205107006003000283842PEN NVLTY GLITTER 6PC  0000001000+00002630+00000+0001T   00002630+0000001400          1400 SW8130               2AZ
205107005205107080-000133     205107006003000535613CARD&ENV MINI ASTD DSGN0000001000+00000437+00000+0001T   00000437+0000001400          1400 SW8112               2AZ
205107006205107077-000011-F   205107006001023808431TISSUE-WRAP BLUE/LILAC 0000001000+00000876+00000+0001T   00000876+0000001400          1400 SW8112               2AZ
205108000205108               205108               170213OZ     1400+00000+OZ0000003156+0000003156+000000000+000000442+0000003590+0000000008+I20000000000+0000003590+Z
205108001205108018-000127     205108006001023380289MUG OCC STRAIGHT LOVE  0000002000+00001578+00000+0001T   00001753+0006471412          1400 SW8515               2AZ
205109000205109               205109               170213OZ     1400+00000+OZ0000016660+0000016660+000000000+000002334+0000018990+0000000004+I20000000000+0000018990+Z
205109001205109077-000270     205109006003000395453GIFT-BAG PPR JMB 33X45 0000001000+00002630+00000+0001T   00002630+0000001420          1400 SW8112               2AZ
205109002205109080-000127     205109006003000424351VALENTINES DAY 36x24CM 0000001000+00002192+00000+0001T   00002192+0000001420          1400 SW8112               2AZ
205109003205109071-000701     205109006001023852830CLIPBOARD A4  23x30cm  0000001000+00003507+00000+0001T   00003507+0000001420          1400 SW8130               2AZ
205109004205109018-050000     205109006003000412679MUG OCC LOVE TWIN BEAR 0000001000+00006139+00000+0001T   00006139+0000001420          1400 SW8515               2AZ
205109005205109041-007001-B   205109006003000636983H/GLOW LIQUID LAVENDER 0000001000+00002192+00000+0001T   00002192+0000001420          1400 SW8200               2AZ
205110000205110               205110               170213OZ     1400+00000+OZ0000016268+0000016268+000000000+000002280+0000018548+0000000000+I40000018548+0000000000+Z
205110001205110112-116069     205110006009681820277TCS CARRIER BAG JUMBO  0000001000+00000048+00000+0001T   00000048+0000001422          1400 SW8090               2AZ
205110002205110006-000111     205110006003000519385BALLOONS LARGE 12PCE   0000001000+00002630+00000+0001T   00002630+0000001422          1400 SW8131               2AZ
205110003205110006-000166-D   205110006003000516490BALLOONS LRG 6PC RED   0000001000+00001314+00000+0001T   00001314+0000001422          1400 SW8131               2AZ
205110004205110301-085008     205110006003000673933ORN OCC.LOVE TINSEL HRT0000004000+00003069+00000+0001T   00003069+0000001422          1400 SW8505               2AZ
205111000205111               205111               170213OZ     1400+00000+OZ0000004382+0000004382+000000000+000000614+0000004996+0000000000+I40000004996+0000000000+Z
205111001205111903-000510     205111006001704012621SWEET MS ZBDZ S/BERRY  0000001000+00001227+00000+0001T   00001227+0000001430          1400 SW8150               2AZ
205111002205111903-000519     205111006001704012805SWT MS LIQ-O-GHETTI    0000001000+00001227+00000+0001T   00001227+0000001430          1400 SW8150               2AZ
205111003205111903-000843     205111008693029031067SWT GUMMY JELAXY 80G   0000002000+00000964+00000+0001T   00000964+0000001430          1400 SW8150               2AZ
205112000205112               205112               170213OZ     1400+00000+OZ0000003681+0000003681+000000000+000000516+0000004190+0000000007+I20000000000+0000004190+Z
205112001205112903-000518     205112006001704012782SWT STRAWS S/BERRY 100g0000003000+00001227+00000+0001T   00001227+0000001509          1400 SW8150               2AZ
205113000205113               205113               170213OZ     1400+00000+OZ0000001227+0000001227+000000000+000000172+0000001390+0000000009+I20000000000+0000001390+Z
205113001205113077-000245     205113006001023759214GIFT-RIBBON METALLICx2 0000001000+00001227+00000+0001T   00001227+0000001510          1400 SW8112               2AZ
205114000205114               205114               170213OZ     1400+00000+OZ0000005959+0000005959+000000000+000000836+0000006790+0000000005+I20000000000+0000006790+Z
205114001205114083-000049     205114004891035200024CIG-LIGHTER DISPOSABLE 0000001000+00000437+00000+0001T   00000437+0000001619          1400 SW8315               2AZ
205114002205114018-000136     205114006001023659026MUG OCC LOVE W/PLUSH   0000001000+00003507+00000+0001T   00003507+0000001619          1400 SW8515               2AZ
205114003205114077-000315     205114006003000181186GIFT-BAG 20x28cm MATT  0000001000+00001578+00000+0001T   00001578+0000001619          1400 SW8112               2AZ
205114004205114080-000133-A   205114006003000647019MINI VALENTINES CARD   0000001000+00000437+00000+0001T   00000437+0000001619          1400 SW8112               2AZ
205115000205115               205115               170213OZ     1400+00000+OZ0000033283+0000033283+000000000+000004663+0000037946+0000000000+I40000037946+0000000000+Z
205115001205115031-000868-B   205115006001023798565P/FRAME PL BLCK 13X18CM0000002000+00002630+00000+0001T   00002630+0000001622          1400 SW8510               2AZ
205115002205115004-071214     205115006003000464340COMPUTER TABLET STAND  0000001000+00004385+00000+0001T   00004385+0000001622          1400 SW8310               2AZ
205115003205115018-030000     205115006003000421060MUG OCCASIONS LOVE 2PCE0000001000+00004385+00000+0001T   00004385+0000001622          1400 SW8515               2AZ
205115004205115304-001204     205115006001023737984FLOWER OCC. TEDDY/ROSES0000001000+00001402+00000+0001T   00001490+0006471622          1400 SW8510               2AZ
205115005205115112-116069     205115006009681820277TCS CARRIER BAG JUMBO  0000001000+00000048+00000+0001T   00000048+0000001622          1400 SW8090               2AZ
205115006205115903-000616     205115006003000644827SWT HS SWORD 60cm      0000001000+00003507+00000+0001T   00003507+0000001622          1400 SW8150               2AZ
205115007205115001-000500     205115006003000662005WINE-GLASS-BOTTLE 26CM 0000001000+00013157+00000+0001T   00013157+0000001622          1400 SW8515               2AZ
205115008205115903-000087     205115006001704000161SWT SPECKLED-EGGS 50G  0000001000+00001139+00000+0001T   00001139+0000001622          1400 SW8150               2AZ
205116000205116               205116               170213OZ     1400+00000+OZ0000004385+0000004385+000000000+000000614+0000004990+0000000009+I20000000000+0000004990+Z
205116001205116028-000030     205116006001023810908COOLER-BAG 6PACK       0000001000+00004385+00000+0001T   00004385+0000001622          1400 SW8305               2AZ
205117000205117               205117               170213OZ     1400+00000+OZ0000005347+0000005347+000000000+000000750+0000006097+0000000000+I40000006097+0000000000+Z
205117001205117566-000359     205117006003000582709STICKER BOOK LOVE SPARK0000001000+00002192+00000+0001T   00002192+0000001624          1400 SW8130               2AZ
205117002205117089-000004     205117006003000137749KEY CHAIN MTL CHARMS   0000001000+00001753+00000+0001T   00001753+0000001624          1400 SW8205               2AZ
205117003205117304-001204     205117006001023737984FLOWER OCC. TEDDY/ROSES0000001000+00001402+00000+0001T   00001490+0006471624          1400 SW8510               2AZ
205118000205118               205118               170213OZ     1400+00000+OZ0000005082+0000005082+000000000+000000712+0000005790+0000000004+I20000000000+0000005790+Z
205118001205118077-000245     205118006001023759214GIFT-RIBBON METALLICx2 0000002000+00001227+00000+0001T   00001227+0000001635          1400 SW8112               2AZ
205118002205118006-000166-D   205118006003000516490BALLOONS LRG 6PC RED   0000002000+00001314+00000+0001T   00001314+0000001635          1400 SW8131               2AZ
205119000205119               205119               170213OZ     1400+00000+OZ0000027187+0000027187+000000000+000003808+0000030990+0000000005+I20000000000+0000030990+Z
205119001205119077-000299-A   205119006003000670888GIFT-BAG PAPER JMB LOVE0000001000+00001753+00000+0001T   00001753+0000001637          1400 SW8112               2AZ
205119002205119368-000113     205119006001023780874PLUSH BLINGED LOVE 30cm0000001000+00012279+00000+0001T   00012279+0000001637          1400 SW8745               2AZ
205119003205119030-004015     205119006003000467624PLAQUE WDN SIGN 30X20CM0000001000+00009648+00000+0001T   00009648+0000001637          1400 SW8505               2AZ
205119004205119031-000002-A   205119006003000247103P/FRAME LOVE 7.5X7.5CM 0000001000+00003507+00000+0001T   00003507+0000001637          1400 SW8510               2AZ
205120000205120               205120               170213OZ     1400+00000+OZ0000001753+0000001753+000000000+000000246+0000001990+0000000009+I20000000000+0000001990+Z
205120001205120366-002809     205120006003000222643DRESS UP MOUSTACHE SET 0000001000+00001753+00000+0001T   00001753+0000001641          1400 SW8131               2AZ
205121000205121               205121               170213OZ     1400+00000+OZ0000008816+0000008816+000000000+000001236+0000010052+0000000000+I40000010052+0000000000+Z
205121001205121366-006104     205121006003000616930DRESS UP FACE PAINT    0000001000+00001753+00000+0001T   00001753+0000001650          1400 SW8131               2AZ
205121002205121366-000900     205121006003000006960DRESS UP WINGS BUG     0000001000+00006139+00000+0001T   00006139+0000001650          1400 SW8131               2AZ
205121003205121366-002681     205121006003000653744DRESS UP HAT FIRE CHIEF0000001000+00000876+00000+0001T   00000876+0000001650          1400 SW8131               2AZ
205121004205121112-116069     205121006009681820277TCS CARRIER BAG JUMBO  0000001000+00000048+00000+0001T   00000048+0000001650          1400 SW8090               2AZ
205122000205122               205122               170213OZ     1400+00000+OZ0000003507+0000003507+000000000+000000491+0000003990+0000000008+I20000000000+0000003990+Z
205122001205122031-000923     205122006001023669933P/FRAME BLK W/WORDS    0000001000+00003507+00000+0001T   00003507+0000001650          1400 SW8510               2AZ
205123000205123               205123               170213OZ     1400+00000+OZ0000002630+0000002630+000000000+000000369+0000002999+0000000000+I40000002999+0000000000+Z
205123001205123266-000938     205123006001023186676SWORD+SCABBARD         0000001000+00002630+00000+0001T   00002630+0000001651          1400 SW8710               2AZ
205124000205124               205124               170213OZ     1400+00000+OZ0000004385+0000004385+000000000+000000614+0000004990+0000000009+I20000000000+0000004990+Z
205124001205124006-000190     205124006003000685530BALLOONS LOVE 81x91cm  0000001000+00004385+00000+0001T   00004385+0000001653          1400 SW8131               2AZ
205125000205125               205125               170213OZ     1400+00000+OZ0000007016+0000007016+000000000+000000983+0000007990+0000000009+I20000000000+0000007990+Z
205125001205125562-000070     205125006003000600748EDU PLAY DOUGH 50g 8pc 0000001000+00007016+00000+0001T   00007016+0000001657          1400 SW8755               2AZ
205126000205126               205126               170213OZ     1400+00000+OZ0000007452+0000007452+000000000+000001045+0000008490+0000000007+I20000000000+0000008490+Z
205126001205126566-000359     205126006003000582709STICKER BOOK LOVE SPARK0000001000+00002192+00000+0001T   00002192+0000001658          1400 SW8130               2AZ
205126002205126018-000129     205126006001023403353MUG OCC. LOVE V-SHAPE  0000001000+00002630+00000+0001T   00002630+0000001658          1400 SW8515               2AZ
205126003205126077-000475     205126006003000640775GIFT-BAG DESIGNER MED  0000001000+00002630+00000+0001T   00002630+0000001658          1400 SW8112               2AZ
205127000205127               205127               170213OZ     1400+00000+OZ0000002678+0000002678+000000000+000000376+0000003054+0000000000+I40000003054+0000000000+Z
205127001205127107-003120     205127006003000676958BASIN W/HANDLES FLEXI  0000001000+00002630+00000+0001T   00002630+0000001659          1400 SW8210               2AZ
205127002205127112-116069     205127006009681820277TCS CARRIER BAG JUMBO  0000001000+00000048+00000+0001T   00000048+0000001659          1400 SW8090               2AZ
205128000205128               205128               170213OZ     1400+00000+OZ0000014073+0000014073+000000000+000001973+0000016040+0000000006+I20000000000+0000016040+Z
205128001205128018-050000     205128006003000412679MUG OCC LOVE TWIN BEAR 0000001000+00006139+00000+0001T   00006139+0000001700          1400 SW8515               2AZ
205128002205128018-000135     205128006003000284474MUG OCC. DAD TUBBY     0000001000+00002630+00000+0001T   00002630+0000001700          1400 SW8515               2AZ
205128003205128077-000310     205128006001023608635GIFT-BAG 18X23CM GLOSS 0000002000+00001314+00000+0001T   00001314+0000001700          1400 SW8112               2AZ
205128004205128112-116069     205128006009681820277TCS CARRIER BAG JUMBO  0000001000+00000048+00000+0001T   00000048+0000001700          1400 SW8090               2AZ
205128005205128903-000897     205128008692806325207SWT CHOC DBL MINI ROLL 0000003000+00000876+00000+0001T   00000876+0000001700          1400 SW8150               2AZ
205129000205129               205129               170213OZ     1400+00000+OZ0000004385+0000004385+000000000+000000614+0000004990+0000000009+I20000000000+0000004990+Z
205129001205129018-030000     205129006003000421060MUG OCCASIONS LOVE 2PCE0000001000+00004385+00000+0001T   00004385+0000001701          1400 SW8515               2AZ
205130000205130               205130               170213OZ     1400+00000+OZ0000003680+0000003680+000000000+000000516+0000004190+0000000006+I20000000000+0000004190+Z
205130001205130565-000100     205130006003000571147NOVELTY SHOELACES 6 COL0000002000+00001490+00000+0001T   00001490+0000001702          1400 SW8745               2AZ
205130002205130033-010721     205130006001023678669SAFETY-PINS 20PCE ASSTD0000001000+00000700+00000+0001T   00000700+0000001702          1400 SW8200               2AZ
205131000205131               205131               170213OZ     1400+00000+OZ0000022850+0000022850+000000000+000003200+0000026050+0000000000+I40000026050+0000000000+Z
205131001205131365-003000     205131006003000394975PLAY SET 15PC TEA SET  0000002000+00004385+00000+0001T   00004385+0000001704          1400 SW8725               2AZ
205131002205131112-116069     205131006009681820277TCS CARRIER BAG JUMBO  0000001000+00000048+00000+0001T   00000048+0000001704          1400 SW8090               2AZ
205131003205131158-008937     205131006003000571642TOILET ROLL HOLDER     0000001000+00004385+00000+0001T   00004385+0000001704          1400 SW8300               2AZ
205131004205131158-003092     205131006003000621644PAPER TOWEL HOLDER CHR 0000001000+00005262+00000+0001T   00005262+0000001704          1400 SW8300               2AZ
205131005205131079-130010     205131006003000496624ART+CRAFT FOAM DOLLS   0000001000+00004385+00000+0001T   00004385+0000001704          1400 SW8130               2AZ
205132000205132               205132               170213OZ     1400+00000+OZ0000001753+0000001753+000000000+000000246+0000001990+0000000009+I20000000000+0000001990+Z
205132001205132078-000026     205132006936198407090SUPERGLUE 3,0g GEL     0000001000+00001753+00000+0001T   00001753+0000001710          1400 SW8810               2AZ
A17021300                                          09460929OZSLAVE 2                       SW83IC
M17021391                              CASH        OZSLAVE 2                       Z-REPORT No.   617TOTAL (Sales - Refunds)           4767.69       CASH TO BE BANKED                 2131.20       DEBIT CARDS                          0.00       CREDIT CARDS                      2636.49       Z-READING                         4767.69       AIRTIME DEBIT CARD SALES             0.00       AIRTIME CARD SALES                   0.00       OVERS/UNDERS                         0.00       AIRTIME CASH SALES                   0.00       GIFT CARDS                           0.00       GIFT CARD CASH SALES                 0.00       T O T A L  CASH PAYOUTS              0.00                                                                                                                                                                                                                                                                                                                                                      Z
M17021392                              CASH        OZABSENT                                                                                                                                                                                          ANNUAL LEAVE                                                                                                                                                                                    DAY OFF                                                                                                                                                                                         COMMENTS                                                                                                                                                                                                                                                                                                                                                                                       Z
Y17021300                                          OZ00000000418363+000049
ZOZ17021320163 SLAVE 2      SALES DATA                     NEXT INVOICE NO.  205133 0617
X OZ Slave 2 First invoice 205084 170213 Last invoice 205132 170213 Next invoice 205133 Total number of records 000000196 clbackup completed 20:16:37
