103424000103424               103424               170213PA     1400+00000+PA0000003506+0000003506+000000000+000000492+0000003990+0000000008+I20000000000+0000003990+Z
103424001103424200-003024     103424006001023657299REFUSE BAGS 20PCE BLACK0000001000+00001753+00000+0001T   00001753+0000000953          1400 AS6214               1AZ
103424002103424200-003026     103424006003000276448REFUSE BAGS 10PCE GREEN0000001000+00001753+00000+0001T   00001753+0000000953          1400 AS6214               1AZ
103425000103425               103425               170213PA     1400+00000+PA0000004420+0000004420+000000000+000000619+0000005030+0000000009+I20000000000+0000005030+Z
103425001103425024-000118     103425006001023422316N/STICK C/PAN HEART    0000001000+00004385+00000+0001T   00004385+0000001007          1400 AS6300               1AZ
103425002103425112-116038     103425006009681820246TCS CARRIER BAG MIDI   0000001000+00000035+00000+0001T   00000035+0000001007          1400 AS6090               1AZ
103426000103426               103426               170213PA     1400+00000+PA0000008770+0000008770+000000000+000001228+0000009990+0000000008+I20000000000+0000009990+Z
103426001103426206-000460     103426006003000619986BOOKMARK ZIPPER        0000002000+00004385+00000+0001T   00004385+0000001013          1400 AS6321               1AZ
103427000103427               103427               170213PA     1400+00000+PA0000006139+0000006139+000000000+000000860+0000006990+0000000009+I20000000000+0000006990+Z
103427001103427586-011940     103427006001492119403WATCH KIDS CAR         0000001000+00006139+00000+0001T   00006139+0000001033          1400 AS6160               1AZ
103428000103428               103428               170213PA     1400+00000+PA0000014290+0000014290+000000000+000002002+0000016290+0000000002+I20000000000+0000016290+Z
103428001103428018-050000     103428006003000412679MUG OCC LOVE TWIN BEAR 0000001000+00006139+00000+0001T   00006139+0000001036          1400 AS6515               1AZ
103428002103428079-013104     103428006001023863799CRAFT DIY HAND-BAG     0000001000+00002630+00000+0001T   00002630+0000001036          1400 AS6130               1AZ
103428003103428261-000121     103428006001023341600GUN-CAPS 8-SHOT CARD-9 0000001000+00000700+00000+0001T   00000700+0000001036          1400 AS6710               1AZ
103428004103428006-000166-G   103428006003000607976BALLOONS HELIUM 6PC BLK0000001000+00001314+00000+0001T   00001314+0000001036          1400 AS6131               1AZ
103428005103428261-000035     103428006003000550258GUN 4PC POLICE SET     0000001000+00003507+00000+0001T   00003507+0000001036          1400 AS6710               1AZ
103429000103429               103429               170213PA     1400+00000+PA0000006574+0000006574+000000000+000000921+0000007490+0000000005+I20000000000+0000007490+Z
103429001103429031-000844     103429006001023851789P/FRAME WDN WORDS 2ASS 0000001000+00003507+00000+0001T   00003507+0000001040          1400 AS6510               1AZ
103429002103429030-000010     103429006003000084395P/DOOR HANGER 2-ASSTD  0000001000+00001314+00000+0001T   00001490+0008181040          1400 AS6505               1AZ
103429003103429003-000250     103429006003000035045ORN DECOR NOVELTY GRASS0000001000+00001753+00000+0001T   00001753+0000001040          1400 AS6505               1AZ
103430000103430               103430               170213PA     1400+00000+PA0000008770+0000008770+000000000+000001228+0000009990+0000000008+I20000000000+0000009990+Z
103430001103430565-004005     103430006003000109081NOVELTY BUG VIEWER     0000001000+00004385+00000+0001T   00004385+0000001045          1400 AS6745               1AZ
103430002103430565-000886     103430006003000337057CRITTERS PUFFER BALLS  0000001000+00004385+00000+0001T   00004385+0000001045          1400 AS6745               1AZ
103431000103431               103431               170213PA     1400+00000+PA0000000000+0000000000+000000000+000000000+0000000000+0000000000+I20000000000+0000000000+Z
103431001103431261-000121     103431006001023341600GUN-CAPS 8-SHOT CARD-9 0000001000-00000700+00000+0001T   00000700+0000001051          1400 AS67102IC            1AZ
103431002103431261-000121     103431006001023341600GUN-CAPS 8-SHOT CARD-9 0000001000+00000700+00000+0001T   00000700+0000001051          1400 AS67102IC            1 Z
103432000103432               103432               170213PA     1400+00000+PA0000016733+0000016733+000000000+000002344+0000019070+0000000007+I20000000000+0000019070+Z
103432001103432072-020242     103432006003000053728PET BED COTTON TEXTILE 0000001000+00008771+00000+0001T   00008771+0000001101          1400 AS6870               1AZ
103432002103432301-085007     103432006003000673698ORN OCC. LOVE S/PLAQUE 0000001000+00007893+00000+0001T   00007893+0000001101          1400 AS6505               1AZ
103432003103432112-116053     103432006006438002399TCS CARRIER BAG 38L    0000001000+00000069+00000+0001T   00000069+0000001101          1400 AS6090               1AZ
103433000103433               103433               170213PA     1400+00000+PA0000001753+0000001753+000000000+000000246+0000001990+0000000009+I20000000000+0000001990+Z
103433001103433046-002016-PK2 103433004897006175056BATTERIES CR-2016  2PCE0000001000+00001753+00000+0001T   00001753+0000001118          1400 AS6312               1AZ
103434000103434               103434               170213PA     1400+00000+PA0000036783+0000036783+000000000+000005158+0000041941+0000000000+I40000041941+0000000000+Z
103434001103434206-000370     103434006003000631315STRAW P/DRINKING GLASS 0000001000+00001753+00000+0001T   00001753+0000001138          1400 AS6321               1AZ
103434002103434030-000031-A   103434006003000457588PLAQUE W/WORDS ASSTD   0000001000+00004385+00000+0001T   00004823+0006471138          1400 AS6505               1AZ
103434003103434031-000844     103434006001023851789P/FRAME WDN WORDS 2ASS 0000001000+00003507+00000+0001T   00003507+0000001138          1400 AS6510               1AZ
103434004103434079-003013     103434006003000633838PAINT ACRYLIC TUBE BRNZ0000001000+00002630+00000+0001T   00002630+0000001138          1400 AS6130               1AZ
103434005103434079-003015     103434006003000634071PAINT ACRYLIC 75ml GOLD0000001000+00002630+00000+0001T   00002630+0000001138          1400 AS6130               1AZ
103434006103434903-000183     103434006003000451043SWT LB HEART LOLLY     0000002000+00000393+00000+0001T   00000393+0000001138          1400 AS6150               1AZ
103434007103434368-000637     103434006001023874092PLUSH BEAR SLEEPING LOV0000001000+00011402+00000+0001T   00012279+0006471138          1400 AS6745               1AZ
103434008103434903-000619     103434006003000672455SWT LOLLY STR/BRRY 140G0000002000+00001753+00000+0001T   00001753+0000001138          1400 AS6150               1AZ
103434009103434018-019000     103434006003000557288MUG OCC. LOVE JUMBO    0000001000+00005262+00000+0001T   00005262+0000001138          1400 AS6515               1AZ
103434010103434112-116069     103434006009681820277TCS CARRIER BAG JUMBO  0000001000+00000048+00000+0001T   00000048+0000001138          1400 AS6090               1AZ
103434011103434080-000133-A   103434006003000647019MINI VALENTINES CARD   0000002000+00000437+00000+0001T   00000437+0000001138          1400 AS6112               1AZ
103435000103435               103435               170213PA     1400+00000+PA0000011344+0000011344+000000000+000001591+0000012935+0000000000+I40000012935+0000000000+Z
103435001103435039-000635     103435006001023774521CANDLE VTV 4PC WHITE   0000001000+00002192+00000+0001T   00002192+0000001141          1400 AS6510               1AZ
103435002103435040-000170     103435006001023774613C/HOLDER GLASS CUP 6CM 0000002000+00002630+00000+0001T   00002630+0000001141          1400 AS6510               1AZ
103435003103435206-000630     103435006003000631919SPECTACLE CLEANING BRUS0000001000+00001227+00000+0001T   00001227+0000001141          1400 AS6321               1AZ
103435004103435206-000600     103435006003000631551TOILET PAPER SUDUKO    0000001000+00002630+00000+0001T   00002630+0000001141          1400 AS6321               1AZ
103435005103435112-116038     103435006009681820246TCS CARRIER BAG MIDI   0000001000+00000035+00000+0001T   00000035+0000001141          1400 AS6090               1AZ
103436000103436               103436               170213PA     1400+00000+PA0000001753+0000001753+000000000+000000246+0000001990+0000000009+I20000000000+0000001990+Z
103436001103436306-000021-C   103436006003000567294EARBUDS 300PCE IN TUB  0000001000+00001753+00000+0001T   00001753+0000001144          1400 AS6200               1AZ
103437000103437               103437               170213PA     1400+00000+PA0000011402+0000011402+000000000+000001597+0000012999+0000000000+I40000012999+0000000000+Z
103437001103437003-009213     103437006003000483334O/INSECT STONE 22CM    0000001000+00011402+00000+0001T   00011402+0000001203          1400 AS6505               1AZ
103438000103438               103438               170213PA     1400+00000+PA0000006871+0000006871+000000000+000000963+0000007834+0000000000+I40000007834+0000000000+Z
103438001103438077-000310     103438006001023608635GIFT-BAG 18X23CM GLOSS 0000001000+00001314+00000+0001T   00001314+0000001214          1400 AS6112               1AZ
103438002103438077-000303     103438006001023593757GIFT-BAG PAPER MED     0000001000+00001578+00000+0001T   00001578+0000001214          1400 AS6112               1AZ
103438003103438018-005009     103438006001023725608MUG W/PLUSH-BEAR LOVE  0000001000+00003507+00000+0001T   00003507+0000001214          1400 AS6515               1AZ
103438004103438080-000133-A   103438006003000647019MINI VALENTINES CARD   0000001000+00000437+00000+0001T   00000437+0000001214          1400 AS6112               1AZ
103438005103438112-116038     103438006009681820246TCS CARRIER BAG MIDI   0000001000+00000035+00000+0001T   00000035+0000001214          1400 AS6090               1AZ
103439000103439               103439               170213PA     1400+00000+PA0000010525-0000010525-000000000+000001474-0000012000-0000000001+I20000000000+0000012000-Z
103439001103439079-001003     103439006003000588640ART+CRAFT PAINT CANVAS 0000001000-00010525+00000+0001T   00010525+0000001230          1400 AS61302IC            1 Z
103440000103440               103440               170213PA     1400+00000+PA0000006179+0000006179+000000000+000000866+0000007040+0000000005+I20000000000+0000007040+Z
103440001103440564-000010     103440006003000395477BUBBLE REFILL 1 LITRE  0000001000+00004385+00000+0001T   00004385+0000001255          1400 AS6131               1AZ
103440002103440306-000021-A   103440006001023891358EARBUDS COTTON 100PCE  0000001000+00000876+00000+0001T   00000876+0000001255          1400 AS6200               1AZ
103440003103440306-000020     103440006001023743145POCKET-TISSUES 10PCE   0000003000+00000306+00000+0001T   00000306+0000001255          1400 AS6200               1AZ
103441000103441               103441               170213PA     1400+00000+PA0000007224+0000007224+000000000+000001013+0000008230+0000000007+I20000000000+0000008230+Z
103441001103441018-000129     103441006001023403353MUG OCC. LOVE V-SHAPE  0000001000+00002630+00000+0001T   00002630+0000001259          1400 AS6515               1AZ
103441002103441089-000220     103441006003000677368KEY CHAIN+PEN+KNIFE    0000001000+00003069+00000+0001T   00003069+0000001259          1400 AS6205               1AZ
103441003103441077-000299     103441006003000395576G/BAG 32x25cm LRG LOVE 0000001000+00001490+00000+0001T   00001490+0000001259          1400 AS6112               1AZ
103441004103441112-116038     103441006009681820246TCS CARRIER BAG MIDI   0000001000+00000035+00000+0001T   00000035+0000001259          1400 AS6090               1AZ
103442000103442               103442               170213PA     1400+00000+PA0000000876+0000000876+000000000+000000123+0000000990+0000000009+I20000000000+0000000990+Z
103442001103442078-000025     103442008887013700064SUPERGLUE 3g 1PCE CARD 0000001000+00000876+00000+0001T   00000876+0000001259          1400 AS6810               1AZ
103443000103443               103443               170213PA     1400+00000+PA0000007845+0000007845+000000000+000001100+0000008945+0000000000+I40000008945+0000000000+Z
103443001103443368-000049     103443006003000536955PLUSH BEAR 15cm LOVE   0000001000+00004385+00000+0001T   00004385+0000001301          1400 AS6745               1AZ
103443002103443565-001212     103443006001023658173NOVELTY MAGIC-SPRING   0000001000+00001753+00000+0001T   00001753+0000001301          1400 AS6745               1AZ
103443003103443077-000310     103443006001023608635GIFT-BAG 18X23CM GLOSS 0000001000+00001314+00000+0001T   00001314+0000001301          1400 AS6112               1AZ
103443004103443903-000183     103443006003000451043SWT LB HEART LOLLY     0000001000+00000393+00000+0001T   00000393+0000001301          1400 AS6150               1AZ
103444000103444               103444               170213PA     1400+00000+PA0000029969+0000029969+000000000+000004200+0000034169+0000000000+I40000034169+0000000000+Z
103444001103444027-008815     103444006003000439799DUSTER 62cm RUBBER-GRIP0000001000+00004385+00000+0001T   00004385+0000001336          1400 AS6212               1AZ
103444002103444027-783000     103444006001023874641SCOURERS RAINBOW 5PCE  0000001000+00001753+00000+0001T   00001753+0000001336          1400 AS6212               1AZ
103444003103444072-020356     103444006001023701077DOG/CAT-BOWL+SELF-FEED 0000001000+00004385+00000+0001T   00004385+0000001336          1400 AS6870               1AZ
103444004103444200-000010     103444006925406841061BAG ZIPPERSEAL 35PC    0000001000+00002192+00000+0001T   00002192+0000001336          1400 AS6214               1AZ
103444005103444133-000036     103444006003000133376CLOTHS M/PURPOSE PACK-20000001000+00001753+00000+0001T   00001753+0000001336          1400 AS6212               1AZ
103444006103444049-001820     103444006003000019311DOORMAT RUBBER MOULDED 0000001000+00007893+00000+0001T   00007893+0000001336          1400 AS6510               1AZ
103444007103444036-000014     103444006001246500822LINT REMOVER 40x SHEET 0000001000+00003946+00000+0001T   00003946+0000001336          1400 AS6212               1AZ
103444008103444107-004105     103444006002923010504BUCKET 9L OPEN         0000001000+00001314+00000+0001T   00001314+0000001336          1400 AS6210               1AZ
103444009103444027-001020     103444006001246602519BROOM FLOOR W/HANDLE   0000001000+00002279+00000+0001T   00002279+0000001336          1400 AS6212               1AZ
103444010103444112-116053     103444006006438002399TCS CARRIER BAG 38L    0000001000+00000069+00000+0001T   00000069+0000001336          1400 AS6090               1AZ
103445000103445               103445               170213PA     1400+00000+PA0000003542+0000003542+000000000+000000496+0000004030+0000000008+I20000000000+0000004030+Z
103445001103445203-007000     103445006001023886040SHOT-GLASS DISPOSABLE  0000001000+00003507+00000+0001T   00003507+0000001354          1400 AS6300               1AZ
103445002103445112-116038     103445006009681820246TCS CARRIER BAG MIDI   0000001000+00000035+00000+0001T   00000035+0000001354          1400 AS6090               1AZ
103446000103446               103446               170213PA     1400+00000+PA0000002192+0000002192+000000000+000000307+0000002490+0000000009+I20000000000+0000002490+Z
103446001103446082-000392     103446006003000621811SPECTACLE REPAIR KIT   0000001000+00002192+00000+0001T   00002192+0000001358          1400 AS6160               1AZ
103447000103447               103447               170213PA     1400+00000+PA0000001699+0000001699+000000000+000000239+0000001930+0000000008+I20000000000+0000001930+Z
103447001103447077-000010-R   103447006001023123916CREPE-PAPER CANARY-YELL0000001000+00000788+00000+0001T   00000788+0000001402          1400 AS6112               1AZ
103447002103447077-000302     103447008010410010195GIFT-BAG 18X23CM E/D   0000001000+00000876+00000+0001T   00000876+0000001402          1400 AS6112               1AZ
103447003103447112-116038     103447006009681820246TCS CARRIER BAG MIDI   0000001000+00000035+00000+0001T   00000035+0000001402          1400 AS6090               1AZ
103448000103448               103448               170213PA     1400+00000+PA0000000437+0000000437+000000000+000000062+0000000490+0000000009+I20000000000+0000000490+Z
103448001103448080-000133-A   103448006003000647019MINI VALENTINES CARD   0000001000+00000437+00000+0001T   00000437+0000001402          1400 AS6112               1AZ
103449000103449               103449               170213PA     1400+00000+PA0000000876+0000000876+000000000+000000123+0000000990+0000000009+I20000000000+0000000990+Z
103449001103449007-000045     103449006009608640438DISPLAY-POCKETS A4 10PC0000001000+00000876+00000+0001T   00000876+0000001405          1400 AS6130               1AZ
103450000103450               103450               170213PA     1400+00000+PA0000014452+0000014452+000000000+000002029+0000016481+0000000000+I40000016481+0000000000+Z
103450001103450018-005009     103450006001023725608MUG W/PLUSH-BEAR LOVE  0000001000+00003507+00000+0001T   00003507+0000001410          1400 AS6515               1AZ
103450002103450368-000175     103450006003000270316PLUSH BEAR 4 ASSTD 18CM0000001000+00006139+00000+0001T   00006139+0000001410          1400 AS6745               1AZ
103450003103450080-000133-A   103450006003000647019MINI VALENTINES CARD   0000004000+00000437+00000+0001T   00000437+0000001410          1400 AS6112               1AZ
103450004103450206-000620     103450006003000631797BACK SCRATCHER EXTEND  0000001000+00002630+00000+0001T   00002630+0000001410          1400 AS6321               1AZ
103450005103450903-000183     103450006003000451043SWT LB HEART LOLLY     0000001000+00000393+00000+0001T   00000393+0000001410          1400 AS6150               1AZ
103450006103450112-116038     103450006009681820246TCS CARRIER BAG MIDI   0000001000+00000035+00000+0001T   00000035+0000001410          1400 AS6090               1AZ
103451000103451               103451               170213PA     1400+00000+PA0000001139+0000001139+000000000+000000160+0000001290+0000000009+I20000000000+0000001290+Z
103451001103451046-000014     103451006001023725387BATTERIES SIZE:AAA 4PCE0000001000+00001139+00000+0001T   00001139+0000001446          1400 AS6312               1AZ
103452000103452               103452               170213PA     1400+00000+PA0000012221+0000012221+000000000+000001712+0000013933+0000000000+I10000003933+0000010000+Z
103452001103452001-091415     103452006003000329113W/GLS OCC. LOVE 2PC 2800000001000+00008771+00000+0001T   00009648+0006471449          1400 AS6515               1AZ
103452002103452077-000303     103452006001023593757GIFT-BAG PAPER MED     0000001000+00001578+00000+0001T   00001578+0000001449          1400 AS6112               1AZ
103452003103452112-116038     103452006009681820246TCS CARRIER BAG MIDI   0000001000+00000035+00000+0001T   00000035+0000001449          1400 AS6090               1AZ
103452004103452080-000133-A   103452006003000647019MINI VALENTINES CARD   0000001000+00000437+00000+0001T   00000437+0000001449          1400 AS6112               1AZ
103452005103452903-000120     103452006002099001665SWEET GS ZILLIONS 50g  0000001000+00000700+00000+0001T   00000700+0000001449          1400 AS6150               1AZ
103452006103452903-000121     103452006002099001689SWT GS ZILLIONS SOURS  0000001000+00000700+00000+0001T   00000700+0000001449          1400 AS6150               1AZ
103453000103453               103453               170213PA     1400+00000+PA0000004382+0000004382+000000000+000000615+0000004997+0000000000+I40000004997+0000000000+Z
103453001103453142-000816     103453006001023477163GLOVES DISPOSE PACK-50 0000001000+00002630+00000+0001T   00002630+0000001455          1400 AS6810               1AZ
103453002103453077-000151     103453006008766114676GIFT-WRAP C/PHANE ASSTD0000002000+00000876+00000+0001T   00000876+0000001455          1400 AS6112               1AZ
103454000103454               103454               170213PA     1400+00000+PA0000002628+0000002628+000000000+000000368+0000002990+0000000006+I20000000000+0000002990+Z
103454001103454077-000310     103454006001023608635GIFT-BAG 18X23CM GLOSS 0000002000+00001314+00000+0001T   00001314+0000001520          1400 AS6112               1AZ
103455000103455               103455               170213PA     1400+00000+PA0000007453+0000007453+000000000+000001044+0000008490+0000000007+I20000000000+0000008490+Z
103455001103455018-050000     103455006003000412679MUG OCC LOVE TWIN BEAR 0000001000+00006139+00000+0001T   00006139+0000001528          1400 AS6515               1AZ
103455002103455077-000310     103455006001023608635GIFT-BAG 18X23CM GLOSS 0000001000+00001314+00000+0001T   00001314+0000001528          1400 AS6112               1AZ
103456000103456               103456               170213PA     1400+00000+PA0000013140+0000013140+000000000+000001845+0000014985+0000000000+I40000014985+0000000000+Z
103456001103456077-000150-D   103456006003000054343GIFT-WRAP CELLPHANE CLR0000015000+00000876+00000+0001T   00000876+0000001531          1400 AS6112               1AZ
103457000103457               103457               170213PA     1400+00000+PA0000003156+0000003156+000000000+000000442+0000003590+0000000008+I20000000000+0000003590+Z
103457001103457106-003115     103457006002689011357ICE CUBE-TRAYS 2PCE WHT0000002000+00001578+00000+0001T   00001578+0000001538          1400 AS6210               1AZ
103458000103458               103458               170213PA     1400+00000+PA0000004383+0000004383+000000000+000000614+0000004990+0000000007+I20000000000+0000004990+Z
103458001103458301-085004     103458006003000420469ORN LOVE PLAQUE 21X10CM0000001000+00003507+00000+0001T   00003946+0006471549          1400 AS6505               1AZ
103458002103458903-000520     103458006001704009898SWT GUMMY MINI SOUR 60g0000001000+00000876+00000+0001T   00000876+0000001549          1400 AS6150               1AZ
103459000103459               103459               170213PA     1400+00000+PA0000003365+0000003365+000000000+000000472+0000003837+0000000000+I40000003837+0000000000+Z
103459001103459077-000151     103459006008766114676GIFT-WRAP C/PHANE ASSTD0000001000+00000876+00000+0001T   00000876+0000001611          1400 AS6112               1AZ
103459002103459077-000303     103459006001023593757GIFT-BAG PAPER MED     0000001000+00001578+00000+0001T   00001578+0000001611          1400 AS6112               1AZ
103459003103459306-000021-D   103459006003000622108COTTON EARBUDS COSMETIC0000001000+00000876+00000+0001T   00001139+0008171611          1400 AS6200               1AZ
103459004103459112-116038     103459006009681820246TCS CARRIER BAG MIDI   0000001000+00000035+00000+0001T   00000035+0000001611          1400 AS6090               1AZ
103460000103460               103460               170213PA     1400+00000+PA0000008362+0000008362+000000000+000001171+0000009530+0000000003+I20000000000+0000009530+Z
103460001103460077-000310     103460006001023608635GIFT-BAG 18X23CM GLOSS 0000003000+00001314+00000+0001T   00001314+0000001613          1400 AS6112               1AZ
103460002103460564-009019     103460006001023498519BUBBLE TOY GUN         0000001000+00004385+00000+0001T   00004385+0000001613          1400 AS6131               1AZ
103460003103460112-116038     103460006009681820246TCS CARRIER BAG MIDI   0000001000+00000035+00000+0001T   00000035+0000001613          1400 AS6090               1AZ
103461000103461               103461               170213PA     1400+00000+PA0000000350+0000000350+000000000+000000049+0000000390+0000000009+I20000000000+0000000390+Z
103461001103461007-000104     103461006009685854865BK COVER BRWN KRFT ROLL0000001000+00000350+00000+0001T   00000350+0000001614          1400 AS6130               1AZ
103462000103462               103462               170213PA     1400+00000+PA0000004383+0000004383+000000000+000000615+0000004998+0000000000+I40000004998+0000000000+Z
103462001103462366-002701     103462006001023903136DRESS UP HAWAII FLOWER 0000001000+00001753+00000+0001T   00001753+0000001618          1400 AS6131               1AZ
103462002103462031-005821     103462006001023667786P/FRAME-GLS CLIP 21X30 0000001000+00002630+00000+0001T   00002630+0000001618          1400 AS6510               1AZ
103463000103463               103463               170213PA     1400+00000+PA0000004029+0000004029+000000000+000000566+0000004590+0000000005+I20000000000+0000004590+Z
103463001103463077-000010-C   103463006001023123879CREPE-PAPER RED        0000001000+00000788+00000+0001T   00000788+0000001619          1400 AS6112               1AZ
103463002103463077-000321     103463006001023677501GIFT-BAG 11X14CM E/D FL0000001000+00000613+00000+0001T   00000613+0000001619          1400 AS6112               1AZ
103463003103463077-000314     103463006003000181148GIFT-BAG 11X14CM MATT  0000003000+00000876+00000+0001T   00000876+0000001619          1400 AS6112               1AZ
103464000103464               103464               170213PA     1400+00000+PA0000010521+0000010521+000000000+000001473+0000011994+0000000000+I40000011994+0000000000+Z
103464001103464567-011313     103464009780799358827DIERESTORIES AFR ASSTD 0000003000+00003507+00000+0001T   00003507+0000001621          1400 AS6757               1AZ
103465000103465               103465               170213PA     1400+00000+PA0000003243+0000003243+000000000+000000455+0000003690+0000000008+I20000000000+0000003690+Z
103465001103465077-000011-Y   103465006001023809858TISSUE-WRAP GOLD 10PCE 0000001000+00001753+00000+0001T   00001753+0000001622          1400 AS6112               1AZ
103465002103465077-000299     103465006003000395576G/BAG 32x25cm LRG LOVE 0000001000+00001490+00000+0001T   00001490+0000001622          1400 AS6112               1AZ
103466000103466               103466               170213PA     1400+00000+PA0000008540+0000008540+000000000+000001197+0000009730+0000000007+I20000000000+0000009730+Z
103466001103466077-000011-D   103466006001023808554TISSUE-WRAP WHITE 10PCE0000001000+00000876+00000+0001T   00000876+0000001627          1400 AS6112               1AZ
103466002103466368-000265     103466006001023750914PLUSH BEAR 23CM ASSTD C0000001000+00006139+00000+0001T   00006139+0000001627          1400 AS6745               1AZ
103466003103466077-000299     103466006003000395576G/BAG 32x25cm LRG LOVE 0000001000+00001490+00000+0001T   00001490+0000001627          1400 AS6112               1AZ
103466004103466112-116038     103466006009681820246TCS CARRIER BAG MIDI   0000001000+00000035+00000+0001T   00000035+0000001627          1400 AS6090               1AZ
103467000103467               103467               170213PA     1400+00000+PA0000058169+0000058169+000000000+000008152+0000066321+0000000000+I40000066321+0000000000+Z
103467001103467018-000129     103467006001023403353MUG OCC. LOVE V-SHAPE  0000002000+00002630+00000+0001T   00002630+0000001637          1400 AS6515               1AZ
103467002103467018-000127     103467006001023380289MUG OCC STRAIGHT LOVE  0000002000+00001578+00000+0001T   00001753+0006471637          1400 AS6515               1AZ
103467003103467018-000129     103467006001023403353MUG OCC. LOVE V-SHAPE  0000002000+00002630+00000+0001T   00002630+0000001637          1400 AS6515               1AZ
103467004103467077-000312     103467006001023608697GIFT-BAG 10X35CM GLOSS 0000005000+00001314+00000+0001T   00001314+0000001637          1400 AS6112               1AZ
103467005103467903-000861     103467005010478430822SWT LOVE HEARTS SML    0000001000+00000876+00000+0001T   00000876+0000001637          1400 AS6150               1AZ
103467006103467903-000151     103467006009803374411SWT SML RND R/BOW LOLLY0000002000+00000525+00000+0001T   00000525+0000001637          1400 AS6150               1AZ
103467007103467077-000312     103467006001023608697GIFT-BAG 10X35CM GLOSS 0000001000+00001314+00000+0001T   00001314+0000001637          1400 AS6112               1AZ
103467008103467566-000068     103467006003000418046POP UP LOVE 2 ASSTD    0000001000+00002192+00000+0001T   00002192+0000001637          1400 AS6130               1AZ
103467009103467566-000067     103467006003000349180STICKERS GLITTER       0000001000+00001753+00000+0001T   00002192+0008151637          1400 AS6130               1AZ
103467010103467039-000319-2   103467006003000442508B/CANDLES LRG NUMBER-2 0000001000+00000876+00000+0001T   00000876+0000001637          1400 AS6510               1AZ
103467011103467903-000521     103467006001704009652SWT GUMMY SOFT GUMS    0000001000+00000876+00000+0001T   00000876+0000001637          1400 AS6150               1AZ
103467012103467903-000494     103467006001704009911SWT GUMMY TEENY TEDDIES0000001000+00000876+00000+0001T   00000876+0000001637          1400 AS6150               1AZ
103467013103467903-000295     103467006001704002899SWT MS FRUITY RASCALS  0000001000+00000876+00000+0001T   00000876+0000001637          1400 AS6150               1AZ
103467014103467903-000494     103467006001704009911SWT GUMMY TEENY TEDDIES0000001000+00000876+00000+0001T   00000876+0000001637          1400 AS6150               1AZ
103467015103467368-000049     103467006003000536955PLUSH BEAR 15cm LOVE   0000006000+00004385+00000+0001T   00004385+0000001637          1400 AS6745               1AZ
103467016103467112-116069     103467006009681820277TCS CARRIER BAG JUMBO  0000001000+00000048+00000+0001T   00000048+0000001637          1400 AS6090               1AZ
103468000103468               103468               170213PA     1400+00000+PA0000012314+0000012314+000000000+000001725+0000014039+0000000000+I40000014039+0000000000+Z
103468001103468368-000111     103468006001023780812PLUSH BEAR/DOG 29CM    0000001000+00012279+00000+0001T   00012279+0000001638          1400 AS6745               1AZ
103468002103468112-116038     103468006009681820246TCS CARRIER BAG MIDI   0000001000+00000035+00000+0001T   00000035+0000001638          1400 AS6090               1AZ
103469000103469               103469               170213PA     1400+00000+PA0000000000+0000000000+000000000+000000000+0000000000+0000000000+I20000000000+0000000000+Z
103469001103469018-030000     103469006003000421060MUG OCCASIONS LOVE 2PCE0000001000-00004385+00000+0001T   00004385+0000001640          1400 AS65152IC            1AZ
103469002103469018-030000     103469006003000421060MUG OCCASIONS LOVE 2PCE0000001000+00004385+00000+0001T   00004385+0000001640          1400 AS65152IC            1 Z
103470000103470               103470               170213PA     1400+00000+PA0000001578+0000001578+000000000+000000221+0000001790+0000000009+I20000000000+0000001790+Z
103470001103470077-000303     103470006001023593757GIFT-BAG PAPER MED     0000001000+00001578+00000+0001T   00001578+0000001709          1400 2IC112               1AZ
103471000103471               103471               170213PA     1400+00000+PA0000001314+0000001314+000000000+000000184+0000001490+0000000008+I20000000000+0000001490+Z
103471001103471077-000407     103471006003000145096G/BAG PP 19X26X8CM     0000001000+00001314+00000+0001T   00001314+0000001709          1400 2IC112               1AZ
103472000103472               103472               170213PA     1400+00000+PA0000000437+0000000437+000000000+000000062+0000000490+0000000009+I20000000000+0000000490+Z
103472001103472080-000133-A   103472006003000647019MINI VALENTINES CARD   0000001000+00000437+00000+0001T   00000437+0000001710          1400 2IC112               1AZ
103473000103473               103473               170213PA     1400+00000+PA0000005875+0000005875+000000000+000000823+0000006698+0000000000+I40000006698+0000000000+Z
103473001103473018-030000     103473006003000421060MUG OCCASIONS LOVE 2PCE0000001000+00004385+00000+0001T   00004385+0000001714          1400 AS6515               1AZ
103473002103473077-000299     103473006003000395576G/BAG 32x25cm LRG LOVE 0000001000+00001490+00000+0001T   00001490+0000001714          1400 AS6112               1AZ
103474000103474               103474               170213PA     1400+00000+PA0000001400+0000001400+000000000+000000196+0000001590+0000000006+I20000000000+0000001590+Z
103474001103474018-000177     103474006001023797513MUG MINI LOVE ASSTD    0000002000+00000700+00000+0001T   00000700+0000001715          1400 AS6515               1AZ
103475000103475               103475               170213PA     1400+00000+PA0000006173+0000006173+000000000+000000865+0000007038+0000000000+I40000007038+0000000000+Z
103475001103475080-000116     103475006003000253555CARD&ENVELOPE-HANDMADE 0000001000+00001753+00000+0001T   00001753+0000001717          1400 AS6112               1AZ
103475002103475031-080508     103475006001023802415P/FRAME PL 22X11CM LOVE0000001000+00004385+00000+0001T   00004385+0000001717          1400 AS6510               1AZ
103475003103475112-116038     103475006009681820246TCS CARRIER BAG MIDI   0000001000+00000035+00000+0001T   00000035+0000001717          1400 AS6090               1AZ
103476000103476               103476               170213PA     1400+00000+PA0000007409+0000007409+000000000+000001040+0000008440+0000000009+I20000000000+0000008440+Z
103476001103476362-019375     103476006001023730664HAIR BAND SET 24PCE    0000001000+00000876+00000+0001T   00000876+0000001719          1400 AS6160               1AZ
103476002103476079-006495     103476006003000159987GLITTER SHAKERS 6PK    0000001000+00002630+00000+0001T   00002630+0000001719          1400 AS6130               1AZ
103476003103476071-003853     103476006001023715579PENCIL BASIC HB 12PCE  0000001000+00001753+00000+0001T   00001753+0000001719          1400 AS6130               1AZ
103476004103476077-000299     103476006003000395576G/BAG 32x25cm LRG LOVE 0000001000+00001490+00000+0001T   00001490+0000001719          1400 AS6112               1AZ
103476005103476079-009700-D   103476006003000545711PAPER SIRIO A4 RED COL.0000001000+00000306+00000+0001T   00000306+0000001719          1400 AS6130               1AZ
103476006103476079-009700-A   103476006003000547746PAPER SIRIO A4 BLACK   0000001000+00000306+00000+0001T   00000306+0000001719          1400 AS6130               1AZ
103476007103476112-116069     103476006009681820277TCS CARRIER BAG JUMBO  0000001000+00000048+00000+0001T   00000048+0000001719          1400 AS6090               1AZ
103477000103477               103477               170213PA     1400+00000+PA0000014502+0000014502+000000000+000002033+0000016535+0000000000+I40000016535+0000000000+Z
103477001103477001-000175     103477006001023788108B/MUG GLS LOVE 380ML   0000001000+00004385+00000+0001T   00004385+0000001722          1400 AS6515               1AZ
103477002103477018-000129     103477006001023403353MUG OCC. LOVE V-SHAPE  0000002000+00002630+00000+0001T   00002630+0000001722          1400 AS6515               1AZ
103477003103477018-030000     103477006003000421060MUG OCCASIONS LOVE 2PCE0000001000+00004385+00000+0001T   00004385+0000001722          1400 AS6515               1AZ
103477004103477112-116038     103477006009681820246TCS CARRIER BAG MIDI   0000001000+00000035+00000+0001T   00000035+0000001722          1400 AS6090               1AZ
103477005103477903-000012     103477006002099007308SWT MALLOW S/BERRY     0000001000+00000437+00000+0001T   00000437+0000001722          1400 AS6150               1AZ
103478000103478               103478               170213PA     1400+00000+PA0000007926+0000007926+000000000+000001111+0000009037+0000000000+I40000009037+0000000000+Z
103478001103478903-000861     103478005010478430822SWT LOVE HEARTS SML    0000001000+00000876+00000+0001T   00000876+0000001724          1400 AS6150               1AZ
103478002103478007-000614     103478006001023768667DIARY W/LOCK+PEN LOVE  0000001000+00005262+00000+0001T   00005262+0000001724          1400 AS6130               1AZ
103478003103478077-000316     103478006001023609731GIFT-BAG 25X32CM MATT  0000001000+00001753+00000+0001T   00001753+0000001724          1400 AS6112               1AZ
103478004103478112-116038     103478006009681820246TCS CARRIER BAG MIDI   0000001000+00000035+00000+0001T   00000035+0000001724          1400 AS6090               1AZ
103479000103479               103479               170213PA     1400+00000+PA0000010557+0000010557+000000000+000001479+0000012036+0000000000+I40000012036+0000000000+Z
103479001103479301-085000     103479006003000674299 ORN OCC. LOVE HEARTS  0000002000+00002192+00000+0001T   00002192+0000001728          1400 AS6505               1AZ
103479002103479301-085008     103479006003000673933ORN OCC.LOVE TINSEL HRT0000001000+00003069+00000+0001T   00003069+0000001728          1400 AS6505               1AZ
103479003103479112-116038     103479006009681820246TCS CARRIER BAG MIDI   0000001000+00000035+00000+0001T   00000035+0000001728          1400 AS6090               1AZ
103479004103479301-085008     103479006003000673933ORN OCC.LOVE TINSEL HRT0000001000+00003069+00000+0001T   00003069+0000001728          1400 AS6505               1AZ
103480000103480               103480               170213PA     1400+00000+PA0000003507+0000003507+000000000+000000491+0000003990+0000000008+I20000000000+0000003990+Z
103480001103480018-000136     103480006001023659026MUG OCC LOVE W/PLUSH   0000001000+00003507+00000+0001T   00003507+0000001728          1400 AS6515               1AZ
103481000103481               103481               170213PA     1400+00000+PA0000005610+0000005610+000000000+000000787+0000006397+0000000000+I40000006397+0000000000+Z
103481001103481077-000316     103481006001023609731GIFT-BAG 25X32CM MATT  0000001000+00001753+00000+0001T   00001753+0000001735          1400 AS6112               1AZ
103481002103481080-000100     103481006003000236114CARD & ENVELOPE BDAY   0000001000+00001753+00000+0001T   00001753+0000001735          1400 AS6112               1AZ
103481003103481903-000095     103481006001704011495SWT SPECKLED-EGGS 100G 0000001000+00002104+00000+0001T   00002104+0000001735          1400 AS6150               1AZ
103482000103482               103482               170213PA     1400+00000+PA0000023795+0000023795+000000000+000003332+0000027127+0000000000+I40000027127+0000000000+Z
103482001103482018-000177     103482006001023797513MUG MINI LOVE ASSTD    0000002000+00000700+00000+0001T   00000700+0000001738          1400 AS6515               1AZ
103482002103482264-000927     103482000090159393009MAISTO MOTORBIKE 1:18  0000001000+00008771+00000+0001T   00008771+0000001738          1400 AS6710               1AZ
103482003103482030-000031-A   103482006003000457588PLAQUE W/WORDS ASSTD   0000002000+00004385+00000+0001T   00004823+0006471738          1400 AS6505               1AZ
103482004103482018-000177     103482006001023797513MUG MINI LOVE ASSTD    0000001000+00000700+00000+0001T   00000700+0000001738          1400 AS6515               1AZ
103482005103482077-000319     103482006001023609779GIFT-BAG 18X23CM BIRTHD0000001000+00001227+00000+0001T   00001227+0000001738          1400 AS6112               1AZ
103482006103482077-000407     103482006003000145096G/BAG PP 19X26X8CM     0000001000+00001314+00000+0001T   00001314+0000001738          1400 AS6112               1AZ
103482007103482077-000303     103482006001023593757GIFT-BAG PAPER MED     0000001000+00001578+00000+0001T   00001578+0000001738          1400 AS6112               1AZ
103482008103482112-116038     103482006009681820246TCS CARRIER BAG MIDI   0000001000+00000035+00000+0001T   00000035+0000001738          1400 AS6090               1AZ
103483000103483               103483               170213PA     1400+00000+PA0000009502+0000009502+000000000+000001333+0000010835+0000000000+I40000010835+0000000000+Z
103483001103483264-000921     103483000090159150442MAISTO CAR 3" FRESH    0000001000+00001753+00000+0001T   00001753+0000001739          1400 AS6710               1AZ
103483002103483903-000624     103483006003000671793SWEET LOLLY BLU/BRRY   0000001000+00001753+00000+0001T   00001753+0000001739          1400 AS6150               1AZ
103483003103483565-000071     103483006003000643387NOVELTY WIND UP CHATTER0000001000+00001139+00000+0001T   00001139+0000001739          1400 AS6745               1AZ
103483004103483565-000080     103483006003000643424NOVELTY BENDY          0000001000+00002192+00000+0001T   00002192+0000001739          1400 AS6745               1AZ
103483005103483002-001687     103483006003000426560JUICER CITRUS W/HOLDER 0000001000+00002630+00000+0001T   00002630+0000001739          1400 AS6300               1AZ
103483006103483112-116038     103483006009681820246TCS CARRIER BAG MIDI   0000001000+00000035+00000+0001T   00000035+0000001739          1400 AS6090               1AZ
103484000103484               103484               170213PA     1400+00000+PA0000013188+0000013188+000000000+000001847+0000015035+0000000000+I40000015035+0000000000+Z
103484001103484018-005009     103484006001023725608MUG W/PLUSH-BEAR LOVE  0000002000+00003507+00000+0001T   00003507+0000001741          1400 AS6515               1AZ
103484002103484018-050000     103484006003000412679MUG OCC LOVE TWIN BEAR 0000001000+00006139+00000+0001T   00006139+0000001741          1400 AS6515               1AZ
103484003103484112-116038     103484006009681820246TCS CARRIER BAG MIDI   0000001000+00000035+00000+0001T   00000035+0000001741          1400 AS6090               1AZ
103485000103485               103485               170213PA     1400+00000+PA0000004237+0000004237+000000000+000000595+0000004830+0000000002+I20000000000+0000004830+Z
103485001103485018-000177     103485006001023797513MUG MINI LOVE ASSTD    0000001000+00000700+00000+0001T   00000700+0000001743          1400 AS6515               1AZ
103485002103485077-000321     103485006001023677501GIFT-BAG 11X14CM E/D FL0000002000+00000613+00000+0001T   00000613+0000001743          1400 AS6112               1AZ
103485003103485018-000177     103485006001023797513MUG MINI LOVE ASSTD    0000001000+00000700+00000+0001T   00000700+0000001743          1400 AS6515               1AZ
103485004103485112-116038     103485006009681820246TCS CARRIER BAG MIDI   0000001000+00000035+00000+0001T   00000035+0000001743          1400 AS6090               1AZ
103485005103485903-000200     103485006009826020234SWT CHOC RP CHOCO 23G  0000002000+00000788+00000+0001T   00000788+0000001743          1400 AS61502IC            1AZ
103486000103486               103486               170213PA     1400+00000+PA0000015832+0000015832+000000000+000002219+0000018051+0000000000+I40000018051+0000000000+Z
103486001103486567-075466     103486009780263245936BK NOVEL ROMANCE       0000001000+00002630+00000+0001T   00002630+0000001749          1400 AS6757               1AZ
103486002103486567-075699     103486006003000641277BK NOVEL CATEGORY A    0000001000+00002630+00000+0001T   00003069+0008191749          1400 AS6757               1AZ
103486003103486464-000635     103486006001023830821GAME BINGO LOTTOMACHINE0000001000+00008771+00000+0001T   00008771+0000001749          1400 AS6785               1AZ
103486004103486112-116069     103486006009681820277TCS CARRIER BAG JUMBO  0000001000+00000048+00000+0001T   00000048+0000001749          1400 AS6090               1AZ
103486005103486903-000614     103486006003000617333SWT PLIERS TWISTER 17cm0000001000+00001753+00000+0001T   00001753+0000001749          1400 AS6150               1AZ
103487000103487               103487               170213PA     1400+00000+PA0000006253+0000006253+000000000+000000879+0000007130+0000000002+I20000000000+0000007130+Z
103487001103487903-000221     103487006001704007382SWT EENY-MEENY-MOS 60G 0000001000+00000876+00000+0001T   00000876+0000001751          1400 AS6150               1AZ
103487002103487903-000121     103487006002099001689SWT GS ZILLIONS SOURS  0000001000+00000700+00000+0001T   00000700+0000001751          1400 AS6150               1AZ
103487003103487903-000137     103487006002099004130SWEET GS JELLY BEAN 60G0000001000+00000788+00000+0001T   00000788+0000001751          1400 AS6150               1AZ
103487004103487903-000519     103487006001704012805SWT MS LIQ-O-GHETTI    0000001000+00001227+00000+0001T   00001227+0000001751          1400 AS6150               1AZ
103487005103487903-000896     103487006009680772270SWT BITZ BL/CURRANT 50G0000002000+00000788+00000+0001T   00000788+0000001751          1400 AS6150               1AZ
103487006103487903-002853     103487000000087108019MENTOS ROLL MINT       0000001000+00001051+00000+0001T   00001051+0000001751          1400 AS6150               1AZ
103487007103487112-116038     103487006009681820246TCS CARRIER BAG MIDI   0000001000+00000035+00000+0001T   00000035+0000001751          1400 AS6090               1AZ
103488000103488               103488               170213PA     1400+00000+PA0000007940+0000007940+000000000+000001113+0000009053+0000000000+I40000009053+0000000000+Z
103488001103488072-020366     103488006003000452927PET PLACE MAT ASSTD COL0000001000+00002630+00000+0001T   00002630+0000001755          1400 AS6870               1AZ
103488002103488366-002195     103488006001023990549DRESS UP WINGS FEATHER 0000001000+00005262+00000+0001T   00005262+0000001755          1400 AS6131               1AZ
103488003103488112-116069     103488006009681820277TCS CARRIER BAG JUMBO  0000001000+00000048+00000+0001T   00000048+0000001755          1400 AS6090               1AZ
103489000103489               103489               170213PA     1400+00000+PA0000001753+0000001753+000000000+000000246+0000001990+0000000009+I20000000000+0000001990+Z
103489001103489466-008889     103489006001023835376WHISTLE SPORTS+STRING  0000001000+00001753+00000+0001T   00001753+0000001758          1400 AS6785               1AZ
103490000103490               103490               170213PA     1400+00000+PA0000003944+0000003944+000000000+000000553+0000004497+0000000000+I40000004497+0000000000+Z
103490001103490301-085004     103490006003000420469ORN LOVE PLAQUE 21X10CM0000001000+00003507+00000+0001T   00003946+0006471800          1400 AS6505               1AZ
103490002103490080-000133-A   103490006003000647019MINI VALENTINES CARD   0000001000+00000437+00000+0001T   00000437+0000001800          1400 AS6112               1AZ
A17021300                                          10002779PASLAVE 1                       AS62IC
A17021301                                          12172127PASLAVE 1                       AS62IC
A17021302                                          13081330PASLAVE 1                       AS62IC
A17021303                                          14072731PASLAVE 1                       AS62IC
A17021304                                          17520511PASLAVE 1                       AS62IC
A17021305                                          17562809PASLAVE 1                       AS62IC
B10348500                                          170213PA903-000200     17433731SLAVE 1     AS62IC0000023000+0000002000+0000000000000+
M17021391                              CASH        PASLAVE 1                       Z-REPORT No.   597TOTAL (Sales - Refunds)           5907.77       CASH TO BE BANKED                 1882.30       DEBIT CARDS                          0.00       CREDIT CARDS                      4027.47       Z-READING                         5907.77       AIRTIME DEBIT CARD SALES             0.00       AIRTIME CARD SALES                   0.00       OVERS/UNDERS                         2.00       AIRTIME CASH SALES                   0.00       GIFT CARDS                           0.00       GIFT CARD CASH SALES                 0.00       T O T A L  CASH PAYOUTS              0.00                                                                                                                                                                                                                                                                                                                                                      Z
M17021392                              CASH        PAABSENT                                                                                                                                                                                          ANNUAL LEAVE                                                                                                                                                                                    DAY OFF                                                                                                                                                                                         COMMENTS                                                                                                                                                                                                                                                                                                                                                                                       Z
Y17021300                                          PA00000000533994+000066
ZPA17021320163 SLAVE 1      SALES DATA                     NEXT INVOICE NO.  103491 0597
X PA Slave 1 First invoice 103424 170213 Last invoice 103490 170213 Next invoice 103491 Total number of records 000000289 clbackup completed 20:16:54
