201863000201863               201863               170213PA     1400+00000+PA0000007713+0000007713+000000000+000001082+0000008790+0000000005+I20000000000+0000008790+Z
201863001201863080-000112     201863006003000252749CARD&ENVLP BDAY-MUSICAL0000001000+00001753+00000+0001T   00001753+0000000923          1400 TX6112               2AZ
201863002201863903-000095     201863006001704011495SWT SPECKLED-EGGS 100G 0000002000+00002104+00000+0001T   00002104+0000000923          1400 TX6150               2AZ
201863003201863903-000221     201863006001704007382SWT EENY-MEENY-MOS 60G 0000002000+00000876+00000+0001T   00000876+0000000923          1400 TX6150               2AZ
201864000201864               201864               170213PA     1400+00000+PA0000005256+0000005256+000000000+000000736+0000005992+0000000000+I40000005992+0000000000+Z
201864001201864006-000166-D   201864006003000516490BALLOONS LRG 6PC RED   0000002000+00001314+00000+0001T   00001314+0000001002          1400 TX6131               2AZ
201864002201864006-000166-H   201864006003000608096BALLOONS HELIUM 6PC WHT0000002000+00001314+00000+0001T   00001314+0000001002          1400 TX6131               2AZ
201865000201865               201865               170213PA     1400+00000+PA0000035999+0000035999+000000000+000005043+0000041042+0000000000+I40000041042+0000000000+Z
201865001201865124-000005     201865006003000577057STORAGE TIN SQUARE     0000002000+00003507+00000+0001T   00003507+0000001007          1400 TX6300               2AZ
201865002201865204-000030     201865006003000683536MEMO HOLDER SAYINGS    0000001000+00003507+00000+0001T   00003507+0000001007          1400 TX6300               2AZ
201865003201865563-000317-A   201865006001023776167SERVIETTES 20PK PATTERN0000003000+00002630+00000+0001T   00002630+0000001007          1400 TX6214               2AZ
201865004201865158-008937     201865006003000571642TOILET ROLL HOLDER     0000004000+00004385+00000+0001T   00004385+0000001007          1400 TX6300               2AZ
201865005201865112-116069     201865006009681820277TCS CARRIER BAG JUMBO  0000001000+00000048+00000+0001T   00000048+0000001007          1400 TX6090               2AZ
201866000201866               201866               170213PA     1400+00000+PA0000000876+0000000876+000000000+000000123+0000000990+0000000009+I20000000000+0000000990+Z
201866001201866046-001620-PK2 201866004897006178408BATTERY LITHIUM CR-16200000001000+00000876+00000+0001T   00000876+0000001214          1400 TX6312               2AZ
201867000201867               201867               170213PA     1400+00000+PA0000013855+0000013855+000000000+000001941+0000015790+0000000006+I20000000000+0000015790+Z
201867001201867085-007038     201867006001024039896P/KNIFE 8cm-BLD PL/GRIP0000001000-00002630+00000+0001T   00002630+0000001218          1400 TX63052IC            2 Z
201867002201867085-007038     201867006001024039896P/KNIFE 8cm-BLD PL/GRIP0000001000+00002630+00000+0001T   00002630+0000001218          1400 TX63052IC            2AZ
201867003201867089-060027     201867006003000245871KEY-CHAIN HEART 6X6cm  0000001000+00003069+00000+0001T   00003069+0000001218          1400 TX6205               2AZ
201867004201867301-085001     201867006003000297610ORN WATERBALL LOVE ASST0000001000+00004823+00000+0001T   00004823+0000001218          1400 TX6505               2AZ
201867005201867001-000175     201867006001023788108B/MUG GLS LOVE 380ML   0000001000+00004385+00000+0001T   00004385+0000001218          1400 TX6515               2AZ
201867006201867077-000303     201867006001023593757GIFT-BAG PAPER MED     0000001000+00001578+00000+0001T   00001578+0000001218          1400 TX6112               2AZ
201868000201868               201868               170213PA     1400+00000+PA0000005658+0000005658+000000000+000000794+0000006450+0000000002+I20000000000+0000006450+Z
201868001201868133-000030     201868006001023755414KITCHEN-SWAB 30cm ASSTD0000001000+00001227+00000+0001T   00001227+0000001241          1400 TX6212               2AZ
201868002201868104-000031     201868006003000614950BASKET PL 27x18x12cm   0000001000+00002630+00000+0001T   00002630+0000001241          1400 TX6210               2AZ
201868003201868036-000063     201868006009654960436COATHANGERS VIRGIN 5PCE0000001000+00001753+00000+0001T   00001753+0000001241          1400 TX6212               2AZ
201868004201868112-116069     201868006009681820277TCS CARRIER BAG JUMBO  0000001000+00000048+00000+0001T   00000048+0000001241          1400 TX6090               2AZ
201869000201869               201869               170213PA     1400+00000+PA0000003506+0000003506+000000000+000000492+0000003990+0000000008+I20000000000+0000003990+Z
201869001201869080-000102     201869006003000236855CARD&ENVLP FEMALE AFR  0000001000+00001753+00000+0001T   00001753+0000001242          1400 TX6112               2AZ
201869002201869080-000109     201869006003000237203CARD&ENVLPE BDAY-BRIGHT0000001000+00001753+00000+0001T   00001753+0000001242          1400 TX6112               2AZ
201870000201870               201870               170213PA     1400+00000+PA0000002364+0000002364+000000000+000000332+0000002690+0000000006+I20000000000+0000002690+Z
201870001201870077-000311     201870006001023608666GIFT-BAG 11X14CM GLOSS 0000001000+00000613+00000+0001T   00000613+0000001246          1400 TX6112               2AZ
201870002201870006-000166-D   201870006003000516490BALLOONS LRG 6PC RED   0000001000+00001314+00000+0001T   00001314+0000001246          1400 TX6131               2AZ
201870003201870080-000133-A   201870006003000647019MINI VALENTINES CARD   0000001000+00000437+00000+0001T   00000437+0000001246          1400 TX6112               2AZ
201871000201871               201871               170213PA     1400+00000+PA0000000786+0000000786+000000000+000000112+0000000890+0000000008+I20000000000+0000000890+Z
201871001201871903-000183     201871006003000451043SWT LB HEART LOLLY     0000002000+00000393+00000+0001T   00000393+0000001307          1400 TX6150               2AZ
201872000201872               201872               170213PA     1400+00000+PA0000008766+0000008766+000000000+000001228+0000009990+0000000004+I20000000000+0000009990+Z
201872001201872251-000001     201872006001023487681TAPE DBL-SIDE 18x1000mm0000002000+00001314+00000+0001T   00001314+0000001310          1400 TX6810               2AZ
201872002201872071-001346     201872006001023912985HIGHLIGHTERS 4PCE CARD 0000001000+00002192+00000+0001T   00002192+0000001310          1400 TX6130               2AZ
201872003201872007-000047     201872006009635833698FILE DISPLAY-BK A4 50PG0000001000+00003946+00000+0001T   00003946+0000001310          1400 TX6130               2AZ
201873000201873               201873               170213PA     1400+00000+PA0000018982+0000018982+000000000+000002662+0000021644+0000000000+I40000021644+0000000000+Z
201873001201873112-116069     201873006009681820277TCS CARRIER BAG JUMBO  0000001000+00000048+00000+0001T   00000048+0000001314          1400 TX6090               2AZ
201873002201873369-001138     201873006003000555185VINYL 8.5cm THEMED DUCK0000001000+00001753+00000+0001T   00002630+0008141314          1400 TX6745               2AZ
201873003201873369-001137     201873006003000555062VINYL 5.7cm THEMED DUCK0000001000+00001753+00000+0001T   00001753+0000001314          1400 TX6745               2AZ
201873004201873080-000124     201873006003000297733CARD & ENV VALENTINES  0000001000+00001578+00000+0001T   00001578+0000001314          1400 TX6112               2AZ
201873005201873080-000113     201873006003000237449CARD&ENVLPE - LOVE     0000001000+00001753+00000+0001T   00001753+0000001314          1400 TX6112               2AZ
201873006201873077-000310     201873006001023608635GIFT-BAG 18X23CM GLOSS 0000001000+00001314+00000+0001T   00001314+0000001314          1400 TX6112               2AZ
201873007201873004-071270     201873006001023802156CD-DISCS WRITABLE 10PCE0000001000+00004385+00000+0001T   00004385+0000001314          1400 TX6310               2AZ
201873008201873903-000619     201873006003000672455SWT LOLLY STR/BRRY 140G0000001000+00001753+00000+0001T   00001753+0000001314          1400 TX6150               2AZ
201873009201873077-000011-X   201873006001023809827TISSUE-WRAP SILVER 10PC0000001000+00001753+00000+0001T   00001753+0000001314          1400 TX6112               2AZ
201873010201873565-000071     201873006003000643387NOVELTY WIND UP CHATTER0000001000+00001139+00000+0001T   00001139+0000001314          1400 TX6745               2AZ
201873011201873566-001501     201873006003000658398STICKER PAPER EMOTION  0000001000+00001753+00000+0001T   00001753+0000001314          1400 TX6130               2AZ
201874000201874               201874               170213PA     1400+00000+PA0000004207+0000004207+000000000+000000590+0000004797+0000000000+I40000004797+0000000000+Z
201874001201874072-020271     201874006001023719522CAT LITTER-SCOOP 33cm  0000001000+00001753+00000+0001T   00001753+0000001319          1400 TX6870               2AZ
201874002201874565-000052     201874006003000615551NOVELTY PUTTY FARTS    0000001000+00001578+00000+0001T   00001578+0000001319          1400 TX6745               2AZ
201874003201874566-000018     201874006001023995018S/BOOK H/MADE STICKER  0000001000+00000876+00000+0001T   00000876+0000001319          1400 TX6130               2AZ
201875000201875               201875               170213PA     1400+00000+PA0000003507+0000003507+000000000+000000491+0000003990+0000000008+I20000000000+0000003990+Z
201875001201875018-000136     201875006001023659026MUG OCC LOVE W/PLUSH   0000001000+00003507+00000+0001T   00003507+0000001338          1400 TX6515               2AZ
201876000201876               201876               170213PA     1400+00000+PA0000000437+0000000437+000000000+000000062+0000000490+0000000009+I20000000000+0000000490+Z
201876001201876080-000133-A   201876006003000647019MINI VALENTINES CARD   0000001000+00000437+00000+0001T   00000437+0000001339          1400 TX6112               2AZ
201877000201877               201877               170213PA     1400+00000+PA0000001707+0000001707+000000000+000000240+0000001940+0000000007+I20000000000+0000001940+Z
201877001201877306-000020     201877006001023743145POCKET-TISSUES 10PCE   0000001000+00000306+00000+0001T   00000306+0000001340          1400 TX6200               2AZ
201877002201877071-003004     201877006003000662821PEN BALL POINT 3PC BLUE0000001000+00000876+00000+0001T   00000876+0000001340          1400 TX6130               2AZ
201877003201877007-000402     201877006009635830864EXERCISE-BOOK A4 72PGE 0000001000+00000525+00000+0001T   00000525+0000001340          1400 TX6130               2AZ
201878000201878               201878               170213PA     1400+00000+PA0000005123+0000005123+000000000+000000720+0000005843+0000000000+I40000005843+0000000000+Z
201878001201878903-002853     201878000000087108019MENTOS ROLL MINT       0000001000+00001051+00000+0001T   00001051+0000001343          1400 TX6150               2AZ
201878002201878903-002850     201878000000087108262MENTOS ROLL FRUIT      0000001000+00001051+00000+0001T   00001051+0000001343          1400 TX6150               2AZ
201878003201878903-000844     201878005010478432567SWT CANDY DL LUV HEARTS0000001000+00001314+00000+0001T   00001314+0000001343          1400 TX6150               2AZ
201878004201878903-000183     201878006003000451043SWT LB HEART LOLLY     0000001000+00000393+00000+0001T   00000393+0000001343          1400 TX6150               2AZ
201878005201878077-000310     201878006001023608635GIFT-BAG 18X23CM GLOSS 0000001000+00001314+00000+0001T   00001314+0000001343          1400 TX6112               2AZ
201879000201879               201879               170213PA     1400+00000+PA0000000393+0000000393+000000000+000000056+0000000440+0000000009+I20000000000+0000000440+Z
201879001201879903-000183     201879006003000451043SWT LB HEART LOLLY     0000001000+00000393+00000+0001T   00000393+0000001344          1400 TX6150               2AZ
201880000201880               201880               170213PA     1400+00000+PA0000003505+0000003505+000000000+000000492+0000003990+0000000007+I20000000000+0000003990+Z
201880001201880077-000408     201880006003000145218G/BAG PP 15X21X7CM     0000002000+00000876+00000+0001T   00000876+0000001347          1400 TX6112               2AZ
201880002201880077-000011-X   201880006001023809827TISSUE-WRAP SILVER 10PC0000001000+00001753+00000+0001T   00001753+0000001347          1400 TX6112               2AZ
201881000201881               201881               170213PA     1400+00000+PA0000000876+0000000876+000000000+000000123+0000000990+0000000009+I20000000000+0000000990+Z
201881001201881204-000019     201881006003000677474MEMO HOLDERS THERMOMETE0000001000+00000876+00000+0001T   00000876+0000001359          1400 TX6300               2AZ
201882000201882               201882               170213PA     1400+00000+PA0000004644+0000004644+000000000+000000652+0000005290+0000000006+I20000000000+0000005290+Z
201882001201882903-000006     201882006923431571571SWEET GS SOUR BELT 50g 0000001000+00000876+00000+0001T   00000876+0000001402          1400 TX6150               2AZ
201882002201882903-000861     201882005010478430822SWT LOVE HEARTS SML    0000002000+00000876+00000+0001T   00000876+0000001402          1400 TX6150               2AZ
201882003201882903-000907     201882006009802868324SWEET LASER BARBIE     0000001000+00002016+00000+0001T   00002016+0000001402          1400 TX6150               2AZ
201883000201883               201883               170213PA     1400+00000+PA0000000876+0000000876+000000000+000000123+0000000990+0000000009+I20000000000+0000000990+Z
201883001201883306-000021-D   201883006003000622108COTTON EARBUDS COSMETIC0000001000+00000876+00000+0001T   00001139+0008171409          1400 TX6200               2AZ
201884000201884               201884               170213PA     1400+00000+PA0000001664+0000001664+000000000+000000234+0000001890+0000000008+I20000000000+0000001890+Z
201884001201884105-001010     201884006002580007329LUNCH-BOX 1L  ASSTD    0000001000+00000876+00000+0001T   00000876+0000001413          1400 TX6210               2AZ
201884002201884071-081101-A   201884006003000326549GLUE-STICK 25g BLISTER 0000001000+00000788+00000+0001T   00000788+0000001413          1400 TX6130               2AZ
201885000201885               201885               170213PA     1400+00000+PA0000003507+0000003507+000000000+000000491+0000003990+0000000008+I20000000000+0000003990+Z
201885001201885031-086102     201885006001023900722P/FRAME PL WORD-TOP 4AS0000001000+00003507+00000+0001T   00003507+0000001414          1400 TX6510               2AZ
201886000201886               201886               170213PA     1400+00000+PA0000004823+0000004823+000000000+000000676+0000005499+0000000000+I40000005499+0000000000+Z
201886001201886301-085001     201886006003000297610ORN WATERBALL LOVE ASST0000001000+00004823+00000+0001T   00004823+0000001415          1400 TX6505               2AZ
201887000201887               201887               170213PA     1400+00000+PA0000014646+0000014646+000000000+000002051+0000016697+0000000000+I40000016697+0000000000+Z
201887001201887031-080508     201887006001023802415P/FRAME PL 22X11CM LOVE0000001000+00004385+00000+0001T   00004385+0000001421          1400 TX6510               2AZ
201887002201887077-000299     201887006003000395576G/BAG 32x25cm LRG LOVE 0000001000+00001490+00000+0001T   00001490+0000001421          1400 TX6112               2AZ
201887003201887368-000614     201887006001023705808PLUSH LOVE 30cm        0000001000+00008771+00000+0001T   00008771+0000001421          1400 TX6745               2AZ
201888000201888               201888               170213PA     1400+00000+PA0000008766+0000008766+000000000+000001230+0000009996+0000000000+I40000009996+0000000000+Z
201888001201888037-000006     201888006003000171996ASHTRAY PL TUB GIANT   0000001000+00002630+00000+0001T   00003069+0008191424          1400 TX6515               2AZ
201888002201888077-000290     201888006001023902023GIFT BOX 26x32x13cm    0000001000+00001753+00000+0001T   00001753+0000001424          1400 TX6112               2AZ
201888003201888039-000332     201888006001023900470CANDLES 8PCE+NUMBERS   0000001000+00002630+00000+0001T   00002630+0000001424          1400 TX6510               2AZ
201888004201888080-000103     201888006003000236961CARD&ENVLOPE BDAY-MALE 0000001000+00001753+00000+0001T   00001753+0000001424          1400 TX6112               2AZ
201889000201889               201889               170213PA     1400+00000+PA0000004155+0000004155+000000000+000000582+0000004730+0000000007+I20000000000+0000004730+Z
201889001201889018-005009     201889006001023725608MUG W/PLUSH-BEAR LOVE  0000001000+00003507+00000+0001T   00003507+0000001424          1400 TX6515               2AZ
201889002201889083-000055     201889006003000003853LIGHTER ELCTRNC REFILBL0000001000+00000613+00000+0001T   00000613+0000001424          1400 TX6315               2AZ
201889003201889112-116038     201889006009681820246TCS CARRIER BAG MIDI   0000001000+00000035+00000+0001T   00000035+0000001424          1400 TX6090               2AZ
201890000201890               201890               170213PA     1400+00000+PA0000001314+0000001314+000000000+000000184+0000001490+0000000008+I20000000000+0000001490+Z
201890001201890903-000194     201890006009826020616SWT CHOC RP LOLLY 25G  0000001000+00001314+00000+0001T   00001314+0000001429          1400 TX6150               2AZ
201891000201891               201891               170213PA     1400+00000+PA0000002630+0000002630+000000000+000000369+0000002990+0000000009+I20000000000+0000002990+Z
201891001201891464-008103     201891006001023455581GAME CHECKERS          0000001000+00002630+00000+0001T   00002630+0000001430          1400 TX6785               2AZ
201892000201892               201892               170213PA     1400+00000+PA0000010525+0000010525+000000000+000001474+0000011990+0000000009+I20000000000+0000011990+Z
201892001201892265-000322     201892000771171140207BATTERY MOTORBIKE QUAD 0000001000+00010525+00000+0001T   00010525+0000001430          1400 TX6710               2AZ
201893000201893               201893               170213PA     1400+00000+PA0000001752+0000001752+000000000+000000246+0000001990+0000000008+I20000000000+0000001990+Z
201893001201893007-000033     201893006003000535231CARD HOLDER W/LANYARD  0000002000+00000876+00000+0001T   00000876+0000001431          1400 TX6130               2AZ
201894000201894               201894               170213PA     1400+00000+PA0000004119+0000004119+000000000+000000578+0000004690+0000000007+I20000000000+0000004690+Z
201894001201894106-000899     201894006003000653287WTR BOTTLE 2L W/HANDLE 0000001000+00003069+00000+0001T   00003507+0008191432          1400 TX6210               2AZ
201894002201894007-000402     201894006009635830864EXERCISE-BOOK A4 72PGE 0000002000+00000525+00000+0001T   00000525+0000001432          1400 TX6130               2AZ
201895000201895               201895               170213PA     1400+00000+PA0000002192+0000002192+000000000+000000307+0000002490+0000000009+I20000000000+0000002490+Z
201895001201895304-001167     201895006001023846099FLOWER LOTUS FLOATING  0000001000+00002192+00000+0001T   00002192+0000001433          1400 TX6510               2AZ
201896000201896               201896               170213PA     1400+00000+PA0000007014+0000007014+000000000+000000983+0000007990+0000000007+I20000000000+0000007990+Z
201896001201896304-001167     201896006001023846099FLOWER LOTUS FLOATING  0000002000+00002192+00000+0001T   00002192+0000001437          1400 TX6510               2AZ
201896002201896563-000317-F   201896006003000638314SERVIETTE 2PLY 33cm AST0000001000+00002630+00000+0001T   00002630+0000001437          1400 TX6214               2AZ
201897000201897               201897               170213PA     1400+00000+PA0000000035+0000000035+000000000+000000005+0000000040+0000000000+I20000000000+0000000040+Z
201897001201897112-116038     201897006009681820246TCS CARRIER BAG MIDI   0000001000+00000035+00000+0001T   00000035+0000001437          1400 TX6090               2AZ
201898000201898               201898               170213PA     1400+00000+PA0000008815+0000008815+000000000+000001236+0000010051+0000000000+I40000010051+0000000000+Z
201898001201898266-003012     201898006001023786128BOYS P/SET ARCHERY 4pc 0000001000+00002630+00000+0001T   00002630+0000001450          1400 TX6710               2AZ
201898002201898072-020366     201898006003000452927PET PLACE MAT ASSTD COL0000001000+00002630+00000+0001T   00002630+0000001450          1400 TX6870               2AZ
201898003201898072-020259     201898006001023602664DOG-CHEW BONE 10cm 2PCE0000001000+00003507+00000+0001T   00003507+0000001450          1400 TX6870               2AZ
201898004201898112-116069     201898006009681820277TCS CARRIER BAG JUMBO  0000001000+00000048+00000+0001T   00000048+0000001450          1400 TX6090               2AZ
201899000201899               201899               170213PA     1400+00000+PA0000008414+0000008414+000000000+000001181+0000009595+0000000000+I40000009595+0000000000+Z
201899001201899077-000290     201899006001023902023GIFT BOX 26x32x13cm    0000001000-00001753+00000+0001T   00001753+0000001454          1400 TX61122IC            2 Z
201899002201899077-000290     201899006001023902023GIFT BOX 26x32x13cm    0000001000+00001753+00000+0001T   00001753+0000001454          1400 TX61122IC            2AZ
201899003201899077-000289     201899006001023901996GIFT BOX 20x25x11cm    0000001000+00001753+00000+0001T   00001753+0000001454          1400 TX6112               2AZ
201899004201899031-000849     201899006001023851932P/FRM COLLAGE 3-HOLE   0000001000+00004385+00000+0001T   00004385+0000001454          1400 TX6510               2AZ
201899005201899080-000133-A   201899006003000647019MINI VALENTINES CARD   0000002000+00000437+00000+0001T   00000437+0000001454          1400 TX6112               2AZ
201899006201899304-001204     201899006001023737984FLOWER OCC. TEDDY/ROSES0000001000+00001402+00000+0001T   00001490+0006471454          1400 TX6510               2AZ
201900000201900               201900               170213PA     1400+00000+PA0000011082+0000011082+000000000+000001555+0000012637+0000000000+I40000012637+0000000000+Z
201900001201900304-001011     201900006001023806727FLWR ROSE RED W/BEAR   0000018000+00000613+00000+0001T   00000788+0006471502          1400 TX6510               2AZ
201900002201900112-116069     201900006009681820277TCS CARRIER BAG JUMBO  0000001000+00000048+00000+0001T   00000048+0000001502          1400 TX6090               2AZ
201901000201901               201901               170213PA     1400+00000+PA0000001314+0000001314+000000000+000000184+0000001490+0000000008+I20000000000+0000001490+Z
201901001201901077-000310     201901006001023608635GIFT-BAG 18X23CM GLOSS 0000001000+00001314+00000+0001T   00001314+0000001508          1400 TX6112               2AZ
201902000201902               201902               170213PA     1400+00000+PA0000001753+0000001753+000000000+000000246+0000001990+0000000009+I20000000000+0000001990+Z
201902001201902071-001015     201902006001023910387MARKERS PERMANENT 3PK  0000001000+00001753+00000+0001T   00001753+0000001515          1400 TX6130               2AZ
201903000201903               201903               170213PA     1400+00000+PA0000012312+0000012312+000000000+000001725+0000014037+0000000000+I40000014037+0000000000+Z
201903001201903368-000171     201903006003000233250PLUSH BEAR 14cm        0000001000+00005262+00000+0001T   00005262+0000001519          1400 TX6745               2AZ
201903002201903018-019000     201903006003000557288MUG OCC. LOVE JUMBO    0000001000+00005262+00000+0001T   00005262+0000001519          1400 TX6515               2AZ
201903003201903903-000215     201903006002099001214SWT GS MALLOW TWIST PAC0000001000+00001753+00000+0001T   00001753+0000001519          1400 TX6150               2AZ
201903004201903112-116038     201903006009681820246TCS CARRIER BAG MIDI   0000001000+00000035+00000+0001T   00000035+0000001519          1400 TX6090               2AZ
201904000201904               201904               170213PA     1400+00000+PA0000004820+0000004820+000000000+000000676+0000005490+0000000006+I20000000000+0000005490+Z
201904001201904077-000311     201904006001023608666GIFT-BAG 11X14CM GLOSS 0000001000+00000613+00000+0001T   00000613+0000001532          1400 TX6112               2AZ
201904002201904903-000619     201904006003000672455SWT LOLLY STR/BRRY 140G0000001000+00001753+00000+0001T   00001753+0000001532          1400 TX6150               2AZ
201904003201904077-000314     201904006003000181148GIFT-BAG 11X14CM MATT  0000001000+00000876+00000+0001T   00000876+0000001532          1400 TX6112               2AZ
201904004201904018-000127     201904006001023380289MUG OCC STRAIGHT LOVE  0000001000+00001578+00000+0001T   00001753+0006471532          1400 TX6515               2AZ
201904005201904077-000314     201904006003000181148GIFT-BAG 11X14CM MATT  0000001000-00000876+00000+0001T   00000876+0000001532          1400 TX61122IC            2 Z
201904006201904077-000151     201904006008766114676GIFT-WRAP C/PHANE ASSTD0000001000+00000876+00000+0001T   00000876+0000001532          1400 TX6112               2AZ
201905000201905               201905               170213PA     1400+00000+PA0000000035+0000000035+000000000+000000005+0000000040+0000000000+I20000000000+0000000040+Z
201905001201905112-116038     201905006009681820246TCS CARRIER BAG MIDI   0000001000+00000035+00000+0001T   00000035+0000001533          1400 TX6090               2AZ
201906000201906               201906               170213PA     1400+00000+PA0000002191+0000002191+000000000+000000307+0000002490+0000000008+I20000000000+0000002490+Z
201906001201906018-000127     201906006001023380289MUG OCC STRAIGHT LOVE  0000001000+00001578+00000+0001T   00001753+0006471534          1400 TX6515               2AZ
201906002201906903-000849     201906008692806080083SWT SNACK BISCUIT 70g  0000001000+00000613+00000+0001T   00000613+0000001534          1400 TX6150               2AZ
201907000201907               201907               170213PA     1400+00000+PA0000005873+0000005873+000000000+000000823+0000006690+0000000006+I20000000000+0000006690+Z
201907001201907028-002101     201907006002580009507CHAIR JUNIOR    ASSTD  0000001000+00003507+00000+0001T   00003507+0000001538          1400 TX6305               2AZ
201907002201907567-014132     201907006003000560028BOOK COLOURING 24 PAGE 0000001000+00000876+00000+0001T   00000876+0000001538          1400 TX6757               2AZ
201907003201907079-000512     201907006001023635853CRAYONS WAX 12-COLOUR  0000001000+00001490+00000+0001T   00001490+0000001538          1400 TX6130               2AZ
201908000201908               201908               170213PA     1400+00000+PA0000015654+0000015654+000000000+000002194+0000017848+0000000000+I40000017848+0000000000+Z
201908001201908018-050000     201908006003000412679MUG OCC LOVE TWIN BEAR 0000001000+00006139+00000+0001T   00006139+0000001547          1400 TX6515               2AZ
201908002201908018-000129     201908006001023403353MUG OCC. LOVE V-SHAPE  0000001000+00002630+00000+0001T   00002630+0000001547          1400 TX6515               2AZ
201908003201908301-085004     201908006003000420469ORN LOVE PLAQUE 21X10CM0000001000+00003507+00000+0001T   00003946+0006471547          1400 TX6505               2AZ
201908004201908018-000177     201908006001023797513MUG MINI LOVE ASSTD    0000001000+00000700+00000+0001T   00000700+0000001547          1400 TX6515               2AZ
201908005201908077-000270     201908006003000395453GIFT-BAG PPR JMB 33X45 0000001000+00002630+00000+0001T   00002630+0000001547          1400 TX6112               2AZ
201908006201908112-116069     201908006009681820277TCS CARRIER BAG JUMBO  0000001000+00000048+00000+0001T   00000048+0000001547          1400 TX6090               2AZ
201909000201909               201909               170213PA     1400+00000+PA0000019598+0000019598+000000000+000002748+0000022346+0000000000+I40000022346+0000000000+Z
201909001201909007-000104     201909006009685854865BK COVER BRWN KRFT ROLL0000002000+00000350+00000+0001T   00000350+0000001552          1400 TX6130               2AZ
201909002201909024-091102-B   201909006003000111725BAKING-CUP MUFFIN 40PCE0000001000+00002630+00000+0001T   00002630+0000001552          1400 TX6300               2AZ
201909003201909077-000150-D   201909006003000054343GIFT-WRAP CELLPHANE CLR0000002000+00000876+00000+0001T   00000876+0000001552          1400 TX6112               2AZ
201909004201909024-091100     201909006001023914224BAKING-CUPS PAPER 100PC0000001000+00001753+00000+0001T   00001753+0000001552          1400 TX6300               2AZ
201909005201909103-000250     201909006003000571673BASKET WOVEN 29x23x6cm 0000001000+00004823+00000+0001T   00004823+0000001552          1400 TX6300               2AZ
201909006201909112-116069     201909006009681820277TCS CARRIER BAG JUMBO  0000001000+00000048+00000+0001T   00000048+0000001552          1400 TX6090               2AZ
201909007201909368-000175     201909006003000270316PLUSH BEAR 4 ASSTD 18CM0000001000+00006139+00000+0001T   00006139+0000001552          1400 TX6745               2AZ
201909008201909038-001803     201909006001023766588DOILIES 17cm RND 18PC  0000001000+00001753+00000+0001T   00001753+0000001552          1400 TX6300               2AZ
201910000201910               201910               170213PA     1400+00000+PA0000013200+0000013200+000000000+000001849+0000015049+0000000000+I40000015049+0000000000+Z
201910001201910051-600653     201910006003000267774PLANT SEED TRAY 60CUP  0000001000+00001753+00000+0001T   00001753+0000001553          1400 TX6820               2AZ
201910002201910031-000864-B   201910006001023798381P/FRAME MAHOGANY 13X18 0000002000+00003507+00000+0001T   00003507+0000001553          1400 TX6510               2AZ
201910003201910030-000031-A   201910006003000457588PLAQUE W/WORDS ASSTD   0000001000+00004385+00000+0001T   00004823+0006471553          1400 TX6505               2AZ
201910004201910112-116069     201910006009681820277TCS CARRIER BAG JUMBO  0000001000+00000048+00000+0001T   00000048+0000001553          1400 TX6090               2AZ
201911000201911               201911               170213PA     1400+00000+PA0000006169+0000006169+000000000+000000865+0000007030+0000000004+I20000000000+0000007030+Z
201911001201911006-000166-G   201911006003000607976BALLOONS HELIUM 6PC BLK0000001000+00001314+00000+0001T   00001314+0000001554          1400 TX6131               2AZ
201911002201911006-000166-H   201911006003000608096BALLOONS HELIUM 6PC WHT0000001000+00001314+00000+0001T   00001314+0000001554          1400 TX6131               2AZ
201911003201911903-000619     201911006003000672455SWT LOLLY STR/BRRY 140G0000002000+00001753+00000+0001T   00001753+0000001554          1400 TX6150               2AZ
201911004201911112-116038     201911006009681820246TCS CARRIER BAG MIDI   0000001000+00000035+00000+0001T   00000035+0000001554          1400 TX6090               2AZ
201912000201912               201912               170213PA     1400+00000+PA0000009500+0000009500+000000000+000001332+0000010832+0000000000+I40000010832+0000000000+Z
201912001201912903-000221     201912006001704007382SWT EENY-MEENY-MOS 60G 0000001000+00000876+00000+0001T   00000876+0000001556          1400 TX6150               2AZ
201912002201912089-000098     201912006003000677443KEY CHAIN OPENER ASSTD 0000002000+00001314+00000+0001T   00001314+0000001556          1400 TX6205               2AZ
201912003201912565-000080     201912006003000643424NOVELTY BENDY          0000001000+00002192+00000+0001T   00002192+0000001556          1400 TX6745               2AZ
201912004201912903-000087     201912006001704000161SWT SPECKLED-EGGS 50G  0000001000+00001139+00000+0001T   00001139+0000001556          1400 TX6150               2AZ
201912005201912206-000620     201912006003000631797BACK SCRATCHER EXTEND  0000001000+00002630+00000+0001T   00002630+0000001556          1400 TX6321               2AZ
201912006201912112-116038     201912006009681820246TCS CARRIER BAG MIDI   0000001000+00000035+00000+0001T   00000035+0000001556          1400 TX6090               2AZ
201913000201913               201913               170213PA     1400+00000+PA0000005963+0000005963+000000000+000000835+0000006790+0000000008+I20000000000+0000006790+Z
201913001201913077-000303     201913006001023593757GIFT-BAG PAPER MED     0000001000+00001578+00000+0001T   00001578+0000001559          1400 TX6112               2AZ
201913002201913018-030000     201913006003000421060MUG OCCASIONS LOVE 2PCE0000001000+00004385+00000+0001T   00004385+0000001559          1400 TX6515               2AZ
201914000201914               201914               170213PA     1400+00000+PA0000003069+0000003069+000000000+000000430+0000003490+0000000009+I20000000000+0000003490+Z
201914001201914034-091340     201914006001023754370BABY-BIB PRINT MUM/DAD 0000001000+00003069+00000+0001T   00003069+0000001600          1400 TX6215               2AZ
201915000201915               201915               170213PA     1400+00000+PA0000002665+0000002665+000000000+000000374+0000003039+0000000000+I40000003039+0000000000+Z
201915001201915077-000251     201915006003000639106GIFT-DECOR RIBBON      0000001000+00002630+00000+0001T   00002630+0000001604          1400 TX6112               2AZ
201915002201915112-116038     201915006009681820246TCS CARRIER BAG MIDI   0000001000+00000035+00000+0001T   00000035+0000001604          1400 TX6090               2AZ
201916000201916               201916               170213PA     1400+00000+PA0000007834+0000007834+000000000+000001100+0000008934+0000000000+I40000008934+0000000000+Z
201916001201916903-000137     201916006002099004130SWEET GS JELLY BEAN 60G0000001000+00000788+00000+0001T   00000788+0000001607          1400 TX6150               2AZ
201916002201916903-000503     201916006001704006118SWT VAMPIRE FANGS 60G  0000001000+00000876+00000+0001T   00000876+0000001607          1400 TX6150               2AZ
201916003201916903-000483     201916006001704001410SWT LIQUOR SML SORT 60G0000001000+00000876+00000+0001T   00000876+0000001607          1400 TX6150               2AZ
201916004201916079-000206     201916006003000639700PENCIL CRAYONS THERAPY 0000001000+00001753+00000+0001T   00001753+0000001607          1400 TX6130               2AZ
201916005201916079-000359     201916006003000639823FELT-TIP PENS THERAPY  0000001000+00002630+00000+0001T   00002630+0000001607          1400 TX6130               2AZ
201916006201916112-116038     201916006009681820246TCS CARRIER BAG MIDI   0000001000+00000035+00000+0001T   00000035+0000001607          1400 TX6090               2AZ
201916007201916903-000861     201916005010478430822SWT LOVE HEARTS SML    0000001000+00000876+00000+0001T   00000876+0000001607          1400 TX6150               2AZ
201917000201917               201917               170213PA     1400+00000+PA0000005699+0000005699+000000000+000000798+0000006490+0000000007+I20000000000+0000006490+Z
201917001201917362-019282     201917006003000258079H/ACCESS 16PC BEAD HNDL0000001000+00003507+00000+0001T   00003507+0000001610          1400 TX6160               2AZ
201917002201917265-000003     201917006003000651108B/O FIRE ENGINE LC PL  0000001000+00002192+00000+0001T   00002192+0000001610          1400 TX6710               2AZ
201918000201918               201918               170213PA     1400+00000+PA0000010559+0000010559+000000000+000001479+0000012038+0000000000+I40000012038+0000000000+Z
201918001201918001-091415     201918006003000329113W/GLS OCC. LOVE 2PC 2800000001000+00008771+00000+0001T   00009648+0006471631          1400 TX6515               2AZ
201918002201918903-000624     201918006003000671793SWEET LOLLY BLU/BRRY   0000001000+00001753+00000+0001T   00001753+0000001631          1400 TX6150               2AZ
201918003201918112-116038     201918006009681820246TCS CARRIER BAG MIDI   0000001000+00000035+00000+0001T   00000035+0000001631          1400 TX6090               2AZ
201919000201919               201919               170213PA     1400+00000+PA0000008329+0000008329+000000000+000001167+0000009496+0000000000+I40000009496+0000000000+Z
201919001201919368-000049     201919006003000536955PLUSH BEAR 15cm LOVE   0000001000+00004385+00000+0001T   00004385+0000001635          1400 TX6745               2AZ
201919002201919018-000129     201919006001023403353MUG OCC. LOVE V-SHAPE  0000001000+00002630+00000+0001T   00002630+0000001635          1400 TX6515               2AZ
201919003201919077-000312     201919006001023608697GIFT-BAG 10X35CM GLOSS 0000001000+00001314+00000+0001T   00001314+0000001635          1400 TX6112               2AZ
201920000201920               201920               170213PA     1400+00000+PA0000001050+0000001050+000000000+000000147+0000001190+0000000007+I20000000000+0000001190+Z
201920001201920007-000104     201920006009685854865BK COVER BRWN KRFT ROLL0000003000+00000350+00000+0001T   00000350+0000001636          1400 TX6130               2AZ
201921000201921               201921               170213PA     1400+00000+PA0000024622+0000024622+000000000+000003450+0000028072+0000000000+I40000028072+0000000000+Z
201921001201921077-000456     201921006003000285549G/BAG METALLIC JMB EMB 0000001000+00002630+00000+0001T   00002630+0000001637          1400 TX6112               2AZ
201921002201921368-000113     201921006001023780874PLUSH BLINGED LOVE 30cm0000001000+00012279+00000+0001T   00012279+0000001637          1400 TX6745               2AZ
201921003201921301-085004     201921006003000420469ORN LOVE PLAQUE 21X10CM0000001000+00003507+00000+0001T   00003946+0006471637          1400 TX6505               2AZ
201921004201921030-000010     201921006003000084395P/DOOR HANGER 2-ASSTD  0000001000+00001314+00000+0001T   00001490+0008181637          1400 TX6505               2AZ
201921005201921301-085001     201921006003000297610ORN WATERBALL LOVE ASST0000001000+00004823+00000+0001T   00004823+0000001637          1400 TX6505               2AZ
201921006201921112-116053     201921006006438002399TCS CARRIER BAG 38L    0000001000+00000069+00000+0001T   00000069+0000001637          1400 TX6090               2AZ
201922000201922               201922               170213PA     1400+00000+PA0000009908+0000009908+000000000+000001388+0000011296+0000000000+I40000011296+0000000000+Z
201922001201922077-000315     201922006003000181186GIFT-BAG 20x28cm MATT  0000001000+00001578+00000+0001T   00001578+0000001639          1400 TX6112               2AZ
201922002201922031-005853     201922006003000442416P/FRAME WDN TWIN HEARTS0000001000+00003507+00000+0001T   00003507+0000001639          1400 TX6510               2AZ
201922003201922301-085001     201922006003000297610ORN WATERBALL LOVE ASST0000001000+00004823+00000+0001T   00004823+0000001639          1400 TX6505               2AZ
201923000201923               201923               170213PA     1400+00000+PA0000002190+0000002190+000000000+000000307+0000002497+0000000000+I40000002497+0000000000+Z
201923001201923077-000314     201923006003000181148GIFT-BAG 11X14CM MATT  0000001000+00000876+00000+0001T   00000876+0000001640          1400 TX6112               2AZ
201923002201923077-000310     201923006001023608635GIFT-BAG 18X23CM GLOSS 0000001000+00001314+00000+0001T   00001314+0000001640          1400 TX6112               2AZ
201924000201924               201924               170213PA     1400+00000+PA0000062595+0000062595+000000000+000008770+0000071360+0000000005+I20000000000+0000071360+Z
201924001201924301-085007     201924006003000673698ORN OCC. LOVE S/PLAQUE 0000001000+00007893+00000+0001T   00007893+0000001644          1400 TX6505               2AZ
201924002201924368-000265     201924006001023750914PLUSH BEAR 23CM ASSTD C0000002000+00006139+00000+0001T   00006139+0000001644          1400 TX6745               2AZ
201924003201924368-000111     201924006001023780812PLUSH BEAR/DOG 29CM    0000002000+00012279+00000+0001T   00012279+0000001644          1400 TX6745               2AZ
201924004201924301-085001     201924006003000297610ORN WATERBALL LOVE ASST0000001000+00004823+00000+0001T   00004823+0000001644          1400 TX6505               2AZ
201924005201924077-000299     201924006003000395576G/BAG 32x25cm LRG LOVE 0000004000+00001490+00000+0001T   00001490+0000001644          1400 TX6112               2AZ
201924006201924112-116053     201924006006438002399TCS CARRIER BAG 38L    0000001000+00000069+00000+0001T   00000069+0000001644          1400 TX6090               2AZ
201924007201924018-005009     201924006001023725608MUG W/PLUSH-BEAR LOVE  0000002000+00003507+00000+0001T   00003507+0000001644          1400 TX6515               2AZ
201925000201925               201925               170213PA     1400+00000+PA0000010383+0000010383+000000000+000001454+0000011830+0000000007+I20000000000+0000011830+Z
201925001201925018-030000     201925006003000421060MUG OCCASIONS LOVE 2PCE0000001000+00004385+00000+0001T   00004385+0000001648          1400 TX6515               2AZ
201925002201925368-000001     201925006003000097982Plush Bear 25cm        0000001000+00004385+00000+0001T   00004385+0000001648          1400 TX6745               2AZ
201925003201925077-000303     201925006001023593757GIFT-BAG PAPER MED     0000001000+00001578+00000+0001T   00001578+0000001648          1400 TX6112               2AZ
201925004201925112-116038     201925006009681820246TCS CARRIER BAG MIDI   0000001000+00000035+00000+0001T   00000035+0000001648          1400 TX6090               2AZ
201926000201926               201926               170213PA     1400+00000+PA0000004694+0000004694+000000000+000000658+0000005350+0000000002+I20000000000+0000005350+Z
201926001201926077-000303     201926006001023593757GIFT-BAG PAPER MED     0000002000+00001578+00000+0001T   00001578+0000001649          1400 TX6112               2AZ
201926002201926077-000299     201926006003000395576G/BAG 32x25cm LRG LOVE 0000001000+00001490+00000+0001T   00001490+0000001649          1400 TX6112               2AZ
201926003201926112-116069     201926006009681820277TCS CARRIER BAG JUMBO  0000001000+00000048+00000+0001T   00000048+0000001649          1400 TX6090               2AZ
201927000201927               201927               170213PA     1400+00000+PA0000011135+0000011135+000000000+000001560+0000012690+0000000005+I20000000000+0000012690+Z
201927001201927077-000309-A   201927006003000671007GIFT-BAG HOLOGRAM JMB  0000001000+00002192+00000+0001T   00002192+0000001650          1400 TX6112               2AZ
201927002201927077-000463     201927006003000321698G/BAG GLITTER MED20x28 0000001000+00002192+00000+0001T   00002192+0000001650          1400 TX6112               2AZ
201927003201927368-000001     201927006003000097982Plush Bear 25cm        0000001000+00004385+00000+0001T   00004385+0000001650          1400 TX6745               2AZ
201927004201927565-000044     201927006003000128280BARREL OF SLIME 100g   0000001000+00000613+00000+0001T   00000613+0000001650          1400 TX6745               2AZ
201927005201927903-000082     201927006001704014892SWT MINI WINE GUMS 100G0000001000+00001753+00000+0001T   00001753+0000001650          1400 TX6150               2AZ
201928000201928               201928               170213PA     1400+00000+PA0000004385+0000004385+000000000+000000614+0000004990+0000000009+I20000000000+0000004990+Z
201928001201928018-030000     201928006003000421060MUG OCCASIONS LOVE 2PCE0000001000+00004385+00000+0001T   00004385+0000001657          1400 TX6515               2AZ
201929000201929               201929               170213PA     1400+00000+PA0000005346+0000005346+000000000+000000749+0000006095+0000000000+I40000006095+0000000000+Z
201929001201929077-000315     201929006003000181186GIFT-BAG 20x28cm MATT  0000001000+00001578+00000+0001T   00001578+0000001704          1400 TX6112               2AZ
201929002201929077-000319     201929006001023609779GIFT-BAG 18X23CM BIRTHD0000002000+00001227+00000+0001T   00001227+0000001704          1400 TX6112               2AZ
201929003201929077-000407     201929006003000145096G/BAG PP 19X26X8CM     0000001000+00001314+00000+0001T   00001314+0000001704          1400 TX6112               2AZ
201930000201930               201930               170213PA     1400+00000+PA0000004385+0000004385+000000000+000000614+0000004990+0000000009+I20000000000+0000004990+Z
201930001201930018-030000     201930006003000421060MUG OCCASIONS LOVE 2PCE0000001000+00004385+00000+0001T   00004385+0000001704          1400 TX6515               2AZ
201931000201931               201931               170213PA     1400+00000+PA0000001753+0000001753+000000000+000000246+0000001999+0000000000+I40000001999+0000000000+Z
201931001201931004-071218     201931006003000443369C/PHONE STAND ASSTD-COL0000001000+00001753+00000+0001T   00001753+0000001705          1400 TX6310               2AZ
201932000201932               201932               170213PA     1400+00000+PA0000005292+0000005292+000000000+000000743+0000006030+0000000005+I20000000000+0000006030+Z
201932001201932018-000138     201932006003000547104MUG NOVELTY CER. T-SHPE0000001000+00001753+00000+0001T   00002192+0008171708          1400 TX6515               2AZ
201932002201932089-000030     201932006003000575671K/CHAIN LOVE MTL ASSTD 0000001000+00001753+00000+0001T   00001753+0000001708          1400 TX6205               2AZ
201932003201932046-000012     201932006904708013062BATTERIES AA  CARD-OF-40000001000+00001314+00000+0001T   00001314+0000001708          1400 TX6312               2AZ
201932004201932080-000133     201932006003000535613CARD&ENV MINI ASTD DSGN0000001000+00000437+00000+0001T   00000437+0000001708          1400 TX6112               2AZ
201932005201932112-116038     201932006009681820246TCS CARRIER BAG MIDI   0000001000+00000035+00000+0001T   00000035+0000001708          1400 TX6090               2AZ
201933000201933               201933               170213PA     1400+00000+PA0000002192+0000002192+000000000+000000307+0000002490+0000000009+I20000000000+0000002490+Z
201933001201933077-000926     201933006003000414178G/WRAP 700mmx2m LOVE   0000001000+00002192+00000+0001T   00002192+0000001709          1400 TX6112               2AZ
201934000201934               201934               170213PA     1400+00000+PA0000003506+0000003506+000000000+000000492+0000003990+0000000008+I20000000000+0000003990+Z
201934001201934903-000610     201934006003000610518SWEET JUMBO BUBBLE GUM 0000002000+00001753+00000+0001T   00001753+0000001738          1400 TX6150               2AZ
201935000201935               201935               170213PA     1400+00000+PA0000000874+0000000874+000000000+000000124+0000000990+0000000008+I20000000000+0000000990+Z
201935001201935080-000133-A   201935006003000647019MINI VALENTINES CARD   0000002000+00000437+00000+0001T   00000437+0000001738          1400 TX6112               2AZ
201936000201936               201936               170213PA     1400+00000+PA0000011400+0000011400+000000000+000001597+0000012997+0000000000+I40000012997+0000000000+Z
201936001201936301-000105     201936006003000456062ORN NECKLACE ANGEL ASTD0000002000+00005262+00000+0001T   00005262+0000001744          1400 TX6505               2AZ
201936002201936903-000494     201936006001704009911SWT GUMMY TEENY TEDDIES0000001000+00000876+00000+0001T   00000876+0000001744          1400 TX6150               2AZ
201937000201937               201937               170213PA     1400+00000+PA0000000874+0000000874+000000000+000000124+0000000990+0000000008+I20000000000+0000000990+Z
201937001201937080-000133     201937006003000535613CARD&ENV MINI ASTD DSGN0000002000+00000437+00000+0001T   00000437+0000001745          1400 TX6112               2AZ
201938000201938               201938               170213PA     1400+00000+PA0000008505+0000008505+000000000+000001192+0000009697+0000000000+I40000009697+0000000000+Z
201938001201938903-000861     201938005010478430822SWT LOVE HEARTS SML    0000001000+00000876+00000+0001T   00000876+0000001749          1400 TX6150               2AZ
201938002201938368-000265     201938006001023750914PLUSH BEAR 23CM ASSTD C0000001000+00006139+00000+0001T   00006139+0000001749          1400 TX6745               2AZ
201938003201938077-000299     201938006003000395576G/BAG 32x25cm LRG LOVE 0000001000+00001490+00000+0001T   00001490+0000001749          1400 TX6112               2AZ
201939000201939               201939               170213PA     1400+00000+PA0000002453+0000002453+000000000+000000344+0000002797+0000000000+I40000002797+0000000000+Z
201939001201939466-008889     201939006001023835376WHISTLE SPORTS+STRING  0000001000+00001753+00000+0001T   00001753+0000001751          1400 TX6785               2AZ
201939002201939007-000537     201939000651728791017NOTE-PAD RND SMILE-FACE0000001000+00000700+00000+0001T   00000700+0000001751          1400 TX6130               2AZ
201940000201940               201940               170213PA     1400+00000+PA0000001753+0000001753+000000000+000000246+0000001990+0000000009+I20000000000+0000001990+Z
201940001201940080-000104     201940006003000236978CARD&ENVLP MALE AFR    0000001000+00001753+00000+0001T   00001753+0000001751          1400 TX6112               2AZ
201941000201941               201941               170213PA     1400+00000+PA0000006139+0000006139+000000000+000000860+0000006999+0000000000+I40000006999+0000000000+Z
201941001201941368-000175     201941006003000270316PLUSH BEAR 4 ASSTD 18CM0000001000+00006139+00000+0001T   00006139+0000001752          1400 TX6745               2AZ
201942000201942               201942               170213PA     1400+00000+PA0000001490+0000001490+000000000+000000209+0000001690+0000000009+I20000000000+0000001690+Z
201942001201942077-000299     201942006003000395576G/BAG 32x25cm LRG LOVE 0000001000+00001490+00000+0001T   00001490+0000001753          1400 TX6112               2AZ
201943000201943               201943               170213PA     1400+00000+PA0000006608+0000006608+000000000+000000927+0000007530+0000000005+I20000000000+0000007530+Z
201943001201943108-001225     201943006003000010240SALAD BOWL MINI 380ML  0000001000+00000876+00000+0001T   00000876+0000001754          1400 TX6210               2AZ
201943002201943077-000314     201943006003000181148GIFT-BAG 11X14CM MATT  0000001000+00000876+00000+0001T   00000876+0000001754          1400 TX6112               2AZ
201943003201943089-000220     201943006003000677368KEY CHAIN+PEN+KNIFE    0000001000+00003069+00000+0001T   00003069+0000001754          1400 TX6205               2AZ
201943004201943088-000052     201943006001023760401T/FRESHENER CISTERN BLK0000002000+00000876+00000+0001T   00000876+0000001754          1400 TX6212               2AZ
201943005201943112-116038     201943006009681820246TCS CARRIER BAG MIDI   0000001000+00000035+00000+0001T   00000035+0000001754          1400 TX6090               2AZ
201944000201944               201944               170213PA     1400+00000+PA0000005084+0000005084+000000000+000000713+0000005790+0000000007+I20000000000+0000005790+Z
201944001201944903-000709     201944006002099007070SWT QUENCHERS FRUIT    0000001000+00001139+00000+0001T   00001139+0000001756          1400 TX6150               2AZ
201944002201944080-000139     201944006003000611690CARD & ENV MINI SET 6PC0000001000+00002192+00000+0001T   00002192+0000001756          1400 TX6112               2AZ
201944003201944077-000297     201944006001023869814GIFT BOX OCCASIONS SQRE0000001000+00001753+00000+0001T   00001753+0000001756          1400 TX6112               2AZ
A17021300                                          17084526PASLAVE 2                       TX62IC
M17021391                              CASH        PASLAVE 2                       Z-REPORT No.   582TOTAL (Sales - Refunds)           6377.21       CASH TO BE BANKED                 2978.60       DEBIT CARDS                          0.00       CREDIT CARDS                      3398.61       Z-READING                         6377.21       AIRTIME DEBIT CARD SALES             0.00       AIRTIME CARD SALES                   0.00       OVERS/UNDERS                         0.00       AIRTIME CASH SALES                   0.00       GIFT CARDS                           0.00       GIFT CARD CASH SALES                 0.00       T O T A L  CASH PAYOUTS              0.00                                                                                                                                                                                                                                                                                                                                                      Z
M17021392                              CASH        PAABSENT                                                                                                                                                                                          ANNUAL LEAVE                                                                                                                                                                                    DAY OFF                                                                                                                                                                                         COMMENTS                                                                                                                                                                                                                                                                                                                                                                                       Z
Y17021300                                          PA00000000564901+000082
ZPA17021320163 SLAVE 2      SALES DATA                     NEXT INVOICE NO.  201945 0582
X PA Slave 2 First invoice 201863 170213 Last invoice 201944 170213 Next invoice 201945 Total number of records 000000315 clbackup completed 20:16:58
