109685000109685               109685               170213PB     1400+00000+PB0000004120+0000004120+000000000+000000577+0000004690+0000000007+I20000000000+0000004690+Z
109685001109685077-000934     109685006003000409921G/WRAP 700mmx5m BIRTHDA0000001000+00003507+00000+0001T   00003507+0000000940          1400 IJ7112               1AZ
109685002109685077-000321     109685006001023677501GIFT-BAG 11X14CM E/D FL0000001000+00000613+00000+0001T   00000613+0000000940          1400 IJ7112               1AZ
109686000109686               109686               170213PB     1400+00000+PB0000001753+0000001753+000000000+000000246+0000001999+0000000000+I40000001999+0000000000+Z
109686001109686077-000900     109686006003000410446G/WRAP 700mmx1m ANIMAL 0000001000+00001753+00000+0001T   00001753+0000000945          1400 IJ7112               1AZ
109687000109687               109687               170213PB     1400+00000+PB0000015477+0000015477+000000000+000002168+0000017645+0000000000+I40000017645+0000000000+Z
109687001109687036-000405     109687006001023630247CLOTHES DRYER PL 18-PEG0000001000+00004385+00000+0001T   00004385+0000000955          1400 IJ7212               1AZ
109687002109687566-000317     109687006003000524204STICKER TAPE 2PCS      0000001000+00003507+00000+0001T   00003507+0000000955          1400 IJ7130               1AZ
109687003109687566-000062     109687006001023689641S/BOOK STICKER GLITTER 0000002000+00000700+00000+0001T   00000876+0008150955          1400 IJ7130               1AZ
109687004109687034-001486     109687006001023713803COOEY BABY-FOOD FREEZER0000001000+00003507+00000+0001T   00003507+0000000955          1400 IJ7215               1AZ
109687005109687002-220002     109687006001023677877F/COVER SQ 31cm WHT    0000001000+00002630+00000+0001T   00002630+0000000955          1400 IJ7300               1AZ
109687006109687112-116069     109687006009681820277TCS CARRIER BAG JUMBO  0000001000+00000048+00000+0001T   00000048+0000000955          1400 IJ7090               1AZ
109688000109688               109688               170213PB     1400+00000+PB0000007049+0000007049+000000000+000000987+0000008036+0000000000+I40000008036+0000000000+Z
109688001109688018-005009     109688006001023725608MUG W/PLUSH-BEAR LOVE  0000002000+00003507+00000+0001T   00003507+0000001007          1400 IJ7515               1AZ
109688002109688112-116038     109688006009681820246TCS CARRIER BAG MIDI   0000001000+00000035+00000+0001T   00000035+0000001007          1400 IJ7090               1AZ
109689000109689               109689               170213PB     1400+00000+PB0000001788+0000001788+000000000+000000251+0000002030+0000000009+I20000000000+0000002030+Z
109689001109689080-000112     109689006003000252749CARD&ENVLP BDAY-MUSICAL0000001000+00001753+00000+0001T   00001753+0000001020          1400 IJ7112               1AZ
109689002109689112-116038     109689006009681820246TCS CARRIER BAG MIDI   0000001000+00000035+00000+0001T   00000035+0000001020          1400 IJ7090               1AZ
109690000109690               109690               170213PB     1400+00000+PB0000003857+0000003857+000000000+000000541+0000004390+0000000008+I20000000000+0000004390+Z
109690001109690033-000013     109690006001023567215PILL-REMINDER PL       0000001000+00001227+00000+0001T   00001227+0000001027          1400 IJ7200               1AZ
109690002109690033-000008     109690006003000226818PILL REMINDER 28-COMPAR0000001000+00002630+00000+0001T   00002630+0000001027          1400 IJ7200               1AZ
109691000109691               109691               170213PB     1400+00000+PB0000003507+0000003507+000000000+000000491+0000003990+0000000008+I20000000000+0000003990+Z
109691001109691071-003043     109691006003000143948PEN CALIGRAPHY SET 8PCE0000001000+00003507+00000+0001T   00003507+0000001034          1400 IJ7130               1AZ
109692000109692               109692               170213PB     1400+00000+PB0000007060+0000007060+000000000+000000991+0000008051+0000000000+I40000008051+0000000000+Z
109692001109692077-000316     109692006001023609731GIFT-BAG 25X32CM MATT  0000004000+00001753+00000+0001T   00001753+0000001036          1400 IJ7112               1AZ
109692002109692112-116069     109692006009681820277TCS CARRIER BAG JUMBO  0000001000+00000048+00000+0001T   00000048+0000001036          1400 IJ7090               1AZ
109693000109693               109693               170213PB     1400+00000+PB0000010119+0000010119+000000000+000001418+0000011537+0000000000+I40000011537+0000000000+Z
109693001109693466-000515     109693006001023477408BALLS TENNIS BAG-OF-3  0000001000+00002630+00000+0001T   00002630+0000001040          1400 IJ7785               1AZ
109693002109693466-002096     109693006001023800398CATCHBALL VELCRO W/BALL0000001000+00005262+00000+0001T   00005262+0000001040          1400 IJ7785               1AZ
109693003109693033-000002     109693006003000621781TINTING BOTTLES 2PC    0000001000+00002192+00000+0001T   00002192+0000001040          1400 IJ7200               1AZ
109693004109693112-116038     109693006009681820246TCS CARRIER BAG MIDI   0000001000+00000035+00000+0001T   00000035+0000001040          1400 IJ7090               1AZ
109694000109694               109694               170213PB     1400+00000+PB0000016091+0000016091+000000000+000002256+0000018340+0000000007+I20000000000+0000018340+Z
109694001109694142-000816     109694006001023477163GLOVES DISPOSE PACK-50 0000001000+00002630+00000+0001T   00002630+0000001059          1400 IJ7810               1AZ
109694002109694306-007302     109694006001023730954BACK-SCRATCH+MASSAGE-WH0000001000+00001753+00000+0001T   00001753+0000001059          1400 IJ7200               1AZ
109694003109694204-000020     109694006003000573264MEMO HOLDER WINE BOTTLS0000001000+00001578+00000+0001T   00001578+0000001059          1400 IJ7300               1AZ
109694004109694204-000019     109694006003000677474MEMO HOLDERS THERMOMETE0000001000+00000876+00000+0001T   00000876+0000001059          1400 IJ7300               1AZ
109694005109694032-000313     109694006003000192076MIRROR POCKET PL ROUND 0000001000+00001753+00000+0001T   00001753+0000001059          1400 IJ7510               1AZ
109694006109694112-116069     109694006009681820277TCS CARRIER BAG JUMBO  0000001000+00000048+00000+0001T   00000048+0000001059          1400 IJ7090               1AZ
109694007109694403-000501     109694006003000247677M/BANK PL POSTBOX 20CM 0000001000+00003946+00000+0001T   00003946+0000001059          1400 IJ7510               1AZ
109694008109694024-000168-E   109694006003000675272T/PLATE ROUND CAKE PAN 0000001000+00003507+00000+0001T   00003507+0000001059          1400 IJ7300               1AZ
109695000109695               109695               170213PB     1400+00000+PB0000003507+0000003507+000000000+000000491+0000003990+0000000008+I20000000000+0000003990+Z
109695001109695486-000003     109695006001023702395CLOCK QTZ ROUND        0000001000+00003507+00000+0001T   00003507+0000001100          1400 IJ7510               1AZ
109696000109696               109696               170213PB     1400+00000+PB0000000700+0000000700+000000000+000000098+0000000790+0000000008+I20000000000+0000000790+Z
109696001109696564-000012     109696006001023130075BUBBLE BOTTLE MAGIC    0000001000+00000700+00000+0001T   00000700+0000001137          1400 IJ7131               1AZ
109697000109697               109697               170213PB     1400+00000+PB0000002678+0000002678+000000000+000000376+0000003050+0000000004+I20000000000+0000003050+Z
109697001109697080-000135     109697006003000591107CARD & ENV GIANT GIRL  0000001000+00002630+00000+0001T   00002630+0000001142          1400 IJ7112               1AZ
109697002109697112-116069     109697006009681820277TCS CARRIER BAG JUMBO  0000001000+00000048+00000+0001T   00000048+0000001142          1400 IJ7090               1AZ
109698000109698               109698               170213PB     1400+00000+PB0000005262+0000005262+000000000+000000737+0000005999+0000000000+I40000005999+0000000000+Z
109698001109698366-002195     109698006001023990549DRESS UP WINGS FEATHER 0000001000+00005262+00000+0001T   00005262+0000001143          1400 IJ7131               1AZ
109699000109699               109699               170213PB     1400+00000+PB0000002630+0000002630+000000000+000000369+0000002990+0000000009+I20000000000+0000002990+Z
109699001109699567-075466     109699009780263917444BK NOVEL ROMANCE       0000001000+00002630+00000+0001T   00002630+0000001151          1400 IJ7757               1AZ
109700000109700               109700               170213PB     1400+00000+PB0000004644+0000004644+000000000+000000652+0000005296+0000000000+I40000005296+0000000000+Z
109700001109700903-000897     109700008692806325207SWT CHOC DBL MINI ROLL 0000002000+00000876+00000+0001T   00000876+0000001152          1400 IJ7150               1AZ
109700002109700903-000087     109700006001704000161SWT SPECKLED-EGGS 50G  0000001000+00001139+00000+0001T   00001139+0000001152          1400 IJ7150               1AZ
109700003109700077-000309     109700006001023608604GIFT-BAG 25X32CM GLOSS 0000001000+00001753+00000+0001T   00001753+0000001152          1400 IJ7112               1AZ
109701000109701               109701               170213PB     1400+00000+PB0000005610+0000005610+000000000+000000786+0000006396+0000000000+I40000006396+0000000000+Z
109701001109701104-000184     109701006003000666157CUTLERY HOLDER PL 3-DIV0000001000+00003507+00000+0001T   00003507+0000001157          1400 IJ7210               1AZ
109701002109701903-000518     109701006001704012782SWT STRAWS S/BERRY 100g0000001000+00001227+00000+0001T   00001227+0000001157          1400 IJ7150               1AZ
109701003109701204-000019     109701006003000677474MEMO HOLDERS THERMOMETE0000001000+00000876+00000+0001T   00000876+0000001157          1400 IJ7300               1AZ
109702000109702               109702               170213PB     1400+00000+PB0000001490+0000001490+000000000+000000209+0000001690+0000000009+I20000000000+0000001690+Z
109702001109702077-000299     109702006003000395576G/BAG 32x25cm LRG LOVE 0000001000+00001490+00000+0001T   00001490+0000001159          1400 IJ7112               1AZ
109703000109703               109703               170213PB     1400+00000+PB0000010218+0000010218+000000000+000001431+0000011649+0000000000+I40000011649+0000000000+Z
109703001109703018-000127     109703006001023380289MUG OCC STRAIGHT LOVE  0000002000+00001578+00000+0001T   00001753+0006471209          1400 IJ7515               1AZ
109703002109703018-000136     109703006001023659026MUG OCC LOVE W/PLUSH   0000002000+00003507+00000+0001T   00003507+0000001209          1400 IJ7515               1AZ
109703003109703112-116069     109703006009681820277TCS CARRIER BAG JUMBO  0000001000+00000048+00000+0001T   00000048+0000001209          1400 IJ7090               1AZ
109704000109704               109704               170213PB     1400+00000+PB0000000437+0000000437+000000000+000000062+0000000490+0000000009+I20000000000+0000000490+Z
109704001109704080-000133-A   109704006003000647019MINI VALENTINES CARD   0000001000+00000437+00000+0001T   00000437+0000001250          1400 IJ7112               1AZ
109705000109705               109705               170213PB     1400+00000+PB0000003507+0000003507+000000000+000000491+0000003998+0000000000+I40000003998+0000000000+Z
109705001109705031-005853     109705006003000442416P/FRAME WDN TWIN HEARTS0000001000+00003507+00000+0001T   00003507+0000001306          1400 IJ7510               1AZ
109706000109706               109706               170213PB     1400+00000+PB0000003291+0000003291+000000000+000000462+0000003750+0000000003+I20000000000+0000003750+Z
109706001109706077-000005-D   109706006003000414567PAPER TISSUE 50x70cm   0000001000+00001753+00000+0001T   00001753+0000001307          1400 IJ7112               1AZ
109706002109706077-000299     109706006003000395576G/BAG 32x25cm LRG LOVE 0000001000+00001490+00000+0001T   00001490+0000001307          1400 IJ7112               1AZ
109706003109706112-116069     109706006009681820277TCS CARRIER BAG JUMBO  0000001000+00000048+00000+0001T   00000048+0000001307          1400 IJ7090               1AZ
109707000109707               109707               170213PB     1400+00000+PB0000017572+0000017572+000000000+000002463+0000020030+0000000005+I20000000000+0000020030+Z
109707001109707106-000901     109707006003000538058WATER BOTTLE 600ml     0000002000+00006139+00000+0001T   00006139+0000001311          1400 IJ7210               1AZ
109707002109707089-000004     109707006003000137749KEY CHAIN MTL CHARMS   0000003000+00001753+00000+0001T   00001753+0000001311          1400 IJ7205               1AZ
109707003109707112-116038     109707006009681820246TCS CARRIER BAG MIDI   0000001000+00000035+00000+0001T   00000035+0000001311          1400 IJ7090               1AZ
109708000109708               109708               170213PB     1400+00000+PB0000010378+0000010378+000000000+000001455+0000011833+0000000000+I40000011833+0000000000+Z
109708001109708112-116038     109708006009681820246TCS CARRIER BAG MIDI   0000001000+00000035+00000+0001T   00000035+0000001315          1400 IJ7090               1AZ
109708002109708077-000323     109708006001023677563G/BAG 25X32CM E/DAY FLO0000001000+00001578+00000+0001T   00001578+0000001315          1400 IJ7112               1AZ
109708003109708083-000055     109708006003000003853LIGHTER ELCTRNC REFILBL0000001000+00000613+00000+0001T   00000613+0000001315          1400 IJ7315               1AZ
109708004109708031-000878-B   109708006001023799012P/FRAME 13x18cm PL-SLID0000001000+00001490+00000+0001T   00001490+0000001315          1400 IJ7510               1AZ
109708005109708903-000155     109708006009803374435SWT LOLLY I LUV U HEART0000001000+00000525+00000+0001T   00000525+0000001315          1400 IJ7150               1AZ
109708006109708361-000296     109708006001023750402DOLL 27cm GLITZY/ANGEL 0000001000+00002630+00000+0001T   00002630+0000001315          1400 IJ7725               1AZ
109708007109708018-000136     109708006001023659026MUG OCC LOVE W/PLUSH   0000001000+00003507+00000+0001T   00003507+0000001315          1400 IJ7515               1AZ
109709000109709               109709               170213PB     1400+00000+PB0000007048+0000007048+000000000+000000988+0000008030+0000000006+I20000000000+0000008030+Z
109709001109709366-007917     109709006003000653621DRESS UP MASK ANIMALS  0000001000+00000876+00000+0001T   00000876+0000001316          1400 IJ7131               1AZ
109709002109709361-090307     109709000026676675601PONY 11CM W/DOLL SML   0000001000+00002630+00000+0001T   00002630+0000001316          1400 IJ7725               1AZ
109709003109709361-000664     109709006003000157402DOLL BIG EYE BEAUTY    0000001000+00003507+00000+0001T   00004385+0008191316          1400 IJ7725               1AZ
109709004109709112-116038     109709006009681820246TCS CARRIER BAG MIDI   0000001000+00000035+00000+0001T   00000035+0000001316          1400 IJ7090               1AZ
109710000109710               109710               170213PB     1400+00000+PB0000014030+0000014030+000000000+000001965+0000015990+0000000005+I20000000000+0000015990+Z
109710001109710560-000104     109710006001023747037ANIMALS WILD IN-TUBE   0000002000+00003507+00000+0001T   00003507+0000001317          1400 IJ7745               1AZ
109710002109710263-000417     109710006003000598984VEHICLES MONSTER FRICT.0000001000+00007016+00000+0001T   00007016+0000001317          1400 IJ7710               1AZ
109711000109711               109711               170213PB     1400+00000+PB0000021925+0000021925+000000000+000003070+0000024995+0000000000+I40000024995+0000000000+Z
109711001109711031-000868-D   109711006003000580330P/FRAME PL BLCK CERT.  0000004000+00004385+00000+0001T   00004385+0000001319          1400 IJ7510               1AZ
109711002109711031-005921     109711006001023667847P/FRAME PL PLAIN       0000001000+00004385+00000+0001T   00004385+0000001319          1400 IJ7510               1AZ
109712000109712               109712               170213PB     1400+00000+PB0000003506+0000003506+000000000+000000492+0000003990+0000000008+I20000000000+0000003990+Z
109712001109712006-000107     109712006003000587872BALLOONS ITS BOY/GIRL  0000002000+00001753+00000+0001T   00001753+0000001320          1400 IJ7131               1AZ
109713000109713               109713               170213PB     1400+00000+PB0000008770+0000008770+000000000+000001228+0000009990+0000000008+I20000000000+0000009990+Z
109713001109713206-000160     109713006003000628780CORN KERNELER          0000002000+00004385+00000+0001T   00004385+0000001321          1400 IJ7321               1AZ
109714000109714               109714               170213PB     1400+00000+PB0000006139+0000006139+000000000+000000860+0000006990+0000000009+I20000000000+0000006990+Z
109714001109714082-000120-A   109714006001023755834R/GLASS  FRAME W/CASE  0000001000+00006139+00000+0001T   00006139+0000001322          1400 IJ7160               1AZ
109715000109715               109715               170213PB     1400+00000+PB0000002980+0000002980+000000000+000000418+0000003390+0000000008+I20000000000+0000003390+Z
109715001109715140-001004     109715006001023880932FLY-RIBBONS 4PCE PL    0000002000+00001490+00000+0001T   00001490+0000001323          1400 IJ7830               1AZ
109716000109716               109716               170213PB     1400+00000+PB0000001753+0000001753+000000000+000000246+0000001990+0000000009+I20000000000+0000001990+Z
109716001109716077-000308     109716006001023595812GIFT-BAG 33X45CM E/DAY 0000001000+00001753+00000+0001T   00001753+0000001326          1400 IJ7112               1AZ
109717000109717               109717               170213PB     1400+00000+PB0000017542+0000017542+000000000+000002456+0000019998+0000000000+I40000019998+0000000000+Z
109717001109717072-020237     109717006003000623402PET BED COTTON TEXTILE 0000001000+00017542+00000+0001T   00017542+0000001331          1400 IJ7870               1AZ
109718000109718               109718               170213PB     1400+00000+PB0000002628+0000002628+000000000+000000369+0000002990+0000000007+I20000000000+0000002990+Z
109718001109718006-000223     109718006001023891327PARTY EYE-MASK 6PCE    0000001000+00000876+00000+0001T   00000876+0000001333          1400 IJ7131               1AZ
109718002109718039-000319-6   109718006003000442980B/CANDLES LRG NUMBER-6 0000001000+00000876+00000+0001T   00000876+0000001333          1400 IJ7510               1AZ
109718003109718039-000319-1   109718006003000442386B/CANDLES LRG NUMBER-1 0000001000+00000876+00000+0001T   00000876+0000001333          1400 IJ7510               1AZ
109719000109719               109719               170213PB     1400+00000+PB0000005262+0000005262+000000000+000000737+0000005990+0000000009+I20000000000+0000005990+Z
109719001109719082-000122-D   109719006003000405596R/GLASS STRENGTH:2.5   0000001000+00005262+00000+0001T   00005262+0000001405          1400 IJ7160               1AZ
109720000109720               109720               170213PB     1400+00000+PB0000002980+0000002980+000000000+000000418+0000003390+0000000008+I20000000000+0000003390+Z
109720001109720077-000299     109720006003000395576G/BAG 32x25cm LRG LOVE 0000002000+00001490+00000+0001T   00001490+0000001411          1400 IJ7112               1AZ
109721000109721               109721               170213PB     1400+00000+PB0000001753+0000001753+000000000+000000246+0000001990+0000000009+I20000000000+0000001990+Z
109721001109721079-006500     109721006001023557186GLUE GLITTER 6/10 PCE  0000001000+00001753+00000+0001T   00001753+0000001418          1400 IJ7130               1AZ
109722000109722               109722               170213PB     1400+00000+PB0000004822+0000004822+000000000+000000676+0000005498+0000000000+I40000005498+0000000000+Z
109722001109722079-013102     109722006003000019601ART+CRAFT DIY PIPE-CLNR0000001000+00002192+00000+0001T   00002192+0000001419          1400 IJ7130               1AZ
109722002109722562-000010     109722006001023762528KID'S PLAY DOUGH       0000001000+00002630+00000+0001T   00002630+0000001419          1400 IJ7755               1AZ
109723000109723               109723               170213PB     1400+00000+PB0000010569+0000010569+000000000+000001482+0000012050+0000000001+I20000000000+0000012050+Z
109723001109723112-116069     109723006009681820277TCS CARRIER BAG JUMBO  0000001000+00000048+00000+0001T   00000048+0000001421          1400 IJ7090               1AZ
109723002109723024-000213-A   109723006003000430840COOKIE-CUTTER PL 6PC   0000001000+00002630+00000+0001T   00002630+0000001421          1400 IJ7300               1AZ
109723003109723024-000092     109723006003000426805MEASURING-SET 6PC      0000001000+00003946+00000+0001T   00003946+0000001421          1400 IJ7300               1AZ
109723004109723002-000722     109723006003000673360C/BOARD+KNIFE 3-ASSTD  0000001000+00003069+00000+0001T   00003069+0000001421          1400 IJ7300               1AZ
109723005109723077-000011-R   109723006001023808462P/TISSUE DARK 10-SHEETS0000001000+00000876+00000+0001T   00000876+0000001421          1400 IJ7112               1AZ
109724000109724               109724               170213PB     1400+00000+PB0000006138+0000006138+000000000+000000860+0000006990+0000000008+I20000000000+0000006990+Z
109724001109724002-000652     109724006001023553188M/SPOON WDN 3PC H/HOUSE0000001000+00003069+00000+0001T   00003069+0000001421          1400 IJ7300               1AZ
109724002109724024-000069     109724006001023849571EGG-WHISK S/S 30cm     0000001000+00003069+00000+0001T   00003069+0000001421          1400 IJ7300               1AZ
109725000109725               109725               170213PB     1400+00000+PB0000002941+0000002941+000000000+000000413+0000003350+0000000004+I20000000000+0000003350+Z
109725001109725036-000151     109725006001023810588COATHANGERS    PACK-10 0000001000+00002893+00000+0001T   00002893+0000001422          1400 IJ7212               1AZ
109725002109725112-116069     109725006009681820277TCS CARRIER BAG JUMBO  0000001000+00000048+00000+0001T   00000048+0000001422          1400 IJ7090               1AZ
109726000109726               109726               170213PB     1400+00000+PB0000007061+0000007061+000000000+000000991+0000008052+0000000000+I40000008052+0000000000+Z
109726001109726566-000040     109726006003000142316SCRAPBOOK 12xDESIGN AST0000001000+00001753+00000+0001T   00002630+0008151431          1400 IJ7130               1AZ
109726002109726079-013032-H   109726006003000496501GLITTER PRINCESS ACC   0000001000+00002630+00000+0001T   00002630+0000001431          1400 IJ7130               1AZ
109726003109726566-100009     109726006003000102914WED STIK EMBOSSED FOIL 0000001000+00002630+00000+0001T   00002630+0000001431          1400 IJ7130               1AZ
109726004109726112-116069     109726006009681820277TCS CARRIER BAG JUMBO  0000001000+00000048+00000+0001T   00000048+0000001431          1400 IJ7090               1AZ
109727000109727               109727               170213PB     1400+00000+PB0000002192+0000002192+000000000+000000307+0000002499+0000000000+I40000002499+0000000000+Z
109727001109727080-000127     109727006003000424351VALENTINES DAY 36x24CM 0000001000+00002192+00000+0001T   00002192+0000001440          1400 IJ7112               1AZ
109728000109728               109728               170213PB     1400+00000+PB0000003642+0000003642+000000000+000000511+0000004150+0000000003+I20000000000+0000004150+Z
109728001109728080-000127     109728006003000424351VALENTINES DAY 36x24CM 0000001000+00002192+00000+0001T   00002192+0000001441          1400 IJ7112               1AZ
109728002109728304-001204     109728006001023737984FLOWER OCC. TEDDY/ROSES0000001000+00001402+00000+0001T   00001490+0006471441          1400 IJ7510               1AZ
109728003109728112-116069     109728006009681820277TCS CARRIER BAG JUMBO  0000001000+00000048+00000+0001T   00000048+0000001441          1400 IJ7090               1AZ
109729000109729               109729               170213PB     1400+00000+PB0000005733+0000005733+000000000+000000804+0000006530+0000000007+I20000000000+0000006530+Z
109729001109729071-001238     109729000060107212485ERASERS  3PCE    CARDED0000001000+00000876+00000+0001T   00000876+0000001443          1400 IJ7130               1AZ
109729002109729007-000235     109729006003000134434LABELS RECTANGULAR 60pc0000001000+00000876+00000+0001T   00000876+0000001443          1400 IJ7130               1AZ
109729003109729031-000874-A   109729006001023798800P/FRAME WDN P/BOX 10X150000001000+00003946+00000+0001T   00003946+0000001443          1400 IJ7510               1AZ
109729004109729112-116038     109729006009681820246TCS CARRIER BAG MIDI   0000001000+00000035+00000+0001T   00000035+0000001443          1400 IJ7090               1AZ
109730000109730               109730               170213PB     1400+00000+PB0000010524+0000010524+000000000+000001474+0000011990+0000000008+I20000000000+0000011990+Z
109730001109730368-000012     109730006003000610464PLUSH BEAR 30cm SITTING0000001000+00008771+00000+0001T   00008771+0000001444          1400 IJ7745               1AZ
109730002109730077-000299-A   109730006003000670888GIFT-BAG PAPER JMB LOVE0000001000+00001753+00000+0001T   00001753+0000001444          1400 IJ7112               1AZ
109731000109731               109731               170213PB     1400+00000+PB0000009342+0000009342+000000000+000001309+0000010650+0000000001+I20000000000+0000010650+Z
109731001109731018-000136     109731006001023659026MUG OCC LOVE W/PLUSH   0000001000+00003507+00000+0001T   00003507+0000001446          1400 IJ7515               1AZ
109731002109731018-030000     109731006003000421060MUG OCCASIONS LOVE 2PCE0000001000+00004385+00000+0001T   00004385+0000001446          1400 IJ7515               1AZ
109731003109731304-001204     109731006001023737984FLOWER OCC. TEDDY/ROSES0000001000+00001402+00000+0001T   00001490+0006471446          1400 IJ7510               1AZ
109731004109731112-116069     109731006009681820277TCS CARRIER BAG JUMBO  0000001000+00000048+00000+0001T   00000048+0000001446          1400 IJ7090               1AZ
109732000109732               109732               170213PB     1400+00000+PB0000003507+0000003507+000000000+000000491+0000003998+0000000000+I40000003998+0000000000+Z
109732001109732018-005009     109732006001023725608MUG W/PLUSH-BEAR LOVE  0000001000+00003507+00000+0001T   00003507+0000001457          1400 IJ7515               1AZ
109733000109733               109733               170213PB     1400+00000+PB0000011435+0000011435+000000000+000001602+0000013030+0000000007+I20000000000+0000013030+Z
109733001109733031-005853     109733006003000442416P/FRAME WDN TWIN HEARTS0000001000+00003507+00000+0001T   00003507+0000001458          1400 IJ7510               1AZ
109733002109733301-085007     109733006003000673698ORN OCC. LOVE S/PLAQUE 0000001000+00007893+00000+0001T   00007893+0000001458          1400 IJ7505               1AZ
109733003109733112-116038     109733006009681820246TCS CARRIER BAG MIDI   0000001000+00000035+00000+0001T   00000035+0000001458          1400 IJ7090               1AZ
109734000109734               109734               170213PB     1400+00000+PB0000007014+0000007014+000000000+000000982+0000007990+0000000006+I20000000000+0000007990+Z
109734001109734018-005009     109734006001023725608MUG W/PLUSH-BEAR LOVE  0000002000+00003507+00000+0001T   00003507+0000001500          1400 IJ7515               1AZ
109735000109735               109735               170213PB     1400+00000+PB0000012325+0000012325+000000000+000001727+0000014050+0000000002+I20000000000+0000014050+Z
109735001109735082-007586     109735006003000654291SUNGLASS DESIGNER ASST 0000001000+00004385+00000+0001T   00004385+0000001503          1400 IJ71601IC            1AZ
109735002109735077-000299-A   109735006003000670888GIFT-BAG PAPER JMB LOVE0000001000+00001753+00000+0001T   00001753+0000001503          1400 IJ7112               1AZ
109735003109735018-050000     109735006003000412679MUG OCC LOVE TWIN BEAR 0000001000+00006139+00000+0001T   00006139+0000001503          1400 IJ7515               1AZ
109735004109735112-116069     109735006009681820277TCS CARRIER BAG JUMBO  0000001000+00000048+00000+0001T   00000048+0000001503          1400 IJ7090               1AZ
109736000109736               109736               170213PB     1400+00000+PB0000001402+0000001402+000000000+000000197+0000001590+0000000009+I20000000000+0000001590+Z
109736001109736105-000750     109736006003000190270CONTAINERS 4xMINI 150ml0000001000+00001402+00000+0001T   00001402+0000001504          1400 IJ7210               1AZ
109737000109737               109737               170213PB     1400+00000+PB0000004385+0000004385+000000000+000000614+0000004990+0000000009+I20000000000+0000004990+Z
109737001109737004-071214     109737006003000464340COMPUTER TABLET STAND  0000001000+00004385+00000+0001T   00004385+0000001510          1400 IJ7310               1AZ
109738000109738               109738               170213PB     1400+00000+PB0000009506+0000009506+000000000+000001332+0000010830+0000000008+I20000000000+0000010830+Z
109738001109738304-001114     109738006001023738219FLWR BUNCH ROSES/LILY  0000001000+00007893+00000+0001T   00007893+0000001518          1400 IJ7510               1AZ
109738002109738077-000303     109738006001023593757GIFT-BAG PAPER MED     0000001000+00001578+00000+0001T   00001578+0000001518          1400 IJ7112               1AZ
109738003109738112-116038     109738006009681820246TCS CARRIER BAG MIDI   0000001000+00000035+00000+0001T   00000035+0000001518          1400 IJ7090               1AZ
109739000109739               109739               170213PB     1400+00000+PB0000018130+0000018130+000000000+000002543+0000020673+0000000000+I40000020673+0000000000+Z
109739001109739006-000167-E   109739006003000517213BALLOONS GOLD METALLIC 0000001000+00001314+00000+0001T   00001314+0000001520          1400 IJ7131               1AZ
109739002109739006-000166-G   109739006003000607976BALLOONS HELIUM 6PC BLK0000001000+00001314+00000+0001T   00001314+0000001520          1400 IJ7131               1AZ
109739003109739006-000167-D   109739006003000517091BALLOONS PRPLE METALLIC0000001000+00001314+00000+0001T   00001314+0000001520          1400 IJ7131               1AZ
109739004109739006-001000     109739006003000093779HELIUM BALLOON FILL    0000018000+00000613+00000+0001T   00000613+0000001520          1400 IJ7131               1AZ
109739005109739903-000709     109739006002099007070SWT QUENCHERS FRUIT    0000002000+00001139+00000+0001T   00001139+0000001520          1400 IJ7150               1AZ
109739006109739903-000123     109739006925925909280SWEET GS MINI MALLOWS  0000001000+00000876+00000+0001T   00000876+0000001520          1400 IJ7150               1AZ
109740000109740               109740               170213PB     1400+00000+PB0000007483+0000007483+000000000+000001050+0000008533+0000000000+I40000008533+0000000000+Z
109740001109740903-000494     109740006001704009911SWT GUMMY TEENY TEDDIES0000001000+00000876+00000+0001T   00000876+0000001523          1400 IJ7150               1AZ
109740002109740903-000520     109740006001704009898SWT GUMMY MINI SOUR 60g0000001000+00000876+00000+0001T   00000876+0000001523          1400 IJ7150               1AZ
109740003109740039-001023     109740006003000466337CANDLE TEA-LITE METALIC0000001000+00001753+00000+0001T   00001753+0000001523          1400 IJ7510               1AZ
109740004109740903-000861     109740005010478430822SWT LOVE HEARTS SML    0000001000+00000876+00000+0001T   00000876+0000001523          1400 IJ7150               1AZ
109740005109740903-000844     109740005010478432567SWT CANDY DL LUV HEARTS0000001000+00001314+00000+0001T   00001314+0000001523          1400 IJ7150               1AZ
109740006109740089-000030     109740006003000575671K/CHAIN LOVE MTL ASSTD 0000001000+00001753+00000+0001T   00001753+0000001523          1400 IJ7205               1AZ
109740007109740112-116038     109740006009681820246TCS CARRIER BAG MIDI   0000001000+00000035+00000+0001T   00000035+0000001523          1400 IJ7090               1AZ
109741000109741               109741               170213PB     1400+00000+PB0000007677+0000007677+000000000+000001076+0000008750+0000000003+I20000000000+0000008750+Z
109741001109741077-000299     109741006003000395576G/BAG 32x25cm LRG LOVE 0000001000+00001490+00000+0001T   00001490+0000001523          1400 IJ7112               1AZ
109741002109741018-050000     109741006003000412679MUG OCC LOVE TWIN BEAR 0000001000+00006139+00000+0001T   00006139+0000001523          1400 IJ7515               1AZ
109741003109741112-116069     109741006009681820277TCS CARRIER BAG JUMBO  0000001000+00000048+00000+0001T   00000048+0000001523          1400 IJ7090               1AZ
109742000109742               109742               170213PB     1400+00000+PB0000007629+0000007629+000000000+000001069+0000008690+0000000008+I20000000000+0000008690+Z
109742001109742077-000299     109742006003000395576G/BAG 32x25cm LRG LOVE 0000001000+00001490+00000+0001T   00001490+0000001524          1400 IJ7112               1AZ
109742002109742018-005007     109742006003000515516MUG OCC. LOVE W/HEARTS 0000001000+00006139+00000+0001T   00006139+0000001524          1400 IJ7515               1AZ
109743000109743               109743               170213PB     1400+00000+PB0000006138+0000006138+000000000+000000860+0000006990+0000000008+I20000000000+0000006990+Z
109743001109743031-080508     109743006001023802415P/FRAME PL 22X11CM LOVE0000001000+00004385+00000+0001T   00004385+0000001524          1400 IJ7510               1AZ
109743002109743077-000309     109743006001023608604GIFT-BAG 25X32CM GLOSS 0000001000+00001753+00000+0001T   00001753+0000001524          1400 IJ7112               1AZ
109744000109744               109744               170213PB     1400+00000+PB0000022622+0000022622+000000000+000003170+0000025792+0000000000+I40000025792+0000000000+Z
109744001109744018-000136     109744006001023659026MUG OCC LOVE W/PLUSH   0000001000+00003507+00000+0001T   00003507+0000001526          1400 IJ7515               1AZ
109744002109744080-000133-A   109744006003000647019MINI VALENTINES CARD   0000001000+00000437+00000+0001T   00000437+0000001526          1400 IJ7112               1AZ
109744003109744077-000922     109744006003000413935G/WRAP 700mmx2m FLOWER 0000001000+00002192+00000+0001T   00002192+0000001526          1400 IJ7112               1AZ
109744004109744071-001005     109744006001023558169PENCIL-SHARPENER DOUBLE0000001000+00001578+00000+0001T   00001578+0000001526          1400 IJ7130               1AZ
109744005109744071-001238     109744000060107212485ERASERS  3PCE    CARDED0000001000+00000876+00000+0001T   00000876+0000001526          1400 IJ7130               1AZ
109744006109744266-000509     109744006003000109821BOYS PLAYSET TRANSFORM 0000002000+00007016+00000+0001T   00007016+0000001526          1400 IJ7710               1AZ
109745000109745               109745               170213PB     1400+00000+PB0000009941+0000009941+000000000+000001394+0000011335+0000000000+I40000011335+0000000000+Z
109745001109745112-116038     109745006009681820246TCS CARRIER BAG MIDI   0000001000+00000035+00000+0001T   00000035+0000001528          1400 IJ7090               1AZ
109745002109745002-000740     109745006001023763945GRATER 4-WAY WHITE     0000001000+00002192+00000+0001T   00002192+0000001528          1400 IJ7300               1AZ
109745003109745002-000684     109745006001023693778K/TOOL TURNER H/HOUSE  0000001000+00002192+00000+0001T   00002192+0000001528          1400 IJ7300               1AZ
109745004109745002-000801     109745006003000555994PEELER PL/MTL Y-SHAPE  0000001000+00001139+00000+0001T   00001139+0000001528          1400 IJ7300               1AZ
109745005109745024-000066     109745006001023769947SPATULA SILICONE 25CM  0000001000+00002630+00000+0001T   00002630+0000001528          1400 IJ7300               1AZ
109745006109745020-000015     109745006003000353118KITCHEN SCISSOR 3-ASSTD0000001000+00001753+00000+0001T   00001753+0000001528          1400 IJ7300               1AZ
109746000109746               109746               170213PB     1400+00000+PB0000001402+0000001402+000000000+000000197+0000001590+0000000009+I20000000000+0000001590+Z
109746001109746304-001204     109746006001023737984FLOWER OCC. TEDDY/ROSES0000001000+00001402+00000+0001T   00001490+0006471529          1400 IJ7510               1AZ
109747000109747               109747               170213PB     1400+00000+PB0000005734+0000005734+000000000+000000803+0000006537+0000000000+I40000006537+0000000000+Z
109747001109747079-000269     109747006003000159963PAINT-BRUSHES SPONGETIP0000001000+00003507+00000+0001T   00003507+0000001531          1400 IJ7130               1AZ
109747002109747566-000991     109747000721129013121STICKERS GLOW-IN-DARK  0000001000+00002192+00000+0001T   00002192+0000001531          1400 IJ7130               1AZ
109747003109747112-116038     109747006009681820246TCS CARRIER BAG MIDI   0000001000+00000035+00000+0001T   00000035+0000001531          1400 IJ7090               1AZ
109748000109748               109748               170213PB     1400+00000+PB0000016781+0000016781+000000000+000002352+0000019133+0000000000+I40000019133+0000000000+Z
109748001109748264-000927     109748000090159393009MAISTO MOTORBIKE 1:18  0000001000+00008771+00000+0001T   00008771+0000001533          1400 IJ7710               1AZ
109748002109748304-001204     109748006001023737984FLOWER OCC. TEDDY/ROSES0000001000+00001402+00000+0001T   00001490+0006471533          1400 IJ7510               1AZ
109748003109748038-001800     109748006003000623303DOILIE PAPER HRT 24PC  0000001000+00003507+00000+0001T   00003507+0000001533          1400 IJ7300               1AZ
109748004109748903-000892     109748008693029700420SWT NOVELTY CHOCO CREAM0000002000+00000788+00000+0001T   00000788+0000001533          1400 IJ7150               1AZ
109748005109748036-000605     109748006001023158611WASHING-PEGS WDN PCK-240000001000+00001490+00000+0001T   00001490+0000001533          1400 IJ7212               1AZ
109748006109748112-116038     109748006009681820246TCS CARRIER BAG MIDI   0000001000+00000035+00000+0001T   00000035+0000001533          1400 IJ7090               1AZ
109749000109749               109749               170213PB     1400+00000+PB0000003542+0000003542+000000000+000000496+0000004030+0000000008+I20000000000+0000004030+Z
109749001109749031-000923     109749006001023669933P/FRAME BLK W/WORDS    0000001000+00003507+00000+0001T   00003507+0000001534          1400 IJ7510               1AZ
109749002109749112-116038     109749006009681820246TCS CARRIER BAG MIDI   0000001000+00000035+00000+0001T   00000035+0000001534          1400 IJ7090               1AZ
109750000109750               109750               170213PB     1400+00000+PB0000001490+0000001490+000000000+000000209+0000001690+0000000009+I20000000000+0000001690+Z
109750001109750077-000299     109750006003000395576G/BAG 32x25cm LRG LOVE 0000001000+00001490+00000+0001T   00001490+0000001534          1400 IJ7112               1AZ
109751000109751               109751               170213PB     1400+00000+PB0000003507+0000003507+000000000+000000491+0000003990+0000000008+I20000000000+0000003990+Z
109751001109751018-005009     109751006001023725608MUG W/PLUSH-BEAR LOVE  0000001000+00003507+00000+0001T   00003507+0000001536          1400 IJ7515               1AZ
109752000109752               109752               170213PB     1400+00000+PB0000003507+0000003507+000000000+000000491+0000003990+0000000008+I20000000000+0000003990+Z
109752001109752018-005009     109752006001023725608MUG W/PLUSH-BEAR LOVE  0000001000+00003507+00000+0001T   00003507+0000001537          1400 IJ7515               1AZ
109753000109753               109753               170213PB     1400+00000+PB0000003503+0000003503+000000000+000000491+0000003990+0000000004+I20000000000+0000003990+Z
109753001109753903-000159     109753006003000417629SWT LB SMALL DUMMIE    0000005000+00000350+00000+0001T   00000350+0000001545          1400 IJ7150               1AZ
109753002109753077-000116     109753006003000240777GIFT-WRAP 700mmx2m COL 0000001000+00001753+00000+0001T   00001753+0000001545          1400 IJ7112               1AZ
109754000109754               109754               170213PB     1400+00000+PB0000001753+0000001753+000000000+000000246+0000001999+0000000000+I40000001999+0000000000+Z
109754001109754089-000004     109754006003000137749KEY CHAIN MTL CHARMS   0000001000+00001753+00000+0001T   00001753+0000001555          1400 IJ7205               1AZ
109755000109755               109755               170213PB     1400+00000+PB0000004120+0000004120+000000000+000000578+0000004698+0000000000+I40000004698+0000000000+Z
109755001109755077-000305     109755006003000395422GIFT-BAG WINE 10X35CM  0000001000+00001490+00000+0001T   00001490+0000001557          1400 IJ7112               1AZ
109755002109755018-000129     109755006001023403353MUG OCC. LOVE V-SHAPE  0000001000+00002630+00000+0001T   00002630+0000001557          1400 IJ7515               1AZ
109756000109756               109756               170213PB     1400+00000+PB0000022584+0000022584+000000000+000003165+0000025740+0000000009+I20000000000+0000025740+Z
109756001109756112-116069     109756006009681820277TCS CARRIER BAG JUMBO  0000001000+00000048+00000+0001T   00000048+0000001602          1400 IJ7090               1AZ
109756002109756024-000003     109756006001023462206S/BURNER COVERS ASSTD  0000001000+00004385+00000+0001T   00004385+0000001602          1400 IJ7300               1AZ
109756003109756077-000270     109756006003000395453GIFT-BAG PPR JMB 33X45 0000001000+00002630+00000+0001T   00002630+0000001602          1400 IJ7112               1AZ
109756004109756077-000299     109756006003000395576G/BAG 32x25cm LRG LOVE 0000001000+00001490+00000+0001T   00001490+0000001602          1400 IJ7112               1AZ
109756005109756082-007580     109756006003000698523SUNGLASS MENS DESIGNER 0000001000+00005262+00000+0001T   00005262+0000001602          1400 IJ7160               1AZ
109756006109756305-074068     109756006001023869128WIND-CHIMES BAMBOO 30CM0000001000+00007016+00000+0001T   00007016+0000001602          1400 IJ7505               1AZ
109756007109756079-013099     109756006003000081875ART+CRAFT EYES ASSTD   0000001000+00001753+00000+0001T   00001753+0000001602          1400 IJ7130               1AZ
109757000109757               109757               170213PB     1400+00000+PB0000006139+0000006139+000000000+000000860+0000006990+0000000009+I20000000000+0000006990+Z
109757001109757018-050000     109757006003000412679MUG OCC LOVE TWIN BEAR 0000001000+00006139+00000+0001T   00006139+0000001605          1400 IJ7515               1AZ
109758000109758               109758               170213PB     1400+00000+PB0000046044+0000046044+000000000+000006458+0000052502+0000000000+I40000052502+0000000000+Z
109758001109758112-116069     109758006009681820277TCS CARRIER BAG JUMBO  0000001000+00000048+00000+0001T   00000048+0000001608          1400 IJ7090               1AZ
109758002109758466-008889     109758006001023835376WHISTLE SPORTS+STRING  0000001000+00001753+00000+0001T   00001753+0000001608          1400 IJ7785               1AZ
109758003109758466-000020     109758006001023167941FRISBEE 25cm           0000001000+00002192+00000+0001T   00002192+0000001608          1400 IJ7785               1AZ
109758004109758466-072727     109758006003000027712YO-YO NOVELTY ASSTD    0000005000+00001753+00000+0001T   00001753+0000001608          1400 IJ7785               1AZ
109758005109758007-000723     109758006003000226078MEMO BOOK W/PEN 100SHTS0000005000+00001753+00000+0001T   00001753+0000001608          1400 IJ7130               1AZ
109758006109758565-000055     109758006003000028252NOVELTY B/O FINGR-BEAMS0000005000+00001753+00000+0001T   00001753+0000001608          1400 IJ7745               1AZ
109758007109758007-000537     109758000651728791017NOTE-PAD RND SMILE-FACE0000012000+00000700+00000+0001T   00000700+0000001608          1400 IJ7130               1AZ
109758008109758565-000044     109758006003000128280BARREL OF SLIME 100g   0000012000+00000613+00000+0001T   00000613+0000001608          1400 IJ7745               1AZ
109759000109759               109759               170213PB     1400+00000+PB0000003155+0000003155+000000000+000000442+0000003597+0000000000+I40000003597+0000000000+Z
109759001109759007-000537     109759000651728791017NOTE-PAD RND SMILE-FACE0000001000+00000700+00000+0001T   00000700+0000001609          1400 IJ7130               1AZ
109759002109759200-000060     109759006001023625762STRAWS 18cm FLEX 200PCE0000001000+00002455+00000+0001T   00002455+0000001609          1400 IJ7214               1AZ
109760000109760               109760               170213PB     1400+00000+PB0000003156+0000003156+000000000+000000442+0000003590+0000000008+I20000000000+0000003590+Z
109760001109760071-001005     109760006001023558169PENCIL-SHARPENER DOUBLE0000002000+00001578+00000+0001T   00001578+0000001610          1400 IJ7130               1AZ
109761000109761               109761               170213PB     1400+00000+PB0000006139+0000006139+000000000+000000860+0000006999+0000000000+I40000006999+0000000000+Z
109761001109761018-050000     109761006003000412679MUG OCC LOVE TWIN BEAR 0000001000+00006139+00000+0001T   00006139+0000001612          1400 IJ7515               1AZ
109762000109762               109762               170213PB     1400+00000+PB0000020656+0000020656+000000000+000002893+0000023549+0000000000+I40000023549+0000000000+Z
109762001109762263-000504     109762006001023790590TRACTOR+TRAILER 30cm   0000001000+00005262+00000+0001T   00005262+0000001656          1400 IJ7710               1AZ
109762002109762112-116069     109762006009681820277TCS CARRIER BAG JUMBO  0000001000+00000048+00000+0001T   00000048+0000001656          1400 IJ7090               1AZ
109762003109762024-000168-C   109762006003000675036T/PLATE MUFFIN PAN 12  0000001000+00004385+00000+0001T   00004385+0000001656          1400 IJ7300               1AZ
109762004109762034-091330     109762006003000664061COOEY BABY SHAMPOO CAP 0000001000+00003069+00000+0001T   00003069+0000001656          1400 IJ7215               1AZ
109762005109762075-001003     109762006003000622689HAT LADIES VISOR STYLE 0000001000+00004385+00000+0001T   00004385+0000001656          1400 IJ7160               1AZ
109762006109762467-000018     109762006001023746818BEACH-SET 3PCE         0000001000+00003507+00000+0001T   00003507+0000001656          1400 IJ7785               1AZ
109763000109763               109763               170213PB     1400+00000+PB0000007016+0000007016+000000000+000000983+0000007990+0000000009+I20000000000+0000007990+Z
109763001109763562-006275     109763006001023836182EDU BOARD W/MARKER ASST0000001000+00007016+00000+0001T   00007016+0000001656          1400 IJ7755               1AZ
109764000109764               109764               170213PB     1400+00000+PB0000002630+0000002630+000000000+000000369+0000002990+0000000009+I20000000000+0000002990+Z
109764001109764019-071601     109764006001023771995RIVER-STONES 1kg WHITE 0000001000+00002630+00000+0001T   00002630+0000001657          1400 IJ7510               1AZ
109765000109765               109765               170213PB     1400+00000+PB0000008377+0000008377+000000000+000001174+0000009550+0000000001+I20000000000+0000009550+Z
109765001109765018-000136     109765006001023659026MUG OCC LOVE W/PLUSH   0000001000+00003507+00000+0001T   00003507+0000001659          1400 IJ7515               1AZ
109765002109765080-000127     109765006003000424351VALENTINES DAY 36x24CM 0000001000+00002192+00000+0001T   00002192+0000001659          1400 IJ7112               1AZ
109765003109765077-000270     109765006003000395453GIFT-BAG PPR JMB 33X45 0000001000+00002630+00000+0001T   00002630+0000001659          1400 IJ7112               1AZ
109765004109765112-116069     109765006009681820277TCS CARRIER BAG JUMBO  0000001000+00000048+00000+0001T   00000048+0000001659          1400 IJ7090               1AZ
109766000109766               109766               170213PB     1400+00000+PB0000001753+0000001753+000000000+000000246+0000001990+0000000009+I20000000000+0000001990+Z
109766001109766077-000299-A   109766006003000670888GIFT-BAG PAPER JMB LOVE0000001000+00001753+00000+0001T   00001753+0000001704          1400 IJ7112               1AZ
109767000109767               109767               170213PB     1400+00000+PB0000004681+0000004681+000000000+000000656+0000005337+0000000000+I40000005337+0000000000+Z
109767001109767103-000090     109767006001023795786WOVEN HEART SHAPED     0000001000+00003507+00000+0001T   00003507+0000001707          1400 IJ7300               1AZ
109767002109767903-000699     109767006002099007018SWT CANDY FRUIT CHEWS  0000001000+00001139+00000+0001T   00001139+0000001707          1400 IJ7150               1AZ
109767003109767112-116038     109767006009681820246TCS CARRIER BAG MIDI   0000001000+00000035+00000+0001T   00000035+0000001707          1400 IJ7090               1AZ
109768000109768               109768               170213PB     1400+00000+PB0000005294+0000005294+000000000+000000743+0000006037+0000000000+I40000006037+0000000000+Z
109768001109768112-116038     109768006009681820246TCS CARRIER BAG MIDI   0000001000+00000035+00000+0001T   00000035+0000001709          1400 IJ7090               1AZ
109768002109768466-009008     109768006003000301713CATCHBALL W/2 BALLS    0000001000+00002630+00000+0001T   00002630+0000001709          1400 IJ7785               1AZ
109768003109768491-059640     109768000078257596409INTEX:ARMBAND 3-6YRS   0000001000+00001753+00000+0001T   00001753+0000001709          1400 IJ7787               1AZ
109768004109768903-003051     109768008024431008703SWT CHOCO PARTY 25G    0000001000+00000876+00000+0001T   00000876+0000001709          1400 IJ7150               1AZ
109769000109769               109769               170213PB     1400+00000+PB0000002665+0000002665+000000000+000000374+0000003030+0000000009+I20000000000+0000003030+Z
109769001109769366-000292     109769006001023828958HEADBAND COL-FEATHERS  0000001000+00002630+00000+0001T   00002630+0000001710          1400 IJ7131               1AZ
109769002109769112-116038     109769006009681820246TCS CARRIER BAG MIDI   0000001000+00000035+00000+0001T   00000035+0000001710          1400 IJ7090               1AZ
109770000109770               109770               170213PB     1400+00000+PB0000004470+0000004470+000000000+000000627+0000005090+0000000007+I20000000000+0000005090+Z
109770001109770077-000299     109770006003000395576G/BAG 32x25cm LRG LOVE 0000003000+00001490+00000+0001T   00001490+0000001717          1400 IJ7112               1AZ
109771000109771               109771               170213PB     1400+00000+PB0000001753+0000001753+000000000+000000246+0000001990+0000000009+I20000000000+0000001990+Z
109771001109771077-000011     109771006003000542352PAPER RAFFIA ASSTD COL 0000001000+00001753+00000+0001T   00001753+0000001719          1400 IJ7112               1AZ
109772000109772               109772               170213PB     1400+00000+PB0000004588+0000004588+000000000+000000643+0000005231+0000000000+I40000005231+0000000000+Z
109772001109772261-000121     109772006001023341600GUN-CAPS 8-SHOT CARD-9 0000004000+00000700+00000+0001T   00000700+0000001725          1400 IJ7710               1AZ
109772002109772261-002267     109772006001023665126GUN 8-SHOT SUPER-CAP   0000001000+00001753+00000+0001T   00001753+0000001725          1400 IJ7710               1AZ
109772003109772112-116038     109772006009681820246TCS CARRIER BAG MIDI   0000001000+00000035+00000+0001T   00000035+0000001725          1400 IJ7090               1AZ
109773000109773               109773               170213PB     1400+00000+PB0000001490+0000001490+000000000+000000209+0000001699+0000000000+I40000001699+0000000000+Z
109773001109773077-000299     109773006003000395576G/BAG 32x25cm LRG LOVE 0000001000+00001490+00000+0001T   00001490+0000001728          1400 IJ7112               1AZ
109774000109774               109774               170213PB     1400+00000+PB0000008328+0000008328+000000000+000001168+0000009490+0000000006+I20000000000+0000009490+Z
109774001109774903-000619     109774006003000672455SWT LOLLY STR/BRRY 140G0000002000+00001753+00000+0001T   00001753+0000001728          1400 IJ7150               1AZ
109774002109774368-000152     109774006003000166886PLUSH BEAR 15cm        0000001000+00003946+00000+0001T   00005262+0008141728          1400 IJ7745               1AZ
109774003109774077-000302     109774008010410010195GIFT-BAG 18X23CM E/D   0000001000+00000876+00000+0001T   00000876+0000001728          1400 IJ7112               1AZ
109775000109775               109775               170213PB     1400+00000+PB0000002678+0000002678+000000000+000000376+0000003054+0000000000+I40000003054+0000000000+Z
109775001109775077-000270     109775006003000395453GIFT-BAG PPR JMB 33X45 0000001000+00002630+00000+0001T   00002630+0000001733          1400 IJ7112               1AZ
109775002109775112-116069     109775006009681820277TCS CARRIER BAG JUMBO  0000001000+00000048+00000+0001T   00000048+0000001733          1400 IJ7090               1AZ
109776000109776               109776               170213PB     1400+00000+PB0000005961+0000005961+000000000+000000835+0000006796+0000000000+I40000006796+0000000000+Z
109776001109776362-000307     109776006003000519750HAIR HEADBAND PRINTED  0000001000+00001314+00000+0001T   00001314+0000001738          1400 IJ7160               1AZ
109776002109776566-001234     109776006003000217793STICKERS LASER ASSTD   0000001000+00001578+00000+0001T   00001578+0000001738          1400 IJ7130               1AZ
109776003109776089-000005     109776006003000094806KEY CHAIN CARDS MTL    0000001000+00003069+00000+0001T   00003069+0000001738          1400 IJ7205               1AZ
109777000109777               109777               170213PB     1400+00000+PB0000001490+0000001490+000000000+000000209+0000001699+0000000000+I40000001699+0000000000+Z
109777001109777077-000299     109777006003000395576G/BAG 32x25cm LRG LOVE 0000001000+00001490+00000+0001T   00001490+0000001741          1400 IJ7112               1AZ
109778000109778               109778               170213PB     1400+00000+PB0000023456+0000023456+000000000+000003288+0000026744+0000000000+I40000026744+0000000000+Z
109778001109778112-116069     109778006009681820277TCS CARRIER BAG JUMBO  0000001000+00000048+00000+0001T   00000048+0000001745          1400 IJ7090               1AZ
109778002109778077-000299-A   109778006003000670888GIFT-BAG PAPER JMB LOVE0000001000+00001753+00000+0001T   00001753+0000001745          1400 IJ7112               1AZ
109778003109778077-000310     109778006001023608635GIFT-BAG 18X23CM GLOSS 0000001000+00001314+00000+0001T   00001314+0000001745          1400 IJ7112               1AZ
109778004109778566-001234     109778006003000217793STICKERS LASER ASSTD   0000001000+00001578+00000+0001T   00001578+0000001745          1400 IJ7130               1AZ
109778005109778566-000362     109778006003000583065STICKER LETTER & NUMBER0000001000+00001753+00000+0001T   00001753+0000001745          1400 IJ7130               1AZ
109778006109778264-000927     109778000090159393009MAISTO MOTORBIKE 1:18  0000001000+00008771+00000+0001T   00008771+0000001745          1400 IJ7710               1AZ
109778007109778077-000383     109778006003000247943GIFT-BAG 11X14CM S/COL 0000001000+00000788+00000+0001T   00000788+0000001745          1400 IJ7112               1AZ
109778008109778903-000926     109778006914204004556SWT NOVELTY ST N/LACE  0000001000+00001753+00000+0001T   00001753+0000001745          1400 IJ7150               1AZ
109778009109778368-000152     109778006003000166886PLUSH BEAR 15cm        0000001000+00003946+00000+0001T   00005262+0008141745          1400 IJ7745               1AZ
109778010109778903-000861     109778005010478430822SWT LOVE HEARTS SML    0000002000+00000876+00000+0001T   00000876+0000001745          1400 IJ7150               1AZ
109779000109779               109779               170213PB     1400+00000+PB0000003116+0000003116+000000000+000000437+0000003550+0000000003+I20000000000+0000003550+Z
109779001109779077-000299     109779006003000395576G/BAG 32x25cm LRG LOVE 0000001000+00001490+00000+0001T   00001490+0000001747          1400 IJ7112               1AZ
109779002109779018-000127     109779006001023380289MUG OCC STRAIGHT LOVE  0000001000+00001578+00000+0001T   00001753+0006471747          1400 IJ7515               1AZ
109779003109779112-116069     109779006009681820277TCS CARRIER BAG JUMBO  0000001000+00000048+00000+0001T   00000048+0000001747          1400 IJ7090               1AZ
109780000109780               109780               170213PB     1400+00000+PB0000015390+0000015390+000000000+000002157+0000017547+0000000000+I40000017547+0000000000+Z
109780001109780077-000299-A   109780006003000670888GIFT-BAG PAPER JMB LOVE0000001000+00001753+00000+0001T   00001753+0000001752          1400 IJ7112               1AZ
109780002109780077-000309     109780006001023608604GIFT-BAG 25X32CM GLOSS 0000001000+00001753+00000+0001T   00001753+0000001752          1400 IJ7112               1AZ
109780003109780077-000270     109780006003000395453GIFT-BAG PPR JMB 33X45 0000001000+00002630+00000+0001T   00002630+0000001752          1400 IJ7112               1AZ
109780004109780080-000127     109780006003000424351VALENTINES DAY 36x24CM 0000001000+00002192+00000+0001T   00002192+0000001752          1400 IJ7112               1AZ
109780005109780071-003023     109780006001023836120BALLPENS 10PCE MINI GEL0000001000+00003507+00000+0001T   00003507+0000001752          1400 IJ7130               1AZ
109780006109780007-000713     109780006003000227273NOTE-BK DIARY W/LOCK   0000001000+00003507+00000+0001T   00003507+0000001752          1400 IJ7130               1AZ
109780007109780112-116069     109780006009681820277TCS CARRIER BAG JUMBO  0000001000+00000048+00000+0001T   00000048+0000001752          1400 IJ7090               1AZ
109781000109781               109781               170213PB     1400+00000+PB0000002015+0000002015+000000000+000000283+0000002290+0000000008+I20000000000+0000002290+Z
109781001109781077-000318     109781006001023609755GIFT-BAG 18X23CM E/D AN0000001000+00001227+00000+0001T   00001227+0000001753          1400 IJ7112               1AZ
109781002109781077-000010-Z   109781006001023157874CREPE-PAPER BLK/ORG/PUR0000001000+00000788+00000+0001T   00000788+0000001753          1400 IJ7112               1AZ
109782000109782               109782               170213PB     1400+00000+PB0000005262+0000005262+000000000+000000737+0000005990+0000000009+I20000000000+0000005990+Z
109782001109782263-000504     109782006001023790590TRACTOR+TRAILER 30cm   0000001000+00005262+00000+0001T   00005262+0000001755          1400 IJ7710               1AZ
A17021300                                          10490843PBSLAVE 1                       IJ71IC
B10973500                                          170213PB082-007586     15011169SLAVE 1     IJ71IC0000002000+0000001000+0000000000000+
M17021391                              CASH        PBSLAVE 1                       Z-REPORT No.   625TOTAL (Sales - Refunds)           7940.90       CASH TO BE BANKED                 3771.20       DEBIT CARDS                          0.00       CREDIT CARDS                      4169.70       Z-READING                         7940.90       AIRTIME DEBIT CARD SALES             0.00       AIRTIME CARD SALES                   0.00       OVERS/UNDERS                         0.00       AIRTIME CASH SALES                   0.00       GIFT CARDS                           0.00       GIFT CARD CASH SALES                 0.00       T O T A L  CASH PAYOUTS              0.00                                                                                                                                                                                                                                                                                                                                                      Z
M17021392                              CASH        PBABSENT                                                                                                                                                                                          ANNUAL LEAVE                                                                                                                                                                                    DAY OFF                                                                                                                                                                                         COMMENTS                                                                                                                                                                                                                                                                                                                                                                                       Z
Y17021300                                          PB00000000696844+000098
ZPB17021320163 SLAVE 1      SALES DATA                     NEXT INVOICE NO.  109783 0625
X PB Slave 1 First invoice 109685 170213 Last invoice 109782 170213 Next invoice 109783 Total number of records 000000360 clbackup completed 20:16:47
