204751000204751               204751               170213PB     1400+00000+PB0000009646-0000009646-000000000+000001352-0000011000-0000000002+I20000000000+0000011000-Z
204751001204751004-078991     204751006001023996855EARPHONES+EAR-CLIP 1.0m0000001000-00002630+00000+0001T   00002630+0000000912          1400 BM93101IC            2 Z
204751002204751051-600710     204751006003000604432S/GARDEN SPOT-LIGHT LED0000001000-00007016+00000+0001T   00007016+0000000912          1400 BM98201IC            2 Z
204752000204752               204752               170213PB     1400+00000+PB0000021970+0000021970+000000000+000003079+0000025049+0000000000+I40000025049+0000000000+Z
204752001204752024-000092     204752006003000426805MEASURING-SET 6PC      0000001000+00003946+00000+0001T   00003946+0000000918          1400 BM9300               2AZ
204752002204752133-000018     204752006003000583218SWAB MICROFIBRE 30x30cm0000001000+00001753+00000+0001T   00001753+0000000918          1400 BM9212               2AZ
204752003204752024-000078     204752006001023849168SIEVE FLOUR 16cm PL-RIM0000001000+00004385+00000+0001T   00004385+0000000918          1400 BM9300               2AZ
204752004204752024-006874     204752006001023769978PASTRY-BRUSH SQ WHITE  0000001000+00001753+00000+0001T   00001753+0000000918          1400 BM9300               2AZ
204752005204752024-000170     204752006003000120642SILICONE CAKE-PAN RND  0000001000+00007455+00000+0001T   00007455+0000000918          1400 BM9300               2AZ
204752006204752079-000300     204752006001023902245PAINTSET LEARN TO PAINT0000001000+00002630+00000+0001T   00002630+0000000918          1400 BM9130               2AZ
204752007204752112-116069     204752006009681820277TCS CARRIER BAG JUMBO  0000001000+00000048+00000+0001T   00000048+0000000918          1400 BM9090               2AZ
204753000204753               204753               170213PB     1400+00000+PB0000007048+0000007048+000000000+000000988+0000008036+0000000000+I40000008036+0000000000+Z
204753001204753366-002694     204753006003000088997DRESS UP HAT COWBOY PL 0000001000+00001753+00000+0001T   00001753+0000000920          1400 BM9131               2AZ
204753002204753006-000223     204753006001023891327PARTY EYE-MASK 6PCE    0000001000+00000876+00000+0001T   00000876+0000000920          1400 BM9131               2AZ
204753003204753566-000991     204753000721129013121STICKERS GLOW-IN-DARK  0000002000+00002192+00000+0001T   00002192+0000000920          1400 BM9130               2AZ
204753004204753112-116038     204753006009681820246TCS CARRIER BAG MIDI   0000001000+00000035+00000+0001T   00000035+0000000920          1400 BM9090               2AZ
204754000204754               204754               170213PB     1400+00000+PB0000083480+0000083480+000000000+000011697+0000095177+0000000000+I40000095177+0000000000+Z
204754001204754112-116069     204754006009681820277TCS CARRIER BAG JUMBO  0000001000+00000048+00000+0001T   00000048+0000000936          1400 BM9090               2AZ
204754002204754104-000055     204754006001023889416BASKET PL 32x22x8cm    0000005000+00003507+00000+0001T   00003507+0000000936          1400 BM9210               2AZ
204754003204754304-001169     204754006003000523894FLOWER FLOATING 28CM   0000003000+00005262+00000+0001T   00005262+0000000936          1400 BM9510               2AZ
204754004204754007-000566     204754006003000640898NOVELTY PHONE NOTE-PAD 0000002000+00001490+00000+0001T   00001490+0000000936          1400 BM9130               2AZ
204754005204754007-000723     204754006003000226078MEMO BOOK W/PEN 100SHTS0000001000+00001753+00000+0001T   00001753+0000000936          1400 BM9130               2AZ
204754006204754071-081112     204754006936198404945CORRECTION TAPE 10mx5mm0000001000+00001753+00000+0001T   00001753+0000000936          1400 BM9130               2AZ
204754007204754071-000006     204754006001023732613PENCIL REFILLABLE 6PK  0000001000+00001753+00000+0001T   00001753+0000000936          1400 BM9130               2AZ
204754008204754033-000009     204754006003000684212PILL REMINDER 14 DIV   0000001000+00007893+00000+0001T   00007893+0000000936          1400 BM9200               2AZ
204754009204754112-116069     204754006009681820277TCS CARRIER BAG JUMBO  0000001000+00000048+00000+0001T   00000048+0000000936          1400 BM9090               2AZ
204754010204754104-000032     204754006003000099696BASKET PL 34x25x8cm    0000001000+00002630+00000+0001T   00002630+0000000936          1400 BM9210               2AZ
204754011204754104-000055     204754006001023889416BASKET PL 32x22x8cm    0000001000+00003507+00000+0001T   00003507+0000000936          1400 BM9210               2AZ
204754012204754035-000001     204754006002596010566UMBRELLA LADIES W/MINI 0000001000+00006139+00000+0001T   00006139+0000000936          1400 BM9205               2AZ
204754013204754105-001024-A   204754006009654960986CONTAINERS CLEAR 3PCE  0000001000+00001928+00000+0001T   00001928+0000000936          1400 BM9210               2AZ
204754014204754366-007601     204754006003000655472DRESS UP MASK THEATRICA0000002000+00000876+00000+0001T   00000876+0000000936          1400 BM9131               2AZ
204754015204754366-002195     204754006001023990549DRESS UP WINGS FEATHER 0000002000+00005262+00000+0001T   00005262+0000000936          1400 BM9131               2AZ
204754016204754304-001604     204754006001023842466BRANCH DRIED SPIRAL 10P0000001000+00002192+00000+0001T   00002192+0000000936          1400 BM9510               2AZ
204754017204754077-000309     204754006001023608604GIFT-BAG 25X32CM GLOSS 0000003000+00001753+00000+0001T   00001753+0000000936          1400 BM9112               2AZ
204755000204755               204755               170213PB     1400+00000+PB0000002980+0000002980+000000000+000000418+0000003390+0000000008+I20000000000+0000003390+Z
204755001204755077-000299     204755006003000395576G/BAG 32x25cm LRG LOVE 0000002000+00001490+00000+0001T   00001490+0000000954          1400 BM9112               2AZ
204756000204756               204756               170213PB     1400+00000+PB0000002630+0000002630+000000000+000000369+0000002990+0000000009+I20000000000+0000002990+Z
204756001204756006-006018     204756006001023735256PARTY-SPRAY HAIR ASSORT0000001000+00002630+00000+0001T   00002630+0000001108          1400 BM9131               2AZ
204757000204757               204757               170213PB     1400+00000+PB0000001050+0000001050+000000000+000000148+0000001190+0000000008+I20000000000+0000001190+Z
204757001204757903-000155     204757006009803374435SWT LOLLY I LUV U HEART0000002000+00000525+00000+0001T   00000525+0000001110          1400 BM9150               2AZ
204758000204758               204758               170213PB     1400+00000+PB0000007927+0000007927+000000000+000001110+0000009037+0000000000+I40000009037+0000000000+Z
204758001204758018-000130     204758006001023867537MUG OCC LOVE MINI+HEART0000001000+00003507+00000+0001T   00003507+0000001112          1400 BM9515               2AZ
204758002204758031-080508     204758006001023802415P/FRAME PL 22X11CM LOVE0000001000+00004385+00000+0001T   00004385+0000001112          1400 BM9510               2AZ
204758003204758112-116038     204758006009681820246TCS CARRIER BAG MIDI   0000001000+00000035+00000+0001T   00000035+0000001112          1400 BM9090               2AZ
204759000204759               204759               170213PB     1400+00000+PB0000004385+0000004385+000000000+000000614+0000004999+0000000000+I40000004999+0000000000+Z
204759001204759082-000100     204759006003000360246READING GLS STRENGHT:1 0000001000+00004385+00000+0001T   00004385+0000001113          1400 BM9160               2AZ
204760000204760               204760               170213PB     1400+00000+PB0000000700+0000000700+000000000+000000098+0000000790+0000000008+I20000000000+0000000790+Z
204760001204760903-000070     204760006001704001106SWT TOFFEE CREAMY 35g  0000001000+00000700+00000+0001T   00000700+0000001114          1400 BM9150               2AZ
204761000204761               204761               170213PB     1400+00000+PB0000001753+0000001753+000000000+000000246+0000001990+0000000009+I20000000000+0000001990+Z
204761001204761089-000004     204761006003000137749KEY CHAIN MTL CHARMS   0000001000+00001753+00000+0001T   00001753+0000001125          1400 BM9205               2AZ
204762000204762               204762               170213PB     1400+00000+PB0000013637+0000013637+000000000+000001911+0000015548+0000000000+I40000015548+0000000000+Z
204762001204762903-000126     204762006002099003591SWT ZILLIONS MINT 50G  0000001000+00000700+00000+0001T   00000700+0000001211          1400 BM9150               2AZ
204762002204762903-000155     204762006009803374435SWT LOLLY I LUV U HEART0000002000+00000525+00000+0001T   00000525+0000001211          1400 BM9150               2AZ
204762003204762103-000474     204762006003000630363BAMBOO FLOWER BASKET   0000001000+00005262+00000+0001T   00005262+0000001211          1400 BM9300               2AZ
204762004204762018-030000     204762006003000421060MUG OCCASIONS LOVE 2PCE0000001000+00004385+00000+0001T   00004385+0000001211          1400 BM9515               2AZ
204762005204762563-000318-L   204762006003000407088SERVIETTES 33cm RED    0000001000+00002192+00000+0001T   00002192+0000001211          1400 BM9214               2AZ
204762006204762112-116069     204762006009681820277TCS CARRIER BAG JUMBO  0000001000+00000048+00000+0001T   00000048+0000001211          1400 BM9090               2AZ
204763000204763               204763               170213PB     1400+00000+PB0000007453+0000007453+000000000+000001044+0000008497+0000000000+I40000008497+0000000000+Z
204763001204763368-000265     204763006001023750914PLUSH BEAR 23CM ASSTD C0000001000+00006139+00000+0001T   00006139+0000001212          1400 BM9745               2AZ
204763002204763077-000310     204763006001023608635GIFT-BAG 18X23CM GLOSS 0000001000+00001314+00000+0001T   00001314+0000001212          1400 BM9112               2AZ
204764000204764               204764               170213PB     1400+00000+PB0000004384+0000004384+000000000+000000614+0000004990+0000000008+I20000000000+0000004990+Z
204764001204764563-000318-L   204764006003000407088SERVIETTES 33cm RED    0000002000+00002192+00000+0001T   00002192+0000001234          1400 BM9214               2AZ
204765000204765               204765               170213PB     1400+00000+PB0000017012+0000017012+000000000+000002382+0000019390+0000000004+I20000000000+0000019390+Z
204765001204765200-000100     204765006001023764003CUPS 25PCE DISPOSABLE  0000002000+00001928+00000+0001T   00001928+0000001239          1400 BM9214               2AZ
204765002204765028-000910     204765006001023459718B-B-Q TONGS GIANT      0000001000+00004385+00000+0001T   00004385+0000001239          1400 BM9305               2AZ
204765003204765006-000165     204765006001023758392BALLOONS LRG BAG-OF-1000000001000+00008771+00000+0001T   00008771+0000001239          1400 BM9131               2AZ
204766000204766               204766               170213PB     1400+00000+PB0000002892+0000002892+000000000+000000406+0000003290+0000000008+I20000000000+0000003290+Z
204766001204766105-000750     204766006003000190270CONTAINERS 4xMINI 150ml0000001000+00001402+00000+0001T   00001402+0000001243          1400 BM9210               2AZ
204766002204766565-004101     204766006003000548033BALL BOUNCING EGG      0000001000+00001490+00000+0001T   00001490+0000001243          1400 BM9745               2AZ
204767000204767               204767               170213PB     1400+00000+PB0000001927+0000001927+000000000+000000271+0000002198+0000000000+I40000002198+0000000000+Z
204767001204767080-000133-A   204767006003000647019MINI VALENTINES CARD   0000001000+00000437+00000+0001T   00000437+0000001345          1400 BM9112               2AZ
204767002204767077-000452     204767006003000284986G/BAG METALLIC MED EMB 0000001000+00001490+00000+0001T   00001490+0000001345          1400 BM9112               2AZ
204768000204768               204768               170213PB     1400+00000+PB0000014328+0000014328+000000000+000002007+0000016335+0000000000+I40000016335+0000000000+Z
204768001204768112-116038     204768006009681820246TCS CARRIER BAG MIDI   0000001000+00000035+00000+0001T   00000035+0000001357          1400 BM9090               2AZ
204768002204768002-000652     204768006001023553188M/SPOON WDN 3PC H/HOUSE0000001000+00003069+00000+0001T   00003069+0000001357          1400 BM9300               2AZ
204768003204768071-001028     204768008887013700385MARKER WHT-RND YM-500  0000001000+00001578+00000+0001T   00001578+0000001357          1400 BM9130               2AZ
204768004204768028-000797     204768006001023812124SKEWERS 15cm 100PCE    0000001000+00000876+00000+0001T   00000876+0000001357          1400 BM9305               2AZ
204768005204768047-009010     204768006001023120267DOOR-WINDOW-ALARM B/O  0000002000+00004385+00000+0001T   00004385+0000001357          1400 BM9880               2AZ
204769000204769               204769               170213PB     1400+00000+PB0000006174+0000006174+000000000+000000865+0000007030+0000000009+I20000000000+0000007030+Z
204769001204769018-050000     204769006003000412679MUG OCC LOVE TWIN BEAR 0000001000+00006139+00000+0001T   00006139+0000001359          1400 BM9515               2AZ
204769002204769112-116038     204769006009681820246TCS CARRIER BAG MIDI   0000001000+00000035+00000+0001T   00000035+0000001359          1400 BM9090               2AZ
204770000204770               204770               170213PB     1400+00000+PB0000016098+0000016098+000000000+000002255+0000018353+0000000000+I40000018353+0000000000+Z
204770001204770031-001012     204770006003000675104P/FRAME WDN COLLAGE    0000001000+00013157+00000+0001T   00013157+0000001457          1400 BM95101IC            2AZ
204770002204770036-000151     204770006001023810588COATHANGERS    PACK-10 0000001000+00002893+00000+0001T   00002893+0000001457          1400 BM9212               2AZ
204770003204770112-116069     204770006009681820277TCS CARRIER BAG JUMBO  0000001000+00000048+00000+0001T   00000048+0000001457          1400 BM9090               2AZ
204771000204771               204771               170213PB     1400+00000+PB0000004153+0000004153+000000000+000000582+0000004730+0000000005+I20000000000+0000004730+Z
204771001204771006-000166-C   204771006003000516377BALLOONS LRG 6PC PINK  0000002000+00001314+00000+0001T   00001314+0000001459          1400 BM9131               2AZ
204771002204771077-000299     204771006003000395576G/BAG 32x25cm LRG LOVE 0000001000+00001490+00000+0001T   00001490+0000001459          1400 BM9112               2AZ
204771003204771112-116038     204771006009681820246TCS CARRIER BAG MIDI   0000001000+00000035+00000+0001T   00000035+0000001459          1400 BM9090               2AZ
204772000204772               204772               170213PB     1400+00000+PB0000013095+0000013095+000000000+000001838+0000014933+0000000000+I40000014933+0000000000+Z
204772001204772112-116038     204772006009681820246TCS CARRIER BAG MIDI   0000001000+00000035+00000+0001T   00000035+0000001502          1400 BM9090               2AZ
204772002204772006-006018-B   204772006003000008278PARTY-SPRAY HAIR NEON  0000001000+00002630+00000+0001T   00002630+0000001502          1400 BM9131               2AZ
204772003204772366-006103     204772006001023786944DRESS UP FACE PAINT SET0000001000+00002630+00000+0001T   00002630+0000001502          1400 BM9131               2AZ
204772004204772362-000315     204772006003000096008HAIR HEADBAND FLOWERS  0000002000+00001753+00000+0001T   00001753+0000001502          1400 BM9160               2AZ
204772005204772903-000892     204772008693029700420SWT NOVELTY CHOCO CREAM0000001000+00000788+00000+0001T   00000788+0000001502          1400 BM9150               2AZ
204772006204772903-000624     204772006003000671793SWEET LOLLY BLU/BRRY   0000001000+00001753+00000+0001T   00001753+0000001502          1400 BM9150               2AZ
204772007204772903-000618     204772006003000672370SWT LOLLY RAINBOW GIANT0000001000+00001753+00000+0001T   00001753+0000001502          1400 BM9150               2AZ
204773000204773               204773               170213PB     1400+00000+PB0000007142+0000007142+000000000+000001003+0000008145+0000000000+I40000008145+0000000000+Z
204773001204773006-000190     204773006003000685530BALLOONS LOVE 81x91cm  0000001000+00004385+00000+0001T   00004385+0000001504          1400 BM9131               2AZ
204773002204773903-000200     204773006009826020234SWT CHOC RP CHOCO 23G  0000003000+00000788+00000+0001T   00000788+0000001504          1400 BM9150               2AZ
204773003204773903-000183     204773006003000451043SWT LB HEART LOLLY     0000001000+00000393+00000+0001T   00000393+0000001504          1400 BM9150               2AZ
204774000204774               204774               170213PB     1400+00000+PB0000001490+0000001490+000000000+000000209+0000001690+0000000009+I20000000000+0000001690+Z
204774001204774077-000299     204774006003000395576G/BAG 32x25cm LRG LOVE 0000001000+00001490+00000+0001T   00001490+0000001505          1400 BM9112               2AZ
204775000204775               204775               170213PB     1400+00000+PB0000013157+0000013157+000000000+000001842+0000014999+0000000000+I40000014999+0000000000+Z
204775001204775031-000009     204775006003000306381P/FRAME COLLAGE HEARTS 0000001000+00013157+00000+0001T   00013157+0000001508          1400 BM9510               2AZ
204776000204776               204776               170213PB     1400+00000+PB0000007890+0000007890+000000000+000001107+0000008990+0000000007+I20000000000+0000008990+Z
204776001204776105-006005     204776006003000666195CANNISTER PL 600ml     0000003000+00002630+00000+0001T   00002630+0000001513          1400 BM9210               2AZ
204777000204777               204777               170213PB     1400+00000+PB0000001402+0000001402+000000000+000000197+0000001590+0000000009+I20000000000+0000001590+Z
204777001204777304-001204     204777006001023737984FLOWER OCC. TEDDY/ROSES0000001000+00001402+00000+0001T   00001490+0006471540          1400 BM9510               2AZ
204778000204778               204778               170213PB     1400+00000+PB0000002192+0000002192+000000000+000000307+0000002490+0000000009+I20000000000+0000002490+Z
204778001204778566-000359     204778006003000582709STICKER BOOK LOVE SPARK0000001000+00002192+00000+0001T   00002192+0000001547          1400 BM9130               2AZ
204779000204779               204779               170213PB     1400+00000+PB0000002892+0000002892+000000000+000000405+0000003297+0000000000+I40000003297+0000000000+Z
204779001204779077-000303     204779006001023593757GIFT-BAG PAPER MED     0000001000+00001578+00000+0001T   00001578+0000001553          1400 BM9112               2AZ
204779002204779077-000310     204779006001023608635GIFT-BAG 18X23CM GLOSS 0000001000+00001314+00000+0001T   00001314+0000001553          1400 BM9112               2AZ
204780000204780               204780               170213PB     1400+00000+PB0000001490+0000001490+000000000+000000209+0000001690+0000000009+I20000000000+0000001690+Z
204780001204780077-000299     204780006003000395576G/BAG 32x25cm LRG LOVE 0000001000+00001490+00000+0001T   00001490+0000001620          1400 BM9112               2AZ
204781000204781               204781               170213PB     1400+00000+PB0000017846+0000017846+000000000+000002501+0000020347+0000000000+I40000020347+0000000000+Z
204781001204781903-000519     204781006001704012805SWT MS LIQ-O-GHETTI    0000001000+00001227+00000+0001T   00001227+0000001623          1400 BM9150               2AZ
204781002204781368-000175     204781006003000270316PLUSH BEAR 4 ASSTD 18CM0000001000+00006139+00000+0001T   00006139+0000001623          1400 BM9745               2AZ
204781003204781903-000619     204781006003000672455SWT LOLLY STR/BRRY 140G0000002000+00001753+00000+0001T   00001753+0000001623          1400 BM9150               2AZ
204781004204781077-000315     204781006003000181186GIFT-BAG 20x28cm MATT  0000001000+00001578+00000+0001T   00001578+0000001623          1400 BM9112               2AZ
204781005204781077-000303     204781006001023593757GIFT-BAG PAPER MED     0000001000+00001578+00000+0001T   00001578+0000001623          1400 BM9112               2AZ
204781006204781080-000124     204781006003000297733CARD & ENV VALENTINES  0000001000+00001578+00000+0001T   00001578+0000001623          1400 BM9112               2AZ
204781007204781080-000127     204781006003000424351VALENTINES DAY 36x24CM 0000001000+00002192+00000+0001T   00002192+0000001623          1400 BM9112               2AZ
204781008204781112-116069     204781006009681820277TCS CARRIER BAG JUMBO  0000001000+00000048+00000+0001T   00000048+0000001623          1400 BM9090               2AZ
204782000204782               204782               170213PB     1400+00000+PB0000002455+0000002455+000000000+000000344+0000002790+0000000009+I20000000000+0000002790+Z
204782001204782562-000009     204782000730589212029PLAY MODELLING CARDED  0000001000+00002455+00000+0001T   00002455+0000001625          1400 BM9755               2AZ
204783000204783               204783               170213PB     1400+00000+PB0000003542+0000003542+000000000+000000496+0000004038+0000000000+I40000004038+0000000000+Z
204783001204783018-000136     204783006001023659026MUG OCC LOVE W/PLUSH   0000001000+00003507+00000+0001T   00003507+0000001627          1400 BM9515               2AZ
204783002204783112-116038     204783006009681820246TCS CARRIER BAG MIDI   0000001000+00000035+00000+0001T   00000035+0000001627          1400 BM9090               2AZ
204784000204784               204784               170213PB     1400+00000+PB0000022364+0000022364+000000000+000003132+0000025496+0000000000+I40000025496+0000000000+Z
204784001204784266-000570     204784006001023830944FIGURINE KNIGHT & HORSE0000001000+00004385+00000+0001T   00004385+0000001633          1400 BM9710               2AZ
204784002204784071-000212     204784006009608641190CHALK WHITE 12PCE      0000001000+00000437+00000+0001T   00000437+0000001633          1400 BM9130               2AZ
204784003204784365-004002     204784006001023657992KITCHEN-SET ACCESSORIES0000001000+00004385+00000+0001T   00004385+0000001633          1400 BM9725               2AZ
204784004204784365-003033     204784006003000668410PLAY-SET TEA-SET 11PC  0000001000+00013157+00000+0001T   00013157+0000001633          1400 BM9725               2AZ
204785000204785               204785               170213PB     1400+00000+PB0000001314+0000001314+000000000+000000184+0000001490+0000000008+I20000000000+0000001490+Z
204785001204785034-000329     204785006001023564290BOTTLE-BRUSHES WHT 2PCE0000001000+00001314+00000+0001T   00001314+0000001636          1400 BM9215               2AZ
204786000204786               204786               170213PB     1400+00000+PB0000013155+0000013155+000000000+000001843+0000014998+0000000000+I40000014998+0000000000+Z
204786001204786368-000637     204786006001023874092PLUSH BEAR SLEEPING LOV0000001000+00011402+00000+0001T   00012279+0006471639          1400 BM9745               2AZ
204786002204786077-000299-A   204786006003000670888GIFT-BAG PAPER JMB LOVE0000001000+00001753+00000+0001T   00001753+0000001639          1400 BM9112               2AZ
204787000204787               204787               170213PB     1400+00000+PB0000002192+0000002192+000000000+000000307+0000002499+0000000000+I40000002499+0000000000+Z
204787001204787563-000318-L   204787006003000407088SERVIETTES 33cm RED    0000001000+00002192+00000+0001T   00002192+0000001640          1400 BM9214               2AZ
204788000204788               204788               170213PB     1400+00000+PB0000018441+0000018441+000000000+000002585+0000021026+0000000000+I40000021026+0000000000+Z
204788001204788079-000254     204788006002923016407ART APRON ASSTD        0000001000+00002630+00000+0001T   00002630+0000001642          1400 BM9130               2AZ
204788002204788007-000537     204788000651728791017NOTE-PAD RND SMILE-FACE0000001000+00000700+00000+0001T   00000700+0000001642          1400 BM9130               2AZ
204788003204788007-000723     204788006003000226078MEMO BOOK W/PEN 100SHTS0000001000+00001753+00000+0001T   00001753+0000001642          1400 BM9130               2AZ
204788004204788903-000624     204788006003000671793SWEET LOLLY BLU/BRRY   0000002000+00001753+00000+0001T   00001753+0000001642          1400 BM9150               2AZ
204788005204788077-000452     204788006003000284986G/BAG METALLIC MED EMB 0000001000+00001490+00000+0001T   00001490+0000001642          1400 BM9112               2AZ
204788006204788071-003023     204788006001023836120BALLPENS 10PCE MINI GEL0000001000+00003507+00000+0001T   00003507+0000001642          1400 BM9130               2AZ
204788007204788007-000555     204788006001023848239MEMO-PAD MINI LOVE     0000001000+00000613+00000+0001T   00000613+0000001642          1400 BM9130               2AZ
204788008204788007-000537     204788000651728791017NOTE-PAD RND SMILE-FACE0000001000+00000700+00000+0001T   00000700+0000001642          1400 BM9130               2AZ
204788009204788007-000542     204788006001023847874NOTE-BOOK H/C SKETCHPAD0000001000+00003507+00000+0001T   00003507+0000001642          1400 BM9130               2AZ
204788010204788112-116038     204788006009681820246TCS CARRIER BAG MIDI   0000001000+00000035+00000+0001T   00000035+0000001642          1400 BM9090               2AZ
204789000204789               204789               170213PB     1400+00000+PB0000001928+0000001928+000000000+000000270+0000002198+0000000000+I40000002198+0000000000+Z
204789001204789105-001078     204789000700371637750CONTAINER 1,1L CLIP LOC0000001000+00001928+00000+0001T   00001928+0000001644          1400 BM9210               2AZ
204790000204790               204790               170213PB     1400+00000+PB0000014502+0000014502+000000000+000002033+0000016535+0000000000+I40000016535+0000000000+Z
204790001204790301-085007     204790006003000673698ORN OCC. LOVE S/PLAQUE 0000001000+00007893+00000+0001T   00007893+0000001650          1400 BM9505               2AZ
204790002204790206-000245     204790006003000680818BOTTLE CLEANER PLASTIC 0000001000+00002192+00000+0001T   00002192+0000001650          1400 BM9321               2AZ
204790003204790077-000011-D   204790006001023808554TISSUE-WRAP WHITE 10PCE0000001000+00000876+00000+0001T   00000876+0000001650          1400 BM9112               2AZ
204790004204790077-000005-D   204790006003000414567PAPER TISSUE 50x70cm   0000001000+00001753+00000+0001T   00001753+0000001650          1400 BM9112               2AZ
204790005204790077-000316     204790006001023609731GIFT-BAG 25X32CM MATT  0000001000+00001753+00000+0001T   00001753+0000001650          1400 BM9112               2AZ
204790006204790112-116038     204790006009681820246TCS CARRIER BAG MIDI   0000001000+00000035+00000+0001T   00000035+0000001650          1400 BM9090               2AZ
204791000204791               204791               170213PB     1400+00000+PB0000025558+0000025558+000000000+000003583+0000029141+0000000000+I40000029141+0000000000+Z
204791001204791112-116069     204791006009681820277TCS CARRIER BAG JUMBO  0000001000+00000048+00000+0001T   00000048+0000001652          1400 BM9090               2AZ
204791002204791365-005267     204791006001023584366P/SET KITCHEN BAKING PL0000002000+00003507+00000+0001T   00003507+0000001652          1400 BM9725               2AZ
204791003204791065-006041     204791006001023712974TAMBOURINE 15cm P/BAND 0000002000+00001753+00000+0001T   00001753+0000001652          1400 BM9745               2AZ
204791004204791565-000887     204791006003000412334NOVELTY SILICONE TOY   0000001000+00002192+00000+0001T   00002192+0000001652          1400 BM9745               2AZ
204791005204791105-001005     204791006001023858214CONTAINERS MINI 6PCE   0000001000+00001402+00000+0001T   00001402+0000001652          1400 BM9210               2AZ
204791006204791036-000402     204791006003000572250CLOTHES DRYER WITH PEGS0000001000+00002630+00000+0001T   00002630+0000001652          1400 BM9212               2AZ
204791007204791002-000015     204791006003000555604CAPPUCCINO STENCILS 12P0000001000+00001753+00000+0001T   00001753+0000001652          1400 BM9300               2AZ
204791008204791002-000720     204791006003000369003C/BOARD 34x25cm W/HNDLE0000002000+00001753+00000+0001T   00002630+0008121652          1400 BM9300               2AZ
204791009204791079-000600     204791006003000160990ART-SHEETS FOAM ASSTD-C0000001000+00003507+00000+0001T   00003507+0000001652          1400 BM9130               2AZ
204792000204792               204792               170213PB     1400+00000+PB0000003115+0000003115+000000000+000000437+0000003550+0000000002+I20000000000+0000003550+Z
204792001204792080-000114     204792006003000246472CARD&ENV LOVE-MUSICAL  0000001000+00001314+00000+0001T   00001753+0008151729          1400 BM9112               2AZ
204792002204792077-000299-A   204792006003000670888GIFT-BAG PAPER JMB LOVE0000001000+00001753+00000+0001T   00001753+0000001729          1400 BM9112               2AZ
204792003204792112-116069     204792006009681820277TCS CARRIER BAG JUMBO  0000001000+00000048+00000+0001T   00000048+0000001729          1400 BM9090               2AZ
204793000204793               204793               170213PB     1400+00000+PB0000003117+0000003117+000000000+000000437+0000003554+0000000000+I40000003554+0000000000+Z
204793001204793112-116069     204793006009681820277TCS CARRIER BAG JUMBO  0000001000+00000048+00000+0001T   00000048+0000001738          1400 BM9090               2AZ
204793002204793072-020311     204793006003000494132PET DOG TOY VINYL BALL 0000001000+00003069+00000+0001T   00003069+0000001738          1400 BM9870               2AZ
204794000204794               204794               170213PB     1400+00000+PB0000007051+0000007051+000000000+000000988+0000008030+0000000009+I20000000000+0000008030+Z
204794001204794368-000156     204794006003000167241PLUSH BUG 20cm ASST-COL0000001000+00007016+00000+0001T   00007016+0000001744          1400 BM9745               2AZ
204794002204794112-116038     204794006009681820246TCS CARRIER BAG MIDI   0000001000+00000035+00000+0001T   00000035+0000001744          1400 BM9090               2AZ
204795000204795               204795               170213PB     1400+00000+PB0000007927+0000007927+000000000+000001110+0000009037+0000000000+I40000009037+0000000000+Z
204795001204795560-000302     204795006001023834874DINOSAUR ASSTD DESIGNS 0000001000+00003507+00000+0001T   00003507+0000001748          1400 BM9745               2AZ
204795002204795368-000151     204795006003000166725PLUSH BEAR 14cm        0000001000+00004385+00000+0001T   00004385+0000001748          1400 BM9745               2AZ
204795003204795112-116038     204795006009681820246TCS CARRIER BAG MIDI   0000001000+00000035+00000+0001T   00000035+0000001748          1400 BM9090               2AZ
204796000204796               204796               170213PB     1400+00000+PB0000001753+0000001753+000000000+000000246+0000001999+0000000000+I40000001999+0000000000+Z
204796001204796077-000011-Y   204796006001023809858TISSUE-WRAP GOLD 10PCE 0000001000+00001753+00000+0001T   00001753+0000001751          1400 BM9112               2AZ
204797000204797               204797               170213PB     1400+00000+PB0000001490+0000001490+000000000+000000209+0000001690+0000000009+I20000000000+0000001690+Z
204797001204797464-000106     204797006001023171153PLAYING-CARDS (SINGLE) 0000001000+00001490+00000+0001T   00001490+0000001752          1400 BM9785               2AZ
204798000204798               204798               170213PB     1400+00000+PB0000006172+0000006172+000000000+000000865+0000007030+0000000007+I20000000000+0000007030+Z
204798001204798079-006495     204798006003000159987GLITTER SHAKERS 6PK    0000001000+00002630+00000+0001T   00002630+0000001753          1400 BM9130               2AZ
204798002204798071-001010     204798006001023893314MARKERS-METALIC 3PCE   0000001000+00003507+00000+0001T   00003507+0000001753          1400 BM9130               2AZ
204798003204798112-116038     204798006009681820246TCS CARRIER BAG MIDI   0000001000+00000035+00000+0001T   00000035+0000001753          1400 BM9090               2AZ
204799000204799               204799               170213PB     1400+00000+PB0000007009+0000007009+000000000+000000984+0000007993+0000000000+I40000007993+0000000000+Z
204799001204799903-000843     204799008693029031067SWT GUMMY JELAXY 80G   0000001000+00000964+00000+0001T   00000964+0000001757          1400 BM9150               2AZ
204799002204799007-000160     204799006009685857286NOTE-BOOK A5 SHORTHAND 0000001000+00001227+00000+0001T   00001227+0000001757          1400 BM9130               2AZ
204799003204799560-000102     204799006001023746979ANIMALS FARM IN-TUBE   0000001000+00003507+00000+0001T   00003507+0000001757          1400 BM9745               2AZ
204799004204799080-000133-A   204799006003000647019MINI VALENTINES CARD   0000003000+00000437+00000+0001T   00000437+0000001757          1400 BM9112               2AZ
204800000204800               204800               170213PB     1400+00000+PB0000005470+0000005470+000000000+000000767+0000006237+0000000000+I40000006237+0000000000+Z
204800001204800077-000299     204800006003000395576G/BAG 32x25cm LRG LOVE 0000001000+00001490+00000+0001T   00001490+0000001801          1400 BM9112               2AZ
204800002204800080-000127     204800006003000424351VALENTINES DAY 36x24CM 0000001000+00002192+00000+0001T   00002192+0000001801          1400 BM9112               2AZ
204800003204800903-000619     204800006003000672455SWT LOLLY STR/BRRY 140G0000001000+00001753+00000+0001T   00001753+0000001801          1400 BM9150               2AZ
204800004204800112-116038     204800006009681820246TCS CARRIER BAG MIDI   0000001000+00000035+00000+0001T   00000035+0000001801          1400 BM9090               2AZ
204801000204801               204801               170213PB     1400+00000+PB0000023324+0000023324+000000000+000003267+0000026591+0000000000+I40000026591+0000000000+Z
204801001204801301-085007     204801006003000673698ORN OCC. LOVE S/PLAQUE 0000001000+00007893+00000+0001T   00007893+0000001804          1400 BM9505               2AZ
204801002204801031-000923     204801006001023669933P/FRAME BLK W/WORDS    0000001000+00003507+00000+0001T   00003507+0000001804          1400 BM9510               2AZ
204801003204801261-000121     204801006001023341600GUN-CAPS 8-SHOT CARD-9 0000002000+00000700+00000+0001T   00000700+0000001804          1400 BM9710               2AZ
204801004204801001-091415     204801006003000329113W/GLS OCC. LOVE 2PC 2800000001000+00008771+00000+0001T   00009648+0006471804          1400 BM9515               2AZ
204801005204801077-000299-A   204801006003000670888GIFT-BAG PAPER JMB LOVE0000001000+00001753+00000+0001T   00001753+0000001804          1400 BM9112               2AZ
204802000204802               204802               170213PB     1400+00000+PB0000008504+0000008504+000000000+000001192+0000009690+0000000006+I20000000000+0000009690+Z
204802001204802079-006495     204802006003000159987GLITTER SHAKERS 6PK    0000001000+00002630+00000+0001T   00002630+0000001807          1400 BM9130               2AZ
204802002204802566-000359     204802006003000582709STICKER BOOK LOVE SPARK0000002000+00002192+00000+0001T   00002192+0000001807          1400 BM9130               2AZ
204802003204802079-006494     204802006003000159864GLITTER GLUE 5PCE 11cm 0000001000+00001490+00000+0001T   00001490+0000001807          1400 BM9130               2AZ
204803000204803               204803               170213PB     1400+00000+PB0000002102+0000002102+000000000+000000296+0000002390+0000000008+I20000000000+0000002390+Z
204803001204803079-009702-D   204803008427973059354PAPER SIRIO A2 RED COL 0000001000+00001051+00000+0001T   00001051+0000001808          1400 BM9130               2AZ
204803002204803079-009702-C   204803008427973059309PAPER SIRIO A2 VIOLET  0000001000+00001051+00000+0001T   00001051+0000001808          1400 BM9130               2AZ
204804000204804               204804               170213PB     1400+00000+PB0000002980+0000002980+000000000+000000418+0000003390+0000000008+I20000000000+0000003390+Z
204804001204804366-002809     204804006003000222643DRESS UP MOUSTACHE SET 0000001000+00001753+00000+0001T   00001753+0000001811          1400 BM9131               2AZ
204804002204804200-000092     204804006003000576739PICNIC PAPER PLATES 23c0000001000+00001227+00000+0001T   00001227+0000001811          1400 BM9214               2AZ
204805000204805               204805               170213PB     1400+00000+PB0000001753+0000001753+000000000+000000246+0000001990+0000000009+I20000000000+0000001990+Z
204805001204805077-000299-A   204805006003000670888GIFT-BAG PAPER JMB LOVE0000001000+00001753+00000+0001T   00001753+0000001814          1400 BM9112               2AZ
204806000204806               204806               170213PB     1400+00000+PB0000006611+0000006611+000000000+000000926+0000007530+0000000007+I20000000000+0000007530+Z
204806001204806301-086010     204806006003000573400ORN TEABAG HOLDER 20cm 0000001000+00003069+00000+0001T   00003069+0000001816          1400 BM9505               2AZ
204806002204806079-014101     204806006001023908612ART+CRAFT SCOUBIDOUx50 0000001000+00003507+00000+0001T   00003507+0000001816          1400 BM9130               2AZ
204806003204806112-116038     204806006009681820246TCS CARRIER BAG MIDI   0000001000+00000035+00000+0001T   00000035+0000001816          1400 BM9090               2AZ
204807000204807               204807               170213PB     1400+00000+PB0000005260+0000005260+000000000+000000738+0000005990+0000000008+I20000000000+0000005990+Z
204807001204807077-000270     204807006003000395453GIFT-BAG PPR JMB 33X45 0000001000+00002630+00000+0001T   00002630+0000001826          1400 BM9112               2AZ
204807002204807077-000475     204807006003000640775GIFT-BAG DESIGNER MED  0000001000+00002630+00000+0001T   00002630+0000001826          1400 BM9112               2AZ
204808000204808               204808               170213PB     1400+00000+PB0000014720-0000000000+000000000+000000000+0000014720-0000000000+I20000000000+0000014720-Z
204808001204808001-999901     204808000000000999901CASUAL WAGES           0000001000-00014720+00000+0001X  8205215710085 0800STSHAB0000000000 BM99011IC ALALA      2 Z
204809000204809               204809               170213PB     1400+00000+PB0000000437+0000000437+000000000+000000062+0000000490+0000000009+I20000000000+0000000490+Z
204809001204809071-000212     204809006009608641190CHALK WHITE 12PCE      0000001000+00000437+00000+0001T   00000437+0000001847          1400 BM9130               2AZ
204810000204810               204810               170213PB     1400+00000+PB0000002227+0000002227+000000000+000000312+0000002530+0000000009+I20000000000+0000002530+Z
204810001204810265-000003     204810006003000651108B/O FIRE ENGINE LC PL  0000001000+00002192+00000+0001T   00002192+0000001848          1400 BM9710               2AZ
204810002204810112-116038     204810006009681820246TCS CARRIER BAG MIDI   0000001000+00000035+00000+0001T   00000035+0000001848          1400 BM9090               2AZ
A17021300                                          10450939PBSLAVE 2                       BM91IC
B20477000                                          170213PB031-001012     14555942SLAVE 2     BM91IC0000010000+0000001000+0000000000000+
M17021391                              CASH        PBSLAVE 2                       Z-REPORT No.   634TOTAL (Sales - Refunds)           5501.02       CASH TO BE BANKED                  990.90       DEBIT CARDS                          0.00       CREDIT CARDS                      4362.92       Z-READING                         5353.82       AIRTIME DEBIT CARD SALES             0.00       AIRTIME CARD SALES                   0.00       OVERS/UNDERS                         0.00       AIRTIME CASH SALES                   0.00       GIFT CARDS                           0.00       GIFT CARD CASH SALES                 0.00       CASUAL WAGES                       147.20       T O T A L  CASH PAYOUTS            147.20                                                                                                                                                                                                                                                                                                      Z
M17021392                              CASH        PBABSENT                                                                                                                                                                                          ANNUAL LEAVE                                                                                                                                                                                    DAY OFF                                                                                                                                                                                         COMMENTS                                                                                                                                                                                                                                                                                                                                                                                       Z
Y17021300                                          PB00000000492330+000058
ZPB17021320163 SLAVE 2      SALES DATA                     NEXT INVOICE NO.  204811 0634
X PB Slave 2 First invoice 204751 170213 Last invoice 204810 170213 Next invoice 204811 Total number of records 000000242 clbackup completed 20:16:49
