105456000105456               105456               170213PC     1400+00000+PC0000008418+0000008418+000000000+000001180+0000009598+0000000000+I40000009598+0000000000+Z
105456001105456027-000194     105456006001246602472MOP COMPLETE           0000001000+00002279+00000+0001T   00002279+0000000947          1400 JT9212               1AZ
105456002105456027-000029     105456006003000439676FLOOR-BROOM 1.2m ASSTD 0000001000+00006139+00000+0001T   00006139+0000000947          1400 JT9212               1AZ
105457000105457               105457               170213PC     1400+00000+PC0000004857+0000004857+000000000+000000681+0000005530+0000000008+I20000000000+0000005530+Z
105457001105457079-013032-D   105457006003000389643RIBBONS                0000001000+00002630+00000+0001T   00002630+0000000954          1400 JT9130               1AZ
105457002105457366-000302     105457006001023903013DRESSUP DEVIL/MOUSE    0000001000+00002192+00000+0001T   00002192+0000000954          1400 JT9131               1AZ
105457003105457112-116038     105457006009681820246TCS CARRIER BAG MIDI   0000001000+00000035+00000+0001T   00000035+0000000954          1400 JT9090               1AZ
105458000105458               105458               170213PC     1400+00000+PC0000008889+0000008889+000000000+000001247+0000010130+0000000006+I20000000000+0000010130+Z
105458001105458039-000026     105458006001023551610C/TAPERED 25CM M/RED   0000002000+00001051+00000+0001T   00001051+0000000956          1400 JT9510               1AZ
105458002105458039-000798     105458006001023617774CANDLES TEALITE BOX-50 0000001000+00006139+00000+0001T   00006139+0000000956          1400 JT9510               1AZ
105458003105458083-000055     105458006003000003853LIGHTER ELCTRNC REFILBL0000001000+00000613+00000+0001T   00000613+0000000956          1400 JT9315               1AZ
105458004105458112-116038     105458006009681820246TCS CARRIER BAG MIDI   0000001000+00000035+00000+0001T   00000035+0000000956          1400 JT9090               1AZ
105459000105459               105459               170213PC     1400+00000+PC0000006838+0000006838+000000000+000000959+0000007797+0000000000+I40000007797+0000000000+Z
105459001105459103-000474     105459006003000630363BAMBOO FLOWER BASKET   0000001000+00005262+00000+0001T   00005262+0000001006          1400 JT9300               1AZ
105459002105459903-000200     105459006009826020234SWT CHOC RP CHOCO 23G  0000002000+00000788+00000+0001T   00000788+0000001006          1400 JT9150               1AZ
105460000105460               105460               170213PC     1400+00000+PC0000000613+0000000613+000000000+000000086+0000000690+0000000009+I20000000000+0000000690+Z
105460001105460304-001011     105460006001023806727FLWR ROSE RED W/BEAR   0000001000+00000613+00000+0001T   00000788+0006471126          1400 JT9510               1BZ
105461000105461               105461               170213PC     1400+00000+PC0000005172+0000005172+000000000+000000725+0000005897+0000000000+I40000005897+0000000000+Z
105461001105461301-085000     105461006003000674299 ORN OCC. LOVE HEARTS  0000001000+00002192+00000+0001T   00002192+0000001155          1400 JT9505               1AZ
105461002105461006-000800     105461006001023902801HAT CABARET 14x18cm    0000001000+00001753+00000+0001T   00001753+0000001155          1400 JT9131               1AZ
105461003105461077-000245     105461006001023759214GIFT-RIBBON METALLICx2 0000001000+00001227+00000+0001T   00001227+0000001155          1400 JT9112               1AZ
105462000105462               105462               170213PC     1400+00000+PC0000001576+0000001576+000000000+000000221+0000001790+0000000007+I20000000000+0000001790+Z
105462001105462077-000151     105462006008766114676GIFT-WRAP C/PHANE ASSTD0000001000+00000876+00000+0001T   00000876+0000001155          1400 JT9112               1BZ
105462002105462018-000177     105462006001023797513MUG MINI LOVE ASSTD    0000001000+00000700+00000+0001T   00000700+0000001155          1400 JT9515               1BZ
105463000105463               105463               170213PC     1400+00000+PC0000001227+0000001227+000000000+000000172+0000001390+0000000009+I20000000000+0000001390+Z
105463001105463077-000245     105463006001023759214GIFT-RIBBON METALLICx2 0000001000+00001227+00000+0001T   00001227+0000001156          1400 JT9112               1AZ
105464000105464               105464               170213PC     1400+00000+PC0000003507+0000003507+000000000+000000491+0000003998+0000000000+I40000003998+0000000000+Z
105464001105464018-005009     105464006001023725608MUG W/PLUSH-BEAR LOVE  0000001000+00003507+00000+0001T   00003507+0000001214          1400 JT9515               1AZ
105465000105465               105465               170213PC     1400+00000+PC0000001753+0000001753+000000000+000000246+0000001990+0000000009+I20000000000+0000001990+Z
105465001105465200-003024     105465006001023657299REFUSE BAGS 20PCE BLACK0000001000+00001753+00000+0001T   00001753+0000001307          1400 JT9214               1AZ
105466000105466               105466               170213PC     1400+00000+PC0000013978+0000013978+000000000+000001959+0000015937+0000000000+I40000015937+0000000000+Z
105466001105466903-000709     105466006002099007070SWT QUENCHERS FRUIT    0000001000+00001139+00000+0001T   00001139+0000001335          1400 JT9150               1AZ
105466002105466903-000151     105466006009803374411SWT SML RND R/BOW LOLLY0000001000+00000525+00000+0001T   00000525+0000001335          1400 JT9150               1AZ
105466003105466368-000111     105466006001023780812PLUSH BEAR/DOG 29CM    0000001000+00012279+00000+0001T   00012279+0000001335          1400 JT9745               1AZ
105466004105466112-116038     105466006009681820246TCS CARRIER BAG MIDI   0000001000+00000035+00000+0001T   00000035+0000001335          1400 JT9090               1AZ
105467000105467               105467               170213PC     1400+00000+PC0000002625+0000002625+000000000+000000370+0000002995+0000000000+I40000002995+0000000000+Z
105467001105467903-000155     105467006009803374435SWT LOLLY I LUV U HEART0000003000+00000525+00000+0001T   00000525+0000001337          1400 JT9150               1AZ
105467002105467903-000151     105467006009803374411SWT SML RND R/BOW LOLLY0000002000+00000525+00000+0001T   00000525+0000001337          1400 JT9150               1AZ
105468000105468               105468               170213PC     1400+00000+PC0000008770+0000008770+000000000+000001228+0000009990+0000000008+I20000000000+0000009990+Z
105468001105468133-001218     105468006003000622443IRON REST SILICONE     0000002000+00004385+00000+0001T   00004385+0000001337          1400 JT9212               1AZ
105469000105469               105469               170213PC     1400+00000+PC0000002629+0000002629+000000000+000000369+0000002990+0000000008+I20000000000+0000002990+Z
105469001105469306-000021-A   105469006001023891358EARBUDS COTTON 100PCE  0000001000+00000876+00000+0001T   00000876+0000001345          1400 JT9200               1AZ
105469002105469200-003024     105469006001023657299REFUSE BAGS 20PCE BLACK0000001000+00001753+00000+0001T   00001753+0000001345          1400 JT9214               1AZ
105470000105470               105470               170213PC     1400+00000+PC0000007448+0000007448+000000000+000001046+0000008490+0000000004+I20000000000+0000008490+Z
105470001105470903-000892     105470008693029700420SWT NOVELTY CHOCO CREAM0000004000+00000788+00000+0001T   00000788+0000001402          1400 JT9150               1AZ
105470002105470903-000090     105470006009826020821SWT GS CHOCO COINS 60g 0000001000+00002104+00000+0001T   00002104+0000001402          1400 JT9150               1AZ
105470003105470079-013032-G   105470006003000496389FOAM BUTTERFLIES       0000001000+00002192+00000+0001T   00002192+0000001402          1400 JT9130               1AZ
105471000105471               105471               170213PC     1400+00000+PC0000006696+0000006696+000000000+000000938+0000007634+0000000000+I40000007634+0000000000+Z
105471001105471301-085000     105471006003000674299 ORN OCC. LOVE HEARTS  0000001000+00002192+00000+0001T   00002192+0000001405          1400 JT9505               1AZ
105471002105471018-000177     105471006001023797513MUG MINI LOVE ASSTD    0000002000+00000700+00000+0001T   00000700+0000001405          1400 JT9515               1AZ
105471003105471301-085008     105471006003000673933ORN OCC.LOVE TINSEL HRT0000001000+00003069+00000+0001T   00003069+0000001405          1400 JT9505               1AZ
105471004105471112-116038     105471006009681820246TCS CARRIER BAG MIDI   0000001000+00000035+00000+0001T   00000035+0000001405          1400 JT9090               1AZ
105472000105472               105472               170213PC     1400+00000+PC0000024557+0000024557+000000000+000003439+0000027996+0000000000+I40000027996+0000000000+Z
105472001105472566-000047     105472006003000159093SCRAPBOOK 100xSHEETS   0000001000+00005262+00000+0001T   00005262+0000001406          1400 JT9130               1AZ
105472002105472566-000054     105472006003000085781S/BOOK ALBUM+ACCESORIES0000001000+00010525+00000+0001T   00010525+0000001406          1400 JT9130               1AZ
105472003105472566-000051     105472006003000085422SCRAPBOOK PRNT CVR ASTD0000002000+00004385+00000+0001T   00004385+0000001406          1400 JT9130               1AZ
105473000105473               105473               170213PC     1400+00000+PC0000004382+0000004382+000000000+000000615+0000004990+0000000007+I20000000000+0000004990+Z
105473001105473018-000129     105473006001023403353MUG OCC. LOVE V-SHAPE  0000001000+00002630+00000+0001T   00002630+0000001419          1400 JT9515               1AZ
105473002105473077-000150-D   105473006003000054343GIFT-WRAP CELLPHANE CLR0000002000+00000876+00000+0001T   00000876+0000001419          1400 JT9112               1AZ
105474000105474               105474               170213PC     1400+00000+PC0000004821+0000004821+000000000+000000675+0000005490+0000000006+I20000000000+0000005490+Z
105474001105474031-005853     105474006003000442416P/FRAME WDN TWIN HEARTS0000001000+00003507+00000+0001T   00003507+0000001428          1400 JT9510               1AZ
105474002105474077-000312     105474006001023608697GIFT-BAG 10X35CM GLOSS 0000001000+00001314+00000+0001T   00001314+0000001428          1400 JT9112               1AZ
105475000105475               105475               170213PC     1400+00000+PC0000005733+0000005733+000000000+000000803+0000006530+0000000006+I20000000000+0000006530+Z
105475001105475031-005853     105475006003000442416P/FRAME WDN TWIN HEARTS0000001000+00003507+00000+0001T   00003507+0000001430          1400 JT9510               1BZ
105475002105475080-000124     105475006003000297733CARD & ENV VALENTINES  0000001000+00001578+00000+0001T   00001578+0000001430          1400 JT9112               1BZ
105475003105475304-001011     105475006001023806727FLWR ROSE RED W/BEAR   0000001000+00000613+00000+0001T   00000788+0006471430          1400 JT9510               1BZ
105475004105475112-116038     105475006009681820246TCS CARRIER BAG MIDI   0000001000+00000035+00000+0001T   00000035+0000001430          1400 JT9090               1BZ
105476000105476               105476               170213PC     1400+00000+PC0000014288+0000014288+000000000+000002004+0000016290+0000000002+I20000000000+0000016290+Z
105476001105476046-000010     105476004897006172987BATTERIES AAA ALKLN 2PC0000001000+00001490+00000+0001T   00001490+0000001431          1400 JT9312               1AZ
105476002105476071-001124     105476006001023802873MARKERS WHITEBOARD 3PCE0000001000+00002630+00000+0001T   00002630+0000001431          1400 JT9130               1AZ
105476003105476071-000013     105476006003000535354BOARD DUSTER           0000001000+00002630+00000+0001T   00002630+0000001431          1400 JT9130               1AZ
105476004105476200-000092     105476006003000576739PICNIC PAPER PLATES 23c0000002000+00001227+00000+0001T   00001227+0000001431          1400 JT9214               1AZ
105476005105476200-003024     105476006001023657299REFUSE BAGS 20PCE BLACK0000002000+00001753+00000+0001T   00001753+0000001431          1400 JT9214               1AZ
105476006105476077-000303     105476006001023593757GIFT-BAG PAPER MED     0000001000+00001578+00000+0001T   00001578+0000001431          1400 JT9112               1AZ
105477000105477               105477               170213PC     1400+00000+PC0000002191+0000002191+000000000+000000307+0000002490+0000000008+I20000000000+0000002490+Z
105477001105477304-001011     105477006001023806727FLWR ROSE RED W/BEAR   0000001000+00000613+00000+0001T   00000788+0006471433          1400 JT9510               1AZ
105477002105477080-000124     105477006003000297733CARD & ENV VALENTINES  0000001000+00001578+00000+0001T   00001578+0000001433          1400 JT9112               1AZ
105478000105478               105478               170213PC     1400+00000+PC0000004937+0000004937+000000000+000000693+0000005630+0000000000+I20000000000+0000005630+Z
105478001105478304-001011     105478006001023806727FLWR ROSE RED W/BEAR   0000005000+00000613+00000+0001T   00000788+0006471522          1400 JT9510               1AZ
105478002105478112-116038     105478006009681820246TCS CARRIER BAG MIDI   0000001000+00000035+00000+0001T   00000035+0000001522          1400 JT9090               1AZ
105478003105478018-000177     105478006001023797513MUG MINI LOVE ASSTD    0000002000+00000700+00000+0001T   00000700+0000001522          1400 JT9515               1AZ
105478004105478080-000133-A   105478006003000647019MINI VALENTINES CARD   0000001000+00000437+00000+0001T   00000437+0000001522          1400 JT9112               1AZ
105479000105479               105479               170213PC     1400+00000+PC0000004385+0000004385+000000000+000000614+0000004990+0000000009+I20000000000+0000004990+Z
105479001105479001-000175     105479006001023788108B/MUG GLS LOVE 380ML   0000001000+00004385+00000+0001T   00004385+0000001524          1400 JT9515               1BZ
105480000105480               105480               170213PC     1400+00000+PC0000002192+0000002192+000000000+000000307+0000002490+0000000009+I20000000000+0000002490+Z
105480001105480033-000782     105480006001023905482COSMETIC SPONGES 12PC  0000001000+00002192+00000+0001T   00002192+0000001533          1400 JT9200               1BZ
105481000105481               105481               170213PC     1400+00000+PC0000007889+0000007889+000000000+000001107+0000008996+0000000000+I40000008996+0000000000+Z
105481001105481077-000906     105481006003000410804G/WRAP 700mmx1m BIRTHDA0000003000+00001753+00000+0001T   00001753+0000001534          1400 JT9112               1AZ
105481002105481039-000332     105481006001023900470CANDLES 8PCE+NUMBERS   0000001000+00002630+00000+0001T   00002630+0000001534          1400 JT9510               1AZ
105482000105482               105482               170213PC     1400+00000+PC0000003156+0000003156+000000000+000000442+0000003590+0000000008+I20000000000+0000003590+Z
105482001105482080-000124     105482006003000297733CARD & ENV VALENTINES  0000001000+00001578+00000+0001T   00001578+0000001547          1400 JT9112               1AZ
105482002105482077-000303     105482006001023593757GIFT-BAG PAPER MED     0000001000+00001578+00000+0001T   00001578+0000001547          1400 JT9112               1AZ
105483000105483               105483               170213PC     1400+00000+PC0000001752+0000001752+000000000+000000246+0000001990+0000000008+I20000000000+0000001990+Z
105483001105483077-000150-D   105483006003000054343GIFT-WRAP CELLPHANE CLR0000002000+00000876+00000+0001T   00000876+0000001552          1400 JT9112               1AZ
105484000105484               105484               170213PC     1400+00000+PC0000002892+0000002892+000000000+000000405+0000003290+0000000007+I20000000000+0000003290+Z
105484001105484077-000310     105484006001023608635GIFT-BAG 18X23CM GLOSS 0000001000+00001314+00000+0001T   00001314+0000001555          1400 JT9112               1BZ
105484002105484077-000303     105484006001023593757GIFT-BAG PAPER MED     0000001000+00001578+00000+0001T   00001578+0000001555          1400 JT9112               1BZ
105485000105485               105485               170213PC     1400+00000+PC0000009330+0000009330+000000000+000001307+0000010637+0000000000+I40000010637+0000000000+Z
105485001105485368-000265     105485006001023750914PLUSH BEAR 23CM ASSTD C0000001000+00006139+00000+0001T   00006139+0000001604          1400 JT9745               1AZ
105485002105485077-000303     105485006001023593757GIFT-BAG PAPER MED     0000002000+00001578+00000+0001T   00001578+0000001604          1400 JT9112               1AZ
105485003105485112-116038     105485006009681820246TCS CARRIER BAG MIDI   0000001000+00000035+00000+0001T   00000035+0000001604          1400 JT9090               1AZ
105486000105486               105486               170213PC     1400+00000+PC0000009417+0000009417+000000000+000001320+0000010730+0000000007+I20000000000+0000010730+Z
105486001105486077-000299     105486006003000395576G/BAG 32x25cm LRG LOVE 0000001000+00001490+00000+0001T   00001490+0000001609          1400 JT9112               1AZ
105486002105486018-000129     105486006001023403353MUG OCC. LOVE V-SHAPE  0000001000+00002630+00000+0001T   00002630+0000001609          1400 JT9515               1AZ
105486003105486368-000171     105486006003000233250PLUSH BEAR 14cm        0000001000+00005262+00000+0001T   00005262+0000001609          1400 JT9745               1AZ
105486004105486112-116038     105486006009681820246TCS CARRIER BAG MIDI   0000001000+00000035+00000+0001T   00000035+0000001609          1400 JT9090               1AZ
105487000105487               105487               170213PC     1400+00000+PC0000010642+0000010642+000000000+000001493+0000012135+0000000000+I40000012135+0000000000+Z
105487001105487018-000127     105487006001023380289MUG OCC STRAIGHT LOVE  0000001000+00001578+00000+0001T   00001753+0006471615          1400 JT9515               1BZ
105487002105487301-085001     105487006003000297610ORN WATERBALL LOVE ASST0000001000+00004823+00000+0001T   00004823+0000001615          1400 JT9505               1BZ
105487003105487304-001204     105487006001023737984FLOWER OCC. TEDDY/ROSES0000003000+00001402+00000+0001T   00001490+0006471615          1400 JT9510               1BZ
105487004105487112-116038     105487006009681820246TCS CARRIER BAG MIDI   0000001000+00000035+00000+0001T   00000035+0000001615          1400 JT9090               1BZ
105488000105488               105488               170213PC     1400+00000+PC0000001490+0000001490+000000000+000000209+0000001690+0000000009+I20000000000+0000001690+Z
105488001105488033-005919     105488006003000154883SEWING THREAD 24cm ASST0000001000+00001490+00000+0001T   00001490+0000001616          1400 JT9200               1AZ
105489000105489               105489               170213PC     1400+00000+PC0000001613+0000001613+000000000+000000226+0000001830+0000000009+I20000000000+0000001830+Z
105489001105489018-000127     105489006001023380289MUG OCC STRAIGHT LOVE  0000001000+00001578+00000+0001T   00001753+0006471623          1400 JT9515               1AZ
105489002105489112-116038     105489006009681820246TCS CARRIER BAG MIDI   0000001000+00000035+00000+0001T   00000035+0000001623          1400 JT9090               1AZ
105490000105490               105490               170213PC     1400+00000+PC0000012277+0000012277+000000000+000001720+0000013990+0000000007+I20000000000+0000013990+Z
105490001105490264-015023     105490000090159150237MAISTO SLICKERS 2" CAR 0000001000+00002016+00000+0001T   00002016+0000001642          1400 JT9710               1AZ
105490002105490565-004101     105490006003000548033BALL BOUNCING EGG      0000001000+00001490+00000+0001T   00001490+0000001642          1400 JT9745               1AZ
105490003105490368-000614     105490006001023705808PLUSH LOVE 30cm        0000001000+00008771+00000+0001T   00008771+0000001642          1400 JT9745               1AZ
105491000105491               105491               170213PC     1400+00000+PC0000003506+0000003506+000000000+000000492+0000003990+0000000008+I20000000000+0000003990+Z
105491001105491078-000470     105491006007347000018SHOE-CEMENT 70ml-TIN   0000001000+00001753+00000+0001T   00001753+0000001647          1400 JT9810               1AZ
105491002105491046-002013-PK6 105491004897006174851BATTERY BUTTON AG13 6PC0000001000+00001753+00000+0001T   00001753+0000001647          1400 JT9312               1AZ
105492000105492               105492               170213PC     1400+00000+PC0000011437+0000011437+000000000+000001602+0000013039+0000000000+I40000013039+0000000000+Z
105492001105492112-116038     105492006009681820246TCS CARRIER BAG MIDI   0000001000+00000035+00000+0001T   00000035+0000001651          1400 JT9090               1AZ
105492002105492368-000637     105492006001023874092PLUSH BEAR SLEEPING LOV0000001000+00011402+00000+0001T   00012279+0006471651          1400 JT9745               1AZ
105493000105493               105493               170213PC     1400+00000+PC0000006138+0000006138+000000000+000000860+0000006990+0000000008+I20000000000+0000006990+Z
105493001105493072-020353     105493006001023598097DOG/CAT-BOWL 17cm      0000001000+00001753+00000+0001T   00001753+0000001704          1400 JT9870               1AZ
105493002105493072-000606     105493006001023858566DOG-COLLAR+LEAD        0000001000+00004385+00000+0001T   00004385+0000001704          1400 JT9870               1AZ
105494000105494               105494               170213PC     1400+00000+PC0000002980+0000002980+000000000+000000418+0000003390+0000000008+I20000000000+0000003390+Z
105494001105494007-000160     105494006009685857286NOTE-BOOK A5 SHORTHAND 0000001000+00001227+00000+0001T   00001227+0000001705          1400 JT9130               1BZ
105494002105494018-000210     105494006003000580095MUG DAILY TEXTS 4-ASST 0000001000+00001753+00000+0001T   00001753+0000001705          1400 JT9515               1BZ
105495000105495               105495               170213PC     1400+00000+PC0000005032+0000005032+000000000+000000705+0000005737+0000000000+I40000005737+0000000000+Z
105495001105495031-000844     105495006001023851789P/FRAME WDN WORDS 2ASS 0000001000+00003507+00000+0001T   00003507+0000001707          1400 JT9510               1AZ
105495002105495077-000299     105495006003000395576G/BAG 32x25cm LRG LOVE 0000001000+00001490+00000+0001T   00001490+0000001707          1400 JT9112               1AZ
105495003105495112-116038     105495006009681820246TCS CARRIER BAG MIDI   0000001000+00000035+00000+0001T   00000035+0000001707          1400 JT9090               1AZ
105496000105496               105496               170213PC     1400+00000+PC0000015171+0000015171+000000000+000002126+0000017297+0000000000+I40000017297+0000000000+Z
105496001105496077-000299     105496006003000395576G/BAG 32x25cm LRG LOVE 0000001000+00001490+00000+0001T   00001490+0000001713          1400 JT9112               1AZ
105496002105496304-001204     105496006001023737984FLOWER OCC. TEDDY/ROSES0000001000+00001402+00000+0001T   00001490+0006471713          1400 JT9510               1AZ
105496003105496368-000111     105496006001023780812PLUSH BEAR/DOG 29CM    0000001000+00012279+00000+0001T   00012279+0000001713          1400 JT9745               1AZ
105497000105497               105497               170213PC     1400+00000+PC0000007450+0000007450+000000000+000001045+0000008490+0000000005+I20000000000+0000008490+Z
105497001105497036-000605     105497006001023158611WASHING-PEGS WDN PCK-240000005000+00001490+00000+0001T   00001490+0000001715          1400 JT9212               1AZ
105498000105498               105498               170213PC     1400+00000+PC0000000876+0000000876+000000000+000000123+0000000990+0000000009+I20000000000+0000000990+Z
105498001105498903-003075     105498003800065783125SWT CHOC FAFL WAFER 52g0000001000+00000876+00000+0001T   00000876+0000001717          1400 JT9150               1AZ
105499000105499               105499               170213PC     1400+00000+PC0000012658+0000012658+000000000+000001773+0000014431+0000000000+I40000014431+0000000000+Z
105499001105499072-020263     105499006001023602572PET DOG-CHEW PL BALL   0000001000+00004385+00000+0001T   00004385+0000001723          1400 JT9870               1AZ
105499002105499072-020258     105499006001023598127DOG-CHEW BONE 18cm     0000001000+00003507+00000+0001T   00003507+0000001723          1400 JT9870               1AZ
105499003105499077-000303     105499006001023593757GIFT-BAG PAPER MED     0000001000+00001578+00000+0001T   00001578+0000001723          1400 JT9112               1AZ
105499004105499018-000177     105499006001023797513MUG MINI LOVE ASSTD    0000002000+00000700+00000+0001T   00000700+0000001723          1400 JT9515               1AZ
105499005105499365-000001     105499006003000395262PLAY SET DOCTORS SET   0000001000+00001753+00000+0001T   00001753+0000001723          1400 JT9725               1AZ
105499006105499112-116038     105499006009681820246TCS CARRIER BAG MIDI   0000001000+00000035+00000+0001T   00000035+0000001723          1400 JT9090               1AZ
105500000105500               105500               170213PC     1400+00000+PC0000007892+0000007892+000000000+000001106+0000008990+0000000008+I20000000000+0000008990+Z
105500001105500075-000325     105500006003000285495WALLET CANVAS ASSTD    0000001000+00005262+00000+0001T   00005262+0000001725          1400 JT9160               1BZ
105500002105500466-000584     105500006001023628787SKIPPING-ROPE          0000001000+00002630+00000+0001T   00002630+0000001725          1400 JT9785               1BZ
105501000105501               105501               170213PC     1400+00000+PC0000002190+0000002190+000000000+000000308+0000002490+0000000008+I20000000000+0000002490+Z
105501001105501903-000094     105501006923431501622SWT GS CANDY NECKLACE  0000001000+00000437+00000+0001T   00000437+0000001726          1400 JT9150               1AZ
105501002105501903-000081     105501006001704014076SWT F/PASTILLES 100G   0000001000+00001753+00000+0001T   00001753+0000001726          1400 JT9150               1AZ
105502000105502               105502               170213PC     1400+00000+PC0000016958+0000016958+000000000+000002377+0000019335+0000000000+I40000019335+0000000000+Z
105502001105502301-085001     105502006003000297610ORN WATERBALL LOVE ASST0000002000+00004823+00000+0001T   00004823+0000001728          1400 JT9505               1AZ
105502002105502903-000095     105502006001704011495SWT SPECKLED-EGGS 100G 0000002000+00002104+00000+0001T   00002104+0000001728          1400 JT9150               1AZ
105502003105502105-001028     105502006003000675470LUNCH BOX W/CLIPS      0000001000+00003069+00000+0001T   00003069+0000001728          1400 JT9210               1AZ
105502004105502112-116038     105502006009681820246TCS CARRIER BAG MIDI   0000001000+00000035+00000+0001T   00000035+0000001728          1400 JT9090               1AZ
105503000105503               105503               170213PC     1400+00000+PC0000002630+0000002630+000000000+000000369+0000002990+0000000009+I20000000000+0000002990+Z
105503001105503077-000270     105503006003000395453GIFT-BAG PPR JMB 33X45 0000001000+00002630+00000+0001T   00002630+0000001729          1400 JT9112               1AZ
105504000105504               105504               170213PC     1400+00000+PC0000000700+0000000700+000000000+000000098+0000000790+0000000008+I20000000000+0000000790+Z
105504001105504007-000166     105504006009685857316SPIRAL NOTES A6 100PG  0000001000+00000700+00000+0001T   00000700+0000001730          1400 JT9130               1AZ
105505000105505               105505               170213PC     1400+00000+PC0000001753+0000001753+000000000+000000246+0000001990+0000000009+I20000000000+0000001990+Z
105505001105505077-000240     105505006003000326259G/RIBBON 4PC PEARLIZED 0000001000+00001753+00000+0001T   00001753+0000001731          1400 JT9112               1AZ
105506000105506               105506               170213PC     1400+00000+PC0000017590+0000017590+000000000+000002463+0000020053+0000000000+I40000020053+0000000000+Z
105506001105506368-000161     105506006003000167760PLUSH BEAR BABY ASSTD  0000001000+00017542+00000+0001T   00017542+0000001733          1400 JT9745               1AZ
105506002105506112-116069     105506006009681820277TCS CARRIER BAG JUMBO  0000001000+00000048+00000+0001T   00000048+0000001733          1400 JT9090               1AZ
105507000105507               105507               170213PC     1400+00000+PC0000013157+0000013157+000000000+000001842+0000014999+0000000000+I40000014999+0000000000+Z
105507001105507029-000012     105507006001577033754BUCKET GALV 10L        0000001000+00013157+00000+0001T   00013157+0000001742          1400 JT9510               1AZ
105508000105508               105508               170213PC     1400+00000+PC0000012279+0000012279+000000000+000001720+0000013999+0000000000+I40000013999+0000000000+Z
105508001105508019-000079     105508006001023775726VASE 30cm CRACK-DESIGN 0000001000+00012279+00000+0001T   00012279+0000001747          1400 JT9510               1AZ
105509000105509               105509               170213PC     1400+00000+PC0000009851+0000009851+000000000+000001382+0000011233+0000000000+I40000011233+0000000000+Z
105509001105509077-000299     105509006003000395576G/BAG 32x25cm LRG LOVE 0000001000+00001490+00000+0001T   00001490+0000001749          1400 JT9112               1AZ
105509002105509903-000504     105509006001704012416SWT CHOC JELLY BEANS   0000001000+00001227+00000+0001T   00001227+0000001749          1400 JT9150               1AZ
105509003105509903-000521     105509006001704009652SWT GUMMY SOFT GUMS    0000001000+00000876+00000+0001T   00000876+0000001749          1400 JT9150               1AZ
105509004105509903-004960     105509008410525221842SWT GUMMY STR/BERRY 50G0000001000+00000964+00000+0001T   00000964+0000001749          1400 JT9150               1AZ
105509005105509903-000087     105509006001704000161SWT SPECKLED-EGGS 50G  0000001000+00001139+00000+0001T   00001139+0000001749          1400 JT9150               1AZ
105509006105509903-000295     105509006001704002899SWT MS FRUITY RASCALS  0000001000+00000876+00000+0001T   00000876+0000001749          1400 JT9150               1AZ
105509007105509150-000770     105509006005387000128UTILITY BOX MEGA       0000001000+00003244+00000+0001T   00003244+0000001749          1400 JT9810               1AZ
105509008105509112-116038     105509006009681820246TCS CARRIER BAG MIDI   0000001000+00000035+00000+0001T   00000035+0000001749          1400 JT9090               1AZ
105510000105510               105510               170213PC     1400+00000+PC0000001490+0000001490+000000000+000000209+0000001690+0000000009+I20000000000+0000001690+Z
105510001105510006-000805     105510000013994092418STREAMERS 10-ROLLS     0000001000+00001490+00000+0001T   00001490+0000001752          1400 JT9131               1AZ
105511000105511               105511               170213PC     1400+00000+PC0000003507+0000003507+000000000+000000491+0000003990+0000000008+I20000000000+0000003990+Z
105511001105511031-005853     105511006003000442416P/FRAME WDN TWIN HEARTS0000001000+00003507+00000+0001T   00003507+0000001755          1400 JT9510               1AZ
105512000105512               105512               170213PC     1400+00000+PC0000012314+0000012314+000000000+000001725+0000014039+0000000000+I40000014039+0000000000+Z
105512001105512368-000111     105512006001023780812PLUSH BEAR/DOG 29CM    0000001000+00012279+00000+0001T   00012279+0000001803          1400 JT9745               1AZ
105512002105512112-116038     105512006009681820246TCS CARRIER BAG MIDI   0000001000+00000035+00000+0001T   00000035+0000001803          1400 JT9090               1AZ
105513000105513               105513               170213PC     1400+00000+PC0000017976+0000017976+000000000+000002519+0000020490+0000000005+I20000000000+0000020490+Z
105513001105513077-000150-D   105513006003000054343GIFT-WRAP CELLPHANE CLR0000003000+00000876+00000+0001T   00000876+0000001808          1400 JT9112               1AZ
105513002105513368-000637     105513006001023874092PLUSH BEAR SLEEPING LOV0000001000+00011402+00000+0001T   00012279+0006471808          1400 JT9745               1AZ
105513003105513103-000473     105513006003000631087BAMBOO FLOWER BASKET   0000001000+00003946+00000+0001T   00003946+0000001808          1400 JT9300               1AZ
M17021391                              CASH        PCSLAVE 1                       Z-REPORT No.   636TOTAL (Sales - Refunds)           4540.52       CASH TO BE BANKED                 1962.70       DEBIT CARDS                          0.00       CREDIT CARDS                      2577.82       Z-READING                         4540.52       AIRTIME DEBIT CARD SALES             0.00       AIRTIME CARD SALES                   0.00       OVERS/UNDERS                         0.00       AIRTIME CASH SALES                   0.00       GIFT CARDS                           0.00       GIFT CARD CASH SALES                 0.00       T O T A L  CASH PAYOUTS              0.00                                                                                                                                                                                                                                                                                                                                                      Z
M17021392                              CASH        PCABSENT                                                                                                                                                                                          ANNUAL LEAVE                                                                                                                                                                                    DAY OFF                                                                                                                                                                                         COMMENTS                                                                                                                                                                                                                                                                                                                                                                                       Z
Y17021300                                          PC00000000398475+000058
ZPC17021321133 SLAVE 1      SALES DATA                     NEXT INVOICE NO.  105514 0636
X PC Slave 1 First invoice 105456 170213 Last invoice 105513 170213 Next invoice 105514 Total number of records 000000199 clbackup completed 21:13:52
