207550000207550               207550               170213PC     1400+00000+PC0000004208+0000004208+000000000+000000590+0000004790+0000000008+I20000000000+0000004790+Z
207550001207550140-006004     207550006001023628077FLY-SWATTER RUBBER     0000001000+00001139+00000+0001T   00001139+0000000937          1400 EE7830               2AZ
207550002207550051-005577     207550006001023534088GARDEN-TROWEL 250mm    0000001000+00003069+00000+0001T   00003069+0000000937          1400 EE7820               2AZ
207551000207551               207551               170213PC     1400+00000+PC0000002103+0000002103+000000000+000000295+0000002390+0000000008+I20000000000+0000002390+Z
207551001207551039-000108     207551006001023524034TEA-LITE CANDLES 8PCE  0000001000+00001490+00000+0001T   00001490+0000001054          1400 EE7510               2AZ
207551002207551083-000055     207551006003000003853LIGHTER ELCTRNC REFILBL0000001000+00000613+00000+0001T   00000613+0000001054          1400 EE7315               2AZ
207552000207552               207552               170213PC     1400+00000+PC0000010119+0000010119+000000000+000001417+0000011536+0000000000+I40000011536+0000000000+Z
207552001207552368-000049     207552006003000536955PLUSH BEAR 15cm LOVE   0000001000+00004385+00000+0001T   00004385+0000001101          1400 EE7745               2AZ
207552002207552077-000310     207552006001023608635GIFT-BAG 18X23CM GLOSS 0000001000+00001314+00000+0001T   00001314+0000001101          1400 EE7112               2AZ
207552003207552112-116038     207552006009681820246TCS CARRIER BAG MIDI   0000001000+00000035+00000+0001T   00000035+0000001101          1400 EE7090               2AZ
207552004207552018-030000     207552006003000421060MUG OCCASIONS LOVE 2PCE0000001000+00004385+00000+0001T   00004385+0000001101          1400 EE7515               2AZ
207553000207553               207553               170213PC     1400+00000+PC0000002630+0000002630+000000000+000000369+0000002990+0000000009+I20000000000+0000002990+Z
207553001207553566-000863     207553006001023788351STICKERS LASER 20x25cm 0000001000+00002630+00000+0001T   00002630+0000001101          1400 EE7130               2AZ
207554000207554               207554               170213PC     1400+00000+PC0000009501+0000009501+000000000+000001333+0000010834+0000000000+I40000010834+0000000000+Z
207554001207554112-116038     207554006009681820246TCS CARRIER BAG MIDI   0000001000+00000035+00000+0001T   00000035+0000001105          1400 EE7090               2AZ
207554002207554051-002406     207554006003000139415SPRAY PL TRIGGER 700ml 0000001000+00001753+00000+0001T   00001753+0000001105          1400 EE7820               2AZ
207554003207554046-000014     207554006001023725387BATTERIES SIZE:AAA 4PCE0000001000+00001139+00000+0001T   00001139+0000001105          1400 EE7312               2AZ
207554004207554046-000012     207554006904708013062BATTERIES AA  CARD-OF-40000001000+00001314+00000+0001T   00001314+0000001105          1400 EE7312               2AZ
207554005207554567-075466     207554009780263915044BK NOVEL ROMANCE       0000001000+00002630+00000+0001T   00002630+0000001105          1400 EE7757               2AZ
207554006207554567-075466     207554009780263247237BK NOVEL ROMANCE       0000001000+00002630+00000+0001T   00002630+0000001105          1400 EE7757               2AZ
207555000207555               207555               170213PC     1400+00000+PC0000014936+0000014936+000000000+000002095+0000017031+0000000000+I40000017031+0000000000+Z
207555001207555112-116038     207555006009681820246TCS CARRIER BAG MIDI   0000001000+00000035+00000+0001T   00000035+0000001107          1400 EE7090               2AZ
207555002207555366-000300     207555006001023902955DRESSUP TIARA FEATHER  0000003000+00002630+00000+0001T   00002630+0000001107          1400 EE7131               2AZ
207555003207555006-000166-D   207555006003000516490BALLOONS LRG 6PC RED   0000001000+00001314+00000+0001T   00001314+0000001107          1400 EE7131               2AZ
207555004207555006-000167-C   207555006003000516971BALLOONS PINK METALLIC 0000001000+00001314+00000+0001T   00001314+0000001107          1400 EE7131               2AZ
207555005207555006-000111     207555006003000519385BALLOONS LARGE 12PCE   0000001000+00002630+00000+0001T   00002630+0000001107          1400 EE7131               2AZ
207555006207555079-013099     207555006003000081875ART+CRAFT EYES ASSTD   0000001000+00001753+00000+0001T   00001753+0000001107          1400 EE7130               2AZ
207556000207556               207556               170213PC     1400+00000+PC0000003944+0000003944+000000000+000000553+0000004490+0000000007+I20000000000+0000004490+Z
207556001207556077-000011-C   207556006001023808523TISSUE 10xSHTS RED     0000001000+00000876+00000+0001T   00000876+0000001110          1400 EE7112               2AZ
207556002207556077-000452     207556006003000284986G/BAG METALLIC MED EMB 0000001000+00001490+00000+0001T   00001490+0000001110          1400 EE7112               2AZ
207556003207556077-000303     207556006001023593757GIFT-BAG PAPER MED     0000001000+00001578+00000+0001T   00001578+0000001110          1400 EE7112               2AZ
207557000207557               207557               170213PC     1400+00000+PC0000000613+0000000613+000000000+000000086+0000000690+0000000009+I20000000000+0000000690+Z
207557001207557304-001011     207557006001023806727FLWR ROSE RED W/BEAR   0000001000+00000613+00000+0001T   00000788+0006471112          1400 EE7510               2AZ
207558000207558               207558               170213PC     1400+00000+PC0000016257+0000016257+000000000+000002278+0000018530+0000000005+I20000000000+0000018530+Z
207558001207558112-116038     207558006009681820246TCS CARRIER BAG MIDI   0000001000+00000035+00000+0001T   00000035+0000001117          1400 EE7090               2AZ
207558002207558077-000314     207558006003000181148GIFT-BAG 11X14CM MATT  0000001000+00000876+00000+0001T   00000876+0000001117          1400 EE7112               2AZ
207558003207558563-000317-A   207558006001023776167SERVIETTES 20PK PATTERN0000001000+00002630+00000+0001T   00002630+0000001117          1400 EE7214               2AZ
207558004207558089-060027     207558006003000245871KEY-CHAIN HEART 6X6cm  0000001000+00003069+00000+0001T   00003069+0000001117          1400 EE7205               2AZ
207558005207558306-000021-A   207558006001023891358EARBUDS COTTON 100PCE  0000001000+00000876+00000+0001T   00000876+0000001117          1400 EE7200               2AZ
207558006207558039-000799     207558006001023692382CANDLES TEALITE 100PCE 0000001000+00008771+00000+0001T   00008771+0000001117          1400 EE7510               2AZ
207559000207559               207559               170213PC     1400+00000+PC0000000876+0000000876+000000000+000000123+0000000990+0000000009+I20000000000+0000000990+Z
207559001207559077-000314     207559006003000181148GIFT-BAG 11X14CM MATT  0000001000+00000876+00000+0001T   00000876+0000001126          1400 EE7112               2AZ
207560000207560               207560               170213PC     1400+00000+PC0000006399+0000006399+000000000+000000897+0000007290+0000000006+I20000000000+0000007290+Z
207560001207560039-000108     207560006001023524034TEA-LITE CANDLES 8PCE  0000001000+00001490+00000+0001T   00001490+0000001202          1400 EE7510               2AZ
207560002207560077-000303     207560006001023593757GIFT-BAG PAPER MED     0000002000+00001578+00000+0001T   00001578+0000001202          1400 EE7112               2AZ
207560003207560077-000455     207560006003000285389G/BAG METALLIC LRG SOL 0000001000+00001753+00000+0001T   00001753+0000001202          1400 EE7112               2AZ
207561000207561               207561               170213PC     1400+00000+PC0000018944+0000018944+000000000+000002653+0000021590+0000000007+I20000000000+0000021590+Z
207561001207561301-001125     207561000694202803950ORN FOUNTAIN TOWER     0000001000+00017542+00000+0001T   00017542+0000001213          1400 EE7505               2AZ
207561002207561046-000011     207561004897006172994BATTERIES SIZE:AA  2PCE0000001000+00001402+00000+0001T   00001402+0000001213          1400 EE7312               2AZ
207562000207562               207562               170213PC     1400+00000+PC0000017448+0000017448+000000000+000002445+0000019890+0000000003+I20000000000+0000019890+Z
207562001207562077-000270     207562006003000395453GIFT-BAG PPR JMB 33X45 0000001000+00002630+00000+0001T   00002630+0000001215          1400 EE7112               2AZ
207562002207562368-000175     207562006003000270316PLUSH BEAR 4 ASSTD 18CM0000001000+00006139+00000+0001T   00006139+0000001215          1400 EE7745               2AZ
207562003207562018-000170     207562006001023775528MUG OCC. LOVE 2PC MINI 0000001000+00002192+00000+0001T   00002192+0000001215          1400 EE7515               2AZ
207562004207562301-085004     207562006003000420469ORN LOVE PLAQUE 21X10CM0000001000+00003507+00000+0001T   00003946+0006471215          1400 EE7505               2AZ
207562005207562080-000124     207562006003000297733CARD & ENV VALENTINES  0000001000+00001578+00000+0001T   00001578+0000001215          1400 EE7112               2AZ
207562006207562304-001204     207562006001023737984FLOWER OCC. TEDDY/ROSES0000001000+00001402+00000+0001T   00001490+0006471215          1400 EE7510               2AZ
207563000207563               207563               170213PC     1400+00000+PC0000002192+0000002192+000000000+000000307+0000002490+0000000009+I20000000000+0000002490+Z
207563001207563024-091102     207563006003453000010BAKING-CUP PAPER 50PC  0000001000+00002192+00000+0001T   00002192+0000001215          1400 EE7300               2AZ
207564000207564               207564               170213PC     1400+00000+PC0000002453+0000002453+000000000+000000344+0000002790+0000000007+I20000000000+0000002790+Z
207564001207564046-000014     207564006001023725387BATTERIES SIZE:AAA 4PCE0000001000+00001139+00000+0001T   00001139+0000001238          1400 EE7312               2AZ
207564002207564046-000012     207564006904708013062BATTERIES AA  CARD-OF-40000001000+00001314+00000+0001T   00001314+0000001238          1400 EE7312               2AZ
207565000207565               207565               170213PC     1400+00000+PC0000004822+0000004822+000000000+000000676+0000005498+0000000000+I40000005498+0000000000+Z
207565001207565089-000033     207565006003000621217KEY CHAIN MOM POLY ASST0000001000+00001753+00000+0001T   00002630+0008121246          1400 EE7205               2AZ
207565002207565203-006005     207565006003000364671ICE BALL 18-PC IN PVC  0000001000+00003069+00000+0001T   00003069+0000001246          1400 EE7300               2AZ
207566000207566               207566               170213PC     1400+00000+PC0000049803+0000049803+000000000+000006978+0000056780+0000000001+I20000000000+0000056780+Z
207566001207566369-001032     207566006001023796158BABY RATTLE SET 6PCE   0000001000+00004385+00000+0001T   00004385+0000001254          1400 EE7745               2AZ
207566002207566466-000560     207566006003000515448BALL RUGBY SZ-5 RUBBER 0000001000+00012279+00000+0001T   00012279+0000001254          1400 EE7785               2AZ
207566003207566084-000369     207566006003000594467NAIL MANICURE SET 6PCE 0000001000+00006139+00000+0001T   00006139+0000001254          1400 EE7200               2AZ
207566004207566159-002369     207566006001023999191TOOTHBRUSH HOLDER PL 3 0000001000+00002630+00000+0001T   00002630+0000001254          1400 EE7200               2AZ
207566005207566159-000653     207566006001023688859BATH-SPONGE MESH W/ROPE0000001000+00001753+00000+0001T   00001753+0000001254          1400 EE7200               2AZ
207566006207566033-000603     207566006003000365456HAIR BRUSH 23CM VENT   0000001000+00003507+00000+0001T   00003507+0000001254          1400 EE7200               2AZ
207566007207566033-000601     207566006003000365210HAIR-BRUSH 24CM BLK&WHT0000001000+00003507+00000+0001T   00003507+0000001254          1400 EE7200               2AZ
207566008207566306-000540     207566006003000165780T/BRUSH+GUM PROTECTION 0000002000+00001490+00000+0001T   00001490+0000001254          1400 EE7200               2AZ
207566009207566159-002369     207566006001023999191TOOTHBRUSH HOLDER PL 3 0000001000+00002630+00000+0001T   00002630+0000001254          1400 EE7200               2AZ
207566010207566466-000103     207566000681070950312BALL 20cm ASSTD        0000001000+00001753+00000+0001T   00001753+0000001254          1400 EE7785               2AZ
207566011207566304-001011     207566006001023806727FLWR ROSE RED W/BEAR   0000002000+00000613+00000+0001T   00000788+0006471254          1400 EE7510               2AZ
207566012207566159-000102     207566006001023552891SHOWER-CADDY 48cm      0000002000+00003507+00000+0001T   00003507+0000001254          1400 EE7200               2AZ
207567000207567               207567               170213PC     1400+00000+PC0000009329+0000009329+000000000+000001307+0000010630+0000000006+I20000000000+0000010630+Z
207567001207567112-116038     207567006009681820246TCS CARRIER BAG MIDI   0000001000+00000035+00000+0001T   00000035+0000001255          1400 EE7090               2AZ
207567002207567301-085004     207567006003000420469ORN LOVE PLAQUE 21X10CM0000001000+00003507+00000+0001T   00003946+0006471255          1400 EE7505               2AZ
207567003207567030-000031-A   207567006003000457588PLAQUE W/WORDS ASSTD   0000001000+00004385+00000+0001T   00004823+0006471255          1400 EE7505               2AZ
207567004207567304-001204     207567006001023737984FLOWER OCC. TEDDY/ROSES0000001000+00001402+00000+0001T   00001490+0006471255          1400 EE7510               2AZ
207568000207568               207568               170213PC     1400+00000+PC0000003946+0000003946+000000000+000000553+0000004490+0000000009+I20000000000+0000004490+Z
207568001207568024-000092     207568006003000426805MEASURING-SET 6PC      0000001000+00003946+00000+0001T   00003946+0000001256          1400 EE7300               2AZ
207569000207569               207569               170213PC     1400+00000+PC0000014944+0000014944+000000000+000002093+0000017037+0000000000+I40000017037+0000000000+Z
207569001207569112-116038     207569006009681820246TCS CARRIER BAG MIDI   0000001000+00000035+00000+0001T   00000035+0000001301          1400 EE7090               2AZ
207569002207569018-030000     207569006003000421060MUG OCCASIONS LOVE 2PCE0000001000+00004385+00000+0001T   00004385+0000001301          1400 EE7515               2AZ
207569003207569024-000165-A   207569006003000674077N/STICK B/WARE RND PAN 0000002000+00005262+00000+0001T   00005262+0000001301          1400 EE7300               2AZ
207570000207570               207570               170213PC     1400+00000+PC0000009243+0000009243+000000000+000001295+0000010538+0000000000+I40000010538+0000000000+Z
207570001207570112-116038     207570006009681820246TCS CARRIER BAG MIDI   0000001000+00000035+00000+0001T   00000035+0000001303          1400 EE7090               2AZ
207570002207570024-091100     207570006001023914224BAKING-CUPS PAPER 100PC0000001000+00001753+00000+0001T   00001753+0000001303          1400 EE7300               2AZ
207570003207570024-000170     207570006003000120642SILICONE CAKE-PAN RND  0000001000+00007455+00000+0001T   00007455+0000001303          1400 EE7300               2AZ
207571000207571               207571               170213PC     1400+00000+PC0000002630+0000002630+000000000+000000369+0000002990+0000000009+I20000000000+0000002990+Z
207571001207571466-000584     207571006001023628787SKIPPING-ROPE          0000001000+00002630+00000+0001T   00002630+0000001309          1400 EE7785               2AZ
207572000207572               207572               170213PC     1400+00000+PC0000026960+0000026960+000000000+000003776+0000030730+0000000006+I20000000000+0000030730+Z
207572001207572112-116038     207572006009681820246TCS CARRIER BAG MIDI   0000001000+00000035+00000+0001T   00000035+0000001315          1400 EE7090               2AZ
207572002207572039-000108     207572006001023524034TEA-LITE CANDLES 8PCE  0000001000+00001490+00000+0001T   00001490+0000001315          1400 EE7510               2AZ
207572003207572040-001013     207572006003000327966C/HOLDER SET 3PC W/TRAY0000001000+00014911+00000+0001T   00014911+0000001315          1400 EE7510               2AZ
207572004207572040-000007     207572006001023900890C/HOLDER MTL LANTERN   0000002000+00005262+00000+0001T   00005262+0000001315          1400 EE7510               2AZ
207573000207573               207573               170213PC     1400+00000+PC0000003717+0000003717+000000000+000000521+0000004230+0000000008+I20000000000+0000004230+Z
207573001207573112-116038     207573006009681820246TCS CARRIER BAG MIDI   0000001000+00000035+00000+0001T   00000035+0000001317          1400 EE7090               2AZ
207573002207573039-000108     207573006001023524034TEA-LITE CANDLES 8PCE  0000001000+00001490+00000+0001T   00001490+0000001317          1400 EE7510               2AZ
207573003207573563-000318-L   207573006003000407088SERVIETTES 33cm RED    0000001000+00002192+00000+0001T   00002192+0000001317          1400 EE7214               2AZ
207574000207574               207574               170213PC     1400+00000+PC0000006137+0000006137+000000000+000000860+0000006990+0000000007+I20000000000+0000006990+Z
207574001207574006-000344     207574006003000653799GLOW STICKS 6x20cm     0000001000+00003507+00000+0001T   00003507+0000001321          1400 EE7131               2AZ
207574002207574006-006018     207574006001023735256PARTY-SPRAY HAIR ASSORT0000001000+00002630+00000+0001T   00002630+0000001321          1400 EE7131               2AZ
207575000207575               207575               170213PC     1400+00000+PC0000002630+0000002630+000000000+000000369+0000002990+0000000009+I20000000000+0000002990+Z
207575001207575006-006018     207575006001023735256PARTY-SPRAY HAIR ASSORT0000001000+00002630+00000+0001T   00002630+0000001321          1400 EE7131               2AZ
207576000207576               207576               170213PC     1400+00000+PC0000006784+0000006784+000000000+000000952+0000007736+0000000000+I40000007736+0000000000+Z
207576001207576112-116038     207576006009681820246TCS CARRIER BAG MIDI   0000001000+00000035+00000+0001T   00000035+0000001323          1400 EE7090               2AZ
207576002207576368-000049     207576006003000536955PLUSH BEAR 15cm LOVE   0000001000+00004385+00000+0001T   00004385+0000001323          1400 EE7745               2AZ
207576003207576903-000200     207576006009826020234SWT CHOC RP CHOCO 23G  0000003000+00000788+00000+0001T   00000788+0000001323          1400 EE7150               2AZ
207577000207577               207577               170213PC     1400+00000+PC0000000613+0000000613+000000000+000000086+0000000690+0000000009+I20000000000+0000000690+Z
207577001207577304-001011     207577006001023806727FLWR ROSE RED W/BEAR   0000001000+00000613+00000+0001T   00000788+0006471336          1400 EE7510               2AZ
207578000207578               207578               170213PC     1400+00000+PC0000008276+0000008276+000000000+000001160+0000009430+0000000006+I20000000000+0000009430+Z
207578001207578112-116038     207578006009681820246TCS CARRIER BAG MIDI   0000001000+00000035+00000+0001T   00000035+0000001337          1400 EE7090               2AZ
207578002207578077-000303     207578006001023593757GIFT-BAG PAPER MED     0000001000+00001578+00000+0001T   00001578+0000001337          1400 EE7112               2AZ
207578003207578903-000155     207578006009803374435SWT LOLLY I LUV U HEART0000001000+00000525+00000+0001T   00000525+0000001337          1400 EE7150               2AZ
207578004207578368-000049     207578006003000536955PLUSH BEAR 15cm LOVE   0000001000+00004385+00000+0001T   00004385+0000001337          1400 EE7745               2AZ
207578005207578020-000015     207578006003000353118KITCHEN SCISSOR 3-ASSTD0000001000+00001753+00000+0001T   00001753+0000001337          1400 EE7300               2AZ
207579000207579               207579               170213PC     1400+00000+PC0000008943+0000008943+000000000+000001253+0000010190+0000000006+I20000000000+0000010190+Z
207579001207579077-000299     207579006003000395576G/BAG 32x25cm LRG LOVE 0000001000+00001490+00000+0001T   00001490+0000001338          1400 EE7112               2AZ
207579002207579018-050000     207579006003000412679MUG OCC LOVE TWIN BEAR 0000001000+00006139+00000+0001T   00006139+0000001338          1400 EE7515               2AZ
207579003207579903-000194     207579006009826020616SWT CHOC RP LOLLY 25G  0000001000+00001314+00000+0001T   00001314+0000001338          1400 EE7150               2AZ
207580000207580               207580               170213PC     1400+00000+PC0000002452+0000002452+000000000+000000345+0000002797+0000000000+I40000002797+0000000000+Z
207580001207580077-000305     207580006003000395422GIFT-BAG WINE 10X35CM  0000001000+00001490+00000+0001T   00001490+0000001450          1400 EE7112               2AZ
207580002207580903-000155     207580006009803374435SWT LOLLY I LUV U HEART0000001000+00000525+00000+0001T   00000525+0000001450          1400 EE7150               2AZ
207580003207580080-000133-A   207580006003000647019MINI VALENTINES CARD   0000001000+00000437+00000+0001T   00000437+0000001450          1400 EE7112               2AZ
207581000207581               207581               170213PC     1400+00000+PC0000003417+0000003417+000000000+000000479+0000003896+0000000000+I40000003896+0000000000+Z
207581001207581304-001011     207581006001023806727FLWR ROSE RED W/BEAR   0000001000+00000613+00000+0001T   00000788+0006471455          1400 EE7510               2AZ
207581002207581039-000108     207581006001023524034TEA-LITE CANDLES 8PCE  0000001000+00001490+00000+0001T   00001490+0000001455          1400 EE7510               2AZ
207581003207581030-000010     207581006003000084395P/DOOR HANGER 2-ASSTD  0000001000+00001314+00000+0001T   00001490+0008181455          1400 EE7505               2AZ
207582000207582               207582               170213PC     1400+00000+PC0000001578+0000001578+000000000+000000221+0000001790+0000000009+I20000000000+0000001790+Z
207582001207582077-000303     207582006001023593757GIFT-BAG PAPER MED     0000001000+00001578+00000+0001T   00001578+0000001504          1400 EE7112               2AZ
207583000207583               207583               170213PC     1400+00000+PC0000000000+0000000000+000000000+000000000+0000000000+0000000000+I20000000000+0000000000+Z
207583001207583368-000111     207583006001023780812PLUSH BEAR/DOG 29CM    0000001000-00012279+00000+0001T   00012279+0000001510          1400 EE77452IC            2 Z
207583002207583077-000299     207583006003000395576G/BAG 32x25cm LRG LOVE 0000001000-00001490+00000+0001T   00001490+0000001510          1400 EE71122IC            2 Z
207583003207583080-000124     207583006003000297733CARD & ENV VALENTINES  0000001000-00001578+00000+0001T   00001578+0000001510          1400 EE71121IC            2 Z
207583004207583080-000124     207583006003000297733CARD & ENV VALENTINES  0000001000-00001578+00000+0001T   00001578+0000001510          1400 EE71122IC            2 Z
207583005207583080-000133     207583006003000535613CARD&ENV MINI ASTD DSGN0000001000-00000437+00000+0001T   00000437+0000001510          1400 EE71122IC            2 Z
207583006207583077-000299     207583006003000395576G/BAG 32x25cm LRG LOVE 0000001000+00001490+00000+0001T   00001490+0000001510          1400 EE7112               2 Z
207583007207583368-000111     207583006001023780812PLUSH BEAR/DOG 29CM    0000001000+00012279+00000+0001T   00012279+0000001510          1400 EE7745               2 Z
207583008207583080-000133     207583006003000535613CARD&ENV MINI ASTD DSGN0000001000+00000437+00000+0001T   00000437+0000001510          1400 EE7112               2 Z
207583009207583080-000124     207583006003000297733CARD & ENV VALENTINES  0000002000+00001578+00000+0001T   00001578+0000001510          1400 EE7112               2 Z
207584000207584               207584               170213PC     1400+00000+PC0000003505+0000003505+000000000+000000492+0000003990+0000000007+I20000000000+0000003990+Z
207584001207584903-000087     207584006001704000161SWT SPECKLED-EGGS 50G  0000001000+00001139+00000+0001T   00001139+0000001510          1400 EE7150               2AZ
207584002207584903-000483     207584006001704001410SWT LIQUOR SML SORT 60G0000001000+00000876+00000+0001T   00000876+0000001510          1400 EE7150               2AZ
207584003207584077-000299     207584006003000395576G/BAG 32x25cm LRG LOVE 0000001000+00001490+00000+0001T   00001490+0000001510          1400 EE7112               2AZ
207585000207585               207585               170213PC     1400+00000+PC0000001927+0000001927+000000000+000000270+0000002190+0000000007+I20000000000+0000002190+Z
207585001207585006-000166-D   207585006003000516490BALLOONS LRG 6PC RED   0000001000+00001314+00000+0001T   00001314+0000001513          1400 EE7131               2AZ
207585002207585150-004030-H   207585006001023435798BATH-PLUG RUBBER WHITE 0000001000+00000613+00000+0001T   00000613+0000001513          1400 EE7810               2AZ
207586000207586               207586               170213PC     1400+00000+PC0000002366+0000002366+000000000+000000332+0000002690+0000000008+I20000000000+0000002690+Z
207586001207586200-000065     207586006001023323675DRINKING-STRAWS 38PCE  0000001000+00000613+00000+0001T   00000613+0000001514          1400 EE7214               2AZ
207586002207586002-000804     207586006003000271306PEELER VEGETABLE H/HOUS0000001000+00001753+00000+0001T   00002630+0008121514          1400 EE7300               2AZ
207587000207587               207587               170213PC     1400+00000+PC0000031726+0000031726+000000000+000004445+0000036171+0000000000+I40000036171+0000000000+Z
207587001207587112-116053     207587006006438002399TCS CARRIER BAG 38L    0000001000+00000069+00000+0001T   00000069+0000001517          1400 EE7090               2AZ
207587002207587266-008057     207587006001023791597COMBAT VEHICLES+ACCESS 0000001000+00012279+00000+0001T   00012279+0000001517          1400 EE7710               2AZ
207587003207587266-008040     207587006001023787002FIGURINE 6PC & ACCESS. 0000001000+00004385+00000+0001T   00004385+0000001517          1400 EE7710               2AZ
207587004207587266-001025     207587006003000108756BOYS TOYS SWORD 75cm   0000001000+00005262+00000+0001T   00005262+0000001517          1400 EE7710               2AZ
207587005207587018-000170     207587006001023775528MUG OCC. LOVE 2PC MINI 0000001000+00002192+00000+0001T   00002192+0000001517          1400 EE7515               2AZ
207587006207587304-001204     207587006001023737984FLOWER OCC. TEDDY/ROSES0000001000+00001402+00000+0001T   00001490+0006471517          1400 EE7510               2AZ
207587007207587162-096854     207587006001492968544#TAG KIDS 6PK EARING   0000001000+00002630+00000+0001T   00002630+0000001517          1400 EE7160               2AZ
207587008207587077-000932     207587006003000409808G/WRAP 700mmx5m PATTERN0000001000+00003507+00000+0001T   00003507+0000001517          1400 EE7112               2AZ
207588000207588               207588               170213PC     1400+00000+PC0000000614-0000000614-000000000+000000086-0000000700-0000000000+I20000000000+0000000700-Z
207588001207588046-000015     207588006001023680839BATTERIES SIZE:D   2PCE0000001000-00002367+00000+0001T   00002367+0000001524          1400 EE73121IC            2 Z
207588002207588046-000002     207588006001023585202BATTERIES SIZE:C   2PCE0000001000+00001753+00000+0001T   00001753+0000001524          1400 EE7312               2 Z
207589000207589               207589               170213PC     1400+00000+PC0000015347+0000015347+000000000+000002150+0000017490+0000000007+I20000000000+0000017490+Z
207589001207589077-000299     207589006003000395576G/BAG 32x25cm LRG LOVE 0000001000+00001490+00000+0001T   00001490+0000001527          1400 EE7112               2AZ
207589002207589368-000111     207589006001023780812PLUSH BEAR/DOG 29CM    0000001000+00012279+00000+0001T   00012279+0000001527          1400 EE7745               2AZ
207589003207589080-000124     207589006003000297733CARD & ENV VALENTINES  0000001000+00001578+00000+0001T   00001578+0000001527          1400 EE7112               2AZ
207590000207590               207590               170213PC     1400+00000+PC0000009845+0000009845+000000000+000001381+0000011220+0000000006+I20000000000+0000011220+Z
207590001207590112-116038     207590006009681820246TCS CARRIER BAG MIDI   0000001000+00000035+00000+0001T   00000035+0000001529          1400 EE7090               2AZ
207590002207590368-000049     207590006003000536955PLUSH BEAR 15cm LOVE   0000001000+00004385+00000+0001T   00004385+0000001529          1400 EE7745               2AZ
207590003207590018-000177     207590006001023797513MUG MINI LOVE ASSTD    0000004000+00000700+00000+0001T   00000700+0000001529          1400 EE7515               2AZ
207590004207590903-000155     207590006009803374435SWT LOLLY I LUV U HEART0000004000+00000525+00000+0001T   00000525+0000001529          1400 EE7150               2AZ
207590005207590903-000151     207590006009803374411SWT SML RND R/BOW LOLLY0000001000+00000525+00000+0001T   00000525+0000001529          1400 EE7150               2AZ
207591000207591               207591               170213PC     1400+00000+PC0000003944+0000003944+000000000+000000553+0000004490+0000000007+I20000000000+0000004490+Z
207591001207591077-000299     207591006003000395576G/BAG 32x25cm LRG LOVE 0000001000+00001490+00000+0001T   00001490+0000001531          1400 EE7112               2AZ
207591002207591903-000517     207591006001704012768SWT STRAWS FIZZY CHERRY0000001000+00001227+00000+0001T   00001227+0000001531          1400 EE7150               2AZ
207591003207591903-000518     207591006001704012782SWT STRAWS S/BERRY 100g0000001000+00001227+00000+0001T   00001227+0000001531          1400 EE7150               2AZ
207592000207592               207592               170213PC     1400+00000+PC0000035149+0000035149+000000000+000004922+0000040070+0000000001+I20000000000+0000040070+Z
207592001207592112-116053     207592006006438002399TCS CARRIER BAG 38L    0000001000+00000069+00000+0001T   00000069+0000001534          1400 EE7090               2AZ
207592002207592031-080508     207592006001023802415P/FRAME PL 22X11CM LOVE0000008000+00004385+00000+0001T   00004385+0000001534          1400 EE7510               2AZ
207593000207593               207593               170213PC     1400+00000+PC0000008771+0000008771+000000000+000001228+0000009990+0000000009+I20000000000+0000009990+Z
207593001207593261-003905     207593006003000301492GUN PL PLAYSET 19PCE   0000001000+00008771+00000+0001T   00008771+0000001543          1400 EE7710               2AZ
207594000207594               207594               170213PC     1400+00000+PC0000009646+0000009646+000000000+000001351+0000010990+0000000007+I20000000000+0000010990+Z
207594001207594560-000243     207594006001023622655ANIMALS OCEAN PLAY SET 0000001000+00006139+00000+0001T   00006139+0000001610          1400 EE7745               2AZ
207594002207594466-000053     207594006001023830272BALL HI-BOUNCE 5.5CM   0000001000-00003507+00000+0001T   00003507+0000001610          1400 EE77851IC            2 Z
207594003207594466-000053     207594006001023830272BALL HI-BOUNCE 5.5CM   0000002000+00003507+00000+0001T   00003507+0000001610          1400 EE77851IC            2AZ
207595000207595               207595               170213PC     1400+00000+PC0000002630+0000002630+000000000+000000369+0000002999+0000000000+I40000002999+0000000000+Z
207595001207595077-000456     207595006003000285549G/BAG METALLIC JMB EMB 0000001000+00002630+00000+0001T   00002630+0000001613          1400 EE7112               2AZ
207596000207596               207596               170213PC     1400+00000+PC0000007973+0000007973+000000000+000001118+0000009090+0000000001+I20000000000+0000009090+Z
207596001207596018-000127     207596006001023380289MUG OCC STRAIGHT LOVE  0000001000+00001578+00000+0001T   00001753+0006471615          1400 EE7515               2AZ
207596002207596903-000518     207596006001704012782SWT STRAWS S/BERRY 100g0000001000+00001227+00000+0001T   00001227+0000001615          1400 EE7150               2AZ
207596003207596903-000070     207596006001704001106SWT TOFFEE CREAMY 35g  0000001000+00000700+00000+0001T   00000700+0000001615          1400 EE7150               2AZ
207596004207596903-000087     207596006001704000161SWT SPECKLED-EGGS 50G  0000001000+00001139+00000+0001T   00001139+0000001615          1400 EE7150               2AZ
207596005207596903-000070     207596006001704001106SWT TOFFEE CREAMY 35g  0000001000+00000700+00000+0001T   00000700+0000001615          1400 EE7150               2AZ
207596006207596903-002891     207596008935001721376MENTOS GUM WINTERGREEN 0000001000+00001051+00000+0001T   00001051+0000001615          1400 EE7150               2AZ
207596007207596077-000303     207596006001023593757GIFT-BAG PAPER MED     0000001000+00001578+00000+0001T   00001578+0000001615          1400 EE7112               2AZ
207597000207597               207597               170213PC     1400+00000+PC0000002366+0000002366+000000000+000000332+0000002690+0000000008+I20000000000+0000002690+Z
207597001207597077-000299     207597006003000395576G/BAG 32x25cm LRG LOVE 0000001000+00001490+00000+0001T   00001490+0000001616          1400 EE7112               2AZ
207597002207597077-000011-C   207597006001023808523TISSUE 10xSHTS RED     0000001000+00000876+00000+0001T   00000876+0000001616          1400 EE7112               2AZ
207598000207598               207598               170213PC     1400+00000+PC0000003507+0000003507+000000000+000000491+0000003990+0000000008+I20000000000+0000003990+Z
207598001207598018-000136     207598006001023659026MUG OCC LOVE W/PLUSH   0000001000+00003507+00000+0001T   00003507+0000001620          1400 EE7515               2AZ
207599000207599               207599               170213PC     1400+00000+PC0000003804+0000003804+000000000+000000534+0000004330+0000000008+I20000000000+0000004330+Z
207599001207599112-116038     207599006009681820246TCS CARRIER BAG MIDI   0000001000+00000035+00000+0001T   00000035+0000001622          1400 EE7090               2AZ
207599002207599140-006004     207599006001023628077FLY-SWATTER RUBBER     0000001000+00001139+00000+0001T   00001139+0000001622          1400 EE7830               2AZ
207599003207599016-002000     207599006003000674404S/BOTTLE GLS W/PL CAP  0000001000+00002630+00000+0001T   00002630+0000001622          1400 EE7300               2AZ
207600000207600               207600               170213PC     1400+00000+PC0000005922+0000005922+000000000+000000830+0000006750+0000000002+I20000000000+0000006750+Z
207600001207600039-000108     207600006001023524034TEA-LITE CANDLES 8PCE  0000001000+00001490+00000+0001T   00001490+0000001625          1400 EE7510               2AZ
207600002207600080-000127     207600006003000424351VALENTINES DAY 36x24CM 0000001000+00002192+00000+0001T   00002192+0000001625          1400 EE7112               2AZ
207600003207600301-085000     207600006003000674299 ORN OCC. LOVE HEARTS  0000001000+00002192+00000+0001T   00002192+0000001625          1400 EE7505               2AZ
207600004207600112-116069     207600006009681820277TCS CARRIER BAG JUMBO  0000001000+00000048+00000+0001T   00000048+0000001625          1400 EE7090               2AZ
207601000207601               207601               170213PC     1400+00000+PC0000001314+0000001314+000000000+000000184+0000001498+0000000000+I40000001498+0000000000+Z
207601001207601077-000310     207601006001023608635GIFT-BAG 18X23CM GLOSS 0000001000+00001314+00000+0001T   00001314+0000001627          1400 EE7112               2AZ
207602000207602               207602               170213PC     1400+00000+PC0000006606+0000006606+000000000+000000929+0000007535+0000000000+I40000007535+0000000000+Z
207602001207602104-000031     207602006003000614950BASKET PL 27x18x12cm   0000002000+00002630+00000+0001T   00002630+0000001630          1400 EE7210               2AZ
207602002207602112-116038     207602006009681820246TCS CARRIER BAG MIDI   0000001000+00000035+00000+0001T   00000035+0000001630          1400 EE7090               2AZ
207602003207602080-000133-A   207602006003000647019MINI VALENTINES CARD   0000003000+00000437+00000+0001T   00000437+0000001630          1400 EE7112               2AZ
207603000207603               207603               170213PC     1400+00000+PC0000018450+0000018450+000000000+000002584+0000021034+0000000000+I40000021034+0000000000+Z
207603001207603112-116038     207603006009681820246TCS CARRIER BAG MIDI   0000001000+00000035+00000+0001T   00000035+0000001631          1400 EE7090               2AZ
207603002207603018-005009     207603006001023725608MUG W/PLUSH-BEAR LOVE  0000002000+00003507+00000+0001T   00003507+0000001631          1400 EE7515               2AZ
207603003207603001-091415     207603006003000329113W/GLS OCC. LOVE 2PC 2800000001000+00008771+00000+0001T   00009648+0006471631          1400 EE7515               2AZ
207603004207603306-007303     207603006003000532476MASSAGER (FOR HEAD)    0000001000+00002630+00000+0001T   00002630+0000001631          1400 EE7200               2AZ
207604000207604               207604               170213PC     1400+00000+PC0000003539+0000003539+000000000+000000497+0000004030+0000000006+I20000000000+0000004030+Z
207604001207604112-116038     207604006009681820246TCS CARRIER BAG MIDI   0000001000+00000035+00000+0001T   00000035+0000001637          1400 EE7090               2AZ
207604002207604077-000010-D   207604006001023123886CREPE-PAPER WHITE      0000001000+00000788+00000+0001T   00000788+0000001637          1400 EE7112               2AZ
207604003207604077-000299     207604006003000395576G/BAG 32x25cm LRG LOVE 0000001000+00001490+00000+0001T   00001490+0000001637          1400 EE7112               2AZ
207604004207604304-001011     207604006001023806727FLWR ROSE RED W/BEAR   0000002000+00000613+00000+0001T   00000788+0006471637          1400 EE7510               2AZ
207605000207605               207605               170213PC     1400+00000+PC0000004385+0000004385+000000000+000000614+0000004990+0000000009+I20000000000+0000004990+Z
207605001207605001-000175     207605006001023788108B/MUG GLS LOVE 380ML   0000001000+00004385+00000+0001T   00004385+0000001650          1400 EE7515               2AZ
207606000207606               207606               170213PC     1400+00000+PC0000023777+0000023777+000000000+000003332+0000027109+0000000000+I40000027109+0000000000+Z
207606001207606112-116053     207606006006438002399TCS CARRIER BAG 38L    0000001000+00000069+00000+0001T   00000069+0000001655          1400 EE7090               2AZ
207606002207606040-001010     207606006003000323388C/HLDR MTL ENTWINED    0000001000+00012279+00000+0001T   00012279+0000001655          1400 EE7510               2AZ
207606003207606077-000011-D   207606006001023808554TISSUE-WRAP WHITE 10PCE0000001000+00000876+00000+0001T   00000876+0000001655          1400 EE7112               2AZ
207606004207606077-000011-C   207606006001023808523TISSUE 10xSHTS RED     0000001000+00000876+00000+0001T   00000876+0000001655          1400 EE7112               2AZ
207606005207606030-000010     207606006003000084395P/DOOR HANGER 2-ASSTD  0000002000+00001314+00000+0001T   00001490+0008181655          1400 EE7505               2AZ
207606006207606077-000239     207606006003000160419GIFT-RIBBON ROLL PEARL 0000001000+00001753+00000+0001T   00001753+0000001655          1400 EE7112               2AZ
207606007207606301-085000     207606006003000674299 ORN OCC. LOVE HEARTS  0000001000+00002192+00000+0001T   00002192+0000001655          1400 EE7505               2AZ
207606008207606112-116038     207606006009681820246TCS CARRIER BAG MIDI   0000001000+00000035+00000+0001T   00000035+0000001655          1400 EE7090               2AZ
207606009207606301-085008     207606006003000673933ORN OCC.LOVE TINSEL HRT0000001000+00003069+00000+0001T   00003069+0000001655          1400 EE7505               2AZ
207607000207607               207607               170213PC     1400+00000+PC0000001226+0000001226+000000000+000000172+0000001390+0000000008+I20000000000+0000001390+Z
207607001207607077-000321     207607006001023677501GIFT-BAG 11X14CM E/D FL0000001000+00000613+00000+0001T   00000613+0000001657          1400 EE7112               2AZ
207607002207607304-001011     207607006001023806727FLWR ROSE RED W/BEAR   0000001000+00000613+00000+0001T   00000788+0006471657          1400 EE7510               2AZ
207608000207608               207608               170213PC     1400+00000+PC0000005261+0000005261+000000000+000000737+0000005990+0000000008+I20000000000+0000005990+Z
207608001207608077-000151     207608006008766114676GIFT-WRAP C/PHANE ASSTD0000001000+00000876+00000+0001T   00000876+0000001657          1400 EE7112               2AZ
207608002207608104-000030     207608006001023803481BASKET PL 28x20x12cm   0000001000+00004385+00000+0001T   00004385+0000001657          1400 EE7210               2AZ
207609000207609               207609               170213PC     1400+00000+PC0000006174+0000006174+000000000+000000865+0000007030+0000000009+I20000000000+0000007030+Z
207609001207609368-000265     207609006001023750914PLUSH BEAR 23CM ASSTD C0000001000+00006139+00000+0001T   00006139+0000001658          1400 EE7745               2AZ
207609002207609112-116038     207609006009681820246TCS CARRIER BAG MIDI   0000001000+00000035+00000+0001T   00000035+0000001658          1400 EE7090               2AZ
207610000207610               207610               170213PC     1400+00000+PC0000005120+0000005120+000000000+000000717+0000005837+0000000000+I40000005837+0000000000+Z
207610001207610018-000177     207610006001023797513MUG MINI LOVE ASSTD    0000001000+00000700+00000+0001T   00000700+0000001701          1400 EE7515               2AZ
207610002207610018-030000     207610006003000421060MUG OCCASIONS LOVE 2PCE0000001000+00004385+00000+0001T   00004385+0000001701          1400 EE7515               2AZ
207610003207610112-116038     207610006009681820246TCS CARRIER BAG MIDI   0000001000+00000035+00000+0001T   00000035+0000001701          1400 EE7090               2AZ
207611000207611               207611               170213PC     1400+00000+PC0000001753+0000001753+000000000+000000246+0000001990+0000000009+I20000000000+0000001990+Z
207611001207611251-000070     207611006003000451777PROTECTION-PADS BLK ADH0000001000+00001753+00000+0001T   00001753+0000001701          1400 EE7810               2AZ
207612000207612               207612               170213PC     1400+00000+PC0000004385+0000004385+000000000+000000614+0000004990+0000000009+I20000000000+0000004990+Z
207612001207612089-000017     207612006003000331147KEYCHAIN MOM POLY BOX  0000001000+00004385+00000+0001T   00004385+0000001702          1400 EE7205               2AZ
207613000207613               207613               170213PC     1400+00000+PC0000002190+0000002190+000000000+000000308+0000002498+0000000000+I40000002498+0000000000+Z
207613001207613046-002032-PK2 207613004897006175063BATTERIES CR-2032  2PCE0000001000+00001753+00000+0001T   00001753+0000001703          1400 EE7312               2AZ
207613002207613083-000049     207613004891035200024CIG-LIGHTER DISPOSABLE 0000001000+00000437+00000+0001T   00000437+0000001703          1400 EE7315               2AZ
207614000207614               207614               170213PC     1400+00000+PC0000001752+0000001752+000000000+000000246+0000001990+0000000008+I20000000000+0000001990+Z
207614001207614077-000150-D   207614006003000054343GIFT-WRAP CELLPHANE CLR0000001000+00000876+00000+0001T   00000876+0000001709          1400 EE7112               2AZ
207614002207614077-000011-C   207614006001023808523TISSUE 10xSHTS RED     0000001000+00000876+00000+0001T   00000876+0000001709          1400 EE7112               2AZ
207615000207615               207615               170213PC     1400+00000+PC0000000876+0000000876+000000000+000000123+0000000990+0000000009+I20000000000+0000000990+Z
207615001207615077-000011-C   207615006001023808523TISSUE 10xSHTS RED     0000001000+00000876+00000+0001T   00000876+0000001710          1400 EE7112               2AZ
207616000207616               207616               170213PC     1400+00000+PC0000001753+0000001753+000000000+000000246+0000001990+0000000009+I20000000000+0000001990+Z
207616001207616366-002701     207616006001023903136DRESS UP HAWAII FLOWER 0000001000+00001753+00000+0001T   00001753+0000001711          1400 EE7131               2AZ
207617000207617               207617               170213PC     1400+00000+PC0000005699+0000005699+000000000+000000799+0000006498+0000000000+I40000006498+0000000000+Z
207617001207617301-085001     207617006003000297610ORN WATERBALL LOVE ASST0000001000+00004823+00000+0001T   00004823+0000001713          1400 EE7505               2AZ
207617002207617077-000314     207617006003000181148GIFT-BAG 11X14CM MATT  0000001000+00000876+00000+0001T   00000876+0000001713          1400 EE7112               2AZ
207618000207618               207618               170213PC     1400+00000+PC0000005260+0000005260+000000000+000000738+0000005998+0000000000+I40000005998+0000000000+Z
207618001207618077-000475     207618006003000640775GIFT-BAG DESIGNER MED  0000001000+00002630+00000+0001T   00002630+0000001714          1400 EE7112               2AZ
207618002207618016-006425     207618006001023998170S/JAR GLS CLIP W/RIBBON0000001000+00002630+00000+0001T   00002630+0000001714          1400 EE7300               2AZ
207619000207619               207619               170213PC     1400+00000+PC0000004821+0000004821+000000000+000000676+0000005490+0000000007+I20000000000+0000005490+Z
207619001207619264-000921     207619000090159150442MAISTO CAR 3" FRESH    0000001000+00001753+00000+0001T   00001753+0000001718          1400 EE7710               2AZ
207619002207619077-000304     207619006001023483232GIFT-BAG 25X32CM E/DAY 0000001000+00001490+00000+0001T   00001490+0000001718          1400 EE7112               2AZ
207619003207619089-000020     207619006001023562272K/CHAIN MINI SHOE CROC 0000001000+00001578+00000+0001T   00001578+0000001718          1400 EE7205               2AZ
207620000207620               207620               170213PC     1400+00000+PC0000012314+0000012314+000000000+000001725+0000014030+0000000009+I20000000000+0000014030+Z
207620001207620368-000111     207620006001023780812PLUSH BEAR/DOG 29CM    0000001000+00012279+00000+0001T   00012279+0000001719          1400 EE7745               2AZ
207620002207620112-116038     207620006009681820246TCS CARRIER BAG MIDI   0000001000+00000035+00000+0001T   00000035+0000001719          1400 EE7090               2AZ
207621000207621               207621               170213PC     1400+00000+PC0000001578+0000001578+000000000+000000221+0000001790+0000000009+I20000000000+0000001790+Z
207621001207621077-000315     207621006003000181186GIFT-BAG 20x28cm MATT  0000001000+00001578+00000+0001T   00001578+0000001720          1400 EE7112               2AZ
207622000207622               207622               170213PC     1400+00000+PC0000007978+0000007978+000000000+000001119+0000009097+0000000000+I40000009097+0000000000+Z
207622001207622304-001204     207622006001023737984FLOWER OCC. TEDDY/ROSES0000001000+00001402+00000+0001T   00001490+0006471721          1400 EE7510               2AZ
207622002207622301-085001     207622006003000297610ORN WATERBALL LOVE ASST0000001000+00004823+00000+0001T   00004823+0000001721          1400 EE7505               2AZ
207622003207622089-000033     207622006003000621217KEY CHAIN MOM POLY ASST0000001000+00001753+00000+0001T   00002630+0008121721          1400 EE7205               2AZ
207623000207623               207623               170213PC     1400+00000+PC0000014761+0000014761+000000000+000002069+0000016830+0000000000+I40000016830+0000000000+Z
207623001207623301-085004     207623006003000420469ORN LOVE PLAQUE 21X10CM0000001000+00003507+00000+0001T   00003946+0006471724          1400 EE7505               2AZ
207623002207623077-000408     207623006003000145218G/BAG PP 15X21X7CM     0000001000+00000876+00000+0001T   00000876+0000001724          1400 EE7112               2AZ
207623003207623903-000151     207623006009803374411SWT SML RND R/BOW LOLLY0000002000+00000525+00000+0001T   00000525+0000001724          1400 EE7150               2AZ
207623004207623304-001011     207623006001023806727FLWR ROSE RED W/BEAR   0000001000+00000613+00000+0001T   00000788+0006471724          1400 EE7510               2AZ
207623005207623903-000095     207623006001704011495SWT SPECKLED-EGGS 100G 0000001000+00002104+00000+0001T   00002104+0000001724          1400 EE7150               2AZ
207623006207623077-000315     207623006003000181186GIFT-BAG 20x28cm MATT  0000001000+00001578+00000+0001T   00001578+0000001724          1400 EE7112               2AZ
207623007207623083-000055     207623006003000003853LIGHTER ELCTRNC REFILBL0000001000+00000613+00000+0001T   00000613+0000001724          1400 EE7315               2AZ
207623008207623112-116038     207623006009681820246TCS CARRIER BAG MIDI   0000001000+00000035+00000+0001T   00000035+0000001724          1400 EE7090               2AZ
207623009207623018-030000     207623006003000421060MUG OCCASIONS LOVE 2PCE0000001000+00004385+00000+0001T   00004385+0000001724          1400 EE7515               2AZ
207624000207624               207624               170213PC     1400+00000+PC0000005085+0000005085+000000000+000000712+0000005790+0000000007+I20000000000+0000005790+Z
207624001207624018-005009     207624006001023725608MUG W/PLUSH-BEAR LOVE  0000001000+00003507+00000+0001T   00003507+0000001724          1400 EE7515               2AZ
207624002207624077-000303     207624006001023593757GIFT-BAG PAPER MED     0000001000+00001578+00000+0001T   00001578+0000001724          1400 EE7112               2AZ
207625000207625               207625               170213PC     1400+00000+PC0000003155+0000003155+000000000+000000443+0000003590+0000000008+I20000000000+0000003590+Z
207625001207625903-000925     207625006009706300296SWT NOVELTY SURPRISE   0000001000+00001402+00000+0001T   00001402+0000001726          1400 EE7150               2AZ
207625002207625903-000059     207625006002099001269SWT GS NOVELTY ALIEN VA0000001000+00001753+00000+0001T   00001753+0000001726          1400 EE7150               2AZ
207626000207626               207626               170213PC     1400+00000+PC0000006139+0000006139+000000000+000000860+0000006999+0000000000+I40000006999+0000000000+Z
207626001207626368-000265     207626006001023750914PLUSH BEAR 23CM ASSTD C0000001000+00006139+00000+0001T   00006139+0000001727          1400 EE7745               2AZ
207627000207627               207627               170213PC     1400+00000+PC0000001490+0000001490+000000000+000000209+0000001690+0000000009+I20000000000+0000001690+Z
207627001207627077-000299     207627006003000395576G/BAG 32x25cm LRG LOVE 0000001000+00001490+00000+0001T   00001490+0000001727          1400 EE7112               2AZ
207628000207628               207628               170213PC     1400+00000+PC0000007629+0000007629+000000000+000001069+0000008698+0000000000+I40000008698+0000000000+Z
207628001207628077-000299     207628006003000395576G/BAG 32x25cm LRG LOVE 0000001000+00001490+00000+0001T   00001490+0000001729          1400 EE7112               2AZ
207628002207628018-050000     207628006003000412679MUG OCC LOVE TWIN BEAR 0000001000+00006139+00000+0001T   00006139+0000001729          1400 EE7515               2AZ
207629000207629               207629               170213PC     1400+00000+PC0000008975+0000008975+000000000+000001258+0000010230+0000000003+I20000000000+0000010230+Z
207629001207629112-116038     207629006009681820246TCS CARRIER BAG MIDI   0000001000+00000035+00000+0001T   00000035+0000001731          1400 EE7090               2AZ
207629002207629071-005214     207629006003000152544CELLOTAPE SUPER REFILL 0000001000+00001490+00000+0001T   00001490+0000001731          1400 EE7130               2AZ
207629003207629077-000239     207629006003000160419GIFT-RIBBON ROLL PEARL 0000001000+00001753+00000+0001T   00001753+0000001731          1400 EE7112               2AZ
207629004207629006-000166-D   207629006003000516490BALLOONS LRG 6PC RED   0000001000+00001314+00000+0001T   00001314+0000001731          1400 EE7131               2AZ
207629005207629006-000166-H   207629006003000608096BALLOONS HELIUM 6PC WHT0000001000+00001314+00000+0001T   00001314+0000001731          1400 EE7131               2AZ
207629006207629301-085008     207629006003000673933ORN OCC.LOVE TINSEL HRT0000001000+00003069+00000+0001T   00003069+0000001731          1400 EE7505               2AZ
207630000207630               207630               170213PC     1400+00000+PC0000007082+0000007082+000000000+000000993+0000008075+0000000000+I40000008075+0000000000+Z
207630001207630112-116053     207630006006438002399TCS CARRIER BAG 38L    0000001000+00000069+00000+0001T   00000069+0000001733          1400 EE7090               2AZ
207630002207630018-000136     207630006001023659026MUG OCC LOVE W/PLUSH   0000001000+00003507+00000+0001T   00003507+0000001733          1400 EE7515               2AZ
207630003207630077-000270     207630006003000395453GIFT-BAG PPR JMB 33X45 0000001000+00002630+00000+0001T   00002630+0000001733          1400 EE7112               2AZ
207630004207630077-000011-C   207630006001023808523TISSUE 10xSHTS RED     0000001000+00000876+00000+0001T   00000876+0000001733          1400 EE7112               2AZ
207631000207631               207631               170213PC     1400+00000+PC0000001578+0000001578+000000000+000000221+0000001799+0000000000+I40000001799+0000000000+Z
207631001207631018-000127     207631006001023380289MUG OCC STRAIGHT LOVE  0000001000+00001578+00000+0001T   00001753+0006471735          1400 EE7515               2AZ
207632000207632               207632               170213PC     1400+00000+PC0000002629+0000002629+000000000+000000369+0000002998+0000000000+I40000002998+0000000000+Z
207632001207632077-000245     207632006001023759214GIFT-RIBBON METALLICx2 0000001000+00001227+00000+0001T   00001227+0000001736          1400 EE7112               2AZ
207632002207632304-001204     207632006001023737984FLOWER OCC. TEDDY/ROSES0000001000+00001402+00000+0001T   00001490+0006471736          1400 EE7510               2AZ
207633000207633               207633               170213PC     1400+00000+PC0000003331+0000003331+000000000+000000467+0000003790+0000000008+I20000000000+0000003790+Z
207633001207633016-006515-A   207633006003000461707S/JAR GLS W/HANDLE 500 0000001000+00001578+00000+0001T   00001753+0008191742          1400 EE7300               2AZ
207633002207633019-000130     207633006003000456130PLANTER T/PLATE W/HNDL 0000001000+00001753+00000+0001T   00001753+0000001742          1400 EE7510               2AZ
207634000207634               207634               170213PC     1400+00000+PC0000001576+0000001576+000000000+000000222+0000001790+0000000008+I20000000000+0000001790+Z
207634001207634903-000892     207634008693029700420SWT NOVELTY CHOCO CREAM0000002000+00000788+00000+0001T   00000788+0000001744          1400 EE7150               2AZ
207635000207635               207635               170213PC     1400+00000+PC0000011437+0000011437+000000000+000001602+0000013030+0000000009+I20000000000+0000013030+Z
207635001207635368-000637     207635006001023874092PLUSH BEAR SLEEPING LOV0000001000+00011402+00000+0001T   00012279+0006471745          1400 EE7745               2AZ
207635002207635112-116038     207635006009681820246TCS CARRIER BAG MIDI   0000001000+00000035+00000+0001T   00000035+0000001745          1400 EE7090               2AZ
A17021300                                          08514104PCSLAVE 2                       1IC1IC
M17021391                              CASH        PCSLAVE 2                       Z-REPORT No.   638TOTAL (Sales - Refunds)           7152.96       CASH TO BE BANKED                 4567.20       DEBIT CARDS                          0.00       CREDIT CARDS                      2585.76       Z-READING                         7152.96       AIRTIME DEBIT CARD SALES             0.00       AIRTIME CARD SALES                   0.00       OVERS/UNDERS                         0.00       AIRTIME CASH SALES                   0.00       GIFT CARDS                           0.00       GIFT CARD CASH SALES                 0.00       T O T A L  CASH PAYOUTS              0.00                                                                                                                                                                                                                                                                                                                                                      Z
M17021392                              CASH        PCABSENT                                                                                                                                                                                          ANNUAL LEAVE                                                                                                                                                                                    DAY OFF                                                                                                                                                                                         COMMENTS                                                                                                                                                                                                                                                                                                                                                                                       Z
Y17021300                                          PC00000000650975+000086
ZPC17021321133 SLAVE 2      SALES DATA                     NEXT INVOICE NO.  207636 0638
X PC Slave 2 First invoice 207550 170213 Last invoice 207635 170213 Next invoice 207636 Total number of records 000000340 clbackup completed 21:13:53
