108205000108205               108205               170213PD     1400+00000+PD0000010019+0000010019+000000000+000001403+0000011420+0000000002+I20000000000+0000011420+Z
108205001108205903-000194     108205006009826020616SWT CHOC RP LOLLY 25G  0000006000+00001314+00000+0001T   00001314+0000000923          1400 J67150               1AZ
108205002108205018-000177     108205006001023797513MUG MINI LOVE ASSTD    0000003000+00000700+00000+0001T   00000700+0000000923          1400 J67515               1AZ
108205003108205112-116038     108205006009681820246TCS CARRIER BAG MIDI   0000001000+00000035+00000+0001T   00000035+0000000923          1400 J67090               1AZ
108206000108206               108206               170213PD     1400+00000+PD0000001227+0000001227+000000000+000000172+0000001390+0000000009+I20000000000+0000001390+Z
108206001108206251-000040     108206006001023515865SEALTAPE CLEAR 48mmx50m0000001000+00001227+00000+0001T   00001227+0000000923          1400 J67810               1AZ
108207000108207               108207               170213PD     1400+00000+PD0000001227+0000001227+000000000+000000172+0000001390+0000000009+I20000000000+0000001390+Z
108207001108207251-000040     108207006001023515865SEALTAPE CLEAR 48mmx50m0000001000+00001227+00000+0001T   00001227+0000000925          1400 J67810               1AZ
108208000108208               108208               170213PD     1400+00000+PD0000004385+0000004385+000000000+000000614+0000004990+0000000009+I20000000000+0000004990+Z
108208001108208006-000190     108208006003000685530BALLOONS LOVE 81x91cm  0000001000+00004385+00000+0001T   00004385+0000000931          1400 J67131               1AZ
108209000108209               108209               170213PD     1400+00000+PD0000005961+0000005961+000000000+000000835+0000006790+0000000006+I20000000000+0000006790+Z
108209001108209006-000190     108209006003000685530BALLOONS LOVE 81x91cm  0000001000+00004385+00000+0001T   00004385+0000000931          1400 J67131               1AZ
108209002108209903-000520     108209006001704009898SWT GUMMY MINI SOUR 60g0000001000+00000876+00000+0001T   00000876+0000000931          1400 J67150               1AZ
108209003108209903-000120     108209006002099001665SWEET GS ZILLIONS 50g  0000001000+00000700+00000+0001T   00000700+0000000931          1400 J67150               1AZ
108210000108210               108210               170213PD     1400+00000+PD0000006574+0000006574+000000000+000000922+0000007496+0000000000+I40000007496+0000000000+Z
108210001108210466-009008     108210006003000301713CATCHBALL W/2 BALLS    0000001000+00002630+00000+0001T   00002630+0000001018          1400 J67785               1AZ
108210002108210464-008103     108210006001023455581GAME CHECKERS          0000001000+00002630+00000+0001T   00002630+0000001018          1400 J67785               1AZ
108210003108210464-000238     108210006001023644039GAME SNAKES+LADDERS    0000001000+00001314+00000+0001T   00001314+0000001018          1400 J67785               1AZ
108211000108211               108211               170213PD     1400+00000+PD0000003768+0000003768+000000000+000000529+0000004290+0000000007+I20000000000+0000004290+Z
108211001108211018-000170     108211006001023775528MUG OCC. LOVE 2PC MINI 0000001000+00002192+00000+0001T   00002192+0000001038          1400 J67515               1AZ
108211002108211903-000200     108211006009826020234SWT CHOC RP CHOCO 23G  0000002000+00000788+00000+0001T   00000788+0000001038          1400 J67150               1AZ
108212000108212               108212               170213PD     1400+00000+PD0000007499+0000007499+000000000+000001052+0000008551+0000000000+I40000008551+0000000000+Z
108212001108212030-000031-A   108212006003000457588PLAQUE W/WORDS ASSTD   0000001000+00004385+00000+0001T   00004823+0006471058          1400 J67505               1AZ
108212002108212080-000127     108212006003000424351VALENTINES DAY 36x24CM 0000001000+00002192+00000+0001T   00002192+0000001058          1400 J67112               1AZ
108212003108212112-116069     108212006009681820277TCS CARRIER BAG JUMBO  0000001000+00000048+00000+0001T   00000048+0000001058          1400 J67090               1AZ
108212004108212080-000133-A   108212006003000647019MINI VALENTINES CARD   0000002000+00000437+00000+0001T   00000437+0000001058          1400 J67112               1AZ
108213000108213               108213               170213PD     1400+00000+PD0000033670+0000033670+000000000+000004716+0000038386+0000000000+I40000038386+0000000000+Z
108213001108213077-000299     108213006003000395576G/BAG 32x25cm LRG LOVE 0000001000+00001490+00000+0001T   00001490+0000001121          1400 J67112               1AZ
108213002108213018-000136     108213006001023659026MUG OCC LOVE W/PLUSH   0000001000+00003507+00000+0001T   00003507+0000001121          1400 J67515               1AZ
108213003108213089-000018     108213006003000176724KEY CHAIN INSPIRATION  0000001000+00003507+00000+0001T   00003507+0000001121          1400 J67205               1AZ
108213004108213077-000299     108213006003000395576G/BAG 32x25cm LRG LOVE 0000001000+00001490+00000+0001T   00001490+0000001121          1400 J67112               1AZ
108213005108213018-000136     108213006001023659026MUG OCC LOVE W/PLUSH   0000001000+00003507+00000+0001T   00003507+0000001121          1400 J67515               1AZ
108213006108213204-000003     108213006003000593583MEMO HOLDERS POLY 4ASST0000001000+00003507+00000+0001T   00003507+0000001121          1400 J67300               1AZ
108213007108213301-000125     108213006003000420582ORN BRACELET INSPIRATIO0000001000+00005262+00000+0001T   00005262+0000001121          1400 J67505               1AZ
108213008108213077-000011-E   108213006001023808646TISSUE-WRAP PINK 10PCE 0000001000+00000876+00000+0001T   00000876+0000001121          1400 J67112               1AZ
108213009108213001-091415     108213006003000329113W/GLS OCC. LOVE 2PC 2800000001000+00008771+00000+0001T   00009648+0006471121          1400 J67515               1AZ
108213010108213080-000111     108213006003000252695CARD&ENVELPE - MUSICAL 0000001000+00001753+00000+0001T   00001753+0000001121          1400 J67112               1AZ
108214000108214               108214               170213PD     1400+00000+PD0000008771+0000008771+000000000+000001228+0000009990+0000000009+I20000000000+0000009990+Z
108214001108214361-000110     108214006001023837509RAG-DOLL 46cm RAG      0000001000+00008771+00000+0001T   00008771+0000001127          1400 J67725               1AZ
108215000108215               108215               170213PD     1400+00000+PD0000017590+0000017590+000000000+000002463+0000020053+0000000000+I40000020053+0000000000+Z
108215001108215040-000501     108215006003000250295C/HOLDER W/CUPS 2ASSTD 0000001000+00008771+00000+0001T   00008771+0000001129          1400 J67510               1AZ
108215002108215001-091415     108215006003000329113W/GLS OCC. LOVE 2PC 2800000001000+00008771+00000+0001T   00009648+0006471129          1400 J67515               1AZ
108215003108215112-116069     108215006009681820277TCS CARRIER BAG JUMBO  0000001000+00000048+00000+0001T   00000048+0000001129          1400 J67090               1AZ
108216000108216               108216               170213PD     1400+00000+PD0000004646+0000004646+000000000+000000651+0000005290+0000000007+I20000000000+0000005290+Z
108216001108216206-000245     108216006003000680818BOTTLE CLEANER PLASTIC 0000001000+00002192+00000+0001T   00002192+0000001138          1400 J67321               1AZ
108216002108216206-000630     108216006003000631919SPECTACLE CLEANING BRUS0000002000+00001227+00000+0001T   00001227+0000001138          1400 J67321               1AZ
108217000108217               108217               170213PD     1400+00000+PD0000003632+0000003632+000000000+000000512+0000004140+0000000004+I20000000000+0000004140+Z
108217001108217077-000311     108217006001023608666GIFT-BAG 11X14CM GLOSS 0000001000+00000613+00000+0001T   00000613+0000001139          1400 J67112               1AZ
108217002108217903-000200     108217006009826020234SWT CHOC RP CHOCO 23G  0000002000+00000788+00000+0001T   00000788+0000001139          1400 J67150               1AZ
108217003108217903-000155     108217006009803374435SWT LOLLY I LUV U HEART0000002000+00000525+00000+0001T   00000525+0000001139          1400 J67150               1AZ
108217004108217903-000183     108217006003000451043SWT LB HEART LOLLY     0000001000+00000393+00000+0001T   00000393+0000001139          1400 J67150               1AZ
108218000108218               108218               170213PD     1400+00000+PD0000001753+0000001753+000000000+000000246+0000001990+0000000009+I20000000000+0000001990+Z
108218001108218007-000050     108218006001023528285DISPLAY-ENVELOPE A4    0000001000+00001753+00000+0001T   00001753+0000001152          1400 J67130               1AZ
108219000108219               108219               170213PD     1400+00000+PD0000002628+0000002628+000000000+000000368+0000002996+0000000000+I40000002996+0000000000+Z
108219001108219077-000310     108219006001023608635GIFT-BAG 18X23CM GLOSS 0000002000+00001314+00000+0001T   00001314+0000001153          1400 J67112               1AZ
108220000108220               108220               170213PD     1400+00000+PD0000002630+0000002630+000000000+000000369+0000002999+0000000000+I40000002999+0000000000+Z
108220001108220024-000212-A   108220006003000420155C/CUTTER SET ASSTD     0000001000+00002630+00000+0001T   00002630+0000001156          1400 J67300               1AZ
108221000108221               108221               170213PD     1400+00000+PD0000007233+0000007233+000000000+000001015+0000008240+0000000008+I20000000000+0000008240+Z
108221001108221077-000299     108221006003000395576G/BAG 32x25cm LRG LOVE 0000001000+00001490+00000+0001T   00001490+0000001158          1400 J67112               1AZ
108221002108221077-000310     108221006001023608635GIFT-BAG 18X23CM GLOSS 0000001000+00001314+00000+0001T   00001314+0000001158          1400 J67112               1AZ
108221003108221018-000127     108221006001023380289MUG OCC STRAIGHT LOVE  0000001000+00001578+00000+0001T   00001753+0006471158          1400 J67515               1AZ
108221004108221903-000617     108221006003000644261SWT HS CANDY CANE 19cm 0000001000+00001753+00000+0001T   00001753+0000001158          1400 J67150               1AZ
108221005108221112-116069     108221006009681820277TCS CARRIER BAG JUMBO  0000001000+00000048+00000+0001T   00000048+0000001158          1400 J67090               1AZ
108221006108221903-000155     108221006009803374435SWT LOLLY I LUV U HEART0000002000+00000525+00000+0001T   00000525+0000001158          1400 J67150               1AZ
108222000108222               108222               170213PD     1400+00000+PD0000002191+0000002191+000000000+000000307+0000002490+0000000008+I20000000000+0000002490+Z
108222001108222083-000055     108222006003000003853LIGHTER ELCTRNC REFILBL0000001000+00000613+00000+0001T   00000613+0000001202          1400 J67315               1AZ
108222002108222083-000054     108222006001023729071LIGHTER REFILLABLE LED 0000001000+00001578+00000+0001T   00001578+0000001202          1400 J67315               1AZ
108223000108223               108223               170213PD     1400+00000+PD0000030638+0000030638+000000000+000004299+0000034937+0000000000+I40000034937+0000000000+Z
108223001108223112-116069     108223006009681820277TCS CARRIER BAG JUMBO  0000001000+00000048+00000+0001T   00000048+0000001306          1400 J67090               1AZ
108223002108223038-001805     108223006003000466405DOILIES PAPER 60PC 3ASS0000003000+00003069+00000+0001T   00003069+0000001306          1400 J67300               1AZ
108223003108223038-001804     108223006001023766618DOILIES 27cm RND PKT-100000011000+00001753+00000+0001T   00001753+0000001306          1400 J67300               1AZ
108223004108223903-000155     108223006009803374435SWT LOLLY I LUV U HEART0000004000+00000525+00000+0001T   00000525+0000001306          1400 J67150               1AZ
108224000108224               108224               170213PD     1400+00000+PD0000004556+0000004556+000000000+000000640+0000005190+0000000006+I20000000000+0000005190+Z
108224001108224082-026205     108224006001023816528R/GLASSES STRINGS 2PCE 0000001000+00002630+00000+0001T   00002630+0000001307          1400 J67160               1AZ
108224002108224903-000843     108224008693029031067SWT GUMMY JELAXY 80G   0000001000+00000964+00000+0001T   00000964+0000001307          1400 J67150               1AZ
108224003108224903-000155     108224006009803374435SWT LOLLY I LUV U HEART0000001000+00000525+00000+0001T   00000525+0000001307          1400 J67150               1AZ
108224004108224080-000133-A   108224006003000647019MINI VALENTINES CARD   0000001000+00000437+00000+0001T   00000437+0000001307          1400 J67112               1AZ
108225000108225               108225               170213PD     1400+00000+PD0000001753+0000001753+000000000+000000246+0000001990+0000000009+I20000000000+0000001990+Z
108225001108225006-000107     108225006003000587872BALLOONS ITS BOY/GIRL  0000001000+00001753+00000+0001T   00001753+0000001321          1400 J67131               1AZ
108226000108226               108226               170213PD     1400+00000+PD0000001752+0000001752+000000000+000000246+0000001990+0000000008+I20000000000+0000001990+Z
108226001108226077-000151     108226006008766114676GIFT-WRAP C/PHANE ASSTD0000002000+00000876+00000+0001T   00000876+0000001336          1400 J67112               1AZ
108227000108227               108227               170213PD     1400+00000+PD0000004384+0000004384+000000000+000000614+0000004998+0000000000+I40000004998+0000000000+Z
108227001108227007-000597     108227006009699511129MARLIN SLF ADHESIVE 2M 0000002000+00002192+00000+0001T   00002192+0000001346          1400 J67130               1AZ
108228000108228               108228               170213PD     1400+00000+PD0000001753+0000001753+000000000+000000246+0000001990+0000000009+I20000000000+0000001990+Z
108228001108228563-000317-J   108228006001023776419SERVIETTE 2PLY 33cm    0000001000+00001753+00000+0001T   00001753+0000001348          1400 J67214               1AZ
108229000108229               108229               170213PD     1400+00000+PD0000017540+0000017540+000000000+000002456+0000019996+0000000000+I40000019996+0000000000+Z
108229001108229001-091415     108229006003000329113W/GLS OCC. LOVE 2PC 2800000001000+00008771+00000+0001T   00009648+0006471352          1400 J67515               1AZ
108229002108229080-000127     108229006003000424351VALENTINES DAY 36x24CM 0000001000+00002192+00000+0001T   00002192+0000001352          1400 J67112               1AZ
108229003108229077-000309-A   108229006003000671007GIFT-BAG HOLOGRAM JMB  0000001000+00002192+00000+0001T   00002192+0000001352          1400 J67112               1AZ
108229004108229368-000049     108229006003000536955PLUSH BEAR 15cm LOVE   0000001000+00004385+00000+0001T   00004385+0000001352          1400 J67745               1AZ
108230000108230               108230               170213PD     1400+00000+PD0000001313+0000001313+000000000+000000185+0000001490+0000000008+I20000000000+0000001490+Z
108230001108230077-000151     108230006008766114676GIFT-WRAP C/PHANE ASSTD0000001000+00000876+00000+0001T   00000876+0000001421          1400 J67112               1AZ
108230002108230080-000133-A   108230006003000647019MINI VALENTINES CARD   0000001000+00000437+00000+0001T   00000437+0000001421          1400 J67112               1AZ
108231000108231               108231               170213PD     1400+00000+PD0000002630+0000002630+000000000+000000369+0000002990+0000000009+I20000000000+0000002990+Z
108231001108231016-006425     108231006001023998170S/JAR GLS CLIP W/RIBBON0000001000+00002630+00000+0001T   00002630+0000001423          1400 J67300               1AZ
108232000108232               108232               170213PD     1400+00000+PD0000010525+0000010525+000000000+000001474+0000011990+0000000009+I20000000000+0000011990+Z
108232001108232464-000300     108232006003000298297GAME BALL 34x21x6cm    0000001000+00010525+00000+0001T   00010525+0000001452          1400 J67785               1AZ
108233000108233               108233               170213PD     1400+00000+PD0000014082+0000014082+000000000+000001972+0000016054+0000000000+I40000016054+0000000000+Z
108233001108233365-005262     108233006003000012558P/SET PL CASTLE,HORSE  0000001000+00014034+00000+0001T   00014034+0000001530          1400 J67725               1AZ
108233002108233112-116069     108233006009681820277TCS CARRIER BAG JUMBO  0000001000+00000048+00000+0001T   00000048+0000001530          1400 J67090               1AZ
108234000108234               108234               170213PD     1400+00000+PD0000007049+0000007049+000000000+000000987+0000008036+0000000000+I40000008036+0000000000+Z
108234001108234018-005009     108234006001023725608MUG W/PLUSH-BEAR LOVE  0000002000+00003507+00000+0001T   00003507+0000001552          1400 J67515               1AZ
108234002108234112-116038     108234006009681820246TCS CARRIER BAG MIDI   0000001000+00000035+00000+0001T   00000035+0000001552          1400 J67090               1AZ
108235000108235               108235               170213PD     1400+00000+PD0000003770+0000003770+000000000+000000528+0000004290+0000000008+I20000000000+0000004290+Z
108235001108235018-000170     108235006001023775528MUG OCC. LOVE 2PC MINI 0000001000+00002192+00000+0001T   00002192+0000001557          1400 J67515               1AZ
108235002108235903-002901     108235005996071650655QUICK MILK 5 S/BERRY   0000001000+00001578+00000+0001T   00001578+0000001557          1400 J67150               1AZ
108236000108236               108236               170213PD     1400+00000+PD0000004382+0000004382+000000000+000000615+0000004990+0000000007+I20000000000+0000004990+Z
108236001108236077-000011-D   108236006001023808554TISSUE-WRAP WHITE 10PCE0000001000+00000876+00000+0001T   00000876+0000001604          1400 J67112               1AZ
108236002108236077-000382     108236006003000247820GIFT-BAG MED 18X23CM   0000002000+00001753+00000+0001T   00001753+0000001604          1400 J67112               1AZ
108237000108237               108237               170213PD     1400+00000+PD0000001753+0000001753+000000000+000000246+0000001999+0000000000+I40000001999+0000000000+Z
108237001108237077-000290     108237006001023902023GIFT BOX 26x32x13cm    0000001000+00001753+00000+0001T   00001753+0000001606          1400 J67112               1AZ
108238000108238               108238               170213PD     1400+00000+PD0000006487+0000006487+000000000+000000909+0000007390+0000000006+I20000000000+0000007390+Z
108238001108238018-000136     108238006001023659026MUG OCC LOVE W/PLUSH   0000001000+00003507+00000+0001T   00003507+0000001614          1400 J67515               1AZ
108238002108238077-000303     108238006001023593757GIFT-BAG PAPER MED     0000001000+00001578+00000+0001T   00001578+0000001614          1400 J67112               1AZ
108238003108238304-001204     108238006001023737984FLOWER OCC. TEDDY/ROSES0000001000+00001402+00000+0001T   00001490+0006471614          1400 J67510               1AZ
108239000108239               108239               170213PD     1400+00000+PD0000004385+0000004385+000000000+000000614+0000004990+0000000009+I20000000000+0000004990+Z
108239001108239368-000001     108239006003000097982Plush Bear 25cm        0000001000+00004385+00000+0001T   00004385+0000001615          1400 J67745               1AZ
108240000108240               108240               170213PD     1400+00000+PD0000000876+0000000876+000000000+000000123+0000000990+0000000009+I20000000000+0000000990+Z
108240001108240071-003003     108240006003000144525PEN BALL PEN 3PCE BLACK0000001000+00000876+00000+0001T   00000876+0000001618          1400 J67130               1AZ
108241000108241               108241               170213PD     1400+00000+PD0000004326+0000004326+000000000+000000608+0000004930+0000000004+I20000000000+0000004930+Z
108241001108241078-000025     108241008887013700064SUPERGLUE 3g 1PCE CARD 0000001000+00000876+00000+0001T   00000876+0000001651          1400 J67810               1AZ
108241002108241112-116038     108241006009681820246TCS CARRIER BAG MIDI   0000001000+00000035+00000+0001T   00000035+0000001651          1400 J67090               1AZ
108241003108241903-000155     108241006009803374435SWT LOLLY I LUV U HEART0000001000+00000525+00000+0001T   00000525+0000001651          1400 J67150               1AZ
108241004108241903-000194     108241006009826020616SWT CHOC RP LOLLY 25G  0000001000+00001314+00000+0001T   00001314+0000001651          1400 J67150               1AZ
108241005108241903-000200     108241006009826020234SWT CHOC RP CHOCO 23G  0000002000+00000788+00000+0001T   00000788+0000001651          1400 J67150               1AZ
108242000108242               108242               170213PD     1400+00000+PD0000009545+0000009545+000000000+000001342+0000010887+0000000000+I40000010887+0000000000+Z
108242001108242903-000123     108242006925925909280SWEET GS MINI MALLOWS  0000001000+00000876+00000+0001T   00000876+0000001655          1400 J67150               1AZ
108242002108242903-000297     108242006001704002950SWT MS WILD BERRY 50G  0000001000+00000876+00000+0001T   00000876+0000001655          1400 J67150               1AZ
108242003108242903-000087     108242006001704000161SWT SPECKLED-EGGS 50G  0000001000+00001139+00000+0001T   00001139+0000001655          1400 J67150               1AZ
108242004108242903-000844     108242005010478432567SWT CANDY DL LUV HEARTS0000001000+00001314+00000+0001T   00001314+0000001655          1400 J67150               1AZ
108242005108242903-002851     108242000000087108538MENTOS ROLL STRAWBERRY 0000001000+00001051+00000+0001T   00001051+0000001655          1400 J67150               1AZ
108242006108242903-000844     108242005010478432567SWT CANDY DL LUV HEARTS0000001000+00001314+00000+0001T   00001314+0000001655          1400 J67150               1AZ
108242007108242903-000094     108242006923431501622SWT GS CANDY NECKLACE  0000001000+00000437+00000+0001T   00000437+0000001655          1400 J67150               1AZ
108242008108242903-002851     108242000000087108538MENTOS ROLL STRAWBERRY 0000001000+00001051+00000+0001T   00001051+0000001655          1400 J67150               1AZ
108242009108242903-000094     108242006923431501622SWT GS CANDY NECKLACE  0000001000+00000437+00000+0001T   00000437+0000001655          1400 J67150               1AZ
108242010108242903-000155     108242006009803374435SWT LOLLY I LUV U HEART0000002000+00000525+00000+0001T   00000525+0000001655          1400 J67150               1AZ
108243000108243               108243               170213PD     1400+00000+PD0000007136+0000007136+000000000+000001000+0000008130+0000000006+I20000000000+0000008130+Z
108243001108243018-019000     108243006003000557288MUG OCC. LOVE JUMBO    0000001000+00005262+00000+0001T   00005262+0000001657          1400 J67515               1AZ
108243002108243903-000194     108243006009826020616SWT CHOC RP LOLLY 25G  0000001000+00001314+00000+0001T   00001314+0000001657          1400 J67150               1AZ
108243003108243903-000155     108243006009803374435SWT LOLLY I LUV U HEART0000001000+00000525+00000+0001T   00000525+0000001657          1400 J67150               1AZ
108243004108243112-116038     108243006009681820246TCS CARRIER BAG MIDI   0000001000+00000035+00000+0001T   00000035+0000001657          1400 J67090               1AZ
108244000108244               108244               170213PD     1400+00000+PD0000003942+0000003942+000000000+000000553+0000004490+0000000005+I20000000000+0000004490+Z
108244001108244077-000303     108244006001023593757GIFT-BAG PAPER MED     0000001000+00001578+00000+0001T   00001578+0000001713          1400 J67112               1AZ
108244002108244903-000194     108244006009826020616SWT CHOC RP LOLLY 25G  0000001000+00001314+00000+0001T   00001314+0000001713          1400 J67150               1AZ
108244003108244903-000155     108244006009803374435SWT LOLLY I LUV U HEART0000002000+00000525+00000+0001T   00000525+0000001713          1400 J67150               1AZ
108245000108245               108245               170213PD     1400+00000+PD0000007395+0000007395+000000000+000001038+0000008430+0000000003+I20000000000+0000008430+Z
108245001108245018-000129     108245006001023403353MUG OCC. LOVE V-SHAPE  0000001000+00002630+00000+0001T   00002630+0000001740          1400 J67515               1AZ
108245002108245039-000026     108245006001023551610C/TAPERED 25CM M/RED   0000002000+00001051+00000+0001T   00001051+0000001740          1400 J67510               1AZ
108245003108245903-000194     108245006009826020616SWT CHOC RP LOLLY 25G  0000002000+00001314+00000+0001T   00001314+0000001740          1400 J67150               1AZ
108245004108245112-116038     108245006009681820246TCS CARRIER BAG MIDI   0000001000+00000035+00000+0001T   00000035+0000001740          1400 J67090               1AZ
108246000108246               108246               170213PD     1400+00000+PD0000003507+0000003507+000000000+000000491+0000003990+0000000008+I20000000000+0000003990+Z
108246001108246031-000002     108246006001023851338FRAME FRIENDS 7.5x7.5cm0000001000+00003507+00000+0001T   00003507+0000001742          1400 J67510               1AZ
A17021300                                          11503665PDSLAVE 1                       J671IC
A17021301                                          14443254PDSLAVE 1                       J671IC
M17021391                              CASH        PDSLAVE 1                       Z-REPORT No.   618TOTAL (Sales - Refunds)           3200.48       CASH TO BE BANKED                 1426.60       DEBIT CARDS                          0.00       CREDIT CARDS                      1773.88       Z-READING                         3200.48       AIRTIME DEBIT CARD SALES             0.00       AIRTIME CARD SALES                   0.00       OVERS/UNDERS                         0.00       AIRTIME CASH SALES                   0.00       GIFT CARDS                           0.00       GIFT CARD CASH SALES                 0.00       T O T A L  CASH PAYOUTS              0.00                                                                                                                                                                                                                                                                                                                                                      Z
M17021392                              CASH        PDABSENT                                                                                                                                                                                          ANNUAL LEAVE                                                                                                                                                                                    DAY OFF                                                                                                                                                                                         COMMENTS          40C SHORT                                                                                                                                                                                                                                                                                                                                                                    Z
Y17021300                                          PD00000000280883+000042
ZPD17021321143 SLAVE 1      SALES DATA                     NEXT INVOICE NO.  108247 0618
F094442108-005005         1701250955310000052ICSLAVE 1
X PD Slave 1 First invoice 108205 170213 Last invoice 108246 170213 Next invoice 108247 Total number of records 000000159 clbackup completed 21:14:08
