202988000202988               202988               170213PD     1400+00000+PD0000012309+0000012309+000000000+000001724+0000014033+0000000000+I40000014033+0000000000+Z
202988001202988006-000190     202988006003000685530BALLOONS LOVE 81x91cm  0000002000+00004385+00000+0001T   00004385+0000000931          1400 J94131               2AZ
202988002202988006-000166-D   202988006003000516490BALLOONS LRG 6PC RED   0000001000+00001314+00000+0001T   00001314+0000000931          1400 J94131               2AZ
202988003202988006-000167-F   202988006003000517411BALLOONS SILV METALLIC 0000001000+00001314+00000+0001T   00001314+0000000931          1400 J94131               2AZ
202988004202988077-000011-D   202988006001023808554TISSUE-WRAP WHITE 10PCE0000001000+00000876+00000+0001T   00000876+0000000931          1400 J94112               2AZ
202988005202988112-116038     202988006009681820246TCS CARRIER BAG MIDI   0000001000+00000035+00000+0001T   00000035+0000000931          1400 J94090               2AZ
202989000202989               202989               170213PD     1400+00000+PD0000000876+0000000876+000000000+000000123+0000000990+0000000009+I20000000000+0000000990+Z
202989001202989252-000013     202989006001023488107CURTN-HOOK R6 ACETYLx500000001000+00000876+00000+0001T   00000876+0000000950          1400 J94810               2AZ
202990000202990               202990               170213PD     1400+00000+PD0000004767+0000004767+000000000+000000668+0000005430+0000000005+I20000000000+0000005430+Z
202990001202990071-001019     202990006001023474513MARKER BLACK NAME-PEN  0000001000+00000876+00000+0001T   00000876+0000000955          1400 J94130               2AZ
202990002202990174-008032     202990006009654960603TRAVEL BOTTLES 50ml    0000002000+00001928+00000+0001T   00001928+0000000955          1400 J94205               2AZ
202990003202990112-116038     202990006009681820246TCS CARRIER BAG MIDI   0000001000+00000035+00000+0001T   00000035+0000000955          1400 J94090               2AZ
202991000202991               202991               170213PD     1400+00000+PD0000005698+0000005698+000000000+000000799+0000006497+0000000000+I40000006497+0000000000+Z
202991001202991200-003024     202991006001023657299REFUSE BAGS 20PCE BLACK0000001000+00001753+00000+0001T   00001753+0000001059          1400 J94214               2AZ
202991002202991051-002400     202991006001023616180TRIGGER-SPRAYER 900ml  0000001000+00002192+00000+0001T   00002192+0000001059          1400 J94820               2AZ
202991003202991019-071598     202991006001023693228PEBBLES GLS 250g WHITE 0000001000+00001753+00000+0001T   00001753+0000001059          1400 J94510               2AZ
202992000202992               202992               170213PD     1400+00000+PD0000004380+0000004380+000000000+000000615+0000004995+0000000000+I40000004995+0000000000+Z
202992001202992047-001333     202992006001838000495PLUGTOP CHUBBY         0000004000+00000876+00000+0001T   00000876+0000001111          1400 J94880               2AZ
202992002202992047-000505     202992006009636901976PLUG-ADAPTOR 2-PIN     0000002000+00000876+00000+0001T   00000876+0000001111          1400 J948801IC            2AZ
202992003202992047-001333     202992006001838000495PLUGTOP CHUBBY         0000001000-00000876+00000+0001T   00000876+0000001111          1400 J948801IC            2 Z
202993000202993               202993               170213PD     1400+00000+PD0000017542+0000017542+000000000+000002456+0000019990+0000000008+I20000000000+0000019990+Z
202993001202993072-020244     202993000694202207840PET BED COTTON 90x70cm 0000001000+00017542+00000+0001T   00017542+0000001112          1400 J94870               2AZ
202994000202994               202994               170213PD     1400+00000+PD0000003314+0000003314+000000000+000000467+0000003780+0000000001+I20000000000+0000003780+Z
202994001202994018-000177     202994006001023797513MUG MINI LOVE ASSTD    0000003000+00000700+00000+0001T   00000700+0000001124          1400 J94515               2AZ
202994002202994903-000183     202994006003000451043SWT LB HEART LOLLY     0000003000+00000393+00000+0001T   00000393+0000001124          1400 J94150               2AZ
202994003202994112-116038     202994006009681820246TCS CARRIER BAG MIDI   0000001000+00000035+00000+0001T   00000035+0000001124          1400 J94090               2AZ
202995000202995               202995               170213PD     1400+00000+PD0000017542+0000017542+000000000+000002456+0000019990+0000000008+I20000000000+0000019990+Z
202995001202995072-020244     202995000694202207840PET BED COTTON 90x70cm 0000001000+00017542+00000+0001T   00017542+0000001205          1400 J94870               2AZ
202996000202996               202996               170213PD     1400+00000+PD0000004675+0000004675+000000000+000000659+0000005330+0000000004+I20000000000+0000005330+Z
202996001202996903-000183     202996006003000451043SWT LB HEART LOLLY     0000004000+00000393+00000+0001T   00000393+0000001206          1400 J94150               2AZ
202996002202996071-000312     202996006003000296828RULER DESIGNER 30CM    0000001000+00000876+00000+0001T   00000876+0000001206          1400 J94130               2AZ
202996003202996077-000922     202996006003000413935G/WRAP 700mmx2m FLOWER 0000001000+00002192+00000+0001T   00002192+0000001206          1400 J94112               2AZ
202996004202996112-116038     202996006009681820246TCS CARRIER BAG MIDI   0000001000+00000035+00000+0001T   00000035+0000001206          1400 J94090               2AZ
202997000202997               202997               170213PD     1400+00000+PD0000018635+0000018635+000000000+000002612+0000021240+0000000007+I20000000000+0000021240+Z
202997001202997112-116069     202997006009681820277TCS CARRIER BAG JUMBO  0000001000+00000048+00000+0001T   00000048+0000001218          1400 J94090               2AZ
202997002202997077-000316     202997006001023609731GIFT-BAG 25X32CM MATT  0000001000+00001753+00000+0001T   00001753+0000001218          1400 J94112               2AZ
202997003202997031-086302-C   202997006001023910332P/FRAME COLL. PL 3-HOLE0000001000+00008771+00000+0001T   00008771+0000001218          1400 J94510               2AZ
202997004202997031-000868-C   202997006001023798596P/FRAME PL BLCK 20X25CM0000001000+00003507+00000+0001T   00003507+0000001218          1400 J94510               2AZ
202997005202997563-000318-C   202997006003000403882SERVIETTES 33cm LIME   0000001000+00002192+00000+0001T   00002192+0000001218          1400 J94214               2AZ
202997006202997903-000200     202997006009826020234SWT CHOC RP CHOCO 23G  0000003000+00000788+00000+0001T   00000788+0000001218          1400 J94150               2AZ
202998000202998               202998               170213PD     1400+00000+PD0000002585+0000002585+000000000+000000363+0000002940+0000000008+I20000000000+0000002940+Z
202998001202998206-000245     202998006003000680818BOTTLE CLEANER PLASTIC 0000001000+00002192+00000+0001T   00002192+0000001227          1400 J94321               2AZ
202998002202998903-000183     202998006003000451043SWT LB HEART LOLLY     0000001000+00000393+00000+0001T   00000393+0000001227          1400 J94150               2AZ
202999000202999               202999               170213PD     1400+00000+PD0000005658+0000005658+000000000+000000794+0000006450+0000000002+I20000000000+0000006450+Z
202999001202999077-000303     202999006001023593757GIFT-BAG PAPER MED     0000001000+00001578+00000+0001T   00001578+0000001231          1400 J94112               2AZ
202999002202999018-000129     202999006001023403353MUG OCC. LOVE V-SHAPE  0000001000+00002630+00000+0001T   00002630+0000001231          1400 J94515               2AZ
202999003202999304-001204     202999006001023737984FLOWER OCC. TEDDY/ROSES0000001000+00001402+00000+0001T   00001490+0006471231          1400 J94510               2AZ
202999004202999112-116069     202999006009681820277TCS CARRIER BAG JUMBO  0000001000+00000048+00000+0001T   00000048+0000001231          1400 J94090               2AZ
203000000203000               203000               170213PD     1400+00000+PD0000002192+0000002192+000000000+000000307+0000002490+0000000009+I20000000000+0000002490+Z
203000001203000077-000309-A   203000006003000671007GIFT-BAG HOLOGRAM JMB  0000001000+00002192+00000+0001T   00002192+0000001242          1400 J94112               2AZ
203001000203001               203001               170213PD     1400+00000+PD0000004415+0000004415+000000000+000000620+0000005030+0000000005+I20000000000+0000005030+Z
203001001203001018-000170     203001006001023775528MUG OCC. LOVE 2PC MINI 0000001000+00002192+00000+0001T   00002192+0000001254          1400 J94515               2AZ
203001002203001077-000470     203001006003000330171G-BAG DESGN SML 11X14CM0000001000+00001314+00000+0001T   00001314+0000001254          1400 J94112               2AZ
203001003203001112-116038     203001006009681820246TCS CARRIER BAG MIDI   0000001000+00000035+00000+0001T   00000035+0000001254          1400 J94090               2AZ
203001004203001080-000133-A   203001006003000647019MINI VALENTINES CARD   0000002000+00000437+00000+0001T   00000437+0000001254          1400 J94112               2AZ
203002000203002               203002               170213PD     1400+00000+PD0000003730+0000003730+000000000+000000523+0000004250+0000000003+I20000000000+0000004250+Z
203002001203002077-000299     203002006003000395576G/BAG 32x25cm LRG LOVE 0000001000+00001490+00000+0001T   00001490+0000001422          1400 J94112               2AZ
203002002203002080-000127     203002006003000424351VALENTINES DAY 36x24CM 0000001000+00002192+00000+0001T   00002192+0000001422          1400 J94112               2AZ
203002003203002112-116069     203002006009681820277TCS CARRIER BAG JUMBO  0000001000+00000048+00000+0001T   00000048+0000001422          1400 J94090               2AZ
203003000203003               203003               170213PD     1400+00000+PD0000000700+0000000700+000000000+000000098+0000000790+0000000008+I20000000000+0000000790+Z
203003001203003018-000177     203003006001023797513MUG MINI LOVE ASSTD    0000001000+00000700+00000+0001T   00000700+0000001457          1400 J94515               2AZ
203004000203004               203004               170213PD     1400+00000+PD0000007660+0000007660+000000000+000001074+0000008734+0000000000+I40000008734+0000000000+Z
203004001203004903-000843     203004008693029031067SWT GUMMY JELAXY 80G   0000002000+00000964+00000+0001T   00000964+0000001459          1400 J94150               2AZ
203004002203004466-008889     203004006001023835376WHISTLE SPORTS+STRING  0000001000+00001753+00000+0001T   00001753+0000001459          1400 J94785               2AZ
203004003203004565-000040     203004006008766115635NOVELTY ICON BEANIE    0000001000+00002630+00000+0001T   00002630+0000001459          1400 J94745               2AZ
203004004203004077-000470     203004006003000330171G-BAG DESGN SML 11X14CM0000001000+00001314+00000+0001T   00001314+0000001459          1400 J94112               2AZ
203004005203004112-116038     203004006009681820246TCS CARRIER BAG MIDI   0000001000+00000035+00000+0001T   00000035+0000001459          1400 J94090               2AZ
203005000203005               203005               170213PD     1400+00000+PD0000003191+0000003191+000000000+000000447+0000003638+0000000000+I40000003638+0000000000+Z
203005001203005077-000303     203005006001023593757GIFT-BAG PAPER MED     0000002000+00001578+00000+0001T   00001578+0000001502          1400 J94112               2AZ
203005002203005112-116038     203005006009681820246TCS CARRIER BAG MIDI   0000001000+00000035+00000+0001T   00000035+0000001502          1400 J94090               2AZ
203006000203006               203006               170213PD     1400+00000+PD0000001314+0000001314+000000000+000000184+0000001490+0000000008+I20000000000+0000001490+Z
203006001203006077-000470     203006006003000330171G-BAG DESGN SML 11X14CM0000001000+00001314+00000+0001T   00001314+0000001504          1400 J94112               2AZ
203007000203007               203007               170213PD     1400+00000+PD0000002665+0000002665+000000000+000000374+0000003030+0000000009+I20000000000+0000003030+Z
203007001203007016-006425     203007006001023998170S/JAR GLS CLIP W/RIBBON0000001000+00002630+00000+0001T   00002630+0000001517          1400 J94300               2AZ
203007002203007112-116038     203007006009681820246TCS CARRIER BAG MIDI   0000001000+00000035+00000+0001T   00000035+0000001517          1400 J94090               2AZ
203008000203008               203008               170213PD     1400+00000+PD0000011527+0000011527+000000000+000001617+0000013144+0000000000+I40000013144+0000000000+Z
203008001203008077-000475     203008006003000640775GIFT-BAG DESIGNER MED  0000001000+00002630+00000+0001T   00002630+0000001529          1400 J94112               2AZ
203008002203008077-000299     203008006003000395576G/BAG 32x25cm LRG LOVE 0000001000+00001490+00000+0001T   00001490+0000001529          1400 J94112               2AZ
203008003203008362-003009     203008006003000295647HAIR BAND SET ASSORTED 0000003000+00001753+00000+0001T   00001753+0000001529          1400 J94160               2AZ
203008004203008112-116069     203008006009681820277TCS CARRIER BAG JUMBO  0000001000+00000048+00000+0001T   00000048+0000001529          1400 J94090               2AZ
203008005203008018-000177     203008006001023797513MUG MINI LOVE ASSTD    0000003000+00000700+00000+0001T   00000700+0000001529          1400 J94515               2AZ
203009000203009               203009               170213PD     1400+00000+PD0000009516+0000009516+000000000+000001333+0000010840+0000000009+I20000000000+0000010840+Z
203009001203009018-000127     203009006001023380289MUG OCC STRAIGHT LOVE  0000003000+00001578+00000+0001T   00001753+0006471557          1400 J94515               2AZ
203009002203009077-000303     203009006001023593757GIFT-BAG PAPER MED     0000003000+00001578+00000+0001T   00001578+0000001557          1400 J94112               2AZ
203009003203009112-116069     203009006009681820277TCS CARRIER BAG JUMBO  0000001000+00000048+00000+0001T   00000048+0000001557          1400 J94090               2AZ
203010000203010               203010               170213PD     1400+00000+PD0000002630+0000002630+000000000+000000369+0000002990+0000000009+I20000000000+0000002990+Z
203010001203010159-000684     203010006001023776532BATH BODY-GLOVE 18cm   0000001000+00002630+00000+0001T   00002630+0000001606          1400 J94200               2AZ
203011000203011               203011               170213PD     1400+00000+PD0000044378+0000044378+000000000+000006219+0000050590+0000000007+I20000000000+0000050590+Z
203011001203011112-116069     203011006009681820277TCS CARRIER BAG JUMBO  0000001000+00000048+00000+0001T   00000048+0000001618          1400 J94090               2AZ
203011002203011361-000599     203011006001023837530DOLL CRAWLING 20cm B/O 0000001000+00007893+00000+0001T   00007893+0000001618          1400 J94725               2AZ
203011003203011046-000012     203011006904708013062BATTERIES AA  CARD-OF-40000001000+00001314+00000+0001T   00001314+0000001618          1400 J94312               2AZ
203011004203011079-006525     203011006003000681938MASKING FABRIC 10PC    0000001000+00002630+00000+0001T   00002630+0000001618          1400 J94130               2AZ
203011005203011079-014004     203011006003000080045ART+CRAFT JEWELRY ASSTD0000001000+00003507+00000+0001T   00003507+0000001618          1400 J94130               2AZ
203011006203011263-000503     203011006001023828323TRUCK+TRAILER+SML-TRUCK0000001000+00005262+00000+0001T   00005262+0000001618          1400 J94710               2AZ
203011007203011263-000193     203011006003000299126CAR TRACK PUSH & LOOP  0000001000+00004385+00000+0001T   00004385+0000001618          1400 J94710               2AZ
203011008203011112-116069     203011006009681820277TCS CARRIER BAG JUMBO  0000001000+00000048+00000+0001T   00000048+0000001618          1400 J94090               2AZ
203011009203011369-000813     203011006001023450340P/ALONG ANIMAL PHONE   0000001000+00005262+00000+0001T   00005262+0000001618          1400 J94745               2AZ
203011010203011469-000012     203011006003000303335BUILDING BLOCKS RACERS 0000001000+00002630+00000+0001T   00002630+0000001618          1400 J94755               2AZ
203011011203011469-000026     203011006001023878717B/BLOCKS 80PC CARS ASST0000001000+00007016+00000+0001T   00007016+0000001618          1400 J94755               2AZ
203011012203011361-009105     203011006001023832016DOLLS FEEDING SET 3PC  0000001000+00002630+00000+0001T   00002630+0000001618          1400 J94725               2AZ
203011013203011200-003026     203011006003000276448REFUSE BAGS 10PCE GREEN0000001000+00001753+00000+0001T   00001753+0000001618          1400 J94214               2AZ
203012000203012               203012               170213PD     1400+00000+PD0000002628+0000002628+000000000+000000368+0000002990+0000000006+I20000000000+0000002990+Z
203012001203012006-000166-H   203012006003000608096BALLOONS HELIUM 6PC WHT0000001000+00001314+00000+0001T   00001314+0000001621          1400 J94131               2AZ
203012002203012006-000166-D   203012006003000516490BALLOONS LRG 6PC RED   0000001000+00001314+00000+0001T   00001314+0000001621          1400 J94131               2AZ
203013000203013               203013               170213PD     1400+00000+PD0000008769+0000008769+000000000+000001228+0000009997+0000000000+I40000009997+0000000000+Z
203013001203013080-000127     203013006003000424351VALENTINES DAY 36x24CM 0000002000+00002192+00000+0001T   00002192+0000001650          1400 J94112               2AZ
203013002203013266-000570     203013006001023830944FIGURINE KNIGHT & HORSE0000001000+00004385+00000+0001T   00004385+0000001650          1400 J94710               2AZ
203014000203014               203014               170213PD     1400+00000+PD0000002804+0000002804+000000000+000000394+0000003190+0000000008+I20000000000+0000003190+Z
203014001203014304-001204     203014006001023737984FLOWER OCC. TEDDY/ROSES0000002000+00001402+00000+0001T   00001490+0006471706          1400 J94510               2AZ
203015000203015               203015               170213PD     1400+00000+PD0000000613+0000000613+000000000+000000086+0000000690+0000000009+I20000000000+0000000690+Z
203015001203015304-001011     203015006001023806727FLWR ROSE RED W/BEAR   0000001000+00000613+00000+0001T   00000788+0006471708          1400 J94510               2AZ
203016000203016               203016               170213PD     1400+00000+PD0000003980+0000003980+000000000+000000558+0000004538+0000000000+I40000004538+0000000000+Z
203016001203016304-001207     203016006003000466610FLOWER MINI SUNFLOWER  0000001000+00002192+00000+0001T   00002192+0000001710          1400 J94510               2AZ
203016002203016112-116038     203016006009681820246TCS CARRIER BAG MIDI   0000001000+00000035+00000+0001T   00000035+0000001710          1400 J94090               2AZ
203016003203016304-001512     203016006003000036202FLOWER S/FLOWER 65CM   0000001000+00001753+00000+0001T   00001753+0000001710          1400 J94510               2AZ
203017000203017               203017               170213PD     1400+00000+PD0000002192+0000002192+000000000+000000307+0000002499+0000000000+I40000002499+0000000000+Z
203017001203017563-000318-L   203017006003000407088SERVIETTES 33cm RED    0000001000+00002192+00000+0001T   00002192+0000001716          1400 J94214               2AZ
203018000203018               203018               170213PD     1400+00000+PD0000001578+0000001578+000000000+000000221+0000001790+0000000009+I20000000000+0000001790+Z
203018001203018077-000303     203018006001023593757GIFT-BAG PAPER MED     0000001000+00001578+00000+0001T   00001578+0000001716          1400 J94112               2AZ
203019000203019               203019               170213PD     1400+00000+PD0000003067+0000003067+000000000+000000430+0000003490+0000000007+I20000000000+0000003490+Z
203019001203019077-000310     203019006001023608635GIFT-BAG 18X23CM GLOSS 0000001000+00001314+00000+0001T   00001314+0000001724          1400 J94112               2AZ
203019002203019077-000011-Y   203019006001023809858TISSUE-WRAP GOLD 10PCE 0000001000+00001753+00000+0001T   00001753+0000001724          1400 J94112               2AZ
203020000203020               203020               170213PD     1400+00000+PD0000004385+0000004385+000000000+000000614+0000004999+0000000000+I40000004999+0000000000+Z
203020001203020007-010505     203020006003000670406BLACKBOARD VINYL       0000001000+00004385+00000+0001T   00004385+0000001728          1400 J94130               2AZ
203021000203021               203021               170213PD     1400+00000+PD0000010481+0000010481+000000000+000001469+0000011950+0000000000+I20000000000+0000011950+Z
203021001203021304-001204     203021006001023737984FLOWER OCC. TEDDY/ROSES0000001000+00001402+00000+0001T   00001490+0006471729          1400 J94510               2AZ
203021002203021903-000194     203021006009826020616SWT CHOC RP LOLLY 25G  0000001000+00001314+00000+0001T   00001314+0000001729          1400 J94150               2AZ
203021003203021368-000265     203021006001023750914PLUSH BEAR 23CM ASSTD C0000001000+00006139+00000+0001T   00006139+0000001729          1400 J94745               2AZ
203021004203021077-000303     203021006001023593757GIFT-BAG PAPER MED     0000001000+00001578+00000+0001T   00001578+0000001729          1400 J94112               2AZ
203021005203021112-116069     203021006009681820277TCS CARRIER BAG JUMBO  0000001000+00000048+00000+0001T   00000048+0000001729          1400 J94090               2AZ
203022000203022               203022               170213PD     1400+00000+PD0000008273+0000008273+000000000+000001159+0000009430+0000000002+I20000000000+0000009430+Z
203022001203022077-000303     203022006001023593757GIFT-BAG PAPER MED     0000001000+00001578+00000+0001T   00001578+0000001734          1400 J94112               2AZ
203022002203022018-005009     203022006001023725608MUG W/PLUSH-BEAR LOVE  0000001000+00003507+00000+0001T   00003507+0000001734          1400 J94515               2AZ
203022003203022112-116038     203022006009681820246TCS CARRIER BAG MIDI   0000001000+00000035+00000+0001T   00000035+0000001734          1400 J94090               2AZ
203022004203022903-000155     203022006009803374435SWT LOLLY I LUV U HEART0000001000+00000525+00000+0001T   00000525+0000001734          1400 J94150               2AZ
203022005203022903-000194     203022006009826020616SWT CHOC RP LOLLY 25G  0000002000+00001314+00000+0001T   00001314+0000001734          1400 J94150               2AZ
203023000203023               203023               170213PD     1400+00000+PD0000003507+0000003507+000000000+000000491+0000003998+0000000000+I40000003998+0000000000+Z
203023001203023083-000305     203023006440024423302CIG-LIGHTER-GAS   300ml0000001000+00003507+00000+0001T   00003507+0000001743          1400 J94315               2AZ
203024000203024               203024               170213PD     1400+00000+PD0000004384+0000004384+000000000+000000614+0000004998+0000000000+I40000004998+0000000000+Z
203024001203024080-000127     203024006003000424351VALENTINES DAY 36x24CM 0000002000+00002192+00000+0001T   00002192+0000001746          1400 J94112               2AZ
203025000203025               203025               170213PD     1400+00000+PD0000001227+0000001227+000000000+000000172+0000001390+0000000009+I20000000000+0000001390+Z
203025001203025077-000245     203025006001023759214GIFT-RIBBON METALLICx2 0000001000+00001227+00000+0001T   00001227+0000001747          1400 J94112               2AZ
203026000203026               203026               170213PD     1400+00000+PD0000002192+0000002192+000000000+000000307+0000002490+0000000009+I20000000000+0000002490+Z
203026001203026566-000359     203026006003000582709STICKER BOOK LOVE SPARK0000001000+00002192+00000+0001T   00002192+0000001748          1400 J94130               2AZ
203027000203027               203027               170213PD     1400+00000+PD0000001664+0000001664+000000000+000000234+0000001898+0000000000+I40000001898+0000000000+Z
203027001203027077-000011-D   203027006001023808554TISSUE-WRAP WHITE 10PCE0000001000+00000876+00000+0001T   00000876+0000001756          1400 J94112               2AZ
203027002203027077-000010-C   203027006001023123879CREPE-PAPER RED        0000001000+00000788+00000+0001T   00000788+0000001756          1400 J94112               2AZ
203028000203028               203028               170213PD     1400+00000+PD0000003507+0000003507+000000000+000000491+0000003990+0000000008+I20000000000+0000003990+Z
203028001203028018-005009     203028006001023725608MUG W/PLUSH-BEAR LOVE  0000001000+00003507+00000+0001T   00003507+0000001756          1400 J94515               2AZ
A17021300                                          09282328PDSLAVE 2                       J941IC
A17021301                                          15390956PDSLAVE 2                       J942IC
A17021302                                          15442014PDSLAVE 2                       J941IC
B20299200                                          170213PD047-000505     11095154SLAVE 2     J941IC0000002000+0000001000+0000000000000+
M17021391                              CASH        PDSLAVE 2                       Z-REPORT No.   620TOTAL (Sales - Refunds)           2930.08       CASH TO BE BANKED                 2090.40       DEBIT CARDS                          0.00       CREDIT CARDS                       839.68       Z-READING                         2930.08       AIRTIME DEBIT CARD SALES             0.00       AIRTIME CARD SALES                   0.00       OVERS/UNDERS                         0.00       AIRTIME CASH SALES                   0.00       GIFT CARDS                           0.00       GIFT CARD CASH SALES                 0.00       T O T A L  CASH PAYOUTS              0.00                                                                                                                                                                                                                                                                                                                                                      Z
M17021392                              CASH        PDABSENT                                                                                                                                                                                          ANNUAL LEAVE                                                                                                                                                                                    DAY OFF                                                                                                                                                                                         COMMENTS          R1.00 OVER                                                                                                                                                                                                                                                                                                                                                                   Z
Y17021300                                          PD00000000258026+000041
ZPD17021321143 SLAVE 2      SALES DATA                     NEXT INVOICE NO.  203029 0620
F094442108-005005         1701250955460000052ICSLAVE 2
X PD Slave 2 First invoice 202988 170213 Last invoice 203028 170213 Next invoice 203029 Total number of records 000000158 clbackup completed 21:14:11
