108355000108355               108355               170213PE     1400+00000+PE0000016097+0000016097+000000000+000002255+0000018352+0000000000+I40000018352+0000000000+Z
108355001108355031-000921     108355006001023667755P/FRAME COLLAGE 4-HOLE 0000001000+00003069+00000+0001T   00003069+0000000909          1400 TT6510               1AZ
108355002108355566-001234     108355006003000217793STICKERS LASER ASSTD   0000001000+00001578+00000+0001T   00001578+0000000909          1400 TT6130               1AZ
108355003108355016-006461     108355006003000397273S/JAR-SET GLS 7PC S/SET0000001000+00011402+00000+0001T   00011402+0000000909          1400 TT6300               1AZ
108355004108355112-116069     108355006009681820277TCS CARRIER BAG JUMBO  0000001000+00000048+00000+0001T   00000048+0000000909          1400 TT6090               1AZ
108356000108356               108356               170213PE     1400+00000+PE0000001227+0000001227+000000000+000000172+0000001399+0000000000+I40000001399+0000000000+Z
108356001108356903-000519     108356006001704012805SWT MS LIQ-O-GHETTI    0000001000+00001227+00000+0001T   00001227+0000000919          1400 TT6150               1AZ
108357000108357               108357               170213PE     1400+00000+PE0000001753+0000001753+000000000+000000246+0000001990+0000000009+I20000000000+0000001990+Z
108357001108357133-000032     108357006003000277063KITCHEN SWAB 30X30CM   0000001000+00001753+00000+0001T   00001753+0000000923          1400 TT6212               1AZ
108358000108358               108358               170213PE     1400+00000+PE0000002630+0000002630+000000000+000000369+0000002990+0000000009+I20000000000+0000002990+Z
108358001108358304-001486     108358006003000035335FLWR BUNCH ROSE        0000001000+00002630+00000+0001T   00002630+0000000931          1400 TT6510               1AZ
108359000108359               108359               170213PE     1400+00000+PE0000003104+0000003104+000000000+000000435+0000003530+0000000009+I20000000000+0000003530+Z
108359001108359567-014135     108359006003000560264BOOK COLOURING 240P    0000001000+00003069+00000+0001T   00003507+0008190932          1400 TT6757               1AZ
108359002108359112-116038     108359006009681820246TCS CARRIER BAG MIDI   0000001000+00000035+00000+0001T   00000035+0000000932          1400 TT6090               1AZ
108360000108360               108360               170213PE     1400+00000+PE0000003506+0000003506+000000000+000000492+0000003990+0000000008+I20000000000+0000003990+Z
108360001108360903-000615     108360006003000617456SWT JET PLANE J/B 5G   0000002000+00001753+00000+0001T   00001753+0000001008          1400 TT6150               1AZ
108361000108361               108361               170213PE     1400+00000+PE0000018888+0000018888+000000000+000002647+0000021535+0000000000+I40000021535+0000000000+Z
108361001108361206-000240     108361006003000631940MEASURING CUPS PL STACK0000001000+00007893+00000+0001T   00007893+0000001104          1400 TT6321               1AZ
108361002108361206-000180     108361006003000631223TEA INFUSER TEAMAN     0000001000+00004385+00000+0001T   00004385+0000001104          1400 TT6321               1AZ
108361003108361206-000220     108361006003000631704EGG TIMER COLOUR-CHANGE0000001000+00002630+00000+0001T   00002630+0000001104          1400 TT6321               1AZ
108361004108361016-006506     108361006003000456048S/JAR GLS COLOUR BUBBLE0000001000+00002192+00000+0001T   00002192+0000001104          1400 TT6300               1AZ
108361005108361007-000723     108361006003000226078MEMO BOOK W/PEN 100SHTS0000001000+00001753+00000+0001T   00001753+0000001104          1400 TT6130               1AZ
108361006108361112-116038     108361006009681820246TCS CARRIER BAG MIDI   0000001000+00000035+00000+0001T   00000035+0000001104          1400 TT6090               1AZ
108362000108362               108362               170213PE     1400+00000+PE0000001488+0000001488+000000000+000000209+0000001690+0000000007+I20000000000+0000001690+Z
108362001108362018-000177     108362006001023797513MUG MINI LOVE ASSTD    0000001000+00000700+00000+0001T   00000700+0000001107          1400 TT6515               1AZ
108362002108362903-000200     108362006009826020234SWT CHOC RP CHOCO 23G  0000001000+00000788+00000+0001T   00000788+0000001107          1400 TT6150               1AZ
108363000108363               108363               170213PE     1400+00000+PE0000003537+0000003537+000000000+000000496+0000004030+0000000003+I20000000000+0000004030+Z
108363001108363030-000010     108363006003000084395P/DOOR HANGER 2-ASSTD  0000001000+00001314+00000+0001T   00001490+0008181109          1400 TT6505               1AZ
108363002108363903-000200     108363006009826020234SWT CHOC RP CHOCO 23G  0000001000+00000788+00000+0001T   00000788+0000001109          1400 TT6150               1AZ
108363003108363903-000920     108363000041396002155SWT CANDY STICK/TATT   0000001000+00000700+00000+0001T   00000700+0000001109          1400 TT6150               1AZ
108363004108363018-000177     108363006001023797513MUG MINI LOVE ASSTD    0000001000+00000700+00000+0001T   00000700+0000001109          1400 TT6515               1AZ
108363005108363112-116038     108363006009681820246TCS CARRIER BAG MIDI   0000001000+00000035+00000+0001T   00000035+0000001109          1400 TT6090               1AZ
108364000108364               108364               170213PE     1400+00000+PE0000002630+0000002630+000000000+000000369+0000002999+0000000000+I40000002999+0000000000+Z
108364001108364105-007405     108364006003000629558CONTAINER MINI 300ml   0000001000+00002630+00000+0001T   00003069+0008171117          1400 TT6210               1AZ
108365000108365               108365               170213PE     1400+00000+PE0000010811+0000010811+000000000+000001517+0000012320+0000000008+I20000000000+0000012320+Z
108365001108365368-000040     108365006003000671786PLUSH ICONS 7.5cm      0000002000+00002630+00000+0001T   00002630+0000001118          1400 TT6745               1AZ
108365002108365080-000133     108365006003000535613CARD&ENV MINI ASTD DSGN0000001000+00000437+00000+0001T   00000437+0000001118          1400 TT6112               1AZ
108365003108365077-000311     108365006001023608666GIFT-BAG 11X14CM GLOSS 0000001000+00000613+00000+0001T   00000613+0000001118          1400 TT6112               1AZ
108365004108365077-000321     108365006001023677501GIFT-BAG 11X14CM E/D FL0000001000+00000613+00000+0001T   00000613+0000001118          1400 TT6112               1AZ
108365005108365018-000177     108365006001023797513MUG MINI LOVE ASSTD    0000003000+00000700+00000+0001T   00000700+0000001118          1400 TT6515               1AZ
108365006108365112-116038     108365006009681820246TCS CARRIER BAG MIDI   0000001000+00000035+00000+0001T   00000035+0000001118          1400 TT6090               1AZ
108365007108365903-000610     108365006003000610518SWEET JUMBO BUBBLE GUM 0000001000+00001753+00000+0001T   00001753+0000001118          1400 TT6150               1AZ
108366000108366               108366               170213PE     1400+00000+PE0000008976+0000008976+000000000+000001259+0000010230+0000000005+I20000000000+0000010230+Z
108366001108366142-000815     108366006001023183903GLOVES RUBBER LARGE    0000001000+00001753+00000+0001T   00001753+0000001121          1400 TT6810               1AZ
108366002108366112-116038     108366006009681820246TCS CARRIER BAG MIDI   0000001000+00000035+00000+0001T   00000035+0000001121          1400 TT6090               1AZ
108366003108366089-000028     108366006003000622252K/CHAIN MTL RELIGIOUS  0000001000+00001753+00000+0001T   00001753+0000001121          1400 TT6205               1AZ
108366004108366089-000020     108366006001023562272K/CHAIN MINI SHOE CROC 0000001000+00001578+00000+0001T   00001578+0000001121          1400 TT6205               1AZ
108366005108366071-001362     108366006003000589258HIGHLIGHTER 4 PACK     0000001000+00002630+00000+0001T   00002630+0000001121          1400 TT6130               1AZ
108366006108366071-081091     108366006001151010287STAED/GENKEM ALL-STICK 0000001000+00001227+00000+0001T   00001227+0000001121          1400 TT6130               1AZ
108367000108367               108367               170213PE     1400+00000+PE0000006139+0000006139+000000000+000000860+0000006990+0000000009+I20000000000+0000006990+Z
108367001108367586-094962     108367006001492949628WATCH KIDS RND CHAIN   0000001000+00006139+00000+0001T   00010525+0008161124          1400 TT6160               1AZ
108368000108368               108368               170213PE     1400+00000+PE0000000876+0000000876+000000000+000000123+0000000999+0000000000+I40000000999+0000000000+Z
108368001108368903-000481     108368006001704007481SWT MOO MILK-SHAKES 60G0000001000+00000876+00000+0001T   00000876+0000001130          1400 TT6150               1AZ
108369000108369               108369               170213PE     1400+00000+PE0000003507+0000003507+000000000+000000491+0000003990+0000000008+I20000000000+0000003990+Z
108369001108369031-000002-A   108369006003000247103P/FRAME LOVE 7.5X7.5CM 0000001000+00003507+00000+0001T   00003507+0000001138          1400 TT6510               1AZ
108370000108370               108370               170213PE     1400+00000+PE0000000876+0000000876+000000000+000000123+0000000990+0000000009+I20000000000+0000000990+Z
108370001108370007-000045     108370006009608640438DISPLAY-POCKETS A4 10PC0000001000+00000876+00000+0001T   00000876+0000001144          1400 TT6130               1AZ
108371000108371               108371               170213PE     1400+00000+PE0000004385+0000004385+000000000+000000614+0000004990+0000000009+I20000000000+0000004990+Z
108371001108371562-000212     108371006001023851567PUSH-IN BOARD NUMBERS  0000001000+00004385+00000+0001T   00004385+0000001148          1400 TT6755               1AZ
108372000108372               108372               170213PE     1400+00000+PE0000002192+0000002192+000000000+000000307+0000002490+0000000009+I20000000000+0000002490+Z
108372001108372108-001002     108372006003000503810TUMBLER PL 4PC 400ml   0000001000+00002192+00000+0001T   00002192+0000001155          1400 TT6210               1AZ
108373000108373               108373               170213PE     1400+00000+PE0000001227+0000001227+000000000+000000172+0000001390+0000000009+I20000000000+0000001390+Z
108373001108373077-000245     108373006001023759214GIFT-RIBBON METALLICx2 0000001000+00001227+00000+0001T   00001227+0000001156          1400 TT6112               1AZ
108374000108374               108374               170213PE     1400+00000+PE0000042439+0000042439+000000000+000005945+0000048384+0000000000+I40000048384+0000000000+Z
108374001108374586-012460     108374006001492124605WATCH LDS QUILTED BEIGE0000001000+00011402+00000+0001T   00011402+0000001205          1400 TT6160               1AZ
108374002108374586-012462     108374006001492124629WATCH LDS QUILTED MINT 0000001000+00011402+00000+0001T   00011402+0000001205          1400 TT6160               1AZ
108374003108374586-010754     108374006001492107547WATCH LDS HOT DEAL ASST0000001000+00011402+00000+0001T   00011402+0000001205          1400 TT6160               1AZ
108374004108374077-000321     108374006001023677501GIFT-BAG 11X14CM E/D FL0000001000+00000613+00000+0001T   00000613+0000001205          1400 TT6112               1AZ
108374005108374077-000470     108374006003000330171G-BAG DESGN SML 11X14CM0000001000+00001314+00000+0001T   00001314+0000001205          1400 TT6112               1AZ
108374006108374077-000314     108374006003000181148GIFT-BAG 11X14CM MATT  0000001000+00000876+00000+0001T   00000876+0000001205          1400 TT6112               1AZ
108374007108374077-000270     108374006003000395453GIFT-BAG PPR JMB 33X45 0000001000+00002630+00000+0001T   00002630+0000001205          1400 TT6112               1AZ
108374008108374018-000177     108374006001023797513MUG MINI LOVE ASSTD    0000004000+00000700+00000+0001T   00000700+0000001205          1400 TT6515               1AZ
108375000108375               108375               170213PE     1400+00000+PE0000010813+0000010813+000000000+000001516+0000012329+0000000000+I40000012329+0000000000+Z
108375001108375112-116038     108375006009681820246TCS CARRIER BAG MIDI   0000001000+00000035+00000+0001T   00000035+0000001208          1400 TT6090               1AZ
108375002108375077-000311     108375006001023608666GIFT-BAG 11X14CM GLOSS 0000002000+00000613+00000+0001T   00000613+0000001208          1400 TT6112               1AZ
108375003108375565-000052     108375006003000615551NOVELTY PUTTY FARTS    0000003000+00001578+00000+0001T   00001578+0000001208          1400 TT6745               1AZ
108375004108375565-000044     108375006003000128280BARREL OF SLIME 100g   0000002000+00000613+00000+0001T   00000613+0000001208          1400 TT6745               1AZ
108375005108375565-000071     108375006003000643387NOVELTY WIND UP CHATTER0000002000+00001139+00000+0001T   00001139+0000001208          1400 TT6745               1AZ
108375006108375903-000923     108375008714786126428SWT TURTLE DUO SPRAY   0000001000+00001314+00000+0001T   00001753+0008191208          1400 TT6150               1AZ
108376000108376               108376               170213PE     1400+00000+PE0000015788+0000015788+000000000+000002211+0000017990+0000000009+I20000000000+0000017990+Z
108376001108376031-001004     108376006003000334643P/FRAME CERTIFICATE 4PC0000001000+00015788+00000+0001T   00015788+0000001411          1400 TT6510               1AZ
108377000108377               108377               170213PE     1400+00000+PE0000028549+0000028549+000000000+000003999+0000032548+0000000000+I40000032548+0000000000+Z
108377001108377112-116069     108377006009681820277TCS CARRIER BAG JUMBO  0000001000+00000048+00000+0001T   00000048+0000001419          1400 TT6090               1AZ
108377002108377586-096128     108377006001492961286WATCH LDS MTL GOLD     0000001000+00011402+00000+0001T   00011402+0000001419          1400 TT6160               1AZ
108377003108377080-000127     108377006003000424351VALENTINES DAY 36x24CM 0000001000+00002192+00000+0001T   00002192+0000001419          1400 TT6112               1AZ
108377004108377301-085007     108377006003000673698ORN OCC. LOVE S/PLAQUE 0000001000+00007893+00000+0001T   00007893+0000001419          1400 TT6505               1AZ
108377005108377031-000002-A   108377006003000247103P/FRAME LOVE 7.5X7.5CM 0000001000+00003507+00000+0001T   00003507+0000001419          1400 TT6510               1AZ
108377006108377566-000326     108377006003000639328ROOM DECOR 3D ASSTD    0000001000+00003507+00000+0001T   00003507+0000001419          1400 TT6130               1AZ
108378000108378               108378               170213PE     1400+00000+PE0000002630+0000002630+000000000+000000369+0000002990+0000000009+I20000000000+0000002990+Z
108378001108378566-000006     108378006001023671189STICKER-BOOK DRESS-UP  0000001000+00002630+00000+0001T   00002630+0000001429          1400 SN9130               1AZ
108379000108379               108379               170213PE     1400+00000+PE0000003506+0000003506+000000000+000000492+0000003990+0000000008+I20000000000+0000003990+Z
108379001108379089-000019     108379006003000092291K/CHAIN MINI BOOT 13cm 0000002000+00001753+00000+0001T   00001753+0000001438          1400 SN9205               1AZ
108380000108380               108380               170213PE     1400+00000+PE0000029941+0000029941+000000000+000004198+0000034139+0000000000+I40000034139+0000000000+Z
108380001108380079-009702-B   108380008427973059491PAPER SIRIO A2 WHITE   0000001000+00001051+00000+0001T   00001051+0000001444          1400 SN9130               1AZ
108380002108380079-009702-D   108380008427973059354PAPER SIRIO A2 RED COL 0000002000+00001051+00000+0001T   00001051+0000001444          1400 SN9130               1AZ
108380003108380112-116069     108380006009681820277TCS CARRIER BAG JUMBO  0000001000+00000048+00000+0001T   00000048+0000001444          1400 SN9090               1AZ
108380004108380368-000614     108380006001023705808PLUSH LOVE 30cm        0000001000+00008771+00000+0001T   00008771+0000001444          1400 SN9745               1AZ
108380005108380565-000343     108380006003000648856NOVELTY GLOW MOUTHPIECE0000001000+00002630+00000+0001T   00002630+0000001444          1400 SN9745               1AZ
108380006108380080-000139     108380006003000611690CARD & ENV MINI SET 6PC0000001000+00002192+00000+0001T   00002192+0000001444          1400 SN9112               1AZ
108380007108380006-000166-D   108380006003000516490BALLOONS LRG 6PC RED   0000002000+00001314+00000+0001T   00001314+0000001444          1400 SN9131               1AZ
108380008108380566-001234     108380006003000217793STICKERS LASER ASSTD   0000001000+00001578+00000+0001T   00001578+0000001444          1400 SN9130               1AZ
108380009108380566-000359     108380006003000582709STICKER BOOK LOVE SPARK0000001000+00002192+00000+0001T   00002192+0000001444          1400 SN9130               1AZ
108380010108380006-000093     108380006003000539932PARTY BANNER FLAGS ASST0000001000+00001753+00000+0001T   00001753+0000001444          1400 SN9131               1AZ
108380011108380903-000619     108380006003000672455SWT LOLLY STR/BRRY 140G0000002000+00001753+00000+0001T   00001753+0000001444          1400 SN9150               1AZ
108380012108380039-000108     108380006001023524034TEA-LITE CANDLES 8PCE  0000001000+00001490+00000+0001T   00001490+0000001444          1400 SN9510               1AZ
108381000108381               108381               170213PE     1400+00000+PE0000010818+0000010818+000000000+000001516+0000012334+0000000000+I40000012334+0000000000+Z
108381001108381112-116038     108381006009681820246TCS CARRIER BAG MIDI   0000001000+00000035+00000+0001T   00000035+0000001446          1400 TT6090               1AZ
108381002108381204-000019     108381006003000677474MEMO HOLDERS THERMOMETE0000002000+00000876+00000+0001T   00000876+0000001446          1400 TT6300               1AZ
108381003108381030-000010     108381006003000084395P/DOOR HANGER 2-ASSTD  0000001000+00001314+00000+0001T   00001490+0008181446          1400 TT6505               1AZ
108381004108381566-001234     108381006003000217793STICKERS LASER ASSTD   0000001000+00001578+00000+0001T   00001578+0000001446          1400 TT6130               1AZ
108381005108381567-010163     108381006003000485208BOOK TOP ASSTD CHILDREN0000001000+00006139+00000+0001T   00006139+0000001446          1400 TT6757               1AZ
108382000108382               108382               170213PE     1400+00000+PE0000003506+0000003506+000000000+000000492+0000003998+0000000000+I40000003998+0000000000+Z
108382001108382306-000021-C   108382006003000567294EARBUDS 300PCE IN TUB  0000001000+00001753+00000+0001T   00001753+0000001522          1400 TT6200               1AZ
108382002108382034-078800     108382006001023856555COOEY WET-WIPES 60PCE  0000001000+00001753+00000+0001T   00001753+0000001522          1400 TT6215               1AZ
108383000108383               108383               170213PE     1400+00000+PE0000004329+0000004329+000000000+000000607+0000004930+0000000006+I20000000000+0000004930+Z
108383001108383304-001204     108383006001023737984FLOWER OCC. TEDDY/ROSES0000001000+00001402+00000+0001T   00001490+0006471523          1400 TT6510               1AZ
108383002108383030-000010     108383006003000084395P/DOOR HANGER 2-ASSTD  0000001000+00001314+00000+0001T   00001490+0008181523          1400 TT6505               1AZ
108383003108383077-000303     108383006001023593757GIFT-BAG PAPER MED     0000001000+00001578+00000+0001T   00001578+0000001523          1400 TT6112               1AZ
108383004108383112-116038     108383006009681820246TCS CARRIER BAG MIDI   0000001000+00000035+00000+0001T   00000035+0000001523          1400 TT6090               1AZ
108384000108384               108384               170213PE     1400+00000+PE0000005169+0000005169+000000000+000000724+0000000000+0000000000+ 00000000000+0000000000+Z
108384001108384077-000245     108384006001023759214GIFT-RIBBON METALLICx2 0000001000+00001227+00000+0001T   00001227+000000              1400 TT61121IC            1 Z
108384002108384006-000166-D   108384006003000516490BALLOONS LRG 6PC RED   0000001000+00001314+00000+0001T   00001314+000000              1400 TT61311IC            1 Z
108384003108384006-000167-D   108384006003000517091BALLOONS PRPLE METALLIC0000001000+00001314+00000+0001T   00001314+000000              1400 TT61311IC            1 Z
108384004108384006-000166-D   108384006003000516490BALLOONS LRG 6PC RED   0000001000+00001314+00000+0001T   00001314+000000              1400 TT61311IC            1 Z
108385000108385               108385               170213PE     1400+00000+PE0000003855+0000003855+000000000+000000540+0000004390+0000000005+I20000000000+0000004390+Z
108385001108385077-000245     108385006001023759214GIFT-RIBBON METALLICx2 0000001000+00001227+00000+0001T   00001227+0000001524          1400 TT6112               1AZ
108385002108385006-000167-D   108385006003000517091BALLOONS PRPLE METALLIC0000001000+00001314+00000+0001T   00001314+0000001524          1400 TT6131               1AZ
108385003108385006-000166-D   108385006003000516490BALLOONS LRG 6PC RED   0000001000+00001314+00000+0001T   00001314+0000001524          1400 TT6131               1AZ
108386000108386               108386               170213PE     1400+00000+PE0000008771+0000008771+000000000+000001228+0000009990+0000000009+I20000000000+0000009990+Z
108386001108386368-000012     108386006003000610464PLUSH BEAR 30cm SITTING0000001000+00008771+00000+0001T   00008771+0000001530          1400 TT6745               1AZ
108387000108387               108387               170213PE     1400+00000+PE0000001613+0000001613+000000000+000000226+0000001830+0000000009+I20000000000+0000001830+Z
108387001108387077-000303     108387006001023593757GIFT-BAG PAPER MED     0000001000+00001578+00000+0001T   00001578+0000001532          1400 TT6112               1AZ
108387002108387112-116038     108387006003000534906TCS CARRIER BAG MIDI   0000001000+00000035+00000+0001T   00000035+0000001532          1400 TT6090               1AZ
108388000108388               108388               170213PE     1400+00000+PE0000003507+0000003507+000000000+000000491+0000003990+0000000008+I20000000000+0000003990+Z
108388001108388018-005009     108388006001023725608MUG W/PLUSH-BEAR LOVE  0000001000+00003507+00000+0001T   00003507+0000001540          1400 TT6515               1AZ
108389000108389               108389               170213PE     1400+00000+PE0000001927+0000001927+000000000+000000270+0000002190+0000000007+I20000000000+0000002190+Z
108389001108389018-000177     108389006001023797513MUG MINI LOVE ASSTD    0000001000+00000700+00000+0001T   00000700+0000001541          1400 TT6515               1AZ
108389002108389903-000111     108389006001704006378SWT LIQUORICE-TWISTS   0000001000+00001227+00000+0001T   00001227+0000001541          1400 TT6150               1AZ
108390000108390               108390               170213PE     1400+00000+PE0000005731+0000005731+000000000+000000805+0000006536+0000000000+I40000006536+0000000000+Z
108390001108390089-060027     108390006003000245871KEY-CHAIN HEART 6X6cm  0000001000+00003069+00000+0001T   00003069+0000001548          1400 TT6205               1AZ
108390002108390033-001305     108390006003000667314HAIR PINS 4PC SNAP CLIP0000002000+00000788+00000+0001T   00000788+0000001548          1400 TT6200               1AZ
108390003108390033-000124     108390006009654960597COMBS HANDLE + TAIL 2PC0000001000+00001051+00000+0001T   00001051+0000001548          1400 TT6200               1AZ
108390004108390112-116038     108390006009681820246TCS CARRIER BAG MIDI   0000001000+00000035+00000+0001T   00000035+0000001548          1400 TT6090               1AZ
108391000108391               108391               170213PE     1400+00000+PE0000004417+0000004417+000000000+000000619+0000005030+0000000006+I20000000000+0000005030+Z
108391001108391039-000108     108391006001023524034TEA-LITE CANDLES 8PCE  0000001000+00001490+00000+0001T   00001490+0000001550          1400 TT6510               1AZ
108391002108391088-000103     108391006008766127102INCENSE 20PCE ASSTD    0000001000+00000700+00000+0001T   00000700+0000001550          1400 TT6212               1AZ
108391003108391301-085000     108391006003000674299 ORN OCC. LOVE HEARTS  0000001000+00002192+00000+0001T   00002192+0000001550          1400 TT6505               1AZ
108391004108391112-116038     108391006009681820246TCS CARRIER BAG MIDI   0000001000+00000035+00000+0001T   00000035+0000001550          1400 TT6090               1AZ
108392000108392               108392               170213PE     1400+00000+PE0000000035+0000000035+000000000+000000005+0000000040+0000000000+I20000000000+0000000040+Z
108392001108392112-116038     108392006009681820246TCS CARRIER BAG MIDI   0000001000+00000035+00000+0001T   00000035+0000001551          1400 TT6090               1AZ
108393000108393               108393               170213PE     1400+00000+PE0000005997+0000005997+000000000+000000840+0000006837+0000000000+I40000006837+0000000000+Z
108393001108393361-000113     108393006001023680204DOLL 30cm RAG          0000001000+00005262+00000+0001T   00005262+0000001557          1400 TT6725               1AZ
108393002108393018-000177     108393006001023797513MUG MINI LOVE ASSTD    0000001000+00000700+00000+0001T   00000700+0000001557          1400 TT6515               1AZ
108393003108393112-116038     108393006009681820246TCS CARRIER BAG MIDI   0000001000+00000035+00000+0001T   00000035+0000001557          1400 TT6090               1AZ
108394000108394               108394               170213PE     1400+00000+PE0000002630+0000002630+000000000+000000369+0000002990+0000000009+I20000000000+0000002990+Z
108394001108394006-000111     108394006003000519385BALLOONS LARGE 12PCE   0000001000+00002630+00000+0001T   00002630+0000001620          1400 TT6131               1AZ
108395000108395               108395               170213PE     1400+00000+PE0000001314+0000001314+000000000+000000184+0000001490+0000000008+I20000000000+0000001490+Z
108395001108395903-005002     108395006002580020021SWT MALLOW SNAKE 120g  0000001000+00001314+00000+0001T   00001314+0000001622          1400 TT6150               1AZ
108396000108396               108396               170213PE     1400+00000+PE0000011402+0000011402+000000000+000001597+0000012990+0000000009+I20000000000+0000012990+Z
108396001108396263-000800     108396006003000332281TRUCK PL CONSTRUCTION  0000001000+00011402+00000+0001T   00011402+0000001640          1400 TT6710               1AZ
108397000108397               108397               170213PE     1400+00000+PE0000015788+0000015788+000000000+000002211+0000017990+0000000009+I20000000000+0000017990+Z
108397001108397490-049602     108397000078257496020FUN-BALLS 100PCE 6.5CM 0000001000+00015788+00000+0001T   00015788+0000001641          1400 TT6787               1AZ
108398000108398               108398               170213PE     1400+00000+PE0000002630+0000002630+000000000+000000369+0000002990+0000000009+I20000000000+0000002990+Z
108398001108398106-001109     108398006003000666355W/BOTTLE 650ml         0000001000+00002630+00000+0001T   00002630+0000001646          1400 TT6210               1AZ
108399000108399               108399               170213PE     1400+00000+PE0000005699+0000005699+000000000+000000799+0000006490+0000000008+I20000000000+0000006490+Z
108399001108399267-000300     108399006003000162970PUZZLE BLOCKS ASSTD    0000001000+00002630+00000+0001T   00002630+0000001704          1400 TT6755               1AZ
108399002108399267-000202     108399006003000339808PUZZLE 48pc DINOSAUR   0000001000+00003069+00000+0001T   00003069+0000001704          1400 TT6755               1AZ
108400000108400               108400               170213PE     1400+00000+PE0000002279+0000002279+000000000+000000320+0000002590+0000000009+I20000000000+0000002590+Z
108400001108400027-001020     108400006001246602519BROOM FLOOR W/HANDLE   0000001000+00002279+00000+0001T   00002279+0000001704          1400 TT6212               1AZ
108401000108401               108401               170213PE     1400+00000+PE0000003066+0000003066+000000000+000000430+0000003496+0000000000+I40000003496+0000000000+Z
108401001108401077-000299     108401006003000395576G/BAG 32x25cm LRG LOVE 0000001000+00001490+00000+0001T   00001490+0000001706          1400 TT6112               1AZ
108401002108401077-000011-D   108401006001023808554TISSUE-WRAP WHITE 10PCE0000001000+00000876+00000+0001T   00000876+0000001706          1400 TT6112               1AZ
108401003108401018-000177     108401006001023797513MUG MINI LOVE ASSTD    0000001000+00000700+00000+0001T   00000700+0000001706          1400 TT6515               1AZ
108402000108402               108402               170213PE     1400+00000+PE0000001752+0000001752+000000000+000000246+0000001990+0000000008+I20000000000+0000001990+Z
108402001108402903-000520     108402006001704009898SWT GUMMY MINI SOUR 60g0000001000+00000876+00000+0001T   00000876+0000001707          1400 TT6150               1AZ
108402002108402903-000897     108402008692806325207SWT CHOC DBL MINI ROLL 0000001000+00000876+00000+0001T   00000876+0000001707          1400 TT6150               1AZ
108403000108403               108403               170213PE     1400+00000+PE0000005120+0000005120+000000000+000000717+0000005837+0000000000+I40000005837+0000000000+Z
108403001108403018-005009     108403006001023725608MUG W/PLUSH-BEAR LOVE  0000001000+00003507+00000+0001T   00003507+0000001708          1400 TT6515               1AZ
108403002108403077-000315     108403006003000181186GIFT-BAG 20x28cm MATT  0000001000+00001578+00000+0001T   00001578+0000001708          1400 TT6112               1AZ
108403003108403112-116038     108403006009681820246TCS CARRIER BAG MIDI   0000001000+00000035+00000+0001T   00000035+0000001708          1400 TT6090               1AZ
A17021300                                          15155713PESLAVE 1                       TT61IC
A17021301                                          15171734PESLAVE 1                       TT61IC
A17021302                                          15372813PESLAVE 1                       TT61IC
M17021391                              CASH        PESLAVE 1                       Z-REPORT No.   596TOTAL (Sales - Refunds)           3802.12       CASH TO BE BANKED                 1684.90       DEBIT CARDS                          0.00       CREDIT CARDS                      2117.20       Z-READING                         3802.12       AIRTIME DEBIT CARD SALES             0.00       AIRTIME CARD SALES                   0.00       OVERS/UNDERS                         0.02-      AIRTIME CASH SALES                   0.00       GIFT CARDS                           0.00       GIFT CARD CASH SALES                 0.00       T O T A L  CASH PAYOUTS              0.00                                                                                                                                                                                                                                                                                                                                                      Z
M17021392                              CASH        PEABSENT                                                                                                                                                                                          ANNUAL LEAVE                                                                                                                                                                                    DAY OFF                                                                                                                                                                                         COMMENTS                                                                                                                                                                                                                                                                                                                                                                                       Z
Y17021300                                          PE00000000333701+000048
ZPE17021320173 SLAVE 1      SALES DATA                     NEXT INVOICE NO.  108404 0596
X PE Slave 1 First invoice 108355 170213 Last invoice 108403 170213 Next invoice 108404 Total number of records 000000187 clbackup completed 20:17:51
