300343000300343               300343               170213PE     1400+00000+PE0000003506+0000003506+000000000+000000492+0000003998+           I90000000000+0000000000+Z
300343001300343080-000112     300343006003000252749CARD&ENVLP BDAY-MUSICAL0000002000+00001753+00000+0001T023530000000                    1400 1IC1121ICV             Z
300344000300344               300344               170213PE     1400+00000+PE0000016818+0000016818+000000000+000002364+0000019182+           I90000000000+0000000000+Z
300344001300344071-081101-A   300344006003000326549GLUE-STICK 25g BLISTER 0000012000+00000788+00000+0001T063532530000                    1400 1IC1301ICV             Z
300344002300344251-000041     300344006001023515889SEAL-TAPE BUFF 48mmx50m0000006000+00001227+00000+0001T063532530000                    1400 1IC8101ICV             Z
M17021391                              CASH        PESLAVE 3                       Z-REPORT No.   217TOTAL (Sales - Refunds)              0.00       CASH TO BE BANKED                    0.00       DEBIT CARDS                          0.00       CREDIT CARDS                         0.00       Z-READING                            0.00       AIRTIME DEBIT CARD SALES             0.00       AIRTIME CARD SALES                   0.00       OVERS/UNDERS                         0.00       AIRTIME CASH SALES                   0.00       GIFT CARDS                           0.00       GIFT CARD CASH SALES                 0.00       T O T A L  CASH PAYOUTS              0.00                                                                                                                                                                                                                                                                                                                                                      Z
M17021392                              CASH        PEABSENT                                                                                                                                                                                          ANNUAL LEAVE                                                                                                                                                                                    DAY OFF                                                                                                                                                                                         COMMENTS                                                                                                                                                                                                                                                                                                                                                                                       Z
Y17021300                                          PE00000000000000+000000
ZPE17021320173 SLAVE 3      SALES DATA                     NEXT INVOICE NO.  300345 0217
L55320000353000-001-002       PE1702131151061ICSIBONGILE NXELE                                                                                                                                                                                                                                                                                                                                                                                                                                                                                                                                                                                                                                                                                                                                                                                                                                                                                                                                                                                      Z
L55320000353000-002-002       PE1702131151001ICSIBONGILE NXELE                                                                                                                                                                                                                                                                                                                                                                                                                                                                                                                                                                                                                                                                                                                                                                                                                                                                                                                                                                                      Z
L55605500353246-001-002       PE1702131151261ICSIBONGILE NXELE                                                                                                                                                                                                                                                                                                                                                                                                                                                                                                                                                                                                                                                                                                                                                                                                                                                                                                                                                                                      Z
L55605500353246-002-002       PE1702131151221ICSIBONGILE NXELE                                                                                                                                                                                                                                                                                                                                                                                                                                                                                                                                                                                                                                                                                                                                                                                                                                                                                                                                                                                      Z
L55617800352894-001-001       PE1702131152331ICSIBONGILE NXELE                                                                                                                                                                                                                                                                                                                                                                                                                                                                                                                                                                                                                                                                                                                                                                                                                                                                                                                                                                                      Z
L56224100353253-001-003       PE1702131150391ICSIBONGILE NXELE                                                                                                                                                                                                                                                                                                                                                                                                                                                                                                                                                                                                                                                                                                                                                                                                                                                                                                                                                                                      Z
L56224100353253-002-003       PE1702131153021ICSIBONGILE NXELE                                                                                                                                                                                                                                                                                                                                                                                                                                                                                                                                                                                                                                                                                                                                                                                                                                                                                                                                                                                      Z
L56224100353253-003-003       PE1702131152571ICSIBONGILE NXELE                                                                                                                                                                                                                                                                                                                                                                                                                                                                                                                                                                                                                                                                                                                                                                                                                                                                                                                                                                                      Z
L56225000343290-001-005       PE1702131151381ICSIBONGILE NXELE                                                                                                                                                                                                                                                                                                                                                                                                                                                                                                                                                                                                                                                                                                                                                                                                                                                                                                                                                                                      Z
L56225000343290-002-005       PE1702131151411ICSIBONGILE NXELE                                                                                                                                                                                                                                                                                                                                                                                                                                                                                                                                                                                                                                                                                                                                                                                                                                                                                                                                                                                      Z
L56225000343290-003-005       PE1702131151521ICSIBONGILE NXELE                                                                                                                                                                                                                                                                                                                                                                                                                                                                                                                                                                                                                                                                                                                                                                                                                                                                                                                                                                                      Z
L56225000343290-004-005       PE1702131151481ICSIBONGILE NXELE                                                                                                                                                                                                                                                                                                                                                                                                                                                                                                                                                                                                                                                                                                                                                                                                                                                                                                                                                                                      Z
L56225000343290-005-005       PE1702131151441ICSIBONGILE NXELE                                                                                                                                                                                                                                                                                                                                                                                                                                                                                                                                                                                                                                                                                                                                                                                                                                                                                                                                                                                      Z
L56286500354891-001-002       PE1702131151321ICSIBONGILE NXELE                                                                                                                                                                                                                                                                                                                                                                                                                                                                                                                                                                                                                                                                                                                                                                                                                                                                                                                                                                                      Z
L56286500354891-002-002       PE1702131151281ICSIBONGILE NXELE                                                                                                                                                                                                                                                                                                                                                                                                                                                                                                                                                                                                                                                                                                                                                                                                                                                                                                                                                                                      Z
L56343000353278-001-003       PE1702131152121ICSIBONGILE NXELE                                                                                                                                                                                                                                                                                                                                                                                                                                                                                                                                                                                                                                                                                                                                                                                                                                                                                                                                                                                      Z
L56343000353278-002-003       PE1702131152161ICSIBONGILE NXELE                                                                                                                                                                                                                                                                                                                                                                                                                                                                                                                                                                                                                                                                                                                                                                                                                                                                                                                                                                                      Z
L56343000353278-003-003       PE1702131152091ICSIBONGILE NXELE                                                                                                                                                                                                                                                                                                                                                                                                                                                                                                                                                                                                                                                                                                                                                                                                                                                                                                                                                                                      Z
L56343700354366-001-002       PE1702131150531ICSIBONGILE NXELE                                                                                                                                                                                                                                                                                                                                                                                                                                                                                                                                                                                                                                                                                                                                                                                                                                                                                                                                                                                      Z
L56343700354366-002-002       PE1702131150351ICSIBONGILE NXELE                                                                                                                                                                                                                                                                                                                                                                                                                                                                                                                                                                                                                                                                                                                                                                                                                                                                                                                                                                                      Z
L56966900355418-001-001       PE1702131152221ICSIBONGILE NXELE                                                                                                                                                                                                                                                                                                                                                                                                                                                                                                                                                                                                                                                                                                                                                                                                                                                                                                                                                                                      Z
L57003200355514-001-002       PE1702131150461ICSIBONGILE NXELE                                                                                                                                                                                                                                                                                                                                                                                                                                                                                                                                                                                                                                                                                                                                                                                                                                                                                                                                                                                      Z
L57003200355514-002-002       PE1702131150491ICSIBONGILE NXELE                                                                                                                                                                                                                                                                                                                                                                                                                                                                                                                                                                                                                                                                                                                                                                                                                                                                                                                                                                                      Z
L57006500354020-001-002       PE1702131152531ICSIBONGILE NXELE                                                                                                                                                                                                                                                                                                                                                                                                                                                                                                                                                                                                                                                                                                                                                                                                                                                                                                                                                                                      Z
L57006500354020-002-002       PE1702131151091ICSIBONGILE NXELE                                                                                                                                                                                                                                                                                                                                                                                                                                                                                                                                                                                                                                                                                                                                                                                                                                                                                                                                                                                      Z
L57058500354796-001-001       PE1702131152291ICSIBONGILE NXELE                                                                                                                                                                                                                                                                                                                                                                                                                                                                                                                                                                                                                                                                                                                                                                                                                                                                                                                                                                                      Z
L57523700348974-001-001       PE1702131152441ICSIBONGILE NXELE                                                                                                                                                                                                                                                                                                                                                                                                                                                                                                                                                                                                                                                                                                                                                                                                                                                                                                                                                                                      Z
L57653500358797-001-001       PE1702131152191ICSIBONGILE NXELE                                                                                                                                                                                                                                                                                                                                                                                                                                                                                                                                                                                                                                                                                                                                                                                                                                                                                                                                                                                      Z
L57839000349587-001-003       PE1702131152001ICSIBONGILE NXELE                                                                                                                                                                                                                                                                                                                                                                                                                                                                                                                                                                                                                                                                                                                                                                                                                                                                                                                                                                                      Z
L57839000349587-002-003       PE1702131152031ICSIBONGILE NXELE                                                                                                                                                                                                                                                                                                                                                                                                                                                                                                                                                                                                                                                                                                                                                                                                                                                                                                                                                                                      Z
L57839000349587-003-003       PE1702131152061ICSIBONGILE NXELE                                                                                                                                                                                                                                                                                                                                                                                                                                                                                                                                                                                                                                                                                                                                                                                                                                                                                                                                                                                      Z
L58178200348388-001-001       PE1702131152351ICSIBONGILE NXELE                                                                                                                                                                                                                                                                                                                                                                                                                                                                                                                                                                                                                                                                                                                                                                                                                                                                                                                                                                                      Z
L58216000358238-001-002       PE1702131154121ICSIBONGILE NXELE                                                                                                                                                                                                                                                                                                                                                                                                                                                                                                                                                                                                                                                                                                                                                                                                                                                                                                                                                                                      Z
L58216000358238-002-002       PE1702131151351ICSIBONGILE NXELE                                                                                                                                                                                                                                                                                                                                                                                                                                                                                                                                                                                                                                                                                                                                                                                                                                                                                                                                                                                      Z
L58246400357343-001-001       PE1702131152411ICSIBONGILE NXELE                                                                                                                                                                                                                                                                                                                                                                                                                                                                                                                                                                                                                                                                                                                                                                                                                                                                                                                                                                                      Z
L58257100357591-001-002       PE1702131153301ICSIBONGILE NXELE                                                                                                                                                                                                                                                                                                                                                                                                                                                                                                                                                                                                                                                                                                                                                                                                                                                                                                                                                                                      Z
L58257100357591-002-002       PE1702131150561ICSIBONGILE NXELE                                                                                                                                                                                                                                                                                                                                                                                                                                                                                                                                                                                                                                                                                                                                                                                                                                                                                                                                                                                      Z
L58381800357913-001-001       PE1702131152381ICSIBONGILE NXELE                                                                                                                                                                                                                                                                                                                                                                                                                                                                                                                                                                                                                                                                                                                                                                                                                                                                                                                                                                                      Z
V55320000000913-001-001       PE1702131152381ICSIBO               0000000000000001702130000001ICSLAVE 3     170213120111353000Y              02
V55605500000913-001-001       PE1702131152381ICSIBO               0000000000000001702130000001ICSLAVE 3     170213120322353246N              02
V55617800000913-001-001       PE1702131152381ICSIBO               0000000000000001702130000001ICSLAVE 3     170213120918352894N              01
V56224100000913-001-001       PE1702131152381ICSIBO               0000000000000001702130000001ICSLAVE 3     170213120224353253Y              03
V56225000000913-001-001       PE1702131152381ICSIBO               0000000000000001702130000001ICSLAVE 3     170213120545343290N              05
V56286500000913-001-001       PE1702131152381ICSIBO               0000000000000001702130000001ICSLAVE 3     170213120401354891N              02
V56343000000913-001-001       PE1702131152381ICSIBO               0000000000000001702130000001ICSLAVE 3     170213120657353278N              03
V56343700000913-001-001       PE1702131152381ICSIBO               0000000000000001702130000001ICSLAVE 3     170213115951354366N              02
V56966900000913-001-001       PE1702131152381ICSIBO               0000000000000001702130000001ICSLAVE 3     170213120808355418N              01
V57003200000913-001-001       PE1702131152381ICSIBO               0000000000000001702130000001ICSLAVE 3     170213115755355514N              02
V57006500000913-001-001       PE1702131152381ICSIBO               0000000000000001702130000001ICSLAVE 3     170213120147354020N              02
V57058500000913-001-001       PE1702131152381ICSIBO               0000000000000001702130000001ICSLAVE 3     170213120842354796N              01
V57523700000913-001-001       PE1702131152381ICSIBO               0000000000000001702130000001ICSLAVE 3     170213121021348974N              01
V57653500000913-001-001       PE1702131152381ICSIBO               0000000000000001702130000001ICSLAVE 3     170213120733358797N              01
V57839000000913-001-001       PE1702131152381ICSIBO               0000000000000001702130000001ICSLAVE 3     170213120620349587N              03
V58178200000913-001-001       PE1702131152381ICSIBO               0000000000000001702130000001ICSLAVE 3     170213121056348388N              01
V58216000000913-001-001       PE1702131152381ICSIBO               0000000000000001702130000001ICSLAVE 3     170213120510358238N              02
V58246400000913-001-001       PE1702131152381ICSIBO               0000000000000001702130000001ICSLAVE 3     170213120951357343N              01
V58257100000913-001-001       PE1702131152381ICSIBO               0000000000000001702130000001ICSLAVE 3     170213121550357591N              02
V58381800000913-001-001       PE1702131152381ICSIBO               0000000000000001702130000001ICSLAVE 3     170213121141357913N              01
X PE Slave 3 First invoice 300343 170213 Last invoice 300344 170213 Next invoice 300345 Total number of records 000000067 clbackup completed 20:17:56
