104678000104678               104678               170213PF     1400+00000+PF0000006137+0000006137+000000000+000000860+0000006990+0000000007+I20000000000+0000006990+Z
104678001104678080-008102     104678006003000080724CARD&ENV MINI 6PK FOIL 0000001000+00001753+00000+0001T   00001753+0000000909          1400 GM6112               1AZ
104678002104678077-000509     104678006003000082582GIFT-BAG SML 6PCE ORG P0000002000+00002192+00000+0001T   00002192+0000000909          1400 GM6112               1AZ
104679000104679               104679               170213PF     1400+00000+PF0000001753+0000001753+000000000+000000246+0000001990+0000000009+I20000000000+0000001990+Z
104679001104679200-003026     104679006003000276448REFUSE BAGS 10PCE GREEN0000001000+00001753+00000+0001T   00001753+0000000910          1400 GM6214               1AZ
104680000104680               104680               170213PF     1400+00000+PF0000018898+0000018898+000000000+000002650+0000021548+0000000000+I40000021548+0000000000+Z
104680001104680112-116069     104680006009681820277TCS CARRIER BAG JUMBO  0000001000+00000048+00000+0001T   00000048+0000000925          1400 GM6090               1AZ
104680002104680088-000084     104680006001023798060P/POURRI 120G ASSTD    0000001000+00001753+00000+0001T   00001753+0000000925          1400 GM6212               1AZ
104680003104680039-000114     104680006001023524058CANDLE T/LITE RED 3.5CM0000001000+00001753+00000+0001T   00001753+0000000925          1400 GM6510               1AZ
104680004104680563-000318-L   104680006003000407088SERVIETTES 33cm RED    0000001000+00002192+00000+0001T   00002192+0000000925          1400 GM6214               1AZ
104680005104680083-000049     104680004891035200024CIG-LIGHTER DISPOSABLE 0000002000+00000437+00000+0001T   00000437+0000000925          1400 GM6315               1AZ
104680006104680040-000214     104680006003000221523C/HOLDER-SET 3PC GLS   0000002000+00006139+00000+0001T   00006139+0000000925          1400 GM6510               1AZ
104681000104681               104681               170213PF     1400+00000+PF0000004385+0000004385+000000000+000000614+0000004999+0000000000+I40000004999+0000000000+Z
104681001104681266-008040     104681006001023787002FIGURINE 6PC & ACCESS. 0000001000+00004385+00000+0001T   00004385+0000000927          1400 GM6710               1AZ
104682000104682               104682               170213PF     1400+00000+PF0000006576+0000006576+000000000+000000921+0000007497+0000000000+I40000007497+0000000000+Z
104682001104682034-091339     104682006003000568253BABY BIB 33x39cm 4ASSTD0000001000+00003507+00000+0001T   00003507+0000000942          1400 GM6215               1AZ
104682002104682084-009417     104682006001023783493SCISSORS 21+14cm 2PCE  0000001000+00003069+00000+0001T   00003069+0000000942          1400 GM6200               1AZ
104683000104683               104683               170213PF     1400+00000+PF0000001753+0000001753+000000000+000000246+0000001990+0000000009+I20000000000+0000001990+Z
104683001104683071-002999-A   104683006003000611577PEN STICKBALL 10PCE ASS0000001000+00001753+00000+0001T   00001753+0000000953          1400 GM6130               1AZ
104684000104684               104684               170213PF     1400+00000+PF0000009147+0000009147+000000000+000001283+0000010430+0000000000+I40000010430+0000000000+Z
104684001104684304-001011     104684006001023806727FLWR ROSE RED W/BEAR   0000004000+00000613+00000+0001T   00000788+0006471008          1400 GM6510               1AZ
104684002104684112-116038     104684006009681820246TCS CARRIER BAG MIDI   0000001000+00000035+00000+0001T   00000035+0000001008          1400 GM6090               1AZ
104684003104684565-000602     104684006003000643790NOVELTY NINJA'S 3PACK  0000002000+00002630+00000+0001T   00002630+0000001008          1400 GM6745               1AZ
104684004104684564-000012     104684006001023130075BUBBLE BOTTLE MAGIC    0000002000+00000700+00000+0001T   00000700+0000001008          1400 GM6131               1AZ
104685000104685               104685               170213PF     1400+00000+PF0000002192+0000002192+000000000+000000307+0000002499+0000000000+I40000002499+0000000000+Z
104685001104685080-000127     104685006003000424351VALENTINES DAY 36x24CM 0000001000+00002192+00000+0001T   00002192+0000001010          1400 GM6112               1AZ
104686000104686               104686               170213PF     1400+00000+PF0000003506+0000003506+000000000+000000492+0000003990+0000000008+I20000000000+0000003990+Z
104686001104686077-000457     104686006003000285662G/BAG METALLIC JMB SOL 0000001000+00001753+00000+0001T   00001753+0000001036          1400 GM6112               1AZ
104686002104686080-000118     104686006003000237562CARD&ENVLPE-CONGRATS   0000001000+00001753+00000+0001T   00001753+0000001036          1400 GM6112               1AZ
104687000104687               104687               170213PF     1400+00000+PF0000025434+0000025434+000000000+000003563+0000028997+0000000000+I40000028997+0000000000+Z
104687001104687004-079100     104687006003000604913USB POWER BANK 2400MAH 0000002000+00011402+00000+0001T   00012279+0008191153          1400 GM6310               1AZ
104687002104687077-000270     104687006003000395453GIFT-BAG PPR JMB 33X45 0000001000+00002630+00000+0001T   00002630+0000001153          1400 GM6112               1AZ
104688000104688               104688               170213PF     1400+00000+PF0000002277+0000002277+000000000+000000320+0000002597+0000000000+I40000002597+0000000000+Z
104688001104688903-000155     104688006009803374435SWT LOLLY I LUV U HEART0000002000+00000525+00000+0001T   00000525+0000001233          1400 GM6150               1AZ
104688002104688071-081091     104688006001151010287STAED/GENKEM ALL-STICK 0000001000+00001227+00000+0001T   00001227+0000001233          1400 GM6130               1AZ
104689000104689               104689               170213PF     1400+00000+PF0000003506+0000003506+000000000+000000492+0000003990+0000000008+I20000000000+0000003990+Z
104689001104689006-000108     104689006003000587995BALLOONS 6PC RED/WHT   0000002000+00001753+00000+0001T   00001753+0000001257          1400 GM6131               1AZ
104690000104690               104690               170213PF     1400+00000+PF0000003362+0000003362+000000000+000000471+0000003830+0000000003+I20000000000+0000003830+Z
104690001104690903-000120     104690006002099001665SWEET GS ZILLIONS 50g  0000002000+00000700+00000+0001T   00000700+0000001259          1400 GM6150               1AZ
104690002104690033-005994     104690006001023789570SEWING-NEEDLES 16PCE   0000001000+00000613+00000+0001T   00000613+0000001259          1400 GM6200               1AZ
104690003104690046-000012     104690006904708013062BATTERIES AA  CARD-OF-40000001000+00001314+00000+0001T   00001314+0000001259          1400 GM6312               1AZ
104690004104690112-116038     104690006009681820246TCS CARRIER BAG MIDI   0000001000+00000035+00000+0001T   00000035+0000001259          1400 GM6090               1AZ
104691000104691               104691               170213PF     1400+00000+PF0000001314+0000001314+000000000+000000184+0000001490+0000000008+I20000000000+0000001490+Z
104691001104691002-000651     104691006003000467778TOASTER TONGS MAGNETIC 0000001000+00001314+00000+0001T   00001314+0000001322          1400 GM6300               1AZ
104692000104692               104692               170213PF     1400+00000+PF0000015695+0000015695+000000000+000002200+0000017895+0000000000+I40000017895+0000000000+Z
104692001104692077-000270     104692006003000395453GIFT-BAG PPR JMB 33X45 0000001000+00002630+00000+0001T   00002630+0000001327          1400 GM6112               1AZ
104692002104692368-000637     104692006001023874092PLUSH BEAR SLEEPING LOV0000001000+00011402+00000+0001T   00012279+0006471327          1400 GM6745               1AZ
104692003104692304-001011     104692006001023806727FLWR ROSE RED W/BEAR   0000001000+00000613+00000+0001T   00000788+0006471327          1400 GM6510               1AZ
104692004104692903-000155     104692006009803374435SWT LOLLY I LUV U HEART0000002000+00000525+00000+0001T   00000525+0000001327          1400 GM6150               1AZ
104693000104693               104693               170213PF     1400+00000+PF0000035950+0000035950+000000000+000005039+0000040989+0000000000+I40000040989+0000000000+Z
104693001104693105-009017     104693006002923012843STORAGE BOX FROSTED 55L0000001000+00014034+00000+0001T   00014034+0000001331          1400 GM6210               1AZ
104693002104693133-000010-A   104693006001023997647CLEANING CLOTH ROLL 30 0000001000+00003507+00000+0001T   00003507+0000001331          1400 GM6212               1AZ
104693003104693200-003024     104693006001023657299REFUSE BAGS 20PCE BLACK0000001000+00001753+00000+0001T   00001753+0000001331          1400 GM6214               1AZ
104693004104693133-000007     104693006003000367009KITCHEN SWAB 30X35CM   0000001000+00001665+00000+0001T   00001665+0000001331          1400 GM6212               1AZ
104693005104693051-002407     104693006003000452491SPRAYER TRIGGER 550ml  0000001000+00001753+00000+0001T   00001753+0000001331          1400 GM6820               1AZ
104693006104693133-000074     104693006003000244072D/CLOTH 40x60 80g      0000001000+00003069+00000+0001T   00003069+0000001331          1400 GM6212               1AZ
104693007104693088-000014     104693006001023994776AIR-FRESHENER GEL 3PCE 0000001000+00002630+00000+0001T   00002630+0000001331          1400 GM6212               1AZ
104693008104693088-000113     104693006001023858399DEHUMIDIFIER SCENTED   0000002000+00002630+00000+0001T   00002630+0000001331          1400 GM6212               1AZ
104693009104693027-000194     104693006001246602472MOP COMPLETE           0000001000+00002279+00000+0001T   00002279+0000001331          1400 GM6212               1AZ
104694000104694               104694               170213PF     1400+00000+PF0000005172+0000005172+000000000+000000725+0000005897+0000000000+I40000005897+0000000000+Z
104694001104694030-000040     104694006003000396375PLAQUE WDN HANGING HRTS0000001000+00003069+00000+0001T   00003069+0000001343          1400 GM6505               1AZ
104694002104694903-000510     104694006001704012621SWEET MS ZBDZ S/BERRY  0000001000+00001227+00000+0001T   00001227+0000001343          1400 GM6150               1AZ
104694003104694903-000123     104694006925925909280SWEET GS MINI MALLOWS  0000001000+00000876+00000+0001T   00000876+0000001343          1400 GM6150               1AZ
104695000104695               104695               170213PF     1400+00000+PF0000001314+0000001314+000000000+000000184+0000001498+0000000000+I40000001498+0000000000+Z
104695001104695077-000470     104695006003000330171G-BAG DESGN SML 11X14CM0000001000+00001314+00000+0001T   00001314+0000001357          1400 GM6112               1AZ
104696000104696               104696               170213PF     1400+00000+PF0000005262+0000005262+000000000+000000737+0000005990+0000000009+I20000000000+0000005990+Z
104696001104696369-001003     104696006001023827487VINYL BATH SET         0000001000+00005262+00000+0001T   00005262+0000001357          1400 GM6745               1CZ
104697000104697               104697               170213PF     1400+00000+PF0000006576+0000006576+000000000+000000921+0000007497+0000000000+I40000007497+0000000000+Z
104697001104697077-000312     104697006001023608697GIFT-BAG 10X35CM GLOSS 0000001000+00001314+00000+0001T   00001314+0000001400          1400 GM6112               1AZ
104697002104697266-000638     104697006001023831491GLIDERS                0000001000+00005262+00000+0001T   00005262+0000001400          1400 GM6710               1AZ
104698000104698               104698               170213PF     1400+00000+PF0000013150+0000013150+000000000+000001844+0000014994+0000000000+I40000014994+0000000000+Z
104698001104698158-000167     104698006003000569588WASTEPAPER-BASKET 26cm 0000001000+00005262+00000+0001T   00005262+0000001420          1400 GM6300               1BZ
104698002104698150-012228-H   104698006001023416773DOOR-STOPPERS SET-OF-2 0000001000+00001753+00000+0001T   00001753+0000001420          1400 GM6810               1BZ
104698003104698159-000040     104698006001023767691HOOK-HANGER 4PC S/S    0000001000+00002630+00000+0001T   00002630+0000001420          1400 GM6200               1BZ
104698004104698078-000025     104698008887013700064SUPERGLUE 3g 1PCE CARD 0000001000+00000876+00000+0001T   00000876+0000001420          1400 GM6810               1BZ
104698005104698159-000041     104698006001023767684HOOK-HANGER 2PCE S/S   0000001000+00001753+00000+0001T   00001753+0000001420          1400 GM6200               1BZ
104698006104698076-000017     104698006001811010022TWINE COTTON 50g-BALL  0000001000+00000876+00000+0001T   00000876+0000001420          1400 GM6810               1BZ
104699000104699               104699               170213PF     1400+00000+PF0000002192+0000002192+000000000+000000307+0000002490+0000000009+I20000000000+0000002490+Z
104699001104699047-005126     104699006001023451255CABLETIES 100/150/200mm0000001000+00002192+00000+0001T   00002192+0000001441          1400 GM6880               1AZ
104700000104700               104700               170213PF     1400+00000+PF0000017134+0000017134+000000000+000002400+0000019530+0000000004+I20000000000+0000019530+Z
104700001104700003-001001     104700006001023722553ORN GARDEN OWL 10.5cm  0000001000+00003069+00000+0001T   00003069+0000001444          1400 GM6505               1AZ
104700002104700112-116038     104700006009681820246TCS CARRIER BAG MIDI   0000001000+00000035+00000+0001T   00000035+0000001444          1400 GM6090               1AZ
104700003104700560-000189     104700006003000592357ANIMALS SNAKE 78cm     0000002000+00003507+00000+0001T   00003507+0000001444          1400 GM6745               1AZ
104700004104700305-074101     104700006003000239665W/CHIMES BRZE/SILV TUBE0000001000+00007016+00000+0001T   00007016+0000001444          1400 GM6505               1AZ
104701000104701               104701               170213PF     1400+00000+PF0000007940+0000007940+000000000+000001113+0000009053+0000000000+I40000009053+0000000000+Z
104701001104701366-007601     104701006003000655472DRESS UP MASK THEATRICA0000001000+00000876+00000+0001T   00000876+0000001527          1400 GM6131               1AZ
104701002104701366-000105     104701006001023866103DRESSUP WINGS AND SKIRT0000001000+00007016+00000+0001T   00007016+0000001527          1400 GM6131               1AZ
104701003104701112-116069     104701006003000535064TCS CARRIER BAG JUMBO  0000001000+00000048+00000+0001T   00000048+0000001527          1400 GM6090               1AZ
104702000104702               104702               170213PF     1400+00000+PF0000030025+0000030025+000000000+000004207+0000034232+0000000000+I40000034232+0000000000+Z
104702001104702112-116069     104702006003000535064TCS CARRIER BAG JUMBO  0000001000+00000048+00000+0001T   00000048+0000001535          1400 GM6090               1AZ
104702002104702566-000304     1047020060030004440453-D POP-UP ROUND       0000002000+00002455+00000+0001T   00002455+0000001535          1400 GM6130               1AZ
104702003104702174-008028     104702006009654960825TRAVEL JARS 4-PACK     0000008000+00001928+00000+0001T   00001928+0000001535          1400 GM6205               1AZ
104702004104702566-000308     104702006003000522521STICKER TAPE 3PCS      0000002000+00002630+00000+0001T   00002630+0000001535          1400 GM6130               1AZ
104702005104702033-001364     104702006001023802088HAIR-CLIPS 65mm 24PCE  0000001000+00000876+00000+0001T   00000876+0000001535          1400 GM6200               1AZ
104702006104702108-005010     104702006001023915016TRAY 45cmx31cm RECT    0000001000+00003507+00000+0001T   00003507+0000001535          1400 GM6210               1AZ
104703000104703               104703               170213PF     1400+00000+PF0000004733+0000004733+000000000+000000664+0000005390+0000000007+I20000000000+0000005390+Z
104703001104703020-006200     104703006001023488510KNIVES PARING 2PCE H/H 0000001000+00001753+00000+0001T   00001753+0000001542          1400 GM6300               1AZ
104703002104703033-005991     104703006001023678546NEEDLES H/HOLD-REPAIR  0000001000+00000788+00000+0001T   00000788+0000001542          1400 GM6200               1AZ
104703003104703200-000002     104703006925406821049BAG FLIP TOP 80PCE     0000001000+00002192+00000+0001T   00002192+0000001542          1400 GM6214               1AZ
104704000104704               104704               170213PF     1400+00000+PF0000007673+0000007673+000000000+000001077+0000008750+0000000000+I40000008750+0000000000+Z
104704001104704112-116069     104704006003000535064TCS CARRIER BAG JUMBO  0000001000+00000048+00000+0001T   00000048+0000001547          1400 GM6090               1AZ
104704002104704038-047245     104704006001023637444PLACE-MAT DESIGNS ASSTD0000002000+00000876+00000+0001T   00000876+0000001547          1400 GM6300               1AZ
104704003104704016-006505     104704006001023617576S/JAR GLS MINI CLIP    0000001000+00001490+00000+0001T   00001490+0000001547          1400 GM6300               1AZ
104704004104704088-000108     104704006001023765536POTPOURRI-OIL 10ml ASST0000001000+00001753+00000+0001T   00001753+0000001547          1400 GM6212               1AZ
104704005104704104-000032     104704006003000099696BASKET PL 34x25x8cm    0000001000+00002630+00000+0001T   00002630+0000001547          1400 GM6210               1AZ
104705000104705               104705               170213PF     1400+00000+PF0000012314+0000012314+000000000+000001725+0000014039+0000000000+I40000014039+0000000000+Z
104705001104705368-000111     104705006001023780812PLUSH BEAR/DOG 29CM    0000001000+00012279+00000+0001T   00012279+0000001548          1400 GM6745               1AZ
104705002104705112-116038     104705006003000534906TCS CARRIER BAG MIDI   0000001000+00000035+00000+0001T   00000035+0000001548          1400 GM6090               1AZ
104706000104706               104706               170213PF     1400+00000+PF0000001575+0000001575+000000000+000000222+0000001790+0000000007+I20000000000+0000001790+Z
104706001104706903-000155     104706006009803374435SWT LOLLY I LUV U HEART0000003000+00000525+00000+0001T   00000525+0000001549          1400 GM6150               1AZ
104707000104707               104707               170213PF     1400+00000+PF0000012310+0000012310+000000000+000001725+0000014035+0000000000+I40000014035+0000000000+Z
104707001104707112-116038     104707006003000534906TCS CARRIER BAG MIDI   0000001000+00000035+00000+0001T   00000035+0000001552          1400 GM6090               1AZ
104707002104707001-000175     104707006001023788108B/MUG GLS LOVE 380ML   0000001000+00004385+00000+0001T   00004385+0000001552          1400 GM6515               1AZ
104707003104707004-071205     104707006003000073368USB 2.0 COMPUTER 4 HUB 0000001000+00003507+00000+0001T   00003507+0000001552          1400 GM6310               1AZ
104707004104707085-007001     104707006001023909329P/TOOL MINI 7in1       0000001000+00002630+00000+0001T   00002630+0000001552          1400 GM6305               1AZ
104707005104707903-000059     104707006002099001269SWT GS NOVELTY ALIEN VA0000001000+00001753+00000+0001T   00001753+0000001552          1400 GM6150               1AZ
104708000104708               104708               170213PF     1400+00000+PF0000001578+0000001578+000000000+000000221+0000001790+0000000009+I20000000000+0000001790+Z
104708001104708566-000506     104708006001023671455TATTOO BODY STICKER    0000001000+00001578+00000+0001T   00001578+0000001553          1400 GM6130               1AZ
104709000104709               104709               170213PF     1400+00000+PF0000008055+0000008055+000000000+000001131+0000009180+0000000006+I20000000000+0000009180+Z
104709001104709079-006495     104709006003000159987GLITTER SHAKERS 6PK    0000001000+00002630+00000+0001T   00002630+0000001604          1400 GM6130               1AZ
104709002104709006-000108     104709006003000587995BALLOONS 6PC RED/WHT   0000001000+00001753+00000+0001T   00001753+0000001604          1400 GM6131               1AZ
104709003104709079-009700-D   104709006003000545711PAPER SIRIO A4 RED COL.0000012000+00000306+00000+0001T   00000306+0000001604          1400 GM6130               1AZ
104710000104710               104710               170213PF     1400+00000+PF0000007452+0000007452+000000000+000001044+0000008496+0000000000+I40000008496+0000000000+Z
104710001104710077-000309-A   104710006003000671007GIFT-BAG HOLOGRAM JMB  0000001000+00002192+00000+0001T   00002192+0000001615          1400 GM6112               1DZ
104710002104710077-000382     104710006003000247820GIFT-BAG MED 18X23CM   0000001000+00001753+00000+0001T   00001753+0000001615          1400 GM6112               1DZ
104710003104710567-011363     104710009790709722885BK PUZZLE QUICK        0000001000+00003507+00000+0001T   00003507+0000001615          1400 GM6757               1DZ
104711000104711               104711               170213PF     1400+00000+PF0000009238+0000009238+000000000+000001296+0000010534+0000000000+I40000010534+0000000000+Z
104711001104711362-003008     104711006003000295524HAIR ACCESS SET PVC BOX0000001000+00002192+00000+0001T   00002630+0008191616          1400 GM6160               1AZ
104711002104711112-116038     104711006009681820246TCS CARRIER BAG MIDI   0000001000+00000035+00000+0001T   00000035+0000001616          1400 GM6090               1AZ
104711003104711362-001052     104711006001023915078NAIL TEEN ART SET 5PCE 0000001000+00002630+00000+0001T   00002630+0000001616          1400 GM6160               1AZ
104711004104711365-005267     104711006001023584366P/SET KITCHEN BAKING PL0000001000+00003507+00000+0001T   00003507+0000001616          1400 GM6725               1AZ
104711005104711080-000133-A   104711006003000647019MINI VALENTINES CARD   0000002000+00000437+00000+0001T   00000437+0000001616          1400 GM6112               1AZ
104712000104712               104712               170213PF     1400+00000+PF0000036700+0000036700+000000000+000005143+0000041843+0000000000+I40000041843+0000000000+Z
104712001104712112-116069     104712006009681820277TCS CARRIER BAG JUMBO  0000001000+00000048+00000+0001T   00000048+0000001621          1400 GM6090               1AZ
104712002104712036-000500     104712006003000663903BASKET WIRE 39x27x13cm 0000003000+00005262+00000+0001T   00005262+0000001621          1400 GM6212               1AZ
104712003104712006-006019     104712006001023908193PARTY-SPRAY GLITTER    0000001000+00002630+00000+0001T   00002630+0000001621          1400 GM6131               1AZ
104712004104712104-000135     104712006001023846419WASTEBIN SWING-LID 28cm0000001000+00004385+00000+0001T   00004385+0000001621          1400 GM6210               1AZ
104712005104712028-000797     104712006001023812124SKEWERS 15cm 100PCE    0000001000+00000876+00000+0001T   00000876+0000001621          1400 GM6305               1AZ
104712006104712006-006018     104712006001023735256PARTY-SPRAY HAIR ASSORT0000001000+00002630+00000+0001T   00002630+0000001621          1400 GM6131               1AZ
104712007104712028-000799     104712006001023812186SKEWERS BAMBOO 100PCE  0000001000+00001578+00000+0001T   00001578+0000001621          1400 GM6305               1AZ
104712008104712006-006018     104712006001023735256PARTY-SPRAY HAIR ASSORT0000002000+00002630+00000+0001T   00002630+0000001621          1400 GM6131               1AZ
104712009104712018-005009     104712006001023725608MUG W/PLUSH-BEAR LOVE  0000001000+00003507+00000+0001T   00003507+0000001621          1400 GM6515               1AZ
104713000104713               104713               170213PF     1400+00000+PF0000007014+0000007014+000000000+000000982+0000007990+0000000006+I20000000000+0000007990+Z
104713001104713039-000330     104713006003000283002BDAY-CANDLES+HLDERS 24P0000002000+00003507+00000+0001T   00003507+0000001626          1400 GM6510               1AZ
104714000104714               104714               170213PF     1400+00000+PF0000001314+0000001314+000000000+000000184+0000001490+0000000008+I20000000000+0000001490+Z
104714001104714006-000166-D   104714006003000516490BALLOONS LRG 6PC RED   0000001000+00001314+00000+0001T   00001314+0000001630          1400 GM6131               1AZ
104715000104715               104715               170213PF     1400+00000+PF0000002891+0000002891+000000000+000000406+0000003297+0000000000+I40000003297+0000000000+Z
104715001104715304-001011     104715006001023806727FLWR ROSE RED W/BEAR   0000001000+00000613+00000+0001T   00000788+0006471644          1400 GM6510               1AZ
104715002104715903-000155     104715006009803374435SWT LOLLY I LUV U HEART0000001000+00000525+00000+0001T   00000525+0000001644          1400 GM6150               1AZ
104715003104715018-000210     104715006003000580095MUG DAILY TEXTS 4-ASST 0000001000+00001753+00000+0001T   00001753+0000001644          1400 GM6515               1AZ
104716000104716               104716               170213PF     1400+00000+PF0000005310+0000005310+000000000+000000744+0000006054+0000000000+I40000006054+0000000000+Z
104716001104716112-116069     104716006003000535064TCS CARRIER BAG JUMBO  0000001000+00000048+00000+0001T   00000048+0000001647          1400 GM6090               1AZ
104716002104716366-001100     104716006003000031443DRESS UP HAT PIRATE    0000001000+00005262+00000+0001T   00005262+0000001647          1400 GM6131               1AZ
104717000104717               104717               170213PF     1400+00000+PF0000019325+0000019325+000000000+000002708+0000022030+0000000003+I20000000000+0000022030+Z
104717001104717112-116038     104717006003000534906TCS CARRIER BAG MIDI   0000001000+00000035+00000+0001T   00000035+0000001648          1400 GM6090               1AZ
104717002104717206-000245     104717006003000680818BOTTLE CLEANER PLASTIC 0000001000+00002192+00000+0001T   00002192+0000001648          1400 GM6321               1AZ
104717003104717108-001205     104717006005387000562FEEDING BOWLS 11cm 4PC 0000001000+00001314+00000+0001T   00001753+0008171648          1400 GM6210               1AZ
104717004104717206-000290     104717006003000632541BOTTLE OPENER SILICONE 0000001000+00002630+00000+0001T   00002630+0000001648          1400 GM6321               1AZ
104717005104717071-008231     104717006001023811332PENCIL-BAG 20cm        0000001000+00002630+00000+0001T   00002630+0000001648          1400 GM6130               1AZ
104717006104717567-010161     104717009780000008516BOOK TOP ASSTD MILLS   0000002000+00005262+00000+0001T   00005262+0000001648          1400 GM6757               1AZ
104718000104718               104718               170213PF     1400+00000+PF0000006174+0000006174+000000000+000000865+0000007030+0000000009+I20000000000+0000007030+Z
104718001104718007-000890-17  104718006003000645671CALENDAR 2017 ASSTD    0000001000+00006139+00000+0001T   00006139+0000001653          1400 GM6130               1AZ
104718002104718112-116038     104718006003000534906TCS CARRIER BAG MIDI   0000001000+00000035+00000+0001T   00000035+0000001653          1400 GM6090               1AZ
104719000104719               104719               170213PF     1400+00000+PF0000009167+0000009167+000000000+000001285+0000010452+0000000000+I40000010452+0000000000+Z
104719001104719112-116069     104719006009681820277TCS CARRIER BAG JUMBO  0000001000+00000048+00000+0001T   00000048+0000001718          1400 GM6090               1AZ
104719002104719006-000788     104719006001023990228CROWN HAPPY BIRTHDAY   0000002000+00001490+00000+0001T   00001490+0000001718          1400 GM6131               1AZ
104719003104719365-000071     104719006001023542366PLAY-SET CD PLAYER B/O 0000001000+00006139+00000+0001T   00006139+0000001718          1400 GM6725               1AZ
104720000104720               104720               170213PF     1400+00000+PF0000003507+0000003507+000000000+000000491+0000003998+0000000000+I40000003998+0000000000+Z
104720001104720028-002101     104720006002580009507CHAIR JUNIOR    ASSTD  0000001000+00003507+00000+0001T   00003507+0000001729          1400 GM6305               1AZ
104721000104721               104721               170213PF     1400+00000+PF0000002192+0000002192+000000000+000000307+0000002499+0000000000+I40000002499+0000000000+Z
104721001104721024-091103     104721006003453014307BAKING-CUP MUFFIN 50PCE0000001000+00002192+00000+0001T   00002192+0000001731          1400 GM6300               1AZ
104722000104722               104722               170213PF     1400+00000+PF0000000613+0000000613+000000000+000000086+0000000690+0000000009+I20000000000+0000000690+Z
104722001104722304-001011     104722006001023806727FLWR ROSE RED W/BEAR   0000001000+00000613+00000+0001T   00000788+0006471732          1400 GM6510               1AZ
104723000104723               104723               170213PF     1400+00000+PF0000003507+0000003507+000000000+000000491+0000003990+0000000008+I20000000000+0000003990+Z
104723001104723366-000301     104723006003000421077DRESSUP TIARA & EARRING0000001000+00003507+00000+0001T   00003507+0000001738          1400 GM6131               1AZ
104724000104724               104724               170213PF     1400+00000+PF0000007481+0000007481+000000000+000001048+0000008520+0000000009+I20000000000+0000008520+Z
104724001104724076-000017     104724006001811010022TWINE COTTON 50g-BALL  0000001000+00000876+00000+0001T   00000876+0000001755          1400 GM6810               1AZ
104724002104724112-116038     104724006009681820246TCS CARRIER BAG MIDI   0000001000+00000035+00000+0001T   00000035+0000001755          1400 GM6090               1AZ
104724003104724006-000167-C   104724006003000516971BALLOONS PINK METALLIC 0000001000+00001314+00000+0001T   00001314+0000001755          1400 GM6131               1AZ
104724004104724006-000166-H   104724006003000608096BALLOONS HELIUM 6PC WHT0000001000+00001314+00000+0001T   00001314+0000001755          1400 GM6131               1AZ
104724005104724006-000167-C   104724006003000516971BALLOONS PINK METALLIC 0000001000+00001314+00000+0001T   00001314+0000001755          1400 GM6131               1AZ
104724006104724006-000166-D   104724006003000516490BALLOONS LRG 6PC RED   0000002000+00001314+00000+0001T   00001314+0000001755          1400 GM6131               1AZ
104725000104725               104725               170213PF     1400+00000+PF0000005262+0000005262+000000000+000000737+0000005990+0000000009+I20000000000+0000005990+Z
104725001104725103-000474     104725006003000630363BAMBOO FLOWER BASKET   0000001000+00005262+00000+0001T   00005262+0000001758          1400 GM6300               1AZ
104726000104726               104726               170213PF     1400+00000+PF0000003591+0000003591+000000000+000000505+0000004090+0000000006+I20000000000+0000004090+Z
104726001104726077-000908     104726006003000410927G/WRAP 700mmx1m FLOWER 0000001000+00001753+00000+0001T   00001753+0000001759          1400 GM61121IC            1AZ
104726002104726306-000021-A   104726006001023891358EARBUDS COTTON 100PCE  0000001000+00000876+00000+0001T   00000876+0000001759          1400 GM6200               1AZ
104726003104726903-000155     104726006009803374435SWT LOLLY I LUV U HEART0000001000+00000525+00000+0001T   00000525+0000001759          1400 GM6150               1AZ
104726004104726080-000133-A   104726006003000647019MINI VALENTINES CARD   0000001000+00000437+00000+0001T   00000437+0000001759          1400 GM6112               1AZ
A17021300                                          15451077PFSLAVE 1                       GM61IC
B10472600                                          170213PF077-000908     17590349SLAVE 1     GM61IC0000002000+0000001000+0000000000000+
M17021391                              CASH        PFSLAVE 1                       Z-REPORT No.   565TOTAL (Sales - Refunds)           4668.69       CASH TO BE BANKED                 1322.50       DEBIT CARDS                          0.00       CREDIT CARDS                      3346.19       Z-READING                         4668.69       AIRTIME DEBIT CARD SALES             0.00       AIRTIME CARD SALES                   0.00       OVERS/UNDERS                         0.00       AIRTIME CASH SALES                   0.00       GIFT CARDS                           0.00       GIFT CARD CASH SALES                 0.00       T O T A L  CASH PAYOUTS              0.00                                                                                                                                                                                                                                                                                                                                                      Z
M17021392                              CASH        PFABSENT                                                                                                                                                                                          ANNUAL LEAVE                                                                                                                                                                                    DAY OFF                                                                                                                                                                                         COMMENTS                                                                                                                                                                                                                                                                                                                                                                                       Z
Y17021300                                          PF00000000409626+000049
ZPF17021320183 SLAVE 1      SALES DATA                     NEXT INVOICE NO.  104727 0565
X PF Slave 1 First invoice 104678 170213 Last invoice 104726 170213 Next invoice 104727 Total number of records 000000195 clbackup completed 20:18:15
