204577000204577               204577               170213PF     1400+00000+PF0000005116+0000005116+000000000+000000718+0000005834+0000000000+I40000005834+0000000000+Z
204577001204577112-116038     204577006009681820246TCS CARRIER BAG MIDI   0000001000+00000035+00000+0001T   00000035+0000001014          1400 FP8090               2CZ
204577002204577031-080508     204577006001023802415P/FRAME PL 22X11CM LOVE0000001000+00004385+00000+0001T   00004385+0000001014          1400 FP8510               2CZ
204577003204577018-000177     204577006001023797513MUG MINI LOVE ASSTD    0000001000+00000700+00000+0001T   00000700+0000001014          1400 FP8515               2CZ
204577004204577031-080508     204577006001023802415P/FRAME PL 22X11CM LOVE0000001000-00004385+00000+0001T   00004385+0000001014          1400 FP85101IC            2 Z
204577005204577018-000177     204577006001023797513MUG MINI LOVE ASSTD    0000001000-00000700+00000+0001T   00000700+0000001014          1400 FP85151IC            2 Z
204577006204577018-000136     204577006001023659026MUG OCC LOVE W/PLUSH   0000001000+00003507+00000+0001T   00003507+0000001014          1400 FP8515               2CZ
204577007204577018-000177     204577006001023797513MUG MINI LOVE ASSTD    0000001000+00000700+00000+0001T   00000700+0000001014          1400 FP8515               2CZ
204577008204577080-000133-A   204577006003000647019MINI VALENTINES CARD   0000002000+00000437+00000+0001T   00000437+0000001014          1400 FP8112               2CZ
204578000204578               204578               170213PF     1400+00000+PF0000003506+0000003506+000000000+000000492+0000003998+0000000000+I40000003998+0000000000+Z
204578001204578077-000308     204578006001023595812GIFT-BAG 33X45CM E/DAY 0000001000+00001753+00000+0001T   00001753+0000001050          1400 FP8112               2CZ
204578002204578080-000106     204578006003000237098CARD&ENVLPE BDAY GIRL  0000001000+00001753+00000+0001T   00001753+0000001050          1400 FP8112               2CZ
204579000204579               204579               170213PF     1400+00000+PF0000001261+0000001261+000000000+000000177+0000001430+0000000008+I20000000000+0000001430+Z
204579001204579304-001011     204579006001023806727FLWR ROSE RED W/BEAR   0000002000+00000613+00000+0001T   00000788+0006471106          1400 FP8510               2CZ
204579002204579112-116038     204579006009681820246TCS CARRIER BAG MIDI   0000001000+00000035+00000+0001T   00000035+0000001106          1400 FP8090               2CZ
204580000204580               204580               170213PF     1400+00000+PF0000006612+0000006612+000000000+000000926+0000007530+0000000008+I20000000000+0000007530+Z
204580001204580112-116038     204580006009681820246TCS CARRIER BAG MIDI   0000001000+00000035+00000+0001T   00000035+0000001107          1400 FP8090               2CZ
204580002204580567-000422     204580009780710515872BK EDU BATH EVA        0000001000+00004385+00000+0001T   00004385+0000001107          1400 FP8757               2CZ
204580003204580301-085000     204580006003000674299 ORN OCC. LOVE HEARTS  0000001000+00002192+00000+0001T   00002192+0000001107          1400 FP8505               2CZ
204581000204581               204581               170213PF     1400+00000+PF0000001314+0000001314+000000000+000000184+0000001490+0000000008+I20000000000+0000001490+Z
204581001204581159-000149     204581006003000010998SOAP-DISH FOUR-LEAF    0000001000+00001314+00000+0001T   00001314+0000001109          1400 FP8200               2CZ
204582000204582               204582               170213PF     1400+00000+PF0000004383+0000004383+000000000+000000615+0000004990+0000000008+I20000000000+0000004990+Z
204582001204582084-006996     204582006003000092833NAIL CLIPPER 6cm       0000001000+00001753+00000+0001T   00001753+0000001121          1400 FP8200               2CZ
204582002204582306-000001     204582006003000450152NAIL BRUSH SET 7/9/14cm0000001000+00002630+00000+0001T   00002630+0000001121          1400 FP8200               2CZ
204583000204583               204583               170213PF     1400+00000+PF0000010521+0000010521+000000000+000001473+0000011990+0000000004+I20000000000+0000011990+Z
204583001204583463-000141     204583006003000521609WATER BLASTER LONG     0000003000+00003507+00000+0001T   00003507+0000001404          1400 FP8785               2CZ
204584000204584               204584               170213PF     1400+00000+PF0000008805+0000008805+000000000+000001233+0000010030+0000000008+I20000000000+0000010030+Z
204584001204584001-000175     204584006001023788108B/MUG GLS LOVE 380ML   0000001000+00004385+00000+0001T   00004385+0000001408          1400 FP8515               2CZ
204584002204584030-000031-A   204584006003000457588PLAQUE W/WORDS ASSTD   0000001000+00004385+00000+0001T   00004823+0006471408          1400 FP8505               2CZ
204584003204584112-116038     204584006009681820246TCS CARRIER BAG MIDI   0000001000+00000035+00000+0001T   00000035+0000001408          1400 FP8090               2CZ
204585000204585               204585               170213PF     1400+00000+PF0000000437+0000000437+000000000+000000062+0000000490+0000000009+I20000000000+0000000490+Z
204585001204585080-000133-A   204585006003000647019MINI VALENTINES CARD   0000001000+00000437+00000+0001T   00000437+0000001409          1400 FP8112               2CZ
204586000204586               204586               170213PF     1400+00000+PF0000005818+0000005818+000000000+000000816+0000006630+0000000004+I20000000000+0000006630+Z
204586001204586112-116038     204586006009681820246TCS CARRIER BAG MIDI   0000001000+00000035+00000+0001T   00000035+0000001420          1400 FP8090               2AZ
204586002204586077-000151     204586006008766114676GIFT-WRAP C/PHANE ASSTD0000003000+00000876+00000+0001T   00000876+0000001420          1400 FP8112               2AZ
204586003204586077-000245     204586006001023759214GIFT-RIBBON METALLICx2 0000001000+00001227+00000+0001T   00001227+0000001420          1400 FP8112               2AZ
204586004204586903-004960     204586008410525221842SWT GUMMY STR/BERRY 50G0000002000+00000964+00000+0001T   00000964+0000001420          1400 FP8150               2AZ
204587000204587               204587               170213PF     1400+00000+PF0000001927+0000001927+000000000+000000271+0000002198+0000000000+I40000002198+0000000000+Z
204587001204587077-000299     204587006003000395576G/BAG 32x25cm LRG LOVE 0000001000+00001490+00000+0001T   00001490+0000001432          1400 FP8112               2AZ
204587002204587080-000133-A   204587006003000647019MINI VALENTINES CARD   0000001000+00000437+00000+0001T   00000437+0000001432          1400 FP8112               2AZ
204588000204588               204588               170213PF     1400+00000+PF0000001578+0000001578+000000000+000000221+0000001790+0000000009+I20000000000+0000001790+Z
204588001204588077-000303     204588006001023593757GIFT-BAG PAPER MED     0000001000+00001578+00000+0001T   00001578+0000001451          1400 FP8112               2AZ
204589000204589               204589               170213PF     1400+00000+PF0000008771+0000008771+000000000+000001228+0000009999+0000000000+I40000009999+0000000000+Z
204589001204589368-000012     204589006003000610464PLUSH BEAR 30cm SITTING0000001000+00008771+00000+0001T   00008771+0000001526          1400 FP8745               2AZ
204590000204590               204590               170213PF     1400+00000+PF0000008242+0000008242+000000000+000001155+0000009397+0000000000+I40000009397+0000000000+Z
204590001204590050-000264-Z   204590006001023777072PADLOCK BRS 38mm CARDED0000001000+00005876+00000+0001T   00005876+0000001532          1400 FP8855               2CZ
204590002204590007-000033     204590006003000535231CARD HOLDER W/LANYARD  0000001000+00000876+00000+0001T   00000876+0000001532          1400 FP8130               2CZ
204590003204590089-000141-H   204590006001023416568KEY-CHAINS 6PCE     H&H0000001000+00001490+00000+0001T   00001490+0000001532          1400 FP8205               2CZ
204591000204591               204591               170213PF     1400+00000+PF0000033484+0000033484+000000000+000004694+0000038178+0000000000+I40000038178+0000000000+Z
204591001204591105-006955     204591006003000685325CONTAINER CLEAR BASE 8L0000001000+00003507+00000+0001T   00003507+0000001544          1400 FP8210               2AZ
204591002204591037-000004     204591006001023763679ASHTRAY PL TUB 8X11CM  0000004000+00001753+00000+0001T   00002192+0008191544          1400 FP8515               2AZ
204591003204591037-000008     204591006003000171750ASHTRAY TIN TUB 10X7.5 0000001000+00002192+00000+0001T   00002192+0000001544          1400 FP8515               2AZ
204591004204591076-000018     204591006001023777836TWINE NYLON 50g 4PCE   0000001000+00003507+00000+0001T   00003507+0000001544          1400 FP8810               2AZ
204591005204591206-000520     204591006003000620708NOVELTY BIRTHDAY CANDLE0000001000+00001314+00000+0001T   00001753+0008181544          1400 FP8321               2AZ
204591006204591206-000530     204591006003000620821BIRTHDAY CANDLES 6PC   0000001000+00001139+00000+0001T   00001753+0008181544          1400 FP8321               2AZ
204591007204591072-000327     204591006001023858504CAT-COLLAR+BELL        0000001000+00001753+00000+0001T   00001753+0000001544          1400 FP8870               2AZ
204591008204591266-001499     204591006001023624925TOP & STRING 2 PACK    0000001000+00000700+00000+0001T   00000700+0000001544          1400 FP8710               2AZ
204591009204591072-000234     204591006003000691487DOG-COLLAR REFLECTIVE  0000003000+00002192+00000+0001T   00002192+0000001544          1400 FP8870               2AZ
204591010204591072-000325     204591006003000452323PET COLLAR PENDENT ASST0000003000+00001753+00000+0001T   00002630+0008191544          1400 FP8870               2AZ
204591011204591903-000155     204591006009803374435SWT LOLLY I LUV U HEART0000001000+00000525+00000+0001T   00000525+0000001544          1400 FP8150               2AZ
204592000204592               204592               170213PF     1400+00000+PF0000011342+0000011342+000000000+000001591+0000012933+0000000000+I40000012933+0000000000+Z
204592001204592077-000314     204592006003000181148GIFT-BAG 11X14CM MATT  0000001000+00000876+00000+0001T   00000876+0000001546          1400 FP8112               2CZ
204592002204592077-000311     204592006001023608666GIFT-BAG 11X14CM GLOSS 0000001000+00000613+00000+0001T   00000613+0000001546          1400 FP8112               2CZ
204592003204592903-000087     204592006001704000161SWT SPECKLED-EGGS 50G  0000001000+00001139+00000+0001T   00001139+0000001546          1400 FP8150               2CZ
204592004204592301-085001     204592006003000297610ORN WATERBALL LOVE ASST0000001000+00004823+00000+0001T   00004823+0000001546          1400 FP8505               2CZ
204592005204592301-006010     204592006001023861245ORN BEAR POLY W/JERSEY 0000001000+00002192+00000+0001T   00002192+0000001546          1400 FP8505               2CZ
204592006204592903-000521     204592006001704009652SWT GUMMY SOFT GUMS    0000001000+00000876+00000+0001T   00000876+0000001546          1400 FP8150               2CZ
204592007204592903-000137     204592006002099004130SWEET GS JELLY BEAN 60G0000001000+00000788+00000+0001T   00000788+0000001546          1400 FP8150               2CZ
204592008204592112-116038     204592006009681820246TCS CARRIER BAG MIDI   0000001000+00000035+00000+0001T   00000035+0000001546          1400 FP8090               2CZ
204593000204593               204593               170213PF     1400+00000+PF0000021494+0000021494+000000000+000003027+0000024521+0000000000+I40000024521+0000000000+Z
204593001204593112-116069     204593006009681820277TCS CARRIER BAG JUMBO  0000001000+00000048+00000+0001T   00000048+0000001605          1400 FP8090               2AZ
204593002204593903-000151     204593006009803374411SWT SML RND R/BOW LOLLY0000025000+00000525+00000+0001T   00000525+0000001605          1400 FP8150               2AZ
204593003204593903-000155     204593006009803374435SWT LOLLY I LUV U HEART0000003000+00000525+00000+0001T   00000525+0000001605          1400 FP8150               2AZ
204593004204593056-005719     204593006001023820983CAR AIR-FRESHENER ASSTD0000001000+00002192+00000+0001T   00002192+0000001605          1400 FP8860               2AZ
204593005204593080-000133-A   204593006003000647019MINI VALENTINES CARD   0000003000+00000437+00000+0001T   00000437+0000001605          1400 FP8112               2AZ
204593006204593027-783002     204593006001023874658SCOURERS FOAM PACK OF 30000001000+00001490+00000+0001T   00001490+0000001605          1400 FP8212               2AZ
204593007204593306-000024-A   204593006003000577309COTTON-WOOL-PADS 80PC  0000001000+00001753+00000+0001T   00001753+0000001605          1400 FP8200               2AZ
204594000204594               204594               170213PF     1400+00000+PF0000009243+0000009243+000000000+000001295+0000010538+0000000000+I40000010538+0000000000+Z
204594001204594001-091415     204594006003000329113W/GLS OCC. LOVE 2PC 2800000001000+00008771+00000+0001T   00009648+0006471616          1400 FP8515               2CZ
204594002204594112-116038     204594006009681820246TCS CARRIER BAG MIDI   0000001000+00000035+00000+0001T   00000035+0000001616          1400 FP8090               2CZ
204594003204594080-000133-A   204594006003000647019MINI VALENTINES CARD   0000001000+00000437+00000+0001T   00000437+0000001616          1400 FP8112               2CZ
204595000204595               204595               170213PF     1400+00000+PF0000009503+0000009503+000000000+000001333+0000010836+0000000000+I40000010836+0000000000+Z
204595001204595018-000129     204595006001023403353MUG OCC. LOVE V-SHAPE  0000002000+00002630+00000+0001T   00002630+0000001648          1400 FP8515               2CZ
204595002204595020-000016     204595006001023399182KITCHEN-SCISSORS       0000001000+00001578+00000+0001T   00001578+0000001648          1400 FP8300               2CZ
204595003204595018-000129     204595006001023403353MUG OCC. LOVE V-SHAPE  0000001000+00002630+00000+0001T   00002630+0000001648          1400 FP8515               2CZ
204595004204595112-116038     204595006009681820246TCS CARRIER BAG MIDI   0000001000+00000035+00000+0001T   00000035+0000001648          1400 FP8090               2CZ
204596000204596               204596               170213PF     1400+00000+PF0000008771+0000008771+000000000+000001228+0000009999+0000000000+I40000009999+0000000000+Z
204596001204596039-000799     204596006001023692382CANDLES TEALITE 100PCE 0000001000+00008771+00000+0001T   00008771+0000001706          1400 FP8510               2CZ
204597000204597               204597               170213PF     1400+00000+PF0000023680+0000023680+000000000+000003317+0000026997+0000000000+I40000026997+0000000000+Z
204597001204597077-000270     204597006003000395453GIFT-BAG PPR JMB 33X45 0000001000+00002630+00000+0001T   00002630+0000001717          1400 FP8112               2AZ
204597002204597031-080509     204597006001023802446P/FRAME COLLAGE 10X15CM0000001000+00006139+00000+0001T   00006139+0000001717          1400 FP8510               2AZ
204597003204597031-001001     204597006003000253265P/FRAME COL FAM-TREE   0000001000+00014911+00000+0001T   00014911+0000001717          1400 FP8510               2AZ
204598000204598               204598               170213PF     1400+00000+PF0000006139+0000006139+000000000+000000860+0000006999+0000000000+I40000006999+0000000000+Z
204598001204598366-001101     204598006003000006991DRESS UP BOYS ASSTD    0000001000+00006139+00000+0001T   00006139+0000001720          1400 FP8131               2AZ
204599000204599               204599               170213PF     1400+00000+PF0000006174+0000006174+000000000+000000865+0000007030+0000000009+I20000000000+0000007030+Z
204599001204599018-005007     204599006003000515516MUG OCC. LOVE W/HEARTS 0000001000+00006139+00000+0001T   00006139+0000001722          1400 FP8515               2AZ
204599002204599112-116038     204599006003000534906TCS CARRIER BAG MIDI   0000001000+00000035+00000+0001T   00000035+0000001722          1400 FP8090               2AZ
204600000204600               204600               170213PF     1400+00000+PF0000003156+0000003156+000000000+000000442+0000003590+0000000008+I20000000000+0000003590+Z
204600001204600077-000303     204600006001023593757GIFT-BAG PAPER MED     0000002000+00001578+00000+0001T   00001578+0000001722          1400 FP8112               2AZ
204601000204601               204601               170213PF     1400+00000+PF0000003946+0000003946+000000000+000000553+0000004490+0000000009+I20000000000+0000004490+Z
204601001204601106-001119     204601006003000449972WATER BOTTLE ALUM 750ml0000001000+00003946+00000+0001T   00005262+0008171723          1400 FP8210               2CZ
204602000204602               204602               170213PF     1400+00000+PF0000003507+0000003507+000000000+000000491+0000003990+0000000008+I20000000000+0000003990+Z
204602001204602562-000011     204602006003000600984PLAY DOUGH NEON TUBE   0000001000+00003507+00000+0001T   00003507+0000001726          1400 FP8755               2BZ
204603000204603               204603               170213PF     1400+00000+PF0000014909+0000014909+000000000+000002088+0000016997+0000000000+I40000016997+0000000000+Z
204603001204603365-002999     204603006001023583734KITCHEN-SET W/ACCESS.  0000001000+00003507+00000+0001T   00003507+0000001739          1400 FP8725               2CZ
204603002204603105-009015     204603006002923000031STORAGE BOX 32L FROSTED0000001000+00011402+00000+0001T   00011402+0000001739          1400 FP8210               2CZ
204604000204604               204604               170213PF     1400+00000+PF0000003144+0000003144+000000000+000000441+0000003580+0000000005+I20000000000+0000003580+Z
204604001204604078-009100     204604006008741002349ALL-CLEAR GLUE 25ml CRD0000002000+00001314+00000+0001T   00001314+0000001742          1400 FP8810               2AZ
204604002204604071-000012     204604006001177101006CHALK COLOUR 12PCE     0000001000+00000481+00000+0001T   00000481+0000001742          1400 FP8130               2AZ
204604003204604112-116038     204604006009681820246TCS CARRIER BAG MIDI   0000001000+00000035+00000+0001T   00000035+0000001742          1400 FP8090               2AZ
204605000204605               204605               170213PF     1400+00000+PF0000003979+0000003979+000000000+000000558+0000004537+0000000000+I40000004537+0000000000+Z
204605001204605018-000136     204605006001023659026MUG OCC LOVE W/PLUSH   0000001000+00003507+00000+0001T   00003507+0000001749          1400 FP8515               2AZ
204605002204605112-116038     204605006003000534906TCS CARRIER BAG MIDI   0000001000+00000035+00000+0001T   00000035+0000001749          1400 FP8090               2AZ
204605003204605080-000133-A   204605006003000647019MINI VALENTINES CARD   0000001000+00000437+00000+0001T   00000437+0000001749          1400 FP8112               2AZ
204606000204606               204606               170213PF     1400+00000+PF0000021214+0000021214+000000000+000002977+0000024191+0000000000+I40000024191+0000000000+Z
204606001204606077-000270     204606006003000395453GIFT-BAG PPR JMB 33X45 0000001000+00002630+00000+0001T   00002630+0000001755          1400 FP8112               2AZ
204606002204606040-001010     204606006003000323388C/HLDR MTL ENTWINED    0000001000+00012279+00000+0001T   00012279+0000001755          1400 FP8510               2AZ
204606003204606077-000010-D   204606006001023123886CREPE-PAPER WHITE      0000001000+00000788+00000+0001T   00000788+0000001755          1400 FP8112               2AZ
204606004204606080-000133-A   204606006003000647019MINI VALENTINES CARD   0000001000+00000437+00000+0001T   00000437+0000001755          1400 FP8112               2AZ
204606005204606039-000024     204606006003000286300C/TAPERED 25CM M/WHITE 0000001000+00001051+00000+0001T   00001051+0000001755          1400 FP8510               2AZ
204606006204606039-000026     204606006001023551610C/TAPERED 25CM M/RED   0000001000+00001051+00000+0001T   00001051+0000001755          1400 FP8510               2AZ
204606007204606039-000032     204606006003000287185C/TAPERED 25CM M/GREEN 0000001000+00001051+00000+0001T   00001051+0000001755          1400 FP8510               2AZ
204606008204606039-000034     204606006003000287420C/TAPERED 25CM M/BLUE  0000001000+00001051+00000+0001T   00001051+0000001755          1400 FP8510               2AZ
204606009204606039-000030     204606006003000286942CANDLE 25cm MTL-YELLOW 0000001000+00000876+00000+0001T   00000876+0000001755          1400 FP8510               2AZ
204607000204607               204607               170213PF     1400+00000+PF0000009628+0000009628+000000000+000001351+0000010979+0000000000+I40000010979+0000000000+Z
204607001204607112-116038     204607006009681820246TCS CARRIER BAG MIDI   0000001000+00000035+00000+0001T   00000035+0000001759          1400 FP8090               2CZ
204607002204607024-000036     204607006001023477002MEASURING-JUG 500ml    0000001000+00001578+00000+0001T   00001578+0000001759          1400 FP8300               2CZ
204607003204607108-001205     204607006005387000562FEEDING BOWLS 11cm 4PC 0000001000+00001314+00000+0001T   00001753+0008171759          1400 FP8210               2CZ
204607004204607002-000118     204607006001023185013EGG-SEPARATOR PLASTIC  0000001000+00000876+00000+0001T   00000876+0000001759          1400 FP8300               2CZ
204607005204607006-000166-D   204607006003000516490BALLOONS LRG 6PC RED   0000001000+00001314+00000+0001T   00001314+0000001759          1400 FP8131               2CZ
204607006204607159-080352     204607006916920733314HOOKS 3PCE             0000001000+00001490+00000+0001T   00001490+0000001759          1400 FP8200               2CZ
204607007204607159-000150-B   204607006003000058440SOAP-BOX PL ASSORTED   0000001000+00000832+00000+0001T   00000832+0000001759          1400 FP8200               2CZ
204607008204607040-000209     204607006003000673872C/HOLDER GLS CLEAR 6.5 0000002000+00000876+00000+0001T   00000876+0000001759          1400 FP8510               2CZ
204607009204607080-000133-A   204607006003000647019MINI VALENTINES CARD   0000001000+00000437+00000+0001T   00000437+0000001759          1400 FP8112               2CZ
204608000204608               204608               170213PF     1400+00000+PF0000002309+0000002309+000000000+000000325+0000002634+0000000000+I40000002634+0000000000+Z
204608001204608080-000133-A   204608006003000647019MINI VALENTINES CARD   0000002000+00000437+00000+0001T   00000437+0000001801          1400 FP8112               2CZ
204608002204608018-000177     204608006001023797513MUG MINI LOVE ASSTD    0000002000+00000700+00000+0001T   00000700+0000001801          1400 FP8515               2CZ
204608003204608112-116038     204608006009681820246TCS CARRIER BAG MIDI   0000001000+00000035+00000+0001T   00000035+0000001801          1400 FP8090               2CZ
204609000204609               204609               170213PF     1400+00000+PF0000009240+0000009240+000000000+000001296+0000010536+0000000000+I40000010536+0000000000+Z
204609001204609079-013098     204609006003000197040ART+CRAFT SET DIY      0000001000+00003069+00000+0001T   00003069+0000001805          1400 FP8130               2CZ
204609002204609079-006522     204609006001023149442ART+CRAFT GLUE ASSORTED0000001000+00001753+00000+0001T   00001753+0000001805          1400 FP8130               2CZ
204609003204609079-006496     204609006003000160105GLITTER SHAKERS        0000001000+00001753+00000+0001T   00001753+0000001805          1400 FP8130               2CZ
204609004204609112-116038     204609006009681820246TCS CARRIER BAG MIDI   0000001000+00000035+00000+0001T   00000035+0000001805          1400 FP8090               2CZ
204609005204609369-001013     204609006003000500451BABY BATH VINYL DUCK   0000001000+00002630+00000+0001T   00002630+0000001805          1400 FP8745               2CZ
A17021300                                          09110806PFSLAVE 2                       FP82IC
M17021391                              CASH        PFSLAVE 2                       Z-REPORT No.   570TOTAL (Sales - Refunds)           3113.51       CASH TO BE BANKED                  690.50       DEBIT CARDS                          0.00       CREDIT CARDS                      2423.01       Z-READING                         3113.51       AIRTIME DEBIT CARD SALES             0.00       AIRTIME CARD SALES                   0.00       OVERS/UNDERS                         0.00       AIRTIME CASH SALES                   0.00       GIFT CARDS                           0.00       GIFT CARD CASH SALES                 0.00       T O T A L  CASH PAYOUTS              0.00                                                                                                                                                                                                                                                                                                                                                      Z
M17021392                              CASH        PFABSENT                                                                                                                                                                                          ANNUAL LEAVE                                                                                                                                                                                    DAY OFF                                                                                                                                                                                         COMMENTS                                                                                                                                                                                                                                                                                                                                                                                       Z
Y17021300                                          PF00000000278238+000033
ZPF17021320183 SLAVE 2      SALES DATA                     NEXT INVOICE NO.  204610 0570
X PF Slave 2 First invoice 204577 170213 Last invoice 204609 170213 Next invoice 204610 Total number of records 000000149 clbackup completed 20:18:16
