109794000109794               109794               170213PG     1400+00000+PG0000002678+0000002678+000000000+000000376+0000003050+0000000004+I20000000000+0000003050+Z
109794001109794112-116069     109794006009681820277TCS CARRIER BAG JUMBO  0000001000+00000048+00000+0001T   00000048+0000001028          1400 SY2090               1BZ
109794002109794018-000129     109794006001023403353MUG OCC. LOVE V-SHAPE  0000001000+00002630+00000+0001T   00002630+0000001028          1400 SY2515               1BZ
109795000109795               109795               170213PG     1400+00000+PG0000005133+0000005133+000000000+000000719+0000005852+0000000000+I40000005852+0000000000+Z
109795001109795001-000175     109795006001023788108B/MUG GLS LOVE 380ML   0000001000+00004385+00000+0001T   00004385+0000001036          1400 SY2515               1AZ
109795002109795564-000012     109795006001023130075BUBBLE BOTTLE MAGIC    0000001000+00000700+00000+0001T   00000700+0000001036          1400 SY2131               1AZ
109795003109795112-116069     109795006009681820277TCS CARRIER BAG JUMBO  0000001000+00000048+00000+0001T   00000048+0000001036          1400 SY2090               1AZ
109796000109796               109796               170213PG     1400+00000+PG0000044533+0000044533+000000000+000006238+0000050771+0000000000+I40000050771+0000000000+Z
109796001109796112-116053     109796006006438002399TCS CARRIER BAG 38L    0000001000+00000069+00000+0001T   00000069+0000001054          1400 SY2090               1AZ
109796002109796261-003817     109796006001023536532GUN RIFLE WITH ROCKET  0000001000+00011402+00000+0001T   00011402+0000001054          1400 SY2710               1AZ
109796003109796265-000316     109796006001023877536CAR RADIO-CONTROL      0000001000+00021051+00000+0001T   00021928+0008191054          1400 SY2710               1AZ
109796004109796001-000175     109796006001023788108B/MUG GLS LOVE 380ML   0000001000+00004385+00000+0001T   00004385+0000001054          1400 SY2515               1AZ
109796005109796046-000004     109796006001023606525BATTERY 9VOLT H/POWER  0000001000+00001490+00000+0001T   00001490+0000001054          1400 SY2312               1AZ
109796006109796046-000012-A   109796006003000208296BATTERIES H/POWER SZ:AA0000001000+00002192+00000+0001T   00002192+0000001054          1400 SY2312               1AZ
109796007109796562-000010     109796006001023762528KID'S PLAY DOUGH       0000001000+00002630+00000+0001T   00002630+0000001054          1400 SY2755               1AZ
109796008109796903-000194     109796006009826020616SWT CHOC RP LOLLY 25G  0000001000+00001314+00000+0001T   00001314+0000001054          1400 SY2150               1AZ
109797000109797               109797               170213PG     1400+00000+PG0000001753+0000001753+000000000+000000246+0000001990+0000000009+I20000000000+0000001990+Z
109797001109797077-000351     109797006003000139033GIFT-BAG 18X23CM E/D P 0000001000+00001753+00000+0001T   00001753+0000001113          1400 SY2112               1AZ
109798000109798               109798               170213PG     1400+00000+PG0000004821+0000004821+000000000+000000675+0000005490+0000000006+I20000000000+0000005490+Z
109798001109798903-000844     109798005010478432567SWT CANDY DL LUV HEARTS0000001000+00001314+00000+0001T   00001314+0000001139          1400 SY2150               1AZ
109798002109798018-000136     109798006001023659026MUG OCC LOVE W/PLUSH   0000001000+00003507+00000+0001T   00003507+0000001139          1400 SY2515               1AZ
109799000109799               109799               170213PG     1400+00000+PG0000001578+0000001578+000000000+000000221+0000001790+0000000009+I20000000000+0000001790+Z
109799001109799018-000127     109799006001023380289MUG OCC STRAIGHT LOVE  0000001000+00001578+00000+0001T   00001753+0006471149          1400 SY2515               1AZ
109800000109800               109800               170213PG     1400+00000+PG0000001314+0000001314+000000000+000000184+0000001490+0000000008+I20000000000+0000001490+Z
109800001109800018-000119     109800006003000336074MUG DAILY STRAIGHT     0000001000+00001314+00000+0001T   00001753+0008171157          1400 SY2515               1AZ
109801000109801               109801               170213PG     1400+00000+PG0000000876+0000000876+000000000+000000123+0000000990+0000000009+I20000000000+0000000990+Z
109801001109801078-000025     109801008887013700064SUPERGLUE 3g 1PCE CARD 0000001000+00000876+00000+0001T   00000876+0000001201          1400 SY2810               1AZ
109802000109802               109802               170213PG     1400+00000+PG0000009957+0000009957+000000000+000001395+0000011352+0000000000+I40000011352+0000000000+Z
109802001109802112-116069     109802006009681820277TCS CARRIER BAG JUMBO  0000001000+00000048+00000+0001T   00000048+0000001210          1400 SY2090               1AZ
109802002109802073-000158     109802006003000683352COSMETIC BAG 18x10x3   0000001000+00002192+00000+0001T   00002192+0000001210          1400 SY2200               1AZ
109802003109802073-000152     109802006003000683390COSMETIC BAG 18X9X5    0000001000-00001490+00000+0001T   00001490+0000001210          1400 SY22002IC            1 Z
109802004109802073-000152     109802006003000683390COSMETIC BAG 18X9X5    0000001000+00001490+00000+0001T   00001490+0000001210          1400 SY22002IC            1AZ
109802005109802073-000158     109802006003000683352COSMETIC BAG 18x10x3   0000001000-00002192+00000+0001T   00002192+0000001210          1400 SY22002IC            1 Z
109802006109802368-000049     109802006003000536955PLUSH BEAR 15cm LOVE   0000002000+00004385+00000+0001T   00004385+0000001210          1400 SY2745               1AZ
109802007109802903-000087     109802006001704000161SWT SPECKLED-EGGS 50G  0000001000+00001139+00000+0001T   00001139+0000001210          1400 SY2150               1AZ
109803000109803               109803               170213PG     1400+00000+PG0000006612+0000006612+000000000+000000931+0000007540+0000000003+I20000000000+0000007540+Z
109803001109803112-116069     109803006009681820277TCS CARRIER BAG JUMBO  0000001000+00000048+00000+0001T   00000048+0000001215          1400 SY2090               1AZ
109803002109803903-000155     109803006009803374435SWT LOLLY I LUV U HEART0000005000+00000525+00000+0001T   00000525+0000001215          1400 SY2150               1AZ
109803003109803018-000177     109803006001023797513MUG MINI LOVE ASSTD    0000002000+00000700+00000+0001T   00000700+0000001215          1400 SY2515               1AZ
109803004109803903-000183     109803006003000451043SWT LB HEART LOLLY     0000002000+00000393+00000+0001T   00000393+0000001215          1400 SY2150               1AZ
109803005109803162-083941     109803006001492839417SS HEADBANDS           0000001000+00001753+00000+0001T   00001753+0000001215          1400 SY2160               1AZ
109804000109804               109804               170213PG     1400+00000+PG0000004782+0000004782+000000000+000000670+0000005450+0000000002+I20000000000+0000005450+Z
109804001109804018-005009     109804006001023725608MUG W/PLUSH-BEAR LOVE  0000001000+00003507+00000+0001T   00003507+0000001216          1400 SY2515               1AZ
109804002109804077-000319     109804006001023609779GIFT-BAG 18X23CM BIRTHD0000001000+00001227+00000+0001T   00001227+0000001216          1400 SY2112               1AZ
109804003109804112-116069     109804006009681820277TCS CARRIER BAG JUMBO  0000001000+00000048+00000+0001T   00000048+0000001216          1400 SY2090               1AZ
109805000109805               109805               170213PG     1400+00000+PG0000003204+0000003204+000000000+000000449+0000003650+0000000003+I20000000000+0000003650+Z
109805001109805018-000127     109805006001023380289MUG OCC STRAIGHT LOVE  0000002000+00001578+00000+0001T   00001753+0006471221          1400 SY2515               1AZ
109805002109805112-116069     109805006009681820277TCS CARRIER BAG JUMBO  0000001000+00000048+00000+0001T   00000048+0000001221          1400 SY2090               1AZ
109806000109806               109806               170213PG     1400+00000+PG0000006185+0000006185+000000000+000000867+0000007050+0000000002+I20000000000+0000007050+Z
109806001109806566-000367     109806006003000645558STICKER WINDOW DECOR   0000001000+00002630+00000+0001T   00002630+0000001224          1400 SY2130               1AZ
109806002109806112-116069     109806006009681820277TCS CARRIER BAG JUMBO  0000001000+00000048+00000+0001T   00000048+0000001224          1400 SY2090               1AZ
109806003109806567-011364     109806009780709721611BK PUZZLE CROSSWORD    0000001000+00003507+00000+0001T   00003507+0000001224          1400 SY2757               1AZ
109807000109807               109807               170213PG     1400+00000+PG0000003507+0000003507+000000000+000000491+0000003990+0000000008+I20000000000+0000003990+Z
109807001109807007-000324     10980700600968585864125 SHEETS BRIGHTS MARLI0000001000+00003507+00000+0001T   00003507+0000001227          1400 SY2130               1AZ
109808000109808               109808               170213PG     1400+00000+PG0000005259+0000005259+000000000+000000738+0000005990+0000000007+I20000000000+0000005990+Z
109808001109808142-000812     109808006003000165421GLOVES LATEX 10PCE-5PRS0000001000+00002630+00000+0001T   00002630+0000001237          1400 SY2810               1AZ
109808002109808142-000814     109808006001023183910GLOVES RUBBER  MEDIUM  0000001000+00001753+00000+0001T   00001753+0000001237          1400 SY2810               1AZ
109808003109808903-000220     109808006001704007368SWT JELLY BEANS 60G    0000001000+00000876+00000+0001T   00000876+0000001237          1400 SY2150               1AZ
109809000109809               109809               170213PG     1400+00000+PG0000004941+0000004941+000000000+000000693+0000005630+0000000004+I20000000000+0000005630+Z
109809001109809112-116038     109809006009681820246TCS CARRIER BAG MIDI   0000001000+00000035+00000+0001T   00000035+0000001239          1400 SY2090               1AZ
109809002109809159-000149     109809006003000010998SOAP-DISH FOUR-LEAF    0000001000+00001314+00000+0001T   00001314+0000001239          1400 SY2200               1AZ
109809003109809251-000072     109809006003000452019PROTECTION-PADS BLK ADH0000001000+00001490+00000+0001T   00001490+0000001239          1400 SY2810               1AZ
109809004109809078-009100     109809006008741002349ALL-CLEAR GLUE 25ml CRD0000001000+00001314+00000+0001T   00001314+0000001239          1400 SY2810               1AZ
109809005109809033-005991     109809006001023678546NEEDLES H/HOLD-REPAIR  0000001000+00000788+00000+0001T   00000788+0000001239          1400 SY2200               1AZ
109810000109810               109810               170213PG     1400+00000+PG0000005084+0000005084+000000000+000000713+0000005790+0000000007+I20000000000+0000005790+Z
109810001109810024-091100     109810006001023914224BAKING-CUPS PAPER 100PC0000001000+00001753+00000+0001T   00001753+0000001247          1400 SY2300               1AZ
109810002109810018-000127     109810006001023380289MUG OCC STRAIGHT LOVE  0000001000+00001578+00000+0001T   00001753+0006471247          1400 SY2515               1AZ
109810003109810024-091100     109810006001023914224BAKING-CUPS PAPER 100PC0000001000+00001753+00000+0001T   00001753+0000001247          1400 SY2300               1AZ
109811000109811               109811               170213PG     1400+00000+PG0000019685+0000019685+000000000+000002760+0000022445+0000000000+I40000022445+0000000000+Z
109811001109811112-116069     109811006009681820277TCS CARRIER BAG JUMBO  0000001000+00000048+00000+0001T   00000048+0000001256          1400 SY2090               1AZ
109811002109811006-000108     109811006003000587995BALLOONS 6PC RED/WHT   0000001000+00001753+00000+0001T   00001753+0000001256          1400 SY2131               1AZ
109811003109811001-091415     109811006003000329113W/GLS OCC. LOVE 2PC 2800000001000+00008771+00000+0001T   00009648+0006471256          1400 SY2515               1AZ
109811004109811080-000127     109811006003000424351VALENTINES DAY 36x24CM 0000001000+00002192+00000+0001T   00002192+0000001256          1400 SY2112               1AZ
109811005109811001-000175     109811006001023788108B/MUG GLS LOVE 380ML   0000001000+00004385+00000+0001T   00004385+0000001256          1400 SY2515               1AZ
109811006109811903-000155     109811006009803374435SWT LOLLY I LUV U HEART0000002000+00000525+00000+0001T   00000525+0000001256          1400 SY2150               1AZ
109811007109811903-000183     109811006003000451043SWT LB HEART LOLLY     0000002000+00000393+00000+0001T   00000393+0000001256          1400 SY2150               1AZ
109811008109811903-000070     109811006001704001106SWT TOFFEE CREAMY 35g  0000001000+00000700+00000+0001T   00000700+0000001256          1400 SY2150               1AZ
109812000109812               109812               170213PG     1400+00000+PG0000001578+0000001578+000000000+000000221+0000001790+0000000009+I20000000000+0000001790+Z
109812001109812018-000127     109812006001023380289MUG OCC STRAIGHT LOVE  0000001000+00001578+00000+0001T   00001753+0006471257          1400 SY2515               1AZ
109813000109813               109813               170213PG     1400+00000+PG0000009591+0000009591+000000000+000001345+0000010936+0000000000+I40000010936+0000000000+Z
109813001109813112-116038     109813006009681820246TCS CARRIER BAG MIDI   0000001000+00000035+00000+0001T   00000035+0000001310          1400 SY2090               1AZ
109813002109813368-000049     109813006003000536955PLUSH BEAR 15cm LOVE   0000002000+00004385+00000+0001T   00004385+0000001310          1400 SY2745               1AZ
109813003109813903-000183     109813006003000451043SWT LB HEART LOLLY     0000002000+00000393+00000+0001T   00000393+0000001310          1400 SY2150               1AZ
109814000109814               109814               170213PG     1400+00000+PG0000003944+0000003944+000000000+000000553+0000004497+0000000000+I40000004497+0000000000+Z
109814001109814079-013032-H   109814006003000496501GLITTER PRINCESS ACC   0000001000+00002630+00000+0001T   00002630+0000001318          1400 SY2130               1AZ
109814002109814034-000329     109814006001023564290BOTTLE-BRUSHES WHT 2PCE0000001000+00001314+00000+0001T   00001314+0000001318          1400 SY2215               1AZ
109815000109815               109815               170213PG     1400+00000+PG0000004471+0000004471+000000000+000000627+0000005090+0000000008+I20000000000+0000005090+Z
109815001109815464-000107     109815000073854318089PLAY-CARDS 2nd (SINGLE)0000001000+00003069+00000+0001T   00003069+0000001326          1400 SY2785               1AZ
109815002109815105-001005     109815006001023858214CONTAINERS MINI 6PCE   0000001000+00001402+00000+0001T   00001402+0000001326          1400 SY2210               1AZ
109816000109816               109816               170213PG     1400+00000+PG0000004734+0000004734+000000000+000000663+0000005397+0000000000+I40000005397+0000000000+Z
109816001109816200-000092     109816006003000576739PICNIC PAPER PLATES 23c0000001000+00001227+00000+0001T   00001227+0000001328          1400 SY2214               1AZ
109816002109816047-009003     109816006001023810427CABLE TWIRLY 1.8m      0000001000+00003507+00000+0001T   00003507+0000001328          1400 SY2880               1AZ
109817000109817               109817               170213PG     1400+00000+PG0000001490+0000001490+000000000+000000209+0000001690+0000000009+I20000000000+0000001690+Z
109817001109817105-001061     109817006003000629121CONTAINER CLIP LOCK    0000001000+00001490+00000+0001T   00001490+0000001333          1400 SY2210               1AZ
109818000109818               109818               170213PG     1400+00000+PG0000019331+0000019331+000000000+000002712+0000022043+0000000000+I40000022043+0000000000+Z
109818001109818112-116069     109818006009681820277TCS CARRIER BAG JUMBO  0000001000+00000048+00000+0001T   00000048+0000001346          1400 SY2090               1AZ
109818002109818105-001032     109818000700371696634CONTAINER FOODSAVER 1.20000005000+00001753+00000+0001T   00001753+0000001346          1400 SY2210               1AZ
109818003109818105-001036     109818006003000621118CONTAINER W/VENT 350ml 0000002000+00000876+00000+0001T   00001490+0008161346          1400 SY2210               1AZ
109818004109818105-001037     109818006003000615438CONTAINER W/VENT 700ml 0000001000+00001314+00000+0001T   00001753+0008161346          1400 SY2210               1AZ
109818005109818033-001365     109818006001023802118HAIR CLIPS 200PC ASSTD 0000001000+00002630+00000+0001T   00002630+0000001346          1400 SY2200               1AZ
109818006109818018-000210     109818006003000580095MUG DAILY TEXTS 4-ASST 0000001000+00001753+00000+0001T   00001753+0000001346          1400 SY2515               1AZ
109818007109818033-000600     109818006003000365098HAIR-BRUSH 23cm VENT   0000001000+00003069+00000+0001T   00003069+0000001346          1400 SY2200               1AZ
109819000109819               109819               170213PG     1400+00000+PG0000004383+0000004383+000000000+000000614+0000004990+0000000007+I20000000000+0000004990+Z
109819001109819018-000136     109819006001023659026MUG OCC LOVE W/PLUSH   0000001000+00003507+00000+0001T   00003507+0000001352          1400 SY2515               1AZ
109819002109819077-000302     109819008010410010195GIFT-BAG 18X23CM E/D   0000001000+00000876+00000+0001T   00000876+0000001352          1400 SY2112               1AZ
109820000109820               109820               170213PG     1400+00000+PG0000014031+0000014031+000000000+000001966+0000015997+0000000000+I40000015997+0000000000+Z
109820001109820562-002008     109820006003000228300EDU THINK SIMPLE SUMS  0000001000+00007016+00000+0001T   00007016+0000001357          1400 SY2755               1AZ
109820002109820562-002006     109820006003000228065LEARNING THE OPPOSITES 0000001000+00004385+00000+0001T   00006139+0008141357          1400 SY2755               1AZ
109820003109820562-000504     109820006001023619327EDU CUBE RUBIX         0000001000+00002630+00000+0001T   00002630+0000001357          1400 SY2755               1AZ
109821000109821               109821               170213PG     1400+00000+PG0000007562+0000007562+000000000+000001061+0000008623+0000000000+I40000008623+0000000000+Z
109821001109821903-000137     109821006002099004130SWEET GS JELLY BEAN 60G0000002000+00000788+00000+0001T   00000788+0000001438          1400 Y52150               1AZ
109821002109821112-116038     109821006009681820246TCS CARRIER BAG MIDI   0000001000+00000035+00000+0001T   00000035+0000001438          1400 Y52090               1AZ
109821003109821033-000125     109821006009654960658COMBS GENTS MINI 2PC   0000001000+00001051+00000+0001T   00001051+0000001438          1400 Y52200               1AZ
109821004109821018-000177     109821006001023797513MUG MINI LOVE ASSTD    0000004000+00000700+00000+0001T   00000700+0000001438          1400 Y52515               1AZ
109821005109821903-000071     109821006001704001120SWT TOFFEE LIQURICE 35g0000003000+00000700+00000+0001T   00000700+0000001438          1400 Y52150               1AZ
109822000109822               109822               170213PG     1400+00000+PG0000005431+0000005431+000000000+000000763+0000006194+0000000000+I40000006194+0000000000+Z
109822001109822079-009702-G   109822008427973060787PAPER SIRIO A2 FUSHIA  0000002000+00001051+00000+0001T   00001051+0000001507          1400 SY2130               1AZ
109822002109822566-001500     109822006003000658275STICKER PUFFY EMOTION  0000001000+00001753+00000+0001T   00001753+0000001507          1400 SY2130               1AZ
109822003109822566-000062     109822006001023689641S/BOOK STICKER GLITTER 0000001000+00000700+00000+0001T   00000876+0008151507          1400 SY2130               1AZ
109822004109822566-020154     109822000728502803607STICKERS PUFFY ASSTD   0000001000+00000876+00000+0001T   00000876+0000001507          1400 SY2130               1AZ
109823000109823               109823               170213PG     1400+00000+PG0000006048+0000006048+000000000+000000849+0000006897+0000000000+I40000006897+0000000000+Z
109823001109823106-001118     109823006009654960320WATER BOTTLE PL 500ml  0000003000+00002016+00000+0001T   00002016+0000001511          1400 SY2210               1AZ
109824000109824               109824               170213PG     1400+00000+PG0000013461+0000013461+000000000+000001887+0000015340+0000000008+I20000000000+0000015340+Z
109824001109824112-116069     109824006009681820277TCS CARRIER BAG JUMBO  0000001000+00000048+00000+0001T   00000048+0000001513          1400 SY2090               1AZ
109824002109824077-000904     109824006003000410682G/WRAP 700mmx1m PATTERN0000001000+00001753+00000+0001T   00001753+0000001513          1400 SY2112               1AZ
109824003109824105-007016     109824006003000685059CONTAINER ROUND CLR    0000004000+00002192+00000+0001T   00002192+0000001513          1400 SY2210               1AZ
109824004109824079-000510     109824006001023509079CRAYONS WAX 12-COLOUR  0000001000+00002455+00000+0001T   00002455+0000001513          1400 SY2130               1AZ
109824005109824071-000212     109824006009608641190CHALK WHITE 12PCE      0000001000+00000437+00000+0001T   00000437+0000001513          1400 SY2130               1AZ
109825000109825               109825               170213PG     1400+00000+PG0000003067+0000003067+000000000+000000430+0000003490+0000000007+I20000000000+0000003490+Z
109825001109825077-000302     109825008010410010195GIFT-BAG 18X23CM E/D   0000001000+00000876+00000+0001T   00000876+0000001520          1400 SY2112               1AZ
109825002109825018-000127     109825006001023380289MUG OCC STRAIGHT LOVE  0000001000+00001578+00000+0001T   00001753+0006471520          1400 SY2515               1AZ
109825003109825304-001011     109825006001023806727FLWR ROSE RED W/BEAR   0000001000+00000613+00000+0001T   00000788+0006471520          1400 SY2510               1AZ
109826000109826               109826               170213PG     1400+00000+PG0000007016+0000007016+000000000+000000983+0000007999+0000000000+I40000007999+0000000000+Z
109826001109826562-000070     109826006003000600748EDU PLAY DOUGH 50g 8pc 0000001000+00007016+00000+0001T   00007016+0000001525          1400 SY2755               1AZ
109827000109827               109827               170213PG     1400+00000+PG0000000613+0000000613+000000000+000000086+0000000690+0000000009+I20000000000+0000000690+Z
109827001109827304-001011     109827006001023806727FLWR ROSE RED W/BEAR   0000001000+00000613+00000+0001T   00000788+0006471528          1400 SY2510               1AZ
109828000109828               109828               170213PG     1400+00000+PG0000001490+0000001490+000000000+000000209+0000001690+0000000009+I20000000000+0000001690+Z
109828001109828036-000605     109828006001023158611WASHING-PEGS WDN PCK-240000001000+00001490+00000+0001T   00001490+0000001528          1400 SY2212               1AZ
109829000109829               109829               170213PG     1400+00000+PG0000007892+0000007892+000000000+000001105+0000008997+0000000000+I40000008997+0000000000+Z
109829001109829082-000385     109829006001023694164SPECTACLE-CASE ASSTD   0000001000+00003507+00000+0001T   00003507+0000001532          1400 SY2160               1AZ
109829002109829082-000115     109829006003000360604READING GLS STRNGHT:2.50000001000+00004385+00000+0001T   00004385+0000001532          1400 SY2160               1AZ
109830000109830               109830               170213PG     1400+00000+PG0000011886+0000011886+000000000+000001666+0000013552+0000000000+I40000013552+0000000000+Z
109830001109830301-085008     109830006003000673933ORN OCC.LOVE TINSEL HRT0000001000+00003069+00000+0001T   00003069+0000001540          1400 SY2505               1AZ
109830002109830024-000102     109830006001023421951B/TRAY NON-STICK MEDIUM0000001000+00006139+00000+0001T   00006139+0000001540          1400 SY2300               1AZ
109830003109830112-116069     109830006009681820277TCS CARRIER BAG JUMBO  0000001000+00000048+00000+0001T   00000048+0000001540          1400 SY2090               1AZ
109830004109830077-000270     109830006003000395453GIFT-BAG PPR JMB 33X45 0000001000+00002630+00000+0001T   00002630+0000001540          1400 SY2112               1AZ
109831000109831               109831               170213PG     1400+00000+PG0000004384+0000004384+000000000+000000614+0000004990+0000000008+I20000000000+0000004990+Z
109831001109831007-000046     109831006009635831366DISPLAY-BOOK PL A4 30PG0000002000+00002192+00000+0001T   00002192+0000001545          1400 SY2130               1AZ
109832000109832               109832               170213PG     1400+00000+PG0000000035+0000000035+000000000+000000005+0000000040+0000000000+I20000000000+0000000040+Z
109832001109832112-116038     109832006009681820246TCS CARRIER BAG MIDI   0000001000+00000035+00000+0001T   00000035+0000001547          1400 SY2090               1AZ
109833000109833               109833               170213PG     1400+00000+PG0000001753+0000001753+000000000+000000246+0000001990+0000000009+I20000000000+0000001990+Z
109833001109833012-000001     109833006003000331048MICRO PLATE-COVER 26X6 0000001000+00001753+00000+0001T   00002192+0008191548          1400 SY2300               1AZ
109834000109834               109834               170213PG     1400+00000+PG0000003506+0000003506+000000000+000000492+0000003990+0000000008+I20000000000+0000003990+Z
109834001109834301-085006     109834006001023502940ORN LOVE MSG TUBE W/HRT0000001000+00001753+00000+0001T   00001753+0000001550          1400 SY2505               1AZ
109834002109834301-085002     109834006003000420704ORN OCC. LOVE BELL ASST0000001000+00001753+00000+0001T   00002630+0008121550          1400 SY2505               1AZ
109835000109835               109835               170213PG     1400+00000+PG0000000874+0000000874+000000000+000000124+0000000990+0000000008+I20000000000+0000000990+Z
109835001109835080-000133-A   109835006003000647019MINI VALENTINES CARD   0000002000+00000437+00000+0001T   00000437+0000001552          1400 SY2112               1AZ
109836000109836               109836               170213PG     1400+00000+PG0000006601+0000006601+000000000+000000929+0000007530+0000000000+I40000007530+0000000000+Z
109836001109836112-116038     109836006009681820246TCS CARRIER BAG MIDI   0000001000+00000035+00000+0001T   00000035+0000001607          1400 SY2090               1AZ
109836002109836903-000155     109836006009803374435SWT LOLLY I LUV U HEART0000004000+00000525+00000+0001T   00000525+0000001607          1400 SY2150               1AZ
109836003109836903-000200     109836006009826020234SWT CHOC RP CHOCO 23G  0000004000+00000788+00000+0001T   00000788+0000001607          1400 SY2150               1AZ
109836004109836903-000194     109836006009826020616SWT CHOC RP LOLLY 25G  0000001000+00001314+00000+0001T   00001314+0000001607          1400 SY2150               1AZ
109837000109837               109837               170213PG     1400+00000+PG0000001578+0000001578+000000000+000000221+0000001790+0000000009+I20000000000+0000001790+Z
109837001109837018-000127     109837006001023380289MUG OCC STRAIGHT LOVE  0000001000+00001578+00000+0001T   00001753+0006471622          1400 SY2515               1AZ
109838000109838               109838               170213PG     1400+00000+PG0000009144+0000009144+000000000+000001283+0000010427+0000000000+I40000010427+0000000000+Z
109838001109838112-116038     109838006009681820246TCS CARRIER BAG MIDI   0000001000+00000035+00000+0001T   00000035+0000001631          1400 SY2090               1AZ
109838002109838304-001011     109838006001023806727FLWR ROSE RED W/BEAR   0000003000+00000613+00000+0001T   00000788+0006471631          1400 SY2510               1AZ
109838003109838077-000245     109838006001023759214GIFT-RIBBON METALLICx2 0000001000+00001227+00000+0001T   00001227+0000001631          1400 SY2112               1AZ
109838004109838903-000194     109838006009826020616SWT CHOC RP LOLLY 25G  0000003000+00001314+00000+0001T   00001314+0000001631          1400 SY2150               1AZ
109838005109838903-000155     109838006009803374435SWT LOLLY I LUV U HEART0000001000+00000525+00000+0001T   00000525+0000001631          1400 SY2150               1AZ
109838006109838903-000200     109838006009826020234SWT CHOC RP CHOCO 23G  0000002000+00000788+00000+0001T   00000788+0000001631          1400 SY2150               1AZ
109839000109839               109839               170213PG     1400+00000+PG0000004418+0000004418+000000000+000000620+0000005038+0000000000+I40000005038+0000000000+Z
109839001109839112-116038     109839006009681820246TCS CARRIER BAG MIDI   0000001000+00000035+00000+0001T   00000035+0000001640          1400 SY2090               1AZ
109839002109839124-000001     109839000738380781690STORAGE TIN TISSUE     0000001000+00002630+00000+0001T   00003507+0008171640          1400 SY2300               1AZ
109839003109839080-000113     109839006003000237449CARD&ENVLPE - LOVE     0000001000+00001753+00000+0001T   00001753+0000001640          1400 SY2112               1AZ
109840000109840               109840               170213PG     1400+00000+PG0000019321+0000019321+000000000+000002709+0000022030+0000000000+I40000022030+0000000000+Z
109840001109840112-116069     109840006009681820277TCS CARRIER BAG JUMBO  0000001000+00000048+00000+0001T   00000048+0000001644          1400 SY2090               1AZ
109840002109840304-001011     109840006001023806727FLWR ROSE RED W/BEAR   0000014000+00000613+00000+0001T   00000788+0006471644          1400 SY2510               1AZ
109840003109840368-000049     109840006003000536955PLUSH BEAR 15cm LOVE   0000001000+00004385+00000+0001T   00004385+0000001644          1400 SY2745               1AZ
109840004109840903-000155     109840006009803374435SWT LOLLY I LUV U HEART0000002000+00000525+00000+0001T   00000525+0000001644          1400 SY2150               1AZ
109840005109840903-000194     109840006009826020616SWT CHOC RP LOLLY 25G  0000004000+00001314+00000+0001T   00001314+0000001644          1400 SY2150               1AZ
109841000109841               109841               170213PG     1400+00000+PG0000000437+0000000437+000000000+000000062+0000000490+0000000009+I20000000000+0000000490+Z
109841001109841080-000133-A   109841006003000647019MINI VALENTINES CARD   0000001000+00000437+00000+0001T   00000437+0000001644          1400 SY2112               1AZ
109842000109842               109842               170213PG     1400+00000+PG0000002852+0000002852+000000000+000000401+0000003253+0000000000+I40000003253+0000000000+Z
109842001109842304-001204     109842006001023737984FLOWER OCC. TEDDY/ROSES0000002000+00001402+00000+0001T   00001490+0006471650          1400 SY2510               1AZ
109842002109842112-116069     109842006009681820277TCS CARRIER BAG JUMBO  0000001000+00000048+00000+0001T   00000048+0000001650          1400 SY2090               1AZ
109843000109843               109843               170213PG     1400+00000+PG0000001314+0000001314+000000000+000000184+0000001490+0000000008+I20000000000+0000001490+Z
109843001109843077-000407     109843006003000145096G/BAG PP 19X26X8CM     0000001000+00001314+00000+0001T   00001314+0000001651          1400 SY2112               1AZ
109844000109844               109844               170213PG     1400+00000+PG0000001402+0000001402+000000000+000000197+0000001590+0000000009+I20000000000+0000001590+Z
109844001109844046-000011     109844004897006172994BATTERIES SIZE:AA  2PCE0000001000+00001402+00000+0001T   00001402+0000001652          1400 SY2312               1AZ
109845000109845               109845               170213PG     1400+00000+PG0000002630+0000002630+000000000+000000369+0000002990+0000000009+I20000000000+0000002990+Z
109845001109845077-000270     109845006003000395453GIFT-BAG PPR JMB 33X45 0000001000+00002630+00000+0001T   00002630+0000001653          1400 SY2112               1AZ
109846000109846               109846               170213PG     1400+00000+PG0000005901+0000005901+000000000+000000830+0000006730+0000000001+I20000000000+0000006730+Z
109846001109846112-116038     109846006009681820246TCS CARRIER BAG MIDI   0000001000+00000035+00000+0001T   00000035+0000001700          1400 SY2090               1AZ
109846002109846039-000108     109846006001023524034TEA-LITE CANDLES 8PCE  0000001000+00001490+00000+0001T   00001490+0000001700          1400 SY2510               1AZ
109846003109846080-000133-A   109846006003000647019MINI VALENTINES CARD   0000004000+00000437+00000+0001T   00000437+0000001700          1400 SY2112               1AZ
109846004109846903-000194     109846006009826020616SWT CHOC RP LOLLY 25G  0000002000+00001314+00000+0001T   00001314+0000001700          1400 SY2150               1AZ
109847000109847               109847               170213PG     1400+00000+PG0000003102+0000003102+000000000+000000435+0000003530+0000000007+I20000000000+0000003530+Z
109847001109847018-000127     109847006001023380289MUG OCC STRAIGHT LOVE  0000001000+00001578+00000+0001T   00001753+0006471702          1400 SY2515               1AZ
109847002109847304-001011     109847006001023806727FLWR ROSE RED W/BEAR   0000001000+00000613+00000+0001T   00000788+0006471702          1400 SY2510               1AZ
109847003109847077-000302     109847008010410010195GIFT-BAG 18X23CM E/D   0000001000+00000876+00000+0001T   00000876+0000001702          1400 SY2112               1AZ
109847004109847112-116038     109847006009681820246TCS CARRIER BAG MIDI   0000001000+00000035+00000+0001T   00000035+0000001702          1400 SY2090               1AZ
109848000109848               109848               170213PG     1400+00000+PG0000001753+0000001753+000000000+000000246+0000001990+0000000009+I20000000000+0000001990+Z
109848001109848028-000904     109848006001023778949SKEWERS ESPETADA STICKS0000001000+00001753+00000+0001T   00001753+0000001704          1400 SY2305               1AZ
109849000109849               109849               170213PG     1400+00000+PG0000012313+0000012313+000000000+000001725+0000014038+0000000000+I40000014038+0000000000+Z
109849001109849077-000302     109849008010410010195GIFT-BAG 18X23CM E/D   0000001000+00000876+00000+0001T   00000876+0000001708          1400 SY2112               1AZ
109849002109849085-007021     109849006003000136902P/KNIFE LED 16-FUNCTION0000001000+00011402+00000+0001T   00011402+0000001708          1400 SY2305               1AZ
109849003109849112-116038     109849006009681820246TCS CARRIER BAG MIDI   0000001000+00000035+00000+0001T   00000035+0000001708          1400 SY2090               1AZ
109850000109850               109850               170213PG     1400+00000+PG0000005556+0000005556+000000000+000000780+0000006330+0000000006+I20000000000+0000006330+Z
109850001109850077-000381     109850006003000247707GIFT-BAG 25X32CM S/COL 0000001000+00001753+00000+0001T   00001753+0000001718          1400 SY2112               1AZ
109850002109850903-000095     109850006001704011495SWT SPECKLED-EGGS 100G 0000001000+00002104+00000+0001T   00002104+0000001718          1400 SY2150               1AZ
109850003109850903-000498     109850006001704013048SWT CHOC MIGHTY MALTS  0000001000+00001227+00000+0001T   00001227+0000001718          1400 SY2150               1AZ
109850004109850080-000133-A   109850006003000647019MINI VALENTINES CARD   0000001000+00000437+00000+0001T   00000437+0000001718          1400 SY2112               1AZ
109850005109850112-116038     109850006009681820246TCS CARRIER BAG MIDI   0000001000+00000035+00000+0001T   00000035+0000001718          1400 SY2090               1AZ
109851000109851               109851               170213PG     1400+00000+PG0000001227+0000001227+000000000+000000172+0000001390+0000000009+I20000000000+0000001390+Z
109851001109851077-000602     109851006003000395545GIFT-BAG MED 18X23CM   0000001000+00001227+00000+0001T   00001227+0000001719          1400 SY2112               1AZ
109852000109852               109852               170213PG     1400+00000+PG0000008769+0000008769+000000000+000001228+0000009997+0000000000+I40000009997+0000000000+Z
109852001109852301-085003     109852006003000420827ORN OCCASION LOVE KEY  0000001000+00005262+00000+0001T   00005262+0000001732          1400 SY2505               1AZ
109852002109852018-005009     109852006001023725608MUG W/PLUSH-BEAR LOVE  0000001000+00003507+00000+0001T   00003507+0000001732          1400 SY2515               1AZ
109853000109853               109853               170213PG     1400+00000+PG0000001139+0000001139+000000000+000000160+0000001299+0000000000+I40000001299+0000000000+Z
109853001109853046-000014     109853006001023725387BATTERIES SIZE:AAA 4PCE0000001000+00001139+00000+0001T   00001139+0000001737          1400 SY2312               1AZ
109854000109854               109854               170213PG     1400+00000+PG0000002451+0000002451+000000000+000000345+0000002790+0000000006+I20000000000+0000002790+Z
109854001109854306-000021-A   109854006001023891358EARBUDS COTTON 100PCE  0000001000+00000876+00000+0001T   00000876+0000001738          1400 SY2200               1AZ
109854002109854903-000151     109854006009803374411SWT SML RND R/BOW LOLLY0000003000+00000525+00000+0001T   00000525+0000001738          1400 SY2150               1AZ
109855000109855               109855               170213PG     1400+00000+PG0000003991+0000003991+000000000+000000561+0000004550+0000000002+I20000000000+0000004550+Z
109855001109855006-000108     109855006003000587995BALLOONS 6PC RED/WHT   0000001000+00001753+00000+0001T   00001753+0000001740          1400 SY2131               1AZ
109855002109855077-000457     109855006003000285662G/BAG METALLIC JMB SOL 0000001000+00001753+00000+0001T   00001753+0000001740          1400 SY2112               1AZ
109855003109855112-116069     109855006009681820277TCS CARRIER BAG JUMBO  0000001000+00000048+00000+0001T   00000048+0000001740          1400 SY2090               1AZ
109855004109855080-000133-A   109855006003000647019MINI VALENTINES CARD   0000001000+00000437+00000+0001T   00000437+0000001740          1400 SY2112               1AZ
A17021300                                          10284327PGSLAVE 1                       SY22IC
A17021301                                          10503156PGSLAVE 1                       SY22IC
M17021391                              CASH        PGSLAVE 1                       Z-REPORT No.   534TOTAL (Sales - Refunds)           4174.84       CASH TO BE BANKED                 1423.20       DEBIT CARDS                          0.00       CREDIT CARDS                      2751.64       Z-READING                         4174.84       AIRTIME DEBIT CARD SALES             0.00       AIRTIME CARD SALES                   0.00       OVERS/UNDERS                         0.00       AIRTIME CASH SALES                   0.00       GIFT CARDS                           0.00       GIFT CARD CASH SALES                 0.00       T O T A L  CASH PAYOUTS              0.00                                                                                                                                                                                                                                                                                                                                                      Z
M17021392                              CASH        PGABSENT                                                                                                                                                                                          ANNUAL LEAVE                                                                                                                                                                                    DAY OFF                                                                                                                                                                                         COMMENTS                                                                                                                                                                                                                                                                                                                                                                                       Z
Y17021300                                          PG00000000370054+000062
ZPG17021320183 SLAVE 1      SALES DATA                     NEXT INVOICE NO.  109856 0534
X PG Slave 1 First invoice 109794 170213 Last invoice 109855 170213 Next invoice 109856 Total number of records 000000235 clbackup completed 20:18:26
