101280000101280               101280               170213PH     1400+00000+PH0000011992+0000011992+000000000+000001679+0000013671+0000000000+I40000013671+0000000000+Z
101280001101280018-000170     101280006001023775528MUG OCC. LOVE 2PC MINI 0000001000+00002192+00000+0001T   00002192+0000000910          1400 AC6515               1AZ
101280002101280018-000177     101280006001023797513MUG MINI LOVE ASSTD    0000014000+00000700+00000+0001T   00000700+0000000910          1400 AC6515               1AZ
101281000101281               101281               170213PH     1400+00000+PH0000025167+0000025167+000000000+000003526+0000028693+0000000000+I40000028693+0000000000+Z
101281001101281077-000308     101281006001023595812GIFT-BAG 33X45CM E/DAY 0000001000+00001753+00000+0001T   00001753+0000000927          1400 AC6112               1AZ
101281002101281018-005009     101281006001023725608MUG W/PLUSH-BEAR LOVE  0000001000+00003507+00000+0001T   00003507+0000000927          1400 AC6515               1AZ
101281003101281039-000108     101281006001023524034TEA-LITE CANDLES 8PCE  0000001000+00001490+00000+0001T   00001490+0000000927          1400 AC6510               1AZ
101281004101281039-001023     101281006003000466337CANDLE TEA-LITE METALIC0000001000+00001753+00000+0001T   00001753+0000000927          1400 AC6510               1AZ
101281005101281031-080508     101281006001023802415P/FRAME PL 22X11CM LOVE0000001000+00004385+00000+0001T   00004385+0000000927          1400 AC6510               1AZ
101281006101281368-000113     101281006001023780874PLUSH BLINGED LOVE 30cm0000001000+00012279+00000+0001T   00012279+0000000927          1400 AC6745               1AZ
101282000101282               101282               170213PH     1400+00000+PH0000019164+0000019164+000000000+000002685+0000021849+0000000000+I40000021849+0000000000+Z
101282001101282112-116069     101282006009681820277TCS CARRIER BAG JUMBO  0000001000+00000048+00000+0001T   00000048+0000000930          1400 AC6090               1AZ
101282002101282031-000924     101282006001023669964P/FRAME COLLAGE PL     0000001000+00008771+00000+0001T   00008771+0000000930          1400 AC6510               1AZ
101282003101282077-000382     101282006003000247820GIFT-BAG MED 18X23CM   0000001000+00001753+00000+0001T   00001753+0000000930          1400 AC6112               1AZ
101282004101282206-000265     101282006003000678860ICE TRAY BLOCKS        0000001000+00003946+00000+0001T   00003946+0000000930          1400 AC6321               1AZ
101282005101282206-000260     101282006003000632183ICE TRAY BUILDING BLOCK0000001000+00003507+00000+0001T   00003507+0000000930          1400 AC6321               1AZ
101282006101282565-000071     101282006003000643387NOVELTY WIND UP CHATTER0000001000+00001139+00000+0001T   00001139+0000000930          1400 AC6745               1AZ
101283000101283               101283               170213PH     1400+00000+PH0000001753+0000001753+000000000+000000246+0000001990+0000000009+I20000000000+0000001990+Z
101283001101283006-000092     101283006001023739650BANNER BIRTHDAY PAPER  0000001000+00001753+00000+0001T   00001753+0000000931          1400 AC6131               1AZ
101284000101284               101284               170213PH     1400+00000+PH0000001575+0000001575+000000000+000000221+0000001790+0000000006+I20000000000+0000001790+Z
101284001101284464-000121     101284006003000640492PLAYING CARDS MINI     0000001000+00000700+00000+0001T   00000700+0000001005          1400 AC6785               1AZ
101284002101284903-000155     101284006009803374435SWT LOLLY I LUV U HEART0000001000+00000525+00000+0001T   00000525+0000001005          1400 AC6150               1AZ
101284003101284007-000104     101284006009685854865BK COVER BRWN KRFT ROLL0000001000+00000350+00000+0001T   00000350+0000001005          1400 AC6130               1AZ
101285000101285               101285               170213PH     1400+00000+PH0000018985+0000018985+000000000+000002662+0000021647+0000000000+I40000021647+0000000000+Z
101285001101285112-116069     101285006009681820277TCS CARRIER BAG JUMBO  0000001000+00000048+00000+0001T   00000048+0000001051          1400 AC6090               1AZ
101285002101285079-009702-D   101285008427973059354PAPER SIRIO A2 RED COL 0000001000+00001051+00000+0001T   00001051+0000001051          1400 AC6130               1AZ
101285003101285024-007001     101285006002580007688CAKE/BISCUIT-SERVER    0000001000+00003069+00000+0001T   00003069+0000001051          1400 AC6300               1AZ
101285004101285024-000118     101285006001023422316N/STICK C/PAN HEART    0000001000+00004385+00000+0001T   00004385+0000001051          1400 AC6300               1AZ
101285005101285037-050016     101285006001023674128ASHTRAY 9CM RND CLUB   0000001000+00001753+00000+0001T   00001753+0000001051          1400 AC6515               1AZ
101285006101285016-006505     101285006001023617576S/JAR GLS MINI CLIP    0000002000+00001490+00000+0001T   00001490+0000001051          1400 AC6300               1AZ
101285007101285563-000317-A   101285006001023776167SERVIETTES 20PK PATTERN0000001000+00002630+00000+0001T   00002630+0000001051          1400 AC6214               1AZ
101285008101285206-000210     101285006003000631582TOOTHPICK HOLDER FLOWER0000001000+00003069+00000+0001T   00003069+0000001051          1400 AC6321               1AZ
101286000101286               101286               170213PH     1400+00000+PH0000000350+0000000350+000000000+000000049+0000000390+0000000009+I20000000000+0000000390+Z
101286001101286007-000104     101286006009685854865BK COVER BRWN KRFT ROLL0000001000+00000350+00000+0001T   00000350+0000001052          1400 AC6130               1AZ
101287000101287               101287               170213PH     1400+00000+PH0000005260+0000005260+000000000+000000737+0000005990+0000000007+I20000000000+0000005990+Z
101287001101287903-000615     101287006003000617456SWT JET PLANE J/B 5G   0000001000+00001753+00000+0001T   00001753+0000001057          1400 AC6150               1AZ
101287002101287162-094259     101287006001492942599#TAG 6PK ER SET-STUDS  0000001000+00003507+00000+0001T   00003507+0000001057          1400 AC6160               1AZ
101288000101288               101288               170213PH     1400+00000+PH0000000000+0000000000+000000000+000000000+0000000000+0000000000+I20000000000+0000000000+Z
101288001101288079-009700-M   101288006003000634101PAPER SIRIO A4 PINK COL0000001000+00000306+00000+0001T   00000306+0000001103          1400 AC6130               1 Z
101288002101288079-009700-B   101288006003000547661PAPER SIRIO A4 WHITE   0000001000+00000306+00000+0001T   00000306+0000001103          1400 AC6130               1 Z
101288003101288079-009700-M   101288006003000634101PAPER SIRIO A4 PINK COL0000001000-00000306+00000+0001T   00000306+0000001103          1400 AC61302IC            1 Z
101288004101288079-009700-B   101288006003000547661PAPER SIRIO A4 WHITE   0000001000-00000306+00000+0001T   00000306+0000001103          1400 AC61302IC            1 Z
101289000101289               101289               170213PH     1400+00000+PH0000012278+0000012278+000000000+000001720+0000013998+0000000000+I40000013998+0000000000+Z
101289001101289124-001300     101289006003000486861STORAGE TIN WASHING    0000002000+00006139+00000+0001T   00006139+0000001107          1400 AC6300               1AZ
101290000101290               101290               170213PH     1400+00000+PH0000003541+0000003541+000000000+000000497+0000004030+0000000008+I20000000000+0000004030+Z
101290001101290112-116038     101290006009681820246TCS CARRIER BAG MIDI   0000001000+00000035+00000+0001T   00000035+0000001115          1400 AC6090               1AZ
101290002101290080-000133-A   101290006003000647019MINI VALENTINES CARD   0000001000+00000437+00000+0001T   00000437+0000001115          1400 AC6112               1AZ
101290003101290016-006513     101290006003000295739S/JAR GLS EMBOSS. 950ML0000001000+00003069+00000+0001T   00003069+0000001115          1400 AC6300               1AZ
101291000101291               101291               170213PH     1400+00000+PH0000012323+0000012323+000000000+000001727+0000014050+0000000000+I20000000000+0000014050+Z
101291001101291112-116069     101291006009681820277TCS CARRIER BAG JUMBO  0000001000+00000048+00000+0001T   00000048+0000001121          1400 AC6090               1AZ
101291002101291065-000053     101291006003000597123MUSICAL HAMMER         0000001000+00003507+00000+0001T   00003507+0000001121          1400 AC6745               1AZ
101291003101291365-000072     101291006003000012664PLAY-SET PL B/O MICROPH0000001000+00002630+00000+0001T   00003507+0008191121          1400 AC6725               1AZ
101291004101291065-006041     101291006001023712974TAMBOURINE 15cm P/BAND 0000001000+00001753+00000+0001T   00001753+0000001121          1400 AC6745               1AZ
101291005101291065-001008     101291006001023673190XYLOPHONE 8-KEYS SHAPES0000001000+00004385+00000+0001T   00004385+0000001121          1400 AC6745               1AZ
101292000101292               101292               170213PH     1400+00000+PH0000008770+0000008770+000000000+000001228+0000009990+0000000008+I20000000000+0000009990+Z
101292001101292030-000031-A   101292006003000457588PLAQUE W/WORDS ASSTD   0000001000+00004385+00000+0001T   00004823+0006471122          1400 AC6505               1AZ
101292002101292031-080508     101292006001023802415P/FRAME PL 22X11CM LOVE0000001000+00004385+00000+0001T   00004385+0000001122          1400 AC6510               1AZ
101293000101293               101293               170213PH     1400+00000+PH0000008803+0000008803+000000000+000001234+0000010037+0000000000+I40000010037+0000000000+Z
101293001101293112-116038     101293006009681820246TCS CARRIER BAG MIDI   0000001000+00000035+00000+0001T   00000035+0000001144          1400 AC6090               1AZ
101293002101293077-000239     101293006003000160419GIFT-RIBBON ROLL PEARL 0000001000+00001753+00000+0001T   00001753+0000001144          1400 AC6112               1AZ
101293003101293079-000336     101293006003000670758SUPER FINE MARKER PENS 0000001000+00005262+00000+0001T   00005262+0000001144          1400 AC6130               1AZ
101293004101293079-000206     101293006003000639700PENCIL CRAYONS THERAPY 0000001000+00001753+00000+0001T   00001753+0000001144          1400 AC6130               1AZ
101294000101294               101294               170213PH     1400+00000+PH0000002941+0000002941+000000000+000000413+0000003350+0000000004+I20000000000+0000003350+Z
101294001101294112-116069     101294006009681820277TCS CARRIER BAG JUMBO  0000001000+00000048+00000+0001T   00000048+0000001149          1400 AC6090               1AZ
101294002101294036-000151     101294006001023810588COATHANGERS    PACK-10 0000001000+00002893+00000+0001T   00002893+0000001149          1400 AC6212               1AZ
101295000101295               101295               170213PH     1400+00000+PH0000004384+0000004384+000000000+000000614+0000004990+0000000008+I20000000000+0000004990+Z
101295001101295024-091102     101295006003453000010BAKING-CUP PAPER 50PC  0000001000+00002192+00000+0001T   00002192+0000001203          1400 AC6300               1AZ
101295002101295200-000025-A   101295006925406841054BAG ZIPPERSEAL 15PC    0000001000+00002192+00000+0001T   00002192+0000001203          1400 AC6214               1AZ
101296000101296               101296               170213PH     1400+00000+PH0000000437+0000000437+000000000+000000062+0000000490+0000000009+I20000000000+0000000490+Z
101296001101296080-000133     101296006003000535613CARD&ENV MINI ASTD DSGN0000001000+00000437+00000+0001T   00000437+0000001204          1400 AC6112               1AZ
101297000101297               101297               170213PH     1400+00000+PH0000001490+0000001490+000000000+000000209+0000001690+0000000009+I20000000000+0000001690+Z
101297001101297466-001801     101297006001023343482BALLS TABLE-TENNIS BOX60000001000+00001490+00000+0001T   00001490+0000001217          1400 AC6785               1AZ
101298000101298               101298               170213PH     1400+00000+PH0000000876+0000000876+000000000+000000123+0000000990+0000000009+I20000000000+0000000990+Z
101298001101298077-000314     101298006003000181148GIFT-BAG 11X14CM MATT  0000001000+00000876+00000+0001T   00000876+0000001227          1400 AC6112               1AZ
101299000101299               101299               170213PH     1400+00000+PH0000000437+0000000437+000000000+000000062+0000000490+0000000009+I20000000000+0000000490+Z
101299001101299080-000133-A   101299006003000647019MINI VALENTINES CARD   0000001000+00000437+00000+0001T   00000437+0000001245          1400 AC6112               1AZ
101300000101300               101300               170213PH     1400+00000+PH0000001051+0000001051+000000000+000000148+0000001190+0000000009+I20000000000+0000001190+Z
101300001101300079-009702-F   101300008427973059392PAPER SIRIO A2 GREEN   0000001000+00001051+00000+0001T   00001051+0000001329          1400 AC6130               1AZ
101301000101301               101301               170213PH     1400+00000+PH0000029949+0000029949+000000000+000004196+0000034145+0000000000+I40000034145+0000000000+Z
101301001101301112-116069     101301006009681820277TCS CARRIER BAG JUMBO  0000001000+00000048+00000+0001T   00000048+0000001331          1400 AC6090               1AZ
101301002101301301-086010     101301006003000573400ORN TEABAG HOLDER 20cm 0000001000+00003069+00000+0001T   00003069+0000001331          1400 AC6505               1AZ
101301003101301206-000630     101301006003000631919SPECTACLE CLEANING BRUS0000002000+00001227+00000+0001T   00001227+0000001331          1400 AC6321               1AZ
101301004101301079-000510     101301006001023509079CRAYONS WAX 12-COLOUR  0000001000+00002455+00000+0001T   00002455+0000001331          1400 AC6130               1AZ
101301005101301079-130010     101301006003000496624ART+CRAFT FOAM DOLLS   0000001000+00004385+00000+0001T   00004385+0000001331          1400 AC6130               1AZ
101301006101301567-011441     101301009781842395752BK STICKER FAIRY PRINCE0000001000+00003507+00000+0001T   00003507+0000001331          1400 AC6757               1AZ
101301007101301560-000776     101301006001023472939ANIMALS FARM/WILD 6PCE 0000001000+00013157+00000+0001T   00013157+0000001331          1400 AC6745               1AZ
101301008101301080-000133-A   101301006003000647019MINI VALENTINES CARD   0000002000+00000437+00000+0001T   00000437+0000001331          1400 AC6112               1AZ
101302000101302               101302               170213PH     1400+00000+PH0000006173+0000006173+000000000+000000865+0000007030+0000000008+I20000000000+0000007030+Z
101302001101302112-116038     101302006009681820246TCS CARRIER BAG MIDI   0000001000+00000035+00000+0001T   00000035+0000001345          1400 AC6090               1AZ
101302002101302001-000175     101302006001023788108B/MUG GLS LOVE 380ML   0000001000+00004385+00000+0001T   00004385+0000001345          1400 AC6515               1AZ
101302003101302006-000124     101302006003000625888BALLOONS 10PC MIX COL  0000001000+00001753+00000+0001T   00001753+0000001345          1400 AC6131               1AZ
101303000101303               101303               170213PH     1400+00000+PH0000008802+0000008802+000000000+000001234+0000010030+0000000006+I20000000000+0000010030+Z
101303001101303112-116038     101303006009681820246TCS CARRIER BAG MIDI   0000001000+00000035+00000+0001T   00000035+0000001349          1400 AC6090               1AZ
101303002101303030-004070     101303006003000674381P/WDN SIGN 12X20CM ASS 0000001000+00003507+00000+0001T   00003507+0000001349          1400 AC6505               1AZ
101303003101303030-003700     101303006003000416790WALL DEC WDN ASTD WHT  0000002000+00002630+00000+0001T   00002630+0000001349          1400 AC6505               1AZ
101304000101304               101304               170213PH     1400+00000+PH0000014908+0000014908+000000000+000002089+0000016997+0000000000+I40000016997+0000000000+Z
101304001101304039-001023     101304006003000466337CANDLE TEA-LITE METALIC0000002000+00001753+00000+0001T   00001753+0000001351          1400 AC6510               1AZ
101304002101304368-000637     101304006001023874092PLUSH BEAR SLEEPING LOV0000001000+00011402+00000+0001T   00012279+0006471351          1400 AC6745               1AZ
101305000101305               101305               170213PH     1400+00000+PH0000007014+0000007014+000000000+000000982+0000007996+0000000000+I40000007996+0000000000+Z
101305001101305007-000324     10130500600968585864125 SHEETS BRIGHTS MARLI0000001000+00003507+00000+0001T   00003507+0000001400          1400 AC6130               1AZ
101305002101305079-011526     101305006003000408375GLITTER & SAND ART     0000001000+00003507+00000+0001T   00003507+0000001400          1400 AC6130               1AZ
101306000101306               101306               170213PH     1400+00000+PH0000012763+0000012763+000000000+000001788+0000014551+0000000000+I40000014551+0000000000+Z
101306001101306112-116069     101306006009681820277TCS CARRIER BAG JUMBO  0000001000+00000048+00000+0001T   00000048+0000001441          1400 AC6090               1AZ
101306002101306366-001100     101306006003000031443DRESS UP HAT PIRATE    0000001000+00005262+00000+0001T   00005262+0000001441          1400 AC6131               1AZ
101306003101306366-001101     101306006003000006991DRESS UP BOYS ASSTD    0000001000+00006139+00000+0001T   00006139+0000001441          1400 AC6131               1AZ
101306004101306903-004950     101306006002580020304SWT APRICOT SURPRISE   0000001000+00001314+00000+0001T   00001314+0000001441          1400 AC6150               1AZ
101307000101307               101307               170213PH     1400+00000+PH0000008765+0000008765+000000000+000001228+0000009993+0000000000+I40000009993+0000000000+Z
101307001101307018-000119     101307006003000336074MUG DAILY STRAIGHT     0000001000+00001314+00000+0001T   00001753+0008171444          1400 AC6515               1AZ
101307002101307903-000194     101307006009826020616SWT CHOC RP LOLLY 25G  0000001000+00001314+00000+0001T   00001314+0000001444          1400 AC6150               1AZ
101307003101307206-000260     101307006003000632183ICE TRAY BUILDING BLOCK0000001000+00003507+00000+0001T   00003507+0000001444          1400 AC6321               1AZ
101307004101307206-000390     101307006003000631438STRAW PL BUILD A STRAW 0000001000+00002630+00000+0001T   00002630+0000001444          1400 AC6321               1AZ
101308000101308               101308               170213PH     1400+00000+PH0000000437+0000000437+000000000+000000062+0000000490+0000000009+I20000000000+0000000490+Z
101308001101308080-000133-A   101308006003000647019MINI VALENTINES CARD   0000001000+00000437+00000+0001T   00000437+0000001444          1400 AC6112               1AZ
101309000101309               101309               170213PH     1400+00000+PH0000003069+0000003069+000000000+000000430+0000003499+0000000000+I40000003499+0000000000+Z
101309001101309464-000107     101309000073854318089PLAY-CARDS 2nd (SINGLE)0000001000+00003069+00000+0001T   00003069+0000001453          1400 AC6785               1AZ
101310000101310               101310               170213PH     1400+00000+PH0000003452+0000003452+000000000+000000485+0000003937+0000000000+I40000003937+0000000000+Z
101310001101310028-000400     101310006001023421661PLATE-HOLDERS 4PCE     0000001000+00001490+00000+0001T   00001490+0000001503          1400 AC6305               1AZ
101310002101310112-116038     101310006009681820246TCS CARRIER BAG MIDI   0000001000+00000035+00000+0001T   00000035+0000001503          1400 AC6090               1AZ
101310003101310028-000400     101310006001023421661PLATE-HOLDERS 4PCE     0000001000+00001490+00000+0001T   00001490+0000001503          1400 AC6305               1AZ
101310004101310080-000133-A   101310006003000647019MINI VALENTINES CARD   0000001000+00000437+00000+0001T   00000437+0000001503          1400 AC6112               1AZ
101311000101311               101311               170213PH     1400+00000+PH0000011450+0000011450+000000000+000001604+0000013054+0000000000+I40000013054+0000000000+Z
101311001101311112-116069     101311006009681820277TCS CARRIER BAG JUMBO  0000001000+00000048+00000+0001T   00000048+0000001505          1400 AC6090               1AZ
101311002101311368-000637     101311006001023874092PLUSH BEAR SLEEPING LOV0000001000+00011402+00000+0001T   00012279+0006471505          1400 AC6745               1AZ
101312000101312               101312               170213PH     1400+00000+PH0000010997+0000010997+000000000+000001540+0000012537+0000000000+I40000012537+0000000000+Z
101312001101312368-000049     101312006003000536955PLUSH BEAR 15cm LOVE   0000001000+00004385+00000+0001T   00004385+0000001515          1400 AC6745               1AZ
101312002101312112-116038     101312006009681820246TCS CARRIER BAG MIDI   0000001000+00000035+00000+0001T   00000035+0000001515          1400 AC6090               1AZ
101312003101312566-000359     101312006003000582709STICKER BOOK LOVE SPARK0000001000+00002192+00000+0001T   00002192+0000001515          1400 AC6130               1AZ
101312004101312368-000049     101312006003000536955PLUSH BEAR 15cm LOVE   0000001000+00004385+00000+0001T   00004385+0000001515          1400 AC6745               1AZ
101313000101313               101313               170213PH     1400+00000+PH0000004420+0000004420+000000000+000000619+0000005039+0000000000+I40000005039+0000000000+Z
101313001101313112-116038     101313006009681820246TCS CARRIER BAG MIDI   0000001000+00000035+00000+0001T   00000035+0000001517          1400 AC6090               1AZ
101313002101313001-000175     101313006001023788108B/MUG GLS LOVE 380ML   0000001000+00004385+00000+0001T   00004385+0000001517          1400 AC6515               1AZ
101314000101314               101314               170213PH     1400+00000+PH0000035487+0000035487+000000000+000004976+0000040463+0000000000+I40000040463+0000000000+Z
101314001101314112-116038     101314006009681820246TCS CARRIER BAG MIDI   0000001000+00000035+00000+0001T   00000035+0000001527          1400 AC6090               1AZ
101314002101314016-006517     101314006003000351626S/JAR GLS CHECK 650ML  0000003000+00002192+00000+0001T   00002192+0000001527          1400 AC6300               1AZ
101314003101314001-000410     101314006003000431175BEER-TUMBLER GLASS DAD 0000001000+00011402+00000+0001T   00011402+0000001527          1400 AC6515               1AZ
101314004101314112-116038     101314006009681820246TCS CARRIER BAG MIDI   0000001000+00000035+00000+0001T   00000035+0000001527          1400 AC6090               1AZ
101314005101314200-000011     101314006003000613489DISPOSABLE BAG ZIPER   0000001000+00003507+00000+0001T   00003507+0000001527          1400 AC6214               1AZ
101314006101314077-000245     101314006001023759214GIFT-RIBBON METALLICx2 0000001000+00001227+00000+0001T   00001227+0000001527          1400 AC6112               1AZ
101314007101314080-000133-A   101314006003000647019MINI VALENTINES CARD   0000003000+00000437+00000+0001T   00000437+0000001527          1400 AC6112               1AZ
101314008101314565-000040     101314006008766115635NOVELTY ICON BEANIE    0000003000+00002630+00000+0001T   00002630+0000001527          1400 AC6745               1AZ
101314009101314077-000151     101314006008766114676GIFT-WRAP C/PHANE ASSTD0000001000+00000876+00000+0001T   00000876+0000001527          1400 AC6112               1AZ
101314010101314077-000150-D   101314006003000054343GIFT-WRAP CELLPHANE CLR0000001000+00000876+00000+0001T   00000876+0000001527          1400 AC6112               1AZ
101314011101314077-000151     101314006008766114676GIFT-WRAP C/PHANE ASSTD0000002000+00000876+00000+0001T   00000876+0000001527          1400 AC6112               1AZ
101315000101315               101315               170213PH     1400+00000+PH0000019944+0000019944+000000000+000002798+0000022740+0000000002+I20000000000+0000022740+Z
101315001101315112-116069     101315006009681820277TCS CARRIER BAG JUMBO  0000001000+00000048+00000+0001T   00000048+0000001540          1400 AC6090               1AZ
101315002101315006-000190     101315006003000685530BALLOONS LOVE 81x91cm  0000001000+00004385+00000+0001T   00004385+0000001540          1400 AC6131               1AZ
101315003101315079-009702-D   101315008427973059354PAPER SIRIO A2 RED COL 0000002000+00001051+00000+0001T   00001051+0000001540          1400 AC6130               1AZ
101315004101315039-000114     101315006001023524058CANDLE T/LITE RED 3.5CM0000001000+00001753+00000+0001T   00001753+0000001540          1400 AC6510               1AZ
101315005101315563-000318-L   101315006003000407088SERVIETTES 33cm RED    0000001000+00002192+00000+0001T   00002192+0000001540          1400 AC6214               1AZ
101315006101315019-071594     101315006003000505579PEBBLES GLS 250g RED   0000002000+00002630+00000+0001T   00002630+0000001540          1400 AC6510               1AZ
101315007101315903-000200     101315006009826020234SWT CHOC RP CHOCO 23G  0000002000+00000788+00000+0001T   00000788+0000001540          1400 AC6150               1AZ
101315008101315903-000194     101315006009826020616SWT CHOC RP LOLLY 25G  0000002000+00001314+00000+0001T   00001314+0000001540          1400 AC6150               1AZ
101316000101316               101316               170213PH     1400+00000+PH0000016081+0000016081+000000000+000002254+0000018330+0000000005+I20000000000+0000018330+Z
101316001101316077-000351     101316006003000139033GIFT-BAG 18X23CM E/D P 0000001000+00001753+00000+0001T   00001753+0000001554          1400 AC6112               1AZ
101316002101316301-085007     101316006003000673698ORN OCC. LOVE S/PLAQUE 0000001000+00007893+00000+0001T   00007893+0000001554          1400 AC6505               1AZ
101316003101316080-000124     101316006003000297733CARD & ENV VALENTINES  0000001000+00001578+00000+0001T   00001578+0000001554          1400 AC6112               1AZ
101316004101316031-080508     101316006001023802415P/FRAME PL 22X11CM LOVE0000001000+00004385+00000+0001T   00004385+0000001554          1400 AC6510               1AZ
101316005101316112-116038     101316006009681820246TCS CARRIER BAG MIDI   0000001000+00000035+00000+0001T   00000035+0000001554          1400 AC6090               1AZ
101316006101316080-000133-A   101316006003000647019MINI VALENTINES CARD   0000001000+00000437+00000+0001T   00000437+0000001554          1400 AC6112               1AZ
101317000101317               101317               170213PH     1400+00000+PH0000025994+0000025994+000000000+000003646+0000029640+0000000000+I40000029640+0000000000+Z
101317001101317112-116069     101317006009681820277TCS CARRIER BAG JUMBO  0000001000+00000048+00000+0001T   00000048+0000001559          1400 AC6090               1AZ
101317002101317077-000315     101317006003000181186GIFT-BAG 20x28cm MATT  0000001000+00001578+00000+0001T   00001578+0000001559          1400 AC6112               1AZ
101317003101317466-001801     101317006001023343482BALLS TABLE-TENNIS BOX60000009000+00001490+00000+0001T   00001490+0000001559          1400 AC6785               1AZ
101317004101317019-071601     101317006001023771995RIVER-STONES 1kg WHITE 0000003000+00002630+00000+0001T   00002630+0000001559          1400 AC6510               1AZ
101317005101317466-001801     101317006001023343482BALLS TABLE-TENNIS BOX60000001000+00001490+00000+0001T   00001490+0000001559          1400 AC6785               1AZ
101317006101317018-000127     101317006001023380289MUG OCC STRAIGHT LOVE  0000001000+00001578+00000+0001T   00001753+0006471559          1400 AC6515               1AZ
101318000101318               101318               170213PH     1400+00000+PH0000012714+0000012714+000000000+000001781+0000014490+0000000005+I20000000000+0000014490+Z
101318001101318077-000472     101318006003000330133G-BAG DESGNR LRG 25X32 0000001000+00001753+00000+0001T   00001753+0000001602          1400 AC6112               1AZ
101318002101318301-085004     101318006003000420469ORN LOVE PLAQUE 21X10CM0000001000+00003507+00000+0001T   00003946+0006471602          1400 AC6505               1AZ
101318003101318007-000614     101318006001023768667DIARY W/LOCK+PEN LOVE  0000001000+00005262+00000+0001T   00005262+0000001602          1400 AC6130               1AZ
101318004101318080-000127     101318006003000424351VALENTINES DAY 36x24CM 0000001000+00002192+00000+0001T   00002192+0000001602          1400 AC6112               1AZ
101319000101319               101319               170213PH     1400+00000+PH0000001753+0000001753+000000000+000000246+0000001990+0000000009+I20000000000+0000001990+Z
101319001101319104-000020     101319006916920023026BASKET 25x14x10cm      0000001000+00001753+00000+0001T   00001753+0000001602          1400 AC6210               1AZ
101320000101320               101320               170213PH     1400+00000+PH0000001224+0000001224+000000000+000000172+0000001396+0000000000+I40000001396+0000000000+Z
101320001101320079-009700-A   101320006003000547746PAPER SIRIO A4 BLACK   0000001000+00000306+00000+0001T   00000306+0000001609          1400 AC6130               1AZ
101320002101320079-009700-F   101320006003000545872PAPER SIRIO A4 TURQ COL0000001000+00000306+00000+0001T   00000306+0000001609          1400 AC6130               1AZ
101320003101320079-009700-L   101320006003000546350PAPER SIRIO A4 YELLOW  0000001000+00000306+00000+0001T   00000306+0000001609          1400 AC6130               1AZ
101320004101320079-009700-D   101320006003000545711PAPER SIRIO A4 RED COL.0000001000+00000306+00000+0001T   00000306+0000001609          1400 AC6130               1AZ
101321000101321               101321               170213PH     1400+00000+PH0000000035+0000000035+000000000+000000005+0000000040+0000000000+I20000000000+0000000040+Z
101321001101321112-116038     101321006009681820246TCS CARRIER BAG MIDI   0000001000+00000035+00000+0001T   00000035+0000001610          1400 AC6090               1AZ
101322000101322               101322               170213PH     1400+00000+PH0000008101+0000008101+000000000+000001135+0000009236+0000000000+I40000009236+0000000000+Z
101322001101322112-116038     101322006009681820246TCS CARRIER BAG MIDI   0000001000+00000035+00000+0001T   00000035+0000001628          1400 AC6090               1AZ
101322002101322562-000051     101322006003000308798EDU EXCAVATION KIT ASST0000001000+00003507+00000+0001T   00003507+0000001628          1400 AC6755               1AZ
101322003101322016-006510     101322006003000593330STORAGE-JAR 6PC 10ml   0000001000+00001490+00000+0001T   00001490+0000001628          1400 AC6300               1AZ
101322004101322267-000202     101322006003000339808PUZZLE 48pc DINOSAUR   0000001000+00003069+00000+0001T   00003069+0000001628          1400 AC6755               1AZ
101323000101323               101323               170213PH     1400+00000+PH0000004416+0000004416+000000000+000000620+0000005036+0000000000+I40000005036+0000000000+Z
101323001101323112-116038     101323006009681820246TCS CARRIER BAG MIDI   0000001000+00000035+00000+0001T   00000035+0000001630          1400 AC6090               1AZ
101323002101323077-000302     101323008010410010195GIFT-BAG 18X23CM E/D   0000001000+00000876+00000+0001T   00000876+0000001630          1400 AC6112               1AZ
101323003101323077-000011-L   101323006001023808585P/TISSUE BRIGHT 10SHEET0000001000+00000876+00000+0001T   00000876+0000001630          1400 AC6112               1AZ
101323004101323080-000133-A   101323006003000647019MINI VALENTINES CARD   0000001000+00000437+00000+0001T   00000437+0000001630          1400 AC6112               1AZ
101323005101323077-000918     101323006003000413690G/WRAP 700mmx2m PATTERN0000001000+00002192+00000+0001T   00002192+0000001630          1400 AC6112               1AZ
101324000101324               101324               170213PH     1400+00000+PH0000012313+0000012313+000000000+000001725+0000014038+0000000000+I40000014038+0000000000+Z
101324001101324567-075470     101324009780751537499BK NOVEL CATEGORY B    0000002000+00006139+00000+0001T   00006139+0000001633          1400 AC6757               1AZ
101324002101324112-116038     101324006009681820246TCS CARRIER BAG MIDI   0000001000+00000035+00000+0001T   00000035+0000001633          1400 AC6090               1AZ
101325000101325               101325               170213PH     1400+00000+PH0000000437+0000000437+000000000+000000062+0000000490+0000000009+I20000000000+0000000490+Z
101325001101325080-000133-A   101325006003000647019MINI VALENTINES CARD   0000001000+00000437+00000+0001T   00000437+0000001637          1400 AC6112               1AZ
101326000101326               101326               170213PH     1400+00000+PH0000012751+0000012751+000000000+000001786+0000014537+0000000000+I40000014537+0000000000+Z
101326001101326112-116038     101326006009681820246TCS CARRIER BAG MIDI   0000001000+00000035+00000+0001T   00000035+0000001639          1400 AC6090               1AZ
101326002101326047-000012     101326006002521079279PLUG 1x16A+2x5A-2PIN   0000001000+00001753+00000+0001T   00001753+0000001639          1400 AC6880               1AZ
101326003101326206-000245     101326006003000680818BOTTLE CLEANER PLASTIC 0000001000+00002192+00000+0001T   00002192+0000001639          1400 AC6321               1AZ
101326004101326047-000011-H   101326006001023879943M/PLUG 6-WAY-SURGE     0000001000+00008771+00000+0001T   00008771+0000001639          1400 AC6880               1AZ
101327000101327               101327               170213PH     1400+00000+PH0000008771+0000008771+000000000+000001228+0000009990+0000000009+I20000000000+0000009990+Z
101327001101327368-000012     101327006003000610464PLUSH BEAR 30cm SITTING0000001000+00008771+00000+0001T   00008771+0000001646          1400 AC6745               1AZ
101328000101328               101328               170213PH     1400+00000+PH0000000964+0000000964+000000000+000000135+0000001090+0000000009+I20000000000+0000001090+Z
101328001101328007-000204     101328006009635835272EXAM-PAD 60SHT PUNCHED 0000001000+00000964+00000+0001T   00000964+0000001651          1400 AC6130               1AZ
101329000101329               101329               170213PH     1400+00000+PH0000006138+0000006138+000000000+000000860+0000006990+0000000008+I20000000000+0000006990+Z
101329001101329030-000031-A   101329006003000457588PLAQUE W/WORDS ASSTD   0000001000+00004385+00000+0001T   00004823+0006471652          1400 AC6505               1AZ
101329002101329080-000113     101329006003000237449CARD&ENVLPE - LOVE     0000001000+00001753+00000+0001T   00001753+0000001652          1400 AC6112               1AZ
101330000101330               101330               170213PH     1400+00000+PH0000002192+0000002192+000000000+000000307+0000002490+0000000009+I20000000000+0000002490+Z
101330001101330566-000359     101330006003000582709STICKER BOOK LOVE SPARK0000001000+00002192+00000+0001T   00002192+0000001656          1400 AC6130               1AZ
101331000101331               101331               170213PH     1400+00000+PH0000022183+0000022183+000000000+000003108+0000025291+0000000000+I40000025291+0000000000+Z
101331001101331368-000001     101331006003000097982Plush Bear 25cm        0000003000+00004385+00000+0001T   00004385+0000001707          1400 AC6745               1AZ
101331002101331206-000530     101331006003000620821BIRTHDAY CANDLES 6PC   0000001000+00001139+00000+0001T   00001753+0008181707          1400 AC6321               1AZ
101331003101331251-000012     101331006001023597915TAPE DUCT GREY 48mmx5m 0000001000+00002630+00000+0001T   00002630+0000001707          1400 AC6810               1AZ
101331004101331002-021040     101331006001023812216PARTY-PICKS 100PCE     0000001000+00000525+00000+0001T   00000525+0000001707          1400 AC6300               1AZ
101331005101331018-000127     101331006001023380289MUG OCC STRAIGHT LOVE  0000003000+00001578+00000+0001T   00001753+0006471707          1400 AC6515               1AZ
101332000101332               101332               170213PH     1400+00000+PH0000000437+0000000437+000000000+000000062+0000000499+0000000000+I40000000499+0000000000+Z
101332001101332080-000133-A   101332006003000647019MINI VALENTINES CARD   0000001000+00000437+00000+0001T   00000437+0000001711          1400 AC6112               1AZ
101333000101333               101333               170213PH     1400+00000+PH0000005647+0000005647+000000000+000000791+0000006438+0000000000+I40000006438+0000000000+Z
101333001101333206-000160     101333006003000628780CORN KERNELER          0000001000+00004385+00000+0001T   00004385+0000001713          1400 AC6321               1AZ
101333002101333206-000630     101333006003000631919SPECTACLE CLEANING BRUS0000001000+00001227+00000+0001T   00001227+0000001713          1400 AC6321               1AZ
101333003101333112-116038     101333006009681820246TCS CARRIER BAG MIDI   0000001000+00000035+00000+0001T   00000035+0000001713          1400 AC6090               1AZ
101334000101334               101334               170213PH     1400+00000+PH0000003069+0000003069+000000000+000000430+0000003499+0000000000+I40000003499+0000000000+Z
101334001101334079-000271     101334006003000160082PAINT-BRUSHES LRGE ART 0000001000+00003069+00000+0001T   00003069+0000001721          1400 AC6130               1AZ
101335000101335               101335               170213PH     1400+00000+PH0000005996+0000005996+000000000+000000841+0000006837+0000000000+I40000006837+0000000000+Z
101335001101335007-000723     101335006003000226078MEMO BOOK W/PEN 100SHTS0000001000+00001753+00000+0001T   00001753+0000001723          1400 AC6130               1AZ
101335002101335112-116038     101335006009681820246TCS CARRIER BAG MIDI   0000001000+00000035+00000+0001T   00000035+0000001723          1400 AC6090               1AZ
101335003101335105-007410     101335006003000629671CONTAINER MINI 300ml   0000001000+00002630+00000+0001T   00003507+0008171723          1400 AC6210               1AZ
101335004101335077-000315     101335006003000181186GIFT-BAG 20x28cm MATT  0000001000+00001578+00000+0001T   00001578+0000001723          1400 AC6112               1AZ
101336000101336               101336               170213PH     1400+00000+PH0000008590+0000008590+000000000+000001205+0000009795+0000000000+I40000009795+0000000000+Z
101336001101336077-000245     101336006001023759214GIFT-RIBBON METALLICx2 0000001000+00001227+00000+0001T   00001227+0000001749          1400 AC6112               1AZ
101336002101336104-000031     101336006003000614950BASKET PL 27x18x12cm   0000001000+00002630+00000+0001T   00002630+0000001749          1400 AC6210               1AZ
101336003101336077-000245     101336006001023759214GIFT-RIBBON METALLICx2 0000001000+00001227+00000+0001T   00001227+0000001749          1400 AC6112               1AZ
101336004101336200-003024     101336006001023657299REFUSE BAGS 20PCE BLACK0000001000+00001753+00000+0001T   00001753+0000001749          1400 AC6214               1AZ
101336005101336464-000114     101336006003000027057DICE 16MM CARD-OF-6    0000001000+00001753+00000+0001T   00001753+0000001749          1400 AC6785               1AZ
101337000101337               101337               170213PH     1400+00000+PH0000003945+0000003945+000000000+000000553+0000004498+0000000000+I40000004498+0000000000+Z
101337001101337077-000351     101337006003000139033GIFT-BAG 18X23CM E/D P 0000001000+00001753+00000+0001T   00001753+0000001751          1400 AC6112               1AZ
101337002101337080-000127     101337006003000424351VALENTINES DAY 36x24CM 0000001000+00002192+00000+0001T   00002192+0000001751          1400 AC6112               1AZ
101338000101338               101338               170213PH     1400+00000+PH0000007889+0000007889+000000000+000001106+0000008995+0000000000+I40000008995+0000000000+Z
101338001101338206-000310     101338006003000632787BOTTLE-STOPPER SILICONE0000001000+00002630+00000+0001T   00002630+0000001754          1400 AC6321               1AZ
101338002101338080-000127     101338006003000424351VALENTINES DAY 36x24CM 0000001000+00002192+00000+0001T   00002192+0000001754          1400 AC6112               1AZ
101338003101338036-000010     101338006003000675777LINT REMOVER STICKY    0000001000+00001753+00000+0001T   00001753+0000001754          1400 AC6212               1AZ
101338004101338077-000310     101338006001023608635GIFT-BAG 18X23CM GLOSS 0000001000+00001314+00000+0001T   00001314+0000001754          1400 AC61122IC            1AZ
101339000101339               101339               170213PH     1400+00000+PH0000012149+0000012149+000000000+000001702+0000013851+0000000000+I40000013851+0000000000+Z
101339001101339112-116069     101339006009681820277TCS CARRIER BAG JUMBO  0000001000+00000048+00000+0001T   00000048+0000001757          1400 AC6090               1AZ
101339002101339368-000001     101339006003000097982Plush Bear 25cm        0000002000+00004385+00000+0001T   00004385+0000001757          1400 AC6745               1AZ
101339003101339903-000619     101339006003000672455SWT LOLLY STR/BRRY 140G0000001000+00001753+00000+0001T   00001753+0000001757          1400 AC6150               1AZ
101339004101339018-000127     101339006001023380289MUG OCC STRAIGHT LOVE  0000001000+00001578+00000+0001T   00001753+0006471757          1400 AC6515               1AZ
101340000101340               101340               170213PH     1400+00000+PH0000002630+0000002630+000000000+000000369+0000002999+0000000000+I40000002999+0000000000+Z
101340001101340031-000868-B   101340006001023798565P/FRAME PL BLCK 13X18CM0000001000+00002630+00000+0001T   00002630+0000001758          1400 AC6510               1AZ
A17021300                                          11241390PHSLAVE 1                       AC62IC
B10133800                                          170213PH077-000310     17530670SLAVE 1     AC62IC0000002000+0000001000+0000000000000+
M17021391                              CASH        PHSLAVE 1                       Z-REPORT No.   538TOTAL (Sales - Refunds)           5763.01       CASH TO BE BANKED                 1476.10       DEBIT CARDS                          0.00       CREDIT CARDS                      4286.91       Z-READING                         5763.01       AIRTIME DEBIT CARD SALES             0.00       AIRTIME CARD SALES                   0.00       OVERS/UNDERS                         0.00       AIRTIME CASH SALES                   0.00       GIFT CARDS                           0.00       GIFT CARD CASH SALES                 0.00       T O T A L  CASH PAYOUTS              0.00                                                                                                                                                                                                                                                                                                                                                      Z
M17021392                              CASH        PHABSENT                                                                                                                                                                                          ANNUAL LEAVE                                                                                                                                                                                    DAY OFF                                                                                                                                                                                         COMMENTS                                                          THANK YOU PH                                                                                                                                                                                                                                                                                                                 Z
Y17021300                                          PH00000000506238+000061
ZPH17021320183 SLAVE 1      SALES DATA                     NEXT INVOICE NO.  101341 0538
X PH Slave 1 First invoice 101280 170213 Last invoice 101340 170213 Next invoice 101341 Total number of records 000000256 clbackup completed 20:18:40
