300264000300264               300264               170213PH     1400+00000+PH0000026298+0000026298+000000000+000003690+0000029988+           I90000000000+0000000000+Z
300264001300264004-078985     300264006003000093267EARPHONES MINI ASST COL0000006000+00001753+00000+0001T302832460000                    1400 2IC3102ICV             Z
300264002300264033-001365     300264006001023802118HAIR CLIPS 200PC ASSTD 0000006000+00002630+00000+0001T062832460000                    1400 2IC2002ICV             Z
M17021391                              CASH        PHSLAVE 3                       Z-REPORT No.   437TOTAL (Sales - Refunds)              0.00       CASH TO BE BANKED                    0.00       DEBIT CARDS                          0.00       CREDIT CARDS                         0.00       Z-READING                            0.00       AIRTIME DEBIT CARD SALES             0.00       AIRTIME CARD SALES                   0.00       OVERS/UNDERS                         0.00       AIRTIME CASH SALES                   0.00       GIFT CARDS                           0.00       GIFT CARD CASH SALES                 0.00       T O T A L  CASH PAYOUTS              0.00                                                                                                                                                                                                                                                                                                                                                      Z
M17021392                              CASH        PHABSENT                                                                                                                                                                                          ANNUAL LEAVE                                                                                                                                                                                    DAY OFF                                                                                                                                                                                         COMMENTS                                                                                                                                                                                                                                                                                                                                                                                       Z
Y17021300                                          PH00000000000000+000000
ZPH17021320183 SLAVE 3      SALES DATA                     NEXT INVOICE NO.  300265 0437
L54915000355942-001-001       PH1702130929022ICANDRONICA M.                                                                                                                                                                                                                                                                                                                                                                                                                                                                                                                                                                                                                                                                                                                                                                                                                                                                                                                                                                                         Z
L55467000359374-001-001       PH1702130928402ICANDRONICA M.                                                                                                                                                                                                                                                                                                                                                                                                                                                                                                                                                                                                                                                                                                                                                                                                                                                                                                                                                                                         Z
L57027200358734-001-001       PH1702130926132ICANDRONICA M.                                                                                                                                                                                                                                                                                                                                                                                                                                                                                                                                                                                                                                                                                                                                                                                                                                                                                                                                                                                         Z
L57300500359292-001-002       PH1702130928282ICANDRONICA M.                                                                                                                                                                                                                                                                                                                                                                                                                                                                                                                                                                                                                                                                                                                                                                                                                                                                                                                                                                                         Z
L57300500359292-002-002       PH1702130928102ICANDRONICA M.                                                                                                                                                                                                                                                                                                                                                                                                                                                                                                                                                                                                                                                                                                                                                                                                                                                                                                                                                                                         Z
L57690300357280-001-001       PH1702130935212ICANDRONICA M.                                                                                                                                                                                                                                                                                                                                                                                                                                                                                                                                                                                                                                                                                                                                                                                                                                                                                                                                                                                         Z
L57819800355855-001-001       PH1702130930292ICANDRONICA M.                                                                                                                                                                                                                                                                                                                                                                                                                                                                                                                                                                                                                                                                                                                                                                                                                                                                                                                                                                                         Z
L57830800356824-001-001       PH1702130929522ICANDRONICA M.                                                                                                                                                                                                                                                                                                                                                                                                                                                                                                                                                                                                                                                                                                                                                                                                                                                                                                                                                                                         Z
L57965100354790-001-005       PH1702130933282ICANDRONICA M.                                                                                                                                                                                                                                                                                                                                                                                                                                                                                                                                                                                                                                                                                                                                                                                                                                                                                                                                                                                         Z
L57965100354790-002-005       PH1702130933112ICANDRONICA M.                                                                                                                                                                                                                                                                                                                                                                                                                                                                                                                                                                                                                                                                                                                                                                                                                                                                                                                                                                                         Z
L57965100354790-003-005       PH1702130926242ICANDRONICA M.                                                                                                                                                                                                                                                                                                                                                                                                                                                                                                                                                                                                                                                                                                                                                                                                                                                                                                                                                                                         Z
L57965100354790-004-005       PH1702130928022ICANDRONICA M.                                                                                                                                                                                                                                                                                                                                                                                                                                                                                                                                                                                                                                                                                                                                                                                                                                                                                                                                                                                         Z
L57965100354790-005-005       PH1702130930032ICANDRONICA M.                                                                                                                                                                                                                                                                                                                                                                                                                                                                                                                                                                                                                                                                                                                                                                                                                                                                                                                                                                                         Z
L57967800359167-001-001       PH1702130928502ICANDRONICA M.                                                                                                                                                                                                                                                                                                                                                                                                                                                                                                                                                                                                                                                                                                                                                                                                                                                                                                                                                                                         Z
L57983800359165-001-001       PH1702130928342ICANDRONICA M.                                                                                                                                                                                                                                                                                                                                                                                                                                                                                                                                                                                                                                                                                                                                                                                                                                                                                                                                                                                         Z
L58095300343971-001-001       PH1702130930552ICANDRONICA M.                                                                                                                                                                                                                                                                                                                                                                                                                                                                                                                                                                                                                                                                                                                                                                                                                                                                                                                                                                                         Z
L58233300356990-001-003       PH1702130931182ICANDRONICA M.                                                                                                                                                                                                                                                                                                                                                                                                                                                                                                                                                                                                                                                                                                                                                                                                                                                                                                                                                                                         Z
L58233300356990-002-003       PH1702130929222ICANDRONICA M.                                                                                                                                                                                                                                                                                                                                                                                                                                                                                                                                                                                                                                                                                                                                                                                                                                                                                                                                                                                         Z
L58233300356990-003-003       PH1702130933032ICANDRONICA M.                                                                                                                                                                                                                                                                                                                                                                                                                                                                                                                                                                                                                                                                                                                                                                                                                                                                                                                                                                                         Z
L58244000358513-001-003       PH1702130932302ICANDRONICA M.                                                                                                                                                                                                                                                                                                                                                                                                                                                                                                                                                                                                                                                                                                                                                                                                                                                                                                                                                                                         Z
L58244000358513-002-003       PH1702130931442ICANDRONICA M.                                                                                                                                                                                                                                                                                                                                                                                                                                                                                                                                                                                                                                                                                                                                                                                                                                                                                                                                                                                         Z
L58244000358513-003-003       PH1702130932072ICANDRONICA M.                                                                                                                                                                                                                                                                                                                                                                                                                                                                                                                                                                                                                                                                                                                                                                                                                                                                                                                                                                                         Z
L58303400354761-001-001       PH1702130931272ICANDRONICA M.                                                                                                                                                                                                                                                                                                                                                                                                                                                                                                                                                                                                                                                                                                                                                                                                                                                                                                                                                                                         Z
L58385200355888-001-002       PH1702130928212ICANDRONICA M.                                                                                                                                                                                                                                                                                                                                                                                                                                                                                                                                                                                                                                                                                                                                                                                                                                                                                                                                                                                         Z
L58385200355888-002-002       PH1702130929302ICANDRONICA M.                                                                                                                                                                                                                                                                                                                                                                                                                                                                                                                                                                                                                                                                                                                                                                                                                                                                                                                                                                                         Z
L58395700353585-001-001       PH1702130932422ICANDRONICA M.                                                                                                                                                                                                                                                                                                                                                                                                                                                                                                                                                                                                                                                                                                                                                                                                                                                                                                                                                                                         Z
V54915000000585-001-001       PH1702130932422ICANDR               0000000000000001702130000002ICSLAVE 3     170213124324355942N              01
V55467000000585-001-001       PH1702130932422ICANDR               0000000000000001702130000002ICSLAVE 3     170213122131359374N              01
V57027200000585-001-001       PH1702130932422ICANDR               0000000000000001702130000002ICSLAVE 3     170213130357358734N              01
V57300500000585-001-001       PH1702130932422ICANDR               0000000000000001702130000002ICSLAVE 3     170213144932359292N              02
V57690300000585-001-001       PH1702130932422ICANDR               0000000000000001702130000002ICSLAVE 3     170213121400357280Y              01
V57819800000585-001-001       PH1702130932422ICANDR               0000000000000001702130000002ICSLAVE 3     170213121239355855N              01
V57830800000585-001-001       PH1702130932422ICANDR               0000000000000001702130000002ICSLAVE 3     170213121425356824N              01
V57965100000585-001-001       PH1702130932422ICANDR               000000000000000170213000000   SLAVE 3     000000000000354790               05
V57967800000585-001-001       PH1702130932422ICANDR               0000000000000001702130000002ICSLAVE 3     170213123118359167N              01
V57983800000585-001-001       PH1702130932422ICANDR               0000000000000001702130000002ICSLAVE 3     170213125159359165N              01
V58095300000585-001-001       PH1702130932422ICANDR               0000000000000001702130000002ICSLAVE 3     170213121213343971N              01
V58233300000585-001-001       PH1702130932422ICANDR               0000000000000001702130000002ICSLAVE 3     170213150410356990N              03
V58244000000585-001-001       PH1702130932422ICANDR               000000000000000170213000000   SLAVE 3     000000000000358513               03
V58303400000585-001-001       PH1702130932422ICANDR               0000000000000001702130000002ICSLAVE 3     170213121338354761N              01
V58385200000585-001-001       PH1702130932422ICANDR               0000000000000001702130000002ICSLAVE 3     170213153256355888N              02
V58395700000585-001-001       PH1702130932422ICANDR               0000000000000001702130000002ICSLAVE 3     170213121316353585N              01
X PH Slave 3 First invoice 300264 170213 Last invoice 300264 170213 Next invoice 300265 Total number of records 000000049 clbackup completed 20:18:45
