101481000101481               101481               170213PI     1400+00000+PI0000006187+0000006187+000000000+000000867+0000007054+0000000000+I40000007054+0000000000+Z
101481001101481497-068614     101481000078257686148H/PUMP HIGH-O/PUT 36cm 0000001000+00006139+00000+0001T   00006139+0000001119          1400 MO4787               1AZ
101481002101481112-116069     101481006009681820277TCS CARRIER BAG JUMBO  0000001000+00000048+00000+0001T   00000048+0000001119          1400 MO4090               1AZ
101482000101482               101482               170213PI     1400+00000+PI0000007752+0000007752+000000000+000001086+0000008830+0000000008+I20000000000+0000008830+Z
101482001101482018-000127     101482006001023380289MUG OCC STRAIGHT LOVE  0000001000+00001578+00000+0001T   00001753+0006471336          1400 MO4515               1AZ
101482002101482368-000265     101482006001023750914PLUSH BEAR 23CM ASSTD C0000001000+00006139+00000+0001T   00006139+0000001336          1400 MO4745               1AZ
101482003101482112-116038     101482006009681820246TCS CARRIER BAG MIDI   0000001000+00000035+00000+0001T   00000035+0000001336          1400 MO4090               1AZ
101483000101483               101483               170213PI     1400+00000+PI0000003507+0000003507+000000000+000000491+0000003990+0000000008+I20000000000+0000003990+Z
101483001101483018-005009     101483006001023725608MUG W/PLUSH-BEAR LOVE  0000001000+00003507+00000+0001T   00003507+0000001339          1400 MO4515               1AZ
101484000101484               101484               170213PI     1400+00000+PI0000007452+0000007452+000000000+000001045+0000008497+0000000000+I40000008497+0000000000+Z
101484001101484369-000225     101484006001023857132BABY EDU BATHTIME 5PC  0000001000+00002630+00000+0001T   00002630+0000001352          1400 MO4745               1AZ
101484002101484369-000215     101484006001023857071BABY EDU BATHTIME BOATS0000001000+00002630+00000+0001T   00002630+0000001352          1400 MO4745               1AZ
101484003101484369-001010     101484006001023864222BATH VINYL DUCK 4PC    0000001000+00002192+00000+0001T   00002192+0000001352          1400 MO4745               1AZ
101485000101485               101485               170213PI     1400+00000+PI0000001490+0000001490+000000000+000000209+0000001690+0000000009+I20000000000+0000001690+Z
101485001101485034-078833     101485006001023857491SIGN BABY-ON-BOARD     0000001000+00001490+00000+0001T   00001490+0000001412          1400 MO4215               1AZ
101486000101486               101486               170213PI     1400+00000+PI0000007451+0000007451+000000000+000001044+0000008490+0000000005+I20000000000+0000008490+Z
101486001101486031-000025     101486006003000427185P/FRAME PL MOMMY       0000001000+00003507+00000+0001T   00003507+0000001503          1400 MO4510               1AZ
101486002101486031-000923     101486006001023669933P/FRAME BLK W/WORDS    0000001000+00003507+00000+0001T   00003507+0000001503          1400 MO4510               1AZ
101486003101486903-000011     101486006002099007315SWT MALLOW CHOC 15G    0000001000+00000437+00000+0001T   00000437+0000001503          1400 MO4150               1AZ
101487000101487               101487               170213PI     1400+00000+PI0000004821+0000004821+000000000+000000675+0000005496+0000000000+I40000005496+0000000000+Z
101487001101487018-005009     101487006001023725608MUG W/PLUSH-BEAR LOVE  0000001000+00003507+00000+0001T   00003507+0000001518          1400 MO4515               1AZ
101487002101487077-000310     101487006001023608635GIFT-BAG 18X23CM GLOSS 0000001000+00001314+00000+0001T   00001314+0000001518          1400 MO4112               1AZ
101488000101488               101488               170213PI     1400+00000+PI0000006838+0000006838+000000000+000000959+0000007790+0000000007+I20000000000+0000007790+Z
101488001101488002-000717     101488006001023775184CHOPPING-MATS FLEX 2PCE0000001000+00002630+00000+0001T   00002630+0000001523          1400 MO4300               1AZ
101488002101488104-000052     101488006003000450787BASKET PL 23x8x13cm    0000001000+00002455+00000+0001T   00002455+0000001523          1400 MO4210               1AZ
101488003101488104-000010     101488006001023507822BASKET 30x23cm RECT.   0000001000+00001753+00000+0001T   00001753+0000001523          1400 MO4210               1AZ
101489000101489               101489               170213PI     1400+00000+PI0000006139+0000006139+000000000+000000860+0000006999+0000000000+I40000006999+0000000000+Z
101489001101489368-000664     101489006001023874399PLUSH BEAR/DOG/MOUSE   0000001000+00006139+00000+0001T   00007893+0008141525          1400 MO4745               1AZ
101490000101490               101490               170213PI     1400+00000+PI0000000437+0000000437+000000000+000000062+0000000490+0000000009+I20000000000+0000000490+Z
101490001101490903-000094     101490006923431501622SWT GS CANDY NECKLACE  0000001000+00000437+00000+0001T   00000437+0000001534          1400 MO4150               1AZ
101491000101491               101491               170213PI     1400+00000+PI0000004296+0000004296+000000000+000000602+0000004890+0000000008+I20000000000+0000004890+Z
101491001101491089-000220     101491006003000677368KEY CHAIN+PEN+KNIFE    0000001000+00003069+00000+0001T   00003069+0000001535          1400 MO4205               1AZ
101491002101491077-000319     101491006001023609779GIFT-BAG 18X23CM BIRTHD0000001000+00001227+00000+0001T   00001227+0000001535          1400 MO4112               1AZ
101492000101492               101492               170213PI     1400+00000+PI0000003507+0000003507+000000000+000000491+0000003990+0000000008+I20000000000+0000003990+Z
101492001101492162-096716     101492006001492967165#TAG KIDS ALICEBAND BOW0000001000+00003507+00000+0001T   00003507+0000001538          1400 MO4160               1AZ
101493000101493               101493               170213PI     1400+00000+PI0000011399+0000011399+000000000+000001597+0000012996+0000000000+I40000012996+0000000000+Z
101493001101493077-000151     101493006008766114676GIFT-WRAP C/PHANE ASSTD0000002000+00000876+00000+0001T   00000876+0000001540          1400 MO4112               1AZ
101493002101493368-000049     101493006003000536955PLUSH BEAR 15cm LOVE   0000001000+00004385+00000+0001T   00004385+0000001540          1400 MO4745               1AZ
101493003101493006-000098     101493006003000601325PARTY PHOTO BOOTH 20PC 0000001000+00005262+00000+0001T   00005262+0000001540          1400 MO4131               1AZ
101494000101494               101494               170213PI     1400+00000+PI0000001314+0000001314+000000000+000000184+0000001490+0000000008+I20000000000+0000001490+Z
101494001101494567-011408     101494009781615685967BK PUZZLE BIBLE WORD   0000001000+00001314+00000+0001T   00001314+0000001541          1400 MO4757               1AZ
101495000101495               101495               170213PI     1400+00000+PI0000006662+0000006662+000000000+000000934+0000007596+0000000000+I40000007596+0000000000+Z
101495001101495018-005009     101495006001023725608MUG W/PLUSH-BEAR LOVE  0000001000+00003507+00000+0001T   00003507+0000001546          1400 MO4515               1AZ
101495002101495903-000155     101495006009803374435SWT LOLLY I LUV U HEART0000001000+00000525+00000+0001T   00000525+0000001546          1400 MO4150               1AZ
101495003101495560-000202     101495006003000322008SNAKE PVC ASSTD        0000001000+00002630+00000+0001T   00002630+0000001546          1400 MO4745               1AZ
101496000101496               101496               170213PI     1400+00000+PI0000008590+0000008590+000000000+000001204+0000009790+0000000004+I20000000000+0000009790+Z
101496001101496079-000600     101496006003000160990ART-SHEETS FOAM ASSTD-C0000001000+00003507+00000+0001T   00003507+0000001547          1400 MO4130               1AZ
101496002101496464-000122     101496006003000638987PLAYING CARDS POKER 2PK0000001000+00001753+00000+0001T   00001753+0000001547          1400 MO4785               1AZ
101496003101496071-005669     101496006003000153268STAPLER MINI W/STAPLES 0000001000+00002630+00000+0001T   00002630+0000001547          1400 MO4130               1AZ
101496004101496464-000121     101496006003000640492PLAYING CARDS MINI     0000001000+00000700+00000+0001T   00000700+0000001547          1400 MO4785               1AZ
101497000101497               101497               170213PI     1400+00000+PI0000002630+0000002630+000000000+000000369+0000002990+0000000009+I20000000000+0000002990+Z
101497001101497034-078810     101497006001023856838DIAPER DISPOSE-BAGSx1000000001000+00002630+00000+0001T   00002630+0000001548          1400 MO4215               1AZ
101498000101498               101498               170213PI     1400+00000+PI0000004823+0000004823+000000000+000000676+0000005490+0000000009+I20000000000+0000005490+Z
101498001101498301-085001     101498006003000297610ORN WATERBALL LOVE ASST0000001000+00004823+00000+0001T   00004823+0000001558          1400 MO4505               1AZ
101499000101499               101499               170213PI     1400+00000+PI0000004822+0000004822+000000000+000000676+0000005498+0000000000+I40000005498+0000000000+Z
101499001101499077-000456     101499006003000285549G/BAG METALLIC JMB EMB 0000001000+00002630+00000+0001T   00002630+0000001602          1400 MO4112               1AZ
101499002101499080-000127     101499006003000424351VALENTINES DAY 36x24CM 0000001000+00002192+00000+0001T   00002192+0000001602          1400 MO4112               1AZ
101500000101500               101500               170213PI     1400+00000+PI0000007893+0000007893+000000000+000001106+0000008990+0000000009+I20000000000+0000008990+Z
101500001101500369-000500     101500006003000478767BABY KEYS & REMOTE     0000001000+00007893+00000+0001T   00007893+0000001610          1400 MO4745               1AZ
101501000101501               101501               170213PI     1400+00000+PI0000000525+0000000525+000000000+000000074+0000000590+0000000009+I20000000000+0000000590+Z
101501001101501903-000151     101501006009803374411SWT SML RND R/BOW LOLLY0000001000+00000525+00000+0001T   00000525+0000001611          1400 MO4150               1AZ
101502000101502               101502               170213PI     1400+00000+PI0000003507+0000003507+000000000+000000491+0000003990+0000000008+I20000000000+0000003990+Z
101502001101502072-020259     101502006001023602664DOG-CHEW BONE 10cm 2PCE0000001000+00003507+00000+0001T   00003507+0000001616          1400 MO4870               1AZ
101503000101503               101503               170213PI     1400+00000+PI0000003506+0000003506+000000000+000000492+0000003998+0000000000+I40000003998+0000000000+Z
101503001101503019-000130     101503006003000456130PLANTER T/PLATE W/HNDL 0000002000+00001753+00000+0001T   00001753+0000001640          1400 NB7510               1CZ
101504000101504               101504               170213PI     1400+00000+PI0000033701+0000033701+000000000+000004725+0000038426+0000000000+I40000038426+0000000000+Z
101504001101504466-006134     101504006001023647658GOLF-SET PL 3PCE       0000001000+00002630+00000+0001T   00002630+0000001644          1400 NB7785               1CZ
101504002101504903-004952     101504006002580020052SWT FREAKY FACES 100G  0000001000+00001314+00000+0001T   00001314+0000001644          1400 NB7150               1CZ
101504003101504903-000211     101504006002099001238SWT GS MALLOW ICE CREAM0000002000+00001753+00000+0001T   00001753+0000001644          1400 NB7150               1CZ
101504004101504565-000040     101504006008766115635NOVELTY ICON BEANIE    0000001000+00002630+00000+0001T   00002630+0000001644          1400 NB7745               1CZ
101504005101504079-013099     101504006003000081875ART+CRAFT EYES ASSTD   0000001000+00001753+00000+0001T   00001753+0000001644          1400 NB7130               1CZ
101504006101504464-000121     101504006003000640492PLAYING CARDS MINI     0000001000+00000700+00000+0001T   00000700+0000001644          1400 NB7785               1CZ
101504007101504079-000126     101504006003000661633ANIMAL PUZZLE PACK     0000001000+00001753+00000+0001T   00001753+0000001644          1400 NB7130               1CZ
101504008101504566-000043     101504006003000142590SCRAPBOOK KIT 20PCE    0000001000+00001139+00000+0001T   00001578+0008151644          1400 NB7130               1CZ
101504009101504903-002900     101504005996071650648QUICK MILK 5 CHOCO 5PC 0000002000+00001578+00000+0001T   00001578+0000001644          1400 NB7150               1CZ
101504010101504079-013111     101504006003000683024CREATE A HAT SET       0000002000+00003946+00000+0001T   00003946+0000001644          1400 NB7130               1CZ
101504011101504464-000122     101504006003000638987PLAYING CARDS POKER 2PK0000001000+00001753+00000+0001T   00001753+0000001644          1400 NB7785               1CZ
101504012101504112-116069     101504006009681820277TCS CARRIER BAG JUMBO  0000001000+00000048+00000+0001T   00000048+0000001644          1400 NB7090               1CZ
101504013101504903-000517     101504006001704012768SWT STRAWS FIZZY CHERRY0000001000+00001227+00000+0001T   00001227+0000001644          1400 NB7150               1CZ
101504014101504018-000177     101504006001023797513MUG MINI LOVE ASSTD    0000006000+00000700+00000+0001T   00000700+0000001644          1400 NB7515               1CZ
101505000101505               101505               170213PI     1400+00000+PI0000002192+0000002192+000000000+000000307+0000002490+0000000009+I20000000000+0000002490+Z
101505001101505080-000127     101505006003000424351VALENTINES DAY 36x24CM 0000001000+00002192+00000+0001T   00002192+0000001703          1400 MO4112               1AZ
101506000101506               101506               170213PI     1400+00000+PI0000001753+0000001753+000000000+000000246+0000001990+0000000009+I20000000000+0000001990+Z
101506001101506037-000004     101506006001023763679ASHTRAY PL TUB 8X11CM  0000001000+00001753+00000+0001T   00002192+0008191704          1400 MO4515               1AZ
101507000101507               101507               170213PI     1400+00000+PI0000005834+0000005834+000000000+000000819+0000006653+0000000000+I40000006653+0000000000+Z
101507001101507036-000151     101507006001023810588COATHANGERS    PACK-10 0000002000+00002893+00000+0001T   00002893+0000001709          1400 MO4212               1AZ
101507002101507112-116069     101507006009681820277TCS CARRIER BAG JUMBO  0000001000+00000048+00000+0001T   00000048+0000001709          1400 MO4090               1AZ
101508000101508               101508               170213PI     1400+00000+PI0000001402+0000001402+000000000+000000197+0000001599+0000000000+I40000001599+0000000000+Z
101508001101508105-000750     101508006003000190270CONTAINERS 4xMINI 150ml0000001000+00001402+00000+0001T   00001402+0000001715          1400 MO4210               1AZ
101509000101509               101509               170213PI     1400+00000+PI0000005260+0000005260+000000000+000000738+0000005990+0000000008+I20000000000+0000005990+Z
101509001101509006-000203-A   101509006003453010965SNACK BOX 6PCE ASSTD   0000002000+00002630+00000+0001T   00002630+0000001716          1400 MO4131               1AZ
101510000101510               101510               170213PI     1400+00000+PI0000011888+0000011888+000000000+000001665+0000013553+0000000000+I40000013553+0000000000+Z
101510001101510040-000051     101510006001023799494C/HOLDER GLASS LANTERN 0000001000+00003069+00000+0001T   00003069+0000001719          1400 MO4510               1AZ
101510002101510368-000614     101510006001023705808PLUSH LOVE 30cm        0000001000+00008771+00000+0001T   00008771+0000001719          1400 MO4745               1AZ
101510003101510112-116069     101510006009681820277TCS CARRIER BAG JUMBO  0000001000+00000048+00000+0001T   00000048+0000001719          1400 MO4090               1AZ
101511000101511               101511               170213PI     1400+00000+PI0000001753+0000001753+000000000+000000246+0000001990+0000000009+I20000000000+0000001990+Z
101511001101511024-091102-A   101511006003000328314BAKING-CUP CUPCAKE 75PC0000001000+00001753+00000+0001T   00001753+0000001720          1400 MO4300               1AZ
101512000101512               101512               170213PI     1400+00000+PI0000003507+0000003507+000000000+000000491+0000003998+0000000000+I40000003998+0000000000+Z
101512001101512089-000018     101512006003000176724KEY CHAIN INSPIRATION  0000001000+00003507+00000+0001T   00003507+0000001722          1400 MO4205               1AZ
101513000101513               101513               170213PI     1400+00000+PI0000005699+0000005699+000000000+000000798+0000006497+0000000000+I40000006497+0000000000+Z
101513001101513080-000114     101513006003000246472CARD&ENV LOVE-MUSICAL  0000001000+00001314+00000+0001T   00001753+0008151725          1400 MO4112               1AZ
101513002101513089-000017     101513006003000331147KEYCHAIN MOM POLY BOX  0000001000+00004385+00000+0001T   00004385+0000001725          1400 MO4205               1AZ
101514000101514               101514               170213PI     1400+00000+PI0000000613+0000000613+000000000+000000086+0000000690+0000000009+I20000000000+0000000690+Z
101514001101514565-000044     101514006003000128280BARREL OF SLIME 100g   0000001000+00000613+00000+0001T   00000613+0000001737          1400 MO4745               1AZ
101515000101515               101515               170213PI     1400+00000+PI0000002800+0000002800+000000000+000000392+0000003190+0000000002+I20000000000+0000003190+Z
101515001101515261-000121     101515006001023341600GUN-CAPS 8-SHOT CARD-9 0000004000+00000700+00000+0001T   00000700+0000001756          1400 MO4710               1AZ
101516000101516               101516               170213PI     1400+00000+PI0000003069+0000003069+000000000+000000430+0000003499+0000000000+I40000003499+0000000000+Z
101516001101516024-000212     101516006001023858030COOKIE-CUTTERS PL SMALL0000001000+00003069+00000+0001T   00003069+0000001758          1400 MO4300               1AZ
101517000101517               101517               170213PI     1400+00000+PI0000002453+0000002453+000000000+000000344+0000002790+0000000007+I20000000000+0000002790+Z
101517001101517077-000301     101517008010410010188BAG LRG 25X32CM B/DAY  0000001000+00001753+00000+0001T   00001753+0000001759          1400 MO4112               1AZ
101517002101517018-000177     101517006001023797513MUG MINI LOVE ASSTD    0000001000+00000700+00000+0001T   00000700+0000001759          1400 MO4515               1AZ
101518000101518               101518               170213PI     1400+00000+PI0000003507+0000003507+000000000+000000491+0000003990+0000000008+I20000000000+0000003990+Z
101518001101518560-000302     101518006001023834874DINOSAUR ASSTD DESIGNS 0000001000+00003507+00000+0001T   00003507+0000001759          1400 MO4745               1AZ
101519000101519               101519               170213PI     1400+00000+PI0000003507+0000003507+000000000+000000491+0000003990+0000000008+I20000000000+0000003990+Z
101519001101519567-010159     101519006003000484881BOOK TOP ASSTD CHILDREN0000001000+00003507+00000+0001T   00003507+0000001827          1400 NB7757               1CZ
101520000101520               101520               170213PI     1400+00000+PI0000002630+0000002630+000000000+000000369+0000002990+0000000009+I20000000000+0000002990+Z
101520001101520018-000129     101520006001023403353MUG OCC. LOVE V-SHAPE  0000001000+00002630+00000+0001T   00002630+0000001828          1400 NB7515               1CZ
101521000101521               101521               170213PI     1400+00000+PI0000004385+0000004385+000000000+000000614+0000004990+0000000009+I20000000000+0000004990+Z
101521001101521368-000049     101521006003000536955PLUSH BEAR 15cm LOVE   0000001000+00004385+00000+0001T   00004385+0000001831          1400 NB7745               1CZ
A17021300                                          11341270PISLAVE 1                       MO41IC
A17021301                                          17193037PISLAVE 1                       MO42IC
A17021302                                          18300546PISLAVE 1                       NB71IC
M17021391                              CASH        PISLAVE 1                       Z-REPORT No.   506TOTAL (Sales - Refunds)           2409.39       CASH TO BE BANKED                 1085.80       DEBIT CARDS                          0.00       CREDIT CARDS                      1323.59       Z-READING                         2409.39       AIRTIME DEBIT CARD SALES             0.00       AIRTIME CARD SALES                   0.00       OVERS/UNDERS                         0.00       AIRTIME CASH SALES                   0.00       GIFT CARDS                           0.00       GIFT CARD CASH SALES                 0.00       T O T A L  CASH PAYOUTS              0.00                                                                                                                                                                                                                                                                                                                                                      Z
M17021392                              CASH        PIABSENT                                                                                                                                                                                          ANNUAL LEAVE                                                                                                                                                                                    DAY OFF                                                                                                                                                                                         COMMENTS                                                                                                                                                                                                                                                                                                                                                                                       Z
Y17021300                                          PI00000000211501+000041
ZPI17021320183 SLAVE 1      SALES DATA                     NEXT INVOICE NO.  101522 0506
F086509007-000890-16      1604190850230000051ICSLAVE 1
X PI Slave 1 First invoice 101481 170213 Last invoice 101521 170213 Next invoice 101522 Total number of records 000000127 clbackup completed 20:18:39
