206354000206354               206354               170213PI     1400+00000+PI0000005085+0000005085+000000000+000000712+0000005790+0000000007+I20000000000+0000005790+Z
206354001206354077-000303     206354006001023593757GIFT-BAG PAPER MED     0000001000+00001578+00000+0001T   00001578+0000000905          1400 AI6112               2AZ
206354002206354018-005009     206354006001023725608MUG W/PLUSH-BEAR LOVE  0000001000+00003507+00000+0001T   00003507+0000000905          1400 AI6515               2AZ
206355000206355               206355               170213PI     1400+00000+PI0000004420+0000004420+000000000+000000619+0000005030+0000000009+I20000000000+0000005030+Z
206355001206355031-000868-D   206355006003000580330P/FRAME PL BLCK CERT.  0000001000+00004385+00000+0001T   00004385+0000001002          1400 AI6510               2AZ
206355002206355112-116038     206355006009681820246TCS CARRIER BAG MIDI   0000001000+00000035+00000+0001T   00000035+0000001002          1400 AI6090               2AZ
206356000206356               206356               170213PI     1400+00000+PI0000008819+0000008819+000000000+000001235+0000010054+0000000000+I40000010054+0000000000+Z
206356001206356112-116069     206356006009681820277TCS CARRIER BAG JUMBO  0000001000+00000048+00000+0001T   00000048+0000001041          1400 AI6090               2AZ
206356002206356031-000924     206356006001023669964P/FRAME COLLAGE PL     0000001000+00008771+00000+0001T   00008771+0000001041          1400 AI6510               2AZ
206357000206357               206357               170213PI     1400+00000+PI0000000953+0000000953+000000000+000000134+0000001080+0000000007+I20000000000+0000001080+Z
206357001206357079-009700-I   206357006003000546114PAPER SIRIO A4 LILAC   0000001000+00000306+00000+0001T   00000306+0000001050          1400 AI6130               2AZ
206357002206357079-009700-D   206357006003000545711PAPER SIRIO A4 RED COL.0000001000+00000306+00000+0001T   00000306+0000001050          1400 AI6130               2AZ
206357003206357079-009700-H   206357006003000546039PAPER SIRIO A4 EARTH   0000001000+00000306+00000+0001T   00000306+0000001050          1400 AI6130               2AZ
206357004206357112-116038     206357006009681820246TCS CARRIER BAG MIDI   0000001000+00000035+00000+0001T   00000035+0000001050          1400 AI6090               2AZ
206358000206358               206358               170213PI     1400+00000+PI0000002619+0000002619+000000000+000000368+0000002980+0000000007+I20000000000+0000002980+Z
206358001206358007-000234     206358006009685850638LABELS 24PK            0000001000+00000306+00000+0001T   00000306+0000001050          1400 AI6130               2AZ
206358002206358071-001019     206358006001023474513MARKER BLACK NAME-PEN  0000001000+00000876+00000+0001T   00000876+0000001050          1400 AI6130               2AZ
206358003206358027-009030     206358006002814400100DUSTPAN PL             0000001000+00001402+00000+0001T   00001402+0000001050          1400 AI6212               2AZ
206358004206358112-116038     206358006009681820246TCS CARRIER BAG MIDI   0000001000+00000035+00000+0001T   00000035+0000001050          1400 AI6090               2AZ
206359000206359               206359               170213PI     1400+00000+PI0000003507+0000003507+000000000+000000491+0000003998+0000000000+I40000003998+0000000000+Z
206359001206359159-000102     206359006001023552891SHOWER-CADDY 48cm      0000001000+00003507+00000+0001T   00003507+0000001126          1400 AI6200               2AZ
206360000206360               206360               170213PI     1400+00000+PI0000005435+0000005435+000000000+000000762+0000006190+0000000007+I20000000000+0000006190+Z
206360001206360903-000151     206360006009803374411SWT SML RND R/BOW LOLLY0000002000+00000525+00000+0001T   00000525+0000001134          1400 AI6150               2AZ
206360002206360082-000115     206360006003000360604READING GLS STRNGHT:2.50000001000+00004385+00000+0001T   00004385+0000001134          1400 AI6160               2AZ
206361000206361               206361               170213PI     1400+00000+PI0000014031+0000014031+000000000+000001966+0000015997+0000000000+I40000015997+0000000000+Z
206361001206361366-002809     206361006003000222643DRESS UP MOUSTACHE SET 0000001000+00001753+00000+0001T   00001753+0000001139          1400 AI6131               2AZ
206361002206361368-000175     206361006003000270316PLUSH BEAR 4 ASSTD 18CM0000002000+00006139+00000+0001T   00006139+0000001139          1400 AI6745               2AZ
206362000206362               206362               170213PI     1400+00000+PI0000011437+0000011437+000000000+000001602+0000013039+0000000000+I40000013039+0000000000+Z
206362001206362024-000147     206362006001023736239N/STICK S/FORM CAKE PAN0000001000+00011402+00000+0001T   00011402+0000001151          1400 AI6300               2AZ
206362002206362112-116038     206362006009681820246TCS CARRIER BAG MIDI   0000001000+00000035+00000+0001T   00000035+0000001151          1400 AI6090               2AZ
206363000206363               206363               170213PI     1400+00000+PI0000007016+0000007016+000000000+000000983+0000007999+0000000000+I40000007999+0000000000+Z
206363001206363031-007000     206363006003000462476P/FRAME WDN DIST.10X15 0000001000+00007016+00000+0001T   00007016+0000001206          1400 AI6510               2AZ
206364000206364               206364               170213PI     1400+00000+PI0000005746+0000005746+000000000+000000806+0000006552+0000000000+I40000006552+0000000000+Z
206364001206364206-000370     206364006003000631315STRAW P/DRINKING GLASS 0000002000+00001753+00000+0001T   00001753+0000001210          1400 AI6321               2AZ
206364002206364112-116069     206364006009681820277TCS CARRIER BAG JUMBO  0000001000+00000048+00000+0001T   00000048+0000001210          1400 AI6090               2AZ
206364003206364080-000127     206364006003000424351VALENTINES DAY 36x24CM 0000001000+00002192+00000+0001T   00002192+0000001210          1400 AI6112               2AZ
206365000206365               206365               170213PI     1400+00000+PI0000008819+0000008819+000000000+000001235+0000010050+0000000004+I20000000000+0000010050+Z
206365001206365031-000924     206365006001023669964P/FRAME COLLAGE PL     0000001000+00008771+00000+0001T   00008771+0000001214          1400 AI6510               2AZ
206365002206365112-116069     206365006009681820277TCS CARRIER BAG JUMBO  0000001000+00000048+00000+0001T   00000048+0000001214          1400 AI6090               2AZ
206366000206366               206366               170213PI     1400+00000+PI0000006218+0000006218+000000000+000000871+0000007089+0000000000+I40000007089+0000000000+Z
206366001206366018-000177     206366006001023797513MUG MINI LOVE ASSTD    0000002000+00000700+00000+0001T   00000700+0000001217          1400 AI6515               2AZ
206366002206366903-000123     206366006925925909280SWEET GS MINI MALLOWS  0000001000+00000876+00000+0001T   00000876+0000001217          1400 AI6150               2AZ
206366003206366903-000844     206366005010478432567SWT CANDY DL LUV HEARTS0000003000+00001314+00000+0001T   00001314+0000001217          1400 AI6150               2AZ
206367000206367               206367               170213PI     1400+00000+PI0000006172+0000006172+000000000+000000865+0000007030+0000000007+I20000000000+0000007030+Z
206367001206367080-000114     206367006003000246472CARD&ENV LOVE-MUSICAL  0000001000+00001314+00000+0001T   00001753+0008151231          1400 AI6112               2AZ
206367002206367566-000951     206367006003000217670STICKERS 3 STYLES ASSTD0000001000+00002192+00000+0001T   00002192+0000001231          1400 AI6130               2AZ
206367003206367566-001228     206367006003000284153STICKERS CRYSTAL ASSTD 0000001000+00001753+00000+0001T   00001753+0000001231          1400 AI6130               2AZ
206367004206367112-116038     206367006009681820246TCS CARRIER BAG MIDI   0000001000+00000035+00000+0001T   00000035+0000001231          1400 AI6090               2AZ
206367005206367080-000114     206367006003000246472CARD&ENV LOVE-MUSICAL  0000001000-00001314+00000+0001T   00001753+0008151231          1400 AI61122IC            2 Z
206367006206367080-000127     206367006003000424351VALENTINES DAY 36x24CM 0000001000+00002192+00000+0001T   00002192+0000001231          1400 AI6112               2AZ
206368000206368               206368               170213PI     1400+00000+PI0000002628+0000002628+000000000+000000368+0000002996+0000000000+I40000002996+0000000000+Z
206368001206368006-000166-C   206368006003000516377BALLOONS LRG 6PC PINK  0000002000+00001314+00000+0001T   00001314+0000001246          1400 AI6131               2AZ
206369000206369               206369               170213PI     1400+00000+PI0000003507+0000003507+000000000+000000491+0000003990+0000000008+I20000000000+0000003990+Z
206369001206369560-000106     206369006001023747099FROG FOAM BEADS 10cm   0000001000+00003507+00000+0001T   00003507+0000001249          1400 AI6745               2AZ
206370000206370               206370               170213PI     1400+00000+PI0000002192+0000002192+000000000+000000307+0000002490+0000000009+I20000000000+0000002490+Z
206370001206370073-000158     206370006003000683352COSMETIC BAG 18x10x3   0000001000+00002192+00000+0001T   00002192+0000001306          1400 AI6200               2AZ
206371000206371               206371               170213PI     1400+00000+PI0000004733+0000004733+000000000+000000664+0000005390+0000000007+I20000000000+0000005390+Z
206371001206371077-000342     206371006003000273942G/BAG PAPER LRG 25X32CM0000001000+00001490+00000+0001T   00001490+0000001310          1400 AI6112               2AZ
206371002206371077-000327     206371006001023677686GIFT-BAG 25X32CM E/D BA0000001000+00001490+00000+0001T   00001490+0000001310          1400 AI6112               2AZ
206371003206371077-000520     206371006001023908254GIFT-BAG 25X32CM       0000001000+00001753+00000+0001T   00001753+0000001310          1400 AI6112               2AZ
206372000206372               206372               170213PI     1400+00000+PI0000003681+0000003681+000000000+000000516+0000004190+0000000007+I20000000000+0000004190+Z
206372001206372903-000517     206372006001704012768SWT STRAWS FIZZY CHERRY0000003000+00001227+00000+0001T   00001227+0000001314          1400 AI6150               2AZ
206373000206373               206373               170213PI     1400+00000+PI0000002628+0000002628+000000000+000000369+0000002990+0000000007+I20000000000+0000002990+Z
206373001206373077-000151     206373006008766114676GIFT-WRAP C/PHANE ASSTD0000003000+00000876+00000+0001T   00000876+0000001329          1400 AI6112               2AZ
206374000206374               206374               170213PI     1400+00000+PI0000007014+0000007014+000000000+000000982+0000007990+0000000006+I20000000000+0000007990+Z
206374001206374567-011343     206374006003000630592BK COLOURING THERAPY   0000001000+00003507+00000+0001T   00003507+0000001340          1400 AI6757               2AZ
206374002206374567-011523     206374006003000667031BK COLOURING THERAPY   0000001000+00003507+00000+0001T   00003507+0000001340          1400 AI6757               2AZ
206375000206375               206375               170213PI     1400+00000+PI0000002804+0000002804+000000000+000000394+0000003190+0000000008+I20000000000+0000003190+Z
206375001206375133-000010     206375006001023905215CLEANING CLOTHS 6PCE   0000001000+00001753+00000+0001T   00001753+0000001348          1400 AI6212               2AZ
206375002206375903-002850     206375000000087108262MENTOS ROLL FRUIT      0000001000+00001051+00000+0001T   00001051+0000001348          1400 AI6150               2AZ
206376000206376               206376               170213PI     1400+00000+PI0000004385+0000004385+000000000+000000614+0000004990+0000000009+I20000000000+0000004990+Z
206376001206376082-007586     206376006003000654291SUNGLASS DESIGNER ASST 0000001000+00004385+00000+0001T   00004385+0000001351          1400 AI6160               2AZ
206377000206377               206377               170213PI     1400+00000+PI0000001311+0000001311+000000000+000000186+0000001490+0000000007+I20000000000+0000001490+Z
206377001206377080-000133     206377006003000535613CARD&ENV MINI ASTD DSGN0000003000+00000437+00000+0001T   00000437+0000001359          1400 AI6112               2AZ
206378000206378               206378               170213PI     1400+00000+PI0000004908+0000004908+000000000+000000688+0000005590+0000000006+I20000000000+0000005590+Z
206378001206378155-001304     206378006001023606488TAPE STEEL 5mx19mm     0000001000+00003507+00000+0001T   00003507+0000001410          1400 AI6840               2AZ
206378002206378071-003000     206378006003000543229PEN BALL PEN 3PCE MULTI0000001000+00000876+00000+0001T   00000876+0000001410          1400 AI6130               2AZ
206378003206378007-000145     206378006009635833087BK EXERCISE 72PG A4    0000001000+00000525+00000+0001T   00000525+0000001410          1400 AI6130               2AZ
206379000206379               206379               170213PI     1400+00000+PI0000003803+0000003803+000000000+000000533+0000004336+0000000000+I40000004336+0000000000+Z
206379001206379077-000310     206379006001023608635GIFT-BAG 18X23CM GLOSS 0000001000+00001314+00000+0001T   00001314+0000001412          1400 AI6112               2AZ
206379002206379077-000011-D   206379006001023808554TISSUE-WRAP WHITE 10PCE0000001000+00000876+00000+0001T   00000876+0000001412          1400 AI6112               2AZ
206379003206379018-000127     206379006001023380289MUG OCC STRAIGHT LOVE  0000001000+00001578+00000+0001T   00001753+0006471412          1400 AI6515               2AZ
206379004206379112-116038     206379006009681820246TCS CARRIER BAG MIDI   0000001000+00000035+00000+0001T   00000035+0000001412          1400 AI6090               2AZ
206380000206380               206380               170213PI     1400+00000+PI0000007892+0000007892+000000000+000001106+0000008998+0000000000+I40000008998+0000000000+Z
206380001206380039-000798     206380006001023617774CANDLES TEALITE BOX-50 0000001000+00006139+00000+0001T   00006139+0000001415          1400 AI6510               2AZ
206380002206380088-000084     206380006001023798060P/POURRI 120G ASSTD    0000001000+00001753+00000+0001T   00001753+0000001415          1400 AI6212               2AZ
206381000206381               206381               170213PI     1400+00000+PI0000000876+0000000876+000000000+000000123+0000000990+0000000009+I20000000000+0000000990+Z
206381001206381076-000017     206381006001811010022TWINE COTTON 50g-BALL  0000001000+00000876+00000+0001T   00000876+0000001419          1400 AI6810               2AZ
206382000206382               206382               170213PI     1400+00000+PI0000008817+0000008817+000000000+000001236+0000010053+0000000000+I40000010053+0000000000+Z
206382001206382031-007006     206382006003000466108P/FRM WDN G/STRESSED   0000001000+00007016+00000+0001T   00007016+0000001432          1400 AI6510               2AZ
206382002206382112-116069     206382006009681820277TCS CARRIER BAG JUMBO  0000001000+00000048+00000+0001T   00000048+0000001432          1400 AI6090               2AZ
206382003206382077-000299-A   206382006003000670888GIFT-BAG PAPER JMB LOVE0000001000+00001753+00000+0001T   00001753+0000001432          1400 AI6112               2AZ
206383000206383               206383               170213PI     1400+00000+PI0000006139+0000006139+000000000+000000860+0000006999+0000000000+I40000006999+0000000000+Z
206383001206383084-000369     206383006003000594467NAIL MANICURE SET 6PCE 0000001000+00006139+00000+0001T   00006139+0000001437          1400 AI6200               2AZ
206384000206384               206384               170213PI     1400+00000+PI0000001139+0000001139+000000000+000000160+0000001290+0000000009+I20000000000+0000001290+Z
206384001206384162-097716     206384006001492977164#TAG NEW GOLD E/PIERCE 0000001000+00001139+00000+0001T   00001139+0000001447          1400 AI6160               2AZ
206385000206385               206385               170213PI     1400+00000+PI0000014765+0000014765+000000000+000002068+0000016833+0000000000+I40000016833+0000000000+Z
206385001206385089-000220     206385006003000677368KEY CHAIN+PEN+KNIFE    0000001000+00003069+00000+0001T   00003069+0000001453          1400 AI6205               2AZ
206385002206385080-000124     206385006003000297733CARD & ENV VALENTINES  0000001000+00001578+00000+0001T   00001578+0000001453          1400 AI6112               2AZ
206385003206385080-000114     206385006003000246472CARD&ENV LOVE-MUSICAL  0000001000+00001314+00000+0001T   00001753+0008151453          1400 AI6112               2AZ
206385004206385007-000614     206385006001023768667DIARY W/LOCK+PEN LOVE  0000001000+00005262+00000+0001T   00005262+0000001453          1400 AI6130               2AZ
206385005206385089-000018     206385006003000176724KEY CHAIN INSPIRATION  0000001000+00003507+00000+0001T   00003507+0000001453          1400 AI6205               2AZ
206385006206385112-116038     206385006009681820246TCS CARRIER BAG MIDI   0000001000+00000035+00000+0001T   00000035+0000001453          1400 AI6090               2AZ
206386000206386               206386               170213PI     1400+00000+PI0000008769+0000008769+000000000+000001228+0000009990+0000000007+I20000000000+0000009990+Z
206386001206386006-000106     206386006003000471331WATERBOMBS 150PCE 6-COL0000001000+00005262+00000+0001T   00005262+0000001457          1400 AI6131               2AZ
206386002206386006-000113     206386006003000671816BALLOONS WATER FILLER  0000001000+00003507+00000+0001T   00003507+0000001457          1400 AI6131               2AZ
206387000206387               206387               170213PI     1400+00000+PI0000002192-0000002192-000000000+000000307-0000002500-0000000001+I20000000000+0000002500-Z
206387001206387080-000127     206387006003000424351VALENTINES DAY 36x24CM 0000001000-00002192+00000+0001T   00002192+0000001510          1400 AI61122IC            2 Z
206388000206388               206388               170213PI     1400+00000+PI0000006174+0000006174+000000000+000000865+0000007030+0000000009+I20000000000+0000007030+Z
206388001206388018-005007     206388006003000515516MUG OCC. LOVE W/HEARTS 0000001000+00006139+00000+0001T   00006139+0000001514          1400 AI6515               2AZ
206388002206388112-116038     206388006009681820246TCS CARRIER BAG MIDI   0000001000+00000035+00000+0001T   00000035+0000001514          1400 AI6090               2AZ
206389000206389               206389               170213PI     1400+00000+PI0000008771+0000008771+000000000+000001228+0000009990+0000000009+I20000000000+0000009990+Z
206389001206389464-001704     206389006001023732583DOMINOES 19.5x12x3.5cm 0000001000+00008771+00000+0001T   00008771+0000001521          1400 AI6785               2AZ
206390000206390               206390               170213PI     1400+00000+PI0000059473+0000059473+000000000+000008329+0000067802+0000000000+I40000067802+0000000000+Z
206390001206390031-000924     206390006001023669964P/FRAME COLLAGE PL     0000001000+00008771+00000+0001T   00008771+0000001634          1400 AI6510               2AZ
206390002206390159-000684     206390006001023776532BATH BODY-GLOVE 18cm   0000001000+00002630+00000+0001T   00002630+0000001634          1400 AI6200               2AZ
206390003206390031-000902-D   206390006003000462957P/FRAME PL INNER-RIDGES0000002000+00008771+00000+0001T   00008771+0000001634          1400 AI6510               2AZ
206390004206390031-000903-D   206390006003000457472P/FRAME COLLAGE CREAMY 0000001000+00012279+00000+0001T   00012279+0000001634          1400 AI6510               2AZ
206390005206390112-116069     206390006009681820277TCS CARRIER BAG JUMBO  0000002000+00000048+00000+0001T   00000048+0000001634          1400 AI6090               2AZ
206390006206390031-001003     206390006003000280995P/FRAME CLG WDN 44X54CM0000001000+00017542+00000+0001T   00017542+0000001634          1400 AI6510               2AZ
206390007206390903-000848     206390008692806080076SWT SNACK BISCUIT 70g  0000001000+00000613+00000+0001T   00000613+0000001634          1400 AI6150               2AZ
206391000206391               206391               170213PI     1400+00000+PI0000009471+0000009471+000000000+000001327+0000010798+0000000000+I40000010798+0000000000+Z
206391001206391301-085007     206391006003000673698ORN OCC. LOVE S/PLAQUE 0000001000+00007893+00000+0001T   00007893+0000001643          1400 AI6505               2AZ
206391002206391077-000303     206391006001023593757GIFT-BAG PAPER MED     0000001000+00001578+00000+0001T   00001578+0000001643          1400 AI6112               2AZ
206392000206392               206392               170213PI     1400+00000+PI0000004065+0000004065+000000000+000000571+0000004630+0000000006+I20000000000+0000004630+Z
206392001206392903-000699     206392006002099007018SWT CANDY FRUIT CHEWS  0000001000+00001139+00000+0001T   00001139+0000001643          1400 AI6150               2AZ
206392002206392903-000087     206392006001704000161SWT SPECKLED-EGGS 50G  0000001000+00001139+00000+0001T   00001139+0000001643          1400 AI6150               2AZ
206392003206392903-000297     206392006001704002950SWT MS WILD BERRY 50G  0000001000+00000876+00000+0001T   00000876+0000001643          1400 AI6150               2AZ
206392004206392077-000408     206392006003000145218G/BAG PP 15X21X7CM     0000001000+00000876+00000+0001T   00000876+0000001643          1400 AI6112               2AZ
206392005206392112-116038     206392006009681820246TCS CARRIER BAG MIDI   0000001000+00000035+00000+0001T   00000035+0000001643          1400 AI6090               2AZ
206393000206393               206393               170213PI     1400+00000+PI0000001788+0000001788+000000000+000000251+0000002030+0000000009+I20000000000+0000002030+Z
206393001206393018-000210     206393006003000580095MUG DAILY TEXTS 4-ASST 0000001000+00001753+00000+0001T   00001753+0000001645          1400 AI6515               2AZ
206393002206393112-116038     206393006009681820246TCS CARRIER BAG MIDI   0000001000+00000035+00000+0001T   00000035+0000001645          1400 AI6090               2AZ
206394000206394               206394               170213PI     1400+00000+PI0000001314+0000001314+000000000+000000184+0000001490+0000000008+I20000000000+0000001490+Z
206394001206394903-004952     206394006002580020052SWT FREAKY FACES 100G  0000001000+00001314+00000+0001T   00001314+0000001647          1400 AI6150               2AZ
206395000206395               206395               170213PI     1400+00000+PI0000001752+0000001752+000000000+000000246+0000001990+0000000008+I20000000000+0000001990+Z
206395001206395306-000021-A   206395006001023891358EARBUDS COTTON 100PCE  0000001000+00000876+00000+0001T   00000876+0000001650          1400 AI6200               2AZ
206395002206395084-001598     206395006003000576609FOOT FILE PL 22cm      0000001000+00000876+00000+0001T   00000876+0000001650          1400 AI6200               2AZ
206396000206396               206396               170213PI     1400+00000+PI0000007044+0000007044+000000000+000000988+0000008030+0000000002+I20000000000+0000008030+Z
206396001206396077-000407     206396006003000145096G/BAG PP 19X26X8CM     0000001000+00001314+00000+0001T   00001314+0000001652          1400 AI6112               2AZ
206396002206396006-000167-B   206396006003000516858BALLOONS BLUE METALLIC 0000001000+00001314+00000+0001T   00001314+0000001652          1400 AI6131               2AZ
206396003206396112-116038     206396006009681820246TCS CARRIER BAG MIDI   0000001000+00000035+00000+0001T   00000035+0000001652          1400 AI6090               2AZ
206396004206396006-000097     206396006003000376612PARTY WIND SPINNER     0000001000+00003507+00000+0001T   00003507+0000001652          1400 AI6131               2AZ
206396005206396080-000133     206396006003000535613CARD&ENV MINI ASTD DSGN0000002000+00000437+00000+0001T   00000437+0000001652          1400 AI6112               2AZ
206397000206397               206397               170213PI     1400+00000+PI0000002630+0000002630+000000000+000000369+0000002990+0000000009+I20000000000+0000002990+Z
206397001206397079-000282     206397006001023493309PAINT TUBS POSTER 12COL0000001000+00002630+00000+0001T   00002630+0000001652          1400 AI6130               2AZ
206398000206398               206398               170213PI     1400+00000+PI0000002454+0000002454+000000000+000000344+0000002790+0000000008+I20000000000+0000002790+Z
206398001206398077-000319     206398006001023609779GIFT-BAG 18X23CM BIRTHD0000001000+00001227+00000+0001T   00001227+0000001701          1400 AI6112               2AZ
206398002206398077-000322     206398006001023677532GIFT-BAG 18X23CM E/D FL0000001000+00001227+00000+0001T   00001227+0000001701          1400 AI6112               2AZ
206399000206399               206399               170213PI     1400+00000+PI0000008883+0000008883+000000000+000001245+0000010128+0000000000+I40000010128+0000000000+Z
206399001206399077-000321     206399006001023677501GIFT-BAG 11X14CM E/D FL0000001000+00000613+00000+0001T   00000613+0000001704          1400 AI6112               2AZ
206399002206399077-000470     206399006003000330171G-BAG DESGN SML 11X14CM0000002000+00001314+00000+0001T   00001314+0000001704          1400 AI6112               2AZ
206399003206399077-000321     206399006001023677501GIFT-BAG 11X14CM E/D FL0000001000+00000613+00000+0001T   00000613+0000001704          1400 AI6112               2AZ
206399004206399903-000087     206399006001704000161SWT SPECKLED-EGGS 50G  0000001000+00001139+00000+0001T   00001139+0000001704          1400 AI6150               2AZ
206399005206399903-004952     206399006002580020052SWT FREAKY FACES 100G  0000001000+00001314+00000+0001T   00001314+0000001704          1400 AI6150               2AZ
206399006206399903-004950     206399006002580020304SWT APRICOT SURPRISE   0000001000+00001314+00000+0001T   00001314+0000001704          1400 AI6150               2AZ
206399007206399903-000517     206399006001704012768SWT STRAWS FIZZY CHERRY0000001000+00001227+00000+0001T   00001227+0000001704          1400 AI6150               2AZ
206399008206399112-116038     206399006009681820246TCS CARRIER BAG MIDI   0000001000+00000035+00000+0001T   00000035+0000001704          1400 AI6090               2AZ
206400000206400               206400               170213PI     1400+00000+PI0000000613+0000000613+000000000+000000086+0000000690+0000000009+I20000000000+0000000690+Z
206400001206400077-000317     206400006001023609748GIFT-BAG 11X14CM E/D AN0000001000+00000613+00000+0001T   00000613+0000001727          1400 AI6112               2AZ
206401000206401               206401               170213PI     1400+00000+PI0000005731+0000005731+000000000+000000804+0000006530+0000000005+I20000000000+0000006530+Z
206401001206401077-000314     206401006003000181148GIFT-BAG 11X14CM MATT  0000001000+00000876+00000+0001T   00000876+0000001729          1400 AI6112               2AZ
206401002206401077-000470     206401006003000330171G-BAG DESGN SML 11X14CM0000001000+00001314+00000+0001T   00001314+0000001729          1400 AI6112               2AZ
206401003206401089-000004     206401006003000137749KEY CHAIN MTL CHARMS   0000001000+00001753+00000+0001T   00001753+0000001729          1400 AI6205               2AZ
206401004206401089-000030     206401006003000575671K/CHAIN LOVE MTL ASSTD 0000001000+00001753+00000+0001T   00001753+0000001729          1400 AI6205               2AZ
206401005206401112-116038     206401006009681820246TCS CARRIER BAG MIDI   0000001000+00000035+00000+0001T   00000035+0000001729          1400 AI6090               2AZ
206402000206402               206402               170213PI     1400+00000+PI0000000613+0000000613+000000000+000000086+0000000690+0000000009+I20000000000+0000000690+Z
206402001206402077-000321     206402006001023677501GIFT-BAG 11X14CM E/D FL0000001000+00000613+00000+0001T   00000613+0000001737          1400 AI6112               2AZ
206403000206403               206403               170213PI     1400+00000+PI0000010384+0000010384+000000000+000001454+0000011838+0000000000+I40000011838+0000000000+Z
206403001206403001-091415     206403006003000329113W/GLS OCC. LOVE 2PC 2800000001000+00008771+00000+0001T   00009648+0006471742          1400 AI6515               2AZ
206403002206403077-000303     206403006001023593757GIFT-BAG PAPER MED     0000001000+00001578+00000+0001T   00001578+0000001742          1400 AI6112               2AZ
206403003206403112-116038     206403006009681820246TCS CARRIER BAG MIDI   0000001000+00000035+00000+0001T   00000035+0000001742          1400 AI6090               2AZ
206404000206404               206404               170213PI     1400+00000+PI0000005085+0000005085+000000000+000000712+0000005790+0000000007+I20000000000+0000005790+Z
206404001206404018-000136     206404006001023659026MUG OCC LOVE W/PLUSH   0000001000+00003507+00000+0001T   00003507+0000001745          1400 AI6515               2AZ
206404002206404077-000303     206404006001023593757GIFT-BAG PAPER MED     0000001000+00001578+00000+0001T   00001578+0000001745          1400 AI6112               2AZ
206405000206405               206405               170213PI     1400+00000+PI0000004383+0000004383+000000000+000000615+0000004990+0000000008+I20000000000+0000004990+Z
206405001206405077-000316-A   206405006003000681457GIFT-BAG METALLIC PPR  0000001000+00002630+00000+0001T   00002630+0000001749          1400 AI6112               2AZ
206405002206405077-000011-X   206405006001023809827TISSUE-WRAP SILVER 10PC0000001000+00001753+00000+0001T   00001753+0000001749          1400 AI6112               2AZ
206406000206406               206406               170213PI     1400+00000+PI0000018025+0000018025+000000000+000002525+0000020550+0000000000+I40000020550+0000000000+Z
206406001206406089-000017     206406006003000331147KEYCHAIN MOM POLY BOX  0000001000+00004385+00000+0001T   00004385+0000001751          1400 AI6205               2AZ
206406002206406018-030000     206406006003000421060MUG OCCASIONS LOVE 2PCE0000001000+00004385+00000+0001T   00004385+0000001751          1400 AI6515               2AZ
206406003206406301-085003     206406006003000420827ORN OCCASION LOVE KEY  0000001000+00005262+00000+0001T   00005262+0000001751          1400 AI6505               2AZ
206406004206406112-116069     206406006009681820277TCS CARRIER BAG JUMBO  0000001000+00000048+00000+0001T   00000048+0000001751          1400 AI6090               2AZ
206406005206406080-000127     206406006003000424351VALENTINES DAY 36x24CM 0000001000+00002192+00000+0001T   00002192+0000001751          1400 AI6112               2AZ
206406006206406077-000289     206406006001023901996GIFT BOX 20x25x11cm    0000001000+00001753+00000+0001T   00001753+0000001751          1400 AI6112               2AZ
206407000206407               206407               170213PI     1400+00000+PI0000013199+0000013199+000000000+000001849+0000015048+0000000000+I40000015048+0000000000+Z
206407001206407112-116069     206407006009681820277TCS CARRIER BAG JUMBO  0000001000+00000048+00000+0001T   00000048+0000001805          1400 AI6090               2AZ
206407002206407366-002695     206407006003000222766DRESS UP HAT ROUND GLIT0000002000+00002192+00000+0001T   00002192+0000001805          1400 AI6131               2AZ
206407003206407565-000876     206407006003000305759NOVELTY FUNKY SUNGLASS 0000001000+00003507+00000+0001T   00003507+0000001805          1400 AI6745               2AZ
206407004206407565-000859     206407006001023691361SUNGLASSES GIANT       0000001000+00001753+00000+0001T   00001753+0000001805          1400 AI6745               2AZ
206407005206407565-000876     206407006003000305759NOVELTY FUNKY SUNGLASS 0000001000+00003507+00000+0001T   00003507+0000001805          1400 AI6745               2AZ
206408000206408               206408               170213PI     1400+00000+PI0000010259+0000010259+000000000+000001438+0000011697+0000000000+I40000011697+0000000000+Z
206408001206408368-000265     206408006001023750914PLUSH BEAR 23CM ASSTD C0000001000+00006139+00000+0001T   00006139+0000001808          1400 AI6745               2AZ
206408002206408077-000299     206408006003000395576G/BAG 32x25cm LRG LOVE 0000001000+00001490+00000+0001T   00001490+0000001808          1400 AI6112               2AZ
206408003206408077-000005-B   206408006003000326617PAPER TISSUE PATTERN   0000001000+00002630+00000+0001T   00002630+0000001808          1400 AI6112               2AZ
206409000206409               206409               170213PI     1400+00000+PI0000003507+0000003507+000000000+000000491+0000003990+0000000008+I20000000000+0000003990+Z
206409001206409018-005009     206409006001023725608MUG W/PLUSH-BEAR LOVE  0000001000+00003507+00000+0001T   00003507+0000001808          1400 AI6515               2AZ
206410000206410               206410               170213PI     1400+00000+PI0000008376+0000008376+000000000+000001175+0000009551+0000000000+I40000009551+0000000000+Z
206410001206410072-020295     206410006003000451609PET CAT TOY MOUSE W/ZIP0000001000+00002630+00000+0001T   00002630+0000001810          1400 AI6870               2AZ
206410002206410072-020353     206410006001023598097DOG/CAT-BOWL 17cm      0000002000+00001753+00000+0001T   00001753+0000001810          1400 AI6870               2AZ
206410003206410080-000127     206410006003000424351VALENTINES DAY 36x24CM 0000001000+00002192+00000+0001T   00002192+0000001810          1400 AI6112               2AZ
206410004206410112-116069     206410006009681820277TCS CARRIER BAG JUMBO  0000001000+00000048+00000+0001T   00000048+0000001810          1400 AI6090               2AZ
206411000206411               206411               170213PI     1400+00000+PI0000031648+0000031648+000000000+000004437+0000036085+0000000000+I40000036085+0000000000+Z
206411001206411112-116069     206411006009681820277TCS CARRIER BAG JUMBO  0000001000+00000048+00000+0001T   00000048+0000001815          1400 AI6090               2AZ
206411002206411206-000450     206411006003000619863DRINKING JAR GLOBE     0000004000+00002630+00000+0001T   00002630+0000001815          1400 AI6321               2AZ
206411003206411562-000019     206411006001023800305EDU PLAY DOUGH BOXED   0000001000+00007893+00000+0001T   00008771+0008191815          1400 AI6755               2AZ
206411004206411108-003023     206411006003000665471TUMBLER W/STRAW 550ml  0000002000+00002630+00000+0001T   00002630+0000001815          1400 AI6210               2AZ
206411005206411089-000017     206411006003000331147KEYCHAIN MOM POLY BOX  0000001000+00004385+00000+0001T   00004385+0000001815          1400 AI6205               2AZ
206411006206411112-116038     206411006009681820246TCS CARRIER BAG MIDI   0000001000+00000035+00000+0001T   00000035+0000001815          1400 AI6090               2AZ
206411007206411206-000610     206411006003000631674BOMB SHOTS PL 10PC     0000001000+00003507+00000+0001T   00003507+0000001815          1400 AI6321               2AZ
206412000206412               206412               170213PI     1400+00000+PI0000008771+0000008771+000000000+000001228+0000009990+0000000009+I20000000000+0000009990+Z
206412001206412261-003906     206412006003000472376RIFLE 57cm +ACCESS 8PCE0000001000+00008771+00000+0001T   00008771+0000001818          1400 AI6710               2AZ
206413000206413               206413               170213PI     1400+00000+PI0000001788+0000001788+000000000+000000251+0000002030+0000000009+I20000000000+0000002030+Z
206413001206413903-000918     206413006009802868522SWEET GUM TAPE H/KITTY 0000001000+00001753+00000+0001T   00001753+0000001820          1400 AI6150               2AZ
206413002206413112-116038     206413006009681820246TCS CARRIER BAG MIDI   0000001000+00000035+00000+0001T   00000035+0000001820          1400 AI6090               2AZ
206414000206414               206414               170213PI     1400+00000+PI0000003156+0000003156+000000000+000000442+0000003598+0000000000+I40000003598+0000000000+Z
206414001206414077-000303     206414006001023593757GIFT-BAG PAPER MED     0000002000+00001578+00000+0001T   00001578+0000001824          1400 AI6112               2AZ
206415000206415               206415               170213PI     1400+00000+PI0000008904+0000008904+000000000+000001248+0000010152+0000000000+I40000010152+0000000000+Z
206415001206415368-000664     206415006001023874399PLUSH BEAR/DOG/MOUSE   0000001000+00006139+00000+0001T   00007893+0008141826          1400 AI6745               2AZ
206415002206415903-000087     206415006001704000161SWT SPECKLED-EGGS 50G  0000001000+00001139+00000+0001T   00001139+0000001826          1400 AI6150               2AZ
206415003206415077-000303     206415006001023593757GIFT-BAG PAPER MED     0000001000+00001578+00000+0001T   00001578+0000001826          1400 AI6112               2AZ
206415004206415112-116069     206415006009681820277TCS CARRIER BAG JUMBO  0000001000+00000048+00000+0001T   00000048+0000001826          1400 AI6090               2AZ
206416000206416               206416               170213PI     1400+00000+PI0000001578+0000001578+000000000+000000221+0000001799+0000000000+I40000001799+0000000000+Z
206416001206416077-000323     206416006001023677563G/BAG 25X32CM E/DAY FLO0000001000+00001578+00000+0001T   00001578+0000001828          1400 AI6112               2AZ
206417000206417               206417               170213PI     1400+00000+PI0000005748+0000005748+000000000+000000805+0000006553+0000000000+I40000006553+0000000000+Z
206417001206417075-000412     206417006001023855299SHOPPER-BASKET PL      0000001000+00005700+00000+0001T   00005700+0000001833          1400 AI6160               2AZ
206417002206417112-116069     206417006009681820277TCS CARRIER BAG JUMBO  0000001000+00000048+00000+0001T   00000048+0000001833          1400 AI6090               2AZ
206418000206418               206418               170213PI     1400+00000+PI0000004385+0000004385+000000000+000000614+0000004990+0000000009+I20000000000+0000004990+Z
206418001206418368-000049     206418006003000536955PLUSH BEAR 15cm LOVE   0000001000+00004385+00000+0001T   00004385+0000001834          1400 AI6745               2AZ
206419000206419               206419               170213PI     1400+00000+PI0000010083+0000010083+000000000+000001413+0000011490+0000000006+I20000000000+0000011490+Z
206419001206419077-000303     206419006001023593757GIFT-BAG PAPER MED     0000001000+00001578+00000+0001T   00001578+0000001838          1400 AI6112               2AZ
206419002206419077-000452     206419006003000284986G/BAG METALLIC MED EMB 0000001000+00001490+00000+0001T   00001490+0000001838          1400 AI6112               2AZ
206419003206419077-000011-D   206419006001023808554TISSUE-WRAP WHITE 10PCE0000001000+00000876+00000+0001T   00000876+0000001838          1400 AI6112               2AZ
206419004206419368-000175     206419006003000270316PLUSH BEAR 4 ASSTD 18CM0000001000+00006139+00000+0001T   00006139+0000001838          1400 AI6745               2AZ
206420000206420               206420               170213PI     1400+00000+PI0000017013+0000017013+000000000+000002383+0000019396+0000000000+I40000019396+0000000000+Z
206420001206420001-091415     206420006003000329113W/GLS OCC. LOVE 2PC 2800000001000+00008771+00000+0001T   00009648+0006471847          1400 AI6515               2CZ
206420002206420018-019000     206420006003000557288MUG OCC. LOVE JUMBO    0000001000+00005262+00000+0001T   00005262+0000001847          1400 AI6515               2CZ
206420003206420077-000299-A   206420006003000670888GIFT-BAG PAPER JMB LOVE0000001000+00001753+00000+0001T   00001753+0000001847          1400 AI6112               2CZ
206420004206420903-000518     206420006001704012782SWT STRAWS S/BERRY 100g0000001000+00001227+00000+0001T   00001227+0000001847          1400 AI6150               2CZ
A17021300                                          10361587PISLAVE 2                       AI61IC
A17021301                                          13372860PISLAVE 2                       AI61IC
M17021391                              CASH        PISLAVE 2                       Z-REPORT No.   512TOTAL (Sales - Refunds)           5323.08       CASH TO BE BANKED                 1823.70       DEBIT CARDS                          0.00       CREDIT CARDS                      3499.38       Z-READING                         5323.08       AIRTIME DEBIT CARD SALES             0.00       AIRTIME CARD SALES                   0.00       OVERS/UNDERS                         0.00       AIRTIME CASH SALES                   0.00       GIFT CARDS                           0.00       GIFT CARD CASH SALES                 0.00       T O T A L  CASH PAYOUTS              0.00                                                                                                                                                                                                                                                                                                                                                      Z
M17021392                              CASH        PIABSENT                                                                                                                                                                                          ANNUAL LEAVE                                                                                                                                                                                    DAY OFF                                                                                                                                                                                         COMMENTS                                                                                                                                                                                                                                                                                                                                                                                       Z
Y17021300                                          PI00000000470650+000066
ZPI17021320183 SLAVE 2      SALES DATA                     NEXT INVOICE NO.  206421 0512
F086509007-000890-16      1609181247010000052ICSLAVE 2
X PI Slave 2 First invoice 206354 170213 Last invoice 206420 170213 Next invoice 206421 Total number of records 000000246 clbackup completed 20:18:42
