108951000108951               108951               170213PJ     1400+00000+PJ0000007323+0000007323+000000000+000001027+0000008350+0000000000+I40000008350+0000000000+Z
108951001108951112-116069     108951006009681820277TCS CARRIER BAG JUMBO  0000001000+00000048+00000+0001T   00000048+0000001013          1400 Y51090               1AZ
108951002108951563-000317-B   108951006001023776174SERVIETTES PLN WHT PK400000001000+00001314+00000+0001T   00001314+0000001013          1400 Y51214               1AZ
108951003108951051-002402     108951006001023518347TRIGGER-SPRAYER  500ml 0000001000+00001753+00000+0001T   00001753+0000001013          1400 Y51820               1AZ
108951004108951140-006004     108951006001023628077FLY-SWATTER RUBBER     0000001000+00001139+00000+0001T   00001139+0000001013          1400 Y51830               1AZ
108951005108951002-000117     108951006001023110879EGG POACHERS 2PC       0000001000+00003069+00000+0001T   00003069+0000001013          1400 Y51300               1AZ
108952000108952               108952               170213PJ     1400+00000+PJ0000006138+0000006138+000000000+000000860+0000006990+0000000008+I20000000000+0000006990+Z
108952001108952031-000864-A   108952006001023798350P/FRAME MAHOGANY 10X15 0000002000+00003069+00000+0001T   00003069+0000001018          1400 Y51510               1AZ
108953000108953               108953               170213PJ     1400+00000+PJ0000003506+0000003506+000000000+000000492+0000003990+0000000008+I20000000000+0000003990+Z
108953001108953080-000112     108953006003000252749CARD&ENVLP BDAY-MUSICAL0000001000+00001753+00000+0001T   00001753+0000001022          1400 Y51112               1AZ
108953002108953080-000115     108953006003000237333CARD&ENVELOPE - BLANKS 0000001000+00001753+00000+0001T   00001753+0000001022          1400 Y51112               1AZ
108954000108954               108954               170213PJ     1400+00000+PJ0000017542+0000017542+000000000+000002456+0000019998+0000000000+I40000019998+0000000000+Z
108954001108954002-010403     108954006001023203854JAFFLE-IRON ALUM. H/HOU0000001000+00017542+00000+0001T   00017542+0000001025          1400 Y51300               1AZ
108955000108955               108955               170213PJ     1400+00000+PJ0000030663+0000030663+000000000+000004300+0000034963+0000000000+I40000034963+0000000000+Z
108955001108955112-116053     108955006006438002399TCS CARRIER BAG 38L    0000001000+00000069+00000+0001T   00000069+0000001028          1400 Y51090               1AZ
108955002108955079-009702-E   108955008427973059439PAPER SIRIO A2 BLUE    0000005000+00001051+00000+0001T   00001051+0000001028          1400 Y51130               1AZ
108955003108955079-104303     108955006003000186259SKETCH PAD A3   48 PAGE0000001000+00003507+00000+0001T   00003507+0000001028          1400 Y51130               1AZ
108955004108955174-000173     108955006001023905307STORAGE-BOX COLLAPSIBLE0000001000+00004385+00000+0001T   00004385+0000001028          1400 Y51205               1AZ
108955005108955174-000141     108955006003000367573STORAGE ORGANISER 30X100000001000+00005262+00000+0001T   00005262+0000001028          1400 Y51205               1AZ
108955006108955200-000042     108955006001023868886BAG-SEALERS 10PCE      0000001000+00002630+00000+0001T   00002630+0000001028          1400 Y51214               1AZ
108955007108955105-001078     108955000700371637750CONTAINER 1,1L CLIP LOC0000002000+00001928+00000+0001T   00001928+0000001028          1400 Y51210               1AZ
108955008108955079-105611     108955006003000249596ART+CRAFT INK PAD 1CLR 0000001000+00002630+00000+0001T   00002630+0000001028          1400 Y51130               1AZ
108955009108955124-001000     108955006003000683734STORAGE TIN SEWING DESN0000001000+00003069+00000+0001T   00003069+0000001028          1400 Y51300               1AZ
108956000108956               108956               170213PJ     1400+00000+PJ0000001490+0000001490+000000000+000000209+0000001690+0000000009+I20000000000+0000001690+Z
108956001108956077-000299     108956006003000395576G/BAG 32x25cm LRG LOVE 0000001000+00001490+00000+0001T   00001490+0000001043          1400 Y51112               1AZ
108957000108957               108957               170213PJ     1400+00000+PJ0000002630+0000002630+000000000+000000369+0000002990+0000000009+I20000000000+0000002990+Z
108957001108957027-056186     108957006003000638215DISH BRUSH DUCK DESIGN 0000001000+00002630+00000+0001T   00002630+0000001046          1400 Y51212               1AZ
108958000108958               108958               170213PJ     1400+00000+PJ0000013155+0000013155+000000000+000001842+0000014990+0000000007+I20000000000+0000014990+Z
108958001108958368-000049     108958006003000536955PLUSH BEAR 15cm LOVE   0000003000+00004385+00000+0001T   00004385+0000001048          1400 Y51745               1AZ
108959000108959               108959               170213PJ     1400+00000+PJ0000006869+0000006869+000000000+000000965+0000007830+0000000004+I20000000000+0000007830+Z
108959001108959903-000519     108959006001704012805SWT MS LIQ-O-GHETTI    0000001000+00001227+00000+0001T   00001227+0000001104          1400 Y51150               1AZ
108959002108959079-130100     108959006003000542635A&C DIY COLOUR EYES 24P0000001000+00001490+00000+0001T   00001490+0000001104          1400 Y51130               1AZ
108959003108959108-001028     108959006009654960733TUMBLERS PL SET-OF-6   0000001000+00001753+00000+0001T   00002630+0008171104          1400 Y51210               1AZ
108959004108959903-000200     108959006009826020234SWT CHOC RP CHOCO 23G  0000003000+00000788+00000+0001T   00000788+0000001104          1400 Y51150               1AZ
108959005108959112-116038     108959006009681820246TCS CARRIER BAG MIDI   0000001000+00000035+00000+0001T   00000035+0000001104          1400 Y51090               1AZ
108960000108960               108960               170213PJ     1400+00000+PJ0000000788+0000000788+000000000+000000111+0000000890+0000000009+I20000000000+0000000890+Z
108960001108960903-000200     108960006009826020234SWT CHOC RP CHOCO 23G  0000001000+00000788+00000+0001T   00000788+0000001126          1400 Y51150               1AZ
108961000108961               108961               170213PJ     1400+00000+PJ0000000700+0000000700+000000000+000000098+0000000790+0000000008+I20000000000+0000000790+Z
108961001108961033-010721     108961006001023678669SAFETY-PINS 20PCE ASSTD0000001000+00000700+00000+0001T   00000700+0000001128          1400 Y51200               1AZ
108962000108962               108962               170213PJ     1400+00000+PJ0000004385+0000004385+000000000+000000614+0000004999+0000000000+I40000004999+0000000000+Z
108962001108962031-080508     108962006001023802415P/FRAME PL 22X11CM LOVE0000001000+00004385+00000+0001T   00004385+0000001157          1400 Y51510               1AZ
108963000108963               108963               170213PJ     1400+00000+PJ0000004763+0000004763+000000000+000000671+0000005434+0000000000+I40000005434+0000000000+Z
108963001108963112-116038     108963006009681820246TCS CARRIER BAG MIDI   0000001000+00000035+00000+0001T   00000035+0000001215          1400 Y51090               1AZ
108963002108963903-000200     108963006009826020234SWT CHOC RP CHOCO 23G  0000006000+00000788+00000+0001T   00000788+0000001215          1400 Y51150               1AZ
108964000108964               108964               170213PJ     1400+00000+PJ0000001753+0000001753+000000000+000000246+0000001990+0000000009+I20000000000+0000001990+Z
108964001108964077-000316     108964006001023609731GIFT-BAG 25X32CM MATT  0000001000+00001753+00000+0001T   00001753+0000001217          1400 Y51112               1AZ
108965000108965               108965               170213PJ     1400+00000+PJ0000002399+0000002399+000000000+000000338+0000002730+0000000007+I20000000000+0000002730+Z
108965001108965903-000200     108965006009826020234SWT CHOC RP CHOCO 23G  0000003000+00000788+00000+0001T   00000788+0000001227          1400 Y51150               1AZ
108965002108965112-116038     108965006009681820246TCS CARRIER BAG MIDI   0000001000+00000035+00000+0001T   00000035+0000001227          1400 Y51090               1AZ
108966000108966               108966               170213PJ     1400+00000+PJ0000002849+0000002849+000000000+000000399+0000003240+0000000008+I20000000000+0000003240+Z
108966001108966566-001212     108966000721129014166STICKERS MICRO ASSTD   0000001000+00000657+00000+0001T   00000657+0000001229          1400 Y51130               1AZ
108966002108966563-000318-L   108966006003000407088SERVIETTES 33cm RED    0000001000+00002192+00000+0001T   00002192+0000001229          1400 Y51214               1AZ
108967000108967               108967               170213PJ     1400+00000+PJ0000027522+0000027522+000000000+000003854+0000031376+0000000000+I40000031376+0000000000+Z
108967001108967112-116053     108967006006438002399TCS CARRIER BAG 38L    0000001000+00000069+00000+0001T   00000069+0000001231          1400 Y51090               1AZ
108967002108967560-000776     108967006001023472939ANIMALS FARM/WILD 6PCE 0000002000+00013157+00000+0001T   00013157+0000001231          1400 Y51745               1AZ
108967003108967903-000087     108967006001704000161SWT SPECKLED-EGGS 50G  0000001000+00001139+00000+0001T   00001139+0000001231          1400 Y51150               1AZ
108968000108968               108968               170213PJ     1400+00000+PJ0000010570+0000010570+000000000+000001481+0000012050+0000000001+I20000000000+0000012050+Z
108968001108968112-116069     108968006009681820277TCS CARRIER BAG JUMBO  0000001000+00000048+00000+0001T   00000048+0000001235          1400 Y51090               1AZ
108968002108968033-000001     108968006003000344321TINTING BOWL & BRUSHES 0000001000+00002630+00000+0001T   00002630+0000001235          1400 Y51200               1AZ
108968003108968039-080942     108968006001023669872C/PILLAR RND WHT 10X7CM0000001000+00003507+00000+0001T   00003507+0000001235          1400 Y51510               1AZ
108968004108968039-080944     108968006001023758897C/PILLAR RND WHT 12X7CM0000001000+00004385+00000+0001T   00004385+0000001235          1400 Y51510               1AZ
108969000108969               108969               170213PJ     1400+00000+PJ0000003507+0000003507+000000000+000000491+0000003998+0000000000+I40000003998+0000000000+Z
108969001108969077-000932     108969006003000409808G/WRAP 700mmx5m PATTERN0000001000+00003507+00000+0001T   00003507+0000001239          1400 Y51112               1AZ
108970000108970               108970               170213PJ     1400+00000+PJ0000007892+0000007892+000000000+000001106+0000008990+0000000008+I20000000000+0000008990+Z
108970001108970007-000890-17  108970006003000645671CALENDAR 2017 ASSTD    0000001000+00006139+00000+0001T   00006139+0000001242          1400 Y51130               1AZ
108970002108970080-000117     108970006003000236350CARD & ENVELOPE THANK U0000001000+00001753+00000+0001T   00001753+0000001242          1400 Y51112               1AZ
108971000108971               108971               170213PJ     1400+00000+PJ0000020292+0000020292+000000000+000002848+0000023140+0000000000+I20000000000+0000023140+Z
108971001108971112-116069     108971006009681820277TCS CARRIER BAG JUMBO  0000001000+00000048+00000+0001T   00000048+0000001245          1400 Y51090               1AZ
108971002108971019-000306     108971006003000328031VASE CERAMIC FLOWER EMB0000001000+00005262+00000+0001T   00005262+0000001245          1400 Y51510               1AZ
108971003108971368-000049     108971006003000536955PLUSH BEAR 15cm LOVE   0000001000+00004385+00000+0001T   00004385+0000001245          1400 Y51745               1AZ
108971004108971903-000619     108971006003000672455SWT LOLLY STR/BRRY 140G0000001000+00001753+00000+0001T   00001753+0000001245          1400 Y51150               1AZ
108971005108971028-000796     108971006001023812094SKEWERS 25cm 50PCE 4mm 0000001000+00001490+00000+0001T   00001490+0000001245          1400 Y51305               1AZ
108971006108971903-000183     108971006003000451043SWT LB HEART LOLLY     0000002000+00000393+00000+0001T   00000393+0000001245          1400 Y51150               1AZ
108971007108971903-000200     108971006009826020234SWT CHOC RP CHOCO 23G  0000005000+00000788+00000+0001T   00000788+0000001245          1400 Y51150               1AZ
108971008108971903-000194     108971006009826020616SWT CHOC RP LOLLY 25G  0000002000+00001314+00000+0001T   00001314+0000001245          1400 Y51150               1AZ
108972000108972               108972               170213PJ     1400+00000+PJ0000003504+0000003504+000000000+000000492+0000003990+0000000006+I20000000000+0000003990+Z
108972001108972306-000021-D   108972006003000622108COTTON EARBUDS COSMETIC0000004000+00000876+00000+0001T   00001139+0008171247          1400 Y51200               1AZ
108973000108973               108973               170213PJ     1400+00000+PJ0000001752+0000001752+000000000+000000246+0000001990+0000000008+I20000000000+0000001990+Z
108973001108973039-000319-4   108973006003000442744B/CANDLES LRG NUMBER-4 0000001000+00000876+00000+0001T   00000876+0000001249          1400 Y51510               1AZ
108973002108973039-000319-6   108973006003000442980B/CANDLES LRG NUMBER-6 0000001000+00000876+00000+0001T   00000876+0000001249          1400 Y51510               1AZ
108974000108974               108974               170213PJ     1400+00000+PJ0000003069+0000003069+000000000+000000430+0000003490+0000000009+I20000000000+0000003490+Z
108974001108974024-000010     108974006001023770301CAKE-LIFTER S/S H/HOUSE0000001000+00003069+00000+0001T   00003069+0000001252          1400 Y51300               1AZ
108975000108975               108975               170213PJ     1400+00000+PJ0000003153+0000003153+000000000+000000444+0000003590+0000000007+I20000000000+0000003590+Z
108975001108975903-002850     108975000000087108262MENTOS ROLL FRUIT      0000003000+00001051+00000+0001T   00001051+0000001253          1400 Y51150               1AZ
108976000108976               108976               170213PJ     1400+00000+PJ0000005786+0000005786+000000000+000000811+0000006597+0000000000+I40000006597+0000000000+Z
108976001108976567-011307     108976006003000598557BOOK ACTIVITY FUN WATER0000001000+00003069+00000+0001T   00003069+0000001255          1400 Y51757               1AZ
108976002108976024-000100     108976006003000173310CAKE TESTER            0000001000+00001490+00000+0001T   00001490+0000001255          1400 Y51300               1AZ
108976003108976033-000013     108976006001023567215PILL-REMINDER PL       0000001000+00001227+00000+0001T   00001227+0000001255          1400 Y51200               1AZ
108977000108977               108977               170213PJ     1400+00000+PJ0000005260+0000005260+000000000+000000737+0000005990+0000000007+I20000000000+0000005990+Z
108977001108977037-000004     108977006001023763679ASHTRAY PL TUB 8X11CM  0000001000+00001753+00000+0001T   00002192+0008191255          1400 Y51515               1AZ
108977002108977037-000002     108977006001023994745ASHTRAY SPIN METAL 9cm 0000001000+00003507+00000+0001T   00003507+0000001255          1400 Y51515               1AZ
108978000108978               108978               170213PJ     1400+00000+PJ0000004823+0000004823+000000000+000000676+0000005490+0000000009+I20000000000+0000005490+Z
108978001108978084-091594     108978006003000620692FOOT FILE/GRATER       0000001000+00004823+00000+0001T   00004823+0000001256          1400 Y51200               1AZ
108979000108979               108979               170213PJ     1400+00000+PJ0000027323+0000027323+000000000+000003830+0000031153+0000000000+I40000031153+0000000000+Z
108979001108979112-116053     108979006006438002399TCS CARRIER BAG 38L    0000001000+00000069+00000+0001T   00000069+0000001303          1400 Y51090               1AZ
108979002108979566-000352     108979006001023809261STICKERS LASER ASSTD   0000002000+00002192+00000+0001T   00002192+0000001303          1400 Y51130               1AZ
108979003108979071-003850     108979006001023893253PENCIL 5PCE RAINBOW WDN0000002000+00002630+00000+0001T   00002630+0000001303          1400 Y51130               1AZ
108979004108979566-002000     108979000721129013206STICKERS CRYSTAL ASSTD 0000002000+00000700+00000+0001T   00000700+0000001303          1400 Y51130               1AZ
108979005108979200-000062     108979006003000519514STRAWS DRINKING PL 4PC 0000001000+00001490+00000+0001T   00001490+0000001303          1400 Y51214               1AZ
108979006108979079-000345     108979006001023890146FELT-TIP PENS 8PCE     0000001000+00003069+00000+0001T   00003069+0000001303          1400 Y51130               1AZ
108979007108979362-004001     108979000613153010385PRINCESS ASSTD TRINKETS0000001000+00000700+00000+0001T   00000876+0008181303          1400 Y51160               1AZ
108979008108979006-005904     108979006001023823205P/FAVOUR SOCCER BALL 6P0000001000+00002630+00000+0001T   00002630+0000001303          1400 Y51131               1AZ
108979009108979007-000537     108979000651728791017NOTE-PAD RND SMILE-FACE0000002000+00000700+00000+0001T   00000700+0000001303          1400 Y51130               1AZ
108979010108979464-000121     108979006003000640492PLAYING CARDS MINI     0000002000+00000700+00000+0001T   00000700+0000001303          1400 Y51785               1AZ
108979011108979464-000031     108979006003000647439GAME TIC TAC TOE       0000002000+00000876+00000+0001T   00000876+0000001303          1400 Y51785               1AZ
108979012108979079-000345     108979006001023890146FELT-TIP PENS 8PCE     0000001000+00003069+00000+0001T   00003069+0000001303          1400 Y51130               1AZ
108979013108979266-001499     108979006001023624925TOP & STRING 2 PACK    0000001000+00000700+00000+0001T   00000700+0000001303          1400 Y51710               1AZ
108980000108980               108980               170213PJ     1400+00000+PJ0000001490+0000001490+000000000+000000209+0000001690+0000000009+I20000000000+0000001690+Z
108980001108980004-078992     108980004905524102529EARPHONES MINI         0000001000+00001490+00000+0001T   00001490+0000001315          1400 Y51310               1AZ
108981000108981               108981               170213PJ     1400+00000+PJ0000014954+0000014954+000000000+000002096+0000017050+0000000000+I40000017050+0000000000+Z
108981001108981112-116069     108981006009681820277TCS CARRIER BAG JUMBO  0000001000+00000048+00000+0001T   00000048+0000001331          1400 Y51090               1AZ
108981002108981106-005122     108981006003000594825ICE LOLLY MAKER LARGE  0000002000+00004385+00000+0001T   00004385+0000001331          1400 Y51210               1AZ
108981003108981012-000021     108981006003000657902M/WAVE MUG 650ml       0000002000+00002630+00000+0001T   00002630+0000001331          1400 Y51300               1AZ
108981004108981046-001620-PK2 108981004897006178408BATTERY LITHIUM CR-16200000001000+00000876+00000+0001T   00000876+0000001331          1400 Y51312               1AZ
108982000108982               108982               170213PJ     1400+00000+PJ0000001402+0000001402+000000000+000000197+0000001590+0000000009+I20000000000+0000001590+Z
108982001108982027-009030     108982006002814400100DUSTPAN PL             0000001000+00001402+00000+0001T   00001402+0000001334          1400 Y51212               1AZ
108983000108983               108983               170213PJ     1400+00000+PJ0000003156+0000003156+000000000+000000442+0000003598+0000000000+I40000003598+0000000000+Z
108983001108983077-000303     108983006001023593757GIFT-BAG PAPER MED     0000001000+00001578+00000+0001T   00001578+0000001337          1400 Y51112               1AZ
108983002108983080-000124     108983006003000297733CARD & ENV VALENTINES  0000001000+00001578+00000+0001T   00001578+0000001337          1400 Y51112               1AZ
108984000108984               108984               170213PJ     1400+00000+PJ0000001227+0000001227+000000000+000000172+0000001390+0000000009+I20000000000+0000001390+Z
108984001108984007-000160     108984006009685857286NOTE-BOOK A5 SHORTHAND 0000001000+00001227+00000+0001T   00001227+0000001347          1400 Y51130               1AZ
108985000108985               108985               170213PJ     1400+00000+PJ0000002366+0000002366+000000000+000000332+0000002690+0000000008+I20000000000+0000002690+Z
108985001108985071-001012     108985006001023474445MARKERS BLACK ROUND    0000001000+00000876+00000+0001T   00000876+0000001350          1400 Y51130               1AZ
108985002108985362-000306     108985006003000450039HAIR BAND SET 18PC     0000001000+00001490+00000+0001T   00001490+0000001350          1400 Y51160               1AZ
108986000108986               108986               170213PJ     1400+00000+PJ0000003069+0000003069+000000000+000000430+0000003499+0000000000+I40000003499+0000000000+Z
108986001108986466-000587     108986006008766113587SKIPPING ROPE WOODEN   0000001000+00003069+00000+0001T   00003069+0000001352          1400 Y51785               1AZ
108987000108987               108987               170213PJ     1400+00000+PJ0000002100+0000002100+000000000+000000296+0000002396+0000000000+I40000002396+0000000000+Z
108987001108987903-000194     108987006009826020616SWT CHOC RP LOLLY 25G  0000001000+00001314+00000+0001T   00001314+0000001354          1400 Y51150               1AZ
108987002108987903-000183     108987006003000451043SWT LB HEART LOLLY     0000002000+00000393+00000+0001T   00000393+0000001354          1400 Y51150               1AZ
108988000108988               108988               170213PJ     1400+00000+PJ0000001753+0000001753+000000000+000000246+0000001999+0000000000+I40000001999+0000000000+Z
108988001108988071-008229     108988006003000216017PENCIL-BAG ASTD COL A5 0000001000+00001753+00000+0001T   00001753+0000001356          1400 Y51130               1AZ
108989000108989               108989               170213PJ     1400+00000+PJ0000006205+0000006205+000000000+000000871+0000007070+0000000006+I20000000000+0000007070+Z
108989001108989077-000270     108989006003000395453GIFT-BAG PPR JMB 33X45 0000001000+00002630+00000+0001T   00002630+0000001506          1400 Y51112               1AZ
108989002108989174-000306     108989006003000245024TRAVEL TAG NAME/LUGGAGE0000002000+00001753+00000+0001T   00001753+0000001506          1400 Y51205               1AZ
108989003108989112-116053     108989006006438002399TCS CARRIER BAG 38L    0000001000+00000069+00000+0001T   00000069+0000001506          1400 Y51090               1AZ
108990000108990               108990               170213PJ     1400+00000+PJ0000021485+0000021485+000000000+000003009+0000024494+0000000000+I40000024494+0000000000+Z
108990001108990304-001169     108990006003000523894FLOWER FLOATING 28CM   0000003000+00005262+00000+0001T   00005262+0000001509          1400 Y51510               1AZ
108990002108990304-001168     108990006003000407781FLWR FLOATING LOTUS ASS0000001000+00003507+00000+0001T   00003507+0000001509          1400 Y51510               1AZ
108990003108990304-001167     108990006001023846099FLOWER LOTUS FLOATING  0000001000+00002192+00000+0001T   00002192+0000001509          1400 Y51510               1AZ
108991000108991               108991               170213PJ     1400+00000+PJ0000024560+0000024560+000000000+000003439+0000027990+0000000009+I20000000000+0000027990+Z
108991001108991496-058431     108991000078257584314POOL SOFT-SIDE 188x46cm0000001000+00024560+00000+0001T   00024560+0000001511          1400 Y51787               1AZ
108992000108992               108992               170213PJ     1400+00000+PJ0000003104+0000003104+000000000+000000435+0000003539+0000000000+I40000003539+0000000000+Z
108992001108992031-000864-A   108992006001023798350P/FRAME MAHOGANY 10X15 0000001000+00003069+00000+0001T   00003069+0000001540          1400 Y51510               1AZ
108992002108992112-116038     108992006009681820246TCS CARRIER BAG MIDI   0000001000+00000035+00000+0001T   00000035+0000001540          1400 Y51090               1AZ
108993000108993               108993               170213PJ     1400+00000+PJ0000009505+0000009505+000000000+000001332+0000010837+0000000000+I40000010837+0000000000+Z
108993001108993031-000874-A   108993006001023798800P/FRAME WDN P/BOX 10X150000002000+00003946+00000+0001T   00003946+0000001542          1400 Y51510               1AZ
108993002108993077-000303     108993006001023593757GIFT-BAG PAPER MED     0000001000+00001578+00000+0001T   00001578+0000001542          1400 Y51112               1AZ
108993003108993112-116038     108993006009681820246TCS CARRIER BAG MIDI   0000001000+00000035+00000+0001T   00000035+0000001542          1400 Y51090               1AZ
108994000108994               108994               170213PJ     1400+00000+PJ0000008135+0000008135+000000000+000001141+0000009276+0000000000+I40000009276+0000000000+Z
108994001108994560-000022     108994006003000651511ANIMALS CROC 29.5cm    0000001000+00004385+00000+0001T   00004385+0000001554          1400 Y51745               1AZ
108994002108994560-000201     108994006001023400147RUBBER SNAKE 86cm      0000001000+00002630+00000+0001T   00002630+0000001554          1400 Y51745               1AZ
108994003108994079-009702-B   108994008427973059491PAPER SIRIO A2 WHITE   0000001000+00001051+00000+0001T   00001051+0000001554          1400 Y51130               1AZ
108994004108994112-116053     108994006006438002399TCS CARRIER BAG 38L    0000001000+00000069+00000+0001T   00000069+0000001554          1400 Y51090               1AZ
108995000108995               108995               170213PJ     1400+00000+PJ0000004208+0000004208+000000000+000000590+0000004798+0000000000+I40000004798+0000000000+Z
108995001108995080-000124     108995006003000297733CARD & ENV VALENTINES  0000001000+00001578+00000+0001T   00001578+0000001603          1400 Y51112               1AZ
108995002108995089-000191     108995006003000430185KEY CHAIN BEAR 10CM    0000001000+00002630+00000+0001T   00002630+0000001603          1400 Y51205               1AZ
108996000108996               108996               170213PJ     1400+00000+PJ0000000924+0000000924+000000000+000000130+0000001050+0000000004+I20000000000+0000001050+Z
108996001108996077-000314     108996006003000181148GIFT-BAG 11X14CM MATT  0000001000+00000876+00000+0001T   00000876+0000001605          1400 Y51112               1AZ
108996002108996112-116069     108996006009681820277TCS CARRIER BAG JUMBO  0000001000+00000048+00000+0001T   00000048+0000001605          1400 Y51090               1AZ
108997000108997               108997               170213PJ     1400+00000+PJ0000007940+0000007940+000000000+000001112+0000009052+0000000000+I40000009052+0000000000+Z
108997001108997018-000136     108997006001023659026MUG OCC LOVE W/PLUSH   0000001000+00003507+00000+0001T   00003507+0000001609          1400 Y51515               1AZ
108997002108997031-080508     108997006001023802415P/FRAME PL 22X11CM LOVE0000001000+00004385+00000+0001T   00004385+0000001609          1400 Y51510               1AZ
108997003108997112-116069     108997006009681820277TCS CARRIER BAG JUMBO  0000001000+00000048+00000+0001T   00000048+0000001609          1400 Y51090               1AZ
108998000108998               108998               170213PJ     1400+00000+PJ0000009647+0000009647+000000000+000001351+0000010998+0000000000+I40000010998+0000000000+Z
108998001108998024-000020     108998006003000108640ICING-SET PL S/S NOZZLE0000001000+00007455+00000+0001T   00007455+0000001614          1400 Y51300               1AZ
108998002108998024-091103     108998006003453014307BAKING-CUP MUFFIN 50PCE0000001000+00002192+00000+0001T   00002192+0000001614          1400 Y51300               1AZ
108999000108999               108999               170213PJ     1400+00000+PJ0000005698+0000005698+000000000+000000799+0000006490+0000000007+I20000000000+0000006490+Z
108999001108999084-006996     108999006003000092833NAIL CLIPPER 6cm       0000001000+00001753+00000+0001T   00001753+0000001619          1400 Y51200               1AZ
108999002108999033-000780     108999006001023752611COSMETIC-BRUSH-SET 7PCE0000001000+00002192+00000+0001T   00002192+0000001619          1400 Y51200               1AZ
108999003108999491-059642     108999000078257596423INTEX ARMBAND 6-12YRS  0000001000+00001753+00000+0001T   00001753+0000001619          1400 Y51787               1AZ
109000000109000               109000               170213PJ     1400+00000+PJ0000006752+0000006752+000000000+000000946+0000007690+0000000008+I20000000000+0000007690+Z
109000001109000016-006700     109000006003000674640S/JAR GLS DAISY 1.4L   0000001000+00005262+00000+0001T   00005262+0000001637          1400 Y51300               1AZ
109000002109000002-021064     109000006001023822246TOOTHPICKS IN-HOLDER   0000001000+00001490+00000+0001T   00001490+0000001637          1400 Y51300               1AZ
109001000109001               109001               170213PJ     1400+00000+PJ0000021974+0000021974+000000000+000003077+0000025051+0000000000+I40000025051+0000000000+Z
109001001109001077-000463     109001006003000321698G/BAG GLITTER MED20x28 0000002000+00002192+00000+0001T   00002192+0000001647          1400 Y51112               1AZ
109001002109001365-064009     109001006003000242634PLAY-SET CARRY BOX&PET 0000001000+00017542+00000+0001T   00017542+0000001647          1400 Y51725               1AZ
109001003109001112-116069     109001006009681820277TCS CARRIER BAG JUMBO  0000001000+00000048+00000+0001T   00000048+0000001647          1400 Y51090               1AZ
109002000109002               109002               170213PJ     1400+00000+PJ0000006173+0000006173+000000000+000000865+0000007038+0000000000+I40000007038+0000000000+Z
109002001109002001-000175     109002006001023788108B/MUG GLS LOVE 380ML   0000001000+00004385+00000+0001T   00004385+0000001649          1400 Y51515               1AZ
109002002109002903-000926     109002006914204004556SWT NOVELTY ST N/LACE  0000001000+00001753+00000+0001T   00001753+0000001649          1400 Y51150               1AZ
109002003109002112-116038     109002006009681820246TCS CARRIER BAG MIDI   0000001000+00000035+00000+0001T   00000035+0000001649          1400 Y51090               1AZ
109003000109003               109003               170213PJ     1400+00000+PJ0000007677+0000007677+000000000+000001076+0000008753+0000000000+I40000008753+0000000000+Z
109003001109003077-000299     109003006003000395576G/BAG 32x25cm LRG LOVE 0000001000+00001490+00000+0001T   00001490+0000001654          1400 Y51112               1AZ
109003002109003018-005007     109003006003000515516MUG OCC. LOVE W/HEARTS 0000001000+00006139+00000+0001T   00006139+0000001654          1400 Y51515               1AZ
109003003109003112-116069     109003006009681820277TCS CARRIER BAG JUMBO  0000001000+00000048+00000+0001T   00000048+0000001654          1400 Y51090               1AZ
109004000109004               109004               170213PJ     1400+00000+PJ0000003507+0000003507+000000000+000000491+0000003990+0000000008+I20000000000+0000003990+Z
109004001109004031-000923     109004006001023669933P/FRAME BLK W/WORDS    0000001000+00003507+00000+0001T   00003507+0000001659          1400 Y51510               1AZ
109005000109005               109005               170213PJ     1400+00000+PJ0000003979+0000003979+000000000+000000558+0000004530+0000000007+I20000000000+0000004530+Z
109005001109005006-000166-G   109005006003000607976BALLOONS HELIUM 6PC BLK0000001000+00001314+00000+0001T   00001314+0000001700          1400 Y51131               1AZ
109005002109005006-000111     109005006003000519385BALLOONS LARGE 12PCE   0000001000+00002630+00000+0001T   00002630+0000001700          1400 Y51131               1AZ
109005003109005112-116038     109005006009681820246TCS CARRIER BAG MIDI   0000001000+00000035+00000+0001T   00000035+0000001700          1400 Y51090               1AZ
109006000109006               109006               170213PJ     1400+00000+PJ0000002803+0000002803+000000000+000000393+0000003190+0000000006+I20000000000+0000003190+Z
109006001109006903-000843     109006008693029031067SWT GUMMY JELAXY 80G   0000001000+00000964+00000+0001T   00000964+0000001703          1400 Y51150               1AZ
109006002109006903-000194     109006006009826020616SWT CHOC RP LOLLY 25G  0000001000+00001314+00000+0001T   00001314+0000001703          1400 Y51150               1AZ
109006003109006903-000151     109006006009803374411SWT SML RND R/BOW LOLLY0000001000+00000525+00000+0001T   00000525+0000001703          1400 Y51150               1AZ
109007000109007               109007               170213PJ     1400+00000+PJ0000009693+0000009693+000000000+000001358+0000011051+0000000000+I40000011051+0000000000+Z
109007001109007077-000303     109007006001023593757GIFT-BAG PAPER MED     0000001000+00001578+00000+0001T   00001578+0000001705          1400 Y51112               1AZ
109007002109007080-000127     109007006003000424351VALENTINES DAY 36x24CM 0000001000+00002192+00000+0001T   00002192+0000001705          1400 Y51112               1AZ
109007003109007368-000049     109007006003000536955PLUSH BEAR 15cm LOVE   0000001000+00004385+00000+0001T   00004385+0000001705          1400 Y51745               1AZ
109007004109007565-004101     109007006003000548033BALL BOUNCING EGG      0000001000+00001490+00000+0001T   00001490+0000001705          1400 Y51745               1AZ
109007005109007112-116069     109007006009681820277TCS CARRIER BAG JUMBO  0000001000+00000048+00000+0001T   00000048+0000001705          1400 Y51090               1AZ
109008000109008               109008               170213PJ     1400+00000+PJ0000005262+0000005262+000000000+000000737+0000005990+0000000009+I20000000000+0000005990+Z
109008001109008368-000101     109008006003000449859PLUSH CAT 17cm KITTY   0000001000+00005262+00000+0001T   00005262+0000001706          1400 Y51745               1AZ
109009000109009               109009               170213PJ     1400+00000+PJ0000010304+0000010304+000000000+000001445+0000011740+0000000009+I20000000000+0000011740+Z
109009001109009031-080508     109009006001023802415P/FRAME PL 22X11CM LOVE0000001000+00004385+00000+0001T   00004385+0000001713          1400 Y51510               1AZ
109009002109009903-000194     109009006009826020616SWT CHOC RP LOLLY 25G  0000001000+00001314+00000+0001T   00001314+0000001713          1400 Y51150               1AZ
109009003109009903-000925     109009006009706300296SWT NOVELTY SURPRISE   0000002000+00001402+00000+0001T   00001402+0000001713          1400 Y51150               1AZ
109009004109009077-000454     109009006003000285266G/BAG METALLIC LRG EMB 0000001000+00001753+00000+0001T   00001753+0000001713          1400 Y51112               1AZ
109009005109009112-116069     109009006009681820277TCS CARRIER BAG JUMBO  0000001000+00000048+00000+0001T   00000048+0000001713          1400 Y51090               1AZ
109010000109010               109010               170213PJ     1400+00000+PJ0000001752+0000001752+000000000+000000246+0000001990+0000000008+I20000000000+0000001990+Z
109010001109010903-003080     109010005907029004673SWT SNACK STIX CHOC 50g0000002000+00000876+00000+0001T   00000876+0000001714          1400 Y51150               1AZ
109011000109011               109011               170213PJ     1400+00000+PJ0000001490+0000001490+000000000+000000209+0000001690+0000000009+I20000000000+0000001690+Z
109011001109011565-004101     109011006003000548033BALL BOUNCING EGG      0000001000+00001490+00000+0001T   00001490+0000001716          1400 Y51745               1AZ
109012000109012               109012               170213PJ     1400+00000+PJ0000021111+0000021111+000000000+000002960+0000024070+0000000001+I20000000000+0000024070+Z
109012001109012071-003011     109012006001023762825PEN STICKBALL X10 ASSTD0000001000+00001753+00000+0001T   00001753+0000001721          1400 Y51130               1AZ
109012002109012080-000113     109012006003000237449CARD&ENVLPE - LOVE     0000001000+00001753+00000+0001T   00001753+0000001721          1400 Y51112               1AZ
109012003109012162-094735     109012006001492947358#TAG HOT DEAL ASST     0000001000+00001753+00000+0001T   00001753+0000001721          1400 Y51160               1AZ
109012004109012037-000001     109012006001023490445ASHTRAY 14cm ASSTD     0000001000+00001753+00000+0001T   00001753+0000001721          1400 Y51515               1AZ
109012005109012031-080508     109012006001023802415P/FRAME PL 22X11CM LOVE0000001000+00004385+00000+0001T   00004385+0000001721          1400 Y51510               1AZ
109012006109012077-000270     109012006003000395453GIFT-BAG PPR JMB 33X45 0000001000+00002630+00000+0001T   00002630+0000001721          1400 Y51112               1AZ
109012007109012112-116053     109012006006438002399TCS CARRIER BAG 38L    0000001000+00000069+00000+0001T   00000069+0000001721          1400 Y51090               1AZ
109012008109012083-000058     109012006003000400331LIGHTER JET CIGAR REFIL0000001000+00002630+00000+0001T   00002630+0000001721          1400 Y51315               1AZ
109012009109012368-000049     109012006003000536955PLUSH BEAR 15cm LOVE   0000001000+00004385+00000+0001T   00004385+0000001721          1400 Y51745               1AZ
109013000109013               109013               170213PJ     1400+00000+PJ0000004780+0000004780+000000000+000000671+0000005451+0000000000+I40000005451+0000000000+Z
109013001109013903-004951     109013006002580020328SWT MALLOW MINI M/SHAKE0000001000+00001227+00000+0001T   00001227+0000001724          1400 Y51150               1AZ
109013002109013077-000151     109013006008766114676GIFT-WRAP C/PHANE ASSTD0000001000+00000876+00000+0001T   00000876+0000001724          1400 Y51112               1AZ
109013003109013077-000150-D   109013006003000054343GIFT-WRAP CELLPHANE CLR0000001000+00000876+00000+0001T   00000876+0000001724          1400 Y51112               1AZ
109013004109013018-000108     109013006001023380265MUG NOVELTY ICON ASST  0000001000+00001753+00000+0001T   00001753+0000001724          1400 Y51515               1AZ
109013005109013112-116069     109013006009681820277TCS CARRIER BAG JUMBO  0000001000+00000048+00000+0001T   00000048+0000001724          1400 Y51090               1AZ
109014000109014               109014               170213PJ     1400+00000+PJ0000019071+0000019071+000000000+000002674+0000021740+0000000005+I20000000000+0000021740+Z
109014001109014368-000175     109014006003000270316PLUSH BEAR 4 ASSTD 18CM0000002000+00006139+00000+0001T   00006139+0000001731          1400 Y51745               1AZ
109014002109014112-116038     109014006009681820246TCS CARRIER BAG MIDI   0000001000+00000035+00000+0001T   00000035+0000001731          1400 Y51090               1AZ
109014003109014368-000175     109014006003000270316PLUSH BEAR 4 ASSTD 18CM0000001000-00006139+00000+0001T   00006139+0000001731          1400 Y517451IC            1 Z
109014004109014368-000175     109014006003000270316PLUSH BEAR 4 ASSTD 18CM0000001000-00006139+00000+0001T   00006139+0000001731          1400 Y517451IC            1 Z
109014005109014112-116038     109014006009681820246TCS CARRIER BAG MIDI   0000001000-00000035+00000+0001T   00000035+0000001731          1400 Y510901IC            1 Z
109014006109014046-000400     109014006001023804983BATT ALKALINE 1.5Vx30PC0000001000+00003244+00000+0001T   00003244+0000001731          1400 Y51312               1AZ
109014007109014080-000127     109014006003000424351VALENTINES DAY 36x24CM 0000001000+00002192+00000+0001T   00002192+0000001731          1400 Y51112               1AZ
109014008109014077-000303     109014006001023593757GIFT-BAG PAPER MED     0000001000+00001578+00000+0001T   00001578+0000001731          1400 Y51112               1AZ
109014009109014007-000614     109014006001023768667DIARY W/LOCK+PEN LOVE  0000001000+00005262+00000+0001T   00005262+0000001731          1400 Y51130               1AZ
109014010109014083-000058     109014006003000400331LIGHTER JET CIGAR REFIL0000001000+00002630+00000+0001T   00002630+0000001731          1400 Y51315               1AZ
109014011109014112-116069     109014006009681820277TCS CARRIER BAG JUMBO  0000001000+00000048+00000+0001T   00000048+0000001731          1400 Y51090               1AZ
109014012109014083-000055     109014006003000003853LIGHTER ELCTRNC REFILBL0000003000+00000613+00000+0001T   00000613+0000001731          1400 Y51315               1AZ
109014013109014903-000862     109014005010478533912SWT DOUBLE DIP 19G     0000002000+00001139+00000+0001T   00001139+0000001731          1400 Y51150               1AZ
109015000109015               109015               170213PJ     1400+00000+PJ0000003242+0000003242+000000000+000000455+0000003690+0000000007+I20000000000+0000003690+Z
109015001109015200-003026     109015006003000276448REFUSE BAGS 10PCE GREEN0000001000+00001753+00000+0001T   00001753+0000001735          1400 Y51214               1AZ
109015002109015007-000127     109015006009685853431BOOK H/COVER MEMO 144PG0000001000+00000876+00000+0001T   00000876+0000001735          1400 Y51130               1AZ
109015003109015033-005994     109015006001023789570SEWING-NEEDLES 16PCE   0000001000+00000613+00000+0001T   00000613+0000001735          1400 Y51200               1AZ
109016000109016               109016               170213PJ     1400+00000+PJ0000002630+0000002630+000000000+000000369+0000002990+0000000009+I20000000000+0000002990+Z
109016001109016083-000058     109016006003000400331LIGHTER JET CIGAR REFIL0000001000+00002630+00000+0001T   00002630+0000001736          1400 Y51315               1AZ
109017000109017               109017               170213PJ     1400+00000+PJ0000001578+0000001578+000000000+000000221+0000001799+0000000000+I40000001799+0000000000+Z
109017001109017077-000303     109017006001023593757GIFT-BAG PAPER MED     0000001000+00001578+00000+0001T   00001578+0000001742          1400 Y51112               1AZ
M17021391                              CASH        PJSLAVE 1                       Z-REPORT No.   507TOTAL (Sales - Refunds)           5676.47       CASH TO BE BANKED                 2601.00       DEBIT CARDS                          0.00       CREDIT CARDS                      3075.47       Z-READING                         5676.47       AIRTIME DEBIT CARD SALES             0.00       AIRTIME CARD SALES                   0.00       OVERS/UNDERS                         0.00       AIRTIME CASH SALES                   0.00       GIFT CARDS                           0.00       GIFT CARD CASH SALES                 0.00       T O T A L  CASH PAYOUTS              0.00                                                                                                                                                                                                                                                                                                                                                      Z
M17021392                              CASH        PJABSENT                                                                                                                                                                                          ANNUAL LEAVE                                                                                                                                                                                    DAY OFF                                                                                                                                                                                         COMMENTS                                                                                                                                                                                                                                                                                                                                                                                       Z
Y17021300                                          PJ00000000510425+000067
ZPJ17021320183 SLAVE 1      SALES DATA                     NEXT INVOICE NO.  109018 0507
X PJ Slave 1 First invoice 108951 170213 Last invoice 109017 170213 Next invoice 109018 Total number of records 000000255 clbackup completed 20:18:48
