205081000205081               205081               170213PJ     1400+00000+PJ0000001362+0000001362+000000000+000000191+0000001553+0000000000+I40000001553+0000000000+Z
205081001205081107-004105     205081006002923010504BUCKET 9L OPEN         0000001000+00001314+00000+0001T   00001314+0000000925          1400 SD3210               2AZ
205081002205081112-116069     205081006009681820277TCS CARRIER BAG JUMBO  0000001000+00000048+00000+0001T   00000048+0000000925          1400 SD3090               2AZ
205082000205082               205082               170213PJ     1400+00000+PJ0000003467+0000003467+000000000+000000486+0000003950+0000000003+I20000000000+0000003950+Z
205082001205082080-000127     205082006003000424351VALENTINES DAY 36x24CM 0000001000+00002192+00000+0001T   00002192+0000000930          1400 SD3112               2AZ
205082002205082007-000160     205082006009685857286NOTE-BOOK A5 SHORTHAND 0000001000+00001227+00000+0001T   00001227+0000000930          1400 SD3130               2AZ
205082003205082112-116069     205082006009681820277TCS CARRIER BAG JUMBO  0000001000+00000048+00000+0001T   00000048+0000000930          1400 SD3090               2AZ
205083000205083               205083               170213PJ     1400+00000+PJ0000032081+0000032081+000000000+000004493+0000036570+0000000004+I20000000000+0000036570+Z
205083001205083072-020241     205083006946859290039PET CAVE 42x45x40cm    0000001000+00017542+00000+0001T   00017542+0000000939          1400 SD3870               2AZ
205083002205083072-020297-A   205083006003000603947PET CAT SCRATCH PAD    0000001000+00008771+00000+0001T   00008771+0000000939          1400 SD3870               2AZ
205083003205083072-020295     205083006003000451609PET CAT TOY MOUSE W/ZIP0000001000+00002630+00000+0001T   00002630+0000000939          1400 SD3870               2AZ
205083004205083072-000350     205083006003000304882PET CAT TOY PLUSH W/BEL0000001000+00003069+00000+0001T   00003069+0000000939          1400 SD3870               2AZ
205083005205083112-116053     205083006006438002399TCS CARRIER BAG 38L    0000001000+00000069+00000+0001T   00000069+0000000939          1400 SD3090               2AZ
205084000205084               205084               170213PJ     1400+00000+PJ0000010338+0000010338+000000000+000001448+0000011780+0000000006+I20000000000+0000011780+Z
205084001205084200-000092     205084006003000576739PICNIC PAPER PLATES 23c0000002000+00001227+00000+0001T   00001227+0000000949          1400 SD3214               2AZ
205084002205084563-000317-B   205084006001023776174SERVIETTES PLN WHT PK400000006000+00001314+00000+0001T   00001314+0000000949          1400 SD3214               2AZ
205085000205085               205085               170213PJ     1400+00000+PJ0000002715+0000002715+000000000+000000381+0000003090+0000000006+I20000000000+0000003090+Z
205085001205085566-000018     205085006001023995018S/BOOK H/MADE STICKER  0000001000+00000876+00000+0001T   00000876+0000001002          1400 SD3130               2AZ
205085002205085566-020157     205085006001023889157STICKERS VELVET ANIMALS0000003000+00000613+00000+0001T   00000613+0000001002          1400 SD3130               2AZ
205086000205086               205086               170213PJ     1400+00000+PJ0000002629+0000002629+000000000+000000369+0000002990+0000000008+I20000000000+0000002990+Z
205086001205086251-000030     205086006001023515803MASKING-TAPE 18mmx40m  0000001000+00001139+00000+0001T   00001139+0000001006          1400 SD3810               2AZ
205086002205086565-004101     205086006003000548033BALL BOUNCING EGG      0000001000+00001490+00000+0001T   00001490+0000001006          1400 SD3745               2AZ
205087000205087               205087               170213PJ     1400+00000+PJ0000000000+0000000000+000000000+000000000+0000000000+0000000000+I20000000000+0000000000+Z
205087001205087565-000733     205087006001023876751NOVELTY PUTTY FOAM     0000001000-00001753+00000+0001T   00001753+0000001114          1400 SD37451IC            2 Z
205087002205087079-013099     205087006003000081875ART+CRAFT EYES ASSTD   0000001000+00001753+00000+0001T   00001753+0000001114          1400 SD3130               2 Z
205088000205088               205088               170213PJ     1400+00000+PJ0000001613+0000001613+000000000+000000226+0000001830+0000000009+I20000000000+0000001830+Z
205088001205088077-000303     205088006001023593757GIFT-BAG PAPER MED     0000001000+00001578+00000+0001T   00001578+0000001121          1400 SD3112               2AZ
205088002205088112-116038     205088006009681820246TCS CARRIER BAG MIDI   0000001000+00000035+00000+0001T   00000035+0000001121          1400 SD3090               2AZ
205089000205089               205089               170213PJ     1400+00000+PJ0000004997+0000004997+000000000+000000701+0000005698+0000000000+I40000005698+0000000000+Z
205089001205089046-000010-A   205089006003000438778BATTERIES SIZE:AAA 4PCE0000001000+00002367+00000+0001T   00002367+0000001124          1400 SD3312               2AZ
205089002205089046-000011-A   205089006003000438891BATTERIES SIZE:AA  4PCE0000001000+00002630+00000+0001T   00002630+0000001124          1400 SD3312               2AZ
205090000205090               205090               170213PJ     1400+00000+PJ0000007892+0000007892+000000000+000001106+0000008990+0000000008+I20000000000+0000008990+Z
205090001205090159-000107     205090006001023640406SHOWER-CURTAIN 180cm   0000001000+00005262+00000+0001T   00006139+0008191157          1400 SD3200               2AZ
205090002205090082-000388     205090006001023774385SPECT-CASE SPRING-CLOSE0000001000+00002630+00000+0001T   00002630+0000001157          1400 SD3160               2AZ
205091000205091               205091               170213PJ     1400+00000+PJ0000003541+0000003541+000000000+000000497+0000004030+0000000008+I20000000000+0000004030+Z
205091001205091089-000019     205091006003000092291K/CHAIN MINI BOOT 13cm 0000002000+00001753+00000+0001T   00001753+0000001316          1400 SD3205               2AZ
205091002205091112-116038     205091006009681820246TCS CARRIER BAG MIDI   0000001000+00000035+00000+0001T   00000035+0000001316          1400 SD3090               2AZ
205092000205092               205092               170213PJ     1400+00000+PJ0000001928+0000001928+000000000+000000270+0000002190+0000000008+I20000000000+0000002190+Z
205092001205092174-008034     205092006009654960610TRAVEL BOTTLES 150ml   0000001000+00001928+00000+0001T   00001928+0000001317          1400 SD3205               2AZ
205093000205093               205093               170213PJ     1400+00000+PJ0000006136+0000006136+000000000+000000861+0000006997+0000000000+I40000006997+0000000000+Z
205093001205093071-081112     205093006936198404945CORRECTION TAPE 10mx5mm0000002000+00001753+00000+0001T   00001753+0000001324          1400 SD3130               2AZ
205093002205093403-000502-A   205093006003000467099M/BANK TIN 8x12.5cm    0000001000+00002630+00000+0001T   00002630+0000001324          1400 SD3510               2AZ
205094000205094               205094               170213PJ     1400+00000+PJ0000019295+0000019295+000000000+000002702+0000021997+0000000000+I40000021997+0000000000+Z
205094001205094071-081112     205094006936198404945CORRECTION TAPE 10mx5mm0000001000+00001753+00000+0001T   00001753+0000001326          1400 SD3130               2AZ
205094002205094365-064009     205094006003000242634PLAY-SET CARRY BOX&PET 0000001000+00017542+00000+0001T   00017542+0000001326          1400 SD3725               2AZ
205095000205095               205095               170213PJ     1400+00000+PJ0000024790+0000024790+000000000+000003475+0000028265+0000000000+I40000028265+0000000000+Z
205095001205095112-116053     205095006006438002399TCS CARRIER BAG 38L    0000001000+00000069+00000+0001T   00000069+0000001329          1400 SD3090               2AZ
205095002205095077-000270     205095006003000395453GIFT-BAG PPR JMB 33X45 0000001000+00002630+00000+0001T   00002630+0000001329          1400 SD3112               2AZ
205095003205095368-000637     205095006001023874092PLUSH BEAR SLEEPING LOV0000001000+00011402+00000+0001T   00012279+0006471329          1400 SD3745               2AZ
205095004205095018-000136     205095006001023659026MUG OCC LOVE W/PLUSH   0000001000+00003507+00000+0001T   00003507+0000001329          1400 SD3515               2AZ
205095005205095903-003080     205095005907029004673SWT SNACK STIX CHOC 50g0000001000+00000876+00000+0001T   00000876+0000001329          1400 SD3150               2AZ
205095006205095903-000200     205095006009826020234SWT CHOC RP CHOCO 23G  0000003000+00000788+00000+0001T   00000788+0000001329          1400 SD3150               2AZ
205095007205095903-000194     205095006009826020616SWT CHOC RP LOLLY 25G  0000003000+00001314+00000+0001T   00001314+0000001329          1400 SD3150               2AZ
205096000205096               205096               170213PJ     1400+00000+PJ0000002146+0000002146+000000000+000000302+0000002440+0000000008+I20000000000+0000002440+Z
205096001205096084-000889     205096006003000293674NAIL FILE EMERY 18CM   0000001000+00001753+00000+0001T   00001753+0000001333          1400 SD3200               2AZ
205096002205096903-000183     205096006003000451043SWT LB HEART LOLLY     0000001000+00000393+00000+0001T   00000393+0000001333          1400 SD3150               2AZ
205097000205097               205097               170213PJ     1400+00000+PJ0000003191+0000003191+000000000+000000447+0000003638+0000000000+I40000003638+0000000000+Z
205097001205097080-000124     205097006003000297733CARD & ENV VALENTINES  0000001000+00001578+00000+0001T   00001578+0000001355          1400 SD3112               2AZ
205097002205097018-000127     205097006001023380289MUG OCC STRAIGHT LOVE  0000001000+00001578+00000+0001T   00001753+0006471355          1400 SD3515               2AZ
205097003205097112-116038     205097006009681820246TCS CARRIER BAG MIDI   0000001000+00000035+00000+0001T   00000035+0000001355          1400 SD3090               2AZ
205098000205098               205098               170213PJ     1400+00000+PJ0000004385+0000004385+000000000+000000614+0000004990+0000000009+I20000000000+0000004990+Z
205098001205098266-000508     205098006001023837172FIG ROBOT SET OF 6 8cm 0000001000+00004385+00000+0001T   00004385+0000001356          1400 SD3710               2AZ
205099000205099               205099               170213PJ     1400+00000+PJ0000005044+0000005044+000000000+000000708+0000005752+0000000000+I40000005752+0000000000+Z
205099001205099077-000011-L   205099006001023808585P/TISSUE BRIGHT 10SHEET0000001000+00000876+00000+0001T   00000876+0000001402          1400 SD3112               2AZ
205099002205099051-006100     205099006003000267170GARDEN KID TOOLSET 3PCE0000001000+00002630+00000+0001T   00002630+0000001402          1400 SD3820               2AZ
205099003205099077-000299     205099006003000395576G/BAG 32x25cm LRG LOVE 0000001000+00001490+00000+0001T   00001490+0000001402          1400 SD3112               2AZ
205099004205099112-116069     205099006009681820277TCS CARRIER BAG JUMBO  0000001000+00000048+00000+0001T   00000048+0000001402          1400 SD3090               2AZ
205100000205100               205100               170213PJ     1400+00000+PJ0000007014+0000007014+000000000+000000982+0000007990+0000000006+I20000000000+0000007990+Z
205100001205100028-002101     205100006002580009507CHAIR JUNIOR    ASSTD  0000002000+00003507+00000+0001T   00003507+0000001406          1400 SD3305               2AZ
205101000205101               205101               170213PJ     1400+00000+PJ0000007940+0000007940+000000000+000001113+0000009053+0000000000+I40000009053+0000000000+Z
205101001205101077-000270     205101006003000395453GIFT-BAG PPR JMB 33X45 0000001000+00002630+00000+0001T   00002630+0000001409          1400 SD3112               2AZ
205101002205101304-001116     205101006003000426164F/BUNCH ROSES 12-HEAD  0000001000+00005262+00000+0001T   00005262+0000001409          1400 SD3510               2AZ
205101003205101112-116069     205101006009681820277TCS CARRIER BAG JUMBO  0000001000+00000048+00000+0001T   00000048+0000001409          1400 SD3090               2AZ
205102000205102               205102               170213PJ     1400+00000+PJ0000005262+0000005262+000000000+000000737+0000005999+0000000000+I40000005999+0000000000+Z
205102001205102107-004510     205102006002580008968STEP-STOOL PL          0000001000+00005262+00000+0001T   00005262+0000001411          1400 SD3210               2AZ
205103000205103               205103               170213PJ     1400+00000+PJ0000001753+0000001753+000000000+000000246+0000001990+0000000009+I20000000000+0000001990+Z
205103001205103077-000906     205103006003000410804G/WRAP 700mmx1m BIRTHDA0000001000+00001753+00000+0001T   00001753+0000001415          1400 SD3112               2AZ
205104000205104               205104               170213PJ     1400+00000+PJ0000003014+0000003014+000000000+000000423+0000003430+0000000007+I20000000000+0000003430+Z
205104001205104077-000151     205104006008766114676GIFT-WRAP C/PHANE ASSTD0000001000+00000876+00000+0001T   00000876+0000001416          1400 SD3112               2AZ
205104002205104039-000319-2   205104006003000442508B/CANDLES LRG NUMBER-2 0000001000+00000876+00000+0001T   00000876+0000001416          1400 SD3510               2AZ
205104003205104077-000245     205104006001023759214GIFT-RIBBON METALLICx2 0000001000+00001227+00000+0001T   00001227+0000001416          1400 SD3112               2AZ
205104004205104112-116038     205104006009681820246TCS CARRIER BAG MIDI   0000001000+00000035+00000+0001T   00000035+0000001416          1400 SD3090               2AZ
205105000205105               205105               170213PJ     1400+00000+PJ0000001490+0000001490+000000000+000000209+0000001690+0000000009+I20000000000+0000001690+Z
205105001205105263-000413     205105006003000600458VEHICLE RACER PULL BACK0000001000+00001490+00000+0001T   00001490+0000001418          1400 SD3710               2AZ
205106000205106               205106               170213PJ     1400+00000+PJ0000001787+0000001787+000000000+000000251+0000002030+0000000008+I20000000000+0000002030+Z
205106001205106077-000151     205106006008766114676GIFT-WRAP C/PHANE ASSTD0000002000+00000876+00000+0001T   00000876+0000001420          1400 SD3112               2AZ
205106002205106112-116038     205106006009681820246TCS CARRIER BAG MIDI   0000001000+00000035+00000+0001T   00000035+0000001420          1400 SD3090               2AZ
205107000205107               205107               170213PJ     1400+00000+PJ0000007016-0000007016-000000000+000000983-0000008000-0000000001+I20000000000+0000008000-Z
205107001205107304-001121     205107006001023804488F/BRANCH BOUQUET       0000001000-00007016+00000+0001T   00007016+0000001424          1400 SD35101IC            2 Z
205108000205108               205108               170213PJ     1400+00000+PJ0000008771+0000008771+000000000+000001228+0000009999+0000000000+I40000009999+0000000000+Z
205108001205108028-002100     205108006003000243754CHAIR KIDDIES 68x50x48 0000001000+00008771+00000+0001T   00008771+0000001428          1400 SD3305               2AZ
205109000205109               205109               170213PJ     1400+00000+PJ0000006343+0000006343+000000000+000000891+0000007230+0000000004+I20000000000+0000007230+Z
205109001205109077-000150-D   205109006003000054343GIFT-WRAP CELLPHANE CLR0000001000+00000876+00000+0001T   00000876+0000001435          1400 SD3112               2AZ
205109002205109077-000151     205109006008766114676GIFT-WRAP C/PHANE ASSTD0000001000+00000876+00000+0001T   00000876+0000001435          1400 SD3112               2AZ
205109003205109018-000127     205109006001023380289MUG OCC STRAIGHT LOVE  0000001000+00001578+00000+0001T   00001753+0006471435          1400 SD3515               2AZ
205109004205109903-000200     205109006009826020234SWT CHOC RP CHOCO 23G  0000001000+00000788+00000+0001T   00000788+0000001435          1400 SD3150               2AZ
205109005205109301-085002     205109006003000420704ORN OCC. LOVE BELL ASST0000001000+00001753+00000+0001T   00002630+0008121435          1400 SD3505               2AZ
205109006205109112-116038     205109006009681820246TCS CARRIER BAG MIDI   0000001000+00000035+00000+0001T   00000035+0000001435          1400 SD3090               2AZ
205109007205109080-000133-A   205109006003000647019MINI VALENTINES CARD   0000001000+00000437+00000+0001T   00000437+0000001435          1400 SD3112               2AZ
205110000205110               205110               170213PJ     1400+00000+PJ0000002190+0000002190+000000000+000000308+0000002490+0000000008+I20000000000+0000002490+Z
205110001205110080-000133-A   205110006003000647019MINI VALENTINES CARD   0000001000+00000437+00000+0001T   00000437+0000001436          1400 SD3112               2AZ
205110002205110077-000454     205110006003000285266G/BAG METALLIC LRG EMB 0000001000+00001753+00000+0001T   00001753+0000001436          1400 SD3112               2AZ
205111000205111               205111               170213PJ     1400+00000+PJ0000013711+0000013711+000000000+000001920+0000015631+0000000000+I40000015631+0000000000+Z
205111001205111018-005009     205111006001023725608MUG W/PLUSH-BEAR LOVE  0000002000+00003507+00000+0001T   00003507+0000001437          1400 SD3515               2AZ
205111002205111018-000170     205111006001023775528MUG OCC. LOVE 2PC MINI 0000001000+00002192+00000+0001T   00002192+0000001437          1400 SD3515               2AZ
205111003205111084-000365     205111006001023731135MANICURE SET ASSORTED  0000001000+00002192+00000+0001T   00002192+0000001437          1400 SD3200               2AZ
205111004205111903-000843     205111008693029031067SWT GUMMY JELAXY 80G   0000001000+00000964+00000+0001T   00000964+0000001437          1400 SD3150               2AZ
205111005205111903-000194     205111006009826020616SWT CHOC RP LOLLY 25G  0000001000+00001314+00000+0001T   00001314+0000001437          1400 SD3150               2AZ
205111006205111112-116038     205111006009681820246TCS CARRIER BAG MIDI   0000001000+00000035+00000+0001T   00000035+0000001437          1400 SD3090               2AZ
205112000205112               205112               170213PJ     1400+00000+PJ0000006576+0000006576+000000000+000000921+0000007490+0000000007+I20000000000+0000007490+Z
205112001205112565-000080     205112006003000643424NOVELTY BENDY          0000003000+00002192+00000+0001T   00002192+0000001438          1400 SD3745               2AZ
205113000205113               205113               170213PJ     1400+00000+PJ0000007013+0000007013+000000000+000000983+0000007990+0000000006+I20000000000+0000007990+Z
205113001205113077-000011-L   205113006001023808585P/TISSUE BRIGHT 10SHEET0000001000+00000876+00000+0001T   00000876+0000001440          1400 SD3112               2AZ
205113002205113079-013101     205113006001023863706CRAFT SET DIY PIPE-CLNR0000001000+00002630+00000+0001T   00002630+0000001440          1400 SD3130               2AZ
205113003205113079-000600     205113006003000160990ART-SHEETS FOAM ASSTD-C0000001000+00003507+00000+0001T   00003507+0000001440          1400 SD3130               2AZ
205114000205114               205114               170213PJ     1400+00000+PJ0000001753+0000001753+000000000+000000246+0000001990+0000000009+I20000000000+0000001990+Z
205114001205114071-081103     205114006003000197002GLUE STICKS LIQUID 3PCE0000001000+00001753+00000+0001T   00001753+0000001449          1400 SD3130               2AZ
205115000205115               205115               170213PJ     1400+00000+PJ0000002630+0000002630+000000000+000000369+0000002990+0000000009+I20000000000+0000002990+Z
205115001205115566-000345     205115006001023994837STICKER ALBUM+STICKERS 0000001000+00002630+00000+0001T   00002630+0000001452          1400 SD3130               2AZ
205116000205116               205116               170213PJ     1400+00000+PJ0000001753+0000001753+000000000+000000246+0000001990+0000000009+I20000000000+0000001990+Z
205116001205116002-000883     205116006001023770394CAN-OPENER             0000001000+00001753+00000+0001T   00001753+0000001525          1400 SD3300               2AZ
205117000205117               205117               170213PJ     1400+00000+PJ0000001490+0000001490+000000000+000000209+0000001699+0000000000+I40000001699+0000000000+Z
205117001205117071-081110     205117006936198405454CORRECTION FLUID PEN   0000001000+00001490+00000+0001T   00001490+0000001539          1400 SD3130               2AZ
205118000205118               205118               170213PJ     1400+00000+PJ0000002892+0000002892+000000000+000000406+0000003290+0000000008+I20000000000+0000003290+Z
205118001205118903-000087     205118006001704000161SWT SPECKLED-EGGS 50G  0000001000+00001139+00000+0001T   00001139+0000001540          1400 SD3150               2AZ
205118002205118077-000308     205118006001023595812GIFT-BAG 33X45CM E/DAY 0000001000+00001753+00000+0001T   00001753+0000001540          1400 SD3112               2AZ
205119000205119               205119               170213PJ     1400+00000+PJ0000004822+0000004822+000000000+000000676+0000005490+0000000008+I20000000000+0000005490+Z
205119001205119566-001118     205119006003000682171STICKERS CELL PHONE    0000001000+00001753+00000+0001T   00001753+0000001541          1400 SD3130               2AZ
205119002205119079-014152     205119006003000253074ART+CRAFT PK50 ASSTD   0000001000+00003069+00000+0001T   00003069+0000001541          1400 SD3130               2AZ
205120000205120               205120               170213PJ     1400+00000+PJ0000003507+0000003507+000000000+000000491+0000003990+0000000008+I20000000000+0000003990+Z
205120001205120018-000136     205120006001023659026MUG OCC LOVE W/PLUSH   0000001000+00003507+00000+0001T   00003507+0000001542          1400 SD3515               2AZ
205121000205121               205121               170213PJ     1400+00000+PJ0000039512+0000039512+000000000+000005535+0000045040+0000000007+I20000000000+0000045040+Z
205121001205121112-116069     205121006009681820277TCS CARRIER BAG JUMBO  0000001000+00000048+00000+0001T   00000048+0000001546          1400 SD3090               2AZ
205121002205121024-000140     205121006001023902429N/STICK S/FORM 25X6CM  0000001000+00013157+00000+0001T   00013157+0000001546          1400 SD3300               2AZ
205121003205121024-000106     205121006001023422040LOAF-PAN NON-STICK LRG 0000001000+00004385+00000+0001T   00004385+0000001546          1400 SD3300               2AZ
205121004205121024-000124     205121006001023466549N/STICK MINI S/FORM 2PC0000001000+00010525+00000+0001T   00010525+0000001546          1400 SD3300               2AZ
205121005205121150-001222     205121006001023495334PLATE-STAND TRANSPARENT0000002000+00001490+00000+0001T   00001490+0000001546          1400 SD3810               2AZ
205121006205121158-000006     205121006003000570614BASKET HEN-SHAPE CHROME0000001000+00004911+00000+0001T   00004911+0000001546          1400 SD3300               2AZ
205121007205121206-000120     205121006003000628308PEELER CARROT SHARPENER0000002000+00001753+00000+0001T   00001753+0000001546          1400 SD3321               2AZ
205122000205122               205122               170213PJ     1400+00000+PJ0000017880+0000017880+000000000+000002508+0000020380+0000000008+I20000000000+0000020380+Z
205122001205122565-004101     205122006003000548033BALL BOUNCING EGG      0000001000-00001490+00000+0001T   00001490+0000001550          1400 SD37451IC            2 Z
205122002205122565-004101     205122006003000548033BALL BOUNCING EGG      0000013000+00001490+00000+0001T   00001490+0000001550          1400 SD37451IC            2AZ
205123000205123               205123               170213PJ     1400+00000+PJ0000007838+0000007838+000000000+000001099+0000008937+0000000000+I40000008937+0000000000+Z
205123001205123018-000129     205123006001023403353MUG OCC. LOVE V-SHAPE  0000001000+00002630+00000+0001T   00002630+0000001553          1400 SD3515               2AZ
205123002205123368-000049     205123006003000536955PLUSH BEAR 15cm LOVE   0000001000+00004385+00000+0001T   00004385+0000001553          1400 SD3745               2AZ
205123003205123903-000200     205123006009826020234SWT CHOC RP CHOCO 23G  0000001000+00000788+00000+0001T   00000788+0000001553          1400 SD3150               2AZ
205123004205123112-116038     205123006009681820246TCS CARRIER BAG MIDI   0000001000+00000035+00000+0001T   00000035+0000001553          1400 SD3090               2AZ
205124000205124               205124               170213PJ     1400+00000+PJ0000010720+0000010720+000000000+000001507+0000012227+0000000000+I40000012227+0000000000+Z
205124001205124084-006996     205124006003000092833NAIL CLIPPER 6cm       0000001000+00001753+00000+0001T   00001753+0000001555          1400 SD3200               2AZ
205124002205124903-000137     205124006002099004130SWEET GS JELLY BEAN 60G0000001000+00000788+00000+0001T   00000788+0000001555          1400 SD3150               2AZ
205124003205124084-009418     205124006003000450305SCISSORS 13cm ASSTD COL0000001000+00001490+00000+0001T   00001490+0000001555          1400 SD3200               2AZ
205124004205124903-000200     205124006009826020234SWT CHOC RP CHOCO 23G  0000002000+00000788+00000+0001T   00000788+0000001555          1400 SD3150               2AZ
205124005205124903-000194     205124006009826020616SWT CHOC RP LOLLY 25G  0000002000+00001314+00000+0001T   00001314+0000001555          1400 SD3150               2AZ
205124006205124112-116038     205124006009681820246TCS CARRIER BAG MIDI   0000001000+00000035+00000+0001T   00000035+0000001555          1400 SD3090               2AZ
205124007205124903-000087     205124006001704000161SWT SPECKLED-EGGS 50G  0000001000+00001139+00000+0001T   00001139+0000001555          1400 SD3150               2AZ
205124008205124080-000133-A   205124006003000647019MINI VALENTINES CARD   0000003000+00000437+00000+0001T   00000437+0000001555          1400 SD3112               2AZ
205125000205125               205125               170213PJ     1400+00000+PJ0000006611+0000006611+000000000+000000926+0000007537+0000000000+I40000007537+0000000000+Z
205125001205125034-091339     205125006003000568253BABY BIB 33x39cm 4ASSTD0000001000+00003507+00000+0001T   00003507+0000001604          1400 SD3215               2AZ
205125002205125072-000014     205125006003000451845PET DOG/CAT BRUSH 20cm 0000001000+00003069+00000+0001T   00003069+0000001604          1400 SD3870               2AZ
205125003205125112-116038     205125006009681820246TCS CARRIER BAG MIDI   0000001000+00000035+00000+0001T   00000035+0000001604          1400 SD3090               2AZ
205126000205126               205126               170213PJ     1400+00000+PJ0000001578+0000001578+000000000+000000221+0000001790+0000000009+I20000000000+0000001790+Z
205126001205126018-000127     205126006001023380289MUG OCC STRAIGHT LOVE  0000001000+00001578+00000+0001T   00001753+0006471613          1400 SD3515               2AZ
205127000205127               205127               170213PJ     1400+00000+PJ0000002537+0000002537+000000000+000000358+0000002890+0000000005+I20000000000+0000002890+Z
205127001205127083-000049     205127004891035200024CIG-LIGHTER DISPOSABLE 0000003000+00000437+00000+0001T   00000437+0000001621          1400 SD3315               2AZ
205127002205127083-000055     205127006003000003853LIGHTER ELCTRNC REFILBL0000002000+00000613+00000+0001T   00000613+0000001621          1400 SD3315               2AZ
205128000205128               205128               170213PJ     1400+00000+PJ0000000788+0000000788+000000000+000000111+0000000890+0000000009+I20000000000+0000000890+Z
205128001205128903-000200     205128006009826020234SWT CHOC RP CHOCO 23G  0000001000+00000788+00000+0001T   00000788+0000001624          1400 SD3150               2AZ
205129000205129               205129               170213PJ     1400+00000+PJ0000004385+0000004385+000000000+000000614+0000004990+0000000009+I20000000000+0000004990+Z
205129001205129004-071270     205129006001023802156CD-DISCS WRITABLE 10PCE0000001000+00004385+00000+0001T   00004385+0000001625          1400 SD3310               2AZ
205130000205130               205130               170213PJ     1400+00000+PJ0000006139-0000006139-000000000+000000860-0000006999-0000000000+I40000006999-0000000000+Z
205130001205130174-008022     205130006001023555502RAINCOAT 132X203cm HOOD0000001000-00006139+00000+0001T   00006139+0000001629          1400 SD32051IC            2 Z
205131000205131               205131               170213PJ     1400+00000+PJ0000001752+0000001752+000000000+000000246+0000001990+0000000008+I20000000000+0000001990+Z
205131001205131105-001036     205131006003000621118CONTAINER W/VENT 350ml 0000002000+00000876+00000+0001T   00001490+0008161631          1400 SD3210               2AZ
205132000205132               205132               170213PJ     1400+00000+PJ0000002630+0000002630+000000000+000000369+0000002990+0000000009+I20000000000+0000002990+Z
205132001205132304-000720     205132006001023843050F/BUNCH ROSE 6-HEAD AST0000001000+00002630+00000+0001T   00002630+0000001635          1400 SD3510               2AZ
205133000205133               205133               170213PJ     1400+00000+PJ0000009206+0000009206+000000000+000001290+0000010490+0000000006+I20000000000+0000010490+Z
205133001205133077-000512     205133006003000590223GIFT-BAG DESIGNER LRG  0000001000+00002630+00000+0001T   00002630+0000001636          1400 SD3112               2AZ
205133002205133077-000300     205133006001023483249GIFT BOX OCCASIONS HEXG0000003000+00002192+00000+0001T   00002192+0000001636          1400 SD3112               2AZ
205134000205134               205134               170213PJ     1400+00000+PJ0000014074+0000014074+000000000+000001974+0000016048+0000000000+I40000016048+0000000000+Z
205134001205134018-000127     205134006001023380289MUG OCC STRAIGHT LOVE  0000001000+00001578+00000+0001T   00001753+0006471639          1400 SD3515               2AZ
205134002205134903-000200     205134006009826020234SWT CHOC RP CHOCO 23G  0000002000+00000788+00000+0001T   00000788+0000001639          1400 SD3150               2AZ
205134003205134368-006004     205134006003000671076PLUSH DOLPHIN          0000001000+00004385+00000+0001T   00004385+0000001639          1400 SD3745               2AZ
205134004205134903-000200     205134006009826020234SWT CHOC RP CHOCO 23G  0000001000+00000788+00000+0001T   00000788+0000001639          1400 SD3150               2AZ
205134005205134301-085001     205134006003000297610ORN WATERBALL LOVE ASST0000001000+00004823+00000+0001T   00004823+0000001639          1400 SD3505               2AZ
205134006205134077-000314     205134006003000181148GIFT-BAG 11X14CM MATT  0000001000+00000876+00000+0001T   00000876+0000001639          1400 SD3112               2AZ
205134007205134112-116069     205134006009681820277TCS CARRIER BAG JUMBO  0000001000+00000048+00000+0001T   00000048+0000001639          1400 SD3090               2AZ
205135000205135               205135               170213PJ     1400+00000+PJ0000001613+0000001613+000000000+000000226+0000001830+0000000009+I20000000000+0000001830+Z
205135001205135018-000127     205135006001023380289MUG OCC STRAIGHT LOVE  0000001000+00001578+00000+0001T   00001753+0006471641          1400 SD3515               2AZ
205135002205135112-116038     205135006009681820246TCS CARRIER BAG MIDI   0000001000+00000035+00000+0001T   00000035+0000001641          1400 SD3090               2AZ
205136000205136               205136               170213PJ     1400+00000+PJ0000001929+0000001929+000000000+000000270+0000002190+0000000009+I20000000000+0000002190+Z
205136001205136018-000127     205136006001023380289MUG OCC STRAIGHT LOVE  0000001000-00001578+00000+0001T   00001753+0006471645          1400 SD35151IC            2 Z
205136002205136018-000136     205136006001023659026MUG OCC LOVE W/PLUSH   0000001000+00003507+00000+0001T   00003507+0000001645          1400 SD3515               2AZ
205137000205137               205137               170213PJ     1400+00000+PJ0000030557+0000030557+000000000+000004283+0000034840+0000000000+I40000034840+0000000000+Z
205137001205137112-116069     205137006009681820277TCS CARRIER BAG JUMBO  0000001000+00000048+00000+0001T   00000048+0000001647          1400 SD3090               2AZ
205137002205137368-000049     205137006003000536955PLUSH BEAR 15cm LOVE   0000003000+00004385+00000+0001T   00004385+0000001647          1400 SD3745               2AZ
205137003205137368-000100     205137006001023474742PLUSH MD BEAR 12cm     0000001000+00002630+00000+0001T   00002630+0000001647          1400 SD3745               2AZ
205137004205137464-001702     205137006003000336333DOMINOES WDN 15x5x3cm  0000003000+00001753+00000+0001T   00001753+0000001647          1400 SD3785               2AZ
205137005205137077-000321     205137006001023677501GIFT-BAG 11X14CM E/D FL0000004000+00000613+00000+0001T   00000613+0000001647          1400 SD3112               2AZ
205137006205137031-005853     205137006003000442416P/FRAME WDN TWIN HEARTS0000001000+00003507+00000+0001T   00003507+0000001647          1400 SD3510               2AZ
205137007205137002-000015     205137006003000555604CAPPUCCINO STENCILS 12P0000001000+00001753+00000+0001T   00001753+0000001647          1400 SD3300               2AZ
205137008205137018-000205     205137006003000579976M/DAILY STRAIGHT SHAPE 0000001000+00001753+00000+0001T   00001753+0000001647          1400 SD3515               2AZ
205138000205138               205138               170213PJ     1400+00000+PJ0000024557+0000024557+000000000+000003442+0000027999+0000000000+I40000027999+0000000000+Z
205138001205138077-000270     205138006003000395453GIFT-BAG PPR JMB 33X45 0000001000+00002630+00000+0001T   00002630+0000001649          1400 SD3112               2AZ
205138002205138301-085007     205138006003000673698ORN OCC. LOVE S/PLAQUE 0000001000+00007893+00000+0001T   00007893+0000001649          1400 SD3505               2AZ
205138003205138903-000194     205138006009826020616SWT CHOC RP LOLLY 25G  0000001000+00001314+00000+0001T   00001314+0000001649          1400 SD3150               2AZ
205138004205138368-000113     205138006001023780874PLUSH BLINGED LOVE 30cm0000001000+00012279+00000+0001T   00012279+0000001649          1400 SD3745               2AZ
205138005205138903-000183     205138006003000451043SWT LB HEART LOLLY     0000001000+00000393+00000+0001T   00000393+0000001649          1400 SD3150               2AZ
205138006205138112-116069     205138006009681820277TCS CARRIER BAG JUMBO  0000001000+00000048+00000+0001T   00000048+0000001649          1400 SD3090               2AZ
205139000205139               205139               170213PJ     1400+00000+PJ0000001753+0000001753+000000000+000000246+0000001990+0000000009+I20000000000+0000001990+Z
205139001205139077-000454     205139006003000285266G/BAG METALLIC LRG EMB 0000001000+00001753+00000+0001T   00001753+0000001650          1400 SD3112               2AZ
205140000205140               205140               170213PJ     1400+00000+PJ0000027687+0000027687+000000000+000003881+0000031560+0000000008+I20000000000+0000031560+Z
205140001205140466-000620     205140006003000537617BALL SPORT SET 5.5CM   0000001000+00003946+00000+0001T   00003946+0000001659          1400 SD3785               2AZ
205140002205140028-000031     205140006003000270897COOLER-BAG THERMAL 6PK 0000001000+00003507+00000+0001T   00003507+0000001659          1400 SD3305               2AZ
205140003205140105-001315     205140006003000572854CONTAINER COLOUR RIM   0000001000+00002630+00000+0001T   00002630+0000001659          1400 SD3210               2AZ
205140004205140007-000196     205140006002324002375FILE LEVER ARCH A4     0000001000+00002630+00000+0001T   00002630+0000001659          1400 SD3130               2AZ
205140005205140105-001027     205140006003000364916LUNCH BOX W/CLIPS 2-DIV0000001000+00002192+00000+0001T   00002192+0000001659          1400 SD3210               2AZ
205140006205140112-116053     205140006006438002399TCS CARRIER BAG 38L    0000001000+00000069+00000+0001T   00000069+0000001659          1400 SD3090               2AZ
205140007205140082-096892     205140006001492968926SUNGLASS KIDS OVAL     0000001000+00002630+00000+0001T   00002630+0000001659          1400 SD3160               2AZ
205140008205140082-098799     205140006001492987996SUNGLASS KIDS BOYS     0000001000+00003946+00000+0001T   00003946+0000001659          1400 SD3160               2AZ
205140009205140082-098782     205140006001492987828SUNGLASS KIDS GIRLS CAT0000001000+00003507+00000+0001T   00003507+0000001659          1400 SD3160               2AZ
205140010205140082-096892     205140006001492968926SUNGLASS KIDS OVAL     0000001000+00002630+00000+0001T   00002630+0000001659          1400 SD3160               2AZ
205141000205141               205141               170213PJ     1400+00000+PJ0000004385+0000004385+000000000+000000614+0000004990+0000000009+I20000000000+0000004990+Z
205141001205141368-000049     205141006003000536955PLUSH BEAR 15cm LOVE   0000001000+00004385+00000+0001T   00004385+0000001743          1400 SD3745               2AZ
205142000205142               205142               170213PJ     1400+00000+PJ0000001753+0000001753+000000000+000000246+0000001990+0000000009+I20000000000+0000001990+Z
205142001205142566-001118     205142006003000682171STICKERS CELL PHONE    0000001000+00001753+00000+0001T   00001753+0000001748          1400 SD3130               2AZ
A17021300                                          10492837PJSLAVE 2                       SD31IC
M17021391                              CASH        PJSLAVE 2                       Z-REPORT No.   513TOTAL (Sales - Refunds)           4897.90       CASH TO BE BANKED                 2729.20       DEBIT CARDS                          0.00       CREDIT CARDS                      2168.70       Z-READING                         4897.90       AIRTIME DEBIT CARD SALES             0.00       AIRTIME CARD SALES                   0.00       OVERS/UNDERS                         0.00       AIRTIME CASH SALES                   0.00       GIFT CARDS                           0.00       GIFT CARD CASH SALES                 0.00       T O T A L  CASH PAYOUTS              0.00                                                                                                                                                                                                                                                                                                                                                      Z
M17021392                              CASH        PJABSENT                                                                                                                                                                                          ANNUAL LEAVE                                                                                                                                                                                    DAY OFF                                                                                                                                                                                         COMMENTS                                                                                                                                                                                                                                                                                                                                                                                       Z
Y17021300                                          PJ00000000447827+000060
ZPJ17021320183 SLAVE 2      SALES DATA                     NEXT INVOICE NO.  205143 0513
X PJ Slave 2 First invoice 205081 170213 Last invoice 205142 170213 Next invoice 205143 Total number of records 000000230 clbackup completed 20:18:50
