100512000100512               100512               170213PK     1400+00000+PK0000007012+0000007012+000000000+000000984+0000007990+0000000006+I20000000000+0000007990+Z
100512001100512046-000002     100512006001023585202BATTERIES SIZE:C   2PCE0000004000+00001753+00000+0001T   00001753+0000000942          1400 BR2312               1AZ
100513000100513               100513               170213PK     1400+00000+PK0000013012+0000013012+000000000+000001823+0000014830+0000000005+I20000000000+0000014830+Z
100513001100513071-081091     100513006001151010287STAED/GENKEM ALL-STICK 0000002000+00001227+00000+0001T   00001227+0000001050          1400 DT5130               1AZ
100513002100513039-000799     100513006001023692382CANDLES TEALITE 100PCE 0000001000+00008771+00000+0001T   00008771+0000001050          1400 DT5510               1AZ
100513003100513033-005921-A   100513006001023678324SEWING-THREAD 200m WHT 0000002000+00000876+00000+0001T   00000876+0000001050          1400 DT5200               1AZ
100513004100513112-116038     100513006003000534906TCS CARRIER BAG MIDI   0000001000+00000035+00000+0001T   00000035+0000001050          1400 DT5090               1AZ
100514000100514               100514               170213PK     1400+00000+PK0000005557+0000005557+000000000+000000779+0000006330+0000000006+I20000000000+0000006330+Z
100514001100514007-010192     100514006009635830536BOOK H/COVER A5 192PAGE0000001000+00001139+00000+0001T   00001139+0000001213          1400 DT5130               1AZ
100514002100514079-000289     100514006001023493217PAINT WTR COL CAKE 6COL0000002000+00001578+00000+0001T   00001578+0000001213          1400 DT5130               1AZ
100514003100514112-116038     100514006003000534906TCS CARRIER BAG MIDI   0000001000+00000035+00000+0001T   00000035+0000001213          1400 DT5090               1AZ
100514004100514071-081091     100514006001151010287STAED/GENKEM ALL-STICK 0000001000+00001227+00000+0001T   00001227+0000001213          1400 DT5130               1AZ
100515000100515               100515               170213PK     1400+00000+PK0000003945+0000003945+000000000+000000553+0000004490+0000000008+I20000000000+0000004490+Z
100515001100515007-000095     100515006003000530434ENVELOPES WHITE 20PK C60000001000+00002192+00000+0001T   00002192+0000001214          1400 DT5130               1AZ
100515002100515002-000906-H   100515006001023415417JAR-OPENER WONDERGRIP  0000001000+00001753+00000+0001T   00001753+0000001214          1400 DT5300               1AZ
100516000100516               100516               170213PK     1400+00000+PK0000001227+0000001227+000000000+000000172+0000001390+0000000009+I20000000000+0000001390+Z
100516001100516251-000040     100516006001023515865SEALTAPE CLEAR 48mmx50m0000001000+00001227+00000+0001T   00001227+0000001214          1400 DT5810               1AZ
100517000100517               100517               170213PK     1400+00000+PK0000001753+0000001753+000000000+000000246+0000001990+0000000009+I20000000000+0000001990+Z
100517001100517080-000123     100517006003000237722CARD&ENVELOPE-SYMPATHY 0000001000+00001753+00000+0001T   00001753+0000001215          1400 DT5112               1AZ
100518000100518               100518               170213PK     1400+00000+PK0000003507+0000003507+000000000+000000491+0000003990+0000000008+I20000000000+0000003990+Z
100518001100518071-005667     100518006003000153060STAPLER SET MTL W/STPLS0000001000+00003507+00000+0001T   00003507+0000001220          1400 DT5130               1AZ
100519000100519               100519               170213PK     1400+00000+PK0000005855+0000005855+000000000+000000821+0000006670+0000000006+I20000000000+0000006670+Z
100519001100519304-001204     100519006001023737984FLOWER OCC. TEDDY/ROSES0000001000+00001402+00000+0001T   00001490+0006471233          1400 DT5510               1AZ
100519002100519089-060027     100519006003000245871KEY-CHAIN HEART 6X6cm  0000001000+00003069+00000+0001T   00003069+0000001233          1400 DT5205               1AZ
100519003100519112-116038     100519006003000534906TCS CARRIER BAG MIDI   0000001000+00000035+00000+0001T   00000035+0000001233          1400 DT5090               1AZ
100519004100519112-116038     100519006009681820246TCS CARRIER BAG MIDI   0000001000+00000035+00000+0001T   00000035+0000001233          1400 DT5090               1AZ
100519005100519903-000844     100519005010478432567SWT CANDY DL LUV HEARTS0000001000+00001314+00000+0001T   00001314+0000001233          1400 DT5150               1AZ
100520000100520               100520               170213PK     1400+00000+PK0000008286+0000008286+000000000+000001163+0000009449+0000000000+I40000009449+0000000000+Z
100520001100520079-000289     100520006001023493217PAINT WTR COL CAKE 6COL0000001000+00001578+00000+0001T   00001578+0000001241          1400 DT5130               1AZ
100520002100520079-006498     100520006001023836151GLITTER SET 10PCE      0000001000+00003507+00000+0001T   00003507+0000001241          1400 DT5130               1AZ
100520003100520079-009702-G   100520008427973060787PAPER SIRIO A2 FUSHIA  0000001000+00001051+00000+0001T   00001051+0000001241          1400 DT5130               1AZ
100520004100520079-009702-D   100520008427973059354PAPER SIRIO A2 RED COL 0000001000+00001051+00000+0001T   00001051+0000001241          1400 DT5130               1AZ
100520005100520079-009702-E   100520008427973059439PAPER SIRIO A2 BLUE    0000001000+00001051+00000+0001T   00001051+0000001241          1400 DT5130               1AZ
100520006100520112-116069     100520006009681820277TCS CARRIER BAG JUMBO  0000001000+00000048+00000+0001T   00000048+0000001241          1400 DT5090               1AZ
100521000100521               100521               170213PK     1400+00000+PK0000001753+0000001753+000000000+000000246+0000001990+0000000009+I20000000000+0000001990+Z
100521001100521200-003024     100521006001023657299REFUSE BAGS 20PCE BLACK0000001000+00001753+00000+0001T   00001753+0000001244          1400 DT5214               1AZ
100522000100522               100522               170213PK     1400+00000+PK0000001362+0000001362+000000000+000000191+0000001550+0000000003+I20000000000+0000001550+Z
100522001100522030-000010     100522006003000084395P/DOOR HANGER 2-ASSTD  0000001000+00001314+00000+0001T   00001490+0008181407          1400 DT5505               1AZ
100522002100522112-116069     100522006009681820277TCS CARRIER BAG JUMBO  0000001000+00000048+00000+0001T   00000048+0000001407          1400 DT5090               1AZ
100523000100523               100523               170213PK     1400+00000+PK0000013342+0000013342+000000000+000001868+0000015210+0000000000+I40000015210+0000000000+Z
100523001100523018-000177     100523006001023797513MUG MINI LOVE ASSTD    0000014000+00000700+00000+0001T   00000700+0000001447          1400 DT5515               1AZ
100523002100523112-116038     100523006003000534906TCS CARRIER BAG MIDI   0000001000+00000035+00000+0001T   00000035+0000001447          1400 DT5090               1AZ
100523003100523262-000016     100523006003000645107DIE CAST MOTORBIKE     0000001000+00003507+00000+0001T   00003507+0000001447          1400 DT5710               1AZ
100524000100524               100524               170213PK     1400+00000+PK0000002980+0000002980+000000000+000000418+0000003390+0000000008+I20000000000+0000003390+Z
100524001100524036-000605     100524006001023158611WASHING-PEGS WDN PCK-240000002000+00001490+00000+0001T   00001490+0000001451          1400 DT5212               1AZ
100525000100525               100525               170213PK     1400+00000+PK0000009254+0000009254+000000000+000001297+0000010550+0000000001+I20000000000+0000010550+Z
100525001100525016-009750     100525006001023888341CONDIMENTS OIL BOTTLES 0000001000+00003507+00000+0001T   00003507+0000001457          1400 DT5300               1AZ
100525002100525016-002010     100525006003000674480S/BOTTLE GLS W/CAP 1L  0000001000+00003946+00000+0001T   00003946+0000001457          1400 DT5300               1AZ
100525003100525089-000030     100525006003000575671K/CHAIN LOVE MTL ASSTD 0000001000+00001753+00000+0001T   00001753+0000001457          1400 DT5205               1AZ
100525004100525112-116069     100525006009681820277TCS CARRIER BAG JUMBO  0000001000+00000048+00000+0001T   00000048+0000001457          1400 DT5090               1AZ
100526000100526               100526               170213PK     1400+00000+PK0000001753+0000001753+000000000+000000246+0000001990+0000000009+I20000000000+0000001990+Z
100526001100526080-000111     100526006003000252695CARD&ENVELPE - MUSICAL 0000001000+00001753+00000+0001T   00001753+0000001515          1400 DT5112               1AZ
100527000100527               100527               170213PK     1400+00000+PK0000017891+0000017891+000000000+000002506+0000020397+0000000000+I40000020397+0000000000+Z
100527001100527039-000108     100527006001023524034TEA-LITE CANDLES 8PCE  0000002000+00001490+00000+0001T   00001490+0000001525          1400 DT5510               1AZ
100527002100527140-092000     100527006001023819130MOSQ-NET 1250x250x65cm 0000001000+00014911+00000+0001T   00014911+0000001525          1400 DT5830               1AZ
100528000100528               100528               170213PK     1400+00000+PK0000000876+0000000876+000000000+000000123+0000000999+0000000000+I40000000999+0000000000+Z
100528001100528565-000013     100528006003000672233NOVELTY TWISTY 21cm    0000001000+00000876+00000+0001T   00000876+0000001529          1400 DT5745               1AZ
100529000100529               100529               170213PK     1400+00000+PK0000014959+0000014959+000000000+000002095+0000017050+0000000004+I20000000000+0000017050+Z
100529001100529464-000204     100529006001023878984CHESS-SET GLASS FIGURES0000001000+00014911+00000+0001T   00014911+0000001538          1400 DT5785               1AZ
100529002100529112-116069     100529006009681820277TCS CARRIER BAG JUMBO  0000001000+00000048+00000+0001T   00000048+0000001538          1400 DT5090               1AZ
100530000100530               100530               170213PK     1400+00000+PK0000019028+0000019028+000000000+000002666+0000021694+0000000000+I40000021694+0000000000+Z
100530001100530079-003013     100530006003000633838PAINT ACRYLIC TUBE BRNZ0000001000+00002630+00000+0001T   00002630+0000001634          1400 DT5130               1AZ
100530002100530206-000630     100530006003000631919SPECTACLE CLEANING BRUS0000001000+00001227+00000+0001T   00001227+0000001634          1400 DT5321               1AZ
100530003100530301-086006     100530006003000498918ORN OCCASION LOVE 4ASTD0000001000+00005262+00000+0001T   00005262+0000001634          1400 DT5505               1AZ
100530004100530080-000124     100530006003000297733CARD & ENV VALENTINES  0000001000+00001578+00000+0001T   00001578+0000001634          1400 DT5112               1AZ
100530005100530031-000001-A   100530006003000246908P/FRAME GLS LOVE 9X13cm0000001000+00004385+00000+0001T   00004385+0000001634          1400 DT5510               1AZ
100530006100530031-000902-B   100530006001023726285P/FRAME WDN OAK 10X15CM0000001000+00003946+00000+0001T   00003946+0000001634          1400 DT5510               1AZ
100531000100531               100531               170213PK     1400+00000+PK0000004420+0000004420+000000000+000000619+0000005030+0000000009+I20000000000+0000005030+Z
100531001100531018-030000     100531006003000421060MUG OCCASIONS LOVE 2PCE0000001000+00004385+00000+0001T   00004385+0000001637          1400 DT5515               1AZ
100531002100531112-116038     100531006003000534906TCS CARRIER BAG MIDI   0000001000+00000035+00000+0001T   00000035+0000001637          1400 DT5090               1AZ
100532000100532               100532               170213PK     1400+00000+PK0000000876+0000000876+000000000+000000123+0000000990+0000000009+I20000000000+0000000990+Z
100532001100532083-000295     100532006001023898562LIGHTER-GAS BUTANE 18ml0000001000+00000876+00000+0001T   00000876+0000001638          1400 DT5315               1AZ
100533000100533               100533               170213PK     1400+00000+PK0000011004+0000011004+000000000+000001543+0000012547+0000000000+I40000012547+0000000000+Z
100533001100533071-000012     100533006001177101006CHALK COLOUR 12PCE     0000001000+00000481+00000+0001T   00000481+0000001739          1400 BR2130               1AZ
100533002100533071-000013     100533006003000535354BOARD DUSTER           0000001000+00002630+00000+0001T   00002630+0000001739          1400 BR2130               1AZ
100533003100533007-010504     100533006002923014960BLACKBOARD EASEL       0000001000+00007893+00000+0001T   00007893+0000001739          1400 BR2130               1AZ
100534000100534               100534               170213PK     1400+00000+PK0000000035+0000000035+000000000+000000005+0000000040+0000000000+I20000000000+0000000040+Z
100534001100534112-116038     100534006009681820246TCS CARRIER BAG MIDI   0000001000+00000035+00000+0001T   00000035+0000001740          1400 BR2090               1AZ
100535000100535               100535               170213PK     1400+00000+PK0000001753+0000001753+000000000+000000246+0000001990+0000000009+I20000000000+0000001990+Z
100535001100535251-000006     100535006001023499158TAPE DBL-SIDED AUTO    0000001000+00001753+00000+0001T   00001753+0000001743          1400 BR2810               1AZ
A17021300                                          09035875PKSLAVE 1                       BR21IC
A17021301                                          09125048PKSLAVE 1                       BR21IC
A17021302                                          10025217PKSLAVE 1                       BR21IC
A17021303                                          12503419PKSLAVE 1                       BR21IC
A17021304                                          17244951PKSLAVE 1                       BR21IC
M17021391                              CASH        PKSLAVE 1                       Z-REPORT No.   491TOTAL (Sales - Refunds)           1725.46       CASH TO BE BANKED                  922.50       DEBIT CARDS                          0.00       CREDIT CARDS                       802.96       Z-READING                         1725.46       AIRTIME DEBIT CARD SALES             0.00       AIRTIME CARD SALES                   0.00       OVERS/UNDERS                         0.00       AIRTIME CASH SALES                   0.00       GIFT CARDS                           0.00       GIFT CARD CASH SALES                 0.00       T O T A L  CASH PAYOUTS              0.00                                                                                                                                                                                                                                                                                                                                                      Z
M17021392                              CASH        PKABSENT                                                                                                                                                                                          ANNUAL LEAVE                                                                                                                                                                                    DAY OFF                                                                                                                                                                                         COMMENTS                                                                                                                                                                                                                                                                                                                                                                                       Z
Y17021300                                          PK00000000151440+000024
ZPK17021320183 SLAVE 1      SALES DATA                     NEXT INVOICE NO.  100536 0491
X PK Slave 1 First invoice 100512 170213 Last invoice 100535 170213 Next invoice 100536 Total number of records 000000089 clbackup completed 20:19:00
