205601000205601               205601               170213PK     1400+00000+PK0000005310+0000005310+000000000+000000744+0000006054+0000000000+I40000006054+0000000000+Z
205601001205601018-019000     205601006003000557288MUG OCC. LOVE JUMBO    0000001000+00005262+00000+0001T   00005262+0000000912          1400 NL3515               2AZ
205601002205601112-116069     205601006009681820277TCS CARRIER BAG JUMBO  0000001000+00000048+00000+0001T   00000048+0000000912          1400 NL3090               2AZ
205602000205602               205602               170213PK     1400+00000+PK0000007016+0000007016+000000000+000000983+0000007999+0000000000+I40000007999+0000000000+Z
205602001205602361-003011     205602006003000397334DOLL 29CM:BONNIE LOVES 0000001000+00007016+00000+0001T   00007016+0000000913          1400 NL3725               2AZ
205603000205603               205603               170213PK     1400+00000+PK0000006174+0000006174+000000000+000000865+0000007030+0000000009+I20000000000+0000007030+Z
205603001205603463-000120     205603006003000308125SWIM CAP PRINTED ASSTD 0000001000+00006139+00000+0001T   00006139+0000000921          1400 NL3785               2AZ
205603002205603112-116038     205603006003000534906TCS CARRIER BAG MIDI   0000001000+00000035+00000+0001T   00000035+0000000921          1400 NL3090               2AZ
205604000205604               205604               170213PK     1400+00000+PK0000004822+0000004822+000000000+000000676+0000005490+0000000008+I20000000000+0000005490+Z
205604001205604564-000025     205604006003000617104BUBBLE NOVELTY         0000001000+00001753+00000+0001T   00001753+0000000936          1400 NL3131               2AZ
205604002205604567-011307     205604006003000598557BOOK ACTIVITY FUN WATER0000001000+00003069+00000+0001T   00003069+0000000936          1400 NL3757               2AZ
205605000205605               205605               170213PK     1400+00000+PK0000006139+0000006139+000000000+000000860+0000006990+0000000009+I20000000000+0000006990+Z
205605001205605035-000001     205605006002596010566UMBRELLA LADIES W/MINI 0000001000+00006139+00000+0001T   00006139+0000001016          1400 NL3205               2AZ
205606000205606               205606               170213PK     1400+00000+PK0000005381+0000005381+000000000+000000755+0000006136+0000000000+I40000006136+0000000000+Z
205606001205606084-091590     205606006003000092864FOOT FILE 17cm         0000001000+00001753+00000+0001T   00001753+0000001021          1400 NL3200               2AZ
205606002205606033-001401     205606006009654960481HAIR-CURLERS 8PCE MED  0000001000+00001227+00000+0001T   00001227+0000001021          1400 NL3200               2AZ
205606003205606033-001400     205606006009654960474HAIR-CURLERS 10PCE SML 0000001000+00001227+00000+0001T   00001227+0000001021          1400 NL3200               2AZ
205606004205606903-000087     205606006001704000161SWT SPECKLED-EGGS 50G  0000001000+00001139+00000+0001T   00001139+0000001021          1400 NL3150               2AZ
205606005205606112-116038     205606006009681820246TCS CARRIER BAG MIDI   0000001000+00000035+00000+0001T   00000035+0000001021          1400 NL3090               2AZ
205607000205607               205607               170213PK     1400+00000+PK0000005433+0000005433+000000000+000000762+0000006190+0000000005+I20000000000+0000006190+Z
205607001205607903-000155     205607006009803374435SWT LOLLY I LUV U HEART0000001000+00000525+00000+0001T   00000525+0000001022          1400 NL3150               2AZ
205607002205607903-000151     205607006009803374411SWT SML RND R/BOW LOLLY0000001000+00000525+00000+0001T   00000525+0000001022          1400 NL3150               2AZ
205607003205607033-001364     205607006001023802088HAIR-CLIPS 65mm 24PCE  0000001000+00000876+00000+0001T   00000876+0000001022          1400 NL3200               2AZ
205607004205607301-085004     205607006003000420469ORN LOVE PLAQUE 21X10CM0000001000+00003507+00000+0001T   00003946+0006471022          1400 NL3505               2AZ
205608000205608               205608               170213PK     1400+00000+PK0000007064+0000007064+000000000+000000990+0000008050+0000000004+I20000000000+0000008050+Z
205608001205608107-004500     205608006003000150557STEP STOOL PL          0000001000+00007016+00000+0001T   00007016+0000001027          1400 NL3210               2AZ
205608002205608112-116069     205608006009681820277TCS CARRIER BAG JUMBO  0000001000+00000048+00000+0001T   00000048+0000001027          1400 NL3090               2AZ
205609000205609               205609               170213PK     1400+00000+PK0000001753+0000001753+000000000+000000246+0000001990+0000000009+I20000000000+0000001990+Z
205609001205609903-000211     205609006002099001238SWT GS MALLOW ICE CREAM0000001000+00001753+00000+0001T   00001753+0000001028          1400 NL3150               2AZ
205610000205610               205610               170213PK     1400+00000+PK0000002892+0000002892+000000000+000000406+0000003290+0000000008+I20000000000+0000003290+Z
205610001205610903-000710     205610006002099007056SWT REFRESHERS MINT    0000001000+00001139+00000+0001T   00001139+0000001041          1400 NL3150               2AZ
205610002205610080-000120     205610006003000236473CARD & ENVELOPE WEDDING0000001000+00001753+00000+0001T   00001753+0000001041          1400 NL3112               2AZ
205611000205611               205611               170213PK     1400+00000+PK0000001928+0000001928+000000000+000000270+0000002190+0000000008+I20000000000+0000002190+Z
205611001205611174-008032     205611006009654960603TRAVEL BOTTLES 50ml    0000001000+00001928+00000+0001T   00001928+0000001054          1400 NL3205               2AZ
205612000205612               205612               170213PK     1400+00000+PK0000015388+0000015388+000000000+000002159+0000017547+0000000000+I40000017547+0000000000+Z
205612001205612077-000920     205612006003000413812G/WRAP 700mmx2m BIRTHDA0000001000+00002192+00000+0001T   00002192+0000001102          1400 NL3112               2AZ
205612002205612006-000800     205612006001023902801HAT CABARET 14x18cm    0000003000+00001753+00000+0001T   00001753+0000001102          1400 NL3131               2AZ
205612003205612563-000317-A   205612006001023776167SERVIETTES 20PK PATTERN0000001000+00002630+00000+0001T   00002630+0000001102          1400 NL3214               2AZ
205612004205612006-000802     205612006003000653553STREAMERS 5-ROLLS 2.5cm0000002000+00001753+00000+0001T   00001753+0000001102          1400 NL3131               2AZ
205612005205612006-000092     205612006001023739650BANNER BIRTHDAY PAPER  0000001000+00001753+00000+0001T   00001753+0000001102          1400 NL3131               2AZ
205612006205612112-116069     205612006009681820277TCS CARRIER BAG JUMBO  0000001000+00000048+00000+0001T   00000048+0000001102          1400 NL3090               2AZ
205613000205613               205613               170213PK     1400+00000+PK0000002630+0000002630+000000000+000000369+0000002990+0000000009+I20000000000+0000002990+Z
205613001205613079-000254     205613006002923016407ART APRON ASSTD        0000001000+00002630+00000+0001T   00002630+0000001125          1400 NL3130               2AZ
205614000205614               205614               170213PK     1400+00000+PK0000003156+0000003156+000000000+000000442+0000003590+0000000008+I20000000000+0000003590+Z
205614001205614369-001137-B   205614006003000626373BABY BATH VINYL DUCK   0000002000+00001578+00000+0001T   00001578+0000001133          1400 NL3745               2AZ
205615000205615               205615               170213PK     1400+00000+PK0000002980+0000002980+000000000+000000418+0000003390+0000000008+I20000000000+0000003390+Z
205615001205615016-006516     205615006003000351503S/JAR GLS CHECK 150ML  0000002000+00001490+00000+0001T   00001490+0000001140          1400 NL3300               2AZ
205616000205616               205616               170213PK     1400+00000+PK0000001752+0000001752+000000000+000000246+0000001990+0000000008+I20000000000+0000001990+Z
205616001205616033-010720     205616006001023678645SAFETY-PINS 50PCE SMALL0000001000+00000876+00000+0001T   00000876+0000001149          1400 NL3200               2AZ
205616002205616033-005931     205616006001023678447PINS ON-WHEEL PEARLIZED0000001000+00000876+00000+0001T   00000876+0000001149          1400 NL3200               2AZ
205617000205617               205617               170213PK     1400+00000+PK0000001753+0000001753+000000000+000000246+0000001990+0000000009+I20000000000+0000001990+Z
205617001205617024-091100     205617006001023914224BAKING-CUPS PAPER 100PC0000001000+00001753+00000+0001T   00001753+0000001156          1400 NL3300               2AZ
205618000205618               205618               170213PK     1400+00000+PK0000001752+0000001752+000000000+000000246+0000001990+0000000008+I20000000000+0000001990+Z
205618001205618036-000606     205618006003000322213WASHING PEGS PACK 20   0000002000+00000876+00000+0001T   00001314+0008191159          1400 NL3212               2AZ
205619000205619               205619               170213PK     1400+00000+PK0000000035+0000000035+000000000+000000005+0000000040+0000000000+I20000000000+0000000040+Z
205619001205619112-116038     205619006009681820246TCS CARRIER BAG MIDI   0000001000+00000035+00000+0001T   00000035+0000001200          1400 NL3090               2AZ
205620000205620               205620               170213PK     1400+00000+PK0000007940+0000007940+000000000+000001113+0000009050+0000000003+I20000000000+0000009050+Z
205620001205620072-020320     205620006003000603343PET DOG TOY TUG-ROPE   0000001000+00002630+00000+0001T   00002630+0000001205          1400 NL3870               2AZ
205620002205620105-007805     205620006002923018920STORAGE BOX CLEAR 9.5L 0000001000+00005262+00000+0001T   00005262+0000001205          1400 NL3210               2AZ
205620003205620112-116069     205620006009681820277TCS CARRIER BAG JUMBO  0000001000+00000048+00000+0001T   00000048+0000001205          1400 NL3090               2AZ
205621000205621               205621               170213PK     1400+00000+PK0000010573+0000010573+000000000+000001481+0000012054+0000000000+I40000012054+0000000000+Z
205621001205621263-000218     205621006001023813565VEHICLE PICK UP TRUCK  0000001000+00010525+00000+0001T   00010525+0000001210          1400 NL3710               2AZ
205621002205621112-116069     205621006009681820277TCS CARRIER BAG JUMBO  0000001000+00000048+00000+0001T   00000048+0000001210          1400 NL3090               2AZ
205622000205622               205622               170213PK     1400+00000+PK0000007625+0000007625+000000000+000001070+0000008690+0000000005+I20000000000+0000008690+Z
205622001205622002-000970     205622006001023770578FUNNELS 3PCE WHITE     0000001000+00001227+00000+0001T   00001227+0000001215          1400 NL3300               2AZ
205622002205622016-009616     2056220060030004416932PC GLS SHAKERS 3-ASSTD0000001000+00001753+00000+0001T   00001753+0000001215          1400 NL3300               2AZ
205622003205622002-000905     205622006003000657933CAN-OPENER JAR GRIP    0000001000+00001753+00000+0001T   00001753+0000001215          1400 NL3300               2AZ
205622004205622048-000859     205622006003000423422TORCH 9 LED PL 3XAAA   0000001000+00001753+00000+0001T   00001753+0000001215          1400 NL3305               2AZ
205622005205622046-000014     205622006001023725387BATTERIES SIZE:AAA 4PCE0000001000+00001139+00000+0001T   00001139+0000001215          1400 NL3312               2AZ
205623000205623               205623               170213PK     1400+00000+PK0000002628+0000002628+000000000+000000368+0000002990+0000000006+I20000000000+0000002990+Z
205623001205623006-000166-D   205623006003000516490BALLOONS LRG 6PC RED   0000001000+00001314+00000+0001T   00001314+0000001227          1400 DT5131               2AZ
205623002205623006-000166-H   205623006003000608096BALLOONS HELIUM 6PC WHT0000001000+00001314+00000+0001T   00001314+0000001227          1400 DT5131               2AZ
205624000205624               205624               170213PK     1400+00000+PK0000001490+0000001490+000000000+000000209+0000001690+0000000009+I20000000000+0000001690+Z
205624001205624140-001004     205624006001023880932FLY-RIBBONS 4PCE PL    0000001000+00001490+00000+0001T   00001490+0000001228          1400 DT5830               2AZ
205625000205625               205625               170213PK     1400+00000+PK0000002630+0000002630+000000000+000000369+0000002990+0000000009+I20000000000+0000002990+Z
205625001205625567-075466     205625009780263917468BK NOVEL ROMANCE       0000001000+00002630+00000+0001T   00002630+0000001241          1400 BR2757               2AZ
205626000205626               205626               170213PK     1400+00000+PK0000002630+0000002630+000000000+000000369+0000002990+0000000009+I20000000000+0000002990+Z
205626001205626089-000145     205626006003000576616K/CHAIN LIGHT W/COMPASS0000001000+00002630+00000+0001T   00003069+0008121304          1400 NL3205               2AZ
205627000205627               205627               170213PK     1400+00000+PK0000000439-0000000439-000000000+000000062-0000000510-0000000009+I20000000000+0000000510-Z
205627001205627079-013099     205627006003000081875ART+CRAFT EYES ASSTD   0000001000-00001753+00000+0001T   00001753+0000001311          1400 NL31301IC            2 Z
205627002205627565-000042     205627006003000252459NOVELTY STRESS BALL    0000001000+00001314+00000+0001T   00001314+0000001311          1400 NL3745               2 Z
205628000205628               205628               170213PK     1400+00000+PK0000004420+0000004420+000000000+000000619+0000005030+0000000009+I20000000000+0000005030+Z
205628001205628365-003053     205628006001023542250PLAY DOCTOR MEDICAL-CNT0000001000+00004385+00000+0001T   00004385+0000001319          1400 NL3725               2AZ
205628002205628112-116038     205628006009681820246TCS CARRIER BAG MIDI   0000001000+00000035+00000+0001T   00000035+0000001319          1400 NL3090               2AZ
205629000205629               205629               170213PK     1400+00000+PK0000003069+0000003069+000000000+000000430+0000003499+0000000000+I40000003499+0000000000+Z
205629001205629051-005577     205629006001023534088GARDEN-TROWEL 250mm    0000001000+00003069+00000+0001T   00003069+0000001324          1400 NL3820               2AZ
205630000205630               205630               170213PK     1400+00000+PK0000001355+0000001355+000000000+000000192+0000001540+0000000007+I20000000000+0000001540+Z
205630001205630071-000212     205630006009608641190CHALK WHITE 12PCE      0000002000+00000437+00000+0001T   00000437+0000001332          1400 NL3130               2AZ
205630002205630071-000012     205630006001177101006CHALK COLOUR 12PCE     0000001000+00000481+00000+0001T   00000481+0000001332          1400 NL3130               2AZ
205631000205631               205631               170213PK     1400+00000+PK0000001349+0000001349+000000000+000000189+0000001530+0000000008+I20000000000+0000001530+Z
205631001205631464-000238     205631006001023644039GAME SNAKES+LADDERS    0000001000+00001314+00000+0001T   00001314+0000001335          1400 NL3785               2AZ
205631002205631112-116038     205631006009681820246TCS CARRIER BAG MIDI   0000001000+00000035+00000+0001T   00000035+0000001335          1400 NL3090               2AZ
205632000205632               205632               170213PK     1400+00000+PK0000014066+0000014066+000000000+000001971+0000016037+0000000000+I40000016037+0000000000+Z
205632001205632301-085007     205632006003000673698ORN OCC. LOVE S/PLAQUE 0000001000+00007893+00000+0001T   00007893+0000001338          1400 NL3505               2AZ
205632002205632301-085003     205632006003000420827ORN OCCASION LOVE KEY  0000001000+00005262+00000+0001T   00005262+0000001338          1400 NL3505               2AZ
205632003205632077-000302     205632008010410010195GIFT-BAG 18X23CM E/D   0000001000+00000876+00000+0001T   00000876+0000001338          1400 NL3112               2AZ
205632004205632112-116038     205632006009681820246TCS CARRIER BAG MIDI   0000001000+00000035+00000+0001T   00000035+0000001338          1400 NL3090               2AZ
205633000205633               205633               170213PK     1400+00000+PK0000006174+0000006174+000000000+000000865+0000007030+0000000009+I20000000000+0000007030+Z
205633001205633368-000170     205633006003000270194LUSH DINOSAUR 26cm     0000001000+00006139+00000+0001T   00006139+0000001339          1400 NL3745               2AZ
205633002205633112-116038     205633006009681820246TCS CARRIER BAG MIDI   0000001000+00000035+00000+0001T   00000035+0000001339          1400 NL3090               2AZ
205634000205634               205634               170213PK     1400+00000+PK0000006173+0000006173+000000000+000000865+0000007038+0000000000+I40000007038+0000000000+Z
205634001205634301-085003     205634006003000420827ORN OCCASION LOVE KEY  0000001000+00005262+00000+0001T   00005262+0000001356          1400 NL3505               2AZ
205634002205634077-000314     205634006003000181148GIFT-BAG 11X14CM MATT  0000001000+00000876+00000+0001T   00000876+0000001356          1400 NL3112               2AZ
205634003205634112-116038     205634006009681820246TCS CARRIER BAG MIDI   0000001000+00000035+00000+0001T   00000035+0000001356          1400 NL3090               2AZ
205635000205635               205635               170213PK     1400+00000+PK0000028944+0000028944+000000000+000004053+0000032997+0000000000+I40000032997+0000000000+Z
205635001205635494-057525     205635000078257575251INTEX RIDE-ON GR SHARK 0000001000+00011402+00000+0001T   00011402+0000001359          1400 NL3787               2AZ
205635002205635497-058330     205635000078257583300BOAT EXPLORER 200      0000001000+00017542+00000+0001T   00017542+0000001359          1400 NL3787               2AZ
205636000205636               205636               170213PK     1400+00000+PK0000017974+0000017974+000000000+000002518+0000020492+0000000000+I40000020492+0000000000+Z
205636001205636030-001111     205636006003000336951PLAQUE-WALL R/PIN 32cm 0000001000+00003507+00000+0001T   00004385+0008121405          1400 NL3505               2AZ
205636002205636030-000031-A   205636006003000457588PLAQUE W/WORDS ASSTD   0000001000+00004385+00000+0001T   00004823+0006471405          1400 NL3505               2AZ
205636003205636031-000002-A   205636006003000247103P/FRAME LOVE 7.5X7.5CM 0000001000+00003507+00000+0001T   00003507+0000001405          1400 NL3510               2AZ
205636004205636361-009103     205636006001023706607DOLL BOTTLES 10cm 2PCE 0000001000+00002192+00000+0001T   00002192+0000001405          1400 NL3725               2AZ
205636005205636108-003021     205636006003000343911MUG SUPER SIPPER 450ml 0000001000+00002630+00000+0001T   00002630+0000001405          1400 NL3210               2AZ
205636006205636077-000520     205636006001023908254GIFT-BAG 25X32CM       0000001000+00001753+00000+0001T   00001753+0000001405          1400 NL3112               2AZ
205637000205637               205637               170213PK     1400+00000+PK0000007453+0000007453+000000000+000001044+0000008497+0000000000+I40000008497+0000000000+Z
205637001205637024-000065     205637006001023770424SPATULA SILICONE 25CM  0000001000+00003946+00000+0001T   00003946+0000001406          1400 NL3300               2AZ
205637002205637002-012271     205637006001023849120TONGS 23cm RUBBER-GRIP 0000001000+00003507+00000+0001T   00003507+0000001406          1400 NL3300               2AZ
205638000205638               205638               170213PK     1400+00000+PK0000006710+0000006710+000000000+000000941+0000007651+0000000000+I40000007651+0000000000+Z
205638001205638028-085274     205638006001023641571BBQ LIGHTER         H&L0000001000+00002192+00000+0001T   00002192+0000001413          1400 NL3305               2AZ
205638002205638028-000400     205638006001023421661PLATE-HOLDERS 4PCE     0000003000+00001490+00000+0001T   00001490+0000001413          1400 NL3305               2AZ
205638003205638112-116069     205638006009681820277TCS CARRIER BAG JUMBO  0000001000+00000048+00000+0001T   00000048+0000001413          1400 NL3090               2AZ
205639000205639               205639               170213PK     1400+00000+PK0000009029+0000009029+000000000+000001265+0000010290+0000000004+I20000000000+0000010290+Z
205639001205639018-000127     205639006001023380289MUG OCC STRAIGHT LOVE  0000001000+00001578+00000+0001T   00001753+0006471425          1400 NL3515               2AZ
205639002205639030-001111     205639006003000336951PLAQUE-WALL R/PIN 32cm 0000001000+00003507+00000+0001T   00004385+0008121425          1400 NL3505               2AZ
205639003205639018-000136     205639006001023659026MUG OCC LOVE W/PLUSH   0000001000+00003507+00000+0001T   00003507+0000001425          1400 NL3515               2AZ
205639004205639080-000133     205639006003000535613CARD&ENV MINI ASTD DSGN0000001000+00000437+00000+0001T   00000437+0000001425          1400 NL3112               2AZ
205640000205640               205640               170213PK     1400+00000+PK0000002488+0000002488+000000000+000000349+0000002830+0000000007+I20000000000+0000002830+Z
205640001205640200-003024     205640006001023657299REFUSE BAGS 20PCE BLACK0000001000+00001753+00000+0001T   00001753+0000001431          1400 NL3214               2AZ
205640002205640033-010721     205640006001023678669SAFETY-PINS 20PCE ASSTD0000001000+00000700+00000+0001T   00000700+0000001431          1400 NL3200               2AZ
205640003205640112-116038     205640006009681820246TCS CARRIER BAG MIDI   0000001000+00000035+00000+0001T   00000035+0000001431          1400 NL3090               2AZ
205641000205641               205641               170213PK     1400+00000+PK0000000876+0000000876+000000000+000000123+0000000990+0000000009+I20000000000+0000000990+Z
205641001205641162-087875     205641006001492878751#TAG HEADBANDS-DK BRN  0000001000+00000876+00000+0001T   00001753+0008161433          1400 NL3160               2AZ
205642000205642               205642               170213PK     1400+00000+PK0000001752+0000001752+000000000+000000246+0000001990+0000000008+I20000000000+0000001990+Z
205642001205642903-000521     205642006001704009652SWT GUMMY SOFT GUMS    0000001000+00000876+00000+0001T   00000876+0000001433          1400 NL3150               2AZ
205642002205642567-014132     205642006003000560028BOOK COLOURING 24 PAGE 0000001000+00000876+00000+0001T   00000876+0000001433          1400 NL3757               2AZ
205643000205643               205643               170213PK     1400+00000+PK0000004015+0000004015+000000000+000000563+0000004570+0000000008+I20000000000+0000004570+Z
205643001205643903-000215     205643006002099001214SWT GS MALLOW TWIST PAC0000001000+00001753+00000+0001T   00001753+0000001435          1400 NL3150               2AZ
205643002205643007-000046     205643006009635831366DISPLAY-BOOK PL A4 30PG0000001000+00002192+00000+0001T   00002192+0000001435          1400 NL3130               2AZ
205643003205643112-116038     205643006009681820246TCS CARRIER BAG MIDI   0000002000+00000035+00000+0001T   00000035+0000001435          1400 NL3090               2AZ
205644000205644               205644               170213PK     1400+00000+PK0000013150+0000013150+000000000+000001845+0000014990+0000000005+I20000000000+0000014990+Z
205644001205644076-000030-H   205644006001023429544WASHING-LINE 30m    H&H0000005000+00002630+00000+0001T   00002630+0000001455          1400 NL3810               2AZ
205645000205645               205645               170213PK     1400+00000+PK0000006972+0000006972+000000000+000000978+0000007950+0000000000+I20000000000+0000007950+Z
205645001205645080-000127     205645006003000424351VALENTINES DAY 36x24CM 0000001000+00002192+00000+0001T   00002192+0000001503          1400 NL3112               2AZ
205645002205645031-000021     205645006003000112739PICTURE-FRAME SML ASSTD0000002000+00001753+00000+0001T   00001753+0000001503          1400 NL3510               2AZ
205645003205645077-000311     205645006001023608666GIFT-BAG 11X14CM GLOSS 0000002000+00000613+00000+0001T   00000613+0000001503          1400 NL3112               2AZ
205645004205645112-116069     205645006009681820277TCS CARRIER BAG JUMBO  0000001000+00000048+00000+0001T   00000048+0000001503          1400 NL3090               2AZ
205646000205646               205646               170213PK     1400+00000+PK0000005785+0000005785+000000000+000000810+0000006595+0000000000+I40000006595+0000000000+Z
205646001205646564-000010     205646006003000395477BUBBLE REFILL 1 LITRE  0000001000+00004385+00000+0001T   00004385+0000001505          1400 NL3131               2AZ
205646002205646564-000012     205646006001023130075BUBBLE BOTTLE MAGIC    0000002000+00000700+00000+0001T   00000700+0000001505          1400 NL3131               2AZ
205647000205647               205647               170213PK     1400+00000+PK0000005262+0000005262+000000000+000000737+0000005999+0000000000+I40000005999+0000000000+Z
205647001205647107-004510     205647006002580008968STEP-STOOL PL          0000001000+00005262+00000+0001T   00005262+0000001542          1400 BR2210               2AZ
205648000205648               205648               170213PK     1400+00000+PK0000002976+0000002976+000000000+000000417+0000003390+0000000003+I20000000000+0000003390+Z
205648001205648018-000177     205648006001023797513MUG MINI LOVE ASSTD    0000003000+00000700+00000+0001T   00000700+0000001547          1400 NL3515               2AZ
205648002205648071-000677     205648006001023110282THUMB-TACKS            0000001000+00000876+00000+0001T   00000876+0000001547          1400 NL3130               2AZ
205649000205649               205649               170213PK     1400+00000+PK0000000035+0000000035+000000000+000000005+0000000040+0000000000+I20000000000+0000000040+Z
205649001205649112-116038     205649006009681820246TCS CARRIER BAG MIDI   0000001000+00000035+00000+0001T   00000035+0000001547          1400 NL3090               2AZ
205650000205650               205650               170213PK     1400+00000+PK0000006712+0000006712+000000000+000000941+0000007650+0000000003+I20000000000+0000007650+Z
205650001205650304-001204     205650006001023737984FLOWER OCC. TEDDY/ROSES0000001000+00001402+00000+0001T   00001490+0006471550          1400 NL3510               2AZ
205650002205650007-000614     205650006001023768667DIARY W/LOCK+PEN LOVE  0000001000+00005262+00000+0001T   00005262+0000001550          1400 NL3130               2AZ
205650003205650112-116069     205650006009681820277TCS CARRIER BAG JUMBO  0000001000+00000048+00000+0001T   00000048+0000001550          1400 NL3090               2AZ
205651000205651               205651               170213PK     1400+00000+PK0000000876+0000000876+000000000+000000123+0000000990+0000000009+I20000000000+0000000990+Z
205651001205651077-000151     205651006008766114676GIFT-WRAP C/PHANE ASSTD0000001000+00000876+00000+0001T   00000876+0000001551          1400 NL3112               2AZ
205652000205652               205652               170213PK     1400+00000+PK0000004418+0000004418+000000000+000000620+0000005030+0000000008+I20000000000+0000005030+Z
205652001205652304-001126     205652006001023845047FLWR BUNCH GERBERA 31cm0000001000+00002630+00000+0001T   00002630+0000001552          1400 NL3510               2AZ
205652002205652162-084902     205652006001492849027SS 3PK PEARL STUD      0000001000+00001753+00000+0001T   00001753+0000001552          1400 NL3160               2AZ
205652003205652112-116038     205652006009681820246TCS CARRIER BAG MIDI   0000001000+00000035+00000+0001T   00000035+0000001552          1400 NL3090               2AZ
205653000205653               205653               170213PK     1400+00000+PK0000002892+0000002892+000000000+000000406+0000003290+0000000008+I20000000000+0000003290+Z
205653001205653084-000890     205653006003000092925NAIL BUFFER 9x3x1.3cm  0000001000+00001139+00000+0001T   00001578+0008161553          1400 NL3200               2AZ
205653002205653200-003026     205653006003000276448REFUSE BAGS 10PCE GREEN0000001000+00001753+00000+0001T   00001753+0000001553          1400 NL3214               2AZ
205654000205654               205654               170213PK     1400+00000+PK0000001490+0000001490+000000000+000000209+0000001690+0000000009+I20000000000+0000001690+Z
205654001205654007-000208     205654006001023582096NOTE-PAD S/STICK 100'S 0000001000+00001490+00000+0001T   00001490+0000001554          1400 NL3130               2AZ
205655000205655               205655               170213PK     1400+00000+PK0000002630+0000002630+000000000+000000369+0000002990+0000000009+I20000000000+0000002990+Z
205655001205655562-000005     205655006001023584212EDU TOY MONEY & CASH   0000001000+00002630+00000+0001T   00002630+0000001555          1400 NL3755               2AZ
205656000205656               205656               170213PK     1400+00000+PK0000005260+0000005260+000000000+000000738+0000005990+0000000008+I20000000000+0000005990+Z
205656001205656050-000364-Z   205656006001023777133PADLOCK IRON 38mm CARD 0000002000+00002630+00000+0001T   00002630+0000001556          1400 NL3855               2AZ
205657000205657               205657               170213PK     1400+00000+PK0000008771+0000008771+000000000+000001228+0000009990+0000000009+I20000000000+0000009990+Z
205657001205657016-007002     205657006003000237791CER. B/DISH 20X16X13CM 0000001000+00008771+00000+0001T   00008771+0000001607          1400 NL3300               2AZ
205658000205658               205658               170213PK     1400+00000+PK0000003715+0000003715+000000000+000000522+0000004237+0000000000+I40000004237+0000000000+Z
205658001205658079-013101     205658006001023863706CRAFT SET DIY PIPE-CLNR0000001000+00002630+00000+0001T   00002630+0000001610          1400 NL3130               2AZ
205658002205658112-116038     205658006009681820246TCS CARRIER BAG MIDI   0000001000+00000035+00000+0001T   00000035+0000001610          1400 NL3090               2AZ
205658003205658903-000077     205658006939873501687SWT GS MAGIC ROCK FRUIT0000002000+00000525+00000+0001T   00000525+0000001610          1400 NL3150               2AZ
205659000205659               205659               170213PK     1400+00000+PK0000010832+0000010832+000000000+000001517+0000012340+0000000009+I20000000000+0000012340+Z
205659001205659080-000127     205659006003000424351VALENTINES DAY 36x24CM 0000001000+00002192+00000+0001T   00002192+0000001613          1400 NL3112               2AZ
205659002205659077-000303     205659006001023593757GIFT-BAG PAPER MED     0000001000+00001578+00000+0001T   00001578+0000001613          1400 NL3112               2AZ
205659003205659039-091794     205659006001023655875C/SET 6PC 16G RED-HEART0000001000+00003507+00000+0001T   00003507+0000001613          1400 NL3510               2AZ
205659004205659018-000136     205659006001023659026MUG OCC LOVE W/PLUSH   0000001000+00003507+00000+0001T   00003507+0000001613          1400 NL3515               2AZ
205659005205659112-116069     205659006009681820277TCS CARRIER BAG JUMBO  0000001000+00000048+00000+0001T   00000048+0000001613          1400 NL3090               2AZ
205660000205660               205660               170213PK     1400+00000+PK0000002192+0000002192+000000000+000000307+0000002490+0000000009+I20000000000+0000002490+Z
205660001205660567-004963     205660009780636049031TYB G03 MATHS          0000001000+00002192+00000+0001T   00002192+0000001614          1400 NL3757               2AZ
205661000205661               205661               170213PK     1400+00000+PK0000039158+0000039158+000000000+000005485+0000044643+0000000000+I40000044643+0000000000+Z
205661001205661006-000850     205661006009645922856PARTY LUCKY-PACKET GIRL0000001000+00003946+00000+0001T   00003946+0000001624          1400 NL3131               2AZ
205661002205661018-000177     205661006001023797513MUG MINI LOVE ASSTD    0000001000+00000700+00000+0001T   00000700+0000001624          1400 NL3515               2AZ
205661003205661368-000111     205661006001023780812PLUSH BEAR/DOG 29CM    0000001000+00012279+00000+0001T   00012279+0000001624          1400 NL3745               2AZ
205661004205661366-000302     205661006001023903013DRESSUP DEVIL/MOUSE    0000001000+00002192+00000+0001T   00002192+0000001624          1400 NL3131               2AZ
205661005205661112-116069     205661006009681820277TCS CARRIER BAG JUMBO  0000001000+00000048+00000+0001T   00000048+0000001624          1400 NL3090               2AZ
205661006205661301-086007     205661006003000426706ORN OCC DAD WDN LETTERS0000001000+00004385+00000+0001T   00004385+0000001624          1400 NL3505               2AZ
205661007205661080-000114     205661006003000246472CARD&ENV LOVE-MUSICAL  0000001000+00001314+00000+0001T   00001753+0008151624          1400 NL3112               2AZ
205661008205661050-000887-TS  205661006003000688210PADLOCK COMBO 35mm 8DIG0000003000+00004385+00000+0001T   00004385+0000001624          1400 NL3855               2AZ
205661009205661046-000014     205661006001023725387BATTERIES SIZE:AAA 4PCE0000001000+00001139+00000+0001T   00001139+0000001624          1400 NL3312               2AZ
205662000205662               205662               170213PK     1400+00000+PK0000003507+0000003507+000000000+000000491+0000003990+0000000008+I20000000000+0000003990+Z
205662001205662562-000020     205662006003000600861EDU PLAY DOUGH 60g 4PC 0000001000+00003507+00000+0001T   00003507+0000001625          1400 NL3755               2AZ
205663000205663               205663               170213PK     1400+00000+PK0000005832+0000005832+000000000+000000817+0000006649+0000000000+I40000006649+0000000000+Z
205663001205663903-000518     205663006001704012782SWT STRAWS S/BERRY 100g0000001000+00001227+00000+0001T   00001227+0000001629          1400 NL3150               2AZ
205663002205663903-000159     205663006003000417629SWT LB SMALL DUMMIE    0000003000+00000350+00000+0001T   00000350+0000001629          1400 NL3150               2AZ
205663003205663105-003027     205663006001023114129CONTAINERS PL MINI 4PC 0000001000+00003507+00000+0001T   00004385+0008161629          1400 NL3210               2AZ
205663004205663112-116069     205663006009681820277TCS CARRIER BAG JUMBO  0000001000+00000048+00000+0001T   00000048+0000001629          1400 NL3090               2AZ
205664000205664               205664               170213PK     1400+00000+PK0000005869+0000005869+000000000+000000825+0000006694+0000000000+I40000006694+0000000000+Z
205664001205664079-009702-C   205664008427973059309PAPER SIRIO A2 VIOLET  0000001000+00001051+00000+0001T   00001051+0000001632          1400 NL3130               2AZ
205664002205664079-009702-G   205664008427973060787PAPER SIRIO A2 FUSHIA  0000001000+00001051+00000+0001T   00001051+0000001632          1400 NL3130               2AZ
205664003205664903-000087     205664006001704000161SWT SPECKLED-EGGS 50G  0000001000+00001139+00000+0001T   00001139+0000001632          1400 NL3150               2AZ
205664004205664903-003080     205664005907029004673SWT SNACK STIX CHOC 50g0000001000+00000876+00000+0001T   00000876+0000001632          1400 NL3150               2AZ
205664005205664903-000295     205664006001704002899SWT MS FRUITY RASCALS  0000001000+00000876+00000+0001T   00000876+0000001632          1400 NL3150               2AZ
205664006205664903-003081     205664005907029004697SWT SNACK STIX YOGH 50g0000001000+00000876+00000+0001T   00000876+0000001632          1400 NL3150               2AZ
205665000205665               205665               170213PK     1400+00000+PK0000002227+0000002227+000000000+000000312+0000002530+0000000009+I20000000000+0000002530+Z
205665001205665002-000740     205665006001023763945GRATER 4-WAY WHITE     0000001000+00002192+00000+0001T   00002192+0000001641          1400 DT5300               2AZ
205665002205665112-116038     205665006003000534906TCS CARRIER BAG MIDI   0000001000+00000035+00000+0001T   00000035+0000001641          1400 DT5090               2AZ
205666000205666               205666               170213PK     1400+00000+PK0000005285+0000005285+000000000+000000745+0000006030+0000000000+I40000006030+0000000000+Z
205666001205666006-000804     205666006003000574445STREAMERS 6-ROLLS 2.5cm0000001000+00001753+00000+0001T   00001753+0000001643          1400 DT5131               2AZ
205666002205666006-000171-H   205666006003000609574BALLOONS 1PC RED PRINT 0000004000+00000218+00000+0001T   00000218+0000001643          1400 DT5131               2AZ
205666003205666006-000172-A   205666006003000609765BALLOONS METALLIC PINK 0000004000+00000218+00000+0001T   00000218+0000001643          1400 DT5131               2AZ
205666004205666006-000118     205666006001023730725BALLOONS 6PC TWISTER   0000001000+00001753+00000+0001T   00001753+0000001643          1400 DT5131               2AZ
205666005205666112-116038     205666006003000534906TCS CARRIER BAG MIDI   0000001000+00000035+00000+0001T   00000035+0000001643          1400 DT5090               2AZ
205667000205667               205667               170213PK     1400+00000+PK0000001051+0000001051+000000000+000000148+0000001190+0000000009+I20000000000+0000001190+Z
205667001205667079-009702-C   205667008427973059309PAPER SIRIO A2 VIOLET  0000001000+00001051+00000+0001T   00001051+0000001644          1400 DT5130               2AZ
205668000205668               205668               170213PK     1400+00000+PK0000000048+0000000048+000000000+000000007+0000000050+0000000005+I20000000000+0000000050+Z
205668001205668112-116069     205668006009681820277TCS CARRIER BAG JUMBO  0000001000+00000048+00000+0001T   00000048+0000001644          1400 DT5090               2AZ
205669000205669               205669               170213PK     1400+00000+PK0000007014+0000007014+000000000+000000982+0000007990+0000000006+I20000000000+0000007990+Z
205669001205669077-000932     205669006003000409808G/WRAP 700mmx5m PATTERN0000002000+00003507+00000+0001T   00003507+0000001649          1400 DT5112               2AZ
205670000205670               205670               170213PK     1400+00000+PK0000005607+0000005607+000000000+000000788+0000006390+0000000005+I20000000000+0000006390+Z
205670001205670903-000219     205670006925925911450SWT ERKO MALLOW CHOC   0000001000+00001753+00000+0001T   00001753+0000001651          1400 DT5150               2AZ
205670002205670080-000133     205670006003000535613CARD&ENV MINI ASTD DSGN0000002000+00000437+00000+0001T   00000437+0000001651          1400 DT5112               2AZ
205670003205670903-000499     205670006001704012492SWT CHOC MALLOWS 50g   0000001000+00001227+00000+0001T   00001227+0000001651          1400 DT5150               2AZ
205670004205670903-000219     205670006925925911450SWT ERKO MALLOW CHOC   0000001000+00001753+00000+0001T   00001753+0000001651          1400 DT5150               2AZ
205671000205671               205671               170213PK     1400+00000+PK0000002980+0000002980+000000000+000000418+0000003390+0000000008+I20000000000+0000003390+Z
205671001205671028-000796     205671006001023812094SKEWERS 25cm 50PCE 4mm 0000002000+00001490+00000+0001T   00001490+0000001652          1400 DT5305               2AZ
205672000205672               205672               170213PK     1400+00000+PK0000000350+0000000350+000000000+000000049+0000000390+0000000009+I20000000000+0000000390+Z
205672001205672002-000879     205672006001023770004STRAINER TEA 7cm H/H   0000001000+00000350+00000+0001T   00000350+0000001653          1400 DT5300               2AZ
205673000205673               205673               170213PK     1400+00000+PK0000002102+0000002102+000000000+000000296+0000002390+0000000008+I20000000000+0000002390+Z
205673001205673079-009702-E   205673008427973059439PAPER SIRIO A2 BLUE    0000001000+00001051+00000+0001T   00001051+0000001658          1400 DT5130               2AZ
205673002205673079-009702-A   205673008427973059408PAPER SIRIO A2 BLACK   0000001000+00001051+00000+0001T   00001051+0000001658          1400 DT5130               2AZ
205674000205674               205674               170213PK     1400+00000+PK0000000700+0000000700+000000000+000000098+0000000790+0000000008+I20000000000+0000000790+Z
205674001205674266-001499     205674006001023624925TOP & STRING 2 PACK    0000001000+00000700+00000+0001T   00000700+0000001659          1400 DT5710               2AZ
205675000205675               205675               170213PK     1400+00000+PK0000002629+0000002629+000000000+000000369+0000002990+0000000008+I20000000000+0000002990+Z
205675001205675077-000011-D   205675006001023808554TISSUE-WRAP WHITE 10PCE0000001000+00000876+00000+0001T   00000876+0000001703          1400 DT5112               2AZ
205675002205675077-000299-A   205675006003000670888GIFT-BAG PAPER JMB LOVE0000001000+00001753+00000+0001T   00001753+0000001703          1400 DT5112               2AZ
205676000205676               205676               170213PK     1400+00000+PK0000007015+0000007015+000000000+000000983+0000007998+0000000000+I40000007998+0000000000+Z
205676001205676301-000013     205676006001023781604ORN SENTIMENT STONE 4-A0000001000+00006139+00000+0001T   00006139+0000001705          1400 NL3505               2AZ
205676002205676077-000314     205676006003000181148GIFT-BAG 11X14CM MATT  0000001000+00000876+00000+0001T   00000876+0000001705          1400 NL3112               2AZ
205677000205677               205677               170213PK     1400+00000+PK0000000350+0000000350+000000000+000000049+0000000390+0000000009+I20000000000+0000000390+Z
205677001205677002-000879     205677006001023770004STRAINER TEA 7cm H/H   0000001000+00000350+00000+0001T   00000350+0000001712          1400 NL3300               2AZ
205678000205678               205678               170213PK     1400+00000+PK0000011438+0000011438+000000000+000001603+0000013041+0000000000+I40000013041+0000000000+Z
205678001205678077-000349-B   205678006001023908315G/RIBBON 3ROLLS 12BOWS 0000001000+00002630+00000+0001T   00002630+0000001715          1400 NL3112               2AZ
205678002205678077-000011-D   205678006001023808554TISSUE-WRAP WHITE 10PCE0000001000+00000876+00000+0001T   00000876+0000001715          1400 NL3112               2AZ
205678003205678077-000312     205678006001023608697GIFT-BAG 10X35CM GLOSS 0000006000+00001314+00000+0001T   00001314+0000001715          1400 NL3112               2AZ
205678004205678112-116069     205678006009681820277TCS CARRIER BAG JUMBO  0000001000+00000048+00000+0001T   00000048+0000001715          1400 NL3090               2AZ
205679000205679               205679               170213PK     1400+00000+PK0000008675+0000008675+000000000+000001218+0000009890+0000000003+I20000000000+0000009890+Z
205679001205679079-130100     205679006003000542635A&C DIY COLOUR EYES 24P0000002000+00001490+00000+0001T   00001490+0000001716          1400 NL3130               2AZ
205679002205679903-000862     205679005010478533912SWT DOUBLE DIP 19G     0000005000+00001139+00000+0001T   00001139+0000001716          1400 NL3150               2AZ
205680000205680               205680               170213PK     1400+00000+PK0000000876+0000000876+000000000+000000123+0000000990+0000000009+I20000000000+0000000990+Z
205680001205680071-000677     205680006001023110282THUMB-TACKS            0000001000+00000876+00000+0001T   00000876+0000001717          1400 NL3130               2AZ
205681000205681               205681               170213PK     1400+00000+PK0000002630+0000002630+000000000+000000369+0000002990+0000000009+I20000000000+0000002990+Z
205681001205681133-000111     205681006001023842732OVEN-MITTEN 19x30cm    0000001000+00002630+00000+0001T   00002630+0000001719          1400 NL3212               2AZ
205682000205682               205682               170213PK     1400+00000+PK0000006575+0000006575+000000000+000000922+0000007490+0000000007+I20000000000+0000007490+Z
205682001205682041-007031     205682006003000178124H/GLO BUBBLE-BATH 480ml0000001000+00003069+00000+0001T   00003069+0000001720          1400 NL3200               2AZ
205682002205682039-001023     205682006003000466337CANDLE TEA-LITE METALIC0000002000+00001753+00000+0001T   00001753+0000001720          1400 NL3510               2AZ
205683000205683               205683               170213PK     1400+00000+PK0000002678+0000002678+000000000+000000376+0000003050+0000000004+I20000000000+0000003050+Z
205683001205683007-000196     205683006002324002375FILE LEVER ARCH A4     0000001000+00002630+00000+0001T   00002630+0000001721          1400 NL3130               2AZ
205683002205683112-116069     205683006009681820277TCS CARRIER BAG JUMBO  0000001000+00000048+00000+0001T   00000048+0000001721          1400 NL3090               2AZ
205684000205684               205684               170213PK     1400+00000+PK0000001753+0000001753+000000000+000000246+0000001990+0000000009+I20000000000+0000001990+Z
205684001205684079-013032-A   205684006003000389322SEA WORLD STICKERS     0000001000+00001753+00000+0001T   00001753+0000001723          1400 NL3130               2AZ
205685000205685               205685               170213PK     1400+00000+PK0000005085+0000005085+000000000+000000712+0000005797+0000000000+I40000005797+0000000000+Z
205685001205685006-000327     205685006003000329687G/STICKS 3X20CM H/BANDS0000001000+00001578+00000+0001T   00001578+0000001725          1400 NL3131               2AZ
205685002205685079-006498     205685006001023836151GLITTER SET 10PCE      0000001000+00003507+00000+0001T   00003507+0000001725          1400 NL3130               2AZ
205686000205686               205686               170213PK     1400+00000+PK0000003069+0000003069+000000000+000000430+0000003490+0000000009+I20000000000+0000003490+Z
205686001205686105-001305     205686006003000572496CONTAINER COLOUR RIM   0000001000+00003069+00000+0001T   00003069+0000001725          1400 NL3210               2AZ
205687000205687               205687               170213PK     1400+00000+PK0000000876+0000000876+000000000+000000123+0000000990+0000000009+I20000000000+0000000990+Z
205687001205687071-001019     205687006001023474513MARKER BLACK NAME-PEN  0000001000+00000876+00000+0001T   00000876+0000001727          1400 NL3130               2AZ
205688000205688               205688               170213PK     1400+00000+PK0000002715+0000002715+000000000+000000381+0000003090+0000000006+I20000000000+0000003090+Z
205688001205688903-000840     205688009243178623690SWT CANDY TIPSEE BERRY 0000001000+00000876+00000+0001T   00000876+0000001729          1400 NL3150               2AZ
205688002205688903-000898     205688006922516801503SWT POPPING CANDY      0000001000+00001139+00000+0001T   00001139+0000001729          1400 NL3150               2AZ
205688003205688903-000920     205688000041396002155SWT CANDY STICK/TATT   0000001000+00000700+00000+0001T   00000700+0000001729          1400 NL3150               2AZ
205689000205689               205689               170213PK     1400+00000+PK0000008097+0000008097+000000000+000001134+0000009231+0000000000+I40000009231+0000000000+Z
205689001205689301-085003     205689006003000420827ORN OCCASION LOVE KEY  0000001000+00005262+00000+0001T   00005262+0000001732          1400 NL3505               2AZ
205689002205689018-000177     205689006001023797513MUG MINI LOVE ASSTD    0000004000+00000700+00000+0001T   00000700+0000001732          1400 NL3515               2AZ
205689003205689112-116038     205689006009681820246TCS CARRIER BAG MIDI   0000001000+00000035+00000+0001T   00000035+0000001732          1400 NL3090               2AZ
205690000205690               205690               170213PK     1400+00000+PK0000002016+0000002016+000000000+000000283+0000002299+0000000000+I40000002299+0000000000+Z
205690001205690050-000362-Z   205690006001023475275PADLOCK IRON 25mm CARD 0000001000+00002016+00000+0001T   00002016+0000001734          1400 NL3855               2AZ
205691000205691               205691               170213PK     1400+00000+PK0000001753+0000001753+000000000+000000246+0000001999+0000000000+I40000001999+0000000000+Z
205691001205691089-000030     205691006003000575671K/CHAIN LOVE MTL ASSTD 0000001000+00001753+00000+0001T   00001753+0000001737          1400 NL3205               2AZ
205692000205692               205692               170213PK     1400+00000+PK0000009864+0000009864+000000000+000001384+0000011248+0000000000+I40000011248+0000000000+Z
205692001205692018-000136     205692006001023659026MUG OCC LOVE W/PLUSH   0000001000+00003507+00000+0001T   00003507+0000001739          1400 NL3515               2AZ
205692002205692566-000359     205692006003000582709STICKER BOOK LOVE SPARK0000001000+00002192+00000+0001T   00002192+0000001739          1400 NL3130               2AZ
205692003205692903-000619     205692006003000672455SWT LOLLY STR/BRRY 140G0000001000+00001753+00000+0001T   00001753+0000001739          1400 NL3150               2AZ
205692004205692080-000133     205692006003000535613CARD&ENV MINI ASTD DSGN0000002000+00000437+00000+0001T   00000437+0000001739          1400 NL3112               2AZ
205692005205692051-002401     205692006001023523570TRIGGER-SPRAYER   300ml0000001000+00001490+00000+0001T   00001490+0000001739          1400 NL3820               2AZ
205692006205692112-116069     205692006009681820277TCS CARRIER BAG JUMBO  0000001000+00000048+00000+0001T   00000048+0000001739          1400 NL3090               2AZ
205693000205693               205693               170213PK     1400+00000+PK0000004385+0000004385+000000000+000000614+0000004990+0000000009+I20000000000+0000004990+Z
205693001205693082-000110     205693006003000360482READING GLS STRENGHT:2 0000001000+00004385+00000+0001T   00004385+0000001740          1400 NL3160               2AZ
205694000205694               205694               170213PK     1400+00000+PK0000009253+0000009253+000000000+000001296+0000010540+0000000009+I20000000000+0000010540+Z
205694001205694563-000318-L   205694006003000407088SERVIETTES 33cm RED    0000002000+00002192+00000+0001T   00002192+0000001741          1400 NL3214               2AZ
205694002205694362-000307     205694006003000519750HAIR HEADBAND PRINTED  0000001000+00001314+00000+0001T   00001314+0000001741          1400 NL3160               2AZ
205694003205694562-000011     205694006003000600984PLAY DOUGH NEON TUBE   0000001000+00003507+00000+0001T   00003507+0000001741          1400 NL3755               2AZ
205694004205694112-116069     205694006009681820277TCS CARRIER BAG JUMBO  0000001000+00000048+00000+0001T   00000048+0000001741          1400 NL3090               2AZ
205695000205695               205695               170213PK     1400+00000+PK0000007589+0000007589+000000000+000001063+0000008650+0000000002+I20000000000+0000008650+Z
205695001205695368-000001     205695006003000097982Plush Bear 25cm        0000001000+00004385+00000+0001T   00004385+0000001747          1400 NL3745               2AZ
205695002205695077-000315     205695006003000181186GIFT-BAG 20x28cm MATT  0000002000+00001578+00000+0001T   00001578+0000001747          1400 NL3112               2AZ
205695003205695112-116069     205695006009681820277TCS CARRIER BAG JUMBO  0000001000+00000048+00000+0001T   00000048+0000001747          1400 NL3090               2AZ
205696000205696               205696               170213PK     1400+00000+PK0000001400+0000001400+000000000+000000196+0000001590+0000000006+I20000000000+0000001590+Z
205696001205696564-000012     205696006001023130075BUBBLE BOTTLE MAGIC    0000002000+00000700+00000+0001T   00000700+0000001748          1400 NL3131               2AZ
205697000205697               205697               170213PK     1400+00000+PK0000003507+0000003507+000000000+000000491+0000003990+0000000008+I20000000000+0000003990+Z
205697001205697018-005009     205697006001023725608MUG W/PLUSH-BEAR LOVE  0000001000+00003507+00000+0001T   00003507+0000001750          1400 NL3515               2AZ
205698000205698               205698               170213PK     1400+00000+PK0000003507+0000003507+000000000+000000491+0000003990+0000000008+I20000000000+0000003990+Z
205698001205698018-000136     205698006001023659026MUG OCC LOVE W/PLUSH   0000001000+00003507+00000+0001T   00003507+0000001754          1400 NL3515               2AZ
205699000205699               205699               170213PK     1400+00000+PK0000017535+0000017535+000000000+000002458+0000019990+0000000003+I20000000000+0000019990+Z
205699001205699001-091413     205699006001023669179WINE-GLASS RED WINE    0000002000+00002630+00000+0001T   00002630+0000001758          1400 NL3515               2AZ
205699002205699304-000720     205699006001023843050F/BUNCH ROSE 6-HEAD AST0000001000+00002630+00000+0001T   00002630+0000001758          1400 NL3510               2AZ
205699003205699368-000001     205699006003000097982Plush Bear 25cm        0000001000+00004385+00000+0001T   00004385+0000001758          1400 NL3745               2AZ
205699004205699103-000472     205699006003000631049FLOWER BASKET W/HANDLE 0000001000+00003507+00000+0001T   00003507+0000001758          1400 NL3300               2AZ
205699005205699903-000619     205699006003000672455SWT LOLLY STR/BRRY 140G0000001000+00001753+00000+0001T   00001753+0000001758          1400 NL3150               2AZ
205700000205700               205700               170213PK     1400+00000+PK0000009119+0000009119+000000000+000001278+0000010390+0000000007+I20000000000+0000010390+Z
205700001205700041-093000     205700006003000320882B/GIFT SET 4PC B/RANGE 0000001000+00007016+00000+0001T   00007016+0000001759          1400 NL3200               2AZ
205700002205700077-000318     205700006001023609755GIFT-BAG 18X23CM E/D AN0000001000+00001227+00000+0001T   00001227+0000001759          1400 NL3112               2AZ
205700003205700162-081670     205700006001492816708NEW 3PK CRYSTAL STUDS  0000001000+00000876+00000+0001T   00000876+0000001759          1400 NL3160               2AZ
205701000205701               205701               170213PK     1400+00000+PK0000004822+0000004822+000000000+000000676+0000005498+0000000000+I40000005498+0000000000+Z
205701001205701077-000270     205701006003000395453GIFT-BAG PPR JMB 33X45 0000001000+00002630+00000+0001T   00002630+0000001801          1400 NL3112               2AZ
205701002205701080-000127     205701006003000424351VALENTINES DAY 36x24CM 0000001000+00002192+00000+0001T   00002192+0000001801          1400 NL3112               2AZ
A17021300                                          09190022PKSLAVE 2                       NL32IC
A17021301                                          10015775PKSLAVE 2                       NL31IC
M17021391                              CASH        PKSLAVE 2                       Z-REPORT No.   485TOTAL (Sales - Refunds)           6142.49       CASH TO BE BANKED                 3032.90       DEBIT CARDS                          0.00       CREDIT CARDS                      2839.59       Z-READING                         6142.49       AIRTIME DEBIT CARD SALES             0.00       AIRTIME CARD SALES                   0.00       OVERS/UNDERS                       267.00-      AIRTIME CASH SALES                   0.00       GIFT CARDS                           3.00       GIFT CARD CASH SALES                 0.00       T O T A L  CASH PAYOUTS              0.00                                                                                                                                                                                                                                                                                                                                                      Z
M17021392                              CASH        PKABSENT                                                                                                                                                                                          ANNUAL LEAVE                                                                                                                                                                                    DAY OFF                                                                                                                                                                                         COMMENTS                                                                                                                                                                                                                                                                                                                                                                                       Z
Y17021300                                          PK00000000540944+000101
ZPK17021320183 SLAVE 2      SALES DATA                     NEXT INVOICE NO.  205702 0485
X PK Slave 2 First invoice 205601 170213 Last invoice 205701 170213 Next invoice 205702 Total number of records 000000332 clbackup completed 20:18:55
