102975000102975               102975               170213PL     1400+00000+PL0000000786+0000000786+000000000+000000111+0000000890+0000000007+I20000000000+0000000890+Z
102975001102975108-003007     102975006002923006590MUG PL 375ml           0000003000+00000262+00000+0001T   00000262+0000000912          1400 2IC210               1AZ
102976000102976               102976               170213PL     1400+00000+PL0000011606+0000011606+000000000+000001628+0000013230+0000000004+I20000000000+0000013230+Z
102976001102976088-000058     102976006003000621699TOILET FRESHENER GEL   0000001000+00002630+00000+0001T   00002630+0000000949          1400 2IC212               1AZ
102976002102976078-000025     102976008887013700064SUPERGLUE 3g 1PCE CARD 0000001000+00000876+00000+0001T   00000876+0000000949          1400 2IC810               1AZ
102976003102976903-000095     102976006001704011495SWT SPECKLED-EGGS 100G 0000003000+00002104+00000+0001T   00002104+0000000949          1400 2IC150               1AZ
102976004102976112-116038     102976006009681820246TCS CARRIER BAG MIDI   0000001000+00000035+00000+0001T   00000035+0000000949          1400 2IC090               1AZ
102976005102976046-002013-PK6 102976004897006174851BATTERY BUTTON AG13 6PC0000001000+00001753+00000+0001T   00001753+0000000949          1400 2IC312               1AZ
102977000102977               102977               170213PL     1400+00000+PL0000003506+0000003506+000000000+000000492+0000003990+0000000008+I20000000000+0000003990+Z
102977001102977077-000299-A   102977006003000670888GIFT-BAG PAPER JMB LOVE0000002000+00001753+00000+0001T   00001753+0000000956          1400 2IC112               1AZ
102978000102978               102978               170213PL     1400+00000+PL0000014078+0000014078+000000000+000001973+0000016051+0000000000+I40000016051+0000000000+Z
102978001102978368-000049     102978006003000536955PLUSH BEAR 15cm LOVE   0000001000+00004385+00000+0001T   00004385+0000001005          1400 2IC745               1AZ
102978002102978301-085001     102978006003000297610ORN WATERBALL LOVE ASST0000001000+00004823+00000+0001T   00004823+0000001005          1400 2IC505               1AZ
102978003102978079-000123     102978006003000589746ART+CRAFT ENGRAVING ART0000001000+00002630+00000+0001T   00002630+0000001005          1400 2IC130               1AZ
102978004102978080-000127     102978006003000424351VALENTINES DAY 36x24CM 0000001000+00002192+00000+0001T   00002192+0000001005          1400 2IC112               1AZ
102978005102978112-116069     102978006009681820277TCS CARRIER BAG JUMBO  0000001000+00000048+00000+0001T   00000048+0000001005          1400 2IC090               1AZ
102979000102979               102979               170213PL     1400+00000+PL0000001752+0000001752+000000000+000000246+0000001990+0000000008+I20000000000+0000001990+Z
102979001102979077-000150-D   102979006003000054343GIFT-WRAP CELLPHANE CLR0000002000+00000876+00000+0001T   00000876+0000001007          1400 2IC112               1AZ
102980000102980               102980               170213PL     1400+00000+PL0000003507+0000003507+000000000+000000491+0000003990+0000000008+I20000000000+0000003990+Z
102980001102980046-000005     102980004897006174844BATTERY 9VOLT ALKALINE 0000001000+00003507+00000+0001T   00003507+0000001009          1400 2IC312               1AZ
102981000102981               102981               170213PL     1400+00000+PL0000005610+0000005610+000000000+000000787+0000006397+0000000000+I40000006397+0000000000+Z
102981001102981036-000063     102981006009654960436COATHANGERS VIRGIN 5PCE0000002000+00001753+00000+0001T   00001753+0000001011          1400 2IC212               1AZ
102981002102981903-000095     102981006001704011495SWT SPECKLED-EGGS 100G 0000001000+00002104+00000+0001T   00002104+0000001011          1400 2IC150               1AZ
102982000102982               102982               170213PL     1400+00000+PL0000005696+0000005696+000000000+000000799+0000006490+0000000005+I20000000000+0000006490+Z
102982001102982080-000133-A   102982006003000647019MINI VALENTINES CARD   0000001000+00000437+00000+0001T   00000437+0000001017          1400 2IC112               1AZ
102982002102982903-000194     102982006009826020616SWT CHOC RP LOLLY 25G  0000001000+00001314+00000+0001T   00001314+0000001017          1400 2IC150               1AZ
102982003102982089-060027     102982006003000245871KEY-CHAIN HEART 6X6cm  0000001000+00003069+00000+0001T   00003069+0000001017          1400 2IC205               1AZ
102982004102982077-000408     102982006001024025004G/BAG PP 15X21X7CM     0000001000+00000876+00000+0001T   00000876+0000001017          1400 2IC112               1AZ
102983000102983               102983               170213PL     1400+00000+PL0000028980+0000028980+000000000+000004063+0000033043+0000000000+I40000033043+0000000000+Z
102983001102983560-000301     102983006001023800275DINOSAUR VINYL 23cm    0000002000+00007016+00000+0001T   00007016+0000001030          1400 2IC745               1AZ
102983002102983566-000066     102983006003000283675STICKERS GLITTER 25PCS 0000006000+00001753+00000+0001T   00001753+0000001030          1400 2IC130               1AZ
102983003102983077-000311     102983006001023608666GIFT-BAG 11X14CM GLOSS 0000002000+00000613+00000+0001T   00000613+0000001030          1400 2IC112               1AZ
102983004102983077-000315     102983006003000181186GIFT-BAG 20x28cm MATT  0000002000+00001578+00000+0001T   00001578+0000001030          1400 2IC112               1AZ
102983005102983112-116069     102983006009681820277TCS CARRIER BAG JUMBO  0000001000+00000048+00000+0001T   00000048+0000001030          1400 2IC090               1AZ
102984000102984               102984               170213PL     1400+00000+PL0000007015+0000007015+000000000+000000983+0000007990+0000000008+I20000000000+0000007990+Z
102984001102984206-000160     102984006003000628780CORN KERNELER          0000001000+00004385+00000+0001T   00004385+0000001040          1400 2IC321               1AZ
102984002102984206-000620     102984006003000631797BACK SCRATCHER EXTEND  0000001000+00002630+00000+0001T   00002630+0000001040          1400 2IC321               1AZ
102985000102985               102985               170213PL     1400+00000+PL0000020289+0000020289+000000000+000002844+0000023133+0000000000+I40000023133+0000000000+Z
102985001102985159-000653     102985006001023688859BATH-SPONGE MESH W/ROPE0000002000+00001753+00000+0001T   00001753+0000001141          1400 2IC200               1AZ
102985002102985079-013102     102985006003000019601ART+CRAFT DIY PIPE-CLNR0000001000+00002192+00000+0001T   00002192+0000001141          1400 2IC130               1AZ
102985003102985030-004015     102985006003000467624PLAQUE WDN SIGN 30X20CM0000001000+00009648+00000+0001T   00009648+0000001141          1400 2IC505               1AZ
102985004102985306-000039     102985006003000622566COTTON EARBUDS HOLDER  0000001000+00002630+00000+0001T   00002630+0000001141          1400 2IC200               1AZ
102985005102985112-116038     102985006009681820246TCS CARRIER BAG MIDI   0000001000+00000035+00000+0001T   00000035+0000001141          1400 2IC090               1AZ
102985006102985903-000087     102985006001704000161SWT SPECKLED-EGGS 50G  0000002000+00001139+00000+0001T   00001139+0000001141          1400 2IC150               1AZ
102986000102986               102986               170213PL     1400+00000+PL0000006662+0000006662+000000000+000000934+0000007596+0000000000+I40000007596+0000000000+Z
102986001102986080-000127     102986006003000424351VALENTINES DAY 36x24CM 0000001000+00002192+00000+0001T   00002192+0000001233          1400 2IC112               1AZ
102986002102986077-000299-A   102986006003000670888GIFT-BAG PAPER JMB LOVE0000001000+00001753+00000+0001T   00001753+0000001233          1400 2IC112               1AZ
102986003102986018-000127     102986006001023380289MUG OCC STRAIGHT LOVE  0000001000+00001578+00000+0001T   00001753+0006471233          1400 2IC515               1AZ
102986004102986903-000087     102986006001704000161SWT SPECKLED-EGGS 50G  0000001000+00001139+00000+0001T   00001139+0000001233          1400 2IC150               1AZ
102987000102987               102987               170213PL     1400+00000+PL0000026348+0000026348+000000000+000003697+0000030045+0000000000+I40000030045+0000000000+Z
102987001102987079-001002     102987006003000448715CANVAS A4 WOOD MOUNTED 0000010000+00002630+00000+0001T   00002630+0000001236          1400 2IC130               1AZ
102987002102987112-116069     102987006009681820277TCS CARRIER BAG JUMBO  0000001000+00000048+00000+0001T   00000048+0000001236          1400 2IC090               1AZ
102988000102988               102988               170213PL     1400+00000+PL0000009470+0000009470+000000000+000001326+0000010796+0000000000+I40000010796+0000000000+Z
102988001102988301-085004     102988006003000420469ORN LOVE PLAQUE 21X10CM0000001000+00003507+00000+0001T   00003946+0006471307          1400 2IC505               1AZ
102988002102988031-000001-A   102988006003000246908P/FRAME GLS LOVE 9X13cm0000001000+00004385+00000+0001T   00004385+0000001307          1400 2IC510               1AZ
102988003102988077-000315     102988006003000181186GIFT-BAG 20x28cm MATT  0000001000+00001578+00000+0001T   00001578+0000001307          1400 2IC112               1AZ
102989000102989               102989               170213PL     1400+00000+PL0000000035+0000000035+000000000+000000005+0000000040+0000000000+I20000000000+0000000040+Z
102989001102989112-116038     102989006009681820246TCS CARRIER BAG MIDI   0000001000+00000035+00000+0001T   00000035+0000001308          1400 2IC090               1AZ
102990000102990               102990               170213PL     1400+00000+PL0000001753+0000001753+000000000+000000246+0000001990+0000000009+I20000000000+0000001990+Z
102990001102990079-013032-J   102990006003000542710A&C DIY COLOUR P/FLOWER0000001000+00001753+00000+0001T   00001753+0000001311          1400 2IC130               1AZ
102991000102991               102991               170213PL     1400+00000+PL0000001753+0000001753+000000000+000000246+0000001990+0000000009+I20000000000+0000001990+Z
102991001102991079-003005     102991006003000448241A/TUBE 75ML BLUE       0000001000+00001753+00000+0001T   00001753+0000001313          1400 2IC130               1AZ
102992000102992               102992               170213PL     1400+00000+PL0000004385+0000004385+000000000+000000614+0000004990+0000000009+I20000000000+0000004990+Z
102992001102992030-000031-A   102992006003000457588PLAQUE W/WORDS ASSTD   0000001000+00004385+00000+0001T   00004823+0006471322          1400 2IC505               1AZ
102993000102993               102993               170213PL     1400+00000+PL0000005256+0000005256+000000000+000000736+0000005992+0000000000+I40000005992+0000000000+Z
102993001102993903-000194     102993006009826020616SWT CHOC RP LOLLY 25G  0000004000+00001314+00000+0001T   00001314+0000001404          1400 2IC150               1AZ
102994000102994               102994               170213PL     1400+00000+PL0000002893+0000002893+000000000+000000406+0000003290+0000000009+I20000000000+0000003290+Z
102994001102994036-000151     102994006001023810588COATHANGERS    PACK-10 0000001000+00002893+00000+0001T   00002893+0000001610          1400 2IC212               1AZ
102995000102995               102995               170213PL     1400+00000+PL0000016706+0000016706+000000000+000002343+0000019040+0000000009+I20000000000+0000019040+Z
102995001102995077-000270     102995006003000395453GIFT-BAG PPR JMB 33X45 0000004000+00002630+00000+0001T   00002630+0000001634          1400 2IC112               1AZ
102995002102995301-085008     102995006003000673933ORN OCC.LOVE TINSEL HRT0000002000+00003069+00000+0001T   00003069+0000001634          1400 2IC505               1AZ
102995003102995112-116069     102995006009681820277TCS CARRIER BAG JUMBO  0000001000+00000048+00000+0001T   00000048+0000001634          1400 2IC090               1AZ
102996000102996               102996               170213PL     1400+00000+PL0000028065+0000028065+000000000+000003931+0000031996+0000000000+I40000031996+0000000000+Z
102996001102996004-071209     102996006003000604678MOBILE IN CAR HOLDER   0000001000+00007893+00000+0001T   00007893+0000001647          1400 2IC310               1AZ
102996002102996004-071192     102996006003000528813USB CABLE 1.0m         0000001000+00002630+00000+0001T   00002630+0000001647          1400 2IC310               1AZ
102996003102996004-079110     102996006003000624089USB POWER ADAPTOR 4PORT0000001000+00017542+00000+0001T   00017542+0000001647          1400 2IC310               1AZ
102997000102997               102997               170213PL     1400+00000+PL0000003069+0000003069+000000000+000000430+0000003499+0000000000+I40000003499+0000000000+Z
102997001102997030-000030-A   102997006003000249305PLAQUE GLASS LOVE      0000001000+00003069+00000+0001T   00003069+0000001715          1400 2IC505               1CZ
102998000102998               102998               170213PL     1400+00000+PL0000011692+0000011692+000000000+000001640+0000013330+0000000002+I20000000000+0000013330+Z
102998001102998018-000128     102998006001023868978MUG OCCASIONS MESSAGES 0000002000+00002630+00000+0001T   00002630+0000001717          1400 2IC515               1AZ
102998002102998903-000200     102998006009826020234SWT CHOC RP CHOCO 23G  0000002000+00000788+00000+0001T   00000788+0000001717          1400 2IC150               1AZ
102998003102998903-000194     102998006009826020616SWT CHOC RP LOLLY 25G  0000001000+00001314+00000+0001T   00001314+0000001717          1400 2IC150               1AZ
102998004102998018-000136     102998006001023659026MUG OCC LOVE W/PLUSH   0000001000+00003507+00000+0001T   00003507+0000001717          1400 2IC515               1AZ
102998005102998112-116038     102998006009681820246TCS CARRIER BAG MIDI   0000001000+00000035+00000+0001T   00000035+0000001717          1400 2IC090               1AZ
102999000102999               102999               170213PL     1400+00000+PL0000000874+0000000874+000000000+000000124+0000000990+0000000008+I20000000000+0000000990+Z
102999001102999080-000133-A   102999006003000647019MINI VALENTINES CARD   0000002000+00000437+00000+0001T   00000437+0000001718          1400 2IC112               1AZ
103000000103000               103000               170213PL     1400+00000+PL0000006838+0000006838+000000000+000000958+0000007796+0000000000+I40000007796+0000000000+Z
103000001103000080-000127     103000006003000424351VALENTINES DAY 36x24CM 0000002000+00002192+00000+0001T   00002192+0000001720          1400 2IC112               1AZ
103000002103000903-000518     103000006001704012782SWT STRAWS S/BERRY 100g0000001000+00001227+00000+0001T   00001227+0000001720          1400 2IC1501IC            1AZ
103000003103000903-000519     103000006001704012805SWT MS LIQ-O-GHETTI    0000001000+00001227+00000+0001T   00001227+0000001720          1400 2IC150               1AZ
103001000103001               103001               170213PL     1400+00000+PL0000000035+0000000035+000000000+000000005+0000000040+0000000000+I20000000000+0000000040+Z
103001001103001112-116038     103001006009681820246TCS CARRIER BAG MIDI   0000001000+00000035+00000+0001T   00000035+0000001721          1400 2IC090               1AZ
103002000103002               103002               170213PL     1400+00000+PL0000010779+0000010779+000000000+000001513+0000012292+0000000000+I40000012292+0000000000+Z
103002001103002077-000315     103002006003000181186GIFT-BAG 20x28cm MATT  0000001000+00001578+00000+0001T   00001578+0000001725          1400 2IC112               1AZ
103002002103002903-000843     103002008693029031067SWT GUMMY JELAXY 80G   0000002000+00000964+00000+0001T   00000964+0000001725          1400 2IC150               1AZ
103002003103002080-000133-A   103002006003000647019MINI VALENTINES CARD   0000002000+00000437+00000+0001T   00000437+0000001725          1400 2IC112               1AZ
103002004103002072-000329     103002006001023904706PET CAT COLLAR LINING  0000002000+00002630+00000+0001T   00002630+0000001725          1400 2IC870               1AZ
103002005103002903-000087     103002006001704000161SWT SPECKLED-EGGS 50G  0000001000+00001139+00000+0001T   00001139+0000001725          1400 2IC150               1AZ
103003000103003               103003               170213PL     1400+00000+PL0000017583+0000017583+000000000+000002463+0000020046+0000000000+I40000020046+0000000000+Z
103003001103003077-000270     103003006003000395453GIFT-BAG PPR JMB 33X45 0000001000+00002630+00000+0001T   00002630+0000001727          1400 2IC112               1AZ
103003002103003077-000310     103003006001023608635GIFT-BAG 18X23CM GLOSS 0000002000+00001314+00000+0001T   00001314+0000001727          1400 2IC112               1AZ
103003003103003001-000175     103003006001023788108B/MUG GLS LOVE 380ML   0000002000+00004385+00000+0001T   00004385+0000001727          1400 2IC515               1AZ
103003004103003018-005009     103003006001023725608MUG W/PLUSH-BEAR LOVE  0000001000+00003507+00000+0001T   00003507+0000001727          1400 2IC515               1AZ
103003005103003112-116069     103003006009681820277TCS CARRIER BAG JUMBO  0000001000+00000048+00000+0001T   00000048+0000001727          1400 2IC090               1AZ
103004000103004               103004               170213PL     1400+00000+PL0000010524+0000010524+000000000+000001474+0000011990+0000000008+I20000000000+0000011990+Z
103004001103004368-000175     103004006003000270316PLUSH BEAR 4 ASSTD 18CM0000001000+00006139+00000+0001T   00006139+0000001730          1400 2IC745               1AZ
103004002103004030-000031-A   103004006003000457588PLAQUE W/WORDS ASSTD   0000001000+00004385+00000+0001T   00004823+0006471730          1400 2IC505               1AZ
103005000103005               103005               170213PL     1400+00000+PL0000003507+0000003507+000000000+000000491+0000003998+0000000000+I40000003998+0000000000+Z
103005001103005018-000136     103005006001023659026MUG OCC LOVE W/PLUSH   0000001000+00003507+00000+0001T   00003507+0000001732          1400 2IC515               1AZ
103006000103006               103006               170213PL     1400+00000+PL0000001489+0000001489+000000000+000000209+0000001690+0000000008+I20000000000+0000001690+Z
103006001103006033-005994     103006006001023789570SEWING-NEEDLES 16PCE   0000001000+00000613+00000+0001T   00000613+0000001733          1400 2IC200               1AZ
103006002103006033-005921-B   103006006001023678348SEWING-THREAD 200m BLK 0000001000+00000876+00000+0001T   00000876+0000001733          1400 2IC200               1AZ
103007000103007               103007               170213PL     1400+00000+PL0000007013+0000007013+000000000+000000984+0000007990+0000000007+I20000000000+0000007990+Z
103007001103007077-000011-X   103007006001023809827TISSUE-WRAP SILVER 10PC0000001000+00001753+00000+0001T   00001753+0000001737          1400 2IC112               1AZ
103007002103007077-000270     103007006003000395453GIFT-BAG PPR JMB 33X45 0000002000+00002630+00000+0001T   00002630+0000001737          1400 2IC112               1AZ
103008000103008               103008               170213PL     1400+00000+PL0000005119+0000005119+000000000+000000717+0000005836+0000000000+I40000005836+0000000000+Z
103008001103008079-013032-G   103008006003000496389FOAM BUTTERFLIES       0000001000+00002192+00000+0001T   00002192+0000001740          1400 2IC130               1AZ
103008002103008903-000843     103008008693029031067SWT GUMMY JELAXY 80G   0000003000+00000964+00000+0001T   00000964+0000001740          1400 2IC150               1AZ
103008003103008112-116038     103008006009681820246TCS CARRIER BAG MIDI   0000001000+00000035+00000+0001T   00000035+0000001740          1400 2IC090               1AZ
103009000103009               103009               170213PL     1400+00000+PL0000001227+0000001227+000000000+000000172+0000001390+0000000009+I20000000000+0000001390+Z
103009001103009077-000245     103009006001023759214GIFT-RIBBON METALLICx2 0000001000+00001227+00000+0001T   00001227+0000001741          1400 2IC112               1AZ
103010000103010               103010               170213PL     1400+00000+PL0000000874+0000000874+000000000+000000124+0000000990+0000000008+I20000000000+0000000990+Z
103010001103010080-000133-A   103010006003000647019MINI VALENTINES CARD   0000002000+00000437+00000+0001T   00000437+0000001742          1400 2IC112               1AZ
103011000103011               103011               170213PL     1400+00000+PL0000004243+0000004243+000000000+000000595+0000004830+0000000008+I20000000000+0000004830+Z
103011001103011039-081008     103011006008766081008CANDLES 9PCE SCENTED   0000001000+00002630+00000+0001T   00002630+0000001745          1400 2IC510               1AZ
103011002103011018-000127     103011006001023380289MUG OCC STRAIGHT LOVE  0000001000+00001578+00000+0001T   00001753+0006471745          1400 2IC515               1AZ
103011003103011112-116038     103011006009681820246TCS CARRIER BAG MIDI   0000001000+00000035+00000+0001T   00000035+0000001745          1400 2IC090               1AZ
103012000103012               103012               170213PL     1400+00000+PL0000002805+0000002805+000000000+000000393+0000003198+0000000000+I40000003198+0000000000+Z
103012001103012903-000519     103012006001704012805SWT MS LIQ-O-GHETTI    0000001000+00001227+00000+0001T   00001227+0000001747          1400 2IC150               1AZ
103012002103012018-000127     103012006001023380289MUG OCC STRAIGHT LOVE  0000001000+00001578+00000+0001T   00001753+0006471747          1400 2IC515               1AZ
103013000103013               103013               170213PL     1400+00000+PL0000001753+0000001753+000000000+000000246+0000001990+0000000009+I20000000000+0000001990+Z
103013001103013006-000124     103013006003000625888BALLOONS 10PC MIX COL  0000001000+00001753+00000+0001T   00001753+0000001750          1400 2IC131               1AZ
103014000103014               103014               170213PL     1400+00000+PL0000001314+0000001314+000000000+000000184+0000001490+0000000008+I20000000000+0000001490+Z
103014001103014903-000844     103014005010478432567SWT CANDY DL LUV HEARTS0000001000+00001314+00000+0001T   00001314+0000001751          1400 2IC150               1AZ
103015000103015               103015               170213PL     1400+00000+PL0000001578+0000001578+000000000+000000221+0000001790+0000000009+I20000000000+0000001790+Z
103015001103015018-000127     103015006001023380289MUG OCC STRAIGHT LOVE  0000001000+00001578+00000+0001T   00001753+0006471752          1400 2IC515               1AZ
103016000103016               103016               170213PL     1400+00000+PL0000008806+0000008806+000000000+000001233+0000010030+0000000009+I20000000000+0000010030+Z
103016001103016001-091415     103016006003000329113W/GLS OCC. LOVE 2PC 2800000001000+00008771+00000+0001T   00009648+0006471753          1400 2IC515               1AZ
103016002103016112-116038     103016006009681820246TCS CARRIER BAG MIDI   0000001000+00000035+00000+0001T   00000035+0000001753          1400 2IC090               1AZ
B10300000                                          170213PL903-000518     17194369SLAVE 1     2IC1IC0000002000+0000001000+0000000000000+
M17021301                              IT          PLLAST CASH SLIP                                  103016                                          PL
M17021391                              CASH        PLSLAVE 1                       Z-REPORT No.   440TOTAL (Sales - Refunds)           3501.64       CASH TO BE BANKED                 1284.50       DEBIT CARDS                          0.00       CREDIT CARDS                      2217.14       Z-READING                         3501.64       AIRTIME DEBIT CARD SALES             0.00       AIRTIME CARD SALES                   0.00       OVERS/UNDERS                         0.00       AIRTIME CASH SALES                   0.00       GIFT CARDS                           0.00       GIFT CARD CASH SALES                 0.00       T O T A L  CASH PAYOUTS              0.00                                                                                                                                                                                                                                                                                                                                                      Z
M17021392                              CASH        PLABSENT                                                                                                                                                                                          ANNUAL LEAVE                                                                                                                                                                                    DAY OFF                                                                                                                                                                                         COMMENTS                                                                                                                                                                                                                                                                                                                                                                                       Z
Y17021300                                          PL00000000307273+000042
ZPL17021320203 SLAVE 1      SALES DATA                     NEXT INVOICE NO.  103017 0440
X PL Slave 1 First invoice 102975 170213 Last invoice 103016 170213 Next invoice 103017 Total number of records 000000145 clbackup completed 20:20:04
