203611000203611               203611               170213PL     1400+00000+PL0000012278+0000012278+000000000+000001719+0000013997+0000000000+I40000013997+0000000000+Z
203611001203611027-000238     203611006001246634176MOP SWIFTA WITH WIPES  0000001000+00003507+00000+0001T   00003507+0000000921          1400 DI6212               2AZ
203611002203611027-000852     203611006003000431007MOP TWIST HANDLE 1.3M  0000001000+00008771+00000+0001T   00008771+0000000921          1400 DI6212               2AZ
203612000203612               203612               170213PL     1400+00000+PL0000001227+0000001227+000000000+000000172+0000001390+0000000009+I20000000000+0000001390+Z
203612001203612077-000319     203612006001023609779GIFT-BAG 18X23CM BIRTHD0000001000+00001227+00000+0001T   00001227+0000000923          1400 DI6112               2AZ
203613000203613               203613               170213PL     1400+00000+PL0000001753+0000001753+000000000+000000246+0000001990+0000000009+I20000000000+0000001990+Z
203613001203613566-001228     203613006003000284153STICKERS CRYSTAL ASSTD 0000001000+00001753+00000+0001T   00001753+0000000925          1400 DI6130               2AZ
203614000203614               203614               170213PL     1400+00000+PL0000068096+0000068096+000000000+000009543+0000077630+0000000009+I20000000000+0000077630+Z
203614001203614112-116069     203614006009681820277TCS CARRIER BAG JUMBO  0000001000+00000048+00000+0001T   00000048+0000000935          1400 DI6090               2AZ
203614002203614072-020366     203614006003000452927PET PLACE MAT ASSTD COL0000001000+00002630+00000+0001T   00002630+0000000935          1400 DI6870               2AZ
203614003203614030-003700     203614006003000416790WALL DEC WDN ASTD WHT  0000003000+00002630+00000+0001T   00002630+0000000935          1400 DI6505               2AZ
203614004203614251-000002     203614006003000093991TAPE D-SIDED 24x1000mm 0000001000+00002192+00000+0001T   00002192+0000000935          1400 DI6810               2AZ
203614005203614251-000030     203614006001023515803MASKING-TAPE 18mmx40m  0000002000+00001139+00000+0001T   00001139+0000000935          1400 DI6810               2AZ
203614006203614159-002369     203614006001023999191TOOTHBRUSH HOLDER PL 3 0000001000+00002630+00000+0001T   00002630+0000000935          1400 DI6200               2AZ
203614007203614903-004950     203614006002580020304SWT APRICOT SURPRISE   0000001000+00001314+00000+0001T   00001314+0000000935          1400 DI6150               2AZ
203614008203614031-007009     203614006003000467822P/FRAME WDN CERTIFICATE0000004000+00006139+00000+0001T   00006139+0000000935          1400 DI6510               2AZ
203614009203614562-088353     203614006001023735966EVA MAT ABC+NR 36PC    0000001000+00007893+00000+0001T   00007893+0000000935          1400 DI6755               2AZ
203614010203614562-088354     203614006001023735980EVA MAT 26PC 30x30cm   0000001000+00016665+00000+0001T   00016665+0000000935          1400 DI6755               2AZ
203615000203615               203615               170213PL     1400+00000+PL0000003069+0000003069+000000000+000000430+0000003490+0000000009+I20000000000+0000003490+Z
203615001203615012-000012     203615006003000333646MICROWAVE MICRO-POT    0000001000+00003069+00000+0001T   00003069+0000000943          1400 DI6300               2AZ
203616000203616               203616               170213PL     1400+00000+PL0000008589+0000008589+000000000+000001204+0000009790+0000000003+I20000000000+0000009790+Z
203616001203616033-000110     203616006001023171610ELASTIC 10mmx200m CARD 0000002000+00000876+00000+0001T   00000876+0000000946          1400 DI6200               2AZ
203616002203616567-075490     203616009780799376272BK NOVEL ROMANCE AFR   0000001000+00003507+00000+0001T   00003507+0000000946          1400 DI6757               2AZ
203616003203616200-000230     203616006008766126990BAKEPANS 5PC RND 23x3cm0000001000+00002630+00000+0001T   00002630+0000000946          1400 DI6214               2AZ
203616004203616007-000537     203616000651728791017NOTE-PAD RND SMILE-FACE0000001000+00000700+00000+0001T   00000700+0000000946          1400 DI6130               2AZ
203617000203617               203617               170213PL     1400+00000+PL0000004385+0000004385+000000000+000000614+0000004990+0000000009+I20000000000+0000004990+Z
203617001203617368-000049     203617006003000536955PLUSH BEAR 15cm LOVE   0000001000+00004385+00000+0001T   00004385+0000001050          1400 DI6745               2AZ
203618000203618               203618               170213PL     1400+00000+PL0000019782+0000019782+000000000+000002770+0000022552+0000000000+I40000022552+0000000000+Z
203618001203618112-116069     203618006009681820277TCS CARRIER BAG JUMBO  0000001000+00000048+00000+0001T   00000048+0000001056          1400 DI6090               2AZ
203618002203618002-010403     203618006001023203854JAFFLE-IRON ALUM. H/HOU0000001000+00017542+00000+0001T   00017542+0000001056          1400 DI6300               2AZ
203618003203618002-000684     203618006001023693778K/TOOL TURNER H/HOUSE  0000001000+00002192+00000+0001T   00002192+0000001056          1400 DI6300               2AZ
203619000203619               203619               170213PL     1400+00000+PL0000001578+0000001578+000000000+000000221+0000001790+0000000009+I20000000000+0000001790+Z
203619001203619077-000348     203619006001023483287GIFT-BOWS 4,5cm 8PCE   0000001000+00001578+00000+0001T   00001578+0000001057          1400 DI6112               2AZ
203620000203620               203620               170213PL     1400+00000+PL0000003066+0000003066+000000000+000000431+0000003490+0000000007+I20000000000+0000003490+Z
203620001203620264-000921     203620000090159150442MAISTO CAR 3" FRESH    0000001000+00001753+00000+0001T   00001753+0000001119          1400 DI6710               2AZ
203620002203620903-000200     203620006009826020234SWT CHOC RP CHOCO 23G  0000001000+00000788+00000+0001T   00000788+0000001119          1400 DI6150               2AZ
203620003203620903-000155     203620006009803374435SWT LOLLY I LUV U HEART0000001000+00000525+00000+0001T   00000525+0000001119          1400 DI6150               2AZ
203621000203621               203621               170213PL     1400+00000+PL0000041430+0000041430+000000000+000005810+0000047240+0000000000+I40000047240+0000000000+Z
203621001203621369-000821     203621006003000164431BABY SHAPE-SORTER RND  0000001000+00008771+00000+0001T   00008771+0000001135          1400 DI6745               2AZ
203621002203621077-000270     203621006003000395453GIFT-BAG PPR JMB 33X45 0000002000+00002630+00000+0001T   00002630+0000001135          1400 DI6112               2AZ
203621003203621306-000021-C   203621006003000567294EARBUDS 300PCE IN TUB  0000002000+00001753+00000+0001T   00001753+0000001135          1400 DI6200               2AZ
203621004203621203-000006     203621006001023752789COASTER-SET 4PCE       0000001000+00007016+00000+0001T   00008771+0008191135          1400 DI6300               2AZ
203621005203621039-000029     203621006003000286829C/TAPERED 25CM M/PINK  0000006000+00001051+00000+0001T   00001051+0000001135          1400 DI6510               2AZ
203621006203621019-000051     203621006003000457304VASE GLS ASSORTED      0000001000+00006139+00000+0001T   00006139+0000001135          1400 DI6510               2AZ
203621007203621563-000318-G   203621006003000404360SERVIETTES 33cm PINK   0000001000+00002192+00000+0001T   00002192+0000001135          1400 DI6214               2AZ
203621008203621563-000318-L   203621006003000407088SERVIETTES 33cm RED    0000001000+00002192+00000+0001T   00002192+0000001135          1400 DI6214               2AZ
203621009203621112-116069     203621006009681820277TCS CARRIER BAG JUMBO  0000001000+00000048+00000+0001T   00000048+0000001135          1400 DI6090               2AZ
203622000203622               203622               170213PL     1400+00000+PL0000024410+0000024410+000000000+000003422+0000027832+0000000000+I40000027832+0000000000+Z
203622001203622030-004015     203622006003000467624PLAQUE WDN SIGN 30X20CM0000001000+00009648+00000+0001T   00009648+0000001140          1400 DI6505               2AZ
203622002203622112-116038     203622006009681820246TCS CARRIER BAG MIDI   0000001000+00000035+00000+0001T   00000035+0000001140          1400 DI6090               2AZ
203622003203622030-003700     203622006003000416790WALL DEC WDN ASTD WHT  0000003000+00002630+00000+0001T   00002630+0000001140          1400 DI6505               2AZ
203622004203622079-013032-D   203622006003000389643RIBBONS                0000001000+00002630+00000+0001T   00002630+0000001140          1400 DI6130               2AZ
203622005203622362-101402     203622006001023915894H/BAND SET 12PACK ASSTD0000001000+00001753+00000+0001T   00001753+0000001140          1400 DI6160               2AZ
203622006203622903-000519     203622006001704012805SWT MS LIQ-O-GHETTI    0000002000+00001227+00000+0001T   00001227+0000001140          1400 DI6150               2AZ
203623000203623               203623               170213PL     1400+00000+PL0000003069+0000003069+000000000+000000430+0000003499+0000000000+I40000003499+0000000000+Z
203623001203623089-000184     203623006003000577323KEY CHAIN OWL POLY MINI0000001000+00003069+00000+0001T   00003069+0000001141          1400 DI6205               2AZ
203624000203624               203624               170213PL     1400+00000+PL0000001490+0000001490+000000000+000000209+0000001690+0000000009+I20000000000+0000001690+Z
203624001203624039-000108     203624006001023524034TEA-LITE CANDLES 8PCE  0000001000+00001490+00000+0001T   00001490+0000001211          1400 DI6510               2AZ
203625000203625               203625               170213PL     1400+00000+PL0000000035+0000000035+000000000+000000005+0000000040+0000000000+I20000000000+0000000040+Z
203625001203625112-116038     203625006009681820246TCS CARRIER BAG MIDI   0000001000+00000035+00000+0001T   00000035+0000001212          1400 DI6090               2AZ
203626000203626               203626               170213PL     1400+00000+PL0000010552+0000010552+000000000+000001481+0000012033+0000000000+I40000012033+0000000000+Z
203626001203626031-007005     203626006003000465989P/FRM WDN GREY-STRESS  0000001000+00005700+00000+0001T   00005700+0000001247          1400 DI6510               2AZ
203626002203626089-060027     203626006003000245871KEY-CHAIN HEART 6X6cm  0000001000+00003069+00000+0001T   00003069+0000001247          1400 DI6205               2AZ
203626003203626080-000133-A   203626006003000647019MINI VALENTINES CARD   0000001000+00000437+00000+0001T   00000437+0000001247          1400 DI6112               2AZ
203626004203626112-116038     203626006009681820246TCS CARRIER BAG MIDI   0000001000+00000035+00000+0001T   00000035+0000001247          1400 DI6090               2AZ
203626005203626080-000133-A   203626006003000647019MINI VALENTINES CARD   0000003000+00000437+00000+0001T   00000437+0000001247          1400 DI6112               2AZ
203627000203627               203627               170213PL     1400+00000+PL0000003507+0000003507+000000000+000000491+0000003990+0000000008+I20000000000+0000003990+Z
203627001203627087-000102     203627006003000137466HAIR TRIMMER SET       0000001000+00003507+00000+0001T   00003507+0000001248          1400 DI6200               2AZ
203628000203628               203628               170213PL     1400+00000+PL0000003507+0000003507+000000000+000000491+0000003990+0000000008+I20000000000+0000003990+Z
203628001203628018-005009     203628006001023725608MUG W/PLUSH-BEAR LOVE  0000001000+00003507+00000+0001T   00003507+0000001248          1400 DI6515               2AZ
203629000203629               203629               170213PL     1400+00000+PL0000003507+0000003507+000000000+000000491+0000003990+0000000008+I20000000000+0000003990+Z
203629001203629089-000200     203629006003000485840KEY CHAIN POLY LOVE IS 0000001000+00003507+00000+0001T   00004385+0008121259          1400 DI6205               2AZ
203630000203630               203630               170213PL     1400+00000+PL0000008805+0000008805+000000000+000001233+0000010030+0000000008+I20000000000+0000010030+Z
203630001203630082-000105     203630006003000360369READING GLS STRNGHT:1.50000001000+00004385+00000+0001T   00004385+0000001411          1400 DI6160               2AZ
203630002203630031-000001-A   203630006003000246908P/FRAME GLS LOVE 9X13cm0000001000+00004385+00000+0001T   00004385+0000001411          1400 DI6510               2AZ
203630003203630112-116038     203630006009681820246TCS CARRIER BAG MIDI   0000001000+00000035+00000+0001T   00000035+0000001411          1400 DI6090               2AZ
203631000203631               203631               170213PL     1400+00000+PL0000005260+0000005260+000000000+000000737+0000005990+0000000007+I20000000000+0000005990+Z
203631001203631084-009407     203631006001023861726SCISSORS 13cm MTL PL-H 0000001000+00001753+00000+0001T   00001753+0000001431          1400 DI6200               2AZ
203631002203631072-020310     203631006001023701015PET TOY MINI TENNIS BAL0000001000+00003507+00000+0001T   00003507+0000001431          1400 DI6870               2AZ
203632000203632               203632               170213PL     1400+00000+PL0000006400+0000006400+000000000+000000897+0000007290+0000000007+I20000000000+0000007290+Z
203632001203632080-000127     203632006003000424351VALENTINES DAY 36x24CM 0000001000+00002192+00000+0001T   00002192+0000001434          1400 DI6112               2AZ
203632002203632071-003858     203632006001023902276STATIONERY SET PENCIL  0000001000+00002455+00000+0001T   00002455+0000001434          1400 DI6130               2AZ
203632003203632071-000305     203632006001023715340RULER/STENCILS         0000001000+00001753+00000+0001T   00001753+0000001434          1400 DI6130               2AZ
203633000203633               203633               170213PL     1400+00000+PL0000006785+0000006785+000000000+000000952+0000007730+0000000007+I20000000000+0000007730+Z
203633001203633077-000235     203633006003000160211GIFT-RIBBON ROLL METALC0000002000+00002630+00000+0001T   00002630+0000001434          1400 DI6112               2AZ
203633002203633071-000873     203633006001023758743RUB-BANDS CLR BAG-100  0000001000+00001490+00000+0001T   00001490+0000001434          1400 DI6130               2AZ
203633003203633112-116038     203633006009681820246TCS CARRIER BAG MIDI   0000001000+00000035+00000+0001T   00000035+0000001434          1400 DI6090               2AZ
203634000203634               203634               170213PL     1400+00000+PL0000001753+0000001753+000000000+000000246+0000001990+0000000009+I20000000000+0000001990+Z
203634001203634077-000382     203634006003000247820GIFT-BAG MED 18X23CM   0000001000+00001753+00000+0001T   00001753+0000001435          1400 DI6112               2AZ
203635000203635               203635               170213PL     1400+00000+PL0000004821+0000004821+000000000+000000675+0000005490+0000000006+I20000000000+0000005490+Z
203635001203635301-085004     203635006003000420469ORN LOVE PLAQUE 21X10CM0000001000+00003507+00000+0001T   00003946+0006471436          1400 DI6505               2AZ
203635002203635903-000194     203635006009826020616SWT CHOC RP LOLLY 25G  0000001000+00001314+00000+0001T   00001314+0000001436          1400 DI6150               2AZ
203636000203636               203636               170213PL     1400+00000+PL0000000035+0000000035+000000000+000000005+0000000040+0000000000+I20000000000+0000000040+Z
203636001203636112-116038     203636006009681820246TCS CARRIER BAG MIDI   0000001000+00000035+00000+0001T   00000035+0000001436          1400 DI6090               2AZ
203637000203637               203637               170213PL     1400+00000+PL0000015783+0000015783+000000000+000002212+0000017995+0000000000+I40000017995+0000000000+Z
203637001203637056-065303     203637006001023821041SUN-SHIELD 2PCE ANIMAL 0000002000+00002630+00000+0001T   00002630+0000001451          1400 DI6860               2AZ
203637002203637078-000480     203637006008741002332BOSTIK SHOE-REPAIR 25ml0000001000+00001753+00000+0001T   00001753+0000001451          1400 DI6810               2AZ
203637003203637048-000836     203637006001023765208TORCH RUBBER 3LED MED  0000001000+00004385+00000+0001T   00004385+0000001451          1400 DI6305               2AZ
203637004203637048-000700     203637006001023849731HEAD-LAMP 10xLED (3xAAA0000001000+00004385+00000+0001T   00004385+0000001451          1400 DI6305               2AZ
203638000203638               203638               170213PL     1400+00000+PL0000002102+0000002102+000000000+000000295+0000002397+0000000000+I40000002397+0000000000+Z
203638001203638903-000200     203638006009826020234SWT CHOC RP CHOCO 23G  0000001000+00000788+00000+0001T   00000788+0000001501          1400 DI6150               2AZ
203638002203638903-000194     203638006009826020616SWT CHOC RP LOLLY 25G  0000001000+00001314+00000+0001T   00001314+0000001501          1400 DI6150               2AZ
203639000203639               203639               170213PL     1400+00000+PL0000006431+0000006431+000000000+000000903+0000007330+0000000004+I20000000000+0000007330+Z
203639001203639089-000027     203639006003000254071KEY CHAIN MOM/DAD ASSTD0000001000+00001753+00000+0001T   00001753+0000001502          1400 DI6205               2AZ
203639002203639903-000200     203639006009826020234SWT CHOC RP CHOCO 23G  0000002000+00000788+00000+0001T   00000788+0000001502          1400 DI6150               2AZ
203639003203639903-000194     203639006009826020616SWT CHOC RP LOLLY 25G  0000001000+00001314+00000+0001T   00001314+0000001502          1400 DI6150               2AZ
203639004203639369-001138     203639006003000555185VINYL 8.5cm THEMED DUCK0000001000+00001753+00000+0001T   00002630+0008141502          1400 DI6745               2AZ
203639005203639112-116038     203639006009681820246TCS CARRIER BAG MIDI   0000001000+00000035+00000+0001T   00000035+0000001502          1400 DI6090               2AZ
203640000203640               203640               170213PL     1400+00000+PL0000000437+0000000437+000000000+000000062+0000000490+0000000009+I20000000000+0000000490+Z
203640001203640080-000133-A   203640006003000647019MINI VALENTINES CARD   0000001000+00000437+00000+0001T   00000437+0000001503          1400 DI6112               2AZ
203641000203641               203641               170213PL     1400+00000+PL0000002630+0000002630+000000000+000000369+0000002990+0000000009+I20000000000+0000002990+Z
203641001203641027-009025     203641006003962000747DUSTPAN-SET PL         0000001000+00002630+00000+0001T   00002630+0000001506          1400 DI6212               2AZ
203642000203642               203642               170213PL     1400+00000+PL0000003243+0000003243+000000000+000000455+0000003698+0000000000+I40000003698+0000000000+Z
203642001203642018-000128     203642006001023868978MUG OCCASIONS MESSAGES 0000001000+00002630+00000+0001T   00002630+0000001514          1400 DI6515               2AZ
203642002203642903-000848     203642008692806080076SWT SNACK BISCUIT 70g  0000001000+00000613+00000+0001T   00000613+0000001514          1400 DI6150               2AZ
203643000203643               203643               170213PL     1400+00000+PL0000015475+0000015475+000000000+000002169+0000017644+0000000000+I40000017644+0000000000+Z
203643001203643112-116069     203643006009681820277TCS CARRIER BAG JUMBO  0000001000+00000048+00000+0001T   00000048+0000001516          1400 DI6090               2AZ
203643002203643301-085008     203643006003000673933ORN OCC.LOVE TINSEL HRT0000001000+00003069+00000+0001T   00003069+0000001516          1400 DI6505               2AZ
203643003203643266-003012     203643006001023786128BOYS P/SET ARCHERY 4pc 0000001000+00002630+00000+0001T   00002630+0000001516          1400 DI6710               2AZ
203643004203643566-001228     203643006003000284153STICKERS CRYSTAL ASSTD 0000001000+00001753+00000+0001T   00001753+0000001516          1400 DI6130               2AZ
203643005203643006-000223     203643006001023891327PARTY EYE-MASK 6PCE    0000001000+00000876+00000+0001T   00000876+0000001516          1400 DI6131               2AZ
203643006203643362-002467     203643006003000167623HAIR EXT LONG 61cm     0000001000+00003507+00000+0001T   00003507+0000001516          1400 DI6160               2AZ
203643007203643261-000121     203643006001023341600GUN-CAPS 8-SHOT CARD-9 0000002000+00000700+00000+0001T   00000700+0000001516          1400 DI6710               2AZ
203643008203643261-008349     203643006001023787590CAP-GUN 8-SHOT         0000001000+00002192+00000+0001T   00002192+0000001516          1400 DI6710               2AZ
203644000203644               203644               170213PL     1400+00000+PL0000007098+0000007098+000000000+000000995+0000008093+0000000000+I40000008093+0000000000+Z
203644001203644018-000127     203644006001023380289MUG OCC STRAIGHT LOVE  0000001000+00001578+00000+0001T   00001753+0006471520          1400 DI6515               2AZ
203644002203644903-000200     203644006009826020234SWT CHOC RP CHOCO 23G  0000001000+00000788+00000+0001T   00000788+0000001520          1400 DI6150               2AZ
203644003203644903-000194     203644006009826020616SWT CHOC RP LOLLY 25G  0000002000+00001314+00000+0001T   00001314+0000001520          1400 DI6150               2AZ
203644004203644903-000095     203644006001704011495SWT SPECKLED-EGGS 100G 0000001000+00002104+00000+0001T   00002104+0000001520          1400 DI6150               2AZ
203645000203645               203645               170213PL     1400+00000+PL0000000437+0000000437+000000000+000000062+0000000490+0000000009+I20000000000+0000000490+Z
203645001203645083-000049     203645004891035200024CIG-LIGHTER DISPOSABLE 0000001000+00000437+00000+0001T   00000437+0000001521          1400 DI6315               2AZ
203646000203646               203646               170213PL     1400+00000+PL0000002630+0000002630+000000000+000000369+0000002999+0000000000+I40000002999+0000000000+Z
203646001203646368-000100     203646006001023474742PLUSH MD BEAR 12cm     0000001000+00002630+00000+0001T   00002630+0000001527          1400 DI6745               2AZ
203647000203647               203647               170213PL     1400+00000+PL0000002629+0000002629+000000000+000000369+0000002998+0000000000+I40000002998+0000000000+Z
203647001203647077-000289     203647006001023901996GIFT BOX 20x25x11cm    0000001000+00001753+00000+0001T   00001753+0000001529          1400 DI6112               2AZ
203647002203647077-000011-C   203647006001023808523TISSUE 10xSHTS RED     0000001000+00000876+00000+0001T   00000876+0000001529          1400 DI6112               2AZ
203648000203648               203648               170213PL     1400+00000+PL0000001788+0000001788+000000000+000000251+0000002030+0000000009+I20000000000+0000002030+Z
203648001203648077-000309     203648006001023608604GIFT-BAG 25X32CM GLOSS 0000001000+00001753+00000+0001T   00001753+0000001530          1400 DI6112               2AZ
203648002203648112-116038     203648006009681820246TCS CARRIER BAG MIDI   0000001000+00000035+00000+0001T   00000035+0000001530          1400 DI6090               2AZ
203649000203649               203649               170213PL     1400+00000+PL0000004385+0000004385+000000000+000000614+0000004990+0000000009+I20000000000+0000004990+Z
203649001203649001-000175     203649006001023788108B/MUG GLS LOVE 380ML   0000001000+00004385+00000+0001T   00004385+0000001532          1400 DI6515               2AZ
203650000203650               203650               170213PL     1400+00000+PL0000004420+0000004420+000000000+000000619+0000005030+0000000009+I20000000000+0000005030+Z
203650001203650018-030000     203650006003000421060MUG OCCASIONS LOVE 2PCE0000001000+00004385+00000+0001T   00004385+0000001547          1400 DI6515               2AZ
203650002203650112-116038     203650006009681820246TCS CARRIER BAG MIDI   0000001000+00000035+00000+0001T   00000035+0000001547          1400 DI6090               2AZ
203651000203651               203651               170213PL     1400+00000+PL0000006751+0000006751+000000000+000000946+0000007690+0000000007+I20000000000+0000007690+Z
203651001203651077-000311     203651006001023608666GIFT-BAG 11X14CM GLOSS 0000001000+00000613+00000+0001T   00000613+0000001548          1400 DI6112               2AZ
203651002203651040-000200     203651006003000381586C/HLDER CERC INSP. ASST0000002000+00003069+00000+0001T   00003069+0000001548          1400 DI6510               2AZ
203652000203652               203652               170213PL     1400+00000+PL0000003945+0000003945+000000000+000000553+0000004498+0000000000+I40000004498+0000000000+Z
203652001203652566-001228     203652006003000284153STICKERS CRYSTAL ASSTD 0000001000+00001753+00000+0001T   00001753+0000001553          1400 DI6130               2AZ
203652002203652563-000318-L   203652006003000407088SERVIETTES 33cm RED    0000001000+00002192+00000+0001T   00002192+0000001553          1400 DI6214               2AZ
203653000203653               203653               170213PL     1400+00000+PL0000001576+0000001576+000000000+000000222+0000001790+0000000008+I20000000000+0000001790+Z
203653001203653903-000200     203653006009826020234SWT CHOC RP CHOCO 23G  0000002000+00000788+00000+0001T   00000788+0000001554          1400 DI6150               2AZ
203654000203654               203654               170213PL     1400+00000+PL0000003944+0000003944+000000000+000000553+0000004490+0000000007+I20000000000+0000004490+Z
203654001203654031-000860-A   203654006001023798176P/FRAME PL ANTIQUE-BLK 0000001000+00003507+00000+0001T   00003507+0000001556          1400 DI6510               2AZ
203654002203654080-000133-A   203654006003000647019MINI VALENTINES CARD   0000001000+00000437+00000+0001T   00000437+0000001556          1400 DI6112               2AZ
203655000203655               203655               170213PL     1400+00000+PL0000002364+0000002364+000000000+000000333+0000002690+0000000007+I20000000000+0000002690+Z
203655001203655903-000200     203655006009826020234SWT CHOC RP CHOCO 23G  0000003000+00000788+00000+0001T   00000788+0000001556          1400 DI6150               2AZ
203656000203656               203656               170213PL     1400+00000+PL0000006137+0000006137+000000000+000000860+0000006990+0000000007+I20000000000+0000006990+Z
203656001203656365-005267     203656006001023584366P/SET KITCHEN BAKING PL0000001000+00003507+00000+0001T   00003507+0000001557          1400 DI6725               2AZ
203656002203656077-000005-B   203656006003000326617PAPER TISSUE PATTERN   0000001000+00002630+00000+0001T   00002630+0000001557          1400 DI6112               2AZ
203657000203657               203657               170213PL     1400+00000+PL0000005875+0000005875+000000000+000000823+0000006690+0000000008+I20000000000+0000006690+Z
203657001203657301-000009     203657006001023781406ORN POLY MSG IN PVC BOX0000001000+00005262+00000+0001T   00005262+0000001600          1400 DI6505               2AZ
203657002203657077-000311     203657006001023608666GIFT-BAG 11X14CM GLOSS 0000001000+00000613+00000+0001T   00000613+0000001600          1400 DI6112               2AZ
203658000203658               203658               170213PL     1400+00000+PL0000001314+0000001314+000000000+000000184+0000001490+0000000008+I20000000000+0000001490+Z
203658001203658006-000166-D   203658006003000516490BALLOONS LRG 6PC RED   0000001000+00001314+00000+0001T   00001314+0000001602          1400 DI6131               2AZ
203659000203659               203659               170213PL     1400+00000+PL0000025342+0000025342+000000000+000003551+0000028893+0000000000+I40000028893+0000000000+Z
203659001203659018-019000     203659006003000557288MUG OCC. LOVE JUMBO    0000001000+00005262+00000+0001T   00005262+0000001606          1400 DI6515               2AZ
203659002203659903-000200     203659006009826020234SWT CHOC RP CHOCO 23G  0000001000+00000788+00000+0001T   00000788+0000001606          1400 DI6150               2AZ
203659003203659368-000171     203659006003000233250PLUSH BEAR 14cm        0000001000+00005262+00000+0001T   00005262+0000001606          1400 DI6745               2AZ
203659004203659030-000030-C   203659006003000249466PLAQUE GLASS DAD       0000001000+00003069+00000+0001T   00003069+0000001606          1400 DI6505               2AZ
203659005203659031-000859     203659006001023490278P/FRAME COL 3-H 25X50CM0000001000+00008771+00000+0001T   00008771+0000001606          1400 DI6510               2AZ
203659006203659077-000299-A   203659006003000670888GIFT-BAG PAPER JMB LOVE0000001000+00001753+00000+0001T   00001753+0000001606          1400 DI6112               2AZ
203659007203659080-000133-A   203659006003000647019MINI VALENTINES CARD   0000001000+00000437+00000+0001T   00000437+0000001606          1400 DI6112               2AZ
203660000203660               203660               170213PL     1400+00000+PL0000002234+0000002234+000000000+000000314+0000002540+0000000008+I20000000000+0000002540+Z
203660001203660079-000623     203660006001023836274CHALK MARBLE 5PCE      0000001000+00001753+00000+0001T   00001753+0000001614          1400 DI6130               2AZ
203660002203660071-000012     203660006001177101006CHALK COLOUR 12PCE     0000001000+00000481+00000+0001T   00000481+0000001614          1400 DI6130               2AZ
203661000203661               203661               170213PL     1400+00000+PL0000001490+0000001490+000000000+000000209+0000001690+0000000009+I20000000000+0000001690+Z
203661001203661077-000452     203661006003000284986G/BAG METALLIC MED EMB 0000001000+00001490+00000+0001T   00001490+0000001616          1400 DI6112               2AZ
203662000203662               203662               170213PL     1400+00000+PL0000010524+0000010524+000000000+000001474+0000011998+0000000000+I40000011998+0000000000+Z
203662001203662206-000420     203662006003000619504MUG NOVELTY GOLF       0000001000+00008771+00000+0001T   00008771+0000001617          1400 DI6321               2AZ
203662002203662162-083941     203662006001492839417SS HEADBANDS           0000001000+00001753+00000+0001T   00001753+0000001617          1400 DI6160               2AZ
203663000203663               203663               170213PL     1400+00000+PL0000001753+0000001753+000000000+000000246+0000001990+0000000009+I20000000000+0000001990+Z
203663001203663077-000520     203663006001023908254GIFT-BAG 25X32CM       0000001000+00001753+00000+0001T   00001753+0000001619          1400 DI6112               2AZ
203664000203664               203664               170213PL     1400+00000+PL0000010524+0000010524+000000000+000001474+0000011998+0000000000+I40000011998+0000000000+Z
203664001203664304-001116     203664006003000426164F/BUNCH ROSES 12-HEAD  0000002000+00005262+00000+0001T   00005262+0000001621          1400 DI6510               2AZ
203665000203665               203665               170213PL     1400+00000+PL0000009203+0000009203+000000000+000001291+0000010490+0000000004+I20000000000+0000010490+Z
203665001203665077-000382     203665006003000247820GIFT-BAG MED 18X23CM   0000001000+00001753+00000+0001T   00001753+0000001622          1400 DI6112               2AZ
203665002203665365-000072     203665006003000012664PLAY-SET PL B/O MICROPH0000001000+00002630+00000+0001T   00003507+0008191622          1400 DI6725               2AZ
203665003203665263-000340     203665006003000652143VEHICLE JEEP 7.5cm     0000001000+00001314+00000+0001T   00001314+0000001622          1400 DI6710               2AZ
203665004203665077-000299-A   203665006003000670888GIFT-BAG PAPER JMB LOVE0000001000+00001753+00000+0001T   00001753+0000001622          1400 DI6112               2AZ
203665005203665077-000011-X   203665006001023809827TISSUE-WRAP SILVER 10PC0000001000+00001753+00000+0001T   00001753+0000001622          1400 DI6112               2AZ
203666000203666               203666               170213PL     1400+00000+PL0000009647+0000009647+000000000+000001351+0000010998+0000000000+I40000010998+0000000000+Z
203666001203666103-000035     203666006003000577576BASKET WOVEN SQUARE    0000001000+00004385+00000+0001T   00004385+0000001624          1400 DI6300               2AZ
203666002203666565-004004     203666006001023744357NOVELTY INSCT COLLECTOR0000001000+00005262+00000+0001T   00005262+0000001624          1400 DI6745               2AZ
203667000203667               203667               170213PL     1400+00000+PL0000029328+0000029328+000000000+000004112+0000033440+0000000000+I40000033440+0000000000+Z
203667001203667112-116069     203667006009681820277TCS CARRIER BAG JUMBO  0000001000+00000048+00000+0001T   00000048+0000001627          1400 DI6090               2AZ
203667002203667103-000245     203667006003000571550BASKET WOVEN RECT      0000001000+00005262+00000+0001T   00005262+0000001627          1400 DI6300               2AZ
203667003203667304-000720     203667006001023843050F/BUNCH ROSE 6-HEAD AST0000002000+00002630+00000+0001T   00002630+0000001627          1400 DI6510               2AZ
203667004203667077-000245     203667006001023759214GIFT-RIBBON METALLICx2 0000001000+00001227+00000+0001T   00001227+0000001627          1400 DI6112               2AZ
203667005203667903-000095     203667006001704011495SWT SPECKLED-EGGS 100G 0000001000+00002104+00000+0001T   00002104+0000001627          1400 DI6150               2AZ
203667006203667306-000510     203667006001024000469T/BRUSH ADULT CROSS    0000001000+00001227+00000+0001T   00001227+0000001627          1400 DI6200               2AZ
203667007203667903-000123     203667006925925909280SWEET GS MINI MALLOWS  0000001000+00000876+00000+0001T   00000876+0000001627          1400 DI6150               2AZ
203667008203667039-000114     203667006001023524058CANDLE T/LITE RED 3.5CM0000001000+00001753+00000+0001T   00001753+0000001627          1400 DI6510               2AZ
203667009203667903-000844     203667005010478432567SWT CANDY DL LUV HEARTS0000001000+00001314+00000+0001T   00001314+0000001627          1400 DI6150               2AZ
203667010203667076-001001     203667006003000266715CORD STRETCH 2-CL 120cm0000001000+00002630+00000+0001T   00002630+0000001627          1400 DI6810               2AZ
203667011203667077-000010-U   203667006001023168863CREPE-PAPER CERISE-PINK0000001000+00000788+00000+0001T   00000788+0000001627          1400 DI6112               2AZ
203667012203667077-000150-D   203667006003000054343GIFT-WRAP CELLPHANE CLR0000001000+00000876+00000+0001T   00000876+0000001627          1400 DI6112               2AZ
203667013203667018-000127     203667006001023380289MUG OCC STRAIGHT LOVE  0000001000+00001578+00000+0001T   00001753+0006471627          1400 DI6515               2AZ
203667014203667031-080508     203667006001023802415P/FRAME PL 22X11CM LOVE0000001000+00004385+00000+0001T   00004385+0000001627          1400 DI6510               2AZ
203668000203668               203668               170213PL     1400+00000+PL0000014865+0000014865+000000000+000002084+0000016940+0000000009+I20000000000+0000016940+Z
203668001203668112-116069     203668006009681820277TCS CARRIER BAG JUMBO  0000001000+00000048+00000+0001T   00000048+0000001628          1400 DI6090               2AZ
203668002203668365-000071     203668006001023542366PLAY-SET CD PLAYER B/O 0000001000+00006139+00000+0001T   00006139+0000001628          1400 DI6725               2AZ
203668003203668039-000798     203668006001023617774CANDLES TEALITE BOX-50 0000001000+00006139+00000+0001T   00006139+0000001628          1400 DI6510               2AZ
203668004203668903-000194     203668006009826020616SWT CHOC RP LOLLY 25G  0000001000+00001314+00000+0001T   00001314+0000001628          1400 DI6150               2AZ
203668005203668903-000200     203668006009826020234SWT CHOC RP CHOCO 23G  0000001000+00000788+00000+0001T   00000788+0000001628          1400 DI6150               2AZ
203668006203668080-000133-A   203668006003000647019MINI VALENTINES CARD   0000001000+00000437+00000+0001T   00000437+0000001628          1400 DI6112               2AZ
203669000203669               203669               170213PL     1400+00000+PL0000008771+0000008771+000000000+000001228+0000009999+0000000000+I40000009999+0000000000+Z
203669001203669019-000076     203669006001023757159V/GLASS 25CM C/DESIGN  0000001000-00008771+00000+0001T   00008771+0000001631          1400 DI65101IC            2 Z
203669002203669019-000076     203669006001023757159V/GLASS 25CM C/DESIGN  0000002000+00008771+00000+0001T   00008771+0000001631          1400 DI65101IC            2AZ
203670000203670               203670               170213PL     1400+00000+PL0000010571+0000010571+000000000+000001481+0000012052+0000000000+I40000012052+0000000000+Z
203670001203670112-116069     203670006009681820277TCS CARRIER BAG JUMBO  0000001000+00000048+00000+0001T   00000048+0000001632          1400 DI6090               2AZ
203670002203670566-000357     203670006003000582464STICKER ROOM DECOR LAMP0000001000+00003507+00000+0001T   00004385+0008151632          1400 DI6130               2AZ
203670003203670562-006275     203670006001023836182EDU BOARD W/MARKER ASST0000001000+00007016+00000+0001T   00007016+0000001632          1400 DI6755               2AZ
203671000203671               203671               170213PL     1400+00000+PL0000012323+0000012323+000000000+000001726+0000014049+0000000000+I40000014049+0000000000+Z
203671001203671466-001017     203671006003000590544CRICKET-BAT PL W/BALL  0000001000+00003507+00000+0001T   00003507+0000001634          1400 DI6785               2AZ
203671002203671080-000127     203671006003000424351VALENTINES DAY 36x24CM 0000001000+00002192+00000+0001T   00002192+0000001634          1400 DI6112               2AZ
203671003203671039-000635     203671006001023774521CANDLE VTV 4PC WHITE   0000003000+00002192+00000+0001T   00002192+0000001634          1400 DI6510               2AZ
203671004203671112-116069     203671006009681820277TCS CARRIER BAG JUMBO  0000001000+00000048+00000+0001T   00000048+0000001634          1400 DI6090               2AZ
203672000203672               203672               170213PL     1400+00000+PL0000001314+0000001314+000000000+000000184+0000001490+0000000008+I20000000000+0000001490+Z
203672001203672362-000307     203672006003000519750HAIR HEADBAND PRINTED  0000001000+00001314+00000+0001T   00001314+0000001634          1400 DI6160               2AZ
203673000203673               203673               170213PL     1400+00000+PL0000003506+0000003506+000000000+000000492+0000003990+0000000008+I20000000000+0000003990+Z
203673001203673174-000016     203673006003000559107STORAGE SHOE BAG 1PC   0000001000+00001753+00000+0001T   00002192+0008171637          1400 DI6205               2AZ
203673002203673564-000035     203673006003000301836BUBBLE NOVELTY SWORD   0000001000+00001753+00000+0001T   00001753+0000001637          1400 DI6131               2AZ
203674000203674               203674               170213PL     1400+00000+PL0000004385+0000004385+000000000+000000614+0000004990+0000000009+I20000000000+0000004990+Z
203674001203674030-000031-A   203674006003000457588PLAQUE W/WORDS ASSTD   0000001000+00004385+00000+0001T   00004823+0006471638          1400 DI6505               2AZ
203675000203675               203675               170213PL     1400+00000+PL0000003191+0000003191+000000000+000000447+0000003638+0000000000+I40000003638+0000000000+Z
203675001203675018-000127     203675006001023380289MUG OCC STRAIGHT LOVE  0000002000+00001578+00000+0001T   00001753+0006471640          1400 DI6515               2AZ
203675002203675112-116038     203675006009681820246TCS CARRIER BAG MIDI   0000001000+00000035+00000+0001T   00000035+0000001640          1400 DI6090               2AZ
203676000203676               203676               170213PL     1400+00000+PL0000009382+0000009382+000000000+000001315+0000010697+0000000000+I40000010697+0000000000+Z
203676001203676368-000175     203676006003000270316PLUSH BEAR 4 ASSTD 18CM0000001000+00006139+00000+0001T   00006139+0000001641          1400 DI6745               2AZ
203676002203676903-000087     203676006001704000161SWT SPECKLED-EGGS 50G  0000001000+00001139+00000+0001T   00001139+0000001641          1400 DI6150               2AZ
203676003203676903-000095     203676006001704011495SWT SPECKLED-EGGS 100G 0000001000+00002104+00000+0001T   00002104+0000001641          1400 DI6150               2AZ
203677000203677               203677               170213PL     1400+00000+PL0000012660+0000012660+000000000+000001774+0000014434+0000000000+I40000014434+0000000000+Z
203677001203677564-001028     203677006001023708663BUBBLE CELEBRATION 6ml 0000002000+00003069+00000+0001T   00003069+0000001644          1400 DI6131               2AZ
203677002203677564-000025     203677006003000617104BUBBLE NOVELTY         0000001000+00001753+00000+0001T   00001753+0000001644          1400 DI6131               2AZ
203677003203677112-116038     203677006009681820246TCS CARRIER BAG MIDI   0000001000+00000035+00000+0001T   00000035+0000001644          1400 DI6090               2AZ
203677004203677206-000400     203677006003000619269MEAT CLAWS 2PC         0000001000+00003507+00000+0001T   00004385+0008171644          1400 DI6321               2AZ
203677005203677903-000519     203677006001704012805SWT MS LIQ-O-GHETTI    0000001000+00001227+00000+0001T   00001227+0000001644          1400 DI6150               2AZ
203678000203678               203678               170213PL     1400+00000+PL0000006743+0000006743+000000000+000000945+0000007680+0000000008+I20000000000+0000007680+Z
203678001203678077-000354     203678006003000139224GIFT-BAG 25X32CM H/MADE0000001000+00001753+00000+0001T   00001753+0000001645          1400 DI6112               2AZ
203678002203678077-000342     203678006003000273942G/BAG PAPER LRG 25X32CM0000001000+00001490+00000+0001T   00001490+0000001645          1400 DI6112               2AZ
203678003203678903-000070     203678006001704001106SWT TOFFEE CREAMY 35g  0000005000+00000700+00000+0001T   00000700+0000001645          1400 DI6150               2AZ
203679000203679               203679               170213PL     1400+00000+PL0000005998+0000005998+000000000+000000840+0000006838+0000000000+I10000001838+0000005000+Z
203679001203679030-000031-A   203679006003000457588PLAQUE W/WORDS ASSTD   0000001000+00004385+00000+0001T   00004823+0006471648          1400 DI6505               2AZ
203679002203679018-000127     203679006001023380289MUG OCC STRAIGHT LOVE  0000001000+00001578+00000+0001T   00001753+0006471648          1400 DI6515               2AZ
203679003203679112-116038     203679006009681820246TCS CARRIER BAG MIDI   0000001000+00000035+00000+0001T   00000035+0000001648          1400 DI6090               2AZ
203680000203680               203680               170213PL     1400+00000+PL0000008274+0000008274+000000000+000001161+0000009435+0000000000+I40000009435+0000000000+Z
203680001203680112-116038     203680006009681820246TCS CARRIER BAG MIDI   0000001000+00000035+00000+0001T   00000035+0000001655          1400 DI6090               2AZ
203680002203680566-000203     203680006003000443925STCKRS VELVET PUFFY ASS0000001000+00002630+00000+0001T   00002630+0000001655          1400 DI6130               2AZ
203680003203680159-000670     203680006003000577187BATH SPONGE MESH BACK  0000001000+00001753+00000+0001T   00002630+0008131655          1400 DI6200               2AZ
203680004203680362-003008     203680006003000295524HAIR ACCESS SET PVC BOX0000001000+00002192+00000+0001T   00002630+0008191655          1400 DI6160               2AZ
203680005203680566-000200     203680006003000384174STICKER PUFFY NEON     0000001000+00000876+00000+0001T   00000876+0000001655          1400 DI6130               2AZ
203680006203680903-000200     203680006009826020234SWT CHOC RP CHOCO 23G  0000001000+00000788+00000+0001T   00000788+0000001655          1400 DI6150               2AZ
203681000203681               203681               170213PL     1400+00000+PL0000013154+0000013154+000000000+000001843+0000014997+0000000000+I40000014997+0000000000+Z
203681001203681403-000501     203681006003000247677M/BANK PL POSTBOX 20CM 0000001000+00003946+00000+0001T   00003946+0000001702          1400 DI6510               2AZ
203681002203681089-000501     203681006003000622900KEY CHAIN LIGHT LASER  0000001000+00002192+00000+0001T   00002192+0000001702          1400 DI6205               2AZ
203681003203681366-000105     203681006001023866103DRESSUP WINGS AND SKIRT0000001000+00007016+00000+0001T   00007016+0000001702          1400 DI6131               2AZ
203682000203682               203682               170213PL     1400+00000+PL0000002629+0000002629+000000000+000000369+0000002998+0000000000+I40000002998+0000000000+Z
203682001203682080-000127     203682006003000424351VALENTINES DAY 36x24CM 0000001000+00002192+00000+0001T   00002192+0000001705          1400 DI6112               2AZ
203682002203682080-000133     203682006003000535613CARD&ENV MINI ASTD DSGN0000001000+00000437+00000+0001T   00000437+0000001705          1400 DI6112               2AZ
203683000203683               203683               170213PL     1400+00000+PL0000001578+0000001578+000000000+000000221+0000001799+0000000000+I40000001799+0000000000+Z
203683001203683077-000315     203683006003000181186GIFT-BAG 20x28cm MATT  0000001000+00001578+00000+0001T   00001578+0000001707          1400 DI6112               2AZ
A17021300                                          11230715PLSLAVE 2                       DI62IC
B20366900                                          170213PL019-000076     16292586SLAVE 2     DI61IC0000002000+0000001000+0000000000000+
M17021301                              IT          PLATT:IT                                          LAST CASH SLIP ON SLAVE 2 IS                    203683                                          THANX PL
M17021391                              CASH        PLSLAVE 2                       Z-REPORT No.   439TOTAL (Sales - Refunds)           6495.38       CASH TO BE BANKED                 2688.00       DEBIT CARDS                          0.00       CREDIT CARDS                      3807.38       Z-READING                         6495.38       AIRTIME DEBIT CARD SALES             0.00       AIRTIME CARD SALES                   0.00       OVERS/UNDERS                         0.00       AIRTIME CASH SALES                   0.00       GIFT CARDS                           0.00       GIFT CARD CASH SALES                 0.00       T O T A L  CASH PAYOUTS              0.00                                                                                                                                                                                                                                                                                                                                                      Z
M17021392                              CASH        PLABSENT                                                                                                                                                                                          ANNUAL LEAVE                                                                                                                                                                                    DAY OFF                                                                                                                                                                                         COMMENTS                                                                                                                                                                                                                                                                                                                                                                                       Z
Y17021300                                          PL00000000578743+000073
ZPL17021320203 SLAVE 2      SALES DATA                     NEXT INVOICE NO.  203684 0439
X PL Slave 2 First invoice 203611 170213 Last invoice 203683 170213 Next invoice 203684 Total number of records 000000279 clbackup completed 20:20:06
