106630000106630               106630               170213PM     1400+00000+PM0000002630+0000002630+000000000+000000369+0000002990+0000000009+I20000000000+0000002990+Z
106630001106630039-000332     106630006001023900470CANDLES 8PCE+NUMBERS   0000001000+00002630+00000+0001T   00002630+0000000926          1400 HL2510               1AZ
106631000106631               106631               170213PM     1400+00000+PM0000002192+0000002192+000000000+000000307+0000002490+0000000009+I20000000000+0000002490+Z
106631001106631080-000127     106631006003000424351VALENTINES DAY 36x24CM 0000001000+00002192+00000+0001T   00002192+0000000927          1400 HL2112               1AZ
106632000106632               106632               170213PM     1400+00000+PM0000011430+0000011430+000000000+000001602+0000013032+0000000000+I40000013032+0000000000+Z
106632001106632112-116038     106632006009681820246TCS CARRIER BAG MIDI   0000001000+00000035+00000+0001T   00000035+0000000933          1400 HL2090               1AZ
106632002106632018-000136     106632006001023659026MUG OCC LOVE W/PLUSH   0000002000+00003507+00000+0001T   00003507+0000000933          1400 HL2515               1AZ
106632003106632466-008889     106632006001023835376WHISTLE SPORTS+STRING  0000001000+00001753+00000+0001T   00001753+0000000933          1400 HL2785               1AZ
106632004106632903-000155     106632006009803374435SWT LOLLY I LUV U HEART0000002000+00000525+00000+0001T   00000525+0000000933          1400 HL2150               1AZ
106632005106632018-000127     106632006001023380289MUG OCC STRAIGHT LOVE  0000001000+00001578+00000+0001T   00001753+0006470933          1400 HL2515               1AZ
106633000106633               106633               170213PM     1400+00000+PM0000023142+0000023142+000000000+000003246+0000026380+0000000008+I20000000000+0000026380+Z
106633001106633002-000654     106633006003000172238M/SPOONS PLASTIC 3PC   0000001000+00002630+00000+0001T   00002630+0000001036          1400 HL2300               1AZ
106633002106633565-000045     106633006003000295890NOVELTY HEADS 8PCE     0000001000+00002630+00000+0001T   00002630+0000001036          1400 HL2745               1AZ
106633003106633566-000506     106633006001023671455TATTOO BODY STICKER    0000001000+00001578+00000+0001T   00001578+0000001036          1400 HL2130               1AZ
106633004106633566-000200     106633006003000384174STICKER PUFFY NEON     0000001000+00000876+00000+0001T   00000876+0000001036          1400 HL2130               1AZ
106633005106633002-000905     106633006003000657933CAN-OPENER JAR GRIP    0000001000+00001753+00000+0001T   00001753+0000001036          1400 HL2300               1AZ
106633006106633106-003130     106633006001023625755ICE CUBE TRAY 21-CUBE  0000001000+00002192+00000+0001T   00002192+0000001036          1400 HL2210               1AZ
106633007106633106-003112     106633006003000593460ICE CUBE TRAY 25X12X3CM0000001000+00002630+00000+0001T   00002630+0000001036          1400 HL2210               1AZ
106633008106633565-000040     106633006008766115635NOVELTY ICON BEANIE    0000001000+00002630+00000+0001T   00002630+0000001036          1400 HL2745               1AZ
106633009106633024-091102-A   106633006003000328314BAKING-CUP CUPCAKE 75PC0000001000+00001753+00000+0001T   00001753+0000001036          1400 HL2300               1AZ
106633010106633565-004101     106633006003000548033BALL BOUNCING EGG      0000003000+00001490+00000+0001T   00001490+0000001036          1400 HL2745               1AZ
106634000106634               106634               170213PM     1400+00000+PM0000010520+0000010520+000000000+000001475+0000011990+0000000005+I20000000000+0000011990+Z
106634001106634304-001169     106634006003000523894FLOWER FLOATING 28CM   0000001000+00005262+00000+0001T   00005262+0000001040          1400 HL2510               1AZ
106634002106634304-001142     106634006003000679256FLWR MINI SUCCULENT 7CM0000002000+00001490+00000+0001T   00001490+0000001040          1400 HL2510               1AZ
106634003106634304-001141     106634006003000679133FLOWER MINI SUCCULENT  0000002000+00001139+00000+0001T   00001139+0000001040          1400 HL2510               1AZ
106635000106635               106635               170213PM     1400+00000+PM0000007016+0000007016+000000000+000000983+0000007999+0000000000+I40000007999+0000000000+Z
106635001106635079-000335     106635006003000670550THERAPY P/CRAYONS 30   0000001000+00007016+00000+0001T   00007016+0000001113          1400 HL2130               1AZ
106636000106636               106636               170213PM     1400+00000+PM0000010169+0000010169+000000000+000001426+0000011595+0000000000+I40000011595+0000000000+Z
106636001106636494-056268     106636000078257562688INTEX TUBE 114cm TRUCK 0000001000-00010525+00000+0001T   00010525+0000001138          1400 HL27872IC            1 Z
106636002106636368-000171     106636006003000233250PLUSH BEAR 14cm        0000001000+00005262+00000+0001T   00005262+0000001138          1400 HL2745               1AZ
106636003106636024-000195     106636006003000396498KIDDIES B/WARE ACC 2PC 0000001000+00006139+00000+0001T   00006139+0000001138          1400 HL2300               1AZ
106636004106636051-600706     106636006003000604197S/GARDEN LIGHT 35cm PL 0000003000+00002367+00000+0001T   00002630+0008191138          1400 HL2820               1AZ
106636005106636565-000080     106636006003000643424NOVELTY BENDY          0000001000+00002192+00000+0001T   00002192+0000001138          1400 HL2745               1AZ
106637000106637               106637               170213PM     1400+00000+PM0000002192+0000002192+000000000+000000307+0000002490+0000000009+I20000000000+0000002490+Z
106637001106637080-000127     106637006003000424351VALENTINES DAY 36x24CM 0000001000+00002192+00000+0001T   00002192+0000001138          1400 HL2112               1AZ
106638000106638               106638               170213PM     1400+00000+PM0000007051+0000007051+000000000+000000988+0000008039+0000000000+I40000008039+0000000000+Z
106638001106638031-007001     106638006003000462599P/FRAME WDN DISTRESSED 0000001000+00007016+00000+0001T   00007016+0000001213          1400 HL2510               1AZ
106638002106638112-116038     106638006009681820246TCS CARRIER BAG MIDI   0000001000+00000035+00000+0001T   00000035+0000001213          1400 HL2090               1AZ
106639000106639               106639               170213PM     1400+00000+PM0000003069+0000003069+000000000+000000430+0000003490+0000000009+I20000000000+0000003490+Z
106639001106639089-060027     106639006003000245871KEY-CHAIN HEART 6X6cm  0000001000+00003069+00000+0001T   00003069+0000001214          1400 HL2205               1AZ
106640000106640               106640               170213PM     1400+00000+PM0000011337+0000011337+000000000+000001589+0000012920+0000000006+I20000000000+0000012920+Z
106640001106640903-000200     106640006009826020234SWT CHOC RP CHOCO 23G  0000002000+00000788+00000+0001T   00000788+0000001331          1400 HL2150               1AZ
106640002106640112-116038     106640006009681820246TCS CARRIER BAG MIDI   0000001000+00000035+00000+0001T   00000035+0000001331          1400 HL2090               1AZ
106640003106640006-000166-D   106640006003000516490BALLOONS LRG 6PC RED   0000001000+00001314+00000+0001T   00001314+0000001331          1400 HL2131               1AZ
106640004106640006-000166-H   106640006003000608096BALLOONS HELIUM 6PC WHT0000002000+00001314+00000+0001T   00001314+0000001331          1400 HL2131               1AZ
106640005106640006-000166-D   106640006003000516490BALLOONS LRG 6PC RED   0000002000+00001314+00000+0001T   00001314+0000001331          1400 HL2131               1AZ
106640006106640018-000127     106640006001023380289MUG OCC STRAIGHT LOVE  0000002000+00001578+00000+0001T   00001753+0006471331          1400 HL2515               1AZ
106641000106641               106641               170213PM     1400+00000+PM0000003100+0000003100+000000000+000000436+0000003530+0000000006+I20000000000+0000003530+Z
106641001106641077-000150-D   106641006003000054343GIFT-WRAP CELLPHANE CLR0000001000+00000876+00000+0001T   00000876+0000001430          1400 HL2112               1AZ
106641002106641566-000200     106641006003000384174STICKER PUFFY NEON     0000001000+00000876+00000+0001T   00000876+0000001430          1400 HL2130               1AZ
106641003106641080-000133-A   106641006003000647019MINI VALENTINES CARD   0000001000+00000437+00000+0001T   00000437+0000001430          1400 HL2112               1AZ
106641004106641077-000011-L   106641006001023808585P/TISSUE BRIGHT 10SHEET0000001000+00000876+00000+0001T   00000876+0000001430          1400 HL2112               1AZ
106641005106641112-116038     106641006009681820246TCS CARRIER BAG MIDI   0000001000+00000035+00000+0001T   00000035+0000001430          1400 HL2090               1AZ
106642000106642               106642               170213PM     1400+00000+PM0000002630+0000002630+000000000+000000369+0000002999+0000000000+I40000002999+0000000000+Z
106642001106642105-006005     106642006003000666195CANNISTER PL 600ml     0000001000+00002630+00000+0001T   00002630+0000001431          1400 HL2210               1AZ
106643000106643               106643               170213PM     1400+00000+PM0000004385+0000004385+000000000+000000614+0000004990+0000000009+I20000000000+0000004990+Z
106643001106643206-000160     106643006003000628780CORN KERNELER          0000001000+00004385+00000+0001T   00004385+0000001431          1400 HL2321               1AZ
106644000106644               106644               170213PM     1400+00000+PM0000025216+0000025216+000000000+000003532+0000028748+0000000000+I40000028748+0000000000+Z
106644001106644077-000452     106644006003000284986G/BAG METALLIC MED EMB 0000001000+00001490+00000+0001T   00001490+0000001434          1400 HL2112               1AZ
106644002106644033-000603     106644006003000365456HAIR BRUSH 23CM VENT   0000001000+00003507+00000+0001T   00003507+0000001434          1400 HL2200               1AZ
106644003106644112-116069     106644006009681820277TCS CARRIER BAG JUMBO  0000001000+00000048+00000+0001T   00000048+0000001434          1400 HL2090               1AZ
106644004106644361-003015     106644006003000543168DOLLS 14CM MERMAIDS 4PC0000002000+00005262+00000+0001T   00005262+0000001434          1400 HL2725               1AZ
106644005106644077-000011-C   106644006001023808523TISSUE 10xSHTS RED     0000001000+00000876+00000+0001T   00000876+0000001434          1400 HL2112               1AZ
106644006106644039-000799     106644006001023692382CANDLES TEALITE 100PCE 0000001000+00008771+00000+0001T   00008771+0000001434          1400 HL2510               1AZ
106645000106645               106645               170213PM     1400+00000+PM0000016957+0000016957+000000000+000002377+0000019334+0000000000+I40000019334+0000000000+Z
106645001106645368-000104     106645006001023751348PLUSH BEAR RUFFLED-LOOK0000001000+00006139+00000+0001T   00006139+0000001510          1400 HL2745               1AZ
106645002106645368-000265     106645006001023750914PLUSH BEAR 23CM ASSTD C0000001000+00006139+00000+0001T   00006139+0000001510          1400 HL2745               1AZ
106645003106645077-000303     106645006001023593757GIFT-BAG PAPER MED     0000001000+00001578+00000+0001T   00001578+0000001510          1400 HL2112               1AZ
106645004106645077-000452     106645006003000284986G/BAG METALLIC MED EMB 0000001000+00001490+00000+0001T   00001490+0000001510          1400 HL2112               1AZ
106645005106645112-116038     106645006009681820246TCS CARRIER BAG MIDI   0000001000+00000035+00000+0001T   00000035+0000001510          1400 HL2090               1AZ
106645006106645903-000892     106645008693029700420SWT NOVELTY CHOCO CREAM0000002000+00000788+00000+0001T   00000788+0000001510          1400 HL2150               1AZ
106646000106646               106646               170213PM     1400+00000+PM0000011904+0000011904+000000000+000001672+0000013576+0000000000+I40000013576+0000000000+Z
106646001106646903-000120     106646006002099001665SWEET GS ZILLIONS 50g  0000008000+00000700+00000+0001T   00000700+0000001512          1400 HL2150               1AZ
106646002106646903-000200     106646006009826020234SWT CHOC RP CHOCO 23G  0000008000+00000788+00000+0001T   00000788+0000001512          1400 HL2150               1AZ
106647000106647               106647               170213PM     1400+00000+PM0000001576+0000001576+000000000+000000222+0000001790+0000000008+I20000000000+0000001790+Z
106647001106647903-000895     106647006009680772256SWT MINI BOTZ S/BERRY  0000002000+00000788+00000+0001T   00000788+0000001513          1400 HL2150               1AZ
106648000106648               106648               170213PM     1400+00000+PM0000009114+0000009114+000000000+000001276+0000010390+0000000000+I20000000000+0000010390+Z
106648001106648562-000011     106648006003000600984PLAY DOUGH NEON TUBE   0000001000+00003507+00000+0001T   00003507+0000001516          1400 HL2755               1AZ
106648002106648562-000021     106648006001023800367PLAY DOUGH SET 3 ASSTD 0000001000+00003507+00000+0001T   00003507+0000001516          1400 HL2755               1AZ
106648003106648261-000121     106648006001023341600GUN-CAPS 8-SHOT CARD-9 0000003000+00000700+00000+0001T   00000700+0000001516          1400 HL2710               1AZ
106649000106649               106649               170213PM     1400+00000+PM0000009384-0000009384-000000000+000001314-0000010700-0000000002+I20000000000+0000010700-Z
106649001106649001-999906     106649000000000999906STATIONERY(PHOTOCOPIES)0000001000-00009384+00000+0001T   00000000+0000001648          1400 HL29062IC            1 Z
106650000106650               106650               170213PM     1400+00000+PM0000005611-0000005611-000000000+000000786-0000006400-0000000003+I20000000000+0000006400-Z
106650001106650001-999907     106650000000000999907CLEANING-MATERIALS     0000001000-00005611+00000+0001T   00000000+0000001648          1400 HL29072IC            1 Z
106651000106651               106651               170213PM     1400+00000+PM0000002488+0000002488+000000000+000000349+0000002837+0000000000+I40000002837+0000000000+Z
106651001106651903-000087     106651006001704000161SWT SPECKLED-EGGS 50G  0000001000+00001139+00000+0001T   00001139+0000001713          1400 HL2150               1AZ
106651002106651006-000167-F   106651006003000517411BALLOONS SILV METALLIC 0000001000+00001314+00000+0001T   00001314+0000001713          1400 HL2131               1AZ
106651003106651112-116038     106651006009681820246TCS CARRIER BAG MIDI   0000001000+00000035+00000+0001T   00000035+0000001713          1400 HL2090               1AZ
106652000106652               106652               170213PM     1400+00000+PM0000010524+0000010524+000000000+000001474+0000011998+0000000000+I40000011998+0000000000+Z
106652001106652077-000150-D   106652006003000054343GIFT-WRAP CELLPHANE CLR0000001000+00000876+00000+0001T   00000876+0000001716          1400 HL2112               1AZ
106652002106652024-000107     106652006001023422071MUFFIN-PAN 12-CUP      0000001000+00009648+00000+0001T   00009648+0000001716          1400 HL2300               1AZ
106653000106653               106653               170213PM     1400+00000+PM0000000876+0000000876+000000000+000000123+0000000990+0000000009+I20000000000+0000000990+Z
106653001106653366-002681     106653006003000653744DRESS UP HAT FIRE CHIEF0000001000+00000876+00000+0001T   00000876+0000001720          1400 HL2131               1AZ
106654000106654               106654               170213PM     1400+00000+PM0000054588+0000054588+000000000+000007649+0000062237+0000000000+I40000062237+0000000000+Z
106654001106654112-116069     106654006009681820277TCS CARRIER BAG JUMBO  0000001000+00000048+00000+0001T   00000048+0000001730          1400 HL2090               1AZ
106654002106654200-000062     106654006003000519514STRAWS DRINKING PL 4PC 0000002000+00001490+00000+0001T   00001490+0000001730          1400 HL2214               1AZ
106654003106654024-000175     106654006003000120765SILICONE C/PAN 12-CUPS 0000001000+00010525+00000+0001T   00010525+0000001730          1400 HL2300               1AZ
106654004106654562-000052     106654006003000112333EDU EXCAVATION DIAMOND 0000001000+00003507+00000+0001T   00003507+0000001730          1400 HL2755               1AZ
106654005106654362-003000     106654006003000295258GIRL HEART NOTEBOOK    0000001000+00001753+00000+0001T   00002630+0008191730          1400 HL2160               1AZ
106654006106654464-000120     106654006003000531479PLAYING-CARDS MAGIC TRI0000001000+00001753+00000+0001T   00001753+0000001730          1400 HL2785               1AZ
106654007106654039-000794     106654006946859289958CANDLE T/LITE 3PC LED  0000005000+00004385+00000+0001T   00004385+0000001730          1400 HL2510               1AZ
106654008106654464-000114     106654006003000027057DICE 16MM CARD-OF-6    0000002000+00001753+00000+0001T   00001753+0000001730          1400 HL2785               1AZ
106654009106654079-013099     106654006003000081875ART+CRAFT EYES ASSTD   0000001000+00001753+00000+0001T   00001753+0000001730          1400 HL2130               1AZ
106654010106654903-000200     106654006009826020234SWT CHOC RP CHOCO 23G  0000002000+00000788+00000+0001T   00000788+0000001730          1400 HL2150               1AZ
106654011106654565-004004     106654006001023744357NOVELTY INSCT COLLECTOR0000001000+00005262+00000+0001T   00005262+0000001730          1400 HL2745               1AZ
106655000106655               106655               170213PM     1400+00000+PM0000004242+0000004242+000000000+000000594+0000004830+0000000006+I20000000000+0000004830+Z
106655001106655104-000095     106655006003000614714BASKET PL 23x15x12cm   0000001000+00003507+00000+0001T   00003507+0000001731          1400 HL2210               1AZ
106655002106655564-000012     106655006001023130075BUBBLE BOTTLE MAGIC    0000001000+00000700+00000+0001T   00000700+0000001731          1400 HL2131               1AZ
106655003106655112-116038     106655006009681820246TCS CARRIER BAG MIDI   0000001000+00000035+00000+0001T   00000035+0000001731          1400 HL2090               1AZ
106656000106656               106656               170213PM     1400+00000+PM0000015081+0000015081+000000000+000002112+0000017193+0000000000+I40000017193+0000000000+Z
106656001106656018-000136     106656006001023659026MUG OCC LOVE W/PLUSH   0000001000+00003507+00000+0001T   00003507+0000001744          1400 HL2515               1AZ
106656002106656080-000127     106656006003000424351VALENTINES DAY 36x24CM 0000001000+00002192+00000+0001T   00002192+0000001744          1400 HL2112               1AZ
106656003106656301-085004     106656006003000420469ORN LOVE PLAQUE 21X10CM0000001000+00003507+00000+0001T   00003946+0006471744          1400 HL2505               1AZ
106656004106656006-000190     106656006003000685530BALLOONS LOVE 81x91cm  0000001000+00004385+00000+0001T   00004385+0000001744          1400 HL2131               1AZ
106656005106656077-000299     106656006003000395576G/BAG 32x25cm LRG LOVE 0000001000+00001490+00000+0001T   00001490+0000001744          1400 HL2112               1AZ
106657000106657               106657               170213PM     1400+00000+PM0000000876+0000000876+000000000+000000123+0000000990+0000000009+I20000000000+0000000990+Z
106657001106657077-000011-C   106657006001023808523TISSUE 10xSHTS RED     0000001000+00000876+00000+0001T   00000876+0000001744          1400 HL2112               1AZ
106658000106658               106658               170213PM     1400+00000+PM0000016967+0000016967+000000000+000002379+0000019346+0000000000+I40000019346+0000000000+Z
106658001106658112-116069     106658006009681820277TCS CARRIER BAG JUMBO  0000001000+00000048+00000+0001T   00000048+0000001747          1400 HL2090               1AZ
106658002106658079-001002     106658006003000448715CANVAS A4 WOOD MOUNTED 0000001000+00002630+00000+0001T   00002630+0000001747          1400 HL2130               1AZ
106658003106658077-000011-C   106658006001023808523TISSUE 10xSHTS RED     0000001000+00000876+00000+0001T   00000876+0000001747          1400 HL2112               1AZ
106658004106658039-000798     106658006001023617774CANDLES TEALITE BOX-50 0000001000+00006139+00000+0001T   00006139+0000001747          1400 HL2510               1AZ
106658005106658306-000021-A   106658006001023891358EARBUDS COTTON 100PCE  0000001000+00000876+00000+0001T   00000876+0000001747          1400 HL2200               1AZ
106658006106658046-000012-A   106658006003000208296BATTERIES H/POWER SZ:AA0000001000+00002192+00000+0001T   00002192+0000001747          1400 HL2312               1AZ
106658007106658039-000027     106658006003000286546C/TAPERED 25CM M/ORANGE0000002000+00000876+00000+0001T   00000876+0000001747          1400 HL2510               1AZ
106658008106658040-000213     106658006001023617736CANDLE-HOLDER DAISY    0000002000+00001227+00000+0001T   00001227+0000001747          1400 HL2510               1AZ
106659000106659               106659               170213PM     1400+00000+PM0000024858+0000024858+000000000+000003486+0000028344+0000000000+I40000028344+0000000000+Z
106659001106659080-000127     106659006003000424351VALENTINES DAY 36x24CM 0000001000+00002192+00000+0001T   00002192+0000001750          1400 HL2112               1AZ
106659002106659112-116069     106659006009681820277TCS CARRIER BAG JUMBO  0000001000+00000048+00000+0001T   00000048+0000001750          1400 HL2090               1AZ
106659003106659007-000302     106659006009635830000BOOK H/COVER A4 96-PAGE0000001000+00001139+00000+0001T   00001139+0000001750          1400 HL2130               1AZ
106659004106659006-000190     106659006003000685530BALLOONS LOVE 81x91cm  0000001000+00004385+00000+0001T   00004385+0000001750          1400 HL2131               1AZ
106659005106659368-000104     106659006001023751348PLUSH BEAR RUFFLED-LOOK0000001000+00006139+00000+0001T   00006139+0000001750          1400 HL2745               1AZ
106659006106659048-000859     106659006003000423422TORCH 9 LED PL 3XAAA   0000003000+00001753+00000+0001T   00001753+0000001750          1400 HL2305               1AZ
106659007106659003-000032     106659006001023478504ORN ANIMAL SQUIRREL CER0000001000+00004385+00000+0001T   00004385+0000001750          1400 HL2505               1AZ
106659008106659080-000133     106659006003000535613CARD&ENV MINI ASTD DSGN0000001000+00000437+00000+0001T   00000437+0000001750          1400 HL2112               1AZ
106659009106659080-000133-A   106659006003000647019MINI VALENTINES CARD   0000002000+00000437+00000+0001T   00000437+0000001750          1400 HL2112               1AZ
106660000106660               106660               170213PM     1400+00000+PM0000001753+0000001753+000000000+000000246+0000001990+0000000009+I20000000000+0000001990+Z
106660001106660046-000014-A   106660004897006177708BATTERIES SIZE:AAA 8PCE0000001000+00001753+00000+0001T   00001753+0000001751          1400 HL2312               1AZ
106661000106661               106661               170213PM     1400+00000+PM0000005085+0000005085+000000000+000000712+0000005797+0000000000+I40000005797+0000000000+Z
106661001106661018-000130     106661006001023867537MUG OCC LOVE MINI+HEART0000001000+00003507+00000+0001T   00003507+0000001752          1400 HL2515               1AZ
106661002106661077-000303     106661006001023593757GIFT-BAG PAPER MED     0000001000+00001578+00000+0001T   00001578+0000001752          1400 HL2112               1AZ
106662000106662               106662               170213PM     1400+00000+PM0000001489+0000001489+000000000+000000209+0000001690+0000000008+I20000000000+0000001690+Z
106662001106662077-000011-C   106662006001023808523TISSUE 10xSHTS RED     0000001000+00000876+00000+0001T   00000876+0000001753          1400 HL2112               1AZ
106662002106662903-000849     106662008692806080083SWT SNACK BISCUIT 70g  0000001000+00000613+00000+0001T   00000613+0000001753          1400 HL2150               1AZ
106663000106663               106663               170213PM     1400+00000+PM0000000437+0000000437+000000000+000000062+0000000490+0000000009+I20000000000+0000000490+Z
106663001106663080-000133-A   106663006003000647019MINI VALENTINES CARD   0000001000+00000437+00000+0001T   00000437+0000001755          1400 HL2112               1AZ
106664000106664               106664               170213PM     1400+00000+PM0000003329+0000003329+000000000+000000468+0000003790+0000000007+I20000000000+0000003790+Z
106664001106664077-000290     106664006001023902023GIFT BOX 26x32x13cm    0000001000+00001753+00000+0001T   00001753+0000001755          1400 HL2112               1AZ
106664002106664903-000200     106664006009826020234SWT CHOC RP CHOCO 23G  0000002000+00000788+00000+0001T   00000788+0000001755          1400 HL2150               1AZ
106665000106665               106665               170213PM     1400+00000+PM0000000876+0000000876+000000000+000000123+0000000990+0000000009+I20000000000+0000000990+Z
106665001106665078-000025     106665008887013700064SUPERGLUE 3g 1PCE CARD 0000001000+00000876+00000+0001T   00000876+0000001758          1400 HL2810               1AZ
106666000106666               106666               170213PM     1400+00000+PM0000008768+0000008768+000000000+000001229+0000009990+0000000007+I20000000000+0000009990+Z
106666001106666301-085003     106666006003000420827ORN OCCASION LOVE KEY  0000001000+00005262+00000+0001T   00005262+0000001759          1400 HL2505               1AZ
106666002106666080-000113     106666006003000237449CARD&ENVLPE - LOVE     0000001000+00001753+00000+0001T   00001753+0000001759          1400 HL2112               1AZ
106666003106666903-000610     106666006003000610518SWEET JUMBO BUBBLE GUM 0000001000+00001753+00000+0001T   00001753+0000001759          1400 HL2150               1AZ
106667000106667               106667               170213PM     1400+00000+PM0000002225+0000002225+000000000+000000313+0000002530+0000000008+I20000000000+0000002530+Z
106667001106667016-006509     106667006003000567355S/JAR GLS MINI LABEL   0000001000+00001753+00000+0001T   00002192+0008191800          1400 HL2300               1AZ
106667002106667071-000212     106667006009608641190CHALK WHITE 12PCE      0000001000+00000437+00000+0001T   00000437+0000001800          1400 HL2130               1AZ
106667003106667112-116038     106667006009681820246TCS CARRIER BAG MIDI   0000001000+00000035+00000+0001T   00000035+0000001800          1400 HL2090               1AZ
106668000106668               106668               170213PM     1400+00000+PM0000014062+0000014062+000000000+000001972+0000016034+0000000000+I40000016034+0000000000+Z
106668001106668368-000184     106668006003000668298PLUSH LAMB 23cm        0000001000+00006139+00000+0001T   00006139+0000001802          1400 HL2745               1AZ
106668002106668112-116038     106668006009681820246TCS CARRIER BAG MIDI   0000001000+00000035+00000+0001T   00000035+0000001802          1400 HL2090               1AZ
106668003106668903-000926     106668006914204004556SWT NOVELTY ST N/LACE  0000003000+00001753+00000+0001T   00001753+0000001802          1400 HL2150               1AZ
106668004106668077-000115     106668006001023834225WRAP METALLIC 700mmx1m 0000001000+00001753+00000+0001T   00001753+0000001802          1400 HL2112               1AZ
106668005106668071-005213     106668006001023690371CELLOTAPE 12mmx33m     0000001000+00000876+00000+0001T   00000876+0000001802          1400 HL2130               1AZ
M17021391                              CASH        PMSLAVE 1                       Z-REPORT No.   449TOTAL (Sales - Refunds)           3808.38       CASH TO BE BANKED                  946.30       DEBIT CARDS                          0.00       CREDIT CARDS                      2691.08       Z-READING                         3637.38       AIRTIME DEBIT CARD SALES             0.00       AIRTIME CARD SALES                   0.00       OVERS/UNDERS                         0.00       AIRTIME CASH SALES                   0.00       GIFT CARDS                           0.00       GIFT CARD CASH SALES                 0.00       STATIONERY(PHOTOCOPIES)            106.98       CLEANING-MATERIALS                  63.97       ROUNDING                             0.05       T O T A L  CASH PAYOUTS            171.00                                                                                                                                                                                                      Z
M17021392                              CASH        PMABSENT                                                                                                                                                                                          ANNUAL LEAVE                                                                                                                                                                                    DAY OFF                                                                                                                                                                                         COMMENTS                                                                                                                                                                                                                                                                                                                                                                                       Z
Y17021300                                          PM00000000344679+000037
ZPM17021406163 SLAVE 1      SALES DATA                     NEXT INVOICE NO.  106669 0449
X PM Slave 1 First invoice 106630 170213 Last invoice 106668 170213 Next invoice 106669 Total number of records 000000169 clbackup completed 06:16:02
