206647000206647               206647               170213PM     1400+00000+PM0000072473+0000072473+000000000+000010155+0000082628+0000000000+I40000082628+0000000000+Z
206647001206647112-116069     206647006009681820277TCS CARRIER BAG JUMBO  0000001000+00000048+00000+0001T   00000048+0000001013          1400 CM8090               2AZ
206647002206647065-000239     206647006001023400956DRUM "BUM BUM BAND"19cm0000001000+00003507+00000+0001T   00003507+0000001013          1400 CM8745               2AZ
206647003206647065-003701     206647006001023712912MUSICAL SAXOPHONE      0000001000+00004385+00000+0001T   00004385+0000001013          1400 CM8745               2AZ
206647004206647369-001017     206647006001023698544VINYL PIRATE DUCK SET  0000001000+00003507+00000+0001T   00003507+0000001013          1400 CM8745               2AZ
206647005206647079-013101     206647006001023863706CRAFT SET DIY PIPE-CLNR0000001000+00002630+00000+0001T   00002630+0000001013          1400 CM8130               2AZ
206647006206647466-001801     206647006001023343482BALLS TABLE-TENNIS BOX60000002000+00001490+00000+0001T   00001490+0000001013          1400 CM8785               2AZ
206647007206647362-002464     206647006003000167388HAIR EXT 30cm 6PCS COL 0000001000+00001753+00000+0001T   00001753+0000001013          1400 CM8160               2AZ
206647008206647266-001029     206647006003000656912BOYS PLAYSET SWORD 45cm0000001000+00003507+00000+0001T   00003507+0000001013          1400 CM8710               2AZ
206647009206647266-003016     206647006003000600083BOYS P/SET VIKING SWORD0000001000+00014034+00000+0001T   00014034+0000001013          1400 CM8710               2AZ
206647010206647079-130010     206647006003000496624ART+CRAFT FOAM DOLLS   0000001000+00004385+00000+0001T   00004385+0000001013          1400 CM8130               2AZ
206647011206647065-006042     206647006001023712998MARACAS 2PCE CHA-CHA   0000001000+00001753+00000+0001T   00001753+0000001013          1400 CM8745               2AZ
206647012206647366-007916     206647006001023419309MASK PL CHARACTER ASS  0000001000+00000876+00000+0001T   00000876+0000001013          1400 CM8131               2AZ
206647013206647361-003013     206647006003000166589DOLL 6.5CM FAIRY KITE  0000001000+00002192+00000+0001T   00002192+0000001013          1400 CM8725               2AZ
206647014206647038-001803     206647006001023766588DOILIES 17cm RND 18PC  0000001000+00001753+00000+0001T   00001753+0000001013          1400 CM8300               2AZ
206647015206647140-006008     206647006001023803214FLY-SWATTERS   SET-OF-40000001000+00002630+00000+0001T   00002630+0000001013          1400 CM8830               2AZ
206647016206647072-020314     206647006003000605453PET TOY PUP VINYL CHICK0000001000+00003069+00000+0001T   00003069+0000001013          1400 CM8870               2AZ
206647017206647079-013099     206647006003000081875ART+CRAFT EYES ASSTD   0000001000+00001753+00000+0001T   00001753+0000001013          1400 CM8130               2AZ
206647018206647027-000917     206647006001023367433DUSTPAN-SET MINI 21x16 0000001000+00001753+00000+0001T   00001753+0000001013          1400 CM8212               2AZ
206647019206647565-004013     206647006003000574933NOVELTY CAMERA 3 ASTD  0000001000+00002630+00000+0001T   00002630+0000001013          1400 CM8745               2AZ
206647020206647466-001801     206647006001023343482BALLS TABLE-TENNIS BOX60000001000+00001490+00000+0001T   00001490+0000001013          1400 CM8785               2AZ
206647021206647565-000876     206647006003000305759NOVELTY FUNKY SUNGLASS 0000001000+00003507+00000+0001T   00003507+0000001013          1400 CM8745               2AZ
206647022206647403-000501     206647006003000247677M/BANK PL POSTBOX 20CM 0000001000+00003946+00000+0001T   00003946+0000001013          1400 CM8510               2AZ
206647023206647003-008020     206647006001023762214ORN GNOME HANGING 17CM 0000001000+00004385+00000+0001T   00004385+0000001013          1400 CM8505               2AZ
206648000206648               206648               170213PM     1400+00000+PM0000018285+0000018285+000000000+000002562+0000020847+0000000000+I40000020847+0000000000+Z
206648001206648065-006040     206648006003000118984BELL WDN HANDLE 19cm   0000001000+00003507+00000+0001T   00003507+0000001015          1400 CM8745               2AZ
206648002206648112-116069     206648006009681820277TCS CARRIER BAG JUMBO  0000001000+00000048+00000+0001T   00000048+0000001015          1400 CM8090               2AZ
206648003206648466-009008     206648006003000301713CATCHBALL W/2 BALLS    0000001000+00002630+00000+0001T   00002630+0000001015          1400 CM8785               2AZ
206648004206648079-130010     206648006003000496624ART+CRAFT FOAM DOLLS   0000001000+00004385+00000+0001T   00004385+0000001015          1400 CM8130               2AZ
206648005206648006-000344     206648006003000653799GLOW STICKS 6x20cm     0000001000+00003507+00000+0001T   00003507+0000001015          1400 CM8131               2AZ
206648006206648079-013101     206648006001023863706CRAFT SET DIY PIPE-CLNR0000001000+00002630+00000+0001T   00002630+0000001015          1400 CM8130               2AZ
206648007206648266-001303     206648006001023560698MARBLES 25MM 10PC GOONS0000001000+00001578+00000+0001T   00001578+0000001015          1400 CM8710               2AZ
206649000206649               206649               170213PM     1400+00000+PM0000032568+0000032568+000000000+000004562+0000037130+0000000000+I40000037130+0000000000+Z
206649001206649018-030000     206649006003000421060MUG OCCASIONS LOVE 2PCE0000003000+00004385+00000+0001T   00004385+0000001019          1400 CM8515               2AZ
206649002206649368-000171     206649006003000233250PLUSH BEAR 14cm        0000001000+00005262+00000+0001T   00005262+0000001019          1400 CM8745               2AZ
206649003206649077-000452     206649006003000284986G/BAG METALLIC MED EMB 0000001000+00001490+00000+0001T   00001490+0000001019          1400 CM8112               2AZ
206649004206649002-000681     206649006001023693747K/TOOL NYL SOLID-SPOON 0000001000+00002192+00000+0001T   00002192+0000001019          1400 CM8300               2AZ
206649005206649002-000740     206649006001023763945GRATER 4-WAY WHITE     0000001000+00002192+00000+0001T   00002192+0000001019          1400 CM8300               2AZ
206649006206649158-000167     206649006003000569588WASTEPAPER-BASKET 26cm 0000001000+00005262+00000+0001T   00005262+0000001019          1400 CM8300               2AZ
206649007206649077-000452     206649006003000284986G/BAG METALLIC MED EMB 0000002000+00001490+00000+0001T   00001490+0000001019          1400 CM8112               2AZ
206649008206649112-116038     206649006009681820246TCS CARRIER BAG MIDI   0000001000+00000035+00000+0001T   00000035+0000001019          1400 CM8090               2AZ
206650000206650               206650               170213PM     1400+00000+PM0000022409+0000022409+000000000+000003140+0000025549+0000000000+I40000025549+0000000000+Z
206650001206650027-783000     206650006001023874641SCOURERS RAINBOW 5PCE  0000002000+00001753+00000+0001T   00001753+0000001034          1400 CM8212               2AZ
206650002206650112-116069     206650006009681820277TCS CARRIER BAG JUMBO  0000001000+00000048+00000+0001T   00000048+0000001034          1400 CM8090               2AZ
206650003206650002-000117     206650006001023110879EGG POACHERS 2PC       0000001000+00003069+00000+0001T   00003069+0000001034          1400 CM8300               2AZ
206650004206650106-005122     206650006003000594825ICE LOLLY MAKER LARGE  0000002000+00004385+00000+0001T   00004385+0000001034          1400 CM8210               2AZ
206650005206650267-000906     206650006003000636334PUZZLE JIGSAW PCS      0000001000+00007016+00000+0001T   00007016+0000001034          1400 CM8755               2AZ
206651000206651               206651               170213PM     1400+00000+PM0000002630+0000002630+000000000+000000369+0000002990+0000000009+I20000000000+0000002990+Z
206651001206651027-056186     206651006003000638215DISH BRUSH DUCK DESIGN 0000001000+00002630+00000+0001T   00002630+0000001050          1400 CM8212               2AZ
206652000206652               206652               170213PM     1400+00000+PM0000003946+0000003946+000000000+000000553+0000004490+0000000009+I20000000000+0000004490+Z
206652001206652039-000327     206652006001023775283B/CANDLES COLOUR-FLAME 0000001000+00003946+00000+0001T   00003946+0000001052          1400 CM8510               2AZ
206653000206653               206653               170213PM     1400+00000+PM0000010900+0000010900+000000000+000001527+0000012427+0000000000+I40000012427+0000000000+Z
206653001206653077-000303     206653006001023593757GIFT-BAG PAPER MED     0000002000+00001578+00000+0001T   00001578+0000001103          1400 CM8112               2AZ
206653002206653018-000177     206653006001023797513MUG MINI LOVE ASSTD    0000004000+00000700+00000+0001T   00000700+0000001103          1400 CM8515               2AZ
206653003206653077-000303     206653006001023593757GIFT-BAG PAPER MED     0000001000+00001578+00000+0001T   00001578+0000001103          1400 CM8112               2AZ
206653004206653080-000124     206653006003000297733CARD & ENV VALENTINES  0000001000+00001578+00000+0001T   00001578+0000001103          1400 CM8112               2AZ
206653005206653301-085006     206653006001023502940ORN LOVE MSG TUBE W/HRT0000001000+00001753+00000+0001T   00001753+0000001103          1400 CM8505               2AZ
206653006206653112-116038     206653006009681820246TCS CARRIER BAG MIDI   0000001000+00000035+00000+0001T   00000035+0000001103          1400 CM8090               2AZ
206654000206654               206654               170213PM     1400+00000+PM0000006623+0000006623+000000000+000000929+0000007550+0000000002+I20000000000+0000007550+Z
206654001206654039-001023     206654006003000466337CANDLE TEA-LITE METALIC0000001000+00001753+00000+0001T   00001753+0000001118          1400 CM8510               2AZ
206654002206654563-000317-J   206654006001023776419SERVIETTE 2PLY 33cm    0000001000+00001753+00000+0001T   00001753+0000001118          1400 CM8214               2AZ
206654003206654301-085008     206654006003000673933ORN OCC.LOVE TINSEL HRT0000001000+00003069+00000+0001T   00003069+0000001118          1400 CM8505               2AZ
206654004206654112-116069     206654006009681820277TCS CARRIER BAG JUMBO  0000001000+00000048+00000+0001T   00000048+0000001118          1400 CM8090               2AZ
206655000206655               206655               170213PM     1400+00000+PM0000003506+0000003506+000000000+000000492+0000003998+0000000000+I40000003998+0000000000+Z
206655001206655080-000101     206655006003000236732CARD&ENVLPE FEMALE     0000001000+00001753+00000+0001T   00001753+0000001123          1400 CM8112               2AZ
206655002206655080-000109     206655006003000237203CARD&ENVLPE BDAY-BRIGHT0000001000+00001753+00000+0001T   00001753+0000001123          1400 CM8112               2AZ
206656000206656               206656               170213PM     1400+00000+PM0000001227+0000001227+000000000+000000172+0000001390+0000000009+I20000000000+0000001390+Z
206656001206656251-000041     206656006001023515889SEAL-TAPE BUFF 48mmx50m0000001000+00001227+00000+0001T   00001227+0000001123          1400 CM8810               2AZ
206657000206657               206657               170213PM     1400+00000+PM0000003944+0000003944+000000000+000000553+0000004497+0000000000+I40000004497+0000000000+Z
206657001206657077-000302     206657008010410010195GIFT-BAG 18X23CM E/D   0000002000+00000876+00000+0001T   00000876+0000001233          1400 CM8112               2AZ
206657002206657080-000127     206657006003000424351VALENTINES DAY 36x24CM 0000001000+00002192+00000+0001T   00002192+0000001233          1400 CM8112               2AZ
206658000206658               206658               170213PM     1400+00000+PM0000028942+0000028942+000000000+000004054+0000032996+0000000000+I40000032996+0000000000+Z
206658001206658077-000302     206658008010410010195GIFT-BAG 18X23CM E/D   0000001000+00000876+00000+0001T   00000876+0000001237          1400 CM8112               2AZ
206658002206658303-000806     206658006001023409768COW-BELL BRASS(5BELLS) 0000001000+00005262+00000+0001T   00005262+0000001237          1400 CM8510               2AZ
206658003206658003-009213     206658006003000483334O/INSECT STONE 22CM    0000002000+00011402+00000+0001T   00011402+0000001237          1400 CM8505               2AZ
206659000206659               206659               170213PM     1400+00000+PM0000007014+0000007014+000000000+000000982+0000007996+0000000000+I40000007996+0000000000+Z
206659001206659140-001001     206659006001023599926ROACH-TRAPS 5PCE    BOX0000002000+00003507+00000+0001T   00003507+0000001238          1400 CM8830               2AZ
206660000206660               206660               170213PM     1400+00000+PM0000010168+0000010168+000000000+000001426+0000011594+0000000000+I40000011594+0000000000+Z
206660001206660071-005213     206660006001023690371CELLOTAPE 12mmx33m     0000001000+00000876+00000+0001T   00000876+0000001240          1400 CM8130               2AZ
206660002206660077-000150-D   206660006003000054343GIFT-WRAP CELLPHANE CLR0000001000+00000876+00000+0001T   00000876+0000001240          1400 CM8112               2AZ
206660003206660077-000151     206660006008766114676GIFT-WRAP C/PHANE ASSTD0000001000+00000876+00000+0001T   00000876+0000001240          1400 CM8112               2AZ
206660004206660019-000126     206660006003000329571PLANTER GALV W/HANDLE  0000001000+00004823+00000+0001T   00004823+0000001240          1400 CM8510               2AZ
206660005206660018-000127     206660006001023380289MUG OCC STRAIGHT LOVE  0000001000+00001578+00000+0001T   00001753+0006471240          1400 CM8515               2AZ
206660006206660903-000087     206660006001704000161SWT SPECKLED-EGGS 50G  0000001000+00001139+00000+0001T   00001139+0000001240          1400 CM8150               2AZ
206661000206661               206661               170213PM     1400+00000+PM0000001139+0000001139+000000000+000000160+0000001290+0000000009+I20000000000+0000001290+Z
206661001206661903-000087     206661006001704000161SWT SPECKLED-EGGS 50G  0000001000+00001139+00000+0001T   00001139+0000001243          1400 CM8150               2AZ
206662000206662               206662               170213PM     1400+00000+PM0000013712+0000013712+000000000+000001921+0000015633+0000000000+I40000015633+0000000000+Z
206662001206662266-001026     206662006003000473618SWORD 52cm+35cm AXE    0000001000+00003507+00000+0001T   00003507+0000001250          1400 CM8710               2AZ
206662002206662266-001029     206662006003000656912BOYS PLAYSET SWORD 45cm0000001000+00003507+00000+0001T   00003507+0000001250          1400 CM8710               2AZ
206662003206662466-008889     206662006001023835376WHISTLE SPORTS+STRING  0000001000+00001753+00000+0001T   00001753+0000001250          1400 CM8785               2AZ
206662005206662266-000607     206662006003000657339BOYS PLAYSET FOAM SET  0000002000+00002455+00000+0001T   00002455+0000001250          1400 CM8710               2AZ
206662006206662112-116038     206662006009681820246TCS CARRIER BAG MIDI   0000001000+00000035+00000+0001T   00000035+0000001250          1400 CM8090               2AZ
206663000206663               206663               170213PM     1400+00000+PM0000019377+0000019377+000000000+000002716+0000022093+0000000000+I40000022093+0000000000+Z
206663001206663105-001005     206663006001023858214CONTAINERS MINI 6PCE   0000001000+00001402+00000+0001T   00001402+0000001254          1400 CM8210               2AZ
206663002206663071-001102     206663006003000274598MARKER PERM MED 2PCE   0000001000+00001753+00000+0001T   00001753+0000001254          1400 CM8130               2AZ
206663003206663050-000880-Z   206663006003000528110PADLOCK COMBO BRS 4 WHL0000001000+00004385+00000+0001T   00004385+0000001254          1400 CM8855               2AZ
206663004206663079-006518     206663006003000647378ART+CRAFT FABRIC MARKER0000001000+00003069+00000+0001T   00003069+0000001254          1400 CM8130               2AZ
206663005206663265-000381     206663006003000599394BATTERY OPERATED BOAT  0000001000+00005262+00000+0001T   00005262+0000001254          1400 CM8710               2AZ
206663006206663566-000038     206663006003000100514TATTOO METALLIC 6 ASST 0000002000+00001753+00000+0001T   00001753+0000001254          1400 CM8130               2AZ
206664000206664               206664               170213PM     1400+00000+PM0000012307+0000012307+000000000+000001727+0000014034+0000000000+I40000014034+0000000000+Z
206664001206664079-013032-D   206664006003000389643RIBBONS                0000001000+00002630+00000+0001T   00002630+0000001256          1400 CM8130               2AZ
206664002206664079-000280     206664006003000160723PAINT READYMIX 6PCE    0000001000+00002630+00000+0001T   00002630+0000001256          1400 CM8130               2AZ
206664003206664079-006496     206664006003000160105GLITTER SHAKERS        0000001000+00001753+00000+0001T   00001753+0000001256          1400 CM8130               2AZ
206664004206664112-116038     206664006009681820246TCS CARRIER BAG MIDI   0000001000+00000035+00000+0001T   00000035+0000001256          1400 CM8090               2AZ
206664005206664079-003001     206664006003000448951A/TUBE 75ML BLACK      0000001000+00001753+00000+0001T   00001753+0000001256          1400 CM8130               2AZ
206664006206664079-003002     206664006003000447886A/TUBE 75ML RED        0000001000+00001753+00000+0001T   00001753+0000001256          1400 CM8130               2AZ
206664007206664079-000275     206664006003000160488PAINT-BRUSHES 6PCE PRO 0000001000+00001753+00000+0001T   00001753+0000001256          1400 CM8130               2AZ
206665000206665               206665               170213PM     1400+00000+PM0000029822+0000029822+000000000+000004176+0000033998+0000000000+I40000033998+0000000000+Z
206665001206665140-092000     206665006001023819130MOSQ-NET 1250x250x65cm 0000002000+00014911+00000+0001T   00014911+0000001311          1400 CM8830               2AZ
206666000206666               206666               170213PM     1400+00000+PM0000005120+0000005120+000000000+000000717+0000005837+0000000000+I40000005837+0000000000+Z
206666001206666263-001000     206666006003000600212VEHICLE PICK UP SET    0000001000+00004385+00000+0001T   00004385+0000001316          1400 CM8710               2AZ
206666002206666903-000126     206666006002099003591SWT ZILLIONS MINT 50G  0000001000+00000700+00000+0001T   00000700+0000001316          1400 CM8150               2AZ
206666003206666112-116038     206666006009681820246TCS CARRIER BAG MIDI   0000001000+00000035+00000+0001T   00000035+0000001316          1400 CM8090               2AZ
206667000206667               206667               170213PM     1400+00000+PM0000016482+0000016482+000000000+000002310+0000018792+0000000000+I40000018792+0000000000+Z
206667001206667200-000200     206667006008766091144BAKING ALUM FOIL 2PCE  0000003000+00002192+00000+0001T   00002192+0000001332          1400 CM8214               2AZ
206667002206667047-005126     206667006001023451255CABLETIES 100/150/200mm0000001000+00002192+00000+0001T   00002192+0000001332          1400 CM8880               2AZ
206667003206667104-000040     206667006001023846280BASKET HEART-SHAPED    0000001000+00001753+00000+0001T   00001753+0000001332          1400 CM8210               2AZ
206667004206667104-000020     206667006916920023026BASKET 25x14x10cm      0000001000+00001753+00000+0001T   00001753+0000001332          1400 CM8210               2AZ
206667005206667463-000366     206667006001023789136SWIM W/NOODLE 150cm    0000001000+00002630+00000+0001T   00002630+0000001332          1400 CM8785               2AZ
206667006206667018-000127     206667006001023380289MUG OCC STRAIGHT LOVE  0000001000+00001578+00000+0001T   00001753+0006471332          1400 CM8515               2AZ
206668000206668               206668               170213PM     1400+00000+PM0000018764+0000018764+000000000+000002630+0000021394+0000000000+I40000021394+0000000000+Z
206668001206668007-000206     206668006009635830215X/PAD 80-SHEETS PUNCHED0000001000+00001227+00000+0001T   00001227+0000001337          1400 CM8130               2AZ
206668002206668200-003024     206668006001023657299REFUSE BAGS 20PCE BLACK0000001000+00001753+00000+0001T   00001753+0000001337          1400 CM8214               2AZ
206668003206668024-000038     206668006001023477026MEASURING-JUG 1L (4CUP)0000001000+00001753+00000+0001T   00001753+0000001337          1400 CM8300               2AZ
206668004206668015-002070     206668006001023893932BOWL S/STEEL SALAD 30cm0000001000+00007016+00000+0001T   00007016+0000001337          1400 CM8515               2AZ
206668005206668567-014135     206668006003000560264BOOK COLOURING 240P    0000001000+00003069+00000+0001T   00003507+0008191337          1400 CM8757               2AZ
206668006206668024-000058     206668006001023887498ROLLING-PIN            0000001000+00003946+00000+0001T   00003946+0000001337          1400 CM8300               2AZ
206669000206669               206669               170213PM     1400+00000+PM0000008819+0000008819+000000000+000001235+0000010054+0000000000+I40000010054+0000000000+Z
206669001206669031-086302-C   206669006001023910332P/FRAME COLL. PL 3-HOLE0000001000+00008771+00000+0001T   00008771+0000001341          1400 CM8510               2AZ
206669002206669112-116069     206669006009681820277TCS CARRIER BAG JUMBO  0000001000+00000048+00000+0001T   00000048+0000001341          1400 CM8090               2AZ
206670000206670               206670               170213PM     1400+00000+PM0000007924+0000007924+000000000+000001112+0000009036+0000000000+I40000009036+0000000000+Z
206670001206670366-007601     206670006003000655472DRESS UP MASK THEATRICA0000001000+00000876+00000+0001T   00000876+0000001347          1400 CM8131               2AZ
206670002206670002-000015     206670006003000555604CAPPUCCINO STENCILS 12P0000001000+00001753+00000+0001T   00001753+0000001347          1400 CM8300               2AZ
206670003206670079-013101     206670006001023863706CRAFT SET DIY PIPE-CLNR0000001000+00002630+00000+0001T   00002630+0000001347          1400 CM8130               2AZ
206670004206670024-000066     206670006001023769947SPATULA SILICONE 25CM  0000001000+00002630+00000+0001T   00002630+0000001347          1400 CM8300               2AZ
206670005206670112-116038     206670006009681820246TCS CARRIER BAG MIDI   0000001000+00000035+00000+0001T   00000035+0000001347          1400 CM8090               2AZ
206671000206671               206671               170213PM     1400+00000+PM0000003891+0000003891+000000000+000000545+0000004430+0000000006+I20000000000+0000004430+Z
206671001206671105-001078     206671000700371637750CONTAINER 1,1L CLIP LOC0000002000+00001928+00000+0001T   00001928+0000001354          1400 CM8210               2AZ
206671002206671112-116038     206671006009681820246TCS CARRIER BAG MIDI   0000001000+00000035+00000+0001T   00000035+0000001354          1400 CM8090               2AZ
206672000206672               206672               170213PM     1400+00000+PM0000001525+0000001525+000000000+000000214+0000001730+0000000009+I20000000000+0000001730+Z
206672001206672079-006494     206672006003000159864GLITTER GLUE 5PCE 11cm 0000001000+00001490+00000+0001T   00001490+0000001356          1400 CM8130               2AZ
206672002206672112-116038     206672006009681820246TCS CARRIER BAG MIDI   0000001000+00000035+00000+0001T   00000035+0000001356          1400 CM8090               2AZ
206673000206673               206673               170213PM     1400+00000+PM0000003416+0000003416+000000000+000000479+0000003890+0000000005+I20000000000+0000003890+Z
206673001206673006-000166-D   206673006003000516490BALLOONS LRG 6PC RED   0000001000+00001314+00000+0001T   00001314+0000001407          1400 CM8131               2AZ
206673002206673006-000166-H   206673006003000608096BALLOONS HELIUM 6PC WHT0000001000+00001314+00000+0001T   00001314+0000001407          1400 CM8131               2AZ
206673003206673077-000010-U   206673006001023168863CREPE-PAPER CERISE-PINK0000001000+00000788+00000+0001T   00000788+0000001407          1400 CM8112               2AZ
206674000206674               206674               170213PM     1400+00000+PM0000012011+0000012011+000000000+000001684+0000013690+0000000005+I20000000000+0000013690+Z
206674001206674206-000620     206674006003000631797BACK SCRATCHER EXTEND  0000001000+00002630+00000+0001T   00002630+0000001411          1400 CM8321               2AZ
206674002206674105-001036     206674006003000621118CONTAINER W/VENT 350ml 0000001000+00000876+00000+0001T   00001490+0008161411          1400 CM8210               2AZ
206674003206674030-000031-A   206674006003000457588PLAQUE W/WORDS ASSTD   0000001000+00004385+00000+0001T   00004823+0006471411          1400 CM8505               2AZ
206674004206674077-000299     206674006003000395576G/BAG 32x25cm LRG LOVE 0000001000+00001490+00000+0001T   00001490+0000001411          1400 CM8112               2AZ
206674005206674206-000620     206674006003000631797BACK SCRATCHER EXTEND  0000001000+00002630+00000+0001T   00002630+0000001411          1400 CM8321               2AZ
206675000206675               206675               170213PM     1400+00000+PM0000007893+0000007893+000000000+000001106+0000008999+0000000000+I40000008999+0000000000+Z
206675001206675264-000934     206675006001023670373MAISTO DINKY 11cm LAMBO0000001000+00007893+00000+0001T   00007893+0000001413          1400 CM8710               2AZ
206676000206676               206676               170213PM     1400+00000+PM0000003189+0000003189+000000000+000000448+0000003637+0000000000+I40000003637+0000000000+Z
206676001206676077-000303     206676006001023593757GIFT-BAG PAPER MED     0000001000+00001578+00000+0001T   00001578+0000001424          1400 CM8112               2AZ
206676002206676903-000200     206676006009826020234SWT CHOC RP CHOCO 23G  0000002000+00000788+00000+0001T   00000788+0000001424          1400 CM8150               2AZ
206676003206676112-116038     206676006009681820246TCS CARRIER BAG MIDI   0000001000+00000035+00000+0001T   00000035+0000001424          1400 CM8090               2AZ
206677000206677               206677               170213PM     1400+00000+PM0000010344+0000010344+000000000+000001451+0000011795+0000000000+I40000011795+0000000000+Z
206677001206677567-004952     206677009780636049079TYB G01 ENGLISH        0000001000+00002192+00000+0001T   00002192+0000001445          1400 CM8757               2AZ
206677002206677562-000216     206677006003000113880EDU PUSH-IN WDN BOARD  0000001000+00001753+00000+0001T   00001753+0000001445          1400 CM8755               2AZ
206677003206677362-019285     206677006001023869456HAIR BAND SET ASS. CARD0000001000+00002630+00000+0001T   00002630+0000001445          1400 CM8160               2AZ
206677004206677903-000087     206677006001704000161SWT SPECKLED-EGGS 50G  0000001000+00001139+00000+0001T   00001139+0000001445          1400 CM8150               2AZ
206677005206677206-000620     206677006003000631797BACK SCRATCHER EXTEND  0000001000+00002630+00000+0001T   00002630+0000001445          1400 CM8321               2AZ
206678000206678               206678               170213PM     1400+00000+PM0000012279+0000012279+000000000+000001720+0000013999+0000000000+I40000013999+0000000000+Z
206678001206678368-000111     206678006001023780812PLUSH BEAR/DOG 29CM    0000001000+00012279+00000+0001T   00012279+0000001446          1400 CM8745               2AZ
206679000206679               206679               170213PM     1400+00000+PM0000015347+0000015347+000000000+000002149+0000017496+0000000000+I40000017496+0000000000+Z
206679001206679001-091415     206679006003000329113W/GLS OCC. LOVE 2PC 2800000001000+00008771+00000+0001T   00009648+0006471449          1400 CM8515               2AZ
206679002206679089-060027     206679006003000245871KEY-CHAIN HEART 6X6cm  0000001000+00003069+00000+0001T   00003069+0000001449          1400 CM8205               2AZ
206679003206679077-000465     206679006003000681570GIFT-BAG MTLC GLIT LRG 0000001000+00003507+00000+0001T   00003507+0000001449          1400 CM8112               2AZ
206680000206680               206680               170213PM     1400+00000+PM0000004430+0000004430+000000000+000000622+0000005050+0000000002+I20000000000+0000005050+Z
206680001206680264-000921     206680000090159150442MAISTO CAR 3" FRESH    0000001000+00001753+00000+0001T   00001753+0000001450          1400 CM8710               2AZ
206680002206680077-000011-D   206680006001023808554TISSUE-WRAP WHITE 10PCE0000001000+00000876+00000+0001T   00000876+0000001450          1400 CM8112               2AZ
206680003206680077-000381     206680006003000247707GIFT-BAG 25X32CM S/COL 0000001000+00001753+00000+0001T   00001753+0000001450          1400 CM8112               2AZ
206680004206680112-116069     206680006009681820277TCS CARRIER BAG JUMBO  0000001000+00000048+00000+0001T   00000048+0000001450          1400 CM8090               2AZ
206681000206681               206681               170213PM     1400+00000+PM0000013156+0000013156+000000000+000001842+0000014990+0000000008+I20000000000+0000014990+Z
206681001206681085-007006     206681006001023871046P/TOOL 25in1 SS BITS   0000001000+00010964+00000+0001T   00010964+0000001500          1400 CM8305               2AZ
206681002206681072-020257     206681006001023598110DOG-CHEW SHOE 13cm     0000001000+00002192+00000+0001T   00002192+0000001500          1400 CM8870               2AZ
206682000206682               206682               170213PM     1400+00000+PM0000016866+0000016866+000000000+000002365+0000019231+0000000000+I40000019231+0000000000+Z
206682001206682038-047250     206682006001023816009PLACE MAT ASSORTED     0000001000+00001753+00000+0001T   00001753+0000001504          1400 CM8300               2AZ
206682002206682079-000271     206682006003000160082PAINT-BRUSHES LRGE ART 0000001000+00003069+00000+0001T   00003069+0000001504          1400 CM8130               2AZ
206682003206682033-005919     206682006003000154883SEWING THREAD 24cm ASST0000001000+00001490+00000+0001T   00001490+0000001504          1400 CM8200               2AZ
206682004206682079-006496     206682006003000160105GLITTER SHAKERS        0000001000+00001753+00000+0001T   00001753+0000001504          1400 CM8130               2AZ
206682005206682079-003001     206682006003000448951A/TUBE 75ML BLACK      0000001000+00001753+00000+0001T   00001753+0000001504          1400 CM8130               2AZ
206682006206682033-005930     206682006001023678423PINS STRAIGHT 20g  CARD0000001000+00000876+00000+0001T   00000876+0000001504          1400 CM8200               2AZ
206682007206682071-000682     206682006003000196920ACCESSORIES DESKTOP ASS0000001000+00003507+00000+0001T   00003507+0000001504          1400 CM8130               2AZ
206682008206682206-000390     206682006003000631438STRAW PL BUILD A STRAW 0000001000+00002630+00000+0001T   00002630+0000001504          1400 CM8321               2AZ
206682009206682112-116038     206682006009681820246TCS CARRIER BAG MIDI   0000001000+00000035+00000+0001T   00000035+0000001504          1400 CM8090               2AZ
206683000206683               206683               170213PM     1400+00000+PM0000019689+0000019689+000000000+000002760+0000022449+0000000000+I40000022449+0000000000+Z
206683001206683124-002023     206683006003000367252BISCUIT TIN HEART SHAPE0000001000+00002630+00000+0001T   00003507+0008171515          1400 CM8300               2AZ
206683002206683903-000087     206683006001704000161SWT SPECKLED-EGGS 50G  0000003000+00001139+00000+0001T   00001139+0000001515          1400 CM8150               2AZ
206683003206683080-000127     206683006003000424351VALENTINES DAY 36x24CM 0000001000+00002192+00000+0001T   00002192+0000001515          1400 CM8112               2AZ
206683004206683040-000103     206683000694202201862C/HOLDER-SET 5PC W/TRAY0000001000+00011402+00000+0001T   00013157+0008191515          1400 CM8510               2AZ
206683005206683112-116069     206683006009681820277TCS CARRIER BAG JUMBO  0000001000+00000048+00000+0001T   00000048+0000001515          1400 CM8090               2AZ
206684000206684               206684               170213PM     1400+00000+PM0000002192+0000002192+000000000+000000307+0000002490+0000000009+I20000000000+0000002490+Z
206684001206684566-000359     206684006003000582709STICKER BOOK LOVE SPARK0000001000+00002192+00000+0001T   00002192+0000001520          1400 CM8130               2AZ
206685000206685               206685               170213PM     1400+00000+PM0000005958+0000005958+000000000+000000837+0000006795+0000000000+I40000006795+0000000000+Z
206685001206685077-000011-X   206685006001023809827TISSUE-WRAP SILVER 10PC0000001000+00001753+00000+0001T   00001753+0000001522          1400 CM8112               2AZ
206685002206685039-000322     206685006001023524157B/CANDLES W/HOLDERS 24 0000001000+00001139+00000+0001T   00001139+0000001522          1400 CM8510               2AZ
206685003206685077-000302     206685008010410010195GIFT-BAG 18X23CM E/D   0000001000+00000876+00000+0001T   00000876+0000001522          1400 CM8112               2AZ
206685004206685080-000133     206685006003000535613CARD&ENV MINI ASTD DSGN0000001000+00000437+00000+0001T   00000437+0000001522          1400 CM8112               2AZ
206685005206685077-000457     206685006003000285662G/BAG METALLIC JMB SOL 0000001000+00001753+00000+0001T   00001753+0000001522          1400 CM8112               2AZ
206686000206686               206686               170213PM     1400+00000+PM0000010130+0000010130+000000000+000001419+0000011540+0000000009+I20000000000+0000011540+Z
206686001206686080-000127     206686006003000424351VALENTINES DAY 36x24CM 0000001000+00002192+00000+0001T   00002192+0000001526          1400 CM8112               2AZ
206686002206686018-000127     206686006001023380289MUG OCC STRAIGHT LOVE  0000005000+00001578+00000+0001T   00001753+0006471526          1400 CM8515               2AZ
206686003206686112-116069     206686006009681820277TCS CARRIER BAG JUMBO  0000001000+00000048+00000+0001T   00000048+0000001526          1400 CM8090               2AZ
206687000206687               206687               170213PM     1400+00000+PM0000006185+0000006185+000000000+000000867+0000007050+0000000002+I20000000000+0000007050+Z
206687001206687039-000114     206687006001023524058CANDLE T/LITE RED 3.5CM0000001000+00001753+00000+0001T   00001753+0000001527          1400 CM8510               2AZ
206687002206687080-000127     206687006003000424351VALENTINES DAY 36x24CM 0000002000+00002192+00000+0001T   00002192+0000001527          1400 CM8112               2AZ
206687003206687112-116069     206687006009681820277TCS CARRIER BAG JUMBO  0000001000+00000048+00000+0001T   00000048+0000001527          1400 CM8090               2AZ
206688000206688               206688               170213PM     1400+00000+PM0000009679+0000009679+000000000+000001357+0000011036+0000000000+I40000011036+0000000000+Z
206688001206688082-007582     206688006003000465804SUNGLASSES EMPORIUM    0000001000+00004385+00000+0001T   00004385+0000001536          1400 CM8160               2AZ
206688002206688078-000025     206688008887013700064SUPERGLUE 3g 1PCE CARD 0000001000+00000876+00000+0001T   00000876+0000001536          1400 CM8810               2AZ
206688003206688079-006522     206688006001023149442ART+CRAFT GLUE ASSORTED0000001000+00001753+00000+0001T   00001753+0000001536          1400 CM8130               2AZ
206688004206688079-001002     206688006003000448715CANVAS A4 WOOD MOUNTED 0000001000+00002630+00000+0001T   00002630+0000001536          1400 CM8130               2AZ
206688005206688112-116038     206688006009681820246TCS CARRIER BAG MIDI   0000001000+00000035+00000+0001T   00000035+0000001536          1400 CM8090               2AZ
206689000206689               206689               170213PM     1400+00000+PM0000004821+0000004821+000000000+000000676+0000005497+0000000000+I40000005497+0000000000+Z
206689001206689903-000503     206689006001704006118SWT VAMPIRE FANGS 60G  0000001000+00000876+00000+0001T   00000876+0000001539          1400 CM8150               2AZ
206689002206689565-000080     206689006003000643424NOVELTY BENDY          0000001000+00002192+00000+0001T   00002192+0000001539          1400 CM8745               2AZ
206689003206689565-000043     206689006003000109562NOVELTY BALL FUNNY FACE0000001000+00001753+00000+0001T   00001753+0000001539          1400 CM8745               2AZ
206690000206690               206690               170213PM     1400+00000+PM0000024076+0000024076+000000000+000003373+0000027449+0000000000+I40000027449+0000000000+Z
206690001206690496-069632     206690000078257596324REPAIR-KIT (GLUE/PATCH)0000001000+00001227+00000+0001T   00001227+0000001542          1400 CM8787               2AZ
206690002206690159-090920     206690006001023629364TOILET SOFT-SEAT LARGE 0000001000+00011402+00000+0001T   00011402+0000001542          1400 CM8200               2AZ
206690003206690140-005093     206690006003000331338INSECT-KILL RAQT-SHAPED0000001000+00005262+00000+0001T   00005262+0000001542          1400 CM8830               2AZ
206690004206690565-000055     206690006003000028252NOVELTY B/O FINGR-BEAMS0000001000+00001753+00000+0001T   00001753+0000001542          1400 CM8745               2AZ
206690005206690566-000991     206690000721129013121STICKERS GLOW-IN-DARK  0000002000+00002192+00000+0001T   00002192+0000001542          1400 CM8130               2AZ
206690006206690112-116069     206690006009681820277TCS CARRIER BAG JUMBO  0000001000+00000048+00000+0001T   00000048+0000001542          1400 CM8090               2AZ
206691000206691               206691               170213PM     1400+00000+PM0000008589+0000008589+000000000+000001205+0000009794+0000000000+I40000009794+0000000000+Z
206691001206691016-006508     206691006003000181537S/JAR GLASS 10X12CM    0000001000+00003507+00000+0001T   00003507+0000001544          1400 CM8300               2AZ
206691002206691903-000200     206691006009826020234SWT CHOC RP CHOCO 23G  0000002000+00000788+00000+0001T   00000788+0000001544          1400 CM8150               2AZ
206691003206691080-000133-A   206691006003000647019MINI VALENTINES CARD   0000001000+00000437+00000+0001T   00000437+0000001544          1400 CM8112               2AZ
206691004206691006-000227     206691006003000328086PARTY BIRTHDAY BADGES  0000001000+00003069+00000+0001T   00003069+0000001544          1400 CM8131               2AZ
206692000206692               206692               170213PM     1400+00000+PM0000021968+0000021968+000000000+000003076+0000025040+0000000004+I20000000000+0000025040+Z
206692001206692018-000136     206692006001023659026MUG OCC LOVE W/PLUSH   0000002000+00003507+00000+0001T   00003507+0000001547          1400 CM8515               2AZ
206692002206692112-116069     206692006009681820277TCS CARRIER BAG JUMBO  0000001000+00000048+00000+0001T   00000048+0000001547          1400 CM8090               2AZ
206692003206692018-005009     206692006001023725608MUG W/PLUSH-BEAR LOVE  0000001000+00003507+00000+0001T   00003507+0000001547          1400 CM8515               2AZ
206692004206692079-130010     206692006003000496624ART+CRAFT FOAM DOLLS   0000001000+00004385+00000+0001T   00004385+0000001547          1400 CM8130               2AZ
206692005206692018-005009     206692006001023725608MUG W/PLUSH-BEAR LOVE  0000002000+00003507+00000+0001T   00003507+0000001547          1400 CM8515               2AZ
206693000206693               206693               170213PM     1400+00000+PM0000002192+0000002192+000000000+000000307+0000002490+0000000009+I20000000000+0000002490+Z
206693001206693080-000127     206693006003000424351VALENTINES DAY 36x24CM 0000001000+00002192+00000+0001T   00002192+0000001552          1400 CM8112               2AZ
206694000206694               206694               170213PM     1400+00000+PM0000007047+0000007047+000000000+000000989+0000008036+0000000000+I40000008036+0000000000+Z
206694001206694079-000275     206694006003000160488PAINT-BRUSHES 6PCE PRO 0000001000+00001753+00000+0001T   00001753+0000001555          1400 CM8130               2AZ
206694002206694079-003002     206694006003000447886A/TUBE 75ML RED        0000001000+00001753+00000+0001T   00001753+0000001555          1400 CM8130               2AZ
206694003206694079-003005     206694006003000448241A/TUBE 75ML BLUE       0000001000+00001753+00000+0001T   00001753+0000001555          1400 CM8130               2AZ
206694004206694112-116038     206694006009681820246TCS CARRIER BAG MIDI   0000001000+00000035+00000+0001T   00000035+0000001555          1400 CM8090               2AZ
206694005206694079-003010     206694006003000448845A/TUBE 75ML YELLOW     0000001000+00001753+00000+0001T   00001753+0000001555          1400 CM8130               2AZ
206695000206695               206695               170213PM     1400+00000+PM0000011955+0000011955+000000000+000001677+0000013632+0000000000+I40000013632+0000000000+Z
206695001206695903-000200     206695006009826020234SWT CHOC RP CHOCO 23G  0000004000+00000788+00000+0001T   00000788+0000001557          1400 CM8150               2AZ
206695002206695565-000080     206695006003000643424NOVELTY BENDY          0000004000+00002192+00000+0001T   00002192+0000001557          1400 CM8745               2AZ
206695003206695112-116038     206695006009681820246TCS CARRIER BAG MIDI   0000001000+00000035+00000+0001T   00000035+0000001557          1400 CM8090               2AZ
206696000206696               206696               170213PM     1400+00000+PM0000003978+0000003978+000000000+000000559+0000004530+0000000007+I20000000000+0000004530+Z
206696001206696463-000122     206696006001023188069SWIM-GOGGLES           0000001000+00001753+00000+0001T   00001753+0000001559          1400 CM8785               2AZ
206696002206696080-000133     206696006003000535613CARD&ENV MINI ASTD DSGN0000001000+00000437+00000+0001T   00000437+0000001559          1400 CM8112               2AZ
206696003206696077-000902     206696006003000410569G/WRAP 700mmx1m BBY/KID0000001000+00001753+00000+0001T   00001753+0000001559          1400 CM8112               2AZ
206696004206696112-116038     206696006009681820246TCS CARRIER BAG MIDI   0000001000+00000035+00000+0001T   00000035+0000001559          1400 CM8090               2AZ
206697000206697               206697               170213PM     1400+00000+PM0000005085+0000005085+000000000+000000712+0000005797+0000000000+I40000005797+0000000000+Z
206697001206697077-000386     206697006003000275489G/BAG POP UP 18x23CM   0000001000+00001578+00000+0001T   00001578+0000001602          1400 CM8112               2AZ
206697002206697262-000652     206697006003000615643DIE CAST SET 8PC RACER 0000001000+00003507+00000+0001T   00003507+0000001602          1400 CM8710               2AZ
206698000206698               206698               170213PM     1400+00000+PM0000027410+0000027410+000000000+000003840+0000031250+0000000000+I40000031250+0000000000+Z
206698001206698105-001005     206698006001023858214CONTAINERS MINI 6PCE   0000002000+00001402+00000+0001T   00001402+0000001610          1400 CM8210               2AZ
206698002206698305-074068     206698006001023869128WIND-CHIMES BAMBOO 30CM0000001000+00007016+00000+0001T   00007016+0000001610          1400 CM8505               2AZ
206698003206698112-116069     206698006009681820277TCS CARRIER BAG JUMBO  0000001000+00000048+00000+0001T   00000048+0000001610          1400 CM8090               2AZ
206698004206698467-000040     206698006003000469147B/WAGON 34x26x18cm ASST0000001000+00017542+00000+0001T   00017542+0000001610          1400 CM8785               2AZ
206699000206699               206699               170213PM     1400+00000+PM0000006575+0000006575+000000000+000000921+0000007496+0000000000+I40000007496+0000000000+Z
206699001206699077-000299     206699006003000395576G/BAG 32x25cm LRG LOVE 0000001000+00001490+00000+0001T   00001490+0000001615          1400 CM8112               2AZ
206699002206699105-006955     206699006003000685325CONTAINER CLEAR BASE 8L0000001000+00003507+00000+0001T   00003507+0000001615          1400 CM8210               2AZ
206699003206699018-000127     206699006001023380289MUG OCC STRAIGHT LOVE  0000001000+00001578+00000+0001T   00001753+0006471615          1400 CM8515               2AZ
206700000206700               206700               170213PM     1400+00000+PM0000004385+0000004385+000000000+000000614+0000004999+0000000000+I40000004999+0000000000+Z
206700001206700266-000207     206700006001023708823GLIDER JET LAUNCHER    0000001000+00004385+00000+0001T   00004385+0000001634          1400 CM8710               2AZ
206701000206701               206701               170213PM     1400+00000+PM0000002630+0000002630+000000000+000000369+0000002999+0000000000+I40000002999+0000000000+Z
206701001206701562-000010     206701006001023762528KID'S PLAY DOUGH       0000001000+00002630+00000+0001T   00002630+0000001637          1400 CM8755               2AZ
206702000206702               206702               170213PM     1400+00000+PM0000001050+0000001050+000000000+000000148+0000001190+0000000008+I20000000000+0000001190+Z
206702001206702083-000049     206702004891035200024CIG-LIGHTER DISPOSABLE 0000001000+00000437+00000+0001T   00000437+0000001642          1400 CM8315               2AZ
206702002206702083-000055     206702006003000003853LIGHTER ELCTRNC REFILBL0000001000+00000613+00000+0001T   00000613+0000001642          1400 CM8315               2AZ
206703000206703               206703               170213PM     1400+00000+PM0000001226+0000001226+000000000+000000172+0000001390+0000000008+I20000000000+0000001390+Z
206703001206703077-000311     206703006001023608666GIFT-BAG 11X14CM GLOSS 0000002000+00000613+00000+0001T   00000613+0000001644          1400 CM8112               2AZ
206704000206704               206704               170213PM     1400+00000+PM0000009681+0000009681+000000000+000001356+0000011030+0000000007+I20000000000+0000011030+Z
206704001206704464-008011     206704006003000137091GAME COMPENDIUM 5-IN-1 0000002000+00004385+00000+0001T   00004385+0000001645          1400 CM8785               2AZ
206704002206704903-000481     206704006001704007481SWT MOO MILK-SHAKES 60G0000001000+00000876+00000+0001T   00000876+0000001645          1400 CM8150               2AZ
206704003206704112-116038     206704006009681820246TCS CARRIER BAG MIDI   0000001000+00000035+00000+0001T   00000035+0000001645          1400 CM8090               2AZ
206705000206705               206705               170213PM     1400+00000+PM0000005294+0000005294+000000000+000000743+0000006037+0000000000+I40000006037+0000000000+Z
206705001206705078-000026     206705006936198407090SUPERGLUE 3,0g GEL     0000001000+00001753+00000+0001T   00001753+0000001649          1400 CM8810               2AZ
206705002206705024-006874     206705006001023769978PASTRY-BRUSH SQ WHITE  0000001000+00001753+00000+0001T   00001753+0000001649          1400 CM8300               2AZ
206705003206705251-000070     206705006003000451777PROTECTION-PADS BLK ADH0000001000+00001753+00000+0001T   00001753+0000001649          1400 CM8810               2AZ
206705004206705112-116038     206705006009681820246TCS CARRIER BAG MIDI   0000001000+00000035+00000+0001T   00000035+0000001649          1400 CM8090               2AZ
206706000206706               206706               170213PM     1400+00000+PM0000007746+0000007746+000000000+000001088+0000008834+0000000000+I40000008834+0000000000+Z
206706001206706366-007601     206706006003000655472DRESS UP MASK THEATRICA0000001000+00000876+00000+0001T   00000876+0000001653          1400 CM8131               2AZ
206706002206706903-000200     206706006009826020234SWT CHOC RP CHOCO 23G  0000002000+00000788+00000+0001T   00000788+0000001653          1400 CM8150               2AZ
206706003206706006-000223     206706006001023891327PARTY EYE-MASK 6PCE    0000001000+00000876+00000+0001T   00000876+0000001653          1400 CM8131               2AZ
206706004206706006-000120     206706006001023346889BALLOONS 10PC MIX COL  0000001000+00001753+00000+0001T   00001753+0000001653          1400 CM8131               2AZ
206706005206706006-000099     206706006003000554348PARTY PHOTO FUN SIGNS  0000001000+00002630+00000+0001T   00002630+0000001653          1400 CM8131               2AZ
206706006206706112-116038     206706006009681820246TCS CARRIER BAG MIDI   0000001000+00000035+00000+0001T   00000035+0000001653          1400 CM8090               2AZ
206707000206707               206707               170213PM     1400+00000+PM0000008887+0000008887+000000000+000001247+0000010134+0000000000+I40000010134+0000000000+Z
206707001206707077-000011-C   206707006001023808523TISSUE 10xSHTS RED     0000001000+00000876+00000+0001T   00000876+0000001655          1400 CM8112               2AZ
206707002206707016-006521     206707006003000461349S/JAR GLS EASY-GRIP    0000001000+00002192+00000+0001T   00002192+0000001655          1400 CM8300               2AZ
206707003206707016-006425     206707006001023998170S/JAR GLS CLIP W/RIBBON0000001000+00002630+00000+0001T   00002630+0000001655          1400 CM8300               2AZ
206707004206707903-000087     206707006001704000161SWT SPECKLED-EGGS 50G  0000002000+00001139+00000+0001T   00001139+0000001655          1400 CM8150               2AZ
206707005206707112-116038     206707006009681820246TCS CARRIER BAG MIDI   0000001000+00000035+00000+0001T   00000035+0000001655          1400 CM8090               2AZ
206707006206707903-000123     206707006925925909280SWEET GS MINI MALLOWS  0000001000+00000876+00000+0001T   00000876+0000001655          1400 CM8150               2AZ
206708000206708               206708               170213PM     1400+00000+PM0000005566+0000005566+000000000+000000780+0000006346+0000000000+I40000006346+0000000000+Z
206708001206708079-000289     206708006001023493217PAINT WTR COL CAKE 6COL0000002000+00001578+00000+0001T   00001578+0000001656          1400 CM8130               2AZ
206708002206708464-008112     206708006003000681129GAME SNAKES & LADDERS  0000001000+00001753+00000+0001T   00001753+0000001656          1400 CM8785               2AZ
206708003206708566-001212     206708000721129014166STICKERS MICRO ASSTD   0000001000+00000657+00000+0001T   00000657+0000001656          1400 CM8130               2AZ
206709000206709               206709               170213PM     1400+00000+PM0000001578+0000001578+000000000+000000221+0000001790+0000000009+I20000000000+0000001790+Z
206709001206709077-000303     206709006001023593757GIFT-BAG PAPER MED     0000001000+00001578+00000+0001T   00001578+0000001657          1400 CM8112               2AZ
206710000206710               206710               170213PM     1400+00000+PM0000000437+0000000437+000000000+000000062+0000000490+0000000009+I20000000000+0000000490+Z
206710001206710080-000133-A   206710006003000647019MINI VALENTINES CARD   0000001000+00000437+00000+0001T   00000437+0000001658          1400 CM8112               2AZ
206711000206711               206711               170213PM     1400+00000+PM0000011884+0000011884+000000000+000001665+0000013549+0000000000+I40000013549+0000000000+Z
206711001206711079-000282     206711006001023493309PAINT TUBS POSTER 12COL0000001000+00002630+00000+0001T   00002630+0000001702          1400 CM8130               2AZ
206711002206711024-091103     206711006003453014307BAKING-CUP MUFFIN 50PCE0000001000+00002192+00000+0001T   00002192+0000001702          1400 CM8300               2AZ
206711003206711112-116069     206711006009681820277TCS CARRIER BAG JUMBO  0000001000+00000048+00000+0001T   00000048+0000001702          1400 CM8090               2AZ
206711004206711266-001029     206711006003000656912BOYS PLAYSET SWORD 45cm0000002000+00003507+00000+0001T   00003507+0000001702          1400 CM8710               2AZ
206712000206712               206712               170213PM     1400+00000+PM0000012392+0000012392+000000000+000001737+0000014129+0000000000+I40000014129+0000000000+Z
206712001206712071-000006     206712006001023732613PENCIL REFILLABLE 6PK  0000003000+00001753+00000+0001T   00001753+0000001705          1400 CM8130               2AZ
206712002206712071-003866     206712006003000590018PENCIL NOVELTY RULER   0000003000+00001314+00000+0001T   00001314+0000001705          1400 CM8130               2AZ
206712003206712566-001234     206712006003000217793STICKERS LASER ASSTD   0000001000+00001578+00000+0001T   00001578+0000001705          1400 CM8130               2AZ
206712004206712112-116038     206712006009681820246TCS CARRIER BAG MIDI   0000001000+00000035+00000+0001T   00000035+0000001705          1400 CM8090               2AZ
206712005206712080-000124     206712006003000297733CARD & ENV VALENTINES  0000001000+00001578+00000+0001T   00001578+0000001705          1400 CM8112               2AZ
206713000206713               206713               170213PM     1400+00000+PM0000011081+0000011081+000000000+000001554+0000012630+0000000005+I20000000000+0000012630+Z
206713001206713903-002851     206713000000087108538MENTOS ROLL STRAWBERRY 0000001000+00001051+00000+0001T   00001051+0000001711          1400 CM8150               2AZ
206713002206713903-002850     206713000000087108262MENTOS ROLL FRUIT      0000001000+00001051+00000+0001T   00001051+0000001711          1400 CM8150               2AZ
206713003206713903-000518     206713006001704012782SWT STRAWS S/BERRY 100g0000001000+00001227+00000+0001T   00001227+0000001711          1400 CM8150               2AZ
206713004206713077-000303     206713006001023593757GIFT-BAG PAPER MED     0000001000+00001578+00000+0001T   00001578+0000001711          1400 CM8112               2AZ
206713005206713368-000104     206713006001023751348PLUSH BEAR RUFFLED-LOOK0000001000+00006139+00000+0001T   00006139+0000001711          1400 CM8745               2AZ
206713006206713112-116038     206713006009681820246TCS CARRIER BAG MIDI   0000001000+00000035+00000+0001T   00000035+0000001711          1400 CM8090               2AZ
206714000206714               206714               170213PM     1400+00000+PM0000003979+0000003979+000000000+000000558+0000004530+0000000007+I20000000000+0000004530+Z
206714001206714007-010494     206714006003000500505BOARD BLACK WITH CHALK 0000001000+00002630+00000+0001T   00002630+0000001712          1400 CM8130               2AZ
206714002206714903-004950     206714006002580020304SWT APRICOT SURPRISE   0000001000+00001314+00000+0001T   00001314+0000001712          1400 CM8150               2AZ
206714003206714112-116038     206714006009681820246TCS CARRIER BAG MIDI   0000001000+00000035+00000+0001T   00000035+0000001712          1400 CM8090               2AZ
206715000206715               206715               170213PM     1400+00000+PM0000003104+0000003104+000000000+000000435+0000003539+0000000000+I40000003539+0000000000+Z
206715001206715077-000376     206715006003000444427GIFT-BAG 25X32CM 2PK   0000001000+00003069+00000+0001T   00003069+0000001801          1400 CM8112               2AZ
206715002206715112-116038     206715006009681820246TCS CARRIER BAG MIDI   0000001000+00000035+00000+0001T   00000035+0000001801          1400 CM8090               2AZ
C20666200                                          170213PM105-001005     12490233SLAVE 2     CM82IC0000000000+0000000000+0040000001000+
M17021391                              CASH        PMSLAVE 2                       Z-REPORT No.   450TOTAL (Sales - Refunds)           8331.67       CASH TO BE BANKED                 1476.80       DEBIT CARDS                          0.00       CREDIT CARDS                      6854.87       Z-READING                         8331.67       AIRTIME DEBIT CARD SALES             0.00       AIRTIME CARD SALES                   0.00       OVERS/UNDERS                         0.00       AIRTIME CASH SALES                   0.00       GIFT CARDS                           0.00       GIFT CARD CASH SALES                 0.00       T O T A L  CASH PAYOUTS              0.00                                                                                                                                                                                                                                                                                                                                                      Z
M17021392                              CASH        PMABSENT                                                                                                                                                                                          ANNUAL LEAVE                                                                                                                                                                                    DAY OFF                                                                                                                                                                                         COMMENTS                                                                                                                                                                                                                                                                                                                                                                                       Z
Y17021300                                          PM00000000730897+000069
ZPM17021406163 SLAVE 2      SALES DATA                     NEXT INVOICE NO.  206716 0450
X PM Slave 2 First invoice 206647 170213 Last invoice 206715 170213 Next invoice 206716 Total number of records 000000337 clbackup completed 06:16:08
