400524000400524               400524               170213PM     1400+00000+PM0000017535+0000017535+000000000+000002455+0000019990+           I90000000000+0000000000+Z
400524001400524174-008023     400524006001023730695PONCHO 132x203cm TWIN-P0000005000+00003507+00000+0001T063498410000                    1400 2IC2052ICV             Z
400525000400525               400525               170213PM     1400+00000+PM0000006139+0000006139+000000000+000000860+0000006999+           I90000000000+0000000000+Z
400525001400525004-079102     400525006003000605033USB POWER BANK 1200MAH 0000001000+00006139+00000+0001T063479740000                    1400 2IC3102ICV             Z
400526000400526               400526               170213PM     1400+00000+PM0000001753+0000001753+000000000+000000246+0000001999+           I90000000000+0000000000+Z
400526001400526080-000103     400526006003000236961CARD&ENVLOPE BDAY-MALE 0000001000+00001753+00000+0001T303475320000                    1400 2IC1122ICV             Z
400527000400527               400527               170213PM     1400+00000+PM0000024558+0000024558+000000000+000003440+0000027998+           I90000000000+0000000000+Z
400527001400527019-000079     400527006001023775726VASE 30cm CRACK-DESIGN 0000002000+00012279+00000+0001T023444800000                    1400 2IC5102ICV             Z
400528000400528               400528               170213PM     1400+00000+PM0000326306+0000326306+000000000+000045751+0000372057+           I90000000000+0000000000+Z
400528001400528024-000107     400528006001023422071MUFFIN-PAN 12-CUP      0000003000+00009648+00000+0001T063271860000                    1400 2IC3002ICV             Z
400528002400528046-000012     400528004897006175759BATTERIES AA  CARD-OF-40000010000+00001314+00000+0001T063271860000                    1400 2IC3122ICV             Z
400528003400528071-002999-A   400528006003000611577PEN STICKBALL 10PCE ASS0000012000+00001753+00000+0001T063271860000                    1400 2IC1302ICV             Z
400528004400528071-005214     400528006003000152544CELLOTAPE SUPER REFILL 0000012000+00001490+00000+0001T063271860000                    1400 2IC1302ICV             Z
400528005400528071-081101-A   400528006003000326549GLUE-STICK 25g BLISTER 0000012000+00000788+00000+0001T063271860000                    1400 2IC1302ICV             Z
400528006400528072-020245     400528006001023617996PET BED FLEECE W/SIDES 0000002000+00014911+00000+0001T063271860000                    1400 2IC8702ICV             Z
400528007400528079-000012     400528006001023120069P/CRAYONS 12-COL LONG  0000060000+00001753+00000+0001T063271860000                    1400 2IC1302ICV             Z
400528008400528079-000341     400528006001023407146FELT-TIP PENS 12PCE    0000012000+00001753+00000+0001T063271860000                    1400 2IC1302ICV             Z
400528009400528105-007525     400528006003000487707STORAGE BOX CLEAR 21L  0000004000+00016665+00000+0001T063271860000                    1400 2IC2102ICV             Z
400528010400528563-000318-G   400528006003000404360SERVIETTES 33cm PINK   0000006000+00002192+00000+0001T063271860000                    1400 2IC2142ICV             Z
M17021391                              CASH        PMSLAVE 4                       Z-REPORT No.   449TOTAL (Sales - Refunds)              0.00       CASH TO BE BANKED                    0.00       DEBIT CARDS                          0.00       CREDIT CARDS                         0.00       Z-READING                            0.00       AIRTIME DEBIT CARD SALES             0.00       AIRTIME CARD SALES                   0.00       OVERS/UNDERS                         0.00       AIRTIME CASH SALES                   0.00       GIFT CARDS                           0.00       GIFT CARD CASH SALES                 0.00       T O T A L  CASH PAYOUTS              0.00                                                                                                                                                                                                                                                                                                                                                      Z
M17021392                              CASH        PMABSENT                                                                                                                                                                                          ANNUAL LEAVE                                                                                                                                                                                    DAY OFF                                                                                                                                                                                         COMMENTS                                                                                                                                                                                                                                                                                                                                                                                       Z
Y17021300                                          PM00000000000000+000000
ZPM17021406163 SLAVE 4      SALES DATA                     NEXT INVOICE NO.  400529 0449
F094394031-005815         1701301113310000032ICSLAVE 4
X PM Slave 4 First invoice 400524 170213 Last invoice 400528 170213 Next invoice 400529 Total number of records 000000024 clbackup completed 06:16:17
