108391000108391               108391               170213PO     1400+00000+PO0000000876+0000000876+000000000+000000123+0000000990+0000000009+I20000000000+0000000990+Z
108391001108391083-000295     108391006001023898562LIGHTER-GAS BUTANE 18ml0000001000+00000876+00000+0001T   00000876+0000000904          1400 JT6315               1AZ
108392000108392               108392               170213PO     1400+00000+PO0000008234+0000008234+000000000+000001157+0000009391+0000000000+I40000009391+0000000000+Z
108392001108392903-003080     108392005907029004673SWT SNACK STIX CHOC 50g0000001000+00000876+00000+0001T   00000876+0000000906          1400 JT6150               1AZ
108392002108392903-002851     108392000000087108538MENTOS ROLL STRAWBERRY 0000001000+00001051+00000+0001T   00001051+0000000906          1400 JT6150               1AZ
108392003108392903-002850     108392000000087108262MENTOS ROLL FRUIT      0000001000+00001051+00000+0001T   00001051+0000000906          1400 JT6150               1AZ
108392004108392903-004950     108392006002580020304SWT APRICOT SURPRISE   0000001000+00001314+00000+0001T   00001314+0000000906          1400 JT6150               1AZ
108392005108392903-002890     108392008935001721352MENTOS GUM PURE F/MINT 0000001000+00001051+00000+0001T   00001051+0000000906          1400 JT6150               1AZ
108392006108392903-002891     108392008935001721376MENTOS GUM WINTERGREEN 0000001000+00001051+00000+0001T   00001051+0000000906          1400 JT6150               1AZ
108392007108392903-004960     108392008410525221842SWT GUMMY STR/BERRY 50G0000001000+00000964+00000+0001T   00000964+0000000906          1400 JT6150               1AZ
108392008108392903-000221     108392006001704007382SWT EENY-MEENY-MOS 60G 0000001000+00000876+00000+0001T   00000876+0000000906          1400 JT6150               1AZ
108393000108393               108393               170213PO     1400+00000+PO0000014640+0000014640+000000000+000002051+0000016691+0000000000+I40000016691+0000000000+Z
108393001108393018-005009     108393006001023725608MUG W/PLUSH-BEAR LOVE  0000001000+00003507+00000+0001T   00003507+0000000919          1400 JT6515               1AZ
108393002108393082-007586     108393006003000654291SUNGLASS DESIGNER ASST 0000001000+00004385+00000+0001T   00004385+0000000919          1400 JT6160               1AZ
108393003108393071-081110     108393006936198405454CORRECTION FLUID PEN   0000001000+00001490+00000+0001T   00001490+0000000919          1400 JT6130               1AZ
108393004108393566-000308     108393006003000522521STICKER TAPE 3PCS      0000001000+00002630+00000+0001T   00002630+0000000919          1400 JT6130               1AZ
108393005108393077-000310     108393006001023608635GIFT-BAG 18X23CM GLOSS 0000002000+00001314+00000+0001T   00001314+0000000919          1400 JT6112               1AZ
108394000108394               108394               170213PO     1400+00000+PO0000033942+0000033942+000000000+000004753+0000038695+0000000000+I40000038695+0000000000+Z
108394001108394466-000004     108394006003000469819PLAY-TENT POP-UP BOY   0000001000+00021928+00000+0001T   00021928+0000000923          1400 JT6785               1AZ
108394002108394105-001066     108394006003000630912CONTAINER CLIP LOCK    0000001000+00001490+00000+0001T   00001490+0000000923          1400 JT6210               1AZ
108394003108394065-006073     108394006003000466504WOODEN RECORDER ASSTD  0000001000+00006139+00000+0001T   00006139+0000000923          1400 JT6745               1AZ
108394004108394065-006076     108394006003000466863WOODEN 2PC MARACAS 19cm0000001000+00004385+00000+0001T   00004385+0000000923          1400 JT6745               1AZ
108395000108395               108395               170213PO     1400+00000+PO0000009516+0000009516+000000000+000001334+0000010850+0000000000+I40000010850+0000000000+Z
108395001108395368-000265     108395006001023750914PLUSH BEAR 23CM ASSTD C0000001000+00006139+00000+0001T   00006139+0000000928          1400 JT6745               1AZ
108395002108395304-001011     108395006001023806727FLWR ROSE RED W/BEAR   0000001000+00000613+00000+0001T   00000788+0006470928          1400 JT6510               1AZ
108395003108395304-001204     108395006001023737984FLOWER OCC. TEDDY/ROSES0000001000+00001402+00000+0001T   00001490+0006470928          1400 JT6510               1AZ
108395004108395903-000194     108395006009826020616SWT CHOC RP LOLLY 25G  0000001000+00001314+00000+0001T   00001314+0000000928          1400 JT6150               1AZ
108395005108395112-116069     108395006009681820277TCS CARRIER BAG JUMBO  0000001000+00000048+00000+0001T   00000048+0000000928          1400 JT6090               1AZ
108396000108396               108396               170213PO     1400+00000+PO0000003189+0000003189+000000000+000000447+0000003636+0000000000+I40000003636+0000000000+Z
108396001108396112-116038     108396006009681820246TCS CARRIER BAG MIDI   0000001000+00000035+00000+0001T   00000035+0000000930          1400 JT6090               1AZ
108396002108396018-000127     108396006001023380289MUG OCC STRAIGHT LOVE  0000001000+00001578+00000+0001T   00001753+0006470930          1400 JT6515               1AZ
108396003108396903-000194     108396006009826020616SWT CHOC RP LOLLY 25G  0000001000+00001314+00000+0001T   00001314+0000000930          1400 JT6150               1AZ
108396004108396903-000216     108396006925925900966SWT MALLOW TWIST ERKO  0000001000+00000262+00000+0001T   00000262+0000000930          1400 JT6150               1AZ
108397000108397               108397               170213PO     1400+00000+PO0000012319+0000012319+000000000+000001729+0000014040+0000000008+I20000000000+0000014040+Z
108397001108397079-000572     108397006003000533633ART+CRAFT O/PASTEL 12PC0000001000+00001753+00000+0001T   00001753+0000000931          1400 JT6130               1AZ
108397002108397566-000007     108397006001023761187S/BOOK SUPER VALUE     0000001000+00001753+00000+0001T   00001753+0000000931          1400 JT6130               1AZ
108397003108397036-000521     108397006003000338184HOOK-HANGER 8-HOOK     0000005000+00001753+00000+0001T   00001753+0000000931          1400 JT6212               1AZ
108397004108397112-116069     108397006009681820277TCS CARRIER BAG JUMBO  0000001000+00000048+00000+0001T   00000048+0000000931          1400 JT6090               1AZ
108398000108398               108398               170213PO     1400+00000+PO0000004385+0000004385+000000000+000000614+0000004990+0000000009+I20000000000+0000004990+Z
108398001108398004-078993     108398006001023716569EARPHONES W/1.1m CORD  0000001000+00004385+00000+0001T   00004385+0000000931          1400 JT6310               1AZ
108399000108399               108399               170213PO     1400+00000+PO0000002540+0000002540+000000000+000000356+0000002890+0000000006+I20000000000+0000002890+Z
108399001108399018-000177     108399006001023797513MUG MINI LOVE ASSTD    0000001000+00000700+00000+0001T   00000700+0000000933          1400 JT6515               1AZ
108399002108399007-000555     108399006001023848239MEMO-PAD MINI LOVE     0000001000+00000613+00000+0001T   00000613+0000000933          1400 JT6130               1AZ
108399003108399251-000041     108399006001023515889SEAL-TAPE BUFF 48mmx50m0000001000+00001227+00000+0001T   00001227+0000000933          1400 JT6810               1AZ
108400000108400               108400               170213PO     1400+00000+PO0000003466+0000003466+000000000+000000487+0000003953+0000000000+I40000003953+0000000000+Z
108400001108400077-000010-C   108400006001023123879CREPE-PAPER RED        0000001000+00000788+00000+0001T   00000788+0000000959          1400 JT6112               1AZ
108400002108400077-000270     108400006003000395453GIFT-BAG PPR JMB 33X45 0000001000+00002630+00000+0001T   00002630+0000000959          1400 JT6112               1AZ
108400003108400112-116069     108400006009681820277TCS CARRIER BAG JUMBO  0000001000+00000048+00000+0001T   00000048+0000000959          1400 JT6090               1AZ
108401000108401               108401               170213PO     1400+00000+PO0000014958+0000014958+000000000+000002095+0000017053+0000000000+I40000017053+0000000000+Z
108401001108401031-000848     108401006001023851901P/FRAME COLLAGE 2ASSTD 0000001000+00004385+00000+0001T   00004385+0000001013          1400 JT6510               1AZ
108401002108401079-012217     108401006003000289202ART+CRAFT PAINT YOUR   0000001000+00010525+00000+0001T   00012279+0008191013          1400 JT6130               1AZ
108401003108401112-116069     108401006009681820277TCS CARRIER BAG JUMBO  0000001000+00000048+00000+0001T   00000048+0000001013          1400 JT6090               1AZ
108402000108402               108402               170213PO     1400+00000+PO0000004734+0000004734+000000000+000000664+0000005398+0000000000+I40000005398+0000000000+Z
108402001108402019-071606     108402006003000678891PEBBLES 500G 3MM WHITE.0000001000+00001490+00000+0001T   00001490+0000001020          1400 JT6510               1AZ
108402002108402046-000400     108402006001023804983BATT ALKALINE 1.5Vx30PC0000001000+00003244+00000+0001T   00003244+0000001020          1400 JT6312               1AZ
108403000108403               108403               170213PO     1400+00000+PO0000010567+0000010567+000000000+000001480+0000012047+0000000000+I40000012047+0000000000+Z
108403001108403105-007400     108403006003000629435CONTAINER MINI 140ml   0000001000+00003507+00000+0001T   00003507+0000001028          1400 JT6210               1AZ
108403002108403206-000520     108403006003000620708NOVELTY BIRTHDAY CANDLE0000001000+00001314+00000+0001T   00001753+0008181028          1400 JT6321               1AZ
108403003108403903-000194     108403006009826020616SWT CHOC RP LOLLY 25G  0000001000+00001314+00000+0001T   00001314+0000001028          1400 JT6150               1AZ
108403004108403566-000359     108403006003000582709STICKER BOOK LOVE SPARK0000001000+00002192+00000+0001T   00002192+0000001028          1400 JT6130               1AZ
108403005108403080-000127     108403006003000424351VALENTINES DAY 36x24CM 0000001000+00002192+00000+0001T   00002192+0000001028          1400 JT6112               1AZ
108403006108403112-116069     108403006009681820277TCS CARRIER BAG JUMBO  0000001000+00000048+00000+0001T   00000048+0000001028          1400 JT6090               1AZ
108404000108404               108404               170213PO     1400+00000+PO0000003680+0000003680+000000000+000000516+0000004190+0000000006+I20000000000+0000004190+Z
108404001108404077-000310     108404006001023608635GIFT-BAG 18X23CM GLOSS 0000001000+00001314+00000+0001T   00001314+0000001055          1400 JT6112               1AZ
108404002108404018-000127     108404006001023380289MUG OCC STRAIGHT LOVE  0000001000+00001578+00000+0001T   00001753+0006471055          1400 JT6515               1AZ
108404003108404903-000200     108404006009826020234SWT CHOC RP CHOCO 23G  0000001000+00000788+00000+0001T   00000788+0000001055          1400 JT6150               1AZ
108405000108405               108405               170213PO     1400+00000+PO0000006623+0000006623+000000000+000000929+0000007550+0000000002+I20000000000+0000007550+Z
108405001108405464-009012     108405006003000469536GAME FISHING           0000001000+00002630+00000+0001T   00002630+0000001339          1400 JT6785               1DZ
108405002108405366-000451     108405006003000653508DRESS UP HEADBAND ASSTD0000001000+00002192+00000+0001T   00002192+0000001339          1400 JT6131               1DZ
108405003108405565-000043     108405006003000109562NOVELTY BALL FUNNY FACE0000001000+00001753+00000+0001T   00001753+0000001339          1400 JT6745               1DZ
108405004108405112-116069     108405006009681820277TCS CARRIER BAG JUMBO  0000001000+00000048+00000+0001T   00000048+0000001339          1400 JT6090               1DZ
108406000108406               108406               170213PO     1400+00000+PO0000008095+0000008095+000000000+000001136+0000009230+0000000001+I20000000000+0000009230+Z
108406001108406903-000194     108406006009826020616SWT CHOC RP LOLLY 25G  0000001000+00001314+00000+0001T   00001314+0000001343          1400 JT6150               1AZ
108406002108406903-000200     108406006009826020234SWT CHOC RP CHOCO 23G  0000001000+00000788+00000+0001T   00000788+0000001343          1400 JT6150               1AZ
108406003108406007-000555     108406006001023848239MEMO-PAD MINI LOVE     0000001000+00000613+00000+0001T   00000613+0000001343          1400 JT6130               1AZ
108406004108406077-000010-C   108406006001023123879CREPE-PAPER RED        0000001000+00000788+00000+0001T   00000788+0000001343          1400 JT6112               1AZ
108406005108406565-000041     108406006008766115642NOVELTY BALL ICON 5.5cm0000001000+00002630+00000+0001T   00002630+0000001343          1400 JT6745               1AZ
108406006108406903-000517     108406006001704012768SWT STRAWS FIZZY CHERRY0000001000+00001227+00000+0001T   00001227+0000001343          1400 JT6150               1AZ
108406007108406564-000012     108406006001023130075BUBBLE BOTTLE MAGIC    0000001000+00000700+00000+0001T   00000700+0000001343          1400 JT6131               1AZ
108406008108406112-116038     108406006009681820246TCS CARRIER BAG MIDI   0000001000+00000035+00000+0001T   00000035+0000001343          1400 JT6090               1AZ
108407000108407               108407               170213PO     1400+00000+PO0000002892+0000002892+000000000+000000405+0000003290+0000000007+I20000000000+0000003290+Z
108407001108407018-000127     108407006001023380289MUG OCC STRAIGHT LOVE  0000001000+00001578+00000+0001T   00001753+0006471345          1400 JT6515               1AZ
108407002108407903-000194     108407006009826020616SWT CHOC RP LOLLY 25G  0000001000+00001314+00000+0001T   00001314+0000001345          1400 JT6150               1AZ
108408000108408               108408               170213PO     1400+00000+PO0000015555+0000015555+000000000+000002179+0000017730+0000000004+I20000000000+0000017730+Z
108408001108408200-000061     108408006003000506996STRAWS DRINKING CURLY  0000001000+00001490+00000+0001T   00001490+0000001347          1400 JT6214               1AZ
108408002108408369-000261     108408006003000233243BABY BATH CRAYONS      0000001000+00004385+00000+0001T   00004385+0000001347          1400 JT6745               1AZ
108408003108408564-000017     108408006003000654468BUBBLE NOVELTY WAND 29 0000001000+00003507+00000+0001T   00003507+0000001347          1400 JT6131               1AZ
108408004108408564-000038     108408006003000470624BUBBLE SPRING 230ml    0000001000+00004385+00000+0001T   00004385+0000001347          1400 JT6131               1AZ
108408005108408565-000050     108408006001023906199SLIME BOMB DISPLAY BOX 0000001000+00001753+00000+0001T   00001753+0000001347          1400 JT6745               1AZ
108408006108408112-116038     108408006009681820246TCS CARRIER BAG MIDI   0000001000+00000035+00000+0001T   00000035+0000001347          1400 JT6090               1AZ
108409000108409               108409               170213PO     1400+00000+PO0000007127+0000007127+000000000+000001004+0000008130+0000000001+I20000000000+0000008130+Z
108409001108409903-000200     108409006009826020234SWT CHOC RP CHOCO 23G  0000009000+00000788+00000+0001T   00000788+0000001348          1400 JT6150               1AZ
108409002108409112-116038     108409006009681820246TCS CARRIER BAG MIDI   0000001000+00000035+00000+0001T   00000035+0000001348          1400 JT6090               1AZ
108410000108410               108410               170213PO     1400+00000+PO0000003155+0000003155+000000000+000000443+0000003590+0000000008+I20000000000+0000003590+Z
108410001108410079-000280     108410006003000160723PAINT READYMIX 6PCE    0000001000+00002630+00000+0001T   00002630+0000001349          1400 JT6130               1AZ
108410002108410903-000077     108410006939873501687SWT GS MAGIC ROCK FRUIT0000001000+00000525+00000+0001T   00000525+0000001349          1400 JT6150               1AZ
108411000108411               108411               170213PO     1400+00000+PO0000005699+0000005699+000000000+000000798+0000006490+0000000007+I20000000000+0000006490+Z
108411001108411040-000216     108411006003000456444C/HOLDER GLS FLORAL    0000001000+00004385+00000+0001T   00004385+0000001350          1400 JT6510               1AZ
108411002108411077-000312     108411006001023608697GIFT-BAG 10X35CM GLOSS 0000001000+00001314+00000+0001T   00001314+0000001350          1400 JT6112               1AZ
108412000108412               108412               170213PO     1400+00000+PO0000020169+0000020169+000000000+000002825+0000022990+0000000004+I20000000000+0000022990+Z
108412001108412018-005009     108412006001023725608MUG W/PLUSH-BEAR LOVE  0000001000+00003507+00000+0001T   00003507+0000001351          1400 JT6515               1AZ
108412002108412368-000265     108412006001023750914PLUSH BEAR 23CM ASSTD C0000001000+00006139+00000+0001T   00006139+0000001351          1400 JT6745               1AZ
108412003108412368-000001     108412006003000097982Plush Bear 25cm        0000002000+00004385+00000+0001T   00004385+0000001351          1400 JT6745               1AZ
108412004108412077-000299-A   108412006003000670888GIFT-BAG PAPER JMB LOVE0000001000+00001753+00000+0001T   00001753+0000001351          1400 JT6112               1AZ
108413000108413               108413               170213PO     1400+00000+PO0000001490+0000001490+000000000+000000209+0000001690+0000000009+I20000000000+0000001690+Z
108413001108413039-000108     108413006001023524034TEA-LITE CANDLES 8PCE  0000001000+00001490+00000+0001T   00001490+0000001351          1400 JT6510               1AZ
108414000108414               108414               170213PO     1400+00000+PO0000007892+0000007892+000000000+000001106+0000008990+0000000008+I20000000000+0000008990+Z
108414001108414007-000547     108414006001023847966N/BOOK/DIARY+PEN ASSTD 0000001000-00004385+00000+0001T   00004385+0000001354          1400 JT61301IC            1 Z
108414002108414007-000547     108414006001023847966N/BOOK/DIARY+PEN ASSTD 0000001000+00004385+00000+0001T   00004385+0000001354          1400 JT61301IC            1AZ
108414003108414077-000457     108414006003000285662G/BAG METALLIC JMB SOL 0000001000+00001753+00000+0001T   00001753+0000001354          1400 JT6112               1AZ
108414004108414007-000890-17  108414006003000645671CALENDAR 2017 ASSTD    0000001000+00006139+00000+0001T   00006139+0000001354          1400 JT6130               1AZ
108415000108415               108415               170213PO     1400+00000+PO0000002452+0000002452+000000000+000000345+0000002790+0000000007+I20000000000+0000002790+Z
108415001108415018-000127     108415006001023380289MUG OCC STRAIGHT LOVE  0000001000+00001578+00000+0001T   00001753+0006471355          1400 JT6515               1AZ
108415002108415080-000133-A   108415006003000647019MINI VALENTINES CARD   0000002000+00000437+00000+0001T   00000437+0000001355          1400 JT6112               1AZ
108416000108416               108416               170213PO     1400+00000+PO0000002540+0000002540+000000000+000000357+0000002890+0000000007+I20000000000+0000002890+Z
108416001108416903-000520     108416006001704009898SWT GUMMY MINI SOUR 60g0000002000+00000876+00000+0001T   00000876+0000001356          1400 JT6150               1AZ
108416002108416077-000383     108416006003000247943GIFT-BAG 11X14CM S/COL 0000001000+00000788+00000+0001T   00000788+0000001356          1400 JT6112               1AZ
108417000108417               108417               170213PO     1400+00000+PO0000001753+0000001753+000000000+000000246+0000001990+0000000009+I20000000000+0000001990+Z
108417001108417200-003024     108417006001023657299REFUSE BAGS 20PCE BLACK0000001000+00001753+00000+0001T   00001753+0000001357          1400 JT6214               1AZ
108418000108418               108418               170213PO     1400+00000+PO0000007014+0000007014+000000000+000000982+0000007990+0000000006+I20000000000+0000007990+Z
108418001108418076-000018     108418006001023777836TWINE NYLON 50g 4PCE   0000002000+00003507+00000+0001T   00003507+0000001357          1400 JT6810               1DZ
108419000108419               108419               170213PO     1400+00000+PO0000017931+0000017931+000000000+000002515+0000020446+0000000000+I40000020446+0000000000+Z
108419001108419566-000858     108419006001023760975STCKRS G/OUTLINE ASSTD 0000006000+00000788+00000+0001T   00000788+0000001406          1400 JT6130               1AZ
108419002108419079-130010     108419006003000496624ART+CRAFT FOAM DOLLS   0000003000+00004385+00000+0001T   00004385+0000001406          1400 JT6130               1AZ
108419003108419112-116069     108419006009681820277TCS CARRIER BAG JUMBO  0000001000+00000048+00000+0001T   00000048+0000001406          1400 JT6090               1AZ
108420000108420               108420               170213PO     1400+00000+PO0000003156+0000003156+000000000+000000444+0000003600+0000000000+I40000003600+0000000000+Z
108420001108420079-009702-B   108420008427973059491PAPER SIRIO A2 WHITE   0000001000+00001051+00000+0001T   00001051+0000001409          1400 JT6130               1AZ
108420002108420079-009700-D   108420006003000545711PAPER SIRIO A4 RED COL.0000001000+00000306+00000+0001T   00000306+0000001409          1400 JT6130               1AZ
108420003108420566-002000     108420000721129013206STICKERS CRYSTAL ASSTD 0000001000+00000700+00000+0001T   00000700+0000001409          1400 JT6130               1AZ
108420004108420903-002850     108420000000087108262MENTOS ROLL FRUIT      0000001000+00001051+00000+0001T   00001051+0000001409          1400 JT6150               1AZ
108420005108420112-116069     108420006009681820277TCS CARRIER BAG JUMBO  0000001000+00000048+00000+0001T   00000048+0000001409          1400 JT6090               1AZ
108421000108421               108421               170213PO     1400+00000+PO0000005260+0000005260+000000000+000000737+0000005990+0000000007+I20000000000+0000005990+Z
108421001108421106-001110     108421006001023857880SPORTS-BOTTLES SET-OF-20000001000+00003507+00000+0001T   00003507+0000001448          1400 JT6210               1AZ
108421002108421108-001005     108421006001023803276MUG SIPPER W/STRAW     0000001000+00001753+00000+0001T   00001753+0000001448          1400 JT6210               1AZ
108422000108422               108422               170213PO     1400+00000+PO0000008802+0000008802+000000000+000001233+0000010035+0000000000+I40000010035+0000000000+Z
108422001108422112-116038     108422006009681820246TCS CARRIER BAG MIDI   0000001000+00000035+00000+0001T   00000035+0000001450          1400 JT6090               1AZ
108422002108422077-000011     108422006003000542352PAPER RAFFIA ASSTD COL 0000001000+00001753+00000+0001T   00001753+0000001450          1400 JT6112               1AZ
108422003108422560-000300     108422006001023714879DINOSAURS 12PC         0000001000+00003507+00000+0001T   00003507+0000001450          1400 JT6745               1AZ
108422004108422071-005060     108422006003000152186CELLOTAPE 2PACK INVSBLE0000001000+00003507+00000+0001T   00003507+0000001450          1400 JT6130               1AZ
108423000108423               108423               170213PO     1400+00000+PO0000010464+0000010464+000000000+000001484+0000011948+0000000000+I40000011948+0000000000+Z
108423001108423112-116038     108423006009681820246TCS CARRIER BAG MIDI   0000001000+00000035+00000+0001T   00000035+0000001454          1400 JT6090               1AZ
108423002108423006-000173-C   108423006003000636518BALLOONS 1PC PINK      0000018000+00000218+00000+0001T   00000218+0000001454          1400 JT6131               1AZ
108423003108423564-000012     108423006001023130075BUBBLE BOTTLE MAGIC    0000001000+00000700+00000+0001T   00000700+0000001454          1400 JT6131               1AZ
108423004108423006-000172-H   108423006003000610211BALLOONS METALLIC RED  0000001000+00000218+00000+0001T   00000218+0000001454          1400 JT6131               1AZ
108423005108423006-000171-C   108423006003000609178BALLOONS 1PC D/GRN PRNT0000020000+00000218+00000+0001T   00000218+0000001454          1400 JT6131               1AZ
108423006108423077-000245     108423006001023759214GIFT-RIBBON METALLICx2 0000001000+00001227+00000+0001T   00001227+0000001454          1400 JT6112               1AZ
108424000108424               108424               170213PO     1400+00000+PO0000014063+0000014063+000000000+000001969+0000016030+0000000002+I20000000000+0000016030+Z
108424001108424031-000856     108424006001023852113P/FRAME PL BROWN 10X15 0000004000+00003507+00000+0001T   00003507+0000001458          1400 JT6510               1AZ
108424002108424112-116038     108424006009681820246TCS CARRIER BAG MIDI   0000001000+00000035+00000+0001T   00000035+0000001458          1400 JT6090               1AZ
108425000108425               108425               170213PO     1400+00000+PO0000000788+0000000788+000000000+000000111+0000000890+0000000009+I20000000000+0000000890+Z
108425001108425903-000200     108425006009826020234SWT CHOC RP CHOCO 23G  0000001000+00000788+00000+0001T   00000788+0000001459          1400 JT6150               1AZ
108426000108426               108426               170213PO     1400+00000+PO0000001753+0000001753+000000000+000000246+0000001999+0000000000+I40000001999+0000000000+Z
108426001108426079-006496     108426006003000160105GLITTER SHAKERS        0000001000+00001753+00000+0001T   00001753+0000001500          1400 JT6130               1AZ
108427000108427               108427               170213PO     1400+00000+PO0000002630+0000002630+000000000+000000369+0000002990+0000000009+I20000000000+0000002990+Z
108427001108427016-006425     108427006001023998170S/JAR GLS CLIP W/RIBBON0000001000+00002630+00000+0001T   00002630+0000001501          1400 JT6300               1AZ
108428000108428               108428               170213PO     1400+00000+PO0000036832+0000036832+000000000+000005158+0000041990+0000000000+I20000000000+0000041990+Z
108428001108428007-000546     108428006001023847935NOTEBOOK 4PCE ASSTD DES0000001000+00002630+00000+0001T   00002630+0000001503          1400 JT6130               1AZ
108428002108428159-000102     108428006001023552891SHOWER-CADDY 48cm      0000001000+00003507+00000+0001T   00003507+0000001503          1400 JT6200               1AZ
108428003108428051-600671     108428006001023552730GARDEN-FENCE PL-CTD 5PC0000007000+00004385+00000+0001T   00004385+0000001503          1400 JT6820               1AZ
108429000108429               108429               170213PO     1400+00000+PO0000028068+0000028068+000000000+000003930+0000031998+0000000000+I40000031998+0000000000+Z
108429001108429031-001001     108429006003000253265P/FRAME COL FAM-TREE   0000001000+00014911+00000+0001T   00014911+0000001625          1400 JT6510               1AZ
108429002108429486-001001     108429006003000530854W/CLOCK QTZ 30cm ROUND 0000001000+00013157+00000+0001T   00013157+0000001625          1400 JT6510               1AZ
108430000108430               108430               170213PO     1400+00000+PO0000000700+0000000700+000000000+000000098+0000000790+0000000008+I20000000000+0000000790+Z
108430001108430033-010721     108430006001023678669SAFETY-PINS 20PCE ASSTD0000001000+00000700+00000+0001T   00000700+0000001625          1400 JT6200               1AZ
108431000108431               108431               170213PO     1400+00000+PO0000010259+0000010259+000000000+000001437+0000011690+0000000006+I20000000000+0000011690+Z
108431001108431566-002000     108431000721129013206STICKERS CRYSTAL ASSTD 0000001000+00000700+00000+0001T   00000700+0000001627          1400 JT6130               1AZ
108431002108431566-000858     108431006001023760975STCKRS G/OUTLINE ASSTD 0000001000+00000788+00000+0001T   00000788+0000001627          1400 JT6130               1AZ
108431003108431365-003047     108431006001023859891PLAY SET 20PCE TEA SET 0000001000+00008771+00000+0001T   00010525+0008191627          1400 JT6725               1AZ
108432000108432               108432               170213PO     1400+00000+PO0000026611+0000026611+000000000+000003729+0000030340+0000000000+I40000030340+0000000000+Z
108432001108432018-030000     108432006003000421060MUG OCCASIONS LOVE 2PCE0000003000+00004385+00000+0001T   00004385+0000001645          1400 JT6515               1AZ
108432002108432903-000194     108432006009826020616SWT CHOC RP LOLLY 25G  0000003000+00001314+00000+0001T   00001314+0000001645          1400 JT6150               1AZ
108432003108432112-116069     108432006009681820277TCS CARRIER BAG JUMBO  0000001000+00000048+00000+0001T   00000048+0000001645          1400 JT6090               1AZ
108432004108432206-000370     108432006003000631315STRAW P/DRINKING GLASS 0000001000+00001753+00000+0001T   00001753+0000001645          1400 JT6321               1AZ
108432005108432206-000450     108432006003000619863DRINKING JAR GLOBE     0000002000+00002630+00000+0001T   00002630+0000001645          1400 JT6321               1AZ
108432006108432071-001015     108432006001023910387MARKERS PERMANENT 3PK  0000001000+00001753+00000+0001T   00001753+0000001645          1400 JT6130               1AZ
108432007108432007-000104     108432006009685854865BK COVER BRWN KRFT ROLL0000002000+00000350+00000+0001T   00000350+0000001645          1400 JT6130               1AZ
108433000108433               108433               170213PO     1400+00000+PO0000008550+0000008550+000000000+000001200+0000009750+0000000000+I40000009750+0000000000+Z
108433001108433112-116069     108433006009681820277TCS CARRIER BAG JUMBO  0000001000+00000048+00000+0001T   00000048+0000001651          1400 JT6090               1AZ
108433002108433105-001100     108433006003000667536CONTAINER SET LITE 2PC 0000002000+00002630+00000+0001T   00002630+0000001651          1400 JT6210               1AZ
108433003108433028-000795     108433006001023812063SKEWERS 10cm 100PCE 3mm0000001000+00000964+00000+0001T   00000964+0000001651          1400 JT6305               1AZ
108433004108433028-000797     108433006001023812124SKEWERS 15cm 100PCE    0000001000+00000876+00000+0001T   00000876+0000001651          1400 JT6305               1AZ
108433005108433105-001005     108433006001023858214CONTAINERS MINI 6PCE   0000001000+00001402+00000+0001T   00001402+0000001651          1400 JT6210               1AZ
108434000108434               108434               170213PO     1400+00000+PO0000002192+0000002192+000000000+000000307+0000002490+0000000009+I20000000000+0000002490+Z
108434001108434050-000363-Z   108434006001023475282PADLOCK IRON 32mm CARD 0000001000+00002192+00000+0001T   00002192+0000001654          1400 JT6855               1AZ
108435000108435               108435               170213PO     1400+00000+PO0000004822+0000004822+000000000+000000676+0000005498+0000000000+I40000005498+0000000000+Z
108435001108435200-000031-A   108435006003000598717DISPOSABLE ROLL FOIL   0000001000+00002630+00000+0001T   00002630+0000001655          1400 JT6214               1AZ
108435002108435200-000020     108435006925406841030BAG ZIPPERSEAL 25PC    0000001000+00002192+00000+0001T   00002192+0000001655          1400 JT6214               1AZ
108436000108436               108436               170213PO     1400+00000+PO0000002454+0000002454+000000000+000000344+0000002790+0000000008+I20000000000+0000002790+Z
108436001108436077-000302     108436008010410010195GIFT-BAG 18X23CM E/D   0000001000+00000876+00000+0001T   00000876+0000001714          1400 JT6112               1AZ
108436002108436018-000127     108436006001023380289MUG OCC STRAIGHT LOVE  0000001000+00001578+00000+0001T   00001753+0006471714          1400 JT6515               1AZ
108437000108437               108437               170213PO     1400+00000+PO0000003554+0000003554+000000000+000000499+0000004050+0000000003+I20000000000+0000004050+Z
108437001108437002-000015     108437006003000555604CAPPUCCINO STENCILS 12P0000001000+00001753+00000+0001T   00001753+0000001715          1400 JT6300               1AZ
108437002108437024-091103-E   108437006003000596300CAKE BOX 2PC SQUARE    0000001000+00001753+00000+0001T   00001753+0000001715          1400 JT6300               1AZ
108437003108437112-116069     108437006009681820277TCS CARRIER BAG JUMBO  0000001000+00000048+00000+0001T   00000048+0000001715          1400 JT6090               1AZ
108438000108438               108438               170213PO     1400+00000+PO0000007013+0000007013+000000000+000000984+0000007997+0000000000+I40000007997+0000000000+Z
108438001108438079-013032     108438006003000389209SET LETTERS 2 ASSTD    0000001000+00001753+00000+0001T   00001753+0000001718          1400 JT6130               1AZ
108438002108438174-000312     108438006003000053483TRAVEL PADLCK CMB RESET0000001000+00002630+00000+0001T   00003069+0008171718          1400 JT6205               1AZ
108438003108438007-000718     108438006003000226672NOTE MAGNETIC WKLY PLNR0000001000+00002630+00000+0001T   00002630+0000001718          1400 JT6130               1AZ
108439000108439               108439               170213PO     1400+00000+PO0000001753+0000001753+000000000+000000246+0000001990+0000000009+I20000000000+0000001990+Z
108439001108439006-000120     108439006001023346889BALLOONS 10PC MIX COL  0000001000+00001753+00000+0001T   00001753+0000001722          1400 JT6131               1AZ
108440000108440               108440               170213PO     1400+00000+PO0000007893+0000007893+000000000+000001106+0000008990+0000000009+I20000000000+0000008990+Z
108440001108440264-000925-350 108440006003000595389BURAGO 1:43 FERRARI    0000001000+00007893+00000+0001T   00007893+0000001723          1400 JT6710               1AZ
108441000108441               108441               170213PO     1400+00000+PO0000004385+0000004385+000000000+000000614+0000004999+0000000000+I40000004999+0000000000+Z
108441001108441403-000508     108441006001023691309M-BANK PIGGY W/HAMMER  0000001000+00004385+00000+0001T   00004385+0000001728          1400 JT6510               1AZ
108442000108442               108442               170213PO     1400+00000+PO0000002892+0000002892+000000000+000000406+0000003290+0000000008+I20000000000+0000003290+Z
108442001108442077-000235     108442006003000160211GIFT-RIBBON ROLL METALC0000001000+00002630+00000+0001T   00002630+0000001729          1400 JT6112               1AZ
108442002108442903-000216     108442006925925900966SWT MALLOW TWIST ERKO  0000001000+00000262+00000+0001T   00000262+0000001729          1400 JT6150               1AZ
108443000108443               108443               170213PO     1400+00000+PO0000012279+0000012279+000000000+000001720+0000013999+0000000000+I40000013999+0000000000+Z
108443001108443368-000111     108443006001023780812PLUSH BEAR/DOG 29CM    0000001000+00012279+00000+0001T   00012279+0000001741          1400 JT6745               1AZ
108444000108444               108444               170213PO     1400+00000+PO0000031608+0000031608+000000000+000004435+0000036043+0000000000+I40000036043+0000000000+Z
108444001108444079-000260     108444006001023886385PAINT TUBS WT BASE 4COL0000012000+00002630+00000+0001T   00002630+0000001746          1400 JT6130               1AZ
108444002108444112-116069     108444006009681820277TCS CARRIER BAG JUMBO  0000001000+00000048+00000+0001T   00000048+0000001746          1400 JT6090               1AZ
108445000108445               108445               170213PO     1400+00000+PO0000023727+0000023727+000000000+000003324+0000027051+0000000000+I40000027051+0000000000+Z
108445001108445007-000898     108445006001023871947BOOK JOURNAL           0000001000+00006139+00000+0001T   00006139+0000001803          1400 JT6130               1AZ
108445002108445079-000275     108445006003000160488PAINT-BRUSHES 6PCE PRO 0000001000+00001753+00000+0001T   00001753+0000001803          1400 JT6130               1AZ
108445003108445305-074068     108445006001023869128WIND-CHIMES BAMBOO 30CM0000001000+00007016+00000+0001T   00007016+0000001803          1400 JT6505               1AZ
108445004108445586-096177     108445006001492961774WATCH LADIES RND SILVER0000001000+00008771+00000+0001T   00008771+0000001803          1400 JT6160               1AZ
108445005108445112-116069     108445006009681820277TCS CARRIER BAG JUMBO  0000001000+00000048+00000+0001T   00000048+0000001803          1400 JT6090               1AZ
108446000108446               108446               170213PO     1400+00000+PO0000002665+0000002665+000000000+000000374+0000003030+0000000009+I20000000000+0000003030+Z
108446001108446024-000212-A   108446006003000420155C/CUTTER SET ASSTD     0000001000+00002630+00000+0001T   00002630+0000001807          1400 JT6300               1AZ
108446002108446112-116038     108446006009681820246TCS CARRIER BAG MIDI   0000001000+00000035+00000+0001T   00000035+0000001807          1400 JT6090               1AZ
108447000108447               108447               170213PO     1400+00000+PO0000002223+0000002223+000000000+000000313+0000002530+0000000006+I20000000000+0000002530+Z
108447001108447077-000245     108447006001023759214GIFT-RIBBON METALLICx2 0000001000+00001227+00000+0001T   00001227+0000001808          1400 JT6112               1AZ
108447002108447903-000099     108447006923431501646SWT CANDY GS WTCH B/LET0000002000+00000262+00000+0001T   00000262+0000001808          1400 JT6150               1AZ
108447003108447903-000094     108447006923431501622SWT GS CANDY NECKLACE  0000001000+00000437+00000+0001T   00000437+0000001808          1400 JT6150               1AZ
108447004108447112-116038     108447006009681820246TCS CARRIER BAG MIDI   0000001000+00000035+00000+0001T   00000035+0000001808          1400 JT6090               1AZ
108448000108448               108448               170213PO     1400+00000+PO0000003946+0000003946+000000000+000000553+0000004490+0000000009+I20000000000+0000004490+Z
108448001108448031-000845     108448006001023851819PICTURE-FRAME ASSTD    0000001000+00003946+00000+0001T   00003946+0000001816          1400 JT6510               1AZ
A17021300                                          14483250POSLAVE 1                       JT62IC
A17021301                                          16465523POSLAVE 1                       JT61IC
A17021302                                          16474384POSLAVE 1                       JT61IC
M17021391                              CASH        POSLAVE 1                       Z-REPORT No.   183TOTAL (Sales - Refunds)           5798.77       CASH TO BE BANKED                 2464.60       DEBIT CARDS                          0.00       CREDIT CARDS                      3334.17       Z-READING                         5798.77       AIRTIME DEBIT CARD SALES             0.00       AIRTIME CARD SALES                   0.00       OVERS/UNDERS                         0.00       AIRTIME CASH SALES                   0.00       GIFT CARDS                           0.00       GIFT CARD CASH SALES                 0.00       T O T A L  CASH PAYOUTS              0.00                                                                                                                                                                                                                                                                                                                                                      Z
M17021392                              CASH        POABSENT                                                                                                                                                                                          ANNUAL LEAVE                                                                                                                                                                                    DAY OFF                                                                                                                                                                                         COMMENTS                                                                                                          THANKS PO                                                                                                                                                                                                                                                                    Z
Y17021300                                          PO00000000513160+000058
ZPO17021320203 SLAVE 1      SALES DATA                     NEXT INVOICE NO.  108449 0183
X PO Slave 1 First invoice 108391 170213 Last invoice 108448 170213 Next invoice 108449 Total number of records 000000235 clbackup completed 20:20:41
