200081000200081               200081               170213PO     1400+00000+PO0000002630+0000002630+000000000+000000369+0000002990+0000000009+I20000000000+0000002990+Z
200081001200081004-071192     200081006003000528813USB CABLE 1.0m         0000001000+00002630+00000+0001T   00002630+0000000912          1400 MJ2310               2AZ
200082000200082               200082               170213PO     1400+00000+PO0000003243+0000003243+000000000+000000455+0000003690+0000000008+I20000000000+0000003690+Z
200082001200082016-006601     200082006001023446121S/JAR GLS MINI W/CLIP  0000001000+00001490+00000+0001T   00001490+0000000920          1400 LM1300               2AZ
200082002200082078-000480     200082006008741002332BOSTIK SHOE-REPAIR 25ml0000001000+00001753+00000+0001T   00001753+0000000920          1400 LM1810               2AZ
200083000200083               200083               170213PO     1400+00000+PO0000008501+0000008501+000000000+000001193+0000009690+0000000004+I20000000000+0000009690+Z
200083001200083903-000517     200083006001704012768SWT STRAWS FIZZY CHERRY0000002000+00001227+00000+0001T   00001227+0000000922          1400 LM1150               2AZ
200083002200083140-001004     200083006001023880932FLY-RIBBONS 4PCE PL    0000001000+00001490+00000+0001T   00001490+0000000922          1400 LM1830               2AZ
200083003200083200-003024     200083006001023657299REFUSE BAGS 20PCE BLACK0000001000+00001753+00000+0001T   00001753+0000000922          1400 LM1214               2AZ
200083004200083033-000125     200083006009654960658COMBS GENTS MINI 2PC   0000001000+00001051+00000+0001T   00001051+0000000922          1400 LM1200               2AZ
200083005200083077-000316     200083006001023609731GIFT-BAG 25X32CM MATT  0000001000+00001753+00000+0001T   00001753+0000000922          1400 LM1112               2AZ
200084000200084               200084               170213PO     1400+00000+PO0000028981+0000028981+000000000+000004059+0000033040+0000000000+I20000000000+0000033040+Z
200084001200084112-116069     200084006009681820277TCS CARRIER BAG JUMBO  0000001000+00000048+00000+0001T   00000048+0000001005          1400 LM1090               2AZ
200084002200084079-000261     200084006003000159727PAINT WATER COLOUR CAKE0000003000+00004385+00000+0001T   00004385+0000001005          1400 LM1130               2AZ
200084003200084567-011354     200084006003000638161BK STICKER PRINCESS    0000001000+00003507+00000+0001T   00003507+0000001005          1400 LM1757               2AZ
200084004200084565-000014     200084006003000671915NOVELTY AIR BALLOON    0000001000+00002630+00000+0001T   00002630+0000001005          1400 LM1745               2AZ
200084005200084362-002430     200084006001023707314HAIR ACCESS SHINY PURSE0000001000+00004385+00000+0001T   00004385+0000001005          1400 LM1160               2AZ
200084006200084903-000194     200084006009826020616SWT CHOC RP LOLLY 25G  0000004000+00001314+00000+0001T   00001314+0000001005          1400 LM1150               2AZ
200085000200085               200085               170213PO     1400+00000+PO0000000000+0000000000+000000000+000000000+0000000000+0000000000+I20000000000+0000000000+Z
200085001200085046-000400     200085006001023804983BATT ALKALINE 1.5Vx30PC0000001000-00003244+00000+0001T   00003244+0000001027          1400 LM13121IC            2 Z
200085002200085046-000400     200085006001023804983BATT ALKALINE 1.5Vx30PC0000001000+00003244+00000+0001T   00003244+0000001027          1400 LM13121IC            2 Z
200086000200086               200086               170213PO     1400+00000+PO0000041158+0000041158+000000000+000005774+0000046932+0000000000+I40000046932+0000000000+Z
200086001200086112-116069     200086006009681820277TCS CARRIER BAG JUMBO  0000001000+00000048+00000+0001T   00000048+0000001042          1400 LM1090               2AZ
200086002200086566-000367     200086006003000645558STICKER WINDOW DECOR   0000001000+00002630+00000+0001T   00002630+0000001042          1400 LM1130               2AZ
200086003200086562-002009     200086006003000228423EDU SPELLING PUZZLES   0000001000+00007016+00000+0001T   00007016+0000001042          1400 LM1755               2AZ
200086004200086080-000100     200086006003000236114CARD & ENVELOPE BDAY   0000001000+00001753+00000+0001T   00001753+0000001042          1400 LM1112               2AZ
200086005200086368-000040     200086006003000671786PLUSH ICONS 7.5cm      0000003000+00002630+00000+0001T   00002630+0000001042          1400 LM1745               2AZ
200086006200086304-001011     200086006001023806727FLWR ROSE RED W/BEAR   0000002000+00000613+00000+0001T   00000788+0006471042          1400 LM1510               2AZ
200086007200086018-000170     200086006001023775528MUG OCC. LOVE 2PC MINI 0000001000+00002192+00000+0001T   00002192+0000001042          1400 LM1515               2AZ
200086008200086368-000265     200086006001023750914PLUSH BEAR 23CM ASSTD C0000001000+00006139+00000+0001T   00006139+0000001042          1400 LM1745               2AZ
200086009200086089-000018     200086006003000176724KEY CHAIN INSPIRATION  0000001000+00003507+00000+0001T   00003507+0000001042          1400 LM1205               2AZ
200086010200086018-000177     200086006001023797513MUG MINI LOVE ASSTD    0000001000+00000700+00000+0001T   00000700+0000001042          1400 LM1515               2AZ
200086011200086007-000555     200086006001023848239MEMO-PAD MINI LOVE     0000001000+00000613+00000+0001T   00000613+0000001042          1400 LM1130               2AZ
200086012200086903-000200     200086006009826020234SWT CHOC RP CHOCO 23G  0000005000+00000788+00000+0001T   00000788+0000001042          1400 LM1150               2AZ
200086013200086903-000591     200086006003000563616SWEET ANIMAL 24cm      0000001000+00002630+00000+0001T   00002630+0000001042          1400 LM1150               2AZ
200086014200086080-000133     200086006003000535613CARD&ENV MINI ASTD DSGN0000001000+00000437+00000+0001T   00000437+0000001042          1400 LM1112               2AZ
200086015200086080-000133-A   200086006003000647019MINI VALENTINES CARD   0000001000+00000437+00000+0001T   00000437+0000001042          1400 LM1112               2AZ
200087000200087               200087               170213PO     1400+00000+PO0000018467+0000018467+000000000+000002586+0000021053+0000000000+I40000021053+0000000000+Z
200087001200087464-000123     200087006003000646081GAME POKER PLAY SET    0000001000+00013157+00000+0001T   00013157+0000001348          1400 MJ2785               2AZ
200087002200087464-009104     200087006001023620279GAME POOL-TABLE 25x42cm0000001000+00005262+00000+0001T   00005262+0000001348          1400 MJ2785               2AZ
200087003200087112-116069     200087006009681820277TCS CARRIER BAG JUMBO  0000001000+00000048+00000+0001T   00000048+0000001348          1400 MJ2090               2AZ
200088000200088               200088               170213PO     1400+00000+PO0000015330+0000015330+000000000+000002175+0000017505+0000000000+I40000017505+0000000000+Z
200088001200088112-116038     200088006009681820246TCS CARRIER BAG MIDI   0000001000+00000035+00000+0001T   00000035+0000001351          1400 MJ2090               2AZ
200088002200088080-000133-A   200088006003000647019MINI VALENTINES CARD   0000021000+00000437+00000+0001T   00000437+0000001351          1400 MJ2112               2AZ
200088003200088080-000133     200088006003000535613CARD&ENV MINI ASTD DSGN0000014000+00000437+00000+0001T   00000437+0000001351          1400 MJ2112               2AZ
200089000200089               200089               170213PO     1400+00000+PO0000015784+0000015784+000000000+000002212+0000017990+0000000006+I20000000000+0000017990+Z
200089001200089007-000047     200089006009635833698FILE DISPLAY-BK A4 50PG0000004000+00003946+00000+0001T   00003946+0000001359          1400 MJ2130               2AZ
200090000200090               200090               170213PO     1400+00000+PO0000003068+0000003068+000000000+000000430+0000003490+0000000008+I20000000000+0000003490+Z
200090001200090077-000299     200090006003000395576G/BAG 32x25cm LRG LOVE 0000001000+00001490+00000+0001T   00001490+0000001401          1400 MJ2112               2AZ
200090002200090018-000127     200090006001023380289MUG OCC STRAIGHT LOVE  0000001000+00001578+00000+0001T   00001753+0006471401          1400 MJ2515               2AZ
200091000200091               200091               170213PO     1400+00000+PO0000003944+0000003944+000000000+000000553+0000004490+0000000007+I20000000000+0000004490+Z
200091001200091108-003022     200091006003000598830TUMBLER W/STRAW & SCREW0000001000+00003507+00000+0001T   00003507+0000001402          1400 MJ2210               2AZ
200091002200091080-000133-A   200091006003000647019MINI VALENTINES CARD   0000001000+00000437+00000+0001T   00000437+0000001402          1400 MJ2112               2AZ
200092000200092               200092               170213PO     1400+00000+PO0000018851+0000018851+000000000+000002642+0000021490+0000000003+I20000000000+0000021490+Z
200092001200092077-000235     200092006001024024434GIFT-RIBBON ROLL METALC0000001000+00002630+00000+0001T   00002630+0000001406          1400 MJ2112               2DZ
200092002200092012-000001     200092000043055252772MICRO PLATE-COVER 26X6 0000001000+00001753+00000+0001T   00002192+0008191406          1400 MJ2300               2DZ
200092003200092566-000451     200092000721129023472STICKERS GLITTER ASSTD 0000001000+00001314+00000+0001T   00001753+0008151406          1400 MJ2130               2DZ
200092004200092077-000005-B   200092006003000326617PAPER TISSUE PATTERN   0000001000+00002630+00000+0001T   00002630+0000001406          1400 MJ2112               2DZ
200092005200092019-000122     200092006001023809582PLANTER GALV 22cm ROUND0000002000+00005262+00000+0001T   00005262+0000001406          1400 MJ2510               2DZ
200093000200093               200093               170213PO     1400+00000+PO0000023697+0000023697+000000000+000003323+0000027020+0000000000+I20000000000+0000027020+Z
200093001200093079-009702-D   200093008427973059354PAPER SIRIO A2 RED COL 0000004000+00001051+00000+0001T   00001051+0000001409          1400 MJ2130               2DZ
200093002200093079-009702-B   200093008427973059491PAPER SIRIO A2 WHITE   0000001000+00001051+00000+0001T   00001051+0000001409          1400 MJ2130               2DZ
200093003200093006-000190     200093006003000685530BALLOONS LOVE 81x91cm  0000002000+00004385+00000+0001T   00004385+0000001409          1400 MJ2131               2DZ
200093004200093006-000166-H   200093006003000608096BALLOONS HELIUM 6PC WHT0000003000+00001314+00000+0001T   00001314+0000001409          1400 MJ2131               2DZ
200093005200093006-000166-D   200093006003000516490BALLOONS LRG 6PC RED   0000003000+00001314+00000+0001T   00001314+0000001409          1400 MJ2131               2DZ
200093006200093077-000011     200093006003000542352PAPER RAFFIA ASSTD COL 0000001000+00001753+00000+0001T   00001753+0000001409          1400 MJ2112               2DZ
200093007200093112-116038     200093006009681820246TCS CARRIER BAG MIDI   0000001000+00000035+00000+0001T   00000035+0000001409          1400 MJ2090               2DZ
200094000200094               200094               170213PO     1400+00000+PO0000000788+0000000788+000000000+000000111+0000000890+0000000009+I20000000000+0000000890+Z
200094001200094566-000858     200094006001023760975STCKRS G/OUTLINE ASSTD 0000001000+00000788+00000+0001T   00000788+0000001409          1400 MJ2130               2AZ
200095000200095               200095               170213PO     1400+00000+PO0000010559+0000010559+000000000+000001479+0000012030+0000000008+I20000000000+0000012030+Z
200095001200095080-000113     200095006003000237449CARD&ENVLPE - LOVE     0000001000+00001753+00000+0001T   00001753+0000001411          1400 MJ2112               2DZ
200095002200095001-091415     200095006003000329113W/GLS OCC. LOVE 2PC 2800000001000+00008771+00000+0001T   00009648+0006471411          1400 MJ2515               2DZ
200095003200095112-116038     200095006009681820246TCS CARRIER BAG MIDI   0000001000+00000035+00000+0001T   00000035+0000001411          1400 MJ2090               2DZ
200096000200096               200096               170213PO     1400+00000+PO0000001753+0000001753+000000000+000000246+0000001990+0000000009+I20000000000+0000001990+Z
200096001200096077-000358     200096006003000329977GIFT-BAG KIDS 25X32CM  0000001000+00001753+00000+0001T   00001753+0000001411          1400 MJ2112               2AZ
200097000200097               200097               170213PO     1400+00000+PO0000015560+0000015560+000000000+000002181+0000017740+0000000001+I20000000000+0000017740+Z
200097001200097079-009700-D   200097006003000545711PAPER SIRIO A4 RED COL.0000001000+00000306+00000+0001T   00000306+0000001421          1400 MJ2130               2AZ
200097002200097051-002401     200097006001023523570TRIGGER-SPRAYER   300ml0000001000+00001490+00000+0001T   00001490+0000001421          1400 MJ2820               2AZ
200097003200097039-000319-1   200097006003000442386B/CANDLES LRG NUMBER-1 0000001000+00000876+00000+0001T   00000876+0000001421          1400 MJ2510               2AZ
200097004200097006-000788     200097006001023990228CROWN HAPPY BIRTHDAY   0000001000+00001490+00000+0001T   00001490+0000001421          1400 MJ2131               2AZ
200097005200097006-000097     200097006003000376612PARTY WIND SPINNER     0000001000+00003507+00000+0001T   00003507+0000001421          1400 MJ2131               2AZ
200097006200097006-000201-B   200097006003000601271PARTY BOYS DSGN A 8PC  0000002000+00001753+00000+0001T   00001753+0000001421          1400 MJ2131               2AZ
200097007200097361-000249     200097006001023793706DOLL 29cm FASION  ASSTD0000001000+00004385+00000+0001T   00005262+0008191421          1400 MJ2725               2AZ
200098000200098               200098               170213PO     1400+00000+PO0000003946+0000003946+000000000+000000553+0000004499+0000000000+I40000004499+0000000000+Z
200098001200098368-000152     200098006003000166886PLUSH BEAR 15cm        0000001000+00003946+00000+0001T   00005262+0008141429          1400 MJ2745               2AZ
200099000200099               200099               170213PO     1400+00000+PO0000012747+0000012747+000000000+000001787+0000014534+0000000000+I40000014534+0000000000+Z
200099001200099112-116038     200099006009681820246TCS CARRIER BAG MIDI   0000001000+00000035+00000+0001T   00000035+0000001441          1400 MJ2090               2AZ
200099002200099079-000358     200099006003000591046ART+CRAFT FELT-TIP PENS0000001000+00003069+00000+0001T   00003069+0000001441          1400 MJ2130               2AZ
200099003200099466-000058     200099006003000612574BALL GLOW IN DARK ALIEN0000001000+00002630+00000+0001T   00002630+0000001441          1400 MJ2785               2AZ
200099004200099565-000055     200099006003000028252NOVELTY B/O FINGR-BEAMS0000001000+00001753+00000+0001T   00001753+0000001441          1400 MJ2745               2AZ
200099005200099560-000116     200099006003000592111ANIMALS FUNNY ANIMALS  0000001000+00003507+00000+0001T   00003507+0000001441          1400 MJ2745               2AZ
200099006200099565-000002     200099006003000308071NOVELTY GROWING ANIMALS0000001000+00001753+00000+0001T   00001753+0000001441          1400 MJ2745               2AZ
200100000200100               200100               170213PO     1400+00000+PO0000002227+0000002227+000000000+000000312+0000002530+0000000009+I20000000000+0000002530+Z
200100001200100089-000501     200100006003000622900KEY CHAIN LIGHT LASER  0000001000+00002192+00000+0001T   00002192+0000001444          1400 MJ2205               2AZ
200100002200100112-116038     200100006009681820246TCS CARRIER BAG MIDI   0000001000+00000035+00000+0001T   00000035+0000001444          1400 MJ2090               2AZ
200101000200101               200101               170213PO     1400+00000+PO0000004420+0000004420+000000000+000000619+0000005030+0000000009+I20000000000+0000005030+Z
200101001200101001-000175     200101006001023788108B/MUG GLS LOVE 380ML   0000001000+00004385+00000+0001T   00004385+0000001448          1400 MJ2515               2AZ
200101002200101112-116038     200101006009681820246TCS CARRIER BAG MIDI   0000001000+00000035+00000+0001T   00000035+0000001448          1400 MJ2090               2AZ
200102000200102               200102               170213PO     1400+00000+PO0000000000+0000000000+000000000+000000000+0000000000+0000000000+I20000000000+0000000000+Z
200102001200102564-000012     200102006001023130075BUBBLE BOTTLE MAGIC    0000001000-00000700+00000+0001T   00000700+0000001450          1400 MJ21311IC            2 Z
200102002200102564-000012     200102006001023130075BUBBLE BOTTLE MAGIC    0000001000+00000700+00000+0001T   00000700+0000001450          1400 MJ21311IC            2 Z
200103000200103               200103               170213PO     1400+00000+PO0000045151+0000045151+000000000+000006329+0000051480+0000000000+I20000000000+0000051480+Z
200103001200103903-000194     200103006009826020616SWT CHOC RP LOLLY 25G  0000003000+00001314+00000+0001T   00001314+0000001454          1400 MJ2150               2AZ
200103002200103304-001011     200103006001023806727FLWR ROSE RED W/BEAR   0000016000+00000613+00000+0001T   00000788+0006471454          1400 MJ2510               2AZ
200103003200103368-000113     200103006001023780874PLUSH BLINGED LOVE 30cm0000001000+00012279+00000+0001T   00012279+0000001454          1400 MJ2745               2AZ
200103004200103304-001204     200103006001023737984FLOWER OCC. TEDDY/ROSES0000001000+00001402+00000+0001T   00001490+0006471454          1400 MJ2510               2AZ
200103005200103903-000194     200103006009826020616SWT CHOC RP LOLLY 25G  0000001000+00001314+00000+0001T   00001314+0000001454          1400 MJ2150               2AZ
200103006200103077-000457     200103006003000285662G/BAG METALLIC JMB SOL 0000001000+00001753+00000+0001T   00001753+0000001454          1400 MJ2112               2AZ
200103007200103112-116069     200103006009681820277TCS CARRIER BAG JUMBO  0000001000+00000048+00000+0001T   00000048+0000001454          1400 MJ2090               2AZ
200103008200103304-001204     200103006001023737984FLOWER OCC. TEDDY/ROSES0000001000+00001402+00000+0001T   00001490+0006471454          1400 MJ2510               2AZ
200103009200103368-000637     200103006001023874092PLUSH BEAR SLEEPING LOV0000001000+00011402+00000+0001T   00012279+0006471454          1400 MJ2745               2AZ
200103010200103903-000610     200103006003000610518SWEET JUMBO BUBBLE GUM 0000001000+00001753+00000+0001T   00001753+0000001454          1400 MJ2150               2AZ
200103011200103112-116069     200103006009681820277TCS CARRIER BAG JUMBO  0000001000+00000048+00000+0001T   00000048+0000001454          1400 MJ2090               2AZ
200104000200104               200104               170213PO     1400+00000+PO0000001754+0000001754+000000000+000000246+0000002000+0000000000+I20000000000+0000002000+Z
200104001200104158-003092     200104006003000621644PAPER TOWEL HOLDER CHR 0000001000-00005262+00000+0001T   00005262+0000001456          1400 MJ23001IC            2 Z
200104002200104003-009120     200104006003000673568ORN GARDEN STONE COMPAS0000001000+00007016+00000+0001T   00007016+0000001456          1400 MJ2505               2AZ
200105000200105               200105               170213PO     1400+00000+PO0000000964+0000000964+000000000+000000135+0000001090+0000000009+I20000000000+0000001090+Z
200105001200105903-000843     200105008693029031067SWT GUMMY JELAXY 80G   0000001000+00000964+00000+0001T   00000964+0000001504          1400 LM1150               2AZ
200106000200106               200106               170213PO     1400+00000+PO0000004383+0000004383+000000000+000000615+0000004990+0000000008+I20000000000+0000004990+Z
200106001200106006-000111     200106006003000519385BALLOONS LARGE 12PCE   0000001000+00002630+00000+0001T   00002630+0000001505          1400 LM1131               2AZ
200106002200106564-000035     200106006003000301836BUBBLE NOVELTY SWORD   0000001000+00001753+00000+0001T   00001753+0000001505          1400 LM1131               2AZ
200107000200107               200107               170213PO     1400+00000+PO0000003243+0000003243+000000000+000000455+0000003698+0000000000+I40000003698+0000000000+Z
200107001200107088-000084     200107006001023798060P/POURRI 120G ASSTD    0000001000+00001753+00000+0001T   00001753+0000001506          1400 LM1212               2AZ
200107002200107036-000605     200107006001023158611WASHING-PEGS WDN PCK-240000001000+00001490+00000+0001T   00001490+0000001506          1400 LM1212               2AZ
200108000200108               200108               170213PO     1400+00000+PO0000012277+0000012277+000000000+000001720+0000013997+0000000000+I40000013997+0000000000+Z
200108001200108065-006073     200108006003000466504WOODEN RECORDER ASSTD  0000001000+00006139+00000+0001T   00006139+0000001507          1400 LM1745               2AZ
200108002200108027-008815     200108006003000439799DUSTER 62cm RUBBER-GRIP0000001000+00004385+00000+0001T   00004385+0000001507          1400 LM1212               2AZ
200108003200108033-001300     200108006003000667390HAIR PINS 4PC SNAP CLIP0000001000+00001753+00000+0001T   00001753+0000001507          1400 LM1200               2AZ
200109000200109               200109               170213PO     1400+00000+PO0000006798+0000006798+000000000+000000953+0000007750+0000000001+I20000000000+0000007750+Z
200109001200109007-000555     200109006001023848239MEMO-PAD MINI LOVE     0000001000+00000613+00000+0001T   00000613+0000001508          1400 LM1130               2AZ
200109002200109301-085004     200109006003000420469ORN LOVE PLAQUE 21X10CM0000001000+00003507+00000+0001T   00003946+0006471508          1400 LM1505               2AZ
200109003200109072-020300     200109006008632000430DOG-TOY TUG-A-BALL SML 0000001000+00002630+00000+0001T   00002630+0000001508          1400 LM1870               2AZ
200109004200109112-116069     200109006009681820277TCS CARRIER BAG JUMBO  0000001000+00000048+00000+0001T   00000048+0000001508          1400 LM1090               2AZ
200110000200110               200110               170213PO     1400+00000+PO0000012278+0000012278+000000000+000001720+0000013998+0000000000+I40000013998+0000000000+Z
200110001200110046-000007     200110006001023814692BATTERIES D ALKALN 2PCE0000002000+00006139+00000+0001T   00006139+0000001515          1400 LM1312               2AZ
200111000200111               200111               170213PO     1400+00000+PO0000005262+0000005262+000000000+000000737+0000005999+0000000000+I40000005999+0000000000+Z
200111001200111006-000098     200111006003000601325PARTY PHOTO BOOTH 20PC 0000001000+00005262+00000+0001T   00005262+0000001518          1400 LM1131               2AZ
200112000200112               200112               170213PO     1400+00000+PO0000004383+0000004383+000000000+000000615+0000004990+0000000008+I20000000000+0000004990+Z
200112001200112079-013032-J   200112006003000542710A&C DIY COLOUR P/FLOWER0000001000+00001753+00000+0001T   00001753+0000001521          1400 LM1130               2AZ
200112002200112007-000546     200112006001023847935NOTEBOOK 4PCE ASSTD DES0000001000+00002630+00000+0001T   00002630+0000001521          1400 LM1130               2AZ
200113000200113               200113               170213PO     1400+00000+PO0000047406+0000047406+000000000+000006640+0000054046+0000000000+I40000054046+0000000000+Z
200113001200113112-116069     200113006009681820277TCS CARRIER BAG JUMBO  0000001000+00000048+00000+0001T   00000048+0000001528          1400 LM1090               2AZ
200113002200113466-000615     200113006003000535828BALL SOC MINI HOLOGRAM 0000009000+00005262+00000+0001T   00005262+0000001528          1400 LM1785               2AZ
200114000200114               200114               170213PO     1400+00000+PO0000001227+0000001227+000000000+000000172+0000001399+0000000000+I40000001399+0000000000+Z
200114001200114077-000245     200114006001023759214GIFT-RIBBON METALLICx2 0000001000+00001227+00000+0001T   00001227+0000001534          1400 LM1112               2AZ
200115000200115               200115               170213PO     1400+00000+PO0000003504+0000003504+000000000+000000492+0000003996+0000000000+I40000003996+0000000000+Z
200115001200115304-001204     200115006001023737984FLOWER OCC. TEDDY/ROSES0000002000+00001402+00000+0001T   00001490+0006471540          1400 LM1510               2AZ
200115002200115018-000177     200115006001023797513MUG MINI LOVE ASSTD    0000001000+00000700+00000+0001T   00000700+0000001540          1400 LM1515               2AZ
200116000200116               200116               170213PO     1400+00000+PO0000008771+0000008771+000000000+000001228+0000009990+0000000009+I20000000000+0000009990+Z
200116001200116001-091415     200116006003000329113W/GLS OCC. LOVE 2PC 2800000001000+00008771+00000+0001T   00009648+0006471541          1400 LM1515               2AZ
200117000200117               200117               170213PO     1400+00000+PO0000002977+0000002977+000000000+000000418+0000003395+0000000000+I40000003395+0000000000+Z
200117001200117079-009700-E   200117006003000545797PAPER SIRIO A4 GREY    0000004000+00000306+00000+0001T   00000306+0000001544          1400 LM1130               2AZ
200117002200117566-000065     200117006003000217915STICKERS GLITTER ASSTD 0000001000+00001753+00000+0001T   00001753+0000001544          1400 LM1130               2AZ
200118000200118               200118               170213PO     1400+00000+PO0000001753+0000001753+000000000+000000246+0000001990+0000000009+I20000000000+0000001990+Z
200118001200118200-003024     200118006001023657299REFUSE BAGS 20PCE BLACK0000001000+00001753+00000+0001T   00001753+0000001544          1400 LM1214               2AZ
200119000200119               200119               170213PO     1400+00000+PO0000004468+0000004468+000000000+000000628+0000005090+0000000006+I20000000000+0000005090+Z
200119001200119077-000315     200119006003000181186GIFT-BAG 20x28cm MATT  0000001000+00001578+00000+0001T   00001578+0000001545          1400 LM1112               2AZ
200119002200119077-000010-C   200119006001023123879CREPE-PAPER RED        0000001000+00000788+00000+0001T   00000788+0000001545          1400 LM1112               2AZ
200119003200119039-000026     200119006001023551610C/TAPERED 25CM M/RED   0000002000+00001051+00000+0001T   00001051+0000001545          1400 LM1510               2AZ
200120000200120               200120               170213PO     1400+00000+PO0000006663+0000006663+000000000+000000933+0000007596+0000000000+I40000007596+0000000000+Z
200120001200120018-000127     200120006001023380289MUG OCC STRAIGHT LOVE  0000001000+00001578+00000+0001T   00001753+0006471547          1400 LM1515               2AZ
200120002200120077-000303     200120006001023593757GIFT-BAG PAPER MED     0000001000+00001578+00000+0001T   00001578+0000001547          1400 LM1112               2AZ
200120003200120301-085004     200120006003000420469ORN LOVE PLAQUE 21X10CM0000001000+00003507+00000+0001T   00003946+0006471547          1400 LM1505               2AZ
200121000200121               200121               170213PO     1400+00000+PO0000009644+0000009644+000000000+000001351+0000010995+0000000000+I40000010995+0000000000+Z
200121001200121251-000003     200121006003000266159TAPE D/S 18x300mm V/PCK0000001000+00002630+00000+0001T   00002630+0000001549          1400 LM1810               2AZ
200121002200121158-008005     200121006003000621767TRIVET CHROME PLATED   0000002000+00003507+00000+0001T   00004385+0008171549          1400 LM1300               2AZ
200122000200122               200122               170213PO     1400+00000+PO0000005262+0000005262+000000000+000000737+0000005990+0000000009+I20000000000+0000005990+Z
200122001200122492-055684     200122000078257556847SWIM-GOGGLE RACE-PRO   0000001000+00005262+00000+0001T   00005262+0000001551          1400 LM1787               2AZ
200123000200123               200123               170213PO     1400+00000+PO0000001490+0000001490+000000000+000000209+0000001690+0000000009+I20000000000+0000001690+Z
200123001200123033-005919     200123006003000154883SEWING THREAD 24cm ASST0000001000+00001490+00000+0001T   00001490+0000001552          1400 LM1200               2AZ
200124000200124               200124               170213PO     1400+00000+PO0000013200+0000013200+000000000+000001849+0000015040+0000000009+I20000000000+0000015040+Z
200124001200124006-000789     200124006001023148612CROWN BOY              0000006000+00002192+00000+0001T   00002192+0000001554          1400 LM1131               2AZ
200124002200124112-116069     200124006009681820277TCS CARRIER BAG JUMBO  0000001000+00000048+00000+0001T   00000048+0000001554          1400 LM1090               2AZ
200125000200125               200125               170213PO     1400+00000+PO0000023724+0000023724+000000000+000003324+0000027048+0000000000+I40000027048+0000000000+Z
200125001200125112-116069     200125006009681820277TCS CARRIER BAG JUMBO  0000001000+00000048+00000+0001T   00000048+0000001556          1400 LM1090               2AZ
200125002200125041-007029     200125006003000178049H/GLO BUBBLE-BATH 2L   0000001000+00006139+00000+0001T   00006139+0000001556          1400 LM1200               2AZ
200125003200125038-001800     200125006003000623303DOILIE PAPER HRT 24PC  0000001000+00003507+00000+0001T   00003507+0000001556          1400 LM1300               2AZ
200125004200125079-130010     200125006003000496624ART+CRAFT FOAM DOLLS   0000002000+00004385+00000+0001T   00004385+0000001556          1400 LM1130               2AZ
200125005200125079-013032-E   200125006003000389766ART+CRAFT COL/PAPER    0000002000+00002630+00000+0001T   00002630+0000001556          1400 LM1130               2AZ
200126000200126               200126               170213PO     1400+00000+PO0000007892+0000007892+000000000+000001106+0000008998+0000000000+I40000008998+0000000000+Z
200126001200126079-000201     200126006003000161430P/CRAYONS THERAPY 10PCE0000001000+00002630+00000+0001T   00002630+0000001604          1400 LM1130               2AZ
200126002200126031-000864-C   200126006001023798411P/FRAME MAHOGANY 20X25 0000001000+00005262+00000+0001T   00005262+0000001604          1400 LM1510               2AZ
200127000200127               200127               170213PO     1400+00000+PO0000001313+0000001313+000000000+000000184+0000001490+0000000007+I20000000000+0000001490+Z
200127001200127033-005920-A   200127006001023678249SEWING-THREAD 100m WHT 0000001000+00000700+00000+0001T   00000700+0000001605          1400 LM1200               2AZ
200127002200127033-005994     200127006001023789570SEWING-NEEDLES 16PCE   0000001000+00000613+00000+0001T   00000613+0000001605          1400 LM1200               2AZ
200128000200128               200128               170213PO     1400+00000+PO0000007940+0000007940+000000000+000001113+0000009053+0000000000+I40000009053+0000000000+Z
200128001200128112-116069     200128006009681820277TCS CARRIER BAG JUMBO  0000001000+00000048+00000+0001T   00000048+0000001607          1400 LM1090               2AZ
200128002200128368-000184     200128006003000668298PLUSH LAMB 23cm        0000001000+00006139+00000+0001T   00006139+0000001607          1400 LM1745               2AZ
200128003200128077-000240     200128006003000326259G/RIBBON 4PC PEARLIZED 0000001000+00001753+00000+0001T   00001753+0000001607          1400 LM1112               2AZ
200129000200129               200129               170213PO     1400+00000+PO0000000876+0000000876+000000000+000000123+0000000990+0000000009+I20000000000+0000000990+Z
200129001200129077-000314     200129006003000181148GIFT-BAG 11X14CM MATT  0000001000+00000876+00000+0001T   00000876+0000001608          1400 LM1112               2AZ
200130000200130               200130               170213PO     1400+00000+PO0000016089+0000016089+000000000+000002257+0000018346+0000000000+I40000018346+0000000000+Z
200130001200130368-000181     200130006003000668052PLUSH BUNNY 27cm       0000001000+00011402+00000+0001T   00011402+0000001612          1400 LM1745               2AZ
200130002200130112-116069     200130006009681820277TCS CARRIER BAG JUMBO  0000001000+00000048+00000+0001T   00000048+0000001612          1400 LM1090               2AZ
200130003200130306-000023     200130006001023606976COTTON-WOOL-BALLS 50PCE0000001000+00000876+00000+0001T   00000876+0000001612          1400 LM1200               2AZ
200130004200130903-000843     200130008693029031067SWT GUMMY JELAXY 80G   0000001000+00000964+00000+0001T   00000964+0000001612          1400 LM1150               2AZ
200130005200130903-000077     200130006939873501687SWT GS MAGIC ROCK FRUIT0000001000+00000525+00000+0001T   00000525+0000001612          1400 LM1150               2AZ
200130006200130903-000670     200130006009803358008SWT SHERBET RED LIPS   0000001000+00000218+00000+0001T   00000218+0000001612          1400 LM1150               2AZ
200130007200130903-000671     200130006009803358015SWT SHERBET BLUE LIPS  0000001000+00000218+00000+0001T   00000218+0000001612          1400 LM1150               2AZ
200130008200130903-004960     200130008410525221842SWT GUMMY STR/BERRY 50G0000001000+00000964+00000+0001T   00000964+0000001612          1400 LM1150               2AZ
200130009200130903-000094     200130006923431501622SWT GS CANDY NECKLACE  0000002000+00000437+00000+0001T   00000437+0000001612          1400 LM1150               2AZ
200131000200131               200131               170213PO     1400+00000+PO0000015114+0000015114+000000000+000002119+0000017233+0000000000+I40000017233+0000000000+Z
200131001200131112-116038     200131006009681820246TCS CARRIER BAG MIDI   0000001000+00000035+00000+0001T   00000035+0000001614          1400 LM1090               2AZ
200131002200131903-004951     200131006002580020328SWT MALLOW MINI M/SHAKE0000001000+00001227+00000+0001T   00001227+0000001614          1400 LM1150               2AZ
200131003200131560-000229     200131006003000469468ANIMALS BIG EYES ASSTD 0000001000+00006139+00000+0001T   00006139+0000001614          1400 LM1745               2AZ
200131004200131002-021057     200131006001023812032T/PICKS UMBRELLAS 10PCE0000002000+00000876+00000+0001T   00000876+0000001614          1400 LM1300               2AZ
200131005200131903-002900     200131005996071650648QUICK MILK 5 CHOCO 5PC 0000001000+00001578+00000+0001T   00001578+0000001614          1400 LM1150               2AZ
200131006200131903-000611     200131006003000617326SWT SNAPPER 20cm       0000001000+00001753+00000+0001T   00001753+0000001614          1400 LM1150               2AZ
200131007200131565-000014     200131006003000671915NOVELTY AIR BALLOON    0000001000+00002630+00000+0001T   00002630+0000001614          1400 LM1745               2AZ
200132000200132               200132               170213PO     1400+00000+PO0000001613+0000001613+000000000+000000226+0000001839+0000000000+I40000001839+0000000000+Z
200132001200132018-000127     200132006001023380289MUG OCC STRAIGHT LOVE  0000001000+00001578+00000+0001T   00001753+0006471643          1400 JT6515               2AZ
200132002200132112-116038     200132006009681820246TCS CARRIER BAG MIDI   0000001000+00000035+00000+0001T   00000035+0000001643          1400 JT6090               2AZ
200133000200133               200133               170213PO     1400+00000+PO0000004385+0000004385+000000000+000000614+0000004990+0000000009+I20000000000+0000004990+Z
200133001200133018-030000     200133006003000421060MUG OCCASIONS LOVE 2PCE0000001000+00004385+00000+0001T   00004385+0000001658          1400 LM1515               2AZ
200134000200134               200134               170213PO     1400+00000+PO0000002541+0000002541+000000000+000000357+0000002898+0000000000+I40000002898+0000000000+Z
200134001200134077-000299-A   200134006003000670888GIFT-BAG PAPER JMB LOVE0000001000+00001753+00000+0001T   00001753+0000001700          1400 LM1112               2AZ
200134002200134077-000010-D   200134006001023123886CREPE-PAPER WHITE      0000001000+00000788+00000+0001T   00000788+0000001700          1400 LM1112               2AZ
200135000200135               200135               170213PO     1400+00000+PO0000006139+0000006139+000000000+000000860+0000006990+0000000009+I20000000000+0000006990+Z
200135001200135560-000229     200135006003000469468ANIMALS BIG EYES ASSTD 0000001000+00006139+00000+0001T   00006139+0000001700          1400 LM1745               2AZ
200136000200136               200136               170213PO     1400+00000+PO0000002630+0000002630+000000000+000000369+0000002990+0000000009+I20000000000+0000002990+Z
200136001200136200-000114     200136006003000621545PICNIC CUPS PAPER 90ml 0000001000+00002630+00000+0001T   00002630+0000001715          1400 LM1214               2AZ
200137000200137               200137               170213PO     1400+00000+PO0000004120+0000004120+000000000+000000578+0000004690+0000000008+I20000000000+0000004690+Z
200137001200137200-000035     200137006001023768810FOOD-BOWL-COVERS 5PCE  0000001000+00002630+00000+0001T   00002630+0000001738          1400 LM1214               2AZ
200137002200137159-000114     200137006001023507945SHOWER CAP PVC ASSTD   0000001000+00001490+00000+0001T   00001490+0000001738          1400 LM1200               2AZ
200138000200138               200138               170213PO     1400+00000+PO0000012542+0000012542+000000000+000001758+0000014300+0000000000+I40000014300+0000000000+Z
200138001200138903-000215     200138006002099001214SWT GS MALLOW TWIST PAC0000001000+00001753+00000+0001T   00001753+0000001742          1400 LM1150               2AZ
200138002200138263-000015     200138006003000656097VEHICLES LAUNCH & GO   0000001000+00004385+00000+0001T   00004385+0000001742          1400 LM1710               2AZ
200138003200138366-002680     200138006003000536610DRESS UP HAT POLICE    0000001000+00004385+00000+0001T   00004385+0000001742          1400 LM1131               2AZ
200138004200138112-116069     200138006009681820277TCS CARRIER BAG JUMBO  0000001000+00000048+00000+0001T   00000048+0000001742          1400 LM1090               2AZ
200138005200138565-000888     200138006003000607846NOVELTY MESH BALL      0000001000+00001753+00000+0001T   00001753+0000001742          1400 LM1745               2AZ
200138006200138006-000172-D   200138006003000609932METALLIC GOLD          0000001000+00000218+00000+0001T   00000218+0000001742          1400 LM1131               2AZ
200139000200139               200139               170213PO     1400+00000+PO0000003507+0000003507+000000000+000000491+0000003990+0000000008+I20000000000+0000003990+Z
200139001200139018-005009     200139006001023725608MUG W/PLUSH-BEAR LOVE  0000001000+00003507+00000+0001T   00003507+0000001744          1400 LM1515               2AZ
200140000200140               200140               170213PO     1400+00000+PO0000014466+0000014466+000000000+000002028+0000016494+0000000000+I40000016494+0000000000+Z
200140001200140006-000109-A   200140006003000645435BALLOONS HELIUM 2PC    0000002000+00001753+00000+0001T   00001753+0000001752          1400 LM1131               2AZ
200140002200140563-000317-A   200140006001023776167SERVIETTES 20PK PATTERN0000001000+00002630+00000+0001T   00002630+0000001752          1400 LM1214               2AZ
200140003200140077-000201     200140006003000152612GIFT-BOX WEDDING PVC   0000001000+00002630+00000+0001T   00002630+0000001752          1400 LM1112               2AZ
200140004200140174-000140     200140006003000367450STORAGE ORGANISER 30X300000001000+00005700+00000+0001T   00005700+0000001752          1400 LM1205               2AZ
200141000200141               200141               170213PO     1400+00000+PO0000005259+0000005259+000000000+000000738+0000005990+0000000007+I20000000000+0000005990+Z
200141001200141039-000114     200141006001023524058CANDLE T/LITE RED 3.5CM0000002000+00001753+00000+0001T   00001753+0000001754          1400 LM1510               2AZ
200141002200141080-000113     200141006003000237449CARD&ENVLPE - LOVE     0000001000+00001753+00000+0001T   00001753+0000001754          1400 LM1112               2AZ
M17021391                              CASH        POSLAVE 2                       Z-REPORT No.   183TOTAL (Sales - Refunds)           6481.61       CASH TO BE BANKED                 3083.10       DEBIT CARDS                          0.00       CREDIT CARDS                      3398.51       Z-READING                         6481.61       AIRTIME DEBIT CARD SALES             0.00       AIRTIME CARD SALES                   0.00       OVERS/UNDERS                         0.00       AIRTIME CASH SALES                   0.00       GIFT CARDS                           0.00       GIFT CARD CASH SALES                 0.00       T O T A L  CASH PAYOUTS              0.00                                                                                                                                                                                                                                                                                                                                                      Z
M17021392                              CASH        POABSENT                                                                                                                                                                                          ANNUAL LEAVE                                                                                                                                                                                    DAY OFF                                                                                                                                                                                         COMMENTS                                                                                                                                                                                                                                                                                                                                                                                       Z
Y17021300                                          PO00000000577868+000061
ZPO17021320203 SLAVE 2      SALES DATA                     NEXT INVOICE NO.  200142 0183
X PO Slave 2 First invoice 200081 170213 Last invoice 200141 170213 Next invoice 200142 Total number of records 000000245 clbackup completed 20:20:43
