105117000105117               105117               170213PP     1400+00000+PP0000002192+0000002192+000000000+000000307+0000002490+0000000009+I20000000000+0000002490+Z
105117001105117018-000170     105117006001023775528MUG OCC. LOVE 2PC MINI 0000001000+00002192+00000+0001T   00002192+0000000924          1400 MJ2515               1AZ
105118000105118               105118               170213PP     1400+00000+PP0000000786+0000000786+000000000+000000112+0000000890+0000000008+I20000000000+0000000890+Z
105118001105118903-000183     105118006003000451043SWT LB HEART LOLLY     0000002000+00000393+00000+0001T   00000393+0000000925          1400 MJ2150               1AZ
105119000105119               105119               170213PP     1400+00000+PP0000011399+0000011399+000000000+000001598+0000012997+0000000000+I40000012997+0000000000+Z
105119001105119039-000798     105119006001023617774CANDLES TEALITE BOX-50 0000001000+00006139+00000+0001T   00006139+0000000937          1400 MJ2510               1AZ
105119002105119006-006018     105119006001023735256PARTY-SPRAY HAIR ASSORT0000002000+00002630+00000+0001T   00002630+0000000937          1400 MJ2131               1AZ
105120000105120               105120               170213PP     1400+00000+PP0000006615+0000006615+000000000+000000929+0000007544+0000000000+I40000007544+0000000000+Z
105120001105120071-001012     105120006001023474445MARKERS BLACK ROUND    0000001000+00000876+00000+0001T   00000876+0000000947          1400 MJ2130               1AZ
105120002105120903-000200     105120006009826020234SWT CHOC RP CHOCO 23G  0000001000+00000788+00000+0001T   00000788+0000000947          1400 MJ2150               1AZ
105120003105120007-000324     10512000600968585864125 SHEETS BRIGHTS MARLI0000001000+00003507+00000+0001T   00003507+0000000947          1400 MJ2130               1AZ
105120004105120079-009702-D   105120008427973059354PAPER SIRIO A2 RED COL 0000001000+00001051+00000+0001T   00001051+0000000947          1400 MJ2130               1AZ
105120005105120903-000183     105120006003000451043SWT LB HEART LOLLY     0000001000+00000393+00000+0001T   00000393+0000000947          1400 MJ2150               1AZ
105121000105121               105121               170213PP     1400+00000+PP0000006138+0000006138+000000000+000000860+0000006990+0000000008+I20000000000+0000006990+Z
105121001105121080-000113     105121006003000237449CARD&ENVLPE - LOVE     0000001000+00001753+00000+0001T   00001753+0000001024          1400 MJ2112               1AZ
105121002105121567-011901     105121006003000677610BK PROMO CLEARANCE     0000001000+00004385+00000+0001T   00006139+0008141024          1400 MJ2757               1AZ
105122000105122               105122               170213PP     1400+00000+PP0000007800+0000007800+000000000+000001094+0000008894+0000000000+I40000008894+0000000000+Z
105122001105122002-000970     105122006001023770578FUNNELS 3PCE WHITE     0000001000+00001227+00000+0001T   00001227+0000001314          1400 MJ2300               1AZ
105122002105122002-000720     105122006003000369003C/BOARD 34x25cm W/HNDLE0000001000+00001753+00000+0001T   00002630+0008121314          1400 MJ2300               1AZ
105122003105122038-047244     105122006003000368068PLACE-MAT COLS 43X29CM 0000003000+00001490+00000+0001T   00001490+0000001314          1400 MJ2300               1AZ
105122004105122002-000879     105122006001023770004STRAINER TEA 7cm H/H   0000001000+00000350+00000+0001T   00000350+0000001314          1400 MJ2300               1AZ
105123000105123               105123               170213PP     1400+00000+PP0000021969+0000021969+000000000+000003077+0000025046+0000000000+I40000025046+0000000000+Z
105123001105123112-116069     105123006009681820277TCS CARRIER BAG JUMBO  0000001000+00000048+00000+0001T   00000048+0000001343          1400 MJ2090               1AZ
105123002105123031-000874-C   105123006001023798862P/FRAME WDN P/BOX 20X250000003000+00005700+00000+0001T   00005700+0000001343          1400 MJ2510               1AZ
105123003105123071-001015     105123006001023910387MARKERS PERMANENT 3PK  0000001000+00001753+00000+0001T   00001753+0000001343          1400 MJ2130               1AZ
105123004105123078-000025     105123008887013700064SUPERGLUE 3g 1PCE CARD 0000001000+00000876+00000+0001T   00000876+0000001343          1400 MJ2810               1AZ
105123005105123077-000924     105123006003000414055G/WRAP 700mmx2m WEDDING0000001000+00002192+00000+0001T   00002192+0000001343          1400 MJ2112               1AZ
105124000105124               105124               170213PP     1400+00000+PP0000004822+0000004822+000000000+000000676+0000005498+0000000000+I40000005498+0000000000+Z
105124001105124563-000317-C   105124006001023776204SERVIETTES 20PK  FLOWER0000001000+00002192+00000+0001T   00002192+0000001425          1400 MJ2214               1AZ
105124002105124080-000137     105124006003000589159CARD & ENV GIANT FEMALE0000001000+00002630+00000+0001T   00002630+0000001425          1400 MJ2112               1AZ
105125000105125               105125               170213PP     1400+00000+PP0000003331+0000003331+000000000+000000467+0000003790+0000000008+I20000000000+0000003790+Z
105125001105125080-000113     105125006003000237449CARD&ENVLPE - LOVE     0000001000+00001753+00000+0001T   00001753+0000001426          1400 MJ2112               1AZ
105125002105125077-000303     105125006001023593757GIFT-BAG PAPER MED     0000001000+00001578+00000+0001T   00001578+0000001426          1400 MJ2112               1AZ
105126000105126               105126               170213PP     1400+00000+PP0000003682+0000003682+000000000+000000516+0000004198+0000000000+I40000004198+0000000000+Z
105126001105126080-000127     105126006003000424351VALENTINES DAY 36x24CM 0000001000+00002192+00000+0001T   00002192+0000001512          1400 MJ2112               1AZ
105126002105126077-000299     105126006003000395576G/BAG 32x25cm LRG LOVE 0000001000+00001490+00000+0001T   00001490+0000001512          1400 MJ2112               1AZ
105127000105127               105127               170213PP     1400+00000+PP0000006485+0000006485+000000000+000000909+0000007390+0000000004+I20000000000+0000007390+Z
105127001105127024-091103     105127006003453014307BAKING-CUP MUFFIN 50PCE0000001000+00002192+00000+0001T   00002192+0000001520          1400 MJ2300               1AZ
105127002105127077-000311     105127006001023608666GIFT-BAG 11X14CM GLOSS 0000002000+00000613+00000+0001T   00000613+0000001520          1400 MJ2112               1AZ
105127003105127566-000202     105127006003000443567STCKRS SPARKLE RIM ASST0000001000+00001314+00000+0001T   00001314+0000001520          1400 MJ2130               1AZ
105127004105127566-000066     105127006003000283675STICKERS GLITTER 25PCS 0000001000+00001753+00000+0001T   00001753+0000001520          1400 MJ2130               1AZ
105128000105128               105128               170213PP     1400+00000+PP0000007224+0000007224+000000000+000001012+0000008236+0000000000+I40000008236+0000000000+Z
105128001105128112-116038     105128006009681820246TCS CARRIER BAG MIDI   0000001000+00000035+00000+0001T   00000035+0000001538          1400 MJ2090               1AZ
105128002105128018-000130     105128006001023867537MUG OCC LOVE MINI+HEART0000001000+00003507+00000+0001T   00003507+0000001538          1400 MJ2515               1AZ
105128003105128077-000303     105128006001023593757GIFT-BAG PAPER MED     0000001000+00001578+00000+0001T   00001578+0000001538          1400 MJ2112               1AZ
105128004105128903-000095     105128006001704011495SWT SPECKLED-EGGS 100G 0000001000+00002104+00000+0001T   00002104+0000001538          1400 MJ2150               1AZ
105129000105129               105129               170213PP     1400+00000+PP0000002454+0000002454+000000000+000000344+0000002790+0000000008+I20000000000+0000002790+Z
105129001105129251-000040     105129006001023515865SEALTAPE CLEAR 48mmx50m0000002000+00001227+00000+0001T   00001227+0000001540          1400 MJ2810               1AZ
105130000105130               105130               170213PP     1400+00000+PP0000006487+0000006487+000000000+000000909+0000007396+0000000000+I40000007396+0000000000+Z
105130001105130103-000472     105130006003000631049FLOWER BASKET W/HANDLE 0000001000+00003507+00000+0001T   00003507+0000001543          1400 MJ2300               1AZ
105130002105130563-000318-L   105130006003000407088SERVIETTES 33cm RED    0000001000+00002192+00000+0001T   00002192+0000001543          1400 MJ2214               1AZ
105130003105130077-000010-C   105130006001023123879CREPE-PAPER RED        0000001000+00000788+00000+0001T   00000788+0000001543          1400 MJ2112               1AZ
105131000105131               105131               170213PP     1400+00000+PP0000022273+0000022273+000000000+000003121+0000025390+0000000004+I20000000000+0000025390+Z
105131001105131077-000299-A   105131006003000670888GIFT-BAG PAPER JMB LOVE0000001000+00001753+00000+0001T   00001753+0000001556          1400 MJ2112               1AZ
105131002105131077-000010-C   105131006001023123879CREPE-PAPER RED        0000001000+00000788+00000+0001T   00000788+0000001556          1400 MJ2112               1AZ
105131003105131368-000181     105131006003000668052PLUSH BUNNY 27cm       0000001000+00011402+00000+0001T   00011402+0000001556          1400 MJ2745               1AZ
105131004105131206-000120     105131006003000628308PEELER CARROT SHARPENER0000001000+00001753+00000+0001T   00001753+0000001556          1400 MJ2321               1AZ
105131005105131206-000150     105131006003000628667SLICER CUCUMBER        0000001000+00002192+00000+0001T   00002192+0000001556          1400 MJ2321               1AZ
105131006105131031-080508     105131006001023802415P/FRAME PL 22X11CM LOVE0000001000+00004385+00000+0001T   00004385+0000001556          1400 MJ2510               1AZ
105132000105132               105132               170213PP     1400+00000+PP0000001753+0000001753+000000000+000000246+0000001990+0000000009+I20000000000+0000001990+Z
105132001105132077-000299-A   105132006003000670888GIFT-BAG PAPER JMB LOVE0000001000+00001753+00000+0001T   00001753+0000001559          1400 MJ2112               1AZ
105133000105133               105133               170213PP     1400+00000+PP0000013201+0000013201+000000000+000001850+0000015051+0000000000+I40000015051+0000000000+Z
105133001105133112-116069     105133006009681820277TCS CARRIER BAG JUMBO  0000001000+00000048+00000+0001T   00000048+0000001603          1400 MJ2090               1AZ
105133002105133077-000011-E   105133006001023808646TISSUE-WRAP PINK 10PCE 0000001000+00000876+00000+0001T   00000876+0000001603          1400 MJ2112               1AZ
105133003105133031-000874-B   105133006001023798831P/FRAME WDN P/BOX 13X180000001000+00004385+00000+0001T   00004385+0000001603          1400 MJ2510               1AZ
105133004105133077-000349-B   105133006001023908315G/RIBBON 3ROLLS 12BOWS 0000001000+00002630+00000+0001T   00002630+0000001603          1400 MJ2112               1AZ
105133005105133016-006524     105133006003000579358S/JAR GLS 750ml ASSTD  0000001000+00005262+00000+0001T   00005262+0000001603          1400 MJ2300               1AZ
105134000105134               105134               170213PP     1400+00000+PP0000001753+0000001753+000000000+000000246+0000001990+0000000009+I20000000000+0000001990+Z
105134001105134046-002025-PK2 105134004897006174868BATTERIES CR-2025  2PCE0000001000+00001753+00000+0001T   00001753+0000001603          1400 MJ2312               1AZ
105135000105135               105135               170213PP     1400+00000+PP0000005262+0000005262+000000000+000000737+0000005990+0000000009+I20000000000+0000005990+Z
105135001105135071-002886     105135006925625423024CALCULATOR SCIENTIFIC  0000001000+00005262+00000+0001T   00005262+0000001603          1400 MJ2130               1AZ
105136000105136               105136               170213PP     1400+00000+PP0000001400+0000001400+000000000+000000196+0000001596+0000000000+I40000001596+0000000000+Z
105136001105136564-000012     105136006001023130075BUBBLE BOTTLE MAGIC    0000002000+00000700+00000+0001T   00000700+0000001606          1400 MJ2131               1AZ
105137000105137               105137               170213PP     1400+00000+PP0000001753+0000001753+000000000+000000246+0000001999+0000000000+I40000001999+0000000000+Z
105137001105137051-002402     105137006001023518347TRIGGER-SPRAYER  500ml 0000001000+00001753+00000+0001T   00001753+0000001608          1400 MJ2820               1AZ
105138000105138               105138               170213PP     1400+00000+PP0000003069+0000003069+000000000+000000430+0000003499+0000000000+I40000003499+0000000000+Z
105138001105138174-000313     105138006003000344086STORAGE BAG VACUUM SEAL0000001000+00003069+00000+0001T   00003069+0000001612          1400 MJ2205               1AZ
105139000105139               105139               170213PP     1400+00000+PP0000014514+0000014514+000000000+000002035+0000016549+0000000000+I40000016549+0000000000+Z
105139001105139112-116069     105139006009681820277TCS CARRIER BAG JUMBO  0000001000+00000048+00000+0001T   00000048+0000001615          1400 MJ2090               1AZ
105139002105139368-000171     105139006003000233250PLUSH BEAR 14cm        0000002000+00005262+00000+0001T   00005262+0000001615          1400 MJ2745               1AZ
105139003105139903-000183     105139006003000451043SWT LB HEART LOLLY     0000002000+00000393+00000+0001T   00000393+0000001615          1400 MJ2150               1AZ
105139004105139018-000127     105139006001023380289MUG OCC STRAIGHT LOVE  0000002000+00001578+00000+0001T   00001753+0006471615          1400 MJ2515               1AZ
105140000105140               105140               170213PP     1400+00000+PP0000005347+0000005347+000000000+000000750+0000006090+0000000007+I20000000000+0000006090+Z
105140001105140089-000184     105140006003000577323KEY CHAIN OWL POLY MINI0000001000+00003069+00000+0001T   00003069+0000001618          1400 MJ2205               1AZ
105140002105140077-000010-C   105140006001023123879CREPE-PAPER RED        0000001000+00000788+00000+0001T   00000788+0000001618          1400 MJ2112               1AZ
105140003105140077-000299     105140006003000395576G/BAG 32x25cm LRG LOVE 0000001000+00001490+00000+0001T   00001490+0000001618          1400 MJ2112               1AZ
105141000105141               105141               170213PP     1400+00000+PP0000034512+0000034512+000000000+000004833+0000039345+0000000000+I40000039345+0000000000+Z
105141001105141112-116069     105141006009681820277TCS CARRIER BAG JUMBO  0000001000+00000048+00000+0001T   00000048+0000001623          1400 MJ2090               1AZ
105141002105141040-000127     105141000694202212318C/SET FLAMELESS 3PC    0000001000+00017542+00000+0001T   00017542+0000001623          1400 MJ2510               1AZ
105141003105141036-000519     105141006003000560752HOOK HANGER CHROME PL  0000001000+00003507+00000+0001T   00003507+0000001623          1400 MJ2212               1AZ
105141004105141015-002060     105141006001023893888BOWL S/STEEL DIPPING   0000001000+00001490+00000+0001T   00001490+0000001623          1400 MJ2515               1AZ
105141005105141077-000303     105141006001023593757GIFT-BAG PAPER MED     0000001000+00001578+00000+0001T   00001578+0000001623          1400 MJ2112               1AZ
105141006105141039-000794     105141006946859289958CANDLE T/LITE 3PC LED  0000001000+00004385+00000+0001T   00004385+0000001623          1400 MJ2510               1AZ
105141007105141018-000127     105141006001023380289MUG OCC STRAIGHT LOVE  0000001000+00001578+00000+0001T   00001753+0006471623          1400 MJ2515               1AZ
105141008105141077-000924     105141006003000414055G/WRAP 700mmx2m WEDDING0000002000+00002192+00000+0001T   00002192+0000001623          1400 MJ2112               1AZ
105142000105142               105142               170213PP     1400+00000+PP0000021350+0000021350+000000000+000002993+0000024343+0000000000+I40000024343+0000000000+Z
105142001105142112-116069     105142006009681820277TCS CARRIER BAG JUMBO  0000001000+00000048+00000+0001T   00000048+0000001626          1400 MJ2090               1AZ
105142002105142038-092233     105142006003000328925TABLE-MAT N/SLIP ASST  0000002000+00003069+00000+0001T   00003507+0008191626          1400 MJ2300               1AZ
105142003105142133-000069     105142006001926021555DISH-CLOTH 40X60cm     0000002000+00003507+00000+0001T   00004385+0008121626          1400 MJ2212               1AZ
105142004105142071-081091     105142006001151010287STAED/GENKEM ALL-STICK 0000001000+00001227+00000+0001T   00001227+0000001626          1400 MJ2130               1AZ
105142005105142903-000087     105142006001704000161SWT SPECKLED-EGGS 50G  0000003000+00001139+00000+0001T   00001139+0000001626          1400 MJ2150               1AZ
105142006105142903-000082     105142006001704014892SWT MINI WINE GUMS 100G0000002000+00001753+00000+0001T   00001753+0000001626          1400 MJ2150               1AZ
105143000105143               105143               170213PP     1400+00000+PP0000001753+0000001753+000000000+000000246+0000001990+0000000009+I20000000000+0000001990+Z
105143001105143077-000299-A   105143006003000670888GIFT-BAG PAPER JMB LOVE0000001000+00001753+00000+0001T   00001753+0000001628          1400 MJ2112               1AZ
105144000105144               105144               170213PP     1400+00000+PP0000008771+0000008771+000000000+000001228+0000009999+0000000000+I40000009999+0000000000+Z
105144001105144001-091415     105144006003000329113W/GLS OCC. LOVE 2PC 2800000001000+00008771+00000+0001T   00009648+0006471633          1400 MJ2515               1AZ
105145000105145               105145               170213PP     1400+00000+PP0000007624+0000007624+000000000+000001069+0000008690+0000000003+I20000000000+0000008690+Z
105145001105145903-005000     105145006002580020007SWT CT MALLOW FISH 120g0000002000+00001314+00000+0001T   00001314+0000001634          1400 MJ2150               1AZ
105145002105145002-021064     105145006001023822246TOOTHPICKS IN-HOLDER   0000001000+00001490+00000+0001T   00001490+0000001634          1400 MJ2300               1AZ
105145003105145251-000074     105145006003000452255PROTECTION-PADS BLK ADH0000001000+00001753+00000+0001T   00001753+0000001634          1400 MJ2810               1AZ
105145004105145251-000073     105145006003000452132PROTECTION-PADS BLK ADH0000001000+00001753+00000+0001T   00001753+0000001634          1400 MJ2810               1AZ
105146000105146               105146               170213PP     1400+00000+PP0000001227+0000001227+000000000+000000172+0000001390+0000000009+I20000000000+0000001390+Z
105146001105146251-000040     105146006001023515865SEALTAPE CLEAR 48mmx50m0000001000+00001227+00000+0001T   00001227+0000001639          1400 MJ2810               1AZ
105147000105147               105147               170213PP     1400+00000+PP0000003945+0000003945+000000000+000000553+0000004498+0000000000+I40000004498+0000000000+Z
105147001105147077-000299-A   105147006003000670888GIFT-BAG PAPER JMB LOVE0000001000+00001753+00000+0001T   00001753+0000001640          1400 MJ2112               1AZ
105147002105147080-000127     105147006003000424351VALENTINES DAY 36x24CM 0000001000+00002192+00000+0001T   00002192+0000001640          1400 MJ2112               1AZ
105148000105148               105148               170213PP     1400+00000+PP0000017542+0000017542+000000000+000002456+0000019998+0000000000+I40000019998+0000000000+Z
105148001105148005-005403     105148000694202400074SOCKETSET MET 69PCE    0000001000+00017542+00000+0001T   00017542+0000001642          1400 MJ2840               1AZ
105149000105149               105149               170213PP     1400+00000+PP0000011342+0000011342+000000000+000001590+0000012932+0000000000+I40000012932+0000000000+Z
105149001105149112-116038     105149006009681820246TCS CARRIER BAG MIDI   0000001000+00000035+00000+0001T   00000035+0000001644          1400 MJ2090               1AZ
105149002105149077-000298     105149006003000275342G/BOX OCCASION WEDDING 0000003000+00002192+00000+0001T   00002192+0000001644          1400 MJ2112               1AZ
105149003105149079-013032-I   105149006003000542550ART+CRAFT DIY EVA FOAM 0000001000+00001753+00000+0001T   00001753+0000001644          1400 MJ2130               1AZ
105149004105149079-130100     105149006003000542635A&C DIY COLOUR EYES 24P0000001000+00001490+00000+0001T   00001490+0000001644          1400 MJ2130               1AZ
105149005105149018-000177     105149006001023797513MUG MINI LOVE ASSTD    0000001000+00000700+00000+0001T   00000700+0000001644          1400 MJ2515               1AZ
105149006105149903-000119     105149006001704007337SWT COCONUT-WHEEL      0000001000+00000788+00000+0001T   00000788+0000001644          1400 MJ2150               1AZ
105150000105150               105150               170213PP     1400+00000+PP0000002627+0000002627+000000000+000000370+0000002997+0000000000+I40000002997+0000000000+Z
105150001105150080-000113     105150006003000237449CARD&ENVLPE - LOVE     0000001000+00001753+00000+0001T   00001753+0000001646          1400 MJ2112               1AZ
105150002105150080-000133-A   105150006003000647019MINI VALENTINES CARD   0000002000+00000437+00000+0001T   00000437+0000001646          1400 MJ2112               1AZ
105151000105151               105151               170213PP     1400+00000+PP0000010994+0000010994+000000000+000001541+0000012535+0000000000+I40000012535+0000000000+Z
105151001105151077-000349-B   105151006001023908315G/RIBBON 3ROLLS 12BOWS 0000001000+00002630+00000+0001T   00002630+0000001655          1400 MJ2112               1BZ
105151002105151051-002402     105151006001023518347TRIGGER-SPRAYER  500ml 0000001000+00001753+00000+0001T   00001753+0000001655          1400 MJ2820               1BZ
105151003105151037-000002     105151006001023994745ASHTRAY SPIN METAL 9cm 0000001000+00003507+00000+0001T   00003507+0000001655          1400 MJ2515               1BZ
105151004105151072-020298     105151006003000561629DOG-TOY TUG-ROPE ASSTD 0000001000+00003069+00000+0001T   00003069+0000001655          1400 MJ2870               1BZ
105151005105151112-116038     105151006009681820246TCS CARRIER BAG MIDI   0000001000+00000035+00000+0001T   00000035+0000001655          1400 MJ2090               1BZ
105152000105152               105152               170213PP     1400+00000+PP0000003067+0000003067+000000000+000000430+0000003497+0000000000+I40000003497+0000000000+Z
105152001105152006-000166-D   105152006003000516490BALLOONS LRG 6PC RED   0000001000+00001314+00000+0001T   00001314+0000001656          1400 MJ2131               1BZ
105152002105152077-000011     105152006003000542352PAPER RAFFIA ASSTD COL 0000001000+00001753+00000+0001T   00001753+0000001656          1400 MJ2112               1BZ
105153000105153               105153               170213PP     1400+00000+PP0000004730+0000004730+000000000+000000663+0000005390+0000000003+I20000000000+0000005390+Z
105153001105153261-000030     105153006003000549535GUN CAP PISTOL         0000001000+00002630+00000+0001T   00002630+0000001657          1400 MJ2710               1AZ
105153002105153261-000121     105153006001023341600GUN-CAPS 8-SHOT CARD-9 0000003000+00000700+00000+0001T   00000700+0000001657          1400 MJ2710               1AZ
105154000105154               105154               170213PP     1400+00000+PP0000008810+0000008810+000000000+000001235+0000010045+0000000000+I40000010045+0000000000+Z
105154001105154903-000123     105154006925925909280SWEET GS MINI MALLOWS  0000001000+00000876+00000+0001T   00000876+0000001700          1400 MJ2150               1BZ
105154002105154903-005000     105154006002580020007SWT CT MALLOW FISH 120g0000001000+00001314+00000+0001T   00001314+0000001700          1400 MJ2150               1BZ
105154003105154018-000127     105154006001023380289MUG OCC STRAIGHT LOVE  0000002000+00001578+00000+0001T   00001753+0006471700          1400 MJ2515               1BZ
105154004105154077-000010-C   105154006001023123879CREPE-PAPER RED        0000001000+00000788+00000+0001T   00000788+0000001700          1400 MJ2112               1BZ
105154005105154077-000310     105154006001023608635GIFT-BAG 18X23CM GLOSS 0000002000+00001314+00000+0001T   00001314+0000001700          1400 MJ2112               1BZ
105154006105154112-116069     105154006009681820277TCS CARRIER BAG JUMBO  0000001000+00000048+00000+0001T   00000048+0000001700          1400 MJ2090               1BZ
105155000105155               105155               170213PP     1400+00000+PP0000012318+0000012318+000000000+000001728+0000014040+0000000006+I20000000000+0000014040+Z
105155001105155112-116069     105155006009681820277TCS CARRIER BAG JUMBO  0000001000+00000048+00000+0001T   00000048+0000001711          1400 MJ2090               1AZ
105155002105155903-000211     105155006002099001238SWT GS MALLOW ICE CREAM0000001000+00001753+00000+0001T   00001753+0000001711          1400 MJ2150               1AZ
105155003105155903-000215     105155006002099001214SWT GS MALLOW TWIST PAC0000001000+00001753+00000+0001T   00001753+0000001711          1400 MJ2150               1AZ
105155004105155903-000861     105155005010478430822SWT LOVE HEARTS SML    0000004000+00000876+00000+0001T   00000876+0000001711          1400 MJ2150               1AZ
105155005105155018-005009     105155006001023725608MUG W/PLUSH-BEAR LOVE  0000001000+00003507+00000+0001T   00003507+0000001711          1400 MJ2515               1AZ
105155006105155040-000109-B   105155006001023918512C/HOLDER CERAMIC FLOWER0000001000+00001753+00000+0001T   00002630+0008171711          1400 MJ2510               1AZ
105156000105156               105156               170213PP     1400+00000+PP0000001752+0000001752+000000000+000000246+0000001990+0000000008+I20000000000+0000001990+Z
105156001105156077-000151     105156006008766114676GIFT-WRAP C/PHANE ASSTD0000002000+00000876+00000+0001T   00000876+0000001712          1400 MJ2112               1AZ
105157000105157               105157               170213PP     1400+00000+PP0000007061+0000007061+000000000+000000991+0000008050+0000000002+I20000000000+0000008050+Z
105157001105157016-006502     105157006003000618545S/JAR GLS HERMETICO    0000001000+00006139+00000+0001T   00006139+0000001714          1400 MJ2300               1AZ
105157002105157080-000133-A   105157006003000647019MINI VALENTINES CARD   0000002000+00000437+00000+0001T   00000437+0000001714          1400 MJ2112               1AZ
105157003105157112-116069     105157006009681820277TCS CARRIER BAG JUMBO  0000001000+00000048+00000+0001T   00000048+0000001714          1400 MJ2090               1AZ
105158000105158               105158               170213PP     1400+00000+PP0000005910+0000005910+000000000+000000828+0000006730+0000000008+I20000000000+0000006730+Z
105158001105158031-080508     105158006001023802415P/FRAME PL 22X11CM LOVE0000001000+00004385+00000+0001T   00004385+0000001715          1400 MJ2510               1AZ
105158002105158046-000004     105158006001023606525BATTERY 9VOLT H/POWER  0000001000+00001490+00000+0001T   00001490+0000001715          1400 MJ2312               1AZ
105158003105158112-116038     105158006009681820246TCS CARRIER BAG MIDI   0000001000+00000035+00000+0001T   00000035+0000001715          1400 MJ2090               1AZ
105159000105159               105159               170213PP     1400+00000+PP0000016077+0000016077+000000000+000002255+0000018332+0000000000+I40000018332+0000000000+Z
105159001105159112-116038     105159006009681820246TCS CARRIER BAG MIDI   0000001000+00000035+00000+0001T   00000035+0000001718          1400 MJ2090               1AZ
105159002105159079-000510     105159006001023509079CRAYONS WAX 12-COLOUR  0000001000+00002455+00000+0001T   00002455+0000001718          1400 MJ2130               1AZ
105159003105159903-000123     105159006925925909280SWEET GS MINI MALLOWS  0000001000+00000876+00000+0001T   00000876+0000001718          1400 MJ2150               1AZ
105159004105159903-000498     105159006001704013048SWT CHOC MIGHTY MALTS  0000002000+00001227+00000+0001T   00001227+0000001718          1400 MJ2150               1AZ
105159005105159562-088335     105159006003000425372EVA PUZZLE MAT MINI    0000001000+00001753+00000+0001T   00001753+0000001718          1400 MJ2755               1AZ
105159006105159046-000400     105159006001023804983BATT ALKALINE 1.5Vx30PC0000001000+00003244+00000+0001T   00003244+0000001718          1400 MJ2312               1AZ
105159007105159087-000109     105159006001023714244RAZOR UNISEX 6-BLADE   0000002000+00002630+00000+0001T   00002630+0000001718          1400 MJ2200               1AZ
105160000105160               105160               170213PP     1400+00000+PP0000003507+0000003507+000000000+000000491+0000003990+0000000008+I20000000000+0000003990+Z
105160001105160267-000233     105160006001023688576PUZZLE 48pc EDUCATIONAL0000001000+00003507+00000+0001T   00003507+0000001719          1400 MJ2755               1AZ
105161000105161               105161               170213PP     1400+00000+PP0000015833+0000015833+000000000+000002218+0000018050+0000000001+I20000000000+0000018050+Z
105161001105161012-000002     105161006003000331079MICRO PLATE-COVER 26X9 0000001000+00003507+00000+0001T   00003507+0000001721          1400 MJ2300               1AZ
105161002105161018-000129     105161006001023403353MUG OCC. LOVE V-SHAPE  0000001000+00002630+00000+0001T   00002630+0000001721          1400 MJ2515               1AZ
105161003105161028-000026     105161006001023810847COOLER-BAG+POCKET NYLON0000001000+00009648+00000+0001T   00009648+0000001721          1400 MJ2305               1AZ
105161004105161112-116069     105161006009681820277TCS CARRIER BAG JUMBO  0000001000+00000048+00000+0001T   00000048+0000001721          1400 MJ2090               1AZ
105162000105162               105162               170213PP     1400+00000+PP0000008805+0000008805+000000000+000001233+0000010038+0000000000+I40000010038+0000000000+Z
105162001105162031-080508     105162006001023802415P/FRAME PL 22X11CM LOVE0000002000+00004385+00000+0001T   00004385+0000001723          1400 MJ2510               1AZ
105162002105162112-116038     105162006009681820246TCS CARRIER BAG MIDI   0000001000+00000035+00000+0001T   00000035+0000001723          1400 MJ2090               1AZ
105163000105163               105163               170213PP     1400+00000+PP0000006926+0000006926+000000000+000000971+0000007890+0000000007+I20000000000+0000007890+Z
105163001105163004-071200     105163006003000073399USB 2.0 CARD RDR/WRTR  0000001000+00003069+00000+0001T   00003069+0000001727          1400 MJ2310               1AZ
105163002105163079-013032-D   105163006003000389643RIBBONS                0000001000+00002630+00000+0001T   00002630+0000001727          1400 MJ2130               1AZ
105163003105163071-081091     105163006001151010287STAED/GENKEM ALL-STICK 0000001000+00001227+00000+0001T   00001227+0000001727          1400 MJ2130               1AZ
105164000105164               105164               170213PP     1400+00000+PP0000017123+0000017123+000000000+000002400+0000019523+0000000000+I40000019523+0000000000+Z
105164001105164077-000310     105164006001023608635GIFT-BAG 18X23CM GLOSS 0000004000+00001314+00000+0001T   00001314+0000001738          1400 MJ2112               1BZ
105164002105164018-000136     105164006001023659026MUG OCC LOVE W/PLUSH   0000003000+00003507+00000+0001T   00003507+0000001738          1400 MJ2515               1BZ
105164003105164080-000133     105164006003000535613CARD&ENV MINI ASTD DSGN0000003000+00000437+00000+0001T   00000437+0000001738          1400 MJ2112               1BZ
105164004105164112-116038     105164006009681820246TCS CARRIER BAG MIDI   0000001000+00000035+00000+0001T   00000035+0000001738          1400 MJ2090               1BZ
105165000105165               105165               170213PP     1400+00000+PP0000004242+0000004242+000000000+000000595+0000004837+0000000000+I40000004837+0000000000+Z
105165001105165077-000314     105165006003000181148GIFT-BAG 11X14CM MATT  0000001000+00000876+00000+0001T   00000876+0000001753          1400 MJ2112               1BZ
105165002105165089-000027     105165006003000254071KEY CHAIN MOM/DAD ASSTD0000001000+00001753+00000+0001T   00001753+0000001753          1400 MJ2205               1BZ
105165004105165018-000127     105165006001023380289MUG OCC STRAIGHT LOVE  0000001000+00001578+00000+0001T   00001753+0006471753          1400 MJ2515               1BZ
105165005105165112-116038     105165006009681820246TCS CARRIER BAG MIDI   0000001000+00000035+00000+0001T   00000035+0000001753          1400 MJ2090               1BZ
105166000105166               105166               170213PP     1400+00000+PP0000005259+0000005259+000000000+000000738+0000005997+0000000000+I40000005997+0000000000+Z
105166001105166903-000095     105166006001704011495SWT SPECKLED-EGGS 100G 0000001000+00002104+00000+0001T   00002104+0000001805          1400 MJ2150               1AZ
105166002105166080-000113     105166006003000237449CARD&ENVLPE - LOVE     0000001000+00001753+00000+0001T   00001753+0000001805          1400 MJ2112               1AZ
105166003105166304-001204     105166006001023737984FLOWER OCC. TEDDY/ROSES0000001000+00001402+00000+0001T   00001490+0006471805          1400 MJ2510               1AZ
C10516500                                          170213PP903-000155     17522547SLAVE 1     MJ22IC0000000000+0000000000+0030000001000+
M17021391                              CASH        PPSLAVE 1                       Z-REPORT No.   165TOTAL (Sales - Refunds)           4614.09       CASH TO BE BANKED                 1439.90       DEBIT CARDS                          0.00       CREDIT CARDS                      3174.19       Z-READING                         4614.09       AIRTIME DEBIT CARD SALES             0.00       AIRTIME CARD SALES                   0.00       OVERS/UNDERS                         0.00       AIRTIME CASH SALES                   0.00       GIFT CARDS                           0.00       GIFT CARD CASH SALES                 0.00       T O T A L  CASH PAYOUTS              0.00                                                                                                                                                                                                                                                                                                                                                      Z
M17021392                              CASH        PPABSENT                                                                                                                                                                                          ANNUAL LEAVE                                                                                                                                                                                    DAY OFF                                                                                                                                                                                         COMMENTS                                                                                                                                                                                                                                                                                                                                                                                       Z
Y17021300                                          PP00000000404816+000050
ZPP17021320203 SLAVE 1      SALES DATA                     NEXT INVOICE NO.  105167 0165
X PP Slave 1 First invoice 105117 170213 Last invoice 105166 170213 Next invoice 105167 Total number of records 000000205 clbackup completed 20:20:51
