204773000204773               204773               170213PP     1400+00000+PP0000016271+0000016271+000000000+000002280+0000018551+0000000000+I40000018551+0000000000+Z
204773001204773018-000136     204773006001023659026MUG OCC LOVE W/PLUSH   0000001000+00003507+00000+0001T   00003507+0000000911          1400 SG2515               2BZ
204773002204773368-000111     204773006001023780812PLUSH BEAR/DOG 29CM    0000001000+00012279+00000+0001T   00012279+0000000911          1400 SG2745               2BZ
204773003204773080-000133     204773006003000535613CARD&ENV MINI ASTD DSGN0000001000+00000437+00000+0001T   00000437+0000000911          1400 SG2112               2BZ
204773004204773112-116069     204773006009681820277TCS CARRIER BAG JUMBO  0000001000+00000048+00000+0001T   00000048+0000000911          1400 SG2090               2BZ
204774000204774               204774               170213PP     1400+00000+PP0000001753+0000001753+000000000+000000246+0000001990+0000000009+I20000000000+0000001990+Z
204774001204774007-000192     204774006009635830062BOOK H/COVER A4 192PAGE0000001000+00001753+00000+0001T   00001753+0000000915          1400 SG2130               2BZ
204775000204775               204775               170213PP     1400+00000+PP0000025026-0000025026-000000000+000003505-0000028531-0000000000+I40000028531-0000000000+Z
204775001204775002-220002     204775006001023677877F/COVER SQ 31cm WHT    0000001000-00002630+00000+0001T   00002630+0000000924          1400 SG23001IC            2 Z
204775002204775024-000042     204775006002580007916M/CUP MINI 30ML H/HOUSE0000001000-00002192+00000+0001T   00002192+0000000924          1400 SG23001IC            2 Z
204775003204775024-007060     204775006003000289950CAKE-SERVER PL ROUND   0000001000-00008771+00000+0001T   00008771+0000000924          1400 SG23001IC            2 Z
204775004204775036-000519     204775006003000560752HOOK HANGER CHROME PL  0000002000-00003507+00000+0001T   00003507+0000000924          1400 SG22121IC            2 Z
204775005204775047-005127     204775006003000093861CABLETIES 100/150/200mm0000001000-00002192+00000+0001T   00002192+0000000924          1400 SG28801IC            2 Z
204775006204775051-002400     204775005024432088448TRIGGER-SPRAYER 900ml  0000001000-00002192+00000+0001T   00002192+0000000924          1400 SG28201IC            2 Z
204775007204775112-116038     204775006003000534906TCS CARRIER BAG MIDI   0000001000-00000035+00000+0001T   00000035+0000000924          1400 SG20901IC            2 Z
204776000204776               204776               170213PP     1400+00000+PP0000005172+0000005172+000000000+000000725+0000005890+0000000007+I20000000000+0000005890+Z
204776001204776080-000127     204776006003000424351VALENTINES DAY 36x24CM 0000001000+00002192+00000+0001T   00002192+0000000925          1400 SG2112               2BZ
204776002204776039-001023     204776006003000466337CANDLE TEA-LITE METALIC0000001000+00001753+00000+0001T   00001753+0000000925          1400 SG2510               2BZ
204776003204776903-000519     204776006001704012805SWT MS LIQ-O-GHETTI    0000001000+00001227+00000+0001T   00001227+0000000925          1400 SG2150               2BZ
204777000204777               204777               170213PP     1400+00000+PP0000025478+0000025478+000000000+000003570+0000029048+0000000000+I40000029048+0000000000+Z
204777001204777112-116069     204777006009681820277TCS CARRIER BAG JUMBO  0000001000+00000048+00000+0001T   00000048+0000000927          1400 SG2090               2BZ
204777002204777006-000190     204777006003000685530BALLOONS LOVE 81x91cm  0000004000+00004385+00000+0001T   00004385+0000000927          1400 SG2131               2BZ
204777003204777566-000367     204777006003000645558STICKER WINDOW DECOR   0000003000+00002630+00000+0001T   00002630+0000000927          1400 SG2130               2BZ
204778000204778               204778               170213PP     1400+00000+PP0000006572+0000006572+000000000+000000923+0000007495+0000000000+I40000007495+0000000000+Z
204778001204778018-000127     204778006001023380289MUG OCC STRAIGHT LOVE  0000001000+00001578+00000+0001T   00001753+0006470954          1400 SG2515               2BZ
204778002204778079-013032-D   204778006003000389643RIBBONS                0000001000+00002630+00000+0001T   00002630+0000000954          1400 SG2130               2BZ
204778003204778077-000303     204778006001023593757GIFT-BAG PAPER MED     0000001000+00001578+00000+0001T   00001578+0000000954          1400 SG2112               2BZ
204778004204778903-000183     204778006003000451043SWT LB HEART LOLLY     0000002000+00000393+00000+0001T   00000393+0000000954          1400 SG2150               2BZ
204779000204779               204779               170213PP     1400+00000+PP0000002630+0000002630+000000000+000000369+0000002990+0000000009+I20000000000+0000002990+Z
204779001204779027-008813     204779006001023552334DUSTER RETRCTABLE 122cm0000001000+00002630+00000+0001T   00002630+0000001021          1400 SG2212               2AZ
204780000204780               204780               170213PP     1400+00000+PP0000021927+0000021927+000000000+000003071+0000024998+0000000000+I40000024998+0000000000+Z
204780001204780361-000505     204780006003000662876DOLL MED 29cm DOCTOR   0000001000+00011402+00000+0001T   00011402+0000001043          1400 SG2725               2CZ
204780002204780361-003005     204780006003000397570DOLL 29CM:BONNIE PET   0000001000+00010525+00000+0001T   00010525+0000001043          1400 SG2725               2CZ
204781000204781               204781               170213PP     1400+00000+PP0000005610+0000005610+000000000+000000787+0000006390+0000000007+I20000000000+0000006390+Z
204781001204781206-000620     204781006003000631797BACK SCRATCHER EXTEND  0000001000+00002630+00000+0001T   00002630+0000001055          1400 SG2321               2BZ
204781002204781077-000309     204781006001023608604GIFT-BAG 25X32CM GLOSS 0000001000+00001753+00000+0001T   00001753+0000001055          1400 SG2112               2BZ
204781003204781903-000519     204781006001704012805SWT MS LIQ-O-GHETTI    0000001000+00001227+00000+0001T   00001227+0000001055          1400 SG2150               2BZ
204782000204782               204782               170213PP     1400+00000+PP0000016222+0000016222+000000000+000002272+0000018490+0000000004+I20000000000+0000018490+Z
204782001204782077-000381     204782006003000247707GIFT-BAG 25X32CM S/COL 0000001000+00001753+00000+0001T   00001753+0000001056          1400 SG2112               2BZ
204782002204782089-000098     204782006003000677443KEY CHAIN OPENER ASSTD 0000001000+00001314+00000+0001T   00001314+0000001056          1400 SG2205               2BZ
204782003204782200-000025-A   204782006925406841054BAG ZIPPERSEAL 15PC    0000001000+00002192+00000+0001T   00002192+0000001056          1400 SG2214               2BZ
204782004204782001-091415     204782006003000329113W/GLS OCC. LOVE 2PC 2800000001000+00008771+00000+0001T   00009648+0006471056          1400 SG2515               2BZ
204782005204782002-001700     204782006003000333707ONION-KEEPER PL        0000001000+00002192+00000+0001T   00002192+0000001056          1400 SG2300               2BZ
204783000204783               204783               170213PP     1400+00000+PP0000006970+0000006970+000000000+000000982+0000007952+0000000000+I40000007952+0000000000+Z
204783001204783103-000472     204783006003000631049FLOWER BASKET W/HANDLE 0000001000+00003507+00000+0001T   00003507+0000001059          1400 SG2300               2BZ
204783002204783304-001204     204783006001023737984FLOWER OCC. TEDDY/ROSES0000001000+00001402+00000+0001T   00001490+0006471059          1400 SG2510               2BZ
204783003204783112-116069     204783006009681820277TCS CARRIER BAG JUMBO  0000002000+00000048+00000+0001T   00000048+0000001059          1400 SG2090               2BZ
204783004204783903-000183     204783006003000451043SWT LB HEART LOLLY     0000005000+00000393+00000+0001T   00000393+0000001059          1400 SG2150               2BZ
204784000204784               204784               170213PP     1400+00000+PP0000001753+0000001753+000000000+000000246+0000001990+0000000009+I20000000000+0000001990+Z
204784001204784007-000043     204784006009635831496DISPLAY-BOOK PL A4 20PG0000001000+00001753+00000+0001T   00001753+0000001111          1400 SG2130               2BZ
204785000204785               204785               170213PP     1400+00000+PP0000004385+0000004385+000000000+000000614+0000004990+0000000009+I20000000000+0000004990+Z
204785001204785368-000001     204785006003000097982Plush Bear 25cm        0000001000+00004385+00000+0001T   00004385+0000001116          1400 SG2745               2BZ
204786000204786               204786               170213PP     1400+00000+PP0000000525+0000000525+000000000+000000074+0000000590+0000000009+I20000000000+0000000590+Z
204786001204786903-000155     204786006009803374435SWT LOLLY I LUV U HEART0000001000+00000525+00000+0001T   00000525+0000001118          1400 SG2150               2BZ
204787000204787               204787               170213PP     1400+00000+PP0000004417+0000004417+000000000+000000620+0000005030+0000000007+I20000000000+0000005030+Z
204787001204787112-116038     204787006009681820246TCS CARRIER BAG MIDI   0000001000+00000035+00000+0001T   00000035+0000001125          1400 SG2090               2BZ
204787002204787039-000114     204787006001023524058CANDLE T/LITE RED 3.5CM0000001000+00001753+00000+0001T   00001753+0000001125          1400 SG2510               2BZ
204787003204787077-000011-C   204787006001023808523TISSUE 10xSHTS RED     0000001000+00000876+00000+0001T   00000876+0000001125          1400 SG2112               2BZ
204787004204787038-001804     204787006001023766618DOILIES 27cm RND PKT-100000001000+00001753+00000+0001T   00001753+0000001125          1400 SG2300               2BZ
204788000204788               204788               170213PP     1400+00000+PP0000001753+0000001753+000000000+000000246+0000001990+0000000009+I20000000000+0000001990+Z
204788001204788077-000115     204788006001023834225WRAP METALLIC 700mmx1m 0000001000+00001753+00000+0001T   00001753+0000001137          1400 SG2112               2BZ
204789000204789               204789               170213PP     1400+00000+PP0000007936+0000007936+000000000+000001113+0000009049+0000000000+I40000009049+0000000000+Z
204789001204789077-000299     204789006003000395576G/BAG 32x25cm LRG LOVE 0000001000+00001490+00000+0001T   00001490+0000001142          1400 SG2112               2BZ
204789002204789077-000011-C   204789006001023808523TISSUE 10xSHTS RED     0000001000+00000876+00000+0001T   00000876+0000001142          1400 SG2112               2BZ
204789003204789018-000177     204789006001023797513MUG MINI LOVE ASSTD    0000001000+00000700+00000+0001T   00000700+0000001142          1400 SG2515               2BZ
204789004204789104-000030     204789006001023803481BASKET PL 28x20x12cm   0000001000+00004385+00000+0001T   00004385+0000001142          1400 SG2210               2BZ
204789005204789112-116069     204789006009681820277TCS CARRIER BAG JUMBO  0000001000+00000048+00000+0001T   00000048+0000001142          1400 SG2090               2BZ
204789006204789080-000133-A   204789006003000647019MINI VALENTINES CARD   0000001000+00000437+00000+0001T   00000437+0000001142          1400 SG2112               2BZ
204790000204790               204790               170213PP     1400+00000+PP0000003978+0000003978+000000000+000000559+0000004530+0000000007+I20000000000+0000004530+Z
204790001204790079-013032-D   204790006003000389643RIBBONS                0000001000+00002630+00000+0001T   00002630+0000001216          1400 SG2130               2BZ
204790002204790080-000133-A   204790006003000647019MINI VALENTINES CARD   0000001000+00000437+00000+0001T   00000437+0000001216          1400 SG2112               2BZ
204790003204790112-116038     204790006009681820246TCS CARRIER BAG MIDI   0000001000+00000035+00000+0001T   00000035+0000001216          1400 SG2090               2BZ
204790004204790077-000314     204790006003000181148GIFT-BAG 11X14CM MATT  0000001000+00000876+00000+0001T   00000876+0000001216          1400 SG2112               2BZ
204791000204791               204791               170213PP     1400+00000+PP0000006785+0000006785+000000000+000000951+0000007736+0000000000+I40000007736+0000000000+Z
204791001204791077-000299     204791006003000395576G/BAG 32x25cm LRG LOVE 0000001000+00001490+00000+0001T   00001490+0000001220          1400 SG2112               2BZ
204791002204791080-000113     204791006003000237449CARD&ENVLPE - LOVE     0000001000+00001753+00000+0001T   00001753+0000001220          1400 SG2112               2BZ
204791003204791018-000136     204791006001023659026MUG OCC LOVE W/PLUSH   0000001000+00003507+00000+0001T   00003507+0000001220          1400 SG2515               2BZ
204791004204791112-116038     204791006009681820246TCS CARRIER BAG MIDI   0000001000+00000035+00000+0001T   00000035+0000001220          1400 SG2090               2BZ
204792000204792               204792               170213PP     1400+00000+PP0000018095+0000018095+000000000+000002535+0000020630+0000000000+I40000020630+0000000000+Z
204792001204792089-000021     204792006009697230923KEY CHAIN ID           0000004000+00000613+00000+0001T   00000613+0000001222          1400 SG2205               2BZ
204792002204792112-116038     204792006009681820246TCS CARRIER BAG MIDI   0000001000+00000035+00000+0001T   00000035+0000001222          1400 SG2090               2BZ
204792003204792007-000211     204792006003000005796STATIONERY N/PAD 3PCK  0000001000+00001578+00000+0001T   00001578+0000001222          1400 SG2130               2BZ
204792004204792562-000070     204792006003000600748EDU PLAY DOUGH 50g 8pc 0000001000+00007016+00000+0001T   00007016+0000001222          1400 SG2755               2BZ
204792005204792562-000011     204792006003000600984PLAY DOUGH NEON TUBE   0000001000+00003507+00000+0001T   00003507+0000001222          1400 SG2755               2BZ
204792006204792562-000021     204792006001023800367PLAY DOUGH SET 3 ASSTD 0000001000+00003507+00000+0001T   00003507+0000001222          1400 SG2755               2BZ
204793000204793               204793               170213PP     1400+00000+PP0000002630+0000002630+000000000+000000369+0000002999+0000000000+I40000002999+0000000000+Z
204793001204793031-000878-D   204793006003000602476P/FRAME CERTIFICATE    0000001000+00002630+00000+0001T   00002630+0000001224          1400 SG2510               2BZ
204794000204794               204794               170213PP     1400+00000+PP0000010566+0000010566+000000000+000001481+0000012040+0000000007+I20000000000+0000012040+Z
204794001204794562-000504     204794006001023619327EDU CUBE RUBIX         0000001000+00002630+00000+0001T   00002630+0000001230          1400 SG2755               2AZ
204794002204794079-000801     204794006003000539642ART+CRAFT COLOUR       0000001000+00003507+00000+0001T   00003507+0000001230          1400 SG2130               2AZ
204794003204794079-006522     204794006001023149442ART+CRAFT GLUE ASSORTED0000001000+00001753+00000+0001T   00001753+0000001230          1400 SG2130               2AZ
204794004204794567-011401     204794009781453000564BK COLOURING BABY ANIMA0000001000+00001314+00000+0001T   00001314+0000001230          1400 SG2757               2AZ
204794005204794903-005001     204794006002580020014SWT CT MALLOW MICE 120g0000001000+00001314+00000+0001T   00001314+0000001230          1400 SG2150               2AZ
204794006204794112-116069     204794006009681820277TCS CARRIER BAG JUMBO  0000001000+00000048+00000+0001T   00000048+0000001230          1400 SG2090               2AZ
204795000204795               204795               170213PP     1400+00000+PP0000003810+0000003810+000000000+000000536+0000004340+0000000006+I20000000000+0000004340+Z
204795001204795077-000150-D   204795006003000054343GIFT-WRAP CELLPHANE CLR0000001000+00000876+00000+0001T   00000876+0000001239          1400 SG2112               2AZ
204795002204795077-000239     204795006003000160419GIFT-RIBBON ROLL PEARL 0000001000+00001753+00000+0001T   00001753+0000001239          1400 SG2112               2AZ
204795003204795077-000010-C   204795006001023123879CREPE-PAPER RED        0000001000+00000788+00000+0001T   00000788+0000001239          1400 SG2112               2AZ
204795004204795903-000183     204795006003000451043SWT LB HEART LOLLY     0000001000+00000393+00000+0001T   00000393+0000001239          1400 SG2150               2AZ
204796000204796               204796               170213PP     1400+00000+PP0000000876+0000000876+000000000+000000123+0000000990+0000000009+I20000000000+0000000990+Z
204796001204796306-000021-A   204796006001023891358EARBUDS COTTON 100PCE  0000001000+00000876+00000+0001T   00000876+0000001241          1400 SG2200               2AZ
204797000204797               204797               170213PP     1400+00000+PP0000000525+0000000525+000000000+000000074+0000000590+0000000009+I20000000000+0000000590+Z
204797001204797306-000019     204797006001023734846TOOTHBRUSH W/DESIGN    0000001000+00000525+00000+0001T   00000525+0000001244          1400 SG2200               2BZ
204798000204798               204798               170213PP     1400+00000+PP0000001753+0000001753+000000000+000000246+0000001990+0000000009+I20000000000+0000001990+Z
204798001204798084-009411     204798006001023629968SCISSORS 17cm PL-HANDLE0000001000+00001753+00000+0001T   00001753+0000001247          1400 SG2200               2BZ
204799000204799               204799               170213PP     1400+00000+PP0000005262+0000005262+000000000+000000737+0000005990+0000000009+I20000000000+0000005990+Z
204799001204799304-001169     204799006003000523894FLOWER FLOATING 28CM   0000001000+00005262+00000+0001T   00005262+0000001248          1400 SG2510               2BZ
204800000204800               204800               170213PP     1400+00000+PP0000002630+0000002630+000000000+000000369+0000002990+0000000009+I20000000000+0000002990+Z
204800001204800566-000367     204800006003000645558STICKER WINDOW DECOR   0000001000+00002630+00000+0001T   00002630+0000001250          1400 SG2130               2BZ
204801000204801               204801               170213PP     1400+00000+PP0000010156+0000010156+000000000+000001426+0000011582+0000000000+I40000011582+0000000000+Z
204801001204801366-004050     204801006003000308330DRESS UP TEEN BADGES   0000001000+00001490+00000+0001T   00001490+0000001254          1400 SG2131               2BZ
204801002204801001-000175     204801006001023788108B/MUG GLS LOVE 380ML   0000001000+00004385+00000+0001T   00004385+0000001254          1400 SG2515               2BZ
204801003204801006-000166-D   204801006003000516490BALLOONS LRG 6PC RED   0000001000+00001314+00000+0001T   00001314+0000001254          1400 SG2131               2BZ
204801004204801002-000015     204801006003000555604CAPPUCCINO STENCILS 12P0000001000+00001753+00000+0001T   00001753+0000001254          1400 SG2300               2BZ
204801005204801903-000183     204801006003000451043SWT LB HEART LOLLY     0000003000+00000393+00000+0001T   00000393+0000001254          1400 SG2150               2BZ
204801006204801112-116038     204801006009681820246TCS CARRIER BAG MIDI   0000001000+00000035+00000+0001T   00000035+0000001254          1400 SG2090               2BZ
204802000204802               204802               170213PP     1400+00000+PP0000001753+0000001753+000000000+000000246+0000001990+0000000009+I20000000000+0000001990+Z
204802001204802077-000239     204802006003000160419GIFT-RIBBON ROLL PEARL 0000001000+00001753+00000+0001T   00001753+0000001255          1400 SG2112               2BZ
204803000204803               204803               170213PP     1400+00000+PP0000010466+0000010466+000000000+000001467+0000011930+0000000003+I20000000000+0000011930+Z
204803001204803046-000014     204803006001023725387BATTERIES SIZE:AAA 4PCE0000001000+00001139+00000+0001T   00001139+0000001306          1400 SG2312               2BZ
204803002204803112-116038     204803006009681820246TCS CARRIER BAG MIDI   0000001000+00000035+00000+0001T   00000035+0000001306          1400 SG2090               2BZ
204803003204803018-000177     204803006001023797513MUG MINI LOVE ASSTD    0000001000+00000700+00000+0001T   00000700+0000001306          1400 SG2515               2BZ
204803004204803206-000120     204803006003000628308PEELER CARROT SHARPENER0000001000+00001753+00000+0001T   00001753+0000001306          1400 SG2321               2BZ
204803005204803016-006515-A   204803006003000461707S/JAR GLS W/HANDLE 500 0000001000+00001578+00000+0001T   00001753+0008191306          1400 SG2300               2BZ
204803006204803018-000170     204803006001023775528MUG OCC. LOVE 2PC MINI 0000001000+00002192+00000+0001T   00002192+0000001306          1400 SG2515               2BZ
204803007204803039-080959     204803006003000048922CANDLE PILLAR BALL 8CM 0000001000+00003069+00000+0001T   00003069+0000001306          1400 SG2510               2BZ
204804000204804               204804               170213PP     1400+00000+PP0000002892+0000002892+000000000+000000405+0000003297+0000000000+I40000003297+0000000000+Z
204804001204804150-000774     204804006001023287427UTILITY-BOX MEDIUM     0000003000+00000964+00000+0001T   00000964+0000001315          1400 SG2810               2AZ
204805000204805               204805               170213PP     1400+00000+PP0000005334+0000005334+000000000+000000750+0000006080+0000000004+I20000000000+0000006080+Z
204805001204805089-000018     204805006003000176724KEY CHAIN INSPIRATION  0000001000+00003507+00000+0001T   00003507+0000001321          1400 SG2205               2BZ
204805002204805077-000321     204805006001023677501GIFT-BAG 11X14CM E/D FL0000001000+00000613+00000+0001T   00000613+0000001321          1400 SG2112               2BZ
204805003204805903-000183     204805006003000451043SWT LB HEART LOLLY     0000003000+00000393+00000+0001T   00000393+0000001321          1400 SG2150               2BZ
204805004204805112-116038     204805006009681820246TCS CARRIER BAG MIDI   0000001000+00000035+00000+0001T   00000035+0000001321          1400 SG2090               2BZ
204806000204806               204806               170213PP     1400+00000+PP0000003067+0000003067+000000000+000000430+0000003497+0000000000+I40000003497+0000000000+Z
204806001204806071-001102     204806006003000274598MARKER PERM MED 2PCE   0000001000+00001753+00000+0001T   00001753+0000001324          1400 SG2130               2BZ
204806002204806007-000214     204806006001023809322STICKERS ALPHA    SET-50000001000+00001314+00000+0001T   00001314+0000001324          1400 SG2130               2BZ
204807000204807               204807               170213PP     1400+00000+PP0000008771+0000008771+000000000+000001228+0000009999+0000000000+I40000009999+0000000000+Z
204807001204807031-007010     204807006003000467945P/FRAME WDN CERTIFICATE0000001000+00008771+00000+0001T   00008771+0000001327          1400 SG2510               2BZ
204808000204808               204808               170213PP     1400+00000+PP0000001753+0000001753+000000000+000000246+0000001999+0000000000+I40000001999+0000000000+Z
204808001204808467-000002     204808006001023354518BEACH-SET PL 2PCE      0000001000+00001753+00000+0001T   00001753+0000001359          1400 SG2785               2BZ
204809000204809               204809               170213PP     1400+00000+PP0000009900+0000009900+000000000+000001391+0000011290+0000000001+I20000000000+0000011290+Z
204809001204809304-001204     204809006001023737984FLOWER OCC. TEDDY/ROSES0000004000+00001402+00000+0001T   00001490+0006471401          1400 SG2510               2BZ
204809002204809018-000170     204809006001023775528MUG OCC. LOVE 2PC MINI 0000001000+00002192+00000+0001T   00002192+0000001401          1400 SG2515               2BZ
204809003204809903-000155     204809006009803374435SWT LOLLY I LUV U HEART0000004000+00000525+00000+0001T   00000525+0000001401          1400 SG2150               2BZ
204810000204810               204810               170213PP     1400+00000+PP0000002630+0000002630+000000000+000000369+0000002990+0000000009+I20000000000+0000002990+Z
204810001204810251-000003     204810006003000266159TAPE D/S 18x300mm V/PCK0000001000+00002630+00000+0001T   00002630+0000001412          1400 SG2810               2BZ
204811000204811               204811               170213PP     1400+00000+PP0000010520+0000010520+000000000+000001476+0000011990+0000000006+I20000000000+0000011990+Z
204811001204811019-071603     204811006001023772039RIVER-STONES 1kg PEACH 0000004000+00002630+00000+0001T   00002630+0000001417          1400 SG2510               2BZ
204812000204812               204812               170213PP     1400+00000+PP0000000350+0000000350+000000000+000000049+0000000390+0000000009+I20000000000+0000000390+Z
204812001204812007-000167     204812006009685857347SPIRAL NOTES A7 72PG   0000001000+00000350+00000+0001T   00000350+0000001420          1400 SG2130               2BZ
204813000204813               204813               170213PP     1400+00000+PP0000030555+0000030555+000000000+000004284+0000034839+0000000000+I40000034839+0000000000+Z
204813001204813112-116069     204813006009681820277TCS CARRIER BAG JUMBO  0000001000+00000048+00000+0001T   00000048+0000001434          1400 SG2090               2BZ
204813002204813077-000303     204813006001023593757GIFT-BAG PAPER MED     0000001000+00001578+00000+0001T   00001578+0000001434          1400 SG2112               2BZ
204813003204813079-006496     204813006003000160105GLITTER SHAKERS        0000001000+00001753+00000+0001T   00001753+0000001434          1400 SG2130               2BZ
204813004204813071-001019     204813006001023474513MARKER BLACK NAME-PEN  0000001000+00000876+00000+0001T   00000876+0000001434          1400 SG2130               2BZ
204813005204813071-081101-A   204813006003000326549GLUE-STICK 25g BLISTER 0000001000+00000788+00000+0001T   00000788+0000001434          1400 SG2130               2BZ
204813006204813089-000027     204813006003000254071KEY CHAIN MOM/DAD ASSTD0000001000+00001753+00000+0001T   00001753+0000001434          1400 SG2205               2BZ
204813007204813566-001108     204813000721129017341NAIL-JEWELLERY ASSTD   0000001000+00000876+00000+0001T   00000876+0000001434          1400 SG2130               2BZ
204813008204813083-000055     204813006003000003853LIGHTER ELCTRNC REFILBL0000001000+00000613+00000+0001T   00000613+0000001434          1400 SG2315               2BZ
204813009204813079-009702-C   204813008427973059309PAPER SIRIO A2 VIOLET  0000001000+00001051+00000+0001T   00001051+0000001434          1400 SG2130               2BZ
204813010204813030-000031-A   204813006003000457588PLAQUE W/WORDS ASSTD   0000001000+00004385+00000+0001T   00004823+0006471434          1400 SG2505               2BZ
204813011204813304-001011     204813006001023806727FLWR ROSE RED W/BEAR   0000002000+00000613+00000+0001T   00000788+0006471434          1400 SG2510               2BZ
204813012204813030-000040     204813006003000396375PLAQUE WDN HANGING HRTS0000001000+00003069+00000+0001T   00003069+0000001434          1400 SG2505               2BZ
204813013204813080-000133-A   204813006003000647019MINI VALENTINES CARD   0000001000+00000437+00000+0001T   00000437+0000001434          1400 SG2112               2BZ
204813014204813039-000114     204813006001023524058CANDLE T/LITE RED 3.5CM0000001000+00001753+00000+0001T   00001753+0000001434          1400 SG2510               2BZ
204813015204813001-091415     204813006003000329113W/GLS OCC. LOVE 2PC 2800000001000+00008771+00000+0001T   00009648+0006471434          1400 SG2515               2BZ
204813016204813080-000124     204813006003000297733CARD & ENV VALENTINES  0000001000+00001578+00000+0001T   00001578+0000001434          1400 SG2112               2BZ
204814000204814               204814               170213PP     1400+00000+PP0000006520+0000006520+000000000+000000915+0000007435+0000000000+I40000007435+0000000000+Z
204814001204814304-001204     204814006001023737984FLOWER OCC. TEDDY/ROSES0000002000+00001402+00000+0001T   00001490+0006471443          1400 SG2510               2BZ
204814002204814040-000213     204814006001023617736CANDLE-HOLDER DAISY    0000003000+00001227+00000+0001T   00001227+0000001443          1400 SG2510               2BZ
204814003204814112-116038     204814006009681820246TCS CARRIER BAG MIDI   0000001000+00000035+00000+0001T   00000035+0000001443          1400 SG2090               2BZ
204815000204815               204815               170213PP     1400+00000+PP0000002630+0000002630+000000000+000000369+0000002999+0000000000+I40000002999+0000000000+Z
204815001204815036-000012     204815006001023991584LINT BRUSH W/PL HANDLE 0000001000+00002630+00000+0001T   00002630+0000001449          1400 SG2212               2BZ
204816000204816               204816               170213PP     1400+00000+PP0000008771+0000008771+000000000+000001228+0000009990+0000000009+I20000000000+0000009990+Z
204816001204816031-000924     204816006001023669964P/FRAME COLLAGE PL     0000001000+00008771+00000+0001T   00008771+0000001454          1400 SG25101IC            2BZ
204817000204817               204817               170213PP     1400+00000+PP0000010397+0000010397+000000000+000001456+0000011853+0000000000+I40000011853+0000000000+Z
204817001204817903-002900     204817005996071650648QUICK MILK 5 CHOCO 5PC 0000001000+00001578+00000+0001T   00001578+0000001456          1400 SG2150               2BZ
204817002204817031-000924     204817006001023669964P/FRAME COLLAGE PL     0000001000+00008771+00000+0001T   00008771+0000001456          1400 SG2510               2BZ
204817003204817112-116069     204817006009681820277TCS CARRIER BAG JUMBO  0000001000+00000048+00000+0001T   00000048+0000001456          1400 SG2090               2BZ
204818000204818               204818               170213PP     1400+00000+PP0000001753+0000001753+000000000+000000246+0000001990+0000000009+I20000000000+0000001990+Z
204818001204818007-000184     204818006003000135424NOTEBOOK               0000001000+00001753+00000+0001T   00001753+0000001456          1400 SG2130               2BZ
204819000204819               204819               170213PP     1400+00000+PP0000006693+0000006693+000000000+000000941+0000007630+0000000004+I20000000000+0000007630+Z
204819001204819566-000070     204819006003000283798STICKERS POP UP ASSTD  0000001000+00001753+00000+0001T   00001753+0000001503          1400 SG2130               2AZ
204819002204819566-000067     204819006003000349180STICKERS GLITTER       0000001000+00001753+00000+0001T   00002192+0008151503          1400 SG2130               2AZ
204819003204819112-116038     204819006009681820246TCS CARRIER BAG MIDI   0000001000+00000035+00000+0001T   00000035+0000001503          1400 SG2090               2AZ
204819004204819903-000891     204819006009702258997SWT GUM BEECHIES MUSK  0000004000+00000788+00000+0001T   00000788+0000001503          1400 SG2150               2AZ
204820000204820               204820               170213PP     1400+00000+PP0000007275+0000007275+000000000+000001020+0000008295+0000000000+I40000008295+0000000000+Z
204820001204820080-000113     204820006003000237449CARD&ENVLPE - LOVE     0000001000+00001753+00000+0001T   00001753+0000001512          1400 SG2112               2AZ
204820002204820301-085004     204820006003000420469ORN LOVE PLAQUE 21X10CM0000001000+00003507+00000+0001T   00003946+0006471512          1400 SG2505               2AZ
204820003204820903-000155     204820006009803374435SWT LOLLY I LUV U HEART0000001000+00000525+00000+0001T   00000525+0000001512          1400 SG2150               2AZ
204820004204820077-000452     204820006003000284986G/BAG METALLIC MED EMB 0000001000+00001490+00000+0001T   00001490+0000001512          1400 SG2112               2AZ
204821000204821               204821               170213PP     1400+00000+PP0000009733+0000009733+000000000+000001364+0000011090+0000000007+I20000000000+0000011090+Z
204821001204821200-000011     204821006003000613489DISPOSABLE BAG ZIPER   0000001000+00003507+00000+0001T   00003507+0000001519          1400 SG2214               2AZ
204821002204821200-000070     204821006003000677290STRAWS 33cm FLEX 70PCE 0000001000+00001753+00000+0001T   00001753+0000001519          1400 SG2214               2AZ
204821003204821007-000324     20482100600968585864125 SHEETS BRIGHTS MARLI0000001000+00003507+00000+0001T   00003507+0000001519          1400 SG2130               2AZ
204821004204821112-116069     204821006009681820277TCS CARRIER BAG JUMBO  0000001000+00000048+00000+0001T   00000048+0000001519          1400 SG2090               2AZ
204821005204821079-009700-C   204821006003000545636PAPER SIRIO A4 VIOLET  0000002000+00000306+00000+0001T   00000306+0000001519          1400 SG2130               2AZ
204821006204821079-009700-M   204821006003000634101PAPER SIRIO A4 PINK COL0000001000+00000306+00000+0001T   00000306+0000001519          1400 SG2130               2AZ
204822000204822               204822               170213PP     1400+00000+PP0000010518+0000010518+000000000+000001476+0000011994+0000000000+I40000011994+0000000000+Z
204822001204822077-000408     204822006003000145218G/BAG PP 15X21X7CM     0000003000+00000876+00000+0001T   00000876+0000001521          1400 SG2112               2AZ
204822002204822368-000040     204822006003000671786PLUSH ICONS 7.5cm      0000001000+00002630+00000+0001T   00002630+0000001521          1400 SG2745               2AZ
204822003204822368-000100     204822006001023474742PLUSH MD BEAR 12cm     0000002000+00002630+00000+0001T   00002630+0000001521          1400 SG2745               2AZ
204823000204823               204823               170213PP     1400+00000+PP0000001753+0000001753+000000000+000000246+0000001990+0000000009+I20000000000+0000001990+Z
204823001204823362-003004     204823006003000294961HAIR CLIPS             0000001000+00001753+00000+0001T   00001753+0000001522          1400 SG2160               2AZ
204824000204824               204824               170213PP     1400+00000+PP0000006389+0000006389+000000000+000000897+0000007280+0000000006+I20000000000+0000007280+Z
204824001204824018-000127     204824006001023380289MUG OCC STRAIGHT LOVE  0000001000+00001578+00000+0001T   00001753+0006471645          1400 SG2515               2AZ
204824002204824018-000129     204824006001023403353MUG OCC. LOVE V-SHAPE  0000001000+00002630+00000+0001T   00002630+0000001645          1400 SG2515               2AZ
204824003204824903-000183     204824006003000451043SWT LB HEART LOLLY     0000001000+00000393+00000+0001T   00000393+0000001645          1400 SG2150               2AZ
204824004204824039-000114     204824006001023524058CANDLE T/LITE RED 3.5CM0000001000+00001753+00000+0001T   00001753+0000001645          1400 SG2510               2AZ
204824005204824112-116038     204824006009681820246TCS CARRIER BAG MIDI   0000001000+00000035+00000+0001T   00000035+0000001645          1400 SG2090               2AZ
204825000204825               204825               170213PP     1400+00000+PP0000001138+0000001138+000000000+000000160+0000001290+0000000008+I20000000000+0000001290+Z
204825001204825903-000155     204825006009803374435SWT LOLLY I LUV U HEART0000001000+00000525+00000+0001T   00000525+0000001646          1400 SG2150               2AZ
204825002204825304-001011     204825006001023806727FLWR ROSE RED W/BEAR   0000001000+00000613+00000+0001T   00000788+0006471646          1400 SG2510               2AZ
204826000204826               204826               170213PP     1400+00000+PP0000004293+0000004293+000000000+000000603+0000004896+0000000000+I40000004896+0000000000+Z
204826001204826018-005009     204826006001023725608MUG W/PLUSH-BEAR LOVE  0000001000+00003507+00000+0001T   00003507+0000001648          1400 SG2515               2AZ
204826002204826903-000183     204826006003000451043SWT LB HEART LOLLY     0000002000+00000393+00000+0001T   00000393+0000001648          1400 SG2150               2AZ
204827000204827               204827               170213PP     1400+00000+PP0000012234+0000012234+000000000+000001716+0000013950+0000000000+I40000013950+0000000000+Z
204827001204827079-009702-D   204827008427973059354PAPER SIRIO A2 RED COL 0000002000+00001051+00000+0001T   00001051+0000001650          1400 SG2130               2AZ
204827002204827079-013032-D   204827006003000389643RIBBONS                0000001000+00002630+00000+0001T   00002630+0000001650          1400 SG2130               2AZ
204827003204827566-000359     204827006003000582709STICKER BOOK LOVE SPARK0000001000+00002192+00000+0001T   00002192+0000001650          1400 SG2130               2AZ
204827004204827366-002195     204827006001023990549DRESS UP WINGS FEATHER 0000001000+00005262+00000+0001T   00005262+0000001650          1400 SG2131               2AZ
204827005204827112-116069     204827006009681820277TCS CARRIER BAG JUMBO  0000001000+00000048+00000+0001T   00000048+0000001650          1400 SG2090               2AZ
204828000204828               204828               170213PP     1400+00000+PP0000036313+0000036313+000000000+000005086+0000041399+0000000000+I40000041399+0000000000+Z
204828001204828112-116069     204828006009681820277TCS CARRIER BAG JUMBO  0000001000+00000048+00000+0001T   00000048+0000001653          1400 SG2090               2AZ
204828002204828024-000107     204828006001023422071MUFFIN-PAN 12-CUP      0000001000+00009648+00000+0001T   00009648+0000001653          1400 SG2300               2AZ
204828003204828024-000123     204828006001023902368N/STICK 6 L/PAN MINI   0000001000+00007016+00000+0001T   00008771+0008121653          1400 SG2300               2AZ
204828004204828039-082106     204828006001023847348C/VOTIVE 8PC VANILLA   0000001000+00005262+00000+0001T   00005262+0000001653          1400 SG2510               2AZ
204828005204828306-000020     204828006001023743145POCKET-TISSUES 10PCE   0000001000+00000306+00000+0001T   00000306+0000001653          1400 SG2200               2AZ
204828006204828103-000474     204828006003000630363BAMBOO FLOWER BASKET   0000001000+00005262+00000+0001T   00005262+0000001653          1400 SG2300               2AZ
204828007204828031-007010     204828006003000467945P/FRAME WDN CERTIFICATE0000001000+00008771+00000+0001T   00008771+0000001653          1400 SG2510               2AZ
204829000204829               204829               170213PP     1400+00000+PP0000002539+0000002539+000000000+000000357+0000002896+0000000000+I40000002896+0000000000+Z
204829001204829077-000010-C   204829006001023123879CREPE-PAPER RED        0000001000+00000788+00000+0001T   00000788+0000001654          1400 SG2112               2AZ
204829002204829077-000310     204829006001023608635GIFT-BAG 18X23CM GLOSS 0000001000+00001314+00000+0001T   00001314+0000001654          1400 SG2112               2AZ
204829003204829080-000133-A   204829006003000647019MINI VALENTINES CARD   0000001000+00000437+00000+0001T   00000437+0000001654          1400 SG2112               2AZ
204830000204830               204830               170213PP     1400+00000+PP0000006662+0000006662+000000000+000000934+0000007596+0000000000+I40000007596+0000000000+Z
204830001204830368-000040     204830006003000671786PLUSH ICONS 7.5cm      0000001000+00002630+00000+0001T   00002630+0000001656          1400 SG2745               2AZ
204830002204830077-000011-C   204830006001023808523TISSUE 10xSHTS RED     0000001000+00000876+00000+0001T   00000876+0000001656          1400 SG2112               2AZ
204830003204830565-000885     204830006003000122929NOVELTY PRICKLY BALL   0000001000+00001578+00000+0001T   00001578+0000001656          1400 SG2745               2AZ
204830004204830077-000303     204830006001023593757GIFT-BAG PAPER MED     0000001000+00001578+00000+0001T   00001578+0000001656          1400 SG2112               2AZ
204831000204831               204831               170213PP     1400+00000+PP0000007541+0000007541+000000000+000001056+0000008597+0000000000+I40000008597+0000000000+Z
204831001204831077-000303     204831006001023593757GIFT-BAG PAPER MED     0000001000+00001578+00000+0001T   00001578+0000001657          1400 SG2112               2AZ
204831002204831018-000127     204831006001023380289MUG OCC STRAIGHT LOVE  0000001000+00001578+00000+0001T   00001753+0006471657          1400 SG2515               2AZ
204831003204831368-000049     204831006003000536955PLUSH BEAR 15cm LOVE   0000001000+00004385+00000+0001T   00004385+0000001657          1400 SG2745               2AZ
204832000204832               204832               170213PP     1400+00000+PP0000006043+0000006043+000000000+000000850+0000006890+0000000003+I20000000000+0000006890+Z
204832001204832077-000304     204832006001023483232GIFT-BAG 25X32CM E/DAY 0000001000+00001490+00000+0001T   00001490+0000001711          1400 SG2112               2BZ
204832002204832080-000133-A   204832006003000647019MINI VALENTINES CARD   0000001000+00000437+00000+0001T   00000437+0000001711          1400 SG2112               2BZ
204832003204832903-000155     204832006009803374435SWT LOLLY I LUV U HEART0000001000+00000525+00000+0001T   00000525+0000001711          1400 SG2150               2BZ
204832004204832903-000119     204832006001704007337SWT COCONUT-WHEEL      0000001000+00000788+00000+0001T   00000788+0000001711          1400 SG2150               2BZ
204832005204832080-000133     204832006003000535613CARD&ENV MINI ASTD DSGN0000001000+00000437+00000+0001T   00000437+0000001711          1400 SG2112               2BZ
204832006204832031-000021     204832006003000112739PICTURE-FRAME SML ASSTD0000001000+00001753+00000+0001T   00001753+0000001711          1400 SG2510               2BZ
204832007204832077-000317     204832006001023609748GIFT-BAG 11X14CM E/D AN0000001000+00000613+00000+0001T   00000613+0000001711          1400 SG2112               2BZ
204833000204833               204833               170213PP     1400+00000+PP0000006312+0000006312+000000000+000000884+0000007196+0000000000+I40000007196+0000000000+Z
204833001204833077-000303     204833006001023593757GIFT-BAG PAPER MED     0000004000+00001578+00000+0001T   00001578+0000001713          1400 SG2112               2BZ
204834000204834               204834               170213PP     1400+00000+PP0000015961+0000015961+000000000+000002236+0000018190+0000000007+I20000000000+0000018190+Z
204834001204834080-000127     204834006003000424351VALENTINES DAY 36x24CM 0000001000+00002192+00000+0001T   00002192+0000001722          1400 SG2112               2BZ
204834002204834368-000113     204834006001023780874PLUSH BLINGED LOVE 30cm0000001000+00012279+00000+0001T   00012279+0000001722          1400 SG2745               2BZ
204834003204834077-000299     204834006003000395576G/BAG 32x25cm LRG LOVE 0000001000+00001490+00000+0001T   00001490+0000001722          1400 SG2112               2BZ
204835000204835               204835               170213PP     1400+00000+PP0000005120+0000005120+000000000+000000717+0000005830+0000000007+I20000000000+0000005830+Z
204835001204835018-000136     204835006001023659026MUG OCC LOVE W/PLUSH   0000001000+00003507+00000+0001T   00003507+0000001723          1400 SG2515               2BZ
204835002204835077-000303     204835006001023593757GIFT-BAG PAPER MED     0000001000+00001578+00000+0001T   00001578+0000001723          1400 SG2112               2BZ
204835003204835112-116038     204835006009681820246TCS CARRIER BAG MIDI   0000001000+00000035+00000+0001T   00000035+0000001723          1400 SG2090               2BZ
204836000204836               204836               170213PP     1400+00000+PP0000012834+0000012834+000000000+000001800+0000014634+0000000000+I40000014634+0000000000+Z
204836001204836079-000126     204836006003000661633ANIMAL PUZZLE PACK     0000001000+00001753+00000+0001T   00001753+0000001726          1400 SG2130               2BZ
204836002204836077-000010-C   204836006001023123879CREPE-PAPER RED        0000001000+00000788+00000+0001T   00000788+0000001726          1400 SG2112               2BZ
204836003204836903-000012     204836006002099007308SWT MALLOW S/BERRY     0000001000+00000437+00000+0001T   00000437+0000001726          1400 SG2150               2BZ
204836004204836368-000265     204836006001023750914PLUSH BEAR 23CM ASSTD C0000001000+00006139+00000+0001T   00006139+0000001726          1400 SG2745               2BZ
204836005204836566-000359     204836006003000582709STICKER BOOK LOVE SPARK0000001000+00002192+00000+0001T   00002192+0000001726          1400 SG2130               2BZ
204836006204836077-000299     204836006003000395576G/BAG 32x25cm LRG LOVE 0000001000+00001490+00000+0001T   00001490+0000001726          1400 SG2112               2BZ
204836007204836112-116038     204836006009681820246TCS CARRIER BAG MIDI   0000001000+00000035+00000+0001T   00000035+0000001726          1400 SG2090               2BZ
204837000204837               204837               170213PP     1400+00000+PP0000002630+0000002630+000000000+000000369+0000002990+0000000009+I20000000000+0000002990+Z
204837001204837077-000270     204837006003000395453GIFT-BAG PPR JMB 33X45 0000001000+00002630+00000+0001T   00002630+0000001726          1400 SG2112               2BZ
204838000204838               204838               170213PP     1400+00000+PP0000010348+0000010348+000000000+000001449+0000011797+0000000000+I40000011797+0000000000+Z
204838001204838077-000303     204838006001023593757GIFT-BAG PAPER MED     0000001000+00001578+00000+0001T   00001578+0000001733          1400 SG2112               2AZ
204838002204838018-030000     204838006003000421060MUG OCCASIONS LOVE 2PCE0000001000+00004385+00000+0001T   00004385+0000001733          1400 SG2515               2AZ
204838003204838368-000151     204838006003000166725PLUSH BEAR 14cm        0000001000+00004385+00000+0001T   00004385+0000001733          1400 SG2745               2AZ
204839000204839               204839               170213PP     1400+00000+PP0000005696+0000005696+000000000+000000799+0000006495+0000000000+I40000006495+0000000000+Z
204839001204839077-000310     204839006001023608635GIFT-BAG 18X23CM GLOSS 0000001000+00001314+00000+0001T   00001314+0000001735          1400 SG2112               2AZ
204839002204839903-000518     204839006001704012782SWT STRAWS S/BERRY 100g0000001000+00001227+00000+0001T   00001227+0000001735          1400 SG2150               2AZ
204839003204839206-000620     204839006003000631797BACK SCRATCHER EXTEND  0000001000+00002630+00000+0001T   00002630+0000001735          1400 SG2321               2AZ
204839004204839903-000155     204839006009803374435SWT LOLLY I LUV U HEART0000001000+00000525+00000+0001T   00000525+0000001735          1400 SG2150               2AZ
204840000204840               204840               170213PP     1400+00000+PP0000014906+0000014906+000000000+000002089+0000016990+0000000005+I20000000000+0000016990+Z
204840001204840080-000133-A   204840006003000647019MINI VALENTINES CARD   0000001000+00000437+00000+0001T   00000437+0000001736          1400 SG2112               2AZ
204840002204840077-000922     204840006003000413935G/WRAP 700mmx2m FLOWER 0000001000+00002192+00000+0001T   00002192+0000001736          1400 SG2112               2AZ
204840003204840304-001512     204840006003000036202FLOWER S/FLOWER 65CM   0000002000+00001753+00000+0001T   00001753+0000001736          1400 SG2510               2AZ
204840004204840028-000027     204840006003000275816C/BAG+POCKET 27x18x23cm0000001000+00008771+00000+0001T   00008771+0000001736          1400 SG2305               2AZ
204841000204841               204841               170213PP     1400+00000+PP0000002626+0000002626+000000000+000000368+0000002990+0000000004+I20000000000+0000002990+Z
204841001204841304-001011     204841006001023806727FLWR ROSE RED W/BEAR   0000002000+00000613+00000+0001T   00000788+0006471738          1400 SG2510               2AZ
204841002204841018-000177     204841006001023797513MUG MINI LOVE ASSTD    0000002000+00000700+00000+0001T   00000700+0000001738          1400 SG2515               2AZ
204842000204842               204842               170213PP     1400+00000+PP0000000035+0000000035+000000000+000000005+0000000040+0000000000+I20000000000+0000000040+Z
204842001204842112-116038     204842006009681820246TCS CARRIER BAG MIDI   0000001000+00000035+00000+0001T   00000035+0000001739          1400 SG2090               2AZ
204843000204843               204843               170213PP     1400+00000+PP0000005295+0000005295+000000000+000000742+0000006037+0000000000+I40000006037+0000000000+Z
204843001204843112-116038     204843006009681820246TCS CARRIER BAG MIDI   0000001000+00000035+00000+0001T   00000035+0000001742          1400 SG2090               2AZ
204843002204843018-000136     204843006001023659026MUG OCC LOVE W/PLUSH   0000001000+00003507+00000+0001T   00003507+0000001742          1400 SG2515               2AZ
204843003204843024-000214     204843006001023587855COOKIE-CUTTERS PL 6PC  0000001000+00001753+00000+0001T   00001753+0000001742          1400 SG2300               2AZ
204844000204844               204844               170213PP     1400+00000+PP0000052663+0000052663+000000000+000007374+0000060030+0000000007+I20000000000+0000060030+Z
204844001204844112-116069     204844006009681820277TCS CARRIER BAG JUMBO  0000001000+00000048+00000+0001T   00000048+0000001752          1400 SG2090               2AZ
204844002204844018-030000     204844006003000421060MUG OCCASIONS LOVE 2PCE0000004000+00004385+00000+0001T   00004385+0000001752          1400 SG2515               2AZ
204844003204844018-000136     204844006001023659026MUG OCC LOVE W/PLUSH   0000002000+00003507+00000+0001T   00003507+0000001752          1400 SG2515               2AZ
204844004204844018-000130     204844006001023867537MUG OCC LOVE MINI+HEART0000002000+00003507+00000+0001T   00003507+0000001752          1400 SG2515               2AZ
204844005204844368-000151     204844006003000166725PLUSH BEAR 14cm        0000002000+00004385+00000+0001T   00004385+0000001752          1400 SG2745               2AZ
204844006204844103-000460     204844006003000630240BAMBOO FLOWER BASKET   0000002000+00004385+00000+0001T   00004385+0000001752          1400 SG2300               2AZ
204844007204844103-000472     204844006003000631049FLOWER BASKET W/HANDLE 0000001000+00003507+00000+0001T   00003507+0000001752          1400 SG23002IC            2AZ
204845000204845               204845               170213PP     1400+00000+PP0000001578+0000001578+000000000+000000221+0000001790+0000000009+I20000000000+0000001790+Z
204845001204845018-000127     204845006001023380289MUG OCC STRAIGHT LOVE  0000001000+00001578+00000+0001T   00001753+0006471753          1400 SG2515               2AZ
204846000204846               204846               170213PP     1400+00000+PP0000014114+0000014114+000000000+000001978+0000016092+0000000000+I40000016092+0000000000+Z
204846001204846077-000303     204846006001023593757GIFT-BAG PAPER MED     0000001000+00001578+00000+0001T   00001578+0000001755          1400 SG2112               2AZ
204846002204846018-000170     204846006001023775528MUG OCC. LOVE 2PC MINI 0000001000+00002192+00000+0001T   00002192+0000001755          1400 SG2515               2AZ
204846003204846080-000133-A   204846006003000647019MINI VALENTINES CARD   0000001000+00000437+00000+0001T   00000437+0000001755          1400 SG2112               2AZ
204846004204846077-000303     204846006001023593757GIFT-BAG PAPER MED     0000001000+00001578+00000+0001T   00001578+0000001755          1400 SG2112               2AZ
204846005204846018-030000     204846006003000421060MUG OCCASIONS LOVE 2PCE0000001000+00004385+00000+0001T   00004385+0000001755          1400 SG2515               2AZ
204846006204846080-000133-A   204846006003000647019MINI VALENTINES CARD   0000001000+00000437+00000+0001T   00000437+0000001755          1400 SG2112               2AZ
204846007204846018-000130     204846006001023867537MUG OCC LOVE MINI+HEART0000001000+00003507+00000+0001T   00003507+0000001755          1400 SG2515               2AZ
204847000204847               204847               170213PP     1400+00000+PP0000001578+0000001578+000000000+000000221+0000001790+0000000009+I20000000000+0000001790+Z
204847001204847018-000127     204847006001023380289MUG OCC STRAIGHT LOVE  0000001000+00001578+00000+0001T   00001753+0006471757          1400 SG2515               2AZ
A17021300                                          17195280PPSLAVE 2                       SG22IC
B20481600                                          170213PP031-000924     14545224SLAVE 2     SG21IC0000002000+0000001000+0000000000000+
B20484400                                          170213PP103-000472     17501586SLAVE 2     SG22IC0000004000+0000002000+0000000000000+
B20484401                                          170213PP103-000472     17511031SLAVE 2     SG22IC0000002000+0000001000+0000000000000+
C20480800                                          170213PP018-000177     13410139SLAVE 2     SG22IC0000000000+0000000000+0010000001000+
C20480801                                          170213PP563-000318-L   13410979SLAVE 2     SG22IC0000000000+0000000000+0020000001000+
M17021391                              CASH        PPSLAVE 2                       Z-REPORT No.   165TOTAL (Sales - Refunds)           6385.51       CASH TO BE BANKED                 2892.50       DEBIT CARDS                          0.00       CREDIT CARDS                      3493.01       Z-READING                         6385.51       AIRTIME DEBIT CARD SALES             0.00       AIRTIME CARD SALES                   0.00       OVERS/UNDERS                         0.00       AIRTIME CASH SALES                   0.00       GIFT CARDS                           0.00       GIFT CARD CASH SALES                 0.00       T O T A L  CASH PAYOUTS              0.00                                                                                                                                                                                                                                                                                                                                                      Z
M17021392                              CASH        PPABSENT                                                                                                                                                                                          ANNUAL LEAVE                                                                                                                                                                                    DAY OFF                                                                                                                                                                                         COMMENTS                                                                                                                                                                                                                                                                                                                                                                                       Z
Y17021300                                          PP00000000585322+000074
ZPP17021320203 SLAVE 2      SALES DATA                     NEXT INVOICE NO.  204848 0165
X PP Slave 2 First invoice 204773 170213 Last invoice 204847 170213 Next invoice 204848 Total number of records 000000324 clbackup completed 20:20:53
