105445000105445               105445               170213R1     1400+00000+R10000001490+0000001490+000000000+000000209+0000001690+0000000009+I20000000000+0000001690+Z
105445001105445077-000304     105445006001023483232GIFT-BAG 25X32CM E/DAY 0000001000+00001490+00000+0001T   00001490+0000000925          1400 SY5112               1AZ
105446000105446               105446               170213R1     1400+00000+R10000001400+0000001400+000000000+000000196+0000001596+0000000000+I40000001596+0000000000+Z
105446001105446007-000537     105446000651728791017NOTE-PAD RND SMILE-FACE0000002000+00000700+00000+0001T   00000700+0000000945          1400 SY5130               1AZ
105447000105447               105447               170213R1     1400+00000+R10000003980+0000003980+000000000+000000558+0000004530+0000000008+I20000000000+0000004530+Z
105447001105447366-007600     105447006001023902184MASK THEATRICAL GLITTER0000001000+00001753+00000+0001T   00001753+0000001003          1400 SY5131               1AZ
105447002105447079-013102     105447006003000019601ART+CRAFT DIY PIPE-CLNR0000001000+00002192+00000+0001T   00002192+0000001003          1400 SY5130               1AZ
105447003105447112-116038     105447006009681820246TCS CARRIER BAG MIDI   0000001000+00000035+00000+0001T   00000035+0000001003          1400 SY5090               1AZ
105448000105448               105448               170213R1     1400+00000+R10000000525+0000000525+000000000+000000074+0000000590+0000000009+I20000000000+0000000590+Z
105448001105448903-000155     105448006009803374435SWT LOLLY I LUV U HEART0000001000+00000525+00000+0001T   00000525+0000001004          1400 SY5150               1AZ
105449000105449               105449               170213R1     1400+00000+R10000006345+0000006345+000000000+000000889+0000007230+0000000004+I20000000000+0000007230+Z
105449001105449112-116038     105449006009681820246TCS CARRIER BAG MIDI   0000001000+00000035+00000+0001T   00000035+0000001005          1400 SY5090               1AZ
105449002105449133-000010-A   105449006001023997647CLEANING CLOTH ROLL 30 0000001000+00003507+00000+0001T   00003507+0000001005          1400 SY5212               1AZ
105449003105449002-011120     105449006003000099559EGG CUP SILICONE KIDDIE0000001000+00000876+00000+0001T   00001314+0008121005          1400 SY5300               1AZ
105449004105449903-005002     105449006002580020021SWT MALLOW SNAKE 120g  0000001000+00001314+00000+0001T   00001314+0000001005          1400 SY5150               1AZ
105449005105449007-000555     105449006001023848239MEMO-PAD MINI LOVE     0000001000+00000613+00000+0001T   00000613+0000001005          1400 SY5130               1AZ
105450000105450               105450               170213R1     1400+00000+R10000000437+0000000437+000000000+000000062+0000000490+0000000009+I20000000000+0000000490+Z
105450001105450080-000133     105450006003000535613CARD&ENV MINI ASTD DSGN0000001000+00000437+00000+0001T   00000437+0000001006          1400 SY5112               1AZ
105451000105451               105451               170213R1     1400+00000+R10000000613+0000000613+000000000+000000086+0000000690+0000000009+I20000000000+0000000690+Z
105451001105451077-000321     105451006001023677501GIFT-BAG 11X14CM E/D FL0000001000+00000613+00000+0001T   00000613+0000001015          1400 SY5112               1AZ
105452000105452               105452               170213R1     1400+00000+R10000004469+0000004469+000000000+000000627+0000005096+0000000000+I40000005096+0000000000+Z
105452001105452903-000137     105452006002099004130SWEET GS JELLY BEAN 60G0000001000+00000788+00000+0001T   00000788+0000001022          1400 SY5150               1AZ
105452002105452903-000518     105452006001704012782SWT STRAWS S/BERRY 100g0000001000+00001227+00000+0001T   00001227+0000001022          1400 SY5150               1AZ
105452003105452903-000111     105452006001704006378SWT LIQUORICE-TWISTS   0000002000+00001227+00000+0001T   00001227+0000001022          1400 SY5150               1AZ
105453000105453               105453               170213R1     1400+00000+R10000007890+0000007890+000000000+000001107+0000008990+0000000007+I20000000000+0000008990+Z
105453001105453566-000367     105453006003000645558STICKER WINDOW DECOR   0000003000+00002630+00000+0001T   00002630+0000001023          1400 SY5130               1AZ
105454000105454               105454               170213R1     1400+00000+R10000007890+0000007890+000000000+000001107+0000008990+0000000007+I20000000000+0000008990+Z
105454001105454566-000367     105454006003000645558STICKER WINDOW DECOR   0000003000+00002630+00000+0001T   00002630+0000001031          1400 SY5130               1AZ
105455000105455               105455               170213R1     1400+00000+R10000005260+0000005260+000000000+000000738+0000005998+0000000000+I40000005998+0000000000+Z
105455001105455004-071192     105455006003000528813USB CABLE 1.0m         0000001000+00002630+00000+0001T   00002630+0000001035          1400 SY5310               1AZ
105455002105455106-001125     105455006003000666270WATER BOTTLE 600ml     0000001000+00002630+00000+0001T   00002630+0000001035          1400 SY5210               1AZ
105456000105456               105456               170213R1     1400+00000+R10000002630+0000002630+000000000+000000369+0000002990+0000000009+I20000000000+0000002990+Z
105456001105456463-000366     105456006001023789136SWIM W/NOODLE 150cm    0000001000+00002630+00000+0001T   00002630+0000001038          1400 SY5785               1AZ
105457000105457               105457               170213R1     1400+00000+R10000003331+0000003331+000000000+000000467+0000003790+0000000008+I20000000000+0000003790+Z
105457001105457079-000510     105457006001023509079CRAYONS WAX 12-COLOUR  0000001000+00002455+00000+0001T   00002455+0000001041          1400 SY5130               1AZ
105457002105457567-014132     105457006003000560028BOOK COLOURING 24 PAGE 0000001000+00000876+00000+0001T   00000876+0000001041          1400 SY5757               1AZ
105458000105458               105458               170213R1     1400+00000+R10000042783+0000042783+000000000+000006001+0000048784+0000000000+I40000048784+0000000000+Z
105458001105458112-116069     105458006009681820277TCS CARRIER BAG JUMBO  0000001000+00000048+00000+0001T   00000048+0000001055          1400 SY5090               1AZ
105458002105458077-000304     105458006001023483232GIFT-BAG 25X32CM E/DAY 0000001000+00001490+00000+0001T   00001490+0000001055          1400 SY5112               1AZ
105458003105458077-000381     105458006003000247707GIFT-BAG 25X32CM S/COL 0000001000+00001753+00000+0001T   00001753+0000001055          1400 SY5112               1AZ
105458004105458077-000301     105458008010410010188BAG LRG 25X32CM B/DAY  0000002000+00001753+00000+0001T   00001753+0000001055          1400 SY5112               1AZ
105458005105458077-000382     105458006003000247820GIFT-BAG MED 18X23CM   0000001000+00001753+00000+0001T   00001753+0000001055          1400 SY5112               1AZ
105458006105458077-000319     105458006001023609779GIFT-BAG 18X23CM BIRTHD0000001000+00001227+00000+0001T   00001227+0000001055          1400 SY5112               1AZ
105458007105458077-000322     105458006001023677532GIFT-BAG 18X23CM E/D FL0000001000+00001227+00000+0001T   00001227+0000001055          1400 SY5112               1AZ
105458008105458077-000301     105458008010410010188BAG LRG 25X32CM B/DAY  0000001000+00001753+00000+0001T   00001753+0000001055          1400 SY5112               1AZ
105458009105458077-000323     105458006001023677563G/BAG 25X32CM E/DAY FLO0000001000+00001578+00000+0001T   00001578+0000001055          1400 SY5112               1AZ
105458010105458077-000304     105458006001023483232GIFT-BAG 25X32CM E/DAY 0000001000+00001490+00000+0001T   00001490+0000001055          1400 SY5112               1AZ
105458011105458077-000399     105458006003000139514GIFT BAG 18X23CM E/DAY 0000001000+00001490+00000+0001T   00001490+0000001055          1400 SY5112               1AZ
105458012105458077-000005-B   105458006003000326617PAPER TISSUE PATTERN   0000001000+00002630+00000+0001T   00002630+0000001055          1400 SY5112               1AZ
105458013105458077-000011-D   105458006001023808554TISSUE-WRAP WHITE 10PCE0000001000+00000876+00000+0001T   00000876+0000001055          1400 SY5112               1AZ
105458014105458077-000011-L   105458006001023808585P/TISSUE BRIGHT 10SHEET0000002000+00000876+00000+0001T   00000876+0000001055          1400 SY5112               1AZ
105458015105458112-116069     105458006009681820277TCS CARRIER BAG JUMBO  0000001000+00000048+00000+0001T   00000048+0000001055          1400 SY5090               1AZ
105458016105458903-000090     105458006009826020821SWT GS CHOCO COINS 60g 0000001000+00002104+00000+0001T   00002104+0000001055          1400 SY5150               1AZ
105458017105458903-000123     105458006925925909280SWEET GS MINI MALLOWS  0000002000+00000876+00000+0001T   00000876+0000001055          1400 SY5150               1AZ
105458018105458903-000220     105458006001704007368SWT JELLY BEANS 60G    0000002000+00000876+00000+0001T   00000876+0000001055          1400 SY5150               1AZ
105458019105458903-000216     105458006925925900966SWT MALLOW TWIST ERKO  0000002000+00000262+00000+0001T   00000262+0000001055          1400 SY5150               1AZ
105458020105458903-000211     105458006002099001238SWT GS MALLOW ICE CREAM0000002000+00001753+00000+0001T   00001753+0000001055          1400 SY5150               1AZ
105458021105458018-019000     105458006003000557288MUG OCC. LOVE JUMBO    0000002000+00005262+00000+0001T   00005262+0000001055          1400 SY5515               1AZ
105459000105459               105459               170213R1     1400+00000+R10000006258+0000006258+000000000+000000878+0000007136+0000000000+I10000004936+0000002200+Z
105459001105459079-006495     105459006003000159987GLITTER SHAKERS 6PK    0000001000+00002630+00000+0001T   00002630+0000001100          1400 SY5130               1AZ
105459002105459077-000245     105459006001023759214GIFT-RIBBON METALLICx2 0000001000+00001227+00000+0001T   00001227+0000001100          1400 SY5112               1AZ
105459003105459006-000805     105459000013994092418STREAMERS 10-ROLLS     0000001000+00001490+00000+0001T   00001490+0000001100          1400 SY5131               1AZ
105459004105459112-116038     105459006009681820246TCS CARRIER BAG MIDI   0000001000+00000035+00000+0001T   00000035+0000001100          1400 SY5090               1AZ
105459005105459033-005930     105459006001023678423PINS STRAIGHT 20g  CARD0000001000+00000876+00000+0001T   00000876+0000001100          1400 SY5200               1AZ
105460000105460               105460               170213R1     1400+00000+R10000001753+0000001753+000000000+000000246+0000001990+0000000009+I20000000000+0000001990+Z
105460001105460040-000922     105460006001023587817CANDLE-HOLDER GLS 18cm 0000001000+00001753+00000+0001T   00001753+0000001133          1400 SY5510               1AZ
105461000105461               105461               170213R1     1400+00000+R10000001402+0000001402+000000000+000000197+0000001590+0000000009+I20000000000+0000001590+Z
105461001105461304-001204     105461006001023737984FLOWER OCC. TEDDY/ROSES0000001000+00001402+00000+0001T   00001490+0006471134          1400 SY5510               1AZ
105462000105462               105462               170213R1     1400+00000+R10000001753+0000001753+000000000+000000246+0000001990+0000000009+I20000000000+0000001990+Z
105462001105462071-003011     105462006001023762825PEN STICKBALL X10 ASSTD0000001000+00001753+00000+0001T   00001753+0000001139          1400 SY5130               1AZ
105463000105463               105463               170213R1     1400+00000+R10000008098+0000008098+000000000+000001136+0000009230+0000000004+I20000000000+0000009230+Z
105463001105463903-000610     105463006003000610518SWEET JUMBO BUBBLE GUM 0000001000+00001753+00000+0001T   00001753+0000001142          1400 SY5150               1AZ
105463002105463903-000844     105463005010478432567SWT CANDY DL LUV HEARTS0000001000+00001314+00000+0001T   00001314+0000001142          1400 SY5150               1AZ
105463003105463564-000036     105463006001023708694BUBBLE W/PUZZLE        0000001000+00001490+00000+0001T   00001490+0000001142          1400 SY5131               1AZ
105463004105463362-000299     105463006003000654758HAIR CLIPS METAL WORDS 0000001000+00001753+00000+0001T   00001753+0000001142          1400 SY5160               1AZ
105463005105463903-000619     105463006003000672455SWT LOLLY STR/BRRY 140G0000001000+00001753+00000+0001T   00001753+0000001142          1400 SY5150               1AZ
105463006105463112-116038     105463006009681820246TCS CARRIER BAG MIDI   0000001000+00000035+00000+0001T   00000035+0000001142          1400 SY5090               1AZ
105464000105464               105464               170213R1     1400+00000+R10000006136+0000006136+000000000+000000861+0000006990+0000000007+I20000000000+0000006990+Z
105464001105464564-000025     105464006003000617104BUBBLE NOVELTY         0000002000+00001753+00000+0001T   00001753+0000001143          1400 SY5131               1AZ
105464002105464565-000014     105464006003000671915NOVELTY AIR BALLOON    0000001000+00002630+00000+0001T   00002630+0000001143          1400 SY5745               1AZ
105465000105465               105465               170213R1     1400+00000+R10000003069+0000003069+000000000+000000430+0000003490+0000000009+I20000000000+0000003490+Z
105465001105465084-009417     105465006001023783493SCISSORS 21+14cm 2PCE  0000001000+00003069+00000+0001T   00003069+0000001151          1400 SY5200               1AZ
105466000105466               105466               170213R1     1400+00000+R10000003542+0000003542+000000000+000000496+0000004030+0000000008+I20000000000+0000004030+Z
105466001105466031-005853     105466006003000442416P/FRAME WDN TWIN HEARTS0000001000+00003507+00000+0001T   00003507+0000001156          1400 SY5510               1AZ
105466002105466112-116038     105466006009681820246TCS CARRIER BAG MIDI   0000001000+00000035+00000+0001T   00000035+0000001156          1400 SY5090               1AZ
105467000105467               105467               170213R1     1400+00000+R10000022534+0000022534+000000000+000003159+0000025690+0000000003+I20000000000+0000025690+Z
105467001105467463-000366     105467006001023789136SWIM W/NOODLE 150cm    0000004000+00002630+00000+0001T   00002630+0000001219          1400 SY5785               1AZ
105467002105467494-059252     105467000078257592524TIRE-TUBE 91cm GIANT   0000001000+00005262+00000+0001T   00005262+0000001219          1400 SY5787               1AZ
105467003105467493-059010     105467000078257590100BEACH-BALL COLOR-PANELS0000001000+00001490+00000+0001T   00001490+0000001219          1400 SY5787               1AZ
105467004105467494-059252     105467000078257592524TIRE-TUBE 91cm GIANT   0000001000+00005262+00000+0001T   00005262+0000001219          1400 SY5787               1AZ
105468000105468               105468               170213R1     1400+00000+R10000007012+0000007012+000000000+000000984+0000007990+0000000006+I20000000000+0000007990+Z
105468001105468903-000610     105468006003000610518SWEET JUMBO BUBBLE GUM 0000004000+00001753+00000+0001T   00001753+0000001230          1400 SY5150               1AZ
105469000105469               105469               170213R1     1400+00000+R10000008769+0000008769+000000000+000001229+0000009990+0000000008+I20000000000+0000009990+Z
105469001105469496-057104     105469000078257571048INTEX POOL BABY RAINBOW0000001000+00007016+00000+0001T   00007016+0000001232          1400 SY5787               1AZ
105469002105469466-000103     105469006001023642134BALL 20cm ASSTD        0000001000+00001753+00000+0001T   00001753+0000001232          1400 SY5785               1AZ
105470000105470               105470               170213R1     1400+00000+R10000001314+0000001314+000000000+000000184+0000001490+0000000008+I20000000000+0000001490+Z
105470001105470078-009100     105470006008741002349ALL-CLEAR GLUE 25ml CRD0000001000+00001314+00000+0001T   00001314+0000001235          1400 SY5810               1AZ
105471000105471               105471               170213R1     1400+00000+R10000006139+0000006139+000000000+000000860+0000006990+0000000009+I20000000000+0000006990+Z
105471001105471368-000175     105471006003000270316PLUSH BEAR 4 ASSTD 18CM0000001000+00006139+00000+0001T   00006139+0000001240          1400 SY5745               1AZ
105472000105472               105472               170213R1     1400+00000+R10000002717+0000002717+000000000+000000381+0000003090+0000000008+I20000000000+0000003090+Z
105472001105472077-000348     105472006001023483287GIFT-BOWS 4,5cm 8PCE   0000001000+00001578+00000+0001T   00001578+0000001249          1400 SY5112               1AZ
105472002105472903-000710     105472006002099007056SWT REFRESHERS MINT    0000001000+00001139+00000+0001T   00001139+0000001249          1400 SY5150               1AZ
105473000105473               105473               170213R1     1400+00000+R10000001139+0000001139+000000000+000000160+0000001290+0000000009+I20000000000+0000001290+Z
105473001105473046-000014     105473006001023725387BATTERIES SIZE:AAA 4PCE0000001000+00001139+00000+0001T   00001139+0000001255          1400 SY5312               1AZ
105474000105474               105474               170213R1     1400+00000+R10000002366+0000002366+000000000+000000332+0000002690+0000000008+I20000000000+0000002690+Z
105474001105474903-000517     105474006001704012768SWT STRAWS FIZZY CHERRY0000001000+00001227+00000+0001T   00001227+0000001302          1400 SY5150               1AZ
105474002105474903-000087     105474006001704000161SWT SPECKLED-EGGS 50G  0000001000+00001139+00000+0001T   00001139+0000001302          1400 SY5150               1AZ
105475000105475               105475               170213R1     1400+00000+R10000001753+0000001753+000000000+000000246+0000001990+0000000009+I20000000000+0000001990+Z
105475001105475491-059640     105475000078257596409INTEX:ARMBAND 3-6YRS   0000001000+00001753+00000+0001T   00001753+0000001304          1400 SY5787               1AZ
105476000105476               105476               170213R1     1400+00000+R10000001752+0000001752+000000000+000000246+0000001990+0000000008+I20000000000+0000001990+Z
105476001105476071-005213     105476006001023690371CELLOTAPE 12mmx33m     0000002000+00000876+00000+0001T   00000876+0000001306          1400 SY5130               1AZ
105477000105477               105477               170213R1     1400+00000+R10000052620+0000052620+000000000+000007368+0000059988+0000000000+I40000059988+0000000000+Z
105477001105477105-008005     105477006002580009484STORAGE CONTAINER 7.5L 0000012000+00004385+00000+0001T   00004385+0000001331          1400 SY5210               1AZ
105478000105478               105478               170213R1     1400+00000+R10000001753+0000001753+000000000+000000246+0000001990+0000000009+I20000000000+0000001990+Z
105478001105478006-000800     105478006001023902801HAT CABARET 14x18cm    0000001000+00001753+00000+0001T   00001753+0000001343          1400 SY5131               1AZ
105479000105479               105479               170213R1     1400+00000+R10000021975+0000021975+000000000+000003077+0000025052+0000000000+I40000025052+0000000000+Z
105479001105479030-004090     105479006003000674503P/WALL MDF 30X40CM     0000001000+00008771+00000+0001T   00008771+0000001353          1400 SY5505               1AZ
105479002105479030-005020     105479006003000456116PLAQUE WDN SIGN ASSORT 0000001000+00008771+00000+0001T   00008771+0000001353          1400 SY5505               1AZ
105479003105479089-000017     105479006003000331147KEYCHAIN MOM POLY BOX  0000001000+00004385+00000+0001T   00004385+0000001353          1400 SY5205               1AZ
105479004105479112-116069     105479006009681820277TCS CARRIER BAG JUMBO  0000001000+00000048+00000+0001T   00000048+0000001353          1400 SY5090               1AZ
105480000105480               105480               170213R1     1400+00000+R10000004420+0000004420+000000000+000000619+0000005039+0000000000+I40000005039+0000000000+Z
105480001105480368-000049     105480006003000536955PLUSH BEAR 15cm LOVE   0000001000+00004385+00000+0001T   00004385+0000001404          1400 SY5745               1AZ
105480002105480112-116038     105480006009681820246TCS CARRIER BAG MIDI   0000001000+00000035+00000+0001T   00000035+0000001404          1400 SY5090               1AZ
105481000105481               105481               170213R1     1400+00000+R10000005262+0000005262+000000000+000000737+0000005999+0000000000+I40000005999+0000000000+Z
105481001105481024-000019     105481006001023822277HILLHOUSE ICING-SET    0000001000+00005262+00000+0001T   00005262+0000001410          1400 SY5300               1AZ
105482000105482               105482               170213R1     1400+00000+R10000004733+0000004733+000000000+000000663+0000005390+0000000006+I20000000000+0000005390+Z
105482001105482304-001011     105482006001023806727FLWR ROSE RED W/BEAR   0000002000+00000613+00000+0001T   00000788+0006471411          1400 SY5510               1AZ
105482002105482018-005009     105482006001023725608MUG W/PLUSH-BEAR LOVE  0000001000+00003507+00000+0001T   00003507+0000001411          1400 SY5515               1AZ
105483000105483               105483               170213R1     1400+00000+R10000021972+0000021972+000000000+000003078+0000025050+0000000000+I40000025050+0000000000+Z
105483001105483112-116069     105483006009681820277TCS CARRIER BAG JUMBO  0000001000+00000048+00000+0001T   00000048+0000001413          1400 SY5090               1AZ
105483002105483077-000456     105483006003000285549G/BAG METALLIC JMB EMB 0000001000+00002630+00000+0001T   00002630+0000001413          1400 SY5112               1AZ
105483003105483301-085008     105483006003000673933ORN OCC.LOVE TINSEL HRT0000001000+00003069+00000+0001T   00003069+0000001413          1400 SY5505               1AZ
105483004105483030-004015     105483006003000467624PLAQUE WDN SIGN 30X20CM0000001000+00009648+00000+0001T   00009648+0000001413          1400 SY5505               1AZ
105483005105483080-000127     105483006003000424351VALENTINES DAY 36x24CM 0000001000+00002192+00000+0001T   00002192+0000001413          1400 SY5112               1AZ
105483006105483018-030000     105483006003000421060MUG OCCASIONS LOVE 2PCE0000001000+00004385+00000+0001T   00004385+0000001413          1400 SY5515               1AZ
105484000105484               105484               170213R1     1400+00000+R10000012279+0000012279+000000000+000001720+0000013999+0000000000+I40000013999+0000000000+Z
105484001105484368-000111     105484006001023780812PLUSH BEAR/DOG 29CM    0000001000+00012279+00000+0001T   00012279+0000001415          1400 SY5745               1AZ
105485000105485               105485               170213R1     1400+00000+R10000031175+0000031175+000000000+000004370+0000035545+0000000000+I40000035545+0000000000+Z
105485001105485112-116069     105485006009681820277TCS CARRIER BAG JUMBO  0000001000+00000048+00000+0001T   00000048+0000001425          1400 SY5090               1AZ
105485002105485048-071504     105485006003000225057TOUCH-LIGHT BAR TYPE   0000001000+00004385+00000+0001T   00004385+0000001425          1400 SY5305               1AZ
105485003105485206-000150     105485006003000628667SLICER CUCUMBER        0000001000+00002192+00000+0001T   00002192+0000001425          1400 SY5321               1AZ
105485004105485072-000600     105485006003000148431PET DOG HARNESS NYLON  0000001000+00005262+00000+0001T   00005262+0000001425          1400 SY5870               1AZ
105485005105485146-000434     105485006003000304875SPRAY TWIST-NOZZLE GUN 0000001000+00005262+00000+0001T   00005262+0000001425          1400 SY5820               1AZ
105485006105485077-000005-B   105485006003000326617PAPER TISSUE PATTERN   0000001000+00002630+00000+0001T   00002630+0000001425          1400 SY5112               1AZ
105485007105485006-000111     105485006003000519385BALLOONS LARGE 12PCE   0000001000+00002630+00000+0001T   00002630+0000001425          1400 SY5131               1AZ
105485008105485306-000024-A   105485006003000577309COTTON-WOOL-PADS 80PC  0000001000+00001753+00000+0001T   00001753+0000001425          1400 SY5200               1AZ
105485009105485565-000014     105485006003000671915NOVELTY AIR BALLOON    0000001000+00002630+00000+0001T   00002630+0000001425          1400 SY5745               1AZ
105485010105485565-000893     105485006003000643516NOVELTY FLASHING BALL  0000001000+00002630+00000+0001T   00002630+0000001425          1400 SY5745               1AZ
105485011105485006-000124     105485006003000625888BALLOONS 10PC MIX COL  0000001000+00001753+00000+0001T   00001753+0000001425          1400 SY5131               1AZ
105486000105486               105486               170213R1     1400+00000+R10000001139+0000001139+000000000+000000160+0000001290+0000000009+I20000000000+0000001290+Z
105486001105486903-000710     105486006002099007056SWT REFRESHERS MINT    0000001000+00001139+00000+0001T   00001139+0000001425          1400 SY5150               1AZ
105487000105487               105487               170213R1     1400+00000+R10000002630+0000002630+000000000+000000369+0000002990+0000000009+I20000000000+0000002990+Z
105487001105487362-019285     105487006001023869456HAIR BAND SET ASS. CARD0000001000+00002630+00000+0001T   00002630+0000001426          1400 SY5160               1AZ
105488000105488               105488               170213R1     1400+00000+R10000002000+0000002000+000000000+000000285+0000002280+0000000005+I20000000000+0000002280+Z
105488001105488903-000183     105488006003000451043SWT LB HEART LOLLY     0000005000+00000393+00000+0001T   00000393+0000001430          1400 SY5150               1AZ
105488002105488112-116038     105488006009681820246TCS CARRIER BAG MIDI   0000001000+00000035+00000+0001T   00000035+0000001430          1400 SY5090               1AZ
105489000105489               105489               170213R1     1400+00000+R10000003506+0000003506+000000000+000000492+0000003998+0000000000+I40000003998+0000000000+Z
105489001105489080-000122     105489006003000237678CARD & ENVLPE -GET WELL0000002000+00001753+00000+0001T   00001753+0000001453          1400 SY5112               1AZ
105489002105489080-000133     105489006003000535613CARD&ENV MINI ASTD DSGN0000001000-00000437+00000+0001T   00000437+0000001453          1400 SY51122IC            1 Z
105489003105489080-000133     105489006003000535613CARD&ENV MINI ASTD DSGN0000001000+00000437+00000+0001T   00000437+0000001453          1400 SY51122IC            1AZ
105490000105490               105490               170213R1     1400+00000+R10000002192+0000002192+000000000+000000307+0000002499+0000000000+I40000002499+0000000000+Z
105490001105490077-000471     105490006003000330096G-BAG DESGN MED 18X23CM0000001000-00001753+00000+0001T   00001753+0000001507          1400 SY51122IC            1 Z
105490002105490077-000471     105490006003000330096G-BAG DESGN MED 18X23CM0000001000+00001753+00000+0001T   00001753+0000001507          1400 SY51122IC            1AZ
105490003105490566-000359     105490006003000582709STICKER BOOK LOVE SPARK0000001000+00002192+00000+0001T   00002192+0000001507          1400 SY5130               1AZ
105491000105491               105491               170213R1     1400+00000+R10000001578+0000001578+000000000+000000221+0000001790+0000000009+I20000000000+0000001790+Z
105491001105491077-000315     105491006003000181186GIFT-BAG 20x28cm MATT  0000001000+00001578+00000+0001T   00001578+0000001516          1400 SY5112               1AZ
105492000105492               105492               170213R1     1400+00000+R10000000437+0000000437+000000000+000000062+0000000490+0000000009+I20000000000+0000000490+Z
105492001105492080-000133     105492006003000535613CARD&ENV MINI ASTD DSGN0000001000+00000437+00000+0001T   00000437+0000001516          1400 SY5112               1AZ
105493000105493               105493               170213R1     1400+00000+R10000005260+0000005260+000000000+000000738+0000005990+0000000008+I20000000000+0000005990+Z
105493001105493077-000316-A   105493006003000681457GIFT-BAG METALLIC PPR  0000001000+00002630+00000+0001T   00002630+0000001517          1400 SY5112               1AZ
105493002105493077-000456     105493006003000285549G/BAG METALLIC JMB EMB 0000001000+00002630+00000+0001T   00002630+0000001517          1400 SY5112               1AZ
105494000105494               105494               170213R1     1400+00000+R10000011310+0000011310+000000000+000001585+0000012895+0000000000+I40000012895+0000000000+Z
105494001105494007-000555     105494006001023848239MEMO-PAD MINI LOVE     0000002000+00000613+00000+0001T   00000613+0000001519          1400 SY5130               1AZ
105494002105494566-000359     105494006003000582709STICKER BOOK LOVE SPARK0000001000+00002192+00000+0001T   00002192+0000001519          1400 SY5130               1AZ
105494003105494368-000175     105494006003000270316PLUSH BEAR 4 ASSTD 18CM0000001000+00006139+00000+0001T   00006139+0000001519          1400 SY5745               1AZ
105494004105494077-000382     105494006003000247820GIFT-BAG MED 18X23CM   0000001000+00001753+00000+0001T   00001753+0000001519          1400 SY5112               1AZ
105495000105495               105495               170213R1     1400+00000+R10000008363+0000008363+000000000+000001173+0000009530+0000000006+I20000000000+0000009530+Z
105495001105495019-071599     105495006001023693242PEBBLES GLS 250g BLACK 0000001000+00001753+00000+0001T   00001753+0000001523          1400 SY5510               1AZ
105495002105495019-071595     105495006001023756428PEBBLES 250g SKY-BLUE  0000001000+00001753+00000+0001T   00001753+0000001523          1400 SY5510               1AZ
105495003105495019-071594     105495006003000505579PEBBLES GLS 250g RED   0000001000+00002630+00000+0001T   00002630+0000001523          1400 SY5510               1AZ
105495004105495019-071597     105495006008766071597PEBBLES 250g CLEAR  BAG0000001000+00002192+00000+0001T   00002192+0000001523          1400 SY5510               1AZ
105495005105495112-116038     105495006009681820246TCS CARRIER BAG MIDI   0000001000+00000035+00000+0001T   00000035+0000001523          1400 SY5090               1AZ
105496000105496               105496               170213R1     1400+00000+R10000004385+0000004385+000000000+000000614+0000004990+0000000009+I20000000000+0000004990+Z
105496001105496368-000111     105496006001023780812PLUSH BEAR/DOG 29CM    0000001000-00012279+00000+0001T   00012279+0000001527          1400 SY57452IC            1 Z
105496002105496368-000111     105496006001023780812PLUSH BEAR/DOG 29CM    0000001000+00012279+00000+0001T   00012279+0000001527          1400 SY57452IC            1AZ
105496003105496368-000001     105496006003000097982Plush Bear 25cm        0000001000+00004385+00000+0001T   00004385+0000001527          1400 SY5745               1AZ
105497000105497               105497               170213R1     1400+00000+R10000007454+0000007454+000000000+000001044+0000008490+0000000008+I20000000000+0000008490+Z
105497001105497027-009027     105497006003000235803BROOM FLAT 1.2m HANDLE 0000001000+00004385+00000+0001T   00004385+0000001539          1400 SY5212               1AZ
105497002105497365-003056     105497006009635021453KIDDIES WOODEN BROOM   0000001000+00003069+00000+0001T   00003069+0000001539          1400 SY5725               1AZ
105498000105498               105498               170213R1     1400+00000+R10000011272+0000011272+000000000+000001579+0000012850+0000000001+I20000000000+0000012850+Z
105498001105498018-005009     105498006001023725608MUG W/PLUSH-BEAR LOVE  0000001000+00003507+00000+0001T   00003507+0000001540          1400 SY5515               1AZ
105498002105498368-000175     105498006003000270316PLUSH BEAR 4 ASSTD 18CM0000001000+00006139+00000+0001T   00006139+0000001540          1400 SY5745               1AZ
105498003105498077-000315     105498006003000181186GIFT-BAG 20x28cm MATT  0000001000+00001578+00000+0001T   00001578+0000001540          1400 SY5112               1AZ
105498004105498112-116069     105498006009681820277TCS CARRIER BAG JUMBO  0000001000+00000048+00000+0001T   00000048+0000001540          1400 SY5090               1AZ
105499000105499               105499               170213R1     1400+00000+R10000003329+0000003329+000000000+000000467+0000003796+0000000000+I40000003796+0000000000+Z
105499001105499903-000710     105499006002099007056SWT REFRESHERS MINT    0000001000+00001139+00000+0001T   00001139+0000001541          1400 SY5150               1AZ
105499002105499903-000123     105499006925925909280SWEET GS MINI MALLOWS  0000001000+00000876+00000+0001T   00000876+0000001541          1400 SY5150               1AZ
105499003105499903-004950     105499006002580020304SWT APRICOT SURPRISE   0000001000+00001314+00000+0001T   00001314+0000001541          1400 SY5150               1AZ
105500000105500               105500               170213R1     1400+00000+R10000007674+0000007674+000000000+000001076+0000008750+0000000000+I40000008750+0000000000+Z
105500001105500112-116069     105500006009681820277TCS CARRIER BAG JUMBO  0000001000+00000048+00000+0001T   00000048+0000001543          1400 SY5090               1AZ
105500002105500018-005009     105500006001023725608MUG W/PLUSH-BEAR LOVE  0000001000+00003507+00000+0001T   00003507+0000001543          1400 SY5515               1AZ
105500003105500903-000087     105500006001704000161SWT SPECKLED-EGGS 50G  0000001000+00001139+00000+0001T   00001139+0000001543          1400 SY5150               1AZ
105500004105500077-000315     105500006003000181186GIFT-BAG 20x28cm MATT  0000001000+00001578+00000+0001T   00001578+0000001543          1400 SY5112               1AZ
105500005105500304-001204     105500006001023737984FLOWER OCC. TEDDY/ROSES0000001000+00001402+00000+0001T   00001490+0006471543          1400 SY5510               1AZ
105501000105501               105501               170213R1     1400+00000+R10000008064+0000008064+000000000+000001130+0000009190+0000000004+I20000000000+0000009190+Z
105501001105501077-000381     105501006003000247707GIFT-BAG 25X32CM S/COL 0000001000+00001753+00000+0001T   00001753+0000001546          1400 SY5112               1AZ
105501002105501368-000001     105501006003000097982Plush Bear 25cm        0000001000+00004385+00000+0001T   00004385+0000001546          1400 SY5745               1AZ
105501003105501566-002000     105501000721129013206STICKERS CRYSTAL ASSTD 0000001000+00000700+00000+0001T   00000700+0000001546          1400 SY5130               1AZ
105501004105501304-001011     105501006001023806727FLWR ROSE RED W/BEAR   0000002000+00000613+00000+0001T   00000788+0006471546          1400 SY5510               1AZ
105502000105502               105502               170213R1     1400+00000+R10000001578+0000001578+000000000+000000221+0000001790+0000000009+I20000000000+0000001790+Z
105502001105502077-000315     105502006003000181186GIFT-BAG 20x28cm MATT  0000001000+00001578+00000+0001T   00001578+0000001553          1400 SY5112               1AZ
105503000105503               105503               170213R1     1400+00000+R10000040265+0000040265+000000000+000005649+0000045910+0000000004+I20000000000+0000045910+Z
105503001105503112-116069     105503006009681820277TCS CARRIER BAG JUMBO  0000001000+00000048+00000+0001T   00000048+0000001616          1400 SY5090               1AZ
105503002105503903-000151     105503006009803374411SWT SML RND R/BOW LOLLY0000018000+00000525+00000+0001T   00000525+0000001616          1400 SY5150               1AZ
105503003105503018-000127     105503006001023380289MUG OCC STRAIGHT LOVE  0000002000+00001578+00000+0001T   00001753+0006471616          1400 SY5515               1AZ
105503004105503018-000136     105503006001023659026MUG OCC LOVE W/PLUSH   0000001000+00003507+00000+0001T   00003507+0000001616          1400 SY5515               1AZ
105503005105503566-000359     105503006003000582709STICKER BOOK LOVE SPARK0000001000+00002192+00000+0001T   00002192+0000001616          1400 SY5130               1AZ
105503006105503018-005009     105503006001023725608MUG W/PLUSH-BEAR LOVE  0000002000+00003507+00000+0001T   00003507+0000001616          1400 SY5515               1AZ
105503007105503030-000030-A   105503006003000249305PLAQUE GLASS LOVE      0000001000+00003069+00000+0001T   00003069+0000001616          1400 SY5505               1AZ
105503008105503080-000124     105503006003000297733CARD & ENV VALENTINES  0000004000+00001578+00000+0001T   00001578+0000001616          1400 SY5112               1AZ
105503009105503304-001011     105503006001023806727FLWR ROSE RED W/BEAR   0000009000+00000613+00000+0001T   00000788+0006471616          1400 SY5510               1AZ
105504000105504               105504               170213R1     1400+00000+R10000001490+0000001490+000000000+000000209+0000001690+0000000009+I20000000000+0000001690+Z
105504001105504046-000010     105504004897006172987BATTERIES AAA ALKLN 2PC0000001000+00001490+00000+0001T   00001490+0000001624          1400 SY5312               1AZ
105505000105505               105505               170213R1     1400+00000+R10000003507+0000003507+000000000+000000491+0000003990+0000000008+I20000000000+0000003990+Z
105505001105505018-005009     105505006001023725608MUG W/PLUSH-BEAR LOVE  0000001000+00003507+00000+0001T   00003507+0000001625          1400 SY5515               1AZ
105506000105506               105506               170213R1     1400+00000+R10000004383+0000004383+000000000+000000615+0000004990+0000000008+I20000000000+0000004990+Z
105506001105506077-000011-X   105506006001023809827TISSUE-WRAP SILVER 10PC0000001000+00001753+00000+0001T   00001753+0000001625          1400 SY5112               1AZ
105506002105506077-000512     105506006003000590223GIFT-BAG DESIGNER LRG  0000001000+00002630+00000+0001T   00002630+0000001625          1400 SY5112               1AZ
105507000105507               105507               170213R1     1400+00000+R10000005393+0000005393+000000000+000000757+0000006150+0000000000+I20000000000+0000006150+Z
105507001105507366-002695     105507006003000222766DRESS UP HAT ROUND GLIT0000001000+00002192+00000+0001T   00002192+0000001627          1400 SY5131               1AZ
105507002105507304-001011     105507006001023806727FLWR ROSE RED W/BEAR   0000002000+00000613+00000+0001T   00000788+0006471627          1400 SY5510               1AZ
105507003105507903-002851     105507000000087108538MENTOS ROLL STRAWBERRY 0000001000+00001051+00000+0001T   00001051+0000001627          1400 SY5150               1AZ
105507004105507566-000200     105507006003000384174STICKER PUFFY NEON     0000001000+00000876+00000+0001T   00000876+0000001627          1400 SY5130               1AZ
105507005105507112-116069     105507006009681820277TCS CARRIER BAG JUMBO  0000001000+00000048+00000+0001T   00000048+0000001627          1400 SY5090               1AZ
105508000105508               105508               170213R1     1400+00000+R10000000613+0000000613+000000000+000000086+0000000690+0000000009+I20000000000+0000000690+Z
105508001105508077-000311     105508006001023608666GIFT-BAG 11X14CM GLOSS 0000001000+00000613+00000+0001T   00000613+0000001638          1400 SY5112               1AZ
105509000105509               105509               170213R1     1400+00000+R10000000876+0000000876+000000000+000000123+0000000990+0000000009+I20000000000+0000000990+Z
105509001105509077-000314     105509006003000181148GIFT-BAG 11X14CM MATT  0000001000+00000876+00000+0001T   00000876+0000001642          1400 SY5112               1AZ
105510000105510               105510               170213R1     1400+00000+R10000002400+0000002400+000000000+000000337+0000002737+0000000000+I40000002737+0000000000+Z
105510001105510007-000123     105510006003000533879BOOK COVER 450mmx1.5m  0000002000+00000306+00000+0001T   00000306+0000001648          1400 SY5130               1AZ
105510002105510007-000724     105510006003000225958NOTE MAGNETIC 60SHTS   0000001000+00001753+00000+0001T   00001753+0000001648          1400 SY5130               1AZ
105510003105510112-116038     105510006009681820246TCS CARRIER BAG MIDI   0000001000+00000035+00000+0001T   00000035+0000001648          1400 SY5090               1AZ
105511000105511               105511               170213R1     1400+00000+R10000006625+0000006625+000000000+000000928+0000007550+0000000003+I20000000000+0000007550+Z
105511001105511077-000309-A   105511006003000671007GIFT-BAG HOLOGRAM JMB  0000001000+00002192+00000+0001T   00002192+0000001651          1400 SY5112               1AZ
105511002105511031-080508     105511006001023802415P/FRAME PL 22X11CM LOVE0000001000+00004385+00000+0001T   00004385+0000001651          1400 SY5510               1AZ
105511003105511112-116069     105511006009681820277TCS CARRIER BAG JUMBO  0000001000+00000048+00000+0001T   00000048+0000001651          1400 SY5090               1AZ
105512000105512               105512               170213R1     1400+00000+R10000003069+0000003069+000000000+000000430+0000003490+0000000009+I20000000000+0000003490+Z
105512001105512464-000107     105512000073854318089PLAY-CARDS 2nd (SINGLE)0000001000+00003069+00000+0001T   00003069+0000001652          1400 SY5785               1AZ
105513000105513               105513               170213R1     1400+00000+R10000003506+0000003506+000000000+000000491+0000003990+0000000007+I20000000000+0000003990+Z
105513001105513077-000310     105513006001023608635GIFT-BAG 18X23CM GLOSS 0000001000+00001314+00000+0001T   00001314+0000001655          1400 SY5112               1AZ
105513002105513566-000359     105513006003000582709STICKER BOOK LOVE SPARK0000001000+00002192+00000+0001T   00002192+0000001655          1400 SY5130               1AZ
105514000105514               105514               170213R1     1400+00000+R10000005908+0000005908+000000000+000000828+0000006736+0000000000+I40000006736+0000000000+Z
105514001105514077-000382     105514006003000247820GIFT-BAG MED 18X23CM   0000001000+00001753+00000+0001T   00001753+0000001659          1400 SY5112               1AZ
105514002105514304-001011     105514006001023806727FLWR ROSE RED W/BEAR   0000001000+00000613+00000+0001T   00000788+0006471659          1400 SY5510               1AZ
105514003105514018-005009     105514006001023725608MUG W/PLUSH-BEAR LOVE  0000001000+00003507+00000+0001T   00003507+0000001659          1400 SY5515               1AZ
105514004105514112-116038     105514006009681820246TCS CARRIER BAG MIDI   0000001000+00000035+00000+0001T   00000035+0000001659          1400 SY5090               1AZ
105515000105515               105515               170213R1     1400+00000+R10000001753+0000001753+000000000+000000246+0000001990+0000000009+I20000000000+0000001990+Z
105515001105515080-000117     105515006003000236350CARD & ENVELOPE THANK U0000001000+00001753+00000+0001T   00001753+0000001701          1400 SY5112               1AZ
105516000105516               105516               170213R1     1400+00000+R10000005346+0000005346+000000000+000000750+0000006090+0000000006+I20000000000+0000006090+Z
105516001105516080-000115     105516006003000237333CARD&ENVELOPE - BLANKS 0000001000+00001753+00000+0001T   00001753+0000001703          1400 SY5112               1AZ
105516002105516077-000323     105516006001023677563G/BAG 25X32CM E/DAY FLO0000001000+00001578+00000+0001T   00001578+0000001703          1400 SY5112               1AZ
105516003105516903-000482     105516006001704001397SWT SOFT-MINTS 60G     0000001000+00000876+00000+0001T   00000876+0000001703          1400 SY5150               1AZ
105516004105516903-000087     105516006001704000161SWT SPECKLED-EGGS 50G  0000001000+00001139+00000+0001T   00001139+0000001703          1400 SY5150               1AZ
105517000105517               105517               170213R1     1400+00000+R10000005909+0000005909+000000000+000000828+0000006737+0000000000+I40000006737+0000000000+Z
105517001105517112-116038     105517006009681820246TCS CARRIER BAG MIDI   0000001000+00000035+00000+0001T   00000035+0000001721          1400 SY5090               1AZ
105517002105517903-000482     105517006001704001397SWT SOFT-MINTS 60G     0000001000+00000876+00000+0001T   00000876+0000001721          1400 SY5150               1AZ
105517003105517018-030000     105517006003000421060MUG OCCASIONS LOVE 2PCE0000001000+00004385+00000+0001T   00004385+0000001721          1400 SY5515               1AZ
105517004105517304-001011     105517006001023806727FLWR ROSE RED W/BEAR   0000001000+00000613+00000+0001T   00000788+0006471721          1400 SY5510               1AZ
105518000105518               105518               170213R1     1400+00000+R10000002716+0000002716+000000000+000000381+0000003090+0000000007+I20000000000+0000003090+Z
105518001105518077-000310     105518006001023608635GIFT-BAG 18X23CM GLOSS 0000001000+00001314+00000+0001T   00001314+0000001721          1400 SY5112               1AZ
105518002105518304-001204     105518006001023737984FLOWER OCC. TEDDY/ROSES0000001000+00001402+00000+0001T   00001490+0006471721          1400 SY5510               1AZ
105519000105519               105519               170213R1     1400+00000+R10000001753+0000001753+000000000+000000246+0000001999+0000000000+I40000001999+0000000000+Z
105519001105519006-000124     105519006003000625888BALLOONS 10PC MIX COL  0000001000+00001753+00000+0001T   00001753+0000001725          1400 SY5131               1AZ
105520000105520               105520               170213R1     1400+00000+R10000002630+0000002630+000000000+000000369+0000002990+0000000009+I20000000000+0000002990+Z
105520001105520006-000111     105520006003000519385BALLOONS LARGE 12PCE   0000001000+00002630+00000+0001T   00002630+0000001726          1400 SY5131               1AZ
105521000105521               105521               170213R1     1400+00000+R10000010131+0000010131+000000000+000001419+0000011550+0000000000+I40000011550+0000000000+Z
105521001105521018-019000     105521006003000557288MUG OCC. LOVE JUMBO    0000001000+00005262+00000+0001T   00005262+0000001730          1400 SY5515               1AZ
105521002105521301-085004     105521006003000420469ORN LOVE PLAQUE 21X10CM0000001000+00003507+00000+0001T   00003946+0006471730          1400 SY5505               1AZ
105521003105521077-000310     105521006001023608635GIFT-BAG 18X23CM GLOSS 0000001000+00001314+00000+0001T   00001314+0000001730          1400 SY5112               1AZ
105521004105521112-116069     105521006009681820277TCS CARRIER BAG JUMBO  0000001000+00000048+00000+0001T   00000048+0000001730          1400 SY5090               1AZ
105522000105522               105522               170213R1     1400+00000+R10000000876+0000000876+000000000+000000123+0000000999+0000000000+I40000000999+0000000000+Z
105522001105522077-000302     105522008010410010195GIFT-BAG 18X23CM E/D   0000001000+00000876+00000+0001T   00000876+0000001731          1400 SY5112               1AZ
A17021300                                          10243493R1SLAVE 1                       SY52IC
M17021391                              CASH        R1SLAVE 1                       Z-REPORT No.   540TOTAL (Sales - Refunds)           5971.18       CASH TO BE BANKED                 2973.40       DEBIT CARDS                          0.00       CREDIT CARDS                      2997.73       Z-READING                         5971.18       AIRTIME DEBIT CARD SALES             0.00       AIRTIME CARD SALES                   0.00       OVERS/UNDERS                         0.05-      AIRTIME CASH SALES                   0.00       GIFT CARDS                           0.00       GIFT CARD CASH SALES                 0.00       T O T A L  CASH PAYOUTS              0.00                                                                                                                                                                                                                                                                                                                                                      Z
M17021392                              CASH        R1ABSENT                                                                                                                                                                                          ANNUAL LEAVE                                                                                                                                                                                    DAY OFF                                                                                                                                                                                         COMMENTS                                                                                                          5971.18                                                                                                                                                                                                                                                                      Z
Y17021300                                          R100000000538527+000078
ZR117021321153 SLAVE 1      SALES DATA                     NEXT INVOICE NO.  105523 0540
X R1 Slave 1 First invoice 105445 170213 Last invoice 105522 170213 Next invoice 105523 Total number of records 000000287 clbackup completed 21:15:06
