202432000202432               202432               170213R1     1400+00000+R10000004385+0000004385+000000000+000000614+0000004999+0000000000+I40000004999+0000000000+Z
202432001202432006-000190     202432006003000685530BALLOONS LOVE 81x91cm  0000001000+00004385+00000+0001T   00004385+0000001024          1400 R64131               2AZ
202433000202433               202433               170213R1     1400+00000+R10000011011+0000011011+000000000+000001542+0000012550+0000000003+I20000000000+0000012550+Z
202433001202433112-116069     202433006009681820277TCS CARRIER BAG JUMBO  0000001000+00000048+00000+0001T   00000048+0000001108          1400 R64090               2AZ
202433002202433001-091415     202433006003000329113W/GLS OCC. LOVE 2PC 2800000001000+00008771+00000+0001T   00009648+0006471108          1400 R64515               2AZ
202433003202433031-000924     202433006001023669964P/FRAME COLLAGE PL     0000001000-00008771+00000+0001T   00008771+0000001108          1400 R645102IC            2 Z
202433004202433080-000127     202433006003000424351VALENTINES DAY 36x24CM 0000001000+00002192+00000+0001T   00002192+0000001108          1400 R64112               2AZ
202433005202433031-000924     202433006001023669964P/FRAME COLLAGE PL     0000001000+00008771+00000+0001T   00008771+0000001108          1400 R64510               2AZ
202434000202434               202434               170213R1     1400+00000+R10000007062+0000007062+000000000+000000989+0000008050+0000000001+I20000000000+0000008050+Z
202434001202434464-009010     202434006001023800756FISHING-GAME MAG +ROD  0000002000+00003507+00000+0001T   00003507+0000001110          1400 R64785               2AZ
202434002202434112-116069     202434006009681820277TCS CARRIER BAG JUMBO  0000001000+00000048+00000+0001T   00000048+0000001110          1400 R64090               2AZ
202435000202435               202435               170213R1     1400+00000+R10000006138+0000006138+000000000+000000860+0000006998+0000000000+I40000006998+0000000000+Z
202435001202435018-030000     202435006003000421060MUG OCCASIONS LOVE 2PCE0000001000+00004385+00000+0001T   00004385+0000001112          1400 R64515               2AZ
202435002202435301-085002     202435006003000420704ORN OCC. LOVE BELL ASST0000001000+00001753+00000+0001T   00002630+0008121112          1400 R64505               2AZ
202436000202436               202436               170213R1     1400+00000+R10000032266+0000032266+000000000+000004526+0000036790+0000000002+I20000000000+0000036790+Z
202436001202436112-116069     202436006009681820277TCS CARRIER BAG JUMBO  0000001000+00000048+00000+0001T   00000048+0000001116          1400 R64090               2AZ
202436002202436036-000063     202436006002580007039COATHANGERS VIRGIN 5PCE0000004000+00001753+00000+0001T   00001753+0000001116          1400 R64212               2AZ
202436003202436002-000878     202436006001023770967STRAINER TEA WIRE 7cm  0000002000+00001490+00000+0001T   00001490+0000001116          1400 R64300               2AZ
202436004202436200-000002     202436006925406821049BAG FLIP TOP 80PCE     0000001000+00002192+00000+0001T   00002192+0000001116          1400 R64214               2AZ
202436005202436251-000040     202436006001023515865SEALTAPE CLEAR 48mmx50m0000002000+00001227+00000+0001T   00001227+0000001116          1400 R64810               2AZ
202436006202436112-116069     202436006009681820277TCS CARRIER BAG JUMBO  0000001000+00000048+00000+0001T   00000048+0000001116          1400 R64090               2AZ
202436007202436200-003024     202436006001023657299REFUSE BAGS 20PCE BLACK0000003000+00001753+00000+0001T   00001753+0000001116          1400 R64214               2AZ
202436008202436020-000142     202436006003000223138KNIFE-SET 3PCE UTILITY 0000001000+00003069+00000+0001T   00003069+0000001116          1400 R64300               2AZ
202436009202436200-003026     202436006003000276448REFUSE BAGS 10PCE GREEN0000002000+00001753+00000+0001T   00001753+0000001116          1400 R64214               2AZ
202436010202436903-000090     202436006009826020821SWT GS CHOCO COINS 60g 0000002000+00002104+00000+0001T   00002104+0000001116          1400 R64150               2AZ
202436011202436002-000802     202436006003000426515PEELER STAINLESS STEEL 0000001000+00001490+00000+0001T   00001490+0000001116          1400 R64300               2AZ
202437000202437               202437               170213R1     1400+00000+R10000014598+0000014598+000000000+000002047+0000016645+0000000000+I40000016645+0000000000+Z
202437001202437112-116069     202437006009681820277TCS CARRIER BAG JUMBO  0000001000+00000048+00000+0001T   00000048+0000001121          1400 R64090               2AZ
202437002202437072-020353     202437006001023598097DOG/CAT-BOWL 17cm      0000003000+00001753+00000+0001T   00001753+0000001121          1400 R64870               2AZ
202437003202437027-056188     202437006003000570539DISH BRUSH LADY SHAPE  0000001000+00002630+00000+0001T   00002630+0000001121          1400 R64212               2AZ
202437004202437033-000602     202437006003000365333HAIR BRUSH 23CM BLK&WHT0000001000+00003507+00000+0001T   00003507+0000001121          1400 R64200               2AZ
202437005202437566-001234     202437006003000217793STICKERS LASER ASSTD   0000001000+00001578+00000+0001T   00001578+0000001121          1400 R64130               2AZ
202437006202437566-002000     202437000721129013206STICKERS CRYSTAL ASSTD 0000001000+00000700+00000+0001T   00000700+0000001121          1400 R64130               2AZ
202437007202437903-000503     202437006001704006118SWT VAMPIRE FANGS 60G  0000001000+00000876+00000+0001T   00000876+0000001121          1400 R64150               2AZ
202438000202438               202438               170213R1     1400+00000+R10000003153+0000003153+000000000+000000442+0000003590+0000000005+I20000000000+0000003590+Z
202438001202438077-000321     202438006001023677501GIFT-BAG 11X14CM E/D FL0000003000+00000613+00000+0001T   00000613+0000001122          1400 R64112               2AZ
202438002202438903-000844     202438005010478432567SWT CANDY DL LUV HEARTS0000001000+00001314+00000+0001T   00001314+0000001122          1400 R64150               2AZ
202439000202439               202439               170213R1     1400+00000+R10000001578+0000001578+000000000+000000221+0000001790+0000000009+I20000000000+0000001790+Z
202439001202439018-000127     202439006001023380289MUG OCC STRAIGHT LOVE  0000001000+00001578+00000+0001T   00001753+0006471207          1400 R64515               2AZ
202440000202440               202440               170213R1     1400+00000+R10000006699+0000006699+000000000+000000939+0000007630+0000000008+I20000000000+0000007630+Z
202440001202440065-000015     202440006003000536474MICROPHNE & SUNGLASSESS0000001000+00005262+00000+0001T   00005262+0000001212          1400 R64745               2AZ
202440002202440046-000011     202440004897006172994BATTERIES SIZE:AA  2PCE0000001000+00001402+00000+0001T   00001402+0000001212          1400 R64312               2AZ
202440003202440112-116038     202440006009681820246TCS CARRIER BAG MIDI   0000001000+00000035+00000+0001T   00000035+0000001212          1400 R64090               2AZ
202441000202441               202441               170213R1     1400+00000+R10000015431+0000015431+000000000+000002164+0000017595+0000000000+I40000017595+0000000000+Z
202441001202441903-000215     202441006002099001214SWT GS MALLOW TWIST PAC0000001000+00001753+00000+0001T   00001753+0000001214          1400 R64150               2AZ
202441002202441077-000327     202441006001023677686GIFT-BAG 25X32CM E/D BA0000001000+00001490+00000+0001T   00001490+0000001214          1400 R64112               2AZ
202441003202441361-000698     202441006003000654031DOLL BABY 28cm SOFT    0000001000+00011402+00000+0001T   00011402+0000001214          1400 R64725               2AZ
202441004202441903-000183     202441006003000451043SWT LB HEART LOLLY     0000002000+00000393+00000+0001T   00000393+0000001214          1400 R64150               2AZ
202442000202442               202442               170213R1     1400+00000+R10000001753+0000001753+000000000+000000246+0000001990+0000000009+I20000000000+0000001990+Z
202442001202442077-000381     202442006003000247707GIFT-BAG 25X32CM S/COL 0000001000+00001753+00000+0001T   00001753+0000001214          1400 R64112               2AZ
202443000202443               202443               170213R1     1400+00000+R10000011869+0000011869+000000000+000001665+0000013534+0000000000+I40000013534+0000000000+Z
202443001202443006-006018-B   202443006003000008278PARTY-SPRAY HAIR NEON  0000001000+00002630+00000+0001T   00002630+0000001316          1400 R64131               2AZ
202443002202443006-006018     202443006001023735256PARTY-SPRAY HAIR ASSORT0000002000+00002630+00000+0001T   00002630+0000001316          1400 R64131               2AZ
202443003202443006-006018-B   202443006003000008278PARTY-SPRAY HAIR NEON  0000001000+00002630+00000+0001T   00002630+0000001316          1400 R64131               2AZ
202443004202443112-116038     202443006009681820246TCS CARRIER BAG MIDI   0000001000+00000035+00000+0001T   00000035+0000001316          1400 R64090               2AZ
202443005202443046-000012     202443006904708013062BATTERIES AA  CARD-OF-40000001000+00001314+00000+0001T   00001314+0000001316          1400 R64312               2AZ
202444000202444               202444               170213R1     1400+00000+R10000014505+0000014505+000000000+000002031+0000016536+0000000000+I40000016536+0000000000+Z
202444001202444566-000359     202444006003000582709STICKER BOOK LOVE SPARK0000001000+00002192+00000+0001T   00002192+0000001352          1400 R64130               2AZ
202444002202444001-091415     202444006003000329113W/GLS OCC. LOVE 2PC 2800000001000+00008771+00000+0001T   00009648+0006471352          1400 R64515               2AZ
202444003202444039-080942     202444006001023669872C/PILLAR RND WHT 10X7CM0000001000+00003507+00000+0001T   00003507+0000001352          1400 R64510               2AZ
202444004202444112-116038     202444006009681820246TCS CARRIER BAG MIDI   0000001000+00000035+00000+0001T   00000035+0000001352          1400 R64090               2AZ
202445000202445               202445               170213R1     1400+00000+R10000003069+0000003069+000000000+000000430+0000003490+0000000009+I20000000000+0000003490+Z
202445001202445016-001000     202445006001023901439STORAGE-JAR GLS W/STRAW0000001000+00003069+00000+0001T   00003069+0000001408          1400 R64300               2AZ
202446000202446               202446               170213R1     1400+00000+R10000002192+0000002192+000000000+000000307+0000002490+0000000009+I20000000000+0000002490+Z
202446001202446024-091103     202446006003453014307BAKING-CUP MUFFIN 50PCE0000001000+00002192+00000+0001T   00002192+0000001408          1400 R64300               2AZ
202447000202447               202447               170213R1     1400+00000+R10000005262+0000005262+000000000+000000737+0000005990+0000000009+I20000000000+0000005990+Z
202447001202447082-000122-A   202447006003000403561READING GLS STRENGTH:1 0000001000+00005262+00000+0001T   00005262+0000001419          1400 R64160               2AZ
202448000202448               202448               170213R1     1400+00000+R10000004155+0000004155+000000000+000000583+0000004730+0000000008+I20000000000+0000004730+Z
202448001202448112-116038     202448006009681820246TCS CARRIER BAG MIDI   0000001000+00000035+00000+0001T   00000035+0000001421          1400 R64090               2AZ
202448002202448150-000775     202448006001023431196UTILITY-BOX LARGE      0000001000+00002367+00000+0001T   00002367+0000001421          1400 R64810               2AZ
202448003202448562-000216     202448006003000113880EDU PUSH-IN WDN BOARD  0000001000+00001753+00000+0001T   00001753+0000001421          1400 R64755               2AZ
202449000202449               202449               170213R1     1400+00000+R10000010084+0000010084+000000000+000001413+0000011490+0000000007+I20000000000+0000011490+Z
202449001202449369-001010     202449006001023864222BATH VINYL DUCK 4PC    0000001000+00002192+00000+0001T   00002192+0000001434          1400 R64745               2AZ
202449002202449466-002096     202449006001023800398CATCHBALL VELCRO W/BALL0000001000+00005262+00000+0001T   00005262+0000001434          1400 R64785               2AZ
202449003202449266-000101     202449006003000552658GLIDER PLANE 15.5X45CM 0000001000+00002630+00000+0001T   00002630+0000001434          1400 R64710               2AZ
202450000202450               202450               170213R1     1400+00000+R10000011432+0000011432+000000000+000001601+0000013033+0000000000+I40000013033+0000000000+Z
202450001202450076-000017     202450006001811010022TWINE COTTON 50g-BALL  0000001000+00000876+00000+0001T   00000876+0000001438          1400 R64810               2AZ
202450002202450018-005009     202450006001023725608MUG W/PLUSH-BEAR LOVE  0000003000+00003507+00000+0001T   00003507+0000001438          1400 R64515               2AZ
202450003202450112-116038     202450006009681820246TCS CARRIER BAG MIDI   0000001000+00000035+00000+0001T   00000035+0000001438          1400 R64090               2AZ
202451000202451               202451               170213R1     1400+00000+R10000006487+0000006487+000000000+000000909+0000007390+0000000006+I20000000000+0000007390+Z
202451001202451304-001204     202451006001023737984FLOWER OCC. TEDDY/ROSES0000001000+00001402+00000+0001T   00001490+0006471438          1400 R64510               2AZ
202451002202451018-000136     202451006001023659026MUG OCC LOVE W/PLUSH   0000001000+00003507+00000+0001T   00003507+0000001438          1400 R64515               2AZ
202451003202451077-000315     202451006003000181186GIFT-BAG 20x28cm MATT  0000001000+00001578+00000+0001T   00001578+0000001438          1400 R64112               2AZ
202452000202452               202452               170213R1     1400+00000+R10000007222+0000007222+000000000+000001014+0000008236+0000000000+I40000008236+0000000000+Z
202452001202452079-000260     202452006001023886385PAINT TUBS WT BASE 4COL0000001000+00002630+00000+0001T   00002630+0000001440          1400 R64130               2AZ
202452002202452077-000005-B   202452006003000326617PAPER TISSUE PATTERN   0000001000+00002630+00000+0001T   00002630+0000001440          1400 R64112               2AZ
202452003202452251-000030     202452006001023515803MASKING-TAPE 18mmx40m  0000001000+00001139+00000+0001T   00001139+0000001440          1400 R64810               2AZ
202452004202452071-081101-A   202452006003000326549GLUE-STICK 25g BLISTER 0000001000+00000788+00000+0001T   00000788+0000001440          1400 R64130               2AZ
202452005202452112-116038     202452006009681820246TCS CARRIER BAG MIDI   0000001000+00000035+00000+0001T   00000035+0000001440          1400 R64090               2AZ
202453000202453               202453               170213R1     1400+00000+R10000003681+0000003681+000000000+000000516+0000004190+0000000007+I20000000000+0000004190+Z
202453001202453080-000127     202453006003000424351VALENTINES DAY 36x24CM 0000001000+00002192+00000+0001T   00002192+0000001442          1400 R64112               2AZ
202453002202453077-000311     202453006001023608666GIFT-BAG 11X14CM GLOSS 0000001000+00000613+00000+0001T   00000613+0000001442          1400 R64112               2AZ
202453003202453903-000220     202453006001704007368SWT JELLY BEANS 60G    0000001000+00000876+00000+0001T   00000876+0000001442          1400 R64150               2AZ
202454000202454               202454               170213R1     1400+00000+R10000002630+0000002630+000000000+000000369+0000002999+0000000000+I40000002999+0000000000+Z
202454001202454463-000366     202454006001023789136SWIM W/NOODLE 150cm    0000001000+00002630+00000+0001T   00002630+0000001454          1400 R64785               2AZ
202455000202455               202455               170213R1     1400+00000+R10000010872+0000010872+000000000+000001523+0000012395+0000000000+I40000012395+0000000000+Z
202455001202455304-001204     202455006001023737984FLOWER OCC. TEDDY/ROSES0000001000+00001402+00000+0001T   00001490+0006471500          1400 R64510               2AZ
202455002202455368-000001     202455006003000097982Plush Bear 25cm        0000001000+00004385+00000+0001T   00004385+0000001500          1400 R64745               2AZ
202455003202455018-000136     202455006001023659026MUG OCC LOVE W/PLUSH   0000001000+00003507+00000+0001T   00003507+0000001500          1400 R64515               2AZ
202455004202455077-000315     202455006003000181186GIFT-BAG 20x28cm MATT  0000001000+00001578+00000+0001T   00001578+0000001500          1400 R64112               2AZ
202456000202456               202456               170213R1     1400+00000+R10000003506+0000003506+000000000+000000492+0000003990+0000000008+I20000000000+0000003990+Z
202456001202456903-000619     202456006003000672455SWT LOLLY STR/BRRY 140G0000002000+00001753+00000+0001T   00001753+0000001509          1400 R64150               2AZ
202457000202457               202457               170213R1     1400+00000+R10000009681+0000009681+000000000+000001356+0000011037+0000000000+I40000011037+0000000000+Z
202457001202457567-075470     202457009780007795352BK NOVEL CATEGORY B    0000001000+00006139+00000+0001T   00006139+0000001518          1400 R64757               2AZ
202457002202457567-010564     202457006003000572397BOOK AFRIKAANS CAT 1   0000001000+00003507+00000+0001T   00003507+0000001518          1400 R64757               2AZ
202457003202457112-116038     202457006009681820246TCS CARRIER BAG MIDI   0000001000+00000035+00000+0001T   00000035+0000001518          1400 R64090               2AZ
202458000202458               202458               170213R1     1400+00000+R10000001525+0000001525+000000000+000000214+0000001739+0000000000+I40000001739+0000000000+Z
202458001202458031-000878-B   202458006001023799012P/FRAME 13x18cm PL-SLID0000001000+00001490+00000+0001T   00001490+0000001604          1400 R64510               2AZ
202458002202458112-116038     202458006009681820246TCS CARRIER BAG MIDI   0000001000+00000035+00000+0001T   00000035+0000001604          1400 R64090               2AZ
202459000202459               202459               170213R1     1400+00000+R10000003542+0000003542+000000000+000000496+0000004038+0000000000+I40000004038+0000000000+Z
202459001202459018-005009     202459006001023725608MUG W/PLUSH-BEAR LOVE  0000001000+00003507+00000+0001T   00003507+0000001611          1400 R64515               2AZ
202459002202459112-116038     202459006009681820246TCS CARRIER BAG MIDI   0000001000+00000035+00000+0001T   00000035+0000001611          1400 R64090               2AZ
202460000202460               202460               170213R1     1400+00000+R10000003243+0000003243+000000000+000000455+0000003690+0000000008+I20000000000+0000003690+Z
202460001202460019-000404     202460006001023845955PLANTER STONE 17X14X13M0000001000+00002630+00000+0001T   00003069+0008171617          1400 R64510               2AZ
202460002202460304-001011     202460006001023806727FLWR ROSE RED W/BEAR   0000001000+00000613+00000+0001T   00000788+0006471617          1400 R64510               2AZ
202461000202461               202461               170213R1     1400+00000+R10000009064+0000009064+000000000+000001271+0000010335+0000000000+I40000010335+0000000000+Z
202461001202461018-000136     202461006001023659026MUG OCC LOVE W/PLUSH   0000001000+00003507+00000+0001T   00003507+0000001625          1400 R64515               2AZ
202461002202461006-006013     202461006001023735195PARTY-SPRAY STRING     0000001000+00002630+00000+0001T   00002630+0000001625          1400 R64131               2AZ
202461003202461006-006018-B   202461006003000008278PARTY-SPRAY HAIR NEON  0000001000+00002630+00000+0001T   00002630+0000001625          1400 R64131               2AZ
202461004202461903-000216     202461006925925900966SWT MALLOW TWIST ERKO  0000001000+00000262+00000+0001T   00000262+0000001625          1400 R64150               2AZ
202461005202461112-116038     202461006009681820246TCS CARRIER BAG MIDI   0000001000+00000035+00000+0001T   00000035+0000001625          1400 R64090               2AZ
202462000202462               202462               170213R1     1400+00000+R10000008540+0000008540+000000000+000001197+0000009737+0000000000+I40000009737+0000000000+Z
202462001202462566-000004     202462006003000062270STICKER BOOK ABC/BORDER0000001000+00002630+00000+0001T   00002630+0000001627          1400 R64130               2AZ
202462002202462103-000083     202462006003000638062BAMBOO BASKET 27x20x8cm0000001000+00005262+00000+0001T   00005262+0000001627          1400 R64300               2AZ
202462003202462304-001011     202462006001023806727FLWR ROSE RED W/BEAR   0000001000+00000613+00000+0001T   00000788+0006471627          1400 R64510               2AZ
202462004202462112-116038     202462006009681820246TCS CARRIER BAG MIDI   0000001000+00000035+00000+0001T   00000035+0000001627          1400 R64090               2AZ
202463000202463               202463               170213R1     1400+00000+R10000001753+0000001753+000000000+000000246+0000001999+0000000000+I40000001999+0000000000+Z
202463001202463077-000381     202463006003000247707GIFT-BAG 25X32CM S/COL 0000001000+00001753+00000+0001T   00001753+0000001631          1400 R64112               2AZ
202464000202464               202464               170213R1     1400+00000+R10000002192+0000002192+000000000+000000307+0000002490+0000000009+I20000000000+0000002490+Z
202464001202464006-000090     202464006001023538505BANNER HAPPY-BIRTHDAY  0000001000+00002192+00000+0001T   00002192+0000001636          1400 R64131               2AZ
202465000202465               202465               170213R1     1400+00000+R10000003505+0000003505+000000000+000000492+0000003997+0000000000+I40000003997+0000000000+Z
202465001202465004-078985     202465006003000093267EARPHONES MINI ASST COL0000001000+00001753+00000+0001T   00001753+0000001638          1400 R64310               2AZ
202465002202465083-000050     202465006001023898593LIGHTERS DISPOSABLE    0000001000+00000876+00000+0001T   00000876+0000001638          1400 R64315               2AZ
202465003202465036-000011     202465006003000675890LINT REMOVER REFILL    0000001000+00000876+00000+0001T   00000876+0000001638          1400 R64212               2AZ
202466000202466               202466               170213R1     1400+00000+R10000009766+0000009766+000000000+000001369+0000011130+0000000005+I20000000000+0000011130+Z
202466001202466112-116038     202466006009681820246TCS CARRIER BAG MIDI   0000001000+00000035+00000+0001T   00000035+0000001643          1400 R64090               2AZ
202466002202466018-005009     202466006001023725608MUG W/PLUSH-BEAR LOVE  0000001000+00003507+00000+0001T   00003507+0000001643          1400 R64515               2AZ
202466003202466030-000030-A   202466006003000249305PLAQUE GLASS LOVE      0000001000+00003069+00000+0001T   00003069+0000001643          1400 R64505               2AZ
202466004202466077-000471     202466006003000330096G-BAG DESGN MED 18X23CM0000001000+00001753+00000+0001T   00001753+0000001643          1400 R64112               2AZ
202466005202466304-001204     202466006001023737984FLOWER OCC. TEDDY/ROSES0000001000+00001402+00000+0001T   00001490+0006471643          1400 R64510               2AZ
202467000202467               202467               170213R1     1400+00000+R10000003069+0000003069+000000000+000000430+0000003490+0000000009+I20000000000+0000003490+Z
202467001202467003-008018     202467006003000252336ORN SIGN FLOWER GARDEN 0000001000+00003069+00000+0001T   00003069+0000001655          1400 R64505               2AZ
202468000202468               202468               170213R1     1400+00000+R10000000035+0000000035+000000000+000000005+0000000040+0000000000+I20000000000+0000000040+Z
202468001202468112-116038     202468006009681820246TCS CARRIER BAG MIDI   0000001000+00000035+00000+0001T   00000035+0000001656          1400 R64090               2AZ
202469000202469               202469               170213R1     1400+00000+R10000002630+0000002630+000000000+000000369+0000002990+0000000009+I20000000000+0000002990+Z
202469001202469006-000111     202469006003000519385BALLOONS LARGE 12PCE   0000001000+00002630+00000+0001T   00002630+0000001658          1400 R64131               2AZ
202470000202470               202470               170213R1     1400+00000+R10000002980+0000002980+000000000+000000418+0000003390+0000000008+I20000000000+0000003390+Z
202470001202470039-000108     202470006001023524034TEA-LITE CANDLES 8PCE  0000002000+00001490+00000+0001T   00001490+0000001714          1400 R64510               2AZ
202471000202471               202471               170213R1     1400+00000+R10000014911+0000014911+000000000+000002088+0000016999+0000000000+I40000016999+0000000000+Z
202471001202471562-006269     202471006001023658647BOARD EASY-WRITER+PEN  0000001000+00014911+00000+0001T   00014911+0000001716          1400 R64755               2AZ
202472000202472               202472               170213R1     1400+00000+R10000004385+0000004385+000000000+000000614+0000004990+0000000009+I20000000000+0000004990+Z
202472001202472018-030000     202472006003000421060MUG OCCASIONS LOVE 2PCE0000001000+00004385+00000+0001T   00004385+0000001744          1400 R64515               2AZ
202473000202473               202473               170213R1     1400+00000+R10000001753+0000001753+000000000+000000246+0000001990+0000000009+I20000000000+0000001990+Z
202473001202473077-000309     202473006001023608604GIFT-BAG 25X32CM GLOSS 0000001000+00001753+00000+0001T   00001753+0000001753          1400 R64112               2AZ
202474000202474               202474               170213R1     1400+00000+R10000006173+0000006173+000000000+000000865+0000007038+0000000000+I40000007038+0000000000+Z
202474001202474301-085002     202474006003000420704ORN OCC. LOVE BELL ASST0000001000+00001753+00000+0001T   00002630+0008121755          1400 R64505               2AZ
202474002202474018-030000     202474006003000421060MUG OCCASIONS LOVE 2PCE0000001000+00004385+00000+0001T   00004385+0000001755          1400 R64515               2AZ
202474003202474112-116038     202474006009681820246TCS CARRIER BAG MIDI   0000001000+00000035+00000+0001T   00000035+0000001755          1400 R64090               2AZ
A17021300                                          11014633R1SLAVE 2                       R642IC
A17021301                                          11582268R1SLAVE 2                       R642IC
A17021302                                          13484691R1SLAVE 2                       R642IC
A17021303                                          17065201R1SLAVE 2                       R642IC
A17021304                                          17073590R1SLAVE 2                       R642IC
A17021305                                          17185142R1SLAVE 2                       R642IC
M17021391                              CASH        R1SLAVE 2                       Z-REPORT No.   565TOTAL (Sales - Refunds)           3302.39       CASH TO BE BANKED                 1503.50       DEBIT CARDS                          0.00       CREDIT CARDS                      1798.89       Z-READING                         3302.39       AIRTIME DEBIT CARD SALES             0.00       AIRTIME CARD SALES                   0.00       OVERS/UNDERS                         0.00       AIRTIME CASH SALES                   0.00       GIFT CARDS                           0.00       GIFT CARD CASH SALES                 0.00       T O T A L  CASH PAYOUTS              0.00                                                                                                                                                                                                                                                                                                                                                      Z
M17021392                              CASH        R1ABSENT                                                                                                                                                                                          ANNUAL LEAVE                                                                                                                                                                                    DAY OFF                                                                                                                                                                                         COMMENTS                                                                                                          3302.39                                                                                                                                                                                                                                                                      Z
Y17021300                                          R100000000298558+000043
ZR117021321153 SLAVE 2      SALES DATA                     NEXT INVOICE NO.  202475 0565
X R1 Slave 2 First invoice 202432 170213 Last invoice 202474 170213 Next invoice 202475 Total number of records 000000168 clbackup completed 21:15:11
