103878000103878               103878               170213RA     1400+00000+RA0000007893+0000007893+000000000+000001106+0000008999+0000000000+I40000008999+0000000000+Z
103878001103878050-004107-Z   103878006001023812629PADLOCK DISCUS S/S 70mm0000001000+00007893+00000+0001T   00007893+0000001008          1400 AM6855               1AZ
103879000103879               103879               170213RA     1400+00000+RA0000001753+0000001753+000000000+000000246+0000001990+0000000009+I20000000000+0000001990+Z
103879001103879078-000020     103879008887013700071YAMAYO CONTACT-CEMENT  0000001000+00001753+00000+0001T   00001753+0000001009          1400 AM6810               1AZ
103880000103880               103880               170213RA     1400+00000+RA0000010029+0000010029+000000000+000001405+0000011430+0000000004+I20000000000+0000011430+Z
103880001103880018-000136     103880006001023659026MUG OCC LOVE W/PLUSH   0000002000+00003507+00000+0001T   00003507+0000001034          1400 AM6515               1AZ
103880002103880077-000452     103880006003000284986G/BAG METALLIC MED EMB 0000002000+00001490+00000+0001T   00001490+0000001034          1400 AM6112               1AZ
103880003103880112-116038     103880006009681820246TCS CARRIER BAG MIDI   0000001000+00000035+00000+0001T   00000035+0000001034          1400 AM6090               1AZ
103881000103881               103881               170213RA     1400+00000+RA0000011696+0000011696+000000000+000001640+0000013330+0000000006+I20000000000+0000013330+Z
103881001103881041-093000     103881006003000320882B/GIFT SET 4PC B/RANGE 0000001000+00007016+00000+0001T   00007016+0000001045          1400 AM6200               1AZ
103881002103881018-000129     103881006001023403353MUG OCC. LOVE V-SHAPE  0000001000+00002630+00000+0001T   00002630+0000001045          1400 AM6515               1AZ
103881003103881077-000303     103881006001023593757GIFT-BAG PAPER MED     0000001000+00001578+00000+0001T   00001578+0000001045          1400 AM6112               1AZ
103881004103881080-000133-A   103881006003000647019MINI VALENTINES CARD   0000001000+00000437+00000+0001T   00000437+0000001045          1400 AM6112               1AZ
103881005103881112-116038     103881006009681820246TCS CARRIER BAG MIDI   0000001000+00000035+00000+0001T   00000035+0000001045          1400 AM6090               1AZ
103882000103882               103882               170213RA     1400+00000+RA0000002402+0000002402+000000000+000000337+0000002730+0000000009+I20000000000+0000002730+Z
103882001103882108-001105-B   103882006005387000258MIXING-BOWL PLTNM/BLUE 0000001000+00002367+00000+0001T   00002367+0000001050          1400 AM6210               1AZ
103882002103882112-116038     103882006009681820246TCS CARRIER BAG MIDI   0000001000+00000035+00000+0001T   00000035+0000001050          1400 AM6090               1AZ
103883000103883               103883               170213RA     1400+00000+RA0000003555+0000003555+000000000+000000498+0000004050+0000000003+I20000000000+0000004050+Z
103883001103883012-000002     103883006003000331079MICRO PLATE-COVER 26X9 0000001000+00003507+00000+0001T   00003507+0000001130          1400 AM6300               1AZ
103883002103883112-116069     103883006009681820277TCS CARRIER BAG JUMBO  0000001000+00000048+00000+0001T   00000048+0000001130          1400 AM6090               1AZ
103884000103884               103884               170213RA     1400+00000+RA0000000876+0000000876+000000000+000000123+0000000990+0000000009+I20000000000+0000000990+Z
103884001103884071-005213     103884006001023690371CELLOTAPE 12mmx33m     0000001000+00000876+00000+0001T   00000876+0000001150          1400 AM6130               1AZ
103885000103885               103885               170213RA     1400+00000+RA0000010953+0000010953+000000000+000001538+0000012491+0000000000+I40000012491+0000000000+Z
103885001103885304-001011     103885006001023806727FLWR ROSE RED W/BEAR   0000001000+00000613+00000+0001T   00000788+0006471235          1400 AM6510               1AZ
103885002103885080-000133-A   103885006003000647019MINI VALENTINES CARD   0000001000+00000437+00000+0001T   00000437+0000001235          1400 AM6112               1AZ
103885003103885903-000200     103885006009826020234SWT CHOC RP CHOCO 23G  0000002000+00000788+00000+0001T   00000788+0000001235          1400 AM6150               1AZ
103885004103885079-013101     103885006001023863706CRAFT SET DIY PIPE-CLNR0000001000+00002630+00000+0001T   00002630+0000001235          1400 AM6130               1AZ
103885005103885036-000615     103885006003000218769WASH-PEGS PL PCK-24    0000001000+00001753+00000+0001T   00001753+0000001235          1400 AM6212               1AZ
103885006103885072-020278     103885006003000024100PET CAT LITTER PAN PL  0000001000+00003507+00000+0001T   00003507+0000001235          1400 AM6870               1AZ
103885007103885080-000133-A   103885006003000647019MINI VALENTINES CARD   0000001000+00000437+00000+0001T   00000437+0000001235          1400 AM6112               1AZ
103886000103886               103886               170213RA     1400+00000+RA0000003507+0000003507+000000000+000000491+0000003998+0000000000+I40000003998+0000000000+Z
103886001103886002-012271     103886006001023849120TONGS 23cm RUBBER-GRIP 0000001000+00003507+00000+0001T   00003507+0000001238          1400 AM6300               1AZ
103887000103887               103887               170213RA     1400+00000+RA0000007015+0000007015+000000000+000000983+0000007998+0000000000+I40000007998+0000000000+Z
103887001103887159-003625     103887006001023902061TOILET-BRUSH W/STD 40cm0000001000+00005262+00000+0001T   00005262+0000001521          1400 AM6200               1AZ
103887002103887077-000316     103887006001023609731GIFT-BAG 25X32CM MATT  0000001000+00001753+00000+0001T   00001753+0000001521          1400 AM6112               1AZ
103888000103888               103888               170213RA     1400+00000+RA0000014690+0000014690+000000000+000002059+0000016740+0000000009+I20000000000+0000016740+Z
103888001103888077-000299     103888006003000395576G/BAG 32x25cm LRG LOVE 0000001000+00001490+00000+0001T   00001490+0000001524          1400 AM6112               1AZ
103888002103888020-000143     103888006003000439140K/SET W/COLOUR HNDLS   0000001000+00004823+00000+0001T   00004823+0000001524          1400 AM6300               1AZ
103888003103888159-000020     103888006001023905543HAIR DRYING MICROFIBRE 0000001000+00002630+00000+0001T   00002630+0000001524          1400 AM6200               1AZ
103888004103888018-005009     103888006001023725608MUG W/PLUSH-BEAR LOVE  0000001000+00003507+00000+0001T   00003507+0000001524          1400 AM6515               1AZ
103888005103888077-000926     103888006003000414178G/WRAP 700mmx2m LOVE   0000001000+00002192+00000+0001T   00002192+0000001524          1400 AM6112               1AZ
103888006103888112-116069     103888006009681820277TCS CARRIER BAG JUMBO  0000001000+00000048+00000+0001T   00000048+0000001524          1400 AM6090               1AZ
103889000103889               103889               170213RA     1400+00000+RA0000001050+0000001050+000000000+000000148+0000001190+0000000008+I20000000000+0000001190+Z
103889001103889080-000133-A   103889006003000647019MINI VALENTINES CARD   0000001000+00000437+00000+0001T   00000437+0000001526          1400 AM6112               1AZ
103889002103889304-001011     103889006001023806727FLWR ROSE RED W/BEAR   0000001000+00000613+00000+0001T   00000788+0006471526          1400 AM6510               1AZ
103890000103890               103890               170213RA     1400+00000+RA0000003542+0000003542+000000000+000000496+0000004030+0000000008+I20000000000+0000004030+Z
103890001103890301-085004     103890006003000420469ORN LOVE PLAQUE 21X10CM0000001000+00003507+00000+0001T   00003946+0006471527          1400 AM6505               1AZ
103890002103890112-116038     103890006009681820246TCS CARRIER BAG MIDI   0000001000+00000035+00000+0001T   00000035+0000001527          1400 AM6090               1AZ
103891000103891               103891               170213RA     1400+00000+RA0000000437+0000000437+000000000+000000062+0000000490+0000000009+I20000000000+0000000490+Z
103891001103891080-000133-A   103891006003000647019MINI VALENTINES CARD   0000001000+00000437+00000+0001T   00000437+0000001527          1400 AM6112               1AZ
103892000103892               103892               170213RA     1400+00000+RA0000006174+0000006174+000000000+000000865+0000007030+0000000009+I20000000000+0000007030+Z
103892001103892039-809558     103892006003000344376CANDLE PILLAR 12CM 4AST0000001000+00006139+00000+0001T   00006139+0000001528          1400 AM6510               1AZ
103892002103892112-116038     103892006009681820246TCS CARRIER BAG MIDI   0000001000+00000035+00000+0001T   00000035+0000001528          1400 AM6090               1AZ
103893000103893               103893               170213RA     1400+00000+RA0000001400+0000001400+000000000+000000196+0000001590+0000000006+I20000000000+0000001590+Z
103893001103893018-000177     103893006001023797513MUG MINI LOVE ASSTD    0000002000+00000700+00000+0001T   00000700+0000001530          1400 AM6515               1AZ
103894000103894               103894               170213RA     1400+00000+RA0000000876+0000000876+000000000+000000123+0000000999+0000000000+I40000000999+0000000000+Z
103894001103894306-000021-A   103894006001023891358EARBUDS COTTON 100PCE  0000001000+00000876+00000+0001T   00000876+0000001539          1400 AM6200               1AZ
103895000103895               103895               170213RA     1400+00000+RA0000002630+0000002630+000000000+000000369+0000002990+0000000009+I20000000000+0000002990+Z
103895001103895466-000584     103895006001023628787SKIPPING-ROPE          0000001000+00002630+00000+0001T   00002630+0000001541          1400 AM6785               1AZ
103896000103896               103896               170213RA     1400+00000+RA0000002630+0000002630+000000000+000000369+0000002990+0000000009+I20000000000+0000002990+Z
103896001103896466-000514     103896006001023196620BALLS TENNIS COLR BAG-30000001000+00002630+00000+0001T   00002630+0000001544          1400 AM6785               1AZ
103897000103897               103897               170213RA     1400+00000+RA0000009255+0000009255+000000000+000001297+0000010552+0000000000+I40000010552+0000000000+Z
103897001103897105-006949     103897006003000665839CONTAINER STORER 5L    0000003000+00003069+00000+0001T   00003069+0000001558          1400 AM6210               1AZ
103897002103897112-116069     103897006009681820277TCS CARRIER BAG JUMBO  0000001000+00000048+00000+0001T   00000048+0000001558          1400 AM6090               1AZ
103898000103898               103898               170213RA     1400+00000+RA0000003542+0000003542+000000000+000000496+0000004030+0000000008+I20000000000+0000004030+Z
103898001103898031-000002     103898006001023851338FRAME FRIENDS 7.5x7.5cm0000001000+00003507+00000+0001T   00003507+0000001603          1400 AM6510               1AZ
103898002103898112-116038     103898006009681820246TCS CARRIER BAG MIDI   0000001000+00000035+00000+0001T   00000035+0000001603          1400 AM6090               1AZ
103899000103899               103899               170213RA     1400+00000+RA0000001753+0000001753+000000000+000000246+0000001990+0000000009+I20000000000+0000001990+Z
103899001103899079-000206     103899006003000639700PENCIL CRAYONS THERAPY 0000001000+00001753+00000+0001T   00001753+0000001604          1400 AM6130               1AZ
103900000103900               103900               170213RA     1400+00000+RA0000000613+0000000613+000000000+000000086+0000000690+0000000009+I20000000000+0000000690+Z
103900001103900304-001011     103900006001023806727FLWR ROSE RED W/BEAR   0000001000+00000613+00000+0001T   00000788+0006471611          1400 AM6510               1AZ
103901000103901               103901               170213RA     1400+00000+RA0000001490+0000001490+000000000+000000209+0000001690+0000000009+I20000000000+0000001690+Z
103901001103901077-000452     103901006003000284986G/BAG METALLIC MED EMB 0000001000+00001490+00000+0001T   00001490+0000001637          1400 AM6112               1AZ
103902000103902               103902               170213RA     1400+00000+RA0000002630+0000002630+000000000+000000369+0000002990+0000000009+I20000000000+0000002990+Z
103902001103902903-000592     103902006003000563777SWT CELLPHONE 12cm     0000001000+00002630+00000+0001T   00002630+0000001715          1400 AM6150               1AZ
A17021300                                          08521007RASLAVE 1                       AM63IC
A17021301                                          09190508RASLAVE 1                       AM61IC
M17021301                              IT          RATO IT                                                                                           LAST TILL SLIP NR.103902                                                                        REGARDS                                                                                         RA
M17021302                              SHIEHAAM.   RATO SHIEHAAM                                                                                     Z-READING  : R1279.97                           CASH       : R829.60                            CT CARDS   : R450.37                                                                            REGARDS                                                                                         RA
M17021391                              CASH        RASLAVE 1                       Z-REPORT No.   117TOTAL (Sales - Refunds)           1279.97       CASH TO BE BANKED                  829.60       DEBIT CARDS                          0.00       CREDIT CARDS                       450.37       Z-READING                         1279.97       AIRTIME DEBIT CARD SALES             0.00       AIRTIME CARD SALES                   0.00       OVERS/UNDERS                         0.00       AIRTIME CASH SALES                   0.00       GIFT CARDS                           0.00       GIFT CARD CASH SALES                 0.00       T O T A L  CASH PAYOUTS              0.00                                                                                                                                                                                                                                                                                                                                                      Z
M17021392                              CASH        RAABSENT                                                                                                                                                                                          ANNUAL LEAVE                                                                                                                                                                                    DAY OFF                                                                                                                                                                                         COMMENTS                                                                                                                                                                                                                                                                                                                                                                                       Z
Y17021300                                          RA00000000112391+000025
ZRA17021321143 SLAVE 1      SALES DATA                     NEXT INVOICE NO.  103903 0117
X RA Slave 1 First invoice 103878 170213 Last invoice 103902 170213 Next invoice 103903 Total number of records 000000083 clbackup completed 21:14:53
