204093000204093               204093               170213RA     1400+00000+RA0000004384+0000004384+000000000+000000614+0000004998+0000000000+I40000004998+0000000000+Z
204093001204093033-000780     204093006001023752611COSMETIC-BRUSH-SET 7PCE0000002000+00002192+00000+0001T   00002192+0000000916          1400 GM6200               2BZ
204094000204094               204094               170213RA     1400+00000+RA0000003506+0000003506+000000000+000000491+0000003990+0000000007+I20000000000+0000003990+Z
204094001204094002-000685     204094006001023693785K/TOOL P/MASHER H/HOUSE0000001000+00002192+00000+0001T   00002192+0000000918          1400 GM6300               2BZ
204094002204094903-005002     204094006002580020021SWT MALLOW SNAKE 120g  0000001000+00001314+00000+0001T   00001314+0000000918          1400 GM6150               2BZ
204095000204095               204095               170213RA     1400+00000+RA0000001227+0000001227+000000000+000000172+0000001390+0000000009+I20000000000+0000001390+Z
204095001204095133-000030     204095006001023755414KITCHEN-SWAB 30cm ASSTD0000001000+00001227+00000+0001T   00001227+0000001037          1400 GM6212               2BZ
204096000204096               204096               170213RA     1400+00000+RA0000000613+0000000613+000000000+000000086+0000000690+0000000009+I20000000000+0000000690+Z
204096001204096083-000055     204096006003000003853LIGHTER ELCTRNC REFILBL0000001000+00000613+00000+0001T   00000613+0000001155          1400 GM6315               2BZ
204097000204097               204097               170213RA     1400+00000+RA0000000613+0000000613+000000000+000000086+0000000690+0000000009+I20000000000+0000000690+Z
204097001204097304-001011     204097006001023806727FLWR ROSE RED W/BEAR   0000001000+00000613+00000+0001T   00000788+0006471156          1400 GM6510               2BZ
204098000204098               204098               170213RA     1400+00000+RA0000002665+0000002665+000000000+000000374+0000003030+0000000009+I20000000000+0000003030+Z
204098001204098071-001362     204098006003000589258HIGHLIGHTER 4 PACK     0000001000+00002630+00000+0001T   00002630+0000001202          1400 GM6130               2BZ
204098002204098112-116038     204098006009681820246TCS CARRIER BAG MIDI   0000001000+00000035+00000+0001T   00000035+0000001202          1400 GM6090               2BZ
204099000204099               204099               170213RA     1400+00000+RA0000001927+0000001927+000000000+000000271+0000002190+0000000008+I20000000000+0000002190+Z
204099001204099077-000452     204099006003000284986G/BAG METALLIC MED EMB 0000001000+00001490+00000+0001T   00001490+0000001209          1400 GM6112               2BZ
204099002204099080-000133-A   204099006003000647019MINI VALENTINES CARD   0000001000+00000437+00000+0001T   00000437+0000001209          1400 GM6112               2BZ
204100000204100               204100               170213RA     1400+00000+RA0000003115+0000003115+000000000+000000438+0000003553+0000000000+I40000003553+0000000000+Z
204100001204100027-000090     204100006001023588265WINDOW-CLEANER LONG-HND0000001000+00002630+00000+0001T   00002630+0000001211          1400 GM6212               2BZ
204100002204100080-000133     204100006003000535613CARD&ENV MINI ASTD DSGN0000001000+00000437+00000+0001T   00000437+0000001211          1400 GM6112               2BZ
204100003204100112-116069     204100006009681820277TCS CARRIER BAG JUMBO  0000001000+00000048+00000+0001T   00000048+0000001211          1400 GM6090               2BZ
204101000204101               204101               170213RA     1400+00000+RA0000023711+0000023711+000000000+000003325+0000027036+0000000000+I40000027036+0000000000+Z
204101001204101304-001011     204101006001023806727FLWR ROSE RED W/BEAR   0000001000+00000613+00000+0001T   00000788+0006471237          1400 GM6510               2BZ
204101002204101071-001241     204101006003000244270NOVELTY ERASER ASSTD   0000002000+00000525+00000+0001T   00000525+0000001237          1400 GM6130               2BZ
204101003204101903-000200     204101006009826020234SWT CHOC RP CHOCO 23G  0000003000+00000788+00000+0001T   00000788+0000001237          1400 GM6150               2BZ
204101004204101018-005009     204101006001023725608MUG W/PLUSH-BEAR LOVE  0000003000+00003507+00000+0001T   00003507+0000001237          1400 GM6515               2BZ
204101005204101903-000200     204101006009826020234SWT CHOC RP CHOCO 23G  0000001000+00000788+00000+0001T   00000788+0000001237          1400 GM6150               2BZ
204101006204101080-000127     204101006003000424351VALENTINES DAY 36x24CM 0000001000+00002192+00000+0001T   00002192+0000001237          1400 GM6112               2BZ
204101007204101112-116069     204101006009681820277TCS CARRIER BAG JUMBO  0000001000+00000048+00000+0001T   00000048+0000001237          1400 GM6090               2BZ
204101008204101077-000314     204101006003000181148GIFT-BAG 11X14CM MATT  0000003000+00000876+00000+0001T   00000876+0000001237          1400 GM6112               2BZ
204101009204101018-005009     204101006001023725608MUG W/PLUSH-BEAR LOVE  0000001000+00003507+00000+0001T   00003507+0000001237          1400 GM6515               2BZ
204102000204102               204102               170213RA     1400+00000+RA0000002630+0000002630+000000000+000000369+0000002990+0000000009+I20000000000+0000002990+Z
204102001204102251-000003     204102006003000266159TAPE D/S 18x300mm V/PCK0000001000+00002630+00000+0001T   00002630+0000001305          1400 GM6810               2BZ
204103000204103               204103               170213RA     1400+00000+RA0000008769+0000008769+000000000+000001229+0000009990+0000000008+I20000000000+0000009990+Z
204103001204103035-000002     204103006002596010542UMBRELLA LADIES PRINTED0000001000+00006139+00000+0001T   00006139+0000001324          1400 GM6205               2BZ
204103002204103083-000058     204103006003000400331LIGHTER JET CIGAR REFIL0000001000+00002630+00000+0001T   00002630+0000001324          1400 GM6315               2BZ
204104000204104               204104               170213RA     1400+00000+RA0000000876+0000000876+000000000+000000123+0000000990+0000000009+I20000000000+0000000990+Z
204104001204104007-000045     204104006009608640438DISPLAY-POCKETS A4 10PC0000001000+00000876+00000+0001T   00000876+0000001330          1400 GM6130               2BZ
204105000204105               204105               170213RA     1400+00000+RA0000001139+0000001139+000000000+000000160+0000001290+0000000009+I20000000000+0000001290+Z
204105001204105466-000517     204105006001023752017BALL TENNIS RED CRICKET0000001000+00001139+00000+0001T   00001139+0000001340          1400 GM6785               2BZ
204106000204106               204106               170213RA     1400+00000+RA0000001490+0000001490+000000000+000000209+0000001690+0000000009+I20000000000+0000001690+Z
204106001204106077-000299     204106006003000395576G/BAG 32x25cm LRG LOVE 0000001000+00001490+00000+0001T   00001490+0000001342          1400 GM6112               2BZ
204107000204107               204107               170213RA     1400+00000+RA0000002630+0000002630+000000000+000000369+0000002999+0000000000+I40000002999+0000000000+Z
204107001204107071-000009     204107006003000098194STATIONERY SET 11 PIECE0000001000+00002630+00000+0001T   00002630+0000001413          1400 GM6130               2BZ
204108000204108               204108               170213RA     1400+00000+RA0000001801+0000001801+000000000+000000253+0000002050+0000000004+I20000000000+0000002050+Z
204108001204108077-000289     204108006001023901996GIFT BOX 20x25x11cm    0000001000+00001753+00000+0001T   00001753+0000001456          1400 GM6112               2BZ
204108002204108112-116069     204108006009681820277TCS CARRIER BAG JUMBO  0000001000+00000048+00000+0001T   00000048+0000001456          1400 GM6090               2BZ
204109000204109               204109               170213RA     1400+00000+RA0000006884+0000006884+000000000+000000966+0000007850+0000000000+I20000000000+0000007850+Z
204109001204109080-000133-A   204109006003000647019MINI VALENTINES CARD   0000001000+00000437+00000+0001T   00000437+0000001631          1400 GM6112               2BZ
204109002204109304-001204     204109006001023737984FLOWER OCC. TEDDY/ROSES0000001000+00001402+00000+0001T   00001490+0006471631          1400 GM6510               2BZ
204109003204109077-000299     204109006003000395576G/BAG 32x25cm LRG LOVE 0000001000+00001490+00000+0001T   00001490+0000001631          1400 GM6112               2BZ
204109004204109018-005009     204109006001023725608MUG W/PLUSH-BEAR LOVE  0000001000+00003507+00000+0001T   00003507+0000001631          1400 GM6515               2BZ
204109005204109112-116069     204109006009681820277TCS CARRIER BAG JUMBO  0000001000+00000048+00000+0001T   00000048+0000001631          1400 GM6090               2BZ
204110000204110               204110               170213RA     1400+00000+RA0000002716+0000002716+000000000+000000381+0000003090+0000000007+I20000000000+0000003090+Z
204110001204110304-001011     204110006001023806727FLWR ROSE RED W/BEAR   0000002000+00000613+00000+0001T   00000788+0006471648          1400 GM6510               2BZ
204110002204110077-000299     204110006003000395576G/BAG 32x25cm LRG LOVE 0000001000+00001490+00000+0001T   00001490+0000001648          1400 GM6112               2BZ
204111000204111               204111               170213RA     1400+00000+RA0000001490+0000001490+000000000+000000209+0000001690+0000000009+I20000000000+0000001690+Z
204111001204111077-000299     204111006003000395576G/BAG 32x25cm LRG LOVE 0000001000+00001490+00000+0001T   00001490+0000001649          1400 GM6112               2BZ
204112000204112               204112               170213RA     1400+00000+RA0000002804+0000002804+000000000+000000394+0000003190+0000000008+I20000000000+0000003190+Z
204112001204112304-001204     204112006001023737984FLOWER OCC. TEDDY/ROSES0000002000+00001402+00000+0001T   00001490+0006471653          1400 GM6510               2BZ
204113000204113               204113               170213RA     1400+00000+RA0000001402+0000001402+000000000+000000197+0000001590+0000000009+I20000000000+0000001590+Z
204113001204113304-001204     204113006001023737984FLOWER OCC. TEDDY/ROSES0000001000+00001402+00000+0001T   00001490+0006471653          1400 GM6510               2BZ
204114000204114               204114               170213RA     1400+00000+RA0000000613+0000000613+000000000+000000086+0000000690+0000000009+I20000000000+0000000690+Z
204114001204114304-001011     204114006001023806727FLWR ROSE RED W/BEAR   0000001000+00000613+00000+0001T   00000788+0006471657          1400 GM6510               2BZ
204115000204115               204115               170213RA     1400+00000+RA0000002630+0000002630+000000000+000000369+0000002990+0000000009+I20000000000+0000002990+Z
204115001204115567-014134     204115006003000560189BOOK COLOURING 96 PAGE 0000001000+00002630+00000+0001T   00002630+0000001707          1400 GM6757               2BZ
204116000204116               204116               170213RA     1400+00000+RA0000003507+0000003507+000000000+000000491+0000003990+0000000008+I20000000000+0000003990+Z
204116001204116018-000136     204116006001023659026MUG OCC LOVE W/PLUSH   0000001000+00003507+00000+0001T   00003507+0000001722          1400 GM6515               2BZ
204117000204117               204117               170213RA     1400+00000+RA0000000035+0000000035+000000000+000000005+0000000040+0000000000+I20000000000+0000000040+Z
204117001204117112-116038     204117006009681820246TCS CARRIER BAG MIDI   0000001000+00000035+00000+0001T   00000035+0000001723          1400 GM6090               2BZ
204118000204118               204118               170213RA     1400+00000+RA0000001139+0000001139+000000000+000000160+0000001290+0000000009+I20000000000+0000001290+Z
204118001204118039-000322     204118006001023524157B/CANDLES W/HOLDERS 24 0000001000+00001139+00000+0001T   00001139+0000001733          1400 GM6510               2BZ
204119000204119               204119               170213RA     1400+00000+RA0000002278+0000002278+000000000+000000320+0000002590+0000000008+I20000000000+0000002590+Z
204119001204119077-000299     204119006003000395576G/BAG 32x25cm LRG LOVE 0000001000+00001490+00000+0001T   00001490+0000001748          1400 GM6112               2BZ
204119002204119903-000890     204119006009702259000SWT BEECHIES S/BERRY   0000001000+00000788+00000+0001T   00000788+0000001748          1400 GM6150               2BZ
204120000204120               204120               170213RA     1400+00000+RA0000004433+0000004433+000000000+000000621+0000005050+0000000004+I20000000000+0000005050+Z
204120001204120079-000261     204120006003000159727PAINT WATER COLOUR CAKE0000001000+00004385+00000+0001T   00004385+0000001750          1400 GM6130               2BZ
204120002204120112-116069     204120006009681820277TCS CARRIER BAG JUMBO  0000001000+00000048+00000+0001T   00000048+0000001750          1400 GM6090               2BZ
204121000204121               204121               170213RA     1400+00000+RA0000003507+0000003507+000000000+000000491+0000003990+0000000008+I20000000000+0000003990+Z
204121001204121018-005009     204121006001023725608MUG W/PLUSH-BEAR LOVE  0000001000+00003507+00000+0001T   00003507+0000001800          1400 GM6515               2BZ
204122000204122               204122               170213RA     1400+00000+RA0000001578+0000001578+000000000+000000221+0000001790+0000000009+I20000000000+0000001790+Z
204122001204122077-000303     204122006001023593757GIFT-BAG PAPER MED     0000001000+00001578+00000+0001T   00001578+0000001802          1400 GM6112               2BZ
204123000204123               204123               170213RA     1400+00000+RA0000014909+0000014909+000000000+000002089+0000016990+0000000008+I20000000000+0000016990+Z
204123001204123077-000270     204123006003000395453GIFT-BAG PPR JMB 33X45 0000001000+00002630+00000+0001T   00002630+0000001804          1400 GM6112               2BZ
204123002204123368-000113     204123006001023780874PLUSH BLINGED LOVE 30cm0000001000+00012279+00000+0001T   00012279+0000001804          1400 GM6745               2BZ
204124000204124               204124               170213RA     1400+00000+RA0000002630+0000002630+000000000+000000369+0000002990+0000000009+I20000000000+0000002990+Z
204124001204124079-000282     204124006001023493309PAINT TUBS POSTER 12COL0000001000+00002630+00000+0001T   00002630+0000001809          1400 GM6130               2BZ
M17021301                              IT          RATO IT                                                                                           LAST TILL SLIP :204124                                                                          REGARDS                                                                                         RA
M17021302                              TO SHIEHAAM RATO SHIEHAAM                                                                                     Z-READING : R1293.76                            CASH      ; R907.90                             CR CARDS  : R385.86                                                                             REGARDS                                                                                         RA
M17021391                              CASH        RASLAVE 2                       Z-REPORT No.   120TOTAL (Sales - Refunds)           1293.76       CASH TO BE BANKED                  907.90       DEBIT CARDS                          0.00       CREDIT CARDS                       385.86       Z-READING                         1293.76       AIRTIME DEBIT CARD SALES             0.00       AIRTIME CARD SALES                   0.00       OVERS/UNDERS                         0.00       AIRTIME CASH SALES                   0.00       GIFT CARDS                           0.00       GIFT CARD CASH SALES                 0.00       T O T A L  CASH PAYOUTS              0.00                                                                                                                                                                                                                                                                                                                                                      Z
M17021392                              CASH        RAABSENT                                                                                                                                                                                          ANNUAL LEAVE                                                                                                                                                                                    DAY OFF                                                                                                                                                                                         COMMENTS                                                                                                                                                                                                                                                                                                                                                                                       Z
Y17021300                                          RA00000000113651+000032
ZRA17021321143 SLAVE 2      SALES DATA                     NEXT INVOICE NO.  204125 0120
X RA Slave 2 First invoice 204093 170213 Last invoice 204124 170213 Next invoice 204125 Total number of records 000000093 clbackup completed 21:14:53
