ZS117021408072 SLAVE 1      NO SALES DATA                  NEXT INVOICE NO.  110002 0075
F090307110-000010         1610171249200000011ICSLAVE 1
F090310110-000010         1610171251250000011ICSLAVE 1
F090310110-000011         1610171251250000011ICSLAVE 1
F090597110-000010         1610261418340000011ICSLAVE 1
F090597110-000011         1610261418340000011ICSLAVE 1
F094778110-000010         1702080813230000011ICSLAVE 1
F094778110-000011         1702080813230000011ICSLAVE 1
X S1 Slave 1 First invoice 000000 000000 Last invoice 000000 000000 Next invoice 110002 Total number of records 000000008 clbackup completed 08:07:44
