319202000319202               319202               170213SB     1500+00000+SB0000015377+0000015377+000000000+000002312+0000017689+0000000000+I40000017689+0000000000+Z
319202001319202903-002850     319202000000087108262MENTOS ROLL FRUIT      0000001000+00001129+00000+0001T   00001129+0000000945          1500 J13150               1 Z
319202002319202903-002853     319202000000087108019MENTOS ROLL MINT       0000002000+00001129+00000+0001T   00001129+0000000945          1500 J13150               1 Z
319202003319202903-002850     319202000000087108262MENTOS ROLL FRUIT      0000001000+00001129+00000+0001T   00001129+0000000945          1500 J13150               1 Z
319202004319202903-000517     319202006001704012768SWT STRAWS FIZZY CHERRY0000001000+00001303+00000+0001T   00001303+0000000945          1500 J13150               1 Z
319202005319202903-000482     319202006001704001397SWT SOFT-MINTS 60G     0000001000+00000955+00000+0001T   00000955+0000000945          1500 J13150               1 Z
319202006319202903-000518     319202006001704012782SWT STRAWS S/BERRY 100g0000001000+00001303+00000+0001T   00001303+0000000945          1500 J13150               1 Z
319202007319202089-000504     319202006001023701886KEY-CHAIN SNAP-HOOK    0000002000+00001912+00000+0001T   00001912+0000000945          1500 J13205               1 Z
319202008319202077-000299     319202006003000395576G/BAG 32x25cm LRG LOVE 0000001000+00001564+00000+0001T   00001564+0000000945          1500 J13112               1 Z
319202009319202903-000080     319202006001704014052SWT TUBE RASCALS 125G  0000001000+00001912+00000+0001T   00001912+0000000945          1500 J13150               1 Z
319203000319203               319203               170213SB     1500+00000+SB0000001910+0000001910+000000000+000000288+0000002190+0000000008+I20000000000+0000002190+Z
319203001319203077-000314     319203006003000181148GIFT-BAG 11X14CM MATT  0000002000+00000955+00000+0001T   00000955+0000000948          1500 J13112               1 Z
319204000319204               319204               170213SB     1500+00000+SB0000000955+0000000955+000000000+000000144+0000001090+0000000009+I20000000000+0000001090+Z
319204001319204033-005930     319204006001023678423PINS STRAIGHT 20g  CARD0000001000+00000955+00000+0001T   00000955+0000000949          1500 J13200               1 Z
319205000319205               319205               170213SB     1500+00000+SB0000004865+0000004865+000000000+000000730+0000005590+0000000005+I20000000000+0000005590+Z
319205001319205036-000013     319205006001246500860LINT REMOVER REFILLS   0000001000+00003999+00000+0001T   00003999+0000001011          1500 J13212               1 Z
319205002319205903-000183     319205006003000451043SWT LB HEART LOLLY     0000002000+00000433+00000+0001T   00000433+0000001011          1500 J13150               1 Z
319206000319206               319206               170213SB     1500+00000+SB0000002346+0000002346+000000000+000000352+0000002690+0000000008+I20000000000+0000002690+Z
319206001319206077-000926     319206006003000414178G/WRAP 700mmx2m LOVE   0000001000+00002346+00000+0001T   00002346+0000001011          1500 J13112               1 Z
319207000319207               319207               170213SB     1500+00000+SB0000006258+0000006258+000000000+000000939+0000007190+0000000007+I20000000000+0000007190+Z
319207001319207006-000190     319207006003000685530BALLOONS LOVE 81x91cm  0000001000+00004346+00000+0001T   00004607+0006481012          1500 J13131               1 Z
319207002319207039-001023     319207006003000466337CANDLE TEA-LITE METALIC0000001000+00001912+00000+0001T   00001912+0000001012          1500 J13510               1 Z
319208000319208               319208               170213SB     1500+00000+SB0000011514+0000011514+000000000+000001729+0000013240+0000000003+I20000000000+0000013240+Z
319208001319208018-000177     319208006001023797513MUG MINI LOVE ASSTD    0000001000+00000738+00000+0001T   00000738+0000001014          1500 J13515               1 Z
319208002319208018-000170     319208006001023775528MUG OCC. LOVE 2PC MINI 0000001000+00002346+00000+0001T   00002346+0000001014          1500 J13515               1 Z
319208003319208089-060027     319208006003000245871KEY-CHAIN HEART 6X6cm  0000001000+00003303+00000+0001T   00003303+0000001014          1500 J13205               1 Z
319208004319208018-000129     319208006001023403353MUG OCC. LOVE V-SHAPE  0000001000+00002781+00000+0001T   00002781+0000001014          1500 J13515               1 Z
319208005319208018-000170     319208006001023775528MUG OCC. LOVE 2PC MINI 0000001000+00002346+00000+0001T   00002346+0000001014          1500 J13515               1 Z
319209000319209               319209               170213SB     1500+00000+SB0000004345+0000004345+000000000+000000653+0000004990+0000000008+I20000000000+0000004990+Z
319209001319209200-000305     319209006003000622467FOOD OVEN ROASTING BAGS0000001000+00001738+00000+0001T   00002781+0008281014          1500 J13214               1 Z
319209002319209108-009000     319209006003000638673JELLY MOULD WITH LID PL0000001000+00002607+00000+0001T   00003738+0008281014          1500 J13210               1 Z
319210000319210               319210               170213SB     1500+00000+SB0000005041+0000005041+000000000+000000757+0000005790+0000000008+I20000000000+0000005790+Z
319210001319210027-009025     319210006003962000747DUSTPAN-SET PL         0000001000+00002781+00000+0001T   00002781+0000001015          1500 J13212               1 Z
319210002319210024-000033     319210006003000420278MEASURING JUG 1L H/H   0000001000+00002260+00000+0001T   00002260+0000001015          1500 J13300               1 Z
319211000319211               319211               170213SB     1500+00000+SB0000006346+0000006346+000000000+000000952+0000007290+0000000008+I20000000000+0000007290+Z
319211001319211018-055100     319211006003000524136TEAPOT PL W/STRAINER   0000001000+00006346+00000+0001T   00006346+0000001016          1500 J13515               1 Z
319212000319212               319212               170213SB     1500+00000+SB0000005129+0000005129+000000000+000000770+0000005890+0000000009+I20000000000+0000005890+Z
319212001319212301-085001     319212006003000297610ORN WATERBALL LOVE ASST0000001000+00005129+00000+0001T   00005129+0000001040          1500 J13505               1 Z
319213000319213               319213               170213SB     1500+00000+SB0000012431+0000012431+000000000+000001866+0000014290+0000000007+I20000000000+0000014290+Z
319213001319213403-000050     319213006003000034956ORN JEWELERY DOLL 30cm 0000001000+00006955+00000+0001T   00007216+0008091043          1500 J13510               1 Z
319213002319213565-004101     319213006003000548033BALL BOUNCING EGG      0000001000+00001564+00000+0001T   00001564+0000001043          1500 J13745               1 Z
319213003319213174-000172     319213006003000519279STORAGE BOX NON-WOVEN  0000001000+00003912+00000+0001T   00005477+0008281043          1500 J13205               1 Z
319214000319214               319214               170213SB     1500+00000+SB0000001390+0000001390+000000000+000000209+0000001590+0000000009+I20000000000+0000001590+Z
319214001319214304-001204     319214006001023737984FLOWER OCC. TEDDY/ROSES0000001000+00001390+00000+0001T   00001564+0006481046          1500 J13510               1 Z
319215000319215               319215               170213SB     1500+00000+SB0000000607+0000000607+000000000+000000092+0000000690+0000000009+I20000000000+0000000690+Z
319215001319215304-001011     319215006001023806727FLWR ROSE RED W/BEAR   0000001000+00000607+00000+0001T   00000825+0006481046          1500 J13510               1 Z
319216000319216               319216               170213SB     1500+00000+SB0000004775+0000004775+000000000+000000720+0000005490+0000000005+I20000000000+0000005490+Z
319216001319216077-000010-C   319216006001023123879CREPE-PAPER RED        0000004000+00000868+00000+0001T   00000868+0000001053          1500 J13112               1 Z
319216002319216077-000245     319216006001023759214GIFT-RIBBON METALLICx2 0000001000+00001303+00000+0001T   00001303+0000001053          1500 J13112               1 Z
319217000319217               319217               170213SB     1500+00000+SB0000012080+0000012080+000000000+000001814+0000013890+0000000004+I20000000000+0000013890+Z
319217001319217563-000318-L   319217006003000407088SERVIETTES 33cm RED    0000001000+00002346+00000+0001T   00002346+0000001054          1500 J13214               1 Z
319217002319217103-000030     319217006003000510085BASKET WOVE ROUND 17X170000002000+00001738+00000+0001T   00002260+0008271054          1500 J13300               1 Z
319217003319217103-000088     319217006001023795625BAMBOO BASKET  W/HNDLES0000002000+00003129+00000+0001T   00003129+0000001054          1500 J13300               1 Z
319218000319218               319218               170213SB     1500+00000+SB0000001042+0000001042+000000000+000000157+0000001190+0000000009+I20000000000+0000001190+Z
319218001319218903-004963     319218008410525221873SWT GUMMY SOUR COLA 50g0000001000+00001042+00000+0001T   00001042+0000001054          1500 J13150               1 Z
319219000319219               319219               170213SB     1500+00000+SB0000016513+0000016513+000000000+000002480+0000018990+0000000003+I20000000000+0000018990+Z
319219001319219251-000001     319219006001023487681TAPE DBL-SIDE 18x1000mm0000001000+00001390+00000+0001T   00001390+0000001101          1500 J13810               1 Z
319219002319219024-000034     319219006001023495235MEASURING-JUG 1-CUP    0000001000+00001651+00000+0001T   00001651+0000001101          1500 J13300               1 Z
319219003319219200-000022     319219006003000399291BAG SLIDE LOCK 15PC    0000001000+00002781+00000+0001T   00002781+0000001101          1500 J13214               1 Z
319219004319219078-000025     319219008887013700064SUPERGLUE 3g 1PCE CARD 0000001000+00000955+00000+0001T   00000955+0000001101          1500 J13810               1 Z
319219005319219200-000025-A   319219006925406841054BAG ZIPPERSEAL 15PC    0000001000+00002346+00000+0001T   00002346+0000001101          1500 J13214               1 Z
319219006319219107-004500     319219006003000150557STEP STOOL PL          0000001000+00007390+00000+0001T   00007390+0000001101          1500 J13210               1 Z
319220000319220               319220               170213SB     1500+00000+SB0000002260+0000002260+000000000+000000339+0000002590+0000000009+I20000000000+0000002590+Z
319220001319220024-000033     319220006003000420278MEASURING JUG 1L H/H   0000001000+00002260+00000+0001T   00002260+0000001119          1500 J13300               1 Z
319221000319221               319221               170213SB     1500+00000+SB0000001912+0000001912+000000000+000000287+0000002190+0000000009+I20000000000+0000002190+Z
319221001319221200-003026     319221006003000276448REFUSE BAGS 10PCE GREEN0000001000+00001912+00000+0001T   00001912+0000001134          1500 J13214               1 Z
319222000319222               319222               170213SB     1500+00000+SB0000006685+0000006685+000000000+000001008+0000007690+0000000003+I20000000000+0000007690+Z
319222001319222077-000151     319222006008766114676GIFT-WRAP C/PHANE ASSTD0000007000+00000955+00000+0001T   00000955+0000001136          1500 J13112               1 Z
319223000319223               319223               170213SB     1500+00000+SB0000000651+0000000651+000000000+000000098+0000000740+0000000009+I20000000000+0000000740+Z
319223001319223027-078282     319223006001023767837SCOURER 25g SPIRAL-BALL0000001000+00000651+00000+0001T   00000651+0000001141          1500 J13212               1 Z
319224000319224               319224               170213SB     1500+00000+SB0000000651+0000000651+000000000+000000098+0000000740+0000000009+I20000000000+0000000740+Z
319224001319224027-078282     319224006001023767837SCOURER 25g SPIRAL-BALL0000001000+00000651+00000+0001T   00000651+0000001142          1500 J13212               1 Z
319225000319225               319225               170213SB     1500+00000+SB0000009735+0000009735+000000000+000001462+0000011190+0000000007+I20000000000+0000011190+Z
319225001319225301-085004     319225006003000420469ORN LOVE PLAQUE 21X10CM0000001000+00003477+00000+0001T   00003999+0006481147          1500 J13505               1 Z
319225002319225077-000315     319225006003000181186GIFT-BAG 20x28cm MATT  0000001000+00001651+00000+0001T   00001651+0000001147          1500 J13112               1 Z
319225003319225018-030000     319225006003000421060MUG OCCASIONS LOVE 2PCE0000001000+00004607+00000+0001T   00004607+0000001147          1500 J13515               1 Z
319226000319226               319226               170213SB     1500+00000+SB0000028731+0000028731+000000000+000004312+0000033043+0000000000+I40000033043+0000000000+Z
319226001319226019-000080     319226006001023775740VASE GLS FLORIST BALL  0000002000+00009564+00000+0001T   00009564+0000001151          1500 J13510               1 Z
319226002319226006-000803     319226006003000653676STREAMERS SET 3ROLLS   0000001000+00002781+00000+0001T   00002781+0000001151          1500 J13131               1 Z
319226003319226903-000155     319226006009803374435SWT LOLLY I LUV U HEART0000001000+00000564+00000+0001T   00000564+0000001151          1500 J13150               1 Z
319226004319226368-000049     319226006003000536955PLUSH BEAR 15cm LOVE   0000001000+00004346+00000+0001T   00004607+0006481151          1500 J13745               1 Z
319226005319226200-000080     319226005024418420439ICE-CUBE-MAKER 336PCE  0000001000+00001912+00000+0001T   00001912+0000001151          1500 J13214               1 Z
319227000319227               319227               170213SB     1500+00000+SB0000004692+0000004692+000000000+000000704+0000005390+0000000006+I20000000000+0000005390+Z
319227001319227567-010394     319227006002242053459GENERIC AFRIKAANS READE0000001000+00002346+00000+0001T   00002346+0000001152          1500 J137572IC            1 Z
319227002319227567-010392     319227006002242053435GENERIC AFRIKAANS READE0000001000+00002346+00000+0001T   00002346+0000001152          1500 J13757               1 Z
319228000319228               319228               170213SB     1500+00000+SB0000004171+0000004171+000000000+000000627+0000004790+0000000008+I20000000000+0000004790+Z
319228001319228007-000209     319228006001023582102NOTE STICKY FILE MARKER0000001000+00001390+00000+0001T   00001390+0000001153          1500 J13130               1 Z
319228002319228033-001500     319228006003000575763BRA CLIPS 10-PACK      0000001000+00002781+00000+0001T   00002781+0000001153          1500 J13200               1 Z
319229000319229               319229               170213SB     1500+00000+SB0000004779+0000004779+000000000+000000718+0000005490+0000000007+I20000000000+0000005490+Z
319229001319229306-000024-A   319229006003000577309COTTON-WOOL-PADS 80PC  0000001000+00001912+00000+0001T   00001912+0000001322          1500 J13200               1 Z
319229002319229018-000210     319229006003000580095MUG DAILY TEXTS 4-ASST 0000001000+00001912+00000+0001T   00001912+0000001322          1500 J13515               1 Z
319229003319229071-005213     319229006001023690371CELLOTAPE 12mmx33m     0000001000+00000955+00000+0001T   00000955+0000001322          1500 J13130               1 Z
319230000319230               319230               170213SB     1500+00000+SB0000004258+0000004258+000000000+000000639+0000004890+0000000007+I20000000000+0000004890+Z
319230001319230077-000926     319230006003000414178G/WRAP 700mmx2m LOVE   0000001000+00002346+00000+0001T   00002346+0000001342          1500 J13112               1 Z
319230002319230080-000113     319230006003000237449CARD&ENVLPE - LOVE     0000001000+00001912+00000+0001T   00001912+0000001342          1500 J13112               1 Z
319231000319231               319231               170213SB     1500+00000+SB0000004168+0000004168+000000000+000000628+0000004790+0000000006+I20000000000+0000004790+Z
319231001319231007-000204     319231006009635835272EXAM-PAD 60SHT PUNCHED 0000004000+00001042+00000+0001T   00001042+0000001344          1500 J13130               1 Z
319232000319232               319232               170213SB     1500+00000+SB0000007735+0000007735+000000000+000001162+0000008890+0000000007+I20000000000+0000008890+Z
319232001319232903-000087     319232006001704000161SWT SPECKLED-EGGS 50G  0000001000+00001216+00000+0001T   00001216+0000001345          1500 J13150               1 Z
319232002319232007-000653     319232006001023784469NOTE-BOOK SET+PEN+BAG  0000001000+00004607+00000+0001T   00004607+0000001345          1500 J13130               1 Z
319232003319232077-000472     319232006003000330133G-BAG DESGNR LRG 25X32 0000001000+00001912+00000+0001T   00001912+0000001345          1500 J13112               1 Z
319233000319233               319233               170213SB     1500+00000+SB0000015904+0000015904+000000000+000002387+0000018291+0000000000+I40000018291+0000000000+Z
319233001319233565-000080     319233006003000643424NOVELTY BENDY          0000003000+00002260+00000+0001T   00002260+0000001347          1500 J13745               1 Z
319233002319233077-000311     319233006001023608666GIFT-BAG 11X14CM GLOSS 0000004000+00000651+00000+0001T   00000651+0000001347          1500 J13112               1 Z
319233003319233266-001002     319233006001023914163PLAYSET SWORD & WEAPON 0000001000+00006520+00000+0001T   00006520+0000001347          1500 J13710               1 Z
319234000319234               319234               170213SB     1500+00000+SB0000015216+0000015216+000000000+000002283+0000017490+0000000009+I20000000000+0000017490+Z
319234001319234140-092000     319234006001023819130MOSQ-NET 1250x250x65cm 0000001000+00015216+00000+0001T   00015216+0000001348          1500 J13830               1 Z
319235000319235               319235               170213SB     1500+00000+SB0000007214+0000007214+000000000+000001083+0000008297+0000000000+I40000008297+0000000000+Z
319235001319235077-000299     319235006003000395576G/BAG 32x25cm LRG LOVE 0000001000+00001564+00000+0001T   00001564+0000001405          1500 J13112               1 Z
319235002319235034-078800     319235006001023856555COOEY WET-WIPES 60PCE  0000001000+00001912+00000+0001T   00001912+0000001405          1500 J13215               1 Z
319235003319235369-000035     319235006001023795885EDU STACKING-SET ASSTD 0000001000+00003738+00000+0001T   00003738+0000001405          1500 J13745               1 Z
319236000319236               319236               170213SB     1500+00000+SB0000005389+0000005389+000000000+000000809+0000006190+0000000008+I20000000000+0000006190+Z
319236001319236077-000303     319236006001023593757GIFT-BAG PAPER MED     0000001000+00001651+00000+0001T   00001651+0000001412          1500 J13112               1 Z
319236002319236018-005009     319236006001023725608MUG W/PLUSH-BEAR LOVE  0000001000+00003738+00000+0001T   00003738+0000001412          1500 J13515               1 Z
319237000319237               319237               170213SB     1500+00000+SB0000015216+0000015216+000000000+000002283+0000017490+0000000009+I20000000000+0000017490+Z
319237001319237361-000685     319237006003000397211DOLL BABY 25cm & ACCESS0000001000+00015216+00000+0001T   00015216+0000001412          1500 J13725               1 Z
319238000319238               319238               170213SB     1500+00000+SB0000009205+0000009205+000000000+000001386+0000010591+0000000000+I40000010591+0000000000+Z
319238001319238903-002850     319238000000087108262MENTOS ROLL FRUIT      0000002000+00001129+00000+0001T   00001129+0000001415          1500 J13150               1 Z
319238002319238903-005000     319238006002580020007SWT CT MALLOW FISH 120g0000002000+00001390+00000+0001T   00001390+0000001415          1500 J13150               1 Z
319238003319238903-002892     319238008935001721338MENTOS JUICEBLAST BERRY0000001000+00001129+00000+0001T   00001129+0000001415          1500 J13150               1 Z
319238004319238903-000885     319238008690997017147SWT L/BIRD CHOC BISCUIT0000002000+00000477+00000+0001T   00000477+0000001415          1500 J13150               1 Z
319238005319238903-000843     319238008693029031067SWT GUMMY JELAXY 80G   0000002000+00001042+00000+0001T   00001042+0000001415          1500 J13150               1 Z
319239000319239               319239               170213SB     1500+00000+SB0000003042+0000003042+000000000+000000457+0000003490+0000000009+I20000000000+0000003490+Z
319239001319239038-092233     319239006003000328925TABLE-MAT N/SLIP ASST  0000001000+00003042+00000+0001T   00003738+0008301415          1500 J13300               1 Z
319240000319240               319240               170213SB     1500+00000+SB0000012336+0000012336+000000000+000001854+0000014190+0000000000+I20000000000+0000014190+Z
319240001319240368-000049     319240006003000536955PLUSH BEAR 15cm LOVE   0000001000+00004346+00000+0001T   00004607+0006481446          1500 J13745               1 Z
319240002319240304-001011     319240006001023806727FLWR ROSE RED W/BEAR   0000002000+00000607+00000+0001T   00000825+0006481446          1500 J13510               1 Z
319240003319240077-000311     319240006001023608666GIFT-BAG 11X14CM GLOSS 0000002000+00000651+00000+0001T   00000651+0000001446          1500 J13112               1 Z
319240004319240368-000049     319240006003000536955PLUSH BEAR 15cm LOVE   0000001000+00004346+00000+0001T   00004607+0006481446          1500 J13745               1 Z
319240005319240903-000155     319240006009803374435SWT LOLLY I LUV U HEART0000002000+00000564+00000+0001T   00000564+0000001446          1500 J13150               1 Z
319241000319241               319241               170213SB     1500+00000+SB0000000346+0000000346+000000000+000000052+0000000390+0000000008+I20000000000+0000000390+Z
319241001319241079-009700-E   319241006003000545797PAPER SIRIO A4 GREY    0000001000+00000346+00000+0001T   00000346+0000001448          1500 J13130               1 Z
319242000319242               319242               170213SB     1500+00000+SB0000004467+0000004467+000000000+000000674+0000005140+0000000001+I20000000000+0000005140+Z
319242001319242079-009700-E   319242006003000545797PAPER SIRIO A4 GREY    0000001000+00000346+00000+0001T   00000346+0000001450          1500 J13130               1 Z
319242002319242903-000151     319242006009803374411SWT SML RND R/BOW LOLLY0000001000+00000564+00000+0001T   00000564+0000001450          1500 J13150               1 Z
319242003319242903-000077     319242006939873501687SWT GS MAGIC ROCK FRUIT0000001000+00000564+00000+0001T   00000564+0000001450          1500 J13150               1 Z
319242004319242077-000010-C   319242006001023123879CREPE-PAPER RED        0000001000+00000868+00000+0001T   00000868+0000001450          1500 J13112               1 Z
319242005319242903-000295     319242006001704002899SWT MS FRUITY RASCALS  0000001000+00000955+00000+0001T   00000955+0000001450          1500 J13150               1 Z
319242006319242903-000159     319242006003000417629SWT LB SMALL DUMMIE    0000003000+00000390+00000+0001T   00000390+0000001450          1500 J13150               1 Z
319243000319243               319243               170213SB     1500+00000+SB0000004692+0000004692+000000000+000000704+0000005396+0000000000+I40000005396+0000000000+Z
319243001319243077-000926     319243006003000414178G/WRAP 700mmx2m LOVE   0000002000+00002346+00000+0001T   00002346+0000001459          1500 J13112               1 Z
319244000319244               319244               170213SB     1500+00000+SB0000024334+0000024334+000000000+000003653+0000027987+0000000000+I40000027987+0000000000+Z
319244001319244077-000010-D   319244006001023123886CREPE-PAPER WHITE      0000001000+00000868+00000+0001T   00000868+0000001502          1500 J13112               1 Z
319244002319244089-000030     319244006003000575671K/CHAIN LOVE MTL ASSTD 0000004000+00001912+00000+0001T   00001912+0000001502          1500 J13205               1 Z
319244003319244077-000310     319244006001023608635GIFT-BAG 18X23CM GLOSS 0000002000+00001390+00000+0001T   00001390+0000001502          1500 J13112               1 Z
319244004319244368-000049     319244006003000536955PLUSH BEAR 15cm LOVE   0000003000+00004346+00000+0001T   00004607+0006481502          1500 J13745               1 Z
319245000319245               319245               170213SB     1500+00000+SB0000001129+0000001129+000000000+000000170+0000001290+0000000009+I20000000000+0000001290+Z
319245001319245079-009702-A   319245008427973059408PAPER SIRIO A2 BLACK   0000001000+00001129+00000+0001T   00001129+0000001503          1500 J13130               1 Z
319246000319246               319246               170213SB     1500+00000+SB0000022146+0000022146+000000000+000003332+0000025470+0000000008+I20000000000+0000025470+Z
319246001319246077-000010-C   319246006001023123879CREPE-PAPER RED        0000012000+00000868+00000+0001T   00000868+0000001510          1500 J13112               1 Z
319246002319246563-000318-L   319246006003000407088SERVIETTES 33cm RED    0000005000+00002346+00000+0001T   00002346+0000001510          1500 J13214               1 Z
319247000319247               319247               170213SB     1500+00000+SB0000006345+0000006345+000000000+000000953+0000007290+0000000008+I20000000000+0000007290+Z
319247001319247024-000003     319247006001023462206S/BURNER COVERS ASSTD  0000001000+00004607+00000+0001T   00004607+0000001510          1500 J13300               1 Z
319247002319247012-000001     319247006003000331048MICRO PLATE-COVER 26X6 0000001000+00001738+00000+0001T   00002260+0008301510          1500 J13300               1 Z
319248000319248               319248               170213SB     1500+00000+SB0000055800+0000055800+000000000+000008373+0000064170+0000000003+I20000000000+0000064170+Z
319248001319248486-001001     319248006003000530854W/CLOCK QTZ 30cm ROUND 0000001000+00013303+00000+0001T   00013303+0000001515          1500 J13510               1 Z
319248002319248031-000868-A   319248006001023798534P/FRAME PL BLCK 10X15CM0000011000+00002346+00000+0001T   00002346+0000001515          1500 J13510               1 Z
319248003319248016-006508     319248006003000181537S/JAR GLASS 10X12CM    0000003000+00003738+00000+0001T   00003738+0000001515          1500 J13300               1 Z
319248004319248158-000167     319248006003000569588WASTEPAPER-BASKET 26cm 0000001000+00005477+00000+0001T   00005477+0000001515          1500 J13300               1 Z
319249000319249               319249               170213SB     1500+00000+SB0000005213+0000005213+000000000+000000784+0000005990+0000000007+I20000000000+0000005990+Z
319249001319249903-000087     319249006001704000161SWT SPECKLED-EGGS 50G  0000002000+00001216+00000+0001T   00001216+0000001516          1500 J13150               1 Z
319249002319249105-001300     319249006003000572618CONTAINER COLOUR RIM   0000001000+00002781+00000+0001T   00002781+0000001516          1500 J13210               1 Z
319250000319250               319250               170213SB     1500+00000+SB0000000692+0000000692+000000000+000000104+0000000790+0000000006+I20000000000+0000000790+Z
319250001319250079-009700-A   319250006003000547746PAPER SIRIO A4 BLACK   0000002000+00000346+00000+0001T   00000346+0000001519          1500 J13130               1 Z
319251000319251               319251               170213SB     1500+00000+SB0000009564+0000009564+000000000+000001435+0000010990+0000000009+I20000000000+0000010990+Z
319251001319251368-000012     319251006003000610464PLUSH BEAR 30cm SITTING0000001000+00009564+00000+0001T   00009564+0000001523          1500 J13745               1 Z
319252000319252               319252               170213SB     1500+00000+SB0000002865+0000002865+000000000+000000432+0000003290+0000000007+I20000000000+0000003290+Z
319252001319252077-000150-D   319252006003000054343GIFT-WRAP CELLPHANE CLR0000001000+00000955+00000+0001T   00000955+0000001526          1500 J13112               1 Z
319252002319252077-000151     319252006008766114676GIFT-WRAP C/PHANE ASSTD0000001000+00000955+00000+0001T   00000955+0000001526          1500 J13112               1 Z
319252003319252077-000150-D   319252006003000054343GIFT-WRAP CELLPHANE CLR0000001000+00000955+00000+0001T   00000955+0000001526          1500 J13112               1 Z
319253000319253               319253               170213SB     1500+00000+SB0000001564+0000001564+000000000+000000235+0000001790+0000000009+I20000000000+0000001790+Z
319253002319253077-000299     319253006003000395576G/BAG 32x25cm LRG LOVE 0000001000+00001564+00000+0001T   00001564+0000001530          1500 J13112               1 Z
319254000319254               319254               170213SB     1500+00000+SB0000001564+0000001564+000000000+000000235+0000001790+0000000009+I20000000000+0000001790+Z
319254001319254077-000299     319254006003000395576G/BAG 32x25cm LRG LOVE 0000001000+00001564+00000+0001T   00001564+0000001530          1500 J13112               1 Z
319255000319255               319255               170213SB     1500+00000+SB0000001564+0000001564+000000000+000000235+0000001790+0000000009+I20000000000+0000001790+Z
319255001319255077-000299     319255006003000395576G/BAG 32x25cm LRG LOVE 0000001000+00001564+00000+0001T   00001564+0000001531          1500 J13112               1 Z
319256000319256               319256               170213SB     1500+00000+SB0000010518+0000010518+000000000+000001579+0000012090+0000000007+I20000000000+0000012090+Z
319256001319256903-000087     319256006001704000161SWT SPECKLED-EGGS 50G  0000001000+00001216+00000+0001T   00001216+0000001548          1500 J13150               1 Z
319256002319256265-001659     319256006003000294527BOAT PL B/O            0000001000+00005564+00000+0001T   00005564+0000001548          1500 J13710               1 Z
319256003319256464-009010     319256006001023800756FISHING-GAME MAG +ROD  0000001000+00003738+00000+0001T   00003738+0000001548          1500 J13785               1 Z
319257000319257               319257               170213SB     1500+00000+SB0000001912+0000001912+000000000+000000287+0000002190+0000000009+I20000000000+0000002190+Z
319257001319257033-001399     319257006001023905512HAIR-PINS 100PCE       0000001000+00001912+00000+0001T   00001912+0000001552          1500 J13200               1 Z
319258000319258               319258               170213SB     1500+00000+SB0000022778+0000022778+000000000+000003417+0000026190+0000000005+I20000000000+0000026190+Z
319258001319258264-012328     319258000090159123286MAISTO DINKY 11cm      0000001000+00008346+00000+0001T   00008346+0000001553          1500 J13710               1 Z
319258002319258264-000933     319258000090159211037MAISTO CAR 1:33 SMART  0000001000+00008346+00000+0001T   00008346+0000001553          1500 J13710               1 Z
319258003319258264-000922     319258000090159250012MAISTO CAR PULL-BACK   0000001000+00006086+00000+0001T   00007216+0008301553          1500 J13710               1 Z
319259000319259               319259               170213SB     1500+00000+SB0000016951+0000016951+000000000+000002545+0000019490+0000000006+I20000000000+0000019490+Z
319259001319259368-000111     319259006001023780812PLUSH BEAR/DOG 29CM    0000001000+00012607+00000+0001T   00012607+0000001602          1500 J13745               1 Z
319259002319259304-001204     319259006001023737984FLOWER OCC. TEDDY/ROSES0000001000+00001390+00000+0001T   00001564+0006481602          1500 J13510               1 Z
319259003319259903-000843     319259008693029031067SWT GUMMY JELAXY 80G   0000001000+00001042+00000+0001T   00001042+0000001602          1500 J13150               1 Z
319259004319259077-000324     319259006001023677594GIFT-BAG 33X45CM E/D FL0000001000+00001912+00000+0001T   00001912+0000001602          1500 J13112               1 Z
319260000319260               319260               170213SB     1500+00000+SB0000006346+0000006346+000000000+000000952+0000007290+0000000008+I20000000000+0000007290+Z
319260001319260562-088356     319260006001023767219EVA MAT 27cm           0000001000+00006346+00000+0001T   00006346+0000001604          1500 J13755               1 Z
319261000319261               319261               170213SB     1500+00000+SB0000003303+0000003303+000000000+000000496+0000003790+0000000009+I20000000000+0000003790+Z
319261001319261032-000340     319261006003000295883MIRROR SUCTION PL MAGN 0000001000+00003303+00000+0001T   00003303+0000001605          1500 J13510               1 Z
319262000319262               319262               170213SB     1500+00000+SB0000012166+0000012166+000000000+000001827+0000013993+0000000000+I40000013993+0000000000+Z
319262001319262566-000050     319262006003000163731STICKERS REWARD        0000002000+00002346+00000+0001T   00002346+0000001607          1500 J13130               1 Z
319262002319262027-785005     319262006003000631063CLEANING WIPES 40-PACK 0000001000+00002781+00000+0001T   00002781+0000001607          1500 J13212               1 Z
319262003319262027-785010     319262006003000628995CLEANING WIPES 40-PACK 0000001000+00002781+00000+0001T   00002781+0000001607          1500 J13212               1 Z
319262004319262077-000011     319262006003000542352PAPER RAFFIA ASSTD COL 0000001000+00001912+00000+0001T   00001912+0000001607          1500 J13112               1 Z
319263000319263               319263               170213SB     1500+00000+SB0000026775+0000026775+000000000+000004018+0000030790+0000000003+I20000000000+0000030790+Z
319263001319263469-004001     319263006003000241927B/BLOCKS 66PC POLICE   0000001000+00016086+00000+0001T   00016086+0000001617          1500 J13755               1 Z
319263002319263562-088335     319263006003000425372EVA PUZZLE MAT MINI    0000001000+00001912+00000+0001T   00001912+0000001617          1500 J13755               1 Z
319263003319263567-011436     319263009780857260611BK STICKER GIRLS ACTIVI0000001000+00003738+00000+0001T   00003738+0000001617          1500 J13757               1 Z
319263004319263079-014102     319263006003000101115SCISSORS SHAPES ASSTD  0000001000+00001912+00000+0001T   00001912+0000001617          1500 J13130               1 Z
319263005319263564-000025     319263006003000617104BUBBLE NOVELTY         0000001000+00001912+00000+0001T   00001912+0000001617          1500 J13131               1 Z
319263006319263903-000151     319263006009803374411SWT SML RND R/BOW LOLLY0000001000+00000564+00000+0001T   00000564+0000001617          1500 J13150               1 Z
319263007319263200-000130     319263006001023645067DESSERT-SPOONS 10PCE   0000001000+00000651+00000+0001T   00000651+0000001617          1500 J13214               1 Z
319264000319264               319264               170213SB     1500+00000+SB0000011467+0000011467+000000000+000001725+0000013192+0000000000+I40000013192+0000000000+Z
319264001319264306-000969     319264006003000559350FIRSTAID PLASTER 10PC  0000001000+00001564+00000+0001T   00001564+0000001719          1500 J13200               1 Z
319264002319264903-000138     319264006002099004314SWT GS WINE GUMS 60G   0000001000+00000868+00000+0001T   00000868+0000001719          1500 J13150               1 Z
319264003319264903-000499     319264006001704012492SWT CHOC MALLOWS 50g   0000001000+00001303+00000+0001T   00001303+0000001719          1500 J13150               1 Z
319264004319264903-000087     319264006001704000161SWT SPECKLED-EGGS 50G  0000001000+00001216+00000+0001T   00001216+0000001719          1500 J13150               1 Z
319264005319264903-000504     319264006001704012416SWT CHOC JELLY BEANS   0000001000+00001303+00000+0001T   00001303+0000001719          1500 J13150               1 Z
319264006319264903-004963     319264008410525221873SWT GUMMY SOUR COLA 50g0000001000+00001042+00000+0001T   00001042+0000001719          1500 J13150               1 Z
319264007319264077-000470     319264006003000330171G-BAG DESGN SML 11X14CM0000001000+00001390+00000+0001T   00001390+0000001719          1500 J13112               1 Z
319264008319264072-020295     319264006003000451609PET CAT TOY MOUSE W/ZIP0000001000+00002781+00000+0001T   00002781+0000001719          1500 J13870               1 Z
319265000319265               319265               170213SB     1500+00000+SB0000003476+0000003476+000000000+000000522+0000003990+0000000008+I20000000000+0000003990+Z
319265001319265077-000327     319265006001023677686GIFT-BAG 25X32CM E/D BA0000001000+00001564+00000+0001T   00001564+0000001720          1500 J13112               1 Z
319265002319265077-000301     319265008010410010188BAG LRG 25X32CM B/DAY  0000001000+00001912+00000+0001T   00001912+0000001720          1500 J13112               1 Z
319266000319266               319266               170213SB     1500+00000+SB0000003738+0000003738+000000000+000000561+0000004290+0000000009+I20000000000+0000004290+Z
319266001319266267-000233     319266006001023688576PUZZLE 48pc EDUCATIONAL0000001000+00003738+00000+0001T   00003738+0000001721          1500 J13755               1 Z
319267000319267               319267               170213SB     1500+00000+SB0000016687+0000016687+000000000+000002504+0000019191+0000000000+I40000019191+0000000000+Z
319267001319267368-000101     319267006003000449859PLUSH CAT 17cm KITTY   0000001000-00005477+00000+0001T   00005477+0000001729          1500 J137452IC            1 Z
319267002319267368-000049     319267006003000536955PLUSH BEAR 15cm LOVE   0000002000+00004346+00000+0001T   00004607+0006481729          1500 J13745               1 Z
319267003319267566-000316     319267006003000521821STICKERS MIRRORS HOME  0000001000+00006346+00000+0001T   00006346+0000001729          1500 J13130               1 Z
319267004319267077-000303     319267006001023593757GIFT-BAG PAPER MED     0000002000+00001651+00000+0001T   00001651+0000001729          1500 J13112               1 Z
319267005319267903-000619     319267006003000672455SWT LOLLY STR/BRRY 140G0000002000+00001912+00000+0001T   00001912+0000001729          1500 J13150               1 Z
319268000319268               319268               170213SB     1500+00000+SB0000013125+0000013125+000000000+000001971+0000015096+0000000000+I40000015096+0000000000+Z
319268001319268089-000184     319268006003000577323KEY CHAIN OWL POLY MINI0000002000+00003303+00000+0001T   00003303+0000001731          1500 J13205               1 Z
319268002319268040-000225     319268006003000283491C/HOLDR MTL LANTERN    0000001000+00004607+00000+0001T   00004607+0000001731          1500 J13510               1 Z
319268003319268077-000472     319268006003000330133G-BAG DESGNR LRG 25X32 0000001000+00001912+00000+0001T   00001912+0000001731          1500 J13112               1 Z
319269000319269               319269               170213SB     1500+00000+SB0000006520+0000006520+000000000+000000978+0000007490+0000000008+I20000000000+0000007490+Z
319269001319269463-000120     319269006003000308125SWIM CAP PRINTED ASSTD 0000001000+00006520+00000+0001T   00006520+0000001732          1500 J13785               1 Z
319270000319270               319270               170213SB     1500+00000+SB0000001912+0000001912+000000000+000000287+0000002190+0000000009+I20000000000+0000002190+Z
319270001319270088-000084     319270006001023798060P/POURRI 120G ASSTD    0000001000+00001912+00000+0001T   00001912+0000001740          1500 J13212               1 Z
319271000319271               319271               170213SB     1500+00000+SB0000015642+0000015642+000000000+000002351+0000017993+0000000000+I40000017993+0000000000+Z
319271001319271077-000010-C   319271006001023123879CREPE-PAPER RED        0000002000+00000868+00000+0001T   00000868+0000001743          1500 J13112               1 Z
319271002319271039-000799     319271006001023692382CANDLES TEALITE 100PCE 0000001000+00008694+00000+0001T   00009564+0008301743          1500 J13510               1 Z
319271003319271040-000213     319271006001023617736CANDLE-HOLDER DAISY    0000004000+00001303+00000+0001T   00001303+0000001743          1500 J13510               1 Z
319272000319272               319272               170213SB     1500+00000+SB0000009560+0000009560+000000000+000001436+0000010990+0000000006+I20000000000+0000010990+Z
319272001319272105-001039-B   319272006003000632596CONTAINER W/VENT 12x16 0000002000+00001738+00000+0001T   00002781+0008271744          1500 J13210               1 Z
319272002319272108-009000     319272006003000638673JELLY MOULD WITH LID PL0000001000+00002607+00000+0001T   00003738+0008281744          1500 J13210               1 Z
319272003319272024-000002     319272006001023741899S/BURNER-COVER SILV/BLK0000001000+00003477+00000+0001T   00004607+0008301744          1500 J13300               1 Z
319273000319273               319273               170213SB     1500+00000+SB0000008164+0000008164+000000000+000001227+0000009391+0000000000+I40000009391+0000000000+Z
319273001319273018-000177     319273006001023797513MUG MINI LOVE ASSTD    0000008000+00000738+00000+0001T   00000738+0000001747          1500 J13515               1 Z
319273002319273903-000090     319273006009826020821SWT GS CHOCO COINS 60g 0000001000+00002260+00000+0001T   00002260+0000001747          1500 J13150               1 Z
319274000319274               319274               170213SB     1500+00000+SB0000000572+0000000572+000000000+000000086+0000000650+0000000008+I20000000000+0000000650+Z
319274001319274903-000216     319274006925925900966SWT MALLOW TWIST ERKO  0000002000+00000286+00000+0001T   00000286+0000001747          1500 J13150               1 Z
319275000319275               319275               170213SB     1500+00000+SB0000009510-0000000000+000000000+000000000+0000009510-0000000000+I20000000000+0000009510-Z
319275001319275001-999901     319275000000000999901CASUAL WAGES           0000001000-00009510+00000+0001X  1974/01/05    0808CCOETZ0000000000 J139012IC EE         1 Z
319276000319276               319276               170213SB     1500+00000+SB0000009510-0000000000+000000000+000000000+0000009510-0000000000+I20000000000+0000009510-Z
319276001319276001-999901     319276000000000999901CASUAL WAGES           0000001000-00009510+00000+0001X  1999/18/10    0808CCOETZ0000000000 J139012IC EE         1 Z
319277000319277               319277               170213SB     1500+00000+SB0000003736+0000003736+000000000+000000562+0000004290+0000000008+I20000000000+0000004290+Z
319277001319277077-000235     319277006003000160211GIFT-RIBBON ROLL METALC0000001000+00002781+00000+0001T   00002781+0000001756          1500 J13112               1 Z
319277002319277077-000150-D   319277006003000054343GIFT-WRAP CELLPHANE CLR0000001000+00000955+00000+0001T   00000955+0000001756          1500 J13112               1 Z
319278000319278               319278               170213SB     1500+00000+SB0000002867+0000002867+000000000+000000431+0000003290+0000000008+I20000000000+0000003290+Z
319278001319278028-000400     319278006001023421661PLATE-HOLDERS 4PCE     0000001000+00001564+00000+0001T   00001564+0000001757          1500 J13305               1 Z
319278002319278077-000245     319278006001023759214GIFT-RIBBON METALLICx2 0000001000+00001303+00000+0001T   00001303+0000001757          1500 J13112               1 Z
A17021300                                          10465663SBSLAVE 1                       J133IC
A17021301                                          13492665SBSLAVE 1                       J133IC
A17021302                                          13505158SBSLAVE 1                       J133IC
B31922700                                          170213SB567-010394     11523100SLAVE 1     J132IC0000002000+0000001000+0000000000000+
B31926700                                          170213SB368-000049     17274401SLAVE 1     J132IC0000022000+0000002000+0000000000000+
B31926701                                          170213SB077-000303     17280760SLAVE 1     J132IC0000022000+0000002000+0000000000000+
B31926702                                          170213SB903-000619     17281270SLAVE 1     J132IC0000022000+0000002000+0000000000000+
C31924100                                          170213SB079-009700-J   14481866SLAVE 1     J133IC0000000000+0000000000+0010000001000+
C31924101                                          170213SB079-009700-I   14482561SLAVE 1     J133IC0000000000+0000000000+0020000001000+
C31925300                                          170213SB304-001204     15294116SLAVE 1     J132IC0000000000+0000000000+0010000004000+
M17021391                              CASH        SBSLAVE 1                       Z-REPORT No.   466TOTAL (Sales - Refunds)           7096.50       CASH TO BE BANKED                 4808.50       DEBIT CARDS                          0.00       CREDIT CARDS                      2101.50       Z-READING                         6906.30       AIRTIME DEBIT CARD SALES             0.00       AIRTIME CARD SALES                   0.00       OVERS/UNDERS                         3.70       AIRTIME CASH SALES                   0.00       GIFT CARDS                           0.00       GIFT CARD CASH SALES                 0.00       CASUAL WAGES                       190.20       T O T A L  CASH PAYOUTS            190.20                                                                                                                                                                                                                                                                                                      Z
M17021392                              CASH        SBABSENT                                                                                                                                                                                          ANNUAL LEAVE                                                                                                                                                                                    DAY OFF                                                                                                                                                                                         COMMENTS          CASHIER SALICIA OVER 3.70                                                                                                                                                                                                                                                                                                                                                    Z
Y17021300                                          SB00007500622851+000075
ZSB17021320213 SLAVE 1      SALES DATA                     NEXT INVOICE NO.  319279 0466
F094340019-071599         1702100940420000202ICSLAVE 1
F094783019-000130         1702100940510000102ICSLAVE 1
X SB Slave 1 First invoice 319202 170213 Last invoice 319278 170213 Next invoice 319279 Total number of records 000000275 clbackup completed 20:21:20
