323095000323095               323095               170213SB     1500+00000+SB0000017296+0000017296+000000000+000002598+0000019894+0000000000+I40000019894+0000000000+Z
323095001323095058-008268     323095006003000527939HAMMER RUBBER MALLET   0000001000+00001912+00000+0001T   00001912+0000000859          1500 NT1840               2 Z
323095002323095002-220006     323095006001023670342FOOD COVER 43CM ASSTD  0000001000+00003303+00000+0001T   00003303+0000000859          1500 NT1300               2 Z
323095003323095565-001212     323095006001023658173NOVELTY MAGIC-SPRING   0000001000+00001912+00000+0001T   00001912+0000000859          1500 NT1745               2 Z
323095004323095251-000012     323095006001023597915TAPE DUCT GREY 48mmx5m 0000001000+00002781+00000+0001T   00002781+0000000859          1500 NT1810               2 Z
323095005323095562-000504     323095006001023619327EDU CUBE RUBIX         0000001000+00002781+00000+0001T   00002781+0000000859          1500 NT1755               2 Z
323095006323095079-001001     323095006003000448593CANVAS A3 WOOD MOUNTED 0000001000+00004607+00000+0001T   00004607+0000000859          1500 NT1130               2 Z
323096000323096               323096               170213SB     1500+00000+SB0000004607+0000004607+000000000+000000692+0000005290+0000000009+I20000000000+0000005290+Z
323096001323096024-000003     323096006001023462206S/BURNER COVERS ASSTD  0000001000+00004607+00000+0001T   00004607+0000000912          1500 NT1300               2 Z
323097000323097               323097               170213SB     1500+00000+SB0000005214+0000005214+000000000+000000783+0000005997+0000000000+I40000005997+0000000000+Z
323097001323097566-000359     323097006003000582709STICKER BOOK LOVE SPARK0000002000+00002173+00000+0001T   00002260+0006480917          1500 NT1130               2 Z
323097002323097077-000010-C   323097006001023123879CREPE-PAPER RED        0000001000+00000868+00000+0001T   00000868+0000000917          1500 NT1112               2 Z
323098000323098               323098               170213SB     1500+00000+SB0000001303+0000001303+000000000+000000196+0000001490+0000000009+I20000000000+0000001490+Z
323098001323098077-000245     323098006001023759214GIFT-RIBBON METALLICx2 0000001000+00001303+00000+0001T   00001303+0000000928          1500 NT1112               2 Z
323099000323099               323099               170213SB     1500+00000+SB0000001823+0000001823+000000000+000000275+0000002090+0000000008+I20000000000+0000002090+Z
323099001323099077-000314     323099006003000181148GIFT-BAG 11X14CM MATT  0000001000+00000955+00000+0001T   00000955+0000000932          1500 NT1112               2 Z
323099002323099077-000010-C   323099006001023123879CREPE-PAPER RED        0000001000+00000868+00000+0001T   00000868+0000000932          1500 NT1112               2 Z
323100000323100               323100               170213SB     1500+00000+SB0000001910+0000001910+000000000+000000288+0000002190+0000000008+I20000000000+0000002190+Z
323100001323100083-000295     323100006001023898562LIGHTER-GAS BUTANE 18ml0000002000+00000955+00000+0001T   00000955+0000000955          1500 NT1315               2 Z
323101000323101               323101               170213SB     1500+00000+SB0000079967+0000079967+000000000+000012008+0000091975+0000000000+I40000091975+0000000000+Z
323101001323101077-000309     323101006001023608604GIFT-BAG 25X32CM GLOSS 0000001000+00001912+00000+0001T   00001912+0000001003          1500 NT1112               2 Z
323101002323101105-007405     323101006003000629558CONTAINER MINI 300ml   0000002000+00002607+00000+0001T   00003129+0008281003          1500 NT1210               2 Z
323101003323101306-000024-A   323101006003000577309COTTON-WOOL-PADS 80PC  0000002000+00001912+00000+0001T   00001912+0000001003          1500 NT1200               2 Z
323101004323101159-000114     323101006001023507945SHOWER CAP PVC ASSTD   0000001000+00001564+00000+0001T   00001564+0000001003          1500 NT1200               2 Z
323101005323101159-000801     323101006001023999832BATHMAT 36x59cm ASST   0000001000+00005999+00000+0001T   00005999+0000001003          1500 NT1200               2 Z
323101006323101030-003579     323101006001023999351THERMOMETER B-FLY 35CM 0000001000+00003999+00000+0001T   00003999+0000001003          1500 NT1505               2 Z
323101007323101024-000124     323101006001023466549N/STICK MINI S/FORM 2PC0000001000+00011129+00000+0001T   00011129+0000001003          1500 NT1300               2 Z
323101008323101078-000025     323101008887013700064SUPERGLUE 3g 1PCE CARD 0000001000+00000955+00000+0001T   00000955+0000001003          1500 NT1810               2 Z
323101009323101027-009005     323101006001023713124D/BRUSH W/TOP BRISTLES 0000002000+00002781+00000+0001T   00002781+0000001003          1500 NT1212               2 Z
323101010323101027-000409     323101006001023731012SCRUBBING-BRUSH 15,5cm 0000002000+00001912+00000+0001T   00001912+0000001003          1500 NT1212               2 Z
323101011323101027-783000     323101006001023874641SCOURERS RAINBOW 5PCE  0000001000+00001912+00000+0001T   00001912+0000001003          1500 NT1212               2 Z
323101012323101024-000124     323101006001023466549N/STICK MINI S/FORM 2PC0000001000+00011129+00000+0001T   00011129+0000001003          1500 NT1300               2 Z
323101013323101047-000505     323101006009636901976PLUG-ADAPTOR 2-PIN     0000002000+00000955+00000+0001T   00000955+0000001003          1500 NT1880               2 Z
323101014323101027-000081     323101006001023760371SCOURING PADS 10PCE    0000001000+00001216+00000+0001T   00001216+0000001003          1500 NT1212               2 Z
323101015323101133-046633     323101009300601747009TABLECLOTH VINYL ASSTD 0000001000+00006520+00000+0001T   00006520+0000001003          1500 NT1212               2 Z
323101016323101306-001001     323101006003000519804FIRSTAID PLASTER FABRIC0000002000+00002781+00000+0001T   00002781+0000001003          1500 NT1200               2 Z
323101017323101028-001016     323101006003000365272CUTLERY SET 18PC CARDED0000001000+00003129+00000+0001T   00003129+0000001003          1500 NT1305               2 Z
323101018323101103-000073     323101006003000630769BASKET BAMBOO 29x17x3cm0000001000+00004607+00000+0001T   00004607+0000001003          1500 NT1300               2 Z
323102000323102               323102               170213SB     1500+00000+SB0000001912+0000001912+000000000+000000287+0000002190+0000000009+I20000000000+0000002190+Z
323102001323102565-000889     323102006003000626953NOVELTY SPACE BALLOONS 0000001000+00001912+00000+0001T   00001912+0000001029          1500 NT1745               2 Z
323103000323103               323103               170213SB     1500+00000+SB0000004345+0000004345+000000000+000000653+0000004990+0000000008+I20000000000+0000004990+Z
323103001323103306-000969     323103006003000559350FIRSTAID PLASTER 10PC  0000001000+00001564+00000+0001T   00001564+0000001033          1500 NT1200               2 Z
323103002323103047-002034     323103006009636901754PLUG-ADAPTOR 3x16A WAVY0000001000+00002781+00000+0001T   00002781+0000001033          1500 NT1880               2 Z
323104000323104               323104               170213SB     1500+00000+SB0000001303+0000001303+000000000+000000196+0000001490+0000000009+I20000000000+0000001490+Z
323104001323104200-000092     323104006003000576739PICNIC PAPER PLATES 23c0000001000+00001303+00000+0001T   00001303+0000001037          1500 NT1214               2 Z
323105000323105               323105               170213SB     1500+00000+SB0000002781+0000002781+000000000+000000418+0000003190+0000000009+I20000000000+0000003190+Z
323105001323105077-000270     323105006003000395453GIFT-BAG PPR JMB 33X45 0000001000+00002781+00000+0001T   00002781+0000001103          1500 NT1112               2 Z
323106000323106               323106               170213SB     1500+00000+SB0000001821+0000001821+000000000+000000276+0000002090+0000000007+I20000000000+0000002090+Z
323106001323106304-001011     323106006001023806727FLWR ROSE RED W/BEAR   0000003000+00000607+00000+0001T   00000825+0006481103          1500 NT1510               2 Z
323107000323107               323107               170213SB     1500+00000+SB0000000607+0000000607+000000000+000000092+0000000690+0000000009+I20000000000+0000000690+Z
323107001323107304-001011     323107006001023806727FLWR ROSE RED W/BEAR   0000001000+00000607+00000+0001T   00000825+0006481104          1500 NT1510               2 Z
323108000323108               323108               170213SB     1500+00000+SB0000008168+0000008168+000000000+000001228+0000009396+0000000000+I40000009396+0000000000+Z
323108001323108048-000865     323108006003000371433TORCH KEY CHAIN 5LED   0000001000+00002781+00000+0001T   00002781+0000001106          1500 NT1305               2 Z
323108002323108077-000245     323108006001023759214GIFT-RIBBON METALLICx2 0000001000+00001303+00000+0001T   00001303+0000001106          1500 NT1112               2 Z
323108003323108103-000088     323108006001023795625BAMBOO BASKET  W/HNDLES0000001000+00003129+00000+0001T   00003129+0000001106          1500 NT1300               2 Z
323108004323108077-000151     323108006008766114676GIFT-WRAP C/PHANE ASSTD0000001000+00000955+00000+0001T   00000955+0000001106          1500 NT1112               2 Z
323109000323109               323109               170213SB     1500+00000+SB0000000000+0000000000+000000000+000000000+0000000000+0000000000+I20000000000+0000000000+Z
323109001323109567-075466     323109006001023644572BK NOVEL ROMANCE       0000001000-00002607+00000+0001T   00002781+0006481110          1500 NT17573IC            2 Z
323109002323109567-075466     323109006001023644572BK NOVEL ROMANCE       0000001000+00002607+00000+0001T   00002781+0006481110          1500 NT17573IC            2 Z
323110000323110               323110               170213SB     1500+00000+SB0000018694+0000018694+000000000+000002805+0000021499+0000000000+I40000021499+0000000000+Z
323110001323110031-001003     323110006003000280995P/FRAME CLG WDN 44X54CM0000001000+00018694+00000+0001T   00018694+0000001201          1500 NT1510               2 Z
323111000323111               323111               170213SB     1500+00000+SB0000002781+0000002781+000000000+000000418+0000003190+0000000009+I20000000000+0000003190+Z
323111001323111033-000001     323111006003000344321TINTING BOWL & BRUSHES 0000001000+00002781+00000+0001T   00002781+0000001204          1500 NT1200               2 Z
323112000323112               323112               170213SB     1500+00000+SB0000016431+0000016431+000000000+000002466+0000018897+0000000000+I40000018897+0000000000+Z
323112001323112031-000870-B   323112006001023798657P/FRAME WOOD WHITE-PINE0000003000+00005477+00000+0001T   00005477+0000001205          1500 NT1510               2 Z
323113000323113               323113               170213SB     1500+00000+SB0000004085+0000004085+000000000+000000613+0000004690+0000000008+I20000000000+0000004690+Z
323113001323113564-000025     323113006003000617104BUBBLE NOVELTY         0000001000+00001912+00000+0001T   00001912+0000001206          1500 NT1131               2 Z
323113002323113080-000127     323113006003000424351VALENTINES DAY 36x24CM 0000001000+00002173+00000+0001T   00002260+0006481206          1500 NT1112               2 Z
323114000323114               323114               170213SB     1500+00000+SB0000003738+0000003738+000000000+000000561+0000004290+0000000009+I20000000000+0000004290+Z
323114001323114071-001249     323114006003000582280ERASER GIANT 16x5cm    0000001000+00003738+00000+0001T   00003738+0000001207          1500 NT1130               2 Z
323115000323115               323115               170213SB     1500+00000+SB0000001564+0000001564+000000000+000000235+0000001790+0000000009+I20000000000+0000001790+Z
323115001323115077-000299     323115006003000395576G/BAG 32x25cm LRG LOVE 0000001000+00001564+00000+0001T   00001564+0000001210          1500 NT1112               2 Z
323116000323116               323116               170213SB     1500+00000+SB0000011908+0000011908+000000000+000001788+0000013690+0000000006+I20000000000+0000013690+Z
323116001323116301-085004     323116006003000420469ORN LOVE PLAQUE 21X10CM0000001000+00003477+00000+0001T   00003999+0006481212          1500 NT1505               2 Z
323116002323116080-000113     323116006003000237449CARD&ENVLPE - LOVE     0000001000+00001912+00000+0001T   00001912+0000001212          1500 NT1112               2 Z
323116003323116018-005009     323116006001023725608MUG W/PLUSH-BEAR LOVE  0000001000+00003738+00000+0001T   00003738+0000001212          1500 NT1515               2 Z
323116004323116077-000270     323116006003000395453GIFT-BAG PPR JMB 33X45 0000001000+00002781+00000+0001T   00002781+0000001212          1500 NT1112               2 Z
323117000323117               323117               170213SB     1500+00000+SB0000001214+0000001214+000000000+000000184+0000001390+0000000008+I20000000000+0000001390+Z
323117001323117304-001011     323117006001023806727FLWR ROSE RED W/BEAR   0000002000+00000607+00000+0001T   00000825+0006481214          1500 NT1510               2 Z
323118000323118               323118               170213SB     1500+00000+SB0000004168+0000004168+000000000+000000628+0000004790+0000000006+I20000000000+0000004790+Z
323118001323118077-000151     323118006008766114676GIFT-WRAP C/PHANE ASSTD0000002000+00000955+00000+0001T   00000955+0000001217          1500 NT1112               2 Z
323118002323118071-005213     323118006001023690371CELLOTAPE 12mmx33m     0000001000+00000955+00000+0001T   00000955+0000001217          1500 NT1130               2 Z
323118003323118077-000245     323118006001023759214GIFT-RIBBON METALLICx2 0000001000+00001303+00000+0001T   00001303+0000001217          1500 NT1112               2 Z
323119000323119               323119               170213SB     1500+00000+SB0000000607+0000000607+000000000+000000092+0000000690+0000000009+I20000000000+0000000690+Z
323119001323119304-001011     323119006001023806727FLWR ROSE RED W/BEAR   0000001000+00000607+00000+0001T   00000825+0006481217          1500 NT1510               2 Z
323120000323120               323120               170213SB     1500+00000+SB0000003388+0000003388+000000000+000000510+0000003890+0000000008+I20000000000+0000003890+Z
323120001323120018-000129     323120006001023403353MUG OCC. LOVE V-SHAPE  0000001000+00002781+00000+0001T   00002781+0000001218          1500 NT1515               2 Z
323120002323120304-001011     323120006001023806727FLWR ROSE RED W/BEAR   0000001000+00000607+00000+0001T   00000825+0006481218          1500 NT1510               2 Z
323121000323121               323121               170213SB     1500+00000+SB0000007286+0000007286+000000000+000001103+0000008380+0000000009+I20000000000+0000008380+Z
323121001323121304-001011     323121006001023806727FLWR ROSE RED W/BEAR   0000010000+00000607+00000+0001T   00000825+0006481219          1500 NT1510               2 Z
323121002323121903-000087     323121006001704000161SWT SPECKLED-EGGS 50G  0000001000+00001216+00000+0001T   00001216+0000001219          1500 NT1150               2 Z
323122000323122               323122               170213SB     1500+00000+SB0000002953+0000002953+000000000+000000443+0000003390+0000000006+I20000000000+0000003390+Z
323122001323122566-000359     323122006003000582709STICKER BOOK LOVE SPARK0000001000+00002173+00000+0001T   00002260+0006481225          1500 NT1130               2 Z
323122002323122006-000170-A   323122006003000608065BALLOONS 1PC PINK      0000003000+00000260+00000+0001T   00000260+0000001225          1500 NT1131               2 Z
323123000323123               323123               170213SB     1500+00000+SB0000000868+0000000868+000000000+000000131+0000000990+0000000009+I20000000000+0000000990+Z
323123001323123077-000010-C   323123006001023123879CREPE-PAPER RED        0000001000+00000868+00000+0001T   00000868+0000001225          1500 NT1112               2 Z
323124000323124               323124               170213SB     1500+00000+SB0000017036+0000017036+000000000+000002557+0000019590+0000000003+I20000000000+0000019590+Z
323124001323124366-000125     323124006003000006786DRESSUP WINGS/WAND/BAND0000001000+00005564+00000+0001T   00005564+0000001231          1500 NT1131               2 Z
323124002323124089-000030     323124006003000575671K/CHAIN LOVE MTL ASSTD 0000001000+00001912+00000+0001T   00001912+0000001231          1500 NT1205               2 Z
323124003323124006-000094     323124006003000611089PARTY BANNER BBY SHOWER0000001000+00001564+00000+0001T   00001564+0000001231          1500 NT1131               2 Z
323124004323124006-005909     323124006003000081301PARTY FAVOUR STAR WAND 0000001000+00002346+00000+0001T   00002346+0000001231          1500 NT1131               2 Z
323124005323124366-000301     323124006003000421077DRESSUP TIARA & EARRING0000001000+00003738+00000+0001T   00003738+0000001231          1500 NT1131               2 Z
323124006323124362-003009     323124006003000295647HAIR BAND SET ASSORTED 0000001000+00001912+00000+0001T   00001912+0000001231          1500 NT1160               2 Z
323125000323125               323125               170213SB     1500+00000+SB0000003738+0000003738+000000000+000000561+0000004290+0000000009+I20000000000+0000004290+Z
323125001323125079-105610     323125006003000249473ART+CRAFT SPONGE INK PA0000001000+00003738+00000+0001T   00003738+0000001232          1500 NT1130               2 Z
323126000323126               323126               170213SB     1500+00000+SB0000005562+0000005562+000000000+000000836+0000006390+0000000008+I20000000000+0000006390+Z
323126001323126466-000513     323126006003000515561BALL CRICKET RUBBER    0000002000+00002781+00000+0001T   00002781+0000001232          1500 NT1785               2 Z
323127000323127               323127               170213SB     1500+00000+SB0000002781+0000002781+000000000+000000418+0000003190+0000000009+I20000000000+0000003190+Z
323127001323127018-000129     323127006001023403353MUG OCC. LOVE V-SHAPE  0000001000+00002781+00000+0001T   00002781+0000001236          1500 NT1515               2 Z
323128000323128               323128               170213SB     1500+00000+SB0000002781+0000002781+000000000+000000418+0000003190+0000000009+I20000000000+0000003190+Z
323128001323128058-000061     323128006001023759597KNIFE SNAPOFF+5PCE BLDE0000001000+00002781+00000+0001T   00002781+0000001237          1500 NT1840               2 Z
323129000323129               323129               170213SB     1500+00000+SB0000004607+0000004607+000000000+000000692+0000005290+0000000009+I20000000000+0000005290+Z
323129001323129079-000261     323129006003000159727PAINT WATER COLOUR CAKE0000001000+00004607+00000+0001T   00004607+0000001240          1500 NT1130               2 Z
323130000323130               323130               170213SB     1500+00000+SB0000001564+0000001564+000000000+000000235+0000001790+0000000009+I20000000000+0000001790+Z
323130001323130077-000299     323130006003000395576G/BAG 32x25cm LRG LOVE 0000001000+00001564+00000+0001T   00001564+0000001245          1500 NT1112               2 Z
323131000323131               323131               170213SB     1500+00000+SB0000000955+0000000955+000000000+000000144+0000001090+0000000009+I20000000000+0000001090+Z
323131001323131077-000151     323131006008766114676GIFT-WRAP C/PHANE ASSTD0000001000+00000955+00000+0001T   00000955+0000001249          1500 NT1112               2 Z
323132000323132               323132               170213SB     1500+00000+SB0000000955+0000000955+000000000+000000144+0000001090+0000000009+I20000000000+0000001090+Z
323132001323132077-000151     323132006008766114676GIFT-WRAP C/PHANE ASSTD0000001000+00000955+00000+0001T   00000955+0000001250          1500 NT1112               2 Z
323133000323133               323133               170213SB     1500+00000+SB0000002260+0000002260+000000000+000000339+0000002590+0000000009+I20000000000+0000002590+Z
323133001323133024-091103     323133006003453014307BAKING-CUP MUFFIN 50PCE0000001000+00002260+00000+0001T   00002260+0000001251          1500 NT1300               2 Z
323134000323134               323134               170213SB     1500+00000+SB0000005190+0000005190+000000000+000000780+0000005970+0000000000+I20000000000+0000005970+Z
323134001323134079-009700-B   323134006003000547661PAPER SIRIO A4 WHITE   0000015000+00000346+00000+0001T   00000346+0000001253          1500 NT1130               2 Z
323135000323135               323135               170213SB     1500+00000+SB0000003302+0000003302+000000000+000000496+0000003790+0000000008+I20000000000+0000003790+Z
323135001323135146-000402     323135006003000303557CLIP-ON CONNECTOR 13mm 0000001000+00001912+00000+0001T   00001912+0000001254          1500 NT1820               2 Z
323135002323135146-000460     323135006003000528837SPRINKLER PYRAMID PL   0000001000+00001390+00000+0001T   00001390+0000001254          1500 NT1820               2 Z
323136000323136               323136               170213SB     1500+00000+SB0000024073+0000024073+000000000+000003615+0000027688+0000000000+I40000027688+0000000000+Z
323136001323136106-003115     323136006002689011357ICE CUBE-TRAYS 2PCE WHT0000005000+00001738+00000+0001T   00001738+0000001306          1500 NT1210               2 Z
323136002323136150-001234-2   323136005019190010022PLATE-HANGER P/C SIZE-20000002000+00001564+00000+0001T   00001564+0000001306          1500 NT1810               2 Z
323136003323136002-000015     323136006003000555604CAPPUCCINO STENCILS 12P0000001000+00001912+00000+0001T   00001912+0000001306          1500 NT1300               2 Z
323136004323136106-001099     323136006003000653447WATER BOTTLE 650ml     0000001000+00002781+00000+0001T   00002781+0000001306          1500 NT1210               2 Z
323136005323136133-000017     323136006003000525171CLEANING-CLOTHS 5PCE   0000001000+00003738+00000+0001T   00003738+0000001306          1500 NT1212               2 Z
323136006323136037-000001     323136006001023490445ASHTRAY 14cm ASSTD     0000002000+00001912+00000+0001T   00001912+0000001306          1500 NT1515               2 Z
323137000323137               323137               170213SB     1500+00000+SB0000003738+0000003738+000000000+000000561+0000004299+0000000000+I40000004299+0000000000+Z
323137001323137018-005009     323137006001023725608MUG W/PLUSH-BEAR LOVE  0000001000+00003738+00000+0001T   00003738+0000001307          1500 NT1515               2 Z
323138000323138               323138               170213SB     1500+00000+SB0000012691+0000012691+000000000+000001905+0000014590+0000000006+I20000000000+0000014590+Z
323138001323138036-000013     323138006001246500860LINT REMOVER REFILLS   0000001000+00003999+00000+0001T   00003999+0000001310          1500 NT1212               2 Z
323138002323138567-011308     323138006003000598472BOOK COLOURING COPY    0000001000+00002781+00000+0001T   00002781+0000001310          1500 NT1757               2 Z
323138003323138051-002406     323138006003000139415SPRAY PL TRIGGER 700ml 0000001000+00001912+00000+0001T   00001912+0000001310          1500 NT1820               2 Z
323138004323138036-000014     323138006001246500822LINT REMOVER 40x SHEET 0000001000+00003999+00000+0001T   00003999+0000001310          1500 NT1212               2 Z
323139000323139               323139               170213SB     1500+00000+SB0000001390+0000001390+000000000+000000209+0000001590+0000000009+I20000000000+0000001590+Z
323139001323139077-000407     323139006003000145096G/BAG PP 19X26X8CM     0000001000+00001390+00000+0001T   00001390+0000001310          1500 NT1112               2 Z
323140000323140               323140               170213SB     1500+00000+SB0000005040+0000005040+000000000+000000757+0000005790+0000000007+I20000000000+0000005790+Z
323140001323140159-000636     323140006003000036035BATH PUMICE,BRUSH,FILE 0000001000+00001912+00000+0001T   00001912+0000001312          1500 NT1200               2 Z
323140002323140039-000108     323140006001023524034TEA-LITE CANDLES 8PCE  0000002000+00001564+00000+0001T   00001564+0000001312          1500 NT1510               2 Z
323141000323141               323141               170213SB     1500+00000+SB0000014166+0000014166+000000000+000002127+0000016290+0000000003+I20000000000+0000016290+Z
323141001323141103-000090     323141006001023795786WOVEN HEART SHAPED     0000003000+00003738+00000+0001T   00003738+0000001315          1500 NT1300               2 Z
323141002323141018-000177     323141006001023797513MUG MINI LOVE ASSTD    0000004000+00000738+00000+0001T   00000738+0000001315          1500 NT1515               2 Z
323142000323142               323142               170213SB     1500+00000+SB0000003738+0000003738+000000000+000000561+0000004290+0000000009+I20000000000+0000004290+Z
323142001323142018-005009     323142006001023725608MUG W/PLUSH-BEAR LOVE  0000001000+00003738+00000+0001T   00003738+0000001318          1500 NT1515               2 Z
323143000323143               323143               170213SB     1500+00000+SB0000001651+0000001651+000000000+000000248+0000001890+0000000009+I20000000000+0000001890+Z
323143001323143077-000315     323143006003000181186GIFT-BAG 20x28cm MATT  0000001000+00001651+00000+0001T   00001651+0000001325          1500 NT1112               2 Z
323144000323144               323144               170213SB     1500+00000+SB0000029987+0000029987+000000000+000004502+0000034489+0000000000+I40000034489+0000000000+Z
323144001323144080-000124     323144006003000297733CARD & ENV VALENTINES  0000001000+00001564+00000+0001T   00001651+0006481328          1500 NT1112               2 Z
323144002323144304-001204     323144006001023737984FLOWER OCC. TEDDY/ROSES0000001000+00001390+00000+0001T   00001564+0006481328          1500 NT1510               2 Z
323144003323144080-000124     323144006003000297733CARD & ENV VALENTINES  0000001000+00001564+00000+0001T   00001651+0006481328          1500 NT1112               2 Z
323144004323144083-000055     323144006003000003853LIGHTER ELCTRNC REFILBL0000002000+00000651+00000+0001T   00000651+0000001328          1500 NT1315               2 Z
323144005323144368-000111     323144006001023780812PLUSH BEAR/DOG 29CM    0000001000+00012607+00000+0001T   00012607+0000001328          1500 NT1745               2 Z
323144006323144077-000472     323144006003000330133G-BAG DESGNR LRG 25X32 0000001000+00001912+00000+0001T   00001912+0000001328          1500 NT1112               2 Z
323144007323144304-001204     323144006001023737984FLOWER OCC. TEDDY/ROSES0000001000+00001390+00000+0001T   00001564+0006481328          1500 NT1510               2 Z
323144008323144368-000104     323144006001023751348PLUSH BEAR RUFFLED-LOOK0000001000+00006346+00000+0001T   00006346+0000001328          1500 NT1745               2 Z
323144009323144077-000309     323144006001023608604GIFT-BAG 25X32CM GLOSS 0000001000+00001912+00000+0001T   00001912+0000001328          1500 NT1112               2 Z
323145000323145               323145               170213SB     1500+00000+SB0000010778+0000010778+000000000+000001618+0000012390+0000000006+I20000000000+0000012390+Z
323145001323145077-000303     323145006001023593757GIFT-BAG PAPER MED     0000001000+00001651+00000+0001T   00001651+0000001346          1500 NT1112               2 Z
323145002323145368-000175     323145006003000270316PLUSH BEAR 4 ASSTD 18CM0000001000+00006346+00000+0001T   00006346+0000001346          1500 NT1745               2 Z
323145003323145159-000679     323145006001023588289BATH-SPONGE RND 2pk    0000001000+00002781+00000+0001T   00002781+0000001346          1500 NT1200               2 Z
323146000323146               323146               170213SB     1500+00000+SB0000002520+0000002520+000000000+000000378+0000002890+0000000008+I20000000000+0000002890+Z
323146001323146103-000788     323146006001023896292WOVEN ROUND BASKET     0000001000+00002520+00000+0001T   00002520+0000001347          1500 NT1300               2 Z
323147000323147               323147               170213SB     1500+00000+SB0000000692+0000000692+000000000+000000104+0000000790+0000000006+I20000000000+0000000790+Z
323147001323147079-009700-D   323147006003000545711PAPER SIRIO A4 RED COL.0000002000+00000346+00000+0001T   00000346+0000001348          1500 NT1130               2 Z
323148000323148               323148               170213SB     1500+00000+SB0000000651+0000000651+000000000+000000098+0000000740+0000000009+I20000000000+0000000740+Z
323148001323148083-000055     323148006003000003853LIGHTER ELCTRNC REFILBL0000001000+00000651+00000+0001T   00000651+0000001349          1500 NT1315               2 Z
323149000323149               323149               170213SB     1500+00000+SB0000014778+0000014778+000000000+000002219+0000016990+0000000007+I20000000000+0000016990+Z
323149001323149124-000001     323149000738380781690STORAGE TIN TISSUE     0000001000+00002607+00000+0001T   00003738+0008281357          1500 NT1300               2 Z
323149002323149301-085004     323149006003000420469ORN LOVE PLAQUE 21X10CM0000001000+00003477+00000+0001T   00003999+0006481357          1500 NT1505               2 Z
323149003323149001-091415     323149006003000329113W/GLS OCC. LOVE 2PC 2800000001000+00008694+00000+0001T   00009650+0006481357          1500 NT1515               2 Z
323150000323150               323150               170213SB     1500+00000+SB0000001821+0000001821+000000000+000000276+0000002090+0000000007+I20000000000+0000002090+Z
323150001323150304-001011     323150006001023806727FLWR ROSE RED W/BEAR   0000003000+00000607+00000+0001T   00000825+0006481359          1500 NT1510               2 Z
323151000323151               323151               170213SB     1500+00000+SB0000001560+0000001560+000000000+000000234+0000001790+0000000004+I20000000000+0000001790+Z
323151001323151006-000173-A   323151006003000636235BALLOONS HELIUM 1PC BLK0000001000+00000260+00000+0001T   00000260+0000001400          1500 NT1131               2 Z
323151002323151006-000171-D   323151006003000609291BALLOONS 1PC ORANGE PRN0000001000+00000260+00000+0001T   00000260+0000001400          1500 NT1131               2 Z
323151003323151006-000171-K   323151006003000609697BALLOONS 1PC PURPLE PRN0000001000+00000260+00000+0001T   00000260+0000001400          1500 NT1131               2 Z
323151004323151006-000170-A   323151006003000608065BALLOONS 1PC PINK      0000002000+00000260+00000+0001T   00000260+0000001400          1500 NT1131               2 Z
323151005323151006-000170-B   323151006003000608300BALLOONS 1PC L/GREEN   0000001000+00000260+00000+0001T   00000260+0000001400          1500 NT1131               2 Z
323152000323152               323152               170213SB     1500+00000+SB0000037508+0000037508+000000000+000005631+0000043130+0000000009+I20000000000+0000043130+Z
323152001323152564-009001     323152006003000141265GUN PL B/O+BUBBLES     0000001000+00009564+00000+0001T   00009564+0000001402          1500 NT1131               2 Z
323152002323152072-020354     323152006001023649980DOG/CAT-BOWL LARGE     0000001000+00002781+00000+0001T   00002781+0000001402          1500 NT1870               2 Z
323152003323152072-020299     323152006001023700957PET DOG TOY RING RUBBER0000002000+00004607+00000+0001T   00004607+0000001402          1500 NT1870               2 Z
323152004323152072-020322     323152006003000603701PET DOG TOY TUG-ROPE   0000001000+00003303+00000+0001T   00003303+0000001402          1500 NT1870               2 Z
323152005323152368-000049     323152006003000536955PLUSH BEAR 15cm LOVE   0000001000+00004346+00000+0001T   00004607+0006481402          1500 NT1745               2 Z
323152006323152564-000012     323152006001023130075BUBBLE BOTTLE MAGIC    0000001000+00000738+00000+0001T   00000738+0000001402          1500 NT1131               2 Z
323152007323152107-002106     323152006003000507115BASIN W/HANDLE/ICE BCKT0000001000+00003738+00000+0001T   00003738+0000001402          1500 NT1210               2 Z
323152008323152565-000043     323152006003000109562NOVELTY BALL FUNNY FACE0000002000+00001912+00000+0001T   00001912+0000001402          1500 NT1745               2 Z
323153000323153               323153               170213SB     1500+00000+SB0000001910+0000001910+000000000+000000288+0000002190+0000000008+I20000000000+0000002190+Z
323153001323153033-010720     323153006001023678645SAFETY-PINS 50PCE SMALL0000002000+00000955+00000+0001T   00000955+0000001405          1500 NT1200               2 Z
323154000323154               323154               170213SB     1500+00000+SB0000004346+0000004346+000000000+000000652+0000004990+0000000008+I20000000000+0000004990+Z
323154001323154368-000049     323154006003000536955PLUSH BEAR 15cm LOVE   0000001000+00004346+00000+0001T   00004607+0006481408          1500 NT1745               2 Z
323155000323155               323155               170213SB     1500+00000+SB0000009650+0000009650+000000000+000001448+0000011090+0000000008+I20000000000+0000011090+Z
323155001323155024-000107     323155006001023422071MUFFIN-PAN 12-CUP      0000001000+00009650+00000+0001T   00009650+0000001420          1500 NT1300               2 Z
323156000323156               323156               170213SB     1500+00000+SB0000005477+0000005477+000000000+000000822+0000006290+0000000009+I20000000000+0000006290+Z
323156001323156028-000401     323156006001023120632PLATE-HOLDERS 4PCE  H&L0000001000+00005477+00000+0001T   00005477+0000001421          1500 NT1305               2 Z
323157000323157               323157               170213SB     1500+00000+SB0000007472+0000007472+000000000+000001122+0000008594+0000000000+I40000008594+0000000000+Z
323157001323157002-000740     323157006001023763945GRATER 4-WAY WHITE     0000001000+00002346+00000+0001T   00002346+0000001430          1500 NT1300               2 Z
323157002323157071-000012     323157006001177101006CHALK COLOUR 12PCE     0000001000+00000520+00000+0001T   00000520+0000001430          1500 NT1130               2 Z
323157003323157002-011120     323157006003000099559EGG CUP SILICONE KIDDIE0000001000+00000868+00000+0001T   00001390+0008201430          1500 NT1300               2 Z
323157004323157562-000200     323157006001023732941PUSH-IN TRANSPORT      0000001000+00003738+00000+0001T   00003738+0000001430          1500 NT1755               2 Z
323158000323158               323158               170213SB     1500+00000+SB0000020604+0000020604+000000000+000003093+0000023697+0000000000+I40000023697+0000000000+Z
323158001323158072-020244     323158000694202207840PET BED COTTON 90x70cm 0000001000+00018694+00000+0001T   00018694+0000001432          1500 NT1870               2 Z
323158002323158108-001225     323158006003000010240SALAD BOWL MINI 380ML  0000002000+00000955+00000+0001T   00000955+0000001432          1500 NT1210               2 Z
323159000323159               323159               170213SB     1500+00000+SB0000003738+0000003738+000000000+000000561+0000004299+0000000000+I40000004299+0000000000+Z
323159001323159562-000020     323159006001023800336EDU PLAY DOUGH 60g 4PC 0000001000+00003738+00000+0001T   00003738+0000001434          1500 NT1755               2 Z
323160000323160               323160               170213SB     1500+00000+SB0000001651+0000001651+000000000+000000248+0000001890+0000000009+I20000000000+0000001890+Z
323160001323160077-000303     323160006001023593757GIFT-BAG PAPER MED     0000001000+00001651+00000+0001T   00001651+0000001436          1500 NT11122IC            2 Z
323161000323161               323161               170213SB     1500+00000+SB0000006081+0000006081+000000000+000000915+0000006996+0000000000+I40000006996+0000000000+Z
323161001323161903-004950     323161006002580020304SWT APRICOT SURPRISE   0000001000+00001390+00000+0001T   00001390+0000001438          1500 NT1150               2 Z
323161002323161304-001011     323161006001023806727FLWR ROSE RED W/BEAR   0000002000+00000607+00000+0001T   00000825+0006481438          1500 NT1510               2 Z
323161003323161301-085004     323161006003000420469ORN LOVE PLAQUE 21X10CM0000001000+00003477+00000+0001T   00003999+0006481438          1500 NT1505               2 Z
323162000323162               323162               170213SB     1500+00000+SB0000002779+0000002779+000000000+000000418+0000003190+0000000007+I20000000000+0000003190+Z
323162001323162304-001011     323162006001023806727FLWR ROSE RED W/BEAR   0000001000+00000607+00000+0001T   00000825+0006481439          1500 NT1510               2 Z
323162002323162903-000670     323162006009803358008SWT SHERBET RED LIPS   0000001000+00000260+00000+0001T   00000260+0000001439          1500 NT1150               2 Z
323162003323162009-001309     323162006001023854667MELAMINE FLOWER BOWL   0000001000+00001912+00000+0001T   00001912+0000001439          1500 NT1210               2 Z
323163000323163               323163               170213SB     1500+00000+SB0000001390+0000001390+000000000+000000209+0000001590+0000000009+I20000000000+0000001590+Z
323163001323163108-009020-B   323163006005387000067SALAD SML W/LID ASSTD-C0000001000+00001390+00000+0001T   00001390+0000001439          1500 NT1210               2 Z
323164000323164               323164               170213SB     1500+00000+SB0000008345+0000008345+000000000+000001253+0000009590+0000000008+I20000000000+0000009590+Z
323164001323164034-079078     323164006001023996565COOEY BABY MANICURE-SET0000001000+00003738+00000+0001T   00003738+0000001440          1500 NT1215               2 Z
323164002323164034-079090     323164006001023855503COOEY BRUSH+COMB-SET   0000001000+00004607+00000+0001T   00004607+0000001440          1500 NT1215               2 Z
323165000323165               323165               170213SB     1500+00000+SB0000023645+0000023645+000000000+000003548+0000027190+0000000003+I20000000000+0000027190+Z
323165001323165015-000220     323165006003000467785CAKE-STAND 3-TIER GLASS0000001000+00016086+00000+0001T   00016086+0000001443          1500 NT1515               2 Z
323165002323165040-000183     323165006001023900784CANDLE-HLDR CERAMIC 6cm0000001000+00001303+00000+0001T   00001912+0008281443          1500 NT1510               2 Z
323165003323165073-000152     323165006003000683390COSMETIC BAG 18X9X5    0000001000+00001564+00000+0001T   00001564+0000001443          1500 NT1200               2 Z
323165004323165033-000780     323165006001023752611COSMETIC-BRUSH-SET 7PCE0000001000+00002346+00000+0001T   00002346+0000001443          1500 NT1200               2 Z
323165005323165033-000782     323165006001023905482COSMETIC SPONGES 12PC  0000001000+00002346+00000+0001T   00002346+0000001443          1500 NT1200               2 Z
323166000323166               323166               170213SB     1500+00000+SB0000004780+0000004780+000000000+000000718+0000005498+0000000000+I40000005498+0000000000+Z
323166001323166039-000336     323166006001023169129B'DAY-CANDLES MAGIC 10P0000001000+00001042+00000+0001T   00001042+0000001445          1500 NT1510               2 Z
323166002323166077-000934     323166006003000409921G/WRAP 700mmx5m BIRTHDA0000001000+00003738+00000+0001T   00003738+0000001445          1500 NT1112               2 Z
323167000323167               323167               170213SB     1500+00000+SB0000000955+0000000955+000000000+000000144+0000001090+0000000009+I20000000000+0000001090+Z
323167001323167077-000151     323167006008766114676GIFT-WRAP C/PHANE ASSTD0000001000+00000955+00000+0001T   00000955+0000001445          1500 NT1112               2 Z
323168000323168               323168               170213SB     1500+00000+SB0000004346+0000004346+000000000+000000652+0000004998+0000000000+I40000004998+0000000000+Z
323168001323168368-000049     323168006003000536955PLUSH BEAR 15cm LOVE   0000001000+00004346+00000+0001T   00004607+0006481449          1500 NT1745               2 Z
323169000323169               323169               170213SB     1500+00000+SB0000003297+0000003297+000000000+000000498+0000003790+0000000005+I20000000000+0000003790+Z
323169001323169304-001011     323169006001023806727FLWR ROSE RED W/BEAR   0000003000+00000607+00000+0001T   00000825+0006481459          1500 NT1510               2 Z
323169002323169018-000177     323169006001023797513MUG MINI LOVE ASSTD    0000002000+00000738+00000+0001T   00000738+0000001459          1500 NT1515               2 Z
323170000323170               323170               170213SB     1500+00000+SB0000003738+0000003738+000000000+000000561+0000004290+0000000009+I20000000000+0000004290+Z
323170001323170146-000430     323170006003000304639SPRAYER START-KIT 4PCE 0000001000+00003738+00000+0001T   00003738+0000001459          1500 NT1820               2 Z
323171000323171               323171               170213SB     1500+00000+SB0000033812+0000033812+000000000+000005076+0000038888+0000000000+I40000038888+0000000000+Z
323171001323171108-007000     323171006008766085105SERVING-TABLE          0000002000+00006520+00000+0001T   00006520+0000001506          1500 NT1210               2 Z
323171002323171106-003130     323171006001023625755ICE CUBE TRAY 21-CUBE  0000001000+00002346+00000+0001T   00002346+0000001506          1500 NT1210               2 Z
323171003323171106-003112     323171006003000593460ICE CUBE TRAY 25X12X3CM0000001000+00002781+00000+0001T   00002781+0000001506          1500 NT1210               2 Z
323171004323171002-000698-B   323171006003000292295K/GADGET SPOON 41.5CM  0000001000+00002260+00000+0001T   00002260+0000001506          1500 NT1300               2 Z
323171005323171077-000010-C   323171006001023123879CREPE-PAPER RED        0000001000+00000868+00000+0001T   00000868+0000001506          1500 NT1112               2 Z
323171006323171089-000184     323171006003000577323KEY CHAIN OWL POLY MINI0000001000+00003303+00000+0001T   00003303+0000001506          1500 NT1205               2 Z
323171007323171301-086007     323171006003000426706ORN OCC DAD WDN LETTERS0000001000+00004607+00000+0001T   00004607+0000001506          1500 NT1505               2 Z
323171008323171301-086005     323171006001023856289ORN OCC MOM WDN LETTERS0000001000+00004607+00000+0001T   00004607+0000001506          1500 NT1505               2 Z
323172000323172               323172               170213SB     1500+00000+SB0000005562+0000005562+000000000+000000836+0000006390+0000000008+I20000000000+0000006390+Z
323172001323172220-000032     323172006001023425065BUDGET TEASPOONS 12PCE 0000002000+00002781+00000+0001T   00002781+0000001506          1500 NT1300               2 Z
323173000323173               323173               170213SB     1500+00000+SB0000017340+0000017340+000000000+000002604+0000019940+0000000004+I20000000000+0000019940+Z
323173001323173018-005009     323173006001023725608MUG W/PLUSH-BEAR LOVE  0000001000+00003738+00000+0001T   00003738+0000001508          1500 NT1515               2 Z
323173002323173301-085001     323173006003000297610ORN WATERBALL LOVE ASST0000002000+00005129+00000+0001T   00005129+0000001508          1500 NT1505               2 Z
323173003323173077-000314     323173006003000181148GIFT-BAG 11X14CM MATT  0000001000+00000955+00000+0001T   00000955+0000001508          1500 NT1112               2 Z
323173004323173018-000177     323173006001023797513MUG MINI LOVE ASSTD    0000001000+00000738+00000+0001T   00000738+0000001508          1500 NT1515               2 Z
323173005323173077-000303     323173006001023593757GIFT-BAG PAPER MED     0000001000+00001651+00000+0001T   00001651+0000001508          1500 NT1112               2 Z
323174000323174               323174               170213SB     1500+00000+SB0000013735+0000013735+000000000+000002062+0000015797+0000000000+I40000015797+0000000000+Z
323174001323174301-085004     323174006003000420469ORN LOVE PLAQUE 21X10CM0000001000+00003477+00000+0001T   00003999+0006481523          1500 NT1505               2 Z
323174002323174301-085001     323174006003000297610ORN WATERBALL LOVE ASST0000002000+00005129+00000+0001T   00005129+0000001523          1500 NT1505               2 Z
323175000323175               323175               170213SB     1500+00000+SB0000004693+0000004693+000000000+000000705+0000005390+0000000008+I20000000000+0000005390+Z
323175001323175077-000151     323175006008766114676GIFT-WRAP C/PHANE ASSTD0000001000+00000955+00000+0001T   00000955+0000001530          1500 NT1112               2 Z
323175003323175103-000037     323175006003000568277BASKET WOVEN RECT      0000001000+00003738+00000+0001T   00003738+0000001530          1500 NT1300               2 Z
323176000323176               323176               170213SB     1500+00000+SB0000015128+0000015128+000000000+000002270+0000017398+0000000000+I40000017398+0000000000+Z
323176001323176018-019000     323176006003000557288MUG OCC. LOVE JUMBO    0000001000+00005564+00000+0001T   00005564+0000001532          1500 NT1515               2 Z
323176002323176368-000012     323176006003000610464PLUSH BEAR 30cm SITTING0000001000+00009564+00000+0001T   00009564+0000001532          1500 NT1745               2 Z
323177000323177               323177               170213SB     1500+00000+SB0000014171+0000014171+000000000+000002127+0000016290+0000000008+I20000000000+0000016290+Z
323177001323177077-000299     323177006003000395576G/BAG 32x25cm LRG LOVE 0000001000+00001564+00000+0001T   00001564+0000001533          1500 NT1112               2 Z
323177002323177368-000111     323177006001023780812PLUSH BEAR/DOG 29CM    0000001000+00012607+00000+0001T   00012607+0000001533          1500 NT1745               2 Z
323178000323178               323178               170213SB     1500+00000+SB0000005212+0000005212+000000000+000000784+0000005990+0000000006+I20000000000+0000005990+Z
323178001323178077-000245     323178006001023759214GIFT-RIBBON METALLICx2 0000004000+00001303+00000+0001T   00001303+0000001534          1500 NT1112               2 Z
323179000323179               323179               170213SB     1500+00000+SB0000001912+0000001912+000000000+000000287+0000002190+0000000009+I20000000000+0000002190+Z
323179001323179007-000724     323179006003000225958NOTE MAGNETIC 60SHTS   0000001000+00001912+00000+0001T   00001912+0000001535          1500 NT1130               2 Z
323180000323180               323180               170213SB     1500+00000+SB0000026339+0000026339+000000000+000003954+0000030293+0000000000+I40000030293+0000000000+Z
323180001323180002-000884     323180006001023769589CAN-OPENER BUTTERFLY   0000001000+00002781+00000+0001T   00002781+0000001540          1500 NT1300               2 Z
323180002323180024-000064     323180006003000196623EGG-BEATER MTL/PL WHITE0000001000+00007216+00000+0001T   00007216+0000001540          1500 NT1300               2 Z
323180003323180024-000038     323180006001023477026MEASURING-JUG 1L (4CUP)0000001000+00001912+00000+0001T   00001912+0000001540          1500 NT1300               2 Z
323180004323180002-000740     323180006001023763945GRATER 4-WAY WHITE     0000001000+00002346+00000+0001T   00002346+0000001540          1500 NT1300               2 Z
323180005323180159-003600     323180006001023606174TOILET-BRUSH W/STAND PL0000001000+00004607+00000+0001T   00004607+0000001540          1500 NT1200               2 Z
323180006323180002-000711     323180006003000442775C/BOARD WDN 24x33.5x1.60000001000+00007477+00000+0001T   00007477+0000001540          1500 NT1300               2 Z
323181000323181               323181               170213SB     1500+00000+SB0000000955+0000000955+000000000+000000144+0000001090+0000000009+I20000000000+0000001090+Z
323181001323181362-019375     323181006001023730664HAIR BAND SET 24PCE    0000001000+00000955+00000+0001T   00000955+0000001542          1500 NT1160               2 Z
323182000323182               323182               170213SB     1500+00000+SB0000020768+0000020768+000000000+000003120+0000023880+0000000008+I20000000000+0000023880+Z
323182001323182036-000151     323182006001023810588COATHANGERS    PACK-10 0000002000+00002955+00000+0001T   00002955+0000001548          1500 NT1212               2 Z
323182002323182006-000167-D   323182006003000517091BALLOONS PRPLE METALLIC0000001000+00001390+00000+0001T   00001390+0000001548          1500 NT1131               2 Z
323182003323182006-000167-E   323182006003000517213BALLOONS GOLD METALLIC 0000001000+00001390+00000+0001T   00001390+0000001548          1500 NT1131               2 Z
323182004323182006-000167-C   323182006003000516971BALLOONS PINK METALLIC 0000001000+00001390+00000+0001T   00001390+0000001548          1500 NT1131               2 Z
323182005323182006-000166-B   323182006003000516254BALLOONS LRG 6PC BLUE  0000001000+00001390+00000+0001T   00001390+0000001548          1500 NT1131               2 Z
323182006323182077-000299     323182006003000395576G/BAG 32x25cm LRG LOVE 0000002000+00001564+00000+0001T   00001564+0000001548          1500 NT1112               2 Z
323182007323182306-000024-A   323182006003000577309COTTON-WOOL-PADS 80PC  0000001000+00001912+00000+0001T   00001912+0000001548          1500 NT1200               2 Z
323182008323182369-001010     323182006001023864222BATH VINYL DUCK 4PC    0000001000+00002346+00000+0001T   00002346+0000001548          1500 NT1745               2 Z
323182009323182077-000240     323182006003000326259G/RIBBON 4PC PEARLIZED 0000001000+00001912+00000+0001T   00001912+0000001548          1500 NT1112               2 Z
323183000323183               323183               170213SB     1500+00000+SB0000003302+0000003302+000000000+000000496+0000003790+0000000008+I20000000000+0000003790+Z
323183001323183077-000303     323183006001023593757GIFT-BAG PAPER MED     0000002000+00001651+00000+0001T   00001651+0000001549          1500 NT1112               2 Z
323184000323184               323184               170213SB     1500+00000+SB0000000607+0000000607+000000000+000000092+0000000690+0000000009+I20000000000+0000000690+Z
323184001323184304-001011     323184006001023806727FLWR ROSE RED W/BEAR   0000001000+00000607+00000+0001T   00000825+0006481551          1500 NT1510               2 Z
323185000323185               323185               170213SB     1500+00000+SB0000005734+0000005734+000000000+000000862+0000006590+0000000006+I20000000000+0000006590+Z
323185001323185903-000138     323185006002099004314SWT GS WINE GUMS 60G   0000001000+00000868+00000+0001T   00000868+0000001552          1500 NT1150               2 Z
323185002323185903-004950     323185006002580020304SWT APRICOT SURPRISE   0000001000+00001390+00000+0001T   00001390+0000001552          1500 NT1150               2 Z
323185003323185903-002901     323185005996071650655QUICK MILK 5 S/BERRY   0000001000+00001738+00000+0001T   00001738+0000001552          1500 NT1150               2 Z
323185004323185903-002900     323185005996071650648QUICK MILK 5 CHOCO 5PC 0000001000+00001738+00000+0001T   00001738+0000001552          1500 NT1150               2 Z
323186000323186               323186               170213SB     1500+00000+SB0000003738+0000003738+000000000+000000561+0000004290+0000000009+I20000000000+0000004290+Z
323186001323186567-013439     323186009781775785590EK KAN LEES ASSTD      0000001000+00003738+00000+0001T   00003738+0000001553          1500 NT1757               2 Z
323187000323187               323187               170213SB     1500+00000+SB0000012156+0000012156+000000000+000001832+0000013980+0000000008+I20000000000+0000013980+Z
323187001323187077-000245     323187006001023759214GIFT-RIBBON METALLICx2 0000002000+00001303+00000+0001T   00001303+0000001555          1500 NT1112               2 Z
323187002323187077-000150-D   323187006003000054343GIFT-WRAP CELLPHANE CLR0000002000+00000955+00000+0001T   00000955+0000001555          1500 NT1112               2 Z
323187003323187077-000151     323187006008766114676GIFT-WRAP C/PHANE ASSTD0000008000+00000955+00000+0001T   00000955+0000001555          1500 NT1112               2 Z
323188000323188               323188               170213SB     1500+00000+SB0000002781+0000002781+000000000+000000418+0000003190+0000000009+I20000000000+0000003190+Z
323188001323188562-000504     323188006001023619327EDU CUBE RUBIX         0000001000+00002781+00000+0001T   00002781+0000001558          1500 NT1755               2 Z
323189000323189               323189               170213SB     1500+00000+SB0000001912+0000001912+000000000+000000287+0000002190+0000000009+I20000000000+0000002190+Z
323189001323189089-000028     323189006003000622252K/CHAIN MTL RELIGIOUS  0000001000+00001912+00000+0001T   00001912+0000001607          1500 NT1205               2 Z
323190000323190               323190               170213SB     1500+00000+SB0000003823+0000003823+000000000+000000575+0000004390+0000000008+I20000000000+0000004390+Z
323190001323190903-000843     323190008693029031067SWT GUMMY JELAXY 80G   0000001000+00001042+00000+0001T   00001042+0000001610          1500 NT1150               2 Z
323190002323190018-000129     323190006001023403353MUG OCC. LOVE V-SHAPE  0000001000+00002781+00000+0001T   00002781+0000001610          1500 NT1515               2 Z
323191000323191               323191               170213SB     1500+00000+SB0000002781+0000002781+000000000+000000418+0000003190+0000000009+I20000000000+0000003190+Z
323191001323191174-008026     323191006009654960429TRAVEL BOTTLES 2-PACK  0000001000+00002781+00000+0001T   00002781+0000001611          1500 NT1205               2 Z
323192000323192               323192               170213SB     1500+00000+SB0000008604+0000008604+000000000+000001292+0000009890+0000000006+I20000000000+0000009890+Z
323192001323192304-001204     323192006001023737984FLOWER OCC. TEDDY/ROSES0000001000+00001390+00000+0001T   00001564+0006481619          1500 NT1510               2 Z
323192002323192080-000113     323192006003000237449CARD&ENVLPE - LOVE     0000001000+00001912+00000+0001T   00001912+0000001619          1500 NT1112               2 Z
323192003323192018-005009     323192006001023725608MUG W/PLUSH-BEAR LOVE  0000001000+00003738+00000+0001T   00003738+0000001619          1500 NT1515               2 Z
323192004323192077-000452     323192006003000284986G/BAG METALLIC MED EMB 0000001000+00001564+00000+0001T   00001564+0000001619          1500 NT1112               2 Z
323193000323193               323193               170213SB     1500+00000+SB0000016692+0000016692+000000000+000002505+0000019197+0000000000+I40000019197+0000000000+Z
323193001323193031-086303-C   323193006003000322527P/FRM CHAMPAGNE 20X25CM0000003000+00005564+00000+0001T   00005564+0000001623          1500 NT1510               2 Z
323194000323194               323194               170213SB     1500+00000+SB0000016686+0000016686+000000000+000002508+0000019190+0000000004+I20000000000+0000019190+Z
323194001323194083-000058     323194006003000400331LIGHTER JET CIGAR REFIL0000001000+00002781+00000+0001T   00002781+0000001624          1500 NT1315               2 Z
323194002323194006-006019     323194006001023908193PARTY-SPRAY GLITTER    0000005000+00002781+00000+0001T   00002781+0000001624          1500 NT1131               2 Z
323195000323195               323195               170213SB     1500+00000+SB0000006122+0000006122+000000000+000000921+0000007040+0000000003+I20000000000+0000007040+Z
323195001323195903-000151     323195006009803374411SWT SML RND R/BOW LOLLY0000005000+00000564+00000+0001T   00000564+0000001626          1500 NT1150               2 Z
323195002323195903-000624     323195006003000671793SWEET LOLLY BLU/BRRY   0000001000+00001912+00000+0001T   00001912+0000001626          1500 NT1150               2 Z
323195003323195903-004950     323195006002580020304SWT APRICOT SURPRISE   0000001000+00001390+00000+0001T   00001390+0000001626          1500 NT1150               2 Z
323196000323196               323196               170213SB     1500+00000+SB0000011815+0000011815+000000000+000001774+0000013580+0000000009+I20000000000+0000013580+Z
323196001323196071-003003     323196006003000144525PEN BALL PEN 3PCE BLACK0000001000+00000955+00000+0001T   00000955+0000001627          1500 NT1130               2 Z
323196002323196039-000021     323196006003000285907C/TAPERED 25CM M/SILVER0000004000+00001086+00000+0001T   00001086+0000001627          1500 NT1510               2 Z
323196003323196039-000033     323196006003000287307CANDLE TAPERED 25cm    0000002000+00001086+00000+0001T   00001086+0000001627          1500 NT1510               2 Z
323196004323196039-000021     323196006003000285907C/TAPERED 25CM M/SILVER0000001000+00001086+00000+0001T   00001086+0000001627          1500 NT1510               2 Z
323196005323196039-000033     323196006003000287307CANDLE TAPERED 25cm    0000003000+00001086+00000+0001T   00001086+0000001627          1500 NT1510               2 Z
323197000323197               323197               170213SB     1500+00000+SB0000009564+0000009564+000000000+000001435+0000010990+0000000009+I20000000000+0000010990+Z
323197001323197368-000012     323197006003000610464PLUSH BEAR 30cm SITTING0000001000+00009564+00000+0001T   00009564+0000001628          1500 NT1745               2 Z
323198000323198               323198               170213SB     1500+00000+SB0000004256+0000004256+000000000+000000640+0000004890+0000000006+I20000000000+0000004890+Z
323198001323198018-000177     323198006001023797513MUG MINI LOVE ASSTD    0000002000+00000738+00000+0001T   00000738+0000001631          1500 NT1515               2 Z
323198002323198304-001204     323198006001023737984FLOWER OCC. TEDDY/ROSES0000002000+00001390+00000+0001T   00001564+0006481631          1500 NT1510               2 Z
323199000323199               323199               170213SB     1500+00000+SB0000001390+0000001390+000000000+000000209+0000001590+0000000009+I20000000000+0000001590+Z
323199001323199304-001204     323199006001023737984FLOWER OCC. TEDDY/ROSES0000001000+00001390+00000+0001T   00001564+0006481635          1500 NT1510               2 Z
323200000323200               323200               170213SB     1500+00000+SB0000001912+0000001912+000000000+000000287+0000002190+0000000009+I20000000000+0000002190+Z
323200001323200903-000912     323200006009802868461SWT GUM TAPE HOT WHEELS0000001000+00001912+00000+0001T   00001912+0000001636          1500 NT1150               2 Z
323201000323201               323201               170213SB     1500+00000+SB0000000955+0000000955+000000000+000000144+0000001090+0000000009+I20000000000+0000001090+Z
323201001323201028-000797     323201006001023812124SKEWERS 15cm 100PCE    0000001000+00000955+00000+0001T   00000955+0000001637          1500 NT1305               2 Z
323202000323202               323202               170213SB     1500+00000+SB0000001129+0000001129+000000000+000000170+0000001290+0000000009+I20000000000+0000001290+Z
323202001323202079-009702-A   323202008427973059408PAPER SIRIO A2 BLACK   0000001000+00001129+00000+0001T   00001129+0000001638          1500 NT1130               2 Z
323203000323203               323203               170213SB     1500+00000+SB0000004519+0000004519+000000000+000000679+0000005190+0000000008+I20000000000+0000005190+Z
323203001323203030-000030-B   323203006003000249381PLAQUE GLASS MOM       0000001000+00003129+00000+0001T   00003129+0000001640          1500 NT1505               2 Z
323203002323203077-000407     323203006003000145096G/BAG PP 19X26X8CM     0000001000+00001390+00000+0001T   00001390+0000001640          1500 NT1112               2 Z
323204000323204               323204               170213SB     1500+00000+SB0000003824+0000003824+000000000+000000574+0000004390+0000000008+I20000000000+0000004390+Z
323204001323204366-006104     323204006003000616930DRESS UP FACE PAINT    0000002000+00001912+00000+0001T   00001912+0000001643          1500 NT1131               2 Z
323205000323205               323205               170213SB     1500+00000+SB0000017735+0000017735+000000000+000002662+0000020397+0000000000+I40000020397+0000000000+Z
323205001323205071-005213     323205006001023690371CELLOTAPE 12mmx33m     0000001000+00000955+00000+0001T   00000955+0000001644          1500 NT1130               2 Z
323205002323205077-000934     323205006003000409921G/WRAP 700mmx5m BIRTHDA0000001000+00003738+00000+0001T   00003738+0000001644          1500 NT1112               2 Z
323205003323205266-007799     323205006003000023868BOYS PLAYSET SET       0000001000+00013042+00000+0001T   00013042+0000001644          1500 NT1710               2 Z
323206000323206               323206               170213SB     1500+00000+SB0000005564+0000005564+000000000+000000835+0000006390+0000000009+I20000000000+0000006390+Z
323206001323206031-086103     323206006001023900746P/FRAME GLS FILM 2HOLE 0000001000+00005564+00000+0001T   00005564+0000001646          1500 NT1510               2 Z
323207000323207               323207               170213SB     1500+00000+SB0000018258+0000018258+000000000+000002740+0000020998+0000000000+I40000020998+0000000000+Z
323207001323207039-000799     323207006001023692382CANDLES TEALITE 100PCE 0000001000+00008694+00000+0001T   00009564+0008301648          1500 NT1510               2 Z
323207002323207031-000924     323207006001023669964P/FRAME COLLAGE PL     0000001000+00009564+00000+0001T   00009564+0000001648          1500 NT1510               2 Z
323208000323208               323208               170213SB     1500+00000+SB0000001564+0000001564+000000000+000000235+0000001790+0000000009+I20000000000+0000001790+Z
323208001323208077-000299     323208006003000395576G/BAG 32x25cm LRG LOVE 0000001000+00001564+00000+0001T   00001564+0000001648          1500 NT1112               2 Z
323209000323209               323209               170213SB     1500+00000+SB0000003738+0000003738+000000000+000000561+0000004299+0000000000+I40000004299+0000000000+Z
323209001323209031-000002     323209006001023851338FRAME FRIENDS 7.5x7.5cm0000001000+00003738+00000+0001T   00003738+0000001650          1500 NT1510               2 Z
323210000323210               323210               170213SB     1500+00000+SB0000005477+0000005477+000000000+000000822+0000006290+0000000009+I20000000000+0000006290+Z
323210001323210016-006540     323210006003000579754S/JAR GLS COUNTER 2SIDE0000001000+00005477+00000+0001T   00005477+0000001650          1500 NT1300               2 Z
323211000323211               323211               170213SB     1500+00000+SB0000010556+0000010556+000000000+000001587+0000012143+0000000000+I40000012143+0000000000+Z
323211001323211565-000084     323211006003000643431NOVELTY CATAPULT B/FLY 0000001000+00001912+00000+0001T   00001912+0000001654          1500 NT1745               2 Z
323211002323211106-005120     323211006001023897336ICE-LOLLY-MAKER 6PCE   0000001000+00003303+00000+0001T   00003303+0000001654          1500 NT1210               2 Z
323211003323211002-000805     323211006001023575982PEELER PL Y-SHAPE 3-ASS0000001000+00001912+00000+0001T   00001912+0000001654          1500 NT1300               2 Z
323211004323211150-003733     323211006003000561735SINK STRAINER S/S 1PCE 0000001000+00001564+00000+0001T   00001564+0000001654          1500 NT1810               2 Z
323211005323211306-000023-A   323211006003000110148COTTON WOOL BALLS 50PCE0000002000+00000694+00000+0001T   00001390+0008281654          1500 NT1200               2 Z
323211006323211903-000885     323211008690997017147SWT L/BIRD CHOC BISCUIT0000001000+00000477+00000+0001T   00000477+0000001654          1500 NT1150               2 Z
323212000323212               323212               170213SB     1500+00000+SB0000029210+0000029210+000000000+000004385+0000033595+0000000000+I40000033595+0000000000+Z
323212001323212368-000614     323212006001023705808PLUSH LOVE 30cm        0000003000+00008694+00000+0001T   00009564+0006481700          1500 NT1745               2 Z
323212002323212077-000299     323212006003000395576G/BAG 32x25cm LRG LOVE 0000002000+00001564+00000+0001T   00001564+0000001700          1500 NT11122IC            2 Z
323213000323213               323213               170213SB     1500+00000+SB0000008694-0000008694-000000000+000001305-0000010000-0000000001+I20000000000+0000010000-Z
323213001323213368-000614     323213006001023705808PLUSH LOVE 30cm        0000001000-00008694+00000+0001T   00009564+0006481702          1500 NT17452IC            2 Z
323214000323214               323214               170213SB     1500+00000+SB0000002781+0000002781+000000000+000000418+0000003190+0000000009+I20000000000+0000003190+Z
323214001323214077-000270     323214006003000395453GIFT-BAG PPR JMB 33X45 0000001000+00002781+00000+0001T   00002781+0000001704          1500 NT1112               2 Z
323215000323215               323215               170213SB     1500+00000+SB0000000955+0000000955+000000000+000000144+0000001090+0000000009+I20000000000+0000001090+Z
323215001323215077-000150-D   323215006003000054343GIFT-WRAP CELLPHANE CLR0000001000+00000955+00000+0001T   00000955+0000001704          1500 NT1112               2 Z
323216000323216               323216               170213SB     1500+00000+SB0000002866+0000002866+000000000+000000431+0000003290+0000000007+I20000000000+0000003290+Z
323216001323216033-001399     323216006001023905512HAIR-PINS 100PCE       0000001000+00001912+00000+0001T   00001912+0000001705          1500 NT1200               2 Z
323216002323216903-000011     323216006002099007315SWT MALLOW CHOC 15G    0000002000+00000477+00000+0001T   00000477+0000001705          1500 NT1150               2 Z
323217000323217               323217               170213SB     1500+00000+SB0000006519+0000006519+000000000+000000979+0000007490+0000000008+I20000000000+0000007490+Z
323217001323217158-003092     323217006003000621644PAPER TOWEL HOLDER CHR 0000001000+00005564+00000+0001T   00005564+0000001711          1500 NT1300               2 Z
323217002323217077-000150-D   323217006003000054343GIFT-WRAP CELLPHANE CLR0000001000+00000955+00000+0001T   00000955+0000001711          1500 NT1112               2 Z
323218000323218               323218               170213SB     1500+00000+SB0000002128+0000002128+000000000+000000320+0000002440+0000000008+I20000000000+0000002440+Z
323218001323218903-004950     323218006002580020304SWT APRICOT SURPRISE   0000001000+00001390+00000+0001T   00001390+0000001714          1500 NT1150               2 Z
323218002323218903-000807     323218006009680772317SWT CHEWEEZ APPLE 36g  0000001000+00000738+00000+0001T   00000738+0000001714          1500 NT1150               2 Z
323219000323219               323219               170213SB     1500+00000+SB0000009040+0000009040+000000000+000001356+0000010390+0000000006+I20000000000+0000010390+Z
323219001323219024-091103     323219006003453014307BAKING-CUP MUFFIN 50PCE0000004000+00002260+00000+0001T   00002260+0000001715          1500 NT1300               2 Z
323220000323220               323220               170213SB     1500+00000+SB0000017563+0000017563+000000000+000002635+0000020198+0000000000+I40000020198+0000000000+Z
323220001323220077-000328     323220006003000668939GIFT-BAG PAPER JMB     0000001000+00001912+00000+0001T   00001912+0000001720          1500 NT1112               2 Z
323220002323220365-000009     323220006003000166305P/SET DOCTOR SET LIGHT 0000001000+00015651+00000+0001T   00018694+0008301720          1500 NT1725               2 Z
323221000323221               323221               170213SB     1500+00000+SB0000016686+0000016686+000000000+000002508+0000019190+0000000004+I20000000000+0000019190+Z
323221001323221039-000100     32322100600300060614625CM WHITE CANDLE 6PC  0000006000+00002781+00000+0001T   00002781+0000001720          1500 NT1510               2 Z
A17021300                                          09083954SBSLAVE 2                       NT13IC
A17021301                                          10465539SBSLAVE 2                       NT13IC
A17021302                                          13494606SBSLAVE 2                       NT13IC
B32316000                                          170213SB077-000303     14360939SLAVE 2     NT12IC0000003000+0000001000+0000000000000+
B32321200                                          170213SB077-000299     16581440SLAVE 2     NT12IC0000006000+0000002000+0000000000000+
C32317500                                          170213SB103-000068     15290808SLAVE 2     NT12IC0000000000+0000000000+0020000001000+
C32318400                                          170213SB304-001204     15513862SLAVE 2     NT12IC0000000000+0000000000+0010000001000+
M17021301                              SHIEEHAAM   SBSLAVE1:Z/READING:7096.05                              :C/BANKING:4808.50                              :C/CARDS  :2101.50                              :P/OUTS   :190.20C/WAGES                        :SALICIA  :OVER 3.70                                                                      SLAVE2:Z/READING:11153.09                             :C/BANKING:5950.70                              :C/CARDS  :5214.19                              :P/OUTS   :0.00                                 :CLAUDIUS :OVER 11.80                                                                     SLAVE4:Z/READING:1449.94                              :C/BANKING:1287.00                              :C/CARDS  :162.94                               :P/OUTS   :0.00                                 :MAGGIE   :OVER 0.50                                                                      THANKS                                          SB
M17021302                              IT          SBLAST TILL SLIP NO~                              SLAVE1:319278                                   SLAVE2:323221                                   SLAVE4:348967                                                                                   THANKS                                          SB
M17021303                              FC2         SBNO~ OF FOOTCOUNTS                               SLAVE1:75                                       SLAVE2:125                                      SLAVE4:25                                                                                       THANKS                                          SB
M17021391                              CASH        SBSLAVE 2                       Z-REPORT No.   478TOTAL (Sales - Refunds)          11153.09       CASH TO BE BANKED                 5950.70       DEBIT CARDS                          0.00       CREDIT CARDS                      5214.19       Z-READING                        11153.09       AIRTIME DEBIT CARD SALES             0.00       AIRTIME CARD SALES                   0.00       OVERS/UNDERS                        11.80       AIRTIME CASH SALES                   0.00       GIFT CARDS                           0.00       GIFT CARD CASH SALES                 0.00       T O T A L  CASH PAYOUTS              0.00                                                                                                                                                                                                                                                                                                                                                      Z
M17021392                              CASH        SBABSENT                                                                                                                                                                                          ANNUAL LEAVE                                                                                                                                                                                    DAY OFF                                                                                                                                                                                         COMMENTS          CASHIER CLAUDIUS OVER 11.80                                                                                                                                                                                                                                                                                                                                                  Z
Y17021300                                          SB00012500981635+000126
ZSB17021320213 SLAVE 2      SALES DATA                     NEXT INVOICE NO.  323222 0478
F094340019-071599         1702100939440000202ICSLAVE 2
F094783019-000130         1702100939560000102ICSLAVE 2
X SB Slave 2 First invoice 323095 170213 Last invoice 323221 170213 Next invoice 323222 Total number of records 000000421 clbackup completed 20:21:21
