348943000348943               348943               170213SB     1500+00000+SB0000003477+0000003477+000000000+000000522+0000003999+0000000000+I40000003999+0000000000+Z
348943001348943301-085004     348943006003000420469ORN LOVE PLAQUE 21X10CM0000001000+00003477+00000+0001T   00003999+0006481332          1500 HB2505               4 Z
348944000348944               348944               170213SB     1500+00000+SB0000002781+0000002781+000000000+000000418+0000003190+0000000009+I20000000000+0000003190+Z
348944001348944566-000006     348944006001023671189STICKER-BOOK DRESS-UP  0000001000+00002781+00000+0001T   00002781+0000001543          1500 HB2130               4 Z
348945000348945               348945               170213SB     1500+00000+SB0000008707+0000008707+000000000+000001311+0000010010+0000000008+I20000000000+0000010010+Z
348945001348945007-000405     348945006009635830369EXERCISE-BOOK A5 72PAGE0000001000+00000286+00000+0001T   00000286+0000001648          1500 HB2130               4 Z
348945002348945007-000193     348945006009635831731BK JOTTER A4 72-PG F/M 0000005000+00000477+00000+0001T   00000477+0000001648          1500 HB2130               4 Z
348945003348945071-009852     348945006003000676606PENCIL CASE MESH COLOUR0000001000+00002346+00000+0001T   00002346+0000001648          1500 HB2130               4 Z
348945004348945071-001238     348945000060107212485ERASERS  3PCE    CARDED0000001000+00000955+00000+0001T   00000955+0000001648          1500 HB2130               4 Z
348945005348945071-003004     348945006003000662821PEN BALL POINT 3PC BLUE0000001000+00000955+00000+0001T   00000955+0000001648          1500 HB2130               4 Z
348945006348945071-003866     348945006003000590018PENCIL NOVELTY RULER   0000001000+00001390+00000+0001T   00001390+0000001648          1500 HB2130               4 Z
348945007348945007-000167     348945006009685857347SPIRAL NOTES A7 72PG   0000001000+00000390+00000+0001T   00000390+0000001648          1500 HB2130               4 Z
348946000348946               348946               170213SB     1500+00000+SB0000012083+0000012083+000000000+000001814+0000013890+0000000007+I20000000000+0000013890+Z
348946001348946304-001204     348946006001023737984FLOWER OCC. TEDDY/ROSES0000001000+00001390+00000+0001T   00001564+0006481649          1500 HB2510               4 Z
348946002348946019-000051     348946006003000457304VASE GLS ASSORTED      0000001000+00006086+00000+0001T   00006346+0008091649          1500 HB2510               4 Z
348946003348946018-030000     348946006003000421060MUG OCCASIONS LOVE 2PCE0000001000+00004607+00000+0001T   00004607+0000001649          1500 HB2515               4 Z
348947000348947               348947               170213SB     1500+00000+SB0000003824+0000003824+000000000+000000574+0000004390+0000000008+I20000000000+0000004390+Z
348947001348947006-000119     348947006001023730756BALLOONS 12PC MIX COLS 0000002000+00001912+00000+0001T   00001912+0000001651          1500 HB2131               4 Z
348948000348948               348948               170213SB     1500+00000+SB0000014951+0000014951+000000000+000002244+0000017190+0000000005+I20000000000+0000017190+Z
348948001348948002-220006     348948006001023670342FOOD COVER 43CM ASSTD  0000001000+00003303+00000+0001T   00003303+0000001652          1500 HB2300               4 Z
348948002348948046-000012     348948006904708013062BATTERIES AA  CARD-OF-40000001000+00001390+00000+0001T   00001390+0000001652          1500 HB2312               4 Z
348948003348948036-000350     348948006003000247776HANGER MTL (FOR SCARVES0000001000+00006520+00000+0001T   00006520+0000001652          1500 HB2212               4 Z
348948004348948037-000002     348948006001023994745ASHTRAY SPIN METAL 9cm 0000001000+00003738+00000+0001T   00003738+0000001652          1500 HB2515               4 Z
348949000348949               348949               170213SB     1500+00000+SB0000001912+0000001912+000000000+000000287+0000002190+0000000009+I20000000000+0000002190+Z
348949001348949077-000309     348949006001023608604GIFT-BAG 25X32CM GLOSS 0000001000+00001912+00000+0001T   00001912+0000001654          1500 HB2112               4 Z
348950000348950               348950               170213SB     1500+00000+SB0000001912+0000001912+000000000+000000287+0000002190+0000000009+I20000000000+0000002190+Z
348950001348950079-013032-J   348950006003000542710A&C DIY COLOUR P/FLOWER0000001000+00001912+00000+0001T   00001912+0000001655          1500 HB2130               4 Z
348951000348951               348951               170213SB     1500+00000+SB0000010075+0000010075+000000000+000001517+0000011590+0000000002+I20000000000+0000011590+Z
348951001348951077-000270     348951006003000395453GIFT-BAG PPR JMB 33X45 0000001000+00002781+00000+0001T   00002781+0000001702          1500 HB2112               4 Z
348951002348951903-000215     348951006002099001214SWT GS MALLOW TWIST PAC0000001000+00001912+00000+0001T   00001912+0000001702          1500 HB2150               4 Z
348951003348951903-000138     348951006002099004314SWT GS WINE GUMS 60G   0000004000+00000868+00000+0001T   00000868+0000001702          1500 HB2150               4 Z
348951004348951077-000150-D   348951006003000054343GIFT-WRAP CELLPHANE CLR0000002000+00000955+00000+0001T   00000955+0000001702          1500 HB2112               4 Z
348952000348952               348952               170213SB     1500+00000+SB0000000651+0000000651+000000000+000000098+0000000740+0000000009+I20000000000+0000000740+Z
348952001348952077-000311     348952006001023608666GIFT-BAG 11X14CM GLOSS 0000001000+00000651+00000+0001T   00000651+0000001702          1500 HB2112               4 Z
348953000348953               348953               170213SB     1500+00000+SB0000005997+0000005997+000000000+000000900+0000006890+0000000007+I20000000000+0000006890+Z
348953001348953368-000101     348953006003000449859PLUSH CAT 17cm KITTY   0000001000+00005477+00000+0001T   00005477+0000001703          1500 HB2745               4 Z
348953002348953903-000671     348953006009803358015SWT SHERBET BLUE LIPS  0000001000+00000260+00000+0001T   00000260+0000001703          1500 HB2150               4 Z
348953003348953903-000670     348953006009803358008SWT SHERBET RED LIPS   0000001000+00000260+00000+0001T   00000260+0000001703          1500 HB2150               4 Z
348954000348954               348954               170213SB     1500+00000+SB0000001912+0000001912+000000000+000000287+0000002190+0000000009+I20000000000+0000002190+Z
348954001348954077-000290     348954006001023902023GIFT BOX 26x32x13cm    0000001000+00001912+00000+0001T   00001912+0000001724          1500 HB2112               4 Z
348955000348955               348955               170213SB     1500+00000+SB0000012253+0000012253+000000000+000001841+0000014090+0000000004+I20000000000+0000014090+Z
348955001348955903-000503     348955006001704006118SWT VAMPIRE FANGS 60G  0000001000+00000955+00000+0001T   00000955+0000001726          1500 HB2150               4 Z
348955002348955903-000087     348955006001704000161SWT SPECKLED-EGGS 50G  0000001000+00001216+00000+0001T   00001216+0000001726          1500 HB2150               4 Z
348955003348955903-000809     348955006009680772232SWT CANDY FROOTEEZ 50g 0000001000+00000955+00000+0001T   00000955+0000001726          1500 HB2150               4 Z
348955004348955080-000113     348955006003000237449CARD&ENVLPE - LOVE     0000001000+00001912+00000+0001T   00001912+0000001726          1500 HB2112               4 Z
348955005348955018-019000     348955006003000557288MUG OCC. LOVE JUMBO    0000001000+00005564+00000+0001T   00005564+0000001726          1500 HB2515               4 Z
348955006348955077-000303     348955006001023593757GIFT-BAG PAPER MED     0000001000+00001651+00000+0001T   00001651+0000001726          1500 HB2112               4 Z
348956000348956               348956               170213SB     1500+00000+SB0000005998+0000005998+000000000+000000900+0000006890+0000000008+I20000000000+0000006890+Z
348956001348956034-079070     348956006001023834676COOEY TEETHER ASSTD    0000001000+00002260+00000+0001T   00002260+0000001727          1500 HB2215               4 Z
348956002348956030-004070     348956006003000674381P/WDN SIGN 12X20CM ASS 0000001000+00003738+00000+0001T   00003738+0000001727          1500 HB2505               4 Z
348957000348957               348957               170213SB     1500+00000+SB0000001738+0000001738+000000000+000000261+0000001990+0000000009+I20000000000+0000001990+Z
348957001348957072-000325     348957006003000452323PET COLLAR PENDENT ASST0000001000+00001738+00000+0001T   00002781+0008301728          1500 HB2870               4 Z
348958000348958               348958               170213SB     1500+00000+SB0000005477+0000005477+000000000+000000822+0000006290+0000000009+I20000000000+0000006290+Z
348958001348958562-006274     348958006001023744432EDU SKETCH-BOARD       0000001000+00005477+00000+0001T   00005477+0000001731          1500 HB2755               4 Z
348959000348959               348959               170213SB     1500+00000+SB0000001564+0000001564+000000000+000000235+0000001790+0000000009+I20000000000+0000001790+Z
348959001348959077-000299     348959006003000395576G/BAG 32x25cm LRG LOVE 0000001000+00001564+00000+0001T   00001564+0000001732          1500 HB2112               4 Z
348960000348960               348960               170213SB     1500+00000+SB0000002781+0000002781+000000000+000000418+0000003190+0000000009+I20000000000+0000003190+Z
348960001348960106-001099     348960006003000653447WATER BOTTLE 650ml     0000001000+00002781+00000+0001T   00002781+0000001754          1500 HB2210               4 Z
348961000348961               348961               170213SB     1500+00000+SB0000001564+0000001564+000000000+000000235+0000001790+0000000009+I20000000000+0000001790+Z
348961001348961077-000452     348961006003000284986G/BAG METALLIC MED EMB 0000001000+00001564+00000+0001T   00001564+0000001756          1500 HB2112               4 Z
348962000348962               348962               170213SB     1500+00000+SB0000006605+0000006605+000000000+000000992+0000007597+0000000000+I40000007597+0000000000+Z
348962001348962566-020150     348962006001023889126STICKERS FOAM 3D ASSTD 0000001000+00001912+00000+0001T   00001912+0000001758          1500 HB2130               4 Z
348962002348962566-000308     348962006003000522521STICKER TAPE 3PCS      0000001000+00002781+00000+0001T   00002781+0000001758          1500 HB2130               4 Z
348962003348962566-000028     348962006003000265541STICKER BK ASSTD 250PCE0000001000+00001912+00000+0001T   00001912+0000001758          1500 HB2130               4 Z
348963000348963               348963               170213SB     1500+00000+SB0000002781+0000002781+000000000+000000418+0000003190+0000000009+I20000000000+0000003190+Z
348963001348963566-000006     348963006001023671189STICKER-BOOK DRESS-UP  0000001000+00002781+00000+0001T   00002781+0000001800          1500 HB2130               4 Z
348964000348964               348964               170213SB     1500+00000+SB0000000955+0000000955+000000000+000000144+0000001090+0000000009+I20000000000+0000001090+Z
348964001348964077-000150-D   348964006003000054343GIFT-WRAP CELLPHANE CLR0000001000+00000955+00000+0001T   00000955+0000001801          1500 HB2112               4 Z
348965000348965               348965               170213SB     1500+00000+SB0000004693+0000004693+000000000+000000705+0000005390+0000000008+I20000000000+0000005390+Z
348965001348965039-000320     348965006001023816153BIRTHDAY-CANDLES 13PCE 0000001000+00002781+00000+0001T   00002781+0000001802          1500 HB2510               4 Z
348965002348965006-000124     348965006003000625888BALLOONS 10PC MIX COL  0000001000+00001912+00000+0001T   00001912+0000001802          1500 HB2131               4 Z
348966000348966               348966               170213SB     1500+00000+SB0000004084+0000004084+000000000+000000614+0000004698+0000000000+I40000004698+0000000000+Z
348966001348966077-000245     348966006001023759214GIFT-RIBBON METALLICx2 0000001000+00001303+00000+0001T   00001303+0000001804          1500 HB2112               4 Z
348966002348966077-000115-B   348966006003000181025GIFT-WRAP PPR 700MMX2M 0000001000+00002781+00000+0001T   00002781+0000001804          1500 HB2112               4 Z
348967000348967               348967               170213SB     1500+00000+SB0000007429+0000007429+000000000+000001116+0000008540+0000000005+I20000000000+0000008540+Z
348967001348967089-000501     348967006003000622900KEY CHAIN LIGHT LASER  0000001000+00002346+00000+0001T   00002346+0000001805          1500 HB2205               4 Z
348967002348967046-000012     348967006904708013062BATTERIES AA  CARD-OF-40000001000+00001390+00000+0001T   00001390+0000001805          1500 HB2312               4 Z
348967003348967036-000151     348967006001023810588COATHANGERS    PACK-10 0000001000+00002955+00000+0001T   00002955+0000001805          1500 HB2212               4 Z
348967004348967464-000121     348967006003000640492PLAYING CARDS MINI     0000001000+00000738+00000+0001T   00000738+0000001805          1500 HB2785               4 Z
A17021300                                          15355320SBSLAVE 4                       HB22IC
M17021391                              CASH        SBSLAVE 4                       Z-REPORT No.   412TOTAL (Sales - Refunds)           1449.94       CASH TO BE BANKED                 1287.50       DEBIT CARDS                          0.00       CREDIT CARDS                       162.94       Z-READING                         1449.94       AIRTIME DEBIT CARD SALES             0.00       AIRTIME CARD SALES                   0.00       OVERS/UNDERS                         0.50       AIRTIME CASH SALES                   0.00       GIFT CARDS                           0.00       GIFT CARD CASH SALES                 0.00       T O T A L  CASH PAYOUTS              0.00                                                                                                                                                                                                                                                                                                                                                      Z
M17021392                              CASH        SBABSENT                                                                                                                                                                                          ANNUAL LEAVE                                                                                                                                                                                    DAY OFF                                                                                                                                                                                         COMMENTS          MAGGIE                                          0.50 OVER                                                                                                                                                                                                                                                                                                                    Z
Y17021300                                          SB00002500126204+000025
ZSB17021320213 SLAVE 4      SALES DATA                     NEXT INVOICE NO.  348968 0412
F094340019-071599         1702100941330000202ICSLAVE 4
F094783019-000130         1702100941420000102ICSLAVE 4
X SB Slave 4 First invoice 348943 170213 Last invoice 348967 170213 Next invoice 348968 Total number of records 000000086 clbackup completed 20:21:24
