404986000404986               404986               170213SC     1500+00000+SC0000016086+0000016086+000000000+000002413+0000018490+0000000009+I20000000000+0000018490+Z
404986001404986469-004001     404986006003000241927B/BLOCKS 66PC POLICE   0000001000+00016086+00000+0001T   00016086+0000000903          1500 AG3755               1 Z
404987000404987               404987               170213SC     1500+00000+SC0000006733+0000006733+000000000+000001012+0000007740+0000000005+I20000000000+0000007740+Z
404987001404987089-001021     404987006003000112319KEY CHAIN MINI BIBLE   0000001000+00001564+00000+0001T   00001564+0000000914          1500 AG3205               1 Z
404987002404987159-000637     404987006001023735058BATH PUMICE STONE      0000001000+00000738+00000+0001T   00000738+0000000914          1500 AG3200               1 Z
404987003404987306-000540     404987006003000165780T/BRUSH+GUM PROTECTION 0000001000+00001564+00000+0001T   00001564+0000000914          1500 AG3200               1 Z
404987004404987306-000969     404987006003000559350FIRSTAID PLASTER 10PC  0000001000+00001564+00000+0001T   00001564+0000000914          1500 AG3200               1 Z
404987005404987903-000194     404987006009826020616SWT CHOC RP LOLLY 25G  0000001000+00001303+00000+0001T   00001390+0006480914          1500 AG3150               1 Z
404988000404988               404988               170213SC     1500+00000+SC0000000738+0000000738+000000000+000000111+0000000840+0000000009+I20000000000+0000000840+Z
404988001404988007-000128     404988006009635830475BOOK H/COVER A5 96-PAGE0000001000+00000738+00000+0001T   00000738+0000000914          1500 AG3130               1 Z
404989000404989               404989               170213SC     1500+00000+SC0000003824+0000003824+000000000+000000574+0000004390+0000000008+I20000000000+0000004390+Z
404989001404989463-000124     404989006001023678768SWIM-GOGGLES           0000002000+00001912+00000+0001T   00001912+0000000915          1500 AG3785               1 Z
404990000404990               404990               170213SC     1500+00000+SC0000008256+0000008256+000000000+000001240+0000009490+0000000006+I20000000000+0000009490+Z
404990001404990040-000051     404990006001023799494C/HOLDER GLASS LANTERN 0000001000+00003303+00000+0001T   00003303+0000000921          1500 AG3510               1 Z
404990002404990017-000199     40499000600300037852460-PHOTO WEDDING ALBUM 0000001000+00001738+00000+0001T   00002781+0008280921          1500 AG3510               1 Z
404990003404990077-000322     404990006001023677532GIFT-BAG 18X23CM E/D FL0000001000+00001303+00000+0001T   00001303+0000000921          1500 AG3112               1 Z
404990004404990034-078800     404990006001023856555COOEY WET-WIPES 60PCE  0000001000+00001912+00000+0001T   00001912+0000000921          1500 AG3215               1 Z
404991000404991               404991               170213SC     1500+00000+SC0000025906+0000025906+000000000+000003888+0000029790+0000000004+I20000000000+0000029790+Z
404991001404991028-000401     404991006001023120632PLATE-HOLDERS 4PCE  H&L0000002000+00005477+00000+0001T   00005477+0000000929          1500 AG3305               1 Z
404991002404991103-000090     404991006001023795786WOVEN HEART SHAPED     0000004000+00003738+00000+0001T   00003738+0000000929          1500 AG3300               1 Z
404992000404992               404992               170213SC     1500+00000+SC0000000955+0000000955+000000000+000000144+0000001090+0000000009+I20000000000+0000001090+Z
404992001404992071-005213     404992006001023690371CELLOTAPE 12mmx33m     0000001000+00000955+00000+0001T   00000955+0000000932          1500 AG3130               1 Z
404993000404993               404993               170213SC     1500+00000+SC0000011734+0000011734+000000000+000001762+0000013490+0000000006+I20000000000+0000013490+Z
404993001404993024-000168-B   404993006003000674916T/PLATE BAKEWARE ROASTE0000001000+00005564+00000+0001T   00005564+0000000935          1500 AG3300               1 Z
404993002404993002-000652     404993006001023553188M/SPOON WDN 3PC H/HOUSE0000001000+00003303+00000+0001T   00003303+0000000935          1500 AG3300               1 Z
404993003404993033-000106     404993006001023678027ELASTIC  6mmx3m  CARDED0000001000+00000955+00000+0001T   00000955+0000000935          1500 AG3200               1 Z
404993004404993024-006874     404993006001023769978PASTRY-BRUSH SQ WHITE  0000001000+00001912+00000+0001T   00001912+0000000935          1500 AG3300               1 Z
404994000404994               404994               170213SC     1500+00000+SC0000001912+0000001912+000000000+000000287+0000002190+0000000009+I20000000000+0000002190+Z
404994001404994306-000529     404994006003000571338TOOTHBRUSH HOLDER 20cm 0000001000+00001912+00000+0001T   00001912+0000000942          1500 AG3200               1 Z
404995000404995               404995               170213SC     1500+00000+SC0000025036+0000025036+000000000+000003759+0000028795+0000000000+I40000028795+0000000000+Z
404995001404995369-000242     404995006003000207824BABY TOY MUSICAL B/O   0000001000+00013912+00000+0001T   00013912+0000000948          1500 AG3745               1 Z
404995002404995046-000011-A   404995006003000438891BATTERIES SIZE:AA  4PCE0000001000+00002781+00000+0001T   00002781+0000000948          1500 AG3312               1 Z
404995003404995031-005918     404995006003000580453P/FRAME PL PLAIN 10X15 0000002000+00002781+00000+0001T   00002781+0000000948          1500 AG3510               1 Z
404995004404995159-000117     404995006003000450398SHOWER CAP PVC ASSTD   0000001000+00002781+00000+0001T   00002781+0000000948          1500 AG3200               1 Z
404996000404996               404996               170213SC     1500+00000+SC0000001564+0000001564+000000000+000000235+0000001790+0000000009+I20000000000+0000001790+Z
404996001404996071-005214     404996006003000152544CELLOTAPE SUPER REFILL 0000001000+00001564+00000+0001T   00001564+0000000949          1500 AG3130               1 Z
404997000404997               404997               170213SC     1500+00000+SC0000003824+0000003824+000000000+000000574+0000004390+0000000008+I20000000000+0000004390+Z
404997001404997077-000316     404997006001023609731GIFT-BAG 25X32CM MATT  0000001000+00001912+00000+0001T   00001912+0000000949          1500 AG3112               1 Z
404997002404997077-000011-X   404997006001023809827TISSUE-WRAP SILVER 10PC0000001000+00001912+00000+0001T   00001912+0000000949          1500 AG3112               1 Z
404998000404998               404998               170213SC     1500+00000+SC0000003128+0000003128+000000000+000000470+0000003590+0000000008+I20000000000+0000003590+Z
404998001404998071-005214     404998006003000152544CELLOTAPE SUPER REFILL 0000002000+00001564+00000+0001T   00001564+0000000951          1500 AG3130               1 Z
404999000404999               404999               170213SC     1500+00000+SC0000008336+0000008336+000000000+000001256+0000009590+0000000002+I20000000000+0000009590+Z
404999001404999077-000011-D   404999006001023808554TISSUE-WRAP WHITE 10PCE0000004000+00000955+00000+0001T   00000955+0000000952          1500 AG3112               1 Z
404999002404999077-000011-L   404999006001023808585P/TISSUE BRIGHT 10SHEET0000002000+00000955+00000+0001T   00000955+0000000952          1500 AG3112               1 Z
404999003404999077-000245     404999006001023759214GIFT-RIBBON METALLICx2 0000002000+00001303+00000+0001T   00001303+0000000952          1500 AG3112               1 Z
405000000405000               405000               170213SC     1500+00000+SC0000003301+0000003301+000000000+000000496+0000003790+0000000007+I20000000000+0000003790+Z
405000001405000006-000812     405000006001023902832HAT CONE WITH TINSEL   0000001000+00000955+00000+0001T   00000955+0000000956          1500 AG3131               1 Z
405000002405000006-000789     405000006001023148612CROWN BOY              0000001000+00002346+00000+0001T   00002346+0000000956          1500 AG3131               1 Z
405001000405001               405001               170213SC     1500+00000+SC0000009214+0000009214+000000000+000001384+0000010590+0000000008+I20000000000+0000010590+Z
405001001405001079-001001     405001006003000448593CANVAS A3 WOOD MOUNTED 0000002000+00004607+00000+0001T   00004607+0000001003          1500 AG3130               1 Z
405002000405002               405002               170213SC     1500+00000+SC0000005162+0000005162+000000000+000000779+0000005940+0000000001+I20000000000+0000005940+Z
405002001405002080-000133     405002006003000535613CARD&ENV MINI ASTD DSGN0000004000+00000477+00000+0001T   00000477+0000001004          1500 AG3112               1 Z
405002002405002903-000155     405002006009803374435SWT LOLLY I LUV U HEART0000003000+00000564+00000+0001T   00000564+0000001004          1500 AG3150               1 Z
405002003405002903-000200     405002006009826020234SWT CHOC RP CHOCO 23G  0000002000+00000781+00000+0001T   00000825+0006481004          1500 AG3150               1 Z
405003000405003               405003               170213SC     1500+00000+SC0000003476+0000003476+000000000+000000522+0000003990+0000000008+I20000000000+0000003990+Z
405003001405003071-000873     405003006001023758743RUB-BANDS CLR BAG-100  0000001000+00001564+00000+0001T   00001564+0000001017          1500 AG3130               1 Z
405003002405003071-001102     405003006003000274598MARKER PERM MED 2PCE   0000001000+00001912+00000+0001T   00001912+0000001017          1500 AG3130               1 Z
405004000405004               405004               170213SC     1500+00000+SC0000000955+0000000955+000000000+000000144+0000001090+0000000009+I20000000000+0000001090+Z
405004001405004077-000150-D   405004006003000054343GIFT-WRAP CELLPHANE CLR0000001000+00000955+00000+0001T   00000955+0000001032          1500 AG3112               1 Z
405005000405005               405005               170213SC     1500+00000+SC0000011387+0000011387+000000000+000001710+0000013097+0000000000+I40000013097+0000000000+Z
405005001405005107-004500     405005006003000150557STEP STOOL PL          0000001000+00007390+00000+0001T   00007390+0000001035          1500 AG3210               1 Z
405005002405005089-000100     405005006003000565665K/CHAIN PET LOVERS     0000001000+00002781+00000+0001T   00002781+0000001035          1500 AG3205               1 Z
405005003405005162-097716     405005006001492977164#TAG NEW GOLD E/PIERCE 0000001000+00001216+00000+0001T   00001216+0000001035          1500 AG3160               1 Z
405006000405006               405006               170213SC     1500+00000+SC0000001564+0000001564+000000000+000000235+0000001790+0000000009+I20000000000+0000001790+Z
405006001405006077-000299     405006006003000395576G/BAG 32x25cm LRG LOVE 0000001000+00001564+00000+0001T   00001564+0000001036          1500 AG3112               1 Z
405007000405007               405007               170213SC     1500+00000+SC0000002520+0000002520+000000000+000000378+0000002890+0000000008+I20000000000+0000002890+Z
405007001405007077-000380     405007006003000247585GIFT-BAG 33X45CM S/COL 0000001000+00002520+00000+0001T   00002520+0000001103          1500 AG3112               1 Z
405008000405008               405008               170213SC     1500+00000+SC0000001910+0000001910+000000000+000000288+0000002190+0000000008+I20000000000+0000002190+Z
405008001405008006-000812     405008006001023902832HAT CONE WITH TINSEL   0000002000+00000955+00000+0001T   00000955+0000001120          1500 AG3131               1 Z
405009000405009               405009               170213SC     1500+00000+SC0000002520+0000002520+000000000+000000378+0000002890+0000000008+I20000000000+0000002890+Z
405009001405009103-000788     405009006001023896292WOVEN ROUND BASKET     0000001000+00002520+00000+0001T   00002520+0000001120          1500 AG3300               1 Z
405010000405010               405010               170213SC     1500+00000+SC0000004084+0000004084+000000000+000000614+0000004690+0000000008+I20000000000+0000004690+Z
405010001405010031-005830     405010009320760100040P/FRAME-CLIP 24X30CM   0000001000+00003303+00000+0001T   00003303+0000001121          1500 AG3510               1 Z
405010002405010903-000200     405010006009826020234SWT CHOC RP CHOCO 23G  0000001000+00000781+00000+0001T   00000825+0006481121          1500 AG3150               1 Z
405011000405011               405011               170213SC     1500+00000+SC0000004607+0000004607+000000000+000000692+0000005290+0000000009+I20000000000+0000005290+Z
405011001405011088-000107     405011006001023555823DIFFUSER SET FLOWER    0000001000+00004607+00000+0001T   00004607+0000001127          1500 AG3212               1 Z
405012000405012               405012               170213SC     1500+00000+SC0000004607+0000004607+000000000+000000692+0000005290+0000000009+I20000000000+0000005290+Z
405012001405012003-009101     405012006003000224494ORN SIGN INSP. 18X13CM 0000001000+00004607+00000+0001T   00004607+0000001127          1500 AG3505               1 Z
405013000405013               405013               170213SC     1500+00000+SC0000000955+0000000955+000000000+000000144+0000001090+0000000009+I20000000000+0000001090+Z
405013001405013077-000150-D   405013006003000054343GIFT-WRAP CELLPHANE CLR0000001000+00000955+00000+0001T   00000955+0000001128          1500 AG3112               1 Z
405014000405014               405014               170213SC     1500+00000+SC0000004519+0000004519+000000000+000000679+0000005190+0000000008+I20000000000+0000005190+Z
405014001405014089-000089     405014006003000576005KEY-CHAIN TROPHY DAD   0000001000+00002607+00000+0001T   00003216+0008201129          1500 AG3205               1 Z
405014002405014077-000289     405014006001023901996GIFT BOX 20x25x11cm    0000001000+00001912+00000+0001T   00001912+0000001129          1500 AG3112               1 Z
405015000405015               405015               170213SC     1500+00000+SC0000016862+0000016862+000000000+000002532+0000019390+0000000004+I20000000000+0000019390+Z
405015001405015077-000310     405015006001023608635GIFT-BAG 18X23CM GLOSS 0000001000+00001390+00000+0001T   00001390+0000001130          1500 AG3112               1 Z
405015002405015077-000407     405015006003000145096G/BAG PP 19X26X8CM     0000001000+00001390+00000+0001T   00001390+0000001130          1500 AG3112               1 Z
405015003405015077-000327     405015006001023677686GIFT-BAG 25X32CM E/D BA0000002000+00001564+00000+0001T   00001564+0000001130          1500 AG3112               1 Z
405015004405015301-000125     405015006003000420582ORN BRACELET INSPIRATIO0000002000+00005477+00000+0001T   00005477+0000001130          1500 AG3505               1 Z
405016000405016               405016               170213SC     1500+00000+SC0000008429+0000008429+000000000+000001266+0000009690+0000000005+I20000000000+0000009690+Z
405016001405016018-000177     405016006001023797513MUG MINI LOVE ASSTD    0000003000+00000738+00000+0001T   00000738+0000001131          1500 AG3515               1 Z
405016002405016301-000009     405016006001023781406ORN POLY MSG IN PVC BOX0000001000+00005564+00000+0001T   00005564+0000001131          1500 AG3505               1 Z
405016003405016077-000317     405016006001023609748GIFT-BAG 11X14CM E/D AN0000001000+00000651+00000+0001T   00000651+0000001131          1500 AG3112               1 Z
405017000405017               405017               170213SC     1500+00000+SC0000007029+0000007029+000000000+000001056+0000008080+0000000005+I20000000000+0000008080+Z
405017001405017077-000115     405017006001023834225WRAP METALLIC 700mmx1m 0000001000+00001912+00000+0001T   00001912+0000001135          1500 AG3112               1 Z
405017002405017903-000183     405017006003000451043SWT LB HEART LOLLY     0000005000+00000433+00000+0001T   00000433+0000001135          1500 AG3150               1 Z
405017003405017018-000177     405017006001023797513MUG MINI LOVE ASSTD    0000004000+00000738+00000+0001T   00000738+0000001135          1500 AG3515               1 Z
405018000405018               405018               170213SC     1500+00000+SC0000017900+0000017900+000000000+000002688+0000020580+0000000008+I20000000000+0000020580+Z
405018001405018103-000051     405018006003000675845BAMBOO BASKET SQUARE   0000002000+00001912+00000+0001T   00001912+0000001137          1500 AG3300               1 Z
405018002405018103-000788     405018006001023896292WOVEN ROUND BASKET     0000003000+00002520+00000+0001T   00002520+0000001137          1500 AG3300               1 Z
405018003405018018-000129     405018006001023403353MUG OCC. LOVE V-SHAPE  0000001000+00002781+00000+0001T   00002781+0000001137          1500 AG3515               1 Z
405018004405018077-000312     405018006001023608697GIFT-BAG 10X35CM GLOSS 0000001000+00001390+00000+0001T   00001390+0000001137          1500 AG3112               1 Z
405018005405018080-000124     405018006003000297733CARD & ENV VALENTINES  0000001000+00001564+00000+0001T   00001651+0006481137          1500 AG3112               1 Z
405018006405018903-000200     405018006009826020234SWT CHOC RP CHOCO 23G  0000001000+00000781+00000+0001T   00000825+0006481137          1500 AG3150               1 Z
405019000405019               405019               170213SC     1500+00000+SC0000001216+0000001216+000000000+000000183+0000001390+0000000009+I20000000000+0000001390+Z
405019001405019007-010192     405019006009635830536BOOK H/COVER A5 192PAGE0000001000+00001216+00000+0001T   00001216+0000001138          1500 AG3130               1 Z
405020000405020               405020               170213SC     1500+00000+SC0000002346+0000002346+000000000+000000352+0000002690+0000000008+I20000000000+0000002690+Z
405020001405020027-001020     405020006001246602519BROOM FLOOR W/HANDLE   0000001000+00002346+00000+0001T   00002346+0000001156          1500 AG3212               1 Z
405021000405021               405021               170213SC     1500+00000+SC0000001912+0000001912+000000000+000000287+0000002190+0000000009+I20000000000+0000002190+Z
405021001405021077-000316     405021006001023609731GIFT-BAG 25X32CM MATT  0000001000+00001912+00000+0001T   00001912+0000001157          1500 AG3112               1 Z
405022000405022               405022               170213SC     1500+00000+SC0000001303+0000001303+000000000+000000196+0000001490+0000000009+I20000000000+0000001490+Z
405022001405022903-000194     405022006009826020616SWT CHOC RP LOLLY 25G  0000001000+00001303+00000+0001T   00001390+0006481158          1500 AG3150               1 Z
405023000405023               405023               170213SC     1500+00000+SC0000001564+0000001564+000000000+000000235+0000001790+0000000009+I20000000000+0000001790+Z
405023001405023077-000305     405023006003000395422GIFT-BAG WINE 10X35CM  0000001000+00001564+00000+0001T   00001564+0000001159          1500 AG3112               1 Z
405024000405024               405024               170213SC     1500+00000+SC0000001128+0000001128+000000000+000000170+0000001290+0000000008+I20000000000+0000001290+Z
405024001405024903-000155     405024006009803374435SWT LOLLY I LUV U HEART0000002000+00000564+00000+0001T   00000564+0000001200          1500 AG3150               1 Z
405025000405025               405025               170213SC     1500+00000+SC0000008516+0000008516+000000000+000001279+0000009790+0000000005+I20000000000+0000009790+Z
405025001405025038-000205     405025006001926001205PLACE-MATS PVC ASSTD-C 0000002000+00001912+00000+0001T   00001912+0000001201          1500 AG3300               1 Z
405025002405025133-000016     405025006003000240609DUSTERS ORANGE PACK-3  0000001000+00001912+00000+0001T   00001912+0000001201          1500 AG3212               1 Z
405025003405025077-000312     405025006001023608697GIFT-BAG 10X35CM GLOSS 0000002000+00001390+00000+0001T   00001390+0000001201          1500 AG3112               1 Z
405026000405026               405026               170213SC     1500+00000+SC0000001912+0000001912+000000000+000000287+0000002190+0000000009+I20000000000+0000002190+Z
405026001405026088-000084     405026006001023798060P/POURRI 120G ASSTD    0000001000+00001912+00000+0001T   00001912+0000001202          1500 AG3212               1 Z
405027000405027               405027               170213SC     1500+00000+SC0000000781+0000000781+000000000+000000118+0000000890+0000000009+I20000000000+0000000890+Z
405027001405027903-000200     405027006009826020234SWT CHOC RP CHOCO 23G  0000001000+00000781+00000+0001T   00000825+0006481203          1500 AG3150               1 Z
405028000405028               405028               170213SC     1500+00000+SC0000002781+0000002781+000000000+000000418+0000003190+0000000009+I20000000000+0000003190+Z
405028001405028018-000129     405028006001023403353MUG OCC. LOVE V-SHAPE  0000001000+00002781+00000+0001T   00002781+0000001203          1500 AG3515               1 Z
405029000405029               405029               170213SC     1500+00000+SC0000010951+0000010951+000000000+000001644+0000012595+0000000000+I40000012595+0000000000+Z
405029001405029077-000151     405029006008766114676GIFT-WRAP C/PHANE ASSTD0000001000+00000955+00000+0001T   00000955+0000001211          1500 AG3112               1 Z
405029002405029103-000068     405029006003000630486BAMBOO BASKET RECTANGLE0000001000+00006520+00000+0001T   00006520+0000001211          1500 AG3300               1 Z
405029003405029089-001021     405029006003000112319KEY CHAIN MINI BIBLE   0000001000+00001564+00000+0001T   00001564+0000001211          1500 AG3205               1 Z
405029004405029089-000004     405029006003000137749KEY CHAIN MTL CHARMS   0000001000+00001912+00000+0001T   00001912+0000001211          1500 AG3205               1 Z
405030000405030               405030               170213SC     1500+00000+SC0000004603+0000004603+000000000+000000693+0000005290+0000000006+I20000000000+0000005290+Z
405030001405030071-005213     405030006001023690371CELLOTAPE 12mmx33m     0000001000+00000955+00000+0001T   00000955+0000001212          1500 AG3130               1 Z
405030002405030077-000289     405030006001023901996GIFT BOX 20x25x11cm    0000001000+00001912+00000+0001T   00001912+0000001212          1500 AG3112               1 Z
405030003405030903-000138     405030006002099004314SWT GS WINE GUMS 60G   0000002000+00000868+00000+0001T   00000868+0000001212          1500 AG3150               1 Z
405031000405031               405031               170213SC     1500+00000+SC0000003345+0000003345+000000000+000000503+0000003840+0000000008+I20000000000+0000003840+Z
405031001405031007-000128     405031006009635830475BOOK H/COVER A5 96-PAGE0000001000+00000738+00000+0001T   00000738+0000001215          1500 AG3130               1 Z
405031002405031567-075466     405031009780263911299BK NOVEL ROMANCE       0000001000+00002607+00000+0001T   00002781+0006481215          1500 AG3757               1 Z
405032000405032               405032               170213SC     1500+00000+SC0000003476+0000003476+000000000+000000522+0000003990+0000000008+I20000000000+0000003990+Z
405032001405032077-000457     405032006003000285662G/BAG METALLIC JMB SOL 0000001000+00001912+00000+0001T   00001912+0000001216          1500 AG3112               1 Z
405032002405032018-000127     405032006001023380289MUG OCC STRAIGHT LOVE  0000001000+00001564+00000+0001T   00001912+0006481216          1500 AG3515               1 Z
405033000405033               405033               170213SC     1500+00000+SC0000003038+0000003038+000000000+000000458+0000003490+0000000006+I20000000000+0000003490+Z
405033001405033071-005213     405033006001023690371CELLOTAPE 12mmx33m     0000002000+00000955+00000+0001T   00000955+0000001217          1500 AG3130               1 Z
405033002405033903-000077     405033006939873501687SWT GS MAGIC ROCK FRUIT0000002000+00000564+00000+0001T   00000564+0000001217          1500 AG3150               1 Z
405034000405034               405034               170213SC     1500+00000+SC0000004607+0000004607+000000000+000000692+0000005290+0000000009+I20000000000+0000005290+Z
405034001405034004-071270     405034006001023802156CD-DISCS WRITABLE 10PCE0000001000+00004607+00000+0001T   00004607+0000001217          1500 AG3310               1 Z
405035000405035               405035               170213SC     1500+00000+SC0000016682+0000016682+000000000+000002504+0000019180+0000000006+I20000000000+0000019180+Z
405035001405035039-000026     405035006001023551610C/TAPERED 25CM M/RED   0000011000+00001086+00000+0001T   00001086+0000001220          1500 AG35101IC            1 Z
405035002405035200-000065     405035006001023323675DRINKING-STRAWS 38PCE  0000001000+00000651+00000+0001T   00000651+0000001220          1500 AG3214               1 Z
405035003405035566-000359     405035006003000582709STICKER BOOK LOVE SPARK0000001000+00002173+00000+0001T   00002260+0006481220          1500 AG3130               1 Z
405035004405035077-000291     405035006003000541874GIFT-BOX LOVE 12PCE    0000001000+00001912+00000+0001T   00001912+0000001220          1500 AG3112               1 Z
405036000405036               405036               170213SC     1500+00000+SC0000001084+0000001084+000000000+000000163+0000001240+0000000007+I20000000000+0000001240+Z
405036001405036903-000183     405036006003000451043SWT LB HEART LOLLY     0000001000+00000433+00000+0001T   00000433+0000001220          1500 AG3150               1 Z
405036002405036007-000555     405036006001023848239MEMO-PAD MINI LOVE     0000001000+00000651+00000+0001T   00000651+0000001220          1500 AG3130               1 Z
405037000405037               405037               170213SC     1500+00000+SC0000003997+0000003997+000000000+000000600+0000004590+0000000007+I20000000000+0000004590+Z
405037001405037251-000002     405037006003000093991TAPE D-SIDED 24x1000mm 0000001000+00002346+00000+0001T   00002346+0000001221          1500 AG3810               1 Z
405037002405037055-009258     405037006001023426215P/HOOK+PIN 2PNx7PCE H&H0000001000+00001651+00000+0001T   00001651+0000001221          1500 AG3810               1 Z
405038000405038               405038               170213SC     1500+00000+SC0000002258+0000002258+000000000+000000340+0000002590+0000000008+I20000000000+0000002590+Z
405038001405038077-000245     405038006001023759214GIFT-RIBBON METALLICx2 0000001000+00001303+00000+0001T   00001303+0000001222          1500 AG3112               1 Z
405038002405038077-000150-D   405038006003000054343GIFT-WRAP CELLPHANE CLR0000001000+00000955+00000+0001T   00000955+0000001222          1500 AG3112               1 Z
405039000405039               405039               170213SC     1500+00000+SC0000000564+0000000564+000000000+000000085+0000000640+0000000009+I20000000000+0000000640+Z
405039001405039903-000155     405039006009803374435SWT LOLLY I LUV U HEART0000001000+00000564+00000+0001T   00000564+0000001223          1500 AG3150               1 Z
405040000405040               405040               170213SC     1500+00000+SC0000000825+0000000825+000000000+000000124+0000000940+0000000009+I20000000000+0000000940+Z
405040001405040071-081101-A   405040006003000326549GLUE-STICK 25g BLISTER 0000001000+00000825+00000+0001T   00000825+0000001225          1500 AG3130               1 Z
405041000405041               405041               170213SC     1500+00000+SC0000001912+0000001912+000000000+000000287+0000002190+0000000009+I20000000000+0000002190+Z
405041001405041088-000084     405041006001023798060P/POURRI 120G ASSTD    0000001000+00001912+00000+0001T   00001912+0000001226          1500 AG3212               1 Z
405042000405042               405042               170213SC     1500+00000+SC0000000955+0000000955+000000000+000000144+0000001090+0000000009+I20000000000+0000001090+Z
405042001405042033-000106     405042006001023678027ELASTIC  6mmx3m  CARDED0000001000+00000955+00000+0001T   00000955+0000001229          1500 AG3200               1 Z
405043000405043               405043               170213SC     1500+00000+SC0000004606+0000004606+000000000+000000692+0000005298+0000000000+I40000005298+0000000000+Z
405043001405043004-078990     405043006001023994431EARPHONES MINI 1.2m    0000001000+00003738+00000+0001T   00003738+0000001230          1500 AG3310               1 Z
405043002405043903-000137     405043006002099004130SWEET GS JELLY BEAN 60G0000001000+00000868+00000+0001T   00000868+0000001230          1500 AG3150               1 Z
405044000405044               405044               170213SC     1500+00000+SC0000003824+0000003824+000000000+000000574+0000004390+0000000008+I20000000000+0000004390+Z
405044001405044007-000598     405044006009608642333MARLIN FILE DIVIDER 10 0000002000+00001912+00000+0001T   00001912+0000001234          1500 AG3130               1 Z
405045000405045               405045               170213SC     1500+00000+SC0000003738+0000003738+000000000+000000561+0000004290+0000000009+I20000000000+0000004290+Z
405045001405045017-000200     405045006003000238965PRINTED ASSTD 100-PHOTO0000001000+00003738+00000+0001T   00003738+0000001235          1500 AG3510               1 Z
405046000405046               405046               170213SC     1500+00000+SC0000001390+0000001390+000000000+000000209+0000001590+0000000009+I20000000000+0000001590+Z
405046001405046078-009100     405046006008741002349ALL-CLEAR GLUE 25ml CRD0000001000+00001390+00000+0001T   00001390+0000001235          1500 AG3810               1 Z
405047000405047               405047               170213SC     1500+00000+SC0000004607+0000004607+000000000+000000692+0000005290+0000000009+I20000000000+0000005290+Z
405047001405047024-000118     405047006001023422316N/STICK C/PAN HEART    0000001000+00004607+00000+0001T   00004607+0000001236          1500 AG3300               1 Z
405048000405048               405048               170213SC     1500+00000+SC0000009081+0000009081+000000000+000001365+0000010440+0000000006+I20000000000+0000010440+Z
405048001405048466-009008     405048006003000301713CATCHBALL W/2 BALLS    0000001000+00002781+00000+0001T   00002781+0000001237          1500 AG3785               1 Z
405048002405048903-000120     405048006002099001665SWEET GS ZILLIONS 50g  0000001000+00000738+00000+0001T   00000738+0000001237          1500 AG3150               1 Z
405048003405048007-000676     405048006003000284689N/BOOK HOLOGRAM 3PK ASS0000001000+00002781+00000+0001T   00002781+0000001237          1500 AG3130               1 Z
405048004405048159-000684     405048006001023776532BATH BODY-GLOVE 18cm   0000001000+00002781+00000+0001T   00002781+0000001237          1500 AG3200               1 Z
405049000405049               405049               170213SC     1500+00000+SC0000001390+0000001390+000000000+000000209+0000001590+0000000009+I20000000000+0000001590+Z
405049001405049004-071280     405049006003000129959WRITABLE-CD SINGLE     0000001000+00001390+00000+0001T   00001390+0000001238          1500 AG3310               1 Z
405050000405050               405050               170213SC     1500+00000+SC0000017034+0000017034+000000000+000002558+0000019590+0000000002+I20000000000+0000019590+Z
405050001405050028-000401     405050006001023120632PLATE-HOLDERS 4PCE  H&L0000001000+00005477+00000+0001T   00005477+0000001240          1500 AG3305               1 Z
405050002405050077-000150-D   405050006003000054343GIFT-WRAP CELLPHANE CLR0000003000+00000955+00000+0001T   00000955+0000001240          1500 AG3112               1 Z
405050003405050368-000049     405050006003000536955PLUSH BEAR 15cm LOVE   0000002000+00004346+00000+0001T   00004607+0006481240          1500 AG3745               1 Z
405051000405051               405051               170213SC     1500+00000+SC0000010774+0000010774+000000000+000001620+0000012390+0000000004+I20000000000+0000012390+Z
405051001405051004-071204     405051006003000624904USB IN-CAR CHARGER 2.1A0000001000+00003738+00000+0001T   00003738+0000001241          1500 AG3310               1 Z
405051002405051004-071192     405051006003000528813USB CABLE 1.0m         0000001000+00002781+00000+0001T   00002781+0000001241          1500 AG3310               1 Z
405051003405051077-000150-D   405051006003000054343GIFT-WRAP CELLPHANE CLR0000002000+00000955+00000+0001T   00000955+0000001241          1500 AG3112               1 Z
405051004405051028-000400     405051006001023421661PLATE-HOLDERS 4PCE     0000001000+00001564+00000+0001T   00001564+0000001241          1500 AG3305               1 Z
405051005405051903-000200     405051006009826020234SWT CHOC RP CHOCO 23G  0000001000+00000781+00000+0001T   00000825+0006481241          1500 AG3150               1 Z
405052000405052               405052               170213SC     1500+00000+SC0000008166+0000008166+000000000+000001228+0000009390+0000000004+I20000000000+0000009390+Z
405052001405052077-000150-D   405052006003000054343GIFT-WRAP CELLPHANE CLR0000004000+00000955+00000+0001T   00000955+0000001241          1500 AG3112               1 Z
405052002405052368-000049     405052006003000536955PLUSH BEAR 15cm LOVE   0000001000+00004346+00000+0001T   00004607+0006481241          1500 AG3745               1 Z
405053000405053               405053               170213SC     1500+00000+SC0000001303+0000001303+000000000+000000196+0000001490+0000000009+I20000000000+0000001490+Z
405053001405053077-000245     405053006001023759214GIFT-RIBBON METALLICx2 0000001000+00001303+00000+0001T   00001303+0000001242          1500 AG3112               1 Z
405054000405054               405054               170213SC     1500+00000+SC0000007474+0000007474+000000000+000001123+0000008590+0000000007+I20000000000+0000008590+Z
405054001405054200-003024     405054006001023657299REFUSE BAGS 20PCE BLACK0000001000+00001912+00000+0001T   00001912+0000001247          1500 AG3214               1 Z
405054002405054027-078281     405054006001023767806SCOURERS BRS 8g  PACK-30000001000+00000955+00000+0001T   00000955+0000001247          1500 AG3212               1 Z
405054003405054159-000216     405054006001023195371SHOWER-CURTAIN 183cm   0000001000+00004607+00000+0001T   00004607+0000001247          1500 AG3200               1 Z
405055000405055               405055               170213SC     1500+00000+SC0000001303+0000001303+000000000+000000196+0000001490+0000000009+I20000000000+0000001490+Z
405055001405055071-081091     405055006001151010287STAED/GENKEM ALL-STICK 0000001000+00001303+00000+0001T   00001303+0000001248          1500 AG3130               1 Z
405056000405056               405056               170213SC     1500+00000+SC0000008466+0000008466+000000000+000001275+0000009741+0000000000+I40000009741+0000000000+Z
405056001405056018-000177     405056006001023797513MUG MINI LOVE ASSTD    0000003000+00000738+00000+0001T   00000738+0000001250          1500 AG3515               1 Z
405056002405056903-000194     405056006009826020616SWT CHOC RP LOLLY 25G  0000003000+00001303+00000+0001T   00001390+0006481250          1500 AG3150               1 Z
405056003405056903-000200     405056006009826020234SWT CHOC RP CHOCO 23G  0000003000+00000781+00000+0001T   00000825+0006481250          1500 AG3150               1 Z
405057000405057               405057               170213SC     1500+00000+SC0000003738+0000003738+000000000+000000561+0000004290+0000000009+I20000000000+0000004290+Z
405057001405057261-003961     405057006003000550371GUN HAND COMBAT        0000001000+00003738+00000+0001T   00003738+0000001253          1500 AG3710               1 Z
405058000405058               405058               170213SC     1500+00000+SC0000001912+0000001912+000000000+000000287+0000002190+0000000009+I20000000000+0000002190+Z
405058001405058077-000357     405058006003000139354GIFT-BAG 18X23CM B/DAY 0000001000+00001912+00000+0001T   00001912+0000001256          1500 AG3112               1 Z
405059000405059               405059               170213SC     1500+00000+SC0000005905+0000005905+000000000+000000890+0000006790+0000000005+I20000000000+0000006790+Z
405059001405059077-000270     405059006003000395453GIFT-BAG PPR JMB 33X45 0000001000+00002781+00000+0001T   00002781+0000001300          1500 AG3112               1 Z
405059002405059903-000200     405059006009826020234SWT CHOC RP CHOCO 23G  0000004000+00000781+00000+0001T   00000825+0006481300          1500 AG3150               1 Z
405060000405060               405060               170213SC     1500+00000+SC0000001303+0000001303+000000000+000000196+0000001490+0000000009+I20000000000+0000001490+Z
405060001405060077-000245     405060006001023759214GIFT-RIBBON METALLICx2 0000001000+00001303+00000+0001T   00001303+0000001303          1500 AG3112               1 Z
405061000405061               405061               170213SC     1500+00000+SC0000004607+0000004607+000000000+000000692+0000005299+0000000000+I40000005299+0000000000+Z
405061001405061016-006500     405061006003000618460S/JAR GLS HERMETICO    0000001000+00004607+00000+0001T   00004607+0000001306          1500 AG3300               1 Z
405062000405062               405062               170213SC     1500+00000+SC0000003472+0000003472+000000000+000000524+0000003990+0000000006+I20000000000+0000003990+Z
405062001405062077-000010-C   405062006001023123879CREPE-PAPER RED        0000004000+00000868+00000+0001T   00000868+0000001306          1500 AG3112               1 Z
405063000405063               405063               170213SC     1500+00000+SC0000008336+0000008336+000000000+000001256+0000009590+0000000002+I20000000000+0000009590+Z
405063001405063903-000200     405063006009826020234SWT CHOC RP CHOCO 23G  0000004000+00000781+00000+0001T   00000825+0006481308          1500 AG3150               1 Z
405063002405063903-000194     405063006009826020616SWT CHOC RP LOLLY 25G  0000004000+00001303+00000+0001T   00001390+0006481308          1500 AG3150               1 Z
405064000405064               405064               170213SC     1500+00000+SC0000003476+0000003476+000000000+000000522+0000003998+0000000000+I40000003998+0000000000+Z
405064001405064006-000788     405064006001023990228CROWN HAPPY BIRTHDAY   0000001000+00001564+00000+0001T   00001564+0000001310          1500 AG3131               1 Z
405064002405064006-000124     405064006003000625888BALLOONS 10PC MIX COL  0000001000+00001912+00000+0001T   00001912+0000001310          1500 AG3131               1 Z
405065000405065               405065               170213SC     1500+00000+SC0000004335+0000004335+000000000+000000652+0000004980+0000000007+I20000000000+0000004980+Z
405065001405065306-000020     405065006001023743145POCKET-TISSUES 10PCE   0000001000+00000338+00000+0001T   00000338+0000001311          1500 AG3200               1 Z
405065002405065002-000800     405065006001023770660PEELER MTL/PL WHITE    0000001000+00001216+00000+0001T   00001216+0000001311          1500 AG3300               1 Z
405065003405065007-000714     405065006003000227150NOTE-BK A6 WIRO 80SHTS 0000001000+00002781+00000+0001T   00002781+0000001311          1500 AG3130               1 Z
405066000405066               405066               170213SC     1500+00000+SC0000023488+0000023488+000000000+000003533+0000027020+0000000001+I20000000000+0000027020+Z
405066001405066039-080962     405066006001023736055C/SET 3PC(GLS-CUP+2CAN)0000004000+00001912+00000+0001T   00001912+0000001313          1500 AG3510               1 Z
405066002405066018-000177     405066006001023797513MUG MINI LOVE ASSTD    0000010000+00000738+00000+0001T   00000738+0000001313          1500 AG3515               1 Z
405066003405066903-000155     405066006009803374435SWT LOLLY I LUV U HEART0000015000+00000564+00000+0001T   00000564+0000001313          1500 AG3150               1 Z
405067000405067               405067               170213SC     1500+00000+SC0000005386+0000005386+000000000+000000810+0000006190+0000000006+I20000000000+0000006190+Z
405067001405067903-000220     405067006001704007368SWT JELLY BEANS 60G    0000001000+00000955+00000+0001T   00000955+0000001314          1500 AG3150               1 Z
405067002405067077-000299     405067006003000395576G/BAG 32x25cm LRG LOVE 0000002000+00001564+00000+0001T   00001564+0000001314          1500 AG3112               1 Z
405067003405067903-000194     405067006009826020616SWT CHOC RP LOLLY 25G  0000001000+00001303+00000+0001T   00001390+0006481314          1500 AG3150               1 Z
405068000405068               405068               170213SC     1500+00000+SC0000003128+0000003128+000000000+000000470+0000003590+0000000008+I20000000000+0000003590+Z
405068001405068077-000305     405068006003000395422GIFT-BAG WINE 10X35CM  0000002000+00001564+00000+0001T   00001564+0000001315          1500 AG3112               1 Z
405069000405069               405069               170213SC     1500+00000+SC0000003042+0000003042+000000000+000000457+0000003490+0000000009+I20000000000+0000003490+Z
405069001405069567-014135     405069006003000560264BOOK COLOURING 240P    0000001000+00003042+00000+0001T   00003738+0008301316          1500 AG3757               1 Z
405070000405070               405070               170213SC     1500+00000+SC0000013123+0000013123+000000000+000001971+0000015094+0000000000+I40000015094+0000000000+Z
405070001405070077-000150-D   405070006003000054343GIFT-WRAP CELLPHANE CLR0000002000+00000955+00000+0001T   00000955+0000001319          1500 AG3112               1 Z
405070002405070004-071192     405070006003000528813USB CABLE 1.0m         0000001000+00002781+00000+0001T   00002781+0000001319          1500 AG3310               1 Z
405070003405070080-000100     405070006003000236114CARD & ENVELOPE BDAY   0000001000+00001912+00000+0001T   00001912+0000001319          1500 AG3112               1 Z
405070004405070158-003007     405070006003000638116FRUIT BASKET CHROME    0000001000+00006520+00000+0001T   00006520+0000001319          1500 AG3300               1 Z
405071000405071               405071               170213SC     1500+00000+SC0000003953+0000003953+000000000+000000594+0000004547+0000000000+I40000004547+0000000000+Z
405071001405071077-000005-D   405071006003000414567PAPER TISSUE 50x70cm   0000001000+00001912+00000+0001T   00001912+0000001320          1500 AG3112               1 Z
405071002405071903-000194     405071006009826020616SWT CHOC RP LOLLY 25G  0000001000+00001303+00000+0001T   00001390+0006481320          1500 AG3150               1 Z
405071003405071018-000177     405071006001023797513MUG MINI LOVE ASSTD    0000001000+00000738+00000+0001T   00000738+0000001320          1500 AG3515               1 Z
405072000405072               405072               170213SC     1500+00000+SC0000005040+0000005040+000000000+000000757+0000005790+0000000007+I20000000000+0000005790+Z
405072001405072039-000108     405072006001023524034TEA-LITE CANDLES 8PCE  0000002000+00001564+00000+0001T   00001564+0000001321          1500 AG3510               1 Z
405072002405072088-000084     405072006001023798060P/POURRI 120G ASSTD    0000001000+00001912+00000+0001T   00001912+0000001321          1500 AG3212               1 Z
405073000405073               405073               170213SC     1500+00000+SC0000016818+0000016818+000000000+000002526+0000019340+0000000004+I20000000000+0000019340+Z
405073001405073203-000107     405073006001023820358ICE-BUCKET T/PLATE DECO0000001000+00009564+00000+0001T   00009564+0000001322          1500 AG3300               1 Z
405073002405073903-000591     405073006003000563616SWEET ANIMAL 24cm      0000001000+00002781+00000+0001T   00002781+0000001322          1500 AG3150               1 Z
405073003405073306-000993     405073006003000560110FIRSTAID PLASTER 75PC  0000001000+00002781+00000+0001T   00002781+0000001322          1500 AG3200               1 Z
405073004405073903-000155     405073006009803374435SWT LOLLY I LUV U HEART0000003000+00000564+00000+0001T   00000564+0000001322          1500 AG3150               1 Z
405074000405074               405074               170213SC     1500+00000+SC0000013732+0000013732+000000000+000002062+0000015790+0000000004+I20000000000+0000015790+Z
405074001405074140-005093     405074006003000331338INSECT-KILL RAQT-SHAPED0000001000+00005564+00000+0001T   00005564+0000001323          1500 AG3830               1 Z
405074002405074056-005719     405074006001023820983CAR AIR-FRESHENER ASSTD0000001000+00002346+00000+0001T   00002346+0000001323          1500 AG3860               1 Z
405074003405074903-004960     405074008410525221842SWT GUMMY STR/BERRY 50G0000001000+00001042+00000+0001T   00001042+0000001323          1500 AG3150               1 Z
405074004405074903-004963     405074008410525221873SWT GUMMY SOUR COLA 50g0000001000+00001042+00000+0001T   00001042+0000001323          1500 AG3150               1 Z
405074005405074567-011445     405074009781847509772BK COLOURING DINOSAUR  0000001000+00003738+00000+0001T   00003738+0000001323          1500 AG3757               1 Z
405075000405075               405075               170213SC     1500+00000+SC0000003822+0000003822+000000000+000000575+0000004390+0000000007+I20000000000+0000004390+Z
405075001405075077-000151     405075006008766114676GIFT-WRAP C/PHANE ASSTD0000002000+00000955+00000+0001T   00000955+0000001328          1500 AG3112               1 Z
405075002405075104-000020     405075006916920023026BASKET 25x14x10cm      0000001000+00001912+00000+0001T   00001912+0000001328          1500 AG3210               1 Z
405076000405076               405076               170213SC     1500+00000+SC0000016593+0000016593+000000000+000002496+0000019080+0000000009+I20000000000+0000019080+Z
405076001405076103-000084     405076006003000638109BAMBOO BASKET RECT     0000001000+00005129+00000+0001T   00005129+0000001329          1500 AG3300               1 Z
405076002405076077-000150-D   405076006003000054343GIFT-WRAP CELLPHANE CLR0000008000+00000955+00000+0001T   00000955+0000001329          1500 AG3112               1 Z
405076003405076077-000239     405076006003000160419GIFT-RIBBON ROLL PEARL 0000002000+00001912+00000+0001T   00001912+0000001329          1500 AG3112               1 Z
405077000405077               405077               170213SC     1500+00000+SC0000002822+0000002822+000000000+000000425+0000003240+0000000007+I20000000000+0000003240+Z
405077001405077077-000150-D   405077006003000054343GIFT-WRAP CELLPHANE CLR0000001000+00000955+00000+0001T   00000955+0000001330          1500 AG3112               1 Z
405077002405077903-000194     405077006009826020616SWT CHOC RP LOLLY 25G  0000001000+00001303+00000+0001T   00001390+0006481330          1500 AG3150               1 Z
405077003405077903-000155     405077006009803374435SWT LOLLY I LUV U HEART0000001000+00000564+00000+0001T   00000564+0000001330          1500 AG3150               1 Z
405078000405078               405078               170213SC     1500+00000+SC0000000955+0000000955+000000000+000000144+0000001090+0000000009+I20000000000+0000001090+Z
405078001405078077-000011-D   405078006001023808554TISSUE-WRAP WHITE 10PCE0000001000+00000955+00000+0001T   00000955+0000001331          1500 AG3112               1 Z
405079000405079               405079               170213SC     1500+00000+SC0000002346+0000002346+000000000+000000352+0000002690+0000000008+I20000000000+0000002690+Z
405079001405079077-000309-A   405079006003000671007GIFT-BAG HOLOGRAM JMB  0000001000+00002346+00000+0001T   00002346+0000001331          1500 AG3112               1 Z
405080000405080               405080               170213SC     1500+00000+SC0000001912+0000001912+000000000+000000287+0000002190+0000000009+I20000000000+0000002190+Z
405080001405080078-000480     405080006008741002332BOSTIK SHOE-REPAIR 25ml0000001000+00001912+00000+0001T   00001912+0000001332          1500 AG3810               1 Z
405081000405081               405081               170213SC     1500+00000+SC0000003476+0000003476+000000000+000000522+0000003990+0000000008+I20000000000+0000003990+Z
405081001405081088-000084     405081006001023798060P/POURRI 120G ASSTD    0000001000+00001912+00000+0001T   00001912+0000001333          1500 AG3212               1 Z
405081002405081077-000305     405081006003000395422GIFT-BAG WINE 10X35CM  0000001000+00001564+00000+0001T   00001564+0000001333          1500 AG3112               1 Z
405082000405082               405082               170213SC     1500+00000+SC0000001564+0000001564+000000000+000000235+0000001790+0000000009+I20000000000+0000001790+Z
405082001405082077-000299     405082006003000395576G/BAG 32x25cm LRG LOVE 0000001000+00001564+00000+0001T   00001564+0000001333          1500 AG3112               1 Z
405083000405083               405083               170213SC     1500+00000+SC0000005327+0000005327+000000000+000000800+0000006120+0000000007+I20000000000+0000006120+Z
405083001405083903-000183     405083006003000451043SWT LB HEART LOLLY     0000011000+00000433+00000+0001T   00000433+0000001335          1500 AG3150               1 Z
405083002405083903-000155     405083006009803374435SWT LOLLY I LUV U HEART0000001000+00000564+00000+0001T   00000564+0000001335          1500 AG3150               1 Z
405084000405084               405084               170213SC     1500+00000+SC0000004512+0000004512+000000000+000000680+0000005190+0000000002+I20000000000+0000005190+Z
405084001405084903-000155     405084006009803374435SWT LOLLY I LUV U HEART0000008000+00000564+00000+0001T   00000564+0000001336          1500 AG3150               1 Z
405085000405085               405085               170213SC     1500+00000+SC0000001390+0000001390+000000000+000000209+0000001590+0000000009+I20000000000+0000001590+Z
405085001405085007-000209     405085006001023582102NOTE STICKY FILE MARKER0000001000+00001390+00000+0001T   00001390+0000001339          1500 AG3130               1 Z
405086000405086               405086               170213SC     1500+00000+SC0000000955+0000000955+000000000+000000144+0000001090+0000000009+I20000000000+0000001090+Z
405086001405086077-000314     405086006003000181148GIFT-BAG 11X14CM MATT  0000001000+00000955+00000+0001T   00000955+0000001339          1500 AG3112               1 Z
405087000405087               405087               170213SC     1500+00000+SC0000005564+0000005564+000000000+000000835+0000006390+0000000009+I20000000000+0000006390+Z
405087001405087050-000250     405087006001023904515PADLOCK K/ALIK BRS 20mm0000001000+00005564+00000+0001T   00005564+0000001340          1500 AG3855               1 Z
405088000405088               405088               170213SC     1500+00000+SC0000001390+0000001390+000000000+000000209+0000001590+0000000009+I20000000000+0000001590+Z
405088001405088006-000166-E   405088006003000516612BALLOONS LRG 6PC GREEN 0000001000+00001390+00000+0001T   00001390+0000001341          1500 AG3131               1 Z
405089000405089               405089               170213SC     1500+00000+SC0000003953+0000003953+000000000+000000594+0000004540+0000000007+I20000000000+0000004540+Z
405089001405089200-003024     405089006001023657299REFUSE BAGS 20PCE BLACK0000001000+00001912+00000+0001T   00001912+0000001342          1500 AG3214               1 Z
405089002405089903-000194     405089006009826020616SWT CHOC RP LOLLY 25G  0000001000+00001303+00000+0001T   00001390+0006481342          1500 AG3150               1 Z
405089003405089903-000070     405089006001704001106SWT TOFFEE CREAMY 35g  0000001000+00000738+00000+0001T   00000738+0000001342          1500 AG3150               1 Z
405090000405090               405090               170213SC     1500+00000+SC0000014340+0000014340+000000000+000002154+0000016494+0000000000+I40000016494+0000000000+Z
405090001405090079-003011     405090006003000448968A/TUBE 75ML ORANGE     0000001000+00001912+00000+0001T   00001912+0000001344          1500 AG3130               1 Z
405090002405090079-003015     405090006003000634071PAINT ACRYLIC 75ml GOLD0000001000+00002781+00000+0001T   00002781+0000001344          1500 AG3130               1 Z
405090003405090079-000275     405090006003000160488PAINT-BRUSHES 6PCE PRO 0000001000+00001912+00000+0001T   00001912+0000001344          1500 AG3130               1 Z
405090004405090903-000095     405090006001704011495SWT SPECKLED-EGGS 100G 0000001000+00002173+00000+0001T   00002173+0000001344          1500 AG3150               1 Z
405090005405090079-000601     405090006003000640379ART+CRAFT SHEETS METAL 0000002000+00002781+00000+0001T   00002781+0000001344          1500 AG3130               1 Z
405091000405091               405091               170213SC     1500+00000+SC0000002781+0000002781+000000000+000000418+0000003190+0000000009+I20000000000+0000003190+Z
405091001405091018-000129     405091006001023403353MUG OCC. LOVE V-SHAPE  0000001000+00002781+00000+0001T   00002781+0000001345          1500 AG3515               1 Z
405092000405092               405092               170213SC     1500+00000+SC0000008429+0000008429+000000000+000001267+0000009696+0000000000+I40000009696+0000000000+Z
405092001405092031-000874-B   405092006001023798831P/FRAME WDN P/BOX 13X180000001000+00004607+00000+0001T   00004607+0000001347          1500 AG3510               1 Z
405092002405092077-000151     405092006008766114676GIFT-WRAP C/PHANE ASSTD0000002000+00000955+00000+0001T   00000955+0000001347          1500 AG3112               1 Z
405092003405092009-001455     405092006001023696038MELAMINE PLATE 25cm    0000001000+00001912+00000+0001T   00001912+0000001347          1500 AG3210               1 Z
405093000405093               405093               170213SC     1500+00000+SC0000009300+0000009300+000000000+000001396+0000010696+0000000000+I40000010696+0000000000+Z
405093001405093567-010392     405093006002242053435GENERIC AFRIKAANS READE0000001000+00002346+00000+0001T   00002346+0000001350          1500 AG3757               1 Z
405093002405093567-011429     405093009780799352597BK READER BEGIN LEES   0000001000+00003477+00000+0001T   00004868+0008251350          1500 AG3757               1 Z
405093003405093567-011429     405093009780799352580BK READER BEGIN LEES   0000001000+00003477+00000+0001T   00004868+0008251350          1500 AG3757               1 Z
405094000405094               405094               170213SC     1500+00000+SC0000001303+0000001303+000000000+000000196+0000001490+0000000009+I20000000000+0000001490+Z
405094001405094903-000194     405094006009826020616SWT CHOC RP LOLLY 25G  0000001000+00001303+00000+0001T   00001390+0006481351          1500 AG3150               1 Z
405095000405095               405095               170213SC     1500+00000+SC0000001303+0000001303+000000000+000000196+0000001490+0000000009+I20000000000+0000001490+Z
405095001405095903-000194     405095006009826020616SWT CHOC RP LOLLY 25G  0000001000+00001303+00000+0001T   00001390+0006481351          1500 AG3150               1 Z
405096000405096               405096               170213SC     1500+00000+SC0000002911+0000002911+000000000+000000437+0000003340+0000000008+I20000000000+0000003340+Z
405096001405096565-000044     405096006003000128280BARREL OF SLIME 100g   0000001000+00000651+00000+0001T   00000651+0000001352          1500 AG3745               1 Z
405096002405096903-000057     405096006005929000173SWT GS NOVELTY GIANT AL0000001000+00002260+00000+0001T   00002260+0000001352          1500 AG3150               1 Z
405097000405097               405097               170213SC     1500+00000+SC0000001129+0000001129+000000000+000000170+0000001290+0000000009+I20000000000+0000001290+Z
405097001405097079-009702-E   405097008427973059439PAPER SIRIO A2 BLUE    0000001000+00001129+00000+0001T   00001129+0000001354          1500 AG3130               1 Z
405098000405098               405098               170213SC     1500+00000+SC0000013560+0000013560+000000000+000002035+0000015590+0000000005+I20000000000+0000015590+Z
405098001405098039-809558     405098006003000344376CANDLE PILLAR 12CM 4AST0000001000+00006346+00000+0001T   00006346+0000001355          1500 AG3510               1 Z
405098002405098077-000299     405098006003000395576G/BAG 32x25cm LRG LOVE 0000001000+00001564+00000+0001T   00001564+0000001355          1500 AG3112               1 Z
405098003405098088-000084     405098006001023798060P/POURRI 120G ASSTD    0000001000+00001912+00000+0001T   00001912+0000001355          1500 AG3212               1 Z
405098004405098019-000104     405098006003000658176VASE GLASSBUD 16CM     0000001000+00003738+00000+0001T   00003738+0000001355          1500 AG3510               1 Z
405099000405099               405099               170213SC     1500+00000+SC0000002781+0000002781+000000000+000000418+0000003190+0000000009+I20000000000+0000003190+Z
405099001405099077-000270     405099006003000395453GIFT-BAG PPR JMB 33X45 0000001000+00002781+00000+0001T   00002781+0000001355          1500 AG3112               1 Z
405100000405100               405100               170213SC     1500+00000+SC0000005736+0000005736+000000000+000000861+0000006590+0000000007+I20000000000+0000006590+Z
405100001405100088-000084     405100006001023798060P/POURRI 120G ASSTD    0000003000+00001912+00000+0001T   00001912+0000001457          1500 AG3212               1 Z
405101000405101               405101               170213SC     1500+00000+SC0000015000-0000000000+000000000+000000000+0000015000-0000000000+I20000000000+0000015000-Z
405101001405101001-999909     405101000000000999909STAFF-REFRESHMENTS     0000001000-00015000+00000+0001X   00000000+0000001458          0000 AG39091IC            1 Z
405102000405102               405102               170213SC     1500+00000+SC0000008165-0000008165-000000000+000001225-0000009390-0000000000+I20000000000+0000009390-Z
405102001405102001-999907     405102000000000999907CLEANING-MATERIALS     0000001000-00008165+00000+0001T   00000000+0000001459          1500 AG39071IC            1 Z
405103000405103               405103               170213SC     1500+00000+SC0000001738+0000001738+000000000+000000261+0000001990+0000000009+I20000000000+0000001990+Z
405103001405103012-000001     405103006003000331048MICRO PLATE-COVER 26X6 0000001000+00001738+00000+0001T   00002260+0008301500          1500 AG3300               1 Z
405104000405104               405104               170213SC     1500+00000+SC0000005688+0000005688+000000000+000000856+0000006540+0000000004+I20000000000+0000006540+Z
405104001405104077-000150-D   405104006003000054343GIFT-WRAP CELLPHANE CLR0000002000+00000955+00000+0001T   00000955+0000001501          1500 AG3112               1 Z
405104002405104018-000177     405104006001023797513MUG MINI LOVE ASSTD    0000003000+00000738+00000+0001T   00000738+0000001501          1500 AG3515               1 Z
405104003405104089-001021     405104006003000112319KEY CHAIN MINI BIBLE   0000001000+00001564+00000+0001T   00001564+0000001501          1500 AG3205               1 Z
405105000405105               405105               170213SC     1500+00000+SC0000001912+0000001912+000000000+000000287+0000002190+0000000009+I20000000000+0000002190+Z
405105001405105366-004047     405105006001023834850DRESS UP ACCESS TEETH  0000001000+00001912+00000+0001T   00001912+0000001502          1500 AG3131               1 Z
405106000405106               405106               170213SC     1500+00000+SC0000001912+0000001912+000000000+000000287+0000002190+0000000009+I20000000000+0000002190+Z
405106001405106077-000455     405106006003000285389G/BAG METALLIC LRG SOL 0000001000+00001912+00000+0001T   00001912+0000001502          1500 AG3112               1 Z
405107000405107               405107               170213SC     1500+00000+SC0000010606+0000010606+000000000+000001592+0000012190+0000000008+I20000000000+0000012190+Z
405107001405107077-000324     405107006001023677594GIFT-BAG 33X45CM E/D FL0000001000+00001912+00000+0001T   00001912+0000001504          1500 AG3112               1 Z
405107002405107001-091415     405107006003000329113W/GLS OCC. LOVE 2PC 2800000001000+00008694+00000+0001T   00009650+0006481504          1500 AG3515               1 Z
405108000405108               405108               170213SC     1500+00000+SC0000017034+0000017034+000000000+000002558+0000019590+0000000002+I20000000000+0000019590+Z
405108001405108079-003000     405108006003000448838A/TUBE 75ML WHITE      0000001000+00001912+00000+0001T   00001912+0000001515          1500 AG3130               1 Z
405108002405108079-003015     405108006003000634071PAINT ACRYLIC 75ml GOLD0000001000+00002781+00000+0001T   00002781+0000001515          1500 AG3130               1 Z
405108003405108079-003009     405108006003000448722A/TUBE 75ML NATURAL    0000001000+00001912+00000+0001T   00001912+0000001515          1500 AG3130               1 Z
405108004405108079-003011     405108006003000448968A/TUBE 75ML ORANGE     0000001000+00001912+00000+0001T   00001912+0000001515          1500 AG3130               1 Z
405108005405108079-003002     405108006003000447886A/TUBE 75ML RED        0000001000+00001912+00000+0001T   00001912+0000001515          1500 AG3130               1 Z
405108006405108079-003007     405108006003000448487A/TUBE 75ML BROWN      0000001000+00001912+00000+0001T   00001912+0000001515          1500 AG3130               1 Z
405108007405108079-003015     405108006003000634071PAINT ACRYLIC 75ml GOLD0000001000+00002781+00000+0001T   00002781+0000001515          1500 AG3130               1 Z
405108008405108079-000275     405108006003000160488PAINT-BRUSHES 6PCE PRO 0000001000+00001912+00000+0001T   00001912+0000001515          1500 AG3130               1 Z
405109000405109               405109               170213SC     1500+00000+SC0000010514+0000010514+000000000+000001580+0000012094+0000000000+I40000012094+0000000000+Z
405109001405109903-000194     405109006009826020616SWT CHOC RP LOLLY 25G  0000001000+00001303+00000+0001T   00001390+0006481521          1500 AG3150               1 Z
405109002405109031-006534     405109006001023995896P/FRAME AUTO 10x15cm   0000001000+00001738+00000+0001T   00001912+0008091521          1500 AG3510               1 Z
405109003405109024-091102     405109006003453000010BAKING-CUP PAPER 50PC  0000001000+00002260+00000+0001T   00002260+0000001521          1500 AG3300               1 Z
405109005405109200-000168     405109006003000577026PICNIC PLATTERS 8-PACK 0000001000+00003303+00000+0001T   00003303+0000001521          1500 AG3214               1 Z
405109006405109077-000151     405109006008766114676GIFT-WRAP C/PHANE ASSTD0000002000+00000955+00000+0001T   00000955+0000001521          1500 AG3112               1 Z
405110000405110               405110               170213SC     1500+00000+SC0000001912+0000001912+000000000+000000287+0000002190+0000000009+I20000000000+0000002190+Z
405110001405110082-000392     405110006003000621811SPECTACLE REPAIR KIT   0000001000+00001912+00000+0001T   00001912+0000001522          1500 AG3160               1 Z
405111000405111               405111               170213SC     1500+00000+SC0000002781+0000002781+000000000+000000418+0000003190+0000000009+I20000000000+0000003190+Z
405111001405111018-000129     405111006001023403353MUG OCC. LOVE V-SHAPE  0000001000+00002781+00000+0001T   00002781+0000001537          1500 AG3515               1 Z
405112000405112               405112               170213SC     1500+00000+SC0000003736+0000003736+000000000+000000562+0000004290+0000000008+I20000000000+0000004290+Z
405112001405112018-000129     405112006001023403353MUG OCC. LOVE V-SHAPE  0000001000+00002781+00000+0001T   00002781+0000001537          1500 AG3515               1 Z
405112002405112077-000150-D   405112006003000054343GIFT-WRAP CELLPHANE CLR0000001000+00000955+00000+0001T   00000955+0000001537          1500 AG3112               1 Z
405113000405113               405113               170213SC     1500+00000+SC0000013815+0000013815+000000000+000002075+0000015890+0000000000+I40000015890+0000000000+Z
405113001405113301-086010     405113006003000573400ORN TEABAG HOLDER 20cm 0000001000+00003042+00000+0001T   00003129+0008091540          1500 AG3505               1 Z
405113002405113007-000555     405113006001023848239MEMO-PAD MINI LOVE     0000001000+00000651+00000+0001T   00000651+0000001540          1500 AG3130               1 Z
405113003405113018-000170     405113006001023775528MUG OCC. LOVE 2PC MINI 0000001000+00002346+00000+0001T   00002346+0000001540          1500 AG3515               1 Z
405113004405113006-000190     405113006003000685530BALLOONS LOVE 81x91cm  0000001000+00004346+00000+0001T   00004607+0006481540          1500 AG3131               1 Z
405113005405113080-000124     405113006003000297733CARD & ENV VALENTINES  0000001000+00001564+00000+0001T   00001651+0006481540          1500 AG3112               1 Z
405113006405113903-000155     405113006009803374435SWT LOLLY I LUV U HEART0000001000+00000564+00000+0001T   00000564+0000001540          1500 AG3150               1 Z
405113007405113077-000321     405113006001023677501GIFT-BAG 11X14CM E/D FL0000001000+00000651+00000+0001T   00000651+0000001540          1500 AG3112               1 Z
405113008405113077-000317     405113006001023609748GIFT-BAG 11X14CM E/D AN0000001000+00000651+00000+0001T   00000651+0000001540          1500 AG3112               1 Z
405114000405114               405114               170213SC     1500+00000+SC0000000955+0000000955+000000000+000000144+0000001090+0000000009+I20000000000+0000001090+Z
405114001405114150-004032-H   405114006003000645367BASIN-PLUG 2PCE BLACK  0000001000+00000955+00000+0001T   00000955+0000001541          1500 AG3810               1 Z
405115000405115               405115               170213SC     1500+00000+SC0000003476+0000003476+000000000+000000522+0000003990+0000000008+I20000000000+0000003990+Z
405115001405115071-081110     405115006936198405454CORRECTION FLUID PEN   0000001000+00001564+00000+0001T   00001564+0000001541          1500 AG3130               1 Z
405115002405115007-000723     405115006003000226078MEMO BOOK W/PEN 100SHTS0000001000+00001912+00000+0001T   00001912+0000001541          1500 AG3130               1 Z
405116000405116               405116               170213SC     1500+00000+SC0000003477+0000003477+000000000+000000522+0000003990+0000000009+I20000000000+0000003990+Z
405116001405116301-085004     405116006003000420469ORN LOVE PLAQUE 21X10CM0000001000+00003477+00000+0001T   00003999+0006481542          1500 AG3505               1 Z
405117000405117               405117               170213SC     1500+00000+SC0000008518+0000008518+000000000+000001279+0000009790+0000000007+I20000000000+0000009790+Z
405117001405117041-093000     405117006003000320882B/GIFT SET 4PC B/RANGE 0000001000+00007390+00000+0001T   00007390+0000001544          1500 AG3200               1 Z
405117002405117903-000155     405117006009803374435SWT LOLLY I LUV U HEART0000002000+00000564+00000+0001T   00000564+0000001544          1500 AG3150               1 Z
405118000405118               405118               170213SC     1500+00000+SC0000003824+0000003824+000000000+000000574+0000004390+0000000008+I20000000000+0000004390+Z
405118001405118051-002406     405118006003000139415SPRAY PL TRIGGER 700ml 0000002000+00001912+00000+0001T   00001912+0000001546          1500 AG3820               1 Z
405119000405119               405119               170213SC     1500+00000+SC0000012954+0000012954+000000000+000001944+0000014898+0000000000+I40000014898+0000000000+Z
405119001405119361-000299     405119006001023794154DOLL 29cm BALLET       0000001000+00007390+00000+0001T   00007390+0000001547          1500 AG3725               1 Z
405119002405119065-000015     405119006003000536474MICROPHNE & SUNGLASSESS0000001000+00005564+00000+0001T   00005564+0000001547          1500 AG3745               1 Z
405120000405120               405120               170213SC     1500+00000+SC0000001912+0000001912+000000000+000000287+0000002190+0000000009+I20000000000+0000002190+Z
405120001405120077-000316     405120006001023609731GIFT-BAG 25X32CM MATT  0000001000+00001912+00000+0001T   00001912+0000001548          1500 AG3112               1 Z
405121000405121               405121               170213SC     1500+00000+SC0000003736+0000003736+000000000+000000562+0000004290+0000000008+I20000000000+0000004290+Z
405121001405121018-000129     405121006001023403353MUG OCC. LOVE V-SHAPE  0000001000+00002781+00000+0001T   00002781+0000001550          1500 AG3515               1 Z
405121002405121077-000302     405121008010410010195GIFT-BAG 18X23CM E/D   0000001000+00000955+00000+0001T   00000955+0000001550          1500 AG3112               1 Z
405122000405122               405122               170213SC     1500+00000+SC0000005564+0000005564+000000000+000000835+0000006390+0000000009+I20000000000+0000006390+Z
405122001405122031-086103     405122006001023900746P/FRAME GLS FILM 2HOLE 0000001000+00005564+00000+0001T   00005564+0000001551          1500 AG3510               1 Z
405123000405123               405123               170213SC     1500+00000+SC0000008694+0000008694+000000000+000001305+0000009990+0000000009+I20000000000+0000009990+Z
405123001405123368-000614     405123006001023705808PLUSH LOVE 30cm        0000001000+00008694+00000+0001T   00009564+0006481553          1500 AG3745               1 Z
405124000405124               405124               170213SC     1500+00000+SC0000002127+0000002127+000000000+000000320+0000002440+0000000007+I20000000000+0000002440+Z
405124001405124033-005994     405124006001023789570SEWING-NEEDLES 16PCE   0000001000+00000651+00000+0001T   00000651+0000001553          1500 AG3200               1 Z
405124002405124033-010721     405124006001023678669SAFETY-PINS 20PCE ASSTD0000001000+00000738+00000+0001T   00000738+0000001553          1500 AG3200               1 Z
405124003405124033-005920-A   405124006001023678249SEWING-THREAD 100m WHT 0000001000+00000738+00000+0001T   00000738+0000001553          1500 AG3200               1 Z
405125000405125               405125               170213SC     1500+00000+SC0000004346+0000004346+000000000+000000652+0000004990+0000000008+I20000000000+0000004990+Z
405125001405125368-000049     405125006003000536955PLUSH BEAR 15cm LOVE   0000001000+00004346+00000+0001T   00004607+0006481554          1500 AG3745               1 Z
405126000405126               405126               170213SC     1500+00000+SC0000001303+0000001303+000000000+000000196+0000001490+0000000009+I20000000000+0000001490+Z
405126001405126077-000322     405126006001023677532GIFT-BAG 18X23CM E/D FL0000001000+00001303+00000+0001T   00001303+0000001558          1500 AG3112               1 Z
405127000405127               405127               170213SC     1500+00000+SC0000001303+0000001303+000000000+000000196+0000001490+0000000009+I20000000000+0000001490+Z
405127001405127077-000245     405127006001023759214GIFT-RIBBON METALLICx2 0000001000+00001303+00000+0001T   00001303+0000001559          1500 AG3112               1 Z
405128000405128               405128               170213SC     1500+00000+SC0000004692+0000004692+000000000+000000704+0000005390+0000000006+I20000000000+0000005390+Z
405128001405128018-000170     405128006001023775528MUG OCC. LOVE 2PC MINI 0000002000+00002346+00000+0001T   00002346+0000001600          1500 AG3515               1 Z
405129000405129               405129               170213SC     1500+00000+SC0000000955+0000000955+000000000+000000144+0000001090+0000000009+I20000000000+0000001090+Z
405129001405129077-000151     405129006008766114676GIFT-WRAP C/PHANE ASSTD0000001000+00000955+00000+0001T   00000955+0000001601          1500 AG3112               1 Z
405130000405130               405130               170213SC     1500+00000+SC0000007389+0000007389+000000000+000001109+0000008490+0000000008+I20000000000+0000008490+Z
405130002405130263-000623     405130006001023905697VEHICLE HELICOPTER 30cm0000001000+00005477+00000+0001T   00005477+0000001605          1500 AG3710               1 Z
405130003405130077-000906     405130006003000410804G/WRAP 700mmx1m BIRTHDA0000001000+00001912+00000+0001T   00001912+0000001605          1500 AG3112               1 Z
405131000405131               405131               170213SC     1500+00000+SC0000002781+0000002781+000000000+000000418+0000003190+0000000009+I20000000000+0000003190+Z
405131001405131466-000584     405131006001023628787SKIPPING-ROPE          0000001000+00002781+00000+0001T   00002781+0000001620          1500 AG3785               1 Z
405132000405132               405132               170213SC     1500+00000+SC0000003824+0000003824+000000000+000000574+0000004390+0000000008+I20000000000+0000004390+Z
405132001405132264-000921     405132000090159150442MAISTO CAR 3" FRESH    0000002000+00001912+00000+0001T   00001912+0000001623          1500 AG3710               1 Z
405133000405133               405133               170213SC     1500+00000+SC0000005389+0000005389+000000000+000000809+0000006190+0000000008+I20000000000+0000006190+Z
405133001405133007-000044     405133006009635831489DISPLAY-BOOK A4 10-PAGE0000001000+00001390+00000+0001T   00001390+0000001628          1500 AG3130               1 Z
405133002405133007-000047     405133006009635833698FILE DISPLAY-BK A4 50PG0000001000+00003999+00000+0001T   00003999+0000001628          1500 AG3130               1 Z
405134000405134               405134               170213SC     1500+00000+SC0000005302+0000005302+000000000+000000796+0000006090+0000000008+I20000000000+0000006090+Z
405134001405134077-000299     405134006003000395576G/BAG 32x25cm LRG LOVE 0000001000+00001564+00000+0001T   00001564+0000001630          1500 AG3112               1 Z
405134002405134018-005009     405134006001023725608MUG W/PLUSH-BEAR LOVE  0000001000+00003738+00000+0001T   00003738+0000001630          1500 AG3515               1 Z
405135000405135               405135               170213SC     1500+00000+SC0000004693+0000004693+000000000+000000705+0000005390+0000000008+I20000000000+0000005390+Z
405135001405135080-000137     405135006003000589159CARD & ENV GIANT FEMALE0000001000+00002781+00000+0001T   00002781+0000001632          1500 AG3112               1 Z
405135002405135077-000471     405135006003000330096G-BAG DESGN MED 18X23CM0000001000+00001912+00000+0001T   00001912+0000001632          1500 AG3112               1 Z
405136000405136               405136               170213SC     1500+00000+SC0000007476+0000007476+000000000+000001122+0000008590+0000000008+I20000000000+0000008590+Z
405136001405136080-000116     405136006003000253555CARD&ENVELOPE-HANDMADE 0000001000+00001912+00000+0001T   00001912+0000001702          1500 AG3112               1 Z
405136002405136018-019000     405136006003000557288MUG OCC. LOVE JUMBO    0000001000+00005564+00000+0001T   00005564+0000001702          1500 AG3515               1 Z
405137000405137               405137               170213SC     1500+00000+SC0000001912+0000001912+000000000+000000287+0000002190+0000000009+I20000000000+0000002190+Z
405137001405137006-000800     405137006001023902801HAT CABARET 14x18cm    0000001000+00001912+00000+0001T   00001912+0000001702          1500 AG3131               1 Z
405138000405138               405138               170213SC     1500+00000+SC0000002781+0000002781+000000000+000000418+0000003190+0000000009+I20000000000+0000003190+Z
405138001405138077-000270     405138006003000395453GIFT-BAG PPR JMB 33X45 0000001000+00002781+00000+0001T   00002781+0000001703          1500 AG3112               1 Z
405139000405139               405139               170213SC     1500+00000+SC0000015388+0000015388+000000000+000002310+0000017698+0000000000+I40000017698+0000000000+Z
405139001405139031-001008     405139006003000406494P/FRAME COLLAGE PLASTIC0000001000+00012607+00000+0001T   00012607+0000001705          1500 AG3510               1 Z
405139002405139077-000270     405139006003000395453GIFT-BAG PPR JMB 33X45 0000001000+00002781+00000+0001T   00002781+0000001705          1500 AG3112               1 Z
405140000405140               405140               170213SC     1500+00000+SC0000006520+0000006520+000000000+000000978+0000007490+0000000008+I20000000000+0000007490+Z
405140001405140007-000898     405140006001023871947BOOK JOURNAL           0000001000+00006520+00000+0001T   00006520+0000001706          1500 AG3130               1 Z
405141000405141               405141               170213SC     1500+00000+SC0000006520-0000006520-000000000+000000978-0000007500-0000000002+I20000000000+0000007500-Z
405141001405141007-000898     405141006001023871947BOOK JOURNAL           0000001000-00006520+00000+0001T   00006520+0000001707          1500 AG31302IC            1 Z
405142000405142               405142               170213SC     1500+00000+SC0000012607+0000012607+000000000+000001892+0000014499+0000000000+I40000014499+0000000000+Z
405142001405142368-000113     405142006001023780874PLUSH BLINGED LOVE 30cm0000001000+00012607+00000+0001T   00012607+0000001710          1500 AG3745               1 Z
405143000405143               405143               170213SC     1500+00000+SC0000010735+0000010735+000000000+000001611+0000012346+0000000000+I40000012346+0000000000+Z
405143001405143369-001137-B   405143006003000626373BABY BATH VINYL DUCK   0000001000+00001651+00000+0001T   00001651+0000001712          1500 AG3745               1 Z
405143002405143903-000120     405143006002099001665SWEET GS ZILLIONS 50g  0000001000+00000738+00000+0001T   00000738+0000001712          1500 AG3150               1 Z
405143003405143560-000245     405143006001023622716RUBBER ANIMALS 10PC ASS0000001000+00008346+00000+0001T   00008346+0000001712          1500 AG3745               1 Z
405144000405144               405144               170213SC     1500+00000+SC0000021297+0000021297+000000000+000003197+0000024494+0000000000+I40000024494+0000000000+Z
405144001405144082-096891     405144006001492968919SUNGLASS MENS MASK     0000001000+00006520+00000+0001T   00006520+0000001714          1500 AG3160               1 Z
405144002405144263-000145     405144006001023708298MOTORBIKE PL           0000001000+00005564+00000+0001T   00005564+0000001714          1500 AG3710               1 Z
405144003405144466-000106     405144006003000128112BALL PL 20CM BASKETBALL0000001000+00003738+00000+0001T   00003738+0000001714          1500 AG3785               1 Z
405144004405144266-000207     405144006001023708823GLIDER JET LAUNCHER    0000001000+00004607+00000+0001T   00004607+0000001714          1500 AG3710               1 Z
405144005405144903-000137     405144006002099004130SWEET GS JELLY BEAN 60G0000001000+00000868+00000+0001T   00000868+0000001714          1500 AG3150               1 Z
405145000405145               405145               170213SC     1500+00000+SC0000018253+0000018253+000000000+000002741+0000020990+0000000004+I20000000000+0000020990+Z
405145001405145403-000005     405145006001023801814JEWEL BOX PL W/DRAWER  0000001000+00007216+00000+0001T   00007216+0000001717          1500 AG3510               1 Z
405145002405145903-004950     405145006002580020304SWT APRICOT SURPRISE   0000001000+00001390+00000+0001T   00001390+0000001717          1500 AG3150               1 Z
405145003405145903-000087     405145006001704000161SWT SPECKLED-EGGS 50G  0000001000+00001216+00000+0001T   00001216+0000001717          1500 AG3150               1 Z
405145004405145077-000381     405145006003000247707GIFT-BAG 25X32CM S/COL 0000001000+00001912+00000+0001T   00001912+0000001717          1500 AG3112               1 Z
405145005405145369-001138-C   405145006003000587520BABY BATH VINYL G/MAN  0000001000+00002781+00000+0001T   00002781+0000001717          1500 AG3745               1 Z
405145006405145018-005009     405145006001023725608MUG W/PLUSH-BEAR LOVE  0000001000+00003738+00000+0001T   00003738+0000001717          1500 AG3515               1 Z
405146000405146               405146               170213SC     1500+00000+SC0000018517+0000018517+000000000+000002779+0000021296+0000000000+I40000021296+0000000000+Z
405146001405146031-086219-C   405146006001023808905P/FRAME WDN A4 30X40CM 0000001000+00007390+00000+0001T   00007390+0000001720          1500 AG3510               1 Z
405146002405146002-003725     405146006001023849557COLANDER S/S 24x10cm   0000001000+00006520+00000+0001T   00006520+0000001720          1500 AG3300               1 Z
405146003405146024-000003     405146006001023462206S/BURNER COVERS ASSTD  0000001000+00004607+00000+0001T   00004607+0000001720          1500 AG3300               1 Z
405147000405147               405147               170213SC     1500+00000+SC0000001564+0000001564+000000000+000000235+0000001790+0000000009+I20000000000+0000001790+Z
405147001405147077-000299     405147006003000395576G/BAG 32x25cm LRG LOVE 0000001000+00001564+00000+0001T   00001564+0000001720          1500 AG3112               1 Z
405148000405148               405148               170213SC     1500+00000+SC0000002346+0000002346+000000000+000000352+0000002690+0000000008+I20000000000+0000002690+Z
405148001405148018-000170     405148006001023775528MUG OCC. LOVE 2PC MINI 0000001000+00002346+00000+0001T   00002346+0000001721          1500 AG3515               1 Z
405149000405149               405149               170213SC     1500+00000+SC0000003730+0000003730+000000000+000000562+0000004290+0000000002+I20000000000+0000004290+Z
405149001405149903-000183     405149006003000451043SWT LB HEART LOLLY     0000002000+00000433+00000+0001T   00000433+0000001723          1500 AG3150               1 Z
405149002405149903-000200     405149006009826020234SWT CHOC RP CHOCO 23G  0000001000+00000781+00000+0001T   00000825+0006481723          1500 AG31501IC            1 Z
405149003405149903-000155     405149006009803374435SWT LOLLY I LUV U HEART0000002000+00000564+00000+0001T   00000564+0000001723          1500 AG3150               1 Z
405149004405149006-000180     405149006003000610402BALLOONS BIRTHDAY ASSTD0000001000+00000955+00000+0001T   00000955+0000001723          1500 AG3131               1 Z
405150000405150               405150               170213SC     1500+00000+SC0000002606+0000002606+000000000+000000392+0000002990+0000000008+I20000000000+0000002990+Z
405150001405150077-000245     405150006001023759214GIFT-RIBBON METALLICx2 0000002000+00001303+00000+0001T   00001303+0000001730          1500 AG3112               1 Z
405151000405151               405151               170213SC     1500+00000+SC0000000955+0000000955+000000000+000000144+0000001090+0000000009+I20000000000+0000001090+Z
405151001405151903-003051     405151008024431008703SWT CHOCO PARTY 25G    0000001000+00000955+00000+0001T   00000955+0000001731          1500 AG3150               1 Z
405152000405152               405152               170213SC     1500+00000+SC0000000955+0000000955+000000000+000000144+0000001090+0000000009+I20000000000+0000001090+Z
405152001405152077-000150-D   405152006003000054343GIFT-WRAP CELLPHANE CLR0000001000+00000955+00000+0001T   00000955+0000001732          1500 AG3112               1 Z
405153000405153               405153               170213SC     1500+00000+SC0000004693+0000004693+000000000+000000705+0000005390+0000000008+I20000000000+0000005390+Z
405153001405153088-000084     405153006001023798060P/POURRI 120G ASSTD    0000001000+00001912+00000+0001T   00001912+0000001733          1500 AG3212               1 Z
405153002405153304-000720     405153006001023843050F/BUNCH ROSE 6-HEAD AST0000001000+00002781+00000+0001T   00002781+0000001733          1500 AG3510               1 Z
405154000405154               405154               170213SC     1500+00000+SC0000005564+0000005564+000000000+000000835+0000006399+0000000000+I40000006399+0000000000+Z
405154001405154024-000168-B   405154006003000674916T/PLATE BAKEWARE ROASTE0000001000+00005564+00000+0001T   00005564+0000001734          1500 AG3300               1 Z
405155000405155               405155               170213SC     1500+00000+SC0000004911+0000004911+000000000+000000737+0000005640+0000000008+I20000000000+0000005640+Z
405155001405155159-000104     405155006001023999290SHOWER-CADDY 3-TIER PL 0000001000+00004173+00000+0001T   00004173+0000001735          1500 AG3200               1 Z
405155002405155903-000070     405155006001704001106SWT TOFFEE CREAMY 35g  0000001000+00000738+00000+0001T   00000738+0000001735          1500 AG3150               1 Z
405156000405156               405156               170213SC     1500+00000+SC0000005648+0000005648+000000000+000000849+0000006490+0000000007+I20000000000+0000006490+Z
405156001405156366-007601     405156006003000655472DRESS UP MASK THEATRICA0000002000+00000955+00000+0001T   00000955+0000001736          1500 AG3131               1 Z
405156002405156031-005920     405156006003000580699P/FRAME PL PLAIN 20X25 0000001000+00003738+00000+0001T   00003738+0000001736          1500 AG3510               1 Z
405157000405157               405157               170213SC     1500+00000+SC0000006343+0000006343+000000000+000000953+0000007290+0000000006+I20000000000+0000007290+Z
405157001405157903-000698     405157006002099007032SWT CANDY ECLAIRS 90g  0000001000+00001216+00000+0001T   00001216+0000001737          1500 AG3150               1 Z
405157002405157266-000503     405157006001023791740TRANSFORMER WARRIOR 8cm0000002000+00001912+00000+0001T   00001912+0000001737          1500 AG3710               1 Z
405157003405157075-000348     405157006003000099474PURSE SILICONE W/CLIP  0000001000+00001303+00000+0001T   00001912+0008201737          1500 AG3160               1 Z
405158000405158               405158               170213SC     1500+00000+SC0000011128+0000011128+000000000+000001670+0000012790+0000000008+I20000000000+0000012790+Z
405158001405158050-000250     405158006001023904515PADLOCK K/ALIK BRS 20mm0000002000+00005564+00000+0001T   00005564+0000001738          1500 AG3855               1 Z
405159000405159               405159               170213SC     1500+00000+SC0000014996+0000014996+000000000+000002251+0000017240+0000000007+I20000000000+0000017240+Z
405159001405159368-000111     405159006001023780812PLUSH BEAR/DOG 29CM    0000001000+00012607+00000+0001T   00012607+0000001739          1500 AG3745               1 Z
405159002405159077-000299-A   405159006003000670888GIFT-BAG PAPER JMB LOVE0000001000+00001912+00000+0001T   00001912+0000001739          1500 AG3112               1 Z
405159003405159080-000133     405159006003000535613CARD&ENV MINI ASTD DSGN0000001000+00000477+00000+0001T   00000477+0000001739          1500 AG3112               1 Z
405160000405160               405160               170213SC     1500+00000+SC0000005212+0000005212+000000000+000000784+0000005990+0000000006+I20000000000+0000005990+Z
405160001405160071-081104-A   405160006003000326662GLUE-STICK 8g CRD-OF-3 0000001000+00001303+00000+0001T   00001303+0000001740          1500 AG3130               1 Z
405160002405160079-000010     405160006001023173409P/CRAYONS 12-COL SHORT 0000003000+00001303+00000+0001T   00001303+0000001740          1500 AG3130               1 Z
405161000405161               405161               170213SC     1500+00000+SC0000001129+0000001129+000000000+000000170+0000001290+0000000009+I20000000000+0000001290+Z
405161001405161079-009702-A   405161008427973059408PAPER SIRIO A2 BLACK   0000001000+00001129+00000+0001T   00001129+0000001741          1500 AG3130               1 Z
405162000405162               405162               170213SC     1500+00000+SC0000002781+0000002781+000000000+000000418+0000003190+0000000009+I20000000000+0000003190+Z
405162001405162018-000129     405162006001023403353MUG OCC. LOVE V-SHAPE  0000001000+00002781+00000+0001T   00002781+0000001742          1500 AG3515               1 Z
405163000405163               405163               170213SC     1500+00000+SC0000011562+0000011562+000000000+000001735+0000013297+0000000000+I40000013297+0000000000+Z
405163001405163024-000107     405163006001023422071MUFFIN-PAN 12-CUP      0000001000+00009650+00000+0001T   00009650+0000001743          1500 AG3300               1 Z
405163002405163024-091100     405163006001023914224BAKING-CUPS PAPER 100PC0000001000+00001912+00000+0001T   00001912+0000001743          1500 AG3300               1 Z
405164000405164               405164               170213SC     1500+00000+SC0000003127+0000003127+000000000+000000470+0000003590+0000000007+I20000000000+0000003590+Z
405164001405164002-000879     405164006001023770004STRAINER TEA 7cm H/H   0000001000+00000346+00000+0001T   00000346+0000001744          1500 AG3300               1 Z
405164002405164071-008231     405164006001023811332PENCIL-BAG 20cm        0000001000+00002781+00000+0001T   00002781+0000001744          1500 AG3130               1 Z
405165000405165               405165               170213SC     1500+00000+SC0000021807+0000021807+000000000+000003278+0000025080+0000000005+I20000000000+0000025080+Z
405165001405165071-005213     405165006001023690371CELLOTAPE 12mmx33m     0000002000+00000955+00000+0001T   00000955+0000001752          1500 AG3130               1 Z
405165002405165088-000084     405165006001023798060P/POURRI 120G ASSTD    0000002000+00001912+00000+0001T   00001912+0000001752          1500 AG3212               1 Z
405165003405165077-000150-D   405165006003000054343GIFT-WRAP CELLPHANE CLR0000001000+00000955+00000+0001T   00000955+0000001752          1500 AG3112               1 Z
405165004405165039-000114     405165006001023524058CANDLE T/LITE RED 3.5CM0000001000+00001912+00000+0001T   00001912+0000001752          1500 AG3510               1 Z
405165005405165039-000108     405165006001023524034TEA-LITE CANDLES 8PCE  0000001000+00001564+00000+0001T   00001564+0000001752          1500 AG3510               1 Z
405165006405165039-000114     405165006001023524058CANDLE T/LITE RED 3.5CM0000002000+00001912+00000+0001T   00001912+0000001752          1500 AG3510               1 Z
405165007405165039-000108     405165006001023524034TEA-LITE CANDLES 8PCE  0000001000+00001564+00000+0001T   00001564+0000001752          1500 AG3510               1 Z
405165008405165071-081091     405165006001151010287STAED/GENKEM ALL-STICK 0000001000+00001303+00000+0001T   00001303+0000001752          1500 AG3130               1 Z
405165009405165079-006494     405165006003000159864GLITTER GLUE 5PCE 11cm 0000001000+00001564+00000+0001T   00001564+0000001752          1500 AG3130               1 Z
405165010405165079-009702-B   405165008427973059491PAPER SIRIO A2 WHITE   0000002000+00001129+00000+0001T   00001129+0000001752          1500 AG3130               1 Z
405165011405165079-009702-D   405165008427973059354PAPER SIRIO A2 RED COL 0000001000+00001129+00000+0001T   00001129+0000001752          1500 AG3130               1 Z
405166000405166               405166               170213SC     1500+00000+SC0000010164+0000010164+000000000+000001529+0000011693+0000000000+I40000011693+0000000000+Z
405166001405166089-000099     405166006003000677566KEY CHAIN MTL SPORT AST0000001000+00000955+00000+0001T   00000955+0000001755          1500 AG3205               1 Z
405166002405166077-000245     405166006001023759214GIFT-RIBBON METALLICx2 0000001000+00001303+00000+0001T   00001303+0000001755          1500 AG3112               1 Z
405166003405166903-002850     405166000000087108262MENTOS ROLL FRUIT      0000001000+00001129+00000+0001T   00001129+0000001755          1500 AG3150               1 Z
405166004405166903-002852     405166000000087108040MENTOS ROLL SPEARMINT  0000001000+00001129+00000+0001T   00001129+0000001755          1500 AG3150               1 Z
405166005405166903-000014     405166000070970459931SWT MIKE N IKE ORIG 23G0000001000+00001129+00000+0001T   00001129+0000001755          1500 AG3150               1 Z
405166006405166018-000129     405166006001023403353MUG OCC. LOVE V-SHAPE  0000001000+00002781+00000+0001T   00002781+0000001755          1500 AG3515               1 Z
405166007405166103-000030     405166006003000510085BASKET WOVE ROUND 17X170000001000+00001738+00000+0001T   00002260+0008271755          1500 AG3300               1 Z
405167000405167               405167               170213SC     1500+00000+SC0000010254+0000010254+000000000+000001541+0000011795+0000000000+I40000011795+0000000000+Z
405167001405167077-000299-A   405167006003000670888GIFT-BAG PAPER JMB LOVE0000001000+00001912+00000+0001T   00001912+0000001757          1500 AG3112               1 Z
405167002405167001-000175     405167006001023788108B/MUG GLS LOVE 380ML   0000001000+00004607+00000+0001T   00004607+0000001757          1500 AG3515               1 Z
405167003405167903-000499     405167006001704012492SWT CHOC MALLOWS 50g   0000001000+00001303+00000+0001T   00001303+0000001757          1500 AG3150               1 Z
405167004405167903-000087     405167006001704000161SWT SPECKLED-EGGS 50G  0000001000+00001216+00000+0001T   00001216+0000001757          1500 AG3150               1 Z
405167005405167565-000071     405167006003000643387NOVELTY WIND UP CHATTER0000001000+00001216+00000+0001T   00001216+0000001757          1500 AG3745               1 Z
405168000405168               405168               170213SC     1500+00000+SC0000000477+0000000477+000000000+000000072+0000000540+0000000009+I20000000000+0000000540+Z
405168001405168080-000133     405168006003000535613CARD&ENV MINI ASTD DSGN0000001000+00000477+00000+0001T   00000477+0000001759          1500 AG3112               1 Z
405169000405169               405169               170213SC     1500+00000+SC0000008431+0000008431+000000000+000001266+0000009690+0000000007+I20000000000+0000009690+Z
405169001405169028-002101     405169006002580009507CHAIR JUNIOR    ASSTD  0000001000+00003738+00000+0001T   00003738+0000001759          1500 AG3305               1 Z
405169002405169361-003012     405169006001023667052DOLL MED 28cm BLOW MOUL0000001000+00000955+00000+0001T   00000955+0000001759          1500 AG3725               1 Z
405169003405169262-000013     405169006008766065060MOTORBIKES             0000001000+00003738+00000+0001T   00003738+0000001759          1500 AG3710               1 Z
405170000405170               405170               170213SC     1500+00000+SC0000002346+0000002346+000000000+000000352+0000002690+0000000008+I20000000000+0000002690+Z
405170001405170077-000924     405170006003000414055G/WRAP 700mmx2m WEDDING0000001000+00002346+00000+0001T   00002346+0000001801          1500 AG3112               1 Z
405171000405171               405171               170213SC     1500+00000+SC0000002781+0000002781+000000000+000000418+0000003190+0000000009+I20000000000+0000003190+Z
405171001405171031-005918     405171006003000580453P/FRAME PL PLAIN 10X15 0000001000+00002781+00000+0001T   00002781+0000001801          1500 AG3510               1 Z
405172000405172               405172               170213SC     1500+00000+SC0000020428+0000020428+000000000+000003066+0000023494+0000000000+I40000023494+0000000000+Z
405172001405172041-092011     405172006003000384280BATH G/SET VINTAGE 3PC 0000001000+00004607+00000+0001T   00004607+0000001807          1500 AG3200               1 Z
405172002405172077-000388     405172006003000421671G/BAG 25X32CM VALUE PCK0000001000+00002781+00000+0001T   00002781+0000001807          1500 AG3112               1 Z
405172003405172368-000265     405172006001023750914PLUSH BEAR 23CM ASSTD C0000001000+00006520+00000+0001T   00006520+0000001807          1500 AG3745               1 Z
405172004405172103-000071     405172006001023889713BASKET RECT 30X19X12cm 0000001000+00006520+00000+0001T   00006520+0000001807          1500 AG3300               1 Z
405173000405173               405173               170213SC     1500+00000+SC0000004691+0000004691+000000000+000000706+0000005390+0000000007+I20000000000+0000005390+Z
405173001405173077-000150-D   405173006003000054343GIFT-WRAP CELLPHANE CLR0000002000+00000955+00000+0001T   00000955+0000001809          1500 AG3112               1 Z
405173002405173082-092844     405173006001492928449#TAG SPECTACLE POUCH   0000001000+00002781+00000+0001T   00002781+0000001809          1500 AG3160               1 Z
405174000405174               405174               170213SC     1500+00000+SC0000002867+0000002867+000000000+000000431+0000003290+0000000008+I20000000000+0000003290+Z
405174001405174077-000305     405174006003000395422GIFT-BAG WINE 10X35CM  0000001000+00001564+00000+0001T   00001564+0000001810          1500 AG3112               1 Z
405174002405174077-000602     405174006003000395545GIFT-BAG MED 18X23CM   0000001000+00001303+00000+0001T   00001303+0000001810          1500 AG3112               1 Z
405175000405175               405175               170213SC     1500+00000+SC0000006345+0000006345+000000000+000000953+0000007290+0000000008+I20000000000+0000007290+Z
405175001405175015-000020     405175006001023910974BOWL SET GLASS EQUATOR 0000001000+00004607+00000+0001T   00004607+0000001812          1500 AG3515               1 Z
405175002405175012-000001     405175006003000331048MICRO PLATE-COVER 26X6 0000001000+00001738+00000+0001T   00002260+0008301812          1500 AG3300               1 Z
405176000405176               405176               170213SC     1500+00000+SC0000002431+0000002431+000000000+000000366+0000002797+0000000000+I40000002797+0000000000+Z
405176001405176903-000699     405176006002099007018SWT CANDY FRUIT CHEWS  0000001000+00001216+00000+0001T   00001216+0000001816          1500 AG3150               1 Z
405176002405176903-000155     405176006009803374435SWT LOLLY I LUV U HEART0000001000+00000564+00000+0001T   00000564+0000001816          1500 AG3150               1 Z
405176003405176903-000848     405176008692806080076SWT SNACK BISCUIT 70g  0000001000+00000651+00000+0001T   00000651+0000001816          1500 AG3150               1 Z
405177000405177               405177               170213SC     1500+00000+SC0000001128+0000001128+000000000+000000170+0000001290+0000000008+I20000000000+0000001290+Z
405177001405177903-000155     405177006009803374435SWT LOLLY I LUV U HEART0000002000+00000564+00000+0001T   00000564+0000001817          1500 AG31501IC            1 Z
A17021300                                          09114203SCSLAVE 1                       AG33IC
A17021301                                          09564562SCSLAVE 1                       AG31IC
A17021302                                          10192166SCSLAVE 1                       AG32IC
A17021303                                          11235534SCSLAVE 1                       AG32IC
A17021304                                          12313240SCSLAVE 1                       AG33IC
A17021305                                          14224464SCSLAVE 1                       AG32IC
B40503500                                          170213SC039-000026     12194739SLAVE 1     AG31IC0000012000+0000011000+0000000000000+
B40514900                                          170213SC903-000200     17231756SLAVE 1     AG31IC0000002000+0000001000+0000000000000+
B40517700                                          170213SC903-000155     18172487SLAVE 1     AG31IC0000003000+0000002000+0000000000000+
C40499400                                          170213SC034-000830     09422874SLAVE 1     AG32IC0000000000+0000000000+0010000002000+
C40510000                                          170213SC001-999908     14561750SLAVE 1     AG31IC0000000000+0000000000+0010000001000-
C40510900                                          170213SC104-000030     15193787SLAVE 1     AG32IC0000000000+0000000000+0040000001000+
C40513000                                          170213SC263-000310     16044704SLAVE 1     AG33IC0000000000+0000000000+0010000001000+
C40514500                                          170213SC089-001021     17171840SLAVE 1     AG33IC0000000000+0000000000+0070000001000+
