418657000418657               418657               170213SC     1500+00000+SC0000022431+0000022431+000000000+000003366+0000025797+0000000000+I40000025797+0000000000+Z
418657001418657368-000637     418657006001023874092PLUSH BEAR SLEEPING LOV0000001000+00011303+00000+0001T   00012607+0006480956          1500 J51745               2 Z
418657002418657077-000299     418657006003000395576G/BAG 32x25cm LRG LOVE 0000001000+00001564+00000+0001T   00001564+0000000956          1500 J51112               2 Z
418657003418657031-000924     418657006001023669964P/FRAME COLLAGE PL     0000001000+00009564+00000+0001T   00009564+0000000956          1500 J51510               2 Z
418658000418658               418658               170213SC     1500+00000+SC0000002691+0000002691+000000000+000000406+0000003090+0000000007+I20000000000+0000003090+Z
418658001418658077-000010-U   418658006001023168863CREPE-PAPER CERISE-PINK0000001000+00000868+00000+0001T   00000868+0000001007          1500 J51112               2 Z
418658004418658077-000010-D   418658006001023123886CREPE-PAPER WHITE      0000001000+00000868+00000+0001T   00000868+0000001007          1500 J51112               2 Z
418658005418658077-000011-L   418658006001023808585P/TISSUE BRIGHT 10SHEET0000001000+00000955+00000+0001T   00000955+0000001007          1500 J51112               2 Z
418659000418659               418659               170213SC     1500+00000+SC0000001303+0000001303+000000000+000000196+0000001490+0000000009+I20000000000+0000001490+Z
418659001418659077-000245     418659006001023759214GIFT-RIBBON METALLICx2 0000001000+00001303+00000+0001T   00001303+0000001008          1500 J51112               2 Z
418660000418660               418660               170213SC     1500+00000+SC0000005477+0000005477+000000000+000000822+0000006290+0000000009+I20000000000+0000006290+Z
418660001418660133-000083     418660006003000450510DISH DRAINING MAT      0000001000+00005477+00000+0001T   00005477+0000001011          1500 J51212               2 Z
418661000418661               418661               170213SC     1500+00000+SC0000005736+0000005736+000000000+000000861+0000006590+0000000007+I20000000000+0000006590+Z
418661001418661046-000002     418661006001023585202BATTERIES SIZE:C   2PCE0000003000+00001912+00000+0001T   00001912+0000001012          1500 J51312               2 Z
418662000418662               418662               170213SC     1500+00000+SC0000002256+0000002256+000000000+000000340+0000002590+0000000006+I20000000000+0000002590+Z
418662001418662903-000155     418662006009803374435SWT LOLLY I LUV U HEART0000004000+00000564+00000+0001T   00000564+0000001013          1500 J51150               2 Z
418663000418663               418663               170213SC     1500+00000+SC0000011775+0000011775+000000000+000001769+0000013544+0000000000+I40000013544+0000000000+Z
418663001418663007-000128     418663006009635830475BOOK H/COVER A5 96-PAGE0000001000+00000738+00000+0001T   00000738+0000001016          1500 J51130               2 Z
418663002418663027-078343     418663006008766078343SCRUB-BRUSH IRON-SHAPE 0000001000+00001129+00000+0001T   00001651+0008301016          1500 J51212               2 Z
418663003418663159-000045     418663006003000467686HOOKS CHROME PLATED 6PC0000001000+00002781+00000+0001T   00002781+0000001016          1500 J51200               2 Z
418663004418663106-001119     418663006003000449972WATER BOTTLE ALUM 750ml0000001000+00003912+00000+0001T   00005477+0008281016          1500 J51210               2 Z
418663005418663071-081091     418663006001151010287STAED/GENKEM ALL-STICK 0000001000+00001303+00000+0001T   00001303+0000001016          1500 J51130               2 Z
418663006418663306-000529     418663006003000571338TOOTHBRUSH HOLDER 20cm 0000001000+00001912+00000+0001T   00001912+0000001016          1500 J51200               2 Z
418664000418664               418664               170213SC     1500+00000+SC0000006519+0000006519+000000000+000000979+0000007490+0000000008+I20000000000+0000007490+Z
418664001418664002-000878     418664006001023770967STRAINER TEA WIRE 7cm  0000001000+00001564+00000+0001T   00001564+0000001040          1500 J51300               2 Z
418664002418664105-001081     418664000700371699888CLIP LOCK 4L OBLONG    0000001000+00004955+00000+0001T   00004955+0000001040          1500 J51210               2 Z
418665000418665               418665               170213SC     1500+00000+SC0000002563+0000002563+000000000+000000385+0000002940+0000000008+I20000000000+0000002940+Z
418665001418665033-005994     418665006001023789570SEWING-NEEDLES 16PCE   0000001000+00000651+00000+0001T   00000651+0000001043          1500 J51200               2 Z
418665002418665306-000021-C   418665006003000567294EARBUDS 300PCE IN TUB  0000001000+00001912+00000+0001T   00001912+0000001043          1500 J51200               2 Z
418666000418666               418666               170213SC     1500+00000+SC0000010258+0000010258+000000000+000001539+0000011790+0000000007+I20000000000+0000011790+Z
418666001418666007-000324     41866600600968585864125 SHEETS BRIGHTS MARLI0000001000+00003738+00000+0001T   00003738+0000001045          1500 J51130               2 Z
418666002418666366-000900     418666006003000006960DRESS UP WINGS BUG     0000001000+00006520+00000+0001T   00006520+0000001045          1500 J51131               2 Z
418667000418667               418667               170213SC     1500+00000+SC0000002606+0000002606+000000000+000000392+0000002990+0000000008+I20000000000+0000002990+Z
418667001418667903-000194     418667006009826020616SWT CHOC RP LOLLY 25G  0000002000+00001303+00000+0001T   00001390+0006481046          1500 J51150               2 Z
418668000418668               418668               170213SC     1500+00000+SC0000003824+0000003824+000000000+000000574+0000004390+0000000008+I20000000000+0000004390+Z
418668001418668002-001068     418668006001023812001DISP. BOTTLES PL H/H   0000002000+00001912+00000+0001T   00001912+0000001047          1500 J51300               2 Z
418669000418669               418669               170213SC     1500+00000+SC0000000564+0000000564+000000000+000000085+0000000640+0000000009+I20000000000+0000000640+Z
418669001418669903-000155     418669006009803374435SWT LOLLY I LUV U HEART0000001000+00000564+00000+0001T   00000564+0000001047          1500 J51150               2 Z
418670000418670               418670               170213SC     1500+00000+SC0000002519+0000002519+000000000+000000379+0000002890+0000000008+I20000000000+0000002890+Z
418670001418670077-000151     418670006008766114676GIFT-WRAP C/PHANE ASSTD0000001000+00000955+00000+0001T   00000955+0000001048          1500 J51112               2 Z
418670002418670080-000124     418670006003000297733CARD & ENV VALENTINES  0000001000+00001564+00000+0001T   00001651+0006481048          1500 J51112               2 Z
418671000418671               418671               170213SC     1500+00000+SC0000002606+0000002606+000000000+000000392+0000002990+0000000008+I20000000000+0000002990+Z
418671001418671007-000206     418671006009635830215X/PAD 80-SHEETS PUNCHED0000002000+00001303+00000+0001T   00001303+0000001054          1500 J51130               2 Z
418672000418672               418672               170213SC     1500+00000+SC0000012518+0000012518+000000000+000001879+0000014397+0000000000+I40000014397+0000000000+Z
418672001418672039-000799     418672006001023692382CANDLES TEALITE 100PCE 0000001000+00008694+00000+0001T   00009564+0008301100          1500 J51510               2 Z
418672002418672088-000084     418672006001023798060P/POURRI 120G ASSTD    0000002000+00001912+00000+0001T   00001912+0000001100          1500 J51212               2 Z
418673000418673               418673               170213SC     1500+00000+SC0000001912+0000001912+000000000+000000287+0000002190+0000000009+I20000000000+0000002190+Z
418673001418673077-000381     418673006003000247707GIFT-BAG 25X32CM S/COL 0000001000+00001912+00000+0001T   00001912+0000001101          1500 J51112               2 Z
418674000418674               418674               170213SC     1500+00000+SC0000005041+0000005041+000000000+000000757+0000005790+0000000008+I20000000000+0000005790+Z
418674001418674018-000136     418674006001023659026MUG OCC LOVE W/PLUSH   0000001000+00003477+00000+0001T   00003738+0006481102          1500 J51515               2 Z
418674002418674077-000452     418674006003000284986G/BAG METALLIC MED EMB 0000001000+00001564+00000+0001T   00001564+0000001102          1500 J51112               2 Z
418675000418675               418675               170213SC     1500+00000+SC0000002126+0000002126+000000000+000000321+0000002440+0000000007+I20000000000+0000002440+Z
418675001418675903-000200     418675006009826020234SWT CHOC RP CHOCO 23G  0000002000+00000781+00000+0001T   00000825+0006481103          1500 J51150               2 Z
418675002418675903-000155     418675006009803374435SWT LOLLY I LUV U HEART0000001000+00000564+00000+0001T   00000564+0000001103          1500 J51150               2 Z
418676000418676               418676               170213SC     1500+00000+SC0000001912+0000001912+000000000+000000287+0000002190+0000000009+I20000000000+0000002190+Z
418676001418676024-000083     418676006001023770943SIEVE FLOUR 20cm MTL-RI0000001000+00001912+00000+0001T   00001912+0000001108          1500 J51300               2 Z
418677000418677               418677               170213SC     1500+00000+SC0000007476+0000007476+000000000+000001122+0000008590+0000000008+I20000000000+0000008590+Z
418677001418677050-000263-Z   418677006001023777041PADLOCK BRS 32mm CARDED0000002000+00003738+00000+0001T   00003738+0000001110          1500 J51855               2 Z
418678000418678               418678               170213SC     1500+00000+SC0000003738+0000003738+000000000+000000561+0000004290+0000000009+I20000000000+0000004290+Z
418678001418678047-000014-A   418678006001023904072ADAPTOR 16AX5ARNDX5A2PN0000001000+00003738+00000+0001T   00003738+0000001111          1500 J51880               2 Z
418679000418679               418679               170213SC     1500+00000+SC0000010257+0000010257+000000000+000001540+0000011790+0000000007+I20000000000+0000011790+Z
418679001418679047-000014-A   418679006001023904072ADAPTOR 16AX5ARNDX5A2PN0000002000+00003738+00000+0001T   00003738+0000001112          1500 J51880               2 Z
418679002418679047-000018-H   418679006001023909954PLUG 1x16A+2x5A SUNKEN 0000001000+00002781+00000+0001T   00002781+0000001112          1500 J51880               2 Z
418680000418680               418680               170213SC     1500+00000+SC0000001216+0000001216+000000000+000000183+0000001390+0000000009+I20000000000+0000001390+Z
418680001418680007-010192     418680006009635830536BOOK H/COVER A5 192PAGE0000001000+00001216+00000+0001T   00001216+0000001113          1500 J51130               2 Z
418681000418681               418681               170213SC     1500+00000+SC0000007476-0000007476-000000000+000001122-0000008600-0000000002+I20000000000+0000008600-Z
418681001418681050-000263-Z   418681006001023777041PADLOCK BRS 32mm CARDED0000002000-00003738+00000+0001T   00003738+0000001119          1500 J518551IC            2 Z
418682000418682               418682               170213SC     1500+00000+SC0000016170+0000016170+000000000+000002427+0000018590+0000000007+I20000000000+0000018590+Z
418682001418682001-091415     418682006003000329113W/GLS OCC. LOVE 2PC 2800000001000+00008694+00000+0001T   00009650+0006481121          1500 J51515               2 Z
418682002418682018-005009     418682006001023725608MUG W/PLUSH-BEAR LOVE  0000002000+00003738+00000+0001T   00003738+0000001121          1500 J51515               2 Z
418683000418683               418683               170213SC     1500+00000+SC0000006520+0000006520+000000000+000000978+0000007490+0000000008+I20000000000+0000007490+Z
418683001418683108-007000     418683006008766085105SERVING-TABLE          0000001000+00006520+00000+0001T   00006520+0000001124          1500 J51210               2 Z
418684000418684               418684               170213SC     1500+00000+SC0000004910+0000004910+000000000+000000737+0000005640+0000000007+I20000000000+0000005640+Z
418684001418684368-000049     418684006003000536955PLUSH BEAR 15cm LOVE   0000001000+00004346+00000+0001T   00004607+0006481142          1500 J51745               2 Z
418684002418684903-000155     418684006009803374435SWT LOLLY I LUV U HEART0000001000+00000564+00000+0001T   00000564+0000001142          1500 J51150               2 Z
418685000418685               418685               170213SC     1500+00000+SC0000001736+0000001736+000000000+000000262+0000001990+0000000008+I20000000000+0000001990+Z
418685001418685903-000895     418685006009680772256SWT MINI BOTZ S/BERRY  0000001000+00000868+00000+0001T   00000868+0000001145          1500 J51150               2 Z
418685002418685903-000896     418685006009680772270SWT BITZ BL/CURRANT 50G0000001000+00000868+00000+0001T   00000868+0000001145          1500 J51150               2 Z
418686000418686               418686               170213SC     1500+00000+SC0000007554+0000007554+000000000+000001136+0000008690+0000000000+I20000000000+0000008690+Z
418686001418686103-000788     418686006001023896292WOVEN ROUND BASKET     0000001000+00002520+00000+0001T   00002520+0000001148          1500 J51300               2 Z
418686002418686077-000245     418686006001023759214GIFT-RIBBON METALLICx2 0000001000+00001303+00000+0001T   00001303+0000001148          1500 J51112               2 Z
418686003418686903-000183     418686006003000451043SWT LB HEART LOLLY     0000002000+00000433+00000+0001T   00000433+0000001148          1500 J51150               2 Z
418686004418686077-000151     418686006008766114676GIFT-WRAP C/PHANE ASSTD0000003000+00000955+00000+0001T   00000955+0000001148          1500 J51112               2 Z
418687000418687               418687               170213SC     1500+00000+SC0000019038+0000019038+000000000+000002857+0000021890+0000000005+I20000000000+0000021890+Z
418687001418687088-000084     418687006001023798060P/POURRI 120G ASSTD    0000002000+00001912+00000+0001T   00001912+0000001149          1500 J51212               2 Z
418687002418687017-000221     418687006003000238019P/ALBUM ADHESIVE 20PG  0000001000+00006520+00000+0001T   00006520+0000001149          1500 J51510               2 Z
418687003418687039-000799     418687006001023692382CANDLES TEALITE 100PCE 0000001000+00008694+00000+0001T   00009564+0008301149          1500 J51510               2 Z
418688000418688               418688               170213SC     1500+00000+SC0000001303+0000001303+000000000+000000196+0000001490+0000000009+I20000000000+0000001490+Z
418688001418688266-001302     418688006001023331892MARBLES 16MM 45PC      0000001000+00001303+00000+0001T   00001303+0000001153          1500 J51710               2 Z
418689000418689               418689               170213SC     1500+00000+SC0000037118+0000037118+000000000+000005572+0000042690+0000000000+I40000042690+0000000000+Z
418689001418689027-783000     418689006001023874641SCOURERS RAINBOW 5PCE  0000001000+00001912+00000+0001T   00001912+0000001158          1500 J51212               2 Z
418689002418689464-003002     418689006003000328550GAME THINK:CHESS KIDS  0000001000+00012607+00000+0001T   00012607+0000001158          1500 J51785               2 Z
418689003418689567-075466     418689009780263920826BK NOVEL ROMANCE       0000001000+00002607+00000+0001T   00002781+0006481158          1500 J51757               2 Z
418689004418689560-000020     418689006003000653270ANIMALS ASSTD SET      0000001000+00006520+00000+0001T   00006520+0000001158          1500 J51745               2 Z
418689005418689560-000101     418689006001023548740ANIMALS OCEAN-IN-TUBE  0000001000+00003738+00000+0001T   00003738+0000001158          1500 J51745               2 Z
418689006418689018-000127     418689006001023380289MUG OCC STRAIGHT LOVE  0000001000+00001564+00000+0001T   00001912+0006481158          1500 J51515               2 Z
418689007418689567-075490     418689009780799367652BK NOVEL ROMANCE AFR   0000001000+00003477+00000+0001T   00003738+0006481158          1500 J51757               2 Z
418689008418689200-003024     418689006001023657299REFUSE BAGS 20PCE BLACK0000001000+00001912+00000+0001T   00001912+0000001158          1500 J51214               2 Z
418689009418689031-005918     418689006003000580453P/FRAME PL PLAIN 10X15 0000001000+00002781+00000+0001T   00002781+0000001158          1500 J51510               2 Z
418690000418690               418690               170213SC     1500+00000+SC0000005037+0000005037+000000000+000000757+0000005790+0000000004+I20000000000+0000005790+Z
418690001418690077-000289     418690006001023901996GIFT BOX 20x25x11cm    0000001000+00001912+00000+0001T   00001912+0000001310          1500 J51112               2 Z
418690002418690077-000305     418690006003000395422GIFT-BAG WINE 10X35CM  0000001000+00001564+00000+0001T   00001564+0000001310          1500 J51112               2 Z
418690003418690903-000155     418690006009803374435SWT LOLLY I LUV U HEART0000001000+00000564+00000+0001T   00000564+0000001310          1500 J51150               2 Z
418690005418690903-000183     418690006003000451043SWT LB HEART LOLLY     0000001000+00000433+00000+0001T   00000433+0000001310          1500 J51150               2 Z
418690006418690903-000155     418690006009803374435SWT LOLLY I LUV U HEART0000001000+00000564+00000+0001T   00000564+0000001310          1500 J51150               2 Z
418691000418691               418691               170213SC     1500+00000+SC0000001303+0000001303+000000000+000000196+0000001490+0000000009+I20000000000+0000001490+Z
418691001418691007-000206     418691006009635830215X/PAD 80-SHEETS PUNCHED0000001000+00001303+00000+0001T   00001303+0000001311          1500 J51130               2 Z
418692000418692               418692               170213SC     1500+00000+SC0000012081+0000012081+000000000+000001815+0000013896+0000000000+I40000013896+0000000000+Z
418692001418692103-000073     418692006003000630769BASKET BAMBOO 29x17x3cm0000001000+00004607+00000+0001T   00004607+0000001314          1500 J51300               2 Z
418692002418692077-000011-D   418692006001023808554TISSUE-WRAP WHITE 10PCE0000001000+00000955+00000+0001T   00000955+0000001314          1500 J51112               2 Z
418692003418692077-000151     418692006008766114676GIFT-WRAP C/PHANE ASSTD0000001000+00000955+00000+0001T   00000955+0000001314          1500 J51112               2 Z
418692004418692103-000431     418692006001023592705BAMBOO BASKET RECT     0000001000+00005564+00000+0001T   00005564+0000001314          1500 J51300               2 Z
418693000418693               418693               170213SC     1500+00000+SC0000001564+0000001564+000000000+000000235+0000001790+0000000009+I20000000000+0000001790+Z
418693001418693077-000305     418693006003000395422GIFT-BAG WINE 10X35CM  0000001000+00001564+00000+0001T   00001564+0000001315          1500 J51112               2 Z
418694000418694               418694               170213SC     1500+00000+SC0000000955+0000000955+000000000+000000144+0000001090+0000000009+I20000000000+0000001090+Z
418694001418694077-000302     418694008010410010195GIFT-BAG 18X23CM E/D   0000001000+00000955+00000+0001T   00000955+0000001316          1500 J51112               2 Z
418695000418695               418695               170213SC     1500+00000+SC0000001564+0000001564+000000000+000000235+0000001790+0000000009+I20000000000+0000001790+Z
418695001418695362-003007     418695006003000295401GIRL FASHION SUNGLASSES0000001000+00001564+00000+0001T   00001912+0008301320          1500 J51160               2 Z
418696000418696               418696               170213SC     1500+00000+SC0000011731+0000011731+000000000+000001763+0000013490+0000000004+I20000000000+0000013490+Z
418696001418696903-000211     418696006002099001238SWT GS MALLOW ICE CREAM0000001000+00001912+00000+0001T   00001912+0000001322          1500 J51150               2 Z
418696002418696079-011526     418696006003000408375GLITTER & SAND ART     0000001000+00003738+00000+0001T   00003738+0000001322          1500 J51130               2 Z
418696003418696079-013101     418696006001023863706CRAFT SET DIY PIPE-CLNR0000001000+00002781+00000+0001T   00002781+0000001322          1500 J51130               2 Z
418696004418696306-000023-A   418696006003000110148COTTON WOOL BALLS 50PCE0000001000+00000694+00000+0001T   00001390+0008281322          1500 J51200               2 Z
418696005418696903-000194     418696006009826020616SWT CHOC RP LOLLY 25G  0000002000+00001303+00000+0001T   00001390+0006481322          1500 J51150               2 Z
418697000418697               418697               170213SC     1500+00000+SC0000010868+0000010868+000000000+000001631+0000012490+0000000009+I20000000000+0000012490+Z
418697001418697079-001003     418697006003000588640ART+CRAFT PAINT CANVAS 0000001000+00010868+00000+0001T   00010868+0000001330          1500 J51130               2 Z
418698000418698               418698               170213SC     1500+00000+SC0000010866+0000010866+000000000+000001631+0000012490+0000000007+I20000000000+0000012490+Z
418698001418698024-006874     418698006001023769978PASTRY-BRUSH SQ WHITE  0000001000+00001912+00000+0001T   00001912+0000001332          1500 J51300               2 Z
418698002418698105-001081     418698000700371699888CLIP LOCK 4L OBLONG    0000001000+00004955+00000+0001T   00004955+0000001332          1500 J51210               2 Z
418698003418698108-009015-B   418698006005387000050SALAD-BOWL LRGE ASSTD  0000001000+00003999+00000+0001T   00003999+0000001332          1500 J51210               2 Z
418699000418699               418699               170213SC     1500+00000+SC0000000955+0000000955+000000000+000000144+0000001090+0000000009+I20000000000+0000001090+Z
418699001418699077-000151     418699006008766114676GIFT-WRAP C/PHANE ASSTD0000001000+00000955+00000+0001T   00000955+0000001334          1500 J51112               2 Z
418700000418700               418700               170213SC     1500+00000+SC0000002781+0000002781+000000000+000000418+0000003190+0000000009+I20000000000+0000003190+Z
418700001418700077-000270     418700006003000395453GIFT-BAG PPR JMB 33X45 0000001000+00002781+00000+0001T   00002781+0000001335          1500 J51112               2 Z
418701000418701               418701               170213SC     1500+00000+SC0000001128+0000001128+000000000+000000170+0000001290+0000000008+I20000000000+0000001290+Z
418701001418701903-000155     418701006009803374435SWT LOLLY I LUV U HEART0000002000+00000564+00000+0001T   00000564+0000001336          1500 J51150               2 Z
418702000418702               418702               170213SC     1500+00000+SC0000013388+0000013388+000000000+000002009+0000015397+0000000000+I40000015397+0000000000+Z
418702001418702586-011943     418702006001492119434WATCH KIDS BEZEL STRAP 0000001000+00009564+00000+0001T   00009564+0000001340          1500 J51160               2 Z
418702002418702491-059642     418702000078257596423INTEX ARMBAND 6-12YRS  0000001000+00001912+00000+0001T   00001912+0000001340          1500 J51787               2 Z
418702003418702491-059640     418702000078257596409INTEX:ARMBAND 3-6YRS   0000001000+00001912+00000+0001T   00001912+0000001340          1500 J51787               2 Z
418703000418703               418703               170213SC     1500+00000+SC0000002519+0000002519+000000000+000000379+0000002890+0000000008+I20000000000+0000002890+Z
418703001418703089-000192-A   418703006001023901774KEY-CHAIN ACRYLIC      0000001000+00000955+00000+0001T   00000955+0000001342          1500 J51205               2 Z
418703002418703089-001021     418703006003000112319KEY CHAIN MINI BIBLE   0000001000+00001564+00000+0001T   00001564+0000001342          1500 J51205               2 Z
418704000418704               418704               170213SC     1500+00000+SC0000006606+0000006606+000000000+000000992+0000007590+0000000008+I20000000000+0000007590+Z
418704001418704203-006005     418704006003000364671ICE BALL 18-PC IN PVC  0000002000+00003303+00000+0001T   00003303+0000001342          1500 J51300               2 Z
418705000418705               418705               170213SC     1500+00000+SC0000009299+0000009299+000000000+000001397+0000010690+0000000006+I20000000000+0000010690+Z
418705001418705080-000133     418705006003000535613CARD&ENV MINI ASTD DSGN0000002000+00000477+00000+0001T   00000477+0000001344          1500 J51112               2 Z
418705002418705001-000175     418705006001023788108B/MUG GLS LOVE 380ML   0000001000+00004607+00000+0001T   00004607+0000001344          1500 J51515               2 Z
418705003418705018-005009     418705006001023725608MUG W/PLUSH-BEAR LOVE  0000001000+00003738+00000+0001T   00003738+0000001344          1500 J51515               2 Z
418706000418706               418706               170213SC     1500+00000+SC0000001390+0000001390+000000000+000000209+0000001590+0000000009+I20000000000+0000001590+Z
418706001418706077-000310     418706006001023608635GIFT-BAG 18X23CM GLOSS 0000001000+00001390+00000+0001T   00001390+0000001345          1500 J51112               2 Z
418707000418707               418707               170213SC     1500+00000+SC0000005735+0000005735+000000000+000000862+0000006590+0000000007+I20000000000+0000006590+Z
418707001418707903-000138     418707006002099004314SWT GS WINE GUMS 60G   0000002000+00000868+00000+0001T   00000868+0000001345          1500 J51150               2 Z
418707002418707031-000902-B   418707006001023726285P/FRAME WDN OAK 10X15CM0000001000+00003999+00000+0001T   00003999+0000001345          1500 J51510               2 Z
418708000418708               418708               170213SC     1500+00000+SC0000005650+0000005650+000000000+000000848+0000006490+0000000008+I20000000000+0000006490+Z
418708001418708041-093011     418708006003000385485BATH GIFT SET BUBBLE   0000001000+00003738+00000+0001T   00003738+0000001351          1500 J51200               2 Z
418708002418708088-000084     418708006001023798060P/POURRI 120G ASSTD    0000001000+00001912+00000+0001T   00001912+0000001351          1500 J51212               2 Z
418709000418709               418709               170213SC     1500+00000+SC0000002781+0000002781+000000000+000000418+0000003190+0000000009+I20000000000+0000003190+Z
418709001418709006-000323-A   418709006001023739452CONFETTI SLVR/GLD 3PACK0000001000+00002781+00000+0001T   00002781+0000001351          1500 J51131               2 Z
418710000418710               418710               170213SC     1500+00000+SC0000008343+0000008343+000000000+000001254+0000009590+0000000007+I20000000000+0000009590+Z
418710001418710366-006103     418710006001023786944DRESS UP FACE PAINT SET0000001000+00002781+00000+0001T   00002781+0000001357          1500 J51131               2 Z
418710002418710006-006019     418710006001023908193PARTY-SPRAY GLITTER    0000001000+00002781+00000+0001T   00002781+0000001357          1500 J51131               2 Z
418710003418710006-006018-B   418710006003000008278PARTY-SPRAY HAIR NEON  0000001000+00002781+00000+0001T   00002781+0000001357          1500 J51131               2 Z
418711000418711               418711               170213SC     1500+00000+SC0000011303+0000011303+000000000+000001696+0000012999+0000000000+I40000012999+0000000000+Z
418711001418711368-000637     418711006001023874092PLUSH BEAR SLEEPING LOV0000001000+00011303+00000+0001T   00012607+0006481359          1500 J51745               2 Z
418712000418712               418712               170213SC     1500+00000+SC0000001606+0000001606+000000000+000000242+0000001840+0000000008+I20000000000+0000001840+Z
418712001418712903-000012     418712006002099007308SWT MALLOW S/BERRY     0000001000+00000477+00000+0001T   00000477+0000001400          1500 J51150               2 Z
418712002418712903-000015     418712006003000690947SWT MIKE N IKE B/BLAST 0000001000+00001129+00000+0001T   00001129+0000001400          1500 J51150               2 Z
418713000418713               418713               170213SC     1500+00000+SC0000002607+0000002607+000000000+000000392+0000002990+0000000009+I20000000000+0000002990+Z
418713001418713567-075466     418713009780263920758BK NOVEL ROMANCE       0000001000+00002607+00000+0001T   00002781+0006481401          1500 J51757               2 Z
418714000418714               418714               170213SC     1500+00000+SC0000007299+0000007299+000000000+000001096+0000008390+0000000005+I20000000000+0000008390+Z
418714001418714079-009702-D   418714008427973059354PAPER SIRIO A2 RED COL 0000001000+00001129+00000+0001T   00001129+0000001403          1500 J51130               2 Z
418714002418714079-003002     418714006003000447886A/TUBE 75ML RED        0000001000+00001912+00000+0001T   00001912+0000001403          1500 J51130               2 Z
418714003418714079-013102     418714006003000019601ART+CRAFT DIY PIPE-CLNR0000001000+00002346+00000+0001T   00002346+0000001403          1500 J51130               2 Z
418714004418714079-013099     418714006003000081875ART+CRAFT EYES ASSTD   0000001000+00001912+00000+0001T   00001912+0000001403          1500 J51130               2 Z
418715000418715               418715               170213SC     1500+00000+SC0000069586+0000069586+000000000+000010443+0000080020+0000000009+I20000000000+0000080020+Z
418715001418715077-000900     418715006003000410446G/WRAP 700mmx1m ANIMAL 0000001000+00001912+00000+0001T   00001912+0000001405          1500 J51112               2 Z
418715002418715007-000119     418715006002324004126BOOK COVER PL          0000001000+00001086+00000+0001T   00001086+0000001405          1500 J51130               2 Z
418715003418715264-015055     418715000090159150558ALL-STARS ELITE TRNS   0000003000+00018694+00000+0001T   00018694+0000001405          1500 J51710               2 Z
418715004418715047-000153     418715006001023596475SOCKET-PROTECTORS 4PCE 0000002000+00001477+00000+0001T   00001477+0000001405          1500 J51880               2 Z
418715005418715084-009407     418715006001023861726SCISSORS 13cm MTL PL-H 0000001000+00001912+00000+0001T   00001912+0000001405          1500 J51200               2 Z
418715006418715071-005214     418715006003000152544CELLOTAPE SUPER REFILL 0000001000+00001564+00000+0001T   00001564+0000001405          1500 J51130               2 Z
418715007418715007-000234     418715006009685850638LABELS 24PK            0000001000+00000338+00000+0001T   00000338+0000001405          1500 J51130               2 Z
418715008418715007-000108     418715006009698062097BK COVER ADJUSTABLE A4 0000001000+00003738+00000+0001T   00003738+0000001405          1500 J51130               2 Z
418716000418716               418716               170213SC     1500+00000+SC0000000955+0000000955+000000000+000000144+0000001090+0000000009+I20000000000+0000001090+Z
418716001418716077-000150-D   418716006003000054343GIFT-WRAP CELLPHANE CLR0000001000+00000955+00000+0001T   00000955+0000001406          1500 J51112               2 Z
418717000418717               418717               170213SC     1500+00000+SC0000002781+0000002781+000000000+000000418+0000003190+0000000009+I20000000000+0000003190+Z
418717001418717077-000270     418717006003000395453GIFT-BAG PPR JMB 33X45 0000001000+00002781+00000+0001T   00002781+0000001407          1500 J51112               2 Z
418718000418718               418718               170213SC     1500+00000+SC0000004607+0000004607+000000000+000000692+0000005290+0000000009+I20000000000+0000005290+Z
418718001418718031-080508     418718006001023802415P/FRAME PL 22X11CM LOVE0000001000+00004607+00000+0001T   00004607+0000001409          1500 J51510               2 Z
418719000418719               418719               170213SC     1500+00000+SC0000003476+0000003476+000000000+000000522+0000003990+0000000008+I20000000000+0000003990+Z
418719001418719080-000111     418719006003000252695CARD&ENVELPE - MUSICAL 0000001000+00001912+00000+0001T   00001912+0000001410          1500 J51112               2 Z
418719002418719077-000305     418719006003000395422GIFT-BAG WINE 10X35CM  0000001000+00001564+00000+0001T   00001564+0000001410          1500 J51112               2 Z
418720000418720               418720               170213SC     1500+00000+SC0000000868+0000000868+000000000+000000131+0000000990+0000000009+I20000000000+0000000990+Z
418720001418720077-000010-C   418720006001023123879CREPE-PAPER RED        0000001000+00000868+00000+0001T   00000868+0000001410          1500 J51112               2 Z
418721000418721               418721               170213SC     1500+00000+SC0000002173+0000002173+000000000+000000326+0000002490+0000000009+I20000000000+0000002490+Z
418721001418721566-000359     418721006003000582709STICKER BOOK LOVE SPARK0000001000+00002173+00000+0001T   00002260+0006481411          1500 J51130               2 Z
418722000418722               418722               170213SC     1500+00000+SC0000010429+0000010429+000000000+000001566+0000011990+0000000005+I20000000000+0000011990+Z
418722001418722306-000969     418722006003000559350FIRSTAID PLASTER 10PC  0000001000+00001564+00000+0001T   00001564+0000001413          1500 J51200               2 Z
418722002418722267-000219     418722006003000301997PUZZLE 100pc FUNNY CAR 0000001000+00004607+00000+0001T   00004607+0000001413          1500 J51755               2 Z
418722003418722362-003009     418722006003000295647HAIR BAND SET ASSORTED 0000001000+00001912+00000+0001T   00001912+0000001413          1500 J51160               2 Z
418722004418722033-006004     418722006001023703316SEWING-KIT IN-POUCH    0000001000+00002346+00000+0001T   00002346+0000001413          1500 J51200               2 Z
418723000418723               418723               170213SC     1500+00000+SC0000004386+0000004386+000000000+000000660+0000005040+0000000006+I20000000000+0000005040+Z
418723001418723077-000151     418723006008766114676GIFT-WRAP C/PHANE ASSTD0000001000+00000955+00000+0001T   00000955+0000001415          1500 J51112               2 Z
418723002418723018-000177     418723006001023797513MUG MINI LOVE ASSTD    0000001000+00000738+00000+0001T   00000738+0000001415          1500 J51515               2 Z
418723003418723104-000020     418723006916920023026BASKET 25x14x10cm      0000001000+00001912+00000+0001T   00001912+0000001415          1500 J51210               2 Z
418723004418723903-000200     418723006009826020234SWT CHOC RP CHOCO 23G  0000001000+00000781+00000+0001T   00000825+0006481415          1500 J51150               2 Z
418724000418724               418724               170213SC     1500+00000+SC0000002781+0000002781+000000000+000000418+0000003190+0000000009+I20000000000+0000003190+Z
418724001418724006-006019     418724006001023908193PARTY-SPRAY GLITTER    0000001000+00002781+00000+0001T   00002781+0000001415          1500 J51131               2 Z
418725000418725               418725               170213SC     1500+00000+SC0000005562+0000005562+000000000+000000836+0000006390+0000000008+I20000000000+0000006390+Z
418725001418725007-000602     418725006003000541270BOOK COVER 2M SOLID COL0000001000+00002781+00000+0001T   00002781+0000001421          1500 J51130               2 Z
418725002418725077-000349-B   418725006001023908315G/RIBBON 3ROLLS 12BOWS 0000001000+00002781+00000+0001T   00002781+0000001421          1500 J51112               2 Z
418726000418726               418726               170213SC     1500+00000+SC0000004775+0000004775+000000000+000000720+0000005490+0000000005+I20000000000+0000005490+Z
418726001418726077-000151     418726006008766114676GIFT-WRAP C/PHANE ASSTD0000005000+00000955+00000+0001T   00000955+0000001423          1500 J51112               2 Z
418727000418727               418727               170213SC     1500+00000+SC0000002607+0000002607+000000000+000000392+0000002990+0000000009+I20000000000+0000002990+Z
418727001418727002-000884     418727006001023769589CAN-OPENER BUTTERFLY   0000001000+00002607+00000+0001T   00002607+0000001424          1500 J51300               2 Z
418728000418728               418728               170213SC     1500+00000+SC0000001910+0000001910+000000000+000000288+0000002190+0000000008+I20000000000+0000002190+Z
418728001418728006-000812     418728006001023902832HAT CONE WITH TINSEL   0000001000+00000955+00000+0001T   00000955+0000001426          1500 J51131               2 Z
418728002418728039-000319-3   418728006003000442621B/CANDLES LRG NUMBER-3 0000001000+00000955+00000+0001T   00000955+0000001426          1500 J51510               2 Z
418729000418729               418729               170213SC     1500+00000+SC0000001129+0000001129+000000000+000000170+0000001290+0000000009+I20000000000+0000001290+Z
418729001418729079-009702-D   418729008427973059354PAPER SIRIO A2 RED COL 0000001000+00001129+00000+0001T   00001129+0000001426          1500 J51130               2 Z
418730000418730               418730               170213SC     1500+00000+SC0000001953+0000001953+000000000+000000294+0000002240+0000000007+I20000000000+0000002240+Z
418730001418730565-000044     418730006003000128280BARREL OF SLIME 100g   0000003000+00000651+00000+0001T   00000651+0000001427          1500 J51745               2 Z
418731000418731               418731               170213SC     1500+00000+SC0000010863+0000010863+000000000+000001632+0000012495+0000000000+I40000012495+0000000000+Z
418731001418731263-000177     418731006001023826824RACER PULL BACK        0000001000+00003738+00000+0001T   00003738+0000001429          1500 J51710               2 Z
418731002418731304-000720     418731006001023843050F/BUNCH ROSE 6-HEAD AST0000001000+00002781+00000+0001T   00002781+0000001429          1500 J51510               2 Z
418731003418731106-003115     418731006002689011357ICE CUBE-TRAYS 2PCE WHT0000001000+00001738+00000+0001T   00001738+0000001429          1500 J51210               2 Z
418731004418731903-000194     418731006009826020616SWT CHOC RP LOLLY 25G  0000002000+00001303+00000+0001T   00001390+0006481429          1500 J51150               2 Z
418732000418732               418732               170213SC     1500+00000+SC0000004345+0000004345+000000000+000000653+0000004990+0000000008+I20000000000+0000004990+Z
418732001418732304-000720     418732006001023843050F/BUNCH ROSE 6-HEAD AST0000001000+00002781+00000+0001T   00002781+0000001430          1500 J51510               2 Z
418732002418732031-000878-B   418732006001023799012P/FRAME 13x18cm PL-SLID0000001000+00001564+00000+0001T   00001564+0000001430          1500 J51510               2 Z
418733000418733               418733               170213SC     1500+00000+SC0000010258+0000010258+000000000+000001540+0000011798+0000000000+I40000011798+0000000000+Z
418733001418733001-091415     418733006003000329113W/GLS OCC. LOVE 2PC 2800000001000+00008694+00000+0001T   00009650+0006481432          1500 J51515               2 Z
418733002418733077-000299     418733006003000395576G/BAG 32x25cm LRG LOVE 0000001000+00001564+00000+0001T   00001564+0000001432          1500 J51112               2 Z
418734000418734               418734               170213SC     1500+00000+SC0000014774+0000014774+000000000+000002219+0000016990+0000000003+I20000000000+0000016990+Z
418734001418734036-000605     418734006001023158611WASHING-PEGS WDN PCK-240000001000+00001564+00000+0001T   00001564+0000001438          1500 J51212               2 Z
418734002418734027-000409     418734006001023731012SCRUBBING-BRUSH 15,5cm 0000001000+00001912+00000+0001T   00001912+0000001438          1500 J51212               2 Z
418734003418734020-000620     418734006001023629722UTILITY-KNIFE 12cm-BLDE0000001000+00002781+00000+0001T   00002781+0000001438          1500 J51300               2 Z
418734004418734002-000650     418734006003000569601M/SPOON WDN 40cm H/HOUS0000001000+00002781+00000+0001T   00002781+0000001438          1500 J51300               2 Z
418734005418734009-001455     418734006001023696038MELAMINE PLATE 25cm    0000001000+00001912+00000+0001T   00001912+0000001438          1500 J51210               2 Z
418734006418734018-000210     418734006003000580095MUG DAILY TEXTS 4-ASST 0000001000+00001912+00000+0001T   00001912+0000001438          1500 J51515               2 Z
418734007418734009-001451     418734006001023695970MELAMINE S/BOWL 15cm   0000001000+00001912+00000+0001T   00001912+0000001438          1500 J51210               2 Z
418735000418735               418735               170213SC     1500+00000+SC0000001738+0000001738+000000000+000000261+0000001990+0000000009+I20000000000+0000001990+Z
418735001418735108-001024     418735006009654960719TUMBLERS PL 4PC 350ml  0000001000+00001738+00000+0001T   00001738+0000001439          1500 J51210               2 Z
418736000418736               418736               170213SC     1500+00000+SC0000005562+0000005562+000000000+000000836+0000006398+0000000000+I40000006398+0000000000+Z
418736001418736007-000041     418736006003000120598INK & INK PAD          0000002000+00002781+00000+0001T   00002781+0000001440          1500 J51130               2 Z
418737000418737               418737               170213SC     1500+00000+SC0000006519+0000006519+000000000+000000979+0000007490+0000000008+I20000000000+0000007490+Z
418737001418737464-000118     418737000073854008089PLAYING CARD LEAGUE BAC0000001000+00004607+00000+0001T   00004607+0000001441          1500 J51785               2 Z
418737002418737566-001118     418737006003000682171STICKERS CELL PHONE    0000001000+00001912+00000+0001T   00001912+0000001441          1500 J51130               2 Z
418738000418738               418738               170213SC     1500+00000+SC0000011036+0000011036+000000000+000001658+0000012690+0000000004+I20000000000+0000012690+Z
418738001418738024-000060     418738006001023443090ROLLING-PIN WHITE      0000001000+00004346+00000+0001T   00005477+0008201442          1500 J51300               2 Z
418738002418738002-000094     418738006001023489753PIZZA-CUTTER           0000001000+00002781+00000+0001T   00002781+0000001442          1500 J51300               2 Z
418738003418738033-001364     418738006001023802088HAIR-CLIPS 65mm 24PCE  0000001000+00000955+00000+0001T   00000955+0000001442          1500 J51200               2 Z
418738004418738033-001363     418738006001023802057HAIR-CLIPS 50mm 48PCE  0000001000+00001216+00000+0001T   00001216+0000001442          1500 J51200               2 Z
418738005418738012-000001     418738006003000331048MICRO PLATE-COVER 26X6 0000001000+00001738+00000+0001T   00002260+0008301442          1500 J51300               2 Z
418739000418739               418739               170213SC     1500+00000+SC0000001910+0000001910+000000000+000000288+0000002190+0000000008+I20000000000+0000002190+Z
418739001418739077-000151     418739006008766114676GIFT-WRAP C/PHANE ASSTD0000002000+00000955+00000+0001T   00000955+0000001443          1500 J51112               2 Z
418740000418740               418740               170213SC     1500+00000+SC0000031703+0000031703+000000000+000004773+0000036470+0000000006+I20000000000+0000036470+Z
418740001418740031-000878-E   418740006003000602599P/FRAME PHOTO BOOTH    0000020000+00000868+00000+0001T   00000868+0000001449          1500 J51510               2 Z
418740002418740007-000095     418740006003000530434ENVELOPES WHITE 20PK C60000001000+00002260+00000+0001T   00002260+0000001449          1500 J51130               2 Z
418740003418740564-001028     418740006001023708663BUBBLE CELEBRATION 6ml 0000002000+00003303+00000+0001T   00003303+0000001449          1500 J51131               2 Z
418740004418740301-000125     418740006003000420582ORN BRACELET INSPIRATIO0000001000+00005477+00000+0001T   00005477+0000001449          1500 J51505               2 Z
418741000418741               418741               170213SC     1500+00000+SC0000002607+0000002607+000000000+000000392+0000002990+0000000009+I20000000000+0000002990+Z
418741001418741567-075466     418741009780263253924BK NOVEL ROMANCE       0000001000+00002607+00000+0001T   00002781+0006481453          1500 J51757               2 Z
418742000418742               418742               170213SC     1500+00000+SC0000006519+0000006519+000000000+000000979+0000007498+0000000000+I40000007498+0000000000+Z
418742001418742003-009201     418742006003000407798O/WELCOME STONE RND ASS0000001000+00004607+00000+0001T   00004607+0000001457          1500 J51505               2 Z
418742002418742088-000084     418742006001023798060P/POURRI 120G ASSTD    0000001000+00001912+00000+0001T   00001912+0000001457          1500 J51212               2 Z
418743000418743               418743               170213SC     1500+00000+SC0000000955+0000000955+000000000+000000144+0000001090+0000000009+I20000000000+0000001090+Z
418743001418743077-000150-D   418743006003000054343GIFT-WRAP CELLPHANE CLR0000001000+00000955+00000+0001T   00000955+0000001501          1500 J51112               2 Z
418744000418744               418744               170213SC     1500+00000+SC0000001564+0000001564+000000000+000000235+0000001790+0000000009+I20000000000+0000001790+Z
418744001418744039-000108     418744006001023524034TEA-LITE CANDLES 8PCE  0000001000+00001564+00000+0001T   00001564+0000001502          1500 J51510               2 Z
418745000418745               418745               170213SC     1500+00000+SC0000002128+0000002128+000000000+000000320+0000002440+0000000008+I20000000000+0000002440+Z
418745001418745903-000155     418745006009803374435SWT LOLLY I LUV U HEART0000001000+00000564+00000+0001T   00000564+0000001507          1500 J51150               2 Z
418745002418745018-000127     418745006001023380289MUG OCC STRAIGHT LOVE  0000001000+00001564+00000+0001T   00001912+0006481507          1500 J51515               2 Z
418746000418746               418746               170213SC     1500+00000+SC0000003344+0000003344+000000000+000000503+0000003840+0000000007+I20000000000+0000003840+Z
418746001418746077-000407     418746006003000145096G/BAG PP 19X26X8CM     0000002000+00001390+00000+0001T   00001390+0000001508          1500 J51112               2 Z
418746002418746903-000155     418746006009803374435SWT LOLLY I LUV U HEART0000001000+00000564+00000+0001T   00000564+0000001508          1500 J51150               2 Z
418747000418747               418747               170213SC     1500+00000+SC0000002781+0000002781+000000000+000000418+0000003190+0000000009+I20000000000+0000003190+Z
418747001418747079-013032-D   418747006003000389643RIBBONS                0000001000+00002781+00000+0001T   00002781+0000001510          1500 J51130               2 Z
418748000418748               418748               170213SC     1500+00000+SC0000017886+0000017886+000000000+000002696+0000020580+0000000002+I20000000000+0000020580+Z
418748001418748077-000150-D   418748006003000054343GIFT-WRAP CELLPHANE CLR0000004000+00000955+00000+0001T   00000955+0000001512          1500 J51112               2 Z
418748002418748077-000151     418748006008766114676GIFT-WRAP C/PHANE ASSTD0000003000+00000955+00000+0001T   00000955+0000001512          1500 J51112               2 Z
418748003418748077-000150-D   418748006003000054343GIFT-WRAP CELLPHANE CLR0000008000+00000955+00000+0001T   00000955+0000001512          1500 J51112               2 Z
418748004418748077-000151     418748006008766114676GIFT-WRAP C/PHANE ASSTD0000001000+00000955+00000+0001T   00000955+0000001512          1500 J51112               2 Z
418748005418748077-000245     418748006001023759214GIFT-RIBBON METALLICx2 0000002000+00001303+00000+0001T   00001303+0000001512          1500 J51112               2 Z
418749000418749               418749               170213SC     1500+00000+SC0000018084+0000018084+000000000+000002714+0000020790+0000000008+I20000000000+0000020790+Z
418749001418749368-000113     418749006001023780874PLUSH BLINGED LOVE 30cm0000001000+00012607+00000+0001T   00012607+0000001513          1500 J51745               2 Z
418749002418749301-000125     418749006003000420582ORN BRACELET INSPIRATIO0000001000+00005477+00000+0001T   00005477+0000001513          1500 J51505               2 Z
418750000418750               418750               170213SC     1500+00000+SC0000001564+0000001564+000000000+000000235+0000001790+0000000009+I20000000000+0000001790+Z
418750001418750080-000124     418750006003000297733CARD & ENV VALENTINES  0000001000+00001564+00000+0001T   00001651+0006481515          1500 J51112               2 Z
418751000418751               418751               170213SC     1500+00000+SC0000001692+0000001692+000000000+000000255+0000001940+0000000007+I20000000000+0000001940+Z
418751001418751903-000155     418751006009803374435SWT LOLLY I LUV U HEART0000003000+00000564+00000+0001T   00000564+0000001516          1500 J51150               2 Z
418752000418752               418752               170213SC     1500+00000+SC0000004607+0000004607+000000000+000000692+0000005290+0000000009+I20000000000+0000005290+Z
418752001418752082-000100     418752006003000360246READING GLS STRENGHT:1 0000001000+00004607+00000+0001T   00004607+0000001517          1500 J51160               2 Z
418753000418753               418753               170213SC     1500+00000+SC0000000564+0000000564+000000000+000000085+0000000640+0000000009+I20000000000+0000000640+Z
418753001418753903-000155     418753006009803374435SWT LOLLY I LUV U HEART0000001000+00000564+00000+0001T   00000564+0000001517          1500 J51150               2 Z
418754000418754               418754               170213SC     1500+00000+SC0000034606+0000034606+000000000+000005191+0000039790+0000000007+I20000000000+0000039790+Z
418754001418754046-000010-A   418754006003000438778BATTERIES SIZE:AAA 4PCE0000001000+00002433+00000+0001T   00002433+0000001525          1500 J51312               2 Z
418754002418754562-058915     418754006003000159116EDU B/O LAPTOP         0000001000+00032173+00000+0001T   00032173+0000001525          1500 J51755               2 Z
418755000418755               418755               170213SC     1500+00000+SC0000008694+0000008694+000000000+000001305+0000009990+0000000009+I20000000000+0000009990+Z
418755001418755368-000614     418755006001023705808PLUSH LOVE 30cm        0000001000+00008694+00000+0001T   00009564+0006481525          1500 J51745               2 Z
418756000418756               418756               170213SC     1500+00000+SC0000013042+0000013042+000000000+000001957+0000014990+0000000009+I20000000000+0000014990+Z
418756001418756263-000516     418756006003000493913VEHICLE TRUCK CARRIER  0000001000+00013042+00000+0001T   00013042+0000001526          1500 J51710               2 Z
418757000418757               418757               170213SC     1500+00000+SC0000018694+0000018694+000000000+000002805+0000021499+0000000000+I40000021499+0000000000+Z
418757001418757203-005006     418757006003000224616DRINKING GAME 5-IN-1   0000001000+00018694+00000+0001T   00018694+0000001528          1500 J51300               2 Z
418758000418758               418758               170213SC     1500+00000+SC0000008692+0000008692+000000000+000001305+0000009990+0000000007+I20000000000+0000009990+Z
418758001418758018-030000     418758006003000421060MUG OCCASIONS LOVE 2PCE0000001000+00004607+00000+0001T   00004607+0000001529          1500 J51515               2 Z
418758002418758077-000471     418758006003000330096G-BAG DESGN MED 18X23CM0000001000+00001912+00000+0001T   00001912+0000001529          1500 J51112               2 Z
418758003418758903-000095     418758006001704011495SWT SPECKLED-EGGS 100G 0000001000+00002173+00000+0001T   00002173+0000001529          1500 J51150               2 Z
418759000418759               418759               170213SC     1500+00000+SC0000004954+0000004954+000000000+000000744+0000005690+0000000008+I20000000000+0000005690+Z
418759001418759103-000081     418759006003000637942BAMBOO BASKET 17x13x7cm0000001000+00003999+00000+0001T   00003999+0000001530          1500 J51300               2 Z
418759002418759077-000150-D   418759006003000054343GIFT-WRAP CELLPHANE CLR0000001000+00000955+00000+0001T   00000955+0000001530          1500 J51112               2 Z
418760000418760               418760               170213SC     1500+00000+SC0000001738+0000001738+000000000+000000261+0000001990+0000000009+I20000000000+0000001990+Z
418760001418760012-000001     418760006003000331048MICRO PLATE-COVER 26X6 0000001000+00001738+00000+0001T   00002260+0008301530          1500 J51300               2 Z
418761000418761               418761               170213SC     1500+00000+SC0000010255+0000010255+000000000+000001541+0000011790+0000000006+I20000000000+0000011790+Z
418761001418761366-000300     418761006001023902955DRESSUP TIARA FEATHER  0000003000+00002781+00000+0001T   00002781+0000001532          1500 J51131               2 Z
418761002418761006-000800     418761006001023902801HAT CABARET 14x18cm    0000001000+00001912+00000+0001T   00001912+0000001532          1500 J51131               2 Z
418762000418762               418762               170213SC     1500+00000+SC0000001912+0000001912+000000000+000000287+0000002199+0000000000+I40000002199+0000000000+Z
418762001418762159-000636     418762006003000036035BATH PUMICE,BRUSH,FILE 0000001000+00001912+00000+0001T   00001912+0000001534          1500 J51200               2 Z
418763000418763               418763               170213SC     1500+00000+SC0000000955+0000000955+000000000+000000144+0000001090+0000000009+I20000000000+0000001090+Z
418763001418763077-000151     418763006008766114676GIFT-WRAP C/PHANE ASSTD0000001000+00000955+00000+0001T   00000955+0000001534          1500 J51112               2 Z
418764000418764               418764               170213SC     1500+00000+SC0000001564+0000001564+000000000+000000235+0000001790+0000000009+I20000000000+0000001790+Z
418764001418764077-000305     418764006003000395422GIFT-BAG WINE 10X35CM  0000001000+00001564+00000+0001T   00001564+0000001535          1500 J51112               2 Z
418765000418765               418765               170213SC     1500+00000+SC0000001912+0000001912+000000000+000000287+0000002190+0000000009+I20000000000+0000002190+Z
418765001418765077-000455     418765006003000285389G/BAG METALLIC LRG SOL 0000001000+00001912+00000+0001T   00001912+0000001535          1500 J51112               2 Z
418766000418766               418766               170213SC     1500+00000+SC0000001651+0000001651+000000000+000000248+0000001890+0000000009+I20000000000+0000001890+Z
418766001418766077-000315     418766006003000181186GIFT-BAG 20x28cm MATT  0000001000+00001651+00000+0001T   00001651+0000001536          1500 J51112               2 Z
418767000418767               418767               170213SC     1500+00000+SC0000003824+0000003824+000000000+000000574+0000004390+0000000008+I20000000000+0000004390+Z
418767001418767200-003024     418767006001023657299REFUSE BAGS 20PCE BLACK0000002000+00001912+00000+0001T   00001912+0000001537          1500 J51214               2 Z
418768000418768               418768               170213SC     1500+00000+SC0000001912+0000001912+000000000+000000287+0000002190+0000000009+I20000000000+0000002190+Z
418768001418768077-000299-A   418768006003000670888GIFT-BAG PAPER JMB LOVE0000001000+00001912+00000+0001T   00001912+0000001537          1500 J51112               2 Z
418769000418769               418769               170213SC     1500+00000+SC0000003650+0000003650+000000000+000000548+0000004190+0000000008+I20000000000+0000004190+Z
418769001418769903-002901     418769005996071650655QUICK MILK 5 S/BERRY   0000001000+00001738+00000+0001T   00001738+0000001539          1500 J51150               2 Z
418769002418769903-000918     418769006009802868522SWEET GUM TAPE H/KITTY 0000001000+00001912+00000+0001T   00001912+0000001539          1500 J51150               2 Z
418770000418770               418770               170213SC     1500+00000+SC0000002822+0000002822+000000000+000000425+0000003240+0000000007+I20000000000+0000003240+Z
418770001418770108-001235     418770006003000462766SALAD BOWL PS 16cm-DIA 0000001000+00001390+00000+0001T   00001390+0000001541          1500 J51210               2 Z
418770002418770903-000890     418770006009702259000SWT BEECHIES S/BERRY   0000001000+00000868+00000+0001T   00000868+0000001541          1500 J51150               2 Z
418770003418770903-000155     418770006009803374435SWT LOLLY I LUV U HEART0000001000+00000564+00000+0001T   00000564+0000001541          1500 J51150               2 Z
418771000418771               418771               170213SC     1500+00000+SC0000001564-0000001564-000000000+000000235-0000001800-0000000001+I20000000000+0000001800-Z
418771001418771001-999907     418771000000000999907CLEANING-MATERIALS     0000001000-00001564+00000+0001T   00000000+0000001542          1500 J519072IC            2 Z
418772000418772               418772               170213SC     1500+00000+SC0000007476+0000007476+000000000+000001122+0000008590+0000000008+I20000000000+0000008590+Z
418772001418772028-002101     418772006002580009507CHAIR JUNIOR    ASSTD  0000002000+00003738+00000+0001T   00003738+0000001558          1500 J51305               2 Z
418773000418773               418773               170213SC     1500+00000+SC0000009564+0000009564+000000000+000001435+0000010990+0000000009+I20000000000+0000010990+Z
418773001418773486-002307     418773006003000443086W/CLOCK QTZ PL ANTIQUE 0000001000+00009564+00000+0001T   00009564+0000001603          1500 J51510               2 Z
418774000418774               418774               170213SC     1500+00000+SC0000001390+0000001390+000000000+000000209+0000001590+0000000009+I20000000000+0000001590+Z
418774001418774046-000012     418774006904708013062BATTERIES AA  CARD-OF-40000001000+00001390+00000+0001T   00001390+0000001604          1500 J51312               2 Z
418775000418775               418775               170213SC     1500+00000+SC0000001390+0000001390+000000000+000000209+0000001590+0000000009+I20000000000+0000001590+Z
418775001418775046-000012     418775006904708013062BATTERIES AA  CARD-OF-40000001000+00001390+00000+0001T   00001390+0000001606          1500 J51312               2 Z
418776000418776               418776               170213SC     1500+00000+SC0000001564+0000001564+000000000+000000235+0000001790+0000000009+I20000000000+0000001790+Z
418776001418776077-000299     418776006003000395576G/BAG 32x25cm LRG LOVE 0000001000+00001564+00000+0001T   00001564+0000001608          1500 J51112               2 Z
418777000418777               418777               170213SC     1500+00000+SC0000006955+0000006955+000000000+000001044+0000007990+0000000009+I20000000000+0000007990+Z
418777001418777486-002317     418777006001023847539W/CLOCK QTZ PL ASSTD   0000001000+00006955+00000+0001T   00009564+0008291610          1500 J51510               2 Z
418778000418778               418778               170213SC     1500+00000+SC0000001564+0000001564+000000000+000000235+0000001790+0000000009+I20000000000+0000001790+Z
418778001418778077-000299     418778006003000395576G/BAG 32x25cm LRG LOVE 0000001000+00001564+00000+0001T   00001564+0000001611          1500 J51112               2 Z
418779000418779               418779               170213SC     1500+00000+SC0000018694+0000018694+000000000+000002805+0000021490+0000000009+I20000000000+0000021490+Z
418779001418779105-007525     418779006003000487707STORAGE BOX CLEAR 21L  0000001000+00018694+00000+0001T   00018694+0000001613          1500 J51210               2 Z
418780000418780               418780               170213SC     1500+00000+SC0000000955+0000000955+000000000+000000144+0000001090+0000000009+I20000000000+0000001090+Z
418780001418780033-005921-A   418780006001023678324SEWING-THREAD 200m WHT 0000001000+00000955+00000+0001T   00000955+0000001620          1500 J51200               2 Z
418781000418781               418781               170213SC     1500+00000+SC0000002781+0000002781+000000000+000000418+0000003190+0000000009+I20000000000+0000003190+Z
418781001418781089-000100     418781006003000565665K/CHAIN PET LOVERS     0000001000+00002781+00000+0001T   00002781+0000001622          1500 J51205               2 Z
418782000418782               418782               170213SC     1500+00000+SC0000005909+0000005909+000000000+000000888+0000006790+0000000007+I20000000000+0000006790+Z
418782001418782024-007001     418782006002580007688CAKE/BISCUIT-SERVER    0000001000+00003303+00000+0001T   00003303+0000001630          1500 J51300               2 Z
418782002418782903-000499     418782006001704012492SWT CHOC MALLOWS 50g   0000002000+00001303+00000+0001T   00001303+0000001630          1500 J51150               2 Z
418783000418783               418783               170213SC     1500+00000+SC0000001564+0000001564+000000000+000000235+0000001790+0000000009+I20000000000+0000001790+Z
418783001418783077-000299     418783006003000395576G/BAG 32x25cm LRG LOVE 0000001000+00001564+00000+0001T   00001564+0000001632          1500 J51112               2 Z
418784000418784               418784               170213SC     1500+00000+SC0000001912+0000001912+000000000+000000287+0000002190+0000000009+I20000000000+0000002190+Z
418784001418784077-000299-A   418784006003000670888GIFT-BAG PAPER JMB LOVE0000001000+00001912+00000+0001T   00001912+0000001635          1500 J51112               2 Z
418785000418785               418785               170213SC     1500+00000+SC0000009430+0000009430+000000000+000001415+0000010840+0000000005+I20000000000+0000010840+Z
418785001418785007-000167     418785006009685857347SPIRAL NOTES A7 72PG   0000001000+00000390+00000+0001T   00000390+0000001638          1500 J51130               2 Z
418785002418785076-000750     418785006003000423347CORD STRETCH 2-CLAW    0000001000+00002520+00000+0001T   00002520+0000001638          1500 J51810               2 Z
418785003418785174-008022     418785006001023555502RAINCOAT 132X203cm HOOD0000001000+00006520+00000+0001T   00006520+0000001638          1500 J51205               2 Z
418786000418786               418786               170213SC     1500+00000+SC0000001738+0000001738+000000000+000000261+0000001990+0000000009+I20000000000+0000001990+Z
418786001418786031-006534     418786006001023995896P/FRAME AUTO 10x15cm   0000001000+00001738+00000+0001T   00001912+0008091639          1500 J51510               2 Z
418787000418787               418787               170213SC     1500+00000+SC0000002865+0000002865+000000000+000000432+0000003290+0000000007+I20000000000+0000003290+Z
418787001418787077-000151     418787006008766114676GIFT-WRAP C/PHANE ASSTD0000003000+00000955+00000+0001T   00000955+0000001640          1500 J51112               2 Z
418788000418788               418788               170213SC     1500+00000+SC0000001384+0000001384+000000000+000000208+0000001590+0000000002+I20000000000+0000001590+Z
418788001418788079-009700-H   418788006003000546039PAPER SIRIO A4 EARTH   0000001000+00000346+00000+0001T   00000346+0000001641          1500 J51130               2 Z
418788002418788079-009700-L   418788006003000546350PAPER SIRIO A4 YELLOW  0000001000+00000346+00000+0001T   00000346+0000001641          1500 J51130               2 Z
418788003418788079-009700-G   418788006003000545957PAPER SIRIO A4 LIME COL0000001000+00000346+00000+0001T   00000346+0000001641          1500 J51130               2 Z
418788004418788079-009700-I   418788006003000546114PAPER SIRIO A4 LILAC   0000001000+00000346+00000+0001T   00000346+0000001641          1500 J51130               2 Z
418789000418789               418789               170213SC     1500+00000+SC0000012512+0000012512+000000000+000001880+0000014390+0000000002+I20000000000+0000014390+Z
418789001418789105-007014     418789006003000593606CONTAINER CLEAR 1L     0000001000+00002607+00000+0001T   00003738+0008281643          1500 J51210               2 Z
418789002418789563-000318-K   418789006003000404841SERVIETTES 33cm L/BLUE 0000001000+00002346+00000+0001T   00002346+0000001643          1500 J51214               2 Z
418789003418789006-000120     418789006001023346889BALLOONS 10PC MIX COL  0000002000+00001912+00000+0001T   00001912+0000001643          1500 J51131               2 Z
418789004418789077-000005-D   418789006003000414567PAPER TISSUE 50x70cm   0000001000+00001912+00000+0001T   00001912+0000001643          1500 J51112               2 Z
418789005418789077-000011-D   418789006001023808554TISSUE-WRAP WHITE 10PCE0000001000+00000955+00000+0001T   00000955+0000001643          1500 J51112               2 Z
418789006418789077-000010-F   418789006003453000461CREPE-PAPER BLUE       0000001000+00000868+00000+0001T   00000868+0000001643          1500 J51112               2 Z
418790000418790               418790               170213SC     1500+00000+SC0000001303+0000001303+000000000+000000196+0000001490+0000000009+I20000000000+0000001490+Z
418790001418790077-000322     418790006001023677532GIFT-BAG 18X23CM E/D FL0000001000+00001303+00000+0001T   00001303+0000001643          1500 J51112               2 Z
418791000418791               418791               170213SC     1500+00000+SC0000003474+0000003474+000000000+000000522+0000003996+0000000000+I40000003996+0000000000+Z
418791001418791018-000170     418791006001023775528MUG OCC. LOVE 2PC MINI 0000001000+00002346+00000+0001T   00002346+0000001645          1500 J51515               2 Z
418791002418791903-000155     418791006009803374435SWT LOLLY I LUV U HEART0000002000+00000564+00000+0001T   00000564+0000001645          1500 J51150               2 Z
418792000418792               418792               170213SC     1500+00000+SC0000002867+0000002867+000000000+000000431+0000003290+0000000008+I20000000000+0000003290+Z
418792001418792088-000084     418792006001023798060P/POURRI 120G ASSTD    0000001000+00001912+00000+0001T   00001912+0000001646          1500 J51212               2 Z
418792002418792077-000011-D   418792006001023808554TISSUE-WRAP WHITE 10PCE0000001000+00000955+00000+0001T   00000955+0000001646          1500 J51112               2 Z
418793000418793               418793               170213SC     1500+00000+SC0000001912+0000001912+000000000+000000287+0000002199+0000000000+I40000002199+0000000000+Z
418793001418793046-002032-PK2 418793004897006175063BATTERIES CR-2032  2PCE0000001000+00001912+00000+0001T   00001912+0000001647          1500 J51312               2 Z
418794000418794               418794               170213SC     1500+00000+SC0000012735+0000012735+000000000+000001912+0000014647+0000000000+I40000014647+0000000000+Z
418794001418794903-000155     418794006009803374435SWT LOLLY I LUV U HEART0000001000+00000564+00000+0001T   00000564+0000001649          1500 J51150               2 Z
418794002418794301-085004     418794006003000420469ORN LOVE PLAQUE 21X10CM0000001000+00003477+00000+0001T   00003999+0006481649          1500 J51505               2 Z
418794003418794001-091415     418794006003000329113W/GLS OCC. LOVE 2PC 2800000001000+00008694+00000+0001T   00009650+0006481649          1500 J51515               2 Z
418795000418795               418795               170213SC     1500+00000+SC0000002822+0000002822+000000000+000000425+0000003240+0000000007+I20000000000+0000003240+Z
418795001418795077-000150-D   418795006003000054343GIFT-WRAP CELLPHANE CLR0000001000+00000955+00000+0001T   00000955+0000001649          1500 J51112               2 Z
418795002418795077-000245     418795006001023759214GIFT-RIBBON METALLICx2 0000001000+00001303+00000+0001T   00001303+0000001649          1500 J51112               2 Z
418795003418795903-000155     418795006009803374435SWT LOLLY I LUV U HEART0000001000+00000564+00000+0001T   00000564+0000001649          1500 J51150               2 Z
418796000418796               418796               170213SC     1500+00000+SC0000006171+0000006171+000000000+000000927+0000007090+0000000008+I20000000000+0000007090+Z
418796001418796001-000175     418796006001023788108B/MUG GLS LOVE 380ML   0000001000+00004607+00000+0001T   00004607+0000001650          1500 J51515               2 Z
418796002418796077-000305     418796006003000395422GIFT-BAG WINE 10X35CM  0000001000+00001564+00000+0001T   00001564+0000001650          1500 J51112               2 Z
418797000418797               418797               170213SC     1500+00000+SC0000003738+0000003738+000000000+000000561+0000004290+0000000009+I20000000000+0000004290+Z
418797001418797103-000090     418797006001023795786WOVEN HEART SHAPED     0000001000+00003738+00000+0001T   00003738+0000001652          1500 J51300               2 Z
418798000418798               418798               170213SC     1500+00000+SC0000000955+0000000955+000000000+000000144+0000001090+0000000009+I20000000000+0000001090+Z
418798001418798077-000150-D   418798006003000054343GIFT-WRAP CELLPHANE CLR0000001000+00000955+00000+0001T   00000955+0000001653          1500 J51112               2 Z
418799000418799               418799               170213SC     1500+00000+SC0000001999+0000001999+000000000+000000300+0000002290+0000000009+I20000000000+0000002290+Z
418799001418799200-000100     418799006001023764003CUPS 25PCE DISPOSABLE  0000001000+00001999+00000+0001T   00001999+0000001654          1500 J51214               2 Z
418800000418800               418800               170213SC     1500+00000+SC0000001912+0000001912+000000000+000000287+0000002190+0000000009+I20000000000+0000002190+Z
418800001418800039-080962     418800006001023736055C/SET 3PC(GLS-CUP+2CAN)0000001000+00001912+00000+0001T   00001912+0000001655          1500 J51510               2 Z
418801000418801               418801               170213SC     1500+00000+SC0000002781+0000002781+000000000+000000418+0000003190+0000000009+I20000000000+0000003190+Z
418801001418801077-000270     418801006003000395453GIFT-BAG PPR JMB 33X45 0000001000+00002781+00000+0001T   00002781+0000001656          1500 J51112               2 Z
418802000418802               418802               170213SC     1500+00000+SC0000012604+0000012604+000000000+000001892+0000014490+0000000006+I20000000000+0000014490+Z
418802001418802006-000165     418802006001023758392BALLOONS LRG BAG-OF-1000000001000+00009564+00000+0001T   00009564+0000001657          1500 J51131               2 Z
418802002418802077-000299     418802006003000395576G/BAG 32x25cm LRG LOVE 0000001000+00001564+00000+0001T   00001564+0000001657          1500 J51112               2 Z
418802003418802903-000070     418802006001704001106SWT TOFFEE CREAMY 35g  0000002000+00000738+00000+0001T   00000738+0000001657          1500 J51150               2 Z
418803000418803               418803               170213SC     1500+00000+SC0000022510+0000022510+000000000+000003380+0000025890+0000000000+I40000025890+0000000000+Z
418803001418803079-105610     418803006003000249473ART+CRAFT SPONGE INK PA0000001000+00003738+00000+0001T   00003738+0000001659          1500 J51130               2 Z
418803002418803079-105603     418803006003000230907ART+CRAFT STAMP ROUND  0000002000+00001651+00000+0001T   00001651+0000001659          1500 J51130               2 Z
418803003418803007-000723     418803006003000226078MEMO BOOK W/PEN 100SHTS0000002000+00001912+00000+0001T   00001912+0000001659          1500 J51130               2 Z
418803004418803007-000217     418803006003000639656SELF STICK NOTE BOOK   0000001000+00002346+00000+0001T   00002346+0000001659          1500 J51130               2 Z
418803005418803007-000714     418803006003000227150NOTE-BK A6 WIRO 80SHTS 0000001000+00002781+00000+0001T   00002781+0000001659          1500 J51130               2 Z
418803006418803007-000711     418803006003000227518NOTE-BK A5 WIRE 80SHTS 0000001000+00004607+00000+0001T   00004607+0000001659          1500 J51130               2 Z
418803007418803079-013099     418803006003000081875ART+CRAFT EYES ASSTD   0000001000+00001912+00000+0001T   00001912+0000001659          1500 J51130               2 Z
418804000418804               418804               170213SC     1500+00000+SC0000003738+0000003738+000000000+000000561+0000004299+0000000000+I40000004299+0000000000+Z
418804001418804004-078990     418804006001023994431EARPHONES MINI 1.2m    0000001000+00003738+00000+0001T   00003738+0000001700          1500 J51310               2 Z
418805000418805               418805               170213SC     1500+00000+SC0000002781+0000002781+000000000+000000418+0000003190+0000000009+I20000000000+0000003190+Z
418805001418805079-000282     418805006001023493309PAINT TUBS POSTER 12COL0000001000+00002781+00000+0001T   00002781+0000001701          1500 J51130               2 Z
418806000418806               418806               170213SC     1500+00000+SC0000006519+0000006519+000000000+000000979+0000007490+0000000008+I20000000000+0000007490+Z
418806001418806162-096855     418806006001492968551#TAG KIDS EARING DROP  0000001000+00002781+00000+0001T   00002781+0000001702          1500 J51160               2 Z
418806002418806162-097718     418806006001492977188#TAG CHARM BRACELET    0000001000+00003738+00000+0001T   00003738+0000001702          1500 J51160               2 Z
418807000418807               418807               170213SC     1500+00000+SC0000004693+0000004693+000000000+000000705+0000005390+0000000008+I20000000000+0000005390+Z
418807001418807089-000100     418807006003000565665K/CHAIN PET LOVERS     0000001000+00002781+00000+0001T   00002781+0000001703          1500 J51205               2 Z
418807002418807362-000299     418807006003000654758HAIR CLIPS METAL WORDS 0000001000+00001912+00000+0001T   00001912+0000001703          1500 J51160               2 Z
418808000418808               418808               170213SC     1500+00000+SC0000008595+0000008595+000000000+000001296+0000009890+0000000001+I20000000000+0000009890+Z
418808001418808071-005213     418808006001023690371CELLOTAPE 12mmx33m     0000001000+00000955+00000+0001T   00000955+0000001704          1500 J51130               2 Z
418808002418808077-000151     418808006008766114676GIFT-WRAP C/PHANE ASSTD0000001000+00000955+00000+0001T   00000955+0000001704          1500 J51112               2 Z
418808003418808077-000150-D   418808006003000054343GIFT-WRAP CELLPHANE CLR0000007000+00000955+00000+0001T   00000955+0000001704          1500 J51112               2 Z
418809000418809               418809               170213SC     1500+00000+SC0000003738+0000003738+000000000+000000561+0000004290+0000000009+I20000000000+0000004290+Z
418809001418809031-005840     418809006001023481412P/FRAME-CLIP 30X40CM   0000001000+00003738+00000+0001T   00003738+0000001705          1500 J51510               2 Z
418810000418810               418810               170213SC     1500+00000+SC0000002781+0000002781+000000000+000000418+0000003190+0000000009+I20000000000+0000003190+Z
418810001418810018-000129     418810006001023403353MUG OCC. LOVE V-SHAPE  0000001000+00002781+00000+0001T   00002781+0000001705          1500 J51515               2 Z
418811000418811               418811               170213SC     1500+00000+SC0000001564+0000001564+000000000+000000235+0000001790+0000000009+I20000000000+0000001790+Z
418811001418811077-000305     418811006003000395422GIFT-BAG WINE 10X35CM  0000001000+00001564+00000+0001T   00001564+0000001707          1500 J51112               2 Z
418812000418812               418812               170213SC     1500+00000+SC0000007377+0000007377+000000000+000001109+0000008480+0000000006+I20000000000+0000008480+Z
418812001418812903-000517     418812006001704012768SWT STRAWS FIZZY CHERRY0000001000+00001303+00000+0001T   00001303+0000001718          1500 J51150               2 Z
418812002418812903-000843     418812008693029031067SWT GUMMY JELAXY 80G   0000001000+00001042+00000+0001T   00001042+0000001718          1500 J51150               2 Z
418812003418812566-000068     418812006003000418046POP UP LOVE 2 ASSTD    0000001000+00002260+00000+0001T   00002260+0000001718          1500 J51130               2 Z
418812004418812903-004963     418812008410525221873SWT GUMMY SOUR COLA 50g0000001000+00001042+00000+0001T   00001042+0000001718          1500 J51150               2 Z
418812005418812079-009700-H   418812006003000546039PAPER SIRIO A4 EARTH   0000003000+00000346+00000+0001T   00000346+0000001718          1500 J51130               2 Z
418812006418812079-009700-E   418812006003000545797PAPER SIRIO A4 GREY    0000002000+00000346+00000+0001T   00000346+0000001718          1500 J51130               2 Z
418813000418813               418813               170213SC     1500+00000+SC0000015216+0000015216+000000000+000002283+0000017490+0000000009+I20000000000+0000017490+Z
418813001418813140-092000     418813006001023819130MOSQ-NET 1250x250x65cm 0000001000+00015216+00000+0001T   00015216+0000001719          1500 J51830               2 Z
418814000418814               418814               170213SC     1500+00000+SC0000000955+0000000955+000000000+000000144+0000001090+0000000009+I20000000000+0000001090+Z
418814001418814077-000302     418814008010410010195GIFT-BAG 18X23CM E/D   0000001000+00000955+00000+0001T   00000955+0000001719          1500 J51112               2 Z
418815000418815               418815               170213SC     1500+00000+SC0000004952+0000004952+000000000+000000745+0000005690+0000000007+I20000000000+0000005690+Z
418815001418815071-004202     418815006001023417176SCISSORS-SCHOOL PL/MTL 0000001000+00001216+00000+0001T   00001216+0000001720          1500 J51130               2 Z
418815002418815304-000720     418815006001023843050F/BUNCH ROSE 6-HEAD AST0000001000+00002781+00000+0001T   00002781+0000001720          1500 J51510               2 Z
418815003418815071-005213     418815006001023690371CELLOTAPE 12mmx33m     0000001000+00000955+00000+0001T   00000955+0000001720          1500 J51130               2 Z
418816000418816               418816               170213SC     1500+00000+SC0000008601+0000008601+000000000+000001293+0000009890+0000000004+I20000000000+0000009890+Z
418816001418816077-000151     418816006008766114676GIFT-WRAP C/PHANE ASSTD0000001000+00000955+00000+0001T   00000955+0000001721          1500 J51112               2 Z
418816002418816077-000150-D   418816006003000054343GIFT-WRAP CELLPHANE CLR0000001000+00000955+00000+0001T   00000955+0000001721          1500 J51112               2 Z
418816003418816077-000151     418816006008766114676GIFT-WRAP C/PHANE ASSTD0000001000+00000955+00000+0001T   00000955+0000001721          1500 J51112               2 Z
418816004418816080-008102     418816006003000080724CARD&ENV MINI 6PK FOIL 0000001000+00001912+00000+0001T   00001912+0000001721          1500 J51112               2 Z
418816005418816104-000020     418816006916920023026BASKET 25x14x10cm      0000002000+00001912+00000+0001T   00001912+0000001721          1500 J51210               2 Z
418817000418817               418817               170213SC     1500+00000+SC0000017211+0000017211+000000000+000002582+0000019790+0000000003+I20000000000+0000019790+Z
418817001418817077-000918     418817006003000413690G/WRAP 700mmx2m PATTERN0000001000+00002346+00000+0001T   00002346+0000001723          1500 J51112               2 Z
418817002418817006-000851     418817006007151000273PARTY LUCKY-PACKET BOY 0000001000+00004173+00000+0001T   00004173+0000001723          1500 J51131               2 Z
418817003418817266-001002     418817006001023914163PLAYSET SWORD & WEAPON 0000001000+00006520+00000+0001T   00006520+0000001723          1500 J51710               2 Z
418817004418817077-000328     418817006003000668939GIFT-BAG PAPER JMB     0000001000+00001912+00000+0001T   00001912+0000001723          1500 J51112               2 Z
418817005418817903-000057     418817006005929000173SWT GS NOVELTY GIANT AL0000001000+00002260+00000+0001T   00002260+0000001723          1500 J51150               2 Z
418818000418818               418818               170213SC     1500+00000+SC0000007476+0000007476+000000000+000001122+0000008598+0000000000+I40000008598+0000000000+Z
418818001418818263-000177     418818006001023826824RACER PULL BACK        0000001000+00003738+00000+0001T   00003738+0000001727          1500 J51710               2 Z
418818002418818028-002101     418818006002580009507CHAIR JUNIOR    ASSTD  0000001000+00003738+00000+0001T   00003738+0000001727          1500 J51305               2 Z
418819000418819               418819               170213SC     1500+00000+SC0000001910+0000001910+000000000+000000288+0000002190+0000000008+I20000000000+0000002190+Z
418819001418819071-005213     418819006001023690371CELLOTAPE 12mmx33m     0000001000+00000955+00000+0001T   00000955+0000001728          1500 J51130               2 Z
418819002418819007-000045     418819006009608640438DISPLAY-POCKETS A4 10PC0000001000+00000955+00000+0001T   00000955+0000001728          1500 J51130               2 Z
418820000418820               418820               170213SC     1500+00000+SC0000002781+0000002781+000000000+000000418+0000003190+0000000009+I20000000000+0000003190+Z
418820001418820031-005821     418820006001023667786P/FRAME-GLS CLIP 21X30 0000001000+00002781+00000+0001T   00002781+0000001729          1500 J51510               2 Z
418821000418821               418821               170213SC     1500+00000+SC0000001912+0000001912+000000000+000000287+0000002190+0000000009+I20000000000+0000002190+Z
418821001418821077-000289     418821006001023901996GIFT BOX 20x25x11cm    0000001000+00001912+00000+0001T   00001912+0000001739          1500 J51112               2 Z
418822000418822               418822               170213SC     1500+00000+SC0000002781+0000002781+000000000+000000418+0000003190+0000000009+I20000000000+0000003190+Z
418822001418822466-000584     418822006001023628787SKIPPING-ROPE          0000001000+00002781+00000+0001T   00002781+0000001740          1500 J51785               2 Z
418823000418823               418823               170213SC     1500+00000+SC0000006520+0000006520+000000000+000000978+0000007490+0000000008+I20000000000+0000007490+Z
418823001418823103-000068     418823006003000630486BAMBOO BASKET RECTANGLE0000001000+00006520+00000+0001T   00006520+0000001741          1500 J51300               2 Z
418824000418824               418824               170213SC     1500+00000+SC0000004952+0000004952+000000000+000000745+0000005690+0000000007+I20000000000+0000005690+Z
418824001418824018-000129     418824006001023403353MUG OCC. LOVE V-SHAPE  0000001000+00002781+00000+0001T   00002781+0000001743          1500 J51515               2 Z
418824002418824077-000322     418824006001023677532GIFT-BAG 18X23CM E/D FL0000001000+00001303+00000+0001T   00001303+0000001743          1500 J51112               2 Z
418824003418824903-000138     418824006002099004314SWT GS WINE GUMS 60G   0000001000+00000868+00000+0001T   00000868+0000001743          1500 J51150               2 Z
418825000418825               418825               170213SC     1500+00000+SC0000000781+0000000781+000000000+000000118+0000000890+0000000009+I20000000000+0000000890+Z
418825001418825903-000200     418825006009826020234SWT CHOC RP CHOCO 23G  0000001000+00000781+00000+0001T   00000825+0006481744          1500 J51150               2 Z
418826000418826               418826               170213SC     1500+00000+SC0000001910+0000001910+000000000+000000288+0000002190+0000000008+I20000000000+0000002190+Z
418826001418826077-000150-D   418826006003000054343GIFT-WRAP CELLPHANE CLR0000002000+00000955+00000+0001T   00000955+0000001745          1500 J51112               2 Z
418827000418827               418827               170213SC     1500+00000+SC0000003736+0000003736+000000000+000000562+0000004290+0000000008+I20000000000+0000004290+Z
418827001418827077-000270     418827006003000395453GIFT-BAG PPR JMB 33X45 0000001000+00002781+00000+0001T   00002781+0000001746          1500 J51112               2 Z
418827002418827077-000011-L   418827006001023808585P/TISSUE BRIGHT 10SHEET0000001000+00000955+00000+0001T   00000955+0000001746          1500 J51112               2 Z
418828000418828               418828               170213SC     1500+00000+SC0000002346+0000002346+000000000+000000352+0000002690+0000000008+I20000000000+0000002690+Z
418828001418828077-000509     418828006003000082582GIFT-BAG SML 6PCE ORG P0000001000+00002346+00000+0001T   00002346+0000001747          1500 J51112               2 Z
418829000418829               418829               170213SC     1500+00000+SC0000000868+0000000868+000000000+000000131+0000000990+0000000009+I20000000000+0000000990+Z
418829001418829903-000137     418829006002099004130SWEET GS JELLY BEAN 60G0000001000+00000868+00000+0001T   00000868+0000001748          1500 J51150               2 Z
418830000418830               418830               170213SC     1500+00000+SC0000002519+0000002519+000000000+000000379+0000002890+0000000008+I20000000000+0000002890+Z
418830001418830077-000305     418830006003000395422GIFT-BAG WINE 10X35CM  0000001000+00001564+00000+0001T   00001564+0000001748          1500 J51112               2 Z
418830002418830077-000011-L   418830006001023808585P/TISSUE BRIGHT 10SHEET0000001000+00000955+00000+0001T   00000955+0000001748          1500 J51112               2 Z
418831000418831               418831               170213SC     1500+00000+SC0000001912+0000001912+000000000+000000287+0000002190+0000000009+I20000000000+0000002190+Z
418831001418831024-091100     418831006001023914224BAKING-CUPS PAPER 100PC0000001000+00001912+00000+0001T   00001912+0000001749          1500 J51300               2 Z
418832000418832               418832               170213SC     1500+00000+SC0000010604+0000010604+000000000+000001591+0000012195+0000000000+I40000012195+0000000000+Z
418832001418832903-000211     418832006002099001238SWT GS MALLOW ICE CREAM0000002000+00001912+00000+0001T   00001912+0000001751          1500 J51150               2 Z
418832002418832903-000090     418832006009826020821SWT GS CHOCO COINS 60g 0000003000+00002260+00000+0001T   00002260+0000001751          1500 J51150               2 Z
418833000418833               418833               170213SC     1500+00000+SC0000003301+0000003301+000000000+000000496+0000003790+0000000007+I20000000000+0000003790+Z
418833001418833563-000318-L   418833006003000407088SERVIETTES 33cm RED    0000001000+00002346+00000+0001T   00002346+0000001752          1500 J51214               2 Z
418833002418833077-000011-D   418833006001023808554TISSUE-WRAP WHITE 10PCE0000001000+00000955+00000+0001T   00000955+0000001752          1500 J51112               2 Z
418834000418834               418834               170213SC     1500+00000+SC0000004607+0000004607+000000000+000000692+0000005290+0000000009+I20000000000+0000005290+Z
418834001418834001-000175     418834006001023788108B/MUG GLS LOVE 380ML   0000001000+00004607+00000+0001T   00004607+0000001752          1500 J51515               2 Z
418835000418835               418835               170213SC     1500+00000+SC0000009564+0000009564+000000000+000001435+0000010990+0000000009+I20000000000+0000010990+Z
418835001418835586-011943     418835006001492119434WATCH KIDS BEZEL STRAP 0000001000+00009564+00000+0001T   00009564+0000001754          1500 J51160               2 Z
418836000418836               418836               170213SC     1500+00000+SC0000005562+0000005562+000000000+000000836+0000006390+0000000008+I20000000000+0000006390+Z
418836001418836001-000175     418836006001023788108B/MUG GLS LOVE 380ML   0000001000+00004607+00000+0001T   00004607+0000001755          1500 J51515               2 Z
418836002418836089-000192-A   418836006001023901774KEY-CHAIN ACRYLIC      0000001000+00000955+00000+0001T   00000955+0000001755          1500 J51205               2 Z
418837000418837               418837               170213SC     1500+00000+SC0000000868+0000000868+000000000+000000131+0000000990+0000000009+I20000000000+0000000990+Z
418837001418837903-000137     418837006002099004130SWEET GS JELLY BEAN 60G0000001000+00000868+00000+0001T   00000868+0000001756          1500 J51150               2 Z
418838000418838               418838               170213SC     1500+00000+SC0000001564+0000001564+000000000+000000235+0000001790+0000000009+I20000000000+0000001790+Z
418838001418838077-000304     418838006001023483232GIFT-BAG 25X32CM E/DAY 0000001000+00001564+00000+0001T   00001564+0000001756          1500 J51112               2 Z
418839000418839               418839               170213SC     1500+00000+SC0000005127+0000005127+000000000+000000770+0000005890+0000000007+I20000000000+0000005890+Z
418839001418839077-000926     418839006003000414178G/WRAP 700mmx2m LOVE   0000001000+00002346+00000+0001T   00002346+0000001757          1500 J51112               2 Z
418839002418839004-000014     418839006003000257737CAMERA TRIPOD W/LEGS   0000001000+00002781+00000+0001T   00002781+0000001757          1500 J51310               2 Z
418840000418840               418840               170213SC     1500+00000+SC0000008694+0000008694+000000000+000001305+0000009990+0000000009+I20000000000+0000009990+Z
418840001418840001-091415     418840006003000329113W/GLS OCC. LOVE 2PC 2800000001000+00008694+00000+0001T   00009650+0006481758          1500 J51515               2 Z
A17021300                                          07435451SCSLAVE 2                       AG33IC
A17021301                                          11240459SCSLAVE 2                       J512IC
A17021302                                          15290948SCSLAVE 2                       J512IC
C41865800                                          170213SC077-000011-X   10021897SLAVE 2     J512IC0000000000+0000000000+0020000001000+
C41865801                                          170213SC077-000011-L   10022259SLAVE 2     J512IC0000000000+0000000000+0030000001000+
C41869000                                          170213SC368-000049     13101226SLAVE 2     J512IC0000000000+0000000000+0040000001000+
C41873400                                          170213SC036-000063     14371963SLAVE 2     J511IC0000000000+0000000000+0080000001000+
C41881200                                          170213SC077-000328     17154201SLAVE 2     J512IC0000000000+0000000000+0010000001000+
C41881201                                          170213SC266-001002     17154651SLAVE 2     J512IC0000000000+0000000000+0020000001000+
C41881202                                          170213SC903-000057     17155109SLAVE 2     J512IC0000000000+0000000000+0030000001000+
C41881203                                          170213SC006-000851     17160174SLAVE 2     J512IC0000000000+0000000000+0040000001000+
C41881204                                          170213SC077-000918     17160732SLAVE 2     J512IC0000000000+0000000000+0050000001000+
M17021301                              SHIEHAAM    SCBANKING                                                                                         SLAVE 1                                         Z/READING=12641.60                              C/BANKING=9017.30                               C/CARDS  =3380.40                               P/OUTS STAFF-REFRESHMENTS=150 CLEANING=93.90    CASHIER ZELDA BALANCED                                                                          SLAVE 2                                         Z/READING=12730.01                              C/BANKING=9987.70                               C/CARDS  =2724.31                               P/OUTS CLEANING MATERIAL=17.90                                                                  SLAVE 3 NOT IN USE                                                                              THANKS                                          SC
M17021302                              IT          SCLAST TILL SLIP NUMBERS                                                                          SLAVE 1...405177                                                                                SLAVE 2..418840                                                                                 SLAVE 3 NOT IN USE                                                                              THANKS                                          SC
M17021391                              CASH        SCSLAVE 2                       Z-REPORT No.   421TOTAL (Sales - Refunds)          12730.01       CASH TO BE BANKED                 9987.70       DEBIT CARDS                          0.00       CREDIT CARDS                      2724.31       Z-READING                        12712.01       AIRTIME DEBIT CARD SALES             0.00       AIRTIME CARD SALES                   0.00       OVERS/UNDERS                         0.00       AIRTIME CASH SALES                   0.00       GIFT CARDS                           0.00       GIFT CARD CASH SALES                 0.00       CLEANING-MATERIALS                  17.99       ROUNDING                             0.01       T O T A L  CASH PAYOUTS             18.00                                                                                                                                                                                                                                                      Z
M17021392                              CASH        SCABSENT                                                                                                                                                                                          ANNUAL LEAVE                                                                                                                                                                                    DAY OFF                                                                                                                                                                                         COMMENTS          CASHIER RUBEN BALANCED                                                                                                                                                                                                                                                                                                                                                       Z
Y17021300                                          SC00018201115336+000182
ZSC17021320213 SLAVE 2      SALES DATA                     NEXT INVOICE NO.  418841 0421
X SC Slave 2 First invoice 418657 170213 Last invoice 418840 170213 Next invoice 418841 Total number of records 000000551 clbackup completed 20:21:22
