107636000107636               107636               170213SD     1500+00000+SD0000003738+0000003738+000000000+000000561+0000004290+0000000009+I20000000000+0000004290+Z
107636001107636261-003822     107636006003000655649GUN RIFLE "CORK" 4 cm  0000001000+00003738+00000+0001T   00003738+0000000924          1500 G15710               1 Z
107637000107637               107637               170213SD     1500+00000+SD0000010081+0000010081+000000000+000001514+0000011595+0000000000+I40000011595+0000000000+Z
107637001107637368-000049     107637006003000536955PLUSH BEAR 15cm LOVE   0000001000+00004346+00000+0001T   00004607+0006480926          1500 G15745               1 Z
107637002107637018-000129     107637006001023403353MUG OCC. LOVE V-SHAPE  0000001000+00002781+00000+0001T   00002781+0000000926          1500 G15515               1 Z
107637003107637077-000303     107637006001023593757GIFT-BAG PAPER MED     0000001000+00001651+00000+0001T   00001651+0000000926          1500 G15112               1 Z
107637004107637903-000194     107637006009826020616SWT CHOC RP LOLLY 25G  0000001000+00001303+00000+0001T   00001390+0006480926          1500 G15150               1 Z
107638000107638               107638               170213SD     1500+00000+SD0000001564+0000001564+000000000+000000235+0000001790+0000000009+I20000000000+0000001790+Z
107638001107638019-071610     107638006001023904560PEBBLES WATER GEMS 10g 0000001000+00001564+00000+0001T   00001564+0000000927          1500 G15510               1 Z
107639000107639               107639               170213SD     1500+00000+SD0000013602+0000013602+000000000+000002043+0000015640+0000000005+I20000000000+0000015640+Z
107639001107639077-000311     107639006001023608666GIFT-BAG 11X14CM GLOSS 0000001000+00000651+00000+0001T   00000651+0000001033          1500 G15112               1 Z
107639002107639077-000115-B   107639006003000181025GIFT-WRAP PPR 700MMX2M 0000002000+00002781+00000+0001T   00002781+0000001033          1500 G15112               1 Z
107639003107639301-085001     107639006003000297610ORN WATERBALL LOVE ASST0000001000+00005129+00000+0001T   00005129+0000001033          1500 G15505               1 Z
107639004107639565-000080     107639006003000643424NOVELTY BENDY          0000001000+00002260+00000+0001T   00002260+0000001033          1500 G15745               1 Z
107640000107640               107640               170213SD     1500+00000+SD0000003824+0000003824+000000000+000000574+0000004390+0000000008+I20000000000+0000004390+Z
107640001107640046-000014-A   107640004897006177708BATTERIES SIZE:AAA 8PCE0000002000+00001912+00000+0001T   00001912+0000001046          1500 G15312               1 Z
107641000107641               107641               170213SD     1500+00000+SD0000005211+0000005211+000000000+000000784+0000005990+0000000005+I20000000000+0000005990+Z
107641001107641080-000114     107641006003000246472CARD&ENV LOVE-MUSICAL  0000001000+00001303+00000+0001T   00001912+0008261111          1500 G15112               1 Z
107641002107641080-000133     107641006003000535613CARD&ENV MINI ASTD DSGN0000001000+00000477+00000+0001T   00000477+0000001111          1500 G15112               1 Z
107641003107641077-000303     107641006001023593757GIFT-BAG PAPER MED     0000001000+00001651+00000+0001T   00001651+0000001111          1500 G15112               1 Z
107641004107641903-000070     107641006001704001106SWT TOFFEE CREAMY 35g  0000001000+00000738+00000+0001T   00000738+0000001111          1500 G15150               1 Z
107641005107641903-000843     107641008693029031067SWT GUMMY JELAXY 80G   0000001000+00001042+00000+0001T   00001042+0000001111          1500 G15150               1 Z
107642000107642               107642               170213SD     1500+00000+SD0000018694-0000018694-000000000+000002805-0000021500-0000000001+I20000000000+0000021500-Z
107642001107642301-001125     107642000694202803950ORN FOUNTAIN TOWER     0000001000-00018694+00000+0001T   00018694+0000001113          1500 G155053IC            1 Z
107643000107643               107643               170213SD     1500+00000+SD0000038586+0000038586+000000000+000005799+0000044385+0000000000+I40000044385+0000000000+Z
107643001107643107-004105     107643006009703860984BUCKET 9L OPEN         0000001000+00001390+00000+0001T   00001390+0000001126          1500 G15210               1 Z
107643002107643088-000112     107643006003000622221DEHUMIDIFIER CUPBOARD  0000010000+00002781+00000+0001T   00002781+0000001126          1500 G15212               1 Z
107643003107643027-000090     107643006001023588265WINDOW-CLEANER LONG-HND0000001000+00002781+00000+0001T   00002781+0000001126          1500 G15212               1 Z
107643004107643038-001805     107643006003000466405DOILIES PAPER 60PC 3ASS0000001000+00003303+00000+0001T   00003303+0000001126          1500 G15300               1 Z
107643005107643133-000018     107643006003000583218SWAB MICROFIBRE 30x30cm0000001000+00001912+00000+0001T   00001912+0000001126          1500 G15212               1 Z
107643006107643563-000317-B   107643006001023776174SERVIETTES PLN WHT PK400000001000+00001390+00000+0001T   00001390+0000001126          1500 G15214               1 Z
107644000107644               107644               170213SD     1500+00000+SD0000021465+0000021465+000000000+000003225+0000024690+0000000000+I40000024690+0000000000+Z
107644001107644903-005003     107644006002580020106SWT DINKY DUMMIES 5PK  0000001000+00001651+00000+0001T   00001651+0000001139          1500 G15150               1 Z
107644002107644089-000030     107644006003000575671K/CHAIN LOVE MTL ASSTD 0000001000+00001912+00000+0001T   00001912+0000001139          1500 G15205               1 Z
107644003107644903-002900     107644005996071650648QUICK MILK 5 CHOCO 5PC 0000001000+00001738+00000+0001T   00001738+0000001139          1500 G15150               1 Z
107644004107644566-000308     107644006003000522521STICKER TAPE 3PCS      0000001000+00002781+00000+0001T   00002781+0000001139          1500 G15130               1 Z
107644005107644566-000088     107644006003000383818SCRAPBOOK FLOCKED      0000001000+00000955+00000+0001T   00000955+0000001139          1500 G15130               1 Z
107644006107644566-000865     107644006001023788412STICKER ASSTD          0000001000+00001912+00000+0001T   00001912+0000001139          1500 G15130               1 Z
107644007107644024-000111     107644006001023504197ROASTER NON-STICK OBLNG0000001000+00007216+00000+0001T   00007216+0000001139          1500 G15300               1 Z
107644008107644903-000897     107644008692806325207SWT CHOC DBL MINI ROLL 0000002000+00000955+00000+0001T   00000955+0000001139          1500 G15150               1 Z
107644009107644903-000844     107644005010478432567SWT CANDY DL LUV HEARTS0000001000+00001390+00000+0001T   00001390+0000001139          1500 G15150               1 Z
107645000107645               107645               170213SD     1500+00000+SD0000006604+0000006604+000000000+000000991+0000007590+0000000005+I20000000000+0000007590+Z
107645001107645080-000139     107645006003000611690CARD & ENV MINI SET 6PC0000001000+00002346+00000+0001T   00002346+0000001145          1500 G15112               1 Z
107645002107645103-000030     107645006003000510085BASKET WOVE ROUND 17X170000001000+00001738+00000+0001T   00002260+0008271145          1500 G15300               1 Z
107645003107645103-000788     107645006001023896292WOVEN ROUND BASKET     0000001000+00002520+00000+0001T   00002520+0000001145          1500 G15300               1 Z
107646000107646               107646               170213SD     1500+00000+SD0000008040+0000008040+000000000+000001207+0000009240+0000000007+I20000000000+0000009240+Z
107646001107646019-000500-A   107646006003000245161VASE CER INSPIRATIONS  0000001000+00003477+00000+0001T   00003738+0008091147          1500 G15510               1 Z
107646002107646030-000039     107646006003000465873PLAQUE ORN SENTIMENT   0000001000+00003912+00000+0001T   00005477+0008201147          1500 G15505               1 Z
107646003107646077-000321     107646006001023677501GIFT-BAG 11X14CM E/D FL0000001000+00000651+00000+0001T   00000651+0000001147          1500 G15112               1 Z
107647000107647               107647               170213SD     1500+00000+SD0000007385+0000007385+000000000+000001110+0000008490+0000000005+I20000000000+0000008490+Z
107647001107647079-009702-B   107647008427973059491PAPER SIRIO A2 WHITE   0000001000+00001129+00000+0001T   00001129+0000001153          1500 G15130               1 Z
107647002107647079-009702-D   107647008427973059354PAPER SIRIO A2 RED COL 0000001000+00001129+00000+0001T   00001129+0000001153          1500 G15130               1 Z
107647003107647071-081104-A   107647006003000326662GLUE-STICK 8g CRD-OF-3 0000001000+00001303+00000+0001T   00001303+0000001153          1500 G15130               1 Z
107647004107647077-000291     107647006003000541874GIFT-BOX LOVE 12PCE    0000001000+00001912+00000+0001T   00001912+0000001153          1500 G15112               1 Z
107647005107647046-000014-A   107647004897006177708BATTERIES SIZE:AAA 8PCE0000001000+00001912+00000+0001T   00001912+0000001153          1500 G15312               1 Z
107648000107648               107648               170213SD     1500+00000+SD0000002346+0000002346+000000000+000000352+0000002690+0000000008+I20000000000+0000002690+Z
107648001107648084-000365     107648006001023731135MANICURE SET ASSORTED  0000001000+00002346+00000+0001T   00002346+0000001210          1500 G15200               1 Z
107649000107649               107649               170213SD     1500+00000+SD0000007040+0000007040+000000000+000001057+0000008090+0000000007+I20000000000+0000008090+Z
107649001107649089-000030     107649006003000575671K/CHAIN LOVE MTL ASSTD 0000001000+00001912+00000+0001T   00001912+0000001211          1500 G15205               1 Z
107649002107649018-000136     107649006001023659026MUG OCC LOVE W/PLUSH   0000001000+00003477+00000+0001T   00003738+0006481211          1500 G15515               1 Z
107649003107649077-000303     107649006001023593757GIFT-BAG PAPER MED     0000001000+00001651+00000+0001T   00001651+0000001211          1500 G15112               1 Z
107650000107650               107650               170213SD     1500+00000+SD0000004258+0000004258+000000000+000000639+0000004890+0000000007+I20000000000+0000004890+Z
107650001107650563-000317-K   107650006003000697885SERVIETTE 2PLY 33cm    0000001000+00001912+00000+0001T   00001912+0000001227          1500 G15214               1 Z
107650002107650563-000318-L   107650006003000407088SERVIETTES 33cm RED    0000001000+00002346+00000+0001T   00002346+0000001227          1500 G15214               1 Z
107651000107651               107651               170213SD     1500+00000+SD0000001912+0000001912+000000000+000000287+0000002190+0000000009+I20000000000+0000002190+Z
107651001107651362-003009     107651006003000295647HAIR BAND SET ASSORTED 0000001000+00001912+00000+0001T   00001912+0000001237          1500 G15160               1 Z
107652000107652               107652               170213SD     1500+00000+SD0000011386+0000011386+000000000+000001709+0000013090+0000000005+I20000000000+0000013090+Z
107652001107652563-000318-D   107652006003000404001SERVIETTES 33cm BLUE   0000001000+00002346+00000+0001T   00002346+0000001240          1500 G15214               1 Z
107652002107652150-001222     107652006001023495334PLATE-STAND TRANSPARENT0000001000+00001564+00000+0001T   00001564+0000001240          1500 G15810               1 Z
107652003107652133-000017     107652006003000525171CLEANING-CLOTHS 5PCE   0000002000+00003738+00000+0001T   00003738+0000001240          1500 G15212               1 Z
107653000107653               107653               170213SD     1500+00000+SD0000002519+0000002519+000000000+000000379+0000002890+0000000008+I20000000000+0000002890+Z
107653001107653903-000123     107653006925925909280SWEET GS MINI MALLOWS  0000001000+00000955+00000+0001T   00000955+0000001243          1500 G15150               1 Z
107653002107653077-000299     107653006003000395576G/BAG 32x25cm LRG LOVE 0000001000+00001564+00000+0001T   00001564+0000001243          1500 G15112               1 Z
107654000107654               107654               170213SD     1500+00000+SD0000011602+0000011602+000000000+000001742+0000013344+0000000000+I40000013344+0000000000+Z
107654001107654567-002724     107654006003000071371BOOK PROMO ASSTD CAT F 0000001000+00004346+00000+0001T   00006346+0008241247          1500 G15757               1 Z
107654002107654080-000133     107654006003000535613CARD&ENV MINI ASTD DSGN0000001000+00000477+00000+0001T   00000477+0000001247          1500 G15112               1 Z
107654003107654077-000299     107654006003000395576G/BAG 32x25cm LRG LOVE 0000001000+00001564+00000+0001T   00001564+0000001247          1500 G15112               1 Z
107654004107654105-001005     107654006001023858214CONTAINERS MINI 6PCE   0000001000+00001477+00000+0001T   00001477+0000001247          1500 G15210               1 Z
107654005107654567-011433     107654009780600623236BOOK HAMLYN 20-MINUTE  0000001000+00003738+00000+0001T   00003738+0000001247          1500 G15757               1 Z
107655000107655               107655               170213SD     1500+00000+SD0000020860+0000020860+000000000+000003132+0000023992+0000000000+I40000023992+0000000000+Z
107655001107655206-000110     107655006003000628186CHOPSTICKS PLASTIC KIDS0000002000+00002781+00000+0001T   00002781+0000001250          1500 G15321               1 Z
107655002107655142-000814     107655006001023183910GLOVES RUBBER  MEDIUM  0000002000+00001912+00000+0001T   00001912+0000001250          1500 G15810               1 Z
107655003107655204-000030     107655006003000683536MEMO HOLDER SAYINGS    0000001000+00003738+00000+0001T   00003738+0000001250          1500 G15300               1 Z
107655004107655903-002900     107655005996071650648QUICK MILK 5 CHOCO 5PC 0000001000+00001738+00000+0001T   00001738+0000001250          1500 G15150               1 Z
107655005107655903-000090     107655006009826020821SWT GS CHOCO COINS 60g 0000001000+00002260+00000+0001T   00002260+0000001250          1500 G15150               1 Z
107655006107655071-005060     107655006003000152186CELLOTAPE 2PACK INVSBLE0000001000+00003738+00000+0001T   00003738+0000001250          1500 G15130               1 Z
107656000107656               107656               170213SD     1500+00000+SD0000002260+0000002260+000000000+000000339+0000002590+0000000009+I20000000000+0000002590+Z
107656001107656566-000068     107656006003000418046POP UP LOVE 2 ASSTD    0000001000+00002260+00000+0001T   00002260+0000001251          1500 G15130               1 Z
107657000107657               107657               170213SD     1500+00000+SD0000002781+0000002781+000000000+000000418+0000003190+0000000009+I20000000000+0000003190+Z
107657001107657463-000366     107657006001023789136SWIM W/NOODLE 150cm    0000001000+00002781+00000+0001T   00002781+0000001256          1500 G15785               1 Z
107658000107658               107658               170213SD     1500+00000+SD0000014037+0000014037+000000000+000002108+0000016140+0000000005+I20000000000+0000016140+Z
107658001107658012-000003     107658006003000331192 MICROWAVE CORN STEAMER0000001000+00004607+00000+0001T   00004607+0000001257          1500 G15300               1 Z
107658002107658565-000044     107658006003000128280BARREL OF SLIME 100g   0000001000+00000651+00000+0001T   00000651+0000001257          1500 G15745               1 Z
107658003107658464-009009     107658006003000647552FISHING DUCKS MAGNETIC 0000001000+00003129+00000+0001T   00003129+0000001257          1500 G15785               1 Z
107658004107658079-011526     107658006003000408375GLITTER & SAND ART     0000001000+00003738+00000+0001T   00003738+0000001257          1500 G15130               1 Z
107658005107658566-000865     107658006001023788412STICKER ASSTD          0000001000+00001912+00000+0001T   00001912+0000001257          1500 G15130               1 Z
107659000107659               107659               170213SD     1500+00000+SD0000000955+0000000955+000000000+000000144+0000001090+0000000009+I20000000000+0000001090+Z
107659001107659075-000359     107659006003000507450PURSE LADIES COIN ASTD 0000001000+00000955+00000+0001T   00000955+0000001259          1500 G15160               1 Z
107660000107660               107660               170213SD     1500+00000+SD0000002867+0000002867+000000000+000000431+0000003290+0000000008+I20000000000+0000003290+Z
107660002107660903-003050     107660008024431008239SWT CHOC CONE H/NUT 25G0000001000+00000955+00000+0001T   00000955+0000001307          1500 G15150               1 Z
107660003107660089-000030     107660006003000575671K/CHAIN LOVE MTL ASSTD 0000001000+00001912+00000+0001T   00001912+0000001307          1500 G15205               1 Z
107661000107661               107661               170213SD     1500+00000+SD0000000955+0000000955+000000000+000000144+0000001090+0000000009+I20000000000+0000001090+Z
107661001107661078-000025     107661008887013700064SUPERGLUE 3g 1PCE CARD 0000001000+00000955+00000+0001T   00000955+0000001309          1500 G15810               1 Z
107662000107662               107662               170213SD     1500+00000+SD0000018866+0000018866+000000000+000002831+0000021697+0000000000+I40000021697+0000000000+Z
107662001107662007-010501     107662006003000455157WIPE & CHALK 45X35CM   0000001000+00009564+00000+0001T   00009564+0000001339          1500 G15130               1 Z
107662002107662562-000001     107662006009801541556MARLIN PLASTIC ABACUS  0000001000+00005564+00000+0001T   00005564+0000001339          1500 G15755               1 Z
107662003107662071-001008     107662006003000222780MAKER WHITEBOARD MAGNET0000001000+00003738+00000+0001T   00003738+0000001339          1500 G15130               1 Z
107663000107663               107663               170213SD     1500+00000+SD0000001352+0000001352+000000000+000000204+0000001550+0000000006+I20000000000+0000001550+Z
107663001107663007-000123     107663006003000533879BOOK COVER 450mmx1.5m  0000004000+00000338+00000+0001T   00000338+0000001341          1500 G15130               1 Z
107664000107664               107664               170213SD     1500+00000+SD0000005908+0000005908+000000000+000000888+0000006790+0000000006+I20000000000+0000006790+Z
107664001107664903-000077     107664006939873501687SWT GS MAGIC ROCK FRUIT0000001000+00000564+00000+0001T   00000564+0000001343          1500 G15150               1 Z
107664002107664058-008268     107664006003000527939HAMMER RUBBER MALLET   0000001000+00001912+00000+0001T   00001912+0000001343          1500 G15840               1 Z
107664003107664903-000216     107664006925925900966SWT MALLOW TWIST ERKO  0000012000+00000286+00000+0001T   00000286+0000001343          1500 G15150               1 Z
107665000107665               107665               170213SD     1500+00000+SD0000051982+0000051982+000000000+000007805+0000059787+0000000000+I40000059787+0000000000+Z
107665001107665036-000014     107665006001246500822LINT REMOVER 40x SHEET 0000001000+00003999+00000+0001T   00003999+0000001413          1500 G15212               1 Z
107665002107665027-783000     107665006001023874641SCOURERS RAINBOW 5PCE  0000001000+00001912+00000+0001T   00001912+0000001413          1500 G15212               1 Z
107665003107665133-000017     107665006003000525171CLEANING-CLOTHS 5PCE   0000001000+00003738+00000+0001T   00003738+0000001413          1500 G15212               1 Z
107665004107665027-783006     107665006003000060719SCOURERS SPONGE        0000001000+00000955+00000+0001T   00000955+0000001413          1500 G15212               1 Z
107665005107665036-000605     107665006001023158611WASHING-PEGS WDN PCK-240000002000+00001564+00000+0001T   00001564+0000001413          1500 G15212               1 Z
107665006107665203-003072     107665006001023888884C/SCREW DBL LEVR PL BLK0000001000+00002781+00000+0001T   00002781+0000001413          1500 G15300               1 Z
107665007107665105-002013     107665006002580008494CONTAINER SET 18PCE    0000001000+00007216+00000+0001T   00007216+0000001413          1500 G15210               1 Z
107665008107665027-009025     107665006003962000747DUSTPAN-SET PL         0000001000+00002781+00000+0001T   00002781+0000001413          1500 G15212               1 Z
107665009107665002-001216     107665006001023202888BASTER ALUM HILLHOUSE  0000001000+00002607+00000+0001T   00003129+0008201413          1500 G15300               1 Z
107665010107665301-001125     107665000694202803950ORN FOUNTAIN TOWER     0000001000+00018694+00000+0001T   00018694+0000001413          1500 G15505               1 Z
107665011107665002-000327     107665006001023381866I/CREAM-SCOOP ASSTD    0000001000+00002781+00000+0001T   00002781+0000001413          1500 G15300               1 Z
107665012107665046-000012     107665006904708013062BATTERIES AA  CARD-OF-40000001000+00001390+00000+0001T   00001390+0000001413          1500 G15312               1 Z
107666000107666               107666               170213SD     1500+00000+SD0000002258+0000002258+000000000+000000340+0000002590+0000000008+I20000000000+0000002590+Z
107666001107666079-009702-B   107666008427973059491PAPER SIRIO A2 WHITE   0000002000+00001129+00000+0001T   00001129+0000001446          1500 G15130               1 Z
107667000107667               107667               170213SD     1500+00000+SD0000002781+0000002781+000000000+000000418+0000003190+0000000009+I20000000000+0000003190+Z
107667001107667159-000020     107667006001023905543HAIR DRYING MICROFIBRE 0000001000+00002781+00000+0001T   00002781+0000001452          1500 G15200               1 Z
107668000107668               107668               170213SD     1500+00000+SD0000006519+0000006519+000000000+000000979+0000007490+0000000008+I20000000000+0000007490+Z
107668001107668001-000175     107668006001023788108B/MUG GLS LOVE 380ML   0000001000+00004607+00000+0001T   00004607+0000001503          1500 G15515               1 Z
107668002107668903-000619     107668006003000672455SWT LOLLY STR/BRRY 140G0000001000+00001912+00000+0001T   00001912+0000001503          1500 G15150               1 Z
107669000107669               107669               170213SD     1500+00000+SD0000026952+0000026952+000000000+000004044+0000030996+0000000000+I40000030996+0000000000+Z
107669001107669072-020244     107669000694202207840PET BED COTTON 90x70cm 0000001000+00018694+00000+0001T   00018694+0000001508          1500 G15870               1 Z
107669002107669903-000619     107669006003000672455SWT LOLLY STR/BRRY 140G0000001000+00001912+00000+0001T   00001912+0000001508          1500 G15150               1 Z
107669003107669018-050000     107669006003000412679MUG OCC LOVE TWIN BEAR 0000001000+00006346+00000+0001T   00006346+0000001508          1500 G15515               1 Z
107670000107670               107670               170213SD     1500+00000+SD0000001651+0000001651+000000000+000000248+0000001890+0000000009+I20000000000+0000001890+Z
107670001107670077-000303     107670006001023593757GIFT-BAG PAPER MED     0000001000+00001651+00000+0001T   00001651+0000001509          1500 G15112               1 Z
107671000107671               107671               170213SD     1500+00000+SD0000005564+0000005564+000000000+000000835+0000006390+0000000009+I20000000000+0000006390+Z
107671001107671140-005093     107671006003000331338INSECT-KILL RAQT-SHAPED0000001000+00005564+00000+0001T   00005564+0000001509          1500 G15830               1 Z
107672000107672               107672               170213SD     1500+00000+SD0000006603+0000006603+000000000+000000993+0000007590+0000000006+I20000000000+0000007590+Z
107672001107672080-000124     107672006003000297733CARD & ENV VALENTINES  0000001000+00001564+00000+0001T   00001651+0006481513          1500 G15112               1 Z
107672002107672304-001011     107672006001023806727FLWR ROSE RED W/BEAR   0000001000+00000607+00000+0001T   00000825+0006481513          1500 G15510               1 Z
107672003107672018-000129     107672006001023403353MUG OCC. LOVE V-SHAPE  0000001000+00002781+00000+0001T   00002781+0000001513          1500 G15515               1 Z
107672004107672077-000303     107672006001023593757GIFT-BAG PAPER MED     0000001000+00001651+00000+0001T   00001651+0000001513          1500 G15112               1 Z
107673000107673               107673               170213SD     1500+00000+SD0000002865+0000002865+000000000+000000432+0000003290+0000000007+I20000000000+0000003290+Z
107673001107673903-000897     107673008692806325207SWT CHOC DBL MINI ROLL 0000003000+00000955+00000+0001T   00000955+0000001515          1500 G15150               1 Z
107674000107674               107674               170213SD     1500+00000+SD0000005212+0000005212+000000000+000000784+0000005990+0000000006+I20000000000+0000005990+Z
107674001107674903-002853     107674000000087108019MENTOS ROLL MINT       0000001000+00001129+00000+0001T   00001129+0000001523          1500 G15150               1 Z
107674002107674903-000211     107674006002099001238SWT GS MALLOW ICE CREAM0000001000+00001912+00000+0001T   00001912+0000001523          1500 G15150               1 Z
107674003107674903-000897     107674008692806325207SWT CHOC DBL MINI ROLL 0000001000+00000955+00000+0001T   00000955+0000001523          1500 G15150               1 Z
107674004107674903-000710     107674006002099007056SWT REFRESHERS MINT    0000001000+00001216+00000+0001T   00001216+0000001523          1500 G15150               1 Z
107675000107675               107675               170213SD     1500+00000+SD0000001914+0000001914+000000000+000000287+0000002200+0000000001+I20000000000+0000002200+Z
107675001107675361-009104     107675006001023619365DOLL ACCESSORY STROLLER0000001000-00007216+00000+0001T   00007216+0000001550          1500 G157253IC            1 Z
107675002107675361-000116     107675006001023793768DOLL 70cm FASHION      0000001000-00009564+00000+0001T   00009564+0000001550          1500 G157253IC            1 Z
107675003107675361-000663     107675006001023747884DOLLS 26CM TWINS SOFT  0000001000+00018694+00000+0001T   00018694+0000001550          1500 G15725               1 Z
107676000107676               107676               170213SD     1500+00000+SD0000023375+0000023375+000000000+000003511+0000026880+0000000006+I20000000000+0000026880+Z
107676001107676079-013109     107676006003000078912ART+CFT N/POINT 33X22CM0000001000+00004607+00000+0001T   00004607+0000001553          1500 G15130               1 Z
107676002107676079-006522     107676006001023149442ART+CRAFT GLUE ASSORTED0000001000+00001912+00000+0001T   00001912+0000001553          1500 G15130               1 Z
107676003107676079-013102     107676006003000019601ART+CRAFT DIY PIPE-CLNR0000001000+00002346+00000+0001T   00002346+0000001553          1500 G15130               1 Z
107676004107676200-000002     107676006925406821049BAG FLIP TOP 80PCE     0000001000+00002346+00000+0001T   00002346+0000001553          1500 G15214               1 Z
107676005107676562-000520     107676006003000112777EDU BLOCKS WDN ALPHABET0000001000+00003738+00000+0001T   00003738+0000001553          1500 G15755               1 Z
107676006107676079-013099     107676006003000081875ART+CRAFT EYES ASSTD   0000001000+00001912+00000+0001T   00001912+0000001553          1500 G15130               1 Z
107676007107676079-000802     107676006001023528902ART+CRAFT STICKS 100PCE0000001000+00002607+00000+0001T   00002607+0000001553          1500 G15130               1 Z
107676008107676039-000319-1   107676006003000442386B/CANDLES LRG NUMBER-1 0000001000+00000955+00000+0001T   00000955+0000001553          1500 G15510               1 Z
107676009107676564-000012     107676006001023130075BUBBLE BOTTLE MAGIC    0000004000+00000738+00000+0001T   00000738+0000001553          1500 G15131               1 Z
107677000107677               107677               170213SD     1500+00000+SD0000021249+0000021249+000000000+000003191+0000024440+0000000000+I40000024440+0000000000+Z
107677001107677079-006493     107677006003000612086GLITTER GLUE 125g ASSTD0000001000+00002260+00000+0001T   00002260+0000001602          1500 G15130               1 Z
107677002107677007-000166     107677006009685857316SPIRAL NOTES A6 100PG  0000001000+00000738+00000+0001T   00000738+0000001602          1500 G15130               1 Z
107677003107677903-000095     107677006001704011495SWT SPECKLED-EGGS 100G 0000001000+00002173+00000+0001T   00002173+0000001602          1500 G15150               1 Z
107677004107677301-085008     107677006003000673933ORN OCC.LOVE TINSEL HRT0000001000+00003303+00000+0001T   00003303+0000001602          1500 G15505               1 Z
107677005107677079-013032-H   107677006003000496501GLITTER PRINCESS ACC   0000001000+00002781+00000+0001T   00002781+0000001602          1500 G15130               1 Z
107677006107677077-000358     107677006003000329977GIFT-BAG KIDS 25X32CM  0000001000+00001912+00000+0001T   00001912+0000001602          1500 G15112               1 Z
107677007107677046-000014     107677006001023725387BATTERIES SIZE:AAA 4PCE0000001000+00001216+00000+0001T   00001216+0000001602          1500 G15312               1 Z
107677008107677048-000859     107677006003000423422TORCH 9 LED PL 3XAAA   0000001000+00001912+00000+0001T   00001912+0000001602          1500 G15305               1 Z
107677009107677089-000092     107677006003000457649K/CHAIN BOTTLE OPENER  0000001000+00003738+00000+0001T   00003738+0000001602          1500 G15205               1 Z
107677010107677903-000087     107677006001704000161SWT SPECKLED-EGGS 50G  0000001000+00001216+00000+0001T   00001216+0000001602          1500 G15150               1 Z
107678000107678               107678               170213SD     1500+00000+SD0000013907+0000013907+000000000+000002088+0000015995+0000000000+I40000015995+0000000000+Z
107678001107678018-019000     107678006003000557288MUG OCC. LOVE JUMBO    0000001000+00005564+00000+0001T   00005564+0000001603          1500 G15515               1 Z
107678002107678018-000130     107678006001023867537MUG OCC LOVE MINI+HEART0000001000+00003738+00000+0001T   00003738+0000001603          1500 G15515               1 Z
107678003107678089-000098     107678006003000677443KEY CHAIN OPENER ASSTD 0000001000+00001390+00000+0001T   00001390+0000001603          1500 G15205               1 Z
107678004107678077-000303     107678006001023593757GIFT-BAG PAPER MED     0000001000+00001651+00000+0001T   00001651+0000001603          1500 G15112               1 Z
107678005107678077-000299     107678006003000395576G/BAG 32x25cm LRG LOVE 0000001000+00001564+00000+0001T   00001564+0000001603          1500 G15112               1 Z
107679000107679               107679               170213SD     1500+00000+SD0000016899+0000016899+000000000+000002539+0000019430+0000000008+I20000000000+0000019430+Z
107679001107679200-000060     107679006001023625762STRAWS 18cm FLEX 200PCE0000001000+00002520+00000+0001T   00002520+0000001604          1500 G15214               1 Z
107679002107679079-013099     107679006003000081875ART+CRAFT EYES ASSTD   0000003000+00001912+00000+0001T   00001912+0000001604          1500 G15130               1 Z
107679003107679079-013032-G   107679006003000496389FOAM BUTTERFLIES       0000001000+00002346+00000+0001T   00002346+0000001604          1500 G15130               1 Z
107679004107679079-014153     107679006003000253166ART+CRAFT DRAGON PK6   0000001000+00002781+00000+0001T   00002781+0000001604          1500 G15130               1 Z
107679005107679566-000200     107679006003000384174STICKER PUFFY NEON     0000001000+00000955+00000+0001T   00000955+0000001604          1500 G15130               1 Z
107679006107679566-000018     107679006001023995018S/BOOK H/MADE STICKER  0000001000+00000955+00000+0001T   00000955+0000001604          1500 G15130               1 Z
107679007107679200-000130     107679006001023645067DESSERT-SPOONS 10PCE   0000001000+00000651+00000+0001T   00000651+0000001604          1500 G15214               1 Z
107679008107679903-000861     107679005010478430822SWT LOVE HEARTS SML    0000001000+00000955+00000+0001T   00000955+0000001604          1500 G15150               1 Z
107680000107680               107680               170213SD     1500+00000+SD0000020514+0000020514+000000000+000003080+0000023594+0000000000+I40000023594+0000000000+Z
107680001107680562-000069     107680006003000652044EDU PLAY DOUGH SET     0000002000+00003738+00000+0001T   00003738+0000001608          1500 G15755               1 Z
107680002107680567-010159     107680006003000484881BOOK TOP ASSTD CHILDREN0000001000+00003738+00000+0001T   00003738+0000001608          1500 G15757               1 Z
107680003107680361-003020     107680006003000635719DOLL DRESS UP 2 ASSTD  0000001000+00002781+00000+0001T   00002781+0000001608          1500 G15725               1 Z
107680004107680204-000105     107680006001023722119MEMO-HOLDER WORDS 101PC0000001000+00003738+00000+0001T   00003738+0000001608          1500 G15300               1 Z
107680005107680361-003020     107680006003000635719DOLL DRESS UP 2 ASSTD  0000001000+00002781+00000+0001T   00002781+0000001608          1500 G15725               1 Z
107681000107681               107681               170213SD     1500+00000+SD0000007474+0000007474+000000000+000001123+0000008590+0000000007+I20000000000+0000008590+Z
107681001107681018-000129     107681006001023403353MUG OCC. LOVE V-SHAPE  0000001000+00002781+00000+0001T   00002781+0000001609          1500 G15515               1 Z
107681002107681089-000030     107681006003000575671K/CHAIN LOVE MTL ASSTD 0000001000+00001912+00000+0001T   00001912+0000001609          1500 G15205               1 Z
107681003107681018-000129     107681006001023403353MUG OCC. LOVE V-SHAPE  0000001000+00002781+00000+0001T   00002781+0000001609          1500 G15515               1 Z
107682000107682               107682               170213SD     1500+00000+SD0000004172+0000004172+000000000+000000626+0000004790+0000000008+I20000000000+0000004790+Z
107682001107682089-000030     107682006003000575671K/CHAIN LOVE MTL ASSTD 0000001000+00001912+00000+0001T   00001912+0000001611          1500 G15205               1 Z
107682002107682024-091103     107682006003453014307BAKING-CUP MUFFIN 50PCE0000001000+00002260+00000+0001T   00002260+0000001611          1500 G15300               1 Z
107683000107683               107683               170213SD     1500+00000+SD0000001390+0000001390+000000000+000000209+0000001590+0000000009+I20000000000+0000001590+Z
107683001107683007-000136     107683008427973108267BOOK COVER ROLL ASSTD  0000001000+00001390+00000+0001T   00001390+0000001612          1500 G15130               1 Z
107684000107684               107684               170213SD     1500+00000+SD0000024245+0000024245+000000000+000003639+0000027880+0000000004+I20000000000+0000027880+Z
107684001107684903-000095     107684006001704011495SWT SPECKLED-EGGS 100G 0000002000+00002173+00000+0001T   00002173+0000001618          1500 G15150               1 Z
107684002107684077-000300     107684006001023483249GIFT BOX OCCASIONS HEXG0000002000+00002346+00000+0001T   00002346+0000001618          1500 G15112               1 Z
107684003107684077-000297     107684006001023869814GIFT BOX OCCASIONS SQRE0000002000+00001912+00000+0001T   00001912+0000001618          1500 G15112               1 Z
107684004107684077-000300     107684006001023483249GIFT BOX OCCASIONS HEXG0000002000+00002346+00000+0001T   00002346+0000001618          1500 G15112               1 Z
107684005107684077-000297     107684006001023869814GIFT BOX OCCASIONS SQRE0000001000+00001912+00000+0001T   00001912+0000001618          1500 G15112               1 Z
107684006107684077-000239     107684006003000160419GIFT-RIBBON ROLL PEARL 0000001000+00001912+00000+0001T   00001912+0000001618          1500 G15112               1 Z
107684007107684903-000123     107684006925925909280SWEET GS MINI MALLOWS  0000001000+00000955+00000+0001T   00000955+0000001618          1500 G15150               1 Z
107684008107684079-006496     107684006003000160105GLITTER SHAKERS        0000001000+00001912+00000+0001T   00001912+0000001618          1500 G15130               1 Z
107685000107685               107685               170213SD     1500+00000+SD0000018429+0000018429+000000000+000002766+0000021195+0000000000+I40000021195+0000000000+Z
107685001107685368-000171     107685006003000233250PLUSH BEAR 14cm        0000001000+00005477+00000+0001T   00005477+0000001622          1500 G15745               1 Z
107685002107685368-000175     107685006003000270316PLUSH BEAR 4 ASSTD 18CM0000001000+00006346+00000+0001T   00006346+0000001622          1500 G15745               1 Z
107685003107685072-020352     107685006003000561667DOG/CAT BOWL PL 19cm   0000002000+00003303+00000+0001T   00003303+0000001622          1500 G15870               1 Z
107686000107686               107686               170213SD     1500+00000+SD0000000781+0000000781+000000000+000000118+0000000890+0000000009+I20000000000+0000000890+Z
107686001107686903-000200     107686006009826020234SWT CHOC RP CHOCO 23G  0000001000+00000781+00000+0001T   00000825+0006481623          1500 G15150               1 Z
107687000107687               107687               170213SD     1500+00000+SD0000006346+0000006346+000000000+000000952+0000007290+0000000008+I20000000000+0000007290+Z
107687001107687018-050000     107687006003000412679MUG OCC LOVE TWIN BEAR 0000001000+00006346+00000+0001T   00006346+0000001629          1500 G15515               1 Z
107688000107688               107688               170213SD     1500+00000+SD0000002608-0000002608-000000000+000000391-0000003000-0000000001+I20000000000+0000003000-Z
107688001107688018-050000     107688006003000412679MUG OCC LOVE TWIN BEAR 0000001000-00006346+00000+0001T   00006346+0000001631          1500 G155153IC            1 Z
107688002107688018-005009     107688006001023725608MUG W/PLUSH-BEAR LOVE  0000001000+00003738+00000+0001T   00003738+0000001631          1500 G15515               1 Z
107689000107689               107689               170213SD     1500+00000+SD0000008431+0000008431+000000000+000001266+0000009690+0000000007+I20000000000+0000009690+Z
107689001107689018-030000     107689006003000421060MUG OCCASIONS LOVE 2PCE0000001000+00004607+00000+0001T   00004607+0000001633          1500 G15515               1 Z
107689002107689006-000120     107689006001023346889BALLOONS 10PC MIX COL  0000002000+00001912+00000+0001T   00001912+0000001633          1500 G15131               1 Z
107690000107690               107690               170213SD     1500+00000+SD0000006258+0000006258+000000000+000000939+0000007190+0000000007+I20000000000+0000007190+Z
107690001107690264-000921     107690000090159150442MAISTO CAR 3" FRESH    0000001000+00001912+00000+0001T   00001912+0000001645          1500 G15710               1 Z
107690002107690264-000925-351 107690006003000642205BURAGO 1:64 FERRARI    0000001000+00004346+00000+0001T   00006346+0008241645          1500 G15710               1 Z
107691000107691               107691               170213SD     1500+00000+SD0000001912+0000001912+000000000+000000287+0000002190+0000000009+I20000000000+0000002190+Z
107691001107691089-000004     107691006003000137749KEY CHAIN MTL CHARMS   0000001000+00001912+00000+0001T   00001912+0000001647          1500 G15205               1 Z
107692000107692               107692               170213SD     1500+00000+SD0000000651+0000000651+000000000+000000098+0000000740+0000000009+I20000000000+0000000740+Z
107692001107692077-000311     107692006001023608666GIFT-BAG 11X14CM GLOSS 0000001000+00000651+00000+0001T   00000651+0000001648          1500 G15112               1 Z
107693000107693               107693               170213SD     1500+00000+SD0000001129+0000001129+000000000+000000170+0000001290+0000000009+I20000000000+0000001290+Z
107693001107693079-009702-D   107693006003000546671PAPER SIRIO A2 RED COL 0000001000+00001129+00000+0001T   00001129+0000001707          1500 G15130               1 Z
107694000107694               107694               170213SD     1500+00000+SD0000008734+0000008734+000000000+000001312+0000010040+0000000006+I20000000000+0000010040+Z
107694001107694903-000920     107694000041396002155SWT CANDY STICK/TATT   0000001000+00000738+00000+0001T   00000738+0000001709          1500 G15150               1 Z
107694002107694903-000843     107694008693029031067SWT GUMMY JELAXY 80G   0000001000+00001042+00000+0001T   00001042+0000001709          1500 G15150               1 Z
107694003107694903-000844     107694005010478432567SWT CANDY DL LUV HEARTS0000001000+00001390+00000+0001T   00001390+0000001709          1500 G15150               1 Z
107694004107694103-000474     107694006003000630363BAMBOO FLOWER BASKET   0000001000+00005564+00000+0001T   00005564+0000001709          1500 G15300               1 Z
107695000107695               107695               170213SD     1500+00000+SD0000003823+0000003823+000000000+000000575+0000004398+0000000000+I40000004398+0000000000+Z
107695001107695903-000843     107695008693029031067SWT GUMMY JELAXY 80G   0000001000+00001042+00000+0001T   00001042+0000001711          1500 G15150               1 Z
107695002107695080-000132     107695006003000523436CARD&ENV FATHERS DAY   0000001000+00002781+00000+0001T   00002781+0000001711          1500 G15112               1 Z
107696000107696               107696               170213SD     1500+00000+SD0000004519+0000004519+000000000+000000679+0000005190+0000000008+I20000000000+0000005190+Z
107696001107696089-000030     107696006003000575671K/CHAIN LOVE MTL ASSTD 0000001000+00001912+00000+0001T   00001912+0000001712          1500 G15205               1 Z
107696002107696002-001216     107696006001023202888BASTER ALUM HILLHOUSE  0000001000+00002607+00000+0001T   00003129+0008201712          1500 G15300               1 Z
107697000107697               107697               170213SD     1500+00000+SD0000013553+0000013553+000000000+000002037+0000015590+0000000000+I20000000000+0000015590+Z
107697001107697077-000150-D   107697006003000054343GIFT-WRAP CELLPHANE CLR0000001000+00000955+00000+0001T   00000955+0000001718          1500 G15112               1 Z
107697002107697089-000098     107697006003000677443KEY CHAIN OPENER ASSTD 0000001000+00001390+00000+0001T   00001390+0000001718          1500 G15205               1 Z
107697003107697077-000297     107697006001023869814GIFT BOX OCCASIONS SQRE0000001000+00001912+00000+0001T   00001912+0000001718          1500 G15112               1 Z
107697004107697077-000245     107697006001023759214GIFT-RIBBON METALLICx2 0000001000+00001303+00000+0001T   00001303+0000001718          1500 G15112               1 Z
107697005107697007-000566     107697006003000640898NOVELTY PHONE NOTE-PAD 0000001000+00001564+00000+0001T   00001564+0000001718          1500 G15130               1 Z
107697006107697301-000015     107697006001023479907ORN SENTIMENT STONE    0000001000+00004607+00000+0001T   00004607+0000001718          1500 G15505               1 Z
107697007107697079-009700-C   107697006003000545636PAPER SIRIO A4 VIOLET  0000001000+00000346+00000+0001T   00000346+0000001718          1500 G15130               1 Z
107697008107697018-000177     107697006001023797513MUG MINI LOVE ASSTD    0000002000+00000738+00000+0001T   00000738+0000001718          1500 G15515               1 Z
107698000107698               107698               170213SD     1500+00000+SD0000001692+0000001692+000000000+000000255+0000001940+0000000007+I20000000000+0000001940+Z
107698001107698903-000151     107698006009803374411SWT SML RND R/BOW LOLLY0000003000+00000564+00000+0001T   00000564+0000001719          1500 G15150               1 Z
107699000107699               107699               170213SD     1500+00000+SD0000000564+0000000564+000000000+000000085+0000000640+0000000009+I20000000000+0000000640+Z
107699001107699903-000151     107699006009803374411SWT SML RND R/BOW LOLLY0000001000+00000564+00000+0001T   00000564+0000001721          1500 G15150               1 Z
107700000107700               107700               170213SD     1500+00000+SD0000006170+0000006170+000000000+000000927+0000007090+0000000007+I20000000000+0000007090+Z
107700001107700079-009702-B   107700008427973059491PAPER SIRIO A2 WHITE   0000001000+00001129+00000+0001T   00001129+0000001724          1500 G15130               1 Z
107700002107700077-000299     107700006003000395576G/BAG 32x25cm LRG LOVE 0000001000+00001564+00000+0001T   00001564+0000001724          1500 G15112               1 Z
107700003107700018-000136     107700006001023659026MUG OCC LOVE W/PLUSH   0000001000+00003477+00000+0001T   00003738+0006481724          1500 G15515               1 Z
107701000107701               107701               170213SD     1500+00000+SD0000001390+0000001390+000000000+000000209+0000001590+0000000009+I20000000000+0000001590+Z
107701001107701304-001204     107701006001023737984FLOWER OCC. TEDDY/ROSES0000001000+00001390+00000+0001T   00001564+0006481728          1500 G15510               1 Z
107702000107702               107702               170213SD     1500+00000+SD0000003824+0000003824+000000000+000000574+0000004390+0000000008+I20000000000+0000004390+Z
107702001107702006-000120     107702006001023346889BALLOONS 10PC MIX COL  0000001000+00001912+00000+0001T   00001912+0000001730          1500 G15131               1 Z
107702002107702006-000804     107702006003000574445STREAMERS 6-ROLLS 2.5cm0000001000+00001912+00000+0001T   00001912+0000001730          1500 G15131               1 Z
107703000107703               107703               170213SD     1500+00000+SD0000007215+0000007215+000000000+000001083+0000008298+0000000000+I40000008298+0000000000+Z
107703001107703018-000136     107703006001023659026MUG OCC LOVE W/PLUSH   0000001000+00003477+00000+0001T   00003738+0006481735          1500 G15515               1 Z
107703002107703103-000090     107703006001023795786WOVEN HEART SHAPED     0000001000+00003738+00000+0001T   00003738+0000001735          1500 G15300               1 Z
107704000107704               107704               170213SD     1500+00000+SD0000000868+0000000868+000000000+000000131+0000000990+0000000009+I20000000000+0000000990+Z
107704001107704077-000010-C   107704006001023123879CREPE-PAPER RED        0000001000+00000868+00000+0001T   00000868+0000001735          1500 G15112               1 Z
107705000107705               107705               170213SD     1500+00000+SD0000001651+0000001651+000000000+000000248+0000001890+0000000009+I20000000000+0000001890+Z
107705001107705077-000303     107705006001023593757GIFT-BAG PAPER MED     0000001000+00001651+00000+0001T   00001651+0000001736          1500 G15112               1 Z
107706000107706               107706               170213SD     1500+00000+SD0000013810+0000013810+000000000+000002075+0000015880+0000000005+I20000000000+0000015880+Z
107706001107706018-000177     107706006001023797513MUG MINI LOVE ASSTD    0000010000+00000738+00000+0001T   00000738+0000001744          1500 G15515               1 Z
107706002107706162-096648     107706006001492966489#TAG KIDS WRISTWEAR    0000001000+00001738+00000+0001T   00002781+0008271744          1500 G15160               1 Z
107706003107706301-085000     107706006003000674299 ORN OCC. LOVE HEARTS  0000001000+00002346+00000+0001T   00002346+0000001744          1500 G15505               1 Z
107706004107706018-000170     107706006001023775528MUG OCC. LOVE 2PC MINI 0000001000+00002346+00000+0001T   00002346+0000001744          1500 G15515               1 Z
107707000107707               107707               170213SD     1500+00000+SD0000004432+0000004432+000000000+000000666+0000005098+0000000000+I40000005098+0000000000+Z
107707001107707903-000123     107707006925925909280SWEET GS MINI MALLOWS  0000001000+00000955+00000+0001T   00000955+0000001748          1500 G15150               1 Z
107707002107707018-000136     107707006001023659026MUG OCC LOVE W/PLUSH   0000001000+00003477+00000+0001T   00003738+0006481748          1500 G15515               1 Z
107708000107708               107708               170213SD     1500+00000+SD0000004692+0000004692+000000000+000000704+0000005390+0000000006+I20000000000+0000005390+Z
107708001107708077-000926     107708006003000414178G/WRAP 700mmx2m LOVE   0000002000+00002346+00000+0001T   00002346+0000001749          1500 G15112               1 Z
107709000107709               107709               170213SD     1500+00000+SD0000008603+0000008603+000000000+000001293+0000009890+0000000006+I20000000000+0000009890+Z
107709001107709079-000275     107709006003000160488PAINT-BRUSHES 6PCE PRO 0000001000+00001912+00000+0001T   00001912+0000001752          1500 G15130               1 Z
107709002107709079-000282     107709006001023493309PAINT TUBS POSTER 12COL0000002000+00002781+00000+0001T   00002781+0000001752          1500 G15130               1 Z
107709003107709079-009702-B   107709008427973059491PAPER SIRIO A2 WHITE   0000001000+00001129+00000+0001T   00001129+0000001752          1500 G15130               1 Z
107710000107710               107710               170213SD     1500+00000+SD0000009818+0000009818+000000000+000001476+0000011294+0000000000+I40000011294+0000000000+Z
107710001107710903-000077     107710006939873501687SWT GS MAGIC ROCK FRUIT0000002000+00000564+00000+0001T   00000564+0000001802          1500 G15150               1 Z
107710002107710903-000898     107710006922516801503SWT POPPING CANDY      0000001000+00001216+00000+0001T   00001216+0000001802          1500 G15150               1 Z
107710003107710056-005752     107710006003000491674CAR AIR-FRESH FISH ASST0000001000+00001912+00000+0001T   00001912+0000001802          1500 G15860               1 Z
107710004107710050-000364-Z   107710006001023777133PADLOCK IRON 38mm CARD 0000002000+00002781+00000+0001T   00002781+0000001802          1500 G15855               1 Z
A17021300                                          11160622SDSLAVE 1                       G153IC
A17021301                                          11164263SDSLAVE 1                       G153IC
A17021302                                          16170593SDSLAVE 1                       G153IC
A17021303                                          16594889SDSLAVE 1                       G153IC
C10766000                                          170213SD301-085001     13060899SLAVE 1     G153IC0000000000+0000000000+0010000001000+
M17021391                              CASH        SDSLAVE 1                       Z-REPORT No.   231TOTAL (Sales - Refunds)           6868.58       CASH TO BE BANKED                 3356.75       DEBIT CARDS                          0.00       CREDIT CARDS                      3447.98       Z-READING                         6868.58       AIRTIME DEBIT CARD SALES             0.00       AIRTIME CARD SALES                   0.00       OVERS/UNDERS                        63.85-      AIRTIME CASH SALES                   0.00       GIFT CARDS                           0.00       GIFT CARD CASH SALES                 0.00       T O T A L  CASH PAYOUTS              0.00                                                                                                                                                                                                                                                                                                                                                      Z
M17021392                              CASH        SDABSENT                                                                                                                                                                                          ANNUAL LEAVE                                                                                                                                                                                    DAY OFF                                                                                                                                                                                         COMMENTS          SHORT R=63.85                                                                                                                                                                                                                                                                                                                                                                Z
Y17021300                                          SD00012900639343+000074
ZSD17021321153 SLAVE 1      SALES DATA                     NEXT INVOICE NO.  107711 0231
X SD Slave 1 First invoice 107636 170213 Last invoice 107710 170213 Next invoice 107711 Total number of records 000000308 clbackup completed 21:15:23
