128009000128009               128009               170213SE     1500+00000+SE0000001216+0000001216+000000000+000000183+0000001390+0000000009+I20000000000+0000001390+Z
128009001128009002-000801     128009006003000555994PEELER PL/MTL Y-SHAPE  0000001000+00001216+00000+0001T   00001216+0000000921          1500 VG3300               2 Z
128010000128010               128010               170213SE     1500+00000+SE0000001912+0000001912+000000000+000000287+0000002190+0000000009+I20000000000+0000002190+Z
128010001128010071-001015     128010006001023910387MARKERS PERMANENT 3PK  0000001000+00001912+00000+0001T   00001912+0000000925          1500 VG3130               2 Z
128011000128011               128011               170213SE     1500+00000+SE0000002867+0000002867+000000000+000000431+0000003290+0000000008+I20000000000+0000003290+Z
128011001128011036-000010     128011006003000675777LINT REMOVER STICKY    0000001000+00001912+00000+0001T   00001912+0000000926          1500 VG3212               2 Z
128011002128011036-000011     128011006003000675890LINT REMOVER REFILL    0000001000+00000955+00000+0001T   00000955+0000000926          1500 VG3212               2 Z
128012000128012               128012               170213SE     1500+00000+SE0000000955+0000000955+000000000+000000144+0000001090+0000000009+I20000000000+0000001090+Z
128012001128012047-000505     128012006009636901976PLUG-ADAPTOR 2-PIN     0000001000+00000955+00000+0001T   00000955+0000000934          1500 VG3880               2 Z
128013000128013               128013               170213SE     1500+00000+SE0000005780+0000005780+000000000+000000868+0000006640+0000000008+I20000000000+0000006640+Z
128013001128013301-085001     128013006003000297610ORN WATERBALL LOVE ASST0000001000+00005129+00000+0001T   00005129+0000000936          1500 VG3505               2 Z
128013002128013077-000321     128013006001023677501GIFT-BAG 11X14CM E/D FL0000001000+00000651+00000+0001T   00000651+0000000936          1500 VG3112               2 Z
128014000128014               128014               170213SE     1500+00000+SE0000012170+0000012170+000000000+000001826+0000013990+0000000006+I20000000000+0000013990+Z
128014001128014108-001005     128014006001023803276MUG SIPPER W/STRAW     0000001000+00001912+00000+0001T   00001912+0000000937          1500 VG3210               2 Z
128014002128014174-008021     128014006003000637973RAINCOAT PONCHO 102x1670000001000+00006520+00000+0001T   00006520+0000000937          1500 VG3205               2 Z
128014003128014174-000314     128014006003000053575TRAVEL SEWING KIT      0000001000+00003738+00000+0001T   00003738+0000000937          1500 VG3205               2 Z
128015000128015               128015               170213SE     1500+00000+SE0000015118+0000015118+000000000+000002271+0000017380+0000000009+I20000000000+0000017380+Z
128015001128015903-000518     128015006001704012782SWT STRAWS S/BERRY 100g0000001000+00001303+00000+0001T   00001303+0000000939          1500 VG3150               2 Z
128015002128015903-005003     128015006002580020106SWT DINKY DUMMIES 5PK  0000001000+00001651+00000+0001T   00001651+0000000939          1500 VG3150               2 Z
128015003128015024-091103     128015006003453014307BAKING-CUP MUFFIN 50PCE0000001000+00002260+00000+0001T   00002260+0000000939          1500 VG3300               2 Z
128015004128015024-091100     128015006001023914224BAKING-CUPS PAPER 100PC0000001000+00001912+00000+0001T   00001912+0000000939          1500 VG3300               2 Z
128015005128015903-000155     128015006009803374435SWT LOLLY I LUV U HEART0000004000+00000564+00000+0001T   00000564+0000000939          1500 VG3150               2 Z
128015006128015006-000190     128015006003000685530BALLOONS LOVE 81x91cm  0000001000+00004346+00000+0001T   00004607+0006480939          1500 VG3131               2 Z
128015007128015903-000674     128015006009803358220SWT SHERBET W/LOLLY 4PK0000001000+00001390+00000+0001T   00001390+0000000939          1500 VG3150               2 Z
128016000128016               128016               170213SE     1500+00000+SE0000002781+0000002781+000000000+000000418+0000003190+0000000009+I20000000000+0000003190+Z
128016001128016077-000115-B   128016006003000181025GIFT-WRAP PPR 700MMX2M 0000001000+00002781+00000+0001T   00002781+0000000943          1500 VG3112               2 Z
128017000128017               128017               170213SE     1500+00000+SE0000006951+0000006951+000000000+000001045+0000007996+0000000000+I40000007996+0000000000+Z
128017001128017903-000215     128017006002099001214SWT GS MALLOW TWIST PAC0000001000+00001912+00000+0001T   00001912+0000000954          1500 VG3150               2 Z
128017002128017562-000010     128017006001023762528KID'S PLAY DOUGH       0000001000+00002781+00000+0001T   00002781+0000000954          1500 VG3755               2 Z
128017003128017079-009702-D   128017008427973059354PAPER SIRIO A2 RED COL 0000001000+00001129+00000+0001T   00001129+0000000954          1500 VG3130               2 Z
128017004128017079-009702-E   128017008427973059439PAPER SIRIO A2 BLUE    0000001000+00001129+00000+0001T   00001129+0000000954          1500 VG3130               2 Z
128018000128018               128018               170213SE     1500+00000+SE0000006168+0000006168+000000000+000000928+0000007090+0000000006+I20000000000+0000007090+Z
128018001128018007-000302     128018006009635830000BOOK H/COVER A4 96-PAGE0000002000+00001216+00000+0001T   00001216+0000001001          1500 VG3130               2 Z
128018002128018007-000045     128018006009608640438DISPLAY-POCKETS A4 10PC0000001000+00000955+00000+0001T   00000955+0000001001          1500 VG3130               2 Z
128018003128018007-000196     128018006002324002375FILE LEVER ARCH A4     0000001000+00002781+00000+0001T   00002781+0000001001          1500 VG3130               2 Z
128019000128019               128019               170213SE     1500+00000+SE0000002781+0000002781+000000000+000000418+0000003190+0000000009+I20000000000+0000003190+Z
128019001128019159-000684     128019006001023776532BATH BODY-GLOVE 18cm   0000001000+00002781+00000+0001T   00002781+0000001003          1500 VG3200               2 Z
128020000128020               128020               170213SE     1500+00000+SE0000018602+0000018602+000000000+000002792+0000021390+0000000004+I20000000000+0000021390+Z
128020001128020200-003026     128020006003000276448REFUSE BAGS 10PCE GREEN0000001000+00001912+00000+0001T   00001912+0000001011          1500 VG3214               2 Z
128020002128020036-000615     128020006003000218769WASH-PEGS PL PCK-24    0000001000+00001912+00000+0001T   00001912+0000001011          1500 VG3212               2 Z
128020003128020140-001001     128020006001023599926ROACH-TRAPS 5PCE    BOX0000001000+00003738+00000+0001T   00003738+0000001011          1500 VG3830               2 Z
128020004128020027-009035     128020006009654960788DUSTPAN & 3PC SPONGE   0000001000+00001738+00000+0001T   00002781+0008261011          1500 VG3212               2 Z
128020005128020140-005093     128020006003000331338INSECT-KILL RAQT-SHAPED0000001000+00005564+00000+0001T   00005564+0000001011          1500 VG3830               2 Z
128020006128020162-098802     128020006001492988023#TAG 6PK HAIRBANDS     0000001000+00003738+00000+0001T   00003738+0000001011          1500 VG3160               2 Z
128021000128021               128021               170213SE     1500+00000+SE0000001564+0000001564+000000000+000000235+0000001790+0000000009+I20000000000+0000001790+Z
128021001128021039-000108     128021006001023524034TEA-LITE CANDLES 8PCE  0000001000+00001564+00000+0001T   00001564+0000001016          1500 VG3510               2 Z
128022000128022               128022               170213SE     1500+00000+SE0000007476+0000007476+000000000+000001122+0000008590+0000000008+I20000000000+0000008590+Z
128022001128022083-000305     128022006440024423302CIG-LIGHTER-GAS   300ml0000002000+00003738+00000+0001T   00003738+0000001017          1500 VG3315               2 Z
128023000128023               128023               170213SE     1500+00000+SE0000001128+0000001128+000000000+000000170+0000001290+0000000008+I20000000000+0000001290+Z
128023001128023007-000402     128023006009635830864EXERCISE-BOOK A4 72PGE 0000002000+00000564+00000+0001T   00000564+0000001018          1500 VG3130               2 Z
128024000128024               128024               170213SE     1500+00000+SE0000001912+0000001912+000000000+000000287+0000002190+0000000009+I20000000000+0000002190+Z
128024001128024007-000094     128024006003000659289ENVELOPES WHT 5PK C4   0000001000+00001912+00000+0001T   00001912+0000001022          1500 VG3130               2 Z
128025000128025               128025               170213SE     1500+00000+SE0000007130+0000007130+000000000+000001070+0000008200+0000000000+I20000000000+0000008200+Z
128025001128025039-000108     128025006001023524034TEA-LITE CANDLES 8PCE  0000001000-00001564+00000+0001T   00001564+0000001027          1500 VG35102IC            2 Z
128025002128025039-000799     128025006001023692382CANDLES TEALITE 100PCE 0000001000+00008694+00000+0001T   00009564+0008301027          1500 VG3510               2 Z
128026000128026               128026               170213SE     1500+00000+SE0000000607+0000000607+000000000+000000092+0000000690+0000000009+I20000000000+0000000690+Z
128026001128026304-001011     128026006001023806727FLWR ROSE RED W/BEAR   0000001000+00000607+00000+0001T   00000825+0006481033          1500 VG3510               2 Z
128027000128027               128027               170213SE     1500+00000+SE0000001214+0000001214+000000000+000000184+0000001390+0000000008+I20000000000+0000001390+Z
128027001128027304-001011     128027006001023806727FLWR ROSE RED W/BEAR   0000002000+00000607+00000+0001T   00000825+0006481036          1500 VG3510               2 Z
128028000128028               128028               170213SE     1500+00000+SE0000001171+0000001171+000000000+000000177+0000001340+0000000008+I20000000000+0000001340+Z
128028001128028304-001011     128028006001023806727FLWR ROSE RED W/BEAR   0000001000+00000607+00000+0001T   00000825+0006481036          1500 VG3510               2 Z
128028002128028903-000155     128028006009803374435SWT LOLLY I LUV U HEART0000001000+00000564+00000+0001T   00000564+0000001036          1500 VG3150               2 Z
128029000128029               128029               170213SE     1500+00000+SE0000002519+0000002519+000000000+000000379+0000002890+0000000008+I20000000000+0000002890+Z
128029001128029304-001011     128029006001023806727FLWR ROSE RED W/BEAR   0000001000+00000607+00000+0001T   00000825+0006481038          1500 VG3510               2 Z
128029002128029267-000020     128029006001023892355PUZZLE 4x16PCE COLOR-IN0000001000+00001912+00000+0001T   00001912+0000001038          1500 VG3755               2 Z
128030000128030               128030               170213SE     1500+00000+SE0000000692+0000000692+000000000+000000104+0000000790+0000000006+I20000000000+0000000790+Z
128030001128030079-009700-F   128030006003000545872PAPER SIRIO A4 TURQ COL0000002000+00000346+00000+0001T   00000346+0000001058          1500 VG3130               2 Z
128031000128031               128031               170213SE     1500+00000+SE0000002432+0000002432+000000000+000000366+0000002790+0000000008+I20000000000+0000002790+Z
128031001128031007-010192     128031006009635830536BOOK H/COVER A5 192PAGE0000001000+00001216+00000+0001T   00001216+0000001225          1500 VG3130               2 Z
128031002128031007-000302     128031006009635830000BOOK H/COVER A4 96-PAGE0000001000+00001216+00000+0001T   00001216+0000001225          1500 VG3130               2 Z
128032000128032               128032               170213SE     1500+00000+SE0000004345+0000004345+000000000+000000653+0000004990+0000000008+I20000000000+0000004990+Z
128032001128032006-000111     128032006003000519385BALLOONS LARGE 12PCE   0000001000+00002781+00000+0001T   00002781+0000001235          1500 VG3131               2 Z
128032002128032006-000805     128032000013994092418STREAMERS 10-ROLLS     0000001000+00001564+00000+0001T   00001564+0000001235          1500 VG3131               2 Z
128033000128033               128033               170213SE     1500+00000+SE0000001128+0000001128+000000000+000000170+0000001290+0000000008+I20000000000+0000001290+Z
128033001128033007-000402     128033006009635830864EXERCISE-BOOK A4 72PGE 0000002000+00000564+00000+0001T   00000564+0000001239          1500 VG3130               2 Z
128034000128034               128034               170213SE     1500+00000+SE0000000564+0000000564+000000000+000000085+0000000640+0000000009+I20000000000+0000000640+Z
128034001128034007-000402     128034006009635830864EXERCISE-BOOK A4 72PGE 0000001000+00000564+00000+0001T   00000564+0000001240          1500 VG3130               2 Z
128035000128035               128035               170213SE     1500+00000+SE0000000564+0000000564+000000000+000000085+0000000640+0000000009+I20000000000+0000000640+Z
128035001128035007-000402     128035006009635830864EXERCISE-BOOK A4 72PGE 0000001000+00000564+00000+0001T   00000564+0000001241          1500 VG3130               2 Z
128036000128036               128036               170213SE     1500+00000+SE0000007216+0000007216+000000000+000001083+0000008290+0000000009+I20000000000+0000008290+Z
128036001128036562-000002     128036006001023491015COUNTING-FRAME 30x20cm 0000001000+00007216+00000+0001T   00007216+0000001248          1500 VG3755               2 Z
128037000128037               128037               170213SE     1500+00000+SE0000009560+0000009560+000000000+000001435+0000010990+0000000005+I20000000000+0000010990+Z
128037001128037038-001803     128037006001023766588DOILIES 17cm RND 18PC  0000005000+00001912+00000+0001T   00001912+0000001257          1500 VG3300               2 Z
128038000128038               128038               170213SE     1500+00000+SE0000011124+0000011124+000000000+000001672+0000012790+0000000006+I20000000000+0000012790+Z
128038001128038103-000033     128038006003000510160BASKET WOVEN W/HANDLES 0000002000+00004607+00000+0001T   00004607+0000001257          1500 VG3300               2 Z
128038002128038077-000150-D   128038006003000054343GIFT-WRAP CELLPHANE CLR0000001000+00000955+00000+0001T   00000955+0000001257          1500 VG3112               2 Z
128038003128038077-000151     128038006008766114676GIFT-WRAP C/PHANE ASSTD0000001000+00000955+00000+0001T   00000955+0000001257          1500 VG3112               2 Z
128039000128039               128039               170213SE     1500+00000+SE0000001431+0000001431+000000000+000000216+0000001640+0000000007+I20000000000+0000001640+Z
128039001128039007-000193     128039006009635831731BK JOTTER A4 72-PG F/M 0000003000+00000477+00000+0001T   00000477+0000001301          1500 VG3130               2 Z
128040000128040               128040               170213SE     1500+00000+SE0000001912+0000001912+000000000+000000287+0000002190+0000000009+I20000000000+0000002190+Z
128040001128040024-091100     128040006001023914224BAKING-CUPS PAPER 100PC0000001000+00001912+00000+0001T   00001912+0000001316          1500 VG3300               2 Z
128041000128041               128041               170213SE     1500+00000+SE0000002519+0000002519+000000000+000000379+0000002890+0000000008+I20000000000+0000002890+Z
128041001128041304-001011     128041006001023806727FLWR ROSE RED W/BEAR   0000001000+00000607+00000+0001T   00000825+0006481322          1500 VG3510               2 Z
128041002128041077-000309     128041006001023608604GIFT-BAG 25X32CM GLOSS 0000001000+00001912+00000+0001T   00001912+0000001322          1500 VG3112               2 Z
128042000128042               128042               170213SE     1500+00000+SE0000002607+0000002607+000000000+000000392+0000002990+0000000009+I20000000000+0000002990+Z
128042001128042567-075466     128042009780263920697BK NOVEL ROMANCE       0000001000+00002607+00000+0001T   00002781+0006481323          1500 VG3757               2 Z
128043000128043               128043               170213SE     1500+00000+SE0000000955+0000000955+000000000+000000144+0000001090+0000000009+I20000000000+0000001090+Z
128043001128043076-000017     128043006001811010022TWINE COTTON 50g-BALL  0000001000+00000955+00000+0001T   00000955+0000001325          1500 VG3810               2 Z
128044000128044               128044               170213SE     1500+00000+SE0000003738+0000003738+000000000+000000561+0000004290+0000000009+I20000000000+0000004290+Z
128044001128044464-001701     128044006001023332691DOMINOES IVORY DBL-SIX 0000001000+00003738+00000+0001T   00003738+0000001327          1500 VG3785               2 Z
128045000128045               128045               170213SE     1500+00000+SE0000002781+0000002781+000000000+000000418+0000003190+0000000009+I20000000000+0000003190+Z
128045001128045079-002909     128045006003000639410ART+CRAFT MAGIC MARKERS0000001000+00002781+00000+0001T   00002781+0000001329          1500 VG3130               2 Z
128046000128046               128046               170213SE     1500+00000+SE0000002256+0000002256+000000000+000000340+0000002590+0000000006+I20000000000+0000002590+Z
128046001128046903-000155     128046006009803374435SWT LOLLY I LUV U HEART0000004000+00000564+00000+0001T   00000564+0000001330          1500 VG3150               2 Z
128047000128047               128047               170213SE     1500+00000+SE0000007390+0000007390+000000000+000001109+0000008490+0000000009+I20000000000+0000008490+Z
128047001128047267-000906     128047006003000636334PUZZLE JIGSAW PCS      0000001000+00007390+00000+0001T   00007390+0000001336          1500 VG3755               2 Z
128048000128048               128048               170213SE     1500+00000+SE0000000955+0000000955+000000000+000000144+0000001090+0000000009+I20000000000+0000001090+Z
128048001128048071-003004     128048006003000662821PEN BALL POINT 3PC BLUE0000001000+00000955+00000+0001T   00000955+0000001347          1500 VG3130               2 Z
128049000128049               128049               170213SE     1500+00000+SE0000001384+0000001384+000000000+000000208+0000001590+0000000002+I20000000000+0000001590+Z
128049001128049079-009700-C   128049006003000545636PAPER SIRIO A4 VIOLET  0000001000+00000346+00000+0001T   00000346+0000001400          1500 VG3130               2 Z
128049002128049079-009700-L   128049006003000546350PAPER SIRIO A4 YELLOW  0000001000+00000346+00000+0001T   00000346+0000001400          1500 VG3130               2 Z
128049003128049079-009700-G   128049006003000545957PAPER SIRIO A4 LIME COL0000001000+00000346+00000+0001T   00000346+0000001400          1500 VG3130               2 Z
128049004128049079-009700-F   128049006003000545872PAPER SIRIO A4 TURQ COL0000001000+00000346+00000+0001T   00000346+0000001400          1500 VG3130               2 Z
128050000128050               128050               170213SE     1500+00000+SE0000003257+0000003257+000000000+000000490+0000003740+0000000007+I20000000000+0000003740+Z
128050001128050018-000127     128050006001023380289MUG OCC STRAIGHT LOVE  0000001000+00001564+00000+0001T   00001912+0006481405          1500 VG3515               2 Z
128050002128050018-000177     128050006001023797513MUG MINI LOVE ASSTD    0000001000+00000738+00000+0001T   00000738+0000001405          1500 VG3515               2 Z
128050003128050077-000302     128050008010410010195GIFT-BAG 18X23CM E/D   0000001000+00000955+00000+0001T   00000955+0000001405          1500 VG3112               2 Z
128051000128051               128051               170213SE     1500+00000+SE0000006387+0000006387+000000000+000000959+0000007340+0000000006+I20000000000+0000007340+Z
128051001128051150-004028-H   128051006003000649976BATH-PLUG RUBBER BLACK 0000001000+00000651+00000+0001T   00000651+0000001434          1500 VG3810               2 Z
128051002128051306-000006     128051006001023776440DENTAL FLOSS PICKS 50PC0000002000+00001912+00000+0001T   00001912+0000001434          1500 VG3200               2 Z
128051003128051200-003026     128051006003000276448REFUSE BAGS 10PCE GREEN0000001000+00001912+00000+0001T   00001912+0000001434          1500 VG3214               2 Z
128052000128052               128052               170213SE     1500+00000+SE0000010169+0000010169+000000000+000001528+0000011690+0000000007+I20000000000+0000011690+Z
128052001128052104-000031     128052006003000614950BASKET PL 27x18x12cm   0000002000+00002781+00000+0001T   00002781+0000001435          1500 VG3210               2 Z
128052002128052104-000030     128052006001023803481BASKET PL 28x20x12cm   0000001000+00004607+00000+0001T   00004607+0000001435          1500 VG3210               2 Z
128053000128053               128053               170213SE     1500+00000+SE0000016776+0000016776+000000000+000002519+0000019290+0000000005+I20000000000+0000019290+Z
128053001128053104-000095     128053006003000614714BASKET PL 23x15x12cm   0000002000+00003738+00000+0001T   00003738+0000001437          1500 VG3210               2 Z
128053002128053162-094735     128053006001492947358#TAG HOT DEAL ASST     0000001000+00001912+00000+0001T   00001912+0000001437          1500 VG3160               2 Z
128053003128053024-000213-A   128053006003000430840COOKIE-CUTTER PL 6PC   0000001000+00002781+00000+0001T   00002781+0000001437          1500 VG3300               2 Z
128053004128053104-000030     128053006001023803481BASKET PL 28x20x12cm   0000001000+00004607+00000+0001T   00004607+0000001437          1500 VG3210               2 Z
128054000128054               128054               170213SE     1500+00000+SE0000013952+0000013952+000000000+000002094+0000016040+0000000006+I20000000000+0000016040+Z
128054001128054028-000027     128054006003000275816C/BAG+POCKET 27x18x23cm0000001000+00009564+00000+0001T   00009564+0000001438          1500 VG3305               2 Z
128054002128054903-000920     128054000041396002155SWT CANDY STICK/TATT   0000001000+00000738+00000+0001T   00000738+0000001438          1500 VG3150               2 Z
128054003128054903-002900     128054005996071650648QUICK MILK 5 CHOCO 5PC 0000001000+00001738+00000+0001T   00001738+0000001438          1500 VG3150               2 Z
128054004128054903-000624     128054006003000671793SWEET LOLLY BLU/BRRY   0000001000+00001912+00000+0001T   00001912+0000001438          1500 VG3150               2 Z
128055000128055               128055               170213SE     1500+00000+SE0000002607+0000002607+000000000+000000392+0000002990+0000000009+I20000000000+0000002990+Z
128055001128055567-075466     128055009780263246117BK NOVEL ROMANCE       0000001000+00002607+00000+0001T   00002781+0006481439          1500 VG3757               2 Z
128056000128056               128056               170213SE     1500+00000+SE0000019548+0000019548+000000000+000002939+0000022480+0000000007+I20000000000+0000022480+Z
128056001128056903-000155     128056006009803374435SWT LOLLY I LUV U HEART0000002000+00000564+00000+0001T   00000564+0000001448          1500 VG3150               2 Z
128056002128056903-000918     128056006009802868522SWEET GUM TAPE H/KITTY 0000001000+00001912+00000+0001T   00001912+0000001448          1500 VG3150               2 Z
128056003128056903-000911     128056006009802868454SWT ST GUM TAPE BARBIE 0000001000+00001912+00000+0001T   00001912+0000001448          1500 VG3150               2 Z
128056004128056903-000912     128056006009802868461SWT GUM TAPE HOT WHEELS0000001000+00001912+00000+0001T   00001912+0000001448          1500 VG3150               2 Z
128056005128056903-000155     128056006009803374435SWT LOLLY I LUV U HEART0000002000+00000564+00000+0001T   00000564+0000001448          1500 VG3150               2 Z
128056006128056104-000031     128056006003000614950BASKET PL 27x18x12cm   0000003000+00002781+00000+0001T   00002781+0000001448          1500 VG3210               2 Z
128056007128056077-000151     128056006008766114676GIFT-WRAP C/PHANE ASSTD0000002000+00000955+00000+0001T   00000955+0000001448          1500 VG3112               2 Z
128056008128056077-000245     128056006001023759214GIFT-RIBBON METALLICx2 0000001000+00001303+00000+0001T   00001303+0000001448          1500 VG3112               2 Z
128057000128057               128057               170213SE     1500+00000+SE0000001214+0000001214+000000000+000000184+0000001390+0000000008+I20000000000+0000001390+Z
128057001128057304-001011     128057006001023806727FLWR ROSE RED W/BEAR   0000002000+00000607+00000+0001T   00000825+0006481449          1500 VG3510               2 Z
128058000128058               128058               170213SE     1500+00000+SE0000005083+0000005083+000000000+000000764+0000005840+0000000007+I20000000000+0000005840+Z
128058001128058018-005009     128058006001023725608MUG W/PLUSH-BEAR LOVE  0000001000+00003738+00000+0001T   00003738+0000001451          1500 VG3515               2 Z
128058002128058304-001011     128058006001023806727FLWR ROSE RED W/BEAR   0000001000+00000607+00000+0001T   00000825+0006481451          1500 VG3510               2 Z
128058003128058018-000177     128058006001023797513MUG MINI LOVE ASSTD    0000001000+00000738+00000+0001T   00000738+0000001451          1500 VG3515               2 Z
128059000128059               128059               170213SE     1500+00000+SE0000000955+0000000955+000000000+000000144+0000001090+0000000009+I20000000000+0000001090+Z
128059001128059077-000302     128059008010410010195GIFT-BAG 18X23CM E/D   0000001000+00000955+00000+0001T   00000955+0000001452          1500 VG3112               2 Z
128060000128060               128060               170213SE     1500+00000+SE0000000955+0000000955+000000000+000000144+0000001090+0000000009+I20000000000+0000001090+Z
128060001128060033-005921-B   128060006001023678348SEWING-THREAD 200m BLK 0000001000+00000955+00000+0001T   00000955+0000001452          1500 VG3200               2 Z
128061000128061               128061               170213SE     1500+00000+SE0000011476+0000011476+000000000+000001722+0000013190+0000000008+I20000000000+0000013190+Z
128061001128061077-000455     128061006003000285389G/BAG METALLIC LRG SOL 0000001000+00001912+00000+0001T   00001912+0000001503          1500 VG3112               2 Z
128061002128061031-000924     128061006001023669964P/FRAME COLLAGE PL     0000001000+00009564+00000+0001T   00009564+0000001503          1500 VG3510               2 Z
128062000128062               128062               170213SE     1500+00000+SE0000024082+0000024082+000000000+000003613+0000027690+0000000005+I20000000000+0000027690+Z
128062001128062019-000051     128062006003000457304VASE GLS ASSORTED      0000001000+00006086+00000+0001T   00006346+0008091505          1500 VG3510               2 Z
128062002128062562-088364     128062006003000122806EDU BUILDING BLOCKS    0000001000+00006520+00000+0001T   00006520+0000001505          1500 VG3755               2 Z
128062003128062031-000924     128062006001023669964P/FRAME COLLAGE PL     0000001000+00009564+00000+0001T   00009564+0000001505          1500 VG3510               2 Z
128062004128062077-000299-A   128062006003000670888GIFT-BAG PAPER JMB LOVE0000001000+00001912+00000+0001T   00001912+0000001505          1500 VG3112               2 Z
128063000128063               128063               170213SE     1500+00000+SE0000003303+0000003303+000000000+000000496+0000003790+0000000009+I20000000000+0000003790+Z
128063001128063075-000350     128063006003000006304PURSE BUTTERFLY+CHAIN  0000001000+00003303+00000+0001T   00003303+0000001509          1500 VG3160               2 Z
128064000128064               128064               170213SE     1500+00000+SE0000000955+0000000955+000000000+000000144+0000001090+0000000009+I20000000000+0000001090+Z
128064001128064903-000483     128064006001704001410SWT LIQUOR SML SORT 60G0000001000+00000955+00000+0001T   00000955+0000001511          1500 VG3150               2 Z
128065000128065               128065               170213SE     1500+00000+SE0000003128+0000003128+000000000+000000470+0000003590+0000000008+I20000000000+0000003590+Z
128065002128065159-080352     128065006916920733314HOOKS 3PCE             0000001000+00001564+00000+0001T   00001564+0000001514          1500 VG3200               2 Z
128065003128065018-000127     128065006001023380289MUG OCC STRAIGHT LOVE  0000001000+00001564+00000+0001T   00001912+0006481514          1500 VG3515               2 Z
128066000128066               128066               170213SE     1500+00000+SE0000000607+0000000607+000000000+000000092+0000000690+0000000009+I20000000000+0000000690+Z
128066001128066304-001011     128066006001023806727FLWR ROSE RED W/BEAR   0000001000+00000607+00000+0001T   00000825+0006481515          1500 VG3510               2 Z
128067000128067               128067               170213SE     1500+00000+SE0000001216+0000001216+000000000+000000183+0000001390+0000000009+I20000000000+0000001390+Z
128067001128067162-097715     128067006001492977157#TAG NEW COLOUR E/PIERC0000001000+00001216+00000+0001T   00001216+0000001527          1500 VG3160               2 Z
128068000128068               128068               170213SE     1500+00000+SE0000000000+0000000000+000000000+000000000+0000000000+0000000000+I20000000000+0000000000+Z
128068001128068162-097715     128068006001492977157#TAG NEW COLOUR E/PIERC0000001000-00001216+00000+0001T   00001216+0000001530          1500 VG31601IC            2 Z
128068002128068162-097717     128068006001492977171#TAG NEW SILVER E/PIERC0000001000+00001216+00000+0001T   00001216+0000001530          1500 VG3160               2 Z
128069000128069               128069               170213SE     1500+00000+SE0000005214+0000005214+000000000+000000784+0000005990+0000000008+I20000000000+0000005990+Z
128069001128069567-075699     128069006003000641277BK NOVEL CATEGORY A    0000002000+00002607+00000+0001T   00003129+0008301533          1500 VG3757               2 Z
128070000128070               128070               170213SE     1500+00000+SE0000006345+0000006345+000000000+000000953+0000007290+0000000008+I20000000000+0000007290+Z
128070001128070018-005009     128070006001023725608MUG W/PLUSH-BEAR LOVE  0000001000+00003738+00000+0001T   00003738+0000001534          1500 VG3515               2 Z
128070002128070567-075466     128070009780263915709BK NOVEL ROMANCE       0000001000+00002607+00000+0001T   00002781+0006481534          1500 VG3757               2 Z
128071000128071               128071               170213SE     1500+00000+SE0000000955+0000000955+000000000+000000144+0000001090+0000000009+I20000000000+0000001090+Z
128071001128071077-000314     128071006003000181148GIFT-BAG 11X14CM MATT  0000001000+00000955+00000+0001T   00000955+0000001547          1500 VG3112               2 Z
128072000128072               128072               170213SE     1500+00000+SE0000011990+0000011990+000000000+000001802+0000013790+0000000002+I20000000000+0000013790+Z
128072001128072079-003001     128072006003000448951A/TUBE 75ML BLACK      0000001000+00001912+00000+0001T   00001912+0000001551          1500 VG3130               2 Z
128072002128072079-003002     128072006003000447886A/TUBE 75ML RED        0000001000+00001912+00000+0001T   00001912+0000001551          1500 VG3130               2 Z
128072003128072077-000245     128072006001023759214GIFT-RIBBON METALLICx2 0000001000+00001303+00000+0001T   00001303+0000001551          1500 VG3112               2 Z
128072004128072006-000166-H   128072006003000608096BALLOONS HELIUM 6PC WHT0000002000+00001390+00000+0001T   00001390+0000001551          1500 VG3131               2 Z
128072005128072006-000167-C   128072006003000516971BALLOONS PINK METALLIC 0000002000+00001390+00000+0001T   00001390+0000001551          1500 VG3131               2 Z
128072006128072077-000245     128072006001023759214GIFT-RIBBON METALLICx2 0000001000+00001303+00000+0001T   00001303+0000001551          1500 VG3112               2 Z
128073000128073               128073               170213SE     1500+00000+SE0000002780+0000002780+000000000+000000418+0000003190+0000000008+I20000000000+0000003190+Z
128073001128073077-000407     128073006003000145096G/BAG PP 19X26X8CM     0000001000+00001390+00000+0001T   00001390+0000001552          1500 VG3112               2 Z
128073002128073566-001012     128073006001023528070STICKERS GLOW IN DARK  0000001000+00001390+00000+0001T   00001390+0000001552          1500 VG3130               2 Z
128074000128074               128074               170213SE     1500+00000+SE0000004475+0000004475+000000000+000000672+0000005140+0000000007+I20000000000+0000005140+Z
128074001128074200-000065     128074006001023323675DRINKING-STRAWS 38PCE  0000001000+00000651+00000+0001T   00000651+0000001556          1500 VG3214               2 Z
128074002128074006-000120     128074006001023346889BALLOONS 10PC MIX COL  0000002000+00001912+00000+0001T   00001912+0000001556          1500 VG3131               2 Z
128075000128075               128075               170213SE     1500+00000+SE0000004906+0000004906+000000000+000000738+0000005644+0000000000+I40000005644+0000000000+Z
128075001128075203-005500     128075006001023914194B/POURER PL OPEN BAR   0000001000+00002346+00000+0001T   00002346+0000001559          1500 VG3300               2 Z
128075002128075077-000010-D   128075006001023123886CREPE-PAPER WHITE      0000001000+00000868+00000+0001T   00000868+0000001559          1500 VG3112               2 Z
128075003128075903-000155     128075006009803374435SWT LOLLY I LUV U HEART0000003000+00000564+00000+0001T   00000564+0000001559          1500 VG3150               2 Z
128076000128076               128076               170213SE     1500+00000+SE0000005564+0000005564+000000000+000000835+0000006399+0000000000+I40000006399+0000000000+Z
128076001128076056-065300     128076006001023625854CAR SUNSHIELD ALUM FOIL0000001000+00005564+00000+0001L   00005564+0000001601          1500 VG3860               2 Z
128077000128077               128077               170213SE     1500+00000+SE0000001564+0000001564+000000000+000000235+0000001790+0000000009+I20000000000+0000001790+Z
128077001128077564-000036     128077006001023708694BUBBLE W/PUZZLE        0000001000+00001564+00000+0001T   00001564+0000001602          1500 VG3131               2 Z
128078000128078               128078               170213SE     1500+00000+SE0000003123+0000003123+000000000+000000472+0000003590+0000000005+I20000000000+0000003590+Z
128078001128078566-000311     128078006003000522613STICKER LOCKER         0000001000+00000694+00000+0001T   00000955+0008261610          1500 VG3130               2 Z
128078002128078903-000155     128078006009803374435SWT LOLLY I LUV U HEART0000001000+00000564+00000+0001T   00000564+0000001610          1500 VG3150               2 Z
128078003128078007-000555     128078006001023848239MEMO-PAD MINI LOVE     0000001000+00000651+00000+0001T   00000651+0000001610          1500 VG3130               2 Z
128078004128078304-001011     128078006001023806727FLWR ROSE RED W/BEAR   0000002000+00000607+00000+0001T   00000825+0006481610          1500 VG3510               2 Z
128079000128079               128079               170213SE     1500+00000+SE0000001910+0000001910+000000000+000000288+0000002190+0000000008+I20000000000+0000002190+Z
128079001128079077-000150-D   128079006003000054343GIFT-WRAP CELLPHANE CLR0000002000+00000955+00000+0001T   00000955+0000001613          1500 VG3112               2 Z
128080000128080               128080               170213SE     1500+00000+SE0000006346+0000006346+000000000+000000952+0000007290+0000000008+I20000000000+0000007290+Z
128080001128080368-000175     128080006003000270316PLUSH BEAR 4 ASSTD 18CM0000001000+00006346+00000+0001T   00006346+0000001614          1500 VG3745               2 Z
128081000128081               128081               170213SE     1500+00000+SE0000001390+0000001390+000000000+000000209+0000001590+0000000009+I20000000000+0000001590+Z
128081001128081903-004950     128081006002580020304SWT APRICOT SURPRISE   0000001000+00001390+00000+0001T   00001390+0000001619          1500 VG3150               2 Z
128082000128082               128082               170213SE     1500+00000+SE0000001912+0000001912+000000000+000000287+0000002190+0000000009+I20000000000+0000002190+Z
128082001128082077-000299-A   128082006003000670888GIFT-BAG PAPER JMB LOVE0000001000+00001912+00000+0001T   00001912+0000001624          1500 VG3112               2 Z
128083000128083               128083               170213SE     1500+00000+SE0000004693+0000004693+000000000+000000705+0000005390+0000000008+I20000000000+0000005390+Z
128083001128083006-000111     128083006003000519385BALLOONS LARGE 12PCE   0000001000+00002781+00000+0001T   00002781+0000001625          1500 VG3131               2 Z
128083002128083006-000208-H   128083006003000412945PINK/BLUE PLATES 23cm  0000001000+00001912+00000+0001T   00001912+0000001625          1500 VG3131               2 Z
128084000128084               128084               170213SE     1500+00000+SE0000030774+0000030774+000000000+000004619+0000035393+0000000000+I40000035393+0000000000+Z
128084001128084567-002724     128084006003000071371BOOK PROMO ASSTD CAT F 0000001000+00004346+00000+0001T   00006346+0008241630          1500 VG3757               2 Z
128084002128084077-000309-A   128084006003000671007GIFT-BAG HOLOGRAM JMB  0000001000+00002346+00000+0001T   00002346+0000001630          1500 VG3112               2 Z
128084003128084567-075699     128084006003000641277BK NOVEL CATEGORY A    0000001000+00002607+00000+0001T   00003129+0008301630          1500 VG3757               2 Z
128084004128084206-000250     128084006003000632060PEELER POTATOE-MAN     0000001000+00002781+00000+0001T   00002781+0000001630          1500 VG3321               2 Z
128084005128084079-000197     128084006003000155972ART+CRAFT ART SET 163PC0000001000+00018694+00000+0001T   00018694+0000001630          1500 VG3130               2 Z
128085000128085               128085               170213SE     1500+00000+SE0000015215+0000015215+000000000+000002283+0000017490+0000000008+I20000000000+0000017490+Z
128085001128085077-000299-A   128085006003000670888GIFT-BAG PAPER JMB LOVE0000001000+00001912+00000+0001T   00001912+0000001633          1500 VG3112               2 Z
128085002128085030-004020     128085006003000394609PLAQUE WDN SIGN 40X25CM0000001000+00013303+00000+0001T   00013303+0000001633          1500 VG3505               2 Z
128086000128086               128086               170213SE     1500+00000+SE0000000962+0000000962+000000000+000000145+0000001100+0000000007+I20000000000+0000001100+Z
128086001128086903-000099     128086006923431501646SWT CANDY GS WTCH B/LET0000002000+00000286+00000+0001T   00000286+0000001637          1500 VG3150               2 Z
128086002128086903-000159     128086006003000417629SWT LB SMALL DUMMIE    0000001000+00000390+00000+0001T   00000390+0000001637          1500 VG3150               2 Z
128087000128087               128087               170213SE     1500+00000+SE0000016553+0000016553+000000000+000002485+0000019038+0000000000+I40000019038+0000000000+Z
128087001128087903-000183     128087006003000451043SWT LB HEART LOLLY     0000004000+00000433+00000+0001T   00000433+0000001639          1500 VG3150               2 Z
128087002128087018-000177     128087006001023797513MUG MINI LOVE ASSTD    0000003000+00000738+00000+0001T   00000738+0000001639          1500 VG3515               2 Z
128087003128087368-000111     128087006001023780812PLUSH BEAR/DOG 29CM    0000001000+00012607+00000+0001T   00012607+0000001639          1500 VG3745               2 Z
128088000128088               128088               170213SE     1500+00000+SE0000000859+0000000859+000000000+000000128+0000000980+0000000007+I20000000000+0000000980+Z
128088001128088079-009702-G   128088008427973060787PAPER SIRIO A2 FUSHIA  0000001000-00001129+00000+0001T   00001129+0000001646          1500 VG31301IC            2 Z
128088002128088079-009702-C   128088008427973059309PAPER SIRIO A2 VIOLET  0000001000-00001129+00000+0001T   00001129+0000001646          1500 VG31301IC            2 Z
128088003128088079-009702-E   128088008427973059439PAPER SIRIO A2 BLUE    0000001000-00001129+00000+0001T   00001129+0000001646          1500 VG31301IC            2 Z
128088004128088079-009702-D   128088008427973059354PAPER SIRIO A2 RED COL 0000001000-00001129+00000+0001T   00001129+0000001646          1500 VG31301IC            2 Z
128088005128088079-009702-A   128088008427973059408PAPER SIRIO A2 BLACK   0000001000-00001129+00000+0001T   00001129+0000001646          1500 VG31301IC            2 Z
128088006128088079-009700-G   128088006003000545957PAPER SIRIO A4 LIME COL0000002000+00000346+00000+0001T   00000346+0000001646          1500 VG3130               2 Z
128088007128088079-009700-F   128088006003000545872PAPER SIRIO A4 TURQ COL0000002000+00000346+00000+0001T   00000346+0000001646          1500 VG3130               2 Z
128088008128088079-009700-L   128088006003000546350PAPER SIRIO A4 YELLOW  0000002000+00000346+00000+0001T   00000346+0000001646          1500 VG3130               2 Z
128088009128088079-009700-D   128088006003000545711PAPER SIRIO A4 RED COL.0000002000+00000346+00000+0001T   00000346+0000001646          1500 VG3130               2 Z
128088010128088076-000017     128088006001811010022TWINE COTTON 50g-BALL  0000001000+00000955+00000+0001T   00000955+0000001646          1500 VG3810               2 Z
128088011128088018-000129     128088006001023403353MUG OCC. LOVE V-SHAPE  0000001000+00002781+00000+0001T   00002781+0000001646          1500 VG3515               2 Z
128089000128089               128089               170213SE     1500+00000+SE0000002781+0000002781+000000000+000000418+0000003190+0000000009+I20000000000+0000003190+Z
128089001128089018-000129     128089006001023403353MUG OCC. LOVE V-SHAPE  0000001000+00002781+00000+0001T   00002781+0000001648          1500 VG3515               2 Z
128090000128090               128090               170213SE     1500+00000+SE0000003738+0000003738+000000000+000000561+0000004290+0000000009+I20000000000+0000004290+Z
128090001128090028-002101     128090006002580009507CHAIR JUNIOR    ASSTD  0000001000+00003738+00000+0001T   00003738+0000001649          1500 VG3305               2 Z
128091000128091               128091               170213SE     1500+00000+SE0000004345+0000004345+000000000+000000653+0000004990+0000000008+I20000000000+0000004990+Z
128091001128091304-001011     128091006001023806727FLWR ROSE RED W/BEAR   0000001000+00000607+00000+0001T   00000825+0006481652          1500 VG3510               2 Z
128091002128091018-005009     128091006001023725608MUG W/PLUSH-BEAR LOVE  0000001000+00003738+00000+0001T   00003738+0000001652          1500 VG3515               2 Z
128092000128092               128092               170213SE     1500+00000+SE0000004345+0000004345+000000000+000000653+0000004990+0000000008+I20000000000+0000004990+Z
128092001128092304-001011     128092006001023806727FLWR ROSE RED W/BEAR   0000001000+00000607+00000+0001T   00000825+0006481653          1500 VG3510               2 Z
128092002128092018-005009     128092006001023725608MUG W/PLUSH-BEAR LOVE  0000001000+00003738+00000+0001T   00003738+0000001653          1500 VG3515               2 Z
128093000128093               128093               170213SE     1500+00000+SE0000014519+0000014519+000000000+000002179+0000016690+0000000008+I20000000000+0000016690+Z
128093001128093368-000111     128093006001023780812PLUSH BEAR/DOG 29CM    0000001000+00012607+00000+0001T   00012607+0000001654          1500 VG3745               2 Z
128093002128093077-000309     128093006001023608604GIFT-BAG 25X32CM GLOSS 0000001000+00001912+00000+0001T   00001912+0000001654          1500 VG3112               2 Z
128094000128094               128094               170213SE     1500+00000+SE0000000607+0000000607+000000000+000000092+0000000690+0000000009+I20000000000+0000000690+Z
128094001128094304-001011     128094006001023806727FLWR ROSE RED W/BEAR   0000001000+00000607+00000+0001T   00000825+0006481654          1500 VG3510               2 Z
128095000128095               128095               170213SE     1500+00000+SE0000007476+0000007476+000000000+000001122+0000008598+0000000000+I40000008598+0000000000+Z
128095001128095562-000020     128095006003000600861EDU PLAY DOUGH 60g 4PC 0000002000+00003738+00000+0001T   00003738+0000001656          1500 VG3755               2 Z
128096000128096               128096               170213SE     1500+00000+SE0000003738+0000003738+000000000+000000561+0000004290+0000000009+I20000000000+0000004290+Z
128096001128096024-000200     128096006003000441631KIDDIES B/SET 10PC DEC.0000001000+00003738+00000+0001T   00003738+0000001657          1500 VG3300               2 Z
128097000128097               128097               170213SE     1500+00000+SE0000000607+0000000607+000000000+000000092+0000000690+0000000009+I20000000000+0000000690+Z
128097001128097304-001011     128097006001023806727FLWR ROSE RED W/BEAR   0000001000+00000607+00000+0001T   00000825+0006481658          1500 VG3510               2 Z
128098000128098               128098               170213SE     1500+00000+SE0000001651+0000001651+000000000+000000248+0000001890+0000000009+I20000000000+0000001890+Z
128098001128098266-001307     128098006003000610570BOYS MARBLES 16mm 50PC 0000001000+00001651+00000+0001T   00001651+0000001701          1500 VG3710               2 Z
128099000128099               128099               170213SE     1500+00000+SE0000000477+0000000477+000000000+000000072+0000000540+0000000009+I20000000000+0000000540+Z
128099001128099007-000193     128099006009635831731BK JOTTER A4 72-PG F/M 0000001000+00000477+00000+0001T   00000477+0000001703          1500 VG3130               2 Z
128100000128100               128100               170213SE     1500+00000+SE0000010082+0000010082+000000000+000001515+0000011597+0000000000+I40000011597+0000000000+Z
128100001128100104-000030     128100006001023803481BASKET PL 28x20x12cm   0000002000+00004607+00000+0001T   00004607+0000001706          1500 VG3210               2 Z
128100002128100077-000010-D   128100006001023123886CREPE-PAPER WHITE      0000001000+00000868+00000+0001T   00000868+0000001706          1500 VG3112               2 Z
128101000128101               128101               170213SE     1500+00000+SE0000001128+0000001128+000000000+000000170+0000001290+0000000008+I20000000000+0000001290+Z
128101001128101903-000151     128101006009803374411SWT SML RND R/BOW LOLLY0000002000+00000564+00000+0001T   00000564+0000001708          1500 VG3150               2 Z
128102000128102               128102               170213SE     1500+00000+SE0000001345+0000001345+000000000+000000203+0000001540+0000000008+I20000000000+0000001540+Z
128102001128102304-001011     128102006001023806727FLWR ROSE RED W/BEAR   0000001000+00000607+00000+0001T   00000825+0006481708          1500 VG3510               2 Z
128102002128102018-000177     128102006001023797513MUG MINI LOVE ASSTD    0000001000+00000738+00000+0001T   00000738+0000001708          1500 VG3515               2 Z
128103000128103               128103               170213SE     1500+00000+SE0000005212+0000005212+000000000+000000784+0000005990+0000000006+I20000000000+0000005990+Z
128103001128103071-003000     128103006003000543229PEN BALL PEN 3PCE MULTI0000001000+00000955+00000+0001T   00000955+0000001709          1500 VG3130               2 Z
128103002128103007-000104     128103006009685854865BK COVER BRWN KRFT ROLL0000001000+00000390+00000+0001T   00000390+0000001709          1500 VG3130               2 Z
128103003128103007-000601     128103006003000541195BOOK COVER ADHESIVE 2M 0000001000+00002781+00000+0001T   00002781+0000001709          1500 VG3130               2 Z
128103004128103007-000119     128103006002324004126BOOK COVER PL          0000001000+00001086+00000+0001T   00001086+0000001709          1500 VG3130               2 Z
128104000128104               128104               170213SE     1500+00000+SE0000002258+0000002258+000000000+000000340+0000002590+0000000008+I20000000000+0000002590+Z
128104001128104077-000151     128104006008766114676GIFT-WRAP C/PHANE ASSTD0000001000+00000955+00000+0001T   00000955+0000001713          1500 VG3112               2 Z
128104002128104077-000245     128104006001023759214GIFT-RIBBON METALLICx2 0000001000+00001303+00000+0001T   00001303+0000001713          1500 VG3112               2 Z
128105000128105               128105               170213SE     1500+00000+SE0000001564+0000001564+000000000+000000235+0000001790+0000000009+I20000000000+0000001790+Z
128105001128105077-000304     128105006001023483232GIFT-BAG 25X32CM E/DAY 0000001000+00001564+00000+0001T   00001564+0000001716          1500 VG3112               2 Z
128106000128106               128106               170213SE     1500+00000+SE0000000955+0000000955+000000000+000000144+0000001090+0000000009+I20000000000+0000001090+Z
128106001128106076-000017     128106006001811010022TWINE COTTON 50g-BALL  0000001000+00000955+00000+0001T   00000955+0000001718          1500 VG3810               2 Z
128107000128107               128107               170213SE     1500+00000+SE0000003997+0000003997+000000000+000000601+0000004590+0000000008+I20000000000+0000004590+Z
128107001128107077-000407     128107006003000145096G/BAG PP 19X26X8CM     0000001000+00001390+00000+0001T   00001390+0000001722          1500 VG3112               2 Z
128107002128107567-075699     128107006003000641277BK NOVEL CATEGORY A    0000001000+00002607+00000+0001T   00003129+0008301722          1500 VG3757               2 Z
128108000128108               128108               170213SE     1500+00000+SE0000001909+0000001909+000000000+000000288+0000002190+0000000007+I20000000000+0000002190+Z
128108001128108304-001011     128108006001023806727FLWR ROSE RED W/BEAR   0000001000+00000607+00000+0001T   00000825+0006481723          1500 VG3510               2 Z
128108002128108018-000177     128108006001023797513MUG MINI LOVE ASSTD    0000001000+00000738+00000+0001T   00000738+0000001723          1500 VG3515               2 Z
128108003128108903-000151     128108006009803374411SWT SML RND R/BOW LOLLY0000001000+00000564+00000+0001T   00000564+0000001723          1500 VG3150               2 Z
128109000128109               128109               170213SE     1500+00000+SE0000003299+0000003299+000000000+000000497+0000003790+0000000006+I20000000000+0000003790+Z
128109001128109077-000305     128109006003000395422GIFT-BAG WINE 10X35CM  0000001000+00001564+00000+0001T   00001564+0000001728          1500 VG3112               2 Z
128109002128109304-001011     128109006001023806727FLWR ROSE RED W/BEAR   0000001000+00000607+00000+0001T   00000825+0006481728          1500 VG3510               2 Z
128109003128109903-000155     128109006009803374435SWT LOLLY I LUV U HEART0000002000+00000564+00000+0001T   00000564+0000001728          1500 VG3150               2 Z
128110000128110               128110               170213SE     1500+00000+SE0000001390+0000001390+000000000+000000209+0000001590+0000000009+I20000000000+0000001590+Z
128110001128110007-000044     128110006009635831489DISPLAY-BOOK A4 10-PAGE0000001000+00001390+00000+0001T   00001390+0000001729          1500 VG3130               2 Z
128111000128111               128111               170213SE     1500+00000+SE0000009386+0000009386+000000000+000001410+0000010790+0000000006+I20000000000+0000010790+Z
128111001128111077-000314     128111006003000181148GIFT-BAG 11X14CM MATT  0000001000+00000955+00000+0001T   00000955+0000001736          1500 VG3112               2 Z
128111002128111018-005009     128111006001023725608MUG W/PLUSH-BEAR LOVE  0000002000+00003738+00000+0001T   00003738+0000001736          1500 VG3515               2 Z
128111003128111077-000314     128111006003000181148GIFT-BAG 11X14CM MATT  0000001000+00000955+00000+0001T   00000955+0000001736          1500 VG3112               2 Z
128112000128112               128112               170213SE     1500+00000+SE0000014246+0000014246+000000000+000002143+0000016380+0000000009+I20000000000+0000016380+Z
128112001128112304-001011     128112006001023806727FLWR ROSE RED W/BEAR   0000001000+00000607+00000+0001T   00000825+0006481737          1500 VG3510               2 Z
128112002128112077-000150-D   128112006003000054343GIFT-WRAP CELLPHANE CLR0000001000+00000955+00000+0001T   00000955+0000001737          1500 VG3112               2 Z
128112003128112018-000129     128112006001023403353MUG OCC. LOVE V-SHAPE  0000001000+00002781+00000+0001T   00002781+0000001737          1500 VG3515               2 Z
128112004128112368-000049     128112006003000536955PLUSH BEAR 15cm LOVE   0000001000+00004346+00000+0001T   00004607+0006481737          1500 VG3745               2 Z
128112005128112903-000155     128112006009803374435SWT LOLLY I LUV U HEART0000002000+00000564+00000+0001T   00000564+0000001737          1500 VG3150               2 Z
128112006128112903-000698     128112006002099007032SWT CANDY ECLAIRS 90g  0000001000+00001216+00000+0001T   00001216+0000001737          1500 VG3150               2 Z
128112007128112903-000844     128112005010478432567SWT CANDY DL LUV HEARTS0000001000+00001390+00000+0001T   00001390+0000001737          1500 VG3150               2 Z
128112008128112903-000482     128112006001704001397SWT SOFT-MINTS 60G     0000001000+00000955+00000+0001T   00000955+0000001737          1500 VG3150               2 Z
128112009128112903-000138     128112006002099004314SWT GS WINE GUMS 60G   0000001000+00000868+00000+0001T   00000868+0000001737          1500 VG3150               2 Z
128113000128113               128113               170213SE     1500+00000+SE0000000738+0000000738+000000000+000000111+0000000840+0000000009+I20000000000+0000000840+Z
128113001128113018-000177     128113006001023797513MUG MINI LOVE ASSTD    0000001000+00000738+00000+0001T   00000738+0000001738          1500 VG3515               2 Z
128114000128114               128114               170213SE     1500+00000+SE0000003738+0000003738+000000000+000000561+0000004290+0000000009+I20000000000+0000004290+Z
128114001128114366-000301     128114006003000421077DRESSUP TIARA & EARRING0000001000+00003738+00000+0001T   00003738+0000001739          1500 VG3131               2 Z
128115000128115               128115               170213SE     1500+00000+SE0000002606+0000002606+000000000+000000392+0000002990+0000000008+I20000000000+0000002990+Z
128115001128115903-000194     128115006009826020616SWT CHOC RP LOLLY 25G  0000002000+00001303+00000+0001T   00001390+0006481743          1500 VG3150               2 Z
128116000128116               128116               170213SE     1500+00000+SE0000002780+0000002780+000000000+000000418+0000003190+0000000008+I20000000000+0000003190+Z
128116001128116077-000010-C   128116006001023123879CREPE-PAPER RED        0000001000+00000868+00000+0001T   00000868+0000001745          1500 VG3112               2 Z
128116002128116077-000239     128116006003000160419GIFT-RIBBON ROLL PEARL 0000001000+00001912+00000+0001T   00001912+0000001745          1500 VG3112               2 Z
128117000128117               128117               170213SE     1500+00000+SE0000004860+0000004860+000000000+000000729+0000005589-0000000000+E00000000000+0000000000+Z
128117001128117001-999904     128117000000000999904PROMO/ADVERTISING      0000001000+00004860+00000+0001T   00000000+000000              1500 VG39042IC            2 Z
128118000128118               128118               170213SE     1500+00000+SE0000004860-0000004860-000000000+000000729-0000005590-0000000001+I20000000000+0000005590-Z
128118001128118001-999904     128118000000000999904PROMO/ADVERTISING      0000001000-00004860+00000+0001T   00000000+0000001749          1500 VG39042IC            2 Z
A17021300                                          09072631SESLAVE 2                       VG32IC
A17021301                                          10100557SESLAVE 2                       VG32IC
C12806500                                          170213SE304-001011     15135618SLAVE 2     VG32IC0000000000+0000000000+0010000001000+
M17021301                              SHIEHAAM    SESLAVE 1 NOT USED                                SLAVE 2 Z/READING R=5401.17                             C/BANKING R=5105.40                             C/CARDS   R=946.65                              D/CARDS   R=NONE                                P/OUTS    R=55.90                       CASHIER PAULINA BALANCED                        SLAVE 3 Z/READING R=4470.58                             C/BANKING R=4502.30                             C/CARDS   R=635.81                              D/CARDS   R=NONE                                P/OUTS    R=NONE                        CASHIER THIOFELIUS BALANCED                     SLAVE 4 NOT USED                                                                                THANKS                                          SE
M17021302                              IT          SELAST TILLS SLIP NUMBER                                                                          SLAVE 1:NOT USED                                SLAVE 2:128116                                  SLAVE 3:131883                                  SLAVE 4:NOT USED                                                                                THANKS                                          SE
M17021391                              CASH        SESLAVE 2                       Z-REPORT No.   641TOTAL (Sales - Refunds)           6107.95       CASH TO BE BANKED                 5105.40       DEBIT CARDS                          0.00       CREDIT CARDS                       946.65       Z-READING                         6052.05       AIRTIME DEBIT CARD SALES             0.00       AIRTIME CARD SALES                   0.00       OVERS/UNDERS                         0.00       AIRTIME CASH SALES                   0.00       GIFT CARDS                           0.00       GIFT CARD CASH SALES                 0.00       PROMO/ADVERTISING                   55.89       ROUNDING                             0.01       T O T A L  CASH PAYOUTS             55.90                                                                                                                                                                                                                                                      Z
M17021392                              CASH        SEABSENT                                                                                                                                                                                          ANNUAL LEAVE                                                                                                                                                                                    DAY OFF                                                                                                                                                                                         COMMENTS                                                          CASHIER PAULINA BALANCED                                                                                                                                                                                                                                                                                                     Z
Y17021300                                          SE00000000540117+000108
ZSE17021407523 SLAVE 2      SALES DATA                     NEXT INVOICE NO.  128119 0641
