131815000131815               131815               170213SE     1500+00000+SE0000001129+0000001129+000000000+000000170+0000001290+0000000009+I20000000000+0000001290+Z
131815001131815079-009702-G   131815008427973060787PAPER SIRIO A2 FUSHIA  0000001000+00001129+00000+0001T   00001129+0000000908          1500 K15130               3 Z
131816000131816               131816               170213SE     1500+00000+SE0000007640+0000007640+000000000+000001152+0000008790+0000000002+I20000000000+0000008790+Z
131816001131816077-000151     131816006008766114676GIFT-WRAP C/PHANE ASSTD0000003000+00000955+00000+0001T   00000955+0000000915          1500 K15112               3 Z
131816002131816077-000150-D   131816006003000054343GIFT-WRAP CELLPHANE CLR0000005000+00000955+00000+0001T   00000955+0000000915          1500 K15112               3 Z
131817000131817               131817               170213SE     1500+00000+SE0000011280+0000011280+000000000+000001700+0000012980+0000000000+I20000000000+0000012980+Z
131817001131817903-000155     131817006009803374435SWT LOLLY I LUV U HEART0000020000+00000564+00000+0001T   00000564+0000001057          1500 K15150               3 Z
131818000131818               131818               170213SE     1500+00000+SE0000011907+0000011907+000000000+000001789+0000013690+0000000006+I20000000000+0000013690+Z
131818001131818567-075466     131818009780263252859BK NOVEL ROMANCE       0000001000+00002607+00000+0001T   00002781+0006481059          1500 K15757               3 Z
131818002131818301-085001     131818006003000297610ORN WATERBALL LOVE ASST0000001000+00005129+00000+0001T   00005129+0000001059          1500 K15505               3 Z
131818003131818077-000310     131818006001023608635GIFT-BAG 18X23CM GLOSS 0000001000+00001390+00000+0001T   00001390+0000001059          1500 K15112               3 Z
131818004131818018-000129     131818006001023403353MUG OCC. LOVE V-SHAPE  0000001000+00002781+00000+0001T   00002781+0000001059          1500 K15515               3 Z
131819000131819               131819               170213SE     1500+00000+SE0000005127+0000005127+000000000+000000770+0000005890+0000000007+I20000000000+0000005890+Z
131819001131819106-001109     131819006003000666355W/BOTTLE 650ml         0000001000+00002781+00000+0001T   00002781+0000001121          1500 K15210               3 Z
131819002131819108-000999     131819006003000667185TUMBLER PL 8-PACK 200ML0000001000+00002346+00000+0001T   00002346+0000001121          1500 K15210               3 Z
131820000131820               131820               170213SE     1500+00000+SE0000003909+0000003909+000000000+000000588+0000004490+0000000007+I20000000000+0000004490+Z
131820001131820007-000160     131820006009685857286NOTE-BOOK A5 SHORTHAND 0000003000+00001303+00000+0001T   00001303+0000001121          1500 K15130               3 Z
131821000131821               131821               170213SE     1500+00000+SE0000001912+0000001912+000000000+000000287+0000002190+0000000009+I20000000000+0000002190+Z
131821001131821106-001105     131821006001023711564WATER-BOTTLE 500ml     0000001000+00001912+00000+0001T   00001912+0000001122          1500 K15210               3 Z
131822000131822               131822               170213SE     1500+00000+SE0000001128+0000001128+000000000+000000170+0000001290+0000000008+I20000000000+0000001290+Z
131822001131822007-000402     131822006009635830864EXERCISE-BOOK A4 72PGE 0000002000+00000564+00000+0001T   00000564+0000001125          1500 K15130               3 Z
131823000131823               131823               170213SE     1500+00000+SE0000000868+0000000868+000000000+000000131+0000000990+0000000009+I20000000000+0000000990+Z
131823001131823071-000001-A   131823006003000129607PENCIL LEAD 0.5mm  2PK 0000001000+00000868+00000+0001T   00000868+0000001141          1500 K15130               3 Z
131824000131824               131824               170213SE     1500+00000+SE0000004453+0000004453+000000000+000000671+0000005120+0000000004+I20000000000+0000005120+Z
131824001131824077-000151     131824006008766114676GIFT-WRAP C/PHANE ASSTD0000001000+00000955+00000+0001T   00000955+0000001143          1500 K15112               3 Z
131824002131824018-000127     131824006001023380289MUG OCC STRAIGHT LOVE  0000001000+00001564+00000+0001T   00001912+0006481143          1500 K15515               3 Z
131824003131824304-001011     131824006001023806727FLWR ROSE RED W/BEAR   0000001000+00000607+00000+0001T   00000825+0006481143          1500 K15510               3 Z
131824004131824903-000155     131824006009803374435SWT LOLLY I LUV U HEART0000001000+00000564+00000+0001T   00000564+0000001143          1500 K15150               3 Z
131824005131824903-000099     131824006923431501646SWT CANDY GS WTCH B/LET0000001000+00000286+00000+0001T   00000286+0000001143          1500 K15150               3 Z
131824006131824903-000094     131824006923431501622SWT GS CANDY NECKLACE  0000001000+00000477+00000+0001T   00000477+0000001143          1500 K15150               3 Z
131825000131825               131825               170213SE     1500+00000+SE0000025291+0000025291+000000000+000003799+0000029090+0000000000+I20000000000+0000029090+Z
131825001131825463-000366     131825006001023789136SWIM W/NOODLE 150cm    0000003000+00002781+00000+0001T   00002781+0000001145          1500 K15785               3 Z
131825002131825036-000063     131825006009654960436COATHANGERS VIRGIN 5PCE0000001000+00001912+00000+0001T   00001912+0000001145          1500 K15212               3 Z
131825003131825140-001004     131825006001023880932FLY-RIBBONS 4PCE PL    0000001000+00001564+00000+0001T   00001564+0000001145          1500 K15830               3 Z
131825004131825140-006008     131825006001023803214FLY-SWATTERS   SET-OF-40000001000+00002781+00000+0001T   00002781+0000001145          1500 K15830               3 Z
131825005131825051-600601     131825006003000266357GARDENING KNEE PAD ASST0000002000+00003738+00000+0001T   00003738+0000001145          1500 K15820               3 Z
131825006131825071-081091     131825006001151010287STAED/GENKEM ALL-STICK 0000001000+00001303+00000+0001T   00001303+0000001145          1500 K15130               3 Z
131825007131825071-003853     131825006001023715579PENCIL BASIC HB 12PCE  0000001000+00001912+00000+0001T   00001912+0000001145          1500 K15130               3 Z
131826000131826               131826               170213SE     1500+00000+SE0000003215+0000003215+000000000+000000483+0000003690+0000000008+I20000000000+0000003690+Z
131826001131826077-000303     131826006001023593757GIFT-BAG PAPER MED     0000001000+00001651+00000+0001T   00001651+0000001154          1500 K15112               3 Z
131826002131826018-000127     131826006001023380289MUG OCC STRAIGHT LOVE  0000001000+00001564+00000+0001T   00001912+0006481154          1500 K15515               3 Z
131827000131827               131827               170213SE     1500+00000+SE0000004691+0000004691+000000000+000000706+0000005390+0000000007+I20000000000+0000005390+Z
131827001131827301-085004     131827006003000420469ORN LOVE PLAQUE 21X10CM0000001000+00003477+00000+0001T   00003999+0006481158          1500 K15505               3 Z
131827002131827304-001011     131827006001023806727FLWR ROSE RED W/BEAR   0000002000+00000607+00000+0001T   00000825+0006481158          1500 K15510               3 Z
131828000131828               131828               170213SE     1500+00000+SE0000010258+0000010258+000000000+000001540+0000011790+0000000008+I20000000000+0000011790+Z
131828001131828001-091415     131828006003000329113W/GLS OCC. LOVE 2PC 2800000001000+00008694+00000+0001T   00009650+0006481304          1500 K15515               3 Z
131828002131828077-000305     131828006003000395422GIFT-BAG WINE 10X35CM  0000001000+00001564+00000+0001T   00001564+0000001304          1500 K15112               3 Z
131829000131829               131829               170213SE     1500+00000+SE0000002128+0000002128+000000000+000000320+0000002440+0000000008+I20000000000+0000002440+Z
131829001131829903-000155     131829006009803374435SWT LOLLY I LUV U HEART0000001000+00000564+00000+0001T   00000564+0000001306          1500 K15150               3 Z
131829002131829018-000127     131829006001023380289MUG OCC STRAIGHT LOVE  0000001000+00001564+00000+0001T   00001912+0006481306          1500 K15515               3 Z
131830000131830               131830               170213SE     1500+00000+SE0000002692+0000002692+000000000+000000405+0000003097+0000000000+I40000003097+0000000000+Z
131830001131830077-000305     131830006003000395422GIFT-BAG WINE 10X35CM  0000001000+00001564+00000+0001T   00001564+0000001311          1500 K15112               3 Z
131830002131830903-000155     131830006009803374435SWT LOLLY I LUV U HEART0000002000+00000564+00000+0001T   00000564+0000001311          1500 K15150               3 Z
131831000131831               131831               170213SE     1500+00000+SE0000031125+0000031125+000000000+000004670+0000035795+0000000000+I40000035795+0000000000+Z
131831001131831105-009015     131831006003000467204STORAGE BOX 32L FROSTED0000001000+00011999+00000+0001T   00011999+0000001344          1500 K15210               3 Z
131831002131831562-002007     131831006003000228188LEARNING EDU ALPHABET  0000001000+00007390+00000+0001T   00007390+0000001344          1500 K15755               3 Z
131831003131831562-002009     131831006003000228423EDU SPELLING PUZZLES   0000001000+00007390+00000+0001T   00007390+0000001344          1500 K15755               3 Z
131831004131831368-000049     131831006003000536955PLUSH BEAR 15cm LOVE   0000001000+00004346+00000+0001T   00004607+0006481344          1500 K15745               3 Z
131832000131832               131832               170213SE     1500+00000+SE0000000955+0000000955+000000000+000000144+0000001090+0000000009+I20000000000+0000001090+Z
131832001131832077-000151     131832006008766114676GIFT-WRAP C/PHANE ASSTD0000001000+00000955+00000+0001T   00000955+0000001346          1500 K15112               3 Z
131833000131833               131833               170213SE     1500+00000+SE0000001517+0000001517+000000000+000000228+0000001740+0000000005+I20000000000+0000001740+Z
131833001131833071-081101-A   131833006003000326549GLUE-STICK 25g BLISTER 0000001000+00000825+00000+0001T   00000825+0000001347          1500 K15130               3 Z
131833002131833079-009700-D   131833006003000545711PAPER SIRIO A4 RED COL.0000002000+00000346+00000+0001T   00000346+0000001347          1500 K15130               3 Z
131834000131834               131834               170213SE     1500+00000+SE0000046254+0000046254+000000000+000006941+0000053190+0000000005+I20000000000+0000053190+Z
131834001131834077-000290     131834006001023902023GIFT BOX 26x32x13cm    0000001000+00001912+00000+0001T   00001912+0000001425          1500 K15112               3 Z
131834002131834001-000430     131834006003000662128BEER-TUMBLER GLASS     0000001000+00010868+00000+0001T   00010868+0000001425          1500 K15515               3 Z
131834003131834203-000120     131834006003000566976BAR ACC. SET 5PC       0000001000+00018694+00000+0001T   00018694+0000001425          1500 K15300               3 Z
131834004131834106-000899     131834006003000653287WTR BOTTLE 2L W/HANDLE 0000001000+00003042+00000+0001T   00003738+0008301425          1500 K15210               3 Z
131834005131834085-007021     131834006003000136902P/KNIFE LED 16-FUNCTION0000001000+00011738+00000+0001T   00011738+0000001425          1500 K15305               3 Z
131835000131835               131835               170213SE     1500+00000+SE0000009561+0000009561+000000000+000001436+0000010990+0000000007+I20000000000+0000010990+Z
131835001131835103-000033     131835006003000510160BASKET WOVEN W/HANDLES 0000001000+00004607+00000+0001T   00004607+0000001427          1500 K15300               3 Z
131835002131835565-000071     131835006003000643387NOVELTY WIND UP CHATTER0000001000+00001216+00000+0001T   00001216+0000001427          1500 K15745               3 Z
131835003131835162-095020     131835006001492950204#TAG KIDS EARRINGS 3PCK0000001000+00003738+00000+0001T   00003738+0000001427          1500 K15160               3 Z
131836000131836               131836               170213SE     1500+00000+SE0000000477+0000000477+000000000+000000072+0000000540+0000000009+I20000000000+0000000540+Z
131836001131836083-000049     131836004891035200024CIG-LIGHTER DISPOSABLE 0000001000+00000477+00000+0001T   00000477+0000001428          1500 K15315               3 Z
131837000131837               131837               170213SE     1500+00000+SE0000003476+0000003476+000000000+000000522+0000003990+0000000008+I20000000000+0000003990+Z
131837001131837080-000113     131837006003000237449CARD&ENVLPE - LOVE     0000001000+00001912+00000+0001T   00001912+0000001443          1500 K15112               3 Z
131837002131837077-000399     131837006003000139514GIFT BAG 18X23CM E/DAY 0000001000+00001564+00000+0001T   00001564+0000001443          1500 K15112               3 Z
131838000131838               131838               170213SE     1500+00000+SE0000005603+0000005603+000000000+000000842+0000006440+0000000005+I20000000000+0000006440+Z
131838001131838018-000170     131838006001023775528MUG OCC. LOVE 2PC MINI 0000001000+00002346+00000+0001T   00002346+0000001448          1500 K15515               3 Z
131838002131838304-001011     131838006001023806727FLWR ROSE RED W/BEAR   0000001000+00000607+00000+0001T   00000825+0006481448          1500 K15510               3 Z
131838003131838080-000113     131838006003000237449CARD&ENVLPE - LOVE     0000001000+00001912+00000+0001T   00001912+0000001448          1500 K15112               3 Z
131838004131838018-000177     131838006001023797513MUG MINI LOVE ASSTD    0000001000+00000738+00000+0001T   00000738+0000001448          1500 K15515               3 Z
131839000131839               131839               170213SE     1500+00000+SE0000013732+0000013732+000000000+000002061+0000015793+0000000000+I40000015793+0000000000+Z
131839001131839903-000671     131839006009803358015SWT SHERBET BLUE LIPS  0000001000+00000260+00000+0001T   00000260+0000001450          1500 K15150               3 Z
131839002131839903-000670     131839006009803358008SWT SHERBET RED LIPS   0000001000+00000260+00000+0001T   00000260+0000001450          1500 K15150               3 Z
131839003131839104-000095     131839006003000614714BASKET PL 23x15x12cm   0000001000+00003738+00000+0001T   00003738+0000001450          1500 K15210               3 Z
131839004131839903-000619     131839006003000672455SWT LOLLY STR/BRRY 140G0000003000+00001912+00000+0001T   00001912+0000001450          1500 K15150               3 Z
131839005131839104-000095     131839006003000614714BASKET PL 23x15x12cm   0000001000+00003738+00000+0001T   00003738+0000001450          1500 K15210               3 Z
131840000131840               131840               170213SE     1500+00000+SE0000001952+0000001952+000000000+000000295+0000002240+0000000007+I20000000000+0000002240+Z
131840001131840304-001011     131840006001023806727FLWR ROSE RED W/BEAR   0000002000+00000607+00000+0001T   00000825+0006481451          1500 K15510               3 Z
131840002131840018-000177     131840006001023797513MUG MINI LOVE ASSTD    0000001000+00000738+00000+0001T   00000738+0000001451          1500 K15515               3 Z
131841000131841               131841               170213SE     1500+00000+SE0000003427+0000003427+000000000+000000517+0000003940+0000000004+I20000000000+0000003940+Z
131841001131841304-001011     131841006001023806727FLWR ROSE RED W/BEAR   0000001000+00000607+00000+0001T   00000825+0006481452          1500 K15510               3 Z
131841002131841903-000155     131841006009803374435SWT LOLLY I LUV U HEART0000005000+00000564+00000+0001T   00000564+0000001452          1500 K15150               3 Z
131842000131842               131842               170213SE     1500+00000+SE0000003561+0000003561+000000000+000000536+0000004090+0000000007+I20000000000+0000004090+Z
131842001131842018-000127     131842006001023380289MUG OCC STRAIGHT LOVE  0000001000+00001564+00000+0001T   00001912+0006481455          1500 K15515               3 Z
131842002131842304-001011     131842006001023806727FLWR ROSE RED W/BEAR   0000001000+00000607+00000+0001T   00000825+0006481455          1500 K15510               3 Z
131842003131842077-000310     131842006001023608635GIFT-BAG 18X23CM GLOSS 0000001000+00001390+00000+0001T   00001390+0000001455          1500 K15112               3 Z
131843000131843               131843               170213SE     1500+00000+SE0000000564+0000000564+000000000+000000085+0000000640+0000000009+I20000000000+0000000640+Z
131843001131843903-000155     131843006009803374435SWT LOLLY I LUV U HEART0000001000+00000564+00000+0001T   00000564+0000001456          1500 K15150               3 Z
131844000131844               131844               170213SE     1500+00000+SE0000005302+0000005302+000000000+000000796+0000006090+0000000008+I20000000000+0000006090+Z
131844001131844077-000932     131844006003000409808G/WRAP 700mmx5m PATTERN0000001000+00003738+00000+0001T   00003738+0000001501          1500 K15112               3 Z
131844002131844071-005214     131844006003000152544CELLOTAPE SUPER REFILL 0000001000+00001564+00000+0001T   00001564+0000001501          1500 K15130               3 Z
131845000131845               131845               170213SE     1500+00000+SE0000002781+0000002781+000000000+000000418+0000003190+0000000009+I20000000000+0000003190+Z
131845001131845077-000349-B   131845006001023908315G/RIBBON 3ROLLS 12BOWS 0000001000+00002781+00000+0001T   00002781+0000001504          1500 K15112               3 Z
131846000131846               131846               170213SE     1500+00000+SE0000004345+0000004345+000000000+000000653+0000004990+0000000008+I20000000000+0000004990+Z
131846001131846018-005009     131846006001023725608MUG W/PLUSH-BEAR LOVE  0000001000+00003738+00000+0001T   00003738+0000001520          1500 K15515               3 Z
131846002131846304-001011     131846006001023806727FLWR ROSE RED W/BEAR   0000001000+00000607+00000+0001T   00000825+0006481520          1500 K15510               3 Z
131847000131847               131847               170213SE     1500+00000+SE0000007733+0000007733+000000000+000001163+0000008896+0000000000+I40000008896+0000000000+Z
131847001131847304-001011     131847006001023806727FLWR ROSE RED W/BEAR   0000002000+00000607+00000+0001T   00000825+0006481558          1500 K15510               3 Z
131847002131847077-000475     131847006003000640775GIFT-BAG DESIGNER MED  0000001000+00002781+00000+0001T   00002781+0000001558          1500 K15112               3 Z
131847003131847018-005009     131847006001023725608MUG W/PLUSH-BEAR LOVE  0000001000+00003738+00000+0001T   00003738+0000001558          1500 K15515               3 Z
131848000131848               131848               170213SE     1500+00000+SE0000002685+0000002685+000000000+000000404+0000003080+0000000009+I20000000000+0000003080+Z
131848001131848079-009700-D   131848006003000545711PAPER SIRIO A4 RED COL.0000001000+00000346+00000+0001T   00000346+0000001600          1500 K15130               3 Z
131848002131848079-009700-G   131848006003000545957PAPER SIRIO A4 LIME COL0000001000+00000346+00000+0001T   00000346+0000001600          1500 K15130               3 Z
131848003131848079-009700-D   131848006003000545711PAPER SIRIO A4 RED COL.0000001000+00000346+00000+0001T   00000346+0000001600          1500 K15130               3 Z
131848004131848079-009700-L   131848006003000546350PAPER SIRIO A4 YELLOW  0000001000+00000346+00000+0001T   00000346+0000001600          1500 K15130               3 Z
131848005131848079-009700-F   131848006003000545872PAPER SIRIO A4 TURQ COL0000001000+00000346+00000+0001T   00000346+0000001600          1500 K15130               3 Z
131848006131848076-000017     131848006001811010022TWINE COTTON 50g-BALL  0000001000+00000955+00000+0001T   00000955+0000001600          1500 K15810               3 Z
131849000131849               131849               170213SE     1500+00000+SE0000002128+0000002128+000000000+000000320+0000002440+0000000008+I20000000000+0000002440+Z
131849001131849077-000305     131849006003000395422GIFT-BAG WINE 10X35CM  0000001000+00001564+00000+0001T   00001564+0000001601          1500 K15112               3 Z
131849002131849903-000155     131849006009803374435SWT LOLLY I LUV U HEART0000001000+00000564+00000+0001T   00000564+0000001601          1500 K15150               3 Z
131850000131850               131850               170213SE     1500+00000+SE0000025106+0000025106+000000000+000003773+0000028870+0000000009+I20000000000+0000028870+Z
131850001131850071-081101-A   131850006003000326549GLUE-STICK 25g BLISTER 0000006000+00000825+00000+0001T   00000825+0000001604          1500 K15130               3 Z
131850002131850071-001015     131850006001023910387MARKERS PERMANENT 3PK  0000001000+00001912+00000+0001T   00001912+0000001604          1500 K15130               3 Z
131850003131850079-006494     131850006003000159864GLITTER GLUE 5PCE 11cm 0000001000+00001564+00000+0001T   00001564+0000001604          1500 K15130               3 Z
131850004131850071-003012     131850006001023802996PEN CLICK 10PK BLUE    0000001000+00001912+00000+0001T   00001912+0000001604          1500 K15130               3 Z
131850005131850071-003004     131850006003000662821PEN BALL POINT 3PC BLUE0000001000+00000955+00000+0001T   00000955+0000001604          1500 K15130               3 Z
131850006131850071-003003     131850006003000144525PEN BALL PEN 3PCE BLACK0000001000+00000955+00000+0001T   00000955+0000001604          1500 K15130               3 Z
131850007131850007-000128     131850006009635830475BOOK H/COVER A5 96-PAGE0000002000+00000738+00000+0001T   00000738+0000001604          1500 K15130               3 Z
131850008131850366-000301     131850006003000421077DRESSUP TIARA & EARRING0000002000+00003738+00000+0001T   00003738+0000001604          1500 K15131               3 Z
131850009131850007-000555     131850006001023848239MEMO-PAD MINI LOVE     0000006000+00000651+00000+0001T   00000651+0000001604          1500 K15130               3 Z
131851000131851               131851               170213SE     1500+00000+SE0000002346+0000002346+000000000+000000352+0000002690+0000000008+I20000000000+0000002690+Z
131851001131851077-000309-A   131851006003000671007GIFT-BAG HOLOGRAM JMB  0000001000+00002346+00000+0001T   00002346+0000001605          1500 K15112               3 Z
131852000131852               131852               170213SE     1500+00000+SE0000000433+0000000433+000000000+000000065+0000000490+0000000008+I20000000000+0000000490+Z
131852001131852903-000183     131852006003000451043SWT LB HEART LOLLY     0000001000+00000433+00000+0001T   00000433+0000001606          1500 K15150               3 Z
131853000131853               131853               170213SE     1500+00000+SE0000000868+0000000868+000000000+000000131+0000000990+0000000009+I20000000000+0000000990+Z
131853001131853077-000010-C   131853006001023123879CREPE-PAPER RED        0000001000+00000868+00000+0001T   00000868+0000001638          1500 K15112               3 Z
131854000131854               131854               170213SE     1500+00000+SE0000007640+0000007640+000000000+000001152+0000008790+0000000002+I20000000000+0000008790+Z
131854001131854077-000151     131854006008766114676GIFT-WRAP C/PHANE ASSTD0000008000+00000955+00000+0001T   00000955+0000001638          1500 K15112               3 Z
131855000131855               131855               170213SE     1500+00000+SE0000004257+0000004257+000000000+000000640+0000004890+0000000007+I20000000000+0000004890+Z
131855001131855018-000139     131855006003000547227MUG S/WARE SLANTED SHPE0000001000+00001738+00000+0001T   00002781+0008281642          1500 K15515               3 Z
131855002131855018-000127     131855006001023380289MUG OCC STRAIGHT LOVE  0000001000+00001564+00000+0001T   00001912+0006481642          1500 K15515               3 Z
131855003131855077-000302     131855008010410010195GIFT-BAG 18X23CM E/D   0000001000+00000955+00000+0001T   00000955+0000001642          1500 K15112               3 Z
131856000131856               131856               170213SE     1500+00000+SE0000002519+0000002519+000000000+000000379+0000002890+0000000008+I20000000000+0000002890+Z
131856001131856077-000302     131856008010410010195GIFT-BAG 18X23CM E/D   0000001000+00000955+00000+0001T   00000955+0000001643          1500 K15112               3 Z
131856002131856018-000127     131856006001023380289MUG OCC STRAIGHT LOVE  0000001000+00001564+00000+0001T   00001912+0006481643          1500 K15515               3 Z
131857000131857               131857               170213SE     1500+00000+SE0000007476+0000007476+000000000+000001122+0000008590+0000000008+I20000000000+0000008590+Z
131857001131857031-005923     131857006003000040322P/FRAME CERT PL 21x29.70000002000+00003738+00000+0001T   00003738+0000001647          1500 K15510               3 Z
131858000131858               131858               170213SE     1500+00000+SE0000005820+0000005820+000000000+000000874+0000006690+0000000004+I20000000000+0000006690+Z
131858001131858018-000170     131858006001023775528MUG OCC. LOVE 2PC MINI 0000002000+00002346+00000+0001T   00002346+0000001649          1500 K15515               3 Z
131858002131858903-000151     131858006009803374411SWT SML RND R/BOW LOLLY0000002000+00000564+00000+0001T   00000564+0000001649          1500 K15150               3 Z
131859000131859               131859               170213SE     1500+00000+SE0000001564+0000001564+000000000+000000235+0000001790+0000000009+I20000000000+0000001790+Z
131859001131859252-000004     131859006001023473332CURTN-HOOK BRS R7 50PCE0000001000+00001564+00000+0001T   00001564+0000001650          1500 K15810               3 Z
131860000131860               131860               170213SE     1500+00000+SE0000001042+0000001042+000000000+000000157+0000001190+0000000009+I20000000000+0000001190+Z
131860001131860007-000204     131860006009635835272EXAM-PAD 60SHT PUNCHED 0000001000+00001042+00000+0001T   00001042+0000001724          1500 K15130               3 Z
131861000131861               131861               170213SE     1500+00000+SE0000030635+0000030635+000000000+000004616+0000035250+0000000001+I20000000000+0000035250+Z
131861001131861039-080961     131861006001023736024C/SET 1GLS-HOLDER+6LITE0000001000+00001738+00000+0001T   00002781+0008281728          1500 K15510               3 Z
131861002131861077-000302     131861008010410010195GIFT-BAG 18X23CM E/D   0000002000+00000955+00000+0001T   00000955+0000001728          1500 K15112               3 Z
131861003131861018-000138     131861006003000547104MUG NOVELTY CER. T-SHPE0000001000+00001738+00000+0001T   00002260+0008281728          1500 K15515               3 Z
131861004131861903-000151     131861006009803374411SWT SML RND R/BOW LOLLY0000039000+00000564+00000+0001T   00000564+0000001728          1500 K15150               3 Z
131861005131861077-000245     131861006001023759214GIFT-RIBBON METALLICx2 0000001000+00001303+00000+0001T   00001303+0000001728          1500 K15112               3 Z
131861006131861903-000159     131861006003000417629SWT LB SMALL DUMMIE    0000005000+00000390+00000+0001T   00000390+0000001728          1500 K15150               3 Z
131862000131862               131862               170213SE     1500+00000+SE0000003072+0000003072+000000000+000000462+0000003530+0000000004+I20000000000+0000003530+Z
131862001131862903-000099     131862006923431501646SWT CANDY GS WTCH B/LET0000003000+00000286+00000+0001T   00000286+0000001729          1500 K15150               3 Z
131862002131862018-000177     131862006001023797513MUG MINI LOVE ASSTD    0000003000+00000738+00000+0001T   00000738+0000001729          1500 K15515               3 Z
131863000131863               131863               170213SE     1500+00000+SE0000000607+0000000607+000000000+000000092+0000000690+0000000009+I20000000000+0000000690+Z
131863001131863304-001011     131863006001023806727FLWR ROSE RED W/BEAR   0000001000+00000607+00000+0001T   00000825+0006481730          1500 K15510               3 Z
131864000131864               131864               170213SE     1500+00000+SE0000001648+0000001648+000000000+000000249+0000001890+0000000007+I20000000000+0000001890+Z
131864001131864903-000159     131864006003000417629SWT LB SMALL DUMMIE    0000002000+00000390+00000+0001T   00000390+0000001731          1500 K15150               3 Z
131864002131864036-000606     131864006003000322213WASHING PEGS PACK 20   0000001000+00000868+00000+0001T   00001390+0008301731          1500 K15212               3 Z
131865000131865               131865               170213SE     1500+00000+SE0000002346+0000002346+000000000+000000352+0000002690+0000000008+I20000000000+0000002690+Z
131865001131865071-000404     131865006001023676696P/SHARPENER WORLD-GLOBE0000001000+00002346+00000+0001T   00002346+0000001732          1500 K15130               3 Z
131866000131866               131866               170213SE     1500+00000+SE0000002779+0000002779+000000000+000000418+0000003190+0000000007+I20000000000+0000003190+Z
131866001131866077-000317     131866006001023609748GIFT-BAG 11X14CM E/D AN0000001000+00000651+00000+0001T   00000651+0000001733          1500 K15112               3 Z
131866002131866018-000177     131866006001023797513MUG MINI LOVE ASSTD    0000001000+00000738+00000+0001T   00000738+0000001733          1500 K15515               3 Z
131866003131866304-001204     131866006001023737984FLOWER OCC. TEDDY/ROSES0000001000+00001390+00000+0001T   00001564+0006481733          1500 K15510               3 Z
131867000131867               131867               170213SE     1500+00000+SE0000004346+0000004346+000000000+000000652+0000004990+0000000008+I20000000000+0000004990+Z
131867001131867368-000049     131867006003000536955PLUSH BEAR 15cm LOVE   0000001000+00004346+00000+0001T   00004607+0006481734          1500 K15745               3 Z
131868000131868               131868               170213SE     1500+00000+SE0000001912+0000001912+000000000+000000287+0000002190+0000000009+I20000000000+0000002190+Z
131868001131868007-000230     131868006001023995315LABELS STICK-ON STARS  0000001000+00001912+00000+0001T   00001912+0000001734          1500 K15130               3 Z
131869000131869               131869               170213SE     1500+00000+SE0000025108+0000025108+000000000+000003775+0000028880+0000000003+I20000000000+0000028880+Z
131869001131869903-002901     131869005996071650655QUICK MILK 5 S/BERRY   0000002000+00001738+00000+0001T   00001738+0000001737          1500 K15150               3 Z
131869002131869903-000897     131869008692806325207SWT CHOC DBL MINI ROLL 0000002000+00000955+00000+0001T   00000955+0000001737          1500 K15150               3 Z
131869003131869077-000303     131869006001023593757GIFT-BAG PAPER MED     0000001000+00001651+00000+0001T   00001651+0000001737          1500 K15112               3 Z
131869004131869903-000498     131869006001704013048SWT CHOC MIGHTY MALTS  0000002000+00001303+00000+0001T   00001303+0000001737          1500 K15150               3 Z
131869005131869903-000517     131869006001704012768SWT STRAWS FIZZY CHERRY0000002000+00001303+00000+0001T   00001303+0000001737          1500 K15150               3 Z
131869006131869903-000087     131869006001704000161SWT SPECKLED-EGGS 50G  0000002000+00001216+00000+0001T   00001216+0000001737          1500 K15150               3 Z
131869007131869306-000021-C   131869006003000567294EARBUDS 300PCE IN TUB  0000001000+00001912+00000+0001T   00001912+0000001737          1500 K15200               3 Z
131869008131869306-000039     131869006003000622566COTTON EARBUDS HOLDER  0000001000+00002781+00000+0001T   00002781+0000001737          1500 K15200               3 Z
131869009131869903-000297     131869006001704002950SWT MS WILD BERRY 50G  0000002000+00000955+00000+0001T   00000955+0000001737          1500 K15150               3 Z
131869010131869566-000359     131869006003000582709STICKER BOOK LOVE SPARK0000001000+00002173+00000+0001T   00002260+0006481737          1500 K15130               3 Z
131869011131869077-000303     131869006001023593757GIFT-BAG PAPER MED     0000001000+00001651+00000+0001T   00001651+0000001737          1500 K15112               3 Z
131870000131870               131870               170213SE     1500+00000+SE0000000738+0000000738+000000000+000000111+0000000840+0000000009+I20000000000+0000000840+Z
131870001131870564-001029     131870006001023690821BUBBLE WEDDING DOVES   0000001000+00000738+00000+0001T   00000738+0000001740          1500 K15131               3 Z
131871000131871               131871               170213SE     1500+00000+SE0000001651+0000001651+000000000+000000248+0000001890+0000000009+I20000000000+0000001890+Z
131871001131871077-000315     131871006003000181186GIFT-BAG 20x28cm MATT  0000001000+00001651+00000+0001T   00001651+0000001747          1500 K15112               3 Z
131872000131872               131872               170213SE     1500+00000+SE0000007038+0000007038+000000000+000001057+0000008090+0000000005+I20000000000+0000008090+Z
131872001131872563-000317-B   131872006001023776174SERVIETTES PLN WHT PK400000001000+00001390+00000+0001T   00001390+0000001758          1500 K15214               3 Z
131872002131872563-000318-L   131872006003000407088SERVIETTES 33cm RED    0000001000+00002346+00000+0001T   00002346+0000001758          1500 K15214               3 Z
131872003131872006-000166-H   131872006003000608096BALLOONS HELIUM 6PC WHT0000001000+00001390+00000+0001T   00001390+0000001758          1500 K15131               3 Z
131872004131872006-000120     131872006001023346889BALLOONS 10PC MIX COL  0000001000+00001912+00000+0001T   00001912+0000001758          1500 K15131               3 Z
131873000131873               131873               170213SE     1500+00000+SE0000002172+0000002172+000000000+000000326+0000002490+0000000008+I20000000000+0000002490+Z
131873001131873007-000119     131873006002324004126BOOK COVER PL          0000002000+00001086+00000+0001T   00001086+0000001759          1500 K15130               3 Z
131874000131874               131874               170213SE     1500+00000+SE0000002433+0000002433+000000000+000000365+0000002790+0000000008+I20000000000+0000002790+Z
131874001131874046-000010-A   131874006003000438778BATTERIES SIZE:AAA 4PCE0000001000+00002433+00000+0001T   00002433+0000001801          1500 K15312               3 Z
131875000131875               131875               170213SE     1500+00000+SE0000004995+0000004995+000000000+000000751+0000005740+0000000006+I20000000000+0000005740+Z
131875001131875071-081101-A   131875006003000326549GLUE-STICK 25g BLISTER 0000001000+00000825+00000+0001T   00000825+0000001803          1500 K15130               3 Z
131875002131875071-003853     131875006001023715579PENCIL BASIC HB 12PCE  0000001000+00001912+00000+0001T   00001912+0000001803          1500 K15130               3 Z
131875003131875079-009702-B   131875008427973059491PAPER SIRIO A2 WHITE   0000001000+00001129+00000+0001T   00001129+0000001803          1500 K15130               3 Z
131875004131875079-009702-G   131875008427973060787PAPER SIRIO A2 FUSHIA  0000001000+00001129+00000+0001T   00001129+0000001803          1500 K15130               3 Z
131876000131876               131876               170213SE     1500+00000+SE0000004345+0000004345+000000000+000000653+0000004990+0000000008+I20000000000+0000004990+Z
131876001131876077-000299     131876006003000395576G/BAG 32x25cm LRG LOVE 0000001000+00001564+00000+0001T   00001564+0000001804          1500 K15112               3 Z
131876002131876089-000191     131876006003000430185KEY CHAIN BEAR 10CM    0000001000+00002781+00000+0001T   00002781+0000001804          1500 K15205               3 Z
131877000131877               131877               170213SE     1500+00000+SE0000008255+0000008255+000000000+000001241+0000009490+0000000006+I20000000000+0000009490+Z
131877001131877018-000129     131877006001023403353MUG OCC. LOVE V-SHAPE  0000001000+00002781+00000+0001T   00002781+0000001809          1500 K15515               3 Z
131877002131877304-001011     131877006001023806727FLWR ROSE RED W/BEAR   0000001000+00000607+00000+0001T   00000825+0006481809          1500 K15510               3 Z
131877003131877301-085004     131877006003000420469ORN LOVE PLAQUE 21X10CM0000001000+00003477+00000+0001T   00003999+0006481809          1500 K15505               3 Z
131877004131877077-000310     131877006001023608635GIFT-BAG 18X23CM GLOSS 0000001000+00001390+00000+0001T   00001390+0000001809          1500 K15112               3 Z
131878000131878               131878               170213SE     1500+00000+SE0000011512+0000011512+000000000+000001730+0000013240+0000000002+I20000000000+0000013240+Z
131878001131878033-000603     131878006003000365456HAIR BRUSH 23CM VENT   0000001000+00003738+00000+0001T   00003738+0000001812          1500 K15200               3 Z
131878002131878083-000058     131878006003000400331LIGHTER JET CIGAR REFIL0000001000+00002781+00000+0001T   00002781+0000001812          1500 K15315               3 Z
131878003131878089-000501     131878006003000622900KEY CHAIN LIGHT LASER  0000001000+00002346+00000+0001T   00002346+0000001812          1500 K15205               3 Z
131878004131878007-000120     131878006009698062714BOOK DRAWING A4 24-PAGE0000003000+00000564+00000+0001T   00000564+0000001812          1500 K15130               3 Z
131878005131878903-000520     131878006001704009898SWT GUMMY MINI SOUR 60g0000001000+00000955+00000+0001T   00000955+0000001812          1500 K15150               3 Z
131879000131879               131879               170213SE     1500+00000+SE0000003302+0000003302+000000000+000000496+0000003790+0000000008+I20000000000+0000003790+Z
131879001131879006-000166-F   131879006003000516735BALLOONS LRG 6PC PURPLE0000001000+00001390+00000+0001T   00001390+0000001813          1500 K15131               3 Z
131879002131879006-000120     131879006001023346889BALLOONS 10PC MIX COL  0000001000+00001912+00000+0001T   00001912+0000001813          1500 K15131               3 Z
131880000131880               131880               170213SE     1500+00000+SE0000002346+0000002346+000000000+000000352+0000002690+0000000008+I20000000000+0000002690+Z
131880001131880089-000501     131880006003000622900KEY CHAIN LIGHT LASER  0000001000+00002346+00000+0001T   00002346+0000001814          1500 K15205               3 Z
131881000131881               131881               170213SE     1500+00000+SE0000011819+0000011819+000000000+000001775+0000013590+0000000004+I20000000000+0000013590+Z
131881001131881018-000100     131881006001023588098MUG DAILY TUBBY 340ML  0000001000+00001303+00000+0001T   00001912+0008281816          1500 K15515               3 Z
131881002131881018-005009     131881006001023725608MUG W/PLUSH-BEAR LOVE  0000001000+00003738+00000+0001T   00003738+0000001816          1500 K15515               3 Z
131881003131881018-000127     131881006001023380289MUG OCC STRAIGHT LOVE  0000001000+00001564+00000+0001T   00001912+0006481816          1500 K15515               3 Z
131881004131881018-000139     131881006003000547227MUG S/WARE SLANTED SHPE0000003000+00001738+00000+0001T   00002781+0008281816          1500 K15515               3 Z
131882000131882               131882               170213SE     1500+00000+SE0000000607+0000000607+000000000+000000092+0000000690+0000000009+I20000000000+0000000690+Z
131882001131882304-001011     131882006001023806727FLWR ROSE RED W/BEAR   0000001000+00000607+00000+0001T   00000825+0006481816          1500 K15510               3 Z
131883000131883               131883               170213SE     1500+00000+SE0000009515+0000009515+000000000+000001430+0000010940+0000000005+I20000000000+0000010940+Z
131883001131883077-000302     131883008010410010195GIFT-BAG 18X23CM E/D   0000001000+00000955+00000+0001T   00000955+0000001818          1500 K15112               3 Z
131883002131883018-005009     131883006001023725608MUG W/PLUSH-BEAR LOVE  0000001000+00003738+00000+0001T   00003738+0000001818          1500 K15515               3 Z
131883003131883077-000319     131883006001023609779GIFT-BAG 18X23CM BIRTHD0000001000+00001303+00000+0001T   00001303+0000001818          1500 K15112               3 Z
131883004131883464-000121     131883006003000640492PLAYING CARDS MINI     0000001000+00000738+00000+0001T   00000738+0000001818          1500 K15785               3 Z
131883005131883018-000129     131883006001023403353MUG OCC. LOVE V-SHAPE  0000001000+00002781+00000+0001T   00002781+0000001818          1500 K15515               3 Z
A17021300                                          09110911SESLAVE 3                       K152IC
A17021301                                          13530508SESLAVE 3                       K152IC
M17021391                              CASH        SESLAVE 3                       Z-REPORT No.   814TOTAL (Sales - Refunds)           5138.11       CASH TO BE BANKED                    3.00       DEBIT CARDS                          1.00       CREDIT CARDS                         0.00       Z-READING                         5138.11       AIRTIME DEBIT CARD SALES             0.00       AIRTIME CARD SALES                   0.00       OVERS/UNDERS                      5134.11-      AIRTIME CASH SALES                   0.00       GIFT CARDS                           0.00       GIFT CARD CASH SALES                 0.00       T O T A L  CASH PAYOUTS              0.00                                                                                                                                                                                                                                                                                                                                                      Z
M17021392                              CASH        SEABSENT                                                                                                                                                                                          ANNUAL LEAVE                                                                                                                                                                                    DAY OFF                                                                                                                                                                                         COMMENTS                                                                                                                                                                                                                                                                                                                                                                                       Z
Y17021300                                          SE00000000447058+000069
ZSE17021407563 SLAVE 3      SALES DATA                     NEXT INVOICE NO.  131884 0815
X SE Slave 3 First invoice 131815 170213 Last invoice 131883 170213 Next invoice 131884 Total number of records 000000250 clbackup completed 07:56:43
