107799000107799               107799               170213SG     1500+00000+SG0000006606+0000006606+000000000+000000992+0000007590+0000000008+I20000000000+0000007590+Z
107799001107799089-060027     107799006003000245871KEY-CHAIN HEART 6X6cm  0000002000+00003303+00000+0001T   00003303+0000000929          1500 K15205               1 Z
107800000107800               107800               170213SG     1500+00000+SG0000002781+0000002781+000000000+000000418+0000003190+0000000009+I20000000000+0000003190+Z
107800001107800084-000359     107800006003000642960NAIL MANICURE SET S/STE0000001000+00002781+00000+0001T   00002781+0000000941          1500 K15200               1 Z
107801000107801               107801               170213SG     1500+00000+SG0000012603+0000012603+000000000+000001893+0000014496+0000000000+I40000014496+0000000000+Z
107801001107801012-000019     107801006003000421046M/WAVE STEAMER MINI H/H0000001000+00002607+00000+0001T   00003738+0008201030          1500 K15300               1 Z
107801002107801206-000110     107801006003000628186CHOPSTICKS PLASTIC KIDS0000001000+00002781+00000+0001T   00002781+0000001030          1500 K15321               1 Z
107801003107801018-019000     107801006003000557288MUG OCC. LOVE JUMBO    0000001000+00005564+00000+0001T   00005564+0000001030          1500 K15515               1 Z
107801004107801077-000303     107801006001023593757GIFT-BAG PAPER MED     0000001000+00001651+00000+0001T   00001651+0000001030          1500 K15112               1 Z
107802000107802               107802               170213SG     1500+00000+SG0000002781+0000002781+000000000+000000418+0000003190+0000000009+I20000000000+0000003190+Z
107802001107802089-000191     107802006003000430185KEY CHAIN BEAR 10CM    0000001000+00002781+00000+0001T   00002781+0000001032          1500 K15205               1 Z
107803000107803               107803               170213SG     1500+00000+SG0000008694+0000008694+000000000+000001305+0000009999+0000000000+I40000009999+0000000000+Z
107803001107803001-091415     107803006003000329113W/GLS OCC. LOVE 2PC 2800000001000+00008694+00000+0001T   00009650+0006481203          1500 K15515               1 Z
107804000107804               107804               170213SG     1500+00000+SG0000017126+0000017126+000000000+000002570+0000019696+0000000000+I40000019696+0000000000+Z
107804001107804105-001255     107804006003000573110CONTAINER FROSTED 1400m0000002000+00001912+00000+0001T   00001912+0000001212          1500 K15210               1 Z
107804002107804105-001250     107804006003000572991CONTAINER FROSTED 2000m0000001000+00003738+00000+0001T   00003738+0000001212          1500 K15210               1 Z
107804003107804028-000027     107804006003000275816C/BAG+POCKET 27x18x23cm0000001000+00009564+00000+0001T   00009564+0000001212          1500 K15305               1 Z
107805000107805               107805               170213SG     1500+00000+SG0000009996+0000009996+000000000+000001501+0000011497+0000000000+I40000011497+0000000000+Z
107805001107805031-005853     107805006003000442416P/FRAME WDN TWIN HEARTS0000001000+00003477+00000+0001T   00003738+0006481228          1500 K15510               1 Z
107805002107805266-001026     107805006003000473618SWORD 52cm+35cm AXE    0000001000+00003738+00000+0001T   00003738+0000001228          1500 K15710               1 Z
107805003107805088-000082     107805006001023798008P/POURRI SACHETS 5x10ml0000001000+00002781+00000+0001T   00002781+0000001228          1500 K15212               1 Z
107806000107806               107806               170213SG     1500+00000+SG0000001910+0000001910+000000000+000000288+0000002190+0000000008+I20000000000+0000002190+Z
107806001107806078-000025     107806008887013700064SUPERGLUE 3g 1PCE CARD 0000002000+00000955+00000+0001T   00000955+0000001242          1500 K15810               1 Z
107807000107807               107807               170213SG     1500+00000+SG0000023072+0000023072+000000000+000003463+0000026530+0000000005+I20000000000+0000026530+Z
107807001107807007-000128     107807006009635830475BOOK H/COVER A5 96-PAGE0000001000+00000738+00000+0001T   00000738+0000001256          1500 K15130               1 Z
107807002107807051-002407     107807006003000452491SPRAYER TRIGGER 550ml  0000008000+00001912+00000+0001T   00001912+0000001256          1500 K15820               1 Z
107807003107807301-085000     107807006003000674299 ORN OCC. LOVE HEARTS  0000003000+00002346+00000+0001T   00002346+0000001256          1500 K15505               1 Z
107808000107808               107808               170213SG     1500+00000+SG0000000607+0000000607+000000000+000000092+0000000690+0000000009+I20000000000+0000000690+Z
107808001107808304-001011     107808006001023806727FLWR ROSE RED W/BEAR   0000001000+00000607+00000+0001T   00000825+0006481257          1500 K15510               1 Z
107809000107809               107809               170213SG     1500+00000+SG0000001564+0000001564+000000000+000000235+0000001790+0000000009+I20000000000+0000001790+Z
107809001107809301-000600     107809006003000597024O/TURTLE DANGLING FEET 0000001000+00001564+00000+0001T   00001564+0000001306          1500 K15505               1 Z
107810000107810               107810               170213SG     1500+00000+SG0000004084+0000004084+000000000+000000614+0000004690+0000000008+I20000000000+0000004690+Z
107810001107810304-001011     107810006001023806727FLWR ROSE RED W/BEAR   0000001000+00000607+00000+0001T   00000825+0006481312          1500 K15510               1 Z
107810002107810018-000136     107810006001023659026MUG OCC LOVE W/PLUSH   0000001000+00003477+00000+0001T   00003738+0006481312          1500 K15515               1 Z
107811000107811               107811               170213SG     1500+00000+SG0000004867+0000004867+000000000+000000731+0000005598+0000000000+I40000005598+0000000000+Z
107811001107811304-001204     107811006001023737984FLOWER OCC. TEDDY/ROSES0000001000+00001390+00000+0001T   00001564+0006481318          1500 K15510               1 Z
107811002107811018-000136     107811006001023659026MUG OCC LOVE W/PLUSH   0000001000+00003477+00000+0001T   00003738+0006481318          1500 K15515               1 Z
107812000107812               107812               170213SG     1500+00000+SG0000003999+0000003999+000000000+000000600+0000004590+0000000009+I20000000000+0000004590+Z
107812001107812007-000047     107812006009635833698FILE DISPLAY-BK A4 50PG0000001000+00003999+00000+0001T   00003999+0000001319          1500 K15130               1 Z
107813000107813               107813               170213SG     1500+00000+SG0000013649+0000013649+000000000+000002048+0000015690+0000000007+I20000000000+0000015690+Z
107813001107813077-000309-A   107813006003000671007GIFT-BAG HOLOGRAM JMB  0000001000+00002346+00000+0001T   00002346+0000001323          1500 K15112               1 Z
107813002107813368-000637     107813006001023874092PLUSH BEAR SLEEPING LOV0000001000+00011303+00000+0001T   00012607+0006481323          1500 K15745               1 Z
107814000107814               107814               170213SG     1500+00000+SG0000001912+0000001912+000000000+000000287+0000002190+0000000009+I20000000000+0000002190+Z
107814001107814077-000309     107814006001023608604GIFT-BAG 25X32CM GLOSS 0000001000+00001912+00000+0001T   00001912+0000001324          1500 K15112               1 Z
107815000107815               107815               170213SG     1500+00000+SG0000001303+0000001303+000000000+000000196+0000001490+0000000009+I20000000000+0000001490+Z
107815001107815903-000194     107815006009826020616SWT CHOC RP LOLLY 25G  0000001000+00001303+00000+0001T   00001390+0006481343          1500 K15150               1 Z
107816000107816               107816               170213SG     1500+00000+SG0000022163+0000022163+000000000+000003330+0000025490+0000000003+I20000000000+0000025490+Z
107816001107816019-071601     107816006001023771995RIVER-STONES 1kg WHITE 0000004000+00002781+00000+0001T   00002781+0000001350          1500 K15510               1 Z
107816002107816072-020262     107816006003000305254PET DOG-CHEW TYRE LARGE0000001000+00004607+00000+0001T   00004607+0000001350          1500 K15870               1 Z
107816003107816072-020314     107816006003000605453PET TOY PUP VINYL CHICK0000001000+00003129+00000+0001T   00003129+0000001350          1500 K15870               1 Z
107816004107816072-020322     107816006003000603701PET DOG TOY TUG-ROPE   0000001000+00003303+00000+0001T   00003303+0000001350          1500 K15870               1 Z
107817000107817               107817               170213SG     1500+00000+SG0000013299+0000013299+000000000+000001997+0000015296+0000000000+I40000015296+0000000000+Z
107817001107817079-000514     107817009556341898321CRAYONS WAX 24-COLOUR  0000001000+00002781+00000+0001T   00002781+0000001402          1500 K15130               1 Z
107817002107817562-088335     107817006003000425372EVA PUZZLE MAT MINI    0000001000+00001912+00000+0001T   00001912+0000001402          1500 K15755               1 Z
107817003107817567-014135     107817006003000560264BOOK COLOURING 240P    0000001000+00003042+00000+0001T   00003738+0008301402          1500 K15757               1 Z
107817004107817267-001998     107817008711147355350PUZZLE 300pc FAIRY-TALE0000001000+00005564+00000+0001T   00005564+0000001402          1500 K15755               1 Z
107818000107818               107818               170213SG     1500+00000+SG0000001345+0000001345+000000000+000000203+0000001540+0000000008+I20000000000+0000001540+Z
107818001107818077-000313     107818006001023608727GIFT-BAG 10X35CM EVERYD0000001000+00000868+00000+0001T   00000868+0000001404          1500 K15112               1 Z
107818002107818080-000133     107818006003000535613CARD&ENV MINI ASTD DSGN0000001000+00000477+00000+0001T   00000477+0000001404          1500 K15112               1 Z
107819000107819               107819               170213SG     1500+00000+SG0000015950+0000015950+000000000+000002395+0000018345+0000000000+I40000018345+0000000000+Z
107819001107819903-000155     107819006009803374435SWT LOLLY I LUV U HEART0000003000+00000564+00000+0001T   00000564+0000001410          1500 K15150               1 Z
107819002107819007-000614     107819006001023768667DIARY W/LOCK+PEN LOVE  0000001000+00005564+00000+0001T   00005564+0000001410          1500 K15130               1 Z
107819003107819001-091415     107819006003000329113W/GLS OCC. LOVE 2PC 2800000001000+00008694+00000+0001T   00009650+0006481410          1500 K15515               1 Z
107820000107820               107820               170213SG     1500+00000+SG0000003909+0000003909+000000000+000000588+0000004490+0000000007+I20000000000+0000004490+Z
107820001107820903-000519     107820006001704012805SWT MS LIQ-O-GHETTI    0000001000+00001303+00000+0001T   00001303+0000001411          1500 K15150               1 Z
107820002107820903-000517     107820006001704012768SWT STRAWS FIZZY CHERRY0000001000+00001303+00000+0001T   00001303+0000001411          1500 K15150               1 Z
107820003107820903-000510     107820006001704012621SWEET MS ZBDZ S/BERRY  0000001000+00001303+00000+0001T   00001303+0000001411          1500 K15150               1 Z
107821000107821               107821               170213SG     1500+00000+SG0000032720+0000032720+000000000+000004914+0000037634+0000000000+I40000037634+0000000000+Z
107821001107821079-011107     107821006001023537317ART+CRAFT SET          0000001000+00002433+00000+0001T   00002433+0000001415          1500 K15130               1 Z
107821002107821200-000060     107821006001023625762STRAWS 18cm FLEX 200PCE0000001000+00002520+00000+0001T   00002520+0000001415          1500 K15214               1 Z
107821003107821079-130010     107821006003000496624ART+CRAFT FOAM DOLLS   0000001000+00004607+00000+0001T   00004607+0000001415          1500 K15130               1 Z
107821004107821562-000010     107821006001023762528KID'S PLAY DOUGH       0000001000+00002781+00000+0001T   00002781+0000001415          1500 K15755               1 Z
107821005107821002-021040     107821006001023812216PARTY-PICKS 100PCE     0000001000+00000564+00000+0001T   00000564+0000001415          1500 K15300               1 Z
107821006107821306-000023     107821006001023606976COTTON-WOOL-BALLS 50PCE0000001000+00000955+00000+0001T   00000955+0000001415          1500 K15200               1 Z
107821007107821079-006522     107821006001023149442ART+CRAFT GLUE ASSORTED0000001000+00001912+00000+0001T   00001912+0000001415          1500 K15130               1 Z
107821008107821079-011107     107821006001023537317ART+CRAFT SET          0000001000+00002433+00000+0001T   00002433+0000001415          1500 K15130               1 Z
107821009107821079-013098     107821006003000197040ART+CRAFT SET DIY      0000001000+00003303+00000+0001T   00003303+0000001415          1500 K15130               1 Z
107821010107821079-013101     107821006001023863706CRAFT SET DIY PIPE-CLNR0000001000+00002781+00000+0001T   00002781+0000001415          1500 K15130               1 Z
107821011107821079-002000     107821006003000658152MODELLING CLAY         0000001000+00001912+00000+0001T   00001912+0000001415          1500 K15130               1 Z
107821012107821079-000600     107821006003000160990ART-SHEETS FOAM ASSTD-C0000001000+00003738+00000+0001T   00003738+0000001415          1500 K15130               1 Z
107821013107821079-000280     107821006003000160723PAINT READYMIX 6PCE    0000001000+00002781+00000+0001T   00002781+0000001415          1500 K15130               1 Z
107822000107822               107822               170213SG     1500+00000+SG0000002084+0000002084+000000000+000000314+0000002390+0000000008+I20000000000+0000002390+Z
107822001107822028-000795     107822006001023812063SKEWERS 10cm 100PCE 3mm0000002000+00001042+00000+0001T   00001042+0000001416          1500 K15305               1 Z
107823000107823               107823               170213SG     1500+00000+SG0000010954+0000010954+000000000+000001644+0000012590+0000000008+I20000000000+0000012590+Z
107823001107823496-057104     107823000078257571048INTEX POOL BABY RAINBOW0000001000+00007216+00000+0001T   00007216+0000001418          1500 K15787               1 Z
107823002107823004-071206     107823006003000605156USB CABLE CHARGER      0000001000+00003738+00000+0001T   00003738+0000001418          1500 K15310               1 Z
107824000107824               107824               170213SG     1500+00000+SG0000002867+0000002867+000000000+000000431+0000003290+0000000008+I20000000000+0000003290+Z
107824001107824077-000239     107824006003000160419GIFT-RIBBON ROLL PEARL 0000001000+00001912+00000+0001T   00001912+0000001426          1500 K15112               1 Z
107824002107824077-000150-D   107824006003000054343GIFT-WRAP CELLPHANE CLR0000001000+00000955+00000+0001T   00000955+0000001426          1500 K15112               1 Z
107825000107825               107825               170213SG     1500+00000+SG0000001303+0000001303+000000000+000000196+0000001490+0000000009+I20000000000+0000001490+Z
107825001107825266-001308     107825006001023686978MARBLES 45PC L/E       0000001000+00001303+00000+0001T   00001303+0000001430          1500 K15710               1 Z
107826000107826               107826               170213SG     1500+00000+SG0000000955+0000000955+000000000+000000144+0000001090+0000000009+I20000000000+0000001090+Z
107826001107826083-000295     107826006001023898562LIGHTER-GAS BUTANE 18ml0000001000+00000955+00000+0001T   00000955+0000001435          1500 K15315               1 Z
107827000107827               107827               170213SG     1500+00000+SG0000003477+0000003477+000000000+000000522+0000003990+0000000009+I20000000000+0000003990+Z
107827001107827263-000015     107827006003000656097VEHICLES LAUNCH & GO   0000001000+00003477+00000+0001T   00004607+0008301437          1500 K15710               1 Z
107828000107828               107828               170213SG     1500+00000+SG0000005037+0000005037+000000000+000000758+0000005790+0000000005+I20000000000+0000005790+Z
107828001107828304-001011     107828006001023806727FLWR ROSE RED W/BEAR   0000001000+00000607+00000+0001T   00000825+0006481445          1500 K15510               1 Z
107828002107828077-000303     107828006001023593757GIFT-BAG PAPER MED     0000001000+00001651+00000+0001T   00001651+0000001445          1500 K15112               1 Z
107828003107828903-000848     107828008692806080076SWT SNACK BISCUIT 70g  0000001000+00000651+00000+0001T   00000651+0000001445          1500 K15150               1 Z
107828004107828018-000127     107828006001023380289MUG OCC STRAIGHT LOVE  0000001000+00001564+00000+0001T   00001912+0006481445          1500 K15515               1 Z
107828005107828903-000155     107828006009803374435SWT LOLLY I LUV U HEART0000001000+00000564+00000+0001T   00000564+0000001445          1500 K15150               1 Z
107829000107829               107829               170213SG     1500+00000+SG0000003648+0000003648+000000000+000000549+0000004190+0000000007+I20000000000+0000004190+Z
107829001107829251-000030     107829006001023515803MASKING-TAPE 18mmx40m  0000003000+00001216+00000+0001T   00001216+0000001446          1500 K15810               1 Z
107830000107830               107830               170213SG     1500+00000+SG0000004345+0000004345+000000000+000000653+0000004998+0000000000+I40000004998+0000000000+Z
107830001107830016-006509     107830006003000567355S/JAR GLS MINI LABEL   0000001000+00001738+00000+0001T   00002260+0008301453          1500 K15300               1 Z
107830002107830567-075466     107830009780263254235BK NOVEL ROMANCE       0000001000+00002607+00000+0001T   00002781+0006481453          1500 K15757               1 Z
107831000107831               107831               170213SG     1500+00000+SG0000009081+0000009081+000000000+000001364+0000010440+0000000005+I20000000000+0000010440+Z
107831001107831903-000155     107831006009803374435SWT LOLLY I LUV U HEART0000002000+00000564+00000+0001T   00000564+0000001454          1500 K15150               1 Z
107831002107831018-000177     107831006001023797513MUG MINI LOVE ASSTD    0000001000+00000738+00000+0001T   00000738+0000001454          1500 K15515               1 Z
107831003107831301-085004     107831006003000420469ORN LOVE PLAQUE 21X10CM0000001000+00003477+00000+0001T   00003999+0006481454          1500 K15505               1 Z
107831004107831018-005009     107831006001023725608MUG W/PLUSH-BEAR LOVE  0000001000+00003738+00000+0001T   00003738+0000001454          1500 K15515               1 Z
107832000107832               107832               170213SG     1500+00000+SG0000001564+0000001564+000000000+000000235+0000001790+0000000009+I20000000000+0000001790+Z
107832001107832466-001801     107832006001023343482BALLS TABLE-TENNIS BOX60000001000+00001564+00000+0001T   00001564+0000001457          1500 K15785               1 Z
107833000107833               107833               170213SG     1500+00000+SG0000003820+0000003820+000000000+000000576+0000004390+0000000006+I20000000000+0000004390+Z
107833001107833077-000408     107833006003000145218G/BAG PP 15X21X7CM     0000004000+00000955+00000+0001T   00000955+0000001459          1500 K15112               1 Z
107834000107834               107834               170213SG     1500+00000+SG0000002346+0000002346+000000000+000000352+0000002690+0000000008+I20000000000+0000002690+Z
107834001107834200-000067     107834006003000330683STRAWS DRINKING 100PC  0000001000+00002346+00000+0001T   00002346+0000001511          1500 K15214               1 Z
107835000107835               107835               170213SG     1500+00000+SG0000020084+0000020084+000000000+000003014+0000023098+0000000000+I40000023098+0000000000+Z
107835001107835365-003060     107835006001023831255CASH-REGISTER B/O PL   0000001000+00018694+00000+0001T   00018694+0000001515          1500 K15725               1 Z
107835002107835046-000012     107835006904708013062BATTERIES AA  CARD-OF-40000001000+00001390+00000+0001T   00001390+0000001515          1500 K15312               1 Z
107836000107836               107836               170213SG     1500+00000+SG0000002781+0000002781+000000000+000000418+0000003190+0000000009+I20000000000+0000003190+Z
107836001107836077-000270     107836006003000395453GIFT-BAG PPR JMB 33X45 0000001000+00002781+00000+0001T   00002781+0000001515          1500 K15112               1 Z
107837000107837               107837               170213SG     1500+00000+SG0000005562+0000005562+000000000+000000836+0000006390+0000000008+I20000000000+0000006390+Z
107837001107837306-000993     107837006003000560110FIRSTAID PLASTER 75PC  0000001000+00002781+00000+0001T   00002781+0000001516          1500 K15200               1 Z
107837002107837007-000557     107837006003000379484DIARY GIRL W/LOCK 50PG 0000001000+00002781+00000+0001T   00002781+0000001516          1500 K15130               1 Z
107838000107838               107838               170213SG     1500+00000+SG0000018422+0000018422+000000000+000002767+0000021180+0000000009+I20000000000+0000021180+Z
107838001107838006-000108     107838006003000587995BALLOONS 6PC RED/WHT   0000003000+00001912+00000+0001T   00001912+0000001517          1500 K15131               1 Z
107838002107838006-000107     107838006003000587872BALLOONS ITS BOY/GIRL  0000003000+00001912+00000+0001T   00001912+0000001517          1500 K15131               1 Z
107838003107838006-000166-C   107838006003000516377BALLOONS LRG 6PC PINK  0000005000+00001390+00000+0001T   00001390+0000001517          1500 K15131               1 Z
107839000107839               107839               170213SG     1500+00000+SG0000002607+0000002607+000000000+000000392+0000002990+0000000009+I20000000000+0000002990+Z
107839001107839124-000001     107839000738380781690STORAGE TIN TISSUE     0000001000+00002607+00000+0001T   00003738+0008281518          1500 K15300               1 Z
107840000107840               107840               170213SG     1500+00000+SG0000001912+0000001912+000000000+000000287+0000002190+0000000009+I20000000000+0000002190+Z
107840001107840077-000309     107840006001023608604GIFT-BAG 25X32CM GLOSS 0000001000+00001912+00000+0001T   00001912+0000001519          1500 K15112               1 Z
107841000107841               107841               170213SG     1500+00000+SG0000006520+0000006520+000000000+000000978+0000007490+0000000008+I20000000000+0000007490+Z
107841001107841368-000265     107841006001023750914PLUSH BEAR 23CM ASSTD C0000001000+00006520+00000+0001T   00006520+0000001523          1500 K15745               1 Z
107842000107842               107842               170213SG     1500+00000+SG0000002173+0000002173+000000000+000000326+0000002490+0000000009+I20000000000+0000002490+Z
107842001107842566-000359     107842006003000582709STICKER BOOK LOVE SPARK0000001000+00002173+00000+0001T   00002260+0006481524          1500 K15130               1 Z
107843000107843               107843               170213SG     1500+00000+SG0000002781+0000002781+000000000+000000418+0000003190+0000000009+I20000000000+0000003190+Z
107843001107843304-001486     107843006003000035335FLWR BUNCH ROSE        0000001000+00002781+00000+0001T   00002781+0000001525          1500 K15510               1 Z
107844000107844               107844               170213SG     1500+00000+SG0000013039+0000013039+000000000+000001957+0000014990+0000000006+I20000000000+0000014990+Z
107844001107844174-000305     107844006003000105502TRAVEL NECK-PILLOW     0000001000+00007216+00000+0001T   00007216+0000001528          1500 K15205               1 Z
107844002107844301-085004     107844006003000420469ORN LOVE PLAQUE 21X10CM0000001000+00003477+00000+0001T   00003999+0006481528          1500 K15505               1 Z
107844003107844077-000309-A   107844006003000671007GIFT-BAG HOLOGRAM JMB  0000001000+00002346+00000+0001T   00002346+0000001528          1500 K15112               1 Z
107845000107845               107845               170213SG     1500+00000+SG0000001390+0000001390+000000000+000000209+0000001590+0000000009+I20000000000+0000001590+Z
107845001107845304-001204     107845006001023737984FLOWER OCC. TEDDY/ROSES0000001000+00001390+00000+0001T   00001564+0006481529          1500 K15510               1 Z
107846000107846               107846               170213SG     1500+00000+SG0000004774+0000004774+000000000+000000718+0000005490+0000000002+I20000000000+0000005490+Z
107846001107846903-000183     107846006003000451043SWT LB HEART LOLLY     0000002000+00000433+00000+0001T   00000433+0000001632          1500 K15150               1 Z
107846002107846903-000194     107846006009826020616SWT CHOC RP LOLLY 25G  0000002000+00001303+00000+0001T   00001390+0006481632          1500 K15150               1 Z
107846003107846077-000311     107846006001023608666GIFT-BAG 11X14CM GLOSS 0000002000+00000651+00000+0001T   00000651+0000001632          1500 K15112               1 Z
107847000107847               107847               170213SG     1500+00000+SG0000000955+0000000955+000000000+000000144+0000001090+0000000009+I20000000000+0000001090+Z
107847001107847567-014132     107847006003000560028BOOK COLOURING 24 PAGE 0000001000+00000955+00000+0001T   00000955+0000001656          1500 K15757               1 Z
107848000107848               107848               170213SG     1500+00000+SG0000004171+0000004171+000000000+000000627+0000004790+0000000008+I20000000000+0000004790+Z
107848001107848466-000515     107848006001023477408BALLS TENNIS BAG-OF-3  0000001000+00002781+00000+0001T   00002781+0000001657          1500 K15785               1 Z
107848002107848046-000012     107848006904708013062BATTERIES AA  CARD-OF-40000001000+00001390+00000+0001T   00001390+0000001657          1500 K15312               1 Z
107849000107849               107849               170213SG     1500+00000+SG0000009564+0000009564+000000000+000001435+0000010990+0000000009+I20000000000+0000010990+Z
107849001107849368-000665     107849006003000169016PLUSH BEAR 30cm        0000001000+00009564+00000+0001T   00009564+0000001659          1500 K15745               1 Z
107850000107850               107850               170213SG     1500+00000+SG0000007864+0000007864+000000000+000001182+0000009040+0000000006+I20000000000+0000009040+Z
107850001107850077-000270     107850006003000395453GIFT-BAG PPR JMB 33X45 0000001000+00002781+00000+0001T   00002781+0000001701          1500 K15112               1 Z
107850002107850018-005009     107850006001023725608MUG W/PLUSH-BEAR LOVE  0000001000+00003738+00000+0001T   00003738+0000001701          1500 K15515               1 Z
107850003107850018-000177     107850006001023797513MUG MINI LOVE ASSTD    0000001000+00000738+00000+0001T   00000738+0000001701          1500 K15515               1 Z
107850004107850304-001011     107850006001023806727FLWR ROSE RED W/BEAR   0000001000+00000607+00000+0001T   00000825+0006481701          1500 K15510               1 Z
107851000107851               107851               170213SG     1500+00000+SG0000007822+0000007822+000000000+000001175+0000008990+0000000007+I20000000000+0000008990+Z
107851001107851018-030000     107851006003000421060MUG OCCASIONS LOVE 2PCE0000001000+00004607+00000+0001T   00004607+0000001702          1500 K15515               1 Z
107851002107851903-000194     107851006009826020616SWT CHOC RP LOLLY 25G  0000001000+00001303+00000+0001T   00001390+0006481702          1500 K15150               1 Z
107851003107851077-000358     107851006003000329977GIFT-BAG KIDS 25X32CM  0000001000+00001912+00000+0001T   00001912+0000001702          1500 K15112               1 Z
107852000107852               107852               170213SG     1500+00000+SG0000001171+0000001171+000000000+000000177+0000001340+0000000008+I20000000000+0000001340+Z
107852001107852304-001011     107852006001023806727FLWR ROSE RED W/BEAR   0000001000+00000607+00000+0001T   00000825+0006481707          1500 K15510               1 Z
107852002107852903-000155     107852006009803374435SWT LOLLY I LUV U HEART0000001000+00000564+00000+0001T   00000564+0000001707          1500 K15150               1 Z
107853000107853               107853               170213SG     1500+00000+SG0000005640+0000005640+000000000+000000850+0000006490+0000000000+I20000000000+0000006490+Z
107853001107853903-000155     107853006009803374435SWT LOLLY I LUV U HEART0000010000+00000564+00000+0001T   00000564+0000001708          1500 K15150               1 Z
107854000107854               107854               170213SG     1500+00000+SG0000012737+0000012737+000000000+000001911+0000014648+0000000000+I40000014648+0000000000+Z
107854001107854903-000155     107854006009803374435SWT LOLLY I LUV U HEART0000001000+00000564+00000+0001T   00000564+0000001710          1500 K15150               1 Z
107854002107854265-000316     107854006001023877536CAR RADIO-CONTROL      0000001000+00012173+00000+0001T   00022173+0008301710          1500 K15710               1 Z
107855000107855               107855               170213SG     1500+00000+SG0000006777+0000006777+000000000+000001019+0000007790+0000000006+I20000000000+0000007790+Z
107855001107855903-000510     107855006001704012621SWEET MS ZBDZ S/BERRY  0000001000+00001303+00000+0001T   00001303+0000001710          1500 K15150               1 Z
107855002107855903-000517     107855006001704012768SWT STRAWS FIZZY CHERRY0000001000+00001303+00000+0001T   00001303+0000001710          1500 K15150               1 Z
107855003107855564-001028     107855006001023708663BUBBLE CELEBRATION 6ml 0000001000+00003303+00000+0001T   00003303+0000001710          1500 K15131               1 Z
107855004107855024-000186     107855006003000276875SILICONE PANCAKE/EGG 3P0000001000+00000868+00000+0001T   00001390+0008201710          1500 K15300               1 Z
107856000107856               107856               170213SG     1500+00000+SG0000005389+0000005389+000000000+000000809+0000006198+0000000000+I40000006198+0000000000+Z
107856001107856018-000136     107856006001023659026MUG OCC LOVE W/PLUSH   0000001000+00003477+00000+0001T   00003738+0006481713          1500 K15515               1 Z
107856002107856077-000472     107856006003000330133G-BAG DESGNR LRG 25X32 0000001000+00001912+00000+0001T   00001912+0000001713          1500 K15112               1 Z
107857000107857               107857               170213SG     1500+00000+SG0000006520+0000006520+000000000+000000978+0000007490+0000000008+I20000000000+0000007490+Z
107857001107857361-000501     107857006001023797339DOLL 28cm SOFT BODY    0000001000+00006520+00000+0001T   00006520+0000001715          1500 K15725               1 Z
107858000107858               107858               170213SG     1500+00000+SG0000005564+0000005564+000000000+000000835+0000006390+0000000009+I20000000000+0000006390+Z
107858001107858006-000106     107858006003000471331WATERBOMBS 150PCE 6-COL0000001000+00005564+00000+0001T   00005564+0000001744          1500 K15131               1 Z
A17021300                                          12092900SGSLAVE 1                       K152IC
M17021391                              CASH        SGSLAVE 1                       Z-REPORT No.   480TOTAL (Sales - Refunds)           4765.53       CASH TO BE BANKED                 2950.50       DEBIT CARDS                          0.00       CREDIT CARDS                      1815.03       Z-READING                         4765.53       AIRTIME DEBIT CARD SALES             0.00       AIRTIME CARD SALES                   0.00       OVERS/UNDERS                         0.00       AIRTIME CASH SALES                   0.00       GIFT CARDS                           0.00       GIFT CARD CASH SALES                 0.00       T O T A L  CASH PAYOUTS              0.00                                                                                                                                                                                                                                                                                                                                                      Z
M17021392                              CASH        SGABSENT                                                                                                                                                                                          ANNUAL LEAVE                                                                                                                                                                                    DAY OFF                                                                                                                                                                                         COMMENTS                                                                                                                                                                                                                                                                                                                                                                                       Z
Y17021300                                          SG00000000414640+000060
ZSG17021406153 SLAVE 1      SALES DATA                     NEXT INVOICE NO.  107859 0480
X SG Slave 1 First invoice 107799 170213 Last invoice 107858 170213 Next invoice 107859 Total number of records 000000190 clbackup completed 06:15:07
