110295000110295               110295               170213SG     1500+00000+SG0000003992+0000003992+000000000+000000602+0000004590+0000000004+I20000000000+0000004590+Z
110295001110295304-001011     110295006001023806727FLWR ROSE RED W/BEAR   0000001000+00000607+00000+0001T   00000825+0006480917          1500 KB8510               2 Z
110295002110295903-000155     110295006009803374435SWT LOLLY I LUV U HEART0000001000+00000564+00000+0001T   00000564+0000000917          1500 KB8150               2 Z
110295003110295903-000151     110295006009803374411SWT SML RND R/BOW LOLLY0000002000+00000564+00000+0001T   00000564+0000000917          1500 KB8150               2 Z
110295004110295077-000331     110295006001023745255GIFT-BAG 11X14CM E/DAY 0000001000+00000955+00000+0001T   00000955+0000000917          1500 KB8112               2 Z
110295005110295018-000177     110295006001023797513MUG MINI LOVE ASSTD    0000001000+00000738+00000+0001T   00000738+0000000917          1500 KB8515               2 Z
110296000110296               110296               170213SG     1500+00000+SG0000048252+0000048252+000000000+000007242+0000055494+0000000000+I40000055494+0000000000+Z
110296001110296903-000194     110296006009826020616SWT CHOC RP LOLLY 25G  0000003000+00001303+00000+0001T   00001390+0006480922          1500 KB8150               2 Z
110296002110296105-009017     110296006003000582273STORAGE BOX FROSTED 55L0000003000+00014781+00000+0001T   00014781+0000000922          1500 KB8210               2 Z
110297000110297               110297               170213SG     1500+00000+SG0000042319+0000042319+000000000+000006359+0000048678+0000000000+I40000048678+0000000000+Z
110297001110297104-000190     110297006004779016334DISH DRAINER PL ASSTD  0000001000+00005564+00000+0001T   00005564+0000000926          1500 KB8210               2 Z
110297002110297036-000063     110297006009654960436COATHANGERS VIRGIN 5PCE0000003000+00001912+00000+0001T   00001912+0000000926          1500 KB8212               2 Z
110297003110297036-000615     110297004713928167880WASH-PEGS PL PCK-24    0000001000+00001912+00000+0001T   00001912+0000000926          1500 KB8212               2 Z
110297004110297036-000605     110297006001023158611WASHING-PEGS WDN PCK-240000003000+00001564+00000+0001T   00001564+0000000926          1500 KB8212               2 Z
110297005110297252-000011     110297006001023475190CURTN-GLIDER ACETYL x500000003000+00000955+00000+0001T   00000955+0000000926          1500 KB8810               2 Z
110297006110297252-000013     110297006001023488107CURTN-HOOK R6 ACETYLx500000005000+00000955+00000+0001T   00000955+0000000926          1500 KB8810               2 Z
110297007110297027-783002     110297006001023874658SCOURERS FOAM PACK OF 30000001000+00001564+00000+0001T   00001564+0000000926          1500 KB8212               2 Z
110297008110297133-000017     110297006003000525171CLEANING-CLOTHS 5PCE   0000001000+00003738+00000+0001T   00003738+0000000926          1500 KB8212               2 Z
110297009110297133-000103     110297006003000060900PEG BAG ASSTD 29x29cm  0000001000+00002781+00000+0001T   00002781+0000000926          1500 KB8212               2 Z
110297010110297020-000016     110297006001023399182KITCHEN-SCISSORS       0000001000+00001651+00000+0001T   00001651+0000000926          1500 KB8300               2 Z
110297011110297020-000143     110297006003000439140K/SET W/COLOUR HNDLS   0000001000+00005129+00000+0001T   00005129+0000000926          1500 KB8300               2 Z
110297012110297024-000038     110297006001023477026MEASURING-JUG 1L (4CUP)0000001000+00001912+00000+0001T   00001912+0000000926          1500 KB8300               2 Z
110298000110298               110298               170213SG     1500+00000+SG0000002345+0000002345+000000000+000000353+0000002690+0000000008+I20000000000+0000002690+Z
110298001110298251-000001     110298006001023487681TAPE DBL-SIDE 18x1000mm0000001000+00001390+00000+0001T   00001390+0000000928          1500 KB8810               2 Z
110298002110298071-001019     110298006001023474513MARKER BLACK NAME-PEN  0000001000+00000955+00000+0001T   00000955+0000000928          1500 KB8130               2 Z
110299000110299               110299               170213SG     1500+00000+SG0000001651+0000001651+000000000+000000248+0000001890+0000000009+I20000000000+0000001890+Z
110299001110299565-000885     110299006003000122929NOVELTY PRICKLY BALL   0000001000+00001651+00000+0001T   00001651+0000000929          1500 KB8745               2 Z
110300000110300               110300               170213SG     1500+00000+SG0000004428+0000004428+000000000+000000667+0000005090+0000000005+I20000000000+0000005090+Z
110300001110300077-000010-C   110300006001023123879CREPE-PAPER RED        0000001000+00000868+00000+0001T   00000868+0000000930          1500 KB8112               2 Z
110300002110300903-000843     110300008693029031067SWT GUMMY JELAXY 80G   0000001000+00001042+00000+0001T   00001042+0000000930          1500 KB8150               2 Z
110300003110300007-000555     110300006001023848239MEMO-PAD MINI LOVE     0000001000+00000651+00000+0001T   00000651+0000000930          1500 KB8130               2 Z
110300004110300903-000194     110300006009826020616SWT CHOC RP LOLLY 25G  0000001000+00001303+00000+0001T   00001390+0006480930          1500 KB8150               2 Z
110300005110300903-000155     110300006009803374435SWT LOLLY I LUV U HEART0000001000+00000564+00000+0001T   00000564+0000000930          1500 KB8150               2 Z
110301000110301               110301               170213SG     1500+00000+SG0000009996+0000009996+000000000+000001501+0000011490+0000000007+I20000000000+0000011490+Z
110301002110301304-001204     110301006001023737984FLOWER OCC. TEDDY/ROSES0000001000+00001390+00000+0001T   00001564+0006480941          1500 KB8510               2 Z
110301003110301174-000302     110301006003000053353TRAVEL SHOULDER BAG    0000001000+00007390+00000+0001T   00007390+0000000941          1500 KB8205               2 Z
110301004110301046-000014     110301006001023725387BATTERIES SIZE:AAA 4PCE0000001000+00001216+00000+0001T   00001216+0000000941          1500 KB8312               2 Z
110302000110302               110302               170213SG     1500+00000+SG0000002997+0000002997+000000000+000000450+0000003440+0000000007+I20000000000+0000003440+Z
110302001110302047-000001-BB  110302006001023723536INS-TAPE BLACK 18mmx10m0000001000+00000651+00000+0001T   00000651+0000001047          1500 KB8880               2 Z
110302002110302306-001621     110302006001023554475INNER SOLES 1 PAIR     0000001000+00002346+00000+0001T   00002346+0000001047          1500 KB8200               2 Z
110303000110303               110303               170213SG     1500+00000+SG0000008514+0000008514+000000000+000001281+0000009795+0000000000+I40000009795+0000000000+Z
110303001110303103-000250     110303006003000571673BASKET WOVEN 29x23x6cm 0000001000+00004868+00000+0001T   00004868+0000001057          1500 KB8300               2 Z
110303002110303077-000150-D   110303006003000054343GIFT-WRAP CELLPHANE CLR0000002000+00000955+00000+0001T   00000955+0000001057          1500 KB8112               2 Z
110303003110303077-000010-D   110303006001023123886CREPE-PAPER WHITE      0000002000+00000868+00000+0001T   00000868+0000001057          1500 KB8112               2 Z
110304000110304               110304               170213SG     1500+00000+SG0000002214+0000002214+000000000+000000333+0000002540+0000000007+I20000000000+0000002540+Z
110304001110304564-000012     110304006001023130075BUBBLE BOTTLE MAGIC    0000003000+00000738+00000+0001T   00000738+0000001126          1500 KB8131               2 Z
110305000110305               110305               170213SG     1500+00000+SG0000017994+0000017994+000000000+000002701+0000020690+0000000005+I20000000000+0000020690+Z
110305001110305077-000309-A   110305006003000671007GIFT-BAG HOLOGRAM JMB  0000001000+00002346+00000+0001T   00002346+0000001131          1500 KB8112               2 Z
110305002110305018-005009     110305006001023725608MUG W/PLUSH-BEAR LOVE  0000001000+00003738+00000+0001T   00003738+0000001131          1500 KB8515               2 Z
110305003110305368-000637     110305006001023874092PLUSH BEAR SLEEPING LOV0000001000+00011303+00000+0001T   00012607+0006481131          1500 KB8745               2 Z
110305004110305304-001011     110305006001023806727FLWR ROSE RED W/BEAR   0000001000+00000607+00000+0001T   00000825+0006481131          1500 KB8510               2 Z
110306000110306               110306               170213SG     1500+00000+SG0000003213+0000003213+000000000+000000484+0000003690+0000000007+I20000000000+0000003690+Z
110306001110306304-001011     110306006001023806727FLWR ROSE RED W/BEAR   0000001000+00000607+00000+0001T   00000825+0006481132          1500 KB8510               2 Z
110306002110306077-000303     110306006001023593757GIFT-BAG PAPER MED     0000001000+00001651+00000+0001T   00001651+0000001132          1500 KB8112               2 Z
110306003110306077-000011-F   110306006001023808431TISSUE-WRAP BLUE/LILAC 0000001000+00000955+00000+0001T   00000955+0000001132          1500 KB8112               2 Z
110307000110307               110307               170213SG     1500+00000+SG0000009564+0000009564+000000000+000001435+0000010990+0000000009+I20000000000+0000010990+Z
110307001110307586-011941     110307006001492119410WATCH KIDS RAINBOW ASST0000001000+00009564+00000+0001T   00009564+0000001135          1500 KB8160               2 Z
110308000110308               110308               170213SG     1500+00000+SG0000014432+0000014432+000000000+000002166+0000016590+0000000008+I20000000000+0000016590+Z
110308001110308016-006512     110308006001023908032S/JAR GLS EAPPLE 3.7L  0000002000+00007216+00000+0001T   00007216+0000001145          1500 KB8300               2 Z
110309000110309               110309               170213SG     1500+00000+SG0000001912+0000001912+000000000+000000287+0000002190+0000000009+I20000000000+0000002190+Z
110309001110309024-091100     110309006001023914224BAKING-CUPS PAPER 100PC0000001000+00001912+00000+0001T   00001912+0000001152          1500 KB8300               2 Z
110310000110310               110310               170213SG     1500+00000+SG0000002781+0000002781+000000000+000000418+0000003190+0000000009+I20000000000+0000003190+Z
110310001110310004-071190     110310006003000528691USB CABLE EXT M/F 1.5m 0000001000+00002781+00000+0001T   00002781+0000001158          1500 KB8310               2 Z
110311000110311               110311               170213SG     1500+00000+SG0000000955+0000000955+000000000+000000144+0000001090+0000000009+I20000000000+0000001090+Z
110311001110311082-026204     110311006001023816443R/GLASSES STRINGS 2PCE 0000001000+00000955+00000+0001T   00000955+0000001339          1500 KB8160               2 Z
110312000110312               110312               170213SG     1500+00000+SG0000005126+0000005126+000000000+000000771+0000005890+0000000007+I20000000000+0000005890+Z
110312001110312304-001204     110312006001023737984FLOWER OCC. TEDDY/ROSES0000001000+00001390+00000+0001T   00001564+0006481343          1500 KB8510               2 Z
110312002110312077-000151     110312006008766114676GIFT-WRAP C/PHANE ASSTD0000001000+00000955+00000+0001T   00000955+0000001343          1500 KB8112               2 Z
110312003110312077-000235     110312006003000160211GIFT-RIBBON ROLL METALC0000001000+00002781+00000+0001T   00002781+0000001343          1500 KB8112               2 Z
110313000110313               110313               170213SG     1500+00000+SG0000011561+0000011561+000000000+000001735+0000013296+0000000000+I40000013296+0000000000+Z
110313001110313040-000183     110313006001023900784CANDLE-HLDR CERAMIC 6cm0000001000+00001303+00000+0001T   00001912+0008281537          1500 KB8510               2 Z
110313002110313560-000302     110313006001023834874DINOSAUR ASSTD DESIGNS 0000001000+00003738+00000+0001T   00003738+0000001537          1500 KB8745               2 Z
110313003110313560-000243     110313006001023622655ANIMALS OCEAN PLAY SET 0000001000+00006520+00000+0001T   00006520+0000001537          1500 KB8745               2 Z
110314000110314               110314               170213SG     1500+00000+SG0000001912+0000001912+000000000+000000287+0000002190+0000000009+I20000000000+0000002190+Z
110314001110314046-002025-PK2 110314004897006174868BATTERIES CR-2025  2PCE0000001000+00001912+00000+0001T   00001912+0000001550          1500 KB8312               2 Z
110315000110315               110315               170213SG     1500+00000+SG0000005128+0000005128+000000000+000000770+0000005890+0000000008+I20000000000+0000005890+Z
110315001110315018-005009     110315006001023725608MUG W/PLUSH-BEAR LOVE  0000001000+00003738+00000+0001T   00003738+0000001552          1500 KB8515               2 Z
110315002110315077-000310     110315006001023608635GIFT-BAG 18X23CM GLOSS 0000001000+00001390+00000+0001T   00001390+0000001552          1500 KB8112               2 Z
110316000110316               110316               170213SG     1500+00000+SG0000002173+0000002173+000000000+000000326+0000002490+0000000009+I20000000000+0000002490+Z
110316001110316080-000127     110316006003000424351VALENTINES DAY 36x24CM 0000001000+00002173+00000+0001T   00002260+0006481556          1500 KB8112               2 Z
110317000110317               110317               170213SG     1500+00000+SG0000005212+0000005212+000000000+000000784+0000005990+0000000006+I20000000000+0000005990+Z
110317001110317033-001400     110317006009654960474HAIR-CURLERS 10PCE SML 0000004000+00001303+00000+0001T   00001303+0000001605          1500 KB8200               2 Z
110318000110318               110318               170213SG     1500+00000+SG0000001040+0000001040+000000000+000000157+0000001190+0000000007+I20000000000+0000001190+Z
110318001110318304-001011     110318006001023806727FLWR ROSE RED W/BEAR   0000001000+00000607+00000+0001T   00000825+0006481610          1500 KB8510               2 Z
110318002110318903-000183     110318006003000451043SWT LB HEART LOLLY     0000001000+00000433+00000+0001T   00000433+0000001610          1500 KB8150               2 Z
110319000110319               110319               170213SG     1500+00000+SG0000001040+0000001040+000000000+000000157+0000001190+0000000007+I20000000000+0000001190+Z
110319001110319304-001011     110319006001023806727FLWR ROSE RED W/BEAR   0000001000+00000607+00000+0001T   00000825+0006481611          1500 KB8510               2 Z
110319002110319903-000183     110319006003000451043SWT LB HEART LOLLY     0000001000+00000433+00000+0001T   00000433+0000001611          1500 KB8150               2 Z
110320000110320               110320               170213SG     1500+00000+SG0000013040+0000013040+000000000+000001957+0000014997+0000000000+I40000014997+0000000000+Z
110320001110320006-000106     110320006003000471331WATERBOMBS 150PCE 6-COL0000001000+00005564+00000+0001T   00005564+0000001620          1500 KB8131               2 Z
110320002110320262-000003     110320006003000597338DIE CAST SINGLE TRUCK  0000001000+00001912+00000+0001T   00001912+0000001620          1500 KB8710               2 Z
110320003110320262-000626     110320006003000510580CAR MDC JEEP W/TRAILER 0000001000+00005564+00000+0001T   00005564+0000001620          1500 KB8710               2 Z
110321000110321               110321               170213SG     1500+00000+SG0000003824+0000003824+000000000+000000574+0000004390+0000000008+I20000000000+0000004390+Z
110321001110321079-003002     110321006003000447886A/TUBE 75ML RED        0000001000+00001912+00000+0001T   00001912+0000001623          1500 KB8130               2 Z
110321002110321079-000275     110321006003000160488PAINT-BRUSHES 6PCE PRO 0000001000+00001912+00000+0001T   00001912+0000001623          1500 KB8130               2 Z
110322000110322               110322               170213SG     1500+00000+SG0000010606+0000010606+000000000+000001592+0000012190+0000000008+I20000000000+0000012190+Z
110322001110322368-000614     110322006001023705808PLUSH LOVE 30cm        0000001000+00008694+00000+0001T   00009564+0006481626          1500 KB8745               2 Z
110322002110322077-000455     110322006003000285389G/BAG METALLIC LRG SOL 0000001000+00001912+00000+0001T   00001912+0000001626          1500 KB8112               2 Z
110323000110323               110323               170213SG     1500+00000+SG0000006953+0000006953+000000000+000001044+0000007990+0000000007+I20000000000+0000007990+Z
110323001110323206-000570     110323006003000633463DOOR STOPPER SILI/LEAF 0000001000+00002781+00000+0001T   00002781+0000001627          1500 KB8321               2 Z
110323002110323566-002004     110323006001023672421STICKERS CRYSTAL SHAPES0000001000+00001912+00000+0001T   00001912+0000001627          1500 KB8130               2 Z
110323003110323200-000020     110323006925406841030BAG ZIPPERSEAL 25PC    0000001000+00002260+00000+0001T   00002260+0000001627          1500 KB8214               2 Z
110324000110324               110324               170213SG     1500+00000+SG0000001389+0000001389+000000000+000000209+0000001590+0000000008+I20000000000+0000001590+Z
110324001110324007-000145     110324006009635833087BK EXERCISE 72PG A4    0000001000+00000564+00000+0001T   00000564+0000001632          1500 KB8130               2 Z
110324002110324071-081101-A   110324006003000326549GLUE-STICK 25g BLISTER 0000001000+00000825+00000+0001T   00000825+0000001632          1500 KB8130               2 Z
110325000110325               110325               170213SG     1500+00000+SG0000007039+0000007039+000000000+000001058+0000008090+0000000007+I20000000000+0000008090+Z
110325001110325079-013097     110325006003000081639ART+CRAFT FELT ANIMALS 0000001000-00003738+00000+0001T   00003738+0000001635          1500 KB81301IC            2 Z
110325002110325306-000024-A   110325006003000577309COTTON-WOOL-PADS 80PC  0000001000+00001912+00000+0001T   00001912+0000001635          1500 KB8200               2 Z
110325003110325079-000514     110325009556341898321CRAYONS WAX 24-COLOUR  0000002000+00002781+00000+0001T   00002781+0000001635          1500 KB8130               2 Z
110325004110325033-000642     110325006001023681201H/BRUSH PADDLE 24cm    0000001000+00003303+00000+0001T   00003303+0000001635          1500 KB8200               2 Z
110326000110326               110326               170213SG     1500+00000+SG0000003563+0000003563+000000000+000000535+0000004090+0000000008+I20000000000+0000004090+Z
110326001110326077-000315     110326006003000181186GIFT-BAG 20x28cm MATT  0000001000+00001651+00000+0001T   00001651+0000001637          1500 KB8112               2 Z
110326002110326077-000472     110326006003000330133G-BAG DESGNR LRG 25X32 0000001000+00001912+00000+0001T   00001912+0000001637          1500 KB8112               2 Z
110327000110327               110327               170213SG     1500+00000+SG0000008603+0000008603+000000000+000001293+0000009890+0000000006+I20000000000+0000009890+Z
110327001110327018-000136     110327006001023659026MUG OCC LOVE W/PLUSH   0000001000+00003477+00000+0001T   00003738+0006481641          1500 KB8515               2 Z
110327002110327903-000200     110327006009826020234SWT CHOC RP CHOCO 23G  0000001000+00000781+00000+0001T   00000825+0006481641          1500 KB8150               2 Z
110327003110327080-000124     110327006003000297733CARD & ENV VALENTINES  0000001000+00001564+00000+0001T   00001651+0006481641          1500 KB8112               2 Z
110327004110327077-000270     110327006003000395453GIFT-BAG PPR JMB 33X45 0000001000+00002781+00000+0001T   00002781+0000001641          1500 KB8112               2 Z
110328000110328               110328               170213SG     1500+00000+SG0000009821+0000009821+000000000+000001475+0000011290+0000000006+I20000000000+0000011290+Z
110328001110328077-000245     110328006001023759214GIFT-RIBBON METALLICx2 0000001000+00001303+00000+0001T   00001303+0000001646          1500 KB8112               2 Z
110328002110328903-000194     110328006009826020616SWT CHOC RP LOLLY 25G  0000001000+00001303+00000+0001T   00001390+0006481646          1500 KB8150               2 Z
110328003110328007-000614     110328006001023768667DIARY W/LOCK+PEN LOVE  0000001000+00005564+00000+0001T   00005564+0000001646          1500 KB8130               2 Z
110328004110328077-000315     110328006003000181186GIFT-BAG 20x28cm MATT  0000001000+00001651+00000+0001T   00001651+0000001646          1500 KB8112               2 Z
110329000110329               110329               170213SG     1500+00000+SG0000000607+0000000607+000000000+000000092+0000000690+0000000009+I20000000000+0000000690+Z
110329001110329304-001011     110329006001023806727FLWR ROSE RED W/BEAR   0000001000+00000607+00000+0001T   00000825+0006481647          1500 KB8510               2 Z
110330000110330               110330               170213SG     1500+00000+SG0000028162+0000028162+000000000+000004229+0000032390+0000000001+I20000000000+0000032390+Z
110330001110330077-000251     110330006003000639106GIFT-DECOR RIBBON      0000001000+00002781+00000+0001T   00002781+0000001721          1500 KB8112               2 Z
110330002110330077-000150-D   110330006003000054343GIFT-WRAP CELLPHANE CLR0000002000+00000955+00000+0001T   00000955+0000001721          1500 KB8112               2 Z
110330003110330162-092928     110330006001492929286#TAG BLK&GOLD BANGLE   0000001000+00002607+00000+0001T   00005477+0008271721          1500 KB8160               2 Z
110330004110330082-098787     110330006001492987873SUNGLASS KIDS FOIL     0000002000+00004173+00000+0001T   00004173+0000001721          1500 KB8160               2 Z
110330005110330082-098799     110330006001492987996SUNGLASS KIDS BOYS     0000001000+00004173+00000+0001T   00004173+0000001721          1500 KB8160               2 Z
110330006110330082-098794     110330006001492987941SUNGLASS KIDS BOYS WRAP0000001000+00003738+00000+0001T   00003738+0000001721          1500 KB8160               2 Z
110330007110330082-007584     110330006003000653973SUNGLASS DESIGNER ASST 0000001000+00004607+00000+0001T   00004607+0000001721          1500 KB8160               2 Z
110331000110331               110331               170213SG     1500+00000+SG0000006519+0000006519+000000000+000000979+0000007498+0000000000+I40000007498+0000000000+Z
110331001110331018-030000     110331006003000421060MUG OCCASIONS LOVE 2PCE0000001000+00004607+00000+0001T   00004607+0000001724          1500 KB8515               2 Z
110331002110331077-000358     110331006003000329977GIFT-BAG KIDS 25X32CM  0000001000+00001912+00000+0001T   00001912+0000001724          1500 KB8112               2 Z
110332000110332               110332               170213SG     1500+00000+SG0000006605+0000006605+000000000+000000992+0000007597+0000000000+I40000007597+0000000000+Z
110332001110332077-000348     110332006001023483287GIFT-BOWS 4,5cm 8PCE   0000001000+00001651+00000+0001T   00001651+0000001727          1500 KB8112               2 Z
110332002110332206-000620     110332006003000631797BACK SCRATCHER EXTEND  0000001000+00002781+00000+0001T   00002781+0000001727          1500 KB8321               2 Z
110332003110332080-000127     110332006003000424351VALENTINES DAY 36x24CM 0000001000+00002173+00000+0001T   00002260+0006481727          1500 KB8112               2 Z
110333000110333               110333               170213SG     1500+00000+SG0000000607+0000000607+000000000+000000092+0000000690+0000000009+I20000000000+0000000690+Z
110333001110333304-001011     110333006001023806727FLWR ROSE RED W/BEAR   0000001000+00000607+00000+0001T   00000825+0006481727          1500 KB8510               2 Z
110334000110334               110334               170213SG     1500+00000+SG0000021301+0000021301+000000000+000003197+0000024490+0000000008+I20000000000+0000024490+Z
110334001110334368-000113     110334006001023780874PLUSH BLINGED LOVE 30cm0000001000+00012607+00000+0001T   00012607+0000001729          1500 KB8745               2 Z
110334002110334001-091415     110334006003000329113W/GLS OCC. LOVE 2PC 2800000001000+00008694+00000+0001T   00009650+0006481729          1500 KB8515               2 Z
110335000110335               110335               170213SG     1500+00000+SG0000018558+0000018558+000000000+000002787+0000021345+0000000000+I40000021345+0000000000+Z
110335001110335368-000113     110335006001023780874PLUSH BLINGED LOVE 30cm0000001000+00012607+00000+0001T   00012607+0000001738          1500 KB8745               2 Z
110335002110335903-000843     110335008693029031067SWT GUMMY JELAXY 80G   0000001000+00001042+00000+0001T   00001042+0000001738          1500 KB8150               2 Z
110335003110335080-000124     110335006003000297733CARD & ENV VALENTINES  0000001000+00001564+00000+0001T   00001651+0006481738          1500 KB8112               2 Z
110335004110335903-000155     110335006009803374435SWT LOLLY I LUV U HEART0000001000+00000564+00000+0001T   00000564+0000001738          1500 KB8150               2 Z
110335005110335077-000270     110335006003000395453GIFT-BAG PPR JMB 33X45 0000001000+00002781+00000+0001T   00002781+0000001738          1500 KB8112               2 Z
110336000110336               110336               170213SG     1500+00000+SG0000002780+0000002780+000000000+000000418+0000003190+0000000008+I20000000000+0000003190+Z
110336001110336304-001204     110336006001023737984FLOWER OCC. TEDDY/ROSES0000002000+00001390+00000+0001T   00001564+0006481739          1500 KB8510               2 Z
110337000110337               110337               170213SG     1500+00000+SG0000001214+0000001214+000000000+000000184+0000001390+0000000008+I20000000000+0000001390+Z
110337001110337304-001011     110337006001023806727FLWR ROSE RED W/BEAR   0000002000+00000607+00000+0001T   00000825+0006481740          1500 KB8510               2 Z
110338000110338               110338               170213SG     1500+00000+SG0000002607+0000002607+000000000+000000392+0000002990+0000000009+I20000000000+0000002990+Z
110338001110338567-075466     110338009780263921090BK NOVEL ROMANCE       0000001000+00002607+00000+0001T   00002781+0006481741          1500 KB8757               2 Z
110339000110339               110339               170213SG     1500+00000+SG0000000868+0000000868+000000000+000000131+0000000990+0000000009+I20000000000+0000000990+Z
110339001110339903-000137     110339006002099004130SWEET GS JELLY BEAN 60G0000001000+00000868+00000+0001T   00000868+0000001741          1500 KB8150               2 Z
110340000110340               110340               170213SG     1500+00000+SG0000002650+0000002650+000000000+000000398+0000003040+0000000008+I20000000000+0000003040+Z
110340001110340159-000637     110340006001023735058BATH PUMICE STONE      0000001000+00000738+00000+0001T   00000738+0000001750          1500 KB8200               2 Z
110340002110340084-091590     110340006003000092864FOOT FILE 17cm         0000001000+00001912+00000+0001T   00001912+0000001750          1500 KB8200               2 Z
110341000110341               110341               170213SG     1500+00000+SG0000022517+0000022517+000000000+000003379+0000025890+0000000006+I20000000000+0000025890+Z
110341001110341304-001606     110341006001023842527BRANCH DRIED WHEAT 75cm0000002000+00004173+00000+0001T   00004173+0000001754          1500 KB8510               2 Z
110341002110341019-000076     110341006001023757159V/GLASS 25CM C/DESIGN  0000001000+00009564+00000+0001T   00009564+0000001754          1500 KB8510               2 Z
110341003110341040-000216     110341006003000456444C/HOLDER GLS FLORAL    0000001000+00004607+00000+0001T   00004607+0000001754          1500 KB8510               2 Z
110342000110342               110342               170213SG     1500+00000+SG0000014720-0000000000+000000000+000000000+0000014720-0000000000+I20000000000+0000014720-Z
110342001110342001-999901     110342000000000999901CASUAL WAGES           0000001000-00014720+00000+0001X  98041600131   0008PJAARS0000000000 KB89011IC            2 Z
A17021300                                          11100266SGSLAVE 2                       KB82IC
C11030100                                          170213SG497-066802     09410389SLAVE 2     KB82IC0000000000+0000000000+0010000001000+
M17021301                              SHIEHAAM    SGSLAVE 1                                         Z/READING =4,765.53                             C/BANKING =2,950.50                             C/CARDS   =1,815.03                             CASHIER GEVINIA                                 BALANCE                                                                                         SLAVE 2                                         Z/READING =2,702.60                             C/BANKING =2,555.40                             C/CARDS   =1,787.00                             PAY OUT   =CASUAL WAGES 147.20                  CASHIER JEAN                                    UNDER 100.00                                                                                                                                                                                    THANKS                                          SHIRLEY                                         SG
M17021302                              IT          SGLAST TILL SLIP NUMBERS                          SLAVE 1=107858                                  SLAVE 2=110342
M17021391                              CASH        SGSLAVE 2                       Z-REPORT No.   466TOTAL (Sales - Refunds)           4489.60       CASH TO BE BANKED                 2555.40       DEBIT CARDS                          0.00       CREDIT CARDS                      1787.00       Z-READING                         4342.40       AIRTIME DEBIT CARD SALES             0.00       AIRTIME CARD SALES                   0.00       OVERS/UNDERS                         0.00       AIRTIME CASH SALES                   0.00       GIFT CARDS                           0.00       GIFT CARD CASH SALES                 0.00       CASUAL WAGES                       147.20       T O T A L  CASH PAYOUTS            147.20                                                                                                                                                                                                                                                                                                      Z
M17021392                              CASH        SGABSENT                                                                                                                                                                                          ANNUAL LEAVE                                                                                                                                                                                    DAY OFF                                                                                                                                                                                         COMMENTS                                                                                                          CASHIER JEAN                                                                                                                                                                                                                                                                 Z
Y17021300                                          SG00000000394322+000047
ZSG17021406153 SLAVE 2      SALES DATA                     NEXT INVOICE NO.  110343 0466
X SG Slave 2 First invoice 110295 170213 Last invoice 110342 170213 Next invoice 110343 Total number of records 000000176 clbackup completed 06:15:09
