125606000125606               125606               170213SH     1500+00000+SH0000003820+0000003820+000000000+000000576+0000004390+0000000006+I20000000000+0000004390+Z
125606001125606366-007601     125606006003000655472DRESS UP MASK THEATRICA0000004000+00000955+00000+0001T   00000955+0000000844          1500 NY3131               3 Z
125607000125607               125607               170213SH     1500+00000+SH0000007123+0000007123+000000000+000001072+0000008190+0000000005+I20000000000+0000008190+Z
125607001125607077-000011-C   125607006001023808523TISSUE 10xSHTS RED     0000001000+00000955+00000+0001T   00000955+0000000848          1500 NY3112               3 Z
125607002125607200-000168     125607006003000577026PICNIC PLATTERS 8-PACK 0000001000+00003303+00000+0001T   00003303+0000000848          1500 NY3214               3 Z
125607003125607077-000150-D   125607006003000054343GIFT-WRAP CELLPHANE CLR0000001000+00000955+00000+0001T   00000955+0000000848          1500 NY3112               3 Z
125607004125607077-000151     125607006008766114676GIFT-WRAP C/PHANE ASSTD0000001000+00000955+00000+0001T   00000955+0000000848          1500 NY3112               3 Z
125607005125607077-000011-C   125607006001023808523TISSUE 10xSHTS RED     0000001000+00000955+00000+0001T   00000955+0000000848          1500 NY3112               3 Z
125608000125608               125608               170213SH     1500+00000+SH0000002781+0000002781+000000000+000000418+0000003190+0000000009+I20000000000+0000003190+Z
125608001125608018-000129     125608006001023403353MUG OCC. LOVE V-SHAPE  0000001000+00002781+00000+0001T   00002781+0000000924          1500 NY3515               3 Z
125609000125609               125609               170213SH     1500+00000+SH0000014462+0000014462+000000000+000002175+0000016637+0000000000+I40000016637+0000000000+Z
125609001125609077-000010-C   125609006001023123879CREPE-PAPER RED        0000001000+00000868+00000+0001T   00000868+0000001011          1500 NY3112               3 Z
125609002125609077-000010-Z   125609006001023157874CREPE-PAPER BLK/ORG/PUR0000002000+00000868+00000+0001T   00000868+0000001011          1500 NY3112               3 Z
125609003125609077-000011-C   125609006001023808523TISSUE 10xSHTS RED     0000001000+00000955+00000+0001T   00000955+0000001011          1500 NY3112               3 Z
125609004125609903-000011     125609006002099007315SWT MALLOW CHOC 15G    0000001000+00000477+00000+0001T   00000477+0000001011          1500 NY3150               3 Z
125609005125609903-000012     125609006002099007308SWT MALLOW S/BERRY     0000001000+00000477+00000+0001T   00000477+0000001011          1500 NY3150               3 Z
125609006125609903-003075     125609003800065783125SWT CHOC FAFL WAFER 52g0000001000+00000955+00000+0001T   00000955+0000001011          1500 NY3150               3 Z
125609007125609903-000183     125609006003000451043SWT LB HEART LOLLY     0000001000+00000433+00000+0001T   00000433+0000001011          1500 NY3150               3 Z
125609008125609077-000311     125609006001023608666GIFT-BAG 11X14CM GLOSS 0000001000+00000651+00000+0001T   00000651+0000001011          1500 NY3112               3 Z
125609009125609368-000175     125609006003000270316PLUSH BEAR 4 ASSTD 18CM0000001000+00006346+00000+0001T   00006346+0000001011          1500 NY3745               3 Z
125609010125609077-000399     125609006003000139514GIFT BAG 18X23CM E/DAY 0000001000+00001564+00000+0001T   00001564+0000001011          1500 NY3112               3 Z
125610000125610               125610               170213SH     1500+00000+SH0000001390+0000001390+000000000+000000209+0000001590+0000000009+I20000000000+0000001590+Z
125610001125610304-001204     125610006001023737984FLOWER OCC. TEDDY/ROSES0000001000+00001390+00000+0001T   00001564+0006481013          1500 NY3510               3 Z
125611000125611               125611               170213SH     1500+00000+SH0000012865+0000012865+000000000+000001932+0000014790+0000000007+I20000000000+0000014790+Z
125611001125611304-001204     125611006001023737984FLOWER OCC. TEDDY/ROSES0000001000+00001390+00000+0001T   00001564+0006481033          1500 NY3510               3 Z
125611002125611304-000720     125611006001023843050F/BUNCH ROSE 6-HEAD AST0000001000+00002781+00000+0001T   00002781+0000001033          1500 NY3510               3 Z
125611003125611001-091415     125611006003000329113W/GLS OCC. LOVE 2PC 2800000001000+00008694+00000+0001T   00009650+0006481033          1500 NY3515               3 Z
125612000125612               125612               170213SH     1500+00000+SH0000001912+0000001912+000000000+000000287+0000002190+0000000009+I20000000000+0000002190+Z
125612001125612078-000470     125612006007347000018SHOE-CEMENT 70ml-TIN   0000001000+00001912+00000+0001T   00001912+0000001057          1500 NY3810               3 Z
125613000125613               125613               170213SH     1500+00000+SH0000003910+0000003910+000000000+000000588+0000004490+0000000008+I20000000000+0000004490+Z
125613001125613304-001011     125613006001023806727FLWR ROSE RED W/BEAR   0000001000+00000607+00000+0001T   00000825+0006481057          1500 NY3510               3 Z
125613002125613089-060027     125613006003000245871KEY-CHAIN HEART 6X6cm  0000001000+00003303+00000+0001T   00003303+0000001057          1500 NY3205               3 Z
125614000125614               125614               170213SH     1500+00000+SH0000003738+0000003738+000000000+000000561+0000004290+0000000009+I20000000000+0000004290+Z
125614001125614018-005009     125614006001023725608MUG W/PLUSH-BEAR LOVE  0000001000+00003738+00000+0001T   00003738+0000001205          1500 NY3515               3 Z
125615000125615               125615               170213SH     1500+00000+SH0000019475+0000019475+000000000+000002922+0000022390+0000000007+I20000000000+0000022390+Z
125615001125615106-001110     125615006001023857880SPORTS-BOTTLES SET-OF-20000001000+00003738+00000+0001T   00003738+0000001211          1500 NY3210               3 Z
125615002125615263-000216     125615006001023755643MONSTER JEEP FRICTION  0000001000+00011999+00000+0001T   00011999+0000001211          1500 NY3710               3 Z
125615003125615028-002101     125615006002580009507CHAIR JUNIOR    ASSTD  0000001000+00003738+00000+0001T   00003738+0000001211          1500 NY3305               3 Z
125616000125616               125616               170213SH     1500+00000+SH0000003738+0000003738+000000000+000000561+0000004290+0000000009+I20000000000+0000004290+Z
125616001125616018-005009     125616006001023725608MUG W/PLUSH-BEAR LOVE  0000001000+00003738+00000+0001T   00003738+0000001217          1500 NY3515               3 Z
125617000125617               125617               170213SH     1500+00000+SH0000003824+0000003824+000000000+000000574+0000004390+0000000008+I20000000000+0000004390+Z
125617001125617006-000120     125617006001023346889BALLOONS 10PC MIX COL  0000002000+00001912+00000+0001T   00001912+0000001222          1500 NY3131               3 Z
125618000125618               125618               170213SH     1500+00000+SH0000001390+0000001390+000000000+000000209+0000001590+0000000009+I20000000000+0000001590+Z
125618001125618366-002100     125618006001023902924DRESS UP MASK FEATHERED0000001000+00001390+00000+0001T   00001390+0000001232          1500 NY3131               3 Z
125619000125619               125619               170213SH     1500+00000+SH0000005823+0000005823+000000000+000000875+0000006690+0000000008+I20000000000+0000006690+Z
125619001125619077-000151     125619006008766114676GIFT-WRAP C/PHANE ASSTD0000001000+00000955+00000+0001T   00000955+0000001233          1500 NY3112               3 Z
125619002125619103-000250     125619006003000571673BASKET WOVEN 29x23x6cm 0000001000+00004868+00000+0001T   00004868+0000001233          1500 NY3300               3 Z
125620000125620               125620               170213SH     1500+00000+SH0000008346+0000008346+000000000+000001252+0000009590+0000000008+I20000000000+0000009590+Z
125620001125620105-009010     125620006003000467167STORAGE BOX 16L GLIDER 0000001000+00008346+00000+0001T   00008346+0000001238          1500 NY3210               3 Z
125621000125621               125621               170213SH     1500+00000+SH0000000607+0000000607+000000000+000000092+0000000690+0000000009+I20000000000+0000000690+Z
125621001125621304-001011     125621006001023806727FLWR ROSE RED W/BEAR   0000001000+00000607+00000+0001T   00000825+0006481249          1500 NY3510               3 Z
125622000125622               125622               170213SH     1500+00000+SH0000050934+0000050934+000000000+000007649+0000058583+0000000000+I40000058583+0000000000+Z
125622001125622003-062568     125622006001023722348ORN ANIMAL ASSTD 15CM  0000001000+00007216+00000+0001T   00007216+0000001254          1500 NY3505               3 Z
125622002125622019-000104     125622006003000658176VASE GLASSBUD 16CM     0000001000+00003738+00000+0001T   00003738+0000001254          1500 NY3510               3 Z
125622003125622019-000225     125622006001023764706VASE GLASS W/ROPE 19CM 0000001000+00003738+00000+0001T   00003738+0000001254          1500 NY3510               3 Z
125622004125622019-000083     125622006001023797209V/GLASS CUT 3-ASST 20CM0000001000+00004346+00000+0001T   00006346+0008281254          1500 NY3510               3 Z
125622005125622040-000207     125622006003000673636C/HOLDER GLS COL. 9CM  0000001000+00001912+00000+0001T   00001912+0000001254          1500 NY3510               3 Z
125622006125622019-000131     125622006003000456253PLANT. T/PLATE 10X12.5 0000002000+00002781+00000+0001T   00002781+0000001254          1500 NY3510               3 Z
125622007125622040-000223     125622006001023845375C/HOLD CER. HOOK/PEBBLE0000001000+00002607+00000+0001T   00003738+0008281254          1500 NY3510               3 Z
125622008125622077-000319     125622006001023609779GIFT-BAG 18X23CM BIRTHD0000001000+00001303+00000+0001T   00001303+0000001254          1500 NY3112               3 Z
125622009125622077-000373     125622006003000395217G/BAG MED 18X23CM DESGN0000001000+00001912+00000+0001T   00001912+0000001254          1500 NY3112               3 Z
125622010125622033-005905-B   125622006001023727787S/LACES FLAT 90cm ASSTD0000002000+00000955+00000+0001T   00000955+0000001254          1500 NY3200               3 Z
125622011125622072-020298     125622006003000561629DOG-TOY TUG-ROPE ASSTD 0000001000+00003129+00000+0001T   00003129+0000001254          1500 NY3870               3 Z
125622012125622040-000108     125622006001023772541C/HOLDER MOSAIC LANTERN0000001000+00007216+00000+0001T   00007216+0000001254          1500 NY3510               3 Z
125622013125622040-000216     125622006003000456444C/HOLDER GLS FLORAL    0000001000+00004607+00000+0001T   00004607+0000001254          1500 NY3510               3 Z
125622014125622019-000103     125622006003000280957VASE GLASS BUD 14CM ASS0000001000+00001738+00000+0001T   00001912+0008091254          1500 NY3510               3 Z
125623000125623               125623               170213SH     1500+00000+SH0000005564+0000005564+000000000+000000835+0000006390+0000000009+I20000000000+0000006390+Z
125623001125623263-000188     125623006001023790927CAR RACER 24cm         0000001000+00005564+00000+0001T   00005564+0000001316          1500 NY3710               3 Z
125624000125624               125624               170213SH     1500+00000+SH0000002346+0000002346+000000000+000000352+0000002690+0000000008+I20000000000+0000002690+Z
125624001125624027-001020     125624006001246602519BROOM FLOOR W/HANDLE   0000001000+00002346+00000+0001T   00002346+0000001319          1500 NY3212               3 Z
125625000125625               125625               170213SH     1500+00000+SH0000001912+0000001912+000000000+000000287+0000002190+0000000009+I20000000000+0000002190+Z
125625001125625006-000800     125625006001023902801HAT CABARET 14x18cm    0000001000+00001912+00000+0001T   00001912+0000001321          1500 NY3131               3 Z
125626000125626               125626               170213SH     1500+00000+SH0000001390+0000001390+000000000+000000209+0000001590+0000000009+I20000000000+0000001590+Z
125626001125626903-004950     125626006002580020304SWT APRICOT SURPRISE   0000001000+00001390+00000+0001T   00001390+0000001324          1500 NY3150               3 Z
125627000125627               125627               170213SH     1500+00000+SH0000000477+0000000477+000000000+000000072+0000000540+0000000009+I20000000000+0000000540+Z
125627001125627080-000133     125627006003000535613CARD&ENV MINI ASTD DSGN0000001000+00000477+00000+0001T   00000477+0000001325          1500 NY3112               3 Z
125628000125628               125628               170213SH     1500+00000+SH0000008516+0000008516+000000000+000001279+0000009795+0000000000+I40000009795+0000000000+Z
125628001125628039-000026     125628006001023551610C/TAPERED 25CM M/RED   0000002000+00001086+00000+0001T   00001086+0000001332          1500 NY3510               3 Z
125628002125628077-000303     125628006001023593757GIFT-BAG PAPER MED     0000001000+00001651+00000+0001T   00001651+0000001332          1500 NY3112               3 Z
125628003125628077-000270     125628006003000395453GIFT-BAG PPR JMB 33X45 0000001000+00002781+00000+0001T   00002781+0000001332          1500 NY3112               3 Z
125628004125628040-000207     125628006003000673636C/HOLDER GLS COL. 9CM  0000001000+00001912+00000+0001T   00001912+0000001332          1500 NY3510               3 Z
125629000125629               125629               170213SH     1500+00000+SH0000005041+0000005041+000000000+000000757+0000005790+0000000008+I20000000000+0000005790+Z
125629001125629018-000136     125629006001023659026MUG OCC LOVE W/PLUSH   0000001000+00003477+00000+0001T   00003738+0006481333          1500 NY3515               3 Z
125629002125629077-000299     125629006003000395576G/BAG 32x25cm LRG LOVE 0000001000+00001564+00000+0001T   00001564+0000001333          1500 NY3112               3 Z
125630000125630               125630               170213SH     1500+00000+SH0000015384+0000015384+000000000+000002310+0000017694+0000000000+I40000017694+0000000000+Z
125630001125630077-000470     125630006003000330171G-BAG DESGN SML 11X14CM0000003000+00001390+00000+0001T   00001390+0000001337          1500 NY3112               3 Z
125630002125630018-005009     125630006001023725608MUG W/PLUSH-BEAR LOVE  0000003000+00003738+00000+0001T   00003738+0000001337          1500 NY3515               3 Z
125631000125631               125631               170213SH     1500+00000+SH0000002781+0000002781+000000000+000000418+0000003190+0000000009+I20000000000+0000003190+Z
125631001125631467-000006     125631006001023995483NET-BUTTERFLY 120cm    0000001000+00002781+00000+0001T   00002781+0000001338          1500 NY3785               3 Z
125632000125632               125632               170213SH     1500+00000+SH0000001912+0000001912+000000000+000000287+0000002190+0000000009+I20000000000+0000002190+Z
125632001125632080-000103     125632006003000236961CARD&ENVLOPE BDAY-MALE 0000001000+00001912+00000+0001T   00001912+0000001354          1500 NY3112               3 Z
125633000125633               125633               170213SH     1500+00000+SH0000006344+0000006344+000000000+000000953+0000007290+0000000007+I20000000000+0000007290+Z
125633001125633077-000303     125633006001023593757GIFT-BAG PAPER MED     0000001000+00001651+00000+0001T   00001651+0000001416          1500 NY3112               3 Z
125633002125633366-002101     125633006003000617715DRESS UP MASK LIGHT UP 0000001000+00002781+00000+0001T   00002781+0000001416          1500 NY3131               3 Z
125633003125633080-000113     125633006003000237449CARD&ENVLPE - LOVE     0000001000+00001912+00000+0001T   00001912+0000001416          1500 NY3112               3 Z
125634000125634               125634               170213SH     1500+00000+SH0000002781+0000002781+000000000+000000418+0000003190+0000000009+I20000000000+0000003190+Z
125634001125634034-078839     125634006003000622320COOEY BABY FEEDING SET 0000001000+00002781+00000+0001T   00002781+0000001505          1500 NY3215               3 Z
125635000125635               125635               170213SH     1500+00000+SH0000000955+0000000955+000000000+000000144+0000001090+0000000009+I20000000000+0000001090+Z
125635001125635071-010484     125635006003000620296MAGNIFYING-GLASS CARD  0000001000+00000955+00000+0001T   00000955+0000001517          1500 NY3130               3 Z
125636000125636               125636               170213SH     1500+00000+SH0000003477+0000003477+000000000+000000522+0000003990+0000000009+I20000000000+0000003990+Z
125636001125636031-000923     125636006001023669933P/FRAME BLK W/WORDS    0000001000+00003477+00000+0001T   00003738+0006481520          1500 NY3510               3 Z
125637000125637               125637               170213SH     1500+00000+SH0000000955+0000000955+000000000+000000144+0000001090+0000000009+I20000000000+0000001090+Z
125637001125637089-000192-A   125637006001023901774KEY-CHAIN ACRYLIC      0000001000+00000955+00000+0001T   00000955+0000001521          1500 NY3205               3 Z
125638000125638               125638               170213SH     1500+00000+SH0000001952+0000001952+000000000+000000295+0000002240+0000000007+I20000000000+0000002240+Z
125638001125638304-001011     125638006001023806727FLWR ROSE RED W/BEAR   0000002000+00000607+00000+0001T   00000825+0006481522          1500 NY3510               3 Z
125638002125638018-000177     125638006001023797513MUG MINI LOVE ASSTD    0000001000+00000738+00000+0001T   00000738+0000001522          1500 NY3515               3 Z
125639000125639               125639               170213SH     1500+00000+SH0000003824+0000003824+000000000+000000574+0000004390+0000000008+I20000000000+0000004390+Z
125639002125639079-003002     125639006003000447886A/TUBE 75ML RED        0000001000+00001912+00000+0001T   00001912+0000001525          1500 NY3130               3 Z
125639003125639079-003009     125639006003000448722A/TUBE 75ML NATURAL    0000001000+00001912+00000+0001T   00001912+0000001525          1500 NY3130               3 Z
125640000125640               125640               170213SH     1500+00000+SH0000029033+0000029033+000000000+000004359+0000033392+0000000000+I40000033392+0000000000+Z
125640001125640079-000358     125640006003000591046ART+CRAFT FELT-TIP PENS0000001000+00003303+00000+0001T   00003303+0000001529          1500 NY3130               3 Z
125640002125640019-000080     125640006001023775740VASE GLS FLORIST BALL  0000001000+00009564+00000+0001T   00009564+0000001529          1500 NY3510               3 Z
125640003125640006-006019     125640006001023908193PARTY-SPRAY GLITTER    0000001000+00002781+00000+0001T   00002781+0000001529          1500 NY3131               3 Z
125640004125640007-000588     125640006001023810090NOTES SHOPPING-LIST+RIB0000001000+00002781+00000+0001T   00002781+0000001529          1500 NY3130               3 Z
125640005125640105-001039-A   125640006003000632473CONTAINER W/VENT ROUND 0000001000+00001912+00000+0001T   00001912+0000001529          1500 NY3210               3 Z
125640006125640105-001032     125640000700371696634CONTAINER FOODSAVER 1.20000001000+00001912+00000+0001T   00001912+0000001529          1500 NY3210               3 Z
125640007125640108-009015-B   125640006005387000050SALAD-BOWL LRGE ASSTD  0000001000+00003999+00000+0001T   00003999+0000001529          1500 NY3210               3 Z
125640008125640082-000340     125640006003000649037LENS CLOTH MOIST 30PC  0000001000+00002781+00000+0001T   00002781+0000001529          1500 NY3160               3 Z
125641000125641               125641               170213SH     1500+00000+SH0000001214+0000001214+000000000+000000184+0000001390+0000000008+I20000000000+0000001390+Z
125641001125641304-001011     125641006001023806727FLWR ROSE RED W/BEAR   0000002000+00000607+00000+0001T   00000825+0006481530          1500 NY3510               3 Z
125642000125642               125642               170213SH     1500+00000+SH0000000607+0000000607+000000000+000000092+0000000690+0000000009+I20000000000+0000000690+Z
125642001125642304-001011     125642006001023806727FLWR ROSE RED W/BEAR   0000001000+00000607+00000+0001T   00000825+0006481534          1500 NY3510               3 Z
125643000125643               125643               170213SH     1500+00000+SH0000027205+0000027205+000000000+000004086+0000031291+0000000000+I40000031291+0000000000+Z
125643001125643150-000770     125643006005387000128UTILITY BOX MEGA       0000003000+00003303+00000+0001T   00003303+0000001536          1500 NY3810               3 Z
125643002125643027-009025     125643006003962000747DUSTPAN-SET PL         0000001000+00002781+00000+0001T   00002781+0000001536          1500 NY3212               3 Z
125643003125643039-080941     125643006001023669841CANDLE PILLAR WHT 7X7CM0000002000+00003738+00000+0001T   00003738+0000001536          1500 NY3510               3 Z
125643004125643088-000107     125643006001023555823DIFFUSER SET FLOWER    0000001000+00004607+00000+0001T   00004607+0000001536          1500 NY3212               3 Z
125643005125643077-000322     125643006001023677532GIFT-BAG 18X23CM E/D FL0000001000+00001303+00000+0001T   00001303+0000001536          1500 NY3112               3 Z
125643006125643903-002850     125643000000087108262MENTOS ROLL FRUIT      0000001000+00001129+00000+0001T   00001129+0000001536          1500 NY3150               3 Z
125644000125644               125644               170213SH     1500+00000+SH0000003738+0000003738+000000000+000000561+0000004290+0000000009+I20000000000+0000004290+Z
125644001125644028-002101     125644006002580009507CHAIR JUNIOR    ASSTD  0000001000+00003738+00000+0001T   00003738+0000001537          1500 NY3305               3 Z
125645000125645               125645               170213SH     1500+00000+SH0000003824+0000003824+000000000+000000574+0000004390+0000000008+I20000000000+0000004390+Z
125645001125645079-003000     125645006003000448838A/TUBE 75ML WHITE      0000002000+00001912+00000+0001T   00001912+0000001539          1500 NY3130               3 Z
125646000125646               125646               170213SH     1500+00000+SH0000000955+0000000955+000000000+000000144+0000001090+0000000009+I20000000000+0000001090+Z
125646001125646077-000151     125646006008766114676GIFT-WRAP C/PHANE ASSTD0000001000+00000955+00000+0001T   00000955+0000001547          1500 NY3112               3 Z
125647000125647               125647               170213SH     1500+00000+SH0000017905+0000017905+000000000+000002688+0000020590+0000000003+I20000000000+0000020590+Z
125647001125647368-000049     125647006003000536955PLUSH BEAR 15cm LOVE   0000001000+00004346+00000+0001T   00004607+0006481552          1500 NY3745               3 Z
125647002125647368-000100     125647006001023474742PLUSH MD BEAR 12cm     0000001000+00002781+00000+0001T   00002781+0000001552          1500 NY3745               3 Z
125647003125647368-000053     125647006003000633449PLUSH BEAR 15.5cm MUM  0000001000+00005564+00000+0001T   00005564+0000001552          1500 NY3745               3 Z
125647004125647077-000470     125647006003000330171G-BAG DESGN SML 11X14CM0000001000+00001390+00000+0001T   00001390+0000001552          1500 NY3112               3 Z
125647005125647077-000471     125647006003000330096G-BAG DESGN MED 18X23CM0000002000+00001912+00000+0001T   00001912+0000001552          1500 NY3112               3 Z
125648000125648               125648               170213SH     1500+00000+SH0000024079+0000024079+000000000+000003613+0000027690+0000000002+I20000000000+0000027690+Z
125648001125648077-000305     125648006003000395422GIFT-BAG WINE 10X35CM  0000001000+00001564+00000+0001T   00001564+0000001610          1500 NY3112               3 Z
125648002125648567-075497     125648009780799381627BK NOVEL ROMANCE AFR   0000001000+00006346+00000+0001T   00006346+0000001610          1500 NY3757               3 Z
125648003125648567-075497     125648009780799381665BK NOVEL ROMANCE AFR   0000001000+00006346+00000+0001T   00006346+0000001610          1500 NY3757               3 Z
125648004125648567-075497     125648009780799381658BK NOVEL ROMANCE AFR   0000001000+00006346+00000+0001T   00006346+0000001610          1500 NY3757               3 Z
125648005125648567-075490     125648009780799375138BK NOVEL ROMANCE AFR   0000001000+00003477+00000+0001T   00003738+0006481610          1500 NY3757               3 Z
125649000125649               125649               170213SH     1500+00000+SH0000008258+0000008258+000000000+000001239+0000009490+0000000007+I20000000000+0000009490+Z
125649001125649567-075470     125649009780007795352BK NOVEL CATEGORY B    0000001000+00006346+00000+0001T   00006346+0000001621          1500 NY3757               3 Z
125649002125649469-006641     125649006003000542048B/BLOCK 4 PC FIGURINES 0000001000+00001912+00000+0001T   00001912+0000001621          1500 NY3755               3 Z
125650000125650               125650               170213SH     1500+00000+SH0000004607+0000004607+000000000+000000692+0000005290+0000000009+I20000000000+0000005290+Z
125650001125650031-080508     125650006001023802415P/FRAME PL 22X11CM LOVE0000001000+00004607+00000+0001T   00004607+0000001624          1500 NY3510               3 Z
125651000125651               125651               170213SH     1500+00000+SH0000008083+0000008083+000000000+000001214+0000009297+0000000000+I40000009297+0000000000+Z
125651001125651077-000384     125651006003000275243G/BAG HOT STMP 18x23CM 0000001000+00001564+00000+0001T   00001564+0000001634          1500 NY3112               3 Z
125651002125651072-000232     125651006003000236060DOG-COL REFLCTV 35-51cm0000001000+00001912+00000+0001T   00001912+0000001634          1500 NY3870               3 Z
125651003125651301-000014     125651006001023784117ORN SENTIMENT ASSTD    0000001000+00004607+00000+0001T   00004607+0000001634          1500 NY3505               3 Z
125652000125652               125652               170213SH     1500+00000+SH0000005602+0000005602+000000000+000000843+0000006440+0000000005+I20000000000+0000006440+Z
125652001125652077-000289     125652006001023901996GIFT BOX 20x25x11cm    0000001000+00001912+00000+0001T   00001912+0000001640          1500 NY3112               3 Z
125652002125652903-000843     125652008693029031067SWT GUMMY JELAXY 80G   0000001000+00001042+00000+0001T   00001042+0000001640          1500 NY3150               3 Z
125652003125652903-000138     125652006002099004314SWT GS WINE GUMS 60G   0000001000+00000868+00000+0001T   00000868+0000001640          1500 NY3150               3 Z
125652004125652903-004951     125652006002580020328SWT MALLOW MINI M/SHAKE0000001000+00001303+00000+0001T   00001303+0000001640          1500 NY3150               3 Z
125652005125652903-000012     125652006002099007308SWT MALLOW S/BERRY     0000001000+00000477+00000+0001T   00000477+0000001640          1500 NY3150               3 Z
125653000125653               125653               170213SH     1500+00000+SH0000005214+0000005214+000000000+000000783+0000005990+0000000007+I20000000000+0000005990+Z
125653001125653006-000120     125653006001023346889BALLOONS 10PC MIX COL  0000001000+00001912+00000+0001T   00001912+0000001646          1500 NY3131               3 Z
125653002125653466-000103     125653006001023642134BALL 20cm ASSTD        0000001000+00001912+00000+0001T   00001912+0000001646          1500 NY3785               3 Z
125653003125653903-004950     125653006002580020304SWT APRICOT SURPRISE   0000001000+00001390+00000+0001T   00001390+0000001646          1500 NY3150               3 Z
125654000125654               125654               170213SH     1500+00000+SH0000003476+0000003476+000000000+000000522+0000003990+0000000008+I20000000000+0000003990+Z
125654001125654077-000309     125654006001023608604GIFT-BAG 25X32CM GLOSS 0000001000+00001912+00000+0001T   00001912+0000001650          1500 NY3112               3 Z
125654002125654077-000305     125654006003000395422GIFT-BAG WINE 10X35CM  0000001000+00001564+00000+0001T   00001564+0000001650          1500 NY3112               3 Z
125655000125655               125655               170213SH     1500+00000+SH0000003561+0000003561+000000000+000000536+0000004090+0000000007+I20000000000+0000004090+Z
125655001125655903-000897     125655008692806325207SWT CHOC DBL MINI ROLL 0000002000+00000955+00000+0001T   00000955+0000001652          1500 NY3150               3 Z
125655002125655077-000303     125655006001023593757GIFT-BAG PAPER MED     0000001000+00001651+00000+0001T   00001651+0000001652          1500 NY3112               3 Z
125656000125656               125656               170213SH     1500+00000+SH0000013821+0000013821+000000000+000002076+0000015890+0000000007+I20000000000+0000015890+Z
125656001125656162-087897     125656006001492878973SS MULTIPACK BANGLES   0000003000+00004607+00000+0001T   00004607+0000001703          1500 NY3160               3 Z
125657000125657               125657               170213SH     1500+00000+SH0000010260+0000010260+000000000+000001539+0000011790+0000000009+I20000000000+0000011790+Z
125657001125657495-059895     125657000078257598953LOUNGER 188X71CM TANNER0000001000+00010260+00000+0001T   00010260+0000001711          1500 NY3787               3 Z
125658000125658               125658               170213SH     1500+00000+SH0000004345+0000004345+000000000+000000653+0000004990+0000000008+I20000000000+0000004990+Z
125658001125658077-000305     125658006003000395422GIFT-BAG WINE 10X35CM  0000001000+00001564+00000+0001T   00001564+0000001716          1500 NY3112               3 Z
125658002125658018-000129     125658006001023403353MUG OCC. LOVE V-SHAPE  0000001000+00002781+00000+0001T   00002781+0000001716          1500 NY3515               3 Z
125659000125659               125659               170213SH     1500+00000+SH0000001912+0000001912+000000000+000000287+0000002190+0000000009+I20000000000+0000002190+Z
125659001125659077-000289     125659006001023901996GIFT BOX 20x25x11cm    0000001000+00001912+00000+0001T   00001912+0000001723          1500 NY3112               3 Z
125660000125660               125660               170213SH     1500+00000+SH0000001912+0000001912+000000000+000000287+0000002190+0000000009+I20000000000+0000002190+Z
125660001125660077-000309     125660006001023608604GIFT-BAG 25X32CM GLOSS 0000001000+00001912+00000+0001T   00001912+0000001724          1500 NY3112               3 Z
125661000125661               125661               170213SH     1500+00000+SH0000001651+0000001651+000000000+000000248+0000001899+0000000000+I40000001899+0000000000+Z
125661001125661077-000303     125661006001023593757GIFT-BAG PAPER MED     0000001000+00001651+00000+0001T   00001651+0000001730          1500 NY3112               3 Z
A17021300                                          10300069SHSLAVE 3                       NY31IC
A17021301                                          13205112SHSLAVE 3                       NY32IC
A17021302                                          15115916SHSLAVE 3                       NY32IC
C12563900                                          170213SH079-003014     15245311SLAVE 3     NY32IC0000000000+0000000000+0010000001000+
M17021391                              CASH        SHSLAVE 3                       Z-REPORT No.   578TOTAL (Sales - Refunds)           4516.58       CASH TO BE BANKED                 2730.70       DEBIT CARDS                          0.00       CREDIT CARDS                      1785.88       Z-READING                         4516.58       AIRTIME DEBIT CARD SALES             0.00       AIRTIME CARD SALES                   0.00       OVERS/UNDERS                         0.00       AIRTIME CASH SALES                   0.00       GIFT CARDS                           0.00       GIFT CARD CASH SALES                 0.00       T O T A L  CASH PAYOUTS              0.00                                                                                                                                                                                                                                                                                                                                                      Z
M17021392                              CASH        SHABSENT                                                                                                                                                                                          ANNUAL LEAVE                                                                                                                                                                                    DAY OFF                                                                                                                                                                                         COMMENTS                                                          CASHIER JOHANNES BALANCED                                                                                                                                                                                                                                                                                                    Z
Y17021300                                          SH00000000393011+000056
ZSH17021320223 SLAVE 3      SALES DATA                     NEXT INVOICE NO.  125662 0579
X SH Slave 3 First invoice 125606 170213 Last invoice 125661 170213 Next invoice 125662 Total number of records 000000193 clbackup completed 20:22:37
