112104000112104               112104               170213SI     1500+00000+SI0000003824+0000003824+000000000+000000574+0000004390+0000000008+I20000000000+0000004390+Z
112104001112104004-071309     112104006001023730862HOLDER DISC SINGLE PK-60000002000+00001912+00000+0001T   00001912+0000001044          1500 AT8310               1 Z
112105000112105               112105               170213SI     1500+00000+SI0000035202+0000035202+000000000+000005288+0000040490+0000000000+I40000040490+0000000000+Z
112105001112105251-000003     112105006003000266159TAPE D/S 18x300mm V/PCK0000001000+00002781+00000+0001T   00002781+0000001055          1500 AT8810               1 Z
112105002112105079-130010     112105006003000496624ART+CRAFT FOAM DOLLS   0000001000+00004607+00000+0001T   00004607+0000001055          1500 AT8130               1 Z
112105003112105562-002002     112105006003000228775EDU LEARNING SHAPES    0000001000+00007390+00000+0001T   00007390+0000001055          1500 AT8755               1 Z
112105004112105079-001002     112105006003000448715CANVAS A4 WOOD MOUNTED 0000003000+00002781+00000+0001T   00002781+0000001055          1500 AT8130               1 Z
112105005112105079-001001     112105006003000448593CANVAS A3 WOOD MOUNTED 0000001000+00004607+00000+0001T   00004607+0000001055          1500 AT8130               1 Z
112105006112105079-003001     112105006003000448951A/TUBE 75ML BLACK      0000001000+00001912+00000+0001T   00001912+0000001055          1500 AT8130               1 Z
112105007112105019-000131     112105006003000456253PLANT. T/PLATE 10X12.5 0000002000+00002781+00000+0001T   00002781+0000001055          1500 AT8510               1 Z
112106000112106               112106               170213SI     1500+00000+SI0000002041+0000002041+000000000+000000307+0000002340+0000000008+I20000000000+0000002340+Z
112106001112106018-000177     112106006001023797513MUG MINI LOVE ASSTD    0000001000+00000738+00000+0001T   00000738+0000001056          1500 AT8515               1 Z
112106002112106077-000245     112106006001023759214GIFT-RIBBON METALLICx2 0000001000+00001303+00000+0001T   00001303+0000001056          1500 AT8112               1 Z
112107000112107               112107               170213SI     1500+00000+SI0000003738+0000003738+000000000+000000561+0000004290+0000000009+I20000000000+0000004290+Z
112107001112107018-005009     112107006001023725608MUG W/PLUSH-BEAR LOVE  0000001000+00003738+00000+0001T   00003738+0000001058          1500 AT8515               1 Z
112108000112108               112108               170213SI     1500+00000+SI0000001910+0000001910+000000000+000000288+0000002190+0000000008+I20000000000+0000002190+Z
112108001112108078-000025     112108008887013700064SUPERGLUE 3g 1PCE CARD 0000002000+00000955+00000+0001T   00000955+0000001100          1500 AT8810               1 Z
112109000112109               112109               170213SI     1500+00000+SI0000015124+0000015124+000000000+000002270+0000017390+0000000004+I20000000000+0000017390+Z
112109001112109103-000788     112109006001023896292WOVEN ROUND BASKET     0000002000+00002520+00000+0001T   00002520+0000001102          1500 AT8300               1 Z
112109002112109368-000101     112109006003000449859PLUSH CAT 17cm KITTY   0000001000+00005477+00000+0001T   00005477+0000001102          1500 AT8745               1 Z
112109003112109001-000175     112109006001023788108B/MUG GLS LOVE 380ML   0000001000+00004607+00000+0001T   00004607+0000001102          1500 AT8515               1 Z
112110000112110               112110               170213SI     1500+00000+SI0000003477+0000003477+000000000+000000522+0000003990+0000000009+I20000000000+0000003990+Z
112110001112110203-007000     112110006001023886040SHOT-GLASS DISPOSABLE  0000001000+00003477+00000+0001T   00003477+0000001109          1500 AT8300               1 Z
112111000112111               112111               170213SI     1500+00000+SI0000001912+0000001912+000000000+000000287+0000002190+0000000009+I20000000000+0000002190+Z
112111001112111464-000122     112111006003000638987PLAYING CARDS POKER 2PK0000001000+00001912+00000+0001T   00001912+0000001111          1500 AT8785               1 Z
112112000112112               112112               170213SI     1500+00000+SI0000000955+0000000955+000000000+000000144+0000001090+0000000009+I20000000000+0000001090+Z
112112001112112071-005213     112112006001023690371CELLOTAPE 12mmx33m     0000001000+00000955+00000+0001T   00000955+0000001113          1500 AT8130               1 Z
112113000112113               112113               170213SI     1500+00000+SI0000015648+0000015648+000000000+000002348+0000017990+0000000006+I20000000000+0000017990+Z
112113001112113031-007010     112113006003000467945P/FRAME WDN CERTIFICATE0000001000+00009564+00000+0001T   00009564+0000001118          1500 AT8510               1 Z
112113002112113077-000309-A   112113006003000671007GIFT-BAG HOLOGRAM JMB  0000001000+00002346+00000+0001T   00002346+0000001118          1500 AT8112               1 Z
112113003112113200-000105     112113006003000199693PICNIC CUPS PL 40PCE   0000001000+00003738+00000+0001T   00003738+0000001118          1500 AT8214               1 Z
112114000112114               112114               170213SI     1500+00000+SI0000006866+0000006866+000000000+000001031+0000007890+0000000007+I20000000000+0000007890+Z
112114001112114162-095020     112114006001492950204#TAG KIDS EARRINGS 3PCK0000001000+00003738+00000+0001T   00003738+0000001120          1500 AT8160               1 Z
112114002112114162-097715     112114006001492977157#TAG NEW COLOUR E/PIERC0000001000+00001216+00000+0001T   00001216+0000001120          1500 AT8160               1 Z
112114003112114071-000006     112114006001023732613PENCIL REFILLABLE 6PK  0000001000+00001912+00000+0001T   00001912+0000001120          1500 AT8130               1 Z
112115000112115               112115               170213SI     1500+00000+SI0000015214+0000015214+000000000+000002283+0000017497+0000000000+I40000017497+0000000000+Z
112115001112115368-000184     112115006003000668298PLUSH LAMB 23cm        0000001000+00006520+00000+0001T   00006520+0000001122          1500 AT8745               1 Z
112115002112115001-091415     112115006003000329113W/GLS OCC. LOVE 2PC 2800000001000+00008694+00000+0001T   00009650+0006481122          1500 AT8515               1 Z
112116000112116               112116               170213SI     1500+00000+SI0000055620+0000055620+000000000+000008360+0000063980+0000000000+I40000063980+0000000000+Z
112116001112116031-005821     112116006001023667786P/FRAME-GLS CLIP 21X30 0000020000+00002781+00000+0001T   00002781+0000001125          1500 AT8510               1 Z
112117000112117               112117               170213SI     1500+00000+SI0000020255+0000020255+000000000+000003040+0000023290+0000000005+I20000000000+0000023290+Z
112117001112117088-000084     112117006001023798060P/POURRI 120G ASSTD    0000001000+00001912+00000+0001T   00001912+0000001126          1500 AT8212               1 Z
112117002112117039-000502     112117006001023816382CANDLE SET ASSTD       0000001000+00001912+00000+0001T   00001912+0000001126          1500 AT8510               1 Z
112117003112117200-003024     112117006001023657299REFUSE BAGS 20PCE BLACK0000001000+00001912+00000+0001T   00001912+0000001126          1500 AT8214               1 Z
112117004112117088-000008     112117006003000623181AIR FRESHENER GEL ASSTD0000001000+00002781+00000+0001T   00002781+0000001126          1500 AT8212               1 Z
112117005112117104-000140     112117006002923019835WASTEPAPER BIN FLIP 24L0000001000+00011738+00000+0001T   00011738+0000001126          1500 AT8210               1 Z
112118000112118               112118               170213SI     1500+00000+SI0000012171+0000012171+000000000+000001827+0000013990+0000000008+I20000000000+0000013990+Z
112118001112118001-091415     112118006003000329113W/GLS OCC. LOVE 2PC 2800000001000+00008694+00000+0001T   00009650+0006481127          1500 AT8515               1 Z
112118002112118031-000923     112118006001023669933P/FRAME BLK W/WORDS    0000001000+00003477+00000+0001T   00003738+0006481127          1500 AT8510               1 Z
112119000112119               112119               170213SI     1500+00000+SI0000002781-0000002781-000000000+000000418-0000003200-0000000001+I20000000000+0000003200-Z
112119001112119466-000054     112119006001023831552BALLS HI-BOUNCE 3CM    0000001000-00002781+00000+0001T   00002781+0000001129          1500 AT87851IC            1 Z
112120000112120               112120               170213SI     1500+00000+SI0000008429+0000008429+000000000+000001267+0000009690+0000000006+I20000000000+0000009690+Z
112120001112120077-000150-D   112120006003000054343GIFT-WRAP CELLPHANE CLR0000002000+00000955+00000+0001T   00000955+0000001131          1500 AT8112               1 Z
112120002112120077-000239     112120006003000160419GIFT-RIBBON ROLL PEARL 0000001000+00001912+00000+0001T   00001912+0000001131          1500 AT8112               1 Z
112120003112120103-000073     112120006003000630769BASKET BAMBOO 29x17x3cm0000001000+00004607+00000+0001T   00004607+0000001131          1500 AT8300               1 Z
112121000112121               112121               170213SI     1500+00000+SI0000007639+0000007639+000000000+000001150+0000008780+0000000009+I20000000000+0000008780+Z
112121001112121006-000170-K   112121006003000609284BALLOONS 1PC PURPLE    0000003000+00000260+00000+0001T   00000260+0000001137          1500 AT8131               1 Z
112121002112121006-000171-D   112121006003000609291BALLOONS 1PC ORANGE PRN0000001000+00000260+00000+0001T   00000260+0000001137          1500 AT8131               1 Z
112121003112121006-000172-A   112121006003000609765BALLOONS METALLIC PINK 0000001000+00000260+00000+0001T   00000260+0000001137          1500 AT8131               1 Z
112121004112121006-000120     112121006001023346889BALLOONS 10PC MIX COL  0000001000+00001912+00000+0001T   00001912+0000001137          1500 AT8131               1 Z
112121005112121077-000010-C   112121006001023123879CREPE-PAPER RED        0000002000+00000868+00000+0001T   00000868+0000001137          1500 AT8112               1 Z
112121006112121077-000011-D   112121006001023808554TISSUE-WRAP WHITE 10PCE0000001000+00000955+00000+0001T   00000955+0000001137          1500 AT8112               1 Z
112121007112121903-000138     112121006002099004314SWT GS WINE GUMS 60G   0000002000+00000868+00000+0001T   00000868+0000001137          1500 AT8150               1 Z
112122000112122               112122               170213SI     1500+00000+SI0000003302+0000003302+000000000+000000496+0000003790+0000000008+I20000000000+0000003790+Z
112122001112122006-000120     112122006001023346889BALLOONS 10PC MIX COL  0000001000+00001912+00000+0001T   00001912+0000001138          1500 AT8131               1 Z
112122002112122006-000166-G   112122006003000607976BALLOONS HELIUM 6PC BLK0000001000+00001390+00000+0001T   00001390+0000001138          1500 AT8131               1 Z
112123000112123               112123               170213SI     1500+00000+SI0000015817+0000015817+000000000+000002377+0000018190+0000000004+I20000000000+0000018190+Z
112123001112123006-000803     112123006003000653676STREAMERS SET 3ROLLS   0000002000+00002781+00000+0001T   00002781+0000001139          1500 AT8131               1 Z
112123002112123079-013032-H   112123006003000496501GLITTER PRINCESS ACC   0000001000+00002781+00000+0001T   00002781+0000001139          1500 AT8130               1 Z
112123003112123079-013032-B   112123006003000389445MIXED SHAPES           0000001000+00001912+00000+0001T   00001912+0000001139          1500 AT8130               1 Z
112123004112123079-013032-D   112123006003000389643RIBBONS                0000001000+00002781+00000+0001T   00002781+0000001139          1500 AT8130               1 Z
112123005112123006-000323-D   112123006003000126248CONFETTI H/BIRTHDAY 3PK0000001000+00002781+00000+0001T   00002781+0000001139          1500 AT8131               1 Z
112124000112124               112124               170213SI     1500+00000+SI0000013910+0000013910+000000000+000002087+0000015990+0000000007+I20000000000+0000015990+Z
112124001112124366-001101     112124006003000006991DRESS UP BOYS ASSTD    0000001000+00006520+00000+0001T   00006520+0000001140          1500 AT8131               1 Z
112124002112124366-000105     112124006001023866103DRESSUP WINGS AND SKIRT0000001000+00007390+00000+0001T   00007390+0000001140          1500 AT8131               1 Z
112125000112125               112125               170213SI     1500+00000+SI0000004693+0000004693+000000000+000000705+0000005390+0000000008+I20000000000+0000005390+Z
112125001112125058-000062     112125006001023622976HOBBY-KNIFE+BLADE 15cm 0000001000+00003738+00000+0001T   00003738+0000001141          1500 AT8840               1 Z
112125002112125046-001225-PK2 112125004897006178361BATTERY LITHIUM CR-12250000001000+00000955+00000+0001T   00000955+0000001141          1500 AT8312               1 Z
112126000112126               112126               170213SI     1500+00000+SI0000014345+0000014345+000000000+000002152+0000016490+0000000007+I20000000000+0000016490+Z
112126001112126033-006004     112126006001023703316SEWING-KIT IN-POUCH    0000001000+00002346+00000+0001T   00002346+0000001146          1500 AT8200               1 Z
112126002112126002-050019     112126006001023815804MORTAR & PESTLE WDN    0000001000+00011999+00000+0001T   00011999+0000001146          1500 AT8300               1 Z
112127000112127               112127               170213SI     1500+00000+SI0000011127+0000011127+000000000+000001670+0000012797+0000000000+I40000012797+0000000000+Z
112127001112127162-093294     112127006001492932941#TAG GOLD/BLACK NK     0000001000+00004607+00000+0001T   00004607+0000001148          1500 AT8160               1 Z
112127002112127082-096891     112127006001492968919SUNGLASS MENS MASK     0000001000+00006520+00000+0001T   00006520+0000001148          1500 AT8160               1 Z
112128000112128               112128               170213SI     1500+00000+SI0000006085+0000006085+000000000+000000913+0000006998+0000000000+I40000006998+0000000000+Z
112128001112128103-000073     112128006003000630769BASKET BAMBOO 29x17x3cm0000001000-00004607+00000+0001T   00004607+0000001151          1500 AT83001IC            1 Z
112128002112128103-000070     112128006003000630608BAMBOO BASKET 39x25x8cm0000001000+00009564+00000+0001T   00009564+0000001151          1500 AT8300               1 Z
112128003112128903-000155     112128006009803374435SWT LOLLY I LUV U HEART0000002000+00000564+00000+0001T   00000564+0000001151          1500 AT8150               1 Z
112129000112129               112129               170213SI     1500+00000+SI0000007301+0000007301+000000000+000001096+0000008397+0000000000+I40000008397+0000000000+Z
112129001112129903-000090     112129006009826020821SWT GS CHOCO COINS 60g 0000002000+00002260+00000+0001T   00002260+0000001153          1500 AT8150               1 Z
112129002112129077-000235     112129006003000160211GIFT-RIBBON ROLL METALC0000001000+00002781+00000+0001T   00002781+0000001153          1500 AT8112               1 Z
112130000112130               112130               170213SI     1500+00000+SI0000003516+0000003516+000000000+000000530+0000004040+0000000006+I20000000000+0000004040+Z
112130001112130077-000150-D   112130006003000054343GIFT-WRAP CELLPHANE CLR0000002000+00000955+00000+0001T   00000955+0000001154          1500 AT8112               1 Z
112130002112130903-002853     112130000000087108019MENTOS ROLL MINT       0000001000+00001129+00000+0001T   00001129+0000001154          1500 AT8150               1 Z
112130003112130080-000133     112130006003000535613CARD&ENV MINI ASTD DSGN0000001000+00000477+00000+0001T   00000477+0000001154          1500 AT8112               1 Z
112131000112131               112131               170213SI     1500+00000+SI0000012546+0000012546+000000000+000001887+0000014433+0000000000+I40000014433+0000000000+Z
112131001112131018-000177     112131006001023797513MUG MINI LOVE ASSTD    0000017000+00000738+00000+0001T   00000738+0000001330          1500 AT8515               1 Z
112132000112132               112132               170213SI     1500+00000+SI0000001910+0000001910+000000000+000000288+0000002190+0000000008+I20000000000+0000002190+Z
112132001112132077-000151     112132006008766114676GIFT-WRAP C/PHANE ASSTD0000002000+00000955+00000+0001T   00000955+0000001347          1500 AT8112               1 Z
112133000112133               112133               170213SI     1500+00000+SI0000002258+0000002258+000000000+000000340+0000002590+0000000008+I20000000000+0000002590+Z
112133001112133079-009702-D   112133008427973059354PAPER SIRIO A2 RED COL 0000002000+00001129+00000+0001T   00001129+0000001349          1500 AT8130               1 Z
112134000112134               112134               170213SI     1500+00000+SI0000011127+0000011127+000000000+000001670+0000012790+0000000007+I20000000000+0000012790+Z
112134001112134077-000388     112134006003000421671G/BAG 25X32CM VALUE PCK0000001000+00002781+00000+0001T   00002781+0000001352          1500 AT8112               1 Z
112134002112134031-000903-C   112134006003000457359P/FRAME PL CREAMY 20X250000001000+00008346+00000+0001T   00008346+0000001352          1500 AT8510               1 Z
112135000112135               112135               170213SI     1500+00000+SI0000009898+0000009898+000000000+000001486+0000011384+0000000000+I40000011384+0000000000+Z
112135001112135077-000116     112135006003000240777GIFT-WRAP 700mmx2m COL 0000005000+00001912+00000+0001T   00001912+0000001355          1500 AT8112               1 Z
112135002112135007-000234     112135006009685850638LABELS 24PK            0000001000+00000338+00000+0001T   00000338+0000001355          1500 AT8130               1 Z
112136000112136               112136               170213SI     1500+00000+SI0000012607+0000012607+000000000+000001892+0000014490+0000000009+I20000000000+0000014490+Z
112136001112136368-000111     112136006001023780812PLUSH BEAR/DOG 29CM    0000001000+00012607+00000+0001T   00012607+0000001355          1500 AT8745               1 Z
112137000112137               112137               170213SI     1500+00000+SI0000000738+0000000738+000000000+000000111+0000000840+0000000009+I20000000000+0000000840+Z
112137001112137018-000177     112137006001023797513MUG MINI LOVE ASSTD    0000001000+00000738+00000+0001T   00000738+0000001356          1500 AT8515               1 Z
112138000112138               112138               170213SI     1500+00000+SI0000008343+0000008343+000000000+000001254+0000009597+0000000000+I40000009597+0000000000+Z
112138001112138001-000175     112138006001023788108B/MUG GLS LOVE 380ML   0000001000+00004607+00000+0001T   00004607+0000001358          1500 AT8515               1 Z
112138002112138077-000151     112138006008766114676GIFT-WRAP C/PHANE ASSTD0000001000+00000955+00000+0001T   00000955+0000001358          1500 AT8112               1 Z
112138003112138103-000060     112138006001023795489BAMBOO BASKET RECT     0000001000+00002781+00000+0001T   00002781+0000001358          1500 AT8300               1 Z
112139000112139               112139               170213SI     1500+00000+SI0000002606+0000002606+000000000+000000392+0000002990+0000000008+I20000000000+0000002990+Z
112139001112139033-001400     112139006009654960474HAIR-CURLERS 10PCE SML 0000002000+00001303+00000+0001T   00001303+0000001403          1500 AT8200               1 Z
112140000112140               112140               170213SI     1500+00000+SI0000003824+0000003824+000000000+000000574+0000004390+0000000008+I20000000000+0000004390+Z
112140001112140366-000282     112140006003000611027DRESS UP SLEEVE TATTOO 0000002000+00001912+00000+0001T   00001912+0000001404          1500 AT8131               1 Z
112141000112141               112141               170213SI     1500+00000+SI0000001910+0000001910+000000000+000000288+0000002190+0000000008+I20000000000+0000002190+Z
112141001112141077-000151     112141006008766114676GIFT-WRAP C/PHANE ASSTD0000001000+00000955+00000+0001T   00000955+0000001408          1500 AT8112               1 Z
112141002112141077-000150-D   112141006003000054343GIFT-WRAP CELLPHANE CLR0000001000+00000955+00000+0001T   00000955+0000001408          1500 AT8112               1 Z
112142000112142               112142               170213SI     1500+00000+SI0000003472+0000003472+000000000+000000524+0000003990+0000000006+I20000000000+0000003990+Z
112142001112142077-000010-C   112142006001023123879CREPE-PAPER RED        0000004000+00000868+00000+0001T   00000868+0000001412          1500 AT8112               1 Z
112143000112143               112143               170213SI     1500+00000+SI0000011734+0000011734+000000000+000001762+0000013496+0000000000+I40000013496+0000000000+Z
112143001112143004-071205     112143006003000073368USB 2.0 COMPUTER 4 HUB 0000001000+00003738+00000+0001T   00003738+0000001414          1500 AT8310               1 Z
112143002112143567-011422     112143006003000641222BK COLOURING THERAPY   0000001000+00003738+00000+0001T   00003738+0000001414          1500 AT8757               1 Z
112143003112143079-000201     112143006003000161430P/CRAYONS THERAPY 10PCE0000001000+00002781+00000+0001T   00002781+0000001414          1500 AT8130               1 Z
112143004112143903-000912     112143006009802868461SWT GUM TAPE HOT WHEELS0000001000+00001477+00000+0001T   00001477+0000001414          1500 AT8150               1 Z
112144000112144               112144               170213SI     1500+00000+SI0000061372+0000061372+000000000+000009210+0000070580+0000000002+I20000000000+0000070580+Z
112144001112144565-001965     112144006003000028207NOVELTY BINOCULARS PL  0000014000+00003738+00000+0001T   00003738+0000001424          1500 AT8745               1 Z
112144002112144566-000031     112144006003000283910STICKER BK TEACHER STIC0000004000+00002260+00000+0001T   00002260+0000001424          1500 AT8130               1 Z
112145000112145               112145               170213SI     1500+00000+SI0000004170+0000004170+000000000+000000627+0000004790+0000000007+I20000000000+0000004790+Z
112145001112145251-000040     112145006001023515865SEALTAPE CLEAR 48mmx50m0000001000+00001303+00000+0001T   00001303+0000001427          1500 AT8810               1 Z
112145002112145071-003000     112145006003000543229PEN BALL PEN 3PCE MULTI0000001000+00000955+00000+0001T   00000955+0000001427          1500 AT8130               1 Z
112145003112145077-000299-A   112145006003000670888GIFT-BAG PAPER JMB LOVE0000001000+00001912+00000+0001T   00001912+0000001427          1500 AT8112               1 Z
112146000112146               112146               170213SI     1500+00000+SI0000009736+0000009736+000000000+000001462+0000011190+0000000008+I20000000000+0000011190+Z
112146001112146079-011520     112146006003000160549ART+CRAFT SET SAND BOTL0000001000+00006955+00000+0001T   00008086+0008301430          1500 AT8130               1 Z
112146002112146079-013101     112146006001023863706CRAFT SET DIY PIPE-CLNR0000001000+00002781+00000+0001T   00002781+0000001430          1500 AT8130               1 Z
112147000112147               112147               170213SI     1500+00000+SI0000007215+0000007215+000000000+000001083+0000008290+0000000008+I20000000000+0000008290+Z
112147001112147071-003201     112147006003000274673STATION SET PEN/PENCIL 0000001000+00005564+00000+0001T   00005564+0000001437          1500 AT8130               1 Z
112147002112147077-000315     112147006003000181186GIFT-BAG 20x28cm MATT  0000001000+00001651+00000+0001T   00001651+0000001437          1500 AT8112               1 Z
112148000112148               112148               170213SI     1500+00000+SI0000000477+0000000477+000000000+000000072+0000000540+0000000009+I20000000000+0000000540+Z
112148001112148080-000133     112148006003000535613CARD&ENV MINI ASTD DSGN0000001000+00000477+00000+0001T   00000477+0000001620          1500 AT8112               1 Z
112149000112149               112149               170213SI     1500+00000+SI0000000607+0000000607+000000000+000000092+0000000690+0000000009+I20000000000+0000000690+Z
112149001112149304-001011     112149006001023806727FLWR ROSE RED W/BEAR   0000001000+00000607+00000+0001T   00000825+0006481621          1500 AT8510               1 Z
112150000112150               112150               170213SI     1500+00000+SI0000008949+0000008949+000000000+000001344+0000010290+0000000003+I20000000000+0000010290+Z
112150001112150103-000788     112150006001023896292WOVEN ROUND BASKET     0000002000+00002520+00000+0001T   00002520+0000001624          1500 AT8300               1 Z
112150002112150103-000060     112150006001023795489BAMBOO BASKET RECT     0000001000+00002781+00000+0001T   00002781+0000001624          1500 AT8300               1 Z
112150003112150903-000155     112150006009803374435SWT LOLLY I LUV U HEART0000002000+00000564+00000+0001T   00000564+0000001624          1500 AT8150               1 Z
112151000112151               112151               170213SI     1500+00000+SI0000011644+0000011644+000000000+000001749+0000013390+0000000003+I20000000000+0000013390+Z
112151001112151077-000399     112151006003000139514GIFT BAG 18X23CM E/DAY 0000001000+00001564+00000+0001T   00001564+0000001625          1500 AT8112               1 Z
112151002112151077-000385     112151006003000275366G/BAG GLITTER 18x23CM  0000001000+00001390+00000+0001T   00001390+0000001625          1500 AT8112               1 Z
112151003112151077-000354     112151006003000139224GIFT-BAG 25X32CM H/MADE0000001000+00001912+00000+0001T   00001912+0000001625          1500 AT8112               1 Z
112151004112151077-000304     112151006001023483232GIFT-BAG 25X32CM E/DAY 0000001000+00001564+00000+0001T   00001564+0000001625          1500 AT8112               1 Z
112151005112151077-000323     112151006001023677563G/BAG 25X32CM E/DAY FLO0000001000+00001651+00000+0001T   00001651+0000001625          1500 AT8112               1 Z
112151006112151077-000316     112151006001023609731GIFT-BAG 25X32CM MATT  0000001000+00001912+00000+0001T   00001912+0000001625          1500 AT8112               1 Z
112151007112151077-000315     112151006003000181186GIFT-BAG 20x28cm MATT  0000001000+00001651+00000+0001T   00001651+0000001625          1500 AT8112               1 Z
112152000112152               112152               170213SI     1500+00000+SI0000004519+0000004519+000000000+000000678+0000005190+0000000007+I20000000000+0000005190+Z
112152001112152071-001017     112152006001023892676MARKER DVD FINE+MED 3PC0000001000+00002346+00000+0001T   00002346+0000001629          1500 AT8130               1 Z
112152002112152080-000127     112152006003000424351VALENTINES DAY 36x24CM 0000001000+00002173+00000+0001T   00002260+0006481629          1500 AT8112               1 Z
112153000112153               112153               170213SI     1500+00000+SI0000005822+0000005822+000000000+000000874+0000006696+0000000000+I40000006696+0000000000+Z
112153001112153079-006494     112153006003000159864GLITTER GLUE 5PCE 11cm 0000001000+00001564+00000+0001T   00001564+0000001632          1500 AT8130               1 Z
112153002112153077-000920     112153006003000413812G/WRAP 700mmx2m BIRTHDA0000001000+00002346+00000+0001T   00002346+0000001632          1500 AT8112               1 Z
112153003112153077-000906     112153006003000410804G/WRAP 700mmx1m BIRTHDA0000001000+00001912+00000+0001T   00001912+0000001632          1500 AT8112               1 Z
112154000112154               112154               170213SI     1500+00000+SI0000003824+0000003824+000000000+000000574+0000004390+0000000008+I20000000000+0000004390+Z
112154001112154039-080962     112154006001023736055C/SET 3PC(GLS-CUP+2CAN)0000001000+00001912+00000+0001T   00001912+0000001634          1500 AT8510               1 Z
112154002112154077-000471     112154006003000330096G-BAG DESGN MED 18X23CM0000001000+00001912+00000+0001T   00001912+0000001634          1500 AT8112               1 Z
112155000112155               112155               170213SI     1500+00000+SI0000000738+0000000738+000000000+000000111+0000000840+0000000009+I20000000000+0000000840+Z
112155001112155006-001000-NA  112155006003000714087HELIUM BALLOON FILL    0000001000+00000738+00000+0001T   00000738+0000001638          1500 AT8131               1 Z
112156000112156               112156               170213SI     1500+00000+SI0000001821+0000001821+000000000+000000274+0000002095+0000000000+I40000002095+0000000000+Z
112156001112156079-009702-E   112156008427973059439PAPER SIRIO A2 BLUE    0000001000+00001129+00000+0001T   00001129+0000001643          1500 AT8130               1 Z
112156002112156079-009700-G   112156006003000545957PAPER SIRIO A4 LIME COL0000001000+00000346+00000+0001T   00000346+0000001643          1500 AT8130               1 Z
112156003112156079-009700-E   112156006003000545797PAPER SIRIO A4 GREY    0000001000+00000346+00000+0001T   00000346+0000001643          1500 AT8130               1 Z
112157000112157               112157               170213SI     1500+00000+SI0000002256+0000002256+000000000+000000340+0000002590+0000000006+I20000000000+0000002590+Z
112157001112157903-000155     112157006009803374435SWT LOLLY I LUV U HEART0000004000+00000564+00000+0001T   00000564+0000001647          1500 AT8150               1 Z
112158000112158               112158               170213SI     1500+00000+SI0000006519+0000006519+000000000+000000979+0000007490+0000000008+I20000000000+0000007490+Z
112158001112158088-000107     112158006001023555823DIFFUSER SET FLOWER    0000001000+00004607+00000+0001T   00004607+0000001648          1500 AT8212               1 Z
112158002112158080-000106     112158006003000237098CARD&ENVLPE BDAY GIRL  0000001000+00001912+00000+0001T   00001912+0000001648          1500 AT8112               1 Z
112159000112159               112159               170213SI     1500+00000+SI0000016594+0000016594+000000000+000002494+0000019080+0000000008+I20000000000+0000019080+Z
112159001112159077-000151     112159006008766114676GIFT-WRAP C/PHANE ASSTD0000002000+00000955+00000+0001T   00000955+0000001650          1500 AT8112               1 Z
112159002112159206-000120     112159006003000628308PEELER CARROT SHARPENER0000001000+00001912+00000+0001T   00001912+0000001650          1500 AT8321               1 Z
112159003112159206-000530     112159006003000620821BIRTHDAY CANDLES 6PC   0000001000+00001129+00000+0001T   00001912+0008291650          1500 AT8321               1 Z
112159004112159206-000150     112159006003000628667SLICER CUCUMBER        0000001000+00002260+00000+0001T   00002260+0000001650          1500 AT8321               1 Z
112159005112159140-006006     112159006001023581327FLY-SWATTER GIANT 78cm 0000001000+00002346+00000+0001T   00002346+0000001650          1500 AT8830               1 Z
112159006112159206-000530     112159006003000620821BIRTHDAY CANDLES 6PC   0000001000+00001129+00000+0001T   00001912+0008291650          1500 AT8321               1 Z
112159007112159903-000619     112159006003000672455SWT LOLLY STR/BRRY 140G0000002000+00001912+00000+0001T   00001912+0000001650          1500 AT8150               1 Z
112159008112159903-000843     112159008693029031067SWT GUMMY JELAXY 80G   0000002000+00001042+00000+0001T   00001042+0000001650          1500 AT8150               1 Z
112160000112160               112160               170213SI     1500+00000+SI0000034165+0000034165+000000000+000005128+0000039290+0000000003+I20000000000+0000039290+Z
112160001112160079-014004     112160006003000080045ART+CRAFT JEWELRY ASSTD0000001000+00003738+00000+0001T   00003738+0000001651          1500 AT8130               1 Z
112160002112160079-000298     112160006003000647156PAINT SET FINGER PAINT 0000001000+00006955+00000+0001T   00008086+0008301651          1500 AT8130               1 Z
112160003112160369-061024     112160006008766061024SOFT BALLS W/BELL 4PC  0000001000+00011303+00000+0001T   00011303+0000001651          1500 AT8745               1 Z
112160004112160903-000619     112160006003000672455SWT LOLLY STR/BRRY 140G0000002000+00001912+00000+0001T   00001912+0000001651          1500 AT8150               1 Z
112160005112160079-011544     112160006003000647316CREATE MOULD+PAINT     0000001000+00005564+00000+0001T   00005564+0000001651          1500 AT8130               1 Z
112160006112160903-000922     112160006914204008158SWT ST NOVELTY CAR     0000001000+00002781+00000+0001T   00002781+0000001651          1500 AT8150               1 Z
112161000112161               112161               170213SI     1500+00000+SI0000005562+0000005562+000000000+000000836+0000006390+0000000008+I20000000000+0000006390+Z
112161001112161566-000308     112161006003000522521STICKER TAPE 3PCS      0000002000+00002781+00000+0001T   00002781+0000001653          1500 AT8130               1 Z
112162000112162               112162               170213SI     1500+00000+SI0000008778+0000008778+000000000+000001319+0000010090+0000000007+I20000000000+0000010090+Z
112162001112162263-000193     112162006003000299126CAR TRACK PUSH & LOOP  0000001000+00004607+00000+0001T   00004607+0000001658          1500 AT8710               1 Z
112162002112162262-000625     112162006003000119585CAR MDC JEEP & TRAILER 0000001000+00002781+00000+0001T   00002781+0000001658          1500 AT8710               1 Z
112162003112162903-004952     112162006002580020052SWT FREAKY FACES 100G  0000001000+00001390+00000+0001T   00001390+0000001658          1500 AT8150               1 Z
112163000112163               112163               170213SI     1500+00000+SI0000000564+0000000564+000000000+000000085+0000000640+0000000009+I20000000000+0000000640+Z
112163001112163903-000151     112163006009803374411SWT SML RND R/BOW LOLLY0000001000+00000564+00000+0001T   00000564+0000001700          1500 AT8150               1 Z
112164000112164               112164               170213SI     1500+00000+SI0000010519+0000010519+000000000+000001579+0000012090+0000000008+I20000000000+0000012090+Z
112164001112164103-000070     112164006003000630608BAMBOO BASKET 39x25x8cm0000001000+00009564+00000+0001T   00009564+0000001703          1500 AT8300               1 Z
112164002112164077-000150-D   112164006003000054343GIFT-WRAP CELLPHANE CLR0000001000+00000955+00000+0001T   00000955+0000001703          1500 AT8112               1 Z
112165000112165               112165               170213SI     1500+00000+SI0000014865+0000014865+000000000+000002231+0000017090+0000000006+I20000000000+0000017090+Z
112165001112165200-000220     112165006008766126976BAKEPANS 5PCE          0000001000+00002520+00000+0001T   00002520+0000001705          1500 AT8214               1 Z
112165002112165103-000070     112165006003000630608BAMBOO BASKET 39x25x8cm0000001000+00009564+00000+0001T   00009564+0000001705          1500 AT8300               1 Z
112165003112165103-000461     112165006003000588176FLOWER BASKET 26cm-DIA 0000001000+00002781+00000+0001T   00002781+0000001705          1500 AT8300               1 Z
112166000112166               112166               170213SI     1500+00000+SI0000007082+0000007082+000000000+000001064+0000008140+0000000006+I20000000000+0000008140+Z
112166001112166006-000124     112166006003000625888BALLOONS 10PC MIX COL  0000001000+00001912+00000+0001T   00001912+0000001718          1500 AT8131               1 Z
112166002112166039-000320     112166006001023816153BIRTHDAY-CANDLES 13PCE 0000001000+00002781+00000+0001T   00002781+0000001718          1500 AT8510               1 Z
112166003112166080-000133     112166006003000535613CARD&ENV MINI ASTD DSGN0000001000+00000477+00000+0001T   00000477+0000001718          1500 AT8112               1 Z
112166004112166077-000301     112166008010410010188BAG LRG 25X32CM B/DAY  0000001000+00001912+00000+0001T   00001912+0000001718          1500 AT8112               1 Z
112167000112167               112167               170213SI     1500+00000+SI0000003738+0000003738+000000000+000000561+0000004290+0000000009+I20000000000+0000004290+Z
112167001112167018-005009     112167006001023725608MUG W/PLUSH-BEAR LOVE  0000001000+00003738+00000+0001T   00003738+0000001731          1500 AT8515               1 Z
112168000112168               112168               170213SI     1500+00000+SI0000001564+0000001564+000000000+000000235+0000001790+0000000009+I20000000000+0000001790+Z
112168001112168018-000127     112168006001023380289MUG OCC STRAIGHT LOVE  0000001000+00001564+00000+0001T   00001912+0006481732          1500 AT8515               1 Z
112169000112169               112169               170213SI     1500+00000+SI0000000607+0000000607+000000000+000000092+0000000690+0000000009+I20000000000+0000000690+Z
112169001112169304-001011     112169006001023806727FLWR ROSE RED W/BEAR   0000001000+00000607+00000+0001T   00000825+0006481742          1500 AT8510               1 Z
112170000112170               112170               170213SI     1500+00000+SI0000002994+0000002994+000000000+000000450+0000003440+0000000004+I20000000000+0000003440+Z
112170001112170006-001000-NA  112170006003000714087HELIUM BALLOON FILL    0000003000+00000738+00000+0001T   00000738+0000001744          1500 AT8131               1 Z
112170002112170006-000172-A   112170006003000609765BALLOONS METALLIC PINK 0000003000+00000260+00000+0001T   00000260+0000001744          1500 AT8131               1 Z
112171000112171               112171               170213SI     1500+00000+SI0000001912+0000001912+000000000+000000287+0000002190+0000000009+I20000000000+0000002190+Z
112171001112171080-000111     112171006003000252695CARD&ENVELPE - MUSICAL 0000001000+00001912+00000+0001T   00001912+0000001745          1500 AT8112               1 Z
112172000112172               112172               170213SI     1500+00000+SI0000013215+0000013215+000000000+000001983+0000015190+0000000008+I20000000000+0000015190+Z
112172001112172368-000637     112172006001023874092PLUSH BEAR SLEEPING LOV0000001000+00011303+00000+0001T   00012607+0006481747          1500 AT8745               1 Z
112172002112172077-000299-A   112172006003000670888GIFT-BAG PAPER JMB LOVE0000001000+00001912+00000+0001T   00001912+0000001747          1500 AT8112               1 Z
112173000112173               112173               170213SI     1500+00000+SI0000009564+0000009564+000000000+000001435+0000010990+0000000009+I20000000000+0000010990+Z
112173001112173368-000012     112173006003000610464PLUSH BEAR 30cm SITTING0000001000+00009564+00000+0001T   00009564+0000001747          1500 AT8745               1 Z
112174000112174               112174               170213SI     1500+00000+SI0000005040+0000005040+000000000+000000757+0000005790+0000000007+I20000000000+0000005790+Z
112174001112174079-006494     112174006003000159864GLITTER GLUE 5PCE 11cm 0000001000+00001564+00000+0001T   00001564+0000001748          1500 AT8130               1 Z
112174002112174071-081103     112174006003000197002GLUE STICKS LIQUID 3PCE0000001000+00001912+00000+0001T   00001912+0000001748          1500 AT8130               1 Z
112174003112174366-004050     112174006003000308330DRESS UP TEEN BADGES   0000001000+00001564+00000+0001T   00001564+0000001748          1500 AT8131               1 Z
112175000112175               112175               170213SI     1500+00000+SI0000026202+0000026202+000000000+000003935+0000030137+0000000000+I40000030137+0000000000+Z
112175001112175077-000245     112175006001023759214GIFT-RIBBON METALLICx2 0000001000+00001303+00000+0001T   00001303+0000001751          1500 AT8112               1 Z
112175002112175077-000299-A   112175006003000670888GIFT-BAG PAPER JMB LOVE0000001000+00001912+00000+0001T   00001912+0000001751          1500 AT8112               1 Z
112175003112175077-000010-R   112175006001023123916CREPE-PAPER CANARY-YELL0000001000+00000868+00000+0001T   00000868+0000001751          1500 AT8112               1 Z
112175004112175077-000011-D   112175006001023808554TISSUE-WRAP WHITE 10PCE0000001000+00000955+00000+0001T   00000955+0000001751          1500 AT8112               1 Z
112175005112175077-000010-Z   112175006001023157874CREPE-PAPER BLK/ORG/PUR0000001000+00000868+00000+0001T   00000868+0000001751          1500 AT8112               1 Z
112175006112175031-000002     112175006001023851338FRAME FRIENDS 7.5x7.5cm0000001000+00003738+00000+0001T   00003738+0000001751          1500 AT8510               1 Z
112175007112175565-000044     112175006003000128280BARREL OF SLIME 100g   0000001000+00000651+00000+0001T   00000651+0000001751          1500 AT8745               1 Z
112175008112175003-002259     112175006001023860330ORN CERAMIC HEDGEHOG   0000001000+00002346+00000+0001T   00002346+0000001751          1500 AT8505               1 Z
112175009112175018-019000     112175006003000557288MUG OCC. LOVE JUMBO    0000001000+00005564+00000+0001T   00005564+0000001751          1500 AT8515               1 Z
112175010112175077-000315     112175006003000181186GIFT-BAG 20x28cm MATT  0000001000+00001651+00000+0001T   00001651+0000001751          1500 AT8112               1 Z
112175011112175368-000175     112175006003000270316PLUSH BEAR 4 ASSTD 18CM0000001000+00006346+00000+0001T   00006346+0000001751          1500 AT8745               1 Z
112176000112176               112176               170213SI     1500+00000+SI0000001303+0000001303+000000000+000000196+0000001490+0000000009+I20000000000+0000001490+Z
112176001112176077-000322     112176006001023677532GIFT-BAG 18X23CM E/D FL0000001000+00001303+00000+0001T   00001303+0000001753          1500 AT8112               1 Z
112177000112177               112177               170213SI     1500+00000+SI0000011814+0000011814+000000000+000001777+0000013590+0000000001+I20000000000+0000013590+Z
112177001112177077-000309-A   112177006003000671007GIFT-BAG HOLOGRAM JMB  0000001000+00002346+00000+0001T   00002346+0000001754          1500 AT8112               1 Z
112177002112177088-000084     112177006001023798060P/POURRI 120G ASSTD    0000001000+00001912+00000+0001T   00001912+0000001754          1500 AT8212               1 Z
112177003112177077-000349-B   112177006001023908315G/RIBBON 3ROLLS 12BOWS 0000001000+00002781+00000+0001T   00002781+0000001754          1500 AT8112               1 Z
112177004112177077-000151     112177006008766114676GIFT-WRAP C/PHANE ASSTD0000005000+00000955+00000+0001T   00000955+0000001754          1500 AT8112               1 Z
112178000112178               112178               170213SI     1500+00000+SI0000002607+0000002607+000000000+000000392+0000002990+0000000009+I20000000000+0000002990+Z
112178001112178024-000149     112178006003000407552N/STICK G/BREAD MAN    0000001000+00002607+00000+0001T   00003738+0008201757          1500 AT8300               1 Z
112179000112179               112179               170213SI     1500+00000+SI0000039808+0000039808+000000000+000005976+0000045784+0000000000+I40000045784+0000000000+Z
112179001112179103-000073     112179006003000630769BASKET BAMBOO 29x17x3cm0000002000+00004607+00000+0001T   00004607+0000001801          1500 AT8300               1 Z
112179002112179103-000788     112179006001023896292WOVEN ROUND BASKET     0000004000+00002520+00000+0001T   00002520+0000001801          1500 AT8300               1 Z
112179003112179103-000060     112179006001023795489BAMBOO BASKET RECT     0000002000+00002781+00000+0001T   00002781+0000001801          1500 AT8300               1 Z
112179004112179103-000090     112179006001023795786WOVEN HEART SHAPED     0000004000+00003738+00000+0001T   00003738+0000001801          1500 AT8300               1 Z
112180000112180               112180               170213SI     1500+00000+SI0000003303+0000003303+000000000+000000496+0000003799+0000000000+I40000003799+0000000000+Z
112180001112180032-000340     112180006003000295883MIRROR SUCTION PL MAGN 0000001000+00003303+00000+0001T   00003303+0000001803          1500 AT8510               1 Z
112181000112181               112181               170213SI     1500+00000+SI0000002781+0000002781+000000000+000000418+0000003199+0000000000+I40000003199+0000000000+Z
112181001112181048-071503     112181006003000143719TOUCH-LIGHT LED B/O AST0000001000+00002781+00000+0001T   00002781+0000001804          1500 AT8305               1 Z
112182000112182               112182               170213SI     1500+00000+SI0000010600+0000010600+000000000+000001593+0000012190+0000000003+I20000000000+0000012190+Z
112182001112182079-009702-F   112182008427973059392PAPER SIRIO A2 GREEN   0000001000+00001129+00000+0001T   00001129+0000001810          1500 AT8130               1 Z
112182002112182079-009702-E   112182008427973059439PAPER SIRIO A2 BLUE    0000001000+00001129+00000+0001T   00001129+0000001810          1500 AT8130               1 Z
112182003112182079-009702-D   112182008427973059354PAPER SIRIO A2 RED COL 0000001000+00001129+00000+0001T   00001129+0000001810          1500 AT8130               1 Z
112182004112182079-009702-C   112182008427973059309PAPER SIRIO A2 VIOLET  0000001000+00001129+00000+0001T   00001129+0000001810          1500 AT8130               1 Z
112182005112182007-000597     112182006009699511129MARLIN SLF ADHESIVE 2M 0000001000+00002260+00000+0001T   00002260+0000001810          1500 AT8130               1 Z
112182006112182903-000619     112182006003000672455SWT LOLLY STR/BRRY 140G0000002000+00001912+00000+0001T   00001912+0000001810          1500 AT8150               1 Z
112183000112183               112183               170213SI     1500+00000+SI0000011126+0000011126+000000000+000001670+0000012796+0000000000+I40000012796+0000000000+Z
112183001112183024-000020     112183006003000108640ICING-SET PL S/S NOZZLE0000001000+00008086+00000+0001T   00008086+0000001812          1500 AT8300               1 Z
112183002112183024-091100     112183006001023914224BAKING-CUPS PAPER 100PC0000001000+00001912+00000+0001T   00001912+0000001812          1500 AT8300               1 Z
112183003112183903-000151     112183006009803374411SWT SML RND R/BOW LOLLY0000002000+00000564+00000+0001T   00000564+0000001812          1500 AT8150               1 Z
112184000112184               112184               170213SI     1500+00000+SI0000003738+0000003738+000000000+000000561+0000004290+0000000009+I20000000000+0000004290+Z
112184001112184108-005007     112184006003000323159TRAY PL 40cm ROUND     0000001000+00003738+00000+0001T   00003738+0000001812          1500 AT8210               1 Z
112185000112185               112185               170213SI     1500+00000+SI0000022952+0000022952+000000000+000003444+0000026396+0000000000+I40000026396+0000000000+Z
112185001112185368-000012     112185006003000610464PLUSH BEAR 30cm SITTING0000002000+00009564+00000+0001T   00009564+0000001816          1500 AT8745               1 Z
112185002112185077-000115     112185006001023834225WRAP METALLIC 700mmx1m 0000002000+00001912+00000+0001T   00001912+0000001816          1500 AT8112               1 Z
112186000112186               112186               170213SI     1500+00000+SI0000016344+0000016344+000000000+000002452+0000018796+0000000000+I40000018796+0000000000+Z
112186001112186565-000080     112186006003000643424NOVELTY BENDY          0000003000+00002260+00000+0001T   00002260+0000001818          1500 AT8745               1 Z
112186002112186567-010162     112186006003000485123BOOK TOP ASSTD NOVELS  0000001000+00009564+00000+0001T   00009564+0000001818          1500 AT8757               1 Z
112187000112187               112187               170213SI     1500+00000+SI0000001303+0000001303+000000000+000000196+0000001490+0000000009+I20000000000+0000001490+Z
112187001112187077-000245     112187006001023759214GIFT-RIBBON METALLICx2 0000001000+00001303+00000+0001T   00001303+0000001819          1500 AT8112               1 Z
112188000112188               112188               170213SI     1500+00000+SI0000001912+0000001912+000000000+000000287+0000002190+0000000009+I20000000000+0000002190+Z
112188001112188077-000299-A   112188006003000670888GIFT-BAG PAPER JMB LOVE0000001000+00001912+00000+0001T   00001912+0000001820          1500 AT8112               1 Z
112189000112189               112189               170213SI     1500+00000+SI0000008519+0000008519+000000000+000001279+0000009790+0000000008+I20000000000+0000009790+Z
112189001112189027-078343     112189006008766078343SCRUB-BRUSH IRON-SHAPE 0000001000+00001129+00000+0001T   00001651+0008301821          1500 AT8212               1 Z
112189002112189007-000526     112189006001023637994STATIONERY GIRL FLOWER 0000001000+00007390+00000+0001T   00007390+0000001821          1500 AT8130               1 Z
112190000112190               112190               170213SI     1500+00000+SI0000005650+0000005650+000000000+000000848+0000006490+0000000008+I20000000000+0000006490+Z
112190001112190077-000299-A   112190006003000670888GIFT-BAG PAPER JMB LOVE0000001000+00001912+00000+0001T   00001912+0000001822          1500 AT8112               1 Z
112190002112190103-000037     112190006003000568277BASKET WOVEN RECT      0000001000+00003738+00000+0001T   00003738+0000001822          1500 AT8300               1 Z
112191000112191               112191               170213SI     1500+00000+SI0000004693+0000004693+000000000+000000705+0000005390+0000000008+I20000000000+0000005390+Z
112191001112191077-000235     112191006003000160211GIFT-RIBBON ROLL METALC0000001000+00002781+00000+0001T   00002781+0000001824          1500 AT8112               1 Z
112191002112191077-000240     112191006003000326259G/RIBBON 4PC PEARLIZED 0000001000+00001912+00000+0001T   00001912+0000001824          1500 AT8112               1 Z
112192000112192               112192               170213SI     1500+00000+SI0000004990+0000004990+000000000+000000750+0000005740+0000000000+I20000000000+0000005740+Z
112192001112192006-001000-NA  112192006003000714087HELIUM BALLOON FILL    0000005000+00000738+00000+0001T   00000738+0000001825          1500 AT8131               1 Z
112192002112192006-000171-D   112192006003000609291BALLOONS 1PC ORANGE PRN0000002000+00000260+00000+0001T   00000260+0000001825          1500 AT8131               1 Z
112192003112192006-000172-A   112192006003000609765BALLOONS METALLIC PINK 0000003000+00000260+00000+0001T   00000260+0000001825          1500 AT8131               1 Z
112193000112193               112193               170213SI     1500+00000+SI0000001912+0000001912+000000000+000000287+0000002190+0000000009+I20000000000+0000002190+Z
112193001112193079-003001     112193006003000448951A/TUBE 75ML BLACK      0000001000+00001912+00000+0001T   00001912+0000001828          1500 AT8130               1 Z
112194000112194               112194               170213SI     1500+00000+SI0000002781+0000002781+000000000+000000418+0000003190+0000000009+I20000000000+0000003190+Z
112194001112194261-000948     112194006001023832559GUN FLYING DISC SHOOTER0000001000+00002781+00000+0001T   00002781+0000001829          1500 AT8710               1 Z
112195000112195               112195               170213SI     1500+00000+SI0000004868+0000004868+000000000+000000731+0000005599+0000000000+I40000005599+0000000000+Z
112195001112195103-000250     112195006003000571673BASKET WOVEN 29x23x6cm 0000001000+00004868+00000+0001T   00004868+0000001830          1500 AT8300               1 Z
112196000112196               112196               170213SI     1500+00000+SI0000002433+0000002433+000000000+000000365+0000002790+0000000008+I20000000000+0000002790+Z
112196001112196150-000775     112196006001023129253UTILITY-BOX LARGE      0000001000+00002433+00000+0001T   00002433+0000001835          1500 AT8810               1 Z
112197000112197               112197               170213SI     1500+00000+SI0000006820+0000006820+000000000+000001025+0000007845+0000000000+I40000007845+0000000000+Z
112197001112197079-009702-G   112197008427973060787PAPER SIRIO A2 FUSHIA  0000002000+00001129+00000+0001T   00001129+0000001838          1500 AT8130               1 Z
112197002112197006-000120     112197006001023346889BALLOONS 10PC MIX COL  0000001000+00001912+00000+0001T   00001912+0000001838          1500 AT8131               1 Z
112197003112197564-000012     112197006001023130075BUBBLE BOTTLE MAGIC    0000001000+00000738+00000+0001T   00000738+0000001838          1500 AT8131               1 Z
112197004112197903-000593     112197006003000563890SWT WATER GUN 15cm     0000001000+00001912+00000+0001T   00001912+0000001838          1500 AT8150               1 Z
112198000112198               112198               170213SI     1500+00000+SI0000001476+0000001476+000000000+000000222+0000001690+0000000008+I20000000000+0000001690+Z
112198001112198006-001000-NA  112198006003000714087HELIUM BALLOON FILL    0000002000+00000738+00000+0001T   00000738+0000001839          1500 AT8131               1 Z
112199000112199               112199               170213SI     1500+00000+SI0000001912+0000001912+000000000+000000287+0000002199+0000000000+I40000002199+0000000000+Z
112199001112199077-000471     112199006003000330096G-BAG DESGN MED 18X23CM0000001000+00001912+00000+0001T   00001912+0000001856          1500 AT8112               1 Z
112200000112200               112200               170213SI     1500+00000+SI0000016955+0000016955+000000000+000002544+0000019499+0000000000+I40000019499+0000000000+Z
112200001112200562-088354     112200006001023735980EVA MAT 26PC 30x30cm   0000001000+00016955+00000+0001T   00016955+0000001857          1500 AT8755               1 Z
112201000112201               112201               170213SI     1500+00000+SI0000006519+0000006519+000000000+000000979+0000007490+0000000008+I20000000000+0000007490+Z
112201001112201204-000004     112201006003000416318MEMO HOLDERS ASSTD 7PCE0000001000+00002781+00000+0001T   00002781+0000001903          1500 AT8300               1 Z
112201002112201204-000012     112201006001023888518M/HOLDR 7PC DAYS WEEK  0000001000+00003738+00000+0001T   00003738+0000001903          1500 AT8300               1 Z
112202000112202               112202               170213SI     1500+00000+SI0000002260+0000002260+000000000+000000339+0000002590+0000000009+I20000000000+0000002590+Z
112202001112202566-000031     112202006003000283910STICKER BK TEACHER STIC0000001000+00002260+00000+0001T   00002260+0000001905          1500 AT8130               1 Z
112203000112203               112203               170213SI     1500+00000+SI0000001390+0000001390+000000000+000000209+0000001590+0000000009+I20000000000+0000001590+Z
112203001112203304-001204     112203006001023737984FLOWER OCC. TEDDY/ROSES0000001000+00001390+00000+0001T   00001564+0006481905          1500 AT8510               1 Z
112204000112204               112204               170213SI     1500+00000+SI0000049842+0000049842+000000000+000007486+0000057320+0000000008+I20000000000+0000057320+Z
112204001112204041-007029     112204006003000178049H/GLO BUBBLE-BATH 2L   0000002000+00006520+00000+0001T   00006520+0000001914          1500 AT8200               1 Z
112204002112204368-000048     112204006003000537075PLUSH FINGER PUPPETS   0000002000+00002781+00000+0001T   00002781+0000001914          1500 AT8745               1 Z
112204003112204105-007405     112204006003000629558CONTAINER MINI 300ml   0000001000+00002607+00000+0001T   00003129+0008281914          1500 AT8210               1 Z
112204004112204105-007410     112204006003000629671CONTAINER MINI 300ml   0000001000+00002607+00000+0001T   00003738+0008281914          1500 AT8210               1 Z
112204005112204032-000340     112204006003000295883MIRROR SUCTION PL MAGN 0000002000+00003303+00000+0001T   00003303+0000001914          1500 AT8510               1 Z
112204006112204903-000211     112204006002099001238SWT GS MALLOW ICE CREAM0000001000+00001912+00000+0001T   00001912+0000001914          1500 AT8150               1 Z
112204007112204903-005007     112204006002580020311SWT MALLOW BEAR M/SHAKE0000001000+00001390+00000+0001T   00001390+0000001914          1500 AT8150               1 Z
112204008112204903-004961     112204008410525221866SWT GUMMY FINI WILD 50g0000001000+00001042+00000+0001T   00001042+0000001914          1500 AT8150               1 Z
112204009112204903-002900     112204005996071650648QUICK MILK 5 CHOCO 5PC 0000001000+00001738+00000+0001T   00001738+0000001914          1500 AT8150               1 Z
112204010112204903-000295     112204006001704002899SWT MS FRUITY RASCALS  0000001000+00000955+00000+0001T   00000955+0000001914          1500 AT8150               1 Z
112204011112204903-000126     112204006002099003591SWT ZILLIONS MINT 50G  0000001000+00000738+00000+0001T   00000738+0000001914          1500 AT8150               1 Z
112204012112204903-000081     112204006001704014076SWT F/PASTILLES 100G   0000001000+00001912+00000+0001T   00001912+0000001914          1500 AT8150               1 Z
112204013112204003-000250     112204006003000035045ORN DECOR NOVELTY GRASS0000001000+00001738+00000+0001T   00001912+0008301914          1500 AT8505               1 Z
112204014112204077-000304     112204006001023483232GIFT-BAG 25X32CM E/DAY 0000001000+00001564+00000+0001T   00001564+0000001914          1500 AT8112               1 Z
112204015112204077-000388     112204006003000421671G/BAG 25X32CM VALUE PCK0000001000+00002781+00000+0001T   00002781+0000001914          1500 AT8112               1 Z
112204016112204566-000991     112204000721129013121STICKERS GLOW-IN-DARK  0000001000+00002260+00000+0001T   00002260+0000001914          1500 AT8130               1 Z
112204017112204566-000992     112204006001023600639STICKERS GLOW-IN-DARK  0000001000+00001390+00000+0001T   00001390+0000001914          1500 AT8130               1 Z
112205000112205               112205               170213SI     1500+00000+SI0000010000-0000000000+000000000+000000000+0000010000-0000000000+I20000000000+0000010000-Z
112205001112205001-999911     112205000000000999911SUNDRIES               0000001000-00010000+00000+0001X   00000000+0000001916          0000 AT89111IC            1 Z
A17021300                                          13063697SISLAVE 1                       AT83IC
A17021301                                          15013841SISLAVE 1                       AT83IC
C11220100                                          170213SI486-000010     19014650SLAVE 1     AT81IC0000000000+0000000000+0010000001000+
M17021391                              CASH        SISLAVE 1                       Z-REPORT No.   337TOTAL (Sales - Refunds)          10524.89       CASH TO BE BANKED                 6285.80       DEBIT CARDS                          0.00       CREDIT CARDS                      3839.09       Z-READING                        10424.89       AIRTIME DEBIT CARD SALES             0.00       AIRTIME CARD SALES                   0.00       OVERS/UNDERS                       300.00-      AIRTIME CASH SALES                   0.00       GIFT CARDS                           0.00       GIFT CARD CASH SALES                 0.00       SUNDRIES                           100.00       T O T A L  CASH PAYOUTS            100.00                                                                                                                                                                                                                                                                                                      Z
M17021392                              CASH        SIABSENT                                                                                                                                                                                          ANNUAL LEAVE                                                                                                                                                                                    DAY OFF                                                                                                                                                                                         COMMENTS          CASHIER SHORT 300 BANK TRNSFER                  LAST MONTH                                                                                                                                                                                                                                                                                                                   Z
Y17021300                                          SI00000000922946+000100
ZSI17021320223 SLAVE 1      SALES DATA                     NEXT INVOICE NO.  112206 0337
T094735112-116069                                          1702131035380040001ICSLAVE 1
R5796230000116069                                  567-004952     0097806360490791702130000031ICSLAVE 1     170213160622                     00
R5796230000216069                                  567-004954     0097806360491921702130000031ICSLAVE 1     170213160554                     00
R5796230000316069                                  567-004955     0097806360491301702130000031ICSLAVE 1     170213160558                     00
R5796230000416069                                  567-004957     0097806360490861702130000031ICSLAVE 1     170213160617                     00
R5796230000516069                                  567-004959     0097806360492081702130000031ICSLAVE 1     170213160546                     00
R5796230000616069                                  567-004960     0097806360491471702130000031ICSLAVE 1     170213160603                     00
R5796230000716069                                  567-004961     0097806360490171702130000031ICSLAVE 1     170213160638                     00
R5796230000816069                                  567-004962     0097806360490931702130000031ICSLAVE 1     170213160611                     00
R5796230000916069                                  567-004963     0097806360490311702130000031ICSLAVE 1     170213160646                     00
R5796230001016069                                  567-004965     0097806360492151702130000031ICSLAVE 1     170213160537                     00
R5796230001116069                                  567-004966     0097806360491541702130000031ICSLAVE 1     170213160607                     00
R5796230001216069                                  567-004976     0097806360490241702130000031ICSLAVE 1     170213160631                     00
R5796230001316069                                  567-007950     0097817757824691702130000031ICSLAVE 1     170213160516                     00
R5796230001416069                                  567-007951     0097817757824521702130000031ICSLAVE 1     170213160506                     00
R5796230001516069                                  567-011520     0097817759546821702130000031ICSLAVE 1     170213160527                     00
R5796230001716069                                  567-013439     0097817757855901702130000121ICSLAVE 1     170213160451                     00
X SI Slave 1 First invoice 112104 170213 Last invoice 112205 170213 Next invoice 112206 Total number of records 000000371 clbackup completed 20:22:46
