120552000120552               120552               170210SI     1500+00000+SI0000070414+0000070414+000000000+000010568+0000080982+0000000000+I40000080982+0000000000+Z
120552001120552079-011520     120552006003000160549ART+CRAFT SET SAND BOTL0000001000+00006955+00000+0001T   00008086+0008300911          1500 HL3130               2 Z
120552002120552077-000324     120552006001023677594GIFT-BAG 33X45CM E/D FL0000001000+00001912+00000+0001T   00001912+0000000911          1500 HL3112               2 Z
120552003120552031-000924     120552006001023669964P/FRAME COLLAGE PL     0000001000+00009564+00000+0001T   00009564+0000000911          1500 HL3510               2 Z
120552004120552365-003047     120552006001023859891PLAY SET 20PCE TEA SET 0000001000+00008694+00000+0001T   00010868+0008300911          1500 HL3725               2 Z
120552005120552051-002400     120552006001023616180TRIGGER-SPRAYER 900ml  0000001000+00002260+00000+0001T   00002260+0000000911          1500 HL3820               2 Z
120552006120552105-007510     120552006003000487424STORAGE BOX CLEAR 3.75L0000002000+00006520+00000+0001T   00006520+0000000911          1500 HL3210               2 Z
120552007120552105-001075     120552006001023844873LUNCH BOX 17x11x7cm    0000002000+00003129+00000+0001T   00003129+0000000911          1500 HL3210               2 Z
120552008120552001-091415     120552006003000329113W/GLS OCC. LOVE 2PC 2800000001000+00008694+00000+0001T   00009650+0006480911          1500 HL3515               2 Z
120552009120552566-000200     120552006003000384174STICKER PUFFY NEON     0000001000+00000955+00000+0001T   00000955+0000000911          1500 HL3130               2 Z
120552010120552566-000535     120552006003000284719STICKER SPARKLE EMBOSS 0000001000+00001912+00000+0001T   00001912+0000000911          1500 HL3130               2 Z
120552011120552566-000991     120552000721129013121STICKERS GLOW-IN-DARK  0000001000+00002260+00000+0001T   00002260+0000000911          1500 HL3130               2 Z
120552012120552566-000065     120552006003000217915STICKERS GLITTER ASSTD 0000001000+00001912+00000+0001T   00001912+0000000911          1500 HL3130               2 Z
120552013120552566-000068     120552006003000418046POP UP LOVE 2 ASSTD    0000001000+00002260+00000+0001T   00002260+0000000911          1500 HL3130               2 Z
120552014120552306-000027     120552006009654960900COTTON WOOL PADS 2-PACK0000001000+00003738+00000+0001T   00003738+0000000911          1500 HL3200               2 Z
120553000120553               120553               170210SI     1500+00000+SI0000005818+0000005818+000000000+000000875+0000006690+0000000003+I20000000000+0000006690+Z
120553001120553006-000167-E   120553006003000517213BALLOONS GOLD METALLIC 0000001000+00001390+00000+0001T   00001390+0000000912          1500 HL3131               2 Z
120553002120553006-001000-NA  120553006003000714087HELIUM BALLOON FILL    0000006000+00000738+00000+0001T   00000738+0000000912          1500 HL3131               2 Z
120554000120554               120554               170210SI     1500+00000+SI0000003389+0000003389+000000000+000000509+0000003890+0000000008+I20000000000+0000003890+Z
120554001120554047-000508     120554006009636901983PLG EURODAPTOR 3x5A-2PN0000001000+00001912+00000+0001T   00001912+0000000913          1500 HL3880               2 Z
120554002120554046-000011     120554004897006172994BATTERIES SIZE:AA  2PCE0000001000+00001477+00000+0001T   00001477+0000000913          1500 HL3312               2 Z
120555000120555               120555               170210SI     1500+00000+SI0000029468+0000029468+000000000+000004424+0000033892+0000000000+I40000033892+0000000000+Z
120555001120555024-000174     120555006003000504664SILICONE CUP-PAN 6-CUP 0000001000+00005564+00000+0001T   00005564+0000001014          1500 DO5300               2 Z
120555002120555024-000175     120555006003000120765SILICONE C/PAN 12-CUPS 0000001000+00010868+00000+0001T   00010868+0000001014          1500 DO5300               2 Z
120555003120555903-000518     120555006001704012782SWT STRAWS S/BERRY 100g0000003000+00001303+00000+0001T   00001303+0000001014          1500 DO5150               2 Z
120555004120555002-000094     120555006001023489753PIZZA-CUTTER           0000001000+00002781+00000+0001T   00002781+0000001014          1500 DO5300               2 Z
120555005120555567-075497     120555009780799381627BK NOVEL ROMANCE AFR   0000001000+00006346+00000+0001T   00006346+0000001014          1500 DO5757               2 Z
120556000120556               120556               170210SI     1500+00000+SI0000005736+0000005736+000000000+000000861+0000006590+0000000007+I20000000000+0000006590+Z
120556001120556565-000043     120556006003000109562NOVELTY BALL FUNNY FACE0000003000+00001912+00000+0001T   00001912+0000001043          1500 DO5745               2 Z
120557000120557               120557               170210SI     1500+00000+SI0000010256+0000010256+000000000+000001540+0000011790+0000000006+I20000000000+0000011790+Z
120557001120557006-000167-E   120557006003000517213BALLOONS GOLD METALLIC 0000002000+00001390+00000+0001T   00001390+0000001045          1500 DO5131               2 Z
120557002120557002-001068     120557006001023812001DISP. BOTTLES PL H/H   0000001000+00001912+00000+0001T   00001912+0000001045          1500 DO5300               2 Z
120557003120557039-082106     120557006001023847348C/VOTIVE 8PC VANILLA   0000001000+00005564+00000+0001T   00005564+0000001045          1500 DO5510               2 Z
120558000120558               120558               170210SI     1500+00000+SI0000001910+0000001910+000000000+000000288+0000002190+0000000008+I20000000000+0000002190+Z
120558001120558038-047246     120558006001023873750PLACEMAT 44x28cm KIDS  0000002000+00000955+00000+0001T   00000955+0000001047          1500 DO5300               2 Z
120559000120559               120559               170210SI     1500+00000+SI0000020249+0000020249+000000000+000003042+0000023291+0000000000+I40000023291+0000000000+Z
120559001120559033-000123     120559006003000622382HAIR COMB STRAIGHTENING0000001000+00001912+00000+0001T   00001912+0000001050          1500 DO5200               2 Z
120559002120559033-005991     120559006001023678546NEEDLES H/HOLD-REPAIR  0000001000+00000868+00000+0001T   00000868+0000001050          1500 DO5200               2 Z
120559003120559002-000879     120559006001023770004STRAINER TEA 7cm H/H   0000001000+00000346+00000+0001T   00000346+0000001050          1500 DO5300               2 Z
120559004120559002-000878     120559006001023770967STRAINER TEA WIRE 7cm  0000001000+00001564+00000+0001T   00001564+0000001050          1500 DO5300               2 Z
120559005120559158-000050     120559006003000630097CUP HANGER CHROME HOOKS0000002000+00004607+00000+0001T   00004607+0000001050          1500 DO5300               2 Z
120559006120559158-000022     120559006003000568741PLATE STAND CHROME     0000001000+00004607+00000+0001T   00004607+0000001050          1500 DO5300               2 Z
120559007120559158-000005     120559006001023594839CELLPHONE STAND 10.5cm 0000001000+00001738+00000+0001T   00002781+0008281050          1500 DO5300               2 Z
120560000120560               120560               170210SI     1500+00000+SI0000052948+0000052948+000000000+000007945+0000060893+0000000000+I40000060893+0000000000+Z
120560001120560466-008889     120560006001023835376WHISTLE SPORTS+STRING  0000003000+00001912+00000+0001T   00001912+0000001106          1500 DO5785               2 Z
120560002120560466-000606     120560006001023752178BALL SOC 3-PLY PANEL   0000002000+00013042+00000+0001T   00013042+0000001106          1500 DO5785               2 Z
120560003120560466-000607     120560006003000027620BALL VOLLEYBALL 19cm   0000001000+00008086+00000+0001T   00008086+0000001106          1500 DO5785               2 Z
120560004120560466-000606     120560006001023752178BALL SOC 3-PLY PANEL   0000001000+00013042+00000+0001T   00013042+0000001106          1500 DO5785               2 Z
120561000120561               120561               170210SI     1500+00000+SI0000018279+0000018279+000000000+000002746+0000021020+0000000005+I20000000000+0000021020+Z
120561001120561903-000592     120561006003000563777SWT CELLPHONE 12cm     0000001000+00002781+00000+0001T   00002781+0000001114          1500 DO5150               2 Z
120561002120561065-003630     120561006001023647511MICROPHONE ECHO        0000001000+00001912+00000+0001T   00001912+0000001114          1500 DO5745               2 Z
120561003120561034-000713     120561006001023899507COOEY TUMBLER NON-SPILL0000001000+00001738+00000+0001T   00002781+0008261114          1500 DO5215               2 Z
120561004120561065-003639     120561006001023787620GUITAR ROCKER          0000001000+00007390+00000+0001T   00007390+0000001114          1500 DO5745               2 Z
120561005120561079-009700-L   120561006003000546350PAPER SIRIO A4 YELLOW  0000004000+00000346+00000+0001T   00000346+0000001114          1500 DO5130               2 Z
120561006120561079-009700-M   120561006003000634101PAPER SIRIO A4 PINK COL0000005000+00000338+00000+0001T   00000338+0000001114          1500 DO5130               2 Z
120561007120561079-009700-G   120561006003000545957PAPER SIRIO A4 LIME COL0000004000+00000346+00000+0001T   00000346+0000001114          1500 DO5130               2 Z
120562000120562               120562               170210SI     1500+00000+SI0000001303+0000001303+000000000+000000196+0000001490+0000000009+I20000000000+0000001490+Z
120562001120562077-000318     120562006001023609755GIFT-BAG 18X23CM E/D AN0000001000+00001303+00000+0001T   00001303+0000001115          1500 DO5112               2 Z
120563000120563               120563               170210SI     1500+00000+SI0000006346+0000006346+000000000+000000952+0000007290+0000000008+I20000000000+0000007290+Z
120563001120563567-075470     120563009780007795352BK NOVEL CATEGORY B    0000001000+00006346+00000+0001T   00006346+0000001121          1500 DO5757               2 Z
120564000120564               120564               170210SI     1500+00000+SI0000014946+0000014946+000000000+000002246+0000017190+0000000002+I20000000000+0000017190+Z
120564001120564038-047246     120564006001023873750PLACEMAT 44x28cm KIDS  0000001000+00000955+00000+0001T   00000955+0000001122          1500 DO5300               2 Z
120564002120564038-047245     120564006001023637444PLACE-MAT DESIGNS ASSTD0000002000+00000955+00000+0001T   00000955+0000001122          1500 DO5300               2 Z
120564003120564038-047246     120564006001023873750PLACEMAT 44x28cm KIDS  0000001000+00000955+00000+0001T   00000955+0000001122          1500 DO5300               2 Z
120564004120564004-071206     120564006003000605156USB CABLE CHARGER      0000001000+00003738+00000+0001T   00003738+0000001122          1500 DO5310               2 Z
120564005120564046-000012     120564006904708013062BATTERIES AA  CARD-OF-40000001000+00001390+00000+0001T   00001390+0000001122          1500 DO5312               2 Z
120564006120564200-000020     120564006925406841030BAG ZIPPERSEAL 25PC    0000001000+00002260+00000+0001T   00002260+0000001122          1500 DO5214               2 Z
120564007120564004-071212     120564006003000438129LAPTOP STAND ADJUSTABLE0000001000+00003738+00000+0001T   00003738+0000001122          1500 DO5310               2 Z
120565000120565               120565               170210SI     1500+00000+SI0000001390+0000001390+000000000+000000209+0000001590+0000000009+I20000000000+0000001590+Z
120565001120565566-001012     120565006001023528070STICKERS GLOW IN DARK  0000001000+00001390+00000+0001T   00001390+0000001124          1500 DO5130               2 Z
120566000120566               120566               170210SI     1500+00000+SI0000002346+0000002346+000000000+000000352+0000002690+0000000008+I20000000000+0000002690+Z
120566001120566251-000002     120566006003000093991TAPE D-SIDED 24x1000mm 0000001000+00002346+00000+0001T   00002346+0000001126          1500 DO5810               2 Z
120567000120567               120567               170210SI     1500+00000+SI0000044769+0000044769+000000000+000006718+0000051487+0000000000+I40000051487+0000000000+Z
120567001120567037-000004     120567006001023763679ASHTRAY PL TUB 8X11CM  0000001000+00001738+00000+0001T   00002260+0008301129          1500 DO5515               2 Z
120567002120567301-085007     120567006003000673698ORN OCC. LOVE S/PLAQUE 0000001000+00008346+00000+0001T   00008346+0000001129          1500 DO5505               2 Z
120567003120567018-000136     120567006001023659026MUG OCC LOVE W/PLUSH   0000001000+00003477+00000+0001T   00003738+0006481129          1500 DO5515               2 Z
120567004120567088-000084     120567006001023798060P/POURRI 120G ASSTD    0000001000+00001912+00000+0001T   00001912+0000001129          1500 DO5212               2 Z
120567005120567039-000624     120567006003000054923C/SET 4PC PILLARS 5X8CM0000001000+00007216+00000+0001T   00007216+0000001129          1500 DO5510               2 Z
120567006120567039-001023     120567006003000466337CANDLE TEA-LITE METALIC0000001000+00001912+00000+0001T   00001912+0000001129          1500 DO5510               2 Z
120567007120567903-000619     120567006003000672455SWT LOLLY STR/BRRY 140G0000001000+00001912+00000+0001T   00001912+0000001129          1500 DO5150               2 Z
120567008120567007-000614     120567006001023768667DIARY W/LOCK+PEN LOVE  0000001000+00005564+00000+0001T   00005564+0000001129          1500 DO5130               2 Z
120567009120567040-000214     120567006003000221523C/HOLDER-SET 3PC GLS   0000002000+00006346+00000+0001T   00006346+0000001129          1500 DO5510               2 Z
120568000120568               120568               170210SI     1500+00000+SI0000005564+0000005564+000000000+000000835+0000006390+0000000009+I20000000000+0000006390+Z
120568001120568006-000098     120568006003000601325PARTY PHOTO BOOTH 20PC 0000001000+00005564+00000+0001T   00005564+0000001139          1500 DO5131               2 Z
120569000120569               120569               170210SI     1500+00000+SI0000031036+0000031036+000000000+000004656+0000035692+0000000000+I40000035692+0000000000+Z
120569001120569200-000200     120569006008766091144BAKING ALUM FOIL 2PCE  0000004000+00002260+00000+0001T   00002260+0000001145          1500 DO5214               2 Z
120569002120569469-000302     120569006003000128204B/BLOCKS 58PC MY TOWN  0000001000+00020520+00000+0001T   00020520+0000001145          1500 DO5755               2 Z
120569003120569564-000012     120569006001023130075BUBBLE BOTTLE MAGIC    0000002000+00000738+00000+0001T   00000738+0000001145          1500 DO5131               2 Z
120570000120570               120570               170210SI     1500+00000+SI0000005562+0000005562+000000000+000000836+0000006390+0000000008+I20000000000+0000006390+Z
120570001120570561-000045     120570009780710514424BOOK PAINT-MAGIC 32PG  0000002000+00002781+00000+0001T   00002781+0000001146          1500 DO5757               2 Z
120571000120571               120571               170210SI     1500+00000+SI0000001651+0000001651+000000000+000000248+0000001890+0000000009+I20000000000+0000001890+Z
120571001120571079-013032-C   120571006003000389520POLY SHAPES            0000001000+00001651+00000+0001T   00001651+0000001152          1500 DO5130               2 Z
120572000120572               120572               170210SI     1500+00000+SI0000001564+0000001564+000000000+000000235+0000001790+0000000009+I20000000000+0000001790+Z
120572001120572077-000452     120572006003000284986G/BAG METALLIC MED EMB 0000001000+00001564+00000+0001T   00001564+0000001157          1500 DO5112               2 Z
120573000120573               120573               170210SI     1500+00000+SI0000001303+0000001303+000000000+000000196+0000001490+0000000009+I20000000000+0000001490+Z
120573001120573903-000518     120573006001704012782SWT STRAWS S/BERRY 100g0000001000+00001303+00000+0001T   00001303+0000001307          1500 DO5150               2 Z
120574000120574               120574               170210SI     1500+00000+SI0000006346+0000006346+000000000+000000952+0000007290+0000000008+I20000000000+0000007290+Z
120574001120574072-000150     120574006003000093892PET DOG SHIRT BOY SMALL0000001000+00006346+00000+0001T   00006346+0000001311          1500 DO5870               2 Z
120575000120575               120575               170210SI     1500+00000+SI0000000477+0000000477+000000000+000000072+0000000540+0000000009+I20000000000+0000000540+Z
120575001120575080-000133     120575006003000535613CARD&ENV MINI ASTD DSGN0000001000+00000477+00000+0001T   00000477+0000001334          1500 DO5112               2 Z
120576000120576               120576               170210SI     1500+00000+SI0000000955+0000000955+000000000+000000144+0000001090+0000000009+I20000000000+0000001090+Z
120576001120576077-000314     120576006003000181148GIFT-BAG 11X14CM MATT  0000001000+00000955+00000+0001T   00000955+0000001336          1500 DO5112               2 Z
120577000120577               120577               170210SI     1500+00000+SI0000003129-0000003129-000000000+000000470-0000003600-0000000001+I20000000000+0000003600-Z
120577001120577048-000841     120577006001023867858TORCH KRYP-BULB (2xAA) 0000001000-00003129+00000+0001T   00003129+0000001430          1500 DO53053IC            2 Z
120578000120578               120578               170210SI     1500+00000+SI0000016604+0000016604+000000000+000002493+0000019097+0000000000+I40000019097+0000000000+Z
120578001120578267-000182     120578006003000390274PUZZLE 24pc ASSTD      0000001000+00004607+00000+0001T   00004607+0000001437          1500 DO5755               2 Z
120578002120578562-002000     120578006003000228539EDU THINK FIRST MEMORY 0000001000+00007390+00000+0001T   00007390+0000001437          1500 DO5755               2 Z
120578003120578267-000900     120578006003000635658PUZZLE JIGSAW 48PC     0000001000+00004607+00000+0001T   00004607+0000001437          1500 DO5755               2 Z
120579000120579               120579               170210SI     1500+00000+SI0000001912+0000001912+000000000+000000287+0000002190+0000000009+I20000000000+0000002190+Z
120579001120579046-002032-PK2 120579004897006175063BATTERIES CR-2032  2PCE0000001000+00001912+00000+0001T   00001912+0000001439          1500 DO5312               2 Z
120580000120580               120580               170210SI     1500+00000+SI0000003476+0000003476+000000000+000000522+0000003990+0000000008+I20000000000+0000003990+Z
120580001120580018-000127     120580006001023380289MUG OCC STRAIGHT LOVE  0000001000+00001564+00000+0001T   00001912+0006481441          1500 DO5515               2 Z
120580002120580077-000299-A   120580006003000670888GIFT-BAG PAPER JMB LOVE0000001000+00001912+00000+0001T   00001912+0000001441          1500 DO5112               2 Z
120581000120581               120581               170210SI     1500+00000+SI0000003648+0000003648+000000000+000000549+0000004190+0000000007+I20000000000+0000004190+Z
120581001120581080-000111     120581006003000252695CARD&ENVELPE - MUSICAL 0000001000+00001912+00000+0001T   00001912+0000001450          1500 DO5112               2 Z
120581002120581903-000138     120581006002099004314SWT GS WINE GUMS 60G   0000002000+00000868+00000+0001T   00000868+0000001450          1500 DO5150               2 Z
120582000120582               120582               170210SI     1500+00000+SI0000001780+0000001780+000000000+000000268+0000002040+0000000008+I20000000000+0000002040+Z
120582001120582903-000898     120582006922516801503SWT POPPING CANDY      0000001000+00001216+00000+0001T   00001216+0000001451          1500 DO5150               2 Z
120582002120582903-000077     120582006939873501687SWT GS MAGIC ROCK FRUIT0000001000+00000564+00000+0001T   00000564+0000001451          1500 DO5150               2 Z
120583000120583               120583               170210SI     1500+00000+SI0000006605+0000006605+000000000+000000992+0000007597+0000000000+I40000007597+0000000000+Z
120583001120583073-000157     120583006003000571734COSMETIC QUILTED BAG   0000001000+00002781+00000+0001T   00002781+0000001453          1500 DO5200               2 Z
120583002120583071-008229     120583006003000216017PENCIL-BAG ASTD COL A5 0000002000+00001912+00000+0001T   00001912+0000001453          1500 DO5130               2 Z
120584000120584               120584               170210SI     1500+00000+SI0000000738+0000000738+000000000+000000111+0000000840+0000000009+I20000000000+0000000840+Z
120584001120584565-000256     120584006003000609826NOVELTY GLOW SLIME     0000001000+00000738+00000+0001T   00000738+0000001453          1500 DO5745               2 Z
120585000120585               120585               170210SI     1500+00000+SI0000002346+0000002346+000000000+000000352+0000002690+0000000008+I20000000000+0000002690+Z
120585001120585034-000712     120585006003000638550COOEY SIPPER CUPS 3PCE 0000001000+00002346+00000+0001T   00002346+0000001459          1500 DO5215               2 Z
120586000120586               120586               170210SI     1500+00000+SI0000000477+0000000477+000000000+000000072+0000000540+0000000009+I20000000000+0000000540+Z
120586001120586903-000094     120586006923431501622SWT GS CANDY NECKLACE  0000001000+00000477+00000+0001T   00000477+0000001500          1500 DO5150               2 Z
120587000120587               120587               170210SI     1500+00000+SI0000110224+0000110224+000000000+000016563+0000126780+0000000007+I20000000000+0000126780+Z
120587001120587006-000095     120587006003000376575PARTY FLAG PARTY'S HERE0000003000+00004607+00000+0001T   00004607+0000001509          1500 DO5131               2 Z
120587002120587077-000011-F   120587006001023808431TISSUE-WRAP BLUE/LILAC 0000007000+00000955+00000+0001T   00000955+0000001509          1500 DO5112               2 Z
120587003120587466-000515     120587006001023477408BALLS TENNIS BAG-OF-3  0000004000+00002781+00000+0001T   00002781+0000001509          1500 DO5785               2 Z
120587004120587263-000114     120587006001023827609CARS P/BACK RACER  4PCE0000002000+00003303+00000+0001T   00003303+0000001509          1500 DO5710               2 Z
120587005120587266-000508     120587006001023837172FIG ROBOT SET OF 6 8cm 0000001000+00004607+00000+0001T   00004607+0000001509          1500 DO5710               2 Z
120587006120587565-004101     120587006003000548033BALL BOUNCING EGG      0000004000+00001564+00000+0001T   00001564+0000001509          1500 DO5745               2 Z
120587007120587565-000043     120587006003000109562NOVELTY BALL FUNNY FACE0000002000+00001912+00000+0001T   00001912+0000001509          1500 DO5745               2 Z
120587008120587266-001505     120587006001023641816TOP,TWINE & MARBLES    0000003000+00000738+00000+0001T   00000738+0000001509          1500 DO5710               2 Z
120587009120587006-005904     120587006001023823205P/FAVOUR SOCCER BALL 6P0000001000+00002781+00000+0001T   00002781+0000001509          1500 DO5131               2 Z
120587010120587369-001138-C   120587006003000587520BABY BATH VINYL G/MAN  0000001000+00002781+00000+0001T   00002781+0000001509          1500 DO5745               2 Z
120587011120587369-001138     120587006003000555185VINYL 8.5cm THEMED DUCK0000001000+00001738+00000+0001T   00002781+0008251509          1500 DO5745               2 Z
120587012120587565-000892-A   120587006003000690725NOVELTY FUN BALL       0000002000+00001303+00000+0001T   00001912+0008251509          1500 DO5745               2 Z
120587013120587369-001137-B   120587006003000626373BABY BATH VINYL DUCK   0000001000+00001651+00000+0001T   00001651+0000001509          1500 DO5745               2 Z
120587014120587369-001137     120587006003000555062VINYL 5.7cm THEMED DUCK0000001000+00001912+00000+0001T   00001912+0000001509          1500 DO5745               2 Z
120587015120587369-001138     120587006003000555185VINYL 8.5cm THEMED DUCK0000001000+00001738+00000+0001T   00002781+0008251509          1500 DO5745               2 Z
120587016120587565-000256     120587006003000609826NOVELTY GLOW SLIME     0000004000+00000738+00000+0001T   00000738+0000001509          1500 DO5745               2 Z
120587017120587564-000012     120587006001023130075BUBBLE BOTTLE MAGIC    0000008000+00000738+00000+0001T   00000738+0000001509          1500 DO5131               2 Z
120587018120587560-000229     120587006003000469468ANIMALS BIG EYES ASSTD 0000003000+00006346+00000+0001T   00006346+0000001509          1500 DO5745               2 Z
120587019120587903-000911     120587006009802868454SWT ST GUM TAPE BARBIE 0000002000+00001477+00000+0001T   00001477+0000001509          1500 DO5150               2 Z
120587020120587903-000912     120587006009802868461SWT GUM TAPE HOT WHEELS0000004000+00001477+00000+0001T   00001477+0000001509          1500 DO5150               2 Z
120587021120587366-004050     120587006003000308330DRESS UP TEEN BADGES   0000001000+00001564+00000+0001T   00001564+0000001509          1500 DO5131               2 Z
120587022120587903-000159     120587006003000417629SWT LB SMALL DUMMIE    0000004000+00000390+00000+0001T   00000390+0000001509          1500 DO5150               2 Z
120588000120588               120588               170210SI     1500+00000+SI0000003824+0000003824+000000000+000000574+0000004390+0000000008+I20000000000+0000004390+Z
120588001120588006-000107     120588006003000587872BALLOONS ITS BOY/GIRL  0000002000+00001912+00000+0001T   00001912+0000001510          1500 DO5131               2 Z
120589000120589               120589               170210SI     1500+00000+SI0000001910+0000001910+000000000+000000288+0000002190+0000000008+I20000000000+0000002190+Z
120589001120589105-001010     120589006002580007329LUNCH-BOX 1L  ASSTD    0000002000+00000955+00000+0001T   00000955+0000001519          1500 DO5210               2 Z
120590000120590               120590               170210SI     1500+00000+SI0000075642+0000075642+000000000+000011352+0000086990+0000000004+I20000000000+0000086990+Z
120590001120590464-003002     120590006003000328550GAME THINK:CHESS KIDS  0000006000+00012607+00000+0001T   00012607+0000001521          1500 DO5785               2 Z
120591000120591               120591               170210SI     1500+00000+SI0000009734+0000009734+000000000+000001462+0000011190+0000000006+I20000000000+0000011190+Z
120591001120591027-000194     120591006001246602472MOP COMPLETE           0000001000+00002260+00000+0001T   00002260+0000001523          1500 DO5212               2 Z
120591002120591036-000011     120591006003000675890LINT REMOVER REFILL    0000001000+00000955+00000+0001T   00000955+0000001523          1500 DO5212               2 Z
120591003120591036-000010     120591006003000675777LINT REMOVER STICKY    0000001000+00001912+00000+0001T   00001912+0000001523          1500 DO5212               2 Z
120591004120591033-000630     120591006001023766816HAIR-BRUSH WDN 24cm    0000001000+00004607+00000+0001T   00004607+0000001523          1500 DO5200               2 Z
120592000120592               120592               170210SI     1500+00000+SI0000108704+0000108704+000000000+000016317+0000125021+0000000000+I10000063000+0000062021+Z
120592001120592077-000471     120592006003000330096G-BAG DESGN MED 18X23CM0000001000+00001912+00000+0001T   00001912+0000001533          1500 DO5112               2 Z
120592002120592077-000299     120592006003000395576G/BAG 32x25cm LRG LOVE 0000001000+00001564+00000+0001T   00001564+0000001533          1500 DO5112               2 Z
120592003120592077-000304     120592006001023483232GIFT-BAG 25X32CM E/DAY 0000003000+00001564+00000+0001T   00001564+0000001533          1500 DO5112               2 Z
120592004120592077-000270     120592006003000395453GIFT-BAG PPR JMB 33X45 0000002000+00002781+00000+0001T   00002781+0000001533          1500 DO5112               2 Z
120592005120592368-000111     120592006001023780812PLUSH BEAR/DOG 29CM    0000003000+00012607+00000+0001T   00012607+0000001533          1500 DO5745               2 Z
120592006120592566-000991     120592000721129013121STICKERS GLOW-IN-DARK  0000007000+00002260+00000+0001T   00002260+0000001533          1500 DO5130               2 Z
120592007120592565-000990     120592006001023673510NOVELTY STICKY SLAPPER 0000004000+00001564+00000+0001T   00001564+0000001533          1500 DO5745               2 Z
120592008120592565-000889     120592006003000626953NOVELTY SPACE BALLOONS 0000001000+00001912+00000+0001T   00001912+0000001533          1500 DO5745               2 Z
120592009120592018-030000     120592006003000421060MUG OCCASIONS LOVE 2PCE0000001000+00004607+00000+0001T   00004607+0000001533          1500 DO5515               2 Z
120592010120592018-005009     120592006001023725608MUG W/PLUSH-BEAR LOVE  0000001000+00003738+00000+0001T   00003738+0000001533          1500 DO5515               2 Z
120592011120592565-000256     120592006003000609826NOVELTY GLOW SLIME     0000003000+00000738+00000+0001T   00000738+0000001533          1500 DO5745               2 Z
120592012120592368-000637     120592006001023874092PLUSH BEAR SLEEPING LOV0000002000+00011303+00000+0001T   00012607+0006481533          1500 DO5745               2 Z
120593000120593               120593               170210SI     1500+00000+SI0000004607+0000004607+000000000+000000692+0000005290+0000000009+I20000000000+0000005290+Z
120593001120593031-080508     120593006001023802415P/FRAME PL 22X11CM LOVE0000001000+00004607+00000+0001T   00004607+0000001534          1500 DO5510               2 Z
120594000120594               120594               170210SI     1500+00000+SI0000007602+0000007602+000000000+000001143+0000008740+0000000005+I20000000000+0000008740+Z
120594001120594046-000011-A   120594006003000438891BATTERIES SIZE:AA  4PCE0000001000+00002781+00000+0001T   00002781+0000001535          1500 DO5312               2 Z
120594002120594903-000698     120594006002099007032SWT CANDY ECLAIRS 90g  0000001000+00001216+00000+0001T   00001216+0000001535          1500 DO5150               2 Z
120594003120594903-000070     120594006001704001106SWT TOFFEE CREAMY 35g  0000001000+00000738+00000+0001T   00000738+0000001535          1500 DO5150               2 Z
120594004120594903-000482     120594006001704001397SWT SOFT-MINTS 60G     0000001000+00000955+00000+0001T   00000955+0000001535          1500 DO5150               2 Z
120594005120594077-000324     120594006001023677594GIFT-BAG 33X45CM E/D FL0000001000+00001912+00000+0001T   00001912+0000001535          1500 DO5112               2 Z
120595000120595               120595               170210SI     1500+00000+SI0000009550+0000009550+000000000+000001440+0000010990+0000000000+I40000010990+0000000000+Z
120595001120595077-000150-D   120595006003000054343GIFT-WRAP CELLPHANE CLR0000010000+00000955+00000+0001T   00000955+0000001543          1500 DO5112               2 Z
120596000120596               120596               170210SI     1500+00000+SI0000001564+0000001564+000000000+000000235+0000001790+0000000009+I20000000000+0000001790+Z
120596001120596077-000327     120596006001023677686GIFT-BAG 25X32CM E/D BA0000001000+00001564+00000+0001T   00001564+0000001544          1500 DO5112               2 Z
120597000120597               120597               170210SI     1500+00000+SI0000001912+0000001912+000000000+000000287+0000002190+0000000009+I20000000000+0000002190+Z
120597001120597306-000024-A   120597006003000577309COTTON-WOOL-PADS 80PC  0000001000+00001912+00000+0001T   00001912+0000001553          1500 DO5200               2 Z
120598000120598               120598               170210SI     1500+00000+SI0000001912+0000001912+000000000+000000287+0000002190+0000000009+I20000000000+0000002190+Z
120598001120598566-000065     120598006003000217915STICKERS GLITTER ASSTD 0000001000+00001912+00000+0001T   00001912+0000001554          1500 DO5130               2 Z
120599000120599               120599               170210SI     1500+00000+SI0000019648+0000019648+000000000+000002949+0000022590+0000000007+I20000000000+0000022590+Z
120599001120599007-000614     120599006001023768667DIARY W/LOCK+PEN LOVE  0000001000+00005564+00000+0001T   00005564+0000001557          1500 DO5130               2 Z
120599002120599368-000637     120599006001023874092PLUSH BEAR SLEEPING LOV0000001000+00011303+00000+0001T   00012607+0006481557          1500 DO5745               2 Z
120599003120599077-000270     120599006003000395453GIFT-BAG PPR JMB 33X45 0000001000+00002781+00000+0001T   00002781+0000001557          1500 DO5112               2 Z
120600000120600               120600               170210SI     1500+00000+SI0000024808+0000024808+000000000+000003725+0000028530+0000000003+I20000000000+0000028530+Z
120600001120600565-000256     120600006003000609826NOVELTY GLOW SLIME     0000005000+00000738+00000+0001T   00000738+0000001600          1500 DO5745               2 Z
120600002120600071-003043     120600006003000143948PEN CALIGRAPHY SET 8PCE0000001000+00003738+00000+0001T   00003738+0000001600          1500 DO5130               2 Z
120600003120600903-000610     120600006003000610518SWEET JUMBO BUBBLE GUM 0000008000+00001912+00000+0001T   00001912+0000001600          1500 DO5150               2 Z
120600004120600019-071611     120600006003000513642PEBBLES W/GEM 10g CLEAR0000001000+00001564+00000+0001T   00001564+0000001600          1500 DO5510               2 Z
120600005120600006-000170-K   120600006003000609284BALLOONS 1PC PURPLE    0000001000+00000260+00000+0001T   00000260+0000001600          1500 DO5131               2 Z
120600006120600006-000172-A   120600006003000609765BALLOONS METALLIC PINK 0000001000+00000260+00000+0001T   00000260+0000001600          1500 DO5131               2 Z
120601000120601               120601               170210SI     1500+00000+SI0000011170-0000011170-000000000+000001676-0000012850-0000000004+I20000000000+0000012850-Z
120601001120601903-000610     120601006003000610518SWEET JUMBO BUBBLE GUM 0000008000-00001912+00000+0001T   00001912+0000001606          1500 DO51503IC            2 Z
120601002120601565-000256     120601006003000609826NOVELTY GLOW SLIME     0000003000+00000738+00000+0001T   00000738+0000001606          1500 DO5745               2 Z
120601003120601903-000610     120601006003000610518SWEET JUMBO BUBBLE GUM 0000001000+00001912+00000+0001T   00001912+0000001606          1500 DO5150               2 Z
120602000120602               120602               170210SI     1500+00000+SI0000046086+0000046086+000000000+000006913+0000052999+0000000000+I40000052999+0000000000+Z
120602001120602365-003069     120602006003000241460PLAY-SET 29PCS KITCHEN 0000001000+00046086+00000+0001T   00046086+0000001630          1500 DO5725               2 Z
120603000120603               120603               170210SI     1500+00000+SI0000001910+0000001910+000000000+000000288+0000002190+0000000008+I20000000000+0000002190+Z
120603001120603039-000319-7   120603006003000443109B/CANDLES LRG NUMBER-7 0000001000+00000955+00000+0001T   00000955+0000001633          1500 DO5510               2 Z
120603002120603039-000319-1   120603006003000442386B/CANDLES LRG NUMBER-1 0000001000+00000955+00000+0001T   00000955+0000001633          1500 DO5510               2 Z
120604000120604               120604               170210SI     1500+00000+SI0000003738+0000003738+000000000+000000561+0000004290+0000000009+I20000000000+0000004290+Z
120604001120604361-003004     120604006003000302796DOLL INTERCHNG HAIR&ACC0000001000+00003738+00000+0001T   00003738+0000001638          1500 DO5725               2 Z
120605000120605               120605               170210SI     1500+00000+SI0000000738+0000000738+000000000+000000111+0000000840+0000000009+I20000000000+0000000840+Z
120605001120605018-000177     120605006001023797513MUG MINI LOVE ASSTD    0000001000+00000738+00000+0001T   00000738+0000001646          1500 DO5515               2 Z
120606000120606               120606               170210SI     1500+00000+SI0000005562+0000005562+000000000+000000836+0000006398+0000000000+I40000006398+0000000000+Z
120606001120606006-006018     120606006001023735256PARTY-SPRAY HAIR ASSORT0000002000+00002781+00000+0001T   00002781+0000001658          1500 DO5131               2 Z
120607000120607               120607               170210SI     1500+00000+SI0000003303+0000003303+000000000+000000496+0000003790+0000000009+I20000000000+0000003790+Z
120607001120607079-014152     120607006003000253074ART+CRAFT PK50 ASSTD   0000001000+00003303+00000+0001T   00003303+0000001658          1500 DO5130               2 Z
120608000120608               120608               170210SI     1500+00000+SI0000009564+0000009564+000000000+000001435+0000010999+0000000000+I40000010999+0000000000+Z
120608001120608019-000015     120608006003000673537VASE GLS W/STND P/SHAPE0000001000+00009564+00000+0001T   00009564+0000001702          1500 DO5510               2 Z
120609000120609               120609               170210SI     1500+00000+SI0000003824+0000003824+000000000+000000574+0000004390+0000000008+I20000000000+0000004390+Z
120609001120609903-000610     120609006003000610518SWEET JUMBO BUBBLE GUM 0000002000+00001912+00000+0001T   00001912+0000001734          1500 DO5150               2 Z
120610000120610               120610               170210SI     1500+00000+SI0000002954+0000002954+000000000+000000444+0000003390+0000000008+I20000000000+0000003390+Z
120610001120610006-000124     120610006003000625888BALLOONS 10PC MIX COL  0000001000+00001912+00000+0001T   00001912+0000001734          1500 DO5131               2 Z
120610002120610039-000336     120610006001023169129B'DAY-CANDLES MAGIC 10P0000001000+00001042+00000+0001T   00001042+0000001734          1500 DO5510               2 Z
120611000120611               120611               170210SI     1500+00000+SI0000013302+0000013302+000000000+000001996+0000015298+0000000000+I40000015298+0000000000+Z
120611001120611077-000934     120611006003000409921G/WRAP 700mmx5m BIRTHDA0000001000+00003738+00000+0001T   00003738+0000001739          1500 DO5112               2 Z
120611002120611267-000400     120611006003000163335PUZZLE GIANT FL 77x53cm0000001000+00009564+00000+0001T   00009564+0000001739          1500 DO5755               2 Z
120612000120612               120612               170210SI     1500+00000+SI0000004607+0000004607+000000000+000000692+0000005290+0000000009+I20000000000+0000005290+Z
120612001120612365-003053     120612006001023542250PLAY DOCTOR MEDICAL-CNT0000001000+00004607+00000+0001T   00004607+0000001740          1500 DO5725               2 Z
120613000120613               120613               170210SI     1500+00000+SI0000015128+0000015128+000000000+000002270+0000017398+0000000000+I40000017398+0000000000+Z
120613001120613002-000721     120613006003000442119C/BOARD PL 43x27x0.6cm 0000001000+00009564+00000+0001T   00009564+0000001801          1500 DO5300               2 Z
120613002120613267-000250     120613006001023892386PUZZLE 500pc LANDSCAPE 0000001000+00005564+00000+0001T   00005564+0000001801          1500 DO5755               2 Z
120614000120614               120614               170210SI     1500+00000+SI0000016586+0000016586+000000000+000002495+0000019081+0000000000+I40000019081+0000000000+Z
120614001120614036-000063     120614006009654960436COATHANGERS VIRGIN 5PCE0000002000+00001912+00000+0001T   00001912+0000001803          1500 DO5212               2 Z
120614002120614563-000318-G   120614006003000404360SERVIETTES 33cm PINK   0000001000+00002346+00000+0001T   00002346+0000001803          1500 DO5214               2 Z
120614003120614903-000009     120614000028000242268SWEET LAFFY TAFFY GRAPE0000003000+00001216+00000+0001T   00001216+0000001803          1500 DO5150               2 Z
120614004120614903-000155     120614006009803374435SWT LOLLY I LUV U HEART0000012000+00000564+00000+0001T   00000564+0000001803          1500 DO5150               2 Z
120615000120615               120615               170210SI     1500+00000+SI0000004342+0000004342+000000000+000000653+0000004990+0000000005+I20000000000+0000004990+Z
120615001120615903-000070     120615006001704001106SWT TOFFEE CREAMY 35g  0000004000+00000738+00000+0001T   00000738+0000001821          1500 DO5150               2 Z
120615002120615903-000844     120615005010478432567SWT CANDY DL LUV HEARTS0000001000+00001390+00000+0001T   00001390+0000001821          1500 DO5150               2 Z
120616000120616               120616               170210SI     1500+00000+SI0000002433+0000002433+000000000+000000365+0000002790+0000000008+I20000000000+0000002790+Z
120616001120616046-000015     120616006001023680839BATTERIES SIZE:D   2PCE0000001000+00002433+00000+0001T   00002433+0000001821          1500 DO5312               2 Z
120617000120617               120617               170211SI     1500+00000+SI0000011128+0000011128+000000000+000001670+0000012798+0000000000+I40000012798+0000000000+Z
120617001120617368-000012     120617006003000610464PLUSH BEAR 30cm SITTING0000001000+00009564+00000+0001T   00009564+0000000920          1500 CG7745               2 Z
120617002120617077-000327     120617006001023677686GIFT-BAG 25X32CM E/D BA0000001000+00001564+00000+0001T   00001564+0000000920          1500 CG7112               2 Z
120618000120618               120618               170211SI     1500+00000+SI0000001910+0000001910+000000000+000000288+0000002190+0000000008+I20000000000+0000002190+Z
120618001120618039-000319-1   120618006003000442386B/CANDLES LRG NUMBER-1 0000002000+00000955+00000+0001T   00000955+0000000924          1500 CG7510               2 Z
120619000120619               120619               170211SI     1500+00000+SI0000000738+0000000738+000000000+000000111+0000000840+0000000009+I20000000000+0000000840+Z
120619001120619564-000012     120619006001023130075BUBBLE BOTTLE MAGIC    0000001000+00000738+00000+0001T   00000738+0000000928          1500 CG7131               2 Z
120620000120620               120620               170211SI     1500+00000+SI0000007255+0000007255+000000000+000001090+0000008340+0000000005+I20000000000+0000008340+Z
120620001120620366-006103     120620006001023786944DRESS UP FACE PAINT SET0000001000+00002781+00000+0001T   00002781+0000000933          1500 CG7131               2 Z
120620002120620261-000121     120620006001023341600GUN-CAPS 8-SHOT CARD-9 0000002000+00000738+00000+0001T   00000738+0000000933          1500 CG7710               2 Z
120620003120620564-001029     120620006001023690821BUBBLE WEDDING DOVES   0000001000+00000738+00000+0001T   00000738+0000000933          1500 CG7131               2 Z
120620004120620560-000297     120620006003000469789ANIMAL SPIDER          0000001000+00002260+00000+0001T   00002260+0000000933          1500 CG7745               2 Z
120621000120621               120621               170211SI     1500+00000+SI0000003824+0000003824+000000000+000000574+0000004390+0000000008+I20000000000+0000004390+Z
120621001120621078-000030     120621006003000151141YAMAYO SUPERGLUE 8g    0000001000+00001912+00000+0001T   00001912+0000000934          1500 CG7810               2 Z
120621002120621056-005752     120621006003000491674CAR AIR-FRESH FISH ASST0000001000+00001912+00000+0001T   00001912+0000000934          1500 CG7860               2 Z
120622000120622               120622               170211SI     1500+00000+SI0000006642+0000006642+000000000+000000999+0000007640+0000000001+I20000000000+0000007640+Z
120622001120622006-001000-NA  120622006003000714087HELIUM BALLOON FILL    0000009000+00000738+00000+0001T   00000738+0000000936          1500 CG7131               2 Z
120623000120623               120623               170211SI     1500+00000+SI0000011862+0000011862+000000000+000001783+0000013645+0000000000+I40000013645+0000000000+Z
120623001120623304-001126     120623006001023845047FLWR BUNCH GERBERA 31cm0000001000+00002781+00000+0001T   00002781+0000000939          1500 CG7510               2 Z
120623002120623304-000720     120623006001023843050F/BUNCH ROSE 6-HEAD AST0000001000+00002781+00000+0001T   00002781+0000000939          1500 CG7510               2 Z
120623003120623304-001126     120623006001023845047FLWR BUNCH GERBERA 31cm0000001000+00002781+00000+0001T   00002781+0000000939          1500 CG7510               2 Z
120623004120623039-000320     120623006001023816153BIRTHDAY-CANDLES 13PCE 0000001000+00002781+00000+0001T   00002781+0000000939          1500 CG7510               2 Z
120623005120623564-000012     120623006001023130075BUBBLE BOTTLE MAGIC    0000001000+00000738+00000+0001T   00000738+0000000939          1500 CG7131               2 Z
120624000120624               120624               170211SI     1500+00000+SI0000001912+0000001912+000000000+000000287+0000002190+0000000009+I20000000000+0000002190+Z
120624001120624071-002999-A   120624006003000611577PEN STICKBALL 10PCE ASS0000001000+00001912+00000+0001T   00001912+0000000940          1500 CG7130               2 Z
120625000120625               120625               170211SI     1500+00000+SI0000024085+0000024085+000000000+000003613+0000027698+0000000000+I40000027698+0000000000+Z
120625001120625466-000005     120625006003000508174PLAY-TENT POP-UP GIRL  0000001000+00022173+00000+0001T   00022173+0000001011          1500 CG7785               2 Z
120625002120625077-000328     120625006003000668939GIFT-BAG PAPER JMB     0000001000+00001912+00000+0001T   00001912+0000001011          1500 CG7112               2 Z
120626000120626               120626               170211SI     1500+00000+SI0000022257+0000022257+000000000+000003340+0000025590+0000000007+I20000000000+0000025590+Z
120626001120626028-002101     120626006002580009507CHAIR JUNIOR    ASSTD  0000002000+00003738+00000+0001T   00003738+0000001014          1500 CG7305               2 Z
120626002120626028-002102     120626006002580009514TABLE KIDDIES          0000001000+00014781+00000+0001T   00014781+0000001014          1500 CG7305               2 Z
120627000120627               120627               170211SI     1500+00000+SI0000010777+0000010777+000000000+000001619+0000012390+0000000006+I20000000000+0000012390+Z
120627001120627301-085004     120627006003000420469ORN LOVE PLAQUE 21X10CM0000001000+00003477+00000+0001T   00003999+0006481017          1500 CG7505               2 Z
120627002120627018-000129     120627006001023403353MUG OCC. LOVE V-SHAPE  0000001000+00002781+00000+0001T   00002781+0000001017          1500 CG7515               2 Z
120627003120627301-000016     120627006001023817556ORN SENTIMENT HEART ASS0000001000+00002781+00000+0001T   00002781+0000001017          1500 CG7505               2 Z
120627004120627003-000250     120627006003000035045ORN DECOR NOVELTY GRASS0000001000+00001738+00000+0001T   00001912+0008301017          1500 CG7505               2 Z
120628000120628               120628               170211SI     1500+00000+SI0000010605+0000010605+000000000+000001592+0000012190+0000000007+I20000000000+0000012190+Z
120628001120628018-019000     120628006003000557288MUG OCC. LOVE JUMBO    0000001000+00005564+00000+0001T   00005564+0000001018          1500 CG7515               2 Z
120628002120628018-000127     120628006001023380289MUG OCC STRAIGHT LOVE  0000001000+00001564+00000+0001T   00001912+0006481018          1500 CG7515               2 Z
120628003120628301-085004     120628006003000420469ORN LOVE PLAQUE 21X10CM0000001000+00003477+00000+0001T   00003999+0006481018          1500 CG7505               2 Z
120629000120629               120629               170211SI     1500+00000+SI0000013042+0000013042+000000000+000001957+0000014990+0000000009+I20000000000+0000014990+Z
120629001120629464-000302     120629006003000393831GAME TABLETOP SHOOTER  0000001000+00013042+00000+0001T   00013042+0000001020          1500 CG7785               2 Z
120630000120630               120630               170211SI     1500+00000+SI0000021562+0000021562+000000000+000003236+0000024790+0000000008+I20000000000+0000024790+Z
120630001120630266-001024     120630006003000022274SWORD SET MEDIEVAL     0000001000+00016955+00000+0001T   00016955+0000001021          1500 CG7710               2 Z
120630002120630368-006004     120630006003000671076PLUSH DOLPHIN          0000001000+00004607+00000+0001T   00004607+0000001021          1500 CG7745               2 Z
120631000120631               120631               170211SI     1500+00000+SI0000001912+0000001912+000000000+000000287+0000002190+0000000009+I20000000000+0000002190+Z
120631001120631077-000328     120631006003000668939GIFT-BAG PAPER JMB     0000001000+00001912+00000+0001T   00001912+0000001022          1500 CG7112               2 Z
120632000120632               120632               170211SI     1500+00000+SI0000025124+0000025124+000000000+000003771+0000028890+0000000005+I20000000000+0000028890+Z
120632001120632365-003060     120632006001023831255CASH-REGISTER B/O PL   0000001000+00018694+00000+0001T   00018694+0000001026          1500 CG7725               2 Z
120632002120632018-000136     120632006001023659026MUG OCC LOVE W/PLUSH   0000001000+00003477+00000+0001T   00003738+0006481026          1500 CG7515               2 Z
120632003120632903-000120     120632006002099001665SWEET GS ZILLIONS 50g  0000002000+00000738+00000+0001T   00000738+0000001026          1500 CG7150               2 Z
120632004120632046-000011     120632004897006172994BATTERIES SIZE:AA  2PCE0000001000+00001477+00000+0001T   00001477+0000001026          1500 CG7312               2 Z
120633000120633               120633               170211SI     1500+00000+SI0000019038+0000019038+000000000+000002856+0000021894+0000000000+I40000021894+0000000000+Z
120633001120633567-075497     120633009780799381634BK NOVEL ROMANCE AFR   0000001000+00006346+00000+0001T   00006346+0000001034          1500 CG7757               2 Z
120633002120633567-075497     120633009780799381672BK NOVEL ROMANCE AFR   0000001000+00006346+00000+0001T   00006346+0000001034          1500 CG7757               2 Z
120633003120633567-075497     120633009780799381665BK NOVEL ROMANCE AFR   0000001000+00006346+00000+0001T   00006346+0000001034          1500 CG7757               2 Z
120634000120634               120634               170211SI     1500+00000+SI0000002607+0000002607+000000000+000000392+0000002990+0000000009+I20000000000+0000002990+Z
120634001120634075-002009     120634006003000573295HAT PEAK CAP GIRL 52cm 0000001000+00002607+00000+0001T   00003738+0008201034          1500 CG7160               2 Z
120635000120635               120635               170211SI     1500+00000+SI0000003824+0000003824+000000000+000000574+0000004390+0000000008+I20000000000+0000004390+Z
120635001120635077-000354     120635006003000139224GIFT-BAG 25X32CM H/MADE0000001000+00001912+00000+0001T   00001912+0000001035          1500 CG7112               2 Z
120635002120635200-003026     120635006003000276448REFUSE BAGS 10PCE GREEN0000001000+00001912+00000+0001T   00001912+0000001035          1500 CG7214               2 Z
120636000120636               120636               170211SI     1500+00000+SI0000008086+0000008086+000000000+000001213+0000009290+0000000009+I20000000000+0000009290+Z
120636001120636467-000019     120636006001023746832BEACH-SET 16PCE BUCKET 0000001000+00008086+00000+0001T   00008086+0000001036          1500 CG7785               2 Z
120637000120637               120637               170211SI     1500+00000+SI0000010868+0000010868+000000000+000001631+0000012499+0000000000+I40000012499+0000000000+Z
120637001120637368-000005     120637006003000616862PLUSH MONSTER 24cm     0000001000+00010868+00000+0001T   00010868+0000001045          1500 CG7745               2 Z
120638000120638               120638               170211SI     1500+00000+SI0000020688+0000020688+000000000+000003105+0000023790+0000000003+I20000000000+0000023790+Z
120638001120638018-000136     120638006001023659026MUG OCC LOVE W/PLUSH   0000001000+00003477+00000+0001T   00003738+0006481047          1500 CG7515               2 Z
120638002120638088-000084     120638006001023798060P/POURRI 120G ASSTD    0000001000+00001912+00000+0001T   00001912+0000001047          1500 CG7212               2 Z
120638003120638039-001023     120638006003000466337CANDLE TEA-LITE METALIC0000001000+00001912+00000+0001T   00001912+0000001047          1500 CG7510               2 Z
120638004120638006-000166-D   120638006003000516490BALLOONS LRG 6PC RED   0000001000+00001390+00000+0001T   00001390+0000001047          1500 CG7131               2 Z
120638005120638017-000221     120638006003000238019P/ALBUM ADHESIVE 20PG  0000001000+00006520+00000+0001T   00006520+0000001047          1500 CG7510               2 Z
120638006120638019-000020     120638006003000673612VASE GLS 22CM BAUBLE   0000001000+00005477+00000+0001T   00005477+0000001047          1500 CG7510               2 Z
120639000120639               120639               170211SI     1500+00000+SI0000005910+0000005910+000000000+000000888+0000006790+0000000008+I20000000000+0000006790+Z
120639001120639077-000322     120639006001023677532GIFT-BAG 18X23CM E/D FL0000001000+00001303+00000+0001T   00001303+0000001049          1500 CG7112               2 Z
120639002120639368-000001     120639006003000097982Plush Bear 25cm        0000001000+00004607+00000+0001T   00004607+0000001049          1500 CG7745               2 Z
120640000120640               120640               170211SI     1500+00000+SI0000004607+0000004607+000000000+000000692+0000005290+0000000009+I20000000000+0000005290+Z
120640001120640562-000743     120640006001023712318EDU BLOCKS SHAPE PL    0000001000+00004607+00000+0001T   00004607+0000001050          1500 CG7755               2 Z
120641000120641               120641               170211SI     1500+00000+SI0000001912+0000001912+000000000+000000287+0000002190+0000000009+I20000000000+0000002190+Z
120641001120641024-091100     120641006001023914224BAKING-CUPS PAPER 100PC0000001000+00001912+00000+0001T   00001912+0000001056          1500 CG7300               2 Z
120642000120642               120642               170211SI     1500+00000+SI0000008432+0000008432+000000000+000001266+0000009690+0000000008+I20000000000+0000009690+Z
120642001120642174-000305     120642006003000105502TRAVEL NECK-PILLOW     0000001000+00007216+00000+0001T   00007216+0000001058          1500 CG7205               2 Z
120642002120642159-000445     120642006001023669728SOAP-BOX PL OVAL       0000001000+00001216+00000+0001T   00001216+0000001058          1500 CG7200               2 Z
120643000120643               120643               170211SI     1500+00000+SI0000061290+0000061290+000000000+000009200+0000070490+0000000000+I40000070490+0000000000+Z
120643001120643072-020244     120643000694202207840PET BED COTTON 90x70cm 0000002000+00018694+00000+0001T   00018694+0000001102          1500 CG7870               2 Z
120643002120643002-220006     120643006001023670342FOOD COVER 43CM ASSTD  0000001000+00003303+00000+0001T   00003303+0000001102          1500 CG7300               2 Z
120643003120643072-020263     120643006001023602572PET DOG-CHEW PL BALL   0000001000+00004607+00000+0001T   00004607+0000001102          1500 CG7870               2 Z
120643004120643072-020300     120643006008632000430DOG-TOY TUG-A-BALL SML 0000001000+00002781+00000+0001T   00002781+0000001102          1500 CG7870               2 Z
120643005120643072-020306     120643006003000024162PET DOG TENNIS BALL    0000001000+00003303+00000+0001T   00003303+0000001102          1500 CG7870               2 Z
120643006120643002-000117     120643006001023110879EGG POACHERS 2PC       0000001000+00003303+00000+0001T   00003303+0000001102          1500 CG7300               2 Z
120643007120643072-020302     120643006001023858818PET-DOG STICK/RING 24cm0000001000+00002781+00000+0001T   00002781+0000001102          1500 CG7870               2 Z
120643008120643133-000016     120643006003000240609DUSTERS ORANGE PACK-3  0000001000+00001912+00000+0001T   00001912+0000001102          1500 CG7212               2 Z
120643009120643306-000021-C   120643006003000567294EARBUDS 300PCE IN TUB  0000001000+00001912+00000+0001T   00001912+0000001102          1500 CG7200               2 Z
120644000120644               120644               170211SI     1500+00000+SI0000040416+0000040416+000000000+000006070+0000046486+0000000000+I40000046486+0000000000+Z
120644001120644560-000101     120644006001023548740ANIMALS OCEAN-IN-TUBE  0000001000+00003738+00000+0001T   00003738+0000001110          1500 CG7745               2 Z
120644002120644024-000039     120644006003000114030MEASURING-JUG PL 1,0L  0000001000+00003912+00000+0001T   00005477+0008201110          1500 CG7300               2 Z
120644003120644024-091103     120644006003453014307BAKING-CUP MUFFIN 50PCE0000001000+00002260+00000+0001T   00002260+0000001110          1500 CG7300               2 Z
120644004120644133-000030     120644006001023755414KITCHEN-SWAB 30cm ASSTD0000002000+00001303+00000+0001T   00001303+0000001110          1500 CG7212               2 Z
120644005120644024-000031     120644006003000295760MIXING BOWL PL W/HANDLE0000001000+00003303+00000+0001T   00003303+0000001110          1500 CG7300               2 Z
120644006120644560-000101     120644006001023548740ANIMALS OCEAN-IN-TUBE  0000001000+00003738+00000+0001T   00003738+0000001110          1500 CG7745               2 Z
120644007120644304-001488     120644006003000035373FLOWER GLADIOLUS 79cm  0000001000+00002781+00000+0001T   00002781+0000001110          1500 CG7510               2 Z
120644008120644079-001107     120644006003000380879ART+CRAFT SAND ART     0000001000+00002781+00000+0001T   00002781+0000001110          1500 CG7130               2 Z
120644009120644039-000319-6   120644006003000442980B/CANDLES LRG NUMBER-6 0000001000+00000955+00000+0001T   00000955+0000001110          1500 CG7510               2 Z
120644010120644200-000092     120644006003000576739PICNIC PAPER PLATES 23c0000001000+00001303+00000+0001T   00001303+0000001110          1500 CG7214               2 Z
120644011120644039-000320     120644006001023816153BIRTHDAY-CANDLES 13PCE 0000001000+00002781+00000+0001T   00002781+0000001110          1500 CG7510               2 Z
120644012120644304-001124     120644006003000534289FLOWER BUNCH ROSE/MUM  0000001000+00006955+00000+0001T   00006955+0000001110          1500 CG7510               2 Z
120644013120644304-001508     120644006003000036165FLWR ORCHID SPRAY 77CM 0000001000+00003303+00000+0001T   00003303+0000001110          1500 CG7510               2 Z
120645000120645               120645               170211SI     1500+00000+SI0000002781+0000002781+000000000+000000418+0000003190+0000000009+I20000000000+0000003190+Z
120645001120645903-000599     120645006003000608119SWEET BALLOONPUMP 18cm 0000001000+00002781+00000+0001T   00002781+0000001110          1500 CG7150               2 Z
120646000120646               120646               170211SI     1500+00000+SI0000008431+0000008431+000000000+000001266+0000009690+0000000007+I20000000000+0000009690+Z
120646001120646079-000269     120646006003000159963PAINT-BRUSHES SPONGETIP0000001000+00003738+00000+0001T   00003738+0000001111          1500 CG7130               2 Z
120646002120646079-000206     120646006003000639700PENCIL CRAYONS THERAPY 0000001000+00001912+00000+0001T   00001912+0000001111          1500 CG7130               2 Z
120646003120646058-000061     120646006001023759597KNIFE SNAPOFF+5PCE BLDE0000001000+00002781+00000+0001T   00002781+0000001111          1500 CG7840               2 Z
120647000120647               120647               170211SI     1500+00000+SI0000001912+0000001912+000000000+000000287+0000002190+0000000009+I20000000000+0000002190+Z
120647001120647006-000124     120647006003000625888BALLOONS 10PC MIX COL  0000001000+00001912+00000+0001T   00001912+0000001111          1500 CG7131               2 Z
120648000120648               120648               170211SI     1500+00000+SI0000010343+0000010343+000000000+000001553+0000011890+0000000006+I20000000000+0000011890+Z
120648001120648174-000306     120648006003000245024TRAVEL TAG NAME/LUGGAGE0000001000+00001912+00000+0001T   00001912+0000001113          1500 CG7205               2 Z
120648002120648089-000192-A   120648006001023901774KEY-CHAIN ACRYLIC      0000001000+00000955+00000+0001T   00000955+0000001113          1500 CG7205               2 Z
120648003120648560-000704     120648006003000592234ANIMALS BUGS&LIZARDS   0000002000+00003738+00000+0001T   00003738+0000001113          1500 CG7745               2 Z
120649000120649               120649               170211SI     1500+00000+SI0000008517+0000008517+000000000+000001279+0000009790+0000000006+I20000000000+0000009790+Z
120649001120649464-009012     120649006003000469536GAME FISHING           0000001000+00002781+00000+0001T   00002781+0000001114          1500 CG7785               2 Z
120649002120649565-000084     120649006003000643431NOVELTY CATAPULT B/FLY 0000003000+00001912+00000+0001T   00001912+0000001114          1500 CG7745               2 Z
120650000120650               120650               170211SI     1500+00000+SI0000003738+0000003738+000000000+000000561+0000004290+0000000009+I20000000000+0000004290+Z
120650001120650492-055603     120650000078257556038SWIM-GOGGLES FUN       0000001000+00003738+00000+0001T   00003738+0000001116          1500 CG7787               2 Z
120651000120651               120651               170211SI     1500+00000+SI0000014519+0000014519+000000000+000002179+0000016690+0000000008+I20000000000+0000016690+Z
120651001120651077-000301     120651008010410010188BAG LRG 25X32CM B/DAY  0000001000+00001912+00000+0001T   00001912+0000001117          1500 CG7112               2 Z
120651002120651368-000111     120651006001023780812PLUSH BEAR/DOG 29CM    0000001000+00012607+00000+0001T   00012607+0000001117          1500 CG7745               2 Z
120652000120652               120652               170211SI     1500+00000+SI0000001390+0000001390+000000000+000000209+0000001590+0000000009+I20000000000+0000001590+Z
120652001120652077-000312     120652006001023608697GIFT-BAG 10X35CM GLOSS 0000001000+00001390+00000+0001T   00001390+0000001117          1500 CG7112               2 Z
120653000120653               120653               170211SI     1500+00000+SI0000009126+0000009126+000000000+000001371+0000010497+0000000000+I40000010497+0000000000+Z
120653001120653903-000123     120653006925925909280SWEET GS MINI MALLOWS  0000002000+00000955+00000+0001T   00000955+0000001119          1500 CG7150               2 Z
120653002120653105-002013     120653006002580008494CONTAINER SET 18PCE    0000001000+00007216+00000+0001T   00007216+0000001119          1500 CG7210               2 Z
120654000120654               120654               170211SI     1500+00000+SI0000006954+0000006954+000000000+000001044+0000007990+0000000008+I20000000000+0000007990+Z
120654001120654018-000136     120654006001023659026MUG OCC LOVE W/PLUSH   0000002000+00003477+00000+0001T   00003738+0006481121          1500 CG7515               2 Z
120655000120655               120655               170211SI     1500+00000+SI0000000738+0000000738+000000000+000000111+0000000840+0000000009+I20000000000+0000000840+Z
120655001120655018-000177     120655006001023797513MUG MINI LOVE ASSTD    0000001000+00000738+00000+0001T   00000738+0000001121          1500 CG7515               2 Z
120656000120656               120656               170211SI     1500+00000+SI0000001912+0000001912+000000000+000000287+0000002190+0000000009+I20000000000+0000002190+Z
120656001120656077-000239     120656006003000160419GIFT-RIBBON ROLL PEARL 0000001000+00001912+00000+0001T   00001912+0000001122          1500 CG7112               2 Z
120657000120657               120657               170211SI     1500+00000+SI0000001912+0000001912+000000000+000000287+0000002190+0000000009+I20000000000+0000002190+Z
120657001120657080-000106     120657006003000237098CARD&ENVLPE BDAY GIRL  0000001000+00001912+00000+0001T   00001912+0000001123          1500 CG7112               2 Z
120658000120658               120658               170211SI     1500+00000+SI0000002346+0000002346+000000000+000000352+0000002690+0000000008+I20000000000+0000002690+Z
120658001120658072-020303     120658006008632000492DOG-TOY DENTAL-BONE    0000001000+00002346+00000+0001T   00002346+0000001124          1500 CG7870               2 Z
120659000120659               120659               170211SI     1500+00000+SI0000001345+0000001345+000000000+000000203+0000001540+0000000008+I20000000000+0000001540+Z
120659001120659077-000383     120659006003000247943GIFT-BAG 11X14CM S/COL 0000001000+00000868+00000+0001T   00000868+0000001124          1500 CG7112               2 Z
120659002120659080-000133     120659006003000535613CARD&ENV MINI ASTD DSGN0000001000+00000477+00000+0001T   00000477+0000001124          1500 CG7112               2 Z
120660000120660               120660               170211SI     1500+00000+SI0000022157+0000022157+000000000+000003329+0000025486+0000000000+I40000025486+0000000000+Z
120660001120660200-003024     120660006001023657299REFUSE BAGS 20PCE BLACK0000001000+00001912+00000+0001T   00001912+0000001128          1500 CG7214               2 Z
120660002120660028-000907     120660006001023459626BBQ GRILL-CLEANER      0000001000+00002346+00000+0001T   00002346+0000001128          1500 CG7305               2 Z
120660003120660562-000069     120660006003000652044EDU PLAY DOUGH SET     0000001000+00003738+00000+0001T   00003738+0000001128          1500 CG7755               2 Z
120660004120660566-001234     120660006003000217793STICKERS LASER ASSTD   0000002000+00001651+00000+0001T   00001651+0000001128          1500 CG7130               2 Z
120660005120660566-000200     120660006003000384174STICKER PUFFY NEON     0000005000+00000955+00000+0001T   00000955+0000001128          1500 CG7130               2 Z
120660006120660566-000028     120660006003000265541STICKER BK ASSTD 250PCE0000001000+00001912+00000+0001T   00001912+0000001128          1500 CG7130               2 Z
120660007120660007-000046     120660006009635831366DISPLAY-BOOK PL A4 30PG0000001000+00002260+00000+0001T   00002260+0000001128          1500 CG7130               2 Z
120660008120660567-011924     120660009785000189825BOOK ACTIVITY DOODLE   0000001000+00001912+00000+0001T   00001912+0000001128          1500 CG7757               2 Z
120661000120661               120661               170211SI     1500+00000+SI0000014427+0000014427+000000000+000002167+0000016594+0000000000+I40000016594+0000000000+Z
120661001120661007-000546     120661006001023847935NOTEBOOK 4PCE ASSTD DES0000001000+00002781+00000+0001T   00002781+0000001145          1500 CG7130               2 Z
120661002120661079-013032-A   120661006003000389322SEA WORLD STICKERS     0000001000+00001912+00000+0001T   00001912+0000001145          1500 CG7130               2 Z
120661003120661079-013032     120661006003000389209SET LETTERS 2 ASSTD    0000001000+00001912+00000+0001T   00001912+0000001145          1500 CG7130               2 Z
120661004120661566-000065     120661006003000217915STICKERS GLITTER ASSTD 0000001000+00001912+00000+0001T   00001912+0000001145          1500 CG7130               2 Z
120661005120661079-001107     120661006003000380879ART+CRAFT SAND ART     0000001000+00002781+00000+0001T   00002781+0000001145          1500 CG7130               2 Z
120661006120661079-013106     120661006003000081998ART+CRAFT PIPE-CLEANERS0000001000+00003129+00000+0001T   00003129+0000001145          1500 CG7130               2 Z
120662000120662               120662               170211SI     1500+00000+SI0000004779+0000004779+000000000+000000718+0000005490+0000000007+I20000000000+0000005490+Z
120662001120662133-000012     120662006001023561084CLEANING-CLOTH GREEN   0000001000+00001912+00000+0001T   00001912+0000001145          1500 CG7212               2 Z
120662002120662903-000615     120662006003000617456SWT JET PLANE J/B 5G   0000001000+00001912+00000+0001T   00001912+0000001145          1500 CG7150               2 Z
120662003120662903-000483     120662006001704001410SWT LIQUOR SML SORT 60G0000001000+00000955+00000+0001T   00000955+0000001145          1500 CG7150               2 Z
120663000120663               120663               170211SI     1500+00000+SI0000008952+0000008952+000000000+000001344+0000010290+0000000006+I20000000000+0000010290+Z
120663001120663108-001235     120663006003000462766SALAD BOWL PS 16cm-DIA 0000001000+00001390+00000+0001T   00001390+0000001153          1500 CG7210               2 Z
120663002120663009-001451     120663006001023695970MELAMINE S/BOWL 15cm   0000001000+00001912+00000+0001T   00001912+0000001153          1500 CG7210               2 Z
120663003120663009-001491     120663006001023696069MELAMINE SALAD 23cm WHT0000001000+00001912+00000+0001T   00001912+0000001153          1500 CG7210               2 Z
120663004120663108-001216     120663006003000010882SALAD BOWL PL 4.9L     0000001000+00003738+00000+0001T   00003738+0000001153          1500 CG7210               2 Z
120664000120664               120664               170211SI     1500+00000+SI0000031903+0000031903+000000000+000004787+0000036690+0000000000+I20000000000+0000036690+Z
120664001120664072-020253     120664006001023535696PET DOG TOY RUBBER BONE0000001000+00004607+00000+0001T   00004607+0000001200          1500 CG7870               2 Z
120664002120664567-075497     120664009780799381672BK NOVEL ROMANCE AFR   0000001000+00006346+00000+0001T   00006346+0000001200          1500 CG7757               2 Z
120664003120664567-075497     120664009780799381634BK NOVEL ROMANCE AFR   0000001000+00006346+00000+0001T   00006346+0000001200          1500 CG7757               2 Z
120664004120664567-075497     120664009780799381658BK NOVEL ROMANCE AFR   0000001000+00006346+00000+0001T   00006346+0000001200          1500 CG7757               2 Z
120664005120664567-075497     120664009780799381665BK NOVEL ROMANCE AFR   0000001000+00006346+00000+0001T   00006346+0000001200          1500 CG7757               2 Z
120664006120664036-000610     120664006001023627230WASHING-PEGS PL PACK-240000001000+00001912+00000+0001T   00001912+0000001200          1500 CG7212               2 Z
120665000120665               120665               170211SI     1500+00000+SI0000026249+0000026249+000000000+000003942+0000030191+0000000000+I40000030191+0000000000+Z
120665001120665006-005902     120665006001023823175PARTY FAVOUR ASSTD 6PCE0000001000+00001912+00000+0001T   00001912+0000001202          1500 CG7131               2 Z
120665002120665564-001028     120665006001023708663BUBBLE CELEBRATION 6ml 0000001000+00003303+00000+0001T   00003303+0000001202          1500 CG7131               2 Z
120665003120665266-000508     120665006001023837172FIG ROBOT SET OF 6 8cm 0000001000+00004607+00000+0001T   00004607+0000001202          1500 CG7710               2 Z
120665004120665262-000652     120665006003000615643DIE CAST SET 8PC RACER 0000002000+00003738+00000+0001T   00003738+0000001202          1500 CG7710               2 Z
120665005120665564-001028     120665006001023708663BUBBLE CELEBRATION 6ml 0000001000+00003303+00000+0001T   00003303+0000001202          1500 CG7131               2 Z
120665006120665079-006496     120665006003000160105GLITTER SHAKERS        0000001000+00001912+00000+0001T   00001912+0000001202          1500 CG7130               2 Z
120665007120665566-000200     120665006003000384174STICKER PUFFY NEON     0000001000+00000955+00000+0001T   00000955+0000001202          1500 CG7130               2 Z
120665008120665562-000010     120665006001023762528KID'S PLAY DOUGH       0000001000+00002781+00000+0001T   00002781+0000001202          1500 CG7755               2 Z
120666000120666               120666               170211SI     1500+00000+SI0000021034+0000021034+000000000+000003157+0000024191+0000000000+I40000024191+0000000000+Z
120666001120666080-000111     120666006003000252695CARD&ENVELPE - MUSICAL 0000002000+00001912+00000+0001T   00001912+0000001204          1500 CG7112               2 Z
120666002120666200-003024     120666006001023657299REFUSE BAGS 20PCE BLACK0000001000+00001912+00000+0001T   00001912+0000001204          1500 CG7214               2 Z
120666003120666077-000319     120666006001023609779GIFT-BAG 18X23CM BIRTHD0000002000+00001303+00000+0001T   00001303+0000001204          1500 CG7112               2 Z
120666004120666368-000175     120666006003000270316PLUSH BEAR 4 ASSTD 18CM0000002000+00006346+00000+0001T   00006346+0000001204          1500 CG7745               2 Z
120667000120667               120667               170211SI     1500+00000+SI0000000955+0000000955+000000000+000000144+0000001090+0000000009+I20000000000+0000001090+Z
120667001120667077-000150-D   120667006003000054343GIFT-WRAP CELLPHANE CLR0000001000+00000955+00000+0001T   00000955+0000001205          1500 CG7112               2 Z
120668000120668               120668               170211SI     1500+00000+SI0000010169+0000010169+000000000+000001528+0000011697+0000000000+I40000011697+0000000000+Z
120668001120668206-000160     120668006003000628780CORN KERNELER          0000001000+00004607+00000+0001T   00004607+0000001206          1500 CG7321               2 Z
120668002120668466-072725     120668006001023622532YO-YO PL               0000002000+00002781+00000+0001T   00002781+0000001206          1500 CG7785               2 Z
120669000120669               120669               170211SI     1500+00000+SI0000058673+0000058673+000000000+000008811+0000067480+0000000004+I20000000000+0000067480+Z
120669001120669079-000275     120669006003000160488PAINT-BRUSHES 6PCE PRO 0000002000+00001912+00000+0001T   00001912+0000001207          1500 CG7130               2 Z
120669002120669079-000280     120669006003000160723PAINT READYMIX 6PCE    0000002000+00002781+00000+0001T   00002781+0000001207          1500 CG7130               2 Z
120669003120669079-000275     120669006003000160488PAINT-BRUSHES 6PCE PRO 0000001000+00001912+00000+0001T   00001912+0000001207          1500 CG7130               2 Z
120669004120669079-001001     120669006003000448593CANVAS A3 WOOD MOUNTED 0000005000+00004607+00000+0001T   00004607+0000001207          1500 CG7130               2 Z
120669005120669007-000614     120669006001023768667DIARY W/LOCK+PEN LOVE  0000003000+00005564+00000+0001T   00005564+0000001207          1500 CG7130               2 Z
120669006120669077-000315     120669006003000181186GIFT-BAG 20x28cm MATT  0000001000+00001651+00000+0001T   00001651+0000001207          1500 CG7112               2 Z
120669007120669304-001204     120669006001023737984FLOWER OCC. TEDDY/ROSES0000001000+00001390+00000+0001T   00001564+0006481207          1500 CG7510               2 Z
120669008120669001-000175     120669006001023788108B/MUG GLS LOVE 380ML   0000001000+00004607+00000+0001T   00004607+0000001207          1500 CG7515               2 Z
120670000120670               120670               170211SI     1500+00000+SI0000001912+0000001912+000000000+000000287+0000002190+0000000009+I20000000000+0000002190+Z
120670001120670080-000111     120670006003000252695CARD&ENVELPE - MUSICAL 0000001000+00001912+00000+0001T   00001912+0000001208          1500 CG7112               2 Z
120671000120671               120671               170211SI     1500+00000+SI0000007038+0000007038+000000000+000001056+0000008090+0000000004+I20000000000+0000008090+Z
120671001120671003-002259     120671006001023860330ORN CERAMIC HEDGEHOG   0000001000+00002346+00000+0001T   00002346+0000001209          1500 CG7505               2 Z
120671002120671301-006010     120671006001023861245ORN BEAR POLY W/JERSEY 0000002000+00002346+00000+0001T   00002346+0000001209          1500 CG7505               2 Z
120672000120672               120672               170211SI     1500+00000+SI0000003824+0000003824+000000000+000000574+0000004390+0000000008+I20000000000+0000004390+Z
120672001120672466-064834     120672006008766064834BALL W/SPIKES 20cm     0000002000+00001912+00000+0001T   00001912+0000001209          1500 CG7785               2 Z
120673000120673               120673               170211SI     1500+00000+SI0000000955+0000000955+000000000+000000144+0000001090+0000000009+I20000000000+0000001090+Z
120673001120673567-014132     120673006003000560028BOOK COLOURING 24 PAGE 0000001000+00000955+00000+0001T   00000955+0000001210          1500 CG7757               2 Z
120674000120674               120674               170211SI     1500+00000+SI0000002781+0000002781+000000000+000000418+0000003190+0000000009+I20000000000+0000003190+Z
120674001120674071-001124     120674006001023802873MARKERS WHITEBOARD 3PCE0000001000+00002781+00000+0001T   00002781+0000001250          1500 CG7130               2 Z
120675000120675               120675               170211SI     1500+00000+SI0000005999+0000005999+000000000+000000900+0000006890+0000000009+I20000000000+0000006890+Z
120675001120675264-000925-403 120675004893993300006BURAGO 1:43 STREET FIRE0000001000+00005999+00000+0001T   00005999+0000001303          1500 CG7710               2 Z
120676000120676               120676               170211SI     1500+00000+SI0000018867+0000018867+000000000+000002831+0000021690+0000000008+I20000000000+0000021690+Z
120676001120676903-000919     120676006009802868577SWEET NOVELTY LASER POP0000001000+00001912+00000+0001T   00001912+0000001304          1500 CG7150               2 Z
120676002120676562-088354     120676006001023735980EVA MAT 26PC 30x30cm   0000001000+00016955+00000+0001T   00016955+0000001304          1500 CG7755               2 Z
120677000120677               120677               170211SI     1500+00000+SI0000002692+0000002692+000000000+000000405+0000003090+0000000007+I20000000000+0000003090+Z
120677001120677565-000256     120677006003000609826NOVELTY GLOW SLIME     0000002000+00000738+00000+0001T   00000738+0000001304          1500 CG7745               2 Z
120677002120677903-000087     120677006001704000161SWT SPECKLED-EGGS 50G  0000001000+00001216+00000+0001T   00001216+0000001304          1500 CG7150               2 Z
120678000120678               120678               170211SI     1500+00000+SI0000005127+0000005127+000000000+000000770+0000005897+0000000000+I40000005897+0000000000+Z
120678001120678041-007001-A   120678006003000636860H/GLOW LIQUID CHERY    0000001000+00002346+00000+0001T   00002346+0000001306          1500 CG7200               2 Z
120678002120678072-000326     120678006003000451722PET CAT COLLAR 31x1cm  0000001000+00002781+00000+0001T   00002781+0000001306          1500 CG7870               2 Z
120679000120679               120679               170211SI     1500+00000+SI0000008694+0000008694+000000000+000001305+0000009990+0000000009+I20000000000+0000009990+Z
120679001120679365-003047     120679006001023859891PLAY SET 20PCE TEA SET 0000001000+00008694+00000+0001T   00010868+0008301306          1500 CG7725               2 Z
120680000120680               120680               170211SI     1500+00000+SI0000003738+0000003738+000000000+000000561+0000004290+0000000009+I20000000000+0000004290+Z
120680001120680072-020259     120680006001023602664DOG-CHEW BONE 10cm 2PCE0000001000+00003738+00000+0001T   00003738+0000001307          1500 CG7870               2 Z
120681000120681               120681               170211SI     1500+00000+SI0000022429+0000022429+000000000+000003366+0000025790+0000000005+I20000000000+0000025790+Z
120681001120681105-008005     120681006002580009484STORAGE CONTAINER 7.5L 0000001000+00004346+00000+0001T   00004607+0006831356          1500 CG7210               2 Z
120681002120681032-000340     120681006003000295883MIRROR SUCTION PL MAGN 0000001000+00003303+00000+0001T   00003303+0000001356          1500 CG7510               2 Z
120681003120681174-000302     120681006003000053353TRAVEL SHOULDER BAG    0000002000+00007390+00000+0001T   00007390+0000001356          1500 CG7205               2 Z
120682000120682               120682               170211SI     1500+00000+SI0000004607+0000004607+000000000+000000692+0000005290+0000000009+I20000000000+0000005290+Z
120682001120682206-000160     120682006003000628780CORN KERNELER          0000001000+00004607+00000+0001T   00004607+0000001357          1500 CG7321               2 Z
120683000120683               120683               170211SI     1500+00000+SI0000001477+0000001477+000000000+000000222+0000001690+0000000009+I20000000000+0000001690+Z
120683001120683027-009030     120683006002814400100DUSTPAN PL             0000001000+00001477+00000+0001T   00001477+0000001400          1500 CG7212               2 Z
120684000120684               120684               170211SI     1500+00000+SI0000005040+0000005040+000000000+000000757+0000005790+0000000007+I20000000000+0000005790+Z
120684001120684565-000083     120684006003000643622NOVELTY GROW SNOW      0000001000+00001912+00000+0001T   00001912+0000001400          1500 CG7745               2 Z
120684002120684019-071611     120684006003000513642PEBBLES W/GEM 10g CLEAR0000002000+00001564+00000+0001T   00001564+0000001400          1500 CG7510               2 Z
120685000120685               120685               170211SI     1500+00000+SI0000005477+0000005477+000000000+000000822+0000006290+0000000009+I20000000000+0000006290+Z
120685001120685466-000071     120685006003000670871BALL FOOTBALL NO.4     0000001000+00005477+00000+0001T   00005477+0000001401          1500 CG7785               2 Z
120686000120686               120686               170211SI     1500+00000+SI0000001216+0000001216+000000000+000000183+0000001390+0000000009+I20000000000+0000001390+Z
120686001120686033-001363     120686006001023802057HAIR-CLIPS 50mm 48PCE  0000001000+00001216+00000+0001T   00001216+0000001415          1500 CG7200               2 Z
120687000120687               120687               170211SI     1500+00000+SI0000001303+0000001303+000000000+000000196+0000001490+0000000009+I20000000000+0000001490+Z
120687001120687903-000519     120687006001704012805SWT MS LIQ-O-GHETTI    0000001000+00001303+00000+0001T   00001303+0000001416          1500 CG7150               2 Z
120688000120688               120688               170211SI     1500+00000+SI0000003301+0000003301+000000000+000000496+0000003797+0000000000+I40000003797+0000000000+Z
120688001120688077-000314     120688006003000181148GIFT-BAG 11X14CM MATT  0000001000+00000955+00000+0001T   00000955+0000001417          1500 CG7112               2 Z
120688002120688084-000365     120688006001023731135MANICURE SET ASSORTED  0000001000+00002346+00000+0001T   00002346+0000001417          1500 CG7200               2 Z
120689000120689               120689               170211SI     1500+00000+SI0000001564+0000001564+000000000+000000235+0000001790+0000000009+I20000000000+0000001790+Z
120689001120689077-000452     120689006003000284986G/BAG METALLIC MED EMB 0000001000+00001564+00000+0001T   00001564+0000001419          1500 CG7112               2 Z
120690000120690               120690               170211SI     1500+00000+SI0000000955+0000000955+000000000+000000144+0000001090+0000000009+I20000000000+0000001090+Z
120690001120690903-000482     120690006001704001397SWT SOFT-MINTS 60G     0000001000+00000955+00000+0001T   00000955+0000001420          1500 CG7150               2 Z
120691000120691               120691               170211SI     1500+00000+SI0000005650+0000005650+000000000+000000848+0000006490+0000000008+I20000000000+0000006490+Z
120691001120691004-071204     120691006003000624904USB IN-CAR CHARGER 2.1A0000001000+00003738+00000+0001T   00003738+0000001422          1500 CG7310               2 Z
120691002120691088-000011     120691006001023752826AIR-FRESHNER GEL ASSTD 0000001000+00001912+00000+0001T   00001912+0000001422          1500 CG7212               2 Z
120692000120692               120692               170211SI     1500+00000+SI0000002650+0000002650+000000000+000000398+0000003040+0000000008+I20000000000+0000003040+Z
120692001120692261-002267     120692006001023665126GUN 8-SHOT SUPER-CAP   0000001000+00001912+00000+0001T   00001912+0000001423          1500 CG7710               2 Z
120692002120692261-000121     120692006001023341600GUN-CAPS 8-SHOT CARD-9 0000001000+00000738+00000+0001T   00000738+0000001423          1500 CG7710               2 Z
120693000120693               120693               170211SI     1500+00000+SI0000001693+0000001693+000000000+000000255+0000001940+0000000008+I20000000000+0000001940+Z
120693001120693903-000120     120693006002099001665SWEET GS ZILLIONS 50g  0000001000+00000738+00000+0001T   00000738+0000001423          1500 CG7150               2 Z
120693002120693366-007916     120693006001023419309MASK PL CHARACTER ASS  0000001000+00000955+00000+0001T   00000955+0000001423          1500 CG7131               2 Z
120694000120694               120694               170211SI     1500+00000+SI0000001912+0000001912+000000000+000000287+0000002190+0000000009+I20000000000+0000002190+Z
120694001120694077-000328     120694006003000668939GIFT-BAG PAPER JMB     0000001000+00001912+00000+0001T   00001912+0000001427          1500 CG7112               2 Z
120695000120695               120695               170211SI     1500+00000+SI0000001216+0000001216+000000000+000000183+0000001390+0000000009+I20000000000+0000001390+Z
120695001120695027-000081     120695006001023760371SCOURING PADS 10PCE    0000001000+00001216+00000+0001T   00001216+0000001431          1500 CG7212               2 Z
120696000120696               120696               170211SI     1500+00000+SI0000009997+0000009997+000000000+000001501+0000011498+0000000000+I40000011498+0000000000+Z
120696001120696496-057104     120696000078257571048INTEX POOL BABY RAINBOW0000001000+00007216+00000+0001T   00007216+0000001433          1500 CG7787               2 Z
120696002120696369-001138-B   120696006003000564972BABY BATH ROYAL DUCKS  0000001000+00002781+00000+0001T   00002781+0000001433          1500 CG7745               2 Z
120697000120697               120697               170211SI     1500+00000+SI0000003128+0000003128+000000000+000000470+0000003590+0000000008+I20000000000+0000003590+Z
120697001120697565-004101     120697006003000548033BALL BOUNCING EGG      0000002000+00001564+00000+0001T   00001564+0000001435          1500 CG7745               2 Z
120698000120698               120698               170211SI     1500+00000+SI0000005910+0000005910+000000000+000000888+0000006790+0000000008+I20000000000+0000006790+Z
120698001120698036-000151     120698006001023810588COATHANGERS    PACK-10 0000002000+00002955+00000+0001T   00002955+0000001436          1500 CG7212               2 Z
120699000120699               120699               170211SI     1500+00000+SI0000003738+0000003738+000000000+000000561+0000004290+0000000009+I20000000000+0000004290+Z
120699001120699103-000090     120699006001023795786WOVEN HEART SHAPED     0000001000+00003738+00000+0001T   00003738+0000001437          1500 CG7300               2 Z
120700000120700               120700               170211SI     1500+00000+SI0000034606+0000034606+000000000+000005191+0000039797+0000000000+I40000039797+0000000000+Z
120700001120700562-058915     120700006003000159116EDU B/O LAPTOP         0000001000+00032173+00000+0001T   00032173+0000001440          1500 CG7755               2 Z
120700002120700046-000010-A   120700006003000438778BATTERIES SIZE:AAA 4PCE0000001000+00002433+00000+0001T   00002433+0000001440          1500 CG7312               2 Z
120701000120701               120701               170211SI     1500+00000+SI0000003738+0000003738+000000000+000000561+0000004290+0000000009+I20000000000+0000004290+Z
120701001120701159-000102     120701006001023552891SHOWER-CADDY 48cm      0000001000+00003738+00000+0001T   00003738+0000001441          1500 CG7200               2 Z
120702000120702               120702               170211SI     1500+00000+SI0000001912+0000001912+000000000+000000287+0000002190+0000000009+I20000000000+0000002190+Z
120702001120702006-000120     120702006001023346889BALLOONS 10PC MIX COL  0000001000+00001912+00000+0001T   00001912+0000001443          1500 CG7131               2 Z
120703000120703               120703               170211SI     1500+00000+SI0000001912+0000001912+000000000+000000287+0000002190+0000000009+I20000000000+0000002190+Z
120703001120703903-000593     120703006003000563890SWT WATER GUN 15cm     0000001000+00001912+00000+0001T   00001912+0000001444          1500 CG7150               2 Z
120704000120704               120704               170211SI     1500+00000+SI0000026951+0000026951+000000000+000004044+0000030995+0000000000+I40000030995+0000000000+Z
120704001120704048-000859     120704006003000423422TORCH 9 LED PL 3XAAA   0000001000+00001912+00000+0001T   00001912+0000001447          1500 CG7305               2 Z
120704002120704019-000079     120704006001023775726VASE 30cm CRACK-DESIGN 0000001000+00013042+00000+0001T   00013042+0000001447          1500 CG7510               2 Z
120704003120704046-000010-A   120704006003000438778BATTERIES SIZE:AAA 4PCE0000001000+00002433+00000+0001T   00002433+0000001447          1500 CG7312               2 Z
120704004120704103-000070     120704006003000630608BAMBOO BASKET 39x25x8cm0000001000+00009564+00000+0001T   00009564+0000001447          1500 CG7300               2 Z
120705000120705               120705               170211SI     1500+00000+SI0000008170+0000008170+000000000+000001227+0000009390+0000000007+I20000000000+0000009390+Z
120705001120705304-001204     120705006001023737984FLOWER OCC. TEDDY/ROSES0000001000+00001390+00000+0001T   00001564+0006481500          1500 CG7510               2 Z
120705002120705077-000322     120705006001023677532GIFT-BAG 18X23CM E/D FL0000001000+00001303+00000+0001T   00001303+0000001500          1500 CG7112               2 Z
120705003120705368-000101     120705006003000449859PLUSH CAT 17cm KITTY   0000001000+00005477+00000+0001T   00005477+0000001500          1500 CG7745               2 Z
120706000120706               120706               170211SI     1500+00000+SI0000007388+0000007388+000000000+000001110+0000008490+0000000008+I20000000000+0000008490+Z
120706001120706076-000030-H   120706006001023429544WASHING-LINE 30m    H&H0000001000+00002781+00000+0001T   00002781+0000001501          1500 CG7810               2 Z
120706002120706024-000003     120706006001023462206S/BURNER COVERS ASSTD  0000001000+00004607+00000+0001T   00004607+0000001501          1500 CG7300               2 Z
120707000120707               120707               170211SI     1500+00000+SI0000034201+0000034201+000000000+000005138+0000039339+0000000000+I40000039339+0000000000+Z
120707001120707036-021493     120707006001023998996HANGERS PL 2x5TIER 37cm0000001000+00003738+00000+0001T   00003738+0000001505          1500 CG7212               2 Z
120707002120707036-000151     120707006001023810588COATHANGERS    PACK-10 0000002000+00002955+00000+0001T   00002955+0000001505          1500 CG7212               2 Z
120707003120707903-000919     120707006009802868577SWEET NOVELTY LASER POP0000001000+00001912+00000+0001T   00001912+0000001505          1500 CG7150               2 Z
120707004120707903-000907     120707006009802868324SWEET LASER BARBIE     0000001000+00002173+00000+0001T   00002173+0000001505          1500 CG7150               2 Z
120707005120707903-000070     120707006001704001106SWT TOFFEE CREAMY 35g  0000002000+00000738+00000+0001T   00000738+0000001505          1500 CG7150               2 Z
120707006120707903-000099     120707006923431501646SWT CANDY GS WTCH B/LET0000002000+00000286+00000+0001T   00000286+0000001505          1500 CG7150               2 Z
120707007120707078-000025     120707008887013700064SUPERGLUE 3g 1PCE CARD 0000001000+00000955+00000+0001T   00000955+0000001505          1500 CG7810               2 Z
120707008120707077-000301     120707008010410010188BAG LRG 25X32CM B/DAY  0000001000+00001912+00000+0001T   00001912+0000001505          1500 CG7112               2 Z
120707009120707036-000610     120707006001023627230WASHING-PEGS PL PACK-240000001000+00001912+00000+0001T   00001912+0000001505          1500 CG7212               2 Z
120707010120707016-006710     120707006003000674725S/JAR GLS RHEA 425ml   0000003000+00002781+00000+0001T   00002781+0000001505          1500 CG7300               2 Z
120707011120707564-001029     120707006001023690821BUBBLE WEDDING DOVES   0000002000+00000738+00000+0001T   00000738+0000001505          1500 CG7131               2 Z
120707012120707564-000012     120707006001023130075BUBBLE BOTTLE MAGIC    0000002000+00000738+00000+0001T   00000738+0000001505          1500 CG7131               2 Z
120707013120707027-001400     120707006001246703209MOP CCOTTON HEAD 180g  0000001000+00002346+00000+0001T   00002346+0000001505          1500 CG7212               2 Z
120708000120708               120708               170211SI     1500+00000+SI0000019384+0000019384+000000000+000002910+0000022294+0000000000+I40000022294+0000000000+Z
120708001120708072-000010     120708006001023604392PET CAR SEAT COVER     0000002000+00003738+00000+0001T   00003738+0000001507          1500 CG7870               2 Z
120708002120708072-020264     120708006001023602565PET DOG CLEAN-UP BAGS  0000001000+00003738+00000+0001T   00003738+0000001507          1500 CG7870               2 Z
120708003120708072-020359     120708006003000399758PET DOG/CAT BOWL SMALL 0000001000+00001912+00000+0001T   00001912+0000001507          1500 CG7870               2 Z
120708004120708072-020250     120708006003000188864PET BLANKET BUDGET     0000002000+00003129+00000+0001T   00003129+0000001507          1500 CG7870               2 Z
120709000120709               120709               170211SI     1500+00000+SI0000006084+0000006084+000000000+000000913+0000006990+0000000007+I20000000000+0000006990+Z
120709001120709106-003130     120709006001023625755ICE CUBE TRAY 21-CUBE  0000001000+00002346+00000+0001T   00002346+0000001521          1500 CG7210               2 Z
120709002120709024-000072     120709006001023849502EGG-WHISK SET-OF-3     0000001000+00003738+00000+0001T   00003738+0000001521          1500 CG7300               2 Z
120710000120710               120710               170211SI     1500+00000+SI0000001912+0000001912+000000000+000000287+0000002190+0000000009+I20000000000+0000002190+Z
120710001120710200-003024     120710006001023657299REFUSE BAGS 20PCE BLACK0000001000+00001912+00000+0001T   00001912+0000001528          1500 CG7214               2 Z
120711000120711               120711               170211SI     1500+00000+SI0000003129+0000003129+000000000+000000470+0000003590+0000000009+I20000000000+0000003590+Z
120711001120711016-000826     120711006001023774675BOTTLE GLS W/LID ASSTD 0000001000+00003129+00000+0001T   00003129+0000001529          1500 CG7300               2 Z
120712000120712               120712               170211SI     1500+00000+SI0000008431+0000008431+000000000+000001266+0000009690+0000000007+I20000000000+0000009690+Z
120712001120712079-000206     120712006003000639700PENCIL CRAYONS THERAPY 0000001000+00001912+00000+0001T   00001912+0000001533          1500 CG7130               2 Z
120712002120712567-011495     120712000076645122025BK ACTIVITY 96P BIBLE  0000001000+00002781+00000+0001T   00002781+0000001533          1500 CG7757               2 Z
120712003120712562-000011     120712006003000600984PLAY DOUGH NEON TUBE   0000001000+00003738+00000+0001T   00003738+0000001533          1500 CG7755               2 Z
120713000120713               120713               170211SI     1500+00000+SI0000001303+0000001303+000000000+000000196+0000001490+0000000009+I20000000000+0000001490+Z
120713001120713266-001308     120713006001023686978MARBLES 45PC L/E       0000001000+00001303+00000+0001T   00001303+0000001536          1500 CG7710               2 Z
120714000120714               120714               170211SI     1500+00000+SI0000009255+0000009255+000000000+000001390+0000010640+0000000005+I20000000000+0000010640+Z
120714001120714903-000120     120714006002099001665SWEET GS ZILLIONS 50g  0000001000+00000738+00000+0001T   00000738+0000001537          1500 CG7150               2 Z
120714002120714301-085004     120714006003000420469ORN LOVE PLAQUE 21X10CM0000001000+00003477+00000+0001T   00003999+0006481537          1500 CG7505               2 Z
120714003120714003-000250     120714006003000035045ORN DECOR NOVELTY GRASS0000002000+00001738+00000+0001T   00001912+0008301537          1500 CG7505               2 Z
120714004120714080-000124     120714006003000297733CARD & ENV VALENTINES  0000001000+00001564+00000+0001T   00001651+0006481537          1500 CG7112               2 Z
120715000120715               120715               170211SI     1500+00000+SI0000003824+0000003824+000000000+000000574+0000004390+0000000008+I20000000000+0000004390+Z
120715001120715080-000111     120715006003000252695CARD&ENVELPE - MUSICAL 0000001000+00001912+00000+0001T   00001912+0000001538          1500 CG7112               2 Z
120715002120715046-002013-PK6 120715004897006174851BATTERY BUTTON AG13 6PC0000001000+00001912+00000+0001T   00001912+0000001538          1500 CG7312               2 Z
120716000120716               120716               170211SI     1500+00000+SI0000025814+0000025814+000000000+000003876+0000029690+0000000000+I40000029690+0000000000+Z
120716001120716024-000071     120716006001023415653E/WHISK S/S & SILICONE 0000001000+00002781+00000+0001T   00002781+0000001540          1500 CG7300               2 Z
120716002120716079-013032-F   120716006003000496266FOAM NUMBERS           0000002000+00002260+00000+0001T   00002260+0000001540          1500 CG7130               2 Z
120716003120716079-013032-H   120716006003000496501GLITTER PRINCESS ACC   0000001000+00002781+00000+0001T   00002781+0000001540          1500 CG7130               2 Z
120716004120716079-013099     120716006003000081875ART+CRAFT EYES ASSTD   0000002000+00001912+00000+0001T   00001912+0000001540          1500 CG7130               2 Z
120716005120716079-000807     120716006003000670277ART+CRAFT WOODEN STICKS0000003000+00001564+00000+0001T   00001564+0000001540          1500 CG7130               2 Z
120716006120716562-000002     120716006001023491015COUNTING-FRAME 30x20cm 0000001000+00007216+00000+0001T   00007216+0000001540          1500 CG7755               2 Z
120717000120717               120717               170211SI     1500+00000+SI0000004607+0000004607+000000000+000000692+0000005290+0000000009+I20000000000+0000005290+Z
120717001120717265-001646     120717006001023755902BATTERY OPERATED CAR   0000001000+00004607+00000+0001T   00004607+0000001540          1500 CG7710               2 Z
120718000120718               120718               170211SI     1500+00000+SI0000009564+0000009564+000000000+000001435+0000010990+0000000009+I20000000000+0000010990+Z
120718001120718567-010162     120718006003000485123BOOK TOP ASSTD NOVELS  0000001000+00009564+00000+0001T   00009564+0000001541          1500 CG7757               2 Z
120719000120719               120719               170211SI     1500+00000+SI0000001651+0000001651+000000000+000000248+0000001890+0000000009+I20000000000+0000001890+Z
120719001120719077-000323     120719006001023677563G/BAG 25X32CM E/DAY FLO0000001000+00001651+00000+0001T   00001651+0000001542          1500 CG7112               2 Z
120720000120720               120720               170211SI     1500+00000+SI0000011214+0000011214+000000000+000001683+0000012890+0000000007+I20000000000+0000012890+Z
120720001120720262-000616     120720006001023708991CARS MDC 8PCE CITY     0000001000+00003738+00000+0001T   00003738+0000001546          1500 CG7710               2 Z
120720002120720262-000652     120720006003000615643DIE CAST SET 8PC RACER 0000002000+00003738+00000+0001T   00003738+0000001546          1500 CG7710               2 Z
120721000120721               120721               170211SI     1500+00000+SI0000005650+0000005650+000000000+000000848+0000006498+0000000000+I40000006498+0000000000+Z
