133955000133955               133955               170213SI     1500+00000+SI0000007476+0000007476+000000000+000001122+0000008590+0000000008+I20000000000+0000008590+Z
133955001133955105-007050-B   133955006002580007411CEREAL-STORE 3L ASSTD  0000002000+00003738+00000+0001T   00003738+0000001201          1500 CG7210               3 Z
133956000133956               133956               170213SI     1500+00000+SI0000003738+0000003738+000000000+000000561+0000004290+0000000009+I20000000000+0000004290+Z
133956001133956105-007015     133956006001023168221CONTAINER PL ROUND     0000001000+00003738+00000+0001T   00003738+0000001203          1500 CG7210               3 Z
133957000133957               133957               170213SI     1500+00000+SI0000001912+0000001912+000000000+000000287+0000002190+0000000009+I20000000000+0000002190+Z
133957001133957077-000240     133957006003000326259G/RIBBON 4PC PEARLIZED 0000001000+00001912+00000+0001T   00001912+0000001204          1500 CG7112               3 Z
133958000133958               133958               170213SI     1500+00000+SI0000006780+0000006780+000000000+000001018+0000007798+0000000000+I40000007798+0000000000+Z
133958001133958080-000127     133958006003000424351VALENTINES DAY 36x24CM 0000001000+00002173+00000+0001T   00002260+0006481228          1500 CG7112               3 Z
133958002133958001-000175     133958006001023788108B/MUG GLS LOVE 380ML   0000001000+00004607+00000+0001T   00004607+0000001228          1500 CG7515               3 Z
133959000133959               133959               170213SI     1500+00000+SI0000048766+0000048766+000000000+000007322+0000056088+0000000000+I40000056088+0000000000+Z
133959001133959020-000144     133959006003000534319K/SET 4PC W/COL HANDLES0000001000+00018694+00000+0001T   00018694+0000001232          1500 CG7300               3 Z
133959002133959012-000001     133959006003000331048MICRO PLATE-COVER 26X6 0000001000+00001738+00000+0001T   00002260+0008301232          1500 CG7300               3 Z
133959003133959036-000151     133959006001023810588COATHANGERS    PACK-10 0000001000+00002955+00000+0001T   00002955+0000001232          1500 CG7212               3 Z
133959004133959002-001069     133959006003000365159KITCHEN STORAGE SALAD  0000001000+00003303+00000+0001T   00003303+0000001232          1500 CG7300               3 Z
133959005133959036-000151     133959006001023810588COATHANGERS    PACK-10 0000001000+00002955+00000+0001T   00002955+0000001232          1500 CG7212               3 Z
133959006133959002-012268     133959006001023555526TONGS NYLON 26CM LNG   0000001000+00004173+00000+0001T   00004173+0000001232          1500 CG7300               3 Z
133959008133959019-071594     133959006003000505579PEBBLES GLS 250g RED   0000002000+00002781+00000+0001T   00002781+0000001232          1500 CG7510               3 Z
133959009133959019-071599     133959006001023693242PEBBLES GLS 250g BLACK 0000002000+00001912+00000+0001T   00001912+0000001232          1500 CG7510               3 Z
133959010133959206-000310     133959006003000632787BOTTLE-STOPPER SILICONE0000001000+00002781+00000+0001T   00002781+0000001232          1500 CG7321               3 Z
133959011133959306-000993     133959006003000560110FIRSTAID PLASTER 75PC  0000001000+00002781+00000+0001T   00002781+0000001232          1500 CG7200               3 Z
133960000133960               133960               170213SI     1500+00000+SI0000009564+0000009564+000000000+000001435+0000010990+0000000009+I20000000000+0000010990+Z
133960001133960031-000924     133960006001023669964P/FRAME COLLAGE PL     0000001000+00009564+00000+0001T   00009564+0000001239          1500 CG7510               3 Z
133961000133961               133961               170213SI     1500+00000+SI0000003736+0000003736+000000000+000000561+0000004290+0000000007+I20000000000+0000004290+Z
133961001133961077-000470     133961006003000330171G-BAG DESGN SML 11X14CM0000001000+00001390+00000+0001T   00001390+0000001240          1500 CG7112               3 Z
133961002133961077-000509     133961006003000082582GIFT-BAG SML 6PCE ORG P0000001000+00002346+00000+0001T   00002346+0000001240          1500 CG7112               3 Z
133962000133962               133962               170213SI     1500+00000+SI0000001129+0000001129+000000000+000000170+0000001290+0000000009+I20000000000+0000001290+Z
133962001133962079-009702-G   133962008427973060787PAPER SIRIO A2 FUSHIA  0000001000+00001129+00000+0001T   00001129+0000001254          1500 CG7130               3 Z
133963000133963               133963               170213SI     1500+00000+SI0000004779+0000004779+000000000+000000718+0000005490+0000000007+I20000000000+0000005490+Z
133963001133963031-005820     133963006001023667816P/FRAME-CLIP 15X20CM   0000001000+00001912+00000+0001T   00001912+0000001258          1500 CG7510               3 Z
133963002133963077-000318     133963006001023609755GIFT-BAG 18X23CM E/D AN0000001000+00001303+00000+0001T   00001303+0000001258          1500 CG7112               3 Z
133963003133963079-006494     133963006003000159864GLITTER GLUE 5PCE 11cm 0000001000+00001564+00000+0001T   00001564+0000001258          1500 CG7130               3 Z
133964000133964               133964               170213SI     1500+00000+SI0000008038+0000008038+000000000+000001207+0000009240+0000000005+I20000000000+0000009240+Z
133964001133964088-000108     133964006001023765536POTPOURRI-OIL 10ml ASST0000001000+00001912+00000+0001T   00001912+0000001300          1500 CG7212               3 Z
133964002133964306-000024-A   133964006003000577309COTTON-WOOL-PADS 80PC  0000001000+00001912+00000+0001T   00001912+0000001300          1500 CG7200               3 Z
133964003133964088-000103     133964006008766127102INCENSE 20PCE ASSTD    0000001000+00000738+00000+0001T   00000738+0000001300          1500 CG7212               3 Z
133964004133964039-000108     133964006001023524034TEA-LITE CANDLES 8PCE  0000001000+00001564+00000+0001T   00001564+0000001300          1500 CG7510               3 Z
133964005133964089-000019     133964006003000092291K/CHAIN MINI BOOT 13cm 0000001000+00001912+00000+0001T   00001912+0000001300          1500 CG7205               3 Z
133965000133965               133965               170213SI     1500+00000+SI0000001564+0000001564+000000000+000000235+0000001790+0000000009+I20000000000+0000001790+Z
133965001133965034-078833     133965006001023857491SIGN BABY-ON-BOARD     0000001000+00001564+00000+0001T   00001564+0000001305          1500 CG7215               3 Z
133966000133966               133966               170213SI     1500+00000+SI0000003997+0000003997+000000000+000000601+0000004590+0000000008+I20000000000+0000004590+Z
133966001133966566-000308     133966006003000522521STICKER TAPE 3PCS      0000001000+00002781+00000+0001T   00002781+0000001309          1500 CG7130               3 Z
133966002133966903-000087     133966006001704000161SWT SPECKLED-EGGS 50G  0000001000+00001216+00000+0001T   00001216+0000001309          1500 CG7150               3 Z
133967000133967               133967               170213SI     1500+00000+SI0000002128+0000002128+000000000+000000320+0000002440+0000000008+I20000000000+0000002440+Z
133967001133967304-001204     133967006001023737984FLOWER OCC. TEDDY/ROSES0000001000+00001390+00000+0001T   00001564+0006481311          1500 CG7510               3 Z
133967002133967018-000177     133967006001023797513MUG MINI LOVE ASSTD    0000001000+00000738+00000+0001T   00000738+0000001311          1500 CG7515               3 Z
133968000133968               133968               170213SI     1500+00000+SI0000001912+0000001912+000000000+000000287+0000002190+0000000009+I20000000000+0000002190+Z
133968001133968051-002407     133968006003000452491SPRAYER TRIGGER 550ml  0000001000+00001912+00000+0001T   00001912+0000001312          1500 CG7820               3 Z
133969000133969               133969               170213SI     1500+00000+SI0000001390+0000001390+000000000+000000209+0000001590+0000000009+I20000000000+0000001590+Z
133969001133969077-000470     133969006003000330171G-BAG DESGN SML 11X14CM0000001000+00001390+00000+0001T   00001390+0000001413          1500 CG7112               3 Z
133970000133970               133970               170213SI     1500+00000+SI0000006346+0000006346+000000000+000000952+0000007298+0000000000+I40000007298+0000000000+Z
133970001133970016-006502     133970006003000618545S/JAR GLS HERMETICO    0000001000+00006346+00000+0001T   00006346+0000001414          1500 CG7300               3 Z
133971000133971               133971               170213SI     1500+00000+SI0000000607+0000000607+000000000+000000092+0000000690+0000000009+I20000000000+0000000690+Z
133971001133971304-001011     133971006001023806727FLWR ROSE RED W/BEAR   0000001000+00000607+00000+0001T   00000825+0006481415          1500 CG7510               3 Z
133972000133972               133972               170213SI     1500+00000+SI0000001912+0000001912+000000000+000000287+0000002190+0000000009+I20000000000+0000002190+Z
133972001133972267-000054     133972006003000673223PUZZLE 4D MODEL PLANE  0000001000+00001912+00000+0001T   00001912+0000001418          1500 CG7755               3 Z
133973000133973               133973               170213SI     1500+00000+SI0000000260+0000000260+000000000+000000039+0000000290+0000000009+I20000000000+0000000290+Z
133973001133973903-000670     133973006009803358008SWT SHERBET RED LIPS   0000001000+00000260+00000+0001T   00000260+0000001419          1500 CG7150               3 Z
133974000133974               133974               170213SI     1500+00000+SI0000001302+0000001302+000000000+000000196+0000001490+0000000008+I20000000000+0000001490+Z
133974001133974565-000044     133974006003000128280BARREL OF SLIME 100g   0000002000+00000651+00000+0001T   00000651+0000001421          1500 CG7745               3 Z
133975000133975               133975               170213SI     1500+00000+SI0000001912+0000001912+000000000+000000287+0000002190+0000000009+I20000000000+0000002190+Z
133975001133975565-000889     133975006003000626953NOVELTY SPACE BALLOONS 0000001000+00001912+00000+0001T   00001912+0000001422          1500 CG7745               3 Z
133976000133976               133976               170213SI     1500+00000+SI0000000607+0000000607+000000000+000000092+0000000690+0000000009+I20000000000+0000000690+Z
133976001133976304-001011     133976006001023806727FLWR ROSE RED W/BEAR   0000001000+00000607+00000+0001T   00000825+0006481422          1500 CG7510               3 Z
133977000133977               133977               170213SI     1500+00000+SI0000003997+0000003997+000000000+000000601+0000004590+0000000008+I20000000000+0000004590+Z
133977001133977027-000090     133977006001023588265WINDOW-CLEANER LONG-HND0000001000+00002781+00000+0001T   00002781+0000001423          1500 CG7212               3 Z
133977002133977022-002106     133977006003000142712MUG EN 6cm ASSTD COLORS0000001000+00001216+00000+0001T   00001216+0000001423          1500 CG7305               3 Z
133978000133978               133978               170213SI     1500+00000+SI0000009472+0000009472+000000000+000001423+0000010895+0000000000+I40000010895+0000000000+Z
133978001133978002-000878     133978006001023770967STRAINER TEA WIRE 7cm  0000001000+00001564+00000+0001T   00001564+0000001442          1500 CG7300               3 Z
133978002133978002-000684     133978006001023693778K/TOOL TURNER H/HOUSE  0000001000+00002346+00000+0001T   00002346+0000001442          1500 CG7300               3 Z
133978003133978031-005821     133978006001023667786P/FRAME-GLS CLIP 21X30 0000002000+00002781+00000+0001T   00002781+0000001442          1500 CG7510               3 Z
133979000133979               133979               170213SI     1500+00000+SI0000007821+0000007821+000000000+000001175+0000008990+0000000006+I20000000000+0000008990+Z
133979001133979263-000415     133979006003000600571V/TOOLS PLASTIC ASSEMBL0000001000+00003738+00000+0001T   00003738+0000001445          1500 CG7710               3 Z
133979002133979065-003699     133979006001023690883FLUTE RECORDER PL      0000001000+00001564+00000+0001T   00001564+0000001445          1500 CG7745               3 Z
133979003133979567-014133     133979006003000560103BOOK COLOURING 48 PAGE 0000001000+00001564+00000+0001T   00001564+0000001445          1500 CG7757               3 Z
133979004133979567-014132     133979006003000560028BOOK COLOURING 24 PAGE 0000001000+00000955+00000+0001T   00000955+0000001445          1500 CG7757               3 Z
133980000133980               133980               170213SI     1500+00000+SI0000005477+0000005477+000000000+000000822+0000006290+0000000009+I20000000000+0000006290+Z
133980001133980301-086006     133980006003000498918ORN OCCASION LOVE 4ASTD0000001000+00005477+00000+0001T   00005477+0000001456          1500 CG7505               3 Z
133981000133981               133981               170213SI     1500+00000+SI0000003303+0000003303+000000000+000000496+0000003790+0000000009+I20000000000+0000003790+Z
133981001133981046-000400     133981006001023804983BATT ALKALINE 1.5Vx30PC0000001000+00003303+00000+0001T   00003303+0000001457          1500 CG7312               3 Z
133982000133982               133982               170213SI     1500+00000+SI0000010254+0000010254+000000000+000001540+0000011790+0000000004+I20000000000+0000011790+Z
133982001133982563-000318-L   133982006003000407088SERVIETTES 33cm RED    0000002000+00002346+00000+0001T   00002346+0000001458          1500 CG7214               3 Z
133982002133982200-000035     133982006001023768810FOOD-BOWL-COVERS 5PCE  0000002000+00002781+00000+0001T   00002781+0000001458          1500 CG7214               3 Z
133983000133983               133983               170213SI     1500+00000+SI0000004519+0000004519+000000000+000000678+0000005190+0000000007+I20000000000+0000005190+Z
133983001133983077-000309-A   133983006003000671007GIFT-BAG HOLOGRAM JMB  0000001000+00002346+00000+0001T   00002346+0000001501          1500 CG7112               3 Z
133983002133983080-000127     133983006003000424351VALENTINES DAY 36x24CM 0000001000+00002173+00000+0001T   00002260+0006481501          1500 CG7112               3 Z
133984000133984               133984               170213SI     1500+00000+SI0000001912+0000001912+000000000+000000287+0000002190+0000000009+I20000000000+0000002190+Z
133984001133984077-000299-A   133984006003000670888GIFT-BAG PAPER JMB LOVE0000001000+00001912+00000+0001T   00001912+0000001503          1500 CG7112               3 Z
133985000133985               133985               170213SI     1500+00000+SI0000000738+0000000738+000000000+000000111+0000000840+0000000009+I20000000000+0000000840+Z
133985001133985903-000120     133985006002099001665SWEET GS ZILLIONS 50g  0000001000+00000738+00000+0001T   00000738+0000001511          1500 CG7150               3 Z
133986000133986               133986               170213SI     1500+00000+SI0000004252+0000004252+000000000+000000641+0000004890+0000000003+I20000000000+0000004890+Z
133986001133986162-094330     133986006001492943305#TAG HOT DEAL ER SETS 10000001000+00000868+00000+0001T   00001912+0008271514          1500 CG7160               3 Z
133986002133986903-000155     133986006009803374435SWT LOLLY I LUV U HEART0000006000+00000564+00000+0001T   00000564+0000001514          1500 CG7150               3 Z
133987000133987               133987               170213SI     1500+00000+SI0000005562+0000005562+000000000+000000836+0000006390+0000000008+I20000000000+0000006390+Z
133987001133987464-000110     133987006001023868824PLAYING-CARDS JUMBO    0000001000+00002781+00000+0001T   00002781+0000001521          1500 CG7785               3 Z
133987002133987103-000461     133987006001023795229FLOWER BASKET 26cm-DIA 0000001000+00002781+00000+0001T   00002781+0000001521          1500 CG7300               3 Z
133988000133988               133988               170213SI     1500+00000+SI0000018253+0000018253+000000000+000002740+0000020990+0000000003+I20000000000+0000020990+Z
133988001133988077-000309-A   133988006003000671007GIFT-BAG HOLOGRAM JMB  0000001000+00002346+00000+0001T   00002346+0000001525          1500 CG7112               3 Z
133988002133988030-003700     133988006003000416790WALL DEC WDN ASTD WHT  0000001000+00002781+00000+0001T   00002781+0000001525          1500 CG7505               3 Z
133988003133988031-005840     133988006001023481412P/FRAME-CLIP 30X40CM   0000003000+00003738+00000+0001T   00003738+0000001525          1500 CG7510               3 Z
133988004133988903-000619     133988006003000672455SWT LOLLY STR/BRRY 140G0000001000+00001912+00000+0001T   00001912+0000001525          1500 CG7150               3 Z
133989000133989               133989               170213SI     1500+00000+SI0000022606+0000022606+000000000+000003392+0000025990+0000000008+I20000000000+0000025990+Z
133989001133989368-000637     133989006001023874092PLUSH BEAR SLEEPING LOV0000002000+00011303+00000+0001T   00012607+0006481552          1500 CG7745               3 Z
133990000133990               133990               170213SI     1500+00000+SI0000008865+0000008865+000000000+000001331+0000010190+0000000006+I20000000000+0000010190+Z
133990001133990903-000090     133990006009826020821SWT GS CHOCO COINS 60g 0000002000+00002260+00000+0001T   00002260+0000001600          1500 CG7150               3 Z
133990002133990039-000100     13399000600300060614625CM WHITE CANDLE 6PC  0000001000+00002781+00000+0001T   00002781+0000001600          1500 CG7510               3 Z
133990003133990039-000108     133990006001023524034TEA-LITE CANDLES 8PCE  0000001000+00001564+00000+0001T   00001564+0000001600          1500 CG7510               3 Z
133991000133991               133991               170213SI     1500+00000+SI0000004949+0000004949+000000000+000000746+0000005690+0000000005+I20000000000+0000005690+Z
133991001133991077-000150-D   133991006003000054343GIFT-WRAP CELLPHANE CLR0000004000+00000955+00000+0001T   00000955+0000001604          1500 CG7112               3 Z
133991002133991079-009702-D   133991008427973059354PAPER SIRIO A2 RED COL 0000001000+00001129+00000+0001T   00001129+0000001604          1500 CG7130               3 Z
133992000133992               133992               170213SI     1500+00000+SI0000002346+0000002346+000000000+000000352+0000002690+0000000008+I20000000000+0000002690+Z
133992001133992563-000318-L   133992006003000407088SERVIETTES 33cm RED    0000001000+00002346+00000+0001T   00002346+0000001605          1500 CG7214               3 Z
133993000133993               133993               170213SI     1500+00000+SI0000005477+0000005477+000000000+000000822+0000006290+0000000009+I20000000000+0000006290+Z
133993001133993368-000171     133993006003000233250PLUSH BEAR 14cm        0000001000+00005477+00000+0001T   00005477+0000001607          1500 CG7745               3 Z
133994000133994               133994               170213SI     1500+00000+SI0000003431+0000003431+000000000+000000516+0000003940+0000000007+I20000000000+0000003940+Z
133994001133994077-000321     133994006001023677501GIFT-BAG 11X14CM E/D FL0000001000+00000651+00000+0001T   00000651+0000001610          1500 CG7112               3 Z
133994002133994077-000470     133994006003000330171G-BAG DESGN SML 11X14CM0000002000+00001390+00000+0001T   00001390+0000001610          1500 CG7112               3 Z
133995000133995               133995               170213SI     1500+00000+SI0000000651+0000000651+000000000+000000098+0000000740+0000000009+I20000000000+0000000740+Z
133995001133995077-000317     133995006001023609748GIFT-BAG 11X14CM E/D AN0000001000+00000651+00000+0001T   00000651+0000001610          1500 CG7112               3 Z
A17021300                                          11584880SISLAVE 3                       CG73IC
A17021301                                          13062733SISLAVE 3                       CG73IC
A17021302                                          16112035SISLAVE 3                       CG71IC
A17021303                                          16145569SISLAVE 3                       CG73IC
A17021304                                          16153434SISLAVE 3                       CG73IC
C13395900                                          170213SI002-001069     12304691SLAVE 3     CG71IC0000000000+0000000000+0070000001000+
M17021301                              SHIEHAAM    SISLAVE 1 Z/READING = R9229.46                            C/BANKING = R6285.80                            C/CARDS   = R3839.09                            P/OUTS    = 100.00                      CASHIER CLARENCE  = SHORT 300 BANK TRNSFER                                                      SLAVE 2 Z/READING = R9257.96                            C/BANKING = R7207.00                            C/CARDS   = R3400.32                            P/OUTS    = R NONE                      CASHIER LIINA     = BALANCED                                                                    SLAVE 3 Z/READING = R2437.40                            C/BAKING  = R1979.80                            C/CARDS   = R820.79                             P/OUTS    = R NONE                      CASHIER JENIFER   = BALANCED                                                                    THANKS                                          SI
M17021302                              IT          SILAST TILL SLIP NUMBER                                                                           SLAVE 1: 112203                                 SLAVE 2: 121060                                 SLAVE 3: 133995                                 SLAVE 4: NOT USED                                                                               THANKS                                          SI
M17021391                              CASH        SISLAVE 3                       Z-REPORT No.   285TOTAL (Sales - Refunds)           2800.59       CASH TO BE BANKED                 1979.80       DEBIT CARDS                          0.00       CREDIT CARDS                       820.79       Z-READING                         2800.59       AIRTIME DEBIT CARD SALES             0.00       AIRTIME CARD SALES                   0.00       OVERS/UNDERS                         0.00       AIRTIME CASH SALES                   0.00       GIFT CARDS                           0.00       GIFT CARD CASH SALES                 0.00       T O T A L  CASH PAYOUTS              0.00                                                                                                                                                                                                                                                                                                                                                      Z
M17021392                              CASH        SIABSENT                                                                                                                                                                                          ANNUAL LEAVE                                                                                                                                                                                    DAY OFF                                                                                                                                                                                         COMMENTS          CASHIER JENIFER BALANCED                                                                                                                                                                                                                                                                                                                                                     Z
Y17021300                                          SI00000000243740+000041
ZSI17021320233 SLAVE 3      SALES DATA                     NEXT INVOICE NO.  133996 0285
X SI Slave 3 First invoice 133955 170213 Last invoice 133995 170213 Next invoice 133996 Total number of records 000000130 clbackup completed 20:23:10
