100464000100464               100464               170213SJ     1500+00000+SJ0000008951+0000008951+000000000+000001344+0000010290+0000000005+I20000000000+0000010290+Z
100464001100464903-000219     100464006925925911450SWT ERKO MALLOW CHOC   0000001000+00001912+00000+0001T   00001912+0000001038          1500 PP5150               1 Z
100464002100464089-000030     100464006003000575671K/CHAIN LOVE MTL ASSTD 0000001000+00001912+00000+0001T   00001912+0000001038          1500 PP5205               1 Z
100464003100464031-000006     100464006003000247226P/FRAME LOVE 10X15CM   0000001000+00002781+00000+0001T   00002781+0000001038          1500 PP5510               1 Z
100464004100464028-085274     100464006001023641571BBQ LIGHTER         H&L0000001000+00002346+00000+0001T   00002346+0000001038          1500 PP5305               1 Z
100465000100465               100465               170213SJ     1500+00000+SJ0000011207+0000011207+000000000+000001685+0000012890+0000000002+I20000000000+0000012890+Z
100465001100465140-001007     100465006001023617163FLY-STICK STAND 260x36 0000001000+00003303+00000+0001T   00003303+0000001202          1500 PP5830               1 Z
100465002100465079-014152     100465006003000253074ART+CRAFT PK50 ASSTD   0000001000+00003303+00000+0001T   00003303+0000001202          1500 PP5130               1 Z
100465003100465903-000194     100465006009826020616SWT CHOC RP LOLLY 25G  0000001000+00001303+00000+0001T   00001390+0006481202          1500 PP5150               1 Z
100465004100465903-000183     100465006003000451043SWT LB HEART LOLLY     0000001000+00000433+00000+0001T   00000433+0000001202          1500 PP5150               1 Z
100465005100465903-003080     100465005907029004673SWT SNACK STIX CHOC 50g0000003000+00000955+00000+0001T   00000955+0000001202          1500 PP5150               1 Z
100466000100466               100466               170213SJ     1500+00000+SJ0000005909+0000005909+000000000+000000888+0000006790+0000000007+I20000000000+0000006790+Z
100466001100466566-000460     100466000721129024011STICKERS RUB-ON TRANSFR0000002000+00001303+00000+0001T   00001912+0008261238          1500 PP5130               1 Z
100466002100466105-006949     100466006003000665839CONTAINER STORER 5L    0000001000+00003303+00000+0001T   00003303+0000001238          1500 PP5210               1 Z
100467000100467               100467               170213SJ     1500+00000+SJ0000005210+0000005210+000000000+000000785+0000005990+0000000005+I20000000000+0000005990+Z
100467001100467903-000843     100467008693029031067SWT GUMMY JELAXY 80G   0000005000+00001042+00000+0001T   00001042+0000001246          1500 PP5150               1 Z
100468000100468               100468               170213SJ     1500+00000+SJ0000029472+0000029472+000000000+000004424+0000033890+0000000006+I20000000000+0000033890+Z
100468001100468051-500100     100468006003000399444GARDEN KIDS SPADE ASSTD0000001000+00004607+00000+0001T   00004607+0000001255          1500 PP5820               1 Z
100468002100468051-500104     100468006003000399680GARDEN KIDS RAKE ASSTD 0000001000+00004607+00000+0001T   00004607+0000001255          1500 PP5820               1 Z
100468003100468562-088354     100468006001023735980EVA MAT 26PC 30x30cm   0000001000+00016955+00000+0001T   00016955+0000001255          1500 PP5755               1 Z
100468004100468089-060027     100468006003000245871KEY-CHAIN HEART 6X6cm  0000001000+00003303+00000+0001T   00003303+0000001255          1500 PP5205               1 Z
100469000100469               100469               170213SJ     1500+00000+SJ0000022604+0000022604+000000000+000003391+0000025990+0000000005+I20000000000+0000025990+Z
100469001100469041-092601     100469006003000114948BATH G/SET CLASSIC 3PC 0000002000+00006520+00000+0001T   00006520+0000001320          1500 PP5200               1 Z
100469002100469041-092010     100469006003000384167BATH GIFT SET VINTAGE  0000001000+00009564+00000+0001T   00009564+0000001320          1500 PP5200               1 Z
100470000100470               100470               170213SJ     1500+00000+SJ0000020953+0000020953+000000000+000003144+0000024090+0000000007+I20000000000+0000024090+Z
100470001100470566-000054     100470006003000085781S/BOOK ALBUM+ACCESORIES0000001000+00011129+00000+0001T   00011129+0000001341          1500 PP5130               1 Z
100470002100470566-000011-B   100470006003000085309SCRAPBOOK SETS 8PG     0000001000+00001738+00000+0001T   00002781+0008261341          1500 PP5130               1 Z
100470003100470566-000041     100470006003000265701SCRAPBOOK ALBUM 10PCKTS0000001000+00008086+00000+0001T   00008086+0000001341          1500 PP5130               1 Z
100471000100471               100471               170213SJ     1500+00000+SJ0000005041+0000005041+000000000+000000757+0000005790+0000000008+I20000000000+0000005790+Z
100471001100471200-003024     100471006001023657299REFUSE BAGS 20PCE BLACK0000001000+00001912+00000+0001T   00001912+0000001345          1500 PP5214               1 Z
100471002100471105-001075     100471006001023844873LUNCH BOX 17x11x7cm    0000001000+00003129+00000+0001T   00003129+0000001345          1500 PP5210               1 Z
100472000100472               100472               170213SJ     1500+00000+SJ0000001909+0000001909+000000000+000000288+0000002190+0000000007+I20000000000+0000002190+Z
100472001100472027-078282     100472006001023767837SCOURER 25g SPIRAL-BALL0000002000+00000651+00000+0001T   00000651+0000001400          1500 PP5212               1 Z
100472002100472304-001011     100472006001023806727FLWR ROSE RED W/BEAR   0000001000+00000607+00000+0001T   00000825+0006481400          1500 PP5510               1 Z
100473000100473               100473               170213SJ     1500+00000+SJ0000001564+0000001564+000000000+000000235+0000001790+0000000009+I20000000000+0000001790+Z
100473001100473077-000299     100473006003000395576G/BAG 32x25cm LRG LOVE 0000001000+00001564+00000+0001T   00001564+0000001405          1500 PP5112               1 Z
100474000100474               100474               170213SJ     1500+00000+SJ0000012168+0000012168+000000000+000001827+0000013990+0000000005+I20000000000+0000013990+Z
100474001100474105-009010     100474006003000467167STORAGE BOX 16L GLIDER 0000001000+00008346+00000+0001T   00008346+0000001414          1500 PP5210               1 Z
100474002100474566-000460     100474000721129024011STICKERS RUB-ON TRANSFR0000001000+00001303+00000+0001T   00001912+0008261414          1500 PP5130               1 Z
100474003100474080-000124     100474006003000297733CARD & ENV VALENTINES  0000001000+00001564+00000+0001T   00001651+0006481414          1500 PP5112               1 Z
100474004100474077-000150-D   100474006003000054343GIFT-WRAP CELLPHANE CLR0000001000+00000955+00000+0001T   00000955+0000001414          1500 PP5112               1 Z
100475000100475               100475               170213SJ     1500+00000+SJ0000000607+0000000607+000000000+000000092+0000000690+0000000009+I20000000000+0000000690+Z
100475001100475304-001011     100475006001023806727FLWR ROSE RED W/BEAR   0000001000+00000607+00000+0001T   00000825+0006481416          1500 PP5510               1 Z
100476000100476               100476               170213SJ     1500+00000+SJ0000002173+0000002173+000000000+000000326+0000002490+0000000009+I20000000000+0000002490+Z
100476001100476080-000127     100476006003000424351VALENTINES DAY 36x24CM 0000001000+00002173+00000+0001T   00002260+0006481417          1500 PP5112               1 Z
100477000100477               100477               170213SJ     1500+00000+SJ0000006171+0000006171+000000000+000000927+0000007090+0000000008+I20000000000+0000007090+Z
100477001100477301-000600     100477006003000597024O/TURTLE DANGLING FEET 0000001000+00001564+00000+0001T   00001564+0000001419          1500 PP5505               1 Z
100477002100477003-009200     100477006003000407675O/ANIMALS 3-ASS W/FLWER0000001000+00004607+00000+0001T   00004607+0000001419          1500 PP5505               1 Z
100478000100478               100478               170213SJ     1500+00000+SJ0000000607+0000000607+000000000+000000092+0000000690+0000000009+I20000000000+0000000690+Z
100478001100478304-001011     100478006001023806727FLWR ROSE RED W/BEAR   0000001000+00000607+00000+0001T   00000825+0006481422          1500 PP5510               1 Z
100479000100479               100479               170213SJ     1500+00000+SJ0000003031+0000003031+000000000+000000455+0000003480+0000000006+I20000000000+0000003480+Z
100479001100479903-000183     100479006003000451043SWT LB HEART LOLLY     0000007000+00000433+00000+0001T   00000433+0000001425          1500 PP5150               1 Z
100480000100480               100480               170213SJ     1500+00000+SJ0000006954+0000006954+000000000+000001044+0000007990+0000000008+I20000000000+0000007990+Z
100480001100480018-000136     100480006001023659026MUG OCC LOVE W/PLUSH   0000002000+00003477+00000+0001T   00003738+0006481428          1500 PP5515               1 Z
100481000100481               100481               170213SJ     1500+00000+SJ0000000694+0000000694+000000000+000000105+0000000790+0000000009+I20000000000+0000000790+Z
100481001100481566-001212     100481000721129014166STICKERS MICRO ASSTD   0000001000+00000694+00000+0001T   00000694+0000001432          1500 PP5130               1 Z
100482000100482               100482               170213SJ     1500+00000+SJ0000005559+0000005559+000000000+000000836+0000006390+0000000005+I20000000000+0000006390+Z
100482001100482077-000509     100482006003000082582GIFT-BAG SML 6PCE ORG P0000001000+00002346+00000+0001T   00002346+0000001438          1500 PP5112               1 Z
100482002100482077-000245     100482006001023759214GIFT-RIBBON METALLICx2 0000001000+00001303+00000+0001T   00001303+0000001438          1500 PP5112               1 Z
100482003100482077-000151     100482006008766114676GIFT-WRAP C/PHANE ASSTD0000001000+00000955+00000+0001T   00000955+0000001438          1500 PP5112               1 Z
100482004100482077-000150-D   100482006003000054343GIFT-WRAP CELLPHANE CLR0000001000+00000955+00000+0001T   00000955+0000001438          1500 PP5112               1 Z
100483000100483               100483               170213SJ     1500+00000+SJ0000004346+0000004346+000000000+000000652+0000004990+0000000008+I20000000000+0000004990+Z
100483001100483004-071264     100483006003000427420MOUSEPAD+COASTER DAD   0000001000+00004346+00000+0001T   00006346+0008301444          1500 PP5310               1 Z
100484000100484               100484               170213SJ     1500+00000+SJ0000001651+0000001651+000000000+000000248+0000001890+0000000009+I20000000000+0000001890+Z
100484001100484077-000303     100484006001023593757GIFT-BAG PAPER MED     0000001000+00001651+00000+0001T   00001651+0000001445          1500 PP5112               1 Z
100485000100485               100485               170213SJ     1500+00000+SJ0000006258+0000006258+000000000+000000940+0000007190+0000000008+I20000000000+0000007190+Z
100485001100485001-000175     100485006001023788108B/MUG GLS LOVE 380ML   0000001000+00004607+00000+0001T   00004607+0000001449          1500 PP5515               1 Z
100485002100485077-000303     100485006001023593757GIFT-BAG PAPER MED     0000001000+00001651+00000+0001T   00001651+0000001449          1500 PP5112               1 Z
100486000100486               100486               170213SJ     1500+00000+SJ0000013215+0000013215+000000000+000001983+0000015190+0000000008+I20000000000+0000015190+Z
100486001100486368-000637     100486006001023874092PLUSH BEAR SLEEPING LOV0000001000+00011303+00000+0001T   00012607+0006481451          1500 PP5745               1 Z
100486002100486077-000299-A   100486006003000670888GIFT-BAG PAPER JMB LOVE0000001000+00001912+00000+0001T   00001912+0000001451          1500 PP5112               1 Z
100487000100487               100487               170213SJ     1500+00000+SJ0000043726+0000043726+000000000+000006562+0000050288+0000000000+I40000050288+0000000000+Z
100487001100487365-000071     100487006001023542366PLAY-SET CD PLAYER B/O 0000001000+00006346+00000+0001T   00006346+0000001456          1500 PP5725               1 Z
100487002100487361-000505     100487006003000662876DOLL MED 29cm DOCTOR   0000001000+00011999+00000+0001T   00011999+0000001456          1500 PP5725               1 Z
100487003100487361-000661     100487006001023747907DOLL SML ASSTD         0000001000+00003303+00000+0001T   00003303+0000001456          1500 PP5725               1 Z
100487004100487079-105609     100487006003000612697ART+CRAFT ALPHABET KIT 0000001000+00005564+00000+0001T   00005564+0000001456          1500 PP5130               1 Z
100487005100487903-000898     100487006922516801503SWT POPPING CANDY      0000002000+00001216+00000+0001T   00001216+0000001456          1500 PP5150               1 Z
100487006100487903-000081     100487006001704014076SWT F/PASTILLES 100G   0000002000+00001912+00000+0001T   00001912+0000001456          1500 PP5150               1 Z
100487007100487903-000082     100487006001704014892SWT MINI WINE GUMS 100G0000001000+00001912+00000+0001T   00001912+0000001456          1500 PP5150               1 Z
100487008100487006-000852     100487006009645923242PARTY LUCKY-PCKT UNISEX0000001000+00004173+00000+0001T   00004173+0000001456          1500 PP5131               1 Z
100487009100487006-000852     100487006009541801866PARTY LUCKY-PCKT UNISEX0000001000+00004173+00000+0001T   00004173+0000001456          1500 PP5131               1 Z
100488000100488               100488               170213SJ     1500+00000+SJ0000001912+0000001912+000000000+000000287+0000002190+0000000009+I20000000000+0000002190+Z
100488001100488079-013032     100488006003000389209SET LETTERS 2 ASSTD    0000001000+00001912+00000+0001T   00001912+0000001458          1500 PP5130               1 Z
100489000100489               100489               170213SJ     1500+00000+SJ0000002260+0000002260+000000000+000000339+0000002590+0000000009+I20000000000+0000002590+Z
100489001100489566-000991     100489000721129013121STICKERS GLOW-IN-DARK  0000001000+00002260+00000+0001T   00002260+0000001502          1500 PP5130               1 Z
100490000100490               100490               170213SJ     1500+00000+SJ0000016514+0000016514+000000000+000002479+0000018990+0000000003+I20000000000+0000018990+Z
100490001100490077-000303     100490006001023593757GIFT-BAG PAPER MED     0000003000+00001651+00000+0001T   00001651+0000001509          1500 PP5112               1 Z
100490002100490301-085004     100490006003000420469ORN LOVE PLAQUE 21X10CM0000001000+00003477+00000+0001T   00003999+0006481509          1500 PP5505               1 Z
100490003100490368-000049     100490006003000536955PLUSH BEAR 15cm LOVE   0000001000+00004346+00000+0001T   00004607+0006481509          1500 PP5745               1 Z
100490004100490018-005009     100490006001023725608MUG W/PLUSH-BEAR LOVE  0000001000+00003738+00000+0001T   00003738+0000001509          1500 PP5515               1 Z
100491000100491               100491               170213SJ     1500+00000+SJ0000003738+0000003738+000000000+000000561+0000004299+0000000000+I40000004299+0000000000+Z
100491001100491018-005009     100491006001023725608MUG W/PLUSH-BEAR LOVE  0000001000+00003738+00000+0001T   00003738+0000001518          1500 PP5515               1 Z
100492000100492               100492               170213SJ     1500+00000+SJ0000000738+0000000738+000000000+000000111+0000000840+0000000009+I20000000000+0000000840+Z
100492001100492564-000012     100492006001023130075BUBBLE BOTTLE MAGIC    0000001000+00000738+00000+0001T   00000738+0000001523          1500 PP5131               1 Z
100493000100493               100493               170213SJ     1500+00000+SJ0000010865+0000010865+000000000+000001631+0000012496+0000000000+I40000012496+0000000000+Z
100493001100493567-075699     100493006003000641277BK NOVEL CATEGORY A    0000001000+00002607+00000+0001T   00003129+0008301525          1500 PP5757               1 Z
100493002100493567-075470     100493009780007795352BK NOVEL CATEGORY B    0000001000+00006346+00000+0001T   00006346+0000001525          1500 PP5757               1 Z
100493003100493077-000299-A   100493006003000670888GIFT-BAG PAPER JMB LOVE0000001000+00001912+00000+0001T   00001912+0000001525          1500 PP5112               1 Z
100494000100494               100494               170213SJ     1500+00000+SJ0000005214+0000005214+000000000+000000784+0000005990+0000000008+I20000000000+0000005990+Z
100494001100494368-000001     100494006003000097982Plush Bear 25cm        0000001000+00004607+00000+0001T   00004607+0000001526          1500 PP5745               1 Z
100494002100494304-001011     100494006001023806727FLWR ROSE RED W/BEAR   0000001000+00000607+00000+0001T   00000825+0006481526          1500 PP5510               1 Z
100495000100495               100495               170213SJ     1500+00000+SJ0000009560+0000009560+000000000+000001435+0000010990+0000000005+I20000000000+0000010990+Z
100495001100495200-003024     100495006001023657299REFUSE BAGS 20PCE BLACK0000005000+00001912+00000+0001T   00001912+0000001529          1500 PP5214               1 Z
100496000100496               100496               170213SJ     1500+00000+SJ0000012296+0000012296+000000000+000001848+0000014140+0000000004+I20000000000+0000014140+Z
100496001100496304-001011     100496006001023806727FLWR ROSE RED W/BEAR   0000002000+00000607+00000+0001T   00000825+0006481534          1500 PP5510               1 Z
100496002100496301-085008     100496006003000673933ORN OCC.LOVE TINSEL HRT0000002000+00003303+00000+0001T   00003303+0000001534          1500 PP5505               1 Z
100496003100496018-005009     100496006001023725608MUG W/PLUSH-BEAR LOVE  0000001000+00003738+00000+0001T   00003738+0000001534          1500 PP5515               1 Z
100496004100496018-000177     100496006001023797513MUG MINI LOVE ASSTD    0000001000+00000738+00000+0001T   00000738+0000001534          1500 PP5515               1 Z
100497000100497               100497               170213SJ     1500+00000+SJ0000030330+0000030330+000000000+000004553+0000034883+0000000000+I40000034883+0000000000+Z
100497001100497368-000049     100497006003000536955PLUSH BEAR 15cm LOVE   0000006000+00004346+00000+0001T   00004607+0006481536          1500 PP5745               1 Z
100497002100497304-001011     100497006001023806727FLWR ROSE RED W/BEAR   0000002000+00000607+00000+0001T   00000825+0006481536          1500 PP5510               1 Z
100497003100497263-000413     100497006003000600458VEHICLE RACER PULL BACK0000001000+00001564+00000+0001T   00001564+0000001536          1500 PP5710               1 Z
100497004100497018-000177     100497006001023797513MUG MINI LOVE ASSTD    0000002000+00000738+00000+0001T   00000738+0000001536          1500 PP5515               1 Z
100498000100498               100498               170213SJ     1500+00000+SJ0000002954+0000002954+000000000+000000444+0000003390+0000000008+I20000000000+0000003390+Z
100498001100498304-001204     100498006001023737984FLOWER OCC. TEDDY/ROSES0000001000+00001390+00000+0001T   00001564+0006481539          1500 PP5510               1 Z
100498002100498077-000305     100498006003000395422GIFT-BAG WINE 10X35CM  0000001000+00001564+00000+0001T   00001564+0000001539          1500 PP5112               1 Z
100499000100499               100499               170213SJ     1500+00000+SJ0000001564+0000001564+000000000+000000235+0000001790+0000000009+I20000000000+0000001790+Z
100499001100499046-000010     100499004897006172987BATTERIES AAA ALKLN 2PC0000001000+00001564+00000+0001T   00001564+0000001543          1500 PP5312               1 Z
100500000100500               100500               170213SJ     1500+00000+SJ0000004607+0000004607+000000000+000000692+0000005290+0000000009+I20000000000+0000005290+Z
100500001100500001-000175     100500006001023788108B/MUG GLS LOVE 380ML   0000001000+00004607+00000+0001T   00004607+0000001543          1500 PP5515               1 Z
100501000100501               100501               170213SJ     1500+00000+SJ0000001912+0000001912+000000000+000000287+0000002190+0000000009+I20000000000+0000002190+Z
100501001100501089-000030     100501006003000575671K/CHAIN LOVE MTL ASSTD 0000001000+00001912+00000+0001T   00001912+0000001544          1500 PP5205               1 Z
100502000100502               100502               170213SJ     1500+00000+SJ0000003824+0000003824+000000000+000000574+0000004390+0000000008+I20000000000+0000004390+Z
100502001100502560-000107     100502006003000547906DOMESTIC 3PC MINI PETS 0000002000+00001912+00000+0001T   00001912+0000001553          1500 PP5745               1 Z
100503000100503               100503               170213SJ     1500+00000+SJ0000003041+0000003041+000000000+000000457+0000003490+0000000008+I20000000000+0000003490+Z
100503001100503089-000030     100503006003000575671K/CHAIN LOVE MTL ASSTD 0000001000+00001912+00000+0001T   00001912+0000001600          1500 PP5205               1 Z
100503002100503079-009702-G   100503008427973060787PAPER SIRIO A2 FUSHIA  0000001000+00001129+00000+0001T   00001129+0000001600          1500 PP5130               1 Z
100504000100504               100504               170213SJ     1500+00000+SJ0000001214+0000001214+000000000+000000184+0000001390+0000000008+I20000000000+0000001390+Z
100504001100504304-001011     100504006001023806727FLWR ROSE RED W/BEAR   0000002000+00000607+00000+0001T   00000825+0006481601          1500 PP5510               1 Z
100505000100505               100505               170213SJ     1500+00000+SJ0000001042+0000001042+000000000+000000157+0000001190+0000000009+I20000000000+0000001190+Z
100505001100505007-000204     100505006009635835272EXAM-PAD 60SHT PUNCHED 0000001000+00001042+00000+0001T   00001042+0000001630          1500 PP5130               1 Z
100506000100506               100506               170213SJ     1500+00000+SJ0000016344+0000016344+000000000+000002453+0000018797+0000000000+I40000018797+0000000000+Z
100506001100506075-000206     100506006001023782953PLUSH BAG ANIMAL 30x30 0000001000+00011999+00000+0001T   00011999+0000001633          1500 PP5160               1 Z
100506002100506018-000127     100506006001023380289MUG OCC STRAIGHT LOVE  0000001000+00001564+00000+0001T   00001912+0006481633          1500 PP5515               1 Z
100506003100506007-000581     100506006001023710154NOTE-BOOK SET ASSTD    0000001000+00002781+00000+0001T   00002781+0000001633          1500 PP5130               1 Z
100507000100507               100507               170213SJ     1500+00000+SJ0000008083+0000008083+000000000+000001214+0000009290+0000000007+I20000000000+0000009290+Z
100507001100507004-078992     100507004905524102529EARPHONES MINI         0000001000+00001564+00000+0001T   00001564+0000001635          1500 PP5310               1 Z
100507002100507031-000874-B   100507006001023798831P/FRAME WDN P/BOX 13X180000001000+00004607+00000+0001T   00004607+0000001635          1500 PP5510               1 Z
100507003100507077-000377     100507006003000512904GIFT-BAG VALUE 2-PACK  0000001000+00001912+00000+0001T   00001912+0000001635          1500 PP5112               1 Z
100508000100508               100508               170213SJ     1500+00000+SJ0000001345+0000001345+000000000+000000203+0000001540+0000000008+I20000000000+0000001540+Z
100508001100508567-010549     100508000000002526584COLOURING BOOK 16P     0000001000+00000607+00000+0001T   00000955+0008241637          1500 PP5757               1 Z
100508002100508007-000406     100508006009635830659NATURE-STUDY-BOOK 72PG 0000001000+00000738+00000+0001T   00000738+0000001637          1500 PP5130               1 Z
A17021300                                          07481596SJSLAVE 1                       PP53IC
A17021301                                          16023841SJSLAVE 1                       PP52IC
M17021301                              SHIEHAAM    SJSLAVE 1 Z/READING:R3593.37                              C/BANKING:R2922.40                              C/CARDS  :R1207.63                      CASHIER PETRO BALANCED                                                                          SLAVE 2 Z/READING:R24849.85                             C/BANKING:R2329.70                              C/CARDS  :R 945.66                      CASHIER JOSEPH BALANCED                                                                         SLAVE 3 NOT USED                                                                                SJ                                              THANKS
M17021302                              IT          SJLAST TILL SLIP NUMBERS                          SLAVE 1:100508                                  SLAVE 2:201528                                  SLAVE 3: NOT USED                                                                               SJ                                              THANKS
M17021391                              CASH        SJSLAVE 1                       Z-REPORT No.   783TOTAL (Sales - Refunds)           4130.03       CASH TO BE BANKED                    0.00       DEBIT CARDS                          0.00       CREDIT CARDS                         0.00       Z-READING                         4130.03       AIRTIME DEBIT CARD SALES             0.00       AIRTIME CARD SALES                   0.00       OVERS/UNDERS                      4130.03-      AIRTIME CASH SALES                   0.00       GIFT CARDS                           0.00       GIFT CARD CASH SALES                 0.00       T O T A L  CASH PAYOUTS              0.00                                                                                                                                                                                                                                                                                                                                                      Z
M17021392                              CASH        SJABSENT                                                                                                                                                                                          ANNUAL LEAVE                                                                                                                                                                                    DAY OFF                                                                                                                                                                                         COMMENTS                                                                                                                                                                                                                                                                                                                                                                                       Z
Y17021300                                          SJ00000000359337+000045
ZSJ17021321243 SLAVE 1      SALES DATA                     NEXT INVOICE NO.  100509 0783
X SJ Slave 1 First invoice 100464 170213 Last invoice 100508 170213 Next invoice 100509 Total number of records 000000150 clbackup completed 21:24:43
