201487000201487               201487               170213SJ     1500+00000+SJ0000000000+0000000000+000000000+000000000+0000000000+0000000000+ 00000000000+0000000000+Z
201488000201488               201488               170213SJ     1500+00000+SJ0000003738+0000003738+000000000+000000561+0000004290+0000000009+I20000000000+0000004290+Z
201488001201488028-002101     201488006002580009507CHAIR JUNIOR    ASSTD  0000001000+00003738+00000+0001T   00003738+0000000834          1500 SJ5305               2 Z
201489000201489               201489               170213SJ     1500+00000+SJ0000012775+0000012775+000000000+000001918+0000014693+0000000000+I40000014693+0000000000+Z
201489001201489566-001501     201489006003000658398STICKER PAPER EMOTION  0000001000+00001912+00000+0001T   00001912+0000000857          1500 SJ5130               2 Z
201489002201489566-001118     201489006003000682171STICKERS CELL PHONE    0000002000+00001912+00000+0001T   00001912+0000000857          1500 SJ5130               2 Z
201489003201489563-000319-A   201489006003000581337SERVIETTE 2PLY 33cm RED0000001000+00001912+00000+0001T   00001912+0000000857          1500 SJ5214               2 Z
201489004201489563-000318-L   201489006003000407088SERVIETTES 33cm RED    0000001000+00002346+00000+0001T   00002346+0000000857          1500 SJ5214               2 Z
201489005201489563-000317-G   201489006001023776341SERVIETTES BRIGHT ASSTD0000001000+00002781+00000+0001T   00002781+0000000857          1500 SJ5214               2 Z
201490000201490               201490               170213SJ     1500+00000+SJ0000046055+0000046055+000000000+000006916+0000052970+0000000001+I20000000000+0000052970+Z
201490001201490368-000049     201490006003000536955PLUSH BEAR 15cm LOVE   0000003000+00004346+00000+0001T   00004607+0006480911          1500 SJ5745               2 Z
201490002201490301-085004     201490006003000420469ORN LOVE PLAQUE 21X10CM0000002000+00003477+00000+0001T   00003999+0006480911          1500 SJ5505               2 Z
201490003201490077-000912     201490006003000411160G/WRAP 700mx1m LOVE    0000001000+00000955+00000+0001T   00000955+0000000911          1500 SJ5112               2 Z
201490004201490077-000916     201490006003000413577G/WRAP 700mmx2m BBY/KID0000001000+00002346+00000+0001T   00002346+0000000911          1500 SJ5112               2 Z
201490005201490077-000924     201490006003000414055G/WRAP 700mmx2m WEDDING0000001000+00002346+00000+0001T   00002346+0000000911          1500 SJ5112               2 Z
201490006201490077-000926     201490006003000414178G/WRAP 700mmx2m LOVE   0000001000+00002346+00000+0001T   00002346+0000000911          1500 SJ5112               2 Z
201490007201490077-000916     201490006003000413577G/WRAP 700mmx2m BBY/KID0000001000+00002346+00000+0001T   00002346+0000000911          1500 SJ5112               2 Z
201490008201490077-000926     201490006003000414178G/WRAP 700mmx2m LOVE   0000001000+00002346+00000+0001T   00002346+0000000911          1500 SJ5112               2 Z
201490009201490077-000005-D   201490006003000414567PAPER TISSUE 50x70cm   0000001000+00001912+00000+0001T   00001912+0000000911          1500 SJ5112               2 Z
201490010201490077-000011-Y   201490006001023809858TISSUE-WRAP GOLD 10PCE 0000002000+00001912+00000+0001T   00001912+0000000911          1500 SJ5112               2 Z
201490011201490077-000011-C   201490006001023808523TISSUE 10xSHTS RED     0000001000+00000955+00000+0001T   00000955+0000000911          1500 SJ5112               2 Z
201490012201490077-000005-D   201490006003000414567PAPER TISSUE 50x70cm   0000001000+00001912+00000+0001T   00001912+0000000911          1500 SJ5112               2 Z
201490013201490077-000011-D   201490006001023808554TISSUE-WRAP WHITE 10PCE0000005000+00000955+00000+0001T   00000955+0000000911          1500 SJ5112               2 Z
201491000201491               201491               170213SJ     1500+00000+SJ0000007124+0000007124+000000000+000001071+0000008190+0000000005+I20000000000+0000008190+Z
201491001201491077-000151     201491006008766114676GIFT-WRAP C/PHANE ASSTD0000002000+00000955+00000+0001T   00000955+0000001013          1500 SJ5112               2 Z
201491002201491077-000115     201491006001023834225WRAP METALLIC 700mmx1m 0000001000+00001912+00000+0001T   00001912+0000001013          1500 SJ5112               2 Z
201491003201491903-000844     201491005010478432567SWT CANDY DL LUV HEARTS0000001000+00001390+00000+0001T   00001390+0000001013          1500 SJ5150               2 Z
201491004201491019-000130     201491006003000456130PLANTER T/PLATE W/HNDL 0000001000+00001912+00000+0001T   00001912+0000001013          1500 SJ5510               2 Z
201492000201492               201492               170213SJ     1500+00000+SJ0000021553+0000021553+000000000+000003235+0000024788+0000000000+I40000024788+0000000000+Z
201492001201492016-009608     2014920060010239968932PC GRINDERS PL 9CM    0000004000+00002346+00000+0001T   00002346+0000001033          1500 SJ5300               2 Z
201492002201492200-000106     201492006003000510290PICNIC CUPS PAPER 250ml0000002000+00003738+00000+0001T   00003738+0000001033          1500 SJ5214               2 Z
201492003201492024-000010     201492006001023770301CAKE-LIFTER S/S H/HOUSE0000001000+00003129+00000+0001T   00003129+0000001033          1500 SJ5300               2 Z
201492004201492002-000878     201492006001023770967STRAINER TEA WIRE 7cm  0000001000+00001564+00000+0001T   00001564+0000001033          1500 SJ5300               2 Z
201493000201493               201493               170213SJ     1500+00000+SJ0000002781+0000002781+000000000+000000418+0000003190+0000000009+I20000000000+0000003190+Z
201493001201493071-030013     201493006003000283965PEN NVLTY NEON GEL 6PC 0000001000+00002781+00000+0001T   00002781+0000001057          1500 SJ5130               2 Z
201494000201494               201494               170213SJ     1500+00000+SJ0000019995+0000019995+000000000+000003001+0000022990+0000000006+I20000000000+0000022990+Z
201494001201494301-085008     201494006003000673933ORN OCC.LOVE TINSEL HRT0000001000+00003303+00000+0001T   00003303+0000001114          1500 SJ5505               2 Z
201494002201494304-001115     201494006001023738240FLOWER-BUNCH CARNATIONS0000003000+00005564+00000+0001T   00005564+0000001114          1500 SJ5510               2 Z
201495000201495               201495               170213SJ     1500+00000+SJ0000007038+0000007038+000000000+000001056+0000008090+0000000004+I20000000000+0000008090+Z
201495001201495563-000318-L   201495006003000407088SERVIETTES 33cm RED    0000003000+00002346+00000+0001T   00002346+0000001148          1500 SJ5214               2 Z
201496000201496               201496               170213SJ     1500+00000+SJ0000017731+0000017731+000000000+000002661+0000020390+0000000002+I20000000000+0000020390+Z
201496001201496018-005009     201496006001023725608MUG W/PLUSH-BEAR LOVE  0000002000+00003738+00000+0001T   00003738+0000001212          1500 SJ5515               2 Z
201496002201496368-000664     201496006001023874399PLUSH BEAR/DOG/MOUSE   0000001000+00006086+00000+0001T   00008086+0008251212          1500 SJ5745               2 Z
201496003201496089-060027     201496006003000245871KEY-CHAIN HEART 6X6cm  0000001000+00003303+00000+0001T   00003303+0000001212          1500 SJ5205               2 Z
201496004201496903-000183     201496006003000451043SWT LB HEART LOLLY     0000002000+00000433+00000+0001T   00000433+0000001212          1500 SJ5150               2 Z
201497000201497               201497               170213SJ     1500+00000+SJ0000004429+0000004429+000000000+000000667+0000005090+0000000006+I20000000000+0000005090+Z
201497001201497903-000710     201497006002099007056SWT REFRESHERS MINT    0000001000+00001216+00000+0001T   00001216+0000001353          1500 SJ5150               2 Z
201497002201497077-000245     201497006001023759214GIFT-RIBBON METALLICx2 0000001000+00001303+00000+0001T   00001303+0000001353          1500 SJ5112               2 Z
201497003201497077-000151     201497006008766114676GIFT-WRAP C/PHANE ASSTD0000002000+00000955+00000+0001T   00000955+0000001353          1500 SJ5112               2 Z
201498000201498               201498               170213SJ     1500+00000+SJ0000000955+0000000955+000000000+000000144+0000001090+0000000009+I20000000000+0000001090+Z
201498001201498077-000302     201498008010410010195GIFT-BAG 18X23CM E/D   0000001000+00000955+00000+0001T   00000955+0000001415          1500 SJ5112               2 Z
201499000201499               201499               170213SJ     1500+00000+SJ0000001912+0000001912+000000000+000000287+0000002199+0000000000+I40000002199+0000000000+Z
201499001201499089-000030     201499006003000575671K/CHAIN LOVE MTL ASSTD 0000001000+00001912+00000+0001T   00001912+0000001434          1500 SJ5205               2 Z
201500000201500               201500               170213SJ     1500+00000+SJ0000000738+0000000738+000000000+000000111+0000000840+0000000009+I20000000000+0000000840+Z
201500001201500007-000166     201500006009685857316SPIRAL NOTES A6 100PG  0000001000+00000738+00000+0001T   00000738+0000001443          1500 SJ5130               2 Z
201501000201501               201501               170213SJ     1500+00000+SJ0000001390+0000001390+000000000+000000209+0000001590+0000000009+I20000000000+0000001590+Z
201501001201501304-001204     201501006001023737984FLOWER OCC. TEDDY/ROSES0000001000+00001390+00000+0001T   00001564+0006481445          1500 SJ5510               2 Z
201502000201502               201502               170213SJ     1500+00000+SJ0000025190+0000025190+000000000+000003788+0000028970+0000000008+I20000000000+0000028970+Z
201502001201502079-009702-D   201502008427973059354PAPER SIRIO A2 RED COL 0000008000+00001129+00000+0001T   00001129+0000001534          1500 SJ5130               2 Z
201502002201502079-009702-B   201502008427973059491PAPER SIRIO A2 WHITE   0000006000+00001129+00000+0001T   00001129+0000001534          1500 SJ5130               2 Z
201502003201502563-000318-L   201502006003000407088SERVIETTES 33cm RED    0000003000+00002346+00000+0001T   00002346+0000001534          1500 SJ5214               2 Z
201502004201502301-085000     201502006003000674299 ORN OCC. LOVE HEARTS  0000001000+00002346+00000+0001T   00002346+0000001534          1500 SJ5505               2 Z
201503000201503               201503               170213SJ     1500+00000+SJ0000018519+0000018519+000000000+000002779+0000021298+0000000000+I40000021298+0000000000+Z
201503001201503028-002101     201503006002580009507CHAIR JUNIOR    ASSTD  0000001000+00003738+00000+0001T   00003738+0000001542          1500 SJ5305               2 Z
201503002201503028-002102     201503006002580009514TABLE KIDDIES          0000001000+00014781+00000+0001T   00014781+0000001542          1500 SJ5305               2 Z
201504000201504               201504               170213SJ     1500+00000+SJ0000000607+0000000607+000000000+000000092+0000000690+0000000009+I20000000000+0000000690+Z
201504001201504304-001011     201504006001023806727FLWR ROSE RED W/BEAR   0000001000+00000607+00000+0001T   00000825+0006481544          1500 SJ5510               2 Z
201505000201505               201505               170213SJ     1500+00000+SJ0000002954+0000002954+000000000+000000444+0000003390+0000000008+I20000000000+0000003390+Z
201505001201505077-000305     201505006003000395422GIFT-BAG WINE 10X35CM  0000001000+00001564+00000+0001T   00001564+0000001545          1500 SJ5112               2 Z
201505002201505304-001204     201505006001023737984FLOWER OCC. TEDDY/ROSES0000001000+00001390+00000+0001T   00001564+0006481545          1500 SJ5510               2 Z
201506000201506               201506               170213SJ     1500+00000+SJ0000000955+0000000955+000000000+000000144+0000001090+0000000009+I20000000000+0000001090+Z
201506001201506903-003080     201506005907029004673SWT SNACK STIX CHOC 50g0000001000+00000955+00000+0001T   00000955+0000001546          1500 SJ5150               2 Z
201507000201507               201507               170213SJ     1500+00000+SJ0000001129+0000001129+000000000+000000170+0000001290+0000000009+I20000000000+0000001290+Z
201507001201507903-002892     201507008935001721338MENTOS JUICEBLAST BERRY0000001000+00001129+00000+0001T   00001129+0000001550          1500 SJ5150               2 Z
201508000201508               201508               170213SJ     1500+00000+SJ0000002780+0000002780+000000000+000000418+0000003190+0000000008+I20000000000+0000003190+Z
201508001201508903-000519     201508006001704012805SWT MS LIQ-O-GHETTI    0000001000+00001303+00000+0001T   00001303+0000001600          1500 SJ5150               2 Z
201508002201508903-000911     201508006009802868454SWT ST GUM TAPE BARBIE 0000001000+00001477+00000+0001T   00001477+0000001600          1500 SJ5150               2 Z
201509000201509               201509               170213SJ     1500+00000+SJ0000001390+0000001390+000000000+000000209+0000001590+0000000009+I20000000000+0000001590+Z
201509001201509304-001204     201509006001023737984FLOWER OCC. TEDDY/ROSES0000001000+00001390+00000+0001T   00001564+0006481600          1500 SJ5510               2 Z
201510000201510               201510               170213SJ     1500+00000+SJ0000000607+0000000607+000000000+000000092+0000000690+0000000009+I20000000000+0000000690+Z
201510001201510304-001011     201510006001023806727FLWR ROSE RED W/BEAR   0000001000+00000607+00000+0001T   00000825+0006481601          1500 SJ5510               2 Z
201511000201511               201511               170213SJ     1500+00000+SJ0000005128+0000005128+000000000+000000770+0000005890+0000000008+I20000000000+0000005890+Z
201511001201511486-002083     201511006001023740403A/CLOCK QTZ PL SQR     0000001000+00003738+00000+0001T   00003738+0000001609          1500 SJ5510               2 Z
201511002201511046-000012     201511006904708013062BATTERIES AA  CARD-OF-40000001000+00001390+00000+0001T   00001390+0000001609          1500 SJ5312               2 Z
201512000201512               201512               170213SJ     1500+00000+SJ0000006607+0000006607+000000000+000000992+0000007599+0000000000+I40000007599+0000000000+Z
201512001201512047-000522-H   201512006003000465262EXT-CORD 3m 1x16A+1xSHK0000001000+00006607+00000+0001T   00006607+0000001624          1500 SJ5880               2 Z
201513000201513               201513               170213SJ     1500+00000+SJ0000002778+0000002778+000000000+000000419+0000003190+0000000007+I20000000000+0000003190+Z
201513001201513304-001011     201513006001023806727FLWR ROSE RED W/BEAR   0000002000+00000607+00000+0001T   00000825+0006481625          1500 SJ5510               2 Z
201513002201513077-000305     201513006003000395422GIFT-BAG WINE 10X35CM  0000001000+00001564+00000+0001T   00001564+0000001625          1500 SJ5112               2 Z
201514000201514               201514               170213SJ     1500+00000+SJ0000002171+0000002171+000000000+000000327+0000002490+0000000008+I20000000000+0000002490+Z
201514001201514077-000305     201514006003000395422GIFT-BAG WINE 10X35CM  0000001000+00001564+00000+0001T   00001564+0000001626          1500 SJ5112               2 Z
201514002201514304-001011     201514006001023806727FLWR ROSE RED W/BEAR   0000001000+00000607+00000+0001T   00000825+0006481626          1500 SJ5510               2 Z
201515000201515               201515               170213SJ     1500+00000+SJ0000002171+0000002171+000000000+000000327+0000002490+0000000008+I20000000000+0000002490+Z
201515001201515077-000305     201515006003000395422GIFT-BAG WINE 10X35CM  0000001000+00001564+00000+0001T   00001564+0000001627          1500 SJ5112               2 Z
201515002201515304-001011     201515006001023806727FLWR ROSE RED W/BEAR   0000001000+00000607+00000+0001T   00000825+0006481627          1500 SJ5510               2 Z
201516000201516               201516               170213SJ     1500+00000+SJ0000002346+0000002346+000000000+000000352+0000002690+0000000008+I20000000000+0000002690+Z
201516001201516077-000926     201516006003000414178G/WRAP 700mmx2m LOVE   0000001000+00002346+00000+0001T   00002346+0000001632          1500 SJ5112               2 Z
201517000201517               201517               170213SJ     1500+00000+SJ0000001564+0000001564+000000000+000000235+0000001790+0000000009+I20000000000+0000001790+Z
201517001201517080-000124     201517006003000297733CARD & ENV VALENTINES  0000001000+00001564+00000+0001T   00001651+0006481636          1500 SJ5112               2 Z
201518000201518               201518               170213SJ     1500+00000+SJ0000000694+0000000694+000000000+000000105+0000000790+0000000009+I20000000000+0000000790+Z
201518001201518080-000121     201518006003000237555CARD&ENVLPE-ANNIVERSARY0000001000+00000694+00000+0001T   00000955+0008261637          1500 SJ5112               2 Z
201519000201519               201519               170213SJ     1500+00000+SJ0000000694+0000000694+000000000+000000105+0000000790+0000000009+I20000000000+0000000790+Z
201519001201519080-000121     201519006003000237555CARD&ENVLPE-ANNIVERSARY0000001000+00000694+00000+0001T   00000955+0008261639          1500 SJ5112               2 Z
201520000201520               201520               170213SJ     1500+00000+SJ0000001129+0000001129+000000000+000000170+0000001290+0000000009+I20000000000+0000001290+Z
201520001201520079-009702-F   201520008427973059392PAPER SIRIO A2 GREEN   0000001000+00001129+00000+0001T   00001129+0000001643          1500 SJ5130               2 Z
201521000201521               201521               170213SJ     1500+00000+SJ0000003738+0000003738+000000000+000000561+0000004290+0000000009+I20000000000+0000004290+Z
201521001201521018-005009     201521006001023725608MUG W/PLUSH-BEAR LOVE  0000001000+00003738+00000+0001T   00003738+0000001644          1500 SJ5515               2 Z
201522000201522               201522               170213SJ     1500+00000+SJ0000005996+0000005996+000000000+000000901+0000006890+0000000007+I20000000000+0000006890+Z
201522001201522077-000245     201522006001023759214GIFT-RIBBON METALLICx2 0000001000+00001303+00000+0001T   00001303+0000001648          1500 SJ5112               2 Z
201522002201522077-000904     201522006003000410682G/WRAP 700mmx1m PATTERN0000001000+00001912+00000+0001T   00001912+0000001648          1500 SJ5112               2 Z
201522003201522077-000270     201522006003000395453GIFT-BAG PPR JMB 33X45 0000001000+00002781+00000+0001T   00002781+0000001648          1500 SJ5112               2 Z
201523000201523               201523               170213SJ     1500+00000+SJ0000017033+0000017033+000000000+000002560+0000019593+0000000000+I40000019593+0000000000+Z
201523001201523304-001011     201523006001023806727FLWR ROSE RED W/BEAR   0000002000+00000607+00000+0001T   00000825+0006481654          1500 SJ5510               2 Z
201523002201523368-000182     201523006003000667697PLUSH BEAR 26cm ASSTD  0000001000+00009564+00000+0001T   00009564+0000001654          1500 SJ5745               2 Z
201523003201523077-000299     201523006003000395576G/BAG 32x25cm LRG LOVE 0000001000+00001564+00000+0001T   00001564+0000001654          1500 SJ5112               2 Z
201523004201523304-001011     201523006001023806727FLWR ROSE RED W/BEAR   0000002000+00000607+00000+0001T   00000825+0006481654          1500 SJ5510               2 Z
201523005201523301-085004     201523006003000420469ORN LOVE PLAQUE 21X10CM0000001000+00003477+00000+0001T   00003999+0006481654          1500 SJ5505               2 Z
201524000201524               201524               170213SJ     1500+00000+SJ0000002781+0000002781+000000000+000000418+0000003190+0000000009+I20000000000+0000003190+Z
201524001201524007-000049     201524006003000274994OFFICE E/LOPE A4 PK 5  0000001000+00002781+00000+0001T   00002781+0000001655          1500 SJ5130               2 Z
201525000201525               201525               170213SJ     1500+00000+SJ0000007908+0000007908+000000000+000001188+0000009090+0000000006+I20000000000+0000009090+Z
201525001201525018-005009     201525006001023725608MUG W/PLUSH-BEAR LOVE  0000001000+00003738+00000+0001T   00003738+0000001659          1500 SJ5515               2 Z
201525002201525304-001204     201525006001023737984FLOWER OCC. TEDDY/ROSES0000001000+00001390+00000+0001T   00001564+0006481659          1500 SJ5510               2 Z
201525003201525077-000305     201525006003000395422GIFT-BAG WINE 10X35CM  0000001000+00001564+00000+0001T   00001564+0000001659          1500 SJ5112               2 Z
201525004201525903-000698     201525006002099007032SWT CANDY ECLAIRS 90g  0000001000+00001216+00000+0001T   00001216+0000001659          1500 SJ5150               2 Z
201526000201526               201526               170213SJ     1500+00000+SJ0000003820+0000003820+000000000+000000576+0000004396+0000000000+I40000004396+0000000000+Z
201526001201526903-003080     201526005907029004673SWT SNACK STIX CHOC 50g0000004000+00000955+00000+0001T   00000955+0000001703          1500 SJ5150               2 Z
201527000201527               201527               170213SJ     1500+00000+SJ0000009564+0000009564+000000000+000001435+0000010990+0000000009+I20000000000+0000010990+Z
201527001201527004-071262     201527006003000234981COMPUTER MOUSE RUGBY 6 0000001000+00009564+00000+0001T   00009564+0000001704          1500 SJ5310               2 Z
201528000201528               201528               170213SJ     1500+00000+SJ0000006518+0000006518+000000000+000000979+0000007490+0000000007+I20000000000+0000007490+Z
201528001201528304-001204     201528006001023737984FLOWER OCC. TEDDY/ROSES0000002000+00001390+00000+0001T   00001564+0006481710          1500 SJ5510               2 Z
201528002201528150-000776     201528006001023839756UTILITY/TOOL-BOX PL    0000001000+00003738+00000+0001T   00003738+0000001710          1500 SJ5810               2 Z
A17021300                                          07492086SJSLAVE 2                       SJ52IC
A17021301                                          12480028SJSLAVE 2                       SJ52IC
C20150800                                          170213SJ903-000151     15574028SLAVE 2     SJ52IC0000000000+0000000000+0010000001000+
C20150801                                          170213SJ368-000100     15574732SLAVE 2     SJ52IC0000000000+0000000000+0020000001000+
C20150802                                          170213SJ565-000014     15575327SLAVE 2     SJ52IC0000000000+0000000000+0030000001000+
C20150803                                          170213SJ560-000201     15580096SLAVE 2     SJ52IC0000000000+0000000000+0040000001000+
C20150804                                          170213SJ565-000256     15580845SLAVE 2     SJ52IC0000000000+0000000000+0050000001000+
M17021391                              CASH        SJSLAVE 2                       Z-REPORT No.   743TOTAL (Sales - Refunds)           3275.36       CASH TO BE BANKED                    0.00       DEBIT CARDS                          0.00       CREDIT CARDS                         0.00       Z-READING                         3275.36       AIRTIME DEBIT CARD SALES             0.00       AIRTIME CARD SALES                   0.00       OVERS/UNDERS                      3275.36-      AIRTIME CASH SALES                   0.00       GIFT CARDS                           0.00       GIFT CARD CASH SALES                 0.00       T O T A L  CASH PAYOUTS              0.00                                                                                                                                                                                                                                                                                                                                                      Z
M17021392                              CASH        SJABSENT                                                                                                                                                                                          ANNUAL LEAVE                                                                                                                                                                                    DAY OFF                                                                                                                                                                                         COMMENTS                                                                                                                                                                                                                                                                                                                                                                                       Z
Y17021300                                          SJ00000000284985+000041
ZSJ17021321243 SLAVE 2      SALES DATA                     NEXT INVOICE NO.  201529 0743
X SJ Slave 2 First invoice 201487 170213 Last invoice 201528 170213 Next invoice 201529 Total number of records 000000142 clbackup completed 21:24:45
