128168000128168               128168               170213SK     1500+00000+SK0000001388+0000001388+000000000+000000210+0000001590+0000000008+I20000000000+0000001590+Z
128168001128168584-002037     128168006005298008398ASSORTED MUSIC CD 1-CD 0000002000+00000694+00000+0001T   00000955+0008250911          1500 3IC310               1 Z
128169000128169               128169               170213SK     1500+00000+SK0000002607+0000002607+000000000+000000392+0000002990+0000000009+I20000000000+0000002990+Z
128169001128169567-075466     128169009780263909074BK NOVEL ROMANCE       0000001000+00002607+00000+0001T   00002781+0006480932          1500 3IC757               1 Z
128170000128170               128170               170213SK     1500+00000+SK0000061643+0000061643+000000000+000009250+0000070890+0000000003+I20000000000+0000070890+Z
128170001128170266-007799     128170006003000023868BOYS PLAYSET SET       0000001000+00013042+00000+0001T   00013042+0000001004          1500 3IC710               1 Z
128170002128170266-007799     128170006003000599967BOYS PLAYSET SET       0000001000+00013042+00000+0001T   00013042+0000001004          1500 3IC710               1 Z
128170003128170261-003906     128170006003000472376RIFLE 57cm +ACCESS 8PCE0000002000+00009564+00000+0001T   00009564+0000001004          1500 3IC710               1 Z
128170004128170562-006274     128170006001023744432EDU SKETCH-BOARD       0000003000+00005477+00000+0001T   00005477+0000001004          1500 3IC755               1 Z
128171000128171               128171               170213SK     1500+00000+SK0000007476+0000007476+000000000+000001122+0000008590+0000000008+I20000000000+0000008590+Z
128171001128171079-000013     128171006001023463890P/CRAYONS 24COL 18cm   0000001000+00003738+00000+0001T   00003738+0000001022          1500 CA5130               1 Z
128171002128171567-011344     128171006003000630714BK COLOURING THERAPY 640000001000+00003738+00000+0001T   00003738+0000001022          1500 CA5757               1 Z
128172000128172               128172               170213SK     1500+00000+SK0000002606+0000002606+000000000+000000392+0000002990+0000000008+I20000000000+0000002990+Z
128172001128172080-000114     128172006003000246472CARD&ENV LOVE-MUSICAL  0000002000+00001303+00000+0001T   00001912+0008261023          1500 CA5112               1 Z
128173000128173               128173               170213SK     1500+00000+SK0000004867+0000004867+000000000+000000731+0000005590+0000000008+I20000000000+0000005590+Z
128173001128173018-000136     128173006001023659026MUG OCC LOVE W/PLUSH   0000001000+00003477+00000+0001T   00003738+0006481035          1500 3IC515               1 Z
128173002128173304-001204     128173006001023737984FLOWER OCC. TEDDY/ROSES0000001000+00001390+00000+0001T   00001564+0006481035          1500 3IC510               1 Z
128174000128174               128174               170213SK     1500+00000+SK0000004346+0000004346+000000000+000000652+0000004990+0000000008+I20000000000+0000004990+Z
128174001128174105-008005     128174006002580009484STORAGE CONTAINER 7.5L 0000001000+00004346+00000+0001T   00004607+0006831044          1500 CA5210               1 Z
128175000128175               128175               170213SK     1500+00000+SK0000023213+0000023213+000000000+000003484+0000026690+0000000007+I20000000000+0000026690+Z
128175001128175024-091100     128175006001023914224BAKING-CUPS PAPER 100PC0000001000+00001912+00000+0001T   00001912+0000001048          1500 3IC300               1 Z
128175002128175024-091102-B   128175006003000111725BAKING-CUP MUFFIN 40PCE0000001000+00002607+00000+0001T   00002607+0000001048          1500 3IC300               1 Z
128175003128175019-000049     128175006001023673732V/GLASS FOOTED 17X25CM 0000001000+00018694+00000+0001T   00018694+0000001048          1500 3IC510               1 Z
128176000128176               128176               170213SK     1500+00000+SK0000004607+0000004607+000000000+000000692+0000005290+0000000009+I20000000000+0000005290+Z
128176001128176027-009027     128176006003000235803BROOM FLAT 1.2m HANDLE 0000001000+00004607+00000+0001T   00004607+0000001052          1500 CA5212               1 Z
128177000128177               128177               170213SK     1500+00000+SK0000021504+0000021504+000000000+000003233+0000024737+0000000000+I40000024737+0000000000+Z
128177001128177903-003080     128177005907029004673SWT SNACK STIX CHOC 50g0000002000+00000955+00000+0001T   00000955+0000001207          1500 3IC150               1 Z
128177002128177903-000892     128177008693029700420SWT NOVELTY CHOCO CREAM0000002000+00000868+00000+0001T   00000868+0000001207          1500 3IC150               1 Z
128177003128177903-000183     128177006003000451043SWT LB HEART LOLLY     0000001000+00000433+00000+0001T   00000433+0000001207          1500 3IC150               1 Z
128177004128177565-000052     128177006003000615551NOVELTY PUTTY FARTS    0000001000+00001651+00000+0001T   00001651+0000001207          1500 3IC745               1 Z
128177005128177565-000071     128177006003000643387NOVELTY WIND UP CHATTER0000002000+00001216+00000+0001T   00001216+0000001207          1500 3IC745               1 Z
128177006128177903-000155     128177006009803374435SWT LOLLY I LUV U HEART0000001000+00000564+00000+0001T   00000564+0000001207          1500 3IC150               1 Z
128177007128177565-000014     128177006003000671915NOVELTY AIR BALLOON    0000002000+00002781+00000+0001T   00002781+0000001207          1500 3IC745               1 Z
128177008128177174-000305     128177006003000105502TRAVEL NECK-PILLOW     0000001000+00007216+00000+0001T   00007216+0000001207          1500 3IC205               1 Z
128178000128178               128178               170213SK     1500+00000+SK0000021475+0000021475+000000000+000003223+0000024690+0000000008+I20000000000+0000024690+Z
128178001128178004-079110     128178006003000624089USB POWER ADAPTOR 4PORT0000001000+00018694+00000+0001T   00018694+0000001208          1500 3IC310               1 Z
128178002128178033-001500     128178006003000575763BRA CLIPS 10-PACK      0000001000+00002781+00000+0001T   00002781+0000001208          1500 3IC200               1 Z
128179000128179               128179               170213SK     1500+00000+SK0000029596+0000029596+000000000+000004444+0000034040+0000000000+I40000034040+0000000000+Z
128179001128179105-007015     128179006001023168221CONTAINER PL ROUND     0000003000+00003738+00000+0001T   00003738+0000001211          1500 3IC210               1 Z
128179002128179105-007050-B   128179006002580009705CEREAL-STORE 3L ASSTD  0000001000+00003738+00000+0001T   00003738+0000001211          1500 3IC210               1 Z
128179003128179016-002709     128179006001023655257S/BOTTLE GLS W/LID 31CM0000002000+00003303+00000+0001T   00003303+0000001211          1500 3IC300               1 Z
128179004128179903-000155     128179006009803374435SWT LOLLY I LUV U HEART0000001000+00000564+00000+0001T   00000564+0000001211          1500 3IC150               1 Z
128179005128179903-000211     128179006002099001238SWT GS MALLOW ICE CREAM0000001000+00001912+00000+0001T   00001912+0000001211          1500 3IC150               1 Z
128179006128179567-010569     128179006002242057136BOOK READER AFR DISNEY 0000002000+00002781+00000+0001T   00002781+0000001211          1500 3IC757               1 Z
128180000128180               128180               170213SK     1500+00000+SK0000029444+0000029444+000000000+000004425+0000033860+0000000009+I20000000000+0000033860+Z
128180001128180903-000183     128180006003000451043SWT LB HEART LOLLY     0000006000+00000433+00000+0001T   00000433+0000001216          1500 3IC150               1 Z
128180002128180304-001204     128180006001023737984FLOWER OCC. TEDDY/ROSES0000005000+00001390+00000+0001T   00001564+0006481216          1500 3IC510               1 Z
128180003128180903-000081     128180006001704014076SWT F/PASTILLES 100G   0000001000+00001912+00000+0001T   00001912+0000001216          1500 3IC150               1 Z
128180004128180903-000155     128180006009803374435SWT LOLLY I LUV U HEART0000006000+00000564+00000+0001T   00000564+0000001216          1500 3IC150               1 Z
128180005128180903-000082     128180006001704014892SWT MINI WINE GUMS 100G0000002000+00001912+00000+0001T   00001912+0000001216          1500 3IC150               1 Z
128180006128180018-000127     128180006001023380289MUG OCC STRAIGHT LOVE  0000001000+00001564+00000+0001T   00001912+0006481216          1500 3IC515               1 Z
128180007128180018-000128     128180006001023868978MUG OCCASIONS MESSAGES 0000001000+00002781+00000+0001T   00002781+0000001216          1500 3IC515               1 Z
128180008128180018-000127     128180006001023380289MUG OCC STRAIGHT LOVE  0000002000+00001564+00000+0001T   00001912+0006481216          1500 3IC515               1 Z
128180009128180089-060027     128180006003000245871KEY-CHAIN HEART 6X6cm  0000001000+00003303+00000+0001T   00003303+0000001216          1500 3IC205               1 Z
128181000128181               128181               170213SK     1500+00000+SK0000004953+0000004953+000000000+000000744+0000005690+0000000007+I20000000000+0000005690+Z
128181001128181077-000303     128181006001023593757GIFT-BAG PAPER MED     0000003000+00001651+00000+0001T   00001651+0000001217          1500 3IC112               1 Z
128182000128182               128182               170213SK     1500+00000+SK0000000607+0000000607+000000000+000000092+0000000690+0000000009+I20000000000+0000000690+Z
128182001128182304-001011     128182006001023806727FLWR ROSE RED W/BEAR   0000001000+00000607+00000+0001T   00000825+0006481218          1500 3IC510               1 Z
128183000128183               128183               170213SK     1500+00000+SK0000008344+0000008344+000000000+000001253+0000009590+0000000007+I20000000000+0000009590+Z
128183001128183304-001204     128183006001023737984FLOWER OCC. TEDDY/ROSES0000001000+00001390+00000+0001T   00001564+0006481227          1500 3IC510               1 Z
128183002128183018-000136     128183006001023659026MUG OCC LOVE W/PLUSH   0000002000+00003477+00000+0001T   00003738+0006481227          1500 3IC515               1 Z
128184000128184               128184               170213SK     1500+00000+SK0000008343+0000008343+000000000+000001254+0000009590+0000000007+I20000000000+0000009590+Z
128184001128184105-006948     128184006003000667192CONTAINER STORER 1.1L  0000003000+00002781+00000+0001T   00002781+0000001228          1500 3IC210               1 Z
128185000128185               128185               170213SK     1500+00000+SK0000017473+0000017473+000000000+000002622+0000020090+0000000005+I20000000000+0000020090+Z
128185001128185368-000614     128185006001023705808PLUSH LOVE 30cm        0000001000+00008694+00000+0001T   00009564+0006481253          1500 3IC745               1 Z
128185002128185262-000653     128185006008766060553DIE CAST SET AIRPORT   0000001000+00008346+00000+0001T   00008346+0000001253          1500 3IC710               1 Z
128185003128185903-000183     128185006003000451043SWT LB HEART LOLLY     0000001000+00000433+00000+0001T   00000433+0000001253          1500 3IC150               1 Z
128186000128186               128186               170213SK     1500+00000+SK0000003738+0000003738+000000000+000000561+0000004290+0000000009+I20000000000+0000004290+Z
128186001128186082-098778     128186006001492987781SUNGLASS KIDS OVAL     0000001000+00003738+00000+0001T   00003738+0000001305          1500 3IC160               1 Z
128187000128187               128187               170213SK     1500+00000+SK0000000955+0000000955+000000000+000000144+0000001090+0000000009+I20000000000+0000001090+Z
128187001128187083-000050     128187006001023898593LIGHTERS DISPOSABLE    0000001000+00000955+00000+0001T   00000955+0000001321          1500 3IC315               1 Z
128188000128188               128188               170213SK     1500+00000+SK0000000607+0000000607+000000000+000000092+0000000690+0000000009+I20000000000+0000000690+Z
128188001128188304-001011     128188006001023806727FLWR ROSE RED W/BEAR   0000001000+00000607+00000+0001T   00000825+0006481341          1500 3IC510               1 Z
128189000128189               128189               170213SK     1500+00000+SK0000003738+0000003738+000000000+000000561+0000004290+0000000009+I20000000000+0000004290+Z
128189001128189007-000325     128189006009698066514PAPER A4 160GSM 25SHTS 0000001000+00003738+00000+0001T   00003738+0000001342          1500 3IC130               1 Z
128190000128190               128190               170213SK     1500+00000+SK0000002260+0000002260+000000000+000000339+0000002590+0000000009+I20000000000+0000002590+Z
128190001128190007-000046     128190006009635831366DISPLAY-BOOK PL A4 30PG0000001000+00002260+00000+0001T   00002260+0000001351          1500 3IC130               1 Z
128191000128191               128191               170213SK     1500+00000+SK0000001912+0000001912+000000000+000000287+0000002190+0000000009+I20000000000+0000002190+Z
128191001128191077-000299-A   128191006003000670888GIFT-BAG PAPER JMB LOVE0000001000+00001912+00000+0001T   00001912+0000001358          1500 3IC112               1 Z
128192000128192               128192               170213SK     1500+00000+SK0000008343+0000008343+000000000+000001254+0000009590+0000000007+I20000000000+0000009590+Z
128192001128192007-000601     128192006003000541195BOOK COVER ADHESIVE 2M 0000001000+00002781+00000+0001T   00002781+0000001408          1500 3IC130               1 Z
128192002128192007-000602     128192006003000541270BOOK COVER 2M SOLID COL0000002000+00002781+00000+0001T   00002781+0000001408          1500 3IC130               1 Z
128193000128193               128193               170213SK     1500+00000+SK0000005562+0000005562+000000000+000000836+0000006390+0000000008+I20000000000+0000006390+Z
128193001128193467-000006     128193006001023995483NET-BUTTERFLY 120cm    0000002000+00002781+00000+0001T   00002781+0000001417          1500 3IC785               1 Z
128194000128194               128194               170213SK     1500+00000+SK0000002781+0000002781+000000000+000000418+0000003190+0000000009+I20000000000+0000003190+Z
128194001128194079-000518     128194006001177005007CRAYONS WAX 48-COLOUR  0000001000+00002781+00000+0001T   00002781+0000001444          1500 3IC130               1 Z
128195000128195               128195               170213SK     1500+00000+SK0000002028+0000002028+000000000+000000306+0000002330+0000000004+I20000000000+0000002330+Z
128195001128195007-000123     128195006003000533879BOOK COVER 450mmx1.5m  0000006000+00000338+00000+0001T   00000338+0000001445          1500 3IC130               1 Z
128196000128196               128196               170213SK     1500+00000+SK0000004865+0000004865+000000000+000000732+0000005590+0000000007+I20000000000+0000005590+Z
128196001128196077-000270     128196006003000395453GIFT-BAG PPR JMB 33X45 0000001000+00002781+00000+0001T   00002781+0000001446          1500 3IC112               1 Z
128196002128196080-000121     128196006003000237555CARD&ENVLPE-ANNIVERSARY0000001000+00000694+00000+0001T   00000955+0008261446          1500 3IC112               1 Z
128196003128196304-001204     128196006001023737984FLOWER OCC. TEDDY/ROSES0000001000+00001390+00000+0001T   00001564+0006481446          1500 3IC510               1 Z
128197000128197               128197               170213SK     1500+00000+SK0000003736+0000003736+000000000+000000561+0000004290+0000000007+I20000000000+0000004290+Z
128197001128197563-000318-L   128197006003000407088SERVIETTES 33cm RED    0000001000+00002346+00000+0001T   00002346+0000001454          1500 3IC214               1 Z
128197002128197563-000317-B   128197006001023776174SERVIETTES PLN WHT PK400000001000+00001390+00000+0001T   00001390+0000001454          1500 3IC214               1 Z
128198000128198               128198               170213SK     1500+00000+SK0000001303+0000001303+000000000+000000196+0000001490+0000000009+I20000000000+0000001490+Z
128198001128198080-000114     128198006003000246472CARD&ENV LOVE-MUSICAL  0000001000+00001303+00000+0001T   00001912+0008261522          1500 3IC112               1 Z
128199000128199               128199               170213SK     1500+00000+SK0000006519+0000006519+000000000+000000979+0000007490+0000000008+I20000000000+0000007490+Z
128199001128199251-000012     128199006001023597915TAPE DUCT GREY 48mmx5m 0000001000+00002781+00000+0001T   00002781+0000001523          1500 3IC810               1 Z
128199002128199175-000800     128199006001023876607MAGIC HEAT/PAD 15X10cm 0000001000+00003738+00000+0001T   00003738+0000001523          1500 3IC520               1 Z
128200000128200               128200               170213SK     1500+00000+SK0000034774+0000034774+000000000+000005218+0000039992+0000000000+I40000039992+0000000000+Z
128200001128200024-000140     128200006001023902429N/STICK S/FORM 25X6CM  0000001000+00013912+00000+0001T   00013912+0000001541          1500 3IC300               1 Z
128200002128200567-010564     128200006003000572397BOOK AFRIKAANS CAT 1   0000001000+00003738+00000+0001T   00003738+0000001541          1500 3IC757               1 Z
128200003128200024-000165-F   128200006003000674671N/STICK MUFFIN PAN     0000001000+00005477+00000+0001T   00005477+0000001541          1500 3IC300               1 Z
128200004128200077-000309     128200006001023608604GIFT-BAG 25X32CM GLOSS 0000001000+00001912+00000+0001T   00001912+0000001541          1500 3IC112               1 Z
128200005128200077-000454     128200006003000285266G/BAG METALLIC LRG EMB 0000001000+00001912+00000+0001T   00001912+0000001541          1500 3IC112               1 Z
128200006128200077-000318     128200006001023609755GIFT-BAG 18X23CM E/D AN0000001000+00001303+00000+0001T   00001303+0000001541          1500 3IC112               1 Z
128200007128200567-011516     128200009781472330147BK FOOD PAR 1 DOUGH-1000000001000+00006520+00000+0001T   00006520+0000001541          1500 3IC757               1 Z
128201000128201               128201               170213SK     1500+00000+SK0000000738+0000000738+000000000+000000111+0000000840+0000000009+I20000000000+0000000840+Z
128201001128201018-000177     128201006001023797513MUG MINI LOVE ASSTD    0000001000+00000738+00000+0001T   00000738+0000001635          1500 3IC515               1 Z
128202000128202               128202               170213SK     1500+00000+SK0000003171+0000003171+000000000+000000477+0000003640+0000000008+I20000000000+0000003640+Z
128202001128202903-000155     128202006009803374435SWT LOLLY I LUV U HEART0000001000+00000564+00000+0001T   00000564+0000001639          1500 3IC150               1 Z
128202002128202368-000173     128202006003000233496PLUSH BEAR W/T SHRT    0000001000+00002607+00000+0001T   00003738+0008251639          1500 3IC745               1 Z
A17021300                                          08391954SKSLAVE 1                       AY33IC
M17021301                              SHIEHAAM    SKSLAVE 1                                         Z/READING=3925.59                               C/BANKING=2937.90                               C/CARDS  =987.69                                PAYOUTS  =00.00                                 CASHIER MARIONETT                               BALANCE                                                                                         SLAVE 2                                         Z/READING=4202.70                               C/BANKING=2018.00                               C/CARDS  =2184.70                               PAYOUTS  =00.00                                 CASHIER ELTON                                   OVER    1.10                                                                                                                                    THANK YOU                                       MARIONETT                                       SK
M17021302                              IT          SKLAST TILL SLIP NR                               SLAVE 1=128202                                  SLAVE 2=137364                                                                                                                                                                                                                                                                                                                                                                                                                                                                                                                                                                                                                                                                                                                                  THANK YOU                                       MARIONETT                                       SK
M17021391                              CASH        SKSLAVE 1                       Z-REPORT No.   447TOTAL (Sales - Refunds)           3925.59       CASH TO BE BANKED                 2937.90       DEBIT CARDS                          0.00       CREDIT CARDS                       987.69       Z-READING                         3925.59       AIRTIME DEBIT CARD SALES             0.00       AIRTIME CARD SALES                   0.00       OVERS/UNDERS                         0.00       AIRTIME CASH SALES                   0.00       GIFT CARDS                           0.00       GIFT CARD CASH SALES                 0.00       T O T A L  CASH PAYOUTS              0.00                                                                                                                                                                                                                                                                                                                                                      Z
M17021392                              CASH        SKABSENT            ANNA-MARIE                                                                                                                                                                    ANNUAL LEAVE                                                                                                                                                                                    DAY OFF                                                                                                                                                                                         COMMENTS          CASHIER M.BOOIS                                                                                                                                                                                                                                                                                                                                                              Z
Y17021300                                          SK00003500341522+000035
ZSK17021320233 SLAVE 1      SALES DATA                     NEXT INVOICE NO.  128203 0447
X SK Slave 1 First invoice 128168 170213 Last invoice 128202 170213 Next invoice 128203 Total number of records 000000120 clbackup completed 20:23:08
