137326000137326               137326               170213SK     1500+00000+SK0000002781+0000002781+000000000+000000418+0000003190+0000000009+I20000000000+0000003190+Z
137326001137326106-001107     137326006003000467242WATER BOTTLE 1L RUBBER 0000001000+00002781+00000+0001T   00002781+0000000853          1500 AY3210               2 Z
137327000137327               137327               170213SK     1500+00000+SK0000002693+0000002693+000000000+000000405+0000003090+0000000008+I20000000000+0000003090+Z
137327001137327903-000194     137327006009826020616SWT CHOC RP LOLLY 25G  0000001000+00001303+00000+0001T   00001390+0006480956          1500 AY3150               2 Z
137327002137327304-001204     137327006001023737984FLOWER OCC. TEDDY/ROSES0000001000+00001390+00000+0001T   00001564+0006480956          1500 AY3510               2 Z
137328000137328               137328               170213SK     1500+00000+SK0000000564+0000000564+000000000+000000085+0000000640+0000000009+I20000000000+0000000640+Z
137328001137328903-000155     137328006009803374435SWT LOLLY I LUV U HEART0000001000+00000564+00000+0001T   00000564+0000000957          1500 AY3150               2 Z
137329000137329               137329               170213SK     1500+00000+SK0000011473+0000011473+000000000+000001723+0000013190+0000000006+I20000000000+0000013190+Z
137329001137329071-030013     137329006003000283965PEN NVLTY NEON GEL 6PC 0000001000+00002781+00000+0001T   00002781+0000001052          1500 AY3130               2 Z
137329002137329071-001010     137329006001023893314MARKERS-METALIC 3PCE   0000001000+00003738+00000+0001T   00003738+0000001052          1500 AY3130               2 Z
137329003137329071-003863     137329006003000145102PENCIL NOVELTY ERASER  0000001000+00002781+00000+0001T   00002781+0000001052          1500 AY3130               2 Z
137329004137329903-000095     137329006001704011495SWT SPECKLED-EGGS 100G 0000001000+00002173+00000+0001T   00002173+0000001052          1500 AY3150               2 Z
137330000137330               137330               170213SK     1500+00000+SK0000006520+0000006520+000000000+000000978+0000007490+0000000008+I20000000000+0000007490+Z
137330001137330082-000120-A   137330006001023755834R/GLASS  FRAME W/CASE  0000001000+00006520+00000+0001T   00006520+0000001053          1500 AY3160               2 Z
137331000137331               137331               170213SK     1500+00000+SK0000008345+0000008345+000000000+000001253+0000009590+0000000008+I20000000000+0000009590+Z
137331001137331162-087909     137331006001492879093SS GUN METAL TWISTED NK0000001000+00004607+00000+0001T   00004607+0000001054          1500 AY3160               2 Z
137331002137331162-093199     137331006001492931999#TAG PEARL CRYSTAL SET 0000001000+00003738+00000+0001T   00003738+0000001054          1500 AY3160               2 Z
137332000137332               137332               170213SK     1500+00000+SK0000004561+0000004561+000000000+000000685+0000005240+0000000006+I20000000000+0000005240+Z
137332001137332047-000504-H   137332006001023589958PLUG EURODAPTOR 2PIN HH0000001000+00001738+00000+0001T   00001738+0000001102          1500 AY3880               2 Z
137332002137332206-000580     137332006003000633586DOOR STOPPER STOP 12CM 0000001000+00002346+00000+0001T   00002346+0000001102          1500 AY3321               2 Z
137332003137332080-000133     137332006003000535613CARD&ENV MINI ASTD DSGN0000001000+00000477+00000+0001T   00000477+0000001102          1500 AY3112               2 Z
137333000137333               137333               170213SK     1500+00000+SK0000015165+0000015165+000000000+000002279+0000017440+0000000004+I20000000000+0000017440+Z
137333001137333077-000245     137333006001023759214GIFT-RIBBON METALLICx2 0000001000+00001303+00000+0001T   00001303+0000001115          1500 AY3112               2 Z
137333002137333103-000060     137333006001023795489BAMBOO BASKET RECT     0000001000+00002781+00000+0001T   00002781+0000001115          1500 AY3300               2 Z
137333003137333077-000151     137333006008766114676GIFT-WRAP C/PHANE ASSTD0000002000+00000955+00000+0001T   00000955+0000001115          1500 AY3112               2 Z
137333004137333080-000133     137333006003000535613CARD&ENV MINI ASTD DSGN0000001000+00000477+00000+0001T   00000477+0000001115          1500 AY3112               2 Z
137333005137333001-091415     137333006003000329113W/GLS OCC. LOVE 2PC 2800000001000+00008694+00000+0001T   00009650+0006481115          1500 AY3515               2 Z
137334000137334               137334               170213SK     1500+00000+SK0000018427+0000018427+000000000+000002766+0000021190+0000000003+I20000000000+0000021190+Z
137334001137334267-000906     137334006003000636334PUZZLE JIGSAW PCS      0000001000+00007390+00000+0001T   00007390+0000001122          1500 AY3755               2 Z
137334002137334567-011496     137334006003000664177BK COLOURING BY NUMBERS0000001000+00002781+00000+0001T   00002781+0000001122          1500 AY3757               2 Z
137334003137334562-059811     137334006003000158164EDU MAGNETIC NUMBERS   0000001000+00001912+00000+0001T   00001912+0000001122          1500 AY3755               2 Z
137334004137334562-058912     137334006001023705921NUMBERS+MAGNETIC-BOARD 0000002000+00001912+00000+0001T   00001912+0000001122          1500 AY3755               2 Z
137334005137334079-000510     137334006001023509079CRAYONS WAX 12-COLOUR  0000001000+00002520+00000+0001T   00002520+0000001122          1500 AY3130               2 Z
137335000137335               137335               170213SK     1500+00000+SK0000002867+0000002867+000000000+000000431+0000003290+0000000008+I20000000000+0000003290+Z
137335001137335002-021060     137335006001023359438TOOTHPICKS 50PC WRAP   0000001000+00001303+00000+0001T   00001303+0000001143          1500 AY3300               2 Z
137335002137335002-000802     137335006003000426515PEELER STAINLESS STEEL 0000001000+00001564+00000+0001T   00001564+0000001143          1500 AY3300               2 Z
137336000137336               137336               170213SK     1500+00000+SK0000003735+0000003735+000000000+000000562+0000004290+0000000007+I20000000000+0000004290+Z
137336001137336077-000011-C   137336006001023808523TISSUE 10xSHTS RED     0000001000+00000955+00000+0001T   00000955+0000001154          1500 AY3112               2 Z
137336002137336077-000010-C   137336006001023123879CREPE-PAPER RED        0000001000+00000868+00000+0001T   00000868+0000001154          1500 AY3112               2 Z
137336003137336077-000005-D   137336006003000414567PAPER TISSUE 50x70cm   0000001000+00001912+00000+0001T   00001912+0000001154          1500 AY3112               2 Z
137337000137337               137337               170213SK     1500+00000+SK0000004298+0000004298+000000000+000000647+0000004940+0000000005+I20000000000+0000004940+Z
137337001137337903-000155     137337006009803374435SWT LOLLY I LUV U HEART0000003000+00000564+00000+0001T   00000564+0000001155          1500 AY3150               2 Z
137337002137337903-000194     137337006009826020616SWT CHOC RP LOLLY 25G  0000002000+00001303+00000+0001T   00001390+0006481155          1500 AY3150               2 Z
137338000137338               137338               170213SK     1500+00000+SK0000002955+0000002955+000000000+000000444+0000003390+0000000009+I20000000000+0000003390+Z
137338001137338048-000837     137338006003000373376TORCH RUBBER 3LED SML  0000001000+00002955+00000+0001T   00002955+0000001156          1500 AY3305               2 Z
137339000137339               137339               170213SK     1500+00000+SK0000002260+0000002260+000000000+000000339+0000002590+0000000009+I20000000000+0000002590+Z
137339001137339007-000095     137339006003000530434ENVELOPES WHITE 20PK C60000001000+00002260+00000+0001T   00002260+0000001210          1500 AY3130               2 Z
137340000137340               137340               170213SK     1500+00000+SK0000004173+0000004173+000000000+000000626+0000004790+0000000009+I20000000000+0000004790+Z
137340001137340082-000386     137340006001023718211SPEC-CASE ZIP-OPENING  0000001000+00004173+00000+0001T   00004173+0000001423          1500 AY3160               2 Z
137341000137341               137341               170213SK     1500+00000+SK0000004867+0000004867+000000000+000000731+0000005590+0000000008+I20000000000+0000005590+Z
137341001137341018-000136     137341006001023659026MUG OCC LOVE W/PLUSH   0000001000+00003477+00000+0001T   00003738+0006481430          1500 AY3515               2 Z
137341002137341304-001204     137341006001023737984FLOWER OCC. TEDDY/ROSES0000001000+00001390+00000+0001T   00001564+0006481430          1500 AY3510               2 Z
137342000137342               137342               170213SK     1500+00000+SK0000155995+0000155995+000000000+000023436+0000179431+0000000000+I40000179431+0000000000+Z
137342001137342079-001108     137342006003000082650ART+CRAFT SET ART ASSTD0000001000+00002346+00000+0001T   00002346+0000001445          1500 AY3130               2 Z
137342002137342079-011107     137342006001023537317ART+CRAFT SET          0000001000+00002433+00000+0001T   00002433+0000001445          1500 AY3130               2 Z
137342003137342079-014004     137342006003000080045ART+CRAFT JEWELRY ASSTD0000001000+00003738+00000+0001T   00003738+0000001445          1500 AY3130               2 Z
137342004137342079-013106     137342006003000081998ART+CRAFT PIPE-CLEANERS0000001000+00003129+00000+0001T   00003129+0000001445          1500 AY3130               2 Z
137342005137342079-011548     137342006003000647613COLOUR MY BAG ASSTD    0000001000+00003738+00000+0001T   00003738+0000001445          1500 AY3130               2 Z
137342006137342267-000903     137342006003000636013PUZZLE WOOD JIGSAW 3PGS0000001000+00005564+00000+0001T   00005564+0000001445          1500 AY3755               2 Z
137342007137342469-000804     137342006003000651771BUILDING BLOCKS ROBOTS 0000002000+00001651+00000+0001T   00001651+0000001445          1500 AY3755               2 Z
137342008137342469-000802     137342006003000652563BUILDING BLOCKS 14PC   0000001000+00002781+00000+0001T   00002781+0000001445          1500 AY3755               2 Z
137342009137342469-000012     137342006003000303335BUILDING BLOCKS RACERS 0000001000+00002781+00000+0001T   00002781+0000001445          1500 AY3755               2 Z
137342010137342562-000810     137342006003000158867EDU PEG BOARD ART SETS 0000001000+00004607+00000+0001T   00004607+0000001445          1500 AY3755               2 Z
137342011137342562-000808     137342006003000651573EDU PEG BOARD SML      0000001000+00002781+00000+0001T   00002781+0000001445          1500 AY3755               2 Z
137342012137342266-003012     137342006001023786128BOYS P/SET ARCHERY 4pc 0000001000+00002781+00000+0001T   00002781+0000001445          1500 AY3710               2 Z
137342013137342365-000001     137342006003000395262PLAY SET DOCTORS SET   0000001000+00001912+00000+0001T   00001912+0000001445          1500 AY3725               2 Z
137342014137342365-005267     137342006001023584366P/SET KITCHEN BAKING PL0000001000+00003738+00000+0001T   00003738+0000001445          1500 AY3725               2 Z
137342015137342261-003901     137342006001023707451GUN SET PL POLICE+ACCES0000001000+00004607+00000+0001T   00004607+0000001445          1500 AY3710               2 Z
137342016137342266-008040     137342006001023787002FIGURINE 6PC & ACCESS. 0000001000+00004607+00000+0001T   00004607+0000001445          1500 AY3710               2 Z
137342017137342266-000570     137342006001023830944FIGURINE KNIGHT & HORSE0000001000+00004607+00000+0001T   00004607+0000001445          1500 AY3710               2 Z
137342018137342266-000508     137342006001023837172FIG ROBOT SET OF 6 8cm 0000001000+00004607+00000+0001T   00004607+0000001445          1500 AY3710               2 Z
137342019137342263-000506     137342006001023790231CAR SET 3PK CONSTRUCT  0000001000+00003738+00000+0001T   00003738+0000001445          1500 AY3710               2 Z
137342020137342261-000950     137342006001023547828GUN SPACE W/6 FOAM     0000001000+00002781+00000+0001T   00002781+0000001445          1500 AY3710               2 Z
137342021137342083-000058     137342006003000400331LIGHTER JET CIGAR REFIL0000001000+00002781+00000+0001T   00002781+0000001445          1500 AY3315               2 Z
137342022137342464-000238     137342006001023644039GAME SNAKES+LADDERS    0000001000+00001390+00000+0001T   00001390+0000001445          1500 AY3785               2 Z
137342023137342464-008103     137342006001023455581GAME CHECKERS          0000001000+00002781+00000+0001T   00002781+0000001445          1500 AY3785               2 Z
137342024137342464-000253     137342006001023341402GAME LUDO       POLYBAG0000001000+00001390+00000+0001T   00001390+0000001445          1500 AY3785               2 Z
137342025137342464-000119     137342006003000224883PLAYING CARDS GAMES    0000001000+00001912+00000+0001T   00001912+0000001445          1500 AY3785               2 Z
137342026137342464-000110     137342006001023868824PLAYING-CARDS JUMBO    0000001000+00002781+00000+0001T   00002781+0000001445          1500 AY3785               2 Z
137342027137342466-000054     137342006001023831552BALLS HI-BOUNCE 3CM    0000001000+00002781+00000+0001T   00002781+0000001445          1500 AY3785               2 Z
137342028137342466-000056     137342006001023839053BALLS 35mm   SET-OF-3  0000001000+00003477+00000+0001T   00003477+0000001445          1500 AY3785               2 Z
137342029137342071-008222     137342006003000418459P/BAG CANVAS ASSTD COL 0000001000+00003129+00000+0001T   00003129+0000001445          1500 AY3130               2 Z
137342030137342071-001012     137342006001023474445MARKERS BLACK ROUND    0000005000+00000955+00000+0001T   00000955+0000001445          1500 AY3130               2 Z
137342031137342071-002999-A   137342006003000611577PEN STICKBALL 10PCE ASS0000001000+00001912+00000+0001T   00001912+0000001445          1500 AY3130               2 Z
137342032137342071-003012     137342006001023802996PEN CLICK 10PK BLUE    0000001000+00001912+00000+0001T   00001912+0000001445          1500 AY3130               2 Z
137342033137342071-001012     137342006001023474445MARKERS BLACK ROUND    0000003000+00000955+00000+0001T   00000955+0000001445          1500 AY3130               2 Z
137342034137342071-000009     137342006003000098194STATIONERY SET 11 PIECE0000001000+00002781+00000+0001T   00002781+0000001445          1500 AY3130               2 Z
137342035137342036-000151     137342006001023810588COATHANGERS    PACK-10 0000001000+00002955+00000+0001T   00002955+0000001445          1500 AY3212               2 Z
137342036137342466-000061     137342006003000611188BALL WATER 15CM ASSTD  0000002000+00002781+00000+0001T   00002781+0000001445          1500 AY3785               2 Z
137342037137342077-000318     137342006001023609755GIFT-BAG 18X23CM E/D AN0000002000+00001303+00000+0001T   00001303+0000001445          1500 AY3112               2 Z
137342038137342077-000302     137342008010410010195GIFT-BAG 18X23CM E/D   0000001000+00000955+00000+0001T   00000955+0000001445          1500 AY3112               2 Z
137342039137342077-000399     137342006003000139514GIFT BAG 18X23CM E/DAY 0000001000+00001564+00000+0001T   00001564+0000001445          1500 AY3112               2 Z
137342040137342077-000472     137342006003000330133G-BAG DESGNR LRG 25X32 0000003000+00001912+00000+0001T   00001912+0000001445          1500 AY3112               2 Z
137342041137342077-000323     137342006001023677563G/BAG 25X32CM E/DAY FLO0000002000+00001651+00000+0001T   00001651+0000001445          1500 AY3112               2 Z
137342042137342077-000308     137342006001023595812GIFT-BAG 33X45CM E/DAY 0000001000+00001912+00000+0001T   00001912+0000001445          1500 AY3112               2 Z
137342043137342077-000520     137342006001023908254GIFT-BAG 25X32CM       0000002000+00001912+00000+0001T   00001912+0000001445          1500 AY3112               2 Z
137342044137342077-000304     137342006001023483232GIFT-BAG 25X32CM E/DAY 0000001000+00001564+00000+0001T   00001564+0000001445          1500 AY3112               2 Z
137342045137342077-000323     137342006001023677563G/BAG 25X32CM E/DAY FLO0000001000+00001651+00000+0001T   00001651+0000001445          1500 AY3112               2 Z
137342046137342133-000045     137342006003000459650POTHOLDER SET 3PC      0000001000+00005999+00000+0001T   00005999+0000001445          1500 AY3212               2 Z
137342047137342076-000017     137342006001811010022TWINE COTTON 50g-BALL  0000004000+00000955+00000+0001T   00000955+0000001445          1500 AY3810               2 Z
137342048137342206-000150     137342006003000628667SLICER CUCUMBER        0000001000+00002260+00000+0001T   00002260+0000001445          1500 AY3321               2 Z
137342049137342206-000120     137342006003000628308PEELER CARROT SHARPENER0000001000+00001912+00000+0001T   00001912+0000001445          1500 AY3321               2 Z
137342050137342016-006505     137342006001023617576S/JAR GLS MINI CLIP    0000002000+00001564+00000+0001T   00001564+0000001445          1500 AY3300               2 Z
137343000137343               137343               170213SK     1500+00000+SK0000023820+0000023820+000000000+000003575+0000027395+0000000000+I40000027395+0000000000+Z
137343001137343024-000140     137343006001023902429N/STICK S/FORM 25X6CM  0000001000+00013912+00000+0001T   00013912+0000001513          1500 AY3300               2 Z
137343002137343024-000165-C   137343006003000674312N/STICK B/WARE LOAF PAN0000001000+00005477+00000+0001T   00005477+0000001513          1500 AY3300               2 Z
137343003137343104-000215     137343006003000512768STORAGE TRAY 15x15x5cm 0000001000+00000868+00000+0001T   00001390+0008271513          1500 AY3210               2 Z
137343004137343104-000205     137343006003000512645STORAGE TRAY 22x15x5cm 0000001000+00001303+00000+0001T   00001912+0008271513          1500 AY3210               2 Z
137343005137343016-006521     137343006003000461349S/JAR GLS EASY-GRIP    0000001000+00002260+00000+0001T   00002260+0000001513          1500 AY3300               2 Z
137344000137344               137344               170213SK     1500+00000+SK0000003738+0000003738+000000000+000000561+0000004290+0000000009+I20000000000+0000004290+Z
137344001137344150-000776     137344006001023839756UTILITY/TOOL-BOX PL    0000001000+00003738+00000+0001T   00003738+0000001514          1500 AY3810               2 Z
137345000137345               137345               170213SK     1500+00000+SK0000006346+0000006346+000000000+000000952+0000007290+0000000008+I20000000000+0000007290+Z
137345001137345565-000008     137345006003000548828NOVELTY B/O ROBOT FISH 0000001000+00006346+00000+0001T   00006346+0000001517          1500 AY3745               2 Z
137346000137346               137346               170213SK     1500+00000+SK0000011904+0000011904+000000000+000001787+0000013690+0000000001+I20000000000+0000013690+Z
137346001137346079-013032-G   137346006003000496389FOAM BUTTERFLIES       0000001000+00002346+00000+0001T   00002346+0000001527          1500 AY3130               2 Z
137346002137346079-013032-C   137346006003000389520POLY SHAPES            0000001000+00001651+00000+0001T   00001651+0000001527          1500 AY3130               2 Z
137346003137346079-013032-J   137346006003000542710A&C DIY COLOUR P/FLOWER0000001000+00001912+00000+0001T   00001912+0000001527          1500 AY3130               2 Z
137346004137346079-000807     137346006003000670277ART+CRAFT WOODEN STICKS0000001000+00001564+00000+0001T   00001564+0000001527          1500 AY3130               2 Z
137346005137346566-000068     137346006003000418046POP UP LOVE 2 ASSTD    0000001000+00002260+00000+0001T   00002260+0000001527          1500 AY3130               2 Z
137346006137346079-013032-C   137346006003000389520POLY SHAPES            0000001000+00001651+00000+0001T   00001651+0000001527          1500 AY3130               2 Z
137346007137346071-000012     137346006001177101006CHALK COLOUR 12PCE     0000001000+00000520+00000+0001T   00000520+0000001527          1500 AY3130               2 Z
137347000137347               137347               170213SK     1500+00000+SK0000008470+0000008470+000000000+000001274+0000009740+0000000004+I20000000000+0000009740+Z
137347001137347019-071606     137347006003000678891PEBBLES 500G 3MM WHITE.0000001000+00001564+00000+0001T   00001564+0000001528          1500 AY3510               2 Z
137347002137347027-009025     137347006003962000747DUSTPAN-SET PL         0000001000+00002781+00000+0001T   00002781+0000001528          1500 AY3212               2 Z
137347003137347071-000325     137347006009635844090RULER PLASTIC 30cm     0000001000+00000477+00000+0001T   00000477+0000001528          1500 AY3130               2 Z
137347004137347903-000007     137347000028000688776SWT LAFFY TAFFY 23G    0000003000+00001216+00000+0001T   00001216+0000001528          1500 AY3150               2 Z
137348000137348               137348               170213SK     1500+00000+SK0000000433+0000000433+000000000+000000065+0000000490+0000000008+I20000000000+0000000490+Z
137348001137348903-000183     137348006003000451043SWT LB HEART LOLLY     0000001000+00000433+00000+0001T   00000433+0000001602          1500 AY3150               2 Z
137349000137349               137349               170213SK     1500+00000+SK0000000607+0000000607+000000000+000000092+0000000690+0000000009+I20000000000+0000000690+Z
137349001137349304-001011     137349006001023806727FLWR ROSE RED W/BEAR   0000001000+00000607+00000+0001T   00000825+0006481608          1500 AY3510               2 Z
137350000137350               137350               170213SK     1500+00000+SK0000000607+0000000607+000000000+000000092+0000000690+0000000009+I20000000000+0000000690+Z
137350001137350304-001011     137350006001023806727FLWR ROSE RED W/BEAR   0000001000+00000607+00000+0001T   00000825+0006481609          1500 AY3510               2 Z
137351000137351               137351               170213SK     1500+00000+SK0000001432+0000001432+000000000+000000216+0000001648+0000000000+I40000001648+0000000000+Z
137351001137351565-000991     137351006003000529353NOVELTY STICKY ANIMALS 0000001000+00000955+00000+0001T   00000955+0000001622          1500 AY3745               2 Z
137351002137351080-000133     137351006003000535613CARD&ENV MINI ASTD DSGN0000001000+00000477+00000+0001T   00000477+0000001622          1500 AY3112               2 Z
137352000137352               137352               170213SK     1500+00000+SK0000002128+0000002128+000000000+000000320+0000002440+0000000008+I20000000000+0000002440+Z
137352001137352018-000177     137352006001023797513MUG MINI LOVE ASSTD    0000001000+00000738+00000+0001T   00000738+0000001623          1500 AY3515               2 Z
137352002137352304-001204     137352006001023737984FLOWER OCC. TEDDY/ROSES0000001000+00001390+00000+0001T   00001564+0006481623          1500 AY3510               2 Z
137353000137353               137353               170213SK     1500+00000+SK0000001390+0000001390+000000000+000000209+0000001590+0000000009+I20000000000+0000001590+Z
137353001137353304-001204     137353006001023737984FLOWER OCC. TEDDY/ROSES0000001000+00001390+00000+0001T   00001564+0006481624          1500 AY3510               2 Z
137354000137354               137354               170213SK     1500+00000+SK0000013042+0000013042+000000000+000001957+0000014990+0000000009+I20000000000+0000014990+Z
137354001137354466-000606     137354006001023752178BALL SOC 3-PLY PANEL   0000001000+00013042+00000+0001T   00013042+0000001627          1500 AY3785               2 Z
137355000137355               137355               170213SK     1500+00000+SK0000006169+0000006169+000000000+000000927+0000007090+0000000006+I20000000000+0000007090+Z
137355001137355159-000679     137355006001023588289BATH-SPONGE RND 2pk    0000001000+00002781+00000+0001T   00002781+0000001652          1500 AY3200               2 Z
137355002137355564-000025     137355006003000617104BUBBLE NOVELTY         0000001000+00001912+00000+0001T   00001912+0000001652          1500 AY3131               2 Z
137355003137355106-002110     137355006002580007312JUICE-BOTTLE JUMBO     0000001000+00000738+00000+0001T   00000738+0000001652          1500 AY3210               2 Z
137355004137355564-000012     137355006001023130075BUBBLE BOTTLE MAGIC    0000001000+00000738+00000+0001T   00000738+0000001652          1500 AY3131               2 Z
137356000137356               137356               170213SK     1500+00000+SK0000003215+0000003215+000000000+000000483+0000003690+0000000008+I20000000000+0000003690+Z
137356001137356002-000970     137356006001023770578FUNNELS 3PCE WHITE     0000001000+00001303+00000+0001T   00001303+0000001653          1500 AY3300               2 Z
137356002137356306-000024-A   137356006003000577309COTTON-WOOL-PADS 80PC  0000001000+00001912+00000+0001T   00001912+0000001653          1500 AY3200               2 Z
137357000137357               137357               170213SK     1500+00000+SK0000001912+0000001912+000000000+000000287+0000002190+0000000009+I20000000000+0000002190+Z
137357001137357007-000043     137357006009635831496DISPLAY-BOOK PL A4 20PG0000001000+00001912+00000+0001T   00001912+0000001701          1500 AY3130               2 Z
137358000137358               137358               170213SK     1500+00000+SK0000007735+0000007735+000000000+000001162+0000008890+0000000007+I20000000000+0000008890+Z
137358001137358018-000136     137358006001023659026MUG OCC LOVE W/PLUSH   0000001000+00003477+00000+0001T   00003738+0006481707          1500 AY3515               2 Z
137358002137358124-002023     137358006003000367252BISCUIT TIN HEART SHAPE0000001000+00002607+00000+0001T   00003738+0008281707          1500 AY3300               2 Z
137358003137358077-000303     137358006001023593757GIFT-BAG PAPER MED     0000001000+00001651+00000+0001T   00001651+0000001707          1500 AY3112               2 Z
137359000137359               137359               170213SK     1500+00000+SK0000008690+0000008690+000000000+000001306+0000009996+0000000000+I40000009996+0000000000+Z
137359001137359018-000129     137359006001023403353MUG OCC. LOVE V-SHAPE  0000001000+00002781+00000+0001T   00002781+0000001716          1500 AY3515               2 Z
137359002137359089-060027     137359006003000245871KEY-CHAIN HEART 6X6cm  0000001000+00003303+00000+0001T   00003303+0000001716          1500 AY3205               2 Z
137359003137359089-000099     137359006003000677566KEY CHAIN MTL SPORT AST0000001000+00000955+00000+0001T   00000955+0000001716          1500 AY3205               2 Z
137359004137359077-000303     137359006001023593757GIFT-BAG PAPER MED     0000001000+00001651+00000+0001T   00001651+0000001716          1500 AY3112               2 Z
137360000137360               137360               170213SK     1500+00000+SK0000000866+0000000866+000000000+000000130+0000000990+0000000006+I20000000000+0000000990+Z
137360001137360903-000183     137360006003000451043SWT LB HEART LOLLY     0000002000+00000433+00000+0001T   00000433+0000001721          1500 AY3150               2 Z
137361000137361               137361               170213SK     1500+00000+SK0000003738+0000003738+000000000+000000561+0000004290+0000000009+I20000000000+0000004290+Z
137361001137361018-005009     137361006001023725608MUG W/PLUSH-BEAR LOVE  0000001000+00003738+00000+0001T   00003738+0000001725          1500 AY3515               2 Z
137362000137362               137362               170213SK     1500+00000+SK0000004605+0000004605+000000000+000000692+0000005290+0000000007+I20000000000+0000005290+Z
137362001137362080-000124     137362006003000297733CARD & ENV VALENTINES  0000001000+00001564+00000+0001T   00001651+0006481738          1500 AY3112               2 Z
137362002137362304-001204     137362006001023737984FLOWER OCC. TEDDY/ROSES0000001000+00001390+00000+0001T   00001564+0006481738          1500 AY3510               2 Z
137362003137362077-000303     137362006001023593757GIFT-BAG PAPER MED     0000001000+00001651+00000+0001T   00001651+0000001738          1500 AY3112               2 Z
137363000137363               137363               170213SK     1500+00000+SK0000000738+0000000738+000000000+000000111+0000000840+0000000009+I20000000000+0000000840+Z
137363001137363306-000501     137363006003000577293T/BRUSH KIDDIES SUCKER 0000001000+00000738+00000+0001T   00000738+0000001741          1500 AY3200               2 Z
137364000137364               137364               170213SK     1500+00000+SK0000002342+0000002342+000000000+000000352+0000002690+0000000004+I20000000000+0000002690+Z
137364001137364306-000501     137364006003000577293T/BRUSH KIDDIES SUCKER 0000002000+00000738+00000+0001T   00000738+0000001744          1500 AY3200               2 Z
137364002137364903-000183     137364006003000451043SWT LB HEART LOLLY     0000002000+00000433+00000+0001T   00000433+0000001744          1500 AY3150               2 Z
A17021300                                          09215838SKSLAVE 2                       AY32IC
A17021301                                          17470312SKSLAVE 2                       AY33IC
M17021391                              CASH        SKSLAVE 2                       Z-REPORT No.   424TOTAL (Sales - Refunds)           4202.70       CASH TO BE BANKED                 2018.70       DEBIT CARDS                          0.00       CREDIT CARDS                      2184.70       Z-READING                         4202.70       AIRTIME DEBIT CARD SALES             0.00       AIRTIME CARD SALES                   0.00       OVERS/UNDERS                         0.70       AIRTIME CASH SALES                   0.00       GIFT CARDS                           0.00       GIFT CARD CASH SALES                 0.00       T O T A L  CASH PAYOUTS              0.00                                                                                                                                                                                                                                                                                                                                                      Z
M17021392                              CASH        SKABSENT            ANNA-MARIE                                                                                                                                                                    ANNUAL LEAVE                                                                                                                                                                                    DAY OFF                                                                                                                                                                                         COMMENTS          CASHIER ELTON                                                                                                                                                                                                                                                                                                                                                                Z
Y17021300                                          SK00004500365606+000039
ZSK17021320233 SLAVE 2      SALES DATA                     NEXT INVOICE NO.  137365 0424
X SK Slave 2 First invoice 137326 170213 Last invoice 137364 170213 Next invoice 137365 Total number of records 000000180 clbackup completed 20:23:09
