140311000140311               140311               170213SK     1500+00000+SK0000010431+0000010431+000000000+000001566+0000011997+           I90000000000+0000000000+Z
140311001140311018-000136     140311006001023659026MUG OCC LOVE W/PLUSH   0000001000+00003477+00000+0001T022809580000                    1500 3IC5153ICV             Z
140311002140311031-000923     140311006001023669933P/FRAME BLK W/WORDS    0000002000+00003477+00000+0001T022809580000                    1500 3IC5103ICV             Z
140312000140312               140312               170213SK     1500+00000+SK0000002781+0000002781+000000000+000000418+0000003199+           I90000000000+0000000000+Z
140312001140312104-000031     140312006003000614950BASKET PL 27x18x12cm   0000001000+00002781+00000+0001T022809590000                    1500 3IC2103ICV             Z
M17021391                              CASH        SKSLAVE 3                       Z-REPORT No.   452TOTAL (Sales - Refunds)              0.00       CASH TO BE BANKED                    0.00       DEBIT CARDS                          0.00       CREDIT CARDS                         0.00       Z-READING                            0.00       AIRTIME DEBIT CARD SALES             0.00       AIRTIME CARD SALES                   0.00       OVERS/UNDERS                         0.00       AIRTIME CASH SALES                   0.00       GIFT CARDS                           0.00       GIFT CARD CASH SALES                 0.00       T O T A L  CASH PAYOUTS              0.00                                                                                                                                                                                                                                                                                                                                                      Z
M17021392                              CASH        SKABSENT                                                                                                                                                                                          ANNUAL LEAVE                                                                                                                                                                                    DAY OFF                                                                                                                                                                                         COMMENTS                                                                                                                                                                                                                                                                                                                                                                                       Z
Y17021300                                          SK00000000000000+000000
ZSK17021320233 SLAVE 3      SALES DATA                     NEXT INVOICE NO.  140313 0452
L56104300339934-001-004       SK1702100926253ICBOOIS MARIONETT                                                                                                                                                                                                                                                                                                                                                                                                                                                                                                                                                                                                                                                                                                                                                                                                                                                                                                                                                                                      Z
L56104300339934-002-004       SK1702100926203ICBOOIS MARIONETT                                                                                                                                                                                                                                                                                                                                                                                                                                                                                                                                                                                                                                                                                                                                                                                                                                                                                                                                                                                      Z
L56104300339934-003-004       SK1702100926303ICBOOIS MARIONETT                                                                                                                                                                                                                                                                                                                                                                                                                                                                                                                                                                                                                                                                                                                                                                                                                                                                                                                                                                                      Z
L56104300339934-004-004       SK1702100925363ICBOOIS MARIONETT                                                                                                                                                                                                                                                                                                                                                                                                                                                                                                                                                                                                                                                                                                                                                                                                                                                                                                                                                                                      Z
L56220600344246-001-002       SK1702100930053ICBOOIS MARIONETT                                                                                                                                                                                                                                                                                                                                                                                                                                                                                                                                                                                                                                                                                                                                                                                                                                                                                                                                                                                      Z
L56220600344246-002-002       SK1702100930113ICBOOIS MARIONETT                                                                                                                                                                                                                                                                                                                                                                                                                                                                                                                                                                                                                                                                                                                                                                                                                                                                                                                                                                                      Z
L56708700332807-001-002       SK1702100925533ICBOOIS MARIONETT                                                                                                                                                                                                                                                                                                                                                                                                                                                                                                                                                                                                                                                                                                                                                                                                                                                                                                                                                                                      Z
L56708700332807-002-002       SK1702100925453ICBOOIS MARIONETT                                                                                                                                                                                                                                                                                                                                                                                                                                                                                                                                                                                                                                                                                                                                                                                                                                                                                                                                                                                      Z
L56739200340589-001-002       SK1702130848162ICTHERESA KAHUIKA                                                                                                                                                                                                                                                                                                                                                                                                                                                                                                                                                                                                                                                                                                                                                                                                                                                                                                                                                                                      Z
L56739200340589-002-002       SK1702130848192ICTHERESA KAHUIKA                                                                                                                                                                                                                                                                                                                                                                                                                                                                                                                                                                                                                                                                                                                                                                                                                                                                                                                                                                                      Z
L56918900346336-001-004       SK1702100928323ICBOOIS MARIONETT                                                                                                                                                                                                                                                                                                                                                                                                                                                                                                                                                                                                                                                                                                                                                                                                                                                                                                                                                                                      Z
L56918900346336-002-004       SK1702100928283ICBOOIS MARIONETT                                                                                                                                                                                                                                                                                                                                                                                                                                                                                                                                                                                                                                                                                                                                                                                                                                                                                                                                                                                      Z
L56918900346336-003-004       SK1702100928353ICBOOIS MARIONETT                                                                                                                                                                                                                                                                                                                                                                                                                                                                                                                                                                                                                                                                                                                                                                                                                                                                                                                                                                                      Z
L56918900346336-004-004       SK1702100928083ICBOOIS MARIONETT                                                                                                                                                                                                                                                                                                                                                                                                                                                                                                                                                                                                                                                                                                                                                                                                                                                                                                                                                                                      Z
L57014800339544-001-003       SK1702100929293ICBOOIS MARIONETT                                                                                                                                                                                                                                                                                                                                                                                                                                                                                                                                                                                                                                                                                                                                                                                                                                                                                                                                                                                      Z
L57014800339544-002-003       SK1702100929233ICBOOIS MARIONETT                                                                                                                                                                                                                                                                                                                                                                                                                                                                                                                                                                                                                                                                                                                                                                                                                                                                                                                                                                                      Z
L57014800339544-003-003       SK1702100929183ICBOOIS MARIONETT                                                                                                                                                                                                                                                                                                                                                                                                                                                                                                                                                                                                                                                                                                                                                                                                                                                                                                                                                                                      Z
L57101800342704-001-004       SK1702130847472ICTHERESA KAHUIKA                                                                                                                                                                                                                                                                                                                                                                                                                                                                                                                                                                                                                                                                                                                                                                                                                                                                                                                                                                                      Z
L57101800342704-003-004       SK1702130847522ICTHERESA KAHUIKA                                                                                                                                                                                                                                                                                                                                                                                                                                                                                                                                                                                                                                                                                                                                                                                                                                                                                                                                                                                      Z
L57101800342704-004-004       SK1702130847442ICTHERESA KAHUIKA                                                                                                                                                                                                                                                                                                                                                                                                                                                                                                                                                                                                                                                                                                                                                                                                                                                                                                                                                                                      Z
L57110300346760-001-004       SK1702131125482ICTHERESA KAHUIKA                                                                                                                                                                                                                                                                                                                                                                                                                                                                                                                                                                                                                                                                                                                                                                                                                                                                                                                                                                                      Z
L57110300346760-002-004       SK1702131125402ICTHERESA KAHUIKA                                                                                                                                                                                                                                                                                                                                                                                                                                                                                                                                                                                                                                                                                                                                                                                                                                                                                                                                                                                      Z
L57110300346760-003-004       SK1702131126182ICTHERESA KAHUIKA                                                                                                                                                                                                                                                                                                                                                                                                                                                                                                                                                                                                                                                                                                                                                                                                                                                                                                                                                                                      Z
L57110300346760-004-004       SK1702131125442ICTHERESA KAHUIKA                                                                                                                                                                                                                                                                                                                                                                                                                                                                                                                                                                                                                                                                                                                                                                                                                                                                                                                                                                                      Z
L57730100353710-001-001       SK1702131126432ICTHERESA KAHUIKA                                                                                                                                                                                                                                                                                                                                                                                                                                                                                                                                                                                                                                                                                                                                                                                                                                                                                                                                                                                      Z
L57832300354887-001-007       SK1702131111312ICTHERESA KAHUIKA                                                                                                                                                                                                                                                                                                                                                                                                                                                                                                                                                                                                                                                                                                                                                                                                                                                                                                                                                                                      Z
L57832300354887-002-007       SK1702131112382ICTHERESA KAHUIKA                                                                                                                                                                                                                                                                                                                                                                                                                                                                                                                                                                                                                                                                                                                                                                                                                                                                                                                                                                                      Z
L57832300354887-003-007       SK1702131112122ICTHERESA KAHUIKA                                                                                                                                                                                                                                                                                                                                                                                                                                                                                                                                                                                                                                                                                                                                                                                                                                                                                                                                                                                      Z
L57832300354887-004-007       SK1702131111382ICTHERESA KAHUIKA                                                                                                                                                                                                                                                                                                                                                                                                                                                                                                                                                                                                                                                                                                                                                                                                                                                                                                                                                                                      Z
L57832300354887-005-007       SK1702131111412ICTHERESA KAHUIKA                                                                                                                                                                                                                                                                                                                                                                                                                                                                                                                                                                                                                                                                                                                                                                                                                                                                                                                                                                                      Z
L57832300354887-006-007       SK1702131112162ICTHERESA KAHUIKA                                                                                                                                                                                                                                                                                                                                                                                                                                                                                                                                                                                                                                                                                                                                                                                                                                                                                                                                                                                      Z
L57832300354887-007-007       SK1702131112092ICTHERESA KAHUIKA                                                                                                                                                                                                                                                                                                                                                                                                                                                                                                                                                                                                                                                                                                                                                                                                                                                                                                                                                                                      Z
L57832400353661-001-003       SK1702131124462ICTHERESA KAHUIKA                                                                                                                                                                                                                                                                                                                                                                                                                                                                                                                                                                                                                                                                                                                                                                                                                                                                                                                                                                                      Z
L57832400353661-002-003       SK1702131124422ICTHERESA KAHUIKA                                                                                                                                                                                                                                                                                                                                                                                                                                                                                                                                                                                                                                                                                                                                                                                                                                                                                                                                                                                      Z
L57832400353661-003-003       SK1702131125032ICTHERESA KAHUIKA                                                                                                                                                                                                                                                                                                                                                                                                                                                                                                                                                                                                                                                                                                                                                                                                                                                                                                                                                                                      Z
L57882900352727-001-001       SK1702131127052ICTHERESA KAHUIKA                                                                                                                                                                                                                                                                                                                                                                                                                                                                                                                                                                                                                                                                                                                                                                                                                                                                                                                                                                                      Z
V56104300000727-001-001       SK1702131127052ICTHER               0000000000000001702100000003ICSLAVE 3     170213155559339934N              04
V56220600000727-001-001       SK1702131127052ICTHER               0000000000000001702100000003ICSLAVE 3     170213155059344246N              02
V56708700000727-001-001       SK1702131127052ICTHER               0000000000000001702100000003ICSLAVE 3     170213155649332807Y              02
V56739200000727-001-001       SK1702131127052ICTHER               0000000000000001702130000003ICSLAVE 3     170213160231340589Y              02
V56918900000727-001-001       SK1702131127052ICTHER               0000000000000001702100000003ICSLAVE 3     170213155220346336N              04
V57014800000727-001-001       SK1702131127052ICTHER               0000000000000001702100000003ICSLAVE 3     170213155727339544N              03
V57101800000727-001-001       SK1702131127052ICTHER               000000000000000170213000000   SLAVE 3     000000000000342704               04
V57110300000727-001-001       SK1702131127052ICTHER               000000000000000170213000000   SLAVE 3     000000000000346760               04
V57730100000727-001-001       SK1702131127052ICTHER               000000000000000170213000000   SLAVE 3     000000000000353710               01
V57832300000727-001-001       SK1702131127052ICTHER               000000000000000170213000000   SLAVE 3     000000000000354887               07
V57832400000727-001-001       SK1702131127052ICTHER               000000000000000170213000000   SLAVE 3     000000000000353661               03
V57882900000727-001-001       SK1702131127052ICTHER               000000000000000170213000000   SLAVE 3     000000000000352727               01
X SK Slave 3 First invoice 140311 170213 Last invoice 140312 170213 Next invoice 140313 Total number of records 000000057 clbackup completed 20:23:11
