130614000130614               130614               170213SL     1500+00000+SL0000001912+0000001912+000000000+000000287+0000002190+0000000009+I20000000000+0000002190+Z
130614001130614565-000043     130614006003000109562NOVELTY BALL FUNNY FACE0000001000+00001912+00000+0001T   00001912+0000000940          1500 DH5745               2 Z
130615000130615               130615               170213SL     1500+00000+SL0000018694+0000018694+000000000+000002805+0000021490+0000000009+I20000000000+0000021490+Z
130615001130615264-015055     130615000090159150558ALL-STARS ELITE TRNS   0000001000+00018694+00000+0001T   00018694+0000000941          1500 DH5710               2 Z
130616000130616               130616               170213SL     1500+00000+SL0000019997+0000019997+000000000+000003001+0000022990+0000000008+I20000000000+0000022990+Z
130616001130616002-010403     130616006001023203854JAFFLE-IRON ALUM. H/HOU0000001000+00018694+00000+0001T   00018694+0000000955          1500 DH5300               2 Z
130616002130616206-000630     130616006003000631919SPECTACLE CLEANING BRUS0000001000+00001303+00000+0001T   00001303+0000000955          1500 DH5321               2 Z
130617000130617               130617               170213SL     1500+00000+SL0000001390+0000001390+000000000+000000209+0000001590+0000000009+I20000000000+0000001590+Z
130617001130617251-000001     130617006001023487681TAPE DBL-SIDE 18x1000mm0000001000+00001390+00000+0001T   00001390+0000001008          1500 DH5810               2 Z
130618000130618               130618               170213SL     1500+00000+SL0000005910+0000005910+000000000+000000888+0000006790+0000000008+I20000000000+0000006790+Z
130618001130618072-020311     130618006003000494132PET DOG TOY VINYL BALL 0000001000+00003129+00000+0001T   00003129+0000001053          1500 DH5870               2 Z
130618002130618072-020312     130618006003000605330PET TOY PUP STARTER PCK0000001000+00002781+00000+0001T   00002781+0000001053          1500 DH5870               2 Z
130619000130619               130619               170213SL     1500+00000+SL0000005643+0000005643+000000000+000000850+0000006493+0000000000+I40000006493+0000000000+Z
130619001130619077-000011-R   130619006001023808462P/TISSUE DARK 10-SHEETS0000001000+00000955+00000+0001T   00000955+0000001126          1500 DH5112               2 Z
130619002130619077-000011-F   130619006001023808431TISSUE-WRAP BLUE/LILAC 0000001000+00000955+00000+0001T   00000955+0000001126          1500 DH5112               2 Z
130619003130619077-000011-L   130619006001023808585P/TISSUE BRIGHT 10SHEET0000001000+00000955+00000+0001T   00000955+0000001126          1500 DH5112               2 Z
130619004130619077-000321     130619006001023677501GIFT-BAG 11X14CM E/D FL0000002000+00000651+00000+0001T   00000651+0000001126          1500 DH5112               2 Z
130619005130619007-000537     130619000651728791017NOTE-PAD RND SMILE-FACE0000002000+00000738+00000+0001T   00000738+0000001126          1500 DH5130               2 Z
130620000130620               130620               170213SL     1500+00000+SL0000003303+0000003303+000000000+000000496+0000003790+0000000009+I20000000000+0000003790+Z
130620001130620159-003615     130620006001246045460TOILET-BRUSH W/STAND   0000001000+00003303+00000+0001T   00003303+0000001132          1500 DH5200               2 Z
130621000130621               130621               170213SL     1500+00000+SL0000005564+0000005564+000000000+000000835+0000006390+0000000009+I20000000000+0000006390+Z
130621001130621158-003092     130621006003000621644PAPER TOWEL HOLDER CHR 0000001000+00005564+00000+0001T   00005564+0000001147          1500 DH5300               2 Z
130622000130622               130622               170213SL     1500+00000+SL0000006953+0000006953+000000000+000001044+0000007997+0000000000+I40000007997+0000000000+Z
130622001130622206-000150     130622006003000628667SLICER CUCUMBER        0000001000+00002260+00000+0001T   00002260+0000001152          1500 DH5321               2 Z
130622002130622206-000360     130622006003000631193CITRUS SPRAYER 3PC     0000001000+00001912+00000+0001T   00001912+0000001152          1500 DH5321               2 Z
130622003130622206-000620     130622006003000631797BACK SCRATCHER EXTEND  0000001000+00002781+00000+0001T   00002781+0000001152          1500 DH5321               2 Z
130623000130623               130623               170213SL     1500+00000+SL0000006346+0000006346+000000000+000000952+0000007290+0000000008+I20000000000+0000007290+Z
130623001130623567-011423     130623006003000641345BK COLOURING THERAPY A50000001000+00006346+00000+0001T   00006346+0000001155          1500 DH5757               2 Z
130624000130624               130624               170213SL     1500+00000+SL0000003303+0000003303+000000000+000000496+0000003790+0000000009+I20000000000+0000003790+Z
130624001130624079-000358     130624006003000591046ART+CRAFT FELT-TIP PENS0000001000+00003303+00000+0001T   00003303+0000001156          1500 DH5130               2 Z
130625000130625               130625               170213SL     1500+00000+SL0000000868+0000000868+000000000+000000131+0000000990+0000000009+I20000000000+0000000990+Z
130625001130625036-000606     130625006003000322213WASHING PEGS PACK 20   0000001000+00000868+00000+0001T   00001390+0008301157          1500 DH5212               2 Z
130626000130626               130626               170213SL     1500+00000+SL0000003738+0000003738+000000000+000000561+0000004290+0000000009+I20000000000+0000004290+Z
130626001130626071-001010     130626006001023893314MARKERS-METALIC 3PCE   0000001000+00003738+00000+0001T   00003738+0000001159          1500 DH5130               2 Z
130627000130627               130627               170213SL     1500+00000+SL0000008345+0000008345+000000000+000001253+0000009590+0000000008+I20000000000+0000009590+Z
130627001130627035-000013     130627006001023450180UMBRELLA KIDDIES 34cm  0000001000+00005564+00000+0001T   00005564+0000001200          1500 DH5205               2 Z
130627002130627159-000038     130627006003000393954HOOKS HANGER S/S 2PCE  0000001000+00002781+00000+0001T   00002781+0000001200          1500 DH5200               2 Z
130628000130628               130628               170213SL     1500+00000+SL0000015216+0000015216+000000000+000002283+0000017490+0000000009+I20000000000+0000017490+Z
130628001130628562-006269     130628006001023658647BOARD EASY-WRITER+PEN  0000001000+00015216+00000+0001T   00015216+0000001204          1500 DH5755               2 Z
130629000130629               130629               170213SL     1500+00000+SL0000004867+0000004867+000000000+000000731+0000005590+0000000008+I20000000000+0000005590+Z
130629001130629018-000136     130629006001023659026MUG OCC LOVE W/PLUSH   0000001000+00003477+00000+0001T   00003738+0006481215          1500 DH5515               2 Z
130629002130629077-000310     130629006001023608635GIFT-BAG 18X23CM GLOSS 0000001000+00001390+00000+0001T   00001390+0000001215          1500 DH5112               2 Z
130630000130630               130630               170213SL     1500+00000+SL0000001303+0000001303+000000000+000000196+0000001490+0000000009+I20000000000+0000001490+Z
130630001130630903-000517     130630006001704012768SWT STRAWS FIZZY CHERRY0000001000+00001303+00000+0001T   00001303+0000001215          1500 DH5150               2 Z
130631000130631               130631               170213SL     1500+00000+SL0000003824+0000003824+000000000+000000574+0000004390+0000000008+I20000000000+0000004390+Z
130631001130631200-003024     130631006001023657299REFUSE BAGS 20PCE BLACK0000001000+00001912+00000+0001T   00001912+0000001216          1500 DH5214               2 Z
130631002130631007-000598     130631006009608642333MARLIN FILE DIVIDER 10 0000001000+00001912+00000+0001T   00001912+0000001216          1500 DH5130               2 Z
130632000130632               130632               170213SL     1500+00000+SL0000000607+0000000607+000000000+000000092+0000000690+0000000009+I20000000000+0000000690+Z
130632001130632304-001011     130632006001023806727FLWR ROSE RED W/BEAR   0000001000+00000607+00000+0001T   00000825+0006481217          1500 DH5510               2 Z
130633000130633               130633               170213SL     1500+00000+SL0000009995+0000009995+000000000+000001501+0000011490+0000000006+I20000000000+0000011490+Z
130633001130633251-000001     130633006001023487681TAPE DBL-SIDE 18x1000mm0000001000+00001390+00000+0001T   00001390+0000001219          1500 DH5810               2 Z
130633002130633133-000083     130633006003000450510DISH DRAINING MAT      0000001000+00005477+00000+0001T   00005477+0000001219          1500 DH5212               2 Z
130633003130633051-002401     130633006001023523570TRIGGER-SPRAYER   300ml0000002000+00001564+00000+0001T   00001564+0000001219          1500 DH5820               2 Z
130634000130634               130634               170213SL     1500+00000+SL0000006344+0000006344+000000000+000000953+0000007290+0000000007+I20000000000+0000007290+Z
130634001130634089-000010     130634006003000106523KEY CHAIN REFLECTOR 2PC0000001000+00003738+00000+0001T   00003738+0000001221          1500 DH5205               2 Z
130634002130634903-000519     130634006001704012805SWT MS LIQ-O-GHETTI    0000002000+00001303+00000+0001T   00001303+0000001221          1500 DH5150               2 Z
130635000130635               130635               170213SL     1500+00000+SL0000008692+0000008692+000000000+000001304+0000009990+0000000006+I20000000000+0000009990+Z
130635001130635301-085000     130635006003000674299 ORN OCC. LOVE HEARTS  0000001000+00002346+00000+0001T   00002346+0000001222          1500 DH5505               2 Z
130635002130635566-000316     130635006003000521821STICKERS MIRRORS HOME  0000001000+00006346+00000+0001T   00006346+0000001222          1500 DH5130               2 Z
130636000130636               130636               170213SL     1500+00000+SL0000009560+0000009560+000000000+000001435+0000010990+0000000005+I20000000000+0000010990+Z
130636001130636903-000619     130636006003000672455SWT LOLLY STR/BRRY 140G0000005000+00001912+00000+0001T   00001912+0000001225          1500 DH5150               2 Z
130637000130637               130637               170213SL     1500+00000+SL0000002781+0000002781+000000000+000000418+0000003190+0000000009+I20000000000+0000003190+Z
130637001130637082-000388     130637006001023774385SPECT-CASE SPRING-CLOSE0000001000+00002781+00000+0001T   00002781+0000001239          1500 DH5160               2 Z
130638000130638               130638               170213SL     1500+00000+SL0000001651+0000001651+000000000+000000248+0000001890+0000000009+I20000000000+0000001890+Z
130638001130638077-000315     130638006003000181186GIFT-BAG 20x28cm MATT  0000001000+00001651+00000+0001T   00001651+0000001255          1500 DH5112               2 Z
130639000130639               130639               170213SL     1500+00000+SL0000003824+0000003824+000000000+000000574+0000004398+0000000000+I40000004398+0000000000+Z
130639001130639565-000084     130639006003000643431NOVELTY CATAPULT B/FLY 0000002000+00001912+00000+0001T   00001912+0000001303          1500 DH5745               2 Z
130640000130640               130640               170213SL     1500+00000+SL0000000607+0000000607+000000000+000000092+0000000690+0000000009+I20000000000+0000000690+Z
130640001130640304-001011     130640006001023806727FLWR ROSE RED W/BEAR   0000001000+00000607+00000+0001T   00000825+0006481304          1500 DH5510               2 Z
130641000130641               130641               170213SL     1500+00000+SL0000046114+0000046114+000000000+000006924+0000053038+0000000000+I40000053038+0000000000+Z
130641001130641079-001001     130641006003000448593CANVAS A3 WOOD MOUNTED 0000001000+00004607+00000+0001T   00004607+0000001310          1500 DH5130               2 Z
130641002130641206-000480     130641006003000620227MOP SHOES CHENILLE 2PC 0000001000+00008086+00000+0001T   00008086+0000001310          1500 DH5321               2 Z
130641003130641007-010192     130641006009635830536BOOK H/COVER A5 192PAGE0000001000+00001216+00000+0001T   00001216+0000001310          1500 DH5130               2 Z
130641004130641024-000003     130641006001023462206S/BURNER COVERS ASSTD  0000001000+00004607+00000+0001T   00004607+0000001310          1500 DH5300               2 Z
130641005130641486-000001     130641006001023507969ALARM-CLOCK SQ ASS     0000001000+00002781+00000+0001T   00002781+0000001310          1500 DH5510               2 Z
130641006130641264-000918     130641000090159150268MAISTO MDC ATV         0000001000+00005564+00000+0001T   00005564+0000001310          1500 DH5710               2 Z
130641007130641200-003026     130641006003000276448REFUSE BAGS 10PCE GREEN0000001000+00001912+00000+0001T   00001912+0000001310          1500 DH5214               2 Z
130641008130641200-000065     130641006001023323675DRINKING-STRAWS 38PCE  0000001000+00000651+00000+0001T   00000651+0000001310          1500 DH5214               2 Z
130641009130641264-000918     130641000090159150268MAISTO MDC ATV         0000001000+00005564+00000+0001T   00005564+0000001310          1500 DH5710               2 Z
130641010130641565-004013     130641006003000574933NOVELTY CAMERA 3 ASTD  0000002000+00002781+00000+0001T   00002781+0000001310          1500 DH5745               2 Z
130641011130641264-000918     130641000090159150268MAISTO MDC ATV         0000001000+00005564+00000+0001T   00005564+0000001310          1500 DH5710               2 Z
130642000130642               130642               170213SL     1500+00000+SL0000004607+0000004607+000000000+000000692+0000005290+0000000009+I20000000000+0000005290+Z
130642001130642001-000175     130642006001023788108B/MUG GLS LOVE 380ML   0000001000+00004607+00000+0001T   00004607+0000001314          1500 DH5515               2 Z
130643000130643               130643               170213SL     1500+00000+SL0000001303+0000001303+000000000+000000196+0000001490+0000000009+I20000000000+0000001490+Z
130643001130643903-000517     130643006001704012768SWT STRAWS FIZZY CHERRY0000001000+00001303+00000+0001T   00001303+0000001315          1500 DH5150               2 Z
130644000130644               130644               170213SL     1500+00000+SL0000003345+0000003345+000000000+000000503+0000003848+0000000000+I40000003848+0000000000+Z
130644001130644403-000509     130644006001023699664MONEY-BANK PL. PIGGY   0000001000+00002781+00000+0001T   00002781+0000001316          1500 DH5510               2 Z
130644002130644002-021040     130644006001023812216PARTY-PICKS 100PCE     0000001000+00000564+00000+0001T   00000564+0000001316          1500 DH5300               2 Z
130645000130645               130645               170213SL     1500+00000+SL0000011303+0000011303+000000000+000001696+0000012999+0000000000+I40000012999+0000000000+Z
130645001130645368-000637     130645006001023874092PLUSH BEAR SLEEPING LOV0000001000+00011303+00000+0001T   00012607+0006481320          1500 DH5745               2 Z
130646000130646               130646               170213SL     1500+00000+SL0000002781+0000002781+000000000+000000418+0000003190+0000000009+I20000000000+0000003190+Z
130646001130646006-000158     130646006003000653911BALLOONS 8PC HEART SHAP0000001000+00002781+00000+0001T   00002781+0000001330          1500 DH5131               2 Z
130647000130647               130647               170213SL     1500+00000+SL0000006257+0000006257+000000000+000000940+0000007190+0000000007+I20000000000+0000007190+Z
130647001130647004-071205     130647006003000073368USB 2.0 COMPUTER 4 HUB 0000001000+00003738+00000+0001T   00003738+0000001331          1500 DH5310               2 Z
130647002130647566-000070     130647006003000283798STICKERS POP UP ASSTD  0000001000+00001912+00000+0001T   00001912+0000001331          1500 DH5130               2 Z
130647003130647566-001226     130647006001023672360STICKERS 3-D POP-UP    0000001000+00000607+00000+0001T   00000651+0008261331          1500 DH5130               2 Z
130648000130648               130648               170213SL     1500+00000+SL0000031561+0000031561+000000000+000004735+0000036296+0000000000+I40000036296+0000000000+Z
130648001130648265-000216     130648006001023681423CAR B/O RACING-SET 36PC0000001000+00022173+00000+0001T   00022173+0000001335          1500 DH5710               2 Z
130648002130648046-000002     130648006001023585202BATTERIES SIZE:C   2PCE0000002000+00001912+00000+0001T   00001912+0000001335          1500 DH5312               2 Z
130648003130648560-000100     130648006001023834904DRAGON 15cm            0000001000+00005564+00000+0001T   00005564+0000001335          1500 DH5745               2 Z
130649000130649               130649               170213SL     1500+00000+SL0000002600-0000002600-000000000+000000390-0000002990-0000000000+I20000000000+0000002990-Z
130649001130649001-999906     130649000000000999906STATIONERY(PHOTOCOPIES)0000001000-00002600+00000+0001T   00000000+0000001343          1500 DH59061IC            2 Z
130650000130650               130650               170213SL     1500+00000+SL0000003738+0000003738+000000000+000000561+0000004290+0000000009+I20000000000+0000004290+Z
130650001130650018-005009     130650006001023725608MUG W/PLUSH-BEAR LOVE  0000001000+00003738+00000+0001T   00003738+0000001343          1500 DH5515               2 Z
130651000130651               130651               170213SL     1500+00000+SL0000002430+0000002430+000000000+000000367+0000002790+0000000007+I20000000000+0000002790+Z
130651001130651362-004001     130651000613153010385PRINCESS ASSTD TRINKETS0000001000+00000694+00000+0001T   00000955+0008291349          1500 DH5160               2 Z
130651002130651036-000606     130651006003000322213WASHING PEGS PACK 20   0000002000+00000868+00000+0001T   00001390+0008301349          1500 DH5212               2 Z
130652000130652               130652               170213SL     1500+00000+SL0000002730+0000002730+000000000+000000413+0000003140+0000000003+I20000000000+0000003140+Z
130652001130652903-000159     130652006003000417629SWT LB SMALL DUMMIE    0000007000+00000390+00000+0001T   00000390+0000001350          1500 DH5150               2 Z
130653000130653               130653               170213SL     1500+00000+SL0000003128+0000003128+000000000+000000470+0000003590+0000000008+I20000000000+0000003590+Z
130653001130653079-000512     130653006001023635853CRAYONS WAX 12-COLOUR  0000001000+00001564+00000+0001T   00001564+0000001357          1500 DH5130               2 Z
130653002130653567-014133     130653006003000560103BOOK COLOURING 48 PAGE 0000001000+00001564+00000+0001T   00001564+0000001357          1500 DH5757               2 Z
130654000130654               130654               170213SL     1500+00000+SL0000007386+0000007386+000000000+000001109+0000008490+0000000005+I20000000000+0000008490+Z
130654001130654174-008024     130654006009654960368TRAVEL BOTTLES 2-PACK  0000001000+00001999+00000+0001T   00001999+0000001539          1500 DH5205               2 Z
130654002130654024-091102     130654006003453000010BAKING-CUP PAPER 50PC  0000001000+00002260+00000+0001T   00002260+0000001539          1500 DH5300               2 Z
130654003130654174-008024     130654006009654960368TRAVEL BOTTLES 2-PACK  0000001000+00001999+00000+0001T   00001999+0000001539          1500 DH5205               2 Z
130654004130654007-000555     130654006001023848239MEMO-PAD MINI LOVE     0000001000+00000651+00000+0001T   00000651+0000001539          1500 DH5130               2 Z
130654005130654903-000094     130654006923431501622SWT GS CANDY NECKLACE  0000001000+00000477+00000+0001T   00000477+0000001539          1500 DH5150               2 Z
130655000130655               130655               170213SL     1500+00000+SL0000006519+0000006519+000000000+000000979+0000007490+0000000008+I20000000000+0000007490+Z
130655001130655018-030000     130655006003000421060MUG OCCASIONS LOVE 2PCE0000001000+00004607+00000+0001T   00004607+0000001547          1500 DH5515               2 Z
130655002130655108-005005     130655006003000667451TRAY PL 29x21cm RECT   0000001000+00001912+00000+0001T   00001912+0000001547          1500 DH5210               2 Z
130656000130656               130656               170213SL     1500+00000+SL0000009474+0000009474+000000000+000001422+0000010890+0000000006+I20000000000+0000010890+Z
130656001130656366-000400     130656006001023918468DRESS UP SHOES IN BOX  0000001000+00004173+00000+0001T   00004173+0000001549          1500 DH5131               2 Z
130656002130656903-000090     130656006009826020821SWT GS CHOCO COINS 60g 0000002000+00002260+00000+0001T   00002260+0000001549          1500 DH5150               2 Z
130656003130656903-000200     130656006009826020234SWT CHOC RP CHOCO 23G  0000001000+00000781+00000+0001T   00000825+0006481549          1500 DH5150               2 Z
130657000130657               130657               170213SL     1500+00000+SL0000007472+0000007472+000000000+000001123+0000008590+0000000005+I20000000000+0000008590+Z
130657001130657002-000800     130657006001023770660PEELER MTL/PL WHITE    0000001000+00001216+00000+0001T   00001216+0000001550          1500 DH5300               2 Z
130657002130657028-000796     130657006001023812094SKEWERS 25cm 50PCE 4mm 0000004000+00001564+00000+0001T   00001564+0000001550          1500 DH5305               2 Z
130658000130658               130658               170213SL     1500+00000+SL0000025026+0000025026+000000000+000003756+0000028780+0000000002+I20000000000+0000028780+Z
130658001130658018-005009     130658006001023725608MUG W/PLUSH-BEAR LOVE  0000006000+00003738+00000+0001T   00003738+0000001604          1500 DH5515               2 Z
130658002130658080-000133-A   130658006003000647019MINI VALENTINES CARD   0000006000+00000433+00000+0001T   00000477+0006481604          1500 DH5112               2 Z
130659000130659               130659               170213SL     1500+00000+SL0000002865+0000002865+000000000+000000432+0000003290+0000000007+I20000000000+0000003290+Z
130659001130659077-000151     130659006008766114676GIFT-WRAP C/PHANE ASSTD0000003000+00000955+00000+0001T   00000955+0000001609          1500 DH5112               2 Z
130660000130660               130660               170213SL     1500+00000+SL0000004346+0000004346+000000000+000000652+0000004990+0000000008+I20000000000+0000004990+Z
130660001130660368-000049     130660006003000536955PLUSH BEAR 15cm LOVE   0000001000+00004346+00000+0001T   00004607+0006481609          1500 DH5745               2 Z
130661000130661               130661               170213SL     1500+00000+SL0000002520+0000002520+000000000+000000378+0000002890+0000000008+I20000000000+0000002890+Z
130661001130661079-000510     130661006001023509079CRAYONS WAX 12-COLOUR  0000001000+00002520+00000+0001T   00002520+0000001613          1500 DH5130               2 Z
130662000130662               130662               170213SL     1500+00000+SL0000004431+0000004431+000000000+000000666+0000005090+0000000007+I20000000000+0000005090+Z
130662001130662077-000310     130662006001023608635GIFT-BAG 18X23CM GLOSS 0000002000+00001390+00000+0001T   00001390+0000001638          1500 DH5112               2 Z
130662002130662077-000315     130662006003000181186GIFT-BAG 20x28cm MATT  0000001000+00001651+00000+0001T   00001651+0000001638          1500 DH5112               2 Z
130663000130663               130663               170213SL     1500+00000+SL0000001912+0000001912+000000000+000000287+0000002190+0000000009+I20000000000+0000002190+Z
130663001130663306-001130-A   130663006003000359271FIRSTAID SUPPORT ANKLE 0000001000+00001912+00000+0001T   00001912+0000001645          1500 DH5200               2 Z
130664000130664               130664               170213SL     1500+00000+SL0000001912+0000001912+000000000+000000287+0000002190+0000000009+I20000000000+0000002190+Z
130664001130664366-007600     130664006001023902184MASK THEATRICAL GLITTER0000001000+00001912+00000+0001T   00001912+0000001645          1500 DH5131               2 Z
130665000130665               130665               170213SL     1500+00000+SL0000005997+0000005997+000000000+000000901+0000006890+0000000008+I20000000000+0000006890+Z
130665001130665001-000175     130665006001023788108B/MUG GLS LOVE 380ML   0000001000+00004607+00000+0001T   00004607+0000001652          1500 DH5515               2 Z
130665002130665077-000310     130665006001023608635GIFT-BAG 18X23CM GLOSS 0000001000+00001390+00000+0001T   00001390+0000001652          1500 DH5112               2 Z
130666000130666               130666               170213SL     1500+00000+SL0000000433+0000000433+000000000+000000065+0000000490+0000000008+I20000000000+0000000490+Z
130666001130666080-000133-A   130666006003000647019MINI VALENTINES CARD   0000001000+00000433+00000+0001T   00000477+0006481654          1500 DH5112               2 Z
A17021300                                          12260227SLSLAVE 2                       DH51IC
A17021301                                          12404274SLSLAVE 2                       DH52IC
A17021302                                          13052628SLSLAVE 2                       DH52IC
A17021303                                          13063003SLSLAVE 2                       DH52IC
A17021304                                          13392348SLSLAVE 2                       DH52IC
A17021305                                          13415270SLSLAVE 2                       DH51IC
A17021306                                          16574855SLSLAVE 2                       DH51IC
M17021301                              SHIEHAAM    SLSLAVE 1:Z/READING R=5671.68                             C/BANKING R=3419.20                             C/CARDS   R=3088.65                             PAYOUTS   R=10.90(MAINTENANCE)                  CASHIER HAZEL B ALANCED                                                                 SLAVE 2:Z/READING R=3608.27                             C/BANKING R=2866.00                             C/CARDS   R=1250.69                             PAYOUTS   R=29.90(STATIONERY)                   CASHIER GONZALE BALANCED                                                                SLAVE 4:NOT BEEN USED                                                                           THNX                                            SL
M17021302                              IT          SLLAST TILL SLIP NO S                                                                             SLAVE 1:129556                                  SLAVE 2:130666                                  SLAVE 4:NOT BEEN USED                                                                           THNX                                            SL
M17021303                              FC2         SLFOOTCOUNTS                                                                                                                                      106                                                                                             THNX                                            SL
M17021391                              CASH        SLSLAVE 2                       Z-REPORT No.   142TOTAL (Sales - Refunds)           4146.59       CASH TO BE BANKED                 2866.00       DEBIT CARDS                          0.00       CREDIT CARDS                      1250.69       Z-READING                         4116.69       AIRTIME DEBIT CARD SALES             0.00       AIRTIME CARD SALES                   0.00       OVERS/UNDERS                         0.00       AIRTIME CASH SALES                   0.00       GIFT CARDS                           0.00       GIFT CARD CASH SALES                 0.00       STATIONERY(PHOTOCOPIES)             29.90       T O T A L  CASH PAYOUTS             29.90                                                                                                                                                                                                                                                                                                      Z
M17021392                              CASH        SLABSENT                                                                                                                                                                                          ANNUAL LEAVE                                                                                                                                                                                    DAY OFF                                                                                                                                                                                         COMMENTS          GONZALE BALANCE                                                                                                                                                                                                                                                                                                                                                              Z
Y17021300                                          SL00000000360827+000052
ZSL17021321253 SLAVE 2      SALES DATA                     NEXT INVOICE NO.  130667 0142
X SL Slave 2 First invoice 130614 170213 Last invoice 130666 170213 Next invoice 130667 Total number of records 000000163 clbackup completed 21:25:26
