410565000410565               410565               170213SW     1500+00000+SW0000002781+0000002781+000000000+000000418+0000003190+0000000009+I20000000000+0000003190+Z
410565001410565466-000054     410565006001023831552BALLS HI-BOUNCE 3CM    0000001000+00002781+00000+0001T   00002781+0000000935          1500 AB5785               1 Z
410566000410566               410566               170213SW     1500+00000+SW0000008344+0000008344+000000000+000001252+0000009590+0000000006+I20000000000+0000009590+Z
410566001410566105-001025-A   410566006009654960979CONTAINERS CLEAR 4PCE  0000004000+00002086+00000+0001T   00002086+0000000937          1500 AB5210               1 Z
410567000410567               410567               170213SW     1500+00000+SW0000003649+0000003649+000000000+000000548+0000004190+0000000007+I20000000000+0000004190+Z
410567001410567046-000012-A   410567006003000208296BATTERIES H/POWER SZ:AA0000001000+00002346+00000+0001T   00002346+0000000941          1500 AB5312               1 Z
410567002410567077-000322     410567006001023677532GIFT-BAG 18X23CM E/D FL0000001000+00001303+00000+0001T   00001303+0000000941          1500 AB5112               1 Z
410568000410568               410568               170213SW     1500+00000+SW0000011039+0000011039+000000000+000001657+0000012690+0000000006+I20000000000+0000012690+Z
410568001410568566-000991     410568000721129013121STICKERS GLOW-IN-DARK  0000001000+00002260+00000+0001T   00002260+0000000943          1500 AB5130               1 Z
410568002410568369-000042     410568006001023993854BABY BEAR RATTLE ASSTD 0000001000+00004607+00000+0001T   00004607+0000000943          1500 AB5745               1 Z
410568003410568369-001034     410568006003000105632BABY RATTLE SINGLE ASST0000001000+00001912+00000+0001T   00001912+0000000943          1500 AB5745               1 Z
410568004410568566-000991     410568000721129013121STICKERS GLOW-IN-DARK  0000001000+00002260+00000+0001T   00002260+0000000943          1500 AB5130               1 Z
410569000410569               410569               170213SW     1500+00000+SW0000014777+0000014777+000000000+000002219+0000016990+0000000006+I20000000000+0000016990+Z
410569001410569174-008023     410569006001023730695PONCHO 132x203cm TWIN-P0000001000+00003738+00000+0001T   00003738+0000000955          1500 AB5205               1 Z
410569002410569204-000059     410569006001023528162MEMO HOLDER APPS 18PC  0000001000+00002781+00000+0001T   00002781+0000000955          1500 AB5300               1 Z
410569003410569140-000030     410569006003000373123TRAP MOUSE PL PACK-2   0000001000+00002781+00000+0001T   00002781+0000000955          1500 AB5830               1 Z
410569004410569158-000167     410569006003000569588WASTEPAPER-BASKET 26cm 0000001000+00005477+00000+0001T   00005477+0000000955          1500 AB5300               1 Z
410570000410570               410570               170213SW     1500+00000+SW0000011214+0000011214+000000000+000001683+0000012890+0000000007+I20000000000+0000012890+Z
410570001410570252-000004     410570006001023473332CURTN-HOOK BRS R7 50PCE0000001000+00001564+00000+0001T   00001564+0000001000          1500 AB5810               1 Z
410570002410570113-000160     410570006001023842213VACUUM-FLASK ,45L 2TONE0000001000+00009650+00000+0001T   00009650+0000001000          1500 AB5305               1 Z
410571000410571               410571               170213SW     1500+00000+SW0000006342+0000006342+000000000+000000954+0000007290+0000000006+I20000000000+0000007290+Z
410571001410571071-081091     410571006001151010287STAED/GENKEM ALL-STICK 0000001000+00001303+00000+0001T   00001303+0000001039          1500 AB5130               1 Z
410571002410571562-000010     410571006001023762528KID'S PLAY DOUGH       0000001000+00002781+00000+0001T   00002781+0000001039          1500 AB5755               1 Z
410571003410571079-009702-F   410571008427973059392PAPER SIRIO A2 GREEN   0000001000+00001129+00000+0001T   00001129+0000001039          1500 AB5130               1 Z
410571004410571079-009702-D   410571008427973059354PAPER SIRIO A2 RED COL 0000001000+00001129+00000+0001T   00001129+0000001039          1500 AB5130               1 Z
410572000410572               410572               170213SW     1500+00000+SW0000059692+0000059692+000000000+000008974+0000068660+0000000006+I20000000000+0000068660+Z
410572001410572301-085004     410572006003000420469ORN LOVE PLAQUE 21X10CM0000002000+00003477+00000+0001T   00003999+0006481048          1500 AB5505               1 Z
410572002410572071-000012     410572006001177101006CHALK COLOUR 12PCE     0000001000+00000520+00000+0001T   00000520+0000001048          1500 AB5130               1 Z
410572003410572566-000367     410572006003000645558STICKER WINDOW DECOR   0000001000+00002781+00000+0001T   00002781+0000001048          1500 AB5130               1 Z
410572004410572001-091415     410572006003000329113W/GLS OCC. LOVE 2PC 2800000001000+00008694+00000+0001T   00009650+0006481048          1500 AB5515               1 Z
410572005410572018-000127     410572006001023380289MUG OCC STRAIGHT LOVE  0000001000+00001564+00000+0001T   00001912+0006481048          1500 AB5515               1 Z
410572006410572019-000070     410572006003000297474VASE GLS CLEAR BOTTLE  0000001000+00004607+00000+0001T   00004607+0000001048          1500 AB5510               1 Z
410572007410572018-000127     410572006001023380289MUG OCC STRAIGHT LOVE  0000005000+00001564+00000+0001T   00001912+0006481048          1500 AB5515               1 Z
410572008410572304-001011     410572006001023806727FLWR ROSE RED W/BEAR   0000010000+00000607+00000+0001T   00000825+0006481048          1500 AB5510               1 Z
410572009410572304-000720     410572006001023843050F/BUNCH ROSE 6-HEAD AST0000002000+00002781+00000+0001T   00002781+0000001048          1500 AB5510               1 Z
410572010410572018-000127     410572006001023380289MUG OCC STRAIGHT LOVE  0000001000+00001564+00000+0001T   00001912+0006481048          1500 AB5515               1 Z
410572011410572301-085006     410572006001023502940ORN LOVE MSG TUBE W/HRT0000002000+00001738+00000+0001T   00001912+0008091048          1500 AB5505               1 Z
410572012410572030-000040     410572006003000396375PLAQUE WDN HANGING HRTS0000001000+00003042+00000+0001T   00003129+0008091048          1500 AB5505               1 Z
410572013410572566-000068     410572006003000418046POP UP LOVE 2 ASSTD    0000001000+00002260+00000+0001T   00002260+0000001048          1500 AB5130               1 Z
410572014410572563-000318-L   410572006003000407088SERVIETTES 33cm RED    0000001000+00002346+00000+0001T   00002346+0000001048          1500 AB5214               1 Z
410572015410572903-000008     410572000002800082262SWT LAFFY TAFFY CHERRY 0000002000+00001216+00000+0001T   00001216+0000001048          1500 AB5150               1 Z
410573000410573               410573               170213SW     1500+00000+SW0000001477+0000001477+000000000+000000222+0000001690+0000000009+I20000000000+0000001690+Z
410573001410573027-009030     410573006002814400100DUSTPAN PL             0000001000+00001477+00000+0001T   00001477+0000001051          1500 AB5212               1 Z
410574000410574               410574               170213SW     1500+00000+SW0000037543+0000037543+000000000+000005641+0000043180+0000000004+I20000000000+0000043180+Z
410574001410574304-001011     410574006001023806727FLWR ROSE RED W/BEAR   0000004000+00000607+00000+0001T   00000825+0006481208          1500 AB5510               1 Z
410574002410574304-001204     410574006001023737984FLOWER OCC. TEDDY/ROSES0000002000+00001390+00000+0001T   00001564+0006481208          1500 AB5510               1 Z
410574003410574018-005009     410574006001023725608MUG W/PLUSH-BEAR LOVE  0000002000+00003738+00000+0001T   00003738+0000001208          1500 AB5515               1 Z
410574004410574039-000108     410574006001023524034TEA-LITE CANDLES 8PCE  0000001000+00001564+00000+0001T   00001564+0000001208          1500 AB5510               1 Z
410574005410574567-075466     410574009780263920611BK NOVEL ROMANCE       0000001000+00002607+00000+0001T   00002781+0006481208          1500 AB5757               1 Z
410574006410574001-091415     410574006003000329113W/GLS OCC. LOVE 2PC 2800000001000+00008694+00000+0001T   00009650+0006481208          1500 AB5515               1 Z
410574007410574018-000136     410574006001023659026MUG OCC LOVE W/PLUSH   0000001000+00003477+00000+0001T   00003738+0006481208          1500 AB5515               1 Z
410574008410574006-000120     410574006001023346889BALLOONS 10PC MIX COL  0000001000+00001912+00000+0001T   00001912+0000001208          1500 AB5131               1 Z
410574009410574006-000111     410574006003000519385BALLOONS LARGE 12PCE   0000001000+00002781+00000+0001T   00002781+0000001208          1500 AB5131               1 Z
410574010410574006-000120     410574006001023346889BALLOONS 10PC MIX COL  0000002000+00001912+00000+0001T   00001912+0000001208          1500 AB5131               1 Z
410575000410575               410575               170213SW     1500+00000+SW0000002086+0000002086+000000000+000000313+0000002390+0000000009+I20000000000+0000002390+Z
410575001410575105-001024-A   410575006009654960986CONTAINERS CLEAR 3PCE  0000001000+00002086+00000+0001T   00002086+0000001213          1500 AB5210               1 Z
410576000410576               410576               170213SW     1500+00000+SW0000029379+0000029379+000000000+000004410+0000033789+0000000000+I40000033789+0000000000+Z
410576001410576077-000310     410576006001023608635GIFT-BAG 18X23CM GLOSS 0000001000+00001390+00000+0001T   00001390+0000001216          1500 AB5112               1 Z
410576002410576077-000382     410576006003000247820GIFT-BAG MED 18X23CM   0000002000+00001912+00000+0001T   00001912+0000001216          1500 AB5112               1 Z
410576003410576077-000323     410576006001023677563G/BAG 25X32CM E/DAY FLO0000001000+00001651+00000+0001T   00001651+0000001216          1500 AB5112               1 Z
410576004410576495-059703     410576000078257597031LOUNGER AIR-MAT ECONO  0000001000+00003738+00000+0001T   00003738+0000001216          1500 AB5787               1 Z
410576005410576018-000136     410576006001023659026MUG OCC LOVE W/PLUSH   0000001000+00003477+00000+0001T   00003738+0006481216          1500 AB5515               1 Z
410576006410576018-000170     410576006001023775528MUG OCC. LOVE 2PC MINI 0000001000+00002346+00000+0001T   00002346+0000001216          1500 AB5515               1 Z
410576007410576301-085001     410576006003000297610ORN WATERBALL LOVE ASST0000001000+00005129+00000+0001T   00005129+0000001216          1500 AB5505               1 Z
410576008410576030-000039     410576006003000465873PLAQUE ORN SENTIMENT   0000002000+00003912+00000+0001T   00005477+0008201216          1500 AB5505               1 Z
410577000410577               410577               170213SW     1500+00000+SW0000002171+0000002171+000000000+000000327+0000002490+0000000008+I20000000000+0000002490+Z
410577001410577071-003003     410577006003000144525PEN BALL PEN 3PCE BLACK0000001000+00000955+00000+0001T   00000955+0000001217          1500 AB5130               1 Z
410577002410577007-000302     410577006009635830000BOOK H/COVER A4 96-PAGE0000001000+00001216+00000+0001T   00001216+0000001217          1500 AB5130               1 Z
410578000410578               410578               170213SW     1500+00000+SW0000002781+0000002781+000000000+000000418+0000003190+0000000009+I20000000000+0000003190+Z
410578001410578200-000030     410578006923029860018ROLL PL WRAP 30cmx30m  0000001000+00002781+00000+0001T   00002781+0000001217          1500 AB5214               1 Z
410579000410579               410579               170213SW     1500+00000+SW0000003738+0000003738+000000000+000000561+0000004299+0000000000+I40000004299+0000000000+Z
410579001410579016-006508     410579006003000181537S/JAR GLASS 10X12CM    0000001000+00003738+00000+0001T   00003738+0000001223          1500 AB5300               1 Z
410580000410580               410580               170213SW     1500+00000+SW0000013821+0000013821+000000000+000002076+0000015890+0000000007+I20000000000+0000015890+Z
410580001410580103-000082     410580006001023710857BAMBOO BASKET 21x17x8cm0000003000+00004607+00000+0001T   00004607+0000001231          1500 AB5300               1 Z
410581000410581               410581               170213SW     1500+00000+SW0000007734+0000007734+000000000+000001161+0000008895+0000000000+I40000008895+0000000000+Z
410581001410581041-007001-C   410581006003000637102H/GLOW LIQUID VANILLA  0000001000+00002346+00000+0001T   00002346+0000001234          1500 AB5200               1 Z
410581002410581306-000021-C   410581006003000567294EARBUDS 300PCE IN TUB  0000001000+00001912+00000+0001T   00001912+0000001234          1500 AB5200               1 Z
410581003410581174-008025     410581006009654960399TRAVEL TUBS 4-PACK 30ml0000001000+00002173+00000+0001T   00002173+0000001234          1500 AB5205               1 Z
410581004410581077-000245     410581006001023759214GIFT-RIBBON METALLICx2 0000001000+00001303+00000+0001T   00001303+0000001234          1500 AB5112               1 Z
410582000410582               410582               170213SW     1500+00000+SW0000014953+0000014953+000000000+000002244+0000017190+0000000007+I20000000000+0000017190+Z
410582001410582024-000165-F   410582006003000674671N/STICK MUFFIN PAN     0000002000+00005477+00000+0001T   00005477+0000001236          1500 AB5300               1 Z
410582002410582036-000013     410582006001246500860LINT REMOVER REFILLS   0000001000+00003999+00000+0001T   00003999+0000001236          1500 AB5212               1 Z
410583000410583               410583               170213SW     1500+00000+SW0000005389+0000005389+000000000+000000809+0000006190+0000000008+I20000000000+0000006190+Z
410583001410583108-009015-B   410583006005387000050SALAD-BOWL LRGE ASSTD  0000001000+00003999+00000+0001T   00003999+0000001244          1500 AB5210               1 Z
410583002410583108-009020-B   410583006005387000067SALAD SML W/LID ASSTD-C0000001000+00001390+00000+0001T   00001390+0000001244          1500 AB5210               1 Z
410584000410584               410584               170213SW     1500+00000+SW0000003738+0000003738+000000000+000000561+0000004290+0000000009+I20000000000+0000004290+Z
410584001410584037-000002     410584006001023994745ASHTRAY SPIN METAL 9cm 0000001000+00003738+00000+0001T   00003738+0000001248          1500 AB5515               1 Z
410585000410585               410585               170213SW     1500+00000+SW0000001910+0000001910+000000000+000000288+0000002190+0000000008+I20000000000+0000002190+Z
410585001410585038-047245     410585006001023637444PLACE-MAT DESIGNS ASSTD0000002000+00000955+00000+0001T   00000955+0000001249          1500 AB5300               1 Z
410586000410586               410586               170213SW     1500+00000+SW0000009997+0000009997+000000000+000001501+0000011490+0000000008+I20000000000+0000011490+Z
410586001410586031-086219-C   410586006001023808905P/FRAME WDN A4 30X40CM 0000001000+00007390+00000+0001T   00007390+0000001250          1500 AB5510               1 Z
410586002410586174-000312     410586006003000053483TRAVEL PADLCK CMB RESET0000001000+00002607+00000+0001T   00003129+0008281250          1500 AB5205               1 Z
410587000410587               410587               170213SW     1500+00000+SW0000046086+0000046086+000000000+000006913+0000052990+0000000009+I20000000000+0000052990+Z
410587001410587496-028604     410587000078257286041FILTER-PUMP 2006L/HOUR 0000001000+00046086+00000+0001T   00046086+0000001256          1500 AB5787               1 Z
410588000410588               410588               170213SW     1500+00000+SW0000001390+0000001390+000000000+000000209+0000001590+0000000009+I20000000000+0000001590+Z
410588001410588046-000012     410588006904708013062BATTERIES AA  CARD-OF-40000001000+00001390+00000+0001T   00001390+0000001314          1500 AB5312               1 Z
410589000410589               410589               170213SW     1500+00000+SW0000001564+0000001564+000000000+000000235+0000001790+0000000009+I20000000000+0000001790+Z
410589001410589077-000299     410589006003000395576G/BAG 32x25cm LRG LOVE 0000001000+00001564+00000+0001T   00001564+0000001315          1500 AB5112               1 Z
410590000410590               410590               170213SW     1500+00000+SW0000001823+0000001823+000000000+000000275+0000002090+0000000008+I20000000000+0000002090+Z
410590001410590903-000138     410590006002099004314SWT GS WINE GUMS 60G   0000001000+00000868+00000+0001T   00000868+0000001316          1500 AB5150               1 Z
410590002410590903-000483     410590006001704001410SWT LIQUOR SML SORT 60G0000001000+00000955+00000+0001T   00000955+0000001316          1500 AB5150               1 Z
410591000410591               410591               170213SW     1500+00000+SW0000000607+0000000607+000000000+000000092+0000000690+0000000009+I20000000000+0000000690+Z
410591001410591304-001011     410591006001023806727FLWR ROSE RED W/BEAR   0000001000+00000607+00000+0001T   00000825+0006481317          1500 AB5510               1 Z
410592000410592               410592               170213SW     1500+00000+SW0000003738+0000003738+000000000+000000561+0000004290+0000000009+I20000000000+0000004290+Z
410592001410592028-002101     410592006002580009507CHAIR JUNIOR    ASSTD  0000001000+00003738+00000+0001T   00003738+0000001323          1500 AB5305               1 Z
410593000410593               410593               170213SW     1500+00000+SW0000018820+0000018820+000000000+000002826+0000021640+0000000006+I20000000000+0000021640+Z
410593001410593071-000212     410593006009608641190CHALK WHITE 12PCE      0000001000+00000477+00000+0001T   00000477+0000001325          1500 AB5130               1 Z
410593002410593001-091415     410593006003000329113W/GLS OCC. LOVE 2PC 2800000002000+00008694+00000+0001T   00009650+0006481325          1500 AB5515               1 Z
410593003410593083-000295     410593006001023898562LIGHTER-GAS BUTANE 18ml0000001000+00000955+00000+0001T   00000955+0000001325          1500 AB5315               1 Z
410594000410594               410594               170213SW     1500+00000+SW0000002781+0000002781+000000000+000000418+0000003190+0000000009+I20000000000+0000003190+Z
410594001410594079-013032-D   410594006003000389643RIBBONS                0000001000+00002781+00000+0001T   00002781+0000001326          1500 AB5130               1 Z
410595000410595               410595               170213SW     1500+00000+SW0000000955+0000000955+000000000+000000144+0000001090+0000000009+I20000000000+0000001090+Z
410595001410595077-000151     410595006008766114676GIFT-WRAP C/PHANE ASSTD0000001000+00000955+00000+0001T   00000955+0000001327          1500 AB5112               1 Z
410596000410596               410596               170213SW     1500+00000+SW0000006604+0000006604+000000000+000000992+0000007590+0000000006+I20000000000+0000007590+Z
410596001410596252-000004     410596006001023473332CURTN-HOOK BRS R7 50PCE0000001000+00001564+00000+0001T   00001564+0000001328          1500 AB5810               1 Z
410596002410596027-783002     410596006001023874658SCOURERS FOAM PACK OF 30000001000+00001564+00000+0001T   00001564+0000001328          1500 AB5212               1 Z
410596003410596159-000114     410596006001023507945SHOWER CAP PVC ASSTD   0000001000+00001564+00000+0001T   00001564+0000001328          1500 AB5200               1 Z
410596004410596133-000381     410596006001023713674TABLE-CLOTH 132x178cm  0000001000+00001912+00000+0001T   00001912+0000001328          1500 AB5212               1 Z
410597000410597               410597               170213SW     1500+00000+SW0000005388+0000005388+000000000+000000809+0000006190+0000000007+I20000000000+0000006190+Z
410597001410597012-000001     410597006003000331048MICRO PLATE-COVER 26X6 0000002000+00001738+00000+0001T   00002260+0008301330          1500 AB5300               1 Z
410597002410597104-000020     410597006916920023026BASKET 25x14x10cm      0000001000+00001912+00000+0001T   00001912+0000001330          1500 AB5210               1 Z
410598000410598               410598               170213SW     1500+00000+SW0000015031+0000015031+000000000+000002258+0000017289+0000000000+I40000017289+0000000000+Z
410598001410598033-005907     410598006003000433506SHOE LACES 4-PAIR SET  0000001000+00002346+00000+0001T   00002346+0000001340          1500 AB5200               1 Z
410598002410598079-013032-D   410598006003000389643RIBBONS                0000001000+00002781+00000+0001T   00002781+0000001340          1500 AB5130               1 Z
410598003410598306-001130-A   410598006003000359271FIRSTAID SUPPORT ANKLE 0000001000+00001912+00000+0001T   00001912+0000001340          1500 AB5200               1 Z
410598004410598366-004050     410598006003000308330DRESS UP TEEN BADGES   0000001000+00001564+00000+0001T   00001564+0000001340          1500 AB5131               1 Z
410598005410598024-091100     410598006001023914224BAKING-CUPS PAPER 100PC0000002000+00001912+00000+0001T   00001912+0000001340          1500 AB5300               1 Z
410598006410598903-000070     410598006001704001106SWT TOFFEE CREAMY 35g  0000002000+00000738+00000+0001T   00000738+0000001340          1500 AB5150               1 Z
410598007410598903-000155     410598006009803374435SWT LOLLY I LUV U HEART0000002000+00000564+00000+0001T   00000564+0000001340          1500 AB5150               1 Z
410599000410599               410599               170213SW     1500+00000+SW0000004256+0000004256+000000000+000000640+0000004890+0000000006+I20000000000+0000004890+Z
410599001410599018-000127     410599006001023380289MUG OCC STRAIGHT LOVE  0000002000+00001564+00000+0001T   00001912+0006481342          1500 AB5515               1 Z
410599002410599903-000155     410599006009803374435SWT LOLLY I LUV U HEART0000002000+00000564+00000+0001T   00000564+0000001342          1500 AB5150               1 Z
410600000410600               410600               170213SW     1500+00000+SW0000002292+0000002292+000000000+000000345+0000002630+0000000007+I20000000000+0000002630+Z
410600001410600903-000070     410600006001704001106SWT TOFFEE CREAMY 35g  0000001000+00000738+00000+0001T   00000738+0000001345          1500 AB5150               1 Z
410600002410600903-000087     410600006001704000161SWT SPECKLED-EGGS 50G  0000001000+00001216+00000+0001T   00001216+0000001345          1500 AB5150               1 Z
410600003410600306-000020     410600006001023743145POCKET-TISSUES 10PCE   0000001000+00000338+00000+0001T   00000338+0000001345          1500 AB5200               1 Z
410601000410601               410601               170213SW     1500+00000+SW0000006604+0000006604+000000000+000000993+0000007590+0000000007+I20000000000+0000007590+Z
410601001410601567-075466     410601009780263250886BK NOVEL ROMANCE       0000001000+00002607+00000+0001T   00002781+0006481346          1500 AB5757               1 Z
410601002410601567-075466     410601009780263252408BK NOVEL ROMANCE       0000001000+00002607+00000+0001T   00002781+0006481346          1500 AB5757               1 Z
410601003410601077-000407     410601006003000145096G/BAG PP 19X26X8CM     0000001000+00001390+00000+0001T   00001390+0000001346          1500 AB5112               1 Z
410602000410602               410602               170213SW     1500+00000+SW0000005735+0000005735+000000000+000000862+0000006590+0000000007+I20000000000+0000006590+Z
410602001410602001-000175     410602006001023788108B/MUG GLS LOVE 380ML   0000001000+00004607+00000+0001T   00004607+0000001347          1500 AB5515               1 Z
410602002410602903-000155     410602006009803374435SWT LOLLY I LUV U HEART0000002000+00000564+00000+0001T   00000564+0000001347          1500 AB5150               1 Z
410603000410603               410603               170213SW     1500+00000+SW0000002432+0000002432+000000000+000000366+0000002790+0000000008+I20000000000+0000002790+Z
410603001410603903-000087     410603006001704000161SWT SPECKLED-EGGS 50G  0000002000+00001216+00000+0001T   00001216+0000001348          1500 AB5150               1 Z
410604000410604               410604               170213SW     1500+00000+SW0000009296+0000009296+000000000+000001396+0000010690+0000000002+I20000000000+0000010690+Z
410604001410604200-000092     410604006003000576739PICNIC PAPER PLATES 23c0000001000+00001303+00000+0001T   00001303+0000001356          1500 AB5214               1 Z
410604002410604108-000999     410604006003000667185TUMBLER PL 8-PACK 200ML0000002000+00002346+00000+0001T   00002346+0000001356          1500 AB5210               1 Z
410604003410604077-000011-C   410604006001023808523TISSUE 10xSHTS RED     0000001000+00000955+00000+0001T   00000955+0000001356          1500 AB5112               1 Z
410604004410604563-000318-L   410604006003000407088SERVIETTES 33cm RED    0000001000+00002346+00000+0001T   00002346+0000001356          1500 AB5214               1 Z
410605000410605               410605               170213SW     1500+00000+SW0000006258+0000006258+000000000+000000940+0000007190+0000000008+I20000000000+0000007190+Z
410605001410605103-000627     410605006003000676057BAMBOO BASKET W/ROPE   0000002000+00003129+00000+0001T   00003129+0000001408          1500 AB5300               1 Z
410606000410606               410606               170213SW     1500+00000+SW0000012464+0000012464+000000000+000001875+0000014339+0000000000+I40000014339+0000000000+Z
410606001410606903-000897     410606008692806325207SWT CHOC DBL MINI ROLL 0000003000+00000955+00000+0001T   00000955+0000001440          1500 AB5150               1 Z
410606002410606024-091103     410606006003453014307BAKING-CUP MUFFIN 50PCE0000001000+00002260+00000+0001T   00002260+0000001440          1500 AB5300               1 Z
410606003410606563-000318-L   410606006003000407088SERVIETTES 33cm RED    0000001000+00002346+00000+0001T   00002346+0000001440          1500 AB5214               1 Z
410606004410606362-004001     410606000613153010385PRINCESS ASSTD TRINKETS0000001000+00000694+00000+0001T   00000955+0008291440          1500 AB5160               1 Z
410606005410606362-004000     410606000613153000225DISNEY T/BELL TRINKETS 0000001000+00000694+00000+0001T   00000955+0008291440          1500 AB5160               1 Z
410606006410606263-000413     410606006003000600458VEHICLE RACER PULL BACK0000001000+00001564+00000+0001T   00001564+0000001440          1500 AB5710               1 Z
410606007410606077-000470     410606006003000330171G-BAG DESGN SML 11X14CM0000001000+00001390+00000+0001T   00001390+0000001440          1500 AB5112               1 Z
410606008410606077-000321     410606006001023677501GIFT-BAG 11X14CM E/D FL0000001000+00000651+00000+0001T   00000651+0000001440          1500 AB5112               1 Z
410607000410607               410607               170213SW     1500+00000+SW0000023590+0000023590+000000000+000003545+0000027135+0000000000+I40000027135+0000000000+Z
410607001410607077-000011     410607006003000542352PAPER RAFFIA ASSTD COL 0000001000+00001912+00000+0001T   00001912+0000001447          1500 AB5112               1 Z
410607002410607903-000843     410607008693029031067SWT GUMMY JELAXY 80G   0000001000+00001042+00000+0001T   00001042+0000001447          1500 AB5150               1 Z
410607003410607903-000155     410607006009803374435SWT LOLLY I LUV U HEART0000001000+00000564+00000+0001T   00000564+0000001447          1500 AB5150               1 Z
410607004410607072-020353     410607006001023598097DOG/CAT-BOWL 17cm      0000002000+00001912+00000+0001T   00001912+0000001447          1500 AB5870               1 Z
410607005410607077-000150-D   410607006003000054343GIFT-WRAP CELLPHANE CLR0000005000+00000955+00000+0001T   00000955+0000001447          1500 AB5112               1 Z
410607006410607019-000334     410607006003000200528VASE CER HEARTS 16CM   0000001000+00002781+00000+0001T   00002781+0000001447          1500 AB5510               1 Z
410607007410607105-008005     410607006002580009484STORAGE CONTAINER 7.5L 0000002000+00004346+00000+0001T   00004607+0006831447          1500 AB5210               1 Z
410608000410608               410608               170213SW     1500+00000+SW0000003738+0000003738+000000000+000000561+0000004290+0000000009+I20000000000+0000004290+Z
410608001410608018-005009     410608006001023725608MUG W/PLUSH-BEAR LOVE  0000001000+00003738+00000+0001T   00003738+0000001448          1500 AB5515               1 Z
410609000410609               410609               170213SW     1500+00000+SW0000066398+0000066398+000000000+000009974+0000076372+0000000000+I40000076372+0000000000+Z
410609001410609079-000280     410609006003000160723PAINT READYMIX 6PCE    0000003000+00002781+00000+0001T   00002781+0000001454          1500 AB5130               1 Z
410609002410609263-000114     410609006001023827609CARS P/BACK RACER  4PCE0000003000+00003303+00000+0001T   00003303+0000001454          1500 AB5710               1 Z
410609003410609369-001023     410609006001023712288BATH ANIMALS SQUEAKY 6P0000003000+00008346+00000+0001T   00008346+0000001454          1500 AB5745               1 Z
410609004410609065-006042     410609006001023712998MARACAS 2PCE CHA-CHA   0000002000+00001912+00000+0001T   00001912+0000001454          1500 AB5745               1 Z
410609005410609361-003015     410609006003000543168DOLLS 14CM MERMAIDS 4PC0000001000+00005564+00000+0001T   00005564+0000001454          1500 AB5725               1 Z
410609006410609077-000245     410609006001023759214GIFT-RIBBON METALLICx2 0000002000+00001303+00000+0001T   00001303+0000001454          1500 AB5112               1 Z
410609007410609071-005214     410609006003000152544CELLOTAPE SUPER REFILL 0000001000+00001564+00000+0001T   00001564+0000001454          1500 AB5130               1 Z
410609008410609077-000150-D   410609006003000054343GIFT-WRAP CELLPHANE CLR0000010000+00000955+00000+0001T   00000955+0000001454          1500 AB5112               1 Z
410610000410610               410610               170213SW     1500+00000+SW0000007640+0000007640+000000000+000001152+0000008790+0000000002+I20000000000+0000008790+Z
410610001410610077-000151     410610006008766114676GIFT-WRAP C/PHANE ASSTD0000008000+00000955+00000+0001T   00000955+0000001455          1500 AB5112               1 Z
410611000410611               410611               170213SW     1500+00000+SW0000009384+0000009384+000000000+000001411+0000010790+0000000005+I20000000000+0000010790+Z
410611001410611077-000150-D   410611006003000054343GIFT-WRAP CELLPHANE CLR0000002000+00000955+00000+0001T   00000955+0000001457          1500 AB5112               1 Z
410611002410611077-000239     410611006003000160419GIFT-RIBBON ROLL PEARL 0000001000+00001912+00000+0001T   00001912+0000001457          1500 AB5112               1 Z
410611003410611077-000456     410611006003000285549G/BAG METALLIC JMB EMB 0000002000+00002781+00000+0001T   00002781+0000001457          1500 AB5112               1 Z
410612000410612               410612               170213SW     1500+00000+SW0000001390+0000001390+000000000+000000209+0000001590+0000000009+I20000000000+0000001590+Z
410612001410612304-001204     410612006001023737984FLOWER OCC. TEDDY/ROSES0000001000+00001390+00000+0001T   00001564+0006481504          1500 AB5510               1 Z
410613000410613               410613               170213SW     1500+00000+SW0000001912+0000001912+000000000+000000287+0000002190+0000000009+I20000000000+0000002190+Z
410613001410613565-001212     410613006001023658173NOVELTY MAGIC-SPRING   0000001000+00001912+00000+0001T   00001912+0000001506          1500 AB5745               1 Z
410614000410614               410614               170213SW     1500+00000+SW0000006346+0000006346+000000000+000000952+0000007290+0000000008+I20000000000+0000007290+Z
410614001410614567-011424     410614006003000641468BK COLOURING THERAPY A40000001000+00006346+00000+0001T   00006346+0000001528          1500 AB5757               1 Z
410615000410615               410615               170213SW     1500+00000+SW0000002346+0000002346+000000000+000000352+0000002690+0000000008+I20000000000+0000002690+Z
410615001410615006-000789     410615006001023148612CROWN BOY              0000001000+00002346+00000+0001T   00002346+0000001529          1500 AB5131               1 Z
410616000410616               410616               170213SW     1500+00000+SW0000017288+0000017288+000000000+000002600+0000019880+0000000008+I20000000000+0000019880+Z
410616001410616306-000977     410616006003000559596FIRSTAID PLASTER 75PC  0000001000+00002781+00000+0001T   00002781+0000001532          1500 AB5200               1 Z
410616002410616306-001001     410616006003000519804FIRSTAID PLASTER FABRIC0000001000+00002781+00000+0001T   00002781+0000001532          1500 AB5200               1 Z
410616003410616566-000012     410616000721129023502S/BOOK H/MADE BORDERS  0000004000+00000607+00000+0001T   00000651+0008261532          1500 AB5130               1 Z
410616004410616018-000177     410616006001023797513MUG MINI LOVE ASSTD    0000004000+00000738+00000+0001T   00000738+0000001532          1500 AB5515               1 Z
410616005410616567-075497     410616009780799381672BK NOVEL ROMANCE AFR   0000001000+00006346+00000+0001T   00006346+0000001532          1500 AB5757               1 Z
410617000410617               410617               170213SW     1500+00000+SW0000003738+0000003738+000000000+000000561+0000004290+0000000009+I20000000000+0000004290+Z
410617001410617103-000459     410617006003000630929FLOWER BASKET ASSORTED 0000001000+00003738+00000+0001T   00003738+0000001537          1500 AB5300               1 Z
410618000410618               410618               170213SW     1500+00000+SW0000014212+0000014212+000000000+000002136+0000016348+0000000000+I40000016348+0000000000+Z
410618001410618903-000862     410618005010478533912SWT DOUBLE DIP 19G     0000001000+00001216+00000+0001T   00001216+0000001554          1500 AB5150               1 Z
410618002410618903-000844     410618005010478432567SWT CANDY DL LUV HEARTS0000001000+00001390+00000+0001T   00001390+0000001554          1500 AB5150               1 Z
410618003410618304-001204     410618006001023737984FLOWER OCC. TEDDY/ROSES0000001000+00001390+00000+0001T   00001564+0006481554          1500 AB5510               1 Z
410618004410618079-009700-D   410618006003000545711PAPER SIRIO A4 RED COL.0000009000+00000346+00000+0001T   00000346+0000001554          1500 AB5130               1 Z
410618005410618079-009700-C   410618006003000545636PAPER SIRIO A4 VIOLET  0000003000+00000346+00000+0001T   00000346+0000001554          1500 AB5130               1 Z
410618006410618079-009700-I   410618006003000546114PAPER SIRIO A4 LILAC   0000003000+00000346+00000+0001T   00000346+0000001554          1500 AB5130               1 Z
410618007410618079-009700-L   410618006003000546350PAPER SIRIO A4 YELLOW  0000003000+00000346+00000+0001T   00000346+0000001554          1500 AB5130               1 Z
410618008410618079-009700-G   410618006003000545957PAPER SIRIO A4 LIME COL0000003000+00000346+00000+0001T   00000346+0000001554          1500 AB5130               1 Z
410618009410618079-009700-F   410618006003000545872PAPER SIRIO A4 TURQ COL0000003000+00000346+00000+0001T   00000346+0000001554          1500 AB5130               1 Z
410618010410618903-000911     410618006009802868454SWT ST GUM TAPE BARBIE 0000001000+00001912+00000+0001T   00001912+0000001554          1500 AB5150               1 Z
410619000410619               410619               170213SW     1500+00000+SW0000000955+0000000955+000000000+000000144+0000001090+0000000009+I20000000000+0000001090+Z
410619001410619046-001616-PK2 410619004897006178378BATTERY LITHIUM CR-16160000001000+00000955+00000+0001T   00000955+0000001609          1500 AB5312               1 Z
410620000410620               410620               170213SW     1500+00000+SW0000001564+0000001564+000000000+000000235+0000001790+0000000009+I20000000000+0000001790+Z
410620001410620065-003699     410620006001023690883FLUTE RECORDER PL      0000001000+00001564+00000+0001T   00001564+0000001614          1500 AB5745               1 Z
410621000410621               410621               170213SW     1500+00000+SW0000002864+0000002864+000000000+000000432+0000003290+0000000006+I20000000000+0000003290+Z
410621001410621903-000155     410621006009803374435SWT LOLLY I LUV U HEART0000001000+00000564+00000+0001T   00000564+0000001616          1500 AB5150               1 Z
410621002410621903-000006     410621006923431571571SWEET GS SOUR BELT 50g 0000002000+00000955+00000+0001T   00000955+0000001616          1500 AB5150               1 Z
410621003410621903-000159     410621006003000417629SWT LB SMALL DUMMIE    0000001000+00000390+00000+0001T   00000390+0000001616          1500 AB5150               1 Z
410622000410622               410622               170213SW     1500+00000+SW0000000520+0000000520+000000000+000000078+0000000590+0000000008+I20000000000+0000000590+Z
410622001410622071-000012     410622006001177101006CHALK COLOUR 12PCE     0000001000+00000520+00000+0001T   00000520+0000001617          1500 AB5130               1 Z
410623000410623               410623               170213SW     1500+00000+SW0000003735+0000003735+000000000+000000562+0000004290+0000000007+I20000000000+0000004290+Z
410623001410623084-000889     410623006003000293674NAIL FILE EMERY 18CM   0000001000+00001912+00000+0001T   00001912+0000001620          1500 AB5200               1 Z
410623002410623077-000011-D   410623006001023808554TISSUE-WRAP WHITE 10PCE0000001000+00000955+00000+0001T   00000955+0000001620          1500 AB5112               1 Z
410623003410623077-000010-C   410623006001023123879CREPE-PAPER RED        0000001000+00000868+00000+0001T   00000868+0000001620          1500 AB5112               1 Z
410624000410624               410624               170213SW     1500+00000+SW0000012037+0000012037+000000000+000001807+0000013840+0000000004+I20000000000+0000013840+Z
410624001410624077-000289     410624006001023901996GIFT BOX 20x25x11cm    0000001000+00001912+00000+0001T   00001912+0000001626          1500 AB5112               1 Z
410624002410624018-000136     410624006001023659026MUG OCC LOVE W/PLUSH   0000001000+00003477+00000+0001T   00003738+0006481626          1500 AB5515               1 Z
410624003410624301-085002     410624006003000420704ORN OCC. LOVE BELL ASST0000001000+00001738+00000+0001T   00002781+0008201626          1500 AB5505               1 Z
410624004410624903-000155     410624006009803374435SWT LOLLY I LUV U HEART0000001000+00000564+00000+0001T   00000564+0000001626          1500 AB5150               1 Z
410624005410624006-000190     410624006003000685530BALLOONS LOVE 81x91cm  0000001000+00004346+00000+0001T   00004607+0006481626          1500 AB5131               1 Z
410625000410625               410625               170213SW     1500+00000+SW0000021736+0000021736+000000000+000003262+0000024998+0000000000+I40000024998+0000000000+Z
410625001410625065-001009     410625006001023712851XYLOPHONE 23cm         0000002000+00010868+00000+0001T   00010868+0000001630          1500 AB5745               1 Z
410626000410626               410626               170213SW     1500+00000+SW0000033547+0000033547+000000000+000005038+0000038585+0000000000+I40000038585+0000000000+Z
410626001410626079-105611     410626006003000249596ART+CRAFT INK PAD 1CLR 0000002000+00002781+00000+0001T   00002781+0000001632          1500 AB5130               1 Z
410626002410626162-096646     410626006001492966465#TAG HOT DEALS KIDS HR 0000001000+00002781+00000+0001T   00002781+0000001632          1500 AB5160               1 Z
410626003410626072-000150     410626006003000093892PET DOG SHIRT BOY SMALL0000001000+00006346+00000+0001T   00006346+0000001632          1500 AB5870               1 Z
410626004410626079-105603     410626006003000230907ART+CRAFT STAMP ROUND  0000002000+00001651+00000+0001T   00001651+0000001632          1500 AB5130               1 Z
410626005410626565-000041     410626006008766115642NOVELTY BALL ICON 5.5cm0000001000+00002781+00000+0001T   00002781+0000001632          1500 AB5745               1 Z
410626006410626903-002900     410626005996071650648QUICK MILK 5 CHOCO 5PC 0000001000+00001738+00000+0001T   00001738+0000001632          1500 AB5150               1 Z
410626007410626903-002901     410626005996071650655QUICK MILK 5 S/BERRY   0000001000+00001738+00000+0001T   00001738+0000001632          1500 AB5150               1 Z
410626008410626903-000215     410626006002099001214SWT GS MALLOW TWIST PAC0000003000+00001912+00000+0001T   00001912+0000001632          1500 AB5150               1 Z
410626009410626079-105601     410626006003000231171ART+CRAFT STAMP ASSTD  0000001000+00001912+00000+0001T   00001912+0000001632          1500 AB5130               1 Z
410626010410626079-105603     410626006003000230907ART+CRAFT STAMP ROUND  0000001000+00001651+00000+0001T   00001651+0000001632          1500 AB5130               1 Z
410627000410627               410627               170213SW     1500+00000+SW0000002781+0000002781+000000000+000000418+0000003190+0000000009+I20000000000+0000003190+Z
410627001410627077-000251     410627006003000639106GIFT-DECOR RIBBON      0000001000+00002781+00000+0001T   00002781+0000001636          1500 AB5112               1 Z
410628000410628               410628               170213SW     1500+00000+SW0000008077+0000008077+000000000+000001215+0000009292+0000000000+I40000009292+0000000000+Z
410628001410628050-000364-Z   410628006001023777133PADLOCK IRON 38mm CARD 0000001000+00002781+00000+0001T   00002781+0000001640          1500 AB5855               1 Z
410628002410628007-000043     410628006009635831496DISPLAY-BOOK PL A4 20PG0000001000+00001912+00000+0001T   00001912+0000001640          1500 AB5130               1 Z
410628003410628007-000145     410628006009635833087BK EXERCISE 72PG A4    0000004000+00000564+00000+0001T   00000564+0000001640          1500 AB5130               1 Z
410628004410628903-000155     410628006009803374435SWT LOLLY I LUV U HEART0000002000+00000564+00000+0001T   00000564+0000001640          1500 AB5150               1 Z
410629000410629               410629               170213SW     1500+00000+SW0000014165+0000014165+000000000+000002127+0000016292+0000000000+I40000016292+0000000000+Z
410629001410629077-000926     410629006003000414178G/WRAP 700mmx2m LOVE   0000001000+00002346+00000+0001T   00002346+0000001643          1500 AB5112               1 Z
410629002410629007-000145     410629006009635833087BK EXERCISE 72PG A4    0000002000+00000564+00000+0001T   00000564+0000001643          1500 AB5130               1 Z
410629003410629903-000517     410629006001704012768SWT STRAWS FIZZY CHERRY0000001000+00001303+00000+0001T   00001303+0000001643          1500 AB5150               1 Z
410629004410629140-005093     410629006003000331338INSECT-KILL RAQT-SHAPED0000001000+00005564+00000+0001T   00005564+0000001643          1500 AB5830               1 Z
410629005410629903-000059     410629006006869000001SWT GS NOVELTY ALIEN VA0000002000+00001912+00000+0001T   00001912+0000001643          1500 AB5150               1 Z
410630000410630               410630               170213SW     1500+00000+SW0000010255+0000010255+000000000+000001541+0000011790+0000000006+I20000000000+0000011790+Z
410630001410630019-071594     410630006003000505579PEBBLES GLS 250g RED   0000003000+00002781+00000+0001T   00002781+0000001644          1500 AB5510               1 Z
410630002410630077-000239     410630006003000160419GIFT-RIBBON ROLL PEARL 0000001000+00001912+00000+0001T   00001912+0000001644          1500 AB5112               1 Z
410631000410631               410631               170213SW     1500+00000+SW0000020986+0000020986+000000000+000003150+0000024130+0000000006+I20000000000+0000024130+Z
410631001410631040-000922     410631006001023587817CANDLE-HOLDER GLS 18cm 0000007000+00001912+00000+0001T   00001912+0000001652          1500 AB5510               1 Z
410631002410631039-000026     410631006001023551610C/TAPERED 25CM M/RED   0000007000+00001086+00000+0001T   00001086+0000001652          1500 AB5510               1 Z
410632000410632               410632               170213SW     1500+00000+SW0000000738+0000000738+000000000+000000111+0000000840+0000000009+I20000000000+0000000840+Z
410632001410632018-000177     410632006001023797513MUG MINI LOVE ASSTD    0000001000+00000738+00000+0001T   00000738+0000001653          1500 AB5515               1 Z
410633000410633               410633               170213SW     1500+00000+SW0000004172+0000004172+000000000+000000626+0000004790+0000000008+I20000000000+0000004790+Z
410633001410633903-000090     410633006009826020821SWT GS CHOCO COINS 60g 0000001000+00002260+00000+0001T   00002260+0000001658          1500 AB5150               1 Z
410633002410633039-000114     410633006001023524058CANDLE T/LITE RED 3.5CM0000001000+00001912+00000+0001T   00001912+0000001658          1500 AB5510               1 Z
410634000410634               410634               170213SW     1500+00000+SW0000000955+0000000955+000000000+000000144+0000001090+0000000009+I20000000000+0000001090+Z
410634001410634903-000520     410634006001704009898SWT GUMMY MINI SOUR 60g0000001000+00000955+00000+0001T   00000955+0000001659          1500 AB5150               1 Z
410635000410635               410635               170213SW     1500+00000+SW0000000564+0000000564+000000000+000000085+0000000640+0000000009+I20000000000+0000000640+Z
410635001410635903-000155     410635006009803374435SWT LOLLY I LUV U HEART0000001000+00000564+00000+0001T   00000564+0000001708          1500 AB5150               1 Z
410636000410636               410636               170213SW     1500+00000+SW0000003519+0000003519+000000000+000000529+0000004040+0000000008+I20000000000+0000004040+Z
410636001410636077-000456     410636006003000285549G/BAG METALLIC JMB EMB 0000001000+00002781+00000+0001T   00002781+0000001709          1500 AB5112               1 Z
410636002410636018-000177     410636006001023797513MUG MINI LOVE ASSTD    0000001000+00000738+00000+0001T   00000738+0000001709          1500 AB5515               1 Z
410637000410637               410637               170213SW     1500+00000+SW0000001390+0000001390+000000000+000000209+0000001590+0000000009+I20000000000+0000001590+Z
410637001410637304-001204     410637006001023737984FLOWER OCC. TEDDY/ROSES0000001000+00001390+00000+0001T   00001564+0006481710          1500 AB5510               1 Z
410638000410638               410638               170213SW     1500+00000+SW0000008258+0000008258+000000000+000001240+0000009498+0000000000+I40000009498+0000000000+Z
410638001410638366-002195     410638006001023990549DRESS UP WINGS FEATHER 0000001000+00005477+00000+0001T   00005477+0000001713          1500 AB5131               1 Z
410638002410638266-003012     410638006001023786128BOYS P/SET ARCHERY 4pc 0000001000+00002781+00000+0001T   00002781+0000001713          1500 AB5710               1 Z
410639000410639               410639               170213SW     1500+00000+SW0000015037+0000015037+000000000+000002257+0000017290+0000000004+I20000000000+0000017290+Z
410639001410639031-005853     410639006003000442416P/FRAME WDN TWIN HEARTS0000001000+00003477+00000+0001T   00003738+0006481715          1500 AB5510               1 Z
410639002410639077-000299     410639006003000395576G/BAG 32x25cm LRG LOVE 0000001000+00001564+00000+0001T   00001564+0000001715          1500 AB5112               1 Z
410639003410639077-000354     410639006003000139224GIFT-BAG 25X32CM H/MADE0000001000+00001912+00000+0001T   00001912+0000001715          1500 AB5112               1 Z
410639004410639031-080509     410639006001023802446P/FRAME COLLAGE 10X15CM0000001000+00006520+00000+0001T   00006520+0000001715          1500 AB5510               1 Z
410639005410639077-000299     410639006003000395576G/BAG 32x25cm LRG LOVE 0000001000+00001564+00000+0001T   00001564+0000001715          1500 AB5112               1 Z
410640000410640               410640               170213SW     1500+00000+SW0000015288+0000015288+000000000+000002301+0000017580+0000000009+I20000000000+0000017580+Z
410640001410640036-000063     410640006009654960436COATHANGERS VIRGIN 5PCE0000001000+00001912+00000+0001T   00001912+0000001721          1500 AB5212               1 Z
410640002410640304-001011     410640006001023806727FLWR ROSE RED W/BEAR   0000002000+00000607+00000+0001T   00000825+0006481721          1500 AB5510               1 Z
410640003410640079-013032-D   410640006003000389643RIBBONS                0000001000+00002781+00000+0001T   00002781+0000001721          1500 AB5130               1 Z
410640004410640079-006495     410640006003000159987GLITTER SHAKERS 6PK    0000001000+00002781+00000+0001T   00002781+0000001721          1500 AB5130               1 Z
410640005410640362-019368     410640006001023760203HAIR BAND SCRUNCHY ASST0000001000+00000955+00000+0001T   00000955+0000001721          1500 AB5160               1 Z
410640006410640079-009702-G   410640008427973060787PAPER SIRIO A2 FUSHIA  0000001000+00001129+00000+0001T   00001129+0000001721          1500 AB5130               1 Z
410640007410640079-009702-D   410640008427973059354PAPER SIRIO A2 RED COL 0000001000+00001129+00000+0001T   00001129+0000001721          1500 AB5130               1 Z
410640008410640079-009702-B   410640008427973059491PAPER SIRIO A2 WHITE   0000001000+00001129+00000+0001T   00001129+0000001721          1500 AB5130               1 Z
410640009410640079-009702-C   410640008427973059309PAPER SIRIO A2 VIOLET  0000001000+00001129+00000+0001T   00001129+0000001721          1500 AB5130               1 Z
410640010410640079-009702-F   410640008427973059392PAPER SIRIO A2 GREEN   0000001000+00001129+00000+0001T   00001129+0000001721          1500 AB5130               1 Z
410641000410641               410641               170213SW     1500+00000+SW0000001432+0000001432+000000000+000000216+0000001640+0000000008+I20000000000+0000001640+Z
410641001410641077-000011-C   410641006001023808523TISSUE 10xSHTS RED     0000001000+00000955+00000+0001T   00000955+0000001725          1500 AB5112               1 Z
410641002410641080-000133     410641006003000535613CARD&ENV MINI ASTD DSGN0000001000+00000477+00000+0001T   00000477+0000001725          1500 AB5112               1 Z
410642000410642               410642               170213SW     1500+00000+SW0000001241+0000001241+000000000+000000187+0000001420+0000000008+I20000000000+0000001420+Z
410642001410642903-000099     410642006923431501646SWT CANDY GS WTCH B/LET0000001000+00000286+00000+0001T   00000286+0000001730          1500 AB5150               1 Z
410642002410642077-000314     410642006003000181148GIFT-BAG 11X14CM MATT  0000001000+00000955+00000+0001T   00000955+0000001730          1500 AB5112               1 Z
410643000410643               410643               170213SW     1500+00000+SW0000000607+0000000607+000000000+000000092+0000000690+0000000009+I20000000000+0000000690+Z
410643001410643304-001011     410643006001023806727FLWR ROSE RED W/BEAR   0000001000+00000607+00000+0001T   00000825+0006481740          1500 AB5510               1 Z
410644000410644               410644               170213SW     1500+00000+SW0000004868+0000004868+000000000+000000731+0000005590+0000000009+I20000000000+0000005590+Z
410644001410644046-000012-VP  410644006003000537914BATTERIES H/P SIZE:AA  0000001000+00004868+00000+0001T   00004868+0000001741          1500 AB5312               1 Z
410645000410645               410645               170213SW     1500+00000+SW0000000607+0000000607+000000000+000000092+0000000690+0000000009+I20000000000+0000000690+Z
410645001410645304-001011     410645006001023806727FLWR ROSE RED W/BEAR   0000001000+00000607+00000+0001T   00000825+0006481744          1500 AB5510               1 Z
410646000410646               410646               170213SW     1500+00000+SW0000001912+0000001912+000000000+000000287+0000002190+0000000009+I20000000000+0000002190+Z
410646001410646200-003024     410646006001023657299REFUSE BAGS 20PCE BLACK0000001000+00001912+00000+0001T   00001912+0000001802          1500 AB5214               1 Z
410647000410647               410647               170213SW     1500+00000+SW0000007476+0000007476+000000000+000001122+0000008590+0000000008+I20000000000+0000008590+Z
410647001410647200-000105     410647006003000199693PICNIC CUPS PL 40PCE   0000002000+00003738+00000+0001T   00003738+0000001803          1500 AB5214               1 Z
410648000410648               410648               170213SW     1500+00000+SW0000000338+0000000338+000000000+000000051+0000000380+0000000009+I20000000000+0000000380+Z
410648001410648306-000020     410648006001023743145POCKET-TISSUES 10PCE   0000001000+00000338+00000+0001T   00000338+0000001804          1500 AB5200               1 Z
410649000410649               410649               170213SW     1500+00000+SW0000000867+0000000867+000000000+000000131+0000000990+0000000008+I20000000000+0000000990+Z
410649001410649903-000012     410649006002099007308SWT MALLOW S/BERRY     0000001000+00000477+00000+0001T   00000477+0000001818          1500 AB5150               1 Z
410649002410649903-000159     410649006003000417629SWT LB SMALL DUMMIE    0000001000+00000390+00000+0001T   00000390+0000001818          1500 AB5150               1 Z
A17021300                                          13034494SWSLAVE 1                       AB51IC
A17021301                                          15033603SWSLAVE 1                       AB52IC
A17021302                                          15072838SWSLAVE 1                       AB52IC
A17021303                                          15562412SWSLAVE 1                       AB51IC
A17021304                                          17063704SWSLAVE 1                       AB51IC
A17021305                                          17443736SWSLAVE 1                       AB51IC
C41064500                                          170213SW304-001204     17434799SLAVE 1     AB51IC0000000000+0000000000+0010000001000+
M17021391                              CASH        SWSLAVE 1                       Z-REPORT No.   457TOTAL (Sales - Refunds)           8841.51       CASH TO BE BANKED                 5870.20       DEBIT CARDS                          0.00       CREDIT CARDS                      2971.31       Z-READING                         8841.51       AIRTIME DEBIT CARD SALES             0.00       AIRTIME CARD SALES                   0.00       OVERS/UNDERS                         0.00       AIRTIME CASH SALES                   0.00       GIFT CARDS                           0.00       GIFT CARD CASH SALES                 0.00       T O T A L  CASH PAYOUTS              0.00                                                                                                                                                                                                                                                                                                                                                      Z
M17021392                              CASH        SWABSENT                                                                                                                                                                                          ANNUAL LEAVE                                                                                                                                                                                    DAY OFF                                                                                                                                                                                         COMMENTS          CASHIER MELVIN BALANCE                                                                                                                                                                                                                                                                                                                                                       Z
Y17021300                                          SW00008500769152+000085
ZSW17021406143 SLAVE 1      SALES DATA                     NEXT INVOICE NO.  410650 0457
X SW Slave 1 First invoice 410565 170213 Last invoice 410649 170213 Next invoice 410650 Total number of records 000000331 clbackup completed 06:14:59
