103071000103071               103071               170213TA     1400+00000+TA0000001753+0000001753+000000000+000000246+0000001990+0000000009+I20000000000+0000001990+Z
103071001103071304-001512     103071006003000036202FLOWER S/FLOWER 65CM   0000001000+00001753+00000+0001T   00001753+0000000902          1400 KG5510               1AZ
103072000103072               103072               170213TA     1400+00000+TA0000006707+0000006707+000000000+000000943+0000007650+0000000000+I20000000000+0000007650+Z
103072001103072079-003002     103072006003000447886A/TUBE 75ML RED        0000002000+00001753+00000+0001T   00001753+0000000911          1400 KG5130               1AZ
103072002103072079-009702-G   103072008427973060787PAPER SIRIO A2 FUSHIA  0000001000+00001051+00000+0001T   00001051+0000000911          1400 KG5130               1AZ
103072003103072079-009702-D   103072008427973059354PAPER SIRIO A2 RED COL 0000002000+00001051+00000+0001T   00001051+0000000911          1400 KG5130               1AZ
103072004103072112-116069     103072006003000535064TCS CARRIER BAG JUMBO  0000001000+00000048+00000+0001T   00000048+0000000911          1400 KG5090               1AZ
103073000103073               103073               170213TA     1400+00000+TA0000012306+0000012306+000000000+000001725+0000014031+0000000000+I40000014031+0000000000+Z
103073001103073051-500115     103073006003000528059GARDEN KID SPRAY BOTTLE0000001000+00001753+00000+0001T   00001753+0000000917          1400 KG5820               1AZ
103073002103073078-000025     103073008887013700064SUPERGLUE 3g 1PCE CARD 0000001000+00000876+00000+0001T   00000876+0000000917          1400 KG5810               1AZ
103073003103073016-009750     103073006001023888341CONDIMENTS OIL BOTTLES 0000001000+00003507+00000+0001T   00003507+0000000917          1400 KG5300               1AZ
103073004103073112-116038     103073006003000534906TCS CARRIER BAG MIDI   0000001000+00000035+00000+0001T   00000035+0000000917          1400 KG5090               1AZ
103073005103073903-000518     103073006001704012782SWT STRAWS S/BERRY 100g0000002000+00001227+00000+0001T   00001227+0000000917          1400 KG5150               1AZ
103073006103073903-000510     103073006001704012621SWEET MS ZBDZ S/BERRY  0000002000+00001227+00000+0001T   00001227+0000000917          1400 KG5150               1AZ
103073007103073903-000519     103073006001704012805SWT MS LIQ-O-GHETTI    0000001000+00001227+00000+0001T   00001227+0000000917          1400 KG5150               1AZ
103074000103074               103074               170213TA     1400+00000+TA0000003318+0000003318+000000000+000000466+0000003780+0000000004+I20000000000+0000003780+Z
103074001103074079-009700-D   103074006003000545711PAPER SIRIO A4 RED COL.0000005000+00000306+00000+0001T   00000306+0000000928          1400 KG5130               1AZ
103074002103074077-000239     103074006003000160419GIFT-RIBBON ROLL PEARL 0000001000+00001753+00000+0001T   00001753+0000000928          1400 KG5112               1AZ
103074003103074112-116038     103074006003000534906TCS CARRIER BAG MIDI   0000001000+00000035+00000+0001T   00000035+0000000928          1400 KG5090               1AZ
103075000103075               103075               170213TA     1400+00000+TA0000004558+0000004558+000000000+000000639+0000005197+0000000000+I40000005197+0000000000+Z
103075001103075039-000108     103075006001023524034TEA-LITE CANDLES 8PCE  0000002000+00001490+00000+0001T   00001490+0000000930          1400 KG5510               1AZ
103075002103075071-001028     103075008887013700385MARKER WHT-RND YM-500  0000001000+00001578+00000+0001T   00001578+0000000930          1400 KG5130               1AZ
103076000103076               103076               170213TA     1400+00000+TA0000002453+0000002453+000000000+000000344+0000002790+0000000007+I20000000000+0000002790+Z
103076001103076046-000012     103076006904708013062BATTERIES AA  CARD-OF-40000001000+00001314+00000+0001T   00001314+0000000939          1400 KG5312               1AZ
103076002103076046-000014     103076006001023725387BATTERIES SIZE:AAA 4PCE0000001000+00001139+00000+0001T   00001139+0000000939          1400 KG5312               1AZ
103077000103077               103077               170213TA     1400+00000+TA0000002366+0000002366+000000000+000000332+0000002698+0000000000+I40000002698+0000000000+Z
103077001103077077-000011-D   103077006001023808554TISSUE-WRAP WHITE 10PCE0000001000+00000876+00000+0001T   00000876+0000000943          1400 KG5112               1AZ
103077002103077077-000299     103077006003000395576G/BAG 32x25cm LRG LOVE 0000001000+00001490+00000+0001T   00001490+0000000943          1400 KG5112               1AZ
103078000103078               103078               170213TA     1400+00000+TA0000096990+0000096990+000000000+000013583+0000110570+0000000003+I20000000000+0000110570+Z
103078001103078301-085008     103078006003000673933ORN OCC.LOVE TINSEL HRT0000002000+00003069+00000+0001T   00003069+0000001000          1400 KG5505               1AZ
103078002103078563-000318-L   103078006003000407088SERVIETTES 33cm RED    0000008000+00002192+00000+0001T   00002192+0000001000          1400 KG5214               1AZ
103078003103078018-005009     103078006001023725608MUG W/PLUSH-BEAR LOVE  0000015000+00003507+00000+0001T   00003507+0000001000          1400 KG5515               1AZ
103078004103078112-116069     103078006009681820277TCS CARRIER BAG JUMBO  0000004000+00000048+00000+0001T   00000048+0000001000          1400 KG5090               1AZ
103078005103078080-000127     103078006003000424351VALENTINES DAY 36x24CM 0000002000+00002192+00000+0001T   00002192+0000001000          1400 KG5112               1AZ
103078006103078301-085004     103078006003000420469ORN LOVE PLAQUE 21X10CM0000001000+00003507+00000+0001T   00003946+0006471000          1400 KG5505               1AZ
103078007103078071-001363     103078006003000196968HIGHLIGHTER 8PACK      0000001000+00005262+00000+0001T   00005262+0000001000          1400 KG5130               1AZ
103078008103078071-081091     103078006001151010287STAED/GENKEM ALL-STICK 0000001000+00001227+00000+0001T   00001227+0000001000          1400 KG5130               1AZ
103078009103078007-000323     103078006009697791042PAPER A4 80GSM 100'S   0000001000+00006139+00000+0001T   00006139+0000001000          1400 KG5130               1AZ
103079000103079               103079               170213TA     1400+00000+TA0000004822+0000004822+000000000+000000676+0000005490+0000000008+I20000000000+0000005490+Z
103079001103079082-098798     103079006001492987989SUNGLASS KIDS BOYS     0000001000+00003946+00000+0001T   00003946+0000001001          1400 KG5160               1AZ
103079002103079077-000302     103079008010410010195GIFT-BAG 18X23CM E/D   0000001000+00000876+00000+0001T   00000876+0000001001          1400 KG5112               1AZ
103080000103080               103080               170213TA     1400+00000+TA0000002664+0000002664+000000000+000000374+0000003030+0000000008+I20000000000+0000003030+Z
103080001103080080-000133     103080006003000535613CARD&ENV MINI ASTD DSGN0000001000+00000437+00000+0001T   00000437+0000001002          1400 KG5112               1AZ
103080002103080080-000127     103080006003000424351VALENTINES DAY 36x24CM 0000001000+00002192+00000+0001T   00002192+0000001002          1400 KG5112               1AZ
103080003103080112-116038     103080006009681820246TCS CARRIER BAG MIDI   0000001000+00000035+00000+0001T   00000035+0000001002          1400 KG5090               1AZ
103081000103081               103081               170213TA     1400+00000+TA0000005875+0000005875+000000000+000000823+0000006690+0000000008+I20000000000+0000006690+Z
103081001103081050-000887-TS  103081006003000688210PADLOCK COMBO 35mm 8DIG0000001000+00004385+00000+0001T   00004385+0000001023          1400 KG5855               1AZ
103081002103081039-000108     103081006001023524034TEA-LITE CANDLES 8PCE  0000001000+00001490+00000+0001T   00001490+0000001023          1400 KG5510               1AZ
103082000103082               103082               170213TA     1400+00000+TA0000007890+0000007890+000000000+000001107+0000008997+0000000000+I40000008997+0000000000+Z
103082001103082034-078810     103082006001023856838DIAPER DISPOSE-BAGSx1000000001000+00002630+00000+0001T   00002630+0000001027          1400 KG5215               1AZ
103082002103082365-003050     103082006003000654987PLAY-SET FASHION 5PC   0000001000+00002630+00000+0001T   00002630+0000001027          1400 KG5725               1AZ
103082003103082263-000130     103082006003000305742MOTORBIKE B/BACK 11CM  0000001000+00002630+00000+0001T   00002630+0000001027          1400 KG5710               1AZ
103083000103083               103083               170213TA     1400+00000+TA0000004908+0000004908+000000000+000000688+0000005596+0000000000+I40000005596+0000000000+Z
103083001103083251-000041     103083006001023515889SEAL-TAPE BUFF 48mmx50m0000004000+00001227+00000+0001T   00001227+0000001028          1400 KG5810               1AZ
103084000103084               103084               170213TA     1400+00000+TA0000007488+0000007488+000000000+000001049+0000008530+0000000007+I20000000000+0000008530+Z
103084001103084368-000175     103084006003000270316PLUSH BEAR 4 ASSTD 18CM0000001000+00006139+00000+0001T   00006139+0000001029          1400 KG5745               1AZ
103084002103084077-000310     103084006001023608635GIFT-BAG 18X23CM GLOSS 0000001000+00001314+00000+0001T   00001314+0000001029          1400 KG5112               1AZ
103084003103084112-116038     103084006003000534906TCS CARRIER BAG MIDI   0000001000+00000035+00000+0001T   00000035+0000001029          1400 KG5090               1AZ
103085000103085               103085               170213TA     1400+00000+TA0000011436+0000011436+000000000+000001602+0000013030+0000000008+I20000000000+0000013030+Z
103085001103085002-000711     103085006003000442775C/BOARD WDN 24x33.5x1.60000001000+00007455+00000+0001T   00007455+0000001030          1400 KG5300               1AZ
103085002103085024-000092     103085006003000426805MEASURING-SET 6PC      0000001000+00003946+00000+0001T   00003946+0000001030          1400 KG5300               1AZ
103085003103085112-116038     103085006003000534906TCS CARRIER BAG MIDI   0000001000+00000035+00000+0001T   00000035+0000001030          1400 KG5090               1AZ
103086000103086               103086               170213TA     1400+00000+TA0000003069+0000003069+000000000+000000430+0000003490+0000000009+I20000000000+0000003490+Z
103086001103086031-000864-A   103086006001023798350P/FRAME MAHOGANY 10X15 0000001000+00003069+00000+0001T   00003069+0000001030          1400 KG5510               1AZ
103087000103087               103087               170213TA     1400+00000+TA0000001314+0000001314+000000000+000000184+0000001498+0000000000+I40000001498+0000000000+Z
103087001103087077-000407     103087006003000145096G/BAG PP 19X26X8CM     0000001000+00001314+00000+0001T   00001314+0000001032          1400 KG5112               1AZ
103088000103088               103088               170213TA     1400+00000+TA0000002192+0000002192+000000000+000000307+0000002499+0000000000+I40000002499+0000000000+Z
103088001103088079-013102     103088006003000019601ART+CRAFT DIY PIPE-CLNR0000001000+00002192+00000+0001T   00002192+0000001033          1400 KG5130               1AZ
103089000103089               103089               170213TA     1400+00000+TA0000002192+0000002192+000000000+000000307+0000002490+0000000009+I20000000000+0000002490+Z
103089001103089072-020261     103089006003000305131PET DOG-CHEW TYRE SMALL0000001000+00002192+00000+0001T   00002192+0000001034          1400 KG5870               1AZ
103090000103090               103090               170213TA     1400+00000+TA0000010559+0000010559+000000000+000001479+0000012030+0000000008+I20000000000+0000012030+Z
103090001103090112-116038     103090006009681820246TCS CARRIER BAG MIDI   0000001000+00000035+00000+0001T   00000035+0000001035          1400 KG5090               1AZ
103090002103090304-001169     103090006003000523894FLOWER FLOATING 28CM   0000002000+00005262+00000+0001T   00005262+0000001035          1400 KG5510               1AZ
103091000103091               103091               170213TA     1400+00000+TA0000001402+0000001402+000000000+000000197+0000001590+0000000009+I20000000000+0000001590+Z
103091001103091304-001204     103091006001023737984FLOWER OCC. TEDDY/ROSES0000001000+00001402+00000+0001T   00001490+0006471042          1400 KG5510               1AZ
103092000103092               103092               170213TA     1400+00000+TA0000001753+0000001753+000000000+000000246+0000001990+0000000009+I20000000000+0000001990+Z
103092001103092006-000804     103092006003000574445STREAMERS 6-ROLLS 2.5cm0000001000+00001753+00000+0001T   00001753+0000001043          1400 KG5131               1AZ
103093000103093               103093               170213TA     1400+00000+TA0000001753+0000001753+000000000+000000246+0000001999+0000000000+I40000001999+0000000000+Z
103093001103093077-000299-A   103093006003000670888GIFT-BAG PAPER JMB LOVE0000001000+00001753+00000+0001T   00001753+0000001045          1400 KG5112               1AZ
103094000103094               103094               170213TA     1400+00000+TA0000010559+0000010559+000000000+000001479+0000012038+0000000000+I40000012038+0000000000+Z
103094001103094368-000171     103094006003000233250PLUSH BEAR 14cm        0000002000+00005262+00000+0001T   00005262+0000001046          1400 KG5745               1AZ
103094002103094112-116038     103094006003000534906TCS CARRIER BAG MIDI   0000001000+00000035+00000+0001T   00000035+0000001046          1400 KG5090               1AZ
103095000103095               103095               170213TA     1400+00000+TA0000005262+0000005262+000000000+000000737+0000005990+0000000009+I20000000000+0000005990+Z
103095001103095018-019000     103095006003000557288MUG OCC. LOVE JUMBO    0000001000+00005262+00000+0001T   00005262+0000001050          1400 KG5515               1AZ
103096000103096               103096               170213TA     1400+00000+TA0000003104+0000003104+000000000+000000435+0000003539+0000000000+I40000003539+0000000000+Z
103096001103096031-000864-A   103096006001023798350P/FRAME MAHOGANY 10X15 0000001000+00003069+00000+0001T   00003069+0000001052          1400 KG5510               1AZ
103096002103096112-116038     103096006003000534906TCS CARRIER BAG MIDI   0000001000+00000035+00000+0001T   00000035+0000001052          1400 KG5090               1AZ
103097000103097               103097               170213TA     1400+00000+TA0000002630+0000002630+000000000+000000369+0000002990+0000000009+I20000000000+0000002990+Z
103097001103097133-000103     103097006003000060900PEG BAG ASSTD 29x29cm  0000001000+00002630+00000+0001T   00002630+0000001057          1400 KG5212               1AZ
103098000103098               103098               170213TA     1400+00000+TA0000008377+0000008377+000000000+000001174+0000009550+0000000001+I20000000000+0000009550+Z
103098001103098040-100010     103098006001023681676C/HOLDER VINTAGE ROUND 0000001000+00003507+00000+0001T   00003507+0000001058          1400 KG5510               1AZ
103098002103098039-000635     103098006001023774521CANDLE VTV 4PC WHITE   0000001000+00002192+00000+0001T   00002192+0000001058          1400 KG5510               1AZ
103098003103098077-000270     103098006003000395453GIFT-BAG PPR JMB 33X45 0000001000+00002630+00000+0001T   00002630+0000001058          1400 KG5112               1AZ
103098004103098112-116069     103098006009681820277TCS CARRIER BAG JUMBO  0000001000+00000048+00000+0001T   00000048+0000001058          1400 KG5090               1AZ
103099000103099               103099               170213TA     1400+00000+TA0000007487+0000007487+000000000+000001050+0000008530+0000000007+I20000000000+0000008530+Z
103099001103099077-000251     103099006003000639106GIFT-DECOR RIBBON      0000001000+00002630+00000+0001T   00002630+0000001101          1400 KG5112               1AZ
103099002103099071-000404     103099006001023676696P/SHARPENER WORLD-GLOBE0000001000+00002192+00000+0001T   00002192+0000001101          1400 KG5130               1AZ
103099003103099006-000220-B   103099006001023890870PARTY TABLE-CLOTH BOY  0000001000+00002630+00000+0001T   00002630+0000001101          1400 KG5131               1AZ
103099004103099112-116038     103099006003000534906TCS CARRIER BAG MIDI   0000001000+00000035+00000+0001T   00000035+0000001101          1400 KG5090               1AZ
103100000103100               103100               170213TA     1400+00000+TA0000004822+0000004822+000000000+000000676+0000005498+0000000000+I40000005498+0000000000+Z
103100001103100072-020216     103100006001023775900PET CHEWS BARBI-ROLLS  0000001000+00001753+00000+0001T   00001753+0000001103          1400 KG5870               1AZ
103100002103100072-000012     103100006001023602510PET DOG/CAT BRUSH 23cm 0000001000+00003069+00000+0001T   00003069+0000001103          1400 KG5870               1AZ
103101000103101               103101               170213TA     1400+00000+TA0000008114+0000008114+000000000+000001138+0000009252+0000000000+I40000009252+0000000000+Z
103101001103101903-002890     103101008935001721352MENTOS GUM PURE F/MINT 0000001000+00001051+00000+0001T   00001051+0000001105          1400 KG5150               1AZ
103101002103101077-000270     103101006003000395453GIFT-BAG PPR JMB 33X45 0000001000+00002630+00000+0001T   00002630+0000001105          1400 KG5112               1AZ
103101003103101466-000074     103101006003000669202BALL RUGBY MESH 21.5cm 0000001000+00004385+00000+0001T   00004385+0000001105          1400 KG5785               1AZ
103101004103101112-116069     103101006003000535064TCS CARRIER BAG JUMBO  0000001000+00000048+00000+0001T   00000048+0000001105          1400 KG5090               1AZ
103102000103102               103102               170213TA     1400+00000+TA0000002103+0000002103+000000000+000000295+0000002390+0000000008+I20000000000+0000002390+Z
103102001103102903-000123     103102006925925909280SWEET GS MINI MALLOWS  0000001000+00000876+00000+0001T   00000876+0000001109          1400 KG5150               1AZ
103102002103102903-004951     103102006002580020328SWT MALLOW MINI M/SHAKE0000001000+00001227+00000+0001T   00001227+0000001109          1400 KG5150               1AZ
103103000103103               103103               170213TA     1400+00000+TA0000008771+0000008771+000000000+000001228+0000009999+0000000000+I40000009999+0000000000+Z
103103001103103020-000751     103103006003000308446KNIFE+LIFTER 25-30CM   0000001000+00008771+00000+0001T   00008771+0000001113          1400 KG5300               1AZ
103104000103104               103104               170213TA     1400+00000+TA0000005031+0000005031+000000000+000000705+0000005736+0000000000+I40000005736+0000000000+Z
103104001103104108-001208     103104006003000667147ICE CREAM BOWLS 4-PACK 0000001000+00002192+00000+0001T   00002192+0000001116          1400 KG5210               1AZ
103104002103104039-000108     103104006001023524034TEA-LITE CANDLES 8PCE  0000001000+00001490+00000+0001T   00001490+0000001116          1400 KG5510               1AZ
103104003103104028-000795     103104006001023812063SKEWERS 10cm 100PCE 3mm0000001000+00000964+00000+0001T   00000964+0000001116          1400 KG5305               1AZ
103104004103104007-000104     103104006009685854865BK COVER BRWN KRFT ROLL0000001000+00000350+00000+0001T   00000350+0000001116          1400 KG5130               1AZ
103104005103104112-116038     103104006003000534906TCS CARRIER BAG MIDI   0000001000+00000035+00000+0001T   00000035+0000001116          1400 KG5090               1AZ
103105000103105               103105               170213TA     1400+00000+TA0000003243+0000003243+000000000+000000455+0000003690+0000000008+I20000000000+0000003690+Z
103105001103105019-071598     103105006001023693228PEBBLES GLS 250g WHITE 0000001000+00001753+00000+0001T   00001753+0000001117          1400 KG5510               1AZ
103105002103105039-000108     103105006001023524034TEA-LITE CANDLES 8PCE  0000001000+00001490+00000+0001T   00001490+0000001117          1400 KG5510               1AZ
103106000103106               103106               170213TA     1400+00000+TA0000003103+0000003103+000000000+000000435+0000003538+0000000000+I40000003538+0000000000+Z
103106001103106039-000108     103106006001023524034TEA-LITE CANDLES 8PCE  0000001000+00001490+00000+0001T   00001490+0000001119          1400 KG5510               1AZ
103106002103106018-000127     103106006001023380289MUG OCC STRAIGHT LOVE  0000001000+00001578+00000+0001T   00001753+0006471119          1400 KG5515               1AZ
103106003103106112-116038     103106006003000534906TCS CARRIER BAG MIDI   0000001000+00000035+00000+0001T   00000035+0000001119          1400 KG5090               1AZ
103107000103107               103107               170213TA     1400+00000+TA0000011402+0000011402+000000000+000001597+0000012999+0000000000+I40000012999+0000000000+Z
103107001103107075-000417     103107006003000622849BAG LADIES DENIM ASSTD 0000001000+00011402+00000+0001T   00011402+0000001124          1400 KG5160               1AZ
103108000103108               103108               170213TA     1400+00000+TA0000000700+0000000700+000000000+000000098+0000000790+0000000008+I20000000000+0000000790+Z
103108001103108033-010721     103108006001023678669SAFETY-PINS 20PCE ASSTD0000001000+00000700+00000+0001T   00000700+0000001126          1400 KG5200               1AZ
103109000103109               103109               170213TA     1400+00000+TA0000001753+0000001753+000000000+000000246+0000001990+0000000009+I20000000000+0000001990+Z
103109001103109077-000381     103109006003000247707GIFT-BAG 25X32CM S/COL 0000001000+00001753+00000+0001T   00001753+0000001303          1400 KG5112               1AZ
103110000103110               103110               170213TA     1400+00000+TA0000001753+0000001753+000000000+000000246+0000001999+0000000000+I40000001999+0000000000+Z
103110001103110077-000357     103110006003000139354GIFT-BAG 18X23CM B/DAY 0000001000+00001753+00000+0001T   00001753+0000001304          1400 KG5112               1AZ
103111000103111               103111               170213TA     1400+00000+TA0000015146+0000015146+000000000+000002125+0000017271+0000000000+I40000017271+0000000000+Z
103111001103111112-116038     103111006003000534906TCS CARRIER BAG MIDI   0000001000+00000035+00000+0001T   00000035+0000001307          1400 KG5090               1AZ
103111002103111071-003030     103111006003000006007PENS NOVELTY 2PCE      0000002000+00001753+00000+0001T   00001753+0000001307          1400 KG5130               1AZ
103111003103111112-116038     103111006009681820246TCS CARRIER BAG MIDI   0000001000+00000035+00000+0001T   00000035+0000001307          1400 KG5090               1AZ
103111004103111903-000087     103111006001704000161SWT SPECKLED-EGGS 50G  0000002000+00001139+00000+0001T   00001139+0000001307          1400 KG5150               1AZ
103111005103111077-000303     103111006001023593757GIFT-BAG PAPER MED     0000002000+00001578+00000+0001T   00001578+0000001307          1400 KG5112               1AZ
103111006103111077-000011-D   103111006001023808554TISSUE-WRAP WHITE 10PCE0000001000+00000876+00000+0001T   00000876+0000001307          1400 KG5112               1AZ
103111007103111007-000557     103111006003000379484DIARY GIRL W/LOCK 50PG 0000002000+00002630+00000+0001T   00002630+0000001307          1400 KG5130               1AZ
103112000103112               103112               170213TA     1400+00000+TA0000010392+0000010392+000000000+000001456+0000011848+0000000000+I40000011848+0000000000+Z
103112001103112112-116069     103112006009681820277TCS CARRIER BAG JUMBO  0000001000+00000048+00000+0001T   00000048+0000001309          1400 KG5090               1AZ
103112002103112036-000515     103112006001023817402HOOK-HANGER PL-CTD 10HK0000001000+00003507+00000+0001T   00003507+0000001309          1400 KG5212               1AZ
103112003103112034-078839     103112006003000622320COOEY BABY FEEDING SET 0000001000+00002630+00000+0001T   00002630+0000001309          1400 KG5215               1AZ
103112004103112034-000336     103112006005387186105BABY FEEDING PLATE     0000001000+00000700+00000+0001T   00000876+0008151309          1400 KG5215               1AZ
103112005103112466-000073     103112006003000669127BALL SOCCER MESH 15.2cm0000001000+00003507+00000+0001T   00003507+0000001309          1400 KG5785               1AZ
103113000103113               103113               170213TA     1400+00000+TA0000000876+0000000876+000000000+000000123+0000000990+0000000009+I20000000000+0000000990+Z
103113001103113071-005213     103113006001023690371CELLOTAPE 12mmx33m     0000001000+00000876+00000+0001T   00000876+0000001310          1400 KG5130               1AZ
103114000103114               103114               170213TA     1400+00000+TA0000005262+0000005262+000000000+000000737+0000005990+0000000009+I20000000000+0000005990+Z
103114001103114567-010161     103114009780000008516BOOK TOP ASSTD MILLS   0000001000+00005262+00000+0001T   00005262+0000001310          1400 KG5757               1AZ
103115000103115               103115               170213TA     1400+00000+TA0000005083+0000005083+000000000+000000713+0000005790+0000000006+I20000000000+0000005790+Z
103115001103115028-000799     103115006001023812186SKEWERS BAMBOO 100PCE  0000001000+00001578+00000+0001T   00001578+0000001311          1400 KG5305               1AZ
103115002103115028-000797     103115006001023812124SKEWERS 15cm 100PCE    0000001000+00000876+00000+0001T   00000876+0000001311          1400 KG5305               1AZ
103115003103115077-000011-E   103115006001023808646TISSUE-WRAP PINK 10PCE 0000001000+00000876+00000+0001T   00000876+0000001311          1400 KG5112               1AZ
103115004103115077-000011-Y   103115006001023809858TISSUE-WRAP GOLD 10PCE 0000001000+00001753+00000+0001T   00001753+0000001311          1400 KG5112               1AZ
103116000103116               103116               170213TA     1400+00000+TA0000000876+0000000876+000000000+000000123+0000000990+0000000009+I20000000000+0000000990+Z
103116001103116033-005930     103116006001023678423PINS STRAIGHT 20g  CARD0000001000+00000876+00000+0001T   00000876+0000001312          1400 KG5200               1AZ
103117000103117               103117               170213TA     1400+00000+TA0000010734+0000010734+000000000+000001511+0000012245+0000000000+I40000012245+0000000000+Z
103117001103117200-000092     103117006003000576739PICNIC PAPER PLATES 23c0000001000+00001227+00000+0001T   00001227+0000001316          1400 KG5214               1AZ
103117002103117079-009702-G   103117008427973060787PAPER SIRIO A2 FUSHIA  0000003000+00001051+00000+0001T   00001051+0000001316          1400 KG5130               1AZ
103117003103117079-009702-B   103117008427973059491PAPER SIRIO A2 WHITE   0000003000+00001051+00000+0001T   00001051+0000001316          1400 KG5130               1AZ
103117004103117079-009702-D   103117008427973059354PAPER SIRIO A2 RED COL 0000003000+00001051+00000+0001T   00001051+0000001316          1400 KG5130               1AZ
103117005103117112-116069     103117006003000535064TCS CARRIER BAG JUMBO  0000001000+00000048+00000+0001T   00000048+0000001316          1400 KG5090               1AZ
103118000103118               103118               170213TA     1400+00000+TA0000009148+0000009148+000000000+000001283+0000010430+0000000001+I20000000000+0000010430+Z
103118001103118079-009700-I   103118006003000546114PAPER SIRIO A4 LILAC   0000004000+00000306+00000+0001T   00000306+0000001317          1400 KG5130               1AZ
103118002103118200-000106     103118006003000510290PICNIC CUPS PAPER 250ml0000001000+00003507+00000+0001T   00003507+0000001317          1400 KG5214               1AZ
103118003103118033-001365     103118006001023802118HAIR CLIPS 200PC ASSTD 0000001000+00002630+00000+0001T   00002630+0000001317          1400 KG5200               1AZ
103118004103118033-005921-A   103118006001023678324SEWING-THREAD 200m WHT 0000001000+00000876+00000+0001T   00000876+0000001317          1400 KG5200               1AZ
103118005103118076-000017     103118006001811010022TWINE COTTON 50g-BALL  0000001000+00000876+00000+0001T   00000876+0000001317          1400 KG5810               1AZ
103118006103118112-116038     103118006003000534906TCS CARRIER BAG MIDI   0000001000+00000035+00000+0001T   00000035+0000001317          1400 KG5090               1AZ
103119000103119               103119               170213TA     1400+00000+TA0000003110+0000003110+000000000+000000436+0000003546+0000000000+I40000003546+0000000000+Z
103119001103119007-000104     103119006009685854865BK COVER BRWN KRFT ROLL0000001000+00000350+00000+0001T   00000350+0000001319          1400 KG5130               1AZ
103119002103119077-000011-D   103119006001023808554TISSUE-WRAP WHITE 10PCE0000001000+00000876+00000+0001T   00000876+0000001319          1400 KG5112               1AZ
103119003103119108-001024     103119006009654960719TUMBLERS PL 4PC 350ml  0000001000+00001578+00000+0001T   00001578+0000001319          1400 KG5210               1AZ
103119004103119079-009700-A   103119006003000547746PAPER SIRIO A4 BLACK   0000001000+00000306+00000+0001T   00000306+0000001319          1400 KG5130               1AZ
103120000103120               103120               170213TA     1400+00000+TA0000001788+0000001788+000000000+000000251+0000002030+0000000009+I20000000000+0000002030+Z
103120001103120077-000381     103120006003000247707GIFT-BAG 25X32CM S/COL 0000001000+00001753+00000+0001T   00001753+0000001320          1400 KG5112               1AZ
103120002103120112-116038     103120006003000534906TCS CARRIER BAG MIDI   0000001000+00000035+00000+0001T   00000035+0000001320          1400 KG5090               1AZ
103121000103121               103121               170213TA     1400+00000+TA0000002630+0000002630+000000000+000000369+0000002990+0000000009+I20000000000+0000002990+Z
103121001103121469-000013     103121006003000303458BUILD METAL 60PC       0000001000+00002630+00000+0001T   00002630+0000001320          1400 KG5755               1AZ
103122000103122               103122               170213TA     1400+00000+TA0000003507-0000003507-000000000+000000491-0000004000-0000000002+I20000000000+0000004000-Z
103122001103122036-000515     103122006001023817402HOOK-HANGER PL-CTD 10HK0000001000-00003507+00000+0001T   00003507+0000001325          1400 KG52121IC            1 Z
103123000103123               103123               170213TA     1400+00000+TA0000000035+0000000035+000000000+000000005+0000000040+0000000000+I20000000000+0000000040+Z
103123001103123112-116038     103123006003000534906TCS CARRIER BAG MIDI   0000001000+00000035+00000+0001T   00000035+0000001326          1400 KG5090               1AZ
103124000103124               103124               170213TA     1400+00000+TA0000006172+0000006172+000000000+000000865+0000007037+0000000000+I40000007037+0000000000+Z
103124001103124007-000324     10312400600968585864125 SHEETS BRIGHTS MARLI0000001000+00003507+00000+0001T   00003507+0000001327          1400 KG5130               1AZ
103124002103124079-013032-E   103124006003000389766ART+CRAFT COL/PAPER    0000001000+00002630+00000+0001T   00002630+0000001327          1400 KG5130               1AZ
103124003103124112-116038     103124006003000534906TCS CARRIER BAG MIDI   0000001000+00000035+00000+0001T   00000035+0000001327          1400 KG5090               1AZ
103125000103125               103125               170213TA     1400+00000+TA0000002630+0000002630+000000000+000000369+0000002990+0000000009+I20000000000+0000002990+Z
103125001103125048-000865     103125006003000371433TORCH KEY CHAIN 5LED   0000001000+00002630+00000+0001T   00002630+0000001328          1400 KG5305               1AZ
103126000103126               103126               170213TA     1400+00000+TA0000007014+0000007014+000000000+000000982+0000007996+0000000000+I40000007996+0000000000+Z
103126001103126203-007000     103126006001023886040SHOT-GLASS DISPOSABLE  0000002000+00003507+00000+0001T   00003507+0000001332          1400 KG5300               1AZ
103127000103127               103127               170213TA     1400+00000+TA0000007395+0000007395+000000000+000001038+0000008430+0000000003+I20000000000+0000008430+Z
103127001103127006-000805     103127000013994092418STREAMERS 10-ROLLS     0000001000+00001490+00000+0001T   00001490+0000001338          1400 KG5131               1AZ
103127002103127077-000011-D   103127006001023808554TISSUE-WRAP WHITE 10PCE0000003000+00000876+00000+0001T   00000876+0000001338          1400 KG5112               1AZ
103127003103127077-000011-F   103127006001023808431TISSUE-WRAP BLUE/LILAC 0000002000+00000876+00000+0001T   00000876+0000001338          1400 KG5112               1AZ
103127004103127006-000805     103127000013994092418STREAMERS 10-ROLLS     0000001000+00001490+00000+0001T   00001490+0000001338          1400 KG5131               1AZ
103127005103127112-116038     103127006003000534906TCS CARRIER BAG MIDI   0000001000+00000035+00000+0001T   00000035+0000001338          1400 KG5090               1AZ
103128000103128               103128               170213TA     1400+00000+TA0000001753+0000001753+000000000+000000246+0000001990+0000000009+I20000000000+0000001990+Z
103128001103128016-006515     103128006003000295555S/JAR GLS EMBOSS. 250ML0000001000+00001753+00000+0001T   00001753+0000001345          1400 KG5300               1AZ
103129000103129               103129               170213TA     1400+00000+TA0000003506+0000003506+000000000+000000492+0000003998+0000000000+I40000003998+0000000000+Z
103129001103129089-000004     103129006003000137749KEY CHAIN MTL CHARMS   0000002000+00001753+00000+0001T   00001753+0000001348          1400 KG5205               1AZ
103130000103130               103130               170213TA     1400+00000+TA0000002980+0000002980+000000000+000000418+0000003398+0000000000+I40000003398+0000000000+Z
103130001103130077-000384     103130006003000275243G/BAG HOT STMP 18x23CM 0000001000+00001490+00000+0001T   00001490+0000001353          1400 KG5112               1AZ
103130002103130077-000399     103130006003000139514GIFT BAG 18X23CM E/DAY 0000001000+00001490+00000+0001T   00001490+0000001353          1400 KG5112               1AZ
103131000103131               103131               170213TA     1400+00000+TA0000006173+0000006173+000000000+000000865+0000007030+0000000008+I20000000000+0000007030+Z
103131001103131031-000864-A   103131006001023798350P/FRAME MAHOGANY 10X15 0000002000+00003069+00000+0001T   00003069+0000001353          1400 KG5510               1AZ
103131002103131112-116038     103131006003000534906TCS CARRIER BAG MIDI   0000001000+00000035+00000+0001T   00000035+0000001353          1400 KG5090               1AZ
103132000103132               103132               170213TA     1400+00000+TA0000003770+0000003770+000000000+000000528+0000004290+0000000008+I20000000000+0000004290+Z
103132001103132563-000318-L   103132006003000407088SERVIETTES 33cm RED    0000001000+00002192+00000+0001T   00002192+0000001354          1400 KG5214               1AZ
103132002103132077-000303     103132006001023593757GIFT-BAG PAPER MED     0000001000+00001578+00000+0001T   00001578+0000001354          1400 KG5112               1AZ
103133000103133               103133               170213TA     1400+00000+TA0000003278+0000003278+000000000+000000460+0000003730+0000000008+I20000000000+0000003730+Z
103133001103133903-002890     103133008935001721352MENTOS GUM PURE F/MINT 0000001000+00001051+00000+0001T   00001051+0000001355          1400 KG5150               1AZ
103133002103133080-000127     103133006003000424351VALENTINES DAY 36x24CM 0000001000+00002192+00000+0001T   00002192+0000001355          1400 KG5112               1AZ
103133003103133112-116038     103133006003000534906TCS CARRIER BAG MIDI   0000001000+00000035+00000+0001T   00000035+0000001355          1400 KG5090               1AZ
103134000103134               103134               170213TA     1400+00000+TA0000017101+0000017101+000000000+000002396+0000019497+0000000000+I40000019497+0000000000+Z
103134001103134080-000127     103134006003000424351VALENTINES DAY 36x24CM 0000001000+00002192+00000+0001T   00002192+0000001357          1400 KG5112               1AZ
103134002103134077-000270     103134006003000395453GIFT-BAG PPR JMB 33X45 0000001000+00002630+00000+0001T   00002630+0000001357          1400 KG5112               1AZ
103134003103134031-001008     103134006003000406494P/FRAME COLLAGE PLASTIC0000001000+00012279+00000+0001T   00012279+0000001357          1400 KG5510               1AZ
103135000103135               103135               170213TA     1400+00000+TA0000027236+0000027236+000000000+000003815+0000031050+0000000001+I20000000000+0000031050+Z
103135001103135112-116069     103135006009681820277TCS CARRIER BAG JUMBO  0000001000+00000048+00000+0001T   00000048+0000001359          1400 KG5090               1AZ
103135002103135030-004020     103135006003000394609PLAQUE WDN SIGN 40X25CM0000001000+00013157+00000+0001T   00013157+0000001359          1400 KG5505               1AZ
103135003103135006-000165     103135006001023758392BALLOONS LRG BAG-OF-1000000001000+00008771+00000+0001T   00008771+0000001359          1400 KG5131               1AZ
103135004103135566-000313     103135006003000523016STICKERS DECOR MIRRORS 0000002000+00002630+00000+0001T   00002630+0000001359          1400 KG5130               1AZ
103136000103136               103136               170213TA     1400+00000+TA0000002192+0000002192+000000000+000000307+0000002490+0000000009+I20000000000+0000002490+Z
103136001103136200-000020     103136006925406841030BAG ZIPPERSEAL 25PC    0000001000+00002192+00000+0001T   00002192+0000001402          1400 KG5214               1AZ
103137000103137               103137               170213TA     1400+00000+TA0000002192+0000002192+000000000+000000307+0000002499+0000000000+I40000002499+0000000000+Z
103137001103137563-000318-L   103137006003000407088SERVIETTES 33cm RED    0000001000+00002192+00000+0001T   00002192+0000001409          1400 KG5214               1AZ
103138000103138               103138               170213TA     1400+00000+TA0000004206+0000004206+000000000+000000591+0000004790+0000000007+I20000000000+0000004790+Z
103138001103138304-001204     103138006001023737984FLOWER OCC. TEDDY/ROSES0000003000+00001402+00000+0001T   00001490+0006471410          1400 KG5510               1AZ
103139000103139               103139               170213TA     1400+00000+TA0000000788+0000000788+000000000+000000111+0000000890+0000000009+I20000000000+0000000890+Z
103139001103139077-000010-D   103139006001023123886CREPE-PAPER WHITE      0000001000+00000788+00000+0001T   00000788+0000001413          1400 KG5112               1AZ
103140000103140               103140               170213TA     1400+00000+TA0000001314+0000001314+000000000+000000184+0000001490+0000000008+I20000000000+0000001490+Z
103140001103140903-004950     103140006002580020304SWT APRICOT SURPRISE   0000001000+00001314+00000+0001T   00001314+0000001416          1400 KG5150               1AZ
103141000103141               103141               170213TA     1400+00000+TA0000004384+0000004384+000000000+000000614+0000004990+0000000008+I20000000000+0000004990+Z
103141001103141566-000359     103141006003000582709STICKER BOOK LOVE SPARK0000002000+00002192+00000+0001T   00002192+0000001418          1400 KG5130               1AZ
103142000103142               103142               170213TA     1400+00000+TA0000016255+0000016255+000000000+000002276+0000018530+0000000001+I20000000000+0000018530+Z
103142001103142079-011526     103142006003000408375GLITTER & SAND ART     0000003000+00003507+00000+0001T   00003507+0000001420          1400 KG5130               1AZ
103142002103142200-000020     103142006925406841030BAG ZIPPERSEAL 25PC    0000001000+00002192+00000+0001T   00002192+0000001420          1400 KG5214               1AZ
103142003103142200-000011     103142006003000613489DISPOSABLE BAG ZIPER   0000001000+00003507+00000+0001T   00003507+0000001420          1400 KG5214               1AZ
103142004103142112-116038     103142006003000534906TCS CARRIER BAG MIDI   0000001000+00000035+00000+0001T   00000035+0000001420          1400 KG5090               1AZ
103143000103143               103143               170213TA     1400+00000+TA0000004385+0000004385+000000000+000000614+0000004999+0000000000+I40000004999+0000000000+Z
103143001103143368-006004     103143006003000671076PLUSH DOLPHIN          0000001000+00004385+00000+0001T   00004385+0000001421          1400 KG5745               1AZ
103144000103144               103144               170213TA     1400+00000+TA0000003506+0000003506+000000000+000000492+0000003990+0000000008+I20000000000+0000003990+Z
103144001103144903-000521     103144006001704009652SWT GUMMY SOFT GUMS    0000001000+00000876+00000+0001T   00000876+0000001422          1400 KG5150               1AZ
103144002103144002-000884     103144006001023769589CAN-OPENER BUTTERFLY   0000001000+00002630+00000+0001T   00002630+0000001422          1400 KG5300               1AZ
103145000103145               103145               170213TA     1400+00000+TA0000003946+0000003946+000000000+000000553+0000004499+0000000000+I40000004499+0000000000+Z
103145001103145031-000902-B   103145006001023726285P/FRAME WDN OAK 10X15CM0000001000+00003946+00000+0001T   00003946+0000001423          1400 KG5510               1AZ
103146000103146               103146               170213TA     1400+00000+TA0000002630+0000002630+000000000+000000369+0000002999+0000000000+I40000002999+0000000000+Z
103146001103146002-000884     103146006001023769589CAN-OPENER BUTTERFLY   0000001000+00002630+00000+0001T   00002630+0000001424          1400 KG5300               1AZ
103147000103147               103147               170213TA     1400+00000+TA0000003507+0000003507+000000000+000000491+0000003990+0000000008+I20000000000+0000003990+Z
103147001103147018-000136     103147006001023659026MUG OCC LOVE W/PLUSH   0000001000+00003507+00000+0001T   00003507+0000001424          1400 KG5515               1AZ
103148000103148               103148               170213TA     1400+00000+TA0000017589+0000017589+000000000+000002464+0000020053+0000000000+I40000020053+0000000000+Z
103148001103148077-000270     103148006003000395453GIFT-BAG PPR JMB 33X45 0000001000+00002630+00000+0001T   00002630+0000001428          1400 KG5112               1AZ
103148002103148368-000004     103148006003000098378PLUSH UNICORN 30cm     0000001000+00014911+00000+0001T   00014911+0000001428          1400 KG5745               1AZ
103148003103148112-116069     103148006009681820277TCS CARRIER BAG JUMBO  0000001000+00000048+00000+0001T   00000048+0000001428          1400 KG5090               1AZ
103149000103149               103149               170213TA     1400+00000+TA0000001490+0000001490+000000000+000000209+0000001690+0000000009+I20000000000+0000001690+Z
103149001103149039-000108     103149006001023524034TEA-LITE CANDLES 8PCE  0000001000+00001490+00000+0001T   00001490+0000001429          1400 KG5510               1AZ
103150000103150               103150               170213TA     1400+00000+TA0000001753+0000001753+000000000+000000246+0000001990+0000000009+I20000000000+0000001990+Z
103150001103150077-000308     103150006001023595812GIFT-BAG 33X45CM E/DAY 0000001000+00001753+00000+0001T   00001753+0000001433          1400 KG5112               1AZ
103151000103151               103151               170213TA     1400+00000+TA0000002628+0000002628+000000000+000000368+0000002990+0000000006+I20000000000+0000002990+Z
103151001103151006-000167-C   103151006003000516971BALLOONS PINK METALLIC 0000002000+00001314+00000+0001T   00001314+0000001433          1400 KG5131               1AZ
103152000103152               103152               170213TA     1400+00000+TA0000004385+0000004385+000000000+000000614+0000004990+0000000009+I20000000000+0000004990+Z
103152001103152464-000118     103152000073854008089PLAYING CARD LEAGUE BAC0000001000+00004385+00000+0001T   00004385+0000001436          1400 KG5785               1AZ
103153000103153               103153               170213TA     1400+00000+TA0000002628+0000002628+000000000+000000369+0000002990+0000000007+I20000000000+0000002990+Z
103153001103153077-000011-D   103153006001023808554TISSUE-WRAP WHITE 10PCE0000003000+00000876+00000+0001T   00000876+0000001436          1400 KG5112               1AZ
103154000103154               103154               170213TA     1400+00000+TA0000000876+0000000876+000000000+000000123+0000000990+0000000009+I20000000000+0000000990+Z
103154001103154903-000521     103154006001704009652SWT GUMMY SOFT GUMS    0000001000+00000876+00000+0001T   00000876+0000001437          1400 KG5150               1AZ
103155000103155               103155               170213TA     1400+00000+TA0000002628+0000002628+000000000+000000368+0000002990+0000000006+I20000000000+0000002990+Z
103155001103155006-000166-G   103155006003000607976BALLOONS HELIUM 6PC BLK0000002000+00001314+00000+0001T   00001314+0000001437          1400 KG5131               1AZ
103156000103156               103156               170213TA     1400+00000+TA0000008803+0000008803+000000000+000001233+0000010036+0000000000+I40000010036+0000000000+Z
103156001103156563-000318-C   103156006003000403882SERVIETTES 33cm LIME   0000001000+00002192+00000+0001T   00002192+0000001442          1400 KG5214               1AZ
103156002103156563-000318-D   103156006003000404001SERVIETTES 33cm BLUE   0000002000+00002192+00000+0001T   00002192+0000001442          1400 KG5214               1AZ
103156003103156563-000318-L   103156006003000407088SERVIETTES 33cm RED    0000001000+00002192+00000+0001T   00002192+0000001442          1400 KG5214               1AZ
103156004103156112-116038     103156006003000534906TCS CARRIER BAG MIDI   0000001000+00000035+00000+0001T   00000035+0000001442          1400 KG5090               1AZ
103157000103157               103157               170213TA     1400+00000+TA0000008771+0000008771+000000000+000001228+0000009990+0000000009+I20000000000+0000009990+Z
103157001103157031-086302-C   103157006001023910332P/FRAME COLL. PL 3-HOLE0000001000+00008771+00000+0001T   00008771+0000001443          1400 KG5510               1AZ
103158000103158               103158               170213TA     1400+00000+TA0000003541+0000003541+000000000+000000497+0000004030+0000000008+I20000000000+0000004030+Z
103158001103158079-006500     103158006001023557186GLUE GLITTER 6/10 PCE  0000001000+00001753+00000+0001T   00001753+0000001444          1400 KG5130               1AZ
103158002103158566-000865     103158006001023788412STICKER ASSTD          0000001000+00001753+00000+0001T   00001753+0000001444          1400 KG5130               1AZ
103158003103158112-116038     103158006003000534906TCS CARRIER BAG MIDI   0000001000+00000035+00000+0001T   00000035+0000001444          1400 KG5090               1AZ
103159000103159               103159               170213TA     1400+00000+TA0000002192+0000002192+000000000+000000307+0000002490+0000000009+I20000000000+0000002490+Z
103159001103159080-000127     103159006003000424351VALENTINES DAY 36x24CM 0000001000+00002192+00000+0001T   00002192+0000001444          1400 KG5112               1AZ
103160000103160               103160               170213TA     1400+00000+TA0000000035+0000000035+000000000+000000005+0000000040+0000000000+I20000000000+0000000040+Z
103160001103160112-116038     103160006003000534906TCS CARRIER BAG MIDI   0000001000+00000035+00000+0001T   00000035+0000001445          1400 KG5090               1AZ
103161000103161               103161               170213TA     1400+00000+TA0000007014+0000007014+000000000+000000982+0000007996+0000000000+I40000007996+0000000000+Z
103161001103161018-000136     103161006001023659026MUG OCC LOVE W/PLUSH   0000002000+00003507+00000+0001T   00003507+0000001446          1400 KG5515               1AZ
103162000103162               103162               170213TA     1400+00000+TA0000007398+0000007398+000000000+000001038+0000008436+0000000000+I40000008436+0000000000+Z
103162001103162079-000280     103162006003000160723PAINT READYMIX 6PCE    0000001000+00002630+00000+0001T   00002630+0000001447          1400 KG5130               1AZ
103162002103162077-000245     103162006001023759214GIFT-RIBBON METALLICx2 0000001000+00001227+00000+0001T   00001227+0000001447          1400 KG5112               1AZ
103162003103162079-003010     103162006003000448845A/TUBE 75ML YELLOW     0000001000+00001753+00000+0001T   00001753+0000001447          1400 KG5130               1AZ
103162004103162007-000043     103162006009635831496DISPLAY-BOOK PL A4 20PG0000001000+00001753+00000+0001T   00001753+0000001447          1400 KG5130               1AZ
103162005103162112-116038     103162006003000534906TCS CARRIER BAG MIDI   0000001000+00000035+00000+0001T   00000035+0000001447          1400 KG5090               1AZ
103163000103163               103163               170213TA     1400+00000+TA0000005262+0000005262+000000000+000000737+0000005999+0000000000+I40000005999+0000000000+Z
103163001103163016-006501     103163006003000618507S/JAR GLS HERMETICO    0000001000+00005262+00000+0001T   00005262+0000001448          1400 KG5300               1AZ
103164000103164               103164               170213TA     1400+00000+TA0000002979+0000002979+000000000+000000418+0000003390+0000000007+I20000000000+0000003390+Z
103164001103164903-003050     103164008024431008239SWT CHOC CONE H/NUT 25G0000001000+00000876+00000+0001T   00000876+0000001449          1400 KG5150               1AZ
103164002103164903-000494     103164006001704009911SWT GUMMY TEENY TEDDIES0000001000+00000876+00000+0001T   00000876+0000001449          1400 KG5150               1AZ
103164003103164903-000518     103164006001704012782SWT STRAWS S/BERRY 100g0000001000+00001227+00000+0001T   00001227+0000001449          1400 KG5150               1AZ
103165000103165               103165               170213TA     1400+00000+TA0000004856+0000004856+000000000+000000680+0000005536+0000000000+I40000005536+0000000000+Z
103165001103165903-000844     103165005010478432567SWT CANDY DL LUV HEARTS0000001000+00001314+00000+0001T   00001314+0000001450          1400 KG5150               1AZ
103165002103165031-000923     103165006001023669933P/FRAME BLK W/WORDS    0000001000+00003507+00000+0001T   00003507+0000001450          1400 KG5510               1AZ
103165003103165112-116038     103165006003000534906TCS CARRIER BAG MIDI   0000001000+00000035+00000+0001T   00000035+0000001450          1400 KG5090               1AZ
103166000103166               103166               170213TA     1400+00000+TA0000005907+0000005907+000000000+000000829+0000006736+0000000000+I40000006736+0000000000+Z
103166001103166903-000895     103166006009680772256SWT MINI BOTZ S/BERRY  0000001000+00000788+00000+0001T   00000788+0000001451          1400 KG5150               1AZ
103166002103166007-000211     103166006003000005796STATIONERY N/PAD 3PCK  0000001000+00001578+00000+0001T   00001578+0000001451          1400 KG5130               1AZ
103166003103166200-000090     103166006001023802200PICNIC-PLATES SET-10   0000002000+00001753+00000+0001T   00001753+0000001451          1400 KG5214               1AZ
103166004103166112-116038     103166006003000534906TCS CARRIER BAG MIDI   0000001000+00000035+00000+0001T   00000035+0000001451          1400 KG5090               1AZ
103167000103167               103167               170213TA     1400+00000+TA0000010960+0000010960+000000000+000001537+0000012490+0000000007+I20000000000+0000012490+Z
103167001103167301-085007     103167006003000673698ORN OCC. LOVE S/PLAQUE 0000001000+00007893+00000+0001T   00007893+0000001452          1400 KG5505               1AZ
103167002103167083-000049     103167004891035200024CIG-LIGHTER DISPOSABLE 0000001000+00000437+00000+0001T   00000437+0000001452          1400 KG5315               1AZ
103167003103167077-000270     103167006003000395453GIFT-BAG PPR JMB 33X45 0000001000+00002630+00000+0001T   00002630+0000001452          1400 KG5112               1AZ
103168000103168               103168               170213TA     1400+00000+TA0000002192+0000002192+000000000+000000307+0000002490+0000000009+I20000000000+0000002490+Z
103168001103168031-000868-A   103168006001023798534P/FRAME PL BLCK 10X15CM0000001000+00002192+00000+0001T   00002192+0000001453          1400 KG5510               1AZ
103169000103169               103169               170213TA     1400+00000+TA0000017565+0000017565+000000000+000002465+0000020030+0000000000+I40000020030+0000000000+Z
103169001103169071-003011     103169006001023762825PEN STICKBALL X10 ASSTD0000001000+00001753+00000+0001T   00001753+0000001454          1400 KG5130               1AZ
103169002103169071-003012     103169006001023802996PEN CLICK 10PK BLUE    0000009000+00001753+00000+0001T   00001753+0000001454          1400 KG5130               1AZ
103169003103169112-116038     103169006003000534906TCS CARRIER BAG MIDI   0000001000+00000035+00000+0001T   00000035+0000001454          1400 KG5090               1AZ
103170000103170               103170               170213TA     1400+00000+TA0000008766+0000008766+000000000+000001229+0000009995+0000000000+I40000009995+0000000000+Z
103170001103170565-000876     103170006003000305759NOVELTY FUNKY SUNGLASS 0000001000+00003507+00000+0001T   00003507+0000001455          1400 KG5745               1AZ
103170002103170006-000120     103170006001023346889BALLOONS 10PC MIX COL  0000001000+00001753+00000+0001T   00001753+0000001455          1400 KG5131               1AZ
103170003103170077-000011     103170006003000542352PAPER RAFFIA ASSTD COL 0000001000+00001753+00000+0001T   00001753+0000001455          1400 KG5112               1AZ
103170004103170006-000120     103170006001023346889BALLOONS 10PC MIX COL  0000001000+00001753+00000+0001T   00001753+0000001455          1400 KG5131               1AZ
103171000103171               103171               170213TA     1400+00000+TA0000002192+0000002192+000000000+000000307+0000002490+0000000009+I20000000000+0000002490+Z
103171001103171080-000127     103171006003000424351VALENTINES DAY 36x24CM 0000001000+00002192+00000+0001T   00002192+0000001456          1400 KG5112               1AZ
103172000103172               103172               170213TA     1400+00000+TA0000001578+0000001578+000000000+000000221+0000001790+0000000009+I20000000000+0000001790+Z
103172001103172016-006515-A   103172006003000461707S/JAR GLS W/HANDLE 500 0000001000+00001578+00000+0001T   00001753+0008191457          1400 KG5300               1AZ
103173000103173               103173               170213TA     1400+00000+TA0000006165+0000006165+000000000+000000866+0000007031+0000000000+I40000007031+0000000000+Z
103173001103173079-003014     103173006003000633951PAINT ACRYLIC 75ml SILV0000001000+00002630+00000+0001T   00002630+0000001459          1400 KG5130               1AZ
103173002103173006-000167-C   103173006003000516971BALLOONS PINK METALLIC 0000002000+00001314+00000+0001T   00001314+0000001459          1400 KG5131               1AZ
103173003103173006-000172-A   103173006003000609765BALLOONS METALLIC PINK 0000004000+00000218+00000+0001T   00000218+0000001459          1400 KG5131               1AZ
103173004103173112-116038     103173006003000534906TCS CARRIER BAG MIDI   0000001000+00000035+00000+0001T   00000035+0000001459          1400 KG5090               1AZ
103174000103174               103174               170213TA     1400+00000+TA0000005262+0000005262+000000000+000000737+0000005999+0000000000+I40000005999+0000000000+Z
103174001103174104-000190     103174006001246040342DISH DRAINER PL ASSTD  0000001000+00005262+00000+0001T   00005262+0000001501          1400 KG5210               1AZ
103175000103175               103175               170213TA     1400+00000+TA0000003507+0000003507+000000000+000000491+0000003990+0000000008+I20000000000+0000003990+Z
103175001103175031-000847     103175006001023851871P/FRAME TWIN 10X15CM   0000001000+00003507+00000+0001T   00003507+0000001501          1400 KG5510               1AZ
103176000103176               103176               170213TA     1400+00000+TA0000002192+0000002192+000000000+000000307+0000002499+0000000000+I40000002499+0000000000+Z
103176001103176080-000127     103176006003000424351VALENTINES DAY 36x24CM 0000001000+00002192+00000+0001T   00002192+0000001502          1400 KG5112               1AZ
103177000103177               103177               170213TA     1400+00000+TA0000007220+0000007220+000000000+000001011+0000008230+0000000001+I20000000000+0000008230+Z
103177001103177903-000121     103177006002099001689SWT GS ZILLIONS SOURS  0000002000+00000700+00000+0001T   00000700+0000001503          1400 KG5150               1AZ
103177002103177903-000120     103177006002099001665SWEET GS ZILLIONS 50g  0000002000+00000700+00000+0001T   00000700+0000001503          1400 KG5150               1AZ
103177003103177031-080508     103177006001023802415P/FRAME PL 22X11CM LOVE0000001000+00004385+00000+0001T   00004385+0000001503          1400 KG5510               1AZ
103177004103177112-116038     103177006003000534906TCS CARRIER BAG MIDI   0000001000+00000035+00000+0001T   00000035+0000001503          1400 KG5090               1AZ
103178000103178               103178               170213TA     1400+00000+TA0000007015+0000007015+000000000+000000983+0000007998+0000000000+I40000007998+0000000000+Z
103178001103178903-000211     103178006002099001238SWT GS MALLOW ICE CREAM0000001000+00001753+00000+0001T   00001753+0000001505          1400 KG5150               1AZ
103178002103178562-000001     103178006009801541556MARLIN PLASTIC ABACUS  0000001000+00005262+00000+0001T   00005262+0000001505          1400 KG5755               1AZ
103179000103179               103179               170213TA     1400+00000+TA0000005262+0000005262+000000000+000000737+0000005999+0000000000+I40000005999+0000000000+Z
103179001103179562-000001     103179006009801541556MARLIN PLASTIC ABACUS  0000001000+00005262+00000+0001T   00005262+0000001506          1400 KG5755               1AZ
103180000103180               103180               170213TA     1400+00000+TA0000004909+0000004909+000000000+000000689+0000005598+0000000000+I40000005598+0000000000+Z
103180001103180027-000194     103180006001246602472MOP COMPLETE           0000001000+00002279+00000+0001T   00002279+0000001510          1400 KG5212               1AZ
103180002103180159-000684     103180006001023776532BATH BODY-GLOVE 18cm   0000001000+00002630+00000+0001T   00002630+0000001510          1400 KG5200               1AZ
103181000103181               103181               170213TA     1400+00000+TA0000003506+0000003506+000000000+000000492+0000003990+0000000008+I20000000000+0000003990+Z
103181001103181077-000270     103181006003000395453GIFT-BAG PPR JMB 33X45 0000001000+00002630+00000+0001T   00002630+0000001511          1400 KG5112               1AZ
103181002103181077-000011-D   103181006001023808554TISSUE-WRAP WHITE 10PCE0000001000+00000876+00000+0001T   00000876+0000001511          1400 KG5112               1AZ
103182000103182               103182               170213TA     1400+00000+TA0000006139+0000006139+000000000+000000860+0000006990+0000000009+I20000000000+0000006990+Z
103182001103182368-000175     103182006003000270316PLUSH BEAR 4 ASSTD 18CM0000001000+00006139+00000+0001T   00006139+0000001515          1400 KG5745               1AZ
103183000103183               103183               170213TA     1400+00000+TA0000001490+0000001490+000000000+000000209+0000001690+0000000009+I20000000000+0000001690+Z
103183001103183006-000805     103183000013994092418STREAMERS 10-ROLLS     0000001000+00001490+00000+0001T   00001490+0000001524          1400 KG5131               1AZ
103184000103184               103184               170213TA     1400+00000+TA0000004822+0000004822+000000000+000000676+0000005490+0000000008+I20000000000+0000005490+Z
103184001103184077-000270     103184006003000395453GIFT-BAG PPR JMB 33X45 0000001000+00002630+00000+0001T   00002630+0000001525          1400 KG5112               1AZ
103184002103184080-000127     103184006003000424351VALENTINES DAY 36x24CM 0000001000+00002192+00000+0001T   00002192+0000001525          1400 KG5112               1AZ
103185000103185               103185               170213TA     1400+00000+TA0000005518+0000005518+000000000+000000776+0000006294+0000000000+I40000006294+0000000000+Z
103185001103185031-000878-E   103185006003000602599P/FRAME PHOTO BOOTH    0000004000+00000788+00000+0001T   00000788+0000001526          1400 KG5510               1AZ
103185002103185031-000878-B   103185006001023799012P/FRAME 13x18cm PL-SLID0000001000+00001490+00000+0001T   00001490+0000001526          1400 KG5510               1AZ
103185003103185077-000011-F   103185006001023808431TISSUE-WRAP BLUE/LILAC 0000001000+00000876+00000+0001T   00000876+0000001526          1400 KG5112               1AZ
103186000103186               103186               170213TA     1400+00000+TA0000003067+0000003067+000000000+000000430+0000003497+0000000000+I40000003497+0000000000+Z
103186001103186051-002402     103186006001023518347TRIGGER-SPRAYER  500ml 0000001000+00001753+00000+0001T   00001753+0000001528          1400 KG5820               1AZ
103186002103186107-004105     103186006002923006040BUCKET 9L OPEN         0000001000+00001314+00000+0001T   00001314+0000001528          1400 KG5210               1AZ
103187000103187               103187               170213TA     1400+00000+TA0000001490+0000001490+000000000+000000209+0000001699+0000000000+I40000001699+0000000000+Z
103187001103187039-000108     103187006001023524034TEA-LITE CANDLES 8PCE  0000001000+00001490+00000+0001T   00001490+0000001531          1400 KG5510               1AZ
103188000103188               103188               170213TA     1400+00000+TA0000000876+0000000876+000000000+000000123+0000000990+0000000009+I20000000000+0000000990+Z
103188001103188903-003080     103188005907029004673SWT SNACK STIX CHOC 50g0000001000+00000876+00000+0001T   00000876+0000001536          1400 KG5150               1AZ
103189000103189               103189               170213TA     1400+00000+TA0000003278+0000003278+000000000+000000460+0000003730+0000000008+I20000000000+0000003730+Z
103189001103189027-009025     103189006003962000747DUSTPAN-SET PL         0000001000+00002630+00000+0001T   00002630+0000001537          1400 KG5212               1AZ
103189002103189306-000021     103189006001023169433EARBUDS 100PCE IN BAG  0000001000+00000613+00000+0001T   00000613+0000001537          1400 KG5200               1AZ
103189003103189112-116038     103189006003000534906TCS CARRIER BAG MIDI   0000001000+00000035+00000+0001T   00000035+0000001537          1400 KG5090               1AZ
103190000103190               103190               170213TA     1400+00000+TA0000002630+0000002630+000000000+000000369+0000002990+0000000009+I20000000000+0000002990+Z
103190001103190077-000270     103190006003000395453GIFT-BAG PPR JMB 33X45 0000001000+00002630+00000+0001T   00002630+0000001542          1400 KG5112               1AZ
103191000103191               103191               170213TA     1400+00000+TA0000005261-0000005261-000000000+000000737-0000006000-0000000002+I20000000000+0000006000-Z
103191001103191032-000138     103191006003000466191MIRROR STANDING PL SQR 0000001000-00003069+00000+0001T   00003069+0000001639          1400 KG55101IC            1 Z
103191002103191031-000868-A   103191006001023798534P/FRAME PL BLCK 10X15CM0000001000-00002192+00000+0001T   00002192+0000001639          1400 KG55101IC            1 Z
103192000103192               103192               170213TA     1400+00000+TA0000001753+0000001753+000000000+000000246+0000001990+0000000009+I20000000000+0000001990+Z
103192001103192077-000457     103192006003000285662G/BAG METALLIC JMB SOL 0000001000+00001753+00000+0001T   00001753+0000001640          1400 KG5112               1AZ
103193000103193               103193               170213TA     1400+00000+TA0000001490+0000001490+000000000+000000209+0000001690+0000000009+I20000000000+0000001690+Z
103193001103193071-009836     103193006001023591067BACK-TO-SCHOOL SET     0000001000+00001490+00000+0001T   00001490+0000001641          1400 KG5130               1AZ
103194000103194               103194               170213TA     1400+00000+TA0000003507+0000003507+000000000+000000491+0000003990+0000000008+I20000000000+0000003990+Z
103194001103194018-005009     103194006001023725608MUG W/PLUSH-BEAR LOVE  0000001000+00003507+00000+0001T   00003507+0000001642          1400 KG5515               1AZ
103195000103195               103195               170213TA     1400+00000+TA0000003507+0000003507+000000000+000000491+0000003990+0000000008+I20000000000+0000003990+Z
103195001103195018-000136     103195006001023659026MUG OCC LOVE W/PLUSH   0000001000+00003507+00000+0001T   00003507+0000001644          1400 KG5515               1AZ
103196000103196               103196               170213TA     1400+00000+TA0000003506+0000003506+000000000+000000492+0000003990+0000000008+I20000000000+0000003990+Z
103196001103196566-000007     103196006001023761187S/BOOK SUPER VALUE     0000002000+00001753+00000+0001T   00001753+0000001644          1400 KG5130               1AZ
103197000103197               103197               170213TA     1400+00000+TA0000003242-0000003242-000000000+000000455-0000003700-0000000003+I20000000000+0000003700-Z
103197001103197077-000011-F   103197006001023808431TISSUE-WRAP BLUE/LILAC 0000002000-00000876+00000+0001T   00000876+0000001721          1400 KG51121IC            1 Z
103197002103197006-000805     103197000013994092418STREAMERS 10-ROLLS     0000001000-00001490+00000+0001T   00001490+0000001721          1400 KG51311IC            1 Z
103198000103198               103198               170213TA     1400+00000+TA0000003803+0000003803+000000000+000000533+0000004330+0000000006+I20000000000+0000004330+Z
103198001103198493-059010     103198000078257590100BEACH-BALL COLOR-PANELS0000001000+00001490+00000+0001T   00001490+0000001725          1400 KG5787               1AZ
103198002103198564-000012     103198006001023130075BUBBLE BOTTLE MAGIC    0000001000+00000700+00000+0001T   00000700+0000001725          1400 KG5131               1AZ
103198003103198467-000001     103198006002923008280BEACH BUCKET PL 17x16cm0000001000+00001578+00000+0001T   00001578+0000001725          1400 KG5785               1AZ
103198004103198112-116038     103198006003000534906TCS CARRIER BAG MIDI   0000001000+00000035+00000+0001T   00000035+0000001725          1400 KG5090               1AZ
103199000103199               103199               170213TA     1400+00000+TA0000001753+0000001753+000000000+000000246+0000001990+0000000009+I20000000000+0000001990+Z
103199001103199077-000381     103199006003000247707GIFT-BAG 25X32CM S/COL 0000001000+00001753+00000+0001T   00001753+0000001726          1400 KG5112               1AZ
M17021391                              CASH        TASLAVE 1                       Z-REPORT No.   585TOTAL (Sales - Refunds)           8055.46       CASH TO BE BANKED                 4551.70       DEBIT CARDS                          0.00       CREDIT CARDS                      3503.76       Z-READING                         8055.46       AIRTIME DEBIT CARD SALES             0.00       AIRTIME CARD SALES                   0.00       OVERS/UNDERS                         0.00       AIRTIME CASH SALES                   0.00       GIFT CARDS                           0.00       GIFT CARD CASH SALES                 0.00       T O T A L  CASH PAYOUTS              0.00                                                                                                                                                                                                                                                                                                                                                      Z
M17021392                              CASH        TAABSENT                                                                                                                                                                                          ANNUAL LEAVE                                                                                                                                                                                    DAY OFF                                                                                                                                                                                         COMMENTS                                                                                                                                                                                                                                                                                                                                                                                       Z
Y17021300                                          TA00000000719030+000126
ZTA17021320233 SLAVE 1      SALES DATA                     NEXT INVOICE NO.  103200 0585
X TA Slave 1 First invoice 103071 170213 Last invoice 103199 170213 Next invoice 103200 Total number of records 000000406 clbackup completed 20:23:48
