113221000113221               113221               170213TA     1400+00000+TA0000006174+0000006174+000000000+000000865+0000007030+0000000009+I20000000000+0000007030+Z
113221001113221039-080960     113221006003000333998CANDLE PILLAR BALL 10CM0000001000+00006139+00000+0001T   00006139+0000000901          1400 AK6510               2AZ
113221002113221112-116038     113221006009681820246TCS CARRIER BAG MIDI   0000001000+00000035+00000+0001T   00000035+0000000901          1400 AK6090               2AZ
113222000113222               113222               170213TA     1400+00000+TA0000005295+0000005295+000000000+000000743+0000006030+0000000008+I20000000000+0000006030+Z
113222001113222071-001124     113222006001023802873MARKERS WHITEBOARD 3PCE0000002000+00002630+00000+0001T   00002630+0000000902          1400 AK6130               2AZ
113222002113222112-116038     113222006009681820246TCS CARRIER BAG MIDI   0000001000+00000035+00000+0001T   00000035+0000000902          1400 AK6090               2AZ
113223000113223               113223               170213TA     1400+00000+TA0000002455+0000002455+000000000+000000344+0000002790+0000000009+I20000000000+0000002790+Z
113223001113223562-000009     113223000730589212029PLAY MODELLING CARDED  0000001000+00002455+00000+0001T   00002455+0000000915          1400 AK6755               2AZ
113224000113224               113224               170213TA     1400+00000+TA0000001753+0000001753+000000000+000000246+0000001990+0000000009+I20000000000+0000001990+Z
113224001113224088-000108     113224006001023765536POTPOURRI-OIL 10ml ASST0000001000+00001753+00000+0001T   00001753+0000000920          1400 AK6212               2AZ
113225000113225               113225               170213TA     1400+00000+TA0000003027+0000003027+000000000+000000425+0000003450+0000000002+I20000000000+0000003450+Z
113225001113225007-000555     113225006001023848239MEMO-PAD MINI LOVE     0000002000+00000613+00000+0001T   00000613+0000000921          1400 AK6130               2AZ
113225002113225077-000299-A   113225006003000670888GIFT-BAG PAPER JMB LOVE0000001000+00001753+00000+0001T   00001753+0000000921          1400 AK6112               2AZ
113225003113225112-116069     113225006009681820277TCS CARRIER BAG JUMBO  0000001000+00000048+00000+0001T   00000048+0000000921          1400 AK6090               2AZ
113226000113226               113226               170213TA     1400+00000+TA0000004385+0000004385+000000000+000000614+0000004990+0000000009+I20000000000+0000004990+Z
113226001113226368-000001     113226006003000097982Plush Bear 25cm        0000001000+00004385+00000+0001T   00004385+0000000924          1400 AK6745               2AZ
113227000113227               113227               170213TA     1400+00000+TA0000006139+0000006139+000000000+000000860+0000006999+0000000000+I40000006999+0000000000+Z
113227001113227567-075497     113227009780799381658BK NOVEL ROMANCE AFR   0000001000+00006139+00000+0001T   00006139+0000000934          1400 AK6757               2AZ
113228000113228               113228               170213TA     1400+00000+TA0000005294+0000005294+000000000+000000743+0000006030+0000000007+I20000000000+0000006030+Z
113228001113228079-003002     113228006003000447886A/TUBE 75ML RED        0000001000+00001753+00000+0001T   00001753+0000000951          1400 AK6130               2AZ
113228002113228079-013099     113228006003000081875ART+CRAFT EYES ASSTD   0000002000+00001753+00000+0001T   00001753+0000000951          1400 AK6130               2AZ
113228003113228112-116038     113228006009681820246TCS CARRIER BAG MIDI   0000001000+00000035+00000+0001T   00000035+0000000951          1400 AK6090               2AZ
113229000113229               113229               170213TA     1400+00000+TA0000006435+0000006435+000000000+000000902+0000007337+0000000000+I40000007337+0000000000+Z
113229001113229112-116038     113229006009681820246TCS CARRIER BAG MIDI   0000001000+00000035+00000+0001T   00000035+0000000957          1400 AK6090               2AZ
113229002113229301-085008     113229006003000673933ORN OCC.LOVE TINSEL HRT0000001000+00003069+00000+0001T   00003069+0000000957          1400 AK6505               2AZ
113229003113229046-000014     113229006001023725387BATTERIES SIZE:AAA 4PCE0000001000+00001139+00000+0001T   00001139+0000000957          1400 AK6312               2AZ
113229004113229563-000318-L   113229006003000407088SERVIETTES 33cm RED    0000001000+00002192+00000+0001T   00002192+0000000957          1400 AK6214               2AZ
113230000113230               113230               170213TA     1400+00000+TA0000012059+0000012059+000000000+000001689+0000013748+0000000000+I40000013748+0000000000+Z
113230001113230112-116069     113230006009681820277TCS CARRIER BAG JUMBO  0000001000+00000048+00000+0001T   00000048+0000000959          1400 AK6090               2AZ
113230002113230077-000299     113230006003000395576G/BAG 32x25cm LRG LOVE 0000001000+00001490+00000+0001T   00001490+0000000959          1400 AK6112               2AZ
113230003113230031-000923     113230006001023669933P/FRAME BLK W/WORDS    0000001000+00003507+00000+0001T   00003507+0000000959          1400 AK6510               2AZ
113230004113230031-006228     113230006003000142293P/FRAME+PLAQUE 10X15CM 0000001000+00003507+00000+0001T   00003507+0000000959          1400 AK65102IC            2AZ
113230005113230031-000025     113230006003000427185P/FRAME PL MOMMY       0000001000+00003507+00000+0001T   00003507+0000000959          1400 AK6510               2AZ
113231000113231               113231               170213TA     1400+00000+TA0000006696+0000006696+000000000+000000939+0000007630+0000000005+I20000000000+0000007630+Z
113231001113231261-002267     113231006001023665126GUN 8-SHOT SUPER-CAP   0000001000+00001753+00000+0001T   00001753+0000001000          1400 AK6710               2AZ
113231002113231263-000559     113231006003000671908VEHICLE TAPE 5m 4.8cm  0000001000+00003069+00000+0001T   00003069+0000001000          1400 AK6710               2AZ
113231003113231903-000087     113231006001704000161SWT SPECKLED-EGGS 50G  0000001000+00001139+00000+0001T   00001139+0000001000          1400 AK6150               2AZ
113231004113231261-000121     113231006001023341600GUN-CAPS 8-SHOT CARD-9 0000001000+00000700+00000+0001T   00000700+0000001000          1400 AK6710               2AZ
113231005113231112-116038     113231006009681820246TCS CARRIER BAG MIDI   0000001000+00000035+00000+0001T   00000035+0000001000          1400 AK6090               2AZ
113232000113232               113232               170213TA     1400+00000+TA0000008806+0000008806+000000000+000001233+0000010039+0000000000+I40000010039+0000000000+Z
113232001113232039-000799     113232006001023692382CANDLES TEALITE 100PCE 0000001000+00008771+00000+0001T   00008771+0000001002          1400 AK6510               2AZ
113232002113232112-116038     113232006009681820246TCS CARRIER BAG MIDI   0000001000+00000035+00000+0001T   00000035+0000001002          1400 AK6090               2AZ
113233000113233               113233               170213TA     1400+00000+TA0000001349+0000001349+000000000+000000189+0000001530+0000000008+I20000000000+0000001530+Z
113233001113233006-000167-C   113233006003000516971BALLOONS PINK METALLIC 0000001000+00001314+00000+0001T   00001314+0000001004          1400 AK6131               2AZ
113233002113233112-116038     113233006009681820246TCS CARRIER BAG MIDI   0000001000+00000035+00000+0001T   00000035+0000001004          1400 AK6090               2AZ
113234000113234               113234               170213TA     1400+00000+TA0000000700+0000000700+000000000+000000098+0000000790+0000000008+I20000000000+0000000790+Z
113234001113234903-000120     113234006002099001665SWEET GS ZILLIONS 50g  0000001000+00000700+00000+0001T   00000700+0000001004          1400 AK6150               2AZ
113235000113235               113235               170213TA     1400+00000+TA0000000876+0000000876+000000000+000000123+0000000990+0000000009+I20000000000+0000000990+Z
113235001113235078-000025     113235008887013700064SUPERGLUE 3g 1PCE CARD 0000001000+00000876+00000+0001T   00000876+0000001006          1400 AK6810               2AZ
113236000113236               113236               170213TA     1400+00000+TA0000003243+0000003243+000000000+000000455+0000003698+0000000000+I40000003698+0000000000+Z
113236001113236206-000370     113236006003000631315STRAW P/DRINKING GLASS 0000001000+00001753+00000+0001T   00001753+0000001142          1400 AK6321               2AZ
113236002113236006-000096     113236006003000610969BANNER CELEBRATION     0000001000+00001490+00000+0001T   00001490+0000001142          1400 AK6131               2AZ
113237000113237               113237               170213TA     1400+00000+TA0000006174+0000006174+000000000+000000865+0000007039+0000000000+I40000007039+0000000000+Z
113237001113237103-000068     113237006003000630486BAMBOO BASKET RECTANGLE0000001000+00006139+00000+0001T   00006139+0000001143          1400 AK6300               2AZ
113237002113237112-116038     113237006009681820246TCS CARRIER BAG MIDI   0000001000+00000035+00000+0001T   00000035+0000001143          1400 AK6090               2AZ
113238000113238               113238               170213TA     1400+00000+TA0000009152+0000009152+000000000+000001283+0000010435+0000000000+I40000010435+0000000000+Z
113238001113238112-116038     113238006009681820246TCS CARRIER BAG MIDI   0000001000+00000035+00000+0001T   00000035+0000001145          1400 AK6090               2AZ
113238002113238007-000206     113238006009635830215X/PAD 80-SHEETS PUNCHED0000001000+00001227+00000+0001T   00001227+0000001145          1400 AK6130               2AZ
113238003113238567-011441     113238009781842395752BK STICKER FAIRY PRINCE0000001000+00003507+00000+0001T   00003507+0000001145          1400 AK6757               2AZ
113238004113238007-000557     113238006003000379484DIARY GIRL W/LOCK 50PG 0000001000+00002630+00000+0001T   00002630+0000001145          1400 AK6130               2AZ
113238005113238079-000341     113238006920705495519FELT-TIP PENS 12PCE    0000001000+00001753+00000+0001T   00001753+0000001145          1400 AK6130               2AZ
113239000113239               113239               170213TA     1400+00000+TA0000011534+0000011534+000000000+000001617+0000013150+0000000001+I20000000000+0000013150+Z
113239001113239112-116069     113239006009681820277TCS CARRIER BAG JUMBO  0000001000+00000048+00000+0001T   00000048+0000001147          1400 AK6090               2AZ
113239002113239077-000323     113239006001023677563G/BAG 25X32CM E/DAY FLO0000001000+00001578+00000+0001T   00001578+0000001147          1400 AK6112               2AZ
113239003113239012-000004     113239006001023496065MICRO STEAM-COOKER     0000001000+00007016+00000+0001T   00007016+0000001147          1400 AK6300               2AZ
113239004113239002-000801     113239006003000555994PEELER PL/MTL Y-SHAPE  0000001000+00001139+00000+0001T   00001139+0000001147          1400 AK6300               2AZ
113239005113239071-081112     113239006936198404945CORRECTION TAPE 10mx5mm0000001000+00001753+00000+0001T   00001753+0000001147          1400 AK6130               2AZ
113240000113240               113240               170213TA     1400+00000+TA0000001489+0000001489+000000000+000000209+0000001698+0000000000+I40000001698+0000000000+Z
113240001113240047-000001-BB  113240006001023723536INS-TAPE BLACK 18mmx10m0000001000+00000613+00000+0001T   00000613+0000001151          1400 AK6880               2AZ
113240002113240047-001333     113240006001838000495PLUGTOP CHUBBY         0000001000+00000876+00000+0001T   00000876+0000001151          1400 AK6880               2AZ
113241000113241               113241               170213TA     1400+00000+TA0000012571+0000012571+000000000+000001763+0000014334+0000000000+I40000014334+0000000000+Z
113241001113241565-000255     113241006003000585168NOVELTY GLOW SLIME     0000001000+00002455+00000+0001T   00002455+0000001153          1400 AK6745               2AZ
113241002113241112-116038     113241006009681820246TCS CARRIER BAG MIDI   0000001000+00000035+00000+0001T   00000035+0000001153          1400 AK6090               2AZ
113241003113241565-000255     113241006003000585168NOVELTY GLOW SLIME     0000001000+00002455+00000+0001T   00002455+0000001153          1400 AK6745               2AZ
113241004113241565-000889     113241006003000626953NOVELTY SPACE BALLOONS 0000001000+00001753+00000+0001T   00001753+0000001153          1400 AK6745               2AZ
113241005113241565-000888     113241006003000607846NOVELTY MESH BALL      0000001000+00001753+00000+0001T   00001753+0000001153          1400 AK6745               2AZ
113241006113241019-071610     113241006001023904560PEBBLES WATER GEMS 10g 0000001000+00001490+00000+0001T   00001490+0000001153          1400 AK6510               2AZ
113241007113241106-001099     113241006003000653447WATER BOTTLE 650ml     0000001000+00002630+00000+0001T   00002630+0000001153          1400 AK6210               2AZ
113242000113242               113242               170213TA     1400+00000+TA0000008771+0000008771+000000000+000001228+0000009999+0000000000+I40000009999+0000000000+Z
113242001113242072-020242     113242000694202201794PET BED COTTON TEXTILE 0000001000+00008771+00000+0001T   00008771+0000001155          1400 AK6870               2AZ
113243000113243               113243               170213TA     1400+00000+TA0000007629+0000007629+000000000+000001069+0000008698+0000000000+I40000008698+0000000000+Z
113243001113243368-000701     113243006003000477432PLUSH DOG              0000001000+00006139+00000+0001T   00006139+0000001218          1400 AK6745               2AZ
113243002113243565-004101     113243006003000548033BALL BOUNCING EGG      0000001000+00001490+00000+0001T   00001490+0000001218          1400 AK6745               2AZ
113244000113244               113244               170213TA     1400+00000+TA0000008854+0000008854+000000000+000001241+0000010095+0000000000+I40000010095+0000000000+Z
113244001113244039-000635     113244006001023774521CANDLE VTV 4PC WHITE   0000003000+00002192+00000+0001T   00002192+0000001318          1400 AK6510               2AZ
113244002113244041-000301     113244006003000422708SKIN HAND CREAM 120ml  0000001000+00001753+00000+0001T   00001753+0000001318          1400 AK6200               2AZ
113244003113244306-000019     113244006001023734846TOOTHBRUSH W/DESIGN    0000001000+00000525+00000+0001T   00000525+0000001318          1400 AK6200               2AZ
113245000113245               113245               170213TA     1400+00000+TA0000004767+0000004767+000000000+000000670+0000005437+0000000000+I40000005437+0000000000+Z
113245001113245112-116038     113245006009681820246TCS CARRIER BAG MIDI   0000001000+00000035+00000+0001T   00000035+0000001320          1400 AK6090               2AZ
113245002113245039-000024     113245006003000286300C/TAPERED 25CM M/WHITE 0000002000+00001051+00000+0001T   00001051+0000001320          1400 AK6510               2AZ
113245003113245039-081008     113245006008766081008CANDLES 9PCE SCENTED   0000001000+00002630+00000+0001T   00002630+0000001320          1400 AK6510               2AZ
113246000113246               113246               170213TA     1400+00000+TA0000007051+0000007051+000000000+000000988+0000008039+0000000000+I40000008039+0000000000+Z
113246001113246112-116038     113246006009681820246TCS CARRIER BAG MIDI   0000001000+00000035+00000+0001T   00000035+0000001321          1400 AK6090               2AZ
113246002113246267-000905     113246006003000636211PUZZLE FLOOR JIGSAW    0000001000+00007016+00000+0001T   00007016+0000001321          1400 AK6755               2AZ
113247000113247               113247               170213TA     1400+00000+TA0000002665+0000002665+000000000+000000374+0000003030+0000000009+I20000000000+0000003030+Z
113247001113247079-001002     113247006003000448715CANVAS A4 WOOD MOUNTED 0000001000+00002630+00000+0001T   00002630+0000001326          1400 AK6130               2AZ
113247002113247112-116038     113247006009681820246TCS CARRIER BAG MIDI   0000001000+00000035+00000+0001T   00000035+0000001326          1400 AK6090               2AZ
113248000113248               113248               170213TA     1400+00000+TA0000002192+0000002192+000000000+000000307+0000002490+0000000009+I20000000000+0000002490+Z
113248001113248007-000095     113248006003000530434ENVELOPES WHITE 20PK C60000001000+00002192+00000+0001T   00002192+0000001327          1400 AK6130               2AZ
113249000113249               113249               170213TA     1400+00000+TA0000005347+0000005347+000000000+000000750+0000006097+0000000000+I40000006097+0000000000+Z
113249001113249039-081008     113249006008766081008CANDLES 9PCE SCENTED   0000001000+00002630+00000+0001T   00002630+0000001333          1400 AK6510               2AZ
113249002113249903-000519     113249006001704012805SWT MS LIQ-O-GHETTI    0000001000+00001227+00000+0001T   00001227+0000001333          1400 AK6150               2AZ
113249003113249039-000108     113249006001023524034TEA-LITE CANDLES 8PCE  0000001000+00001490+00000+0001T   00001490+0000001333          1400 AK6510               2AZ
113250000113250               113250               170213TA     1400+00000+TA0000001227+0000001227+000000000+000000172+0000001390+0000000009+I20000000000+0000001390+Z
113250001113250903-000519     113250006001704012805SWT MS LIQ-O-GHETTI    0000001000+00001227+00000+0001T   00001227+0000001334          1400 AK6150               2AZ
113251000113251               113251               170213TA     1400+00000+TA0000008771+0000008771+000000000+000001228+0000009990+0000000009+I20000000000+0000009990+Z
113251001113251368-000614     113251006001023705808PLUSH LOVE 30cm        0000001000+00008771+00000+0001T   00008771+0000001338          1400 AK6745               2AZ
113252000113252               113252               170213TA     1400+00000+TA0000012279+0000012279+000000000+000001720+0000000000+0000000000+ 00000000000+0000000000+Z
113252001113252368-000111     113252006001023780812PLUSH BEAR/DOG 29CM    0000001000+00012279+00000+0001T   00012279+000000              1400 AK67451IC            2 Z
113253000113253               113253               170213TA     1400+00000+TA0000004681+0000004681+000000000+000000656+0000005330+0000000007+I20000000000+0000005330+Z
113253001113253903-000699     113253006002099007018SWT CANDY FRUIT CHEWS  0000001000+00001139+00000+0001T   00001139+0000001558          1400 AK6150               2AZ
113253002113253018-005009     113253006001023725608MUG W/PLUSH-BEAR LOVE  0000001000+00003507+00000+0001T   00003507+0000001558          1400 AK6515               2AZ
113253003113253112-116038     113253006009681820246TCS CARRIER BAG MIDI   0000001000+00000035+00000+0001T   00000035+0000001558          1400 AK6090               2AZ
113254000113254               113254               170213TA     1400+00000+TA0000011926+0000011926+000000000+000001671+0000013597+0000000000+I40000013597+0000000000+Z
113254001113254024-000165-C   113254006003000674312N/STICK B/WARE LOAF PAN0000002000+00005262+00000+0001T   00005262+0000001600          1400 AK6300               2AZ
113254002113254047-000153     113254006001023596475SOCKET-PROTECTORS 4PCE 0000001000+00001402+00000+0001T   00001402+0000001600          1400 AK6880               2AZ
113255000113255               113255               170213TA     1400+00000+TA0000008366+0000008366+000000000+000001172+0000009530+0000000008+I20000000000+0000009530+Z
113255001113255563-000318-L   113255006003000407088SERVIETTES 33cm RED    0000001000+00002192+00000+0001T   00002192+0000001601          1400 AK6214               2AZ
113255002113255019-000051     113255006003000457304VASE GLS ASSORTED      0000001000+00006139+00000+0001T   00006139+0000001601          1400 AK6510               2AZ
113255003113255112-116038     113255006009681820246TCS CARRIER BAG MIDI   0000001000+00000035+00000+0001T   00000035+0000001601          1400 AK6090               2AZ
113256000113256               113256               170213TA     1400+00000+TA0000000876+0000000876+000000000+000000123+0000000990+0000000009+I20000000000+0000000990+Z
113256001113256077-000314     113256006003000181148GIFT-BAG 11X14CM MATT  0000001000+00000876+00000+0001T   00000876+0000001602          1400 AK6112               2AZ
113257000113257               113257               170213TA     1400+00000+TA0000003069+0000003069+000000000+000000430+0000003490+0000000009+I20000000000+0000003490+Z
113257001113257301-085008     113257006003000673933ORN OCC.LOVE TINSEL HRT0000001000+00003069+00000+0001T   00003069+0000001603          1400 AK6505               2AZ
113258000113258               113258               170213TA     1400+00000+TA0000005296+0000005296+000000000+000000742+0000006030+0000000008+I20000000000+0000006030+Z
113258001113258031-000868-A   113258006001023798534P/FRAME PL BLCK 10X15CM0000001000+00002192+00000+0001T   00002192+0000001623          1400 AK6510               2AZ
113258002113258032-000138     113258006003000466191MIRROR STANDING PL SQR 0000001000+00003069+00000+0001T   00003069+0000001623          1400 AK6510               2AZ
113258003113258112-116038     113258006009681820246TCS CARRIER BAG MIDI   0000001000+00000035+00000+0001T   00000035+0000001623          1400 AK6090               2AZ
113259000113259               113259               170213TA     1400+00000+TA0000006873+0000006873+000000000+000000963+0000007830+0000000006+I20000000000+0000007830+Z
113259001113259047-002040-H   113259006003000219117P/ADAPTOR 3x16A 3x5A   0000001000+00004385+00000+0001T   00004385+0000001624          1400 AK6880               2AZ
113259002113259046-000014     113259006001023725387BATTERIES SIZE:AAA 4PCE0000001000+00001139+00000+0001T   00001139+0000001624          1400 AK6312               2AZ
113259003113259046-000012     113259006904708013062BATTERIES AA  CARD-OF-40000001000+00001314+00000+0001T   00001314+0000001624          1400 AK6312               2AZ
113259004113259112-116038     113259006009681820246TCS CARRIER BAG MIDI   0000001000+00000035+00000+0001T   00000035+0000001624          1400 AK6090               2AZ
113260000113260               113260               170213TA     1400+00000+TA0000003506+0000003506+000000000+000000492+0000003998+0000000000+I40000003998+0000000000+Z
113260001113260077-000457     113260006003000285662G/BAG METALLIC JMB SOL 0000001000+00001753+00000+0001T   00001753+0000001627          1400 AK6112               2AZ
113260002113260047-000507     113260006001023684479PLUG-ADAPTOR EURO TWIN 0000001000+00001753+00000+0001T   00001753+0000001627          1400 AK6880               2AZ
113261000113261               113261               170213TA     1400+00000+TA0000003542+0000003542+000000000+000000496+0000004030+0000000008+I20000000000+0000004030+Z
113261001113261072-000010     113261006001023604392PET CAR SEAT COVER     0000001000+00003507+00000+0001T   00003507+0000001628          1400 AK6870               2AZ
113261002113261112-116038     113261006009681820246TCS CARRIER BAG MIDI   0000001000+00000035+00000+0001T   00000035+0000001628          1400 AK6090               2AZ
113262000113262               113262               170213TA     1400+00000+TA0000004383+0000004383+000000000+000000615+0000004990+0000000008+I20000000000+0000004990+Z
113262001113262077-000270     113262006003000395453GIFT-BAG PPR JMB 33X45 0000001000+00002630+00000+0001T   00002630+0000001629          1400 AK6112               2AZ
113262002113262080-000113     113262006003000237449CARD&ENVLPE - LOVE     0000001000+00001753+00000+0001T   00001753+0000001629          1400 AK6112               2AZ
113263000113263               113263               170213TA     1400+00000+TA0000001753+0000001753+000000000+000000246+0000001990+0000000009+I20000000000+0000001990+Z
113263001113263077-000381     113263006003000247707GIFT-BAG 25X32CM S/COL 0000001000+00001753+00000+0001T   00001753+0000001631          1400 AK6112               2AZ
113264000113264               113264               170213TA     1400+00000+TA0000001753+0000001753+000000000+000000246+0000001990+0000000009+I20000000000+0000001990+Z
113264001113264077-000381     113264006003000247707GIFT-BAG 25X32CM S/COL 0000001000+00001753+00000+0001T   00001753+0000001631          1400 AK6112               2AZ
113265000113265               113265               170213TA     1400+00000+TA0000002970+0000002970+000000000+000000417+0000003387+0000000000+I40000003387+0000000000+Z
113265001113265007-000723     113265006003000226078MEMO BOOK W/PEN 100SHTS0000001000+00001753+00000+0001T   00001753+0000001633          1400 AK6130               2AZ
113265002113265076-000017     113265006001811010022TWINE COTTON 50g-BALL  0000001000+00000876+00000+0001T   00000876+0000001633          1400 AK6810               2AZ
113265003113265112-116038     113265006009681820246TCS CARRIER BAG MIDI   0000001000+00000035+00000+0001T   00000035+0000001633          1400 AK6090               2AZ
113265004113265079-009700-M   113265006003000634101PAPER SIRIO A4 PINK COL0000001000+00000306+00000+0001T   00000306+0000001633          1400 AK6130               2AZ
113266000113266               113266               170213TA     1400+00000+TA0000003015+0000003015+000000000+000000423+0000003430+0000000008+I20000000000+0000003430+Z
113266001113266077-000351     113266006003000139033GIFT-BAG 18X23CM E/D P 0000001000+00001753+00000+0001T   00001753+0000001634          1400 AK6112               2AZ
113266002113266077-000245     113266006001023759214GIFT-RIBBON METALLICx2 0000001000+00001227+00000+0001T   00001227+0000001634          1400 AK6112               2AZ
113266003113266112-116038     113266006009681820246TCS CARRIER BAG MIDI   0000001000+00000035+00000+0001T   00000035+0000001634          1400 AK6090               2AZ
113267000113267               113267               170213TA     1400+00000+TA0000001490+0000001490+000000000+000000209+0000001690+0000000009+I20000000000+0000001690+Z
113267001113267077-000304     113267006001023483232GIFT-BAG 25X32CM E/DAY 0000001000+00001490+00000+0001T   00001490+0000001634          1400 AK6112               2AZ
113268000113268               113268               170213TA     1400+00000+TA0000008771+0000008771+000000000+000001228+0000009990+0000000009+I20000000000+0000009990+Z
113268001113268039-000799     113268006001023692382CANDLES TEALITE 100PCE 0000001000+00008771+00000+0001T   00008771+0000001636          1400 AK6510               2AZ
113269000113269               113269               170213TA     1400+00000+TA0000013058+0000013058+000000000+000001831+0000014889+0000000000+I40000014889+0000000000+Z
113269001113269079-001001     113269006003000448593CANVAS A3 WOOD MOUNTED 0000001000+00004385+00000+0001T   00004385+0000001639          1400 AK6130               2AZ
113269002113269112-116038     113269006009681820246TCS CARRIER BAG MIDI   0000001000+00000035+00000+0001T   00000035+0000001639          1400 AK6090               2AZ
113269003113269079-000275     113269006003000160488PAINT-BRUSHES 6PCE PRO 0000001000+00001753+00000+0001T   00001753+0000001639          1400 AK6130               2AZ
113269004113269079-000514     113269009556341898321CRAYONS WAX 24-COLOUR  0000001000+00002630+00000+0001T   00002630+0000001639          1400 AK6130               2AZ
113269005113269079-003001     113269006003000448951A/TUBE 75ML BLACK      0000001000+00001753+00000+0001T   00001753+0000001639          1400 AK6130               2AZ
113269006113269022-002109     113269006001023501745MUG 6cm DEC            0000002000+00001227+00000+0001T   00001227+0000001639          1400 AK6305               2AZ
113269007113269112-116069     113269006009681820277TCS CARRIER BAG JUMBO  0000001000+00000048+00000+0001T   00000048+0000001639          1400 AK6090               2AZ
113270000113270               113270               170213TA     1400+00000+TA0000000876+0000000876+000000000+000000123+0000000990+0000000009+I20000000000+0000000990+Z
113270001113270077-000011-D   113270006001023808554TISSUE-WRAP WHITE 10PCE0000001000+00000876+00000+0001T   00000876+0000001639          1400 AK6112               2AZ
113271000113271               113271               170213TA     1400+00000+TA0000001753+0000001753+000000000+000000246+0000001999+0000000000+B00000000000+0000000000+Z
113271001113271077-000457     113271006003000285662G/BAG METALLIC JMB SOL 0000001000+00001753+00000+0001T   00001753+000000              1400 AK6112               2AZ
113272000113272               113272               170213TA     1400+00000+TA0000024603+0000024603+000000000+000003448+0000028050+0000000001+I20000000000+0000028050+Z
113272001113272031-001008     113272006003000406494P/FRAME COLLAGE PLASTIC0000001000+00012279+00000+0001T   00012279+0000001644          1400 AK6510               2AZ
113272002113272206-000390     113272006003000631438STRAW PL BUILD A STRAW 0000001000+00002630+00000+0001T   00002630+0000001644          1400 AK6321               2AZ
113272003113272301-085007     113272006003000673698ORN OCC. LOVE S/PLAQUE 0000001000+00007893+00000+0001T   00007893+0000001644          1400 AK6505               2AZ
113272004113272006-000804     113272006003000574445STREAMERS 6-ROLLS 2.5cm0000001000+00001753+00000+0001T   00001753+0000001644          1400 AK6131               2AZ
113272005113272112-116069     113272006009681820277TCS CARRIER BAG JUMBO  0000001000+00000048+00000+0001T   00000048+0000001644          1400 AK6090               2AZ
113273000113273               113273               170213TA     1400+00000+TA0000009063+0000009063+000000000+000001272+0000010335+0000000000+I40000010335+0000000000+Z
113273001113273006-000093     113273006003000539932PARTY BANNER FLAGS ASST0000003000+00001753+00000+0001T   00001753+0000001648          1400 AK6131               2AZ
113273002113273006-000803     113273006003000653676STREAMERS SET 3ROLLS   0000001000+00002630+00000+0001T   00002630+0000001648          1400 AK6131               2AZ
113273003113273903-000087     113273006001704000161SWT SPECKLED-EGGS 50G  0000001000+00001139+00000+0001T   00001139+0000001648          1400 AK6150               2AZ
113273004113273112-116038     113273006009681820246TCS CARRIER BAG MIDI   0000001000+00000035+00000+0001T   00000035+0000001648          1400 AK6090               2AZ
113274000113274               113274               170213TA     1400+00000+TA0000007311+0000007311+000000000+000001025+0000008336+0000000000+I40000008336+0000000000+Z
113274001113274018-030000     113274006003000421060MUG OCCASIONS LOVE 2PCE0000001000+00004385+00000+0001T   00004385+0000001652          1400 AK6515               2AZ
113274002113274077-000302     113274008010410010195GIFT-BAG 18X23CM E/D   0000001000+00000876+00000+0001T   00000876+0000001652          1400 AK6112               2AZ
113274003113274903-000295     113274006001704002899SWT MS FRUITY RASCALS  0000001000+00000876+00000+0001T   00000876+0000001652          1400 AK6150               2AZ
113274004113274903-000087     113274006001704000161SWT SPECKLED-EGGS 50G  0000001000+00001139+00000+0001T   00001139+0000001652          1400 AK6150               2AZ
113274005113274112-116038     113274006009681820246TCS CARRIER BAG MIDI   0000001000+00000035+00000+0001T   00000035+0000001652          1400 AK6090               2AZ
113275000113275               113275               170213TA     1400+00000+TA0000001490+0000001490+000000000+000000209+0000001690+0000000009+I20000000000+0000001690+Z
113275001113275263-000413     113275006003000600458VEHICLE RACER PULL BACK0000001000+00001490+00000+0001T   00001490+0000001652          1400 AK6710               2AZ
113276000113276               113276               170213TA     1400+00000+TA0000002892+0000002892+000000000+000000406+0000003298+0000000000+I40000003298+0000000000+Z
113276001113276903-000087     113276006001704000161SWT SPECKLED-EGGS 50G  0000001000+00001139+00000+0001T   00001139+0000001653          1400 AK6150               2AZ
113276002113276077-000381     113276006003000247707GIFT-BAG 25X32CM S/COL 0000001000+00001753+00000+0001T   00001753+0000001653          1400 AK6112               2AZ
113277000113277               113277               170213TA     1400+00000+TA0000002630+0000002630+000000000+000000369+0000002990+0000000009+I20000000000+0000002990+Z
113277001113277304-001126     113277006001023845047FLWR BUNCH GERBERA 31cm0000001000+00002630+00000+0001T   00002630+0000001654          1400 AK6510               2AZ
113278000113278               113278               170213TA     1400+00000+TA0000001753+0000001753+000000000+000000246+0000001999+0000000000+I40000001999+0000000000+Z
113278001113278051-002402     113278006001023518347TRIGGER-SPRAYER  500ml 0000001000+00001753+00000+0001T   00001753+0000001655          1400 AK6820               2AZ
113279000113279               113279               170213TA     1400+00000+TA0000006625+0000006625+000000000+000000928+0000007550+0000000003+I20000000000+0000007550+Z
113279001113279080-000127     113279006003000424351VALENTINES DAY 36x24CM 0000001000+00002192+00000+0001T   00002192+0000001658          1400 AK6112               2AZ
113279002113279368-000001     113279006003000097982Plush Bear 25cm        0000001000+00004385+00000+0001T   00004385+0000001658          1400 AK6745               2AZ
113279003113279112-116069     113279006009681820277TCS CARRIER BAG JUMBO  0000001000+00000048+00000+0001T   00000048+0000001658          1400 AK6090               2AZ
113280000113280               113280               170213TA     1400+00000+TA0000007893+0000007893+000000000+000001106+0000008990+0000000009+I20000000000+0000008990+Z
113280001113280035-000023     113280006001023898944UMBRELLA WITH PL COVER 0000001000+00007893+00000+0001T   00007893+0000001658          1400 AK6205               2AZ
113281000113281               113281               170213TA     1400+00000+TA0000002630+0000002630+000000000+000000369+0000002990+0000000009+I20000000000+0000002990+Z
113281001113281031-006528     113281006001023670083FRAME 13x18cm FLOWERS  0000001000+00002630+00000+0001T   00002630+0000001659          1400 AK6510               2AZ
113282000113282               113282               170213TA     1400+00000+TA0000030911+0000030911+000000000+000004332+0000035240+0000000003+I20000000000+0000035240+Z
113282001113282112-116069     113282006009681820277TCS CARRIER BAG JUMBO  0000001000+00000048+00000+0001T   00000048+0000001702          1400 AK6090               2AZ
113282002113282263-000504     113282006001023790590TRACTOR+TRAILER 30cm   0000002000+00005262+00000+0001T   00005262+0000001702          1400 AK6710               2AZ
113282003113282046-000014-VP  113282006003000537952BATTERIES H/P SIZE:AAA 0000001000+00004121+00000+0001T   00004121+0000001702          1400 AK6312               2AZ
113282004113282072-000327     113282006001023858504CAT-COLLAR+BELL        0000002000+00001753+00000+0001T   00001753+0000001702          1400 AK6870               2AZ
113282005113282263-000410     113282006001023827135VEHICLE BOAT           0000002000+00000876+00000+0001T   00001314+0008141702          1400 AK6710               2AZ
113282006113282263-000504     113282006001023790590TRACTOR+TRAILER 30cm   0000001000+00005262+00000+0001T   00005262+0000001702          1400 AK6710               2AZ
113282007113282051-002400     113282006001023616180TRIGGER-SPRAYER 900ml  0000001000+00002192+00000+0001T   00002192+0000001702          1400 AK6820               2AZ
113282008113282002-000016     113282006001023760173CAPPUCCINO-FROTHER B/O 0000001000+00002630+00000+0001T   00002630+0000001702          1400 AK6300               2AZ
113282009113282263-000410     113282006001023827135VEHICLE BOAT           0000001000+00000876+00000+0001T   00001314+0008141702          1400 AK6710               2AZ
113283000113283               113283               170213TA     1400+00000+TA0000002192+0000002192+000000000+000000307+0000002490+0000000009+I20000000000+0000002490+Z
113283001113283018-000170     113283006001023775528MUG OCC. LOVE 2PC MINI 0000001000+00002192+00000+0001T   00002192+0000001707          1400 AK6515               2AZ
113284000113284               113284               170213TA     1400+00000+TA0000000381+0000000381+000000000+000000054+0000000430+0000000005+I20000000000+0000000430+Z
113284001113284261-003961     113284006003000550371GUN HAND COMBAT        0000001000-00003507+00000+0001T   00003507+0000001709          1400 AK67102IC            2 Z
113284002113284261-002267     113284006001023665126GUN 8-SHOT SUPER-CAP   0000001000+00001753+00000+0001T   00001753+0000001709          1400 AK6710               2AZ
113284003113284261-000121     113284006001023341600GUN-CAPS 8-SHOT CARD-9 0000003000+00000700+00000+0001T   00000700+0000001709          1400 AK6710               2AZ
113284004113284112-116038     113284006009681820246TCS CARRIER BAG MIDI   0000001000+00000035+00000+0001T   00000035+0000001709          1400 AK6090               2AZ
113285000113285               113285               170213TA     1400+00000+TA0000018465+0000018465+000000000+000002587+0000021052+0000000000+I40000021052+0000000000+Z
113285001113285077-000299-A   113285006003000670888GIFT-BAG PAPER JMB LOVE0000001000+00001753+00000+0001T   00001753+0000001711          1400 AK6112               2AZ
113285002113285112-116069     113285006009681820277TCS CARRIER BAG JUMBO  0000001000+00000048+00000+0001T   00000048+0000001711          1400 AK6090               2AZ
113285003113285031-086302-C   113285006001023910332P/FRAME COLL. PL 3-HOLE0000001000+00008771+00000+0001T   00008771+0000001711          1400 AK6510               2AZ
113285004113285301-085007     113285006003000673698ORN OCC. LOVE S/PLAQUE 0000001000+00007893+00000+0001T   00007893+0000001711          1400 AK6505               2AZ
113286000113286               113286               170213TA     1400+00000+TA0000002630+0000002630+000000000+000000369+0000002990+0000000009+I20000000000+0000002990+Z
113286001113286077-000235     113286006003000160211GIFT-RIBBON ROLL METALC0000001000+00002630+00000+0001T   00002630+0000001711          1400 AK6112               2AZ
113287000113287               113287               170213TA     1400+00000+TA0000004420+0000004420+000000000+000000619+0000005030+0000000009+I20000000000+0000005030+Z
113287001113287267-000219     113287006003000301997PUZZLE 100pc FUNNY CAR 0000001000+00004385+00000+0001T   00004385+0000001712          1400 AK6755               2AZ
113287002113287112-116038     113287006009681820246TCS CARRIER BAG MIDI   0000001000+00000035+00000+0001T   00000035+0000001712          1400 AK6090               2AZ
113288000113288               113288               170213TA     1400+00000+TA0000007628+0000007628+000000000+000001069+0000008697+0000000000+I40000008697+0000000000+Z
113288001113288007-010505     113288006003000670406BLACKBOARD VINYL       0000001000+00004385+00000+0001T   00004385+0000001809          1400 AK6130               2AZ
113288002113288079-000601     113288006003000640379ART+CRAFT SHEETS METAL 0000001000+00002630+00000+0001T   00002630+0000001809          1400 AK6130               2AZ
113288003113288007-000555     113288006001023848239MEMO-PAD MINI LOVE     0000001000+00000613+00000+0001T   00000613+0000001809          1400 AK6130               2AZ
113289000113289               113289               170213TA     1400+00000+TA0000004385+0000004385+000000000+000000614+0000004990+0000000009+I20000000000+0000004990+Z
113289001113289007-010505     113289006003000670406BLACKBOARD VINYL       0000001000+00004385+00000+0001T   00004385+0000001809          1400 AK6130               2AZ
A17021300                                          12035480TASLAVE 2                       AK62IC
A17021301                                          15560324TASLAVE 2                       AK62IC
B11323000                                          170213TA031-006228     09582886SLAVE 2     AK62IC0000002000+0000001000+0000000000000+
M17021391                              CASH        TASLAVE 2                       Z-REPORT No.   582TOTAL (Sales - Refunds)           4523.10       CASH TO BE BANKED                 2390.30       DEBIT CARDS                          0.00       CREDIT CARDS                      2132.80       Z-READING                         4523.10       AIRTIME DEBIT CARD SALES             0.00       AIRTIME CARD SALES                   0.00       OVERS/UNDERS                         0.00       AIRTIME CASH SALES                   0.00       GIFT CARDS                           0.00       GIFT CARD CASH SALES                 0.00       T O T A L  CASH PAYOUTS              0.00                                                                                                                                                                                                                                                                                                                                                      Z
M17021392                              CASH        TAABSENT                                                                                                                                                                                          ANNUAL LEAVE                                                                                                                                                                                    DAY OFF                                                                                                                                                                                         COMMENTS                                                                                                                                                                                                                                                                                                                                                                                       Z
Y17021300                                          TA00000000400493+000067
ZTA17021320233 SLAVE 2      SALES DATA                     NEXT INVOICE NO.  113290 0582
X TA Slave 2 First invoice 113221 170213 Last invoice 113289 170213 Next invoice 113290 Total number of records 000000245 clbackup completed 20:23:50
