127005000127005               127005               170213TA     1400+00000+TA0000008330+0000008330+000000000+000001167+0000009490+0000000007+I20000000000+0000009490+Z
127005001127005018-005009     127005006001023725608MUG W/PLUSH-BEAR LOVE  0000001000+00003507+00000+0001T   00003507+0000001012          1400 HY5515               3AZ
127005002127005301-085001     127005006003000297610ORN WATERBALL LOVE ASST0000001000+00004823+00000+0001T   00004823+0000001012          1400 HY5505               3AZ
127006000127006               127006               170213TA     1400+00000+TA0000012221+0000012221+000000000+000001713+0000013934+0000000000+I40000013934+0000000000+Z
127006001127006112-116038     127006006003000534906TCS CARRIER BAG MIDI   0000001000+00000035+00000+0001T   00000035+0000001017          1400 HY5090               3AZ
127006002127006403-000006     127006006001023805362JEWEL STAND PL         0000001000+00005700+00000+0001T   00005700+0000001017          1400 HY5510               3AZ
127006003127006039-000108     127006006001023524034TEA-LITE CANDLES 8PCE  0000001000+00001490+00000+0001T   00001490+0000001017          1400 HY5510               3AZ
127006004127006006-000805     127006000013994092418STREAMERS 10-ROLLS     0000001000+00001490+00000+0001T   00001490+0000001017          1400 HY5131               3AZ
127006005127006006-000120     127006006001023346889BALLOONS 10PC MIX COL  0000002000+00001753+00000+0001T   00001753+0000001017          1400 HY5131               3AZ
127007000127007               127007               170213TA     1400+00000+TA0000007188+0000007188+000000000+000001008+0000008190+0000000006+I20000000000+0000008190+Z
127007001127007903-000090     127007006009826020821SWT GS CHOCO COINS 60g 0000003000+00002104+00000+0001T   00002104+0000001018          1400 HY5150               3AZ
127007002127007903-000006     127007006923431571571SWEET GS SOUR BELT 50g 0000001000+00000876+00000+0001T   00000876+0000001018          1400 HY5150               3AZ
127008000127008               127008               170213TA     1400+00000+TA0000004823-0000004823-000000000+000000676-0000005500-0000000001+I20000000000+0000005500-Z
127008001127008301-085001     127008006003000297610ORN WATERBALL LOVE ASST0000001000-00004823+00000+0001T   00004823+0000001023          1400 HY55052IC            3 Z
127009000127009               127009               170213TA     1400+00000+TA0000003542+0000003542+000000000+000000496+0000004038+0000000000+I40000004038+0000000000+Z
127009001127009105-007051     127009006003000655595CONTAINER DRY FOOD     0000001000+00003507+00000+0001T   00003507+0000001129          1400 HY5210               3AZ
127009002127009112-116038     127009006009681820246TCS CARRIER BAG MIDI   0000001000+00000035+00000+0001T   00000035+0000001129          1400 HY5090               3AZ
127010000127010               127010               170213TA     1400+00000+TA0000003945+0000003945+000000000+000000553+0000004490+0000000008+I20000000000+0000004490+Z
127010001127010266-000503     127010006001023791740TRANSFORMER WARRIOR 8cm0000001000+00001753+00000+0001T   00001753+0000001130          1400 HY5710               3AZ
127010002127010565-000080     127010006003000643424NOVELTY BENDY          0000001000+00002192+00000+0001T   00002192+0000001130          1400 HY5745               3AZ
127011000127011               127011               170213TA     1400+00000+TA0000012307+0000012307+000000000+000001726+0000014033+0000000000+I40000014033+0000000000+Z
127011001127011112-116038     127011006009681820246TCS CARRIER BAG MIDI   0000001000+00000035+00000+0001T   00000035+0000001135          1400 HY5090               3AZ
127011002127011566-000064     127011006001023689702STICKERS GLITTER BORDER0000001000+00003507+00000+0001T   00003507+0000001135          1400 HY5130               3AZ
127011003127011566-000200     127011006003000384174STICKER PUFFY NEON     0000001000+00000876+00000+0001T   00000876+0000001135          1400 HY5130               3AZ
127011004127011566-000037     127011006003000383948STICKER 3D GEL         0000001000+00001753+00000+0001T   00001753+0000001135          1400 HY5130               3AZ
127011005127011566-100009     127011006003000102914WED STIK EMBOSSED FOIL 0000001000+00002630+00000+0001T   00002630+0000001135          1400 HY5130               3AZ
127011006127011566-002004     127011006001023672421STICKERS CRYSTAL SHAPES0000001000+00001753+00000+0001T   00001753+0000001135          1400 HY5130               3AZ
127011007127011566-000070     127011006003000283798STICKERS POP UP ASSTD  0000001000+00001753+00000+0001T   00001753+0000001135          1400 HY5130               3AZ
127012000127012               127012               170213TA     1400+00000+TA0000012276+0000012276+000000000+000001719+0000013995+0000000000+I40000013995+0000000000+Z
127012001127012567-075490     127012009780799377071BK NOVEL ROMANCE AFR   0000002000+00003507+00000+0001T   00003507+0000001140          1400 HY5757               3AZ
127012002127012018-019000     127012006003000557288MUG OCC. LOVE JUMBO    0000001000+00005262+00000+0001T   00005262+0000001140          1400 HY5515               3AZ
127013000127013               127013               170213TA     1400+00000+TA0000000876+0000000876+000000000+000000123+0000000990+0000000009+I20000000000+0000000990+Z
127013001127013077-000011-D   127013006001023808554TISSUE-WRAP WHITE 10PCE0000001000+00000876+00000+0001T   00000876+0000001141          1400 HY5112               3AZ
127014000127014               127014               170213TA     1400+00000+TA0000008771+0000008771+000000000+000001228+0000009999+0000000000+I40000009999+0000000000+Z
127014001127014027-000852     127014006003000431007MOP TWIST HANDLE 1.3M  0000001000+00008771+00000+0001T   00008771+0000001149          1400 HY5212               3AZ
127015000127015               127015               170213TA     1400+00000+TA0000001753+0000001753+000000000+000000246+0000001990+0000000009+I20000000000+0000001990+Z
127015001127015251-000052     127015006001023627933PROTECT-PAD FELT 16PCE 0000001000+00001753+00000+0001T   00001753+0000001149          1400 HY5810               3AZ
127016000127016               127016               170213TA     1400+00000+TA0000004384+0000004384+000000000+000000614+0000004990+0000000008+I20000000000+0000004990+Z
127016001127016047-005126     127016006001023451255CABLETIES 100/150/200mm0000002000+00002192+00000+0001T   00002192+0000001149          1400 HY5880               3AZ
127017000127017               127017               170213TA     1400+00000+TA0000002104+0000002104+000000000+000000295+0000002390+0000000009+I20000000000+0000002390+Z
127017001127017903-000095     127017006001704011495SWT SPECKLED-EGGS 100G 0000001000+00002104+00000+0001T   00002104+0000001150          1400 HY5150               3AZ
127018000127018               127018               170213TA     1400+00000+TA0000010556+0000010556+000000000+000001478+0000012034+0000000000+I40000012034+0000000000+Z
127018001127018018-000136     127018006001023659026MUG OCC LOVE W/PLUSH   0000003000+00003507+00000+0001T   00003507+0000001152          1400 HY5515               3AZ
127018002127018112-116038     127018006003000534906TCS CARRIER BAG MIDI   0000001000+00000035+00000+0001T   00000035+0000001152          1400 HY5090               3AZ
127019000127019               127019               170213TA     1400+00000+TA0000006344+0000006344+000000000+000000889+0000007233+0000000000+I40000007233+0000000000+Z
127019001127019112-116038     127019006009681820246TCS CARRIER BAG MIDI   0000001000+00000035+00000+0001T   00000035+0000001153          1400 HY5090               3AZ
127019002127019039-000108     127019006001023524034TEA-LITE CANDLES 8PCE  0000001000+00001490+00000+0001T   00001490+0000001153          1400 HY5510               3AZ
127019003127019200-000065     127019006001023323675DRINKING-STRAWS 38PCE  0000001000+00000613+00000+0001T   00000613+0000001153          1400 HY5214               3AZ
127019004127019033-005920-A   127019006001023678249SEWING-THREAD 100m WHT 0000001000+00000700+00000+0001T   00000700+0000001153          1400 HY5200               3AZ
127019005127019046-000012     127019006904708013062BATTERIES AA  CARD-OF-40000001000+00001314+00000+0001T   00001314+0000001153          1400 HY5312               3AZ
127019006127019563-000318-L   127019006003000407088SERVIETTES 33cm RED    0000001000+00002192+00000+0001T   00002192+0000001153          1400 HY5214               3AZ
127020000127020               127020               170213TA     1400+00000+TA0000002192+0000002192+000000000+000000307+0000002490+0000000009+I20000000000+0000002490+Z
127020001127020024-091103     127020006003453014307BAKING-CUP MUFFIN 50PCE0000001000+00002192+00000+0001T   00002192+0000001154          1400 HY5300               3AZ
127021000127021               127021               170213TA     1400+00000+TA0000008802+0000008802+000000000+000001233+0000010030+0000000005+I20000000000+0000010030+Z
127021001127021567-011349     127021009780709713661BK STICKER FUN & COLOUR0000001000+00003507+00000+0001T   00003507+0000001154          1400 HY5757               3AZ
127021002127021567-011436     127021009780857260611BK STICKER GIRLS ACTIVI0000001000+00003507+00000+0001T   00003507+0000001154          1400 HY5757               3AZ
127021003127021567-010561     127021009780755492435BOOK STICKER FUN PINK  0000001000+00001753+00000+0001T   00002630+0008131154          1400 HY5757               3AZ
127021004127021112-116038     127021006003000534906TCS CARRIER BAG MIDI   0000001000+00000035+00000+0001T   00000035+0000001154          1400 HY5090               3AZ
127022000127022               127022               170213TA     1400+00000+TA0000008801+0000008801+000000000+000001235+0000010036+0000000000+I40000010036+0000000000+Z
127022001127022566-000367     127022006003000645558STICKER WINDOW DECOR   0000001000+00002630+00000+0001T   00002630+0000001157          1400 HY5130               3AZ
127022002127022077-000314     127022006003000181148GIFT-BAG 11X14CM MATT  0000001000+00000876+00000+0001T   00000876+0000001157          1400 HY5112               3AZ
127022003127022079-013032-D   127022006003000389643RIBBONS                0000001000+00002630+00000+0001T   00002630+0000001157          1400 HY5130               3AZ
127022004127022566-000367     127022006003000645558STICKER WINDOW DECOR   0000001000+00002630+00000+0001T   00002630+0000001157          1400 HY5130               3AZ
127022005127022112-116038     127022006003000534906TCS CARRIER BAG MIDI   0000001000+00000035+00000+0001T   00000035+0000001157          1400 HY5090               3AZ
127023000127023               127023               170213TA     1400+00000+TA0000001227+0000001227+000000000+000000172+0000001390+0000000009+I20000000000+0000001390+Z
127023001127023077-000245     127023006001023759214GIFT-RIBBON METALLICx2 0000001000+00001227+00000+0001T   00001227+0000001157          1400 HY5112               3AZ
127024000127024               127024               170213TA     1400+00000+TA0000002980+0000002980+000000000+000000418+0000003390+0000000008+I20000000000+0000003390+Z
127024001127024006-000805     127024000013994092418STREAMERS 10-ROLLS     0000002000+00001490+00000+0001T   00001490+0000001200          1400 HY5131               3AZ
127025000127025               127025               170213TA     1400+00000+TA0000001525+0000001525+000000000+000000214+0000001730+0000000009+I20000000000+0000001730+Z
127025001127025006-000805     127025000013994092418STREAMERS 10-ROLLS     0000001000+00001490+00000+0001T   00001490+0000001200          1400 HY5131               3AZ
127025002127025112-116038     127025006003000534906TCS CARRIER BAG MIDI   0000001000+00000035+00000+0001T   00000035+0000001200          1400 HY5090               3AZ
127026000127026               127026               170213TA     1400+00000+TA0000003507+0000003507+000000000+000000491+0000003990+0000000008+I20000000000+0000003990+Z
127026001127026039-000330     127026006003000283002BDAY-CANDLES+HLDERS 24P0000001000+00003507+00000+0001T   00003507+0000001203          1400 HY5510               3AZ
127027000127027               127027               170213TA     1400+00000+TA0000001402+0000001402+000000000+000000197+0000001590+0000000009+I20000000000+0000001590+Z
127027001127027304-001204     127027006001023737984FLOWER OCC. TEDDY/ROSES0000001000+00001402+00000+0001T   00001490+0006471205          1400 HY5510               3AZ
127028000127028               127028               170213TA     1400+00000+TA0000002630+0000002630+000000000+000000369+0000002990+0000000009+I20000000000+0000002990+Z
127028001127028027-009025     127028006003962000747DUSTPAN-SET PL         0000001000+00002630+00000+0001T   00002630+0000001205          1400 HY5212               3AZ
127029000127029               127029               170213TA     1400+00000+TA0000004505+0000004505+000000000+000000632+0000005137+0000000000+I40000005137+0000000000+Z
127029001127029018-000127     127029006001023380289MUG OCC STRAIGHT LOVE  0000001000+00001578+00000+0001T   00001753+0006471212          1400 HY5515               3AZ
127029002127029903-000087     127029006001704000161SWT SPECKLED-EGGS 50G  0000001000+00001139+00000+0001T   00001139+0000001212          1400 HY5150               3AZ
127029003127029077-000309     127029006001023608604GIFT-BAG 25X32CM GLOSS 0000001000+00001753+00000+0001T   00001753+0000001212          1400 HY5112               3AZ
127029004127029112-116038     127029006003000534906TCS CARRIER BAG MIDI   0000001000+00000035+00000+0001T   00000035+0000001212          1400 HY5090               3AZ
127030000127030               127030               170213TA     1400+00000+TA0000001613+0000001613+000000000+000000226+0000001830+0000000009+I20000000000+0000001830+Z
127030001127030018-000127     127030006001023380289MUG OCC STRAIGHT LOVE  0000001000+00001578+00000+0001T   00001753+0006471213          1400 HY5515               3AZ
127030002127030112-116038     127030006003000534906TCS CARRIER BAG MIDI   0000001000+00000035+00000+0001T   00000035+0000001213          1400 HY5090               3AZ
127031000127031               127031               170213TA     1400+00000+TA0000017542+0000017542+000000000+000002456+0000019998+0000000000+I40000019998+0000000000+Z
127031001127031368-000161     127031006003000167760PLUSH BEAR BABY ASSTD  0000001000+00017542+00000+0001T   00017542+0000001215          1400 HY5745               3AZ
127032000127032               127032               170213TA     1400+00000+TA0000001753+0000001753+000000000+000000246+0000001990+0000000009+I20000000000+0000001990+Z
127032001127032306-000021-C   127032006003000567294EARBUDS 300PCE IN TUB  0000001000+00001753+00000+0001T   00001753+0000001216          1400 HY5200               3AZ
127033000127033               127033               170213TA     1400+00000+TA0000012278+0000012278+000000000+000001719+0000013990+0000000007+I20000000000+0000013990+Z
127033001127033039-000799     127033006001023692382CANDLES TEALITE 100PCE 0000001000+00008771+00000+0001T   00008771+0000001217          1400 HY5510               3AZ
127033002127033018-000136     127033006001023659026MUG OCC LOVE W/PLUSH   0000001000+00003507+00000+0001T   00003507+0000001217          1400 HY5515               3AZ
127034000127034               127034               170213TA     1400+00000+TA0000002630+0000002630+000000000+000000369+0000002990+0000000009+I20000000000+0000002990+Z
127034001127034467-000006     127034006001023995483NET-BUTTERFLY 120cm    0000001000+00002630+00000+0001T   00002630+0000001221          1400 HY5785               3AZ
127035000127035               127035               170213TA     1400+00000+TA0000004383+0000004383+000000000+000000615+0000004990+0000000008+I20000000000+0000004990+Z
127035001127035077-000454     127035006003000285266G/BAG METALLIC LRG EMB 0000001000+00001753+00000+0001T   00001753+0000001222          1400 HY5112               3AZ
127035002127035077-000270     127035006003000395453GIFT-BAG PPR JMB 33X45 0000001000+00002630+00000+0001T   00002630+0000001222          1400 HY5112               3AZ
127036000127036               127036               170213TA     1400+00000+TA0000002279+0000002279+000000000+000000320+0000002599+0000000000+I40000002599+0000000000+Z
127036001127036027-001020     127036006001246602519BROOM FLOOR W/HANDLE   0000001000+00002279+00000+0001T   00002279+0000001225          1400 HY5212               3AZ
127037000127037               127037               170213TA     1400+00000+TA0000004383+0000004383+000000000+000000615+0000004998+0000000000+I40000004998+0000000000+Z
127037001127037039-000100     12703700600300060614625CM WHITE CANDLE 6PC  0000001000+00002630+00000+0001T   00002630+0000001227          1400 HY5510               3AZ
127037002127037037-000004     127037006001023763679ASHTRAY PL TUB 8X11CM  0000001000+00001753+00000+0001T   00002192+0008191227          1400 HY5515               3AZ
127038000127038               127038               170213TA     1400+00000+TA0000003768+0000003768+000000000+000000528+0000004290+0000000006+I20000000000+0000004290+Z
127038001127038006-000166-E   127038006003000516612BALLOONS LRG 6PC GREEN 0000001000+00001314+00000+0001T   00001314+0000001231          1400 HY5131               3AZ
127038002127038200-000092     127038006003000576739PICNIC PAPER PLATES 23c0000002000+00001227+00000+0001T   00001227+0000001231          1400 HY5214               3AZ
127039000127039               127039               170213TA     1400+00000+TA0000006139+0000006139+000000000+000000860+0000006999+0000000000+I40000006999+0000000000+Z
127039001127039567-075497     127039009780799381665BK NOVEL ROMANCE AFR   0000001000+00006139+00000+0001T   00006139+0000001232          1400 HY5757               3AZ
127040000127040               127040               170213TA     1400+00000+TA0000005262+0000005262+000000000+000000737+0000005990+0000000009+I20000000000+0000005990+Z
127040001127040018-019000     127040006003000557288MUG OCC. LOVE JUMBO    0000001000+00005262+00000+0001T   00005262+0000001233          1400 HY5515               3AZ
127041000127041               127041               170213TA     1400+00000+TA0000003681+0000003681+000000000+000000517+0000004190+0000000008+I20000000000+0000004190+Z
127041001127041019-000131     127041006003000456253PLANT. T/PLATE 10X12.5 0000001000+00002630+00000+0001T   00002630+0000001235          1400 HY5510               3AZ
127041002127041903-002851     127041000000087108538MENTOS ROLL STRAWBERRY 0000001000+00001051+00000+0001T   00001051+0000001235          1400 HY5150               3AZ
127042000127042               127042               170213TA     1400+00000+TA0000001788+0000001788+000000000+000000251+0000002030+0000000009+I20000000000+0000002030+Z
127042001127042112-116038     127042006003000534906TCS CARRIER BAG MIDI   0000001000+00000035+00000+0001T   00000035+0000001235          1400 HY5090               3AZ
127042002127042203-008282     127042006003000597703WINE GLS PL 2PC CHAMP. 0000001000+00001753+00000+0001T   00002630+0008171235          1400 HY5300               3AZ
127043000127043               127043               170213TA     1400+00000+TA0000008802+0000008802+000000000+000001234+0000010036+0000000000+I40000010036+0000000000+Z
127043001127043077-000475     127043006003000640775GIFT-BAG DESIGNER MED  0000001000+00002630+00000+0001T   00002630+0000001238          1400 HY5112               3AZ
127043002127043031-005853     127043006003000442416P/FRAME WDN TWIN HEARTS0000001000+00003507+00000+0001T   00003507+0000001238          1400 HY5510               3AZ
127043003127043368-000040     127043006003000671786PLUSH ICONS 7.5cm      0000001000+00002630+00000+0001T   00002630+0000001238          1400 HY5745               3AZ
127043004127043112-116038     127043006003000534906TCS CARRIER BAG MIDI   0000001000+00000035+00000+0001T   00000035+0000001238          1400 HY5090               3AZ
127044000127044               127044               170213TA     1400+00000+TA0000005699+0000005699+000000000+000000798+0000006490+0000000007+I20000000000+0000006490+Z
127044001127044077-000310     127044006001023608635GIFT-BAG 18X23CM GLOSS 0000001000+00001314+00000+0001T   00001314+0000001239          1400 HY5112               3AZ
127044002127044031-086301-A   127044006001023910189P/FRAME PL BRONZE 10X150000001000+00004385+00000+0001T   00004385+0000001239          1400 HY5510               3AZ
127045000127045               127045               170213TA     1400+00000+TA0000013971+0000013971+000000000+000001958+0000015920+0000000009+I20000000000+0000015920+Z
127045001127045007-000204     127045006009635835272EXAM-PAD 60SHT PUNCHED 0000006000+00000964+00000+0001T   00000964+0000001240          1400 HY5130               3AZ
127045002127045071-030013     127045006003000283965PEN NVLTY NEON GEL 6PC 0000001000+00002630+00000+0001T   00002630+0000001240          1400 HY5130               3AZ
127045003127045007-000209     127045006001023582102NOTE STICKY FILE MARKER0000001000+00001314+00000+0001T   00001314+0000001240          1400 HY5130               3AZ
127045004127045071-001231     127045006003000144990ERASER RETRACT 2PK     0000001000+00001753+00000+0001T   00001753+0000001240          1400 HY5130               3AZ
127045005127045071-003858     127045006001023902276STATIONERY SET PENCIL  0000001000+00002455+00000+0001T   00002455+0000001240          1400 HY5130               3AZ
127045006127045112-116038     127045006003000534906TCS CARRIER BAG MIDI   0000001000+00000035+00000+0001T   00000035+0000001240          1400 HY5090               3AZ
127046000127046               127046               170213TA     1400+00000+TA0000001578+0000001578+000000000+000000221+0000001799+0000000000+I40000001799+0000000000+Z
127046001127046566-001234     127046006003000217793STICKERS LASER ASSTD   0000001000+00001578+00000+0001T   00001578+0000001242          1400 HY5130               3AZ
127047000127047               127047               170213TA     1400+00000+TA0000002366+0000002366+000000000+000000332+0000002690+0000000008+I20000000000+0000002690+Z
127047001127047007-000555     127047006001023848239MEMO-PAD MINI LOVE     0000001000+00000613+00000+0001T   00000613+0000001242          1400 HY5130               3AZ
127047002127047007-000551     127047006001023848079NOTE-PAD SHOP-LIST ASST0000001000+00001753+00000+0001T   00001753+0000001242          1400 HY5130               3AZ
127048000127048               127048               170213TA     1400+00000+TA0000007454+0000007454+000000000+000001044+0000008490+0000000008+I20000000000+0000008490+Z
127048001127048041-007031     127048006003000178124H/GLO BUBBLE-BATH 480ml0000001000+00003069+00000+0001T   00003069+0000001243          1400 HY5200               3AZ
127048002127048103-000460     127048006003000630240BAMBOO FLOWER BASKET   0000001000+00004385+00000+0001T   00004385+0000001243          1400 HY5300               3AZ
127049000127049               127049               170213TA     1400+00000+TA0000004385+0000004385+000000000+000000614+0000004990+0000000009+I20000000000+0000004990+Z
127049001127049106-005122     127049006003000594825ICE LOLLY MAKER LARGE  0000001000+00004385+00000+0001T   00004385+0000001244          1400 HY5210               3AZ
127050000127050               127050               170213TA     1400+00000+TA0000010559+0000010559+000000000+000001479+0000012038+0000000000+I40000012038+0000000000+Z
127050001127050306-000981     127050006003000559718FIRSTAID PLASTER 1PC   0000001000+00001753+00000+0001T   00001753+0000001247          1400 HY5200               3AZ
127050002127050464-008106     127050006003000611966GAME 3 IN 1 CHESS      0000001000+00008771+00000+0001T   00008771+0000001247          1400 HY5785               3AZ
127050003127050112-116038     127050006003000534906TCS CARRIER BAG MIDI   0000001000+00000035+00000+0001T   00000035+0000001247          1400 HY5090               3AZ
127051000127051               127051               170213TA     1400+00000+TA0000001490+0000001490+000000000+000000209+0000001690+0000000009+I20000000000+0000001690+Z
127051001127051077-000327     127051006001023677686GIFT-BAG 25X32CM E/D BA0000001000+00001490+00000+0001T   00001490+0000001247          1400 HY5112               3AZ
127052000127052               127052               170213TA     1400+00000+TA0000011402+0000011402+000000000+000001597+0000012999+0000000000+I40000012999+0000000000+Z
127052001127052030-004050     127052006003000658732PLAQUE WOODEN SIGN     0000001000+00011402+00000+0001T   00011402+0000001249          1400 HY5505               3AZ
127053000127053               127053               170213TA     1400+00000+TA0000001753+0000001753+000000000+000000246+0000001990+0000000009+I20000000000+0000001990+Z
127053001127053019-071595     127053006001023756428PEBBLES 250g SKY-BLUE  0000001000+00001753+00000+0001T   00001753+0000001249          1400 HY5510               3AZ
127054000127054               127054               170213TA     1400+00000+TA0000001753+0000001753+000000000+000000246+0000001990+0000000009+I20000000000+0000001990+Z
127054001127054006-000120     127054006001023346889BALLOONS 10PC MIX COL  0000001000+00001753+00000+0001T   00001753+0000001250          1400 HY5131               3AZ
127055000127055               127055               170213TA     1400+00000+TA0000001139+0000001139+000000000+000000160+0000001290+0000000009+I20000000000+0000001290+Z
127055001127055565-000071     127055006003000643387NOVELTY WIND UP CHATTER0000001000+00001139+00000+0001T   00001139+0000001250          1400 HY5745               3AZ
127056000127056               127056               170213TA     1400+00000+TA0000003067+0000003067+000000000+000000430+0000003490+0000000007+I20000000000+0000003490+Z
127056001127056071-001102     127056006003000274598MARKER PERM MED 2PCE   0000001000+00001753+00000+0001T   00001753+0000001252          1400 HY5130               3AZ
127056002127056078-009100     127056006008741002349ALL-CLEAR GLUE 25ml CRD0000001000+00001314+00000+0001T   00001314+0000001252          1400 HY5810               3AZ
127057000127057               127057               170213TA     1400+00000+TA0000012802+0000012802+000000000+000001794+0000014590+0000000006+I20000000000+0000014590+Z
127057001127057077-000299-A   127057006003000670888GIFT-BAG PAPER JMB LOVE0000001000+00001753+00000+0001T   00001753+0000001254          1400 HY5112               3AZ
127057002127057077-000011-D   127057006001023808554TISSUE-WRAP WHITE 10PCE0000001000+00000876+00000+0001T   00000876+0000001254          1400 HY5112               3AZ
127057003127057486-002307     127057006003000443086W/CLOCK QTZ PL ANTIQUE 0000001000+00008771+00000+0001T   00008771+0000001254          1400 HY5510               3AZ
127057004127057046-000011     127057004897006172994BATTERIES SIZE:AA  2PCE0000001000+00001402+00000+0001T   00001402+0000001254          1400 HY5312               3AZ
127058000127058               127058               170213TA     1400+00000+TA0000004154+0000004154+000000000+000000583+0000004737+0000000000+I40000004737+0000000000+Z
127058001127058031-000878-B   127058006001023799012P/FRAME 13x18cm PL-SLID0000001000+00001490+00000+0001T   00001490+0000001256          1400 HY5510               3AZ
127058002127058077-000381     127058006003000247707GIFT-BAG 25X32CM S/COL 0000001000+00001753+00000+0001T   00001753+0000001256          1400 HY5112               3AZ
127058003127058089-000192-A   127058006001023901774KEY-CHAIN ACRYLIC      0000001000+00000876+00000+0001T   00000876+0000001256          1400 HY5205               3AZ
127058004127058112-116038     127058006003000534906TCS CARRIER BAG MIDI   0000001000+00000035+00000+0001T   00000035+0000001256          1400 HY5090               3AZ
127059000127059               127059               170213TA     1400+00000+TA0000002192+0000002192+000000000+000000307+0000002490+0000000009+I20000000000+0000002490+Z
127059001127059089-000501     127059006003000622900KEY CHAIN LIGHT LASER  0000001000+00002192+00000+0001T   00002192+0000001257          1400 HY5205               3AZ
127060000127060               127060               170213TA     1400+00000+TA0000000035+0000000035+000000000+000000005+0000000040+0000000000+I20000000000+0000000040+Z
127060001127060112-116038     127060006003000534906TCS CARRIER BAG MIDI   0000001000+00000035+00000+0001T   00000035+0000001258          1400 HY5090               3AZ
127061000127061               127061               170213TA     1400+00000+TA0000002630+0000002630+000000000+000000369+0000002999+0000000000+I40000002999+0000000000+Z
127061001127061077-000005-B   127061006003000326617PAPER TISSUE PATTERN   0000001000+00002630+00000+0001T   00002630+0000001301          1400 HY5112               3AZ
127062000127062               127062               170213TA     1400+00000+TA0000005030+0000005030+000000000+000000705+0000005730+0000000005+I20000000000+0000005730+Z
127062001127062002-021022     127062006003000530403C/TAIL STICKS 12PC 20CM0000001000+00001314+00000+0001T   00001753+0008121302          1400 HY5300               3AZ
127062002127062903-000518     127062006001704012782SWT STRAWS S/BERRY 100g0000001000+00001227+00000+0001T   00001227+0000001302          1400 HY5150               3AZ
127062003127062903-000517     127062006001704012768SWT STRAWS FIZZY CHERRY0000001000+00001227+00000+0001T   00001227+0000001302          1400 HY5150               3AZ
127062004127062077-000245     127062006001023759214GIFT-RIBBON METALLICx2 0000001000+00001227+00000+0001T   00001227+0000001302          1400 HY5112               3AZ
127062005127062112-116038     127062006003000534906TCS CARRIER BAG MIDI   0000001000+00000035+00000+0001T   00000035+0000001302          1400 HY5090               3AZ
127063000127063               127063               170213TA     1400+00000+TA0000003067+0000003067+000000000+000000431+0000003498+0000000000+I40000003498+0000000000+Z
127063001127063083-000058     127063006003000400331LIGHTER JET CIGAR REFIL0000001000+00002630+00000+0001T   00002630+0000001303          1400 HY5315               3AZ
127063002127063083-000049     127063004891035200024CIG-LIGHTER DISPOSABLE 0000001000+00000437+00000+0001T   00000437+0000001303          1400 HY5315               3AZ
127064000127064               127064               170213TA     1400+00000+TA0000026349+0000026349+000000000+000003689+0000030038+0000000000+I40000030038+0000000000+Z
127064001127064022-010611     127064006001023733191ROASTER 26cm RND 1st-GR0000001000+00026314+00000+0001T   00026314+0000001305          1400 HY5305               3AZ
127064002127064112-116038     127064006003000534906TCS CARRIER BAG MIDI   0000001000+00000035+00000+0001T   00000035+0000001305          1400 HY5090               3AZ
127065000127065               127065               170213TA     1400+00000+TA0000003554+0000003554+000000000+000000499+0000004053+0000000000+I40000004053+0000000000+Z
127065001127065077-000005-D   127065006003000414567PAPER TISSUE 50x70cm   0000001000+00001753+00000+0001T   00001753+0000001317          1400 HY5112               3AZ
127065002127065077-000299-A   127065006003000670888GIFT-BAG PAPER JMB LOVE0000001000+00001753+00000+0001T   00001753+0000001317          1400 HY5112               3AZ
127065003127065112-116069     127065006009681820277TCS CARRIER BAG JUMBO  0000001000+00000048+00000+0001T   00000048+0000001317          1400 HY5090               3AZ
127066000127066               127066               170213TA     1400+00000+TA0000002630+0000002630+000000000+000000369+0000002999+0000000000+I40000002999+0000000000+Z
127066001127066072-000326     127066006003000451722PET CAT COLLAR 31x1cm  0000001000+00002630+00000+0001T   00002630+0000001318          1400 HY5870               3AZ
127067000127067               127067               170213TA     1400+00000+TA0000001576+0000001576+000000000+000000221+0000001797+0000000000+I40000001797+0000000000+Z
127067001127067033-005920-A   127067006001023678249SEWING-THREAD 100m WHT 0000001000+00000700+00000+0001T   00000700+0000001320          1400 HY5200               3AZ
127067002127067033-006001     127067006001023135933SEWING-KIT TRAVELLING  0000001000+00000876+00000+0001T   00000876+0000001320          1400 HY5200               3AZ
127068000127068               127068               170213TA     1400+00000+TA0000003542+0000003542+000000000+000000496+0000004030+0000000008+I20000000000+0000004030+Z
127068001127068562-000011     127068006003000600984PLAY DOUGH NEON TUBE   0000001000+00003507+00000+0001T   00003507+0000001320          1400 HY5755               3AZ
127068002127068112-116038     127068006003000534906TCS CARRIER BAG MIDI   0000001000+00000035+00000+0001T   00000035+0000001320          1400 HY5090               3AZ
127069000127069               127069               170213TA     1400+00000+TA0000002279+0000002279+000000000+000000320+0000002599+0000000000+I40000002599+0000000000+Z
127069001127069027-001020     127069006001246602519BROOM FLOOR W/HANDLE   0000001000+00002279+00000+0001T   00002279+0000001321          1400 HY5212               3AZ
127070000127070               127070               170213TA     1400+00000+TA0000005297+0000005297+000000000+000000742+0000006039+0000000000+I40000006039+0000000000+Z
127070001127070018-019000     127070006003000557288MUG OCC. LOVE JUMBO    0000001000+00005262+00000+0001T   00005262+0000001436          1400 HY5515               3AZ
127070002127070112-116038     127070006003000534906TCS CARRIER BAG MIDI   0000001000+00000035+00000+0001T   00000035+0000001436          1400 HY5090               3AZ
127071000127071               127071               170213TA     1400+00000+TA0000004381+0000004381+000000000+000000614+0000004995+0000000000+I40000004995+0000000000+Z
127071001127071006-000167-C   127071006003000516971BALLOONS PINK METALLIC 0000001000+00001314+00000+0001T   00001314+0000001507          1400 HY5131               3AZ
127071002127071006-000167-D   127071006003000517091BALLOONS PRPLE METALLIC0000001000+00001314+00000+0001T   00001314+0000001507          1400 HY5131               3AZ
127071003127071903-000215     127071006002099001214SWT GS MALLOW TWIST PAC0000001000+00001753+00000+0001T   00001753+0000001507          1400 HY5150               3AZ
127072000127072               127072               170213TA     1400+00000+TA0000003857+0000003857+000000000+000000541+0000004390+0000000008+I20000000000+0000004390+Z
127072001127072039-081008     127072006008766081008CANDLES 9PCE SCENTED   0000001000+00002630+00000+0001T   00002630+0000001507          1400 HY5510               3AZ
127072002127072077-000318     127072006001023609755GIFT-BAG 18X23CM E/D AN0000001000+00001227+00000+0001T   00001227+0000001507          1400 HY5112               3AZ
127073000127073               127073               170213TA     1400+00000+TA0000005262+0000005262+000000000+000000737+0000005990+0000000009+I20000000000+0000005990+Z
127073001127073368-000171     127073006003000233250PLUSH BEAR 14cm        0000001000+00005262+00000+0001T   00005262+0000001508          1400 HY5745               3AZ
127074000127074               127074               170213TA     1400+00000+TA0000007045+0000007045+000000000+000000988+0000008030+0000000003+I20000000000+0000008030+Z
127074001127074080-000111     127074006003000252695CARD&ENVELPE - MUSICAL 0000002000+00001753+00000+0001T   00001753+0000001510          1400 HY5112               3AZ
127074002127074006-000167-E   127074006003000517213BALLOONS GOLD METALLIC 0000001000+00001314+00000+0001T   00001314+0000001510          1400 HY5131               3AZ
127074003127074006-000166-G   127074006003000607976BALLOONS HELIUM 6PC BLK0000001000+00001314+00000+0001T   00001314+0000001510          1400 HY5131               3AZ
127074004127074903-000494     127074006001704009911SWT GUMMY TEENY TEDDIES0000001000+00000876+00000+0001T   00000876+0000001510          1400 HY5150               3AZ
127074005127074112-116038     127074006003000534906TCS CARRIER BAG MIDI   0000001000+00000035+00000+0001T   00000035+0000001510          1400 HY5090               3AZ
127075000127075               127075               170213TA     1400+00000+TA0000010028+0000010028+000000000+000001407+0000011430+0000000005+I20000000000+0000011430+Z
127075001127075112-116038     127075006003000534906TCS CARRIER BAG MIDI   0000001000+00000035+00000+0001T   00000035+0000001512          1400 HY5090               3AZ
127075002127075039-000108     127075006001023524034TEA-LITE CANDLES 8PCE  0000001000+00001490+00000+0001T   00001490+0000001512          1400 HY5510               3AZ
127075003127075039-081008     127075006008766081008CANDLES 9PCE SCENTED   0000001000+00002630+00000+0001T   00002630+0000001512          1400 HY5510               3AZ
127075004127075083-000055     127075006003000003853LIGHTER ELCTRNC REFILBL0000001000+00000613+00000+0001T   00000613+0000001512          1400 HY5315               3AZ
127075005127075018-000025     127075006003000095056MUG S/WARE V-SHAPE CER.0000002000+00002630+00000+0001T   00002630+0000001512          1400 HY5515               3AZ
127076000127076               127076               170213TA     1400+00000+TA0000001490+0000001490+000000000+000000209+0000001690+0000000009+I20000000000+0000001690+Z
127076001127076006-000102     127076006001023806819BALLOONS W/BOMBS 50PCE 0000001000+00001490+00000+0001T   00001490+0000001526          1400 HY5131               3AZ
127077000127077               127077               170213TA     1400+00000+TA0000006696+0000006696+000000000+000000939+0000007630+0000000005+I20000000000+0000007630+Z
127077001127077077-000251     127077006003000639106GIFT-DECOR RIBBON      0000001000+00002630+00000+0001T   00002630+0000001527          1400 HY5112               3AZ
127077002127077007-000555     127077006001023848239MEMO-PAD MINI LOVE     0000003000+00000613+00000+0001T   00000613+0000001527          1400 HY5130               3AZ
127077003127077566-000359     127077006003000582709STICKER BOOK LOVE SPARK0000001000+00002192+00000+0001T   00002192+0000001527          1400 HY5130               3AZ
127077004127077112-116038     127077006003000534906TCS CARRIER BAG MIDI   0000001000+00000035+00000+0001T   00000035+0000001527          1400 HY5090               3AZ
127078000127078               127078               170213TA     1400+00000+TA0000005261+0000005261+000000000+000000737+0000005998+0000000000+I40000005998+0000000000+Z
127078001127078033-005921-A   127078006001023678324SEWING-THREAD 200m WHT 0000001000+00000876+00000+0001T   00000876+0000001535          1400 HY5200               3AZ
127078002127078007-010505     127078006003000670406BLACKBOARD VINYL       0000001000+00004385+00000+0001T   00004385+0000001535          1400 HY5130               3AZ
127079000127079               127079               170213TA     1400+00000+TA0000004200+0000004200+000000000+000000588+0000004788+0000000000+I40000004788+0000000000+Z
127079001127079564-001029     127079006001023690821BUBBLE WEDDING DOVES   0000006000+00000700+00000+0001T   00000700+0000001537          1400 HY5131               3AZ
127080000127080               127080               170213TA     1400+00000+TA0000002630+0000002630+000000000+000000369+0000002990+0000000009+I20000000000+0000002990+Z
127080001127080031-005821     127080006001023667786P/FRAME-GLS CLIP 21X30 0000001000+00002630+00000+0001T   00002630+0000001540          1400 HY5510               3AZ
127081000127081               127081               170213TA     1400+00000+TA0000004154+0000004154+000000000+000000583+0000004730+0000000007+I20000000000+0000004730+Z
127081001127081112-116038     127081006003000534906TCS CARRIER BAG MIDI   0000001000+00000035+00000+0001T   00000035+0000001542          1400 HY5090               3AZ
127081002127081039-000108     127081006001023524034TEA-LITE CANDLES 8PCE  0000001000+00001490+00000+0001T   00001490+0000001542          1400 HY5510               3AZ
127081003127081088-000084     127081006001023798060P/POURRI 120G ASSTD    0000001000+00001753+00000+0001T   00001753+0000001542          1400 HY5212               3AZ
127081004127081039-000323     127081006001023524171BIRTHDAY-CANDLES 24PCE 0000001000+00000876+00000+0001T   00000876+0000001542          1400 HY5510               3AZ
127082000127082               127082               170213TA     1400+00000+TA0000001753+0000001753+000000000+000000246+0000001990+0000000009+I20000000000+0000001990+Z
127082001127082105-001039-B   127082006003000632596CONTAINER W/VENT 12x16 0000001000+00001753+00000+0001T   00002630+0008161545          1400 HY5210               3AZ
127083000127083               127083               170213TA     1400+00000+TA0000000876+0000000876+000000000+000000123+0000000990+0000000009+I20000000000+0000000990+Z
127083001127083028-000797     127083006001023812124SKEWERS 15cm 100PCE    0000001000+00000876+00000+0001T   00000876+0000001546          1400 HY5305               3AZ
127084000127084               127084               170213TA     1400+00000+TA0000001928+0000001928+000000000+000000270+0000002190+0000000008+I20000000000+0000002190+Z
127084001127084200-000100     127084006001023764003CUPS 25PCE DISPOSABLE  0000001000+00001928+00000+0001T   00001928+0000001549          1400 HY5214               3AZ
127085000127085               127085               170213TA     1400+00000+TA0000002541+0000002541+000000000+000000357+0000002890+0000000008+I20000000000+0000002890+Z
127085001127085077-000010-D   127085006001023123886CREPE-PAPER WHITE      0000001000+00000788+00000+0001T   00000788+0000001550          1400 HY5112               3AZ
127085002127085077-000290     127085006001023902023GIFT BOX 26x32x13cm    0000001000+00001753+00000+0001T   00001753+0000001550          1400 HY5112               3AZ
127086000127086               127086               170213TA     1400+00000+TA0000001086+0000001086+000000000+000000153+0000001230+0000000009+I20000000000+0000001230+Z
127086001127086079-009702-A   127086008427973059408PAPER SIRIO A2 BLACK   0000001000+00001051+00000+0001T   00001051+0000001551          1400 HY5130               3AZ
127086002127086112-116038     127086006003000534906TCS CARRIER BAG MIDI   0000001000+00000035+00000+0001T   00000035+0000001551          1400 HY5090               3AZ
127087000127087               127087               170213TA     1400+00000+TA0000007015+0000007015+000000000+000000983+0000007998+0000000000+I40000007998+0000000000+Z
127087001127087368-000101     127087006003000449859PLUSH CAT 17cm KITTY   0000001000+00005262+00000+0001T   00005262+0000001553          1400 HY5745               3AZ
127087002127087077-000299-A   127087006003000670888GIFT-BAG PAPER JMB LOVE0000001000+00001753+00000+0001T   00001753+0000001553          1400 HY5112               3AZ
127088000127088               127088               170213TA     1400+00000+TA0000001402+0000001402+000000000+000000197+0000001590+0000000009+I20000000000+0000001590+Z
127088001127088304-001204     127088006001023737984FLOWER OCC. TEDDY/ROSES0000001000+00001402+00000+0001T   00001490+0006471554          1400 HY5510               3AZ
127089000127089               127089               170213TA     1400+00000+TA0000006174+0000006174+000000000+000000865+0000007030+0000000009+I20000000000+0000007030+Z
127089001127089039-000798     127089006001023617774CANDLES TEALITE BOX-50 0000001000+00006139+00000+0001T   00006139+0000001559          1400 HY5510               3AZ
127089002127089112-116038     127089006003000534906TCS CARRIER BAG MIDI   0000001000+00000035+00000+0001T   00000035+0000001559          1400 HY5090               3AZ
127090000127090               127090               170213TA     1400+00000+TA0000003104+0000003104+000000000+000000435+0000003530+0000000009+I20000000000+0000003530+Z
127090001127090133-000074     127090006003000244072D/CLOTH 40x60 80g      0000001000+00003069+00000+0001T   00003069+0000001602          1400 HY5212               3AZ
127090002127090112-116038     127090006003000534906TCS CARRIER BAG MIDI   0000001000+00000035+00000+0001T   00000035+0000001602          1400 HY5090               3AZ
127091000127091               127091               170213TA     1400+00000+TA0000001402-0000001402-000000000+000000197-0000001600-0000000001+I20000000000+0000001600-Z
127091001127091047-000153     127091006001023596475SOCKET-PROTECTORS 4PCE 0000001000-00001402+00000+0001T   00001402+0000001606          1400 HY58802IC            3 Z
127092000127092               127092               170213TA     1400+00000+TA0000015569+0000015569+000000000+000002181+0000017750+0000000000+I20000000000+0000017750+Z
127092001127092112-116069     127092006009681820277TCS CARRIER BAG JUMBO  0000001000+00000048+00000+0001T   00000048+0000001607          1400 HY5090               3AZ
127092002127092077-000465     127092006003000681570GIFT-BAG MTLC GLIT LRG 0000001000+00003507+00000+0001T   00003507+0000001607          1400 HY5112               3AZ
127092003127092077-000304     127092006001023483232GIFT-BAG 25X32CM E/DAY 0000001000+00001490+00000+0001T   00001490+0000001607          1400 HY5112               3AZ
127092004127092368-000001     127092006003000097982Plush Bear 25cm        0000001000+00004385+00000+0001T   00004385+0000001607          1400 HY5745               3AZ
127092005127092018-050000     127092006003000412679MUG OCC LOVE TWIN BEAR 0000001000+00006139+00000+0001T   00006139+0000001607          1400 HY5515               3AZ
127093000127093               127093               170213TA     1400+00000+TA0000005295+0000005295+000000000+000000743+0000006030+0000000008+I20000000000+0000006030+Z
127093001127093206-000450     127093006003000619863DRINKING JAR GLOBE     0000002000+00002630+00000+0001T   00002630+0000001609          1400 HY5321               3AZ
127093002127093112-116038     127093006003000534906TCS CARRIER BAG MIDI   0000001000+00000035+00000+0001T   00000035+0000001609          1400 HY5090               3AZ
127094000127094               127094               170213TA     1400+00000+TA0000012327+0000012327+000000000+000001727+0000014050+0000000004+I20000000000+0000014050+Z
127094001127094031-000903-D   127094006003000457472P/FRAME COLLAGE CREAMY 0000001000+00012279+00000+0001T   00012279+0000001609          1400 HY5510               3AZ
127094002127094112-116069     127094006003000535064TCS CARRIER BAG JUMBO  0000001000+00000048+00000+0001T   00000048+0000001609          1400 HY5090               3AZ
127095000127095               127095               170213TA     1400+00000+TA0000006138+0000006138+000000000+000000860+0000006990+0000000008+I20000000000+0000006990+Z
127095001127095001-000175     127095006001023788108B/MUG GLS LOVE 380ML   0000001000+00004385+00000+0001T   00004385+0000001611          1400 HY5515               3AZ
127095002127095077-000290     127095006001023902023GIFT BOX 26x32x13cm    0000001000+00001753+00000+0001T   00001753+0000001611          1400 HY5112               3AZ
127096000127096               127096               170213TA     1400+00000+TA0000014958+0000014958+000000000+000002095+0000017050+0000000003+I20000000000+0000017050+Z
127096001127096112-116069     127096006009681820277TCS CARRIER BAG JUMBO  0000001000+00000048+00000+0001T   00000048+0000001612          1400 HY5090               3AZ
127096002127096368-000012     127096006003000610464PLUSH BEAR 30cm SITTING0000001000+00008771+00000+0001T   00008771+0000001612          1400 HY5745               3AZ
127096003127096039-000798     127096006001023617774CANDLES TEALITE BOX-50 0000001000+00006139+00000+0001T   00006139+0000001612          1400 HY5510               3AZ
127097000127097               127097               170213TA     1400+00000+TA0000009645+0000009645+000000000+000001352+0000010997+0000000000+I40000010997+0000000000+Z
127097001127097002-000884     127097006001023769589CAN-OPENER BUTTERFLY   0000002000+00002630+00000+0001T   00002630+0000001615          1400 HY5300               3AZ
127097002127097104-000135     127097006001023846419WASTEBIN SWING-LID 28cm0000001000+00004385+00000+0001T   00004385+0000001615          1400 HY5210               3AZ
127098000127098               127098               170213TA     1400+00000+TA0000011399+0000011399+000000000+000001598+0000012997+0000000000+I40000012997+0000000000+Z
127098001127098077-000381     127098006003000247707GIFT-BAG 25X32CM S/COL 0000001000+00001753+00000+0001T   00001753+0000001617          1400 HY5112               3AZ
127098002127098368-000021     127098006003000672141PLUSH DINOSAUR 27cm    0000001000+00007016+00000+0001T   00007016+0000001617          1400 HY5745               3AZ
127098003127098206-000110     127098006003000628186CHOPSTICKS PLASTIC KIDS0000001000+00002630+00000+0001T   00002630+0000001617          1400 HY5321               3AZ
127099000127099               127099               170213TA     1400+00000+TA0000014031+0000014031+000000000+000001965+0000015996+0000000000+I40000015996+0000000000+Z
127099001127099466-000071     127099006003000670871BALL FOOTBALL NO.4     0000001000+00005262+00000+0001T   00005262+0000001618          1400 HY5785               3AZ
127099002127099068-000005     127099006003000400478SLING SHOT MED 16x9cm  0000001000+00003507+00000+0001T   00003507+0000001618          1400 HY5305               3AZ
127099003127099361-000113     127099006001023680204DOLL 30cm RAG          0000001000+00005262+00000+0001T   00005262+0000001618          1400 HY5725               3AZ
127100000127100               127100               170213TA     1400+00000+TA0000017919+0000017919+000000000+000002513+0000020430+0000000002+I20000000000+0000020430+Z
127100001127100112-116038     127100006003000534906TCS CARRIER BAG MIDI   0000001000+00000035+00000+0001T   00000035+0000001620          1400 HY5090               3AZ
127100002127100079-003020     127100006003000662944PAINT ACRYLIC SET TUBE 0000001000+00005262+00000+0001T   00005262+0000001620          1400 HY5130               3AZ
127100003127100077-000010-D   127100006001023123886CREPE-PAPER WHITE      0000001000+00000788+00000+0001T   00000788+0000001620          1400 HY5112               3AZ
127100004127100079-000275     127100006003000160488PAINT-BRUSHES 6PCE PRO 0000001000+00001753+00000+0001T   00001753+0000001620          1400 HY5130               3AZ
127100005127100006-000804     127100006003000574445STREAMERS 6-ROLLS 2.5cm0000001000+00001753+00000+0001T   00001753+0000001620          1400 HY5131               3AZ
127100006127100563-000318-L   127100006003000407088SERVIETTES 33cm RED    0000001000+00002192+00000+0001T   00002192+0000001620          1400 HY5214               3AZ
127100007127100563-000318-I   127100006003000404605SERVIETTES 33cm L/GREEN0000001000+00001753+00000+0001T   00001753+0000001620          1400 HY5214               3AZ
127100008127100079-000280     127100006003000160723PAINT READYMIX 6PCE    0000001000+00002630+00000+0001T   00002630+0000001620          1400 HY5130               3AZ
127100009127100007-000094     127100006003000659289ENVELOPES WHT 5PK C4   0000001000+00001753+00000+0001T   00001753+0000001620          1400 HY5130               3AZ
127101000127101               127101               170213TA     1400+00000+TA0000006138+0000006138+000000000+000000860+0000006998+0000000000+I40000006998+0000000000+Z
127101001127101903-000610     127101006003000610518SWEET JUMBO BUBBLE GUM 0000001000+00001753+00000+0001T   00001753+0000001622          1400 HY5150               3AZ
127101002127101004-071270     127101006001023802156CD-DISCS WRITABLE 10PCE0000001000+00004385+00000+0001T   00004385+0000001622          1400 HY5310               3AZ
127102000127102               127102               170213TA     1400+00000+TA0000002192+0000002192+000000000+000000307+0000002490+0000000009+I20000000000+0000002490+Z
127102001127102566-000359     127102006003000582709STICKER BOOK LOVE SPARK0000001000+00002192+00000+0001T   00002192+0000001622          1400 HY5130               3AZ
127103000127103               127103               170213TA     1400+00000+TA0000019995+0000019995+000000000+000002801+0000022796+0000000000+I40000022796+0000000000+Z
127103001127103567-075497     127103009780799381634BK NOVEL ROMANCE AFR   0000001000+00006139+00000+0001T   00006139+0000001624          1400 HY5757               3AZ
127103002127103567-075497     127103009780799381627BK NOVEL ROMANCE AFR   0000001000+00006139+00000+0001T   00006139+0000001624          1400 HY5757               3AZ
127103003127103077-000386     127103006003000275489G/BAG POP UP 18x23CM   0000001000+00001578+00000+0001T   00001578+0000001624          1400 HY5112               3AZ
127103004127103567-011423     127103006003000641345BK COLOURING THERAPY A50000001000+00006139+00000+0001T   00006139+0000001624          1400 HY5757               3AZ
127104000127104               127104               170213TA     1400+00000+TA0000007062+0000007062+000000000+000000990+0000008052+0000000000+I40000008052+0000000000+Z
127104001127104077-000299-A   127104006003000670888GIFT-BAG PAPER JMB LOVE0000001000+00001753+00000+0001T   00001753+0000001626          1400 HY5112               3AZ
127104002127104018-030000     127104006003000421060MUG OCCASIONS LOVE 2PCE0000001000+00004385+00000+0001T   00004385+0000001626          1400 HY5515               3AZ
127104003127104077-000011-D   127104006001023808554TISSUE-WRAP WHITE 10PCE0000001000+00000876+00000+0001T   00000876+0000001626          1400 HY5112               3AZ
127104004127104112-116069     127104006009681820277TCS CARRIER BAG JUMBO  0000001000+00000048+00000+0001T   00000048+0000001626          1400 HY5090               3AZ
127105000127105               127105               170213TA     1400+00000+TA0000001753+0000001753+000000000+000000246+0000001990+0000000009+I20000000000+0000001990+Z
127105001127105077-000011-X   127105006001023809827TISSUE-WRAP SILVER 10PC0000001000+00001753+00000+0001T   00001753+0000001627          1400 HY5112               3AZ
127106000127106               127106               170213TA     1400+00000+TA0000002192+0000002192+000000000+000000307+0000002490+0000000009+I20000000000+0000002490+Z
127106001127106566-000359     127106006003000582709STICKER BOOK LOVE SPARK0000001000+00002192+00000+0001T   00002192+0000001627          1400 HY5130               3AZ
127107000127107               127107               170213TA     1400+00000+TA0000004420+0000004420+000000000+000000619+0000005030+0000000009+I20000000000+0000005030+Z
127107001127107368-000001     127107006003000097982Plush Bear 25cm        0000001000+00004385+00000+0001T   00004385+0000001629          1400 HY5745               3AZ
127107002127107112-116038     127107006003000534906TCS CARRIER BAG MIDI   0000001000+00000035+00000+0001T   00000035+0000001629          1400 HY5090               3AZ
127108000127108               127108               170213TA     1400+00000+TA0000017541+0000017541+000000000+000002457+0000019990+0000000008+I20000000000+0000019990+Z
127108001127108368-000111     127108006001023780812PLUSH BEAR/DOG 29CM    0000001000+00012279+00000+0001T   00012279+0000001630          1400 HY5745               3AZ
127108002127108368-000171     127108006003000233250PLUSH BEAR 14cm        0000001000+00005262+00000+0001T   00005262+0000001630          1400 HY5745               3AZ
127109000127109               127109               170213TA     1400+00000+TA0000003981+0000003981+000000000+000000558+0000004539+0000000000+I40000004539+0000000000+Z
127109001127109103-000081     127109006001023710833BAMBOO BASKET 17x13x7cm0000001000+00003946+00000+0001T   00003946+0000001632          1400 HY5300               3AZ
127109002127109112-116038     127109006003000534906TCS CARRIER BAG MIDI   0000001000+00000035+00000+0001T   00000035+0000001632          1400 HY5090               3AZ
127110000127110               127110               170213TA     1400+00000+TA0000004823+0000004823+000000000+000000676+0000005499+0000000000+I40000005499+0000000000+Z
127110001127110301-085001     127110006003000297610ORN WATERBALL LOVE ASST0000001000+00004823+00000+0001T   00004823+0000001634          1400 HY5505               3AZ
127111000127111               127111               170213TA     1400+00000+TA0000011171+0000011171+000000000+000001565+0000012736+0000000000+I40000012736+0000000000+Z
127111001127111469-000801     127111006003000652402BUILDING BLOCKS AGE BAG0000002000+00004385+00000+0001T   00004385+0000001636          1400 HY5755               3AZ
127111002127111077-000305     127111006003000395422GIFT-BAG WINE 10X35CM  0000001000+00001490+00000+0001T   00001490+0000001636          1400 HY5112               3AZ
127111003127111077-000011-E   127111006001023808646TISSUE-WRAP PINK 10PCE 0000001000+00000876+00000+0001T   00000876+0000001636          1400 HY5112               3AZ
127111004127111112-116038     127111006003000534906TCS CARRIER BAG MIDI   0000001000+00000035+00000+0001T   00000035+0000001636          1400 HY5090               3AZ
127112000127112               127112               170213TA     1400+00000+TA0000007450+0000007450+000000000+000001045+0000008490+0000000005+I20000000000+0000008490+Z
127112001127112036-000605     127112006001023158611WASHING-PEGS WDN PCK-240000005000+00001490+00000+0001T   00001490+0000001637          1400 HY52121IC            3AZ
127113000127113               127113               170213TA     1400+00000+TA0000004030+0000004030+000000000+000000565+0000004590+0000000005+I20000000000+0000004590+Z
127113001127113004-071190     127113006003000528691USB CABLE EXT M/F 1.5m 0000001000+00002630+00000+0001T   00002630+0000001638          1400 HY5310               3AZ
127113002127113903-000070     127113006001704001106SWT TOFFEE CREAMY 35g  0000002000+00000700+00000+0001T   00000700+0000001638          1400 HY5150               3AZ
127114000127114               127114               170213TA     1400+00000+TA0000001753+0000001753+000000000+000000246+0000001990+0000000009+I20000000000+0000001990+Z
127114001127114077-000381     127114006003000247707GIFT-BAG 25X32CM S/COL 0000001000+00001753+00000+0001T   00001753+0000001638          1400 HY5112               3AZ
127115000127115               127115               170213TA     1400+00000+TA0000000035+0000000035+000000000+000000005+0000000040+0000000000+I20000000000+0000000040+Z
127115001127115112-116038     127115006003000534906TCS CARRIER BAG MIDI   0000001000+00000035+00000+0001T   00000035+0000001639          1400 HY5090               3AZ
127116000127116               127116               170213TA     1400+00000+TA0000005170+0000005170+000000000+000000725+0000005895+0000000000+I40000005895+0000000000+Z
127116001127116077-000314     127116006003000181148GIFT-BAG 11X14CM MATT  0000001000+00000876+00000+0001T   00000876+0000001641          1400 HY5112               3AZ
127116002127116077-000245     127116006001023759214GIFT-RIBBON METALLICx2 0000001000+00001227+00000+0001T   00001227+0000001641          1400 HY5112               3AZ
127116003127116006-000167-E   127116006003000517213BALLOONS GOLD METALLIC 0000001000+00001314+00000+0001T   00001314+0000001641          1400 HY5131               3AZ
127116004127116031-005820     127116006001023667816P/FRAME-CLIP 15X20CM   0000001000+00001753+00000+0001T   00001753+0000001641          1400 HY5510               3AZ
127117000127117               127117               170213TA     1400+00000+TA0000003506+0000003506+000000000+000000492+0000003990+0000000008+I20000000000+0000003990+Z
127117001127117077-000381     127117006003000247707GIFT-BAG 25X32CM S/COL 0000002000+00001753+00000+0001T   00001753+0000001641          1400 HY5112               3AZ
127118000127118               127118               170213TA     1400+00000+TA0000007354+0000007354+000000000+000001031+0000008380+0000000005+I20000000000+0000008380+Z
127118001127118112-116038     127118006009681820246TCS CARRIER BAG MIDI   0000001000+00000035+00000+0001T   00000035+0000001720          1400 HY5090               3AZ
127118002127118018-005009     127118006001023725608MUG W/PLUSH-BEAR LOVE  0000001000+00003507+00000+0001T   00003507+0000001720          1400 HY5515               3AZ
127118003127118007-000234     127118006009685850638LABELS 24PK            0000001000+00000306+00000+0001T   00000306+0000001720          1400 HY5130               3AZ
127118004127118007-000610     127118006009685851017DIARY HOMEWORK UNDATED 0000001000+00001402+00000+0001T   00001402+0000001720          1400 HY5130               3AZ
127118005127118903-000095     127118006001704011495SWT SPECKLED-EGGS 100G 0000001000+00002104+00000+0001T   00002104+0000001720          1400 HY5150               3AZ
127119000127119               127119               170213TA     1400+00000+TA0000002980+0000002980+000000000+000000418+0000003390+0000000008+I20000000000+0000003390+Z
127119001127119077-000011-D   127119006001023808554TISSUE-WRAP WHITE 10PCE0000001000+00000876+00000+0001T   00000876+0000001721          1400 HY5112               3AZ
127119002127119903-000095     127119006001704011495SWT SPECKLED-EGGS 100G 0000001000+00002104+00000+0001T   00002104+0000001721          1400 HY5150               3AZ
127120000127120               127120               170213TA     1400+00000+TA0000001753+0000001753+000000000+000000246+0000001990+0000000009+I20000000000+0000001990+Z
127120001127120077-000381     127120006003000247707GIFT-BAG 25X32CM S/COL 0000001000+00001753+00000+0001T   00001753+0000001721          1400 HY5112               3AZ
127121000127121               127121               170213TA     1400+00000+TA0000010477+0000010477+000000000+000001469+0000011946+0000000000+I40000011946+0000000000+Z
127121001127121566-000358     127121006003000582587STICKER ROOM DECOR WORD0000001000+00003946+00000+0001T   00003946+0000001726          1400 HY5130               3AZ
127121002127121467-000001     127121006002923008280BEACH BUCKET PL 17x16cm0000002000+00001578+00000+0001T   00001578+0000001726          1400 HY5785               3AZ
127121003127121493-059010     127121000078257590100BEACH-BALL COLOR-PANELS0000001000+00001490+00000+0001T   00001490+0000001726          1400 HY5787               3AZ
127121004127121083-000049     127121004891035200024CIG-LIGHTER DISPOSABLE 0000001000+00000437+00000+0001T   00000437+0000001726          1400 HY5315               3AZ
127121005127121564-000012     127121006001023130075BUBBLE BOTTLE MAGIC    0000002000+00000700+00000+0001T   00000700+0000001726          1400 HY5131               3AZ
127121006127121112-116069     127121006003000535064TCS CARRIER BAG JUMBO  0000001000+00000048+00000+0001T   00000048+0000001726          1400 HY5090               3AZ
127122000127122               127122               170213TA     1400+00000+TA0000014067+0000014067+000000000+000001971+0000016038+0000000000+I40000016038+0000000000+Z
127122001127122112-116038     127122006009681820246TCS CARRIER BAG MIDI   0000001000+00000035+00000+0001T   00000035+0000001728          1400 HY5090               3AZ
127122002127122089-000030     127122006003000575671K/CHAIN LOVE MTL ASSTD 0000001000+00001753+00000+0001T   00001753+0000001728          1400 HY5205               3AZ
127122003127122368-000111     127122006001023780812PLUSH BEAR/DOG 29CM    0000001000+00012279+00000+0001T   00012279+0000001728          1400 HY5745               3AZ
127123000127123               127123               170213TA     1400+00000+TA0000000700+0000000700+000000000+000000098+0000000790+0000000008+I20000000000+0000000790+Z
127123001127123033-005920-A   127123006001023678249SEWING-THREAD 100m WHT 0000001000+00000700+00000+0001T   00000700+0000001728          1400 HY5200               3AZ
127124000127124               127124               170213TA     1400+00000+TA0000004994+0000004994+000000000+000000702+0000005690+0000000006+I20000000000+0000005690+Z
127124001127124077-000010-D   127124006001023123886CREPE-PAPER WHITE      0000001000+00000788+00000+0001T   00000788+0000001729          1400 HY5112               3AZ
127124002127124077-000235     127124006003000160211GIFT-RIBBON ROLL METALC0000001000+00002630+00000+0001T   00002630+0000001729          1400 HY5112               3AZ
127124003127124077-000010-D   127124006001023123886CREPE-PAPER WHITE      0000002000+00000788+00000+0001T   00000788+0000001729          1400 HY5112               3AZ
127125000127125               127125               170213TA     1400+00000+TA0000014245+0000014245+000000000+000001997+0000016240+0000000002+I20000000000+0000016240+Z
127125001127125112-116069     127125006009681820277TCS CARRIER BAG JUMBO  0000001000+00000048+00000+0001T   00000048+0000001732          1400 HY5090               3AZ
127125002127125567-011369     127125009781848171510BK ACTIVITY&STICKER    0000001000+00002630+00000+0001T   00003507+0008141732          1400 HY5757               3AZ
127125003127125567-011309     127125006003000598670BOOK ACTIVITY STICER   0000002000+00002630+00000+0001T   00003069+0008131732          1400 HY5757               3AZ
127125004127125079-000116     127125006001023907592ART PAINT-BY-NUMB 12PCE0000001000+00003507+00000+0001T   00003507+0000001732          1400 HY5130               3AZ
127125005127125903-000121     127125006002099001689SWT GS ZILLIONS SOURS  0000004000+00000700+00000+0001T   00000700+0000001732          1400 HY5150               3AZ
127126000127126               127126               170213TA     1400+00000+TA0000001227+0000001227+000000000+000000172+0000001390+0000000009+I20000000000+0000001390+Z
127126001127126077-000318     127126006001023609755GIFT-BAG 18X23CM E/D AN0000001000+00001227+00000+0001T   00001227+0000001733          1400 HY5112               3AZ
127127000127127               127127               170213TA     1400+00000+TA0000000613+0000000613+000000000+000000086+0000000690+0000000009+I20000000000+0000000690+Z
127127001127127077-000317     127127006001023609748GIFT-BAG 11X14CM E/D AN0000001000+00000613+00000+0001T   00000613+0000001733          1400 HY5112               3AZ
127128000127128               127128               170213TA     1400+00000+TA0000002629+0000002629+000000000+000000369+0000002990+0000000008+I20000000000+0000002990+Z
127128001127128077-000302     127128008010410010195GIFT-BAG 18X23CM E/D   0000001000+00000876+00000+0001T   00000876+0000001734          1400 HY5112               3AZ
127128002127128080-000115     127128006003000237333CARD&ENVELOPE - BLANKS 0000001000+00001753+00000+0001T   00001753+0000001734          1400 HY5112               3AZ
127129000127129               127129               170213TA     1400+00000+TA0000010731+0000010731+000000000+000001504+0000012230+0000000005+I20000000000+0000012230+Z
127129001127129112-116038     127129006003000534906TCS CARRIER BAG MIDI   0000001000+00000035+00000+0001T   00000035+0000001735          1400 HY5090               3AZ
127129002127129077-000509     127129006003000082582GIFT-BAG SML 6PCE ORG P0000002000+00002192+00000+0001T   00002192+0000001735          1400 HY5112               3AZ
127129003127129903-000090     127129006009826020821SWT GS CHOCO COINS 60g 0000003000+00002104+00000+0001T   00002104+0000001735          1400 HY5150               3AZ
127130000127130               127130               170213TA     1400+00000+TA0000001753+0000001753+000000000+000000246+0000001999+0000000000+I40000001999+0000000000+Z
127130001127130077-000467     127130006003000329991GIFT-BAG STAMP 18X23CM 0000001000+00001753+00000+0001T   00001753+0000001737          1400 HY5112               3AZ
127131000127131               127131               170213TA     1400+00000+TA0000000876+0000000876+000000000+000000123+0000000990+0000000009+I20000000000+0000000990+Z
127131001127131078-000025     127131008887013700064SUPERGLUE 3g 1PCE CARD 0000001000+00000876+00000+0001T   00000876+0000001737          1400 HY5810               3AZ
127132000127132               127132               170213TA     1400+00000+TA0000014817+0000014817+000000000+000002076+0000016890+0000000003+I20000000000+0000016890+Z
127132001127132034-078843     127132006003000594146MELAMINE KIDS TUMBLER  0000001000+00001753+00000+0001T   00001753+0000001739          1400 HY5215               3AZ
127132002127132903-000090     127132006009826020821SWT GS CHOCO COINS 60g 0000001000+00002104+00000+0001T   00002104+0000001739          1400 HY5150               3AZ
127132003127132204-000030     127132006003000683536MEMO HOLDER SAYINGS    0000001000+00003507+00000+0001T   00003507+0000001739          1400 HY5300               3AZ
127132004127132206-000260     127132006003000632183ICE TRAY BUILDING BLOCK0000001000+00003507+00000+0001T   00003507+0000001739          1400 HY5321               3AZ
127132005127132206-000265     127132006003000678860ICE TRAY BLOCKS        0000001000+00003946+00000+0001T   00003946+0000001739          1400 HY5321               3AZ
127133000127133               127133               170213TA     1400+00000+TA0000002192+0000002192+000000000+000000307+0000002490+0000000009+I20000000000+0000002490+Z
127133001127133016-006517     127133006003000351626S/JAR GLS CHECK 650ML  0000001000+00002192+00000+0001T   00002192+0000001741          1400 HY5300               3AZ
127134000127134               127134               170213TA     1400+00000+TA0000003541+0000003541+000000000+000000497+0000004030+0000000008+I20000000000+0000004030+Z
127134001127134200-003024     127134006001023657299REFUSE BAGS 20PCE BLACK0000001000+00001753+00000+0001T   00001753+0000001743          1400 HY5214               3AZ
127134002127134012-000001     127134006003000331048MICRO PLATE-COVER 26X6 0000001000+00001753+00000+0001T   00002192+0008191743          1400 HY5300               3AZ
127134003127134112-116038     127134006003000534906TCS CARRIER BAG MIDI   0000001000+00000035+00000+0001T   00000035+0000001743          1400 HY5090               3AZ
127135000127135               127135               170213TA     1400+00000+TA0000002980+0000002980+000000000+000000418+0000003390+0000000008+I20000000000+0000003390+Z
127135001127135039-000108     127135006001023524034TEA-LITE CANDLES 8PCE  0000002000+00001490+00000+0001T   00001490+0000001746          1400 HY5510               3AZ
127136000127136               127136               170213TA     1400+00000+TA0000001139+0000001139+000000000+000000160+0000001290+0000000009+I20000000000+0000001290+Z
127136001127136046-000014     127136006001023725387BATTERIES SIZE:AAA 4PCE0000001000+00001139+00000+0001T   00001139+0000001746          1400 HY5312               3AZ
127137000127137               127137               170213TA     1400+00000+TA0000007924+0000007924+000000000+000001112+0000009036+0000000000+I40000009036+0000000000+Z
127137001127137112-116038     127137006009681820246TCS CARRIER BAG MIDI   0000001000+00000035+00000+0001T   00000035+0000001748          1400 HY5090               3AZ
127137002127137088-000084     127137006001023798060P/POURRI 120G ASSTD    0000002000+00001753+00000+0001T   00001753+0000001748          1400 HY5212               3AZ
127137003127137079-006500     127137006001023557186GLUE GLITTER 6/10 PCE  0000001000+00001753+00000+0001T   00001753+0000001748          1400 HY5130               3AZ
127137004127137565-000040     127137006008766115635NOVELTY ICON BEANIE    0000001000+00002630+00000+0001T   00002630+0000001748          1400 HY5745               3AZ
127138000127138               127138               170213TA     1400+00000+TA0000001490+0000001490+000000000+000000209+0000001690+0000000009+I20000000000+0000001690+Z
127138001127138077-000384     127138006003000275243G/BAG HOT STMP 18x23CM 0000001000+00001490+00000+0001T   00001490+0000001749          1400 HY5112               3AZ
127139000127139               127139               170213TA     1400+00000+TA0000001613+0000001613+000000000+000000226+0000001830+0000000009+I20000000000+0000001830+Z
127139001127139077-000323     127139006001023677563G/BAG 25X32CM E/DAY FLO0000001000+00001578+00000+0001T   00001578+0000001750          1400 HY5112               3AZ
127139002127139112-116038     127139006003000534906TCS CARRIER BAG MIDI   0000001000+00000035+00000+0001T   00000035+0000001750          1400 HY5090               3AZ
127140000127140               127140               170213TA     1400+00000+TA0000004385+0000004385+000000000+000000614+0000004990+0000000009+I20000000000+0000004990+Z
127140001127140368-000001     127140006003000097982Plush Bear 25cm        0000001000+00004385+00000+0001T   00004385+0000001751          1400 HY5745               3AZ
127141000127141               127141               170213TA     1400+00000+TA0000001490+0000001490+000000000+000000209+0000001699+0000000000+I40000001699+0000000000+Z
127141001127141077-000384     127141006003000275243G/BAG HOT STMP 18x23CM 0000001000+00001490+00000+0001T   00001490+0000001752          1400 HY5112               3AZ
127142000127142               127142               170213TA     1400+00000+TA0000001753+0000001753+000000000+000000246+0000001990+0000000009+I20000000000+0000001990+Z
127142001127142047-000507     127142006001023684479PLUG-ADAPTOR EURO TWIN 0000001000+00001753+00000+0001T   00001753+0000001754          1400 HY5880               3AZ
127143000127143               127143               170213TA     1400+00000+TA0000002622-0000002622-000000000+000000368-0000002990-0000000000+I20000000000+0000002990-Z
127143001127143001-999906     127143000000000999906STATIONERY(PHOTOCOPIES)0000001000-00002622+00000+0001T   00000000+0000001806          1400 HY59062IC            3 Z
A17021300                                          16190821TASLAVE 3                       HY52IC
A17021301                                          17562913TASLAVE 3                       HY51IC
B12711200                                          170213TA036-000605     16374802SLAVE 3     HY51IC0000006000+0000005000+0000000000000+
M17021391                              CASH        TASLAVE 3                       Z-REPORT No.   579TOTAL (Sales - Refunds)           8579.66       CASH TO BE BANKED                 4633.10       DEBIT CARDS                          0.00       CREDIT CARDS                      3916.66       Z-READING                         8549.76       AIRTIME DEBIT CARD SALES             0.00       AIRTIME CARD SALES                   0.00       OVERS/UNDERS                         0.00       AIRTIME CASH SALES                   0.00       GIFT CARDS                           0.00       GIFT CARD CASH SALES                 0.00       STATIONERY(PHOTOCOPIES)             29.90       T O T A L  CASH PAYOUTS             29.90                                                                                                                                                                                                                                                                                                      Z
M17021392                              CASH        TAABSENT                                                                                                                                                                                          ANNUAL LEAVE                                                                                                                                                                                    DAY OFF                                                                                                                                                                                         COMMENTS                                                                                                                                                                                                                                                                                                                                                                                       Z
Y17021300                                          TA00000000759321+000136
ZTA17021320233 SLAVE 3      SALES DATA                     NEXT INVOICE NO.  127144 0579
X TA Slave 3 First invoice 127005 170213 Last invoice 127143 170213 Next invoice 127144 Total number of records 000000448 clbackup completed 20:23:54
