103926000103926               103926               170213TC     1400+00000+TC0000006174+0000006174+000000000+000000865+0000007030+0000000009+I20000000000+0000007030+Z
103926001103926361-009988     103926006001023866011PONY 24cm W/SIDE-SADDLE0000001000+00006139+00000+0001T   00006139+0000001022          1400 JT7725               1BZ
103926002103926112-116038     103926006003000534906TCS CARRIER BAG MIDI   0000001000+00000035+00000+0001T   00000035+0000001022          1400 JT7090               1BZ
103927000103927               103927               170213TC     1400+00000+TC0000014954+0000014954+000000000+000002095+0000017040+0000000009+I20000000000+0000017040+Z
103927001103927204-000012     103927006001023888518M/HOLDR 7PC DAYS WEEK  0000001000+00003507+00000+0001T   00003507+0000001027          1400 JT7300               1BZ
103927002103927030-004070     103927006003000674381P/WDN SIGN 12X20CM ASS 0000001000+00003507+00000+0001T   00003507+0000001027          1400 JT7505               1BZ
103927003103927203-005001     103927006003000088546DRINK GAME-SPIN A DRINK0000001000+00006139+00000+0001T   00006139+0000001027          1400 JT7300               1BZ
103927004103927903-000911     103927006009802868454SWT ST GUM TAPE BARBIE 0000001000+00001753+00000+0001T   00001753+0000001027          1400 JT7150               1BZ
103927005103927112-116069     103927006003000535064TCS CARRIER BAG JUMBO  0000001000+00000048+00000+0001T   00000048+0000001027          1400 JT7090               1BZ
103928000103928               103928               170213TC     1400+00000+TC0000001578+0000001578+000000000+000000221+0000001790+0000000009+I20000000000+0000001790+Z
103928001103928024-000034     103928006001023495235MEASURING-JUG 1-CUP    0000001000+00001578+00000+0001T   00001578+0000001027          1400 JT7300               1CZ
103929000103929               103929               170213TC     1400+00000+TC0000003554+0000003554+000000000+000000498+0000004052+0000000000+I40000004052+0000000000+Z
103929001103929077-000310     103929006001023608635GIFT-BAG 18X23CM GLOSS 0000001000+00001314+00000+0001T   00001314+0000001032          1400 JT7112               1BZ
103929002103929080-000127     103929006003000424351VALENTINES DAY 36x24CM 0000001000+00002192+00000+0001T   00002192+0000001032          1400 JT7112               1BZ
103929003103929112-116069     103929006003000535064TCS CARRIER BAG JUMBO  0000001000+00000048+00000+0001T   00000048+0000001032          1400 JT7090               1BZ
103930000103930               103930               170213TC     1400+00000+TC0000001753+0000001753+000000000+000000246+0000001999+0000000000+I40000001999+0000000000+Z
103930001103930077-000471     103930006003000330096G-BAG DESGN MED 18X23CM0000001000+00001753+00000+0001T   00001753+0000001125          1400 JT7112               1BZ
103931000103931               103931               170213TC     1400+00000+TC0000002190+0000002190+000000000+000000307+0000002497+0000000000+I40000002497+0000000000+Z
103931001103931077-000299     103931006003000395576G/BAG 32x25cm LRG LOVE 0000001000+00001490+00000+0001T   00001490+0000001132          1400 JT7112               1CZ
103931002103931018-000177     103931006001023797513MUG MINI LOVE ASSTD    0000001000+00000700+00000+0001T   00000700+0000001132          1400 JT7515               1CZ
103932000103932               103932               170213TC     1400+00000+TC0000005262+0000005262+000000000+000000737+0000005990+0000000009+I20000000000+0000005990+Z
103932001103932031-000872-C   103932006001023798770P/FRAME PL BRONZE 20X250000001000+00005262+00000+0001T   00005262+0000001142          1400 JT7510               1BZ
103933000103933               103933               170213TC     1400+00000+TC0000007925+0000007925+000000000+000001112+0000009030+0000000007+I20000000000+0000009030+Z
103933001103933159-000035     103933006003000420759HOOKS W/HANGER 2PC S/S 0000002000+00002630+00000+0001T   00003069+0008131143          1400 JT7200               1BZ
103933002103933206-000620     103933006003000631797BACK SCRATCHER EXTEND  0000001000+00002630+00000+0001T   00002630+0000001143          1400 JT7321               1BZ
103933003103933112-116038     103933006003000534906TCS CARRIER BAG MIDI   0000001000+00000035+00000+0001T   00000035+0000001143          1400 JT7090               1BZ
103934000103934               103934               170213TC     1400+00000+TC0000000700+0000000700+000000000+000000098+0000000790+0000000008+I20000000000+0000000790+Z
103934001103934018-000177     103934006001023797513MUG MINI LOVE ASSTD    0000001000+00000700+00000+0001T   00000700+0000001149          1400 JT7515               1BZ
103935000103935               103935               170213TC     1400+00000+TC0000003507+0000003507+000000000+000000491+0000003990+0000000008+I20000000000+0000003990+Z
103935001103935031-000864-B   103935006001023798381P/FRAME MAHOGANY 13X18 0000001000+00003507+00000+0001T   00003507+0000001217          1400 JT7510               1BZ
103936000103936               103936               170213TC     1400+00000+TC0000004385+0000004385+000000000+000000614+0000004990+0000000009+I20000000000+0000004990+Z
103936001103936082-000105     103936006003000360369READING GLS STRNGHT:1.50000001000+00004385+00000+0001T   00004385+0000001218          1400 JT7160               1CZ
103937000103937               103937               170213TC     1400+00000+TC0000001402+0000001402+000000000+000000197+0000001590+0000000009+I20000000000+0000001590+Z
103937001103937304-001204     103937006001023737984FLOWER OCC. TEDDY/ROSES0000001000+00001402+00000+0001T   00001490+0006471323          1400 JT7510               1BZ
103938000103938               103938               170213TC     1400+00000+TC0000004383+0000004383+000000000+000000615+0000004998+0000000000+I40000004998+0000000000+Z
103938001103938077-000235     103938006003000160211GIFT-RIBBON ROLL METALC0000001000+00002630+00000+0001T   00002630+0000001327          1400 JT7112               1CZ
103938002103938077-000239     103938006003000160419GIFT-RIBBON ROLL PEARL 0000001000+00001753+00000+0001T   00001753+0000001327          1400 JT7112               1CZ
103939000103939               103939               170213TC     1400+00000+TC0000001314+0000001314+000000000+000000184+0000001498+0000000000+I40000001498+0000000000+Z
103939001103939077-000310     103939006001023608635GIFT-BAG 18X23CM GLOSS 0000001000+00001314+00000+0001T   00001314+0000001328          1400 JT7112               1CZ
103940000103940               103940               170213TC     1400+00000+TC0000007975+0000007975+000000000+000001119+0000009090+0000000004+I20000000000+0000009090+Z
103940001103940903-000200     103940006009826020234SWT CHOC RP CHOCO 23G  0000002000+00000788+00000+0001T   00000788+0000001329          1400 JT7150               1BZ
103940002103940080-000133-A   103940006003000647019MINI VALENTINES CARD   0000001000+00000437+00000+0001T   00000437+0000001329          1400 JT7112               1BZ
103940003103940080-000139     103940006003000611690CARD & ENV MINI SET 6PC0000002000+00002192+00000+0001T   00002192+0000001329          1400 JT7112               1BZ
103940004103940018-000127     103940006001023380289MUG OCC STRAIGHT LOVE  0000001000+00001578+00000+0001T   00001753+0006471329          1400 JT7515               1BZ
103941000103941               103941               170213TC     1400+00000+TC0000002629+0000002629+000000000+000000369+0000002990+0000000008+I20000000000+0000002990+Z
103941001103941018-000158     103941006001023636454MUG DAILY GLS COFFEE   0000001000+00002192+00000+0001T   00002192+0000001341          1400 JT7515               1BZ
103941002103941083-000049     103941004891035200024CIG-LIGHTER DISPOSABLE 0000001000+00000437+00000+0001T   00000437+0000001341          1400 JT7315               1BZ
103942000103942               103942               170213TC     1400+00000+TC0000019338+0000019338+000000000+000002709+0000022047+0000000000+I40000022047+0000000000+Z
103942001103942018-030000     103942006003000421060MUG OCCASIONS LOVE 2PCE0000002000+00004385+00000+0001T   00004385+0000001345          1400 JT7515               1CZ
103942002103942077-000310     103942006001023608635GIFT-BAG 18X23CM GLOSS 0000002000+00001314+00000+0001T   00001314+0000001345          1400 JT7112               1CZ
103942003103942033-000123     103942006003000622382HAIR COMB STRAIGHTENING0000001000+00001753+00000+0001T   00001753+0000001345          1400 JT7200               1CZ
103942004103942368-000265     103942006001023750914PLUSH BEAR 23CM ASSTD C0000001000+00006139+00000+0001T   00006139+0000001345          1400 JT7745               1CZ
103942005103942112-116069     103942006003000535064TCS CARRIER BAG JUMBO  0000001000+00000048+00000+0001T   00000048+0000001345          1400 JT7090               1CZ
103943000103943               103943               170213TC     1400+00000+TC0000001490+0000001490+000000000+000000209+0000001690+0000000009+I20000000000+0000001690+Z
103943001103943077-000299     103943006003000395576G/BAG 32x25cm LRG LOVE 0000001000+00001490+00000+0001T   00001490+0000001346          1400 JT7112               1BZ
103944000103944               103944               170213TC     1400+00000+TC0000000831+0000000831+000000000+000000117+0000000940+0000000008+I20000000000+0000000940+Z
103944001103944006-000173-A   103944006003000636235BALLOONS HELIUM 1PC BLK0000001000+00000218+00000+0001T   00000218+0000001349          1400 JT7131               1BZ
103944002103944006-001000     103944006003000093779HELIUM BALLOON FILL    0000001000+00000613+00000+0001T   00000613+0000001349          1400 JT7131               1BZ
103945000103945               103945               170213TC     1400+00000+TC0000001753+0000001753+000000000+000000246+0000001990+0000000009+I20000000000+0000001990+Z
103945001103945079-006496     103945006003000160105GLITTER SHAKERS        0000001000+00001753+00000+0001T   00001753+0000001350          1400 JT7130               1BZ
103946000103946               103946               170213TC     1400+00000+TC0000001435+0000001435+000000000+000000201+0000001630+0000000006+I20000000000+0000001630+Z
103946001103946362-004001     103946000613153010385PRINCESS ASSTD TRINKETS0000001000+00000700+00000+0001T   00000876+0008181359          1400 JT7160               1CZ
103946002103946362-004000     103946000613153000225DISNEY T/BELL TRINKETS 0000001000+00000700+00000+0001T   00000876+0008181359          1400 JT7160               1CZ
103946003103946112-116038     103946006003000534906TCS CARRIER BAG MIDI   0000001000+00000035+00000+0001T   00000035+0000001359          1400 JT7090               1CZ
103947000103947               103947               170213TC     1400+00000+TC0000000876+0000000876+000000000+000000123+0000000990+0000000009+I20000000000+0000000990+Z
103947001103947077-000011-C   103947006001023808523TISSUE 10xSHTS RED     0000001000+00000876+00000+0001T   00000876+0000001555          1400 JT7112               1BZ
103948000103948               103948               170213TC     1400+00000+TC0000001269+0000001269+000000000+000000179+0000001440+0000000008+I20000000000+0000001440+Z
103948001103948903-000183     103948006003000451043SWT LB HEART LOLLY     0000001000+00000393+00000+0001T   00000393+0000001615          1400 JT7150               1CZ
103948002103948077-000150-D   103948006003000054343GIFT-WRAP CELLPHANE CLR0000001000+00000876+00000+0001T   00000876+0000001615          1400 JT7112               1CZ
103949000103949               103949               170213TC     1400+00000+TC0000004820+0000004820+000000000+000000676+0000005490+0000000006+I20000000000+0000005490+Z
103949001103949077-000312     103949006001023608697GIFT-BAG 10X35CM GLOSS 0000001000+00001314+00000+0001T   00001314+0000001617          1400 JT7112               1BZ
103949002103949077-000381     103949006003000247707GIFT-BAG 25X32CM S/COL 0000002000+00001753+00000+0001T   00001753+0000001617          1400 JT7112               1BZ
103950000103950               103950               170213TC     1400+00000+TC0000000525+0000000525+000000000+000000074+0000000590+0000000009+I20000000000+0000000590+Z
103950001103950903-000155     103950006009803374435SWT LOLLY I LUV U HEART0000001000+00000525+00000+0001T   00000525+0000001618          1400 JT7150               1CZ
103951000103951               103951               170213TC     1400+00000+TC0000001401+0000001401+000000000+000000197+0000001590+0000000008+I20000000000+0000001590+Z
103951001103951077-000383     103951006003000247943GIFT-BAG 11X14CM S/COL 0000001000+00000788+00000+0001T   00000788+0000001624          1400 JT7112               1BZ
103951002103951304-001011     103951006001023806727FLWR ROSE RED W/BEAR   0000001000+00000613+00000+0001T   00000788+0006471624          1400 JT7510               1BZ
103952000103952               103952               170213TC     1400+00000+TC0000002364+0000002364+000000000+000000333+0000002697+0000000000+I40000002697+0000000000+Z
103952001103952903-000200     103952006009826020234SWT CHOC RP CHOCO 23G  0000003000+00000788+00000+0001T   00000788+0000001626          1400 JT7150               1BZ
103953000103953               103953               170213TC     1400+00000+TC0000000876+0000000876+000000000+000000123+0000000990+0000000009+I20000000000+0000000990+Z
103953001103953077-000011-C   103953006001023808523TISSUE 10xSHTS RED     0000001000+00000876+00000+0001T   00000876+0000001627          1400 JT7112               1BZ
103954000103954               103954               170213TC     1400+00000+TC0000002927+0000002927+000000000+000000410+0000003330+0000000007+I20000000000+0000003330+Z
103954001103954903-000194     103954006009826020616SWT CHOC RP LOLLY 25G  0000001000+00001314+00000+0001T   00001314+0000001629          1400 JT7150               1BZ
103954002103954018-000127     103954006001023380289MUG OCC STRAIGHT LOVE  0000001000+00001578+00000+0001T   00001753+0006471629          1400 JT7515               1BZ
103954003103954112-116038     103954006003000534906TCS CARRIER BAG MIDI   0000001000+00000035+00000+0001T   00000035+0000001629          1400 JT7090               1BZ
103955000103955               103955               170213TC     1400+00000+TC0000010960+0000010960+000000000+000001535+0000012490+0000000005+I20000000000+0000012490+Z
103955001103955036-000519     103955006003000560752HOOK HANGER CHROME PL  0000002000+00003507+00000+0001T   00003507+0000001633          1400 JT7212               1BZ
103955002103955002-000460     103955006001023770219K/TOOL-RACK 6-PRONG    0000001000+00003946+00000+0001T   00003946+0000001633          1400 JT7300               1BZ
103956000103956               103956               170213TC     1400+00000+TC0000005260+0000005260+000000000+000000737+0000005990+0000000007+I20000000000+0000005990+Z
103956001103956018-005009     103956006001023725608MUG W/PLUSH-BEAR LOVE  0000001000+00003507+00000+0001T   00003507+0000001636          1400 JT7515               1BZ
103956002103956077-000455     103956006003000285389G/BAG METALLIC LRG SOL 0000001000+00001753+00000+0001T   00001753+0000001636          1400 JT7112               1BZ
103957000103957               103957               170213TC     1400+00000+TC0000015325+0000015325+000000000+000002150+0000017470+0000000005+I20000000000+0000017470+Z
103957001103957304-001011     103957006001023806727FLWR ROSE RED W/BEAR   0000025000+00000613+00000+0001T   00000788+0006471640          1400 JT7510               1BZ
103958000103958               103958               170213TC     1400+00000+TC0000002630+0000002630+000000000+000000369+0000002990+0000000009+I20000000000+0000002990+Z
103958001103958366-006103     103958006001023786944DRESS UP FACE PAINT SET0000001000+00002630+00000+0001T   00002630+0000001641          1400 JT7131               1BZ
103959000103959               103959               170213TC     1400+00000+TC0000003803+0000003803+000000000+000000533+0000004330+0000000006+I20000000000+0000004330+Z
103959001103959018-000170     103959006001023775528MUG OCC. LOVE 2PC MINI 0000001000+00002192+00000+0001T   00002192+0000001643          1400 JT7515               1CZ
103959002103959018-000177     103959006001023797513MUG MINI LOVE ASSTD    0000001000+00000700+00000+0001T   00000700+0000001643          1400 JT7515               1CZ
103959003103959566-000021     103959006001023824400STCKRS BK COLOR-IN-SET 0000001000+00000876+00000+0001T   00001314+0008151643          1400 JT7130               1CZ
103959004103959112-116038     103959006003000534906TCS CARRIER BAG MIDI   0000001000+00000035+00000+0001T   00000035+0000001643          1400 JT7090               1CZ
103960000103960               103960               170213TC     1400+00000+TC0000004385+0000004385+000000000+000000614+0000004990+0000000009+I20000000000+0000004990+Z
103960001103960368-000049     103960006003000536955PLUSH BEAR 15cm LOVE   0000001000+00004385+00000+0001T   00004385+0000001644          1400 JT7745               1BZ
103961000103961               103961               170213TC     1400+00000+TC0000003542+0000003542+000000000+000000496+0000004030+0000000008+I20000000000+0000004030+Z
103961001103961366-000301     103961006003000421077DRESSUP TIARA & EARRING0000001000+00003507+00000+0001T   00003507+0000001646          1400 JT7131               1CZ
103961002103961112-116038     103961006009681820246TCS CARRIER BAG MIDI   0000001000+00000035+00000+0001T   00000035+0000001646          1400 JT7090               1CZ
103962000103962               103962               170213TC     1400+00000+TC0000014032+0000014032+000000000+000001966+0000015990+0000000008+I20000000000+0000015990+Z
103962001103962077-000270     103962006003000395453GIFT-BAG PPR JMB 33X45 0000001000+00002630+00000+0001T   00002630+0000001647          1400 JT7112               1CZ
103962002103962368-000637     103962006001023874092PLUSH BEAR SLEEPING LOV0000001000+00011402+00000+0001T   00012279+0006471647          1400 JT7745               1CZ
103963000103963               103963               170213TC     1400+00000+TC0000002805+0000002805+000000000+000000393+0000003190+0000000008+I20000000000+0000003190+Z
103963001103963077-000509     103963006003000082582GIFT-BAG SML 6PCE ORG P0000001000+00002192+00000+0001T   00002192+0000001655          1400 JT7112               1BZ
103963002103963077-000321     103963006001023677501GIFT-BAG 11X14CM E/D FL0000001000+00000613+00000+0001T   00000613+0000001655          1400 JT7112               1BZ
103964000103964               103964               170213TC     1400+00000+TC0000008539+0000008539+000000000+000001196+0000009735+0000000000+I40000009735+0000000000+Z
103964001103964106-001100-B   103964006005387194452FRIDGE BOTTLE ASSORTED 0000001000+00001490+00000+0001T   00001490+0000001658          1400 JT7210               1BZ
103964002103964034-001486     103964006001023713803COOEY BABY-FOOD FREEZER0000002000+00003507+00000+0001T   00003507+0000001658          1400 JT7215               1BZ
103964003103964112-116038     103964006009681820246TCS CARRIER BAG MIDI   0000001000+00000035+00000+0001T   00000035+0000001658          1400 JT7090               1BZ
103965000103965               103965               170213TC     1400+00000+TC0000004855+0000004855+000000000+000000681+0000005530+0000000006+I20000000000+0000005530+Z
103965001103965077-000011-X   103965006001023809827TISSUE-WRAP SILVER 10PC0000001000+00001753+00000+0001T   00001753+0000001708          1400 JT7112               1BZ
103965002103965077-000310     103965006001023608635GIFT-BAG 18X23CM GLOSS 0000001000+00001314+00000+0001T   00001314+0000001708          1400 JT7112               1BZ
103965003103965077-000455     103965006003000285389G/BAG METALLIC LRG SOL 0000001000+00001753+00000+0001T   00001753+0000001708          1400 JT7112               1BZ
103965004103965112-116038     103965006009681820246TCS CARRIER BAG MIDI   0000001000+00000035+00000+0001T   00000035+0000001708          1400 JT7090               1BZ
103966000103966               103966               170213TC     1400+00000+TC0000034252+0000034252+000000000+000004797+0000039040+0000000009+I20000000000+0000039040+Z
103966001103966046-000012     103966006904708013062BATTERIES AA  CARD-OF-40000002000+00001314+00000+0001T   00001314+0000001714          1400 JT7312               1CZ
103966002103966365-000075     103966006003000545780PLAY-SET B/O MUSIC PHN 0000001000+00007893+00000+0001T   00007893+0000001714          1400 JT7725               1CZ
103966003103966265-001656     103966006001023867384RADIO CONTROL 4X4 CAR  0000001000+00023683+00000+0001T   00023683+0000001714          1400 JT7710               1CZ
103966004103966112-116069     103966006009681820277TCS CARRIER BAG JUMBO  0000001000+00000048+00000+0001T   00000048+0000001714          1400 JT7090               1CZ
103967000103967               103967               170213TC     1400+00000+TC0000001753+0000001753+000000000+000000246+0000001990+0000000009+I20000000000+0000001990+Z
103967001103967036-000615     103967006003000218769WASH-PEGS PL PCK-24    0000001000+00001753+00000+0001T   00001753+0000001717          1400 JT7212               1BZ
103967002103967466-064838     103967006001023835031BALLS MASSAGE 8cm SET-30000001000-00001753+00000+0001T   00001753+0000001717          1400 JT77851IC            1 Z
103967003103967466-064838     103967006001023835031BALLS MASSAGE 8cm SET-30000001000+00001753+00000+0001T   00001753+0000001717          1400 JT77851IC            1BZ
103968000103968               103968               170213TC     1400+00000+TC0000016006+0000016006+000000000+000002244+0000018250+0000000000+I40000018250+0000000000+Z
103968001103968903-000155     103968006009803374435SWT LOLLY I LUV U HEART0000002000+00000525+00000+0001T   00000525+0000001720          1400 JT7150               1CZ
103968002103968466-000700     103968006003000588442TENNIS SET 2 RACKETS   0000001000+00011402+00000+0001T   00011402+0000001720          1400 JT7785               1CZ
103968003103968089-000191     103968006003000430185KEY CHAIN BEAR 10CM    0000001000+00002630+00000+0001T   00002630+0000001720          1400 JT7205               1CZ
103968004103968077-000314     103968006003000181148GIFT-BAG 11X14CM MATT  0000001000+00000876+00000+0001T   00000876+0000001720          1400 JT7112               1CZ
103968005103968112-116069     103968006009681820277TCS CARRIER BAG JUMBO  0000001000+00000048+00000+0001T   00000048+0000001720          1400 JT7090               1CZ
103969000103969               103969               170213TC     1400+00000+TC0000015123+0000015123+000000000+000002120+0000017240+0000000003+I20000000000+0000017240+Z
103969001103969077-000299-A   103969006003000670888GIFT-BAG PAPER JMB LOVE0000001000+00001753+00000+0001T   00001753+0000001727          1400 JT7112               1BZ
103969002103969080-000124     103969006003000297733CARD & ENV VALENTINES  0000001000+00001578+00000+0001T   00001578+0000001727          1400 JT7112               1BZ
103969003103969001-000175     103969006001023788108B/MUG GLS LOVE 380ML   0000001000+00004385+00000+0001T   00004385+0000001727          1400 JT7515               1BZ
103969004103969150-000775     103969006005387117000UTILITY-BOX LARGE      0000001000+00002367+00000+0001T   00002367+0000001727          1400 JT7810               1BZ
103969005103969006-000166-H   103969006003000608096BALLOONS HELIUM 6PC WHT0000001000+00001314+00000+0001T   00001314+0000001727          1400 JT7131               1BZ
103969006103969006-000190     103969006003000685530BALLOONS LOVE 81x91cm  0000001000-00004385+00000+0001T   00004385+0000001727          1400 JT71311IC            1 Z
103969007103969006-001000     103969006003000093779HELIUM BALLOON FILL    0000006000+00000613+00000+0001T   00000613+0000001727          1400 JT7131               1BZ
103969008103969006-000190     103969006003000685530BALLOONS LOVE 81x91cm  0000001000+00004385+00000+0001T   00004385+0000001727          1400 JT7131               1BZ
103969009103969112-116069     103969006009681820277TCS CARRIER BAG JUMBO  0000001000+00000048+00000+0001T   00000048+0000001727          1400 JT7090               1BZ
103970000103970               103970               170213TC     1400+00000+TC0000005521+0000005521+000000000+000000775+0000006290+0000000006+I20000000000+0000006290+Z
103970001103970018-000170     103970006001023775528MUG OCC. LOVE 2PC MINI 0000001000+00002192+00000+0001T   00002192+0000001730          1400 JT7515               1BZ
103970002103970903-000200     103970006009826020234SWT CHOC RP CHOCO 23G  0000002000+00000788+00000+0001T   00000788+0000001730          1400 JT7150               1BZ
103970003103970077-000011-X   103970006001023809827TISSUE-WRAP SILVER 10PC0000001000+00001753+00000+0001T   00001753+0000001730          1400 JT7112               1BZ
103971000103971               103971               170213TC     1400+00000+TC0000006139+0000006139+000000000+000000860+0000006990+0000000009+I20000000000+0000006990+Z
103971001103971264-000922     103971000090159250012MAISTO CAR PULL-BACK   0000001000+00006139+00000+0001T   00007016+0008191730          1400 JT7710               1BZ
103972000103972               103972               170213TC     1400+00000+TC0000001662+0000001662+000000000+000000234+0000001890+0000000006+I20000000000+0000001890+Z
103972001103972006-000171-H   103972006003000609574BALLOONS 1PC RED PRINT 0000002000+00000218+00000+0001T   00000218+0000001732          1400 JT7131               1BZ
103972002103972006-001000     103972006003000093779HELIUM BALLOON FILL    0000002000+00000613+00000+0001T   00000613+0000001732          1400 JT7131               1BZ
103973000103973               103973               170213TC     1400+00000+TC0000008286+0000008286+000000000+000001162+0000009448+0000000000+I40000009448+0000000000+Z
103973001103973903-000698     103973006002099007032SWT CANDY ECLAIRS 90g  0000001000+00001139+00000+0001T   00001139+0000001736          1400 JT7150               1CZ
103973002103973018-000177     103973006001023797513MUG MINI LOVE ASSTD    0000001000+00000700+00000+0001T   00000700+0000001736          1400 JT7515               1CZ
103973003103973018-005009     103973006001023725608MUG W/PLUSH-BEAR LOVE  0000001000+00003507+00000+0001T   00003507+0000001736          1400 JT7515               1CZ
103973004103973077-000351     103973006003000139033GIFT-BAG 18X23CM E/D P 0000001000+00001753+00000+0001T   00001753+0000001736          1400 JT7112               1CZ
103973005103973903-000087     103973006001704000161SWT SPECKLED-EGGS 50G  0000001000+00001139+00000+0001T   00001139+0000001736          1400 JT7150               1CZ
103973006103973112-116069     103973006003000535064TCS CARRIER BAG JUMBO  0000001000+00000048+00000+0001T   00000048+0000001736          1400 JT7090               1CZ
M17021301                              IT          TCLAST SALE NUMBER ON SLAVE 1-103973              THANKS
M17021391                              CASH        TCSLAVE 1                       Z-REPORT No.   585TOTAL (Sales - Refunds)           3126.51       CASH TO BE BANKED                 2354.30       DEBIT CARDS                          0.00       CREDIT CARDS                       772.21       Z-READING                         3126.51       AIRTIME DEBIT CARD SALES             0.00       AIRTIME CARD SALES                   0.00       OVERS/UNDERS                         0.00       AIRTIME CASH SALES                   0.00       GIFT CARDS                           0.00       GIFT CARD CASH SALES                 0.00       T O T A L  CASH PAYOUTS              0.00                                                                                                                                                                                                                                                                                                                                                      Z
M17021392                              CASH        TCABSENT                                                                                                                                                                                          ANNUAL LEAVE                                                                                                                                                                                    DAY OFF                                                                                                                                                                                         COMMENTS                                                                                                                                                                                                                                                                                                                                                                                       Z
Y17021300                                          TC00000000280606+000048
ZTC17021320233 SLAVE 1      SALES DATA                     NEXT INVOICE NO.  103974 0585
T086411031-000878-E                                        1608171047210000072ICSLAVE 1
X TC Slave 1 First invoice 103926 170213 Last invoice 103973 170213 Next invoice 103974 Total number of records 000000167 clbackup completed 20:23:39
