204627000204627               204627               170213TC     1400+00000+TC0000001139+0000001139+000000000+000000160+0000001290+0000000009+I20000000000+0000001290+Z
204627001204627162-097715     204627006001492977157#TAG NEW COLOUR E/PIERC0000001000+00001139+00000+0001T   00001139+0000000906          1400 AS4160               2CZ
204628000204628               204628               170213TC     1400+00000+TC0000014032+0000014032+000000000+000001966+0000015990+0000000008+I20000000000+0000015990+Z
204628001204628077-000270     204628006003000395453GIFT-BAG PPR JMB 33X45 0000001000+00002630+00000+0001T   00002630+0000000912          1400 AS4112               2BZ
204628002204628368-000637     204628006001023874092PLUSH BEAR SLEEPING LOV0000001000+00011402+00000+0001T   00012279+0006470912          1400 AS4745               2BZ
204629000204629               204629               170213TC     1400+00000+TC0000014909+0000014909+000000000+000002088+0000016990+0000000007+I20000000000+0000016990+Z
204629001204629267-000311     204629006003000610730PUZZLE WOOD TRAY ASSTD 0000001000+00003507+00000+0001T   00003507+0000000913          1400 AS4755               2CZ
204629002204629469-006603     204629006003000390441B/BLOCKS 86PC TROLY BAG0000001000+00011402+00000+0001T   00011402+0000000913          1400 AS4755               2CZ
204630000204630               204630               170213TC     1400+00000+TC0000006137+0000006137+000000000+000000860+0000006997+0000000000+I40000006997+0000000000+Z
204630001204630083-000058     204630006003000400331LIGHTER JET CIGAR REFIL0000001000+00002630+00000+0001T   00002630+0000000914          1400 AS4315               2BZ
204630002204630083-000077     204630006003000092581LIGHTER LONG-REACH 18cm0000001000+00003507+00000+0001T   00003507+0000000914          1400 AS4315               2BZ
204631000204631               204631               170213TC     1400+00000+TC0000008816+0000008816+000000000+000001236+0000010050+0000000002+I20000000000+0000010050+Z
204631001204631368-000001     204631006003000097982Plush Bear 25cm        0000001000+00004385+00000+0001T   00004385+0000000943          1400 AS4745               2BZ
204631002204631077-000316-A   204631006003000681457GIFT-BAG METALLIC PPR  0000001000+00002630+00000+0001T   00002630+0000000943          1400 AS4112               2BZ
204631003204631077-000381     204631006003000247707GIFT-BAG 25X32CM S/COL 0000001000+00001753+00000+0001T   00001753+0000000943          1400 AS4112               2BZ
204631004204631112-116069     204631006009681820277TCS CARRIER BAG JUMBO  0000001000+00000048+00000+0001T   00000048+0000000943          1400 AS4090               2BZ
204632000204632               204632               170213TC     1400+00000+TC0000005045+0000005045+000000000+000000707+0000005750+0000000002+I20000000000+0000005750+Z
204632001204632112-116069     204632006009681820277TCS CARRIER BAG JUMBO  0000001000+00000048+00000+0001T   00000048+0000000948          1400 AS4090               2CZ
204632002204632077-000299     204632006003000395576G/BAG 32x25cm LRG LOVE 0000001000+00001490+00000+0001T   00001490+0000000948          1400 AS4112               2CZ
204632003204632018-005009     204632006001023725608MUG W/PLUSH-BEAR LOVE  0000001000+00003507+00000+0001T   00003507+0000000948          1400 AS4515               2CZ
204633000204633               204633               170213TC     1400+00000+TC0000005610+0000005610+000000000+000000786+0000006390+0000000006+I20000000000+0000006390+Z
204633001204633077-000299     204633006003000395576G/BAG 32x25cm LRG LOVE 0000001000+00001490+00000+0001T   00001490+0000000949          1400 AS4112               2CZ
204633002204633304-001011     204633006001023806727FLWR ROSE RED W/BEAR   0000001000+00000613+00000+0001T   00000788+0006470949          1400 AS4510               2CZ
204633003204633018-005009     204633006001023725608MUG W/PLUSH-BEAR LOVE  0000001000+00003507+00000+0001T   00003507+0000000949          1400 AS4515               2CZ
204634000204634               204634               170213TC     1400+00000+TC0000001226+0000001226+000000000+000000172+0000001390+0000000008+I20000000000+0000001390+Z
204634001204634304-001011     204634006001023806727FLWR ROSE RED W/BEAR   0000002000+00000613+00000+0001T   00000788+0006470951          1400 AS4510               2CZ
204635000204635               204635               170213TC     1400+00000+TC0000016661+0000016661+000000000+000002335+0000018996+0000000000+I40000018996+0000000000+Z
204635001204635049-004582     204635006001023842923DOORMAT HALF-MOON 40x600000001000+00007016+00000+0001T   00007016+0000000955          1400 AS4510               2CZ
204635002204635362-019285     204635006001023869456HAIR BAND SET ASS. CARD0000001000+00002630+00000+0001T   00002630+0000000955          1400 AS4160               2CZ
204635003204635306-000021-A   204635006001023891358EARBUDS COTTON 100PCE  0000001000+00000876+00000+0001T   00000876+0000000955          1400 AS4200               2CZ
204635004204635158-003005     204635006003000637997FRUIT BASKET CHROME    0000001000+00006139+00000+0001T   00006139+0000000955          1400 AS4300               2CZ
204636000204636               204636               170213TC     1400+00000+TC0000003066+0000003066+000000000+000000430+0000003490+0000000006+I20000000000+0000003490+Z
204636001204636077-000299     204636006003000395576G/BAG 32x25cm LRG LOVE 0000001000+00001490+00000+0001T   00001490+0000001003          1400 AS4112               2BZ
204636002204636071-003004     204636006003000662821PEN BALL POINT 3PC BLUE0000001000+00000876+00000+0001T   00000876+0000001003          1400 AS4130               2BZ
204636003204636018-000177     204636006001023797513MUG MINI LOVE ASSTD    0000001000+00000700+00000+0001T   00000700+0000001003          1400 AS4515               2BZ
204637000204637               204637               170213TC     1400+00000+TC0000001525+0000001525+000000000+000000214+0000001730+0000000009+I20000000000+0000001730+Z
204637001204637077-000452     204637006003000284986G/BAG METALLIC MED EMB 0000001000+00001490+00000+0001T   00001490+0000001006          1400 AS4112               2BZ
204637002204637112-116038     204637006009681820246TCS CARRIER BAG MIDI   0000001000+00000035+00000+0001T   00000035+0000001006          1400 AS4090               2BZ
204638000204638               204638               170213TC     1400+00000+TC0000001753+0000001753+000000000+000000246+0000001990+0000000009+I20000000000+0000001990+Z
204638001204638046-000002     204638006001023585202BATTERIES SIZE:C   2PCE0000001000+00001753+00000+0001T   00001753+0000001007          1400 AS4312               2BZ
204639000204639               204639               170213TC     1400+00000+TC0000002630+0000002630+000000000+000000369+0000002990+0000000009+I20000000000+0000002990+Z
204639001204639206-000620     204639006003000631797BACK SCRATCHER EXTEND  0000001000+00002630+00000+0001T   00002630+0000001009          1400 AS4321               2CZ
204640000204640               204640               170213TC     1400+00000+TC0000008770+0000008770+000000000+000001228+0000009998+0000000000+I40000009998+0000000000+Z
204640001204640368-000049     204640006003000536955PLUSH BEAR 15cm LOVE   0000002000+00004385+00000+0001T   00004385+0000001047          1400 AS4745               2BZ
204641000204641               204641               170213TC     1400+00000+TC0000011399+0000011399+000000000+000001598+0000012997+0000000000+I40000012997+0000000000+Z
204641001204641301-085007     204641006003000673698ORN OCC. LOVE S/PLAQUE 0000001000+00007893+00000+0001T   00007893+0000001102          1400 AS4505               2BZ
204641002204641077-000455     204641006003000285389G/BAG METALLIC LRG SOL 0000001000+00001753+00000+0001T   00001753+0000001102          1400 AS4112               2BZ
204641003204641077-000011-X   204641006001023809827TISSUE-WRAP SILVER 10PC0000001000+00001753+00000+0001T   00001753+0000001102          1400 AS4112               2BZ
204642000204642               204642               170213TC     1400+00000+TC0000009495+0000009495+000000000+000001334+0000010829+0000000000+I40000010829+0000000000+Z
204642001204642903-004952     204642006002580020052SWT FREAKY FACES 100G  0000001000+00001314+00000+0001T   00001314+0000001105          1400 AS4150               2BZ
204642002204642018-000127     204642006001023380289MUG OCC STRAIGHT LOVE  0000001000+00001578+00000+0001T   00001753+0006471105          1400 AS4515               2BZ
204642003204642903-000200     204642006009826020234SWT CHOC RP CHOCO 23G  0000004000+00000788+00000+0001T   00000788+0000001105          1400 AS4150               2BZ
204642004204642903-004950     204642006002580020304SWT APRICOT SURPRISE   0000001000+00001314+00000+0001T   00001314+0000001105          1400 AS4150               2BZ
204642005204642903-000014     204642006003000691029SWT MIKE N IKE ORIG 23G0000001000+00001051+00000+0001T   00001051+0000001105          1400 AS4150               2BZ
204642006204642903-000015     204642000070970459955SWT MIKE N IKE B/BLAST 0000001000+00001051+00000+0001T   00001051+0000001105          1400 AS4150               2BZ
204642007204642112-116038     204642006009681820246TCS CARRIER BAG MIDI   0000001000+00000035+00000+0001T   00000035+0000001105          1400 AS4090               2BZ
204643000204643               204643               170213TC     1400+00000+TC0000005208+0000005208+000000000+000000730+0000005930+0000000008+I20000000000+0000005930+Z
204643001204643027-000082     204643006001023760258SCOURERS ROUND   PACK-60000001000+00001227+00000+0001T   00001227+0000001116          1400 AS4212               2BZ
204643002204643024-000002     204643006001023741899S/BURNER-COVER SILV/BLK0000001000+00003946+00000+0001T   00004385+0008191116          1400 AS4300               2BZ
204643003204643112-116038     204643006009681820246TCS CARRIER BAG MIDI   0000001000+00000035+00000+0001T   00000035+0000001116          1400 AS4090               2BZ
204644000204644               204644               170213TC     1400+00000+TC0000003682+0000003682+000000000+000000516+0000004190+0000000008+I20000000000+0000004190+Z
204644001204644006-000805     204644000013994092418STREAMERS 10-ROLLS     0000001000+00001490+00000+0001T   00001490+0000001121          1400 AS4131               2CZ
204644002204644006-000789     204644006001023148612CROWN BOY              0000001000+00002192+00000+0001T   00002192+0000001121          1400 AS4131               2CZ
204645000204645               204645               170213TC     1400+00000+TC0000003507+0000003507+000000000+000000491+0000003990+0000000008+I20000000000+0000003990+Z
204645001204645174-000303     204645006003000053605TRAVEL NECK WALLET     0000001000+00003507+00000+0001T   00003507+0000001122          1400 AS4205               2BZ
204646000204646               204646               170213TC     1400+00000+TC0000006135+0000006135+000000000+000000859+0000006994+0000000000+I40000006994+0000000000+Z
204646001204646077-000312     204646006001023608697GIFT-BAG 10X35CM GLOSS 0000001000+00001314+00000+0001T   00001314+0000001200          1400 AS4112               2BZ
204646002204646077-000310     204646006001023608635GIFT-BAG 18X23CM GLOSS 0000001000+00001314+00000+0001T   00001314+0000001200          1400 AS4112               2BZ
204646003204646018-005009     204646006001023725608MUG W/PLUSH-BEAR LOVE  0000001000+00003507+00000+0001T   00003507+0000001200          1400 AS4515               2BZ
204647000204647               204647               170213TC     1400+00000+TC0000010556+0000010556+000000000+000001480+0000012030+0000000006+I20000000000+0000012030+Z
204647001204647078-000025     204647008887013700064SUPERGLUE 3g 1PCE CARD 0000001000+00000876+00000+0001T   00000876+0000001209          1400 AS4810               2BZ
204647002204647200-000035     204647006001023768810FOOD-BOWL-COVERS 5PCE  0000001000+00002630+00000+0001T   00002630+0000001209          1400 AS4214               2BZ
204647003204647024-000165-D   204647006003000674435N/STICK SQUARE PAN     0000001000+00005262+00000+0001T   00005262+0000001209          1400 AS4300               2BZ
204647004204647112-116038     204647006009681820246TCS CARRIER BAG MIDI   0000001000+00000035+00000+0001T   00000035+0000001209          1400 AS4090               2BZ
204647005204647204-000001     204647006003000575558M/HOLD BOTTLE OPENER   0000001000+00001753+00000+0001T   00001753+0000001209          1400 AS4300               2BZ
204648000204648               204648               170213TC     1400+00000+TC0000011449+0000011449+000000000+000001604+0000013050+0000000003+I20000000000+0000013050+Z
204648001204648560-000256     204648006001023831101GROWING FISH ASSTD     0000001000+00002630+00000+0001T   00002630+0000001211          1400 AS4745               2BZ
204648002204648072-020242     204648006003000053728PET BED COTTON TEXTILE 0000001000+00008771+00000+0001T   00008771+0000001211          1400 AS4870               2BZ
204648003204648112-116069     204648006009681820277TCS CARRIER BAG JUMBO  0000001000+00000048+00000+0001T   00000048+0000001211          1400 AS4090               2BZ
204649000204649               204649               170213TC     1400+00000+TC0000014908+0000014908+000000000+000002088+0000016996+0000000000+I40000016996+0000000000+Z
204649001204649264-000925-351 204649006003000642205BURAGO 1:64 FERRARI    0000002000+00004385+00000+0001T   00006139+0008131224          1400 AS4710               2BZ
204649002204649301-000827     204649006001023872692ORN FAIRY MINI IN-BAG  0000001000+00003946+00000+0001T   00003946+0000001224          1400 AS4505               2BZ
204649003204649566-000352     204649006001023809261STICKERS LASER ASSTD   0000001000+00002192+00000+0001T   00002192+0000001224          1400 AS4130               2BZ
204650000204650               204650               170213TC     1400+00000+TC0000008278+0000008278+000000000+000001160+0000009438+0000000000+I40000009438+0000000000+Z
204650001204650112-116038     204650006009681820246TCS CARRIER BAG MIDI   0000001000+00000035+00000+0001T   00000035+0000001226          1400 AS4090               2BZ
204650002204650903-000111     204650006001704006378SWT LIQUORICE-TWISTS   0000001000+00001227+00000+0001T   00001227+0000001226          1400 AS4150               2BZ
204650003204650560-000245     204650006001023622716RUBBER ANIMALS 10PC ASS0000001000+00007016+00000+0001T   00007016+0000001226          1400 AS4745               2BZ
204651000204651               204651               170213TC     1400+00000+TC0000000918+0000000918+000000000+000000130+0000001040+0000000008+I20000000000+0000001040+Z
204651001204651071-000212     204651006009608641190CHALK WHITE 12PCE      0000001000+00000437+00000+0001T   00000437+0000001226          1400 AS4130               2BZ
204651002204651071-000012     204651006001177101006CHALK COLOUR 12PCE     0000001000+00000481+00000+0001T   00000481+0000001226          1400 AS4130               2BZ
204652000204652               204652               170213TC     1400+00000+TC0000012751+0000012751+000000000+000001786+0000014537+0000000000+I40000014537+0000000000+Z
204652001204652306-000002     204652006003000365852NAIL BRUSHES 3PC ASTD  0000001000+00001753+00000+0001T   00001753+0000001232          1400 AS4200               2BZ
204652002204652024-000042     204652006002580009255M/CUP MINI 30ML H/HOUSE0000001000+00002192+00000+0001T   00002192+0000001232          1400 AS4300               2BZ
204652003204652002-250010     204652006001023621931KITCHEN-SCALE 2kg      0000001000+00008771+00000+0001T   00008771+0000001232          1400 AS4300               2BZ
204652004204652112-116038     204652006009681820246TCS CARRIER BAG MIDI   0000001000+00000035+00000+0001T   00000035+0000001232          1400 AS4090               2BZ
204653000204653               204653               170213TC     1400+00000+TC0000001752+0000001752+000000000+000000246+0000001998+0000000000+I40000001998+0000000000+Z
204653001204653039-000319-2   204653006003000442508B/CANDLES LRG NUMBER-2 0000002000+00000876+00000+0001T   00000876+0000001236          1400 AS4510               2CZ
204654000204654               204654               170213TC     1400+00000+TC0000001139+0000001139+000000000+000000160+0000001290+0000000009+I20000000000+0000001290+Z
204654001204654046-000014     204654006001023725387BATTERIES SIZE:AAA 4PCE0000001000+00001139+00000+0001T   00001139+0000001236          1400 AS4312               2BZ
204655000204655               204655               170213TC     1400+00000+TC0000011402+0000011402+000000000+000001597+0000012999+0000000000+I10000002999+0000010000+Z
204655001204655586-010655     204655006001492106557WATCH KIDS CUFF ASSTD  0000001000+00011402+00000+0001T   00011402+0000001239          1400 AS4160               2CZ
204656000204656               204656               170213TC     1400+00000+TC0000003542+0000003542+000000000+000000496+0000004038+0000000000+I40000004038+0000000000+Z
204656001204656018-005009     204656006001023725608MUG W/PLUSH-BEAR LOVE  0000001000+00003507+00000+0001T   00003507+0000001251          1400 AS4515               2BZ
204656002204656112-116038     204656006009681820246TCS CARRIER BAG MIDI   0000001000+00000035+00000+0001T   00000035+0000001251          1400 AS4090               2BZ
204657000204657               204657               170213TC     1400+00000+TC0000005262+0000005262+000000000+000000737+0000005990+0000000009+I20000000000+0000005990+Z
204657001204657107-004510     204657006002580008968STEP-STOOL PL          0000001000+00005262+00000+0001T   00005262+0000001253          1400 AS4210               2BZ
204658000204658               204658               170213TC     1400+00000+TC0000029868+0000029868+000000000+000004183+0000034051+0000000000+I40000034051+0000000000+Z
204658001204658112-116069     204658006009681820277TCS CARRIER BAG JUMBO  0000001000+00000048+00000+0001T   00000048+0000001256          1400 AS4090               2BZ
204658002204658030-004015     204658006003000467624PLAQUE WDN SIGN 30X20CM0000001000+00009648+00000+0001T   00009648+0000001256          1400 AS4505               2BZ
204658003204658031-086302-C   204658006001023910332P/FRAME COLL. PL 3-HOLE0000001000+00008771+00000+0001T   00008771+0000001256          1400 AS4510               2BZ
204658004204658031-000871-C   204658006003000463169P/FRAME COLLAGE 3-HOLE 0000001000+00008771+00000+0001T   00008771+0000001256          1400 AS4510               2BZ
204658005204658077-000270     204658006003000395453GIFT-BAG PPR JMB 33X45 0000001000+00002630+00000+0001T   00002630+0000001256          1400 AS4112               2BZ
204659000204659               204659               170213TC     1400+00000+TC0000011083+0000011083+000000000+000001557+0000012640+0000000000+I40000012640+0000000000+Z
204659001204659077-000011-C   204659006001023808523TISSUE 10xSHTS RED     0000001000+00000876+00000+0001T   00000876+0000001300          1400 AS4112               2BZ
204659002204659077-000310     204659006001023608635GIFT-BAG 18X23CM GLOSS 0000002000+00001314+00000+0001T   00001314+0000001300          1400 AS4112               2BZ
204659003204659563-000318-L   204659006003000407088SERVIETTES 33cm RED    0000001000+00002192+00000+0001T   00002192+0000001300          1400 AS4214               2BZ
204659004204659077-000290     204659006001023902023GIFT BOX 26x32x13cm    0000001000+00001753+00000+0001T   00001753+0000001300          1400 AS4112               2BZ
204659005204659112-116069     204659006009681820277TCS CARRIER BAG JUMBO  0000001000+00000048+00000+0001T   00000048+0000001300          1400 AS4090               2BZ
204659006204659903-000519     204659006001704012805SWT MS LIQ-O-GHETTI    0000001000+00001227+00000+0001T   00001227+0000001300          1400 AS4150               2BZ
204659007204659903-000670     204659006009803358008SWT SHERBET RED LIPS   0000006000+00000218+00000+0001T   00000218+0000001300          1400 AS4150               2BZ
204659008204659903-000014     204659006003000691029SWT MIKE N IKE ORIG 23G0000001000+00001051+00000+0001T   00001051+0000001300          1400 AS4150               2BZ
204660000204660               204660               170213TC     1400+00000+TC0000001753+0000001753+000000000+000000246+0000001990+0000000009+I20000000000+0000001990+Z
204660001204660078-000026     204660006936198407090SUPERGLUE 3,0g GEL     0000001000+00001753+00000+0001T   00001753+0000001300          1400 AS4810               2BZ
204661000204661               204661               170213TC     1400+00000+TC0000024018+0000024018+000000000+000003366+0000027384+0000000000+I40000027384+0000000000+Z
204661001204661368-000614     204661006001023705808PLUSH LOVE 30cm        0000001000+00008771+00000+0001T   00008771+0000001303          1400 AS4745               2BZ
204661002204661077-000150-D   204661006003000054343GIFT-WRAP CELLPHANE CLR0000001000+00000876+00000+0001T   00000876+0000001303          1400 AS4112               2BZ
204661003204661077-000348     204661006001023483287GIFT-BOWS 4,5cm 8PCE   0000001000+00001578+00000+0001T   00001578+0000001303          1400 AS4112               2BZ
204661004204661903-000200     204661006009826020234SWT CHOC RP CHOCO 23G  0000003000+00000788+00000+0001T   00000788+0000001303          1400 AS4150               2BZ
204661005204661903-000194     204661006009826020616SWT CHOC RP LOLLY 25G  0000003000+00001314+00000+0001T   00001314+0000001303          1400 AS4150               2BZ
204661006204661077-000245     204661006001023759214GIFT-RIBBON METALLICx2 0000001000+00001227+00000+0001T   00001227+0000001303          1400 AS4112               2BZ
204661007204661018-005009     204661006001023725608MUG W/PLUSH-BEAR LOVE  0000001000+00003507+00000+0001T   00003507+0000001303          1400 AS4515               2BZ
204661008204661077-000299-A   204661006003000670888GIFT-BAG PAPER JMB LOVE0000001000+00001753+00000+0001T   00001753+0000001303          1400 AS4112               2BZ
204662000204662               204662               170213TC     1400+00000+TC0000005609+0000005609+000000000+000000787+0000006390+0000000006+I20000000000+0000006390+Z
204662001204662077-000314     204662006003000181148GIFT-BAG 11X14CM MATT  0000001000+00000876+00000+0001T   00000876+0000001305          1400 AS4112               2BZ
204662002204662077-000452     204662006003000284986G/BAG METALLIC MED EMB 0000002000+00001490+00000+0001T   00001490+0000001305          1400 AS4112               2BZ
204662003204662077-000316     204662006001023609731GIFT-BAG 25X32CM MATT  0000001000+00001753+00000+0001T   00001753+0000001305          1400 AS4112               2BZ
204663000204663               204663               170213TC     1400+00000+TC0000004383+0000004383+000000000+000000615+0000004990+0000000008+I20000000000+0000004990+Z
204663001204663162-093305     204663006001492933054#TAG PINKS WRISTWEAR   0000001000+00001753+00000+0001T   00001753+0000001309          1400 AS4160               2CZ
204663002204663159-000684     204663006001023776532BATH BODY-GLOVE 18cm   0000001000+00002630+00000+0001T   00002630+0000001309          1400 AS4200               2CZ
204664000204664               204664               170213TC     1400+00000+TC0000017577+0000017577+000000000+000002461+0000020038+0000000000+I40000020038+0000000000+Z
204664001204664001-091415     204664006003000329113W/GLS OCC. LOVE 2PC 2800000002000+00008771+00000+0001T   00009648+0006471312          1400 AS4515               2BZ
204664002204664112-116038     204664006009681820246TCS CARRIER BAG MIDI   0000001000+00000035+00000+0001T   00000035+0000001312          1400 AS4090               2BZ
204665000204665               204665               170213TC     1400+00000+TC0000004470+0000004470+000000000+000000627+0000005090+0000000007+I20000000000+0000005090+Z
204665001204665077-000305     204665006003000395422GIFT-BAG WINE 10X35CM  0000003000+00001490+00000+0001T   00001490+0000001312          1400 AS4112               2CZ
204666000204666               204666               170213TC     1400+00000+TC0000001753+0000001753+000000000+000000246+0000001990+0000000009+I20000000000+0000001990+Z
204666001204666491-059640     204666000078257596409INTEX:ARMBAND 3-6YRS   0000001000+00001753+00000+0001T   00001753+0000001336          1400 AS4787               2BZ
204667000204667               204667               170213TC     1400+00000+TC0000003506+0000003506+000000000+000000492+0000003990+0000000008+I20000000000+0000003990+Z
204667001204667077-000467     204667006003000329991GIFT-BAG STAMP 18X23CM 0000001000+00001753+00000+0001T   00001753+0000001337          1400 AS4112               2BZ
204667002204667039-082853     204667006003000141869C/SET 5PC BUTTERFLY    0000001000+00001753+00000+0001T   00002630+0008171337          1400 AS4510               2BZ
204668000204668               204668               170213TC     1400+00000+TC0000002454+0000002454+000000000+000000344+0000002790+0000000008+I20000000000+0000002790+Z
204668001204668206-000630     204668006003000631919SPECTACLE CLEANING BRUS0000002000+00001227+00000+0001T   00001227+0000001348          1400 AS4321               2CZ
204669000204669               204669               170213TC     1400+00000+TC0000004206+0000004206+000000000+000000590+0000004796+0000000000+I40000004796+0000000000+Z
204669001204669077-000270     204669006003000395453GIFT-BAG PPR JMB 33X45 0000001000+00002630+00000+0001T   00002630+0000001350          1400 AS4112               2BZ
204669002204669077-000011-C   204669006001023808523TISSUE 10xSHTS RED     0000001000+00000876+00000+0001T   00000876+0000001350          1400 AS4112               2BZ
204669003204669018-000177     204669006001023797513MUG MINI LOVE ASSTD    0000001000+00000700+00000+0001T   00000700+0000001350          1400 AS4515               2BZ
204670000204670               204670               170213TC     1400+00000+TC0000008330+0000008330+000000000+000001167+0000009490+0000000007+I20000000000+0000009490+Z
204670001204670034-091330     204670006003000664061COOEY BABY SHAMPOO CAP 0000001000+00003069+00000+0001T   00003069+0000001353          1400 AS4215               2BZ
204670002204670034-079055-A   204670006003000488209COOEY B/BRUSH 2PCE     0000001000+00004385+00000+0001T   00004385+0000001353          1400 AS4215               2BZ
204670003204670903-000503     204670006001704006118SWT VAMPIRE FANGS 60G  0000001000+00000876+00000+0001T   00000876+0000001353          1400 AS4150               2BZ
204671000204671               204671               170213TC     1400+00000+TC0000005700+0000005700+000000000+000000798+0000006498+0000000000+I40000006498+0000000000+Z
204671001204671075-000412     204671006001023855299SHOPPER-BASKET PL      0000001000+00005700+00000+0001T   00005700+0000001401          1400 AS4160               2CZ
204672000204672               204672               170213TC     1400+00000+TC0000004420+0000004420+000000000+000000619+0000005030+0000000009+I20000000000+0000005030+Z
204672001204672031-000001-A   204672006003000246908P/FRAME GLS LOVE 9X13cm0000001000+00004385+00000+0001T   00004385+0000001413          1400 AS4510               2CZ
204672002204672112-116038     204672006009681820246TCS CARRIER BAG MIDI   0000001000+00000035+00000+0001T   00000035+0000001413          1400 AS4090               2CZ
204673000204673               204673               170213TC     1400+00000+TC0000001313+0000001313+000000000+000000184+0000001497+0000000000+I40000001497+0000000000+Z
204673001204673304-001011     204673006001023806727FLWR ROSE RED W/BEAR   0000001000+00000613+00000+0001T   00000788+0006471423          1400 AS4510               2BZ
204673002204673018-000177     204673006001023797513MUG MINI LOVE ASSTD    0000001000+00000700+00000+0001T   00000700+0000001423          1400 AS4515               2BZ
204674000204674               204674               170213TC     1400+00000+TC0000011660+0000011660+000000000+000001634+0000013294+0000000000+I40000013294+0000000000+Z
204674001204674368-000614     204674006001023705808PLUSH LOVE 30cm        0000001000+00008771+00000+0001T   00008771+0000001430          1400 AS4745               2BZ
204674002204674903-000200     204674006009826020234SWT CHOC RP CHOCO 23G  0000002000+00000788+00000+0001T   00000788+0000001430          1400 AS4150               2BZ
204674003204674018-000177     204674006001023797513MUG MINI LOVE ASSTD    0000001000+00000700+00000+0001T   00000700+0000001430          1400 AS4515               2BZ
204674004204674304-001011     204674006001023806727FLWR ROSE RED W/BEAR   0000001000+00000613+00000+0001T   00000788+0006471430          1400 AS4510               2BZ
204675000204675               204675               170213TC     1400+00000+TC0000001578+0000001578+000000000+000000221+0000001790+0000000009+I20000000000+0000001790+Z
204675001204675077-000315     204675006003000181186GIFT-BAG 20x28cm MATT  0000001000+00001578+00000+0001T   00001578+0000001431          1400 AS4112               2BZ
204676000204676               204676               170213TC     1400+00000+TC0000001578+0000001578+000000000+000000221+0000001790+0000000009+I20000000000+0000001790+Z
204676001204676018-000127     204676006001023380289MUG OCC STRAIGHT LOVE  0000001000+00001578+00000+0001T   00001753+0006471436          1400 AS4515               2BZ
204677000204677               204677               170213TC     1400+00000+TC0000004385+0000004385+000000000+000000614+0000004990+0000000009+I20000000000+0000004990+Z
204677001204677082-000110     204677006003000360482READING GLS STRENGHT:2 0000001000+00004385+00000+0001T   00004385+0000001439          1400 AS4160               2CZ
204678000204678               204678               170213TC     1400+00000+TC0000005697+0000005697+000000000+000000798+0000006490+0000000005+I20000000000+0000006490+Z
204678001204678077-000310     204678006001023608635GIFT-BAG 18X23CM GLOSS 0000001000+00001314+00000+0001T   00001314+0000001440          1400 AS4112               2BZ
204678002204678903-003051     204678008024431008703SWT CHOCO PARTY 25G    0000001000+00000876+00000+0001T   00000876+0000001440          1400 AS4150               2BZ
204678003204678018-005009     204678006001023725608MUG W/PLUSH-BEAR LOVE  0000001000+00003507+00000+0001T   00003507+0000001440          1400 AS4515               2BZ
204679000204679               204679               170213TC     1400+00000+TC0000009680+0000009680+000000000+000001357+0000011030+0000000007+I20000000000+0000011030+Z
204679001204679162-092939     204679006001492929392#TAG KIDS H/CLIPS ASSTD0000002000+00001753+00000+0001T   00002630+0008161442          1400 AS4160               2BZ
204679002204679018-005007     204679006003000515516MUG OCC. LOVE W/HEARTS 0000001000+00006139+00000+0001T   00006139+0000001442          1400 AS4515               2BZ
204679003204679112-116038     204679006009681820246TCS CARRIER BAG MIDI   0000001000+00000035+00000+0001T   00000035+0000001442          1400 AS4090               2BZ
204680000204680               204680               170213TC     1400+00000+TC0000000876+0000000876+000000000+000000123+0000000990+0000000009+I20000000000+0000000990+Z
204680001204680903-000672     204680006009803358060SWT SHERBET W/STRAW    0000001000-00000174+00000+0001T   00000174+0000001444          1400 AS41502IC            2 Z
204680002204680903-000672     204680006009803358060SWT SHERBET W/STRAW    0000001000+00000174+00000+0001T   00000174+0000001444          1400 AS41502IC            2BZ
204680003204680903-000673     204680006009803358237SWT SHERBET GRAPE 4PK  0000001000+00000876+00000+0001T   00000876+0000001444          1400 AS4150               2BZ
204681000204681               204681               170213TC     1400+00000+TC0000001753+0000001753+000000000+000000246+0000001990+0000000009+I20000000000+0000001990+Z
204681001204681077-000316     204681006001023609731GIFT-BAG 25X32CM MATT  0000001000+00001753+00000+0001T   00001753+0000001445          1400 AS4112               2BZ
204682000204682               204682               170213TC     1400+00000+TC0000019687+0000019687+000000000+000002759+0000022446+0000000000+I40000022446+0000000000+Z
204682001204682112-116069     204682006009681820277TCS CARRIER BAG JUMBO  0000001000+00000048+00000+0001T   00000048+0000001457          1400 AS4090               2BZ
204682002204682046-000012     204682006904708013062BATTERIES AA  CARD-OF-40000001000+00001314+00000+0001T   00001314+0000001457          1400 AS4312               2BZ
204682003204682466-000614     204682006003000502486BALL SOC 10.1CM 3PCE   0000001000+00007016+00000+0001T   00007016+0000001457          1400 AS4785               2BZ
204682004204682464-000012     204682006003000537259GAME MAN SHAPED BUZZER 0000001000+00005262+00000+0001T   00005262+0000001457          1400 AS4785               2BZ
204682005204682018-000210     204682006003000580095MUG DAILY TEXTS 4-ASST 0000001000+00001753+00000+0001T   00001753+0000001457          1400 AS4515               2BZ
204682006204682077-000452     204682006003000284986G/BAG METALLIC MED EMB 0000001000+00001490+00000+0001T   00001490+0000001457          1400 AS4112               2BZ
204682007204682077-000407     204682006003000145096G/BAG PP 19X26X8CM     0000001000+00001314+00000+0001T   00001314+0000001457          1400 AS4112               2BZ
204682008204682077-000327     204682006001023677686GIFT-BAG 25X32CM E/D BA0000001000+00001490+00000+0001T   00001490+0000001457          1400 AS4112               2BZ
204683000204683               204683               170213TC     1400+00000+TC0000001753+0000001753+000000000+000000246+0000001990+0000000009+I20000000000+0000001990+Z
204683001204683491-059640     204683000078257596409INTEX:ARMBAND 3-6YRS   0000001000+00001753+00000+0001T   00001753+0000001458          1400 AS4787               2BZ
204684000204684               204684               170213TC     1400+00000+TC0000008801+0000008801+000000000+000001233+0000010034+0000000000+I40000010034+0000000000+Z
204684001204684018-019000     204684006003000557288MUG OCC. LOVE JUMBO    0000001000+00005262+00000+0001T   00005262+0000001508          1400 AS4515               2BZ
204684002204684077-000011-C   204684006001023808523TISSUE 10xSHTS RED     0000001000+00000876+00000+0001T   00000876+0000001508          1400 AS4112               2BZ
204684003204684903-004950     204684006002580020304SWT APRICOT SURPRISE   0000002000+00001314+00000+0001T   00001314+0000001508          1400 AS4150               2BZ
204684004204684112-116038     204684006009681820246TCS CARRIER BAG MIDI   0000001000+00000035+00000+0001T   00000035+0000001508          1400 AS4090               2BZ
204685000204685               204685               170213TC     1400+00000+TC0000003942+0000003942+000000000+000000552+0000004490+0000000004+I20000000000+0000004490+Z
204685001204685006-000167-C   204685006003000516971BALLOONS PINK METALLIC 0000001000+00001314+00000+0001T   00001314+0000001520          1400 AS4131               2BZ
204685002204685006-000166-D   204685006003000516490BALLOONS LRG 6PC RED   0000001000+00001314+00000+0001T   00001314+0000001520          1400 AS4131               2BZ
204685003204685006-000166-H   204685006003000608096BALLOONS HELIUM 6PC WHT0000001000+00001314+00000+0001T   00001314+0000001520          1400 AS4131               2BZ
204685004204685077-000235     204685006003000160211GIFT-RIBBON ROLL METALC0000001000-00002630+00000+0001T   00002630+0000001520          1400 AS41122IC            2BZ
204685005204685077-000235     204685006003000160211GIFT-RIBBON ROLL METALC0000001000+00002630+00000+0001T   00002630+0000001520          1400 AS41122IC            2BZ
204686000204686               204686               170213TC     1400+00000+TC0000002278+0000002278+000000000+000000320+0000002598+0000000000+I40000002598+0000000000+Z
204686001204686903-000155     204686006009803374435SWT LOLLY I LUV U HEART0000001000+00000525+00000+0001T   00000525+0000001521          1400 AS4150               2BZ
204686002204686024-000214     204686006001023587855COOKIE-CUTTERS PL 6PC  0000001000+00001753+00000+0001T   00001753+0000001521          1400 AS4300               2BZ
204687000204687               204687               170213TC     1400+00000+TC0000008331+0000008331+000000000+000001167+0000009490+0000000008+I20000000000+0000009490+Z
204687001204687033-000642     204687006001023681201H/BRUSH PADDLE 24cm    0000001000+00003069+00000+0001T   00003069+0000001525          1400 AS4200               2BZ
204687002204687158-000167     204687006003000569588WASTEPAPER-BASKET 26cm 0000001000+00005262+00000+0001T   00005262+0000001525          1400 AS4300               2BZ
204688000204688               204688               170213TC     1400+00000+TC0000010556+0000010556+000000000+000001478+0000012030+0000000004+I20000000000+0000012030+Z
204688001204688018-005009     204688006001023725608MUG W/PLUSH-BEAR LOVE  0000003000+00003507+00000+0001T   00003507+0000001530          1400 AS4515               2BZ
204688002204688112-116038     204688006009681820246TCS CARRIER BAG MIDI   0000001000+00000035+00000+0001T   00000035+0000001530          1400 AS4090               2BZ
204689000204689               204689               170213TC     1400+00000+TC0000001753+0000001753+000000000+000000246+0000001990+0000000009+I20000000000+0000001990+Z
204689001204689077-000290     204689006001023902023GIFT BOX 26x32x13cm    0000001000+00001753+00000+0001T   00001753+0000001535          1400 AS4112               2BZ
204690000204690               204690               170213TC     1400+00000+TC0000011935+0000011935+000000000+000001671+0000013600+0000000006+I20000000000+0000013600+Z
204690001204690018-000177     204690006001023797513MUG MINI LOVE ASSTD    0000017000+00000700+00000+0001T   00000700+0000001543          1400 AS4515               2BZ
204690002204690112-116038     204690006009681820246TCS CARRIER BAG MIDI   0000001000+00000035+00000+0001T   00000035+0000001543          1400 AS4090               2BZ
204691000204691               204691               170213TC     1400+00000+TC0000013892+0000013892+000000000+000001946+0000015838+0000000000+I40000015838+0000000000+Z
204691001204691368-000111     204691006001023780812PLUSH BEAR/DOG 29CM    0000001000+00012279+00000+0001T   00012279+0000001718          1400 AS4745               2BZ
204691002204691018-000127     204691006001023380289MUG OCC STRAIGHT LOVE  0000001000+00001578+00000+0001T   00001753+0006471718          1400 AS4515               2BZ
204691003204691112-116038     204691006009681820246TCS CARRIER BAG MIDI   0000001000+00000035+00000+0001T   00000035+0000001718          1400 AS4090               2BZ
204692000204692               204692               170213TC     1400+00000+TC0000002192+0000002192+000000000+000000307+0000002499+0000000000+I40000002499+0000000000+Z
204692001204692051-002400     204692006001023616180TRIGGER-SPRAYER 900ml  0000001000+00002192+00000+0001T   00002192+0000001722          1400 AS4820               2BZ
204693000204693               204693               170213TC     1400+00000+TC0000001839+0000001839+000000000+000000258+0000002090+0000000007+I20000000000+0000002090+Z
204693001204693304-001011     204693006001023806727FLWR ROSE RED W/BEAR   0000003000+00000613+00000+0001T   00000788+0006471723          1400 AS4510               2CZ
204694000204694               204694               170213TC     1400+00000+TC0000010257+0000010257+000000000+000001438+0000011695+0000000000+I40000011695+0000000000+Z
204694001204694080-000133-A   204694006003000647019MINI VALENTINES CARD   0000001000+00000437+00000+0001T   00000437+0000001725          1400 AS4112               2BZ
204694002204694089-000220     204694006003000677368KEY CHAIN+PEN+KNIFE    0000001000+00003069+00000+0001T   00003069+0000001725          1400 AS4205               2BZ
204694003204694018-030000     204694006003000421060MUG OCCASIONS LOVE 2PCE0000001000+00004385+00000+0001T   00004385+0000001725          1400 AS4515               2BZ
204694004204694077-000011-C   204694006001023808523TISSUE 10xSHTS RED     0000001000+00000876+00000+0001T   00000876+0000001725          1400 AS4112               2BZ
204694005204694077-000452     204694006003000284986G/BAG METALLIC MED EMB 0000001000+00001490+00000+0001T   00001490+0000001725          1400 AS4112               2BZ
204695000204695               204695               170213TC     1400+00000+TC0000002665+0000002665+000000000+000000374+0000003030+0000000009+I20000000000+0000003030+Z
204695001204695018-000129     204695006001023403353MUG OCC. LOVE V-SHAPE  0000001000+00002630+00000+0001T   00002630+0000001727          1400 AS4515               2CZ
204695002204695112-116038     204695006009681820246TCS CARRIER BAG MIDI   0000001000+00000035+00000+0001T   00000035+0000001727          1400 AS4090               2CZ
204696000204696               204696               170213TC     1400+00000+TC0000006575+0000006575+000000000+000000922+0000007490+0000000007+I20000000000+0000007490+Z
204696001204696077-000251     204696006003000639106GIFT-DECOR RIBBON      0000001000+00002630+00000+0001T   00002630+0000001728          1400 AS4112               2CZ
204696002204696077-000240     204696006003000326259G/RIBBON 4PC PEARLIZED 0000001000+00001753+00000+0001T   00001753+0000001728          1400 AS4112               2CZ
204696003204696563-000318-L   204696006003000407088SERVIETTES 33cm RED    0000001000+00002192+00000+0001T   00002192+0000001728          1400 AS4214               2CZ
204697000204697               204697               170213TC     1400+00000+TC0000021906+0000021906+000000000+000003072+0000024978+0000000000+I40000024978+0000000000+Z
204697001204697006-000166-D   204697006003000516490BALLOONS LRG 6PC RED   0000001000+00001314+00000+0001T   00001314+0000001732          1400 AS4131               2BZ
204697002204697006-000190     204697006003000685530BALLOONS LOVE 81x91cm  0000001000+00004385+00000+0001T   00004385+0000001732          1400 AS4131               2BZ
204697003204697024-000003     204697006001023462206S/BURNER COVERS ASSTD  0000001000+00004385+00000+0001T   00004385+0000001732          1400 AS4300               2BZ
204697004204697030-000040     204697006003000396412PLAQUE WDN HANGING HRTS0000001000+00003069+00000+0001T   00003069+0000001732          1400 AS4505               2BZ
204697005204697006-001000-NA  204697006003000714087HELIUM BALLOON FILL    0000004000+00000725+00000+0001T   00000725+0000001732          1400 AS4131               2BZ
204697006204697006-001000     204697006003000093779HELIUM BALLOON FILL    0000006000+00000613+00000+0001T   00000613+0000001732          1400 AS4131               2BZ
204697007204697006-001000-NA  204697006003000714087HELIUM BALLOON FILL    0000003000+00000725+00000+0001T   00000725+0000001732          1400 AS4131               2BZ
204698000204698               204698               170213TC     1400+00000+TC0000022443+0000022443+000000000+000003149+0000025590+0000000002+I20000000000+0000025590+Z
204698001204698563-000317-C   204698006001023776204SERVIETTES 20PK  FLOWER0000002000+00002630+00000+0001T   00002630+0000001734          1400 AS4214               2BZ
204698002204698112-116069     204698006009681820277TCS CARRIER BAG JUMBO  0000001000+00000048+00000+0001T   00000048+0000001734          1400 AS4090               2BZ
204698003204698563-000317-C   204698006001023776204SERVIETTES 20PK  FLOWER0000002000+00002630+00000+0001T   00002630+0000001734          1400 AS4214               2BZ
204698004204698306-000024-A   204698006003000577309COTTON-WOOL-PADS 80PC  0000001000+00001753+00000+0001T   00001753+0000001734          1400 AS4200               2BZ
204698005204698306-000020-A   204698006001023873583TISSUES 100PCE 19x18cm 0000001000+00001753+00000+0001T   00001753+0000001734          1400 AS4200               2BZ
204698006204698032-000336     204698006001023369109MIRROR HANGING MAGNETIC0000001000+00002192+00000+0001T   00002192+0000001734          1400 AS4510               2BZ
204698007204698306-000020     204698006001023743145POCKET-TISSUES 10PCE   0000003000+00000306+00000+0001T   00000306+0000001734          1400 AS4200               2BZ
204698008204698032-000309     204698006001023477804MIRROR STANDING PL SML 0000001000+00001490+00000+0001T   00001490+0000001734          1400 AS4510               2BZ
204698009204698007-000714     204698006003000227150NOTE-BK A6 WIRO 80SHTS 0000001000+00002630+00000+0001T   00002630+0000001734          1400 AS4130               2BZ
204698010204698046-000014     204698006001023725387BATTERIES SIZE:AAA 4PCE0000001000+00001139+00000+0001T   00001139+0000001734          1400 AS4312               2BZ
204699000204699               204699               170213TC     1400+00000+TC0000002630+0000002630+000000000+000000369+0000002999+0000000000+I40000002999+0000000000+Z
204699001204699106-001109     204699006003000666355W/BOTTLE 650ml         0000001000+00002630+00000+0001T   00002630+0000001736          1400 AS4210               2CZ
204700000204700               204700               170213TC     1400+00000+TC0000039143+0000039143+000000000+000005488+0000044630+0000000001+I20000000000+0000044630+Z
204700001204700203-005001     204700006003000088546DRINK GAME-SPIN A DRINK0000004000+00006139+00000+0001T   00006139+0000001742          1400 AS4300               2BZ
204700002204700046-000014-VP  204700006003000537952BATTERIES H/P SIZE:AAA 0000001000+00004121+00000+0001T   00004121+0000001742          1400 AS4312               2BZ
204700003204700301-085008     204700006003000673933ORN OCC.LOVE TINSEL HRT0000002000+00003069+00000+0001T   00003069+0000001742          1400 AS4505               2BZ
204700004204700006-000172-H   204700006003000610211BALLOONS METALLIC RED  0000010000+00000218+00000+0001T   00000218+0000001742          1400 AS4131               2BZ
204700005204700903-000070     204700006001704001106SWT TOFFEE CREAMY 35g  0000003000+00000700+00000+0001T   00000700+0000001742          1400 AS4150               2BZ
204700006204700112-116069     204700006009681820277TCS CARRIER BAG JUMBO  0000001000+00000048+00000+0001T   00000048+0000001742          1400 AS4090               2BZ
204701000204701               204701               170213TC     1400+00000+TC0000017136+0000017136+000000000+000002401+0000019537+0000000000+I40000019537+0000000000+Z
204701001204701496-056508     204701000078257565085INTEX POOL-GAME        0000001000+00012279+00000+0001T   00012279+0000001745          1400 AS4787               2CZ
204701002204701124-000001     204701000738380781690STORAGE TIN TISSUE     0000001000+00002630+00000+0001T   00003507+0008171745          1400 AS4300               2CZ
204701003204701112-116038     204701006009681820246TCS CARRIER BAG MIDI   0000001000+00000035+00000+0001T   00000035+0000001745          1400 AS4090               2CZ
204701004204701033-000782     204701006001023905482COSMETIC SPONGES 12PC  0000001000+00002192+00000+0001T   00002192+0000001745          1400 AS4200               2CZ
204702000204702               204702               170213TC     1400+00000+TC0000002629+0000002629+000000000+000000369+0000002998+0000000000+I40000002998+0000000000+Z
204702001204702077-000239     204702006003000160419GIFT-RIBBON ROLL PEARL 0000001000+00001753+00000+0001T   00001753+0000001751          1400 AS4112               2BZ
204702002204702077-000151     204702006008766114676GIFT-WRAP C/PHANE ASSTD0000001000+00000876+00000+0001T   00000876+0000001751          1400 AS4112               2BZ
204703000204703               204703               170213TC     1400+00000+TC0000016869+0000016869+000000000+000002365+0000019234+0000000000+I40000019234+0000000000+Z
204703001204703112-116038     204703006009681820246TCS CARRIER BAG MIDI   0000001000+00000035+00000+0001T   00000035+0000001752          1400 AS4090               2BZ
204703002204703369-000225     204703006001023857132BABY EDU BATHTIME 5PC  0000001000+00002630+00000+0001T   00002630+0000001752          1400 AS4745               2BZ
204703003204703369-001026     204703006001023795977BABY-RATTLE CATERPILLAR0000001000+00003507+00000+0001T   00003507+0000001752          1400 AS4745               2BZ
204703004204703903-002850     204703000000087108262MENTOS ROLL FRUIT      0000001000+00001051+00000+0001T   00001051+0000001752          1400 AS4150               2BZ
204703005204703301-085007     204703006003000673698ORN OCC. LOVE S/PLAQUE 0000001000+00007893+00000+0001T   00007893+0000001752          1400 AS4505               2BZ
204703006204703080-000111     204703006003000252695CARD&ENVELPE - MUSICAL 0000001000+00001753+00000+0001T   00001753+0000001752          1400 AS4112               2BZ
204704000204704               204704               170213TC     1400+00000+TC0000004235+0000004235+000000000+000000593+0000004820+0000000008+I20000000000+0000004820+Z
204704001204704112-116038     204704006009681820246TCS CARRIER BAG MIDI   0000001000+00000035+00000+0001T   00000035+0000001753          1400 AS4090               2CZ
204704002204704018-000177     204704006001023797513MUG MINI LOVE ASSTD    0000006000+00000700+00000+0001T   00000700+0000001753          1400 AS4515               2CZ
204705000204705               204705               170213TC     1400+00000+TC0000002630+0000002630+000000000+000000369+0000002990+0000000009+I20000000000+0000002990+Z
204705001204705077-000456     204705006003000285549G/BAG METALLIC JMB EMB 0000001000+00002630+00000+0001T   00002630+0000001754          1400 AS4112               2BZ
M17021301                              GLADWYN     TCLAST SALES NUMBER ON SLAVE 2-204705             THANKS
M17021391                              CASH        TCSLAVE 2                       Z-REPORT No.   589TOTAL (Sales - Refunds)           7024.81       CASH TO BE BANKED                 3306.10       DEBIT CARDS                          0.00       CREDIT CARDS                      3718.71       Z-READING                         7024.81       AIRTIME DEBIT CARD SALES             0.00       AIRTIME CARD SALES                   0.00       OVERS/UNDERS                         0.00       AIRTIME CASH SALES                   0.00       GIFT CARDS                           0.00       GIFT CARD CASH SALES                 0.00       T O T A L  CASH PAYOUTS              0.00                                                                                                                                                                                                                                                                                                                                                      Z
M17021392                              CASH        TCABSENT                                                                                                                                                                                          ANNUAL LEAVE                                                                                                                                                                                    DAY OFF                                                                                                                                                                                         COMMENTS                                                                                                                                                                                                                                                                                                                                                                                       Z
Y17021300                                          TC00000000619233+000079
ZTC17021320233 SLAVE 2      SALES DATA                     NEXT INVOICE NO.  204706 0589
T086411031-000878-E                                        1605251225200000071ICSLAVE 2
X TC Slave 2 First invoice 204627 170213 Last invoice 204705 170213 Next invoice 204706 Total number of records 000000303 clbackup completed 20:23:40
