108811000108811               108811               170213TD     1400+00000+TD0000001227+0000001227+000000000+000000172+0000001390+0000000009+I20000000000+0000001390+Z
108811001108811077-000322     108811006001023677532GIFT-BAG 18X23CM E/D FL0000001000+00001227+00000+0001T   00001227+0000000911          1400 BT8112               1AZ
108812000108812               108812               170213TD     1400+00000+TD0000004204+0000004204+000000000+000000592+0000004790+0000000006+I20000000000+0000004790+Z
108812001108812079-009702-A   108812008427973059408PAPER SIRIO A2 BLACK   0000004000+00001051+00000+0001T   00001051+0000000914          1400 BT8130               1AZ
108813000108813               108813               170213TD     1400+00000+TD0000005699+0000005699+000000000+000000799+0000006490+0000000008+I20000000000+0000006490+Z
108813001108813072-020322     108813006003000603701PET DOG TOY TUG-ROPE   0000001000+00003069+00000+0001T   00003069+0000000916          1400 BT8870               1AZ
108813002108813072-020300     108813006008632000430DOG-TOY TUG-A-BALL SML 0000001000+00002630+00000+0001T   00002630+0000000916          1400 BT8870               1AZ
108814000108814               108814               170213TD     1400+00000+TD0000005260+0000005260+000000000+000000737+0000005990+0000000007+I20000000000+0000005990+Z
108814001108814027-000022     108814006003000666072SCRUBBING BRUSH 17cm   0000001000+00001753+00000+0001T   00001753+0000000938          1400 BT8212               1AZ
108814002108814140-001001     108814006001023599926ROACH-TRAPS 5PCE    BOX0000001000+00003507+00000+0001T   00003507+0000000938          1400 BT8830               1AZ
108815000108815               108815               170213TD     1400+00000+TD0000010520+0000010520+000000000+000001476+0000011990+0000000006+I20000000000+0000011990+Z
108815001108815050-000364-Z   108815006001023777133PADLOCK IRON 38mm CARD 0000004000+00002630+00000+0001T   00002630+0000000945          1400 BT8855               1AZ
108816000108816               108816               170213TD     1400+00000+TD0000002630+0000002630+000000000+000000369+0000002990+0000000009+I20000000000+0000002990+Z
108816001108816050-000364-Z   108816006001023777133PADLOCK IRON 38mm CARD 0000001000+00002630+00000+0001T   00002630+0000000945          1400 BT8855               1AZ
108817000108817               108817               170213TD     1400+00000+TD0000019776+0000019776+000000000+000002771+0000022540+0000000007+I20000000000+0000022540+Z
108817001108817079-011234     108817006001023829139ART+CRAFT PAINTING ASST0000001000+00003507+00000+0001T   00003507+0000000952          1400 BT8130               1AZ
108817002108817024-091102     108817006003453000010BAKING-CUP PAPER 50PC  0000001000+00002192+00000+0001T   00002192+0000000952          1400 BT8300               1AZ
108817003108817566-000359     108817006003000582709STICKER BOOK LOVE SPARK0000001000+00002192+00000+0001T   00002192+0000000952          1400 BT8130               1AZ
108817004108817566-000031     108817006003000283910STICKER BK TEACHER STIC0000001000+00002192+00000+0001T   00002192+0000000952          1400 BT8130               1AZ
108817005108817566-000362     108817006003000583065STICKER LETTER & NUMBER0000001000+00001753+00000+0001T   00001753+0000000952          1400 BT8130               1AZ
108817006108817079-001002     108817006003000448715CANVAS A4 WOOD MOUNTED 0000001000+00002630+00000+0001T   00002630+0000000952          1400 BT8130               1AZ
108817007108817018-000129-A   108817006003000441396MUG CERAMIC JUMBO      0000001000+00005262+00000+0001T   00005262+0000000952          1400 BT8515               1AZ
108817008108817112-116069     108817006009681820277TCS CARRIER BAG JUMBO  0000001000+00000048+00000+0001T   00000048+0000000952          1400 BT8090               1AZ
108818000108818               108818               170213TD     1400+00000+TD0000004385+0000004385+000000000+000000614+0000004990+0000000009+I20000000000+0000004990+Z
108818001108818001-000175     108818006001023788108B/MUG GLS LOVE 380ML   0000001000+00004385+00000+0001T   00004385+0000000958          1400 BT8515               1AZ
108819000108819               108819               170213TD     1400+00000+TD0000007487+0000007487+000000000+000001049+0000008530+0000000006+I20000000000+0000008530+Z
108819001108819564-000001     108819006003000140589BUBBLE B/O GUN PL      0000001000+00004385+00000+0001T   00004385+0000001029          1400 BT8131               1AZ
108819002108819006-000167-D   108819006003000517091BALLOONS PRPLE METALLIC0000001000+00001314+00000+0001T   00001314+0000001029          1400 BT8131               1AZ
108819003108819903-000612     108819006003000617449SWT TRUMPET 20cm       0000001000+00001753+00000+0001T   00001753+0000001029          1400 BT8150               1AZ
108819004108819112-116038     108819006009681820246TCS CARRIER BAG MIDI   0000001000+00000035+00000+0001T   00000035+0000001029          1400 BT8090               1AZ
108820000108820               108820               170213TD     1400+00000+TD0000001753+0000001753+000000000+000000246+0000001999+0000000000+I40000001999+0000000000+Z
108820001108820006-000118     108820006001023730725BALLOONS 6PC TWISTER   0000001000+00001753+00000+0001T   00001753+0000001030          1400 BT8131               1AZ
108821000108821               108821               170213TD     1400+00000+TD0000012749+0000012749+000000000+000001786+0000014530+0000000005+I20000000000+0000014530+Z
108821001108821039-000794     108821006946859289958CANDLE T/LITE 3PC LED  0000001000+00004385+00000+0001T   00004385+0000001035          1400 BT8510               1AZ
108821002108821039-091783     108821006003000275434 CANDLE VOTIVE 4PC 50G 0000001000+00003507+00000+0001T   00003507+0000001035          1400 BT8510               1AZ
108821003108821077-000005-B   108821006003000326617PAPER TISSUE PATTERN   0000001000+00002630+00000+0001T   00002630+0000001035          1400 BT8112               1AZ
108821004108821566-000359     108821006003000582709STICKER BOOK LOVE SPARK0000001000+00002192+00000+0001T   00002192+0000001035          1400 BT8130               1AZ
108821005108821112-116038     108821006009681820246TCS CARRIER BAG MIDI   0000001000+00000035+00000+0001T   00000035+0000001035          1400 BT8090               1AZ
108822000108822               108822               170213TD     1400+00000+TD0000011623+0000011623+000000000+000001629+0000013252+0000000000+I40000013252+0000000000+Z
108822001108822080-000127     108822006003000424351VALENTINES DAY 36x24CM 0000001000+00002192+00000+0001T   00002192+0000001037          1400 BT8112               1AZ
108822002108822077-000299     108822006003000395576G/BAG 32x25cm LRG LOVE 0000001000+00001490+00000+0001T   00001490+0000001037          1400 BT8112               1AZ
108822003108822301-085007     108822006003000673698ORN OCC. LOVE S/PLAQUE 0000001000+00007893+00000+0001T   00007893+0000001037          1400 BT8505               1AZ
108822004108822112-116069     108822006009681820277TCS CARRIER BAG JUMBO  0000001000+00000048+00000+0001T   00000048+0000001037          1400 BT8090               1AZ
108823000108823               108823               170213TD     1400+00000+TD0000005294+0000005294+000000000+000000743+0000006030+0000000007+I20000000000+0000006030+Z
108823001108823077-000251     108823006003000639106GIFT-DECOR RIBBON      0000001000+00002630+00000+0001T   00002630+0000001039          1400 BT8112               1AZ
108823002108823080-000500     108823006001023846211CARD&ENV 6PK GLITTER   0000001000+00001753+00000+0001T   00001753+0000001039          1400 BT8112               1AZ
108823003108823077-000011-D   108823006001023808554TISSUE-WRAP WHITE 10PCE0000001000+00000876+00000+0001T   00000876+0000001039          1400 BT8112               1AZ
108823004108823112-116038     108823006009681820246TCS CARRIER BAG MIDI   0000001000+00000035+00000+0001T   00000035+0000001039          1400 BT8090               1AZ
108824000108824               108824               170213TD     1400+00000+TD0000009648+0000009648+000000000+000001351+0000010990+0000000009+I20000000000+0000010990+Z
108824001108824159-000090     108824006003000401246SHOWER-CADDY CHROME    0000001000+00009648+00000+0001T   00009648+0000001108          1400 BT8200               1AZ
108825000108825               108825               170213TD     1400+00000+TD0000008771+0000008771+000000000+000001228+0000009990+0000000009+I20000000000+0000009990+Z
108825001108825019-000040     108825006001023673640VASE GLS 30CM CYLINDER 0000001000+00008771+00000+0001T   00008771+0000001123          1400 BT8510               1AZ
108826000108826               108826               170213TD     1400+00000+TD0000008623+0000008623+000000000+000001210+0000009830+0000000003+I20000000000+0000009830+Z
108826001108826071-005060     108826006003000152186CELLOTAPE 2PACK INVSBLE0000001000+00003507+00000+0001T   00003507+0000001217          1400 BT8130               1AZ
108826002108826077-000011-C   108826006001023808523TISSUE 10xSHTS RED     0000002000+00000876+00000+0001T   00000876+0000001217          1400 BT8112               1AZ
108826003108826077-000245     108826006001023759214GIFT-RIBBON METALLICx2 0000001000+00001227+00000+0001T   00001227+0000001217          1400 BT8112               1AZ
108826004108826007-000119     108826006002324004126BOOK COVER PL          0000002000+00001051+00000+0001T   00001051+0000001217          1400 BT8130               1AZ
108826005108826112-116038     108826006009681820246TCS CARRIER BAG MIDI   0000001000+00000035+00000+0001T   00000035+0000001217          1400 BT8090               1AZ
108827000108827               108827               170213TD     1400+00000+TD0000003506+0000003506+000000000+000000492+0000003998+0000000000+I40000003998+0000000000+Z
108827001108827252-000021     108827006001023475213CURTAIN WIRE+HOOKS+EYES0000002000+00001753+00000+0001T   00001753+0000001239          1400 BT8810               1AZ
108828000108828               108828               170213TD     1400+00000+TD0000001578+0000001578+000000000+000000221+0000001790+0000000009+I20000000000+0000001790+Z
108828001108828018-000127     108828006001023380289MUG OCC STRAIGHT LOVE  0000001000+00001578+00000+0001T   00001753+0006471242          1400 BT8515               1AZ
108829000108829               108829               170213TD     1400+00000+TD0000008771+0000008771+000000000+000001228+0000009990+0000000009+I20000000000+0000009990+Z
108829001108829039-000799     108829006001023692382CANDLES TEALITE 100PCE 0000001000+00008771+00000+0001T   00008771+0000001258          1400 BT8510               1AZ
108830000108830               108830               170213TD     1400+00000+TD0000011751+0000011751+000000000+000001646+0000013390+0000000007+I20000000000+0000013390+Z
108830001108830002-021064     108830006001023822246TOOTHPICKS IN-HOLDER   0000002000+00001490+00000+0001T   00001490+0000001259          1400 BT8300               1AZ
108830002108830039-000799     108830006001023692382CANDLES TEALITE 100PCE 0000001000+00008771+00000+0001T   00008771+0000001259          1400 BT8510               1AZ
108831000108831               108831               170213TD     1400+00000+TD0000023015+0000023015+000000000+000003226+0000026241+0000000000+I40000026241+0000000000+Z
108831001108831560-000023     108831006003000651399ANIMALS DRAGON         0000001000+00003507+00000+0001T   00003507+0000001308          1400 BT8745               1AZ
108831002108831560-000115     108831006003000593187ANIMALS BOBBLE HEAD    0000001000+00003507+00000+0001T   00003507+0000001308          1400 BT8745               1AZ
108831003108831040-000213     108831006001023617736CANDLE-HOLDER DAISY    0000001000+00001227+00000+0001T   00001227+0000001308          1400 BT8510               1AZ
108831004108831039-000026     108831006001023551610C/TAPERED 25CM M/RED   0000001000+00001051+00000+0001T   00001051+0000001308          1400 BT8510               1AZ
108831005108831368-000183     108831006003000668175PLUSH BEAR 15cm        0000001000+00005262+00000+0001T   00005262+0000001308          1400 BT8745               1AZ
108831006108831133-083230     108831006001023714305T/CLOTH 132x183cm OBLNG0000001000+00003507+00000+0001T   00003507+0000001308          1400 BT8212               1AZ
108831007108831038-047246     108831006001023873750PLACEMAT 44x28cm KIDS  0000003000+00000876+00000+0001T   00000876+0000001308          1400 BT8300               1AZ
108831008108831112-116069     108831006009681820277TCS CARRIER BAG JUMBO  0000001000+00000048+00000+0001T   00000048+0000001308          1400 BT8090               1AZ
108831009108831040-000213     108831006001023617736CANDLE-HOLDER DAISY    0000001000+00001227+00000+0001T   00001227+0000001308          1400 BT8510               1AZ
108831010108831039-000026     108831006001023551610C/TAPERED 25CM M/RED   0000001000+00001051+00000+0001T   00001051+0000001308          1400 BT8510               1AZ
108832000108832               108832               170213TD     1400+00000+TD0000010523+0000010523+000000000+000001475+0000011990+0000000008+I20000000000+0000011990+Z
108832001108832366-000901     108832006003000563807DRESS UP WINGS B/FLY   0000001000+00007893+00000+0001T   00007893+0000001340          1400 BT8131               1AZ
108832002108832266-003012     108832006001023786128BOYS P/SET ARCHERY 4pc 0000001000+00002630+00000+0001T   00002630+0000001340          1400 BT8710               1AZ
108833000108833               108833               170213TD     1400+00000+TD0000006485+0000006485+000000000+000000910+0000007395+0000000000+I40000007395+0000000000+Z
108833001108833306-000985     108833006003000559831FIRSTAID PLASTER 10PC  0000001000+00001490+00000+0001T   00001490+0000001341          1400 BT8200               1AZ
108833002108833058-001200     108833006001023183798KNIFE 9mm SNAPOFF-BLADE0000001000+00000876+00000+0001T   00000876+0000001341          1400 BT8840               1AZ
108833003108833048-000840-DP  108833006003000691456TORCH RUB KRY-BULB 1xAA0000001000+00001753+00000+0001T   00001753+0000001341          1400 BT8305               1AZ
108833004108833047-000001-BB  108833006001023723536INS-TAPE BLACK 18mmx10m0000001000+00000613+00000+0001T   00000613+0000001341          1400 BT8880               1AZ
108833005108833565-000050     108833006001023906199SLIME BOMB DISPLAY BOX 0000001000+00001753+00000+0001T   00001753+0000001341          1400 BT8745               1AZ
108834000108834               108834               170213TD     1400+00000+TD0000005172+0000005172+000000000+000000725+0000005890+0000000007+I20000000000+0000005890+Z
108834001108834073-000158     108834006003000683352COSMETIC BAG 18x10x3   0000001000+00002192+00000+0001T   00002192+0000001401          1400 BT8200               1AZ
108834002108834007-000160     108834006009685857286NOTE-BOOK A5 SHORTHAND 0000001000+00001227+00000+0001T   00001227+0000001401          1400 BT8130               1AZ
108834003108834200-003024     108834006001023657299REFUSE BAGS 20PCE BLACK0000001000+00001753+00000+0001T   00001753+0000001401          1400 BT8214               1AZ
108835000108835               108835               170213TD     1400+00000+TD0000012714+0000012714+000000000+000001782+0000014496+0000000000+I40000014496+0000000000+Z
108835001108835024-000020     108835006003000108640ICING-SET PL S/S NOZZLE0000001000+00007455+00000+0001T   00007455+0000001414          1400 BT8300               1AZ
108835002108835002-000015     108835006003000555604CAPPUCCINO STENCILS 12P0000001000+00001753+00000+0001T   00001753+0000001414          1400 BT8300               1AZ
108835003108835038-000205     108835006001926001205PLACE-MATS PVC ASSTD-C 0000002000+00001753+00000+0001T   00001753+0000001414          1400 BT8300               1AZ
108836000108836               108836               170213TD     1400+00000+TD0000003068+0000003068+000000000+000000430+0000003498+0000000000+I40000003498+0000000000+Z
108836001108836077-000303     108836006001023593757GIFT-BAG PAPER MED     0000001000+00001578+00000+0001T   00001578+0000001415          1400 BT8112               1AZ
108836002108836077-000299     108836006003000395576G/BAG 32x25cm LRG LOVE 0000001000+00001490+00000+0001T   00001490+0000001415          1400 BT8112               1AZ
108837000108837               108837               170213TD     1400+00000+TD0000018413+0000018413+000000000+000002579+0000020992+0000000000+I40000020992+0000000000+Z
108837001108837006-000800     108837006001023902801HAT CABARET 14x18cm    0000001000+00001753+00000+0001T   00001753+0000001418          1400 BT8131               1AZ
108837002108837366-000900     108837006003000006960DRESS UP WINGS BUG     0000001000+00006139+00000+0001T   00006139+0000001418          1400 BT8131               1AZ
108837003108837565-000876     108837006003000305759NOVELTY FUNKY SUNGLASS 0000003000+00003507+00000+0001T   00003507+0000001418          1400 BT8745               1AZ
108838000108838               108838               170213TD     1400+00000+TD0000003542+0000003542+000000000+000000496+0000004030+0000000008+I20000000000+0000004030+Z
108838001108838018-000136     108838006001023659026MUG OCC LOVE W/PLUSH   0000001000+00003507+00000+0001T   00003507+0000001535          1400 BT8515               1AZ
108838002108838112-116038     108838006009681820246TCS CARRIER BAG MIDI   0000001000+00000035+00000+0001T   00000035+0000001535          1400 BT8090               1AZ
108839000108839               108839               170213TD     1400+00000+TD0000004909+0000004909+000000000+000000688+0000005590+0000000007+I20000000000+0000005590+Z
108839001108839089-060027     108839006003000245871KEY-CHAIN HEART 6X6cm  0000001000+00003069+00000+0001T   00003069+0000001558          1400 BT8205               1AZ
108839002108839077-000311     108839006001023608666GIFT-BAG 11X14CM GLOSS 0000001000+00000613+00000+0001T   00000613+0000001558          1400 BT8112               1AZ
108839003108839903-000499     108839006001704012492SWT CHOC MALLOWS 50g   0000001000+00001227+00000+0001T   00001227+0000001558          1400 BT8150               1AZ
108840000108840               108840               170213TD     1400+00000+TD0000003541+0000003541+000000000+000000497+0000004030+0000000008+I20000000000+0000004030+Z
108840001108840079-003002     108840006003000447886A/TUBE 75ML RED        0000001000+00001753+00000+0001T   00001753+0000001600          1400 BT8130               1AZ
108840002108840079-000275     108840006003000160488PAINT-BRUSHES 6PCE PRO 0000001000+00001753+00000+0001T   00001753+0000001600          1400 BT8130               1AZ
108840003108840112-116038     108840006009681820246TCS CARRIER BAG MIDI   0000001000+00000035+00000+0001T   00000035+0000001600          1400 BT8090               1AZ
108841000108841               108841               170213TD     1400+00000+TD0000011402+0000011402+000000000+000001597+0000012990+0000000009+I20000000000+0000012990+Z
108841001108841085-007021     108841006003000136902P/KNIFE LED 16-FUNCTION0000001000+00011402+00000+0001T   00011402+0000001604          1400 BT8305               1AZ
108842000108842               108842               170213TD     1400+00000+TD0000003243+0000003243+000000000+000000455+0000003690+0000000008+I20000000000+0000003690+Z
108842001108842077-000299     108842006003000395576G/BAG 32x25cm LRG LOVE 0000001000+00001490+00000+0001T   00001490+0000001626          1400 BT8112               1AZ
108842002108842077-000299-A   108842006003000670888GIFT-BAG PAPER JMB LOVE0000001000+00001753+00000+0001T   00001753+0000001626          1400 BT8112               1AZ
108843000108843               108843               170213TD     1400+00000+TD0000019328+0000019328+000000000+000002708+0000022030+0000000006+I20000000000+0000022030+Z
108843001108843039-082852     108843006008766082852C/SET 4PC MINI PILLARS 0000001000+00005262+00000+0001T   00005262+0000001630          1400 BT8510               1AZ
108843002108843039-000624     108843006003000054923C/SET 4PC PILLARS 5X8CM0000001000+00007016+00000+0001T   00007016+0000001630          1400 BT8510               1AZ
108843003108843039-082106     108843006001023847348C/VOTIVE 8PC VANILLA   0000001000+00005262+00000+0001T   00005262+0000001630          1400 BT8510               1AZ
108843004108843088-000084     108843006001023798060P/POURRI 120G ASSTD    0000001000+00001753+00000+0001T   00001753+0000001630          1400 BT8212               1AZ
108843005108843112-116038     108843006009681820246TCS CARRIER BAG MIDI   0000001000+00000035+00000+0001T   00000035+0000001630          1400 BT8090               1AZ
108844000108844               108844               170213TD     1400+00000+TD0000008189+0000008189+000000000+000001148+0000009337+0000000000+I40000009337+0000000000+Z
108844001108844018-019000     108844006003000557288MUG OCC. LOVE JUMBO    0000001000+00005262+00000+0001T   00005262+0000001632          1400 BT8515               1AZ
108844002108844077-000309     108844006001023608604GIFT-BAG 25X32CM GLOSS 0000001000+00001753+00000+0001T   00001753+0000001632          1400 BT8112               1AZ
108844003108844206-000530     108844006003000620821BIRTHDAY CANDLES 6PC   0000001000+00001139+00000+0001T   00001753+0008181632          1400 BT8321               1AZ
108844004108844112-116038     108844006009681820246TCS CARRIER BAG MIDI   0000001000+00000035+00000+0001T   00000035+0000001632          1400 BT8090               1AZ
108845000108845               108845               170213TD     1400+00000+TD0000011430+0000011430+000000000+000001604+0000013030+0000000004+I20000000000+0000013030+Z
108845001108845903-000521     108845006001704009652SWT GUMMY SOFT GUMS    0000001000+00000876+00000+0001T   00000876+0000001637          1400 BT8150               1AZ
108845002108845079-014153     108845006003000253166ART+CRAFT DRAGON PK6   0000002000+00002630+00000+0001T   00002630+0000001637          1400 BT8130               1AZ
108845003108845038-001804     108845006001023766618DOILIES 27cm RND PKT-100000003000+00001753+00000+0001T   00001753+0000001637          1400 BT8300               1AZ
108845004108845112-116038     108845006009681820246TCS CARRIER BAG MIDI   0000001000+00000035+00000+0001T   00000035+0000001637          1400 BT8090               1AZ
108846000108846               108846               170213TD     1400+00000+TD0000004733+0000004733+000000000+000000663+0000005390+0000000006+I20000000000+0000005390+Z
108846001108846007-000555     108846006001023848239MEMO-PAD MINI LOVE     0000002000+00000613+00000+0001T   00000613+0000001638          1400 BT8130               1AZ
108846002108846301-085004     108846006003000420469ORN LOVE PLAQUE 21X10CM0000001000+00003507+00000+0001T   00003946+0006471638          1400 BT8505               1AZ
108847000108847               108847               170213TD     1400+00000+TD0000004385+0000004385+000000000+000000614+0000004990+0000000009+I20000000000+0000004990+Z
108847001108847369-001032     108847006001023796158BABY RATTLE SET 6PCE   0000001000+00004385+00000+0001T   00004385+0000001652          1400 BT8745               1AZ
108848000108848               108848               170213TD     1400+00000+TD0000001578+0000001578+000000000+000000221+0000001790+0000000009+I20000000000+0000001790+Z
108848001108848080-000124     108848006003000297733CARD & ENV VALENTINES  0000001000+00001578+00000+0001T   00001578+0000001659          1400 BT8112               1AZ
108849000108849               108849               170213TD     1400+00000+TD0000005963+0000005963+000000000+000000835+0000006798+0000000000+I40000006798+0000000000+Z
108849001108849077-000315     108849006003000181186GIFT-BAG 20x28cm MATT  0000001000+00001578+00000+0001T   00001578+0000001705          1400 BT8112               1AZ
108849002108849206-000180     108849006003000631223TEA INFUSER TEAMAN     0000001000+00004385+00000+0001T   00004385+0000001705          1400 BT8321               1AZ
108850000108850               108850               170213TD     1400+00000+TD0000008852+0000008852+000000000+000001242+0000010094+0000000000+I40000010094+0000000000+Z
108850001108850079-013101     108850006001023863706CRAFT SET DIY PIPE-CLNR0000001000+00002630+00000+0001T   00002630+0000001708          1400 BT8130               1AZ
108850002108850079-006496     108850006003000160105GLITTER SHAKERS        0000001000+00001753+00000+0001T   00001753+0000001708          1400 BT8130               1AZ
108850003108850079-006500     108850006001023557186GLUE GLITTER 6/10 PCE  0000001000+00001753+00000+0001T   00001753+0000001708          1400 BT8130               1AZ
108850004108850903-000925     108850006009706300296SWT NOVELTY SURPRISE   0000001000+00001402+00000+0001T   00001402+0000001708          1400 BT8150               1AZ
108850005108850903-000923     108850008714786126428SWT TURTLE DUO SPRAY   0000001000+00001314+00000+0001T   00001753+0008191708          1400 BT8150               1AZ
108851000108851               108851               170213TD     1400+00000+TD0000016869+0000016869+000000000+000002364+0000019233+0000000000+I40000019233+0000000000+Z
108851001108851304-001204     108851006001023737984FLOWER OCC. TEDDY/ROSES0000001000+00001402+00000+0001T   00001490+0006471712          1400 BT8510               1AZ
108851002108851018-030000     108851006003000421060MUG OCCASIONS LOVE 2PCE0000002000+00004385+00000+0001T   00004385+0000001712          1400 BT8515               1AZ
108851003108851112-116038     108851006009681820246TCS CARRIER BAG MIDI   0000001000+00000035+00000+0001T   00000035+0000001712          1400 BT8090               1AZ
108851004108851566-000359     108851006003000582709STICKER BOOK LOVE SPARK0000001000+00002192+00000+0001T   00002192+0000001712          1400 BT8130               1AZ
108851005108851077-000299     108851006003000395576G/BAG 32x25cm LRG LOVE 0000003000+00001490+00000+0001T   00001490+0000001712          1400 BT8112               1AZ
108852000108852               108852               170213TD     1400+00000+TD0000003507+0000003507+000000000+000000491+0000003990+0000000008+I20000000000+0000003990+Z
108852001108852018-005009     108852006001023725608MUG W/PLUSH-BEAR LOVE  0000001000+00003507+00000+0001T   00003507+0000001712          1400 BT8515               1AZ
108853000108853               108853               170213TD     1400+00000+TD0000008364+0000008364+000000000+000001172+0000009536+0000000000+I40000009536+0000000000+Z
108853001108853368-000175     108853006003000270316PLUSH BEAR 4 ASSTD 18CM0000001000+00006139+00000+0001T   00006139+0000001715          1400 BT8745               1AZ
108853002108853903-000194     108853006009826020616SWT CHOC RP LOLLY 25G  0000001000+00001314+00000+0001T   00001314+0000001715          1400 BT8150               1AZ
108853003108853112-116038     108853006009681820246TCS CARRIER BAG MIDI   0000001000+00000035+00000+0001T   00000035+0000001715          1400 BT8090               1AZ
108853004108853903-000220     108853006001704007368SWT JELLY BEANS 60G    0000001000+00000876+00000+0001T   00000876+0000001715          1400 BT8150               1AZ
108854000108854               108854               170213TD     1400+00000+TD0000006137+0000006137+000000000+000000860+0000006997+0000000000+I40000006997+0000000000+Z
108854001108854077-000270     108854006003000395453GIFT-BAG PPR JMB 33X45 0000001000+00002630+00000+0001T   00002630+0000001717          1400 BT8112               1AZ
108854002108854018-000136     108854006001023659026MUG OCC LOVE W/PLUSH   0000001000+00003507+00000+0001T   00003507+0000001717          1400 BT8515               1AZ
108855000108855               108855               170213TD     1400+00000+TD0000007717+0000007717+000000000+000001081+0000008790+0000000008+I20000000000+0000008790+Z
108855001108855368-000265     108855006001023750914PLUSH BEAR 23CM ASSTD C0000001000+00006139+00000+0001T   00006139+0000001717          1400 BT8745               1AZ
108855002108855077-000315     108855006003000181186GIFT-BAG 20x28cm MATT  0000001000+00001578+00000+0001T   00001578+0000001717          1400 BT8112               1AZ
108856000108856               108856               170213TD     1400+00000+TD0000013769+0000013769+000000000+000001929+0000015698+0000000000+I40000015698+0000000000+Z
108856001108856368-000111     108856006001023780812PLUSH BEAR/DOG 29CM    0000001000+00012279+00000+0001T   00012279+0000001719          1400 BT8745               1AZ
108856002108856077-000299     108856006003000395576G/BAG 32x25cm LRG LOVE 0000001000+00001490+00000+0001T   00001490+0000001719          1400 BT8112               1AZ
108857000108857               108857               170213TD     1400+00000+TD0000009204+0000009204+000000000+000001291+0000010495+0000000000+I40000010495+0000000000+Z
108857001108857077-000471     108857006003000330096G-BAG DESGN MED 18X23CM0000001000+00001753+00000+0001T   00001753+0000001721          1400 BT8112               1AZ
108857002108857077-000330     108857006001023745408GIFT-BAG 18X23CM WEDGE 0000001000+00001753+00000+0001T   00001753+0000001721          1400 BT8112               1AZ
108857003108857077-000009     108857006003000152377PAPER CREPE ALUM COL   0000001000+00003069+00000+0001T   00003069+0000001721          1400 BT8112               1AZ
108857004108857077-000011-E   108857006001023808646TISSUE-WRAP PINK 10PCE 0000001000+00000876+00000+0001T   00000876+0000001721          1400 BT8112               1AZ
108857005108857080-000102     108857006003000236855CARD&ENVLP FEMALE AFR  0000001000+00001753+00000+0001T   00001753+0000001721          1400 BT8112               1AZ
108858000108858               108858               170213TD     1400+00000+TD0000002665+0000002665+000000000+000000374+0000003039+0000000000+I40000003039+0000000000+Z
108858001108858112-116038     108858006009681820246TCS CARRIER BAG MIDI   0000001000+00000035+00000+0001T   00000035+0000001723          1400 BT8090               1AZ
108858002108858018-000129     108858006001023403353MUG OCC. LOVE V-SHAPE  0000001000+00002630+00000+0001T   00002630+0000001723          1400 BT8515               1AZ
108859000108859               108859               170213TD     1400+00000+TD0000023880+0000023880+000000000+000003353+0000027230+0000000003+I20000000000+0000027230+Z
108859001108859112-116069     108859006009681820277TCS CARRIER BAG JUMBO  0000001000+00000048+00000+0001T   00000048+0000001732          1400 BT8090               1AZ
108859002108859903-000861     108859005010478430822SWT LOVE HEARTS SML    0000014000+00000876+00000+0001T   00000876+0000001732          1400 BT8150               1AZ
108859003108859566-000359     108859006003000582709STICKER BOOK LOVE SPARK0000001000+00002192+00000+0001T   00002192+0000001732          1400 BT8130               1AZ
108859004108859566-000367     108859006003000645558STICKER WINDOW DECOR   0000002000+00002630+00000+0001T   00002630+0000001732          1400 BT8130               1AZ
108859005108859903-002890     108859008935001721352MENTOS GUM PURE F/MINT 0000001000+00001051+00000+0001T   00001051+0000001732          1400 BT8150               1AZ
108859006108859903-000077     108859006939873501687SWT GS MAGIC ROCK FRUIT0000003000+00000525+00000+0001T   00000525+0000001732          1400 BT8150               1AZ
108859007108859903-000613     108859006003000617173SWT LIPS DUMMY 10G     0000001000+00001490+00000+0001T   00001490+0000001732          1400 BT8150               1AZ
108860000108860               108860               170213TD     1400+00000+TD0000006871+0000006871+000000000+000000964+0000007830+0000000005+I20000000000+0000007830+Z
108860001108860112-116038     108860006009681820246TCS CARRIER BAG MIDI   0000001000+00000035+00000+0001T   00000035+0000001736          1400 BT8090               1AZ
108860002108860105-001031     108860000700371696627FOODSAVER 800ml        0000001000+00001314+00000+0001T   00001314+0000001736          1400 BT8210               1AZ
108860003108860079-006522     108860006001023149442ART+CRAFT GLUE ASSORTED0000001000+00001753+00000+0001T   00001753+0000001736          1400 BT8130               1AZ
108860004108860903-000087     108860006001704000161SWT SPECKLED-EGGS 50G  0000001000+00001139+00000+0001T   00001139+0000001736          1400 BT8150               1AZ
108860005108860079-013101     108860006001023863706CRAFT SET DIY PIPE-CLNR0000001000+00002630+00000+0001T   00002630+0000001736          1400 BT8130               1AZ
108861000108861               108861               170213TD     1400+00000+TD0000001578+0000001578+000000000+000000221+0000001790+0000000009+I20000000000+0000001790+Z
108861001108861077-000315     108861006003000181186GIFT-BAG 20x28cm MATT  0000001000+00001578+00000+0001T   00001578+0000001738          1400 BT8112               1AZ
108862000108862               108862               170213TD     1400+00000+TD0000000876+0000000876+000000000+000000123+0000000990+0000000009+I20000000000+0000000990+Z
108862001108862368-000701     108862006003000477432PLUSH DOG              0000001000-00006139+00000+0001T   00006139+0000001743          1400 BT87452IC            1AZ
108862002108862368-000701     108862006003000477432PLUSH DOG              0000001000+00006139+00000+0001T   00006139+0000001743          1400 BT87452IC            1AZ
108862003108862077-000011-C   108862006001023808523TISSUE 10xSHTS RED     0000001000+00000876+00000+0001T   00000876+0000001743          1400 BT8112               1AZ
108863000108863               108863               170213TD     1400+00000+TD0000006135+0000006135+000000000+000000860+0000006990+0000000005+I20000000000+0000006990+Z
108863001108863251-000041     108863006001023515889SEAL-TAPE BUFF 48mmx50m0000005000+00001227+00000+0001T   00001227+0000001744          1400 BT8810               1AZ
108864000108864               108864               170213TD     1400+00000+TD0000007050+0000007050+000000000+000000988+0000008038+0000000000+I40000008038+0000000000+Z
108864001108864368-000001     108864006003000097982Plush Bear 25cm        0000001000+00004385+00000+0001T   00004385+0000001747          1400 BT8745               1AZ
108864002108864018-000129     108864006001023403353MUG OCC. LOVE V-SHAPE  0000001000+00002630+00000+0001T   00002630+0000001747          1400 BT8515               1AZ
108864003108864112-116038     108864006009681820246TCS CARRIER BAG MIDI   0000001000+00000035+00000+0001T   00000035+0000001747          1400 BT8090               1AZ
108865000108865               108865               170213TD     1400+00000+TD0000004381+0000004381+000000000+000000614+0000004995+0000000000+I40000004995+0000000000+Z
108865001108865464-000122     108865006003000638987PLAYING CARDS POKER 2PK0000001000+00001753+00000+0001T   00001753+0000001748          1400 BT8785               1AZ
108865002108865464-000238     108865006001023644039GAME SNAKES+LADDERS    0000001000+00001314+00000+0001T   00001314+0000001748          1400 BT8785               1AZ
108865003108865464-000253     108865006001023341402GAME LUDO       POLYBAG0000001000+00001314+00000+0001T   00001314+0000001748          1400 BT8785               1AZ
108866000108866               108866               170213TD     1400+00000+TD0000002630+0000002630+000000000+000000369+0000002999+0000000000+I40000002999+0000000000+Z
108866001108866361-000296     108866006001023750402DOLL 27cm GLITZY/ANGEL 0000001000+00002630+00000+0001T   00002630+0000001749          1400 BT8725               1AZ
108867000108867               108867               170213TD     1400+00000+TD0000010117+0000010117+000000000+000001419+0000011530+0000000006+I20000000000+0000011530+Z
108867001108867206-000590     108867006003000633708BAG CLIPS LIPS 2PC     0000001000+00001753+00000+0001T   00001753+0000001750          1400 BT8321               1AZ
108867002108867301-000016     108867006001023817556ORN SENTIMENT HEART ASS0000001000+00002630+00000+0001T   00002630+0000001750          1400 BT8505               1AZ
108867003108867301-085001     108867006003000297610ORN WATERBALL LOVE ASST0000001000+00004823+00000+0001T   00004823+0000001750          1400 BT8505               1AZ
108867004108867112-116038     108867006009681820246TCS CARRIER BAG MIDI   0000001000+00000035+00000+0001T   00000035+0000001750          1400 BT8090               1AZ
108867005108867903-003051     108867008024431008703SWT CHOCO PARTY 25G    0000001000+00000876+00000+0001T   00000876+0000001750          1400 BT8150               1AZ
108868000108868               108868               170213TD     1400+00000+TD0000006139+0000006139+000000000+000000860+0000006999+0000000000+I40000006999+0000000000+Z
108868001108868368-000701     108868006003000477432PLUSH DOG              0000001000+00006139+00000+0001T   00006139+0000001753          1400 BT8745               1AZ
108869000108869               108869               170213TD     1400+00000+TD0000016761+0000016761+000000000+000002355+0000019110+0000000006+I20000000000+0000019110+Z
108869001108869018-000170     108869006001023775528MUG OCC. LOVE 2PC MINI 0000001000+00002192+00000+0001T   00002192+0000001758          1400 BT8515               1AZ
108869002108869903-000183     108869006003000451043SWT LB HEART LOLLY     0000008000+00000393+00000+0001T   00000393+0000001758          1400 BT8150               1AZ
108869003108869006-000166-C   108869006003000516377BALLOONS LRG 6PC PINK  0000001000+00001314+00000+0001T   00001314+0000001758          1400 BT8131               1AZ
108869004108869006-000167-D   108869006003000517091BALLOONS PRPLE METALLIC0000002000+00001314+00000+0001T   00001314+0000001758          1400 BT8131               1AZ
108869005108869018-000170     108869006001023775528MUG OCC. LOVE 2PC MINI 0000001000+00002192+00000+0001T   00002192+0000001758          1400 BT8515               1AZ
108869006108869112-116038     108869006009681820246TCS CARRIER BAG MIDI   0000001000+00000035+00000+0001T   00000035+0000001758          1400 BT8090               1AZ
108869007108869903-000194     108869006009826020616SWT CHOC RP LOLLY 25G  0000004000+00001314+00000+0001T   00001314+0000001758          1400 BT8150               1AZ
108870000108870               108870               170213TD     1400+00000+TD0000018846+0000018846+000000000+000002645+0000021491+0000000000+I40000021491+0000000000+Z
108870001108870903-000011     108870006002099007315SWT MALLOW CHOC 15G    0000001000+00000437+00000+0001T   00000437+0000001801          1400 BT8150               1AZ
108870002108870903-000012     108870006002099007308SWT MALLOW S/BERRY     0000001000+00000437+00000+0001T   00000437+0000001801          1400 BT8150               1AZ
108870003108870586-010659     108870006001492106595WATCH BOYS SUNNIES CAMO0000001000+00011402+00000+0001T   00011402+0000001801          1400 BT8160               1AZ
108870004108870077-000358     108870006003000329977GIFT-BAG KIDS 25X32CM  0000002000+00001753+00000+0001T   00001753+0000001801          1400 BT8112               1AZ
108870005108870077-000309     108870006001023608604GIFT-BAG 25X32CM GLOSS 0000001000+00001753+00000+0001T   00001753+0000001801          1400 BT8112               1AZ
108870006108870903-000012     108870006002099007308SWT MALLOW S/BERRY     0000002000+00000437+00000+0001T   00000437+0000001801          1400 BT8150               1AZ
108870007108870903-000011     108870006002099007315SWT MALLOW CHOC 15G    0000001000+00000437+00000+0001T   00000437+0000001801          1400 BT8150               1AZ
108871000108871               108871               170213TD     1400+00000+TD0000006387+0000006387+000000000+000000896+0000007283+0000000000+I40000007283+0000000000+Z
108871001108871368-000164     108871006003000119677PLUSH 16CM DOG ON LEAD 0000001000+00003507+00000+0001T   00004385+0008141805          1400 BT8745               1AZ
108871002108871903-000670     108871006009803358008SWT SHERBET RED LIPS   0000002000+00000218+00000+0001T   00000218+0000001805          1400 BT8150               1AZ
108871003108871903-000671     108871006009803358015SWT SHERBET BLUE LIPS  0000001000+00000218+00000+0001T   00000218+0000001805          1400 BT8150               1AZ
108871004108871077-000245     108871006001023759214GIFT-RIBBON METALLICx2 0000001000+00001227+00000+0001T   00001227+0000001805          1400 BT8112               1AZ
108871005108871112-116038     108871006009681820246TCS CARRIER BAG MIDI   0000001000+00000035+00000+0001T   00000035+0000001805          1400 BT8090               1AZ
108871006108871903-004962     108871008410525221880SWT FINI BLCK/RED 50g  0000001000+00000964+00000+0001T   00000964+0000001805          1400 BT8150               1AZ
A17021300                                          08565996TDSLAVE 1                       BT82IC
A17021301                                          14115670TDSLAVE 1                       BT82IC
M17021301                              IT          TDATT:IT                                          LAST TILL SLIP NUMBER ON SLAVE 1                108871                                          THANKS TD
M17021391                              CASH        TDSLAVE 1                       Z-REPORT No.   588TOTAL (Sales - Refunds)           5648.33       CASH TO BE BANKED                 3299.30       DEBIT CARDS                          0.00       CREDIT CARDS                      2349.03       Z-READING                         5648.33       AIRTIME DEBIT CARD SALES             0.00       AIRTIME CARD SALES                   0.00       OVERS/UNDERS                         0.00       AIRTIME CASH SALES                   0.00       GIFT CARDS                           0.00       GIFT CARD CASH SALES                 0.00       T O T A L  CASH PAYOUTS              0.00                                                                                                                                                                                                                                                                                                                                                      Z
M17021392                              CASH        TDABSENT                                                                                                                                                                                          ANNUAL LEAVE                                                                                                                                                                                    DAY OFF                                                                                                                                                                                         COMMENTS                                                                                                                                                                                                                                                                                                                                                                                       Z
Y17021300                                          TD00000000501762+000061
ZTD17021321163 SLAVE 1      SALES DATA                     NEXT INVOICE NO.  108872 0588
X TD Slave 1 First invoice 108811 170213 Last invoice 108871 170213 Next invoice 108872 Total number of records 000000251 clbackup completed 21:16:47
