208059000208059               208059               170213TD     1400+00000+TD0000002630+0000002630+000000000+000000369+0000002990+0000000009+I20000000000+0000002990+Z
208059001208059071-003009     208059006001024011373PEN CLICK BALL+SFT GRIP0000001000+00002630+00000+0001T   00002630+0000000919          1400 EY3130               2AZ
208060000208060               208060               170213TD     1400+00000+TD0000052300+0000052300+000000000+000007328+0000059620+0000000008+I20000000000+0000059620+Z
208060001208060077-000299     208060006003000395576G/BAG 32x25cm LRG LOVE 0000002000+00001490+00000+0001T   00001490+0000000926          1400 EY3112               2AZ
208060002208060304-001204     208060006001023737984FLOWER OCC. TEDDY/ROSES0000002000+00001402+00000+0001T   00001490+0006470926          1400 EY3510               2AZ
208060003208060018-005007     208060006003000515516MUG OCC. LOVE W/HEARTS 0000001000+00006139+00000+0001T   00006139+0000000926          1400 EY3515               2AZ
208060004208060018-000129     208060006001023403353MUG OCC. LOVE V-SHAPE  0000001000+00002630+00000+0001T   00002630+0000000926          1400 EY3515               2AZ
208060005208060368-000637     208060006001023874092PLUSH BEAR SLEEPING LOV0000001000+00011402+00000+0001T   00012279+0006470926          1400 EY3745               2AZ
208060006208060018-005007     208060006003000515516MUG OCC. LOVE W/HEARTS 0000001000+00006139+00000+0001T   00006139+0000000926          1400 EY3515               2AZ
208060007208060368-000049     208060006003000536955PLUSH BEAR 15cm LOVE   0000002000+00004385+00000+0001T   00004385+0000000926          1400 EY3745               2AZ
208060008208060018-000129     208060006001023403353MUG OCC. LOVE V-SHAPE  0000001000+00002630+00000+0001T   00002630+0000000926          1400 EY3515               2AZ
208060009208060001-091415     208060006003000329113W/GLS OCC. LOVE 2PC 2800000001000+00008771+00000+0001T   00009648+0006470926          1400 EY3515               2AZ
208060010208060112-116038     208060006009681820246TCS CARRIER BAG MIDI   0000001000+00000035+00000+0001T   00000035+0000000926          1400 EY3090               2AZ
208061000208061               208061               170213TD     1400+00000+TD0000000000+0000000000+000000000+000000000+0000000000+0000000000+ 00000000000+0000000000+Z
208061001208061566-000367     208061006003000645558STICKER WINDOW DECOR   0000005000+00002630+00000+0001T   00002630+000000              1400 EY3130               2 Z
208061002208061079-009702-D   208061008427973059354PAPER SIRIO A2 RED COL 0000003000+00001051+00000+0001T   00001051+000000              1400 EY3130               2 Z
208062000208062               208062               170213TD     1400+00000+TD0000020507+0000020507+000000000+000002881+0000023388+0000000000+I40000023388+0000000000+Z
208062001208062079-009702-B   208062008427973059491PAPER SIRIO A2 WHITE   0000004000+00001051+00000+0001T   00001051+0000000936          1400 EY3130               2AZ
208062002208062079-009702-D   208062008427973059354PAPER SIRIO A2 RED COL 0000003000+00001051+00000+0001T   00001051+0000000936          1400 EY3130               2AZ
208062003208062566-000367     208062006003000645558STICKER WINDOW DECOR   0000005000+00002630+00000+0001T   00002630+0000000936          1400 EY3130               2AZ
208063000208063               208063               170213TD     1400+00000+TD0000018459+0000018459+000000000+000002587+0000021046+0000000000+I40000021046+0000000000+Z
208063001208063105-008005     208063006002580009484STORAGE CONTAINER 7.5L 0000001000+00004385+00000+0001T   00004385+0000000939          1400 EY3210               2AZ
208063002208063105-001079     208063000700371655921CONTAINER 2.2L CLIP LOC0000001000+00002455+00000+0001T   00002455+0000000939          1400 EY3210               2AZ
208063003208063105-001078     208063000700371637750CONTAINER 1,1L CLIP LOC0000001000+00001928+00000+0001T   00001928+0000000939          1400 EY3210               2AZ
208063004208063071-008231     208063006001023811332PENCIL-BAG 20cm        0000001000+00002630+00000+0001T   00002630+0000000939          1400 EY3130               2AZ
208063005208063071-005667     208063006003000153060STAPLER SET MTL W/STPLS0000001000+00003507+00000+0001T   00003507+0000000939          1400 EY3130               2AZ
208063006208063071-003879     208063006936198404198PENCIL HB BLU/WHITE 12s0000001000+00001753+00000+0001T   00002630+0008150939          1400 EY3130               2AZ
208063007208063084-009411     208063006001023629968SCISSORS 17cm PL-HANDLE0000001000+00001753+00000+0001T   00001753+0000000939          1400 EY3200               2AZ
208063008208063112-116069     208063006009681820277TCS CARRIER BAG JUMBO  0000001000+00000048+00000+0001T   00000048+0000000939          1400 EY3090               2AZ
208064000208064               208064               170213TD     1400+00000+TD0000005262+0000005262+000000000+000000737+0000005990+0000000009+I20000000000+0000005990+Z
208064001208064082-007580     208064006003000698523SUNGLASS MENS DESIGNER 0000001000+00005262+00000+0001T   00005262+0000001005          1400 EY3160               2AZ
208065000208065               208065               170213TD     1400+00000+TD0000001051+0000001051+000000000+000000148+0000001190+0000000009+I20000000000+0000001190+Z
208065001208065079-009702-D   208065008427973059354PAPER SIRIO A2 RED COL 0000001000+00001051+00000+0001T   00001051+0000001043          1400 EY3130               2AZ
208066000208066               208066               170213TD     1400+00000+TD0000007939+0000007939+000000000+000001113+0000009052+0000000000+I40000009052+0000000000+Z
208066001208066077-000309     208066006001023608604GIFT-BAG 25X32CM GLOSS 0000002000+00001753+00000+0001T   00001753+0000001046          1400 EY3112               2AZ
208066002208066368-000001     208066006003000097982Plush Bear 25cm        0000001000+00004385+00000+0001T   00004385+0000001046          1400 EY3745               2AZ
208066003208066112-116069     208066006009681820277TCS CARRIER BAG JUMBO  0000001000+00000048+00000+0001T   00000048+0000001046          1400 EY3090               2AZ
208067000208067               208067               170213TD     1400+00000+TD0000003507+0000003507+000000000+000000491+0000003990+0000000008+I20000000000+0000003990+Z
208067001208067018-000136     208067006001023659026MUG OCC LOVE W/PLUSH   0000001000+00003507+00000+0001T   00003507+0000001047          1400 EY3515               2AZ
208068000208068               208068               170213TD     1400+00000+TD0000000700+0000000700+000000000+000000098+0000000790+0000000008+I20000000000+0000000790+Z
208068001208068018-000177     208068006001023797513MUG MINI LOVE ASSTD    0000001000+00000700+00000+0001T   00000700+0000001048          1400 EY3515               2AZ
208069000208069               208069               170213TD     1400+00000+TD0000005262+0000005262+000000000+000000737+0000005999+0000000000+I40000005999+0000000000+Z
208069001208069562-000001     208069006009801541556MARLIN PLASTIC ABACUS  0000001000+00005262+00000+0001T   00005262+0000001051          1400 EY3755               2AZ
208070000208070               208070               170213TD     1400+00000+TD0000087687+0000087687+000000000+000012289+0000099976+0000000000+I40000099976+0000000000+Z
208070001208070174-000140     208070006003000367450STORAGE ORGANISER 30X300000001000+00005700+00000+0001T   00005700+0000001125          1400 EY3205               2AZ
208070002208070104-000185     208070006933752300064ORGANISER 5-DIV OCT    0000001000+00002630+00000+0001T   00002630+0000001125          1400 EY3210               2AZ
208070003208070366-000451     208070006003000653508DRESS UP HEADBAND ASSTD0000001000+00002192+00000+0001T   00002192+0000001125          1400 EY3131               2AZ
208070004208070003-009201     208070006003000407798O/WELCOME STONE RND ASS0000002000+00004385+00000+0001T   00004385+0000001125          1400 EY3505               2AZ
208070005208070361-000114     208070006001023744074DOLL SML 15cm BENDABLE 0000001000+00001753+00000+0001T   00001753+0000001125          1400 EY3725               2AZ
208070006208070174-000141     208070006003000367573STORAGE ORGANISER 30X100000001000+00005262+00000+0001T   00005262+0000001125          1400 EY3205               2AZ
208070007208070103-000051     208070006003000676255BAMBOO BASKET SQUARE   0000002000+00001753+00000+0001T   00001753+0000001125          1400 EY3300               2AZ
208070008208070080-000129     208070006003000448012CRD & ENV DIY KITS ASST0000002000+00000876+00000+0001T   00001490+0008151125          1400 EY3112               2AZ
208070009208070566-000056     208070006003000661381STICKER DRESS UP GIRL  0000002000+00001753+00000+0001T   00001753+0000001125          1400 EY3130               2AZ
208070010208070039-000319-1   208070006003000442386B/CANDLES LRG NUMBER-1 0000001000+00000876+00000+0001T   00000876+0000001125          1400 EY3510               2AZ
208070011208070220-000100     208070006003000268146CUTLERY CARVING FORK 280000001000+00003946+00000+0001T   00003946+0000001125          1400 EY3300               2AZ
208070012208070206-000630     208070006003000631919SPECTACLE CLEANING BRUS0000001000+00001227+00000+0001T   00001227+0000001125          1400 EY3321               2AZ
208070013208070566-000027     208070006003000215843STICKERS FOIL ASSTD    0000001000+00000876+00000+0001T   00000876+0000001125          1400 EY3130               2AZ
208070014208070566-100009     208070006003000102914WED STIK EMBOSSED FOIL 0000004000+00002630+00000+0001T   00002630+0000001125          1400 EY3130               2AZ
208070015208070366-006110     208070006003000636075DRESS UP HAIR CHALK 6  0000001000+00004385+00000+0001T   00004385+0000001125          1400 EY3131               2AZ
208070016208070567-011316     208070009780755489442BK READER MY PRETTY PIN0000001000+00004385+00000+0001T   00004385+0000001125          1400 EY3757               2AZ
208070017208070562-000069     208070006003000652044EDU PLAY DOUGH SET     0000002000+00003507+00000+0001T   00003507+0000001125          1400 EY3755               2AZ
208070018208070567-011306     208070006003000598434BOOK ACTIVITY TRACE    0000002000+00003069+00000+0001T   00003069+0000001125          1400 EY3757               2AZ
208070019208070567-011478     208070009781472379382BK HANSEL AND GRETEL   0000001000+00004385+00000+0001T   00004385+0000001125          1400 EY3757               2AZ
208070020208070567-011914     208070009780799375497BK VOORSPRONG WISKUNDE 0000001000+00002630+00000+0001T   00002630+0000001125          1400 EY3757               2AZ
208070021208070024-007001     208070006002580007688CAKE/BISCUIT-SERVER    0000002000+00003069+00000+0001T   00003069+0000001125          1400 EY3300               2AZ
208070022208070112-116069     208070006009681820277TCS CARRIER BAG JUMBO  0000002000+00000048+00000+0001T   00000048+0000001125          1400 EY3090               2AZ
208071000208071               208071               170213TD     1400+00000+TD0000016007+0000016007+000000000+000002243+0000018250+0000000000+I40000018250+0000000000+Z
208071001208071108-003023     208071006003000665471TUMBLER W/STRAW 550ml  0000001000+00002630+00000+0001T   00002630+0000001136          1400 EY3210               2AZ
208071002208071077-000384     208071006003000275243G/BAG HOT STMP 18x23CM 0000001000+00001490+00000+0001T   00001490+0000001136          1400 EY3112               2AZ
208071003208071368-000049     208071006003000536955PLUSH BEAR 15cm LOVE   0000001000+00004385+00000+0001T   00004385+0000001136          1400 EY3745               2AZ
208071004208071018-019000     208071006003000557288MUG OCC. LOVE JUMBO    0000001000+00005262+00000+0001T   00005262+0000001136          1400 EY3515               2AZ
208071005208071080-000127     208071006003000424351VALENTINES DAY 36x24CM 0000001000+00002192+00000+0001T   00002192+0000001136          1400 EY3112               2AZ
208071006208071112-116069     208071006009681820277TCS CARRIER BAG JUMBO  0000001000+00000048+00000+0001T   00000048+0000001136          1400 EY3090               2AZ
208072000208072               208072               170213TD     1400+00000+TD0000008273+0000008273+000000000+000001160+0000009433+0000000000+I40000009433+0000000000+Z
208072001208072903-000077     208072006939873501687SWT GS MAGIC ROCK FRUIT0000002000+00000525+00000+0001T   00000525+0000001140          1400 EY3150               2AZ
208072002208072033-010720     208072006001023678645SAFETY-PINS 50PCE SMALL0000001000+00000876+00000+0001T   00000876+0000001140          1400 EY3200               2AZ
208072003208072077-000303     208072006001023593757GIFT-BAG PAPER MED     0000002000+00001578+00000+0001T   00001578+0000001140          1400 EY3112               2AZ
208072004208072080-000124     208072006003000297733CARD & ENV VALENTINES  0000002000+00001578+00000+0001T   00001578+0000001140          1400 EY3112               2AZ
208072005208072112-116038     208072006009681820246TCS CARRIER BAG MIDI   0000001000+00000035+00000+0001T   00000035+0000001140          1400 EY3090               2AZ
208073000208073               208073               170213TD     1400+00000+TD0000007064+0000007064+000000000+000000990+0000008054+0000000000+I40000008054+0000000000+Z
208073001208073039-000624     208073006003000054923C/SET 4PC PILLARS 5X8CM0000001000+00007016+00000+0001T   00007016+0000001153          1400 EY3510               2AZ
208073002208073112-116069     208073006009681820277TCS CARRIER BAG JUMBO  0000001000+00000048+00000+0001T   00000048+0000001153          1400 EY3090               2AZ
208074000208074               208074               170213TD     1400+00000+TD0000004870+0000004870+000000000+000000683+0000005550+0000000003+I20000000000+0000005550+Z
208074001208074077-000270     208074006003000395453GIFT-BAG PPR JMB 33X45 0000001000+00002630+00000+0001T   00002630+0000001202          1400 EY3112               2AZ
208074002208074080-000127     208074006003000424351VALENTINES DAY 36x24CM 0000001000+00002192+00000+0001T   00002192+0000001202          1400 EY3112               2AZ
208074003208074112-116069     208074006009681820277TCS CARRIER BAG JUMBO  0000001000+00000048+00000+0001T   00000048+0000001202          1400 EY3090               2AZ
208075000208075               208075               170213TD     1400+00000+TD0000008801+0000008801+000000000+000001235+0000010036+0000000000+I40000010036+0000000000+Z
208075001208075306-000024-A   208075006003000577309COTTON-WOOL-PADS 80PC  0000001000+00001753+00000+0001T   00001753+0000001208          1400 EY3200               2AZ
208075002208075567-011913     208075009780799375466BK EDU VOORSPRONG AFR  0000001000+00002630+00000+0001T   00002630+0000001208          1400 EY3757               2AZ
208075003208075567-011912     208075009780799375459BK EDU VOORSPRONG AFR  0000001000+00002630+00000+0001T   00002630+0000001208          1400 EY3757               2AZ
208075004208075016-000850     208075006001023587770STORAGE-BOTTLE W/CLIP  0000001000+00001753+00000+0001T   00001753+0000001208          1400 EY3300               2AZ
208075005208075112-116038     208075006009681820246TCS CARRIER BAG MIDI   0000001000+00000035+00000+0001T   00000035+0000001208          1400 EY3090               2AZ
208076000208076               208076               170213TD     1400+00000+TD0000006750+0000006750+000000000+000000946+0000007690+0000000006+I20000000000+0000007690+Z
208076001208076054-009026     208076006001023627735PAINT-BRUSH ASSTD      0000001000+00003507+00000+0001T   00003507+0000001208          1400 EY3810               2AZ
208076002208076027-783002     208076006001023874658SCOURERS FOAM PACK OF 30000001000+00001490+00000+0001T   00001490+0000001208          1400 EY3212               2AZ
208076003208076105-001032     208076000700371696634CONTAINER FOODSAVER 1.20000001000+00001753+00000+0001T   00001753+0000001208          1400 EY3210               2AZ
208077000208077               208077               170213TD     1400+00000+TD0000026313-0000026313-000000000+000003685-0000030000-0000000002+I20000000000+0000030000-Z
208077001208077369-000989     208077006003000127481BABY EDU MUSICAL PHONE 0000001000-00011402+00000+0001T   00011402+0000001211          1400 EY37452IC            2 Z
208077002208077369-000241     208077006003000207664BABY TOY MUSICAL ASSTD 0000001000-00014911+00000+0001T   00014911+0000001211          1400 EY37452IC            2 Z
208078000208078               208078               170213TD     1400+00000+TD0000032497+0000032497+000000000+000004552+0000037049+0000000000+I40000037049+0000000000+Z
208078001208078018-030000     208078006003000421060MUG OCCASIONS LOVE 2PCE0000002000+00004385+00000+0001T   00004385+0000001214          1400 EY3515               2AZ
208078002208078368-000049     208078006003000536955PLUSH BEAR 15cm LOVE   0000002000+00004385+00000+0001T   00004385+0000001214          1400 EY3745               2AZ
208078003208078368-000111     208078006001023780812PLUSH BEAR/DOG 29CM    0000001000+00012279+00000+0001T   00012279+0000001214          1400 EY3745               2AZ
208078004208078018-000129     208078006001023403353MUG OCC. LOVE V-SHAPE  0000001000+00002630+00000+0001T   00002630+0000001214          1400 EY3515               2AZ
208078005208078112-116069     208078006009681820277TCS CARRIER BAG JUMBO  0000001000+00000048+00000+0001T   00000048+0000001214          1400 EY3090               2AZ
208079000208079               208079               170213TD     1400+00000+TD0000007627+0000007627+000000000+000001069+0000008690+0000000006+I20000000000+0000008690+Z
208079001208079024-000212     208079006001023858030COOKIE-CUTTERS PL SMALL0000001000+00003069+00000+0001T   00003069+0000001225          1400 EY3300               2AZ
208079002208079077-000303     208079006001023593757GIFT-BAG PAPER MED     0000001000+00001578+00000+0001T   00001578+0000001225          1400 EY3112               2AZ
208079003208079077-000299     208079006003000395576G/BAG 32x25cm LRG LOVE 0000002000+00001490+00000+0001T   00001490+0000001225          1400 EY3112               2AZ
208080000208080               208080               170213TD     1400+00000+TD0000001578+0000001578+000000000+000000221+0000001790+0000000009+I20000000000+0000001790+Z
208080001208080077-000303     208080006001023593757GIFT-BAG PAPER MED     0000001000+00001578+00000+0001T   00001578+0000001226          1400 EY3112               2AZ
208081000208081               208081               170213TD     1400+00000+TD0000006137+0000006137+000000000+000000860+0000006997+0000000000+I40000006997+0000000000+Z
208081001208081206-000100     208081006003000628063TONGS ICE COLD FINGERS 0000002000+00002192+00000+0001T   00002192+0000001228          1400 EY3321               2AZ
208081002208081077-000011-X   208081006001023809827TISSUE-WRAP SILVER 10PC0000001000+00001753+00000+0001T   00001753+0000001228          1400 EY3112               2AZ
208082000208082               208082               170213TD     1400+00000+TD0000006137+0000006137+000000000+000000860+0000006997+0000000000+I40000006997+0000000000+Z
208082001208082018-005009     208082006001023725608MUG W/PLUSH-BEAR LOVE  0000001000+00003507+00000+0001T   00003507+0000001232          1400 EY3515               2AZ
208082002208082027-001018     208082006003000622702BROOM COVER MICROFIBRE 0000001000+00002630+00000+0001T   00002630+0000001232          1400 EY3212               2AZ
208083000208083               208083               170213TD     1400+00000+TD0000008768+0000008768+000000000+000001228+0000009990+0000000006+I20000000000+0000009990+Z
208083001208083038-001800     208083006003000623303DOILIE PAPER HRT 24PC  0000001000+00003507+00000+0001T   00003507+0000001236          1400 EY3300               2AZ
208083002208083006-000190     208083006003000685530BALLOONS LOVE 81x91cm  0000001000+00004385+00000+0001T   00004385+0000001236          1400 EY3131               2AZ
208083003208083033-005921-A   208083006001023678324SEWING-THREAD 200m WHT 0000001000+00000876+00000+0001T   00000876+0000001236          1400 EY3200               2AZ
208084000208084               208084               170213TD     1400+00000+TD0000003507+0000003507+000000000+000000491+0000003990+0000000008+I20000000000+0000003990+Z
208084001208084072-000010     208084006001023604392PET CAR SEAT COVER     0000001000+00003507+00000+0001T   00003507+0000001239          1400 EY3870               2AZ
208085000208085               208085               170213TD     1400+00000+TD0000008803+0000008803+000000000+000001233+0000010030+0000000006+I20000000000+0000010030+Z
208085001208085306-000026     208085006003000207626COTTON WOOL ROLL 100G  0000004000+00002192+00000+0001T   00002192+0000001250          1400 EY3200               2AZ
208085002208085112-116038     208085006009681820246TCS CARRIER BAG MIDI   0000001000+00000035+00000+0001T   00000035+0000001250          1400 EY3090               2AZ
208086000208086               208086               170213TD     1400+00000+TD0000001139+0000001139+000000000+000000160+0000001290+0000000009+I20000000000+0000001290+Z
208086001208086903-000709     208086006002099007070SWT QUENCHERS FRUIT    0000001000+00001139+00000+0001T   00001139+0000001250          1400 EY3150               2AZ
208087000208087               208087               170213TD     1400+00000+TD0000007013+0000007013+000000000+000000983+0000007990+0000000006+I20000000000+0000007990+Z
208087001208087566-000997     208087006001023554086STICKERS TATTOOS BOOK  0000001000+00003507+00000+0001T   00003507+0000001251          1400 EY3130               2AZ
208087002208087366-000282     208087006003000611027DRESS UP SLEEVE TATTOO 0000002000+00001753+00000+0001T   00001753+0000001251          1400 EY3131               2AZ
208088000208088               208088               170213TD     1400+00000+TD0000033370+0000033370+000000000+000004676+0000038040+0000000006+I20000000000+0000038040+Z
208088001208088037-000004     208088006001023763679ASHTRAY PL TUB 8X11CM  0000001000+00001753+00000+0001T   00002192+0008191254          1400 EY3515               2AZ
208088002208088028-000899     208088006001023509932BBQ-GRILL-CLEANER LONG 0000001000+00002630+00000+0001T   00002630+0000001254          1400 EY3305               2AZ
208088003208088028-003017-H   208088006001023435316BBQ TONGS 40cm      H&L0000001000+00007016+00000+0001T   00007016+0000001254          1400 EY3305               2AZ
208088004208088203-007002     208088006003000456314WINE BOTTLE HOLDER     0000001000+00008771+00000+0001T   00008771+0000001254          1400 EY3300               2AZ
208088005208088028-085275     208088006003000092611BBQ LIGHTER FLEXIBLE   0000001000+00003507+00000+0001T   00003507+0000001254          1400 EY3305               2AZ
208088006208088033-001390     208088006003000667642HAIR PINS 4PC BUTTERFLY0000001000+00001753+00000+0001T   00001753+0000001254          1400 EY3200               2AZ
208088007208088079-006522     208088006001023149442ART+CRAFT GLUE ASSORTED0000001000+00001753+00000+0001T   00001753+0000001254          1400 EY3130               2AZ
208088008208088105-007510     208088006003000487424STORAGE BOX CLEAR 3.75L0000001000+00006139+00000+0001T   00006139+0000001254          1400 EY3210               2AZ
208088009208088112-116069     208088006009681820277TCS CARRIER BAG JUMBO  0000001000+00000048+00000+0001T   00000048+0000001254          1400 EY3090               2AZ
208089000208089               208089               170213TD     1400+00000+TD0000002192+0000002192+000000000+000000307+0000002490+0000000009+I20000000000+0000002490+Z
208089001208089306-000026     208089006003000207626COTTON WOOL ROLL 100G  0000001000+00002192+00000+0001T   00002192+0000001255          1400 EY3200               2AZ
208090000208090               208090               170213TD     1400+00000+TD0000001314+0000001314+000000000+000000184+0000001498+0000000000+I40000001498+0000000000+Z
208090001208090077-000310     208090006001023608635GIFT-BAG 18X23CM GLOSS 0000001000+00001314+00000+0001T   00001314+0000001307          1400 EY3112               2AZ
208091000208091               208091               170213TD     1400+00000+TD0000002366+0000002366+000000000+000000332+0000002690+0000000008+I20000000000+0000002690+Z
208091001208091077-000299     208091006003000395576G/BAG 32x25cm LRG LOVE 0000001000+00001490+00000+0001T   00001490+0000001308          1400 EY3112               2AZ
208091002208091077-000151     208091006008766114676GIFT-WRAP C/PHANE ASSTD0000001000+00000876+00000+0001T   00000876+0000001308          1400 EY3112               2AZ
208092000208092               208092               170213TD     1400+00000+TD0000014691+0000014691+000000000+000002059+0000016750+0000000000+I40000016750+0000000000+Z
208092001208092077-000305     208092006003000395422GIFT-BAG WINE 10X35CM  0000001000+00001490+00000+0001T   00001490+0000001312          1400 EY3112               2AZ
208092002208092162-010767     208092006001492107677#TAG LDS RING          0000001000+00003507+00000+0001T   00003507+0000001312          1400 EY3160               2AZ
208092003208092403-000050     208092006003000034956ORN JEWELERY DOLL 30cm 0000001000+00007016+00000+0001T   00007016+0000001312          1400 EY3510               2AZ
208092004208092018-000129     208092006001023403353MUG OCC. LOVE V-SHAPE  0000001000+00002630+00000+0001T   00002630+0000001312          1400 EY3515               2AZ
208092005208092112-116069     208092006009681820277TCS CARRIER BAG JUMBO  0000001000+00000048+00000+0001T   00000048+0000001312          1400 EY3090               2AZ
208093000208093               208093               170213TD     1400+00000+TD0000004235+0000004235+000000000+000000593+0000004820+0000000008+I20000000000+0000004820+Z
208093001208093018-000177     208093006001023797513MUG MINI LOVE ASSTD    0000006000+00000700+00000+0001T   00000700+0000001325          1400 EY3515               2AZ
208093002208093112-116038     208093006009681820246TCS CARRIER BAG MIDI   0000001000+00000035+00000+0001T   00000035+0000001325          1400 EY3090               2AZ
208094000208094               208094               170213TD     1400+00000+TD0000003331+0000003331+000000000+000000467+0000003798+0000000000+I40000003798+0000000000+Z
208094001208094084-006995     208094006003000092802NAIL CLIPPER 8cm TOE   0000001000+00001753+00000+0001T   00001753+0000001328          1400 EY3200               2AZ
208094002208094077-000303     208094006001023593757GIFT-BAG PAPER MED     0000001000+00001578+00000+0001T   00001578+0000001328          1400 EY3112               2AZ
208095000208095               208095               170213TD     1400+00000+TD0000066696+0000066696+000000000+000009344+0000076040+0000000000+I20000000000+0000076040+Z
208095001208095088-000084     208095006001023798060P/POURRI 120G ASSTD    0000005000+00001753+00000+0001T   00001753+0000001428          1400 EY3212               2AZ
208095002208095033-001365     208095006001023802118HAIR CLIPS 200PC ASSTD 0000001000+00002630+00000+0001T   00002630+0000001428          1400 EY3200               2AZ
208095003208095030-005000     208095006003000455874P/WDN SIGN 23X23CM 4-AS0000002000+00007893+00000+0001T   00007893+0000001428          1400 EY3505               2AZ
208095004208095301-085004     208095006003000420469ORN LOVE PLAQUE 21X10CM0000001000+00003507+00000+0001T   00003946+0006471428          1400 EY3505               2AZ
208095005208095039-000799     208095006001023692382CANDLES TEALITE 100PCE 0000001000+00008771+00000+0001T   00008771+0000001428          1400 EY3510               2AZ
208095006208095031-000009     208095006003000306381P/FRAME COLLAGE HEARTS 0000001000+00013157+00000+0001T   00013157+0000001428          1400 EY3510               2AZ
208095007208095112-116069     208095006009681820277TCS CARRIER BAG JUMBO  0000001000+00000048+00000+0001T   00000048+0000001428          1400 EY3090               2AZ
208095008208095006-000345     208095006003000677726GLOW STICKS 50x19.5cm  0000001000+00005262+00000+0001T   00005262+0000001428          1400 EY3131               2AZ
208095009208095006-000190     208095006003000685530BALLOONS LOVE 81x91cm  0000002000+00004385+00000+0001T   00004385+0000001428          1400 EY3131               2AZ
208096000208096               208096               170213TD     1400+00000+TD0000018889+0000018889+000000000+000002645+0000021530+0000000004+I20000000000+0000021530+Z
208096001208096039-000799     208096006001023692382CANDLES TEALITE 100PCE 0000001000+00008771+00000+0001T   00008771+0000001429          1400 EY3510               2AZ
208096002208096018-019000     208096006003000557288MUG OCC. LOVE JUMBO    0000001000+00005262+00000+0001T   00005262+0000001429          1400 EY3515               2AZ
208096003208096903-000194     208096006009826020616SWT CHOC RP LOLLY 25G  0000001000+00001314+00000+0001T   00001314+0000001429          1400 EY3150               2AZ
208096004208096018-000136     208096006001023659026MUG OCC LOVE W/PLUSH   0000001000+00003507+00000+0001T   00003507+0000001429          1400 EY3515               2AZ
208096005208096112-116038     208096006009681820246TCS CARRIER BAG MIDI   0000001000+00000035+00000+0001T   00000035+0000001429          1400 EY3090               2AZ
208097000208097               208097               170213TD     1400+00000+TD0000008153+0000008153+000000000+000001142+0000009295+0000000000+I40000009295+0000000000+Z
208097001208097018-000127     208097006001023380289MUG OCC STRAIGHT LOVE  0000001000+00001578+00000+0001T   00001753+0006471442          1400 EY3515               2AZ
208097002208097077-000299     208097006003000395576G/BAG 32x25cm LRG LOVE 0000001000+00001490+00000+0001T   00001490+0000001442          1400 EY3112               2AZ
208097003208097368-000049     208097006003000536955PLUSH BEAR 15cm LOVE   0000001000+00004385+00000+0001T   00004385+0000001442          1400 EY3745               2AZ
208097004208097018-000177     208097006001023797513MUG MINI LOVE ASSTD    0000001000+00000700+00000+0001T   00000700+0000001442          1400 EY3515               2AZ
208098000208098               208098               170213TD     1400+00000+TD0000002192+0000002192+000000000+000000307+0000002490+0000000009+I20000000000+0000002490+Z
208098001208098018-000170     208098006001023775528MUG OCC. LOVE 2PC MINI 0000001000+00002192+00000+0001T   00002192+0000001442          1400 EY3515               2AZ
208099000208099               208099               170213TD     1400+00000+TD0000009856+0000009856+000000000+000001381+0000011230+0000000007+I20000000000+0000011230+Z
208099001208099002-021040     208099006001023812216PARTY-PICKS 100PCE     0000002000+00000525+00000+0001T   00000525+0000001444          1400 EY3300               2AZ
208099002208099001-091415     208099006003000329113W/GLS OCC. LOVE 2PC 2800000001000+00008771+00000+0001T   00009648+0006471444          1400 EY3515               2AZ
208099003208099112-116038     208099006009681820246TCS CARRIER BAG MIDI   0000001000+00000035+00000+0001T   00000035+0000001444          1400 EY3090               2AZ
208100000208100               208100               170213TD     1400+00000+TD0000000700+0000000700+000000000+000000098+0000000790+0000000008+I20000000000+0000000790+Z
208100001208100903-000120     208100006002099001665SWEET GS ZILLIONS 50g  0000001000+00000700+00000+0001T   00000700+0000001444          1400 EY3150               2AZ
208101000208101               208101               170213TD     1400+00000+TD0000001753+0000001753+000000000+000000246+0000001990+0000000009+I20000000000+0000001990+Z
208101001208101077-000299-A   208101006003000670888GIFT-BAG PAPER JMB LOVE0000001000+00001753+00000+0001T   00001753+0000001445          1400 EY3112               2AZ
208102000208102               208102               170213TD     1400+00000+TD0000004385+0000004385+000000000+000000614+0000004990+0000000009+I20000000000+0000004990+Z
208102001208102006-000190     208102006003000685530BALLOONS LOVE 81x91cm  0000001000+00004385+00000+0001T   00004385+0000001451          1400 EY3131               2AZ
208103000208103               208103               170213TD     1400+00000+TD0000002628+0000002628+000000000+000000369+0000002990+0000000007+I20000000000+0000002990+Z
208103001208103077-000011-C   208103006001023808523TISSUE 10xSHTS RED     0000003000+00000876+00000+0001T   00000876+0000001501          1400 EY3112               2AZ
208104000208104               208104               170213TD     1400+00000+TD0000006347+0000006347+000000000+000000889+0000007230+0000000006+I20000000000+0000007230+Z
208104001208104018-000127     208104006001023380289MUG OCC STRAIGHT LOVE  0000002000+00001578+00000+0001T   00001753+0006471510          1400 EY3515               2AZ
208104002208104077-000916     208104006003000413577G/WRAP 700mmx2m BBY/KID0000001000+00002192+00000+0001T   00002192+0000001510          1400 EY3112               2AZ
208104003208104112-116038     208104006009681820246TCS CARRIER BAG MIDI   0000001000+00000035+00000+0001T   00000035+0000001510          1400 EY3090               2AZ
208104004208104903-004960     208104008410525221842SWT GUMMY STR/BERRY 50G0000001000+00000964+00000+0001T   00000964+0000001510          1400 EY3150               2AZ
208105000208105               208105               170213TD     1400+00000+TD0000007924+0000007924+000000000+000001112+0000009036+0000000000+I40000009036+0000000000+Z
208105001208105566-000362     208105006003000583065STICKER LETTER & NUMBER0000001000+00001753+00000+0001T   00001753+0000001515          1400 EY3130               2AZ
208105002208105159-000040     208105006001023767691HOOK-HANGER 4PC S/S    0000001000+00002630+00000+0001T   00002630+0000001515          1400 EY3200               2AZ
208105003208105159-000041     208105006001023767684HOOK-HANGER 2PCE S/S   0000002000+00001753+00000+0001T   00001753+0000001515          1400 EY3200               2AZ
208105004208105112-116038     208105006009681820246TCS CARRIER BAG MIDI   0000001000+00000035+00000+0001T   00000035+0000001515          1400 EY3090               2AZ
208106000208106               208106               170213TD     1400+00000+TD0000009253+0000009253+000000000+000001297+0000010550+0000000000+I20000000000+0000010550+Z
208106001208106024-000212     208106006001023858030COOKIE-CUTTERS PL SMALL0000001000+00003069+00000+0001T   00003069+0000001518          1400 EY3300               2AZ
208106002208106028-000272     208106006001023465283EGG-RINGS 2PCE      H&L0000001000+00003069+00000+0001T   00003069+0000001518          1400 EY3305               2AZ
208106003208106077-000455     208106006003000285389G/BAG METALLIC LRG SOL 0000001000+00001753+00000+0001T   00001753+0000001518          1400 EY3112               2AZ
208106004208106112-116069     208106006009681820277TCS CARRIER BAG JUMBO  0000001000+00000048+00000+0001T   00000048+0000001518          1400 EY3090               2AZ
208106005208106903-000194     208106006009826020616SWT CHOC RP LOLLY 25G  0000001000+00001314+00000+0001T   00001314+0000001518          1400 EY3150               2AZ
208107000208107               208107               170213TD     1400+00000+TD0000002630+0000002630+000000000+000000369+0000002990+0000000009+I20000000000+0000002990+Z
208107001208107159-002369     208107006001023999191TOOTHBRUSH HOLDER PL 3 0000001000+00002630+00000+0001T   00002630+0000001523          1400 EY3200               2AZ
208108000208108               208108               170213TD     1400+00000+TD0000003506+0000003506+000000000+000000492+0000003990+0000000008+I20000000000+0000003990+Z
208108001208108071-081103     208108006003000197002GLUE STICKS LIQUID 3PCE0000001000+00001753+00000+0001T   00001753+0000001529          1400 EY3130               2AZ
208108002208108464-001702     208108006003000336333DOMINOES WDN 15x5x3cm  0000001000+00001753+00000+0001T   00001753+0000001529          1400 EY3785               2AZ
208109000208109               208109               170213TD     1400+00000+TD0000004820+0000004820+000000000+000000675+0000005490+0000000005+I20000000000+0000005490+Z
208109001208109566-000068     208109006003000418046POP UP LOVE 2 ASSTD    0000001000+00002192+00000+0001T   00002192+0000001530          1400 EY3130               2AZ
208109002208109077-000310     208109006001023608635GIFT-BAG 18X23CM GLOSS 0000002000+00001314+00000+0001T   00001314+0000001530          1400 EY3112               2AZ
208110000208110               208110               170213TD     1400+00000+TD0000014905+0000014905+000000000+000002088+0000016993+0000000000+I40000016993+0000000000+Z
208110001208110078-000025     208110008887013700064SUPERGLUE 3g 1PCE CARD 0000001000+00000876+00000+0001T   00000876+0000001535          1400 EY3810               2AZ
208110002208110033-001365     208110006001023802118HAIR CLIPS 200PC ASSTD 0000001000+00002630+00000+0001T   00002630+0000001535          1400 EY3200               2AZ
208110003208110004-078993     208110006001023716569EARPHONES W/1.1m CORD  0000001000+00004385+00000+0001T   00004385+0000001535          1400 EY3310               2AZ
208110004208110018-000136     208110006001023659026MUG OCC LOVE W/PLUSH   0000002000+00003507+00000+0001T   00003507+0000001535          1400 EY3515               2AZ
208111000208111               208111               170213TD     1400+00000+TD0000012891+0000012891+000000000+000001806+0000014697+0000000000+I40000014697+0000000000+Z
208111001208111077-000327     208111006001023677686GIFT-BAG 25X32CM E/D BA0000001000+00001490+00000+0001T   00001490+0000001539          1400 EY3112               2AZ
208111002208111560-000245     208111006001023622716RUBBER ANIMALS 10PC ASS0000001000+00007016+00000+0001T   00007016+0000001539          1400 EY3745               2AZ
208111003208111065-001008     208111006001023673190XYLOPHONE 8-KEYS SHAPES0000001000+00004385+00000+0001T   00004385+0000001539          1400 EY3745               2AZ
208112000208112               208112               170213TD     1400+00000+TD0000001753+0000001753+000000000+000000246+0000001990+0000000009+I20000000000+0000001990+Z
208112001208112077-000382     208112006003000247820GIFT-BAG MED 18X23CM   0000001000+00001753+00000+0001T   00001753+0000001543          1400 EY3112               2AZ
208113000208113               208113               170213TD     1400+00000+TD0000011750+0000011750+000000000+000001646+0000013396+0000000000+I40000013396+0000000000+Z
208113001208113006-000124     208113006003000625888BALLOONS 10PC MIX COL  0000001000+00001753+00000+0001T   00001753+0000001555          1400 EY3131               2AZ
208113002208113368-000012     208113006003000610464PLUSH BEAR 30cm SITTING0000001000+00008771+00000+0001T   00008771+0000001555          1400 EY3745               2AZ
208113003208113006-001000     208113006003000093779HELIUM BALLOON FILL    0000002000+00000613+00000+0001T   00000613+0000001555          1400 EY3131               2AZ
208114000208114               208114               170213TD     1400+00000+TD0000002192+0000002192+000000000+000000307+0000002490+0000000009+I20000000000+0000002490+Z
208114001208114080-000127     208114006003000424351VALENTINES DAY 36x24CM 0000001000+00002192+00000+0001T   00002192+0000001555          1400 EY3112               2AZ
208115000208115               208115               170213TD     1400+00000+TD0000005260+0000005260+000000000+000000737+0000005990+0000000007+I20000000000+0000005990+Z
208115001208115032-000333     208115006003000220236MIRROR WALL 4PC SET    0000001000+00003946+00000+0001T   00003946+0000001618          1400 EY3510               2AZ
208115002208115251-000001     208115006001023487681TAPE DBL-SIDE 18x1000mm0000001000+00001314+00000+0001T   00001314+0000001618          1400 EY3810               2AZ
208116000208116               208116               170213TD     1400+00000+TD0000011007+0000011007+000000000+000001543+0000012550+0000000000+I20000000000+0000012550+Z
208116001208116077-000005-B   208116006003000326617PAPER TISSUE PATTERN   0000001000+00002630+00000+0001T   00002630+0000001619          1400 EY3112               2AZ
208116002208116903-000861     208116005010478430822SWT LOVE HEARTS SML    0000002000+00000876+00000+0001T   00000876+0000001619          1400 EY3150               2AZ
208116003208116031-000003     208116006003000201181P/FRME MIRROR FATHER   0000001000+00004385+00000+0001T   00004385+0000001619          1400 EY3510               2AZ
208116004208116080-000127     208116006003000424351VALENTINES DAY 36x24CM 0000001000+00002192+00000+0001T   00002192+0000001619          1400 EY3112               2AZ
208116005208116112-116069     208116006009681820277TCS CARRIER BAG JUMBO  0000001000+00000048+00000+0001T   00000048+0000001619          1400 EY3090               2AZ
208117000208117               208117               170213TD     1400+00000+TD0000004470+0000004470+000000000+000000627+0000005097+0000000000+I40000005097+0000000000+Z
208117001208117903-000111     208117006001704006378SWT LIQUORICE-TWISTS   0000001000+00001227+00000+0001T   00001227+0000001631          1400 EY3150               2AZ
208117002208117200-003024     208117006001023657299REFUSE BAGS 20PCE BLACK0000001000+00001753+00000+0001T   00001753+0000001631          1400 EY3214               2AZ
208117003208117077-000384     208117006003000275243G/BAG HOT STMP 18x23CM 0000001000+00001490+00000+0001T   00001490+0000001631          1400 EY3112               2AZ
208118000208118               208118               170213TD     1400+00000+TD0000006139-0000006139-000000000+000000860-0000007000-0000000001+I20000000000+0000007000-Z
208118001208118369-001002     208118006003000551200BABY MUSICAL CRAB B/O  0000001000-00006139+00000+0001T   00006139+0000001635          1400 EY37452IC            2 Z
208119000208119               208119               170213TD     1400+00000+TD0000026882+0000026882+000000000+000003765+0000030647+0000000000+I40000030647+0000000000+Z
208119001208119015-000021     208119006003000090952BOWL SET 6PCE GLASS    0000001000+00007455+00000+0001T   00007455+0000001638          1400 EY3515               2AZ
208119002208119206-000160     208119006003000628780CORN KERNELER          0000002000+00004385+00000+0001T   00004385+0000001638          1400 EY3321               2AZ
208119003208119007-000555     208119006001023848239MEMO-PAD MINI LOVE     0000003000+00000613+00000+0001T   00000613+0000001638          1400 EY3130               2AZ
208119004208119206-000160     208119006003000628780CORN KERNELER          0000002000+00004385+00000+0001T   00004385+0000001638          1400 EY3321               2AZ
208119005208119112-116069     208119006009681820277TCS CARRIER BAG JUMBO  0000001000+00000048+00000+0001T   00000048+0000001638          1400 EY3090               2AZ
208120000208120               208120               170213TD     1400+00000+TD0000002630+0000002630+000000000+000000369+0000002990+0000000009+I20000000000+0000002990+Z
208120001208120304-001486     208120006003000035335FLWR BUNCH ROSE        0000001000+00002630+00000+0001T   00002630+0000001649          1400 EY3510               2AZ
208121000208121               208121               170213TD     1400+00000+TD0000019897+0000019897+000000000+000002791+0000022688+0000000000+I40000022688+0000000000+Z
208121001208121077-000310     208121006001023608635GIFT-BAG 18X23CM GLOSS 0000001000+00001314+00000+0001T   00001314+0000001652          1400 EY3112               2AZ
208121002208121077-000309     208121006001023608604GIFT-BAG 25X32CM GLOSS 0000001000+00001753+00000+0001T   00001753+0000001652          1400 EY3112               2AZ
208121003208121077-000270     208121006003000395453GIFT-BAG PPR JMB 33X45 0000003000+00002630+00000+0001T   00002630+0000001652          1400 EY3112               2AZ
208121004208121077-000299     208121006003000395576G/BAG 32x25cm LRG LOVE 0000006000+00001490+00000+0001T   00001490+0000001652          1400 EY3112               2AZ
208122000208122               208122               170213TD     1400+00000+TD0000004383+0000004383+000000000+000000615+0000004990+0000000008+I20000000000+0000004990+Z
208122001208122028-000899     208122006001023509932BBQ-GRILL-CLEANER LONG 0000001000+00002630+00000+0001T   00002630+0000001712          1400 EY3305               2AZ
208122002208122054-000801     208122006001023119230WIRE-BRUSH+HANDLE FINE 0000001000+00001753+00000+0001T   00001753+0000001712          1400 EY3810               2AZ
208123000208123               208123               170213TD     1400+00000+TD0000000613+0000000613+000000000+000000086+0000000690+0000000009+I20000000000+0000000690+Z
208123001208123200-000130     208123006001023645067DESSERT-SPOONS 10PCE   0000001000+00000613+00000+0001T   00000613+0000001713          1400 EY3214               2AZ
208124000208124               208124               170213TD     1400+00000+TD0000013241+0000013241+000000000+000001855+0000015090+0000000006+I20000000000+0000015090+Z
208124001208124206-000160     208124006003000628780CORN KERNELER          0000001000+00004385+00000+0001T   00004385+0000001716          1400 EY3321               2AZ
208124002208124206-000630     208124006003000631919SPECTACLE CLEANING BRUS0000001000+00001227+00000+0001T   00001227+0000001716          1400 EY3321               2AZ
208124003208124368-000104     208124006001023751348PLUSH BEAR RUFFLED-LOOK0000001000+00006139+00000+0001T   00006139+0000001716          1400 EY3745               2AZ
208124004208124077-000299     208124006003000395576G/BAG 32x25cm LRG LOVE 0000001000+00001490+00000+0001T   00001490+0000001716          1400 EY3112               2AZ
208125000208125               208125               170213TD     1400+00000+TD0000018899+0000018899+000000000+000002648+0000021547+0000000000+I40000021547+0000000000+Z
208125001208125077-000309     208125006001023608604GIFT-BAG 25X32CM GLOSS 0000001000+00001753+00000+0001T   00001753+0000001718          1400 EY3112               2AZ
208125002208125018-000129-A   208125006003000441396MUG CERAMIC JUMBO      0000001000+00005262+00000+0001T   00005262+0000001718          1400 EY3515               2AZ
208125003208125077-000314     208125006003000181148GIFT-BAG 11X14CM MATT  0000001000+00000876+00000+0001T   00000876+0000001718          1400 EY3112               2AZ
208125004208125077-000312     208125006001023608697GIFT-BAG 10X35CM GLOSS 0000001000+00001314+00000+0001T   00001314+0000001718          1400 EY3112               2AZ
208125005208125368-000049     208125006003000536955PLUSH BEAR 15cm LOVE   0000001000+00004385+00000+0001T   00004385+0000001718          1400 EY3745               2AZ
208125006208125077-000011-D   208125006001023808554TISSUE-WRAP WHITE 10PCE0000001000+00000876+00000+0001T   00000876+0000001718          1400 EY3112               2AZ
208125007208125368-000049     208125006003000536955PLUSH BEAR 15cm LOVE   0000001000+00004385+00000+0001T   00004385+0000001718          1400 EY3745               2AZ
208125008208125112-116069     208125006009681820277TCS CARRIER BAG JUMBO  0000001000+00000048+00000+0001T   00000048+0000001718          1400 EY3090               2AZ
208126000208126               208126               170213TD     1400+00000+TD0000008378+0000008378+000000000+000001174+0000009552+0000000000+I40000009552+0000000000+Z
208126001208126024-091102     208126006003453000010BAKING-CUP PAPER 50PC  0000001000+00002192+00000+0001T   00002192+0000001732          1400 EY3300               2AZ
208126002208126001-000175     208126006001023788108B/MUG GLS LOVE 380ML   0000001000+00004385+00000+0001T   00004385+0000001732          1400 EY3515               2AZ
208126003208126077-000357     208126006003000139354GIFT-BAG 18X23CM B/DAY 0000001000+00001753+00000+0001T   00001753+0000001732          1400 EY3112               2AZ
208126004208126112-116069     208126006009681820277TCS CARRIER BAG JUMBO  0000001000+00000048+00000+0001T   00000048+0000001732          1400 EY3090               2AZ
208127000208127               208127               170213TD     1400+00000+TD0000014032+0000014032+000000000+000001966+0000015990+0000000008+I20000000000+0000015990+Z
208127001208127368-000637     208127006001023874092PLUSH BEAR SLEEPING LOV0000001000+00011402+00000+0001T   00012279+0006471736          1400 EY3745               2AZ
208127002208127077-000270     208127006003000395453GIFT-BAG PPR JMB 33X45 0000001000+00002630+00000+0001T   00002630+0000001736          1400 EY3112               2AZ
208128000208128               208128               170213TD     1400+00000+TD0000000306+0000000306+000000000+000000043+0000000349+0000000000+I40000000349+0000000000+Z
208128001208128079-009700-D   208128006003000545711PAPER SIRIO A4 RED COL.0000001000+00000306+00000+0001T   00000306+0000001741          1400 EY3130               2AZ
A17021300                                          13375943TDSLAVE 2                       EY32IC
M17021302                              IT          TDATT;IT                                          LAST TILL SLIP NUMBER ON SLAVE 2                208128                                          THANKS TD
M17021391                              CASH        TDSLAVE 2                       Z-REPORT No.   594TOTAL (Sales - Refunds)           7893.10       CASH TO BE BANKED                 3576.90       DEBIT CARDS                          0.00       CREDIT CARDS                      4316.20       Z-READING                         7893.10       AIRTIME DEBIT CARD SALES             0.00       AIRTIME CARD SALES                   0.00       OVERS/UNDERS                         0.00       AIRTIME CASH SALES                   0.00       GIFT CARDS                           0.00       GIFT CARD CASH SALES                 0.00       T O T A L  CASH PAYOUTS              0.00                                                                                                                                                                                                                                                                                                                                                      Z
M17021392                              CASH        TDABSENT                                                                                                                                                                                          ANNUAL LEAVE                                                                                                                                                                                    DAY OFF                                                                                                                                                                                         COMMENTS                                                                                                                                                                                                                                                                                                                                                                                       Z
Y17021300                                          TD00000000724995+000067
ZTD17021321163 SLAVE 2      SALES DATA                     NEXT INVOICE NO.  208129 0594
X TD Slave 2 First invoice 208059 170213 Last invoice 208128 170213 Next invoice 208129 Total number of records 000000299 clbackup completed 21:16:49
