109472000109472               109472               170213TE     1400+00000+TE0000001753+0000001753+000000000+000000246+0000001990+0000000009+I20000000000+0000001990+Z
109472001109472007-000205     109472006002324000432FILE BINDER 2-RING A4  0000001000+00001753+00000+0001T   00001753+0000000821          1400 SD1130               1CZ
109473000109473               109473               170213TE     1400+00000+TE0000037659+0000037659+000000000+000005277+0000042930+0000000006+I20000000000+0000042930+Z
109473001109473112-116069     109473006009681820277TCS CARRIER BAG JUMBO  0000001000+00000048+00000+0001T   00000048+0000000843          1400 SD1090               1CZ
109473002109473301-085000     109473006003000674299 ORN OCC. LOVE HEARTS  0000001000+00002192+00000+0001T   00002192+0000000843          1400 SD1505               1CZ
109473003109473301-085008     109473006003000673933ORN OCC.LOVE TINSEL HRT0000004000+00003069+00000+0001T   00003069+0000000843          1400 SD1505               1CZ
109473004109473563-000318-L   109473006003000407088SERVIETTES 33cm RED    0000005000+00002192+00000+0001T   00002192+0000000843          1400 SD1214               1CZ
109473005109473002-021042     109473006001023621801TOOTHPICKS 250PCE      0000001000+00001227+00000+0001T   00001227+0000000843          1400 SD1300               1CZ
109473006109473036-000606     109473006003000322213WASHING PEGS PACK 20   0000005000+00000876+00000+0001T   00001314+0008190843          1400 SD1212               1CZ
109473007109473566-000359     109473006003000582709STICKER BOOK LOVE SPARK0000003000+00002192+00000+0001T   00002192+0000000843          1400 SD1130               1CZ
109474000109474               109474               170213TE     1400+00000+TE0000003542+0000003542+000000000+000000496+0000004030+0000000008+I20000000000+0000004030+Z
109474001109474018-000136     109474006001023659026MUG OCC LOVE W/PLUSH   0000001000+00003507+00000+0001T   00003507+0000001038          1400 SD1515               1CZ
109474002109474112-116038     109474006009681820246TCS CARRIER BAG MIDI   0000001000+00000035+00000+0001T   00000035+0000001038          1400 SD1090               1CZ
109475000109475               109475               170213TE     1400+00000+TE0000006696+0000006696+000000000+000000939+0000007630+0000000005+I20000000000+0000007630+Z
109475001109475903-000200     109475006009826020234SWT CHOC RP CHOCO 23G  0000001000+00000788+00000+0001T   00000788+0000001046          1400 SD1150               1CZ
109475002109475077-000303     109475006001023593757GIFT-BAG PAPER MED     0000001000+00001578+00000+0001T   00001578+0000001046          1400 SD1112               1CZ
109475003109475037-000002     109475006001023994745ASHTRAY SPIN METAL 9cm 0000001000+00003507+00000+0001T   00003507+0000001046          1400 SD1515               1CZ
109475004109475903-000200     109475006009826020234SWT CHOC RP CHOCO 23G  0000001000+00000788+00000+0001T   00000788+0000001046          1400 SD1150               1CZ
109475005109475112-116038     109475006009681820246TCS CARRIER BAG MIDI   0000001000+00000035+00000+0001T   00000035+0000001046          1400 SD1090               1CZ
109476000109476               109476               170213TE     1400+00000+TE0000012764+0000012764+000000000+000001788+0000014550+0000000002+I20000000000+0000014550+Z
109476001109476466-006125     109476006001023831644HOCKEY SET W/BALL&PUCK 0000001000+00008771+00000+0001T   00008771+0000001051          1400 SD1785               1CZ
109476002109476079-006500     109476006001023557186GLUE GLITTER 6/10 PCE  0000001000+00001753+00000+0001T   00001753+0000001051          1400 SD1130               1CZ
109476003109476080-000127     109476006003000424351VALENTINES DAY 36x24CM 0000001000+00002192+00000+0001T   00002192+0000001051          1400 SD1112               1CZ
109476004109476112-116069     109476006009681820277TCS CARRIER BAG JUMBO  0000001000+00000048+00000+0001T   00000048+0000001051          1400 SD1090               1CZ
109477000109477               109477               170213TE     1400+00000+TE0000000700+0000000700+000000000+000000098+0000000790+0000000008+I20000000000+0000000790+Z
109477001109477564-000012     109477006001023130075BUBBLE BOTTLE MAGIC    0000001000+00000700+00000+0001T   00000700+0000001101          1400 SD1131               1CZ
109478000109478               109478               170213TE     1400+00000+TE0000008771+0000008771+000000000+000001228+0000009990+0000000009+I20000000000+0000009990+Z
109478001109478586-011943     109478006001492119434WATCH KIDS BEZEL STRAP 0000001000+00008771+00000+0001T   00008771+0000001111          1400 SD1160               1CZ
109479000109479               109479               170213TE     1400+00000+TE0000004591+0000004591+000000000+000000645+0000005230+0000000006+I20000000000+0000005230+Z
109479001109479112-116038     109479006009681820246TCS CARRIER BAG MIDI   0000001000+00000035+00000+0001T   00000035+0000001133          1400 SD1090               1CZ
109479002109479018-000170     109479006001023775528MUG OCC. LOVE 2PC MINI 0000001000+00002192+00000+0001T   00002192+0000001133          1400 SD1515               1CZ
109479003109479903-000200     109479006009826020234SWT CHOC RP CHOCO 23G  0000003000+00000788+00000+0001T   00000788+0000001133          1400 SD1150               1CZ
109480000109480               109480               170213TE     1400+00000+TE0000003067+0000003067+000000000+000000430+0000003490+0000000007+I20000000000+0000003490+Z
109480001109480080-000114     109480006003000246472CARD&ENV LOVE-MUSICAL  0000001000+00001314+00000+0001T   00001753+0008151233          1400 SD1112               1CZ
109480002109480080-000116     109480006003000253555CARD&ENVELOPE-HANDMADE 0000001000+00001753+00000+0001T   00001753+0000001233          1400 SD1112               1CZ
109481000109481               109481               170213TE     1400+00000+TE0000044423+0000044423+000000000+000006223+0000050640+0000000006+I20000000000+0000050640+Z
109481001109481112-116069     109481006009681820277TCS CARRIER BAG JUMBO  0000001000+00000048+00000+0001T   00000048+0000001308          1400 SD1090               1CZ
109481002109481586-010659     109481006001492106595WATCH BOYS SUNNIES CAMO0000001000+00011402+00000+0001T   00011402+0000001308          1400 SD1160               1CZ
109481003109481080-000139     109481006003000611690CARD & ENV MINI SET 6PC0000001000+00002192+00000+0001T   00002192+0000001308          1400 SD1112               1CZ
109481004109481903-000155     109481006009803374435SWT LOLLY I LUV U HEART0000001000+00000525+00000+0001T   00000525+0000001308          1400 SD1150               1CZ
109481005109481080-000127     109481006003000424351VALENTINES DAY 36x24CM 0000001000+00002192+00000+0001T   00002192+0000001308          1400 SD1112               1CZ
109481006109481046-000002     109481006001023585202BATTERIES SIZE:C   2PCE0000002000+00001753+00000+0001T   00001753+0000001308          1400 SD1312               1CZ
109481007109481265-000216     109481006001023681423CAR B/O RACING-SET 36PC0000001000+00021051+00000+0001T   00021051+0000001308          1400 SD1710               1CZ
109481008109481077-000932     109481006003000409808G/WRAP 700mmx5m PATTERN0000001000+00003507+00000+0001T   00003507+0000001308          1400 SD1112               1CZ
109482000109482               109482               170213TE     1400+00000+TE0000004823+0000004823+000000000+000000676+0000005490+0000000009+I20000000000+0000005490+Z
109482001109482046-000012-VP  109482006003000537914BATTERIES H/P SIZE:AA  0000001000+00004823+00000+0001T   00004823+0000001309          1400 SD1312               1CZ
109483000109483               109483               170213TE     1400+00000+TE0000009466+0000009466+000000000+000001328+0000010794+0000000000+I40000010794+0000000000+Z
109483001109483051-002401     109483006001023523570TRIGGER-SPRAYER   300ml0000001000+00001490+00000+0001T   00001490+0000001443          1400 SD1820               1CZ
109483002109483006-000166-F   109483006003000516735BALLOONS LRG 6PC PURPLE0000001000+00001314+00000+0001T   00001314+0000001443          1400 SD1131               1CZ
109483003109483078-000026     109483006936198407090SUPERGLUE 3,0g GEL     0000001000+00001753+00000+0001T   00001753+0000001443          1400 SD1810               1CZ
109483004109483079-000282     109483006001023493309PAINT TUBS POSTER 12COL0000001000+00002630+00000+0001T   00002630+0000001443          1400 SD1130               1CZ
109483005109483027-001020     109483006001246602519BROOM FLOOR W/HANDLE   0000001000+00002279+00000+0001T   00002279+0000001443          1400 SD1212               1CZ
109484000109484               109484               170213TE     1400+00000+TE0000005998+0000005998+000000000+000000840+0000006830+0000000008+I20000000000+0000006830+Z
109484001109484077-000303     109484006001023593757GIFT-BAG PAPER MED     0000001000+00001578+00000+0001T   00001578+0000001507          1400 SD1112               1CZ
109484002109484368-000049     109484006003000536955PLUSH BEAR 15cm LOVE   0000001000+00004385+00000+0001T   00004385+0000001507          1400 SD1745               1CZ
109484003109484112-116038     109484006009681820246TCS CARRIER BAG MIDI   0000001000+00000035+00000+0001T   00000035+0000001507          1400 SD1090               1CZ
109485000109485               109485               170213TE     1400+00000+TE0000001490+0000001490+000000000+000000209+0000001690+0000000009+I20000000000+0000001690+Z
109485001109485077-000299     109485006003000395576G/BAG 32x25cm LRG LOVE 0000001000+00001490+00000+0001T   00001490+0000001531          1400 SD1112               1CZ
109486000109486               109486               170213TE     1400+00000+TE0000000035+0000000035+000000000+000000005+0000000040+0000000000+I20000000000+0000000040+Z
109486001109486112-116038     109486006009681820246TCS CARRIER BAG MIDI   0000001000+00000035+00000+0001T   00000035+0000001532          1400 SD1090               1CZ
109487000109487               109487               170213TE     1400+00000+TE0000023865+0000023865+000000000+000003357+0000027222+0000000000+I40000027222+0000000000+Z
109487001109487005-005403     109487000694202400074SOCKETSET MET 69PCE    0000001000+00017542+00000+0001T   00017542+0000001546          1400 SD1840               1CZ
109487002109487112-116038     109487006009681820246TCS CARRIER BAG MIDI   0000001000+00000035+00000+0001T   00000035+0000001546          1400 SD1090               1CZ
109487003109487903-000183     109487006003000451043SWT LB HEART LOLLY     0000016000+00000393+00000+0001T   00000393+0000001546          1400 SD1150               1CZ
109488000109488               109488               170213TE     1400+00000+TE0000002628+0000002628+000000000+000000368+0000002996+0000000000+I40000002996+0000000000+Z
109488001109488077-000310     109488006001023608635GIFT-BAG 18X23CM GLOSS 0000002000+00001314+00000+0001T   00001314+0000001555          1400 SD1112               1CZ
109489000109489               109489               170213TE     1400+00000+TE0000007014+0000007014+000000000+000000982+0000007996+0000000000+I40000007996+0000000000+Z
109489001109489174-008023     109489006001023730695PONCHO 132x203cm TWIN-P0000002000+00003507+00000+0001T   00003507+0000001557          1400 SD1205               1CZ
109490000109490               109490               170213TE     1400+00000+TE0000003453+0000003453+000000000+000000485+0000003930+0000000008+I20000000000+0000003930+Z
109490001109490903-000200     109490006009826020234SWT CHOC RP CHOCO 23G  0000001000+00000788+00000+0001T   00000788+0000001559          1400 SD1150               1CZ
109490002109490079-001002     109490006003000448715CANVAS A4 WOOD MOUNTED 0000001000+00002630+00000+0001T   00002630+0000001559          1400 SD1130               1CZ
109490003109490112-116038     109490006009681820246TCS CARRIER BAG MIDI   0000001000+00000035+00000+0001T   00000035+0000001559          1400 SD1090               1CZ
109491000109491               109491               170213TE     1400+00000+TE0000001314+0000001314+000000000+000000184+0000001490+0000000008+I20000000000+0000001490+Z
109491001109491903-000194     109491006009826020616SWT CHOC RP LOLLY 25G  0000001000+00001314+00000+0001T   00001314+0000001600          1400 SD1150               1CZ
109492000109492               109492               170213TE     1400+00000+TE0000013891+0000013891+000000000+000001946+0000015837+0000000000+I40000015837+0000000000+Z
109492001109492077-000303     109492006001023593757GIFT-BAG PAPER MED     0000001000+00001578+00000+0001T   00001578+0000001631          1400 SD1112               1CZ
109492002109492301-085007     109492006003000673698ORN OCC. LOVE S/PLAQUE 0000001000+00007893+00000+0001T   00007893+0000001631          1400 SD1505               1CZ
109492003109492112-116038     109492006009681820246TCS CARRIER BAG MIDI   0000001000+00000035+00000+0001T   00000035+0000001631          1400 SD1090               1CZ
109492004109492018-030000     109492006003000421060MUG OCCASIONS LOVE 2PCE0000001000+00004385+00000+0001T   00004385+0000001631          1400 SD1515               1CZ
109493000109493               109493               170213TE     1400+00000+TE0000001490+0000001490+000000000+000000209+0000001690+0000000009+I20000000000+0000001690+Z
109493001109493084-009418     109493006003000450305SCISSORS 13cm ASSTD COL0000001000+00001490+00000+0001T   00001490+0000001635          1400 SD1200               1CZ
109494000109494               109494               170213TE     1400+00000+TE0000003507+0000003507+000000000+000000491+0000003990+0000000008+I20000000000+0000003990+Z
109494001109494018-005009     109494006001023725608MUG W/PLUSH-BEAR LOVE  0000001000+00003507+00000+0001T   00003507+0000001636          1400 SD1515               1CZ
109495000109495               109495               170213TE     1400+00000+TE0000019155+0000019155+000000000+000002682+0000021837+0000000000+I40000021837+0000000000+Z
109495001109495586-010651     109495006001492106519WATCH 3PCE GOLD&PEARL  0000001000+00017542+00000+0001T   00017542+0000001641          1400 SD1160               1CZ
109495002109495077-000303     109495006001023593757GIFT-BAG PAPER MED     0000001000+00001578+00000+0001T   00001578+0000001641          1400 SD1112               1CZ
109495003109495112-116038     109495006009681820246TCS CARRIER BAG MIDI   0000001000+00000035+00000+0001T   00000035+0000001641          1400 SD1090               1CZ
109496000109496               109496               170213TE     1400+00000+TE0000005291+0000005291+000000000+000000741+0000006030+0000000002+I20000000000+0000006030+Z
109496001109496903-000194     109496006009826020616SWT CHOC RP LOLLY 25G  0000004000+00001314+00000+0001T   00001314+0000001712          1400 SD1150               1CZ
109496002109496112-116038     109496006009681820246TCS CARRIER BAG MIDI   0000001000+00000035+00000+0001T   00000035+0000001712          1400 SD1090               1CZ
109497000109497               109497               170213TE     1400+00000+TE0000017565+0000017565+000000000+000002462+0000020020+0000000007+I20000000000+0000020020+Z
109497001109497162-097715     109497006001492977157#TAG NEW COLOUR E/PIERC0000001000+00001139+00000+0001T   00001139+0000001716          1400 SD1160               1CZ
109497002109497304-001011     109497006001023806727FLWR ROSE RED W/BEAR   0000003000+00000613+00000+0001T   00000788+0006471716          1400 SD1510               1CZ
109497003109497112-116038     109497006009681820246TCS CARRIER BAG MIDI   0000001000+00000035+00000+0001T   00000035+0000001716          1400 SD1090               1CZ
109497004109497080-000112     109497006003000252749CARD&ENVLP BDAY-MUSICAL0000001000+00001753+00000+0001T   00001753+0000001716          1400 SD1112               1CZ
109497005109497080-000111     109497006003000252695CARD&ENVELPE - MUSICAL 0000001000+00001753+00000+0001T   00001753+0000001716          1400 SD1112               1CZ
109497006109497018-005009     109497006001023725608MUG W/PLUSH-BEAR LOVE  0000003000+00003507+00000+0001T   00003507+0000001716          1400 SD1515               1CZ
109497007109497903-000155     109497006009803374435SWT LOLLY I LUV U HEART0000001000+00000525+00000+0001T   00000525+0000001716          1400 SD1150               1CZ
109498000109498               109498               170213TE     1400+00000+TE0000010261+0000010261+000000000+000001437+0000011698+0000000000+I40000011698+0000000000+Z
109498001109498001-091415     109498006003000329113W/GLS OCC. LOVE 2PC 2800000001000+00008771+00000+0001T   00009648+0006471724          1400 SD1515               1CZ
109498002109498077-000299     109498006003000395576G/BAG 32x25cm LRG LOVE 0000001000+00001490+00000+0001T   00001490+0000001724          1400 SD1112               1CZ
109499000109499               109499               170213TE     1400+00000+TE0000000525+0000000525+000000000+000000074+0000000590+0000000009+I20000000000+0000000590+Z
109499001109499903-000155     109499006009803374435SWT LOLLY I LUV U HEART0000001000+00000525+00000+0001T   00000525+0000001725          1400 SD1150               1CZ
109500000109500               109500               170213TE     1400+00000+TE0000004385+0000004385+000000000+000000614+0000004990+0000000009+I20000000000+0000004990+Z
109500001109500082-000115     109500006003000360604READING GLS STRNGHT:2.50000001000+00004385+00000+0001T   00004385+0000001727          1400 SD1160               1CZ
109501000109501               109501               170213TE     1400+00000+TE0000001753+0000001753+000000000+000000246+0000001990+0000000009+I20000000000+0000001990+Z
109501001109501366-006104     109501006003000616930DRESS UP FACE PAINT    0000001000+00001753+00000+0001T   00001753+0000001731          1400 SD1131               1CZ
109502000109502               109502               170213TE     1400+00000+TE0000001753+0000001753+000000000+000000246+0000001990+0000000009+I20000000000+0000001990+Z
109502001109502903-000615     109502006003000617456SWT JET PLANE J/B 5G   0000001000+00001753+00000+0001T   00001753+0000001733          1400 SD1150               1CZ
109503000109503               109503               170213TE     1400+00000+TE0000002803+0000002803+000000000+000000394+0000003190+0000000007+I20000000000+0000003190+Z
109503001109503903-000200     109503006009826020234SWT CHOC RP CHOCO 23G  0000001000+00000788+00000+0001T   00000788+0000001759          1400 SD1150               1CZ
109503002109503077-000303     109503006001023593757GIFT-BAG PAPER MED     0000001000+00001578+00000+0001T   00001578+0000001759          1400 SD1112               1CZ
109503003109503080-000133     109503006003000535613CARD&ENV MINI ASTD DSGN0000001000+00000437+00000+0001T   00000437+0000001759          1400 SD1112               1CZ
109504000109504               109504               170213TE     1400+00000+TE0000001157-0000001157-000000000+000000162-0000001320-0000000001+I20000000000+0000001320-Z
109504001109504001-999910     109504000000000999910POSTAGE                0000001000-00001157+00000+0001T   00000000+0000001805          1400 SD19102IC            1 Z
A17021300                                          08554711TESLAVE 1                       SD12IC
A17021301                                          09381763TESLAVE 1                       SD12IC
A17021302                                          12212278TESLAVE 1                       SD12IC
A17021303                                          13270791TESLAVE 1                       SD11IC
A17021304                                          18045874TESLAVE 1                       SD12IC
M17021391                              CASH        TESLAVE 1                       Z-REPORT No.   579TOTAL (Sales - Refunds)           3036.00       CASH TO BE BANKED                 2039.00       DEBIT CARDS                          0.00       CREDIT CARDS                       983.80       Z-READING                         3022.80       AIRTIME DEBIT CARD SALES             0.00       AIRTIME CARD SALES                   0.00       OVERS/UNDERS                         0.00       AIRTIME CASH SALES                   0.00       GIFT CARDS                           0.00       GIFT CARD CASH SALES                 0.00       POSTAGE                             13.19       ROUNDING                             0.01       T O T A L  CASH PAYOUTS             13.20                                                                                                                                                                                                                                                      Z
M17021392                              CASH        TEABSENT                                                                                                                                                                                          ANNUAL LEAVE                                                                                                                                                                                    DAY OFF                                                                                                                                                                                         COMMENTS          POSTAGE R13.20                                                                                                                                                                                                                                                                                                                                                               Z
Y17021300                                          TE00008800266431+000032
ZTE17021320233 SLAVE 1      SALES DATA                     NEXT INVOICE NO.  109505 0579
X TE Slave 1 First invoice 109472 170213 Last invoice 109504 170213 Next invoice 109505 Total number of records 000000124 clbackup completed 20:23:57
