206860000206860               206860               170213TE     1400+00000+TE0000002630+0000002630+000000000+000000369+0000002990+0000000009+I20000000000+0000002990+Z
206860001206860220-009001     206860006001023167804ROSE TEASPOON 6PCE     0000001000+00002630+00000+0001T   00002630+0000000803          1400 LH6300               2AZ
206861000206861               206861               170213TE     1400+00000+TE0000034640+0000034640+000000000+000004853+0000039490+0000000003+I20000000000+0000039490+Z
206861001206861368-000637     206861006001023874092PLUSH BEAR SLEEPING LOV0000001000+00011402+00000+0001T   00012279+0006470949          1400 LH6745               2AZ
206861002206861040-001013     206861006003000327966C/HOLDER SET 3PC W/TRAY0000001000+00014911+00000+0001T   00014911+0000000949          1400 LH6510               2AZ
206861003206861077-000270     206861006003000395453GIFT-BAG PPR JMB 33X45 0000001000+00002630+00000+0001T   00002630+0000000949          1400 LH6112               2AZ
206861004206861039-001023     206861006003000466337CANDLE TEA-LITE METALIC0000001000+00001753+00000+0001T   00001753+0000000949          1400 LH6510               2AZ
206861005206861018-000127     206861006001023380289MUG OCC STRAIGHT LOVE  0000002000+00001578+00000+0001T   00001753+0006470949          1400 LH6515               2AZ
206861006206861077-000010-C   206861006001023123879CREPE-PAPER RED        0000001000+00000788+00000+0001T   00000788+0000000949          1400 LH6112               2AZ
206862000206862               206862               170213TE     1400+00000+TE0000002630+0000002630+000000000+000000369+0000002990+0000000009+I20000000000+0000002990+Z
206862001206862018-000128     206862006001023868978MUG OCCASIONS MESSAGES 0000001000+00002630+00000+0001T   00002630+0000000954          1400 LH6515               2AZ
206863000206863               206863               170213TE     1400+00000+TE0000007832+0000007832+000000000+000001101+0000008930+0000000003+I20000000000+0000008930+Z
206863001206863112-116038     206863006009681820246TCS CARRIER BAG MIDI   0000001000+00000035+00000+0001T   00000035+0000001008          1400 LH6090               2AZ
206863002206863089-060027     206863006003000245871KEY-CHAIN HEART 6X6cm  0000001000+00003069+00000+0001T   00003069+0000001008          1400 LH6205               2AZ
206863003206863903-000200     206863006009826020234SWT CHOC RP CHOCO 23G  0000006000+00000788+00000+0001T   00000788+0000001008          1400 LH6150               2AZ
206864000206864               206864               170213TE     1400+00000+TE0000001261+0000001261+000000000+000000177+0000001430+0000000008+I20000000000+0000001430+Z
206864001206864112-116038     206864006009681820246TCS CARRIER BAG MIDI   0000001000+00000035+00000+0001T   00000035+0000001023          1400 LH6090               2AZ
206864002206864304-001011     206864006001023806727FLWR ROSE RED W/BEAR   0000002000+00000613+00000+0001T   00000788+0006471023          1400 LH6510               2AZ
206865000206865               206865               170213TE     1400+00000+TE0000003681+0000003681+000000000+000000516+0000004190+0000000007+I20000000000+0000004190+Z
206865001206865071-081091     206865006001151010287STAED/GENKEM ALL-STICK 0000003000+00001227+00000+0001T   00001227+0000001032          1400 LH6130               2AZ
206866000206866               206866               170213TE     1400+00000+TE0000001664+0000001664+000000000+000000234+0000001890+0000000008+I20000000000+0000001890+Z
206866001206866033-005921-B   206866006001023678348SEWING-THREAD 200m BLK 0000001000+00000876+00000+0001T   00000876+0000001149          1400 LH6200               2AZ
206866002206866033-005991     206866006001023678546NEEDLES H/HOLD-REPAIR  0000001000+00000788+00000+0001T   00000788+0000001149          1400 LH6200               2AZ
206867000206867               206867               170213TE     1400+00000+TE0000015199+0000015199+000000000+000002133+0000017330+0000000002+I20000000000+0000017330+Z
206867001206867112-116038     206867006009681820246TCS CARRIER BAG MIDI   0000001000+00000035+00000+0001T   00000035+0000001151          1400 LH6090               2AZ
206867002206867030-004015     206867006003000467624PLAQUE WDN SIGN 30X20CM0000001000+00009648+00000+0001T   00009648+0000001151          1400 LH6505               2AZ
206867003206867903-000200     206867006009826020234SWT CHOC RP CHOCO 23G  0000007000+00000788+00000+0001T   00000788+0000001151          1400 LH6150               2AZ
206868000206868               206868               170213TE     1400+00000+TE0000007925+0000007925+000000000+000001110+0000009030+0000000005+I20000000000+0000009030+Z
206868001206868031-000848     206868006001023851901P/FRAME COLLAGE 2ASSTD 0000001000+00004385+00000+0001T   00004385+0000001240          1400 LH6510               2AZ
206868002206868077-000303     206868006001023593757GIFT-BAG PAPER MED     0000001000+00001578+00000+0001T   00001578+0000001240          1400 LH6112               2AZ
206868003206868304-001011     206868006001023806727FLWR ROSE RED W/BEAR   0000001000+00000613+00000+0001T   00000788+0006471240          1400 LH6510               2AZ
206868004206868112-116038     206868006009681820246TCS CARRIER BAG MIDI   0000001000+00000035+00000+0001T   00000035+0000001240          1400 LH6090               2AZ
206868005206868903-000194     206868006009826020616SWT CHOC RP LOLLY 25G  0000001000+00001314+00000+0001T   00001314+0000001240          1400 LH6150               2AZ
206869000206869               206869               170213TE     1400+00000+TE0000000035+0000000035+000000000+000000005+0000000040+0000000000+I20000000000+0000000040+Z
206869001206869112-116038     206869006009681820246TCS CARRIER BAG MIDI   0000001000+00000035+00000+0001T   00000035+0000001241          1400 LH6090               2AZ
206870000206870               206870               170213TE     1400+00000+TE0000000393+0000000393+000000000+000000056+0000000440+0000000009+I20000000000+0000000440+Z
206870001206870903-000183     206870006003000451043SWT LB HEART LOLLY     0000001000+00000393+00000+0001T   00000393+0000001259          1400 LH6150               2AZ
206871000206871               206871               170213TE     1400+00000+TE0000009147+0000009147+000000000+000001285+0000010430+0000000002+I20000000000+0000010430+Z
206871001206871903-000892     206871008693029700420SWT NOVELTY CHOCO CREAM0000001000+00000788+00000+0001T   00000788+0000001304          1400 LH6150               2AZ
206871002206871080-000133     206871006003000535613CARD&ENV MINI ASTD DSGN0000004000+00000437+00000+0001T   00000437+0000001304          1400 LH6112               2AZ
206871003206871080-000139     206871006003000611690CARD & ENV MINI SET 6PC0000003000+00002192+00000+0001T   00002192+0000001304          1400 LH6112               2AZ
206871004206871112-116038     206871006009681820246TCS CARRIER BAG MIDI   0000001000+00000035+00000+0001T   00000035+0000001304          1400 LH6090               2AZ
206872000206872               206872               170213TE     1400+00000+TE0000021486+0000021486+000000000+000003009+0000024495+0000000000+I40000024495+0000000000+Z
206872001206872365-002998     206872006001023583758PLAY-SET PHONE PL B/O  0000001000+00017542+00000+0001T   00017542+0000001313          1400 LH6725               2AZ
206872002206872077-000270     206872006003000395453GIFT-BAG PPR JMB 33X45 0000001000+00002630+00000+0001T   00002630+0000001313          1400 LH6112               2AZ
206872003206872046-000012     206872006904708013062BATTERIES AA  CARD-OF-40000001000+00001314+00000+0001T   00001314+0000001313          1400 LH6312               2AZ
206873000206873               206873               170213TE     1400+00000+TE0000002630+0000002630+000000000+000000369+0000002990+0000000009+I20000000000+0000002990+Z
206873001206873018-000135     206873006003000284474MUG OCC. DAD TUBBY     0000001000+00002630+00000+0001T   00002630+0000001322          1400 LH6515               2AZ
206874000206874               206874               170213TE     1400+00000+TE0000002192+0000002192+000000000+000000307+0000002490+0000000009+I20000000000+0000002490+Z
206874001206874200-000002     206874006925406821049BAG FLIP TOP 80PCE     0000001000+00002192+00000+0001T   00002192+0000001327          1400 LH6214               2AZ
206875000206875               206875               170213TE     1400+00000+TE0000004767+0000004767+000000000+000000669+0000005430+0000000006+I20000000000+0000005430+Z
206875001206875077-000305     206875006003000395422GIFT-BAG WINE 10X35CM  0000001000+00001490+00000+0001T   00001490+0000001337          1400 LH6112               2AZ
206875002206875903-000155     206875006009803374435SWT LOLLY I LUV U HEART0000001000+00000525+00000+0001T   00000525+0000001337          1400 LH6150               2AZ
206875003206875077-000384     206875006003000275243G/BAG HOT STMP 18x23CM 0000001000+00001490+00000+0001T   00001490+0000001337          1400 LH6112               2AZ
206875004206875077-000322     206875006001023677532GIFT-BAG 18X23CM E/D FL0000001000+00001227+00000+0001T   00001227+0000001337          1400 LH6112               2AZ
206875005206875112-116038     206875006009681820246TCS CARRIER BAG MIDI   0000001000+00000035+00000+0001T   00000035+0000001337          1400 LH6090               2AZ
206876000206876               206876               170213TE     1400+00000+TE0000001538+0000001538+000000000+000000216+0000001750+0000000004+I20000000000+0000001750+Z
206876001206876112-116069     206876006009681820277TCS CARRIER BAG JUMBO  0000001000+00000048+00000+0001T   00000048+0000001342          1400 LH6090               2AZ
206876002206876077-000305     206876006003000395422GIFT-BAG WINE 10X35CM  0000001000+00001490+00000+0001T   00001490+0000001342          1400 LH6112               2AZ
206877000206877               206877               170213TE     1400+00000+TE0000000525+0000000525+000000000+000000074+0000000590+0000000009+I20000000000+0000000590+Z
206877001206877903-000155     206877006009803374435SWT LOLLY I LUV U HEART0000001000+00000525+00000+0001T   00000525+0000001343          1400 LH6150               2AZ
206878000206878               206878               170213TE     1400+00000+TE0000010832+0000010832+000000000+000001518+0000012350+0000000000+I20000000000+0000012350+Z
206878001206878112-116069     206878006009681820277TCS CARRIER BAG JUMBO  0000001000+00000048+00000+0001T   00000048+0000001359          1400 LH6090               2AZ
206878002206878497-068614     206878000078257686148H/PUMP HIGH-O/PUT 36cm 0000001000+00006139+00000+0001T   00006139+0000001359          1400 LH6787               2AZ
206878003206878018-005009     206878006001023725608MUG W/PLUSH-BEAR LOVE  0000001000+00003507+00000+0001T   00003507+0000001359          1400 LH6515               2AZ
206878004206878304-001011     206878006001023806727FLWR ROSE RED W/BEAR   0000001000+00000613+00000+0001T   00000788+0006471359          1400 LH6510               2AZ
206878005206878903-000155     206878006009803374435SWT LOLLY I LUV U HEART0000001000+00000525+00000+0001T   00000525+0000001359          1400 LH6150               2AZ
206879000206879               206879               170213TE     1400+00000+TE0000001928+0000001928+000000000+000000270+0000002198+0000000000+I40000002198+0000000000+Z
206879001206879174-008028     206879006009654960825TRAVEL JARS 4-PACK     0000001000+00001928+00000+0001T   00001928+0000001403          1400 LH6205               2AZ
206880000206880               206880               170213TE     1400+00000+TE0000001314+0000001314+000000000+000000184+0000001498+0000000000+I40000001498+0000000000+Z
206880001206880903-000844     206880005010478432567SWT CANDY DL LUV HEARTS0000001000+00001314+00000+0001T   00001314+0000001405          1400 LH6150               2BZ
206881000206881               206881               170213TE     1400+00000+TE0000003507+0000003507+000000000+000000491+0000003990+0000000008+I20000000000+0000003990+Z
206881001206881018-000136     206881006001023659026MUG OCC LOVE W/PLUSH   0000001000+00003507+00000+0001T   00003507+0000001406          1400 LH6515               2AZ
206882000206882               206882               170213TE     1400+00000+TE0000006173+0000006173+000000000+000000865+0000007030+0000000008+I20000000000+0000007030+Z
206882001206882368-000049     206882006003000536955PLUSH BEAR 15cm LOVE   0000001000+00004385+00000+0001T   00004385+0000001419          1400 LH6745               2AZ
206882002206882080-000113     206882006003000237449CARD&ENVLPE - LOVE     0000001000+00001753+00000+0001T   00001753+0000001419          1400 LH6112               2AZ
206882003206882112-116038     206882006009681820246TCS CARRIER BAG MIDI   0000001000+00000035+00000+0001T   00000035+0000001419          1400 LH6090               2AZ
206883000206883               206883               170213TE     1400+00000+TE0000002192+0000002192+000000000+000000307+0000002499+0000000000+I40000002499+0000000000+Z
206883001206883251-000002     206883006003000093991TAPE D-SIDED 24x1000mm 0000001000+00002192+00000+0001T   00002192+0000001426          1400 LH6810               2BZ
206884000206884               206884               170213TE     1400+00000+TE0000005261+0000005261+000000000+000000737+0000005990+0000000008+I20000000000+0000005990+Z
206884001206884403-000508     206884006001023691309M-BANK PIGGY W/HAMMER  0000001000+00004385+00000+0001T   00004385+0000001427          1400 LH6510               2AZ
206884002206884903-000297     206884006001704002950SWT MS WILD BERRY 50G  0000001000+00000876+00000+0001T   00000876+0000001427          1400 LH6150               2AZ
206885000206885               206885               170213TE     1400+00000+TE0000001753+0000001753+000000000+000000246+0000001990+0000000009+I20000000000+0000001990+Z
206885001206885080-000113     206885006003000237449CARD&ENVLPE - LOVE     0000001000+00001753+00000+0001T   00001753+0000001431          1400 LH6112               2AZ
206886000206886               206886               170213TE     1400+00000+TE0000004822+0000004822+000000000+000000676+0000005490+0000000008+I20000000000+0000005490+Z
206886001206886077-000009     206886006003000152377PAPER CREPE ALUM COL   0000001000+00003069+00000+0001T   00003069+0000001433          1400 LH6112               2AZ
206886002206886077-000011-X   206886006001023809827TISSUE-WRAP SILVER 10PC0000001000+00001753+00000+0001T   00001753+0000001433          1400 LH6112               2AZ
206887000206887               206887               170213TE     1400+00000+TE0000001753+0000001753+000000000+000000246+0000001990+0000000009+I20000000000+0000001990+Z
206887001206887012-000001     206887006003000331048MICRO PLATE-COVER 26X6 0000001000+00001753+00000+0001T   00002192+0008191434          1400 LH6300               2AZ
206888000206888               206888               170213TE     1400+00000+TE0000026743+0000026743+000000000+000003746+0000030489+0000000000+I40000030489+0000000000+Z
206888001206888366-000125     206888006003000006786DRESSUP WINGS/WAND/BAND0000001000+00005262+00000+0001T   00005262+0000001443          1400 LH6131               2AZ
206888002206888903-000215     206888006002099001214SWT GS MALLOW TWIST PAC0000001000+00001753+00000+0001T   00001753+0000001443          1400 LH6150               2AZ
206888003206888366-001112-A   206888006003000450169DRESSUP ANIMALS 2-4YRS 0000001000+00005262+00000+0001T   00007016+0008181443          1400 LH6131               2AZ
206888004206888903-000194     206888006009826020616SWT CHOC RP LOLLY 25G  0000003000+00001314+00000+0001T   00001314+0000001443          1400 LH6150               2AZ
206888005206888366-002697     206888006003000535989DRESSUP HAT ADULT FUN  0000002000+00005262+00000+0001T   00005262+0000001443          1400 LH6131               2AZ
206889000206889               206889               170213TE     1400+00000+TE0000007049+0000007049+000000000+000000987+0000008030+0000000006+I20000000000+0000008030+Z
206889001206889112-116038     206889006009681820246TCS CARRIER BAG MIDI   0000001000+00000035+00000+0001T   00000035+0000001450          1400 LH6090               2AZ
206889002206889018-000136     206889006001023659026MUG OCC LOVE W/PLUSH   0000001000+00003507+00000+0001T   00003507+0000001450          1400 LH6515               2AZ
206889003206889018-005009     206889006001023725608MUG W/PLUSH-BEAR LOVE  0000001000+00003507+00000+0001T   00003507+0000001450          1400 LH6515               2AZ
206890000206890               206890               170213TE     1400+00000+TE0000018200+0000018200+000000000+000002551+0000020751+0000000000+I40000020751+0000000000+Z
206890001206890112-116069     206890006009681820277TCS CARRIER BAG JUMBO  0000001000+00000048+00000+0001T   00000048+0000001456          1400 LH6090               2AZ
206890002206890368-000111     206890006001023780812PLUSH BEAR/DOG 29CM    0000001000+00012279+00000+0001T   00012279+0000001456          1400 LH6745               2AZ
206890003206890077-000299     206890006003000395576G/BAG 32x25cm LRG LOVE 0000001000+00001490+00000+0001T   00001490+0000001456          1400 LH6112               2AZ
206890004206890077-000471     206890006003000330096G-BAG DESGN MED 18X23CM0000001000+00001753+00000+0001T   00001753+0000001456          1400 LH6112               2AZ
206890005206890368-000040     206890006003000671786PLUSH ICONS 7.5cm      0000001000+00002630+00000+0001T   00002630+0000001456          1400 LH6745               2AZ
206891000206891               206891               170213TE     1400+00000+TE0000004822+0000004822+000000000+000000676+0000005498+0000000000+I40000005498+0000000000+Z
206891001206891563-000317-G   206891006001023776341SERVIETTES BRIGHT ASSTD0000001000+00002630+00000+0001T   00002630+0000001507          1400 LH6214               2AZ
206891002206891080-000127     206891006003000424351VALENTINES DAY 36x24CM 0000001000+00002192+00000+0001T   00002192+0000001507          1400 LH6112               2AZ
206892000206892               206892               170213TE     1400+00000+TE0000010016+0000010016+000000000+000001407+0000011420+0000000003+I20000000000+0000011420+Z
206892001206892112-116038     206892006009681820246TCS CARRIER BAG MIDI   0000001000+00000035+00000+0001T   00000035+0000001512          1400 LH6090               2AZ
206892002206892903-000155     206892006009803374435SWT LOLLY I LUV U HEART0000007000+00000525+00000+0001T   00000525+0000001512          1400 LH6150               2AZ
206892003206892903-000194     206892006009826020616SWT CHOC RP LOLLY 25G  0000004000+00001314+00000+0001T   00001314+0000001512          1400 LH6150               2AZ
206892004206892903-000155     206892006009803374435SWT LOLLY I LUV U HEART0000002000+00000525+00000+0001T   00000525+0000001512          1400 LH6150               2AZ
206893000206893               206893               170213TE     1400+00000+TE0000007892+0000007892+000000000+000001105+0000008990+0000000007+I20000000000+0000008990+Z
206893001206893368-000049     206893006003000536955PLUSH BEAR 15cm LOVE   0000001000+00004385+00000+0001T   00004385+0000001513          1400 LH6745               2AZ
206893002206893018-005009     206893006001023725608MUG W/PLUSH-BEAR LOVE  0000001000+00003507+00000+0001T   00003507+0000001513          1400 LH6515               2AZ
206894000206894               206894               170213TE     1400+00000+TE0000001578+0000001578+000000000+000000221+0000001790+0000000009+I20000000000+0000001790+Z
206894001206894077-000303     206894006001023593757GIFT-BAG PAPER MED     0000001000+00001578+00000+0001T   00001578+0000001514          1400 LH6112               2AZ
206895000206895               206895               170213TE     1400+00000+TE0000012541+0000012541+000000000+000001757+0000014290+0000000008+I20000000000+0000014290+Z
206895001206895562-058925     206895006003000599998EDU B/O TOY TABLET     0000001000+00011402+00000+0001T   00011402+0000001520          1400 LH6755               2AZ
206895002206895046-000014     206895006001023725387BATTERIES SIZE:AAA 4PCE0000001000+00001139+00000+0001T   00001139+0000001520          1400 LH6312               2AZ
206896000206896               206896               170213TE     1400+00000+TE0000005260+0000005260+000000000+000000738+0000005990+0000000008+I20000000000+0000005990+Z
206896001206896077-000270     206896006003000395453GIFT-BAG PPR JMB 33X45 0000002000+00002630+00000+0001T   00002630+0000001521          1400 LH6112               2AZ
206897000206897               206897               170213TE     1400+00000+TE0000001578+0000001578+000000000+000000221+0000001790+0000000009+I20000000000+0000001790+Z
206897001206897077-000303     206897006001023593757GIFT-BAG PAPER MED     0000001000+00001578+00000+0001T   00001578+0000001526          1400 LH6112               2AZ
206898000206898               206898               170213TE     1400+00000+TE0000000035+0000000035+000000000+000000005+0000000040+0000000000+I20000000000+0000000040+Z
206898001206898112-116038     206898006009681820246TCS CARRIER BAG MIDI   0000001000+00000035+00000+0001T   00000035+0000001527          1400 LH6090               2AZ
206899000206899               206899               170213TE     1400+00000+TE0000001753+0000001753+000000000+000000246+0000001999+0000000000+I40000001999+0000000000+Z
206899001206899080-000103     206899006003000236961CARD&ENVLOPE BDAY-MALE 0000001000+00001753+00000+0001T   00001753+0000001528          1400 LH6112               2AZ
206900000206900               206900               170213TE     1400+00000+TE0000007925+0000007925+000000000+000001111+0000009030+0000000006+I20000000000+0000009030+Z
206900001206900033-000126     206900006003000676736HAIR COMB BRIGHT 20cm  0000001000+00002630+00000+0001T   00002630+0000001531          1400 LH6200               2AZ
206900002206900301-085004     206900006003000420469ORN LOVE PLAQUE 21X10CM0000001000+00003507+00000+0001T   00003946+0006471531          1400 LH6505               2AZ
206900003206900089-000019     206900006003000092291K/CHAIN MINI BOOT 13cm 0000001000+00001753+00000+0001T   00001753+0000001531          1400 LH6205               2AZ
206900004206900112-116038     206900006009681820246TCS CARRIER BAG MIDI   0000001000+00000035+00000+0001T   00000035+0000001531          1400 LH6090               2AZ
206901000206901               206901               170213TE     1400+00000+TE0000005262+0000005262+000000000+000000737+0000005990+0000000009+I20000000000+0000005990+Z
206901001206901301-086006     206901006003000498918ORN OCCASION LOVE 4ASTD0000001000+00005262+00000+0001T   00005262+0000001602          1400 LH6505               2AZ
206902000206902               206902               170213TE     1400+00000+TE0000005260+0000005260+000000000+000000737+0000005990+0000000007+I20000000000+0000005990+Z
206902001206902079-000012     206902006001023655332P/CRAYONS 12-COL LONG  0000001000+00001753+00000+0001T   00001753+0000001604          1400 LH6130               2AZ
206902002206902567-011445     206902009781847509772BK COLOURING DINOSAUR  0000001000+00003507+00000+0001T   00003507+0000001604          1400 LH6757               2AZ
206903000206903               206903               170213TE     1400+00000+TE0000009645+0000009645+000000000+000001351+0000010990+0000000006+I20000000000+0000010990+Z
206903001206903018-030000     206903006003000421060MUG OCCASIONS LOVE 2PCE0000001000+00004385+00000+0001T   00004385+0000001606          1400 LH6515               2AZ
206903002206903301-085004     206903006003000420469ORN LOVE PLAQUE 21X10CM0000001000+00003507+00000+0001T   00003946+0006471606          1400 LH6505               2AZ
206903003206903080-000123     206903006003000237722CARD&ENVELOPE-SYMPATHY 0000001000+00001753+00000+0001T   00001753+0000001606          1400 LH6112               2AZ
206904000206904               206904               170213TE     1400+00000+TE0000012279+0000012279+000000000+000001720+0000013990+0000000009+I20000000000+0000013990+Z
206904001206904586-098620     206904006001492986203WATCH MENS BASIC BLK   0000001000+00012279+00000+0001T   00012279+0000001607          1400 LH6160               2AZ
206905000206905               206905               170213TE     1400+00000+TE0000001314+0000001314+000000000+000000184+0000001490+0000000008+I20000000000+0000001490+Z
206905001206905006-000166-F   206905006003000516735BALLOONS LRG 6PC PURPLE0000001000+00001314+00000+0001T   00001314+0000001611          1400 LH6131               2AZ
206906000206906               206906               170213TE     1400+00000+TE0000003542+0000003542+000000000+000000496+0000004030+0000000008+I20000000000+0000004030+Z
206906001206906018-005009     206906006001023725608MUG W/PLUSH-BEAR LOVE  0000001000+00003507+00000+0001T   00003507+0000001631          1400 LH6515               2AZ
206906002206906112-116038     206906006009681820246TCS CARRIER BAG MIDI   0000001000+00000035+00000+0001T   00000035+0000001631          1400 LH6090               2AZ
206907000206907               206907               170213TE     1400+00000+TE0000000613+0000000613+000000000+000000086+0000000690+0000000009+I20000000000+0000000690+Z
206907001206907304-001011     206907006001023806727FLWR ROSE RED W/BEAR   0000001000+00000613+00000+0001T   00000788+0006471700          1400 LH6510               2AZ
206908000206908               206908               170213TE     1400+00000+TE0000000525+0000000525+000000000+000000074+0000000590+0000000009+I20000000000+0000000590+Z
206908001206908903-000155     206908006009803374435SWT LOLLY I LUV U HEART0000001000+00000525+00000+0001T   00000525+0000001701          1400 LH6150               2AZ
206909000206909               206909               170213TE     1400+00000+TE0000001050+0000001050+000000000+000000148+0000001190+0000000008+I20000000000+0000001190+Z
206909001206909903-000155     206909006009803374435SWT LOLLY I LUV U HEART0000002000+00000525+00000+0001T   00000525+0000001702          1400 LH6150               2AZ
206910000206910               206910               170213TE     1400+00000+TE0000001753+0000001753+000000000+000000246+0000001990+0000000009+I20000000000+0000001990+Z
206910001206910306-000024-A   206910006003000577309COTTON-WOOL-PADS 80PC  0000001000+00001753+00000+0001T   00001753+0000001705          1400 LH6200               2AZ
206911000206911               206911               170213TE     1400+00000+TE0000000613+0000000613+000000000+000000086+0000000690+0000000009+I20000000000+0000000690+Z
206911001206911304-001011     206911006001023806727FLWR ROSE RED W/BEAR   0000001000+00000613+00000+0001T   00000788+0006471708          1400 LH6510               2AZ
206912000206912               206912               170213TE     1400+00000+TE0000000035+0000000035+000000000+000000005+0000000040+0000000000+I20000000000+0000000040+Z
206912001206912112-116038     206912006009681820246TCS CARRIER BAG MIDI   0000001000+00000035+00000+0001T   00000035+0000001709          1400 LH6090               2AZ
206913000206913               206913               170213TE     1400+00000+TE0000024606+0000024606+000000000+000003446+0000028052+0000000000+I40000028052+0000000000+Z
206913001206913079-006495     206913006003000159987GLITTER SHAKERS 6PK    0000001000+00002630+00000+0001T   00002630+0000001712          1400 LH6130               2CZ
206913002206913032-000940     206913006001023862631MIRROR WALL W/ROPE 28CM0000001000+00021928+00000+0001T   00021928+0000001712          1400 LH6510               2CZ
206913003206913112-116069     206913006009681820277TCS CARRIER BAG JUMBO  0000001000+00000048+00000+0001T   00000048+0000001712          1400 LH6090               2CZ
206914000206914               206914               170213TE     1400+00000+TE0000005734+0000005734+000000000+000000803+0000006530+0000000007+I20000000000+0000006530+Z
206914001206914018-030000     206914006003000421060MUG OCCASIONS LOVE 2PCE0000001000+00004385+00000+0001T   00004385+0000001725          1400 LH6515               2AZ
206914002206914112-116038     206914006009681820246TCS CARRIER BAG MIDI   0000001000+00000035+00000+0001T   00000035+0000001725          1400 LH6090               2AZ
206914003206914077-000310     206914006001023608635GIFT-BAG 18X23CM GLOSS 0000001000+00001314+00000+0001T   00001314+0000001725          1400 LH6112               2AZ
206915000206915               206915               170213TE     1400+00000+TE0000003069+0000003069+000000000+000000430+0000003490+0000000009+I20000000000+0000003490+Z
206915001206915159-003615     206915006001246045460TOILET-BRUSH W/STAND   0000001000+00003069+00000+0001T   00003069+0000001736          1400 LH6200               2AZ
206916000206916               206916               170213TE     1400+00000+TE0000002982-0000002982-000000000+000000418-0000003400-0000000000+I20000000000+0000003400-Z
206916001206916001-999907     206916000000000999907CLEANING-MATERIALS     0000001000-00002982+00000+0001T   00000000+0000001737          1400 LH69071IC            2 Z
206917000206917               206917               170213TE     1400+00000+TE0000007893+0000007893+000000000+000001106+0000008990+0000000009+I20000000000+0000008990+Z
206917001206917035-000023     206917006001023898944UMBRELLA WITH PL COVER 0000001000+00007893+00000+0001T   00007893+0000001740          1400 LH6205               2AZ
A17021300                                          08562699TESLAVE 2                       LH62IC
A17021301                                          09342348TESLAVE 2                       LH62IC
A17021302                                          09384177TESLAVE 2                       LH62IC
A17021303                                          10092192TESLAVE 2                       LH61IC
M17021391                              CASH        TESLAVE 2                       Z-REPORT No.   514TOTAL (Sales - Refunds)           3967.89       CASH TO BE BANKED                 2759.10       DEBIT CARDS                          0.00       CREDIT CARDS                      1174.79       Z-READING                         3933.89       AIRTIME DEBIT CARD SALES             0.00       AIRTIME CARD SALES                   0.00       OVERS/UNDERS                         0.00       AIRTIME CASH SALES                   0.00       GIFT CARDS                           0.00       GIFT CARD CASH SALES                 0.00       CLEANING-MATERIALS                  34.00       T O T A L  CASH PAYOUTS             34.00                                                                                                                                                                                                                                                                                                      Z
M17021392                              CASH        TEABSENT                                                                                                                                                                                          ANNUAL LEAVE                                                                                                                                                                                    DAY OFF                                                                                                                                                                                         COMMENTS          CLEANING-MATERIALS R34.00                                                                                                                                                                                                                                                                                                                                                    Z
Y17021300                                          TE00000000348295+000057
ZTE17021320233 SLAVE 2      SALES DATA                     NEXT INVOICE NO.  206918 0514
X TE Slave 2 First invoice 206860 170213 Last invoice 206917 170213 Next invoice 206918 Total number of records 000000184 clbackup completed 20:23:59
