300861000300861               300861               170213TE     1400+00000+TE0000026042+0000026042+000000000+000003649+0000029691+           I00000000000+0000000000+Z
300861001300861040-100010     300861006001023681676C/HOLDER VINTAGE ROUND 0000001000+00003507+00000+0001T                                1400 1IC5101ICD             Z
300861002300861077-000304     300861006001023483232GIFT-BAG 25X32CM E/DAY 0000002000+00001490+00000+0001T                                1400 1IC1121ICD             Z
300861003300861261-003342     300861006001023484895GUN RIFLE ACTION-TEAM  0000001000+00004385+00000+0001T                                1400 1IC7101ICD             Z
300861004300861560-000229     300861006003000469468ANIMALS BIG EYES ASSTD 0000001000+00006139+00000+0001T                                1400 1IC7451ICD             Z
300861005300861301-087002     300861006003000425952ORN OCCASION DAD FIG.  0000001000+00001139+00000+0001T                                1400 1IC5051ICD             Z
300861006300861560-000229     300861006003000469468ANIMALS BIG EYES ASSTD 0000001000+00006139+00000+0001T                                1400 1IC7451ICD             Z
300861007300861088-000013     300861006001023797131AIR-FRESH GEL TWIST ASS0000001000+00001753+00000+0001T                                1400 1IC2121ICD             Z
300862000300862               300862               170213TE     1400+00000+TE0000036271+0000036271+000000000+000005087+0000041358+           I90000000000+0000000000+Z
300862001300862903-000495     300862006006920001565SWT MS TOFFEE ORIG 38g 0000001000+00000393+00000+0001T072629280000                    1400 1IC1501ICV             Z
300862002300862903-000495     300862006006920001565SWT MS TOFFEE ORIG 38g 0000001000+00000393+00000+0001T072629280000                    1400 1IC1501ICV             Z
300862003300862903-000495     300862006006920001565SWT MS TOFFEE ORIG 38g 0000001000+00000393+00000+0001T072629280000                    1400 1IC1501ICV             Z
300862004300862903-000495     300862006006920001565SWT MS TOFFEE ORIG 38g 0000001000+00000393+00000+0001T072629280000                    1400 1IC1501ICV             Z
300862005300862903-000499     300862006001704012492SWT CHOC MALLOWS 50g   0000001000+00001227+00000+0001T072629280000                    1400 1IC1501ICV             Z
300862006300862903-000498     300862006001704013048SWT CHOC MIGHTY MALTS  0000001000+00001227+00000+0001T072629280000                    1400 1IC1501ICV             Z
300862007300862903-000498     300862006001704013048SWT CHOC MIGHTY MALTS  0000001000+00001227+00000+0001T072629280000                    1400 1IC1501ICV             Z
300862008300862903-000498     300862006001704013048SWT CHOC MIGHTY MALTS  0000001000+00001227+00000+0001T072629280000                    1400 1IC1501ICV             Z
300862009300862903-000499     300862006001704012492SWT CHOC MALLOWS 50g   0000001000+00001227+00000+0001T072629280000                    1400 1IC1501ICV             Z
300862010300862903-000498     300862006001704013048SWT CHOC MIGHTY MALTS  0000001000+00001227+00000+0001T072629280000                    1400 1IC1501ICV             Z
300862011300862903-004951     300862006002580020328SWT MALLOW MINI M/SHAKE0000001000+00001227+00000+0001T072629280000                    1400 1IC1501ICV             Z
300862012300862903-005000     300862006002580020007SWT CT MALLOW FISH 120g0000001000+00001314+00000+0001T072629280000                    1400 1IC1501ICV             Z
300862013300862903-005000     300862006002580020007SWT CT MALLOW FISH 120g0000001000+00001314+00000+0001T072629280000                    1400 1IC1501ICV             Z
300862014300862903-005000     300862006002580020007SWT CT MALLOW FISH 120g0000001000+00001314+00000+0001T072629280000                    1400 1IC1501ICV             Z
300862015300862903-005000     300862006002580020007SWT CT MALLOW FISH 120g0000001000+00001314+00000+0001T072629280000                    1400 1IC1501ICV             Z
300862016300862903-005000     300862006002580020007SWT CT MALLOW FISH 120g0000001000+00001314+00000+0001T072629280000                    1400 1IC1501ICV             Z
300862017300862903-005000     300862006002580020007SWT CT MALLOW FISH 120g0000001000+00001314+00000+0001T072629280000                    1400 1IC1501ICV             Z
300862018300862903-000498     300862006001704013048SWT CHOC MIGHTY MALTS  0000001000+00001227+00000+0001T072629280000                    1400 1IC1501ICV             Z
300862019300862903-000498     300862006001704013048SWT CHOC MIGHTY MALTS  0000001000+00001227+00000+0001T072629280000                    1400 1IC1501ICV             Z
300862020300862903-000504     300862006001704012416SWT CHOC JELLY BEANS   0000001000+00001227+00000+0001T072629280000                    1400 1IC1501ICV             Z
300862021300862034-078805     300862006001023994097BABY W/WIPES 55PCE LACE0000001000+00002455+00000+0001T072629280000                    1400 1IC2151ICV             Z
300862022300862903-000499     300862006001704012492SWT CHOC MALLOWS 50g   0000001000+00001227+00000+0001T072629280000                    1400 1IC1501ICV             Z
300862023300862903-004951     300862006002580020328SWT MALLOW MINI M/SHAKE0000001000+00001227+00000+0001T072629280000                    1400 1IC1501ICV             Z
300862024300862903-005000     300862006002580020007SWT CT MALLOW FISH 120g0000001000+00001314+00000+0001T072629280000                    1400 1IC1501ICV             Z
300862025300862903-005002     300862006002580020021SWT MALLOW SNAKE 120g  0000001000+00001314+00000+0001T072629280000                    1400 1IC1501ICV             Z
300862026300862903-005000     300862006002580020007SWT CT MALLOW FISH 120g0000001000+00001314+00000+0001T072629280000                    1400 1IC1501ICV             Z
300862027300862903-000216     300862006925925900966SWT MALLOW TWIST ERKO  0000001000+00000262+00000+0001T072629280000                    1400 1IC1501ICV             Z
300862028300862903-001020     300862000079200115241SWT AV PIXY STIX 6.5g  0000001000+00000613+00000+0001T072629280000                    1400 1IC1501ICV             Z
300862029300862903-000499     300862006001704012492SWT CHOC MALLOWS 50g   0000001000+00001227+00000+0001T072629280000                    1400 1IC1501ICV             Z
300862030300862903-005007     300862006002580020311SWT MALLOW BEAR M/SHAKE0000001000+00001314+00000+0001T072629280000                    1400 1IC1501ICV             Z
300862031300862903-000087     300862006001704000161SWT SPECKLED-EGGS 50G  0000001000+00001139+00000+0001T072629280000                    1400 1IC1501ICV             Z
300862032300862903-000087     300862006001704000161SWT SPECKLED-EGGS 50G  0000001000+00001139+00000+0001T072629280000                    1400 1IC1501ICV             Z
M17021391                              CASH        TESLAVE 3                       Z-REPORT No.   419TOTAL (Sales - Refunds)              0.00       CASH TO BE BANKED                    0.00       DEBIT CARDS                          0.00       CREDIT CARDS                         0.00       Z-READING                            0.00       AIRTIME DEBIT CARD SALES             0.00       AIRTIME CARD SALES                   0.00       OVERS/UNDERS                         0.00       AIRTIME CASH SALES                   0.00       GIFT CARDS                           0.00       GIFT CARD CASH SALES                 0.00       T O T A L  CASH PAYOUTS              0.00                                                                                                                                                                                                                                                                                                                                                      Z
M17021392                              CASH        TEABSENT                                                                                                                                                                                          ANNUAL LEAVE                                                                                                                                                                                    DAY OFF                                                                                                                                                                                         COMMENTS                                                                                                                                                                                                                                                                                                                                                                                       Z
Y17021300                                          TE00000000000000+000000
ZTE17021320243 SLAVE 3      SALES DATA                     NEXT INVOICE NO.  300863 0419
X TE Slave 3 First invoice 300861 170213 Last invoice 300862 170213 Next invoice 300863 Total number of records 000000045 clbackup completed 20:24:01
