203722000203722               203722               170213TF     1400+00000+TF0000010028+0000010028+000000000+000001406+0000011430+0000000004+I20000000000+0000011430+Z
203722001203722266-001310     203722006003000616848BOYS PLAYSET MARBLES   0000002000+00001578+00000+0001T   00001578+0000001253          1400 LP6710               2AZ
203722002203722266-001304     203722006001023560711MARBLES MILKY BAG OF 450000001000+00001227+00000+0001T   00001227+0000001253          1400 LP6710               2AZ
203722003203722266-001302     203722006001023331892MARBLES 16MM 45PC      0000001000+00001227+00000+0001T   00001227+0000001253          1400 LP6710               2AZ
203722004203722071-001102     203722006003000274598MARKER PERM MED 2PCE   0000001000+00001753+00000+0001T   00001753+0000001253          1400 LP6130               2AZ
203722005203722071-001362     203722006003000589258HIGHLIGHTER 4 PACK     0000001000+00002630+00000+0001T   00002630+0000001253          1400 LP6130               2AZ
203722006203722112-116038     203722006009681820246TCS CARRIER BAG MIDI   0000001000+00000035+00000+0001T   00000035+0000001253          1400 LP6090               2AZ
203723000203723               203723               170213TF     1400+00000+TF0000003507+0000003507+000000000+000000491+0000003990+0000000008+I20000000000+0000003990+Z
203723001203723018-005009     203723006001023725608MUG W/PLUSH-BEAR LOVE  0000001000+00003507+00000+0001T   00003507+0000001304          1400 LP6515               2AZ
203724000203724               203724               170213TF     1400+00000+TF0000012674+0000012674+000000000+000001776+0000014450+0000000000+I20000000000+0000014450+Z
203724001203724033-000780     203724006001023752611COSMETIC-BRUSH-SET 7PCE0000001000+00002192+00000+0001T   00002192+0000001305          1400 LP6200               2AZ
203724002203724073-000530     203724006003000629640COSMETIC BAG PVC       0000001000+00007893+00000+0001T   00007893+0000001305          1400 LP6200               2AZ
203724003203724903-000519     203724006001704012805SWT MS LIQ-O-GHETTI    0000001000+00001227+00000+0001T   00001227+0000001305          1400 LP6150               2AZ
203724004203724903-000844     203724005010478432567SWT CANDY DL LUV HEARTS0000001000+00001314+00000+0001T   00001314+0000001305          1400 LP6150               2AZ
203724005203724112-116069     203724006009681820277TCS CARRIER BAG JUMBO  0000001000+00000048+00000+0001T   00000048+0000001305          1400 LP6090               2AZ
203725000203725               203725               170213TF     1400+00000+TF0000000876+0000000876+000000000+000000123+0000000990+0000000009+I20000000000+0000000990+Z
203725001203725077-000408     203725006003000145218G/BAG PP 15X21X7CM     0000001000+00000876+00000+0001T   00000876+0000001306          1400 LP6112               2AZ
203726000203726               203726               170213TF     1400+00000+TF0000000700+0000000700+000000000+000000098+0000000790+0000000008+I20000000000+0000000790+Z
203726001203726903-000071     203726006001704001120SWT TOFFEE LIQURICE 35g0000001000+00000700+00000+0001T   00000700+0000001315          1400 LP6150               2AZ
203727000203727               203727               170213TF     1400+00000+TF0000003500-0000003500-000000000+000000490-0000003990-0000000000+I20000000000+0000003990-Z
203727001203727001-999906     203727000000000999906STATIONERY(PHOTOCOPIES)0000001000-00003500+00000+0001T   00000000+0000001317          1400 LP69061IC            2 Z
203728000203728               203728               170213TF     1400+00000+TF0000004385+0000004385+000000000+000000614+0000004990+0000000009+I20000000000+0000004990+Z
203728001203728006-000190     203728006003000685530BALLOONS LOVE 81x91cm  0000001000+00004385+00000+0001T   00004385+0000001321          1400 LP6131               2AZ
203729000203729               203729               170213TF     1400+00000+TF0000009600+0000009600+000000000+000001347+0000010940+0000000007+I20000000000+0000010940+Z
203729001203729112-116069     203729006009681820277TCS CARRIER BAG JUMBO  0000001000+00000048+00000+0001T   00000048+0000001325          1400 LP6090               2AZ
203729002203729024-091103-B   203729006003000422548CAKE BOX 6PC CUPCAKES  0000001000+00002630+00000+0001T   00002630+0000001325          1400 LP6300               2AZ
203729003203729024-091103-E   203729006003000596300CAKE BOX 2PC SQUARE    0000001000+00001753+00000+0001T   00001753+0000001325          1400 LP6300               2AZ
203729004203729077-000310     203729006001023608635GIFT-BAG 18X23CM GLOSS 0000002000+00001314+00000+0001T   00001314+0000001325          1400 LP6112               2AZ
203729005203729077-000010-U   203729006001023168863CREPE-PAPER CERISE-PINK0000001000+00000788+00000+0001T   00000788+0000001325          1400 LP6112               2AZ
203729006203729077-000011-X   203729006001023809827TISSUE-WRAP SILVER 10PC0000001000+00001753+00000+0001T   00001753+0000001325          1400 LP6112               2AZ
203730000203730               203730               170213TF     1400+00000+TF0000005173+0000005173+000000000+000000725+0000005890+0000000008+I20000000000+0000005890+Z
203730001203730903-000510     203730006001704012621SWEET MS ZBDZ S/BERRY  0000001000+00001227+00000+0001T   00001227+0000001326          1400 LP6150               2AZ
203730002203730368-000152     203730006003000166886PLUSH BEAR 15cm        0000001000+00003946+00000+0001T   00005262+0008141326          1400 LP6745               2AZ
203731000203731               203731               170213TF     1400+00000+TF0000001626+0000001626+000000000+000000228+0000001850+0000000004+I20000000000+0000001850+Z
203731001203731018-000127     203731006001023380289MUG OCC STRAIGHT LOVE  0000001000+00001578+00000+0001T   00001753+0006471450          1400 LP6515               2AZ
203731002203731112-116069     203731006009681820277TCS CARRIER BAG JUMBO  0000001000+00000048+00000+0001T   00000048+0000001450          1400 LP6090               2AZ
203732000203732               203732               170213TF     1400+00000+TF0000010525+0000010525+000000000+000001474+0000011990+0000000009+I20000000000+0000011990+Z
203732001203732368-000005     203732006003000616862PLUSH MONSTER 24cm     0000001000+00010525+00000+0001T   00010525+0000001500          1400 LP6745               2AZ
203733000203733               203733               170213TF     1400+00000+TF0000002629+0000002629+000000000+000000369+0000002990+0000000008+I20000000000+0000002990+Z
203733001203733006-000223     203733006001023891327PARTY EYE-MASK 6PCE    0000001000+00000876+00000+0001T   00000876+0000001501          1400 LP6131               2AZ
203733002203733306-000007     203733006001023905093DENTAL FLOSS METHOL    0000001000+00001753+00000+0001T   00001753+0000001501          1400 LP6200               2AZ
203734000203734               203734               170213TF     1400+00000+TF0000013201+0000013201+000000000+000001849+0000015050+0000000000+I40000015050+0000000000+Z
203734001203734016-002709     203734006001023655257S/BOTTLE GLS W/LID 31CM0000001000+00003069+00000+0001T   00003069+0000001643          1400 LP6300               2AZ
203734002203734046-000012     203734006904708013062BATTERIES AA  CARD-OF-40000001000+00001314+00000+0001T   00001314+0000001643          1400 LP6312               2AZ
203734003203734009-001312     203734006001023854728MELAMINE FLOWER TRAY RE0000002000+00004385+00000+0001T   00004385+0000001643          1400 LP6210               2AZ
203734004203734112-116069     203734006009681820277TCS CARRIER BAG JUMBO  0000001000+00000048+00000+0001T   00000048+0000001643          1400 LP6090               2AZ
203735000203735               203735               170213TF     1400+00000+TF0000003946+0000003946+000000000+000000553+0000004499+0000000000+I40000004499+0000000000+Z
203735001203735368-000152     203735006003000166886PLUSH BEAR 15cm        0000001000+00003946+00000+0001T   00005262+0008141645          1400 LP6745               2AZ
203736000203736               203736               170213TF     1400+00000+TF0000013110+0000013110+000000000+000001836+0000014946+0000000000+I40000014946+0000000000+Z
203736001203736903-000121     203736006002099001689SWT GS ZILLIONS SOURS  0000002000+00000700+00000+0001T   00000700+0000001719          1400 LP6150               2AZ
203736002203736369-001018     203736006001023712141BATH EVA STICKERS 30PC 0000001000+00004385+00000+0001T   00004385+0000001719          1400 LP6745               2AZ
203736003203736065-006040     203736006003000118984BELL WDN HANDLE 19cm   0000001000+00003507+00000+0001T   00003507+0000001719          1400 LP6745               2AZ
203736004203736362-000302     203736006003000095469HAIR CLIP LRG GIRLS    0000001000+00001578+00000+0001T   00001578+0000001719          1400 LP6160               2AZ
203736005203736369-001010     203736006001023864222BATH VINYL DUCK 4PC    0000001000+00002192+00000+0001T   00002192+0000001719          1400 LP6745               2AZ
203736006203736112-116069     203736006009681820277TCS CARRIER BAG JUMBO  0000001000+00000048+00000+0001T   00000048+0000001719          1400 LP6090               2AZ
203737000203737               203737               170213TF     1400+00000+TF0000004383+0000004383+000000000+000000614+0000004990+0000000007+I20000000000+0000004990+Z
203737001203737018-000136     203737006001023659026MUG OCC LOVE W/PLUSH   0000001000+00003507+00000+0001T   00003507+0000001719          1400 LP6515               2AZ
203737002203737077-000302     203737008010410010195GIFT-BAG 18X23CM E/D   0000001000+00000876+00000+0001T   00000876+0000001719          1400 LP6112               2AZ
203738000203738               203738               170213TF     1400+00000+TF0000002192+0000002192+000000000+000000307+0000002490+0000000009+I20000000000+0000002490+Z
203738001203738041-007001-B   203738006003000636983H/GLOW LIQUID LAVENDER 0000001000+00002192+00000+0001T   00002192+0000001720          1400 LP6200               2AZ
203739000203739               203739               170213TF     1400+00000+TF0000003507+0000003507+000000000+000000491+0000003990+0000000008+I20000000000+0000003990+Z
203739001203739083-000305     203739006440024423302CIG-LIGHTER-GAS   300ml0000001000+00003507+00000+0001T   00003507+0000001723          1400 LP6315               2AZ
203740000203740               203740               170213TF     1400+00000+TF0000004821+0000004821+000000000+000000675+0000005490+0000000006+I20000000000+0000005490+Z
203740001203740018-000136     203740006001023659026MUG OCC LOVE W/PLUSH   0000001000+00003507+00000+0001T   00003507+0000001744          1400 LP6515               2AZ
203740002203740903-000194     203740006009826020616SWT CHOC RP LOLLY 25G  0000001000+00001314+00000+0001T   00001314+0000001744          1400 LP6150               2AZ
203741000203741               203741               170213TF     1400+00000+TF0000011572+0000011572+000000000+000001624+0000013196+0000000000+I40000013196+0000000000+Z
203741001203741036-000151     203741006001023810588COATHANGERS    PACK-10 0000004000+00002893+00000+0001T   00002893+0000001749          1400 LP6212               2AZ
203742000203742               203742               170213TF     1400+00000+TF0000004782+0000004782+000000000+000000670+0000005450+0000000002+I20000000000+0000005450+Z
203742001203742018-000136     203742006001023659026MUG OCC LOVE W/PLUSH   0000001000+00003507+00000+0001T   00003507+0000001751          1400 LP6515               2AZ
203742002203742077-000322     203742006001023677532GIFT-BAG 18X23CM E/D FL0000001000+00001227+00000+0001T   00001227+0000001751          1400 LP6112               2AZ
203742003203742112-116069     203742006009681820277TCS CARRIER BAG JUMBO  0000001000+00000048+00000+0001T   00000048+0000001751          1400 LP6090               2AZ
203743000203743               203743               170213TF     1400+00000+TF0000003279+0000003279+000000000+000000463+0000003740+0000000002+I20000000000+0000003740+Z
203743001203743006-000124     203743006003000625888BALLOONS 10PC MIX COL  0000001000+00001753+00000+0001T   00001753+0000001757          1400 LP6131               2AZ
203743002203743006-000171-H   203743006003000609574BALLOONS 1PC RED PRINT 0000003000+00000218+00000+0001T   00000218+0000001757          1400 LP6131               2AZ
203743003203743006-000170-F   203743006003000608669BALLOONS 1PC WHITE     0000004000+00000218+00000+0001T   00000218+0000001757          1400 LP6131               2AZ
203744000203744               203744               170213TF     1400+00000+TF0000029866+0000029866+000000000+000004183+0000034049+0000000000+I40000034049+0000000000+Z
203744001203744077-000309     203744006001023608604GIFT-BAG 25X32CM GLOSS 0000001000+00001753+00000+0001T   00001753+0000001759          1400 LP6112               2AZ
203744002203744018-019000     203744006003000557288MUG OCC. LOVE JUMBO    0000001000+00005262+00000+0001T   00005262+0000001759          1400 LP6515               2AZ
203744003203744018-000136     203744006001023659026MUG OCC LOVE W/PLUSH   0000001000+00003507+00000+0001T   00003507+0000001759          1400 LP6515               2AZ
203744004203744467-000028     203744006003000397990BEACH-SET TRUCK 7PCE   0000001000+00010525+00000+0001T   00010525+0000001759          1400 LP6785               2AZ
203744005203744361-003216     203744006003000246267DOLL 29CM PRINCESS     0000001000+00008771+00000+0001T   00008771+0000001759          1400 LP6725               2AZ
203744006203744112-116069     203744006009681820277TCS CARRIER BAG JUMBO  0000001000+00000048+00000+0001T   00000048+0000001759          1400 LP6090               2AZ
203745000203745               203745               170213TF     1400+00000+TF0000010217+0000010217+000000000+000001432+0000011640+0000000009+I20000000000+0000011640+Z
203745001203745159-080358     203745006001023742315SHOWER /DRAIN FILTER   0000001000+00002630+00000+0001T   00002630+0000001801          1400 LP6200               2AZ
203745002203745002-000879     203745006001023770004STRAINER TEA 7cm H/H   0000001000+00000350+00000+0001T   00000350+0000001801          1400 LP6300               2AZ
203745003203745019-071606     203745006003000678891PEBBLES 500G 3MM WHITE.0000001000+00001490+00000+0001T   00001490+0000001801          1400 LP6510               2AZ
203745004203745566-000323     203745006003000535958STICKER ROOM DEC TOWER 0000001000+00004385+00000+0001T   00004385+0000001801          1400 LP6130               2AZ
203745005203745903-000194     203745006009826020616SWT CHOC RP LOLLY 25G  0000001000+00001314+00000+0001T   00001314+0000001801          1400 LP6150               2AZ
203745006203745112-116069     203745006009681820277TCS CARRIER BAG JUMBO  0000001000+00000048+00000+0001T   00000048+0000001801          1400 LP6090               2AZ
203746000203746               203746               170213TF     1400+00000+TF0000002184-0000002184-000000000+000000306-0000002490-0000000000+I20000000000+0000002490-Z
203746001203746001-999906     203746000000000999906STATIONERY(PHOTOCOPIES)0000001000-00002184+00000+0001T   00000000+0000001802          1400 LP69061IC            2 Z
M17021391                              CASH        TFSLAVE 2                       Z-REPORT No.   273TOTAL (Sales - Refunds)           1898.30       CASH TO BE BANKED                 1016.10       DEBIT CARDS                          0.00       CREDIT CARDS                       817.40       Z-READING                         1833.50       AIRTIME DEBIT CARD SALES             0.00       AIRTIME CARD SALES                   0.00       OVERS/UNDERS                         0.00       AIRTIME CASH SALES                   0.00       GIFT CARDS                           0.00       GIFT CARD CASH SALES                 0.00       STATIONERY(PHOTOCOPIES)             64.80       T O T A L  CASH PAYOUTS             64.80                                                                                                                                                                                                                                                                                                      Z
M17021392                              CASH        TFABSENT                                                                                                                                                                                          ANNUAL LEAVE                                                                                                                                                                                    DAY OFF                                                                                                                                                                                         COMMENTS                                                                                                                                                                                                                                                                                                                                                                                       Z
Y17021300                                          TF00002300166599+000023
ZTF17021320243 SLAVE 2      SALES DATA                     NEXT INVOICE NO.  203747 0273
T079171200-000035                                          1608241538270000002ICSLAVE 2
X TF Slave 2 First invoice 203722 170213 Last invoice 203746 170213 Next invoice 203747 Total number of records 000000096 clbackup completed 20:24:11
