128639000128639               128639               170213TG     1400+00000+TG0000006172+0000006172+000000000+000000865+0000007037+0000000000+I40000007037+0000000000+Z
128639001128639159-080358     128639006001023742315SHOWER /DRAIN FILTER   0000001000+00002630+00000+0001T   00002630+0000000910          1400 EE7200               2AZ
128639002128639263-000154     128639006001023790385VEHICLE CAR DUNE 3PC   0000001000+00003507+00000+0001T   00003507+0000000910          1400 EE7710               2AZ
128639003128639112-116038     128639006009681820246TCS CARRIER BAG MIDI   0000001000+00000035+00000+0001T   00000035+0000000910          1400 EE7090               2AZ
128640000128640               128640               170213TG     1400+00000+TG0000001490+0000001490+000000000+000000209+0000001699+0000000000+I40000001699+0000000000+Z
128640001128640077-000452     128640006003000284986G/BAG METALLIC MED EMB 0000001000+00001490+00000+0001T   00001490+0000000945          1400 EE7112               2AZ
128641000128641               128641               170213TG     1400+00000+TG0000017542+0000017542+000000000+000002456+0000019998+0000000000+I40000019998+0000000000+Z
128641001128641072-020237     128641006003000623402PET BED COTTON TEXTILE 0000001000+00017542+00000+0001T   00017542+0000001115          1400 EE7870               2AZ
128642000128642               128642               170213TG     1400+00000+TG0000014661+0000014661+000000000+000002053+0000016714+0000000000+I40000016714+0000000000+Z
128642001128642903-000194     128642006009826020616SWT CHOC RP LOLLY 25G  0000009000+00001314+00000+0001T   00001314+0000001129          1400 EE7150               2AZ
128642002128642018-000177     128642006001023797513MUG MINI LOVE ASSTD    0000004000+00000700+00000+0001T   00000700+0000001129          1400 EE7515               2AZ
128642003128642112-116038     128642006009681820246TCS CARRIER BAG MIDI   0000001000+00000035+00000+0001T   00000035+0000001129          1400 EE7090               2AZ
128643000128643               128643               170213TG     1400+00000+TG0000008770+0000008770+000000000+000001228+0000009990+0000000008+I20000000000+0000009990+Z
128643001128643082-000110     128643006003000360482READING GLS STRENGHT:2 0000002000+00004385+00000+0001T   00004385+0000001155          1400 EE7160               2AZ
128644000128644               128644               170213TG     1400+00000+TG0000025478+0000025478+000000000+000003570+0000029048+0000000000+I40000029048+0000000000+Z
128644001128644304-001169     128644006003000523894FLOWER FLOATING 28CM   0000003000+00005262+00000+0001T   00005262+0000001249          1400 EE7510               2AZ
128644002128644903-000012     128644006002099007308SWT MALLOW S/BERRY     0000002000+00000437+00000+0001T   00000437+0000001249          1400 EE7150               2AZ
128644003128644039-000796     128644006001023617750CANDLES TEALITE BOX-8  0000002000+00004385+00000+0001T   00004385+0000001249          1400 EE7510               2AZ
128644004128644112-116069     128644006009681820277TCS CARRIER BAG JUMBO  0000001000+00000048+00000+0001T   00000048+0000001249          1400 EE7090               2AZ
128645000128645               128645               170213TG     1400+00000+TG0000001753+0000001753+000000000+000000246+0000001999+0000000000+I40000001999+0000000000+Z
128645001128645018-000108     128645006001023380265MUG NOVELTY ICON ASST  0000001000+00001753+00000+0001T   00001753+0000001441          1400 EE7515               2AZ
128646000128646               128646               170213TG     1400+00000+TG0000008805+0000008805+000000000+000001233+0000010038+0000000000+I40000010038+0000000000+Z
128646001128646088-000107     128646006001023555823DIFFUSER SET FLOWER    0000002000+00004385+00000+0001T   00004385+0000001507          1400 EE7212               2AZ
128646002128646112-116038     128646006009681820246TCS CARRIER BAG MIDI   0000001000+00000035+00000+0001T   00000035+0000001507          1400 EE7090               2AZ
128647000128647               128647               170213TG     1400+00000+TG0000002628+0000002628+000000000+000000369+0000002990+0000000007+I20000000000+0000002990+Z
128647001128647077-000151     128647006008766114676GIFT-WRAP C/PHANE ASSTD0000003000+00000876+00000+0001T   00000876+0000001509          1400 EE7112               2AZ
128648000128648               128648               170213TG     1400+00000+TG0000002616+0000002616+000000000+000000372+0000002980+0000000008+I20000000000+0000002980+Z
128648001128648006-000172-H   128648006003000610211BALLOONS METALLIC RED  0000011000+00000218+00000+0001T   00000218+0000001513          1400 EE7131               2AZ
128648002128648006-000170-F   128648006003000608669BALLOONS 1PC WHITE     0000001000+00000218+00000+0001T   00000218+0000001513          1400 EE7131               2AZ
128649000128649               128649               170213TG     1400+00000+TG0000000876+0000000876+000000000+000000123+0000000990+0000000009+I20000000000+0000000990+Z
128649001128649078-000025     128649008887013700064SUPERGLUE 3g 1PCE CARD 0000001000+00000876+00000+0001T   00000876+0000001514          1400 EE7810               2AZ
128650000128650               128650               170213TG     1400+00000+TG0000000350+0000000350+000000000+000000049+0000000390+0000000009+I20000000000+0000000390+Z
128650001128650903-000159     128650006003000417629SWT LB SMALL DUMMIE    0000001000+00000350+00000+0001T   00000350+0000001515          1400 EE7150               2AZ
128651000128651               128651               170213TG     1400+00000+TG0000001179+0000001179+000000000+000000168+0000001340+0000000007+I20000000000+0000001340+Z
128651001128651903-000183     128651006003000451043SWT LB HEART LOLLY     0000003000+00000393+00000+0001T   00000393+0000001519          1400 EE7150               2AZ
128652000128652               128652               170213TG     1400+00000+TG0000001753+0000001753+000000000+000000246+0000001999+0000000000+I40000001999+0000000000+Z
128652001128652077-000472     128652006003000330133G-BAG DESGNR LRG 25X32 0000001000+00001753+00000+0001T   00001753+0000001521          1400 EE7112               2AZ
128653000128653               128653               170213TG     1400+00000+TG0000001313+0000001313+000000000+000000184+0000001490+0000000007+I20000000000+0000001490+Z
128653001128653304-001011     128653006001023806727FLWR ROSE RED W/BEAR   0000001000+00000613+00000+0001T   00000788+0006471522          1400 EE7510               2AZ
128653002128653018-000177     128653006001023797513MUG MINI LOVE ASSTD    0000001000+00000700+00000+0001T   00000700+0000001522          1400 EE7515               2AZ
128654000128654               128654               170213TG     1400+00000+TG0000000035+0000000035+000000000+000000005+0000000040+0000000000+I20000000000+0000000040+Z
128654001128654112-116038     128654006009681820246TCS CARRIER BAG MIDI   0000001000+00000035+00000+0001T   00000035+0000001523          1400 EE7090               2AZ
128655000128655               128655               170213TG     1400+00000+TG0000005259+0000005259+000000000+000000738+0000005990+0000000007+I20000000000+0000005990+Z
128655001128655039-000114     128655006001023524058CANDLE T/LITE RED 3.5CM0000001000+00001753+00000+0001T   00001753+0000001537          1400 EE7510               2AZ
128655002128655089-000004     128655006003000137749KEY CHAIN MTL CHARMS   0000002000+00001753+00000+0001T   00001753+0000001537          1400 EE7205               2AZ
128656000128656               128656               170213TG     1400+00000+TG0000001490+0000001490+000000000+000000209+0000001690+0000000009+I20000000000+0000001690+Z
128656001128656006-000204-C   128656006003000488537PARTY GIRLZ HATS 6PCE  0000001000+00001490+00000+0001T   00001490+0000001543          1400 EE7131               2AZ
128657000128657               128657               170213TG     1400+00000+TG0000007804+0000007804+000000000+000001094+0000008898+0000000000+I40000008898+0000000000+Z
128657001128657263-000160     128657006001023690975MOTORBIKE FRIC QUAD    0000001000+00007016+00000+0001T   00007016+0000001545          1400 EE7710               2AZ
128657002128657903-000138     128657006002099004314SWT GS WINE GUMS 60G   0000001000+00000788+00000+0001T   00000788+0000001545          1400 EE7150               2AZ
128658000128658               128658               170213TG     1400+00000+TG0000008010+0000008010+000000000+000001123+0000009133+0000000000+I40000009133+0000000000+Z
128658001128658903-000087     128658006001704000161SWT SPECKLED-EGGS 50G  0000002000+00001139+00000+0001T   00001139+0000001548          1400 EE7150               2AZ
128658002128658018-000136     128658006001023659026MUG OCC LOVE W/PLUSH   0000001000+00003507+00000+0001T   00003507+0000001548          1400 EE7515               2AZ
128658003128658018-000177     128658006001023797513MUG MINI LOVE ASSTD    0000001000+00000700+00000+0001T   00000700+0000001548          1400 EE7515               2AZ
128658004128658077-000452     128658006003000284986G/BAG METALLIC MED EMB 0000001000+00001490+00000+0001T   00001490+0000001548          1400 EE7112               2AZ
128658005128658112-116038     128658006009681820246TCS CARRIER BAG MIDI   0000001000+00000035+00000+0001T   00000035+0000001548          1400 EE7090               2AZ
A17021300                                          11422521TGSLAVE 2                       EE71IC
M17021391                              CASH        TGSLAVE 2                       Z-REPORT No.   586TOTAL (Sales - Refunds)           1344.53       CASH TO BE BANKED                  278.90       DEBIT CARDS                          0.00       CREDIT CARDS                      1065.63       Z-READING                         1344.53       AIRTIME DEBIT CARD SALES             0.00       AIRTIME CARD SALES                   0.00       OVERS/UNDERS                         0.00       AIRTIME CASH SALES                   0.00       GIFT CARDS                           0.00       GIFT CARD CASH SALES                 0.00       T O T A L  CASH PAYOUTS              0.00                                                                                                                                                                                                                                                                                                                                                      Z
M17021392                              CASH        TGABSENT                                                                                                                                                                                          ANNUAL LEAVE                                                                                                                                                                                    DAY OFF                                                                                                                                                                                         COMMENTS                                                                                                                                                                                                                                                                                                                                                                                       Z
Y17021300                                          TG00002000117984+000020
ZTG17021320243 SLAVE 2      SALES DATA                     NEXT INVOICE NO.  128659 0586
X TG Slave 2 First invoice 128639 170213 Last invoice 128658 170213 Next invoice 128659 Total number of records 000000061 clbackup completed 20:24:34
