201908000201908               201908               170213TH     1400+00000+TH0000005699+0000005699+000000000+000000799+0000006490+0000000008+I20000000000+0000006490+Z
201908001201908105-001063     201908006003000629367CONTAINER CLIP LOCK    0000001000+00002630+00000+0001T   00003507+0008160857          1400 SG3210               2AZ
201908002201908024-007001     201908006002580007688CAKE/BISCUIT-SERVER    0000001000+00003069+00000+0001T   00003069+0000000857          1400 SG3300               2AZ
201909000201909               201909               170213TH     1400+00000+TH0000010131+0000010131+000000000+000001419+0000011550+0000000000+I20000000000+0000011550+Z
201909001201909018-000136     201909006001023659026MUG OCC LOVE W/PLUSH   0000002000+00003507+00000+0001T   00003507+0000000934          1400 SG3515               2AZ
201909002201909033-000640     201909006001023681140HAIR BRUSH & COMB SET  0000001000+00003069+00000+0001T   00003069+0000000934          1400 SG3200               2AZ
201909003201909112-116069     201909006009681820277TCS CARRIER BAG JUMBO  0000001000+00000048+00000+0001T   00000048+0000000934          1400 SG3090               2AZ
201910000201910               201910               170213TH     1400+00000+TH0000004385+0000004385+000000000+000000614+0000004990+0000000009+I20000000000+0000004990+Z
201910001201910082-000110     201910006003000360482READING GLS STRENGHT:2 0000001000+00004385+00000+0001T   00004385+0000000936          1400 SG3160               2AZ
201911000201911               201911               170213TH     1400+00000+TH0000002892+0000002892+000000000+000000405+0000003290+0000000007+I20000000000+0000003290+Z
201911001201911071-000196     201911006003000379392PEN MULTI-COLOUR 2PK   0000001000+00002192+00000+0001T   00002192+0000000947          1400 SG3130               2AZ
201911002201911903-000121     201911006002099001689SWT GS ZILLIONS SOURS  0000001000+00000700+00000+0001T   00000700+0000000947          1400 SG3150               2AZ
201912000201912               201912               170213TH     1400+00000+TH0000004964-0000004964-000000000+000000695-0000005660-0000000001+I20000000000+0000005660-Z
201912001201912001-999910     201912000000000999910POSTAGE                0000001000-00004964+00000+0001T   00000000+0000001017          1400 SG39101IC            2 Z
201913000201913               201913               170213TH     1400+00000+TH0000002191+0000002191+000000000+000000307+0000002490+0000000008+I20000000000+0000002490+Z
201913001201913077-000303     201913006001023593757GIFT-BAG PAPER MED     0000001000+00001578+00000+0001T   00001578+0000001058          1400 SG3112               2AZ
201913002201913304-001011     201913006001023806727FLWR ROSE RED W/BEAR   0000001000+00000613+00000+0001T   00000788+0006471058          1400 SG3510               2AZ
201914000201914               201914               170213TH     1400+00000+TH0000002630+0000002630+000000000+000000369+0000002990+0000000009+I20000000000+0000002990+Z
201914001201914077-000115-B   201914006003000181025GIFT-WRAP PPR 700MMX2M 0000001000+00002630+00000+0001T   00002630+0000001104          1400 SG3112               2AZ
201915000201915               201915               170213TH     1400+00000+TH0000034613+0000034613+000000000+000004852+0000039460+0000000005+I20000000000+0000039460+Z
201915001201915464-009010     201915006001023800756FISHING-GAME MAG +ROD  0000001000+00003507+00000+0001T   00003507+0000001133          1400 SG3785               2AZ
201915002201915306-000010     201915006001023752635T/BRUSH KIDDIES SET-5  0000001000+00002630+00000+0001T   00002630+0000001133          1400 SG3200               2AZ
201915003201915306-000008     201915006001023991553TOOTH BRUSH ADULT W/CAP0000001000+00002630+00000+0001T   00002630+0000001133          1400 SG3200               2AZ
201915004201915104-000131     201915006003000676996BASKET/ORGANISER ROUND 0000001000+00002630+00000+0001T   00002630+0000001133          1400 SG3210               2AZ
201915005201915306-000993     201915006003000560110FIRSTAID PLASTER 75PC  0000001000+00002630+00000+0001T   00002630+0000001133          1400 SG3200               2AZ
201915006201915002-021060     201915006001023359438TOOTHPICKS 50PC WRAP   0000001000+00001227+00000+0001T   00001227+0000001133          1400 SG3300               2AZ
201915007201915306-000020-A   201915006001023873583TISSUES 100PCE 19x18cm 0000002000+00001753+00000+0001T   00001753+0000001133          1400 SG3200               2AZ
201915008201915306-001720     201915006003000276257HAND SANITIZER WIPES   0000002000+00001753+00000+0001T   00001753+0000001133          1400 SG3200               2AZ
201915009201915306-000030     201915006003000567416C/WOOL COS. SET PP CASE0000001000+00003507+00000+0001T   00003507+0000001133          1400 SG3200               2AZ
201915010201915103-000070     201915006003000630608BAMBOO BASKET 39x25x8cm0000001000+00008771+00000+0001T   00008771+0000001133          1400 SG3300               2AZ
201915011201915112-116053     201915006006438002399TCS CARRIER BAG 38L    0000001000+00000069+00000+0001T   00000069+0000001133          1400 SG3090               2AZ
201916000201916               201916               170213TH     1400+00000+TH0000023236+0000023236+000000000+000003257+0000026493+0000000000+I40000026493+0000000000+Z
201916001201916077-000011-D   201916006001023808554TISSUE-WRAP WHITE 10PCE0000001000+00000876+00000+0001T   00000876+0000001155          1400 SG3112               2AZ
201916002201916077-000456     201916006003000285549G/BAG METALLIC JMB EMB 0000001000+00002630+00000+0001T   00002630+0000001155          1400 SG3112               2AZ
201916003201916071-005213     201916006001023690371CELLOTAPE 12mmx33m     0000001000+00000876+00000+0001T   00000876+0000001155          1400 SG3130               2AZ
201916004201916368-000111     201916006001023780812PLUSH BEAR/DOG 29CM    0000001000+00012279+00000+0001T   00012279+0000001155          1400 SG3745               2AZ
201916005201916077-000316-A   201916006003000681457GIFT-BAG METALLIC PPR  0000001000+00002630+00000+0001T   00002630+0000001155          1400 SG3112               2AZ
201916006201916077-000924     201916006003000414055G/WRAP 700mmx2m WEDDING0000001000+00002192+00000+0001T   00002192+0000001155          1400 SG3112               2AZ
201916007201916080-000111     201916006003000252695CARD&ENVELPE - MUSICAL 0000001000+00001753+00000+0001T   00001753+0000001155          1400 SG3112               2AZ
201917000201917               201917               170213TH     1400+00000+TH0000002979+0000002979+000000000+000000418+0000003390+0000000007+I20000000000+0000003390+Z
201917001201917159-000670     201917006003000577187BATH SPONGE MESH BACK  0000001000+00001753+00000+0001T   00002630+0008131156          1400 SG3200               2AZ
201917002201917083-000055     201917006003000003853LIGHTER ELCTRNC REFILBL0000002000+00000613+00000+0001T   00000613+0000001156          1400 SG3315               2AZ
201918000201918               201918               170213TH     1400+00000+TH0000009646+0000009646+000000000+000001351+0000010990+0000000007+I20000000000+0000010990+Z
201918001201918567-011518     201918009781472363473BK FOOD PAR 150 CAKE   0000001000+00006139+00000+0001T   00006139+0000001231          1400 SG3757               2AZ
201918002201918567-011487     201918006003000663613BK COLOURING 96P DORA  0000001000+00003507+00000+0001T   00003507+0000001231          1400 SG3757               2AZ
201919000201919               201919               170213TH     1400+00000+TH0000004822+0000004822+000000000+000000676+0000005490+0000000008+I20000000000+0000005490+Z
201919001201919077-000270     201919006003000395453GIFT-BAG PPR JMB 33X45 0000001000+00002630+00000+0001T   00002630+0000001340          1400 SG3112               2AZ
201919002201919080-000127     201919006003000424351VALENTINES DAY 36x24CM 0000001000+00002192+00000+0001T   00002192+0000001340          1400 SG3112               2AZ
201920000201920               201920               170213TH     1400+00000+TH0000000048+0000000048+000000000+000000007+0000000050+0000000005+I20000000000+0000000050+Z
201920001201920112-116069     201920006009681820277TCS CARRIER BAG JUMBO  0000001000+00000048+00000+0001T   00000048+0000001341          1400 SG3090               2AZ
201921000201921               201921               170213TH     1400+00000+TH0000011444+0000011444+000000000+000001605+0000013049+0000000000+I40000013049+0000000000+Z
201921001201921080-000133     201921006003000535613CARD&ENV MINI ASTD DSGN0000001000+00000437+00000+0001T   00000437+0000001344          1400 SG3112               2AZ
201921002201921077-000240     201921006003000326259G/RIBBON 4PC PEARLIZED 0000001000+00001753+00000+0001T   00001753+0000001344          1400 SG3112               2AZ
201921003201921077-000300     201921006001023483249GIFT BOX OCCASIONS HEXG0000001000+00002192+00000+0001T   00002192+0000001344          1400 SG3112               2AZ
201921004201921077-000150-D   201921006003000054343GIFT-WRAP CELLPHANE CLR0000001000+00000876+00000+0001T   00000876+0000001344          1400 SG3112               2AZ
201921005201921016-006515     201921006003000295555S/JAR GLS EMBOSS. 250ML0000001000+00001753+00000+0001T   00001753+0000001344          1400 SG3300               2AZ
201921006201921103-000781     201921006003000637867BAMBOO BASKET ROUND 23c0000001000+00004385+00000+0001T   00004385+0000001344          1400 SG3300               2AZ
201921007201921112-116069     201921006009681820277TCS CARRIER BAG JUMBO  0000001000+00000048+00000+0001T   00000048+0000001344          1400 SG3090               2AZ
201922000201922               201922               170213TH     1400+00000+TH0000004821+0000004821+000000000+000000675+0000005490+0000000006+I20000000000+0000005490+Z
201922001201922077-000310     201922006001023608635GIFT-BAG 18X23CM GLOSS 0000001000+00001314+00000+0001T   00001314+0000001346          1400 SG3112               2AZ
201922002201922031-000002-A   201922006003000247103P/FRAME LOVE 7.5X7.5CM 0000001000+00003507+00000+0001T   00003507+0000001346          1400 SG3510               2AZ
201923000201923               201923               170213TH     1400+00000+TH0000005699+0000005699+000000000+000000799+0000006490+0000000008+I20000000000+0000006490+Z
201923001201923162-087856     201923006001492878560SS 3PK SILVER BALL STUD0000001000+00001753+00000+0001T   00001753+0000001404          1400 SG3160               2AZ
201923002201923024-000018     201923006001023610232CAKE-DEC S/S NOZZLE    0000001000+00003946+00000+0001T   00003946+0000001404          1400 SG3300               2AZ
201924000201924               201924               170213TH     1400+00000+TH0000004385+0000004385+000000000+000000614+0000004990+0000000009+I20000000000+0000004990+Z
201924001201924368-000049     201924006003000536955PLUSH BEAR 15cm LOVE   0000001000+00004385+00000+0001T   00004385+0000001411          1400 SG3745               2AZ
201925000201925               201925               170213TH     1400+00000+TH0000001490+0000001490+000000000+000000209+0000001690+0000000009+I20000000000+0000001690+Z
201925001201925079-000807     201925006003000670277ART+CRAFT WOODEN STICKS0000001000+00001490+00000+0001T   00001490+0000001415          1400 SG3130               2AZ
201926000201926               201926               170213TH     1400+00000+TH0000003945+0000003945+000000000+000000553+0000004490+0000000008+I20000000000+0000004490+Z
201926001201926046-000014-A   201926004897006177708BATTERIES SIZE:AAA 8PCE0000001000+00001753+00000+0001T   00001753+0000001421          1400 SG3312               2AZ
201926002201926046-000012-A   201926006003000208296BATTERIES H/POWER SZ:AA0000001000+00002192+00000+0001T   00002192+0000001421          1400 SG3312               2AZ
201927000201927               201927               170213TH     1400+00000+TH0000003900+0000003900+000000000+000000547+0000004440+0000000007+I20000000000+0000004440+Z
201927001201927903-000183     201927006003000451043SWT LB HEART LOLLY     0000001000+00000393+00000+0001T   00000393+0000001434          1400 SG3150               2AZ
201927002201927018-000136     201927006001023659026MUG OCC LOVE W/PLUSH   0000001000+00003507+00000+0001T   00003507+0000001434          1400 SG3515               2AZ
201928000201928               201928               170213TH     1400+00000+TH0000009032+0000009032+000000000+000001266+0000010298+0000000000+I40000010298+0000000000+Z
201928001201928067-006109     201928006003000664757XMAS GIFT WRAP 2mx700mm0000001000+00002016+00000+0001T   00002016+0000001436          1400 SG3110               2AZ
201928002201928007-000526     201928006001023637994STATIONERY GIRL FLOWER 0000001000+00007016+00000+0001T   00007016+0000001436          1400 SG3130               2AZ
201929000201929               201929               170213TH     1400+00000+TH0000007891+0000007891+000000000+000001106+0000008990+0000000007+I20000000000+0000008990+Z
201929001201929464-000107     201929000073854318089PLAY-CARDS 2nd (SINGLE)0000002000+00003069+00000+0001T   00003069+0000001441          1400 SG3785               2AZ
201929002201929464-000114     201929006003000027057DICE 16MM CARD-OF-6    0000001000+00001753+00000+0001T   00001753+0000001441          1400 SG3785               2AZ
201930000201930               201930               170213TH     1400+00000+TH0000010569+0000010569+000000000+000001480+0000012040+0000000009+I20000000000+0000012040+Z
201930001201930018-000136     201930006001023659026MUG OCC LOVE W/PLUSH   0000003000+00003507+00000+0001T   00003507+0000001444          1400 SG3515               2AZ
201930002201930112-116069     201930006009681820277TCS CARRIER BAG JUMBO  0000001000+00000048+00000+0001T   00000048+0000001444          1400 SG3090               2AZ
201931000201931               201931               170213TH     1400+00000+TH0000001051+0000001051+000000000+000000148+0000001190+0000000009+I20000000000+0000001190+Z
201931001201931903-002891     201931008935001721376MENTOS GUM WINTERGREEN 0000001000+00001051+00000+0001T   00001051+0000001445          1400 SG3150               2AZ
201932000201932               201932               170213TH     1400+00000+TH0000001887+0000001887+000000000+000000265+0000002150+0000000002+I20000000000+0000002150+Z
201932001201932304-001011     201932006001023806727FLWR ROSE RED W/BEAR   0000003000+00000613+00000+0001T   00000788+0006471448          1400 SG3510               2AZ
201932002201932112-116069     201932006009681820277TCS CARRIER BAG JUMBO  0000001000+00000048+00000+0001T   00000048+0000001448          1400 SG3090               2AZ
201933000201933               201933               170213TH     1400+00000+TH0000001839+0000001839+000000000+000000258+0000002090+0000000007+I20000000000+0000002090+Z
201933001201933083-000055     201933006003000003853LIGHTER ELCTRNC REFILBL0000003000+00000613+00000+0001T   00000613+0000001453          1400 SG3315               2AZ
201934000201934               201934               170213TH     1400+00000+TH0000001578+0000001578+000000000+000000221+0000001790+0000000009+I20000000000+0000001790+Z
201934001201934266-010101     201934006001023331885MARBLES 16mm 90 PC     0000001000+00001578+00000+0001T   00001578+0000001507          1400 SG3710               2AZ
201935000201935               201935               170213TH     1400+00000+TH0000002454+0000002454+000000000+000000344+0000002790+0000000008+I20000000000+0000002790+Z
201935001201935018-000127     201935006001023380289MUG OCC STRAIGHT LOVE  0000001000+00001578+00000+0001T   00001753+0006471514          1400 SG3515               2AZ
201935002201935903-000494     201935006001704009911SWT GUMMY TEENY TEDDIES0000001000+00000876+00000+0001T   00000876+0000001514          1400 SG3150               2AZ
201936000201936               201936               170213TH     1400+00000+TH0000036195+0000036195+000000000+000005071+0000041260+0000000006+I20000000000+0000041260+Z
201936001201936103-000781     201936006003000637867BAMBOO BASKET ROUND 23c0000003000+00004385+00000+0001T   00004385+0000001534          1400 SG3300               2AZ
201936002201936301-085008     201936006003000673933ORN OCC.LOVE TINSEL HRT0000001000+00003069+00000+0001T   00003069+0000001534          1400 SG3505               2AZ
201936003201936301-085000     201936006003000674299 ORN OCC. LOVE HEARTS  0000001000+00002192+00000+0001T   00002192+0000001534          1400 SG3505               2AZ
201936004201936077-000245     201936006001023759214GIFT-RIBBON METALLICx2 0000001000+00001227+00000+0001T   00001227+0000001534          1400 SG3112               2AZ
201936005201936563-000318-L   201936006003000407088SERVIETTES 33cm RED    0000004000+00002192+00000+0001T   00002192+0000001534          1400 SG3214               2AZ
201936006201936077-000010-C   201936006001023123879CREPE-PAPER RED        0000002000+00000788+00000+0001T   00000788+0000001534          1400 SG3112               2AZ
201936007201936103-000068     201936006003000630486BAMBOO BASKET RECTANGLE0000001000+00006139+00000+0001T   00006139+0000001534          1400 SG3300               2AZ
201936008201936112-116053     201936006006438002399TCS CARRIER BAG 38L    0000001000+00000069+00000+0001T   00000069+0000001534          1400 SG3090               2AZ
201937000201937               201937               170213TH     1400+00000+TH0000003856+0000003856+000000000+000000541+0000004390+0000000007+I20000000000+0000004390+Z
201937001201937903-000211     201937006002099001238SWT GS MALLOW ICE CREAM0000001000+00001753+00000+0001T   00001753+0000001534          1400 SG3150               2AZ
201937002201937903-000483     201937006001704001410SWT LIQUOR SML SORT 60G0000001000+00000876+00000+0001T   00000876+0000001534          1400 SG3150               2AZ
201937003201937903-000504     201937006001704012416SWT CHOC JELLY BEANS   0000001000+00001227+00000+0001T   00001227+0000001534          1400 SG3150               2AZ
201938000201938               201938               170213TH     1400+00000+TH0000000035+0000000035+000000000+000000005+0000000040+0000000000+I20000000000+0000000040+Z
201938001201938112-116038     201938006009681820246TCS CARRIER BAG MIDI   0000001000+00000035+00000+0001T   00000035+0000001535          1400 SG3090               2AZ
201939000201939               201939               170213TH     1400+00000+TH0000013066+0000013066+000000000+000001832+0000014890+0000000008+I20000000000+0000014890+Z
201939001201939112-116069     201939006009681820277TCS CARRIER BAG JUMBO  0000001000+00000048+00000+0001T   00000048+0000001610          1400 SG3090               2AZ
201939002201939077-000240     201939006003000326259G/RIBBON 4PC PEARLIZED 0000001000+00001753+00000+0001T   00001753+0000001610          1400 SG3112               2AZ
201939003201939018-000136     201939006001023659026MUG OCC LOVE W/PLUSH   0000001000+00003507+00000+0001T   00003507+0000001610          1400 SG3515               2AZ
201939004201939103-000255     201939006003000571796BASKET WOVEN 26x20x5cm 0000001000+00003946+00000+0001T   00003946+0000001610          1400 SG3300               2AZ
201939006201939088-000084     201939006001023798060P/POURRI 120G ASSTD    0000001000+00001753+00000+0001T   00001753+0000001610          1400 SG3212               2AZ
201939007201939306-000021-C   201939006003000567294EARBUDS 300PCE IN TUB  0000001000+00001753+00000+0001T   00001753+0000001610          1400 SG3200               2AZ
201939008201939007-000123     201939006003000533879BOOK COVER 450mmx1.5m  0000001000+00000306+00000+0001T   00000306+0000001610          1400 SG3130               2AZ
201940000201940               201940               170213TH     1400+00000+TH0000013150+0000013150+000000000+000001842+0000014992+0000000000+I40000014992+0000000000+Z
201940001201940018-019000     201940006003000557288MUG OCC. LOVE JUMBO    0000001000+00005262+00000+0001T   00005262+0000001615          1400 SG3515               2AZ
201940002201940903-000194     201940006009826020616SWT CHOC RP LOLLY 25G  0000002000+00001314+00000+0001T   00001314+0000001615          1400 SG3150               2AZ
201940003201940018-005009     201940006001023725608MUG W/PLUSH-BEAR LOVE  0000001000+00003507+00000+0001T   00003507+0000001615          1400 SG3515               2AZ
201940004201940200-003024     201940006001023657299REFUSE BAGS 20PCE BLACK0000001000+00001753+00000+0001T   00001753+0000001615          1400 SG3214               2AZ
201941000201941               201941               170213TH     1400+00000+TH0000026314+0000026314+000000000+000003684+0000029990+0000000008+I20000000000+0000029990+Z
201941001201941007-010503     201941006003000455393WIPE & CHALK 90X60CM   0000001000+00026314+00000+0001T   00026314+0000001621          1400 SG3130               2AZ
201942000201942               201942               170213TH     1400+00000+TH0000008681+0000008681+000000000+000001237+0000009910+0000000008+I20000000000+0000009910+Z
201942001201942903-000183     201942006003000451043SWT LB HEART LOLLY     0000022000+00000393+00000+0001T   00000393+0000001636          1400 SG3150               2AZ
201942002201942112-116038     201942006009681820246TCS CARRIER BAG MIDI   0000001000+00000035+00000+0001T   00000035+0000001636          1400 SG3090               2AZ
201943000201943               201943               170213TH     1400+00000+TH0000001578+0000001578+000000000+000000221+0000001790+0000000009+I20000000000+0000001790+Z
201943001201943018-000127     201943006001023380289MUG OCC STRAIGHT LOVE  0000001000+00001578+00000+0001T   00001753+0006471636          1400 SG3515               2AZ
201944000201944               201944               170213TH     1400+00000+TH0000018105+0000018105+000000000+000002539+0000020640+0000000004+I20000000000+0000020640+Z
201944001201944040-000170     201944006001023774613C/HOLDER GLASS CUP 6CM 0000001000+00002630+00000+0001T   00002630+0000001643          1400 SG3510               2AZ
201944002201944039-000635     201944006001023774521CANDLE VTV 4PC WHITE   0000001000+00002192+00000+0001T   00002192+0000001643          1400 SG3510               2AZ
201944003201944039-000029     201944006003000286829C/TAPERED 25CM M/PINK  0000002000+00001051+00000+0001T   00001051+0000001643          1400 SG3510               2AZ
201944004201944040-000923     201944006001023587831CANDLE-HOLDER GLS 13.5 0000002000+00001753+00000+0001T   00001753+0000001643          1400 SG3510               2AZ
201944005201944112-116069     201944006009681820277TCS CARRIER BAG JUMBO  0000001000+00000048+00000+0001T   00000048+0000001643          1400 SG3090               2AZ
201944006201944018-000136     201944006001023659026MUG OCC LOVE W/PLUSH   0000002000+00003507+00000+0001T   00003507+0000001643          1400 SG3515               2AZ
201944007201944083-000055     201944006003000003853LIGHTER ELCTRNC REFILBL0000001000+00000613+00000+0001T   00000613+0000001643          1400 SG3315               2AZ
201945000201945               201945               170213TH     1400+00000+TH0000017011+0000017011+000000000+000002384+0000019390+0000000005+I20000000000+0000019390+Z
201945001201945077-000455     201945006003000285389G/BAG METALLIC LRG SOL 0000001000+00001753+00000+0001T   00001753+0000001651          1400 SG3112               2AZ
201945002201945301-085007     201945006003000673698ORN OCC. LOVE S/PLAQUE 0000001000+00007893+00000+0001T   00007893+0000001651          1400 SG3505               2AZ
201945003201945018-050000     201945006003000412679MUG OCC LOVE TWIN BEAR 0000001000+00006139+00000+0001T   00006139+0000001651          1400 SG3515               2AZ
201945004201945304-001011     201945006001023806727FLWR ROSE RED W/BEAR   0000002000+00000613+00000+0001T   00000788+0006471651          1400 SG3510               2AZ
201946000201946               201946               170213TH     1400+00000+TH0000003507+0000003507+000000000+000000491+0000003998+0000000000+I40000003998+0000000000+Z
201946001201946018-005009     201946006001023725608MUG W/PLUSH-BEAR LOVE  0000001000+00003507+00000+0001T   00003507+0000001654          1400 SG3515               2AZ
201947000201947               201947               170213TH     1400+00000+TH0000002630+0000002630+000000000+000000369+0000002990+0000000009+I20000000000+0000002990+Z
201947001201947466-000515     201947006001023477408BALLS TENNIS BAG-OF-3  0000001000+00002630+00000+0001T   00002630+0000001656          1400 SG3785               2AZ
201948000201948               201948               170213TH     1400+00000+TH0000013680+0000013680+000000000+000001916+0000015590+0000000006+I20000000000+0000015590+Z
201948001201948084-000369     201948006003000594467NAIL MANICURE SET 6PCE 0000001000+00006139+00000+0001T   00006139+0000001658          1400 SG3200               2AZ
201948002201948368-000049     201948006003000536955PLUSH BEAR 15cm LOVE   0000001000+00004385+00000+0001T   00004385+0000001658          1400 SG3745               2AZ
201948003201948018-000127     201948006001023380289MUG OCC STRAIGHT LOVE  0000001000+00001578+00000+0001T   00001753+0006471658          1400 SG3515               2AZ
201948004201948077-000315     201948006003000181186GIFT-BAG 20x28cm MATT  0000001000+00001578+00000+0001T   00001578+0000001658          1400 SG3112               2AZ
201949000201949               201949               170213TH     1400+00000+TH0000016792+0000016792+000000000+000002355+0000019140+0000000007+I20000000000+0000019140+Z
201949001201949368-000265     201949006001023750914PLUSH BEAR 23CM ASSTD C0000001000+00006139+00000+0001T   00006139+0000001701          1400 SG3745               2AZ
201949002201949018-000127     201949006001023380289MUG OCC STRAIGHT LOVE  0000001000+00001578+00000+0001T   00001753+0006471701          1400 SG3515               2AZ
201949003201949007-000043     201949006009635831496DISPLAY-BOOK PL A4 20PG0000001000+00001753+00000+0001T   00001753+0000001701          1400 SG3130               2AZ
201949004201949077-000303     201949006001023593757GIFT-BAG PAPER MED     0000001000+00001578+00000+0001T   00001578+0000001701          1400 SG3112               2AZ
201949005201949002-000878     201949006001023770967STRAINER TEA WIRE 7cm  0000001000+00001490+00000+0001T   00001490+0000001701          1400 SG3300               2AZ
201949006201949903-000200     201949006009826020234SWT CHOC RP CHOCO 23G  0000002000+00000788+00000+0001T   00000788+0000001701          1400 SG3150               2AZ
201949007201949083-000058     201949006003000400331LIGHTER JET CIGAR REFIL0000001000+00002630+00000+0001T   00002630+0000001701          1400 SG3315               2AZ
201949008201949112-116069     201949006009681820277TCS CARRIER BAG JUMBO  0000001000+00000048+00000+0001T   00000048+0000001701          1400 SG3090               2AZ
201950000201950               201950               170213TH     1400+00000+TH0000004820+0000004820+000000000+000000676+0000005490+0000000006+I20000000000+0000005490+Z
201950001201950080-000113     201950006003000237449CARD&ENVLPE - LOVE     0000001000+00001753+00000+0001T   00001753+0000001704          1400 SG3112               2AZ
201950002201950089-000099     201950006003000677566KEY CHAIN MTL SPORT AST0000001000+00000876+00000+0001T   00000876+0000001704          1400 SG3205               2AZ
201950003201950077-000303     201950006001023593757GIFT-BAG PAPER MED     0000001000+00001578+00000+0001T   00001578+0000001704          1400 SG3112               2AZ
201950004201950304-001011     201950006001023806727FLWR ROSE RED W/BEAR   0000001000+00000613+00000+0001T   00000788+0006471704          1400 SG3510               2AZ
201951000201951               201951               170213TH     1400+00000+TH0000001753+0000001753+000000000+000000246+0000001990+0000000009+I20000000000+0000001990+Z
201951001201951200-003026     201951006003000276448REFUSE BAGS 10PCE GREEN0000001000+00001753+00000+0001T   00001753+0000001705          1400 SG3214               2AZ
201952000201952               201952               170213TH     1400+00000+TH0000002192+0000002192+000000000+000000307+0000002490+0000000009+I20000000000+0000002490+Z
201952001201952200-000002     201952006925406821049BAG FLIP TOP 80PCE     0000001000+00002192+00000+0001T   00002192+0000001707          1400 SG3214               2AZ
A17021300                                          09093250THSLAVE 2                       SG31IC
C20193900                                          170213TH306-000021     16073317SLAVE 2     SG31IC0000000000+0000000000+0050000001000+
M17021391                              CASH        THSLAVE 2                       Z-REPORT No.   435TOTAL (Sales - Refunds)           4086.30       CASH TO BE BANKED                 3341.40       DEBIT CARDS                          0.00       CREDIT CARDS                       688.30       Z-READING                         4029.70       AIRTIME DEBIT CARD SALES             0.00       AIRTIME CARD SALES                   0.00       OVERS/UNDERS                         0.00       AIRTIME CASH SALES                   0.00       GIFT CARDS                           0.00       GIFT CARD CASH SALES                 0.00       POSTAGE                             56.59       ROUNDING                             0.01       T O T A L  CASH PAYOUTS             56.60                                                                                                                                                                                                                                                      Z
M17021392                              CASH        THABSENT                                                                                                                                                                                          ANNUAL LEAVE                                                                                                                                                                                    DAY OFF                                                                                                                                                                                         COMMENTS          R56.59 POSTAGE                                                                                                                                                                                                                                                                                                                                                               Z
Y17021300                                          TH00000000358622+000044
ZTH17021320243 SLAVE 2      SALES DATA                     NEXT INVOICE NO.  201953 0435
L57793400359047-001-002       TH1702131240451ICLESEGO CIOCHA                                                                                                                                                                                                                                                                                                                                                                                                                                                                                                                                                                                                                                                                                                                                                                                                                                                                                                                                                                                        Z
L57793400359047-002-002       TH1702131241141ICLESEGO CIOCHA                                                                                                                                                                                                                                                                                                                                                                                                                                                                                                                                                                                                                                                                                                                                                                                                                                                                                                                                                                                        Z
F094501497-068614         1702101230350000101ICSLAVE 2
V5779340000068614         1702101230350000101ICSLAV               000000000000000170213000000   SLAVE 2     000000000000359047               02
X TH Slave 2 First invoice 201908 170213 Last invoice 201952 170213 Next invoice 201953 Total number of records 000000180 clbackup completed 20:24:38
