105373000105373               105373               170213TI     1400+00000+TI0000018460+0000018460+000000000+000002588+0000021048+0000000000+I40000021048+0000000000+Z
105373001105373567-014134     105373006003000560189BOOK COLOURING 96 PAGE 0000002000+00002630+00000+0001T   00002630+0000000837          1400 AS4757               1CZ
105373002105373007-000046     105373006009635831366DISPLAY-BOOK PL A4 30PG0000002000+00002192+00000+0001T   00002192+0000000837          1400 AS4130               1CZ
105373003105373267-001998     105373008711147355350PUZZLE 300pc FAIRY-TALE0000001000+00005262+00000+0001T   00005262+0000000837          1400 AS4755               1CZ
105373004105373466-000583     105373006001023156617SKIPPING-ROPE 224cm    0000002000+00001753+00000+0001T   00001753+0000000837          1400 AS4785               1CZ
105373005105373112-116069     105373006009681820277TCS CARRIER BAG JUMBO  0000001000+00000048+00000+0001T   00000048+0000000837          1400 AS4090               1CZ
105374000105374               105374               170213TI     1400+00000+TI0000000876+0000000876+000000000+000000123+0000000999+0000000000+I40000000999+0000000000+Z
105374001105374903-000494     105374006001704009911SWT GUMMY TEENY TEDDIES0000001000+00000876+00000+0001T   00000876+0000000838          1400 AS4150               1CZ
105375000105375               105375               170213TI     1400+00000+TI0000015732+0000015732+000000000+000002209+0000017940+0000000001+I20000000000+0000017940+Z
105375001105375112-116069     105375006009681820277TCS CARRIER BAG JUMBO  0000001000+00000048+00000+0001T   00000048+0000001016          1400 AS4090               1AZ
105375002105375200-000012     105375006003000399536BAG 50PCE 165x146mm    0000001000+00003507+00000+0001T   00003507+0000001016          1400 AS4214               1AZ
105375003105375077-000235     105375006003000160211GIFT-RIBBON ROLL METALC0000002000+00002630+00000+0001T   00002630+0000001016          1400 AS4112               1AZ
105375004105375903-000155     105375006009803374435SWT LOLLY I LUV U HEART0000009000+00000525+00000+0001T   00000525+0000001016          1400 AS4150               1AZ
105375005105375566-000068     105375006003000418046POP UP LOVE 2 ASSTD    0000001000+00002192+00000+0001T   00002192+0000001016          1400 AS4130               1AZ
105376000105376               105376               170213TI     1400+00000+TI0000011398+0000011398+000000000+000001598+0000012996+0000000000+I40000012996+0000000000+Z
105376001105376105-001180     105376006003000666522CONTAINER SET LITE 3PC 0000002000+00003069+00000+0001T   00003069+0000001019          1400 AS4210               1AZ
105376002105376007-000602     105376006003000541270BOOK COVER 2M SOLID COL0000002000+00002630+00000+0001T   00002630+0000001019          1400 AS4130               1AZ
105377000105377               105377               170213TI     1400+00000+TI0000003244+0000003244+000000000+000000455+0000003699+0000000000+I40000003699+0000000000+Z
105377001105377051-600630     105377006001023868374PLANTER W/TRAY PL RECT 0000001000+00003244+00000+0001T   00003244+0000001025          1400 AS4820               1AZ
105378000105378               105378               170213TI     1400+00000+TI0000057795+0000057795+000000000+000008096+0000065890+0000000001+I20000000000+0000065890+Z
105378001105378112-116069     105378006009681820277TCS CARRIER BAG JUMBO  0000001000+00000048+00000+0001T   00000048+0000001053          1400 AS4090               1AZ
105378002105378140-092000     105378006001023819130MOSQ-NET 1250x250x65cm 0000001000+00014911+00000+0001T   00014911+0000001053          1400 AS4830               1AZ
105378003105378072-020307-A   105378006003000650095PET TOY TENNIS BALLSx4 0000001000+00003507+00000+0001T   00003507+0000001053          1400 AS4870               1AZ
105378004105378039-001023     105378006003000466337CANDLE TEA-LITE METALIC0000001000+00001753+00000+0001T   00001753+0000001053          1400 AS4510               1AZ
105378005105378051-600632     105378006001023868404PLANTER W/TRAY PL RECT 0000001000+00004385+00000+0001T   00004385+0000001053          1400 AS4820               1AZ
105378006105378301-085004     105378006003000420469ORN LOVE PLAQUE 21X10CM0000001000+00003507+00000+0001T   00003946+0006471053          1400 AS4505               1AZ
105378007105378077-000303     105378006001023593757GIFT-BAG PAPER MED     0000001000+00001578+00000+0001T   00001578+0000001053          1400 AS4112               1AZ
105378008105378112-116069     105378006009681820277TCS CARRIER BAG JUMBO  0000001000+00000048+00000+0001T   00000048+0000001053          1400 AS4090               1AZ
105378009105378051-600636     105378006003000400324PLANTER WALL MOUNT PL  0000004000+00004385+00000+0001T   00004385+0000001053          1400 AS4820               1AZ
105378010105378306-007303     105378006003000532476MASSAGER (FOR HEAD)    0000001000+00002630+00000+0001T   00002630+0000001053          1400 AS4200               1AZ
105378011105378306-000006     105378006001023776440DENTAL FLOSS PICKS 50PC0000001000+00001753+00000+0001T   00001753+0000001053          1400 AS4200               1AZ
105378012105378033-001364     105378006001023802088HAIR-CLIPS 65mm 24PCE  0000001000+00000876+00000+0001T   00000876+0000001053          1400 AS4200               1AZ
105378013105378033-000780     105378006001023752611COSMETIC-BRUSH-SET 7PCE0000001000+00002192+00000+0001T   00002192+0000001053          1400 AS4200               1AZ
105378014105378038-001803     105378006001023766588DOILIES 17cm RND 18PC  0000001000+00001753+00000+0001T   00001753+0000001053          1400 AS4300               1AZ
105378015105378903-000194     105378006009826020616SWT CHOC RP LOLLY 25G  0000001000+00001314+00000+0001T   00001314+0000001053          1400 AS4150               1AZ
105379000105379               105379               170213TI     1400+00000+TI0000003507+0000003507+000000000+000000491+0000003990+0000000008+I20000000000+0000003990+Z
105379001105379036-000515     105379006001023817402HOOK-HANGER PL-CTD 10HK0000001000+00003507+00000+0001T   00003507+0000001112          1400 AS4212               1BZ
105380000105380               105380               170213TI     1400+00000+TI0000116906+0000116906+000000000+000016376+0000133282+0000000000+I40000133282+0000000000+Z
105380001105380112-116069     105380006009681820277TCS CARRIER BAG JUMBO  0000001000+00000048+00000+0001T   00000048+0000001123          1400 AS4090               1BZ
105380002105380031-001014     105380006003000675302P/FRAME COLL PL 15-HOLE0000001000+00021928+00000+0001T   00021928+0000001123          1400 AS4510               1BZ
105380003105380082-007586     105380006003000654291SUNGLASS DESIGNER ASST 0000001000+00004385+00000+0001T   00004385+0000001123          1400 AS4160               1BZ
105380004105380030-005020     105380006003000456116PLAQUE WDN SIGN ASSORT 0000002000+00008771+00000+0001T   00008771+0000001123          1400 AS4505               1BZ
105380005105380030-005030     105380006003000674626P/WDN SIGN 16x40CM ASS 0000002000+00008771+00000+0001T   00008771+0000001123          1400 AS4505               1BZ
105380006105380030-004070     105380006003000674381P/WDN SIGN 12X20CM ASS 0000002000+00003507+00000+0001T   00003507+0000001123          1400 AS4505               1BZ
105380007105380004-071209     105380006003000604678MOBILE IN CAR HOLDER   0000002000+00007893+00000+0001T   00007893+0000001123          1400 AS4310               1BZ
105380008105380079-000359     105380006003000639823FELT-TIP PENS THERAPY  0000001000+00002630+00000+0001T   00002630+0000001123          1400 AS4130               1BZ
105380009105380079-000334     105380006003000670437THERAPY P/CRAYONS 18   0000001000+00005262+00000+0001T   00005262+0000001123          1400 AS4130               1BZ
105380010105380567-011344     105380006003000630714BK COLOURING THERAPY 640000001000+00003507+00000+0001T   00003507+0000001123          1400 AS4757               1BZ
105380011105380046-000015     105380006001023680839BATTERIES SIZE:D   2PCE0000002000+00002367+00000+0001T   00002367+0000001123          1400 AS4312               1BZ
105380012105380046-000012     105380006904708013062BATTERIES AA  CARD-OF-40000001000+00001314+00000+0001T   00001314+0000001123          1400 AS4312               1BZ
105380013105380046-000014     105380006001023725387BATTERIES SIZE:AAA 4PCE0000001000+00001139+00000+0001T   00001139+0000001123          1400 AS4312               1BZ
105380014105380112-116069     105380006009681820277TCS CARRIER BAG JUMBO  0000001000+00000048+00000+0001T   00000048+0000001123          1400 AS4090               1BZ
105380015105380105-001247     105380006003000623310CONTAINER RECT 3PCE    0000001000+00002630+00000+0001T   00002630+0000001123          1400 AS4210               1BZ
105380016105380105-007410     105380006003000629671CONTAINER MINI 300ml   0000003000+00002630+00000+0001T   00003507+0008171123          1400 AS4210               1BZ
105380017105380133-000017     105380006003000525171CLEANING-CLOTHS 5PCE   0000001000+00003507+00000+0001T   00003507+0000001123          1400 AS4212               1BZ
105381000105381               105381               170213TI     1400+00000+TI0000001753+0000001753+000000000+000000246+0000001990+0000000009+I20000000000+0000001990+Z
105381001105381079-006500     105381006001023557186GLUE GLITTER 6/10 PCE  0000001000+00001753+00000+0001T   00001753+0000001124          1400 AS4130               1AZ
105382000105382               105382               170213TI     1400+00000+TI0000006138+0000006138+000000000+000000860+0000006998+0000000000+I40000006998+0000000000+Z
105382001105382031-080508     105382006001023802415P/FRAME PL 22X11CM LOVE0000001000+00004385+00000+0001T   00004385+0000001212          1400 AS4510               1AZ
105382002105382077-000455     105382006003000285389G/BAG METALLIC LRG SOL 0000001000+00001753+00000+0001T   00001753+0000001212          1400 AS4112               1AZ
105383000105383               105383               170213TI     1400+00000+TI0000027231+0000027231+000000000+000003815+0000000000+0000000000+ 00000000000+0000000000+Z
105383001105383105-007800     105383006002923018913STORAGE BOX CLEAR 5.5L 0000001000+00003507+00000+0001T   00003507+000000              1400 AS4210               1 Z
105383002105383366-007932     105383006003000238057ACCESS CLOWN BOWTIE    0000001000+00003069+00000+0001T   00003069+000000              1400 AS4131               1 Z
105383003105383112-116069     105383006009681820277TCS CARRIER BAG JUMBO  0000001000+00000048+00000+0001T   00000048+000000              1400 AS4090               1 Z
105383004105383024-000140     105383006001023902429N/STICK S/FORM 25X6CM  0000001000+00013157+00000+0001T   00013157+000000              1400 AS4300               1 Z
105383005105383083-000058     105383006003000400331LIGHTER JET CIGAR REFIL0000001000+00002630+00000+0001T   00002630+000000              1400 AS4315               1 Z
105383006105383006-000166-D   105383006003000516490BALLOONS LRG 6PC RED   0000001000+00001314+00000+0001T   00001314+000000              1400 AS4131               1 Z
105383007105383006-000093     105383006003000539932PARTY BANNER FLAGS ASST0000002000+00001753+00000+0001T   00001753+000000              1400 AS4131               1 Z
105384000105384               105384               170213TI     1400+00000+TI0000027231+0000027231+000000000+000003815+0000031046+0000000000+I40000031046+0000000000+Z
105384001105384112-116069     105384006009681820277TCS CARRIER BAG JUMBO  0000001000+00000048+00000+0001T   00000048+0000001223          1400 AS4090               1AZ
105384002105384024-000140     105384006001023902429N/STICK S/FORM 25X6CM  0000001000+00013157+00000+0001T   00013157+0000001223          1400 AS4300               1AZ
105384003105384006-000166-D   105384006003000516490BALLOONS LRG 6PC RED   0000001000+00001314+00000+0001T   00001314+0000001223          1400 AS4131               1AZ
105384004105384083-000058     105384006003000400331LIGHTER JET CIGAR REFIL0000001000+00002630+00000+0001T   00002630+0000001223          1400 AS4315               1AZ
105384005105384006-000093     105384006003000539932PARTY BANNER FLAGS ASST0000002000+00001753+00000+0001T   00001753+0000001223          1400 AS4131               1AZ
105384006105384366-007932     105384006003000238057ACCESS CLOWN BOWTIE    0000001000+00003069+00000+0001T   00003069+0000001223          1400 AS4131               1AZ
105384007105384105-007800     105384006002923018913STORAGE BOX CLEAR 5.5L 0000001000+00003507+00000+0001T   00003507+0000001223          1400 AS4210               1AZ
105385000105385               105385               170213TI     1400+00000+TI0000001227+0000001227+000000000+000000172+0000001390+0000000009+I20000000000+0000001390+Z
105385001105385071-081091     105385006001151010287STAED/GENKEM ALL-STICK 0000001000+00001227+00000+0001T   00001227+0000001230          1400 AS4130               1AZ
105386000105386               105386               170213TI     1400+00000+TI0000007938+0000007938+000000000+000001113+0000009051+0000000000+I40000009051+0000000000+Z
105386001105386112-116069     105386006009681820277TCS CARRIER BAG JUMBO  0000001000+00000048+00000+0001T   00000048+0000001234          1400 AS4090               1AZ
105386002105386077-000289     105386006001023901996GIFT BOX 20x25x11cm    0000001000+00001753+00000+0001T   00001753+0000001234          1400 AS4112               1AZ
105386003105386018-000136     105386006001023659026MUG OCC LOVE W/PLUSH   0000001000+00003507+00000+0001T   00003507+0000001234          1400 AS4515               1AZ
105386004105386403-000502-A   105386006003000467099M/BANK TIN 8x12.5cm    0000001000+00002630+00000+0001T   00002630+0000001234          1400 AS4510               1AZ
105387000105387               105387               170213TI     1400+00000+TI0000001752+0000001752+000000000+000000246+0000001990+0000000008+I20000000000+0000001990+Z
105387001105387903-000123     105387006925925909280SWEET GS MINI MALLOWS  0000002000+00000876+00000+0001T   00000876+0000001235          1400 AS4150               1CZ
105388000105388               105388               170213TI     1400+00000+TI0000008975+0000008975+000000000+000001258+0000010230+0000000003+I20000000000+0000010230+Z
105388001105388903-000155     105388006009803374435SWT LOLLY I LUV U HEART0000002000+00000525+00000+0001T   00000525+0000001236          1400 AS4150               1AZ
105388002105388078-000025     105388008887013700064SUPERGLUE 3g 1PCE CARD 0000001000+00000876+00000+0001T   00000876+0000001236          1400 AS4810               1AZ
105388003105388567-011427     105388009780799352528BK READER BEGIN LEES   0000001000+00003507+00000+0001T   00004823+0008141236          1400 AS4757               1AZ
105388004105388567-011428     105388009780799352566BK READER BEGIN LEES   0000001000+00003507+00000+0001T   00004823+0008141236          1400 AS4757               1AZ
105388005105388112-116038     105388006009681820246TCS CARRIER BAG MIDI   0000001000+00000035+00000+0001T   00000035+0000001236          1400 AS4090               1AZ
105389000105389               105389               170213TI     1400+00000+TI0000023492+0000023492+000000000+000003292+0000026784+0000000000+I40000026784+0000000000+Z
105389001105389903-000155     105389006009803374435SWT LOLLY I LUV U HEART0000004000+00000525+00000+0001T   00000525+0000001310          1400 AS4150               1AZ
105389002105389077-000303     105389006001023593757GIFT-BAG PAPER MED     0000002000+00001578+00000+0001T   00001578+0000001310          1400 AS4112               1AZ
105389003105389018-000130     105389006001023867537MUG OCC LOVE MINI+HEART0000002000+00003507+00000+0001T   00003507+0000001310          1400 AS4515               1AZ
105389004105389006-000190     105389006003000685530BALLOONS LOVE 81x91cm  0000002000+00004385+00000+0001T   00004385+0000001310          1400 AS4131               1AZ
105389005105389006-001000     105389006003000093779HELIUM BALLOON FILL    0000004000+00000613+00000+0001T   00000613+0000001310          1400 AS4131               1AZ
105390000105390               105390               170213TI     1400+00000+TI0000001298-0000001298-000000000+000000182-0000001480-0000000000+I20000000000+0000001480-Z
105390001105390001-999910     105390000000000999910POSTAGE                0000001000-00001298+00000+0001T   00000000+0000001332          1400 AS49102IC            1 Z
105391000105391               105391               170213TI     1400+00000+TI0000003498-0000000000+000000000+000000000+0000003500-0000000002+I20000000000+0000003500-Z
105391001105391001-999909     105391000000000999909STAFF-REFRESHMENTS     0000001000-00003498+00000+0001X   00000000+0000001334          0000 AS49092IC            1 Z
105392000105392               105392               170213TI     1400+00000+TI0000007540+0000007540+000000000+000001057+0000008597+0000000000+I40000008597+0000000000+Z
105392001105392368-000265     105392006001023750914PLUSH BEAR 23CM ASSTD C0000001000+00006139+00000+0001T   00006139+0000001351          1400 AS4745               1BZ
105392002105392903-000151     105392006009803374411SWT SML RND R/BOW LOLLY0000001000+00000525+00000+0001T   00000525+0000001351          1400 AS4150               1BZ
105392003105392903-000221     105392006001704007382SWT EENY-MEENY-MOS 60G 0000001000+00000876+00000+0001T   00000876+0000001351          1400 AS4150               1BZ
105393000105393               105393               170213TI     1400+00000+TI0000000613+0000000613+000000000+000000086+0000000690+0000000009+I20000000000+0000000690+Z
105393001105393304-001011     105393006001023806727FLWR ROSE RED W/BEAR   0000001000+00000613+00000+0001T   00000788+0006471354          1400 AS4510               1CZ
105394000105394               105394               170213TI     1400+00000+TI0000001753+0000001753+000000000+000000246+0000001990+0000000009+I20000000000+0000001990+Z
105394001105394200-003024     105394006001023657299REFUSE BAGS 20PCE BLACK0000001000+00001753+00000+0001T   00001753+0000001508          1400 AS4214               1AZ
105395000105395               105395               170213TI     1400+00000+TI0000003507+0000003507+000000000+000000491+0000003990+0000000008+I20000000000+0000003990+Z
105395001105395108-001216     105395006003000010882SALAD BOWL PL 4.9L     0000001000+00003507+00000+0001T   00003507+0000001514          1400 AS4210               1AZ
105396000105396               105396               170213TI     1400+00000+TI0000012394+0000012394+000000000+000001739+0000014130+0000000003+I20000000000+0000014130+Z
105396001105396112-116038     105396006009681820246TCS CARRIER BAG MIDI   0000001000+00000035+00000+0001T   00000035+0000001516          1400 AS4090               1AZ
105396002105396071-003853     105396006001023715579PENCIL BASIC HB 12PCE  0000003000+00001753+00000+0001T   00001753+0000001516          1400 AS4130               1AZ
105396003105396079-000807     105396006003000670277ART+CRAFT WOODEN STICKS0000001000+00001490+00000+0001T   00001490+0000001516          1400 AS4130               1AZ
105396004105396079-006500     105396006001023557186GLUE GLITTER 6/10 PCE  0000001000+00001753+00000+0001T   00001753+0000001516          1400 AS4130               1AZ
105396005105396071-081091     105396006001151010287STAED/GENKEM ALL-STICK 0000001000+00001227+00000+0001T   00001227+0000001516          1400 AS4130               1AZ
105396006105396002-000884     105396006001023769589CAN-OPENER BUTTERFLY   0000001000+00002630+00000+0001T   00002630+0000001516          1400 AS4300               1AZ
105397000105397               105397               170213TI     1400+00000+TI0000019644+0000019644+000000000+000002751+0000022395+0000000000+I40000022395+0000000000+Z
105397001105397018-019000     105397006003000557288MUG OCC. LOVE JUMBO    0000001000+00005262+00000+0001T   00005262+0000001522          1400 AS4515               1AZ
105397002105397368-000099     105397006001023680259PLUSH DOG 23cm ASSTD   0000001000+00008771+00000+0001T   00008771+0000001522          1400 AS4745               1AZ
105397003105397006-000190     105397006003000685530BALLOONS LOVE 81x91cm  0000001000+00004385+00000+0001T   00004385+0000001522          1400 AS4131               1AZ
105397004105397006-001000     105397006003000093779HELIUM BALLOON FILL    0000002000+00000613+00000+0001T   00000613+0000001522          1400 AS4131               1AZ
105398000105398               105398               170213TI     1400+00000+TI0000003912-0000003912-000000000+000000548-0000004460-0000000000+I20000000000+0000004460-Z
105398001105398001-999910     105398000000000999910POSTAGE                0000001000-00003912+00000+0001T   00000000+0000001539          1400 AS49102IC            1 Z
105399000105399               105399               170213TI     1400+00000+TI0000001490+0000001490+000000000+000000209+0000001690+0000000009+I20000000000+0000001690+Z
105399001105399077-000299     105399006003000395576G/BAG 32x25cm LRG LOVE 0000001000+00001490+00000+0001T   00001490+0000001542          1400 AS4112               1AZ
105400000105400               105400               170213TI     1400+00000+TI0000018723+0000018723+000000000+000002624+0000021347+0000000000+I40000021347+0000000000+Z
105400001105400267-000904     105400006003000636099PUZZLE WOOD JIGSAW     0000001000+00006139+00000+0001T   00006139+0000001555          1400 AS4755               1CZ
105400002105400567-011481     105400000088908488601BK COLOURING 96P SPIDER0000001000+00003507+00000+0001T   00003507+0000001555          1400 AS4757               1CZ
105400003105400466-000584     105400006001023628787SKIPPING-ROPE          0000001000+00002630+00000+0001T   00002630+0000001555          1400 AS4785               1CZ
105400004105400466-000200     105400006001023621665HULA-HOOP     ASSTD    0000001000+00001753+00000+0001T   00001753+0000001555          1400 AS4785               1CZ
105400005105400466-000106     105400006003000128112BALL PL 20CM BASKETBALL0000001000+00003507+00000+0001T   00003507+0000001555          1400 AS4785               1CZ
105400006105400112-116069     105400006009681820277TCS CARRIER BAG JUMBO  0000001000+00000048+00000+0001T   00000048+0000001555          1400 AS4090               1CZ
105400007105400903-000087     105400006001704000161SWT SPECKLED-EGGS 50G  0000001000+00001139+00000+0001T   00001139+0000001555          1400 AS4150               1CZ
105401000105401               105401               170213TI     1400+00000+TI0000011400+0000011400+000000000+000001596+0000012996+0000000000+I40000012996+0000000000+Z
105401001105401264-000925-403 105401004893993300006BURAGO 1:43 STREET FIRE0000002000+00005700+00000+0001T   00005700+0000001556          1400 AS4710               1CZ
105402000105402               105402               170213TI     1400+00000+TI0000003856+0000003856+000000000+000000541+0000004397+0000000000+I40000004397+0000000000+Z
105402001105402077-000299     105402006003000395576G/BAG 32x25cm LRG LOVE 0000001000+00001490+00000+0001T   00001490+0000001559          1400 AS4112               1AZ
105402002105402903-000087     105402006001704000161SWT SPECKLED-EGGS 50G  0000001000+00001139+00000+0001T   00001139+0000001559          1400 AS4150               1AZ
105402003105402903-000517     105402006001704012768SWT STRAWS FIZZY CHERRY0000001000+00001227+00000+0001T   00001227+0000001559          1400 AS4150               1AZ
105403000105403               105403               170213TI     1400+00000+TI0000006137+0000006137+000000000+000000860+0000006990+0000000007+I20000000000+0000006990+Z
105403001105403077-000270     105403006003000395453GIFT-BAG PPR JMB 33X45 0000001000+00002630+00000+0001T   00002630+0000001600          1400 AS4112               1CZ
105403002105403018-000136     105403006001023659026MUG OCC LOVE W/PLUSH   0000001000+00003507+00000+0001T   00003507+0000001600          1400 AS4515               1CZ
105404000105404               105404               170213TI     1400+00000+TI0000000613+0000000613+000000000+000000086+0000000690+0000000009+I20000000000+0000000690+Z
105404001105404304-001011     105404006001023806727FLWR ROSE RED W/BEAR   0000001000+00000613+00000+0001T   00000788+0006471611          1400 AS4510               1AZ
105405000105405               105405               170213TI     1400+00000+TI0000024072+0000024072+000000000+000003374+0000027446+0000000000+I40000027446+0000000000+Z
105405001105405112-116069     105405006009681820277TCS CARRIER BAG JUMBO  0000001000+00000048+00000+0001T   00000048+0000001614          1400 AS4090               1AZ
105405002105405077-000303     105405006001023593757GIFT-BAG PAPER MED     0000002000+00001578+00000+0001T   00001578+0000001614          1400 AS4112               1AZ
105405003105405903-000518     105405006001704012782SWT STRAWS S/BERRY 100g0000002000+00001227+00000+0001T   00001227+0000001614          1400 AS4150               1AZ
105405004105405368-000265     105405006001023750914PLUSH BEAR 23CM ASSTD C0000002000+00006139+00000+0001T   00006139+0000001614          1400 AS4745               1AZ
105405005105405159-080358     105405006001023742315SHOWER /DRAIN FILTER   0000001000+00002630+00000+0001T   00002630+0000001614          1400 AS4200               1AZ
105405006105405903-000619     105405006003000672455SWT LOLLY STR/BRRY 140G0000002000+00001753+00000+0001T   00001753+0000001614          1400 AS4150               1AZ
105406000105406               105406               170213TI     1400+00000+TI0000001753+0000001753+000000000+000000246+0000001990+0000000009+I20000000000+0000001990+Z
105406001105406077-000240     105406006003000326259G/RIBBON 4PC PEARLIZED 0000001000+00001753+00000+0001T   00001753+0000001614          1400 AS4112               1AZ
105407000105407               105407               170213TI     1400+00000+TI0000005907+0000005907+000000000+000000828+0000006730+0000000005+I20000000000+0000006730+Z
105407001105407112-116038     105407006009681820246TCS CARRIER BAG MIDI   0000001000+00000035+00000+0001T   00000035+0000001619          1400 AS4090               1AZ
105407002105407077-000452     105407006003000284986G/BAG METALLIC MED EMB 0000001000+00001490+00000+0001T   00001490+0000001619          1400 AS4112               1AZ
105407003105407077-000303     105407006001023593757GIFT-BAG PAPER MED     0000001000+00001578+00000+0001T   00001578+0000001619          1400 AS4112               1AZ
105407004105407077-000311     105407006001023608666GIFT-BAG 11X14CM GLOSS 0000002000+00000613+00000+0001T   00000613+0000001619          1400 AS4112               1AZ
105407005105407018-000127     105407006001023380289MUG OCC STRAIGHT LOVE  0000001000+00001578+00000+0001T   00001753+0006471619          1400 AS4515               1AZ
105408000105408               105408               170213TI     1400+00000+TI0000015386+0000015386+000000000+000002157+0000017543+0000000000+I40000017543+0000000000+Z
105408001105408112-116069     105408006009681820277TCS CARRIER BAG JUMBO  0000001000+00000048+00000+0001T   00000048+0000001648          1400 AS4090               1AZ
105408002105408468-002152     105408006003000515622EASTER BUNNY MASK      0000001000+00001314+00000+0001T   00001314+0000001648          1400 AS4110               1AZ
105408003105408366-007917     105408006003000653621DRESS UP MASK ANIMALS  0000001000+00000876+00000+0001T   00000876+0000001648          1400 AS4131               1AZ
105408004105408077-000452     105408006003000284986G/BAG METALLIC MED EMB 0000001000+00001490+00000+0001T   00001490+0000001648          1400 AS4112               1AZ
105408005105408007-000537     105408000651728791017NOTE-PAD RND SMILE-FACE0000001000+00000700+00000+0001T   00000700+0000001648          1400 AS4130               1AZ
105408006105408560-000700     105408006001023865830GROWING ANIMALS ASSTD  0000001000+00001578+00000+0001T   00001578+0000001648          1400 AS4745               1AZ
105408007105408071-001362     105408006003000589258HIGHLIGHTER 4 PACK     0000001000+00002630+00000+0001T   00002630+0000001648          1400 AS4130               1AZ
105408008105408368-000048     105408006003000537075PLUSH FINGER PUPPETS   0000001000+00003507+00000+0001T   00003507+0000001648          1400 AS4745               1AZ
105408009105408033-000125     105408006009654960658COMBS GENTS MINI 2PC   0000001000+00001051+00000+0001T   00001051+0000001648          1400 AS4200               1AZ
105408010105408077-000926     105408006003000414178G/WRAP 700mmx2m LOVE   0000001000+00002192+00000+0001T   00002192+0000001648          1400 AS4112               1AZ
105409000105409               105409               170213TI     1400+00000+TI0000001576+0000001576+000000000+000000222+0000001790+0000000008+I20000000000+0000001790+Z
105409001105409077-000010-C   105409006001023123879CREPE-PAPER RED        0000002000+00000788+00000+0001T   00000788+0000001649          1400 AS4112               1AZ
105410000105410               105410               170213TI     1400+00000+TI0000007629+0000007629+000000000+000001069+0000008690+0000000008+I20000000000+0000008690+Z
105410001105410018-050000     105410006003000412679MUG OCC LOVE TWIN BEAR 0000001000+00006139+00000+0001T   00006139+0000001652          1400 AS4515               1AZ
105410002105410077-000299     105410006003000395576G/BAG 32x25cm LRG LOVE 0000001000+00001490+00000+0001T   00001490+0000001652          1400 AS4112               1AZ
105411000105411               105411               170213TI     1400+00000+TI0000004556+0000004556+000000000+000000640+0000005190+0000000006+I20000000000+0000005190+Z
105411001105411039-000026     105411006001023551610C/TAPERED 25CM M/RED   0000002000+00001051+00000+0001T   00001051+0000001701          1400 AS4510               1CZ
105411002105411040-000213     105411006001023617736CANDLE-HOLDER DAISY    0000002000+00001227+00000+0001T   00001227+0000001701          1400 AS4510               1CZ
A17021300                                          08585496TISLAVE 1                       AS42IC
M17021391                              CASH        TISLAVE 1                       Z-REPORT No.   178TOTAL (Sales - Refunds)           5186.04       CASH TO BE BANKED                 1485.40       DEBIT CARDS                          0.00       CREDIT CARDS                      3606.24       Z-READING                         5091.64       AIRTIME DEBIT CARD SALES             0.00       AIRTIME CARD SALES                   0.00       OVERS/UNDERS                         0.00       AIRTIME CASH SALES                   0.00       GIFT CARDS                           0.00       GIFT CARD CASH SALES                 0.00       POSTAGE                             59.40       STAFF-REFRESHMENTS                  34.98       ROUNDING                             0.02       T O T A L  CASH PAYOUTS             94.40                                                                                                                                                                                                      Z
M17021392                              CASH        TIABSENT                                                                                                                                                                                          ANNUAL LEAVE                                                                                                                                                                                    DAY OFF                                                                                                                                                                                         COMMENTS                                                                                                                                                                                                                                                                                                                                                                                       Z
Y17021300                                          TI00007400454973+000035
ZTI17021406143 SLAVE 1      SALES DATA                     NEXT INVOICE NO.  105412 0178
X TI Slave 1 First invoice 105373 170213 Last invoice 105411 170213 Next invoice 105412 Total number of records 000000185 clbackup completed 06:14:52
