205799000205799               205799               170213TI     1400+00000+TI0000007410+0000007410+000000000+000001040+0000008450+0000000000+I20000000000+0000008450+Z
205799001205799112-116069     205799006009681820277TCS CARRIER BAG JUMBO  0000001000+00000048+00000+0001T   00000048+0000000854          1400 DP7090               2AZ
205799002205799018-000136     205799006001023659026MUG OCC LOVE W/PLUSH   0000001000+00003507+00000+0001T   00003507+0000000854          1400 DP7515               2AZ
205799003205799306-000021-C   205799006003000567294EARBUDS 300PCE IN TUB  0000001000+00001753+00000+0001T   00001753+0000000854          1400 DP7200               2AZ
205799004205799039-000026     205799006001023551610C/TAPERED 25CM M/RED   0000002000+00001051+00000+0001T   00001051+0000000854          1400 DP7510               2AZ
205800000205800               205800               170213TI     1400+00000+TI0000010962+0000010962+000000000+000001536+0000012490+0000000008+I20000000000+0000012490+Z
205800001205800467-000019     205800006001023746832BEACH-SET 16PCE BUCKET 0000001000+00007893+00000+0001T   00007893+0000000901          1400 DP7785               2AZ
205800002205800106-000899     205800006003000653287WTR BOTTLE 2L W/HANDLE 0000001000+00003069+00000+0001T   00003507+0008190901          1400 DP7210               2AZ
205801000205801               205801               170213TI     1400+00000+TI0000004634+0000004634+000000000+000000654+0000005280+0000000008+I20000000000+0000005280+Z
205801001205801006-000172-H   205801006003000610211BALLOONS METALLIC RED  0000010000+00000218+00000+0001T   00000218+0000000923          1400 DP7131               2AZ
205801002205801077-000245     205801006001023759214GIFT-RIBBON METALLICx2 0000002000+00001227+00000+0001T   00001227+0000000923          1400 DP7112               2AZ
205802000205802               205802               170213TI     1400+00000+TI0000007977+0000007977+000000000+000001117+0000009090+0000000004+I20000000000+0000009090+Z
205802001205802077-000310     205802006001023608635GIFT-BAG 18X23CM GLOSS 0000001000+00001314+00000+0001T   00001314+0000000942          1400 DP7112               2AZ
205802002205802903-000194     205802006009826020616SWT CHOC RP LOLLY 25G  0000001000+00001314+00000+0001T   00001314+0000000942          1400 DP7150               2AZ
205802003205802903-000843     205802008693029031067SWT GUMMY JELAXY 80G   0000001000+00000964+00000+0001T   00000964+0000000942          1400 DP7150               2AZ
205802004205802031-000870-A   205802006001023798626P/FRAME WOOD WHITE-PINE0000001000+00004385+00000+0001T   00004385+0000000942          1400 DP7510               2AZ
205803000205803               205803               170213TI     1400+00000+TI0000014777+0000014777+000000000+000002072+0000016840+0000000009+I20000000000+0000016840+Z
205803001205803112-116069     205803006009681820277TCS CARRIER BAG JUMBO  0000001000+00000048+00000+0001T   00000048+0000000944          1400 DP7090               2AZ
205803002205803306-000024-A   205803006003000577309COTTON-WOOL-PADS 80PC  0000001000+00001753+00000+0001T   00001753+0000000944          1400 DP7200               2AZ
205803003205803034-079090     205803006001023855503COOEY BRUSH+COMB-SET   0000001000+00004385+00000+0001T   00004385+0000000944          1400 DP7215               2AZ
205803004205803105-001032     205803000700371696634CONTAINER FOODSAVER 1.20000001000+00001753+00000+0001T   00001753+0000000944          1400 DP7210               2AZ
205803005205803903-000119     205803006001704007337SWT COCONUT-WHEEL      0000002000+00000788+00000+0001T   00000788+0000000944          1400 DP7150               2AZ
205803006205803105-001076     205803006003000279166CONTAINER CLIP LOCK 2L 0000001000+00005262+00000+0001T   00005262+0000000944          1400 DP7210               2AZ
205804000205804               205804               170213TI     1400+00000+TI0000017492+0000017492+000000000+000002451+0000019940+0000000003+I20000000000+0000019940+Z
205804001205804112-116069     205804006009681820277TCS CARRIER BAG JUMBO  0000001000+00000048+00000+0001T   00000048+0000000951          1400 DP7090               2AZ
205804002205804567-011312     205804006003000593842BOOK READER PLAKKERPRET0000001000+00003507+00000+0001T   00004385+0008140951          1400 DP7757               2AZ
205804003205804046-000012     205804006904708013062BATTERIES AA  CARD-OF-40000001000+00001314+00000+0001T   00001314+0000000951          1400 DP7312               2AZ
205804004205804033-000013     205804006001023567215PILL-REMINDER PL       0000001000+00001227+00000+0001T   00001227+0000000951          1400 DP7200               2AZ
205804005205804566-001228     205804006003000284153STICKERS CRYSTAL ASSTD 0000001000+00001753+00000+0001T   00001753+0000000951          1400 DP7130               2AZ
205804006205804566-000352     205804006001023809261STICKERS LASER ASSTD   0000001000+00002192+00000+0001T   00002192+0000000951          1400 DP7130               2AZ
205804007205804048-000826     205804006001023753045TORCH LED W/ZOOM SMALL 0000001000+00003507+00000+0001T   00003507+0000000951          1400 DP7305               2AZ
205804008205804071-001362     205804006003000589258HIGHLIGHTER 4 PACK     0000001000+00002630+00000+0001T   00002630+0000000951          1400 DP7130               2AZ
205804009205804903-005007     205804006002580020311SWT MALLOW BEAR M/SHAKE0000001000+00001314+00000+0001T   00001314+0000000951          1400 DP7150               2AZ
205805000205805               205805               170213TI     1400+00000+TI0000019775+0000019775+000000000+000002772+0000022540+0000000007+I20000000000+0000022540+Z
205805001205805112-116069     205805006009681820277TCS CARRIER BAG JUMBO  0000001000+00000048+00000+0001T   00000048+0000000957          1400 DP7090               2AZ
205805002205805903-004961     205805008410525221866SWT GUMMY FINI WILD 50g0000001000+00000964+00000+0001T   00000964+0000000957          1400 DP7150               2AZ
205805003205805903-000892     205805008693029700420SWT NOVELTY CHOCO CREAM0000001000+00000788+00000+0001T   00000788+0000000957          1400 DP7150               2AZ
205805004205805036-005010     205805006002580008739COATHANGER KIDDIES PL  0000001000+00002630+00000+0001T   00002630+0000000957          1400 DP7212               2AZ
205805005205805006-000852     205805006009645923242PARTY LUCKY-PCKT UNISEX0000001000+00003946+00000+0001T   00003946+0000000957          1400 DP7131               2AZ
205805006205805006-000852     205805006009645920395PARTY LUCKY-PCKT UNISEX0000001000+00003946+00000+0001T   00003946+0000000957          1400 DP7131               2AZ
205805007205805006-000852     205805006009645927349PARTY LUCKY-PCKT UNISEX0000001000+00003946+00000+0001T   00003946+0000000957          1400 DP7131               2AZ
205805008205805567-011904     205805006003000676125BK EDUCATIONAL AFR 2   0000001000+00003507+00000+0001T   00004385+0008140957          1400 DP7757               2AZ
205806000205806               205806               170213TI     1400+00000+TI0000013153+0000013153+000000000+000001843+0000014990+0000000006+I20000000000+0000014990+Z
205806001205806018-000136     205806006001023659026MUG OCC LOVE W/PLUSH   0000001000+00003507+00000+0001T   00003507+0000001020          1400 DP7515               2AZ
205806002205806079-011520     205806006003000160549ART+CRAFT SET SAND BOTL0000001000+00007016+00000+0001T   00007893+0008191020          1400 DP7130               2AZ
205806003205806077-000270     205806006003000395453GIFT-BAG PPR JMB 33X45 0000001000+00002630+00000+0001T   00002630+0000001020          1400 DP7112               2AZ
205807000205807               205807               170213TI     1400+00000+TI0000007892+0000007892+000000000+000001106+0000008990+0000000008+I20000000000+0000008990+Z
205807001205807567-000042     205807009781842057889BK DICTIONARY 399PG ENG0000002000+00003946+00000+0001T   00003946+0000001057          1400 DP7757               2AZ
205808000205808               205808               170213TI     1400+00000+TI0000000964+0000000964+000000000+000000135+0000001090+0000000009+I20000000000+0000001090+Z
205808001205808903-000843     205808008693029031067SWT GUMMY JELAXY 80G   0000001000+00000964+00000+0001T   00000964+0000001103          1400 DP7150               2AZ
205809000205809               205809               170213TI     1400+00000+TI0000071821+0000071821+000000000+000010062+0000081883+0000000000+I40000081883+0000000000+Z
205809001205809031-001001     205809006003000253265P/FRAME COL FAM-TREE   0000001000+00014911+00000+0001T   00014911+0000001124          1400 DP7510               2AZ
205809002205809112-116069     205809006009681820277TCS CARRIER BAG JUMBO  0000001000+00000048+00000+0001T   00000048+0000001124          1400 DP7090               2AZ
205809003205809031-000870-C   205809006001023798688P/FRAME WOOD WHITE-PINE0000001000+00006139+00000+0001T   00006139+0000001124          1400 DP7510               2AZ
205809004205809032-000236     205809006001023731647MIRROR PL STANDING OVAL0000003000+00003507+00000+0001T   00003507+0000001124          1400 DP7510               2AZ
205809005205809306-000001     205809006003000450152NAIL BRUSH SET 7/9/14cm0000001000+00002630+00000+0001T   00002630+0000001124          1400 DP7200               2AZ
205809006205809159-000636     205809006003000036035BATH PUMICE,BRUSH,FILE 0000001000+00001753+00000+0001T   00001753+0000001124          1400 DP7200               2AZ
205809007205809306-000023-A   205809006003000110148COTTON WOOL BALLS 50PCE0000001000+00000700+00000+0001T   00001314+0008171124          1400 DP7200               2AZ
205809008205809084-000365     205809006001023731135MANICURE SET ASSORTED  0000001000+00002192+00000+0001T   00002192+0000001124          1400 DP7200               2AZ
205809009205809306-000002     205809006003000365852NAIL BRUSHES 3PC ASTD  0000001000+00001753+00000+0001T   00001753+0000001124          1400 DP7200               2AZ
205809010205809084-000365     205809006001023731135MANICURE SET ASSORTED  0000002000+00002192+00000+0001T   00002192+0000001124          1400 DP7200               2AZ
205809011205809306-000002     205809006003000365852NAIL BRUSHES 3PC ASTD  0000001000+00001753+00000+0001T   00001753+0000001124          1400 DP7200               2AZ
205809012205809084-000365     205809006001023731135MANICURE SET ASSORTED  0000001000+00002192+00000+0001T   00002192+0000001124          1400 DP7200               2AZ
205809013205809084-078824     205809006003000385676NAIL FILES EMERY 24PC  0000001000+00001753+00000+0001T   00001753+0000001124          1400 DP7200               2AZ
205809014205809112-116069     205809006009681820277TCS CARRIER BAG JUMBO  0000001000+00000048+00000+0001T   00000048+0000001124          1400 DP7090               2AZ
205809015205809566-000316     205809006003000521821STICKERS MIRRORS HOME  0000001000+00006139+00000+0001T   00006139+0000001124          1400 DP7130               2AZ
205809016205809033-000780     205809006001023752611COSMETIC-BRUSH-SET 7PCE0000002000+00002192+00000+0001T   00002192+0000001124          1400 DP7200               2AZ
205809017205809084-000365     205809006001023731135MANICURE SET ASSORTED  0000004000+00002192+00000+0001T   00002192+0000001124          1400 DP7200               2AZ
205809018205809084-078824     205809006003000385676NAIL FILES EMERY 24PC  0000001000+00001753+00000+0001T   00001753+0000001124          1400 DP7200               2AZ
205810000205810               205810               170213TI     1400+00000+TI0000013151+0000013151+000000000+000001842+0000014993+0000000000+I40000014993+0000000000+Z
205810001205810567-011348     205810009780709717614BK STICKER ANIMAL WORLD0000001000+00003507+00000+0001T   00003507+0000001128          1400 DP7757               2AZ
205810002205810567-011349     205810009780709713661BK STICKER FUN & COLOUR0000001000+00003507+00000+0001T   00003507+0000001128          1400 DP7757               2AZ
205810003205810567-011904     205810006003000676125BK EDUCATIONAL AFR 2   0000001000+00003507+00000+0001T   00004385+0008141128          1400 DP7757               2AZ
205810004205810567-011521     205810009781775954743BK EDU AFR SLIMKOPPE   0000001000+00002630+00000+0001T   00002630+0000001128          1400 DP7757               2AZ
205811000205811               205811               170213TI     1400+00000+TI0000014119+0000014119+000000000+000001978+0000016090+0000000007+I20000000000+0000016090+Z
205811001205811368-000637     205811006001023874092PLUSH BEAR SLEEPING LOV0000001000+00011402+00000+0001T   00012279+0006471201          1400 DP7745               2AZ
205811002205811077-000290     205811006001023902023GIFT BOX 26x32x13cm    0000001000+00001753+00000+0001T   00001753+0000001201          1400 DP7112               2AZ
205811003205811903-000843     205811008693029031067SWT GUMMY JELAXY 80G   0000001000+00000964+00000+0001T   00000964+0000001201          1400 DP7150               2AZ
205812000205812               205812               170213TI     1400+00000+TI0000002227+0000002227+000000000+000000312+0000002530+0000000009+I20000000000+0000002530+Z
205812001205812071-000404     205812006001023676696P/SHARPENER WORLD-GLOBE0000001000+00002192+00000+0001T   00002192+0000001204          1400 DP7130               2AZ
205812002205812112-116038     205812006009681820246TCS CARRIER BAG MIDI   0000001000+00000035+00000+0001T   00000035+0000001204          1400 DP7090               2AZ
205813000205813               205813               170213TI     1400+00000+TI0000015584+0000015584+000000000+000002189+0000017773+0000000000+I40000017773+0000000000+Z
205813001205813112-116038     205813006009681820246TCS CARRIER BAG MIDI   0000001000+00000035+00000+0001T   00000035+0000001355          1400 DP7090               2AZ
205813002205813903-000011     205813006002099007315SWT MALLOW CHOC 15G    0000001000+00000437+00000+0001T   00000437+0000001355          1400 DP7150               2AZ
205813003205813085-007022     205813004711412009401P/KNIFE S/S 10-FUNCTION0000001000+00005262+00000+0001T   00005262+0000001355          1400 DP7305               2AZ
205813004205813077-000319     205813006001023609779GIFT-BAG 18X23CM BIRTHD0000001000+00001227+00000+0001T   00001227+0000001355          1400 DP7112               2AZ
205813005205813048-000865     205813006003000371433TORCH KEY CHAIN 5LED   0000001000+00002630+00000+0001T   00002630+0000001355          1400 DP7305               2AZ
205813006205813018-000177     205813006001023797513MUG MINI LOVE ASSTD    0000003000+00000700+00000+0001T   00000700+0000001355          1400 DP7515               2AZ
205813007205813903-000200     205813006009826020234SWT CHOC RP CHOCO 23G  0000002000+00000788+00000+0001T   00000788+0000001355          1400 DP7150               2AZ
205813008205813903-000183     205813006003000451043SWT LB HEART LOLLY     0000001000+00000393+00000+0001T   00000393+0000001355          1400 DP7150               2AZ
205813009205813903-000012     205813006002099007308SWT MALLOW S/BERRY     0000002000+00000437+00000+0001T   00000437+0000001355          1400 DP7150               2AZ
205813010205813903-000151     205813006009803374411SWT SML RND R/BOW LOLLY0000002000+00000525+00000+0001T   00000525+0000001355          1400 DP7150               2AZ
205814000205814               205814               170213TI     1400+00000+TI0000009413+0000009413+000000000+000001320+0000010730+0000000003+I20000000000+0000010730+Z
205814001205814112-116038     205814006009681820246TCS CARRIER BAG MIDI   0000001000+00000035+00000+0001T   00000035+0000001358          1400 DP7090               2AZ
205814002205814560-000700     205814006001023865830GROWING ANIMALS ASSTD  0000001000+00001578+00000+0001T   00001578+0000001358          1400 DP7745               2AZ
205814003205814565-001212     205814006001023658173NOVELTY MAGIC-SPRING   0000001000+00001753+00000+0001T   00001753+0000001358          1400 DP7745               2AZ
205814004205814565-000044     205814006003000128280BARREL OF SLIME 100g   0000001000+00000613+00000+0001T   00000613+0000001358          1400 DP7745               2AZ
205814005205814564-000024     205814006003000140985BUBBLE W/PAN PLAY SET  0000001000+00002630+00000+0001T   00002630+0000001358          1400 DP7131               2AZ
205814006205814903-000159     205814006003000417629SWT LB SMALL DUMMIE    0000001000+00000350+00000+0001T   00000350+0000001358          1400 DP7150               2AZ
205814007205814903-000504     205814006001704012416SWT CHOC JELLY BEANS   0000002000+00001227+00000+0001T   00001227+0000001358          1400 DP7150               2AZ
205815000205815               205815               170213TI     1400+00000+TI0000000525+0000000525+000000000+000000074+0000000590+0000000009+I20000000000+0000000590+Z
205815001205815903-000151     205815006009803374411SWT SML RND R/BOW LOLLY0000001000+00000525+00000+0001T   00000525+0000001411          1400 DP7150               2AZ
205816000205816               205816               170213TI     1400+00000+TI0000008185+0000008185+000000000+000001148+0000009330+0000000003+I20000000000+0000009330+Z
205816001205816112-116038     205816006009681820246TCS CARRIER BAG MIDI   0000001000+00000035+00000+0001T   00000035+0000001413          1400 DP7090               2AZ
205816002205816018-000170     205816006001023775528MUG OCC. LOVE 2PC MINI 0000001000+00002192+00000+0001T   00002192+0000001413          1400 DP7515               2AZ
205816003205816089-000030     205816006003000575671K/CHAIN LOVE MTL ASSTD 0000001000+00001753+00000+0001T   00001753+0000001413          1400 DP7205               2AZ
205816004205816304-001011     205816006001023806727FLWR ROSE RED W/BEAR   0000002000+00000613+00000+0001T   00000788+0006471413          1400 DP7510               2AZ
205816005205816077-000311     205816006001023608666GIFT-BAG 11X14CM GLOSS 0000001000+00000613+00000+0001T   00000613+0000001413          1400 DP7112               2AZ
205816006205816089-000030     205816006003000575671K/CHAIN LOVE MTL ASSTD 0000001000+00001753+00000+0001T   00001753+0000001413          1400 DP7205               2AZ
205816007205816077-000311     205816006001023608666GIFT-BAG 11X14CM GLOSS 0000001000+00000613+00000+0001T   00000613+0000001413          1400 DP7112               2AZ
205817000205817               205817               170213TI     1400+00000+TI0000001708+0000001708+000000000+000000240+0000001948+0000000000+I40000001948+0000000000+Z
205817001205817903-000504     205817006001704012416SWT CHOC JELLY BEANS   0000001000+00001227+00000+0001T   00001227+0000001420          1400 DP7150               2AZ
205817002205817071-000012     205817006001177101006CHALK COLOUR 12PCE     0000001000+00000481+00000+0001T   00000481+0000001420          1400 DP7130               2AZ
205818000205818               205818               170213TI     1400+00000+TI0000003507+0000003507+000000000+000000491+0000003990+0000000008+I20000000000+0000003990+Z
205818001205818031-000847     205818006001023851871P/FRAME TWIN 10X15CM   0000001000+00003507+00000+0001T   00003507+0000001421          1400 DP7510               2AZ
205819000205819               205819               170213TI     1400+00000+TI0000032133+0000032133+000000000+000004509+0000036642+0000000000+I40000036642+0000000000+Z
205819001205819112-116069     205819006009681820277TCS CARRIER BAG JUMBO  0000001000+00000048+00000+0001T   00000048+0000001430          1400 DP7090               2AZ
205819002205819033-000008     205819006003000226818PILL REMINDER 28-COMPAR0000012000+00002630+00000+0001T   00002630+0000001430          1400 DP7200               2AZ
205819003205819007-000402     205819006009635830864EXERCISE-BOOK A4 72PGE 0000001000+00000525+00000+0001T   00000525+0000001430          1400 DP7130               2AZ
205820000205820               205820               170213TI     1400+00000+TI0000001788+0000001788+000000000+000000251+0000002030+0000000009+I20000000000+0000002030+Z
205820001205820200-003026     205820006003000276448REFUSE BAGS 10PCE GREEN0000001000+00001753+00000+0001T   00001753+0000001431          1400 DP7214               2AZ
205820002205820112-116038     205820006009681820246TCS CARRIER BAG MIDI   0000001000+00000035+00000+0001T   00000035+0000001431          1400 DP7090               2AZ
205821000205821               205821               170213TI     1400+00000+TI0000014247+0000014247+000000000+000001999+0000016246+0000000000+I40000016246+0000000000+Z
205821001205821112-116069     205821006009681820277TCS CARRIER BAG JUMBO  0000001000+00000048+00000+0001T   00000048+0000001436          1400 DP7090               2AZ
205821002205821903-000095     205821006001704011495SWT SPECKLED-EGGS 100G 0000003000+00002104+00000+0001T   00002104+0000001436          1400 DP7150               2AZ
205821003205821903-002851     205821000000087108538MENTOS ROLL STRAWBERRY 0000003000+00001051+00000+0001T   00001051+0000001436          1400 DP7150               2AZ
205821004205821018-000127     205821006001023380289MUG OCC STRAIGHT LOVE  0000003000+00001578+00000+0001T   00001753+0006471436          1400 DP7515               2AZ
205822000205822               205822               170213TI     1400+00000+TI0000002892+0000002892+000000000+000000405+0000003290+0000000007+I20000000000+0000003290+Z
205822001205822903-000843     205822008693029031067SWT GUMMY JELAXY 80G   0000003000+00000964+00000+0001T   00000964+0000001437          1400 DP7150               2AZ
205823000205823               205823               170213TI     1400+00000+TI0000001490+0000001490+000000000+000000209+0000001690+0000000009+I20000000000+0000001690+Z
205823001205823077-000299     205823006003000395576G/BAG 32x25cm LRG LOVE 0000001000+00001490+00000+0001T   00001490+0000001438          1400 DP7112               2AZ
205824000205824               205824               170213TI     1400+00000+TI0000005260+0000005260+000000000+000000738+0000005990+0000000008+I20000000000+0000005990+Z
205824001205824567-011911     205824009780799375442BK EDU VOORSPRONG AFR  0000001000+00002630+00000+0001T   00002630+0000001444          1400 DP7757               2AZ
205824002205824567-011912     205824009780799375459BK EDU VOORSPRONG AFR  0000001000+00002630+00000+0001T   00002630+0000001444          1400 DP7757               2AZ
205825000205825               205825               170213TI     1400+00000+TI0000011835+0000011835+000000000+000001659+0000013490+0000000004+I20000000000+0000013490+Z
205825001205825566-000359     205825006003000582709STICKER BOOK LOVE SPARK0000003000+00002192+00000+0001T   00002192+0000001452          1400 DP7130               2AZ
205825002205825077-000358     205825006003000329977GIFT-BAG KIDS 25X32CM  0000001000+00001753+00000+0001T   00001753+0000001452          1400 DP7112               2AZ
205825003205825077-000239     205825006003000160419GIFT-RIBBON ROLL PEARL 0000002000+00001753+00000+0001T   00001753+0000001452          1400 DP7112               2AZ
205826000205826               205826               170213TI     1400+00000+TI0000002276+0000002276+000000000+000000319+0000002590+0000000005+I20000000000+0000002590+Z
205826001205826077-000314     205826006003000181148GIFT-BAG 11X14CM MATT  0000001000+00000876+00000+0001T   00000876+0000001502          1400 DP7112               2AZ
205826002205826018-000177     205826006001023797513MUG MINI LOVE ASSTD    0000002000+00000700+00000+0001T   00000700+0000001502          1400 DP7515               2AZ
205827000205827               205827               170213TI     1400+00000+TI0000004906+0000004906+000000000+000000688+0000005590+0000000004+I20000000000+0000005590+Z
205827001205827261-000121     205827006001023341600GUN-CAPS 8-SHOT CARD-9 0000002000+00000700+00000+0001T   00000700+0000001503          1400 DP7710               2AZ
205827002205827261-002267     205827006001023665126GUN 8-SHOT SUPER-CAP   0000002000+00001753+00000+0001T   00001753+0000001503          1400 DP7710               2AZ
205828000205828               205828               170213TI     1400+00000+TI0000005611+0000005611+000000000+000000786+0000006390+0000000007+I20000000000+0000006390+Z
205828001205828006-000190     205828006003000685530BALLOONS LOVE 81x91cm  0000001000+00004385+00000+0001T   00004385+0000001508          1400 DP7131               2AZ
205828002205828006-001000     205828006003000093779HELIUM BALLOON FILL    0000002000+00000613+00000+0001T   00000613+0000001508          1400 DP7131               2AZ
205829000205829               205829               170213TI     1400+00000+TI0000005262+0000005262+000000000+000000737+0000005990+0000000009+I20000000000+0000005990+Z
205829001205829368-000171     205829006003000233250PLUSH BEAR 14cm        0000001000+00005262+00000+0001T   00005262+0000001511          1400 DP7745               2AZ
205830000205830               205830               170213TI     1400+00000+TI0000004385+0000004385+000000000+000000614+0000004990+0000000009+I20000000000+0000004990+Z
205830001205830105-008005     205830006002580009484STORAGE CONTAINER 7.5L 0000001000+00004385+00000+0001T   00004385+0000001515          1400 DP7210               2AZ
205831000205831               205831               170213TI     1400+00000+TI0000003068+0000003068+000000000+000000430+0000003490+0000000008+I20000000000+0000003490+Z
205831001205831018-000127     205831006001023380289MUG OCC STRAIGHT LOVE  0000001000+00001578+00000+0001T   00001753+0006471516          1400 DP7515               2AZ
205831002205831077-000299     205831006003000395576G/BAG 32x25cm LRG LOVE 0000001000+00001490+00000+0001T   00001490+0000001516          1400 DP7112               2AZ
205832000205832               205832               170213TI     1400+00000+TI0000001227+0000001227+000000000+000000172+0000001390+0000000009+I20000000000+0000001390+Z
205832001205832251-000040     205832006001023515865SEALTAPE CLEAR 48mmx50m0000001000+00001227+00000+0001T   00001227+0000001524          1400 DP7810               2AZ
205833000205833               205833               170213TI     1400+00000+TI0000019731+0000019731+000000000+000002764+0000022490+0000000005+I20000000000+0000022490+Z
205833001205833368-000012     205833006003000610464PLUSH BEAR 30cm SITTING0000001000+00008771+00000+0001T   00008771+0000001534          1400 DP7745               2AZ
205833002205833018-019000     205833006003000557288MUG OCC. LOVE JUMBO    0000001000+00005262+00000+0001T   00005262+0000001534          1400 DP7515               2AZ
205833003205833080-000127     205833006003000424351VALENTINES DAY 36x24CM 0000001000+00002192+00000+0001T   00002192+0000001534          1400 DP7112               2AZ
205833004205833077-000299-A   205833006003000670888GIFT-BAG PAPER JMB LOVE0000001000+00001753+00000+0001T   00001753+0000001534          1400 DP7112               2AZ
205833005205833903-000082     205833006001704014892SWT MINI WINE GUMS 100G0000001000+00001753+00000+0001T   00001753+0000001534          1400 DP7150               2AZ
205834000205834               205834               170213TI     1400+00000+TI0000004384+0000004384+000000000+000000614+0000004990+0000000008+I20000000000+0000004990+Z
205834001205834563-000318-L   205834006003000407088SERVIETTES 33cm RED    0000002000+00002192+00000+0001T   00002192+0000001534          1400 DP7214               2AZ
205835000205835               205835               170213TI     1400+00000+TI0000005259+0000005259+000000000+000000737+0000005990+0000000006+I20000000000+0000005990+Z
205835001205835567-010159     205835006003000484881BOOK TOP ASSTD CHILDREN0000001000+00003507+00000+0001T   00003507+0000001536          1400 DP7757               2AZ
205835002205835903-003080     205835005907029004673SWT SNACK STIX CHOC 50g0000002000+00000876+00000+0001T   00000876+0000001536          1400 DP7150               2AZ
205836000205836               205836               170213TI     1400+00000+TI0000001578+0000001578+000000000+000000221+0000001790+0000000009+I20000000000+0000001790+Z
205836001205836077-000303     205836006001023593757GIFT-BAG PAPER MED     0000001000+00001578+00000+0001T   00001578+0000001536          1400 DP7112               2AZ
205837000205837               205837               170213TI     1400+00000+TI0000001753+0000001753+000000000+000000246+0000001990+0000000009+I20000000000+0000001990+Z
205837001205837084-006995     205837006003000092802NAIL CLIPPER 8cm TOE   0000001000+00001753+00000+0001T   00001753+0000001539          1400 DP7200               2AZ
205838000205838               205838               170213TI     1400+00000+TI0000001753+0000001753+000000000+000000246+0000001990+0000000009+I20000000000+0000001990+Z
205838001205838077-000289     205838006001023901996GIFT BOX 20x25x11cm    0000001000+00001753+00000+0001T   00001753+0000001603          1400 DP7112               2AZ
M17021391                              CASH        TISLAVE 2                       Z-REPORT No.   167TOTAL (Sales - Refunds)           4286.05       CASH TO BE BANKED                 2591.20       DEBIT CARDS                          0.00       CREDIT CARDS                      1694.85       Z-READING                         4286.05       AIRTIME DEBIT CARD SALES             0.00       AIRTIME CARD SALES                   0.00       OVERS/UNDERS                         0.00       AIRTIME CASH SALES                   0.00       GIFT CARDS                           0.00       GIFT CARD CASH SALES                 0.00       T O T A L  CASH PAYOUTS              0.00                                                                                                                                                                                                                                                                                                                                                      Z
M17021392                              CASH        TIABSENT                                                                                                                                                                                          ANNUAL LEAVE                                                                                                                                                                                    DAY OFF                                                                                                                                                                                         COMMENTS                                                                                                                                                                                                                                                                                                                                                                                       Z
Y17021300                                          TI00000000376114+000040
ZTI17021408123 SLAVE 2      SALES DATA                     NEXT INVOICE NO.  205839 0167
