108058000108058               108058               170213U1     1400+00000+U10000004384+0000004384+000000000+000000614+0000004998+0000000000+I40000004998+0000000000+Z
108058001108058566-000991     108058000721129013121STICKERS GLOW-IN-DARK  0000002000+00002192+00000+0001T   00002192+0000001155          1400 JM8130               1AZ
108059000108059               108059               170213U1     1400+00000+U10000003507+0000003507+000000000+000000491+0000003990+0000000008+I20000000000+0000003990+Z
108059001108059018-000136     108059006001023659026MUG OCC LOVE W/PLUSH   0000001000+00003507+00000+0001T   00003507+0000001225          1400 JM8515               1AZ
108060000108060               108060               170213U1     1400+00000+U10000005482+0000005482+000000000+000000768+0000006250+0000000000+I20000000000+0000006250+Z
108060001108060018-000136     108060006001023659026MUG OCC LOVE W/PLUSH   0000001000+00003507+00000+0001T   00003507+0000001340          1400 JM8515               1AZ
108060002108060077-000310     108060006001023608635GIFT-BAG 18X23CM GLOSS 0000001000+00001314+00000+0001T   00001314+0000001340          1400 JM8112               1AZ
108060003108060304-001011     108060006001023806727FLWR ROSE RED W/BEAR   0000001000+00000613+00000+0001T   00000788+0006471340          1400 JM8510               1AZ
108060004108060112-116069     108060006009681820277TCS CARRIER BAG JUMBO  0000001000+00000048+00000+0001T   00000048+0000001340          1400 JM8090               1AZ
108061000108061               108061               170213U1     1400+00000+U10000005482+0000005482+000000000+000000768+0000006250+0000000000+I20000000000+0000006250+Z
108061001108061112-116069     108061006009681820277TCS CARRIER BAG JUMBO  0000001000+00000048+00000+0001T   00000048+0000001341          1400 JM8090               1AZ
108061002108061077-000310     108061006001023608635GIFT-BAG 18X23CM GLOSS 0000001000+00001314+00000+0001T   00001314+0000001341          1400 JM8112               1AZ
108061003108061018-000136     108061006001023659026MUG OCC LOVE W/PLUSH   0000001000+00003507+00000+0001T   00003507+0000001341          1400 JM8515               1AZ
108061004108061304-001011     108061006001023806727FLWR ROSE RED W/BEAR   0000001000+00000613+00000+0001T   00000788+0006471341          1400 JM8510               1AZ
108062000108062               108062               170213U1     1400+00000+U10000005482+0000005482+000000000+000000768+0000006250+0000000000+I20000000000+0000006250+Z
108062001108062077-000310     108062006001023608635GIFT-BAG 18X23CM GLOSS 0000001000+00001314+00000+0001T   00001314+0000001343          1400 JM8112               1AZ
108062002108062112-116069     108062006009681820277TCS CARRIER BAG JUMBO  0000001000+00000048+00000+0001T   00000048+0000001343          1400 JM8090               1AZ
108062003108062018-000136     108062006001023659026MUG OCC LOVE W/PLUSH   0000001000+00003507+00000+0001T   00003507+0000001343          1400 JM8515               1AZ
108062004108062304-001011     108062006001023806727FLWR ROSE RED W/BEAR   0000001000+00000613+00000+0001T   00000788+0006471343          1400 JM8510               1AZ
108063000108063               108063               170213U1     1400+00000+U10000004821+0000004821+000000000+000000675+0000005490+0000000006+I20000000000+0000005490+Z
108063001108063077-000310     108063006001023608635GIFT-BAG 18X23CM GLOSS 0000001000+00001314+00000+0001T   00001314+0000001355          1400 JM8112               1AZ
108063002108063018-000136     108063006001023659026MUG OCC LOVE W/PLUSH   0000001000+00003507+00000+0001T   00003507+0000001355          1400 JM8515               1AZ
108064000108064               108064               170213U1     1400+00000+U10000002630+0000002630+000000000+000000369+0000002990+0000000009+I20000000000+0000002990+Z
108064001108064079-000254     108064006002923016407ART APRON ASSTD        0000001000+00002630+00000+0001T   00002630+0000001506          1400 JM8130               1AZ
108065000108065               108065               170213U1     1400+00000+U10000005570+0000005570+000000000+000000781+0000006350+0000000001+I20000000000+0000006350+Z
108065001108065077-000310     108065006001023608635GIFT-BAG 18X23CM GLOSS 0000001000+00001314+00000+0001T   00001314+0000001510          1400 JM8112               1AZ
108065002108065018-000129     108065006001023403353MUG OCC. LOVE V-SHAPE  0000001000+00002630+00000+0001T   00002630+0000001510          1400 JM8515               1AZ
108065003108065018-000127     108065006001023380289MUG OCC STRAIGHT LOVE  0000001000+00001578+00000+0001T   00001753+0006471510          1400 JM8515               1AZ
108065004108065112-116069     108065006009681820277TCS CARRIER BAG JUMBO  0000001000+00000048+00000+0001T   00000048+0000001510          1400 JM8090               1AZ
108066000108066               108066               170213U1     1400+00000+U10000008765+0000008765+000000000+000001230+0000009990+0000000005+I20000000000+0000009990+Z
108066001108066019-071595     108066006001023756428PEBBLES 250g SKY-BLUE  0000005000+00001753+00000+0001T   00001753+0000001511          1400 JM8510               1AZ
108067000108067               108067               170213U1     1400+00000+U10000001051+0000001051+000000000+000000148+0000001190+0000000009+I20000000000+0000001190+Z
108067001108067903-002850     108067000000087108262MENTOS ROLL FRUIT      0000001000+00001051+00000+0001T   00001051+0000001547          1400 JM8150               1AZ
A17021300                                          12544171U1SLAVE 1                       JM82IC
J17021303                        JOHANNES MENONG   U1903-000155      SWT LOLLY I LUV U HEART 000018  030-004010      PLAQUE WDN SIGN 35X28CM 000006  903-000611      SWT SNAPPER 20cm        000024  903-000077      SWT GS MAGIC ROCK FRUIT 000024  903-000619      SWT LOLLY STR/BRRY 140G 000024  046-000014-A    BATTERIES SIZE:AAA 8PCE 000020  079-000358      ART+CRAFT FELT-TIP PENS 000024  079-013099      ART+CRAFT EYES ASSTD    000024  079-105603      ART+CRAFT STAMP ROUND   000012  079-000254      ART APRON ASSTD         000006  007-010505      BLACKBOARD VINYL        000006  366-002699      DRESS UP HAT COWGIRL    000012  004-078990      EARPHONES MINI 1.2m     000012  403-000509      MONEY-BANK PL. PIGGY    000012  261-008552      CAP-GUN           ASSTD 000012  466-008889      WHISTLE SPORTS+STRING   000012  466-001100      C/SET FOAM 60cm +1 BALL 000006  466-000518      BADMINTON SET           000012  265-000316      CAR RADIO-CONTROL       000010  003-009213      O/INSECT STONE 22CM     000006 Z
J17021304                        JOHANNES MENONG   U1403-000508      M-BANK PIGGY W/HAMMER   000006  049-001820      DOORMAT RUBBER MOULDED  000010  037-000008      ASHTRAY TIN TUB 10X7.5  000012  038-047243      PLACE-MAT WITH COASTERS 000012  105-001028      LUNCH BOX W/CLIPS       000006  036-000606      WASHING PEGS PACK 20    000020  040-000922      CANDLE-HOLDER GLS 18cm  000024  040-000923      CANDLE-HOLDER GLS 13.5  000024  088-000107      DIFFUSER SET FLOWER     000012  088-000108      POTPOURRI-OIL 10ml ASST 000024  567-011305      BOOK RELIGIOUS AFR      000006  903-002853      MENTOS ROLL MINT        000048  903-000517      SWT STRAWS FIZZY CHERRY 000024  071-005667      STAPLER SET MTL W/STPLS 000006  016-000826      BOTTLE GLS W/LID ASSTD  000012  001-000001      SHOT-GLASS 25ml         000024  077-000324      GIFT-BAG 33X45CM E/D FL 000024  002-021064      TOOTHPICKS IN-HOLDER    000012  020-006200      KNIVES PARING 2PCE H/H  000012  002-000880      CAN-OPENER WHITE        000012 Z
M17021391                              CASH        U1SLAVE 1                       Z-REPORT No.   296TOTAL (Sales - Refunds)            537.48       CASH TO BE BANKED                  487.50       DEBIT CARDS                          0.00       CREDIT CARDS                        49.98       Z-READING                          537.48       AIRTIME DEBIT CARD SALES             0.00       AIRTIME CARD SALES                   0.00       OVERS/UNDERS                         0.00       AIRTIME CASH SALES                   0.00       GIFT CARDS                           0.00       GIFT CARD CASH SALES                 0.00       T O T A L  CASH PAYOUTS              0.00                                                                                                                                                                                                                                                                                                                                                      Z
M17021392                              CASH        U1ABSENT                                                                                                                                                                                          ANNUAL LEAVE                                                                                                                                                                                    DAY OFF                                                                                                                                                                                         COMMENTS                                                                                                                                                                                                                                                                                                                                                                                       Z
Y17021300                                          U100001000047174+000010
ZU117021321263 SLAVE 1      SALES DATA                     NEXT INVOICE NO.  108068 0296
X U1 Slave 1 First invoice 108058 170213 Last invoice 108067 170213 Next invoice 108068 Total number of records 000000040 clbackup completed 21:26:01
