207654000207654               207654               170213U1     1400+00000+U10000000876+0000000876+000000000+000000123+0000000990+0000000009+I20000000000+0000000990+Z
207654001207654077-000150-D   207654006003000054343GIFT-WRAP CELLPHANE CLR0000001000+00000876+00000+0001T   00000876+0000000854          1400 TM8112               2AZ
207655000207655               207655               170213U1     1400+00000+U10000001752+0000001752+000000000+000000246+0000001990+0000000008+I20000000000+0000001990+Z
207655001207655565-000013     207655006003000672233NOVELTY TWISTY 21cm    0000002000+00000876+00000+0001T   00000876+0000000910          1400 TM8745               2AZ
207656000207656               207656               170213U1     1400+00000+U10000006139+0000006139+000000000+000000860+0000006990+0000000009+I20000000000+0000006990+Z
207656001207656039-000798     207656006001023617774CANDLES TEALITE BOX-50 0000001000+00006139+00000+0001T   00006139+0000000912          1400 TM8510               2AZ
207657000207657               207657               170213U1     1400+00000+U10000003152+0000003152+000000000+000000444+0000003596+0000000000+I40000003596+0000000000+Z
207657001207657903-000200     207657006009826020234SWT CHOC RP CHOCO 23G  0000004000+00000788+00000+0001T   00000788+0000000932          1400 TM8150               2AZ
207658000207658               207658               170213U1     1400+00000+U10000003542+0000003542+000000000+000000496+0000004030+0000000008+I20000000000+0000004030+Z
207658001207658562-000020     207658006003000600861EDU PLAY DOUGH 60g 4PC 0000001000+00003507+00000+0001T   00003507+0000000948          1400 TM8755               2AZ
207658002207658112-116038     207658006009681820246TCS CARRIER BAG MIDI   0000001000+00000035+00000+0001T   00000035+0000000948          1400 TM8090               2AZ
207659000207659               207659               170213U1     1400+00000+U10000004066+0000004066+000000000+000000571+0000004630+0000000007+I20000000000+0000004630+Z
207659001207659112-116038     207659006009681820246TCS CARRIER BAG MIDI   0000001000+00000035+00000+0001T   00000035+0000000950          1400 TM8090               2AZ
207659002207659018-000129     207659006001023403353MUG OCC. LOVE V-SHAPE  0000001000+00002630+00000+0001T   00002630+0000000950          1400 TM8515               2AZ
207659003207659304-001011     207659006001023806727FLWR ROSE RED W/BEAR   0000001000+00000613+00000+0001T   00000788+0006470950          1400 TM8510               2AZ
207659004207659903-000200     207659006009826020234SWT CHOC RP CHOCO 23G  0000001000+00000788+00000+0001T   00000788+0000000950          1400 TM8150               2AZ
207660000207660               207660               170213U1     1400+00000+U10000014685+0000014685+000000000+000002060+0000016745+0000000000+I40000016745+0000000000+Z
207660001207660112-116069     207660006009681820277TCS CARRIER BAG JUMBO  0000001000+00000048+00000+0001T   00000048+0000001014          1400 TM8090               2AZ
207660002207660903-000126     207660006002099003591SWT ZILLIONS MINT 50G  0000001000+00000700+00000+0001T   00000700+0000001014          1400 TM8150               2AZ
207660003207660071-003853     207660006001023715579PENCIL BASIC HB 12PCE  0000001000+00001753+00000+0001T   00001753+0000001014          1400 TM8130               2AZ
207660004207660903-002891     207660008935001721376MENTOS GUM WINTERGREEN 0000001000+00001051+00000+0001T   00001051+0000001014          1400 TM8150               2AZ
207660005207660079-000512     207660006001023635853CRAYONS WAX 12-COLOUR  0000001000+00001490+00000+0001T   00001490+0000001014          1400 TM8130               2AZ
207660006207660002-021040     207660006001023812216PARTY-PICKS 100PCE     0000001000+00000525+00000+0001T   00000525+0000001014          1400 TM8300               2AZ
207660007207660263-000413     207660006003000600458VEHICLE RACER PULL BACK0000001000+00001490+00000+0001T   00001490+0000001014          1400 TM8710               2AZ
207660008207660564-001028     207660006001023708663BUBBLE CELEBRATION 6ml 0000002000+00003069+00000+0001T   00003069+0000001014          1400 TM8131               2AZ
207660009207660564-000036     207660006001023708694BUBBLE W/PUZZLE        0000001000+00001490+00000+0001T   00001490+0000001014          1400 TM8131               2AZ
207661000207661               207661               170213U1     1400+00000+U10000011836+0000011836+000000000+000001658+0000013494+0000000000+I40000013494+0000000000+Z
207661001207661903-000194     207661006009826020616SWT CHOC RP LOLLY 25G  0000002000+00001314+00000+0001T   00001314+0000001016          1400 TM8150               2AZ
207661002207661089-060027     207661006003000245871KEY-CHAIN HEART 6X6cm  0000001000+00003069+00000+0001T   00003069+0000001016          1400 TM8205               2AZ
207661003207661368-000104     207661006001023751348PLUSH BEAR RUFFLED-LOOK0000001000+00006139+00000+0001T   00006139+0000001016          1400 TM8745               2AZ
207662000207662               207662               170213U1     1400+00000+U10000001314+0000001314+000000000+000000184+0000001490+0000000008+I20000000000+0000001490+Z
207662001207662903-004950     207662006002580020304SWT APRICOT SURPRISE   0000001000+00001314+00000+0001T   00001314+0000001017          1400 TM8150               2AZ
207663000207663               207663               170213U1     1400+00000+U10000003542+0000003542+000000000+000000496+0000004030+0000000008+I20000000000+0000004030+Z
207663001207663018-005009     207663006001023725608MUG W/PLUSH-BEAR LOVE  0000001000+00003507+00000+0001T   00003507+0000001026          1400 TM8515               2AZ
207663002207663112-116038     207663006009681820246TCS CARRIER BAG MIDI   0000001000+00000035+00000+0001T   00000035+0000001026          1400 TM8090               2AZ
207664000207664               207664               170213U1     1400+00000+U10000004030+0000004030+000000000+000000566+0000004590+0000000006+I20000000000+0000004590+Z
207664001207664105-001010     207664006002580007329LUNCH-BOX 1L  ASSTD    0000001000+00000876+00000+0001T   00000876+0000001032          1400 TM8210               2AZ
207664002207664027-783002     207664006001023874658SCOURERS FOAM PACK OF 30000001000+00001490+00000+0001T   00001490+0000001032          1400 TM8212               2AZ
207664003207664108-001225     207664006003000010240SALAD BOWL MINI 380ML  0000001000+00000876+00000+0001T   00000876+0000001032          1400 TM8210               2AZ
207664004207664903-000200     207664006009826020234SWT CHOC RP CHOCO 23G  0000001000+00000788+00000+0001T   00000788+0000001032          1400 TM8150               2AZ
207665000207665               207665               170213U1     1400+00000+U10000000700+0000000700+000000000+000000098+0000000790+0000000008+I20000000000+0000000790+Z
207665001207665018-000177     207665006001023797513MUG MINI LOVE ASSTD    0000001000+00000700+00000+0001T   00000700+0000001032          1400 TM8515               2AZ
207666000207666               207666               170213U1     1400+00000+U10000016549+0000016549+000000000+000002329+0000018870+0000000008+I20000000000+0000018870+Z
207666001207666018-000127     207666006001023380289MUG OCC STRAIGHT LOVE  0000001000+00001578+00000+0001T   00001753+0006471047          1400 TM8515               2AZ
207666002207666368-000049     207666006003000536955PLUSH BEAR 15cm LOVE   0000001000+00004385+00000+0001T   00004385+0000001047          1400 TM8745               2AZ
207666003207666903-000094     207666006923431501622SWT GS CANDY NECKLACE  0000010000+00000437+00000+0001T   00000437+0000001047          1400 TM8150               2AZ
207666004207666903-000151     207666006009803374411SWT SML RND R/BOW LOLLY0000006000+00000525+00000+0001T   00000525+0000001047          1400 TM8150               2AZ
207666005207666903-000123     207666006925925909280SWEET GS MINI MALLOWS  0000002000+00000876+00000+0001T   00000876+0000001047          1400 TM8150               2AZ
207666006207666077-000310     207666006001023608635GIFT-BAG 18X23CM GLOSS 0000001000+00001314+00000+0001T   00001314+0000001047          1400 TM8112               2AZ
207667000207667               207667               170213U1     1400+00000+U10000001753+0000001753+000000000+000000246+0000001990+0000000009+I20000000000+0000001990+Z
207667001207667077-000316     207667006001023609731GIFT-BAG 25X32CM MATT  0000001000+00001753+00000+0001T   00001753+0000001053          1400 TM8112               2AZ
207668000207668               207668               170213U1     1400+00000+U10000005608+0000005608+000000000+000000788+0000006390+0000000006+I20000000000+0000006390+Z
207668001207668304-001204     207668006001023737984FLOWER OCC. TEDDY/ROSES0000004000+00001402+00000+0001T   00001490+0006471104          1400 TM8510               2AZ
207669000207669               207669               170213U1     1400+00000+U10000002630+0000002630+000000000+000000369+0000002999+0000000000+I40000002999+0000000000+Z
207669001207669403-000502-A   207669006003000467099M/BANK TIN 8x12.5cm    0000001000+00002630+00000+0001T   00002630+0000001116          1400 TM8510               2AZ
207670000207670               207670               170213U1     1400+00000+U10000005876+0000005876+000000000+000000823+0000006690+0000000009+I20000000000+0000006690+Z
207670001207670050-000264-Z   207670006001023777072PADLOCK BRS 38mm CARDED0000001000+00005876+00000+0001T   00005876+0000001127          1400 TM8855               2AZ
207671000207671               207671               170213U1     1400+00000+U10000004856+0000004856+000000000+000000680+0000005530+0000000006+I20000000000+0000005530+Z
207671001207671077-000310     207671006001023608635GIFT-BAG 18X23CM GLOSS 0000001000+00001314+00000+0001T   00001314+0000001143          1400 TM8112               2AZ
207671002207671018-000136     207671006001023659026MUG OCC LOVE W/PLUSH   0000001000+00003507+00000+0001T   00003507+0000001143          1400 TM8515               2AZ
207671003207671112-116038     207671006009681820246TCS CARRIER BAG MIDI   0000001000+00000035+00000+0001T   00000035+0000001143          1400 TM8090               2AZ
207672000207672               207672               170213U1     1400+00000+U10000003507+0000003507+000000000+000000491+0000003998+0000000000+I40000003998+0000000000+Z
207672001207672018-005009     207672006001023725608MUG W/PLUSH-BEAR LOVE  0000001000+00003507+00000+0001T   00003507+0000001147          1400 TM8515               2AZ
207673000207673               207673               170213U1     1400+00000+U10000015385+0000015385+000000000+000002158+0000017540+0000000003+I20000000000+0000017540+Z
207673001207673112-116069     207673006009681820277TCS CARRIER BAG JUMBO  0000001000+00000048+00000+0001T   00000048+0000001153          1400 TM8090               2AZ
207673002207673267-000311     207673006003000610730PUZZLE WOOD TRAY ASSTD 0000001000+00003507+00000+0001T   00003507+0000001153          1400 TM8755               2AZ
207673003207673140-001004     207673006001023880932FLY-RIBBONS 4PCE PL    0000003000+00001490+00000+0001T   00001490+0000001153          1400 TM8830               2AZ
207673004207673027-000917     207673006001023367433DUSTPAN-SET MINI 21x16 0000001000+00001753+00000+0001T   00001753+0000001153          1400 TM8212               2AZ
207673005207673047-000001-BB  207673006001023723536INS-TAPE BLACK 18mmx10m0000001000+00000613+00000+0001T   00000613+0000001153          1400 TM8880               2AZ
207673006207673251-000041     207673006001023515889SEAL-TAPE BUFF 48mmx50m0000001000+00001227+00000+0001T   00001227+0000001153          1400 TM8810               2AZ
207673007207673140-006004     207673006001023628077FLY-SWATTER RUBBER     0000001000+00001139+00000+0001T   00001139+0000001153          1400 TM8830               2AZ
207673008207673047-000001-BB  207673006001023723536INS-TAPE BLACK 18mmx10m0000001000+00000613+00000+0001T   00000613+0000001153          1400 TM8880               2AZ
207673009207673306-000021     207673006001023169433EARBUDS 100PCE IN BAG  0000001000+00000613+00000+0001T   00000613+0000001153          1400 TM8200               2AZ
207673010207673046-000011     207673004897006172994BATTERIES SIZE:AA  2PCE0000001000+00001402+00000+0001T   00001402+0000001153          1400 TM8312               2AZ
207674000207674               207674               170213U1     1400+00000+U10000004385+0000004385+000000000+000000614+0000004990+0000000009+I20000000000+0000004990+Z
207674001207674030-000031-A   207674006003000457588PLAQUE W/WORDS ASSTD   0000001000+00004385+00000+0001T   00004823+0006471154          1400 TM8505               2AZ
207675000207675               207675               170213U1     1400+00000+U10000006170+0000006170+000000000+000000864+0000007030+0000000004+I20000000000+0000007030+Z
207675001207675018-005009     207675006001023725608MUG W/PLUSH-BEAR LOVE  0000001000+00003507+00000+0001T   00003507+0000001215          1400 TM8515               2AZ
207675002207675903-000194     207675006009826020616SWT CHOC RP LOLLY 25G  0000001000+00001314+00000+0001T   00001314+0000001215          1400 TM8150               2AZ
207675003207675077-000310     207675006001023608635GIFT-BAG 18X23CM GLOSS 0000001000+00001314+00000+0001T   00001314+0000001215          1400 TM8112               2AZ
207675004207675112-116038     207675006009681820246TCS CARRIER BAG MIDI   0000001000+00000035+00000+0001T   00000035+0000001215          1400 TM8090               2AZ
207676000207676               207676               170213U1     1400+00000+U10000001400+0000001400+000000000+000000196+0000001590+0000000006+I20000000000+0000001590+Z
207676001207676564-000012     207676006001023130075BUBBLE BOTTLE MAGIC    0000002000+00000700+00000+0001T   00000700+0000001235          1400 TM8131               2AZ
207677000207677               207677               170213U1     1400+00000+U10000000613+0000000613+000000000+000000086+0000000690+0000000009+I20000000000+0000000690+Z
207677001207677077-000311     207677006001023608666GIFT-BAG 11X14CM GLOSS 0000001000+00000613+00000+0001T   00000613+0000001241          1400 TM8112               2AZ
207678000207678               207678               170213U1     1400+00000+U10000007016+0000007016+000000000+000000983+0000007990+0000000009+I20000000000+0000007990+Z
207678001207678586-096175     207678006001492961750WATCH LADIES WRAP STRAP0000001000+00007016+00000+0001T   00007016+0000001242          1400 TM8160               2AZ
207679000207679               207679               170213U1     1400+00000+U10000005262+0000005262+000000000+000000737+0000005990+0000000009+I20000000000+0000005990+Z
207679001207679036-000518     207679006003000419326HOOK HANGER CHROME     0000001000+00005262+00000+0001T   00005262+0000001243          1400 TM8212               2AZ
207680000207680               207680               170213U1     1400+00000+U10000005295+0000005295+000000000+000000743+0000006030+0000000008+I20000000000+0000006030+Z
207680001207680565-000893     207680006003000643516NOVELTY FLASHING BALL  0000001000+00002630+00000+0001T   00002630+0000001254          1400 TM8745               2AZ
207680002207680112-116038     207680006009681820246TCS CARRIER BAG MIDI   0000001000+00000035+00000+0001T   00000035+0000001254          1400 TM8090               2AZ
207680003207680903-000592     207680006003000563777SWT CELLPHONE 12cm     0000001000+00002630+00000+0001T   00002630+0000001254          1400 TM8150               2AZ
207681000207681               207681               170213U1     1400+00000+U10000002627+0000002627+000000000+000000370+0000002990+0000000007+I20000000000+0000002990+Z
207681001207681071-008229     207681006003000216017PENCIL-BAG ASTD COL A5 0000001000+00001753+00000+0001T   00001753+0000001304          1400 TM8130               2AZ
207681002207681903-000094     207681006923431501622SWT GS CANDY NECKLACE  0000002000+00000437+00000+0001T   00000437+0000001304          1400 TM8150               2AZ
207682000207682               207682               170213U1     1400+00000+U10000005262+0000005262+000000000+000000737+0000005990+0000000009+I20000000000+0000005990+Z
207682001207682464-009011     207682006003000647675FISHING WITH TWO RODS  0000001000+00005262+00000+0001T   00005262+0000001306          1400 TM8785               2AZ
207683000207683               207683               170213U1     1400+00000+U10000021049+0000021049+000000000+000002947+0000023990+0000000006+I20000000000+0000023990+Z
207683001207683030-004000-A   207683006003000498949W/SCONCE MTL ASSTD     0000001000+00017542+00000+0001T   00017542+0000001313          1400 TM8505               2AZ
207683002207683072-020310     207683006001023701015PET TOY MINI TENNIS BAL0000001000+00003507+00000+0001T   00003507+0000001313          1400 TM8870               2AZ
207684000207684               207684               170213U1     1400+00000+U10000003507+0000003507+000000000+000000491+0000003990+0000000008+I20000000000+0000003990+Z
207684001207684018-000136     207684006001023659026MUG OCC LOVE W/PLUSH   0000001000+00003507+00000+0001T   00003507+0000001329          1400 TM8515               2AZ
207685000207685               207685               170213U1     1400+00000+U10000000876+0000000876+000000000+000000123+0000000990+0000000009+I20000000000+0000000990+Z
207685001207685006-000223     207685006001023891327PARTY EYE-MASK 6PCE    0000001000+00000876+00000+0001T   00000876+0000001355          1400 TM8131               2AZ
207686000207686               207686               170213U1     1400+00000+U10000007541+0000007541+000000000+000001057+0000008598+0000000000+I40000008598+0000000000+Z
207686001207686027-000194     207686006001246602472MOP COMPLETE           0000001000+00002279+00000+0001T   00002279+0000001401          1400 TM8212               2AZ
207686002207686027-008816     207686006003000481644DUSTER SYNTHETIC 1.6m  0000001000+00005262+00000+0001T   00005262+0000001401          1400 TM8212               2AZ
207687000207687               207687               170213U1     1400+00000+U10000005569+0000005569+000000000+000000782+0000006350+0000000001+I20000000000+0000006350+Z
207687001207687018-030000     207687006003000421060MUG OCCASIONS LOVE 2PCE0000001000+00004385+00000+0001T   00004385+0000001415          1400 TM8515               2AZ
207687002207687108-003007     207687006002923006590MUG PL 375ml           0000001000+00000262+00000+0001T   00000262+0000001415          1400 TM8210               2AZ
207687003207687112-116069     207687006009681820277TCS CARRIER BAG JUMBO  0000001000+00000048+00000+0001T   00000048+0000001415          1400 TM8090               2AZ
207687004207687080-000133     207687006003000535613CARD&ENV MINI ASTD DSGN0000002000+00000437+00000+0001T   00000437+0000001415          1400 TM8112               2AZ
207688000207688               207688               170213U1     1400+00000+U10000001139+0000001139+000000000+000000160+0000001290+0000000009+I20000000000+0000001290+Z
207688001207688903-000710     207688006002099007056SWT REFRESHERS MINT    0000001000+00001139+00000+0001T   00001139+0000001418          1400 TM8150               2AZ
207689000207689               207689               170213U1     1400+00000+U10000001753+0000001753+000000000+000000246+0000001990+0000000009+I20000000000+0000001990+Z
207689001207689366-007600     207689006001023902184MASK THEATRICAL GLITTER0000001000+00001753+00000+0001T   00001753+0000001421          1400 TM8131               2AZ
207690000207690               207690               170213U1     1400+00000+U10000005085+0000005085+000000000+000000712+0000005790+0000000007+I20000000000+0000005790+Z
207690001207690018-005009     207690006001023725608MUG W/PLUSH-BEAR LOVE  0000001000+00003507+00000+0001T   00003507+0000001423          1400 TM8515               2AZ
207690002207690077-000315     207690006003000181186GIFT-BAG 20x28cm MATT  0000001000+00001578+00000+0001T   00001578+0000001423          1400 TM8112               2AZ
207691000207691               207691               170213U1     1400+00000+U10000004385+0000004385+000000000+000000614+0000004990+0000000009+I20000000000+0000004990+Z
207691001207691082-000100     207691006003000360246READING GLS STRENGHT:1 0000001000+00004385+00000+0001T   00004385+0000001440          1400 TM8160               2AZ
207692000207692               207692               170213U1     1400+00000+U10000003507+0000003507+000000000+000000491+0000003990+0000000008+I20000000000+0000003990+Z
207692001207692566-000317     207692006003000524204STICKER TAPE 2PCS      0000001000+00003507+00000+0001T   00003507+0000001441          1400 TM8130               2AZ
207693000207693               207693               170213U1     1400+00000+U10000001139+0000001139+000000000+000000160+0000001299+0000000000+I40000001299+0000000000+Z
207693001207693903-000087     207693006001704000161SWT SPECKLED-EGGS 50G  0000001000+00001139+00000+0001T   00001139+0000001447          1400 TM8150               2AZ
207694000207694               207694               170213U1     1400+00000+U10000010342+0000010342+000000000+000001449+0000011790+0000000001+I20000000000+0000011790+Z
207694001207694018-000170     207694006001023775528MUG OCC. LOVE 2PC MINI 0000001000+00002192+00000+0001T   00002192+0000001451          1400 TM8515               2AZ
207694002207694018-019000     207694006003000557288MUG OCC. LOVE JUMBO    0000001000+00005262+00000+0001T   00005262+0000001451          1400 TM8515               2AZ
207694003207694261-000121     207694006001023341600GUN-CAPS 8-SHOT CARD-9 0000003000+00000700+00000+0001T   00000700+0000001451          1400 TM8710               2AZ
207694004207694903-000200     207694006009826020234SWT CHOC RP CHOCO 23G  0000001000+00000788+00000+0001T   00000788+0000001451          1400 TM8150               2AZ
207695000207695               207695               170213U1     1400+00000+U10000000525+0000000525+000000000+000000074+0000000590+0000000009+I20000000000+0000000590+Z
207695001207695903-000151     207695006009803374411SWT SML RND R/BOW LOLLY0000001000+00000525+00000+0001T   00000525+0000001454          1400 TM8150               2AZ
207696000207696               207696               170213U1     1400+00000+U10000005120+0000005120+000000000+000000717+0000005830+0000000007+I20000000000+0000005830+Z
207696001207696301-085004     207696006003000420469ORN LOVE PLAQUE 21X10CM0000001000+00003507+00000+0001T   00003946+0006471500          1400 TM8505               2AZ
207696002207696018-000127     207696006001023380289MUG OCC STRAIGHT LOVE  0000001000+00001578+00000+0001T   00001753+0006471500          1400 TM8515               2AZ
207696003207696112-116038     207696006009681820246TCS CARRIER BAG MIDI   0000001000+00000035+00000+0001T   00000035+0000001500          1400 TM8090               2AZ
207697000207697               207697               170213U1     1400+00000+U10000001578+0000001578+000000000+000000221+0000001790+0000000009+I20000000000+0000001790+Z
207697001207697018-000127     207697006001023380289MUG OCC STRAIGHT LOVE  0000001000+00001578+00000+0001T   00001753+0006471512          1400 TM8515               2AZ
207698000207698               207698               170213U1     1400+00000+U10000011402+0000011402+000000000+000001597+0000012990+0000000009+I20000000000+0000012990+Z
207698001207698035-000030     207698006002596030229UMBRELLA GOLF 16-RIB   0000001000+00011402+00000+0001T   00011402+0000001542          1400 TM8205               2AZ
207699000207699               207699               170213U1     1400+00000+U10000002630+0000002630+000000000+000000369+0000002990+0000000009+I20000000000+0000002990+Z
207699001207699567-011425     207699009781472362896BK COLOURING PLAYTIME  0000001000+00002630+00000+0001T   00002630+0000001604          1400 TM8757               2AZ
207700000207700               207700               170213U1     1400+00000+U10000007483+0000007483+000000000+000001050+0000008530+0000000003+I20000000000+0000008530+Z
207700001207700565-000050     207700006001023906199SLIME BOMB DISPLAY BOX 0000002000+00001753+00000+0001T   00001753+0000001607          1400 TM8745               2AZ
207700002207700051-002401     207700006001023523570TRIGGER-SPRAYER   300ml0000001000+00001490+00000+0001T   00001490+0000001607          1400 TM8820               2AZ
207700003207700018-000177     207700006001023797513MUG MINI LOVE ASSTD    0000001000+00000700+00000+0001T   00000700+0000001607          1400 TM8515               2AZ
207700004207700077-000151     207700006008766114676GIFT-WRAP C/PHANE ASSTD0000002000+00000876+00000+0001T   00000876+0000001607          1400 TM8112               2AZ
207700005207700112-116038     207700006009681820246TCS CARRIER BAG MIDI   0000001000+00000035+00000+0001T   00000035+0000001607          1400 TM8090               2AZ
207701000207701               207701               170213U1     1400+00000+U10000004385+0000004385+000000000+000000614+0000004990+0000000009+I20000000000+0000004990+Z
207701001207701006-000190     207701006003000685530BALLOONS LOVE 81x91cm  0000001000+00004385+00000+0001T   00004385+0000001616          1400 TM8131               2AZ
207702000207702               207702               170213U1     1400+00000+U10000001490+0000001490+000000000+000000209+0000001690+0000000009+I20000000000+0000001690+Z
207702001207702565-000600     207702006003000643721NOVELTY WINDOW WALKER  0000001000+00001490+00000+0001T   00001490+0000001628          1400 TM87452IC            2AZ
207703000207703               207703               170213U1     1400+00000+U10000000788+0000000788+000000000+000000111+0000000890+0000000009+I20000000000+0000000890+Z
207703001207703071-081101-A   207703006003000326549GLUE-STICK 25g BLISTER 0000001000+00000788+00000+0001T   00000788+0000001630          1400 TM8130               2AZ
207704000207704               207704               170213U1     1400+00000+U10000004821+0000004821+000000000+000000675+0000005490+0000000006+I20000000000+0000005490+Z
207704001207704077-000310     207704006001023608635GIFT-BAG 18X23CM GLOSS 0000001000+00001314+00000+0001T   00001314+0000001643          1400 TM8112               2AZ
207704002207704018-005009     207704006001023725608MUG W/PLUSH-BEAR LOVE  0000001000+00003507+00000+0001T   00003507+0000001643          1400 TM8515               2AZ
207705000207705               207705               170213U1     1400+00000+U10000001578+0000001578+000000000+000000221+0000001790+0000000009+I20000000000+0000001790+Z
207705001207705018-000127     207705006001023380289MUG OCC STRAIGHT LOVE  0000001000+00001578+00000+0001T   00001753+0006471649          1400 TM8515               2AZ
207706000207706               207706               170213U1     1400+00000+U10000003363+0000003363+000000000+000000472+0000003830+0000000005+I20000000000+0000003830+Z
207706001207706903-000151     207706006009803374411SWT SML RND R/BOW LOLLY0000002000+00000525+00000+0001T   00000525+0000001651          1400 TM8150               2AZ
207706002207706560-000700     207706006001023865830GROWING ANIMALS ASSTD  0000001000+00001578+00000+0001T   00001578+0000001651          1400 TM8745               2AZ
207706003207706018-000177     207706006001023797513MUG MINI LOVE ASSTD    0000001000+00000700+00000+0001T   00000700+0000001651          1400 TM8515               2AZ
207706004207706112-116038     207706006009681820246TCS CARRIER BAG MIDI   0000001000+00000035+00000+0001T   00000035+0000001651          1400 TM8090               2AZ
207707000207707               207707               170213U1     1400+00000+U10000004385+0000004385+000000000+000000614+0000004990+0000000009+I20000000000+0000004990+Z
207707001207707368-000001     207707006003000097982Plush Bear 25cm        0000001000+00004385+00000+0001T   00004385+0000001701          1400 TM8745               2AZ
207708000207708               207708               170213U1     1400+00000+U10000003069+0000003069+000000000+000000430+0000003490+0000000009+I20000000000+0000003490+Z
207708001207708089-060027     207708006003000245871KEY-CHAIN HEART 6X6cm  0000001000+00003069+00000+0001T   00003069+0000001702          1400 TM8205               2AZ
207709000207709               207709               170213U1     1400+00000+U10000004208+0000004208+000000000+000000590+0000004790+0000000008+I20000000000+0000004790+Z
207709001207709077-000380     207709006003000247585GIFT-BAG 33X45CM S/COL 0000001000+00002455+00000+0001T   00002455+0000001703          1400 TM8112               2AZ
207709002207709080-000112     207709006003000252749CARD&ENVLP BDAY-MUSICAL0000001000+00001753+00000+0001T   00001753+0000001703          1400 TM8112               2AZ
207710000207710               207710               170213U1     1400+00000+U10000000876+0000000876+000000000+000000123+0000000990+0000000009+I20000000000+0000000990+Z
207710001207710089-000192-A   207710006001023901774KEY-CHAIN ACRYLIC      0000001000+00000876+00000+0001T   00000876+0000001705          1400 TM8205               2AZ
207711000207711               207711               170213U1     1400+00000+U10000007051+0000007051+000000000+000000988+0000008030+0000000009+I20000000000+0000008030+Z
207711001207711031-000017     207711006003000411436P/FRAME COLLAGE 3-HOLE 0000001000+00007016+00000+0001T   00007016+0000001713          1400 TM8510               2AZ
207711002207711112-116038     207711006009681820246TCS CARRIER BAG MIDI   0000001000+00000035+00000+0001T   00000035+0000001713          1400 TM8090               2AZ
207712000207712               207712               170213U1     1400+00000+U10000004385+0000004385+000000000+000000614+0000004990+0000000009+I20000000000+0000004990+Z
207712001207712368-000001     207712006003000097982Plush Bear 25cm        0000001000+00004385+00000+0001T   00004385+0000001717          1400 TM8745               2AZ
207712002207712903-000151     207712006009803374411SWT SML RND R/BOW LOLLY0000001000-00000525+00000+0001T   00000525+0000001717          1400 TM81502IC            2 Z
207712003207712903-000151     207712006009803374411SWT SML RND R/BOW LOLLY0000001000+00000525+00000+0001T   00000525+0000001717          1400 TM81502IC            2AZ
207713000207713               207713               170213U1     1400+00000+U10000002890+0000002890+000000000+000000406+0000003290+0000000006+I20000000000+0000003290+Z
207713001207713077-000315     207713006003000181186GIFT-BAG 20x28cm MATT  0000001000+00001578+00000+0001T   00001578+0000001720          1400 TM8112               2AZ
207713002207713903-000099     207713006923431501646SWT CANDY GS WTCH B/LET0000001000+00000262+00000+0001T   00000262+0000001720          1400 TM8150               2AZ
207713003207713903-000151     207713006009803374411SWT SML RND R/BOW LOLLY0000002000+00000525+00000+0001T   00000525+0000001720          1400 TM8150               2AZ
207714000207714               207714               170213U1     1400+00000+U10000001753+0000001753+000000000+000000246+0000001999+0000000000+I40000001999+0000000000+Z
207714001207714039-001023     207714006003000466337CANDLE TEA-LITE METALIC0000001000+00001753+00000+0001T   00001753+0000001730          1400 TM8510               2AZ
B20770200                                          170213U1565-000600     16280482SLAVE 2     TM82IC0000020000+0000001000+0000000000000+
M17021391                              CASH        U1SLAVE 2                       Z-REPORT No.   288TOTAL (Sales - Refunds)           3296.88       CASH TO BE BANKED                 2769.60       DEBIT CARDS                          0.00       CREDIT CARDS                       527.28       Z-READING                         3296.88       AIRTIME DEBIT CARD SALES             0.00       AIRTIME CARD SALES                   0.00       OVERS/UNDERS                         0.00       AIRTIME CASH SALES                   0.00       GIFT CARDS                           0.00       GIFT CARD CASH SALES                 0.00       T O T A L  CASH PAYOUTS              0.00                                                                                                                                                                                                                                                                                                                                                      Z
M17021392                              CASH        U1ABSENT                                                                                                                                                                                          ANNUAL LEAVE                                                                                                                                                                                    DAY OFF                                                                                                                                                                                         COMMENTS                                                                                                                                                                                                                                                                                                                                                                                       Z
Y17021300                                          U100006100290025+000061
ZU117021321263 SLAVE 2      SALES DATA                     NEXT INVOICE NO.  207715 0288
X U1 Slave 2 First invoice 207654 170213 Last invoice 207714 170213 Next invoice 207715 Total number of records 000000192 clbackup completed 21:26:04
