102649000102649               102649               170213V1     1400+00000+V10000006139+0000006139+000000000+000000860+0000006999+0000000000+I40000006999+0000000000+Z
102649001102649368-000175     102649006003000270316PLUSH BEAR 4 ASSTD 18CM0000001000+00006139+00000+0001T   00006139+0000000929          1400 ZK3745               1CZ
102650000102650               102650               170213V1     1400+00000+V10000007363+0000007363+000000000+000001033+0000008390+0000000006+I20000000000+0000008390+Z
102650001102650006-000111     102650006003000519385BALLOONS LARGE 12PCE   0000001000+00002630+00000+0001T   00002630+0000001033          1400 ZK3131               1BZ
102650002102650077-000351     102650006003000139033GIFT-BAG 18X23CM E/D P 0000002000+00001753+00000+0001T   00001753+0000001033          1400 ZK3112               1BZ
102650003102650903-000510     102650006001704012621SWEET MS ZBDZ S/BERRY  0000001000+00001227+00000+0001T   00001227+0000001033          1400 ZK3150               1BZ
102651000102651               102651               170213V1     1400+00000+V10000002665+0000002665+000000000+000000374+0000003030+0000000009+I20000000000+0000003030+Z
102651001102651007-000588     102651006001023810090NOTES SHOPPING-LIST+RIB0000001000+00002630+00000+0001T   00002630+0000001036          1400 ZK3130               1AZ
102651002102651112-116038     102651006003000534906TCS CARRIER BAG MIDI   0000001000+00000035+00000+0001T   00000035+0000001036          1400 ZK3090               1AZ
102652000102652               102652               170213V1     1400+00000+V10000027236+0000027236+000000000+000003814+0000031050+0000000000+I40000031050+0000000000+Z
102652001102652112-116069     102652006009681820277TCS CARRIER BAG JUMBO  0000001000+00000048+00000+0001T   00000048+0000001049          1400 ZK3090               1AZ
102652002102652039-000799     102652006001023692382CANDLES TEALITE 100PCE 0000002000+00008771+00000+0001T   00008771+0000001049          1400 ZK3510               1AZ
102652003102652018-005009     102652006001023725608MUG W/PLUSH-BEAR LOVE  0000001000+00003507+00000+0001T   00003507+0000001049          1400 ZK3515               1AZ
102652004102652368-000175     102652006003000270316PLUSH BEAR 4 ASSTD 18CM0000001000+00006139+00000+0001T   00006139+0000001049          1400 ZK3745               1AZ
102653000102653               102653               170213V1     1400+00000+V10000013812+0000013812+000000000+000001937+0000015749+0000000000+I40000015749+0000000000+Z
102653001102653079-000196     102653006003000211531P/CRAYON RETRCTBLEx10  0000001000+00004385+00000+0001T   00004385+0000001122          1400 ZK3130               1BZ
102653002102653560-000107     102653006003000547906DOMESTIC 3PC MINI PETS 0000001000+00001753+00000+0001T   00001753+0000001122          1400 ZK3745               1BZ
102653003102653079-000201     102653006003000161430P/CRAYONS THERAPY 10PCE0000001000+00002630+00000+0001T   00002630+0000001122          1400 ZK3130               1BZ
102653004102653266-000938     102653006001023186676SWORD+SCABBARD         0000001000+00002630+00000+0001T   00002630+0000001122          1400 ZK3710               1BZ
102653005102653079-000206     102653006003000639700PENCIL CRAYONS THERAPY 0000001000+00001753+00000+0001T   00001753+0000001122          1400 ZK3130               1BZ
102653006102653083-000055     102653006003000003853LIGHTER ELCTRNC REFILBL0000001000+00000613+00000+0001T   00000613+0000001122          1400 ZK3315               1BZ
102653007102653112-116069     102653006009681820277TCS CARRIER BAG JUMBO  0000001000+00000048+00000+0001T   00000048+0000001122          1400 ZK3090               1BZ
102654000102654               102654               170213V1     1400+00000+V10000014733+0000014733+000000000+000002064+0000016797+0000000000+I40000016797+0000000000+Z
102654001102654368-000111     102654006001023780812PLUSH BEAR/DOG 29CM    0000001000+00012279+00000+0001T   00012279+0000001123          1400 ZK3745               1BZ
102654002102654077-000323     102654006001023677563G/BAG 25X32CM E/DAY FLO0000001000+00001578+00000+0001T   00001578+0000001123          1400 ZK3112               1BZ
102654003102654027-783006     102654006003000060719SCOURERS SPONGE        0000001000+00000876+00000+0001T   00000876+0000001123          1400 ZK3212               1BZ
102655000102655               102655               170213V1     1400+00000+V10000000876+0000000876+000000000+000000123+0000000990+0000000009+I20000000000+0000000990+Z
102655001102655039-000319-8   102655006003000443222B/CANDLES LRG NUMBER-8 0000001000+00000876+00000+0001T   00000876+0000001124          1400 ZK3510               1BZ
102656000102656               102656               170213V1     1400+00000+V10000000613+0000000613+000000000+000000086+0000000690+0000000009+I20000000000+0000000690+Z
102656001102656083-000055     102656006003000003853LIGHTER ELCTRNC REFILBL0000001000+00000613+00000+0001T   00000613+0000001124          1400 ZK3315               1AZ
102657000102657               102657               170213V1     1400+00000+V10000008939+0000008939+000000000+000001252+0000010190+0000000001+I20000000000+0000010190+Z
102657001102657077-000322     102657006001023677532GIFT-BAG 18X23CM E/D FL0000001000+00001227+00000+0001T   00001227+0000001151          1400 ZK3112               1BZ
102657002102657077-000319     102657006001023609779GIFT-BAG 18X23CM BIRTHD0000001000+00001227+00000+0001T   00001227+0000001151          1400 ZK3112               1BZ
102657003102657006-000190     102657006003000685530BALLOONS LOVE 81x91cm  0000001000+00004385+00000+0001T   00004385+0000001151          1400 ZK3131               1BZ
102657004102657903-000070     102657006001704001106SWT TOFFEE CREAMY 35g  0000003000+00000700+00000+0001T   00000700+0000001151          1400 ZK3150               1BZ
102658000102658               102658               170213V1     1400+00000+V10000006174+0000006174+000000000+000000865+0000007039+0000000000+I40000007039+0000000000+Z
102658001102658368-000175     102658006003000270316PLUSH BEAR 4 ASSTD 18CM0000001000+00006139+00000+0001T   00006139+0000001154          1400 ZK3745               1CZ
102658002102658112-116038     102658006009681820246TCS CARRIER BAG MIDI   0000001000+00000035+00000+0001T   00000035+0000001154          1400 ZK3090               1CZ
102659000102659               102659               170213V1     1400+00000+V10000005291+0000005291+000000000+000000743+0000006034+0000000000+I40000006034+0000000000+Z
102659001102659036-000606     102659006003000322213WASHING PEGS PACK 20   0000006000+00000876+00000+0001T   00001314+0008191156          1400 ZK3212               1CZ
102659002102659112-116038     102659006009681820246TCS CARRIER BAG MIDI   0000001000+00000035+00000+0001T   00000035+0000001156          1400 ZK3090               1CZ
102660000102660               102660               170213V1     1400+00000+V10000007049+0000007049+000000000+000000987+0000008036+0000000000+I40000008036+0000000000+Z
102660001102660018-005009     102660006001023725608MUG W/PLUSH-BEAR LOVE  0000001000+00003507+00000+0001T   00003507+0000001158          1400 ZK3515               1BZ
102660002102660018-000136     102660006001023659026MUG OCC LOVE W/PLUSH   0000001000+00003507+00000+0001T   00003507+0000001158          1400 ZK3515               1BZ
102660003102660112-116038     102660006009681820246TCS CARRIER BAG MIDI   0000001000+00000035+00000+0001T   00000035+0000001158          1400 ZK3090               1BZ
102661000102661               102661               170213V1     1400+00000+V10000003203+0000003203+000000000+000000449+0000003650+0000000002+I20000000000+0000003650+Z
102661001102661200-000092     102661006003000576739PICNIC PAPER PLATES 23c0000001000+00001227+00000+0001T   00001227+0000001204          1400 ZK3214               1BZ
102661002102661200-000100     102661006001023764003CUPS 25PCE DISPOSABLE  0000001000+00001928+00000+0001T   00001928+0000001204          1400 ZK3214               1BZ
102661003102661112-116069     102661006009681820277TCS CARRIER BAG JUMBO  0000001000+00000048+00000+0001T   00000048+0000001204          1400 ZK3090               1BZ
102662000102662               102662               170213V1     1400+00000+V10000003804+0000003804+000000000+000000534+0000004330+0000000008+I20000000000+0000004330+Z
102662001102662112-116038     102662006009681820246TCS CARRIER BAG MIDI   0000001000+00000035+00000+0001T   00000035+0000001213          1400 ZK3090               1AZ
102662002102662036-000151     102662006001023810588COATHANGERS    PACK-10 0000001000+00002893+00000+0001T   00002893+0000001213          1400 ZK3212               1AZ
102662003102662078-000025     102662008887013700064SUPERGLUE 3g 1PCE CARD 0000001000+00000876+00000+0001T   00000876+0000001213          1400 ZK3810               1AZ
102663000102663               102663               170213V1     1400+00000+V10000006173+0000006173+000000000+000000865+0000007038+0000000000+I40000007038+0000000000+Z
102663001102663027-008815     102663006003000439799DUSTER 62cm RUBBER-GRIP0000001000+00004385+00000+0001T   00004385+0000001221          1400 ZK3212               1AZ
102663002102663028-000014     102663006001334001316ICE-BRICK SOLID MEDIUM 0000001000+00001753+00000+0001T   00001753+0000001221          1400 ZK3305               1AZ
102663003102663112-116038     102663006009681820246TCS CARRIER BAG MIDI   0000001000+00000035+00000+0001T   00000035+0000001221          1400 ZK3090               1AZ
102664000102664               102664               170213V1     1400+00000+V10000001051+0000001051+000000000+000000148+0000001190+0000000009+I20000000000+0000001190+Z
102664001102664033-000124     102664006009654960597COMBS HANDLE + TAIL 2PC0000001000+00001051+00000+0001T   00001051+0000001223          1400 ZK3200               1BZ
102665000102665               102665               170213V1     1400+00000+V10000003542+0000003542+000000000+000000496+0000004038+0000000000+I40000004038+0000000000+Z
102665001102665112-116038     102665006009681820246TCS CARRIER BAG MIDI   0000001000+00000035+00000+0001T   00000035+0000001228          1400 ZK3090               1AZ
102665002102665018-000136     102665006001023659026MUG OCC LOVE W/PLUSH   0000001000+00003507+00000+0001T   00003507+0000001228          1400 ZK3515               1AZ
102666000102666               102666               170213V1     1400+00000+V10000008802+0000008802+000000000+000001234+0000010030+0000000006+I20000000000+0000010030+Z
102666001102666112-116038     102666006009681820246TCS CARRIER BAG MIDI   0000001000+00000035+00000+0001T   00000035+0000001229          1400 ZK3090               1AZ
102666002102666019-071601     102666006001023771995RIVER-STONES 1kg WHITE 0000001000+00002630+00000+0001T   00002630+0000001229          1400 ZK3510               1AZ
102666003102666018-000170     102666006001023775528MUG OCC. LOVE 2PC MINI 0000002000+00002192+00000+0001T   00002192+0000001229          1400 ZK3515               1AZ
102666004102666903-000618     102666006003000672370SWT LOLLY RAINBOW GIANT0000001000+00001753+00000+0001T   00001753+0000001229          1400 ZK3150               1AZ
102667000102667               102667               170213V1     1400+00000+V10000003507+0000003507+000000000+000000491+0000003990+0000000008+I20000000000+0000003990+Z
102667001102667018-000130     102667006001023867537MUG OCC LOVE MINI+HEART0000001000+00003507+00000+0001T   00003507+0000001232          1400 ZK3515               1BZ
102668000102668               102668               170213V1     1400+00000+V10000002629+0000002629+000000000+000000369+0000002990+0000000008+I20000000000+0000002990+Z
102668001102668077-000239     102668006003000160419GIFT-RIBBON ROLL PEARL 0000001000+00001753+00000+0001T   00001753+0000001232          1400 ZK3112               1CZ
102668002102668033-010720     102668006001023678645SAFETY-PINS 50PCE ASSTD0000001000+00000876+00000+0001T   00000876+0000001232          1400 ZK3200               1CZ
102669000102669               102669               170213V1     1400+00000+V10000001753+0000001753+000000000+000000246+0000001990+0000000009+I20000000000+0000001990+Z
102669001102669012-000001     102669006003000331048MICRO PLATE-COVER 26X6 0000001000+00001753+00000+0001T   00002192+0008191233          1400 ZK3300               1CZ
102670000102670               102670               170213V1     1400+00000+V10000011011+0000011011+000000000+000001542+0000012550+0000000003+I20000000000+0000012550+Z
102670001102670486-002307     102670006003000443086W/CLOCK QTZ PL ANTIQUE 0000001000+00008771+00000+0001T   00008771+0000001244          1400 ZK3510               1AZ
102670002102670080-000127     102670006003000424351VALENTINES DAY 36x24CM 0000001000+00002192+00000+0001T   00002192+0000001244          1400 ZK3112               1AZ
102670003102670112-116069     102670006009681820277TCS CARRIER BAG JUMBO  0000001000+00000048+00000+0001T   00000048+0000001244          1400 ZK3090               1AZ
102671000102671               102671               170213V1     1400+00000+V10000003328+0000003328+000000000+000000468+0000003790+0000000006+I20000000000+0000003790+Z
102671001102671200-003024     102671006001023657299REFUSE BAGS 20PCE BLACK0000001000+00001753+00000+0001T   00001753+0000001245          1400 ZK3214               1BZ
102671002102671903-000077     102671006939873501687SWT GS MAGIC ROCK FRUIT0000003000+00000525+00000+0001T   00000525+0000001245          1400 ZK3150               1BZ
102672000102672               102672               170213V1     1400+00000+V10000004384+0000004384+000000000+000000614+0000004990+0000000008+I20000000000+0000004990+Z
102672001102672051-002400     102672006001023616180TRIGGER-SPRAYER 900ml  0000002000+00002192+00000+0001T   00002192+0000001252          1400 ZK3820               1BZ
102673000102673               102673               170213V1     1400+00000+V10000008806+0000008806+000000000+000001233+0000010039+0000000000+I40000010039+0000000000+Z
102673001102673001-091415     102673006003000329113W/GLS OCC. LOVE 2PC 2800000001000+00008771+00000+0001T   00009648+0006471306          1400 ZK3515               1BZ
102673002102673112-116038     102673006009681820246TCS CARRIER BAG MIDI   0000001000+00000035+00000+0001T   00000035+0000001306          1400 ZK3090               1BZ
102674000102674               102674               170213V1     1400+00000+V10000001578+0000001578+000000000+000000221+0000001790+0000000009+I20000000000+0000001790+Z
102674001102674018-000127     102674006001023380289MUG OCC STRAIGHT LOVE  0000001000+00001578+00000+0001T   00001753+0006471306          1400 ZK3515               1BZ
102675000102675               102675               170213V1     1400+00000+V10000003715+0000003715+000000000+000000522+0000004230+0000000007+I20000000000+0000004230+Z
102675001102675466-000515     102675006001023477408BALLS TENNIS BAG-OF-3  0000001000+00002630+00000+0001T   00002630+0000001307          1400 ZK3785               1BZ
102675002102675077-000311     102675006001023608666GIFT-BAG 11X14CM GLOSS 0000001000+00000613+00000+0001T   00000613+0000001307          1400 ZK3112               1BZ
102675003102675112-116038     102675006009681820246TCS CARRIER BAG MIDI   0000001000+00000035+00000+0001T   00000035+0000001307          1400 ZK3090               1BZ
102675004102675903-000094     102675006923431501622SWT GS CANDY NECKLACE  0000001000+00000437+00000+0001T   00000437+0000001307          1400 ZK3150               1BZ
102676000102676               102676               170213V1     1400+00000+V10000005695+0000005695+000000000+000000799+0000006490+0000000004+I20000000000+0000006490+Z
102676001102676006-000111     102676006003000519385BALLOONS LARGE 12PCE   0000001000+00002630+00000+0001T   00002630+0000001314          1400 ZK3131               1AZ
102676002102676006-001000     102676006003000093779HELIUM BALLOON FILL    0000005000+00000613+00000+0001T   00000613+0000001314          1400 ZK3131               1AZ
102677000102677               102677               170213V1     1400+00000+V10000001753+0000001753+000000000+000000246+0000001990+0000000009+I20000000000+0000001990+Z
102677001102677012-000001     102677006003000331048MICRO PLATE-COVER 26X6 0000001000+00001753+00000+0001T   00002192+0008191321          1400 ZK3300               1BZ
102678000102678               102678               170213V1     1400+00000+V10000003541+0000003541+000000000+000000497+0000004030+0000000008+I20000000000+0000004030+Z
102678001102678003-000250     102678006003000035045ORN DECOR NOVELTY GRASS0000002000+00001753+00000+0001T   00001753+0000001324          1400 ZK3505               1AZ
102678002102678112-116038     102678006009681820246TCS CARRIER BAG MIDI   0000001000+00000035+00000+0001T   00000035+0000001324          1400 ZK3090               1AZ
102679000102679               102679               170213V1     1400+00000+V10000001753+0000001753+000000000+000000246+0000001990+0000000009+I20000000000+0000001990+Z
102679001102679007-000192     102679006009635830062BOOK H/COVER A4 192PAGE0000001000+00001753+00000+0001T   00001753+0000001328          1400 ZK3130               1AZ
102680000102680               102680               170213V1     1400+00000+V10000025481+0000025481+000000000+000003570+0000029051+0000000000+I40000029051+0000000000+Z
102680001102680112-116069     102680006009681820277TCS CARRIER BAG JUMBO  0000001000+00000048+00000+0001T   00000048+0000001356          1400 ZK3090               1AZ
102680002102680368-000637     102680006001023874092PLUSH BEAR SLEEPING LOV0000001000+00011402+00000+0001T   00012279+0006471356          1400 ZK3745               1AZ
102680003102680368-000175     102680006003000270316PLUSH BEAR 4 ASSTD 18CM0000001000+00006139+00000+0001T   00006139+0000001356          1400 ZK3745               1AZ
102680004102680077-000471     102680006003000330096G-BAG DESGN MED 18X23CM0000001000+00001753+00000+0001T   00001753+0000001356          1400 ZK3112               1AZ
102680005102680082-094471     102680006001492944715#SUNGLASS LDS AVIATOR  0000001000+00006139+00000+0001T   00006139+0000001356          1400 ZK3160               1AZ
102681000102681               102681               170213V1     1400+00000+V10000002103+0000002103+000000000+000000295+0000002390+0000000008+I20000000000+0000002390+Z
102681001102681077-000311     102681006001023608666GIFT-BAG 11X14CM GLOSS 0000001000+00000613+00000+0001T   00000613+0000001359          1400 ZK3112               1CZ
102681002102681077-000304     102681006001023483232GIFT-BAG 25X32CM E/DAY 0000001000+00001490+00000+0001T   00001490+0000001359          1400 ZK3112               1CZ
102682000102682               102682               170213V1     1400+00000+V10000001139+0000001139+000000000+000000160+0000001290+0000000009+I20000000000+0000001290+Z
102682001102682140-006004     102682006001023628077FLY-SWATTER RUBBER     0000001000+00001139+00000+0001T   00001139+0000001401          1400 ZK3830               1AZ
102683000102683               102683               170213V1     1400+00000+V10000000876+0000000876+000000000+000000123+0000000990+0000000009+I20000000000+0000000990+Z
102683001102683078-000025     102683008887013700064SUPERGLUE 3g 1PCE CARD 0000001000+00000876+00000+0001T   00000876+0000001413          1400 ZK3810               1BZ
102684000102684               102684               170213V1     1400+00000+V10000003507+0000003507+000000000+000000491+0000000000+0000000000+ 00000000000+0000000000+Z
102684001102684031-000923     102684006001023669933P/FRAME BLK W/WORDS    0000001000+00003507+00000+0001T   00003507+000000              1400 ZK35101IC            1 Z
102685000102685               102685               170213V1     1400+00000+V10000003507+0000003507+000000000+000000491+0000003990+0000000008+I20000000000+0000003990+Z
102685001102685031-005853     102685006003000442416P/FRAME WDN TWIN HEARTS0000001000+00003507+00000+0001T   00003507+0000001416          1400 ZK3510               1BZ
102686000102686               102686               170213V1     1400+00000+V10000004734+0000004734+000000000+000000663+0000005390+0000000007+I20000000000+0000005390+Z
102686001102686200-000205     102686006008766127027BAKEPANS 36PCE (PIE)   0000001000+00003507+00000+0001T   00003507+0000001416          1400 ZK3214               1AZ
102686002102686903-004951     102686006002580020328SWT MALLOW MINI M/SHAKE0000001000+00001227+00000+0001T   00001227+0000001416          1400 ZK3150               1AZ
102687000102687               102687               170213V1     1400+00000+V10000005262+0000005262+000000000+000000737+0000005999+0000000000+I40000005999+0000000000+Z
102687001102687035-000013     102687006001023450180UMBRELLA KIDDIES 34cm  0000001000+00005262+00000+0001T   00005262+0000001419          1400 ZK3205               1CZ
102688000102688               102688               170213V1     1400+00000+V10000005297+0000005297+000000000+000000742+0000006039+0000000000+I40000006039+0000000000+Z
102688001102688018-019000     102688006003000557288MUG OCC. LOVE JUMBO    0000001000+00005262+00000+0001T   00005262+0000001422          1400 ZK3515               1AZ
102688002102688112-116038     102688006009681820246TCS CARRIER BAG MIDI   0000001000+00000035+00000+0001T   00000035+0000001422          1400 ZK3090               1AZ
102689000102689               102689               170213V1     1400+00000+V10000003507+0000003507+000000000+000000491+0000003990+0000000008+I20000000000+0000003990+Z
102689001102689261-000035     102689006003000550258GUN 4PC POLICE SET     0000001000+00003507+00000+0001T   00003507+0000001424          1400 ZK3710               1CZ
102690000102690               102690               170213V1     1400+00000+V10000001402+0000001402+000000000+000000197+0000001590+0000000009+I20000000000+0000001590+Z
102690001102690304-001204     102690006001023737984FLOWER OCC. TEDDY/ROSES0000001000+00001402+00000+0001T   00001490+0006471426          1400 ZK3510               1BZ
102691000102691               102691               170213V1     1400+00000+V10000012711+0000012711+000000000+000001782+0000014493+0000000000+I40000014493+0000000000+Z
102691001102691075-000412     102691006001023855299SHOPPER-BASKET PL      0000002000+00005700+00000+0001T   00005700+0000001430          1400 ZK3160               1AZ
102691002102691080-000133-A   102691006003000647019MINI VALENTINES CARD   0000003000+00000437+00000+0001T   00000437+0000001430          1400 ZK3112               1AZ
102692000102692               102692               170213V1     1400+00000+V10000005168+0000005168+000000000+000000725+0000005893+0000000000+I40000005893+0000000000+Z
102692001102692159-000445     102692006001023669728SOAP-BOX PL OVAL       0000001000+00001139+00000+0001T   00001139+0000001436          1400 ZK3200               1AZ
102692002102692200-003026     102692006003000276448REFUSE BAGS 10PCE GREEN0000001000+00001753+00000+0001T   00001753+0000001436          1400 ZK3214               1AZ
102692003102692078-000025     102692008887013700064SUPERGLUE 3g 1PCE CARD 0000001000+00000876+00000+0001T   00000876+0000001436          1400 ZK3810               1AZ
102692004102692903-000120     102692006002099001665SWEET GS ZILLIONS 50g  0000002000+00000700+00000+0001T   00000700+0000001436          1400 ZK3150               1AZ
102693000102693               102693               170213V1     1400+00000+V10000009205+0000009205+000000000+000001291+0000010496+0000000000+I40000010496+0000000000+Z
102693001102693018-000129     102693006001023403353MUG OCC. LOVE V-SHAPE  0000002000+00002630+00000+0001T   00002630+0000001440          1400 ZK3515               1AZ
102693002102693039-001023     102693006003000466337CANDLE TEA-LITE METALIC0000001000+00001753+00000+0001T   00001753+0000001440          1400 ZK3510               1AZ
102693003102693018-000170     102693006001023775528MUG OCC. LOVE 2PC MINI 0000001000+00002192+00000+0001T   00002192+0000001440          1400 ZK3515               1AZ
102694000102694               102694               170213V1     1400+00000+V10000003329+0000003329+000000000+000000467+0000003796+0000000000+I40000003796+0000000000+Z
102694001102694105-001031     102694000700371696627FOODSAVER 800ml        0000001000+00001314+00000+0001T   00001314+0000001443          1400 ZK3210               1CZ
102694002102694200-000065     102694006001023323675DRINKING-STRAWS 38PCE  0000001000+00000613+00000+0001T   00000613+0000001443          1400 ZK3214               1CZ
102694003102694105-001005     102694006001023858214CONTAINERS MINI 6PCE   0000001000+00001402+00000+0001T   00001402+0000001443          1400 ZK3210               1CZ
102695000102695               102695               170213V1     1400+00000+V10000013721+0000013721+000000000+000001924+0000015640+0000000005+I20000000000+0000015640+Z
102695001102695368-000175     102695006003000270316PLUSH BEAR 4 ASSTD 18CM0000002000+00006139+00000+0001T   00006139+0000001445          1400 ZK3745               1AZ
102695002102695903-000151     102695006009803374411SWT SML RND R/BOW LOLLY0000003000+00000481+00000+0001T   00000481+0000001445          1400 ZK3150               1AZ
102696000102696               102696               170213V1     1400+00000+V10000002630+0000002630+000000000+000000369+0000002990+0000000009+I20000000000+0000002990+Z
102696001102696028-000916     102696006001023776969BBQ GRILL-CLEANER 37cm 0000001000+00002630+00000+0001T   00002630+0000001445          1400 ZK3305               1CZ
102697000102697               102697               170213V1     1400+00000+V10000003243+0000003243+000000000+000000455+0000003690+0000000008+I20000000000+0000003690+Z
102697001102697306-000985     102697006003000559831FIRSTAID PLASTER 10PC  0000001000+00001490+00000+0001T   00001490+0000001446          1400 ZK3200               1AZ
102697002102697006-000120     102697006001023346889BALLOONS 10PC MIX COL  0000001000+00001753+00000+0001T   00001753+0000001446          1400 ZK3131               1AZ
102698000102698               102698               170213V1     1400+00000+V10000001402+0000001402+000000000+000000197+0000001590+0000000009+I20000000000+0000001590+Z
102698001102698304-001204     102698006001023737984FLOWER OCC. TEDDY/ROSES0000001000+00001402+00000+0001T   00001490+0006471449          1400 ZK3510               1BZ
102699000102699               102699               170213V1     1400+00000+V10000011219+0000011219+000000000+000001574+0000012790+0000000003+I20000000000+0000012790+Z
102699001102699039-000100     10269900600300060614625CM WHITE CANDLE 6PC  0000002000+00002630+00000+0001T   00002630+0000001450          1400 ZK3510               1CZ
102699002102699071-081091     102699006001151010287STAED/GENKEM ALL-STICK 0000002000+00001227+00000+0001T   00001227+0000001450          1400 ZK3130               1CZ
102699003102699077-000151     102699006008766114676GIFT-WRAP C/PHANE ASSTD0000002000+00000876+00000+0001T   00000876+0000001450          1400 ZK3112               1CZ
102699004102699077-000239     102699006003000160419GIFT-RIBBON ROLL PEARL 0000001000+00001753+00000+0001T   00001753+0000001450          1400 ZK3112               1CZ
102700000102700               102700               170213V1     1400+00000+V10000004383+0000004383+000000000+000000615+0000004990+0000000008+I20000000000+0000004990+Z
102700001102700466-000584     102700006001023628787SKIPPING-ROPE          0000001000+00002630+00000+0001T   00002630+0000001459          1400 ZK3785               1AZ
102700002102700903-000211     102700006002099001238SWT GS MALLOW ICE CREAM0000001000+00001753+00000+0001T   00001753+0000001459          1400 ZK3150               1AZ
102701000102701               102701               170213V1     1400+00000+V10000002227+0000002227+000000000+000000312+0000002530+0000000009+I20000000000+0000002530+Z
102701001102701200-000002     102701006925406821049BAG FLIP TOP 80PCE     0000001000+00002192+00000+0001T   00002192+0000001502          1400 ZK3214               1AZ
102701002102701112-116038     102701006009681820246TCS CARRIER BAG MIDI   0000001000+00000035+00000+0001T   00000035+0000001502          1400 ZK3090               1AZ
102702000102702               102702               170213V1     1400+00000+V10000000218+0000000218+000000000+000000031+0000000240+0000000009+I20000000000+0000000240+Z
102702001102702006-000171-G   102702006003000609529BALLOONS 1PC YELLOW PRN0000001000+00000218+00000+0001T   00000218+0000001506          1400 ZK3131               1CZ
102703000102703               102703               170213V1     1400+00000+V10000001402+0000001402+000000000+000000197+0000001590+0000000009+I20000000000+0000001590+Z
102703001102703304-001204     102703006001023737984FLOWER OCC. TEDDY/ROSES0000001000+00001402+00000+0001T   00001490+0006471507          1400 ZK3510               1CZ
102704000102704               102704               170213V1     1400+00000+V10000004823+0000004823+000000000+000000676+0000005490+0000000009+I20000000000+0000005490+Z
102704001102704046-000012-VP  102704006003000537914BATTERIES H/P SIZE:AA  0000001000+00004823+00000+0001T   00004823+0000001510          1400 ZK3312               1AZ
102705000102705               102705               170213V1     1400+00000+V10000005874+0000005874+000000000+000000824+0000006698+0000000000+I40000006698+0000000000+Z
102705001102705306-001714     102705006003000061341FACIAL MAKE-UP WIPES 480000001000+00002630+00000+0001T   00002630+0000001515          1400 ZK3200               1BZ
102705002102705150-000770     102705006005387000128UTILITY BOX MEGA       0000001000+00003244+00000+0001T   00003244+0000001515          1400 ZK3810               1BZ
102706000102706               102706               170213V1     1400+00000+V10000006872+0000006872+000000000+000000963+0000007835+0000000000+I40000007835+0000000000+Z
102706001102706150-000774     102706006005387000234UTILITY-BOX MEDIUM     0000002000+00000964+00000+0001T   00000964+0000001517          1400 ZK3810               1CZ
102706002102706018-000136     102706006001023659026MUG OCC LOVE W/PLUSH   0000001000+00003507+00000+0001T   00003507+0000001517          1400 ZK3515               1CZ
102706003102706304-001204     102706006001023737984FLOWER OCC. TEDDY/ROSES0000001000+00001402+00000+0001T   00001490+0006471517          1400 ZK3510               1CZ
102706004102706112-116038     102706006009681820246TCS CARRIER BAG MIDI   0000001000+00000035+00000+0001T   00000035+0000001517          1400 ZK3090               1CZ
102707000102707               102707               170213V1     1400+00000+V10000007013+0000007013+000000000+000000983+0000007996+0000000000+I40000007996+0000000000+Z
102707001102707903-000619     102707006003000672455SWT LOLLY STR/BRRY 140G0000001000+00001753+00000+0001T   00001753+0000001520          1400 ZK3150               1CZ
102707002102707077-000471     102707006003000330096G-BAG DESGN MED 18X23CM0000001000+00001753+00000+0001T   00001753+0000001520          1400 ZK3112               1CZ
102707003102707301-085004     102707006003000420469ORN LOVE PLAQUE 21X10CM0000001000+00003507+00000+0001T   00003946+0006471520          1400 ZK3505               1CZ
102708000102708               102708               170213V1     1400+00000+V10000029593+0000029593+000000000+000004147+0000033740+0000000000+I40000033740+0000000000+Z
102708001102708112-116069     102708006009681820277TCS CARRIER BAG JUMBO  0000001000+00000048+00000+0001T   00000048+0000001525          1400 ZK3090               1AZ
102708002102708018-000136     102708006001023659026MUG OCC LOVE W/PLUSH   0000001000+00003507+00000+0001T   00003507+0000001525          1400 ZK3515               1AZ
102708003102708003-000250     102708006003000035045ORN DECOR NOVELTY GRASS0000001000+00001753+00000+0001T   00001753+0000001525          1400 ZK3505               1AZ
102708004102708077-000327     102708006001023677686GIFT-BAG 25X32CM E/D BA0000001000+00001490+00000+0001T   00001490+0000001525          1400 ZK3112               1AZ
102708005102708007-000323     102708006009697791042PAPER A4 80GSM 100'S   0000001000+00006139+00000+0001T   00006139+0000001525          1400 ZK3130               1AZ
102708006102708007-000325     102708006009698066514PAPER A4 160GSM 25SHTS 0000001000+00003507+00000+0001T   00003507+0000001525          1400 ZK3130               1AZ
102708007102708077-000239     102708006003000160419GIFT-RIBBON ROLL PEARL 0000001000+00001753+00000+0001T   00001753+0000001525          1400 ZK3112               1AZ
102708008102708071-001010     102708006001023893314MARKERS-METALIC 3PCE   0000001000+00003507+00000+0001T   00003507+0000001525          1400 ZK3130               1AZ
102708009102708007-010192     102708006009635830536BOOK H/COVER A5 192PAGE0000001000+00001139+00000+0001T   00001139+0000001525          1400 ZK3130               1AZ
102708010102708079-006519     102708006003000542956A&C GLOW IN DARK PEN   0000001000+00001753+00000+0001T   00001753+0000001525          1400 ZK3130               1AZ
102708011102708079-006494     102708006003000159864GLITTER GLUE 5PCE 11cm 0000001000+00001490+00000+0001T   00001490+0000001525          1400 ZK3130               1AZ
102708012102708071-005060     102708006003000152186CELLOTAPE 2PACK INVSBLE0000001000+00003507+00000+0001T   00003507+0000001525          1400 ZK3130               1AZ
102709000102709               102709               170213V1     1400+00000+V10000001226+0000001226+000000000+000000172+0000001390+0000000008+I20000000000+0000001390+Z
102709001102709077-000311     102709006001023608666GIFT-BAG 11X14CM GLOSS 0000002000+00000613+00000+0001T   00000613+0000001532          1400 ZK3112               1AZ
102710000102710               102710               170213V1     1400+00000+V10000002185+0000002185+000000000+000000310+0000002490+0000000005+I20000000000+0000002490+Z
102710001102710080-000133-A   102710006003000647019MINI VALENTINES CARD   0000005000+00000437+00000+0001T   00000437+0000001541          1400 ZK3112               1AZ
102711000102711               102711               170213V1     1400+00000+V10000001227+0000001227+000000000+000000172+0000001390+0000000009+I20000000000+0000001390+Z
102711001102711077-000245     102711006001023759214GIFT-RIBBON METALLICx2 0000001000+00001227+00000+0001T   00001227+0000001547          1400 ZK3112               1BZ
102712000102712               102712               170213V1     1400+00000+V10000001753+0000001753+000000000+000000246+0000001990+0000000009+I20000000000+0000001990+Z
102712001102712200-003024     102712006001023657299REFUSE BAGS 20PCE BLACK0000001000+00001753+00000+0001T   00001753+0000001552          1400 ZK3214               1AZ
102713000102713               102713               170213V1     1400+00000+V10000007084+0000007084+000000000+000000992+0000008070+0000000006+I20000000000+0000008070+Z
102713001102713018-005009     102713006001023725608MUG W/PLUSH-BEAR LOVE  0000002000+00003507+00000+0001T   00003507+0000001556          1400 ZK3515               1AZ
102713002102713112-116038     102713006003000534906TCS CARRIER BAG MIDI   0000001000+00000035+00000+0001T   00000035+0000001556          1400 ZK3090               1AZ
102713003102713112-116038     102713006009681820246TCS CARRIER BAG MIDI   0000001000+00000035+00000+0001T   00000035+0000001556          1400 ZK3090               1AZ
102714000102714               102714               170213V1     1400+00000+V10000007049+0000007049+000000000+000000987+0000008036+0000000000+I40000008036+0000000000+Z
102714001102714018-005009     102714006001023725608MUG W/PLUSH-BEAR LOVE  0000001000+00003507+00000+0001T   00003507+0000001601          1400 ZK3515               1AZ
102714002102714018-000136     102714006001023659026MUG OCC LOVE W/PLUSH   0000001000+00003507+00000+0001T   00003507+0000001601          1400 ZK3515               1AZ
102714003102714112-116038     102714006009681820246TCS CARRIER BAG MIDI   0000001000+00000035+00000+0001T   00000035+0000001601          1400 ZK3090               1AZ
102715000102715               102715               170213V1     1400+00000+V10000008771+0000008771+000000000+000001228+0000009999+0000000000+I40000009999+0000000000+Z
102715001102715019-000076     102715006001023757159V/GLASS 25CM C/DESIGN  0000001000+00008771+00000+0001T   00008771+0000001602          1400 ZK3510               1AZ
102716000102716               102716               170213V1     1400+00000+V10000003507+0000003507+000000000+000000491+0000003990+0000000008+I20000000000+0000003990+Z
102716001102716564-000017     102716006003000654468BUBBLE NOVELTY WAND 29 0000001000+00003507+00000+0001T   00003507+0000001604          1400 ZK3131               1CZ
102717000102717               102717               170213V1     1400+00000+V10000004385+0000004385+000000000+000000614+0000004990+0000000009+I20000000000+0000004990+Z
102717001102717006-000190     102717006003000685530BALLOONS LOVE 81x91cm  0000001000+00004385+00000+0001T   00004385+0000001609          1400 ZK3131               1BZ
102718000102718               102718               170213V1     1400+00000+V10000001578+0000001578+000000000+000000221+0000001790+0000000009+I20000000000+0000001790+Z
102718001102718018-000127     102718006001023380289MUG OCC STRAIGHT LOVE  0000001000+00001578+00000+0001T   00001753+0006471638          1400 1IC515               1AZ
102719000102719               102719               170213V1     1400+00000+V10000006747+0000006747+000000000+000000947+0000007694+0000000000+I40000007694+0000000000+Z
102719001102719077-000351     102719006003000139033GIFT-BAG 18X23CM E/D P 0000001000+00001753+00000+0001T   00001753+0000001642          1400 1IC112               1CZ
102719002102719018-000130     102719006001023867537MUG OCC LOVE MINI+HEART0000001000+00003507+00000+0001T   00003507+0000001642          1400 1IC515               1CZ
102719003102719007-000555     102719006001023848239MEMO-PAD MINI LOVE     0000001000+00000613+00000+0001T   00000613+0000001642          1400 1IC130               1CZ
102719004102719080-000133-A   102719006003000647019MINI VALENTINES CARD   0000002000+00000437+00000+0001T   00000437+0000001642          1400 1IC112               1CZ
102720000102720               102720               170213V1     1400+00000+V10000006797+0000006797+000000000+000000953+0000007750+0000000000+I20000000000+0000007750+Z
102720001102720077-000310     102720006001023608635GIFT-BAG 18X23CM GLOSS 0000001000+00001314+00000+0001T   00001314+0000001643          1400 1IC112               1AZ
102720002102720071-081091     102720006001151010287STAED/GENKEM ALL-STICK 0000001000+00001227+00000+0001T   00001227+0000001643          1400 1IC130               1AZ
102720003102720033-000642     102720006001023681201H/BRUSH PADDLE 24cm    0000001000+00003069+00000+0001T   00003069+0000001643          1400 1IC200               1AZ
102720004102720112-116069     102720006009681820277TCS CARRIER BAG JUMBO  0000001000+00000048+00000+0001T   00000048+0000001643          1400 1IC090               1AZ
102720005102720903-000087     102720006001704000161SWT SPECKLED-EGGS 50G  0000001000+00001139+00000+0001T   00001139+0000001643          1400 1IC150               1AZ
102721000102721               102721               170213V1     1400+00000+V10000006136+0000006136+000000000+000000861+0000006997+0000000000+I40000006997+0000000000+Z
102721001102721056-065302     102721006001023759566CAR SUN-SHIELD ALM-FOIL0000001000+00002630+00000+0001T   00002630+0000001659          1400 ZK3860               1AZ
102721002102721566-002004     102721006001023672421STICKERS CRYSTAL SHAPES0000002000+00001753+00000+0001T   00001753+0000001659          1400 ZK3130               1AZ
102722000102722               102722               170213V1     1400+00000+V10000009646+0000009646+000000000+000001352+0000010998+0000000000+I40000010998+0000000000+Z
102722001102722106-008100     102722006001023764126MEASURING-SHAKER 500ml 0000001000+00002630+00000+0001T   00002630+0000001701          1400 ZK3210               1AZ
102722002102722174-000305     102722006003000105502TRAVEL NECK-PILLOW     0000001000+00007016+00000+0001T   00007016+0000001701          1400 ZK3205               1AZ
102723000102723               102723               170213V1     1400+00000+V10000004154+0000004154+000000000+000000583+0000004737+0000000000+I40000004737+0000000000+Z
102723001102723491-059640     102723000078257596409INTEX:ARMBAND 3-6YRS   0000001000+00001753+00000+0001T   00001753+0000001706          1400 ZK3787               1AZ
102723002102723903-000510     102723006001704012621SWEET MS ZBDZ S/BERRY  0000001000+00001227+00000+0001T   00001227+0000001706          1400 ZK3150               1AZ
102723003102723903-000087     102723006001704000161SWT SPECKLED-EGGS 50G  0000001000+00001139+00000+0001T   00001139+0000001706          1400 ZK3150               1AZ
102723004102723112-116038     102723006009681820246TCS CARRIER BAG MIDI   0000001000+00000035+00000+0001T   00000035+0000001706          1400 ZK3090               1AZ
102724000102724               102724               170213V1     1400+00000+V10000003506+0000003506+000000000+000000492+0000003990+0000000008+I20000000000+0000003990+Z
102724001102724071-010481     102724006001023417220MAGNIFYING-GLASS 90mm-D0000002000+00001753+00000+0001T   00001753+0000001731          1400 ZK3130               1BZ
102725000102725               102725               170213V1     1400+00000+V10000006611+0000006611+000000000+000000926+0000007530+0000000007+I20000000000+0000007530+Z
102725001102725018-000170     102725006001023775528MUG OCC. LOVE 2PC MINI 0000003000+00002192+00000+0001T   00002192+0000001732          1400 ZK3515               1BZ
102725002102725112-116038     102725006009681820246TCS CARRIER BAG MIDI   0000001000+00000035+00000+0001T   00000035+0000001732          1400 ZK3090               1BZ
102726000102726               102726               170213V1     1400+00000+V10000001753+0000001753+000000000+000000246+0000001990+0000000009+I20000000000+0000001990+Z
102726001102726566-000038     102726006003000100514TATTOO METALLIC 6 ASST 0000001000+00001753+00000+0001T   00001753+0000001821          1400 ZK3130               1AZ
102727000102727               102727               170213V1     1400+00000+V10000006308+0000006308+000000000+000000885+0000007190+0000000003+I20000000000+0000007190+Z
102727001102727006-000111     102727006003000519385BALLOONS LARGE 12PCE   0000001000+00002630+00000+0001T   00002630+0000001822          1400 ZK3131               1AZ
102727002102727006-001000     102727006003000093779HELIUM BALLOON FILL    0000006000+00000613+00000+0001T   00000613+0000001822          1400 ZK3131               1AZ
102728000102728               102728               170213V1     1400+00000+V10000006663+0000006663+000000000+000000934+0000007590+0000000007+I20000000000+0000007590+Z
102728001102728018-030000     102728006003000421060MUG OCCASIONS LOVE 2PCE0000001000+00004385+00000+0001T   00004385+0000001837          1400 ZK3515               1AZ
102728002102728565-000071     102728006003000643387NOVELTY WIND UP CHATTER0000002000+00001139+00000+0001T   00001139+0000001837          1400 ZK3745               1AZ
102729000102729               102729               170213V1     1400+00000+V10000005611+0000005611+000000000+000000786+0000006390+0000000007+I20000000000+0000006390+Z
102729001102729006-000190     102729006003000685530BALLOONS LOVE 81x91cm  0000001000+00004385+00000+0001T   00004385+0000001846          1400 ZK3131               1AZ
102729002102729006-001000     102729006003000093779HELIUM BALLOON FILL    0000002000+00000613+00000+0001T   00000613+0000001846          1400 ZK3131               1AZ
102730000102730               102730               170213V1     1400+00000+V10000001753+0000001753+000000000+000000246+0000001990+0000000009+I20000000000+0000001990+Z
102730001102730206-000360     102730006003000631193CITRUS SPRAYER 3PC     0000001000+00001753+00000+0001T   00001753+0000001854          1400 ZK3321               1AZ
102731000102731               102731               170213V1     1400+00000+V10000008771+0000008771+000000000+000001228+0000009990+0000000009+I20000000000+0000009990+Z
102731001102731001-091415     102731006003000329113W/GLS OCC. LOVE 2PC 2800000001000+00008771+00000+0001T   00009648+0006471908          1400 ZK3515               1AZ
102732000102732               102732               170213V1     1400+00000+V10000007452+0000007452+000000000+000001045+0000008490+0000000007+I20000000000+0000008490+Z
102732001102732080-000113     102732006003000237449CARD&ENVLPE - LOVE     0000001000+00001753+00000+0001T   00001753+0000001910          1400 ZK3112               1BZ
102732002102732080-000119     102732006003000237432CARD & ENVELOPE-BABY   0000001000+00001753+00000+0001T   00001753+0000001910          1400 ZK3112               1BZ
102732003102732006-000851     102732006007151000273PARTY LUCKY-PACKET BOY 0000001000+00003946+00000+0001T   00003946+0000001910          1400 ZK3131               1BZ
A17021300                                          08161523V1SLAVE 1                       ZK32IC
A17021301                                          10440628V1SLAVE 1                       ZK32IC
M17021301                              IT          V1ATT:IT                                          SLAVE 1 LAST TILL SLIP NO102732                 XPOLOKWANE 3                                    THANX SELLO
M17021391                              CASH        V1SLAVE 1                       Z-REPORT No.   185TOTAL (Sales - Refunds)           5467.96       CASH TO BE BANKED                 2535.00       DEBIT CARDS                          0.00       CREDIT CARDS                         0.00       Z-READING                         5467.96       AIRTIME DEBIT CARD SALES             0.00       AIRTIME CARD SALES                   0.00       OVERS/UNDERS                      2932.96-      AIRTIME CASH SALES                   0.00       GIFT CARDS                           0.00       GIFT CARD CASH SALES                 0.00       T O T A L  CASH PAYOUTS              0.00                                                                                                                                                                                                                                                                                                                                                      Z
M17021392                              CASH        V1ABSENT                                                                                                                                                                                          ANNUAL LEAVE                                                                                                                                                                                    DAY OFF                                                                                                                                                                                         COMMENTS                                                                                                                                                                                                                                                                                                                                                                                       Z
Y17021300                                          V100000000479932+000083
ZV117021320253 SLAVE 1      SALES DATA                     NEXT INVOICE NO.  102733 0185
X V1 Slave 1 First invoice 102649 170213 Last invoice 102732 170213 Next invoice 102733 Total number of records 000000277 clbackup completed 20:25:46
