200903000200903               200903               170213V1     1400+00000+V10000013674+0000013674+000000000+000001918+0000015590+0000000002+I20000000000+0000015590+Z
200903001200903077-000314     200903006003000181148GIFT-BAG 11X14CM MATT  0000001000+00000876+00000+0001T   00000876+0000000932          1400 H51112               2CZ
200903002200903077-000011-L   200903006001023808585P/TISSUE BRIGHT 10SHEET0000001000+00000876+00000+0001T   00000876+0000000932          1400 H51112               2CZ
200903003200903368-000175     200903006003000270316PLUSH BEAR 4 ASSTD 18CM0000001000+00006139+00000+0001T   00006139+0000000932          1400 H51745               2CZ
200903004200903018-000127     200903006001023380289MUG OCC STRAIGHT LOVE  0000001000+00001578+00000+0001T   00001753+0006470932          1400 H51515               2CZ
200903005200903362-003007     200903006003000295401GIRL FASHION SUNGLASSES0000001000+00001578+00000+0001T   00001753+0008190932          1400 H51160               2CZ
200903006200903362-003000     200903006003000295258GIRL HEART NOTEBOOK    0000001000+00001753+00000+0001T   00002630+0008190932          1400 H51160               2CZ
200903007200903080-000133-A   200903006003000647019MINI VALENTINES CARD   0000002000+00000437+00000+0001T   00000437+0000000932          1400 H51112               2CZ
200904000200904               200904               170213V1     1400+00000+V10000000876+0000000876+000000000+000000123+0000000990+0000000009+I20000000000+0000000990+Z
200904001200904077-000151     200904006008766114676GIFT-WRAP C/PHANE ASSTD0000001000+00000876+00000+0001T   00000876+0000000934          1400 H51112               2AZ
200905000200905               200905               170213V1     1400+00000+V10000000481+0000000481+000000000+000000068+0000000540+0000000009+I20000000000+0000000540+Z
200905001200905903-000155     200905006009803374435SWT LOLLY I LUV U HEART0000001000+00000481+00000+0001T   00000481+0000000947          1400 H51150               2AZ
200906000200906               200906               170213V1     1400+00000+V10000006651+0000006651+000000000+000000932+0000007580+0000000003+I20000000000+0000007580+Z
200906001200906903-000194     200906006009826020616SWT CHOC RP LOLLY 25G  0000002000+00001314+00000+0001T   00001314+0000001005          1400 H51150               2AZ
200906002200906018-000136     200906006001023659026MUG OCC LOVE W/PLUSH   0000001000+00003507+00000+0001T   00003507+0000001005          1400 H51515               2AZ
200906003200906903-000155     200906006009803374435SWT LOLLY I LUV U HEART0000001000+00000481+00000+0001T   00000481+0000001005          1400 H51150               2AZ
200906004200906112-116038     200906006009681820246TCS CARRIER BAG MIDI   0000001000+00000035+00000+0001T   00000035+0000001005          1400 H51090               2AZ
200907000200907               200907               170213V1     1400+00000+V10000007536+0000007536+000000000+000001058+0000008594+0000000000+I40000008594+0000000000+Z
200907001200907080-000133-A   200907006003000647019MINI VALENTINES CARD   0000002000+00000437+00000+0001T   00000437+0000001007          1400 H51112               2AZ
200907002200907077-000471     200907006003000330096G-BAG DESGN MED 18X23CM0000001000+00001753+00000+0001T   00001753+0000001007          1400 H51112               2AZ
200907003200907018-005009     200907006001023725608MUG W/PLUSH-BEAR LOVE  0000001000+00003507+00000+0001T   00003507+0000001007          1400 H51515               2AZ
200907004200907304-001204     200907006001023737984FLOWER OCC. TEDDY/ROSES0000001000+00001402+00000+0001T   00001490+0006471007          1400 H51510               2AZ
200908000200908               200908               170213V1     1400+00000+V10000014032+0000014032+000000000+000001965+0000015997+0000000000+I40000015997+0000000000+Z
200908001200908024-000165-C   200908006003000674312N/STICK B/WARE LOAF PAN0000001000+00005262+00000+0001T   00005262+0000001008          1400 H51300               2AZ
200908002200908009-001506     200908006001023696090MELAMINE TRAY 39x29cm  0000002000+00004385+00000+0001T   00004385+0000001008          1400 H51210               2AZ
200909000200909               200909               170213V1     1400+00000+V10000006572+0000006572+000000000+000000923+0000007495+0000000000+I40000007495+0000000000+Z
200909001200909006-000120     200909006001023346889BALLOONS 10PC MIX COL  0000001000+00001753+00000+0001T   00001753+0000001042          1400 H51131               2AZ
200909002200909077-000239     200909006003000160419GIFT-RIBBON ROLL PEARL 0000001000+00001753+00000+0001T   00001753+0000001042          1400 H51112               2AZ
200909003200909077-000351     200909006003000139033GIFT-BAG 18X23CM E/D P 0000001000+00001753+00000+0001T   00001753+0000001042          1400 H51112               2AZ
200909004200909077-000151     200909006008766114676GIFT-WRAP C/PHANE ASSTD0000001000+00000876+00000+0001T   00000876+0000001042          1400 H51112               2AZ
200909005200909080-000133-A   200909006003000647019MINI VALENTINES CARD   0000001000+00000437+00000+0001T   00000437+0000001042          1400 H51112               2AZ
200910000200910               200910               170213V1     1400+00000+V10000007892+0000007892+000000000+000001106+0000008998+0000000000+I40000008998+0000000000+Z
200910001200910466-000589     200910006003000027538THROWING RINGSx5 SET   0000001000+00005262+00000+0001T   00005262+0000001050          1400 H51785               2AZ
200910002200910106-001109     200910006003000666355W/BOTTLE 650ml         0000001000+00002630+00000+0001T   00002630+0000001050          1400 H51210               2AZ
200911000200911               200911               170213V1     1400+00000+V10000007014+0000007014+000000000+000000982+0000007990+0000000006+I20000000000+0000007990+Z
200911001200911031-005920     200911006003000580699P/FRAME PL PLAIN 20X25 0000001000+00003507+00000+0001T   00003507+0000001101          1400 H51510               2AZ
200911002200911031-000923     200911006001023669933P/FRAME BLK W/WORDS    0000001000+00003507+00000+0001T   00003507+0000001101          1400 H51510               2AZ
200912000200912               200912               170213V1     1400+00000+V10000000872+0000000872+000000000+000000124+0000000990+0000000006+I20000000000+0000000990+Z
200912001200912006-000171-D   200912006003000609291BALLOONS 1PC ORANGE PRN0000001000+00000218+00000+0001T   00000218+0000001109          1400 H51131               2AZ
200912002200912006-000171-C   200912006003000609178BALLOONS 1PC D/GRN PRNT0000001000+00000218+00000+0001T   00000218+0000001109          1400 H51131               2AZ
200912003200912006-000171-K   200912006003000609697BALLOONS 1PC PURPLE PRN0000002000+00000218+00000+0001T   00000218+0000001109          1400 H51131               2AZ
200913000200913               200913               170213V1     1400+00000+V10000001753+0000001753+000000000+000000246+0000001990+0000000009+I20000000000+0000001990+Z
200913001200913084-006995     200913006003000092802NAIL CLIPPER 8cm TOE   0000001000+00001753+00000+0001T   00001753+0000001111          1400 H51200               2AZ
200914000200914               200914               170213V1     1400+00000+V10000005785+0000005785+000000000+000000811+0000006590+0000000006+I20000000000+0000006590+Z
200914001200914027-000194     200914006001246602472MOP COMPLETE           0000001000+00002279+00000+0001T   00002279+0000001113          1400 H51212               2AZ
200914002200914027-000023     200914006003000666881SCRUBBING BRUSH 20cm   0000001000+00002192+00000+0001T   00002192+0000001113          1400 H51212               2AZ
200914003200914107-004105     200914006009703860984BUCKET 9L OPEN         0000001000+00001314+00000+0001T   00001314+0000001113          1400 H51210               2AZ
200915000200915               200915               170213V1     1400+00000+V10000002628+0000002628+000000000+000000369+0000002990+0000000007+I20000000000+0000002990+Z
200915001200915039-000319-2   200915006003000442508B/CANDLES LRG NUMBER-2 0000001000+00000876+00000+0001T   00000876+0000001217          1400 H51510               2AZ
200915002200915039-000319-5   200915006003000442867B/CANDLES LRG NUMBER-5 0000001000+00000876+00000+0001T   00000876+0000001217          1400 H51510               2AZ
200915003200915039-000319-1   200915006003000442386B/CANDLES LRG NUMBER-1 0000001000+00000876+00000+0001T   00000876+0000001217          1400 H51510               2AZ
200916000200916               200916               170213V1     1400+00000+V10000013589+0000013589+000000000+000001904+0000015490+0000000003+I20000000000+0000015490+Z
200916001200916567-011351     200916009780709722373BK STICKER AND COLOURIN0000001000+00003507+00000+0001T   00003507+0000001320          1400 H51757               2AZ
200916002200916567-011306     200916006003000598434BOOK ACTIVITY TRACE    0000001000+00003069+00000+0001T   00003069+0000001320          1400 H51757               2AZ
200916003200916567-011312     200916006003000593842BOOK READER PLAKKERPRET0000001000+00003507+00000+0001T   00004385+0008141320          1400 H51757               2AZ
200916004200916077-000354     200916006003000139224GIFT-BAG 25X32CM H/MADE0000001000+00001753+00000+0001T   00001753+0000001320          1400 H51112               2AZ
200916005200916362-003004     200916006003000294961HAIR CLIPS             0000001000+00001753+00000+0001T   00001753+0000001320          1400 H51160               2AZ
200917000200917               200917               170213V1     1400+00000+V10000006312+0000006312+000000000+000000885+0000007190+0000000007+I20000000000+0000007190+Z
200917001200917206-000620     200917006003000631797BACK SCRATCHER EXTEND  0000001000+00002630+00000+0001T   00002630+0000001320          1400 H51321               2AZ
200917002200917206-000245     200917006003000680818BOTTLE CLEANER PLASTIC 0000001000+00002192+00000+0001T   00002192+0000001320          1400 H51321               2AZ
200917003200917159-000114     200917006001023507945SHOWER CAP PVC ASSTD   0000001000+00001490+00000+0001T   00001490+0000001320          1400 H51200               2AZ
200918000200918               200918               170213V1     1400+00000+V10000001490+0000001490+000000000+000000209+0000001690+0000000009+I20000000000+0000001690+Z
200918001200918079-006494     200918006003000159864GLITTER GLUE 5PCE 11cm 0000001000+00001490+00000+0001T   00001490+0000001335          1400 H51130               2AZ
200919000200919               200919               170213V1     1400+00000+V10000006139+0000006139+000000000+000000860+0000006990+0000000009+I20000000000+0000006990+Z
200919001200919007-000893-17  200919006003000646449DIARY A5 PAGE 2017     0000001000+00006139+00000+0001T   00006139+0000001337          1400 H51130               2AZ
200920000200920               200920               170213V1     1400+00000+V10000001753+0000001753+000000000+000000246+0000001990+0000000009+I20000000000+0000001990+Z
200920001200920088-000084     200920006001023798060P/POURRI 120G ASSTD    0000001000+00001753+00000+0001T   00001753+0000001337          1400 H51212               2AZ
200921000200921               200921               170213V1     1400+00000+V10000013203+0000013203+000000000+000001850+0000015053+0000000000+I40000015053+0000000000+Z
200921001200921040-000103     200921000694202201862C/HOLDER-SET 5PC W/TRAY0000001000+00011402+00000+0001T   00013157+0008191518          1400 H51510               2AZ
200921002200921112-116069     200921006009681820277TCS CARRIER BAG JUMBO  0000001000+00000048+00000+0001T   00000048+0000001518          1400 H51090               2AZ
200921003200921903-000619     200921006003000672455SWT LOLLY STR/BRRY 140G0000001000+00001753+00000+0001T   00001753+0000001518          1400 H51150               2AZ
200922000200922               200922               170213V1     1400+00000+V10000005262+0000005262+000000000+000000737+0000005990+0000000009+I20000000000+0000005990+Z
200922001200922565-004004     200922006001023744357NOVELTY INSCT COLLECTOR0000001000+00005262+00000+0001T   00005262+0000001614          1400 H51745               2AZ
200923000200923               200923               170213V1     1400+00000+V10000013727+0000013727+000000000+000001923+0000015650+0000000000+I40000015650+0000000000+Z
200923001200923112-116069     200923006009681820277TCS CARRIER BAG JUMBO  0000001000+00000048+00000+0001T   00000048+0000001619          1400 H51090               2AZ
200923002200923031-000924     200923006001023669964P/FRAME COLLAGE PL     0000001000+00008771+00000+0001T   00008771+0000001619          1400 H51510               2AZ
200923003200923077-000245     200923006001023759214GIFT-RIBBON METALLICx2 0000004000+00001227+00000+0001T   00001227+0000001619          1400 H51112               2AZ
200924000200924               200924               170213V1     1400+00000+V10000016824+0000016824+000000000+000002364+0000019188+0000000000+I40000019188+0000000000+Z
200924001200924304-001204     200924006001023737984FLOWER OCC. TEDDY/ROSES0000012000+00001402+00000+0001T   00001490+0006471623          1400 H51510               2AZ
200925000200925               200925               170213V1     1400+00000+V10000006312+0000006312+000000000+000000885+0000007190+0000000007+I20000000000+0000007190+Z
200925001200925304-001011     200925006001023806727FLWR ROSE RED W/BEAR   0000001000+00000613+00000+0001T   00000788+0006471624          1400 H51510               2AZ
200925002200925080-000133-A   200925006003000647019MINI VALENTINES CARD   0000001000+00000437+00000+0001T   00000437+0000001624          1400 H51112               2AZ
200925003200925018-019000     200925006003000557288MUG OCC. LOVE JUMBO    0000001000+00005262+00000+0001T   00005262+0000001624          1400 H51515               2AZ
200926000200926               200926               170213V1     1400+00000+V10000001664+0000001664+000000000+000000234+0000001890+0000000008+I20000000000+0000001890+Z
200926001200926077-000010-Z   200926006001023157874CREPE-PAPER BLK/ORG/PUR0000001000+00000788+00000+0001T   00000788+0000001625          1400 H51112               2AZ
200926002200926077-000011-D   200926006001023808554TISSUE-WRAP WHITE 10PCE0000001000+00000876+00000+0001T   00000876+0000001625          1400 H51112               2AZ
200927000200927               200927               170213V1     1400+00000+V10000009382+0000009382+000000000+000001315+0000010690+0000000007+I20000000000+0000010690+Z
200927001200927361-090308     200927006003000234936PONY W/DOLL SML 7cm    0000001000+00006139+00000+0001T   00006139+0000001626          1400 H51725               2AZ
200927002200927077-000327     200927006001023677686GIFT-BAG 25X32CM E/D BA0000001000+00001490+00000+0001T   00001490+0000001626          1400 H51112               2AZ
200927003200927467-000002     200927006001023354518BEACH-SET PL 2PCE      0000001000+00001753+00000+0001T   00001753+0000001626          1400 H51785               2AZ
200928000200928               200928               170213V1     1400+00000+V10000003507+0000003507+000000000+000000491+0000003990+0000000008+I20000000000+0000003990+Z
200928001200928301-085004     200928006003000420469ORN LOVE PLAQUE 21X10CM0000001000+00003507+00000+0001T   00003946+0006471626          1400 H51505               2AZ
200929000200929               200929               170213V1     1400+00000+V10000010555+0000010555+000000000+000001480+0000012030+0000000005+I20000000000+0000012030+Z
200929001200929112-116038     200929006009681820246TCS CARRIER BAG MIDI   0000001000+00000035+00000+0001T   00000035+0000001629          1400 H51090               2AZ
200929002200929362-003004     200929006003000294961HAIR CLIPS             0000001000+00001753+00000+0001T   00001753+0000001629          1400 H51160               2AZ
200929003200929071-003023     200929006001023836120BALLPENS 10PCE MINI GEL0000001000+00003507+00000+0001T   00003507+0000001629          1400 H51130               2AZ
200929004200929006-006018     200929006001023735256PARTY-SPRAY HAIR ASSORT0000001000+00002630+00000+0001T   00002630+0000001629          1400 H51131               2AZ
200929005200929006-006018-B   200929006003000008278PARTY-SPRAY HAIR NEON  0000001000+00002630+00000+0001T   00002630+0000001629          1400 H51131               2AZ
200930000200930               200930               170213V1     1400+00000+V10000001753+0000001753+000000000+000000246+0000001999+0000000000+I40000001999+0000000000+Z
200930001200930007-000192     200930006009635830062BOOK H/COVER A4 192PAGE0000001000+00001753+00000+0001T   00001753+0000001630          1400 H51130               2AZ
200931000200931               200931               170213V1     1400+00000+V10000006172+0000006172+000000000+000000865+0000007030+0000000007+I20000000000+0000007030+Z
200931001200931206-000620     200931006003000631797BACK SCRATCHER EXTEND  0000001000+00002630+00000+0001T   00002630+0000001631          1400 H51321               2AZ
200931002200931018-000136     200931006001023659026MUG OCC LOVE W/PLUSH   0000001000+00003507+00000+0001T   00003507+0000001631          1400 H51515               2AZ
200931003200931112-116038     200931006009681820246TCS CARRIER BAG MIDI   0000001000+00000035+00000+0001T   00000035+0000001631          1400 H51090               2AZ
200932000200932               200932               170213V1     1400+00000+V10000004118+0000004118+000000000+000000578+0000004690+0000000006+I20000000000+0000004690+Z
200932001200932039-000319-6   200932006003000442980B/CANDLES LRG NUMBER-6 0000001000+00000876+00000+0001T   00000876+0000001632          1400 H51510               2AZ
200932002200932039-000319-5   200932006003000442867B/CANDLES LRG NUMBER-5 0000001000+00000876+00000+0001T   00000876+0000001632          1400 H51510               2AZ
200932003200932077-000321     200932006001023677501GIFT-BAG 11X14CM E/D FL0000001000+00000613+00000+0001T   00000613+0000001632          1400 H51112               2AZ
200932004200932206-000135     200932006003000680450T/BAG HLDR SILICONE    0000001000+00001753+00000+0001T   00001753+0000001632          1400 H51321               2AZ
200933000200933               200933               170213V1     1400+00000+V10000000437+0000000437+000000000+000000062+0000000490+0000000009+I20000000000+0000000490+Z
200933001200933080-000133-A   200933006003000647019MINI VALENTINES CARD   0000001000+00000437+00000+0001T   00000437+0000001638          1400 H51112               2AZ
200934000200934               200934               170213V1     1400+00000+V10000003542+0000003542+000000000+000000496+0000004030+0000000008+I20000000000+0000004030+Z
200934001200934018-000136     200934006001023659026MUG OCC LOVE W/PLUSH   0000001000+00003507+00000+0001T   00003507+0000001640          1400 H51515               2AZ
200934002200934112-116038     200934006009681820246TCS CARRIER BAG MIDI   0000001000+00000035+00000+0001T   00000035+0000001640          1400 H51090               2AZ
200935000200935               200935               170213V1     1400+00000+V10000003365+0000003365+000000000+000000472+0000003830+0000000007+I20000000000+0000003830+Z
200935001200935903-000095     200935006001704011495SWT SPECKLED-EGGS 100G 0000001000+00002104+00000+0001T   00002104+0000001643          1400 H51150               2AZ
200935002200935006-001000     200935006003000093779HELIUM BALLOON FILL    0000002000+00000613+00000+0001T   00000613+0000001643          1400 H51131               2AZ
200935003200935112-116038     200935006009681820246TCS CARRIER BAG MIDI   0000001000+00000035+00000+0001T   00000035+0000001643          1400 H51090               2AZ
200936000200936               200936               170213V1     1400+00000+V10000003945+0000003945+000000000+000000553+0000004490+0000000008+I20000000000+0000004490+Z
200936001200936077-000382     200936006003000247820GIFT-BAG MED 18X23CM   0000001000+00001753+00000+0001T   00001753+0000001647          1400 H51112               2AZ
200936002200936080-000127     200936006003000424351VALENTINES DAY 36x24CM 0000001000+00002192+00000+0001T   00002192+0000001647          1400 H51112               2AZ
200937000200937               200937               170213V1     1400+00000+V10000005873+0000005873+000000000+000000823+0000006696+0000000000+I40000006696+0000000000+Z
200937001200937018-000136     200937006001023659026MUG OCC LOVE W/PLUSH   0000001000+00003507+00000+0001T   00003507+0000001652          1400 H51515               2AZ
200937002200937304-001011     200937006001023806727FLWR ROSE RED W/BEAR   0000001000+00000613+00000+0001T   00000788+0006471652          1400 H51510               2AZ
200937003200937077-000471     200937006003000330096G-BAG DESGN MED 18X23CM0000001000+00001753+00000+0001T   00001753+0000001652          1400 H51112               2AZ
200938000200938               200938               170213V1     1400+00000+V10000009687+0000009687+000000000+000001360+0000011047+0000000000+I40000011047+0000000000+Z
200938001200938200-000092     200938006003000576739PICNIC PAPER PLATES 23c0000001000+00001227+00000+0001T   00001227+0000001654          1400 H51214               2AZ
200938002200938563-000317-G   200938006001023776341SERVIETTES BRIGHT ASSTD0000001000+00002630+00000+0001T   00002630+0000001654          1400 H51214               2AZ
200938003200938080-000133     200938006003000535613CARD&ENV MINI ASTD DSGN0000002000+00000437+00000+0001T   00000437+0000001654          1400 H51112               2AZ
200938004200938006-000120     200938006001023346889BALLOONS 10PC MIX COL  0000001000+00001753+00000+0001T   00001753+0000001654          1400 H51131               2AZ
200938005200938077-000245     200938006001023759214GIFT-RIBBON METALLICx2 0000001000+00001227+00000+0001T   00001227+0000001654          1400 H51112               2AZ
200938006200938200-000100     200938006001023764003CUPS 25PCE DISPOSABLE  0000001000+00001928+00000+0001T   00001928+0000001654          1400 H51214               2AZ
200938007200938112-116069     200938006009681820277TCS CARRIER BAG JUMBO  0000001000+00000048+00000+0001T   00000048+0000001654          1400 H51090               2AZ
200939000200939               200939               170213V1     1400+00000+V10000019517+0000019517+000000000+000002734+0000022251+0000000000+I40000022251+0000000000+Z
200939001200939251-000041     200939006001023515889SEAL-TAPE BUFF 48mmx50m0000002000+00001227+00000+0001T   00001227+0000001714          1400 H51810               2AZ
200939002200939251-000040     200939006001023515865SEALTAPE CLEAR 48mmx50m0000001000+00001227+00000+0001T   00001227+0000001714          1400 H51810               2AZ
200939003200939365-064008     200939006003000655359PLAY-SET MY VET MINI   0000001000+00015788+00000+0001T   00015788+0000001714          1400 H51725               2AZ
200939004200939112-116069     200939006009681820277TCS CARRIER BAG JUMBO  0000001000+00000048+00000+0001T   00000048+0000001714          1400 H51090               2AZ
200940000200940               200940               170213V1     1400+00000+V10000010522+0000010522+000000000+000001474+0000011990+0000000006+I20000000000+0000011990+Z
200940001200940018-000136     200940006001023659026MUG OCC LOVE W/PLUSH   0000001000+00003507+00000+0001T   00003507+0000001716          1400 H51515               2AZ
200940002200940077-000324     200940006001023677594GIFT-BAG 33X45CM E/D FL0000001000+00001753+00000+0001T   00001753+0000001716          1400 H51112               2AZ
200940003200940366-001100     200940006003000031443DRESS UP HAT PIRATE    0000001000+00005262+00000+0001T   00005262+0000001716          1400 H51131               2AZ
200941000200941               200941               170213V1     1400+00000+V10000002050+0000002050+000000000+000000288+0000002338+0000000000+I40000002338+0000000000+Z
200941001200941018-000127     200941006001023380289MUG OCC STRAIGHT LOVE  0000001000+00001578+00000+0001T   00001753+0006471718          1400 H51515               2AZ
200941002200941080-000133-A   200941006003000647019MINI VALENTINES CARD   0000001000+00000437+00000+0001T   00000437+0000001718          1400 H51112               2AZ
200941003200941112-116038     200941006009681820246TCS CARRIER BAG MIDI   0000001000+00000035+00000+0001T   00000035+0000001718          1400 H51090               2AZ
200942000200942               200942               170213V1     1400+00000+V10000009415+0000009415+000000000+000001320+0000010735+0000000000+I40000010735+0000000000+Z
200942001200942046-000014-A   200942004897006177708BATTERIES SIZE:AAA 8PCE0000001000+00001753+00000+0001T   00001753+0000001720          1400 H51312               2AZ
200942002200942033-005919     200942006003000154883SEWING THREAD 24cm ASST0000001000+00001490+00000+0001T   00001490+0000001720          1400 H51200               2AZ
200942003200942562-000520     200942006003000112777EDU BLOCKS WDN ALPHABET0000001000+00003507+00000+0001T   00003507+0000001720          1400 H51755               2AZ
200942004200942174-000175     200942006001023730985LAUNDRY-BAG FOLD-AWAY  0000001000+00002630+00000+0001T   00002630+0000001720          1400 H51205               2AZ
200942005200942112-116038     200942006009681820246TCS CARRIER BAG MIDI   0000001000+00000035+00000+0001T   00000035+0000001720          1400 H51090               2AZ
200943000200943               200943               170213V1     1400+00000+V10000004155+0000004155+000000000+000000582+0000004730+0000000007+I20000000000+0000004730+Z
200943001200943031-000923     200943006001023669933P/FRAME BLK W/WORDS    0000001000+00003507+00000+0001T   00003507+0000001720          1400 H51510               2AZ
200943002200943304-001011     200943006001023806727FLWR ROSE RED W/BEAR   0000001000+00000613+00000+0001T   00000788+0006471720          1400 H51510               2AZ
200943003200943112-116038     200943006009681820246TCS CARRIER BAG MIDI   0000001000+00000035+00000+0001T   00000035+0000001720          1400 H51090               2AZ
200944000200944               200944               170213V1     1400+00000+V10000002192+0000002192+000000000+000000307+0000002490+0000000009+I20000000000+0000002490+Z
200944001200944080-000127     200944006003000424351VALENTINES DAY 36x24CM 0000001000+00002192+00000+0001T   00002192+0000001721          1400 H51112               2AZ
200945000200945               200945               170213V1     1400+00000+V10000003191+0000003191+000000000+000000447+0000003630+0000000008+I20000000000+0000003630+Z
200945001200945018-000127     200945006001023380289MUG OCC STRAIGHT LOVE  0000002000+00001578+00000+0001T   00001753+0006471725          1400 H51515               2AZ
200945002200945112-116038     200945006009681820246TCS CARRIER BAG MIDI   0000001000+00000035+00000+0001T   00000035+0000001725          1400 H51090               2AZ
200946000200946               200946               170213V1     1400+00000+V10000001226+0000001226+000000000+000000172+0000001390+0000000008+I20000000000+0000001390+Z
200946001200946304-001011     200946006001023806727FLWR ROSE RED W/BEAR   0000002000+00000613+00000+0001T   00000788+0006471726          1400 H51510               2AZ
200947000200947               200947               170213V1     1400+00000+V10000002366+0000002366+000000000+000000332+0000002690+0000000008+I20000000000+0000002690+Z
200947001200947007-000235     200947006003000134434LABELS RECTANGULAR 60pc0000001000+00000876+00000+0001T   00000876+0000001727          1400 H51130               2AZ
200947002200947071-005214     200947006003000152544CELLOTAPE SUPER REFILL 0000001000+00001490+00000+0001T   00001490+0000001727          1400 H51130               2AZ
200948000200948               200948               170213V1     1400+00000+V10000011048+0000011048+000000000+000001548+0000012596+0000000000+I40000012596+0000000000+Z
200948001200948018-030000     200948006003000421060MUG OCCASIONS LOVE 2PCE0000001000+00004385+00000+0001T   00004385+0000001728          1400 H51515               2AZ
200948002200948565-000071     200948006003000643387NOVELTY WIND UP CHATTER0000002000+00001139+00000+0001T   00001139+0000001728          1400 H51745               2AZ
200948003200948030-000031-A   200948006003000457588PLAQUE W/WORDS ASSTD   0000001000+00004385+00000+0001T   00004823+0006471728          1400 H51505               2AZ
200949000200949               200949               170213V1     1400+00000+V10000005260+0000005260+000000000+000000738+0000005998+0000000000+I40000005998+0000000000+Z
200949001200949006-000104     200949006001023990112BALLOONS 40PC AIR PUMP 0000002000+00002630+00000+0001T   00002630+0000001729          1400 H51131               2AZ
200950000200950               200950               170213V1     1400+00000+V10000023882+0000023882+000000000+000003356+0000027230+0000000008+I20000000000+0000027230+Z
200950001200950112-116069     200950006009681820277TCS CARRIER BAG JUMBO  0000001000+00000048+00000+0001T   00000048+0000001731          1400 H51090               2AZ
200950002200950108-002020     200950006009654960245WINE GLS STYRENE 220ml 0000017000+00001402+00000+0001T   00001402+0000001731          1400 H51210               2AZ
200951000200951               200951               170213V1     1400+00000+V10000002366+0000002366+000000000+000000332+0000002690+0000000008+I20000000000+0000002690+Z
200951001200951362-003000     200951006003000295258GIRL HEART NOTEBOOK    0000001000+00001753+00000+0001T   00002630+0008191732          1400 H51160               2AZ
200951002200951077-000311     200951006001023608666GIFT-BAG 11X14CM GLOSS 0000001000+00000613+00000+0001T   00000613+0000001732          1400 H51112               2AZ
200952000200952               200952               170213V1     1400+00000+V10000003507+0000003507+000000000+000000491+0000003990+0000000008+I20000000000+0000003990+Z
200952001200952071-005667     200952006003000153060STAPLER SET MTL W/STPLS0000001000+00003507+00000+0001T   00003507+0000001733          1400 H51130               2AZ
200953000200953               200953               170213V1     1400+00000+V10000003507+0000003507+000000000+000000491+0000003998+0000000000+I40000003998+0000000000+Z
200953001200953018-000136     200953006001023659026MUG OCC LOVE W/PLUSH   0000001000+00003507+00000+0001T   00003507+0000001735          1400 H51515               2AZ
200954000200954               200954               170213V1     1400+00000+V10000002059+0000002059+000000000+000000289+0000002340+0000000008+I20000000000+0000002340+Z
200954001200954077-000116     200954006003000240777GIFT-WRAP 700mmx2m COL 0000001000+00001753+00000+0001T   00001753+0000001735          1400 H51112               2AZ
200954002200954007-000123     200954006003000533879BOOK COVER 450mmx1.5m  0000001000+00000306+00000+0001T   00000306+0000001735          1400 H51130               2AZ
200955000200955               200955               170213V1     1400+00000+V10000008771+0000008771+000000000+000001228+0000009990+0000000009+I20000000000+0000009990+Z
200955001200955001-091415     200955006003000329113W/GLS OCC. LOVE 2PC 2800000001000+00008771+00000+0001T   00009648+0006471736          1400 H51515               2AZ
200956000200956               200956               170213V1     1400+00000+V10000010525+0000010525+000000000+000001474+0000011990+0000000009+I20000000000+0000011990+Z
200956001200956079-001003     200956006003000588640ART+CRAFT PAINT CANVAS 0000001000+00010525+00000+0001T   00010525+0000001737          1400 H51130               2AZ
200957000200957               200957               170213V1     1400+00000+V10000003507+0000003507+000000000+000000491+0000003998+0000000000+I40000003998+0000000000+Z
200957001200957018-000136     200957006001023659026MUG OCC LOVE W/PLUSH   0000001000+00003507+00000+0001T   00003507+0000001740          1400 H51515               2AZ
200958000200958               200958               170213V1     1400+00000+V10000014077+0000014077+000000000+000001972+0000016049+0000000000+I40000016049+0000000000+Z
200958001200958903-000211     200958006002099001238SWT GS MALLOW ICE CREAM0000001000+00001753+00000+0001T   00001753+0000001742          1400 H51150               2AZ
200958002200958562-000011     200958006003000600984PLAY DOUGH NEON TUBE   0000001000+00003507+00000+0001T   00003507+0000001742          1400 H51755               2AZ
200958003200958464-009010     200958006001023800756FISHING-GAME MAG +ROD  0000001000+00003507+00000+0001T   00003507+0000001742          1400 H51785               2AZ
200958004200958361-003015     200958006003000543168DOLLS 14CM MERMAIDS 4PC0000001000+00005262+00000+0001T   00005262+0000001742          1400 H51725               2AZ
200958005200958112-116069     200958006009681820277TCS CARRIER BAG JUMBO  0000001000+00000048+00000+0001T   00000048+0000001742          1400 H51090               2AZ
200959000200959               200959               170213V1     1400+00000+V10000001752+0000001752+000000000+000000246+0000001990+0000000008+I20000000000+0000001990+Z
200959001200959362-019375     200959006001023730664HAIR BAND SET 24PCE    0000002000+00000876+00000+0001T   00000876+0000001742          1400 H51160               2AZ
200960000200960               200960               170213V1     1400+00000+V10000001490+0000001490+000000000+000000209+0000001690+0000000009+I20000000000+0000001690+Z
200960001200960051-002401     200960006001023523570TRIGGER-SPRAYER   300ml0000001000+00001490+00000+0001T   00001490+0000001743          1400 H51820               2AZ
200961000200961               200961               170213V1     1400+00000+V10000003506+0000003506+000000000+000000492+0000003990+0000000008+I20000000000+0000003990+Z
200961001200961077-000472     200961006003000330133G-BAG DESGNR LRG 25X32 0000001000+00001753+00000+0001T   00001753+0000001744          1400 H51112               2AZ
200961002200961077-000309     200961006001023608604GIFT-BAG 25X32CM GLOSS 0000001000+00001753+00000+0001T   00001753+0000001744          1400 H51112               2AZ
200962000200962               200962               170213V1     1400+00000+V10000042483+0000042483+000000000+000005955+0000048430+0000000008+I20000000000+0000048430+Z
200962001200962112-116069     200962006009681820277TCS CARRIER BAG JUMBO  0000001000+00000048+00000+0001T   00000048+0000001746          1400 H51090               2AZ
200962002200962903-000211     200962006002099001238SWT GS MALLOW ICE CREAM0000001000+00001753+00000+0001T   00001753+0000001746          1400 H51150               2AZ
200962003200962077-000399     200962006003000139514GIFT BAG 18X23CM E/DAY 0000001000+00001490+00000+0001T   00001490+0000001746          1400 H51112               2AZ
200962004200962469-000801     200962006003000652402BUILDING BLOCKS AGE BAG0000001000+00004385+00000+0001T   00004385+0000001746          1400 H51755               2AZ
200962005200962077-000301     200962008010410010188BAG LRG 25X32CM B/DAY  0000001000+00001753+00000+0001T   00001753+0000001746          1400 H51112               2AZ
200962006200962031-005920     200962006003000580699P/FRAME PL PLAIN 20X25 0000001000+00003507+00000+0001T   00003507+0000001746          1400 H51510               2AZ
200962007200962368-000104     200962006001023751348PLUSH BEAR RUFFLED-LOOK0000001000+00006139+00000+0001T   00006139+0000001746          1400 H51745               2AZ
200962008200962301-085002     200962006003000420704ORN OCC. LOVE BELL ASST0000001000+00001753+00000+0001T   00002630+0008121746          1400 H51505               2AZ
200962009200962206-000620     200962006003000631797BACK SCRATCHER EXTEND  0000001000+00002630+00000+0001T   00002630+0000001746          1400 H51321               2AZ
200962010200962306-000024-A   200962006003000577309COTTON-WOOL-PADS 80PC  0000001000+00001753+00000+0001T   00001753+0000001746          1400 H51200               2AZ
200962011200962079-003015     200962006003000634071PAINT ACRYLIC 75ml GOLD0000001000+00002630+00000+0001T   00002630+0000001746          1400 H51130               2AZ
200962012200962079-003013     200962006003000633838PAINT ACRYLIC TUBE BRNZ0000001000+00002630+00000+0001T   00002630+0000001746          1400 H51130               2AZ
200962013200962018-000170     200962006001023775528MUG OCC. LOVE 2PC MINI 0000001000+00002192+00000+0001T   00002192+0000001746          1400 H51515               2AZ
200962014200962040-000213     200962006001023617736CANDLE-HOLDER DAISY    0000001000+00001227+00000+0001T   00001227+0000001746          1400 H51510               2AZ
200962015200962018-000127     200962006001023380289MUG OCC STRAIGHT LOVE  0000001000+00001578+00000+0001T   00001753+0006471746          1400 H51515               2AZ
200962016200962003-009210     200962006003000461851ORN W/STONE 16X14X16CM 0000001000+00005262+00000+0001T   00005262+0000001746          1400 H51505               2AZ
200962017200962903-000595     200962006003000564170SWT TOY WATER FLUTE    0000001000+00001753+00000+0001T   00001753+0000001746          1400 H51150               2AZ
200963000200963               200963               170213V1     1400+00000+V10000006139+0000006139+000000000+000000860+0000006990+0000000009+I20000000000+0000006990+Z
200963001200963368-000175     200963006003000270316PLUSH BEAR 4 ASSTD 18CM0000001000+00006139+00000+0001T   00006139+0000001747          1400 H51745               2AZ
200964000200964               200964               170213V1     1400+00000+V10000000035+0000000035+000000000+000000005+0000000040+0000000000+I20000000000+0000000040+Z
200964001200964112-116038     200964006009681820246TCS CARRIER BAG MIDI   0000001000+00000035+00000+0001T   00000035+0000001748          1400 H51090               2AZ
200965000200965               200965               170213V1     1400+00000+V10000000964+0000000964+000000000+000000135+0000001090+0000000009+I20000000000+0000001090+Z
200965001200965028-000795     200965006001023812063SKEWERS 10cm 100PCE 3mm0000001000+00000964+00000+0001T   00000964+0000001748          1400 H51305               2AZ
200966000200966               200966               170213V1     1400+00000+V10000011836+0000011836+000000000+000001661+0000013490+0000000007+I20000000000+0000013490+Z
200966001200966077-000354     200966006003000139224GIFT-BAG 25X32CM H/MADE0000002000+00001753+00000+0001T   00001753+0000001751          1400 H51112               2AZ
200966002200966566-000007     200966006001023761187S/BOOK SUPER VALUE     0000001000+00001753+00000+0001T   00001753+0000001751          1400 H51130               2AZ
200966003200966566-001501     200966006003000658398STICKER PAPER EMOTION  0000001000+00001753+00000+0001T   00001753+0000001751          1400 H51130               2AZ
200966004200966566-000027     200966006003000215843STICKERS FOIL ASSTD    0000001000+00000876+00000+0001T   00000876+0000001751          1400 H51130               2AZ
200966005200966566-001234     200966006003000217793STICKERS LASER ASSTD   0000001000+00001578+00000+0001T   00001578+0000001751          1400 H51130               2AZ
200966006200966566-002000     200966000721129013206STICKERS CRYSTAL ASSTD 0000001000+00000657+00000+0001T   00000657+0000001751          1400 H51130               2AZ
200966007200966566-000065     200966006003000217915STICKERS GLITTER ASSTD 0000001000+00001665+00000+0001T   00001665+0000001751          1400 H51130               2AZ
200966008200966112-116069     200966006009681820277TCS CARRIER BAG JUMBO  0000001000+00000048+00000+0001T   00000048+0000001751          1400 H51090               2AZ
200967000200967               200967               170213V1     1400+00000+V10000011009+0000011009+000000000+000001543+0000012550+0000000002+I20000000000+0000012550+Z
200967001200967002-000652     200967006001023553188M/SPOON WDN 3PC H/HOUSE0000001000+00003069+00000+0001T   00003069+0000001753          1400 H51300               2AZ
200967002200967133-046633     200967009300601747016TABLECLOTH VINYL ASSTD 0000001000+00006139+00000+0001T   00006139+0000001753          1400 H51212               2AZ
200967003200967004-072001     200967006003000452378CABLE-TIDY REUSE COL-C 0000001000+00001753+00000+0001T   00001753+0000001753          1400 H51310               2AZ
200967004200967112-116069     200967006009681820277TCS CARRIER BAG JUMBO  0000001000+00000048+00000+0001T   00000048+0000001753          1400 H51090               2AZ
200968000200968               200968               170213V1     1400+00000+V10000010481+0000010481+000000000+000001468+0000011949+0000000000+I40000011949+0000000000+Z
200968001200968112-116069     200968006009681820277TCS CARRIER BAG JUMBO  0000001000+00000048+00000+0001T   00000048+0000001755          1400 H51090               2AZ
200968002200968567-011906     200968006003000676286BK PROMO CLEARANCE     0000002000+00003507+00000+0001T   00004385+0008141755          1400 H51757               2AZ
200968003200968566-000359     200968006003000582709STICKER BOOK LOVE SPARK0000001000+00002192+00000+0001T   00002192+0000001755          1400 H51130               2AZ
200968004200968077-000245     200968006001023759214GIFT-RIBBON METALLICx2 0000001000+00001227+00000+0001T   00001227+0000001755          1400 H51112               2AZ
200969000200969               200969               170213V1     1400+00000+V10000004383+0000004383+000000000+000000614+0000004990+0000000007+I20000000000+0000004990+Z
200969001200969362-002467     200969006003000167623HAIR EXT LONG 61cm     0000001000+00003507+00000+0001T   00003507+0000001756          1400 H51160               2AZ
200969002200969366-007601     200969006003000655472DRESS UP MASK THEATRICA0000001000+00000876+00000+0001T   00000876+0000001756          1400 H51131               2AZ
200970000200970               200970               170213V1     1400+00000+V10000001753+0000001753+000000000+000000246+0000001990+0000000009+I20000000000+0000001990+Z
200970001200970037-000004     200970006001023763679ASHTRAY PL TUB 8X11CM  0000001000+00001753+00000+0001T   00002192+0008191756          1400 H51515               2AZ
200971000200971               200971               170213V1     1400+00000+V10000002630+0000002630+000000000+000000369+0000002990+0000000009+I20000000000+0000002990+Z
200971001200971006-006018-B   200971006003000008278PARTY-SPRAY HAIR NEON  0000001000+00002630+00000+0001T   00002630+0000001757          1400 H51131               2AZ
200972000200972               200972               170213V1     1400+00000+V10000007451+0000007451+000000000+000001045+0000008490+0000000006+I20000000000+0000008490+Z
200972001200972077-000309-A   200972006003000671007GIFT-BAG HOLOGRAM JMB  0000001000+00002192+00000+0001T   00002192+0000001759          1400 H51112               2AZ
200972002200972903-000618     200972006003000672370SWT LOLLY RAINBOW GIANT0000001000+00001753+00000+0001T   00001753+0000001759          1400 H51150               2AZ
200972003200972565-000043     200972006003000109562NOVELTY BALL FUNNY FACE0000002000+00001753+00000+0001T   00001753+0000001759          1400 H51745               2AZ
200973000200973               200973               170213V1     1400+00000+V10000004385+0000004385+000000000+000000614+0000004990+0000000009+I20000000000+0000004990+Z
200973001200973018-030000     200973006003000421060MUG OCCASIONS LOVE 2PCE0000001000+00004385+00000+0001T   00004385+0000001800          1400 H51515               2AZ
200974000200974               200974               170213V1     1400+00000+V10000002630+0000002630+000000000+000000369+0000002990+0000000009+I20000000000+0000002990+Z
200974001200974567-011902     200974006003000676040BK FOOD GOLDEN CLOUD   0000001000+00002630+00000+0001T   00002630+0000001801          1400 H51757               2AZ
200975000200975               200975               170213V1     1400+00000+V10000005260+0000005260+000000000+000000738+0000005990+0000000008+I20000000000+0000005990+Z
200975001200975567-011902     200975006003000676040BK FOOD GOLDEN CLOUD   0000002000+00002630+00000+0001T   00002630+0000001805          1400 H51757               2AZ
200976000200976               200976               170213V1     1400+00000+V10000005297+0000005297+000000000+000000742+0000006030+0000000009+I20000000000+0000006030+Z
200976001200976018-019000     200976006003000557288MUG OCC. LOVE JUMBO    0000001000+00005262+00000+0001T   00005262+0000001809          1400 H51515               2AZ
200976002200976112-116038     200976006009681820246TCS CARRIER BAG MIDI   0000001000+00000035+00000+0001T   00000035+0000001809          1400 H51090               2AZ
200977000200977               200977               170213V1     1400+00000+V10000000876+0000000876+000000000+000000123+0000000000+0000000000+ 00000000000+0000000000+Z
200977001200977047-000505     200977006009636901976PLUG-ADAPTOR 2-PIN     0000001000+00000876+00000+0001T   00000876+000000              1400 H518801IC            2 Z
200978000200978               200978               170213V1     1400+00000+V10000002629+0000002629+000000000+000000369+0000002998+0000000000+I40000002998+0000000000+Z
200978001200978047-000507     200978006001023684479PLUG-ADAPTOR EURO TWIN 0000001000+00001753+00000+0001T   00001753+0000001812          1400 H51880               2AZ
200978002200978903-000481     200978006001704007481SWT MOO MILK-SHAKES 60G0000001000+00000876+00000+0001T   00000876+0000001812          1400 H51150               2AZ
200979000200979               200979               170213V1     1400+00000+V10000010962+0000010962+000000000+000001535+0000000000+0000000000+ 00000000000+0000000000+Z
200979001200979080-000127     200979006003000424351VALENTINES DAY 36x24CM 0000001000+00002192+00000+0001T   00002192+000000              1400 H511121IC            2 Z
200979002200979006-000190     200979006003000685530BALLOONS LOVE 81x91cm  0000002000+00004385+00000+0001T   00004385+000000              1400 H511311IC            2 Z
200980000200980               200980               170213V1     1400+00000+V10000012223+0000012223+000000000+000001712+0000013930+0000000005+I20000000000+0000013930+Z
200980001200980006-000190     200980006003000685530BALLOONS LOVE 81x91cm  0000001000+00004385+00000+0001T   00004385+0000001815          1400 H51131               2AZ
200980002200980006-001000     200980006003000093779HELIUM BALLOON FILL    0000002000+00000613+00000+0001T   00000613+0000001815          1400 H51131               2AZ
200980003200980080-000127     200980006003000424351VALENTINES DAY 36x24CM 0000001000+00002192+00000+0001T   00002192+0000001815          1400 H51112               2AZ
200980004200980019-000070     200980006003000297474VASE GLS CLEAR BOTTLE  0000001000+00004385+00000+0001T   00004385+0000001815          1400 H51510               2AZ
200980005200980112-116038     200980006009681820246TCS CARRIER BAG MIDI   0000001000+00000035+00000+0001T   00000035+0000001815          1400 H51090               2AZ
200981000200981               200981               170213V1     1400+00000+V10000002493+0000002493+000000000+000000351+0000002840+0000000004+I20000000000+0000002840+Z
200981001200981006-000170-K   200981006003000609284BALLOONS 1PC PURPLE    0000003000+00000218+00000+0001T   00000218+0000001816          1400 H51131               2AZ
200981002200981006-001000     200981006003000093779HELIUM BALLOON FILL    0000003000+00000613+00000+0001T   00000613+0000001816          1400 H51131               2AZ
200982000200982               200982               170213V1     1400+00000+V10000006138+0000006138+000000000+000000860+0000006990+0000000008+I20000000000+0000006990+Z
200982001200982133-000011     200982006001023905246CLOTH FIBRE 4-PACK BOX 0000001000+00004385+00000+0001T   00004385+0000001817          1400 H51212               2AZ
200982002200982133-000010     200982006001023905215CLEANING CLOTHS 6PCE   0000001000+00001753+00000+0001T   00001753+0000001817          1400 H51212               2AZ
200983000200983               200983               170213V1     1400+00000+V10000004382+0000004382+000000000+000000615+0000004990+0000000007+I20000000000+0000004990+Z
200983001200983077-000011-D   200983006001023808554TISSUE-WRAP WHITE 10PCE0000002000+00000876+00000+0001T   00000876+0000001817          1400 H51112               2AZ
200983002200983266-003012     200983006001023786128BOYS P/SET ARCHERY 4pc 0000001000+00002630+00000+0001T   00002630+0000001817          1400 H51710               2AZ
200984000200984               200984               170213V1     1400+00000+V10000000084+0000000084+000000000+000000013+0000000090+0000000007+I20000000000+0000000090+Z
200984001200984006-000190     200984006003000685530BALLOONS LOVE 81x91cm  0000001000-00004385+00000+0001T   00004385+0000001823          1400 H511312IC            2 Z
200984002200984006-000111     200984006003000519385BALLOONS LARGE 12PCE   0000001000+00002630+00000+0001T   00002630+0000001823          1400 H51131               2AZ
200984003200984006-001000     200984006003000093779HELIUM BALLOON FILL    0000003000+00000613+00000+0001T   00000613+0000001823          1400 H51131               2AZ
200985000200985               200985               170213V1     1400+00000+V10000008771+0000008771+000000000+000001228+0000009990+0000000009+I20000000000+0000009990+Z
200985001200985001-091415     200985006003000329113W/GLS OCC. LOVE 2PC 2800000001000+00008771+00000+0001T   00009648+0006471824          1400 H51515               2CZ
200986000200986               200986               170213V1     1400+00000+V10000004385+0000004385+000000000+000000614+0000004999+0000000000+I40000004999+0000000000+Z
200986001200986018-030000     200986006003000421060MUG OCCASIONS LOVE 2PCE0000001000+00004385+00000+0001T   00004385+0000001825          1400 H51515               2AZ
200987000200987               200987               170213V1     1400+00000+V10000003506+0000003506+000000000+000000492+0000003990+0000000008+I20000000000+0000003990+Z
200987001200987006-000120     200987006001023346889BALLOONS 10PC MIX COL  0000002000+00001753+00000+0001T   00001753+0000001826          1400 H51131               2AZ
200988000200988               200988               170213V1     1400+00000+V10000002278+0000002278+000000000+000000320+0000002590+0000000008+I20000000000+0000002590+Z
200988001200988080-000113     200988006003000237449CARD&ENVLPE - LOVE     0000001000+00001753+00000+0001T   00001753+0000001827          1400 H51112               2AZ
200988002200988903-000077     200988006939873501687SWT GS MAGIC ROCK FRUIT0000001000+00000525+00000+0001T   00000525+0000001827          1400 H51150               2AZ
200989000200989               200989               170213V1     1400+00000+V10000007014+0000007014+000000000+000000982+0000007990+0000000006+I20000000000+0000007990+Z
200989001200989018-000130     200989006001023867537MUG OCC LOVE MINI+HEART0000002000+00003507+00000+0001T   00003507+0000001830          1400 H51515               2AZ
200990000200990               200990               170213V1     1400+00000+V10000015784+0000015784+000000000+000002211+0000017990+0000000005+I20000000000+0000017990+Z
200990001200990031-000923     200990006001023669933P/FRAME BLK W/WORDS    0000001000+00003507+00000+0001T   00003507+0000001832          1400 H51510               2AZ
200990002200990368-000012     200990006003000610464PLUSH BEAR 30cm SITTING0000001000+00008771+00000+0001T   00008771+0000001832          1400 H51745               2AZ
200990003200990077-000308     200990006001023595812GIFT-BAG 33X45CM E/DAY 0000001000+00001753+00000+0001T   00001753+0000001832          1400 H51112               2AZ
200990004200990080-000105     200990006003000236237CARD & ENVELOPE BDAY   0000001000+00001753+00000+0001T   00001753+0000001832          1400 H51112               2AZ
200991000200991               200991               170213V1     1400+00000+V10000017536+0000017536+000000000+000002456+0000000000+0000000000+ 00000000000+0000000000+Z
200991001200991567-004962     200991009780636049093TYB G03 ENGLISH        0000001000+00002192+00000+0001T   00002192+000000              1400 H517571IC            2 Z
200991002200991567-004976     200991009780636049024TYB G02 MATHS          0000001000+00002192+00000+0001T   00002192+000000              1400 H517571IC            2 Z
200991003200991567-004963     200991009780636049031TYB G03 MATHS          0000001000+00002192+00000+0001T   00002192+000000              1400 H517571IC            2 Z
200991004200991567-004954     200991009780636049192SPF G01 AFRIKAANS      0000001000+00002192+00000+0001T   00002192+000000              1400 H517571IC            2 Z
200991005200991567-004959     200991009780636049208BOOK EDU SPF G2 AFRIK. 0000001000+00002192+00000+0001T   00002192+000000              1400 H517571IC            2 Z
200991006200991567-004965     200991009780636049215SPF G03 AFRIKAANS      0000002000+00002192+00000+0001T   00002192+000000              1400 H517571IC            2 Z
200991007200991567-004957     200991009780636049086TYB G02 ENGLISH        0000001000+00002192+00000+0001T   00002192+000000              1400 H517571IC            2 Z
200992000200992               200992               170213V1     1400+00000+V10000015344+0000015344+000000000+000002149+0000017493+0000000000+I40000017493+0000000000+Z
200992001200992567-004965     200992009780636049215SPF G03 AFRIKAANS      0000001000+00002192+00000+0001T   00002192+0000001839          1400 H51757               2AZ
200992002200992567-004963     200992009780636049031TYB G03 MATHS          0000001000+00002192+00000+0001T   00002192+0000001839          1400 H51757               2AZ
200992003200992567-004957     200992009780636049086TYB G02 ENGLISH        0000001000+00002192+00000+0001T   00002192+0000001839          1400 H51757               2AZ
200992004200992567-004962     200992009780636049093TYB G03 ENGLISH        0000001000+00002192+00000+0001T   00002192+0000001839          1400 H51757               2AZ
200992005200992567-004976     200992009780636049024TYB G02 MATHS          0000001000+00002192+00000+0001T   00002192+0000001839          1400 H51757               2AZ
200992006200992567-004959     200992009780636049208BOOK EDU SPF G2 AFRIK. 0000001000+00002192+00000+0001T   00002192+0000001839          1400 H51757               2AZ
200992007200992567-004954     200992009780636049192SPF G01 AFRIKAANS      0000001000+00002192+00000+0001T   00002192+0000001839          1400 H51757               2AZ
200993000200993               200993               170213V1     1400+00000+V10000008771+0000008771+000000000+000001228+0000009999+0000000000+I40000009999+0000000000+Z
200993001200993001-091415     200993006003000329113W/GLS OCC. LOVE 2PC 2800000001000+00008771+00000+0001T   00009648+0006471846          1400 H51515               2AZ
200994000200994               200994               170213V1     1400+00000+V10000007452+0000007452+000000000+000001045+0000008490+0000000007+I20000000000+0000008490+Z
200994001200994077-000005-B   200994006003000326617PAPER TISSUE PATTERN   0000001000+00002630+00000+0001T   00002630+0000001856          1400 H51112               2AZ
200994002200994080-000133     200994006003000535613CARD&ENV MINI ASTD DSGN0000001000+00000437+00000+0001T   00000437+0000001856          1400 H51112               2AZ
200994003200994030-000031-A   200994006003000457588PLAQUE W/WORDS ASSTD   0000001000+00004385+00000+0001T   00004823+0006471856          1400 H51505               2AZ
200995000200995               200995               170213V1     1400+00000+V10000024155+0000024155+000000000+000003388+0000027540+0000000003+I20000000000+0000027540+Z
200995001200995107-002117     200995006002580008890BASIN PL 32cm(VIRGIN)4L0000002000+00001753+00000+0001T   00001753+0000001859          1400 H51210               2AZ
200995002200995200-003024     200995006001023657299REFUSE BAGS 20PCE BLACK0000001000+00001753+00000+0001T   00001753+0000001859          1400 H51214               2AZ
200995003200995133-000010-A   200995006001023997647CLEANING CLOTH ROLL 30 0000001000+00003507+00000+0001T   00003507+0000001859          1400 H51212               2AZ
200995004200995027-783000     200995006001023874641SCOURERS RAINBOW 5PCE  0000001000+00001753+00000+0001T   00001753+0000001859          1400 H51212               2AZ
200995005200995024-091100     200995006001023914224BAKING-CUPS PAPER 100PC0000003000+00001753+00000+0001T   00001753+0000001859          1400 H51300               2AZ
200995006200995038-092233     200995006003000328925TABLE-MAT N/SLIP ASST  0000001000+00003069+00000+0001T   00003507+0008191859          1400 H51300               2AZ
200995007200995002-000650     200995006001023473578M/SPOON WDN 40cm H/HOUS0000002000+00002630+00000+0001T   00002630+0000001859          1400 H51300               2AZ
200995008200995112-116069     200995006009681820277TCS CARRIER BAG JUMBO  0000001000+00000048+00000+0001T   00000048+0000001859          1400 H51090               2AZ
M17021301                              IT          V1ATT:IT                                          SLAVE 2 LAST TILL SLIP NO 200995                XPOLOKWANE 3                                    THANX SELLO
M17021391                              CASH        V1SLAVE 2                       Z-REPORT No.   185TOTAL (Sales - Refunds)           7023.48       CASH TO BE BANKED                 4662.30       DEBIT CARDS                          0.00       CREDIT CARDS                      2361.18       Z-READING                         7023.48       AIRTIME DEBIT CARD SALES             0.00       AIRTIME CARD SALES                   0.00       OVERS/UNDERS                         0.00       AIRTIME CASH SALES                   0.00       GIFT CARDS                           0.00       GIFT CARD CASH SALES                 0.00       T O T A L  CASH PAYOUTS              0.00                                                                                                                                                                                                                                                                                                                                                      Z
M17021392                              CASH        V1ABSENT                                                                                                                                                                                          ANNUAL LEAVE                                                                                                                                                                                    DAY OFF                                                                                                                                                                                         COMMENTS                                                                                                                                                                                                                                                                                                                                                                                       Z
Y17021300                                          V100000000620798+000090
ZV117021320253 SLAVE 2      SALES DATA                     NEXT INVOICE NO.  200996 0185
X V1 Slave 2 First invoice 200903 170213 Last invoice 200995 170213 Next invoice 200996 Total number of records 000000346 clbackup completed 20:25:48
