102721000102721               102721               170213VA     1400+00000+VA0000013447+0000013447+000000000+000001884+0000015330+0000000001+I20000000000+0000015330+Z
102721001102721002-001700     102721006003000333707ONION-KEEPER PL        0000003000+00002192+00000+0001T   00002192+0000000945          1400 NJ7300               1AZ
102721002102721112-116038     102721006009681820246TCS CARRIER BAG MIDI   0000001000+00000035+00000+0001T   00000035+0000000945          1400 NJ7090               1AZ
102721003102721903-004950     102721006002580020304SWT APRICOT SURPRISE   0000002000+00001314+00000+0001T   00001314+0000000945          1400 NJ7150               1AZ
102721004102721903-000095     102721006001704011495SWT SPECKLED-EGGS 100G 0000002000+00002104+00000+0001T   00002104+0000000945          1400 NJ7150               1AZ
102722000102722               102722               170213VA     1400+00000+VA0000002366+0000002366+000000000+000000332+0000002698+0000000000+I40000002698+0000000000+Z
102722001102722150-004030-H   102722006001023435798BATH-PLUG RUBBER WHITE 0000001000+00000613+00000+0001T   00000613+0000000947          1400 NJ7810               1AZ
102722002102722106-007125     102722006003000057689MILK-SACHET-JUG 1,0L   0000001000+00001753+00000+0001T   00001753+0000000947          1400 NJ7210               1AZ
102723000102723               102723               170213VA     1400+00000+VA0000002630+0000002630+000000000+000000369+0000002990+0000000009+I20000000000+0000002990+Z
102723001102723077-000235     102723006003000160211GIFT-RIBBON ROLL METALC0000001000+00002630+00000+0001T   00002630+0000001109          1400 NJ7112               1AZ
102724000102724               102724               170213VA     1400+00000+VA0000007889+0000007889+000000000+000001107+0000008990+0000000006+I20000000000+0000008990+Z
102724001102724306-000023     102724006001023606976COTTON-WOOL-BALLS 50PCE0000001000+00000876+00000+0001T   00000876+0000001112          1400 NJ7200               1AZ
102724002102724567-075466     102724009780263911091BK NOVEL ROMANCE       0000001000+00002630+00000+0001T   00002630+0000001112          1400 NJ7757               1AZ
102724003102724567-075466     102724009780263250848BK NOVEL ROMANCE       0000001000+00002630+00000+0001T   00002630+0000001112          1400 NJ7757               1AZ
102724004102724080-000110     102724006003000237326CARD&ENVLPE BDAY-FUNNY 0000001000+00001753+00000+0001T   00001753+0000001112          1400 NJ7112               1AZ
102725000102725               102725               170213VA     1400+00000+VA0000002630-0000002630-000000000+000000369-0000003000-0000000001+I20000000000+0000003000-Z
102725001102725077-000235     102725006003000160211GIFT-RIBBON ROLL METALC0000001000-00002630+00000+0001T   00002630+0000001115          1400 NJ71122IC            1 Z
102726000102726               102726               170213VA     1400+00000+VA0000003330+0000003330+000000000+000000467+0000003790+0000000007+I20000000000+0000003790+Z
102726001102726077-000303     102726006001023593757GIFT-BAG PAPER MED     0000001000+00001578+00000+0001T   00001578+0000001121          1400 NJ7112               1AZ
102726002102726077-000314     102726006003000181148GIFT-BAG 11X14CM MATT  0000002000+00000876+00000+0001T   00000876+0000001121          1400 NJ7112               1AZ
102727000102727               102727               170213VA     1400+00000+VA0000003330+0000003330+000000000+000000467+0000003790+0000000007+I20000000000+0000003790+Z
102727001102727007-000166     102727006009685857316SPIRAL NOTES A6 100PG  0000001000+00000700+00000+0001T   00000700+0000001129          1400 NJ7130               1AZ
102727002102727033-000001     102727006003000344321TINTING BOWL & BRUSHES 0000001000+00002630+00000+0001T   00002630+0000001129          1400 NJ7200               1AZ
102728000102728               102728               170213VA     1400+00000+VA0000003157+0000003157+000000000+000000442+0000003590+0000000009+I20000000000+0000003590+Z
102728001102728047-002041     102728006002521079170PLUG-ADAPTOR 2x16A 2x5A0000001000+00003157+00000+0001T   00003157+0000001131          1400 NJ7880               1AZ
102729000102729               102729               170213VA     1400+00000+VA0000002628+0000002628+000000000+000000369+0000002990+0000000007+I20000000000+0000002990+Z
102729001102729033-005930     102729006001023678423PINS STRAIGHT 20g  CARD0000003000+00000876+00000+0001T   00000876+0000001133          1400 NJ7200               1AZ
102730000102730               102730               170213VA     1400+00000+VA0000002661+0000002661+000000000+000000373+0000003034+0000000000+I40000003034+0000000000+Z
102730001102730077-000311     102730006001023608666GIFT-BAG 11X14CM GLOSS 0000002000+00000613+00000+0001T   00000613+0000001137          1400 NJ7112               1AZ
102730002102730018-000177     102730006001023797513MUG MINI LOVE ASSTD    0000002000+00000700+00000+0001T   00000700+0000001137          1400 NJ7515               1AZ
102730003102730112-116038     102730006009681820246TCS CARRIER BAG MIDI   0000001000+00000035+00000+0001T   00000035+0000001137          1400 NJ7090               1AZ
102731000102731               102731               170213VA     1400+00000+VA0000021711+0000021711+000000000+000003041+0000024752+0000000000+I40000024752+0000000000+Z
102731001102731495-059718     102731000078257597185LOUNGER RELAX-A-MAT    0000001000+00005262+00000+0001T   00005262+0000001155          1400 NJ7787               1AZ
102731002102731565-004101     102731006003000548033BALL BOUNCING EGG      0000001000+00001490+00000+0001T   00001490+0000001155          1400 NJ7745               1AZ
102731003102731495-058802     102731000078257588022CHAIR 160x85cm LOUNGER 0000001000+00014911+00000+0001T   00014911+0000001155          1400 NJ7787               1AZ
102731004102731112-116069     102731006009681820277TCS CARRIER BAG JUMBO  0000001000+00000048+00000+0001T   00000048+0000001155          1400 NJ7090               1AZ
102732000102732               102732               170213VA     1400+00000+VA0000001753+0000001753+000000000+000000246+0000001990+0000000009+I20000000000+0000001990+Z
102732001102732007-000192     102732006009635830062BOOK H/COVER A4 192PAGE0000001000+00001753+00000+0001T   00001753+0000001156          1400 NJ7130               1AZ
102733000102733               102733               170213VA     1400+00000+VA0000002192+0000002192+000000000+000000307+0000002490+0000000009+I20000000000+0000002490+Z
102733001102733002-000740     102733006001023763945GRATER 4-WAY WHITE     0000001000+00002192+00000+0001T   00002192+0000001156          1400 NJ7300               1AZ
102734000102734               102734               170213VA     1400+00000+VA0000001753+0000001753+000000000+000000246+0000001990+0000000009+I20000000000+0000001990+Z
102734001102734007-000094     102734006003000659289ENVELOPES WHT 5PK C4   0000001000+00001753+00000+0001T   00001753+0000001158          1400 NJ7130               1AZ
102735000102735               102735               170213VA     1400+00000+VA0000001753+0000001753+000000000+000000246+0000001990+0000000009+I20000000000+0000001990+Z
102735001102735362-101402     102735006001023915894H/BAND SET 12PACK ASSTD0000001000+00001753+00000+0001T   00001753+0000001159          1400 NJ7160               1AZ
102736000102736               102736               170213VA     1400+00000+VA0000010518+0000010518+000000000+000001476+0000011990+0000000004+I20000000000+0000011990+Z
102736001102736007-000050     102736006001023528285DISPLAY-ENVELOPE A4    0000005000+00001753+00000+0001T   00001753+0000001317          1400 NJ7130               1AZ
102736002102736077-000116     102736006003000240777GIFT-WRAP 700mmx2m COL 0000001000+00001753+00000+0001T   00001753+0000001317          1400 NJ7112               1AZ
102737000102737               102737               170213VA     1400+00000+VA0000002892+0000002892+000000000+000000405+0000003290+0000000007+I20000000000+0000003290+Z
102737001102737077-000310     102737006001023608635GIFT-BAG 18X23CM GLOSS 0000001000+00001314+00000+0001T   00001314+0000001321          1400 NJ7112               1AZ
102737002102737018-000127     102737006001023380289MUG OCC STRAIGHT LOVE  0000001000+00001578+00000+0001T   00001753+0006471321          1400 NJ7515               1AZ
102738000102738               102738               170213VA     1400+00000+VA0000008977+0000008977+000000000+000001258+0000010235+0000000000+I10000010000+0000000235+Z
102738001102738018-030000     102738006003000421060MUG OCCASIONS LOVE 2PCE0000001000+00004385+00000+0001T   00004385+0000001323          1400 NJ7515               1AZ
102738002102738018-000130     102738006001023867537MUG OCC LOVE MINI+HEART0000001000+00003507+00000+0001T   00003507+0000001323          1400 NJ7515               1AZ
102738003102738903-000155     102738006009803374435SWT LOLLY I LUV U HEART0000002000+00000525+00000+0001T   00000525+0000001323          1400 NJ7150               1AZ
102738004102738112-116038     102738006009681820246TCS CARRIER BAG MIDI   0000001000+00000035+00000+0001T   00000035+0000001323          1400 NJ7090               1AZ
102739000102739               102739               170213VA     1400+00000+VA0000000876+0000000876+000000000+000000123+0000000990+0000000009+I20000000000+0000000990+Z
102739001102739077-000314     102739006003000181148GIFT-BAG 11X14CM MATT  0000001000+00000876+00000+0001T   00000876+0000001327          1400 NJ7112               1AZ
102740000102740               102740               170213VA     1400+00000+VA0000001753+0000001753+000000000+000000246+0000001999+0000000000+I40000001999+0000000000+Z
102740001102740200-000069     102740006003000664429STRAWS DRINKING PAPER  0000001000+00001753+00000+0001T   00001753+0000001330          1400 NJ7214               1AZ
102741000102741               102741               170213VA     1400+00000+VA0000001788+0000001788+000000000+000000251+0000002030+0000000009+I20000000000+0000002030+Z
102741001102741150-049046     102741006001023189196FORCE-CUP 100x225mm    0000001000+00001753+00000+0001T   00001753+0000001332          1400 NJ7810               1AZ
102741002102741112-116038     102741006009681820246TCS CARRIER BAG MIDI   0000001000+00000035+00000+0001T   00000035+0000001332          1400 NJ7090               1AZ
102742000102742               102742               170213VA     1400+00000+VA0000008817+0000008817+000000000+000001236+0000010053+0000000000+I40000010053+0000000000+Z
102742001102742112-116069     102742006009681820277TCS CARRIER BAG JUMBO  0000001000+00000048+00000+0001T   00000048+0000001334          1400 NJ7090               1AZ
102742002102742077-000299-A   102742006003000670888GIFT-BAG PAPER JMB LOVE0000001000+00001753+00000+0001T   00001753+0000001334          1400 NJ7112               1AZ
102742003102742031-086219-C   102742006001023808905P/FRAME WDN A4 30X40CM 0000001000+00007016+00000+0001T   00007016+0000001334          1400 NJ7510               1AZ
102743000102743               102743               170213VA     1400+00000+VA0000030699-0000030699-000000000+000004299-0000035000-0000000002+I20000000000+0000035000-Z
102743001102743497-068614     102743000078257686148H/PUMP HIGH-O/PUT 36cm 0000001000-00006139+00000+0001T   00006139+0000001338          1400 NJ77871IC            1 Z
102743002102743497-068757     102743000078257687572AIR-BED DOWNY-T 99x191 0000001000-00024560+00000+0001T   00024560+0000001338          1400 NJ77871IC            1 Z
102744000102744               102744               170213VA     1400+00000+VA0000002192+0000002192+000000000+000000307+0000002490+0000000009+I20000000000+0000002490+Z
102744001102744200-000067     102744006003000330683STRAWS DRINKING 100PC  0000001000+00002192+00000+0001T   00002192+0000001338          1400 NJ7214               1AZ
102745000102745               102745               170213VA     1400+00000+VA0000008065+0000008065+000000000+000001131+0000009190+0000000006+I20000000000+0000009190+Z
102745001102745007-000597     102745006009699511129MARLIN SLF ADHESIVE 2M 0000002000+00002192+00000+0001T   00002192+0000001339          1400 NJ7130               1AZ
102745002102745077-000115-B   102745006003000181025GIFT-WRAP PPR 700MMX2M 0000001000+00002630+00000+0001T   00002630+0000001339          1400 NJ7112               1AZ
102745003102745033-000121     102745006009654960573COMBS FAMILY PACK-OF-2 0000001000+00001051+00000+0001T   00001051+0000001339          1400 NJ7200               1AZ
102746000102746               102746               170213VA     1400+00000+VA0000000048+0000000048+000000000+000000007+0000000050+0000000005+I20000000000+0000000050+Z
102746001102746112-116069     102746006009681820277TCS CARRIER BAG JUMBO  0000001000+00000048+00000+0001T   00000048+0000001340          1400 NJ7090               1AZ
102747000102747               102747               170213VA     1400+00000+VA0000004385+0000004385+000000000+000000614+0000004990+0000000009+I20000000000+0000004990+Z
102747001102747004-078900     102747006003000061655MICROPHONE O/F SWT 21cm0000001000+00004385+00000+0001T   00004385+0000001342          1400 NJ7310               1AZ
102748000102748               102748               170213VA     1400+00000+VA0000004385+0000004385+000000000+000000614+0000004990+0000000009+I20000000000+0000004990+Z
102748001102748159-003600     102748006001023606174TOILET-BRUSH W/STAND PL0000001000+00004385+00000+0001T   00004385+0000001342          1400 NJ7200               1AZ
102749000102749               102749               170213VA     1400+00000+VA0000000876+0000000876+000000000+000000123+0000000990+0000000009+I20000000000+0000000990+Z
102749001102749077-000314     102749006003000181148GIFT-BAG 11X14CM MATT  0000001000+00000876+00000+0001T   00000876+0000001344          1400 NJ7112               1AZ
102750000102750               102750               170213VA     1400+00000+VA0000014034+0000014034+000000000+000001965+0000015990+0000000009+I20000000000+0000015990+Z
102750001102750105-009017     102750006002923006804STORAGE BOX FROSTED 55L0000001000+00014034+00000+0001T   00014034+0000001345          1400 NJ7210               1AZ
102751000102751               102751               170213VA     1400+00000+VA0000005380+0000005380+000000000+000000754+0000006130+0000000004+I20000000000+0000006130+Z
102751001102751903-000194     102751006009826020616SWT CHOC RP LOLLY 25G  0000001000+00001314+00000+0001T   00001314+0000001346          1400 NJ7150               1AZ
102751002102751903-000155     102751006009803374435SWT LOLLY I LUV U HEART0000001000+00000525+00000+0001T   00000525+0000001346          1400 NJ7150               1AZ
102751003102751903-000194     102751006009826020616SWT CHOC RP LOLLY 25G  0000001000+00001314+00000+0001T   00001314+0000001346          1400 NJ7150               1AZ
102751004102751566-000359     102751006003000582709STICKER BOOK LOVE SPARK0000001000+00002192+00000+0001T   00002192+0000001346          1400 NJ7130               1AZ
102751005102751112-116038     102751006009681820246TCS CARRIER BAG MIDI   0000001000+00000035+00000+0001T   00000035+0000001346          1400 NJ7090               1AZ
102752000102752               102752               170213VA     1400+00000+VA0000021928+0000021928+000000000+000003070+0000024998+0000000000+I10000004998+0000020000+Z
102752001102752031-001014     102752006003000675302P/FRAME COLL PL 15-HOLE0000001000+00021928+00000+0001T   00021928+0000001355          1400 NJ7510               1AZ
102753000102753               102753               170213VA     1400+00000+VA0000007829+0000007829+000000000+000001101+0000008930+0000000000+I40000008930+0000000000+Z
102753001102753079-000358     102753006003000591046ART+CRAFT FELT-TIP PENS0000001000+00003069+00000+0001T   00003069+0000001404          1400 NJ7130               1AZ
102753002102753903-000155     102753006009803374435SWT LOLLY I LUV U HEART0000009000+00000525+00000+0001T   00000525+0000001404          1400 NJ7150               1AZ
102753003102753112-116038     102753006009681820246TCS CARRIER BAG MIDI   0000001000+00000035+00000+0001T   00000035+0000001404          1400 NJ7090               1AZ
102754000102754               102754               170213VA     1400+00000+VA0000001490+0000001490+000000000+000000209+0000001690+0000000009+I20000000000+0000001690+Z
102754001102754036-000605     102754006001023158611WASHING-PEGS WDN PCK-240000001000+00001490+00000+0001T   00001490+0000001404          1400 NJ7212               1AZ
102755000102755               102755               170213VA     1400+00000+VA0000006534+0000006534+000000000+000000916+0000007450+0000000000+I20000000000+0000007450+Z
102755001102755103-000090     102755006001023795786WOVEN HEART SHAPED     0000001000+00003507+00000+0001T   00003507+0000001407          1400 NJ7300               1AZ
102755002102755077-000150-D   102755006003000054343GIFT-WRAP CELLPHANE CLR0000002000+00000876+00000+0001T   00000876+0000001407          1400 NJ7112               1AZ
102755003102755903-000518     102755006001704012782SWT STRAWS S/BERRY 100g0000001000+00001227+00000+0001T   00001227+0000001407          1400 NJ7150               1AZ
102755004102755112-116069     102755006009681820277TCS CARRIER BAG JUMBO  0000001000+00000048+00000+0001T   00000048+0000001407          1400 NJ7090               1AZ
102756000102756               102756               170213VA     1400+00000+VA0000001753+0000001753+000000000+000000246+0000001990+0000000009+I20000000000+0000001990+Z
102756001102756002-000015     102756006003000555604CAPPUCCINO STENCILS 12P0000001000+00001753+00000+0001T   00001753+0000001409          1400 NJ7300               1AZ
102757000102757               102757               170213VA     1400+00000+VA0000001402+0000001402+000000000+000000197+0000001590+0000000009+I20000000000+0000001590+Z
102757001102757304-001204     102757006001023737984FLOWER OCC. TEDDY/ROSES0000001000+00001402+00000+0001T   00001490+0006471414          1400 NJ7510               1AZ
102758000102758               102758               170213VA     1400+00000+VA0000003542+0000003542+000000000+000000496+0000004030+0000000008+I20000000000+0000004030+Z
102758001102758018-000136     102758006001023659026MUG OCC LOVE W/PLUSH   0000001000+00003507+00000+0001T   00003507+0000001418          1400 NJ7515               1AZ
102758002102758112-116038     102758006009681820246TCS CARRIER BAG MIDI   0000001000+00000035+00000+0001T   00000035+0000001418          1400 NJ7090               1AZ
102759000102759               102759               170213VA     1400+00000+VA0000008362+0000008362+000000000+000001173+0000009530+0000000005+I20000000000+0000009530+Z
102759001102759903-000211     102759006002099001238SWT GS MALLOW ICE CREAM0000002000+00001753+00000+0001T   00001753+0000001419          1400 NJ7150               1AZ
102759002102759200-000211     102759006003000671847BAKING-PANS ALUM-FOIL  0000001000+00001753+00000+0001T   00001753+0000001419          1400 NJ7214               1AZ
102759003102759080-000124     102759006003000297733CARD & ENV VALENTINES  0000001000+00001578+00000+0001T   00001578+0000001419          1400 NJ7112               1AZ
102759004102759077-000299     102759006003000395576G/BAG 32x25cm LRG LOVE 0000001000+00001490+00000+0001T   00001490+0000001419          1400 NJ7112               1AZ
102759005102759112-116038     102759006009681820246TCS CARRIER BAG MIDI   0000001000+00000035+00000+0001T   00000035+0000001419          1400 NJ7090               1AZ
102760000102760               102760               170213VA     1400+00000+VA0000007043+0000007043+000000000+000000989+0000008032+0000000000+I40000008032+0000000000+Z
102760001102760112-116038     102760006009681820246TCS CARRIER BAG MIDI   0000001000+00000035+00000+0001T   00000035+0000001424          1400 NJ7090               1AZ
102760002102760105-000750     102760006003000190270CONTAINERS 4xMINI 150ml0000004000+00001402+00000+0001T   00001402+0000001424          1400 NJ7210               1AZ
102760003102760903-000070     102760006001704001106SWT TOFFEE CREAMY 35g  0000002000+00000700+00000+0001T   00000700+0000001424          1400 NJ7150               1AZ
102761000102761               102761               170213VA     1400+00000+VA0000021429+0000021429+000000000+000003003+0000024432+0000000000+I40000024432+0000000000+Z
102761001102761303-000802     102761006001023442642SHIPS-CORD-RINGER 11cm 0000001000+00017542+00000+0001T   00017542+0000001426          1400 NJ7510               1AZ
102761002102761903-000200     102761006009826020234SWT CHOC RP CHOCO 23G  0000003000+00000788+00000+0001T   00000788+0000001426          1400 NJ7150               1AZ
102761003102761018-000177     102761006001023797513MUG MINI LOVE ASSTD    0000001000+00000700+00000+0001T   00000700+0000001426          1400 NJ7515               1AZ
102761004102761077-000010-C   102761006001023123879CREPE-PAPER RED        0000001000+00000788+00000+0001T   00000788+0000001426          1400 NJ7112               1AZ
102761005102761112-116038     102761006009681820246TCS CARRIER BAG MIDI   0000001000+00000035+00000+0001T   00000035+0000001426          1400 NJ7090               1AZ
102762000102762               102762               170213VA     1400+00000+VA0000012301+0000012301+000000000+000001725+0000014026+0000000000+I40000014026+0000000000+Z
102762001102762368-000049     102762006003000536955PLUSH BEAR 15cm LOVE   0000001000+00004385+00000+0001T   00004385+0000001428          1400 NJ7745               1AZ
102762002102762112-116038     102762006009681820246TCS CARRIER BAG MIDI   0000001000+00000035+00000+0001T   00000035+0000001428          1400 NJ7090               1AZ
102762003102762077-000311     102762006001023608666GIFT-BAG 11X14CM GLOSS 0000003000+00000613+00000+0001T   00000613+0000001428          1400 NJ7112               1AZ
102762004102762077-000303     102762006001023593757GIFT-BAG PAPER MED     0000001000+00001578+00000+0001T   00001578+0000001428          1400 NJ7112               1AZ
102762005102762903-000200     102762006009826020234SWT CHOC RP CHOCO 23G  0000003000+00000788+00000+0001T   00000788+0000001428          1400 NJ7150               1AZ
102762006102762018-000177     102762006001023797513MUG MINI LOVE ASSTD    0000003000+00000700+00000+0001T   00000700+0000001428          1400 NJ7515               1AZ
102763000102763               102763               170213VA     1400+00000+VA0000011171+0000011171+000000000+000001565+0000012736+0000000000+I40000012736+0000000000+Z
102763001102763368-000265     102763006001023750914PLUSH BEAR 23CM ASSTD C0000001000+00006139+00000+0001T   00006139+0000001432          1400 NJ7745               1AZ
102763002102763301-085004     102763006003000420469ORN LOVE PLAQUE 21X10CM0000001000+00003507+00000+0001T   00003946+0006471432          1400 NJ7505               1AZ
102763003102763077-000299     102763006003000395576G/BAG 32x25cm LRG LOVE 0000001000+00001490+00000+0001T   00001490+0000001432          1400 NJ7112               1AZ
102763004102763112-116038     102763006009681820246TCS CARRIER BAG MIDI   0000001000+00000035+00000+0001T   00000035+0000001432          1400 NJ7090               1AZ
102764000102764               102764               170213VA     1400+00000+VA0000003069+0000003069+000000000+000000430+0000003490+0000000009+I20000000000+0000003490+Z
102764001102764079-006518     102764006003000647378ART+CRAFT FABRIC MARKER0000001000+00003069+00000+0001T   00003069+0000001432          1400 NJ7130               1AZ
102765000102765               102765               170213VA     1400+00000+VA0000001578+0000001578+000000000+000000221+0000001790+0000000009+I20000000000+0000001790+Z
102765001102765018-000127     102765006001023380289MUG OCC STRAIGHT LOVE  0000001000+00001578+00000+0001T   00001753+0006471437          1400 NJ7515               1AZ
102766000102766               102766               170213VA     1400+00000+VA0000008771+0000008771+000000000+000001228+0000009990+0000000009+I20000000000+0000009990+Z
102766001102766039-000799     102766006001023692382CANDLES TEALITE 100PCE 0000001000+00008771+00000+0001T   00008771+0000001438          1400 NJ7510               1AZ
102767000102767               102767               170213VA     1400+00000+VA0000003278+0000003278+000000000+000000460+0000003730+0000000008+I20000000000+0000003730+Z
102767001102767077-000299     102767006003000395576G/BAG 32x25cm LRG LOVE 0000001000+00001490+00000+0001T   00001490+0000001440          1400 NJ7112               1AZ
102767002102767018-000108     102767006001023380265MUG NOVELTY ICON ASST  0000001000+00001753+00000+0001T   00001753+0000001440          1400 NJ7515               1AZ
102767003102767112-116038     102767006009681820246TCS CARRIER BAG MIDI   0000001000+00000035+00000+0001T   00000035+0000001440          1400 NJ7090               1AZ
102768000102768               102768               170213VA     1400+00000+VA0000005000-0000000000+000000000+000000000+0000005000-0000000000+I20000000000+0000005000-Z
102768001102768001-999903     102768000000000999903ELECTRICITY            0000001000-00005000+00000+0001X   00000000+0000001441          0000 NJ79031IC            1 Z
102769000102769               102769               170213VA     1400+00000+VA0000021094+0000021094+000000000+000002956+0000024050+0000000000+I40000024050+0000000000+Z
102769001102769567-010161     102769009780000008516BOOK TOP ASSTD MILLS   0000003000+00005262+00000+0001T   00005262+0000001459          1400 NJ7757               1AZ
102769002102769567-075466     102769009780263253405BK NOVEL ROMANCE       0000001000+00002630+00000+0001T   00002630+0000001459          1400 NJ7757               1AZ
102769003102769567-075466     102769009780263907346BK NOVEL ROMANCE       0000001000+00002630+00000+0001T   00002630+0000001459          1400 NJ7757               1AZ
102769004102769112-116069     102769006009681820277TCS CARRIER BAG JUMBO  0000001000+00000048+00000+0001T   00000048+0000001459          1400 NJ7090               1AZ
102770000102770               102770               170213VA     1400+00000+VA0000005295+0000005295+000000000+000000743+0000006030+0000000008+I20000000000+0000006030+Z
102770001102770251-000003     102770006003000266159TAPE D/S 18x300mm V/PCK0000002000+00002630+00000+0001T   00002630+0000001501          1400 NJ7810               1AZ
102770002102770112-116038     102770006009681820246TCS CARRIER BAG MIDI   0000001000+00000035+00000+0001T   00000035+0000001501          1400 NJ7090               1AZ
102771000102771               102771               170213VA     1400+00000+VA0000001753+0000001753+000000000+000000246+0000001990+0000000009+I20000000000+0000001990+Z
102771001102771077-000299-A   102771006003000670888GIFT-BAG PAPER JMB LOVE0000001000+00001753+00000+0001T   00001753+0000001507          1400 NJ7112               1AZ
102772000102772               102772               170213VA     1400+00000+VA0000003507+0000003507+000000000+000000491+0000003998+0000000000+I40000003998+0000000000+Z
102772001102772071-003023     102772006001023836120BALLPENS 10PCE MINI GEL0000001000+00003507+00000+0001T   00003507+0000001511          1400 NJ7130               1AZ
102773000102773               102773               170213VA     1400+00000+VA0000001314+0000001314+000000000+000000184+0000001490+0000000008+I20000000000+0000001490+Z
102773001102773078-009100     102773006008741002349ALL-CLEAR GLUE 25ml CRD0000001000+00001314+00000+0001T   00001314+0000001513          1400 NJ7810               1AZ
102774000102774               102774               170213VA     1400+00000+VA0000001753+0000001753+000000000+000000246+0000001990+0000000009+I20000000000+0000001990+Z
102774001102774560-000703     102774006003000332403INSECTS 9PC ASSTD      0000001000+00001753+00000+0001T   00001753+0000001521          1400 NJ7745               1AZ
102775000102775               102775               170213VA     1400+00000+VA0000001314+0000001314+000000000+000000184+0000001490+0000000008+I20000000000+0000001490+Z
102775001102775004-071280     102775006003000129959WRITABLE-CD SINGLE     0000001000+00001314+00000+0001T   00001314+0000001537          1400 NJ7310               1AZ
102776000102776               102776               170213VA     1400+00000+VA0000003069+0000003069+000000000+000000430+0000003499+0000000000+I40000003499+0000000000+Z
102776001102776033-000600     102776006003000365098HAIR-BRUSH 23cm VENT   0000001000+00003069+00000+0001T   00003069+0000001542          1400 NJ7200               1AZ
102777000102777               102777               170213VA     1400+00000+VA0000003507+0000003507+000000000+000000491+0000003998+0000000000+I40000003998+0000000000+Z
102777001102777004-071267     102777006001023907875LCD CLEANING KIT+CLOTH 0000001000+00003507+00000+0001T   00003507+0000001543          1400 NJ7310               1AZ
102778000102778               102778               170213VA     1400+00000+VA0000015780+0000015780+000000000+000002214+0000017990+0000000004+I20000000000+0000017990+Z
102778001102778463-000366     102778006001023789136SWIM W/NOODLE 150cm    0000006000+00002630+00000+0001T   00002630+0000001546          1400 NJ7785               1AZ
102779000102779               102779               170213VA     1400+00000+VA0000005262+0000005262+000000000+000000737+0000005990+0000000009+I20000000000+0000005990+Z
102779001102779158-003092     102779006003000621644PAPER TOWEL HOLDER CHR 0000001000+00005262+00000+0001T   00005262+0000001547          1400 NJ7300               1AZ
102780000102780               102780               170213VA     1400+00000+VA0000001578+0000001578+000000000+000000221+0000001799+0000000000+I40000001799+0000000000+Z
102780001102780080-000124     102780006003000297733CARD & ENV VALENTINES  0000001000+00001578+00000+0001T   00001578+0000001553          1400 NJ7112               1AZ
102781000102781               102781               170213VA     1400+00000+VA0000036008+0000036008+000000000+000005043+0000041050+0000000001+I20000000000+0000041050+Z
102781001102781263-000501     102781006001023790804TRUCK+TRAILR CONVEYANCE0000001000+00017542+00000+0001T   00017542+0000001602          1400 NJ7710               1AZ
102781002102781263-000160     102781006001023690975MOTORBIKE FRIC QUAD    0000001000+00007016+00000+0001T   00007016+0000001602          1400 NJ7710               1AZ
102781003102781112-116069     102781006009681820277TCS CARRIER BAG JUMBO  0000001000+00000048+00000+0001T   00000048+0000001602          1400 NJ7090               1AZ
102781004102781586-098618     102781006001492986180WATCH GIRLS DBL HRT PNK0000001000+00011402+00000+0001T   00011402+0000001602          1400 NJ7160               1AZ
102782000102782               102782               170213VA     1400+00000+VA0000005262+0000005262+000000000+000000737+0000005990+0000000009+I20000000000+0000005990+Z
102782001102782075-000325     102782006003000285495WALLET CANVAS ASSTD    0000001000+00005262+00000+0001T   00005262+0000001603          1400 NJ7160               1AZ
102783000102783               102783               170213VA     1400+00000+VA0000002100+0000002100+000000000+000000296+0000002390+0000000006+I20000000000+0000002390+Z
102783001102783903-000155     102783006009803374435SWT LOLLY I LUV U HEART0000004000+00000525+00000+0001T   00000525+0000001603          1400 NJ7150               1AZ
102784000102784               102784               170213VA     1400+00000+VA0000007014+0000007014+000000000+000000982+0000007996+0000000000+I40000007996+0000000000+Z
102784001102784263-000415     102784006003000600571V/TOOLS PLASTIC ASSEMBL0000001000+00003507+00000+0001T   00003507+0000001605          1400 NJ7710               1AZ
102784002102784113-000001     102784006003000088690TRAVEL MUG 400ml S/S   0000001000+00003507+00000+0001T   00003507+0000001605          1400 NJ7305               1AZ
102785000102785               102785               170213VA     1400+00000+VA0000001753+0000001753+000000000+000000246+0000001999+0000000000+I40000001999+0000000000+Z
102785001102785016-006509     102785006003000567355S/JAR GLS MINI LABEL   0000001000+00001753+00000+0001T   00002192+0008191624          1400 NJ7300               1AZ
102786000102786               102786               170213VA     1400+00000+VA0000000876+0000000876+000000000+000000123+0000000990+0000000009+I20000000000+0000000990+Z
102786001102786903-000220     102786006001704007368SWT JELLY BEANS 60G    0000001000+00000876+00000+0001T   00000876+0000001646          1400 NJ7150               1AZ
102787000102787               102787               170213VA     1400+00000+VA0000001227+0000001227+000000000+000000172+0000001390+0000000009+I20000000000+0000001390+Z
102787001102787077-000318     102787006001023609755GIFT-BAG 18X23CM E/D AN0000001000+00001227+00000+0001T   00001227+0000001709          1400 NJ7112               1AZ
102788000102788               102788               170213VA     1400+00000+VA0000015788-0000015788-000000000+000002211-0000018000-0000000001+I20000000000+0000018000-Z
102788001102788016-006462     102788006003000481637S/JAR-SET GLS 8PC      0000001000-00015788+00000+0001T   00015788+0000001732          1400 NJ73001IC            1 Z
102789000102789               102789               170213VA     1400+00000+VA0000002664+0000002664+000000000+000000374+0000003030+0000000008+I20000000000+0000003030+Z
102789001102789018-000108     102789006001023380265MUG NOVELTY ICON ASST  0000001000+00001753+00000+0001T   00001753+0000001735          1400 NJ7515               1AZ
102789002102789306-000021-D   102789006003000622108COTTON EARBUDS COSMETIC0000001000+00000876+00000+0001T   00001139+0008171735          1400 NJ7200               1AZ
102789003102789112-116038     102789006009681820246TCS CARRIER BAG MIDI   0000001000+00000035+00000+0001T   00000035+0000001735          1400 NJ7090               1AZ
102790000102790               102790               170213VA     1400+00000+VA0000004438-0000004438-000000000+000000622-0000005060-0000000000+I20000000000+0000005060-Z
102790001102790001-999910     102790000000000999910POSTAGE                0000001000-00004438+00000+0001T   00000000+0000001756          1400 NJ79102IC            1 Z
102791000102791               102791               170213VA     1400+00000+VA0000002630+0000002630+000000000+000000369+0000002990+0000000009+I20000000000+0000002990+Z
102791001102791033-001365     102791006001023802118HAIR CLIPS 200PC ASSTD 0000001000+00002630+00000+0001T   00002630+0000001757          1400 NJ7200               1AZ
102792000102792               102792               170213VA     1400+00000+VA0000000788+0000000788+000000000+000000111+0000000890+0000000009+I20000000000+0000000890+Z
102792001102792903-000200     102792006009826020234SWT CHOC RP CHOCO 23G  0000001000+00000788+00000+0001T   00000788+0000001759          1400 NJ7150               1AZ
102793000102793               102793               170213VA     1400+00000+VA0000004996+0000004996+000000000+000000701+0000005697+0000000000+I40000005697+0000000000+Z
102793001102793024-000083     102793006001023770943SIEVE FLOUR 20cm MTL-RI0000001000+00001753+00000+0001T   00001753+0000001805          1400 NJ7300               1AZ
102793002102793046-000014-A   102793004897006177708BATTERIES SIZE:AAA 8PCE0000001000+00001753+00000+0001T   00001753+0000001805          1400 NJ7312               1AZ
102793003102793565-004101     102793006003000548033BALL BOUNCING EGG      0000001000+00001490+00000+0001T   00001490+0000001805          1400 NJ7745               1AZ
A17021300                                          10511002VASLAVE 1                       NJ72IC
A17021301                                          16062366VASLAVE 1                       NJ72IC
A17021302                                          16144744VASLAVE 1                       NJ71IC
M17021301                              IT          VA102793
M17021391                              CASH        VASLAVE 1                       Z-REPORT No.   631TOTAL (Sales - Refunds)           3969.81       CASH TO BE BANKED                 2081.95       DEBIT CARDS                          0.00       CREDIT CARDS                      1787.26       Z-READING                         3869.21       AIRTIME DEBIT CARD SALES             0.00       AIRTIME CARD SALES                   0.00       OVERS/UNDERS                         0.00       AIRTIME CASH SALES                   0.00       GIFT CARDS                           0.00       GIFT CARD CASH SALES                 0.00       ELECTRICITY                         50.00       POSTAGE                             50.60       T O T A L  CASH PAYOUTS            100.60                                                                                                                                                                                                                                                      Z
M17021392                              CASH        VAABSENT                                                                                                                                                                                          ANNUAL LEAVE                                                                                                                                                                                    DAY OFF                                                                                                                                                                                         COMMENTS                                                                                                                                                                                                                                                                                                                                                                                       Z
Y17021300                                          VA00000000397610+000068
ZVA17021320253 SLAVE 1      SALES DATA                     NEXT INVOICE NO.  102794 0631
X VA Slave 1 First invoice 102721 170213 Last invoice 102793 170213 Next invoice 102794 Total number of records 000000221 clbackup completed 20:25:55
