206019000206019               206019               170213VA     1400+00000+VA0000000876+0000000876+000000000+000000123+0000000990+0000000009+I20000000000+0000000990+Z
206019001206019033-005931     206019006001023678447PINS ON-WHEEL PEARLIZED0000001000+00000876+00000+0001T   00000876+0000000911          1400 GH1200               2AZ
206020000206020               206020               170213VA     1400+00000+VA0000007015+0000007015+000000000+000000983+0000007990+0000000008+I20000000000+0000007990+Z
206020001206020082-094470     206020006001492944708#SUNGLASS LDS CHAIN    0000001000+00004385+00000+0001T   00006139+0008160913          1400 GH1160               2AZ
206020002206020082-011564     206020006001492115641#SUNGLASS POUCH AZTEC  0000001000+00002630+00000+0001T   00002630+0000000913          1400 GH1160               2AZ
206021000206021               206021               170213VA     1400+00000+VA0000003542+0000003542+000000000+000000496+0000004030+0000000008+I20000000000+0000004030+Z
206021001206021031-086102     206021006001023900722P/FRAME PL WORD-TOP 4AS0000001000+00003507+00000+0001T   00003507+0000000930          1400 GH1510               2AZ
206021002206021112-116038     206021006009681820246TCS CARRIER BAG MIDI   0000001000+00000035+00000+0001T   00000035+0000000930          1400 GH1090               2AZ
206022000206022               206022               170213VA     1400+00000+VA0000001490+0000001490+000000000+000000209+0000001690+0000000009+I20000000000+0000001690+Z
206022001206022464-000106     206022006001023171153PLAYING-CARDS (SINGLE) 0000001000+00001490+00000+0001T   00001490+0000000933          1400 GH1785               2AZ
206023000206023               206023               170213VA     1400+00000+VA0000007893+0000007893+000000000+000001106+0000008999+0000000000+I40000008999+0000000000+Z
206023001206023174-000001     206023006001023759412SHOE/CLOTHES-STORER    0000001000+00007893+00000+0001T   00007893+0000000937          1400 GH1205               2AZ
206024000206024               206024               170213VA     1400+00000+VA0000002630+0000002630+000000000+000000369+0000002990+0000000009+I20000000000+0000002990+Z
206024001206024085-007038     206024006001024039896P/KNIFE 8cm-BLD PL/GRIP0000001000+00002630+00000+0001T   00002630+0000000958          1400 GH1305               2AZ
206025000206025               206025               170213VA     1400+00000+VA0000004431+0000004431+000000000+000000622+0000005050+0000000003+I20000000000+0000005050+Z
206025001206025369-001013     206025006003000500451BABY BATH VINYL DUCK   0000001000+00002630+00000+0001T   00002630+0000001006          1400 GH1745               2AZ
206025002206025077-000324     206025006001023677594GIFT-BAG 33X45CM E/D FL0000001000+00001753+00000+0001T   00001753+0000001006          1400 GH1112               2AZ
206025003206025112-116069     206025006009681820277TCS CARRIER BAG JUMBO  0000001000+00000048+00000+0001T   00000048+0000001006          1400 GH1090               2AZ
206026000206026               206026               170213VA     1400+00000+VA0000016181+0000016181+000000000+000002266+0000018447+0000000000+I40000018447+0000000000+Z
206026001206026112-116069     206026006009681820277TCS CARRIER BAG JUMBO  0000001000+00000048+00000+0001T   00000048+0000001008          1400 GH1090               2AZ
206026002206026077-000303     206026006001023593757GIFT-BAG PAPER MED     0000003000+00001578+00000+0001T   00001578+0000001008          1400 GH1112               2AZ
206026003206026368-000049     206026006003000536955PLUSH BEAR 15cm LOVE   0000001000+00004385+00000+0001T   00004385+0000001008          1400 GH1745               2AZ
206026004206026018-005009     206026006001023725608MUG W/PLUSH-BEAR LOVE  0000002000+00003507+00000+0001T   00003507+0000001008          1400 GH1515               2AZ
206027000206027               206027               170213VA     1400+00000+VA0000004694+0000004694+000000000+000000658+0000005352+0000000000+I40000005352+0000000000+Z
206027001206027112-116069     206027006009681820277TCS CARRIER BAG JUMBO  0000001000+00000048+00000+0001T   00000048+0000001011          1400 GH1090               2AZ
206027002206027077-000303     206027006001023593757GIFT-BAG PAPER MED     0000002000+00001578+00000+0001T   00001578+0000001011          1400 GH1112               2AZ
206027003206027077-000299     206027006003000395576G/BAG 32x25cm LRG LOVE 0000001000+00001490+00000+0001T   00001490+0000001011          1400 GH1112               2AZ
206028000206028               206028               170213VA     1400+00000+VA0000001788+0000001788+000000000+000000251+0000002030+0000000009+I20000000000+0000002030+Z
206028001206028051-002402     206028006001023518347TRIGGER-SPRAYER  500ml 0000001000+00001753+00000+0001T   00001753+0000001012          1400 GH1820               2AZ
206028002206028112-116038     206028006009681820246TCS CARRIER BAG MIDI   0000001000+00000035+00000+0001T   00000035+0000001012          1400 GH1090               2AZ
206029000206029               206029               170213VA     1400+00000+VA0000007012+0000007012+000000000+000000983+0000007990+0000000005+I20000000000+0000007990+Z
206029001206029002-000016     206029006001023760173CAPPUCCINO-FROTHER B/O 0000001000+00002630+00000+0001T   00002630+0000001019          1400 GH1300               2AZ
206029002206029200-003019     206029006003000510856REFUSE BAGS 10PC D/STRN0000001000+00001314+00000+0001T   00001753+0008171019          1400 GH1214               2AZ
206029003206029027-000239     206029006001246634152MOP SWIFTA REFILLS 12PC0000001000+00000876+00000+0001T   00000876+0000001019          1400 GH1212               2AZ
206029004206029301-085000     206029006003000674299 ORN OCC. LOVE HEARTS  0000001000+00002192+00000+0001T   00002192+0000001019          1400 GH1505               2AZ
206030000206030               206030               170213VA     1400+00000+VA0000005523+0000005523+000000000+000000774+0000006290+0000000007+I20000000000+0000006290+Z
206030001206030016-006513     206030006003000295739S/JAR GLS EMBOSS. 950ML0000001000+00003069+00000+0001T   00003069+0000001021          1400 GH1300               2AZ
206030002206030033-001400     206030006009654960474HAIR-CURLERS 10PCE SML 0000002000+00001227+00000+0001T   00001227+0000001021          1400 GH1200               2AZ
206031000206031               206031               170213VA     1400+00000+VA0000009679+0000009679+000000000+000001357+0000011036+0000000000+I40000011036+0000000000+Z
206031001206031112-116038     206031006009681820246TCS CARRIER BAG MIDI   0000001000+00000035+00000+0001T   00000035+0000001024          1400 GH1090               2AZ
206031002206031036-000518     206031006003000419326HOOK HANGER CHROME     0000001000+00005262+00000+0001T   00005262+0000001024          1400 GH1212               2AZ
206031003206031159-000117     206031006003000450398SHOWER CAP PVC ASSTD   0000001000+00002630+00000+0001T   00002630+0000001024          1400 GH1200               2AZ
206031004206031565-000044     206031006003000128280BARREL OF SLIME 100g   0000001000+00000613+00000+0001T   00000613+0000001024          1400 GH1745               2AZ
206031005206031140-006004     206031006001023628077FLY-SWATTER RUBBER     0000001000+00001139+00000+0001T   00001139+0000001024          1400 GH1830               2AZ
206032000206032               206032               170213VA     1400+00000+VA0000003328+0000003328+000000000+000000468+0000003796+0000000000+I40000003796+0000000000+Z
206032001206032903-000155     206032006009803374435SWT LOLLY I LUV U HEART0000003000+00000525+00000+0001T   00000525+0000001029          1400 GH1150               2AZ
206032002206032366-002809     206032006003000222643DRESS UP MOUSTACHE SET 0000001000+00001753+00000+0001T   00001753+0000001029          1400 GH1131               2AZ
206033000206033               206033               170213VA     1400+00000+VA0000000876+0000000876+000000000+000000123+0000000990+0000000009+I20000000000+0000000990+Z
206033001206033903-000482     206033006001704001397SWT SOFT-MINTS 60G     0000001000+00000876+00000+0001T   00000876+0000001030          1400 GH1150               2AZ
206034000206034               206034               170213VA     1400+00000+VA0000001490+0000001490+000000000+000000209+0000001690+0000000009+I20000000000+0000001690+Z
206034001206034464-000106     206034006001023171153PLAYING-CARDS (SINGLE) 0000001000+00001490+00000+0001T   00001490+0000001034          1400 GH1785               2AZ
206035000206035               206035               170213VA     1400+00000+VA0000017542+0000017542+000000000+000002456+0000019998+0000000000+I40000019998+0000000000+Z
206035001206035365-001189     206035006003000012251DOLL-HOUSE W/FURNITURE 0000001000+00017542+00000+0001T   00017542+0000001048          1400 GH1725               2AZ
206036000206036               206036               170213VA     1400+00000+VA0000001227+0000001227+000000000+000000172+0000001390+0000000009+I20000000000+0000001390+Z
206036001206036251-000041     206036006001023515889SEAL-TAPE BUFF 48mmx50m0000001000+00001227+00000+0001T   00001227+0000001055          1400 GH1810               2AZ
206037000206037               206037               170213VA     1400+00000+VA0000001490+0000001490+000000000+000000209+0000001690+0000000009+I20000000000+0000001690+Z
206037001206037016-006601     206037006001023446121S/JAR GLS MINI W/CLIP  0000001000+00001490+00000+0001T   00001490+0000001055          1400 GH1300               2AZ
206038000206038               206038               170213VA     1400+00000+VA0000002104+0000002104+000000000+000000295+0000002399+0000000000+I40000002399+0000000000+Z
206038001206038903-000095     206038006001704011495SWT SPECKLED-EGGS 100G 0000001000+00002104+00000+0001T   00002104+0000001102          1400 GH1150               2AZ
206039000206039               206039               170213VA     1400+00000+VA0000000876+0000000876+000000000+000000123+0000000990+0000000009+I20000000000+0000000990+Z
206039001206039071-005213     206039006001023690371CELLOTAPE 12mmx33m     0000001000+00000876+00000+0001T   00000876+0000001106          1400 GH1130               2AZ
206040000206040               206040               170213VA     1400+00000+VA0000001753+0000001753+000000000+000000246+0000000000+0000000000+ 00000000000+0000000000+Z
206040001206040077-000239     206040006003000160419GIFT-RIBBON ROLL PEARL 0000001000+00001753+00000+0001T   00001753+000000              1400 GH11122IC            2 Z
206041000206041               206041               170213VA     1400+00000+VA0000001753+0000001753+000000000+000000246+0000001990+0000000009+I20000000000+0000001990+Z
206041001206041077-000324     206041006001023677594GIFT-BAG 33X45CM E/D FL0000001000+00001753+00000+0001T   00001753+0000001117          1400 GH1112               2AZ
206042000206042               206042               170213VA     1400+00000+VA0000026796+0000026796+000000000+000003754+0000030550+0000000000+I40000030550+0000000000+Z
206042001206042112-116069     206042006009681820277TCS CARRIER BAG JUMBO  0000001000+00000048+00000+0001T   00000048+0000001141          1400 GH1090               2AZ
206042002206042486-001017     206042006003000384501C/WALL QTZ PL RND 31cm 0000001000+00010525+00000+0001T   00010525+0000001141          1400 GH1510               2AZ
206042003206042486-001016     206042006001023847416W/CLOCK QTZ PL RND 25CM0000001000+00008771+00000+0001T   00008771+0000001141          1400 GH1510               2AZ
206042004206042046-000011-A   206042006003000438891BATTERIES SIZE:AA  4PCE0000002000+00002630+00000+0001T   00002630+0000001141          1400 GH1312               2AZ
206042005206042105-001033     206042000700371696641CONTAINER FOODSAVER 1.60000001000+00002192+00000+0001T   00002192+0000001141          1400 GH1210               2AZ
206043000206043               206043               170213VA     1400+00000+VA0000000048+0000000048+000000000+000000007+0000000050+0000000005+I20000000000+0000000050+Z
206043001206043112-116069     206043006009681820277TCS CARRIER BAG JUMBO  0000001000+00000048+00000+0001T   00000048+0000001148          1400 GH1090               2AZ
206044000206044               206044               170213VA     1400+00000+VA0000000437+0000000437+000000000+000000062+0000000490+0000000009+I20000000000+0000000490+Z
206044001206044071-000212     206044006009608641190CHALK WHITE 12PCE      0000001000+00000437+00000+0001T   00000437+0000001205          1400 GH1130               2AZ
206045000206045               206045               170213VA     1400+00000+VA0000001226+0000001226+000000000+000000172+0000001390+0000000008+I20000000000+0000001390+Z
206045001206045150-004028-H   206045006003000649976BATH-PLUG RUBBER BLACK 0000002000+00000613+00000+0001T   00000613+0000001206          1400 GH1810               2AZ
206046000206046               206046               170213VA     1400+00000+VA0000001051+0000001051+000000000+000000148+0000001190+0000000009+I20000000000+0000001190+Z
206046001206046079-009702-B   206046008427973059491PAPER SIRIO A2 WHITE   0000001000+00001051+00000+0001T   00001051+0000001208          1400 GH1130               2AZ
206047000206047               206047               170213VA     1400+00000+VA0000005435+0000005435+000000000+000000762+0000006190+0000000007+I20000000000+0000006190+Z
206047001206047903-000155     206047006009803374435SWT LOLLY I LUV U HEART0000002000+00000525+00000+0001T   00000525+0000001215          1400 GH1150               2AZ
206047002206047158-000004     206047006001023577894CUTLERY DRAINER TRAY   0000001000+00004385+00000+0001T   00004385+0000001215          1400 GH1300               2AZ
206048000206048               206048               170213VA     1400+00000+VA0000003069+0000003069+000000000+000000430+0000003490+0000000009+I20000000000+0000003490+Z
206048001206048024-000040     206048006001023332509MEASURING-JUG 2.00L    0000001000+00003069+00000+0001T   00003069+0000001215          1400 GH1300               2AZ
206049000206049               206049               170213VA     1400+00000+VA0000002630+0000002630+000000000+000000369+0000002990+0000000009+I20000000000+0000002990+Z
206049001206049072-000626     206049006003000691609DOG-LEAD REFLECTIVE    0000001000+00002630+00000+0001T   00002630+0000001221          1400 GH1870               2AZ
206050000206050               206050               170213VA     1400+00000+VA0000000000+0000000000+000000000+000000000+0000000000+0000000000+I20000000000+0000000000+Z
206050001206050072-000228     206050006003000235940DOG-COL REFLCTV 25-40cm0000001000-00001753+00000+0001T   00001753+0000001225          1400 GH18701IC            2 Z
206050002206050072-000232     206050006003000236060DOG-COL REFLCTV 35-51cm0000001000+00001753+00000+0001T   00001753+0000001225          1400 GH1870               2 Z
206051000206051               206051               170213VA     1400+00000+VA0000020220+0000020220+000000000+000002832+0000023052+0000000000+I40000023052+0000000000+Z
206051001206051112-116069     206051006009681820277TCS CARRIER BAG JUMBO  0000001000+00000048+00000+0001T   00000048+0000001232          1400 GH1090               2AZ
206051002206051486-002321     206051006003000384624WALL-CLOCK QTZ 33CM    0000001000+00007016+00000+0001T   00007016+0000001232          1400 GH1510               2AZ
206051003206051486-001016     206051006001023847416W/CLOCK QTZ PL RND 25CM0000001000+00008771+00000+0001T   00008771+0000001232          1400 GH1510               2AZ
206051004206051158-000004     206051006001023577894CUTLERY DRAINER TRAY   0000001000+00004385+00000+0001T   00004385+0000001232          1400 GH1300               2AZ
206052000206052               206052               170213VA     1400+00000+VA0000007890+0000007890+000000000+000001107+0000008990+0000000007+I20000000000+0000008990+Z
206052001206052106-001099     206052006003000653447WATER BOTTLE 650ml     0000003000+00002630+00000+0001T   00002630+0000001234          1400 GH1210               2AZ
206053000206053               206053               170213VA     1400+00000+VA0000005522+0000005522+000000000+000000774+0000006290+0000000006+I20000000000+0000006290+Z
206053003206053903-000807     206053006009680772317SWT CHEWEEZ APPLE 36g  0000001000+00000700+00000+0001T   00000700+0000001240          1400 GH1150               2AZ
206053004206053079-000344     206053006001023904010FELT-TIP PENS 12PCE    0000001000+00002630+00000+0001T   00002630+0000001240          1400 GH1130               2AZ
206053005206053007-000217     206053006003000639656SELF STICK NOTE BOOK   0000001000+00002192+00000+0001T   00002192+0000001240          1400 GH11302IC            2AZ
206054000206054               206054               170213VA     1400+00000+VA0000002630+0000002630+000000000+000000369+0000002990+0000000009+I20000000000+0000002990+Z
206054001206054306-001125-A   206054006003000359127FIRSTAID SUPPORT KNEE  0000001000+00002630+00000+0001T   00002630+0000001240          1400 GH1200               2AZ
206055000206055               206055               170213VA     1400+00000+VA0000012260+0000012260+000000000+000001720+0000013980+0000000000+I10000000980+0000013000+Z
206055001206055007-000555     206055006001023848239MEMO-PAD MINI LOVE     0000020000+00000613+00000+0001T   00000613+0000001243          1400 GH1130               2AZ
206056000206056               206056               170213VA     1400+00000+VA0000005260+0000005260+000000000+000000738+0000005990+0000000008+I20000000000+0000005990+Z
206056001206056463-000366     206056006001023789136SWIM W/NOODLE 150cm    0000002000+00002630+00000+0001T   00002630+0000001245          1400 GH1785               2AZ
206057000206057               206057               170213VA     1400+00000+VA0000000788+0000000788+000000000+000000111+0000000899+0000000000+I40000000899+0000000000+Z
206057001206057903-000200     206057006009826020234SWT CHOC RP CHOCO 23G  0000001000+00000788+00000+0001T   00000788+0000001250          1400 GH1150               2AZ
206058000206058               206058               170213VA     1400+00000+VA0000005262+0000005262+000000000+000000737+0000005990+0000000009+I20000000000+0000005990+Z
206058001206058019-000122     206058006001023809582PLANTER GALV 22cm ROUND0000001000+00005262+00000+0001T   00005262+0000001251          1400 GH1510               2AZ
206059000206059               206059               170213VA     1400+00000+VA0000002627+0000002627+000000000+000000369+0000002990+0000000006+I20000000000+0000002990+Z
206059001206059903-000925     206059006009706300296SWT NOVELTY SURPRISE   0000001000+00001402+00000+0001T   00001402+0000001252          1400 GH1150               2AZ
206059002206059903-000155     206059006009803374435SWT LOLLY I LUV U HEART0000001000+00000525+00000+0001T   00000525+0000001252          1400 GH1150               2AZ
206059003206059018-000177     206059006001023797513MUG MINI LOVE ASSTD    0000001000+00000700+00000+0001T   00000700+0000001252          1400 GH1515               2AZ
206060000206060               206060               170213VA     1400+00000+VA0000000437+0000000437+000000000+000000062+0000000490+0000000009+I20000000000+0000000490+Z
206060001206060083-000049     206060004891035200024CIG-LIGHTER DISPOSABLE 0000001000+00000437+00000+0001T   00000437+0000001253          1400 GH1315               2AZ
206061000206061               206061               170213VA     1400+00000+VA0000000876+0000000876+000000000+000000123+0000000999+0000000000+I40000000999+0000000000+Z
206061002206061077-000408     206061006003000145218G/BAG PP 15X21X7CM     0000001000+00000876+00000+0001T   00000876+0000001300          1400 GH1112               2AZ
206062000206062               206062               170213VA     1400+00000+VA0000009763+0000009763+000000000+000001369+0000011132+0000000000+I40000011132+0000000000+Z
206062001206062112-116038     206062006009681820246TCS CARRIER BAG MIDI   0000001000+00000035+00000+0001T   00000035+0000001448          1400 GH1090               2AZ
206062002206062007-000555     206062006001023848239MEMO-PAD MINI LOVE     0000004000+00000613+00000+0001T   00000613+0000001448          1400 GH1130               2AZ
206062003206062071-003030     206062006003000006007PENS NOVELTY 2PCE      0000002000+00001753+00000+0001T   00001753+0000001448          1400 GH1130               2AZ
206062004206062007-000217     206062006003000639656SELF STICK NOTE BOOK   0000001000+00002192+00000+0001T   00002192+0000001448          1400 GH1130               2AZ
206062005206062080-000124     206062006003000297733CARD & ENV VALENTINES  0000001000+00001578+00000+0001T   00001578+0000001448          1400 GH1112               2AZ
206063000206063               206063               170213VA     1400+00000+VA0000002630+0000002630+000000000+000000369+0000002990+0000000009+I20000000000+0000002990+Z
206063001206063565-000040     206063006008766115635NOVELTY ICON BEANIE    0000001000+00002630+00000+0001T   00002630+0000001448          1400 GH1745               2AZ
206064000206064               206064               170213VA     1400+00000+VA0000006185+0000006185+000000000+000000867+0000007050+0000000002+I20000000000+0000007050+Z
206064001206064077-000303     206064006001023593757GIFT-BAG PAPER MED     0000001000+00001578+00000+0001T   00001578+0000001452          1400 GH1112               2AZ
206064002206064077-000299     206064006003000395576G/BAG 32x25cm LRG LOVE 0000001000+00001490+00000+0001T   00001490+0000001452          1400 GH1112               2AZ
206064003206064089-060027     206064006003000245871KEY-CHAIN HEART 6X6cm  0000001000+00003069+00000+0001T   00003069+0000001452          1400 GH1205               2AZ
206064004206064112-116069     206064006009681820277TCS CARRIER BAG JUMBO  0000001000+00000048+00000+0001T   00000048+0000001452          1400 GH1090               2AZ
206065000206065               206065               170213VA     1400+00000+VA0000004295+0000004295+000000000+000000602+0000004890+0000000007+I20000000000+0000004890+Z
206065001206065162-097718     206065006001492977188#TAG CHARM BRACELET    0000001000+00003507+00000+0001T   00003507+0000001501          1400 GH1160               2AZ
206065002206065077-000383     206065006003000247943GIFT-BAG 11X14CM S/COL 0000001000+00000788+00000+0001T   00000788+0000001501          1400 GH1112               2AZ
206066000206066               206066               170213VA     1400+00000+VA0000001613+0000001613+000000000+000000226+0000001830+0000000009+I20000000000+0000001830+Z
206066001206066018-000127     206066006001023380289MUG OCC STRAIGHT LOVE  0000001000+00001578+00000+0001T   00001753+0006471502          1400 GH1515               2AZ
206066002206066112-116038     206066006009681820246TCS CARRIER BAG MIDI   0000001000+00000035+00000+0001T   00000035+0000001502          1400 GH1090               2AZ
206067000206067               206067               170213VA     1400+00000+VA0000005262+0000005262+000000000+000000737+0000005990+0000000009+I20000000000+0000005990+Z
206067001206067028-000401     206067006001023120632PLATE-HOLDERS 4PCE  H&L0000001000+00005262+00000+0001T   00005262+0000001506          1400 GH1305               2AZ
206068000206068               206068               170213VA     1400+00000+VA0000003680+0000003680+000000000+000000516+0000004190+0000000006+I20000000000+0000004190+Z
206068001206068046-000014-A   206068004897006177708BATTERIES SIZE:AAA 8PCE0000001000+00001753+00000+0001T   00001753+0000001508          1400 GH1312               2AZ
206068002206068046-000012     206068006904708013062BATTERIES AA  CARD-OF-40000001000+00001314+00000+0001T   00001314+0000001508          1400 GH1312               2AZ
206068003206068083-000055     206068006003000003853LIGHTER ELCTRNC REFILBL0000001000+00000613+00000+0001T   00000613+0000001508          1400 GH1315               2AZ
206069000206069               206069               170213VA     1400+00000+VA0000002630+0000002630+000000000+000000369+0000002990+0000000009+I20000000000+0000002990+Z
206069001206069033-006003     206069006001023678584SEWING-KIT             0000001000+00002630+00000+0001T   00002630+0000001510          1400 GH1200               2AZ
206070000206070               206070               170213VA     1400+00000+VA0000001753+0000001753+000000000+000000246+0000001990+0000000009+I20000000000+0000001990+Z
206070001206070150-049046     206070006001023189196FORCE-CUP 100x225mm    0000001000+00001753+00000+0001T   00001753+0000001511          1400 GH1810               2AZ
206071000206071               206071               170213VA     1400+00000+VA0000000613+0000000613+000000000+000000086+0000000690+0000000009+I20000000000+0000000690+Z
206071001206071007-000555     206071006001023848239MEMO-PAD MINI LOVE     0000001000+00000613+00000+0001T   00000613+0000001516          1400 GH1130               2AZ
206072000206072               206072               170213VA     1400+00000+VA0000001753+0000001753+000000000+000000246+0000001999+0000000000+I40000001999+0000000000+Z
206072001206072006-000092     206072006001023739650BANNER BIRTHDAY PAPER  0000001000+00001753+00000+0001T   00001753+0000001533          1400 GH1131               2AZ
206073000206073               206073               170213VA     1400+00000+VA0000021646+0000021646+000000000+000003039+0000024685+0000000000+I40000024685+0000000000+Z
206073001206073079-009702-D   206073008427973059354PAPER SIRIO A2 RED COL 0000001000+00001051+00000+0001T   00001051+0000001545          1400 GH1130               2AZ
206073002206073112-116069     206073006009681820277TCS CARRIER BAG JUMBO  0000001000+00000048+00000+0001T   00000048+0000001545          1400 GH1090               2AZ
206073003206073903-000510     206073006001704012621SWEET MS ZBDZ S/BERRY  0000001000+00001227+00000+0001T   00001227+0000001545          1400 GH1150               2AZ
206073004206073304-001204     206073006001023737984FLOWER OCC. TEDDY/ROSES0000008000+00001402+00000+0001T   00001490+0006471545          1400 GH1510               2AZ
206073005206073903-000194     206073006009826020616SWT CHOC RP LOLLY 25G  0000001000+00001314+00000+0001T   00001314+0000001545          1400 GH1150               2AZ
206073006206073071-001231     206073006003000144990ERASER RETRACT 2PK     0000001000+00001753+00000+0001T   00001753+0000001545          1400 GH1130               2AZ
206073007206073071-003043     206073006003000143948PEN CALIGRAPHY SET 8PCE0000001000+00003507+00000+0001T   00003507+0000001545          1400 GH1130               2AZ
206073008206073079-009700-H   206073006003000546039PAPER SIRIO A4 EARTH   0000002000+00000306+00000+0001T   00000306+0000001545          1400 GH1130               2AZ
206073009206073079-009700-G   206073006003000545957PAPER SIRIO A4 LIME COL0000003000+00000306+00000+0001T   00000306+0000001545          1400 GH1130               2AZ
206074000206074               206074               170213VA     1400+00000+VA0000002630+0000002630+000000000+000000369+0000002990+0000000009+I20000000000+0000002990+Z
206074001206074077-000115-B   206074006003000181025GIFT-WRAP PPR 700MMX2M 0000001000+00002630+00000+0001T   00002630+0000001547          1400 GH1112               2AZ
206075000206075               206075               170213VA     1400+00000+VA0000003151+0000003151+000000000+000000443+0000003590+0000000004+I20000000000+0000003590+Z
206075001206075006-000181     206075006003000610457BALLOONS FOIL 1PC BABY 0000001000+00000876+00000+0001T   00000876+0000001550          1400 GH1131               2AZ
206075002206075006-001000     206075006003000093779HELIUM BALLOON FILL    0000003000+00000613+00000+0001T   00000613+0000001550          1400 GH1131               2AZ
206075003206075006-000171-K   206075006003000609697BALLOONS 1PC PURPLE PRN0000002000+00000218+00000+0001T   00000218+0000001550          1400 GH1131               2AZ
206076000206076               206076               170213VA     1400+00000+VA0000007307+0000007307+000000000+000001026+0000008333+0000000000+I40000008333+0000000000+Z
206076001206076112-116038     206076006009681820246TCS CARRIER BAG MIDI   0000001000+00000035+00000+0001T   00000035+0000001553          1400 GH1090               2AZ
206076002206076088-000084     206076006001023798060P/POURRI 120G ASSTD    0000001000+00001753+00000+0001T   00001753+0000001553          1400 GH1212               2AZ
206076003206076039-000108     206076006001023524034TEA-LITE CANDLES 8PCE  0000001000+00001490+00000+0001T   00001490+0000001553          1400 GH1510               2AZ
206076004206076903-000155     206076006009803374435SWT LOLLY I LUV U HEART0000001000+00000525+00000+0001T   00000525+0000001553          1400 GH1150               2AZ
206076005206076040-000208     206076006003000673599C/HOLDER GLS COL. 5.5CM0000004000+00000876+00000+0001T   00000876+0000001553          1400 GH1510               2AZ
206077000206077               206077               170213VA     1400+00000+VA0000001613+0000001613+000000000+000000226+0000001830+0000000009+I20000000000+0000001830+Z
206077001206077077-000303     206077006001023593757GIFT-BAG PAPER MED     0000001000+00001578+00000+0001T   00001578+0000001553          1400 GH1112               2AZ
206077002206077112-116038     206077006009681820246TCS CARRIER BAG MIDI   0000001000+00000035+00000+0001T   00000035+0000001553          1400 GH1090               2AZ
206078000206078               206078               170213VA     1400+00000+VA0000000964+0000000964+000000000+000000135+0000001090+0000000009+I20000000000+0000001090+Z
206078001206078039-000336     206078006001023169129B'DAY-CANDLES MAGIC 10P0000001000+00000964+00000+0001T   00000964+0000001554          1400 GH1510               2AZ
206079000206079               206079               170213VA     1400+00000+VA0000005570+0000005570+000000000+000000781+0000006350+0000000001+I20000000000+0000006350+Z
206079001206079077-000303     206079006001023593757GIFT-BAG PAPER MED     0000001000+00001578+00000+0001T   00001578+0000001603          1400 GH1112               2AZ
206079002206079080-000127     206079006003000424351VALENTINES DAY 36x24CM 0000001000+00002192+00000+0001T   00002192+0000001603          1400 GH1112               2AZ
206079003206079112-116069     206079006009681820277TCS CARRIER BAG JUMBO  0000001000+00000048+00000+0001T   00000048+0000001603          1400 GH1090               2AZ
206079004206079903-000297     206079006001704002950SWT MS WILD BERRY 50G  0000002000+00000876+00000+0001T   00000876+0000001603          1400 GH1150               2AZ
206080000206080               206080               170213VA     1400+00000+VA0000011043+0000011043+000000000+000001551+0000012590+0000000004+I20000000000+0000012590+Z
206080001206080079-009702-D   206080008427973059354PAPER SIRIO A2 RED COL 0000003000+00001051+00000+0001T   00001051+0000001607          1400 GH1130               2AZ
206080002206080006-000803     206080006003000653676STREAMERS SET 3ROLLS   0000003000+00002630+00000+0001T   00002630+0000001607          1400 GH1131               2AZ
206081000206081               206081               170213VA     1400+00000+VA0000003541+0000003541+000000000+000000497+0000004038+0000000000+I40000004038+0000000000+Z
206081001206081007-000598     206081006009608642333MARLIN FILE DIVIDER 10 0000001000+00001753+00000+0001T   00001753+0000001610          1400 GH1130               2AZ
206081002206081007-000192     206081006009635830062BOOK H/COVER A4 192PAGE0000001000+00001753+00000+0001T   00001753+0000001610          1400 GH1130               2AZ
206081003206081112-116038     206081006009681820246TCS CARRIER BAG MIDI   0000001000+00000035+00000+0001T   00000035+0000001610          1400 GH1090               2AZ
206082000206082               206082               170213VA     1400+00000+VA0000003946+0000003946+000000000+000000553+0000004490+0000000009+I20000000000+0000004490+Z
206082001206082031-000857     206082006001023852144P/FRAME PL BROWN 13X18 0000001000+00003946+00000+0001T   00003946+0000001611          1400 GH1510               2AZ
206083000206083               206083               170213VA     1400+00000+VA0000049202+0000049202+000000000+000006895+0000056090+0000000007+I20000000000+0000056090+Z
206083001206083112-116069     206083006009681820277TCS CARRIER BAG JUMBO  0000001000+00000048+00000+0001T   00000048+0000001617          1400 GH1090               2AZ
206083002206083159-000216     206083006001023195371SHOWER-CURTAIN 183cm   0000001000+00004385+00000+0001T   00004385+0000001617          1400 GH1200               2AZ
206083003206083105-001315     206083006003000572854CONTAINER COLOUR RIM   0000002000+00002630+00000+0001T   00002630+0000001617          1400 GH1210               2AZ
206083004206083004-071205     206083006003000073368USB 2.0 COMPUTER 4 HUB 0000001000+00003507+00000+0001T   00003507+0000001617          1400 GH1310               2AZ
206083005206083047-002042-H   206083006003000625291P/ADPT 1x16A 2x5A 2xUSB0000001000+00011841+00000+0001T   00011841+0000001617          1400 GH1880               2AZ
206083006206083306-001805     206083006003000275908HAND SANITIZER 2PCE    0000001000+00002630+00000+0001T   00002630+0000001617          1400 GH1200               2AZ
206083007206083004-071213     206083006003000578337TABLET/IPAD STAND ADJ  0000001000+00001753+00000+0001T   00001753+0000001617          1400 GH1310               2AZ
206083008206083112-116069     206083006009681820277TCS CARRIER BAG JUMBO  0000001000+00000048+00000+0001T   00000048+0000001617          1400 GH1090               2AZ
206083009206083016-002010     206083006003000674480S/BOTTLE GLS W/CAP 1L  0000001000+00003946+00000+0001T   00003946+0000001617          1400 GH1300               2AZ
206083010206083001-000004     206083006003000220748JUG GLS W/LID 1.5L RING0000002000+00006139+00000+0001T   00006139+0000001617          1400 GH1515               2AZ
206083011206083200-003024     206083006001023657299REFUSE BAGS 20PCE BLACK0000002000+00001753+00000+0001T   00001753+0000001617          1400 GH1214               2AZ
206084000206084               206084               170213VA     1400+00000+VA0000001490+0000001490+000000000+000000209+0000001690+0000000009+I20000000000+0000001690+Z
206084001206084077-000299     206084006003000395576G/BAG 32x25cm LRG LOVE 0000001000+00001490+00000+0001T   00001490+0000001618          1400 GH1112               2AZ
206085000206085               206085               170213VA     1400+00000+VA0000014033+0000014033+000000000+000001965+0000015990+0000000008+I20000000000+0000015990+Z
206085001206085466-002096     206085006001023800398CATCHBALL VELCRO W/BALL0000001000+00005262+00000+0001T   00005262+0000001620          1400 GH1785               2AZ
206085002206085466-006135     206085006001023669049GOLF-SET PLASTIC       0000001000+00008771+00000+0001T   00008771+0000001620          1400 GH1785               2AZ
206086000206086               206086               170213VA     1400+00000+VA0000001578+0000001578+000000000+000000221+0000001790+0000000009+I20000000000+0000001790+Z
206086001206086077-000348     206086006001023483287GIFT-BOWS 4,5cm 8PCE   0000001000+00001578+00000+0001T   00001578+0000001621          1400 GH1112               2AZ
206087000206087               206087               170213VA     1400+00000+VA0000002192+0000002192+000000000+000000307+0000002490+0000000009+I20000000000+0000002490+Z
206087001206087007-000095     206087006003000530434ENVELOPES WHITE 20PK C60000001000+00002192+00000+0001T   00002192+0000001629          1400 GH1130               2AZ
206088000206088               206088               170213VA     1400+00000+VA0000001490+0000001490+000000000+000000209+0000001690+0000000009+I20000000000+0000001690+Z
206088001206088565-004101     206088006003000548033BALL BOUNCING EGG      0000001000+00001490+00000+0001T   00001490+0000001629          1400 GH1745               2AZ
206089000206089               206089               170213VA     1400+00000+VA0000002240+0000002240+000000000+000000314+0000002550+0000000004+I20000000000+0000002550+Z
206089001206089080-000127     206089006003000424351VALENTINES DAY 36x24CM 0000001000+00002192+00000+0001T   00002192+0000001639          1400 GH1112               2AZ
206089002206089112-116069     206089006009681820277TCS CARRIER BAG JUMBO  0000001000+00000048+00000+0001T   00000048+0000001639          1400 GH1090               2AZ
206090000206090               206090               170213VA     1400+00000+VA0000001400+0000001400+000000000+000000196+0000001590+0000000006+I20000000000+0000001590+Z
206090001206090018-000177     206090006001023797513MUG MINI LOVE ASSTD    0000002000+00000700+00000+0001T   00000700+0000001640          1400 GH1515               2AZ
206091000206091               206091               170213VA     1400+00000+VA0000001753+0000001753+000000000+000000246+0000001990+0000000009+I20000000000+0000001990+Z
206091001206091084-009407     206091006001023861726SCISSORS 13cm MTL PL-H 0000001000+00001753+00000+0001T   00001753+0000001646          1400 GH1200               2AZ
206092000206092               206092               170213VA     1400+00000+VA0000002630+0000002630+000000000+000000369+0000002990+0000000009+I20000000000+0000002990+Z
206092001206092077-000349-B   206092006001023908315G/RIBBON 3ROLLS 12BOWS 0000001000+00002630+00000+0001T   00002630+0000001650          1400 GH1112               2AZ
206093000206093               206093               170213VA     1400+00000+VA0000001578+0000001578+000000000+000000221+0000001790+0000000009+I20000000000+0000001790+Z
206093001206093018-000127     206093006001023380289MUG OCC STRAIGHT LOVE  0000001000+00001578+00000+0001T   00001753+0006471651          1400 GH1515               2AZ
206094000206094               206094               170213VA     1400+00000+VA0000001490+0000001490+000000000+000000209+0000001690+0000000009+I20000000000+0000001690+Z
206094001206094028-000796     206094006001023812094SKEWERS 25cm 50PCE 4mm 0000001000+00001490+00000+0001T   00001490+0000001656          1400 GH1305               2AZ
206095000206095               206095               170213VA     1400+00000+VA0000000876+0000000876+000000000+000000123+0000000990+0000000009+I20000000000+0000000990+Z
206095001206095077-000150-D   206095006003000054343GIFT-WRAP CELLPHANE CLR0000001000+00000876+00000+0001T   00000876+0000001656          1400 GH1112               2AZ
206096000206096               206096               170213VA     1400+00000+VA0000003507+0000003507+000000000+000000491+0000003990+0000000008+I20000000000+0000003990+Z
206096001206096073-000519     206096006001023871763COSMETIC-BG CYLINDRICAL0000001000+00003507+00000+0001T   00003507+0000001700          1400 GH1200               2AZ
206097000206097               206097               170213VA     1400+00000+VA0000001490+0000001490+000000000+000000209+0000001690+0000000009+I20000000000+0000001690+Z
206097001206097077-000299     206097006003000395576G/BAG 32x25cm LRG LOVE 0000001000+00001490+00000+0001T   00001490+0000001702          1400 GH1112               2AZ
206098000206098               206098               170213VA     1400+00000+VA0000014027+0000014027+000000000+000001967+0000015994+0000000000+I40000015994+0000000000+Z
206098001206098133-000010-A   206098006001023997647CLEANING CLOTH ROLL 30 0000001000+00003507+00000+0001T   00003507+0000001704          1400 GH1212               2AZ
206098002206098056-065303     206098006001023821041SUN-SHIELD 2PCE ANIMAL 0000002000+00002630+00000+0001T   00002630+0000001704          1400 GH1860               2AZ
206098003206098016-006710     206098006003000674725S/JAR GLS RHEA 425ml   0000002000+00002630+00000+0001T   00002630+0000001704          1400 GH1300               2AZ
206099000206099               206099               170213VA     1400+00000+VA0000001490+0000001490+000000000+000000209+0000001690+0000000009+I20000000000+0000001690+Z
206099001206099077-000299     206099006003000395576G/BAG 32x25cm LRG LOVE 0000001000+00001490+00000+0001T   00001490+0000001704          1400 GH1112               2AZ
206100000206100               206100               170213VA     1400+00000+VA0000001753+0000001753+000000000+000000246+0000001990+0000000009+I20000000000+0000001990+Z
206100001206100203-008282     206100006003000597703WINE GLS PL 2PC CHAMP. 0000001000+00001753+00000+0001T   00002630+0008171707          1400 GH1300               2AZ
206101000206101               206101               170213VA     1400+00000+VA0000022804+0000022804+000000000+000003194+0000025998+0000000000+I40000025998+0000000000+Z
206101001206101265-000216     206101006001023681423CAR B/O RACING-SET 36PC0000001000+00021051+00000+0001T   00021051+0000001710          1400 GH1710               2AZ
206101002206101077-000906     206101006003000410804G/WRAP 700mmx1m BIRTHDA0000001000+00001753+00000+0001T   00001753+0000001710          1400 GH1112               2AZ
206102000206102               206102               170213VA     1400+00000+VA0000002628+0000002628+000000000+000000369+0000002990+0000000007+I20000000000+0000002990+Z
206102001206102077-000150-D   206102006003000054343GIFT-WRAP CELLPHANE CLR0000003000+00000876+00000+0001T   00000876+0000001713          1400 GH1112               2AZ
206103000206103               206103               170213VA     1400+00000+VA0000006139+0000006139+000000000+000000860+0000006990+0000000009+I20000000000+0000006990+Z
206103001206103567-011423     206103006003000641345BK COLOURING THERAPY A50000001000+00006139+00000+0001T   00006139+0000001723          1400 GH1757               2AZ
206104000206104               206104               170213VA     1400+00000+VA0000002453+0000002453+000000000+000000344+0000002790+0000000007+I20000000000+0000002790+Z
206104001206104301-085006     206104006001023502940ORN LOVE MSG TUBE W/HRT0000001000+00001753+00000+0001T   00001753+0000001724          1400 GH1505               2AZ
206104002206104018-000177     206104006001023797513MUG MINI LOVE ASSTD    0000001000+00000700+00000+0001T   00000700+0000001724          1400 GH1515               2AZ
206105000206105               206105               170213VA     1400+00000+VA0000005257+0000005257+000000000+000000737+0000005994+0000000000+I40000005994+0000000000+Z
206105001206105306-000024-A   206105006003000577309COTTON-WOOL-PADS 80PC  0000001000+00001753+00000+0001T   00001753+0000001726          1400 GH1200               2AZ
206105002206105018-000177     206105006001023797513MUG MINI LOVE ASSTD    0000002000+00000700+00000+0001T   00000700+0000001726          1400 GH1515               2AZ
206105003206105903-000095     206105006001704011495SWT SPECKLED-EGGS 100G 0000001000+00002104+00000+0001T   00002104+0000001726          1400 GH1150               2AZ
206106000206106               206106               170213VA     1400+00000+VA0000000350+0000000350+000000000+000000049+0000000390+0000000009+I20000000000+0000000390+Z
206106001206106903-000159     206106006003000417629SWT LB SMALL DUMMIE    0000001000+00000350+00000+0001T   00000350+0000001727          1400 GH1150               2AZ
206107000206107               206107               170213VA     1400+00000+VA0000002541+0000002541+000000000+000000357+0000002890+0000000008+I20000000000+0000002890+Z
206107001206107903-000200     206107006009826020234SWT CHOC RP CHOCO 23G  0000001000+00000788+00000+0001T   00000788+0000001728          1400 GH1150               2AZ
206107002206107301-085006     206107006001023502940ORN LOVE MSG TUBE W/HRT0000001000+00001753+00000+0001T   00001753+0000001728          1400 GH1505               2AZ
206108000206108               206108               170213VA     1400+00000+VA0000003507+0000003507+000000000+000000491+0000003990+0000000008+I20000000000+0000003990+Z
206108001206108018-000136     206108006001023659026MUG OCC LOVE W/PLUSH   0000001000+00003507+00000+0001T   00003507+0000001728          1400 GH1515               2AZ
206109000206109               206109               170213VA     1400+00000+VA0000001753+0000001753+000000000+000000246+0000001999+0000000000+I40000001999+0000000000+Z
206109001206109565-000888     206109006003000607846NOVELTY MESH BALL      0000001000+00001753+00000+0001T   00001753+0000001731          1400 GH1745               2AZ
206110000206110               206110               170213VA     1400+00000+VA0000000918+0000000918+000000000+000000129+0000001040+0000000007+I20000000000+0000001040+Z
206110001206110018-000177     206110006001023797513MUG MINI LOVE ASSTD    0000001000+00000700+00000+0001T   00000700+0000001732          1400 GH1515               2AZ
206110002206110006-000170-A   206110006003000608065BALLOONS 1PC PINK      0000001000+00000218+00000+0001T   00000218+0000001732          1400 GH1131               2AZ
206111000206111               206111               170213VA     1400+00000+VA0000011399+0000011399+000000000+000001597+0000012996+0000000000+I40000012996+0000000000+Z
206111001206111301-085004     206111006003000420469ORN LOVE PLAQUE 21X10CM0000001000+00003507+00000+0001T   00003946+0006471735          1400 GH1505               2AZ
206111002206111301-000300     206111006003000456840ORN INSPIRATIONAL CROSS0000001000+00006139+00000+0001T   00006139+0000001735          1400 GH1505               2AZ
206111003206111077-000299-A   206111006003000670888GIFT-BAG PAPER JMB LOVE0000001000+00001753+00000+0001T   00001753+0000001735          1400 GH1112               2AZ
206112000206112               206112               170213VA     1400+00000+VA0000001753+0000001753+000000000+000000246+0000001990+0000000009+I20000000000+0000001990+Z
206112001206112018-000108     206112006001023380265MUG NOVELTY ICON ASST  0000001000+00001753+00000+0001T   00001753+0000001738          1400 GH1515               2AZ
206113000206113               206113               170213VA     1400+00000+VA0000006347+0000006347+000000000+000000889+0000007230+0000000006+I20000000000+0000007230+Z
206113001206113112-116038     206113006009681820246TCS CARRIER BAG MIDI   0000001000+00000035+00000+0001T   00000035+0000001742          1400 GH1090               2AZ
206113002206113018-000127     206113006001023380289MUG OCC STRAIGHT LOVE  0000004000+00001578+00000+0001T   00001753+0006471742          1400 GH1515               2AZ
206114000206114               206114               170213VA     1400+00000+VA0000001753+0000001753+000000000+000000246+0000001990+0000000009+I20000000000+0000001990+Z
206114001206114077-000471     206114006003000330096G-BAG DESGN MED 18X23CM0000001000+00001753+00000+0001T   00001753+0000001742          1400 GH1112               2AZ
206115000206115               206115               170213VA     1400+00000+VA0000005998+0000005998+000000000+000000840+0000006838+0000000000+I40000006838+0000000000+Z
206115001206115031-000001-A   206115006003000246908P/FRAME GLS LOVE 9X13cm0000001000+00004385+00000+0001T   00004385+0000001745          1400 GH1510               2AZ
206115002206115077-000303     206115006001023593757GIFT-BAG PAPER MED     0000001000+00001578+00000+0001T   00001578+0000001745          1400 GH1112               2AZ
206115003206115112-116038     206115006009681820246TCS CARRIER BAG MIDI   0000001000+00000035+00000+0001T   00000035+0000001745          1400 GH1090               2AZ
206116000206116               206116               170213VA     1400+00000+VA0000007045+0000007045+000000000+000000990+0000008035+0000000000+I10000001035+0000007000+Z
206116001206116304-001204     206116006001023737984FLOWER OCC. TEDDY/ROSES0000005000+00001402+00000+0001T   00001490+0006471753          1400 GH1510               2AZ
206116002206116112-116038     206116006009681820246TCS CARRIER BAG MIDI   0000001000+00000035+00000+0001T   00000035+0000001753          1400 GH1090               2AZ
A17021300                                          10505191VASLAVE 2                       GH12IC
A17021301                                          11375006VASLAVE 2                       GH12IC
B20605300                                          170213VA007-000217     12400969SLAVE 2     GH12IC0000070000+0000001000+0000000000000+
C20605300                                          170213VA105-001024-A   12384274SLAVE 2     GH11IC0000000000+0000000000+0010000003000+
C20605301                                          170213VA112-116069     12385142SLAVE 2     GH11IC0000000000+0000000000+0020000001000+
C20606100                                          170213VA077-000303     12581926SLAVE 2     GH11IC0000000000+0000000000+0010000001000+
M17021301                              IT          VALAST SALE ONSLAVE 2                             206116
M17021391                              CASH        VASLAVE 2                       Z-REPORT No.   633TOTAL (Sales - Refunds)           5653.78       CASH TO BE BANKED                 3178.30       DEBIT CARDS                          0.00       CREDIT CARDS                      2475.48       Z-READING                         5653.78       AIRTIME DEBIT CARD SALES             0.00       AIRTIME CARD SALES                   0.00       OVERS/UNDERS                         0.00       AIRTIME CASH SALES                   0.00       GIFT CARDS                           0.00       GIFT CARD CASH SALES                 0.00       T O T A L  CASH PAYOUTS              0.00                                                                                                                                                                                                                                                                                                                                                      Z
M17021392                              CASH        VAABSENT                                                                                                                                                                                          ANNUAL LEAVE                                                                                                                                                                                    DAY OFF                                                                                                                                                                                         COMMENTS          Z R5653.78                                      Z NO 633                                                                                                                                                                                                                                                                                                                     Z
Y17021300                                          VA00000000498109+000097
ZVA17021320253 SLAVE 2      SALES DATA                     NEXT INVOICE NO.  206117 0633
X VA Slave 2 First invoice 206019 170213 Last invoice 206116 170213 Next invoice 206117 Total number of records 000000297 clbackup completed 20:25:56
