106411000106411               106411               170213VB     1400+00000+VB0000002630+0000002630+000000000+000000369+0000002990+0000000009+I20000000000+0000002990+Z
106411001106411106-003112     106411006003000593460ICE CUBE TRAY 25X12X3CM0000001000+00002630+00000+0001T   00002630+0000000948          1400 EI6210               1AZ
106412000106412               106412               170213VB     1400+00000+VB0000006008+0000006008+000000000+000000842+0000006850+0000000000+I10000006800+0000000050+Z
106412001106412466-000103     106412006001023642134BALL 20cm ASSTD        0000001000+00001753+00000+0001T   00001753+0000001055          1400 EI6785               1AZ
106412002106412466-000073     106412006003000669127BALL SOCCER MESH 15.2cm0000001000+00003507+00000+0001T   00003507+0000001055          1400 EI6785               1AZ
106412003106412112-116069     106412006009681820277TCS CARRIER BAG JUMBO  0000001000+00000048+00000+0001T   00000048+0000001055          1400 EI6090               1AZ
106412004106412564-000012     106412006001023130075BUBBLE BOTTLE MAGIC    0000001000+00000700+00000+0001T   00000700+0000001055          1400 EI6131               1AZ
106413000106413               106413               170213VB     1400+00000+VB0000013188+0000013188+000000000+000001853+0000015041+0000000000+I40000015041+0000000000+Z
106413001106413112-116069     106413006009681820277TCS CARRIER BAG JUMBO  0000001000+00000048+00000+0001T   00000048+0000001122          1400 EI6090               1AZ
106413002106413077-000384     106413006003000275243G/BAG HOT STMP 18x23CM 0000003000+00001490+00000+0001T   00001490+0000001122          1400 EI6112               1AZ
106413003106413903-002891     106413008935001721376MENTOS GUM WINTERGREEN 0000003000+00001051+00000+0001T   00001051+0000001122          1400 EI6150               1AZ
106413004106413903-000295     106413006001704002899SWT MS FRUITY RASCALS  0000003000+00000876+00000+0001T   00000876+0000001122          1400 EI6150               1AZ
106413005106413007-000555     106413006001023848239MEMO-PAD MINI LOVE     0000004000+00000613+00000+0001T   00000613+0000001122          1400 EI6130               1AZ
106413006106413080-000133     106413006003000535613CARD&ENV MINI ASTD DSGN0000001000+00000437+00000+0001T   00000437+0000001122          1400 EI6112               1AZ
106414000106414               106414               170213VB     1400+00000+VB0000001226+0000001226+000000000+000000172+0000001390+0000000008+I20000000000+0000001390+Z
106414001106414304-001011     106414006001023806727FLWR ROSE RED W/BEAR   0000002000+00000613+00000+0001T   00000788+0006471132          1400 EI6510               1AZ
106415000106415               106415               170213VB     1400+00000+VB0000002103+0000002103+000000000+000000295+0000002390+0000000008+I20000000000+0000002390+Z
106415001106415077-000318     106415006001023609755GIFT-BAG 18X23CM E/D AN0000001000+00001227+00000+0001T   00001227+0000001134          1400 EI6112               1AZ
106415002106415077-000302     106415008010410010195GIFT-BAG 18X23CM E/D   0000001000+00000876+00000+0001T   00000876+0000001134          1400 EI6112               1AZ
106416000106416               106416               170213VB     1400+00000+VB0000036615+0000036615+000000000+000005131+0000041746+0000000000+I40000041746+0000000000+Z
106416001106416112-116069     106416006009681820277TCS CARRIER BAG JUMBO  0000001000+00000048+00000+0001T   00000048+0000001136          1400 EI6090               1AZ
106416002106416493-059010     106416000078257590100BEACH-BALL COLOR-PANELS0000002000+00001490+00000+0001T   00001490+0000001136          1400 EI6787               1AZ
106416003106416206-000460     106416006003000619986BOOKMARK ZIPPER        0000001000+00004385+00000+0001T   00004385+0000001136          1400 EI6321               1AZ
106416004106416565-000002     106416006003000308071NOVELTY GROWING ANIMALS0000001000+00001753+00000+0001T   00001753+0000001136          1400 EI6745               1AZ
106416005106416080-000124     106416006003000297733CARD & ENV VALENTINES  0000001000+00001578+00000+0001T   00001578+0000001136          1400 EI6112               1AZ
106416006106416206-000480     106416006003000620227MOP SHOES CHENILLE 2PC 0000003000+00007893+00000+0001T   00007893+0000001136          1400 EI6321               1AZ
106416007106416077-000926     106416006003000414178G/WRAP 700mmx2m LOVE   0000001000+00002192+00000+0001T   00002192+0000001136          1400 EI6112               1AZ
106417000106417               106417               170213VB     1400+00000+VB0000000876+0000000876+000000000+000000123+0000000990+0000000009+I20000000000+0000000990+Z
106417001106417071-001239     106417006001023762672ERASER PL ASSTD-COLOURS0000001000+00000876+00000+0001T   00000876+0000001137          1400 EI6130               1AZ
106418000106418               106418               170213VB     1400+00000+VB0000001753+0000001753+000000000+000000246+0000001990+0000000009+I20000000000+0000001990+Z
106418001106418077-000902     106418006003000410569G/WRAP 700mmx1m BBY/KID0000001000+00001753+00000+0001T   00001753+0000001152          1400 EI6112               1AZ
106419000106419               106419               170213VB     1400+00000+VB0000002630+0000002630+000000000+000000369+0000002990+0000000009+I20000000000+0000002990+Z
106419001106419567-075466     106419009780263254235BK NOVEL ROMANCE       0000001000+00002630+00000+0001T   00002630+0000001153          1400 EI6757               1AZ
106420000106420               106420               170213VB     1400+00000+VB0000002630+0000002630+000000000+000000369+0000002999+0000000000+I40000002999+0000000000+Z
106420001106420056-065302     106420006001023759566CAR SUN-SHIELD ALM-FOIL0000001000+00002630+00000+0001T   00002630+0000001154          1400 EI6860               1AZ
106421000106421               106421               170213VB     1400+00000+VB0000008065+0000008065+000000000+000001131+0000009196+0000000000+I40000009196+0000000000+Z
106421001106421464-000107     106421000073854318089PLAY-CARDS 2nd (SINGLE)0000002000+00003069+00000+0001T   00003069+0000001156          1400 EI6785               1AZ
106421002106421903-000087     106421006001704000161SWT SPECKLED-EGGS 50G  0000001000+00001139+00000+0001T   00001139+0000001156          1400 EI6150               1AZ
106421003106421903-000200     106421006009826020234SWT CHOC RP CHOCO 23G  0000001000+00000788+00000+0001T   00000788+0000001156          1400 EI6150               1AZ
106422000106422               106422               170213VB     1400+00000+VB0000003241+0000003241+000000000+000000454+0000003695+0000000000+I40000003695+0000000000+Z
106422001106422304-001011     106422006001023806727FLWR ROSE RED W/BEAR   0000001000+00000613+00000+0001T   00000788+0006471158          1400 EI6510               1AZ
106422002106422903-000194     106422006009826020616SWT CHOC RP LOLLY 25G  0000002000+00001314+00000+0001T   00001314+0000001158          1400 EI6150               1AZ
106423000106423               106423               170213VB     1400+00000+VB0000003506+0000003506+000000000+000000492+0000003990+0000000008+I20000000000+0000003990+Z
106423001106423133-000012     106423006001023561084CLEANING-CLOTH GREEN   0000002000+00001753+00000+0001T   00001753+0000001159          1400 EI6212               1AZ
106424000106424               106424               170213VB     1400+00000+VB0000001752+0000001752+000000000+000000246+0000001990+0000000008+I20000000000+0000001990+Z
106424001106424089-000192-A   106424006001023901774KEY-CHAIN ACRYLIC      0000002000+00000876+00000+0001T   00000876+0000001313          1400 EI6205               1AZ
106425000106425               106425               170213VB     1400+00000+VB0000001578+0000001578+000000000+000000221+0000001790+0000000009+I20000000000+0000001790+Z
106425001106425077-000303     106425006001023593757GIFT-BAG PAPER MED     0000001000+00001578+00000+0001T   00001578+0000001313          1400 EI6112               1AZ
106426000106426               106426               170213VB     1400+00000+VB0000003730+0000003730+000000000+000000523+0000004250+0000000003+I20000000000+0000004250+Z
106426001106426080-000127     106426006003000424351VALENTINES DAY 36x24CM 0000001000+00002192+00000+0001T   00002192+0000001315          1400 EI6112               1AZ
106426002106426077-000299     106426006003000395576G/BAG 32x25cm LRG LOVE 0000001000+00001490+00000+0001T   00001490+0000001315          1400 EI6112               1AZ
106426003106426112-116069     106426006009681820277TCS CARRIER BAG JUMBO  0000001000+00000048+00000+0001T   00000048+0000001315          1400 EI6090               1AZ
106427000106427               106427               170213VB     1400+00000+VB0000010832+0000010832+000000000+000001519+0000012350+0000000001+I20000000000+0000012350+Z
106427001106427565-000889     106427006003000626953NOVELTY SPACE BALLOONS 0000001000+00001753+00000+0001T   00001753+0000001318          1400 EI6745               1AZ
106427002106427077-000302     106427008010410010195GIFT-BAG 18X23CM E/D   0000001000+00000876+00000+0001T   00000876+0000001318          1400 EI6112               1AZ
106427003106427079-011520     106427006003000160549ART+CRAFT SET SAND BOTL0000001000+00007016+00000+0001T   00007893+0008191318          1400 EI6130               1AZ
106427004106427112-116069     106427006009681820277TCS CARRIER BAG JUMBO  0000001000+00000048+00000+0001T   00000048+0000001318          1400 EI6090               1AZ
106427005106427565-000071     106427006003000643387NOVELTY WIND UP CHATTER0000001000+00001139+00000+0001T   00001139+0000001318          1400 EI6745               1AZ
106428000106428               106428               170213VB     1400+00000+VB0000007500+0000007500+000000000+000001052+0000008552+0000000000+I40000008552+0000000000+Z
106428001106428112-116069     106428006009681820277TCS CARRIER BAG JUMBO  0000001000+00000048+00000+0001T   00000048+0000001355          1400 EI6090               1AZ
106428002106428567-014132     106428006003000560028BOOK COLOURING 24 PAGE 0000001000+00000876+00000+0001T   00000876+0000001355          1400 EI6757               1AZ
106428003106428079-000514     106428009556341898321CRAYONS WAX 24-COLOUR  0000001000+00002630+00000+0001T   00002630+0000001355          1400 EI6130               1AZ
106428004106428006-000851     106428006007151000273PARTY LUCKY-PACKET BOY 0000001000+00003946+00000+0001T   00003946+0000001355          1400 EI6131               1AZ
106429000106429               106429               170213VB     1400+00000+VB0000006183+0000006183+000000000+000000866+0000007049+0000000000+I40000007049+0000000000+Z
106429001106429007-000324     10642900600968585864125 SHEETS BRIGHTS MARLI0000001000+00003507+00000+0001T   00003507+0000001406          1400 EI6130               1AZ
106429002106429903-000194     106429006009826020616SWT CHOC RP LOLLY 25G  0000002000+00001314+00000+0001T   00001314+0000001406          1400 EI6150               1AZ
106429003106429112-116069     106429006009681820277TCS CARRIER BAG JUMBO  0000001000+00000048+00000+0001T   00000048+0000001406          1400 EI6090               1AZ
106430000106430               106430               170213VB     1400+00000+VB0000012845+0000012845+000000000+000001803+0000014648+0000000000+I40000014648+0000000000+Z
106430001106430112-116069     106430006009681820277TCS CARRIER BAG JUMBO  0000001000+00000048+00000+0001T   00000048+0000001445          1400 EI6090               1AZ
106430002106430051-002406     106430006003000139415SPRAY PL TRIGGER 700ml 0000003000+00001753+00000+0001T   00001753+0000001445          1400 EI6820               1AZ
106430003106430903-000907     106430006009802868324SWEET LASER BARBIE     0000002000+00002016+00000+0001T   00002016+0000001445          1400 EI6150               1AZ
106430004106430903-000595     106430006003000564170SWT TOY WATER FLUTE    0000001000+00001753+00000+0001T   00001753+0000001445          1400 EI6150               1AZ
106430005106430051-002406     106430006003000139415SPRAY PL TRIGGER 700ml 0000001000+00001753+00000+0001T   00001753+0000001445          1400 EI6820               1AZ
106431000106431               106431               170213VB     1400+00000+VB0000001753+0000001753+000000000+000000246+0000001990+0000000009+I20000000000+0000001990+Z
106431001106431084-091590     106431006003000092864FOOT FILE 17cm         0000001000+00001753+00000+0001T   00001753+0000001446          1400 EI6200               1AZ
106432000106432               106432               170213VB     1400+00000+VB0000003542+0000003542+000000000+000000496+0000004030+0000000008+I20000000000+0000004030+Z
106432001106432560-000189     106432006003000592357ANIMALS SNAKE 78cm     0000001000+00003507+00000+0001T   00003507+0000001449          1400 EI6745               1AZ
106432002106432112-116038     106432006009681820246TCS CARRIER BAG MIDI   0000001000+00000035+00000+0001T   00000035+0000001449          1400 EI6090               1AZ
106433000106433               106433               170213VB     1400+00000+VB0000001578+0000001578+000000000+000000221+0000001799+0000000000+I40000001799+0000000000+Z
106433001106433077-000303     106433006001023593757GIFT-BAG PAPER MED     0000001000+00001578+00000+0001T   00001578+0000001453          1400 EI6112               1AZ
106434000106434               106434               170213VB     1400+00000+VB0000007925+0000007925+000000000+000001112+0000009030+0000000007+I20000000000+0000009030+Z
106434001106434112-116038     106434006009681820246TCS CARRIER BAG MIDI   0000001000+00000035+00000+0001T   00000035+0000001457          1400 EI6090               1AZ
106434002106434567-075466     106434009780263252378BK NOVEL ROMANCE       0000001000+00002630+00000+0001T   00002630+0000001457          1400 EI6757               1AZ
106434003106434567-075466     106434009780263252880BK NOVEL ROMANCE       0000001000+00002630+00000+0001T   00002630+0000001457          1400 EI6757               1AZ
106434004106434567-075466     106434009780263252408BK NOVEL ROMANCE       0000001000+00002630+00000+0001T   00002630+0000001457          1400 EI6757               1AZ
106435000106435               106435               170213VB     1400+00000+VB0000004208+0000004208+000000000+000000590+0000004798+0000000000+I40000004798+0000000000+Z
106435001106435903-000090     106435006009826020821SWT GS CHOCO COINS 60g 0000002000+00002104+00000+0001T   00002104+0000001501          1400 EI6150               1AZ
106436000106436               106436               170213VB     1400+00000+VB0000013149+0000013149+000000000+000001842+0000014990+0000000001+I20000000000+0000014990+Z
106436001106436018-000130     106436006001023867537MUG OCC LOVE MINI+HEART0000003000+00003507+00000+0001T   00003507+0000001502          1400 EI6515               1AZ
106436002106436903-003050     106436008024431008239SWT CHOC CONE H/NUT 25G0000003000+00000876+00000+0001T   00000876+0000001502          1400 EI6150               1AZ
106437000106437               106437               170213VB     1400+00000+VB0000009296+0000009296+000000000+000001302+0000010590+0000000008+I20000000000+0000010590+Z
106437001106437105-001081     106437000700371699888CLIP LOCK 4L OBLONG    0000002000+00004648+00000+0001T   00004648+0000001503          1400 EI6210               1AZ
106438000106438               106438               170213VB     1400+00000+VB0000025915+0000025915+000000000+000003632+0000029540+0000000007+I20000000000+0000029540+Z
106438001106438112-116069     106438006009681820277TCS CARRIER BAG JUMBO  0000001000+00000048+00000+0001T   00000048+0000001506          1400 EI6090               1AZ
106438002106438567-011423     106438006003000641345BK COLOURING THERAPY A50000001000+00006139+00000+0001T   00006139+0000001506          1400 EI6757               1AZ
106438003106438079-000336     106438006003000670758SUPER FINE MARKER PENS 0000001000+00005262+00000+0001T   00005262+0000001506          1400 EI6130               1AZ
106438004106438079-000335     106438006003000670550THERAPY P/CRAYONS 30   0000001000+00007016+00000+0001T   00007016+0000001506          1400 EI6130               1AZ
106438005106438206-000620     106438006003000631797BACK SCRATCHER EXTEND  0000001000+00002630+00000+0001T   00002630+0000001506          1400 EI6321               1AZ
106438006106438079-006500     106438006001023557186GLUE GLITTER 6/10 PCE  0000001000+00001753+00000+0001T   00001753+0000001506          1400 EI6130               1AZ
106438007106438903-004950     106438006002580020304SWT APRICOT SURPRISE   0000001000+00001314+00000+0001T   00001314+0000001506          1400 EI6150               1AZ
106438008106438065-006042     106438006001023712998MARACAS 2PCE CHA-CHA   0000001000+00001753+00000+0001T   00001753+0000001506          1400 EI6745               1AZ
106439000106439               106439               170213VB     1400+00000+VB0000000876+0000000876+000000000+000000123+0000000990+0000000009+I20000000000+0000000990+Z
106439001106439028-000797     106439006001023812124SKEWERS 15cm 100PCE    0000001000+00000876+00000+0001T   00000876+0000001507          1400 EI6305               1AZ
106440000106440               106440               170213VB     1400+00000+VB0000008286+0000008286+000000000+000001161+0000009440+0000000007+I20000000000+0000009440+Z
106440001106440079-009700-D   106440006003000545711PAPER SIRIO A4 RED COL.0000004000+00000306+00000+0001T   00000306+0000001510          1400 EI6130               1AZ
106440002106440079-006498     106440006001023836151GLITTER SET 10PCE      0000001000+00003507+00000+0001T   00003507+0000001510          1400 EI6130               1AZ
106440003106440007-000291     106440006003000590131REMINDER NOTES REFILL  0000001000+00003507+00000+0001T   00003507+0000001510          1400 EI6130               1AZ
106440004106440112-116069     106440006009681820277TCS CARRIER BAG JUMBO  0000001000+00000048+00000+0001T   00000048+0000001510          1400 EI6090               1AZ
106441000106441               106441               170213VB     1400+00000+VB0000000262+0000000262+000000000+000000037+0000000290+0000000009+I20000000000+0000000290+Z
106441001106441903-000216     106441006925925900966SWT MALLOW TWIST ERKO  0000001000+00000262+00000+0001T   00000262+0000001514          1400 EI6150               1AZ
106442000106442               106442               170213VB     1400+00000+VB0000003191+0000003191+000000000+000000447+0000003638+0000000000+I40000003638+0000000000+Z
106442001106442112-116038     106442006009681820246TCS CARRIER BAG MIDI   0000001000+00000035+00000+0001T   00000035+0000001523          1400 EI6090               1AZ
106442002106442018-000127     106442006001023380289MUG OCC STRAIGHT LOVE  0000002000+00001578+00000+0001T   00001753+0006471523          1400 EI6515               1AZ
106443000106443               106443               170213VB     1400+00000+VB0000003507+0000003507+000000000+000000491+0000003990+0000000008+I20000000000+0000003990+Z
106443001106443031-000002-A   106443006003000247103P/FRAME LOVE 7.5X7.5CM 0000001000+00003507+00000+0001T   00003507+0000001528          1400 EI6510               1AZ
106444000106444               106444               170213VB     1400+00000+VB0000003242+0000003242+000000000+000000455+0000003697+0000000000+I40000003697+0000000000+Z
106444001106444301-085006     106444006001023502940ORN LOVE MSG TUBE W/HRT0000001000+00001753+00000+0001T   00001753+0000001532          1400 EI6505               1AZ
106444002106444077-000321     106444006001023677501GIFT-BAG 11X14CM E/D FL0000001000+00000613+00000+0001T   00000613+0000001532          1400 EI6112               1AZ
106444003106444077-000011-D   106444006001023808554TISSUE-WRAP WHITE 10PCE0000001000+00000876+00000+0001T   00000876+0000001532          1400 EI6112               1AZ
106445000106445               106445               170213VB     1400+00000+VB0000002630+0000002630+000000000+000000369+0000002990+0000000009+I20000000000+0000002990+Z
106445001106445004-071192     106445006003000528813USB CABLE 1.0m         0000001000+00002630+00000+0001T   00002630+0000001538          1400 EI6310               1AZ
106446000106446               106446               170213VB     1400+00000+VB0000000613+0000000613+000000000+000000086+0000000699+0000000000+I40000000699+0000000000+Z
106446001106446304-001011     106446006001023806727FLWR ROSE RED W/BEAR   0000001000+00000613+00000+0001T   00000788+0006471539          1400 EI6510               1AZ
106447000106447               106447               170213VB     1400+00000+VB0000005288+0000005288+000000000+000000743+0000006030+0000000001+I20000000000+0000006030+Z
106447001106447112-116038     106447006009681820246TCS CARRIER BAG MIDI   0000001000+00000035+00000+0001T   00000035+0000001544          1400 EI6090               1AZ
106447002106447077-000311     106447006001023608666GIFT-BAG 11X14CM GLOSS 0000003000+00000613+00000+0001T   00000613+0000001544          1400 EI6112               1AZ
106447003106447007-000555     106447006001023848239MEMO-PAD MINI LOVE     0000003000+00000613+00000+0001T   00000613+0000001544          1400 EI6130               1AZ
106447004106447903-000155     106447006009803374435SWT LOLLY I LUV U HEART0000003000+00000525+00000+0001T   00000525+0000001544          1400 EI6150               1AZ
106448000106448               106448               170213VB     1400+00000+VB0000002628+0000002628+000000000+000000368+0000002990+0000000006+I20000000000+0000002990+Z
106448001106448903-000194     106448006009826020616SWT CHOC RP LOLLY 25G  0000002000+00001314+00000+0001T   00001314+0000001546          1400 EI6150               1AZ
106449000106449               106449               170213VB     1400+00000+VB0000001050+0000001050+000000000+000000148+0000001190+0000000008+I20000000000+0000001190+Z
106449001106449903-000077     106449006939873501687SWT GS MAGIC ROCK FRUIT0000002000+00000525+00000+0001T   00000525+0000001555          1400 EI6150               1AZ
106450000106450               106450               170213VB     1400+00000+VB0000000876+0000000876+000000000+000000123+0000000990+0000000009+I20000000000+0000000990+Z
106450001106450007-000235     106450006003000134434LABELS RECTANGULAR 60pc0000001000+00000876+00000+0001T   00000876+0000001558          1400 EI6130               1AZ
106451000106451               106451               170213VB     1400+00000+VB0000001050+0000001050+000000000+000000148+0000001190+0000000008+I20000000000+0000001190+Z
106451001106451903-000155     106451006009803374435SWT LOLLY I LUV U HEART0000002000+00000525+00000+0001T   00000525+0000001601          1400 EI6150               1AZ
106452000106452               106452               170213VB     1400+00000+VB0000007891+0000007891+000000000+000001106+0000008997+0000000000+I40000008997+0000000000+Z
106452001106452079-013032-I   106452006003000542550ART+CRAFT DIY EVA FOAM 0000001000+00001753+00000+0001T   00001753+0000001606          1400 EI6130               1AZ
106452002106452027-783000     106452006001023874641SCOURERS RAINBOW 5PCE  0000001000+00001753+00000+0001T   00001753+0000001606          1400 EI6212               1AZ
106452003106452048-071505     106452006001023714626TOUCH-LIGHTS 8cm  SET-20000001000+00004385+00000+0001T   00004385+0000001606          1400 EI6305               1AZ
106453000106453               106453               170213VB     1400+00000+VB0000001753+0000001753+000000000+000000246+0000001990+0000000009+I20000000000+0000001990+Z
106453001106453080-000113     106453006003000237449CARD&ENVLPE - LOVE     0000001000+00001753+00000+0001T   00001753+0000001607          1400 EI6112               1AZ
106454000106454               106454               170213VB     1400+00000+VB0000004155+0000004155+000000000+000000583+0000004738+0000000000+I40000004738+0000000000+Z
106454001106454079-000282     106454006001023493309PAINT TUBS POSTER 12COL0000001000+00002630+00000+0001T   00002630+0000001621          1400 EI6130               1AZ
106454002106454079-006494     106454006003000159864GLITTER GLUE 5PCE 11cm 0000001000+00001490+00000+0001T   00001490+0000001621          1400 EI6130               1AZ
106454003106454112-116038     106454006009681820246TCS CARRIER BAG MIDI   0000001000+00000035+00000+0001T   00000035+0000001621          1400 EI6090               1AZ
106455000106455               106455               170213VB     1400+00000+VB0000000613+0000000613+000000000+000000086+0000000690+0000000009+I20000000000+0000000690+Z
106455001106455304-001011     106455006001023806727FLWR ROSE RED W/BEAR   0000001000+00000613+00000+0001T   00000788+0006471640          1400 EI6510               1AZ
106456000106456               106456               170213VB     1400+00000+VB0000004558+0000004558+000000000+000000639+0000005190+0000000007+I20000000000+0000005190+Z
106456001106456903-000843     106456008693029031067SWT GUMMY JELAXY 80G   0000002000+00000964+00000+0001T   00000964+0000001641          1400 EI6150               1AZ
106456002106456016-006710     106456006003000674725S/JAR GLS RHEA 425ml   0000001000+00002630+00000+0001T   00002630+0000001641          1400 EI6300               1AZ
106457000106457               106457               170213VB     1400+00000+VB0000007014+0000007014+000000000+000000982+0000007996+0000000000+I40000007996+0000000000+Z
106457001106457018-000136     106457006001023659026MUG OCC LOVE W/PLUSH   0000002000+00003507+00000+0001T   00003507+0000001646          1400 EI6515               1AZ
106458000106458               106458               170213VB     1400+00000+VB0000005994+0000005994+000000000+000000842+0000006836+0000000000+I40000006836+0000000000+Z
106458001106458903-000155     106458006009803374435SWT LOLLY I LUV U HEART0000001000+00000525+00000+0001T   00000525+0000001648          1400 EI6150               1AZ
106458002106458486-000001     106458006001023507969ALARM-CLOCK SQ ASS     0000001000+00002630+00000+0001T   00002630+0000001648          1400 EI6510               1AZ
106458003106458105-000750     106458006003000190270CONTAINERS 4xMINI 150ml0000001000+00001402+00000+0001T   00001402+0000001648          1400 EI6210               1AZ
106458004106458105-001005     106458006001023858214CONTAINERS MINI 6PCE   0000001000+00001402+00000+0001T   00001402+0000001648          1400 EI6210               1AZ
106458005106458112-116038     106458006009681820246TCS CARRIER BAG MIDI   0000001000+00000035+00000+0001T   00000035+0000001648          1400 EI6090               1AZ
106459000106459               106459               170213VB     1400+00000+VB0000011783+0000011783+000000000+000001651+0000013434+0000000000+I40000013434+0000000000+Z
106459001106459018-000127     106459006001023380289MUG OCC STRAIGHT LOVE  0000001000+00001578+00000+0001T   00001753+0006471651          1400 EI6515               1AZ
106459002106459903-000194     106459006009826020616SWT CHOC RP LOLLY 25G  0000001000+00001314+00000+0001T   00001314+0000001651          1400 EI6150               1AZ
106459003106459368-000265     106459006001023750914PLUSH BEAR 23CM ASSTD C0000001000+00006139+00000+0001T   00006139+0000001651          1400 EI6745               1AZ
106459004106459903-000087     106459006001704000161SWT SPECKLED-EGGS 50G  0000001000+00001139+00000+0001T   00001139+0000001651          1400 EI6150               1AZ
106459005106459112-116038     106459006009681820246TCS CARRIER BAG MIDI   0000001000+00000035+00000+0001T   00000035+0000001651          1400 EI6090               1AZ
106459006106459077-000303     106459006001023593757GIFT-BAG PAPER MED     0000001000+00001578+00000+0001T   00001578+0000001651          1400 EI6112               1AZ
C10643100                                          170213VB051-002406     14461068SLAVE 1     EI61IC0000000000+0000000000+0020000001000+
M17021301                              IT          VBATT IT                                                                                          LAST SALE FOR SLV1 106459                                                                       ZREAD  2735.17                                  CARD   1663.58                                  BANKING 1452.90                                                                                 VB                                              THANKS
M17021391                              CASH        VBSLAVE 1                       Z-REPORT No.   650TOTAL (Sales - Refunds)           3116.48       CASH TO BE BANKED                 1452.90       DEBIT CARDS                          0.00       CREDIT CARDS                      1663.58       Z-READING                         3116.48       AIRTIME DEBIT CARD SALES             0.00       AIRTIME CARD SALES                   0.00       OVERS/UNDERS                         0.00       AIRTIME CASH SALES                   0.00       GIFT CARDS                           0.00       GIFT CARD CASH SALES                 0.00       T O T A L  CASH PAYOUTS              0.00                                                                                                                                                                                                                                                                                                                                                      Z
M17021392                              CASH        VBABSENT                                                                                                                                                                                          ANNUAL LEAVE                                                                                                                                                                                    DAY OFF                                                                                                                                                                                         COMMENTS                                                                                                                                                                                                                                                                                                                                                                                       Z
Y17021300                                          VB00000000273517+000049
ZVB17021321253 SLAVE 1      SALES DATA                     NEXT INVOICE NO.  106460 0650
X VB Slave 1 First invoice 106411 170213 Last invoice 106459 170213 Next invoice 106460 Total number of records 000000172 clbackup completed 21:25:49
