309397000309397               309397               170213VB     1400+00000+VB0000001490+0000001490+000000000+000000209+0000001690+0000000009+I20000000000+0000001690+Z
309397001309397046-000010     309397004897006172987BATTERIES AAA ALKLN 2PC0000001000+00001490+00000+0001T   00001490+0000000936          1400 II6312               3AZ
309398000309398               309398               170213VB     1400+00000+VB0000001927+0000001927+000000000+000000271+0000002190+0000000008+I20000000000+0000002190+Z
309398001309398079-009702-B   309398008427973059491PAPER SIRIO A2 WHITE   0000001000+00001051+00000+0001T   00001051+0000000937          1400 II6130               3AZ
309398002309398071-001019     309398006001023474513MARKER BLACK NAME-PEN  0000001000+00000876+00000+0001T   00000876+0000000937          1400 II6130               3AZ
309399000309399               309399               170213VB     1400+00000+VB0000003812+0000003812+000000000+000000535+0000004347+0000000000+I40000004347+0000000000+Z
309399001309399158-000005     309399006001023594839CELLPHONE STAND 10.5cm 0000001000+00001753+00000+0001T   00002630+0008171047          1400 II6300               3AZ
309399002309399306-000020     309399006001023743145POCKET-TISSUES 10PCE   0000001000+00000306+00000+0001T   00000306+0000001047          1400 II6200               3AZ
309399003309399306-000024-A   309399006003000577309COTTON-WOOL-PADS 80PC  0000001000+00001753+00000+0001T   00001753+0000001047          1400 II6200               3AZ
309400000309400               309400               170213VB     1400+00000+VB0000003699-0000000000+000000000+000000000+0000003700-0000000001+I20000000000+0000003700-Z
309400001309400001-999909     309400000000000999909STAFF-REFRESHMENTS     0000001000-00003699+00000+0001X   00000000+0000001147          0000 II69091IC            3 Z
309401000309401               309401               170213VB     1400+00000+VB0000010572+0000010572+000000000+000001481+0000012053+0000000000+I40000012053+0000000000+Z
309401001309401112-116069     309401006009681820277TCS CARRIER BAG JUMBO  0000001000+00000048+00000+0001T   00000048+0000001220          1400 II6090               3AZ
309401002309401088-000080     309401006003000622863DRAWER LINERS SCENTED  0000002000+00005262+00000+0001T   00005262+0000001220          1400 II6212               3AZ
309402000309402               309402               170213VB     1400+00000+VB0000031568+0000031568+000000000+000004424+0000035992+0000000000+I40000035992+0000000000+Z
309402001309402079-009702-B   309402008427973059491PAPER SIRIO A2 WHITE   0000005000+00001051+00000+0001T   00001051+0000001223          1400 II6130               3AZ
309402002309402105-007515     309402006003000487547STORAGE BOX CLEAR 6L   0000002000+00008771+00000+0001T   00008771+0000001223          1400 II6210               3AZ
309402003309402586-010755     309402006001492107554WATCH LDS HOT DEAL ASST0000001000+00008771+00000+0001T   00008771+0000001223          1400 II6160               3AZ
309403000309403               309403               170213VB     1400+00000+VB0000011435+0000011435+000000000+000001602+0000013030+0000000007+I20000000000+0000013030+Z
309403001309403030-004015     309403006003000467624PLAQUE WDN SIGN 30X20CM0000001000+00009648+00000+0001T   00009648+0000001224          1400 II6505               3AZ
309403002309403089-000150     309403006003000674268K/CHAIN PLUSH EMOTICON 0000001000+00001139+00000+0001T   00001139+0000001224          1400 II6205               3AZ
309403003309403304-001011     309403006001023806727FLWR ROSE RED W/BEAR   0000001000+00000613+00000+0001T   00000788+0006471224          1400 II6510               3AZ
309403004309403112-116038     309403006009681820246TCS CARRIER BAG MIDI   0000001000+00000035+00000+0001T   00000035+0000001224          1400 II6090               3AZ
309404000309404               309404               170213VB     1400+00000+VB0000012276+0000012276+000000000+000001720+0000013996+0000000000+I40000013996+0000000000+Z
309404001309404004-072001     309404006003000452378CABLE-TIDY REUSE COL-C 0000002000+00001753+00000+0001T   00001753+0000001226          1400 II6310               3AZ
309404002309404009-001312     309404006001023854728MELAMINE FLOWER TRAY RE0000002000+00004385+00000+0001T   00004385+0000001226          1400 II6210               3AZ
309405000309405               309405               170213VB     1400+00000+VB0000007892+0000007892+000000000+000001106+0000008990+0000000008+I20000000000+0000008990+Z
309405001309405056-065300     309405006001023625854CAR SUNSHIELD ALUM FOIL0000001000+00005262+00000+0001L   00005262+0000001232          1400 II6860               3AZ
309405002309405002-000717     309405006001023775184CHOPPING-MATS FLEX 2PCE0000001000+00002630+00000+0001T   00002630+0000001232          1400 II6300               3AZ
309406000309406               309406               170213VB     1400+00000+VB0000017358+0000017358+000000000+000002432+0000019790+0000000000+I40000019790+0000000000+Z
309406001309406048-000700     309406006001023849731HEAD-LAMP 10xLED (3xAAA0000002000+00004385+00000+0001T   00004385+0000001408          1400 II6305               3AZ
309406002309406903-000843     309406008693029031067SWT GUMMY JELAXY 80G   0000001000+00000964+00000+0001T   00000964+0000001408          1400 II6150               3AZ
309406003309406566-000359     309406006003000582709STICKER BOOK LOVE SPARK0000002000+00002192+00000+0001T   00002192+0000001408          1400 II6130               3AZ
309406004309406903-000099     309406006923431501646SWT CANDY GS WTCH B/LET0000001000+00000262+00000+0001T   00000262+0000001408          1400 II6150               3AZ
309406005309406565-000071     309406006003000643387NOVELTY WIND UP CHATTER0000001000+00001139+00000+0001T   00001139+0000001408          1400 II6745               3AZ
309406006309406362-004001     309406000613153010385PRINCESS ASSTD TRINKETS0000001000+00000700+00000+0001T   00000876+0008181408          1400 II6160               3AZ
309406007309406140-006004     309406006001023628077FLY-SWATTER RUBBER     0000001000+00001139+00000+0001T   00001139+0000001408          1400 II6830               3AZ
309407000309407               309407               170213VB     1400+00000+VB0000003542+0000003542+000000000+000000496+0000004030+0000000008+I20000000000+0000004030+Z
309407001309407031-000002-A   309407006003000247103P/FRAME LOVE 7.5X7.5CM 0000001000+00003507+00000+0001T   00003507+0000001411          1400 II6510               3AZ
309407002309407112-116038     309407006009681820246TCS CARRIER BAG MIDI   0000001000+00000035+00000+0001T   00000035+0000001411          1400 II6090               3AZ
309408000309408               309408               170213VB     1400+00000+VB0000001753+0000001753+000000000+000000246+0000001990+0000000009+I20000000000+0000001990+Z
309408001309408077-000239     309408006003000160419GIFT-RIBBON ROLL PEARL 0000001000+00001753+00000+0001T   00001753+0000001428          1400 II6112               3AZ
309409000309409               309409               170213VB     1400+00000+VB0000003506+0000003506+000000000+000000492+0000003990+0000000008+I20000000000+0000003990+Z
309409001309409903-000082     309409006001704014892SWT MINI WINE GUMS 100G0000002000+00001753+00000+0001T   00001753+0000001429          1400 II6150               3AZ
309410000309410               309410               170213VB     1400+00000+VB0000001753-0000001753-000000000+000000246-0000002000-0000000001+I20000000000+0000002000-Z
309410001309410077-000239     309410006003000160419GIFT-RIBBON ROLL PEARL 0000001000-00001753+00000+0001T   00001753+0000001431          1400 II61121IC            3 Z
309411000309411               309411               170213VB     1400+00000+VB0000005988+0000005988+000000000+000000839+0000006827+0000000000+I40000006827+0000000000+Z
309411001309411018-000177     309411006001023797513MUG MINI LOVE ASSTD    0000006000+00000700+00000+0001T   00000700+0000001435          1400 II6515               3AZ
309411002309411077-000906     309411006003000410804G/WRAP 700mmx1m BIRTHDA0000001000+00001753+00000+0001T   00001753+0000001435          1400 II6112               3AZ
309411003309411112-116038     309411006009681820246TCS CARRIER BAG MIDI   0000001000+00000035+00000+0001T   00000035+0000001435          1400 II6090               3AZ
309412000309412               309412               170213VB     1400+00000+VB0000005436+0000005436+000000000+000000762+0000006190+0000000008+I20000000000+0000006190+Z
309412001309412004-078900     309412006003000061655MICROPHONE O/F SWT 21cm0000001000+00004385+00000+0001T   00004385+0000001450          1400 II6310               3AZ
309412002309412079-009702-B   309412008427973059491PAPER SIRIO A2 WHITE   0000001000+00001051+00000+0001T   00001051+0000001450          1400 II6130               3AZ
309413000309413               309413               170213VB     1400+00000+VB0000002452+0000002452+000000000+000000344+0000002790+0000000006+I20000000000+0000002790+Z
309413001309413304-001011     309413006001023806727FLWR ROSE RED W/BEAR   0000004000+00000613+00000+0001T   00000788+0006471506          1400 II6510               3AZ
309414000309414               309414               170213VB     1400+00000+VB0000005260+0000005260+000000000+000000738+0000005998+0000000000+I40000005998+0000000000+Z
309414001309414566-000863     309414006001023788351STICKERS LASER 20x25cm 0000002000+00002630+00000+0001T   00002630+0000001508          1400 II6130               3AZ
309415000309415               309415               170213VB     1400+00000+VB0000001311+0000001311+000000000+000000186+0000001490+0000000007+I20000000000+0000001490+Z
309415001309415080-000133     309415006003000535613CARD&ENV MINI ASTD DSGN0000003000+00000437+00000+0001T   00000437+0000001520          1400 II6112               3AZ
309416000309416               309416               170213VB     1400+00000+VB0000003069+0000003069+000000000+000000430+0000003490+0000000009+I20000000000+0000003490+Z
309416001309416040-000200     309416006003000381586C/HLDER CERC INSP. ASST0000001000+00003069+00000+0001T   00003069+0000001521          1400 II6510               3AZ
309417000309417               309417               170213VB     1400+00000+VB0000013724+0000013724+000000000+000001923+0000015647+0000000000+I40000015647+0000000000+Z
309417001309417072-020315     309417006003000623891PET TOY PUPPY RING 3in10000001000+00003069+00000+0001T   00003069+0000001524          1400 II6870               3AZ
309417002309417004-071202     309417006003000459025USB MULTIPLE CHARGER   0000001000+00005262+00000+0001T   00005262+0000001524          1400 II6310               3AZ
309417003309417018-000127     309417006001023380289MUG OCC STRAIGHT LOVE  0000001000+00001578+00000+0001T   00001753+0006471524          1400 II6515               3AZ
309417004309417464-000121     309417006003000640492PLAYING CARDS MINI     0000001000+00000700+00000+0001T   00000700+0000001524          1400 II6785               3AZ
309417005309417903-000194     309417006009826020616SWT CHOC RP LOLLY 25G  0000001000+00001314+00000+0001T   00001314+0000001524          1400 II6150               3AZ
309417006309417077-000299-A   309417006003000670888GIFT-BAG PAPER JMB LOVE0000001000+00001753+00000+0001T   00001753+0000001524          1400 II6112               3AZ
309417007309417112-116069     309417006009681820277TCS CARRIER BAG JUMBO  0000001000+00000048+00000+0001T   00000048+0000001524          1400 II6090               3AZ
309418000309418               309418               170213VB     1400+00000+VB0000013155+0000013155+000000000+000001843+0000014998+0000000000+I40000014998+0000000000+Z
309418001309418077-000299-A   309418006003000670888GIFT-BAG PAPER JMB LOVE0000001000+00001753+00000+0001T   00001753+0000001528          1400 II6112               3AZ
309418002309418368-000637     309418006001023874092PLUSH BEAR SLEEPING LOV0000001000+00011402+00000+0001T   00012279+0006471528          1400 II6745               3AZ
309419000309419               309419               170213VB     1400+00000+VB0000010518+0000010518+000000000+000001476+0000011994+0000000000+I40000011994+0000000000+Z
309419001309419494-059230     309419000078257592302INTEX SWIN RING 51cm   0000006000+00001753+00000+0001T   00001753+0000001642          1400 II6787               3AZ
A17021300                                          10161158VBSLAVE 3                       II61IC
A17021301                                          12363429VBSLAVE 3                       II61IC
A17021302                                          13000253VBSLAVE 3                       II61IC
M17021301                              IT          VBLAST SALE SLV3   309419                                                                         Z READ TOTAL R1680.44                           C/CARD R1416.42                                 BANKING TOTAL R441.70                                                                                                                                                                                                                                                                                                                           THANKS VB
M17021391                              CASH        VBSLAVE 3                       Z-REPORT No.   588TOTAL (Sales - Refunds)           1895.12       CASH TO BE BANKED                  441.70       DEBIT CARDS                          0.00       CREDIT CARDS                      1416.42       Z-READING                         1858.12       AIRTIME DEBIT CARD SALES             0.00       AIRTIME CARD SALES                   0.00       OVERS/UNDERS                         0.00       AIRTIME CASH SALES                   0.00       GIFT CARDS                           0.00       GIFT CARD CASH SALES                 0.00       STAFF-REFRESHMENTS                  36.99       ROUNDING                             0.01       T O T A L  CASH PAYOUTS             37.00                                                                                                                                                                                                                                                      Z
M17021392                              CASH        VBABSENT                                                                                                                                                                                          ANNUAL LEAVE                                                                                                                                                                                    DAY OFF                                                                                                                                                                                         COMMENTS                                                                                                                                                                                                                                                                                                                                                                                       Z
Y17021300                                          VB00000000168044+000021
ZVB17021321253 SLAVE 3      SALES DATA                     NEXT INVOICE NO.  309420 0588
X VB Slave 3 First invoice 309397 170213 Last invoice 309419 170213 Next invoice 309420 Total number of records 000000082 clbackup completed 21:25:55
