155014000155014               155014               170213YA     1400+00000+YA0000001578+0000001578+000000000+000000221+0000001799+0000000000+I40000001799+0000000000+Z
155014001155014080-000124     155014006003000297733CARD & ENV VALENTINES  0000001000+00001578+00000+0001T   00001578+0000000921          1400 AS5112               1BZ
155015000155015               155015               170213YA     1400+00000+YA0000004433+0000004433+000000000+000000621+0000005050+0000000004+I20000000000+0000005050+Z
155015001155015366-000356     155015006003000006908DRESS UP WINGS FAIRY   0000001000+00004385+00000+0001T   00004385+0000000939          1400 AS5131               1AZ
155015002155015112-116069     155015006009681820277TCS CARRIER BAG JUMBO  0000001000+00000048+00000+0001T   00000048+0000000939          1400 AS5090               1AZ
155016000155016               155016               170213YA     1400+00000+YA0000008190+0000008190+000000000+000001147+0000009330+0000000007+I20000000000+0000009330+Z
155016001155016080-000124     155016006003000297733CARD & ENV VALENTINES  0000001000+00001578+00000+0001T   00001578+0000000946          1400 AS5112               1AZ
155016002155016030-000031-A   155016006003000457588PLAQUE W/WORDS ASSTD   0000001000+00004385+00000+0001T   00004823+0006470946          1400 AS5505               1AZ
155016003155016018-000170     155016006001023775528MUG OCC. LOVE 2PC MINI 0000001000+00002192+00000+0001T   00002192+0000000946          1400 AS5515               1AZ
155016004155016112-116038     155016006009681820246TCS CARRIER BAG MIDI   0000001000+00000035+00000+0001T   00000035+0000000946          1400 AS5090               1AZ
155017000155017               155017               170213YA     1400+00000+YA0000000876+0000000876+000000000+000000123+0000000990+0000000009+I20000000000+0000000990+Z
155017001155017046-001620-PK2 155017004897006178408BATTERY LITHIUM CR-16200000001000+00000876+00000+0001T   00000876+0000000949          1400 AS5312               1AZ
155018000155018               155018               170213YA     1400+00000+YA0000003507+0000003507+000000000+000000491+0000003990+0000000008+I20000000000+0000003990+Z
155018001155018365-005267     155018006001023584366P/SET KITCHEN BAKING PL0000001000+00003507+00000+0001T   00003507+0000000952          1400 AS5725               1AZ
155019000155019               155019               170213YA     1400+00000+YA0000000000+0000000000+000000000+000000000+0000000000+0000000000+ 00000000000+0000000000+Z
155020000155020               155020               170213YA     1400+00000+YA0000004385+0000004385+000000000+000000614+0000004990+0000000009+I20000000000+0000004990+Z
155020001155020368-000049     155020006003000536955PLUSH BEAR 15cm LOVE   0000001000+00004385+00000+0001T   00004385+0000001123          1400 AS5745               1BZ
155021000155021               155021               170213YA     1400+00000+YA0000000613+0000000613+000000000+000000086+0000000690+0000000009+I20000000000+0000000690+Z
155021001155021077-000311     155021006001023608666GIFT-BAG 11X14CM GLOSS 0000001000+00000613+00000+0001T   00000613+0000001141          1400 AS5112               1BZ
155022000155022               155022               170213YA     1400+00000+YA0000007049+0000007049+000000000+000000987+0000008030+0000000006+I20000000000+0000008030+Z
155022001155022018-005009     155022006001023725608MUG W/PLUSH-BEAR LOVE  0000002000+00003507+00000+0001T   00003507+0000001153          1400 AS5515               1AZ
155022002155022112-116038     155022006009681820246TCS CARRIER BAG MIDI   0000001000+00000035+00000+0001T   00000035+0000001153          1400 AS5090               1AZ
155023000155023               155023               170213YA     1400+00000+YA0000006139+0000006139+000000000+000000860+0000006999+0000000000+I40000006999+0000000000+Z
155023001155023562-001043     155023006003000478200NUMBERS&ALPHABET MAGNET0000001000+00006139+00000+0001T   00006139+0000001156          1400 AS5755               1AZ
155024000155024               155024               170213YA     1400+00000+YA0000012327+0000012327+000000000+000001727+0000014054+0000000000+I40000014054+0000000000+Z
155024001155024368-000111     155024006001023780812PLUSH BEAR/DOG 29CM    0000001000+00012279+00000+0001T   00012279+0000001159          1400 AS5745               1AZ
155024002155024112-116069     155024006009681820277TCS CARRIER BAG JUMBO  0000001000+00000048+00000+0001T   00000048+0000001159          1400 AS5090               1AZ
155025000155025               155025               170213YA     1400+00000+YA0000004065+0000004065+000000000+000000570+0000004635+0000000000+I40000004635+0000000000+Z
155025001155025088-000103     155025006008766127102INCENSE 20PCE ASSTD    0000002000+00000700+00000+0001T   00000700+0000001201          1400 AS5212               1BZ
155025002155025088-000082     155025006001023798008P/POURRI SACHETS 5x10ml0000001000+00002630+00000+0001T   00002630+0000001201          1400 AS5212               1BZ
155025003155025112-116038     155025006009681820246TCS CARRIER BAG MIDI   0000001000+00000035+00000+0001T   00000035+0000001201          1400 AS5090               1BZ
155026000155026               155026               170213YA     1400+00000+YA0000001578+0000001578+000000000+000000221+0000001790+0000000009+I20000000000+0000001790+Z
155026001155026077-000315     155026006003000181186GIFT-BAG 20x28cm MATT  0000001000+00001578+00000+0001T   00001578+0000001242          1400 AS5112               1BZ
155027000155027               155027               170213YA     1400+00000+YA0000001578+0000001578+000000000+000000221+0000001790+0000000009+I20000000000+0000001790+Z
155027001155027080-000124     155027006003000297733CARD & ENV VALENTINES  0000001000+00001578+00000+0001T   00001578+0000001248          1400 AS5112               1BZ
155028000155028               155028               170213YA     1400+00000+YA0000005295+0000005295+000000000+000000742+0000006030+0000000007+I20000000000+0000006030+Z
155028001155028018-005009     155028006001023725608MUG W/PLUSH-BEAR LOVE  0000001000+00003507+00000+0001T   00003507+0000001249          1400 AS5515               1BZ
155028002155028077-000299-A   155028006003000670888GIFT-BAG PAPER JMB LOVE0000001000+00001753+00000+0001T   00001753+0000001249          1400 AS5112               1BZ
155028003155028112-116038     155028006009681820246TCS CARRIER BAG MIDI   0000001000+00000035+00000+0001T   00000035+0000001249          1400 AS5090               1BZ
155029000155029               155029               170213YA     1400+00000+YA0000002630+0000002630+000000000+000000369+0000002990+0000000009+I20000000000+0000002990+Z
155029001155029903-000591     155029006003000563616SWEET ANIMAL 24cm      0000001000+00002630+00000+0001T   00002630+0000001305          1400 AS5150               1AZ
155030000155030               155030               170213YA     1400+00000+YA0000001927+0000001927+000000000+000000270+0000002190+0000000007+I20000000000+0000002190+Z
155030001155030077-000311     155030006001023608666GIFT-BAG 11X14CM GLOSS 0000001000+00000613+00000+0001T   00000613+0000001308          1400 AS5112               1AZ
155030002155030077-000310     155030006001023608635GIFT-BAG 18X23CM GLOSS 0000001000+00001314+00000+0001T   00001314+0000001308          1400 AS5112               1AZ
155031000155031               155031               170213YA     1400+00000+YA0000001490+0000001490+000000000+000000209+0000001690+0000000009+I20000000000+0000001690+Z
155031001155031077-000299     155031006003000395576G/BAG 32x25cm LRG LOVE 0000001000+00001490+00000+0001T   00001490+0000001412          1400 AS5112               1BZ
155032000155032               155032               170213YA     1400+00000+YA0000001753+0000001753+000000000+000000246+0000001990+0000000009+I20000000000+0000001990+Z
155032001155032071-001102     155032006003000274598MARKER PERM MED 2PCE   0000001000+00001753+00000+0001T   00001753+0000001513          1400 AS5130               1BZ
155033000155033               155033               170213YA     1400+00000+YA0000017542+0000017542+000000000+000002456+0000019998+0000000000+I40000019998+0000000000+Z
155033001155033079-000197     155033006003000155972ART+CRAFT ART SET 163PC0000001000+00017542+00000+0001T   00017542+0000001553          1400 AS5130               1BZ
155034000155034               155034               170213YA     1400+00000+YA0000004385+0000004385+000000000+000000614+0000004990+0000000009+I20000000000+0000004990+Z
155034001155034031-000868-D   155034006003000580330P/FRAME PL BLCK CERT.  0000001000+00004385+00000+0001T   00004385+0000001554          1400 AS5510               1BZ
155035000155035               155035               170213YA     1400+00000+YA0000010995+0000010995+000000000+000001540+0000012535+0000000000+I40000012535+0000000000+Z
155035001155035566-000352     155035006001023809261STICKERS LASER ASSTD   0000001000+00002192+00000+0001T   00002192+0000001608          1400 AS5130               1BZ
155035002155035566-000667     155035006003000658039STICKER FOIL EMBOSSED  0000002000+00002192+00000+0001T   00002192+0000001608          1400 AS5130               1BZ
155035003155035566-000359     155035006003000582709STICKER BOOK LOVE SPARK0000002000+00002192+00000+0001T   00002192+0000001608          1400 AS5130               1BZ
155035004155035112-116038     155035006009681820246TCS CARRIER BAG MIDI   0000001000+00000035+00000+0001T   00000035+0000001608          1400 AS5090               1BZ
155036000155036               155036               170213YA     1400+00000+YA0000004769+0000004769+000000000+000000668+0000005430+0000000007+I20000000000+0000005430+Z
155036001155036018-000127     155036006001023380289MUG OCC STRAIGHT LOVE  0000003000+00001578+00000+0001T   00001753+0006471621          1400 AS5515               1BZ
155036002155036112-116038     155036006009681820246TCS CARRIER BAG MIDI   0000001000+00000035+00000+0001T   00000035+0000001621          1400 AS5090               1BZ
155037000155037               155037               170213YA     1400+00000+YA0000007016-0000007016-000000000+000000983-0000008000-0000000001+I20000000000+0000008000-Z
155037001155037030-000038     155037006003000455706P/WALL CANVAS 20X20CM  0000001000-00007016+00000+0001T   00007016+0000001641          1400 AS55052IC            1 Z
155038000155038               155038               170213YA     1400+00000+YA0000011401+0000011401+000000000+000001597+0000012990+0000000008+I20000000000+0000012990+Z
155038001155038368-000614     155038006001023705808PLUSH LOVE 30cm        0000001000+00008771+00000+0001T   00008771+0000001814          1400 AS5745               1BZ
155038002155038077-000270     155038006003000395453GIFT-BAG PPR JMB 33X45 0000001000+00002630+00000+0001T   00002630+0000001814          1400 AS5112               1BZ
155039000155039               155039               170213YA     1400+00000+YA0000004559+0000004559+000000000+000000639+0000005190+0000000008+I20000000000+0000005190+Z
155039001155039077-000299     155039006003000395576G/BAG 32x25cm LRG LOVE 0000001000+00001490+00000+0001T   00001490+0000001817          1400 AS5112               1BZ
155039002155039031-086303-A   155039006003000322206P/FRM CHAMPAGNE 10X15CM0000001000+00003069+00000+0001T   00003069+0000001817          1400 AS5510               1BZ
M17021391                              CASH        YASLAVE 1                       Z-REPORT No.   638TOTAL (Sales - Refunds)           1321.60       CASH TO BE BANKED                  721.40       DEBIT CARDS                          0.00       CREDIT CARDS                       600.20       Z-READING                         1321.60       AIRTIME DEBIT CARD SALES             0.00       AIRTIME CARD SALES                   0.00       OVERS/UNDERS                         0.00       AIRTIME CASH SALES                   0.00       GIFT CARDS                           0.00       GIFT CARD CASH SALES                 0.00       T O T A L  CASH PAYOUTS              0.00                                                                                                                                                                                                                                                                                                                                                      Z
M17021392                              CASH        YAABSENT                                                                                                                                                                                          ANNUAL LEAVE                                                                                                                                                                                    DAY OFF                                                                                                                                                                                         COMMENTS                                                                                                                                                                                                                                                                                                                                                                                       Z
Y17021300                                          YA00000000123064+000024
ZYA17021320263 SLAVE 1      SALES DATA                     NEXT INVOICE NO.  155040 0638
X YA Slave 1 First invoice 155014 170213 Last invoice 155039 170213 Next invoice 155040 Total number of records 000000072 clbackup completed 20:26:18
