160728000160728               160728               170213YA     1400+00000+YA0000001753+0000001753+000000000+000000246+0000001990+0000000009+I20000000000+0000001990+Z
160728001160728077-000299-A   160728006003000670888GIFT-BAG PAPER JMB LOVE0000001000+00001753+00000+0001T   00001753+0000001019          1400 WY8112               2AZ
160729000160729               160729               170213YA     1400+00000+YA0000001226+0000001226+000000000+000000172+0000001390+0000000008+I20000000000+0000001390+Z
160729001160729007-000104     160729006009685854865BK COVER BRWN KRFT ROLL0000001000+00000350+00000+0001T   00000350+0000001020          1400 WY8130               2AZ
160729002160729077-000151     160729006008766114676GIFT-WRAP C/PHANE ASSTD0000001000+00000876+00000+0001T   00000876+0000001020          1400 WY8112               2AZ
160730000160730               160730               170213YA     1400+00000+YA0000009203+0000009203+000000000+000001291+0000010494+0000000000+I40000010494+0000000000+Z
160730001160730080-000133     160730006003000535613CARD&ENV MINI ASTD DSGN0000001000+00000437+00000+0001T   00000437+0000001031          1400 WY8112               2AZ
160730002160730204-083002     160730006008766083002M/HOLD BUTTERFLIES 4PCE0000002000+00001753+00000+0001T   00001753+0000001031          1400 WY8300               2AZ
160730003160730204-000300     160730006003000573141MEMO HOLDER SENTIMENT  0000001000+00001753+00000+0001T   00001753+0000001031          1400 WY8300               2AZ
160730004160730204-000030     160730006003000683536MEMO HOLDER SAYINGS    0000001000+00003507+00000+0001T   00003507+0000001031          1400 WY8300               2AZ
160731000160731               160731               170213YA     1400+00000+YA0000003555+0000003555+000000000+000000498+0000004053+0000000000+I40000004053+0000000000+Z
160731001160731464-009010     160731006001023800756FISHING-GAME MAG +ROD  0000001000+00003507+00000+0001T   00003507+0000001033          1400 WY8785               2AZ
160731002160731112-116069     160731006009681820277TCS CARRIER BAG JUMBO  0000001000+00000048+00000+0001T   00000048+0000001033          1400 WY8090               2AZ
160732000160732               160732               170213YA     1400+00000+YA0000006139+0000006139+000000000+000000860+0000006999+0000000000+I40000006999+0000000000+Z
160732001160732567-011424     160732006003000641468BK COLOURING THERAPY A40000001000+00006139+00000+0001T   00006139+0000001034          1400 WY8757               2AZ
160733000160733               160733               170213YA     1400+00000+YA0000012761+0000012761+000000000+000001788+0000014549+0000000000+I40000014549+0000000000+Z
160733001160733072-020266     160733006003000400591PET PUPPY TRAINING PAD 0000002000+00003507+00000+0001T   00003507+0000001036          1400 WY8870               2AZ
160733002160733072-020304     160733006001023602497PET DOG-CHEW STRING    0000001000+00002630+00000+0001T   00002630+0000001036          1400 WY8870               2AZ
160733003160733072-020315     160733006003000623891PET TOY PUPPY RING 3in10000001000+00003069+00000+0001T   00003069+0000001036          1400 WY8870               2AZ
160733004160733112-116069     160733006009681820277TCS CARRIER BAG JUMBO  0000001000+00000048+00000+0001T   00000048+0000001036          1400 WY8090               2AZ
160734000160734               160734               170213YA     1400+00000+YA0000003069+0000003069+000000000+000000430+0000003490+0000000009+I20000000000+0000003490+Z
160734001160734072-020314     160734006003000605453PET TOY PUP VINYL CHICK0000001000+00003069+00000+0001T   00003069+0000001059          1400 WY8870               2AZ
160735000160735               160735               170213YA     1400+00000+YA0000001928+0000001928+000000000+000000270+0000002190+0000000008+I20000000000+0000002190+Z
160735001160735174-008024     160735006009654960368TRAVEL BOTTLES 2-PACK  0000001000+00001928+00000+0001T   00001928+0000001111          1400 WY8205               2AZ
160736000160736               160736               170213YA     1400+00000+YA0000013140+0000013140+000000000+000001845+0000014980+0000000005+I20000000000+0000014980+Z
160736001160736046-001620-PK2 160736004897006178408BATTERY LITHIUM CR-16200000015000+00000876+00000+0001T   00000876+0000001112          1400 WY8312               2AZ
160737000160737               160737               170213YA     1400+00000+YA0000008540+0000008540+000000000+000001204+0000009744+0000000000+I40000009744+0000000000+Z
160737001160737566-002000     160737000721129013206STICKERS CRYSTAL ASSTD 0000001000+00000700+00000+0001T   00000700+0000001115          1400 WY8130               2AZ
160737002160737304-001204     160737006001023737984FLOWER OCC. TEDDY/ROSES0000002000+00001402+00000+0001T   00001490+0006471115          1400 WY8510               2AZ
160737003160737077-000270     160737006003000395453GIFT-BAG PPR JMB 33X45 0000001000+00002630+00000+0001T   00002630+0000001115          1400 WY8112               2AZ
160737004160737112-116069     160737006009681820277TCS CARRIER BAG JUMBO  0000001000+00000048+00000+0001T   00000048+0000001115          1400 WY8090               2AZ
160737005160737903-000183     160737006003000451043SWT LB HEART LOLLY     0000006000+00000393+00000+0001T   00000393+0000001115          1400 WY8150               2AZ
160738000160738               160738               170213YA     1400+00000+YA0000001139+0000001139+000000000+000000160+0000001290+0000000009+I20000000000+0000001290+Z
160738001160738046-000014     160738006001023725387BATTERIES SIZE:AAA 4PCE0000001000+00001139+00000+0001T   00001139+0000001209          1400 WY8312               2AZ
160739000160739               160739               170213YA     1400+00000+YA0000026709+0000026709+000000000+000003740+0000030449+0000000000+I40000030449+0000000000+Z
160739001160739467-000040     160739006003000469147B/WAGON 34x26x18cm ASST0000001000+00017542+00000+0001T   00017542+0000001225          1400 WY8785               2AZ
160739002160739159-006347     160739006001023713193HOOKS SET-2 ASSTD BOX  0000001000+00003507+00000+0001T   00003507+0000001225          1400 WY8200               2AZ
160739003160739365-004002     160739006001023657992KITCHEN-SET ACCESSORIES0000001000+00004385+00000+0001T   00004385+0000001225          1400 WY8725               2AZ
160739004160739903-000517     160739006001704012768SWT STRAWS FIZZY CHERRY0000001000+00001227+00000+0001T   00001227+0000001225          1400 WY8150               2AZ
160739005160739112-116069     160739006009681820277TCS CARRIER BAG JUMBO  0000001000+00000048+00000+0001T   00000048+0000001225          1400 WY8090               2AZ
160740000160740               160740               170213YA     1400+00000+YA0000002225+0000002225+000000000+000000313+0000002538+0000000000+I40000002538+0000000000+Z
160740001160740080-000133     160740006003000535613CARD&ENV MINI ASTD DSGN0000001000+00000437+00000+0001T   00000437+0000001228          1400 WY8112               2AZ
160740002160740204-000001     160740006003000575558M/HOLD BOTTLE OPENER   0000001000+00001753+00000+0001T   00001753+0000001228          1400 WY8300               2AZ
160740003160740112-116038     160740006009681820246TCS CARRIER BAG MIDI   0000001000+00000035+00000+0001T   00000035+0000001228          1400 WY8090               2AZ
160741000160741               160741               170213YA     1400+00000+YA0000003507+0000003507+000000000+000000491+0000003998+0000000000+I40000003998+0000000000+Z
160741001160741018-000136     160741006001023659026MUG OCC LOVE W/PLUSH   0000001000+00003507+00000+0001T   00003507+0000001232          1400 WY8515               2AZ
160742000160742               160742               170213YA     1400+00000+YA0000003506+0000003506+000000000+000000492+0000003990+0000000008+I20000000000+0000003990+Z
160742001160742007-000050     160742006001023528285DISPLAY-ENVELOPE A4    0000002000+00001753+00000+0001T   00001753+0000001238          1400 WY8130               2AZ
160743000160743               160743               170213YA     1400+00000+YA0000017542+0000017542+000000000+000002456+0000019998+0000000000+I40000019998+0000000000+Z
160743001160743002-010403     160743006001023203854JAFFLE-IRON ALUM. H/HOU0000001000+00017542+00000+0001T   00017542+0000001239          1400 WY8300               2AZ
160744000160744               160744               170213YA     1400+00000+YA0000002192+0000002192+000000000+000000307+0000002490+0000000009+I20000000000+0000002490+Z
160744001160744566-000359     160744006003000582709STICKER BOOK LOVE SPARK0000001000+00002192+00000+0001T   00002192+0000001311          1400 WY8130               2AZ
160745000160745               160745               170213YA     1400+00000+YA0000001753+0000001753+000000000+000000246+0000001999+0000000000+I40000001999+0000000000+Z
160745001160745077-000308     160745006001023595812GIFT-BAG 33X45CM E/DAY 0000001000+00001753+00000+0001T   00001753+0000001313          1400 WY8112               2AZ
160746000160746               160746               170213YA     1400+00000+YA0000007489+0000007489+000000000+000001049+0000008530+0000000008+I20000000000+0000008530+Z
160746001160746079-013098     160746006003000197040ART+CRAFT SET DIY      0000001000+00003069+00000+0001T   00003069+0000001317          1400 WY8130               2AZ
160746002160746162-092947     160746006001492929477#TAG KIDS 2PK ALICEBAND0000001000+00004385+00000+0001T   00004385+0000001317          1400 WY8160               2AZ
160746003160746112-116038     160746006009681820246TCS CARRIER BAG MIDI   0000001000+00000035+00000+0001T   00000035+0000001317          1400 WY8090               2AZ
160747000160747               160747               170213YA     1400+00000+YA0000015834+0000015834+000000000+000002218+0000018050+0000000002+I20000000000+0000018050+Z
160747001160747304-001115     160747006001023738240FLOWER-BUNCH CARNATIONS0000002000+00005262+00000+0001T   00005262+0000001320          1400 WY8510               2AZ
160747002160747304-001116     160747006003000426164F/BUNCH ROSES 12-HEAD  0000001000+00005262+00000+0001T   00005262+0000001320          1400 WY8510               2AZ
160747003160747112-116069     160747006009681820277TCS CARRIER BAG JUMBO  0000001000+00000048+00000+0001T   00000048+0000001320          1400 WY8090               2AZ
160748000160748               160748               170213YA     1400+00000+YA0000001753+0000001753+000000000+000000246+0000001999+0000000000+I40000001999+0000000000+Z
160748001160748046-002032-PK2 160748004897006175063BATTERIES CR-2032  2PCE0000001000+00001753+00000+0001T   00001753+0000001337          1400 WY8312               2AZ
160749000160749               160749               170213YA     1400+00000+YA0000011433+0000011433+000000000+000001603+0000013036+0000000000+I40000013036+0000000000+Z
160749001160749072-020314     160749006003000605453PET TOY PUP VINYL CHICK0000001000+00003069+00000+0001T   00003069+0000001338          1400 WY8870               2AZ
160749002160749072-020315     160749006003000623891PET TOY PUPPY RING 3in10000001000+00003069+00000+0001T   00003069+0000001338          1400 WY8870               2AZ
160749003160749072-020312     160749006003000605330PET TOY PUP STARTER PCK0000001000+00002630+00000+0001T   00002630+0000001338          1400 WY8870               2AZ
160749004160749072-020304     160749006001023602497PET DOG-CHEW STRING    0000001000+00002630+00000+0001T   00002630+0000001338          1400 WY8870               2AZ
160749005160749112-116038     160749006009681820246TCS CARRIER BAG MIDI   0000001000+00000035+00000+0001T   00000035+0000001338          1400 WY8090               2AZ
160750000160750               160750               170213YA     1400+00000+YA0000006257+0000006257+000000000+000000878+0000007135+0000000000+I40000007135+0000000000+Z
160750001160750072-000234     160750006003000691487DOG-COLLAR REFLECTIVE  0000001000+00002192+00000+0001T   00002192+0000001341          1400 WY8870               2AZ
160750002160750903-000087     160750006001704000161SWT SPECKLED-EGGS 50G  0000002000+00001139+00000+0001T   00001139+0000001341          1400 WY8150               2AZ
160750003160750903-000221     160750006001704007382SWT EENY-MEENY-MOS 60G 0000001000+00000876+00000+0001T   00000876+0000001341          1400 WY8150               2AZ
160750004160750903-000297     160750006001704002950SWT MS WILD BERRY 50G  0000001000+00000876+00000+0001T   00000876+0000001341          1400 WY8150               2AZ
160750005160750112-116038     160750006009681820246TCS CARRIER BAG MIDI   0000001000+00000035+00000+0001T   00000035+0000001341          1400 WY8090               2AZ
160751000160751               160751               170213YA     1400+00000+YA0000004385+0000004385+000000000+000000614+0000004990+0000000009+I20000000000+0000004990+Z
160751001160751082-007586     160751006003000654291SUNGLASS DESIGNER ASST 0000001000+00004385+00000+0001T   00004385+0000001343          1400 WY8160               2AZ
160752000160752               160752               170213YA     1400+00000+YA0000002630+0000002630+000000000+000000369+0000002990+0000000009+I20000000000+0000002990+Z
160752001160752079-013032-D   160752006003000389643RIBBONS                0000001000+00002630+00000+0001T   00002630+0000001348          1400 WY8130               2AZ
160753000160753               160753               170213YA     1400+00000+YA0000002715+0000002715+000000000+000000381+0000003090+0000000006+I20000000000+0000003090+Z
160753001160753903-000297     160753006001704002950SWT MS WILD BERRY 50G  0000001000+00000876+00000+0001T   00000876+0000001349          1400 WY8150               2AZ
160753002160753903-000087     160753006001704000161SWT SPECKLED-EGGS 50G  0000001000+00001139+00000+0001T   00001139+0000001349          1400 WY8150               2AZ
160753003160753903-000126     160753006002099003591SWT ZILLIONS MINT 50G  0000001000+00000700+00000+0001T   00000700+0000001349          1400 WY8150               2AZ
160754000160754               160754               170213YA     1400+00000+YA0000003507+0000003507+000000000+000000491+0000003990+0000000008+I20000000000+0000003990+Z
160754001160754018-000136     160754006001023659026MUG OCC LOVE W/PLUSH   0000001000+00003507+00000+0001T   00003507+0000001354          1400 WY8515               2AZ
160755000160755               160755               170213YA     1400+00000+YA0000004296+0000004296+000000000+000000602+0000004890+0000000008+I20000000000+0000004890+Z
160755001160755159-000887     160755006001023730817HOOKS PL SUCTION 9PCE  0000001000+00002192+00000+0001T   00002192+0000001358          1400 WY8200               2AZ
160755002160755903-000095     160755006001704011495SWT SPECKLED-EGGS 100G 0000001000+00002104+00000+0001T   00002104+0000001358          1400 WY8150               2AZ
160756000160756               160756               170213YA     1400+00000+YA0000001753+0000001753+000000000+000000246+0000001990+0000000009+I20000000000+0000001990+Z
160756001160756466-000200     160756006001023621665HULA-HOOP     ASSTD    0000001000+00001753+00000+0001T   00001753+0000001359          1400 WY8785               2AZ
160757000160757               160757               170213YA     1400+00000+YA0000000876+0000000876+000000000+000000123+0000000990+0000000009+I20000000000+0000000990+Z
160757001160757077-000011-F   160757006001023808431TISSUE-WRAP BLUE/LILAC 0000001000+00000876+00000+0001T   00000876+0000001400          1400 WY8112               2AZ
160758000160758               160758               170213YA     1400+00000+YA0000000830+0000000830+000000000+000000118+0000000940+0000000008+I20000000000+0000000940+Z
160758001160758080-000133     160758006003000535613CARD&ENV MINI ASTD DSGN0000001000+00000437+00000+0001T   00000437+0000001402          1400 WY8112               2AZ
160758002160758903-000183     160758006003000451043SWT LB HEART LOLLY     0000001000+00000393+00000+0001T   00000393+0000001402          1400 WY8150               2AZ
160759000160759               160759               170213YA     1400+00000+YA0000008806+0000008806+000000000+000001233+0000010039+0000000000+I40000010039+0000000000+Z
160759001160759039-000799     160759006001023692382CANDLES TEALITE 100PCE 0000001000+00008771+00000+0001T   00008771+0000001406          1400 WY8510               2AZ
160759002160759112-116038     160759006009681820246TCS CARRIER BAG MIDI   0000001000+00000035+00000+0001T   00000035+0000001406          1400 WY8090               2AZ
160760000160760               160760               170213YA     1400+00000+YA0000002630+0000002630+000000000+000000369+0000002990+0000000009+I20000000000+0000002990+Z
160760001160760497-069613     160760000078257696130HAND-PUMP PL DBL-QUICK 0000001000+00002630+00000+0001T   00002630+0000001407          1400 WY8787               2AZ
160761000160761               160761               170213YA     1400+00000+YA0000006185+0000006185+000000000+000000867+0000007050+0000000002+I20000000000+0000007050+Z
160761001160761103-000090     160761006001023795786WOVEN HEART SHAPED     0000001000+00003507+00000+0001T   00003507+0000001409          1400 WY8300               2AZ
160761002160761019-000404     160761006001023845955PLANTER STONE 17X14X13M0000001000+00002630+00000+0001T   00003069+0008171409          1400 WY8510               2AZ
160761003160761112-116069     160761006009681820277TCS CARRIER BAG JUMBO  0000001000+00000048+00000+0001T   00000048+0000001409          1400 WY8090               2AZ
160762000160762               160762               170213YA     1400+00000+YA0000001753+0000001753+000000000+000000246+0000001990+0000000009+I20000000000+0000001990+Z
160762001160762007-000205     160762006002324000432FILE BINDER 2-RING A4  0000001000+00001753+00000+0001T   00001753+0000001422          1400 WY8130               2AZ
160763000160763               160763               170213YA     1400+00000+YA0000020656+0000020656+000000000+000002894+0000023550+0000000000+I20000000000+0000023550+Z
160763001160763089-060027     160763006003000245871KEY-CHAIN HEART 6X6cm  0000001000+00003069+00000+0001T   00003069+0000001429          1400 WY8205               2AZ
160763002160763301-085004     160763006003000420469ORN LOVE PLAQUE 21X10CM0000001000+00003507+00000+0001T   00003946+0006471429          1400 WY8505               2AZ
160763003160763368-000113     160763006001023780874PLUSH BLINGED LOVE 30cm0000001000+00012279+00000+0001T   00012279+0000001429          1400 WY8745               2AZ
160763004160763077-000299-A   160763006003000670888GIFT-BAG PAPER JMB LOVE0000001000+00001753+00000+0001T   00001753+0000001429          1400 WY8112               2AZ
160763005160763112-116069     160763006009681820277TCS CARRIER BAG JUMBO  0000001000+00000048+00000+0001T   00000048+0000001429          1400 WY8090               2AZ
160764000160764               160764               170213YA     1400+00000+YA0000006138+0000006138+000000000+000000860+0000006998+0000000000+I40000006998+0000000000+Z
160764001160764174-008026     160764006009654960429TRAVEL BOTTLES 2-PACK  0000001000+00003069+00000+0001T   00003069+0000001432          1400 WY8205               2AZ
160764002160764072-000014     160764006003000451845PET DOG/CAT BRUSH 20cm 0000001000+00003069+00000+0001T   00003069+0000001432          1400 WY8870               2AZ
160765000160765               160765               170213YA     1400+00000+YA0000001578+0000001578+000000000+000000221+0000001790+0000000009+I20000000000+0000001790+Z
160765001160765077-000303     160765006001023593757GIFT-BAG PAPER MED     0000001000+00001578+00000+0001T   00001578+0000001436          1400 WY8112               2AZ
160766000160766               160766               170213YA     1400+00000+YA0000005260+0000005260+000000000+000000738+0000005998+0000000000+I40000005998+0000000000+Z
160766001160766079-000260     160766006001023886385PAINT TUBS WT BASE 4COL0000001000+00002630+00000+0001T   00002630+0000001438          1400 WY8130               2AZ
160766002160766566-000203     160766006003000443925STCKRS VELVET PUFFY ASS0000001000+00002630+00000+0001T   00002630+0000001438          1400 WY8130               2AZ
160767000160767               160767               170213YA     1400+00000+YA0000001753+0000001753+000000000+000000246+0000001990+0000000009+I20000000000+0000001990+Z
160767001160767002-086259     160767006001023722232TOOTHPICK-HOLDER 2-ASST0000001000+00001753+00000+0001T   00001753+0000001439          1400 WY8300               2AZ
160768000160768               160768               170213YA     1400+00000+YA0000008375+0000008375+000000000+000001175+0000009550+0000000000+I20000000000+0000009550+Z
160768001160768006-000166-C   160768006003000516377BALLOONS LRG 6PC PINK  0000001000+00001314+00000+0001T   00001314+0000001447          1400 WY8131               2AZ
160768002160768006-006013     160768006001023735195PARTY-SPRAY STRING     0000002000+00002630+00000+0001T   00002630+0000001447          1400 WY8131               2AZ
160768003160768150-012228-H   160768006001023416773DOOR-STOPPERS SET-OF-2 0000001000+00001753+00000+0001T   00001753+0000001447          1400 WY8810               2AZ
160768004160768112-116069     160768006009681820277TCS CARRIER BAG JUMBO  0000001000+00000048+00000+0001T   00000048+0000001447          1400 WY8090               2AZ
160769000160769               160769               170213YA     1400+00000+YA0000003507+0000003507+000000000+000000491+0000003990+0000000008+I20000000000+0000003990+Z
160769001160769018-000136     160769006001023659026MUG OCC LOVE W/PLUSH   0000001000+00003507+00000+0001T   00003507+0000001451          1400 WY8515               2AZ
160770000160770               160770               170213YA     1400+00000+YA0000024560+0000024560+000000000+000003439+0000027999+0000000000+I40000027999+0000000000+Z
160770001160770486-010000     160770006003000283248C/WALL QTZ PL ANTIQUE  0000001000+00024560+00000+0001T   00024560+0000001459          1400 WY8510               2AZ
160771000160771               160771               170213YA     1400+00000+YA0000000918+0000000918+000000000+000000129+0000001040+0000000007+I20000000000+0000001040+Z
160771001160771079-009700-G   160771006003000545957PAPER SIRIO A4 LIME COL0000001000+00000306+00000+0001T   00000306+0000001504          1400 WY8130               2AZ
160771002160771079-009700-F   160771006003000545872PAPER SIRIO A4 TURQ COL0000001000+00000306+00000+0001T   00000306+0000001504          1400 WY8130               2AZ
160771003160771079-009700-D   160771006003000545711PAPER SIRIO A4 RED COL.0000001000+00000306+00000+0001T   00000306+0000001504          1400 WY8130               2AZ
160772000160772               160772               170213YA     1400+00000+YA0000007013+0000007013+000000000+000000984+0000007990+0000000007+I20000000000+0000007990+Z
160772001160772077-000324     160772006001023677594GIFT-BAG 33X45CM E/D FL0000001000+00001753+00000+0001T   00001753+0000001516          1400 WY8112               2AZ
160772002160772369-001138-D   160772006003000097623BABY BATH VINYL THEMED 0000001000+00002630+00000+0001T   00002630+0000001516          1400 WY8745               2AZ
160772003160772004-071207     160772006003000648917USB CABLE CHARGER FLAT 0000001000+00002630+00000+0001T   00002630+0000001516          1400 WY8310               2AZ
160773000160773               160773               170213YA     1400+00000+YA0000002630+0000002630+000000000+000000369+0000002990+0000000009+I20000000000+0000002990+Z
160773001160773077-000270     160773006003000395453GIFT-BAG PPR JMB 33X45 0000001000+00002630+00000+0001T   00002630+0000001520          1400 WY8112               2AZ
160774000160774               160774               170213YA     1400+00000+YA0000030010+0000030010+000000000+000004212+0000034222+0000000000+I40000034222+0000000000+Z
160774001160774089-000019     160774006003000092291K/CHAIN MINI BOOT 13cm 0000003000+00001753+00000+0001T   00001753+0000001527          1400 WY8205               2AZ
160774002160774301-000013     160774006001023781604ORN SENTIMENT STONE 4-A0000001000+00006139+00000+0001T   00006139+0000001527          1400 WY8505               2AZ
160774003160774204-000003     160774006003000593583MEMO HOLDERS POLY 4ASST0000001000+00003507+00000+0001T   00003507+0000001527          1400 WY8300               2AZ
160774004160774301-000013     160774006001023781604ORN SENTIMENT STONE 4-A0000001000+00006139+00000+0001T   00006139+0000001527          1400 WY8505               2AZ
160774005160774903-002892     160774008935001721338MENTOS JUICEBLAST BERRY0000001000+00001051+00000+0001T   00001051+0000001527          1400 WY8150               2AZ
160774006160774903-000891     160774006009702258997SWT GUM BEECHIES MUSK  0000010000+00000788+00000+0001T   00000788+0000001527          1400 WY8150               2AZ
160774007160774112-116038     160774006009681820246TCS CARRIER BAG MIDI   0000001000+00000035+00000+0001T   00000035+0000001527          1400 WY8090               2AZ
160775000160775               160775               170213YA     1400+00000+YA0000001578+0000001578+000000000+000000221+0000001790+0000000009+I20000000000+0000001790+Z
160775001160775080-000124     160775006003000297733CARD & ENV VALENTINES  0000001000+00001578+00000+0001T   00001578+0000001535          1400 WY8112               2AZ
160776000160776               160776               170213YA     1400+00000+YA0000001227+0000001227+000000000+000000172+0000001390+0000000009+I20000000000+0000001390+Z
160776001160776077-000245     160776006001023759214GIFT-RIBBON METALLICx2 0000001000+00001227+00000+0001T   00001227+0000001539          1400 WY8112               2AZ
160777000160777               160777               170213YA     1400+00000+YA0000013148+0000013148+000000000+000001844+0000014992+0000000000+I40000014992+0000000000+Z
160777001160777006-000324     160777006001023818393PARTY POPPER`S PCK-OF-60000001000+00001753+00000+0001T   00001753+0000001548          1400 WY8131               2AZ
160777002160777007-000323     160777006009697791042PAPER A4 80GSM 100'S   0000001000+00006139+00000+0001T   00006139+0000001548          1400 WY8130               2AZ
160777003160777903-000861     160777005010478430822SWT LOVE HEARTS SML    0000006000+00000876+00000+0001T   00000876+0000001548          1400 WY8150               2AZ
160778000160778               160778               170213YA     1400+00000+YA0000002630+0000002630+000000000+000000369+0000002990+0000000009+I20000000000+0000002990+Z
160778001160778077-000235     160778006003000160211GIFT-RIBBON ROLL METALC0000001000+00002630+00000+0001T   00002630+0000001554          1400 WY8112               2AZ
160779000160779               160779               170213YA     1400+00000+YA0000002630+0000002630+000000000+000000369+0000002999+0000000000+I40000002999+0000000000+Z
160779001160779266-003012     160779006001023786128BOYS P/SET ARCHERY 4pc 0000001000+00002630+00000+0001T   00002630+0000001559          1400 WY8710               2AZ
160780000160780               160780               170213YA     1400+00000+YA0000004385+0000004385+000000000+000000614+0000004990+0000000009+I20000000000+0000004990+Z
160780001160780082-007586     160780006003000654291SUNGLASS DESIGNER ASST 0000001000+00004385+00000+0001T   00004385+0000001600          1400 WY8160               2AZ
160781000160781               160781               170213YA     1400+00000+YA0000001314+0000001314+000000000+000000184+0000001490+0000000008+I20000000000+0000001490+Z
160781001160781077-000310     160781006001023608635GIFT-BAG 18X23CM GLOSS 0000001000+00001314+00000+0001T   00001314+0000001600          1400 WY8112               2AZ
160782000160782               160782               170213YA     1400+00000+YA0000004716+0000004716+000000000+000000672+0000005380+0000000008+I20000000000+0000005380+Z
160782001160782903-000183     160782006003000451043SWT LB HEART LOLLY     0000012000+00000393+00000+0001T   00000393+0000001605          1400 WY8150               2AZ
160783000160783               160783               170213YA     1400+00000+YA0000001139+0000001139+000000000+000000160+0000001290+0000000009+I20000000000+0000001290+Z
160783001160783903-000087     160783006001704000161SWT SPECKLED-EGGS 50G  0000001000+00001139+00000+0001T   00001139+0000001614          1400 WY8150               2AZ
160784000160784               160784               170213YA     1400+00000+YA0000010558+0000010558+000000000+000001479+0000012037+0000000000+I40000012037+0000000000+Z
160784001160784018-005009     160784006001023725608MUG W/PLUSH-BEAR LOVE  0000001000+00003507+00000+0001T   00003507+0000001619          1400 WY8515               2AZ
160784002160784030-000038     160784006003000455706P/WALL CANVAS 20X20CM  0000001000+00007016+00000+0001T   00007016+0000001619          1400 WY8505               2AZ
160784003160784112-116038     160784006009681820246TCS CARRIER BAG MIDI   0000001000+00000035+00000+0001T   00000035+0000001619          1400 WY8090               2AZ
160785000160785               160785               170213YA     1400+00000+YA0000003507+0000003507+000000000+000000491+0000003998+0000000000+I40000003998+0000000000+Z
160785001160785018-005009     160785006001023725608MUG W/PLUSH-BEAR LOVE  0000001000+00003507+00000+0001T   00003507+0000001620          1400 WY8515               2AZ
160786000160786               160786               170213YA     1400+00000+YA0000003507+0000003507+000000000+000000491+0000003990+0000000008+I20000000000+0000003990+Z
160786001160786018-005009     160786006001023725608MUG W/PLUSH-BEAR LOVE  0000001000+00003507+00000+0001T   00003507+0000001622          1400 WY8515               2AZ
160787000160787               160787               170213YA     1400+00000+YA0000003068+0000003068+000000000+000000430+0000003490+0000000008+I20000000000+0000003490+Z
160787001160787080-000127     160787006003000424351VALENTINES DAY 36x24CM 0000001000+00002192+00000+0001T   00002192+0000001623          1400 WY8112               2AZ
160787002160787077-000011-L   160787006001023808585P/TISSUE BRIGHT 10SHEET0000001000+00000876+00000+0001T   00000876+0000001623          1400 WY8112               2AZ
160788000160788               160788               170213YA     1400+00000+YA0000002630+0000002630+000000000+000000369+0000002990+0000000009+I20000000000+0000002990+Z
160788001160788077-000270     160788006003000395453GIFT-BAG PPR JMB 33X45 0000001000+00002630+00000+0001T   00002630+0000001626          1400 WY8112               2AZ
160789000160789               160789               170213YA     1400+00000+YA0000008712+0000008712+000000000+000001223+0000009935+0000000000+I40000009935+0000000000+Z
160789001160789006-006018-B   160789006003000008278PARTY-SPRAY HAIR NEON  0000002000+00002630+00000+0001T   00002630+0000001632          1400 WY8131               2AZ
160789002160789903-000087     160789006001704000161SWT SPECKLED-EGGS 50G  0000003000+00001139+00000+0001T   00001139+0000001632          1400 WY8150               2AZ
160789003160789112-116038     160789006009681820246TCS CARRIER BAG MIDI   0000001000+00000035+00000+0001T   00000035+0000001632          1400 WY8090               2AZ
160790000160790               160790               170213YA     1400+00000+YA0000001927+0000001927+000000000+000000270+0000002190+0000000007+I20000000000+0000002190+Z
160790001160790077-000310     160790006001023608635GIFT-BAG 18X23CM GLOSS 0000001000+00001314+00000+0001T   00001314+0000001633          1400 WY8112               2AZ
160790002160790077-000317     160790006001023609748GIFT-BAG 11X14CM E/D AN0000001000+00000613+00000+0001T   00000613+0000001633          1400 WY8112               2AZ
160791000160791               160791               170213YA     1400+00000+YA0000001788+0000001788+000000000+000000251+0000002030+0000000009+I20000000000+0000002030+Z
160791001160791301-085006     160791006001023502940ORN LOVE MSG TUBE W/HRT0000001000+00001753+00000+0001T   00001753+0000001636          1400 WY8505               2AZ
160791002160791112-116038     160791006009681820246TCS CARRIER BAG MIDI   0000001000+00000035+00000+0001T   00000035+0000001636          1400 WY8090               2AZ
160792000160792               160792               170213YA     1400+00000+YA0000001613+0000001613+000000000+000000226+0000001830+0000000009+I20000000000+0000001830+Z
160792001160792077-000303     160792006001023593757GIFT-BAG PAPER MED     0000001000+00001578+00000+0001T   00001578+0000001653          1400 WY8112               2AZ
160792002160792112-116038     160792006009681820246TCS CARRIER BAG MIDI   0000001000+00000035+00000+0001T   00000035+0000001653          1400 WY8090               2AZ
160793000160793               160793               170213YA     1400+00000+YA0000001753+0000001753+000000000+000000246+0000001990+0000000009+I20000000000+0000001990+Z
160793001160793077-000309     160793006001023608604GIFT-BAG 25X32CM GLOSS 0000001000+00001753+00000+0001T   00001753+0000001654          1400 WY8112               2AZ
160794000160794               160794               170213YA     1400+00000+YA0000001753+0000001753+000000000+000000246+0000001990+0000000009+I20000000000+0000001990+Z
160794001160794077-000240     160794006003000326259G/RIBBON 4PC PEARLIZED 0000001000+00001753+00000+0001T   00001753+0000001656          1400 WY8112               2AZ
160795000160795               160795               170213YA     1400+00000+YA0000000700+0000000700+000000000+000000098+0000000790+0000000008+I20000000000+0000000790+Z
160795001160795464-000121     160795006003000640492PLAYING CARDS MINI     0000001000+00000700+00000+0001T   00000700+0000001700          1400 WY8785               2AZ
160796000160796               160796               170213YA     1400+00000+YA0000001578+0000001578+000000000+000000221+0000001790+0000000009+I20000000000+0000001790+Z
160796001160796077-000315     160796006003000181186GIFT-BAG 20x28cm MATT  0000001000+00001578+00000+0001T   00001578+0000001701          1400 WY8112               2AZ
160797000160797               160797               170213YA     1400+00000+YA0000006174+0000006174+000000000+000000865+0000007030+0000000009+I20000000000+0000007030+Z
160797001160797018-050000     160797006003000412679MUG OCC LOVE TWIN BEAR 0000001000+00006139+00000+0001T   00006139+0000001706          1400 WY8515               2AZ
160797002160797112-116038     160797006009681820246TCS CARRIER BAG MIDI   0000001000+00000035+00000+0001T   00000035+0000001706          1400 WY8090               2AZ
160798000160798               160798               170213YA     1400+00000+YA0000001006+0000001006+000000000+000000141+0000001140+0000000007+I20000000000+0000001140+Z
160798001160798566-002000     160798000721129013206STICKERS CRYSTAL ASSTD 0000001000+00000700+00000+0001T   00000700+0000001712          1400 WY8130               2AZ
160798002160798079-009700-D   160798006003000545711PAPER SIRIO A4 RED COL.0000001000+00000306+00000+0001T   00000306+0000001712          1400 WY8130               2AZ
160799000160799               160799               170213YA     1400+00000+YA0000001490+0000001490+000000000+000000209+0000001690+0000000009+I20000000000+0000001690+Z
160799001160799077-000299     160799006003000395576G/BAG 32x25cm LRG LOVE 0000001000+00001490+00000+0001T   00001490+0000001713          1400 WY8112               2AZ
160800000160800               160800               170213YA     1400+00000+YA0000001753+0000001753+000000000+000000246+0000001990+0000000009+I20000000000+0000001990+Z
160800001160800077-000357     160800006003000139354GIFT-BAG 18X23CM B/DAY 0000001000+00001753+00000+0001T   00001753+0000001715          1400 WY8112               2AZ
160801000160801               160801               170213YA     1400+00000+YA0000004606+0000004606+000000000+000000646+0000005252+0000000000+I40000005252+0000000000+Z
160801001160801079-009702-D   160801008427973059354PAPER SIRIO A2 RED COL 0000001000+00001051+00000+0001T   00001051+0000001736          1400 WY8130               2AZ
160801002160801262-000020     160801006003000644780DIE CAST SINGLE CAR    0000001000+00003507+00000+0001T   00003507+0000001736          1400 WY8710               2AZ
160801003160801112-116069     160801006009681820277TCS CARRIER BAG JUMBO  0000001000+00000048+00000+0001T   00000048+0000001736          1400 WY8090               2AZ
160802000160802               160802               170213YA     1400+00000+YA0000001753+0000001753+000000000+000000246+0000001999+0000000000+I40000001999+0000000000+Z
160802001160802077-000316     160802006001023609731GIFT-BAG 25X32CM MATT  0000001000+00001753+00000+0001T   00001753+0000001738          1400 WY8112               2AZ
160803000160803               160803               170213YA     1400+00000+YA0000000035+0000000035+000000000+000000005+0000000040+0000000000+I20000000000+0000000040+Z
160803001160803112-116038     160803006009681820246TCS CARRIER BAG MIDI   0000001000+00000035+00000+0001T   00000035+0000001739          1400 WY8090               2AZ
160804000160804               160804               170213YA     1400+00000+YA0000003507+0000003507+000000000+000000491+0000003990+0000000008+I20000000000+0000003990+Z
160804001160804018-005009     160804006001023725608MUG W/PLUSH-BEAR LOVE  0000001000+00003507+00000+0001T   00003507+0000001739          1400 WY8515               2AZ
160805000160805               160805               170213YA     1400+00000+YA0000005260+0000005260+000000000+000000738+0000005990+0000000008+I20000000000+0000005990+Z
160805001160805206-000620     160805006003000631797BACK SCRATCHER EXTEND  0000002000+00002630+00000+0001T   00002630+0000001740          1400 WY8321               2AZ
160806000160806               160806               170213YA     1400+00000+YA0000001753+0000001753+000000000+000000246+0000001990+0000000009+I20000000000+0000001990+Z
160806001160806565-000055     160806006003000028252NOVELTY B/O FINGR-BEAMS0000001000+00001753+00000+0001T   00001753+0000001744          1400 WY8745               2AZ
160807000160807               160807               170213YA     1400+00000+YA0000007541+0000007541+000000000+000001057+0000008590+0000000008+I20000000000+0000008590+Z
160807001160807304-001204     160807006001023737984FLOWER OCC. TEDDY/ROSES0000001000+00001402+00000+0001T   00001490+0006471745          1400 WY8510               2AZ
160807002160807018-050000     160807006003000412679MUG OCC LOVE TWIN BEAR 0000001000+00006139+00000+0001T   00006139+0000001745          1400 WY8515               2AZ
160808000160808               160808               170213YA     1400+00000+YA0000011444+0000011444+000000000+000001604+0000013040+0000000008+I20000000000+0000013040+Z
160808001160808266-003012     160808006001023786128BOYS P/SET ARCHERY 4pc 0000001000+00002630+00000+0001T   00002630+0000001747          1400 WY8710               2AZ
160808002160808366-000356     160808006003000006908DRESS UP WINGS FAIRY   0000001000+00004385+00000+0001T   00004385+0000001747          1400 WY8131               2AZ
160808003160808112-116069     160808006009681820277TCS CARRIER BAG JUMBO  0000001000+00000048+00000+0001T   00000048+0000001747          1400 WY8090               2AZ
160808004160808903-000926     160808006914204004556SWT NOVELTY ST N/LACE  0000001000+00001753+00000+0001T   00001753+0000001747          1400 WY8150               2AZ
160808005160808903-000194     160808006009826020616SWT CHOC RP LOLLY 25G  0000002000+00001314+00000+0001T   00001314+0000001747          1400 WY8150               2AZ
160809000160809               160809               170213YA     1400+00000+YA0000005310+0000005310+000000000+000000744+0000006054+0000000000+I40000006054+0000000000+Z
160809001160809263-000145     160809006001023708298MOTORBIKE PL           0000001000+00005262+00000+0001T   00005262+0000001753          1400 WY8710               2AZ
160809002160809112-116069     160809006009681820277TCS CARRIER BAG JUMBO  0000001000+00000048+00000+0001T   00000048+0000001753          1400 WY8090               2AZ
160810000160810               160810               170213YA     1400+00000+YA0000005699+0000005699+000000000+000000799+0000006498+0000000000+I40000006498+0000000000+Z
160810001160810080-000109     160810006003000237203CARD&ENVLPE BDAY-BRIGHT0000001000+00001753+00000+0001T   00001753+0000001755          1400 WY8112               2AZ
160810002160810077-000376-A   160810006003000669059GIFT-BAG 2-PACK JMB    0000001000+00003946+00000+0001T   00003946+0000001755          1400 WY8112               2AZ
160811000160811               160811               170213YA     1400+00000+YA0000001227+0000001227+000000000+000000172+0000001390+0000000009+I20000000000+0000001390+Z
160811001160811077-000319     160811006001023609779GIFT-BAG 18X23CM BIRTHD0000001000+00001227+00000+0001T   00001227+0000001755          1400 WY8112               2AZ
160812000160812               160812               170213YA     1400+00000+YA0000010995+0000010995+000000000+000001541+0000012536+0000000000+I40000012536+0000000000+Z
160812001160812071-001102     160812006003000274598MARKER PERM MED 2PCE   0000001000+00001753+00000+0001T   00001753+0000001759          1400 WY8130               2AZ
160812002160812301-085007     160812006003000673698ORN OCC. LOVE S/PLAQUE 0000001000+00007893+00000+0001T   00007893+0000001759          1400 WY8505               2AZ
160812003160812077-000310     160812006001023608635GIFT-BAG 18X23CM GLOSS 0000001000+00001314+00000+0001T   00001314+0000001759          1400 WY8112               2AZ
160812004160812112-116038     160812006009681820246TCS CARRIER BAG MIDI   0000001000+00000035+00000+0001T   00000035+0000001759          1400 WY8090               2AZ
160813000160813               160813               170213YA     1400+00000+YA0000023946+0000023946+000000000+000003355+0000027301+0000000000+I40000027301+0000000000+Z
160813001160813018-000130     160813006001023867537MUG OCC LOVE MINI+HEART0000002000+00003507+00000+0001T   00003507+0000001804          1400 WY8515               2AZ
160813002160813018-050000     160813006003000412679MUG OCC LOVE TWIN BEAR 0000001000+00006139+00000+0001T   00006139+0000001804          1400 WY8515               2AZ
160813003160813031-080508     160813006001023802415P/FRAME PL 22X11CM LOVE0000001000+00004385+00000+0001T   00004385+0000001804          1400 WY8510               2AZ
160813004160813112-116069     160813006009681820277TCS CARRIER BAG JUMBO  0000001000+00000048+00000+0001T   00000048+0000001804          1400 WY8090               2AZ
160813005160813903-000095     160813006001704011495SWT SPECKLED-EGGS 100G 0000003000+00002104+00000+0001T   00002104+0000001804          1400 WY8150               2AZ
160813006160813112-116069     160813006009681820277TCS CARRIER BAG JUMBO  0000001000+00000048+00000+0001T   00000048+0000001804          1400 WY8090               2AZ
160814000160814               160814               170213YA     1400+00000+YA0000003277+0000003277+000000000+000000463+0000003740+0000000000+I40000003740+0000000000+Z
160814001160814006-000171-H   160814006003000609574BALLOONS 1PC RED PRINT 0000007000+00000218+00000+0001T   00000218+0000001808          1400 WY8131               2AZ
160814002160814903-000194     160814006009826020616SWT CHOC RP LOLLY 25G  0000001000+00001314+00000+0001T   00001314+0000001808          1400 WY8150               2AZ
160814003160814080-000133     160814006003000535613CARD&ENV MINI ASTD DSGN0000001000+00000437+00000+0001T   00000437+0000001808          1400 WY8112               2AZ
160815000160815               160815               170213YA     1400+00000+YA0000005699+0000005699+000000000+000000798+0000006497+0000000000+I40000006497+0000000000+Z
160815001160815362-000307     160815006003000519750HAIR HEADBAND PRINTED  0000001000+00001314+00000+0001T   00001314+0000001810          1400 WY8160               2AZ
160815002160815366-000356     160815006003000006908DRESS UP WINGS FAIRY   0000001000+00004385+00000+0001T   00004385+0000001810          1400 WY8131               2AZ
160816000160816               160816               170213YA     1400+00000+YA0000024600+0000024600+000000000+000003445+0000028040+0000000005+I20000000000+0000028040+Z
160816001160816112-116069     160816006009681820277TCS CARRIER BAG JUMBO  0000001000+00000048+00000+0001T   00000048+0000001812          1400 WY8090               2AZ
160816002160816018-005009     160816006001023725608MUG W/PLUSH-BEAR LOVE  0000002000+00003507+00000+0001T   00003507+0000001812          1400 WY8515               2AZ
160816003160816018-030000     160816006003000421060MUG OCCASIONS LOVE 2PCE0000001000+00004385+00000+0001T   00004385+0000001812          1400 WY8515               2AZ
160816004160816018-050000     160816006003000412679MUG OCC LOVE TWIN BEAR 0000001000+00006139+00000+0001T   00006139+0000001812          1400 WY8515               2AZ
160816005160816018-000130     160816006001023867537MUG OCC LOVE MINI+HEART0000002000+00003507+00000+0001T   00003507+0000001812          1400 WY8515               2AZ
160817000160817               160817               170213YA     1400+00000+YA0000003506+0000003506+000000000+000000492+0000003990+0000000008+I20000000000+0000003990+Z
160817001160817031-005820     160817006001023667816P/FRAME-CLIP 15X20CM   0000002000+00001753+00000+0001T   00001753+0000001813          1400 WY8510               2AZ
160818000160818               160818               170213YA     1400+00000+YA0000002192+0000002192+000000000+000000307+0000002490+0000000009+I20000000000+0000002490+Z
160818001160818079-013102     160818006003000019601ART+CRAFT DIY PIPE-CLNR0000001000+00002192+00000+0001T   00002192+0000001816          1400 WY8130               2AZ
160819000160819               160819               170213YA     1400+00000+YA0000002630+0000002630+000000000+000000369+0000002999+0000000000+I40000002999+0000000000+Z
160819001160819072-020309     160819006001023700995DOG-TOY DUMBELL F/BALL 0000001000+00002630+00000+0001T   00002630+0000001818          1400 WY8870               2AZ
160820000160820               160820               170213YA     1400+00000+YA0000001490+0000001490+000000000+000000209+0000001699+0000000000+I40000001699+0000000000+Z
160820001160820046-000010     160820004897006172987BATTERIES AAA ALKLN 2PC0000001000+00001490+00000+0001T   00001490+0000001827          1400 WY8312               2AZ
160821000160821               160821               170213YA     1400+00000+YA0000015074+0000015074+000000000+000002113+0000017187+0000000000+I40000017187+0000000000+Z
160821001160821304-001204     160821006001023737984FLOWER OCC. TEDDY/ROSES0000003000+00001402+00000+0001T   00001490+0006471830          1400 WY8510               2AZ
160821002160821030-000010     160821006003000084395P/DOOR HANGER 2-ASSTD  0000003000+00001314+00000+0001T   00001490+0008181830          1400 WY8505               2AZ
160821003160821566-000068     160821006003000418046POP UP LOVE 2 ASSTD    0000001000+00002192+00000+0001T   00002192+0000001830          1400 WY8130               2AZ
160821004160821077-000315     160821006003000181186GIFT-BAG 20x28cm MATT  0000003000+00001578+00000+0001T   00001578+0000001830          1400 WY8112               2AZ
160822000160822               160822               170213YA     1400+00000+YA0000001490+0000001490+000000000+000000209+0000001690+0000000009+I20000000000+0000001690+Z
160822001160822565-004101     160822006003000548033BALL BOUNCING EGG      0000001000+00001490+00000+0001T   00001490+0000001830          1400 WY8745               2AZ
160823000160823               160823               170213YA     1400+00000+YA0000015476+0000015476+000000000+000002171+0000017647+0000000000+I40000017647+0000000000+Z
160823001160823077-000270     160823006003000395453GIFT-BAG PPR JMB 33X45 0000001000+00002630+00000+0001T   00002630+0000001841          1400 WY8112               2AZ
160823002160823301-085008     160823006003000673933ORN OCC.LOVE TINSEL HRT0000001000+00003069+00000+0001T   00003069+0000001841          1400 WY8505               2AZ
160823003160823089-060027     160823006003000245871KEY-CHAIN HEART 6X6cm  0000001000+00003069+00000+0001T   00003069+0000001841          1400 WY8205               2AZ
160823004160823018-005009     160823006001023725608MUG W/PLUSH-BEAR LOVE  0000001000+00003507+00000+0001T   00003507+0000001841          1400 WY8515               2AZ
160823005160823039-000026     160823006001023551610C/TAPERED 25CM M/RED   0000003000+00001051+00000+0001T   00001051+0000001841          1400 WY8510               2AZ
160823006160823112-116069     160823006009681820277TCS CARRIER BAG JUMBO  0000001000+00000048+00000+0001T   00000048+0000001841          1400 WY8090               2AZ
160824000160824               160824               170213YA     1400+00000+YA0000006574+0000006574+000000000+000000921+0000007490+0000000005+I20000000000+0000007490+Z
160824001160824024-000002     160824006001023741899S/BURNER-COVER SILV/BLK0000001000+00003946+00000+0001T   00004385+0008191843          1400 WY8300               2AZ
160824002160824903-000844     160824005010478432567SWT CANDY DL LUV HEARTS0000002000+00001314+00000+0001T   00001314+0000001843          1400 WY8150               2AZ
160825000160825               160825               170213YA     1400+00000+YA0000005260+0000005260+000000000+000000737+0000005997+0000000000+I40000005997+0000000000+Z
160825001160825006-000118     160825006001023730725BALLOONS 6PC TWISTER   0000001000+00001753+00000+0001T   00001753+0000001847          1400 WY8131               2AZ
160825002160825031-000923     160825006001023669933P/FRAME BLK W/WORDS    0000001000+00003507+00000+0001T   00003507+0000001847          1400 WY8510               2AZ
M17021391                              CASH        YASLAVE 2                       Z-REPORT No.   642TOTAL (Sales - Refunds)           6517.74       CASH TO BE BANKED                 2801.60       DEBIT CARDS                          0.00       CREDIT CARDS                      3716.14       Z-READING                         6517.74       AIRTIME DEBIT CARD SALES             0.00       AIRTIME CARD SALES                   0.00       OVERS/UNDERS                         0.00       AIRTIME CASH SALES                   0.00       GIFT CARDS                           0.00       GIFT CARD CASH SALES                 0.00       T O T A L  CASH PAYOUTS              0.00                                                                                                                                                                                                                                                                                                                                                      Z
M17021392                              CASH        YAABSENT                                                                                                                                                                                          ANNUAL LEAVE                                                                                                                                                                                    DAY OFF                                                                                                                                                                                         COMMENTS                                                                                                                                                                                                                                                                                                                                                                                       Z
Y17021300                                          YA00000000572045+000098
ZYA17021320263 SLAVE 2      SALES DATA                     NEXT INVOICE NO.  160826 0642
X YA Slave 2 First invoice 160728 170213 Last invoice 160825 170213 Next invoice 160826 Total number of records 000000302 clbackup completed 20:26:23
