111177000111177               111177               170213YB     1400+00000+YB0000001490+0000001490+000000000+000000209+0000001699+0000000000+I40000001699+0000000000+Z
111177001111177084-070001     111177006001023630018NAIL FILE 12cm         0000001000+00001490+00000+0001T   00001490+0000000933          1400 1IC200               1AZ
111178000111178               111178               170213YB     1400+00000+YB0000000437+0000000437+000000000+000000062+0000000490+0000000009+I20000000000+0000000490+Z
111178001111178083-000049     111178004891035200024CIG-LIGHTER DISPOSABLE 0000001000+00000437+00000+0001T   00000437+0000000934          1400 1IC315               1AZ
111179000111179               111179               170213YB     1400+00000+YB0000008419+0000008419+000000000+000001179+0000009590+0000000008+I20000000000+0000009590+Z
111179001111179047-002041     111179006002521079170PLUG-ADAPTOR 2x16A 2x5A0000001000+00003157+00000+0001T   00003157+0000001006          1400 KY1880               1AZ
111179002111179158-000167     111179006003000569588WASTEPAPER-BASKET 26cm 0000001000+00005262+00000+0001T   00005262+0000001006          1400 KY1300               1AZ
111180000111180               111180               170213YB     1400+00000+YB0000006577+0000006577+000000000+000000921+0000007490+0000000008+I20000000000+0000007490+Z
111180001111180104-000036     111180006003000501038BASKET W/HANGER HOOK   0000001000+00002192+00000+0001T   00002192+0000001016          1400 KY1210               1AZ
111180002111180104-000030     111180006001023803481BASKET PL 28x20x12cm   0000001000+00004385+00000+0001T   00004385+0000001016          1400 KY1210               1AZ
111181000111181               111181               170213YB     1400+00000+YB0000064671+0000064671+000000000+000009062+0000073733+0000000000+I40000073733+0000000000+Z
111181001111181048-000703     111181006003000269686HEAD-LAMP 4+2LED(3xAAA)0000005000+00006139+00000+0001T   00006139+0000001208          1400 KY1305               1AZ
111181002111181048-000700     111181006001023849731HEAD-LAMP 10xLED (3xAAA0000001000+00004385+00000+0001T   00004385+0000001208          1400 KY1305               1AZ
111181003111181046-000014-A   111181004897006177708BATTERIES SIZE:AAA 8PCE0000002000+00001753+00000+0001T   00001753+0000001208          1400 KY1312               1AZ
111181004111181046-000014     111181006001023725387BATTERIES SIZE:AAA 4PCE0000001000+00001139+00000+0001T   00001139+0000001208          1400 KY1312               1AZ
111181005111181048-000837     111181006003000373376TORCH RUBBER 3LED SML  0000003000+00002893+00000+0001T   00002893+0000001208          1400 KY1305               1AZ
111181006111181048-000826     111181006001023753045TORCH LED W/ZOOM SMALL 0000003000+00003507+00000+0001T   00003507+0000001208          1400 KY1305               1AZ
111181007111181046-000012     111181006904708013062BATTERIES AA  CARD-OF-40000001000+00001314+00000+0001T   00001314+0000001208          1400 KY1312               1AZ
111181008111181046-000012-A   111181006003000208296BATTERIES H/POWER SZ:AA0000002000+00002192+00000+0001T   00002192+0000001208          1400 KY1312               1AZ
111181009111181112-116069     111181006009681820277TCS CARRIER BAG JUMBO  0000001000+00000048+00000+0001T   00000048+0000001208          1400 KY1090               1AZ
111182000111182               111182               170213YB     1400+00000+YB0000021700+0000021700+000000000+000003042+0000024742+0000000000+I40000024742+0000000000+Z
111182001111182084-078824     111182006003000385676NAIL FILES EMERY 24PC  0000001000+00001753+00000+0001T   00001753+0000001213          1400 KY1200               1AZ
111182002111182050-000887-Z   111182006001023821966PADLOCK COMB 10-DIGIT  0000001000+00004385+00000+0001T   00004385+0000001213          1400 KY1855               1AZ
111182003111182150-001234-1   111182005019190010015PLATE-HANGER P/C SIZE-10000002000+00001314+00000+0001T   00001314+0000001213          1400 KY1810               1AZ
111182004111182174-000010     111182006001023462381W/MACHINE-BAG 25x40cm  0000001000+00001753+00000+0001T   00001753+0000001213          1400 KY1205               1AZ
111182005111182071-005060     111182006003000152186CELLOTAPE 2PACK INVSBLE0000001000+00003507+00000+0001T   00003507+0000001213          1400 KY1130               1AZ
111182006111182071-081101-A   111182006003000326549GLUE-STICK 25g BLISTER 0000001000+00000788+00000+0001T   00000788+0000001213          1400 KY1130               1AZ
111182007111182007-000196     111182006002324002375FILE LEVER ARCH A4     0000002000+00002630+00000+0001T   00002630+0000001213          1400 KY1130               1AZ
111182008111182089-000020     111182006001023562272K/CHAIN MINI SHOE CROC 0000001000+00001578+00000+0001T   00001578+0000001213          1400 KY1205               1AZ
111182009111182112-116069     111182006009681820277TCS CARRIER BAG JUMBO  0000001000+00000048+00000+0001T   00000048+0000001213          1400 KY1090               1AZ
111183000111183               111183               170213YB     1400+00000+YB0000001752+0000001752+000000000+000000246+0000001990+0000000008+I20000000000+0000001990+Z
111183001111183007-000033     111183006003000535231CARD HOLDER W/LANYARD  0000002000+00000876+00000+0001T   00000876+0000001216          1400 KY1130               1AZ
111184000111184               111184               170213YB     1400+00000+YB0000015954+0000015954+000000000+000002238+0000018192+0000000000+I40000018192+0000000000+Z
111184001111184036-000063     111184006009654960436COATHANGERS VIRGIN 5PCE0000002000+00001753+00000+0001T   00001753+0000001220          1400 KY1212               1AZ
111184002111184016-006425     111184006001023998170S/JAR GLS CLIP W/RIBBON0000001000+00002630+00000+0001T   00002630+0000001220          1400 KY1300               1AZ
111184003111184050-000362-Z   111184006001023475275PADLOCK IRON 25mm CARD 0000001000+00002016+00000+0001T   00002016+0000001220          1400 KY1855               1AZ
111184004111184050-000262-Z   111184006001023475237PADLOCK BRS 25mm CARDED0000001000+00003069+00000+0001T   00003069+0000001220          1400 KY1855               1AZ
111184005111184036-000605     111184006001023158611WASHING-PEGS WDN PCK-240000002000+00001490+00000+0001T   00001490+0000001220          1400 KY1212               1AZ
111184006111184162-081665     111184006001492816654SS 18PK HAIR ELASTICS  0000001000+00001753+00000+0001T   00001753+0000001220          1400 KY1160               1AZ
111185000111185               111185               170213YB     1400+00000+YB0000002630+0000002630+000000000+000000369+0000002990+0000000009+I20000000000+0000002990+Z
111185001111185263-001003     111185006001023789846CARS RACING SET-OF-2   0000001000+00002630+00000+0001T   00002630+0000001221          1400 KY1710               1AZ
111186000111186               111186               170213YB     1400+00000+YB0000004382+0000004382+000000000+000000615+0000004990+0000000007+I20000000000+0000004990+Z
111186001111186027-009025     111186006003962000747DUSTPAN-SET PL         0000001000+00002630+00000+0001T   00002630+0000001221          1400 KY1212               1AZ
111186002111186252-000011     111186006001023475190CURTN-GLIDER ACETYL x500000001000+00000876+00000+0001T   00000876+0000001221          1400 KY1810               1AZ
111186003111186252-000013     111186006001023488107CURTN-HOOK R6 ACETYLx500000001000+00000876+00000+0001T   00000876+0000001221          1400 KY1810               1AZ
111187000111187               111187               170213YB     1400+00000+YB0000007059+0000007059+000000000+000000991+0000008050+0000000000+I40000008050+0000000000+Z
111187001111187306-000016     111187006001023887955T/BRUSH KIDDIES W/CAP  0000001000+00000876+00000+0001T   00000876+0000001231          1400 KY1200               1AZ
111187002111187051-006100     111187006003000267170GARDEN KID TOOLSET 3PCE0000001000+00002630+00000+0001T   00002630+0000001231          1400 KY1820               1AZ
111187003111187051-002401     111187006001023523570TRIGGER-SPRAYER   300ml0000001000+00001490+00000+0001T   00001490+0000001231          1400 KY1820               1AZ
111187004111187077-000011-D   111187006001023808554TISSUE-WRAP WHITE 10PCE0000001000+00000876+00000+0001T   00000876+0000001231          1400 KY1112               1AZ
111187005111187112-116069     111187006009681820277TCS CARRIER BAG JUMBO  0000001000+00000048+00000+0001T   00000048+0000001231          1400 KY1090               1AZ
111187006111187903-000087     111187006001704000161SWT SPECKLED-EGGS 50G  0000001000+00001139+00000+0001T   00001139+0000001231          1400 KY1150               1AZ
111188000111188               111188               170213YB     1400+00000+YB0000001051+0000001051+000000000+000000148+0000001190+0000000009+I20000000000+0000001190+Z
111188001111188079-009702-D   111188008427973059354PAPER SIRIO A2 RED COL 0000001000+00001051+00000+0001T   00001051+0000001232          1400 KY1130               1AZ
111189000111189               111189               170213YB     1400+00000+YB0000001753+0000001753+000000000+000000246+0000001990+0000000009+I20000000000+0000001990+Z
111189001111189080-000117     111189006003000236350CARD & ENVELOPE THANK U0000001000+00001753+00000+0001T   00001753+0000001233          1400 KY1112               1AZ
111190000111190               111190               170213YB     1400+00000+YB0000000700+0000000700+000000000+000000098+0000000790+0000000008+I20000000000+0000000790+Z
111190001111190106-002110     111190006002580007312JUICE-BOTTLE JUMBO     0000001000+00000700+00000+0001T   00000700+0000001233          1400 KY1210               1AZ
111191000111191               111191               170213YB     1400+00000+YB0000000700+0000000700+000000000+000000098+0000000798+0000000000+I40000000798+0000000000+Z
111191001111191106-002110     111191006002580007312JUICE-BOTTLE JUMBO     0000001000+00000700+00000+0001T   00000700+0000001235          1400 KY1210               1AZ
111192000111192               111192               170213YB     1400+00000+YB0000000700+0000000700+000000000+000000098+0000000790+0000000008+I20000000000+0000000790+Z
111192001111192106-002110     111192006002580007312JUICE-BOTTLE JUMBO     0000001000+00000700+00000+0001T   00000700+0000001236          1400 KY1210               1AZ
111193000111193               111193               170213YB     1400+00000+YB0000000700+0000000700+000000000+000000098+0000000790+0000000008+I20000000000+0000000790+Z
111193001111193106-002110     111193006002580007312JUICE-BOTTLE JUMBO     0000001000+00000700+00000+0001T   00000700+0000001236          1400 KY1210               1AZ
111194000111194               111194               170213YB     1400+00000+YB0000001753+0000001753+000000000+000000246+0000001990+0000000009+I20000000000+0000001990+Z
111194001111194369-001138     111194006003000555185VINYL 8.5cm THEMED DUCK0000001000+00001753+00000+0001T   00002630+0008141236          1400 KY1745               1AZ
111195000111195               111195               170213YB     1400+00000+YB0000005260+0000005260+000000000+000000737+0000005990+0000000007+I20000000000+0000005990+Z
111195001111195133-000017     111195006003000525171CLEANING-CLOTHS 5PCE   0000001000+00003507+00000+0001T   00003507+0000001237          1400 KY1212               1AZ
111195002111195251-000070     111195006003000451777PROTECTION-PADS BLK ADH0000001000+00001753+00000+0001T   00001753+0000001237          1400 KY1810               1AZ
111196000111196               111196               170213YB     1400+00000+YB0000004385+0000004385+000000000+000000614+0000004999+0000000000+I40000004999+0000000000+Z
111196001111196016-006497     111196006003000120055S/JAR-SET 4PCE MINI    0000001000+00004385+00000+0001T   00004385+0000001239          1400 KY1300               1AZ
111197000111197               111197               170213YB     1400+00000+YB0000003507+0000003507+000000000+000000491+0000003990+0000000008+I20000000000+0000003990+Z
111197001111197004-078990     111197006001023994431EARPHONES MINI 1.2m    0000001000+00003507+00000+0001T   00003507+0000001239          1400 KY1310               1AZ
111198000111198               111198               170213YB     1400+00000+YB0000029952+0000029952+000000000+000004200+0000034150+0000000002+I20000000000+0000034150+Z
111198001111198006-000166-H   111198006003000608096BALLOONS HELIUM 6PC WHT0000002000+00001314+00000+0001T   00001314+0000001242          1400 KY1131               1AZ
111198002111198006-000166-E   111198006003000516612BALLOONS LRG 6PC GREEN 0000002000+00001314+00000+0001T   00001314+0000001242          1400 KY1131               1AZ
111198003111198006-001000     111198006003000093779HELIUM BALLOON FILL    0000024000+00000613+00000+0001T   00000613+0000001242          1400 KY1131               1AZ
111198004111198006-000166-E   111198006003000516612BALLOONS LRG 6PC GREEN 0000001000+00001314+00000+0001T   00001314+0000001242          1400 KY1131               1AZ
111198005111198006-000166-H   111198006003000608096BALLOONS HELIUM 6PC WHT0000001000+00001314+00000+0001T   00001314+0000001242          1400 KY1131               1AZ
111198006111198006-001000     111198006003000093779HELIUM BALLOON FILL    0000012000+00000613+00000+0001T   00000613+0000001242          1400 KY1131               1AZ
111199000111199               111199               170213YB     1400+00000+YB0000033364+0000033364+000000000+000004674+0000038038+0000000000+I40000038038+0000000000+Z
111199001111199007-000033     111199006003000535231CARD HOLDER W/LANYARD  0000001000+00000876+00000+0001T   00000876+0000001251          1400 KY1130               1AZ
111199002111199089-000501     111199006003000622900KEY CHAIN LIGHT LASER  0000001000+00002192+00000+0001T   00002192+0000001251          1400 KY1205               1AZ
111199003111199036-000151     111199006001023810588COATHANGERS    PACK-10 0000001000+00002893+00000+0001T   00002893+0000001251          1400 KY1212               1AZ
111199004111199104-000036     111199006003000501038BASKET W/HANGER HOOK   0000001000+00002192+00000+0001T   00002192+0000001251          1400 KY1210               1AZ
111199005111199089-000235     111199006003000485727KEY CHAIN SILVER ASSTD 0000001000+00001753+00000+0001T   00002630+0008121251          1400 KY1205               1AZ
111199006111199159-000637     111199006001023735058BATH PUMICE STONE      0000001000+00000700+00000+0001T   00000700+0000001251          1400 KY1200               1AZ
111199007111199105-008005     111199006002580009484STORAGE CONTAINER 7.5L 0000002000+00004385+00000+0001T   00004385+0000001251          1400 KY1210               1AZ
111199008111199159-000150-B   111199006003000058440SOAP-BOX PL ASSORTED   0000001000+00000832+00000+0001T   00000832+0000001251          1400 KY1200               1AZ
111199009111199220-000140     111199006003000567621C/SET S/S 16PC ELOFF   0000001000+00008771+00000+0001T   00008771+0000001251          1400 KY1300               1AZ
111199010111199158-000004     111199006001023577894CUTLERY DRAINER TRAY   0000001000+00004385+00000+0001T   00004385+0000001251          1400 KY1300               1AZ
111200000111200               111200               170213YB     1400+00000+YB0000003331+0000003331+000000000+000000467+0000003790+0000000008+I20000000000+0000003790+Z
111200001111200084-009411     111200006001023629968SCISSORS 17cm PL-HANDLE0000001000+00001753+00000+0001T   00001753+0000001300          1400 KY1200               1AZ
111200002111200108-001024     111200006009654960719TUMBLERS PL 4PC 350ml  0000001000+00001578+00000+0001T   00001578+0000001300          1400 KY1210               1AZ
111201000111201               111201               170213YB     1400+00000+YB0000005698+0000005698+000000000+000000799+0000006490+0000000007+I20000000000+0000006490+Z
111201001111201039-000319-2   111201006003000442508B/CANDLES LRG NUMBER-2 0000001000+00000876+00000+0001T   00000876+0000001302          1400 KY1510               1AZ
111201002111201080-000109     111201006003000237203CARD&ENVLPE BDAY-BRIGHT0000001000+00001753+00000+0001T   00001753+0000001302          1400 KY1112               1AZ
111201003111201006-000227     111201006003000328086PARTY BIRTHDAY BADGES  0000001000+00003069+00000+0001T   00003069+0000001302          1400 KY1131               1AZ
111202000111202               111202               170213YB     1400+00000+YB0000007277+0000007277+000000000+000001019+0000008290+0000000006+I20000000000+0000008290+Z
111202001111202368-000049     111202006003000536955PLUSH BEAR 15cm LOVE   0000001000+00004385+00000+0001T   00004385+0000001318          1400 JY8745               1AZ
111202002111202077-000303     111202006001023593757GIFT-BAG PAPER MED     0000001000+00001578+00000+0001T   00001578+0000001318          1400 JY8112               1AZ
111202003111202903-000194     111202006009826020616SWT CHOC RP LOLLY 25G  0000001000+00001314+00000+0001T   00001314+0000001318          1400 JY8150               1AZ
111203000111203               111203               170213YB     1400+00000+YB0000002540+0000002540+000000000+000000357+0000002890+0000000007+I20000000000+0000002890+Z
111203001111203159-000043-H   111203006001023416629HOOKS ADHESIVE 3PCE SQR0000002000+00001139+00000+0001T   00001139+0000001449          1400 JY8200               1AZ
111203002111203108-003007     111203006002923006590MUG PL 375ml           0000001000+00000262+00000+0001T   00000262+0000001449          1400 JY8210               1AZ
111204000111204               111204               170213YB     1400+00000+YB0000006139+0000006139+000000000+000000860+0000006990+0000000009+I20000000000+0000006990+Z
111204001111204035-000021     111204006002596020206UMBRELLA GENTS         0000001000+00006139+00000+0001T   00006139+0000001511          1400 KY1205               1AZ
111205000111205               111205               170213YB     1400+00000+YB0000035952+0000035952+000000000+000005037+0000040989+0000000000+I40000040989+0000000000+Z
111205001111205084-006995     111205006003000092802NAIL CLIPPER 8cm TOE   0000001000+00001753+00000+0001T   00001753+0000001515          1400 KY1200               1AZ
111205002111205106-007125     111205006003000057689MILK-SACHET-JUG 1,0L   0000001000+00001753+00000+0001T   00001753+0000001515          1400 KY1210               1AZ
111205003111205113-000001     111205006003000088690TRAVEL MUG 400ml S/S   0000001000+00003507+00000+0001T   00003507+0000001515          1400 KY1305               1AZ
111205004111205105-006004     111205006002580007763CANNISTER 3PCE    250ml0000001000+00002630+00000+0001T   00002630+0000001515          1400 KY1210               1AZ
111205005111205105-001068     111205006003000629046CONTAINER CLIP LOCK    0000001000+00003507+00000+0001T   00003507+0000001515          1400 KY1210               1AZ
111205006111205104-000053     111205006003000011193BASKET PL 25X32X6cm    0000001000+00004385+00000+0001T   00004385+0000001515          1400 KY1210               1AZ
111205007111205105-007525     111205008696287301569STORAGE BOX CLEAR 21L  0000001000+00016665+00000+0001T   00016665+0000001515          1400 KY1210               1AZ
111205008111205001-000167     111205006001023679659TUMBLER 340ml WILLY    0000002000+00000876+00000+0001T   00000876+0000001515          1400 KY1515               1AZ
111206000111206               111206               170213YB     1400+00000+YB0000000876+0000000876+000000000+000000123+0000000990+0000000009+I20000000000+0000000990+Z
111206001111206007-000033     111206006003000535231CARD HOLDER W/LANYARD  0000001000+00000876+00000+0001T   00000876+0000001517          1400 KY1130               1AZ
111207000111207               111207               170213YB     1400+00000+YB0000002015+0000002015+000000000+000000283+0000002298+0000000000+I40000002298+0000000000+Z
111207001111207033-005905-B   111207006001023727787S/LACES FLAT 90cm ASSTD0000001000+00000876+00000+0001T   00000876+0000001556          1400 KY1200               1AZ
111207002111207159-000445     111207006001023669728SOAP-BOX PL OVAL       0000001000+00001139+00000+0001T   00001139+0000001556          1400 KY1200               1AZ
111208000111208               111208               170213YB     1400+00000+YB0000004383+0000004383+000000000+000000615+0000004990+0000000008+I20000000000+0000004990+Z
111208001111208174-000175     111208006001023730985LAUNDRY-BAG FOLD-AWAY  0000001000+00002630+00000+0001T   00002630+0000001557          1400 KY1205               1AZ
111208002111208084-006996     111208006003000092833NAIL CLIPPER 6cm       0000001000+00001753+00000+0001T   00001753+0000001557          1400 KY1200               1AZ
111209000111209               111209               170213YB     1400+00000+YB0000005873+0000005873+000000000+000000824+0000006690+0000000007+I20000000000+0000006690+Z
111209001111209174-000175     111209006001023730985LAUNDRY-BAG FOLD-AWAY  0000001000+00002630+00000+0001T   00002630+0000001558          1400 KY1205               1AZ
111209002111209071-002999-A   111209006003000611577PEN STICKBALL 10PCE ASS0000001000+00001753+00000+0001T   00001753+0000001558          1400 KY1130               1AZ
111209003111209007-000208     111209006001023582096NOTE-PAD S/STICK 100'S 0000001000+00001490+00000+0001T   00001490+0000001558          1400 KY1130               1AZ
111210000111210               111210               170213YB     1400+00000+YB0000002192+0000002192+000000000+000000307+0000002490+0000000009+I20000000000+0000002490+Z
111210001111210251-000002     111210006003000093991TAPE D-SIDED 24x1000mm 0000001000+00002192+00000+0001T   00002192+0000001559          1400 KY1810               1AZ
111211000111211               111211               170213YB     1400+00000+YB0000008769+0000008769+000000000+000001229+0000009998+0000000000+I40000009998+0000000000+Z
111211001111211035-000021     111211006002596020206UMBRELLA GENTS         0000001000+00006139+00000+0001T   00006139+0000001601          1400 KY1205               1AZ
111211002111211007-000714     111211006003000227150NOTE-BK A6 WIRO 80SHTS 0000001000+00002630+00000+0001T   00002630+0000001601          1400 KY1130               1AZ
111212000111212               111212               170213YB     1400+00000+YB0000006139+0000006139+000000000+000000860+0000006990+0000000009+I20000000000+0000006990+Z
111212001111212035-000001     111212006002596010566UMBRELLA LADIES W/MINI 0000001000+00006139+00000+0001T   00006139+0000001603          1400 KY1205               1AZ
111213000111213               111213               170213YB     1400+00000+YB0000006139-0000006139-000000000+000000860-0000007000-0000000001+I20000000000+0000007000-Z
111213001111213035-000001     111213006002596010566UMBRELLA LADIES W/MINI 0000001000-00006139+00000+0001T   00006139+0000001605          1400 KY12052IC            1 Z
111214000111214               111214               170213YB     1400+00000+YB0000003507+0000003507+000000000+000000491+0000003990+0000000008+I20000000000+0000003990+Z
111214001111214174-008023     111214006001023730695PONCHO 132x203cm TWIN-P0000001000+00003507+00000+0001T   00003507+0000001607          1400 KY1205               1AZ
111215000111215               111215               170213YB     1400+00000+YB0000076948+0000076948+000000000+000010806+0000087750+0000000004+I20000000000+0000087750+Z
111215001111215006-000166-D   111215006003000516490BALLOONS LRG 6PC RED   0000010000+00001314+00000+0001T   00001314+0000001608          1400 KY1131               1AZ
111215002111215006-000170-F   111215006003000608669BALLOONS 1PC WHITE     0000034000+00000218+00000+0001T   00000218+0000001608          1400 KY1131               1AZ
111215003111215006-001000     111215006003000093779HELIUM BALLOON FILL    0000092000+00000613+00000+0001T   00000613+0000001608          1400 KY1131               1AZ
111216000111216               111216               170213YB     1400+00000+YB0000007890+0000007890+000000000+000001107+0000008997+0000000000+I40000008997+0000000000+Z
111216001111216466-009009     111216006003000611294BEACH-BAT WOODEN 1.5cm 0000002000+00002630+00000+0001T   00002630+0000001610          1400 KY1785               1AZ
111216002111216466-000515     111216006001023477408BALLS TENNIS BAG-OF-3  0000001000+00002630+00000+0001T   00002630+0000001610          1400 KY1785               1AZ
111217000111217               111217               170213YB     1400+00000+YB0000003506+0000003506+000000000+000000492+0000003990+0000000008+I20000000000+0000003990+Z
111217001111217306-001003     111217006003000560356BANDAGE ELASTIC 1PC    0000001000+00001753+00000+0001T   00001753+0000001633          1400 JY8200               1AZ
111217002111217034-078841     111217006003000594023MELAMINE KIDS BOWL 17cm0000001000+00001753+00000+0001T   00001753+0000001633          1400 JY8215               1AZ
111218000111218               111218               170213YB     1400+00000+YB0000005297+0000005297+000000000+000000742+0000006030+0000000009+I20000000000+0000006030+Z
111218001111218018-019000     111218006003000557288MUG OCC. LOVE JUMBO    0000001000+00005262+00000+0001T   00005262+0000001643          1400 KY1515               1AZ
111218002111218112-116038     111218006009681820246TCS CARRIER BAG MIDI   0000001000+00000035+00000+0001T   00000035+0000001643          1400 KY1090               1AZ
111219000111219               111219               170213YB     1400+00000+YB0000004909+0000004909+000000000+000000688+0000005590+0000000007+I20000000000+0000005590+Z
111219001111219304-001204     111219006001023737984FLOWER OCC. TEDDY/ROSES0000001000+00001402+00000+0001T   00001490+0006471645          1400 KY1510               1AZ
111219002111219018-000136     111219006001023659026MUG OCC LOVE W/PLUSH   0000001000+00003507+00000+0001T   00003507+0000001645          1400 KY1515               1AZ
111220000111220               111220               170213YB     1400+00000+YB0000008771+0000008771+000000000+000001228+0000009990+0000000009+I20000000000+0000009990+Z
111220001111220039-000799     111220006001023692382CANDLES TEALITE 100PCE 0000001000+00008771+00000+0001T   00008771+0000001650          1400 JY8510               1AZ
111221000111221               111221               170213YB     1400+00000+YB0000010996+0000010996+000000000+000001541+0000012537+0000000000+I40000012537+0000000000+Z
111221001111221031-000036     111221006003000426232P/FRAME PL OVAL BLK/GLD0000001000+00003069+00000+0001T   00003069+0000001707          1400 JY8510               1AZ
111221002111221031-000902-B   111221006001023726285P/FRAME WDN OAK 10X15CM0000002000+00003946+00000+0001T   00003946+0000001707          1400 JY8510               1AZ
111221003111221112-116038     111221006003000534906TCS CARRIER BAG MIDI   0000001000+00000035+00000+0001T   00000035+0000001707          1400 JY8090               1AZ
111222000111222               111222               170213YB     1400+00000+YB0000001487+0000001487+000000000+000000210+0000001690+0000000007+I20000000000+0000001690+Z
111222001111222080-000133     111222006003000535613CARD&ENV MINI ASTD DSGN0000002000+00000437+00000+0001T   00000437+0000001710          1400 JY8112               1AZ
111222002111222304-001011     111222006001023806727FLWR ROSE RED W/BEAR   0000001000+00000613+00000+0001T   00000788+0006471710          1400 JY8510               1AZ
111223000111223               111223               170213YB     1400+00000+YB0000004685+0000004685+000000000+000000658+0000005343+0000000000+I40000005343+0000000000+Z
111223001111223903-000194     111223006009826020616SWT CHOC RP LOLLY 25G  0000001000+00001314+00000+0001T   00001314+0000001713          1400 JY8150               1AZ
111223002111223903-000183     111223006003000451043SWT LB HEART LOLLY     0000001000+00000393+00000+0001T   00000393+0000001713          1400 JY8150               1AZ
111223003111223903-000200     111223006009826020234SWT CHOC RP CHOCO 23G  0000001000+00000788+00000+0001T   00000788+0000001713          1400 JY8150               1AZ
111223004111223566-001012     111223006001023528070STICKERS GLOW IN DARK  0000001000+00001314+00000+0001T   00001314+0000001713          1400 JY8130               1AZ
111223005111223046-001620-PK2 111223004897006178408BATTERY LITHIUM CR-16200000001000+00000876+00000+0001T   00000876+0000001713          1400 JY8312               1AZ
111224000111224               111224               170213YB     1400+00000+YB0000002630+0000002630+000000000+000000369+0000002990+0000000009+I20000000000+0000002990+Z
111224001111224203-001247     111224006001023770813C/SCREW WAITER'S-FRIEND0000001000+00002630+00000+0001T   00002630+0000001714          1400 JY8300               1AZ
111225000111225               111225               170213YB     1400+00000+YB0000008504+0000008504+000000000+000001191+0000009690+0000000005+I20000000000+0000009690+Z
111225001111225031-000860-A   111225006001023798176P/FRAME PL ANTIQUE-BLK 0000001000+00003507+00000+0001T   00003507+0000001721          1400 KY1510               1AZ
111225002111225018-000136     111225006001023659026MUG OCC LOVE W/PLUSH   0000001000+00003507+00000+0001T   00003507+0000001721          1400 KY1515               1AZ
111225003111225077-000299     111225006003000395576G/BAG 32x25cm LRG LOVE 0000001000+00001490+00000+0001T   00001490+0000001721          1400 KY1112               1AZ
111226000111226               111226               170213YB     1400+00000+YB0000000876+0000000876+000000000+000000123+0000000990+0000000009+I20000000000+0000000990+Z
111226001111226077-000011-C   111226006001023808523TISSUE 10xSHTS RED     0000001000+00000876+00000+0001T   00000876+0000001722          1400 KY1112               1AZ
111227000111227               111227               170213YB     1400+00000+YB0000004646+0000004646+000000000+000000652+0000005290+0000000008+I20000000000+0000005290+Z
111227001111227036-000151     111227006001023810588COATHANGERS    PACK-10 0000001000+00002893+00000+0001T   00002893+0000001723          1400 KY1212               1AZ
111227002111227084-006995     111227006003000092802NAIL CLIPPER 8cm TOE   0000001000+00001753+00000+0001T   00001753+0000001723          1400 KY1200               1AZ
111228000111228               111228               170213YB     1400+00000+YB0000001490+0000001490+000000000+000000209+0000001690+0000000009+I20000000000+0000001690+Z
111228001111228002-021064     111228006001023822246TOOTHPICKS IN-HOLDER   0000001000+00001490+00000+0001T   00001490+0000001726          1400 KY1300               1AZ
A17021300                                          13005726YBSLAVE 1                       KY12IC
A17021301                                          13032334YBSLAVE 1                       KY12IC
C11120400                                          170213YB006-001000     15103886SLAVE 1     KY12IC0000000000+0000000000+0030000092000+
C11120401                                          170213YB006-000170-F   15104661SLAVE 1     KY12IC0000000000+0000000000+0020000034000+
C11120402                                          170213YB006-000166-D   15105272SLAVE 1     KY12IC0000000000+0000000000+0010000010000+
C11120600                                          170213YB007-000714     15160331SLAVE 1     KY12IC0000000000+0000000000+0010000001000+
C11120700                                          170213YB048-071503     15223649SLAVE 1     KY11IC0000000000+0000000000+0010000001000+
M17021391                              CASH        YBSLAVE 1                       Z-REPORT No.   596TOTAL (Sales - Refunds)           5129.03       CASH TO BE BANKED                 2624.30       DEBIT CARDS                          0.00       CREDIT CARDS                      2504.13       Z-READING                         5129.03       AIRTIME DEBIT CARD SALES             0.00       AIRTIME CARD SALES                   0.00       OVERS/UNDERS                         0.60-      AIRTIME CASH SALES                   0.00       GIFT CARDS                           0.00       GIFT CARD CASH SALES                 0.00       T O T A L  CASH PAYOUTS              0.00                                                                                                                                                                                                                                                                                                                                                      Z
M17021392                              CASH        YBABSENT                                                                                                                                                                                          ANNUAL LEAVE                                                                                                                                                                                    DAY OFF                                                                                                                                                                                         COMMENTS          0.60 SHORT                                                                                                                                                                                                                                                                                                                                                                   Z
Y17021300                                          YB00000000456222+000051
ZYB17021320263 SLAVE 1      SALES DATA                     NEXT INVOICE NO.  111229 0596
X YB Slave 1 First invoice 111177 170213 Last invoice 111228 170213 Next invoice 111229 Total number of records 000000194 clbackup completed 20:26:28
