128865000128865               128865               170213YB     1400+00000+YB0000006139+0000006139+000000000+000000860+0000006990+0000000009+I20000000000+0000006990+Z
128865001128865174-008022     128865006001023555502RAINCOAT 132X203cm HOOD0000001000+00006139+00000+0001T   00006139+0000000830          1400 JY3205               2AZ
128866000128866               128866               170213YB     1400+00000+YB0000005518-0000005518-000000000+000000774-0000006300-0000000008+I20000000000+0000006300-Z
128866001128866903-000518     128866006001704012782SWT STRAWS S/BERRY 100g0000001000-00001227+00000+0001T   00001227+0000000837          1400 JY31502IC            2 Z
128866002128866903-000519     128866006001704012805SWT MS LIQ-O-GHETTI    0000001000-00001227+00000+0001T   00001227+0000000837          1400 JY31502IC            2 Z
128866003128866903-004962     128866008410525221880SWT FINI BLCK/RED 50g  0000001000-00000964+00000+0001T   00000964+0000000837          1400 JY31502IC            2 Z
128866004128866903-000520     128866006001704009898SWT GUMMY MINI SOUR 60g0000001000-00000876+00000+0001T   00000876+0000000837          1400 JY31502IC            2 Z
128866005128866079-009700-D   128866006003000545711PAPER SIRIO A4 RED COL.0000001000-00000306+00000+0001T   00000306+0000000837          1400 JY31302IC            2 Z
128866006128866079-009700-J   128866006003000546190PAPER SIRIO A4 BLUE    0000001000-00000306+00000+0001T   00000306+0000000837          1400 JY31302IC            2 Z
128866007128866079-009700-A   128866006003000547746PAPER SIRIO A4 BLACK   0000001000-00000306+00000+0001T   00000306+0000000837          1400 JY31302IC            2 Z
128866008128866079-009700-A   128866006003000547746PAPER SIRIO A4 BLACK   0000001000-00000306+00000+0001T   00000306+0000000837          1400 JY31302IC            2 Z
128867000128867               128867               170213YB     1400+00000+YB0000001139+0000001139+000000000+000000160+0000001299+0000000000+I40000001299+0000000000+Z
128867001128867159-000445     128867006001023669728SOAP-BOX PL OVAL       0000001000+00001139+00000+0001T   00001139+0000000841          1400 JY3200               2AZ
128868000128868               128868               170213YB     1400+00000+YB0000004385+0000004385+000000000+000000614+0000004990+0000000009+I20000000000+0000004990+Z
128868001128868124-000002     128868006003000092246STORAGE TIN RECT       0000001000+00004385+00000+0001T   00004385+0000000853          1400 JY3300               2AZ
128869000128869               128869               170213YB     1400+00000+YB0000029859+0000029859+000000000+000004184+0000034040+0000000003+I20000000000+0000034040+Z
128869001128869112-116069     128869006009681820277TCS CARRIER BAG JUMBO  0000001000+00000048+00000+0001T   00000048+0000000913          1400 JY3090               2AZ
128869002128869105-001315     128869006003000572854CONTAINER COLOUR RIM   0000001000+00002630+00000+0001T   00002630+0000000913          1400 JY3210               2AZ
128869003128869105-001310     128869006003000572731CONTAINER COLOUR SQUARE0000003000+00003507+00000+0001T   00003507+0000000913          1400 JY3210               2AZ
128869004128869105-001300     128869006003000572618CONTAINER COLOUR RIM   0000002000+00002630+00000+0001T   00002630+0000000913          1400 JY3210               2AZ
128869005128869105-001315     128869006003000572854CONTAINER COLOUR RIM   0000001000+00002630+00000+0001T   00002630+0000000913          1400 JY3210               2AZ
128869006128869082-000100     128869006003000360246READING GLS STRENGHT:1 0000002000+00004385+00000+0001T   00004385+0000000913          1400 JY3160               2AZ
128870000128870               128870               170213YB     1400+00000+YB0000002717+0000002717+000000000+000000381+0000003098+0000000000+I40000003098+0000000000+Z
128870001128870047-000507     128870006001023684479PLUG-ADAPTOR EURO TWIN 0000001000+00001753+00000+0001T   00001753+0000000925          1400 JY3880               2AZ
128870002128870150-000774     128870006001023287427UTILITY-BOX MEDIUM     0000001000+00000964+00000+0001T   00000964+0000000925          1400 JY3810               2AZ
128871000128871               128871               170213YB     1400+00000+YB0000031426+0000031426+000000000+000004405+0000035831+0000000000+I40000035831+0000000000+Z
128871001128871036-000151     128871006001023810588COATHANGERS    PACK-10 0000001000+00002893+00000+0001T   00002893+0000000932          1400 JY3212               2AZ
128871002128871174-000001     128871006001023759412SHOE/CLOTHES-STORER    0000001000+00007893+00000+0001T   00007893+0000000932          1400 JY3205               2AZ
128871003128871112-116038     128871006009681820246TCS CARRIER BAG MIDI   0000001000+00000035+00000+0001T   00000035+0000000932          1400 JY3090               2AZ
128871004128871084-009410     128871006001023477651SCISSORS 21cm PL-HANDLE0000001000+00002630+00000+0001T   00002630+0000000932          1400 JY3200               2AZ
128871005128871106-007125     128871006003000057689MILK-SACHET-JUG 1,0L   0000001000+00001753+00000+0001T   00001753+0000000932          1400 JY3210               2AZ
128871006128871036-007549     128871006003000275793COATHANGER SPACE SAVER 0000001000+00001753+00000+0001T   00001753+0000000932          1400 JY3212               2AZ
128871007128871036-000063     128871006009654960436COATHANGERS VIRGIN 5PCE0000001000+00001753+00000+0001T   00001753+0000000932          1400 JY3212               2AZ
128871008128871024-000031     128871006003000295760MIXING BOWL PL W/HANDLE0000001000+00003069+00000+0001T   00003069+0000000932          1400 JY3300               2AZ
128871009128871104-000135     128871006001023846419WASTEBIN SWING-LID 28cm0000001000+00004385+00000+0001T   00004385+0000000932          1400 JY3210               2AZ
128871010128871158-000167     128871006003000569588WASTEPAPER-BASKET 26cm 0000001000+00005262+00000+0001T   00005262+0000000932          1400 JY3300               2AZ
128872000128872               128872               170213YB     1400+00000+YB0000005260+0000005260+000000000+000000738+0000005998+0000000000+I40000005998+0000000000+Z
128872001128872567-075699     128872006003000641277BK NOVEL CATEGORY A    0000002000+00002630+00000+0001T   00003069+0008190935          1400 JY37571IC            2AZ
128873000128873               128873               170213YB     1400+00000+YB0000009680+0000009680+000000000+000001357+0000011037+0000000000+I40000011037+0000000000+Z
128873001128873220-009144     128873006001023706881ROSE DESS-FORKS 4PCE   0000001000+00002630+00000+0001T   00002630+0000000940          1400 JY3300               2AZ
128873002128873220-009174     128873006001023706904ROSE DESS-KNIVES 2PCE  0000001000+00002630+00000+0001T   00002630+0000000940          1400 JY3300               2AZ
128873003128873104-000053     128873006003000011193BASKET PL 25X32X6cm    0000001000+00004385+00000+0001T   00004385+0000000940          1400 JY3210               2AZ
128873004128873112-116038     128873006009681820246TCS CARRIER BAG MIDI   0000001000+00000035+00000+0001T   00000035+0000000940          1400 JY3090               2AZ
128874000128874               128874               170213YB     1400+00000+YB0000002016+0000002016+000000000+000000283+0000002290+0000000009+I20000000000+0000002290+Z
128874001128874050-000362-Z   128874006001023475275PADLOCK IRON 25mm CARD 0000001000+00002016+00000+0001T   00002016+0000000958          1400 JY3855               2AZ
128875000128875               128875               170213YB     1400+00000+YB0000030163+0000030163+000000000+000004223+0000034386+0000000000+I40000034386+0000000000+Z
128875001128875491-059642     128875000078257596423INTEX ARMBAND 6-12YRS  0000001000-00001753+00000+0001T   00001753+0000001014          1400 JY37872IC            2 Z
128875002128875491-059642     128875000078257596423INTEX ARMBAND 6-12YRS  0000001000-00001753+00000+0001T   00001753+0000001014          1400 JY37872IC            2 Z
128875003128875491-059642     128875000078257596423INTEX ARMBAND 6-12YRS  0000001000-00001753+00000+0001T   00001753+0000001014          1400 JY37872IC            2 Z
128875004128875466-000072     128875006003000670994BALL FOOTBALL PVC 22cm 0000001000+00004385+00000+0001T   00004385+0000001014          1400 JY3785               2AZ
128875005128875466-000106     128875006003000128112BALL PL 20CM BASKETBALL0000003000+00003507+00000+0001T   00003507+0000001014          1400 JY3785               2AZ
128875006128875466-001100     128875006003000470297C/SET FOAM 60cm +1 BALL0000001000+00008771+00000+0001T   00008771+0000001014          1400 JY3785               2AZ
128875007128875466-000614     128875006003000502486BALL SOC 10.1CM 3PCE   0000001000+00007016+00000+0001T   00007016+0000001014          1400 JY3785               2AZ
128875008128875564-000012     128875006001023130075BUBBLE BOTTLE MAGIC    0000003000+00000700+00000+0001T   00000700+0000001014          1400 JY3131               2AZ
128875009128875071-001015     128875006001023910387MARKERS PERMANENT 3PK  0000001000+00001753+00000+0001T   00001753+0000001014          1400 JY3130               2AZ
128875010128875036-000011     128875006003000675890LINT REMOVER REFILL    0000001000+00000876+00000+0001T   00000876+0000001014          1400 JY3212               2AZ
128876000128876               128876               170213YB     1400+00000+YB0000005963+0000005963+000000000+000000835+0000006798+0000000000+I40000006798+0000000000+Z
128876001128876077-000303     128876006001023593757GIFT-BAG PAPER MED     0000001000+00001578+00000+0001T   00001578+0000001025          1400 JY3112               2AZ
128876002128876018-030000     128876006003000421060MUG OCCASIONS LOVE 2PCE0000001000+00004385+00000+0001T   00004385+0000001025          1400 JY3515               2AZ
128877000128877               128877               170213YB     1400+00000+YB0000009293+0000009293+000000000+000001303+0000010596+0000000000+I40000010596+0000000000+Z
128877001128877036-000151     128877006001023810588COATHANGERS    PACK-10 0000002000+00002893+00000+0001T   00002893+0000001029          1400 JY3212               2AZ
128877002128877036-000160     128877006001023559562COATHANGERS 12PCE      0000001000+00003507+00000+0001T   00003507+0000001029          1400 JY3212               2AZ
128878000128878               128878               170213YB     1400+00000+YB0000011693+0000011693+000000000+000001641+0000013330+0000000004+I20000000000+0000013330+Z
128878001128878112-116038     128878006009681820246TCS CARRIER BAG MIDI   0000001000+00000035+00000+0001T   00000035+0000001039          1400 JY3090               2AZ
128878002128878200-003021     128878006003000276370REFUSE BAGS 30xSCENTED 0000002000+00002630+00000+0001T   00002630+0000001039          1400 JY3214               2AZ
128878003128878033-005991     128878006001023678546NEEDLES H/HOLD-REPAIR  0000001000+00000788+00000+0001T   00000788+0000001039          1400 JY3200               2AZ
128878004128878033-005919     128878006003000154883SEWING THREAD 24cm ASST0000001000+00001490+00000+0001T   00001490+0000001039          1400 JY3200               2AZ
128878005128878002-021064     128878006001023822246TOOTHPICKS IN-HOLDER   0000001000+00001490+00000+0001T   00001490+0000001039          1400 JY3300               2AZ
128878006128878036-005010     128878006002580008739COATHANGER KIDDIES PL  0000001000+00002630+00000+0001T   00002630+0000001039          1400 JY3212               2AZ
128879000128879               128879               170213YB     1400+00000+YB0000008771+0000008771+000000000+000001228+0000009990+0000000009+I20000000000+0000009990+Z
128879001128879001-091415     128879006003000329113W/GLS OCC. LOVE 2PC 2800000001000+00008771+00000+0001T   00009648+0006471040          1400 JY3515               2AZ
128880000128880               128880               170213YB     1400+00000+YB0000014202+0000014202+000000000+000001990+0000016192+0000000000+I40000016192+0000000000+Z
128880001128880027-009025     128880006003962000747DUSTPAN-SET PL         0000001000+00002630+00000+0001T   00002630+0000001047          1400 JY3212               2AZ
128880002128880133-083230     128880006001023714305T/CLOTH 132x183cm OBLNG0000002000+00003507+00000+0001T   00003507+0000001047          1400 JY3212               2AZ
128880003128880903-002851     128880000000087108538MENTOS ROLL STRAWBERRY 0000001000+00001051+00000+0001T   00001051+0000001047          1400 JY3150               2AZ
128880004128880104-000180     128880006001023765758CUTLERY-TRAY PL        0000001000+00003507+00000+0001T   00003507+0000001047          1400 JY3210               2AZ
128881000128881               128881               170213YB     1400+00000+YB0000001753+0000001753+000000000+000000246+0000001990+0000000009+I20000000000+0000001990+Z
128881001128881077-000240     128881006003000326259G/RIBBON 4PC PEARLIZED 0000001000+00001753+00000+0001T   00001753+0000001048          1400 JY3112               2AZ
128882000128882               128882               170213YB     1400+00000+YB0000002893+0000002893+000000000+000000406+0000003290+0000000009+I20000000000+0000003290+Z
128882001128882036-000151     128882006001023810588COATHANGERS    PACK-10 0000001000+00002893+00000+0001T   00002893+0000001052          1400 JY3212               2AZ
128883000128883               128883               170213YB     1400+00000+YB0000001753+0000001753+000000000+000000246+0000001990+0000000009+I20000000000+0000001990+Z
128883001128883105-001160     128883006003000666409CONTAINER SET LITE 6PC 0000001000+00001753+00000+0001T   00001753+0000001055          1400 JY3210               2AZ
128884000128884               128884               170213YB     1400+00000+YB0000007187+0000007187+000000000+000001009+0000008190+0000000006+I20000000000+0000008190+Z
128884001128884306-000969     128884006003000559350FIRSTAID PLASTER 10PC  0000001000+00001490+00000+0001T   00001490+0000001056          1400 JY3200               2AZ
128884002128884200-003021     128884006003000276370REFUSE BAGS 30xSCENTED 0000001000+00002630+00000+0001T   00002630+0000001056          1400 JY3214               2AZ
128884003128884071-000325     128884006009635844090RULER PLASTIC 30cm     0000001000+00000437+00000+0001T   00000437+0000001056          1400 JY3130               2AZ
128884004128884071-000009     128884006003000098194STATIONERY SET 11 PIECE0000001000+00002630+00000+0001T   00002630+0000001056          1400 JY3130               2AZ
128885000128885               128885               170213YB     1400+00000+YB0000004823+0000004823+000000000+000000676+0000005490+0000000009+I20000000000+0000005490+Z
128885001128885301-085001     128885006003000297610ORN WATERBALL LOVE ASST0000001000+00004823+00000+0001T   00004823+0000001100          1400 JY3505               2AZ
128886000128886               128886               170213YB     1400+00000+YB0000008240+0000008240+000000000+000001155+0000009395+0000000000+I40000009395+0000000000+Z
128886001128886306-000024-A   128886006003000577309COTTON-WOOL-PADS 80PC  0000001000+00001753+00000+0001T   00001753+0000001102          1400 JY3200               2AZ
128886002128886903-000090     128886006009826020821SWT GS CHOCO COINS 60g 0000001000+00002104+00000+0001T   00002104+0000001102          1400 JY3150               2AZ
128886003128886306-000021-A   128886006001023891358EARBUDS COTTON 100PCE  0000001000+00000876+00000+0001T   00000876+0000001102          1400 JY3200               2AZ
128886004128886104-000180     128886006001023765758CUTLERY-TRAY PL        0000001000+00003507+00000+0001T   00003507+0000001102          1400 JY3210               2AZ
128887000128887               128887               170213YB     1400+00000+YB0000005699+0000005699+000000000+000000798+0000006490+0000000007+I20000000000+0000006490+Z
128887001128887486-001012     128887006001023820907CLOCK ALARM SQR 10X12CM0000001000+00004385+00000+0001T   00004385+0000001107          1400 JY3510               2AZ
128887002128887046-000012     128887006904708013062BATTERIES AA  CARD-OF-40000001000+00001314+00000+0001T   00001314+0000001107          1400 JY3312               2AZ
128888000128888               128888               170213YB     1400+00000+YB0000002629+0000002629+000000000+000000369+0000002990+0000000008+I20000000000+0000002990+Z
128888001128888306-000020-A   128888006001023873583TISSUES 100PCE 19x18cm 0000001000+00001753+00000+0001T   00001753+0000001108          1400 JY3200               2AZ
128888002128888306-000021-A   128888006001023891358EARBUDS COTTON 100PCE  0000001000+00000876+00000+0001T   00000876+0000001108          1400 JY3200               2AZ
128889000128889               128889               170213YB     1400+00000+YB0000001753+0000001753+000000000+000000246+0000001999+0000000000+I40000001999+0000000000+Z
128889001128889079-003012     128889006003000447893A/TUBE 75ML VIOLET     0000001000+00001753+00000+0001T   00001753+0000001109          1400 JY3130               2AZ
128890000128890               128890               170213YB     1400+00000+YB0000002630+0000002630+000000000+000000369+0000002990+0000000009+I20000000000+0000002990+Z
128890001128890079-000273     128890006003000160327PAINT BRUSHES THICK    0000001000+00002630+00000+0001T   00002630+0000001110          1400 JY3130               2AZ
128891000128891               128891               170213YB     1400+00000+YB0000004909+0000004909+000000000+000000688+0000005590+0000000007+I20000000000+0000005590+Z
128891001128891304-001011     128891006001023806727FLWR ROSE RED W/BEAR   0000001000+00000613+00000+0001T   00000788+0006471111          1400 JY3510               2AZ
128891002128891038-092233     128891006003000328925TABLE-MAT N/SLIP ASST  0000001000+00003069+00000+0001T   00003507+0008191111          1400 JY3300               2AZ
128891003128891007-000160     128891006009685857286NOTE-BOOK A5 SHORTHAND 0000001000+00001227+00000+0001T   00001227+0000001111          1400 JY3130               2AZ
128892000128892               128892               170213YB     1400+00000+YB0000024730+0000024730+000000000+000003464+0000028190+0000000004+I20000000000+0000028190+Z
128892001128892038-092233     128892006003000328925TABLE-MAT N/SLIP ASST  0000001000+00003069+00000+0001T   00003507+0008191114          1400 JY3300               2AZ
128892002128892105-007515     128892008696287301545STORAGE BOX CLEAR 6L   0000001000+00008771+00000+0001T   00008771+0000001114          1400 JY3210               2AZ
128892003128892105-007011     128892006009654960269HONEY JAR 350ml        0000001000+00000876+00000+0001T   00000876+0000001114          1400 JY3210               2AZ
128892004128892158-000105     128892006001023594952KITCHEN-TOOL-HOLDER CHR0000001000+00006139+00000+0001T   00006139+0000001114          1400 JY3300               2AZ
128892005128892009-001506     128892006001023696090MELAMINE TRAY 39x29cm  0000001000+00004385+00000+0001T   00004385+0000001114          1400 JY3210               2AZ
128892006128892071-000307     128892006003000535118RULER FLEXI 30cm       0000001000+00001490+00000+0001T   00001490+0000001114          1400 JY3130               2AZ
128893000128893               128893               170213YB     1400+00000+YB0000013064+0000013064+000000000+000001830+0000014890+0000000004+I20000000000+0000014890+Z
128893001128893077-000299     128893006003000395576G/BAG 32x25cm LRG LOVE 0000001000+00001490+00000+0001T   00001490+0000001116          1400 JY3112               2AZ
128893002128893304-001011     128893006001023806727FLWR ROSE RED W/BEAR   0000001000+00000613+00000+0001T   00000788+0006471116          1400 JY3510               2AZ
128893003128893018-005009     128893006001023725608MUG W/PLUSH-BEAR LOVE  0000001000+00003507+00000+0001T   00003507+0000001116          1400 JY3515               2AZ
128893004128893030-000030-A   128893006003000249305PLAQUE GLASS LOVE      0000001000+00003069+00000+0001T   00003069+0000001116          1400 JY3505               2AZ
128893005128893031-080508     128893006001023802415P/FRAME PL 22X11CM LOVE0000001000+00004385+00000+0001T   00004385+0000001116          1400 JY3510               2AZ
128894000128894               128894               170213YB     1400+00000+YB0000005873+0000005873+000000000+000000824+0000006690+0000000007+I20000000000+0000006690+Z
128894001128894369-001138-B   128894006003000564972BABY BATH ROYAL DUCKS  0000001000+00002630+00000+0001T   00002630+0000001118          1400 JY3745               2AZ
128894002128894072-000228     128894006003000235940DOG-COL REFLCTV 25-40cm0000001000+00001753+00000+0001T   00001753+0000001118          1400 JY3870               2AZ
128894003128894306-000969     128894006003000559350FIRSTAID PLASTER 10PC  0000001000+00001490+00000+0001T   00001490+0000001118          1400 JY3200               2AZ
128895000128895               128895               170213YB     1400+00000+YB0000001490+0000001490+000000000+000000209+0000001690+0000000009+I20000000000+0000001690+Z
128895001128895002-000878     128895006001023770967STRAINER TEA WIRE 7cm  0000001000+00001490+00000+0001T   00001490+0000001125          1400 JY3300               2AZ
128896000128896               128896               170213YB     1400+00000+YB0000015784+0000015784+000000000+000002210+0000017990+0000000004+I20000000000+0000017990+Z
128896001128896174-000170     128896006003000575978STORAGE BASKET NON-WOVE0000002000+00004385+00000+0001T   00004385+0000001130          1400 JY3205               2AZ
128896002128896032-000236     128896006001023731647MIRROR PL STANDING OVAL0000001000+00003507+00000+0001T   00003507+0000001130          1400 JY3510               2AZ
128896003128896104-000095     128896006003000614714BASKET PL 23x15x12cm   0000001000+00003507+00000+0001T   00003507+0000001130          1400 JY3210               2AZ
128897000128897               128897               170213YB     1400+00000+YB0000006401+0000006401+000000000+000000897+0000007290+0000000008+I20000000000+0000007290+Z
128897001128897159-000043-H   128897006001023416629HOOKS ADHESIVE 3PCE SQR0000001000+00001139+00000+0001T   00001139+0000001133          1400 JY3200               2AZ
128897002128897158-000167     128897006003000569588WASTEPAPER-BASKET 26cm 0000001000+00005262+00000+0001T   00005262+0000001133          1400 JY3300               2AZ
128898000128898               128898               170213YB     1400+00000+YB0000004996+0000004996+000000000+000000701+0000005690+0000000007+I20000000000+0000005690+Z
128898001128898071-005214     128898006003000152544CELLOTAPE SUPER REFILL 0000001000+00001490+00000+0001T   00001490+0000001133          1400 JY3130               2AZ
128898002128898077-000116     128898006003000240777GIFT-WRAP 700mmx2m COL 0000002000+00001753+00000+0001T   00001753+0000001133          1400 JY3112               2AZ
128899000128899               128899               170213YB     1400+00000+YB0000001753+0000001753+000000000+000000246+0000001999+0000000000+I40000001999+0000000000+Z
128899001128899036-000063     128899006009654960436COATHANGERS VIRGIN 5PCE0000001000+00001753+00000+0001T   00001753+0000001142          1400 JY3212               2AZ
128900000128900               128900               170213YB     1400+00000+YB0000009646+0000009646+000000000+000001351+0000010997+0000000000+I40000010997+0000000000+Z
128900001128900031-086224     128900006001023900623P/FRAME WDN GRAIN 13X180000001000+00003507+00000+0001T   00003507+0000001144          1400 JY3510               2AZ
128900002128900174-000014     128900006003000653324LAUNDRY BAG W/DRAWSTRIN0000001000+00006139+00000+0001T   00006139+0000001144          1400 JY3205               2AZ
128901000128901               128901               170213YB     1400+00000+YB0000001139+0000001139+000000000+000000160+0000001290+0000000009+I20000000000+0000001290+Z
128901001128901046-000014     128901006001023725387BATTERIES SIZE:AAA 4PCE0000001000+00001139+00000+0001T   00001139+0000001144          1400 JY3312               2AZ
128902000128902               128902               170213YB     1400+00000+YB0000010261+0000010261+000000000+000001437+0000011698+0000000000+I40000011698+0000000000+Z
128902001128902368-000614     128902006001023705808PLUSH LOVE 30cm        0000001000+00008771+00000+0001T   00008771+0000001146          1400 JY3745               2AZ
128902002128902077-000299     128902006003000395576G/BAG 32x25cm LRG LOVE 0000001000+00001490+00000+0001T   00001490+0000001146          1400 JY3112               2AZ
128903000128903               128903               170213YB     1400+00000+YB0000001314+0000001314+000000000+000000184+0000001490+0000000008+I20000000000+0000001490+Z
128903001128903046-000012     128903006904708013062BATTERIES AA  CARD-OF-40000001000+00001314+00000+0001T   00001314+0000001147          1400 JY3312               2AZ
128904000128904               128904               170213YB     1400+00000+YB0000007454+0000007454+000000000+000001044+0000008498+0000000000+I40000008498+0000000000+Z
128904001128904105-007805     128904006002923018920STORAGE BOX CLEAR 9.5L 0000001000+00005262+00000+0001T   00005262+0000001149          1400 JY3210               2AZ
128904002128904031-000868-A   128904006001023798534P/FRAME PL BLCK 10X15CM0000001000+00002192+00000+0001T   00002192+0000001149          1400 JY3510               2AZ
128905000128905               128905               170213YB     1400+00000+YB0000000876+0000000876+000000000+000000123+0000000990+0000000009+I20000000000+0000000990+Z
128905001128905007-000033     128905006003000535231CARD HOLDER W/LANYARD  0000001000+00000876+00000+0001T   00000876+0000001150          1400 JY3130               2AZ
128906000128906               128906               170213YB     1400+00000+YB0000003069+0000003069+000000000+000000430+0000003490+0000000009+I20000000000+0000003490+Z
128906001128906038-092233     128906006003000328925TABLE-MAT N/SLIP ASST  0000001000+00003069+00000+0001T   00003507+0008191200          1400 JY3300               2AZ
128907000128907               128907               170213YB     1400+00000+YB0000004734+0000004734+000000000+000000663+0000005390+0000000007+I20000000000+0000005390+Z
128907001128907071-081091     128907006001151010287STAED/GENKEM ALL-STICK 0000001000+00001227+00000+0001T   00001227+0000001201          1400 JY3130               2AZ
128907002128907133-083230     128907006001023714305T/CLOTH 132x183cm OBLNG0000001000+00003507+00000+0001T   00003507+0000001201          1400 JY3212               2AZ
128908000128908               128908               170213YB     1400+00000+YB0000020174+0000020174+000000000+000002825+0000022999+0000000000+I40000022999+0000000000+Z
128908001128908072-020238     128908006003000578009PET BED FLEECE X-LARGE 0000001000+00020174+00000+0001T   00020174+0000001219          1400 JY8870               2AZ
128909000128909               128909               170213YB     1400+00000+YB0000002192+0000002192+000000000+000000307+0000002499+0000000000+I40000002499+0000000000+Z
128909001128909032-000336     128909006001023369109MIRROR HANGING MAGNETIC0000001000+00002192+00000+0001T   00002192+0000001220          1400 JY8510               2AZ
128910000128910               128910               170213YB     1400+00000+YB0000000700+0000000700+000000000+000000098+0000000790+0000000008+I20000000000+0000000790+Z
128910001128910564-000012     128910006001023130075BUBBLE BOTTLE MAGIC    0000001000+00000700+00000+0001T   00000700+0000001221          1400 JY8131               2AZ
128911000128911               128911               170213YB     1400+00000+YB0000005260+0000005260+000000000+000000737+0000005990+0000000007+I20000000000+0000005990+Z
128911001128911200-003026     128911006003000276448REFUSE BAGS 10PCE GREEN0000001000+00001753+00000+0001T   00001753+0000001231          1400 JY8214               2AZ
128911002128911174-008023     128911006001023730695PONCHO 132x203cm TWIN-P0000001000+00003507+00000+0001T   00003507+0000001231          1400 JY8205               2AZ
128912000128912               128912               170213YB     1400+00000+YB0000016258+0000016258+000000000+000002277+0000018535+0000000000+I40000018535+0000000000+Z
128912001128912051-500112     128912006003000399925GARDEN KID WTR-CAN 0.6L0000001000+00003507+00000+0001T   00003507+0000001233          1400 JY8820               2AZ
128912002128912080-000116     128912006003000253555CARD&ENVELOPE-HANDMADE 0000001000+00001753+00000+0001T   00001753+0000001233          1400 JY8112               2AZ
128912003128912001-091415     128912006003000329113W/GLS OCC. LOVE 2PC 2800000001000+00008771+00000+0001T   00009648+0006471233          1400 JY8515               2AZ
128912004128912018-000170     128912006001023775528MUG OCC. LOVE 2PC MINI 0000001000+00002192+00000+0001T   00002192+0000001233          1400 JY8515               2AZ
128912005128912112-116038     128912006009681820246TCS CARRIER BAG MIDI   0000001000+00000035+00000+0001T   00000035+0000001233          1400 JY8090               2AZ
128913000128913               128913               170213YB     1400+00000+YB0000001139+0000001139+000000000+000000160+0000001290+0000000009+I20000000000+0000001290+Z
128913001128913903-000087     128913006001704000161SWT SPECKLED-EGGS 50G  0000001000+00001139+00000+0001T   00001139+0000001247          1400 JY8150               2AZ
128914000128914               128914               170213YB     1400+00000+YB0000003155+0000003155+000000000+000000442+0000003597+0000000000+I40000003597+0000000000+Z
128914001128914903-004951     128914006002580020328SWT MALLOW MINI M/SHAKE0000001000+00001227+00000+0001T   00001227+0000001251          1400 JY8150               2AZ
128914002128914050-000361-Z   128914006001023535382PADLOCK IRON 20mm CARD 0000001000+00001928+00000+0001T   00001928+0000001251          1400 JY8855               2AZ
128915000128915               128915               170213YB     1400+00000+YB0000000613+0000000613+000000000+000000086+0000000690+0000000009+I20000000000+0000000690+Z
128915001128915306-000021     128915006001023169433EARBUDS 100PCE IN BAG  0000001000+00000613+00000+0001T   00000613+0000001305          1400 JY8200               2AZ
128916000128916               128916               170213YB     1400+00000+YB0000006139+0000006139+000000000+000000860+0000006990+0000000009+I20000000000+0000006990+Z
128916001128916018-005007     128916006003000515516MUG OCC. LOVE W/HEARTS 0000001000+00006139+00000+0001T   00006139+0000001306          1400 JY8515               2AZ
128917000128917               128917               170213YB     1400+00000+YB0000014205+0000014205+000000000+000001990+0000016195+0000000000+I40000016195+0000000000+Z
128917001128917077-000299     128917006003000395576G/BAG 32x25cm LRG LOVE 0000001000+00001490+00000+0001T   00001490+0000001308          1400 JY8112               2AZ
128917002128917018-005009     128917006001023725608MUG W/PLUSH-BEAR LOVE  0000001000+00003507+00000+0001T   00003507+0000001308          1400 JY8515               2AZ
128917003128917041-093000     128917006003000320882B/GIFT SET 4PC B/RANGE 0000001000+00007016+00000+0001T   00007016+0000001308          1400 JY8200               2AZ
128917004128917080-000127     128917006003000424351VALENTINES DAY 36x24CM 0000001000+00002192+00000+0001T   00002192+0000001308          1400 JY8112               2AZ
128918000128918               128918               170213YB     1400+00000+YB0000003682+0000003682+000000000+000000516+0000004190+0000000008+I20000000000+0000004190+Z
128918001128918077-000299     128918006003000395576G/BAG 32x25cm LRG LOVE 0000001000+00001490+00000+0001T   00001490+0000001309          1400 JY8112               2AZ
128918002128918080-000127     128918006003000424351VALENTINES DAY 36x24CM 0000001000+00002192+00000+0001T   00002192+0000001309          1400 JY8112               2AZ
128919000128919               128919               170213YB     1400+00000+YB0000005522+0000005522+000000000+000000775+0000006297+0000000000+I40000006297+0000000000+Z
128919001128919108-003007     128919006002923006590MUG PL 375ml           0000001000+00000262+00000+0001T   00000262+0000001311          1400 JY8210               2AZ
128919002128919106-001104     128919006003000364794WATER BOTTLE 600ml PL  0000001000+00002630+00000+0001T   00002630+0000001311          1400 JY8210               2AZ
128919003128919306-001622     128919006003000450091INNER SOLES 1-PAIR     0000001000+00002630+00000+0001T   00002630+0000001311          1400 JY8200               2AZ
128920000128920               128920               170213YB     1400+00000+YB0000002192+0000002192+000000000+000000307+0000002499+0000000000+I40000002499+0000000000+Z
128920001128920080-000127     128920006003000424351VALENTINES DAY 36x24CM 0000001000+00002192+00000+0001T   00002192+0000001318          1400 JY8112               2AZ
128921000128921               128921               170213YB     1400+00000+YB0000003900+0000003900+000000000+000000547+0000004440+0000000007+I20000000000+0000004440+Z
128921001128921031-005853     128921006003000442416P/FRAME WDN TWIN HEARTS0000001000+00003507+00000+0001T   00003507+0000001319          1400 JY8510               2AZ
128921002128921903-000183     128921006003000451043SWT LB HEART LOLLY     0000001000+00000393+00000+0001T   00000393+0000001319          1400 JY8150               2AZ
128922000128922               128922               170213YB     1400+00000+YB0000014204+0000014204+000000000+000001991+0000016195+0000000000+I40000016195+0000000000+Z
128922001128922001-091415     128922006003000329113W/GLS OCC. LOVE 2PC 2800000001000+00008771+00000+0001T   00009648+0006471325          1400 JY3515               2AZ
128922002128922039-000108     128922006001023524034TEA-LITE CANDLES 8PCE  0000001000+00001490+00000+0001T   00001490+0000001325          1400 JY3510               2AZ
128922003128922039-001023     128922006003000466337CANDLE TEA-LITE METALIC0000002000+00001753+00000+0001T   00001753+0000001325          1400 JY3510               2AZ
128922004128922083-000049     128922004891035200024CIG-LIGHTER DISPOSABLE 0000001000+00000437+00000+0001T   00000437+0000001325          1400 JY3315               2AZ
128923000128923               128923               170213YB     1400+00000+YB0000007061+0000007061+000000000+000000990+0000008051+0000000000+I40000008051+0000000000+Z
128923001128923080-000115     128923006003000237333CARD&ENVELOPE - BLANKS 0000001000+00001753+00000+0001T   00001753+0000001328          1400 JY3112               2AZ
128923002128923133-083230     128923006001023714305T/CLOTH 132x183cm OBLNG0000001000+00003507+00000+0001T   00003507+0000001328          1400 JY3212               2AZ
128923003128923036-000063     128923006009654960436COATHANGERS VIRGIN 5PCE0000001000+00001753+00000+0001T   00001753+0000001328          1400 JY3212               2AZ
128923004128923112-116069     128923006009681820277TCS CARRIER BAG JUMBO  0000001000+00000048+00000+0001T   00000048+0000001328          1400 JY3090               2AZ
128924000128924               128924               170213YB     1400+00000+YB0000008986+0000008986+000000000+000001260+0000010246+0000000000+I40000010246+0000000000+Z
128924001128924112-116069     128924006009681820277TCS CARRIER BAG JUMBO  0000001000+00000048+00000+0001T   00000048+0000001330          1400 JY3090               2AZ
128924002128924077-000150-D   128924006003000054343GIFT-WRAP CELLPHANE CLR0000004000+00000876+00000+0001T   00000876+0000001330          1400 JY3112               2AZ
128924003128924903-000194     128924006009826020616SWT CHOC RP LOLLY 25G  0000001000+00001314+00000+0001T   00001314+0000001330          1400 JY3150               2AZ
128924004128924304-001011     128924006001023806727FLWR ROSE RED W/BEAR   0000001000+00000613+00000+0001T   00000788+0006471330          1400 JY3510               2AZ
128924005128924018-005009     128924006001023725608MUG W/PLUSH-BEAR LOVE  0000001000+00003507+00000+0001T   00003507+0000001330          1400 JY3515               2AZ
128925000128925               128925               170213YB     1400+00000+YB0000000876+0000000876+000000000+000000123+0000000990+0000000009+I20000000000+0000000990+Z
128925001128925077-000151     128925006008766114676GIFT-WRAP C/PHANE ASSTD0000001000+00000876+00000+0001T   00000876+0000001331          1400 JY3112               2AZ
128926000128926               128926               170213YB     1400+00000+YB0000001752+0000001752+000000000+000000246+0000001998+0000000000+I40000001998+0000000000+Z
128926001128926001-000167     128926006001023679659TUMBLER 340ml WILLY    0000002000+00000876+00000+0001T   00000876+0000001334          1400 JY3515               2AZ
128927000128927               128927               170213YB     1400+00000+YB0000000876+0000000876+000000000+000000123+0000000990+0000000009+I20000000000+0000000990+Z
128927001128927007-000033     128927006003000535231CARD HOLDER W/LANYARD  0000001000+00000876+00000+0001T   00000876+0000001335          1400 JY3130               2AZ
128928000128928               128928               170213YB     1400+00000+YB0000007014+0000007014+000000000+000000982+0000007996+0000000000+I40000007996+0000000000+Z
128928001128928140-001001     128928006001023599926ROACH-TRAPS 5PCE    BOX0000002000+00003507+00000+0001T   00003507+0000001338          1400 JY3830               2AZ
128929000128929               128929               170213YB     1400+00000+YB0000002366+0000002366+000000000+000000332+0000002698+0000000000+I40000002698+0000000000+Z
128929001128929903-000220     128929006001704007368SWT JELLY BEANS 60G    0000001000+00000876+00000+0001T   00000876+0000001339          1400 JY3150               2AZ
128929002128929077-000299     128929006003000395576G/BAG 32x25cm LRG LOVE 0000001000+00001490+00000+0001T   00001490+0000001339          1400 JY3112               2AZ
128930000128930               128930               170213YB     1400+00000+YB0000005262+0000005262+000000000+000000737+0000005999+0000000000+I40000005999+0000000000+Z
128930001128930002-009894     128930006001023796646CUTTING-BOARD 30x40cm  0000001000+00005262+00000+0001T   00005262+0000001343          1400 JY3300               2AZ
128931000128931               128931               170213YB     1400+00000+YB0000005262+0000005262+000000000+000000737+0000005999+0000000000+I40000005999+0000000000+Z
128931001128931174-000141     128931006003000367573STORAGE ORGANISER 30X100000001000+00005262+00000+0001T   00005262+0000001345          1400 JY3205               2AZ
128932000128932               128932               170213YB     1400+00000+YB0000006665+0000006665+000000000+000000934+0000007590+0000000009+I20000000000+0000007590+Z
128932001128932047-000006-H   128932006001023704054M/PLUG 3x16A+3x5A+CARD 0000001000+00006665+00000+0001T   00006665+0000001345          1400 JY3880               2AZ
128933000128933               128933               170213YB     1400+00000+YB0000001665+0000001665+000000000+000000234+0000001890+0000000009+I20000000000+0000001890+Z
128933001128933047-000504-H   128933006001023589958PLUG EURODAPTOR 2PIN HH0000001000+00001665+00000+0001T   00001665+0000001346          1400 JY3880               2AZ
128934000128934               128934               170213YB     1400+00000+YB0000006489+0000006489+000000000+000000909+0000007390+0000000008+I20000000000+0000007390+Z
128934001128934368-000049     128934006003000536955PLUSH BEAR 15cm LOVE   0000001000+00004385+00000+0001T   00004385+0000001348          1400 JY3745               2AZ
128934002128934903-000057     128934006005929000173SWT GS NOVELTY GIANT AL0000001000+00002104+00000+0001T   00002104+0000001348          1400 JY3150               2AZ
128935000128935               128935               170213YB     1400+00000+YB0000010261+0000010261+000000000+000001437+0000011698+0000000000+I40000011698+0000000000+Z
128935001128935031-000924     128935006001023669964P/FRAME COLLAGE PL     0000001000+00008771+00000+0001T   00008771+0000001352          1400 JY3510               2AZ
128935002128935077-000299     128935006003000395576G/BAG 32x25cm LRG LOVE 0000001000+00001490+00000+0001T   00001490+0000001352          1400 JY3112               2AZ
128936000128936               128936               170213YB     1400+00000+YB0000004385+0000004385+000000000+000000614+0000004990+0000000009+I20000000000+0000004990+Z
128936001128936107-004000     128936006001023889256BASIN PL OBLONG        0000001000+00004385+00000+0001T   00004385+0000001355          1400 JY3210               2AZ
128937000128937               128937               170213YB     1400+00000+YB0000002629+0000002629+000000000+000000369+0000002990+0000000008+I20000000000+0000002990+Z
128937001128937306-000024-A   128937006003000577309COTTON-WOOL-PADS 80PC  0000001000+00001753+00000+0001T   00001753+0000001357          1400 JY3200               2AZ
128937002128937306-000021-A   128937006001023891358EARBUDS COTTON 100PCE  0000001000+00000876+00000+0001T   00000876+0000001357          1400 JY3200               2AZ
128938000128938               128938               170213YB     1400+00000+YB0000001753+0000001753+000000000+000000246+0000001990+0000000009+I20000000000+0000001990+Z
128938001128938009-001709     128938006001023807762SALAD BOWL 23cm SWIRL  0000001000+00001753+00000+0001T   00001753+0000001358          1400 JY3210               2AZ
128939000128939               128939               170213YB     1400+00000+YB0000001753+0000001753+000000000+000000246+0000001999+0000000000+I40000001999+0000000000+Z
128939001128939036-000063     128939006009654960436COATHANGERS VIRGIN 5PCE0000001000+00001753+00000+0001T   00001753+0000001359          1400 JY3212               2AZ
128940000128940               128940               170213YB     1400+00000+YB0000016663+0000016663+000000000+000002334+0000018990+0000000007+I20000000000+0000018990+Z
128940001128940304-001115     128940006001023738240FLOWER-BUNCH CARNATIONS0000001000+00005262+00000+0001T   00005262+0000001401          1400 JY3510               2AZ
128940002128940019-000051     128940006003000457304VASE GLS ASSORTED      0000001000+00006139+00000+0001T   00006139+0000001401          1400 JY3510               2AZ
128940003128940304-001116     128940006003000426164F/BUNCH ROSES 12-HEAD  0000001000+00005262+00000+0001T   00005262+0000001401          1400 JY3510               2AZ
128941000128941               128941               170213YB     1400+00000+YB0000001971+0000001971+000000000+000000277+0000002240+0000000008+I20000000000+0000002240+Z
128941001128941080-000118     128941006003000237562CARD&ENVLPE-CONGRATS   0000001000+00001753+00000+0001T   00001753+0000001407          1400 JY3112               2AZ
128941002128941006-000173-B   128941006003000636358BALLOONS HELIUM 1PC WHT0000001000+00000218+00000+0001T   00000218+0000001407          1400 JY3131               2AZ
128942000128942               128942               170213YB     1400+00000+YB0000004559+0000004559+000000000+000000639+0000005190+0000000008+I20000000000+0000005190+Z
128942001128942174-008026     128942006009654960429TRAVEL BOTTLES 2-PACK  0000001000+00003069+00000+0001T   00003069+0000001409          1400 JY3205               2AZ
128942002128942159-000114     128942006001023507945SHOWER CAP PVC ASSTD   0000001000+00001490+00000+0001T   00001490+0000001409          1400 JY3200               2AZ
128943000128943               128943               170213YB     1400+00000+YB0000033370+0000033370+000000000+000004676+0000038046+0000000000+I40000038046+0000000000+Z
128943001128943112-116069     128943006009681820277TCS CARRIER BAG JUMBO  0000001000+00000048+00000+0001T   00000048+0000001412          1400 JY3090               2AZ
128943002128943105-002013     128943006002580008494CONTAINER SET 18PCE    0000001000+00007016+00000+0001T   00007016+0000001412          1400 JY3210               2AZ
128943003128943133-000011     128943006001023905246CLOTH FIBRE 4-PACK BOX 0000001000+00004385+00000+0001T   00004385+0000001412          1400 JY3212               2AZ
128943004128943159-000045     128943006003000467686HOOKS CHROME PLATED 6PC0000001000+00002630+00000+0001T   00002630+0000001412          1400 JY3200               2AZ
128943005128943158-000105     128943006001023594952KITCHEN-TOOL-HOLDER CHR0000001000+00006139+00000+0001T   00006139+0000001412          1400 JY3300               2AZ
128943006128943002-000738     128943006001023770189GRATER 3-WAY PYRAMID   0000001000+00003507+00000+0001T   00003507+0000001412          1400 JY3300               2AZ
128943007128943016-006509     128943006003000567355S/JAR GLS MINI LABEL   0000002000+00001753+00000+0001T   00002192+0008191412          1400 JY3300               2AZ
128943008128943035-000021     128943006002596020206UMBRELLA GENTS         0000001000+00006139+00000+0001T   00006139+0000001412          1400 JY3205               2AZ
128944000128944               128944               170213YB     1400+00000+YB0000003506+0000003506+000000000+000000492+0000003990+0000000008+I20000000000+0000003990+Z
128944001128944039-000318     128944006003000406159B/DAY CANDLES SMALL NO 0000001000+00001753+00000+0001T   00001753+0000001413          1400 JY3510               2AZ
128944002128944080-000111     128944006003000252695CARD&ENVELPE - MUSICAL 0000001000+00001753+00000+0001T   00001753+0000001413          1400 JY3112               2AZ
128945000128945               128945               170213YB     1400+00000+YB0000007977+0000007977+000000000+000001119+0000009090+0000000006+I20000000000+0000009090+Z
128945001128945027-056189     128945006003000582204DISH BRUSH MINI LEGS 150000001000+00001753+00000+0001T   00001753+0000001414          1400 JY3212               2AZ
128945002128945140-006004     128945006001023628077FLY-SWATTER RUBBER     0000002000+00001139+00000+0001T   00001139+0000001414          1400 JY3830               2AZ
128945003128945030-003579     128945006001023999351THERMOMETER B-FLY 35CM 0000001000+00003946+00000+0001T   00003946+0000001414          1400 JY3505               2AZ
128946000128946               128946               170213YB     1400+00000+YB0000001753+0000001753+000000000+000000246+0000001990+0000000009+I20000000000+0000001990+Z
128946001128946012-000001     128946006003000331048MICRO PLATE-COVER 26X6 0000001000+00001753+00000+0001T   00002192+0008191415          1400 JY3300               2AZ
128947000128947               128947               170213YB     1400+00000+YB0000005256+0000005256+000000000+000000736+0000005990+0000000002+I20000000000+0000005990+Z
128947001128947006-000166-H   128947006003000608096BALLOONS HELIUM 6PC WHT0000004000+00001314+00000+0001T   00001314+0000001415          1400 JY3131               2AZ
128948000128948               128948               170213YB     1400+00000+YB0000009202+0000009202+000000000+000001290+0000010490+0000000002+I20000000000+0000010490+Z
128948001128948077-000299     128948006003000395576G/BAG 32x25cm LRG LOVE 0000001000+00001490+00000+0001T   00001490+0000001418          1400 JY3112               2AZ
128948002128948903-000090     128948006009826020821SWT GS CHOCO COINS 60g 0000001000+00002104+00000+0001T   00002104+0000001418          1400 JY3150               2AZ
128948003128948903-004952     128948006002580020052SWT FREAKY FACES 100G  0000001000+00001314+00000+0001T   00001314+0000001418          1400 JY3150               2AZ
128948004128948903-004950     128948006002580020304SWT APRICOT SURPRISE   0000001000+00001314+00000+0001T   00001314+0000001418          1400 JY3150               2AZ
128948005128948903-000095     128948006001704011495SWT SPECKLED-EGGS 100G 0000001000+00002104+00000+0001T   00002104+0000001418          1400 JY3150               2AZ
128948006128948903-000503     128948006001704006118SWT VAMPIRE FANGS 60G  0000001000+00000876+00000+0001T   00000876+0000001418          1400 JY3150               2AZ
128949000128949               128949               170213YB     1400+00000+YB0000001490+0000001490+000000000+000000209+0000001690+0000000009+I20000000000+0000001690+Z
128949001128949046-000004     128949006001023606525BATTERY 9VOLT H/POWER  0000001000+00001490+00000+0001T   00001490+0000001418          1400 JY3312               2AZ
128950000128950               128950               170213YB     1400+00000+YB0000027096+0000027096+000000000+000003796+0000030892+0000000000+I40000030892+0000000000+Z
128950001128950107-004000     128950006001023889256BASIN PL OBLONG        0000002000+00004385+00000+0001T   00004385+0000001420          1400 JY3210               2AZ
128950002128950028-000027     128950006003000275816C/BAG+POCKET 27x18x23cm0000001000+00008771+00000+0001T   00008771+0000001420          1400 JY3305               2AZ
128950003128950055-009258     128950006001023426215P/HOOK+PIN 2PNx7PCE H&H0000002000+00001490+00000+0001T   00001490+0000001420          1400 JY3810               2AZ
128950004128950150-012228-H   128950006001023416773DOOR-STOPPERS SET-OF-2 0000001000+00001753+00000+0001T   00001753+0000001420          1400 JY3810               2AZ
128950005128950220-009100     128950006001023706928ROSE PLACE-SETTING 3PCE0000001000+00002630+00000+0001T   00002630+0000001420          1400 JY3300               2AZ
128950006128950047-005126     128950006001023451255CABLETIES 100/150/200mm0000001000+00002192+00000+0001T   00002192+0000001420          1400 JY3880               2AZ
128951000128951               128951               170213YB     1400+00000+YB0000003946+0000003946+000000000+000000553+0000004490+0000000009+I20000000000+0000004490+Z
128951001128951030-000039     128951006003000465873PLAQUE ORN SENTIMENT   0000001000+00003946+00000+0001T   00005262+0008121421          1400 JY3505               2AZ
128952000128952               128952               170213YB     1400+00000+YB0000024560+0000024560+000000000+000003439+0000027999+0000000000+I40000027999+0000000000+Z
128952001128952496-058431     128952000078257584314POOL SOFT-SIDE 188x46cm0000001000+00024560+00000+0001T   00024560+0000001423          1400 JY3787               2AZ
128953000128953               128953               170213YB     1400+00000+YB0000007454+0000007454+000000000+000001044+0000008498+0000000000+I40000008498+0000000000+Z
128953001128953105-007016     128953006003000685059CONTAINER ROUND CLR    0000001000+00002192+00000+0001T   00002192+0000001425          1400 JY3210               2AZ
128953002128953105-007805     128953006002923018920STORAGE BOX CLEAR 9.5L 0000001000+00005262+00000+0001T   00005262+0000001425          1400 JY3210               2AZ
128954000128954               128954               170213YB     1400+00000+YB0000004383+0000004383+000000000+000000615+0000004990+0000000008+I20000000000+0000004990+Z
128954001128954084-009411     128954006001023629968SCISSORS 17cm PL-HANDLE0000001000+00001753+00000+0001T   00001753+0000001429          1400 JY32002IC            2AZ
128954002128954084-009410     128954006001023477651SCISSORS 21cm PL-HANDLE0000001000+00002630+00000+0001T   00002630+0000001429          1400 JY3200               2AZ
128955000128955               128955               170213YB     1400+00000+YB0000014645+0000014645+000000000+000002052+0000016697+0000000000+I40000016697+0000000000+Z
128955001128955304-001011     128955006001023806727FLWR ROSE RED W/BEAR   0000001000+00000613+00000+0001T   00000788+0006471434          1400 JY3510               2AZ
128955002128955368-000113     128955006001023780874PLUSH BLINGED LOVE 30cm0000001000+00012279+00000+0001T   00012279+0000001434          1400 JY3745               2AZ
128955003128955077-000299-A   128955006003000670888GIFT-BAG PAPER JMB LOVE0000001000+00001753+00000+0001T   00001753+0000001434          1400 JY3112               2AZ
128956000128956               128956               170213YB     1400+00000+YB0000001753+0000001753+000000000+000000246+0000001990+0000000009+I20000000000+0000001990+Z
128956001128956089-000004     128956006003000137749KEY CHAIN MTL CHARMS   0000001000+00001753+00000+0001T   00001753+0000001440          1400 JY3205               2AZ
128957000128957               128957               170213YB     1400+00000+YB0000001753+0000001753+000000000+000000246+0000001990+0000000009+I20000000000+0000001990+Z
128957001128957089-000004     128957006003000137749KEY CHAIN MTL CHARMS   0000001000+00001753+00000+0001T   00001753+0000001441          1400 JY3205               2AZ
128958000128958               128958               170213YB     1400+00000+YB0000006174+0000006174+000000000+000000865+0000007039+0000000000+I40000007039+0000000000+Z
128958001128958004-078980     128958006003000563135HEADPHONES W/CABLE 1.2M0000001000+00006139+00000+0001T   00006139+0000001449          1400 JY3310               2AZ
128958002128958112-116038     128958006009681820246TCS CARRIER BAG MIDI   0000001000+00000035+00000+0001T   00000035+0000001449          1400 JY3090               2AZ
128959000128959               128959               170213YB     1400+00000+YB0000002015+0000002015+000000000+000000283+0000002290+0000000008+I20000000000+0000002290+Z
128959001128959159-000043-H   128959006001023416629HOOKS ADHESIVE 3PCE SQR0000001000+00001139+00000+0001T   00001139+0000001449          1400 JY3200               2AZ
128959002128959252-000011     128959006001023475190CURTN-GLIDER ACETYL x500000001000+00000876+00000+0001T   00000876+0000001449          1400 JY3810               2AZ
128960000128960               128960               170213YB     1400+00000+YB0000032601+0000032601+000000000+000004573+0000037174+0000000000+I40000037174+0000000000+Z
128960001128960112-116069     128960006009681820277TCS CARRIER BAG JUMBO  0000001000+00000048+00000+0001T   00000048+0000001455          1400 JY3090               2AZ
128960002128960016-006511     128960006003000673995S/JAR GLS CHALK W/LID  0000001000+00007016+00000+0001T   00007016+0000001455          1400 JY3300               2AZ
128960003128960079-006500     128960006001023557186GLUE GLITTER 6/10 PCE  0000001000+00001753+00000+0001T   00001753+0000001455          1400 JY3130               2AZ
128960004128960301-085004     128960006003000420469ORN LOVE PLAQUE 21X10CM0000001000+00003507+00000+0001T   00003946+0006471455          1400 JY3505               2AZ
128960005128960077-000151     128960006008766114676GIFT-WRAP C/PHANE ASSTD0000001000+00000876+00000+0001T   00000876+0000001455          1400 JY3112               2AZ
128960006128960903-000120     128960006002099001665SWEET GS ZILLIONS 50g  0000001000+00000700+00000+0001T   00000700+0000001455          1400 JY3150               2AZ
128960007128960903-002851     128960000000087108538MENTOS ROLL STRAWBERRY 0000001000+00001051+00000+0001T   00001051+0000001455          1400 JY3150               2AZ
128960008128960079-009702-D   128960008427973059354PAPER SIRIO A2 RED COL 0000001000+00001051+00000+0001T   00001051+0000001455          1400 JY3130               2AZ
128960009128960079-009700-B   128960006003000547661PAPER SIRIO A4 WHITE   0000015000+00000306+00000+0001T   00000306+0000001455          1400 JY3130               2AZ
128960010128960077-000011-C   128960006001023808523TISSUE 10xSHTS RED     0000001000+00000876+00000+0001T   00000876+0000001455          1400 JY3112               2AZ
128960011128960565-000042     128960006003000252459NOVELTY STRESS BALL    0000001000+00001314+00000+0001T   00001314+0000001455          1400 JY3745               2AZ
128960012128960089-000095     128960006003000457281K/CHAIN SILV 4.3cm     0000001000+00003069+00000+0001T   00003946+0008121455          1400 JY3205               2AZ
128960013128960466-009006     128960006003000639335BALL FOR BEACH BAT 52mm0000001000+00002630+00000+0001T   00002630+0000001455          1400 JY3785               2AZ
128960014128960466-072725     128960006001023622532YO-YO PL               0000001000+00002630+00000+0001T   00002630+0000001455          1400 JY3785               2AZ
128960015128960464-000106     128960006001023171153PLAYING-CARDS (SINGLE) 0000001000+00001490+00000+0001T   00001490+0000001455          1400 JY3785               2AZ
128961000128961               128961               170213YB     1400+00000+YB0000008243+0000008243+000000000+000001155+0000009390+0000000008+I20000000000+0000009390+Z
128961001128961368-000175     128961006003000270316PLUSH BEAR 4 ASSTD 18CM0000001000+00006139+00000+0001T   00006139+0000001456          1400 JY3745               2AZ
128961002128961903-000095     128961006001704011495SWT SPECKLED-EGGS 100G 0000001000+00002104+00000+0001T   00002104+0000001456          1400 JY3150               2AZ
128962000128962               128962               170213YB     1400+00000+YB0000000876+0000000876+000000000+000000123+0000000990+0000000009+I20000000000+0000000990+Z
128962001128962007-000033     128962006003000535231CARD HOLDER W/LANYARD  0000001000+00000876+00000+0001T   00000876+0000001503          1400 JY3130               2AZ
128963000128963               128963               170213YB     1400+00000+YB0000000876+0000000876+000000000+000000123+0000000990+0000000009+I20000000000+0000000990+Z
128963001128963007-000033     128963006003000535231CARD HOLDER W/LANYARD  0000001000+00000876+00000+0001T   00000876+0000001503          1400 JY3130               2AZ
128964000128964               128964               170213YB     1400+00000+YB0000005262+0000005262+000000000+000000737+0000005999+0000000000+I40000005999+0000000000+Z
128964001128964140-005093     128964006003000331338INSECT-KILL RAQT-SHAPED0000001000+00005262+00000+0001T   00005262+0000001507          1400 JY3830               2AZ
128965000128965               128965               170213YB     1400+00000+YB0000000876+0000000876+000000000+000000123+0000000990+0000000009+I20000000000+0000000990+Z
128965001128965903-000220     128965006001704007368SWT JELLY BEANS 60G    0000001000+00000876+00000+0001T   00000876+0000001509          1400 JY3150               2AZ
128966000128966               128966               170213YB     1400+00000+YB0000018416+0000018416+000000000+000002579+0000020995+0000000000+I40000020995+0000000000+Z
128966001128966105-007500     128966008696287301514STORAGE BOX CLEAR 1.25L0000002000+00003507+00000+0001T   00003507+0000001511          1400 JY3210               2AZ
128966002128966105-009015     128966006003000467204STORAGE BOX 32L FROSTED0000001000+00011402+00000+0001T   00011402+0000001511          1400 JY3210               2AZ
128967000128967               128967               170213YB     1400+00000+YB0000010083+0000010083+000000000+000001413+0000011490+0000000006+I20000000000+0000011490+Z
128967001128967046-000012     128967006904708013062BATTERIES AA  CARD-OF-40000001000+00001314+00000+0001T   00001314+0000001513          1400 JY3312               2AZ
128967002128967486-002315     128967006001023740526WALL-CLOCK ROUND 20CM  0000001000+00007016+00000+0001T   00007016+0000001513          1400 JY3510               2AZ
128967003128967077-000900     128967006003000410446G/WRAP 700mmx1m ANIMAL 0000001000+00001753+00000+0001T   00001753+0000001513          1400 JY3112               2AZ
128968000128968               128968               170213YB     1400+00000+YB0000000876+0000000876+000000000+000000123+0000000990+0000000009+I20000000000+0000000990+Z
128968001128968007-000033     128968006003000535231CARD HOLDER W/LANYARD  0000001000+00000876+00000+0001T   00000876+0000001518          1400 JY3130               2AZ
128969000128969               128969               170213YB     1400+00000+YB0000000000+0000000000+000000000+000000000+0000000000+0000000000+I20000000000+0000000000+Z
128969001128969035-000021     128969006002596020206UMBRELLA GENTS         0000001000-00006139+00000+0001T   00006139+0000001521          1400 JY32052IC            2 Z
128969002128969035-000001     128969006002596010566UMBRELLA LADIES W/MINI 0000001000+00006139+00000+0001T   00006139+0000001521          1400 JY3205               2 Z
128970000128970               128970               170213YB     1400+00000+YB0000006139+0000006139+000000000+000000860+0000006999+0000000000+I40000006999+0000000000+Z
128970001128970035-000021     128970006002596020206UMBRELLA GENTS         0000001000+00006139+00000+0001T   00006139+0000001527          1400 JY3205               2AZ
128971000128971               128971               170213YB     1400+00000+YB0000001744+0000001744+000000000+000000248+0000001990+0000000002+I20000000000+0000001990+Z
128971001128971006-000170-A   128971006003000608065BALLOONS 1PC PINK      0000004000+00000218+00000+0001T   00000218+0000001529          1400 JY3131               2AZ
128971002128971006-000170-F   128971006003000608669BALLOONS 1PC WHITE     0000004000+00000218+00000+0001T   00000218+0000001529          1400 JY3131               2AZ
128972000128972               128972               170213YB     1400+00000+YB0000000614-0000000614-000000000+000000085-0000000700-0000000001+I20000000000+0000000700-Z
128972001128972046-000012-A   128972006003000208296BATTERIES H/POWER SZ:AA0000001000-00002192+00000+0001T   00002192+0000001531          1400 JY33122IC            2 Z
128972002128972046-000012     128972006904708013062BATTERIES AA  CARD-OF-40000001000-00001314+00000+0001T   00001314+0000001531          1400 JY33122IC            2 Z
128972003128972046-000014     128972006001023725387BATTERIES SIZE:AAA 4PCE0000001000+00001139+00000+0001T   00001139+0000001531          1400 JY3312               2 Z
128972004128972046-000014-A   128972004897006177708BATTERIES SIZE:AAA 8PCE0000001000+00001753+00000+0001T   00001753+0000001531          1400 JY3312               2 Z
128973000128973               128973               170213YB     1400+00000+YB0000003507+0000003507+000000000+000000491+0000003990+0000000008+I20000000000+0000003990+Z
128973001128973018-005009     128973006001023725608MUG W/PLUSH-BEAR LOVE  0000001000+00003507+00000+0001T   00003507+0000001532          1400 JY3515               2AZ
128974000128974               128974               170213YB     1400+00000+YB0000001578+0000001578+000000000+000000221+0000001790+0000000009+I20000000000+0000001790+Z
128974001128974108-001024     128974006009654960719TUMBLERS PL 4PC 350ml  0000001000+00001578+00000+0001T   00001578+0000001538          1400 JY3210               2AZ
128975000128975               128975               170213YB     1400+00000+YB0000005120+0000005120+000000000+000000718+0000005830+0000000008+I20000000000+0000005830+Z
128975001128975567-000042     128975009781842057889BK DICTIONARY 399PG ENG0000001000+00003946+00000+0001T   00003946+0000001539          1400 JY3757               2AZ
128975002128975007-010192     128975006009635830536BOOK H/COVER A5 192PAGE0000001000+00001139+00000+0001T   00001139+0000001539          1400 JY3130               2AZ
128975003128975112-116038     128975006009681820246TCS CARRIER BAG MIDI   0000001000+00000035+00000+0001T   00000035+0000001539          1400 JY3090               2AZ
128976000128976               128976               170213YB     1400+00000+YB0000011532+0000011532+000000000+000001618+0000013150+0000000000+I20000000000+0000013150+Z
128976001128976016-006720     128976006003000674800S/JAR GLS RHEA 660ML   0000001000+00002630+00000+0001T   00002630+0000001543          1400 JY3300               2AZ
128976002128976220-009001     128976006001023167804ROSE TEASPOON 6PCE     0000001000+00002630+00000+0001T   00002630+0000001543          1400 JY3300               2AZ
128976003128976041-007001     128976006009621683153H/GLO L/SOAP 300ml     0000001000+00002192+00000+0001T   00002192+0000001543          1400 JY3200               2AZ
128976004128976027-009030     128976006002814400100DUSTPAN PL             0000001000+00001402+00000+0001T   00001402+0000001543          1400 JY3212               2AZ
128976005128976105-003025     128976006001023594662CONTAINER RECT 28x19cm 0000001000+00002630+00000+0001T   00002630+0000001543          1400 JY3210               2AZ
128976006128976112-116069     128976006009681820277TCS CARRIER BAG JUMBO  0000001000+00000048+00000+0001T   00000048+0000001543          1400 JY3090               2AZ
128977000128977               128977               170213YB     1400+00000+YB0000022804+0000022804+000000000+000003194+0000025990+0000000008+I20000000000+0000025990+Z
128977001128977368-000637     128977006001023874092PLUSH BEAR SLEEPING LOV0000002000+00011402+00000+0001T   00012279+0006471546          1400 JY3745               2AZ
128978000128978               128978               170213YB     1400+00000+YB0000015783+0000015783+000000000+000002211+0000017994+0000000000+I40000017994+0000000000+Z
128978001128978047-000513-H   128978006001023427496EXT-CORD 5M JANUS 10A  0000001000+00007893+00000+0001T   00007893+0000001554          1400 JY3880               2AZ
128978002128978562-000020     128978006003000600861EDU PLAY DOUGH 60g 4PC 0000001000+00003507+00000+0001T   00003507+0000001554          1400 JY3755               2AZ
128978003128978365-005267     128978006001023584366P/SET KITCHEN BAKING PL0000001000+00003507+00000+0001T   00003507+0000001554          1400 JY3725               2AZ
128978004128978071-001019     128978006001023474513MARKER BLACK NAME-PEN  0000001000+00000876+00000+0001T   00000876+0000001554          1400 JY3130               2AZ
128979000128979               128979               170213YB     1400+00000+YB0000016178+0000016178+000000000+000002268+0000018446+0000000000+I40000018446+0000000000+Z
128979001128979079-009702-D   128979008427973059354PAPER SIRIO A2 RED COL 0000002000+00001051+00000+0001T   00001051+0000001556          1400 JY3130               2AZ
128979002128979031-000870-A   128979006001023798626P/FRAME WOOD WHITE-PINE0000001000+00004385+00000+0001T   00004385+0000001556          1400 JY3510               2AZ
128979003128979903-000844     128979005010478432567SWT CANDY DL LUV HEARTS0000001000+00001314+00000+0001T   00001314+0000001556          1400 JY3150               2AZ
128979004128979903-000619     128979006003000672455SWT LOLLY STR/BRRY 140G0000001000+00001753+00000+0001T   00001753+0000001556          1400 JY3150               2AZ
128979005128979301-085000     128979006003000674299 ORN OCC. LOVE HEARTS  0000003000+00002192+00000+0001T   00002192+0000001556          1400 JY3505               2AZ
128979006128979112-116069     128979006009681820277TCS CARRIER BAG JUMBO  0000001000+00000048+00000+0001T   00000048+0000001556          1400 JY3090               2AZ
128980000128980               128980               170213YB     1400+00000+YB0000028057+0000028057+000000000+000003934+0000031991+0000000000+I40000031991+0000000000+Z
128980001128980035-000023     128980006001023898944UMBRELLA WITH PL COVER 0000001000+00007893+00000+0001T   00007893+0000001559          1400 JY3205               2AZ
128980002128980036-000063     128980006009654960436COATHANGERS VIRGIN 5PCE0000001000+00001753+00000+0001T   00001753+0000001559          1400 JY3212               2AZ
128980003128980174-000175     128980006001023730985LAUNDRY-BAG FOLD-AWAY  0000001000+00002630+00000+0001T   00002630+0000001559          1400 JY3205               2AZ
128980004128980220-009100     128980006001023706928ROSE PLACE-SETTING 3PCE0000001000+00002630+00000+0001T   00002630+0000001559          1400 JY3300               2AZ
128980005128980009-001704     128980006001023807670PLATE 25cm SWIRL DESIGN0000001000+00001753+00000+0001T   00001753+0000001559          1400 JY3210               2AZ
128980006128980133-000036     128980006003000133376CLOTHS M/PURPOSE PACK-20000001000+00001753+00000+0001T   00001753+0000001559          1400 JY3212               2AZ
128980007128980133-000081     128980006003000277315DISH CLOTH 40x70cm     0000001000+00002630+00000+0001T   00002630+0000001559          1400 JY3212               2AZ
128980008128980009-001506     128980006001023696090MELAMINE TRAY 39x29cm  0000001000+00004385+00000+0001T   00004385+0000001559          1400 JY3210               2AZ
128980009128980018-000022     128980006001023648082MUG N/BONE 320ML BARREL0000001000+00002630+00000+0001T   00002630+0000001559          1400 JY3515               2AZ
128981000128981               128981               170213YB     1400+00000+YB0000004385+0000004385+000000000+000000614+0000004999+0000000000+I40000004999+0000000000+Z
128981001128981002-000706     128981006001023111456SPATTER-PREVENTOR 28cm 0000001000+00004385+00000+0001T   00004385+0000001600          1400 JY3300               2AZ
128982000128982               128982               170213YB     1400+00000+YB0000006838+0000006838+000000000+000000959+0000007797+0000000000+I40000007797+0000000000+Z
128982001128982368-000108     128982006001023751461PLUSH ANIMAL BALL ASSTD0000001000+00005262+00000+0001T   00005262+0000001605          1400 JY3745               2AZ
128982002128982903-000200     128982006009826020234SWT CHOC RP CHOCO 23G  0000002000+00000788+00000+0001T   00000788+0000001605          1400 JY3150               2AZ
128983000128983               128983               170213YB     1400+00000+YB0000005436+0000005436+000000000+000000762+0000006198+0000000000+I40000006198+0000000000+Z
128983001128983200-000065     128983006001023323675DRINKING-STRAWS 38PCE  0000001000+00000613+00000+0001T   00000613+0000001606          1400 JY3214               2AZ
128983002128983019-000126     128983006003000329571PLANTER GALV W/HANDLE  0000001000+00004823+00000+0001T   00004823+0000001606          1400 JY3510               2AZ
128984000128984               128984               170213YB     1400+00000+YB0000015787+0000015787+000000000+000002211+0000017990+0000000008+I20000000000+0000017990+Z
128984001128984562-006275     128984006001023836182EDU BOARD W/MARKER ASST0000001000+00007016+00000+0001T   00007016+0000001610          1400 JY3755               2AZ
128984002128984079-000198     128984006003000542475ART+CRAFT SET 66PCE    0000001000+00008771+00000+0001T   00008771+0000001610          1400 JY3130               2AZ
128985000128985               128985               170213YB     1400+00000+YB0000003980+0000003980+000000000+000000558+0000004530+0000000008+I20000000000+0000004530+Z
128985001128985028-000016     128985006001334007004ICE-BRICK CLEAR    400g0000001000+00001753+00000+0001T   00001753+0000001612          1400 JY3305               2AZ
128985002128985051-002400     128985006001023616180TRIGGER-SPRAYER 900ml  0000001000+00002192+00000+0001T   00002192+0000001612          1400 JY3820               2AZ
128985003128985112-116038     128985006009681820246TCS CARRIER BAG MIDI   0000001000+00000035+00000+0001T   00000035+0000001612          1400 JY3090               2AZ
128986000128986               128986               170213YB     1400+00000+YB0000001314+0000001314+000000000+000000184+0000001490+0000000008+I20000000000+0000001490+Z
128986001128986903-000194     128986006009826020616SWT CHOC RP LOLLY 25G  0000001000+00001314+00000+0001T   00001314+0000001613          1400 JY3150               2AZ
128987000128987               128987               170213YB     1400+00000+YB0000005206+0000005206+000000000+000000730+0000005936+0000000000+I40000005936+0000000000+Z
128987001128987464-000106     128987006001023171153PLAYING-CARDS (SINGLE) 0000001000+00001490+00000+0001T   00001490+0000001615          1400 JY3785               2AZ
128987002128987306-000024-A   128987006003000577309COTTON-WOOL-PADS 80PC  0000001000+00001753+00000+0001T   00001753+0000001615          1400 JY3200               2AZ
128987003128987007-000104     128987006009685854865BK COVER BRWN KRFT ROLL0000001000+00000350+00000+0001T   00000350+0000001615          1400 JY3130               2AZ
128987004128987565-000052     128987006003000615551NOVELTY PUTTY FARTS    0000001000+00001578+00000+0001T   00001578+0000001615          1400 JY3745               2AZ
128987005128987112-116038     128987006009681820246TCS CARRIER BAG MIDI   0000001000+00000035+00000+0001T   00000035+0000001615          1400 JY3090               2AZ
128988000128988               128988               170213YB     1400+00000+YB0000013769+0000013769+000000000+000001929+0000015698+0000000000+I40000015698+0000000000+Z
128988001128988368-000111     128988006001023780812PLUSH BEAR/DOG 29CM    0000001000+00012279+00000+0001T   00012279+0000001619          1400 JY3745               2AZ
128988002128988077-000299     128988006003000395576G/BAG 32x25cm LRG LOVE 0000001000+00001490+00000+0001T   00001490+0000001619          1400 JY3112               2AZ
128989000128989               128989               170213YB     1400+00000+YB0000006304+0000006304+000000000+000000888+0000007190+0000000002+I20000000000+0000007190+Z
128989001128989903-000200     128989006009826020234SWT CHOC RP CHOCO 23G  0000008000+00000788+00000+0001T   00000788+0000001621          1400 JY3150               2AZ
128990000128990               128990               170213YB     1400+00000+YB0000002455+0000002455+000000000+000000344+0000002790+0000000009+I20000000000+0000002790+Z
128990001128990071-003858     128990006001023902276STATIONERY SET PENCIL  0000001000+00002455+00000+0001T   00002455+0000001621          1400 JY3130               2AZ
128991000128991               128991               170213YB     1400+00000+YB0000011664+0000011664+000000000+000001634+0000013298+0000000000+I40000013298+0000000000+Z
128991001128991368-000181     128991006003000668052PLUSH BUNNY 27cm       0000001000+00011402+00000+0001T   00011402+0000001624          1400 JY3745               2AZ
128991002128991903-000216     128991006925925900966SWT MALLOW TWIST ERKO  0000001000+00000262+00000+0001T   00000262+0000001624          1400 JY3150               2AZ
128992000128992               128992               170213YB     1400+00000+YB0000001226+0000001226+000000000+000000172+0000001398+0000000000+I40000001398+0000000000+Z
128992001128992006-001000     128992006003000093779HELIUM BALLOON FILL    0000002000+00000613+00000+0001T   00000613+0000001634          1400 JY3131               2AZ
128993000128993               128993               170213YB     1400+00000+YB0000004904+0000004904+000000000+000000688+0000005592+0000000000+I40000005592+0000000000+Z
128993001128993006-001000     128993006003000093779HELIUM BALLOON FILL    0000008000+00000613+00000+0001T   00000613+0000001636          1400 JY3131               2AZ
128994000128994               128994               170213YB     1400+00000+YB0000003069+0000003069+000000000+000000430+0000003499+0000000000+I40000003499+0000000000+Z
128994001128994089-000184     128994006003000577323KEY CHAIN OWL POLY MINI0000001000+00003069+00000+0001T   00003069+0000001639          1400 JY3205               2AZ
128995000128995               128995               170213YB     1400+00000+YB0000001618+0000001618+000000000+000000227+0000001840+0000000005+I20000000000+0000001840+Z
128995001128995903-000070     128995006001704001106SWT TOFFEE CREAMY 35g  0000002000+00000700+00000+0001T   00000700+0000001640          1400 JY3150               2AZ
128995002128995006-000170-F   128995006003000608669BALLOONS 1PC WHITE     0000001000+00000218+00000+0001T   00000218+0000001640          1400 JY3131               2AZ
128996000128996               128996               170213YB     1400+00000+YB0000000831+0000000831+000000000+000000117+0000000948+0000000000+I40000000948+0000000000+Z
128996001128996006-000173-B   128996006003000636358BALLOONS HELIUM 1PC WHT0000001000+00000218+00000+0001T   00000218+0000001643          1400 JY3131               2AZ
128996002128996006-001000     128996006003000093779HELIUM BALLOON FILL    0000001000+00000613+00000+0001T   00000613+0000001643          1400 JY3131               2AZ
128997000128997               128997               170213YB     1400+00000+YB0000004119+0000004119+000000000+000000578+0000004690+0000000007+I20000000000+0000004690+Z
128997001128997089-000019     128997006003000092291K/CHAIN MINI BOOT 13cm 0000001000+00001753+00000+0001T   00001753+0000001643          1400 JY3205               2AZ
128997002128997077-000311     128997006001023608666GIFT-BAG 11X14CM GLOSS 0000001000+00000613+00000+0001T   00000613+0000001643          1400 JY3112               2AZ
128997003128997077-000240     128997006003000326259G/RIBBON 4PC PEARLIZED 0000001000+00001753+00000+0001T   00001753+0000001643          1400 JY3112               2AZ
128998000128998               128998               170213YB     1400+00000+YB0000003069+0000003069+000000000+000000430+0000003499+0000000000+I40000003499+0000000000+Z
128998001128998174-000015     128998006003000559060LAUNDRY BAG LARGE 68x520000001000+00003069+00000+0001T   00003069+0000001652          1400 JY3205               2AZ
128999000128999               128999               170213YB     1400+00000+YB0000040431+0000040431+000000000+000005696+0000046127+0000000000+I40000046127+0000000000+Z
128999001128999903-000151     128999006009803374411SWT SML RND R/BOW LOLLY0000070000+00000525+00000+0001T   00000525+0000001655          1400 JY3150               2AZ
128999002128999903-002900     128999005996071650648QUICK MILK 5 CHOCO 5PC 0000001000+00001578+00000+0001T   00001578+0000001655          1400 JY3150               2AZ
128999003128999903-000482     128999006001704001397SWT SOFT-MINTS 60G     0000001000+00000876+00000+0001T   00000876+0000001655          1400 JY3150               2AZ
128999004128999903-000519     128999006001704012805SWT MS LIQ-O-GHETTI    0000001000+00001227+00000+0001T   00001227+0000001655          1400 JY3150               2AZ
129000000129000               129000               170213YB     1400+00000+YB0000004948+0000004948+000000000+000000694+0000005642+0000000000+I40000005642+0000000000+Z
129000001129000006-001000     129000006003000093779HELIUM BALLOON FILL    0000001000+00000613+00000+0001T   00000613+0000001659          1400 JY3131               2AZ
129000002129000006-000171-H   129000006003000609574BALLOONS 1PC RED PRINT 0000001000+00000218+00000+0001T   00000218+0000001659          1400 JY3131               2AZ
129000003129000006-000327     129000006003000329687G/STICKS 3X20CM H/BANDS0000001000+00001578+00000+0001T   00001578+0000001659          1400 JY3131               2AZ
129000004129000039-000322     129000006001023524157B/CANDLES W/HOLDERS 24 0000001000+00001139+00000+0001T   00001139+0000001659          1400 JY3510               2AZ
129000005129000903-000126     129000006002099003591SWT ZILLIONS MINT 50G  0000001000+00000700+00000+0001T   00000700+0000001659          1400 JY3150               2AZ
129000006129000903-000121     129000006002099001689SWT GS ZILLIONS SOURS  0000001000+00000700+00000+0001T   00000700+0000001659          1400 JY3150               2AZ
129001000129001               129001               170213YB     1400+00000+YB0000001490+0000001490+000000000+000000209+0000001699+0000000000+I40000001699+0000000000+Z
129001001129001071-081100-A   129001006003000326426GLUE-STICK 25g 2pk     0000001000+00001490+00000+0001T   00001490+0000001701          1400 JY3130               2AZ
129002000129002               129002               170213YB     1400+00000+YB0000000876+0000000876+000000000+000000123+0000000990+0000000009+I20000000000+0000000990+Z
129002001129002077-000302     129002008010410010195GIFT-BAG 18X23CM E/D   0000001000+00000876+00000+0001T   00000876+0000001702          1400 JY3112               2AZ
129003000129003               129003               170213YB     1400+00000+YB0000014067+0000014067+000000000+000001970+0000016037+0000000000+I40000016037+0000000000+Z
129003001129003403-000500     129003006003000247592MONEY-BANK DECOR PIGGY 0000001000+00010525+00000+0001T   00010525+0000001704          1400 JY3510               2AZ
129003002129003004-071198     129003006003000528165USB MULTISLOT CARD     0000001000+00003507+00000+0001T   00003507+0000001704          1400 JY3310               2AZ
129003003129003112-116038     129003006009681820246TCS CARRIER BAG MIDI   0000001000+00000035+00000+0001T   00000035+0000001704          1400 JY3090               2AZ
129004000129004               129004               170213YB     1400+00000+YB0000009196+0000009196+000000000+000001289+0000010485+0000000000+I40000010485+0000000000+Z
129004001129004369-001138     129004006003000555185VINYL 8.5cm THEMED DUCK0000001000+00001753+00000+0001T   00002630+0008141707          1400 JY3745               2AZ
129004002129004368-000049     129004006003000536955PLUSH BEAR 15cm LOVE   0000001000+00004385+00000+0001T   00004385+0000001707          1400 JY3745               2AZ
129004003129004089-000501     129004006003000622900KEY CHAIN LIGHT LASER  0000001000+00002192+00000+0001T   00002192+0000001707          1400 JY3205               2AZ
129004004129004112-116038     129004006009681820246TCS CARRIER BAG MIDI   0000001000+00000035+00000+0001T   00000035+0000001707          1400 JY3090               2AZ
129004005129004006-000172-A   129004006003000609765BALLOONS METALLIC PINK 0000001000+00000218+00000+0001T   00000218+0000001707          1400 JY3131               2AZ
129004006129004006-001000     129004006003000093779HELIUM BALLOON FILL    0000001000+00000613+00000+0001T   00000613+0000001707          1400 JY3131               2AZ
129005000129005               129005               170213YB     1400+00000+YB0000008758+0000008758+000000000+000001228+0000009980+0000000006+I20000000000+0000009980+Z
129005001129005006-000166-E   129005006003000516612BALLOONS LRG 6PC GREEN 0000002000+00001314+00000+0001T   00001314+0000001710          1400 JY3131               2AZ
129005002129005006-001000     129005006003000093779HELIUM BALLOON FILL    0000010000+00000613+00000+0001T   00000613+0000001710          1400 JY3131               2AZ
129006000129006               129006               170213YB     1400+00000+YB0000007575+0000007575+000000000+000001062+0000008637+0000000000+I40000008637+0000000000+Z
129006001129006002-010704     129006006003000152605EGG SLICER DBL ASSTD   0000001000+00002192+00000+0001T   00002192+0000001713          1400 JY3300               2AZ
129006002129006002-021040     129006006001023812216PARTY-PICKS 100PCE     0000001000+00000525+00000+0001T   00000525+0000001713          1400 JY3300               2AZ
129006003129006024-000116     129006006001023422286N/STICK C/PAN SQUARE   0000001000+00004823+00000+0001T   00004823+0000001713          1400 JY3300               2AZ
129006004129006112-116038     129006006009681820246TCS CARRIER BAG MIDI   0000001000+00000035+00000+0001T   00000035+0000001713          1400 JY3090               2AZ
129007000129007               129007               170213YB     1400+00000+YB0000000437+0000000437+000000000+000000062+0000000490+0000000009+I20000000000+0000000490+Z
129007001129007080-000133     129007006003000535613CARD&ENV MINI ASTD DSGN0000001000+00000437+00000+0001T   00000437+0000001713          1400 JY3112               2AZ
129008000129008               129008               170213YB     1400+00000+YB0000005787+0000005787+000000000+000000811+0000006590+0000000008+I20000000000+0000006590+Z
129008001129008304-001204     129008006001023737984FLOWER OCC. TEDDY/ROSES0000001000+00001402+00000+0001T   00001490+0006471715          1400 JY3510               2AZ
129008002129008031-080508     129008006001023802415P/FRAME PL 22X11CM LOVE0000001000+00004385+00000+0001T   00004385+0000001715          1400 JY3510               2AZ
129009000129009               129009               170213YB     1400+00000+YB0000007452+0000007452+000000000+000001044+0000008490+0000000006+I20000000000+0000008490+Z
129009001129009024-000042     129009006002580009255M/CUP MINI 30ML H/HOUSE0000001000+00002192+00000+0001T   00002192+0000001716          1400 JY3300               2AZ
129009002129009133-000010-A   129009006001023997647CLEANING CLOTH ROLL 30 0000001000+00003507+00000+0001T   00003507+0000001716          1400 JY3212               2AZ
129009003129009306-000024-A   129009006003000577309COTTON-WOOL-PADS 80PC  0000001000+00001753+00000+0001T   00001753+0000001716          1400 JY3200               2AZ
129010000129010               129010               170213YB     1400+00000+YB0000005256+0000005256+000000000+000000736+0000005990+0000000002+I20000000000+0000005990+Z
129010001129010006-000166-H   129010006003000608096BALLOONS HELIUM 6PC WHT0000004000+00001314+00000+0001T   00001314+0000001718          1400 JY3131               2AZ
129011000129011               129011               170213YB     1400+00000+YB0000014683+0000014683+000000000+000002059+0000016740+0000000002+I20000000000+0000016740+Z
129011001129011007-000104     129011006009685854865BK COVER BRWN KRFT ROLL0000001000+00000350+00000+0001T   00000350+0000001720          1400 JY3130               2AZ
129011002129011903-000844     129011005010478432567SWT CANDY DL LUV HEARTS0000002000+00001314+00000+0001T   00001314+0000001720          1400 JY3150               2AZ
129011003129011079-006494     129011006003000159864GLITTER GLUE 5PCE 11cm 0000001000+00001490+00000+0001T   00001490+0000001720          1400 JY3130               2AZ
129011004129011903-000844     129011005010478432567SWT CANDY DL LUV HEARTS0000001000+00001314+00000+0001T   00001314+0000001720          1400 JY3150               2AZ
129011005129011079-006494     129011006003000159864GLITTER GLUE 5PCE 11cm 0000003000+00001490+00000+0001T   00001490+0000001720          1400 JY3130               2AZ
129011006129011566-002004     129011006001023672421STICKERS CRYSTAL SHAPES0000001000+00001753+00000+0001T   00001753+0000001720          1400 JY3130               2AZ
129011007129011200-000003     129011006003000532360DISPOSABLE BAG 100PC   0000001000+00002630+00000+0001T   00002630+0000001720          1400 JY3214               2AZ
129011008129011112-116069     129011006009681820277TCS CARRIER BAG JUMBO  0000001000+00000048+00000+0001T   00000048+0000001720          1400 JY3090               2AZ
129012000129012               129012               170213YB     1400+00000+YB0000006527+0000006527+000000000+000000917+0000007440+0000000004+I20000000000+0000007440+Z
129012001129012304-001204     129012006001023737984FLOWER OCC. TEDDY/ROSES0000001000+00001402+00000+0001T   00001490+0006471722          1400 JY3510               2AZ
129012002129012018-000129     129012006001023403353MUG OCC. LOVE V-SHAPE  0000001000+00002630+00000+0001T   00002630+0000001722          1400 JY3515               2AZ
129012003129012903-000200     129012006009826020234SWT CHOC RP CHOCO 23G  0000001000+00000788+00000+0001T   00000788+0000001722          1400 JY3150               2AZ
129012004129012903-000183     129012006003000451043SWT LB HEART LOLLY     0000001000+00000393+00000+0001T   00000393+0000001722          1400 JY3150               2AZ
129012005129012903-000194     129012006009826020616SWT CHOC RP LOLLY 25G  0000001000+00001314+00000+0001T   00001314+0000001722          1400 JY3150               2AZ
129013000129013               129013               170213YB     1400+00000+YB0000002102+0000002102+000000000+000000296+0000002390+0000000008+I20000000000+0000002390+Z
129013001129013079-009702-D   129013008427973059354PAPER SIRIO A2 RED COL 0000002000+00001051+00000+0001T   00001051+0000001724          1400 JY3130               2AZ
129014000129014               129014               170213YB     1400+00000+YB0000002630+0000002630+000000000+000000369+0000002990+0000000009+I20000000000+0000002990+Z
129014001129014106-001099     129014006003000653447WATER BOTTLE 650ml     0000001000+00002630+00000+0001T   00002630+0000001739          1400 JY3210               2AZ
129015000129015               129015               170213YB     1400+00000+YB0000002630+0000002630+000000000+000000369+0000002999+0000000000+I40000002999+0000000000+Z
129015001129015106-001099     129015006003000653447WATER BOTTLE 650ml     0000001000+00002630+00000+0001T   00002630+0000001741          1400 JY3210               2AZ
A17021300                                          08402319YBSLAVE 2                       JY31IC
B12887200                                          170213YB567-075699     09335203SLAVE 2     JY31IC0000002000+0000001000+0000000000000+
B12895400                                          170213YB084-009411     14292623SLAVE 2     JY32IC0000002000+0000001000+0000000000000+
C12897200                                          170213YB006-000172-C   15295666SLAVE 2     JY32IC0000000000+0000000000+0010000001000+
M17021391                              CASH        YBSLAVE 2                       Z-REPORT No.   599TOTAL (Sales - Refunds)          12520.98       CASH TO BE BANKED                 5075.50       DEBIT CARDS                          0.00       CREDIT CARDS                      7445.78       Z-READING                        12520.98       AIRTIME DEBIT CARD SALES             0.00       AIRTIME CARD SALES                   0.00       OVERS/UNDERS                         0.30       AIRTIME CASH SALES                   0.00       GIFT CARDS                           0.00       GIFT CARD CASH SALES                 0.00       T O T A L  CASH PAYOUTS              0.00                                                                                                                                                                                                                                                                                                                                                      Z
M17021392                              CASH        YBABSENT                                                                                                                                                                                          ANNUAL LEAVE                                                                                                                                                                                    DAY OFF                                                                                                                                                                                         COMMENTS                                                          0.30 OVER                                                                                                                                                                                                                                                                                                                    Z
Y17021300                                          YB00000001119135+000150
ZYB17021320263 SLAVE 2      SALES DATA                     NEXT INVOICE NO.  129016 0599
X YB Slave 2 First invoice 128865 170213 Last invoice 129015 170213 Next invoice 129016 Total number of records 000000534 clbackup completed 20:26:30
