C13058400                                          170213YB047-000513-H   15502611SLAVE 3     KY12IC0000000000+0000000000+0010000001000+
ZYB17021320263 SLAVE 3      SALES DATA                     NEXT INVOICE NO.  130584 0574
L53814200319931-001-004       YB1702131032101ICNUREN HUMPHRIES                                                                                                                                                                                                                                                                                                                                                                                                                                                                                                                                                                                                                                                                                                                                                                                                                                                                                                                                                                                      Z
L53814200319931-002-004       YB1702131026331ICNUREN HUMPHRIES                                                                                                                                                                                                                                                                                                                                                                                                                                                                                                                                                                                                                                                                                                                                                                                                                                                                                                                                                                                      Z
L53814200319931-003-004       YB1702131013191ICNUREN HUMPHRIES                                                                                                                                                                                                                                                                                                                                                                                                                                                                                                                                                                                                                                                                                                                                                                                                                                                                                                                                                                                      Z
L53814200319931-004-004       YB1702131017171ICNUREN HUMPHRIES                                                                                                                                                                                                                                                                                                                                                                                                                                                                                                                                                                                                                                                                                                                                                                                                                                                                                                                                                                                      Z
L54253400319932-001-003       YB1702131019011ICNUREN HUMPHRIES                                                                                                                                                                                                                                                                                                                                                                                                                                                                                                                                                                                                                                                                                                                                                                                                                                                                                                                                                                                      Z
L54253400319932-002-003       YB1702131028041ICNUREN HUMPHRIES                                                                                                                                                                                                                                                                                                                                                                                                                                                                                                                                                                                                                                                                                                                                                                                                                                                                                                                                                                                      Z
L54253400319932-003-003       YB1702131031531ICNUREN HUMPHRIES                                                                                                                                                                                                                                                                                                                                                                                                                                                                                                                                                                                                                                                                                                                                                                                                                                                                                                                                                                                      Z
L54255400319658-001-004       YB1702131029141ICNUREN HUMPHRIES                                                                                                                                                                                                                                                                                                                                                                                                                                                                                                                                                                                                                                                                                                                                                                                                                                                                                                                                                                                      Z
L54255400319658-002-004       YB1702131007341ICNUREN HUMPHRIES                                                                                                                                                                                                                                                                                                                                                                                                                                                                                                                                                                                                                                                                                                                                                                                                                                                                                                                                                                                      Z
L54255400319658-003-004       YB1702131029221ICNUREN HUMPHRIES                                                                                                                                                                                                                                                                                                                                                                                                                                                                                                                                                                                                                                                                                                                                                                                                                                                                                                                                                                                      Z
L54255400319658-004-004       YB1702131007271ICNUREN HUMPHRIES                                                                                                                                                                                                                                                                                                                                                                                                                                                                                                                                                                                                                                                                                                                                                                                                                                                                                                                                                                                      Z
L54265400323089-001-003       YB1702130958531ICNUREN HUMPHRIES                                                                                                                                                                                                                                                                                                                                                                                                                                                                                                                                                                                                                                                                                                                                                                                                                                                                                                                                                                                      Z
L54265400323089-002-003       YB1702131003431ICNUREN HUMPHRIES                                                                                                                                                                                                                                                                                                                                                                                                                                                                                                                                                                                                                                                                                                                                                                                                                                                                                                                                                                                      Z
L54265400323089-003-003       YB1702130959541ICNUREN HUMPHRIES                                                                                                                                                                                                                                                                                                                                                                                                                                                                                                                                                                                                                                                                                                                                                                                                                                                                                                                                                                                      Z
L54715300326347-001-003       YB1702131013051ICNUREN HUMPHRIES                                                                                                                                                                                                                                                                                                                                                                                                                                                                                                                                                                                                                                                                                                                                                                                                                                                                                                                                                                                      Z
L54715300326347-002-003       YB1702131000201ICNUREN HUMPHRIES                                                                                                                                                                                                                                                                                                                                                                                                                                                                                                                                                                                                                                                                                                                                                                                                                                                                                                                                                                                      Z
L54715300326347-003-003       YB1702131014181ICNUREN HUMPHRIES                                                                                                                                                                                                                                                                                                                                                                                                                                                                                                                                                                                                                                                                                                                                                                                                                                                                                                                                                                                      Z
L54723300327156-001-002       YB1702131011291ICNUREN HUMPHRIES                                                                                                                                                                                                                                                                                                                                                                                                                                                                                                                                                                                                                                                                                                                                                                                                                                                                                                                                                                                      Z
L54723300327156-002-002       YB1702131011351ICNUREN HUMPHRIES                                                                                                                                                                                                                                                                                                                                                                                                                                                                                                                                                                                                                                                                                                                                                                                                                                                                                                                                                                                      Z
L54727300329189-001-003       YB1702131024271ICNUREN HUMPHRIES                                                                                                                                                                                                                                                                                                                                                                                                                                                                                                                                                                                                                                                                                                                                                                                                                                                                                                                                                                                      Z
L54727300329189-002-003       YB1702131014281ICNUREN HUMPHRIES                                                                                                                                                                                                                                                                                                                                                                                                                                                                                                                                                                                                                                                                                                                                                                                                                                                                                                                                                                                      Z
L54733300330258-001-001       YB1702131002021ICNUREN HUMPHRIES                                                                                                                                                                                                                                                                                                                                                                                                                                                                                                                                                                                                                                                                                                                                                                                                                                                                                                                                                                                      Z
L55279900317784-001-005       YB1702131021371ICNUREN HUMPHRIES                                                                                                                                                                                                                                                                                                                                                                                                                                                                                                                                                                                                                                                                                                                                                                                                                                                                                                                                                                                      Z
L55279900317784-002-005       YB1702131012211ICNUREN HUMPHRIES                                                                                                                                                                                                                                                                                                                                                                                                                                                                                                                                                                                                                                                                                                                                                                                                                                                                                                                                                                                      Z
L55279900317784-003-005       YB1702131022551ICNUREN HUMPHRIES                                                                                                                                                                                                                                                                                                                                                                                                                                                                                                                                                                                                                                                                                                                                                                                                                                                                                                                                                                                      Z
L55279900317784-004-005       YB1702131018061ICNUREN HUMPHRIES                                                                                                                                                                                                                                                                                                                                                                                                                                                                                                                                                                                                                                                                                                                                                                                                                                                                                                                                                                                      Z
L55279900317784-005-005       YB1702131009201ICNUREN HUMPHRIES                                                                                                                                                                                                                                                                                                                                                                                                                                                                                                                                                                                                                                                                                                                                                                                                                                                                                                                                                                                      Z
L56267200327463-001-001       YB1702130954371ICNUREN HUMPHRIES                                                                                                                                                                                                                                                                                                                                                                                                                                                                                                                                                                                                                                                                                                                                                                                                                                                                                                                                                                                      Z
L56729300342073-001-001       YB1702131007401ICNUREN HUMPHRIES                                                                                                                                                                                                                                                                                                                                                                                                                                                                                                                                                                                                                                                                                                                                                                                                                                                                                                                                                                                      Z
L56793600330106-001-001       YB1702131017061ICNUREN HUMPHRIES                                                                                                                                                                                                                                                                                                                                                                                                                                                                                                                                                                                                                                                                                                                                                                                                                                                                                                                                                                                      Z
L56798200330146-001-001       YB1702130954441ICNUREN HUMPHRIES                                                                                                                                                                                                                                                                                                                                                                                                                                                                                                                                                                                                                                                                                                                                                                                                                                                                                                                                                                                      Z
L56940000330934-001-001       YB1702131004431ICNUREN HUMPHRIES                                                                                                                                                                                                                                                                                                                                                                                                                                                                                                                                                                                                                                                                                                                                                                                                                                                                                                                                                                                      Z
L57108200335032-001-009       YB1702131020151ICNUREN HUMPHRIES                                                                                                                                                                                                                                                                                                                                                                                                                                                                                                                                                                                                                                                                                                                                                                                                                                                                                                                                                                                      Z
L57108200335032-002-009       YB1702131020481ICNUREN HUMPHRIES                                                                                                                                                                                                                                                                                                                                                                                                                                                                                                                                                                                                                                                                                                                                                                                                                                                                                                                                                                                      Z
L57108200335032-003-009       YB1702131020571ICNUREN HUMPHRIES                                                                                                                                                                                                                                                                                                                                                                                                                                                                                                                                                                                                                                                                                                                                                                                                                                                                                                                                                                                      Z
L57108200335032-004-009       YB1702131015581ICNUREN HUMPHRIES                                                                                                                                                                                                                                                                                                                                                                                                                                                                                                                                                                                                                                                                                                                                                                                                                                                                                                                                                                                      Z
L57108200335032-005-009       YB1702131024141ICNUREN HUMPHRIES                                                                                                                                                                                                                                                                                                                                                                                                                                                                                                                                                                                                                                                                                                                                                                                                                                                                                                                                                                                      Z
L57108200335032-006-009       YB1702130956361ICNUREN HUMPHRIES                                                                                                                                                                                                                                                                                                                                                                                                                                                                                                                                                                                                                                                                                                                                                                                                                                                                                                                                                                                      Z
L57108200335032-007-009       YB1702131003511ICNUREN HUMPHRIES                                                                                                                                                                                                                                                                                                                                                                                                                                                                                                                                                                                                                                                                                                                                                                                                                                                                                                                                                                                      Z
L57108200335032-008-009       YB1702131004551ICNUREN HUMPHRIES                                                                                                                                                                                                                                                                                                                                                                                                                                                                                                                                                                                                                                                                                                                                                                                                                                                                                                                                                                                      Z
L57643700337819-001-001       YB1702131001491ICNUREN HUMPHRIES                                                                                                                                                                                                                                                                                                                                                                                                                                                                                                                                                                                                                                                                                                                                                                                                                                                                                                                                                                                      Z
L57791700341171-001-001       YB1702130954511ICNUREN HUMPHRIES                                                                                                                                                                                                                                                                                                                                                                                                                                                                                                                                                                                                                                                                                                                                                                                                                                                                                                                                                                                      Z
L57813300339498-001-002       YB1702131027471ICNUREN HUMPHRIES                                                                                                                                                                                                                                                                                                                                                                                                                                                                                                                                                                                                                                                                                                                                                                                                                                                                                                                                                                                      Z
L57813300339498-002-002       YB1702131030301ICNUREN HUMPHRIES                                                                                                                                                                                                                                                                                                                                                                                                                                                                                                                                                                                                                                                                                                                                                                                                                                                                                                                                                                                      Z
L58062800357412-001-004       YB1702131025121ICNUREN HUMPHRIES                                                                                                                                                                                                                                                                                                                                                                                                                                                                                                                                                                                                                                                                                                                                                                                                                                                                                                                                                                                      Z
L58062800357412-002-004       YB1702131011181ICNUREN HUMPHRIES                                                                                                                                                                                                                                                                                                                                                                                                                                                                                                                                                                                                                                                                                                                                                                                                                                                                                                                                                                                      Z
L58062800357412-003-004       YB1702131030401ICNUREN HUMPHRIES                                                                                                                                                                                                                                                                                                                                                                                                                                                                                                                                                                                                                                                                                                                                                                                                                                                                                                                                                                                      Z
L58062800357412-004-004       YB1702131015521ICNUREN HUMPHRIES                                                                                                                                                                                                                                                                                                                                                                                                                                                                                                                                                                                                                                                                                                                                                                                                                                                                                                                                                                                      Z
L58064200356719-002-005       YB1702131005031ICNUREN HUMPHRIES                                                                                                                                                                                                                                                                                                                                                                                                                                                                                                                                                                                                                                                                                                                                                                                                                                                                                                                                                                                      Z
L58064200356719-003-005       YB1702131006091ICNUREN HUMPHRIES                                                                                                                                                                                                                                                                                                                                                                                                                                                                                                                                                                                                                                                                                                                                                                                                                                                                                                                                                                                      Z
L58064200356719-005-005       YB1702131006131ICNUREN HUMPHRIES                                                                                                                                                                                                                                                                                                                                                                                                                                                                                                                                                                                                                                                                                                                                                                                                                                                                                                                                                                                      Z
L58405500350509-001-005       YB1702131023021ICNUREN HUMPHRIES                                                                                                                                                                                                                                                                                                                                                                                                                                                                                                                                                                                                                                                                                                                                                                                                                                                                                                                                                                                      Z
L58405500350509-002-005       YB1702131016071ICNUREN HUMPHRIES                                                                                                                                                                                                                                                                                                                                                                                                                                                                                                                                                                                                                                                                                                                                                                                                                                                                                                                                                                                      Z
L58405500350509-003-005       YB1702131016251ICNUREN HUMPHRIES                                                                                                                                                                                                                                                                                                                                                                                                                                                                                                                                                                                                                                                                                                                                                                                                                                                                                                                                                                                      Z
L58405500350509-004-005       YB1702131009421ICNUREN HUMPHRIES                                                                                                                                                                                                                                                                                                                                                                                                                                                                                                                                                                                                                                                                                                                                                                                                                                                                                                                                                                                      Z
L58405500350509-005-005       YB1702131009341ICNUREN HUMPHRIES                                                                                                                                                                                                                                                                                                                                                                                                                                                                                                                                                                                                                                                                                                                                                                                                                                                                                                                                                                                      Z
V53814200000509-005-005       YB1702131009341ICNURE               000000000000000170213000000   SLAVE 3     000000000000319931               04
V54253400000509-005-005       YB1702131009341ICNURE               000000000000000170213000000   SLAVE 3     000000000000319932               03
V54255400000509-005-005       YB1702131009341ICNURE               000000000000000170213000000   SLAVE 3     000000000000319658               04
V54265400000509-005-005       YB1702131009341ICNURE               000000000000000170213000000   SLAVE 3     000000000000323089               03
V54715300000509-005-005       YB1702131009341ICNURE               000000000000000170213000000   SLAVE 3     000000000000326347               03
V54723300000509-005-005       YB1702131009341ICNURE               000000000000000170213000000   SLAVE 3     000000000000327156               02
V54727300000509-005-005       YB1702131009341ICNURE               000000000000000170213000000   SLAVE 3     000000000000329189               03
V54733300000509-005-005       YB1702131009341ICNURE               000000000000000170213000000   SLAVE 3     000000000000330258               01
V55279900000509-005-005       YB1702131009341ICNURE               000000000000000170213000000   SLAVE 3     000000000000317784               05
V56267200000509-005-005       YB1702131009341ICNURE               000000000000000170213000000   SLAVE 3     000000000000327463               01
V56729300000509-005-005       YB1702131009341ICNURE               000000000000000170213000000   SLAVE 3     000000000000342073               01
V56793600000509-005-005       YB1702131009341ICNURE               000000000000000170213000000   SLAVE 3     000000000000330106               01
V56798200000509-005-005       YB1702131009341ICNURE               000000000000000170213000000   SLAVE 3     000000000000330146               01
V56940000000509-005-005       YB1702131009341ICNURE               000000000000000170213000000   SLAVE 3     000000000000330934               01
V57108200000509-005-005       YB1702131009341ICNURE               000000000000000170213000000   SLAVE 3     000000000000335032               09
V57643700000509-005-005       YB1702131009341ICNURE               000000000000000170213000000   SLAVE 3     000000000000337819               01
V57791700000509-005-005       YB1702131009341ICNURE               000000000000000170213000000   SLAVE 3     000000000000341171               01
V57813300000509-005-005       YB1702131009341ICNURE               000000000000000170213000000   SLAVE 3     000000000000339498               02
V58062800000509-005-005       YB1702131009341ICNURE               000000000000000170213000000   SLAVE 3     000000000000357412               04
V58064200000509-005-005       YB1702131009341ICNURE               000000000000000170213000000   SLAVE 3     000000000000356719               05
V58405500000509-005-005       YB1702131009341ICNURE               000000000000000170213000000   SLAVE 3     000000000000350509               05
X YB Slave 3 First invoice 000000 000000 Last invoice 000000 000000 Next invoice 130584 Total number of records 000000079 clbackup completed 20:26:34
