214449000214449               214449               170213YC     1400+00000+YC0000008902+0000008902+000000000+000001249+0000010151+0000000000+I40000010151+0000000000+Z
214449001214449366-006103     214449006001023786944DRESS UP FACE PAINT SET0000001000+00002630+00000+0001T   00002630+0000000906          1400 AJ5131               1AZ
214449002214449006-000200-B   214449006003000096046PARTY GIRL DESIGN 12PCE0000001000+00002630+00000+0001T   00002630+0000000906          1400 AJ5131               1AZ
214449003214449039-000320     214449006001023816153BIRTHDAY-CANDLES 13PCE 0000001000+00002630+00000+0001T   00002630+0000000906          1400 AJ5510               1AZ
214449004214449039-000336     214449006001023169129B'DAY-CANDLES MAGIC 10P0000001000+00000964+00000+0001T   00000964+0000000906          1400 AJ5510               1AZ
214449005214449112-116069     214449006003000535064TCS CARRIER BAG JUMBO  0000001000+00000048+00000+0001T   00000048+0000000906          1400 AJ5090               1AZ
214450000214450               214450               170213YC     1400+00000+YC0000004823+0000004823+000000000+000000676+0000005490+0000000009+I20000000000+0000005490+Z
214450001214450024-000113     214450006001023422194C/PAN N/STICK 20X4.5CM 0000001000+00004823+00000+0001T   00004823+0000001038          1400 AJ5300               1AZ
214451000214451               214451               170213YC     1400+00000+YC0000001139+0000001139+000000000+000000160+0000001290+0000000009+I20000000000+0000001290+Z
214451001214451903-000087     214451006001704000161SWT SPECKLED-EGGS 50G  0000001000+00001139+00000+0001T   00001139+0000001043          1400 AJ5150               1AZ
214452000214452               214452               170213YC     1400+00000+YC0000017585+0000017585+000000000+000002463+0000020048+0000000000+I40000020048+0000000000+Z
214452001214452007-000192     214452006009635830062BOOK H/COVER A4 192PAGE0000001000+00001753+00000+0001T   00001753+0000001109          1400 AJ5130               1AZ
214452002214452051-600636     214452006003000400324PLANTER WALL MOUNT PL  0000002000+00004385+00000+0001T   00004385+0000001109          1400 AJ5820               1AZ
214452003214452174-000180     214452006003000516209MOON BAG NYLON         0000001000+00003507+00000+0001T   00003507+0000001109          1400 AJ5205               1AZ
214452004214452028-001999     214452006001023759535G/CHAIR-COVER 60x60x1100000001000+00003507+00000+0001T   00003507+0000001109          1400 AJ5305               1AZ
214452005214452112-116069     214452006003000535064TCS CARRIER BAG JUMBO  0000001000+00000048+00000+0001T   00000048+0000001109          1400 AJ5090               1AZ
214453000214453               214453               170213YC     1400+00000+YC0000004954-0000004954-000000000+000000692-0000005650-0000000004+I20000000000+0000005650-Z
214453001214453369-061024     214453006008766061024SOFT BALLS W/BELL 4PC  0000001000-00010525+00000+0001T   00010525+0000001116          1400 AJ57452IC            1 Z
214453002214453362-019381     214453006001023869579HAIR BAND SET 100PCE   0000001000+00002630+00000+0001T   00002630+0000001116          1400 AJ5160               1 Z
214453003214453036-000151     214453006001023810588COATHANGERS    PACK-10 0000001000+00002893+00000+0001T   00002893+0000001116          1400 AJ5212               1 Z
214453004214453112-116069     214453006003000535064TCS CARRIER BAG JUMBO  0000001000+00000048+00000+0001T   00000048+0000001116          1400 AJ5090               1 Z
214454000214454               214454               170213YC     1400+00000+YC0000002629+0000002629+000000000+000000369+0000002990+0000000008+I20000000000+0000002990+Z
214454001214454036-000011     214454006003000675890LINT REMOVER REFILL    0000001000+00000876+00000+0001T   00000876+0000001131          1400 AJ5212               1AZ
214454002214454088-000055     214454006003000623068TOILET FRESHENER CISTER0000001000+00001753+00000+0001T   00001753+0000001131          1400 AJ5212               1AZ
214455000214455               214455               170213YC     1400+00000+YC0000007011+0000007011+000000000+000000984+0000007990+0000000005+I20000000000+0000007990+Z
214455001214455036-000606     214455006003000322213WASHING PEGS PACK 20   0000002000+00000876+00000+0001T   00001314+0008191153          1400 AJ5212               1AZ
214455002214455133-000381     214455006001023713674TABLE-CLOTH 132x178cm  0000003000+00001753+00000+0001T   00001753+0000001153          1400 AJ5212               1AZ
214456000214456               214456               170213YC     1400+00000+YC0000011400+0000011400+000000000+000001597+0000012990+0000000007+I20000000000+0000012990+Z
214456001214456158-000167     214456006003000569588WASTEPAPER-BASKET 26cm 0000002000+00005262+00000+0001T   00005262+0000001157          1400 AJ5300               1AZ
214456002214456071-003003     214456006003000144525PEN BALL PEN 3PCE BLACK0000001000+00000876+00000+0001T   00000876+0000001157          1400 AJ5130               1AZ
214457000214457               214457               170213YC     1400+00000+YC0000001490+0000001490+000000000+000000209+0000001690+0000000009+I20000000000+0000001690+Z
214457001214457039-000108     214457006001023524034TEA-LITE CANDLES 8PCE  0000001000+00001490+00000+0001T   00001490+0000001202          1400 AJ5510               1AZ
214458000214458               214458               170213YC     1400+00000+YC0000006174+0000006174+000000000+000000865+0000007039+0000000000+I40000007039+0000000000+Z
214458001214458018-050000     214458006003000412679MUG OCC LOVE TWIN BEAR 0000001000+00006139+00000+0001T   00006139+0000001209          1400 AJ5515               1AZ
214458002214458112-116038     214458006003000534906TCS CARRIER BAG MIDI   0000001000+00000035+00000+0001T   00000035+0000001209          1400 AJ5090               1AZ
214459000214459               214459               170213YC     1400+00000+YC0000015830+0000015830+000000000+000002218+0000018040+0000000008+I20000000000+0000018040+Z
214459001214459077-000299     214459006003000395576G/BAG 32x25cm LRG LOVE 0000001000+00001490+00000+0001T   00001490+0000001324          1400 AJ5112               1AZ
214459002214459080-000127     214459006003000424351VALENTINES DAY 36x24CM 0000001000+00002192+00000+0001T   00002192+0000001324          1400 AJ5112               1AZ
214459003214459007-000614     214459006001023768667DIARY W/LOCK+PEN LOVE  0000001000+00005262+00000+0001T   00005262+0000001324          1400 AJ5130               1AZ
214459004214459018-030000     214459006003000421060MUG OCCASIONS LOVE 2PCE0000001000+00004385+00000+0001T   00004385+0000001324          1400 AJ5515               1AZ
214459005214459903-004950     214459006002580020304SWT APRICOT SURPRISE   0000001000+00001314+00000+0001T   00001314+0000001324          1400 AJ5150               1AZ
214459006214459903-000087     214459006001704000161SWT SPECKLED-EGGS 50G  0000001000+00001139+00000+0001T   00001139+0000001324          1400 AJ5150               1AZ
214459007214459112-116069     214459006003000535064TCS CARRIER BAG JUMBO  0000001000+00000048+00000+0001T   00000048+0000001324          1400 AJ5090               1AZ
214460000214460               214460               170213YC     1400+00000+YC0000007016+0000007016+000000000+000000983+0000007990+0000000009+I20000000000+0000007990+Z
214460001214460263-000417     214460006003000598984VEHICLES MONSTER FRICT.0000001000+00007016+00000+0001T   00007016+0000001336          1400 AJ5710               1AZ
214461000214461               214461               170213YC     1400+00000+YC0000000035+0000000035+000000000+000000005+0000000040+0000000000+I20000000000+0000000040+Z
214461001214461112-116038     214461006009681820246TCS CARRIER BAG MIDI   0000001000+00000035+00000+0001T   00000035+0000001337          1400 AJ5090               1AZ
214462000214462               214462               170213YC     1400+00000+YC0000001314+0000001314+000000000+000000184+0000001490+0000000008+I20000000000+0000001490+Z
214462001214462903-005007     214462006002580020311SWT MALLOW BEAR M/SHAKE0000001000+00001314+00000+0001T   00001314+0000001338          1400 AJ5150               1AZ
214463000214463               214463               170213YC     1400+00000+YC0000001753+0000001753+000000000+000000246+0000001990+0000000009+I20000000000+0000001990+Z
214463001214463024-000083     214463006001023770943SIEVE FLOUR 20cm MTL-RI0000001000+00001753+00000+0001T   00001753+0000001340          1400 AJ5300               1AZ
214464000214464               214464               170213YC     1400+00000+YC0000002630+0000002630+000000000+000000369+0000002990+0000000009+I20000000000+0000002990+Z
214464001214464106-001125     214464006003000666270WATER BOTTLE 600ml     0000001000+00002630+00000+0001T   00002630+0000001350          1400 AJ5210               1AZ
214465000214465               214465               170213YC     1400+00000+YC0000003542+0000003542+000000000+000000496+0000004030+0000000008+I20000000000+0000004030+Z
214465001214465031-000844     214465006001023851789P/FRAME WDN WORDS 2ASS 0000001000+00003507+00000+0001T   00003507+0000001357          1400 AJ5510               1AZ
214465002214465112-116038     214465006003000534906TCS CARRIER BAG MIDI   0000001000+00000035+00000+0001T   00000035+0000001357          1400 AJ5090               1AZ
214466000214466               214466               170213YC     1400+00000+YC0000006577+0000006577+000000000+000000921+0000007490+0000000008+I20000000000+0000007490+Z
214466001214466030-000031-A   214466006003000457588PLAQUE W/WORDS ASSTD   0000001000+00004385+00000+0001T   00004823+0006471358          1400 AJ5505               1AZ
214466002214466080-000127     214466006003000424351VALENTINES DAY 36x24CM 0000001000+00002192+00000+0001T   00002192+0000001358          1400 AJ5112               1AZ
214467000214467               214467               170213YC     1400+00000+YC0000002455+0000002455+000000000+000000344+0000002790+0000000009+I20000000000+0000002790+Z
214467001214467077-000380     214467006003000247585GIFT-BAG 33X45CM S/COL 0000001000+00002455+00000+0001T   00002455+0000001359          1400 AJ5112               1AZ
214468000214468               214468               170213YC     1400+00000+YC0000002630+0000002630+000000000+000000369+0000002990+0000000009+I20000000000+0000002990+Z
214468001214468056-065303     214468006001023821041SUN-SHIELD 2PCE ANIMAL 0000001000+00002630+00000+0001T   00002630+0000001408          1400 AJ5860               1AZ
214469000214469               214469               170213YC     1400+00000+YC0000003156+0000003156+000000000+000000442+0000003590+0000000008+I20000000000+0000003590+Z
214469001214469018-000127     214469006001023380289MUG OCC STRAIGHT LOVE  0000001000+00001578+00000+0001T   00001753+0006471409          1400 AJ5515               1AZ
214469002214469077-000303     214469006001023593757GIFT-BAG PAPER MED     0000001000+00001578+00000+0001T   00001578+0000001409          1400 AJ5112               1AZ
214470000214470               214470               170213YC     1400+00000+YC0000006272+0000006272+000000000+000000879+0000007151+0000000000+I40000007151+0000000000+Z
214470001214470368-000001     214470006003000097982Plush Bear 25cm        0000001000+00004385+00000+0001T   00004385+0000001413          1400 AJ5745               1AZ
214470002214470903-000194     214470006009826020616SWT CHOC RP LOLLY 25G  0000001000+00001314+00000+0001T   00001314+0000001413          1400 AJ5150               1AZ
214470003214470903-000155     214470006009803374435SWT LOLLY I LUV U HEART0000001000+00000525+00000+0001T   00000525+0000001413          1400 AJ5150               1AZ
214470004214470112-116069     214470006003000535064TCS CARRIER BAG JUMBO  0000001000+00000048+00000+0001T   00000048+0000001413          1400 AJ5090               1AZ
214471000214471               214471               170213YC     1400+00000+YC0000001753+0000001753+000000000+000000246+0000001990+0000000009+I20000000000+0000001990+Z
214471001214471089-000230     214471006003000486083KEY CHAIN SILVER BAG   0000001000+00001753+00000+0001T   00002630+0008121414          1400 AJ5205               1AZ
214472000214472               214472               170213YC     1400+00000+YC0000003542+0000003542+000000000+000000496+0000004030+0000000008+I20000000000+0000004030+Z
214472001214472018-000136     214472006001023659026MUG OCC LOVE W/PLUSH   0000001000+00003507+00000+0001T   00003507+0000001420          1400 AJ5515               1AZ
214472002214472112-116038     214472006003000534906TCS CARRIER BAG MIDI   0000001000+00000035+00000+0001T   00000035+0000001420          1400 AJ5090               1AZ
214473000214473               214473               170213YC     1400+00000+YC0000013025+0000013025+000000000+000001825+0000014850+0000000000+I40000014850+0000000000+Z
214473001214473018-000136     214473006001023659026MUG OCC LOVE W/PLUSH   0000001000+00003507+00000+0001T   00003507+0000001427          1400 AJ5515               1AZ
214473002214473077-000303     214473006001023593757GIFT-BAG PAPER MED     0000001000+00001578+00000+0001T   00001578+0000001427          1400 AJ5112               1AZ
214473003214473112-116069     214473006003000535064TCS CARRIER BAG JUMBO  0000001000+00000048+00000+0001T   00000048+0000001427          1400 AJ5090               1AZ
214473004214473466-000071     214473006003000670871BALL FOOTBALL NO.4     0000001000+00005262+00000+0001T   00005262+0000001427          1400 AJ5785               1AZ
214473005214473903-000599     214473006003000608119SWEET BALLOONPUMP 18cm 0000001000+00002630+00000+0001T   00002630+0000001427          1400 AJ5150               1AZ
214474000214474               214474               170213YC     1400+00000+YC0000001578+0000001578+000000000+000000221+0000001790+0000000009+I20000000000+0000001790+Z
214474001214474077-000315     214474006003000181186GIFT-BAG 20x28cm MATT  0000001000+00001578+00000+0001T   00001578+0000001428          1400 AJ5112               1AZ
214475000214475               214475               170213YC     1400+00000+YC0000001753+0000001753+000000000+000000246+0000001990+0000000009+I20000000000+0000001990+Z
214475001214475200-003024     214475006001023657299REFUSE BAGS 20PCE BLACK0000001000+00001753+00000+0001T   00001753+0000001435          1400 AJ5214               1AZ
214476000214476               214476               170213YC     1400+00000+YC0000001490+0000001490+000000000+000000209+0000001690+0000000009+I20000000000+0000001690+Z
214476001214476077-000299     214476006003000395576G/BAG 32x25cm LRG LOVE 0000001000+00001490+00000+0001T   00001490+0000001441          1400 AJ5112               1AZ
214477000214477               214477               170213YC     1400+00000+YC0000007235+0000007235+000000000+000001015+0000008250+0000000000+I20000000000+0000008250+Z
214477001214477077-000151     214477006008766114676GIFT-WRAP C/PHANE ASSTD0000001000+00000876+00000+0001T   00000876+0000001443          1400 AJ5112               1AZ
214477002214477077-000245     214477006001023759214GIFT-RIBBON METALLICx2 0000001000+00001227+00000+0001T   00001227+0000001443          1400 AJ5112               1AZ
214477003214477200-003024     214477006001023657299REFUSE BAGS 20PCE BLACK0000002000+00001753+00000+0001T   00001753+0000001443          1400 AJ5214               1AZ
214477004214477018-000127     214477006001023380289MUG OCC STRAIGHT LOVE  0000001000+00001578+00000+0001T   00001753+0006471443          1400 AJ5515               1AZ
214477005214477112-116069     214477006003000535064TCS CARRIER BAG JUMBO  0000001000+00000048+00000+0001T   00000048+0000001443          1400 AJ5090               1AZ
214478000214478               214478               170213YC     1400+00000+YC0000005747+0000005747+000000000+000000805+0000006552+0000000000+I40000006552+0000000000+Z
214478001214478077-000926     214478006003000414178G/WRAP 700mmx2m LOVE   0000001000+00002192+00000+0001T   00002192+0000001453          1400 AJ5112               1AZ
214478002214478018-000136     214478006001023659026MUG OCC LOVE W/PLUSH   0000001000+00003507+00000+0001T   00003507+0000001453          1400 AJ5515               1AZ
214478003214478112-116069     214478006003000535064TCS CARRIER BAG JUMBO  0000001000+00000048+00000+0001T   00000048+0000001453          1400 AJ5090               1AZ
214479000214479               214479               170213YC     1400+00000+YC0000000788+0000000788+000000000+000000111+0000000890+0000000009+I20000000000+0000000890+Z
214479001214479903-000138     214479006002099004314SWT GS WINE GUMS 60G   0000001000+00000788+00000+0001T   00000788+0000001454          1400 AJ5150               1AZ
214480000214480               214480               170213YC     1400+00000+YC0000005415+0000005415+000000000+000000766+0000006181+0000000000+I40000006181+0000000000+Z
214480001214480566-001234     214480006003000217793STICKERS LASER ASSTD   0000001000+00001578+00000+0001T   00001578+0000001457          1400 AJ5130               1AZ
214480002214480903-000183     214480006003000451043SWT LB HEART LOLLY     0000007000+00000393+00000+0001T   00000393+0000001457          1400 AJ5150               1AZ
214480003214480903-002891     214480008935001721376MENTOS GUM WINTERGREEN 0000001000+00001051+00000+0001T   00001051+0000001457          1400 AJ5150               1AZ
214480004214480112-116038     214480006003000534906TCS CARRIER BAG MIDI   0000001000+00000035+00000+0001T   00000035+0000001457          1400 AJ5090               1AZ
214481000214481               214481               170213YC     1400+00000+YC0000003541+0000003541+000000000+000000497+0000004030+0000000008+I20000000000+0000004030+Z
214481001214481112-116038     214481006003000534906TCS CARRIER BAG MIDI   0000001000+00000035+00000+0001T   00000035+0000001507          1400 AJ5090               1AZ
214481002214481200-003026     214481006003000276448REFUSE BAGS 10PCE GREEN0000001000+00001753+00000+0001T   00001753+0000001507          1400 AJ5214               1AZ
214481003214481200-003024     214481006001023657299REFUSE BAGS 20PCE BLACK0000001000+00001753+00000+0001T   00001753+0000001507          1400 AJ5214               1AZ
214482000214482               214482               170213YC     1400+00000+YC0000005294+0000005294+000000000+000000743+0000006030+0000000007+I20000000000+0000006030+Z
214482001214482301-085006     214482006001023502940ORN LOVE MSG TUBE W/HRT0000003000+00001753+00000+0001T   00001753+0000001509          1400 AJ5505               1AZ
214482002214482112-116038     214482006003000534906TCS CARRIER BAG MIDI   0000001000+00000035+00000+0001T   00000035+0000001509          1400 AJ5090               1AZ
214483000214483               214483               170213YC     1400+00000+YC0000014945+0000014945+000000000+000002093+0000017038+0000000000+I40000017038+0000000000+Z
214483001214483001-091415     214483006003000329113W/GLS OCC. LOVE 2PC 2800000001000+00008771+00000+0001T   00009648+0006471512          1400 AJ5515               1AZ
214483002214483002-000097     214483006001023489784CAN-OPENER             0000001000+00006139+00000+0001T   00006139+0000001512          1400 AJ5300               1AZ
214483003214483112-116038     214483006003000534906TCS CARRIER BAG MIDI   0000001000+00000035+00000+0001T   00000035+0000001512          1400 AJ5090               1AZ
214484000214484               214484               170213YC     1400+00000+YC0000017542+0000017542+000000000+000002456+0000019990+0000000008+I20000000000+0000019990+Z
214484001214484369-004006     214484006001023826664BABY PLAY-GYM          0000001000+00017542+00000+0001T   00017542+0000001520          1400 AJ5745               1AZ
214485000214485               214485               170213YC     1400+00000+YC0000002192+0000002192+000000000+000000307+0000002490+0000000009+I20000000000+0000002490+Z
214485002214485006-000789     214485006001023148612CROWN BOY              0000001000+00002192+00000+0001T   00002192+0000001521          1400 AJ5131               1AZ
214486000214486               214486               170213YC     1400+00000+YC0000001349+0000001349+000000000+000000189+0000001530+0000000008+I20000000000+0000001530+Z
214486001214486012-000001-A   214486006003000697663MICROWAVES PLATE-COVER 0000001000+00001314+00000+0001T   00001314+0000001522          1400 AJ5300               1AZ
214486002214486112-116038     214486006003000534906TCS CARRIER BAG MIDI   0000001000+00000035+00000+0001T   00000035+0000001522          1400 AJ5090               1AZ
214487000214487               214487               170213YC     1400+00000+YC0000008112+0000008112+000000000+000001137+0000009249+0000000000+I10000005249+0000004000+Z
214487001214487903-000194     214487006009826020616SWT CHOC RP LOLLY 25G  0000001000+00001314+00000+0001T   00001314+0000001527          1400 AJ5150               1AZ
214487002214487039-000114     214487006001023524058CANDLE T/LITE RED 3.5CM0000001000+00001753+00000+0001T   00001753+0000001527          1400 AJ5510               1AZ
214487003214487077-000299     214487006003000395576G/BAG 32x25cm LRG LOVE 0000001000+00001490+00000+0001T   00001490+0000001527          1400 AJ5112               1AZ
214487004214487018-000130     214487006001023867537MUG OCC LOVE MINI+HEART0000001000+00003507+00000+0001T   00003507+0000001527          1400 AJ5515               1AZ
214487005214487112-116069     214487006003000535064TCS CARRIER BAG JUMBO  0000001000+00000048+00000+0001T   00000048+0000001527          1400 AJ5090               1AZ
214488000214488               214488               170213YC     1400+00000+YC0000010481+0000010481+000000000+000001469+0000011950+0000000000+I40000011950+0000000000+Z
214488001214488018-005007     214488006003000515516MUG OCC. LOVE W/HEARTS 0000001000+00006139+00000+0001T   00006139+0000001530          1400 AJ5515               1AZ
214488002214488077-000299     214488006003000395576G/BAG 32x25cm LRG LOVE 0000001000+00001490+00000+0001T   00001490+0000001530          1400 AJ5112               1AZ
214488003214488903-000194     214488006009826020616SWT CHOC RP LOLLY 25G  0000001000+00001314+00000+0001T   00001314+0000001530          1400 AJ5150               1AZ
214488004214488464-000106     214488006001023171153PLAYING-CARDS (SINGLE) 0000001000+00001490+00000+0001T   00001490+0000001530          1400 AJ5785               1AZ
214488005214488112-116069     214488006003000535064TCS CARRIER BAG JUMBO  0000001000+00000048+00000+0001T   00000048+0000001530          1400 AJ5090               1AZ
214489000214489               214489               170213YC     1400+00000+YC0000005734+0000005734+000000000+000000803+0000006530+0000000007+I20000000000+0000006530+Z
214489001214489001-000175     214489006001023788108B/MUG GLS LOVE 380ML   0000001000+00004385+00000+0001T   00004385+0000001532          1400 AJ5515               1AZ
214489002214489112-116038     214489006003000534906TCS CARRIER BAG MIDI   0000001000+00000035+00000+0001T   00000035+0000001532          1400 AJ5090               1AZ
214489003214489903-000194     214489006009826020616SWT CHOC RP LOLLY 25G  0000001000+00001314+00000+0001T   00001314+0000001532          1400 AJ5150               1AZ
214490000214490               214490               170213YC     1400+00000+YC0000005085+0000005085+000000000+000000712+0000005790+0000000007+I20000000000+0000005790+Z
214490001214490077-000303     214490006001023593757GIFT-BAG PAPER MED     0000001000+00001578+00000+0001T   00001578+0000001535          1400 AJ5112               1AZ
214490002214490018-000136     214490006001023659026MUG OCC LOVE W/PLUSH   0000001000+00003507+00000+0001T   00003507+0000001535          1400 AJ5515               1AZ
214491000214491               214491               170213YC     1400+00000+YC0000033378+0000033378+000000000+000004704+0000038082+0000000000+I40000038082+0000000000+Z
214491001214491903-000183     214491006003000451043SWT LB HEART LOLLY     0000020000+00000393+00000+0001T   00000393+0000001538          1400 AJ5150               1AZ
214491002214491903-000200     214491006009826020234SWT CHOC RP CHOCO 23G  0000011000+00000788+00000+0001T   00000788+0000001538          1400 AJ5150               1AZ
214491003214491903-000155     214491006009803374435SWT LOLLY I LUV U HEART0000007000+00000525+00000+0001T   00000525+0000001538          1400 AJ5150               1AZ
214491004214491903-000194     214491006009826020616SWT CHOC RP LOLLY 25G  0000010000+00001314+00000+0001T   00001314+0000001538          1400 AJ5150               1AZ
214491005214491112-116038     214491006003000534906TCS CARRIER BAG MIDI   0000001000+00000035+00000+0001T   00000035+0000001538          1400 AJ5090               1AZ
214492000214492               214492               170213YC     1400+00000+YC0000002455+0000002455+000000000+000000344+0000002790+0000000009+I20000000000+0000002790+Z
214492001214492077-000380     214492006003000247585GIFT-BAG 33X45CM S/COL 0000001000+00002455+00000+0001T   00002455+0000001543          1400 AJ5112               1AZ
214493000214493               214493               170213YC     1400+00000+YC0000007939+0000007939+000000000+000001113+0000009050+0000000002+I20000000000+0000009050+Z
214493001214493031-005840     214493006001023481412P/FRAME-CLIP 30X40CM   0000001000+00004385+00000+0001T   00004385+0000001547          1400 AJ5510               1AZ
214493002214493028-000904     214493006001023778949SKEWERS ESPETADA STICKS0000001000+00001753+00000+0001T   00001753+0000001547          1400 AJ5305               1AZ
214493003214493028-000796-A   214493006001023897152SKEWERS BAMBOO 100P 4mm0000001000+00001753+00000+0001T   00001753+0000001547          1400 AJ5305               1AZ
214493004214493112-116069     214493006003000535064TCS CARRIER BAG JUMBO  0000001000+00000048+00000+0001T   00000048+0000001547          1400 AJ5090               1AZ
214494000214494               214494               170213YC     1400+00000+YC0000000437+0000000437+000000000+000000062+0000000490+0000000009+I20000000000+0000000490+Z
214494001214494903-000885     214494008690997017147SWT L/BIRD CHOC BISCUIT0000001000+00000437+00000+0001T   00000437+0000001548          1400 AJ5150               1AZ
214495000214495               214495               170213YC     1400+00000+YC0000005262+0000005262+000000000+000000737+0000005990+0000000009+I20000000000+0000005990+Z
214495001214495263-000623     214495006001023905697VEHICLE HELICOPTER 30cm0000001000+00005262+00000+0001T   00005262+0000001549          1400 AJ5710               1AZ
214496000214496               214496               170213YC     1400+00000+YC0000002630+0000002630+000000000+000000369+0000002990+0000000009+I20000000000+0000002990+Z
214496001214496567-011902     214496006003000676040BK FOOD GOLDEN CLOUD   0000001000+00002630+00000+0001T   00002630+0000001554          1400 AJ5757               1AZ
214497000214497               214497               170213YC     1400+00000+YC0000015562+0000015562+000000000+000002183+0000017740+0000000005+I20000000000+0000017740+Z
214497001214497112-116069     214497006003000535064TCS CARRIER BAG JUMBO  0000001000+00000048+00000+0001T   00000048+0000001557          1400 AJ5090               1AZ
214497002214497203-003072     214497006001023888884C/SCREW DBL LEVR PL BLK0000001000+00002630+00000+0001T   00002630+0000001557          1400 AJ5300               1AZ
214497003214497006-000166-D   214497006003000516490BALLOONS LRG 6PC RED   0000001000+00001314+00000+0001T   00001314+0000001557          1400 AJ5131               1AZ
214497004214497077-000010-C   214497006001023123879CREPE-PAPER RED        0000001000+00000788+00000+0001T   00000788+0000001557          1400 AJ5112               1AZ
214497005214497077-000239     214497006003000160419GIFT-RIBBON ROLL PEARL 0000001000+00001753+00000+0001T   00001753+0000001557          1400 AJ5112               1AZ
214497006214497366-007601     214497006003000655472DRESS UP MASK THEATRICA0000001000+00000876+00000+0001T   00000876+0000001557          1400 AJ5131               1AZ
214497007214497039-001020     214497006001023617798CANDLES FLOATING BOX-4 0000002000+00002455+00000+0001T   00002455+0000001557          1400 AJ5510               1AZ
214497008214497039-000108     214497006001023524034TEA-LITE CANDLES 8PCE  0000001000+00001490+00000+0001T   00001490+0000001557          1400 AJ5510               1AZ
214497009214497039-000114     214497006001023524058CANDLE T/LITE RED 3.5CM0000001000+00001753+00000+0001T   00001753+0000001557          1400 AJ5510               1AZ
214498000214498               214498               170213YC     1400+00000+YC0000012326+0000012326+000000000+000001727+0000014053+0000000000+I40000014053+0000000000+Z
214498001214498035-000021     214498006002596020206UMBRELLA GENTS         0000002000+00006139+00000+0001T   00006139+0000001602          1400 AJ5205               1AZ
214498002214498112-116069     214498006003000535064TCS CARRIER BAG JUMBO  0000001000+00000048+00000+0001T   00000048+0000001602          1400 AJ5090               1AZ
214499000214499               214499               170213YC     1400+00000+YC0000000876+0000000876+000000000+000000123+0000000990+0000000009+I20000000000+0000000990+Z
214499001214499071-003003     214499006003000144525PEN BALL PEN 3PCE BLACK0000001000+00000876+00000+0001T   00000876+0000001608          1400 AJ5130               1AZ
214500000214500               214500               170213YC     1400+00000+YC0000002135+0000002135+000000000+000000299+0000002430+0000000004+I20000000000+0000002430+Z
214500001214500018-000177     214500006001023797513MUG MINI LOVE ASSTD    0000003000+00000700+00000+0001T   00000700+0000001613          1400 AJ5515               1AZ
214500002214500112-116038     214500006003000534906TCS CARRIER BAG MIDI   0000001000+00000035+00000+0001T   00000035+0000001613          1400 AJ5090               1AZ
214501000214501               214501               170213YC     1400+00000+YC0000010204+0000010204+000000000+000001429+0000011630+0000000003+I20000000000+0000011630+Z
214501001214501077-000303     214501006001023593757GIFT-BAG PAPER MED     0000002000+00001578+00000+0001T   00001578+0000001626          1400 AJ5112               1AZ
214501002214501903-000194     214501006009826020616SWT CHOC RP LOLLY 25G  0000002000+00001314+00000+0001T   00001314+0000001626          1400 AJ5150               1AZ
214501003214501368-000049     214501006003000536955PLUSH BEAR 15cm LOVE   0000001000+00004385+00000+0001T   00004385+0000001626          1400 AJ5745               1AZ
214501004214501112-116038     214501006003000534906TCS CARRIER BAG MIDI   0000001000+00000035+00000+0001T   00000035+0000001626          1400 AJ5090               1AZ
214502000214502               214502               170213YC     1400+00000+YC0000002630+0000002630+000000000+000000369+0000002990+0000000009+I20000000000+0000002990+Z
214502001214502077-000270     214502006003000395453GIFT-BAG PPR JMB 33X45 0000001000+00002630+00000+0001T   00002630+0000001626          1400 AJ5112               1AZ
214503000214503               214503               170213YC     1400+00000+YC0000000048+0000000048+000000000+000000007+0000000050+0000000005+I20000000000+0000000050+Z
214503001214503112-116069     214503006009681820277TCS CARRIER BAG JUMBO  0000001000+00000048+00000+0001T   00000048+0000001628          1400 AJ5090               1AZ
214504000214504               214504               170213YC     1400+00000+YC0000006574+0000006574+000000000+000000922+0000007490+0000000006+I20000000000+0000007490+Z
214504001214504563-000317-E   214504006001023776280SERVIETTES 20PK KIDS   0000002000+00002630+00000+0001T   00002630+0000001630          1400 AJ5214               1AZ
214504002214504563-000317-B   214504006001023776174SERVIETTES PLN WHT PK400000001000+00001314+00000+0001T   00001314+0000001630          1400 AJ5214               1AZ
214505000214505               214505               170213YC     1400+00000+YC0000006787+0000006787+000000000+000000951+0000007738+0000000000+I40000007738+0000000000+Z
214505001214505019-000020     214505006003000673612VASE GLS 22CM BAUBLE   0000001000+00005262+00000+0001T   00005262+0000001641          1400 AJ5510               1AZ
214505002214505039-000108     214505006001023524034TEA-LITE CANDLES 8PCE  0000001000+00001490+00000+0001T   00001490+0000001641          1400 AJ5510               1AZ
214505003214505112-116038     214505006003000534906TCS CARRIER BAG MIDI   0000001000+00000035+00000+0001T   00000035+0000001641          1400 AJ5090               1AZ
214506000214506               214506               170213YC     1400+00000+YC0000005259+0000005259+000000000+000000738+0000005990+0000000007+I20000000000+0000005990+Z
214506001214506089-000004     214506006003000137749KEY CHAIN MTL CHARMS   0000001000+00001753+00000+0001T   00001753+0000001653          1400 AJ5205               1AZ
214506002214506089-000027     214506006003000254071KEY CHAIN MOM/DAD ASSTD0000002000+00001753+00000+0001T   00001753+0000001653          1400 AJ5205               1AZ
214507000214507               214507               170213YC     1400+00000+YC0000005085+0000005085+000000000+000000712+0000005790+0000000007+I20000000000+0000005790+Z
214507001214507077-000303     214507006001023593757GIFT-BAG PAPER MED     0000001000+00001578+00000+0001T   00001578+0000001702          1400 AJ5112               1AZ
214507002214507018-005009     214507006001023725608MUG W/PLUSH-BEAR LOVE  0000001000+00003507+00000+0001T   00003507+0000001702          1400 AJ5515               1AZ
214508000214508               214508               170213YC     1400+00000+YC0000000048+0000000048+000000000+000000007+0000000050+0000000005+I20000000000+0000000050+Z
214508001214508112-116069     214508006003000535064TCS CARRIER BAG JUMBO  0000001000+00000048+00000+0001T   00000048+0000001704          1400 AJ5090               1AZ
214509000214509               214509               170213YC     1400+00000+YC0000001051+0000001051+000000000+000000148+0000001190+0000000009+I20000000000+0000001190+Z
214509001214509079-009702-C   214509008427973059309PAPER SIRIO A2 VIOLET  0000001000+00001051+00000+0001T   00001051+0000001705          1400 AJ5130               1AZ
214510000214510               214510               170213YC     1400+00000+YC0000004431+0000004431+000000000+000000622+0000005050+0000000003+I20000000000+0000005050+Z
214510001214510027-000090     214510006001023588265WINDOW-CLEANER LONG-HND0000001000+00002630+00000+0001T   00002630+0000001707          1400 AJ5212               1AZ
214510002214510033-000119     214510006003000285563COMBS PL STYLING 3PC   0000001000+00001753+00000+0001T   00001753+0000001707          1400 AJ5200               1AZ
214510003214510112-116069     214510006003000535064TCS CARRIER BAG JUMBO  0000001000+00000048+00000+0001T   00000048+0000001707          1400 AJ5090               1AZ
214511000214511               214511               170213YC     1400+00000+YC0000001490+0000001490+000000000+000000209+0000001690+0000000009+I20000000000+0000001690+Z
214511001214511077-000299     214511006003000395576G/BAG 32x25cm LRG LOVE 0000001000+00001490+00000+0001T   00001490+0000001709          1400 AJ5112               1AZ
214512000214512               214512               170213YC     1400+00000+YC0000003243+0000003243+000000000+000000455+0000003690+0000000008+I20000000000+0000003690+Z
214512001214512077-000299     214512006003000395576G/BAG 32x25cm LRG LOVE 0000001000+00001490+00000+0001T   00001490+0000001714          1400 AJ5112               1AZ
214512002214512080-000115     214512006003000237333CARD&ENVELOPE - BLANKS 0000001000+00001753+00000+0001T   00001753+0000001714          1400 AJ5112               1AZ
214513000214513               214513               170213YC     1400+00000+YC0000003419+0000003419+000000000+000000479+0000003898+0000000000+I40000003898+0000000000+Z
214513001214513077-000245     214513006001023759214GIFT-RIBBON METALLICx2 0000001000+00001227+00000+0001T   00001227+0000001715          1400 AJ5112               1AZ
214513002214513566-000359     214513006003000582709STICKER BOOK LOVE SPARK0000001000+00002192+00000+0001T   00002192+0000001715          1400 AJ5130               1AZ
214514000214514               214514               170213YC     1400+00000+YC0000004385+0000004385+000000000+000000614+0000004990+0000000009+I20000000000+0000004990+Z
214514001214514368-000049     214514006003000536955PLUSH BEAR 15cm LOVE   0000001000+00004385+00000+0001T   00004385+0000001716          1400 AJ5745               1AZ
214515000214515               214515               170213YC     1400+00000+YC0000003555+0000003555+000000000+000000498+0000004053+0000000000+I40000004053+0000000000+Z
214515001214515077-000465     214515006003000681570GIFT-BAG MTLC GLIT LRG 0000001000+00003507+00000+0001T   00003507+0000001722          1400 AJ5112               1AZ
214515002214515112-116069     214515006003000535064TCS CARRIER BAG JUMBO  0000001000+00000048+00000+0001T   00000048+0000001722          1400 AJ5090               1AZ
214516000214516               214516               170213YC     1400+00000+YC0000000700+0000000700+000000000+000000098+0000000790+0000000008+I20000000000+0000000790+Z
214516001214516903-000120     214516006002099001665SWEET GS ZILLIONS 50g  0000001000+00000700+00000+0001T   00000700+0000001830          1400 AJ5150               1AZ
214517000214517               214517               170213YC     1400+00000+YC0000006688+0000006688+000000000+000000939+0000007627+0000000000+I40000007627+0000000000+Z
214517001214517903-000517     214517006001704012768SWT STRAWS FIZZY CHERRY0000001000+00001227+00000+0001T   00001227+0000001832          1400 AJ5150               1AZ
214517002214517566-000200     214517006003000384174STICKER PUFFY NEON     0000001000+00000876+00000+0001T   00000876+0000001832          1400 AJ5130               1AZ
214517003214517079-006494     214517006003000159864GLITTER GLUE 5PCE 11cm 0000001000+00001490+00000+0001T   00001490+0000001832          1400 AJ5130               1AZ
214517004214517079-009700-D   214517006003000545711PAPER SIRIO A4 RED COL.0000010000+00000306+00000+0001T   00000306+0000001832          1400 AJ5130               1AZ
214517005214517112-116038     214517006003000534906TCS CARRIER BAG MIDI   0000001000+00000035+00000+0001T   00000035+0000001832          1400 AJ5090               1AZ
214518000214518               214518               170213YC     1400+00000+YC0000009727+0000009727+000000000+000001365+0000011092+0000000000+I40000011092+0000000000+Z
214518001214518002-000800     214518006001023770660PEELER MTL/PL WHITE    0000001000+00001139+00000+0001T   00001139+0000001834          1400 AJ5300               1AZ
214518002214518002-000883     214518006001023770394CAN-OPENER             0000001000+00001753+00000+0001T   00001753+0000001834          1400 AJ5300               1AZ
214518003214518903-000494     214518006001704009911SWT GUMMY TEENY TEDDIES0000001000+00000876+00000+0001T   00000876+0000001834          1400 AJ5150               1AZ
214518004214518903-000126     214518006002099003591SWT ZILLIONS MINT 50G  0000001000+00000700+00000+0001T   00000700+0000001834          1400 AJ5150               1AZ
214518005214518088-000108     214518006001023765536POTPOURRI-OIL 10ml ASST0000001000+00001753+00000+0001T   00001753+0000001834          1400 AJ5212               1AZ
214518006214518104-000065     214518006003000250066BASKET SQUARE MESH     0000002000+00001753+00000+0001T   00001753+0000001834          1400 AJ5210               1AZ
214519000214519               214519               170213YC     1400+00000+YC0000000788+0000000788+000000000+000000111+0000000890+0000000009+I20000000000+0000000890+Z
214519001214519903-000138     214519006002099004314SWT GS WINE GUMS 60G   0000001000+00000788+00000+0001T   00000788+0000001835          1400 AJ5150               1AZ
214520000214520               214520               170213YC     1400+00000+YC0000004385+0000004385+000000000+000000614+0000004990+0000000009+I20000000000+0000004990+Z
214520001214520031-005925     214520006003000466030P/FRAME WDN 9x13CM ASST0000001000+00004385+00000+0001T   00004385+0000001842          1400 AJ5510               1AZ
214521000214521               214521               170213YC     1400+00000+YC0000003507+0000003507+000000000+000000491+0000003998+0000000000+I40000003998+0000000000+Z
214521001214521007-000710     214521006001023909244NOTE BOOK JOURNAL      0000001000+00003507+00000+0001T   00003507+0000001856          1400 AJ5130               1AZ
214522000214522               214522               170213YC     1400+00000+YC0000008767+0000008767+000000000+000001228+0000009990+0000000005+I20000000000+0000009990+Z
214522001214522018-000130     214522006001023867537MUG OCC LOVE MINI+HEART0000001000+00003507+00000+0001T   00003507+0000001858          1400 AJ5515               1AZ
214522002214522018-005009     214522006001023725608MUG W/PLUSH-BEAR LOVE  0000001000+00003507+00000+0001T   00003507+0000001858          1400 AJ5515               1AZ
214522003214522077-000467     214522006003000329991GIFT-BAG STAMP 18X23CM 0000001000+00001753+00000+0001T   00001753+0000001858          1400 AJ5112               1AZ
C21445000                                          170213YC028-000016     09483241SLAVE 1     AJ51IC0000000000+0000000000+0010000001000+
C21445200                                          170213YC083-000055     11034007SLAVE 1     AJ52IC0000000000+0000000000+0010000001000+
C21448500                                          170213YC112-116069     15214611SLAVE 1     AJ51IC0000000000+0000000000+0010000001000+
M17021301                              IT          YCGOOD DAY IT                                                                                     LAST TILL SLIP NUMBER                                                                           214522                                                                                          THANKS                                                                                          YC
M17021391                              CASH        YCSLAVE 1                       Z-REPORT No.   604TOTAL (Sales - Refunds)           4577.20       CASH TO BE BANKED                 2609.70       DEBIT CARDS                          0.00       CREDIT CARDS                      1967.50       Z-READING                         4577.20       AIRTIME DEBIT CARD SALES             0.00       AIRTIME CARD SALES                   0.00       OVERS/UNDERS                         0.00       AIRTIME CASH SALES                   0.00       GIFT CARDS                           0.00       GIFT CARD CASH SALES                 0.00       T O T A L  CASH PAYOUTS              0.00                                                                                                                                                                                                                                                                                                                                                      Z
M17021392                              CASH        YCABSENT                                                                                                                                                                                          ANNUAL LEAVE                                                                                                                                                                                    DAY OFF                                                                                                                                                                                         COMMENTS                                                                                                                                                                                                                                                                                                                                                                                       Z
Y17021300                                          YC00000000412306+000074
ZYC17021321173 SLAVE 1      SALES DATA                     NEXT INVOICE NO.  214523 0604
X YC Slave 1 First invoice 214449 170213 Last invoice 214522 170213 Next invoice 214523 Total number of records 000000255 clbackup completed 21:17:51
