244525000244525               244525               170213YC     1400+00000+YC0000001490+0000001490+000000000+000000209+0000001690+0000000009+I20000000000+0000001690+Z
244525001244525046-000010     244525004897006172987BATTERIES AAA ALKLN 2PC0000001000+00001490+00000+0001T   00001490+0000000858          1400 J79312               4AZ
244526000244526               244526               170213YC     1400+00000+YC0000001753+0000001753+000000000+000000246+0000001990+0000000009+I20000000000+0000001990+Z
244526001244526200-003024     244526006001023657299REFUSE BAGS 20PCE BLACK0000001000+00001753+00000+0001T   00001753+0000000904          1400 J79214               4AZ
244527000244527               244527               170213YC     1400+00000+YC0000011185+0000011185+000000000+000001567+0000012750+0000000002+I20000000000+0000012750+Z
244527001244527077-000299     244527006003000395576G/BAG 32x25cm LRG LOVE 0000001000+00001490+00000+0001T   00001490+0000000907          1400 J79112               4AZ
244527002244527007-000614     244527006001023768667DIARY W/LOCK+PEN LOVE  0000001000+00005262+00000+0001T   00005262+0000000907          1400 J79130               4AZ
244527003244527018-030000     244527006003000421060MUG OCCASIONS LOVE 2PCE0000001000+00004385+00000+0001T   00004385+0000000907          1400 J79515               4AZ
244527004244527112-116069     244527006003000535064TCS CARRIER BAG JUMBO  0000001000+00000048+00000+0001T   00000048+0000000907          1400 J79090               4AZ
244528000244528               244528               170213YC     1400+00000+YC0000012500+0000012500+000000000+000001752+0000014250+0000000002+I20000000000+0000014250+Z
244528001244528077-000299     244528006003000395576G/BAG 32x25cm LRG LOVE 0000001000+00001490+00000+0001T   00001490+0000000922          1400 J79112               4AZ
244528002244528301-085007     244528006003000673698ORN OCC. LOVE S/PLAQUE 0000001000+00007893+00000+0001T   00007893+0000000922          1400 J79505               4AZ
244528003244528089-060027     244528006003000245871KEY-CHAIN HEART 6X6cm  0000001000+00003069+00000+0001T   00003069+0000000922          1400 J79205               4AZ
244528004244528112-116069     244528006003000535064TCS CARRIER BAG JUMBO  0000001000+00000048+00000+0001T   00000048+0000000922          1400 J79090               4AZ
244529000244529               244529               170213YC     1400+00000+YC0000000048+0000000048+000000000+000000007+0000000050+0000000005+I20000000000+0000000050+Z
244529001244529112-116069     244529006003000535064TCS CARRIER BAG JUMBO  0000001000+00000048+00000+0001T   00000048+0000000926          1400 J79090               4AZ
244530000244530               244530               170213YC     1400+00000+YC0000006522+0000006522+000000000+000000914+0000007430+0000000006+I20000000000+0000007430+Z
244530001244530080-000124     244530006003000297733CARD & ENV VALENTINES  0000001000+00001578+00000+0001T   00001578+0000000928          1400 J79112               4AZ
244530002244530304-001204     244530006001023737984FLOWER OCC. TEDDY/ROSES0000001000+00001402+00000+0001T   00001490+0006470928          1400 J79510               4AZ
244530003244530301-085004     244530006003000420469ORN LOVE PLAQUE 21X10CM0000001000+00003507+00000+0001T   00003946+0006470928          1400 J79505               4AZ
244530004244530112-116038     244530006003000534906TCS CARRIER BAG MIDI   0000001000+00000035+00000+0001T   00000035+0000000928          1400 J79090               4AZ
244531000244531               244531               170213YC     1400+00000+YC0000002630+0000002630+000000000+000000369+0000002990+0000000009+I20000000000+0000002990+Z
244531001244531567-075699     244531006003000641277BK NOVEL CATEGORY A    0000001000+00002630+00000+0001T   00003069+0008190943          1400 J79757               4AZ
244532000244532               244532               170213YC     1400+00000+YC0000018277+0000018277+000000000+000002559+0000020836+0000000000+I40000020836+0000000000+Z
244532001244532018-000136     244532006001023659026MUG OCC LOVE W/PLUSH   0000001000+00003507+00000+0001T   00003507+0000001012          1400 J79515               4AZ
244532002244532077-000303     244532006001023593757GIFT-BAG PAPER MED     0000001000+00001578+00000+0001T   00001578+0000001012          1400 J79112               4AZ
244532003244532586-096715     244532006001492967158WATCH MENS METAL CHRONO0000001000+00013157+00000+0001T   00013157+0000001012          1400 J79160               4AZ
244532004244532112-116038     244532006003000534906TCS CARRIER BAG MIDI   0000001000+00000035+00000+0001T   00000035+0000001012          1400 J79090               4AZ
244533000244533               244533               170213YC     1400+00000+YC0000003507+0000003507+000000000+000000491+0000003990+0000000008+I20000000000+0000003990+Z
244533001244533203-007000     244533006001023886040SHOT-GLASS DISPOSABLE  0000001000+00003507+00000+0001T   00003507+0000001023          1400 J793001IC            4AZ
244534000244534               244534               170213YC     1400+00000+YC0000005611+0000005611+000000000+000000786+0000006397+0000000000+I40000006397+0000000000+Z
244534001244534006-001000     244534006003000093779HELIUM BALLOON FILL    0000002000+00000613+00000+0001T   00000613+0000001027          1400 J79131               4AZ
244534002244534006-000190     244534006003000685530BALLOONS LOVE 81x91cm  0000001000+00004385+00000+0001T   00004385+0000001027          1400 J79131               4AZ
244535000244535               244535               170213YC     1400+00000+YC0000013155+0000013155+000000000+000001843+0000014998+0000000000+I40000014998+0000000000+Z
244535001244535104-000140     244535006002923015851WASTEPAPER BIN FLIP 24L0000001000+00011402+00000+0001T   00011402+0000001030          1400 J79210               4AZ
244535002244535464-000122     244535006003000638987PLAYING CARDS POKER 2PK0000001000+00001753+00000+0001T   00001753+0000001030          1400 J79785               4AZ
244536000244536               244536               170213YC     1400+00000+YC0000001753+0000001753+000000000+000000246+0000001999+0000000000+I40000001999+0000000000+Z
244536001244536077-000354     244536006003000139224GIFT-BAG 25X32CM H/MADE0000001000+00001753+00000+0001T   00001753+0000001031          1400 J79112               4AZ
244537000244537               244537               170213YC     1400+00000+YC0000007629+0000007629+000000000+000001069+0000008690+0000000008+I20000000000+0000008690+Z
244537001244537018-050000     244537006003000412679MUG OCC LOVE TWIN BEAR 0000001000+00006139+00000+0001T   00006139+0000001108          1400 J79515               4AZ
244537002244537077-000299     244537006003000395576G/BAG 32x25cm LRG LOVE 0000001000+00001490+00000+0001T   00001490+0000001108          1400 J79112               4AZ
244538000244538               244538               170213YC     1400+00000+YC0000027226+0000027226+000000000+000003815+0000031040+0000000001+I20000000000+0000031040+Z
244538001244538079-013099     244538006003000081875ART+CRAFT EYES ASSTD   0000004000+00001753+00000+0001T   00001753+0000001109          1400 J79130               4AZ
244538002244538079-013102     244538006003000019601ART+CRAFT DIY PIPE-CLNR0000006000+00002192+00000+0001T   00002192+0000001109          1400 J79130               4AZ
244538003244538079-014101     244538006001023908612ART+CRAFT SCOUBIDOUx50 0000002000+00003507+00000+0001T   00003507+0000001109          1400 J79130               4AZ
244538004244538112-116069     244538006003000535064TCS CARRIER BAG JUMBO  0000001000+00000048+00000+0001T   00000048+0000001109          1400 J79090               4AZ
244539000244539               244539               170213YC     1400+00000+YC0000005262+0000005262+000000000+000000737+0000005990+0000000009+I20000000000+0000005990+Z
244539001244539082-007580     244539006003000698523SUNGLASS MENS DESIGNER 0000001000+00005262+00000+0001T   00005262+0000001114          1400 J79160               4AZ
244540000244540               244540               170213YC     1400+00000+YC0000038441+0000038441+000000000+000005388+0000043829+0000000000+I40000043829+0000000000+Z
244540001244540007-000206     244540006009635830215X/PAD 80-SHEETS PUNCHED0000002000+00001227+00000+0001T   00001227+0000001137          1400 J79130               4AZ
244540002244540071-001238     244540000060107212485ERASERS  3PCE    CARDED0000006000+00000876+00000+0001T   00000876+0000001137          1400 J79130               4AZ
244540003244540071-003879     244540006936198404198PENCIL HB BLU/WHITE 12s0000005000+00001753+00000+0001T   00002630+0008151137          1400 J79130               4AZ
244540004244540071-001238     244540000060107212485ERASERS  3PCE    CARDED0000001000+00000876+00000+0001T   00000876+0000001137          1400 J79130               4AZ
244540005244540200-000091     244540006003000499762PICNIC PLATES PL 12PCE 0000006000+00003507+00000+0001T   00003507+0000001137          1400 J79214               4AZ
244540006244540112-116069     244540006003000535064TCS CARRIER BAG JUMBO  0000001000+00000048+00000+0001T   00000048+0000001137          1400 J79090               4AZ
244541000244541               244541               170213YC     1400+00000+YC0000007889+0000007889+000000000+000001107+0000008990+0000000006+I20000000000+0000008990+Z
244541001244541362-019375     244541006001023730664HAIR BAND SET 24PCE    0000001000+00000876+00000+0001T   00000876+0000001137          1400 J79160               4AZ
244541002244541369-001034     244541006003000105632BABY RATTLE SINGLE ASST0000001000+00001753+00000+0001T   00001753+0000001137          1400 J79745               4AZ
244541003244541369-000225     244541006001023857132BABY EDU BATHTIME 5PC  0000001000+00002630+00000+0001T   00002630+0000001137          1400 J79745               4AZ
244541004244541362-019381     244541006001023869579HAIR BAND SET 100PCE   0000001000+00002630+00000+0001T   00002630+0000001137          1400 J79160               4AZ
244542000244542               244542               170213YC     1400+00000+YC0000006174+0000006174+000000000+000000865+0000007039+0000000000+I40000007039+0000000000+Z
244542001244542361-009988     244542006001023866011PONY 24cm W/SIDE-SADDLE0000001000+00006139+00000+0001T   00006139+0000001139          1400 J79725               4AZ
244542002244542112-116038     244542006003000534906TCS CARRIER BAG MIDI   0000001000+00000035+00000+0001T   00000035+0000001139          1400 J79090               4AZ
244543000244543               244543               170213YC     1400+00000+YC0000004385+0000004385+000000000+000000614+0000004990+0000000009+I20000000000+0000004990+Z
244543001244543082-007587     244543006003000654338SUNGLASS DESIGNER ASST 0000001000+00004385+00000+0001T   00004385+0000001144          1400 J79160               4AZ
244544000244544               244544               170213YC     1400+00000+YC0000001752+0000001752+000000000+000000246+0000001990+0000000008+I20000000000+0000001990+Z
244544001244544007-000235     244544006003000134434LABELS RECTANGULAR 60pc0000002000+00000876+00000+0001T   00000876+0000001144          1400 J79130               4AZ
244545000244545               244545               170213YC     1400+00000+YC0000000876+0000000876+000000000+000000123+0000000990+0000000009+I20000000000+0000000990+Z
244545001244545083-000295     244545006001023898562LIGHTER-GAS BUTANE 18ml0000001000+00000876+00000+0001T   00000876+0000001233          1400 J79315               4AZ
244546000244546               244546               170213YC     1400+00000+YC0000000613+0000000613+000000000+000000086+0000000690+0000000009+I20000000000+0000000690+Z
244546001244546007-000555     244546006001023848239MEMO-PAD MINI LOVE     0000001000+00000613+00000+0001T   00000613+0000001233          1400 J79130               4AZ
244547000244547               244547               170213YC     1400+00000+YC0000004383+0000004383+000000000+000000614+0000004997+0000000000+I40000004997+0000000000+Z
244547001244547077-000465     244547006003000681570GIFT-BAG MTLC GLIT LRG 0000001000+00003507+00000+0001T   00003507+0000001302          1400 J79112               4AZ
244547002244547077-000011-F   244547006001023808431TISSUE-WRAP BLUE/LILAC 0000001000+00000876+00000+0001T   00000876+0000001302          1400 J79112               4AZ
244548000244548               244548               170213YC     1400+00000+YC0000004385+0000004385+000000000+000000614+0000004990+0000000009+I20000000000+0000004990+Z
244548001244548031-080508     244548006001023802415P/FRAME PL 22X11CM LOVE0000001000+00004385+00000+0001T   00004385+0000001304          1400 J79510               4AZ
244549000244549               244549               170213YC     1400+00000+YC0000008765+0000008765+000000000+000001230+0000009995+0000000000+I40000009995+0000000000+Z
244549001244549200-003026     244549006003000276448REFUSE BAGS 10PCE GREEN0000005000+00001753+00000+0001T   00001753+0000001313          1400 J79214               4AZ
244550000244550               244550               170213YC     1400+00000+YC0000001753+0000001753+000000000+000000246+0000001990+0000000009+I20000000000+0000001990+Z
244550001244550264-000921     244550000090159150442MAISTO CAR 3" FRESH    0000001000+00001753+00000+0001T   00001753+0000001314          1400 J79710               4AZ
244551000244551               244551               170213YC     1400+00000+YC0000001490+0000001490+000000000+000000209+0000001690+0000000009+I20000000000+0000001690+Z
244551001244551077-000299     244551006003000395576G/BAG 32x25cm LRG LOVE 0000001000+00001490+00000+0001T   00001490+0000001318          1400 J79112               4AZ
244552000244552               244552               170213YC     1400+00000+YC0000006610+0000006610+000000000+000000927+0000007530+0000000007+I20000000000+0000007530+Z
244552001244552018-000108     244552006001023380265MUG NOVELTY ICON ASST  0000001000+00001753+00000+0001T   00001753+0000001455          1400 J79515               4AZ
244552002244552366-000300     244552006001023902955DRESSUP TIARA FEATHER  0000001000+00002630+00000+0001T   00002630+0000001455          1400 J79131               4AZ
244552003244552006-000789     244552006001023148612CROWN BOY              0000001000+00002192+00000+0001T   00002192+0000001455          1400 J79131               4AZ
244552004244552112-116038     244552006003000534906TCS CARRIER BAG MIDI   0000001000+00000035+00000+0001T   00000035+0000001455          1400 J79090               4AZ
244553000244553               244553               170213YC     1400+00000+YC0000003067+0000003067+000000000+000000431+0000003490+0000000008+I20000000000+0000003490+Z
244553001244553027-000194     244553006001246602472MOP COMPLETE           0000001000+00002279+00000+0001T   00002279+0000001456          1400 J79212               4AZ
244553002244553903-000138     244553006002099004314SWT GS WINE GUMS 60G   0000001000+00000788+00000+0001T   00000788+0000001456          1400 J79150               4AZ
244554000244554               244554               170213YC     1400+00000+YC0000001753+0000001753+000000000+000000246+0000001990+0000000009+I20000000000+0000001990+Z
244554001244554162-081665     244554006001492816654SS 18PK HAIR ELASTICS  0000001000+00001753+00000+0001T   00001753+0000001555          1400 J79160               4AZ
244555000244555               244555               170213YC     1400+00000+YC0000000035+0000000035+000000000+000000005+0000000040+0000000000+I20000000000+0000000040+Z
244555001244555112-116038     244555006003000534906TCS CARRIER BAG MIDI   0000001000+00000035+00000+0001T   00000035+0000001556          1400 J79090               4AZ
244556000244556               244556               170213YC     1400+00000+YC0000013724+0000013724+000000000+000001923+0000015640+0000000007+I20000000000+0000015640+Z
244556001244556261-000947     244556006001023832610GUN FRICTION           0000001000+00003507+00000+0001T   00003507+0000001606          1400 J79710               4AZ
244556002244556266-001028     244556006003000600236SWORD P/SET LIGHT&SOUND0000001000+00006139+00000+0001T   00006139+0000001606          1400 J79710               4AZ
244556003244556564-000012     244556006001023130075BUBBLE BOTTLE MAGIC    0000002000+00000700+00000+0001T   00000700+0000001606          1400 J79131               4AZ
244556004244556046-000011-A   244556006003000438891BATTERIES SIZE:AA  4PCE0000001000+00002630+00000+0001T   00002630+0000001606          1400 J79312               4AZ
244556005244556112-116069     244556006003000535064TCS CARRIER BAG JUMBO  0000001000+00000048+00000+0001T   00000048+0000001606          1400 J79090               4AZ
244557000244557               244557               170213YC     1400+00000+YC0000001801+0000001801+000000000+000000253+0000002054+0000000000+I40000002054+0000000000+Z
244557001244557007-000205     244557006002324000432FILE BINDER 2-RING A4  0000001000+00001753+00000+0001T   00001753+0000001608          1400 J79130               4AZ
244557002244557112-116069     244557006003000535064TCS CARRIER BAG JUMBO  0000001000+00000048+00000+0001T   00000048+0000001608          1400 J79090               4AZ
244558000244558               244558               170213YC     1400+00000+YC0000009207+0000009207+000000000+000001290+0000010497+0000000000+I40000010497+0000000000+Z
244558001244558030-000031-A   244558006003000457588PLAQUE W/WORDS ASSTD   0000001000+00004385+00000+0001T   00004823+0006471609          1400 J79505               4AZ
244558002244558077-000351     244558006003000139033GIFT-BAG 18X23CM E/D P 0000001000+00001753+00000+0001T   00001753+0000001609          1400 J79112               4AZ
244558003244558030-000030-B   244558006003000249381PLAQUE GLASS MOM       0000001000+00003069+00000+0001T   00003069+0000001609          1400 J79505               4AZ
244559000244559               244559               170213YC     1400+00000+YC0000007063+0000007063+000000000+000000990+0000008053+0000000000+I40000008053+0000000000+Z
244559001244559039-000500     244559006001023816450C/VOTIVE 8PC RAINBOW   0000001000+00005262+00000+0001T   00005262+0000001613          1400 J79510               4AZ
244559002244559039-001023     244559006003000466337CANDLE TEA-LITE METALIC0000001000+00001753+00000+0001T   00001753+0000001613          1400 J79510               4AZ
244559003244559112-116069     244559006003000535064TCS CARRIER BAG JUMBO  0000001000+00000048+00000+0001T   00000048+0000001613          1400 J79090               4AZ
244560000244560               244560               170213YC     1400+00000+YC0000001578+0000001578+000000000+000000221+0000001790+0000000009+I20000000000+0000001790+Z
244560001244560077-000315     244560006003000181186GIFT-BAG 20x28cm MATT  0000001000+00001578+00000+0001T   00001578+0000001618          1400 J79112               4AZ
244561000244561               244561               170213YC     1400+00000+YC0000002539+0000002539+000000000+000000358+0000002897+0000000000+I40000002897+0000000000+Z
244561001244561039-000026     244561006001023551610C/TAPERED 25CM M/RED   0000002000+00001051+00000+0001T   00001051+0000001622          1400 J79510               4AZ
244561002244561083-000049     244561004891035200024CIG-LIGHTER DISPOSABLE 0000001000+00000437+00000+0001T   00000437+0000001622          1400 J79315               4AZ
244562000244562               244562               170213YC     1400+00000+YC0000001578+0000001578+000000000+000000221+0000001790+0000000009+I20000000000+0000001790+Z
244562001244562077-000303     244562006001023593757GIFT-BAG PAPER MED     0000001000+00001578+00000+0001T   00001578+0000001623          1400 J79112               4AZ
244563000244563               244563               170213YC     1400+00000+YC0000003542+0000003542+000000000+000000496+0000004030+0000000008+I20000000000+0000004030+Z
244563001244563018-005009     244563006001023725608MUG W/PLUSH-BEAR LOVE  0000001000+00003507+00000+0001T   00003507+0000001646          1400 J79515               4AZ
244563002244563112-116038     244563006003000534906TCS CARRIER BAG MIDI   0000001000+00000035+00000+0001T   00000035+0000001646          1400 J79090               4AZ
244564000244564               244564               170213YC     1400+00000+YC0000005611+0000005611+000000000+000000786+0000006390+0000000007+I20000000000+0000006390+Z
244564001244564006-000190     244564006003000685530BALLOONS LOVE 81x91cm  0000001000+00004385+00000+0001T   00004385+0000001655          1400 J79131               4AZ
244564002244564006-001000     244564006003000093779HELIUM BALLOON FILL    0000002000+00000613+00000+0001T   00000613+0000001655          1400 J79131               4AZ
244565000244565               244565               170213YC     1400+00000+YC0000003507+0000003507+000000000+000000491+0000003990+0000000008+I20000000000+0000003990+Z
244565001244565089-000010     244565006003000106523KEY CHAIN REFLECTOR 2PC0000001000+00003507+00000+0001T   00003507+0000001657          1400 J79205               4AZ
244566000244566               244566               170213YC     1400+00000+YC0000003980+0000003980+000000000+000000558+0000004538+0000000000+I40000004538+0000000000+Z
244566001244566089-000192-A   244566006001023901774KEY-CHAIN ACRYLIC      0000001000+00000876+00000+0001T   00000876+0000001725          1400 J79205               4AZ
244566002244566366-000255     244566006001023918413DRESS UP TIARA CROWN   0000001000+00003069+00000+0001T   00003069+0000001725          1400 J79131               4AZ
244566003244566112-116038     244566006003000534906TCS CARRIER BAG MIDI   0000001000+00000035+00000+0001T   00000035+0000001725          1400 J79090               4AZ
244567000244567               244567               170213YC     1400+00000+YC0000001753+0000001753+000000000+000000246+0000001990+0000000009+I20000000000+0000001990+Z
244567001244567077-000472     244567006003000330133G-BAG DESGNR LRG 25X32 0000001000+00001753+00000+0001T   00001753+0000001727          1400 J79112               4AZ
244568000244568               244568               170213YC     1400+00000+YC0000000832+0000000832+000000000+000000117+0000000940+0000000009+I20000000000+0000000940+Z
244568001244568159-000150-B   244568006003000058440SOAP-BOX PL ASSORTED   0000001000+00000832+00000+0001T   00000832+0000001733          1400 J79200               4AZ
244569000244569               244569               170213YC     1400+00000+YC0000002050+0000002050+000000000+000000288+0000002330+0000000008+I20000000000+0000002330+Z
244569001244569903-000710     244569006002099007056SWT REFRESHERS MINT    0000001000+00001139+00000+0001T   00001139+0000001734          1400 J79150               4AZ
244569002244569046-001620-PK2 244569004897006178408BATTERY LITHIUM CR-16200000001000+00000876+00000+0001T   00000876+0000001734          1400 J79312               4AZ
244569003244569112-116038     244569006003000534906TCS CARRIER BAG MIDI   0000001000+00000035+00000+0001T   00000035+0000001734          1400 J79090               4AZ
244570000244570               244570               170213YC     1400+00000+YC0000021780+0000021780+000000000+000003056+0000024830+0000000006+I20000000000+0000024830+Z
244570001244570077-000010-C   244570006001023123879CREPE-PAPER RED        0000001000+00000788+00000+0001T   00000788+0000001738          1400 J79112               4AZ
244570002244570077-000011-D   244570006001023808554TISSUE-WRAP WHITE 10PCE0000002000+00000876+00000+0001T   00000876+0000001738          1400 J79112               4AZ
244570003244570077-000010-C   244570006001023123879CREPE-PAPER RED        0000001000+00000788+00000+0001T   00000788+0000001738          1400 J79112               4AZ
244570004244570006-000803     244570006003000653676STREAMERS SET 3ROLLS   0000001000+00002630+00000+0001T   00002630+0000001738          1400 J79131               4AZ
244570005244570006-000223     244570006001023891327PARTY EYE-MASK 6PCE    0000003000+00000876+00000+0001T   00000876+0000001738          1400 J79131               4AZ
244570006244570006-000166-D   244570006003000516490BALLOONS LRG 6PC RED   0000003000+00001314+00000+0001T   00001314+0000001738          1400 J79131               4AZ
244570007244570006-000120     244570006001023346889BALLOONS 10PC MIX COL  0000001000+00001753+00000+0001T   00001753+0000001738          1400 J79131               4AZ
244570008244570006-000109-A   244570006003000645435BALLOONS HELIUM 2PC    0000003000+00001753+00000+0001T   00001753+0000001738          1400 J79131               4AZ
244570009244570112-116069     244570006003000535064TCS CARRIER BAG JUMBO  0000001000+00000048+00000+0001T   00000048+0000001738          1400 J79090               4AZ
244570010244570077-000926     244570006003000414178G/WRAP 700mmx2m LOVE   0000001000+00002192+00000+0001T   00002192+0000001738          1400 J79112               4AZ
244571000244571               244571               170213YC     1400+00000+YC0000002192+0000002192+000000000+000000307+0000002490+0000000009+I20000000000+0000002490+Z
244571001244571566-000359     244571006003000582709STICKER BOOK LOVE SPARK0000001000+00002192+00000+0001T   00002192+0000001738          1400 J79130               4AZ
244572000244572               244572               170213YC     1400+00000+YC0000003507+0000003507+000000000+000000491+0000003998+0000000000+I40000003998+0000000000+Z
244572001244572018-005009     244572006001023725608MUG W/PLUSH-BEAR LOVE  0000001000+00003507+00000+0001T   00003507+0000001740          1400 J79515               4AZ
244573000244573               244573               170213YC     1400+00000+YC0000003541+0000003541+000000000+000000497+0000004030+0000000008+I20000000000+0000004030+Z
244573001244573080-000123     244573006003000237722CARD&ENVELOPE-SYMPATHY 0000002000+00001753+00000+0001T   00001753+0000001742          1400 J79112               4AZ
244573002244573112-116038     244573006003000534906TCS CARRIER BAG MIDI   0000001000+00000035+00000+0001T   00000035+0000001742          1400 J79090               4AZ
244574000244574               244574               170213YC     1400+00000+YC0000013151+0000013151+000000000+000001844+0000014995+0000000000+I40000014995+0000000000+Z
244574001244574077-000520     244574006001023908254GIFT-BAG 25X32CM       0000001000+00001753+00000+0001T   00001753+0000001747          1400 J79112               4AZ
244574002244574040-000118     244574006001023772664C/HOLDER MTL W/GLS-CUP 0000001000+00005262+00000+0001T   00007016+0008171747          1400 J79510               4AZ
244574003244574106-001099     244574006003000653447WATER BOTTLE 650ml     0000002000+00002630+00000+0001T   00002630+0000001747          1400 J79210               4AZ
244574004244574089-000099     244574006003000677566KEY CHAIN MTL SPORT AST0000001000+00000876+00000+0001T   00000876+0000001747          1400 J79205               4AZ
244575000244575               244575               170213YC     1400+00000+YC0000001490+0000001490+000000000+000000209+0000001690+0000000009+I20000000000+0000001690+Z
244575001244575039-000108     244575006001023524034TEA-LITE CANDLES 8PCE  0000001000+00001490+00000+0001T   00001490+0000001750          1400 J79510               4AZ
244576000244576               244576               170213YC     1400+00000+YC0000002630+0000002630+000000000+000000369+0000002990+0000000009+I20000000000+0000002990+Z
244576001244576304-000720     244576006001023843050F/BUNCH ROSE 6-HEAD AST0000001000+00002630+00000+0001T   00002630+0000001753          1400 J79510               4AZ
244577000244577               244577               170213YC     1400+00000+YC0000007178+0000007178+000000000+000001007+0000008180+0000000005+I20000000000+0000008180+Z
244577001244577566-001228     244577006003000284153STICKERS CRYSTAL ASSTD 0000001000+00001753+00000+0001T   00001753+0000001802          1400 J79130               4AZ
244577002244577077-000318     244577006001023609755GIFT-BAG 18X23CM E/D AN0000001000+00001227+00000+0001T   00001227+0000001802          1400 J79112               4AZ
244577003244577018-000108     244577006001023380265MUG NOVELTY ICON ASST  0000001000+00001753+00000+0001T   00001753+0000001802          1400 J79515               4AZ
244577004244577903-000095     244577006001704011495SWT SPECKLED-EGGS 100G 0000001000+00002104+00000+0001T   00002104+0000001802          1400 J79150               4AZ
244577005244577112-116038     244577006003000534906TCS CARRIER BAG MIDI   0000001000+00000035+00000+0001T   00000035+0000001802          1400 J79090               4AZ
244577006244577079-009700-D   244577006003000545711PAPER SIRIO A4 RED COL.0000001000+00000306+00000+0001T   00000306+0000001802          1400 J79130               4AZ
244578000244578               244578               170213YC     1400+00000+YC0000001753+0000001753+000000000+000000246+0000001990+0000000009+I20000000000+0000001990+Z
244578001244578077-000316     244578006001023609731GIFT-BAG 25X32CM MATT  0000001000+00001753+00000+0001T   00001753+0000001804          1400 J79112               4AZ
244579000244579               244579               170213YC     1400+00000+YC0000003507+0000003507+000000000+000000491+0000003990+0000000008+I20000000000+0000003990+Z
244579001244579018-000130     244579006001023867537MUG OCC LOVE MINI+HEART0000001000+00003507+00000+0001T   00003507+0000001806          1400 J79515               4AZ
244580000244580               244580               170213YC     1400+00000+YC0000003541+0000003541+000000000+000000497+0000004038+0000000000+I40000004038+0000000000+Z
244580001244580103-000030     244580006003000510085BASKET WOVE ROUND 17X170000002000+00001753+00000+0001T   00002192+0008161813          1400 J79300               4AZ
244580002244580112-116038     244580006003000534906TCS CARRIER BAG MIDI   0000001000+00000035+00000+0001T   00000035+0000001813          1400 J79090               4AZ
244581000244581               244581               170213YC     1400+00000+YC0000006400+0000006400+000000000+000000897+0000007290+0000000007+I20000000000+0000007290+Z
244581001244581018-000170     244581006001023775528MUG OCC. LOVE 2PC MINI 0000001000+00002192+00000+0001T   00002192+0000001817          1400 J79515               4AZ
244581002244581362-101415     244581006003000308262DIY BRACELET           0000001000+00002630+00000+0001T   00002630+0000001817          1400 J79160               4AZ
244581003244581077-000303     244581006001023593757GIFT-BAG PAPER MED     0000001000+00001578+00000+0001T   00001578+0000001817          1400 J79112               4AZ
244582000244582               244582               170213YC     1400+00000+YC0000001490+0000001490+000000000+000000209+0000001690+0000000009+I20000000000+0000001690+Z
244582001244582077-000299     244582006003000395576G/BAG 32x25cm LRG LOVE 0000001000+00001490+00000+0001T   00001490+0000001819          1400 J79112               4AZ
244583000244583               244583               170213YC     1400+00000+YC0000007137+0000007137+000000000+000001004+0000008141+0000000000+I40000008141+0000000000+Z
244583001244583079-009700-B   244583006003000547661PAPER SIRIO A4 WHITE   0000010000+00000306+00000+0001T   00000306+0000001823          1400 J79130               4AZ
244583002244583079-009702-F   244583008427973059392PAPER SIRIO A2 GREEN   0000002000+00001051+00000+0001T   00001051+0000001823          1400 J79130               4AZ
244583003244583903-002851     244583000000087108538MENTOS ROLL STRAWBERRY 0000001000+00001051+00000+0001T   00001051+0000001823          1400 J79150               4AZ
244583004244583903-003080     244583005907029004673SWT SNACK STIX CHOC 50g0000001000+00000876+00000+0001T   00000876+0000001823          1400 J79150               4AZ
244583005244583112-116069     244583006003000535064TCS CARRIER BAG JUMBO  0000001000+00000048+00000+0001T   00000048+0000001823          1400 J79090               4AZ
244584000244584               244584               170213YC     1400+00000+YC0000002630+0000002630+000000000+000000369+0000002990+0000000009+I20000000000+0000002990+Z
244584001244584304-000720     244584006001023843050F/BUNCH ROSE 6-HEAD AST0000001000+00002630+00000+0001T   00002630+0000001823          1400 J79510               4AZ
244585000244585               244585               170213YC     1400+00000+YC0000001753+0000001753+000000000+000000246+0000001990+0000000009+I20000000000+0000001990+Z
244585001244585007-000029     244585006003000577736PRICE FLASH 17x11cm    0000001000+00001753+00000+0001T   00001753+0000001825          1400 J79130               4AZ
244586000244586               244586               170213YC     1400+00000+YC0000010557+0000010557+000000000+000001479+0000012030+0000000006+I20000000000+0000012030+Z
244586001244586304-001116     244586006003000426164F/BUNCH ROSES 12-HEAD  0000001000+00005262+00000+0001T   00005262+0000001828          1400 J79510               4AZ
244586002244586018-005009     244586006001023725608MUG W/PLUSH-BEAR LOVE  0000001000+00003507+00000+0001T   00003507+0000001828          1400 J79515               4AZ
244586003244586112-116038     244586006003000534906TCS CARRIER BAG MIDI   0000001000+00000035+00000+0001T   00000035+0000001828          1400 J79090               4AZ
244586004244586466-000200     244586000489281100003HULA-HOOP     ASSTD    0000001000+00001753+00000+0001T   00001753+0000001828          1400 J79785               4AZ
244587000244587               244587               170213YC     1400+00000+YC0000002102+0000002102+000000000+000000296+0000002390+0000000008+I20000000000+0000002390+Z
244587001244587079-009702-C   244587008427973059309PAPER SIRIO A2 VIOLET  0000002000+00001051+00000+0001T   00001051+0000001829          1400 J79130               4AZ
244588000244588               244588               170213YC     1400+00000+YC0000001226+0000001226+000000000+000000172+0000001390+0000000008+I20000000000+0000001390+Z
244588001244588083-000055     244588006003000003853LIGHTER ELCTRNC REFILBL0000002000+00000613+00000+0001T   00000613+0000001830          1400 J79315               4AZ
B24453300                                          170213YC203-007000     10232356SLAVE 4     J791IC0000002000+0000001000+0000000000000+
M17021301                              IT          YCGOOD DAY IT                                                                                     THE LAST TILL SLIP                                                                              244588                                                                                          THANKS                                                                                          YC
M17021391                              CASH        YCSLAVE 4                       Z-REPORT No.   131TOTAL (Sales - Refunds)           4183.81       CASH TO BE BANKED                 2490.80       DEBIT CARDS                          0.00       CREDIT CARDS                      1693.01       Z-READING                         4183.81       AIRTIME DEBIT CARD SALES             0.00       AIRTIME CARD SALES                   0.00       OVERS/UNDERS                         0.00       AIRTIME CASH SALES                   0.00       GIFT CARDS                           0.00       GIFT CARD CASH SALES                 0.00       T O T A L  CASH PAYOUTS              0.00                                                                                                                                                                                                                                                                                                                                                      Z
M17021392                              CASH        YCABSENT                                                                                                                                                                                          ANNUAL LEAVE                                                                                                                                                                                    DAY OFF                                                                                                                                                                                         COMMENTS                                                                                                                                                                                                                                                                                                                                                                                       Z
Y17021300                                          YC00000000367249+000064
ZYC17021321183 SLAVE 4      SALES DATA                     NEXT INVOICE NO.  244589 0131
X YC Slave 4 First invoice 244525 170213 Last invoice 244588 170213 Next invoice 244589 Total number of records 000000210 clbackup completed 21:18:02
